20150521-11:17:08.327: 8=FIX.4.4|9=57|35=5|34=1|49=BOGCURNCY|52=20150521-11:17:08.327|56=LVMDG|10=001|
20150521-11:17:09.261: 8=FIX.4.4|9=57|35=5|34=1|49=BOGCURNCY|52=20150521-11:17:09.261|56=LVMDG|10=255|
20150521-11:17:10.252: 8=FIX.4.4|9=75|35=A|34=1|49=BOGCURNCY|52=20150521-11:17:10.252|56=LVMDG|98=0|108=60|141=Y|10=076|
20150521-11:17:10.267: 8=FIX.4.4|9=0071|35=A|49=LVMDG|56=BOGCURNCY|34=1|52=20150521-11:17:10|98=0|108=60|141=Y|10=225|
20150521-11:18:10.252: 8=FIX.4.4|9=57|35=0|34=2|49=BOGCURNCY|52=20150521-11:18:10.252|56=LVMDG|10=244|
20150521-11:18:10.266: 8=FIX.4.4|9=0053|35=0|49=LVMDG|56=BOGCURNCY|34=2|52=20150521-11:18:10|10=137|
20150521-11:19:10.267: 8=FIX.4.4|9=0053|35=0|49=LVMDG|56=BOGCURNCY|34=3|52=20150521-11:19:10|10=139|
20150521-11:19:10.267: 8=FIX.4.4|9=57|35=0|34=3|49=BOGCURNCY|52=20150521-11:19:10.267|56=LVMDG|10=252|
20150521-11:20:10.267: 8=FIX.4.4|9=0053|35=0|49=LVMDG|56=BOGCURNCY|34=4|52=20150521-11:20:10|10=132|
20150521-11:20:10.268: 8=FIX.4.4|9=57|35=0|34=4|49=BOGCURNCY|52=20150521-11:20:10.268|56=LVMDG|10=246|
20150521-11:21:10.267: 8=FIX.4.4|9=0053|35=0|49=LVMDG|56=BOGCURNCY|34=5|52=20150521-11:21:10|10=134|
20150521-11:21:10.268: 8=FIX.4.4|9=57|35=0|34=5|49=BOGCURNCY|52=20150521-11:21:10.268|56=LVMDG|10=248|
20150521-11:22:10.268: 8=FIX.4.4|9=0053|35=0|49=LVMDG|56=BOGCURNCY|34=6|52=20150521-11:22:10|10=136|
20150521-11:22:10.268: 8=FIX.4.4|9=57|35=0|34=6|49=BOGCURNCY|52=20150521-11:22:10.268|56=LVMDG|10=250|
20150521-11:23:10.267: 8=FIX.4.4|9=0053|35=0|49=LVMDG|56=BOGCURNCY|34=7|52=20150521-11:23:10|10=138|
20150521-11:23:10.268: 8=FIX.4.4|9=57|35=0|34=7|49=BOGCURNCY|52=20150521-11:23:10.268|56=LVMDG|10=252|
20150521-11:24:10.268: 8=FIX.4.4|9=0053|35=0|49=LVMDG|56=BOGCURNCY|34=8|52=20150521-11:24:10|10=140|
20150521-11:24:10.268: 8=FIX.4.4|9=57|35=0|34=8|49=BOGCURNCY|52=20150521-11:24:10.268|56=LVMDG|10=254|
20150521-11:25:10.267: 8=FIX.4.4|9=0053|35=0|49=LVMDG|56=BOGCURNCY|34=9|52=20150521-11:25:10|10=142|
20150521-11:25:11.252: 8=FIX.4.4|9=57|35=0|34=9|49=BOGCURNCY|52=20150521-11:25:11.252|56=LVMDG|10=250|
20150521-11:26:10.267: 8=FIX.4.4|9=0054|35=0|49=LVMDG|56=BOGCURNCY|34=10|52=20150521-11:26:10|10=184|
20150521-11:26:12.251: 8=FIX.4.4|9=58|35=0|34=10|49=BOGCURNCY|52=20150521-11:26:12.251|56=LVMDG|10=036|
20150521-11:27:10.268: 8=FIX.4.4|9=0054|35=0|49=LVMDG|56=BOGCURNCY|34=11|52=20150521-11:27:10|10=186|
20150521-11:27:12.252: 8=FIX.4.4|9=58|35=0|34=11|49=BOGCURNCY|52=20150521-11:27:12.252|56=LVMDG|10=039|
20150521-11:28:10.268: 8=FIX.4.4|9=0054|35=0|49=LVMDG|56=BOGCURNCY|34=12|52=20150521-11:28:10|10=188|
20150521-11:28:13.251: 8=FIX.4.4|9=58|35=0|34=12|49=BOGCURNCY|52=20150521-11:28:13.251|56=LVMDG|10=041|
20150521-11:29:10.267: 8=FIX.4.4|9=0054|35=0|49=LVMDG|56=BOGCURNCY|34=13|52=20150521-11:29:10|10=190|
20150521-11:29:14.251: 8=FIX.4.4|9=58|35=0|34=13|49=BOGCURNCY|52=20150521-11:29:14.251|56=LVMDG|10=044|
20150521-11:30:10.269: 8=FIX.4.4|9=0054|35=0|49=LVMDG|56=BOGCURNCY|34=14|52=20150521-11:30:10|10=183|
20150521-11:30:14.251: 8=FIX.4.4|9=58|35=0|34=14|49=BOGCURNCY|52=20150521-11:30:14.251|56=LVMDG|10=037|
20150521-11:31:10.268: 8=FIX.4.4|9=0054|35=0|49=LVMDG|56=BOGCURNCY|34=15|52=20150521-11:31:10|10=185|
20150521-11:31:14.251: 8=FIX.4.4|9=58|35=0|34=15|49=BOGCURNCY|52=20150521-11:31:14.251|56=LVMDG|10=039|
20150521-11:32:10.270: 8=FIX.4.4|9=0054|35=0|49=LVMDG|56=BOGCURNCY|34=16|52=20150521-11:32:10|10=187|
20150521-11:32:15.251: 8=FIX.4.4|9=58|35=0|34=16|49=BOGCURNCY|52=20150521-11:32:15.251|56=LVMDG|10=042|
20150521-11:33:10.267: 8=FIX.4.4|9=0054|35=0|49=LVMDG|56=BOGCURNCY|34=17|52=20150521-11:33:10|10=189|
20150521-11:33:16.251: 8=FIX.4.4|9=58|35=0|34=17|49=BOGCURNCY|52=20150521-11:33:16.251|56=LVMDG|10=045|
20150521-11:34:10.275: 8=FIX.4.4|9=0054|35=0|49=LVMDG|56=BOGCURNCY|34=18|52=20150521-11:34:10|10=191|
20150521-11:34:17.251: 8=FIX.4.4|9=58|35=0|34=18|49=BOGCURNCY|52=20150521-11:34:17.251|56=LVMDG|10=048|
20150521-11:35:10.268: 8=FIX.4.4|9=0054|35=0|49=LVMDG|56=BOGCURNCY|34=19|52=20150521-11:35:10|10=193|
20150521-11:35:17.251: 8=FIX.4.4|9=58|35=0|34=19|49=BOGCURNCY|52=20150521-11:35:17.251|56=LVMDG|10=050|
20150521-11:36:10.272: 8=FIX.4.4|9=0054|35=0|49=LVMDG|56=BOGCURNCY|34=20|52=20150521-11:36:10|10=186|
20150521-11:36:17.251: 8=FIX.4.4|9=58|35=0|34=20|49=BOGCURNCY|52=20150521-11:36:17.251|56=LVMDG|10=043|
20150521-11:37:10.269: 8=FIX.4.4|9=0054|35=0|49=LVMDG|56=BOGCURNCY|34=21|52=20150521-11:37:10|10=188|
20150521-11:37:17.252: 8=FIX.4.4|9=58|35=0|34=21|49=BOGCURNCY|52=20150521-11:37:17.252|56=LVMDG|10=046|
20150521-11:38:10.270: 8=FIX.4.4|9=0054|35=0|49=LVMDG|56=BOGCURNCY|34=22|52=20150521-11:38:10|10=190|
20150521-11:38:17.252: 8=FIX.4.4|9=58|35=0|34=22|49=BOGCURNCY|52=20150521-11:38:17.252|56=LVMDG|10=048|
20150521-11:39:10.273: 8=FIX.4.4|9=0054|35=0|49=LVMDG|56=BOGCURNCY|34=23|52=20150521-11:39:10|10=192|
20150521-11:39:18.251: 8=FIX.4.4|9=58|35=0|34=23|49=BOGCURNCY|52=20150521-11:39:18.251|56=LVMDG|10=050|
20150521-11:40:10.276: 8=FIX.4.4|9=0054|35=0|49=LVMDG|56=BOGCURNCY|34=24|52=20150521-11:40:10|10=185|
20150521-11:40:18.252: 8=FIX.4.4|9=58|35=0|34=24|49=BOGCURNCY|52=20150521-11:40:18.252|56=LVMDG|10=044|
20150521-11:41:10.270: 8=FIX.4.4|9=0054|35=0|49=LVMDG|56=BOGCURNCY|34=25|52=20150521-11:41:10|10=187|
20150521-11:41:19.251: 8=FIX.4.4|9=58|35=0|34=25|49=BOGCURNCY|52=20150521-11:41:19.251|56=LVMDG|10=046|
20150521-11:42:10.270: 8=FIX.4.4|9=0054|35=0|49=LVMDG|56=BOGCURNCY|34=26|52=20150521-11:42:10|10=189|
20150521-11:42:19.251: 8=FIX.4.4|9=58|35=0|34=26|49=BOGCURNCY|52=20150521-11:42:19.251|56=LVMDG|10=048|
20150521-11:43:10.271: 8=FIX.4.4|9=0054|35=0|49=LVMDG|56=BOGCURNCY|34=27|52=20150521-11:43:10|10=191|
20150521-11:43:19.251: 8=FIX.4.4|9=58|35=0|34=27|49=BOGCURNCY|52=20150521-11:43:19.251|56=LVMDG|10=050|
20150521-11:44:10.272: 8=FIX.4.4|9=0054|35=0|49=LVMDG|56=BOGCURNCY|34=28|52=20150521-11:44:10|10=193|
20150521-11:44:19.251: 8=FIX.4.4|9=58|35=0|34=28|49=BOGCURNCY|52=20150521-11:44:19.251|56=LVMDG|10=052|
20150521-11:45:10.273: 8=FIX.4.4|9=0054|35=0|49=LVMDG|56=BOGCURNCY|34=29|52=20150521-11:45:10|10=195|
20150521-11:45:19.252: 8=FIX.4.4|9=58|35=0|34=29|49=BOGCURNCY|52=20150521-11:45:19.252|56=LVMDG|10=055|
20150521-11:46:10.274: 8=FIX.4.4|9=0054|35=0|49=LVMDG|56=BOGCURNCY|34=30|52=20150521-11:46:10|10=188|
20150521-11:46:20.251: 8=FIX.4.4|9=58|35=0|34=30|49=BOGCURNCY|52=20150521-11:46:20.251|56=LVMDG|10=039|
20150521-11:47:10.274: 8=FIX.4.4|9=0054|35=0|49=LVMDG|56=BOGCURNCY|34=31|52=20150521-11:47:10|10=190|
20150521-11:47:20.251: 8=FIX.4.4|9=58|35=0|34=31|49=BOGCURNCY|52=20150521-11:47:20.251|56=LVMDG|10=041|
20150521-11:48:10.274: 8=FIX.4.4|9=0054|35=0|49=LVMDG|56=BOGCURNCY|34=32|52=20150521-11:48:10|10=192|
20150521-11:48:20.251: 8=FIX.4.4|9=58|35=0|34=32|49=BOGCURNCY|52=20150521-11:48:20.251|56=LVMDG|10=043|
20150521-11:49:10.275: 8=FIX.4.4|9=0054|35=0|49=LVMDG|56=BOGCURNCY|34=33|52=20150521-11:49:10|10=194|
20150521-11:49:21.251: 8=FIX.4.4|9=58|35=0|34=33|49=BOGCURNCY|52=20150521-11:49:21.251|56=LVMDG|10=046|
20150521-11:50:10.275: 8=FIX.4.4|9=0054|35=0|49=LVMDG|56=BOGCURNCY|34=34|52=20150521-11:50:10|10=187|
20150521-11:50:21.252: 8=FIX.4.4|9=58|35=0|34=34|49=BOGCURNCY|52=20150521-11:50:21.252|56=LVMDG|10=040|
20150521-11:51:10.274: 8=FIX.4.4|9=0054|35=0|49=LVMDG|56=BOGCURNCY|34=35|52=20150521-11:51:10|10=189|
20150521-11:51:21.252: 8=FIX.4.4|9=58|35=0|34=35|49=BOGCURNCY|52=20150521-11:51:21.252|56=LVMDG|10=042|
20150521-11:52:10.275: 8=FIX.4.4|9=0054|35=0|49=LVMDG|56=BOGCURNCY|34=36|52=20150521-11:52:10|10=191|
20150521-11:52:21.252: 8=FIX.4.4|9=58|35=0|34=36|49=BOGCURNCY|52=20150521-11:52:21.252|56=LVMDG|10=044|
20150521-11:53:10.275: 8=FIX.4.4|9=0054|35=0|49=LVMDG|56=BOGCURNCY|34=37|52=20150521-11:53:10|10=193|
20150521-11:53:22.251: 8=FIX.4.4|9=58|35=0|34=37|49=BOGCURNCY|52=20150521-11:53:22.251|56=LVMDG|10=046|
20150521-11:54:10.274: 8=FIX.4.4|9=0054|35=0|49=LVMDG|56=BOGCURNCY|34=38|52=20150521-11:54:10|10=195|
20150521-11:54:22.252: 8=FIX.4.4|9=58|35=0|34=38|49=BOGCURNCY|52=20150521-11:54:22.252|56=LVMDG|10=049|
20150521-11:55:10.274: 8=FIX.4.4|9=0054|35=0|49=LVMDG|56=BOGCURNCY|34=39|52=20150521-11:55:10|10=197|
20150521-11:55:23.251: 8=FIX.4.4|9=58|35=0|34=39|49=BOGCURNCY|52=20150521-11:55:23.251|56=LVMDG|10=051|
20150521-11:56:10.275: 8=FIX.4.4|9=0054|35=0|49=LVMDG|56=BOGCURNCY|34=40|52=20150521-11:56:10|10=190|
20150521-11:56:24.251: 8=FIX.4.4|9=58|35=0|34=40|49=BOGCURNCY|52=20150521-11:56:24.251|56=LVMDG|10=045|
20150521-11:57:10.276: 8=FIX.4.4|9=0054|35=0|49=LVMDG|56=BOGCURNCY|34=41|52=20150521-11:57:10|10=192|
20150521-11:57:25.251: 8=FIX.4.4|9=58|35=0|34=41|49=BOGCURNCY|52=20150521-11:57:25.251|56=LVMDG|10=048|
20150521-11:58:10.276: 8=FIX.4.4|9=0054|35=0|49=LVMDG|56=BOGCURNCY|34=42|52=20150521-11:58:10|10=194|
20150521-11:58:25.251: 8=FIX.4.4|9=58|35=0|34=42|49=BOGCURNCY|52=20150521-11:58:25.251|56=LVMDG|10=050|
20150521-11:59:10.277: 8=FIX.4.4|9=0054|35=0|49=LVMDG|56=BOGCURNCY|34=43|52=20150521-11:59:10|10=196|
20150521-11:59:26.251: 8=FIX.4.4|9=58|35=0|34=43|49=BOGCURNCY|52=20150521-11:59:26.251|56=LVMDG|10=053|
20150521-12:00:10.278: 8=FIX.4.4|9=0054|35=0|49=LVMDG|56=BOGCURNCY|34=44|52=20150521-12:00:10|10=184|
20150521-12:00:26.252: 8=FIX.4.4|9=58|35=0|34=44|49=BOGCURNCY|52=20150521-12:00:26.251|56=LVMDG|10=041|
20150521-12:01:10.276: 8=FIX.4.4|9=0054|35=0|49=LVMDG|56=BOGCURNCY|34=45|52=20150521-12:01:10|10=186|
20150521-12:01:26.251: 8=FIX.4.4|9=58|35=0|34=45|49=BOGCURNCY|52=20150521-12:01:26.251|56=LVMDG|10=043|
20150521-12:02:10.277: 8=FIX.4.4|9=0054|35=0|49=LVMDG|56=BOGCURNCY|34=46|52=20150521-12:02:10|10=188|
20150521-12:02:26.251: 8=FIX.4.4|9=58|35=0|34=46|49=BOGCURNCY|52=20150521-12:02:26.251|56=LVMDG|10=045|
20150521-12:03:10.277: 8=FIX.4.4|9=0054|35=0|49=LVMDG|56=BOGCURNCY|34=47|52=20150521-12:03:10|10=190|
20150521-12:03:26.251: 8=FIX.4.4|9=58|35=0|34=47|49=BOGCURNCY|52=20150521-12:03:26.251|56=LVMDG|10=047|
20150521-12:04:10.277: 8=FIX.4.4|9=0054|35=0|49=LVMDG|56=BOGCURNCY|34=48|52=20150521-12:04:10|10=192|
20150521-12:04:26.251: 8=FIX.4.4|9=58|35=0|34=48|49=BOGCURNCY|52=20150521-12:04:26.251|56=LVMDG|10=049|
20150521-12:05:10.278: 8=FIX.4.4|9=0054|35=0|49=LVMDG|56=BOGCURNCY|34=49|52=20150521-12:05:10|10=194|
20150521-12:05:26.251: 8=FIX.4.4|9=58|35=0|34=49|49=BOGCURNCY|52=20150521-12:05:26.251|56=LVMDG|10=051|
20150521-12:06:10.276: 8=FIX.4.4|9=0054|35=0|49=LVMDG|56=BOGCURNCY|34=50|52=20150521-12:06:10|10=187|
20150521-12:06:26.253: 8=FIX.4.4|9=58|35=0|34=50|49=BOGCURNCY|52=20150521-12:06:26.253|56=LVMDG|10=046|
20150521-12:07:10.277: 8=FIX.4.4|9=0054|35=0|49=LVMDG|56=BOGCURNCY|34=51|52=20150521-12:07:10|10=189|
20150521-12:07:27.251: 8=FIX.4.4|9=58|35=0|34=51|49=BOGCURNCY|52=20150521-12:07:27.251|56=LVMDG|10=047|
20150521-12:08:10.276: 8=FIX.4.4|9=0054|35=0|49=LVMDG|56=BOGCURNCY|34=52|52=20150521-12:08:10|10=191|
20150521-12:08:27.251: 8=FIX.4.4|9=58|35=0|34=52|49=BOGCURNCY|52=20150521-12:08:27.251|56=LVMDG|10=049|
20150521-12:09:10.277: 8=FIX.4.4|9=0054|35=0|49=LVMDG|56=BOGCURNCY|34=53|52=20150521-12:09:10|10=193|
20150521-12:09:27.251: 8=FIX.4.4|9=58|35=0|34=53|49=BOGCURNCY|52=20150521-12:09:27.251|56=LVMDG|10=051|
20150521-12:10:10.277: 8=FIX.4.4|9=0054|35=0|49=LVMDG|56=BOGCURNCY|34=54|52=20150521-12:10:10|10=186|
20150521-12:10:27.251: 8=FIX.4.4|9=58|35=0|34=54|49=BOGCURNCY|52=20150521-12:10:27.251|56=LVMDG|10=044|
20150521-12:11:10.282: 8=FIX.4.4|9=0054|35=0|49=LVMDG|56=BOGCURNCY|34=55|52=20150521-12:11:10|10=188|
20150521-12:11:27.251: 8=FIX.4.4|9=58|35=0|34=55|49=BOGCURNCY|52=20150521-12:11:27.251|56=LVMDG|10=046|
20150521-12:12:10.278: 8=FIX.4.4|9=0054|35=0|49=LVMDG|56=BOGCURNCY|34=56|52=20150521-12:12:10|10=190|
20150521-12:12:27.251: 8=FIX.4.4|9=58|35=0|34=56|49=BOGCURNCY|52=20150521-12:12:27.251|56=LVMDG|10=048|
20150521-12:13:10.278: 8=FIX.4.4|9=0054|35=0|49=LVMDG|56=BOGCURNCY|34=57|52=20150521-12:13:10|10=192|
20150521-12:13:27.251: 8=FIX.4.4|9=58|35=0|34=57|49=BOGCURNCY|52=20150521-12:13:27.251|56=LVMDG|10=050|
20150521-12:14:10.277: 8=FIX.4.4|9=0054|35=0|49=LVMDG|56=BOGCURNCY|34=58|52=20150521-12:14:10|10=194|
20150521-12:14:27.251: 8=FIX.4.4|9=58|35=0|34=58|49=BOGCURNCY|52=20150521-12:14:27.251|56=LVMDG|10=052|
20150521-12:15:10.278: 8=FIX.4.4|9=0054|35=0|49=LVMDG|56=BOGCURNCY|34=59|52=20150521-12:15:10|10=196|
20150521-12:15:27.251: 8=FIX.4.4|9=58|35=0|34=59|49=BOGCURNCY|52=20150521-12:15:27.251|56=LVMDG|10=054|
20150521-12:16:10.279: 8=FIX.4.4|9=0054|35=0|49=LVMDG|56=BOGCURNCY|34=60|52=20150521-12:16:10|10=189|
20150521-12:16:27.252: 8=FIX.4.4|9=58|35=0|34=60|49=BOGCURNCY|52=20150521-12:16:27.252|56=LVMDG|10=048|
20150521-12:17:10.279: 8=FIX.4.4|9=0054|35=0|49=LVMDG|56=BOGCURNCY|34=61|52=20150521-12:17:10|10=191|
20150521-12:17:28.251: 8=FIX.4.4|9=58|35=0|34=61|49=BOGCURNCY|52=20150521-12:17:28.251|56=LVMDG|10=050|
20150521-12:18:10.280: 8=FIX.4.4|9=0054|35=0|49=LVMDG|56=BOGCURNCY|34=62|52=20150521-12:18:10|10=193|
20150521-12:18:28.252: 8=FIX.4.4|9=58|35=0|34=62|49=BOGCURNCY|52=20150521-12:18:28.252|56=LVMDG|10=053|
20150521-12:19:10.280: 8=FIX.4.4|9=0054|35=0|49=LVMDG|56=BOGCURNCY|34=63|52=20150521-12:19:10|10=195|
20150521-12:19:29.251: 8=FIX.4.4|9=58|35=0|34=63|49=BOGCURNCY|52=20150521-12:19:29.250|56=LVMDG|10=054|
20150521-12:20:10.280: 8=FIX.4.4|9=0054|35=0|49=LVMDG|56=BOGCURNCY|34=64|52=20150521-12:20:10|10=188|
20150521-12:20:29.251: 8=FIX.4.4|9=58|35=0|34=64|49=BOGCURNCY|52=20150521-12:20:29.251|56=LVMDG|10=048|
20150521-12:21:10.279: 8=FIX.4.4|9=0054|35=0|49=LVMDG|56=BOGCURNCY|34=65|52=20150521-12:21:10|10=190|
20150521-12:21:29.251: 8=FIX.4.4|9=58|35=0|34=65|49=BOGCURNCY|52=20150521-12:21:29.251|56=LVMDG|10=050|
20150521-12:22:10.280: 8=FIX.4.4|9=0054|35=0|49=LVMDG|56=BOGCURNCY|34=66|52=20150521-12:22:10|10=192|
20150521-12:22:29.252: 8=FIX.4.4|9=58|35=0|34=66|49=BOGCURNCY|52=20150521-12:22:29.252|56=LVMDG|10=053|
20150521-12:23:10.280: 8=FIX.4.4|9=0054|35=0|49=LVMDG|56=BOGCURNCY|34=67|52=20150521-12:23:10|10=194|
20150521-12:23:30.251: 8=FIX.4.4|9=58|35=0|34=67|49=BOGCURNCY|52=20150521-12:23:30.250|56=LVMDG|10=045|
20150521-12:24:10.280: 8=FIX.4.4|9=0054|35=0|49=LVMDG|56=BOGCURNCY|34=68|52=20150521-12:24:10|10=196|
20150521-12:24:30.251: 8=FIX.4.4|9=58|35=0|34=68|49=BOGCURNCY|52=20150521-12:24:30.251|56=LVMDG|10=048|
20150521-12:25:10.282: 8=FIX.4.4|9=0054|35=0|49=LVMDG|56=BOGCURNCY|34=69|52=20150521-12:25:10|10=198|
20150521-12:25:30.251: 8=FIX.4.4|9=58|35=0|34=69|49=BOGCURNCY|52=20150521-12:25:30.251|56=LVMDG|10=050|
20150521-12:26:10.281: 8=FIX.4.4|9=0054|35=0|49=LVMDG|56=BOGCURNCY|34=70|52=20150521-12:26:10|10=191|
20150521-12:26:30.252: 8=FIX.4.4|9=58|35=0|34=70|49=BOGCURNCY|52=20150521-12:26:30.252|56=LVMDG|10=044|
20150521-12:27:10.281: 8=FIX.4.4|9=0054|35=0|49=LVMDG|56=BOGCURNCY|34=71|52=20150521-12:27:10|10=193|
20150521-12:27:30.258: 8=FIX.4.4|9=58|35=0|34=71|49=BOGCURNCY|52=20150521-12:27:30.258|56=LVMDG|10=052|
20150521-12:28:10.282: 8=FIX.4.4|9=0054|35=0|49=LVMDG|56=BOGCURNCY|34=72|52=20150521-12:28:10|10=195|
20150521-12:28:31.252: 8=FIX.4.4|9=58|35=0|34=72|49=BOGCURNCY|52=20150521-12:28:31.252|56=LVMDG|10=049|
20150521-12:29:10.282: 8=FIX.4.4|9=0054|35=0|49=LVMDG|56=BOGCURNCY|34=73|52=20150521-12:29:10|10=197|
20150521-12:29:31.252: 8=FIX.4.4|9=58|35=0|34=73|49=BOGCURNCY|52=20150521-12:29:31.252|56=LVMDG|10=051|
20150521-12:30:10.284: 8=FIX.4.4|9=0054|35=0|49=LVMDG|56=BOGCURNCY|34=74|52=20150521-12:30:10|10=190|
20150521-12:30:31.252: 8=FIX.4.4|9=58|35=0|34=74|49=BOGCURNCY|52=20150521-12:30:31.252|56=LVMDG|10=044|
20150521-12:31:10.283: 8=FIX.4.4|9=0054|35=0|49=LVMDG|56=BOGCURNCY|34=75|52=20150521-12:31:10|10=192|
20150521-12:31:32.251: 8=FIX.4.4|9=58|35=0|34=75|49=BOGCURNCY|52=20150521-12:31:32.251|56=LVMDG|10=046|
20150521-12:32:10.283: 8=FIX.4.4|9=0054|35=0|49=LVMDG|56=BOGCURNCY|34=76|52=20150521-12:32:10|10=194|
20150521-12:32:32.251: 8=FIX.4.4|9=58|35=0|34=76|49=BOGCURNCY|52=20150521-12:32:32.251|56=LVMDG|10=048|
20150521-12:33:10.284: 8=FIX.4.4|9=0054|35=0|49=LVMDG|56=BOGCURNCY|34=77|52=20150521-12:33:10|10=196|
20150521-12:33:32.251: 8=FIX.4.4|9=58|35=0|34=77|49=BOGCURNCY|52=20150521-12:33:32.251|56=LVMDG|10=050|
20150521-12:34:10.284: 8=FIX.4.4|9=0054|35=0|49=LVMDG|56=BOGCURNCY|34=78|52=20150521-12:34:10|10=198|
20150521-12:34:32.252: 8=FIX.4.4|9=58|35=0|34=78|49=BOGCURNCY|52=20150521-12:34:32.251|56=LVMDG|10=052|
20150521-12:35:10.284: 8=FIX.4.4|9=0054|35=0|49=LVMDG|56=BOGCURNCY|34=79|52=20150521-12:35:10|10=200|
20150521-12:35:33.251: 8=FIX.4.4|9=58|35=0|34=79|49=BOGCURNCY|52=20150521-12:35:33.251|56=LVMDG|10=055|
20150521-12:36:10.287: 8=FIX.4.4|9=0054|35=0|49=LVMDG|56=BOGCURNCY|34=80|52=20150521-12:36:10|10=193|
20150521-12:36:33.252: 8=FIX.4.4|9=58|35=0|34=80|49=BOGCURNCY|52=20150521-12:36:33.252|56=LVMDG|10=049|
20150521-12:37:10.284: 8=FIX.4.4|9=0054|35=0|49=LVMDG|56=BOGCURNCY|34=81|52=20150521-12:37:10|10=195|
20150521-12:37:33.252: 8=FIX.4.4|9=58|35=0|34=81|49=BOGCURNCY|52=20150521-12:37:33.252|56=LVMDG|10=051|
20150521-12:38:10.284: 8=FIX.4.4|9=0054|35=0|49=LVMDG|56=BOGCURNCY|34=82|52=20150521-12:38:10|10=197|
20150521-12:38:33.252: 8=FIX.4.4|9=58|35=0|34=82|49=BOGCURNCY|52=20150521-12:38:33.252|56=LVMDG|10=053|
20150521-12:39:10.284: 8=FIX.4.4|9=0054|35=0|49=LVMDG|56=BOGCURNCY|34=83|52=20150521-12:39:10|10=199|
20150521-12:39:33.253: 8=FIX.4.4|9=58|35=0|34=83|49=BOGCURNCY|52=20150521-12:39:33.253|56=LVMDG|10=056|
20150521-12:40:10.285: 8=FIX.4.4|9=0054|35=0|49=LVMDG|56=BOGCURNCY|34=84|52=20150521-12:40:10|10=192|
20150521-12:40:34.251: 8=FIX.4.4|9=58|35=0|34=84|49=BOGCURNCY|52=20150521-12:40:34.251|56=LVMDG|10=048|
20150521-12:41:10.284: 8=FIX.4.4|9=0054|35=0|49=LVMDG|56=BOGCURNCY|34=85|52=20150521-12:41:10|10=194|
20150521-12:41:34.251: 8=FIX.4.4|9=58|35=0|34=85|49=BOGCURNCY|52=20150521-12:41:34.251|56=LVMDG|10=050|
20150521-12:42:10.285: 8=FIX.4.4|9=0054|35=0|49=LVMDG|56=BOGCURNCY|34=86|52=20150521-12:42:10|10=196|
20150521-12:42:34.251: 8=FIX.4.4|9=58|35=0|34=86|49=BOGCURNCY|52=20150521-12:42:34.251|56=LVMDG|10=052|
20150521-12:43:10.285: 8=FIX.4.4|9=0054|35=0|49=LVMDG|56=BOGCURNCY|34=87|52=20150521-12:43:10|10=198|
20150521-12:43:34.252: 8=FIX.4.4|9=58|35=0|34=87|49=BOGCURNCY|52=20150521-12:43:34.251|56=LVMDG|10=054|
20150521-12:44:10.285: 8=FIX.4.4|9=0054|35=0|49=LVMDG|56=BOGCURNCY|34=88|52=20150521-12:44:10|10=200|
20150521-12:44:34.252: 8=FIX.4.4|9=58|35=0|34=88|49=BOGCURNCY|52=20150521-12:44:34.252|56=LVMDG|10=057|
20150521-12:45:10.285: 8=FIX.4.4|9=0054|35=0|49=LVMDG|56=BOGCURNCY|34=89|52=20150521-12:45:10|10=202|
20150521-12:45:35.251: 8=FIX.4.4|9=58|35=0|34=89|49=BOGCURNCY|52=20150521-12:45:35.251|56=LVMDG|10=059|
20150521-12:46:10.286: 8=FIX.4.4|9=0054|35=0|49=LVMDG|56=BOGCURNCY|34=90|52=20150521-12:46:10|10=195|
20150521-12:46:35.251: 8=FIX.4.4|9=58|35=0|34=90|49=BOGCURNCY|52=20150521-12:46:35.251|56=LVMDG|10=052|
20150521-12:47:10.286: 8=FIX.4.4|9=0054|35=0|49=LVMDG|56=BOGCURNCY|34=91|52=20150521-12:47:10|10=197|
20150521-12:47:35.251: 8=FIX.4.4|9=58|35=0|34=91|49=BOGCURNCY|52=20150521-12:47:35.251|56=LVMDG|10=054|
20150521-12:48:10.290: 8=FIX.4.4|9=0054|35=0|49=LVMDG|56=BOGCURNCY|34=92|52=20150521-12:48:10|10=199|
20150521-12:48:35.251: 8=FIX.4.4|9=58|35=0|34=92|49=BOGCURNCY|52=20150521-12:48:35.251|56=LVMDG|10=056|
20150521-12:49:10.288: 8=FIX.4.4|9=0054|35=0|49=LVMDG|56=BOGCURNCY|34=93|52=20150521-12:49:10|10=201|
20150521-12:49:35.251: 8=FIX.4.4|9=58|35=0|34=93|49=BOGCURNCY|52=20150521-12:49:35.251|56=LVMDG|10=058|
20150521-12:50:10.288: 8=FIX.4.4|9=0054|35=0|49=LVMDG|56=BOGCURNCY|34=94|52=20150521-12:50:10|10=194|
20150521-12:50:36.251: 8=FIX.4.4|9=58|35=0|34=94|49=BOGCURNCY|52=20150521-12:50:36.251|56=LVMDG|10=052|
20150521-12:51:10.288: 8=FIX.4.4|9=0054|35=0|49=LVMDG|56=BOGCURNCY|34=95|52=20150521-12:51:10|10=196|
20150521-12:51:36.252: 8=FIX.4.4|9=58|35=0|34=95|49=BOGCURNCY|52=20150521-12:51:36.252|56=LVMDG|10=055|
20150521-12:52:10.289: 8=FIX.4.4|9=0054|35=0|49=LVMDG|56=BOGCURNCY|34=96|52=20150521-12:52:10|10=198|
20150521-12:52:37.251: 8=FIX.4.4|9=58|35=0|34=96|49=BOGCURNCY|52=20150521-12:52:37.251|56=LVMDG|10=057|
20150521-12:53:10.289: 8=FIX.4.4|9=0054|35=0|49=LVMDG|56=BOGCURNCY|34=97|52=20150521-12:53:10|10=200|
20150521-12:53:37.251: 8=FIX.4.4|9=58|35=0|34=97|49=BOGCURNCY|52=20150521-12:53:37.251|56=LVMDG|10=059|
20150521-12:54:10.296: 8=FIX.4.4|9=0054|35=0|49=LVMDG|56=BOGCURNCY|34=98|52=20150521-12:54:10|10=202|
20150521-12:54:37.251: 8=FIX.4.4|9=58|35=0|34=98|49=BOGCURNCY|52=20150521-12:54:37.251|56=LVMDG|10=061|
20150521-12:55:10.289: 8=FIX.4.4|9=0054|35=0|49=LVMDG|56=BOGCURNCY|34=99|52=20150521-12:55:10|10=204|
20150521-12:55:37.251: 8=FIX.4.4|9=58|35=0|34=99|49=BOGCURNCY|52=20150521-12:55:37.251|56=LVMDG|10=063|
20150521-12:56:10.289: 8=FIX.4.4|9=0055|35=0|49=LVMDG|56=BOGCURNCY|34=100|52=20150521-12:56:10|10=237|
20150521-12:56:37.251: 8=FIX.4.4|9=59|35=0|34=100|49=BOGCURNCY|52=20150521-12:56:37.251|56=LVMDG|10=096|
20150521-12:57:10.289: 8=FIX.4.4|9=0055|35=0|49=LVMDG|56=BOGCURNCY|34=101|52=20150521-12:57:10|10=239|
20150521-12:57:37.252: 8=FIX.4.4|9=59|35=0|34=101|49=BOGCURNCY|52=20150521-12:57:37.252|56=LVMDG|10=099|
20150521-12:58:10.289: 8=FIX.4.4|9=0055|35=0|49=LVMDG|56=BOGCURNCY|34=102|52=20150521-12:58:10|10=241|
20150521-12:58:38.251: 8=FIX.4.4|9=59|35=0|34=102|49=BOGCURNCY|52=20150521-12:58:38.251|56=LVMDG|10=101|
20150521-12:59:10.290: 8=FIX.4.4|9=0055|35=0|49=LVMDG|56=BOGCURNCY|34=103|52=20150521-12:59:10|10=243|
20150521-12:59:38.251: 8=FIX.4.4|9=59|35=0|34=103|49=BOGCURNCY|52=20150521-12:59:38.251|56=LVMDG|10=103|
20150521-13:00:10.290: 8=FIX.4.4|9=0055|35=0|49=LVMDG|56=BOGCURNCY|34=104|52=20150521-13:00:10|10=231|
20150521-13:00:38.251: 8=FIX.4.4|9=59|35=0|34=104|49=BOGCURNCY|52=20150521-13:00:38.251|56=LVMDG|10=091|
20150521-13:01:10.290: 8=FIX.4.4|9=0055|35=0|49=LVMDG|56=BOGCURNCY|34=105|52=20150521-13:01:10|10=233|
20150521-13:01:38.251: 8=FIX.4.4|9=59|35=0|34=105|49=BOGCURNCY|52=20150521-13:01:38.251|56=LVMDG|10=093|
20150521-13:02:10.292: 8=FIX.4.4|9=0055|35=0|49=LVMDG|56=BOGCURNCY|34=106|52=20150521-13:02:10|10=235|
20150521-13:02:38.253: 8=FIX.4.4|9=59|35=0|34=106|49=BOGCURNCY|52=20150521-13:02:38.253|56=LVMDG|10=097|
20150521-13:03:10.290: 8=FIX.4.4|9=0055|35=0|49=LVMDG|56=BOGCURNCY|34=107|52=20150521-13:03:10|10=237|
20150521-13:03:39.251: 8=FIX.4.4|9=59|35=0|34=107|49=BOGCURNCY|52=20150521-13:03:39.251|56=LVMDG|10=098|
20150521-13:04:10.293: 8=FIX.4.4|9=0055|35=0|49=LVMDG|56=BOGCURNCY|34=108|52=20150521-13:04:10|10=239|
20150521-13:04:39.251: 8=FIX.4.4|9=59|35=0|34=108|49=BOGCURNCY|52=20150521-13:04:39.251|56=LVMDG|10=100|
20150521-13:05:10.291: 8=FIX.4.4|9=0055|35=0|49=LVMDG|56=BOGCURNCY|34=109|52=20150521-13:05:10|10=241|
20150521-13:05:40.251: 8=FIX.4.4|9=59|35=0|34=109|49=BOGCURNCY|52=20150521-13:05:40.251|56=LVMDG|10=094|
20150521-13:06:10.292: 8=FIX.4.4|9=0055|35=0|49=LVMDG|56=BOGCURNCY|34=110|52=20150521-13:06:10|10=234|
20150521-13:06:41.251: 8=FIX.4.4|9=59|35=0|34=110|49=BOGCURNCY|52=20150521-13:06:41.251|56=LVMDG|10=088|
20150521-13:07:10.293: 8=FIX.4.4|9=0055|35=0|49=LVMDG|56=BOGCURNCY|34=111|52=20150521-13:07:10|10=236|
20150521-13:07:41.252: 8=FIX.4.4|9=59|35=0|34=111|49=BOGCURNCY|52=20150521-13:07:41.252|56=LVMDG|10=091|
20150521-13:08:10.294: 8=FIX.4.4|9=0055|35=0|49=LVMDG|56=BOGCURNCY|34=112|52=20150521-13:08:10|10=238|
20150521-13:08:42.251: 8=FIX.4.4|9=59|35=0|34=112|49=BOGCURNCY|52=20150521-13:08:42.250|56=LVMDG|10=092|
20150521-13:09:10.332: 8=FIX.4.4|9=0055|35=0|49=LVMDG|56=BOGCURNCY|34=113|52=20150521-13:09:10|10=240|
20150521-13:09:42.250: 8=FIX.4.4|9=59|35=0|34=113|49=BOGCURNCY|52=20150521-13:09:42.250|56=LVMDG|10=094|
20150521-13:10:10.294: 8=FIX.4.4|9=0055|35=0|49=LVMDG|56=BOGCURNCY|34=114|52=20150521-13:10:10|10=233|
20150521-13:10:42.251: 8=FIX.4.4|9=59|35=0|34=114|49=BOGCURNCY|52=20150521-13:10:42.251|56=LVMDG|10=088|
20150521-13:11:10.314: 8=FIX.4.4|9=0055|35=0|49=LVMDG|56=BOGCURNCY|34=115|52=20150521-13:11:10|10=235|
20150521-13:11:42.251: 8=FIX.4.4|9=59|35=0|34=115|49=BOGCURNCY|52=20150521-13:11:42.251|56=LVMDG|10=090|
20150521-13:12:10.294: 8=FIX.4.4|9=0055|35=0|49=LVMDG|56=BOGCURNCY|34=116|52=20150521-13:12:10|10=237|
20150521-13:12:43.251: 8=FIX.4.4|9=59|35=0|34=116|49=BOGCURNCY|52=20150521-13:12:43.251|56=LVMDG|10=093|
20150521-13:13:10.294: 8=FIX.4.4|9=0055|35=0|49=LVMDG|56=BOGCURNCY|34=117|52=20150521-13:13:10|10=239|
20150521-13:13:43.251: 8=FIX.4.4|9=59|35=0|34=117|49=BOGCURNCY|52=20150521-13:13:43.251|56=LVMDG|10=095|
20150521-13:14:10.294: 8=FIX.4.4|9=0055|35=0|49=LVMDG|56=BOGCURNCY|34=118|52=20150521-13:14:10|10=241|
20150521-13:14:44.251: 8=FIX.4.4|9=59|35=0|34=118|49=BOGCURNCY|52=20150521-13:14:44.251|56=LVMDG|10=098|
20150521-13:15:10.294: 8=FIX.4.4|9=0055|35=0|49=LVMDG|56=BOGCURNCY|34=119|52=20150521-13:15:10|10=243|
20150521-13:15:44.253: 8=FIX.4.4|9=59|35=0|34=119|49=BOGCURNCY|52=20150521-13:15:44.253|56=LVMDG|10=102|
20150521-13:16:10.294: 8=FIX.4.4|9=0055|35=0|49=LVMDG|56=BOGCURNCY|34=120|52=20150521-13:16:10|10=236|
20150521-13:16:45.251: 8=FIX.4.4|9=59|35=0|34=120|49=BOGCURNCY|52=20150521-13:16:45.251|56=LVMDG|10=094|
20150521-13:17:10.294: 8=FIX.4.4|9=0055|35=0|49=LVMDG|56=BOGCURNCY|34=121|52=20150521-13:17:10|10=238|
20150521-13:17:45.251: 8=FIX.4.4|9=59|35=0|34=121|49=BOGCURNCY|52=20150521-13:17:45.251|56=LVMDG|10=096|
20150521-13:18:10.294: 8=FIX.4.4|9=0055|35=0|49=LVMDG|56=BOGCURNCY|34=122|52=20150521-13:18:10|10=240|
20150521-13:18:45.251: 8=FIX.4.4|9=59|35=0|34=122|49=BOGCURNCY|52=20150521-13:18:45.251|56=LVMDG|10=098|
20150521-13:19:10.295: 8=FIX.4.4|9=0055|35=0|49=LVMDG|56=BOGCURNCY|34=123|52=20150521-13:19:10|10=242|
20150521-13:19:45.263: 8=FIX.4.4|9=59|35=0|34=123|49=BOGCURNCY|52=20150521-13:19:45.263|56=LVMDG|10=103|
20150521-13:20:10.294: 8=FIX.4.4|9=0055|35=0|49=LVMDG|56=BOGCURNCY|34=124|52=20150521-13:20:10|10=235|
20150521-13:20:46.252: 8=FIX.4.4|9=59|35=0|34=124|49=BOGCURNCY|52=20150521-13:20:46.251|56=LVMDG|10=094|
20150521-13:21:10.294: 8=FIX.4.4|9=0055|35=0|49=LVMDG|56=BOGCURNCY|34=125|52=20150521-13:21:10|10=237|
20150521-13:21:46.251: 8=FIX.4.4|9=59|35=0|34=125|49=BOGCURNCY|52=20150521-13:21:46.251|56=LVMDG|10=096|
20150521-13:22:10.294: 8=FIX.4.4|9=0055|35=0|49=LVMDG|56=BOGCURNCY|34=126|52=20150521-13:22:10|10=239|
20150521-13:22:46.252: 8=FIX.4.4|9=59|35=0|34=126|49=BOGCURNCY|52=20150521-13:22:46.252|56=LVMDG|10=099|
20150521-13:23:10.294: 8=FIX.4.4|9=0055|35=0|49=LVMDG|56=BOGCURNCY|34=127|52=20150521-13:23:10|10=241|
20150521-13:23:47.251: 8=FIX.4.4|9=59|35=0|34=127|49=BOGCURNCY|52=20150521-13:23:47.251|56=LVMDG|10=101|
20150521-13:24:10.294: 8=FIX.4.4|9=0055|35=0|49=LVMDG|56=BOGCURNCY|34=128|52=20150521-13:24:10|10=243|
20150521-13:24:47.251: 8=FIX.4.4|9=59|35=0|34=128|49=BOGCURNCY|52=20150521-13:24:47.251|56=LVMDG|10=103|
20150521-13:25:10.294: 8=FIX.4.4|9=0055|35=0|49=LVMDG|56=BOGCURNCY|34=129|52=20150521-13:25:10|10=245|
20150521-13:25:47.252: 8=FIX.4.4|9=59|35=0|34=129|49=BOGCURNCY|52=20150521-13:25:47.252|56=LVMDG|10=106|
20150521-13:26:10.294: 8=FIX.4.4|9=0055|35=0|49=LVMDG|56=BOGCURNCY|34=130|52=20150521-13:26:10|10=238|
20150521-13:26:47.252: 8=FIX.4.4|9=59|35=0|34=130|49=BOGCURNCY|52=20150521-13:26:47.252|56=LVMDG|10=099|
20150521-13:27:10.294: 8=FIX.4.4|9=0055|35=0|49=LVMDG|56=BOGCURNCY|34=131|52=20150521-13:27:10|10=240|
20150521-13:27:48.251: 8=FIX.4.4|9=59|35=0|34=131|49=BOGCURNCY|52=20150521-13:27:48.251|56=LVMDG|10=101|
20150521-13:28:10.294: 8=FIX.4.4|9=0055|35=0|49=LVMDG|56=BOGCURNCY|34=132|52=20150521-13:28:10|10=242|
20150521-13:28:48.252: 8=FIX.4.4|9=59|35=0|34=132|49=BOGCURNCY|52=20150521-13:28:48.251|56=LVMDG|10=103|
20150521-13:29:10.294: 8=FIX.4.4|9=0055|35=0|49=LVMDG|56=BOGCURNCY|34=133|52=20150521-13:29:10|10=244|
20150521-13:29:49.251: 8=FIX.4.4|9=59|35=0|34=133|49=BOGCURNCY|52=20150521-13:29:49.251|56=LVMDG|10=106|
20150521-13:30:10.295: 8=FIX.4.4|9=0055|35=0|49=LVMDG|56=BOGCURNCY|34=134|52=20150521-13:30:10|10=237|
20150521-13:30:49.251: 8=FIX.4.4|9=59|35=0|34=134|49=BOGCURNCY|52=20150521-13:30:49.251|56=LVMDG|10=099|
20150521-13:31:10.296: 8=FIX.4.4|9=0055|35=0|49=LVMDG|56=BOGCURNCY|34=135|52=20150521-13:31:10|10=239|
20150521-13:31:49.251: 8=FIX.4.4|9=59|35=0|34=135|49=BOGCURNCY|52=20150521-13:31:49.251|56=LVMDG|10=101|
20150521-13:32:10.296: 8=FIX.4.4|9=0055|35=0|49=LVMDG|56=BOGCURNCY|34=136|52=20150521-13:32:10|10=241|
20150521-13:32:49.251: 8=FIX.4.4|9=59|35=0|34=136|49=BOGCURNCY|52=20150521-13:32:49.251|56=LVMDG|10=103|
20150521-13:33:10.295: 8=FIX.4.4|9=0055|35=0|49=LVMDG|56=BOGCURNCY|34=137|52=20150521-13:33:10|10=243|
20150521-13:33:50.251: 8=FIX.4.4|9=59|35=0|34=137|49=BOGCURNCY|52=20150521-13:33:50.251|56=LVMDG|10=097|
20150521-13:34:10.296: 8=FIX.4.4|9=0055|35=0|49=LVMDG|56=BOGCURNCY|34=138|52=20150521-13:34:10|10=245|
20150521-13:34:51.251: 8=FIX.4.4|9=59|35=0|34=138|49=BOGCURNCY|52=20150521-13:34:51.251|56=LVMDG|10=100|
20150521-13:35:10.298: 8=FIX.4.4|9=0055|35=0|49=LVMDG|56=BOGCURNCY|34=139|52=20150521-13:35:10|10=247|
20150521-13:35:51.252: 8=FIX.4.4|9=59|35=0|34=139|49=BOGCURNCY|52=20150521-13:35:51.252|56=LVMDG|10=103|
20150521-13:36:10.297: 8=FIX.4.4|9=0055|35=0|49=LVMDG|56=BOGCURNCY|34=140|52=20150521-13:36:10|10=240|
20150521-13:36:52.251: 8=FIX.4.4|9=59|35=0|34=140|49=BOGCURNCY|52=20150521-13:36:52.251|56=LVMDG|10=096|
20150521-13:37:10.298: 8=FIX.4.4|9=0055|35=0|49=LVMDG|56=BOGCURNCY|34=141|52=20150521-13:37:10|10=242|
20150521-13:37:52.252: 8=FIX.4.4|9=59|35=0|34=141|49=BOGCURNCY|52=20150521-13:37:52.251|56=LVMDG|10=098|
20150521-13:38:10.298: 8=FIX.4.4|9=0055|35=0|49=LVMDG|56=BOGCURNCY|34=142|52=20150521-13:38:10|10=244|
20150521-13:38:52.251: 8=FIX.4.4|9=59|35=0|34=142|49=BOGCURNCY|52=20150521-13:38:52.251|56=LVMDG|10=100|
20150521-13:39:10.298: 8=FIX.4.4|9=0055|35=0|49=LVMDG|56=BOGCURNCY|34=143|52=20150521-13:39:10|10=246|
20150521-13:39:52.251: 8=FIX.4.4|9=59|35=0|34=143|49=BOGCURNCY|52=20150521-13:39:52.251|56=LVMDG|10=102|
20150521-13:40:10.298: 8=FIX.4.4|9=0055|35=0|49=LVMDG|56=BOGCURNCY|34=144|52=20150521-13:40:10|10=239|
20150521-13:40:52.252: 8=FIX.4.4|9=59|35=0|34=144|49=BOGCURNCY|52=20150521-13:40:52.252|56=LVMDG|10=096|
20150521-13:41:10.298: 8=FIX.4.4|9=0055|35=0|49=LVMDG|56=BOGCURNCY|34=145|52=20150521-13:41:10|10=241|
20150521-13:41:53.252: 8=FIX.4.4|9=59|35=0|34=145|49=BOGCURNCY|52=20150521-13:41:53.252|56=LVMDG|10=099|
20150521-13:42:10.298: 8=FIX.4.4|9=0055|35=0|49=LVMDG|56=BOGCURNCY|34=146|52=20150521-13:42:10|10=243|
20150521-13:42:53.252: 8=FIX.4.4|9=59|35=0|34=146|49=BOGCURNCY|52=20150521-13:42:53.252|56=LVMDG|10=101|
20150521-13:43:10.300: 8=FIX.4.4|9=0055|35=0|49=LVMDG|56=BOGCURNCY|34=147|52=20150521-13:43:10|10=245|
20150521-13:43:53.252: 8=FIX.4.4|9=59|35=0|34=147|49=BOGCURNCY|52=20150521-13:43:53.252|56=LVMDG|10=103|
20150521-13:44:10.299: 8=FIX.4.4|9=0055|35=0|49=LVMDG|56=BOGCURNCY|34=148|52=20150521-13:44:10|10=247|
20150521-13:44:53.252: 8=FIX.4.4|9=59|35=0|34=148|49=BOGCURNCY|52=20150521-13:44:53.252|56=LVMDG|10=105|
20150521-13:45:10.299: 8=FIX.4.4|9=0055|35=0|49=LVMDG|56=BOGCURNCY|34=149|52=20150521-13:45:10|10=249|
20150521-13:45:54.251: 8=FIX.4.4|9=59|35=0|34=149|49=BOGCURNCY|52=20150521-13:45:54.251|56=LVMDG|10=107|
20150521-13:46:10.300: 8=FIX.4.4|9=0055|35=0|49=LVMDG|56=BOGCURNCY|34=150|52=20150521-13:46:10|10=242|
20150521-13:46:55.251: 8=FIX.4.4|9=59|35=0|34=150|49=BOGCURNCY|52=20150521-13:46:55.251|56=LVMDG|10=101|
20150521-13:47:10.300: 8=FIX.4.4|9=0055|35=0|49=LVMDG|56=BOGCURNCY|34=151|52=20150521-13:47:10|10=244|
20150521-13:47:56.251: 8=FIX.4.4|9=59|35=0|34=151|49=BOGCURNCY|52=20150521-13:47:56.251|56=LVMDG|10=104|
20150521-13:48:10.300: 8=FIX.4.4|9=0055|35=0|49=LVMDG|56=BOGCURNCY|34=152|52=20150521-13:48:10|10=246|
20150521-13:48:56.278: 8=FIX.4.4|9=59|35=0|34=152|49=BOGCURNCY|52=20150521-13:48:56.278|56=LVMDG|10=115|
20150521-13:49:10.300: 8=FIX.4.4|9=0055|35=0|49=LVMDG|56=BOGCURNCY|34=153|52=20150521-13:49:10|10=248|
20150521-13:49:57.250: 8=FIX.4.4|9=59|35=0|34=153|49=BOGCURNCY|52=20150521-13:49:57.250|56=LVMDG|10=108|
20150521-13:50:10.301: 8=FIX.4.4|9=0055|35=0|49=LVMDG|56=BOGCURNCY|34=154|52=20150521-13:50:10|10=241|
20150521-13:50:57.251: 8=FIX.4.4|9=59|35=0|34=154|49=BOGCURNCY|52=20150521-13:50:57.251|56=LVMDG|10=102|
20150521-13:51:10.300: 8=FIX.4.4|9=0055|35=0|49=LVMDG|56=BOGCURNCY|34=155|52=20150521-13:51:10|10=243|
20150521-13:51:58.251: 8=FIX.4.4|9=59|35=0|34=155|49=BOGCURNCY|52=20150521-13:51:58.251|56=LVMDG|10=105|
20150521-13:52:10.300: 8=FIX.4.4|9=0055|35=0|49=LVMDG|56=BOGCURNCY|34=156|52=20150521-13:52:10|10=245|
20150521-13:52:58.251: 8=FIX.4.4|9=59|35=0|34=156|49=BOGCURNCY|52=20150521-13:52:58.251|56=LVMDG|10=107|
20150521-13:53:10.340: 8=FIX.4.4|9=0055|35=0|49=LVMDG|56=BOGCURNCY|34=157|52=20150521-13:53:10|10=247|
20150521-13:53:58.251: 8=FIX.4.4|9=59|35=0|34=157|49=BOGCURNCY|52=20150521-13:53:58.251|56=LVMDG|10=109|
20150521-13:54:10.300: 8=FIX.4.4|9=0055|35=0|49=LVMDG|56=BOGCURNCY|34=158|52=20150521-13:54:10|10=249|
20150521-13:54:59.251: 8=FIX.4.4|9=59|35=0|34=158|49=BOGCURNCY|52=20150521-13:54:59.251|56=LVMDG|10=112|
20150521-13:55:10.304: 8=FIX.4.4|9=0055|35=0|49=LVMDG|56=BOGCURNCY|34=159|52=20150521-13:55:10|10=251|
20150521-13:55:59.251: 8=FIX.4.4|9=59|35=0|34=159|49=BOGCURNCY|52=20150521-13:55:59.251|56=LVMDG|10=114|
20150521-13:56:10.301: 8=FIX.4.4|9=0055|35=0|49=LVMDG|56=BOGCURNCY|34=160|52=20150521-13:56:10|10=244|
20150521-13:56:59.251: 8=FIX.4.4|9=59|35=0|34=160|49=BOGCURNCY|52=20150521-13:56:59.251|56=LVMDG|10=107|
20150521-13:57:10.301: 8=FIX.4.4|9=0055|35=0|49=LVMDG|56=BOGCURNCY|34=161|52=20150521-13:57:10|10=246|
20150521-13:57:59.251: 8=FIX.4.4|9=59|35=0|34=161|49=BOGCURNCY|52=20150521-13:57:59.251|56=LVMDG|10=109|
20150521-13:58:10.301: 8=FIX.4.4|9=0055|35=0|49=LVMDG|56=BOGCURNCY|34=162|52=20150521-13:58:10|10=248|
20150521-13:58:59.251: 8=FIX.4.4|9=59|35=0|34=162|49=BOGCURNCY|52=20150521-13:58:59.251|56=LVMDG|10=111|
20150521-13:59:10.302: 8=FIX.4.4|9=0055|35=0|49=LVMDG|56=BOGCURNCY|34=163|52=20150521-13:59:10|10=250|
20150521-13:59:59.251: 8=FIX.4.4|9=59|35=0|34=163|49=BOGCURNCY|52=20150521-13:59:59.251|56=LVMDG|10=113|
20150521-14:00:10.301: 8=FIX.4.4|9=0055|35=0|49=LVMDG|56=BOGCURNCY|34=164|52=20150521-14:00:10|10=238|
20150521-14:00:59.251: 8=FIX.4.4|9=59|35=0|34=164|49=BOGCURNCY|52=20150521-14:00:59.251|56=LVMDG|10=101|
20150521-14:01:10.301: 8=FIX.4.4|9=0055|35=0|49=LVMDG|56=BOGCURNCY|34=165|52=20150521-14:01:10|10=240|
20150521-14:01:59.251: 8=FIX.4.4|9=59|35=0|34=165|49=BOGCURNCY|52=20150521-14:01:59.251|56=LVMDG|10=103|
20150521-14:02:10.301: 8=FIX.4.4|9=0055|35=0|49=LVMDG|56=BOGCURNCY|34=166|52=20150521-14:02:10|10=242|
20150521-14:03:00.251: 8=FIX.4.4|9=59|35=0|34=166|49=BOGCURNCY|52=20150521-14:03:00.251|56=LVMDG|10=092|
20150521-14:03:10.323: 8=FIX.4.4|9=0055|35=0|49=LVMDG|56=BOGCURNCY|34=167|52=20150521-14:03:10|10=244|
20150521-14:04:00.252: 8=FIX.4.4|9=59|35=0|34=167|49=BOGCURNCY|52=20150521-14:04:00.251|56=LVMDG|10=094|
20150521-14:04:10.301: 8=FIX.4.4|9=0055|35=0|49=LVMDG|56=BOGCURNCY|34=168|52=20150521-14:04:10|10=246|
20150521-14:05:00.251: 8=FIX.4.4|9=59|35=0|34=168|49=BOGCURNCY|52=20150521-14:05:00.251|56=LVMDG|10=096|
20150521-14:05:10.301: 8=FIX.4.4|9=0055|35=0|49=LVMDG|56=BOGCURNCY|34=169|52=20150521-14:05:10|10=248|
20150521-14:06:01.251: 8=FIX.4.4|9=59|35=0|34=169|49=BOGCURNCY|52=20150521-14:06:01.251|56=LVMDG|10=099|
20150521-14:06:10.301: 8=FIX.4.4|9=0055|35=0|49=LVMDG|56=BOGCURNCY|34=170|52=20150521-14:06:10|10=241|
20150521-14:07:02.251: 8=FIX.4.4|9=59|35=0|34=170|49=BOGCURNCY|52=20150521-14:07:02.251|56=LVMDG|10=093|
20150521-14:07:10.301: 8=FIX.4.4|9=0055|35=0|49=LVMDG|56=BOGCURNCY|34=171|52=20150521-14:07:10|10=243|
20150521-14:08:02.251: 8=FIX.4.4|9=59|35=0|34=171|49=BOGCURNCY|52=20150521-14:08:02.251|56=LVMDG|10=095|
20150521-14:08:10.302: 8=FIX.4.4|9=0055|35=0|49=LVMDG|56=BOGCURNCY|34=172|52=20150521-14:08:10|10=245|
20150521-14:09:02.251: 8=FIX.4.4|9=59|35=0|34=172|49=BOGCURNCY|52=20150521-14:09:02.251|56=LVMDG|10=097|
20150521-14:09:10.307: 8=FIX.4.4|9=0055|35=0|49=LVMDG|56=BOGCURNCY|34=173|52=20150521-14:09:10|10=247|
20150521-14:10:02.251: 8=FIX.4.4|9=59|35=0|34=173|49=BOGCURNCY|52=20150521-14:10:02.251|56=LVMDG|10=090|
20150521-14:10:10.305: 8=FIX.4.4|9=0055|35=0|49=LVMDG|56=BOGCURNCY|34=174|52=20150521-14:10:10|10=240|
20150521-14:11:03.251: 8=FIX.4.4|9=59|35=0|34=174|49=BOGCURNCY|52=20150521-14:11:03.251|56=LVMDG|10=093|
20150521-14:11:10.304: 8=FIX.4.4|9=0055|35=0|49=LVMDG|56=BOGCURNCY|34=175|52=20150521-14:11:10|10=242|
20150521-14:12:03.251: 8=FIX.4.4|9=59|35=0|34=175|49=BOGCURNCY|52=20150521-14:12:03.251|56=LVMDG|10=095|
20150521-14:12:10.305: 8=FIX.4.4|9=0055|35=0|49=LVMDG|56=BOGCURNCY|34=176|52=20150521-14:12:10|10=244|
20150521-14:13:03.251: 8=FIX.4.4|9=59|35=0|34=176|49=BOGCURNCY|52=20150521-14:13:03.251|56=LVMDG|10=097|
20150521-14:13:10.305: 8=FIX.4.4|9=0055|35=0|49=LVMDG|56=BOGCURNCY|34=177|52=20150521-14:13:10|10=246|
20150521-14:14:04.251: 8=FIX.4.4|9=59|35=0|34=177|49=BOGCURNCY|52=20150521-14:14:04.251|56=LVMDG|10=100|
20150521-14:14:10.307: 8=FIX.4.4|9=0055|35=0|49=LVMDG|56=BOGCURNCY|34=178|52=20150521-14:14:10|10=248|
20150521-14:15:04.252: 8=FIX.4.4|9=59|35=0|34=178|49=BOGCURNCY|52=20150521-14:15:04.252|56=LVMDG|10=103|
20150521-14:15:10.305: 8=FIX.4.4|9=0055|35=0|49=LVMDG|56=BOGCURNCY|34=179|52=20150521-14:15:10|10=250|
20150521-14:16:05.251: 8=FIX.4.4|9=59|35=0|34=179|49=BOGCURNCY|52=20150521-14:16:05.251|56=LVMDG|10=105|
20150521-14:16:10.306: 8=FIX.4.4|9=0055|35=0|49=LVMDG|56=BOGCURNCY|34=180|52=20150521-14:16:10|10=243|
20150521-14:17:05.251: 8=FIX.4.4|9=59|35=0|34=180|49=BOGCURNCY|52=20150521-14:17:05.251|56=LVMDG|10=098|
20150521-14:17:10.307: 8=FIX.4.4|9=0055|35=0|49=LVMDG|56=BOGCURNCY|34=181|52=20150521-14:17:10|10=245|
20150521-14:18:05.251: 8=FIX.4.4|9=59|35=0|34=181|49=BOGCURNCY|52=20150521-14:18:05.251|56=LVMDG|10=100|
20150521-14:18:10.306: 8=FIX.4.4|9=0055|35=0|49=LVMDG|56=BOGCURNCY|34=182|52=20150521-14:18:10|10=247|
20150521-14:19:05.251: 8=FIX.4.4|9=59|35=0|34=182|49=BOGCURNCY|52=20150521-14:19:05.251|56=LVMDG|10=102|
20150521-14:19:10.307: 8=FIX.4.4|9=0055|35=0|49=LVMDG|56=BOGCURNCY|34=183|52=20150521-14:19:10|10=249|
20150521-14:20:05.252: 8=FIX.4.4|9=59|35=0|34=183|49=BOGCURNCY|52=20150521-14:20:05.251|56=LVMDG|10=095|
20150521-14:20:10.307: 8=FIX.4.4|9=0055|35=0|49=LVMDG|56=BOGCURNCY|34=184|52=20150521-14:20:10|10=242|
20150521-14:21:05.251: 8=FIX.4.4|9=59|35=0|34=184|49=BOGCURNCY|52=20150521-14:21:05.251|56=LVMDG|10=097|
20150521-14:21:10.328: 8=FIX.4.4|9=0055|35=0|49=LVMDG|56=BOGCURNCY|34=185|52=20150521-14:21:10|10=244|
20150521-14:22:05.251: 8=FIX.4.4|9=59|35=0|34=185|49=BOGCURNCY|52=20150521-14:22:05.251|56=LVMDG|10=099|
20150521-14:22:10.307: 8=FIX.4.4|9=0055|35=0|49=LVMDG|56=BOGCURNCY|34=186|52=20150521-14:22:10|10=246|
20150521-14:23:06.251: 8=FIX.4.4|9=59|35=0|34=186|49=BOGCURNCY|52=20150521-14:23:06.251|56=LVMDG|10=102|
20150521-14:23:10.307: 8=FIX.4.4|9=0055|35=0|49=LVMDG|56=BOGCURNCY|34=187|52=20150521-14:23:10|10=248|
20150521-14:24:06.251: 8=FIX.4.4|9=59|35=0|34=187|49=BOGCURNCY|52=20150521-14:24:06.251|56=LVMDG|10=104|
20150521-14:24:10.307: 8=FIX.4.4|9=0055|35=0|49=LVMDG|56=BOGCURNCY|34=188|52=20150521-14:24:10|10=250|
20150521-14:25:06.251: 8=FIX.4.4|9=59|35=0|34=188|49=BOGCURNCY|52=20150521-14:25:06.251|56=LVMDG|10=106|
20150521-14:25:10.307: 8=FIX.4.4|9=0055|35=0|49=LVMDG|56=BOGCURNCY|34=189|52=20150521-14:25:10|10=252|
20150521-14:26:06.252: 8=FIX.4.4|9=59|35=0|34=189|49=BOGCURNCY|52=20150521-14:26:06.252|56=LVMDG|10=109|
20150521-14:26:10.307: 8=FIX.4.4|9=0055|35=0|49=LVMDG|56=BOGCURNCY|34=190|52=20150521-14:26:10|10=245|
20150521-14:27:06.252: 8=FIX.4.4|9=59|35=0|34=190|49=BOGCURNCY|52=20150521-14:27:06.252|56=LVMDG|10=102|
20150521-14:27:10.307: 8=FIX.4.4|9=0055|35=0|49=LVMDG|56=BOGCURNCY|34=191|52=20150521-14:27:10|10=247|
20150521-14:28:06.338: 8=FIX.4.4|9=59|35=0|34=191|49=BOGCURNCY|52=20150521-14:28:06.338|56=LVMDG|10=109|
20150521-14:28:10.307: 8=FIX.4.4|9=0055|35=0|49=LVMDG|56=BOGCURNCY|34=192|52=20150521-14:28:10|10=249|
20150521-14:29:07.251: 8=FIX.4.4|9=59|35=0|34=192|49=BOGCURNCY|52=20150521-14:29:07.251|56=LVMDG|10=106|
20150521-14:29:10.309: 8=FIX.4.4|9=0055|35=0|49=LVMDG|56=BOGCURNCY|34=193|52=20150521-14:29:10|10=251|
20150521-14:30:07.251: 8=FIX.4.4|9=59|35=0|34=193|49=BOGCURNCY|52=20150521-14:30:07.251|56=LVMDG|10=099|
20150521-14:30:10.310: 8=FIX.4.4|9=0055|35=0|49=LVMDG|56=BOGCURNCY|34=194|52=20150521-14:30:10|10=244|
20150521-14:31:08.251: 8=FIX.4.4|9=59|35=0|34=194|49=BOGCURNCY|52=20150521-14:31:08.251|56=LVMDG|10=102|
20150521-14:31:10.309: 8=FIX.4.4|9=0055|35=0|49=LVMDG|56=BOGCURNCY|34=195|52=20150521-14:31:10|10=246|
20150521-14:32:09.251: 8=FIX.4.4|9=59|35=0|34=195|49=BOGCURNCY|52=20150521-14:32:09.251|56=LVMDG|10=105|
20150521-14:32:10.309: 8=FIX.4.4|9=0055|35=0|49=LVMDG|56=BOGCURNCY|34=196|52=20150521-14:32:10|10=248|
20150521-14:33:09.251: 8=FIX.4.4|9=59|35=0|34=196|49=BOGCURNCY|52=20150521-14:33:09.251|56=LVMDG|10=107|
20150521-14:33:10.308: 8=FIX.4.4|9=0055|35=0|49=LVMDG|56=BOGCURNCY|34=197|52=20150521-14:33:10|10=250|
20150521-14:34:10.251: 8=FIX.4.4|9=59|35=0|34=197|49=BOGCURNCY|52=20150521-14:34:10.251|56=LVMDG|10=101|
20150521-14:34:10.309: 8=FIX.4.4|9=0055|35=0|49=LVMDG|56=BOGCURNCY|34=198|52=20150521-14:34:10|10=252|
20150521-14:35:10.308: 8=FIX.4.4|9=0055|35=0|49=LVMDG|56=BOGCURNCY|34=199|52=20150521-14:35:10|10=254|
20150521-14:35:10.309: 8=FIX.4.4|9=59|35=0|34=198|49=BOGCURNCY|52=20150521-14:35:10.309|56=LVMDG|10=107|
20150521-14:36:10.309: 8=FIX.4.4|9=0055|35=0|49=LVMDG|56=BOGCURNCY|34=200|52=20150521-14:36:10|10=238|
20150521-14:36:10.310: 8=FIX.4.4|9=59|35=0|34=199|49=BOGCURNCY|52=20150521-14:36:10.310|56=LVMDG|10=101|
20150521-14:37:10.309: 8=FIX.4.4|9=0055|35=0|49=LVMDG|56=BOGCURNCY|34=201|52=20150521-14:37:10|10=240|
20150521-14:37:10.310: 8=FIX.4.4|9=59|35=0|34=200|49=BOGCURNCY|52=20150521-14:37:10.310|56=LVMDG|10=085|
20150521-14:38:10.310: 8=FIX.4.4|9=0055|35=0|49=LVMDG|56=BOGCURNCY|34=202|52=20150521-14:38:10|10=242|
20150521-14:38:10.311: 8=FIX.4.4|9=59|35=0|34=201|49=BOGCURNCY|52=20150521-14:38:10.311|56=LVMDG|10=088|
20150521-14:39:10.310: 8=FIX.4.4|9=0055|35=0|49=LVMDG|56=BOGCURNCY|34=203|52=20150521-14:39:10|10=244|
20150521-14:39:10.311: 8=FIX.4.4|9=59|35=0|34=202|49=BOGCURNCY|52=20150521-14:39:10.311|56=LVMDG|10=090|
20150521-14:40:10.311: 8=FIX.4.4|9=0055|35=0|49=LVMDG|56=BOGCURNCY|34=204|52=20150521-14:40:10|10=237|
20150521-14:40:10.312: 8=FIX.4.4|9=59|35=0|34=203|49=BOGCURNCY|52=20150521-14:40:10.312|56=LVMDG|10=084|
20150521-14:41:10.310: 8=FIX.4.4|9=0055|35=0|49=LVMDG|56=BOGCURNCY|34=205|52=20150521-14:41:10|10=239|
20150521-14:41:11.251: 8=FIX.4.4|9=59|35=0|34=204|49=BOGCURNCY|52=20150521-14:41:11.251|56=LVMDG|10=089|
20150521-14:42:10.312: 8=FIX.4.4|9=0055|35=0|49=LVMDG|56=BOGCURNCY|34=206|52=20150521-14:42:10|10=241|
20150521-14:42:12.251: 8=FIX.4.4|9=59|35=0|34=205|49=BOGCURNCY|52=20150521-14:42:12.251|56=LVMDG|10=092|
20150521-14:43:10.311: 8=FIX.4.4|9=0055|35=0|49=LVMDG|56=BOGCURNCY|34=207|52=20150521-14:43:10|10=243|
20150521-14:43:13.251: 8=FIX.4.4|9=59|35=0|34=206|49=BOGCURNCY|52=20150521-14:43:13.251|56=LVMDG|10=095|
20150521-14:44:10.312: 8=FIX.4.4|9=0055|35=0|49=LVMDG|56=BOGCURNCY|34=208|52=20150521-14:44:10|10=245|
20150521-14:44:13.251: 8=FIX.4.4|9=59|35=0|34=207|49=BOGCURNCY|52=20150521-14:44:13.251|56=LVMDG|10=097|
20150521-14:45:10.313: 8=FIX.4.4|9=0055|35=0|49=LVMDG|56=BOGCURNCY|34=209|52=20150521-14:45:10|10=247|
20150521-14:45:13.251: 8=FIX.4.4|9=59|35=0|34=208|49=BOGCURNCY|52=20150521-14:45:13.251|56=LVMDG|10=099|
20150521-14:46:10.314: 8=FIX.4.4|9=0055|35=0|49=LVMDG|56=BOGCURNCY|34=210|52=20150521-14:46:10|10=240|
20150521-14:46:13.252: 8=FIX.4.4|9=59|35=0|34=209|49=BOGCURNCY|52=20150521-14:46:13.251|56=LVMDG|10=101|
20150521-14:47:10.314: 8=FIX.4.4|9=0055|35=0|49=LVMDG|56=BOGCURNCY|34=211|52=20150521-14:47:10|10=242|
20150521-14:47:13.251: 8=FIX.4.4|9=59|35=0|34=210|49=BOGCURNCY|52=20150521-14:47:13.251|56=LVMDG|10=094|
20150521-14:48:10.322: 8=FIX.4.4|9=0055|35=0|49=LVMDG|56=BOGCURNCY|34=212|52=20150521-14:48:10|10=244|
20150521-14:48:14.251: 8=FIX.4.4|9=59|35=0|34=211|49=BOGCURNCY|52=20150521-14:48:14.251|56=LVMDG|10=097|
20150521-14:49:10.315: 8=FIX.4.4|9=0055|35=0|49=LVMDG|56=BOGCURNCY|34=213|52=20150521-14:49:10|10=246|
20150521-14:49:15.251: 8=FIX.4.4|9=59|35=0|34=212|49=BOGCURNCY|52=20150521-14:49:15.251|56=LVMDG|10=100|
20150521-14:50:10.314: 8=FIX.4.4|9=0055|35=0|49=LVMDG|56=BOGCURNCY|34=214|52=20150521-14:50:10|10=239|
20150521-14:50:15.251: 8=FIX.4.4|9=59|35=0|34=213|49=BOGCURNCY|52=20150521-14:50:15.251|56=LVMDG|10=093|
20150521-14:51:10.315: 8=FIX.4.4|9=0055|35=0|49=LVMDG|56=BOGCURNCY|34=215|52=20150521-14:51:10|10=241|
20150521-14:51:16.251: 8=FIX.4.4|9=59|35=0|34=214|49=BOGCURNCY|52=20150521-14:51:16.251|56=LVMDG|10=096|
20150521-14:52:10.315: 8=FIX.4.4|9=0055|35=0|49=LVMDG|56=BOGCURNCY|34=216|52=20150521-14:52:10|10=243|
20150521-14:52:17.251: 8=FIX.4.4|9=59|35=0|34=215|49=BOGCURNCY|52=20150521-14:52:17.251|56=LVMDG|10=099|
20150521-14:53:10.316: 8=FIX.4.4|9=0055|35=0|49=LVMDG|56=BOGCURNCY|34=217|52=20150521-14:53:10|10=245|
20150521-14:53:17.251: 8=FIX.4.4|9=59|35=0|34=216|49=BOGCURNCY|52=20150521-14:53:17.251|56=LVMDG|10=101|
20150521-14:54:10.316: 8=FIX.4.4|9=0055|35=0|49=LVMDG|56=BOGCURNCY|34=218|52=20150521-14:54:10|10=247|
20150521-14:54:18.251: 8=FIX.4.4|9=59|35=0|34=217|49=BOGCURNCY|52=20150521-14:54:18.251|56=LVMDG|10=104|
20150521-14:55:10.317: 8=FIX.4.4|9=0055|35=0|49=LVMDG|56=BOGCURNCY|34=219|52=20150521-14:55:10|10=249|
20150521-14:55:19.251: 8=FIX.4.4|9=59|35=0|34=218|49=BOGCURNCY|52=20150521-14:55:19.251|56=LVMDG|10=107|
20150521-14:56:10.317: 8=FIX.4.4|9=0055|35=0|49=LVMDG|56=BOGCURNCY|34=220|52=20150521-14:56:10|10=242|
20150521-14:56:19.251: 8=FIX.4.4|9=59|35=0|34=219|49=BOGCURNCY|52=20150521-14:56:19.251|56=LVMDG|10=109|
20150521-14:57:10.317: 8=FIX.4.4|9=0055|35=0|49=LVMDG|56=BOGCURNCY|34=221|52=20150521-14:57:10|10=244|
20150521-14:57:19.252: 8=FIX.4.4|9=59|35=0|34=220|49=BOGCURNCY|52=20150521-14:57:19.252|56=LVMDG|10=103|
20150521-14:58:10.317: 8=FIX.4.4|9=0055|35=0|49=LVMDG|56=BOGCURNCY|34=222|52=20150521-14:58:10|10=246|
20150521-14:58:20.250: 8=FIX.4.4|9=59|35=0|34=221|49=BOGCURNCY|52=20150521-14:58:20.250|56=LVMDG|10=095|
20150521-14:59:10.316: 8=FIX.4.4|9=0055|35=0|49=LVMDG|56=BOGCURNCY|34=223|52=20150521-14:59:10|10=248|
20150521-14:59:20.251: 8=FIX.4.4|9=59|35=0|34=222|49=BOGCURNCY|52=20150521-14:59:20.251|56=LVMDG|10=098|
20150521-15:00:10.317: 8=FIX.4.4|9=0055|35=0|49=LVMDG|56=BOGCURNCY|34=224|52=20150521-15:00:10|10=236|
20150521-15:00:20.251: 8=FIX.4.4|9=59|35=0|34=223|49=BOGCURNCY|52=20150521-15:00:20.251|56=LVMDG|10=086|
20150521-15:01:10.317: 8=FIX.4.4|9=0055|35=0|49=LVMDG|56=BOGCURNCY|34=225|52=20150521-15:01:10|10=238|
20150521-15:01:20.251: 8=FIX.4.4|9=59|35=0|34=224|49=BOGCURNCY|52=20150521-15:01:20.251|56=LVMDG|10=088|
20150521-15:02:10.318: 8=FIX.4.4|9=0055|35=0|49=LVMDG|56=BOGCURNCY|34=226|52=20150521-15:02:10|10=240|
20150521-15:02:20.251: 8=FIX.4.4|9=59|35=0|34=225|49=BOGCURNCY|52=20150521-15:02:20.251|56=LVMDG|10=090|
20150521-15:03:10.318: 8=FIX.4.4|9=0055|35=0|49=LVMDG|56=BOGCURNCY|34=227|52=20150521-15:03:10|10=242|
20150521-15:03:20.252: 8=FIX.4.4|9=59|35=0|34=226|49=BOGCURNCY|52=20150521-15:03:20.252|56=LVMDG|10=093|
20150521-15:04:10.319: 8=FIX.4.4|9=0055|35=0|49=LVMDG|56=BOGCURNCY|34=228|52=20150521-15:04:10|10=244|
20150521-15:04:21.252: 8=FIX.4.4|9=59|35=0|34=227|49=BOGCURNCY|52=20150521-15:04:21.251|56=LVMDG|10=095|
20150521-15:05:10.318: 8=FIX.4.4|9=0055|35=0|49=LVMDG|56=BOGCURNCY|34=229|52=20150521-15:05:10|10=246|
20150521-15:05:21.251: 8=FIX.4.4|9=59|35=0|34=228|49=BOGCURNCY|52=20150521-15:05:21.251|56=LVMDG|10=097|
20150521-15:06:10.318: 8=FIX.4.4|9=0055|35=0|49=LVMDG|56=BOGCURNCY|34=230|52=20150521-15:06:10|10=239|
20150521-15:06:21.251: 8=FIX.4.4|9=59|35=0|34=229|49=BOGCURNCY|52=20150521-15:06:21.251|56=LVMDG|10=099|
20150521-15:07:10.317: 8=FIX.4.4|9=0055|35=0|49=LVMDG|56=BOGCURNCY|34=231|52=20150521-15:07:10|10=241|
20150521-15:07:22.251: 8=FIX.4.4|9=59|35=0|34=230|49=BOGCURNCY|52=20150521-15:07:22.251|56=LVMDG|10=093|
20150521-15:08:10.318: 8=FIX.4.4|9=0055|35=0|49=LVMDG|56=BOGCURNCY|34=232|52=20150521-15:08:10|10=243|
20150521-15:08:22.251: 8=FIX.4.4|9=59|35=0|34=231|49=BOGCURNCY|52=20150521-15:08:22.251|56=LVMDG|10=095|
20150521-15:09:10.318: 8=FIX.4.4|9=0055|35=0|49=LVMDG|56=BOGCURNCY|34=233|52=20150521-15:09:10|10=245|
20150521-15:09:22.251: 8=FIX.4.4|9=59|35=0|34=232|49=BOGCURNCY|52=20150521-15:09:22.251|56=LVMDG|10=097|
20150521-15:10:10.319: 8=FIX.4.4|9=0055|35=0|49=LVMDG|56=BOGCURNCY|34=234|52=20150521-15:10:10|10=238|
20150521-15:10:22.251: 8=FIX.4.4|9=59|35=0|34=233|49=BOGCURNCY|52=20150521-15:10:22.251|56=LVMDG|10=090|
20150521-15:11:10.320: 8=FIX.4.4|9=0055|35=0|49=LVMDG|56=BOGCURNCY|34=235|52=20150521-15:11:10|10=240|
20150521-15:11:23.251: 8=FIX.4.4|9=59|35=0|34=234|49=BOGCURNCY|52=20150521-15:11:23.251|56=LVMDG|10=093|
20150521-15:12:10.320: 8=FIX.4.4|9=0055|35=0|49=LVMDG|56=BOGCURNCY|34=236|52=20150521-15:12:10|10=242|
20150521-15:12:23.251: 8=FIX.4.4|9=59|35=0|34=235|49=BOGCURNCY|52=20150521-15:12:23.251|56=LVMDG|10=095|
20150521-15:13:10.321: 8=FIX.4.4|9=0055|35=0|49=LVMDG|56=BOGCURNCY|34=237|52=20150521-15:13:10|10=244|
20150521-15:13:23.251: 8=FIX.4.4|9=59|35=0|34=236|49=BOGCURNCY|52=20150521-15:13:23.251|56=LVMDG|10=097|
20150521-15:14:10.323: 8=FIX.4.4|9=0055|35=0|49=LVMDG|56=BOGCURNCY|34=238|52=20150521-15:14:10|10=246|
20150521-15:14:23.251: 8=FIX.4.4|9=59|35=0|34=237|49=BOGCURNCY|52=20150521-15:14:23.251|56=LVMDG|10=099|
20150521-15:15:10.322: 8=FIX.4.4|9=0055|35=0|49=LVMDG|56=BOGCURNCY|34=239|52=20150521-15:15:10|10=248|
20150521-15:15:23.251: 8=FIX.4.4|9=59|35=0|34=238|49=BOGCURNCY|52=20150521-15:15:23.251|56=LVMDG|10=101|
20150521-15:16:10.321: 8=FIX.4.4|9=0055|35=0|49=LVMDG|56=BOGCURNCY|34=240|52=20150521-15:16:10|10=241|
20150521-15:16:23.251: 8=FIX.4.4|9=59|35=0|34=239|49=BOGCURNCY|52=20150521-15:16:23.251|56=LVMDG|10=103|
20150521-15:17:10.322: 8=FIX.4.4|9=0055|35=0|49=LVMDG|56=BOGCURNCY|34=241|52=20150521-15:17:10|10=243|
20150521-15:17:24.251: 8=FIX.4.4|9=59|35=0|34=240|49=BOGCURNCY|52=20150521-15:17:24.251|56=LVMDG|10=097|
20150521-15:18:10.323: 8=FIX.4.4|9=0055|35=0|49=LVMDG|56=BOGCURNCY|34=242|52=20150521-15:18:10|10=245|
20150521-15:18:24.251: 8=FIX.4.4|9=59|35=0|34=241|49=BOGCURNCY|52=20150521-15:18:24.251|56=LVMDG|10=099|
20150521-15:19:10.323: 8=FIX.4.4|9=0055|35=0|49=LVMDG|56=BOGCURNCY|34=243|52=20150521-15:19:10|10=247|
20150521-15:19:24.251: 8=FIX.4.4|9=59|35=0|34=242|49=BOGCURNCY|52=20150521-15:19:24.251|56=LVMDG|10=101|
20150521-15:20:10.323: 8=FIX.4.4|9=0055|35=0|49=LVMDG|56=BOGCURNCY|34=244|52=20150521-15:20:10|10=240|
20150521-15:20:25.251: 8=FIX.4.4|9=59|35=0|34=243|49=BOGCURNCY|52=20150521-15:20:25.251|56=LVMDG|10=095|
20150521-15:21:10.323: 8=FIX.4.4|9=0055|35=0|49=LVMDG|56=BOGCURNCY|34=245|52=20150521-15:21:10|10=242|
20150521-15:21:25.251: 8=FIX.4.4|9=59|35=0|34=244|49=BOGCURNCY|52=20150521-15:21:25.251|56=LVMDG|10=097|
20150521-15:22:10.324: 8=FIX.4.4|9=0055|35=0|49=LVMDG|56=BOGCURNCY|34=246|52=20150521-15:22:10|10=244|
20150521-15:22:25.251: 8=FIX.4.4|9=59|35=0|34=245|49=BOGCURNCY|52=20150521-15:22:25.251|56=LVMDG|10=099|
20150521-15:23:10.324: 8=FIX.4.4|9=0055|35=0|49=LVMDG|56=BOGCURNCY|34=247|52=20150521-15:23:10|10=246|
20150521-15:23:25.251: 8=FIX.4.4|9=59|35=0|34=246|49=BOGCURNCY|52=20150521-15:23:25.251|56=LVMDG|10=101|
20150521-15:24:10.324: 8=FIX.4.4|9=0055|35=0|49=LVMDG|56=BOGCURNCY|34=248|52=20150521-15:24:10|10=248|
20150521-15:24:25.251: 8=FIX.4.4|9=59|35=0|34=247|49=BOGCURNCY|52=20150521-15:24:25.251|56=LVMDG|10=103|
20150521-15:25:10.324: 8=FIX.4.4|9=0055|35=0|49=LVMDG|56=BOGCURNCY|34=249|52=20150521-15:25:10|10=250|
20150521-15:25:25.251: 8=FIX.4.4|9=59|35=0|34=248|49=BOGCURNCY|52=20150521-15:25:25.251|56=LVMDG|10=105|
20150521-15:26:10.324: 8=FIX.4.4|9=0055|35=0|49=LVMDG|56=BOGCURNCY|34=250|52=20150521-15:26:10|10=243|
20150521-15:26:25.255: 8=FIX.4.4|9=59|35=0|34=249|49=BOGCURNCY|52=20150521-15:26:25.255|56=LVMDG|10=111|
20150521-15:27:10.324: 8=FIX.4.4|9=0055|35=0|49=LVMDG|56=BOGCURNCY|34=251|52=20150521-15:27:10|10=245|
20150521-15:27:26.251: 8=FIX.4.4|9=59|35=0|34=250|49=BOGCURNCY|52=20150521-15:27:26.250|56=LVMDG|10=100|
20150521-15:28:10.324: 8=FIX.4.4|9=0055|35=0|49=LVMDG|56=BOGCURNCY|34=252|52=20150521-15:28:10|10=247|
20150521-15:28:26.251: 8=FIX.4.4|9=59|35=0|34=251|49=BOGCURNCY|52=20150521-15:28:26.251|56=LVMDG|10=103|
20150521-15:29:10.324: 8=FIX.4.4|9=0055|35=0|49=LVMDG|56=BOGCURNCY|34=253|52=20150521-15:29:10|10=249|
20150521-15:29:26.251: 8=FIX.4.4|9=59|35=0|34=252|49=BOGCURNCY|52=20150521-15:29:26.251|56=LVMDG|10=105|
20150521-15:30:10.326: 8=FIX.4.4|9=0055|35=0|49=LVMDG|56=BOGCURNCY|34=254|52=20150521-15:30:10|10=242|
20150521-15:30:26.251: 8=FIX.4.4|9=59|35=0|34=253|49=BOGCURNCY|52=20150521-15:30:26.251|56=LVMDG|10=098|
20150521-15:31:10.325: 8=FIX.4.4|9=0055|35=0|49=LVMDG|56=BOGCURNCY|34=255|52=20150521-15:31:10|10=244|
20150521-15:31:26.251: 8=FIX.4.4|9=59|35=0|34=254|49=BOGCURNCY|52=20150521-15:31:26.251|56=LVMDG|10=100|
20150521-15:32:10.325: 8=FIX.4.4|9=0055|35=0|49=LVMDG|56=BOGCURNCY|34=256|52=20150521-15:32:10|10=246|
20150521-15:32:26.251: 8=FIX.4.4|9=59|35=0|34=255|49=BOGCURNCY|52=20150521-15:32:26.251|56=LVMDG|10=102|
20150521-15:33:10.326: 8=FIX.4.4|9=0055|35=0|49=LVMDG|56=BOGCURNCY|34=257|52=20150521-15:33:10|10=248|
20150521-15:33:26.251: 8=FIX.4.4|9=59|35=0|34=256|49=BOGCURNCY|52=20150521-15:33:26.251|56=LVMDG|10=104|
20150521-15:34:10.325: 8=FIX.4.4|9=0055|35=0|49=LVMDG|56=BOGCURNCY|34=258|52=20150521-15:34:10|10=250|
20150521-15:34:26.251: 8=FIX.4.4|9=59|35=0|34=257|49=BOGCURNCY|52=20150521-15:34:26.251|56=LVMDG|10=106|
20150521-15:35:10.325: 8=FIX.4.4|9=0055|35=0|49=LVMDG|56=BOGCURNCY|34=259|52=20150521-15:35:10|10=252|
20150521-15:35:26.251: 8=FIX.4.4|9=59|35=0|34=258|49=BOGCURNCY|52=20150521-15:35:26.251|56=LVMDG|10=108|
20150521-15:36:10.325: 8=FIX.4.4|9=0055|35=0|49=LVMDG|56=BOGCURNCY|34=260|52=20150521-15:36:10|10=245|
20150521-15:36:26.251: 8=FIX.4.4|9=59|35=0|34=259|49=BOGCURNCY|52=20150521-15:36:26.251|56=LVMDG|10=110|
20150521-15:37:10.329: 8=FIX.4.4|9=0055|35=0|49=LVMDG|56=BOGCURNCY|34=261|52=20150521-15:37:10|10=247|
20150521-15:37:26.251: 8=FIX.4.4|9=59|35=0|34=260|49=BOGCURNCY|52=20150521-15:37:26.251|56=LVMDG|10=103|
20150521-15:38:10.325: 8=FIX.4.4|9=0055|35=0|49=LVMDG|56=BOGCURNCY|34=262|52=20150521-15:38:10|10=249|
20150521-15:38:26.251: 8=FIX.4.4|9=59|35=0|34=261|49=BOGCURNCY|52=20150521-15:38:26.251|56=LVMDG|10=105|
20150521-15:39:10.327: 8=FIX.4.4|9=0055|35=0|49=LVMDG|56=BOGCURNCY|34=263|52=20150521-15:39:10|10=251|
20150521-15:39:27.251: 8=FIX.4.4|9=59|35=0|34=262|49=BOGCURNCY|52=20150521-15:39:27.251|56=LVMDG|10=108|
20150521-15:40:10.325: 8=FIX.4.4|9=0055|35=0|49=LVMDG|56=BOGCURNCY|34=264|52=20150521-15:40:10|10=244|
20150521-15:40:27.251: 8=FIX.4.4|9=59|35=0|34=263|49=BOGCURNCY|52=20150521-15:40:27.251|56=LVMDG|10=101|
20150521-15:41:10.325: 8=FIX.4.4|9=0055|35=0|49=LVMDG|56=BOGCURNCY|34=265|52=20150521-15:41:10|10=246|
20150521-15:41:27.251: 8=FIX.4.4|9=59|35=0|34=264|49=BOGCURNCY|52=20150521-15:41:27.251|56=LVMDG|10=103|
20150521-15:42:10.326: 8=FIX.4.4|9=0055|35=0|49=LVMDG|56=BOGCURNCY|34=266|52=20150521-15:42:10|10=248|
20150521-15:42:27.252: 8=FIX.4.4|9=59|35=0|34=265|49=BOGCURNCY|52=20150521-15:42:27.251|56=LVMDG|10=105|
20150521-15:43:10.330: 8=FIX.4.4|9=0055|35=0|49=LVMDG|56=BOGCURNCY|34=267|52=20150521-15:43:10|10=250|
20150521-15:43:28.251: 8=FIX.4.4|9=59|35=0|34=266|49=BOGCURNCY|52=20150521-15:43:28.251|56=LVMDG|10=108|
20150521-15:44:10.326: 8=FIX.4.4|9=0055|35=0|49=LVMDG|56=BOGCURNCY|34=268|52=20150521-15:44:10|10=252|
20150521-15:44:28.251: 8=FIX.4.4|9=59|35=0|34=267|49=BOGCURNCY|52=20150521-15:44:28.251|56=LVMDG|10=110|
20150521-15:45:10.326: 8=FIX.4.4|9=0055|35=0|49=LVMDG|56=BOGCURNCY|34=269|52=20150521-15:45:10|10=254|
20150521-15:45:29.251: 8=FIX.4.4|9=59|35=0|34=268|49=BOGCURNCY|52=20150521-15:45:29.251|56=LVMDG|10=113|
20150521-15:46:10.327: 8=FIX.4.4|9=0055|35=0|49=LVMDG|56=BOGCURNCY|34=270|52=20150521-15:46:10|10=247|
20150521-15:46:29.251: 8=FIX.4.4|9=59|35=0|34=269|49=BOGCURNCY|52=20150521-15:46:29.251|56=LVMDG|10=115|
20150521-15:47:10.328: 8=FIX.4.4|9=0055|35=0|49=LVMDG|56=BOGCURNCY|34=271|52=20150521-15:47:10|10=249|
20150521-15:47:29.252: 8=FIX.4.4|9=59|35=0|34=270|49=BOGCURNCY|52=20150521-15:47:29.252|56=LVMDG|10=109|
20150521-15:48:10.348: 8=FIX.4.4|9=0055|35=0|49=LVMDG|56=BOGCURNCY|34=272|52=20150521-15:48:10|10=251|
20150521-15:48:30.251: 8=FIX.4.4|9=59|35=0|34=271|49=BOGCURNCY|52=20150521-15:48:30.251|56=LVMDG|10=102|
20150521-15:49:10.328: 8=FIX.4.4|9=0055|35=0|49=LVMDG|56=BOGCURNCY|34=273|52=20150521-15:49:10|10=253|
20150521-15:49:30.251: 8=FIX.4.4|9=59|35=0|34=272|49=BOGCURNCY|52=20150521-15:49:30.251|56=LVMDG|10=104|
20150521-15:50:10.327: 8=FIX.4.4|9=0055|35=0|49=LVMDG|56=BOGCURNCY|34=274|52=20150521-15:50:10|10=246|
20150521-15:50:31.251: 8=FIX.4.4|9=59|35=0|34=273|49=BOGCURNCY|52=20150521-15:50:31.251|56=LVMDG|10=098|
20150521-15:51:10.327: 8=FIX.4.4|9=0055|35=0|49=LVMDG|56=BOGCURNCY|34=275|52=20150521-15:51:10|10=248|
20150521-15:51:31.251: 8=FIX.4.4|9=59|35=0|34=274|49=BOGCURNCY|52=20150521-15:51:31.251|56=LVMDG|10=100|
20150521-15:52:10.327: 8=FIX.4.4|9=0055|35=0|49=LVMDG|56=BOGCURNCY|34=276|52=20150521-15:52:10|10=250|
20150521-15:52:31.251: 8=FIX.4.4|9=59|35=0|34=275|49=BOGCURNCY|52=20150521-15:52:31.251|56=LVMDG|10=102|
20150521-15:53:10.327: 8=FIX.4.4|9=0055|35=0|49=LVMDG|56=BOGCURNCY|34=277|52=20150521-15:53:10|10=252|
20150521-15:53:31.251: 8=FIX.4.4|9=59|35=0|34=276|49=BOGCURNCY|52=20150521-15:53:31.251|56=LVMDG|10=104|
20150521-15:54:10.327: 8=FIX.4.4|9=0055|35=0|49=LVMDG|56=BOGCURNCY|34=278|52=20150521-15:54:10|10=254|
20150521-15:54:31.252: 8=FIX.4.4|9=59|35=0|34=277|49=BOGCURNCY|52=20150521-15:54:31.252|56=LVMDG|10=107|
20150521-15:55:10.329: 8=FIX.4.4|9=0055|35=0|49=LVMDG|56=BOGCURNCY|34=279|52=20150521-15:55:10|10=000|
20150521-15:55:32.252: 8=FIX.4.4|9=59|35=0|34=278|49=BOGCURNCY|52=20150521-15:55:32.252|56=LVMDG|10=110|
20150521-15:56:10.328: 8=FIX.4.4|9=0055|35=0|49=LVMDG|56=BOGCURNCY|34=280|52=20150521-15:56:10|10=249|
20150521-15:56:33.252: 8=FIX.4.4|9=59|35=0|34=279|49=BOGCURNCY|52=20150521-15:56:33.251|56=LVMDG|10=112|
20150521-15:57:10.329: 8=FIX.4.4|9=0055|35=0|49=LVMDG|56=BOGCURNCY|34=281|52=20150521-15:57:10|10=251|
20150521-15:57:33.251: 8=FIX.4.4|9=59|35=0|34=280|49=BOGCURNCY|52=20150521-15:57:33.251|56=LVMDG|10=105|
20150521-15:58:10.329: 8=FIX.4.4|9=0055|35=0|49=LVMDG|56=BOGCURNCY|34=282|52=20150521-15:58:10|10=253|
20150521-15:58:33.251: 8=FIX.4.4|9=59|35=0|34=281|49=BOGCURNCY|52=20150521-15:58:33.251|56=LVMDG|10=107|
20150521-15:59:10.329: 8=FIX.4.4|9=0055|35=0|49=LVMDG|56=BOGCURNCY|34=283|52=20150521-15:59:10|10=255|
20150521-15:59:33.252: 8=FIX.4.4|9=59|35=0|34=282|49=BOGCURNCY|52=20150521-15:59:33.251|56=LVMDG|10=109|
20150521-16:00:10.329: 8=FIX.4.4|9=0055|35=0|49=LVMDG|56=BOGCURNCY|34=284|52=20150521-16:00:10|10=243|
20150521-16:00:33.251: 8=FIX.4.4|9=59|35=0|34=283|49=BOGCURNCY|52=20150521-16:00:33.251|56=LVMDG|10=097|
20150521-16:01:10.330: 8=FIX.4.4|9=0055|35=0|49=LVMDG|56=BOGCURNCY|34=285|52=20150521-16:01:10|10=245|
20150521-16:01:33.251: 8=FIX.4.4|9=59|35=0|34=284|49=BOGCURNCY|52=20150521-16:01:33.251|56=LVMDG|10=099|
20150521-16:02:10.331: 8=FIX.4.4|9=0055|35=0|49=LVMDG|56=BOGCURNCY|34=286|52=20150521-16:02:10|10=247|
20150521-16:02:33.251: 8=FIX.4.4|9=59|35=0|34=285|49=BOGCURNCY|52=20150521-16:02:33.251|56=LVMDG|10=101|
20150521-16:03:10.330: 8=FIX.4.4|9=0055|35=0|49=LVMDG|56=BOGCURNCY|34=287|52=20150521-16:03:10|10=249|
20150521-16:03:33.251: 8=FIX.4.4|9=59|35=0|34=286|49=BOGCURNCY|52=20150521-16:03:33.251|56=LVMDG|10=103|
20150521-16:04:10.331: 8=FIX.4.4|9=0055|35=0|49=LVMDG|56=BOGCURNCY|34=288|52=20150521-16:04:10|10=251|
20150521-16:04:33.252: 8=FIX.4.4|9=59|35=0|34=287|49=BOGCURNCY|52=20150521-16:04:33.252|56=LVMDG|10=106|
20150521-16:05:10.331: 8=FIX.4.4|9=0055|35=0|49=LVMDG|56=BOGCURNCY|34=289|52=20150521-16:05:10|10=253|
20150521-16:05:34.252: 8=FIX.4.4|9=59|35=0|34=288|49=BOGCURNCY|52=20150521-16:05:34.251|56=LVMDG|10=108|
20150521-16:06:10.330: 8=FIX.4.4|9=0055|35=0|49=LVMDG|56=BOGCURNCY|34=290|52=20150521-16:06:10|10=246|
20150521-16:06:35.251: 8=FIX.4.4|9=59|35=0|34=289|49=BOGCURNCY|52=20150521-16:06:35.251|56=LVMDG|10=111|
20150521-16:07:10.333: 8=FIX.4.4|9=0055|35=0|49=LVMDG|56=BOGCURNCY|34=291|52=20150521-16:07:10|10=248|
20150521-16:07:36.251: 8=FIX.4.4|9=59|35=0|34=290|49=BOGCURNCY|52=20150521-16:07:36.251|56=LVMDG|10=105|
20150521-16:08:10.331: 8=FIX.4.4|9=0055|35=0|49=LVMDG|56=BOGCURNCY|34=292|52=20150521-16:08:10|10=250|
20150521-16:08:37.251: 8=FIX.4.4|9=59|35=0|34=291|49=BOGCURNCY|52=20150521-16:08:37.251|56=LVMDG|10=108|
20150521-16:09:10.331: 8=FIX.4.4|9=0055|35=0|49=LVMDG|56=BOGCURNCY|34=293|52=20150521-16:09:10|10=252|
20150521-16:09:37.251: 8=FIX.4.4|9=59|35=0|34=292|49=BOGCURNCY|52=20150521-16:09:37.251|56=LVMDG|10=110|
20150521-16:10:10.331: 8=FIX.4.4|9=0055|35=0|49=LVMDG|56=BOGCURNCY|34=294|52=20150521-16:10:10|10=245|
20150521-16:10:37.251: 8=FIX.4.4|9=59|35=0|34=293|49=BOGCURNCY|52=20150521-16:10:37.251|56=LVMDG|10=103|
20150521-16:11:10.331: 8=FIX.4.4|9=0055|35=0|49=LVMDG|56=BOGCURNCY|34=295|52=20150521-16:11:10|10=247|
20150521-16:11:37.251: 8=FIX.4.4|9=59|35=0|34=294|49=BOGCURNCY|52=20150521-16:11:37.251|56=LVMDG|10=105|
20150521-16:12:10.331: 8=FIX.4.4|9=0055|35=0|49=LVMDG|56=BOGCURNCY|34=296|52=20150521-16:12:10|10=249|
20150521-16:12:38.251: 8=FIX.4.4|9=59|35=0|34=295|49=BOGCURNCY|52=20150521-16:12:38.251|56=LVMDG|10=108|
20150521-16:13:10.331: 8=FIX.4.4|9=0055|35=0|49=LVMDG|56=BOGCURNCY|34=297|52=20150521-16:13:10|10=251|
20150521-16:13:38.251: 8=FIX.4.4|9=59|35=0|34=296|49=BOGCURNCY|52=20150521-16:13:38.251|56=LVMDG|10=110|
20150521-16:14:10.336: 8=FIX.4.4|9=0055|35=0|49=LVMDG|56=BOGCURNCY|34=298|52=20150521-16:14:10|10=253|
20150521-16:14:38.251: 8=FIX.4.4|9=59|35=0|34=297|49=BOGCURNCY|52=20150521-16:14:38.251|56=LVMDG|10=112|
20150521-16:15:10.332: 8=FIX.4.4|9=0055|35=0|49=LVMDG|56=BOGCURNCY|34=299|52=20150521-16:15:10|10=255|
20150521-16:15:38.251: 8=FIX.4.4|9=59|35=0|34=298|49=BOGCURNCY|52=20150521-16:15:38.251|56=LVMDG|10=114|
20150521-16:16:10.332: 8=FIX.4.4|9=0055|35=0|49=LVMDG|56=BOGCURNCY|34=300|52=20150521-16:16:10|10=239|
20150521-16:16:38.251: 8=FIX.4.4|9=59|35=0|34=299|49=BOGCURNCY|52=20150521-16:16:38.251|56=LVMDG|10=116|
20150521-16:17:10.332: 8=FIX.4.4|9=0055|35=0|49=LVMDG|56=BOGCURNCY|34=301|52=20150521-16:17:10|10=241|
20150521-16:17:38.251: 8=FIX.4.4|9=59|35=0|34=300|49=BOGCURNCY|52=20150521-16:17:38.251|56=LVMDG|10=100|
20150521-16:18:10.333: 8=FIX.4.4|9=0055|35=0|49=LVMDG|56=BOGCURNCY|34=302|52=20150521-16:18:10|10=243|
20150521-16:18:38.251: 8=FIX.4.4|9=59|35=0|34=301|49=BOGCURNCY|52=20150521-16:18:38.251|56=LVMDG|10=102|
20150521-16:19:10.333: 8=FIX.4.4|9=0055|35=0|49=LVMDG|56=BOGCURNCY|34=303|52=20150521-16:19:10|10=245|
20150521-16:19:39.251: 8=FIX.4.4|9=59|35=0|34=302|49=BOGCURNCY|52=20150521-16:19:39.251|56=LVMDG|10=105|
20150521-16:20:10.333: 8=FIX.4.4|9=0055|35=0|49=LVMDG|56=BOGCURNCY|34=304|52=20150521-16:20:10|10=238|
20150521-16:20:39.251: 8=FIX.4.4|9=59|35=0|34=303|49=BOGCURNCY|52=20150521-16:20:39.251|56=LVMDG|10=098|
20150521-16:21:10.333: 8=FIX.4.4|9=0055|35=0|49=LVMDG|56=BOGCURNCY|34=305|52=20150521-16:21:10|10=240|
20150521-16:21:40.251: 8=FIX.4.4|9=59|35=0|34=304|49=BOGCURNCY|52=20150521-16:21:40.251|56=LVMDG|10=092|
20150521-16:22:10.334: 8=FIX.4.4|9=0055|35=0|49=LVMDG|56=BOGCURNCY|34=306|52=20150521-16:22:10|10=242|
20150521-16:22:40.251: 8=FIX.4.4|9=59|35=0|34=305|49=BOGCURNCY|52=20150521-16:22:40.251|56=LVMDG|10=094|
20150521-16:23:10.334: 8=FIX.4.4|9=0055|35=0|49=LVMDG|56=BOGCURNCY|34=307|52=20150521-16:23:10|10=244|
20150521-16:23:40.251: 8=FIX.4.4|9=59|35=0|34=306|49=BOGCURNCY|52=20150521-16:23:40.251|56=LVMDG|10=096|
20150521-16:24:10.335: 8=FIX.4.4|9=0055|35=0|49=LVMDG|56=BOGCURNCY|34=308|52=20150521-16:24:10|10=246|
20150521-16:24:40.251: 8=FIX.4.4|9=59|35=0|34=307|49=BOGCURNCY|52=20150521-16:24:40.251|56=LVMDG|10=098|
20150521-16:25:10.335: 8=FIX.4.4|9=0055|35=0|49=LVMDG|56=BOGCURNCY|34=309|52=20150521-16:25:10|10=248|
20150521-16:25:40.251: 8=FIX.4.4|9=59|35=0|34=308|49=BOGCURNCY|52=20150521-16:25:40.251|56=LVMDG|10=100|
20150521-16:26:10.336: 8=FIX.4.4|9=0055|35=0|49=LVMDG|56=BOGCURNCY|34=310|52=20150521-16:26:10|10=241|
20150521-16:26:40.251: 8=FIX.4.4|9=59|35=0|34=309|49=BOGCURNCY|52=20150521-16:26:40.251|56=LVMDG|10=102|
20150521-16:27:10.336: 8=FIX.4.4|9=0055|35=0|49=LVMDG|56=BOGCURNCY|34=311|52=20150521-16:27:10|10=243|
20150521-16:27:40.251: 8=FIX.4.4|9=59|35=0|34=310|49=BOGCURNCY|52=20150521-16:27:40.251|56=LVMDG|10=095|
20150521-16:28:10.337: 8=FIX.4.4|9=0055|35=0|49=LVMDG|56=BOGCURNCY|34=312|52=20150521-16:28:10|10=245|
20150521-16:28:40.251: 8=FIX.4.4|9=59|35=0|34=311|49=BOGCURNCY|52=20150521-16:28:40.251|56=LVMDG|10=097|
20150521-16:29:10.337: 8=FIX.4.4|9=0055|35=0|49=LVMDG|56=BOGCURNCY|34=313|52=20150521-16:29:10|10=247|
20150521-16:29:40.251: 8=FIX.4.4|9=59|35=0|34=312|49=BOGCURNCY|52=20150521-16:29:40.251|56=LVMDG|10=099|
20150521-16:30:10.337: 8=FIX.4.4|9=0055|35=0|49=LVMDG|56=BOGCURNCY|34=314|52=20150521-16:30:10|10=240|
20150521-16:30:40.251: 8=FIX.4.4|9=59|35=0|34=313|49=BOGCURNCY|52=20150521-16:30:40.251|56=LVMDG|10=092|
20150521-16:31:10.337: 8=FIX.4.4|9=0055|35=0|49=LVMDG|56=BOGCURNCY|34=315|52=20150521-16:31:10|10=242|
20150521-16:31:40.251: 8=FIX.4.4|9=59|35=0|34=314|49=BOGCURNCY|52=20150521-16:31:40.251|56=LVMDG|10=094|
20150521-16:32:10.337: 8=FIX.4.4|9=0055|35=0|49=LVMDG|56=BOGCURNCY|34=316|52=20150521-16:32:10|10=244|
20150521-16:32:40.251: 8=FIX.4.4|9=59|35=0|34=315|49=BOGCURNCY|52=20150521-16:32:40.251|56=LVMDG|10=096|
20150521-16:33:10.337: 8=FIX.4.4|9=0055|35=0|49=LVMDG|56=BOGCURNCY|34=317|52=20150521-16:33:10|10=246|
20150521-16:33:40.251: 8=FIX.4.4|9=59|35=0|34=316|49=BOGCURNCY|52=20150521-16:33:40.251|56=LVMDG|10=098|
20150521-16:34:10.337: 8=FIX.4.4|9=0055|35=0|49=LVMDG|56=BOGCURNCY|34=318|52=20150521-16:34:10|10=248|
20150521-16:34:40.251: 8=FIX.4.4|9=59|35=0|34=317|49=BOGCURNCY|52=20150521-16:34:40.251|56=LVMDG|10=100|
20150521-16:35:10.336: 8=FIX.4.4|9=0055|35=0|49=LVMDG|56=BOGCURNCY|34=319|52=20150521-16:35:10|10=250|
20150521-16:35:40.251: 8=FIX.4.4|9=59|35=0|34=318|49=BOGCURNCY|52=20150521-16:35:40.251|56=LVMDG|10=102|
20150521-16:36:10.337: 8=FIX.4.4|9=0055|35=0|49=LVMDG|56=BOGCURNCY|34=320|52=20150521-16:36:10|10=243|
20150521-16:36:40.251: 8=FIX.4.4|9=59|35=0|34=319|49=BOGCURNCY|52=20150521-16:36:40.251|56=LVMDG|10=104|
20150521-16:37:10.337: 8=FIX.4.4|9=0055|35=0|49=LVMDG|56=BOGCURNCY|34=321|52=20150521-16:37:10|10=245|
20150521-16:37:40.252: 8=FIX.4.4|9=59|35=0|34=320|49=BOGCURNCY|52=20150521-16:37:40.252|56=LVMDG|10=098|
20150521-16:38:10.338: 8=FIX.4.4|9=0055|35=0|49=LVMDG|56=BOGCURNCY|34=322|52=20150521-16:38:10|10=247|
20150521-16:38:40.252: 8=FIX.4.4|9=59|35=0|34=321|49=BOGCURNCY|52=20150521-16:38:40.252|56=LVMDG|10=100|
20150521-16:39:10.337: 8=FIX.4.4|9=0055|35=0|49=LVMDG|56=BOGCURNCY|34=323|52=20150521-16:39:10|10=249|
20150521-16:39:41.251: 8=FIX.4.4|9=59|35=0|34=322|49=BOGCURNCY|52=20150521-16:39:41.251|56=LVMDG|10=102|
20150521-16:40:10.338: 8=FIX.4.4|9=0055|35=0|49=LVMDG|56=BOGCURNCY|34=324|52=20150521-16:40:10|10=242|
20150521-16:40:41.251: 8=FIX.4.4|9=59|35=0|34=323|49=BOGCURNCY|52=20150521-16:40:41.251|56=LVMDG|10=095|
20150521-16:41:10.338: 8=FIX.4.4|9=0055|35=0|49=LVMDG|56=BOGCURNCY|34=325|52=20150521-16:41:10|10=244|
20150521-16:41:41.251: 8=FIX.4.4|9=59|35=0|34=324|49=BOGCURNCY|52=20150521-16:41:41.251|56=LVMDG|10=097|
20150521-16:42:10.338: 8=FIX.4.4|9=0055|35=0|49=LVMDG|56=BOGCURNCY|34=326|52=20150521-16:42:10|10=246|
20150521-16:42:41.251: 8=FIX.4.4|9=59|35=0|34=325|49=BOGCURNCY|52=20150521-16:42:41.251|56=LVMDG|10=099|
20150521-16:43:10.338: 8=FIX.4.4|9=0055|35=0|49=LVMDG|56=BOGCURNCY|34=327|52=20150521-16:43:10|10=248|
20150521-16:43:41.252: 8=FIX.4.4|9=59|35=0|34=326|49=BOGCURNCY|52=20150521-16:43:41.252|56=LVMDG|10=102|
20150521-16:44:10.338: 8=FIX.4.4|9=0055|35=0|49=LVMDG|56=BOGCURNCY|34=328|52=20150521-16:44:10|10=250|
20150521-16:44:42.252: 8=FIX.4.4|9=59|35=0|34=327|49=BOGCURNCY|52=20150521-16:44:42.251|56=LVMDG|10=104|
20150521-16:45:10.338: 8=FIX.4.4|9=0055|35=0|49=LVMDG|56=BOGCURNCY|34=329|52=20150521-16:45:10|10=252|
20150521-16:45:42.251: 8=FIX.4.4|9=59|35=0|34=328|49=BOGCURNCY|52=20150521-16:45:42.251|56=LVMDG|10=106|
20150521-16:46:10.338: 8=FIX.4.4|9=0055|35=0|49=LVMDG|56=BOGCURNCY|34=330|52=20150521-16:46:10|10=245|
20150521-16:46:42.252: 8=FIX.4.4|9=59|35=0|34=329|49=BOGCURNCY|52=20150521-16:46:42.251|56=LVMDG|10=108|
20150521-16:47:10.338: 8=FIX.4.4|9=0055|35=0|49=LVMDG|56=BOGCURNCY|34=331|52=20150521-16:47:10|10=247|
20150521-16:47:42.251: 8=FIX.4.4|9=59|35=0|34=330|49=BOGCURNCY|52=20150521-16:47:42.251|56=LVMDG|10=101|
20150521-16:48:10.339: 8=FIX.4.4|9=0055|35=0|49=LVMDG|56=BOGCURNCY|34=332|52=20150521-16:48:10|10=249|
20150521-16:48:42.251: 8=FIX.4.4|9=59|35=0|34=331|49=BOGCURNCY|52=20150521-16:48:42.251|56=LVMDG|10=103|
20150521-16:49:10.338: 8=FIX.4.4|9=0055|35=0|49=LVMDG|56=BOGCURNCY|34=333|52=20150521-16:49:10|10=251|
20150521-16:49:42.252: 8=FIX.4.4|9=59|35=0|34=332|49=BOGCURNCY|52=20150521-16:49:42.252|56=LVMDG|10=106|
20150521-16:50:10.339: 8=FIX.4.4|9=0055|35=0|49=LVMDG|56=BOGCURNCY|34=334|52=20150521-16:50:10|10=244|
20150521-16:50:42.252: 8=FIX.4.4|9=59|35=0|34=333|49=BOGCURNCY|52=20150521-16:50:42.252|56=LVMDG|10=099|
20150521-16:51:10.339: 8=FIX.4.4|9=0055|35=0|49=LVMDG|56=BOGCURNCY|34=335|52=20150521-16:51:10|10=246|
20150521-16:51:42.253: 8=FIX.4.4|9=59|35=0|34=334|49=BOGCURNCY|52=20150521-16:51:42.253|56=LVMDG|10=102|
20150521-16:52:10.339: 8=FIX.4.4|9=0055|35=0|49=LVMDG|56=BOGCURNCY|34=336|52=20150521-16:52:10|10=248|
20150521-16:52:43.251: 8=FIX.4.4|9=59|35=0|34=335|49=BOGCURNCY|52=20150521-16:52:43.251|56=LVMDG|10=103|
20150521-16:53:10.339: 8=FIX.4.4|9=0055|35=0|49=LVMDG|56=BOGCURNCY|34=337|52=20150521-16:53:10|10=250|
20150521-16:53:43.251: 8=FIX.4.4|9=59|35=0|34=336|49=BOGCURNCY|52=20150521-16:53:43.251|56=LVMDG|10=105|
20150521-16:54:10.338: 8=FIX.4.4|9=0055|35=0|49=LVMDG|56=BOGCURNCY|34=338|52=20150521-16:54:10|10=252|
20150521-16:54:44.251: 8=FIX.4.4|9=59|35=0|34=337|49=BOGCURNCY|52=20150521-16:54:44.251|56=LVMDG|10=108|
20150521-16:55:10.339: 8=FIX.4.4|9=0055|35=0|49=LVMDG|56=BOGCURNCY|34=339|52=20150521-16:55:10|10=254|
20150521-16:55:44.251: 8=FIX.4.4|9=59|35=0|34=338|49=BOGCURNCY|52=20150521-16:55:44.251|56=LVMDG|10=110|
20150521-16:56:10.339: 8=FIX.4.4|9=0055|35=0|49=LVMDG|56=BOGCURNCY|34=340|52=20150521-16:56:10|10=247|
20150521-16:56:44.251: 8=FIX.4.4|9=59|35=0|34=339|49=BOGCURNCY|52=20150521-16:56:44.251|56=LVMDG|10=112|
20150521-16:57:10.339: 8=FIX.4.4|9=0055|35=0|49=LVMDG|56=BOGCURNCY|34=341|52=20150521-16:57:10|10=249|
20150521-16:57:44.251: 8=FIX.4.4|9=59|35=0|34=340|49=BOGCURNCY|52=20150521-16:57:44.251|56=LVMDG|10=105|
20150521-16:58:10.339: 8=FIX.4.4|9=0055|35=0|49=LVMDG|56=BOGCURNCY|34=342|52=20150521-16:58:10|10=251|
20150521-16:58:44.251: 8=FIX.4.4|9=59|35=0|34=341|49=BOGCURNCY|52=20150521-16:58:44.251|56=LVMDG|10=107|
20150521-16:59:10.362: 8=FIX.4.4|9=0055|35=0|49=LVMDG|56=BOGCURNCY|34=343|52=20150521-16:59:10|10=253|
20150521-16:59:44.251: 8=FIX.4.4|9=59|35=0|34=342|49=BOGCURNCY|52=20150521-16:59:44.251|56=LVMDG|10=109|
20150521-17:00:10.339: 8=FIX.4.4|9=0055|35=0|49=LVMDG|56=BOGCURNCY|34=344|52=20150521-17:00:10|10=241|
20150521-17:00:45.251: 8=FIX.4.4|9=59|35=0|34=343|49=BOGCURNCY|52=20150521-17:00:45.251|56=LVMDG|10=098|
20150521-17:01:10.339: 8=FIX.4.4|9=0055|35=0|49=LVMDG|56=BOGCURNCY|34=345|52=20150521-17:01:10|10=243|
20150521-17:01:45.251: 8=FIX.4.4|9=59|35=0|34=344|49=BOGCURNCY|52=20150521-17:01:45.251|56=LVMDG|10=100|
20150521-17:02:10.339: 8=FIX.4.4|9=0055|35=0|49=LVMDG|56=BOGCURNCY|34=346|52=20150521-17:02:10|10=245|
20150521-17:02:46.251: 8=FIX.4.4|9=59|35=0|34=345|49=BOGCURNCY|52=20150521-17:02:46.251|56=LVMDG|10=103|
20150521-17:03:10.341: 8=FIX.4.4|9=0055|35=0|49=LVMDG|56=BOGCURNCY|34=347|52=20150521-17:03:10|10=247|
20150521-17:03:46.251: 8=FIX.4.4|9=59|35=0|34=346|49=BOGCURNCY|52=20150521-17:03:46.251|56=LVMDG|10=105|
20150521-17:04:10.340: 8=FIX.4.4|9=0055|35=0|49=LVMDG|56=BOGCURNCY|34=348|52=20150521-17:04:10|10=249|
20150521-17:04:46.251: 8=FIX.4.4|9=59|35=0|34=347|49=BOGCURNCY|52=20150521-17:04:46.251|56=LVMDG|10=107|
20150521-17:05:10.340: 8=FIX.4.4|9=0055|35=0|49=LVMDG|56=BOGCURNCY|34=349|52=20150521-17:05:10|10=251|
20150521-17:05:46.251: 8=FIX.4.4|9=59|35=0|34=348|49=BOGCURNCY|52=20150521-17:05:46.251|56=LVMDG|10=109|
20150521-17:06:11.329: 8=FIX.4.4|9=0055|35=0|49=LVMDG|56=BOGCURNCY|34=350|52=20150521-17:06:11|10=245|
20150521-17:06:46.251: 8=FIX.4.4|9=59|35=0|34=349|49=BOGCURNCY|52=20150521-17:06:46.251|56=LVMDG|10=111|
20150521-17:07:10.341: 8=FIX.4.4|9=0055|35=0|49=LVMDG|56=BOGCURNCY|34=351|52=20150521-17:07:10|10=246|
20150521-17:07:46.251: 8=FIX.4.4|9=59|35=0|34=350|49=BOGCURNCY|52=20150521-17:07:46.251|56=LVMDG|10=104|
20150521-17:08:10.341: 8=FIX.4.4|9=0055|35=0|49=LVMDG|56=BOGCURNCY|34=352|52=20150521-17:08:10|10=248|
20150521-17:08:46.251: 8=FIX.4.4|9=59|35=0|34=351|49=BOGCURNCY|52=20150521-17:08:46.251|56=LVMDG|10=106|
20150521-17:09:10.345: 8=FIX.4.4|9=0055|35=0|49=LVMDG|56=BOGCURNCY|34=353|52=20150521-17:09:10|10=250|
20150521-17:09:47.251: 8=FIX.4.4|9=59|35=0|34=352|49=BOGCURNCY|52=20150521-17:09:47.251|56=LVMDG|10=109|
20150521-17:10:10.341: 8=FIX.4.4|9=0055|35=0|49=LVMDG|56=BOGCURNCY|34=354|52=20150521-17:10:10|10=243|
20150521-17:10:47.251: 8=FIX.4.4|9=59|35=0|34=353|49=BOGCURNCY|52=20150521-17:10:47.251|56=LVMDG|10=102|
20150521-17:11:10.342: 8=FIX.4.4|9=0055|35=0|49=LVMDG|56=BOGCURNCY|34=355|52=20150521-17:11:10|10=245|
20150521-17:11:47.251: 8=FIX.4.4|9=59|35=0|34=354|49=BOGCURNCY|52=20150521-17:11:47.251|56=LVMDG|10=104|
20150521-17:12:10.343: 8=FIX.4.4|9=0055|35=0|49=LVMDG|56=BOGCURNCY|34=356|52=20150521-17:12:10|10=247|
20150521-17:12:48.251: 8=FIX.4.4|9=59|35=0|34=355|49=BOGCURNCY|52=20150521-17:12:48.251|56=LVMDG|10=107|
20150521-17:13:10.343: 8=FIX.4.4|9=0055|35=0|49=LVMDG|56=BOGCURNCY|34=357|52=20150521-17:13:10|10=249|
20150521-17:13:48.251: 8=FIX.4.4|9=59|35=0|34=356|49=BOGCURNCY|52=20150521-17:13:48.251|56=LVMDG|10=109|
20150521-17:14:10.366: 8=FIX.4.4|9=0055|35=0|49=LVMDG|56=BOGCURNCY|34=358|52=20150521-17:14:10|10=251|
20150521-17:14:48.251: 8=FIX.4.4|9=59|35=0|34=357|49=BOGCURNCY|52=20150521-17:14:48.251|56=LVMDG|10=111|
20150521-17:15:10.344: 8=FIX.4.4|9=0055|35=0|49=LVMDG|56=BOGCURNCY|34=359|52=20150521-17:15:10|10=253|
20150521-17:15:48.252: 8=FIX.4.4|9=59|35=0|34=358|49=BOGCURNCY|52=20150521-17:15:48.252|56=LVMDG|10=114|
20150521-17:16:10.344: 8=FIX.4.4|9=0055|35=0|49=LVMDG|56=BOGCURNCY|34=360|52=20150521-17:16:10|10=246|
20150521-17:16:48.252: 8=FIX.4.4|9=59|35=0|34=359|49=BOGCURNCY|52=20150521-17:16:48.252|56=LVMDG|10=116|
20150521-17:17:10.344: 8=FIX.4.4|9=0055|35=0|49=LVMDG|56=BOGCURNCY|34=361|52=20150521-17:17:10|10=248|
20150521-17:17:49.251: 8=FIX.4.4|9=59|35=0|34=360|49=BOGCURNCY|52=20150521-17:17:49.251|56=LVMDG|10=109|
20150521-17:18:10.345: 8=FIX.4.4|9=0055|35=0|49=LVMDG|56=BOGCURNCY|34=362|52=20150521-17:18:10|10=250|
20150521-17:18:49.251: 8=FIX.4.4|9=59|35=0|34=361|49=BOGCURNCY|52=20150521-17:18:49.251|56=LVMDG|10=111|
20150521-17:19:10.346: 8=FIX.4.4|9=0055|35=0|49=LVMDG|56=BOGCURNCY|34=363|52=20150521-17:19:10|10=252|
20150521-17:19:49.251: 8=FIX.4.4|9=59|35=0|34=362|49=BOGCURNCY|52=20150521-17:19:49.251|56=LVMDG|10=113|
20150521-17:20:10.346: 8=FIX.4.4|9=0055|35=0|49=LVMDG|56=BOGCURNCY|34=364|52=20150521-17:20:10|10=245|
20150521-17:20:49.251: 8=FIX.4.4|9=59|35=0|34=363|49=BOGCURNCY|52=20150521-17:20:49.251|56=LVMDG|10=106|
20150521-17:21:10.346: 8=FIX.4.4|9=0055|35=0|49=LVMDG|56=BOGCURNCY|34=365|52=20150521-17:21:10|10=247|
20150521-17:21:49.251: 8=FIX.4.4|9=59|35=0|34=364|49=BOGCURNCY|52=20150521-17:21:49.251|56=LVMDG|10=108|
20150521-17:22:10.348: 8=FIX.4.4|9=0055|35=0|49=LVMDG|56=BOGCURNCY|34=366|52=20150521-17:22:10|10=249|
20150521-17:22:49.251: 8=FIX.4.4|9=59|35=0|34=365|49=BOGCURNCY|52=20150521-17:22:49.251|56=LVMDG|10=110|
20150521-17:23:10.347: 8=FIX.4.4|9=0055|35=0|49=LVMDG|56=BOGCURNCY|34=367|52=20150521-17:23:10|10=251|
20150521-17:23:49.251: 8=FIX.4.4|9=59|35=0|34=366|49=BOGCURNCY|52=20150521-17:23:49.251|56=LVMDG|10=112|
20150521-17:24:10.347: 8=FIX.4.4|9=0055|35=0|49=LVMDG|56=BOGCURNCY|34=368|52=20150521-17:24:10|10=253|
20150521-17:24:49.251: 8=FIX.4.4|9=59|35=0|34=367|49=BOGCURNCY|52=20150521-17:24:49.251|56=LVMDG|10=114|
20150521-17:25:10.347: 8=FIX.4.4|9=0055|35=0|49=LVMDG|56=BOGCURNCY|34=369|52=20150521-17:25:10|10=255|
20150521-17:25:49.251: 8=FIX.4.4|9=59|35=0|34=368|49=BOGCURNCY|52=20150521-17:25:49.251|56=LVMDG|10=116|
20150521-17:26:10.349: 8=FIX.4.4|9=0055|35=0|49=LVMDG|56=BOGCURNCY|34=370|52=20150521-17:26:10|10=248|
20150521-17:26:49.251: 8=FIX.4.4|9=59|35=0|34=369|49=BOGCURNCY|52=20150521-17:26:49.251|56=LVMDG|10=118|
20150521-17:27:10.349: 8=FIX.4.4|9=0055|35=0|49=LVMDG|56=BOGCURNCY|34=371|52=20150521-17:27:10|10=250|
20150521-17:27:49.251: 8=FIX.4.4|9=59|35=0|34=370|49=BOGCURNCY|52=20150521-17:27:49.251|56=LVMDG|10=111|
20150521-17:28:10.349: 8=FIX.4.4|9=0055|35=0|49=LVMDG|56=BOGCURNCY|34=372|52=20150521-17:28:10|10=252|
20150521-17:28:49.828: 8=FIX.4.4|9=59|35=0|34=371|49=BOGCURNCY|52=20150521-17:28:49.828|56=LVMDG|10=123|
20150521-17:29:10.349: 8=FIX.4.4|9=0055|35=0|49=LVMDG|56=BOGCURNCY|34=373|52=20150521-17:29:10|10=254|
20150521-17:29:50.251: 8=FIX.4.4|9=59|35=0|34=372|49=BOGCURNCY|52=20150521-17:29:50.251|56=LVMDG|10=107|
20150521-17:30:10.350: 8=FIX.4.4|9=0055|35=0|49=LVMDG|56=BOGCURNCY|34=374|52=20150521-17:30:10|10=247|
20150521-17:30:50.251: 8=FIX.4.4|9=59|35=0|34=373|49=BOGCURNCY|52=20150521-17:30:50.251|56=LVMDG|10=100|
20150521-17:31:10.350: 8=FIX.4.4|9=0055|35=0|49=LVMDG|56=BOGCURNCY|34=375|52=20150521-17:31:10|10=249|
20150521-17:31:50.251: 8=FIX.4.4|9=59|35=0|34=374|49=BOGCURNCY|52=20150521-17:31:50.251|56=LVMDG|10=102|
20150521-17:32:10.350: 8=FIX.4.4|9=0055|35=0|49=LVMDG|56=BOGCURNCY|34=376|52=20150521-17:32:10|10=251|
20150521-17:32:51.784: 8=FIX.4.4|9=59|35=0|34=375|49=BOGCURNCY|52=20150521-17:32:51.784|56=LVMDG|10=116|
20150521-17:33:10.350: 8=FIX.4.4|9=0055|35=0|49=LVMDG|56=BOGCURNCY|34=377|52=20150521-17:33:10|10=253|
20150521-17:33:52.251: 8=FIX.4.4|9=59|35=0|34=376|49=BOGCURNCY|52=20150521-17:33:52.251|56=LVMDG|10=108|
20150521-17:34:10.351: 8=FIX.4.4|9=0055|35=0|49=LVMDG|56=BOGCURNCY|34=378|52=20150521-17:34:10|10=255|
20150521-17:34:52.251: 8=FIX.4.4|9=59|35=0|34=377|49=BOGCURNCY|52=20150521-17:34:52.251|56=LVMDG|10=110|
20150521-17:35:10.351: 8=FIX.4.4|9=0055|35=0|49=LVMDG|56=BOGCURNCY|34=379|52=20150521-17:35:10|10=001|
20150521-17:35:53.251: 8=FIX.4.4|9=59|35=0|34=378|49=BOGCURNCY|52=20150521-17:35:53.251|56=LVMDG|10=113|
20150521-17:36:10.352: 8=FIX.4.4|9=0055|35=0|49=LVMDG|56=BOGCURNCY|34=380|52=20150521-17:36:10|10=250|
20150521-17:36:53.251: 8=FIX.4.4|9=59|35=0|34=379|49=BOGCURNCY|52=20150521-17:36:53.251|56=LVMDG|10=115|
20150521-17:37:10.354: 8=FIX.4.4|9=0055|35=0|49=LVMDG|56=BOGCURNCY|34=381|52=20150521-17:37:10|10=252|
20150521-17:37:53.251: 8=FIX.4.4|9=59|35=0|34=380|49=BOGCURNCY|52=20150521-17:37:53.251|56=LVMDG|10=108|
20150521-17:38:10.353: 8=FIX.4.4|9=0055|35=0|49=LVMDG|56=BOGCURNCY|34=382|52=20150521-17:38:10|10=254|
20150521-17:38:53.251: 8=FIX.4.4|9=59|35=0|34=381|49=BOGCURNCY|52=20150521-17:38:53.251|56=LVMDG|10=110|
20150521-17:39:10.354: 8=FIX.4.4|9=0055|35=0|49=LVMDG|56=BOGCURNCY|34=383|52=20150521-17:39:10|10=000|
20150521-17:39:53.251: 8=FIX.4.4|9=59|35=0|34=382|49=BOGCURNCY|52=20150521-17:39:53.251|56=LVMDG|10=112|
20150521-17:40:10.355: 8=FIX.4.4|9=0055|35=0|49=LVMDG|56=BOGCURNCY|34=384|52=20150521-17:40:10|10=249|
20150521-17:40:53.251: 8=FIX.4.4|9=59|35=0|34=383|49=BOGCURNCY|52=20150521-17:40:53.251|56=LVMDG|10=105|
20150521-17:41:10.356: 8=FIX.4.4|9=0055|35=0|49=LVMDG|56=BOGCURNCY|34=385|52=20150521-17:41:10|10=251|
20150521-17:41:53.251: 8=FIX.4.4|9=59|35=0|34=384|49=BOGCURNCY|52=20150521-17:41:53.251|56=LVMDG|10=107|
20150521-17:42:10.356: 8=FIX.4.4|9=0055|35=0|49=LVMDG|56=BOGCURNCY|34=386|52=20150521-17:42:10|10=253|
20150521-17:42:53.251: 8=FIX.4.4|9=59|35=0|34=385|49=BOGCURNCY|52=20150521-17:42:53.251|56=LVMDG|10=109|
20150521-17:43:10.356: 8=FIX.4.4|9=0055|35=0|49=LVMDG|56=BOGCURNCY|34=387|52=20150521-17:43:10|10=255|
20150521-17:43:53.251: 8=FIX.4.4|9=59|35=0|34=386|49=BOGCURNCY|52=20150521-17:43:53.251|56=LVMDG|10=111|
20150521-17:44:10.355: 8=FIX.4.4|9=0055|35=0|49=LVMDG|56=BOGCURNCY|34=388|52=20150521-17:44:10|10=001|
20150521-17:44:53.251: 8=FIX.4.4|9=59|35=0|34=387|49=BOGCURNCY|52=20150521-17:44:53.251|56=LVMDG|10=113|
20150521-17:45:10.356: 8=FIX.4.4|9=0055|35=0|49=LVMDG|56=BOGCURNCY|34=389|52=20150521-17:45:10|10=003|
20150521-17:45:53.251: 8=FIX.4.4|9=59|35=0|34=388|49=BOGCURNCY|52=20150521-17:45:53.251|56=LVMDG|10=115|
20150521-17:46:10.357: 8=FIX.4.4|9=0055|35=0|49=LVMDG|56=BOGCURNCY|34=390|52=20150521-17:46:10|10=252|
20150521-17:46:53.251: 8=FIX.4.4|9=59|35=0|34=389|49=BOGCURNCY|52=20150521-17:46:53.251|56=LVMDG|10=117|
20150521-17:47:10.358: 8=FIX.4.4|9=0055|35=0|49=LVMDG|56=BOGCURNCY|34=391|52=20150521-17:47:10|10=254|
20150521-17:47:54.251: 8=FIX.4.4|9=59|35=0|34=390|49=BOGCURNCY|52=20150521-17:47:54.251|56=LVMDG|10=111|
20150521-17:48:10.358: 8=FIX.4.4|9=0055|35=0|49=LVMDG|56=BOGCURNCY|34=392|52=20150521-17:48:10|10=000|
20150521-17:48:54.251: 8=FIX.4.4|9=59|35=0|34=391|49=BOGCURNCY|52=20150521-17:48:54.251|56=LVMDG|10=113|
20150521-17:49:10.360: 8=FIX.4.4|9=0055|35=0|49=LVMDG|56=BOGCURNCY|34=393|52=20150521-17:49:10|10=002|
20150521-17:49:55.251: 8=FIX.4.4|9=59|35=0|34=392|49=BOGCURNCY|52=20150521-17:49:55.251|56=LVMDG|10=116|
20150521-17:50:10.360: 8=FIX.4.4|9=0055|35=0|49=LVMDG|56=BOGCURNCY|34=394|52=20150521-17:50:10|10=251|
20150521-17:50:55.251: 8=FIX.4.4|9=59|35=0|34=393|49=BOGCURNCY|52=20150521-17:50:55.251|56=LVMDG|10=109|
20150521-17:51:10.360: 8=FIX.4.4|9=0055|35=0|49=LVMDG|56=BOGCURNCY|34=395|52=20150521-17:51:10|10=253|
20150521-17:51:55.252: 8=FIX.4.4|9=59|35=0|34=394|49=BOGCURNCY|52=20150521-17:51:55.251|56=LVMDG|10=111|
20150521-17:52:10.359: 8=FIX.4.4|9=0055|35=0|49=LVMDG|56=BOGCURNCY|34=396|52=20150521-17:52:10|10=255|
20150521-17:52:55.251: 8=FIX.4.4|9=59|35=0|34=395|49=BOGCURNCY|52=20150521-17:52:55.251|56=LVMDG|10=113|
20150521-17:53:10.364: 8=FIX.4.4|9=0055|35=0|49=LVMDG|56=BOGCURNCY|34=397|52=20150521-17:53:10|10=001|
20150521-17:53:55.251: 8=FIX.4.4|9=59|35=0|34=396|49=BOGCURNCY|52=20150521-17:53:55.251|56=LVMDG|10=115|
20150521-17:54:10.361: 8=FIX.4.4|9=0055|35=0|49=LVMDG|56=BOGCURNCY|34=398|52=20150521-17:54:10|10=003|
20150521-17:54:55.251: 8=FIX.4.4|9=59|35=0|34=397|49=BOGCURNCY|52=20150521-17:54:55.251|56=LVMDG|10=117|
20150521-17:55:10.362: 8=FIX.4.4|9=0055|35=0|49=LVMDG|56=BOGCURNCY|34=399|52=20150521-17:55:10|10=005|
20150521-17:55:55.251: 8=FIX.4.4|9=59|35=0|34=398|49=BOGCURNCY|52=20150521-17:55:55.251|56=LVMDG|10=119|
20150521-17:56:10.361: 8=FIX.4.4|9=0055|35=0|49=LVMDG|56=BOGCURNCY|34=400|52=20150521-17:56:10|10=245|
20150521-17:56:56.251: 8=FIX.4.4|9=59|35=0|34=399|49=BOGCURNCY|52=20150521-17:56:56.251|56=LVMDG|10=122|
20150521-17:57:10.362: 8=FIX.4.4|9=0055|35=0|49=LVMDG|56=BOGCURNCY|34=401|52=20150521-17:57:10|10=247|
20150521-17:57:57.251: 8=FIX.4.4|9=59|35=0|34=400|49=BOGCURNCY|52=20150521-17:57:57.251|56=LVMDG|10=107|
20150521-17:58:10.362: 8=FIX.4.4|9=0055|35=0|49=LVMDG|56=BOGCURNCY|34=402|52=20150521-17:58:10|10=249|
20150521-17:58:57.251: 8=FIX.4.4|9=59|35=0|34=401|49=BOGCURNCY|52=20150521-17:58:57.251|56=LVMDG|10=109|
20150521-17:59:10.362: 8=FIX.4.4|9=0055|35=0|49=LVMDG|56=BOGCURNCY|34=403|52=20150521-17:59:10|10=251|
20150521-17:59:57.251: 8=FIX.4.4|9=59|35=0|34=402|49=BOGCURNCY|52=20150521-17:59:57.251|56=LVMDG|10=111|
20150521-18:00:10.362: 8=FIX.4.4|9=0055|35=0|49=LVMDG|56=BOGCURNCY|34=404|52=20150521-18:00:10|10=239|
20150521-18:00:57.251: 8=FIX.4.4|9=59|35=0|34=403|49=BOGCURNCY|52=20150521-18:00:57.251|56=LVMDG|10=099|
20150521-18:01:10.362: 8=FIX.4.4|9=0055|35=0|49=LVMDG|56=BOGCURNCY|34=405|52=20150521-18:01:10|10=241|
20150521-18:01:58.251: 8=FIX.4.4|9=59|35=0|34=404|49=BOGCURNCY|52=20150521-18:01:58.251|56=LVMDG|10=102|
20150521-18:02:10.362: 8=FIX.4.4|9=0055|35=0|49=LVMDG|56=BOGCURNCY|34=406|52=20150521-18:02:10|10=243|
20150521-18:02:58.251: 8=FIX.4.4|9=59|35=0|34=405|49=BOGCURNCY|52=20150521-18:02:58.251|56=LVMDG|10=104|
20150521-18:03:10.362: 8=FIX.4.4|9=0055|35=0|49=LVMDG|56=BOGCURNCY|34=407|52=20150521-18:03:10|10=245|
20150521-18:03:59.251: 8=FIX.4.4|9=59|35=0|34=406|49=BOGCURNCY|52=20150521-18:03:59.251|56=LVMDG|10=107|
20150521-18:04:10.363: 8=FIX.4.4|9=0055|35=0|49=LVMDG|56=BOGCURNCY|34=408|52=20150521-18:04:10|10=247|
20150521-18:04:59.251: 8=FIX.4.4|9=59|35=0|34=407|49=BOGCURNCY|52=20150521-18:04:59.251|56=LVMDG|10=109|
20150521-18:05:10.363: 8=FIX.4.4|9=0055|35=0|49=LVMDG|56=BOGCURNCY|34=409|52=20150521-18:05:10|10=249|
20150521-18:06:00.251: 8=FIX.4.4|9=59|35=0|34=408|49=BOGCURNCY|52=20150521-18:06:00.251|56=LVMDG|10=098|
20150521-18:06:10.362: 8=FIX.4.4|9=0055|35=0|49=LVMDG|56=BOGCURNCY|34=410|52=20150521-18:06:10|10=242|
20150521-18:07:00.251: 8=FIX.4.4|9=59|35=0|34=409|49=BOGCURNCY|52=20150521-18:07:00.251|56=LVMDG|10=100|
20150521-18:07:10.363: 8=FIX.4.4|9=0055|35=0|49=LVMDG|56=BOGCURNCY|34=411|52=20150521-18:07:10|10=244|
20150521-18:08:00.251: 8=FIX.4.4|9=59|35=0|34=410|49=BOGCURNCY|52=20150521-18:08:00.251|56=LVMDG|10=093|
20150521-18:08:10.363: 8=FIX.4.4|9=0055|35=0|49=LVMDG|56=BOGCURNCY|34=412|52=20150521-18:08:10|10=246|
20150521-18:09:00.251: 8=FIX.4.4|9=59|35=0|34=411|49=BOGCURNCY|52=20150521-18:09:00.251|56=LVMDG|10=095|
20150521-18:09:10.365: 8=FIX.4.4|9=0055|35=0|49=LVMDG|56=BOGCURNCY|34=413|52=20150521-18:09:10|10=248|
20150521-18:10:00.251: 8=FIX.4.4|9=59|35=0|34=412|49=BOGCURNCY|52=20150521-18:10:00.251|56=LVMDG|10=088|
20150521-18:10:10.364: 8=FIX.4.4|9=0055|35=0|49=LVMDG|56=BOGCURNCY|34=414|52=20150521-18:10:10|10=241|
20150521-18:11:01.251: 8=FIX.4.4|9=59|35=0|34=413|49=BOGCURNCY|52=20150521-18:11:01.251|56=LVMDG|10=091|
20150521-18:11:10.364: 8=FIX.4.4|9=0055|35=0|49=LVMDG|56=BOGCURNCY|34=415|52=20150521-18:11:10|10=243|
20150521-18:12:01.251: 8=FIX.4.4|9=59|35=0|34=414|49=BOGCURNCY|52=20150521-18:12:01.251|56=LVMDG|10=093|
20150521-18:12:10.365: 8=FIX.4.4|9=0055|35=0|49=LVMDG|56=BOGCURNCY|34=416|52=20150521-18:12:10|10=245|
20150521-18:13:01.251: 8=FIX.4.4|9=59|35=0|34=415|49=BOGCURNCY|52=20150521-18:13:01.251|56=LVMDG|10=095|
20150521-18:13:10.364: 8=FIX.4.4|9=0055|35=0|49=LVMDG|56=BOGCURNCY|34=417|52=20150521-18:13:10|10=247|
20150521-18:14:01.251: 8=FIX.4.4|9=59|35=0|34=416|49=BOGCURNCY|52=20150521-18:14:01.251|56=LVMDG|10=097|
20150521-18:14:10.364: 8=FIX.4.4|9=0055|35=0|49=LVMDG|56=BOGCURNCY|34=418|52=20150521-18:14:10|10=249|
20150521-18:15:02.251: 8=FIX.4.4|9=59|35=0|34=417|49=BOGCURNCY|52=20150521-18:15:02.251|56=LVMDG|10=100|
20150521-18:15:10.364: 8=FIX.4.4|9=0055|35=0|49=LVMDG|56=BOGCURNCY|34=419|52=20150521-18:15:10|10=251|
20150521-18:16:02.251: 8=FIX.4.4|9=59|35=0|34=418|49=BOGCURNCY|52=20150521-18:16:02.251|56=LVMDG|10=102|
20150521-18:16:10.365: 8=FIX.4.4|9=0055|35=0|49=LVMDG|56=BOGCURNCY|34=420|52=20150521-18:16:10|10=244|
20150521-18:17:02.251: 8=FIX.4.4|9=59|35=0|34=419|49=BOGCURNCY|52=20150521-18:17:02.251|56=LVMDG|10=104|
20150521-18:17:10.365: 8=FIX.4.4|9=0055|35=0|49=LVMDG|56=BOGCURNCY|34=421|52=20150521-18:17:10|10=246|
20150521-18:18:02.255: 8=FIX.4.4|9=59|35=0|34=420|49=BOGCURNCY|52=20150521-18:18:02.255|56=LVMDG|10=101|
20150521-18:18:10.365: 8=FIX.4.4|9=0055|35=0|49=LVMDG|56=BOGCURNCY|34=422|52=20150521-18:18:10|10=248|
20150521-18:19:03.251: 8=FIX.4.4|9=59|35=0|34=421|49=BOGCURNCY|52=20150521-18:19:03.251|56=LVMDG|10=100|
20150521-18:19:10.365: 8=FIX.4.4|9=0055|35=0|49=LVMDG|56=BOGCURNCY|34=423|52=20150521-18:19:10|10=250|
20150521-18:20:03.251: 8=FIX.4.4|9=59|35=0|34=422|49=BOGCURNCY|52=20150521-18:20:03.251|56=LVMDG|10=093|
20150521-18:20:10.366: 8=FIX.4.4|9=0055|35=0|49=LVMDG|56=BOGCURNCY|34=424|52=20150521-18:20:10|10=243|
20150521-18:21:03.251: 8=FIX.4.4|9=59|35=0|34=423|49=BOGCURNCY|52=20150521-18:21:03.251|56=LVMDG|10=095|
20150521-18:21:10.366: 8=FIX.4.4|9=0055|35=0|49=LVMDG|56=BOGCURNCY|34=425|52=20150521-18:21:10|10=245|
20150521-18:22:04.251: 8=FIX.4.4|9=59|35=0|34=424|49=BOGCURNCY|52=20150521-18:22:04.251|56=LVMDG|10=098|
20150521-18:22:10.365: 8=FIX.4.4|9=0055|35=0|49=LVMDG|56=BOGCURNCY|34=426|52=20150521-18:22:10|10=247|
20150521-18:23:04.251: 8=FIX.4.4|9=59|35=0|34=425|49=BOGCURNCY|52=20150521-18:23:04.251|56=LVMDG|10=100|
20150521-18:23:10.366: 8=FIX.4.4|9=0055|35=0|49=LVMDG|56=BOGCURNCY|34=427|52=20150521-18:23:10|10=249|
20150521-18:24:04.251: 8=FIX.4.4|9=59|35=0|34=426|49=BOGCURNCY|52=20150521-18:24:04.251|56=LVMDG|10=102|
20150521-18:24:10.367: 8=FIX.4.4|9=0055|35=0|49=LVMDG|56=BOGCURNCY|34=428|52=20150521-18:24:10|10=251|
20150521-18:25:04.251: 8=FIX.4.4|9=59|35=0|34=427|49=BOGCURNCY|52=20150521-18:25:04.251|56=LVMDG|10=104|
20150521-18:25:10.367: 8=FIX.4.4|9=0055|35=0|49=LVMDG|56=BOGCURNCY|34=429|52=20150521-18:25:10|10=253|
20150521-18:26:04.251: 8=FIX.4.4|9=59|35=0|34=428|49=BOGCURNCY|52=20150521-18:26:04.251|56=LVMDG|10=106|
20150521-18:26:10.368: 8=FIX.4.4|9=0055|35=0|49=LVMDG|56=BOGCURNCY|34=430|52=20150521-18:26:10|10=246|
20150521-18:27:04.251: 8=FIX.4.4|9=59|35=0|34=429|49=BOGCURNCY|52=20150521-18:27:04.251|56=LVMDG|10=108|
20150521-18:27:10.368: 8=FIX.4.4|9=0055|35=0|49=LVMDG|56=BOGCURNCY|34=431|52=20150521-18:27:10|10=248|
20150521-18:28:04.251: 8=FIX.4.4|9=59|35=0|34=430|49=BOGCURNCY|52=20150521-18:28:04.251|56=LVMDG|10=101|
20150521-18:28:10.368: 8=FIX.4.4|9=0055|35=0|49=LVMDG|56=BOGCURNCY|34=432|52=20150521-18:28:10|10=250|
20150521-18:29:04.251: 8=FIX.4.4|9=59|35=0|34=431|49=BOGCURNCY|52=20150521-18:29:04.251|56=LVMDG|10=103|
20150521-18:29:10.368: 8=FIX.4.4|9=0055|35=0|49=LVMDG|56=BOGCURNCY|34=433|52=20150521-18:29:10|10=252|
20150521-18:30:04.251: 8=FIX.4.4|9=59|35=0|34=432|49=BOGCURNCY|52=20150521-18:30:04.251|56=LVMDG|10=096|
20150521-18:30:10.383: 8=FIX.4.4|9=0055|35=0|49=LVMDG|56=BOGCURNCY|34=434|52=20150521-18:30:10|10=245|
20150521-18:31:04.251: 8=FIX.4.4|9=59|35=0|34=433|49=BOGCURNCY|52=20150521-18:31:04.251|56=LVMDG|10=098|
20150521-18:31:10.381: 8=FIX.4.4|9=0055|35=0|49=LVMDG|56=BOGCURNCY|34=435|52=20150521-18:31:10|10=247|
20150521-18:32:04.251: 8=FIX.4.4|9=59|35=0|34=434|49=BOGCURNCY|52=20150521-18:32:04.251|56=LVMDG|10=100|
20150521-18:32:10.385: 8=FIX.4.4|9=0055|35=0|49=LVMDG|56=BOGCURNCY|34=436|52=20150521-18:32:10|10=249|
20150521-18:33:04.251: 8=FIX.4.4|9=59|35=0|34=435|49=BOGCURNCY|52=20150521-18:33:04.251|56=LVMDG|10=102|
20150521-18:33:10.373: 8=FIX.4.4|9=0055|35=0|49=LVMDG|56=BOGCURNCY|34=437|52=20150521-18:33:10|10=251|
20150521-18:34:04.251: 8=FIX.4.4|9=59|35=0|34=436|49=BOGCURNCY|52=20150521-18:34:04.251|56=LVMDG|10=104|
20150521-18:34:10.379: 8=FIX.4.4|9=0055|35=0|49=LVMDG|56=BOGCURNCY|34=438|52=20150521-18:34:10|10=253|
20150521-18:35:05.251: 8=FIX.4.4|9=59|35=0|34=437|49=BOGCURNCY|52=20150521-18:35:05.251|56=LVMDG|10=107|
20150521-18:35:10.369: 8=FIX.4.4|9=0055|35=0|49=LVMDG|56=BOGCURNCY|34=439|52=20150521-18:35:10|10=255|
20150521-18:36:05.251: 8=FIX.4.4|9=59|35=0|34=438|49=BOGCURNCY|52=20150521-18:36:05.251|56=LVMDG|10=109|
20150521-18:36:10.369: 8=FIX.4.4|9=0055|35=0|49=LVMDG|56=BOGCURNCY|34=440|52=20150521-18:36:10|10=248|
20150521-18:37:05.251: 8=FIX.4.4|9=59|35=0|34=439|49=BOGCURNCY|52=20150521-18:37:05.251|56=LVMDG|10=111|
20150521-18:37:10.369: 8=FIX.4.4|9=0055|35=0|49=LVMDG|56=BOGCURNCY|34=441|52=20150521-18:37:10|10=250|
20150521-18:38:05.251: 8=FIX.4.4|9=59|35=0|34=440|49=BOGCURNCY|52=20150521-18:38:05.251|56=LVMDG|10=104|
20150521-18:38:10.370: 8=FIX.4.4|9=0055|35=0|49=LVMDG|56=BOGCURNCY|34=442|52=20150521-18:38:10|10=252|
20150521-18:39:05.251: 8=FIX.4.4|9=59|35=0|34=441|49=BOGCURNCY|52=20150521-18:39:05.251|56=LVMDG|10=106|
20150521-18:39:10.371: 8=FIX.4.4|9=0055|35=0|49=LVMDG|56=BOGCURNCY|34=443|52=20150521-18:39:10|10=254|
20150521-18:40:05.251: 8=FIX.4.4|9=59|35=0|34=442|49=BOGCURNCY|52=20150521-18:40:05.251|56=LVMDG|10=099|
20150521-18:40:10.370: 8=FIX.4.4|9=0055|35=0|49=LVMDG|56=BOGCURNCY|34=444|52=20150521-18:40:10|10=247|
20150521-18:41:05.251: 8=FIX.4.4|9=59|35=0|34=443|49=BOGCURNCY|52=20150521-18:41:05.251|56=LVMDG|10=101|
20150521-18:41:10.370: 8=FIX.4.4|9=0055|35=0|49=LVMDG|56=BOGCURNCY|34=445|52=20150521-18:41:10|10=249|
20150521-18:42:05.251: 8=FIX.4.4|9=59|35=0|34=444|49=BOGCURNCY|52=20150521-18:42:05.251|56=LVMDG|10=103|
20150521-18:42:10.371: 8=FIX.4.4|9=0055|35=0|49=LVMDG|56=BOGCURNCY|34=446|52=20150521-18:42:10|10=251|
20150521-18:43:06.251: 8=FIX.4.4|9=59|35=0|34=445|49=BOGCURNCY|52=20150521-18:43:06.251|56=LVMDG|10=106|
20150521-18:43:10.371: 8=FIX.4.4|9=0055|35=0|49=LVMDG|56=BOGCURNCY|34=447|52=20150521-18:43:10|10=253|
20150521-18:44:07.251: 8=FIX.4.4|9=59|35=0|34=446|49=BOGCURNCY|52=20150521-18:44:07.251|56=LVMDG|10=109|
20150521-18:44:10.381: 8=FIX.4.4|9=0055|35=0|49=LVMDG|56=BOGCURNCY|34=448|52=20150521-18:44:10|10=255|
20150521-18:45:07.251: 8=FIX.4.4|9=59|35=0|34=447|49=BOGCURNCY|52=20150521-18:45:07.251|56=LVMDG|10=111|
20150521-18:45:10.371: 8=FIX.4.4|9=0055|35=0|49=LVMDG|56=BOGCURNCY|34=449|52=20150521-18:45:10|10=001|
20150521-18:46:07.251: 8=FIX.4.4|9=59|35=0|34=448|49=BOGCURNCY|52=20150521-18:46:07.251|56=LVMDG|10=113|
20150521-18:46:10.372: 8=FIX.4.4|9=0055|35=0|49=LVMDG|56=BOGCURNCY|34=450|52=20150521-18:46:10|10=250|
20150521-18:47:07.251: 8=FIX.4.4|9=59|35=0|34=449|49=BOGCURNCY|52=20150521-18:47:07.251|56=LVMDG|10=115|
20150521-18:47:10.373: 8=FIX.4.4|9=0055|35=0|49=LVMDG|56=BOGCURNCY|34=451|52=20150521-18:47:10|10=252|
20150521-18:48:08.251: 8=FIX.4.4|9=59|35=0|34=450|49=BOGCURNCY|52=20150521-18:48:08.251|56=LVMDG|10=109|
20150521-18:48:10.372: 8=FIX.4.4|9=0055|35=0|49=LVMDG|56=BOGCURNCY|34=452|52=20150521-18:48:10|10=254|
20150521-18:49:08.251: 8=FIX.4.4|9=59|35=0|34=451|49=BOGCURNCY|52=20150521-18:49:08.251|56=LVMDG|10=111|
20150521-18:49:10.372: 8=FIX.4.4|9=0055|35=0|49=LVMDG|56=BOGCURNCY|34=453|52=20150521-18:49:10|10=000|
20150521-18:50:09.251: 8=FIX.4.4|9=59|35=0|34=452|49=BOGCURNCY|52=20150521-18:50:09.251|56=LVMDG|10=105|
20150521-18:50:10.372: 8=FIX.4.4|9=0055|35=0|49=LVMDG|56=BOGCURNCY|34=454|52=20150521-18:50:10|10=249|
20150521-18:51:09.251: 8=FIX.4.4|9=59|35=0|34=453|49=BOGCURNCY|52=20150521-18:51:09.251|56=LVMDG|10=107|
20150521-18:51:10.373: 8=FIX.4.4|9=0055|35=0|49=LVMDG|56=BOGCURNCY|34=455|52=20150521-18:51:10|10=251|
20150521-18:52:09.251: 8=FIX.4.4|9=59|35=0|34=454|49=BOGCURNCY|52=20150521-18:52:09.251|56=LVMDG|10=109|
20150521-18:52:10.372: 8=FIX.4.4|9=0055|35=0|49=LVMDG|56=BOGCURNCY|34=456|52=20150521-18:52:10|10=253|
20150521-18:53:09.251: 8=FIX.4.4|9=59|35=0|34=455|49=BOGCURNCY|52=20150521-18:53:09.251|56=LVMDG|10=111|
20150521-18:53:10.373: 8=FIX.4.4|9=0055|35=0|49=LVMDG|56=BOGCURNCY|34=457|52=20150521-18:53:10|10=255|
20150521-18:54:09.251: 8=FIX.4.4|9=59|35=0|34=456|49=BOGCURNCY|52=20150521-18:54:09.251|56=LVMDG|10=113|
20150521-18:54:10.373: 8=FIX.4.4|9=0055|35=0|49=LVMDG|56=BOGCURNCY|34=458|52=20150521-18:54:10|10=001|
20150521-18:55:09.251: 8=FIX.4.4|9=59|35=0|34=457|49=BOGCURNCY|52=20150521-18:55:09.251|56=LVMDG|10=115|
20150521-18:55:10.374: 8=FIX.4.4|9=0055|35=0|49=LVMDG|56=BOGCURNCY|34=459|52=20150521-18:55:10|10=003|
20150521-18:56:09.251: 8=FIX.4.4|9=59|35=0|34=458|49=BOGCURNCY|52=20150521-18:56:09.251|56=LVMDG|10=117|
20150521-18:56:10.374: 8=FIX.4.4|9=0055|35=0|49=LVMDG|56=BOGCURNCY|34=460|52=20150521-18:56:10|10=252|
20150521-18:57:09.251: 8=FIX.4.4|9=59|35=0|34=459|49=BOGCURNCY|52=20150521-18:57:09.251|56=LVMDG|10=119|
20150521-18:57:10.373: 8=FIX.4.4|9=0055|35=0|49=LVMDG|56=BOGCURNCY|34=461|52=20150521-18:57:10|10=254|
20150521-18:58:09.251: 8=FIX.4.4|9=59|35=0|34=460|49=BOGCURNCY|52=20150521-18:58:09.251|56=LVMDG|10=112|
20150521-18:58:10.373: 8=FIX.4.4|9=0055|35=0|49=LVMDG|56=BOGCURNCY|34=462|52=20150521-18:58:10|10=000|
20150521-18:59:09.251: 8=FIX.4.4|9=59|35=0|34=461|49=BOGCURNCY|52=20150521-18:59:09.251|56=LVMDG|10=114|
20150521-18:59:10.373: 8=FIX.4.4|9=0055|35=0|49=LVMDG|56=BOGCURNCY|34=463|52=20150521-18:59:10|10=002|
20150521-19:00:09.251: 8=FIX.4.4|9=59|35=0|34=462|49=BOGCURNCY|52=20150521-19:00:09.251|56=LVMDG|10=102|
20150521-19:00:10.373: 8=FIX.4.4|9=0055|35=0|49=LVMDG|56=BOGCURNCY|34=464|52=20150521-19:00:10|10=246|
20150521-19:01:09.251: 8=FIX.4.4|9=59|35=0|34=463|49=BOGCURNCY|52=20150521-19:01:09.251|56=LVMDG|10=104|
20150521-19:01:10.373: 8=FIX.4.4|9=0055|35=0|49=LVMDG|56=BOGCURNCY|34=465|52=20150521-19:01:10|10=248|
20150521-19:02:10.251: 8=FIX.4.4|9=59|35=0|34=464|49=BOGCURNCY|52=20150521-19:02:10.251|56=LVMDG|10=098|
20150521-19:02:10.373: 8=FIX.4.4|9=0055|35=0|49=LVMDG|56=BOGCURNCY|34=466|52=20150521-19:02:10|10=250|
20150521-19:03:10.251: 8=FIX.4.4|9=59|35=0|34=465|49=BOGCURNCY|52=20150521-19:03:10.251|56=LVMDG|10=100|
20150521-19:03:10.373: 8=FIX.4.4|9=0055|35=0|49=LVMDG|56=BOGCURNCY|34=467|52=20150521-19:03:10|10=252|
20150521-19:04:10.375: 8=FIX.4.4|9=0055|35=0|49=LVMDG|56=BOGCURNCY|34=468|52=20150521-19:04:10|10=254|
20150521-19:04:10.375: 8=FIX.4.4|9=59|35=0|34=466|49=BOGCURNCY|52=20150521-19:04:10.375|56=LVMDG|10=109|
20150521-19:05:10.374: 8=FIX.4.4|9=0055|35=0|49=LVMDG|56=BOGCURNCY|34=469|52=20150521-19:05:10|10=000|
20150521-19:05:11.251: 8=FIX.4.4|9=59|35=0|34=467|49=BOGCURNCY|52=20150521-19:05:11.250|56=LVMDG|10=104|
20150521-19:06:10.373: 8=FIX.4.4|9=0055|35=0|49=LVMDG|56=BOGCURNCY|34=470|52=20150521-19:06:10|10=249|
20150521-19:06:11.251: 8=FIX.4.4|9=59|35=0|34=468|49=BOGCURNCY|52=20150521-19:06:11.251|56=LVMDG|10=107|
20150521-19:07:10.373: 8=FIX.4.4|9=0055|35=0|49=LVMDG|56=BOGCURNCY|34=471|52=20150521-19:07:10|10=251|
20150521-19:07:11.251: 8=FIX.4.4|9=59|35=0|34=469|49=BOGCURNCY|52=20150521-19:07:11.251|56=LVMDG|10=109|
20150521-19:08:10.374: 8=FIX.4.4|9=0055|35=0|49=LVMDG|56=BOGCURNCY|34=472|52=20150521-19:08:10|10=253|
20150521-19:08:11.251: 8=FIX.4.4|9=59|35=0|34=470|49=BOGCURNCY|52=20150521-19:08:11.251|56=LVMDG|10=102|
20150521-19:09:10.374: 8=FIX.4.4|9=0055|35=0|49=LVMDG|56=BOGCURNCY|34=473|52=20150521-19:09:10|10=255|
20150521-19:09:11.251: 8=FIX.4.4|9=59|35=0|34=471|49=BOGCURNCY|52=20150521-19:09:11.251|56=LVMDG|10=104|
20150521-19:10:10.375: 8=FIX.4.4|9=0055|35=0|49=LVMDG|56=BOGCURNCY|34=474|52=20150521-19:10:10|10=248|
20150521-19:10:11.251: 8=FIX.4.4|9=59|35=0|34=472|49=BOGCURNCY|52=20150521-19:10:11.251|56=LVMDG|10=097|
20150521-19:11:10.386: 8=FIX.4.4|9=0055|35=0|49=LVMDG|56=BOGCURNCY|34=475|52=20150521-19:11:10|10=250|
20150521-19:11:11.251: 8=FIX.4.4|9=59|35=0|34=473|49=BOGCURNCY|52=20150521-19:11:11.251|56=LVMDG|10=099|
20150521-19:12:10.375: 8=FIX.4.4|9=0055|35=0|49=LVMDG|56=BOGCURNCY|34=476|52=20150521-19:12:10|10=252|
20150521-19:12:11.251: 8=FIX.4.4|9=59|35=0|34=474|49=BOGCURNCY|52=20150521-19:12:11.251|56=LVMDG|10=101|
20150521-19:13:10.376: 8=FIX.4.4|9=0055|35=0|49=LVMDG|56=BOGCURNCY|34=477|52=20150521-19:13:10|10=254|
20150521-19:13:11.251: 8=FIX.4.4|9=59|35=0|34=475|49=BOGCURNCY|52=20150521-19:13:11.251|56=LVMDG|10=103|
20150521-19:14:10.375: 8=FIX.4.4|9=0055|35=0|49=LVMDG|56=BOGCURNCY|34=478|52=20150521-19:14:10|10=000|
20150521-19:14:11.251: 8=FIX.4.4|9=59|35=0|34=476|49=BOGCURNCY|52=20150521-19:14:11.251|56=LVMDG|10=105|
20150521-19:15:10.376: 8=FIX.4.4|9=0055|35=0|49=LVMDG|56=BOGCURNCY|34=479|52=20150521-19:15:10|10=002|
20150521-19:15:11.251: 8=FIX.4.4|9=59|35=0|34=477|49=BOGCURNCY|52=20150521-19:15:11.251|56=LVMDG|10=107|
20150521-19:16:10.375: 8=FIX.4.4|9=0055|35=0|49=LVMDG|56=BOGCURNCY|34=480|52=20150521-19:16:10|10=251|
20150521-19:16:11.251: 8=FIX.4.4|9=59|35=0|34=478|49=BOGCURNCY|52=20150521-19:16:11.251|56=LVMDG|10=109|
20150521-19:17:10.375: 8=FIX.4.4|9=0055|35=0|49=LVMDG|56=BOGCURNCY|34=481|52=20150521-19:17:10|10=253|
20150521-19:17:11.251: 8=FIX.4.4|9=59|35=0|34=479|49=BOGCURNCY|52=20150521-19:17:11.251|56=LVMDG|10=111|
20150521-19:18:10.375: 8=FIX.4.4|9=0055|35=0|49=LVMDG|56=BOGCURNCY|34=482|52=20150521-19:18:10|10=255|
