8=FIX.4.4|9=77|35=A|34=1|49=LOGVIEWER|52=20150826-21:21:35.114|56=CLIENTE|98=0|108=60|141=Y|10=232|