20140729-10:36:14.115: 8=FIX.4.4|9=83|35=A|34=1|49=LVDEVELOP5|52=20140729-10:36:14.115|56=MKDATAFHBCS2|98=0|108=60|141=Y|10=096|
20140729-10:36:14.115: 8=FIX.4.4|9=83|35=A|34=1|49=MKDATAFHBCS2|52=20140729-10:36:14.115|56=LVDEVELOP5|98=0|108=60|141=Y|10=096|
20140729-10:37:14.148: 8=FIX.4.4|9=65|35=0|34=2|49=MKDATAFHBCS2|52=20140729-10:37:14.148|56=LVDEVELOP5|10=014|
20140729-10:37:14.148: 8=FIX.4.4|9=65|35=0|34=2|49=LVDEVELOP5|52=20140729-10:37:14.148|56=MKDATAFHBCS2|10=014|
20140729-10:38:14.169: 8=FIX.4.4|9=65|35=0|34=3|49=MKDATAFHBCS2|52=20140729-10:38:14.169|56=LVDEVELOP5|10=019|
20140729-10:38:14.169: 8=FIX.4.4|9=65|35=0|34=3|49=LVDEVELOP5|52=20140729-10:38:14.169|56=MKDATAFHBCS2|10=019|
20140729-10:39:14.179: 8=FIX.4.4|9=65|35=0|34=4|49=MKDATAFHBCS2|52=20140729-10:39:14.179|56=LVDEVELOP5|10=022|
20140729-10:39:14.179: 8=FIX.4.4|9=65|35=0|34=4|49=LVDEVELOP5|52=20140729-10:39:14.179|56=MKDATAFHBCS2|10=022|
20140729-10:40:14.181: 8=FIX.4.4|9=65|35=0|34=5|49=MKDATAFHBCS2|52=20140729-10:40:14.181|56=LVDEVELOP5|10=008|
20140729-10:40:14.181: 8=FIX.4.4|9=65|35=0|34=5|49=LVDEVELOP5|52=20140729-10:40:14.181|56=MKDATAFHBCS2|10=008|
20140729-10:41:15.101: 8=FIX.4.4|9=65|35=0|34=6|49=MKDATAFHBCS2|52=20140729-10:41:15.101|56=LVDEVELOP5|10=003|
20140729-10:41:15.101: 8=FIX.4.4|9=65|35=0|34=6|49=LVDEVELOP5|52=20140729-10:41:15.101|56=MKDATAFHBCS2|10=003|
20140729-10:42:15.147: 8=FIX.4.4|9=65|35=0|34=7|49=MKDATAFHBCS2|52=20140729-10:42:15.147|56=LVDEVELOP5|10=015|
20140729-10:42:15.147: 8=FIX.4.4|9=65|35=0|34=7|49=LVDEVELOP5|52=20140729-10:42:15.147|56=MKDATAFHBCS2|10=015|
20140729-10:43:16.059: 8=FIX.4.4|9=65|35=0|34=8|49=MKDATAFHBCS2|52=20140729-10:43:16.059|56=LVDEVELOP5|10=020|
20140729-10:43:16.059: 8=FIX.4.4|9=65|35=0|34=8|49=LVDEVELOP5|52=20140729-10:43:16.059|56=MKDATAFHBCS2|10=020|
20140729-10:44:16.122: 8=FIX.4.4|9=65|35=0|34=9|49=MKDATAFHBCS2|52=20140729-10:44:16.122|56=LVDEVELOP5|10=013|
20140729-10:44:16.122: 8=FIX.4.4|9=65|35=0|34=9|49=LVDEVELOP5|52=20140729-10:44:16.122|56=MKDATAFHBCS2|10=013|
20140729-10:45:16.151: 8=FIX.4.4|9=66|35=0|34=10|49=MKDATAFHBCS2|52=20140729-10:45:16.151|56=LVDEVELOP5|10=057|
20140729-10:45:16.151: 8=FIX.4.4|9=66|35=0|34=10|49=LVDEVELOP5|52=20140729-10:45:16.151|56=MKDATAFHBCS2|10=057|
20140729-10:46:16.180: 8=FIX.4.4|9=66|35=0|34=11|49=LVDEVELOP5|52=20140729-10:46:16.180|56=MKDATAFHBCS2|10=061|
20140729-10:46:16.180: 8=FIX.4.4|9=66|35=0|34=11|49=MKDATAFHBCS2|52=20140729-10:46:16.180|56=LVDEVELOP5|10=061|
20140729-10:47:16.187: 8=FIX.4.4|9=66|35=0|34=12|49=MKDATAFHBCS2|52=20140729-10:47:16.187|56=LVDEVELOP5|10=070|
20140729-10:47:16.187: 8=FIX.4.4|9=66|35=0|34=12|49=LVDEVELOP5|52=20140729-10:47:16.187|56=MKDATAFHBCS2|10=070|
20140729-10:48:17.098: 8=FIX.4.4|9=66|35=0|34=13|49=MKDATAFHBCS2|52=20140729-10:48:17.098|56=LVDEVELOP5|10=074|
20140729-10:48:17.098: 8=FIX.4.4|9=66|35=0|34=13|49=LVDEVELOP5|52=20140729-10:48:17.098|56=MKDATAFHBCS2|10=074|
20140729-10:49:17.141: 8=FIX.4.4|9=66|35=0|34=14|49=MKDATAFHBCS2|52=20140729-10:49:17.141|56=LVDEVELOP5|10=065|
20140729-10:49:17.141: 8=FIX.4.4|9=66|35=0|34=14|49=LVDEVELOP5|52=20140729-10:49:17.141|56=MKDATAFHBCS2|10=065|
20140729-10:50:17.160: 8=FIX.4.4|9=66|35=0|34=15|49=MKDATAFHBCS2|52=20140729-10:50:17.160|56=LVDEVELOP5|10=059|
20140729-10:50:17.160: 8=FIX.4.4|9=66|35=0|34=15|49=LVDEVELOP5|52=20140729-10:50:17.160|56=MKDATAFHBCS2|10=059|
20140729-10:51:17.169: 8=FIX.4.4|9=66|35=0|34=16|49=MKDATAFHBCS2|52=20140729-10:51:17.169|56=LVDEVELOP5|10=070|
20140729-10:51:17.169: 8=FIX.4.4|9=66|35=0|34=16|49=LVDEVELOP5|52=20140729-10:51:17.169|56=MKDATAFHBCS2|10=070|
20140729-10:52:17.187: 8=FIX.4.4|9=66|35=0|34=17|49=LVDEVELOP5|52=20140729-10:52:17.187|56=MKDATAFHBCS2|10=072|
20140729-10:52:17.187: 8=FIX.4.4|9=66|35=0|34=17|49=MKDATAFHBCS2|52=20140729-10:52:17.187|56=LVDEVELOP5|10=072|
20140729-10:53:18.100: 8=FIX.4.4|9=66|35=0|34=18|49=MKDATAFHBCS2|52=20140729-10:53:18.100|56=LVDEVELOP5|10=060|
20140729-10:53:18.100: 8=FIX.4.4|9=66|35=0|34=18|49=LVDEVELOP5|52=20140729-10:53:18.100|56=MKDATAFHBCS2|10=060|
20140729-10:54:18.141: 8=FIX.4.4|9=66|35=0|34=19|49=MKDATAFHBCS2|52=20140729-10:54:18.141|56=LVDEVELOP5|10=067|
20140729-10:54:18.141: 8=FIX.4.4|9=66|35=0|34=19|49=LVDEVELOP5|52=20140729-10:54:18.141|56=MKDATAFHBCS2|10=067|
20140729-10:55:18.161: 8=FIX.4.4|9=66|35=0|34=20|49=MKDATAFHBCS2|52=20140729-10:55:18.161|56=LVDEVELOP5|10=062|
20140729-10:55:18.161: 8=FIX.4.4|9=66|35=0|34=20|49=LVDEVELOP5|52=20140729-10:55:18.161|56=MKDATAFHBCS2|10=062|
20140729-10:56:18.172: 8=FIX.4.4|9=66|35=0|34=21|49=MKDATAFHBCS2|52=20140729-10:56:18.172|56=LVDEVELOP5|10=066|
20140729-10:56:18.172: 8=FIX.4.4|9=66|35=0|34=21|49=LVDEVELOP5|52=20140729-10:56:18.172|56=MKDATAFHBCS2|10=066|
20140729-10:57:18.173: 8=FIX.4.4|9=66|35=0|34=22|49=MKDATAFHBCS2|52=20140729-10:57:18.173|56=LVDEVELOP5|10=069|
20140729-10:57:18.173: 8=FIX.4.4|9=66|35=0|34=22|49=LVDEVELOP5|52=20140729-10:57:18.173|56=MKDATAFHBCS2|10=069|
20140729-10:58:19.103: 8=FIX.4.4|9=66|35=0|34=23|49=MKDATAFHBCS2|52=20140729-10:58:19.103|56=LVDEVELOP5|10=065|
20140729-10:58:19.103: 8=FIX.4.4|9=66|35=0|34=23|49=LVDEVELOP5|52=20140729-10:58:19.103|56=MKDATAFHBCS2|10=065|
20140729-10:59:19.143: 8=FIX.4.4|9=66|35=0|34=24|49=MKDATAFHBCS2|52=20140729-10:59:19.143|56=LVDEVELOP5|10=071|
20140729-10:59:19.143: 8=FIX.4.4|9=66|35=0|34=24|49=LVDEVELOP5|52=20140729-10:59:19.143|56=MKDATAFHBCS2|10=071|
20140729-11:00:20.076: 8=FIX.4.4|9=66|35=0|34=25|49=MKDATAFHBCS2|52=20140729-11:00:20.076|56=LVDEVELOP5|10=056|
20140729-11:00:20.076: 8=FIX.4.4|9=66|35=0|34=25|49=LVDEVELOP5|52=20140729-11:00:20.076|56=MKDATAFHBCS2|10=056|
20140729-11:01:20.124: 8=FIX.4.4|9=66|35=0|34=26|49=MKDATAFHBCS2|52=20140729-11:01:20.124|56=LVDEVELOP5|10=052|
20140729-11:01:20.124: 8=FIX.4.4|9=66|35=0|34=26|49=LVDEVELOP5|52=20140729-11:01:20.124|56=MKDATAFHBCS2|10=052|
20140729-11:02:20.147: 8=FIX.4.4|9=66|35=0|34=27|49=MKDATAFHBCS2|52=20140729-11:02:20.147|56=LVDEVELOP5|10=059|
20140729-11:02:20.147: 8=FIX.4.4|9=66|35=0|34=27|49=LVDEVELOP5|52=20140729-11:02:20.147|56=MKDATAFHBCS2|10=059|
20140729-11:03:20.173: 8=FIX.4.4|9=66|35=0|34=28|49=LVDEVELOP5|52=20140729-11:03:20.173|56=MKDATAFHBCS2|10=060|
20140729-11:03:20.173: 8=FIX.4.4|9=66|35=0|34=28|49=MKDATAFHBCS2|52=20140729-11:03:20.173|56=LVDEVELOP5|10=060|
20140729-11:04:20.176: 8=FIX.4.4|9=66|35=0|34=29|49=LVDEVELOP5|52=20140729-11:04:20.176|56=MKDATAFHBCS2|10=065|
20140729-11:04:20.176: 8=FIX.4.4|9=66|35=0|34=29|49=MKDATAFHBCS2|52=20140729-11:04:20.176|56=LVDEVELOP5|10=065|
20140729-11:05:21.116: 8=FIX.4.4|9=66|35=0|34=30|49=LVDEVELOP5|52=20140729-11:05:21.116|56=MKDATAFHBCS2|10=053|
20140729-11:05:21.116: 8=FIX.4.4|9=66|35=0|34=30|49=MKDATAFHBCS2|52=20140729-11:05:21.116|56=LVDEVELOP5|10=053|
20140729-11:06:21.150: 8=FIX.4.4|9=66|35=0|34=31|49=LVDEVELOP5|52=20140729-11:06:21.150|56=MKDATAFHBCS2|10=053|
20140729-11:06:21.150: 8=FIX.4.4|9=66|35=0|34=31|49=MKDATAFHBCS2|52=20140729-11:06:21.150|56=LVDEVELOP5|10=053|
20140729-11:07:21.150: 8=FIX.4.4|9=66|35=0|34=32|49=MKDATAFHBCS2|52=20140729-11:07:21.150|56=LVDEVELOP5|10=055|
20140729-11:07:21.150: 8=FIX.4.4|9=66|35=0|34=32|49=LVDEVELOP5|52=20140729-11:07:21.150|56=MKDATAFHBCS2|10=055|
20140729-11:08:21.158: 8=FIX.4.4|9=66|35=0|34=33|49=MKDATAFHBCS2|52=20140729-11:08:21.158|56=LVDEVELOP5|10=065|
20140729-11:08:21.158: 8=FIX.4.4|9=66|35=0|34=33|49=LVDEVELOP5|52=20140729-11:08:21.158|56=MKDATAFHBCS2|10=065|
20140729-11:09:21.176: 8=FIX.4.4|9=66|35=0|34=34|49=LVDEVELOP5|52=20140729-11:09:21.176|56=MKDATAFHBCS2|10=067|
20140729-11:09:21.176: 8=FIX.4.4|9=66|35=0|34=34|49=MKDATAFHBCS2|52=20140729-11:09:21.176|56=LVDEVELOP5|10=067|
20140729-11:10:22.118: 8=FIX.4.4|9=66|35=0|34=35|49=LVDEVELOP5|52=20140729-11:10:22.118|56=MKDATAFHBCS2|10=057|
20140729-11:10:22.118: 8=FIX.4.4|9=66|35=0|34=35|49=MKDATAFHBCS2|52=20140729-11:10:22.118|56=LVDEVELOP5|10=057|
20140729-11:11:22.152: 8=FIX.4.4|9=66|35=0|34=36|49=LVDEVELOP5|52=20140729-11:11:22.152|56=MKDATAFHBCS2|10=057|
20140729-11:11:22.152: 8=FIX.4.4|9=66|35=0|34=36|49=MKDATAFHBCS2|52=20140729-11:11:22.152|56=LVDEVELOP5|10=057|
20140729-11:12:22.168: 8=FIX.4.4|9=66|35=0|34=37|49=LVDEVELOP5|52=20140729-11:12:22.168|56=MKDATAFHBCS2|10=066|
20140729-11:12:22.168: 8=FIX.4.4|9=66|35=0|34=37|49=MKDATAFHBCS2|52=20140729-11:12:22.168|56=LVDEVELOP5|10=066|
20140729-11:13:22.174: 8=FIX.4.4|9=66|35=0|34=38|49=LVDEVELOP5|52=20140729-11:13:22.174|56=MKDATAFHBCS2|10=065|
20140729-11:13:22.174: 8=FIX.4.4|9=66|35=0|34=38|49=MKDATAFHBCS2|52=20140729-11:13:22.174|56=LVDEVELOP5|10=065|
20140729-11:14:22.176: 8=FIX.4.4|9=66|35=0|34=39|49=LVDEVELOP5|52=20140729-11:14:22.176|56=MKDATAFHBCS2|10=069|
20140729-11:14:22.176: 8=FIX.4.4|9=66|35=0|34=39|49=MKDATAFHBCS2|52=20140729-11:14:22.176|56=LVDEVELOP5|10=069|
20140729-11:15:23.102: 8=FIX.4.4|9=66|35=0|34=40|49=LVDEVELOP5|52=20140729-11:15:23.102|56=MKDATAFHBCS2|10=052|
20140729-11:15:23.102: 8=FIX.4.4|9=66|35=0|34=40|49=MKDATAFHBCS2|52=20140729-11:15:23.102|56=LVDEVELOP5|10=052|
20140729-11:16:23.150: 8=FIX.4.4|9=66|35=0|34=41|49=LVDEVELOP5|52=20140729-11:16:23.150|56=MKDATAFHBCS2|10=057|
20140729-11:16:23.150: 8=FIX.4.4|9=66|35=0|34=41|49=MKDATAFHBCS2|52=20140729-11:16:23.150|56=LVDEVELOP5|10=057|
20140729-11:17:24.084: 8=FIX.4.4|9=66|35=0|34=42|49=LVDEVELOP5|52=20140729-11:17:24.084|56=MKDATAFHBCS2|10=066|
20140729-11:17:24.084: 8=FIX.4.4|9=66|35=0|34=42|49=MKDATAFHBCS2|52=20140729-11:17:24.084|56=LVDEVELOP5|10=066|
20140729-11:18:24.128: 8=FIX.4.4|9=66|35=0|34=43|49=LVDEVELOP5|52=20140729-11:18:24.128|56=MKDATAFHBCS2|10=067|
20140729-11:18:24.128: 8=FIX.4.4|9=66|35=0|34=43|49=MKDATAFHBCS2|52=20140729-11:18:24.128|56=LVDEVELOP5|10=067|
20140729-11:19:24.149: 8=FIX.4.4|9=66|35=0|34=44|49=LVDEVELOP5|52=20140729-11:19:24.149|56=MKDATAFHBCS2|10=072|
20140729-11:19:24.149: 8=FIX.4.4|9=66|35=0|34=44|49=MKDATAFHBCS2|52=20140729-11:19:24.149|56=LVDEVELOP5|10=072|
20140729-11:20:24.158: 8=FIX.4.4|9=66|35=0|34=45|49=LVDEVELOP5|52=20140729-11:20:24.158|56=MKDATAFHBCS2|10=065|
20140729-11:20:24.158: 8=FIX.4.4|9=66|35=0|34=45|49=MKDATAFHBCS2|52=20140729-11:20:24.158|56=LVDEVELOP5|10=065|
20140729-11:21:24.161: 8=FIX.4.4|9=66|35=0|34=46|49=LVDEVELOP5|52=20140729-11:21:24.161|56=MKDATAFHBCS2|10=061|
20140729-11:21:24.161: 8=FIX.4.4|9=66|35=0|34=46|49=MKDATAFHBCS2|52=20140729-11:21:24.161|56=LVDEVELOP5|10=061|
20140729-11:22:25.015: 8=FIX.4.4|9=66|35=0|34=47|49=MKDATAFHBCS2|52=20140729-11:22:25.015|56=LVDEVELOP5|10=062|
20140729-11:22:25.015: 8=FIX.4.4|9=66|35=0|34=47|49=LVDEVELOP5|52=20140729-11:22:25.015|56=MKDATAFHBCS2|10=062|
20140729-11:23:25.124: 8=FIX.4.4|9=66|35=0|34=48|49=MKDATAFHBCS2|52=20140729-11:23:25.124|56=LVDEVELOP5|10=065|
20140729-11:23:25.124: 8=FIX.4.4|9=66|35=0|34=48|49=LVDEVELOP5|52=20140729-11:23:25.124|56=MKDATAFHBCS2|10=065|
20140729-11:24:25.138: 8=FIX.4.4|9=66|35=0|34=49|49=MKDATAFHBCS2|52=20140729-11:24:25.138|56=LVDEVELOP5|10=072|
20140729-11:24:25.138: 8=FIX.4.4|9=66|35=0|34=49|49=LVDEVELOP5|52=20140729-11:24:25.138|56=MKDATAFHBCS2|10=072|
20140729-11:25:25.160: 8=FIX.4.4|9=66|35=0|34=50|49=LVDEVELOP5|52=20140729-11:25:25.160|56=MKDATAFHBCS2|10=060|
20140729-11:25:25.160: 8=FIX.4.4|9=66|35=0|34=50|49=MKDATAFHBCS2|52=20140729-11:25:25.160|56=LVDEVELOP5|10=060|
20140729-11:26:25.161: 8=FIX.4.4|9=66|35=0|34=51|49=LVDEVELOP5|52=20140729-11:26:25.161|56=MKDATAFHBCS2|10=063|
20140729-11:26:25.161: 8=FIX.4.4|9=66|35=0|34=51|49=MKDATAFHBCS2|52=20140729-11:26:25.161|56=LVDEVELOP5|10=063|
20140729-11:27:26.111: 8=FIX.4.4|9=66|35=0|34=52|49=LVDEVELOP5|52=20140729-11:27:26.111|56=MKDATAFHBCS2|10=061|
20140729-11:27:26.111: 8=FIX.4.4|9=66|35=0|34=52|49=MKDATAFHBCS2|52=20140729-11:27:26.111|56=LVDEVELOP5|10=061|
20140729-11:28:26.125: 8=FIX.4.4|9=66|35=0|34=53|49=MKDATAFHBCS2|52=20140729-11:28:26.125|56=LVDEVELOP5|10=068|
20140729-11:28:26.125: 8=FIX.4.4|9=66|35=0|34=53|49=LVDEVELOP5|52=20140729-11:28:26.125|56=MKDATAFHBCS2|10=068|
20140729-11:29:26.138: 8=FIX.4.4|9=66|35=0|34=54|49=MKDATAFHBCS2|52=20140729-11:29:26.138|56=LVDEVELOP5|10=074|
20140729-11:29:26.138: 8=FIX.4.4|9=66|35=0|34=54|49=LVDEVELOP5|52=20140729-11:29:26.138|56=MKDATAFHBCS2|10=074|
20140729-11:30:26.143: 8=FIX.4.4|9=66|35=0|34=55|49=MKDATAFHBCS2|52=20140729-11:30:26.143|56=LVDEVELOP5|10=063|
20140729-11:30:26.143: 8=FIX.4.4|9=66|35=0|34=55|49=LVDEVELOP5|52=20140729-11:30:26.143|56=MKDATAFHBCS2|10=063|
20140729-11:31:27.137: 8=FIX.4.4|9=66|35=0|34=56|49=LVDEVELOP5|52=20140729-11:31:27.137|56=MKDATAFHBCS2|10=069|
20140729-11:31:27.137: 8=FIX.4.4|9=66|35=0|34=56|49=MKDATAFHBCS2|52=20140729-11:31:27.137|56=LVDEVELOP5|10=069|
20140729-11:32:27.147: 8=FIX.4.4|9=66|35=0|34=57|49=LVDEVELOP5|52=20140729-11:32:27.147|56=MKDATAFHBCS2|10=072|
20140729-11:32:27.147: 8=FIX.4.4|9=66|35=0|34=57|49=MKDATAFHBCS2|52=20140729-11:32:27.147|56=LVDEVELOP5|10=072|
20140729-11:33:27.150: 8=FIX.4.4|9=66|35=0|34=58|49=LVDEVELOP5|52=20140729-11:33:27.150|56=MKDATAFHBCS2|10=068|
20140729-11:33:27.150: 8=FIX.4.4|9=66|35=0|34=58|49=MKDATAFHBCS2|52=20140729-11:33:27.150|56=LVDEVELOP5|10=068|
20140729-11:34:27.949: 8=FIX.4.4|9=66|35=0|34=59|49=MKDATAFHBCS2|52=20140729-11:34:27.949|56=LVDEVELOP5|10=086|
20140729-11:34:27.965: 8=FIX.4.4|9=66|35=0|34=59|49=LVDEVELOP5|52=20140729-11:34:27.965|56=MKDATAFHBCS2|10=084|
20140729-11:35:28.117: 8=FIX.4.4|9=66|35=0|34=60|49=MKDATAFHBCS2|52=20140729-11:35:28.117|56=LVDEVELOP5|10=067|
20140729-11:35:28.117: 8=FIX.4.4|9=66|35=0|34=60|49=LVDEVELOP5|52=20140729-11:35:28.117|56=MKDATAFHBCS2|10=067|
20140729-11:36:28.130: 8=FIX.4.4|9=66|35=0|34=61|49=MKDATAFHBCS2|52=20140729-11:36:28.130|56=LVDEVELOP5|10=064|
20140729-11:36:28.130: 8=FIX.4.4|9=66|35=0|34=61|49=LVDEVELOP5|52=20140729-11:36:28.130|56=MKDATAFHBCS2|10=064|
20140729-11:37:28.152: 8=FIX.4.4|9=66|35=0|34=62|49=LVDEVELOP5|52=20140729-11:37:28.152|56=MKDATAFHBCS2|10=070|
20140729-11:37:28.152: 8=FIX.4.4|9=66|35=0|34=62|49=MKDATAFHBCS2|52=20140729-11:37:28.152|56=LVDEVELOP5|10=070|
20140729-11:38:28.154: 8=FIX.4.4|9=66|35=0|34=63|49=LVDEVELOP5|52=20140729-11:38:28.154|56=MKDATAFHBCS2|10=074|
20140729-11:38:28.154: 8=FIX.4.4|9=66|35=0|34=63|49=MKDATAFHBCS2|52=20140729-11:38:28.154|56=LVDEVELOP5|10=074|
20140729-11:39:28.239: 8=FIX.4.4|9=66|35=0|34=64|49=MKDATAFHBCS2|52=20140729-11:39:28.239|56=LVDEVELOP5|10=080|
20140729-11:39:28.239: 8=FIX.4.4|9=66|35=0|34=64|49=LVDEVELOP5|52=20140729-11:39:28.239|56=MKDATAFHBCS2|10=080|
20140729-11:40:29.139: 8=FIX.4.4|9=66|35=0|34=65|49=LVDEVELOP5|52=20140729-11:40:29.139|56=MKDATAFHBCS2|10=073|
20140729-11:40:29.139: 8=FIX.4.4|9=66|35=0|34=65|49=MKDATAFHBCS2|52=20140729-11:40:29.139|56=LVDEVELOP5|10=073|
20140729-11:41:29.150: 8=FIX.4.4|9=66|35=0|34=66|49=LVDEVELOP5|52=20140729-11:41:29.150|56=MKDATAFHBCS2|10=068|
20140729-11:41:29.150: 8=FIX.4.4|9=66|35=0|34=66|49=MKDATAFHBCS2|52=20140729-11:41:29.150|56=LVDEVELOP5|10=068|
20140729-11:42:29.154: 8=FIX.4.4|9=66|35=0|34=67|49=LVDEVELOP5|52=20140729-11:42:29.154|56=MKDATAFHBCS2|10=074|
20140729-11:42:29.154: 8=FIX.4.4|9=66|35=0|34=67|49=MKDATAFHBCS2|52=20140729-11:42:29.154|56=LVDEVELOP5|10=074|
20140729-11:43:29.155: 8=FIX.4.4|9=66|35=0|34=68|49=LVDEVELOP5|52=20140729-11:43:29.155|56=MKDATAFHBCS2|10=077|
20140729-11:43:29.155: 8=FIX.4.4|9=66|35=0|34=68|49=MKDATAFHBCS2|52=20140729-11:43:29.155|56=LVDEVELOP5|10=077|
20140729-11:44:29.803: 8=FIX.4.4|9=66|35=0|34=69|49=MKDATAFHBCS2|52=20140729-11:44:29.803|56=LVDEVELOP5|10=079|
20140729-11:44:29.803: 8=FIX.4.4|9=66|35=0|34=69|49=LVDEVELOP5|52=20140729-11:44:29.803|56=MKDATAFHBCS2|10=079|
20140729-11:45:30.124: 8=FIX.4.4|9=66|35=0|34=70|49=MKDATAFHBCS2|52=20140729-11:45:30.124|56=LVDEVELOP5|10=060|
20140729-11:45:30.124: 8=FIX.4.4|9=66|35=0|34=70|49=LVDEVELOP5|52=20140729-11:45:30.124|56=MKDATAFHBCS2|10=060|
20140729-11:46:30.151: 8=FIX.4.4|9=66|35=0|34=71|49=LVDEVELOP5|52=20140729-11:46:30.151|56=MKDATAFHBCS2|10=062|
20140729-11:46:30.151: 8=FIX.4.4|9=66|35=0|34=71|49=MKDATAFHBCS2|52=20140729-11:46:30.151|56=LVDEVELOP5|10=062|
20140729-11:47:30.155: 8=FIX.4.4|9=66|35=0|34=72|49=LVDEVELOP5|52=20140729-11:47:30.155|56=MKDATAFHBCS2|10=068|
20140729-11:47:30.155: 8=FIX.4.4|9=66|35=0|34=72|49=MKDATAFHBCS2|52=20140729-11:47:30.155|56=LVDEVELOP5|10=068|
20140729-11:48:30.283: 8=FIX.4.4|9=66|35=0|34=73|49=MKDATAFHBCS2|52=20140729-11:48:30.283|56=LVDEVELOP5|10=072|
20140729-11:48:30.283: 8=FIX.4.4|9=66|35=0|34=73|49=LVDEVELOP5|52=20140729-11:48:30.283|56=MKDATAFHBCS2|10=072|
20140729-11:49:31.145: 8=FIX.4.4|9=66|35=0|34=74|49=LVDEVELOP5|52=20140729-11:49:31.145|56=MKDATAFHBCS2|10=072|
20140729-11:49:31.145: 8=FIX.4.4|9=66|35=0|34=74|49=MKDATAFHBCS2|52=20140729-11:49:31.145|56=LVDEVELOP5|10=072|
20140729-11:50:31.146: 8=FIX.4.4|9=66|35=0|34=75|49=LVDEVELOP5|52=20140729-11:50:31.146|56=MKDATAFHBCS2|10=066|
20140729-11:50:31.146: 8=FIX.4.4|9=66|35=0|34=75|49=MKDATAFHBCS2|52=20140729-11:50:31.146|56=LVDEVELOP5|10=066|
20140729-11:51:31.160: 8=FIX.4.4|9=66|35=0|34=76|49=LVDEVELOP5|52=20140729-11:51:31.160|56=MKDATAFHBCS2|10=064|
20140729-11:51:31.160: 8=FIX.4.4|9=66|35=0|34=76|49=MKDATAFHBCS2|52=20140729-11:51:31.160|56=LVDEVELOP5|10=064|
20140729-11:52:32.155: 8=FIX.4.4|9=66|35=0|34=77|49=LVDEVELOP5|52=20140729-11:52:32.155|56=MKDATAFHBCS2|10=071|
20140729-11:52:32.155: 8=FIX.4.4|9=66|35=0|34=77|49=MKDATAFHBCS2|52=20140729-11:52:32.155|56=LVDEVELOP5|10=071|
20140729-11:53:33.141: 8=FIX.4.4|9=66|35=0|34=78|49=LVDEVELOP5|52=20140729-11:53:33.141|56=MKDATAFHBCS2|10=069|
20140729-11:53:33.141: 8=FIX.4.4|9=66|35=0|34=78|49=MKDATAFHBCS2|52=20140729-11:53:33.141|56=LVDEVELOP5|10=069|
20140729-11:54:33.144: 8=FIX.4.4|9=66|35=0|34=79|49=LVDEVELOP5|52=20140729-11:54:33.144|56=MKDATAFHBCS2|10=074|
20140729-11:54:33.144: 8=FIX.4.4|9=66|35=0|34=79|49=MKDATAFHBCS2|52=20140729-11:54:33.144|56=LVDEVELOP5|10=074|
20140729-11:55:34.141: 8=FIX.4.4|9=66|35=0|34=80|49=LVDEVELOP5|52=20140729-11:55:34.141|56=MKDATAFHBCS2|10=065|
20140729-11:55:34.141: 8=FIX.4.4|9=66|35=0|34=80|49=MKDATAFHBCS2|52=20140729-11:55:34.141|56=LVDEVELOP5|10=065|
20140729-11:56:34.153: 8=FIX.4.4|9=66|35=0|34=81|49=LVDEVELOP5|52=20140729-11:56:34.153|56=MKDATAFHBCS2|10=070|
20140729-11:56:34.153: 8=FIX.4.4|9=66|35=0|34=81|49=MKDATAFHBCS2|52=20140729-11:56:34.153|56=LVDEVELOP5|10=070|
20140729-11:57:35.148: 8=FIX.4.4|9=66|35=0|34=82|49=LVDEVELOP5|52=20140729-11:57:35.148|56=MKDATAFHBCS2|10=077|
20140729-11:57:35.148: 8=FIX.4.4|9=66|35=0|34=82|49=MKDATAFHBCS2|52=20140729-11:57:35.148|56=LVDEVELOP5|10=077|
20140729-11:58:35.290: 8=FIX.4.4|9=66|35=0|34=83|49=MKDATAFHBCS2|52=20140729-11:58:35.290|56=LVDEVELOP5|10=077|
20140729-11:58:35.290: 8=FIX.4.4|9=66|35=0|34=83|49=LVDEVELOP5|52=20140729-11:58:35.290|56=MKDATAFHBCS2|10=077|
20140729-11:59:36.135: 8=FIX.4.4|9=66|35=0|34=84|49=LVDEVELOP5|52=20140729-11:59:36.135|56=MKDATAFHBCS2|10=078|
20140729-11:59:36.135: 8=FIX.4.4|9=66|35=0|34=84|49=MKDATAFHBCS2|52=20140729-11:59:36.135|56=LVDEVELOP5|10=078|
20140729-12:00:36.197: 8=FIX.4.4|9=66|35=0|34=85|49=MKDATAFHBCS2|52=20140729-12:00:36.197|56=LVDEVELOP5|10=074|
20140729-12:00:36.197: 8=FIX.4.4|9=66|35=0|34=85|49=LVDEVELOP5|52=20140729-12:00:36.197|56=MKDATAFHBCS2|10=074|
20140729-12:01:37.147: 8=FIX.4.4|9=66|35=0|34=86|49=LVDEVELOP5|52=20140729-12:01:37.147|56=MKDATAFHBCS2|10=072|
20140729-12:01:37.147: 8=FIX.4.4|9=66|35=0|34=86|49=MKDATAFHBCS2|52=20140729-12:01:37.147|56=LVDEVELOP5|10=072|
20140729-12:02:38.127: 8=FIX.4.4|9=66|35=0|34=87|49=MKDATAFHBCS2|52=20140729-12:02:38.127|56=LVDEVELOP5|10=073|
20140729-12:02:38.127: 8=FIX.4.4|9=66|35=0|34=87|49=LVDEVELOP5|52=20140729-12:02:38.127|56=MKDATAFHBCS2|10=073|
20140729-12:03:38.130: 8=FIX.4.4|9=66|35=0|34=88|49=LVDEVELOP5|52=20140729-12:03:38.130|56=MKDATAFHBCS2|10=069|
20140729-12:03:38.130: 8=FIX.4.4|9=66|35=0|34=88|49=MKDATAFHBCS2|52=20140729-12:03:38.130|56=LVDEVELOP5|10=069|
20140729-12:04:38.132: 8=FIX.4.4|9=66|35=0|34=89|49=LVDEVELOP5|52=20140729-12:04:38.132|56=MKDATAFHBCS2|10=073|
20140729-12:04:38.132: 8=FIX.4.4|9=66|35=0|34=89|49=MKDATAFHBCS2|52=20140729-12:04:38.132|56=LVDEVELOP5|10=073|
20140729-12:05:39.059: 8=FIX.4.4|9=66|35=0|34=90|49=LVDEVELOP5|52=20140729-12:05:39.059|56=MKDATAFHBCS2|10=075|
20140729-12:05:39.059: 8=FIX.4.4|9=66|35=0|34=90|49=MKDATAFHBCS2|52=20140729-12:05:39.059|56=LVDEVELOP5|10=075|
20140729-12:06:40.033: 8=FIX.4.4|9=66|35=0|34=91|49=MKDATAFHBCS2|52=20140729-12:06:40.033|56=LVDEVELOP5|10=061|
20140729-12:06:40.033: 8=FIX.4.4|9=66|35=0|34=91|49=LVDEVELOP5|52=20140729-12:06:40.033|56=MKDATAFHBCS2|10=061|
20140729-12:07:40.077: 8=FIX.4.4|9=66|35=0|34=92|49=MKDATAFHBCS2|52=20140729-12:07:40.077|56=LVDEVELOP5|10=071|
20140729-12:07:40.077: 8=FIX.4.4|9=66|35=0|34=92|49=LVDEVELOP5|52=20140729-12:07:40.077|56=MKDATAFHBCS2|10=071|
20140729-12:08:40.098: 8=FIX.4.4|9=66|35=0|34=93|49=MKDATAFHBCS2|52=20140729-12:08:40.098|56=LVDEVELOP5|10=076|
20140729-12:08:40.098: 8=FIX.4.4|9=66|35=0|34=93|49=LVDEVELOP5|52=20140729-12:08:40.098|56=MKDATAFHBCS2|10=076|
20140729-12:09:40.107: 8=FIX.4.4|9=66|35=0|34=94|49=MKDATAFHBCS2|52=20140729-12:09:40.107|56=LVDEVELOP5|10=069|
20140729-12:09:40.107: 8=FIX.4.4|9=66|35=0|34=94|49=LVDEVELOP5|52=20140729-12:09:40.107|56=MKDATAFHBCS2|10=069|
20140729-12:10:41.041: 8=FIX.4.4|9=66|35=0|34=95|49=MKDATAFHBCS2|52=20140729-12:10:41.041|56=LVDEVELOP5|10=060|
20140729-12:10:41.041: 8=FIX.4.4|9=66|35=0|34=95|49=LVDEVELOP5|52=20140729-12:10:41.041|56=MKDATAFHBCS2|10=060|
20140729-12:11:42.040: 8=FIX.4.4|9=66|35=0|34=96|49=MKDATAFHBCS2|52=20140729-12:11:42.040|56=LVDEVELOP5|10=062|
20140729-12:11:42.040: 8=FIX.4.4|9=66|35=0|34=96|49=LVDEVELOP5|52=20140729-12:11:42.040|56=MKDATAFHBCS2|10=062|
20140729-12:12:42.079: 8=FIX.4.4|9=66|35=0|34=97|49=MKDATAFHBCS2|52=20140729-12:12:42.079|56=LVDEVELOP5|10=076|
20140729-12:12:42.079: 8=FIX.4.4|9=66|35=0|34=97|49=LVDEVELOP5|52=20140729-12:12:42.079|56=MKDATAFHBCS2|10=076|
20140729-12:13:42.097: 8=FIX.4.4|9=66|35=0|34=98|49=MKDATAFHBCS2|52=20140729-12:13:42.097|56=LVDEVELOP5|10=078|
20140729-12:13:42.097: 8=FIX.4.4|9=66|35=0|34=98|49=LVDEVELOP5|52=20140729-12:13:42.097|56=MKDATAFHBCS2|10=078|
20140729-12:14:42.105: 8=FIX.4.4|9=66|35=0|34=99|49=MKDATAFHBCS2|52=20140729-12:14:42.105|56=LVDEVELOP5|10=070|
20140729-12:14:42.105: 8=FIX.4.4|9=66|35=0|34=99|49=LVDEVELOP5|52=20140729-12:14:42.105|56=MKDATAFHBCS2|10=070|
20140729-12:15:43.035: 8=FIX.4.4|9=67|35=0|34=100|49=MKDATAFHBCS2|52=20140729-12:15:43.035|56=LVDEVELOP5|10=106|
20140729-12:15:43.035: 8=FIX.4.4|9=67|35=0|34=100|49=LVDEVELOP5|52=20140729-12:15:43.035|56=MKDATAFHBCS2|10=106|
20140729-12:16:43.042: 8=FIX.4.4|9=67|35=0|34=101|49=LVDEVELOP5|52=20140729-12:16:43.042|56=MKDATAFHBCS2|10=106|
20140729-12:16:43.042: 8=FIX.4.4|9=67|35=0|34=101|49=MKDATAFHBCS2|52=20140729-12:16:43.042|56=LVDEVELOP5|10=106|
20140729-12:17:43.080: 8=FIX.4.4|9=67|35=0|34=102|49=MKDATAFHBCS2|52=20140729-12:17:43.080|56=LVDEVELOP5|10=110|
20140729-12:17:43.080: 8=FIX.4.4|9=67|35=0|34=102|49=LVDEVELOP5|52=20140729-12:17:43.080|56=MKDATAFHBCS2|10=110|
20140729-12:18:43.097: 8=FIX.4.4|9=67|35=0|34=103|49=MKDATAFHBCS2|52=20140729-12:18:43.097|56=LVDEVELOP5|10=120|
20140729-12:18:43.097: 8=FIX.4.4|9=67|35=0|34=103|49=LVDEVELOP5|52=20140729-12:18:43.097|56=MKDATAFHBCS2|10=120|
20140729-12:19:43.104: 8=FIX.4.4|9=67|35=0|34=104|49=MKDATAFHBCS2|52=20140729-12:19:43.104|56=LVDEVELOP5|10=111|
20140729-12:19:43.104: 8=FIX.4.4|9=67|35=0|34=104|49=LVDEVELOP5|52=20140729-12:19:43.104|56=MKDATAFHBCS2|10=111|
20140729-12:20:44.032: 8=FIX.4.4|9=67|35=0|34=105|49=MKDATAFHBCS2|52=20140729-12:20:44.032|56=LVDEVELOP5|10=105|
20140729-12:20:44.032: 8=FIX.4.4|9=67|35=0|34=105|49=LVDEVELOP5|52=20140729-12:20:44.032|56=MKDATAFHBCS2|10=105|
20140729-12:21:44.042: 8=FIX.4.4|9=67|35=0|34=106|49=LVDEVELOP5|52=20140729-12:21:44.042|56=MKDATAFHBCS2|10=108|
20140729-12:21:44.042: 8=FIX.4.4|9=67|35=0|34=106|49=MKDATAFHBCS2|52=20140729-12:21:44.042|56=LVDEVELOP5|10=108|
20140729-12:22:44.997: 8=FIX.4.4|9=67|35=0|34=107|49=MKDATAFHBCS2|52=20140729-12:22:44.997|56=LVDEVELOP5|10=129|
20140729-12:22:44.997: 8=FIX.4.4|9=67|35=0|34=107|49=LVDEVELOP5|52=20140729-12:22:44.997|56=MKDATAFHBCS2|10=129|
20140729-12:23:45.007: 8=FIX.4.4|9=67|35=0|34=108|49=MKDATAFHBCS2|52=20140729-12:23:45.007|56=LVDEVELOP5|10=114|
20140729-12:23:45.007: 8=FIX.4.4|9=67|35=0|34=108|49=LVDEVELOP5|52=20140729-12:23:45.007|56=MKDATAFHBCS2|10=114|
20140729-12:24:45.058: 8=FIX.4.4|9=67|35=0|34=109|49=MKDATAFHBCS2|52=20140729-12:24:45.058|56=LVDEVELOP5|10=122|
20140729-12:24:45.058: 8=FIX.4.4|9=67|35=0|34=109|49=LVDEVELOP5|52=20140729-12:24:45.058|56=MKDATAFHBCS2|10=122|
20140729-12:25:45.081: 8=FIX.4.4|9=67|35=0|34=110|49=MKDATAFHBCS2|52=20140729-12:25:45.081|56=LVDEVELOP5|10=111|
20140729-12:25:45.081: 8=FIX.4.4|9=67|35=0|34=110|49=LVDEVELOP5|52=20140729-12:25:45.081|56=MKDATAFHBCS2|10=111|
20140729-12:26:45.091: 8=FIX.4.4|9=67|35=0|34=111|49=MKDATAFHBCS2|52=20140729-12:26:45.091|56=LVDEVELOP5|10=114|
20140729-12:26:45.091: 8=FIX.4.4|9=67|35=0|34=111|49=LVDEVELOP5|52=20140729-12:26:45.091|56=MKDATAFHBCS2|10=114|
20140729-12:27:46.024: 8=FIX.4.4|9=67|35=0|34=112|49=MKDATAFHBCS2|52=20140729-12:27:46.024|56=LVDEVELOP5|10=113|
20140729-12:27:46.024: 8=FIX.4.4|9=67|35=0|34=112|49=LVDEVELOP5|52=20140729-12:27:46.024|56=MKDATAFHBCS2|10=113|
20140729-12:28:46.038: 8=FIX.4.4|9=67|35=0|34=113|49=LVDEVELOP5|52=20140729-12:28:46.038|56=MKDATAFHBCS2|10=120|
20140729-12:28:46.038: 8=FIX.4.4|9=67|35=0|34=113|49=MKDATAFHBCS2|52=20140729-12:28:46.038|56=LVDEVELOP5|10=120|
20140729-12:29:46.072: 8=FIX.4.4|9=67|35=0|34=114|49=MKDATAFHBCS2|52=20140729-12:29:46.072|56=LVDEVELOP5|10=120|
20140729-12:29:46.072: 8=FIX.4.4|9=67|35=0|34=114|49=LVDEVELOP5|52=20140729-12:29:46.072|56=MKDATAFHBCS2|10=120|
20140729-12:30:46.087: 8=FIX.4.4|9=67|35=0|34=115|49=MKDATAFHBCS2|52=20140729-12:30:46.087|56=LVDEVELOP5|10=119|
20140729-12:30:46.087: 8=FIX.4.4|9=67|35=0|34=115|49=LVDEVELOP5|52=20140729-12:30:46.087|56=MKDATAFHBCS2|10=119|
20140729-12:31:46.093: 8=FIX.4.4|9=67|35=0|34=116|49=MKDATAFHBCS2|52=20140729-12:31:46.093|56=LVDEVELOP5|10=118|
20140729-12:31:46.093: 8=FIX.4.4|9=67|35=0|34=116|49=LVDEVELOP5|52=20140729-12:31:46.093|56=MKDATAFHBCS2|10=118|
20140729-12:32:47.024: 8=FIX.4.4|9=67|35=0|34=117|49=MKDATAFHBCS2|52=20140729-12:32:47.024|56=LVDEVELOP5|10=115|
20140729-12:32:47.024: 8=FIX.4.4|9=67|35=0|34=117|49=LVDEVELOP5|52=20140729-12:32:47.024|56=MKDATAFHBCS2|10=115|
20140729-12:33:47.025: 8=FIX.4.4|9=67|35=0|34=118|49=MKDATAFHBCS2|52=20140729-12:33:47.025|56=LVDEVELOP5|10=118|
20140729-12:33:47.025: 8=FIX.4.4|9=67|35=0|34=118|49=LVDEVELOP5|52=20140729-12:33:47.025|56=MKDATAFHBCS2|10=118|
20140729-12:34:47.072: 8=FIX.4.4|9=67|35=0|34=119|49=MKDATAFHBCS2|52=20140729-12:34:47.072|56=LVDEVELOP5|10=122|
20140729-12:34:47.072: 8=FIX.4.4|9=67|35=0|34=119|49=LVDEVELOP5|52=20140729-12:34:47.072|56=MKDATAFHBCS2|10=122|
20140729-12:35:47.086: 8=FIX.4.4|9=67|35=0|34=120|49=MKDATAFHBCS2|52=20140729-12:35:47.086|56=LVDEVELOP5|10=120|
20140729-12:35:47.086: 8=FIX.4.4|9=67|35=0|34=120|49=LVDEVELOP5|52=20140729-12:35:47.086|56=MKDATAFHBCS2|10=120|
20140729-12:36:47.092: 8=FIX.4.4|9=67|35=0|34=121|49=MKDATAFHBCS2|52=20140729-12:36:47.092|56=LVDEVELOP5|10=119|
20140729-12:36:47.092: 8=FIX.4.4|9=67|35=0|34=121|49=LVDEVELOP5|52=20140729-12:36:47.092|56=MKDATAFHBCS2|10=119|
20140729-12:37:48.020: 8=FIX.4.4|9=67|35=0|34=122|49=MKDATAFHBCS2|52=20140729-12:37:48.020|56=LVDEVELOP5|10=113|
20140729-12:37:48.020: 8=FIX.4.4|9=67|35=0|34=122|49=LVDEVELOP5|52=20140729-12:37:48.020|56=MKDATAFHBCS2|10=113|
20140729-12:38:48.024: 8=FIX.4.4|9=67|35=0|34=123|49=MKDATAFHBCS2|52=20140729-12:38:48.024|56=LVDEVELOP5|10=119|
20140729-12:38:48.024: 8=FIX.4.4|9=67|35=0|34=123|49=LVDEVELOP5|52=20140729-12:38:48.024|56=MKDATAFHBCS2|10=119|
20140729-12:39:48.989: 8=FIX.4.4|9=67|35=0|34=124|49=LVDEVELOP5|52=20140729-12:39:48.989|56=MKDATAFHBCS2|10=141|
20140729-12:39:48.989: 8=FIX.4.4|9=67|35=0|34=124|49=MKDATAFHBCS2|52=20140729-12:39:48.989|56=LVDEVELOP5|10=141|
20140729-12:40:49.009: 8=FIX.4.4|9=67|35=0|34=125|49=MKDATAFHBCS2|52=20140729-12:40:49.009|56=LVDEVELOP5|10=118|
20140729-12:40:49.009: 8=FIX.4.4|9=67|35=0|34=125|49=LVDEVELOP5|52=20140729-12:40:49.009|56=MKDATAFHBCS2|10=118|
20140729-12:41:49.051: 8=FIX.4.4|9=67|35=0|34=126|49=MKDATAFHBCS2|52=20140729-12:41:49.051|56=LVDEVELOP5|10=117|
20140729-12:41:49.051: 8=FIX.4.4|9=67|35=0|34=126|49=LVDEVELOP5|52=20140729-12:41:49.051|56=MKDATAFHBCS2|10=117|
20140729-12:42:49.071: 8=FIX.4.4|9=67|35=0|34=127|49=MKDATAFHBCS2|52=20140729-12:42:49.071|56=LVDEVELOP5|10=121|
20140729-12:42:49.071: 8=FIX.4.4|9=67|35=0|34=127|49=LVDEVELOP5|52=20140729-12:42:49.071|56=MKDATAFHBCS2|10=121|
20140729-12:42:52.020: 8=FIX.4.4|9=134|35=V|34=128|49=LVDEVELOP5|52=20140729-12:42:52.020|56=MKDATAFHBCS2|262=M1140729084251000|263=1|264=1|146=1|55=ZOFRI|267=2|269=5|269=D|10=167|
20140729-12:42:52.036: 8=FIX.4.4|9=136|35=V|34=129|49=LVDEVELOP5|52=20140729-12:42:52.020|56=MKDATAFHBCS2|262=M1140729084252002|263=1|264=1|146=1|55=INGEVEC|267=2|269=5|269=D|10=036|
20140729-12:42:52.036: 8=FIX.4.4|9=137|35=V|34=130|49=LVDEVELOP5|52=20140729-12:42:52.036|56=MKDATAFHBCS2|262=M1140729084252004|263=1|264=1|146=1|55=SOQUICOM|267=2|269=5|269=D|10=149|
20140729-12:42:52.036: 8=FIX.4.4|9=132|35=V|34=131|49=LVDEVELOP5|52=20140729-12:42:52.036|56=MKDATAFHBCS2|262=M1140729084252006|263=1|264=1|146=1|55=CIC|267=2|269=5|269=D|10=242|
20140729-12:42:52.036: 8=FIX.4.4|9=138|35=V|34=132|49=LVDEVELOP5|52=20140729-12:42:52.036|56=MKDATAFHBCS2|262=M1140729084252008|263=1|264=1|146=1|55=PUCOBRE-A|267=2|269=5|269=D|10=170|
20140729-12:42:52.036: 8=FIX.4.4|9=135|35=V|34=133|49=LVDEVELOP5|52=20140729-12:42:52.036|56=MKDATAFHBCS2|262=M1140729084252010|263=1|264=1|146=1|55=BLUMAR|267=2|269=5|269=D|10=230|
20140729-12:42:52.036: 8=FIX.4.4|9=134|35=V|34=134|49=LVDEVELOP5|52=20140729-12:42:52.036|56=MKDATAFHBCS2|262=M1140729084252012|263=1|264=1|146=1|55=WATTS|267=2|269=5|269=D|10=184|
20140729-12:42:52.036: 8=FIX.4.4|9=136|35=V|34=135|49=LVDEVELOP5|52=20140729-12:42:52.036|56=MKDATAFHBCS2|262=M1140729084252014|263=1|264=1|146=1|55=BANVIDA|267=2|269=5|269=D|10=031|
20140729-12:42:52.036: 8=FIX.4.4|9=135|35=V|34=136|49=LVDEVELOP5|52=20140729-12:42:52.036|56=MKDATAFHBCS2|262=M1140729084252016|263=1|264=1|146=1|55=MOLLER|267=2|269=5|269=D|10=247|
20140729-12:42:52.036: 8=FIX.4.4|9=137|35=V|34=137|49=LVDEVELOP5|52=20140729-12:42:52.036|56=MKDATAFHBCS2|262=M1140729084252018|263=1|264=1|146=1|55=INVEXANS|267=2|269=5|269=D|10=157|
20140729-12:42:52.036: 8=FIX.4.4|9=138|35=V|34=138|49=LVDEVELOP5|52=20140729-12:42:52.036|56=MKDATAFHBCS2|262=M1140729084252020|263=1|264=1|146=1|55=AUSTRALIS|267=2|269=5|269=D|10=228|
20140729-12:42:52.067: 8=FIX.4.4|9=130|35=W|34=128|49=MKDATAFHBCS2|52=20140729-12:42:52.067|56=LVDEVELOP5|55=ZOFRI|262=M1140729084251000|268=2|269=5|270=560|269=D|271=0|10=011|
20140729-12:42:52.083: 8=FIX.4.4|9=134|35=W|34=129|49=MKDATAFHBCS2|52=20140729-12:42:52.083|56=LVDEVELOP5|55=INGEVEC|262=M1140729084252002|268=2|269=5|270=23.95|269=D|271=0|10=238|
20140729-12:42:52.083: 8=FIX.4.4|9=133|35=W|34=130|49=MKDATAFHBCS2|52=20140729-12:42:52.083|56=LVDEVELOP5|55=SOQUICOM|262=M1140729084252004|268=2|269=5|270=105|269=D|271=0|10=235|
20140729-12:42:52.083: 8=FIX.4.4|9=130|35=W|34=131|49=MKDATAFHBCS2|52=20140729-12:42:52.083|56=LVDEVELOP5|55=CIC|262=M1140729084252006|268=2|269=5|270=14.55|269=D|271=0|10=177|
20140729-12:42:52.083: 8=FIX.4.4|9=135|35=W|34=132|49=MKDATAFHBCS2|52=20140729-12:42:52.083|56=LVDEVELOP5|55=PUCOBRE-A|262=M1140729084252008|268=2|269=5|270=2500|269=D|271=0|10=050|
20140729-12:42:52.083: 8=FIX.4.4|9=133|35=W|34=133|49=MKDATAFHBCS2|52=20140729-12:42:52.083|56=LVDEVELOP5|55=BLUMAR|262=M1140729084252010|268=2|269=5|270=128.5|269=D|271=0|10=166|
20140729-12:42:52.083: 8=FIX.4.4|9=131|35=W|34=134|49=MKDATAFHBCS2|52=20140729-12:42:52.083|56=LVDEVELOP5|55=WATTS|262=M1140729084252012|268=2|269=5|270=1050|269=D|271=0|10=063|
20140729-12:42:52.083: 8=FIX.4.4|9=135|35=W|34=135|49=MKDATAFHBCS2|52=20140729-12:42:52.083|56=LVDEVELOP5|55=BANVIDA|262=M1140729084252014|268=2|269=5|270=164.43|269=D|271=0|10=018|
20140729-12:42:52.083: 8=FIX.4.4|9=131|35=W|34=136|49=MKDATAFHBCS2|52=20140729-12:42:52.083|56=LVDEVELOP5|55=MOLLER|262=M1140729084252016|268=2|269=5|270=283|269=D|271=0|10=084|
20140729-12:42:52.083: 8=FIX.4.4|9=131|35=W|34=137|49=MKDATAFHBCS2|52=20140729-12:42:52.083|56=LVDEVELOP5|55=INVEXANS|262=M1140729084252018|268=2|269=5|270=9|269=D|271=0|10=148|
20140729-12:42:52.098: 8=FIX.4.4|9=136|35=W|34=138|49=MKDATAFHBCS2|52=20140729-12:42:52.098|56=LVDEVELOP5|55=AUSTRALIS|262=M1140729084252020|268=2|269=5|270=43.21|269=D|271=0|10=164|
20140729-12:42:57.763: 8=FIX.4.4|9=134|35=V|34=139|49=LVDEVELOP5|52=20140729-12:42:57.763|56=MKDATAFHBCS2|262=M1140729084251000|263=2|264=1|146=1|55=ZOFRI|267=2|269=5|269=D|10=189|
20140729-12:42:57.763: 8=FIX.4.4|9=136|35=V|34=140|49=LVDEVELOP5|52=20140729-12:42:57.763|56=MKDATAFHBCS2|262=M1140729084252002|263=2|264=1|146=1|55=INGEVEC|267=2|269=5|269=D|10=049|
20140729-12:42:57.763: 8=FIX.4.4|9=137|35=V|34=141|49=LVDEVELOP5|52=20140729-12:42:57.763|56=MKDATAFHBCS2|262=M1140729084252004|263=2|264=1|146=1|55=SOQUICOM|267=2|269=5|269=D|10=164|
20140729-12:42:57.763: 8=FIX.4.4|9=132|35=V|34=142|49=LVDEVELOP5|52=20140729-12:42:57.763|56=MKDATAFHBCS2|262=M1140729084252006|263=2|264=1|146=1|55=CIC|267=2|269=5|269=D|10=001|
20140729-12:42:57.763: 8=FIX.4.4|9=138|35=V|34=143|49=LVDEVELOP5|52=20140729-12:42:57.763|56=MKDATAFHBCS2|262=M1140729084252008|263=2|264=1|146=1|55=PUCOBRE-A|267=2|269=5|269=D|10=185|
20140729-12:42:57.763: 8=FIX.4.4|9=135|35=V|34=144|49=LVDEVELOP5|52=20140729-12:42:57.763|56=MKDATAFHBCS2|262=M1140729084252010|263=2|264=1|146=1|55=BLUMAR|267=2|269=5|269=D|10=245|
20140729-12:42:57.763: 8=FIX.4.4|9=134|35=V|34=145|49=LVDEVELOP5|52=20140729-12:42:57.763|56=MKDATAFHBCS2|262=M1140729084252012|263=2|264=1|146=1|55=WATTS|267=2|269=5|269=D|10=199|
20140729-12:42:57.763: 8=FIX.4.4|9=136|35=V|34=146|49=LVDEVELOP5|52=20140729-12:42:57.763|56=MKDATAFHBCS2|262=M1140729084252014|263=2|264=1|146=1|55=BANVIDA|267=2|269=5|269=D|10=046|
20140729-12:42:57.763: 8=FIX.4.4|9=135|35=V|34=147|49=LVDEVELOP5|52=20140729-12:42:57.763|56=MKDATAFHBCS2|262=M1140729084252016|263=2|264=1|146=1|55=MOLLER|267=2|269=5|269=D|10=006|
20140729-12:42:57.763: 8=FIX.4.4|9=137|35=V|34=148|49=LVDEVELOP5|52=20140729-12:42:57.763|56=MKDATAFHBCS2|262=M1140729084252018|263=2|264=1|146=1|55=INVEXANS|267=2|269=5|269=D|10=172|
20140729-12:42:57.763: 8=FIX.4.4|9=138|35=V|34=149|49=LVDEVELOP5|52=20140729-12:42:57.763|56=MKDATAFHBCS2|262=M1140729084252020|263=2|264=1|146=1|55=AUSTRALIS|267=2|269=5|269=D|10=243|
20140729-12:43:53.089: 8=FIX.4.4|9=67|35=0|34=139|49=MKDATAFHBCS2|52=20140729-12:43:53.089|56=LVDEVELOP5|10=129|
20140729-12:43:58.098: 8=FIX.4.4|9=67|35=0|34=150|49=LVDEVELOP5|52=20140729-12:43:58.098|56=MKDATAFHBCS2|10=127|
20140729-12:44:54.011: 8=FIX.4.4|9=67|35=0|34=140|49=MKDATAFHBCS2|52=20140729-12:44:54.011|56=LVDEVELOP5|10=108|
20140729-12:44:59.005: 8=FIX.4.4|9=67|35=0|34=151|49=LVDEVELOP5|52=20140729-12:44:59.005|56=MKDATAFHBCS2|10=118|
20140729-12:45:54.032: 8=FIX.4.4|9=67|35=0|34=141|49=MKDATAFHBCS2|52=20140729-12:45:54.032|56=LVDEVELOP5|10=113|
20140729-12:45:59.044: 8=FIX.4.4|9=67|35=0|34=152|49=LVDEVELOP5|52=20140729-12:45:59.044|56=MKDATAFHBCS2|10=123|
20140729-12:46:54.059: 8=FIX.4.4|9=67|35=0|34=142|49=MKDATAFHBCS2|52=20140729-12:46:54.059|56=LVDEVELOP5|10=124|
20140729-12:46:59.069: 8=FIX.4.4|9=67|35=0|34=153|49=LVDEVELOP5|52=20140729-12:46:59.069|56=MKDATAFHBCS2|10=132|
20140729-12:47:54.071: 8=FIX.4.4|9=67|35=0|34=143|49=MKDATAFHBCS2|52=20140729-12:47:54.071|56=LVDEVELOP5|10=120|
20140729-12:47:59.095: 8=FIX.4.4|9=67|35=0|34=154|49=LVDEVELOP5|52=20140729-12:47:59.095|56=MKDATAFHBCS2|10=133|
20140729-12:48:54.075: 8=FIX.4.4|9=67|35=0|34=144|49=MKDATAFHBCS2|52=20140729-12:48:54.075|56=LVDEVELOP5|10=126|
20140729-12:48:59.099: 8=FIX.4.4|9=67|35=0|34=155|49=LVDEVELOP5|52=20140729-12:48:59.099|56=MKDATAFHBCS2|10=139|
20140729-12:49:55.010: 8=FIX.4.4|9=67|35=0|34=145|49=MKDATAFHBCS2|52=20140729-12:49:55.010|56=LVDEVELOP5|10=118|
20140729-12:50:00.005: 8=FIX.4.4|9=67|35=0|34=156|49=LVDEVELOP5|52=20140729-12:50:00.005|56=MKDATAFHBCS2|10=106|
20140729-12:50:55.034: 8=FIX.4.4|9=67|35=0|34=146|49=MKDATAFHBCS2|52=20140729-12:50:55.034|56=LVDEVELOP5|10=117|
20140729-12:51:00.045: 8=FIX.4.4|9=67|35=0|34=157|49=LVDEVELOP5|52=20140729-12:51:00.045|56=MKDATAFHBCS2|10=112|
20140729-12:51:55.061: 8=FIX.4.4|9=67|35=0|34=147|49=MKDATAFHBCS2|52=20140729-12:51:55.061|56=LVDEVELOP5|10=119|
20140729-12:52:00.071: 8=FIX.4.4|9=67|35=0|34=158|49=LVDEVELOP5|52=20140729-12:52:00.071|56=MKDATAFHBCS2|10=113|
20140729-12:52:55.075: 8=FIX.4.4|9=67|35=0|34=148|49=MKDATAFHBCS2|52=20140729-12:52:55.075|56=LVDEVELOP5|10=126|
20140729-12:53:00.084: 8=FIX.4.4|9=67|35=0|34=159|49=LVDEVELOP5|52=20140729-12:53:00.084|56=MKDATAFHBCS2|10=119|
20140729-12:53:55.079: 8=FIX.4.4|9=67|35=0|34=149|49=MKDATAFHBCS2|52=20140729-12:53:55.079|56=LVDEVELOP5|10=132|
20140729-12:54:00.103: 8=FIX.4.4|9=67|35=0|34=160|49=LVDEVELOP5|52=20140729-12:54:00.103|56=MKDATAFHBCS2|10=104|
20140729-12:54:55.997: 8=FIX.4.4|9=67|35=0|34=150|49=MKDATAFHBCS2|52=20140729-12:54:55.997|56=LVDEVELOP5|10=134|
20140729-12:55:01.008: 8=FIX.4.4|9=67|35=0|34=161|49=LVDEVELOP5|52=20140729-12:55:01.008|56=MKDATAFHBCS2|10=111|
20140729-12:55:56.039: 8=FIX.4.4|9=67|35=0|34=151|49=MKDATAFHBCS2|52=20140729-12:55:56.039|56=LVDEVELOP5|10=124|
20140729-12:56:01.051: 8=FIX.4.4|9=67|35=0|34=162|49=LVDEVELOP5|52=20140729-12:56:01.051|56=MKDATAFHBCS2|10=111|
20140729-12:56:56.971: 8=FIX.4.4|9=67|35=0|34=152|49=MKDATAFHBCS2|52=20140729-12:56:56.971|56=LVDEVELOP5|10=131|
20140729-12:57:01.965: 8=FIX.4.4|9=67|35=0|34=163|49=LVDEVELOP5|52=20140729-12:57:01.965|56=MKDATAFHBCS2|10=127|
20140729-12:57:57.011: 8=FIX.4.4|9=67|35=0|34=153|49=MKDATAFHBCS2|52=20140729-12:57:57.011|56=LVDEVELOP5|10=119|
20140729-12:58:02.024: 8=FIX.4.4|9=67|35=0|34=164|49=LVDEVELOP5|52=20140729-12:58:02.024|56=MKDATAFHBCS2|10=116|
20140729-12:58:57.043: 8=FIX.4.4|9=67|35=0|34=154|49=MKDATAFHBCS2|52=20140729-12:58:57.043|56=LVDEVELOP5|10=126|
20140729-12:59:02.069: 8=FIX.4.4|9=67|35=0|34=165|49=LVDEVELOP5|52=20140729-12:59:02.069|56=MKDATAFHBCS2|10=127|
20140729-12:59:57.059: 8=FIX.4.4|9=67|35=0|34=155|49=MKDATAFHBCS2|52=20140729-12:59:57.059|56=LVDEVELOP5|10=135|
20140729-13:00:02.084: 8=FIX.4.4|9=67|35=0|34=166|49=LVDEVELOP5|52=20140729-13:00:02.084|56=MKDATAFHBCS2|10=112|
20140729-13:00:57.066: 8=FIX.4.4|9=67|35=0|34=156|49=MKDATAFHBCS2|52=20140729-13:00:57.066|56=LVDEVELOP5|10=121|
20140729-13:01:02.090: 8=FIX.4.4|9=67|35=0|34=167|49=LVDEVELOP5|52=20140729-13:01:02.090|56=MKDATAFHBCS2|10=111|
20140729-13:01:58.003: 8=FIX.4.4|9=67|35=0|34=157|49=MKDATAFHBCS2|52=20140729-13:01:58.003|56=LVDEVELOP5|10=115|
20140729-13:02:03.000: 8=FIX.4.4|9=67|35=0|34=168|49=LVDEVELOP5|52=20140729-13:02:03.000|56=MKDATAFHBCS2|10=105|
20140729-13:02:58.033: 8=FIX.4.4|9=67|35=0|34=158|49=MKDATAFHBCS2|52=20140729-13:02:58.033|56=LVDEVELOP5|10=120|
20140729-13:03:03.045: 8=FIX.4.4|9=67|35=0|34=169|49=LVDEVELOP5|52=20140729-13:03:03.045|56=MKDATAFHBCS2|10=116|
20140729-13:03:58.056: 8=FIX.4.4|9=67|35=0|34=159|49=MKDATAFHBCS2|52=20140729-13:03:58.056|56=LVDEVELOP5|10=127|
20140729-13:04:03.065: 8=FIX.4.4|9=67|35=0|34=170|49=LVDEVELOP5|52=20140729-13:04:03.065|56=MKDATAFHBCS2|10=111|
20140729-13:04:58.066: 8=FIX.4.4|9=67|35=0|34=160|49=MKDATAFHBCS2|52=20140729-13:04:58.066|56=LVDEVELOP5|10=121|
20140729-13:05:03.090: 8=FIX.4.4|9=67|35=0|34=171|49=LVDEVELOP5|52=20140729-13:05:03.090|56=MKDATAFHBCS2|10=111|
20140729-13:05:49.176: 8=FIX.4.4|9=138|35=V|34=172|49=LVDEVELOP5|52=20140729-13:05:49.176|56=MKDATAFHBCS2|262=M1140729090549022|263=1|264=1|146=1|55=AUSTRALIS|267=2|269=5|269=D|10=245|
20140729-13:05:49.176: 8=FIX.4.4|9=136|35=W|34=161|49=MKDATAFHBCS2|52=20140729-13:05:49.176|56=LVDEVELOP5|55=AUSTRALIS|262=M1140729090549022|268=2|269=5|270=43.21|269=D|271=0|10=171|
20140729-13:05:54.605: 8=FIX.4.4|9=138|35=V|34=173|49=LVDEVELOP5|52=20140729-13:05:54.605|56=MKDATAFHBCS2|262=M1140729090549022|263=2|264=1|146=1|55=AUSTRALIS|267=2|269=5|269=D|10=240|
20140729-13:05:55.104: 8=FIX.4.4|9=138|35=V|34=174|49=LVDEVELOP5|52=20140729-13:05:55.104|56=MKDATAFHBCS2|262=M1140729090555032|263=1|264=1|146=1|55=AUSTRALIS|267=2|269=5|269=D|10=233|
20140729-13:05:55.104: 8=FIX.4.4|9=136|35=V|34=175|49=LVDEVELOP5|52=20140729-13:05:55.104|56=MKDATAFHBCS2|262=M1140729090555034|263=1|264=1|146=1|55=BANVIDA|267=2|269=5|269=D|10=039|
20140729-13:05:55.104: 8=FIX.4.4|9=135|35=V|34=176|49=LVDEVELOP5|52=20140729-13:05:55.104|56=MKDATAFHBCS2|262=M1140729090555036|263=1|264=1|146=1|55=BLUMAR|267=2|269=5|269=D|10=247|
20140729-13:05:55.104: 8=FIX.4.4|9=136|35=W|34=162|49=MKDATAFHBCS2|52=20140729-13:05:55.104|56=LVDEVELOP5|55=AUSTRALIS|262=M1140729090555032|268=2|269=5|270=43.21|269=D|271=0|10=158|
20140729-13:05:55.104: 8=FIX.4.4|9=132|35=V|34=177|49=LVDEVELOP5|52=20140729-13:05:55.104|56=MKDATAFHBCS2|262=M1140729090555038|263=1|264=1|146=1|55=CIC|267=2|269=5|269=D|10=003|
20140729-13:05:55.104: 8=FIX.4.4|9=136|35=V|34=178|49=LVDEVELOP5|52=20140729-13:05:55.104|56=MKDATAFHBCS2|262=M1140729090555040|263=1|264=1|146=1|55=INGEVEC|267=2|269=5|269=D|10=051|
20140729-13:05:55.120: 8=FIX.4.4|9=135|35=W|34=163|49=MKDATAFHBCS2|52=20140729-13:05:55.104|56=LVDEVELOP5|55=BANVIDA|262=M1140729090555034|268=2|269=5|270=164.43|269=D|271=0|10=021|
20140729-13:05:55.120: 8=FIX.4.4|9=137|35=V|34=179|49=LVDEVELOP5|52=20140729-13:05:55.120|56=MKDATAFHBCS2|262=M1140729090555042|263=1|264=1|146=1|55=INVEXANS|267=2|269=5|269=D|10=160|
20140729-13:05:55.120: 8=FIX.4.4|9=135|35=V|34=180|49=LVDEVELOP5|52=20140729-13:05:55.120|56=MKDATAFHBCS2|262=M1140729090555044|263=1|264=1|146=1|55=MOLLER|267=2|269=5|269=D|10=247|
20140729-13:05:55.120: 8=FIX.4.4|9=133|35=W|34=164|49=MKDATAFHBCS2|52=20140729-13:05:55.120|56=LVDEVELOP5|55=BLUMAR|262=M1140729090555036|268=2|269=5|270=128.5|269=D|271=0|10=176|
20140729-13:05:55.135: 8=FIX.4.4|9=138|35=V|34=181|49=LVDEVELOP5|52=20140729-13:05:55.135|56=MKDATAFHBCS2|262=M1140729090555046|263=1|264=1|146=1|55=PUCOBRE-A|267=2|269=5|269=D|10=182|
20140729-13:05:55.135: 8=FIX.4.4|9=137|35=V|34=182|49=LVDEVELOP5|52=20140729-13:05:55.135|56=MKDATAFHBCS2|262=M1140729090555048|263=1|264=1|146=1|55=SOQUICOM|267=2|269=5|269=D|10=170|
20140729-13:05:55.135: 8=FIX.4.4|9=130|35=W|34=165|49=MKDATAFHBCS2|52=20140729-13:05:55.135|56=LVDEVELOP5|55=CIC|262=M1140729090555038|268=2|269=5|270=14.55|269=D|271=0|10=193|
20140729-13:05:55.135: 8=FIX.4.4|9=134|35=V|34=183|49=LVDEVELOP5|52=20140729-13:05:55.135|56=MKDATAFHBCS2|262=M1140729090555050|263=1|264=1|146=1|55=WATTS|267=2|269=5|269=D|10=196|
20140729-13:05:55.135: 8=FIX.4.4|9=134|35=V|34=184|49=LVDEVELOP5|52=20140729-13:05:55.135|56=MKDATAFHBCS2|262=M1140729090555052|263=1|264=1|146=1|55=ZOFRI|267=2|269=5|269=D|10=190|
20140729-13:05:55.135: 8=FIX.4.4|9=134|35=W|34=166|49=MKDATAFHBCS2|52=20140729-13:05:55.135|56=LVDEVELOP5|55=INGEVEC|262=M1140729090555040|268=2|269=5|270=23.95|269=D|271=0|10=245|
20140729-13:05:55.135: 8=FIX.4.4|9=131|35=W|34=167|49=MKDATAFHBCS2|52=20140729-13:05:55.135|56=LVDEVELOP5|55=INVEXANS|262=M1140729090555042|268=2|269=5|270=9|269=D|271=0|10=152|
20140729-13:05:55.135: 8=FIX.4.4|9=131|35=W|34=168|49=MKDATAFHBCS2|52=20140729-13:05:55.135|56=LVDEVELOP5|55=MOLLER|262=M1140729090555044|268=2|269=5|270=283|269=D|271=0|10=094|
20140729-13:05:55.135: 8=FIX.4.4|9=135|35=W|34=169|49=MKDATAFHBCS2|52=20140729-13:05:55.135|56=LVDEVELOP5|55=PUCOBRE-A|262=M1140729090555046|268=2|269=5|270=2500|269=D|271=0|10=066|
20140729-13:05:55.135: 8=FIX.4.4|9=133|35=W|34=170|49=MKDATAFHBCS2|52=20140729-13:05:55.135|56=LVDEVELOP5|55=SOQUICOM|262=M1140729090555048|268=2|269=5|270=105|269=D|271=0|10=251|
20140729-13:05:55.135: 8=FIX.4.4|9=131|35=W|34=171|49=MKDATAFHBCS2|52=20140729-13:05:55.135|56=LVDEVELOP5|55=WATTS|262=M1140729090555050|268=2|269=5|270=1050|269=D|271=0|10=070|
20140729-13:05:55.135: 8=FIX.4.4|9=130|35=W|34=172|49=MKDATAFHBCS2|52=20140729-13:05:55.135|56=LVDEVELOP5|55=ZOFRI|262=M1140729090555052|268=2|269=5|270=560|269=D|271=0|10=020|
20140729-13:06:19.083: 8=FIX.4.4|9=135|35=V|34=185|49=LVDEVELOP5|52=20140729-13:06:19.083|56=MKDATAFHBCS2|262=M1140729090555044|263=2|264=1|146=1|55=MOLLER|267=2|269=5|269=D|10=006|
20140729-13:06:56.001: 8=FIX.4.4|9=67|35=0|34=173|49=MKDATAFHBCS2|52=20140729-13:06:56.001|56=LVDEVELOP5|10=114|
20140729-13:07:20.021: 8=FIX.4.4|9=67|35=0|34=186|49=LVDEVELOP5|52=20140729-13:07:20.021|56=MKDATAFHBCS2|10=112|
20140729-13:07:56.022: 8=FIX.4.4|9=67|35=0|34=174|49=MKDATAFHBCS2|52=20140729-13:07:56.022|56=LVDEVELOP5|10=119|
20140729-13:08:20.058: 8=FIX.4.4|9=67|35=0|34=187|49=LVDEVELOP5|52=20140729-13:08:20.058|56=MKDATAFHBCS2|10=124|
20140729-13:08:56.061: 8=FIX.4.4|9=67|35=0|34=175|49=MKDATAFHBCS2|52=20140729-13:08:56.061|56=LVDEVELOP5|10=124|
20140729-13:09:20.075: 8=FIX.4.4|9=67|35=0|34=188|49=LVDEVELOP5|52=20140729-13:09:20.075|56=MKDATAFHBCS2|10=125|
20140729-13:09:56.070: 8=FIX.4.4|9=67|35=0|34=176|49=MKDATAFHBCS2|52=20140729-13:09:56.070|56=LVDEVELOP5|10=126|
20140729-13:10:20.081: 8=FIX.4.4|9=67|35=0|34=189|49=LVDEVELOP5|52=20140729-13:10:20.081|56=MKDATAFHBCS2|10=115|
20140729-13:10:56.073: 8=FIX.4.4|9=67|35=0|34=177|49=MKDATAFHBCS2|52=20140729-13:10:56.073|56=LVDEVELOP5|10=122|
20140729-13:11:20.082: 8=FIX.4.4|9=67|35=0|34=190|49=LVDEVELOP5|52=20140729-13:11:20.082|56=MKDATAFHBCS2|10=109|
20140729-13:11:56.997: 8=FIX.4.4|9=67|35=0|34=178|49=MKDATAFHBCS2|52=20140729-13:11:56.997|56=LVDEVELOP5|10=139|
20140729-13:12:21.006: 8=FIX.4.4|9=67|35=0|34=191|49=LVDEVELOP5|52=20140729-13:12:21.006|56=MKDATAFHBCS2|10=108|
20140729-13:12:57.022: 8=FIX.4.4|9=67|35=0|34=179|49=MKDATAFHBCS2|52=20140729-13:12:57.022|56=LVDEVELOP5|10=121|
20140729-13:13:21.057: 8=FIX.4.4|9=67|35=0|34=192|49=LVDEVELOP5|52=20140729-13:13:21.057|56=MKDATAFHBCS2|10=116|
20140729-13:13:57.960: 8=FIX.4.4|9=67|35=0|34=180|49=MKDATAFHBCS2|52=20140729-13:13:57.960|56=LVDEVELOP5|10=125|
20140729-13:14:21.990: 8=FIX.4.4|9=67|35=0|34=193|49=LVDEVELOP5|52=20140729-13:14:21.990|56=MKDATAFHBCS2|10=124|
20140729-13:14:58.015: 8=FIX.4.4|9=67|35=0|34=181|49=MKDATAFHBCS2|52=20140729-13:14:58.015|56=LVDEVELOP5|10=119|
20140729-13:15:22.037: 8=FIX.4.4|9=67|35=0|34=194|49=LVDEVELOP5|52=20140729-13:15:22.037|56=MKDATAFHBCS2|10=119|
20140729-13:15:58.043: 8=FIX.4.4|9=67|35=0|34=182|49=MKDATAFHBCS2|52=20140729-13:15:58.043|56=LVDEVELOP5|10=122|
20140729-13:16:22.058: 8=FIX.4.4|9=67|35=0|34=195|49=LVDEVELOP5|52=20140729-13:16:22.058|56=MKDATAFHBCS2|10=124|
20140729-13:16:58.056: 8=FIX.4.4|9=67|35=0|34=183|49=MKDATAFHBCS2|52=20140729-13:16:58.056|56=LVDEVELOP5|10=128|
20140729-13:17:22.067: 8=FIX.4.4|9=67|35=0|34=196|49=LVDEVELOP5|52=20140729-13:17:22.067|56=MKDATAFHBCS2|10=126|
20140729-13:17:58.061: 8=FIX.4.4|9=67|35=0|34=184|49=MKDATAFHBCS2|52=20140729-13:17:58.061|56=LVDEVELOP5|10=126|
20140729-13:18:22.071: 8=FIX.4.4|9=67|35=0|34=197|49=LVDEVELOP5|52=20140729-13:18:22.071|56=MKDATAFHBCS2|10=123|
20140729-13:18:58.989: 8=FIX.4.4|9=67|35=0|34=185|49=MKDATAFHBCS2|52=20140729-13:18:58.989|56=LVDEVELOP5|10=147|
20140729-13:19:23.017: 8=FIX.4.4|9=67|35=0|34=198|49=LVDEVELOP5|52=20140729-13:19:23.017|56=MKDATAFHBCS2|10=126|
20140729-13:19:59.013: 8=FIX.4.4|9=67|35=0|34=186|49=MKDATAFHBCS2|52=20140729-13:19:59.013|56=LVDEVELOP5|10=128|
20140729-13:20:23.047: 8=FIX.4.4|9=67|35=0|34=199|49=LVDEVELOP5|52=20140729-13:20:23.047|56=MKDATAFHBCS2|10=122|
20140729-13:20:59.050: 8=FIX.4.4|9=67|35=0|34=187|49=MKDATAFHBCS2|52=20140729-13:20:59.050|56=LVDEVELOP5|10=122|
20140729-13:21:23.064: 8=FIX.4.4|9=67|35=0|34=200|49=LVDEVELOP5|52=20140729-13:21:23.064|56=MKDATAFHBCS2|10=105|
20140729-13:21:59.059: 8=FIX.4.4|9=67|35=0|34=188|49=MKDATAFHBCS2|52=20140729-13:21:59.059|56=LVDEVELOP5|10=133|
20140729-13:22:23.069: 8=FIX.4.4|9=67|35=0|34=201|49=LVDEVELOP5|52=20140729-13:22:23.069|56=MKDATAFHBCS2|10=112|
20140729-13:22:59.061: 8=FIX.4.4|9=67|35=0|34=189|49=MKDATAFHBCS2|52=20140729-13:22:59.061|56=LVDEVELOP5|10=128|
20140729-13:23:23.069: 8=FIX.4.4|9=67|35=0|34=202|49=LVDEVELOP5|52=20140729-13:23:23.069|56=MKDATAFHBCS2|10=114|
20140729-13:23:51.397: 8=FIX.4.4|9=132|35=X|34=190|49=MKDATAFHBCS2|52=20140729-13:23:51.397|56=LVDEVELOP5|262=M1140729090555032|268=1|279=1|269=D|55=AUSTRALIS|271=0|290=1|10=221|
20140729-13:23:51.397: 8=FIX.4.4|9=136|35=X|34=191|49=MKDATAFHBCS2|52=20140729-13:23:51.397|56=LVDEVELOP5|262=M1140729090555032|268=1|279=1|269=5|55=AUSTRALIS|270=43.21|290=1|10=154|
20140729-13:23:51.397: 8=FIX.4.4|9=135|35=X|34=192|49=MKDATAFHBCS2|52=20140729-13:23:51.397|56=LVDEVELOP5|262=M1140729090555034|268=1|279=1|269=5|55=BANVIDA|270=164.43|290=1|10=017|
20140729-13:23:51.412: 8=FIX.4.4|9=130|35=X|34=193|49=MKDATAFHBCS2|52=20140729-13:23:51.397|56=LVDEVELOP5|262=M1140729090555034|268=1|279=1|269=D|55=BANVIDA|271=0|290=1|10=029|
20140729-13:23:51.412: 8=FIX.4.4|9=133|35=X|34=194|49=MKDATAFHBCS2|52=20140729-13:23:51.412|56=LVDEVELOP5|262=M1140729090555036|268=1|279=1|269=5|55=BLUMAR|270=128.5|290=1|10=163|
20140729-13:23:51.412: 8=FIX.4.4|9=129|35=X|34=195|49=MKDATAFHBCS2|52=20140729-13:23:51.412|56=LVDEVELOP5|262=M1140729090555036|268=1|279=1|269=D|55=BLUMAR|271=0|290=1|10=235|
20140729-13:23:51.428: 8=FIX.4.4|9=130|35=X|34=196|49=MKDATAFHBCS2|52=20140729-13:23:51.428|56=LVDEVELOP5|262=M1140729090555038|268=1|279=1|269=5|55=CIC|270=14.55|290=1|10=182|
20140729-13:23:51.428: 8=FIX.4.4|9=126|35=X|34=197|49=MKDATAFHBCS2|52=20140729-13:23:51.428|56=LVDEVELOP5|262=M1140729090555038|268=1|279=1|269=D|55=CIC|271=0|290=1|10=255|
20140729-13:23:51.537: 8=FIX.4.4|9=134|35=X|34=198|49=MKDATAFHBCS2|52=20140729-13:23:51.537|56=LVDEVELOP5|262=M1140729090555040|268=1|279=1|269=5|55=INGEVEC|270=23.95|290=1|10=236|
20140729-13:23:51.537: 8=FIX.4.4|9=130|35=X|34=199|49=MKDATAFHBCS2|52=20140729-13:23:51.537|56=LVDEVELOP5|262=M1140729090555040|268=1|279=1|269=D|55=INGEVEC|271=0|290=1|10=040|
20140729-13:23:51.537: 8=FIX.4.4|9=131|35=X|34=200|49=MKDATAFHBCS2|52=20140729-13:23:51.537|56=LVDEVELOP5|262=M1140729090555042|268=1|279=1|269=5|55=INVEXANS|270=9|290=1|10=126|
20140729-13:23:51.537: 8=FIX.4.4|9=131|35=X|34=201|49=MKDATAFHBCS2|52=20140729-13:23:51.537|56=LVDEVELOP5|262=M1140729090555042|268=1|279=1|269=D|55=INVEXANS|271=0|290=1|10=134|
20140729-13:23:51.584: 8=FIX.4.4|9=135|35=X|34=202|49=MKDATAFHBCS2|52=20140729-13:23:51.584|56=LVDEVELOP5|262=M1140729090555046|268=1|279=1|269=5|55=PUCOBRE-A|270=2500|290=1|10=042|
20140729-13:23:51.584: 8=FIX.4.4|9=132|35=X|34=203|49=MKDATAFHBCS2|52=20140729-13:23:51.584|56=LVDEVELOP5|262=M1140729090555046|268=1|279=1|269=D|55=PUCOBRE-A|271=0|290=1|10=161|
20140729-13:23:51.615: 8=FIX.4.4|9=133|35=X|34=204|49=MKDATAFHBCS2|52=20140729-13:23:51.615|56=LVDEVELOP5|262=M1140729090555048|268=1|279=1|269=5|55=SOQUICOM|270=105|290=1|10=232|
20140729-13:23:51.615: 8=FIX.4.4|9=131|35=X|34=205|49=MKDATAFHBCS2|52=20140729-13:23:51.615|56=LVDEVELOP5|262=M1140729090555048|268=1|279=1|269=D|55=SOQUICOM|271=0|290=1|10=145|
20140729-13:23:51.630: 8=FIX.4.4|9=131|35=X|34=206|49=MKDATAFHBCS2|52=20140729-13:23:51.630|56=LVDEVELOP5|262=M1140729090555050|268=1|279=1|269=5|55=WATTS|270=1050|290=1|10=049|
20140729-13:23:51.630: 8=FIX.4.4|9=128|35=X|34=207|49=MKDATAFHBCS2|52=20140729-13:23:51.630|56=LVDEVELOP5|262=M1140729090555050|268=1|279=1|269=D|55=WATTS|271=0|290=1|10=178|
20140729-13:23:51.630: 8=FIX.4.4|9=130|35=X|34=208|49=MKDATAFHBCS2|52=20140729-13:23:51.630|56=LVDEVELOP5|262=M1140729090555052|268=1|279=1|269=5|55=ZOFRI|270=560|290=1|10=000|
20140729-13:23:51.630: 8=FIX.4.4|9=133|35=X|34=209|49=MKDATAFHBCS2|52=20140729-13:23:51.630|56=LVDEVELOP5|262=M1140729090555052|268=1|279=1|269=D|55=ZOFRI|271=257600|290=1|10=173|
20140729-13:24:24.017: 8=FIX.4.4|9=67|35=0|34=203|49=LVDEVELOP5|52=20140729-13:24:24.017|56=MKDATAFHBCS2|10=110|
20140729-13:24:52.005: 8=FIX.4.4|9=67|35=0|34=210|49=MKDATAFHBCS2|52=20140729-13:24:52.005|56=LVDEVELOP5|10=106|
20140729-13:25:24.045: 8=FIX.4.4|9=67|35=0|34=204|49=LVDEVELOP5|52=20140729-13:25:24.045|56=MKDATAFHBCS2|10=113|
20140729-13:25:52.040: 8=FIX.4.4|9=67|35=0|34=211|49=MKDATAFHBCS2|52=20140729-13:25:52.040|56=LVDEVELOP5|10=107|
20140729-13:26:24.059: 8=FIX.4.4|9=67|35=0|34=205|49=LVDEVELOP5|52=20140729-13:26:24.059|56=MKDATAFHBCS2|10=120|
20140729-13:26:52.052: 8=FIX.4.4|9=67|35=0|34=212|49=MKDATAFHBCS2|52=20140729-13:26:52.052|56=LVDEVELOP5|10=112|
20140729-13:27:24.067: 8=FIX.4.4|9=67|35=0|34=206|49=LVDEVELOP5|52=20140729-13:27:24.067|56=MKDATAFHBCS2|10=121|
20140729-13:27:52.055: 8=FIX.4.4|9=67|35=0|34=213|49=MKDATAFHBCS2|52=20140729-13:27:52.055|56=LVDEVELOP5|10=117|
20140729-13:28:24.068: 8=FIX.4.4|9=67|35=0|34=207|49=LVDEVELOP5|52=20140729-13:28:24.068|56=MKDATAFHBCS2|10=124|
20140729-13:28:53.000: 8=FIX.4.4|9=67|35=0|34=214|49=MKDATAFHBCS2|52=20140729-13:28:53.000|56=LVDEVELOP5|10=110|
20140729-13:29:25.002: 8=FIX.4.4|9=67|35=0|34=208|49=LVDEVELOP5|52=20140729-13:29:25.002|56=MKDATAFHBCS2|10=115|
20140729-13:29:53.008: 8=FIX.4.4|9=67|35=0|34=215|49=MKDATAFHBCS2|52=20140729-13:29:53.008|56=LVDEVELOP5|10=120|
20140729-13:30:25.032: 8=FIX.4.4|9=67|35=0|34=209|49=LVDEVELOP5|52=20140729-13:30:25.032|56=MKDATAFHBCS2|10=111|
20140729-13:30:53.027: 8=FIX.4.4|9=67|35=0|34=216|49=MKDATAFHBCS2|52=20140729-13:30:53.027|56=LVDEVELOP5|10=114|
20140729-13:31:25.061: 8=FIX.4.4|9=67|35=0|34=210|49=LVDEVELOP5|52=20140729-13:31:25.061|56=MKDATAFHBCS2|10=106|
20140729-13:31:53.052: 8=FIX.4.4|9=67|35=0|34=217|49=MKDATAFHBCS2|52=20140729-13:31:53.052|56=LVDEVELOP5|10=114|
20140729-13:32:25.066: 8=FIX.4.4|9=67|35=0|34=211|49=LVDEVELOP5|52=20140729-13:32:25.066|56=MKDATAFHBCS2|10=113|
20140729-13:32:53.054: 8=FIX.4.4|9=67|35=0|34=218|49=MKDATAFHBCS2|52=20140729-13:32:53.054|56=LVDEVELOP5|10=118|
20140729-13:33:25.066: 8=FIX.4.4|9=67|35=0|34=212|49=LVDEVELOP5|52=20140729-13:33:25.066|56=MKDATAFHBCS2|10=115|
20140729-13:33:53.997: 8=FIX.4.4|9=67|35=0|34=219|49=MKDATAFHBCS2|52=20140729-13:33:53.997|56=LVDEVELOP5|10=136|
20140729-13:34:26.001: 8=FIX.4.4|9=67|35=0|34=213|49=LVDEVELOP5|52=20140729-13:34:26.001|56=MKDATAFHBCS2|10=107|
20140729-13:34:54.006: 8=FIX.4.4|9=67|35=0|34=220|49=MKDATAFHBCS2|52=20140729-13:34:54.006|56=LVDEVELOP5|10=111|
20140729-13:35:26.030: 8=FIX.4.4|9=67|35=0|34=214|49=LVDEVELOP5|52=20140729-13:35:26.030|56=MKDATAFHBCS2|10=111|
20140729-13:35:54.026: 8=FIX.4.4|9=67|35=0|34=221|49=MKDATAFHBCS2|52=20140729-13:35:54.026|56=LVDEVELOP5|10=115|
20140729-13:36:26.043: 8=FIX.4.4|9=67|35=0|34=215|49=LVDEVELOP5|52=20140729-13:36:26.043|56=MKDATAFHBCS2|10=117|
20140729-13:36:54.034: 8=FIX.4.4|9=67|35=0|34=222|49=MKDATAFHBCS2|52=20140729-13:36:54.034|56=LVDEVELOP5|10=116|
20140729-13:37:26.064: 8=FIX.4.4|9=67|35=0|34=216|49=LVDEVELOP5|52=20140729-13:37:26.064|56=MKDATAFHBCS2|10=122|
20140729-13:37:54.052: 8=FIX.4.4|9=67|35=0|34=223|49=MKDATAFHBCS2|52=20140729-13:37:54.052|56=LVDEVELOP5|10=118|
20140729-13:38:26.065: 8=FIX.4.4|9=67|35=0|34=217|49=LVDEVELOP5|52=20140729-13:38:26.065|56=MKDATAFHBCS2|10=125|
20140729-13:38:54.993: 8=FIX.4.4|9=67|35=0|34=224|49=MKDATAFHBCS2|52=20140729-13:38:54.993|56=LVDEVELOP5|10=134|
20140729-13:39:27.001: 8=FIX.4.4|9=67|35=0|34=218|49=LVDEVELOP5|52=20140729-13:39:27.001|56=MKDATAFHBCS2|10=118|
20140729-13:39:55.005: 8=FIX.4.4|9=67|35=0|34=225|49=MKDATAFHBCS2|52=20140729-13:39:55.005|56=LVDEVELOP5|10=121|
20140729-13:40:27.029: 8=FIX.4.4|9=67|35=0|34=219|49=LVDEVELOP5|52=20140729-13:40:27.029|56=MKDATAFHBCS2|10=121|
20140729-13:40:55.024: 8=FIX.4.4|9=67|35=0|34=226|49=MKDATAFHBCS2|52=20140729-13:40:55.024|56=LVDEVELOP5|10=115|
20140729-13:41:27.042: 8=FIX.4.4|9=67|35=0|34=220|49=LVDEVELOP5|52=20140729-13:41:27.042|56=MKDATAFHBCS2|10=109|
20140729-13:41:55.032: 8=FIX.4.4|9=67|35=0|34=227|49=MKDATAFHBCS2|52=20140729-13:41:55.032|56=LVDEVELOP5|10=116|
20140729-13:42:27.047: 8=FIX.4.4|9=67|35=0|34=221|49=LVDEVELOP5|52=20140729-13:42:27.047|56=MKDATAFHBCS2|10=116|
20140729-13:42:55.035: 8=FIX.4.4|9=67|35=0|34=228|49=MKDATAFHBCS2|52=20140729-13:42:55.035|56=LVDEVELOP5|10=121|
20140729-13:43:27.063: 8=FIX.4.4|9=67|35=0|34=222|49=LVDEVELOP5|52=20140729-13:43:27.063|56=MKDATAFHBCS2|10=116|
20140729-13:43:48.784: 8=FIX.4.4|9=130|35=X|34=229|49=MKDATAFHBCS2|52=20140729-13:43:48.784|56=LVDEVELOP5|262=M1140729090555052|268=1|279=1|269=5|55=ZOFRI|270=560|290=1|10=021|
20140729-13:43:48.784: 8=FIX.4.4|9=134|35=X|34=230|49=MKDATAFHBCS2|52=20140729-13:43:48.784|56=LVDEVELOP5|262=M1140729090555052|268=1|279=1|269=D|55=ZOFRI|271=2016000|290=1|10=223|
20140729-13:44:04.849: 8=FIX.4.4|9=130|35=X|34=231|49=MKDATAFHBCS2|52=20140729-13:44:04.849|56=LVDEVELOP5|262=M1140729090555052|268=1|279=1|269=5|55=ZOFRI|270=560|290=1|10=009|
20140729-13:44:04.849: 8=FIX.4.4|9=134|35=X|34=232|49=MKDATAFHBCS2|52=20140729-13:44:04.849|56=LVDEVELOP5|262=M1140729090555052|268=1|279=1|269=D|55=ZOFRI|271=2188480|290=1|10=242|
20140729-13:44:28.000: 8=FIX.4.4|9=67|35=0|34=223|49=LVDEVELOP5|52=20140729-13:44:28.000|56=MKDATAFHBCS2|10=110|
20140729-13:45:05.011: 8=FIX.4.4|9=67|35=0|34=233|49=MKDATAFHBCS2|52=20140729-13:45:05.011|56=LVDEVELOP5|10=109|
20140729-13:45:28.043: 8=FIX.4.4|9=67|35=0|34=224|49=LVDEVELOP5|52=20140729-13:45:28.043|56=MKDATAFHBCS2|10=119|
20140729-13:46:05.027: 8=FIX.4.4|9=67|35=0|34=234|49=MKDATAFHBCS2|52=20140729-13:46:05.027|56=LVDEVELOP5|10=118|
20140729-13:46:29.039: 8=FIX.4.4|9=67|35=0|34=225|49=LVDEVELOP5|52=20140729-13:46:29.039|56=MKDATAFHBCS2|10=127|
20140729-13:47:05.034: 8=FIX.4.4|9=67|35=0|34=235|49=MKDATAFHBCS2|52=20140729-13:47:05.034|56=LVDEVELOP5|10=118|
20140729-13:47:29.043: 8=FIX.4.4|9=67|35=0|34=226|49=LVDEVELOP5|52=20140729-13:47:29.043|56=MKDATAFHBCS2|10=124|
20140729-13:48:05.977: 8=FIX.4.4|9=67|35=0|34=236|49=MKDATAFHBCS2|52=20140729-13:48:05.977|56=LVDEVELOP5|10=136|
20140729-13:48:30.013: 8=FIX.4.4|9=67|35=0|34=227|49=LVDEVELOP5|52=20140729-13:48:30.013|56=MKDATAFHBCS2|10=115|
20140729-13:49:06.005: 8=FIX.4.4|9=67|35=0|34=237|49=MKDATAFHBCS2|52=20140729-13:49:06.005|56=LVDEVELOP5|10=121|
20140729-13:49:30.034: 8=FIX.4.4|9=67|35=0|34=228|49=LVDEVELOP5|52=20140729-13:49:30.034|56=MKDATAFHBCS2|10=120|
20140729-13:50:06.031: 8=FIX.4.4|9=67|35=0|34=238|49=MKDATAFHBCS2|52=20140729-13:50:06.031|56=LVDEVELOP5|10=113|
20140729-13:50:30.041: 8=FIX.4.4|9=67|35=0|34=229|49=LVDEVELOP5|52=20140729-13:50:30.041|56=MKDATAFHBCS2|10=111|
20140729-13:51:06.033: 8=FIX.4.4|9=67|35=0|34=239|49=MKDATAFHBCS2|52=20140729-13:51:06.033|56=LVDEVELOP5|10=117|
20140729-13:51:30.043: 8=FIX.4.4|9=67|35=0|34=230|49=LVDEVELOP5|52=20140729-13:51:30.043|56=MKDATAFHBCS2|10=106|
20140729-13:52:06.033: 8=FIX.4.4|9=67|35=0|34=240|49=MKDATAFHBCS2|52=20140729-13:52:06.033|56=LVDEVELOP5|10=110|
20140729-13:52:31.040: 8=FIX.4.4|9=67|35=0|34=231|49=LVDEVELOP5|52=20140729-13:52:31.040|56=MKDATAFHBCS2|10=106|
20140729-13:53:06.974: 8=FIX.4.4|9=67|35=0|34=241|49=MKDATAFHBCS2|52=20140729-13:53:06.974|56=LVDEVELOP5|10=126|
20140729-13:53:32.009: 8=FIX.4.4|9=67|35=0|34=232|49=LVDEVELOP5|52=20140729-13:53:32.009|56=MKDATAFHBCS2|10=114|
20140729-13:54:06.999: 8=FIX.4.4|9=67|35=0|34=242|49=MKDATAFHBCS2|52=20140729-13:54:06.999|56=LVDEVELOP5|10=135|
20140729-13:54:32.029: 8=FIX.4.4|9=67|35=0|34=233|49=LVDEVELOP5|52=20140729-13:54:32.029|56=MKDATAFHBCS2|10=118|
20140729-13:55:07.013: 8=FIX.4.4|9=67|35=0|34=243|49=MKDATAFHBCS2|52=20140729-13:55:07.013|56=LVDEVELOP5|10=115|
20140729-13:55:32.039: 8=FIX.4.4|9=67|35=0|34=234|49=LVDEVELOP5|52=20140729-13:55:32.039|56=MKDATAFHBCS2|10=121|
20140729-13:56:07.035: 8=FIX.4.4|9=67|35=0|34=244|49=MKDATAFHBCS2|52=20140729-13:56:07.035|56=LVDEVELOP5|10=121|
20140729-13:56:32.043: 8=FIX.4.4|9=67|35=0|34=235|49=LVDEVELOP5|52=20140729-13:56:32.043|56=MKDATAFHBCS2|10=118|
20140729-13:57:07.036: 8=FIX.4.4|9=67|35=0|34=245|49=MKDATAFHBCS2|52=20140729-13:57:07.036|56=LVDEVELOP5|10=124|
20140729-13:57:33.041: 8=FIX.4.4|9=67|35=0|34=236|49=LVDEVELOP5|52=20140729-13:57:33.041|56=MKDATAFHBCS2|10=119|
20140729-13:58:07.977: 8=FIX.4.4|9=67|35=0|34=246|49=MKDATAFHBCS2|52=20140729-13:58:07.977|56=LVDEVELOP5|10=140|
20140729-13:58:34.010: 8=FIX.4.4|9=67|35=0|34=237|49=LVDEVELOP5|52=20140729-13:58:34.010|56=MKDATAFHBCS2|10=118|
20140729-13:59:08.002: 8=FIX.4.4|9=67|35=0|34=247|49=MKDATAFHBCS2|52=20140729-13:59:08.002|56=LVDEVELOP5|10=122|
20140729-13:59:31.688: 8=FIX.4.4|9=136|35=X|34=248|49=MKDATAFHBCS2|52=20140729-13:59:31.688|56=LVDEVELOP5|262=M1140729090555048|268=1|279=1|269=5|55=SOQUICOM|270=106.99|290=1|10=165|
20140729-13:59:31.688: 8=FIX.4.4|9=138|35=X|34=249|49=MKDATAFHBCS2|52=20140729-13:59:31.688|56=LVDEVELOP5|262=M1140729090555048|268=1|279=1|269=D|55=SOQUICOM|271=12500070|290=1|10=016|
20140729-13:59:34.029: 8=FIX.4.4|9=67|35=0|34=238|49=LVDEVELOP5|52=20140729-13:59:34.029|56=MKDATAFHBCS2|10=130|
20140729-14:00:32.023: 8=FIX.4.4|9=67|35=0|34=250|49=MKDATAFHBCS2|52=20140729-14:00:32.023|56=LVDEVELOP5|10=103|
20140729-14:00:34.036: 8=FIX.4.4|9=67|35=0|34=239|49=LVDEVELOP5|52=20140729-14:00:34.036|56=MKDATAFHBCS2|10=116|
20140729-14:01:01.932: 8=FIX.4.4|9=130|35=X|34=251|49=MKDATAFHBCS2|52=20140729-14:01:01.932|56=LVDEVELOP5|262=M1140729090555052|268=1|279=1|269=5|55=ZOFRI|270=560|290=1|10=251|
20140729-14:01:01.932: 8=FIX.4.4|9=134|35=X|34=252|49=MKDATAFHBCS2|52=20140729-14:01:01.932|56=LVDEVELOP5|262=M1140729090555052|268=1|279=1|269=D|55=ZOFRI|271=7788480|290=1|10=239|
20140729-14:01:34.039: 8=FIX.4.4|9=67|35=0|34=240|49=LVDEVELOP5|52=20140729-14:01:34.039|56=MKDATAFHBCS2|10=112|
20140729-14:02:02.027: 8=FIX.4.4|9=67|35=0|34=253|49=MKDATAFHBCS2|52=20140729-14:02:02.027|56=LVDEVELOP5|10=109|
20140729-14:02:35.037: 8=FIX.4.4|9=67|35=0|34=241|49=LVDEVELOP5|52=20140729-14:02:35.037|56=MKDATAFHBCS2|10=113|
20140729-14:03:02.966: 8=FIX.4.4|9=67|35=0|34=254|49=MKDATAFHBCS2|52=20140729-14:03:02.966|56=LVDEVELOP5|10=123|
20140729-14:03:35.991: 8=FIX.4.4|9=67|35=0|34=242|49=LVDEVELOP5|52=20140729-14:03:35.991|56=MKDATAFHBCS2|10=124|
20140729-14:04:02.993: 8=FIX.4.4|9=67|35=0|34=255|49=MKDATAFHBCS2|52=20140729-14:04:02.993|56=LVDEVELOP5|10=125|
20140729-14:04:36.001: 8=FIX.4.4|9=67|35=0|34=243|49=LVDEVELOP5|52=20140729-14:04:36.001|56=MKDATAFHBCS2|10=109|
20140729-14:05:03.301: 8=FIX.4.4|9=136|35=X|34=256|49=MKDATAFHBCS2|52=20140729-14:05:03.301|56=LVDEVELOP5|262=M1140729090555048|268=1|279=1|269=5|55=SOQUICOM|270=115.13|290=1|10=123|
20140729-14:05:03.301: 8=FIX.4.4|9=138|35=X|34=257|49=MKDATAFHBCS2|52=20140729-14:05:03.301|56=LVDEVELOP5|262=M1140729090555048|268=1|279=1|269=D|55=SOQUICOM|271=25000079|290=1|10=252|
20140729-14:05:36.954: 8=FIX.4.4|9=67|35=0|34=244|49=LVDEVELOP5|52=20140729-14:05:36.954|56=MKDATAFHBCS2|10=128|
20140729-14:06:03.970: 8=FIX.4.4|9=67|35=0|34=258|49=MKDATAFHBCS2|52=20140729-14:06:03.970|56=LVDEVELOP5|10=126|
20140729-14:06:37.935: 8=FIX.4.4|9=67|35=0|34=245|49=LVDEVELOP5|52=20140729-14:06:37.935|56=MKDATAFHBCS2|10=130|
20140729-14:07:04.855: 8=FIX.4.4|9=67|35=0|34=259|49=MKDATAFHBCS2|52=20140729-14:07:04.855|56=LVDEVELOP5|10=131|
20140729-14:07:38.913: 8=FIX.4.4|9=67|35=0|34=246|49=LVDEVELOP5|52=20140729-14:07:38.913|56=MKDATAFHBCS2|10=129|
20140729-14:08:04.939: 8=FIX.4.4|9=67|35=0|34=260|49=MKDATAFHBCS2|52=20140729-14:08:04.939|56=LVDEVELOP5|10=127|
20140729-14:08:38.986: 8=FIX.4.4|9=67|35=0|34=247|49=LVDEVELOP5|52=20140729-14:08:38.986|56=MKDATAFHBCS2|10=141|
20140729-14:09:04.978: 8=FIX.4.4|9=67|35=0|34=261|49=MKDATAFHBCS2|52=20140729-14:09:04.978|56=LVDEVELOP5|10=132|
20140729-14:09:39.013: 8=FIX.4.4|9=67|35=0|34=248|49=LVDEVELOP5|52=20140729-14:09:39.013|56=MKDATAFHBCS2|10=125|
20140729-14:10:04.995: 8=FIX.4.4|9=67|35=0|34=262|49=MKDATAFHBCS2|52=20140729-14:10:04.995|56=LVDEVELOP5|10=124|
20140729-14:10:39.024: 8=FIX.4.4|9=67|35=0|34=249|49=LVDEVELOP5|52=20140729-14:10:39.024|56=MKDATAFHBCS2|10=120|
20140729-14:11:05.017: 8=FIX.4.4|9=67|35=0|34=263|49=MKDATAFHBCS2|52=20140729-14:11:05.017|56=LVDEVELOP5|10=112|
20140729-14:11:39.972: 8=FIX.4.4|9=67|35=0|34=250|49=LVDEVELOP5|52=20140729-14:11:39.972|56=MKDATAFHBCS2|10=125|
20140729-14:12:05.904: 8=FIX.4.4|9=67|35=0|34=264|49=MKDATAFHBCS2|52=20140729-14:12:05.904|56=LVDEVELOP5|10=119|
20140729-14:12:40.945: 8=FIX.4.4|9=67|35=0|34=251|49=LVDEVELOP5|52=20140729-14:12:40.945|56=MKDATAFHBCS2|10=119|
20140729-14:13:05.960: 8=FIX.4.4|9=67|35=0|34=265|49=MKDATAFHBCS2|52=20140729-14:13:05.960|56=LVDEVELOP5|10=123|
20140729-14:13:40.984: 8=FIX.4.4|9=67|35=0|34=252|49=LVDEVELOP5|52=20140729-14:13:40.984|56=MKDATAFHBCS2|10=124|
20140729-14:14:05.987: 8=FIX.4.4|9=67|35=0|34=266|49=MKDATAFHBCS2|52=20140729-14:14:05.987|56=LVDEVELOP5|10=134|
20140729-14:14:11.448: 8=FIX.4.4|9=130|35=X|34=267|49=MKDATAFHBCS2|52=20140729-14:14:11.448|56=LVDEVELOP5|262=M1140729090555038|268=1|279=1|269=5|55=CIC|270=14.55|290=1|10=180|
20140729-14:14:11.448: 8=FIX.4.4|9=135|35=X|34=268|49=MKDATAFHBCS2|52=20140729-14:14:11.448|56=LVDEVELOP5|262=M1140729090555038|268=1|279=1|269=D|55=CIC|271=1259900000|290=1|10=199|
20140729-14:14:41.017: 8=FIX.4.4|9=67|35=0|34=253|49=LVDEVELOP5|52=20140729-14:14:41.017|56=MKDATAFHBCS2|10=114|
20140729-14:15:12.005: 8=FIX.4.4|9=67|35=0|34=269|49=MKDATAFHBCS2|52=20140729-14:15:12.005|56=LVDEVELOP5|10=117|
20140729-14:15:41.024: 8=FIX.4.4|9=67|35=0|34=254|49=LVDEVELOP5|52=20140729-14:15:41.024|56=MKDATAFHBCS2|10=114|
20140729-14:15:54.691: 8=FIX.4.4|9=130|35=X|34=270|49=MKDATAFHBCS2|52=20140729-14:15:54.691|56=LVDEVELOP5|262=M1140729090555038|268=1|279=1|269=5|55=CIC|270=14.55|290=1|10=182|
20140729-14:15:54.691: 8=FIX.4.4|9=135|35=X|34=271|49=MKDATAFHBCS2|52=20140729-14:15:54.691|56=LVDEVELOP5|262=M1140729090555038|268=1|279=1|269=D|55=CIC|271=2519800000|290=1|10=200|
20140729-14:16:41.967: 8=FIX.4.4|9=67|35=0|34=255|49=LVDEVELOP5|52=20140729-14:16:41.967|56=MKDATAFHBCS2|10=132|
20140729-14:16:42.714: 8=FIX.4.4|9=136|35=X|34=272|49=MKDATAFHBCS2|52=20140729-14:16:42.714|56=LVDEVELOP5|262=M1140729090555048|268=1|279=1|269=5|55=SOQUICOM|270=106.99|290=1|10=148|
20140729-14:16:42.714: 8=FIX.4.4|9=138|35=X|34=273|49=MKDATAFHBCS2|52=20140729-14:16:42.714|56=LVDEVELOP5|262=M1140729090555048|268=1|279=1|269=D|55=SOQUICOM|271=12500070|290=1|10=255|
20140729-14:17:38.856: 8=FIX.4.4|9=130|35=X|34=274|49=MKDATAFHBCS2|52=20140729-14:17:38.856|56=LVDEVELOP5|262=M1140729090555038|268=1|279=1|269=5|55=CIC|270=14.55|290=1|10=193|
20140729-14:17:38.856: 8=FIX.4.4|9=135|35=X|34=275|49=MKDATAFHBCS2|52=20140729-14:17:38.856|56=LVDEVELOP5|262=M1140729090555038|268=1|279=1|269=D|55=CIC|271=3779700000|290=1|10=219|
20140729-14:17:42.947: 8=FIX.4.4|9=67|35=0|34=256|49=LVDEVELOP5|52=20140729-14:17:42.947|56=MKDATAFHBCS2|10=133|
20140729-14:18:38.972: 8=FIX.4.4|9=67|35=0|34=276|49=MKDATAFHBCS2|52=20140729-14:18:38.972|56=LVDEVELOP5|10=139|
20140729-14:18:42.984: 8=FIX.4.4|9=67|35=0|34=257|49=LVDEVELOP5|52=20140729-14:18:42.984|56=MKDATAFHBCS2|10=136|
20140729-14:19:22.060: 8=FIX.4.4|9=130|35=X|34=277|49=MKDATAFHBCS2|52=20140729-14:19:22.060|56=LVDEVELOP5|262=M1140729090555038|268=1|279=1|269=5|55=CIC|270=14.55|290=1|10=178|
20140729-14:19:22.076: 8=FIX.4.4|9=135|35=X|34=278|49=MKDATAFHBCS2|52=20140729-14:19:22.076|56=LVDEVELOP5|262=M1140729090555038|268=1|279=1|269=D|55=CIC|271=5039600000|290=1|10=201|
20140729-14:19:43.015: 8=FIX.4.4|9=67|35=0|34=258|49=LVDEVELOP5|52=20140729-14:19:43.015|56=MKDATAFHBCS2|10=124|
20140729-14:20:23.005: 8=FIX.4.4|9=67|35=0|34=279|49=MKDATAFHBCS2|52=20140729-14:20:23.005|56=LVDEVELOP5|10=116|
20140729-14:20:43.022: 8=FIX.4.4|9=67|35=0|34=259|49=LVDEVELOP5|52=20140729-14:20:43.022|56=MKDATAFHBCS2|10=115|
20140729-14:21:01.354: 8=FIX.4.4|9=130|35=X|34=280|49=MKDATAFHBCS2|52=20140729-14:21:01.354|56=LVDEVELOP5|262=M1140729090555038|268=1|279=1|269=5|55=CIC|270=14.55|290=1|10=168|
20140729-14:21:01.354: 8=FIX.4.4|9=135|35=X|34=281|49=MKDATAFHBCS2|52=20140729-14:21:01.354|56=LVDEVELOP5|262=M1140729090555038|268=1|279=1|269=D|55=CIC|271=6324195988|290=1|10=216|
20140729-14:21:43.960: 8=FIX.4.4|9=67|35=0|34=260|49=LVDEVELOP5|52=20140729-14:21:43.960|56=MKDATAFHBCS2|10=119|
20140729-14:22:01.902: 8=FIX.4.4|9=67|35=0|34=282|49=MKDATAFHBCS2|52=20140729-14:22:01.902|56=LVDEVELOP5|10=114|
20140729-14:22:44.946: 8=FIX.4.4|9=67|35=0|34=261|49=LVDEVELOP5|52=20140729-14:22:44.946|56=MKDATAFHBCS2|10=126|
20140729-14:23:01.950: 8=FIX.4.4|9=67|35=0|34=283|49=MKDATAFHBCS2|52=20140729-14:23:01.950|56=LVDEVELOP5|10=119|
20140729-14:23:45.907: 8=FIX.4.4|9=67|35=0|34=262|49=LVDEVELOP5|52=20140729-14:23:45.907|56=MKDATAFHBCS2|10=126|
20140729-14:24:02.848: 8=FIX.4.4|9=67|35=0|34=284|49=MKDATAFHBCS2|52=20140729-14:24:02.848|56=LVDEVELOP5|10=128|
20140729-14:24:45.926: 8=FIX.4.4|9=67|35=0|34=263|49=LVDEVELOP5|52=20140729-14:24:45.926|56=MKDATAFHBCS2|10=129|
20140729-14:25:02.921: 8=FIX.4.4|9=67|35=0|34=285|49=MKDATAFHBCS2|52=20140729-14:25:02.921|56=LVDEVELOP5|10=122|
20140729-14:25:45.974: 8=FIX.4.4|9=67|35=0|34=264|49=LVDEVELOP5|52=20140729-14:25:45.974|56=MKDATAFHBCS2|10=134|
20140729-14:26:02.974: 8=FIX.4.4|9=67|35=0|34=286|49=MKDATAFHBCS2|52=20140729-14:26:02.974|56=LVDEVELOP5|10=132|
20140729-14:26:45.997: 8=FIX.4.4|9=67|35=0|34=265|49=LVDEVELOP5|52=20140729-14:26:45.997|56=MKDATAFHBCS2|10=141|
20140729-14:27:02.991: 8=FIX.4.4|9=67|35=0|34=287|49=MKDATAFHBCS2|52=20140729-14:27:02.991|56=LVDEVELOP5|10=133|
20140729-14:27:46.006: 8=FIX.4.4|9=67|35=0|34=266|49=LVDEVELOP5|52=20140729-14:27:46.006|56=MKDATAFHBCS2|10=125|
20140729-14:28:02.997: 8=FIX.4.4|9=67|35=0|34=288|49=MKDATAFHBCS2|52=20140729-14:28:02.997|56=LVDEVELOP5|10=141|
20140729-14:28:46.946: 8=FIX.4.4|9=67|35=0|34=267|49=LVDEVELOP5|52=20140729-14:28:46.946|56=MKDATAFHBCS2|10=140|
20140729-14:29:03.891: 8=FIX.4.4|9=67|35=0|34=289|49=MKDATAFHBCS2|52=20140729-14:29:03.891|56=LVDEVELOP5|10=137|
20140729-14:29:47.955: 8=FIX.4.4|9=67|35=0|34=268|49=LVDEVELOP5|52=20140729-14:29:47.955|56=MKDATAFHBCS2|10=143|
20140729-14:30:03.944: 8=FIX.4.4|9=67|35=0|34=290|49=MKDATAFHBCS2|52=20140729-14:30:03.944|56=LVDEVELOP5|10=120|
20140729-14:30:47.987: 8=FIX.4.4|9=67|35=0|34=269|49=LVDEVELOP5|52=20140729-14:30:47.987|56=MKDATAFHBCS2|10=141|
20140729-14:31:03.969: 8=FIX.4.4|9=67|35=0|34=291|49=MKDATAFHBCS2|52=20140729-14:31:03.969|56=LVDEVELOP5|10=129|
20140729-14:31:48.003: 8=FIX.4.4|9=67|35=0|34=270|49=LVDEVELOP5|52=20140729-14:31:48.003|56=MKDATAFHBCS2|10=114|
20140729-14:32:03.997: 8=FIX.4.4|9=67|35=0|34=292|49=MKDATAFHBCS2|52=20140729-14:32:03.997|56=LVDEVELOP5|10=132|
20140729-14:32:48.008: 8=FIX.4.4|9=67|35=0|34=271|49=LVDEVELOP5|52=20140729-14:32:48.008|56=MKDATAFHBCS2|10=121|
20140729-14:33:03.999: 8=FIX.4.4|9=67|35=0|34=293|49=MKDATAFHBCS2|52=20140729-14:33:03.999|56=LVDEVELOP5|10=136|
20140729-14:33:48.942: 8=FIX.4.4|9=67|35=0|34=272|49=LVDEVELOP5|52=20140729-14:33:48.942|56=MKDATAFHBCS2|10=130|
20140729-14:34:04.896: 8=FIX.4.4|9=67|35=0|34=294|49=MKDATAFHBCS2|52=20140729-14:34:04.896|56=LVDEVELOP5|10=135|
20140729-14:34:49.941: 8=FIX.4.4|9=67|35=0|34=273|49=LVDEVELOP5|52=20140729-14:34:49.941|56=MKDATAFHBCS2|10=132|
20140729-14:35:04.945: 8=FIX.4.4|9=67|35=0|34=295|49=MKDATAFHBCS2|52=20140729-14:35:04.945|56=LVDEVELOP5|10=132|
20140729-14:35:49.986: 8=FIX.4.4|9=67|35=0|34=274|49=LVDEVELOP5|52=20140729-14:35:49.986|56=MKDATAFHBCS2|10=143|
20140729-14:36:04.969: 8=FIX.4.4|9=67|35=0|34=296|49=MKDATAFHBCS2|52=20140729-14:36:04.969|56=LVDEVELOP5|10=140|
20140729-14:36:49.999: 8=FIX.4.4|9=67|35=0|34=275|49=LVDEVELOP5|52=20140729-14:36:49.999|56=MKDATAFHBCS2|10=149|
20140729-14:37:04.978: 8=FIX.4.4|9=67|35=0|34=297|49=MKDATAFHBCS2|52=20140729-14:37:04.978|56=LVDEVELOP5|10=142|
20140729-14:37:50.005: 8=FIX.4.4|9=67|35=0|34=276|49=LVDEVELOP5|52=20140729-14:37:50.005|56=MKDATAFHBCS2|10=121|
20140729-14:38:04.998: 8=FIX.4.4|9=67|35=0|34=298|49=MKDATAFHBCS2|52=20140729-14:38:04.998|56=LVDEVELOP5|10=146|
20140729-14:38:50.935: 8=FIX.4.4|9=67|35=0|34=277|49=LVDEVELOP5|52=20140729-14:38:50.935|56=MKDATAFHBCS2|10=135|
20140729-14:39:05.896: 8=FIX.4.4|9=67|35=0|34=299|49=MKDATAFHBCS2|52=20140729-14:39:05.896|56=LVDEVELOP5|10=146|
20140729-14:39:50.940: 8=FIX.4.4|9=67|35=0|34=278|49=LVDEVELOP5|52=20140729-14:39:50.940|56=MKDATAFHBCS2|10=133|
20140729-14:40:05.944: 8=FIX.4.4|9=67|35=0|34=300|49=MKDATAFHBCS2|52=20140729-14:40:05.944|56=LVDEVELOP5|10=115|
20140729-14:40:51.909: 8=FIX.4.4|9=67|35=0|34=279|49=LVDEVELOP5|52=20140729-14:40:51.909|56=MKDATAFHBCS2|10=132|
20140729-14:41:06.855: 8=FIX.4.4|9=67|35=0|34=301|49=MKDATAFHBCS2|52=20140729-14:41:06.855|56=LVDEVELOP5|10=119|
20140729-14:41:51.929: 8=FIX.4.4|9=67|35=0|34=280|49=LVDEVELOP5|52=20140729-14:41:51.929|56=MKDATAFHBCS2|10=127|
20140729-14:42:06.920: 8=FIX.4.4|9=67|35=0|34=302|49=MKDATAFHBCS2|52=20140729-14:42:06.920|56=LVDEVELOP5|10=114|