20150504-11:21:09.143: 8=FIX.4.4|9=69|35=5|34=1|49=LVBSG|52=20150504-11:21:09.140|56=ADR_ARBITRAGE_IB_XSGO|10=163|
20150504-11:21:09.174: 8=FIX.4.4|9=0163|35=5|49=ADR_ARBITRAGE_IB_XSGO|56=LVBSG|34=1|52=20150504-11:21:09|58=00100000004crxi_1891- CODE: 1-200-5: Expecting Logon but got Logout: disconnecting immediately|10=252|
20150504-11:21:09.224: 8=FIX.4.4|9=69|35=5|34=1|49=LVBSG|52=20150504-11:21:09.224|56=ADR_ARBITRAGE_IB_XSGO|10=166|
20150504-11:21:12.154: 8=FIX.4.4|9=87|35=A|34=1|49=LVBSG|52=20150504-11:21:12.153|56=ADR_ARBITRAGE_IB_XSGO|98=0|108=60|141=Y|10=246|
20150504-11:21:12.162: 8=FIX.4.4|9=0083|35=A|49=ADR_ARBITRAGE_IB_XSGO|56=LVBSG|34=1|52=20150504-11:21:12|98=0|108=60|141=Y|10=139|
20150504-11:21:49.141: 8=FIX.4.4|9=0093|35=1|49=ADR_ARBITRAGE_IB_XSGO|56=LVBSG|34=2|52=20150504-11:21:49|112=Appia-20150504-11:21:49|10=140|
20150504-11:21:49.148: 8=FIX.4.4|9=97|35=0|34=2|49=LVBSG|52=20150504-11:21:49.147|56=ADR_ARBITRAGE_IB_XSGO|112=Appia-20150504-11:21:49|10=249|
20150504-11:22:49.140: 8=FIX.4.4|9=0065|35=0|49=ADR_ARBITRAGE_IB_XSGO|56=LVBSG|34=3|52=20150504-11:22:49|10=062|
20150504-11:22:49.211: 8=FIX.4.4|9=69|35=0|34=3|49=LVBSG|52=20150504-11:22:49.211|56=ADR_ARBITRAGE_IB_XSGO|10=164|
20150504-11:23:49.140: 8=FIX.4.4|9=0065|35=0|49=ADR_ARBITRAGE_IB_XSGO|56=LVBSG|34=4|52=20150504-11:23:49|10=064|
20150504-11:23:50.293: 8=FIX.4.4|9=69|35=0|34=4|49=LVBSG|52=20150504-11:23:50.292|56=ADR_ARBITRAGE_IB_XSGO|10=167|
20150504-11:24:49.141: 8=FIX.4.4|9=0065|35=0|49=ADR_ARBITRAGE_IB_XSGO|56=LVBSG|34=5|52=20150504-11:24:49|10=066|
20150504-11:24:51.376: 8=FIX.4.4|9=69|35=0|34=5|49=LVBSG|52=20150504-11:24:51.375|56=ADR_ARBITRAGE_IB_XSGO|10=172|
20150504-11:25:49.142: 8=FIX.4.4|9=0065|35=0|49=ADR_ARBITRAGE_IB_XSGO|56=LVBSG|34=6|52=20150504-11:25:49|10=068|
20150504-11:25:52.449: 8=FIX.4.4|9=69|35=0|34=6|49=LVBSG|52=20150504-11:25:52.448|56=ADR_ARBITRAGE_IB_XSGO|10=176|
20150504-11:26:49.142: 8=FIX.4.4|9=0065|35=0|49=ADR_ARBITRAGE_IB_XSGO|56=LVBSG|34=7|52=20150504-11:26:49|10=070|
20150504-11:26:53.512: 8=FIX.4.4|9=69|35=0|34=7|49=LVBSG|52=20150504-11:26:53.512|56=ADR_ARBITRAGE_IB_XSGO|10=171|
20150504-11:27:49.141: 8=FIX.4.4|9=0065|35=0|49=ADR_ARBITRAGE_IB_XSGO|56=LVBSG|34=8|52=20150504-11:27:49|10=072|
20150504-11:27:54.591: 8=FIX.4.4|9=69|35=0|34=8|49=LVBSG|52=20150504-11:27:54.590|56=ADR_ARBITRAGE_IB_XSGO|10=180|
20150504-11:28:49.141: 8=FIX.4.4|9=0065|35=0|49=ADR_ARBITRAGE_IB_XSGO|56=LVBSG|34=9|52=20150504-11:28:49|10=074|
20150504-11:28:55.667: 8=FIX.4.4|9=69|35=0|34=9|49=LVBSG|52=20150504-11:28:55.666|56=ADR_ARBITRAGE_IB_XSGO|10=187|
20150504-11:29:49.141: 8=FIX.4.4|9=0066|35=0|49=ADR_ARBITRAGE_IB_XSGO|56=LVBSG|34=10|52=20150504-11:29:49|10=116|
20150504-11:29:56.754: 8=FIX.4.4|9=70|35=0|34=10|49=LVBSG|52=20150504-11:29:56.753|56=ADR_ARBITRAGE_IB_XSGO|10=218|
20150504-11:30:49.142: 8=FIX.4.4|9=0066|35=0|49=ADR_ARBITRAGE_IB_XSGO|56=LVBSG|34=11|52=20150504-11:30:49|10=109|
20150504-11:30:57.818: 8=FIX.4.4|9=70|35=0|34=11|49=LVBSG|52=20150504-11:30:57.817|56=ADR_ARBITRAGE_IB_XSGO|10=213|
20150504-11:31:49.142: 8=FIX.4.4|9=0066|35=0|49=ADR_ARBITRAGE_IB_XSGO|56=LVBSG|34=12|52=20150504-11:31:49|10=111|
20150504-11:31:58.886: 8=FIX.4.4|9=70|35=0|34=12|49=LVBSG|52=20150504-11:31:58.885|56=ADR_ARBITRAGE_IB_XSGO|10=221|
20150504-11:32:49.143: 8=FIX.4.4|9=0066|35=0|49=ADR_ARBITRAGE_IB_XSGO|56=LVBSG|34=13|52=20150504-11:32:49|10=113|
20150504-11:32:59.972: 8=FIX.4.4|9=70|35=0|34=13|49=LVBSG|52=20150504-11:32:59.971|56=ADR_ARBITRAGE_IB_XSGO|10=220|
20150504-11:33:49.143: 8=FIX.4.4|9=0066|35=0|49=ADR_ARBITRAGE_IB_XSGO|56=LVBSG|34=14|52=20150504-11:33:49|10=115|
20150504-11:34:01.054: 8=FIX.4.4|9=70|35=0|34=14|49=LVBSG|52=20150504-11:34:01.053|56=ADR_ARBITRAGE_IB_XSGO|10=201|
20150504-11:34:49.163: 8=FIX.4.4|9=0066|35=0|49=ADR_ARBITRAGE_IB_XSGO|56=LVBSG|34=15|52=20150504-11:34:49|10=117|
20150504-11:35:02.113: 8=FIX.4.4|9=70|35=0|34=15|49=LVBSG|52=20150504-11:35:02.112|56=ADR_ARBITRAGE_IB_XSGO|10=200|
20150504-11:35:49.155: 8=FIX.4.4|9=0066|35=0|49=ADR_ARBITRAGE_IB_XSGO|56=LVBSG|34=16|52=20150504-11:35:49|10=119|
20150504-11:36:03.183: 8=FIX.4.4|9=70|35=0|34=16|49=LVBSG|52=20150504-11:36:03.182|56=ADR_ARBITRAGE_IB_XSGO|10=210|
20150504-11:36:49.157: 8=FIX.4.4|9=0066|35=0|49=ADR_ARBITRAGE_IB_XSGO|56=LVBSG|34=17|52=20150504-11:36:49|10=121|
20150504-11:37:04.263: 8=FIX.4.4|9=70|35=0|34=17|49=LVBSG|52=20150504-11:37:04.263|56=ADR_ARBITRAGE_IB_XSGO|10=213|
20150504-11:37:49.159: 8=FIX.4.4|9=0066|35=0|49=ADR_ARBITRAGE_IB_XSGO|56=LVBSG|34=18|52=20150504-11:37:49|10=123|
20150504-11:38:05.336: 8=FIX.4.4|9=70|35=0|34=18|49=LVBSG|52=20150504-11:38:05.335|56=ADR_ARBITRAGE_IB_XSGO|10=216|
20150504-11:38:49.160: 8=FIX.4.4|9=0066|35=0|49=ADR_ARBITRAGE_IB_XSGO|56=LVBSG|34=19|52=20150504-11:38:49|10=125|
20150504-11:39:06.411: 8=FIX.4.4|9=70|35=0|34=19|49=LVBSG|52=20150504-11:39:06.410|56=ADR_ARBITRAGE_IB_XSGO|10=213|
20150504-11:39:49.163: 8=FIX.4.4|9=0066|35=0|49=ADR_ARBITRAGE_IB_XSGO|56=LVBSG|34=20|52=20150504-11:39:49|10=118|
20150504-11:40:07.479: 8=FIX.4.4|9=70|35=0|34=20|49=LVBSG|52=20150504-11:40:07.479|56=ADR_ARBITRAGE_IB_XSGO|10=213|
20150504-11:40:49.150: 8=FIX.4.4|9=0066|35=0|49=ADR_ARBITRAGE_IB_XSGO|56=LVBSG|34=21|52=20150504-11:40:49|10=111|
20150504-11:41:08.557: 8=FIX.4.4|9=70|35=0|34=21|49=LVBSG|52=20150504-11:41:08.556|56=ADR_ARBITRAGE_IB_XSGO|10=212|
20150504-11:41:49.153: 8=FIX.4.4|9=0066|35=0|49=ADR_ARBITRAGE_IB_XSGO|56=LVBSG|34=22|52=20150504-11:41:49|10=113|
20150504-11:42:09.635: 8=FIX.4.4|9=70|35=0|34=22|49=LVBSG|52=20150504-11:42:09.634|56=ADR_ARBITRAGE_IB_XSGO|10=212|
20150504-11:42:49.152: 8=FIX.4.4|9=0066|35=0|49=ADR_ARBITRAGE_IB_XSGO|56=LVBSG|34=23|52=20150504-11:42:49|10=115|
20150504-11:43:09.956: 8=FIX.4.4|9=70|35=0|34=23|49=LVBSG|52=20150504-11:43:09.955|56=ADR_ARBITRAGE_IB_XSGO|10=220|
20150504-11:43:49.149: 8=FIX.4.4|9=0066|35=0|49=ADR_ARBITRAGE_IB_XSGO|56=LVBSG|34=24|52=20150504-11:43:49|10=117|
20150504-11:44:10.955: 8=FIX.4.4|9=70|35=0|34=24|49=LVBSG|52=20150504-11:44:10.954|56=ADR_ARBITRAGE_IB_XSGO|10=213|
20150504-11:44:49.150: 8=FIX.4.4|9=0066|35=0|49=ADR_ARBITRAGE_IB_XSGO|56=LVBSG|34=25|52=20150504-11:44:49|10=119|
20150504-11:45:11.955: 8=FIX.4.4|9=70|35=0|34=25|49=LVBSG|52=20150504-11:45:11.954|56=ADR_ARBITRAGE_IB_XSGO|10=216|
20150504-11:45:49.149: 8=FIX.4.4|9=0066|35=0|49=ADR_ARBITRAGE_IB_XSGO|56=LVBSG|34=26|52=20150504-11:45:49|10=121|
20150504-11:46:12.270: 8=FIX.4.4|9=70|35=0|34=26|49=LVBSG|52=20150504-11:46:12.269|56=ADR_ARBITRAGE_IB_XSGO|10=218|
20150504-11:46:49.150: 8=FIX.4.4|9=0066|35=0|49=ADR_ARBITRAGE_IB_XSGO|56=LVBSG|34=27|52=20150504-11:46:49|10=123|
20150504-11:47:13.332: 8=FIX.4.4|9=70|35=0|34=27|49=LVBSG|52=20150504-11:47:13.332|56=ADR_ARBITRAGE_IB_XSGO|10=212|
20150504-11:47:49.152: 8=FIX.4.4|9=0066|35=0|49=ADR_ARBITRAGE_IB_XSGO|56=LVBSG|34=28|52=20150504-11:47:49|10=125|
20150504-11:48:14.403: 8=FIX.4.4|9=70|35=0|34=28|49=LVBSG|52=20150504-11:48:14.402|56=ADR_ARBITRAGE_IB_XSGO|10=213|
20150504-11:48:49.149: 8=FIX.4.4|9=0066|35=0|49=ADR_ARBITRAGE_IB_XSGO|56=LVBSG|34=29|52=20150504-11:48:49|10=127|
20150504-11:49:15.475: 8=FIX.4.4|9=70|35=0|34=29|49=LVBSG|52=20150504-11:49:15.474|56=ADR_ARBITRAGE_IB_XSGO|10=225|
20150504-11:49:49.149: 8=FIX.4.4|9=0066|35=0|49=ADR_ARBITRAGE_IB_XSGO|56=LVBSG|34=30|52=20150504-11:49:49|10=120|
20150504-11:50:16.550: 8=FIX.4.4|9=70|35=0|34=30|49=LVBSG|52=20150504-11:50:16.550|56=ADR_ARBITRAGE_IB_XSGO|10=205|
20150504-11:50:49.155: 8=FIX.4.4|9=0066|35=0|49=ADR_ARBITRAGE_IB_XSGO|56=LVBSG|34=31|52=20150504-11:50:49|10=113|
20150504-11:51:17.621: 8=FIX.4.4|9=70|35=0|34=31|49=LVBSG|52=20150504-11:51:17.620|56=ADR_ARBITRAGE_IB_XSGO|10=206|
20150504-11:51:49.149: 8=FIX.4.4|9=0066|35=0|49=ADR_ARBITRAGE_IB_XSGO|56=LVBSG|34=32|52=20150504-11:51:49|10=115|
20150504-11:52:18.700: 8=FIX.4.4|9=70|35=0|34=32|49=LVBSG|52=20150504-11:52:18.699|56=ADR_ARBITRAGE_IB_XSGO|10=225|
20150504-11:52:49.149: 8=FIX.4.4|9=0066|35=0|49=ADR_ARBITRAGE_IB_XSGO|56=LVBSG|34=33|52=20150504-11:52:49|10=117|
20150504-11:53:19.779: 8=FIX.4.4|9=70|35=0|34=33|49=LVBSG|52=20150504-11:53:19.778|56=ADR_ARBITRAGE_IB_XSGO|10=226|
20150504-11:53:49.150: 8=FIX.4.4|9=0066|35=0|49=ADR_ARBITRAGE_IB_XSGO|56=LVBSG|34=34|52=20150504-11:53:49|10=119|
20150504-11:54:20.851: 8=FIX.4.4|9=70|35=0|34=34|49=LVBSG|52=20150504-11:54:20.850|56=ADR_ARBITRAGE_IB_XSGO|10=211|
20150504-11:54:49.151: 8=FIX.4.4|9=0066|35=0|49=ADR_ARBITRAGE_IB_XSGO|56=LVBSG|34=35|52=20150504-11:54:49|10=121|
20150504-11:55:21.931: 8=FIX.4.4|9=70|35=0|34=35|49=LVBSG|52=20150504-11:55:21.930|56=ADR_ARBITRAGE_IB_XSGO|10=213|
20150504-11:55:49.154: 8=FIX.4.4|9=0066|35=0|49=ADR_ARBITRAGE_IB_XSGO|56=LVBSG|34=36|52=20150504-11:55:49|10=123|
20150504-11:56:23.009: 8=FIX.4.4|9=70|35=0|34=36|49=LVBSG|52=20150504-11:56:23.008|56=ADR_ARBITRAGE_IB_XSGO|10=213|
20150504-11:56:49.152: 8=FIX.4.4|9=0066|35=0|49=ADR_ARBITRAGE_IB_XSGO|56=LVBSG|34=37|52=20150504-11:56:49|10=125|
20150504-11:57:24.090: 8=FIX.4.4|9=70|35=0|34=37|49=LVBSG|52=20150504-11:57:24.090|56=ADR_ARBITRAGE_IB_XSGO|10=217|
20150504-11:57:49.151: 8=FIX.4.4|9=0066|35=0|49=ADR_ARBITRAGE_IB_XSGO|56=LVBSG|34=38|52=20150504-11:57:49|10=127|
20150504-11:58:25.155: 8=FIX.4.4|9=70|35=0|34=38|49=LVBSG|52=20150504-11:58:25.154|56=ADR_ARBITRAGE_IB_XSGO|10=221|
20150504-11:58:49.151: 8=FIX.4.4|9=0066|35=0|49=ADR_ARBITRAGE_IB_XSGO|56=LVBSG|34=39|52=20150504-11:58:49|10=129|
20150504-11:59:26.235: 8=FIX.4.4|9=70|35=0|34=39|49=LVBSG|52=20150504-11:59:26.235|56=ADR_ARBITRAGE_IB_XSGO|10=224|
20150504-11:59:49.153: 8=FIX.4.4|9=0066|35=0|49=ADR_ARBITRAGE_IB_XSGO|56=LVBSG|34=40|52=20150504-11:59:49|10=122|
20150504-12:00:27.310: 8=FIX.4.4|9=70|35=0|34=40|49=LVBSG|52=20150504-12:00:27.309|56=ADR_ARBITRAGE_IB_XSGO|10=206|
20150504-12:00:49.152: 8=FIX.4.4|9=0066|35=0|49=ADR_ARBITRAGE_IB_XSGO|56=LVBSG|34=41|52=20150504-12:00:49|10=110|
20150504-12:01:28.386: 8=FIX.4.4|9=70|35=0|34=41|49=LVBSG|52=20150504-12:01:28.385|56=ADR_ARBITRAGE_IB_XSGO|10=213|
20150504-12:01:49.157: 8=FIX.4.4|9=0066|35=0|49=ADR_ARBITRAGE_IB_XSGO|56=LVBSG|34=42|52=20150504-12:01:49|10=112|
20150504-12:02:29.452: 8=FIX.4.4|9=70|35=0|34=42|49=LVBSG|52=20150504-12:02:29.451|56=ADR_ARBITRAGE_IB_XSGO|10=210|
20150504-12:02:49.153: 8=FIX.4.4|9=0066|35=0|49=ADR_ARBITRAGE_IB_XSGO|56=LVBSG|34=43|52=20150504-12:02:49|10=114|
20150504-12:03:30.524: 8=FIX.4.4|9=70|35=0|34=43|49=LVBSG|52=20150504-12:03:30.523|56=ADR_ARBITRAGE_IB_XSGO|10=204|
20150504-12:03:49.153: 8=FIX.4.4|9=0066|35=0|49=ADR_ARBITRAGE_IB_XSGO|56=LVBSG|34=44|52=20150504-12:03:49|10=116|
20150504-12:04:31.599: 8=FIX.4.4|9=70|35=0|34=44|49=LVBSG|52=20150504-12:04:31.599|56=ADR_ARBITRAGE_IB_XSGO|10=220|
20150504-12:04:49.154: 8=FIX.4.4|9=0066|35=0|49=ADR_ARBITRAGE_IB_XSGO|56=LVBSG|34=45|52=20150504-12:04:49|10=118|
20150504-12:05:32.650: 8=FIX.4.4|9=70|35=0|34=45|49=LVBSG|52=20150504-12:05:32.650|56=ADR_ARBITRAGE_IB_XSGO|10=211|
20150504-12:05:49.154: 8=FIX.4.4|9=0066|35=0|49=ADR_ARBITRAGE_IB_XSGO|56=LVBSG|34=46|52=20150504-12:05:49|10=120|
20150504-12:06:33.727: 8=FIX.4.4|9=70|35=0|34=46|49=LVBSG|52=20150504-12:06:33.727|56=ADR_ARBITRAGE_IB_XSGO|10=219|
20150504-12:06:49.157: 8=FIX.4.4|9=0066|35=0|49=ADR_ARBITRAGE_IB_XSGO|56=LVBSG|34=47|52=20150504-12:06:49|10=122|
20150504-12:07:34.792: 8=FIX.4.4|9=70|35=0|34=47|49=LVBSG|52=20150504-12:07:34.791|56=ADR_ARBITRAGE_IB_XSGO|10=223|
20150504-12:07:49.153: 8=FIX.4.4|9=0066|35=0|49=ADR_ARBITRAGE_IB_XSGO|56=LVBSG|34=48|52=20150504-12:07:49|10=124|
20150504-12:08:35.843: 8=FIX.4.4|9=70|35=0|34=48|49=LVBSG|52=20150504-12:08:35.842|56=ADR_ARBITRAGE_IB_XSGO|10=223|
20150504-12:08:49.156: 8=FIX.4.4|9=0066|35=0|49=ADR_ARBITRAGE_IB_XSGO|56=LVBSG|34=49|52=20150504-12:08:49|10=126|
20150504-12:09:36.905: 8=FIX.4.4|9=70|35=0|34=49|49=LVBSG|52=20150504-12:09:36.904|56=ADR_ARBITRAGE_IB_XSGO|10=225|
20150504-12:09:49.153: 8=FIX.4.4|9=0066|35=0|49=ADR_ARBITRAGE_IB_XSGO|56=LVBSG|34=50|52=20150504-12:09:49|10=119|
20150504-12:10:37.961: 8=FIX.4.4|9=70|35=0|34=50|49=LVBSG|52=20150504-12:10:37.960|56=ADR_ARBITRAGE_IB_XSGO|10=212|
20150504-12:10:49.156: 8=FIX.4.4|9=0066|35=0|49=ADR_ARBITRAGE_IB_XSGO|56=LVBSG|34=51|52=20150504-12:10:49|10=112|
20150504-12:11:39.059: 8=FIX.4.4|9=70|35=0|34=51|49=LVBSG|52=20150504-12:11:39.058|56=ADR_ARBITRAGE_IB_XSGO|10=214|
20150504-12:11:49.154: 8=FIX.4.4|9=0066|35=0|49=ADR_ARBITRAGE_IB_XSGO|56=LVBSG|34=52|52=20150504-12:11:49|10=114|
20150504-12:12:40.113: 8=FIX.4.4|9=70|35=0|34=52|49=LVBSG|52=20150504-12:12:40.112|56=ADR_ARBITRAGE_IB_XSGO|10=199|
20150504-12:12:49.155: 8=FIX.4.4|9=0066|35=0|49=ADR_ARBITRAGE_IB_XSGO|56=LVBSG|34=53|52=20150504-12:12:49|10=116|
20150504-12:13:41.180: 8=FIX.4.4|9=70|35=0|34=53|49=LVBSG|52=20150504-12:13:41.180|56=ADR_ARBITRAGE_IB_XSGO|10=207|
20150504-12:13:49.159: 8=FIX.4.4|9=0066|35=0|49=ADR_ARBITRAGE_IB_XSGO|56=LVBSG|34=54|52=20150504-12:13:49|10=118|
20150504-12:14:42.242: 8=FIX.4.4|9=70|35=0|34=54|49=LVBSG|52=20150504-12:14:42.241|56=ADR_ARBITRAGE_IB_XSGO|10=208|
20150504-12:14:49.156: 8=FIX.4.4|9=0066|35=0|49=ADR_ARBITRAGE_IB_XSGO|56=LVBSG|34=55|52=20150504-12:14:49|10=120|
20150504-12:15:43.307: 8=FIX.4.4|9=70|35=0|34=55|49=LVBSG|52=20150504-12:15:43.306|56=ADR_ARBITRAGE_IB_XSGO|10=213|
20150504-12:15:49.158: 8=FIX.4.4|9=0066|35=0|49=ADR_ARBITRAGE_IB_XSGO|56=LVBSG|34=56|52=20150504-12:15:49|10=122|
20150504-12:16:44.375: 8=FIX.4.4|9=70|35=0|34=56|49=LVBSG|52=20150504-12:16:44.375|56=ADR_ARBITRAGE_IB_XSGO|10=222|
20150504-12:16:49.157: 8=FIX.4.4|9=0066|35=0|49=ADR_ARBITRAGE_IB_XSGO|56=LVBSG|34=57|52=20150504-12:16:49|10=124|
20150504-12:17:45.412: 8=FIX.4.4|9=70|35=0|34=57|49=LVBSG|52=20150504-12:17:45.411|56=ADR_ARBITRAGE_IB_XSGO|10=216|
20150504-12:17:49.157: 8=FIX.4.4|9=0066|35=0|49=ADR_ARBITRAGE_IB_XSGO|56=LVBSG|34=58|52=20150504-12:17:49|10=126|
20150504-12:18:46.479: 8=FIX.4.4|9=70|35=0|34=58|49=LVBSG|52=20150504-12:18:46.478|56=ADR_ARBITRAGE_IB_XSGO|10=232|
20150504-12:18:49.157: 8=FIX.4.4|9=0066|35=0|49=ADR_ARBITRAGE_IB_XSGO|56=LVBSG|34=59|52=20150504-12:18:49|10=128|
20150504-12:19:47.542: 8=FIX.4.4|9=70|35=0|34=59|49=LVBSG|52=20150504-12:19:47.541|56=ADR_ARBITRAGE_IB_XSGO|10=226|
20150504-12:19:49.158: 8=FIX.4.4|9=0066|35=0|49=ADR_ARBITRAGE_IB_XSGO|56=LVBSG|34=60|52=20150504-12:19:49|10=121|
20150504-12:20:48.596: 8=FIX.4.4|9=70|35=0|34=60|49=LVBSG|52=20150504-12:20:48.595|56=ADR_ARBITRAGE_IB_XSGO|10=220|
20150504-12:20:49.158: 8=FIX.4.4|9=0066|35=0|49=ADR_ARBITRAGE_IB_XSGO|56=LVBSG|34=61|52=20150504-12:20:49|10=114|
20150504-12:21:49.158: 8=FIX.4.4|9=0066|35=0|49=ADR_ARBITRAGE_IB_XSGO|56=LVBSG|34=62|52=20150504-12:21:49|10=116|
20150504-12:21:49.160: 8=FIX.4.4|9=70|35=0|34=61|49=LVBSG|52=20150504-12:21:49.159|56=ADR_ARBITRAGE_IB_XSGO|10=219|
20150504-12:22:49.158: 8=FIX.4.4|9=0066|35=0|49=ADR_ARBITRAGE_IB_XSGO|56=LVBSG|34=63|52=20150504-12:22:49|10=118|
20150504-12:22:49.161: 8=FIX.4.4|9=70|35=0|34=62|49=LVBSG|52=20150504-12:22:49.161|56=ADR_ARBITRAGE_IB_XSGO|10=214|
20150504-12:23:49.162: 8=FIX.4.4|9=0066|35=0|49=ADR_ARBITRAGE_IB_XSGO|56=LVBSG|34=64|52=20150504-12:23:49|10=120|
20150504-12:23:49.164: 8=FIX.4.4|9=70|35=0|34=63|49=LVBSG|52=20150504-12:23:49.164|56=ADR_ARBITRAGE_IB_XSGO|10=219|
20150504-12:24:49.158: 8=FIX.4.4|9=0066|35=0|49=ADR_ARBITRAGE_IB_XSGO|56=LVBSG|34=65|52=20150504-12:24:49|10=122|
20150504-12:24:49.830: 8=FIX.4.4|9=70|35=0|34=64|49=LVBSG|52=20150504-12:24:49.830|56=ADR_ARBITRAGE_IB_XSGO|10=221|
20150504-12:25:49.158: 8=FIX.4.4|9=0066|35=0|49=ADR_ARBITRAGE_IB_XSGO|56=LVBSG|34=66|52=20150504-12:25:49|10=124|
20150504-12:25:50.894: 8=FIX.4.4|9=70|35=0|34=65|49=LVBSG|52=20150504-12:25:50.893|56=ADR_ARBITRAGE_IB_XSGO|10=224|
20150504-12:26:49.160: 8=FIX.4.4|9=0066|35=0|49=ADR_ARBITRAGE_IB_XSGO|56=LVBSG|34=67|52=20150504-12:26:49|10=126|
20150504-12:26:51.936: 8=FIX.4.4|9=70|35=0|34=66|49=LVBSG|52=20150504-12:26:51.936|56=ADR_ARBITRAGE_IB_XSGO|10=225|
20150504-12:27:49.158: 8=FIX.4.4|9=0066|35=0|49=ADR_ARBITRAGE_IB_XSGO|56=LVBSG|34=68|52=20150504-12:27:49|10=128|
20150504-12:27:52.986: 8=FIX.4.4|9=70|35=0|34=67|49=LVBSG|52=20150504-12:27:52.985|56=ADR_ARBITRAGE_IB_XSGO|10=232|
20150504-12:28:49.158: 8=FIX.4.4|9=0066|35=0|49=ADR_ARBITRAGE_IB_XSGO|56=LVBSG|34=69|52=20150504-12:28:49|10=130|
20150504-12:28:54.044: 8=FIX.4.4|9=70|35=0|34=68|49=LVBSG|52=20150504-12:28:54.044|56=ADR_ARBITRAGE_IB_XSGO|10=222|
20150504-12:29:49.158: 8=FIX.4.4|9=0066|35=0|49=ADR_ARBITRAGE_IB_XSGO|56=LVBSG|34=70|52=20150504-12:29:49|10=123|
20150504-12:29:55.100: 8=FIX.4.4|9=70|35=0|34=69|49=LVBSG|52=20150504-12:29:55.099|56=ADR_ARBITRAGE_IB_XSGO|10=235|
20150504-12:30:49.159: 8=FIX.4.4|9=0066|35=0|49=ADR_ARBITRAGE_IB_XSGO|56=LVBSG|34=71|52=20150504-12:30:49|10=116|
20150504-12:30:55.955: 8=FIX.4.4|9=70|35=0|34=70|49=LVBSG|52=20150504-12:30:55.954|56=ADR_ARBITRAGE_IB_XSGO|10=219|
20150504-12:31:49.158: 8=FIX.4.4|9=0066|35=0|49=ADR_ARBITRAGE_IB_XSGO|56=LVBSG|34=72|52=20150504-12:31:49|10=118|
20150504-12:31:55.954: 8=FIX.4.4|9=70|35=0|34=71|49=LVBSG|52=20150504-12:31:55.954|56=ADR_ARBITRAGE_IB_XSGO|10=221|
20150504-12:32:49.161: 8=FIX.4.4|9=0066|35=0|49=ADR_ARBITRAGE_IB_XSGO|56=LVBSG|34=73|52=20150504-12:32:49|10=120|
20150504-12:32:56.954: 8=FIX.4.4|9=70|35=0|34=72|49=LVBSG|52=20150504-12:32:56.953|56=ADR_ARBITRAGE_IB_XSGO|10=223|
20150504-12:33:49.160: 8=FIX.4.4|9=0066|35=0|49=ADR_ARBITRAGE_IB_XSGO|56=LVBSG|34=74|52=20150504-12:33:49|10=122|
20150504-12:33:56.954: 8=FIX.4.4|9=70|35=0|34=73|49=LVBSG|52=20150504-12:33:56.954|56=ADR_ARBITRAGE_IB_XSGO|10=226|
20150504-12:34:49.164: 8=FIX.4.4|9=0066|35=0|49=ADR_ARBITRAGE_IB_XSGO|56=LVBSG|34=75|52=20150504-12:34:49|10=124|
20150504-12:34:56.954: 8=FIX.4.4|9=70|35=0|34=74|49=LVBSG|52=20150504-12:34:56.953|56=ADR_ARBITRAGE_IB_XSGO|10=227|
20150504-12:35:49.161: 8=FIX.4.4|9=0066|35=0|49=ADR_ARBITRAGE_IB_XSGO|56=LVBSG|34=76|52=20150504-12:35:49|10=126|
20150504-12:35:56.954: 8=FIX.4.4|9=70|35=0|34=75|49=LVBSG|52=20150504-12:35:56.954|56=ADR_ARBITRAGE_IB_XSGO|10=230|
20150504-12:36:49.161: 8=FIX.4.4|9=0066|35=0|49=ADR_ARBITRAGE_IB_XSGO|56=LVBSG|34=77|52=20150504-12:36:49|10=128|
20150504-12:36:57.954: 8=FIX.4.4|9=70|35=0|34=76|49=LVBSG|52=20150504-12:36:57.953|56=ADR_ARBITRAGE_IB_XSGO|10=232|
20150504-12:37:49.165: 8=FIX.4.4|9=0066|35=0|49=ADR_ARBITRAGE_IB_XSGO|56=LVBSG|34=78|52=20150504-12:37:49|10=130|
20150504-12:37:57.954: 8=FIX.4.4|9=70|35=0|34=77|49=LVBSG|52=20150504-12:37:57.954|56=ADR_ARBITRAGE_IB_XSGO|10=235|
20150504-12:38:49.165: 8=FIX.4.4|9=0066|35=0|49=ADR_ARBITRAGE_IB_XSGO|56=LVBSG|34=79|52=20150504-12:38:49|10=132|
20150504-12:38:58.954: 8=FIX.4.4|9=70|35=0|34=78|49=LVBSG|52=20150504-12:38:58.953|56=ADR_ARBITRAGE_IB_XSGO|10=237|
20150504-12:39:49.165: 8=FIX.4.4|9=0066|35=0|49=ADR_ARBITRAGE_IB_XSGO|56=LVBSG|34=80|52=20150504-12:39:49|10=125|
20150504-12:39:58.953: 8=FIX.4.4|9=70|35=0|34=79|49=LVBSG|52=20150504-12:39:58.953|56=ADR_ARBITRAGE_IB_XSGO|10=239|
20150504-12:40:49.162: 8=FIX.4.4|9=0066|35=0|49=ADR_ARBITRAGE_IB_XSGO|56=LVBSG|34=81|52=20150504-12:40:49|10=118|
20150504-12:40:58.955: 8=FIX.4.4|9=70|35=0|34=80|49=LVBSG|52=20150504-12:40:58.954|56=ADR_ARBITRAGE_IB_XSGO|10=224|
20150504-12:41:49.166: 8=FIX.4.4|9=0066|35=0|49=ADR_ARBITRAGE_IB_XSGO|56=LVBSG|34=82|52=20150504-12:41:49|10=120|
20150504-12:41:59.954: 8=FIX.4.4|9=70|35=0|34=81|49=LVBSG|52=20150504-12:41:59.954|56=ADR_ARBITRAGE_IB_XSGO|10=227|
20150504-12:42:49.185: 8=FIX.4.4|9=0066|35=0|49=ADR_ARBITRAGE_IB_XSGO|56=LVBSG|34=83|52=20150504-12:42:49|10=122|
20150504-12:43:00.955: 8=FIX.4.4|9=70|35=0|34=82|49=LVBSG|52=20150504-12:43:00.954|56=ADR_ARBITRAGE_IB_XSGO|10=216|
20150504-12:43:49.171: 8=FIX.4.4|9=0066|35=0|49=ADR_ARBITRAGE_IB_XSGO|56=LVBSG|34=84|52=20150504-12:43:49|10=124|
20150504-12:44:01.954: 8=FIX.4.4|9=70|35=0|34=83|49=LVBSG|52=20150504-12:44:01.953|56=ADR_ARBITRAGE_IB_XSGO|10=218|
20150504-12:44:49.167: 8=FIX.4.4|9=0066|35=0|49=ADR_ARBITRAGE_IB_XSGO|56=LVBSG|34=85|52=20150504-12:44:49|10=126|
20150504-12:45:01.954: 8=FIX.4.4|9=70|35=0|34=84|49=LVBSG|52=20150504-12:45:01.954|56=ADR_ARBITRAGE_IB_XSGO|10=221|
20150504-12:45:49.167: 8=FIX.4.4|9=0066|35=0|49=ADR_ARBITRAGE_IB_XSGO|56=LVBSG|34=86|52=20150504-12:45:49|10=128|
20150504-12:46:02.953: 8=FIX.4.4|9=70|35=0|34=85|49=LVBSG|52=20150504-12:46:02.953|56=ADR_ARBITRAGE_IB_XSGO|10=223|
20150504-12:46:49.168: 8=FIX.4.4|9=0066|35=0|49=ADR_ARBITRAGE_IB_XSGO|56=LVBSG|34=87|52=20150504-12:46:49|10=130|
20150504-12:47:02.954: 8=FIX.4.4|9=70|35=0|34=86|49=LVBSG|52=20150504-12:47:02.954|56=ADR_ARBITRAGE_IB_XSGO|10=226|
20150504-12:47:49.167: 8=FIX.4.4|9=0066|35=0|49=ADR_ARBITRAGE_IB_XSGO|56=LVBSG|34=88|52=20150504-12:47:49|10=132|
20150504-12:48:02.954: 8=FIX.4.4|9=70|35=0|34=87|49=LVBSG|52=20150504-12:48:02.954|56=ADR_ARBITRAGE_IB_XSGO|10=228|
20150504-12:48:49.168: 8=FIX.4.4|9=0066|35=0|49=ADR_ARBITRAGE_IB_XSGO|56=LVBSG|34=89|52=20150504-12:48:49|10=134|
20150504-12:49:03.954: 8=FIX.4.4|9=70|35=0|34=88|49=LVBSG|52=20150504-12:49:03.954|56=ADR_ARBITRAGE_IB_XSGO|10=231|
20150504-12:49:49.169: 8=FIX.4.4|9=0066|35=0|49=ADR_ARBITRAGE_IB_XSGO|56=LVBSG|34=90|52=20150504-12:49:49|10=127|
20150504-12:50:04.954: 8=FIX.4.4|9=70|35=0|34=89|49=LVBSG|52=20150504-12:50:04.953|56=ADR_ARBITRAGE_IB_XSGO|10=224|
20150504-12:50:49.168: 8=FIX.4.4|9=0066|35=0|49=ADR_ARBITRAGE_IB_XSGO|56=LVBSG|34=91|52=20150504-12:50:49|10=120|
20150504-12:51:04.954: 8=FIX.4.4|9=70|35=0|34=90|49=LVBSG|52=20150504-12:51:04.954|56=ADR_ARBITRAGE_IB_XSGO|10=218|
20150504-12:51:49.167: 8=FIX.4.4|9=0066|35=0|49=ADR_ARBITRAGE_IB_XSGO|56=LVBSG|34=92|52=20150504-12:51:49|10=122|
20150504-12:52:05.954: 8=FIX.4.4|9=70|35=0|34=91|49=LVBSG|52=20150504-12:52:05.954|56=ADR_ARBITRAGE_IB_XSGO|10=221|
20150504-12:52:49.169: 8=FIX.4.4|9=0066|35=0|49=ADR_ARBITRAGE_IB_XSGO|56=LVBSG|34=93|52=20150504-12:52:49|10=124|
20150504-12:53:06.954: 8=FIX.4.4|9=70|35=0|34=92|49=LVBSG|52=20150504-12:53:06.953|56=ADR_ARBITRAGE_IB_XSGO|10=223|
20150504-12:53:49.169: 8=FIX.4.4|9=0066|35=0|49=ADR_ARBITRAGE_IB_XSGO|56=LVBSG|34=94|52=20150504-12:53:49|10=126|
20150504-12:54:06.954: 8=FIX.4.4|9=70|35=0|34=93|49=LVBSG|52=20150504-12:54:06.953|56=ADR_ARBITRAGE_IB_XSGO|10=225|
20150504-12:54:49.169: 8=FIX.4.4|9=0066|35=0|49=ADR_ARBITRAGE_IB_XSGO|56=LVBSG|34=95|52=20150504-12:54:49|10=128|
20150504-12:55:06.954: 8=FIX.4.4|9=70|35=0|34=94|49=LVBSG|52=20150504-12:55:06.953|56=ADR_ARBITRAGE_IB_XSGO|10=227|
20150504-12:55:49.170: 8=FIX.4.4|9=0066|35=0|49=ADR_ARBITRAGE_IB_XSGO|56=LVBSG|34=96|52=20150504-12:55:49|10=130|
20150504-12:56:06.954: 8=FIX.4.4|9=70|35=0|34=95|49=LVBSG|52=20150504-12:56:06.953|56=ADR_ARBITRAGE_IB_XSGO|10=229|
20150504-12:56:49.170: 8=FIX.4.4|9=0066|35=0|49=ADR_ARBITRAGE_IB_XSGO|56=LVBSG|34=97|52=20150504-12:56:49|10=132|
20150504-12:57:06.954: 8=FIX.4.4|9=70|35=0|34=96|49=LVBSG|52=20150504-12:57:06.954|56=ADR_ARBITRAGE_IB_XSGO|10=232|
20150504-12:57:49.171: 8=FIX.4.4|9=0066|35=0|49=ADR_ARBITRAGE_IB_XSGO|56=LVBSG|34=98|52=20150504-12:57:49|10=134|
20150504-12:58:07.954: 8=FIX.4.4|9=70|35=0|34=97|49=LVBSG|52=20150504-12:58:07.954|56=ADR_ARBITRAGE_IB_XSGO|10=235|
20150504-12:58:49.171: 8=FIX.4.4|9=0066|35=0|49=ADR_ARBITRAGE_IB_XSGO|56=LVBSG|34=99|52=20150504-12:58:49|10=136|
20150504-12:59:08.954: 8=FIX.4.4|9=70|35=0|34=98|49=LVBSG|52=20150504-12:59:08.954|56=ADR_ARBITRAGE_IB_XSGO|10=238|
20150504-12:59:49.171: 8=FIX.4.4|9=0067|35=0|49=ADR_ARBITRAGE_IB_XSGO|56=LVBSG|34=100|52=20150504-12:59:49|10=169|
20150504-13:00:09.954: 8=FIX.4.4|9=70|35=0|34=99|49=LVBSG|52=20150504-13:00:09.954|56=ADR_ARBITRAGE_IB_XSGO|10=227|
20150504-13:00:49.171: 8=FIX.4.4|9=0067|35=0|49=ADR_ARBITRAGE_IB_XSGO|56=LVBSG|34=101|52=20150504-13:00:49|10=157|
20150504-13:01:10.953: 8=FIX.4.4|9=71|35=0|34=100|49=LVBSG|52=20150504-13:01:10.953|56=ADR_ARBITRAGE_IB_XSGO|10=251|
20150504-13:01:49.171: 8=FIX.4.4|9=0067|35=0|49=ADR_ARBITRAGE_IB_XSGO|56=LVBSG|34=102|52=20150504-13:01:49|10=159|
20150504-13:02:10.954: 8=FIX.4.4|9=71|35=0|34=101|49=LVBSG|52=20150504-13:02:10.954|56=ADR_ARBITRAGE_IB_XSGO|10=254|
20150504-13:02:49.171: 8=FIX.4.4|9=0067|35=0|49=ADR_ARBITRAGE_IB_XSGO|56=LVBSG|34=103|52=20150504-13:02:49|10=161|
20150504-13:03:11.955: 8=FIX.4.4|9=71|35=0|34=102|49=LVBSG|52=20150504-13:03:11.954|56=ADR_ARBITRAGE_IB_XSGO|10=001|
20150504-13:03:49.176: 8=FIX.4.4|9=0067|35=0|49=ADR_ARBITRAGE_IB_XSGO|56=LVBSG|34=104|52=20150504-13:03:49|10=163|
20150504-13:04:12.954: 8=FIX.4.4|9=71|35=0|34=103|49=LVBSG|52=20150504-13:04:12.954|56=ADR_ARBITRAGE_IB_XSGO|10=004|
20150504-13:04:49.178: 8=FIX.4.4|9=0067|35=0|49=ADR_ARBITRAGE_IB_XSGO|56=LVBSG|34=105|52=20150504-13:04:49|10=165|
20150504-13:05:13.954: 8=FIX.4.4|9=71|35=0|34=104|49=LVBSG|52=20150504-13:05:13.953|56=ADR_ARBITRAGE_IB_XSGO|10=006|
20150504-13:05:49.175: 8=FIX.4.4|9=0067|35=0|49=ADR_ARBITRAGE_IB_XSGO|56=LVBSG|34=106|52=20150504-13:05:49|10=167|
20150504-13:06:13.954: 8=FIX.4.4|9=71|35=0|34=105|49=LVBSG|52=20150504-13:06:13.954|56=ADR_ARBITRAGE_IB_XSGO|10=009|
20150504-13:06:49.172: 8=FIX.4.4|9=0067|35=0|49=ADR_ARBITRAGE_IB_XSGO|56=LVBSG|34=107|52=20150504-13:06:49|10=169|
20150504-13:07:14.954: 8=FIX.4.4|9=71|35=0|34=106|49=LVBSG|52=20150504-13:07:14.953|56=ADR_ARBITRAGE_IB_XSGO|10=011|
20150504-13:07:49.174: 8=FIX.4.4|9=0067|35=0|49=ADR_ARBITRAGE_IB_XSGO|56=LVBSG|34=108|52=20150504-13:07:49|10=171|
20150504-13:08:14.954: 8=FIX.4.4|9=71|35=0|34=107|49=LVBSG|52=20150504-13:08:14.954|56=ADR_ARBITRAGE_IB_XSGO|10=014|
20150504-13:08:49.175: 8=FIX.4.4|9=0067|35=0|49=ADR_ARBITRAGE_IB_XSGO|56=LVBSG|34=109|52=20150504-13:08:49|10=173|
20150504-13:09:15.954: 8=FIX.4.4|9=71|35=0|34=108|49=LVBSG|52=20150504-13:09:15.954|56=ADR_ARBITRAGE_IB_XSGO|10=017|
20150504-13:09:49.180: 8=FIX.4.4|9=0067|35=0|49=ADR_ARBITRAGE_IB_XSGO|56=LVBSG|34=110|52=20150504-13:09:49|10=166|
20150504-13:10:16.954: 8=FIX.4.4|9=71|35=0|34=109|49=LVBSG|52=20150504-13:10:16.954|56=ADR_ARBITRAGE_IB_XSGO|10=011|
20150504-13:10:49.174: 8=FIX.4.4|9=0067|35=0|49=ADR_ARBITRAGE_IB_XSGO|56=LVBSG|34=111|52=20150504-13:10:49|10=159|
20150504-13:11:17.954: 8=FIX.4.4|9=71|35=0|34=110|49=LVBSG|52=20150504-13:11:17.954|56=ADR_ARBITRAGE_IB_XSGO|10=005|
20150504-13:11:49.174: 8=FIX.4.4|9=0067|35=0|49=ADR_ARBITRAGE_IB_XSGO|56=LVBSG|34=112|52=20150504-13:11:49|10=161|
20150504-13:12:17.954: 8=FIX.4.4|9=71|35=0|34=111|49=LVBSG|52=20150504-13:12:17.954|56=ADR_ARBITRAGE_IB_XSGO|10=007|
20150504-13:12:49.173: 8=FIX.4.4|9=0067|35=0|49=ADR_ARBITRAGE_IB_XSGO|56=LVBSG|34=113|52=20150504-13:12:49|10=163|
20150504-13:13:18.954: 8=FIX.4.4|9=71|35=0|34=112|49=LVBSG|52=20150504-13:13:18.953|56=ADR_ARBITRAGE_IB_XSGO|10=009|
20150504-13:13:49.174: 8=FIX.4.4|9=0067|35=0|49=ADR_ARBITRAGE_IB_XSGO|56=LVBSG|34=114|52=20150504-13:13:49|10=165|
20150504-13:14:18.955: 8=FIX.4.4|9=71|35=0|34=113|49=LVBSG|52=20150504-13:14:18.954|56=ADR_ARBITRAGE_IB_XSGO|10=012|
20150504-13:14:49.173: 8=FIX.4.4|9=0067|35=0|49=ADR_ARBITRAGE_IB_XSGO|56=LVBSG|34=115|52=20150504-13:14:49|10=167|
20150504-13:15:18.954: 8=FIX.4.4|9=71|35=0|34=114|49=LVBSG|52=20150504-13:15:18.954|56=ADR_ARBITRAGE_IB_XSGO|10=014|
20150504-13:15:49.186: 8=FIX.4.4|9=0067|35=0|49=ADR_ARBITRAGE_IB_XSGO|56=LVBSG|34=116|52=20150504-13:15:49|10=169|
20150504-13:16:18.954: 8=FIX.4.4|9=71|35=0|34=115|49=LVBSG|52=20150504-13:16:18.954|56=ADR_ARBITRAGE_IB_XSGO|10=016|
20150504-13:16:49.174: 8=FIX.4.4|9=0067|35=0|49=ADR_ARBITRAGE_IB_XSGO|56=LVBSG|34=117|52=20150504-13:16:49|10=171|
20150504-13:17:19.954: 8=FIX.4.4|9=71|35=0|34=116|49=LVBSG|52=20150504-13:17:19.954|56=ADR_ARBITRAGE_IB_XSGO|10=019|
20150504-13:17:49.174: 8=FIX.4.4|9=0067|35=0|49=ADR_ARBITRAGE_IB_XSGO|56=LVBSG|34=118|52=20150504-13:17:49|10=173|
20150504-13:18:20.954: 8=FIX.4.4|9=71|35=0|34=117|49=LVBSG|52=20150504-13:18:20.954|56=ADR_ARBITRAGE_IB_XSGO|10=013|
20150504-13:18:49.175: 8=FIX.4.4|9=0067|35=0|49=ADR_ARBITRAGE_IB_XSGO|56=LVBSG|34=119|52=20150504-13:18:49|10=175|
20150504-13:19:20.955: 8=FIX.4.4|9=71|35=0|34=118|49=LVBSG|52=20150504-13:19:20.954|56=ADR_ARBITRAGE_IB_XSGO|10=015|
20150504-13:19:49.177: 8=FIX.4.4|9=0067|35=0|49=ADR_ARBITRAGE_IB_XSGO|56=LVBSG|34=120|52=20150504-13:19:49|10=168|
20150504-13:20:21.953: 8=FIX.4.4|9=71|35=0|34=119|49=LVBSG|52=20150504-13:20:21.953|56=ADR_ARBITRAGE_IB_XSGO|10=008|
20150504-13:20:49.176: 8=FIX.4.4|9=0067|35=0|49=ADR_ARBITRAGE_IB_XSGO|56=LVBSG|34=121|52=20150504-13:20:49|10=161|
20150504-13:21:21.954: 8=FIX.4.4|9=71|35=0|34=120|49=LVBSG|52=20150504-13:21:21.954|56=ADR_ARBITRAGE_IB_XSGO|10=002|
20150504-13:21:49.179: 8=FIX.4.4|9=0067|35=0|49=ADR_ARBITRAGE_IB_XSGO|56=LVBSG|34=122|52=20150504-13:21:49|10=163|
20150504-13:22:22.953: 8=FIX.4.4|9=71|35=0|34=121|49=LVBSG|52=20150504-13:22:22.953|56=ADR_ARBITRAGE_IB_XSGO|10=004|
20150504-13:22:49.177: 8=FIX.4.4|9=0067|35=0|49=ADR_ARBITRAGE_IB_XSGO|56=LVBSG|34=123|52=20150504-13:22:49|10=165|
20150504-13:23:22.954: 8=FIX.4.4|9=71|35=0|34=122|49=LVBSG|52=20150504-13:23:22.954|56=ADR_ARBITRAGE_IB_XSGO|10=007|
20150504-13:23:49.178: 8=FIX.4.4|9=0067|35=0|49=ADR_ARBITRAGE_IB_XSGO|56=LVBSG|34=124|52=20150504-13:23:49|10=167|
20150504-13:24:23.953: 8=FIX.4.4|9=71|35=0|34=123|49=LVBSG|52=20150504-13:24:23.953|56=ADR_ARBITRAGE_IB_XSGO|10=009|
20150504-13:24:49.187: 8=FIX.4.4|9=0067|35=0|49=ADR_ARBITRAGE_IB_XSGO|56=LVBSG|34=125|52=20150504-13:24:49|10=169|
20150504-13:25:23.953: 8=FIX.4.4|9=71|35=0|34=124|49=LVBSG|52=20150504-13:25:23.953|56=ADR_ARBITRAGE_IB_XSGO|10=011|
20150504-13:25:49.188: 8=FIX.4.4|9=0067|35=0|49=ADR_ARBITRAGE_IB_XSGO|56=LVBSG|34=126|52=20150504-13:25:49|10=171|
20150504-13:26:23.954: 8=FIX.4.4|9=71|35=0|34=125|49=LVBSG|52=20150504-13:26:23.953|56=ADR_ARBITRAGE_IB_XSGO|10=013|
20150504-13:26:49.177: 8=FIX.4.4|9=0067|35=0|49=ADR_ARBITRAGE_IB_XSGO|56=LVBSG|34=127|52=20150504-13:26:49|10=173|
20150504-13:27:23.954: 8=FIX.4.4|9=71|35=0|34=126|49=LVBSG|52=20150504-13:27:23.954|56=ADR_ARBITRAGE_IB_XSGO|10=016|
20150504-13:27:49.179: 8=FIX.4.4|9=0067|35=0|49=ADR_ARBITRAGE_IB_XSGO|56=LVBSG|34=128|52=20150504-13:27:49|10=175|
20150504-13:28:24.954: 8=FIX.4.4|9=71|35=0|34=127|49=LVBSG|52=20150504-13:28:24.954|56=ADR_ARBITRAGE_IB_XSGO|10=019|
20150504-13:28:49.177: 8=FIX.4.4|9=0067|35=0|49=ADR_ARBITRAGE_IB_XSGO|56=LVBSG|34=129|52=20150504-13:28:49|10=177|
20150504-13:29:25.954: 8=FIX.4.4|9=71|35=0|34=128|49=LVBSG|52=20150504-13:29:25.954|56=ADR_ARBITRAGE_IB_XSGO|10=022|
20150504-13:29:49.177: 8=FIX.4.4|9=0067|35=0|49=ADR_ARBITRAGE_IB_XSGO|56=LVBSG|34=130|52=20150504-13:29:49|10=170|
20150504-13:30:05.097: 8=FIX.4.4|9=253|35=D|34=129|49=LVBSG|52=20150504-13:30:05.097|56=ADR_ARBITRAGE_IB_XSGO|1=591866109-00|11=43db1ed9ec5242fe|21=1|38=6000|40=2|44=1942.4|54=1|55=ANDINA-B|59=0|60=20150504-13:30:05.096|63=3|100=XSGO|207=XSGO|583=-3b55eb5c7ea2bf56|453=1|448=LARR|447=D|452=1|10=206|
20150504-13:30:05.099: 8=FIX.4.4|9=255|35=D|34=130|49=LVBSG|52=20150504-13:30:05.098|56=ADR_ARBITRAGE_IB_XSGO|1=591866109-00|11=7f7ee4d8151d43d1|21=1|38=1500000|40=2|44=6.747|54=1|55=CORPBANCA|59=0|60=20150504-13:30:05.096|63=3|100=XSGO|207=XSGO|583=352fe6f1a77e44f4|453=1|448=LARR|447=D|452=1|10=188|
20150504-13:30:05.101: 8=FIX.4.4|9=251|35=D|34=131|49=LVBSG|52=20150504-13:30:05.101|56=ADR_ARBITRAGE_IB_XSGO|1=591866109-00|11=-504c09dbe1beb15b|21=1|38=300000|40=2|44=71.25|54=1|55=CHILE|59=0|60=20150504-13:30:05.100|63=3|100=XSGO|207=XSGO|583=1f73c3d6476b4f6c|453=1|448=LARR|447=D|452=1|10=181|
20150504-13:30:05.105: 8=FIX.4.4|9=255|35=D|34=132|49=LVBSG|52=20150504-13:30:05.104|56=ADR_ARBITRAGE_IB_XSGO|1=591866109-00|11=5ed1613f759145ed|21=1|38=800000|40=2|44=30.96|54=1|55=BSANTANDER|59=0|60=20150504-13:30:05.104|63=3|100=XSGO|207=XSGO|583=723901984f9c46b9|453=1|448=LARR|447=D|452=1|10=025|
20150504-13:30:05.108: 8=FIX.4.4|9=248|35=D|34=133|49=LVBSG|52=20150504-13:30:05.108|56=ADR_ARBITRAGE_IB_XSGO|1=591866109-00|11=-7b167b5758cb525|21=1|38=2000|40=2|44=6538.8|54=1|55=CCU|59=0|60=20150504-13:30:05.107|63=3|100=XSGO|207=XSGO|583=-6a1d772ab7c1bc5b|453=1|448=LARR|447=D|452=1|10=188|
20150504-13:30:05.147: 8=FIX.4.4|9=252|35=D|34=134|49=LVBSG|52=20150504-13:30:05.147|56=ADR_ARBITRAGE_IB_XSGO|1=591866109-00|11=-776c8c94bc30b15c|21=1|38=1500|40=2|44=1535.5|54=1|55=CENCOSUD|59=0|60=20150504-13:30:05.146|63=3|100=XSGO|207=XSGO|583=4c271515b544210|453=1|448=LARR|447=D|452=1|10=058|
20150504-13:30:05.149: 8=FIX.4.4|9=250|35=D|34=135|49=LVBSG|52=20150504-13:30:05.148|56=ADR_ARBITRAGE_IB_XSGO|1=591866109-00|11=-4c73fb11e30be6e|21=1|38=200000|40=2|44=216|54=1|55=ENERSIS|59=0|60=20150504-13:30:05.147|63=3|100=XSGO|207=XSGO|583=55a2c273a91f4276|453=1|448=LARR|447=D|452=1|10=089|
20150504-13:30:05.158: 8=FIX.4.4|9=252|35=D|34=136|49=LVBSG|52=20150504-13:30:05.158|56=ADR_ARBITRAGE_IB_XSGO|1=591866109-00|11=-4e1c3025bbd0b68a|21=1|38=15000|40=2|44=925.62|54=1|55=ENDESA|59=0|60=20150504-13:30:05.157|63=3|100=XSGO|207=XSGO|583=1a58b0414bde4e92|453=1|448=LARR|447=D|452=1|10=234|
20150504-13:30:05.162: 8=FIX.4.4|9=248|35=D|34=137|49=LVBSG|52=20150504-13:30:05.162|56=ADR_ARBITRAGE_IB_XSGO|1=591866109-00|11=-2ffc7478fc5db74b|21=1|38=5000|40=2|44=5851.8|54=1|55=LAN|59=0|60=20150504-13:30:05.161|63=3|100=XSGO|207=XSGO|583=7562c3a56ca446dd|453=1|448=LARR|447=D|452=1|10=054|
20150504-13:30:05.166: 8=FIX.4.4|9=249|35=D|34=138|49=LVBSG|52=20150504-13:30:05.166|56=ADR_ARBITRAGE_IB_XSGO|1=591866109-00|11=-46f34c8f0c5bb062|21=1|38=3000|40=2|44=13590|54=1|55=SQM-B|59=0|60=20150504-13:30:05.165|63=3|100=XSGO|207=XSGO|583=4ddc48d71caf41e0|453=1|448=LARR|447=D|452=1|10=119|
20150504-13:30:05.177: 8=FIX.4.4|9=0330|35=8|49=ADR_ARBITRAGE_IB_XSGO|56=LVBSG|34=131|52=20150504-13:30:05|1=591866109-00|207=XSGO|6=0|11=43db1ed9ec5242fe|14=0|17=-2ce910d13b7bb61e|21=1|150=A|31=0|151=6000|32=0|100=XSGO|38=6000|39=A|37=-41c8e202d634b2a6|583=-3b55eb5c7ea2bf56|40=2|44=1942.4|55=ANDINA-B|54=1|59=0|63=3|60=20150504-13:30:05.133|453=1|448=LARR|447=D|452=1|10=026|
20150504-13:30:05.285: 8=FIX.4.4|9=0333|35=8|49=ADR_ARBITRAGE_IB_XSGO|56=LVBSG|34=132|52=20150504-13:30:05|1=591866109-00|207=XSGO|6=0|11=7f7ee4d8151d43d1|14=0|17=719d4f6f36944f88|21=1|150=A|31=0|151=1500000|32=0|100=XSGO|38=1500000|39=A|37=19b974157b4e43ab|583=352fe6f1a77e44f4|40=2|44=6.747|55=CORPBANCA|54=1|59=0|63=3|60=20150504-13:30:05.154|453=1|448=LARR|447=D|452=1|10=237|
20150504-13:30:05.286: 8=FIX.4.4|9=0328|35=8|49=ADR_ARBITRAGE_IB_XSGO|56=LVBSG|34=133|52=20150504-13:30:05|1=591866109-00|207=XSGO|6=0|11=-504c09dbe1beb15b|14=0|17=7965311453764906|21=1|150=A|31=0|151=300000|32=0|100=XSGO|38=300000|39=A|37=237e5d9fadec44b9|583=1f73c3d6476b4f6c|40=2|44=71.25|55=CHILE|54=1|59=0|63=3|60=20150504-13:30:05.155|453=1|448=LARR|447=D|452=1|10=161|
20150504-13:30:05.286: 8=FIX.4.4|9=0334|35=8|49=ADR_ARBITRAGE_IB_XSGO|56=LVBSG|34=134|52=20150504-13:30:05|1=591866109-00|207=XSGO|6=0|11=5ed1613f759145ed|14=0|17=-1d16ef259163b871|21=1|150=A|31=0|151=800000|32=0|100=XSGO|38=800000|39=A|37=-50bb763eb669b783|583=723901984f9c46b9|40=2|44=30.96|55=BSANTANDER|54=1|59=0|63=3|60=20150504-13:30:05.157|453=1|448=LARR|447=D|452=1|10=127|
20150504-13:30:05.287: 8=FIX.4.4|9=0323|35=8|49=ADR_ARBITRAGE_IB_XSGO|56=LVBSG|34=135|52=20150504-13:30:05|1=591866109-00|207=XSGO|6=0|11=-7b167b5758cb525|14=0|17=71024f67eb054b19|21=1|150=A|31=0|151=2000|32=0|100=XSGO|38=2000|39=A|37=1861b8f64ec44e1a|583=-6a1d772ab7c1bc5b|40=2|44=6538.8|55=CCU|54=1|59=0|63=3|60=20150504-13:30:05.158|453=1|448=LARR|447=D|452=1|10=122|
20150504-13:30:05.287: 8=FIX.4.4|9=0327|35=8|49=ADR_ARBITRAGE_IB_XSGO|56=LVBSG|34=136|52=20150504-13:30:05|1=591866109-00|207=XSGO|6=0|11=-776c8c94bc30b15c|14=0|17=cf7816d55404883|21=1|150=A|31=0|151=1500|32=0|100=XSGO|38=1500|39=A|37=-6fe251d3a64cb975|583=4c271515b544210|40=2|44=1535.5|55=CENCOSUD|54=1|59=0|63=3|60=20150504-13:30:05.166|453=1|448=LARR|447=D|452=1|10=218|
20150504-13:30:05.288: 8=FIX.4.4|9=0326|35=8|49=ADR_ARBITRAGE_IB_XSGO|56=LVBSG|34=137|52=20150504-13:30:05|1=591866109-00|207=XSGO|6=0|11=-4c73fb11e30be6e|14=0|17=30ad5d6c048450e|21=1|150=A|31=0|151=200000|32=0|100=XSGO|38=200000|39=A|37=1449e2d93a8541f5|583=55a2c273a91f4276|40=2|44=216|55=ENERSIS|54=1|59=0|63=3|60=20150504-13:30:05.182|453=1|448=LARR|447=D|452=1|10=019|
20150504-13:30:05.288: 8=FIX.4.4|9=0329|35=8|49=ADR_ARBITRAGE_IB_XSGO|56=LVBSG|34=138|52=20150504-13:30:05|1=591866109-00|207=XSGO|6=0|11=-4e1c3025bbd0b68a|14=0|17=-380fecf4cb60bf75|21=1|150=A|31=0|151=15000|32=0|100=XSGO|38=15000|39=A|37=-1f7d2b22c8fb67a|583=1a58b0414bde4e92|40=2|44=925.62|55=ENDESA|54=1|59=0|63=3|60=20150504-13:30:05.193|453=1|448=LARR|447=D|452=1|10=245|
20150504-13:30:05.289: 8=FIX.4.4|9=0323|35=8|49=ADR_ARBITRAGE_IB_XSGO|56=LVBSG|34=139|52=20150504-13:30:05|1=591866109-00|207=XSGO|6=0|11=-2ffc7478fc5db74b|14=0|17=519118fd111e4c39|21=1|150=A|31=0|151=5000|32=0|100=XSGO|38=5000|39=A|37=1dde7174018c42bd|583=7562c3a56ca446dd|40=2|44=5851.8|55=LAN|54=1|59=0|63=3|60=20150504-13:30:05.194|453=1|448=LARR|447=D|452=1|10=240|
20150504-13:30:05.289: 8=FIX.4.4|9=0325|35=8|49=ADR_ARBITRAGE_IB_XSGO|56=LVBSG|34=140|52=20150504-13:30:05|1=591866109-00|207=XSGO|6=0|11=43db1ed9ec5242fe|14=0|17=ex1512444908|21=1|150=0|31=0|151=6000|32=0|100=XSGO|38=6000|39=0|37=-41c8e202d634b2a6|583=-3b55eb5c7ea2bf56|40=2|44=1942.4|55=ANDINA-B|54=1|59=0|63=3|60=20150504-13:30:05.209|453=1|448=LARR|447=D|452=1|10=049|
20150504-13:30:05.290: 8=FIX.4.4|9=0326|35=8|49=ADR_ARBITRAGE_IB_XSGO|56=LVBSG|34=141|52=20150504-13:30:05|1=591866109-00|207=XSGO|6=0|11=-46f34c8f0c5bb062|14=0|17=-198e1078d650b909|21=1|150=A|31=0|151=3000|32=0|100=XSGO|38=3000|39=A|37=-6eebbc7420f1bc24|583=4ddc48d71caf41e0|40=2|44=13590|55=SQM-B|54=1|59=0|63=3|60=20150504-13:30:05.209|453=1|448=LARR|447=D|452=1|10=177|
20150504-13:30:05.290: 8=FIX.4.4|9=0329|35=8|49=ADR_ARBITRAGE_IB_XSGO|56=LVBSG|34=142|52=20150504-13:30:05|1=591866109-00|207=XSGO|6=0|11=7f7ee4d8151d43d1|14=0|17=ex1512444909|21=1|150=0|31=0|151=1500000|32=0|100=XSGO|38=1500000|39=0|37=19b974157b4e43ab|583=352fe6f1a77e44f4|40=2|44=6.747|55=CORPBANCA|54=1|59=0|63=3|60=20150504-13:30:05.255|453=1|448=LARR|447=D|452=1|10=156|
20150504-13:30:05.291: 8=FIX.4.4|9=0324|35=8|49=ADR_ARBITRAGE_IB_XSGO|56=LVBSG|34=143|52=20150504-13:30:05|1=591866109-00|207=XSGO|6=0|11=-504c09dbe1beb15b|14=0|17=ex1512444910|21=1|150=0|31=0|151=300000|32=0|100=XSGO|38=300000|39=0|37=237e5d9fadec44b9|583=1f73c3d6476b4f6c|40=2|44=71.25|55=CHILE|54=1|59=0|63=3|60=20150504-13:30:05.257|453=1|448=LARR|447=D|452=1|10=015|
20150504-13:30:05.291: 8=FIX.4.4|9=0342|35=8|49=ADR_ARBITRAGE_IB_XSGO|56=LVBSG|34=144|52=20150504-13:30:05|1=591866109-00|207=XSGO|6=71.25|11=-504c09dbe1beb15b|14=150000|17=ex1512444912|21=1|150=F|31=71.25|151=150000|32=150000|100=XSGO|38=300000|39=1|37=237e5d9fadec44b9|583=1f73c3d6476b4f6c|40=2|44=71.25|55=CHILE|54=1|59=0|63=3|60=20150504-13:30:05.258|453=1|448=LARR|447=D|452=1|10=179|
20150504-13:30:05.296: 8=FIX.4.4|9=0341|35=8|49=ADR_ARBITRAGE_IB_XSGO|56=LVBSG|34=145|52=20150504-13:30:05|1=591866109-00|207=XSGO|6=71.25|11=-504c09dbe1beb15b|14=200000|17=ex1512444915|21=1|150=F|31=71.25|151=100000|32=50000|100=XSGO|38=300000|39=1|37=237e5d9fadec44b9|583=1f73c3d6476b4f6c|40=2|44=71.25|55=CHILE|54=1|59=0|63=3|60=20150504-13:30:05.269|453=1|448=LARR|447=D|452=1|10=126|
20150504-13:30:05.318: 8=FIX.4.4|9=0337|35=8|49=ADR_ARBITRAGE_IB_XSGO|56=LVBSG|34=146|52=20150504-13:30:05|1=591866109-00|207=XSGO|6=71.25|11=-504c09dbe1beb15b|14=300000|17=ex1512444917|21=1|150=F|31=71.25|151=0|32=100000|100=XSGO|38=300000|39=2|37=237e5d9fadec44b9|583=1f73c3d6476b4f6c|40=2|44=71.25|55=CHILE|54=1|59=0|63=3|60=20150504-13:30:05.295|453=1|448=LARR|447=D|452=1|10=194|
20150504-13:30:05.327: 8=FIX.4.4|9=0329|35=8|49=ADR_ARBITRAGE_IB_XSGO|56=LVBSG|34=147|52=20150504-13:30:05|1=591866109-00|207=XSGO|6=0|11=5ed1613f759145ed|14=0|17=ex1512444918|21=1|150=0|31=0|151=800000|32=0|100=XSGO|38=800000|39=0|37=-50bb763eb669b783|583=723901984f9c46b9|40=2|44=30.96|55=BSANTANDER|54=1|59=0|63=3|60=20150504-13:30:05.310|453=1|448=LARR|447=D|452=1|10=016|
20150504-13:30:05.328: 8=FIX.4.4|9=0319|35=8|49=ADR_ARBITRAGE_IB_XSGO|56=LVBSG|34=148|52=20150504-13:30:05|1=591866109-00|207=XSGO|6=0|11=-7b167b5758cb525|14=0|17=ex1512444919|21=1|150=0|31=0|151=2000|32=0|100=XSGO|38=2000|39=0|37=1861b8f64ec44e1a|583=-6a1d772ab7c1bc5b|40=2|44=6538.8|55=CCU|54=1|59=0|63=3|60=20150504-13:30:05.311|453=1|448=LARR|447=D|452=1|10=064|
20150504-13:30:05.329: 8=FIX.4.4|9=0324|35=8|49=ADR_ARBITRAGE_IB_XSGO|56=LVBSG|34=149|52=20150504-13:30:05|1=591866109-00|207=XSGO|6=0|11=-776c8c94bc30b15c|14=0|17=ex1512444920|21=1|150=0|31=0|151=1500|32=0|100=XSGO|38=1500|39=0|37=-6fe251d3a64cb975|583=4c271515b544210|40=2|44=1535.5|55=CENCOSUD|54=1|59=0|63=3|60=20150504-13:30:05.314|453=1|448=LARR|447=D|452=1|10=233|
20150504-13:30:05.344: 8=FIX.4.4|9=0323|35=8|49=ADR_ARBITRAGE_IB_XSGO|56=LVBSG|34=150|52=20150504-13:30:05|1=591866109-00|207=XSGO|6=0|11=-4c73fb11e30be6e|14=0|17=ex1512444921|21=1|150=0|31=0|151=200000|32=0|100=XSGO|38=200000|39=0|37=1449e2d93a8541f5|583=55a2c273a91f4276|40=2|44=216|55=ENERSIS|54=1|59=0|63=3|60=20150504-13:30:05.323|453=1|448=LARR|447=D|452=1|10=208|
20150504-13:30:05.353: 8=FIX.4.4|9=0329|35=8|49=ADR_ARBITRAGE_IB_XSGO|56=LVBSG|34=151|52=20150504-13:30:05|1=591866109-00|207=XSGO|6=216|11=-4c73fb11e30be6e|14=18|17=ex1512444923|21=1|150=F|31=216|151=199982|32=18|100=XSGO|38=200000|39=1|37=1449e2d93a8541f5|583=55a2c273a91f4276|40=2|44=216|55=ENERSIS|54=1|59=0|63=3|60=20150504-13:30:05.333|453=1|448=LARR|447=D|452=1|10=089|
20150504-13:30:05.661: 8=FIX.4.4|9=0324|35=8|49=ADR_ARBITRAGE_IB_XSGO|56=LVBSG|34=152|52=20150504-13:30:05|1=591866109-00|207=XSGO|6=0|11=-4e1c3025bbd0b68a|14=0|17=ex1512444924|21=1|150=0|31=0|151=15000|32=0|100=XSGO|38=15000|39=0|37=-1f7d2b22c8fb67a|583=1a58b0414bde4e92|40=2|44=925.62|55=ENDESA|54=1|59=0|63=3|60=20150504-13:30:05.652|453=1|448=LARR|447=D|452=1|10=188|
20150504-13:30:05.669: 8=FIX.4.4|9=0319|35=8|49=ADR_ARBITRAGE_IB_XSGO|56=LVBSG|34=153|52=20150504-13:30:05|1=591866109-00|207=XSGO|6=0|11=-2ffc7478fc5db74b|14=0|17=ex1512444925|21=1|150=0|31=0|151=5000|32=0|100=XSGO|38=5000|39=0|37=1dde7174018c42bd|583=7562c3a56ca446dd|40=2|44=5851.8|55=LAN|54=1|59=0|63=3|60=20150504-13:30:05.659|453=1|448=LARR|447=D|452=1|10=185|
20150504-13:30:05.679: 8=FIX.4.4|9=0321|35=8|49=ADR_ARBITRAGE_IB_XSGO|56=LVBSG|34=154|52=20150504-13:30:05|1=591866109-00|207=XSGO|6=0|11=-46f34c8f0c5bb062|14=0|17=ex1512444926|21=1|150=0|31=0|151=3000|32=0|100=XSGO|38=3000|39=0|37=-6eebbc7420f1bc24|583=4ddc48d71caf41e0|40=2|44=13590|55=SQM-B|54=1|59=0|63=3|60=20150504-13:30:05.666|453=1|448=LARR|447=D|452=1|10=113|
20150504-13:30:05.689: 8=FIX.4.4|9=0333|35=8|49=ADR_ARBITRAGE_IB_XSGO|56=LVBSG|34=155|52=20150504-13:30:05|1=591866109-00|207=XSGO|6=13590|11=-46f34c8f0c5bb062|14=514|17=ex1512444928|21=1|150=F|31=13590|151=2486|32=514|100=XSGO|38=3000|39=1|37=-6eebbc7420f1bc24|583=4ddc48d71caf41e0|40=2|44=13590|55=SQM-B|54=1|59=0|63=3|60=20150504-13:30:05.674|453=1|448=LARR|447=D|452=1|10=022|
20150504-13:30:05.846: 8=FIX.4.4|9=253|35=D|34=139|49=LVBSG|52=20150504-13:30:05.846|56=ADR_ARBITRAGE_IB_XSGO|1=591866109-00|11=7561271f7c084efc|21=1|38=6000|40=2|44=1974.4|54=2|55=ANDINA-B|59=0|60=20150504-13:30:05.845|63=3|100=XSGO|207=XSGO|583=-3b55eb5c7ea2bf56|453=1|448=LARR|447=D|452=1|10=080|
20150504-13:30:05.848: 8=FIX.4.4|9=254|35=D|34=140|49=LVBSG|52=20150504-13:30:05.847|56=ADR_ARBITRAGE_IB_XSGO|1=591866109-00|11=61fef6cae0440ae|21=1|38=1500000|40=2|44=6.969|54=2|55=CORPBANCA|59=0|60=20150504-13:30:05.845|63=3|100=XSGO|207=XSGO|583=352fe6f1a77e44f4|453=1|448=LARR|447=D|452=1|10=231|
20150504-13:30:05.850: 8=FIX.4.4|9=251|35=D|34=141|49=LVBSG|52=20150504-13:30:05.850|56=ADR_ARBITRAGE_IB_XSGO|1=591866109-00|11=-5ae515ef8557bc0c|21=1|38=300000|40=2|44=72.13|54=2|55=CHILE|59=0|60=20150504-13:30:05.849|63=3|100=XSGO|207=XSGO|583=1f73c3d6476b4f6c|453=1|448=LARR|447=D|452=1|10=180|
20150504-13:30:05.854: 8=FIX.4.4|9=256|35=D|34=142|49=LVBSG|52=20150504-13:30:05.854|56=ADR_ARBITRAGE_IB_XSGO|1=591866109-00|11=-55e024d20834b60e|21=1|38=800000|40=2|44=35.28|54=2|55=BSANTANDER|59=0|60=20150504-13:30:05.853|63=3|100=XSGO|207=XSGO|583=723901984f9c46b9|453=1|448=LARR|447=D|452=1|10=032|
20150504-13:30:05.910: 8=FIX.4.4|9=0329|35=8|49=ADR_ARBITRAGE_IB_XSGO|56=LVBSG|34=156|52=20150504-13:30:05|1=591866109-00|207=XSGO|6=0|11=7561271f7c084efc|14=0|17=-75c33f0fe2cdb246|21=1|150=A|31=0|151=6000|32=0|100=XSGO|38=6000|39=A|37=4c9faa6e572d486c|583=-3b55eb5c7ea2bf56|40=2|44=1974.4|55=ANDINA-B|54=2|59=0|63=3|60=20150504-13:30:05.895|453=1|448=LARR|447=D|452=1|10=005|
20150504-13:30:05.911: 8=FIX.4.4|9=0333|35=8|49=ADR_ARBITRAGE_IB_XSGO|56=LVBSG|34=157|52=20150504-13:30:05|1=591866109-00|207=XSGO|6=0|11=61fef6cae0440ae|14=0|17=-49ac5de7ba3ab4ec|21=1|150=A|31=0|151=1500000|32=0|100=XSGO|38=1500000|39=A|37=7609ca39ec2740fa|583=352fe6f1a77e44f4|40=2|44=6.969|55=CORPBANCA|54=2|59=0|63=3|60=20150504-13:30:05.896|453=1|448=LARR|447=D|452=1|10=133|
20150504-13:30:05.912: 8=FIX.4.4|9=247|35=D|34=143|49=LVBSG|52=20150504-13:30:05.912|56=ADR_ARBITRAGE_IB_XSGO|1=591866109-00|11=-329e272ae7e2b452|21=1|38=2000|40=2|44=6770|54=2|55=CCU|59=0|60=20150504-13:30:05.911|63=3|100=XSGO|207=XSGO|583=-6a1d772ab7c1bc5b|453=1|448=LARR|447=D|452=1|10=183|
20150504-13:30:05.916: 8=FIX.4.4|9=252|35=D|34=144|49=LVBSG|52=20150504-13:30:05.916|56=ADR_ARBITRAGE_IB_XSGO|1=591866109-00|11=-637ba7d51a2eb11a|21=1|38=1500|40=2|44=1668.7|54=2|55=CENCOSUD|59=0|60=20150504-13:30:05.915|63=3|100=XSGO|207=XSGO|583=4c271515b544210|453=1|448=LARR|447=D|452=1|10=108|
20150504-13:30:05.917: 8=FIX.4.4|9=253|35=D|34=145|49=LVBSG|52=20150504-13:30:05.917|56=ADR_ARBITRAGE_IB_XSGO|1=591866109-00|11=3688f0c06cab4c81|21=1|38=200000|40=2|44=222.21|54=2|55=ENERSIS|59=0|60=20150504-13:30:05.916|63=3|100=XSGO|207=XSGO|583=55a2c273a91f4276|453=1|448=LARR|447=D|452=1|10=208|
20150504-13:30:05.920: 8=FIX.4.4|9=251|35=D|34=146|49=LVBSG|52=20150504-13:30:05.920|56=ADR_ARBITRAGE_IB_XSGO|1=591866109-00|11=2522b989dd414795|21=1|38=15000|40=2|44=971.38|54=2|55=ENDESA|59=0|60=20150504-13:30:05.919|63=3|100=XSGO|207=XSGO|583=1a58b0414bde4e92|453=1|448=LARR|447=D|452=1|10=034|
20150504-13:30:05.921: 8=FIX.4.4|9=0329|35=8|49=ADR_ARBITRAGE_IB_XSGO|56=LVBSG|34=158|52=20150504-13:30:05|1=591866109-00|207=XSGO|6=0|11=-5ae515ef8557bc0c|14=0|17=-5a458d8b77acb0bd|21=1|150=A|31=0|151=300000|32=0|100=XSGO|38=300000|39=A|37=33910e2d29f84e3a|583=1f73c3d6476b4f6c|40=2|44=72.13|55=CHILE|54=2|59=0|63=3|60=20150504-13:30:05.898|453=1|448=LARR|447=D|452=1|10=158|
20150504-13:30:05.922: 8=FIX.4.4|9=0334|35=8|49=ADR_ARBITRAGE_IB_XSGO|56=LVBSG|34=159|52=20150504-13:30:05|1=591866109-00|207=XSGO|6=0|11=-55e024d20834b60e|14=0|17=-1e4f1d7811ccbc00|21=1|150=A|31=0|151=800000|32=0|100=XSGO|38=800000|39=A|37=718becd7ab2e4fa3|583=723901984f9c46b9|40=2|44=35.28|55=BSANTANDER|54=2|59=0|63=3|60=20150504-13:30:05.899|453=1|448=LARR|447=D|452=1|10=134|
20150504-13:30:05.924: 8=FIX.4.4|9=248|35=D|34=147|49=LVBSG|52=20150504-13:30:05.923|56=ADR_ARBITRAGE_IB_XSGO|1=591866109-00|11=-2f1ecf07e505b83e|21=1|38=5000|40=2|44=5981.6|54=2|55=LAN|59=0|60=20150504-13:30:05.923|63=3|100=XSGO|207=XSGO|583=7562c3a56ca446dd|453=1|448=LARR|447=D|452=1|10=008|
20150504-13:30:05.927: 8=FIX.4.4|9=249|35=D|34=148|49=LVBSG|52=20150504-13:30:05.927|56=ADR_ARBITRAGE_IB_XSGO|1=591866109-00|11=-61b40a8cc5aaba3f|21=1|38=3000|40=2|44=13816|54=2|55=SQM-B|59=0|60=20150504-13:30:05.926|63=3|100=XSGO|207=XSGO|583=4ddc48d71caf41e0|453=1|448=LARR|447=D|452=1|10=007|
20150504-13:30:05.929: 8=FIX.4.4|9=250|35=D|34=149|49=LVBSG|52=20150504-13:30:05.928|56=ADR_ARBITRAGE_IB_XSGO|1=591866109-00|11=25bf3bb79c5544b4|21=1|38=300000|40=2|44=71.25|54=1|55=CHILE|59=0|60=20150504-13:30:05.928|63=3|100=XSGO|207=XSGO|583=1f73c3d6476b4f6c|453=1|448=LARR|447=D|452=1|10=098|
20150504-13:30:05.948: 8=FIX.4.4|9=269|35=G|34=150|49=LVBSG|52=20150504-13:30:05.947|56=ADR_ARBITRAGE_IB_XSGO|1=591866109-00|11=466893150a1e417d|21=1|38=3514|40=2|41=-46f34c8f0c5bb062|44=13550|54=1|55=SQM-B|59=0|60=20150504-13:30:05.946|63=3|100=XSGO|207=XSGO|583=4ddc48d71caf41e0|453=1|448=LARR|447=D|452=1|10=254|
20150504-13:30:05.983: 8=FIX.4.4|9=0322|35=8|49=ADR_ARBITRAGE_IB_XSGO|56=LVBSG|34=160|52=20150504-13:30:05|1=591866109-00|207=XSGO|6=0|11=-329e272ae7e2b452|14=0|17=-1212adfd040abc3a|21=1|150=A|31=0|151=2000|32=0|100=XSGO|38=2000|39=A|37=9dfabe7da4145ae|583=-6a1d772ab7c1bc5b|40=2|44=6770|55=CCU|54=2|59=0|63=3|60=20150504-13:30:05.946|453=1|448=LARR|447=D|452=1|10=158|
20150504-13:30:05.983: 8=FIX.4.4|9=0328|35=8|49=ADR_ARBITRAGE_IB_XSGO|56=LVBSG|34=161|52=20150504-13:30:05|1=591866109-00|207=XSGO|6=0|11=-637ba7d51a2eb11a|14=0|17=1ff6d63e154849c4|21=1|150=A|31=0|151=1500|32=0|100=XSGO|38=1500|39=A|37=-766ed6a30c1ebf34|583=4c271515b544210|40=2|44=1668.7|55=CENCOSUD|54=2|59=0|63=3|60=20150504-13:30:05.948|453=1|448=LARR|447=D|452=1|10=198|
20150504-13:30:05.986: 8=FIX.4.4|9=0332|35=8|49=ADR_ARBITRAGE_IB_XSGO|56=LVBSG|34=162|52=20150504-13:30:05|1=591866109-00|207=XSGO|6=0|11=3688f0c06cab4c81|14=0|17=-4bf4ae7d06b6bd1f|21=1|150=A|31=0|151=200000|32=0|100=XSGO|38=200000|39=A|37=-12baad5e1d41ba80|583=55a2c273a91f4276|40=2|44=222.21|55=ENERSIS|54=2|59=0|63=3|60=20150504-13:30:05.950|453=1|448=LARR|447=D|452=1|10=113|
20150504-13:30:06.000: 8=FIX.4.4|9=0328|35=8|49=ADR_ARBITRAGE_IB_XSGO|56=LVBSG|34=163|52=20150504-13:30:05|1=591866109-00|207=XSGO|6=0|11=2522b989dd414795|14=0|17=-38eafd7b20e9bcfa|21=1|150=A|31=0|151=15000|32=0|100=XSGO|38=15000|39=A|37=60a0c8af0e7649aa|583=1a58b0414bde4e92|40=2|44=971.38|55=ENDESA|54=2|59=0|63=3|60=20150504-13:30:05.960|453=1|448=LARR|447=D|452=1|10=137|
20150504-13:30:06.004: 8=FIX.4.4|9=0324|35=8|49=ADR_ARBITRAGE_IB_XSGO|56=LVBSG|34=164|52=20150504-13:30:05|1=591866109-00|207=XSGO|6=0|11=-2f1ecf07e505b83e|14=0|17=-5d295c9ae482b697|21=1|150=A|31=0|151=5000|32=0|100=XSGO|38=5000|39=A|37=11d5fd5069224ff9|583=7562c3a56ca446dd|40=2|44=5981.6|55=LAN|54=2|59=0|63=3|60=20150504-13:30:05.982|453=1|448=LARR|447=D|452=1|10=007|
20150504-13:30:06.009: 8=FIX.4.4|9=0325|35=8|49=ADR_ARBITRAGE_IB_XSGO|56=LVBSG|34=165|52=20150504-13:30:06|1=591866109-00|207=XSGO|6=0|11=-61b40a8cc5aaba3f|14=0|17=-296277f9d87fb9a2|21=1|150=A|31=0|151=3000|32=0|100=XSGO|38=3000|39=A|37=1712150799e0456a|583=4ddc48d71caf41e0|40=2|44=13816|55=SQM-B|54=2|59=0|63=3|60=20150504-13:30:05.986|453=1|448=LARR|447=D|452=1|10=113|
20150504-13:30:06.015: 8=FIX.4.4|9=0327|35=8|49=ADR_ARBITRAGE_IB_XSGO|56=LVBSG|34=166|52=20150504-13:30:06|1=591866109-00|207=XSGO|6=0|11=25bf3bb79c5544b4|14=0|17=-3c607f28930fbfcf|21=1|150=A|31=0|151=300000|32=0|100=XSGO|38=300000|39=A|37=2669ad5c54141b3|583=1f73c3d6476b4f6c|40=2|44=71.25|55=CHILE|54=1|59=0|63=3|60=20150504-13:30:05.989|453=1|448=LARR|447=D|452=1|10=174|
20150504-13:30:06.021: 8=FIX.4.4|9=276|35=G|34=151|49=LVBSG|52=20150504-13:30:06.021|56=ADR_ARBITRAGE_IB_XSGO|1=591866109-00|11=-7429531322cbb610|21=1|38=1500000|40=2|41=7f7ee4d8151d43d1|44=6.748|54=1|55=CORPBANCA|59=0|60=20150504-13:30:06.020|63=3|100=XSGO|207=XSGO|583=352fe6f1a77e44f4|453=1|448=LARR|447=D|452=1|10=065|
20150504-13:30:06.023: 8=FIX.4.4|9=273|35=G|34=152|49=LVBSG|52=20150504-13:30:06.022|56=ADR_ARBITRAGE_IB_XSGO|1=591866109-00|11=4efb41c901ac4d09|21=1|38=200018|40=2|41=-4c73fb11e30be6e|44=220.72|54=1|55=ENERSIS|59=0|60=20150504-13:30:06.020|63=3|100=XSGO|207=XSGO|583=55a2c273a91f4276|453=1|448=LARR|447=D|452=1|10=021|
20150504-13:30:06.024: 8=FIX.4.4|9=0351|35=8|49=ADR_ARBITRAGE_IB_XSGO|56=LVBSG|34=167|52=20150504-13:30:06|1=591866109-00|207=XSGO|6=13590|11=466893150a1e417d|14=514|17=225ac047a6d047d5|21=1|150=E|31=0|151=2486|32=0|100=XSGO|38=3514|39=E|37=-6eebbc7420f1bc24|583=4ddc48d71caf41e0|40=2|41=-46f34c8f0c5bb062|44=13550|55=SQM-B|54=1|59=0|63=3|60=20150504-13:30:06.000|453=1|448=LARR|447=D|452=1|10=157|
20150504-13:30:06.024: 8=FIX.4.4|9=269|35=G|34=153|49=LVBSG|52=20150504-13:30:06.023|56=ADR_ARBITRAGE_IB_XSGO|1=591866109-00|11=-66c2323cb6f1b21f|21=1|38=5000|40=2|41=-2ffc7478fc5db74b|44=5852.3|54=1|55=LAN|59=0|60=20150504-13:30:06.021|63=3|100=XSGO|207=XSGO|583=7562c3a56ca446dd|453=1|448=LARR|447=D|452=1|10=085|
20150504-13:30:06.025: 8=FIX.4.4|9=272|35=G|34=154|49=LVBSG|52=20150504-13:30:06.025|56=ADR_ARBITRAGE_IB_XSGO|1=591866109-00|11=-33c3ea3eb07fbf8b|21=1|38=15000|40=2|41=-4e1c3025bbd0b68a|44=925.7|54=1|55=ENDESA|59=0|60=20150504-13:30:06.023|63=3|100=XSGO|207=XSGO|583=1a58b0414bde4e92|453=1|448=LARR|447=D|452=1|10=108|
20150504-13:30:06.027: 8=FIX.4.4|9=272|35=G|34=155|49=LVBSG|52=20150504-13:30:06.026|56=ADR_ARBITRAGE_IB_XSGO|1=591866109-00|11=2ccc40403fef4d23|21=1|38=1500|40=2|41=-776c8c94bc30b15c|44=1535.7|54=1|55=CENCOSUD|59=0|60=20150504-13:30:06.025|63=3|100=XSGO|207=XSGO|583=4c271515b544210|453=1|448=LARR|447=D|452=1|10=101|
20150504-13:30:06.060: 8=FIX.4.4|9=0355|35=8|49=ADR_ARBITRAGE_IB_XSGO|56=LVBSG|34=168|52=20150504-13:30:06|1=591866109-00|207=XSGO|6=0|11=-7429531322cbb610|14=0|17=-563f1439c3c5b2ed|21=1|150=E|31=0|151=1500000|32=0|100=XSGO|38=1500000|39=E|37=19b974157b4e43ab|583=352fe6f1a77e44f4|40=2|41=7f7ee4d8151d43d1|44=6.748|55=CORPBANCA|54=1|59=0|63=3|60=20150504-13:30:06.042|453=1|448=LARR|447=D|452=1|10=007|
20150504-13:30:06.061: 8=FIX.4.4|9=0354|35=8|49=ADR_ARBITRAGE_IB_XSGO|56=LVBSG|34=169|52=20150504-13:30:06|1=591866109-00|207=XSGO|6=216|11=4efb41c901ac4d09|14=18|17=-1e14b01a627eb69a|21=1|150=E|31=0|151=199982|32=0|100=XSGO|38=200018|39=E|37=1449e2d93a8541f5|583=55a2c273a91f4276|40=2|41=-4c73fb11e30be6e|44=220.72|55=ENERSIS|54=1|59=0|63=3|60=20150504-13:30:06.048|453=1|448=LARR|447=D|452=1|10=062|
20150504-13:30:06.072: 8=FIX.4.4|9=0344|35=8|49=ADR_ARBITRAGE_IB_XSGO|56=LVBSG|34=170|52=20150504-13:30:06|1=591866109-00|207=XSGO|6=0|11=-66c2323cb6f1b21f|14=0|17=366a9e8879434253|21=1|150=E|31=0|151=5000|32=0|100=XSGO|38=5000|39=E|37=1dde7174018c42bd|583=7562c3a56ca446dd|40=2|41=-2ffc7478fc5db74b|44=5852.3|55=LAN|54=1|59=0|63=3|60=20150504-13:30:06.054|453=1|448=LARR|447=D|452=1|10=202|
20150504-13:30:06.075: 8=FIX.4.4|9=0348|35=8|49=ADR_ARBITRAGE_IB_XSGO|56=LVBSG|34=171|52=20150504-13:30:06|1=591866109-00|207=XSGO|6=0|11=-33c3ea3eb07fbf8b|14=0|17=413430774da94d85|21=1|150=E|31=0|151=15000|32=0|100=XSGO|38=15000|39=E|37=-1f7d2b22c8fb67a|583=1a58b0414bde4e92|40=2|41=-4e1c3025bbd0b68a|44=925.7|55=ENDESA|54=1|59=0|63=3|60=20150504-13:30:06.055|453=1|448=LARR|447=D|452=1|10=105|
20150504-13:30:06.078: 8=FIX.4.4|9=0349|35=8|49=ADR_ARBITRAGE_IB_XSGO|56=LVBSG|34=172|52=20150504-13:30:06|1=591866109-00|207=XSGO|6=0|11=2ccc40403fef4d23|14=0|17=-5230eeaa991db297|21=1|150=E|31=0|151=1500|32=0|100=XSGO|38=1500|39=E|37=-6fe251d3a64cb975|583=4c271515b544210|40=2|41=-776c8c94bc30b15c|44=1535.7|55=CENCOSUD|54=1|59=0|63=3|60=20150504-13:30:06.059|453=1|448=LARR|447=D|452=1|10=248|
20150504-13:30:06.352: 8=FIX.4.4|9=0324|35=8|49=ADR_ARBITRAGE_IB_XSGO|56=LVBSG|34=173|52=20150504-13:30:06|1=591866109-00|207=XSGO|6=0|11=7561271f7c084efc|14=0|17=ex1512444929|21=1|150=0|31=0|151=6000|32=0|100=XSGO|38=6000|39=0|37=4c9faa6e572d486c|583=-3b55eb5c7ea2bf56|40=2|44=1974.4|55=ANDINA-B|54=2|59=0|63=3|60=20150504-13:30:06.346|453=1|448=LARR|447=D|452=1|10=002|
20150504-13:30:06.371: 8=FIX.4.4|9=0328|35=8|49=ADR_ARBITRAGE_IB_XSGO|56=LVBSG|34=174|52=20150504-13:30:06|1=591866109-00|207=XSGO|6=0|11=61fef6cae0440ae|14=0|17=ex1512444930|21=1|150=0|31=0|151=1500000|32=0|100=XSGO|38=1500000|39=0|37=7609ca39ec2740fa|583=352fe6f1a77e44f4|40=2|44=6.969|55=CORPBANCA|54=2|59=0|63=3|60=20150504-13:30:06.352|453=1|448=LARR|447=D|452=1|10=241|
20150504-13:30:06.373: 8=FIX.4.4|9=0324|35=8|49=ADR_ARBITRAGE_IB_XSGO|56=LVBSG|34=175|52=20150504-13:30:06|1=591866109-00|207=XSGO|6=0|11=-5ae515ef8557bc0c|14=0|17=ex1512444931|21=1|150=0|31=0|151=300000|32=0|100=XSGO|38=300000|39=0|37=33910e2d29f84e3a|583=1f73c3d6476b4f6c|40=2|44=72.13|55=CHILE|54=2|59=0|63=3|60=20150504-13:30:06.359|453=1|448=LARR|447=D|452=1|10=099|
20150504-13:30:06.375: 8=FIX.4.4|9=0329|35=8|49=ADR_ARBITRAGE_IB_XSGO|56=LVBSG|34=176|52=20150504-13:30:06|1=591866109-00|207=XSGO|6=0|11=-55e024d20834b60e|14=0|17=ex1512444932|21=1|150=0|31=0|151=800000|32=0|100=XSGO|38=800000|39=0|37=718becd7ab2e4fa3|583=723901984f9c46b9|40=2|44=35.28|55=BSANTANDER|54=2|59=0|63=3|60=20150504-13:30:06.366|453=1|448=LARR|447=D|452=1|10=144|
20150504-13:30:06.388: 8=FIX.4.4|9=0317|35=8|49=ADR_ARBITRAGE_IB_XSGO|56=LVBSG|34=177|52=20150504-13:30:06|1=591866109-00|207=XSGO|6=0|11=-329e272ae7e2b452|14=0|17=ex1512444933|21=1|150=0|31=0|151=2000|32=0|100=XSGO|38=2000|39=0|37=9dfabe7da4145ae|583=-6a1d772ab7c1bc5b|40=2|44=6770|55=CCU|54=2|59=0|63=3|60=20150504-13:30:06.376|453=1|448=LARR|447=D|452=1|10=152|
20150504-13:30:06.396: 8=FIX.4.4|9=0324|35=8|49=ADR_ARBITRAGE_IB_XSGO|56=LVBSG|34=178|52=20150504-13:30:06|1=591866109-00|207=XSGO|6=0|11=-637ba7d51a2eb11a|14=0|17=ex1512444934|21=1|150=0|31=0|151=1500|32=0|100=XSGO|38=1500|39=0|37=-766ed6a30c1ebf34|583=4c271515b544210|40=2|44=1668.7|55=CENCOSUD|54=2|59=0|63=3|60=20150504-13:30:06.382|453=1|448=LARR|447=D|452=1|10=073|
20150504-13:30:06.398: 8=FIX.4.4|9=0327|35=8|49=ADR_ARBITRAGE_IB_XSGO|56=LVBSG|34=179|52=20150504-13:30:06|1=591866109-00|207=XSGO|6=0|11=3688f0c06cab4c81|14=0|17=ex1512444935|21=1|150=0|31=0|151=200000|32=0|100=XSGO|38=200000|39=0|37=-12baad5e1d41ba80|583=55a2c273a91f4276|40=2|44=222.21|55=ENERSIS|54=2|59=0|63=3|60=20150504-13:30:06.384|453=1|448=LARR|447=D|452=1|10=040|
20150504-13:30:06.410: 8=FIX.4.4|9=0323|35=8|49=ADR_ARBITRAGE_IB_XSGO|56=LVBSG|34=180|52=20150504-13:30:06|1=591866109-00|207=XSGO|6=0|11=2522b989dd414795|14=0|17=ex1512444936|21=1|150=0|31=0|151=15000|32=0|100=XSGO|38=15000|39=0|37=60a0c8af0e7649aa|583=1a58b0414bde4e92|40=2|44=971.38|55=ENDESA|54=2|59=0|63=3|60=20150504-13:30:06.388|453=1|448=LARR|447=D|452=1|10=254|
20150504-13:30:06.411: 8=FIX.4.4|9=0343|35=8|49=ADR_ARBITRAGE_IB_XSGO|56=LVBSG|34=181|52=20150504-13:30:06|1=591866109-00|207=XSGO|6=0|11=466893150a1e417d|14=514|17=ex1512444938|21=1|150=5|31=0|151=3000|32=0|100=XSGO|38=3514|39=1|37=-6eebbc7420f1bc24|583=4ddc48d71caf41e0|40=2|41=-46f34c8f0c5bb062|44=13550|55=SQM-B|54=1|59=0|63=3|60=20150504-13:30:06.392|453=1|448=LARR|447=D|452=1|10=096|
20150504-13:30:06.420: 8=FIX.4.4|9=266|35=G|34=156|49=LVBSG|52=20150504-13:30:06.420|56=ADR_ARBITRAGE_IB_XSGO|1=591866109-00|11=4451d7fe8b4a43|21=1|38=3514|40=2|41=466893150a1e417d|44=13674|54=1|55=SQM-B|59=0|60=20150504-13:30:06.420|63=3|100=XSGO|207=XSGO|583=4ddc48d71caf41e0|453=1|448=LARR|447=D|452=1|10=048|
20150504-13:30:06.423: 8=FIX.4.4|9=0319|35=8|49=ADR_ARBITRAGE_IB_XSGO|56=LVBSG|34=182|52=20150504-13:30:06|1=591866109-00|207=XSGO|6=0|11=-2f1ecf07e505b83e|14=0|17=ex1512444939|21=1|150=0|31=0|151=5000|32=0|100=XSGO|38=5000|39=0|37=11d5fd5069224ff9|583=7562c3a56ca446dd|40=2|44=5981.6|55=LAN|54=2|59=0|63=3|60=20150504-13:30:06.398|453=1|448=LARR|447=D|452=1|10=101|
20150504-13:30:06.424: 8=FIX.4.4|9=0320|35=8|49=ADR_ARBITRAGE_IB_XSGO|56=LVBSG|34=183|52=20150504-13:30:06|1=591866109-00|207=XSGO|6=0|11=-61b40a8cc5aaba3f|14=0|17=ex1512444940|21=1|150=0|31=0|151=3000|32=0|100=XSGO|38=3000|39=0|37=1712150799e0456a|583=4ddc48d71caf41e0|40=2|44=13816|55=SQM-B|54=2|59=0|63=3|60=20150504-13:30:06.409|453=1|448=LARR|447=D|452=1|10=172|
20150504-13:30:06.428: 8=FIX.4.4|9=0350|35=8|49=ADR_ARBITRAGE_IB_XSGO|56=LVBSG|34=184|52=20150504-13:30:06|1=591866109-00|207=XSGO|6=0|11=-7429531322cbb610|14=0|17=ex1512444942|21=1|150=5|31=0|151=1500000|32=0|100=XSGO|38=1500000|39=0|37=19b974157b4e43ab|583=352fe6f1a77e44f4|40=2|41=7f7ee4d8151d43d1|44=6.748|55=CORPBANCA|54=1|59=0|63=3|60=20150504-13:30:06.411|453=1|448=LARR|447=D|452=1|10=047|
20150504-13:30:06.437: 8=FIX.4.4|9=0322|35=8|49=ADR_ARBITRAGE_IB_XSGO|56=LVBSG|34=185|52=20150504-13:30:06|1=591866109-00|207=XSGO|6=0|11=25bf3bb79c5544b4|14=0|17=ex1512444943|21=1|150=0|31=0|151=300000|32=0|100=XSGO|38=300000|39=0|37=2669ad5c54141b3|583=1f73c3d6476b4f6c|40=2|44=71.25|55=CHILE|54=1|59=0|63=3|60=20150504-13:30:06.423|453=1|448=LARR|447=D|452=1|10=151|
20150504-13:30:06.441: 8=FIX.4.4|9=0338|35=8|49=ADR_ARBITRAGE_IB_XSGO|56=LVBSG|34=186|52=20150504-13:30:06|1=591866109-00|207=XSGO|6=71.25|11=25bf3bb79c5544b4|14=50000|17=ex1512444945|21=1|150=F|31=71.25|151=250000|32=50000|100=XSGO|38=300000|39=1|37=2669ad5c54141b3|583=1f73c3d6476b4f6c|40=2|44=71.25|55=CHILE|54=1|59=0|63=3|60=20150504-13:30:06.423|453=1|448=LARR|447=D|452=1|10=224|
20150504-13:30:06.449: 8=FIX.4.4|9=0340|35=8|49=ADR_ARBITRAGE_IB_XSGO|56=LVBSG|34=187|52=20150504-13:30:06|1=591866109-00|207=XSGO|6=71.25|11=25bf3bb79c5544b4|14=200000|17=ex1512444948|21=1|150=F|31=71.25|151=100000|32=150000|100=XSGO|38=300000|39=1|37=2669ad5c54141b3|583=1f73c3d6476b4f6c|40=2|44=71.25|55=CHILE|54=1|59=0|63=3|60=20150504-13:30:06.429|453=1|448=LARR|447=D|452=1|10=059|
20150504-13:30:06.452: 8=FIX.4.4|9=0344|35=8|49=ADR_ARBITRAGE_IB_XSGO|56=LVBSG|34=188|52=20150504-13:30:06|1=591866109-00|207=XSGO|6=0|11=4451d7fe8b4a43|14=514|17=71d4e52cf9c241fb|21=1|150=E|31=0|151=3000|32=0|100=XSGO|38=3514|39=E|37=-6eebbc7420f1bc24|583=4ddc48d71caf41e0|40=2|41=466893150a1e417d|44=13674|55=SQM-B|54=1|59=0|63=3|60=20150504-13:30:06.433|453=1|448=LARR|447=D|452=1|10=122|
20150504-13:30:06.454: 8=FIX.4.4|9=0335|35=8|49=ADR_ARBITRAGE_IB_XSGO|56=LVBSG|34=189|52=20150504-13:30:06|1=591866109-00|207=XSGO|6=71.25|11=25bf3bb79c5544b4|14=300000|17=ex1512444951|21=1|150=F|31=71.25|151=0|32=100000|100=XSGO|38=300000|39=2|37=2669ad5c54141b3|583=1f73c3d6476b4f6c|40=2|44=71.25|55=CHILE|54=1|59=0|63=3|60=20150504-13:30:06.438|453=1|448=LARR|447=D|452=1|10=071|
20150504-13:30:06.460: 8=FIX.4.4|9=0347|35=8|49=ADR_ARBITRAGE_IB_XSGO|56=LVBSG|34=190|52=20150504-13:30:06|1=591866109-00|207=XSGO|6=0|11=4efb41c901ac4d09|14=18|17=ex1512444953|21=1|150=5|31=0|151=200000|32=0|100=XSGO|38=200018|39=1|37=1449e2d93a8541f5|583=55a2c273a91f4276|40=2|41=-4c73fb11e30be6e|44=220.72|55=ENERSIS|54=1|59=0|63=3|60=20150504-13:30:06.448|453=1|448=LARR|447=D|452=1|10=238|
20150504-13:30:06.465: 8=FIX.4.4|9=0362|35=8|49=ADR_ARBITRAGE_IB_XSGO|56=LVBSG|34=191|52=20150504-13:30:06|1=591866109-00|207=XSGO|6=216.3|11=4efb41c901ac4d09|14=69430|17=ex1512444955|21=1|150=F|31=216.3|151=130588|32=69412|100=XSGO|38=200018|39=1|37=1449e2d93a8541f5|583=55a2c273a91f4276|40=2|41=-4c73fb11e30be6e|44=220.72|55=ENERSIS|54=1|59=0|63=3|60=20150504-13:30:06.454|453=1|448=LARR|447=D|452=1|10=026|
20150504-13:30:06.474: 8=FIX.4.4|9=0365|35=8|49=ADR_ARBITRAGE_IB_XSGO|56=LVBSG|34=192|52=20150504-13:30:06|1=591866109-00|207=XSGO|6=216.71|11=4efb41c901ac4d09|14=169430|17=ex1512444957|21=1|150=F|31=216.99|151=30588|32=100000|100=XSGO|38=200018|39=1|37=1449e2d93a8541f5|583=55a2c273a91f4276|40=2|41=-4c73fb11e30be6e|44=220.72|55=ENERSIS|54=1|59=0|63=3|60=20150504-13:30:06.456|453=1|448=LARR|447=D|452=1|10=177|
20150504-13:30:06.482: 8=FIX.4.4|9=0360|35=8|49=ADR_ARBITRAGE_IB_XSGO|56=LVBSG|34=193|52=20150504-13:30:06|1=591866109-00|207=XSGO|6=216.71|11=4efb41c901ac4d09|14=171686|17=ex1512444959|21=1|150=F|31=217|151=28332|32=2256|100=XSGO|38=200018|39=1|37=1449e2d93a8541f5|583=55a2c273a91f4276|40=2|41=-4c73fb11e30be6e|44=220.72|55=ENERSIS|54=1|59=0|63=3|60=20150504-13:30:06.464|453=1|448=LARR|447=D|452=1|10=189|
20150504-13:30:06.491: 8=FIX.4.4|9=0357|35=8|49=ADR_ARBITRAGE_IB_XSGO|56=LVBSG|34=194|52=20150504-13:30:06|1=591866109-00|207=XSGO|6=216.75|11=4efb41c901ac4d09|14=200018|17=ex1512444961|21=1|150=F|31=217|151=0|32=28332|100=XSGO|38=200018|39=2|37=1449e2d93a8541f5|583=55a2c273a91f4276|40=2|41=-4c73fb11e30be6e|44=220.72|55=ENERSIS|54=1|59=0|63=3|60=20150504-13:30:06.480|453=1|448=LARR|447=D|452=1|10=015|
20150504-13:30:06.504: 8=FIX.4.4|9=0340|35=8|49=ADR_ARBITRAGE_IB_XSGO|56=LVBSG|34=195|52=20150504-13:30:06|1=591866109-00|207=XSGO|6=0|11=-66c2323cb6f1b21f|14=0|17=ex1512444968|21=1|150=5|31=0|151=5000|32=0|100=XSGO|38=5000|39=0|37=1dde7174018c42bd|583=7562c3a56ca446dd|40=2|41=-2ffc7478fc5db74b|44=5852.3|55=LAN|54=1|59=0|63=3|60=20150504-13:30:06.481|453=1|448=LARR|447=D|452=1|10=226|
20150504-13:30:06.513: 8=FIX.4.4|9=0344|35=8|49=ADR_ARBITRAGE_IB_XSGO|56=LVBSG|34=196|52=20150504-13:30:06|1=591866109-00|207=XSGO|6=0|11=-33c3ea3eb07fbf8b|14=0|17=ex1512444970|21=1|150=5|31=0|151=15000|32=0|100=XSGO|38=15000|39=0|37=-1f7d2b22c8fb67a|583=1a58b0414bde4e92|40=2|41=-4e1c3025bbd0b68a|44=925.7|55=ENDESA|54=1|59=0|63=3|60=20150504-13:30:06.484|453=1|448=LARR|447=D|452=1|10=091|
20150504-13:30:06.514: 8=FIX.4.4|9=0344|35=8|49=ADR_ARBITRAGE_IB_XSGO|56=LVBSG|34=197|52=20150504-13:30:06|1=591866109-00|207=XSGO|6=0|11=2ccc40403fef4d23|14=0|17=ex1512444972|21=1|150=5|31=0|151=1500|32=0|100=XSGO|38=1500|39=0|37=-6fe251d3a64cb975|583=4c271515b544210|40=2|41=-776c8c94bc30b15c|44=1535.7|55=CENCOSUD|54=1|59=0|63=3|60=20150504-13:30:06.491|453=1|448=LARR|447=D|452=1|10=043|
20150504-13:30:06.589: 8=FIX.4.4|9=0340|35=8|49=ADR_ARBITRAGE_IB_XSGO|56=LVBSG|34=198|52=20150504-13:30:06|1=591866109-00|207=XSGO|6=0|11=4451d7fe8b4a43|14=514|17=ex1512444991|21=1|150=5|31=0|151=3000|32=0|100=XSGO|38=3514|39=1|37=-6eebbc7420f1bc24|583=4ddc48d71caf41e0|40=2|41=466893150a1e417d|44=13674|55=SQM-B|54=1|59=0|63=3|60=20150504-13:30:06.578|453=1|448=LARR|447=D|452=1|10=178|
20150504-13:30:06.594: 8=FIX.4.4|9=0351|35=8|49=ADR_ARBITRAGE_IB_XSGO|56=LVBSG|34=199|52=20150504-13:30:06|1=591866109-00|207=XSGO|6=13596|11=4451d7fe8b4a43|14=1403|17=ex1512444993|21=1|150=F|31=13599|151=2111|32=889|100=XSGO|38=3514|39=1|37=-6eebbc7420f1bc24|583=4ddc48d71caf41e0|40=2|41=466893150a1e417d|44=13674|55=SQM-B|54=1|59=0|63=3|60=20150504-13:30:06.585|453=1|448=LARR|447=D|452=1|10=034|
20150504-13:30:06.653: 8=FIX.4.4|9=0351|35=8|49=ADR_ARBITRAGE_IB_XSGO|56=LVBSG|34=200|52=20150504-13:30:06|1=591866109-00|207=XSGO|6=13597|11=4451d7fe8b4a43|14=2366|17=ex1512444996|21=1|150=F|31=13599|151=1148|32=963|100=XSGO|38=3514|39=1|37=-6eebbc7420f1bc24|583=4ddc48d71caf41e0|40=2|41=466893150a1e417d|44=13674|55=SQM-B|54=1|59=0|63=3|60=20150504-13:30:06.591|453=1|448=LARR|447=D|452=1|10=029|
20150504-13:30:06.653: 8=FIX.4.4|9=0350|35=8|49=ADR_ARBITRAGE_IB_XSGO|56=LVBSG|34=201|52=20150504-13:30:06|1=591866109-00|207=XSGO|6=13598|11=4451d7fe8b4a43|14=3329|17=ex1512444999|21=1|150=F|31=13599|151=185|32=963|100=XSGO|38=3514|39=1|37=-6eebbc7420f1bc24|583=4ddc48d71caf41e0|40=2|41=466893150a1e417d|44=13674|55=SQM-B|54=1|59=0|63=3|60=20150504-13:30:06.597|453=1|448=LARR|447=D|452=1|10=247|
20150504-13:30:06.654: 8=FIX.4.4|9=0349|35=8|49=ADR_ARBITRAGE_IB_XSGO|56=LVBSG|34=202|52=20150504-13:30:06|1=591866109-00|207=XSGO|6=13598|11=4451d7fe8b4a43|14=3440|17=ex1512445002|21=1|150=F|31=13599|151=74|32=111|100=XSGO|38=3514|39=1|37=-6eebbc7420f1bc24|583=4ddc48d71caf41e0|40=2|41=466893150a1e417d|44=13674|55=SQM-B|54=1|59=0|63=3|60=20150504-13:30:06.603|453=1|448=LARR|447=D|452=1|10=148|
20150504-13:30:06.655: 8=FIX.4.4|9=0347|35=8|49=ADR_ARBITRAGE_IB_XSGO|56=LVBSG|34=203|52=20150504-13:30:06|1=591866109-00|207=XSGO|6=13598|11=4451d7fe8b4a43|14=3514|17=ex1512445004|21=1|150=F|31=13600|151=0|32=74|100=XSGO|38=3514|39=2|37=-6eebbc7420f1bc24|583=4ddc48d71caf41e0|40=2|41=466893150a1e417d|44=13674|55=SQM-B|54=1|59=0|63=3|60=20150504-13:30:06.616|453=1|448=LARR|447=D|452=1|10=040|
20150504-13:30:06.742: 8=FIX.4.4|9=266|35=G|34=157|49=LVBSG|52=20150504-13:30:06.742|56=ADR_ARBITRAGE_IB_XSGO|1=591866109-00|11=-55bd991829b4b0c9|21=1|38=1500000|40=2|41=61fef6cae0440ae|44=6.973|54=2|55=CORPBANCA|59=0|60=20150504-13:30:06.741|63=3|100=XSGO|583=352fe6f1a77e44f4|453=1|448=LARR|447=D|452=1|10=217|
20150504-13:30:06.757: 8=FIX.4.4|9=0352|35=8|49=ADR_ARBITRAGE_IB_XSGO|56=LVBSG|34=204|52=20150504-13:30:06|1=591866109-00|207=XSGO|6=0|11=-55bd991829b4b0c9|14=0|17=882f00cadb5450e|21=1|150=E|31=0|151=1500000|32=0|100=XSGO|38=1500000|39=E|37=7609ca39ec2740fa|583=352fe6f1a77e44f4|40=2|41=61fef6cae0440ae|44=6.973|55=CORPBANCA|54=2|59=0|63=3|60=20150504-13:30:06.753|453=1|448=LARR|447=D|452=1|10=099|
20150504-13:30:06.791: 8=FIX.4.4|9=0349|35=8|49=ADR_ARBITRAGE_IB_XSGO|56=LVBSG|34=205|52=20150504-13:30:06|1=591866109-00|207=XSGO|6=0|11=-55bd991829b4b0c9|14=0|17=ex1512445006|21=1|150=5|31=0|151=1500000|32=0|100=XSGO|38=1500000|39=0|37=7609ca39ec2740fa|583=352fe6f1a77e44f4|40=2|41=61fef6cae0440ae|44=6.973|55=CORPBANCA|54=2|59=0|63=3|60=20150504-13:30:06.786|453=1|448=LARR|447=D|452=1|10=255|
20150504-13:30:06.818: 8=FIX.4.4|9=250|35=D|34=158|49=LVBSG|52=20150504-13:30:06.817|56=ADR_ARBITRAGE_IB_XSGO|1=591866109-00|11=-8720fb7e106b13d|21=1|38=300000|40=2|44=71.25|54=1|55=CHILE|59=0|60=20150504-13:30:06.817|63=3|100=XSGO|207=XSGO|583=1f73c3d6476b4f6c|453=1|448=LARR|447=D|452=1|10=032|
20150504-13:30:06.823: 8=FIX.4.4|9=263|35=G|34=159|49=LVBSG|52=20150504-13:30:06.822|56=ADR_ARBITRAGE_IB_XSGO|1=591866109-00|11=-ed9f92c841ebb81|21=1|38=1500|40=2|41=-637ba7d51a2eb11a|44=1668.9|54=2|55=CENCOSUD|59=0|60=20150504-13:30:06.822|63=3|100=XSGO|583=4c271515b544210|453=1|448=LARR|447=D|452=1|10=145|
20150504-13:30:06.824: 8=FIX.4.4|9=261|35=G|34=160|49=LVBSG|52=20150504-13:30:06.824|56=ADR_ARBITRAGE_IB_XSGO|1=591866109-00|11=-217ff0ec4970b585|21=1|38=2000|40=2|41=-329e272ae7e2b452|44=6770.5|54=2|55=CCU|59=0|60=20150504-13:30:06.824|63=3|100=XSGO|583=-6a1d772ab7c1bc5b|453=1|448=LARR|447=D|452=1|10=013|
20150504-13:30:06.825: 8=FIX.4.4|9=265|35=G|34=161|49=LVBSG|52=20150504-13:30:06.825|56=ADR_ARBITRAGE_IB_XSGO|1=591866109-00|11=-24b439763e9eb4af|21=1|38=6000|40=2|41=7561271f7c084efc|44=1974.6|54=2|55=ANDINA-B|59=0|60=20150504-13:30:06.824|63=3|100=XSGO|583=-3b55eb5c7ea2bf56|453=1|448=LARR|447=D|452=1|10=111|
20150504-13:30:06.826: 8=FIX.4.4|9=263|35=G|34=162|49=LVBSG|52=20150504-13:30:06.826|56=ADR_ARBITRAGE_IB_XSGO|1=591866109-00|11=-1ec28a28886eb793|21=1|38=15000|40=2|41=2522b989dd414795|44=971.45|54=2|55=ENDESA|59=0|60=20150504-13:30:06.824|63=3|100=XSGO|583=1a58b0414bde4e92|453=1|448=LARR|447=D|452=1|10=028|
20150504-13:30:06.827: 8=FIX.4.4|9=258|35=G|34=163|49=LVBSG|52=20150504-13:30:06.827|56=ADR_ARBITRAGE_IB_XSGO|1=591866109-00|11=5be466003fe4a12|21=1|38=5000|40=2|41=-2f1ecf07e505b83e|44=5988.2|54=2|55=LAN|59=0|60=20150504-13:30:06.825|63=3|100=XSGO|583=7562c3a56ca446dd|453=1|448=LARR|447=D|452=1|10=144|
20150504-13:30:06.828: 8=FIX.4.4|9=267|35=G|34=164|49=LVBSG|52=20150504-13:30:06.828|56=ADR_ARBITRAGE_IB_XSGO|1=591866109-00|11=-2195a30884d9b902|21=1|38=1500000|40=2|41=-55bd991829b4b0c9|44=6.97|54=2|55=CORPBANCA|59=0|60=20150504-13:30:06.825|63=3|100=XSGO|583=352fe6f1a77e44f4|453=1|448=LARR|447=D|452=1|10=040|
20150504-13:30:06.829: 8=FIX.4.4|9=263|35=G|34=165|49=LVBSG|52=20150504-13:30:06.829|56=ADR_ARBITRAGE_IB_XSGO|1=591866109-00|11=9319f9e440947f0|21=1|38=200000|40=2|41=3688f0c06cab4c81|44=222.35|54=2|55=ENERSIS|59=0|60=20150504-13:30:06.826|63=3|100=XSGO|583=55a2c273a91f4276|453=1|448=LARR|447=D|452=1|10=022|
20150504-13:30:06.832: 8=FIX.4.4|9=261|35=G|34=166|49=LVBSG|52=20150504-13:30:06.831|56=ADR_ARBITRAGE_IB_XSGO|1=591866109-00|11=-55a71dcf1ca2b883|21=1|38=3000|40=2|41=-61b40a8cc5aaba3f|44=13817|54=2|55=SQM-B|59=0|60=20150504-13:30:06.831|63=3|100=XSGO|583=4ddc48d71caf41e0|453=1|448=LARR|447=D|452=1|10=064|
20150504-13:30:06.844: 8=FIX.4.4|9=0329|35=8|49=ADR_ARBITRAGE_IB_XSGO|56=LVBSG|34=206|52=20150504-13:30:06|1=591866109-00|207=XSGO|6=0|11=-8720fb7e106b13d|14=0|17=-2114db5ce53ebfa2|21=1|150=A|31=0|151=300000|32=0|100=XSGO|38=300000|39=A|37=-707a2a024b32b956|583=1f73c3d6476b4f6c|40=2|44=71.25|55=CHILE|54=1|59=0|63=3|60=20150504-13:30:06.827|453=1|448=LARR|447=D|452=1|10=220|
20150504-13:30:06.856: 8=FIX.4.4|9=0347|35=8|49=ADR_ARBITRAGE_IB_XSGO|56=LVBSG|34=207|52=20150504-13:30:06|1=591866109-00|207=XSGO|6=0|11=-ed9f92c841ebb81|14=0|17=c02dd57e5ca415a|21=1|150=E|31=0|151=1500|32=0|100=XSGO|38=1500|39=E|37=-766ed6a30c1ebf34|583=4c271515b544210|40=2|41=-637ba7d51a2eb11a|44=1668.9|55=CENCOSUD|54=2|59=0|63=3|60=20150504-13:30:06.842|453=1|448=LARR|447=D|452=1|10=025|
20150504-13:30:06.857: 8=FIX.4.4|9=0344|35=8|49=ADR_ARBITRAGE_IB_XSGO|56=LVBSG|34=208|52=20150504-13:30:06|1=591866109-00|207=XSGO|6=0|11=-217ff0ec4970b585|14=0|17=4398e0bcc6f24657|21=1|150=E|31=0|151=2000|32=0|100=XSGO|38=2000|39=E|37=9dfabe7da4145ae|583=-6a1d772ab7c1bc5b|40=2|41=-329e272ae7e2b452|44=6770.5|55=CCU|54=2|59=0|63=3|60=20150504-13:30:06.843|453=1|448=LARR|447=D|452=1|10=125|
20150504-13:30:06.866: 8=FIX.4.4|9=0348|35=8|49=ADR_ARBITRAGE_IB_XSGO|56=LVBSG|34=209|52=20150504-13:30:06|1=591866109-00|207=XSGO|6=0|11=-24b439763e9eb4af|14=0|17=34549bee36b4c43|21=1|150=E|31=0|151=6000|32=0|100=XSGO|38=6000|39=E|37=4c9faa6e572d486c|583=-3b55eb5c7ea2bf56|40=2|41=7561271f7c084efc|44=1974.6|55=ANDINA-B|54=2|59=0|63=3|60=20150504-13:30:06.843|453=1|448=LARR|447=D|452=1|10=134|
20150504-13:30:06.867: 8=FIX.4.4|9=0349|35=8|49=ADR_ARBITRAGE_IB_XSGO|56=LVBSG|34=210|52=20150504-13:30:06|1=591866109-00|207=XSGO|6=0|11=-1ec28a28886eb793|14=0|17=-151369438bc7bb75|21=1|150=E|31=0|151=15000|32=0|100=XSGO|38=15000|39=E|37=60a0c8af0e7649aa|583=1a58b0414bde4e92|40=2|41=2522b989dd414795|44=971.45|55=ENDESA|54=2|59=0|63=3|60=20150504-13:30:06.843|453=1|448=LARR|447=D|452=1|10=127|
20150504-13:30:06.867: 8=FIX.4.4|9=0342|35=8|49=ADR_ARBITRAGE_IB_XSGO|56=LVBSG|34=211|52=20150504-13:30:06|1=591866109-00|207=XSGO|6=0|11=5be466003fe4a12|14=0|17=7337dca433c14863|21=1|150=E|31=0|151=5000|32=0|100=XSGO|38=5000|39=E|37=11d5fd5069224ff9|583=7562c3a56ca446dd|40=2|41=-2f1ecf07e505b83e|44=5988.2|55=LAN|54=2|59=0|63=3|60=20150504-13:30:06.848|453=1|448=LARR|447=D|452=1|10=052|
20150504-13:30:06.867: 8=FIX.4.4|9=0354|35=8|49=ADR_ARBITRAGE_IB_XSGO|56=LVBSG|34=212|52=20150504-13:30:06|1=591866109-00|207=XSGO|6=0|11=-2195a30884d9b902|14=0|17=1e4d8989bfa44058|21=1|150=E|31=0|151=1500000|32=0|100=XSGO|38=1500000|39=E|37=7609ca39ec2740fa|583=352fe6f1a77e44f4|40=2|41=-55bd991829b4b0c9|44=6.97|55=CORPBANCA|54=2|59=0|63=3|60=20150504-13:30:06.853|453=1|448=LARR|447=D|452=1|10=198|
20150504-13:30:06.867: 8=FIX.4.4|9=0351|35=8|49=ADR_ARBITRAGE_IB_XSGO|56=LVBSG|34=213|52=20150504-13:30:06|1=591866109-00|207=XSGO|6=0|11=9319f9e440947f0|14=0|17=-20d7f7b55abfb2f6|21=1|150=E|31=0|151=200000|32=0|100=XSGO|38=200000|39=E|37=-12baad5e1d41ba80|583=55a2c273a91f4276|40=2|41=3688f0c06cab4c81|44=222.35|55=ENERSIS|54=2|59=0|63=3|60=20150504-13:30:06.855|453=1|448=LARR|447=D|452=1|10=164|
20150504-13:30:06.868: 8=FIX.4.4|9=0346|35=8|49=ADR_ARBITRAGE_IB_XSGO|56=LVBSG|34=214|52=20150504-13:30:06|1=591866109-00|207=XSGO|6=0|11=-55a71dcf1ca2b883|14=0|17=-7dfb3b3b678db52f|21=1|150=E|31=0|151=3000|32=0|100=XSGO|38=3000|39=E|37=1712150799e0456a|583=4ddc48d71caf41e0|40=2|41=-61b40a8cc5aaba3f|44=13817|55=SQM-B|54=2|59=0|63=3|60=20150504-13:30:06.856|453=1|448=LARR|447=D|452=1|10=079|
20150504-13:30:06.920: 8=FIX.4.4|9=0344|35=8|49=ADR_ARBITRAGE_IB_XSGO|56=LVBSG|34=215|52=20150504-13:30:06|1=591866109-00|207=XSGO|6=0|11=-ed9f92c841ebb81|14=0|17=ex1512445009|21=1|150=5|31=0|151=1500|32=0|100=XSGO|38=1500|39=0|37=-766ed6a30c1ebf34|583=4c271515b544210|40=2|41=-637ba7d51a2eb11a|44=1668.9|55=CENCOSUD|54=2|59=0|63=3|60=20150504-13:30:06.902|453=1|448=LARR|447=D|452=1|10=119|
20150504-13:30:06.925: 8=FIX.4.4|9=0340|35=8|49=ADR_ARBITRAGE_IB_XSGO|56=LVBSG|34=216|52=20150504-13:30:06|1=591866109-00|207=XSGO|6=0|11=-217ff0ec4970b585|14=0|17=ex1512445011|21=1|150=5|31=0|151=2000|32=0|100=XSGO|38=2000|39=0|37=9dfabe7da4145ae|583=-6a1d772ab7c1bc5b|40=2|41=-329e272ae7e2b452|44=6770.5|55=CCU|54=2|59=0|63=3|60=20150504-13:30:06.920|453=1|448=LARR|447=D|452=1|10=235|
20150504-13:30:06.934: 8=FIX.4.4|9=0324|35=8|49=ADR_ARBITRAGE_IB_XSGO|56=LVBSG|34=217|52=20150504-13:30:06|1=591866109-00|207=XSGO|6=0|11=-8720fb7e106b13d|14=0|17=ex1512445012|21=1|150=0|31=0|151=300000|32=0|100=XSGO|38=300000|39=0|37=-707a2a024b32b956|583=1f73c3d6476b4f6c|40=2|44=71.25|55=CHILE|54=1|59=0|63=3|60=20150504-13:30:06.924|453=1|448=LARR|447=D|452=1|10=171|
20150504-13:30:06.947: 8=FIX.4.4|9=0345|35=8|49=ADR_ARBITRAGE_IB_XSGO|56=LVBSG|34=218|52=20150504-13:30:06|1=591866109-00|207=XSGO|6=0|11=-24b439763e9eb4af|14=0|17=ex1512445014|21=1|150=5|31=0|151=6000|32=0|100=XSGO|38=6000|39=0|37=4c9faa6e572d486c|583=-3b55eb5c7ea2bf56|40=2|41=7561271f7c084efc|44=1974.6|55=ANDINA-B|54=2|59=0|63=3|60=20150504-13:30:06.936|453=1|448=LARR|447=D|452=1|10=059|
20150504-13:30:06.947: 8=FIX.4.4|9=0344|35=8|49=ADR_ARBITRAGE_IB_XSGO|56=LVBSG|34=219|52=20150504-13:30:06|1=591866109-00|207=XSGO|6=0|11=-1ec28a28886eb793|14=0|17=ex1512445016|21=1|150=5|31=0|151=15000|32=0|100=XSGO|38=15000|39=0|37=60a0c8af0e7649aa|583=1a58b0414bde4e92|40=2|41=2522b989dd414795|44=971.45|55=ENDESA|54=2|59=0|63=3|60=20150504-13:30:06.937|453=1|448=LARR|447=D|452=1|10=011|
20150504-13:30:06.950: 8=FIX.4.4|9=0338|35=8|49=ADR_ARBITRAGE_IB_XSGO|56=LVBSG|34=220|52=20150504-13:30:06|1=591866109-00|207=XSGO|6=0|11=5be466003fe4a12|14=0|17=ex1512445018|21=1|150=5|31=0|151=5000|32=0|100=XSGO|38=5000|39=0|37=11d5fd5069224ff9|583=7562c3a56ca446dd|40=2|41=-2f1ecf07e505b83e|44=5988.2|55=LAN|54=2|59=0|63=3|60=20150504-13:30:06.941|453=1|448=LARR|447=D|452=1|10=235|
20150504-13:30:06.976: 8=FIX.4.4|9=0350|35=8|49=ADR_ARBITRAGE_IB_XSGO|56=LVBSG|34=221|52=20150504-13:30:06|1=591866109-00|207=XSGO|6=0|11=-2195a30884d9b902|14=0|17=ex1512445020|21=1|150=5|31=0|151=1500000|32=0|100=XSGO|38=1500000|39=0|37=7609ca39ec2740fa|583=352fe6f1a77e44f4|40=2|41=-55bd991829b4b0c9|44=6.97|55=CORPBANCA|54=2|59=0|63=3|60=20150504-13:30:06.949|453=1|448=LARR|447=D|452=1|10=058|
20150504-13:30:06.981: 8=FIX.4.4|9=0346|35=8|49=ADR_ARBITRAGE_IB_XSGO|56=LVBSG|34=222|52=20150504-13:30:06|1=591866109-00|207=XSGO|6=0|11=9319f9e440947f0|14=0|17=ex1512445022|21=1|150=5|31=0|151=200000|32=0|100=XSGO|38=200000|39=0|37=-12baad5e1d41ba80|583=55a2c273a91f4276|40=2|41=3688f0c06cab4c81|44=222.35|55=ENERSIS|54=2|59=0|63=3|60=20150504-13:30:06.955|453=1|448=LARR|447=D|452=1|10=111|
20150504-13:30:06.985: 8=FIX.4.4|9=263|35=G|34=167|49=LVBSG|52=20150504-13:30:06.985|56=ADR_ARBITRAGE_IB_XSGO|1=591866109-00|11=7ba49d8c890646e7|21=1|38=200000|40=2|41=9319f9e440947f0|44=222.23|54=2|55=ENERSIS|59=0|60=20150504-13:30:06.985|63=3|100=XSGO|583=55a2c273a91f4276|453=1|448=LARR|447=D|452=1|10=003|
20150504-13:30:06.992: 8=FIX.4.4|9=0341|35=8|49=ADR_ARBITRAGE_IB_XSGO|56=LVBSG|34=223|52=20150504-13:30:06|1=591866109-00|207=XSGO|6=0|11=-55a71dcf1ca2b883|14=0|17=ex1512445024|21=1|150=5|31=0|151=3000|32=0|100=XSGO|38=3000|39=0|37=1712150799e0456a|583=4ddc48d71caf41e0|40=2|41=-61b40a8cc5aaba3f|44=13817|55=SQM-B|54=2|59=0|63=3|60=20150504-13:30:06.980|453=1|448=LARR|447=D|452=1|10=010|
20150504-13:30:07.005: 8=FIX.4.4|9=0350|35=8|49=ADR_ARBITRAGE_IB_XSGO|56=LVBSG|34=224|52=20150504-13:30:07|1=591866109-00|207=XSGO|6=0|11=7ba49d8c890646e7|14=0|17=-2c62bd4c2c5be89|21=1|150=E|31=0|151=200000|32=0|100=XSGO|38=200000|39=E|37=-12baad5e1d41ba80|583=55a2c273a91f4276|40=2|41=9319f9e440947f0|44=222.23|55=ENERSIS|54=2|59=0|63=3|60=20150504-13:30:07.000|453=1|448=LARR|447=D|452=1|10=020|
20150504-13:30:07.038: 8=FIX.4.4|9=0346|35=8|49=ADR_ARBITRAGE_IB_XSGO|56=LVBSG|34=225|52=20150504-13:30:07|1=591866109-00|207=XSGO|6=0|11=7ba49d8c890646e7|14=0|17=ex1512445026|21=1|150=5|31=0|151=200000|32=0|100=XSGO|38=200000|39=0|37=-12baad5e1d41ba80|583=55a2c273a91f4276|40=2|41=9319f9e440947f0|44=222.23|55=ENERSIS|54=2|59=0|63=3|60=20150504-13:30:07.033|453=1|448=LARR|447=D|452=1|10=077|
20150504-13:30:07.111: 8=FIX.4.4|9=250|35=D|34=168|49=LVBSG|52=20150504-13:30:07.111|56=ADR_ARBITRAGE_IB_XSGO|1=591866109-00|11=129bfe0590b6433d|21=1|38=200000|40=2|44=217|54=1|55=ENERSIS|59=0|60=20150504-13:30:07.111|63=3|100=XSGO|207=XSGO|583=55a2c273a91f4276|453=1|448=LARR|447=D|452=1|10=252|
20150504-13:30:07.132: 8=FIX.4.4|9=0329|35=8|49=ADR_ARBITRAGE_IB_XSGO|56=LVBSG|34=226|52=20150504-13:30:07|1=591866109-00|207=XSGO|6=0|11=129bfe0590b6433d|14=0|17=-2d8c060a8903b30a|21=1|150=A|31=0|151=200000|32=0|100=XSGO|38=200000|39=A|37=-4df4783ac6dfb0ab|583=55a2c273a91f4276|40=2|44=217|55=ENERSIS|54=1|59=0|63=3|60=20150504-13:30:07.119|453=1|448=LARR|447=D|452=1|10=051|
20150504-13:30:07.136: 8=FIX.4.4|9=249|35=D|34=169|49=LVBSG|52=20150504-13:30:07.136|56=ADR_ARBITRAGE_IB_XSGO|1=591866109-00|11=-15ad3cc305f2b9d6|21=1|38=3000|40=2|44=13590|54=1|55=SQM-B|59=0|60=20150504-13:30:07.135|63=3|100=XSGO|207=XSGO|583=4ddc48d71caf41e0|453=1|448=LARR|447=D|452=1|10=166|
20150504-13:30:07.154: 8=FIX.4.4|9=0325|35=8|49=ADR_ARBITRAGE_IB_XSGO|56=LVBSG|34=227|52=20150504-13:30:07|1=591866109-00|207=XSGO|6=0|11=-15ad3cc305f2b9d6|14=0|17=-18ec5ddbdeffb987|21=1|150=A|31=0|151=3000|32=0|100=XSGO|38=3000|39=A|37=563e61603b2442ed|583=4ddc48d71caf41e0|40=2|44=13590|55=SQM-B|54=1|59=0|63=3|60=20150504-13:30:07.145|453=1|448=LARR|447=D|452=1|10=081|
20150504-13:30:07.168: 8=FIX.4.4|9=0324|35=8|49=ADR_ARBITRAGE_IB_XSGO|56=LVBSG|34=228|52=20150504-13:30:07|1=591866109-00|207=XSGO|6=0|11=129bfe0590b6433d|14=0|17=ex1512445027|21=1|150=0|31=0|151=200000|32=0|100=XSGO|38=200000|39=0|37=-4df4783ac6dfb0ab|583=55a2c273a91f4276|40=2|44=217|55=ENERSIS|54=1|59=0|63=3|60=20150504-13:30:07.162|453=1|448=LARR|447=D|452=1|10=153|
20150504-13:30:07.174: 8=FIX.4.4|9=0337|35=8|49=ADR_ARBITRAGE_IB_XSGO|56=LVBSG|34=229|52=20150504-13:30:07|1=591866109-00|207=XSGO|6=217|11=129bfe0590b6433d|14=101237|17=ex1512445029|21=1|150=F|31=217|151=98763|32=101237|100=XSGO|38=200000|39=1|37=-4df4783ac6dfb0ab|583=55a2c273a91f4276|40=2|44=217|55=ENERSIS|54=1|59=0|63=3|60=20150504-13:30:07.169|453=1|448=LARR|447=D|452=1|10=125|
20150504-13:30:07.197: 8=FIX.4.4|9=0336|35=8|49=ADR_ARBITRAGE_IB_XSGO|56=LVBSG|34=230|52=20150504-13:30:07|1=591866109-00|207=XSGO|6=217|11=129bfe0590b6433d|14=136237|17=ex1512445031|21=1|150=F|31=217|151=63763|32=35000|100=XSGO|38=200000|39=1|37=-4df4783ac6dfb0ab|583=55a2c273a91f4276|40=2|44=217|55=ENERSIS|54=1|59=0|63=3|60=20150504-13:30:07.180|453=1|448=LARR|447=D|452=1|10=048|
20150504-13:30:07.204: 8=FIX.4.4|9=0336|35=8|49=ADR_ARBITRAGE_IB_XSGO|56=LVBSG|34=231|52=20150504-13:30:07|1=591866109-00|207=XSGO|6=217|11=129bfe0590b6433d|14=171237|17=ex1512445034|21=1|150=F|31=217|151=28763|32=35000|100=XSGO|38=200000|39=1|37=-4df4783ac6dfb0ab|583=55a2c273a91f4276|40=2|44=217|55=ENERSIS|54=1|59=0|63=3|60=20150504-13:30:07.186|453=1|448=LARR|447=D|452=1|10=058|
20150504-13:30:07.207: 8=FIX.4.4|9=0332|35=8|49=ADR_ARBITRAGE_IB_XSGO|56=LVBSG|34=232|52=20150504-13:30:07|1=591866109-00|207=XSGO|6=217|11=129bfe0590b6433d|14=200000|17=ex1512445037|21=1|150=F|31=217|151=0|32=28763|100=XSGO|38=200000|39=2|37=-4df4783ac6dfb0ab|583=55a2c273a91f4276|40=2|44=217|55=ENERSIS|54=1|59=0|63=3|60=20150504-13:30:07.199|453=1|448=LARR|447=D|452=1|10=100|
20150504-13:30:07.213: 8=FIX.4.4|9=0320|35=8|49=ADR_ARBITRAGE_IB_XSGO|56=LVBSG|34=233|52=20150504-13:30:07|1=591866109-00|207=XSGO|6=0|11=-15ad3cc305f2b9d6|14=0|17=ex1512445038|21=1|150=0|31=0|151=3000|32=0|100=XSGO|38=3000|39=0|37=563e61603b2442ed|583=4ddc48d71caf41e0|40=2|44=13590|55=SQM-B|54=1|59=0|63=3|60=20150504-13:30:07.206|453=1|448=LARR|447=D|452=1|10=167|
20150504-13:30:07.312: 8=FIX.4.4|9=269|35=G|34=170|49=LVBSG|52=20150504-13:30:07.311|56=ADR_ARBITRAGE_IB_XSGO|1=591866109-00|11=279d786f6d6a472f|21=1|38=3000|40=2|41=-15ad3cc305f2b9d6|44=13674|54=1|55=SQM-B|59=0|60=20150504-13:30:07.311|63=3|100=XSGO|207=XSGO|583=4ddc48d71caf41e0|453=1|448=LARR|447=D|452=1|10=133|
20150504-13:30:07.318: 8=FIX.4.4|9=270|35=G|34=171|49=LVBSG|52=20150504-13:30:07.318|56=ADR_ARBITRAGE_IB_XSGO|1=591866109-00|11=13cb79b0e71e4634|21=1|38=300000|40=2|41=-8720fb7e106b13d|44=71.33|54=1|55=CHILE|59=0|60=20150504-13:30:07.318|63=3|100=XSGO|207=XSGO|583=1f73c3d6476b4f6c|453=1|448=LARR|447=D|452=1|10=234|
20150504-13:30:07.331: 8=FIX.4.4|9=0344|35=8|49=ADR_ARBITRAGE_IB_XSGO|56=LVBSG|34=234|52=20150504-13:30:07|1=591866109-00|207=XSGO|6=0|11=279d786f6d6a472f|14=0|17=54d09b2c65b24ac4|21=1|150=E|31=0|151=3000|32=0|100=XSGO|38=3000|39=E|37=563e61603b2442ed|583=4ddc48d71caf41e0|40=2|41=-15ad3cc305f2b9d6|44=13674|55=SQM-B|54=1|59=0|63=3|60=20150504-13:30:07.322|453=1|448=LARR|447=D|452=1|10=060|
20150504-13:30:07.340: 8=FIX.4.4|9=0349|35=8|49=ADR_ARBITRAGE_IB_XSGO|56=LVBSG|34=235|52=20150504-13:30:07|1=591866109-00|207=XSGO|6=0|11=13cb79b0e71e4634|14=0|17=-20144eb96e86b498|21=1|150=E|31=0|151=300000|32=0|100=XSGO|38=300000|39=E|37=-707a2a024b32b956|583=1f73c3d6476b4f6c|40=2|41=-8720fb7e106b13d|44=71.33|55=CHILE|54=1|59=0|63=3|60=20150504-13:30:07.328|453=1|448=LARR|447=D|452=1|10=014|
20150504-13:30:07.344: 8=FIX.4.4|9=264|35=G|34=172|49=LVBSG|52=20150504-13:30:07.344|56=ADR_ARBITRAGE_IB_XSGO|1=591866109-00|11=6580caa5cf024ccf|21=1|38=200000|40=2|41=7ba49d8c890646e7|44=221.49|54=2|55=ENERSIS|59=0|60=20150504-13:30:07.343|63=3|100=XSGO|583=55a2c273a91f4276|453=1|448=LARR|447=D|452=1|10=254|
20150504-13:30:07.365: 8=FIX.4.4|9=0352|35=8|49=ADR_ARBITRAGE_IB_XSGO|56=LVBSG|34=236|52=20150504-13:30:07|1=591866109-00|207=XSGO|6=0|11=6580caa5cf024ccf|14=0|17=-715a54c0b669b31f|21=1|150=E|31=0|151=200000|32=0|100=XSGO|38=200000|39=E|37=-12baad5e1d41ba80|583=55a2c273a91f4276|40=2|41=7ba49d8c890646e7|44=221.49|55=ENERSIS|54=2|59=0|63=3|60=20150504-13:30:07.352|453=1|448=LARR|447=D|452=1|10=007|
20150504-13:30:07.385: 8=FIX.4.4|9=0340|35=8|49=ADR_ARBITRAGE_IB_XSGO|56=LVBSG|34=237|52=20150504-13:30:07|1=591866109-00|207=XSGO|6=0|11=279d786f6d6a472f|14=0|17=ex1512445053|21=1|150=5|31=0|151=3000|32=0|100=XSGO|38=3000|39=0|37=563e61603b2442ed|583=4ddc48d71caf41e0|40=2|41=-15ad3cc305f2b9d6|44=13674|55=SQM-B|54=1|59=0|63=3|60=20150504-13:30:07.373|453=1|448=LARR|447=D|452=1|10=159|
20150504-13:30:07.385: 8=FIX.4.4|9=0352|35=8|49=ADR_ARBITRAGE_IB_XSGO|56=LVBSG|34=238|52=20150504-13:30:07|1=591866109-00|207=XSGO|6=13620|11=279d786f6d6a472f|14=200|17=ex1512445055|21=1|150=F|31=13620|151=2800|32=200|100=XSGO|38=3000|39=1|37=563e61603b2442ed|583=4ddc48d71caf41e0|40=2|41=-15ad3cc305f2b9d6|44=13674|55=SQM-B|54=1|59=0|63=3|60=20150504-13:30:07.379|453=1|448=LARR|447=D|452=1|10=032|
20150504-13:30:07.397: 8=FIX.4.4|9=0344|35=8|49=ADR_ARBITRAGE_IB_XSGO|56=LVBSG|34=239|52=20150504-13:30:07|1=591866109-00|207=XSGO|6=0|11=13cb79b0e71e4634|14=0|17=ex1512445057|21=1|150=5|31=0|151=300000|32=0|100=XSGO|38=300000|39=0|37=-707a2a024b32b956|583=1f73c3d6476b4f6c|40=2|41=-8720fb7e106b13d|44=71.33|55=CHILE|54=1|59=0|63=3|60=20150504-13:30:07.390|453=1|448=LARR|447=D|452=1|10=142|
20150504-13:30:07.401: 8=FIX.4.4|9=0360|35=8|49=ADR_ARBITRAGE_IB_XSGO|56=LVBSG|34=240|52=20150504-13:30:07|1=591866109-00|207=XSGO|6=71.3|11=13cb79b0e71e4634|14=200000|17=ex1512445059|21=1|150=F|31=71.3|151=100000|32=200000|100=XSGO|38=300000|39=1|37=-707a2a024b32b956|583=1f73c3d6476b4f6c|40=2|41=-8720fb7e106b13d|44=71.33|55=CHILE|54=1|59=0|63=3|60=20150504-13:30:07.395|453=1|448=LARR|447=D|452=1|10=177|
20150504-13:30:07.407: 8=FIX.4.4|9=0347|35=8|49=ADR_ARBITRAGE_IB_XSGO|56=LVBSG|34=241|52=20150504-13:30:07|1=591866109-00|207=XSGO|6=0|11=6580caa5cf024ccf|14=0|17=ex1512445061|21=1|150=5|31=0|151=200000|32=0|100=XSGO|38=200000|39=0|37=-12baad5e1d41ba80|583=55a2c273a91f4276|40=2|41=7ba49d8c890646e7|44=221.49|55=ENERSIS|54=2|59=0|63=3|60=20150504-13:30:07.401|453=1|448=LARR|447=D|452=1|10=093|
20150504-13:30:07.739: 8=FIX.4.4|9=264|35=G|34=173|49=LVBSG|52=20150504-13:30:07.739|56=ADR_ARBITRAGE_IB_XSGO|1=591866109-00|11=2c68448472b04d8f|21=1|38=200000|40=2|41=6580caa5cf024ccf|44=221.37|54=2|55=ENERSIS|59=0|60=20150504-13:30:07.739|63=3|100=XSGO|583=55a2c273a91f4276|453=1|448=LARR|447=D|452=1|10=210|
20150504-13:30:07.750: 8=FIX.4.4|9=0351|35=8|49=ADR_ARBITRAGE_IB_XSGO|56=LVBSG|34=242|52=20150504-13:30:07|1=591866109-00|207=XSGO|6=0|11=2c68448472b04d8f|14=0|17=7de613a14b5e4f8e|21=1|150=E|31=0|151=200000|32=0|100=XSGO|38=200000|39=E|37=-12baad5e1d41ba80|583=55a2c273a91f4276|40=2|41=6580caa5cf024ccf|44=221.37|55=ENERSIS|54=2|59=0|63=3|60=20150504-13:30:07.745|453=1|448=LARR|447=D|452=1|10=004|
20150504-13:30:07.801: 8=FIX.4.4|9=0347|35=8|49=ADR_ARBITRAGE_IB_XSGO|56=LVBSG|34=243|52=20150504-13:30:07|1=591866109-00|207=XSGO|6=0|11=2c68448472b04d8f|14=0|17=ex1512445063|21=1|150=5|31=0|151=200000|32=0|100=XSGO|38=200000|39=0|37=-12baad5e1d41ba80|583=55a2c273a91f4276|40=2|41=6580caa5cf024ccf|44=221.37|55=ENERSIS|54=2|59=0|63=3|60=20150504-13:30:07.792|453=1|448=LARR|447=D|452=1|10=048|
20150504-13:30:08.181: 8=FIX.4.4|9=269|35=G|34=174|49=LVBSG|52=20150504-13:30:08.181|56=ADR_ARBITRAGE_IB_XSGO|1=591866109-00|11=-6b6139d83f00b768|21=1|38=3200|40=2|41=279d786f6d6a472f|44=13649|54=1|55=SQM-B|59=0|60=20150504-13:30:08.180|63=3|100=XSGO|207=XSGO|583=4ddc48d71caf41e0|453=1|448=LARR|447=D|452=1|10=022|
20150504-13:30:08.200: 8=FIX.4.4|9=0350|35=8|49=ADR_ARBITRAGE_IB_XSGO|56=LVBSG|34=244|52=20150504-13:30:08|1=591866109-00|207=XSGO|6=13620|11=-6b6139d83f00b768|14=200|17=1d3be410cf4546e7|21=1|150=E|31=0|151=2800|32=0|100=XSGO|38=3200|39=E|37=563e61603b2442ed|583=4ddc48d71caf41e0|40=2|41=279d786f6d6a472f|44=13649|55=SQM-B|54=1|59=0|63=3|60=20150504-13:30:08.194|453=1|448=LARR|447=D|452=1|10=254|
20150504-13:30:08.240: 8=FIX.4.4|9=270|35=G|34=175|49=LVBSG|52=20150504-13:30:08.240|56=ADR_ARBITRAGE_IB_XSGO|1=591866109-00|11=-5091ae9c463b2fd|21=1|38=500000|40=2|41=13cb79b0e71e4634|44=71.33|54=1|55=CHILE|59=0|60=20150504-13:30:08.239|63=3|100=XSGO|207=XSGO|583=1f73c3d6476b4f6c|453=1|448=LARR|447=D|452=1|10=036|
20150504-13:30:08.258: 8=FIX.4.4|9=0342|35=8|49=ADR_ARBITRAGE_IB_XSGO|56=LVBSG|34=245|52=20150504-13:30:08|1=591866109-00|207=XSGO|6=0|11=-6b6139d83f00b768|14=200|17=ex1512445065|21=1|150=5|31=0|151=3000|32=0|100=XSGO|38=3200|39=1|37=563e61603b2442ed|583=4ddc48d71caf41e0|40=2|41=279d786f6d6a472f|44=13649|55=SQM-B|54=1|59=0|63=3|60=20150504-13:30:08.252|453=1|448=LARR|447=D|452=1|10=134|
20150504-13:30:08.261: 8=FIX.4.4|9=0356|35=8|49=ADR_ARBITRAGE_IB_XSGO|56=LVBSG|34=246|52=20150504-13:30:08|1=591866109-00|207=XSGO|6=71.3|11=-5091ae9c463b2fd|14=200000|17=3df1934b5a064e87|21=1|150=E|31=0|151=100000|32=0|100=XSGO|38=500000|39=E|37=-707a2a024b32b956|583=1f73c3d6476b4f6c|40=2|41=13cb79b0e71e4634|44=71.33|55=CHILE|54=1|59=0|63=3|60=20150504-13:30:08.254|453=1|448=LARR|447=D|452=1|10=203|
20150504-13:30:08.263: 8=FIX.4.4|9=270|35=G|34=176|49=LVBSG|52=20150504-13:30:08.263|56=ADR_ARBITRAGE_IB_XSGO|1=591866109-00|11=-49aaca064700bc39|21=1|38=3200|40=2|41=-6b6139d83f00b768|44=13704|54=1|55=SQM-B|59=0|60=20150504-13:30:08.263|63=3|100=XSGO|207=XSGO|583=4ddc48d71caf41e0|453=1|448=LARR|447=D|452=1|10=072|
20150504-13:30:08.279: 8=FIX.4.4|9=0347|35=8|49=ADR_ARBITRAGE_IB_XSGO|56=LVBSG|34=247|52=20150504-13:30:08|1=591866109-00|207=XSGO|6=0|11=-49aaca064700bc39|14=200|17=4f402d7dc26748a4|21=1|150=E|31=0|151=3000|32=0|100=XSGO|38=3200|39=E|37=563e61603b2442ed|583=4ddc48d71caf41e0|40=2|41=-6b6139d83f00b768|44=13704|55=SQM-B|54=1|59=0|63=3|60=20150504-13:30:08.270|453=1|448=LARR|447=D|452=1|10=058|
20150504-13:30:08.346: 8=FIX.4.4|9=0349|35=8|49=ADR_ARBITRAGE_IB_XSGO|56=LVBSG|34=248|52=20150504-13:30:08|1=591866109-00|207=XSGO|6=0|11=-5091ae9c463b2fd|14=200000|17=ex1512445070|21=1|150=5|31=0|151=300000|32=0|100=XSGO|38=500000|39=1|37=-707a2a024b32b956|583=1f73c3d6476b4f6c|40=2|41=13cb79b0e71e4634|44=71.33|55=CHILE|54=1|59=0|63=3|60=20150504-13:30:08.331|453=1|448=LARR|447=D|452=1|10=182|
20150504-13:30:08.368: 8=FIX.4.4|9=0343|35=8|49=ADR_ARBITRAGE_IB_XSGO|56=LVBSG|34=249|52=20150504-13:30:08|1=591866109-00|207=XSGO|6=0|11=-49aaca064700bc39|14=200|17=ex1512445078|21=1|150=5|31=0|151=3000|32=0|100=XSGO|38=3200|39=1|37=563e61603b2442ed|583=4ddc48d71caf41e0|40=2|41=-6b6139d83f00b768|44=13704|55=SQM-B|54=1|59=0|63=3|60=20150504-13:30:08.359|453=1|448=LARR|447=D|452=1|10=204|
20150504-13:30:09.108: 8=FIX.4.4|9=271|35=G|34=177|49=LVBSG|52=20150504-13:30:09.108|56=ADR_ARBITRAGE_IB_XSGO|1=591866109-00|11=-7a7bc063cff7bcd8|21=1|38=500000|40=2|41=-5091ae9c463b2fd|44=71.34|54=1|55=CHILE|59=0|60=20150504-13:30:09.107|63=3|100=XSGO|207=XSGO|583=1f73c3d6476b4f6c|453=1|448=LARR|447=D|452=1|10=026|
20150504-13:30:09.127: 8=FIX.4.4|9=0353|35=8|49=ADR_ARBITRAGE_IB_XSGO|56=LVBSG|34=250|52=20150504-13:30:09|1=591866109-00|207=XSGO|6=0|11=-7a7bc063cff7bcd8|14=200000|17=4fe1dbdc8cd4efe|21=1|150=E|31=0|151=300000|32=0|100=XSGO|38=500000|39=E|37=-707a2a024b32b956|583=1f73c3d6476b4f6c|40=2|41=-5091ae9c463b2fd|44=71.34|55=CHILE|54=1|59=0|63=3|60=20150504-13:30:09.115|453=1|448=LARR|447=D|452=1|10=010|
20150504-13:30:09.171: 8=FIX.4.4|9=0350|35=8|49=ADR_ARBITRAGE_IB_XSGO|56=LVBSG|34=251|52=20150504-13:30:09|1=591866109-00|207=XSGO|6=0|11=-7a7bc063cff7bcd8|14=200000|17=ex1512445083|21=1|150=5|31=0|151=300000|32=0|100=XSGO|38=500000|39=1|37=-707a2a024b32b956|583=1f73c3d6476b4f6c|40=2|41=-5091ae9c463b2fd|44=71.34|55=CHILE|54=1|59=0|63=3|60=20150504-13:30:09.160|453=1|448=LARR|447=D|452=1|10=162|
20150504-13:30:09.644: 8=FIX.4.4|9=271|35=G|34=178|49=LVBSG|52=20150504-13:30:09.644|56=ADR_ARBITRAGE_IB_XSGO|1=591866109-00|11=2a6426d1f7a04969|21=1|38=500000|40=2|41=-7a7bc063cff7bcd8|44=71.36|54=1|55=CHILE|59=0|60=20150504-13:30:09.644|63=3|100=XSGO|207=XSGO|583=1f73c3d6476b4f6c|453=1|448=LARR|447=D|452=1|10=211|
20150504-13:30:09.661: 8=FIX.4.4|9=0355|35=8|49=ADR_ARBITRAGE_IB_XSGO|56=LVBSG|34=252|52=20150504-13:30:09|1=591866109-00|207=XSGO|6=0|11=2a6426d1f7a04969|14=200000|17=-14c209d77542b647|21=1|150=E|31=0|151=300000|32=0|100=XSGO|38=500000|39=E|37=-707a2a024b32b956|583=1f73c3d6476b4f6c|40=2|41=-7a7bc063cff7bcd8|44=71.36|55=CHILE|54=1|59=0|63=3|60=20150504-13:30:09.653|453=1|448=LARR|447=D|452=1|10=162|
20150504-13:30:09.703: 8=FIX.4.4|9=0350|35=8|49=ADR_ARBITRAGE_IB_XSGO|56=LVBSG|34=253|52=20150504-13:30:09|1=591866109-00|207=XSGO|6=0|11=2a6426d1f7a04969|14=200000|17=ex1512445085|21=1|150=5|31=0|151=300000|32=0|100=XSGO|38=500000|39=1|37=-707a2a024b32b956|583=1f73c3d6476b4f6c|40=2|41=-7a7bc063cff7bcd8|44=71.36|55=CHILE|54=1|59=0|63=3|60=20150504-13:30:09.695|453=1|448=LARR|447=D|452=1|10=096|
20150504-13:30:10.043: 8=FIX.4.4|9=265|35=G|34=179|49=LVBSG|52=20150504-13:30:10.043|56=ADR_ARBITRAGE_IB_XSGO|1=591866109-00|11=-3a7d7ddbead0bb40|21=1|38=200000|40=2|41=2c68448472b04d8f|44=221.49|54=2|55=ENERSIS|59=0|60=20150504-13:30:10.042|63=3|100=XSGO|583=55a2c273a91f4276|453=1|448=LARR|447=D|452=1|10=062|
20150504-13:30:10.115: 8=FIX.4.4|9=0353|35=8|49=ADR_ARBITRAGE_IB_XSGO|56=LVBSG|34=254|52=20150504-13:30:10|1=591866109-00|207=XSGO|6=0|11=-3a7d7ddbead0bb40|14=0|17=-1fa6dd9c993bbb5d|21=1|150=E|31=0|151=200000|32=0|100=XSGO|38=200000|39=E|37=-12baad5e1d41ba80|583=55a2c273a91f4276|40=2|41=2c68448472b04d8f|44=221.49|55=ENERSIS|54=2|59=0|63=3|60=20150504-13:30:10.049|453=1|448=LARR|447=D|452=1|10=020|
20150504-13:30:10.116: 8=FIX.4.4|9=0348|35=8|49=ADR_ARBITRAGE_IB_XSGO|56=LVBSG|34=255|52=20150504-13:30:10|1=591866109-00|207=XSGO|6=0|11=-3a7d7ddbead0bb40|14=0|17=ex1512445088|21=1|150=5|31=0|151=200000|32=0|100=XSGO|38=200000|39=0|37=-12baad5e1d41ba80|583=55a2c273a91f4276|40=2|41=2c68448472b04d8f|44=221.49|55=ENERSIS|54=2|59=0|63=3|60=20150504-13:30:10.085|453=1|448=LARR|447=D|452=1|10=180|
20150504-13:30:10.121: 8=FIX.4.4|9=266|35=G|34=180|49=LVBSG|52=20150504-13:30:10.121|56=ADR_ARBITRAGE_IB_XSGO|1=591866109-00|11=-642e28322e76b577|21=1|38=200000|40=2|41=-3a7d7ddbead0bb40|44=221.37|54=2|55=ENERSIS|59=0|60=20150504-13:30:10.121|63=3|100=XSGO|583=55a2c273a91f4276|453=1|448=LARR|447=D|452=1|10=045|
20150504-13:30:10.140: 8=FIX.4.4|9=0354|35=8|49=ADR_ARBITRAGE_IB_XSGO|56=LVBSG|34=256|52=20150504-13:30:10|1=591866109-00|207=XSGO|6=0|11=-642e28322e76b577|14=0|17=-32d3895d9ec4b95c|21=1|150=E|31=0|151=200000|32=0|100=XSGO|38=200000|39=E|37=-12baad5e1d41ba80|583=55a2c273a91f4276|40=2|41=-3a7d7ddbead0bb40|44=221.37|55=ENERSIS|54=2|59=0|63=3|60=20150504-13:30:10.132|453=1|448=LARR|447=D|452=1|10=131|
20150504-13:30:10.175: 8=FIX.4.4|9=0349|35=8|49=ADR_ARBITRAGE_IB_XSGO|56=LVBSG|34=257|52=20150504-13:30:10|1=591866109-00|207=XSGO|6=0|11=-642e28322e76b577|14=0|17=ex1512445090|21=1|150=5|31=0|151=200000|32=0|100=XSGO|38=200000|39=0|37=-12baad5e1d41ba80|583=55a2c273a91f4276|40=2|41=-3a7d7ddbead0bb40|44=221.37|55=ENERSIS|54=2|59=0|63=3|60=20150504-13:30:10.166|453=1|448=LARR|447=D|452=1|10=171|
20150504-13:30:10.206: 8=FIX.4.4|9=262|35=G|34=181|49=LVBSG|52=20150504-13:30:10.206|56=ADR_ARBITRAGE_IB_XSGO|1=591866109-00|11=5648289a6c0f4a46|21=1|38=200000|40=2|41=-642e28322e76b577|44=221|54=2|55=ENERSIS|59=0|60=20150504-13:30:10.206|63=3|100=XSGO|583=55a2c273a91f4276|453=1|448=LARR|447=D|452=1|10=100|
20150504-13:30:10.210: 8=FIX.4.4|9=269|35=G|34=182|49=LVBSG|52=20150504-13:30:10.210|56=ADR_ARBITRAGE_IB_XSGO|1=591866109-00|11=2d3eb455fbe64c83|21=1|38=3200|40=2|41=-49aaca064700bc39|44=13649|54=1|55=SQM-B|59=0|60=20150504-13:30:10.210|63=3|100=XSGO|207=XSGO|583=4ddc48d71caf41e0|453=1|448=LARR|447=D|452=1|10=150|
20150504-13:30:10.235: 8=FIX.4.4|9=0349|35=8|49=ADR_ARBITRAGE_IB_XSGO|56=LVBSG|34=258|52=20150504-13:30:10|1=591866109-00|207=XSGO|6=0|11=5648289a6c0f4a46|14=0|17=4550f80a0b5c46d2|21=1|150=E|31=0|151=200000|32=0|100=XSGO|38=200000|39=E|37=-12baad5e1d41ba80|583=55a2c273a91f4276|40=2|41=-642e28322e76b577|44=221|55=ENERSIS|54=2|59=0|63=3|60=20150504-13:30:10.217|453=1|448=LARR|447=D|452=1|10=075|
20150504-13:30:10.235: 8=FIX.4.4|9=0347|35=8|49=ADR_ARBITRAGE_IB_XSGO|56=LVBSG|34=259|52=20150504-13:30:10|1=591866109-00|207=XSGO|6=0|11=2d3eb455fbe64c83|14=200|17=-51c592a5d418bb27|21=1|150=E|31=0|151=3000|32=0|100=XSGO|38=3200|39=E|37=563e61603b2442ed|583=4ddc48d71caf41e0|40=2|41=-49aaca064700bc39|44=13649|55=SQM-B|54=1|59=0|63=3|60=20150504-13:30:10.220|453=1|448=LARR|447=D|452=1|10=185|
20150504-13:30:10.264: 8=FIX.4.4|9=0345|35=8|49=ADR_ARBITRAGE_IB_XSGO|56=LVBSG|34=260|52=20150504-13:30:10|1=591866109-00|207=XSGO|6=0|11=5648289a6c0f4a46|14=0|17=ex1512445092|21=1|150=5|31=0|151=200000|32=0|100=XSGO|38=200000|39=0|37=-12baad5e1d41ba80|583=55a2c273a91f4276|40=2|41=-642e28322e76b577|44=221|55=ENERSIS|54=2|59=0|63=3|60=20150504-13:30:10.258|453=1|448=LARR|447=D|452=1|10=215|
20150504-13:30:10.275: 8=FIX.4.4|9=0342|35=8|49=ADR_ARBITRAGE_IB_XSGO|56=LVBSG|34=261|52=20150504-13:30:10|1=591866109-00|207=XSGO|6=0|11=2d3eb455fbe64c83|14=200|17=ex1512445094|21=1|150=5|31=0|151=3000|32=0|100=XSGO|38=3200|39=1|37=563e61603b2442ed|583=4ddc48d71caf41e0|40=2|41=-49aaca064700bc39|44=13649|55=SQM-B|54=1|59=0|63=3|60=20150504-13:30:10.264|453=1|448=LARR|447=D|452=1|10=023|
20150504-13:30:10.331: 8=FIX.4.4|9=262|35=G|34=183|49=LVBSG|52=20150504-13:30:10.331|56=ADR_ARBITRAGE_IB_XSGO|1=591866109-00|11=-78228227ddfb9e6|21=1|38=1500|40=2|41=-ed9f92c841ebb81|44=1617.7|54=2|55=CENCOSUD|59=0|60=20150504-13:30:10.331|63=3|100=XSGO|583=4c271515b544210|453=1|448=LARR|447=D|452=1|10=250|
20150504-13:30:10.361: 8=FIX.4.4|9=0348|35=8|49=ADR_ARBITRAGE_IB_XSGO|56=LVBSG|34=262|52=20150504-13:30:10|1=591866109-00|207=XSGO|6=0|11=-78228227ddfb9e6|14=0|17=-326bb8fdc6a3b4dd|21=1|150=E|31=0|151=1500|32=0|100=XSGO|38=1500|39=E|37=-766ed6a30c1ebf34|583=4c271515b544210|40=2|41=-ed9f92c841ebb81|44=1617.7|55=CENCOSUD|54=2|59=0|63=3|60=20150504-13:30:10.355|453=1|448=LARR|447=D|452=1|10=088|
20150504-13:30:10.458: 8=FIX.4.4|9=0343|35=8|49=ADR_ARBITRAGE_IB_XSGO|56=LVBSG|34=263|52=20150504-13:30:10|1=591866109-00|207=XSGO|6=0|11=-78228227ddfb9e6|14=0|17=ex1512445096|21=1|150=5|31=0|151=1500|32=0|100=XSGO|38=1500|39=0|37=-766ed6a30c1ebf34|583=4c271515b544210|40=2|41=-ed9f92c841ebb81|44=1617.7|55=CENCOSUD|54=2|59=0|63=3|60=20150504-13:30:10.452|453=1|448=LARR|447=D|452=1|10=246|
20150504-13:30:10.469: 8=FIX.4.4|9=272|35=G|34=184|49=LVBSG|52=20150504-13:30:10.468|56=ADR_ARBITRAGE_IB_XSGO|1=591866109-00|11=-4c39afc968b1bf3c|21=1|38=1500|40=2|41=2ccc40403fef4d23|44=1527.5|54=1|55=CENCOSUD|59=0|60=20150504-13:30:10.468|63=3|100=XSGO|207=XSGO|583=4c271515b544210|453=1|448=LARR|447=D|452=1|10=212|
20150504-13:30:10.485: 8=FIX.4.4|9=0348|35=8|49=ADR_ARBITRAGE_IB_XSGO|56=LVBSG|34=264|52=20150504-13:30:10|1=591866109-00|207=XSGO|6=0|11=-4c39afc968b1bf3c|14=0|17=762ac0109f0648aa|21=1|150=E|31=0|151=1500|32=0|100=XSGO|38=1500|39=E|37=-6fe251d3a64cb975|583=4c271515b544210|40=2|41=2ccc40403fef4d23|44=1527.5|55=CENCOSUD|54=1|59=0|63=3|60=20150504-13:30:10.478|453=1|448=LARR|447=D|452=1|10=239|
20150504-13:30:10.520: 8=FIX.4.4|9=0344|35=8|49=ADR_ARBITRAGE_IB_XSGO|56=LVBSG|34=265|52=20150504-13:30:10|1=591866109-00|207=XSGO|6=0|11=-4c39afc968b1bf3c|14=0|17=ex1512445098|21=1|150=5|31=0|151=1500|32=0|100=XSGO|38=1500|39=0|37=-6fe251d3a64cb975|583=4c271515b544210|40=2|41=2ccc40403fef4d23|44=1527.5|55=CENCOSUD|54=1|59=0|63=3|60=20150504-13:30:10.512|453=1|448=LARR|447=D|452=1|10=121|
