20150504-12:30:03.119: 8=FIX.4.4|9=61|35=5|34=1|49=ALGOARBADR5|52=20150504-12:30:03.119|56=MDFHBLP|10=206|
20150504-12:30:04.955: 8=FIX.4.4|9=79|35=A|34=1|49=ALGOARBADR5|52=20150504-12:30:04.954|56=MDFHBLP|98=0|108=60|141=Y|10=052|
20150504-12:30:04.965: 8=FIX.4.4|9=61|35=5|34=1|49=MDFHBLP|52=20150504-12:30:04.936|56=ALGOARBADR5|10=214|
20150504-12:30:04.969: 8=FIX.4.4|9=61|35=5|34=2|49=ALGOARBADR5|52=20150504-12:30:04.968|56=MDFHBLP|10=220|
20150504-12:30:05.957: 8=FIX.4.4|9=79|35=A|34=1|49=ALGOARBADR5|52=20150504-12:30:05.956|56=MDFHBLP|98=0|108=60|141=Y|10=055|
20150504-12:30:05.984: 8=FIX.4.4|9=79|35=A|34=1|49=MDFHBLP|52=20150504-12:30:05.951|56=ALGOARBADR5|98=0|108=60|141=Y|10=050|
20150504-12:30:05.996: 8=FIX.4.4|9=144|35=V|34=2|49=ALGOARBADR5|52=20150504-12:30:05.994|56=MDFHBLP|262=-4ef225248a30b167|263=1|264=1|146=1|55=CLP DTTC CURNCY|267=3|269=0|269=1|269=5|10=090|
20150504-12:30:06.004: 8=FIX.4.4|9=156|35=W|34=2|49=MDFHBLP|52=20150504-12:30:05.976|56=ALGOARBADR5|55=CLP DTTC CURNCY|262=-4ef225248a30b167|268=3|269=0|270=0|271=0|269=1|270=0|271=0|269=5|270=0|10=101|
20150504-12:30:06.273: 8=FIX.4.4|9=244|35=X|34=3|49=MDFHBLP|52=20150504-12:30:06.245|56=ALGOARBADR5|262=-4ef225248a30b167|268=3|279=1|269=0|55=CLP DTTC CURNCY|270=614.52|271=0|290=1|279=1|269=1|55=CLP DTTC CURNCY|270=614.6|271=0|290=1|279=1|269=5|55=CLP DTTC CURNCY|270=614.56|290=1|10=019|
20150504-12:30:06.277: 8=FIX.4.4|9=244|35=X|34=4|49=MDFHBLP|52=20150504-12:30:06.246|56=ALGOARBADR5|262=-4ef225248a30b167|268=3|279=1|269=0|55=CLP DTTC CURNCY|270=614.52|271=0|290=1|279=1|269=1|55=CLP DTTC CURNCY|270=614.6|271=0|290=1|279=1|269=5|55=CLP DTTC CURNCY|270=614.56|290=1|10=021|
20150504-12:30:06.450: 8=FIX.4.4|9=244|35=X|34=5|49=MDFHBLP|52=20150504-12:30:06.422|56=ALGOARBADR5|262=-4ef225248a30b167|268=3|279=1|269=0|55=CLP DTTC CURNCY|270=614.52|271=0|290=1|279=1|269=1|55=CLP DTTC CURNCY|270=614.6|271=0|290=1|279=1|269=5|55=CLP DTTC CURNCY|270=614.56|290=1|10=018|
20150504-12:30:06.458: 8=FIX.4.4|9=244|35=X|34=6|49=MDFHBLP|52=20150504-12:30:06.430|56=ALGOARBADR5|262=-4ef225248a30b167|268=3|279=1|269=0|55=CLP DTTC CURNCY|270=614.52|271=0|290=1|279=1|269=1|55=CLP DTTC CURNCY|270=614.6|271=0|290=1|279=1|269=5|55=CLP DTTC CURNCY|270=614.56|290=1|10=018|
20150504-12:30:10.635: 8=FIX.4.4|9=142|35=X|34=7|49=MDFHBLP|52=20150504-12:30:10.607|56=ALGOARBADR5|262=-4ef225248a30b167|268=1|279=1|269=0|55=CLP DTTC CURNCY|270=614.5|271=0|290=1|10=006|
20150504-12:30:10.637: 8=FIX.4.4|9=137|35=X|34=8|49=MDFHBLP|52=20150504-12:30:10.608|56=ALGOARBADR5|262=-4ef225248a30b167|268=1|279=1|269=5|55=CLP DTTC CURNCY|270=614.55|290=1|10=062|
20150504-12:30:11.125: 8=FIX.4.4|9=143|35=X|34=9|49=MDFHBLP|52=20150504-12:30:11.096|56=ALGOARBADR5|262=-4ef225248a30b167|268=1|279=1|269=0|55=CLP DTTC CURNCY|270=614.35|271=0|290=1|10=063|
20150504-12:30:11.127: 8=FIX.4.4|9=138|35=X|34=10|49=MDFHBLP|52=20150504-12:30:11.098|56=ALGOARBADR5|262=-4ef225248a30b167|268=1|279=1|269=5|55=CLP DTTC CURNCY|270=614.48|290=1|10=110|
20150504-12:30:12.867: 8=FIX.4.4|9=143|35=X|34=11|49=MDFHBLP|52=20150504-12:30:12.839|56=ALGOARBADR5|262=-4ef225248a30b167|268=1|279=1|269=0|55=CLP DTTC CURNCY|270=614.3|271=0|290=1|10=057|
20150504-12:30:12.869: 8=FIX.4.4|9=138|35=X|34=12|49=MDFHBLP|52=20150504-12:30:12.840|56=ALGOARBADR5|262=-4ef225248a30b167|268=1|279=1|269=5|55=CLP DTTC CURNCY|270=614.45|290=1|10=105|
20150504-12:30:15.481: 8=FIX.4.4|9=144|35=X|34=13|49=MDFHBLP|52=20150504-12:30:15.453|56=ALGOARBADR5|262=-4ef225248a30b167|268=1|279=1|269=0|55=CLP DTTC CURNCY|270=614.32|271=0|290=1|10=105|
20150504-12:30:15.482: 8=FIX.4.4|9=138|35=X|34=14|49=MDFHBLP|52=20150504-12:30:15.454|56=ALGOARBADR5|262=-4ef225248a30b167|268=1|279=1|269=5|55=CLP DTTC CURNCY|270=614.46|290=1|10=112|
20150504-12:30:23.026: 8=FIX.4.4|9=144|35=X|34=15|49=MDFHBLP|52=20150504-12:30:22.998|56=ALGOARBADR5|262=-4ef225248a30b167|268=1|279=1|269=0|55=CLP DTTC CURNCY|270=614.31|271=0|290=1|10=118|
20150504-12:30:23.027: 8=FIX.4.4|9=138|35=X|34=16|49=MDFHBLP|52=20150504-12:30:22.998|56=ALGOARBADR5|262=-4ef225248a30b167|268=1|279=1|269=5|55=CLP DTTC CURNCY|270=614.46|290=1|10=125|
20150504-12:30:35.502: 8=FIX.4.4|9=143|35=X|34=17|49=MDFHBLP|52=20150504-12:30:35.475|56=ALGOARBADR5|262=-4ef225248a30b167|268=1|279=1|269=1|55=CLP DTTC CURNCY|270=614.5|271=0|290=1|10=067|
20150504-12:30:35.503: 8=FIX.4.4|9=138|35=X|34=18|49=MDFHBLP|52=20150504-12:30:35.476|56=ALGOARBADR5|262=-4ef225248a30b167|268=1|279=1|269=5|55=CLP DTTC CURNCY|270=614.41|290=1|10=117|
20150504-12:30:52.386: 8=FIX.4.4|9=143|35=X|34=19|49=MDFHBLP|52=20150504-12:30:52.359|56=ALGOARBADR5|262=-4ef225248a30b167|268=1|279=1|269=0|55=CLP DTTC CURNCY|270=614.3|271=0|290=1|10=066|
20150504-12:30:52.388: 8=FIX.4.4|9=137|35=X|34=20|49=MDFHBLP|52=20150504-12:30:52.360|56=ALGOARBADR5|262=-4ef225248a30b167|268=1|279=1|269=5|55=CLP DTTC CURNCY|270=614.4|290=1|10=051|
20150504-12:30:57.831: 8=FIX.4.4|9=143|35=X|34=21|49=MDFHBLP|52=20150504-12:30:57.804|56=ALGOARBADR5|262=-4ef225248a30b167|268=1|279=1|269=1|55=CLP DTTC CURNCY|270=614.6|271=0|290=1|10=063|
20150504-12:30:57.832: 8=FIX.4.4|9=138|35=X|34=22|49=MDFHBLP|52=20150504-12:30:57.805|56=ALGOARBADR5|262=-4ef225248a30b167|268=1|279=1|269=5|55=CLP DTTC CURNCY|270=614.45|290=1|10=116|
20150504-12:30:59.922: 8=FIX.4.4|9=143|35=X|34=23|49=MDFHBLP|52=20150504-12:30:59.895|56=ALGOARBADR5|262=-4ef225248a30b167|268=1|279=1|269=1|55=CLP DTTC CURNCY|270=614.7|271=0|290=1|10=078|
20150504-12:30:59.923: 8=FIX.4.4|9=137|35=X|34=24|49=MDFHBLP|52=20150504-12:30:59.897|56=ALGOARBADR5|262=-4ef225248a30b167|268=1|279=1|269=5|55=CLP DTTC CURNCY|270=614.5|290=1|10=078|
20150504-12:30:59.925: 8=FIX.4.4|9=143|35=X|34=25|49=MDFHBLP|52=20150504-12:30:59.899|56=ALGOARBADR5|262=-4ef225248a30b167|268=1|279=1|269=1|55=CLP DTTC CURNCY|270=614.6|271=0|290=1|10=083|
20150504-12:30:59.926: 8=FIX.4.4|9=138|35=X|34=26|49=MDFHBLP|52=20150504-12:30:59.899|56=ALGOARBADR5|262=-4ef225248a30b167|268=1|279=1|269=5|55=CLP DTTC CURNCY|270=614.45|290=1|10=135|
20150504-12:31:04.308: 8=FIX.4.4|9=144|35=X|34=27|49=MDFHBLP|52=20150504-12:31:04.281|56=ALGOARBADR5|262=-4ef225248a30b167|268=1|279=1|269=1|55=CLP DTTC CURNCY|270=614.65|271=0|290=1|10=115|
20150504-12:31:04.309: 8=FIX.4.4|9=138|35=X|34=28|49=MDFHBLP|52=20150504-12:31:04.282|56=ALGOARBADR5|262=-4ef225248a30b167|268=1|279=1|269=5|55=CLP DTTC CURNCY|270=614.48|290=1|10=117|
20150504-12:31:06.955: 8=FIX.4.4|9=61|35=0|34=3|49=ALGOARBADR5|52=20150504-12:31:06.955|56=MDFHBLP|10=215|
20150504-12:31:08.197: 8=FIX.4.4|9=143|35=X|34=29|49=MDFHBLP|52=20150504-12:31:08.170|56=ALGOARBADR5|262=-4ef225248a30b167|268=1|279=1|269=1|55=CLP DTTC CURNCY|270=614.7|271=0|290=1|10=065|
20150504-12:31:08.198: 8=FIX.4.4|9=137|35=X|34=30|49=MDFHBLP|52=20150504-12:31:08.171|56=ALGOARBADR5|262=-4ef225248a30b167|268=1|279=1|269=5|55=CLP DTTC CURNCY|270=614.5|290=1|10=055|
20150504-12:31:09.620: 8=FIX.4.4|9=144|35=X|34=31|49=MDFHBLP|52=20150504-12:31:09.593|56=ALGOARBADR5|262=-4ef225248a30b167|268=1|279=1|269=1|55=CLP DTTC CURNCY|270=614.65|271=0|290=1|10=121|
20150504-12:31:09.624: 8=FIX.4.4|9=138|35=X|34=32|49=MDFHBLP|52=20150504-12:31:09.597|56=ALGOARBADR5|262=-4ef225248a30b167|268=1|279=1|269=5|55=CLP DTTC CURNCY|270=614.48|290=1|10=126|
20150504-12:31:12.244: 8=FIX.4.4|9=143|35=X|34=33|49=MDFHBLP|52=20150504-12:31:12.217|56=ALGOARBADR5|262=-4ef225248a30b167|268=1|279=1|269=1|55=CLP DTTC CURNCY|270=614.6|271=0|290=1|10=056|
20150504-12:31:12.245: 8=FIX.4.4|9=138|35=X|34=34|49=MDFHBLP|52=20150504-12:31:12.218|56=ALGOARBADR5|262=-4ef225248a30b167|268=1|279=1|269=5|55=CLP DTTC CURNCY|270=614.45|290=1|10=109|
20150504-12:31:17.434: 8=FIX.4.4|9=143|35=X|34=35|49=MDFHBLP|52=20150504-12:31:17.407|56=ALGOARBADR5|262=-4ef225248a30b167|268=1|279=1|269=0|55=CLP DTTC CURNCY|270=614.4|271=0|290=1|10=061|
20150504-12:31:17.435: 8=FIX.4.4|9=137|35=X|34=36|49=MDFHBLP|52=20150504-12:31:17.408|56=ALGOARBADR5|262=-4ef225248a30b167|268=1|279=1|269=5|55=CLP DTTC CURNCY|270=614.5|290=1|10=064|
20150504-12:31:27.173: 8=FIX.4.4|9=144|35=X|34=37|49=MDFHBLP|52=20150504-12:31:27.147|56=ALGOARBADR5|262=-4ef225248a30b167|268=1|279=1|269=0|55=CLP DTTC CURNCY|270=614.31|271=0|290=1|10=114|
20150504-12:31:27.174: 8=FIX.4.4|9=138|35=X|34=38|49=MDFHBLP|52=20150504-12:31:27.147|56=ALGOARBADR5|262=-4ef225248a30b167|268=1|279=1|269=5|55=CLP DTTC CURNCY|270=614.46|290=1|10=121|
20150504-12:31:30.375: 8=FIX.4.4|9=143|35=X|34=39|49=MDFHBLP|52=20150504-12:31:30.348|56=ALGOARBADR5|262=-4ef225248a30b167|268=1|279=1|269=1|55=CLP DTTC CURNCY|270=614.5|271=0|290=1|10=066|
20150504-12:31:30.376: 8=FIX.4.4|9=138|35=X|34=40|49=MDFHBLP|52=20150504-12:31:30.349|56=ALGOARBADR5|262=-4ef225248a30b167|268=1|279=1|269=5|55=CLP DTTC CURNCY|270=614.41|290=1|10=107|
20150504-12:31:31.636: 8=FIX.4.4|9=143|35=X|34=41|49=MDFHBLP|52=20150504-12:31:31.610|56=ALGOARBADR5|262=-4ef225248a30b167|268=1|279=1|269=0|55=CLP DTTC CURNCY|270=614.3|271=0|290=1|10=049|
20150504-12:31:31.637: 8=FIX.4.4|9=137|35=X|34=42|49=MDFHBLP|52=20150504-12:31:31.611|56=ALGOARBADR5|262=-4ef225248a30b167|268=1|279=1|269=5|55=CLP DTTC CURNCY|270=614.4|290=1|10=052|
20150504-12:31:37.136: 8=FIX.4.4|9=144|35=X|34=43|49=MDFHBLP|52=20150504-12:31:37.111|56=ALGOARBADR5|262=-4ef225248a30b167|268=1|279=1|269=0|55=CLP DTTC CURNCY|270=614.31|271=0|290=1|10=103|
20150504-12:31:37.137: 8=FIX.4.4|9=138|35=X|34=44|49=MDFHBLP|52=20150504-12:31:37.111|56=ALGOARBADR5|262=-4ef225248a30b167|268=1|279=1|269=5|55=CLP DTTC CURNCY|270=614.41|290=1|10=105|
20150504-12:32:07.955: 8=FIX.4.4|9=61|35=0|34=4|49=ALGOARBADR5|52=20150504-12:32:07.955|56=MDFHBLP|10=218|
20150504-12:32:17.031: 8=FIX.4.4|9=144|35=X|34=45|49=MDFHBLP|52=20150504-12:32:17.006|56=ALGOARBADR5|262=-4ef225248a30b167|268=1|279=1|269=1|55=CLP DTTC CURNCY|270=614.45|271=0|290=1|10=113|
20150504-12:32:17.032: 8=FIX.4.4|9=138|35=X|34=46|49=MDFHBLP|52=20150504-12:32:17.007|56=ALGOARBADR5|262=-4ef225248a30b167|268=1|279=1|269=5|55=CLP DTTC CURNCY|270=614.38|290=1|10=116|
20150504-12:32:45.839: 8=FIX.4.4|9=144|35=X|34=47|49=MDFHBLP|52=20150504-12:32:45.816|56=ALGOARBADR5|262=-4ef225248a30b167|268=1|279=1|269=1|55=CLP DTTC CURNCY|270=614.43|271=0|290=1|10=123|
20150504-12:32:45.840: 8=FIX.4.4|9=138|35=X|34=48|49=MDFHBLP|52=20150504-12:32:45.816|56=ALGOARBADR5|262=-4ef225248a30b167|268=1|279=1|269=5|55=CLP DTTC CURNCY|270=614.37|290=1|10=126|
20150504-12:32:53.971: 8=FIX.4.4|9=144|35=X|34=49|49=MDFHBLP|52=20150504-12:32:53.948|56=ALGOARBADR5|262=-4ef225248a30b167|268=1|279=1|269=1|55=CLP DTTC CURNCY|270=614.42|271=0|290=1|10=129|
20150504-12:32:53.972: 8=FIX.4.4|9=138|35=X|34=50|49=MDFHBLP|52=20150504-12:32:53.948|56=ALGOARBADR5|262=-4ef225248a30b167|268=1|279=1|269=5|55=CLP DTTC CURNCY|270=614.36|290=1|10=123|
20150504-12:32:57.388: 8=FIX.4.4|9=144|35=X|34=51|49=MDFHBLP|52=20150504-12:32:57.365|56=ALGOARBADR5|262=-4ef225248a30b167|268=1|279=1|269=0|55=CLP DTTC CURNCY|270=614.35|271=0|290=1|10=120|
20150504-12:32:57.389: 8=FIX.4.4|9=138|35=X|34=52|49=MDFHBLP|52=20150504-12:32:57.365|56=ALGOARBADR5|262=-4ef225248a30b167|268=1|279=1|269=5|55=CLP DTTC CURNCY|270=614.39|290=1|10=125|
20150504-12:33:05.188: 8=FIX.4.4|9=144|35=X|34=53|49=MDFHBLP|52=20150504-12:33:05.165|56=ALGOARBADR5|262=-4ef225248a30b167|268=1|279=1|269=1|55=CLP DTTC CURNCY|270=614.45|271=0|290=1|10=116|
20150504-12:33:05.190: 8=FIX.4.4|9=137|35=X|34=54|49=MDFHBLP|52=20150504-12:33:05.166|56=ALGOARBADR5|262=-4ef225248a30b167|268=1|279=1|269=5|55=CLP DTTC CURNCY|270=614.4|290=1|10=063|
20150504-12:33:05.190: 8=FIX.4.4|9=144|35=X|34=55|49=MDFHBLP|52=20150504-12:33:05.167|56=ALGOARBADR5|262=-4ef225248a30b167|268=1|279=1|269=1|55=CLP DTTC CURNCY|270=614.45|271=0|290=1|10=120|
20150504-12:33:05.192: 8=FIX.4.4|9=137|35=X|34=56|49=MDFHBLP|52=20150504-12:33:05.168|56=ALGOARBADR5|262=-4ef225248a30b167|268=1|279=1|269=5|55=CLP DTTC CURNCY|270=614.4|290=1|10=067|
20150504-12:33:08.809: 8=FIX.4.4|9=143|35=X|34=57|49=MDFHBLP|52=20150504-12:33:08.786|56=ALGOARBADR5|262=-4ef225248a30b167|268=1|279=1|269=1|55=CLP DTTC CURNCY|270=614.5|271=0|290=1|10=079|
20150504-12:33:08.810: 8=FIX.4.4|9=138|35=X|34=58|49=MDFHBLP|52=20150504-12:33:08.786|56=ALGOARBADR5|262=-4ef225248a30b167|268=1|279=1|269=5|55=CLP DTTC CURNCY|270=614.43|290=1|10=130|
20150504-12:33:08.814: 8=FIX.4.4|9=61|35=0|34=5|49=ALGOARBADR5|52=20150504-12:33:08.813|56=MDFHBLP|10=214|
20150504-12:33:08.964: 8=FIX.4.4|9=144|35=X|34=59|49=MDFHBLP|52=20150504-12:33:08.941|56=ALGOARBADR5|262=-4ef225248a30b167|268=1|279=1|269=1|55=CLP DTTC CURNCY|270=614.55|271=0|290=1|10=128|
20150504-12:33:08.965: 8=FIX.4.4|9=138|35=X|34=60|49=MDFHBLP|52=20150504-12:33:08.941|56=ALGOARBADR5|262=-4ef225248a30b167|268=1|279=1|269=5|55=CLP DTTC CURNCY|270=614.45|290=1|10=118|
20150504-12:33:10.482: 8=FIX.4.4|9=143|35=X|34=61|49=MDFHBLP|52=20150504-12:33:10.458|56=ALGOARBADR5|262=-4ef225248a30b167|268=1|279=1|269=0|55=CLP DTTC CURNCY|270=614.4|271=0|290=1|10=061|
20150504-12:33:10.483: 8=FIX.4.4|9=138|35=X|34=62|49=MDFHBLP|52=20150504-12:33:10.459|56=ALGOARBADR5|262=-4ef225248a30b167|268=1|279=1|269=5|55=CLP DTTC CURNCY|270=614.48|290=1|10=120|
20150504-12:33:11.338: 8=FIX.4.4|9=143|35=X|34=63|49=MDFHBLP|52=20150504-12:33:11.315|56=ALGOARBADR5|262=-4ef225248a30b167|268=1|279=1|269=1|55=CLP DTTC CURNCY|270=614.6|271=0|290=1|10=059|
20150504-12:33:11.340: 8=FIX.4.4|9=137|35=X|34=64|49=MDFHBLP|52=20150504-12:33:11.315|56=ALGOARBADR5|262=-4ef225248a30b167|268=1|279=1|269=5|55=CLP DTTC CURNCY|270=614.5|290=1|10=058|
20150504-12:33:13.605: 8=FIX.4.4|9=144|35=X|34=65|49=MDFHBLP|52=20150504-12:33:13.583|56=ALGOARBADR5|262=-4ef225248a30b167|268=1|279=1|269=0|55=CLP DTTC CURNCY|270=614.35|271=0|290=1|10=120|
20150504-12:33:13.607: 8=FIX.4.4|9=138|35=X|34=66|49=MDFHBLP|52=20150504-12:33:13.583|56=ALGOARBADR5|262=-4ef225248a30b167|268=1|279=1|269=5|55=CLP DTTC CURNCY|270=614.48|290=1|10=125|
20150504-12:33:13.770: 8=FIX.4.4|9=144|35=X|34=67|49=MDFHBLP|52=20150504-12:33:13.747|56=ALGOARBADR5|262=-4ef225248a30b167|268=1|279=1|269=1|55=CLP DTTC CURNCY|270=614.65|271=0|290=1|10=128|
20150504-12:33:13.771: 8=FIX.4.4|9=137|35=X|34=68|49=MDFHBLP|52=20150504-12:33:13.748|56=ALGOARBADR5|262=-4ef225248a30b167|268=1|279=1|269=5|55=CLP DTTC CURNCY|270=614.5|290=1|10=074|
20150504-12:33:16.354: 8=FIX.4.4|9=143|35=X|34=69|49=MDFHBLP|52=20150504-12:33:16.331|56=ALGOARBADR5|262=-4ef225248a30b167|268=1|279=1|269=1|55=CLP DTTC CURNCY|270=614.7|271=0|290=1|10=069|
20150504-12:33:16.355: 8=FIX.4.4|9=138|35=X|34=70|49=MDFHBLP|52=20150504-12:33:16.331|56=ALGOARBADR5|262=-4ef225248a30b167|268=1|279=1|269=5|55=CLP DTTC CURNCY|270=614.53|290=1|10=110|
20150504-12:33:19.689: 8=FIX.4.4|9=143|35=X|34=71|49=MDFHBLP|52=20150504-12:33:19.666|56=ALGOARBADR5|262=-4ef225248a30b167|268=1|279=1|269=1|55=CLP DTTC CURNCY|270=614.6|271=0|290=1|10=075|
20150504-12:33:19.691: 8=FIX.4.4|9=138|35=X|34=72|49=MDFHBLP|52=20150504-12:33:19.667|56=ALGOARBADR5|262=-4ef225248a30b167|268=1|279=1|269=5|55=CLP DTTC CURNCY|270=614.48|290=1|10=131|
20150504-12:33:21.415: 8=FIX.4.4|9=143|35=X|34=73|49=MDFHBLP|52=20150504-12:33:21.392|56=ALGOARBADR5|262=-4ef225248a30b167|268=1|279=1|269=1|55=CLP DTTC CURNCY|270=614.5|271=0|290=1|10=065|
20150504-12:33:21.417: 8=FIX.4.4|9=138|35=X|34=74|49=MDFHBLP|52=20150504-12:33:21.393|56=ALGOARBADR5|262=-4ef225248a30b167|268=1|279=1|269=5|55=CLP DTTC CURNCY|270=614.43|290=1|10=117|
20150504-12:33:26.933: 8=FIX.4.4|9=144|35=X|34=75|49=MDFHBLP|52=20150504-12:33:26.910|56=ALGOARBADR5|262=-4ef225248a30b167|268=1|279=1|269=0|55=CLP DTTC CURNCY|270=614.31|271=0|290=1|10=115|
20150504-12:33:26.935: 8=FIX.4.4|9=138|35=X|34=76|49=MDFHBLP|52=20150504-12:33:26.911|56=ALGOARBADR5|262=-4ef225248a30b167|268=1|279=1|269=5|55=CLP DTTC CURNCY|270=614.41|290=1|10=118|
20150504-12:33:28.076: 8=FIX.4.4|9=143|35=X|34=77|49=MDFHBLP|52=20150504-12:33:28.053|56=ALGOARBADR5|262=-4ef225248a30b167|268=1|279=1|269=0|55=CLP DTTC CURNCY|270=614.4|271=0|290=1|10=068|
20150504-12:33:28.077: 8=FIX.4.4|9=138|35=X|34=78|49=MDFHBLP|52=20150504-12:33:28.054|56=ALGOARBADR5|262=-4ef225248a30b167|268=1|279=1|269=5|55=CLP DTTC CURNCY|270=614.45|290=1|10=124|
20150504-12:33:28.236: 8=FIX.4.4|9=144|35=X|34=79|49=MDFHBLP|52=20150504-12:33:28.211|56=ALGOARBADR5|262=-4ef225248a30b167|268=1|279=1|269=0|55=CLP DTTC CURNCY|270=614.31|271=0|290=1|10=115|
20150504-12:33:28.237: 8=FIX.4.4|9=138|35=X|34=80|49=MDFHBLP|52=20150504-12:33:28.212|56=ALGOARBADR5|262=-4ef225248a30b167|268=1|279=1|269=5|55=CLP DTTC CURNCY|270=614.41|290=1|10=109|
20150504-12:33:34.662: 8=FIX.4.4|9=144|35=X|34=81|49=MDFHBLP|52=20150504-12:33:34.639|56=ALGOARBADR5|262=-4ef225248a30b167|268=1|279=1|269=1|55=CLP DTTC CURNCY|270=614.46|271=0|290=1|10=126|
20150504-12:33:34.662: 8=FIX.4.4|9=138|35=X|34=82|49=MDFHBLP|52=20150504-12:33:34.640|56=ALGOARBADR5|262=-4ef225248a30b167|268=1|279=1|269=5|55=CLP DTTC CURNCY|270=614.39|290=1|10=120|
20150504-12:33:39.984: 8=FIX.4.4|9=144|35=X|34=83|49=MDFHBLP|52=20150504-12:33:39.961|56=ALGOARBADR5|262=-4ef225248a30b167|268=1|279=1|269=0|55=CLP DTTC CURNCY|270=614.35|271=0|290=1|10=128|
20150504-12:33:39.985: 8=FIX.4.4|9=138|35=X|34=84|49=MDFHBLP|52=20150504-12:33:39.962|56=ALGOARBADR5|262=-4ef225248a30b167|268=1|279=1|269=5|55=CLP DTTC CURNCY|270=614.41|290=1|10=127|
20150504-12:33:46.774: 8=FIX.4.4|9=143|35=X|34=85|49=MDFHBLP|52=20150504-12:33:46.752|56=ALGOARBADR5|262=-4ef225248a30b167|268=1|279=1|269=1|55=CLP DTTC CURNCY|270=614.5|271=0|290=1|10=075|
20150504-12:33:46.775: 8=FIX.4.4|9=138|35=X|34=86|49=MDFHBLP|52=20150504-12:33:46.753|56=ALGOARBADR5|262=-4ef225248a30b167|268=1|279=1|269=5|55=CLP DTTC CURNCY|270=614.43|290=1|10=127|
20150504-12:33:58.987: 8=FIX.4.4|9=144|35=X|34=87|49=MDFHBLP|52=20150504-12:33:58.964|56=ALGOARBADR5|262=-4ef225248a30b167|268=1|279=1|269=0|55=CLP DTTC CURNCY|270=614.31|271=0|290=1|10=132|
20150504-12:33:58.989: 8=FIX.4.4|9=138|35=X|34=88|49=MDFHBLP|52=20150504-12:33:58.965|56=ALGOARBADR5|262=-4ef225248a30b167|268=1|279=1|269=5|55=CLP DTTC CURNCY|270=614.41|290=1|10=135|
20150504-12:34:00.482: 8=FIX.4.4|9=143|35=X|34=89|49=MDFHBLP|52=20150504-12:34:00.460|56=ALGOARBADR5|262=-4ef225248a30b167|268=1|279=1|269=0|55=CLP DTTC CURNCY|270=614.3|271=0|290=1|10=063|
20150504-12:34:00.483: 8=FIX.4.4|9=137|35=X|34=90|49=MDFHBLP|52=20150504-12:34:00.460|56=ALGOARBADR5|262=-4ef225248a30b167|268=1|279=1|269=5|55=CLP DTTC CURNCY|270=614.4|290=1|10=056|
20150504-12:34:00.941: 8=FIX.4.4|9=144|35=X|34=91|49=MDFHBLP|52=20150504-12:34:00.919|56=ALGOARBADR5|262=-4ef225248a30b167|268=1|279=1|269=0|55=CLP DTTC CURNCY|270=614.26|271=0|290=1|10=119|
20150504-12:34:00.942: 8=FIX.4.4|9=138|35=X|34=92|49=MDFHBLP|52=20150504-12:34:00.919|56=ALGOARBADR5|262=-4ef225248a30b167|268=1|279=1|269=5|55=CLP DTTC CURNCY|270=614.38|290=1|10=123|
20150504-12:34:05.270: 8=FIX.4.4|9=144|35=X|34=93|49=MDFHBLP|52=20150504-12:34:05.249|56=ALGOARBADR5|262=-4ef225248a30b167|268=1|279=1|269=0|55=CLP DTTC CURNCY|270=614.25|271=0|290=1|10=121|
20150504-12:34:05.271: 8=FIX.4.4|9=138|35=X|34=94|49=MDFHBLP|52=20150504-12:34:05.249|56=ALGOARBADR5|262=-4ef225248a30b167|268=1|279=1|269=5|55=CLP DTTC CURNCY|270=614.38|290=1|10=126|
20150504-12:34:07.315: 8=FIX.4.4|9=144|35=X|34=95|49=MDFHBLP|52=20150504-12:34:07.294|56=ALGOARBADR5|262=-4ef225248a30b167|268=1|279=1|269=1|55=CLP DTTC CURNCY|270=614.45|271=0|290=1|10=128|
20150504-12:34:07.317: 8=FIX.4.4|9=138|35=X|34=96|49=MDFHBLP|52=20150504-12:34:07.294|56=ALGOARBADR5|262=-4ef225248a30b167|268=1|279=1|269=5|55=CLP DTTC CURNCY|270=614.35|290=1|10=127|
20150504-12:34:08.954: 8=FIX.4.4|9=61|35=0|34=6|49=ALGOARBADR5|52=20150504-12:34:08.954|56=MDFHBLP|10=222|
20150504-12:34:16.769: 8=FIX.4.4|9=143|35=X|34=97|49=MDFHBLP|52=20150504-12:34:16.748|56=ALGOARBADR5|262=-4ef225248a30b167|268=1|279=1|269=0|55=CLP DTTC CURNCY|270=614.3|271=0|290=1|10=078|
20150504-12:34:16.770: 8=FIX.4.4|9=138|35=X|34=98|49=MDFHBLP|52=20150504-12:34:16.749|56=ALGOARBADR5|262=-4ef225248a30b167|268=1|279=1|269=5|55=CLP DTTC CURNCY|270=614.38|290=1|10=137|
20150504-12:34:33.782: 8=FIX.4.4|9=144|35=X|34=99|49=MDFHBLP|52=20150504-12:34:33.761|56=ALGOARBADR5|262=-4ef225248a30b167|268=1|279=1|269=0|55=CLP DTTC CURNCY|270=614.25|271=0|290=1|10=127|
20150504-12:34:33.784: 8=FIX.4.4|9=139|35=X|34=100|49=MDFHBLP|52=20150504-12:34:33.762|56=ALGOARBADR5|262=-4ef225248a30b167|268=1|279=1|269=5|55=CLP DTTC CURNCY|270=614.35|290=1|10=161|
20150504-12:34:40.205: 8=FIX.4.4|9=145|35=X|34=101|49=MDFHBLP|52=20150504-12:34:40.183|56=ALGOARBADR5|262=-4ef225248a30b167|268=1|279=1|269=0|55=CLP DTTC CURNCY|270=614.21|271=0|290=1|10=152|
20150504-12:34:40.206: 8=FIX.4.4|9=139|35=X|34=102|49=MDFHBLP|52=20150504-12:34:40.184|56=ALGOARBADR5|262=-4ef225248a30b167|268=1|279=1|269=5|55=CLP DTTC CURNCY|270=614.33|290=1|10=157|
20150504-12:34:43.682: 8=FIX.4.4|9=144|35=X|34=103|49=MDFHBLP|52=20150504-12:34:43.661|56=ALGOARBADR5|262=-4ef225248a30b167|268=1|279=1|269=0|55=CLP DTTC CURNCY|270=614.2|271=0|290=1|10=108|
20150504-12:34:43.683: 8=FIX.4.4|9=139|35=X|34=104|49=MDFHBLP|52=20150504-12:34:43.662|56=ALGOARBADR5|262=-4ef225248a30b167|268=1|279=1|269=5|55=CLP DTTC CURNCY|270=614.32|290=1|10=162|
20150504-12:34:49.116: 8=FIX.4.4|9=145|35=X|34=105|49=MDFHBLP|52=20150504-12:34:49.095|56=ALGOARBADR5|262=-4ef225248a30b167|268=1|279=1|269=0|55=CLP DTTC CURNCY|270=614.21|271=0|290=1|10=167|
20150504-12:34:49.117: 8=FIX.4.4|9=139|35=X|34=106|49=MDFHBLP|52=20150504-12:34:49.095|56=ALGOARBADR5|262=-4ef225248a30b167|268=1|279=1|269=5|55=CLP DTTC CURNCY|270=614.33|290=1|10=171|
20150504-12:34:50.188: 8=FIX.4.4|9=139|35=X|34=107|49=MDFHBLP|52=20150504-12:34:50.168|56=ALGOARBADR5|262=-4ef225248a30b167|268=1|279=1|269=5|55=CLP DTTC CURNCY|270=614.33|290=1|10=165|
20150504-12:34:50.191: 8=FIX.4.4|9=145|35=X|34=108|49=MDFHBLP|52=20150504-12:34:50.170|56=ALGOARBADR5|262=-4ef225248a30b167|268=1|279=1|269=0|55=CLP DTTC CURNCY|270=614.22|271=0|290=1|10=157|
20150504-12:35:03.618: 8=FIX.4.4|9=145|35=X|34=109|49=MDFHBLP|52=20150504-12:35:03.599|56=ALGOARBADR5|262=-4ef225248a30b167|268=1|279=1|269=0|55=CLP DTTC CURNCY|270=614.15|271=0|290=1|10=174|
20150504-12:35:03.620: 8=FIX.4.4|9=138|35=X|34=110|49=MDFHBLP|52=20150504-12:35:03.599|56=ALGOARBADR5|262=-4ef225248a30b167|268=1|279=1|269=5|55=CLP DTTC CURNCY|270=614.3|290=1|10=114|
20150504-12:35:07.299: 8=FIX.4.4|9=145|35=X|34=111|49=MDFHBLP|52=20150504-12:35:07.278|56=ALGOARBADR5|262=-4ef225248a30b167|268=1|279=1|269=0|55=CLP DTTC CURNCY|270=614.11|271=0|290=1|10=161|
20150504-12:35:07.300: 8=FIX.4.4|9=139|35=X|34=112|49=MDFHBLP|52=20150504-12:35:07.279|56=ALGOARBADR5|262=-4ef225248a30b167|268=1|279=1|269=5|55=CLP DTTC CURNCY|270=614.28|290=1|10=171|
20150504-12:35:09.954: 8=FIX.4.4|9=61|35=0|34=7|49=ALGOARBADR5|52=20150504-12:35:09.953|56=MDFHBLP|10=224|
20150504-12:35:25.405: 8=FIX.4.4|9=145|35=X|34=113|49=MDFHBLP|52=20150504-12:35:25.385|56=ALGOARBADR5|262=-4ef225248a30b167|268=1|279=1|269=0|55=CLP DTTC CURNCY|270=614.12|271=0|290=1|10=163|
20150504-12:35:25.406: 8=FIX.4.4|9=139|35=X|34=114|49=MDFHBLP|52=20150504-12:35:25.386|56=ALGOARBADR5|262=-4ef225248a30b167|268=1|279=1|269=5|55=CLP DTTC CURNCY|270=614.29|290=1|10=173|
20150504-12:35:46.499: 8=FIX.4.4|9=144|35=X|34=115|49=MDFHBLP|52=20150504-12:35:46.480|56=ALGOARBADR5|262=-4ef225248a30b167|268=1|279=1|269=1|55=CLP DTTC CURNCY|270=614.4|271=0|290=1|10=117|
20150504-12:35:46.501: 8=FIX.4.4|9=139|35=X|34=116|49=MDFHBLP|52=20150504-12:35:46.481|56=ALGOARBADR5|262=-4ef225248a30b167|268=1|279=1|269=5|55=CLP DTTC CURNCY|270=614.26|290=1|10=171|
20150504-12:35:51.812: 8=FIX.4.4|9=145|35=X|34=117|49=MDFHBLP|52=20150504-12:35:51.791|56=ALGOARBADR5|262=-4ef225248a30b167|268=1|279=1|269=0|55=CLP DTTC CURNCY|270=614.15|271=0|290=1|10=170|
20150504-12:35:51.813: 8=FIX.4.4|9=144|35=X|34=118|49=MDFHBLP|52=20150504-12:35:51.791|56=ALGOARBADR5|262=-4ef225248a30b167|268=1|279=1|269=1|55=CLP DTTC CURNCY|270=614.3|271=0|290=1|10=120|
20150504-12:35:51.813: 8=FIX.4.4|9=139|35=X|34=119|49=MDFHBLP|52=20150504-12:35:51.792|56=ALGOARBADR5|262=-4ef225248a30b167|268=1|279=1|269=5|55=CLP DTTC CURNCY|270=614.23|290=1|10=172|
20150504-12:35:51.814: 8=FIX.4.4|9=139|35=X|34=120|49=MDFHBLP|52=20150504-12:35:51.792|56=ALGOARBADR5|262=-4ef225248a30b167|268=1|279=1|269=5|55=CLP DTTC CURNCY|270=614.23|290=1|10=164|
20150504-12:35:54.605: 8=FIX.4.4|9=144|35=X|34=121|49=MDFHBLP|52=20150504-12:35:54.586|56=ALGOARBADR5|262=-4ef225248a30b167|268=1|279=1|269=0|55=CLP DTTC CURNCY|270=614.2|271=0|290=1|10=117|
20150504-12:35:54.607: 8=FIX.4.4|9=139|35=X|34=122|49=MDFHBLP|52=20150504-12:35:54.587|56=ALGOARBADR5|262=-4ef225248a30b167|268=1|279=1|269=5|55=CLP DTTC CURNCY|270=614.25|290=1|10=173|
20150504-12:35:56.214: 8=FIX.4.4|9=145|35=X|34=123|49=MDFHBLP|52=20150504-12:35:56.196|56=ALGOARBADR5|262=-4ef225248a30b167|268=1|279=1|269=0|55=CLP DTTC CURNCY|270=614.15|271=0|290=1|10=171|
20150504-12:35:56.215: 8=FIX.4.4|9=139|35=X|34=124|49=MDFHBLP|52=20150504-12:35:56.196|56=ALGOARBADR5|262=-4ef225248a30b167|268=1|279=1|269=5|55=CLP DTTC CURNCY|270=614.23|290=1|10=171|
20150504-12:35:56.523: 8=FIX.4.4|9=145|35=X|34=125|49=MDFHBLP|52=20150504-12:35:56.504|56=ALGOARBADR5|262=-4ef225248a30b167|268=1|279=1|269=0|55=CLP DTTC CURNCY|270=614.04|271=0|290=1|10=164|
20150504-12:35:56.524: 8=FIX.4.4|9=139|35=X|34=126|49=MDFHBLP|52=20150504-12:35:56.504|56=ALGOARBADR5|262=-4ef225248a30b167|268=1|279=1|269=5|55=CLP DTTC CURNCY|270=614.17|290=1|10=169|
20150504-12:35:56.833: 8=FIX.4.4|9=145|35=X|34=127|49=MDFHBLP|52=20150504-12:35:56.814|56=ALGOARBADR5|262=-4ef225248a30b167|268=1|279=1|269=0|55=CLP DTTC CURNCY|270=614.03|271=0|290=1|10=169|
20150504-12:35:56.834: 8=FIX.4.4|9=139|35=X|34=128|49=MDFHBLP|52=20150504-12:35:56.815|56=ALGOARBADR5|262=-4ef225248a30b167|268=1|279=1|269=5|55=CLP DTTC CURNCY|270=614.17|290=1|10=176|
20150504-12:35:57.198: 8=FIX.4.4|9=145|35=X|34=129|49=MDFHBLP|52=20150504-12:35:57.179|56=ALGOARBADR5|262=-4ef225248a30b167|268=1|279=1|269=0|55=CLP DTTC CURNCY|270=614.01|271=0|290=1|10=174|
20150504-12:35:57.199: 8=FIX.4.4|9=139|35=X|34=130|49=MDFHBLP|52=20150504-12:35:57.180|56=ALGOARBADR5|262=-4ef225248a30b167|268=1|279=1|269=5|55=CLP DTTC CURNCY|270=614.16|290=1|10=164|
20150504-12:35:57.510: 8=FIX.4.4|9=142|35=X|34=131|49=MDFHBLP|52=20150504-12:35:57.491|56=ALGOARBADR5|262=-4ef225248a30b167|268=1|279=1|269=0|55=CLP DTTC CURNCY|270=614|271=0|290=1|10=018|
20150504-12:35:57.511: 8=FIX.4.4|9=139|35=X|34=132|49=MDFHBLP|52=20150504-12:35:57.491|56=ALGOARBADR5|262=-4ef225248a30b167|268=1|279=1|269=5|55=CLP DTTC CURNCY|270=614.15|290=1|10=170|
20150504-12:35:57.815: 8=FIX.4.4|9=144|35=X|34=133|49=MDFHBLP|52=20150504-12:35:57.796|56=ALGOARBADR5|262=-4ef225248a30b167|268=1|279=1|269=0|55=CLP DTTC CURNCY|270=613.9|271=0|290=1|10=132|
20150504-12:35:57.817: 8=FIX.4.4|9=138|35=X|34=134|49=MDFHBLP|52=20150504-12:35:57.797|56=ALGOARBADR5|262=-4ef225248a30b167|268=1|279=1|269=5|55=CLP DTTC CURNCY|270=614.1|290=1|10=127|
20150504-12:35:59.498: 8=FIX.4.4|9=142|35=X|34=135|49=MDFHBLP|52=20150504-12:35:59.478|56=ALGOARBADR5|262=-4ef225248a30b167|268=1|279=1|269=0|55=CLP DTTC CURNCY|270=614|271=0|290=1|10=029|
20150504-12:35:59.499: 8=FIX.4.4|9=139|35=X|34=136|49=MDFHBLP|52=20150504-12:35:59.479|56=ALGOARBADR5|262=-4ef225248a30b167|268=1|279=1|269=5|55=CLP DTTC CURNCY|270=614.15|290=1|10=182|
20150504-12:36:04.893: 8=FIX.4.4|9=145|35=X|34=137|49=MDFHBLP|52=20150504-12:36:04.875|56=ALGOARBADR5|262=-4ef225248a30b167|268=1|279=1|269=0|55=CLP DTTC CURNCY|270=613.91|271=0|290=1|10=177|
20150504-12:36:04.895: 8=FIX.4.4|9=138|35=X|34=138|49=MDFHBLP|52=20150504-12:36:04.876|56=ALGOARBADR5|262=-4ef225248a30b167|268=1|279=1|269=5|55=CLP DTTC CURNCY|270=614.1|290=1|10=122|
20150504-12:36:05.412: 8=FIX.4.4|9=144|35=X|34=139|49=MDFHBLP|52=20150504-12:36:05.393|56=ALGOARBADR5|262=-4ef225248a30b167|268=1|279=1|269=0|55=CLP DTTC CURNCY|270=613.9|271=0|290=1|10=125|
20150504-12:36:05.413: 8=FIX.4.4|9=138|35=X|34=140|49=MDFHBLP|52=20150504-12:36:05.393|56=ALGOARBADR5|262=-4ef225248a30b167|268=1|279=1|269=5|55=CLP DTTC CURNCY|270=614.1|290=1|10=110|
20150504-12:36:08.327: 8=FIX.4.4|9=136|35=X|34=141|49=MDFHBLP|52=20150504-12:36:08.308|56=ALGOARBADR5|262=-4ef225248a30b167|268=1|279=1|269=5|55=CLP DTTC CURNCY|270=614|290=1|10=013|
20150504-12:36:08.328: 8=FIX.4.4|9=144|35=X|34=142|49=MDFHBLP|52=20150504-12:36:08.309|56=ALGOARBADR5|262=-4ef225248a30b167|268=1|279=1|269=1|55=CLP DTTC CURNCY|270=614.1|271=0|290=1|10=113|
20150504-12:36:09.954: 8=FIX.4.4|9=61|35=0|34=8|49=ALGOARBADR5|52=20150504-12:36:09.953|56=MDFHBLP|10=226|
20150504-12:36:11.594: 8=FIX.4.4|9=145|35=X|34=143|49=MDFHBLP|52=20150504-12:36:11.575|56=ALGOARBADR5|262=-4ef225248a30b167|268=1|279=1|269=0|55=CLP DTTC CURNCY|270=613.91|271=0|290=1|10=169|
20150504-12:36:11.595: 8=FIX.4.4|9=139|35=X|34=144|49=MDFHBLP|52=20150504-12:36:11.576|56=ALGOARBADR5|262=-4ef225248a30b167|268=1|279=1|269=5|55=CLP DTTC CURNCY|270=614.01|290=1|10=163|
20150504-12:36:21.639: 8=FIX.4.4|9=145|35=X|34=145|49=MDFHBLP|52=20150504-12:36:21.619|56=ALGOARBADR5|262=-4ef225248a30b167|268=1|279=1|269=0|55=CLP DTTC CURNCY|270=613.96|271=0|290=1|10=176|
20150504-12:36:21.639: 8=FIX.4.4|9=139|35=X|34=146|49=MDFHBLP|52=20150504-12:36:21.620|56=ALGOARBADR5|262=-4ef225248a30b167|268=1|279=1|269=5|55=CLP DTTC CURNCY|270=614.03|290=1|10=158|
20150504-12:36:43.141: 8=FIX.4.4|9=139|35=X|34=147|49=MDFHBLP|52=20150504-12:36:43.122|56=ALGOARBADR5|262=-4ef225248a30b167|268=1|279=1|269=5|55=CLP DTTC CURNCY|270=614.01|290=1|10=158|
20150504-12:36:43.142: 8=FIX.4.4|9=145|35=X|34=148|49=MDFHBLP|52=20150504-12:36:43.123|56=ALGOARBADR5|262=-4ef225248a30b167|268=1|279=1|269=1|55=CLP DTTC CURNCY|270=614.05|271=0|290=1|10=165|
20150504-12:36:49.718: 8=FIX.4.4|9=145|35=X|34=149|49=MDFHBLP|52=20150504-12:36:49.700|56=ALGOARBADR5|262=-4ef225248a30b167|268=1|279=1|269=0|55=CLP DTTC CURNCY|270=613.97|271=0|290=1|10=182|
20150504-12:36:49.719: 8=FIX.4.4|9=139|35=X|34=150|49=MDFHBLP|52=20150504-12:36:49.701|56=ALGOARBADR5|262=-4ef225248a30b167|268=1|279=1|269=5|55=CLP DTTC CURNCY|270=614.01|290=1|10=161|
20150504-12:36:51.672: 8=FIX.4.4|9=145|35=X|34=151|49=MDFHBLP|52=20150504-12:36:51.654|56=ALGOARBADR5|262=-4ef225248a30b167|268=1|279=1|269=0|55=CLP DTTC CURNCY|270=613.96|271=0|290=1|10=175|
20150504-12:36:51.673: 8=FIX.4.4|9=139|35=X|34=152|49=MDFHBLP|52=20150504-12:36:51.655|56=ALGOARBADR5|262=-4ef225248a30b167|268=1|279=1|269=5|55=CLP DTTC CURNCY|270=614.01|290=1|10=164|
20150504-12:37:04.396: 8=FIX.4.4|9=144|35=X|34=153|49=MDFHBLP|52=20150504-12:37:04.379|56=ALGOARBADR5|262=-4ef225248a30b167|268=1|279=1|269=1|55=CLP DTTC CURNCY|270=614.1|271=0|290=1|10=119|
20150504-12:37:04.397: 8=FIX.4.4|9=139|35=X|34=154|49=MDFHBLP|52=20150504-12:37:04.380|56=ALGOARBADR5|262=-4ef225248a30b167|268=1|279=1|269=5|55=CLP DTTC CURNCY|270=614.03|290=1|10=162|
20150504-12:37:09.954: 8=FIX.4.4|9=61|35=0|34=9|49=ALGOARBADR5|52=20150504-12:37:09.954|56=MDFHBLP|10=229|
20150504-12:37:16.686: 8=FIX.4.4|9=145|35=X|34=155|49=MDFHBLP|52=20150504-12:37:16.669|56=ALGOARBADR5|262=-4ef225248a30b167|268=1|279=1|269=0|55=CLP DTTC CURNCY|270=613.91|271=0|290=1|10=182|
20150504-12:37:16.686: 8=FIX.4.4|9=139|35=X|34=156|49=MDFHBLP|52=20150504-12:37:16.669|56=ALGOARBADR5|262=-4ef225248a30b167|268=1|279=1|269=5|55=CLP DTTC CURNCY|270=614.01|290=1|10=175|
20150504-12:37:16.843: 8=FIX.4.4|9=144|35=X|34=157|49=MDFHBLP|52=20150504-12:37:16.826|56=ALGOARBADR5|262=-4ef225248a30b167|268=1|279=1|269=0|55=CLP DTTC CURNCY|270=613.9|271=0|290=1|10=129|
20150504-12:37:16.844: 8=FIX.4.4|9=136|35=X|34=158|49=MDFHBLP|52=20150504-12:37:16.826|56=ALGOARBADR5|262=-4ef225248a30b167|268=1|279=1|269=5|55=CLP DTTC CURNCY|270=614|290=1|10=026|
20150504-12:37:18.696: 8=FIX.4.4|9=145|35=X|34=159|49=MDFHBLP|52=20150504-12:37:18.679|56=ALGOARBADR5|262=-4ef225248a30b167|268=1|279=1|269=0|55=CLP DTTC CURNCY|270=613.88|271=0|290=1|10=195|
20150504-12:37:18.697: 8=FIX.4.4|9=139|35=X|34=160|49=MDFHBLP|52=20150504-12:37:18.679|56=ALGOARBADR5|262=-4ef225248a30b167|268=1|279=1|269=5|55=CLP DTTC CURNCY|270=613.99|290=1|10=189|
20150504-12:37:19.530: 8=FIX.4.4|9=145|35=X|34=161|49=MDFHBLP|52=20150504-12:37:19.513|56=ALGOARBADR5|262=-4ef225248a30b167|268=1|279=1|269=0|55=CLP DTTC CURNCY|270=613.86|271=0|290=1|10=174|
20150504-12:37:19.531: 8=FIX.4.4|9=139|35=X|34=162|49=MDFHBLP|52=20150504-12:37:19.514|56=ALGOARBADR5|262=-4ef225248a30b167|268=1|279=1|269=5|55=CLP DTTC CURNCY|270=613.98|290=1|10=179|
20150504-12:37:29.312: 8=FIX.4.4|9=145|35=X|34=163|49=MDFHBLP|52=20150504-12:37:29.295|56=ALGOARBADR5|262=-4ef225248a30b167|268=1|279=1|269=0|55=CLP DTTC CURNCY|270=613.85|271=0|290=1|10=183|
20150504-12:37:29.313: 8=FIX.4.4|9=139|35=X|34=164|49=MDFHBLP|52=20150504-12:37:29.295|56=ALGOARBADR5|262=-4ef225248a30b167|268=1|279=1|269=5|55=CLP DTTC CURNCY|270=613.98|290=1|10=188|
20150504-12:37:34.614: 8=FIX.4.4|9=144|35=X|34=165|49=MDFHBLP|52=20150504-12:37:34.598|56=ALGOARBADR5|262=-4ef225248a30b167|268=1|279=1|269=0|55=CLP DTTC CURNCY|270=613.8|271=0|290=1|10=133|
20150504-12:37:34.615: 8=FIX.4.4|9=139|35=X|34=166|49=MDFHBLP|52=20150504-12:37:34.598|56=ALGOARBADR5|262=-4ef225248a30b167|268=1|279=1|269=5|55=CLP DTTC CURNCY|270=613.95|290=1|10=189|
20150504-12:37:44.860: 8=FIX.4.4|9=144|35=X|34=167|49=MDFHBLP|52=20150504-12:37:44.844|56=ALGOARBADR5|262=-4ef225248a30b167|268=1|279=1|269=0|55=CLP DTTC CURNCY|270=613.7|271=0|290=1|10=129|
20150504-12:37:44.861: 8=FIX.4.4|9=138|35=X|34=168|49=MDFHBLP|52=20150504-12:37:44.844|56=ALGOARBADR5|262=-4ef225248a30b167|268=1|279=1|269=5|55=CLP DTTC CURNCY|270=613.9|290=1|10=132|
20150504-12:37:47.404: 8=FIX.4.4|9=145|35=X|34=169|49=MDFHBLP|52=20150504-12:37:47.387|56=ALGOARBADR5|262=-4ef225248a30b167|268=1|279=1|269=0|55=CLP DTTC CURNCY|270=613.81|271=0|290=1|10=187|
20150504-12:37:47.405: 8=FIX.4.4|9=139|35=X|34=170|49=MDFHBLP|52=20150504-12:37:47.388|56=ALGOARBADR5|262=-4ef225248a30b167|268=1|279=1|269=5|55=CLP DTTC CURNCY|270=613.95|290=1|10=185|
20150504-12:37:47.406: 8=FIX.4.4|9=145|35=X|34=171|49=MDFHBLP|52=20150504-12:37:47.389|56=ALGOARBADR5|262=-4ef225248a30b167|268=1|279=1|269=0|55=CLP DTTC CURNCY|270=613.81|271=0|290=1|10=182|
20150504-12:37:47.407: 8=FIX.4.4|9=139|35=X|34=172|49=MDFHBLP|52=20150504-12:37:47.390|56=ALGOARBADR5|262=-4ef225248a30b167|268=1|279=1|269=5|55=CLP DTTC CURNCY|270=613.96|290=1|10=181|
20150504-12:37:51.437: 8=FIX.4.4|9=144|35=X|34=173|49=MDFHBLP|52=20150504-12:37:51.420|56=ALGOARBADR5|262=-4ef225248a30b167|268=1|279=1|269=0|55=CLP DTTC CURNCY|270=613.8|271=0|290=1|10=115|
20150504-12:37:51.438: 8=FIX.4.4|9=139|35=X|34=174|49=MDFHBLP|52=20150504-12:37:51.421|56=ALGOARBADR5|262=-4ef225248a30b167|268=1|279=1|269=5|55=CLP DTTC CURNCY|270=613.95|290=1|10=172|
20150504-12:37:52.121: 8=FIX.4.4|9=145|35=X|34=175|49=MDFHBLP|52=20150504-12:37:52.104|56=ALGOARBADR5|262=-4ef225248a30b167|268=1|279=1|269=0|55=CLP DTTC CURNCY|270=613.71|271=0|290=1|10=166|
20150504-12:37:52.122: 8=FIX.4.4|9=139|35=X|34=176|49=MDFHBLP|52=20150504-12:37:52.104|56=ALGOARBADR5|262=-4ef225248a30b167|268=1|279=1|269=5|55=CLP DTTC CURNCY|270=613.91|290=1|10=169|
20150504-12:38:09.280: 8=FIX.4.4|9=144|35=X|34=177|49=MDFHBLP|52=20150504-12:38:09.264|56=ALGOARBADR5|262=-4ef225248a30b167|268=1|279=1|269=0|55=CLP DTTC CURNCY|270=613.6|271=0|290=1|10=127|
20150504-12:38:09.281: 8=FIX.4.4|9=139|35=X|34=178|49=MDFHBLP|52=20150504-12:38:09.265|56=ALGOARBADR5|262=-4ef225248a30b167|268=1|279=1|269=5|55=CLP DTTC CURNCY|270=613.85|290=1|10=185|
20150504-12:38:10.954: 8=FIX.4.4|9=62|35=0|34=10|49=ALGOARBADR5|52=20150504-12:38:10.953|56=MDFHBLP|10=006|
20150504-12:38:12.296: 8=FIX.4.4|9=142|35=X|34=179|49=MDFHBLP|52=20150504-12:38:12.280|56=ALGOARBADR5|262=-4ef225248a30b167|268=1|279=1|269=1|55=CLP DTTC CURNCY|270=614|271=0|290=1|10=021|
20150504-12:38:12.297: 8=FIX.4.4|9=138|35=X|34=180|49=MDFHBLP|52=20150504-12:38:12.281|56=ALGOARBADR5|262=-4ef225248a30b167|268=1|279=1|269=5|55=CLP DTTC CURNCY|270=613.8|290=1|10=116|
20150504-12:38:17.873: 8=FIX.4.4|9=145|35=X|34=181|49=MDFHBLP|52=20150504-12:38:17.858|56=ALGOARBADR5|262=-4ef225248a30b167|268=1|279=1|269=0|55=CLP DTTC CURNCY|270=613.65|271=0|290=1|10=184|
20150504-12:38:17.875: 8=FIX.4.4|9=139|35=X|34=182|49=MDFHBLP|52=20150504-12:38:17.859|56=ALGOARBADR5|262=-4ef225248a30b167|268=1|279=1|269=5|55=CLP DTTC CURNCY|270=613.82|290=1|10=185|
20150504-12:38:24.448: 8=FIX.4.4|9=145|35=X|34=183|49=MDFHBLP|52=20150504-12:38:24.433|56=ALGOARBADR5|262=-4ef225248a30b167|268=1|279=1|269=0|55=CLP DTTC CURNCY|270=613.66|271=0|290=1|10=174|
20150504-12:38:24.449: 8=FIX.4.4|9=139|35=X|34=184|49=MDFHBLP|52=20150504-12:38:24.433|56=ALGOARBADR5|262=-4ef225248a30b167|268=1|279=1|269=5|55=CLP DTTC CURNCY|270=613.83|290=1|10=174|
20150504-12:38:33.131: 8=FIX.4.4|9=144|35=X|34=185|49=MDFHBLP|52=20150504-12:38:33.115|56=ALGOARBADR5|262=-4ef225248a30b167|268=1|279=1|269=0|55=CLP DTTC CURNCY|270=613.7|271=0|290=1|10=119|
20150504-12:38:33.132: 8=FIX.4.4|9=139|35=X|34=186|49=MDFHBLP|52=20150504-12:38:33.116|56=ALGOARBADR5|262=-4ef225248a30b167|268=1|279=1|269=5|55=CLP DTTC CURNCY|270=613.85|290=1|10=176|
20150504-12:38:49.066: 8=FIX.4.4|9=145|35=X|34=187|49=MDFHBLP|52=20150504-12:38:49.051|56=ALGOARBADR5|262=-4ef225248a30b167|268=1|279=1|269=0|55=CLP DTTC CURNCY|270=613.75|271=0|290=1|10=181|
20150504-12:38:49.067: 8=FIX.4.4|9=139|35=X|34=188|49=MDFHBLP|52=20150504-12:38:49.052|56=ALGOARBADR5|262=-4ef225248a30b167|268=1|279=1|269=5|55=CLP DTTC CURNCY|270=613.88|290=1|10=187|
20150504-12:38:50.537: 8=FIX.4.4|9=144|35=X|34=189|49=MDFHBLP|52=20150504-12:38:50.523|56=ALGOARBADR5|262=-4ef225248a30b167|268=1|279=1|269=1|55=CLP DTTC CURNCY|270=613.8|271=0|290=1|10=127|
20150504-12:38:50.539: 8=FIX.4.4|9=139|35=X|34=190|49=MDFHBLP|52=20150504-12:38:50.523|56=ALGOARBADR5|262=-4ef225248a30b167|268=1|279=1|269=5|55=CLP DTTC CURNCY|270=613.78|290=1|10=174|
20150504-12:38:52.030: 8=FIX.4.4|9=142|35=X|34=191|49=MDFHBLP|52=20150504-12:38:52.015|56=ALGOARBADR5|262=-4ef225248a30b167|268=1|279=1|269=1|55=CLP DTTC CURNCY|270=614|271=0|290=1|10=015|
20150504-12:38:52.031: 8=FIX.4.4|9=139|35=X|34=192|49=MDFHBLP|52=20150504-12:38:52.016|56=ALGOARBADR5|262=-4ef225248a30b167|268=1|279=1|269=5|55=CLP DTTC CURNCY|270=613.88|290=1|10=176|
20150504-12:38:54.941: 8=FIX.4.4|9=145|35=X|34=193|49=MDFHBLP|52=20150504-12:38:54.922|56=ALGOARBADR5|262=-4ef225248a30b167|268=1|279=1|269=1|55=CLP DTTC CURNCY|270=613.85|271=0|290=1|10=183|
20150504-12:38:54.942: 8=FIX.4.4|9=138|35=X|34=194|49=MDFHBLP|52=20150504-12:38:54.927|56=ALGOARBADR5|262=-4ef225248a30b167|268=1|279=1|269=5|55=CLP DTTC CURNCY|270=613.8|290=1|10=134|
20150504-12:39:10.954: 8=FIX.4.4|9=62|35=0|34=11|49=ALGOARBADR5|52=20150504-12:39:10.954|56=MDFHBLP|10=009|
20150504-12:39:15.277: 8=FIX.4.4|9=144|35=X|34=195|49=MDFHBLP|52=20150504-12:39:15.263|56=ALGOARBADR5|262=-4ef225248a30b167|268=1|279=1|269=1|55=CLP DTTC CURNCY|270=613.8|271=0|290=1|10=127|
20150504-12:39:15.278: 8=FIX.4.4|9=139|35=X|34=196|49=MDFHBLP|52=20150504-12:39:15.263|56=ALGOARBADR5|262=-4ef225248a30b167|268=1|279=1|269=5|55=CLP DTTC CURNCY|270=613.78|290=1|10=183|
20150504-12:39:21.562: 8=FIX.4.4|9=144|35=X|34=197|49=MDFHBLP|52=20150504-12:39:21.548|56=ALGOARBADR5|262=-4ef225248a30b167|268=1|279=1|269=0|55=CLP DTTC CURNCY|270=613.7|271=0|290=1|10=130|
20150504-12:39:21.563: 8=FIX.4.4|9=139|35=X|34=198|49=MDFHBLP|52=20150504-12:39:21.549|56=ALGOARBADR5|262=-4ef225248a30b167|268=1|279=1|269=5|55=CLP DTTC CURNCY|270=613.75|290=1|10=186|
20150504-12:40:06.474: 8=FIX.4.4|9=145|35=X|34=199|49=MDFHBLP|52=20150504-12:40:06.461|56=ALGOARBADR5|262=-4ef225248a30b167|268=1|279=1|269=1|55=CLP DTTC CURNCY|270=613.85|271=0|290=1|10=177|
20150504-12:40:06.475: 8=FIX.4.4|9=139|35=X|34=200|49=MDFHBLP|52=20150504-12:40:06.462|56=ALGOARBADR5|262=-4ef225248a30b167|268=1|279=1|269=5|55=CLP DTTC CURNCY|270=613.78|290=1|10=162|
20150504-12:40:10.252: 8=FIX.4.4|9=142|35=X|34=201|49=MDFHBLP|52=20150504-12:40:10.239|56=ALGOARBADR5|262=-4ef225248a30b167|268=1|279=1|269=1|55=CLP DTTC CURNCY|270=614|271=0|290=1|10=002|
20150504-12:40:10.253: 8=FIX.4.4|9=139|35=X|34=202|49=MDFHBLP|52=20150504-12:40:10.240|56=ALGOARBADR5|262=-4ef225248a30b167|268=1|279=1|269=5|55=CLP DTTC CURNCY|270=613.85|290=1|10=151|
20150504-12:40:11.954: 8=FIX.4.4|9=62|35=0|34=12|49=ALGOARBADR5|52=20150504-12:40:11.954|56=MDFHBLP|10=003|
20150504-12:40:29.115: 8=FIX.4.4|9=145|35=X|34=203|49=MDFHBLP|52=20150504-12:40:29.103|56=ALGOARBADR5|262=-4ef225248a30b167|268=1|279=1|269=0|55=CLP DTTC CURNCY|270=613.72|271=0|290=1|10=156|
20150504-12:40:29.117: 8=FIX.4.4|9=139|35=X|34=204|49=MDFHBLP|52=20150504-12:40:29.104|56=ALGOARBADR5|262=-4ef225248a30b167|268=1|279=1|269=5|55=CLP DTTC CURNCY|270=613.86|290=1|10=163|
20150504-12:40:31.876: 8=FIX.4.4|9=145|35=X|34=205|49=MDFHBLP|52=20150504-12:40:31.864|56=ALGOARBADR5|262=-4ef225248a30b167|268=1|279=1|269=1|55=CLP DTTC CURNCY|270=613.99|271=0|290=1|10=175|
20150504-12:40:31.878: 8=FIX.4.4|9=139|35=X|34=206|49=MDFHBLP|52=20150504-12:40:31.865|56=ALGOARBADR5|262=-4ef225248a30b167|268=1|279=1|269=5|55=CLP DTTC CURNCY|270=613.85|290=1|10=171|
20150504-12:40:38.954: 8=FIX.4.4|9=142|35=X|34=207|49=MDFHBLP|52=20150504-12:40:38.940|56=ALGOARBADR5|262=-4ef225248a30b167|268=1|279=1|269=1|55=CLP DTTC CURNCY|270=614|271=0|290=1|10=017|
20150504-12:40:38.955: 8=FIX.4.4|9=139|35=X|34=208|49=MDFHBLP|52=20150504-12:40:38.941|56=ALGOARBADR5|262=-4ef225248a30b167|268=1|279=1|269=5|55=CLP DTTC CURNCY|270=613.86|290=1|10=176|
20150504-12:40:40.398: 8=FIX.4.4|9=144|35=X|34=209|49=MDFHBLP|52=20150504-12:40:40.385|56=ALGOARBADR5|262=-4ef225248a30b167|268=1|279=1|269=0|55=CLP DTTC CURNCY|270=613.8|271=0|290=1|10=117|
20150504-12:40:40.399: 8=FIX.4.4|9=138|35=X|34=210|49=MDFHBLP|52=20150504-12:40:40.386|56=ALGOARBADR5|262=-4ef225248a30b167|268=1|279=1|269=5|55=CLP DTTC CURNCY|270=613.9|290=1|10=111|
20150504-12:40:55.117: 8=FIX.4.4|9=145|35=X|34=211|49=MDFHBLP|52=20150504-12:40:55.106|56=ALGOARBADR5|262=-4ef225248a30b167|268=1|279=1|269=0|55=CLP DTTC CURNCY|270=613.72|271=0|290=1|10=157|
20150504-12:40:55.118: 8=FIX.4.4|9=139|35=X|34=212|49=MDFHBLP|52=20150504-12:40:55.106|56=ALGOARBADR5|262=-4ef225248a30b167|268=1|279=1|269=5|55=CLP DTTC CURNCY|270=613.86|290=1|10=163|
20150504-12:41:05.582: 8=FIX.4.4|9=145|35=X|34=213|49=MDFHBLP|52=20150504-12:41:05.571|56=ALGOARBADR5|262=-4ef225248a30b167|268=1|279=1|269=1|55=CLP DTTC CURNCY|270=613.95|271=0|290=1|10=167|
20150504-12:41:05.583: 8=FIX.4.4|9=139|35=X|34=214|49=MDFHBLP|52=20150504-12:41:05.572|56=ALGOARBADR5|262=-4ef225248a30b167|268=1|279=1|269=5|55=CLP DTTC CURNCY|270=613.83|290=1|10=165|
20150504-12:41:06.569: 8=FIX.4.4|9=144|35=X|34=215|49=MDFHBLP|52=20150504-12:41:06.557|56=ALGOARBADR5|262=-4ef225248a30b167|268=1|279=1|269=0|55=CLP DTTC CURNCY|270=613.8|271=0|290=1|10=118|
20150504-12:41:06.570: 8=FIX.4.4|9=139|35=X|34=216|49=MDFHBLP|52=20150504-12:41:06.558|56=ALGOARBADR5|262=-4ef225248a30b167|268=1|279=1|269=5|55=CLP DTTC CURNCY|270=613.88|290=1|10=177|
20150504-12:41:12.954: 8=FIX.4.4|9=62|35=0|34=13|49=ALGOARBADR5|52=20150504-12:41:12.954|56=MDFHBLP|10=006|
20150504-12:41:16.987: 8=FIX.4.4|9=142|35=X|34=217|49=MDFHBLP|52=20150504-12:41:16.975|56=ALGOARBADR5|262=-4ef225248a30b167|268=1|279=1|269=1|55=CLP DTTC CURNCY|270=614|271=0|290=1|10=023|
20150504-12:41:16.988: 8=FIX.4.4|9=138|35=X|34=218|49=MDFHBLP|52=20150504-12:41:16.976|56=ALGOARBADR5|262=-4ef225248a30b167|268=1|279=1|269=5|55=CLP DTTC CURNCY|270=613.9|290=1|10=128|
20150504-12:41:18.894: 8=FIX.4.4|9=145|35=X|34=219|49=MDFHBLP|52=20150504-12:41:18.883|56=ALGOARBADR5|262=-4ef225248a30b167|268=1|279=1|269=0|55=CLP DTTC CURNCY|270=613.84|271=0|290=1|10=180|
20150504-12:41:18.895: 8=FIX.4.4|9=139|35=X|34=220|49=MDFHBLP|52=20150504-12:41:18.884|56=ALGOARBADR5|262=-4ef225248a30b167|268=1|279=1|269=5|55=CLP DTTC CURNCY|270=613.92|290=1|10=172|
20150504-12:41:22.834: 8=FIX.4.4|9=145|35=X|34=221|49=MDFHBLP|52=20150504-12:41:22.823|56=ALGOARBADR5|262=-4ef225248a30b167|268=1|279=1|269=0|55=CLP DTTC CURNCY|270=613.85|271=0|290=1|10=163|
20150504-12:41:22.835: 8=FIX.4.4|9=139|35=X|34=222|49=MDFHBLP|52=20150504-12:41:22.823|56=ALGOARBADR5|262=-4ef225248a30b167|268=1|279=1|269=5|55=CLP DTTC CURNCY|270=613.93|290=1|10=163|
20150504-12:41:29.687: 8=FIX.4.4|9=145|35=X|34=223|49=MDFHBLP|52=20150504-12:41:29.676|56=ALGOARBADR5|262=-4ef225248a30b167|268=1|279=1|269=0|55=CLP DTTC CURNCY|270=613.73|271=0|290=1|10=175|
20150504-12:41:29.688: 8=FIX.4.4|9=139|35=X|34=224|49=MDFHBLP|52=20150504-12:41:29.677|56=ALGOARBADR5|262=-4ef225248a30b167|268=1|279=1|269=5|55=CLP DTTC CURNCY|270=613.86|290=1|10=181|
20150504-12:41:34.466: 8=FIX.4.4|9=145|35=X|34=225|49=MDFHBLP|52=20150504-12:41:34.456|56=ALGOARBADR5|262=-4ef225248a30b167|268=1|279=1|269=0|55=CLP DTTC CURNCY|270=613.75|271=0|290=1|10=171|
20150504-12:41:34.468: 8=FIX.4.4|9=139|35=X|34=226|49=MDFHBLP|52=20150504-12:41:34.457|56=ALGOARBADR5|262=-4ef225248a30b167|268=1|279=1|269=5|55=CLP DTTC CURNCY|270=613.88|290=1|10=177|
20150504-12:41:37.127: 8=FIX.4.4|9=145|35=X|34=227|49=MDFHBLP|52=20150504-12:41:37.117|56=ALGOARBADR5|262=-4ef225248a30b167|268=1|279=1|269=0|55=CLP DTTC CURNCY|270=613.85|271=0|290=1|10=171|
20150504-12:41:37.128: 8=FIX.4.4|9=139|35=X|34=228|49=MDFHBLP|52=20150504-12:41:37.117|56=ALGOARBADR5|262=-4ef225248a30b167|268=1|279=1|269=5|55=CLP DTTC CURNCY|270=613.93|290=1|10=171|
20150504-12:41:43.115: 8=FIX.4.4|9=145|35=X|34=229|49=MDFHBLP|52=20150504-12:41:43.104|56=ALGOARBADR5|262=-4ef225248a30b167|268=1|279=1|269=0|55=CLP DTTC CURNCY|270=613.75|271=0|290=1|10=165|
20150504-12:41:43.117: 8=FIX.4.4|9=139|35=X|34=230|49=MDFHBLP|52=20150504-12:41:43.105|56=ALGOARBADR5|262=-4ef225248a30b167|268=1|279=1|269=5|55=CLP DTTC CURNCY|270=613.88|290=1|10=162|
20150504-12:41:50.412: 8=FIX.4.4|9=145|35=X|34=231|49=MDFHBLP|52=20150504-12:41:50.400|56=ALGOARBADR5|262=-4ef225248a30b167|268=1|279=1|269=0|55=CLP DTTC CURNCY|270=613.85|271=0|290=1|10=156|
20150504-12:41:50.412: 8=FIX.4.4|9=139|35=X|34=232|49=MDFHBLP|52=20150504-12:41:50.401|56=ALGOARBADR5|262=-4ef225248a30b167|268=1|279=1|269=5|55=CLP DTTC CURNCY|270=613.93|290=1|10=157|
20150504-12:41:56.118: 8=FIX.4.4|9=144|35=X|34=233|49=MDFHBLP|52=20150504-12:41:56.108|56=ALGOARBADR5|262=-4ef225248a30b167|268=1|279=1|269=0|55=CLP DTTC CURNCY|270=613.9|271=0|290=1|10=116|
20150504-12:41:56.119: 8=FIX.4.4|9=139|35=X|34=234|49=MDFHBLP|52=20150504-12:41:56.109|56=ALGOARBADR5|262=-4ef225248a30b167|268=1|279=1|269=5|55=CLP DTTC CURNCY|270=613.95|290=1|10=172|
20150504-12:42:02.425: 8=FIX.4.4|9=145|35=X|34=235|49=MDFHBLP|52=20150504-12:42:02.414|56=ALGOARBADR5|262=-4ef225248a30b167|268=1|279=1|269=0|55=CLP DTTC CURNCY|270=613.95|271=0|290=1|10=164|
20150504-12:42:02.426: 8=FIX.4.4|9=139|35=X|34=236|49=MDFHBLP|52=20150504-12:42:02.415|56=ALGOARBADR5|262=-4ef225248a30b167|268=1|279=1|269=5|55=CLP DTTC CURNCY|270=613.98|290=1|10=169|
20150504-12:42:06.820: 8=FIX.4.4|9=145|35=X|34=237|49=MDFHBLP|52=20150504-12:42:06.810|56=ALGOARBADR5|262=-4ef225248a30b167|268=1|279=1|269=1|55=CLP DTTC CURNCY|270=614.09|271=0|290=1|10=167|
20150504-12:42:06.821: 8=FIX.4.4|9=139|35=X|34=238|49=MDFHBLP|52=20150504-12:42:06.811|56=ALGOARBADR5|262=-4ef225248a30b167|268=1|279=1|269=5|55=CLP DTTC CURNCY|270=614.02|290=1|10=161|
20150504-12:42:07.530: 8=FIX.4.4|9=144|35=X|34=239|49=MDFHBLP|52=20150504-12:42:07.520|56=ALGOARBADR5|262=-4ef225248a30b167|268=1|279=1|269=0|55=CLP DTTC CURNCY|270=613.9|271=0|290=1|10=117|
20150504-12:42:07.531: 8=FIX.4.4|9=136|35=X|34=240|49=MDFHBLP|52=20150504-12:42:07.521|56=ALGOARBADR5|262=-4ef225248a30b167|268=1|279=1|269=5|55=CLP DTTC CURNCY|270=614|290=1|10=006|
20150504-12:42:12.954: 8=FIX.4.4|9=62|35=0|34=14|49=ALGOARBADR5|52=20150504-12:42:12.954|56=MDFHBLP|10=008|
20150504-12:42:13.005: 8=FIX.4.4|9=145|35=X|34=241|49=MDFHBLP|52=20150504-12:42:12.994|56=ALGOARBADR5|262=-4ef225248a30b167|268=1|279=1|269=1|55=CLP DTTC CURNCY|270=614.05|271=0|290=1|10=168|
20150504-12:42:13.005: 8=FIX.4.4|9=139|35=X|34=242|49=MDFHBLP|52=20150504-12:42:12.995|56=ALGOARBADR5|262=-4ef225248a30b167|268=1|279=1|269=5|55=CLP DTTC CURNCY|270=613.98|290=1|10=180|
20150504-12:42:14.643: 8=FIX.4.4|9=145|35=X|34=243|49=MDFHBLP|52=20150504-12:42:14.634|56=ALGOARBADR5|262=-4ef225248a30b167|268=1|279=1|269=0|55=CLP DTTC CURNCY|270=613.76|271=0|290=1|10=169|
20150504-12:42:14.645: 8=FIX.4.4|9=139|35=X|34=244|49=MDFHBLP|52=20150504-12:42:14.635|56=ALGOARBADR5|262=-4ef225248a30b167|268=1|279=1|269=5|55=CLP DTTC CURNCY|270=613.91|290=1|10=168|
20150504-12:42:18.805: 8=FIX.4.4|9=145|35=X|34=245|49=MDFHBLP|52=20150504-12:42:18.783|56=ALGOARBADR5|262=-4ef225248a30b167|268=1|279=1|269=1|55=CLP DTTC CURNCY|270=613.75|271=0|290=1|10=180|
20150504-12:42:18.806: 8=FIX.4.4|9=139|35=X|34=246|49=MDFHBLP|52=20150504-12:42:18.783|56=ALGOARBADR5|262=-4ef225248a30b167|268=1|279=1|269=5|55=CLP DTTC CURNCY|270=613.76|290=1|10=181|
20150504-12:42:22.537: 8=FIX.4.4|9=144|35=X|34=247|49=MDFHBLP|52=20150504-12:42:22.527|56=ALGOARBADR5|262=-4ef225248a30b167|268=1|279=1|269=0|55=CLP DTTC CURNCY|270=613.9|271=0|290=1|10=120|
20150504-12:42:22.538: 8=FIX.4.4|9=145|35=X|34=248|49=MDFHBLP|52=20150504-12:42:22.527|56=ALGOARBADR5|262=-4ef225248a30b167|268=1|279=1|269=1|55=CLP DTTC CURNCY|270=614.05|271=0|290=1|10=168|
20150504-12:42:22.539: 8=FIX.4.4|9=139|35=X|34=249|49=MDFHBLP|52=20150504-12:42:22.528|56=ALGOARBADR5|262=-4ef225248a30b167|268=1|279=1|269=5|55=CLP DTTC CURNCY|270=613.82|290=1|10=173|
20150504-12:42:22.540: 8=FIX.4.4|9=139|35=X|34=250|49=MDFHBLP|52=20150504-12:42:22.529|56=ALGOARBADR5|262=-4ef225248a30b167|268=1|279=1|269=5|55=CLP DTTC CURNCY|270=613.98|290=1|10=173|
20150504-12:42:27.598: 8=FIX.4.4|9=142|35=X|34=251|49=MDFHBLP|52=20150504-12:42:27.589|56=ALGOARBADR5|262=-4ef225248a30b167|268=1|279=1|269=0|55=CLP DTTC CURNCY|270=614|271=0|290=1|10=024|
20150504-12:42:27.599: 8=FIX.4.4|9=139|35=X|34=252|49=MDFHBLP|52=20150504-12:42:27.589|56=ALGOARBADR5|262=-4ef225248a30b167|268=1|279=1|269=5|55=CLP DTTC CURNCY|270=614.03|290=1|10=173|
20150504-12:42:28.063: 8=FIX.4.4|9=144|35=X|34=253|49=MDFHBLP|52=20150504-12:42:28.053|56=ALGOARBADR5|262=-4ef225248a30b167|268=1|279=1|269=0|55=CLP DTTC CURNCY|270=613.9|271=0|290=1|10=117|
20150504-12:42:28.064: 8=FIX.4.4|9=139|35=X|34=254|49=MDFHBLP|52=20150504-12:42:28.054|56=ALGOARBADR5|262=-4ef225248a30b167|268=1|279=1|269=5|55=CLP DTTC CURNCY|270=613.98|290=1|10=176|
20150504-12:42:31.174: 8=FIX.4.4|9=145|35=X|34=255|49=MDFHBLP|52=20150504-12:42:31.165|56=ALGOARBADR5|262=-4ef225248a30b167|268=1|279=1|269=0|55=CLP DTTC CURNCY|270=613.95|271=0|290=1|10=171|
20150504-12:42:31.175: 8=FIX.4.4|9=136|35=X|34=256|49=MDFHBLP|52=20150504-12:42:31.165|56=ALGOARBADR5|262=-4ef225248a30b167|268=1|279=1|269=5|55=CLP DTTC CURNCY|270=614|290=1|10=014|
20150504-12:42:33.082: 8=FIX.4.4|9=145|35=X|34=257|49=MDFHBLP|52=20150504-12:42:33.072|56=ALGOARBADR5|262=-4ef225248a30b167|268=1|279=1|269=0|55=CLP DTTC CURNCY|270=613.99|271=0|290=1|10=176|
20150504-12:42:33.089: 8=FIX.4.4|9=139|35=X|34=258|49=MDFHBLP|52=20150504-12:42:33.073|56=ALGOARBADR5|262=-4ef225248a30b167|268=1|279=1|269=5|55=CLP DTTC CURNCY|270=614.02|290=1|10=163|
20150504-12:42:33.703: 8=FIX.4.4|9=145|35=X|34=259|49=MDFHBLP|52=20150504-12:42:33.694|56=ALGOARBADR5|262=-4ef225248a30b167|268=1|279=1|269=1|55=CLP DTTC CURNCY|270=614.09|271=0|290=1|10=181|
20150504-12:42:33.704: 8=FIX.4.4|9=139|35=X|34=260|49=MDFHBLP|52=20150504-12:42:33.695|56=ALGOARBADR5|262=-4ef225248a30b167|268=1|279=1|269=5|55=CLP DTTC CURNCY|270=614.04|290=1|10=168|
20150504-12:42:35.379: 8=FIX.4.4|9=142|35=X|34=261|49=MDFHBLP|52=20150504-12:42:35.370|56=ALGOARBADR5|262=-4ef225248a30b167|268=1|279=1|269=0|55=CLP DTTC CURNCY|270=614|271=0|290=1|10=012|
20150504-12:42:35.380: 8=FIX.4.4|9=144|35=X|34=262|49=MDFHBLP|52=20150504-12:42:35.371|56=ALGOARBADR5|262=-4ef225248a30b167|268=1|279=1|269=1|55=CLP DTTC CURNCY|270=614.1|271=0|290=1|10=112|
20150504-12:42:35.381: 8=FIX.4.4|9=139|35=X|34=263|49=MDFHBLP|52=20150504-12:42:35.371|56=ALGOARBADR5|262=-4ef225248a30b167|268=1|279=1|269=5|55=CLP DTTC CURNCY|270=614.05|290=1|10=165|
20150504-12:42:35.382: 8=FIX.4.4|9=139|35=X|34=264|49=MDFHBLP|52=20150504-12:42:35.373|56=ALGOARBADR5|262=-4ef225248a30b167|268=1|279=1|269=5|55=CLP DTTC CURNCY|270=614.05|290=1|10=168|
20150504-12:42:40.459: 8=FIX.4.4|9=145|35=X|34=265|49=MDFHBLP|52=20150504-12:42:40.448|56=ALGOARBADR5|262=-4ef225248a30b167|268=1|279=1|269=0|55=CLP DTTC CURNCY|270=614.01|271=0|290=1|10=164|
20150504-12:42:40.459: 8=FIX.4.4|9=139|35=X|34=266|49=MDFHBLP|52=20150504-12:42:40.449|56=ALGOARBADR5|262=-4ef225248a30b167|268=1|279=1|269=5|55=CLP DTTC CURNCY|270=614.05|290=1|10=170|
20150504-12:42:44.827: 8=FIX.4.4|9=144|35=X|34=267|49=MDFHBLP|52=20150504-12:42:44.819|56=ALGOARBADR5|262=-4ef225248a30b167|268=1|279=1|269=1|55=CLP DTTC CURNCY|270=614.2|271=0|290=1|10=125|
20150504-12:42:44.828: 8=FIX.4.4|9=138|35=X|34=268|49=MDFHBLP|52=20150504-12:42:44.819|56=ALGOARBADR5|262=-4ef225248a30b167|268=1|279=1|269=5|55=CLP DTTC CURNCY|270=614.1|290=1|10=124|
20150504-12:42:49.004: 8=FIX.4.4|9=145|35=X|34=269|49=MDFHBLP|52=20150504-12:42:48.996|56=ALGOARBADR5|262=-4ef225248a30b167|268=1|279=1|269=0|55=CLP DTTC CURNCY|270=614.05|271=0|290=1|10=188|
20150504-12:42:49.005: 8=FIX.4.4|9=139|35=X|34=270|49=MDFHBLP|52=20150504-12:42:48.996|56=ALGOARBADR5|262=-4ef225248a30b167|268=1|279=1|269=5|55=CLP DTTC CURNCY|270=614.13|290=1|10=179|
20150504-12:42:49.278: 8=FIX.4.4|9=145|35=X|34=271|49=MDFHBLP|52=20150504-12:42:49.269|56=ALGOARBADR5|262=-4ef225248a30b167|268=1|279=1|269=1|55=CLP DTTC CURNCY|270=614.28|271=0|290=1|10=181|
20150504-12:42:49.279: 8=FIX.4.4|9=139|35=X|34=272|49=MDFHBLP|52=20150504-12:42:49.270|56=ALGOARBADR5|262=-4ef225248a30b167|268=1|279=1|269=5|55=CLP DTTC CURNCY|270=614.17|290=1|10=171|
20150504-12:42:50.569: 8=FIX.4.4|9=145|35=X|34=273|49=MDFHBLP|52=20150504-12:42:50.557|56=ALGOARBADR5|262=-4ef225248a30b167|268=1|279=1|269=0|55=CLP DTTC CURNCY|270=614.08|271=0|290=1|10=172|
20150504-12:42:50.571: 8=FIX.4.4|9=139|35=X|34=274|49=MDFHBLP|52=20150504-12:42:50.561|56=ALGOARBADR5|262=-4ef225248a30b167|268=1|279=1|269=5|55=CLP DTTC CURNCY|270=614.18|290=1|10=169|
20150504-12:42:52.780: 8=FIX.4.4|9=144|35=X|34=275|49=MDFHBLP|52=20150504-12:42:52.771|56=ALGOARBADR5|262=-4ef225248a30b167|268=1|279=1|269=1|55=CLP DTTC CURNCY|270=614.2|271=0|290=1|10=120|
20150504-12:42:52.781: 8=FIX.4.4|9=139|35=X|34=276|49=MDFHBLP|52=20150504-12:42:52.772|56=ALGOARBADR5|262=-4ef225248a30b167|268=1|279=1|269=5|55=CLP DTTC CURNCY|270=614.14|290=1|10=173|
20150504-12:42:54.941: 8=FIX.4.4|9=144|35=X|34=277|49=MDFHBLP|52=20150504-12:42:54.932|56=ALGOARBADR5|262=-4ef225248a30b167|268=1|279=1|269=0|55=CLP DTTC CURNCY|270=614.1|271=0|290=1|10=121|
20150504-12:42:54.942: 8=FIX.4.4|9=139|35=X|34=278|49=MDFHBLP|52=20150504-12:42:54.933|56=ALGOARBADR5|262=-4ef225248a30b167|268=1|279=1|269=5|55=CLP DTTC CURNCY|270=614.15|290=1|10=177|
20150504-12:42:56.039: 8=FIX.4.4|9=145|35=X|34=279|49=MDFHBLP|52=20150504-12:42:56.031|56=ALGOARBADR5|262=-4ef225248a30b167|268=1|279=1|269=1|55=CLP DTTC CURNCY|270=614.28|271=0|290=1|10=174|
20150504-12:42:56.040: 8=FIX.4.4|9=139|35=X|34=280|49=MDFHBLP|52=20150504-12:42:56.031|56=ALGOARBADR5|262=-4ef225248a30b167|268=1|279=1|269=5|55=CLP DTTC CURNCY|270=614.19|290=1|10=165|
20150504-12:42:58.790: 8=FIX.4.4|9=144|35=X|34=281|49=MDFHBLP|52=20150504-12:42:58.781|56=ALGOARBADR5|262=-4ef225248a30b167|268=1|279=1|269=1|55=CLP DTTC CURNCY|270=614.3|271=0|290=1|10=125|
20150504-12:42:58.791: 8=FIX.4.4|9=138|35=X|34=282|49=MDFHBLP|52=20150504-12:42:58.781|56=ALGOARBADR5|262=-4ef225248a30b167|268=1|279=1|269=5|55=CLP DTTC CURNCY|270=614.2|290=1|10=124|
20150504-12:43:01.278: 8=FIX.4.4|9=145|35=X|34=283|49=MDFHBLP|52=20150504-12:43:01.270|56=ALGOARBADR5|262=-4ef225248a30b167|268=1|279=1|269=0|55=CLP DTTC CURNCY|270=614.05|271=0|290=1|10=159|
20150504-12:43:01.279: 8=FIX.4.4|9=139|35=X|34=284|49=MDFHBLP|52=20150504-12:43:01.270|56=ALGOARBADR5|262=-4ef225248a30b167|268=1|279=1|269=5|55=CLP DTTC CURNCY|270=614.18|290=1|10=164|
20150504-12:43:01.584: 8=FIX.4.4|9=145|35=X|34=285|49=MDFHBLP|52=20150504-12:43:01.575|56=ALGOARBADR5|262=-4ef225248a30b167|268=1|279=1|269=0|55=CLP DTTC CURNCY|270=614.01|271=0|290=1|10=165|
20150504-12:43:01.585: 8=FIX.4.4|9=139|35=X|34=286|49=MDFHBLP|52=20150504-12:43:01.576|56=ALGOARBADR5|262=-4ef225248a30b167|268=1|279=1|269=5|55=CLP DTTC CURNCY|270=614.16|290=1|10=173|
20150504-12:43:11.028: 8=FIX.4.4|9=145|35=X|34=287|49=MDFHBLP|52=20150504-12:43:11.019|56=ALGOARBADR5|262=-4ef225248a30b167|268=1|279=1|269=1|55=CLP DTTC CURNCY|270=614.25|271=0|290=1|10=168|
20150504-12:43:11.029: 8=FIX.4.4|9=139|35=X|34=288|49=MDFHBLP|52=20150504-12:43:11.020|56=ALGOARBADR5|262=-4ef225248a30b167|268=1|279=1|269=5|55=CLP DTTC CURNCY|270=614.13|290=1|10=157|
20150504-12:43:12.294: 8=FIX.4.4|9=145|35=X|34=289|49=MDFHBLP|52=20150504-12:43:12.285|56=ALGOARBADR5|262=-4ef225248a30b167|268=1|279=1|269=0|55=CLP DTTC CURNCY|270=613.95|271=0|290=1|10=181|
20150504-12:43:12.295: 8=FIX.4.4|9=138|35=X|34=290|49=MDFHBLP|52=20150504-12:43:12.286|56=ALGOARBADR5|262=-4ef225248a30b167|268=1|279=1|269=5|55=CLP DTTC CURNCY|270=614.1|290=1|10=113|
20150504-12:43:13.954: 8=FIX.4.4|9=62|35=0|34=15|49=ALGOARBADR5|52=20150504-12:43:13.954|56=MDFHBLP|10=011|
20150504-12:43:14.149: 8=FIX.4.4|9=144|35=X|34=291|49=MDFHBLP|52=20150504-12:43:14.142|56=ALGOARBADR5|262=-4ef225248a30b167|268=1|279=1|269=1|55=CLP DTTC CURNCY|270=614.2|271=0|290=1|10=109|
20150504-12:43:14.150: 8=FIX.4.4|9=139|35=X|34=292|49=MDFHBLP|52=20150504-12:43:14.142|56=ALGOARBADR5|262=-4ef225248a30b167|268=1|279=1|269=5|55=CLP DTTC CURNCY|270=614.07|290=1|10=163|
20150504-12:43:15.045: 8=FIX.4.4|9=145|35=X|34=293|49=MDFHBLP|52=20150504-12:43:15.037|56=ALGOARBADR5|262=-4ef225248a30b167|268=1|279=1|269=0|55=CLP DTTC CURNCY|270=613.92|271=0|290=1|10=171|
20150504-12:43:15.045: 8=FIX.4.4|9=139|35=X|34=294|49=MDFHBLP|52=20150504-12:43:15.037|56=ALGOARBADR5|262=-4ef225248a30b167|268=1|279=1|269=5|55=CLP DTTC CURNCY|270=614.06|290=1|10=168|
20150504-12:43:15.193: 8=FIX.4.4|9=142|35=X|34=295|49=MDFHBLP|52=20150504-12:43:15.185|56=ALGOARBADR5|262=-4ef225248a30b167|268=1|279=1|269=0|55=CLP DTTC CURNCY|270=614|271=0|290=1|10=022|
20150504-12:43:15.194: 8=FIX.4.4|9=138|35=X|34=296|49=MDFHBLP|52=20150504-12:43:15.186|56=ALGOARBADR5|262=-4ef225248a30b167|268=1|279=1|269=5|55=CLP DTTC CURNCY|270=614.1|290=1|10=121|
20150504-12:43:17.947: 8=FIX.4.4|9=145|35=X|34=297|49=MDFHBLP|52=20150504-12:43:17.939|56=ALGOARBADR5|262=-4ef225248a30b167|268=1|279=1|269=1|55=CLP DTTC CURNCY|270=614.15|271=0|290=1|10=185|
20150504-12:43:17.948: 8=FIX.4.4|9=139|35=X|34=298|49=MDFHBLP|52=20150504-12:43:17.940|56=ALGOARBADR5|262=-4ef225248a30b167|268=1|279=1|269=5|55=CLP DTTC CURNCY|270=614.07|290=1|10=178|
20150504-12:43:30.772: 8=FIX.4.4|9=144|35=X|34=299|49=MDFHBLP|52=20150504-12:43:30.764|56=ALGOARBADR5|262=-4ef225248a30b167|268=1|279=1|269=1|55=CLP DTTC CURNCY|270=614.2|271=0|290=1|10=125|
20150504-12:43:30.772: 8=FIX.4.4|9=138|35=X|34=300|49=MDFHBLP|52=20150504-12:43:30.764|56=ALGOARBADR5|262=-4ef225248a30b167|268=1|279=1|269=5|55=CLP DTTC CURNCY|270=614.1|290=1|10=106|
20150504-12:43:42.740: 8=FIX.4.4|9=145|35=X|34=301|49=MDFHBLP|52=20150504-12:43:42.733|56=ALGOARBADR5|262=-4ef225248a30b167|268=1|279=1|269=0|55=CLP DTTC CURNCY|270=614.05|271=0|290=1|10=159|
20150504-12:43:42.741: 8=FIX.4.4|9=139|35=X|34=302|49=MDFHBLP|52=20150504-12:43:42.733|56=ALGOARBADR5|262=-4ef225248a30b167|268=1|279=1|269=5|55=CLP DTTC CURNCY|270=614.13|290=1|10=159|
20150504-12:43:43.473: 8=FIX.4.4|9=145|35=X|34=303|49=MDFHBLP|52=20150504-12:43:43.466|56=ALGOARBADR5|262=-4ef225248a30b167|268=1|279=1|269=1|55=CLP DTTC CURNCY|270=614.29|271=0|290=1|10=172|
20150504-12:43:43.475: 8=FIX.4.4|9=139|35=X|34=304|49=MDFHBLP|52=20150504-12:43:43.467|56=ALGOARBADR5|262=-4ef225248a30b167|268=1|279=1|269=5|55=CLP DTTC CURNCY|270=614.17|290=1|10=170|
20150504-12:43:46.362: 8=FIX.4.4|9=142|35=X|34=305|49=MDFHBLP|52=20150504-12:43:46.355|56=ALGOARBADR5|262=-4ef225248a30b167|268=1|279=1|269=1|55=CLP DTTC CURNCY|270=614|271=0|290=1|10=018|
20150504-12:43:46.363: 8=FIX.4.4|9=139|35=X|34=306|49=MDFHBLP|52=20150504-12:43:46.355|56=ALGOARBADR5|262=-4ef225248a30b167|268=1|279=1|269=5|55=CLP DTTC CURNCY|270=614.03|290=1|10=166|
20150504-12:43:49.676: 8=FIX.4.4|9=142|35=X|34=307|49=MDFHBLP|52=20150504-12:43:49.669|56=ALGOARBADR5|262=-4ef225248a30b167|268=1|279=1|269=0|55=CLP DTTC CURNCY|270=614|271=0|290=1|10=030|
20150504-12:43:49.677: 8=FIX.4.4|9=136|35=X|34=308|49=MDFHBLP|52=20150504-12:43:49.669|56=ALGOARBADR5|262=-4ef225248a30b167|268=1|279=1|269=5|55=CLP DTTC CURNCY|270=614|290=1|10=031|
20150504-12:43:51.708: 8=FIX.4.4|9=145|35=X|34=309|49=MDFHBLP|52=20150504-12:43:51.699|56=ALGOARBADR5|262=-4ef225248a30b167|268=1|279=1|269=0|55=CLP DTTC CURNCY|270=613.96|271=0|290=1|10=187|
20150504-12:43:51.709: 8=FIX.4.4|9=139|35=X|34=310|49=MDFHBLP|52=20150504-12:43:51.701|56=ALGOARBADR5|262=-4ef225248a30b167|268=1|279=1|269=5|55=CLP DTTC CURNCY|270=613.98|290=1|10=165|
20150504-12:43:55.427: 8=FIX.4.4|9=144|35=X|34=311|49=MDFHBLP|52=20150504-12:43:55.421|56=ALGOARBADR5|262=-4ef225248a30b167|268=1|279=1|269=0|55=CLP DTTC CURNCY|270=613.9|271=0|290=1|10=112|
20150504-12:43:55.429: 8=FIX.4.4|9=139|35=X|34=312|49=MDFHBLP|52=20150504-12:43:55.421|56=ALGOARBADR5|262=-4ef225248a30b167|268=1|279=1|269=5|55=CLP DTTC CURNCY|270=613.95|290=1|10=167|
20150504-12:44:07.387: 8=FIX.4.4|9=145|35=X|34=313|49=MDFHBLP|52=20150504-12:44:07.374|56=ALGOARBADR5|262=-4ef225248a30b167|268=1|279=1|269=0|55=CLP DTTC CURNCY|270=613.85|271=0|290=1|10=172|
20150504-12:44:07.387: 8=FIX.4.4|9=139|35=X|34=314|49=MDFHBLP|52=20150504-12:44:07.374|56=ALGOARBADR5|262=-4ef225248a30b167|268=1|279=1|269=5|55=CLP DTTC CURNCY|270=613.93|290=1|10=172|
20150504-12:44:09.270: 8=FIX.4.4|9=145|35=X|34=315|49=MDFHBLP|52=20150504-12:44:09.263|56=ALGOARBADR5|262=-4ef225248a30b167|268=1|279=1|269=0|55=CLP DTTC CURNCY|270=613.86|271=0|290=1|10=174|
20150504-12:44:09.271: 8=FIX.4.4|9=139|35=X|34=316|49=MDFHBLP|52=20150504-12:44:09.263|56=ALGOARBADR5|262=-4ef225248a30b167|268=1|279=1|269=5|55=CLP DTTC CURNCY|270=613.93|290=1|10=173|
20150504-12:44:13.536: 8=FIX.4.4|9=145|35=X|34=317|49=MDFHBLP|52=20150504-12:44:13.529|56=ALGOARBADR5|262=-4ef225248a30b167|268=1|279=1|269=0|55=CLP DTTC CURNCY|270=613.76|271=0|290=1|10=175|
20150504-12:44:13.537: 8=FIX.4.4|9=139|35=X|34=318|49=MDFHBLP|52=20150504-12:44:13.530|56=ALGOARBADR5|262=-4ef225248a30b167|268=1|279=1|269=5|55=CLP DTTC CURNCY|270=613.88|290=1|10=171|
20150504-12:44:13.537: 8=FIX.4.4|9=139|35=X|34=319|49=MDFHBLP|52=20150504-12:44:13.531|56=ALGOARBADR5|262=-4ef225248a30b167|268=1|279=1|269=5|55=CLP DTTC CURNCY|270=613.88|290=1|10=173|
20150504-12:44:13.538: 8=FIX.4.4|9=145|35=X|34=320|49=MDFHBLP|52=20150504-12:44:13.532|56=ALGOARBADR5|262=-4ef225248a30b167|268=1|279=1|269=0|55=CLP DTTC CURNCY|270=613.85|271=0|290=1|10=163|
20150504-12:44:13.539: 8=FIX.4.4|9=145|35=X|34=321|49=MDFHBLP|52=20150504-12:44:13.533|56=ALGOARBADR5|262=-4ef225248a30b167|268=1|279=1|269=0|55=CLP DTTC CURNCY|270=613.85|271=0|290=1|10=165|
20150504-12:44:13.540: 8=FIX.4.4|9=139|35=X|34=322|49=MDFHBLP|52=20150504-12:44:13.534|56=ALGOARBADR5|262=-4ef225248a30b167|268=1|279=1|269=5|55=CLP DTTC CURNCY|270=613.93|290=1|10=166|
20150504-12:44:13.954: 8=FIX.4.4|9=62|35=0|34=16|49=ALGOARBADR5|52=20150504-12:44:13.954|56=MDFHBLP|10=013|
20150504-12:44:30.957: 8=FIX.4.4|9=145|35=X|34=323|49=MDFHBLP|52=20150504-12:44:30.950|56=ALGOARBADR5|262=-4ef225248a30b167|268=1|279=1|269=1|55=CLP DTTC CURNCY|270=613.99|271=0|290=1|10=175|
20150504-12:44:30.958: 8=FIX.4.4|9=139|35=X|34=324|49=MDFHBLP|52=20150504-12:44:30.951|56=ALGOARBADR5|262=-4ef225248a30b167|268=1|279=1|269=5|55=CLP DTTC CURNCY|270=613.92|290=1|10=169|
20150504-12:45:03.259: 8=FIX.4.4|9=145|35=X|34=325|49=MDFHBLP|52=20150504-12:45:03.254|56=ALGOARBADR5|262=-4ef225248a30b167|268=1|279=1|269=0|55=CLP DTTC CURNCY|270=613.87|271=0|290=1|10=171|
20150504-12:45:03.260: 8=FIX.4.4|9=139|35=X|34=326|49=MDFHBLP|52=20150504-12:45:03.254|56=ALGOARBADR5|262=-4ef225248a30b167|268=1|279=1|269=5|55=CLP DTTC CURNCY|270=613.93|290=1|10=169|
20150504-12:45:05.970: 8=FIX.4.4|9=145|35=X|34=327|49=MDFHBLP|52=20150504-12:45:05.965|56=ALGOARBADR5|262=-4ef225248a30b167|268=1|279=1|269=1|55=CLP DTTC CURNCY|270=614.15|271=0|290=1|10=177|
20150504-12:45:05.971: 8=FIX.4.4|9=139|35=X|34=328|49=MDFHBLP|52=20150504-12:45:05.965|56=ALGOARBADR5|262=-4ef225248a30b167|268=1|279=1|269=5|55=CLP DTTC CURNCY|270=614.01|290=1|10=172|
20150504-12:45:06.124: 8=FIX.4.4|9=145|35=X|34=329|49=MDFHBLP|52=20150504-12:45:06.118|56=ALGOARBADR5|262=-4ef225248a30b167|268=1|279=1|269=1|55=CLP DTTC CURNCY|270=614.29|271=0|290=1|10=175|
20150504-12:45:06.124: 8=FIX.4.4|9=139|35=X|34=330|49=MDFHBLP|52=20150504-12:45:06.119|56=ALGOARBADR5|262=-4ef225248a30b167|268=1|279=1|269=5|55=CLP DTTC CURNCY|270=614.08|290=1|10=164|
20150504-12:45:11.998: 8=FIX.4.4|9=144|35=X|34=331|49=MDFHBLP|52=20150504-12:45:11.993|56=ALGOARBADR5|262=-4ef225248a30b167|268=1|279=1|269=0|55=CLP DTTC CURNCY|270=613.9|271=0|290=1|10=122|
20150504-12:45:12.000: 8=FIX.4.4|9=139|35=X|34=332|49=MDFHBLP|52=20150504-12:45:11.993|56=ALGOARBADR5|262=-4ef225248a30b167|268=1|279=1|269=5|55=CLP DTTC CURNCY|270=614.09|290=1|10=173|
20150504-12:45:12.001: 8=FIX.4.4|9=144|35=X|34=333|49=MDFHBLP|52=20150504-12:45:11.995|56=ALGOARBADR5|262=-4ef225248a30b167|268=1|279=1|269=1|55=CLP DTTC CURNCY|270=614.2|271=0|290=1|10=121|
20150504-12:45:12.002: 8=FIX.4.4|9=139|35=X|34=334|49=MDFHBLP|52=20150504-12:45:11.996|56=ALGOARBADR5|262=-4ef225248a30b167|268=1|279=1|269=5|55=CLP DTTC CURNCY|270=614.05|290=1|10=174|
20150504-12:45:14.350: 8=FIX.4.4|9=145|35=X|34=335|49=MDFHBLP|52=20150504-12:45:14.345|56=ALGOARBADR5|262=-4ef225248a30b167|268=1|279=1|269=0|55=CLP DTTC CURNCY|270=613.95|271=0|290=1|10=174|
20150504-12:45:14.351: 8=FIX.4.4|9=139|35=X|34=336|49=MDFHBLP|52=20150504-12:45:14.346|56=ALGOARBADR5|262=-4ef225248a30b167|268=1|279=1|269=5|55=CLP DTTC CURNCY|270=614.07|290=1|10=170|
20150504-12:45:14.353: 8=FIX.4.4|9=62|35=0|34=17|49=ALGOARBADR5|52=20150504-12:45:14.352|56=MDFHBLP|10=008|
20150504-12:45:17.774: 8=FIX.4.4|9=142|35=X|34=337|49=MDFHBLP|52=20150504-12:45:17.769|56=ALGOARBADR5|262=-4ef225248a30b167|268=1|279=1|269=0|55=CLP DTTC CURNCY|270=614|271=0|290=1|10=031|
20150504-12:45:17.775: 8=FIX.4.4|9=138|35=X|34=338|49=MDFHBLP|52=20150504-12:45:17.770|56=ALGOARBADR5|262=-4ef225248a30b167|268=1|279=1|269=5|55=CLP DTTC CURNCY|270=614.1|290=1|10=121|
20150504-12:45:20.601: 8=FIX.4.4|9=144|35=X|34=339|49=MDFHBLP|52=20150504-12:45:20.595|56=ALGOARBADR5|262=-4ef225248a30b167|268=1|279=1|269=1|55=CLP DTTC CURNCY|270=614.1|271=0|290=1|10=122|
20150504-12:45:20.602: 8=FIX.4.4|9=139|35=X|34=340|49=MDFHBLP|52=20150504-12:45:20.596|56=ALGOARBADR5|262=-4ef225248a30b167|268=1|279=1|269=5|55=CLP DTTC CURNCY|270=614.05|290=1|10=167|
20150504-12:45:21.989: 8=FIX.4.4|9=144|35=X|34=341|49=MDFHBLP|52=20150504-12:45:21.984|56=ALGOARBADR5|262=-4ef225248a30b167|268=1|279=1|269=1|55=CLP DTTC CURNCY|270=614.2|271=0|290=1|10=119|
20150504-12:45:21.991: 8=FIX.4.4|9=138|35=X|34=342|49=MDFHBLP|52=20150504-12:45:21.985|56=ALGOARBADR5|262=-4ef225248a30b167|268=1|279=1|269=5|55=CLP DTTC CURNCY|270=614.1|290=1|10=119|
20150504-12:45:26.726: 8=FIX.4.4|9=145|35=X|34=343|49=MDFHBLP|52=20150504-12:45:26.720|56=ALGOARBADR5|262=-4ef225248a30b167|268=1|279=1|269=0|55=CLP DTTC CURNCY|270=613.95|271=0|290=1|10=173|
20150504-12:45:26.727: 8=FIX.4.4|9=139|35=X|34=344|49=MDFHBLP|52=20150504-12:45:26.721|56=ALGOARBADR5|262=-4ef225248a30b167|268=1|279=1|269=5|55=CLP DTTC CURNCY|270=614.05|290=1|10=167|
20150504-12:45:26.728: 8=FIX.4.4|9=145|35=X|34=345|49=MDFHBLP|52=20150504-12:45:26.722|56=ALGOARBADR5|262=-4ef225248a30b167|268=1|279=1|269=1|55=CLP DTTC CURNCY|270=614.15|271=0|290=1|10=171|
20150504-12:45:26.729: 8=FIX.4.4|9=139|35=X|34=346|49=MDFHBLP|52=20150504-12:45:26.722|56=ALGOARBADR5|262=-4ef225248a30b167|268=1|279=1|269=5|55=CLP DTTC CURNCY|270=614.05|290=1|10=170|
20150504-12:45:27.336: 8=FIX.4.4|9=144|35=X|34=347|49=MDFHBLP|52=20150504-12:45:27.331|56=ALGOARBADR5|262=-4ef225248a30b167|268=1|279=1|269=1|55=CLP DTTC CURNCY|270=614.2|271=0|290=1|10=117|
20150504-12:45:27.337: 8=FIX.4.4|9=139|35=X|34=348|49=MDFHBLP|52=20150504-12:45:27.331|56=ALGOARBADR5|262=-4ef225248a30b167|268=1|279=1|269=5|55=CLP DTTC CURNCY|270=614.07|290=1|10=171|
20150504-12:45:31.116: 8=FIX.4.4|9=142|35=X|34=349|49=MDFHBLP|52=20150504-12:45:31.110|56=ALGOARBADR5|262=-4ef225248a30b167|268=1|279=1|269=0|55=CLP DTTC CURNCY|270=614|271=0|290=1|10=010|
20150504-12:45:31.117: 8=FIX.4.4|9=138|35=X|34=350|49=MDFHBLP|52=20150504-12:45:31.111|56=ALGOARBADR5|262=-4ef225248a30b167|268=1|279=1|269=5|55=CLP DTTC CURNCY|270=614.1|290=1|10=100|
20150504-12:45:31.928: 8=FIX.4.4|9=145|35=X|34=351|49=MDFHBLP|52=20150504-12:45:31.923|56=ALGOARBADR5|262=-4ef225248a30b167|268=1|279=1|269=1|55=CLP DTTC CURNCY|270=614.15|271=0|290=1|10=167|
20150504-12:45:31.929: 8=FIX.4.4|9=139|35=X|34=352|49=MDFHBLP|52=20150504-12:45:31.924|56=ALGOARBADR5|262=-4ef225248a30b167|268=1|279=1|269=5|55=CLP DTTC CURNCY|270=614.07|290=1|10=169|
20150504-12:45:33.505: 8=FIX.4.4|9=144|35=X|34=353|49=MDFHBLP|52=20150504-12:45:33.500|56=ALGOARBADR5|262=-4ef225248a30b167|268=1|279=1|269=1|55=CLP DTTC CURNCY|270=614.2|271=0|290=1|10=109|
20150504-12:45:33.506: 8=FIX.4.4|9=138|35=X|34=354|49=MDFHBLP|52=20150504-12:45:33.501|56=ALGOARBADR5|262=-4ef225248a30b167|268=1|279=1|269=5|55=CLP DTTC CURNCY|270=614.1|290=1|10=109|
20150504-12:45:35.473: 8=FIX.4.4|9=145|35=X|34=355|49=MDFHBLP|52=20150504-12:45:35.469|56=ALGOARBADR5|262=-4ef225248a30b167|268=1|279=1|269=1|55=CLP DTTC CURNCY|270=614.23|271=0|290=1|10=179|
20150504-12:45:35.474: 8=FIX.4.4|9=139|35=X|34=356|49=MDFHBLP|52=20150504-12:45:35.470|56=ALGOARBADR5|262=-4ef225248a30b167|268=1|279=1|269=5|55=CLP DTTC CURNCY|270=614.11|290=1|10=168|
20150504-12:45:39.085: 8=FIX.4.4|9=145|35=X|34=357|49=MDFHBLP|52=20150504-12:45:39.080|56=ALGOARBADR5|262=-4ef225248a30b167|268=1|279=1|269=1|55=CLP DTTC CURNCY|270=614.22|271=0|290=1|10=173|
20150504-12:45:39.086: 8=FIX.4.4|9=139|35=X|34=358|49=MDFHBLP|52=20150504-12:45:39.081|56=ALGOARBADR5|262=-4ef225248a30b167|268=1|279=1|269=5|55=CLP DTTC CURNCY|270=614.11|290=1|10=172|
20150504-12:45:39.540: 8=FIX.4.4|9=144|35=X|34=359|49=MDFHBLP|52=20150504-12:45:39.535|56=ALGOARBADR5|262=-4ef225248a30b167|268=1|279=1|269=1|55=CLP DTTC CURNCY|270=614.2|271=0|290=1|10=129|
20150504-12:45:39.541: 8=FIX.4.4|9=138|35=X|34=360|49=MDFHBLP|52=20150504-12:45:39.536|56=ALGOARBADR5|262=-4ef225248a30b167|268=1|279=1|269=5|55=CLP DTTC CURNCY|270=614.1|290=1|10=120|
20150504-12:45:45.867: 8=FIX.4.4|9=145|35=X|34=361|49=MDFHBLP|52=20150504-12:45:45.863|56=ALGOARBADR5|262=-4ef225248a30b167|268=1|279=1|269=0|55=CLP DTTC CURNCY|270=614.05|271=0|290=1|10=174|
20150504-12:45:45.868: 8=FIX.4.4|9=139|35=X|34=362|49=MDFHBLP|52=20150504-12:45:45.864|56=ALGOARBADR5|262=-4ef225248a30b167|268=1|279=1|269=5|55=CLP DTTC CURNCY|270=614.13|290=1|10=175|
20150504-12:45:47.117: 8=FIX.4.4|9=144|35=X|34=363|49=MDFHBLP|52=20150504-12:45:47.113|56=ALGOARBADR5|262=-4ef225248a30b167|268=1|279=1|269=0|55=CLP DTTC CURNCY|270=614.1|271=0|290=1|10=113|
20150504-12:45:47.118: 8=FIX.4.4|9=139|35=X|34=364|49=MDFHBLP|52=20150504-12:45:47.114|56=ALGOARBADR5|262=-4ef225248a30b167|268=1|279=1|269=5|55=CLP DTTC CURNCY|270=614.15|290=1|10=169|
20150504-12:45:47.425: 8=FIX.4.4|9=145|35=X|34=365|49=MDFHBLP|52=20150504-12:45:47.421|56=ALGOARBADR5|262=-4ef225248a30b167|268=1|279=1|269=0|55=CLP DTTC CURNCY|270=614.05|271=0|290=1|10=170|
20150504-12:45:47.426: 8=FIX.4.4|9=139|35=X|34=366|49=MDFHBLP|52=20150504-12:45:47.422|56=ALGOARBADR5|262=-4ef225248a30b167|268=1|279=1|269=5|55=CLP DTTC CURNCY|270=614.13|290=1|10=171|
20150504-12:45:48.770: 8=FIX.4.4|9=145|35=X|34=367|49=MDFHBLP|52=20150504-12:45:48.766|56=ALGOARBADR5|262=-4ef225248a30b167|268=1|279=1|269=1|55=CLP DTTC CURNCY|270=614.22|271=0|290=1|10=185|
20150504-12:45:48.771: 8=FIX.4.4|9=139|35=X|34=368|49=MDFHBLP|52=20150504-12:45:48.767|56=ALGOARBADR5|262=-4ef225248a30b167|268=1|279=1|269=5|55=CLP DTTC CURNCY|270=614.14|290=1|10=187|
20150504-12:45:52.364: 8=FIX.4.4|9=144|35=X|34=369|49=MDFHBLP|52=20150504-12:45:52.360|56=ALGOARBADR5|262=-4ef225248a30b167|268=1|279=1|269=1|55=CLP DTTC CURNCY|270=614.2|271=0|290=1|10=121|
20150504-12:45:52.365: 8=FIX.4.4|9=139|35=X|34=370|49=MDFHBLP|52=20150504-12:45:52.360|56=ALGOARBADR5|262=-4ef225248a30b167|268=1|279=1|269=5|55=CLP DTTC CURNCY|270=614.13|290=1|10=163|
20150504-12:45:53.723: 8=FIX.4.4|9=144|35=X|34=371|49=MDFHBLP|52=20150504-12:45:53.720|56=ALGOARBADR5|262=-4ef225248a30b167|268=1|279=1|269=0|55=CLP DTTC CURNCY|270=614.1|271=0|290=1|10=113|
20150504-12:45:53.725: 8=FIX.4.4|9=139|35=X|34=372|49=MDFHBLP|52=20150504-12:45:53.720|56=ALGOARBADR5|262=-4ef225248a30b167|268=1|279=1|269=5|55=CLP DTTC CURNCY|270=614.15|290=1|10=168|
20150504-12:45:57.013: 8=FIX.4.4|9=145|35=X|34=373|49=MDFHBLP|52=20150504-12:45:57.008|56=ALGOARBADR5|262=-4ef225248a30b167|268=1|279=1|269=0|55=CLP DTTC CURNCY|270=614.12|271=0|290=1|10=169|
20150504-12:45:57.015: 8=FIX.4.4|9=139|35=X|34=374|49=MDFHBLP|52=20150504-12:45:57.009|56=ALGOARBADR5|262=-4ef225248a30b167|268=1|279=1|269=5|55=CLP DTTC CURNCY|270=614.16|290=1|10=175|
20150504-12:45:58.989: 8=FIX.4.4|9=145|35=X|34=375|49=MDFHBLP|52=20150504-12:45:58.985|56=ALGOARBADR5|262=-4ef225248a30b167|268=1|279=1|269=1|55=CLP DTTC CURNCY|270=614.22|271=0|290=1|10=188|
20150504-12:45:58.990: 8=FIX.4.4|9=139|35=X|34=376|49=MDFHBLP|52=20150504-12:45:58.985|56=ALGOARBADR5|262=-4ef225248a30b167|268=1|279=1|269=5|55=CLP DTTC CURNCY|270=614.17|290=1|10=192|
20150504-12:45:59.538: 8=FIX.4.4|9=145|35=X|34=377|49=MDFHBLP|52=20150504-12:45:59.534|56=ALGOARBADR5|262=-4ef225248a30b167|268=1|279=1|269=1|55=CLP DTTC CURNCY|270=614.23|271=0|290=1|10=182|
20150504-12:45:59.539: 8=FIX.4.4|9=139|35=X|34=378|49=MDFHBLP|52=20150504-12:45:59.535|56=ALGOARBADR5|262=-4ef225248a30b167|268=1|279=1|269=5|55=CLP DTTC CURNCY|270=614.18|290=1|10=187|
20150504-12:46:07.681: 8=FIX.4.4|9=145|35=X|34=379|49=MDFHBLP|52=20150504-12:46:07.677|56=ALGOARBADR5|262=-4ef225248a30b167|268=1|279=1|269=1|55=CLP DTTC CURNCY|270=614.25|271=0|290=1|10=188|
20150504-12:46:07.682: 8=FIX.4.4|9=139|35=X|34=380|49=MDFHBLP|52=20150504-12:46:07.678|56=ALGOARBADR5|262=-4ef225248a30b167|268=1|279=1|269=5|55=CLP DTTC CURNCY|270=614.19|290=1|10=183|
20150504-12:46:08.603: 8=FIX.4.4|9=144|35=X|34=381|49=MDFHBLP|52=20150504-12:46:08.599|56=ALGOARBADR5|262=-4ef225248a30b167|268=1|279=1|269=1|55=CLP DTTC CURNCY|270=614.3|271=0|290=1|10=132|
20150504-12:46:08.604: 8=FIX.4.4|9=139|35=X|34=382|49=MDFHBLP|52=20150504-12:46:08.600|56=ALGOARBADR5|262=-4ef225248a30b167|268=1|279=1|269=5|55=CLP DTTC CURNCY|270=614.21|290=1|10=164|
20150504-12:46:14.783: 8=FIX.4.4|9=145|35=X|34=383|49=MDFHBLP|52=20150504-12:46:14.780|56=ALGOARBADR5|262=-4ef225248a30b167|268=1|279=1|269=1|55=CLP DTTC CURNCY|270=614.29|271=0|290=1|10=180|
20150504-12:46:14.784: 8=FIX.4.4|9=139|35=X|34=384|49=MDFHBLP|52=20150504-12:46:14.781|56=ALGOARBADR5|262=-4ef225248a30b167|268=1|279=1|269=5|55=CLP DTTC CURNCY|270=614.21|290=1|10=173|
20150504-12:46:14.786: 8=FIX.4.4|9=62|35=0|34=18|49=ALGOARBADR5|52=20150504-12:46:14.785|56=MDFHBLP|10=020|
20150504-12:46:24.196: 8=FIX.4.4|9=144|35=X|34=385|49=MDFHBLP|52=20150504-12:46:24.192|56=ALGOARBADR5|262=-4ef225248a30b167|268=1|279=1|269=0|55=CLP DTTC CURNCY|270=614.2|271=0|290=1|10=121|
20150504-12:46:24.197: 8=FIX.4.4|9=139|35=X|34=386|49=MDFHBLP|52=20150504-12:46:24.193|56=ALGOARBADR5|262=-4ef225248a30b167|268=1|279=1|269=5|55=CLP DTTC CURNCY|270=614.25|290=1|10=177|
20150504-12:46:25.300: 8=FIX.4.4|9=144|35=X|34=387|49=MDFHBLP|52=20150504-12:46:25.297|56=ALGOARBADR5|262=-4ef225248a30b167|268=1|279=1|269=1|55=CLP DTTC CURNCY|270=614.3|271=0|290=1|10=132|
20150504-12:46:25.302: 8=FIX.4.4|9=139|35=X|34=388|49=MDFHBLP|52=20150504-12:46:25.299|56=ALGOARBADR5|262=-4ef225248a30b167|268=1|279=1|269=5|55=CLP DTTC CURNCY|270=614.25|290=1|10=187|
20150504-12:47:02.949: 8=FIX.4.4|9=145|35=X|34=389|49=MDFHBLP|52=20150504-12:47:02.946|56=ALGOARBADR5|262=-4ef225248a30b167|268=1|279=1|269=0|55=CLP DTTC CURNCY|270=614.25|271=0|290=1|10=183|
20150504-12:47:02.951: 8=FIX.4.4|9=139|35=X|34=390|49=MDFHBLP|52=20150504-12:47:02.948|56=ALGOARBADR5|262=-4ef225248a30b167|268=1|279=1|269=5|55=CLP DTTC CURNCY|270=614.28|290=1|10=180|
20150504-12:47:04.568: 8=FIX.4.4|9=144|35=X|34=391|49=MDFHBLP|52=20150504-12:47:04.565|56=ALGOARBADR5|262=-4ef225248a30b167|268=1|279=1|269=0|55=CLP DTTC CURNCY|270=614.2|271=0|290=1|10=121|
20150504-12:47:04.569: 8=FIX.4.4|9=139|35=X|34=392|49=MDFHBLP|52=20150504-12:47:04.567|56=ALGOARBADR5|262=-4ef225248a30b167|268=1|279=1|269=5|55=CLP DTTC CURNCY|270=614.25|290=1|10=178|
20150504-12:47:14.954: 8=FIX.4.4|9=62|35=0|34=19|49=ALGOARBADR5|52=20150504-12:47:14.954|56=MDFHBLP|10=020|
20150504-12:48:05.434: 8=FIX.4.4|9=63|35=0|34=393|49=MDFHBLP|52=20150504-12:48:05.433|56=ALGOARBADR5|10=067|
20150504-12:48:15.954: 8=FIX.4.4|9=62|35=0|34=20|49=ALGOARBADR5|52=20150504-12:48:15.953|56=MDFHBLP|10=013|
20150504-12:48:24.318: 8=FIX.4.4|9=145|35=X|34=394|49=MDFHBLP|52=20150504-12:48:24.317|56=ALGOARBADR5|262=-4ef225248a30b167|268=1|279=1|269=0|55=CLP DTTC CURNCY|270=614.25|271=0|290=1|10=176|
20150504-12:48:24.318: 8=FIX.4.4|9=139|35=X|34=395|49=MDFHBLP|52=20150504-12:48:24.319|56=ALGOARBADR5|262=-4ef225248a30b167|268=1|279=1|269=5|55=CLP DTTC CURNCY|270=614.28|290=1|10=182|
20150504-12:48:29.317: 8=FIX.4.4|9=145|35=X|34=396|49=MDFHBLP|52=20150504-12:48:29.317|56=ALGOARBADR5|262=-4ef225248a30b167|268=1|279=1|269=1|55=CLP DTTC CURNCY|270=614.35|271=0|290=1|10=185|
20150504-12:48:29.319: 8=FIX.4.4|9=138|35=X|34=397|49=MDFHBLP|52=20150504-12:48:29.318|56=ALGOARBADR5|262=-4ef225248a30b167|268=1|279=1|269=5|55=CLP DTTC CURNCY|270=614.3|290=1|10=132|
20150504-12:48:29.738: 8=FIX.4.4|9=144|35=X|34=398|49=MDFHBLP|52=20150504-12:48:29.738|56=ALGOARBADR5|262=-4ef225248a30b167|268=1|279=1|269=0|55=CLP DTTC CURNCY|270=614.2|271=0|290=1|10=138|
20150504-12:48:29.739: 8=FIX.4.4|9=139|35=X|34=399|49=MDFHBLP|52=20150504-12:48:29.739|56=ALGOARBADR5|262=-4ef225248a30b167|268=1|279=1|269=5|55=CLP DTTC CURNCY|270=614.28|290=1|10=197|
20150504-12:48:30.052: 8=FIX.4.4|9=144|35=X|34=400|49=MDFHBLP|52=20150504-12:48:30.052|56=ALGOARBADR5|262=-4ef225248a30b167|268=1|279=1|269=1|55=CLP DTTC CURNCY|270=614.4|271=0|290=1|10=106|
20150504-12:48:30.053: 8=FIX.4.4|9=138|35=X|34=401|49=MDFHBLP|52=20150504-12:48:30.053|56=ALGOARBADR5|262=-4ef225248a30b167|268=1|279=1|269=5|55=CLP DTTC CURNCY|270=614.3|290=1|10=106|
20150504-12:48:36.446: 8=FIX.4.4|9=144|35=X|34=402|49=MDFHBLP|52=20150504-12:48:36.446|56=ALGOARBADR5|262=-4ef225248a30b167|268=1|279=1|269=0|55=CLP DTTC CURNCY|270=614.3|271=0|290=1|10=119|
20150504-12:48:36.448: 8=FIX.4.4|9=139|35=X|34=403|49=MDFHBLP|52=20150504-12:48:36.448|56=ALGOARBADR5|262=-4ef225248a30b167|268=1|279=1|269=5|55=CLP DTTC CURNCY|270=614.35|290=1|10=176|
20150504-12:48:46.935: 8=FIX.4.4|9=145|35=X|34=404|49=MDFHBLP|52=20150504-12:48:46.936|56=ALGOARBADR5|262=-4ef225248a30b167|268=1|279=1|269=1|55=CLP DTTC CURNCY|270=614.43|271=0|290=1|10=180|
20150504-12:48:46.936: 8=FIX.4.4|9=139|35=X|34=405|49=MDFHBLP|52=20150504-12:48:46.937|56=ALGOARBADR5|262=-4ef225248a30b167|268=1|279=1|269=5|55=CLP DTTC CURNCY|270=614.36|290=1|10=183|
20150504-12:48:47.366: 8=FIX.4.4|9=145|35=X|34=406|49=MDFHBLP|52=20150504-12:48:47.366|56=ALGOARBADR5|262=-4ef225248a30b167|268=1|279=1|269=1|55=CLP DTTC CURNCY|270=614.45|271=0|290=1|10=182|
20150504-12:48:47.367: 8=FIX.4.4|9=139|35=X|34=407|49=MDFHBLP|52=20150504-12:48:47.368|56=ALGOARBADR5|262=-4ef225248a30b167|268=1|279=1|269=5|55=CLP DTTC CURNCY|270=614.38|290=1|10=186|
20150504-12:48:47.525: 8=FIX.4.4|9=145|35=X|34=408|49=MDFHBLP|52=20150504-12:48:47.525|56=ALGOARBADR5|262=-4ef225248a30b167|268=1|279=1|269=1|55=CLP DTTC CURNCY|270=614.48|271=0|290=1|10=184|
20150504-12:48:47.528: 8=FIX.4.4|9=139|35=X|34=409|49=MDFHBLP|52=20150504-12:48:47.529|56=ALGOARBADR5|262=-4ef225248a30b167|268=1|279=1|269=5|55=CLP DTTC CURNCY|270=614.39|290=1|10=188|
20150504-12:48:49.615: 8=FIX.4.4|9=145|35=X|34=410|49=MDFHBLP|52=20150504-12:48:49.615|56=ALGOARBADR5|262=-4ef225248a30b167|268=1|279=1|269=1|55=CLP DTTC CURNCY|270=614.49|271=0|290=1|10=180|
20150504-12:48:49.616: 8=FIX.4.4|9=138|35=X|34=411|49=MDFHBLP|52=20150504-12:48:49.616|56=ALGOARBADR5|262=-4ef225248a30b167|268=1|279=1|269=5|55=CLP DTTC CURNCY|270=614.4|290=1|10=123|
20150504-12:48:50.153: 8=FIX.4.4|9=144|35=X|34=412|49=MDFHBLP|52=20150504-12:48:50.152|56=ALGOARBADR5|262=-4ef225248a30b167|268=1|279=1|269=1|55=CLP DTTC CURNCY|270=614.5|271=0|290=1|10=113|
20150504-12:48:50.153: 8=FIX.4.4|9=138|35=X|34=413|49=MDFHBLP|52=20150504-12:48:50.153|56=ALGOARBADR5|262=-4ef225248a30b167|268=1|279=1|269=5|55=CLP DTTC CURNCY|270=614.4|290=1|10=113|
20150504-12:48:51.069: 8=FIX.4.4|9=145|35=X|34=414|49=MDFHBLP|52=20150504-12:48:51.069|56=ALGOARBADR5|262=-4ef225248a30b167|268=1|279=1|269=1|55=CLP DTTC CURNCY|270=614.45|271=0|290=1|10=176|
20150504-12:48:51.070: 8=FIX.4.4|9=139|35=X|34=415|49=MDFHBLP|52=20150504-12:48:51.070|56=ALGOARBADR5|262=-4ef225248a30b167|268=1|279=1|269=5|55=CLP DTTC CURNCY|270=614.38|290=1|10=170|
20150504-12:48:54.387: 8=FIX.4.4|9=144|35=X|34=416|49=MDFHBLP|52=20150504-12:48:54.378|56=ALGOARBADR5|262=-4ef225248a30b167|268=1|279=1|269=1|55=CLP DTTC CURNCY|270=614.5|271=0|290=1|10=131|
20150504-12:48:54.388: 8=FIX.4.4|9=138|35=X|34=417|49=MDFHBLP|52=20150504-12:48:54.380|56=ALGOARBADR5|262=-4ef225248a30b167|268=1|279=1|269=5|55=CLP DTTC CURNCY|270=614.4|290=1|10=123|
20150504-12:48:57.741: 8=FIX.4.4|9=144|35=X|34=418|49=MDFHBLP|52=20150504-12:48:57.741|56=ALGOARBADR5|262=-4ef225248a30b167|268=1|279=1|269=1|55=CLP DTTC CURNCY|270=614.4|271=0|290=1|10=129|
20150504-12:48:57.742: 8=FIX.4.4|9=139|35=X|34=419|49=MDFHBLP|52=20150504-12:48:57.742|56=ALGOARBADR5|262=-4ef225248a30b167|268=1|279=1|269=5|55=CLP DTTC CURNCY|270=614.35|290=1|10=183|
20150504-12:48:57.903: 8=FIX.4.4|9=145|35=X|34=420|49=MDFHBLP|52=20150504-12:48:57.900|56=ALGOARBADR5|262=-4ef225248a30b167|268=1|279=1|269=1|55=CLP DTTC CURNCY|270=614.45|271=0|290=1|10=173|
20150504-12:48:57.903: 8=FIX.4.4|9=139|35=X|34=421|49=MDFHBLP|52=20150504-12:48:57.902|56=ALGOARBADR5|262=-4ef225248a30b167|268=1|279=1|269=5|55=CLP DTTC CURNCY|270=614.38|290=1|10=177|
20150504-12:48:59.054: 8=FIX.4.4|9=144|35=X|34=422|49=MDFHBLP|52=20150504-12:48:59.055|56=ALGOARBADR5|262=-4ef225248a30b167|268=1|279=1|269=1|55=CLP DTTC CURNCY|270=614.5|271=0|290=1|10=125|
20150504-12:48:59.056: 8=FIX.4.4|9=138|35=X|34=423|49=MDFHBLP|52=20150504-12:48:59.056|56=ALGOARBADR5|262=-4ef225248a30b167|268=1|279=1|269=5|55=CLP DTTC CURNCY|270=614.4|290=1|10=125|
20150504-12:49:01.275: 8=FIX.4.4|9=145|35=X|34=424|49=MDFHBLP|52=20150504-12:49:01.276|56=ALGOARBADR5|262=-4ef225248a30b167|268=1|279=1|269=1|55=CLP DTTC CURNCY|270=614.48|271=0|290=1|10=176|
20150504-12:49:01.277: 8=FIX.4.4|9=139|35=X|34=425|49=MDFHBLP|52=20150504-12:49:01.278|56=ALGOARBADR5|262=-4ef225248a30b167|268=1|279=1|269=5|55=CLP DTTC CURNCY|270=614.39|290=1|10=178|
20150504-12:49:05.697: 8=FIX.4.4|9=145|35=X|34=426|49=MDFHBLP|52=20150504-12:49:05.698|56=ALGOARBADR5|262=-4ef225248a30b167|268=1|279=1|269=1|55=CLP DTTC CURNCY|270=614.45|271=0|290=1|10=187|
20150504-12:49:05.699: 8=FIX.4.4|9=139|35=X|34=427|49=MDFHBLP|52=20150504-12:49:05.700|56=ALGOARBADR5|262=-4ef225248a30b167|268=1|279=1|269=5|55=CLP DTTC CURNCY|270=614.38|290=1|10=173|
20150504-12:49:14.086: 8=FIX.4.4|9=145|35=X|34=428|49=MDFHBLP|52=20150504-12:49:14.087|56=ALGOARBADR5|262=-4ef225248a30b167|268=1|279=1|269=0|55=CLP DTTC CURNCY|270=614.25|271=0|290=1|10=178|
20150504-12:49:14.089: 8=FIX.4.4|9=139|35=X|34=429|49=MDFHBLP|52=20150504-12:49:14.089|56=ALGOARBADR5|262=-4ef225248a30b167|268=1|279=1|269=5|55=CLP DTTC CURNCY|270=614.35|290=1|10=182|
20150504-12:49:15.954: 8=FIX.4.4|9=62|35=0|34=21|49=ALGOARBADR5|52=20150504-12:49:15.953|56=MDFHBLP|10=015|
20150504-12:49:28.305: 8=FIX.4.4|9=145|35=X|34=430|49=MDFHBLP|52=20150504-12:49:28.306|56=ALGOARBADR5|262=-4ef225248a30b167|268=1|279=1|269=0|55=CLP DTTC CURNCY|270=614.21|271=0|290=1|10=166|
20150504-12:49:28.307: 8=FIX.4.4|9=139|35=X|34=431|49=MDFHBLP|52=20150504-12:49:28.308|56=ALGOARBADR5|262=-4ef225248a30b167|268=1|279=1|269=5|55=CLP DTTC CURNCY|270=614.33|290=1|10=172|
20150504-12:49:30.935: 8=FIX.4.4|9=144|35=X|34=432|49=MDFHBLP|52=20150504-12:49:30.932|56=ALGOARBADR5|262=-4ef225248a30b167|268=1|279=1|269=0|55=CLP DTTC CURNCY|270=614.2|271=0|290=1|10=116|
20150504-12:49:30.936: 8=FIX.4.4|9=139|35=X|34=433|49=MDFHBLP|52=20150504-12:49:30.938|56=ALGOARBADR5|262=-4ef225248a30b167|268=1|279=1|269=5|55=CLP DTTC CURNCY|270=614.32|290=1|10=175|
20150504-12:49:34.198: 8=FIX.4.4|9=144|35=X|34=434|49=MDFHBLP|52=20150504-12:49:34.200|56=ALGOARBADR5|262=-4ef225248a30b167|268=1|279=1|269=1|55=CLP DTTC CURNCY|270=614.4|271=0|290=1|10=113|
20150504-12:49:34.199: 8=FIX.4.4|9=138|35=X|34=435|49=MDFHBLP|52=20150504-12:49:34.201|56=ALGOARBADR5|262=-4ef225248a30b167|268=1|279=1|269=5|55=CLP DTTC CURNCY|270=614.3|290=1|10=113|
20150504-12:49:35.760: 8=FIX.4.4|9=144|35=X|34=436|49=MDFHBLP|52=20150504-12:49:35.761|56=ALGOARBADR5|262=-4ef225248a30b167|268=1|279=1|269=1|55=CLP DTTC CURNCY|270=614.2|271=0|290=1|10=126|
20150504-12:49:35.762: 8=FIX.4.4|9=138|35=X|34=437|49=MDFHBLP|52=20150504-12:49:35.763|56=ALGOARBADR5|262=-4ef225248a30b167|268=1|279=1|269=5|55=CLP DTTC CURNCY|270=614.2|290=1|10=128|
20150504-12:49:39.074: 8=FIX.4.4|9=145|35=X|34=438|49=MDFHBLP|52=20150504-12:49:39.076|56=ALGOARBADR5|262=-4ef225248a30b167|268=1|279=1|269=0|55=CLP DTTC CURNCY|270=614.15|271=0|290=1|10=183|
20150504-12:49:39.077: 8=FIX.4.4|9=139|35=X|34=439|49=MDFHBLP|52=20150504-12:49:39.078|56=ALGOARBADR5|262=-4ef225248a30b167|268=1|279=1|269=5|55=CLP DTTC CURNCY|270=614.18|290=1|10=189|
20150504-12:49:42.657: 8=FIX.4.4|9=144|35=X|34=440|49=MDFHBLP|52=20150504-12:49:42.658|56=ALGOARBADR5|262=-4ef225248a30b167|268=1|279=1|269=0|55=CLP DTTC CURNCY|270=614.1|271=0|290=1|10=122|
20150504-12:49:42.659: 8=FIX.4.4|9=139|35=X|34=441|49=MDFHBLP|52=20150504-12:49:42.660|56=ALGOARBADR5|262=-4ef225248a30b167|268=1|279=1|269=5|55=CLP DTTC CURNCY|270=614.15|290=1|10=170|
20150504-12:49:43.477: 8=FIX.4.4|9=145|35=X|34=442|49=MDFHBLP|52=20150504-12:49:43.479|56=ALGOARBADR5|262=-4ef225248a30b167|268=1|279=1|269=0|55=CLP DTTC CURNCY|270=614.11|271=0|290=1|10=176|
20150504-12:49:43.479: 8=FIX.4.4|9=139|35=X|34=443|49=MDFHBLP|52=20150504-12:49:43.481|56=ALGOARBADR5|262=-4ef225248a30b167|268=1|279=1|269=5|55=CLP DTTC CURNCY|270=614.16|290=1|10=175|
20150504-12:49:56.040: 8=FIX.4.4|9=144|35=X|34=444|49=MDFHBLP|52=20150504-12:49:56.042|56=ALGOARBADR5|262=-4ef225248a30b167|268=1|279=1|269=0|55=CLP DTTC CURNCY|270=614.1|271=0|290=1|10=118|
20150504-12:49:56.042: 8=FIX.4.4|9=139|35=X|34=445|49=MDFHBLP|52=20150504-12:49:56.044|56=ALGOARBADR5|262=-4ef225248a30b167|268=1|279=1|269=5|55=CLP DTTC CURNCY|270=614.15|290=1|10=175|
20150504-12:49:56.351: 8=FIX.4.4|9=145|35=X|34=446|49=MDFHBLP|52=20150504-12:49:56.353|56=ALGOARBADR5|262=-4ef225248a30b167|268=1|279=1|269=0|55=CLP DTTC CURNCY|270=614.05|271=0|290=1|10=178|
20150504-12:49:56.353: 8=FIX.4.4|9=139|35=X|34=447|49=MDFHBLP|52=20150504-12:49:56.355|56=ALGOARBADR5|262=-4ef225248a30b167|268=1|279=1|269=5|55=CLP DTTC CURNCY|270=614.13|290=1|10=180|
20150504-12:50:09.547: 8=FIX.4.4|9=145|35=X|34=448|49=MDFHBLP|52=20150504-12:50:09.549|56=ALGOARBADR5|262=-4ef225248a30b167|268=1|279=1|269=0|55=CLP DTTC CURNCY|270=614.01|271=0|290=1|10=173|
20150504-12:50:09.549: 8=FIX.4.4|9=138|35=X|34=449|49=MDFHBLP|52=20150504-12:50:09.551|56=ALGOARBADR5|262=-4ef225248a30b167|268=1|279=1|269=5|55=CLP DTTC CURNCY|270=614.1|290=1|10=118|
20150504-12:50:11.650: 8=FIX.4.4|9=145|35=X|34=450|49=MDFHBLP|52=20150504-12:50:11.652|56=ALGOARBADR5|262=-4ef225248a30b167|268=1|279=1|269=0|55=CLP DTTC CURNCY|270=613.95|271=0|290=1|10=166|
20150504-12:50:11.651: 8=FIX.4.4|9=139|35=X|34=451|49=MDFHBLP|52=20150504-12:50:11.653|56=ALGOARBADR5|262=-4ef225248a30b167|268=1|279=1|269=5|55=CLP DTTC CURNCY|270=614.07|290=1|10=162|
20150504-12:50:13.762: 8=FIX.4.4|9=145|35=X|34=452|49=MDFHBLP|52=20150504-12:50:13.765|56=ALGOARBADR5|262=-4ef225248a30b167|268=1|279=1|269=0|55=CLP DTTC CURNCY|270=614.15|271=0|290=1|10=168|
20150504-12:50:13.763: 8=FIX.4.4|9=139|35=X|34=453|49=MDFHBLP|52=20150504-12:50:13.767|56=ALGOARBADR5|262=-4ef225248a30b167|268=1|279=1|269=5|55=CLP DTTC CURNCY|270=614.18|290=1|10=174|
20150504-12:50:15.955: 8=FIX.4.4|9=62|35=0|34=22|49=ALGOARBADR5|52=20150504-12:50:15.954|56=MDFHBLP|10=009|
20150504-12:50:19.505: 8=FIX.4.4|9=145|35=X|34=454|49=MDFHBLP|52=20150504-12:50:19.507|56=ALGOARBADR5|262=-4ef225248a30b167|268=1|279=1|269=0|55=CLP DTTC CURNCY|270=613.92|271=0|290=1|10=174|
20150504-12:50:19.506: 8=FIX.4.4|9=139|35=X|34=455|49=MDFHBLP|52=20150504-12:50:19.509|56=ALGOARBADR5|262=-4ef225248a30b167|268=1|279=1|269=5|55=CLP DTTC CURNCY|270=614.06|290=1|10=173|
20150504-12:50:19.508: 8=FIX.4.4|9=145|35=X|34=456|49=MDFHBLP|52=20150504-12:50:19.511|56=ALGOARBADR5|262=-4ef225248a30b167|268=1|279=1|269=0|55=CLP DTTC CURNCY|270=613.92|271=0|290=1|10=171|
20150504-12:50:19.511: 8=FIX.4.4|9=139|35=X|34=457|49=MDFHBLP|52=20150504-12:50:19.513|56=ALGOARBADR5|262=-4ef225248a30b167|268=1|279=1|269=5|55=CLP DTTC CURNCY|270=614.06|290=1|10=170|
20150504-12:50:19.520: 8=FIX.4.4|9=142|35=X|34=458|49=MDFHBLP|52=20150504-12:50:19.518|56=ALGOARBADR5|262=-4ef225248a30b167|268=1|279=1|269=0|55=CLP DTTC CURNCY|270=614|271=0|290=1|10=025|
20150504-12:50:19.520: 8=FIX.4.4|9=138|35=X|34=459|49=MDFHBLP|52=20150504-12:50:19.521|56=ALGOARBADR5|262=-4ef225248a30b167|268=1|279=1|269=5|55=CLP DTTC CURNCY|270=614.1|290=1|10=117|
20150504-12:50:20.291: 8=FIX.4.4|9=145|35=X|34=460|49=MDFHBLP|52=20150504-12:50:20.293|56=ALGOARBADR5|262=-4ef225248a30b167|268=1|279=1|269=1|55=CLP DTTC CURNCY|270=614.15|271=0|290=1|10=162|
20150504-12:50:20.293: 8=FIX.4.4|9=139|35=X|34=461|49=MDFHBLP|52=20150504-12:50:20.295|56=ALGOARBADR5|262=-4ef225248a30b167|268=1|279=1|269=5|55=CLP DTTC CURNCY|270=614.07|290=1|10=165|
20150504-12:50:20.685: 8=FIX.4.4|9=145|35=X|34=462|49=MDFHBLP|52=20150504-12:50:20.687|56=ALGOARBADR5|262=-4ef225248a30b167|268=1|279=1|269=0|55=CLP DTTC CURNCY|270=613.92|271=0|290=1|10=174|
20150504-12:50:20.686: 8=FIX.4.4|9=139|35=X|34=463|49=MDFHBLP|52=20150504-12:50:20.689|56=ALGOARBADR5|262=-4ef225248a30b167|268=1|279=1|269=5|55=CLP DTTC CURNCY|270=614.04|290=1|10=171|
20150504-12:50:32.821: 8=FIX.4.4|9=145|35=X|34=464|49=MDFHBLP|52=20150504-12:50:32.824|56=ALGOARBADR5|262=-4ef225248a30b167|268=1|279=1|269=0|55=CLP DTTC CURNCY|270=613.95|271=0|290=1|10=175|
20150504-12:50:32.823: 8=FIX.4.4|9=139|35=X|34=465|49=MDFHBLP|52=20150504-12:50:32.826|56=ALGOARBADR5|262=-4ef225248a30b167|268=1|279=1|269=5|55=CLP DTTC CURNCY|270=614.05|290=1|10=170|
20150504-12:50:36.122: 8=FIX.4.4|9=144|35=X|34=466|49=MDFHBLP|52=20150504-12:50:36.125|56=ALGOARBADR5|262=-4ef225248a30b167|268=1|279=1|269=1|55=CLP DTTC CURNCY|270=614.1|271=0|290=1|10=115|
20150504-12:50:36.124: 8=FIX.4.4|9=139|35=X|34=467|49=MDFHBLP|52=20150504-12:50:36.127|56=ALGOARBADR5|262=-4ef225248a30b167|268=1|279=1|269=5|55=CLP DTTC CURNCY|270=614.03|290=1|10=168|
20150504-12:50:43.274: 8=FIX.4.4|9=144|35=X|34=468|49=MDFHBLP|52=20150504-12:50:43.277|56=ALGOARBADR5|262=-4ef225248a30b167|268=1|279=1|269=1|55=CLP DTTC CURNCY|270=614.2|271=0|290=1|10=124|
20150504-12:50:43.275: 8=FIX.4.4|9=139|35=X|34=469|49=MDFHBLP|52=20150504-12:50:43.279|56=ALGOARBADR5|262=-4ef225248a30b167|268=1|279=1|269=5|55=CLP DTTC CURNCY|270=614.07|290=1|10=180|
20150504-12:50:54.767: 8=FIX.4.4|9=144|35=X|34=470|49=MDFHBLP|52=20150504-12:50:54.770|56=ALGOARBADR5|262=-4ef225248a30b167|268=1|279=1|269=1|55=CLP DTTC CURNCY|270=614.1|271=0|290=1|10=116|
20150504-12:50:54.768: 8=FIX.4.4|9=139|35=X|34=471|49=MDFHBLP|52=20150504-12:50:54.772|56=ALGOARBADR5|262=-4ef225248a30b167|268=1|279=1|269=5|55=CLP DTTC CURNCY|270=614.03|290=1|10=169|
20150504-12:51:13.653: 8=FIX.4.4|9=139|35=X|34=472|49=MDFHBLP|52=20150504-12:51:13.657|56=ALGOARBADR5|262=-4ef225248a30b167|268=1|279=1|269=5|55=CLP DTTC CURNCY|270=614.05|290=1|10=170|
20150504-12:51:13.654: 8=FIX.4.4|9=142|35=X|34=473|49=MDFHBLP|52=20150504-12:51:13.659|56=ALGOARBADR5|262=-4ef225248a30b167|268=1|279=1|269=0|55=CLP DTTC CURNCY|270=614|271=0|290=1|10=023|
20150504-12:51:15.151: 8=FIX.4.4|9=145|35=X|34=474|49=MDFHBLP|52=20150504-12:51:15.154|56=ALGOARBADR5|262=-4ef225248a30b167|268=1|279=1|269=1|55=CLP DTTC CURNCY|270=614.19|271=0|290=1|10=172|
20150504-12:51:15.152: 8=FIX.4.4|9=139|35=X|34=475|49=MDFHBLP|52=20150504-12:51:15.156|56=ALGOARBADR5|262=-4ef225248a30b167|268=1|279=1|269=5|55=CLP DTTC CURNCY|270=614.09|290=1|10=173|
20150504-12:51:16.954: 8=FIX.4.4|9=62|35=0|34=23|49=ALGOARBADR5|52=20150504-12:51:16.954|56=MDFHBLP|10=012|
20150504-12:51:21.055: 8=FIX.4.4|9=145|35=X|34=476|49=MDFHBLP|52=20150504-12:51:21.059|56=ALGOARBADR5|262=-4ef225248a30b167|268=1|279=1|269=1|55=CLP DTTC CURNCY|270=614.15|271=0|290=1|10=171|
20150504-12:51:21.057: 8=FIX.4.4|9=139|35=X|34=477|49=MDFHBLP|52=20150504-12:51:21.061|56=ALGOARBADR5|262=-4ef225248a30b167|268=1|279=1|269=5|55=CLP DTTC CURNCY|270=614.07|290=1|10=165|
20150504-12:51:33.498: 8=FIX.4.4|9=144|35=X|34=478|49=MDFHBLP|52=20150504-12:51:33.502|56=ALGOARBADR5|262=-4ef225248a30b167|268=1|279=1|269=1|55=CLP DTTC CURNCY|270=614.2|271=0|290=1|10=116|
20150504-12:51:33.499: 8=FIX.4.4|9=138|35=X|34=479|49=MDFHBLP|52=20150504-12:51:33.504|56=ALGOARBADR5|262=-4ef225248a30b167|268=1|279=1|269=5|55=CLP DTTC CURNCY|270=614.1|290=1|10=117|
20150504-12:51:34.799: 8=FIX.4.4|9=145|35=X|34=480|49=MDFHBLP|52=20150504-12:51:34.804|56=ALGOARBADR5|262=-4ef225248a30b167|268=1|279=1|269=1|55=CLP DTTC CURNCY|270=614.27|271=0|290=1|10=171|
20150504-12:51:34.801: 8=FIX.4.4|9=139|35=X|34=481|49=MDFHBLP|52=20150504-12:51:34.806|56=ALGOARBADR5|262=-4ef225248a30b167|268=1|279=1|269=5|55=CLP DTTC CURNCY|270=614.14|290=1|10=169|
20150504-12:51:34.803: 8=FIX.4.4|9=145|35=X|34=482|49=MDFHBLP|52=20150504-12:51:34.808|56=ALGOARBADR5|262=-4ef225248a30b167|268=1|279=1|269=1|55=CLP DTTC CURNCY|270=614.27|271=0|290=1|10=177|
20150504-12:51:34.805: 8=FIX.4.4|9=139|35=X|34=483|49=MDFHBLP|52=20150504-12:51:34.810|56=ALGOARBADR5|262=-4ef225248a30b167|268=1|279=1|269=5|55=CLP DTTC CURNCY|270=614.14|290=1|10=166|
20150504-12:51:36.431: 8=FIX.4.4|9=144|35=X|34=484|49=MDFHBLP|52=20150504-12:51:36.435|56=ALGOARBADR5|262=-4ef225248a30b167|268=1|279=1|269=1|55=CLP DTTC CURNCY|270=614.2|271=0|290=1|10=121|
20150504-12:51:36.432: 8=FIX.4.4|9=138|35=X|34=485|49=MDFHBLP|52=20150504-12:51:36.436|56=ALGOARBADR5|262=-4ef225248a30b167|268=1|279=1|269=5|55=CLP DTTC CURNCY|270=614.1|290=1|10=121|
20150504-12:51:49.151: 8=FIX.4.4|9=145|35=X|34=486|49=MDFHBLP|52=20150504-12:51:49.156|56=ALGOARBADR5|262=-4ef225248a30b167|268=1|279=1|269=0|55=CLP DTTC CURNCY|270=614.15|271=0|290=1|10=179|
20150504-12:51:49.155: 8=FIX.4.4|9=139|35=X|34=487|49=MDFHBLP|52=20150504-12:51:49.158|56=ALGOARBADR5|262=-4ef225248a30b167|268=1|279=1|269=5|55=CLP DTTC CURNCY|270=614.18|290=1|10=185|
20150504-12:51:49.155: 8=FIX.4.4|9=145|35=X|34=488|49=MDFHBLP|52=20150504-12:51:49.160|56=ALGOARBADR5|262=-4ef225248a30b167|268=1|279=1|269=0|55=CLP DTTC CURNCY|270=614.15|271=0|290=1|10=176|
20150504-12:51:49.157: 8=FIX.4.4|9=139|35=X|34=489|49=MDFHBLP|52=20150504-12:51:49.162|56=ALGOARBADR5|262=-4ef225248a30b167|268=1|279=1|269=5|55=CLP DTTC CURNCY|270=614.18|290=1|10=182|
20150504-12:51:50.907: 8=FIX.4.4|9=145|35=X|34=490|49=MDFHBLP|52=20150504-12:51:50.912|56=ALGOARBADR5|262=-4ef225248a30b167|268=1|279=1|269=1|55=CLP DTTC CURNCY|270=614.25|271=0|290=1|10=168|
20150504-12:51:50.909: 8=FIX.4.4|9=138|35=X|34=491|49=MDFHBLP|52=20150504-12:51:50.914|56=ALGOARBADR5|262=-4ef225248a30b167|268=1|279=1|269=5|55=CLP DTTC CURNCY|270=614.2|290=1|10=116|
20150504-12:51:51.024: 8=FIX.4.4|9=145|35=X|34=492|49=MDFHBLP|52=20150504-12:51:51.028|56=ALGOARBADR5|262=-4ef225248a30b167|268=1|279=1|269=1|55=CLP DTTC CURNCY|270=614.27|271=0|290=1|10=171|
20150504-12:51:51.026: 8=FIX.4.4|9=139|35=X|34=493|49=MDFHBLP|52=20150504-12:51:51.030|56=ALGOARBADR5|262=-4ef225248a30b167|268=1|279=1|269=5|55=CLP DTTC CURNCY|270=614.21|290=1|10=158|
20150504-12:51:55.200: 8=FIX.4.4|9=144|35=X|34=494|49=MDFHBLP|52=20150504-12:51:55.205|56=ALGOARBADR5|262=-4ef225248a30b167|268=1|279=1|269=1|55=CLP DTTC CURNCY|270=614.5|271=0|290=1|10=121|
20150504-12:51:55.202: 8=FIX.4.4|9=139|35=X|34=495|49=MDFHBLP|52=20150504-12:51:55.207|56=ALGOARBADR5|262=-4ef225248a30b167|268=1|279=1|269=5|55=CLP DTTC CURNCY|270=614.32|290=1|10=172|
20150504-12:51:56.448: 8=FIX.4.4|9=142|35=X|34=496|49=MDFHBLP|52=20150504-12:51:56.453|56=ALGOARBADR5|262=-4ef225248a30b167|268=1|279=1|269=0|55=CLP DTTC CURNCY|270=614|271=0|290=1|10=027|
20150504-12:51:56.450: 8=FIX.4.4|9=139|35=X|34=497|49=MDFHBLP|52=20150504-12:51:56.455|56=ALGOARBADR5|262=-4ef225248a30b167|268=1|279=1|269=5|55=CLP DTTC CURNCY|270=614.25|290=1|10=182|
20150504-12:51:59.152: 8=FIX.4.4|9=145|35=X|34=498|49=MDFHBLP|52=20150504-12:51:59.156|56=ALGOARBADR5|262=-4ef225248a30b167|268=1|279=1|269=0|55=CLP DTTC CURNCY|270=614.05|271=0|290=1|10=182|
20150504-12:51:59.154: 8=FIX.4.4|9=139|35=X|34=499|49=MDFHBLP|52=20150504-12:51:59.159|56=ALGOARBADR5|262=-4ef225248a30b167|268=1|279=1|269=5|55=CLP DTTC CURNCY|270=614.28|290=1|10=191|
20150504-12:52:00.291: 8=FIX.4.4|9=144|35=X|34=500|49=MDFHBLP|52=20150504-12:52:00.296|56=ALGOARBADR5|262=-4ef225248a30b167|268=1|279=1|269=1|55=CLP DTTC CURNCY|270=614.3|271=0|290=1|10=108|
20150504-12:52:00.292: 8=FIX.4.4|9=139|35=X|34=501|49=MDFHBLP|52=20150504-12:52:00.297|56=ALGOARBADR5|262=-4ef225248a30b167|268=1|279=1|269=5|55=CLP DTTC CURNCY|270=614.18|290=1|10=164|
20150504-12:52:01.900: 8=FIX.4.4|9=145|35=X|34=502|49=MDFHBLP|52=20150504-12:52:01.905|56=ALGOARBADR5|262=-4ef225248a30b167|268=1|279=1|269=0|55=CLP DTTC CURNCY|270=614.12|271=0|290=1|10=156|
20150504-12:52:01.902: 8=FIX.4.4|9=139|35=X|34=503|49=MDFHBLP|52=20150504-12:52:01.907|56=ALGOARBADR5|262=-4ef225248a30b167|268=1|279=1|269=5|55=CLP DTTC CURNCY|270=614.21|290=1|10=159|
20150504-12:52:16.954: 8=FIX.4.4|9=62|35=0|34=24|49=ALGOARBADR5|52=20150504-12:52:16.954|56=MDFHBLP|10=014|
20150504-12:52:21.279: 8=FIX.4.4|9=145|35=X|34=504|49=MDFHBLP|52=20150504-12:52:21.284|56=ALGOARBADR5|262=-4ef225248a30b167|268=1|279=1|269=0|55=CLP DTTC CURNCY|270=614.15|271=0|290=1|10=163|
20150504-12:52:21.281: 8=FIX.4.4|9=139|35=X|34=505|49=MDFHBLP|52=20150504-12:52:21.287|56=ALGOARBADR5|262=-4ef225248a30b167|268=1|279=1|269=5|55=CLP DTTC CURNCY|270=614.23|290=1|10=166|
20150504-12:52:25.417: 8=FIX.4.4|9=144|35=X|34=506|49=MDFHBLP|52=20150504-12:52:25.423|56=ALGOARBADR5|262=-4ef225248a30b167|268=1|279=1|269=0|55=CLP DTTC CURNCY|270=614.2|271=0|290=1|10=111|
20150504-12:52:25.419: 8=FIX.4.4|9=139|35=X|34=507|49=MDFHBLP|52=20150504-12:52:25.425|56=ALGOARBADR5|262=-4ef225248a30b167|268=1|279=1|269=5|55=CLP DTTC CURNCY|270=614.25|290=1|10=168|
20150504-12:52:28.276: 8=FIX.4.4|9=145|35=X|34=508|49=MDFHBLP|52=20150504-12:52:28.282|56=ALGOARBADR5|262=-4ef225248a30b167|268=1|279=1|269=0|55=CLP DTTC CURNCY|270=614.25|271=0|290=1|10=173|
20150504-12:52:28.278: 8=FIX.4.4|9=139|35=X|34=509|49=MDFHBLP|52=20150504-12:52:28.284|56=ALGOARBADR5|262=-4ef225248a30b167|268=1|279=1|269=5|55=CLP DTTC CURNCY|270=614.28|290=1|10=179|
20150504-12:52:40.275: 8=FIX.4.4|9=144|35=X|34=510|49=MDFHBLP|52=20150504-12:52:40.281|56=ALGOARBADR5|262=-4ef225248a30b167|268=1|279=1|269=0|55=CLP DTTC CURNCY|270=614.2|271=0|290=1|10=105|
20150504-12:52:40.277: 8=FIX.4.4|9=139|35=X|34=511|49=MDFHBLP|52=20150504-12:52:40.282|56=ALGOARBADR5|262=-4ef225248a30b167|268=1|279=1|269=5|55=CLP DTTC CURNCY|270=614.25|290=1|10=161|
20150504-12:52:40.918: 8=FIX.4.4|9=145|35=X|34=512|49=MDFHBLP|52=20150504-12:52:40.924|56=ALGOARBADR5|262=-4ef225248a30b167|268=1|279=1|269=0|55=CLP DTTC CURNCY|270=614.15|271=0|290=1|10=164|
