20150511-11:21:07.967: 8=FIX.4.4|9=65|35=5|34=1|49=ARDARB_XSGO_IB|52=20150511-11:21:07.965|56=AMGTOBCS|10=097|
20150511-11:21:08.018: 8=FIX.4.4|9=65|35=5|34=1|49=ARDARB_XSGO_IB|52=20150511-11:21:08.018|56=AMGTOBCS|10=087|
20150511-11:21:10.989: 8=FIX.4.4|9=83|35=A|34=1|49=ARDARB_XSGO_IB|52=20150511-11:21:10.988|56=AMGTOBCS|98=0|108=60|141=Y|10=181|
20150511-11:21:11.000: 8=FIX.4.4|9=83|35=A|34=1|49=AMGTOBCS|56=ARDARB_XSGO_IB|52=20150511-11:21:10.972|108=60|98=0|141=Y|10=174|
20150511-11:21:11.002: 8=FIX.4.4|9=76|35=1|34=2|49=AMGTOBCS|56=ARDARB_XSGO_IB|52=20150511-11:21:10.972|112=STBL-2|10=190|
20150511-11:21:11.010: 8=FIX.4.4|9=76|35=0|34=2|49=ARDARB_XSGO_IB|52=20150511-11:21:11.009|56=AMGTOBCS|112=STBL-2|10=181|
20150511-11:22:11.380: 8=FIX.4.4|9=65|35=0|34=3|49=AMGTOBCS|56=ARDARB_XSGO_IB|52=20150511-11:22:11.343|10=080|
20150511-11:22:11.382: 8=FIX.4.4|9=65|35=0|34=3|49=ARDARB_XSGO_IB|52=20150511-11:22:11.382|56=AMGTOBCS|10=083|
20150511-11:23:11.605: 8=FIX.4.4|9=65|35=0|34=4|49=AMGTOBCS|56=ARDARB_XSGO_IB|52=20150511-11:23:11.573|10=087|
20150511-11:23:11.607: 8=FIX.4.4|9=65|35=0|34=4|49=ARDARB_XSGO_IB|52=20150511-11:23:11.607|56=AMGTOBCS|10=085|
20150511-11:24:11.835: 8=FIX.4.4|9=65|35=0|34=5|49=AMGTOBCS|56=ARDARB_XSGO_IB|52=20150511-11:24:11.803|10=085|
20150511-11:24:11.838: 8=FIX.4.4|9=65|35=0|34=5|49=ARDARB_XSGO_IB|52=20150511-11:24:11.837|56=AMGTOBCS|10=092|
20150511-11:25:12.066: 8=FIX.4.4|9=65|35=0|34=6|49=AMGTOBCS|56=ARDARB_XSGO_IB|52=20150511-11:25:12.034|10=084|
20150511-11:25:12.069: 8=FIX.4.4|9=65|35=0|34=6|49=ARDARB_XSGO_IB|52=20150511-11:25:12.068|56=AMGTOBCS|10=091|
20150511-11:26:12.301: 8=FIX.4.4|9=65|35=0|34=7|49=AMGTOBCS|56=ARDARB_XSGO_IB|52=20150511-11:26:12.264|10=091|
20150511-11:26:12.304: 8=FIX.4.4|9=65|35=0|34=7|49=ARDARB_XSGO_IB|52=20150511-11:26:12.304|56=AMGTOBCS|10=086|
20150511-11:27:12.720: 8=FIX.4.4|9=65|35=0|34=8|49=AMGTOBCS|56=ARDARB_XSGO_IB|52=20150511-11:27:12.682|10=097|
20150511-11:27:12.723: 8=FIX.4.4|9=65|35=0|34=8|49=ARDARB_XSGO_IB|52=20150511-11:27:12.722|56=AMGTOBCS|10=092|
20150511-11:28:12.850: 8=FIX.4.4|9=65|35=0|34=9|49=ARDARB_XSGO_IB|52=20150511-11:28:12.849|56=AMGTOBCS|10=104|
20150511-11:28:12.946: 8=FIX.4.4|9=65|35=0|34=9|49=AMGTOBCS|56=ARDARB_XSGO_IB|52=20150511-11:28:12.912|10=095|
20150511-11:29:12.850: 8=FIX.4.4|9=66|35=0|34=10|49=ARDARB_XSGO_IB|52=20150511-11:29:12.850|56=AMGTOBCS|10=138|
20150511-11:29:13.230: 8=FIX.4.4|9=66|35=0|34=10|49=AMGTOBCS|56=ARDARB_XSGO_IB|52=20150511-11:29:13.190|10=136|
20150511-11:30:13.473: 8=FIX.4.4|9=66|35=0|34=11|49=AMGTOBCS|56=ARDARB_XSGO_IB|52=20150511-11:30:13.436|10=132|
20150511-11:30:13.476: 8=FIX.4.4|9=66|35=0|34=11|49=ARDARB_XSGO_IB|52=20150511-11:30:13.475|56=AMGTOBCS|10=135|
20150511-11:31:13.750: 8=FIX.4.4|9=66|35=0|34=12|49=AMGTOBCS|56=ARDARB_XSGO_IB|52=20150511-11:31:13.713|10=132|
20150511-11:31:13.752: 8=FIX.4.4|9=66|35=0|34=12|49=ARDARB_XSGO_IB|52=20150511-11:31:13.751|56=AMGTOBCS|10=134|
20150511-11:32:14.107: 8=FIX.4.4|9=66|35=0|34=13|49=AMGTOBCS|56=ARDARB_XSGO_IB|52=20150511-11:32:14.068|10=138|
20150511-11:32:14.109: 8=FIX.4.4|9=66|35=0|34=13|49=ARDARB_XSGO_IB|52=20150511-11:32:14.109|56=AMGTOBCS|10=134|
20150511-11:33:14.383: 8=FIX.4.4|9=66|35=0|34=14|49=AMGTOBCS|56=ARDARB_XSGO_IB|52=20150511-11:33:14.345|10=138|
20150511-11:33:14.385: 8=FIX.4.4|9=66|35=0|34=14|49=ARDARB_XSGO_IB|52=20150511-11:33:14.385|56=AMGTOBCS|10=142|
20150511-11:34:14.616: 8=FIX.4.4|9=66|35=0|34=15|49=AMGTOBCS|56=ARDARB_XSGO_IB|52=20150511-11:34:14.579|10=149|
20150511-11:34:14.618: 8=FIX.4.4|9=66|35=0|34=15|49=ARDARB_XSGO_IB|52=20150511-11:34:14.617|56=AMGTOBCS|10=142|
20150511-11:35:14.875: 8=FIX.4.4|9=66|35=0|34=16|49=AMGTOBCS|56=ARDARB_XSGO_IB|52=20150511-11:35:14.845|10=147|
20150511-11:35:14.877: 8=FIX.4.4|9=66|35=0|34=16|49=ARDARB_XSGO_IB|52=20150511-11:35:14.877|56=AMGTOBCS|10=152|
20150511-11:36:15.169: 8=FIX.4.4|9=66|35=0|34=17|49=AMGTOBCS|56=ARDARB_XSGO_IB|52=20150511-11:36:15.143|10=141|
20150511-11:36:15.171: 8=FIX.4.4|9=66|35=0|34=17|49=ARDARB_XSGO_IB|52=20150511-11:36:15.171|56=AMGTOBCS|10=142|
20150511-11:37:15.478: 8=FIX.4.4|9=66|35=0|34=18|49=AMGTOBCS|56=ARDARB_XSGO_IB|52=20150511-11:37:15.440|10=143|
20150511-11:37:15.480: 8=FIX.4.4|9=66|35=0|34=18|49=ARDARB_XSGO_IB|52=20150511-11:37:15.480|56=AMGTOBCS|10=147|
20150511-11:38:15.788: 8=FIX.4.4|9=66|35=0|34=19|49=AMGTOBCS|56=ARDARB_XSGO_IB|52=20150511-11:38:15.769|10=159|
20150511-11:38:15.790: 8=FIX.4.4|9=66|35=0|34=19|49=ARDARB_XSGO_IB|52=20150511-11:38:15.789|56=AMGTOBCS|10=161|
20150511-11:39:15.850: 8=FIX.4.4|9=66|35=0|34=20|49=ARDARB_XSGO_IB|52=20150511-11:39:15.850|56=AMGTOBCS|10=143|
20150511-11:39:16.111: 8=FIX.4.4|9=66|35=0|34=20|49=AMGTOBCS|56=ARDARB_XSGO_IB|52=20150511-11:39:16.095|10=145|
20150511-11:40:16.415: 8=FIX.4.4|9=66|35=0|34=21|49=AMGTOBCS|56=ARDARB_XSGO_IB|52=20150511-11:40:16.390|10=136|
20150511-11:40:16.417: 8=FIX.4.4|9=66|35=0|34=21|49=ARDARB_XSGO_IB|52=20150511-11:40:16.416|56=AMGTOBCS|10=135|
20150511-11:41:16.720: 8=FIX.4.4|9=66|35=0|34=22|49=AMGTOBCS|56=ARDARB_XSGO_IB|52=20150511-11:41:16.700|10=133|
20150511-11:41:16.722: 8=FIX.4.4|9=66|35=0|34=22|49=ARDARB_XSGO_IB|52=20150511-11:41:16.721|56=AMGTOBCS|10=136|
20150511-11:42:17.038: 8=FIX.4.4|9=66|35=0|34=23|49=AMGTOBCS|56=ARDARB_XSGO_IB|52=20150511-11:42:17.025|10=136|
20150511-11:42:17.040: 8=FIX.4.4|9=66|35=0|34=23|49=ARDARB_XSGO_IB|52=20150511-11:42:17.039|56=AMGTOBCS|10=141|
20150511-11:43:17.362: 8=FIX.4.4|9=66|35=0|34=24|49=AMGTOBCS|56=ARDARB_XSGO_IB|52=20150511-11:43:17.351|10=140|
20150511-11:43:17.364: 8=FIX.4.4|9=66|35=0|34=24|49=ARDARB_XSGO_IB|52=20150511-11:43:17.364|56=AMGTOBCS|10=144|
20150511-11:44:17.641: 8=FIX.4.4|9=66|35=0|34=25|49=AMGTOBCS|56=ARDARB_XSGO_IB|52=20150511-11:44:17.629|10=150|
20150511-11:44:17.643: 8=FIX.4.4|9=66|35=0|34=25|49=ARDARB_XSGO_IB|52=20150511-11:44:17.642|56=AMGTOBCS|10=145|
20150511-11:45:17.701: 8=FIX.4.4|9=66|35=0|34=26|49=AMGTOBCS|56=ARDARB_XSGO_IB|52=20150511-11:45:17.688|10=157|
20150511-11:45:17.704: 8=FIX.4.4|9=66|35=0|34=26|49=ARDARB_XSGO_IB|52=20150511-11:45:17.703|56=AMGTOBCS|10=145|
20150511-11:46:17.849: 8=FIX.4.4|9=66|35=0|34=27|49=ARDARB_XSGO_IB|52=20150511-11:46:17.849|56=AMGTOBCS|10=158|
20150511-11:46:17.992: 8=FIX.4.4|9=66|35=0|34=27|49=AMGTOBCS|56=ARDARB_XSGO_IB|52=20150511-11:46:17.981|10=155|
20150511-11:47:17.850: 8=FIX.4.4|9=66|35=0|34=28|49=ARDARB_XSGO_IB|52=20150511-11:47:17.850|56=AMGTOBCS|10=152|
20150511-11:47:18.272: 8=FIX.4.4|9=66|35=0|34=28|49=AMGTOBCS|56=ARDARB_XSGO_IB|52=20150511-11:47:18.259|10=156|
20150511-11:48:18.517: 8=FIX.4.4|9=66|35=0|34=29|49=AMGTOBCS|56=ARDARB_XSGO_IB|52=20150511-11:48:18.505|10=152|
20150511-11:48:18.519: 8=FIX.4.4|9=66|35=0|34=29|49=ARDARB_XSGO_IB|52=20150511-11:48:18.519|56=AMGTOBCS|10=157|
20150511-11:49:18.780: 8=FIX.4.4|9=66|35=0|34=30|49=AMGTOBCS|56=ARDARB_XSGO_IB|52=20150511-11:49:18.767|10=155|
20150511-11:49:18.781: 8=FIX.4.4|9=66|35=0|34=30|49=ARDARB_XSGO_IB|52=20150511-11:49:18.781|56=AMGTOBCS|10=151|
20150511-11:50:18.850: 8=FIX.4.4|9=66|35=0|34=31|49=ARDARB_XSGO_IB|52=20150511-11:50:18.849|56=AMGTOBCS|10=149|
20150511-11:50:19.058: 8=FIX.4.4|9=66|35=0|34=31|49=AMGTOBCS|56=ARDARB_XSGO_IB|52=20150511-11:50:19.045|10=138|
20150511-11:51:19.337: 8=FIX.4.4|9=66|35=0|34=32|49=AMGTOBCS|56=ARDARB_XSGO_IB|52=20150511-11:51:19.323|10=139|
20150511-11:51:19.339: 8=FIX.4.4|9=66|35=0|34=32|49=ARDARB_XSGO_IB|52=20150511-11:51:19.339|56=AMGTOBCS|10=146|
20150511-11:52:19.693: 8=FIX.4.4|9=66|35=0|34=33|49=AMGTOBCS|56=ARDARB_XSGO_IB|52=20150511-11:52:19.678|10=154|
20150511-11:52:19.694: 8=FIX.4.4|9=66|35=0|34=33|49=ARDARB_XSGO_IB|52=20150511-11:52:19.694|56=AMGTOBCS|10=152|
20150511-11:53:19.850: 8=FIX.4.4|9=66|35=0|34=34|49=ARDARB_XSGO_IB|52=20150511-11:53:19.849|56=AMGTOBCS|10=156|
20150511-11:53:19.954: 8=FIX.4.4|9=66|35=0|34=34|49=AMGTOBCS|56=ARDARB_XSGO_IB|52=20150511-11:53:19.940|10=148|
20150511-11:54:19.849: 8=FIX.4.4|9=66|35=0|34=35|49=ARDARB_XSGO_IB|52=20150511-11:54:19.849|56=AMGTOBCS|10=158|
20150511-11:54:20.201: 8=FIX.4.4|9=66|35=0|34=35|49=AMGTOBCS|56=ARDARB_XSGO_IB|52=20150511-11:54:20.187|10=145|
20150511-11:55:19.850: 8=FIX.4.4|9=66|35=0|34=36|49=ARDARB_XSGO_IB|52=20150511-11:55:19.849|56=AMGTOBCS|10=160|
20150511-11:55:20.477: 8=FIX.4.4|9=66|35=0|34=36|49=AMGTOBCS|56=ARDARB_XSGO_IB|52=20150511-11:55:20.464|10=145|
20150511-11:56:20.740: 8=FIX.4.4|9=66|35=0|34=37|49=AMGTOBCS|56=ARDARB_XSGO_IB|52=20150511-11:56:20.725|10=147|
20150511-11:56:20.742: 8=FIX.4.4|9=66|35=0|34=37|49=ARDARB_XSGO_IB|52=20150511-11:56:20.741|56=AMGTOBCS|10=145|
20150511-11:57:20.850: 8=FIX.4.4|9=66|35=0|34=38|49=ARDARB_XSGO_IB|52=20150511-11:57:20.849|56=AMGTOBCS|10=156|
20150511-11:57:20.986: 8=FIX.4.4|9=66|35=0|34=38|49=AMGTOBCS|56=ARDARB_XSGO_IB|52=20150511-11:57:20.971|10=152|
20150511-11:58:20.850: 8=FIX.4.4|9=66|35=0|34=39|49=ARDARB_XSGO_IB|52=20150511-11:58:20.849|56=AMGTOBCS|10=158|
20150511-11:58:21.263: 8=FIX.4.4|9=66|35=0|34=39|49=AMGTOBCS|56=ARDARB_XSGO_IB|52=20150511-11:58:21.249|10=153|
20150511-11:59:20.849: 8=FIX.4.4|9=66|35=0|34=40|49=ARDARB_XSGO_IB|52=20150511-11:59:20.849|56=AMGTOBCS|10=151|
20150511-11:59:21.530: 8=FIX.4.4|9=66|35=0|34=40|49=AMGTOBCS|56=ARDARB_XSGO_IB|52=20150511-11:59:21.510|10=137|
20150511-12:00:20.849: 8=FIX.4.4|9=66|35=0|34=41|49=ARDARB_XSGO_IB|52=20150511-12:00:20.849|56=AMGTOBCS|10=139|
20150511-12:00:21.773: 8=FIX.4.4|9=66|35=0|34=41|49=AMGTOBCS|56=ARDARB_XSGO_IB|52=20150511-12:00:21.756|10=137|
20150511-12:01:21.850: 8=FIX.4.4|9=66|35=0|34=42|49=ARDARB_XSGO_IB|52=20150511-12:01:21.849|56=AMGTOBCS|10=142|
20150511-12:01:22.050: 8=FIX.4.4|9=66|35=0|34=42|49=AMGTOBCS|56=ARDARB_XSGO_IB|52=20150511-12:01:22.034|10=129|
20150511-12:02:21.849: 8=FIX.4.4|9=66|35=0|34=43|49=ARDARB_XSGO_IB|52=20150511-12:02:21.849|56=AMGTOBCS|10=144|
20150511-12:02:22.430: 8=FIX.4.4|9=66|35=0|34=43|49=AMGTOBCS|56=ARDARB_XSGO_IB|52=20150511-12:02:22.404|10=132|
20150511-12:03:22.688: 8=FIX.4.4|9=66|35=0|34=44|49=AMGTOBCS|56=ARDARB_XSGO_IB|52=20150511-12:03:22.666|10=144|
20150511-12:03:22.689: 8=FIX.4.4|9=66|35=0|34=44|49=ARDARB_XSGO_IB|52=20150511-12:03:22.689|56=AMGTOBCS|10=149|
20150511-12:04:22.849: 8=FIX.4.4|9=66|35=0|34=45|49=ARDARB_XSGO_IB|52=20150511-12:04:22.849|56=AMGTOBCS|10=149|
20150511-12:04:22.952: 8=FIX.4.4|9=66|35=0|34=45|49=AMGTOBCS|56=ARDARB_XSGO_IB|52=20150511-12:04:22.928|10=147|
20150511-12:05:23.238: 8=FIX.4.4|9=66|35=0|34=46|49=AMGTOBCS|56=ARDARB_XSGO_IB|52=20150511-12:05:23.221|10=136|
20150511-12:05:23.240: 8=FIX.4.4|9=66|35=0|34=46|49=ARDARB_XSGO_IB|52=20150511-12:05:23.239|56=AMGTOBCS|10=145|
20150511-12:06:23.501: 8=FIX.4.4|9=66|35=0|34=47|49=AMGTOBCS|56=ARDARB_XSGO_IB|52=20150511-12:06:23.482|10=147|
20150511-12:06:23.502: 8=FIX.4.4|9=66|35=0|34=47|49=ARDARB_XSGO_IB|52=20150511-12:06:23.502|56=AMGTOBCS|10=140|
20150511-12:07:23.781: 8=FIX.4.4|9=66|35=0|34=48|49=AMGTOBCS|56=ARDARB_XSGO_IB|52=20150511-12:07:23.759|10=156|
20150511-12:07:23.783: 8=FIX.4.4|9=66|35=0|34=48|49=ARDARB_XSGO_IB|52=20150511-12:07:23.782|56=AMGTOBCS|10=152|
20150511-12:08:23.849: 8=FIX.4.4|9=66|35=0|34=49|49=ARDARB_XSGO_IB|52=20150511-12:08:23.849|56=AMGTOBCS|10=158|
20150511-12:08:24.041: 8=FIX.4.4|9=66|35=0|34=49|49=AMGTOBCS|56=ARDARB_XSGO_IB|52=20150511-12:08:24.021|10=141|
20150511-12:09:23.849: 8=FIX.4.4|9=66|35=0|34=50|49=ARDARB_XSGO_IB|52=20150511-12:09:23.849|56=AMGTOBCS|10=151|
20150511-12:09:24.319: 8=FIX.4.4|9=66|35=0|34=50|49=AMGTOBCS|56=ARDARB_XSGO_IB|52=20150511-12:09:24.298|10=150|
20150511-12:10:23.849: 8=FIX.4.4|9=66|35=0|34=51|49=ARDARB_XSGO_IB|52=20150511-12:10:23.849|56=AMGTOBCS|10=144|
20150511-12:10:24.580: 8=FIX.4.4|9=66|35=0|34=51|49=AMGTOBCS|56=ARDARB_XSGO_IB|52=20150511-12:10:24.560|10=135|
20150511-12:11:23.850: 8=FIX.4.4|9=66|35=0|34=52|49=ARDARB_XSGO_IB|52=20150511-12:11:23.849|56=AMGTOBCS|10=146|
20150511-12:11:24.876: 8=FIX.4.4|9=66|35=0|34=52|49=AMGTOBCS|56=ARDARB_XSGO_IB|52=20150511-12:11:24.853|10=142|
20150511-12:12:23.850: 8=FIX.4.4|9=66|35=0|34=53|49=ARDARB_XSGO_IB|52=20150511-12:12:23.850|56=AMGTOBCS|10=140|
20150511-12:12:25.140: 8=FIX.4.4|9=66|35=0|34=53|49=AMGTOBCS|56=ARDARB_XSGO_IB|52=20150511-12:12:25.114|10=135|
20150511-12:13:23.849: 8=FIX.4.4|9=66|35=0|34=54|49=ARDARB_XSGO_IB|52=20150511-12:13:23.849|56=AMGTOBCS|10=150|
20150511-12:13:25.429: 8=FIX.4.4|9=66|35=0|34=54|49=AMGTOBCS|56=ARDARB_XSGO_IB|52=20150511-12:13:25.407|10=142|
20150511-12:14:24.850: 8=FIX.4.4|9=66|35=0|34=55|49=ARDARB_XSGO_IB|52=20150511-12:14:24.849|56=AMGTOBCS|10=153|
20150511-12:14:25.661: 8=FIX.4.4|9=66|35=0|34=55|49=AMGTOBCS|56=ARDARB_XSGO_IB|52=20150511-12:14:25.638|10=150|
20150511-12:15:24.849: 8=FIX.4.4|9=66|35=0|34=56|49=ARDARB_XSGO_IB|52=20150511-12:15:24.849|56=AMGTOBCS|10=155|
20150511-12:15:25.923: 8=FIX.4.4|9=66|35=0|34=56|49=AMGTOBCS|56=ARDARB_XSGO_IB|52=20150511-12:15:25.899|10=161|
20150511-12:16:24.850: 8=FIX.4.4|9=66|35=0|34=57|49=ARDARB_XSGO_IB|52=20150511-12:16:24.849|56=AMGTOBCS|10=157|
20150511-12:16:26.154: 8=FIX.4.4|9=66|35=0|34=57|49=AMGTOBCS|56=ARDARB_XSGO_IB|52=20150511-12:16:26.130|10=142|
20150511-12:17:24.850: 8=FIX.4.4|9=66|35=0|34=58|49=ARDARB_XSGO_IB|52=20150511-12:17:24.849|56=AMGTOBCS|10=159|
20150511-12:17:26.448: 8=FIX.4.4|9=66|35=0|34=58|49=AMGTOBCS|56=ARDARB_XSGO_IB|52=20150511-12:17:26.423|10=149|
20150511-12:18:25.850: 8=FIX.4.4|9=66|35=0|34=59|49=ARDARB_XSGO_IB|52=20150511-12:18:25.849|56=AMGTOBCS|10=162|
20150511-12:18:26.714: 8=FIX.4.4|9=66|35=0|34=59|49=AMGTOBCS|56=ARDARB_XSGO_IB|52=20150511-12:18:26.684|10=160|
20150511-12:19:25.849: 8=FIX.4.4|9=66|35=0|34=60|49=ARDARB_XSGO_IB|52=20150511-12:19:25.849|56=AMGTOBCS|10=155|
20150511-12:19:27.008: 8=FIX.4.4|9=66|35=0|34=60|49=AMGTOBCS|56=ARDARB_XSGO_IB|52=20150511-12:19:26.977|10=158|
20150511-12:20:25.849: 8=FIX.4.4|9=66|35=0|34=61|49=ARDARB_XSGO_IB|52=20150511-12:20:25.849|56=AMGTOBCS|10=148|
20150511-12:20:27.111: 8=FIX.4.4|9=66|35=0|34=61|49=AMGTOBCS|56=ARDARB_XSGO_IB|52=20150511-12:20:27.083|10=140|
20150511-12:21:25.850: 8=FIX.4.4|9=66|35=0|34=62|49=ARDARB_XSGO_IB|52=20150511-12:21:25.849|56=AMGTOBCS|10=150|
20150511-12:21:27.390: 8=FIX.4.4|9=66|35=0|34=62|49=AMGTOBCS|56=ARDARB_XSGO_IB|52=20150511-12:21:27.360|10=140|
20150511-12:22:25.849: 8=FIX.4.4|9=66|35=0|34=63|49=ARDARB_XSGO_IB|52=20150511-12:22:25.849|56=AMGTOBCS|10=152|
20150511-12:22:27.648: 8=FIX.4.4|9=66|35=0|34=63|49=AMGTOBCS|56=ARDARB_XSGO_IB|52=20150511-12:22:27.622|10=143|
20150511-12:23:25.850: 8=FIX.4.4|9=66|35=0|34=64|49=ARDARB_XSGO_IB|52=20150511-12:23:25.849|56=AMGTOBCS|10=154|
20150511-12:23:27.926: 8=FIX.4.4|9=66|35=0|34=64|49=AMGTOBCS|56=ARDARB_XSGO_IB|52=20150511-12:23:27.899|10=161|
20150511-12:24:25.850: 8=FIX.4.4|9=66|35=0|34=65|49=ARDARB_XSGO_IB|52=20150511-12:24:25.849|56=AMGTOBCS|10=156|
20150511-12:24:28.191: 8=FIX.4.4|9=66|35=0|34=65|49=AMGTOBCS|56=ARDARB_XSGO_IB|52=20150511-12:24:28.161|10=146|
20150511-12:25:25.849: 8=FIX.4.4|9=66|35=0|34=66|49=ARDARB_XSGO_IB|52=20150511-12:25:25.849|56=AMGTOBCS|10=158|
20150511-12:25:28.481: 8=FIX.4.4|9=66|35=0|34=66|49=AMGTOBCS|56=ARDARB_XSGO_IB|52=20150511-12:25:28.453|10=152|
20150511-12:26:25.849: 8=FIX.4.4|9=66|35=0|34=67|49=ARDARB_XSGO_IB|52=20150511-12:26:25.849|56=AMGTOBCS|10=160|
20150511-12:26:28.810: 8=FIX.4.4|9=66|35=0|34=67|49=AMGTOBCS|56=ARDARB_XSGO_IB|52=20150511-12:26:28.777|10=163|
20150511-12:27:25.850: 8=FIX.4.4|9=66|35=0|34=68|49=ARDARB_XSGO_IB|52=20150511-12:27:25.849|56=AMGTOBCS|10=162|
20150511-12:27:29.100: 8=FIX.4.4|9=66|35=0|34=68|49=AMGTOBCS|56=ARDARB_XSGO_IB|52=20150511-12:27:29.070|10=152|
20150511-12:28:25.849: 8=FIX.4.4|9=66|35=0|34=69|49=ARDARB_XSGO_IB|52=20150511-12:28:25.849|56=AMGTOBCS|10=164|
20150511-12:28:29.408: 8=FIX.4.4|9=66|35=0|34=69|49=AMGTOBCS|56=ARDARB_XSGO_IB|52=20150511-12:28:29.379|10=166|
20150511-12:29:26.849: 8=FIX.4.4|9=66|35=0|34=70|49=ARDARB_XSGO_IB|52=20150511-12:29:26.849|56=AMGTOBCS|10=158|
20150511-12:29:29.734: 8=FIX.4.4|9=66|35=0|34=70|49=AMGTOBCS|56=ARDARB_XSGO_IB|52=20150511-12:29:29.703|10=150|
20150511-12:30:27.849: 8=FIX.4.4|9=66|35=0|34=71|49=ARDARB_XSGO_IB|52=20150511-12:30:27.849|56=AMGTOBCS|10=152|
20150511-12:30:30.078: 8=FIX.4.4|9=66|35=0|34=71|49=AMGTOBCS|56=ARDARB_XSGO_IB|52=20150511-12:30:30.027|10=134|
20150511-12:31:27.849: 8=FIX.4.4|9=66|35=0|34=72|49=ARDARB_XSGO_IB|52=20150511-12:31:27.849|56=AMGTOBCS|10=154|
20150511-12:31:30.353: 8=FIX.4.4|9=66|35=0|34=72|49=AMGTOBCS|56=ARDARB_XSGO_IB|52=20150511-12:31:30.320|10=132|
20150511-12:32:27.849: 8=FIX.4.4|9=66|35=0|34=73|49=ARDARB_XSGO_IB|52=20150511-12:32:27.849|56=AMGTOBCS|10=156|
20150511-12:32:30.638: 8=FIX.4.4|9=66|35=0|34=73|49=AMGTOBCS|56=ARDARB_XSGO_IB|52=20150511-12:32:30.597|10=150|
20150511-12:33:27.850: 8=FIX.4.4|9=66|35=0|34=74|49=ARDARB_XSGO_IB|52=20150511-12:33:27.849|56=AMGTOBCS|10=158|
20150511-12:33:30.956: 8=FIX.4.4|9=66|35=0|34=74|49=AMGTOBCS|56=ARDARB_XSGO_IB|52=20150511-12:33:30.921|10=143|
20150511-12:34:27.850: 8=FIX.4.4|9=66|35=0|34=75|49=ARDARB_XSGO_IB|52=20150511-12:34:27.849|56=AMGTOBCS|10=160|
20150511-12:34:31.278: 8=FIX.4.4|9=66|35=0|34=75|49=AMGTOBCS|56=ARDARB_XSGO_IB|52=20150511-12:34:31.249|10=149|
20150511-12:35:27.849: 8=FIX.4.4|9=66|35=0|34=76|49=ARDARB_XSGO_IB|52=20150511-12:35:27.849|56=AMGTOBCS|10=162|
20150511-12:35:31.587: 8=FIX.4.4|9=66|35=0|34=76|49=AMGTOBCS|56=ARDARB_XSGO_IB|52=20150511-12:35:31.561|10=148|
20150511-12:36:27.850: 8=FIX.4.4|9=66|35=0|34=77|49=ARDARB_XSGO_IB|52=20150511-12:36:27.849|56=AMGTOBCS|10=164|
20150511-12:36:32.053: 8=FIX.4.4|9=66|35=0|34=77|49=AMGTOBCS|56=ARDARB_XSGO_IB|52=20150511-12:36:32.030|10=142|
20150511-12:37:27.850: 8=FIX.4.4|9=66|35=0|34=78|49=ARDARB_XSGO_IB|52=20150511-12:37:27.849|56=AMGTOBCS|10=166|
20150511-12:37:32.349: 8=FIX.4.4|9=66|35=0|34=78|49=AMGTOBCS|56=ARDARB_XSGO_IB|52=20150511-12:37:32.327|10=153|
20150511-12:38:28.849: 8=FIX.4.4|9=66|35=0|34=79|49=ARDARB_XSGO_IB|52=20150511-12:38:28.849|56=AMGTOBCS|10=169|
20150511-12:38:32.674: 8=FIX.4.4|9=66|35=0|34=79|49=AMGTOBCS|56=ARDARB_XSGO_IB|52=20150511-12:38:32.656|10=160|
20150511-12:39:28.849: 8=FIX.4.4|9=66|35=0|34=80|49=ARDARB_XSGO_IB|52=20150511-12:39:28.849|56=AMGTOBCS|10=162|
20150511-12:39:32.979: 8=FIX.4.4|9=66|35=0|34=80|49=AMGTOBCS|56=ARDARB_XSGO_IB|52=20150511-12:39:32.966|10=157|
20150511-12:40:28.849: 8=FIX.4.4|9=66|35=0|34=81|49=ARDARB_XSGO_IB|52=20150511-12:40:28.849|56=AMGTOBCS|10=155|
20150511-12:40:33.305: 8=FIX.4.4|9=66|35=0|34=81|49=AMGTOBCS|56=ARDARB_XSGO_IB|52=20150511-12:40:33.291|10=142|
20150511-12:41:29.849: 8=FIX.4.4|9=66|35=0|34=82|49=ARDARB_XSGO_IB|52=20150511-12:41:29.849|56=AMGTOBCS|10=158|
20150511-12:41:33.598: 8=FIX.4.4|9=66|35=0|34=82|49=AMGTOBCS|56=ARDARB_XSGO_IB|52=20150511-12:41:33.586|10=151|
20150511-12:42:29.850: 8=FIX.4.4|9=66|35=0|34=83|49=ARDARB_XSGO_IB|52=20150511-12:42:29.849|56=AMGTOBCS|10=160|
20150511-12:42:33.937: 8=FIX.4.4|9=66|35=0|34=83|49=AMGTOBCS|56=ARDARB_XSGO_IB|52=20150511-12:42:33.927|10=152|
20150511-12:43:29.849: 8=FIX.4.4|9=66|35=0|34=84|49=ARDARB_XSGO_IB|52=20150511-12:43:29.849|56=AMGTOBCS|10=162|
20150511-12:43:34.203: 8=FIX.4.4|9=66|35=0|34=84|49=AMGTOBCS|56=ARDARB_XSGO_IB|52=20150511-12:43:34.190|10=147|
20150511-12:44:30.849: 8=FIX.4.4|9=66|35=0|34=85|49=ARDARB_XSGO_IB|52=20150511-12:44:30.849|56=AMGTOBCS|10=156|
20150511-12:44:34.563: 8=FIX.4.4|9=66|35=0|34=85|49=AMGTOBCS|56=ARDARB_XSGO_IB|52=20150511-12:44:34.546|10=154|
20150511-12:45:30.850: 8=FIX.4.4|9=66|35=0|34=86|49=ARDARB_XSGO_IB|52=20150511-12:45:30.849|56=AMGTOBCS|10=158|
20150511-12:45:34.849: 8=FIX.4.4|9=66|35=0|34=86|49=AMGTOBCS|56=ARDARB_XSGO_IB|52=20150511-12:45:34.839|10=161|
20150511-12:46:30.849: 8=FIX.4.4|9=66|35=0|34=87|49=ARDARB_XSGO_IB|52=20150511-12:46:30.849|56=AMGTOBCS|10=160|
20150511-12:46:35.173: 8=FIX.4.4|9=66|35=0|34=87|49=AMGTOBCS|56=ARDARB_XSGO_IB|52=20150511-12:46:35.163|10=154|
20150511-12:47:30.849: 8=FIX.4.4|9=66|35=0|34=88|49=ARDARB_XSGO_IB|52=20150511-12:47:30.849|56=AMGTOBCS|10=162|
20150511-12:47:35.453: 8=FIX.4.4|9=66|35=0|34=88|49=AMGTOBCS|56=ARDARB_XSGO_IB|52=20150511-12:47:35.441|10=155|
20150511-12:48:30.849: 8=FIX.4.4|9=66|35=0|34=89|49=ARDARB_XSGO_IB|52=20150511-12:48:30.849|56=AMGTOBCS|10=164|
20150511-12:48:35.791: 8=FIX.4.4|9=66|35=0|34=89|49=AMGTOBCS|56=ARDARB_XSGO_IB|52=20150511-12:48:35.781|10=164|
20150511-12:49:30.849: 8=FIX.4.4|9=66|35=0|34=90|49=ARDARB_XSGO_IB|52=20150511-12:49:30.849|56=AMGTOBCS|10=157|
20150511-12:49:36.100: 8=FIX.4.4|9=66|35=0|34=90|49=AMGTOBCS|56=ARDARB_XSGO_IB|52=20150511-12:49:36.090|10=151|
20150511-12:50:30.849: 8=FIX.4.4|9=66|35=0|34=91|49=ARDARB_XSGO_IB|52=20150511-12:50:30.849|56=AMGTOBCS|10=150|
20150511-12:50:36.397: 8=FIX.4.4|9=66|35=0|34=91|49=AMGTOBCS|56=ARDARB_XSGO_IB|52=20150511-12:50:36.382|10=148|
20150511-12:51:30.849: 8=FIX.4.4|9=66|35=0|34=92|49=ARDARB_XSGO_IB|52=20150511-12:51:30.849|56=AMGTOBCS|10=152|
20150511-12:51:36.687: 8=FIX.4.4|9=66|35=0|34=92|49=AMGTOBCS|56=ARDARB_XSGO_IB|52=20150511-12:51:36.675|10=155|
20150511-12:52:30.850: 8=FIX.4.4|9=66|35=0|34=93|49=ARDARB_XSGO_IB|52=20150511-12:52:30.849|56=AMGTOBCS|10=154|
20150511-12:52:37.171: 8=FIX.4.4|9=66|35=0|34=93|49=AMGTOBCS|56=ARDARB_XSGO_IB|52=20150511-12:52:37.155|10=151|
20150511-12:53:30.849: 8=FIX.4.4|9=66|35=0|34=94|49=ARDARB_XSGO_IB|52=20150511-12:53:30.849|56=AMGTOBCS|10=156|
20150511-12:53:37.491: 8=FIX.4.4|9=66|35=0|34=94|49=AMGTOBCS|56=ARDARB_XSGO_IB|52=20150511-12:53:37.479|10=162|
20150511-12:54:30.849: 8=FIX.4.4|9=66|35=0|34=95|49=ARDARB_XSGO_IB|52=20150511-12:54:30.849|56=AMGTOBCS|10=158|
20150511-12:54:37.753: 8=FIX.4.4|9=66|35=0|34=95|49=AMGTOBCS|56=ARDARB_XSGO_IB|52=20150511-12:54:37.741|10=156|
20150511-12:55:30.849: 8=FIX.4.4|9=66|35=0|34=96|49=ARDARB_XSGO_IB|52=20150511-12:55:30.849|56=AMGTOBCS|10=160|
20150511-12:55:37.982: 8=FIX.4.4|9=66|35=0|34=96|49=AMGTOBCS|56=ARDARB_XSGO_IB|52=20150511-12:55:37.971|10=163|
20150511-12:56:30.849: 8=FIX.4.4|9=66|35=0|34=97|49=ARDARB_XSGO_IB|52=20150511-12:56:30.849|56=AMGTOBCS|10=162|
20150511-12:56:38.213: 8=FIX.4.4|9=66|35=0|34=97|49=AMGTOBCS|56=ARDARB_XSGO_IB|52=20150511-12:56:38.202|10=153|
20150511-12:57:31.850: 8=FIX.4.4|9=66|35=0|34=98|49=ARDARB_XSGO_IB|52=20150511-12:57:31.849|56=AMGTOBCS|10=165|
20150511-12:57:38.492: 8=FIX.4.4|9=66|35=0|34=98|49=AMGTOBCS|56=ARDARB_XSGO_IB|52=20150511-12:57:38.479|10=171|
20150511-12:58:32.849: 8=FIX.4.4|9=66|35=0|34=99|49=ARDARB_XSGO_IB|52=20150511-12:58:32.849|56=AMGTOBCS|10=168|
20150511-12:58:38.722: 8=FIX.4.4|9=66|35=0|34=99|49=AMGTOBCS|56=ARDARB_XSGO_IB|52=20150511-12:58:38.709|10=169|
20150511-12:59:32.849: 8=FIX.4.4|9=67|35=0|34=100|49=ARDARB_XSGO_IB|52=20150511-12:59:32.849|56=AMGTOBCS|10=201|
20150511-12:59:38.999: 8=FIX.4.4|9=67|35=0|34=100|49=AMGTOBCS|56=ARDARB_XSGO_IB|52=20150511-12:59:38.987|10=210|
20150511-13:00:32.849: 8=FIX.4.4|9=67|35=0|34=101|49=ARDARB_XSGO_IB|52=20150511-13:00:32.849|56=AMGTOBCS|10=189|
20150511-13:00:39.231: 8=FIX.4.4|9=67|35=0|34=101|49=AMGTOBCS|56=ARDARB_XSGO_IB|52=20150511-13:00:39.217|10=185|
20150511-13:01:32.849: 8=FIX.4.4|9=67|35=0|34=102|49=ARDARB_XSGO_IB|52=20150511-13:01:32.849|56=AMGTOBCS|10=191|
20150511-13:01:39.555: 8=FIX.4.4|9=67|35=0|34=102|49=AMGTOBCS|56=ARDARB_XSGO_IB|52=20150511-13:01:39.541|10=187|
