20150504-12:51:55.202: 8=FIX.4.4|9=139|35=X|34=495|49=MDFHBLP|52=20150504-12:51:55.207|56=ALGOARBADR5|262=-4ef225248a30b167|268=1|279=1|269=5|55=CLP DTTC CURNCY|270=614.32|290=1|10=172|
20150504-12:51:56.448: 8=FIX.4.4|9=142|35=X|34=496|49=MDFHBLP|52=20150504-12:51:56.453|56=ALGOARBADR5|262=-4ef225248a30b167|268=1|279=1|269=0|55=CLP DTTC CURNCY|270=614|271=0|290=1|10=027|
20150504-12:51:56.450: 8=FIX.4.4|9=139|35=X|34=497|49=MDFHBLP|52=20150504-12:51:56.455|56=ALGOARBADR5|262=-4ef225248a30b167|268=1|279=1|269=5|55=CLP DTTC CURNCY|270=614.25|290=1|10=182|
20150504-12:51:59.152: 8=FIX.4.4|9=145|35=X|34=498|49=MDFHBLP|52=20150504-12:51:59.156|56=ALGOARBADR5|262=-4ef225248a30b167|268=1|279=1|269=0|55=CLP DTTC CURNCY|270=614.05|271=0|290=1|10=182|
20150504-12:51:59.154: 8=FIX.4.4|9=139|35=X|34=499|49=MDFHBLP|52=20150504-12:51:59.159|56=ALGOARBADR5|262=-4ef225248a30b167|268=1|279=1|269=5|55=CLP DTTC CURNCY|270=614.28|290=1|10=191|
20150504-12:52:00.291: 8=FIX.4.4|9=144|35=X|34=500|49=MDFHBLP|52=20150504-12:52:00.296|56=ALGOARBADR5|262=-4ef225248a30b167|268=1|279=1|269=1|55=CLP DTTC CURNCY|270=614.3|271=0|290=1|10=108|
20150504-12:52:00.292: 8=FIX.4.4|9=139|35=X|34=501|49=MDFHBLP|52=20150504-12:52:00.297|56=ALGOARBADR5|262=-4ef225248a30b167|268=1|279=1|269=5|55=CLP DTTC CURNCY|270=614.18|290=1|10=164|
20150504-12:52:01.900: 8=FIX.4.4|9=145|35=X|34=502|49=MDFHBLP|52=20150504-12:52:01.905|56=ALGOARBADR5|262=-4ef225248a30b167|268=1|279=1|269=0|55=CLP DTTC CURNCY|270=614.12|271=0|290=1|10=156|
20150504-12:52:01.902: 8=FIX.4.4|9=139|35=X|34=503|49=MDFHBLP|52=20150504-12:52:01.907|56=ALGOARBADR5|262=-4ef225248a30b167|268=1|279=1|269=5|55=CLP DTTC CURNCY|270=614.21|290=1|10=159|
20150504-12:52:16.954: 8=FIX.4.4|9=62|35=0|34=24|49=ALGOARBADR5|52=20150504-12:52:16.954|56=MDFHBLP|10=014|
20150504-12:52:21.279: 8=FIX.4.4|9=145|35=X|34=504|49=MDFHBLP|52=20150504-12:52:21.284|56=ALGOARBADR5|262=-4ef225248a30b167|268=1|279=1|269=0|55=CLP DTTC CURNCY|270=614.15|271=0|290=1|10=163|
20150504-12:52:21.281: 8=FIX.4.4|9=139|35=X|34=505|49=MDFHBLP|52=20150504-12:52:21.287|56=ALGOARBADR5|262=-4ef225248a30b167|268=1|279=1|269=5|55=CLP DTTC CURNCY|270=614.23|290=1|10=166|
20150504-12:52:25.417: 8=FIX.4.4|9=144|35=X|34=506|49=MDFHBLP|52=20150504-12:52:25.423|56=ALGOARBADR5|262=-4ef225248a30b167|268=1|279=1|269=0|55=CLP DTTC CURNCY|270=614.2|271=0|290=1|10=111|
20150504-12:52:25.419: 8=FIX.4.4|9=139|35=X|34=507|49=MDFHBLP|52=20150504-12:52:25.425|56=ALGOARBADR5|262=-4ef225248a30b167|268=1|279=1|269=5|55=CLP DTTC CURNCY|270=614.25|290=1|10=168|
20150504-12:52:28.276: 8=FIX.4.4|9=145|35=X|34=508|49=MDFHBLP|52=20150504-12:52:28.282|56=ALGOARBADR5|262=-4ef225248a30b167|268=1|279=1|269=0|55=CLP DTTC CURNCY|270=614.25|271=0|290=1|10=173|
20150504-12:52:28.278: 8=FIX.4.4|9=139|35=X|34=509|49=MDFHBLP|52=20150504-12:52:28.284|56=ALGOARBADR5|262=-4ef225248a30b167|268=1|279=1|269=5|55=CLP DTTC CURNCY|270=614.28|290=1|10=179|
20150504-12:52:40.275: 8=FIX.4.4|9=144|35=X|34=510|49=MDFHBLP|52=20150504-12:52:40.281|56=ALGOARBADR5|262=-4ef225248a30b167|268=1|279=1|269=0|55=CLP DTTC CURNCY|270=614.2|271=0|290=1|10=105|
20150504-12:52:40.277: 8=FIX.4.4|9=139|35=X|34=511|49=MDFHBLP|52=20150504-12:52:40.282|56=ALGOARBADR5|262=-4ef225248a30b167|268=1|279=1|269=5|55=CLP DTTC CURNCY|270=614.25|290=1|10=161|
20150504-12:52:40.918: 8=FIX.4.4|9=145|35=X|34=512|49=MDFHBLP|52=20150504-12:52:40.924|56=ALGOARBADR5|262=-4ef225248a30b167|268=1|279=1|269=0|55=CLP DTTC CURNCY|270=614.15|271=0|290=1|10=164|
20150504-12:52:40.919: 8=FIX.4.4|9=139|35=X|34=513|49=MDFHBLP|52=20150504-12:52:40.925|56=ALGOARBADR5|262=-4ef225248a30b167|268=1|279=1|269=5|55=CLP DTTC CURNCY|270=614.23|290=1|10=165|
20150504-12:52:44.077: 8=FIX.4.4|9=145|35=X|34=514|49=MDFHBLP|52=20150504-12:52:44.083|56=ALGOARBADR5|262=-4ef225248a30b167|268=1|279=1|269=0|55=CLP DTTC CURNCY|270=614.12|271=0|290=1|10=163|
20150504-12:52:44.078: 8=FIX.4.4|9=139|35=X|34=515|49=MDFHBLP|52=20150504-12:52:44.085|56=ALGOARBADR5|262=-4ef225248a30b167|268=1|279=1|269=5|55=CLP DTTC CURNCY|270=614.26|290=1|10=171|
20150504-12:52:44.081: 8=FIX.4.4|9=144|35=X|34=516|49=MDFHBLP|52=20150504-12:52:44.087|56=ALGOARBADR5|262=-4ef225248a30b167|268=1|279=1|269=1|55=CLP DTTC CURNCY|270=614.4|271=0|290=1|10=122|
20150504-12:52:44.083: 8=FIX.4.4|9=139|35=X|34=517|49=MDFHBLP|52=20150504-12:52:44.089|56=ALGOARBADR5|262=-4ef225248a30b167|268=1|279=1|269=5|55=CLP DTTC CURNCY|270=614.26|290=1|10=177|
20150504-12:52:44.544: 8=FIX.4.4|9=145|35=X|34=518|49=MDFHBLP|52=20150504-12:52:44.551|56=ALGOARBADR5|262=-4ef225248a30b167|268=1|279=1|269=1|55=CLP DTTC CURNCY|270=614.44|271=0|290=1|10=173|
20150504-12:52:44.544: 8=FIX.4.4|9=139|35=X|34=519|49=MDFHBLP|52=20150504-12:52:44.551|56=ALGOARBADR5|262=-4ef225248a30b167|268=1|279=1|269=5|55=CLP DTTC CURNCY|270=614.28|290=1|10=175|
20150504-12:52:50.089: 8=FIX.4.4|9=142|35=X|34=520|49=MDFHBLP|52=20150504-12:52:50.096|56=ALGOARBADR5|262=-4ef225248a30b167|268=1|279=1|269=0|55=CLP DTTC CURNCY|270=614|271=0|290=1|10=013|
20150504-12:52:50.092: 8=FIX.4.4|9=139|35=X|34=521|49=MDFHBLP|52=20150504-12:52:50.097|56=ALGOARBADR5|262=-4ef225248a30b167|268=1|279=1|269=5|55=CLP DTTC CURNCY|270=614.15|290=1|10=166|
20150504-12:52:50.093: 8=FIX.4.4|9=144|35=X|34=522|49=MDFHBLP|52=20150504-12:52:50.099|56=ALGOARBADR5|262=-4ef225248a30b167|268=1|279=1|269=1|55=CLP DTTC CURNCY|270=614.3|271=0|290=1|10=118|
20150504-12:52:50.095: 8=FIX.4.4|9=139|35=X|34=523|49=MDFHBLP|52=20150504-12:52:50.101|56=ALGOARBADR5|262=-4ef225248a30b167|268=1|279=1|269=5|55=CLP DTTC CURNCY|270=614.15|290=1|10=154|
20150504-12:53:15.322: 8=FIX.4.4|9=145|35=X|34=524|49=MDFHBLP|52=20150504-12:53:15.329|56=ALGOARBADR5|262=-4ef225248a30b167|268=1|279=1|269=0|55=CLP DTTC CURNCY|270=614.05|271=0|290=1|10=168|
20150504-12:53:15.323: 8=FIX.4.4|9=144|35=X|34=525|49=MDFHBLP|52=20150504-12:53:15.331|56=ALGOARBADR5|262=-4ef225248a30b167|268=1|279=1|269=1|55=CLP DTTC CURNCY|270=614.2|271=0|290=1|10=111|
20150504-12:53:15.325: 8=FIX.4.4|9=139|35=X|34=526|49=MDFHBLP|52=20150504-12:53:15.333|56=ALGOARBADR5|262=-4ef225248a30b167|268=1|279=1|269=5|55=CLP DTTC CURNCY|270=614.18|290=1|10=169|
20150504-12:53:15.328: 8=FIX.4.4|9=139|35=X|34=527|49=MDFHBLP|52=20150504-12:53:15.335|56=ALGOARBADR5|262=-4ef225248a30b167|268=1|279=1|269=5|55=CLP DTTC CURNCY|270=614.13|290=1|10=167|
20150504-12:53:17.954: 8=FIX.4.4|9=62|35=0|34=25|49=ALGOARBADR5|52=20150504-12:53:17.953|56=MDFHBLP|10=016|