20150504-11:21:09.185: 8=FIX.4.4|9=69|35=5|34=1|49=LVBSG|52=20150504-11:21:09.183|56=ADR_ARBITRAGE_IB_XNYS|10=187|
20150504-11:21:09.192: 8=FIX.4.4|9=0163|35=5|49=ADR_ARBITRAGE_IB_XNYS|56=LVBSG|34=1|52=20150504-11:21:09|58=00100000004crxi_1891- CODE: 1-200-5: Expecting Logon but got Logout: disconnecting immediately|10=013|
20150504-11:21:12.164: 8=FIX.4.4|9=87|35=A|34=1|49=LVBSG|52=20150504-11:21:12.162|56=ADR_ARBITRAGE_IB_XNYS|98=0|108=60|141=Y|10=007|
20150504-11:21:12.171: 8=FIX.4.4|9=0083|35=A|49=ADR_ARBITRAGE_IB_XNYS|56=LVBSG|34=1|52=20150504-11:21:12|98=0|108=60|141=Y|10=156|
20150504-11:21:49.151: 8=FIX.4.4|9=0093|35=1|49=ADR_ARBITRAGE_IB_XNYS|56=LVBSG|34=2|52=20150504-11:21:49|112=Appia-20150504-11:21:49|10=157|
20150504-11:21:49.155: 8=FIX.4.4|9=97|35=0|34=2|49=LVBSG|52=20150504-11:21:49.154|56=ADR_ARBITRAGE_IB_XNYS|112=Appia-20150504-11:21:49|10=008|
20150504-11:22:49.150: 8=FIX.4.4|9=0065|35=0|49=ADR_ARBITRAGE_IB_XNYS|56=LVBSG|34=3|52=20150504-11:22:49|10=079|
20150504-11:22:49.155: 8=FIX.4.4|9=69|35=0|34=3|49=LVBSG|52=20150504-11:22:49.154|56=ADR_ARBITRAGE_IB_XNYS|10=187|
20150504-11:23:49.150: 8=FIX.4.4|9=0065|35=0|49=ADR_ARBITRAGE_IB_XNYS|56=LVBSG|34=4|52=20150504-11:23:49|10=081|
20150504-11:23:50.297: 8=FIX.4.4|9=69|35=0|34=4|49=LVBSG|52=20150504-11:23:50.296|56=ADR_ARBITRAGE_IB_XNYS|10=188|
20150504-11:24:49.150: 8=FIX.4.4|9=0065|35=0|49=ADR_ARBITRAGE_IB_XNYS|56=LVBSG|34=5|52=20150504-11:24:49|10=083|
20150504-11:24:51.380: 8=FIX.4.4|9=69|35=0|34=5|49=LVBSG|52=20150504-11:24:51.379|56=ADR_ARBITRAGE_IB_XNYS|10=193|
20150504-11:25:49.156: 8=FIX.4.4|9=0065|35=0|49=ADR_ARBITRAGE_IB_XNYS|56=LVBSG|34=6|52=20150504-11:25:49|10=085|
20150504-11:25:52.452: 8=FIX.4.4|9=69|35=0|34=6|49=LVBSG|52=20150504-11:25:52.452|56=ADR_ARBITRAGE_IB_XNYS|10=188|
20150504-11:26:49.169: 8=FIX.4.4|9=0065|35=0|49=ADR_ARBITRAGE_IB_XNYS|56=LVBSG|34=7|52=20150504-11:26:49|10=087|
20150504-11:26:53.516: 8=FIX.4.4|9=69|35=0|34=7|49=LVBSG|52=20150504-11:26:53.515|56=ADR_ARBITRAGE_IB_XNYS|10=191|
20150504-11:27:49.153: 8=FIX.4.4|9=0065|35=0|49=ADR_ARBITRAGE_IB_XNYS|56=LVBSG|34=8|52=20150504-11:27:49|10=089|
20150504-11:27:54.594: 8=FIX.4.4|9=69|35=0|34=8|49=LVBSG|52=20150504-11:27:54.593|56=ADR_ARBITRAGE_IB_XNYS|10=200|
20150504-11:28:49.173: 8=FIX.4.4|9=0065|35=0|49=ADR_ARBITRAGE_IB_XNYS|56=LVBSG|34=9|52=20150504-11:28:49|10=091|
20150504-11:28:55.670: 8=FIX.4.4|9=69|35=0|34=9|49=LVBSG|52=20150504-11:28:55.669|56=ADR_ARBITRAGE_IB_XNYS|10=207|
20150504-11:29:49.168: 8=FIX.4.4|9=0066|35=0|49=ADR_ARBITRAGE_IB_XNYS|56=LVBSG|34=10|52=20150504-11:29:49|10=133|
20150504-11:29:56.757: 8=FIX.4.4|9=70|35=0|34=10|49=LVBSG|52=20150504-11:29:56.756|56=ADR_ARBITRAGE_IB_XNYS|10=238|
20150504-11:30:49.170: 8=FIX.4.4|9=0066|35=0|49=ADR_ARBITRAGE_IB_XNYS|56=LVBSG|34=11|52=20150504-11:30:49|10=126|
20150504-11:30:57.821: 8=FIX.4.4|9=70|35=0|34=11|49=LVBSG|52=20150504-11:30:57.820|56=ADR_ARBITRAGE_IB_XNYS|10=224|
20150504-11:31:49.170: 8=FIX.4.4|9=0066|35=0|49=ADR_ARBITRAGE_IB_XNYS|56=LVBSG|34=12|52=20150504-11:31:49|10=128|
20150504-11:31:58.889: 8=FIX.4.4|9=70|35=0|34=12|49=LVBSG|52=20150504-11:31:58.888|56=ADR_ARBITRAGE_IB_XNYS|10=241|
20150504-11:32:49.166: 8=FIX.4.4|9=0066|35=0|49=ADR_ARBITRAGE_IB_XNYS|56=LVBSG|34=13|52=20150504-11:32:49|10=130|
20150504-11:32:59.975: 8=FIX.4.4|9=70|35=0|34=13|49=LVBSG|52=20150504-11:32:59.974|56=ADR_ARBITRAGE_IB_XNYS|10=240|
20150504-11:33:49.165: 8=FIX.4.4|9=0066|35=0|49=ADR_ARBITRAGE_IB_XNYS|56=LVBSG|34=14|52=20150504-11:33:49|10=132|
20150504-11:34:01.057: 8=FIX.4.4|9=70|35=0|34=14|49=LVBSG|52=20150504-11:34:01.056|56=ADR_ARBITRAGE_IB_XNYS|10=221|
20150504-11:34:49.164: 8=FIX.4.4|9=0066|35=0|49=ADR_ARBITRAGE_IB_XNYS|56=LVBSG|34=15|52=20150504-11:34:49|10=134|
20150504-11:35:02.116: 8=FIX.4.4|9=70|35=0|34=15|49=LVBSG|52=20150504-11:35:02.115|56=ADR_ARBITRAGE_IB_XNYS|10=220|
20150504-11:35:49.157: 8=FIX.4.4|9=0066|35=0|49=ADR_ARBITRAGE_IB_XNYS|56=LVBSG|34=16|52=20150504-11:35:49|10=136|
20150504-11:36:03.186: 8=FIX.4.4|9=70|35=0|34=16|49=LVBSG|52=20150504-11:36:03.185|56=ADR_ARBITRAGE_IB_XNYS|10=230|
20150504-11:36:49.157: 8=FIX.4.4|9=0066|35=0|49=ADR_ARBITRAGE_IB_XNYS|56=LVBSG|34=17|52=20150504-11:36:49|10=138|
20150504-11:37:04.266: 8=FIX.4.4|9=70|35=0|34=17|49=LVBSG|52=20150504-11:37:04.265|56=ADR_ARBITRAGE_IB_XNYS|10=232|
20150504-11:37:49.159: 8=FIX.4.4|9=0066|35=0|49=ADR_ARBITRAGE_IB_XNYS|56=LVBSG|34=18|52=20150504-11:37:49|10=140|
20150504-11:38:05.338: 8=FIX.4.4|9=70|35=0|34=18|49=LVBSG|52=20150504-11:38:05.337|56=ADR_ARBITRAGE_IB_XNYS|10=235|
20150504-11:38:49.160: 8=FIX.4.4|9=0066|35=0|49=ADR_ARBITRAGE_IB_XNYS|56=LVBSG|34=19|52=20150504-11:38:49|10=142|
20150504-11:39:06.413: 8=FIX.4.4|9=70|35=0|34=19|49=LVBSG|52=20150504-11:39:06.412|56=ADR_ARBITRAGE_IB_XNYS|10=232|
20150504-11:39:49.164: 8=FIX.4.4|9=0066|35=0|49=ADR_ARBITRAGE_IB_XNYS|56=LVBSG|34=20|52=20150504-11:39:49|10=135|
20150504-11:40:07.482: 8=FIX.4.4|9=70|35=0|34=20|49=LVBSG|52=20150504-11:40:07.481|56=ADR_ARBITRAGE_IB_XNYS|10=223|
20150504-11:40:49.157: 8=FIX.4.4|9=0066|35=0|49=ADR_ARBITRAGE_IB_XNYS|56=LVBSG|34=21|52=20150504-11:40:49|10=128|
20150504-11:41:08.559: 8=FIX.4.4|9=70|35=0|34=21|49=LVBSG|52=20150504-11:41:08.558|56=ADR_ARBITRAGE_IB_XNYS|10=231|
20150504-11:41:49.156: 8=FIX.4.4|9=0066|35=0|49=ADR_ARBITRAGE_IB_XNYS|56=LVBSG|34=22|52=20150504-11:41:49|10=130|
20150504-11:42:09.636: 8=FIX.4.4|9=70|35=0|34=22|49=LVBSG|52=20150504-11:42:09.635|56=ADR_ARBITRAGE_IB_XNYS|10=230|
20150504-11:42:49.156: 8=FIX.4.4|9=0066|35=0|49=ADR_ARBITRAGE_IB_XNYS|56=LVBSG|34=23|52=20150504-11:42:49|10=132|
20150504-11:43:09.958: 8=FIX.4.4|9=70|35=0|34=23|49=LVBSG|52=20150504-11:43:09.957|56=ADR_ARBITRAGE_IB_XNYS|10=239|
20150504-11:43:49.156: 8=FIX.4.4|9=0066|35=0|49=ADR_ARBITRAGE_IB_XNYS|56=LVBSG|34=24|52=20150504-11:43:49|10=134|
20150504-11:44:10.957: 8=FIX.4.4|9=70|35=0|34=24|49=LVBSG|52=20150504-11:44:10.957|56=ADR_ARBITRAGE_IB_XNYS|10=233|
20150504-11:44:49.156: 8=FIX.4.4|9=0066|35=0|49=ADR_ARBITRAGE_IB_XNYS|56=LVBSG|34=25|52=20150504-11:44:49|10=136|
20150504-11:45:11.958: 8=FIX.4.4|9=70|35=0|34=25|49=LVBSG|52=20150504-11:45:11.957|56=ADR_ARBITRAGE_IB_XNYS|10=236|
20150504-11:45:49.158: 8=FIX.4.4|9=0066|35=0|49=ADR_ARBITRAGE_IB_XNYS|56=LVBSG|34=26|52=20150504-11:45:49|10=138|
20150504-11:46:12.273: 8=FIX.4.4|9=70|35=0|34=26|49=LVBSG|52=20150504-11:46:12.272|56=ADR_ARBITRAGE_IB_XNYS|10=229|
20150504-11:46:49.157: 8=FIX.4.4|9=0066|35=0|49=ADR_ARBITRAGE_IB_XNYS|56=LVBSG|34=27|52=20150504-11:46:49|10=140|
20150504-11:47:13.335: 8=FIX.4.4|9=70|35=0|34=27|49=LVBSG|52=20150504-11:47:13.334|56=ADR_ARBITRAGE_IB_XNYS|10=231|
20150504-11:47:49.158: 8=FIX.4.4|9=0066|35=0|49=ADR_ARBITRAGE_IB_XNYS|56=LVBSG|34=28|52=20150504-11:47:49|10=142|
20150504-11:48:14.406: 8=FIX.4.4|9=70|35=0|34=28|49=LVBSG|52=20150504-11:48:14.405|56=ADR_ARBITRAGE_IB_XNYS|10=233|
20150504-11:48:49.158: 8=FIX.4.4|9=0066|35=0|49=ADR_ARBITRAGE_IB_XNYS|56=LVBSG|34=29|52=20150504-11:48:49|10=144|
20150504-11:49:15.478: 8=FIX.4.4|9=70|35=0|34=29|49=LVBSG|52=20150504-11:49:15.477|56=ADR_ARBITRAGE_IB_XNYS|10=245|
20150504-11:49:49.159: 8=FIX.4.4|9=0066|35=0|49=ADR_ARBITRAGE_IB_XNYS|56=LVBSG|34=30|52=20150504-11:49:49|10=137|
20150504-11:50:16.553: 8=FIX.4.4|9=70|35=0|34=30|49=LVBSG|52=20150504-11:50:16.552|56=ADR_ARBITRAGE_IB_XNYS|10=224|
20150504-11:50:49.164: 8=FIX.4.4|9=0066|35=0|49=ADR_ARBITRAGE_IB_XNYS|56=LVBSG|34=31|52=20150504-11:50:49|10=130|
20150504-11:51:17.623: 8=FIX.4.4|9=70|35=0|34=31|49=LVBSG|52=20150504-11:51:17.623|56=ADR_ARBITRAGE_IB_XNYS|10=226|
20150504-11:51:49.160: 8=FIX.4.4|9=0066|35=0|49=ADR_ARBITRAGE_IB_XNYS|56=LVBSG|34=32|52=20150504-11:51:49|10=132|
20150504-11:52:18.702: 8=FIX.4.4|9=70|35=0|34=32|49=LVBSG|52=20150504-11:52:18.701|56=ADR_ARBITRAGE_IB_XNYS|10=226|
20150504-11:52:49.158: 8=FIX.4.4|9=0066|35=0|49=ADR_ARBITRAGE_IB_XNYS|56=LVBSG|34=33|52=20150504-11:52:49|10=134|
20150504-11:53:19.781: 8=FIX.4.4|9=70|35=0|34=33|49=LVBSG|52=20150504-11:53:19.780|56=ADR_ARBITRAGE_IB_XNYS|10=236|
20150504-11:53:49.158: 8=FIX.4.4|9=0066|35=0|49=ADR_ARBITRAGE_IB_XNYS|56=LVBSG|34=34|52=20150504-11:53:49|10=136|
20150504-11:54:20.853: 8=FIX.4.4|9=70|35=0|34=34|49=LVBSG|52=20150504-11:54:20.852|56=ADR_ARBITRAGE_IB_XNYS|10=230|
20150504-11:54:49.159: 8=FIX.4.4|9=0066|35=0|49=ADR_ARBITRAGE_IB_XNYS|56=LVBSG|34=35|52=20150504-11:54:49|10=138|
20150504-11:55:21.933: 8=FIX.4.4|9=70|35=0|34=35|49=LVBSG|52=20150504-11:55:21.932|56=ADR_ARBITRAGE_IB_XNYS|10=232|
20150504-11:55:49.158: 8=FIX.4.4|9=0066|35=0|49=ADR_ARBITRAGE_IB_XNYS|56=LVBSG|34=36|52=20150504-11:55:49|10=140|
20150504-11:56:23.011: 8=FIX.4.4|9=70|35=0|34=36|49=LVBSG|52=20150504-11:56:23.010|56=ADR_ARBITRAGE_IB_XNYS|10=223|
20150504-11:56:49.159: 8=FIX.4.4|9=0066|35=0|49=ADR_ARBITRAGE_IB_XNYS|56=LVBSG|34=37|52=20150504-11:56:49|10=142|
20150504-11:57:24.092: 8=FIX.4.4|9=70|35=0|34=37|49=LVBSG|52=20150504-11:57:24.092|56=ADR_ARBITRAGE_IB_XNYS|10=236|
20150504-11:57:49.158: 8=FIX.4.4|9=0066|35=0|49=ADR_ARBITRAGE_IB_XNYS|56=LVBSG|34=38|52=20150504-11:57:49|10=144|
20150504-11:58:25.157: 8=FIX.4.4|9=70|35=0|34=38|49=LVBSG|52=20150504-11:58:25.156|56=ADR_ARBITRAGE_IB_XNYS|10=240|
20150504-11:58:49.159: 8=FIX.4.4|9=0066|35=0|49=ADR_ARBITRAGE_IB_XNYS|56=LVBSG|34=39|52=20150504-11:58:49|10=146|
20150504-11:59:26.237: 8=FIX.4.4|9=70|35=0|34=39|49=LVBSG|52=20150504-11:59:26.236|56=ADR_ARBITRAGE_IB_XNYS|10=242|
20150504-11:59:49.159: 8=FIX.4.4|9=0066|35=0|49=ADR_ARBITRAGE_IB_XNYS|56=LVBSG|34=40|52=20150504-11:59:49|10=139|
20150504-12:00:27.312: 8=FIX.4.4|9=70|35=0|34=40|49=LVBSG|52=20150504-12:00:27.311|56=ADR_ARBITRAGE_IB_XNYS|10=216|
20150504-12:00:49.159: 8=FIX.4.4|9=0066|35=0|49=ADR_ARBITRAGE_IB_XNYS|56=LVBSG|34=41|52=20150504-12:00:49|10=127|
20150504-12:01:28.388: 8=FIX.4.4|9=70|35=0|34=41|49=LVBSG|52=20150504-12:01:28.387|56=ADR_ARBITRAGE_IB_XNYS|10=232|
20150504-12:01:49.159: 8=FIX.4.4|9=0066|35=0|49=ADR_ARBITRAGE_IB_XNYS|56=LVBSG|34=42|52=20150504-12:01:49|10=129|
20150504-12:02:29.454: 8=FIX.4.4|9=70|35=0|34=42|49=LVBSG|52=20150504-12:02:29.453|56=ADR_ARBITRAGE_IB_XNYS|10=229|
20150504-12:02:49.163: 8=FIX.4.4|9=0066|35=0|49=ADR_ARBITRAGE_IB_XNYS|56=LVBSG|34=43|52=20150504-12:02:49|10=131|
20150504-12:03:30.525: 8=FIX.4.4|9=70|35=0|34=43|49=LVBSG|52=20150504-12:03:30.525|56=ADR_ARBITRAGE_IB_XNYS|10=223|
20150504-12:03:49.162: 8=FIX.4.4|9=0066|35=0|49=ADR_ARBITRAGE_IB_XNYS|56=LVBSG|34=44|52=20150504-12:03:49|10=133|
20150504-12:04:31.601: 8=FIX.4.4|9=70|35=0|34=44|49=LVBSG|52=20150504-12:04:31.600|56=ADR_ARBITRAGE_IB_XNYS|10=220|
20150504-12:04:49.160: 8=FIX.4.4|9=0066|35=0|49=ADR_ARBITRAGE_IB_XNYS|56=LVBSG|34=45|52=20150504-12:04:49|10=135|
20150504-12:05:32.652: 8=FIX.4.4|9=70|35=0|34=45|49=LVBSG|52=20150504-12:05:32.651|56=ADR_ARBITRAGE_IB_XNYS|10=229|
20150504-12:05:49.159: 8=FIX.4.4|9=0066|35=0|49=ADR_ARBITRAGE_IB_XNYS|56=LVBSG|34=46|52=20150504-12:05:49|10=137|
20150504-12:06:33.729: 8=FIX.4.4|9=70|35=0|34=46|49=LVBSG|52=20150504-12:06:33.728|56=ADR_ARBITRAGE_IB_XNYS|10=237|
20150504-12:06:49.160: 8=FIX.4.4|9=0066|35=0|49=ADR_ARBITRAGE_IB_XNYS|56=LVBSG|34=47|52=20150504-12:06:49|10=139|
20150504-12:07:34.794: 8=FIX.4.4|9=70|35=0|34=47|49=LVBSG|52=20150504-12:07:34.793|56=ADR_ARBITRAGE_IB_XNYS|10=242|
20150504-12:07:49.166: 8=FIX.4.4|9=0066|35=0|49=ADR_ARBITRAGE_IB_XNYS|56=LVBSG|34=48|52=20150504-12:07:49|10=141|
20150504-12:08:35.844: 8=FIX.4.4|9=70|35=0|34=48|49=LVBSG|52=20150504-12:08:35.844|56=ADR_ARBITRAGE_IB_XNYS|10=242|
20150504-12:08:49.166: 8=FIX.4.4|9=0066|35=0|49=ADR_ARBITRAGE_IB_XNYS|56=LVBSG|34=49|52=20150504-12:08:49|10=143|
20150504-12:09:36.907: 8=FIX.4.4|9=70|35=0|34=49|49=LVBSG|52=20150504-12:09:36.906|56=ADR_ARBITRAGE_IB_XNYS|10=244|
20150504-12:09:49.160: 8=FIX.4.4|9=0066|35=0|49=ADR_ARBITRAGE_IB_XNYS|56=LVBSG|34=50|52=20150504-12:09:49|10=136|
20150504-12:10:37.963: 8=FIX.4.4|9=70|35=0|34=50|49=LVBSG|52=20150504-12:10:37.962|56=ADR_ARBITRAGE_IB_XNYS|10=231|
20150504-12:10:49.161: 8=FIX.4.4|9=0066|35=0|49=ADR_ARBITRAGE_IB_XNYS|56=LVBSG|34=51|52=20150504-12:10:49|10=129|
20150504-12:11:39.061: 8=FIX.4.4|9=70|35=0|34=51|49=LVBSG|52=20150504-12:11:39.060|56=ADR_ARBITRAGE_IB_XNYS|10=224|
20150504-12:11:49.160: 8=FIX.4.4|9=0066|35=0|49=ADR_ARBITRAGE_IB_XNYS|56=LVBSG|34=52|52=20150504-12:11:49|10=131|
20150504-12:12:40.115: 8=FIX.4.4|9=70|35=0|34=52|49=LVBSG|52=20150504-12:12:40.114|56=ADR_ARBITRAGE_IB_XNYS|10=218|
20150504-12:12:49.160: 8=FIX.4.4|9=0066|35=0|49=ADR_ARBITRAGE_IB_XNYS|56=LVBSG|34=53|52=20150504-12:12:49|10=133|
20150504-12:13:41.182: 8=FIX.4.4|9=70|35=0|34=53|49=LVBSG|52=20150504-12:13:41.182|56=ADR_ARBITRAGE_IB_XNYS|10=226|
20150504-12:13:49.167: 8=FIX.4.4|9=0066|35=0|49=ADR_ARBITRAGE_IB_XNYS|56=LVBSG|34=54|52=20150504-12:13:49|10=135|
20150504-12:14:42.244: 8=FIX.4.4|9=70|35=0|34=54|49=LVBSG|52=20150504-12:14:42.243|56=ADR_ARBITRAGE_IB_XNYS|10=227|
20150504-12:14:49.160: 8=FIX.4.4|9=0066|35=0|49=ADR_ARBITRAGE_IB_XNYS|56=LVBSG|34=55|52=20150504-12:14:49|10=137|
20150504-12:15:43.308: 8=FIX.4.4|9=70|35=0|34=55|49=LVBSG|52=20150504-12:15:43.308|56=ADR_ARBITRAGE_IB_XNYS|10=232|
20150504-12:15:49.161: 8=FIX.4.4|9=0066|35=0|49=ADR_ARBITRAGE_IB_XNYS|56=LVBSG|34=56|52=20150504-12:15:49|10=139|
20150504-12:16:44.377: 8=FIX.4.4|9=70|35=0|34=56|49=LVBSG|52=20150504-12:16:44.376|56=ADR_ARBITRAGE_IB_XNYS|10=240|
20150504-12:16:49.160: 8=FIX.4.4|9=0066|35=0|49=ADR_ARBITRAGE_IB_XNYS|56=LVBSG|34=57|52=20150504-12:16:49|10=141|
20150504-12:17:45.413: 8=FIX.4.4|9=70|35=0|34=57|49=LVBSG|52=20150504-12:17:45.413|56=ADR_ARBITRAGE_IB_XNYS|10=235|
20150504-12:17:49.161: 8=FIX.4.4|9=0066|35=0|49=ADR_ARBITRAGE_IB_XNYS|56=LVBSG|34=58|52=20150504-12:17:49|10=143|
20150504-12:18:46.480: 8=FIX.4.4|9=70|35=0|34=58|49=LVBSG|52=20150504-12:18:46.480|56=ADR_ARBITRAGE_IB_XNYS|10=242|
20150504-12:18:49.162: 8=FIX.4.4|9=0066|35=0|49=ADR_ARBITRAGE_IB_XNYS|56=LVBSG|34=59|52=20150504-12:18:49|10=145|
20150504-12:19:47.543: 8=FIX.4.4|9=70|35=0|34=59|49=LVBSG|52=20150504-12:19:47.543|56=ADR_ARBITRAGE_IB_XNYS|10=245|
20150504-12:19:49.163: 8=FIX.4.4|9=0066|35=0|49=ADR_ARBITRAGE_IB_XNYS|56=LVBSG|34=60|52=20150504-12:19:49|10=138|
20150504-12:20:48.597: 8=FIX.4.4|9=70|35=0|34=60|49=LVBSG|52=20150504-12:20:48.597|56=ADR_ARBITRAGE_IB_XNYS|10=239|
20150504-12:20:49.163: 8=FIX.4.4|9=0066|35=0|49=ADR_ARBITRAGE_IB_XNYS|56=LVBSG|34=61|52=20150504-12:20:49|10=131|
20150504-12:21:49.164: 8=FIX.4.4|9=0066|35=0|49=ADR_ARBITRAGE_IB_XNYS|56=LVBSG|34=62|52=20150504-12:21:49|10=133|
20150504-12:21:49.166: 8=FIX.4.4|9=70|35=0|34=61|49=LVBSG|52=20150504-12:21:49.165|56=ADR_ARBITRAGE_IB_XNYS|10=233|
20150504-12:22:49.169: 8=FIX.4.4|9=0066|35=0|49=ADR_ARBITRAGE_IB_XNYS|56=LVBSG|34=63|52=20150504-12:22:49|10=135|
20150504-12:22:49.171: 8=FIX.4.4|9=70|35=0|34=62|49=LVBSG|52=20150504-12:22:49.171|56=ADR_ARBITRAGE_IB_XNYS|10=232|
20150504-12:23:49.167: 8=FIX.4.4|9=0066|35=0|49=ADR_ARBITRAGE_IB_XNYS|56=LVBSG|34=64|52=20150504-12:23:49|10=137|
20150504-12:23:51.767: 8=FIX.4.4|9=70|35=0|34=63|49=LVBSG|52=20150504-12:23:51.766|56=ADR_ARBITRAGE_IB_XNYS|10=237|
20150504-12:24:49.164: 8=FIX.4.4|9=0066|35=0|49=ADR_ARBITRAGE_IB_XNYS|56=LVBSG|34=65|52=20150504-12:24:49|10=139|
20150504-12:24:52.832: 8=FIX.4.4|9=70|35=0|34=64|49=LVBSG|52=20150504-12:24:52.831|56=ADR_ARBITRAGE_IB_XNYS|10=233|
20150504-12:25:49.164: 8=FIX.4.4|9=0066|35=0|49=ADR_ARBITRAGE_IB_XNYS|56=LVBSG|34=66|52=20150504-12:25:49|10=141|
20150504-12:25:53.896: 8=FIX.4.4|9=70|35=0|34=65|49=LVBSG|52=20150504-12:25:53.895|56=ADR_ARBITRAGE_IB_XNYS|10=246|
20150504-12:26:49.164: 8=FIX.4.4|9=0066|35=0|49=ADR_ARBITRAGE_IB_XNYS|56=LVBSG|34=67|52=20150504-12:26:49|10=143|
20150504-12:26:54.938: 8=FIX.4.4|9=70|35=0|34=66|49=LVBSG|52=20150504-12:26:54.937|56=ADR_ARBITRAGE_IB_XNYS|10=246|
20150504-12:27:49.165: 8=FIX.4.4|9=0066|35=0|49=ADR_ARBITRAGE_IB_XNYS|56=LVBSG|34=68|52=20150504-12:27:49|10=145|
20150504-12:27:55.987: 8=FIX.4.4|9=70|35=0|34=67|49=LVBSG|52=20150504-12:27:55.986|56=ADR_ARBITRAGE_IB_XNYS|10=253|
20150504-12:28:49.166: 8=FIX.4.4|9=0066|35=0|49=ADR_ARBITRAGE_IB_XNYS|56=LVBSG|34=69|52=20150504-12:28:49|10=147|
20150504-12:28:57.046: 8=FIX.4.4|9=70|35=0|34=68|49=LVBSG|52=20150504-12:28:57.046|56=ADR_ARBITRAGE_IB_XNYS|10=244|
20150504-12:29:49.165: 8=FIX.4.4|9=0066|35=0|49=ADR_ARBITRAGE_IB_XNYS|56=LVBSG|34=70|52=20150504-12:29:49|10=140|
20150504-12:29:58.101: 8=FIX.4.4|9=70|35=0|34=69|49=LVBSG|52=20150504-12:29:58.100|56=ADR_ARBITRAGE_IB_XNYS|10=238|
20150504-12:30:49.167: 8=FIX.4.4|9=0066|35=0|49=ADR_ARBITRAGE_IB_XNYS|56=LVBSG|34=71|52=20150504-12:30:49|10=133|
20150504-12:30:58.954: 8=FIX.4.4|9=70|35=0|34=70|49=LVBSG|52=20150504-12:30:58.953|56=ADR_ARBITRAGE_IB_XNYS|10=238|
20150504-12:31:49.166: 8=FIX.4.4|9=0066|35=0|49=ADR_ARBITRAGE_IB_XNYS|56=LVBSG|34=72|52=20150504-12:31:49|10=135|
20150504-12:31:58.955: 8=FIX.4.4|9=70|35=0|34=71|49=LVBSG|52=20150504-12:31:58.954|56=ADR_ARBITRAGE_IB_XNYS|10=241|
20150504-12:32:49.167: 8=FIX.4.4|9=0066|35=0|49=ADR_ARBITRAGE_IB_XNYS|56=LVBSG|34=73|52=20150504-12:32:49|10=137|
20150504-12:32:58.954: 8=FIX.4.4|9=70|35=0|34=72|49=LVBSG|52=20150504-12:32:58.954|56=ADR_ARBITRAGE_IB_XNYS|10=243|
20150504-12:33:49.165: 8=FIX.4.4|9=0066|35=0|49=ADR_ARBITRAGE_IB_XNYS|56=LVBSG|34=74|52=20150504-12:33:49|10=139|
20150504-12:33:59.954: 8=FIX.4.4|9=70|35=0|34=73|49=LVBSG|52=20150504-12:33:59.953|56=ADR_ARBITRAGE_IB_XNYS|10=245|
20150504-12:34:49.165: 8=FIX.4.4|9=0066|35=0|49=ADR_ARBITRAGE_IB_XNYS|56=LVBSG|34=75|52=20150504-12:34:49|10=141|
20150504-12:34:59.955: 8=FIX.4.4|9=70|35=0|34=74|49=LVBSG|52=20150504-12:34:59.954|56=ADR_ARBITRAGE_IB_XNYS|10=248|
20150504-12:35:49.166: 8=FIX.4.4|9=0066|35=0|49=ADR_ARBITRAGE_IB_XNYS|56=LVBSG|34=76|52=20150504-12:35:49|10=143|
20150504-12:35:59.954: 8=FIX.4.4|9=70|35=0|34=75|49=LVBSG|52=20150504-12:35:59.954|56=ADR_ARBITRAGE_IB_XNYS|10=250|
20150504-12:36:49.165: 8=FIX.4.4|9=0066|35=0|49=ADR_ARBITRAGE_IB_XNYS|56=LVBSG|34=77|52=20150504-12:36:49|10=145|
20150504-12:36:59.955: 8=FIX.4.4|9=70|35=0|34=76|49=LVBSG|52=20150504-12:36:59.954|56=ADR_ARBITRAGE_IB_XNYS|10=252|
20150504-12:37:49.165: 8=FIX.4.4|9=0066|35=0|49=ADR_ARBITRAGE_IB_XNYS|56=LVBSG|34=78|52=20150504-12:37:49|10=147|
20150504-12:38:00.955: 8=FIX.4.4|9=70|35=0|34=77|49=LVBSG|52=20150504-12:38:00.954|56=ADR_ARBITRAGE_IB_XNYS|10=241|
20150504-12:38:49.165: 8=FIX.4.4|9=0066|35=0|49=ADR_ARBITRAGE_IB_XNYS|56=LVBSG|34=79|52=20150504-12:38:49|10=149|
20150504-12:39:01.954: 8=FIX.4.4|9=70|35=0|34=78|49=LVBSG|52=20150504-12:39:01.953|56=ADR_ARBITRAGE_IB_XNYS|10=243|
20150504-12:39:49.167: 8=FIX.4.4|9=0066|35=0|49=ADR_ARBITRAGE_IB_XNYS|56=LVBSG|34=80|52=20150504-12:39:49|10=142|
20150504-12:40:01.954: 8=FIX.4.4|9=70|35=0|34=79|49=LVBSG|52=20150504-12:40:01.954|56=ADR_ARBITRAGE_IB_XNYS|10=237|
20150504-12:40:49.167: 8=FIX.4.4|9=0066|35=0|49=ADR_ARBITRAGE_IB_XNYS|56=LVBSG|34=81|52=20150504-12:40:49|10=135|
20150504-12:41:02.955: 8=FIX.4.4|9=70|35=0|34=80|49=LVBSG|52=20150504-12:41:02.954|56=ADR_ARBITRAGE_IB_XNYS|10=231|
20150504-12:41:49.167: 8=FIX.4.4|9=0066|35=0|49=ADR_ARBITRAGE_IB_XNYS|56=LVBSG|34=82|52=20150504-12:41:49|10=137|
20150504-12:42:03.954: 8=FIX.4.4|9=70|35=0|34=81|49=LVBSG|52=20150504-12:42:03.954|56=ADR_ARBITRAGE_IB_XNYS|10=234|
20150504-12:42:49.185: 8=FIX.4.4|9=0066|35=0|49=ADR_ARBITRAGE_IB_XNYS|56=LVBSG|34=83|52=20150504-12:42:49|10=139|
20150504-12:43:03.954: 8=FIX.4.4|9=70|35=0|34=82|49=LVBSG|52=20150504-12:43:03.954|56=ADR_ARBITRAGE_IB_XNYS|10=236|
20150504-12:43:49.171: 8=FIX.4.4|9=0066|35=0|49=ADR_ARBITRAGE_IB_XNYS|56=LVBSG|34=84|52=20150504-12:43:49|10=141|
20150504-12:44:04.954: 8=FIX.4.4|9=70|35=0|34=83|49=LVBSG|52=20150504-12:44:04.953|56=ADR_ARBITRAGE_IB_XNYS|10=238|
20150504-12:44:49.167: 8=FIX.4.4|9=0066|35=0|49=ADR_ARBITRAGE_IB_XNYS|56=LVBSG|34=85|52=20150504-12:44:49|10=143|
20150504-12:45:04.954: 8=FIX.4.4|9=70|35=0|34=84|49=LVBSG|52=20150504-12:45:04.953|56=ADR_ARBITRAGE_IB_XNYS|10=240|
20150504-12:45:49.167: 8=FIX.4.4|9=0066|35=0|49=ADR_ARBITRAGE_IB_XNYS|56=LVBSG|34=86|52=20150504-12:45:49|10=145|
20150504-12:46:04.955: 8=FIX.4.4|9=70|35=0|34=85|49=LVBSG|52=20150504-12:46:04.954|56=ADR_ARBITRAGE_IB_XNYS|10=243|
20150504-12:46:49.168: 8=FIX.4.4|9=0066|35=0|49=ADR_ARBITRAGE_IB_XNYS|56=LVBSG|34=87|52=20150504-12:46:49|10=147|
20150504-12:47:04.955: 8=FIX.4.4|9=70|35=0|34=86|49=LVBSG|52=20150504-12:47:04.954|56=ADR_ARBITRAGE_IB_XNYS|10=245|
20150504-12:47:49.167: 8=FIX.4.4|9=0066|35=0|49=ADR_ARBITRAGE_IB_XNYS|56=LVBSG|34=88|52=20150504-12:47:49|10=149|
20150504-12:48:04.955: 8=FIX.4.4|9=70|35=0|34=87|49=LVBSG|52=20150504-12:48:04.954|56=ADR_ARBITRAGE_IB_XNYS|10=247|
20150504-12:48:49.168: 8=FIX.4.4|9=0066|35=0|49=ADR_ARBITRAGE_IB_XNYS|56=LVBSG|34=89|52=20150504-12:48:49|10=151|
20150504-12:49:05.954: 8=FIX.4.4|9=70|35=0|34=88|49=LVBSG|52=20150504-12:49:05.954|56=ADR_ARBITRAGE_IB_XNYS|10=250|
20150504-12:49:49.169: 8=FIX.4.4|9=0066|35=0|49=ADR_ARBITRAGE_IB_XNYS|56=LVBSG|34=90|52=20150504-12:49:49|10=144|
20150504-12:50:05.954: 8=FIX.4.4|9=70|35=0|34=89|49=LVBSG|52=20150504-12:50:05.954|56=ADR_ARBITRAGE_IB_XNYS|10=243|
20150504-12:50:49.168: 8=FIX.4.4|9=0066|35=0|49=ADR_ARBITRAGE_IB_XNYS|56=LVBSG|34=91|52=20150504-12:50:49|10=137|
20150504-12:51:05.954: 8=FIX.4.4|9=70|35=0|34=90|49=LVBSG|52=20150504-12:51:05.954|56=ADR_ARBITRAGE_IB_XNYS|10=236|
20150504-12:51:49.167: 8=FIX.4.4|9=0066|35=0|49=ADR_ARBITRAGE_IB_XNYS|56=LVBSG|34=92|52=20150504-12:51:49|10=139|
20150504-12:52:05.955: 8=FIX.4.4|9=70|35=0|34=91|49=LVBSG|52=20150504-12:52:05.955|56=ADR_ARBITRAGE_IB_XNYS|10=239|
20150504-12:52:49.169: 8=FIX.4.4|9=0066|35=0|49=ADR_ARBITRAGE_IB_XNYS|56=LVBSG|34=93|52=20150504-12:52:49|10=141|
20150504-12:53:06.955: 8=FIX.4.4|9=70|35=0|34=92|49=LVBSG|52=20150504-12:53:06.955|56=ADR_ARBITRAGE_IB_XNYS|10=242|
20150504-12:53:49.169: 8=FIX.4.4|9=0066|35=0|49=ADR_ARBITRAGE_IB_XNYS|56=LVBSG|34=94|52=20150504-12:53:49|10=143|
20150504-12:54:07.954: 8=FIX.4.4|9=70|35=0|34=93|49=LVBSG|52=20150504-12:54:07.953|56=ADR_ARBITRAGE_IB_XNYS|10=243|
20150504-12:54:49.169: 8=FIX.4.4|9=0066|35=0|49=ADR_ARBITRAGE_IB_XNYS|56=LVBSG|34=95|52=20150504-12:54:49|10=145|
20150504-12:55:07.954: 8=FIX.4.4|9=70|35=0|34=94|49=LVBSG|52=20150504-12:55:07.954|56=ADR_ARBITRAGE_IB_XNYS|10=246|
20150504-12:55:49.170: 8=FIX.4.4|9=0066|35=0|49=ADR_ARBITRAGE_IB_XNYS|56=LVBSG|34=96|52=20150504-12:55:49|10=147|
20150504-12:56:08.954: 8=FIX.4.4|9=70|35=0|34=95|49=LVBSG|52=20150504-12:56:08.953|56=ADR_ARBITRAGE_IB_XNYS|10=248|
20150504-12:56:49.170: 8=FIX.4.4|9=0066|35=0|49=ADR_ARBITRAGE_IB_XNYS|56=LVBSG|34=97|52=20150504-12:56:49|10=149|
20150504-12:57:08.954: 8=FIX.4.4|9=70|35=0|34=96|49=LVBSG|52=20150504-12:57:08.954|56=ADR_ARBITRAGE_IB_XNYS|10=251|
20150504-12:57:49.170: 8=FIX.4.4|9=0066|35=0|49=ADR_ARBITRAGE_IB_XNYS|56=LVBSG|34=98|52=20150504-12:57:49|10=151|
20150504-12:58:08.954: 8=FIX.4.4|9=70|35=0|34=97|49=LVBSG|52=20150504-12:58:08.954|56=ADR_ARBITRAGE_IB_XNYS|10=253|
20150504-12:58:49.171: 8=FIX.4.4|9=0066|35=0|49=ADR_ARBITRAGE_IB_XNYS|56=LVBSG|34=99|52=20150504-12:58:49|10=153|
20150504-12:59:08.955: 8=FIX.4.4|9=70|35=0|34=98|49=LVBSG|52=20150504-12:59:08.955|56=ADR_ARBITRAGE_IB_XNYS|10=000|
20150504-12:59:49.171: 8=FIX.4.4|9=0067|35=0|49=ADR_ARBITRAGE_IB_XNYS|56=LVBSG|34=100|52=20150504-12:59:49|10=186|
20150504-13:00:09.958: 8=FIX.4.4|9=70|35=0|34=99|49=LVBSG|52=20150504-13:00:09.958|56=ADR_ARBITRAGE_IB_XNYS|10=248|
20150504-13:00:49.171: 8=FIX.4.4|9=0067|35=0|49=ADR_ARBITRAGE_IB_XNYS|56=LVBSG|34=101|52=20150504-13:00:49|10=174|
20150504-13:01:10.954: 8=FIX.4.4|9=71|35=0|34=100|49=LVBSG|52=20150504-13:01:10.954|56=ADR_ARBITRAGE_IB_XNYS|10=013|
20150504-13:01:49.171: 8=FIX.4.4|9=0067|35=0|49=ADR_ARBITRAGE_IB_XNYS|56=LVBSG|34=102|52=20150504-13:01:49|10=176|
20150504-13:02:10.956: 8=FIX.4.4|9=71|35=0|34=101|49=LVBSG|52=20150504-13:02:10.955|56=ADR_ARBITRAGE_IB_XNYS|10=016|
20150504-13:02:49.171: 8=FIX.4.4|9=0067|35=0|49=ADR_ARBITRAGE_IB_XNYS|56=LVBSG|34=103|52=20150504-13:02:49|10=178|
20150504-13:03:11.956: 8=FIX.4.4|9=71|35=0|34=102|49=LVBSG|52=20150504-13:03:11.955|56=ADR_ARBITRAGE_IB_XNYS|10=019|
20150504-13:03:49.176: 8=FIX.4.4|9=0067|35=0|49=ADR_ARBITRAGE_IB_XNYS|56=LVBSG|34=104|52=20150504-13:03:49|10=180|
20150504-13:04:12.955: 8=FIX.4.4|9=71|35=0|34=103|49=LVBSG|52=20150504-13:04:12.955|56=ADR_ARBITRAGE_IB_XNYS|10=022|
20150504-13:04:49.178: 8=FIX.4.4|9=0067|35=0|49=ADR_ARBITRAGE_IB_XNYS|56=LVBSG|34=105|52=20150504-13:04:49|10=182|
20150504-13:05:13.955: 8=FIX.4.4|9=71|35=0|34=104|49=LVBSG|52=20150504-13:05:13.954|56=ADR_ARBITRAGE_IB_XNYS|10=024|
20150504-13:05:49.175: 8=FIX.4.4|9=0067|35=0|49=ADR_ARBITRAGE_IB_XNYS|56=LVBSG|34=106|52=20150504-13:05:49|10=184|
20150504-13:06:13.955: 8=FIX.4.4|9=71|35=0|34=105|49=LVBSG|52=20150504-13:06:13.955|56=ADR_ARBITRAGE_IB_XNYS|10=027|
20150504-13:06:49.172: 8=FIX.4.4|9=0067|35=0|49=ADR_ARBITRAGE_IB_XNYS|56=LVBSG|34=107|52=20150504-13:06:49|10=186|
20150504-13:07:14.955: 8=FIX.4.4|9=71|35=0|34=106|49=LVBSG|52=20150504-13:07:14.955|56=ADR_ARBITRAGE_IB_XNYS|10=030|
20150504-13:07:49.174: 8=FIX.4.4|9=0067|35=0|49=ADR_ARBITRAGE_IB_XNYS|56=LVBSG|34=108|52=20150504-13:07:49|10=188|
20150504-13:08:14.955: 8=FIX.4.4|9=71|35=0|34=107|49=LVBSG|52=20150504-13:08:14.955|56=ADR_ARBITRAGE_IB_XNYS|10=032|
20150504-13:08:49.175: 8=FIX.4.4|9=0067|35=0|49=ADR_ARBITRAGE_IB_XNYS|56=LVBSG|34=109|52=20150504-13:08:49|10=190|
20150504-13:09:15.955: 8=FIX.4.4|9=71|35=0|34=108|49=LVBSG|52=20150504-13:09:15.955|56=ADR_ARBITRAGE_IB_XNYS|10=035|
20150504-13:09:49.180: 8=FIX.4.4|9=0067|35=0|49=ADR_ARBITRAGE_IB_XNYS|56=LVBSG|34=110|52=20150504-13:09:49|10=183|
20150504-13:10:16.955: 8=FIX.4.4|9=71|35=0|34=109|49=LVBSG|52=20150504-13:10:16.955|56=ADR_ARBITRAGE_IB_XNYS|10=029|
20150504-13:10:49.174: 8=FIX.4.4|9=0067|35=0|49=ADR_ARBITRAGE_IB_XNYS|56=LVBSG|34=111|52=20150504-13:10:49|10=176|
20150504-13:11:17.955: 8=FIX.4.4|9=71|35=0|34=110|49=LVBSG|52=20150504-13:11:17.955|56=ADR_ARBITRAGE_IB_XNYS|10=023|
20150504-13:11:49.174: 8=FIX.4.4|9=0067|35=0|49=ADR_ARBITRAGE_IB_XNYS|56=LVBSG|34=112|52=20150504-13:11:49|10=178|
20150504-13:12:17.956: 8=FIX.4.4|9=71|35=0|34=111|49=LVBSG|52=20150504-13:12:17.955|56=ADR_ARBITRAGE_IB_XNYS|10=025|
20150504-13:12:49.175: 8=FIX.4.4|9=0067|35=0|49=ADR_ARBITRAGE_IB_XNYS|56=LVBSG|34=113|52=20150504-13:12:49|10=180|
20150504-13:13:18.955: 8=FIX.4.4|9=71|35=0|34=112|49=LVBSG|52=20150504-13:13:18.954|56=ADR_ARBITRAGE_IB_XNYS|10=027|
20150504-13:13:49.175: 8=FIX.4.4|9=0067|35=0|49=ADR_ARBITRAGE_IB_XNYS|56=LVBSG|34=114|52=20150504-13:13:49|10=182|
20150504-13:14:18.956: 8=FIX.4.4|9=71|35=0|34=113|49=LVBSG|52=20150504-13:14:18.955|56=ADR_ARBITRAGE_IB_XNYS|10=030|
20150504-13:14:49.174: 8=FIX.4.4|9=0067|35=0|49=ADR_ARBITRAGE_IB_XNYS|56=LVBSG|34=115|52=20150504-13:14:49|10=184|
20150504-13:15:18.955: 8=FIX.4.4|9=71|35=0|34=114|49=LVBSG|52=20150504-13:15:18.955|56=ADR_ARBITRAGE_IB_XNYS|10=032|
20150504-13:15:49.187: 8=FIX.4.4|9=0067|35=0|49=ADR_ARBITRAGE_IB_XNYS|56=LVBSG|34=116|52=20150504-13:15:49|10=186|
20150504-13:16:18.955: 8=FIX.4.4|9=71|35=0|34=115|49=LVBSG|52=20150504-13:16:18.955|56=ADR_ARBITRAGE_IB_XNYS|10=034|
20150504-13:16:49.174: 8=FIX.4.4|9=0067|35=0|49=ADR_ARBITRAGE_IB_XNYS|56=LVBSG|34=117|52=20150504-13:16:49|10=188|
20150504-13:17:19.955: 8=FIX.4.4|9=71|35=0|34=116|49=LVBSG|52=20150504-13:17:19.955|56=ADR_ARBITRAGE_IB_XNYS|10=037|
20150504-13:17:49.174: 8=FIX.4.4|9=0067|35=0|49=ADR_ARBITRAGE_IB_XNYS|56=LVBSG|34=118|52=20150504-13:17:49|10=190|
20150504-13:18:20.955: 8=FIX.4.4|9=71|35=0|34=117|49=LVBSG|52=20150504-13:18:20.955|56=ADR_ARBITRAGE_IB_XNYS|10=031|
20150504-13:18:49.175: 8=FIX.4.4|9=0067|35=0|49=ADR_ARBITRAGE_IB_XNYS|56=LVBSG|34=119|52=20150504-13:18:49|10=192|
20150504-13:19:20.957: 8=FIX.4.4|9=71|35=0|34=118|49=LVBSG|52=20150504-13:19:20.956|56=ADR_ARBITRAGE_IB_XNYS|10=034|
20150504-13:19:49.177: 8=FIX.4.4|9=0067|35=0|49=ADR_ARBITRAGE_IB_XNYS|56=LVBSG|34=120|52=20150504-13:19:49|10=185|
20150504-13:20:21.955: 8=FIX.4.4|9=71|35=0|34=119|49=LVBSG|52=20150504-13:20:21.954|56=ADR_ARBITRAGE_IB_XNYS|10=026|
20150504-13:20:49.176: 8=FIX.4.4|9=0067|35=0|49=ADR_ARBITRAGE_IB_XNYS|56=LVBSG|34=121|52=20150504-13:20:49|10=178|
20150504-13:21:21.955: 8=FIX.4.4|9=71|35=0|34=120|49=LVBSG|52=20150504-13:21:21.955|56=ADR_ARBITRAGE_IB_XNYS|10=020|
20150504-13:21:49.179: 8=FIX.4.4|9=0067|35=0|49=ADR_ARBITRAGE_IB_XNYS|56=LVBSG|34=122|52=20150504-13:21:49|10=180|
20150504-13:22:22.955: 8=FIX.4.4|9=71|35=0|34=121|49=LVBSG|52=20150504-13:22:22.954|56=ADR_ARBITRAGE_IB_XNYS|10=022|
20150504-13:22:49.177: 8=FIX.4.4|9=0067|35=0|49=ADR_ARBITRAGE_IB_XNYS|56=LVBSG|34=123|52=20150504-13:22:49|10=182|
20150504-13:23:22.955: 8=FIX.4.4|9=71|35=0|34=122|49=LVBSG|52=20150504-13:23:22.955|56=ADR_ARBITRAGE_IB_XNYS|10=025|
20150504-13:23:49.178: 8=FIX.4.4|9=0067|35=0|49=ADR_ARBITRAGE_IB_XNYS|56=LVBSG|34=124|52=20150504-13:23:49|10=184|
20150504-13:24:23.955: 8=FIX.4.4|9=71|35=0|34=123|49=LVBSG|52=20150504-13:24:23.954|56=ADR_ARBITRAGE_IB_XNYS|10=027|
20150504-13:24:49.187: 8=FIX.4.4|9=0067|35=0|49=ADR_ARBITRAGE_IB_XNYS|56=LVBSG|34=125|52=20150504-13:24:49|10=186|
20150504-13:25:23.954: 8=FIX.4.4|9=71|35=0|34=124|49=LVBSG|52=20150504-13:25:23.954|56=ADR_ARBITRAGE_IB_XNYS|10=029|
20150504-13:25:49.188: 8=FIX.4.4|9=0067|35=0|49=ADR_ARBITRAGE_IB_XNYS|56=LVBSG|34=126|52=20150504-13:25:49|10=188|
20150504-13:26:23.955: 8=FIX.4.4|9=71|35=0|34=125|49=LVBSG|52=20150504-13:26:23.955|56=ADR_ARBITRAGE_IB_XNYS|10=032|
20150504-13:26:49.177: 8=FIX.4.4|9=0067|35=0|49=ADR_ARBITRAGE_IB_XNYS|56=LVBSG|34=127|52=20150504-13:26:49|10=190|
20150504-13:27:23.955: 8=FIX.4.4|9=71|35=0|34=126|49=LVBSG|52=20150504-13:27:23.955|56=ADR_ARBITRAGE_IB_XNYS|10=034|
20150504-13:27:49.179: 8=FIX.4.4|9=0067|35=0|49=ADR_ARBITRAGE_IB_XNYS|56=LVBSG|34=128|52=20150504-13:27:49|10=192|
20150504-13:28:24.956: 8=FIX.4.4|9=71|35=0|34=127|49=LVBSG|52=20150504-13:28:24.956|56=ADR_ARBITRAGE_IB_XNYS|10=038|
20150504-13:28:49.177: 8=FIX.4.4|9=0067|35=0|49=ADR_ARBITRAGE_IB_XNYS|56=LVBSG|34=129|52=20150504-13:28:49|10=194|
20150504-13:29:25.955: 8=FIX.4.4|9=71|35=0|34=128|49=LVBSG|52=20150504-13:29:25.955|56=ADR_ARBITRAGE_IB_XNYS|10=040|
20150504-13:29:49.178: 8=FIX.4.4|9=0067|35=0|49=ADR_ARBITRAGE_IB_XNYS|56=LVBSG|34=130|52=20150504-13:29:49|10=187|
20150504-13:30:05.337: 8=FIX.4.4|9=268|35=D|34=129|49=LVBSG|50=7369691|52=20150504-13:30:05.336|56=ADR_ARBITRAGE_IB_XNYS|57=XPUS|1=U1216799|11=-6c7fba58ebab573|21=1|38=300|40=2|44=69.84|54=2|55=BCH|59=0|60=20150504-13:30:05.336|63=4|100=SMART|111=100|207=SMART|583=1f73c3d6476b4f6c|453=1|448=IB|447=D|452=1|10=105|
20150504-13:30:05.360: 8=FIX.4.4|9=0335|35=8|49=ADR_ARBITRAGE_IB_XNYS|56=LVBSG|34=131|52=20150504-13:30:05|50=XPUS|57=7369691|1=U1216799|207=SMART|6=0|11=-6c7fba58ebab573|14=0|17=-4e1253dc058ab88b|21=1|150=A|31=0|151=300|32=0|100=SMART|38=300|39=A|37=44ab4dd0befb4767|583=1f73c3d6476b4f6c|40=2|44=69.84|55=BCH|54=2|59=0|63=4|60=20150504-13:30:05.349|453=1|448=IB|447=D|452=1|10=115|
20150504-13:30:05.550: 8=FIX.4.4|9=0336|35=8|49=ADR_ARBITRAGE_IB_XNYS|56=LVBSG|34=132|52=20150504-13:30:05|50=XPUS|57=7369691|1=U1216799|207=SMART|6=0|11=-6c7fba58ebab573|14=0|17=81760.1430746205.1|21=1|150=0|31=0|151=300|32=0|100=SMART|38=300|39=0|37=44ab4dd0befb4767|583=1f73c3d6476b4f6c|40=2|44=69.84|55=BCH|54=2|59=0|63=4|60=20150504-13:30:05.540|453=1|448=IB|447=D|452=1|10=085|
20150504-13:30:05.555: 8=FIX.4.4|9=278|35=G|34=130|49=LVBSG|50=7369691|52=20150504-13:30:05.554|56=ADR_ARBITRAGE_IB_XNYS|57=XPUS|1=U1216799|11=160ce25a1a924f1e|21=1|38=500|40=2|41=-6c7fba58ebab573|44=69.84|54=2|55=BCH|59=0|60=20150504-13:30:05.553|63=4|100=SMART|111=100|583=1f73c3d6476b4f6c|453=1|448=IB|447=D|452=1|10=003|
20150504-13:30:05.651: 8=FIX.4.4|9=0355|35=8|49=ADR_ARBITRAGE_IB_XNYS|56=LVBSG|34=133|52=20150504-13:30:05|50=XPUS|57=7369691|1=U1216799|207=SMART|6=0|11=160ce25a1a924f1e|14=0|17=-1141bdcc6529b0d3|21=1|150=E|31=0|151=300|32=0|100=SMART|38=500|39=E|37=44ab4dd0befb4767|583=1f73c3d6476b4f6c|40=2|41=-6c7fba58ebab573|44=69.84|55=BCH|54=2|59=0|63=4|60=20150504-13:30:05.640|453=1|448=IB|447=D|452=1|10=103|
20150504-13:30:05.695: 8=FIX.4.4|9=268|35=D|34=131|49=LVBSG|50=7369691|52=20150504-13:30:05.694|56=ADR_ARBITRAGE_IB_XNYS|57=XPUS|1=U1216799|11=-df70607ca02bd67|21=1|38=500|40=2|44=22.32|54=2|55=SQM|59=0|60=20150504-13:30:05.694|63=4|100=SMART|111=100|207=SMART|583=4ddc48d71caf41e0|453=1|448=IB|447=D|452=1|10=112|
20150504-13:30:05.725: 8=FIX.4.4|9=0334|35=8|49=ADR_ARBITRAGE_IB_XNYS|56=LVBSG|34=134|52=20150504-13:30:05|50=XPUS|57=7369691|1=U1216799|207=SMART|6=0|11=-df70607ca02bd67|14=0|17=74b8d7f4973441c3|21=1|150=A|31=0|151=500|32=0|100=SMART|38=500|39=A|37=22e19a6d762c49ad|583=4ddc48d71caf41e0|40=2|44=22.32|55=SQM|54=2|59=0|63=4|60=20150504-13:30:05.709|453=1|448=IB|447=D|452=1|10=157|
20150504-13:30:05.911: 8=FIX.4.4|9=0373|35=8|49=ADR_ARBITRAGE_IB_XNYS|56=LVBSG|34=135|52=20150504-13:30:05|50=XPUS|57=7369691|1=U1216799|207=SMART|6=69.85|11=160ce25a1a924f1e|14=100|17=0000d322.aa8ecc9b.02.01|21=1|150=F|31=69.85|151=200|32=100|100=SMART|38=300|39=1|37=44ab4dd0befb4767|583=1f73c3d6476b4f6c|40=2|41=-6c7fba58ebab573|44=69.84|55=BCH|54=2|59=0|63=4|60=20150504-13:30:05.845|453=1|448=IB|447=D|452=1|10=025|
20150504-13:30:05.912: 8=FIX.4.4|9=0374|35=8|49=ADR_ARBITRAGE_IB_XNYS|56=LVBSG|34=136|52=20150504-13:30:05|50=XPUS|57=7369691|1=U1216799|207=SMART|6=69.865|11=160ce25a1a924f1e|14=200|17=00010ff0.554763e5.01.01|21=1|150=F|31=69.88|151=100|32=100|100=SMART|38=300|39=1|37=44ab4dd0befb4767|583=1f73c3d6476b4f6c|40=2|41=-6c7fba58ebab573|44=69.84|55=BCH|54=2|59=0|63=4|60=20150504-13:30:05.856|453=1|448=IB|447=D|452=1|10=159|
20150504-13:30:05.912: 8=FIX.4.4|9=0375|35=8|49=ADR_ARBITRAGE_IB_XNYS|56=LVBSG|34=137|52=20150504-13:30:05|50=XPUS|57=7369691|1=U1216799|207=SMART|6=69.866667|11=160ce25a1a924f1e|14=300|17=00010ff0.554763e6.01.01|21=1|150=F|31=69.87|151=0|32=100|100=SMART|38=300|39=2|37=44ab4dd0befb4767|583=1f73c3d6476b4f6c|40=2|41=-6c7fba58ebab573|44=69.84|55=BCH|54=2|59=0|63=4|60=20150504-13:30:05.883|453=1|448=IB|447=D|452=1|10=230|
20150504-13:30:06.200: 8=FIX.4.4|9=0336|35=8|49=ADR_ARBITRAGE_IB_XNYS|56=LVBSG|34=138|52=20150504-13:30:06|50=XPUS|57=7369691|1=U1216799|207=SMART|6=0|11=-df70607ca02bd67|14=0|17=81760.1430746205.7|21=1|150=0|31=0|151=500|32=0|100=SMART|38=500|39=0|37=22e19a6d762c49ad|583=4ddc48d71caf41e0|40=2|44=22.32|55=SQM|54=2|59=0|63=4|60=20150504-13:30:06.176|453=1|448=IB|447=D|452=1|10=014|
20150504-13:30:06.202: 8=FIX.4.4|9=0353|35=8|49=ADR_ARBITRAGE_IB_XNYS|56=LVBSG|34=139|52=20150504-13:30:06|50=XPUS|57=7369691|1=U1216799|207=SMART|6=22.33|11=-df70607ca02bd67|14=300|17=000109e8.55472a26.01.01|21=1|150=F|31=22.33|151=200|32=300|100=SMART|38=500|39=1|37=22e19a6d762c49ad|583=4ddc48d71caf41e0|40=2|44=22.32|55=SQM|54=2|59=0|63=4|60=20150504-13:30:06.179|453=1|448=IB|447=D|452=1|10=197|
20150504-13:30:06.208: 8=FIX.4.4|9=0355|35=8|49=ADR_ARBITRAGE_IB_XNYS|56=LVBSG|34=140|52=20150504-13:30:06|50=XPUS|57=7369691|1=U1216799|207=SMART|6=22.3275|11=-df70607ca02bd67|14=400|17=000109e8.55472a27.01.01|21=1|150=F|31=22.32|151=100|32=100|100=SMART|38=500|39=1|37=22e19a6d762c49ad|583=4ddc48d71caf41e0|40=2|44=22.32|55=SQM|54=2|59=0|63=4|60=20150504-13:30:06.184|453=1|448=IB|447=D|452=1|10=036|
20150504-13:30:06.224: 8=FIX.4.4|9=0352|35=8|49=ADR_ARBITRAGE_IB_XNYS|56=LVBSG|34=141|52=20150504-13:30:06|50=XPUS|57=7369691|1=U1216799|207=SMART|6=22.328|11=-df70607ca02bd67|14=500|17=0000e262.55475c31.01.01|21=1|150=F|31=22.33|151=0|32=100|100=SMART|38=500|39=2|37=22e19a6d762c49ad|583=4ddc48d71caf41e0|40=2|44=22.32|55=SQM|54=2|59=0|63=4|60=20150504-13:30:06.211|453=1|448=IB|447=D|452=1|10=127|
20150504-13:30:06.256: 8=FIX.4.4|9=0248|35=9|49=ADR_ARBITRAGE_IB_XNYS|56=LVBSG|34=142|52=20150504-13:30:06|50=XPUS|57=7369691|102=1|1=U1216799|39=8|37=44ab4dd0befb4767|583=1f73c3d6476b4f6c|434=2|11=160ce25a1a924f1e|41=-6c7fba58ebab573|58=Order is being cancelled|60=20150504-13:30:06.222|10=061|
20150504-13:30:06.265: 8=FIX.4.4|9=269|35=D|34=132|49=LVBSG|50=7369691|52=20150504-13:30:06.265|56=ADR_ARBITRAGE_IB_XNYS|57=XPUS|1=U1216799|11=-589b4e72e829bf8f|21=1|38=200|40=2|44=69.84|54=2|55=BCH|59=0|60=20150504-13:30:06.265|63=4|100=SMART|111=100|207=SMART|583=1f73c3d6476b4f6c|453=1|448=IB|447=D|452=1|10=080|
20150504-13:30:06.285: 8=FIX.4.4|9=0337|35=8|49=ADR_ARBITRAGE_IB_XNYS|56=LVBSG|34=143|52=20150504-13:30:06|50=XPUS|57=7369691|1=U1216799|207=SMART|6=0|11=-589b4e72e829bf8f|14=0|17=-6ebd9c0b1c8abd95|21=1|150=A|31=0|151=200|32=0|100=SMART|38=200|39=A|37=-5b189f7b9a0eb44a|583=1f73c3d6476b4f6c|40=2|44=69.84|55=BCH|54=2|59=0|63=4|60=20150504-13:30:06.274|453=1|448=IB|447=D|452=1|10=242|
20150504-13:30:06.472: 8=FIX.4.4|9=270|35=D|34=133|49=LVBSG|50=7369691|52=20150504-13:30:06.472|56=ADR_ARBITRAGE_IB_XNYS|57=XPUS|1=U1216799|11=-65745c6f66c9bf2d|21=1|38=1400|40=2|44=18.06|54=2|55=ENI|59=0|60=20150504-13:30:06.471|63=4|100=SMART|111=100|207=SMART|583=55a2c273a91f4276|453=1|448=IB|447=D|452=1|10=015|
20150504-13:30:06.496: 8=FIX.4.4|9=0338|35=8|49=ADR_ARBITRAGE_IB_XNYS|56=LVBSG|34=144|52=20150504-13:30:06|50=XPUS|57=7369691|1=U1216799|207=SMART|6=0|11=-589b4e72e829bf8f|14=0|17=81760.1430746206.1|21=1|150=0|31=0|151=200|32=0|100=SMART|38=200|39=0|37=-5b189f7b9a0eb44a|583=1f73c3d6476b4f6c|40=2|44=69.84|55=BCH|54=2|59=0|63=4|60=20150504-13:30:06.480|453=1|448=IB|447=D|452=1|10=072|
20150504-13:30:06.502: 8=FIX.4.4|9=279|35=G|34=134|49=LVBSG|50=7369691|52=20150504-13:30:06.502|56=ADR_ARBITRAGE_IB_XNYS|57=XPUS|1=U1216799|11=4e56b85854b94a81|21=1|38=700|40=2|41=-589b4e72e829bf8f|44=69.84|54=2|55=BCH|59=0|60=20150504-13:30:06.502|63=4|100=SMART|111=100|583=1f73c3d6476b4f6c|453=1|448=IB|447=D|452=1|10=161|
20150504-13:30:06.504: 8=FIX.4.4|9=0339|35=8|49=ADR_ARBITRAGE_IB_XNYS|56=LVBSG|34=145|52=20150504-13:30:06|50=XPUS|57=7369691|1=U1216799|207=SMART|6=0|11=-65745c6f66c9bf2d|14=0|17=-23d5f0de0cb9bfb0|21=1|150=A|31=0|151=1400|32=0|100=SMART|38=1400|39=A|37=-1553ee71e14cbb41|583=55a2c273a91f4276|40=2|44=18.06|55=ENI|54=2|59=0|63=4|60=20150504-13:30:06.482|453=1|448=IB|447=D|452=1|10=170|
20150504-13:30:06.530: 8=FIX.4.4|9=0357|35=8|49=ADR_ARBITRAGE_IB_XNYS|56=LVBSG|34=146|52=20150504-13:30:06|50=XPUS|57=7369691|1=U1216799|207=SMART|6=0|11=4e56b85854b94a81|14=0|17=-25c25ce882bdb1c1|21=1|150=E|31=0|151=200|32=0|100=SMART|38=700|39=E|37=-5b189f7b9a0eb44a|583=1f73c3d6476b4f6c|40=2|41=-589b4e72e829bf8f|44=69.84|55=BCH|54=2|59=0|63=4|60=20150504-13:30:06.516|453=1|448=IB|447=D|452=1|10=075|
20150504-13:30:06.598: 8=FIX.4.4|9=269|35=D|34=135|49=LVBSG|50=7369691|52=20150504-13:30:06.598|56=ADR_ARBITRAGE_IB_XNYS|57=XPUS|1=U1216799|11=-423731359e6fb9a2|21=1|38=900|40=2|44=22.37|54=2|55=SQM|59=0|60=20150504-13:30:06.597|63=4|100=SMART|111=100|207=SMART|583=4ddc48d71caf41e0|453=1|448=IB|447=D|452=1|10=098|
20150504-13:30:06.664: 8=FIX.4.4|9=0335|35=8|49=ADR_ARBITRAGE_IB_XNYS|56=LVBSG|34=147|52=20150504-13:30:06|50=XPUS|57=7369691|1=U1216799|207=SMART|6=0|11=-423731359e6fb9a2|14=0|17=-5c43339748f0b1f6|21=1|150=A|31=0|151=900|32=0|100=SMART|38=900|39=A|37=dc38e5c9e114188|583=4ddc48d71caf41e0|40=2|44=22.37|55=SQM|54=2|59=0|63=4|60=20150504-13:30:06.659|453=1|448=IB|447=D|452=1|10=091|
20150504-13:30:06.815: 8=FIX.4.4|9=0373|35=8|49=ADR_ARBITRAGE_IB_XNYS|56=LVBSG|34=148|52=20150504-13:30:06|50=XPUS|57=7369691|1=U1216799|207=SMART|6=69.87|11=4e56b85854b94a81|14=200|17=0000d322.aa8ecc9c.02.01|21=1|150=F|31=69.87|151=0|32=200|100=SMART|38=200|39=2|37=-5b189f7b9a0eb44a|583=1f73c3d6476b4f6c|40=2|41=-589b4e72e829bf8f|44=69.84|55=BCH|54=2|59=0|63=4|60=20150504-13:30:06.809|453=1|448=IB|447=D|452=1|10=103|
20150504-13:30:07.091: 8=FIX.4.4|9=0250|35=9|49=ADR_ARBITRAGE_IB_XNYS|56=LVBSG|34=149|52=20150504-13:30:07|50=XPUS|57=7369691|102=1|1=U1216799|39=8|37=-5b189f7b9a0eb44a|583=1f73c3d6476b4f6c|434=2|11=4e56b85854b94a81|41=-589b4e72e829bf8f|58=Order is being cancelled|60=20150504-13:30:07.083|10=231|
20150504-13:30:07.094: 8=FIX.4.4|9=269|35=D|34=136|49=LVBSG|50=7369691|52=20150504-13:30:07.094|56=ADR_ARBITRAGE_IB_XNYS|57=XPUS|1=U1216799|11=-4dab264db731b989|21=1|38=500|40=2|44=69.85|54=2|55=BCH|59=0|60=20150504-13:30:07.094|63=4|100=SMART|111=100|207=SMART|583=1f73c3d6476b4f6c|453=1|448=IB|447=D|452=1|10=070|
20150504-13:30:07.098: 8=FIX.4.4|9=0340|35=8|49=ADR_ARBITRAGE_IB_XNYS|56=LVBSG|34=150|52=20150504-13:30:07|50=XPUS|57=7369691|1=U1216799|207=SMART|6=0|11=-65745c6f66c9bf2d|14=0|17=81760.1430746206.6|21=1|150=0|31=0|151=1400|32=0|100=SMART|38=1400|39=0|37=-1553ee71e14cbb41|583=55a2c273a91f4276|40=2|44=18.06|55=ENI|54=2|59=0|63=4|60=20150504-13:30:07.093|453=1|448=IB|447=D|452=1|10=003|
20150504-13:30:07.103: 8=FIX.4.4|9=281|35=G|34=137|49=LVBSG|50=7369691|52=20150504-13:30:07.102|56=ADR_ARBITRAGE_IB_XNYS|57=XPUS|1=U1216799|11=-3270253495e2ba50|21=1|38=4000|40=2|41=-65745c6f66c9bf2d|44=18.06|54=2|55=ENI|59=0|60=20150504-13:30:07.102|63=4|100=SMART|111=100|583=55a2c273a91f4276|453=1|448=IB|447=D|452=1|10=063|
20150504-13:30:07.103: 8=FIX.4.4|9=0358|35=8|49=ADR_ARBITRAGE_IB_XNYS|56=LVBSG|34=151|52=20150504-13:30:07|50=XPUS|57=7369691|1=U1216799|207=SMART|6=18.06|11=-65745c6f66c9bf2d|14=1000|17=00010a77.55475be8.01.01|21=1|150=F|31=18.06|151=400|32=1000|100=SMART|38=1400|39=1|37=-1553ee71e14cbb41|583=55a2c273a91f4276|40=2|44=18.06|55=ENI|54=2|59=0|63=4|60=20150504-13:30:07.094|453=1|448=IB|447=D|452=1|10=044|
20150504-13:30:07.105: 8=FIX.4.4|9=0355|35=8|49=ADR_ARBITRAGE_IB_XNYS|56=LVBSG|34=152|52=20150504-13:30:07|50=XPUS|57=7369691|1=U1216799|207=SMART|6=18.06|11=-65745c6f66c9bf2d|14=1400|17=00014229.55472535.01.01|21=1|150=F|31=18.06|151=0|32=400|100=SMART|38=1400|39=2|37=-1553ee71e14cbb41|583=55a2c273a91f4276|40=2|44=18.06|55=ENI|54=2|59=0|63=4|60=20150504-13:30:07.099|453=1|448=IB|447=D|452=1|10=016|
20150504-13:30:07.108: 8=FIX.4.4|9=0334|35=8|49=ADR_ARBITRAGE_IB_XNYS|56=LVBSG|34=153|52=20150504-13:30:07|50=XPUS|57=7369691|1=U1216799|207=SMART|6=0|11=-4dab264db731b989|14=0|17=11c4389385b4450c|21=1|150=A|31=0|151=500|32=0|100=SMART|38=500|39=A|37=5a1b69ba5054211|583=1f73c3d6476b4f6c|40=2|44=69.85|55=BCH|54=2|59=0|63=4|60=20150504-13:30:07.103|453=1|448=IB|447=D|452=1|10=140|
20150504-13:30:07.124: 8=FIX.4.4|9=0336|35=8|49=ADR_ARBITRAGE_IB_XNYS|56=LVBSG|34=154|52=20150504-13:30:07|50=XPUS|57=7369691|1=U1216799|207=SMART|6=0|11=-423731359e6fb9a2|14=0|17=81760.1430746206.9|21=1|150=0|31=0|151=900|32=0|100=SMART|38=900|39=0|37=dc38e5c9e114188|583=4ddc48d71caf41e0|40=2|44=22.37|55=SQM|54=2|59=0|63=4|60=20150504-13:30:07.113|453=1|448=IB|447=D|452=1|10=148|
20150504-13:30:07.128: 8=FIX.4.4|9=281|35=G|34=138|49=LVBSG|50=7369691|52=20150504-13:30:07.128|56=ADR_ARBITRAGE_IB_XNYS|57=XPUS|1=U1216799|11=-3cce6c659482b3bd|21=1|38=3000|40=2|41=-423731359e6fb9a2|44=22.37|54=2|55=SQM|59=0|60=20150504-13:30:07.127|63=4|100=SMART|111=100|583=4ddc48d71caf41e0|453=1|448=IB|447=D|452=1|10=126|
20150504-13:30:07.131: 8=FIX.4.4|9=0276|35=9|49=ADR_ARBITRAGE_IB_XNYS|56=LVBSG|34=155|52=20150504-13:30:07|102=99|1=U1216799|39=8|37=-6bbac8ad8d21bd2d|583=55a2c273a91f4276|434=1|41=-65745c6f66c9bf2d|11=-3270253495e2ba50|58=Your request can't be processed, because the Order Status is Filled|60=20150504-13:30:07.116|10=124|
20150504-13:30:07.132: 8=FIX.4.4|9=0349|35=8|49=ADR_ARBITRAGE_IB_XNYS|56=LVBSG|34=156|52=20150504-13:30:07|50=XPUS|57=7369691|1=U1216799|207=SMART|6=22.4|11=-423731359e6fb9a2|14=900|17=0000e262.55475c32.01.01|21=1|150=F|31=22.4|151=0|32=900|100=SMART|38=900|39=2|37=dc38e5c9e114188|583=4ddc48d71caf41e0|40=2|44=22.37|55=SQM|54=2|59=0|63=4|60=20150504-13:30:07.120|453=1|448=IB|447=D|452=1|10=134|
20150504-13:30:07.136: 8=FIX.4.4|9=270|35=D|34=139|49=LVBSG|50=7369691|52=20150504-13:30:07.135|56=ADR_ARBITRAGE_IB_XNYS|57=XPUS|1=U1216799|11=-6c3db6860695bc9b|21=1|38=2600|40=2|44=18.07|54=2|55=ENI|59=0|60=20150504-13:30:07.135|63=4|100=SMART|111=100|207=SMART|583=55a2c273a91f4276|453=1|448=IB|447=D|452=1|10=014|
20150504-13:30:07.148: 8=FIX.4.4|9=0274|35=9|49=ADR_ARBITRAGE_IB_XNYS|56=LVBSG|34=157|52=20150504-13:30:07|102=99|1=U1216799|39=8|37=643e88d3c4d449e|583=4ddc48d71caf41e0|434=1|41=-423731359e6fb9a2|11=-3cce6c659482b3bd|58=Your request can't be processed, because the Order Status is Filled|60=20150504-13:30:07.141|10=093|
20150504-13:30:07.150: 8=FIX.4.4|9=269|35=D|34=140|49=LVBSG|50=7369691|52=20150504-13:30:07.150|56=ADR_ARBITRAGE_IB_XNYS|57=XPUS|1=U1216799|11=2ef526bea02b435a|21=1|38=2100|40=2|44=22.37|54=2|55=SQM|59=0|60=20150504-13:30:07.150|63=4|100=SMART|111=100|207=SMART|583=4ddc48d71caf41e0|453=1|448=IB|447=D|452=1|10=189|
20150504-13:30:07.152: 8=FIX.4.4|9=0339|35=8|49=ADR_ARBITRAGE_IB_XNYS|56=LVBSG|34=158|52=20150504-13:30:07|50=XPUS|57=7369691|1=U1216799|207=SMART|6=0|11=-6c3db6860695bc9b|14=0|17=-707694619011b108|21=1|150=A|31=0|151=2600|32=0|100=SMART|38=2600|39=A|37=-605ca2614cc7bfd3|583=55a2c273a91f4276|40=2|44=18.07|55=ENI|54=2|59=0|63=4|60=20150504-13:30:07.144|453=1|448=IB|447=D|452=1|10=103|
20150504-13:30:07.161: 8=FIX.4.4|9=0337|35=8|49=ADR_ARBITRAGE_IB_XNYS|56=LVBSG|34=159|52=20150504-13:30:07|50=XPUS|57=7369691|1=U1216799|207=SMART|6=0|11=2ef526bea02b435a|14=0|17=-46cd2a09171ebfeb|21=1|150=A|31=0|151=2100|32=0|100=SMART|38=2100|39=A|37=451d051ea29e4cef|583=4ddc48d71caf41e0|40=2|44=22.37|55=SQM|54=2|59=0|63=4|60=20150504-13:30:07.156|453=1|448=IB|447=D|452=1|10=060|
20150504-13:30:07.284: 8=FIX.4.4|9=0336|35=8|49=ADR_ARBITRAGE_IB_XNYS|56=LVBSG|34=160|52=20150504-13:30:07|50=XPUS|57=7369691|1=U1216799|207=SMART|6=0|11=-4dab264db731b989|14=0|17=81760.1430746207.1|21=1|150=0|31=0|151=500|32=0|100=SMART|38=500|39=0|37=5a1b69ba5054211|583=1f73c3d6476b4f6c|40=2|44=69.85|55=BCH|54=2|59=0|63=4|60=20150504-13:30:07.278|453=1|448=IB|447=D|452=1|10=061|
20150504-13:30:07.403: 8=FIX.4.4|9=279|35=G|34=141|49=LVBSG|50=7369691|52=20150504-13:30:07.403|56=ADR_ARBITRAGE_IB_XNYS|57=XPUS|1=U1216799|11=63c9bc9d88164a43|21=1|38=800|40=2|41=-4dab264db731b989|44=69.85|54=2|55=BCH|59=0|60=20150504-13:30:07.403|63=4|100=SMART|111=100|583=1f73c3d6476b4f6c|453=1|448=IB|447=D|452=1|10=188|
20150504-13:30:07.419: 8=FIX.4.4|9=0355|35=8|49=ADR_ARBITRAGE_IB_XNYS|56=LVBSG|34=161|52=20150504-13:30:07|50=XPUS|57=7369691|1=U1216799|207=SMART|6=0|11=63c9bc9d88164a43|14=0|17=-3bbec6b0b711bf19|21=1|150=E|31=0|151=500|32=0|100=SMART|38=800|39=E|37=5a1b69ba5054211|583=1f73c3d6476b4f6c|40=2|41=-4dab264db731b989|44=69.85|55=BCH|54=2|59=0|63=4|60=20150504-13:30:07.411|453=1|448=IB|447=D|452=1|10=138|
20150504-13:30:07.513: 8=FIX.4.4|9=0373|35=8|49=ADR_ARBITRAGE_IB_XNYS|56=LVBSG|34=162|52=20150504-13:30:07|50=XPUS|57=7369691|1=U1216799|207=SMART|6=69.87|11=63c9bc9d88164a43|14=400|17=0000d322.aa8ecc9f.02.01|21=1|150=F|31=69.87|151=100|32=400|100=SMART|38=500|39=1|37=5a1b69ba5054211|583=1f73c3d6476b4f6c|40=2|41=-4dab264db731b989|44=69.85|55=BCH|54=2|59=0|63=4|60=20150504-13:30:07.506|453=1|448=IB|447=D|452=1|10=225|
20150504-13:30:07.520: 8=FIX.4.4|9=0371|35=8|49=ADR_ARBITRAGE_IB_XNYS|56=LVBSG|34=163|52=20150504-13:30:07|50=XPUS|57=7369691|1=U1216799|207=SMART|6=69.87|11=63c9bc9d88164a43|14=500|17=0000d322.aa8ecca0.02.01|21=1|150=F|31=69.87|151=0|32=100|100=SMART|38=500|39=2|37=5a1b69ba5054211|583=1f73c3d6476b4f6c|40=2|41=-4dab264db731b989|44=69.85|55=BCH|54=2|59=0|63=4|60=20150504-13:30:07.510|453=1|448=IB|447=D|452=1|10=107|
20150504-13:30:07.527: 8=FIX.4.4|9=0340|35=8|49=ADR_ARBITRAGE_IB_XNYS|56=LVBSG|34=164|52=20150504-13:30:07|50=XPUS|57=7369691|1=U1216799|207=SMART|6=0|11=-6c3db6860695bc9b|14=0|17=81760.1430746207.4|21=1|150=0|31=0|151=2600|32=0|100=SMART|38=2600|39=0|37=-605ca2614cc7bfd3|583=55a2c273a91f4276|40=2|44=18.07|55=ENI|54=2|59=0|63=4|60=20150504-13:30:07.522|453=1|448=IB|447=D|452=1|10=055|
20150504-13:30:07.529: 8=FIX.4.4|9=0357|35=8|49=ADR_ARBITRAGE_IB_XNYS|56=LVBSG|34=165|52=20150504-13:30:07|50=XPUS|57=7369691|1=U1216799|207=SMART|6=18.07|11=-6c3db6860695bc9b|14=100|17=00010ff0.554763ff.01.01|21=1|150=F|31=18.07|151=2500|32=100|100=SMART|38=2600|39=1|37=-605ca2614cc7bfd3|583=55a2c273a91f4276|40=2|44=18.07|55=ENI|54=2|59=0|63=4|60=20150504-13:30:07.524|453=1|448=IB|447=D|452=1|10=097|
20150504-13:30:07.531: 8=FIX.4.4|9=280|35=G|34=142|49=LVBSG|50=7369691|52=20150504-13:30:07.531|56=ADR_ARBITRAGE_IB_XNYS|57=XPUS|1=U1216799|11=7e15fb4281d142a5|21=1|38=6600|40=2|41=-6c3db6860695bc9b|44=18.07|54=2|55=ENI|59=0|60=20150504-13:30:07.531|63=4|100=SMART|111=100|583=55a2c273a91f4276|453=1|448=IB|447=D|452=1|10=127|
20150504-13:30:07.535: 8=FIX.4.4|9=0338|35=8|49=ADR_ARBITRAGE_IB_XNYS|56=LVBSG|34=166|52=20150504-13:30:07|50=XPUS|57=7369691|1=U1216799|207=SMART|6=0|11=2ef526bea02b435a|14=0|17=81760.1430746207.8|21=1|150=0|31=0|151=2100|32=0|100=SMART|38=2100|39=0|37=451d051ea29e4cef|583=4ddc48d71caf41e0|40=2|44=22.37|55=SQM|54=2|59=0|63=4|60=20150504-13:30:07.526|453=1|448=IB|447=D|452=1|10=207|
20150504-13:30:07.540: 8=FIX.4.4|9=0352|35=8|49=ADR_ARBITRAGE_IB_XNYS|56=LVBSG|34=167|52=20150504-13:30:07|50=XPUS|57=7369691|1=U1216799|207=SMART|6=22.4|11=2ef526bea02b435a|14=2100|17=0000e262.55475c33.01.01|21=1|150=F|31=22.4|151=0|32=2100|100=SMART|38=2100|39=2|37=451d051ea29e4cef|583=4ddc48d71caf41e0|40=2|44=22.37|55=SQM|54=2|59=0|63=4|60=20150504-13:30:07.532|453=1|448=IB|447=D|452=1|10=226|
20150504-13:30:07.545: 8=FIX.4.4|9=279|35=G|34=143|49=LVBSG|50=7369691|52=20150504-13:30:07.540|56=ADR_ARBITRAGE_IB_XNYS|57=XPUS|1=U1216799|11=7148ad33742e4c23|21=1|38=2300|40=2|41=2ef526bea02b435a|44=22.37|54=2|55=SQM|59=0|60=20150504-13:30:07.540|63=4|100=SMART|111=100|583=4ddc48d71caf41e0|453=1|448=IB|447=D|452=1|10=014|
20150504-13:30:07.547: 8=FIX.4.4|9=0364|35=8|49=ADR_ARBITRAGE_IB_XNYS|56=LVBSG|34=168|52=20150504-13:30:07|50=XPUS|57=7369691|1=U1216799|207=SMART|6=18.07|11=7e15fb4281d142a5|14=100|17=67c7ab6eaf154f37|21=1|150=E|31=0|151=2500|32=0|100=SMART|38=6600|39=E|37=-605ca2614cc7bfd3|583=55a2c273a91f4276|40=2|41=-6c3db6860695bc9b|44=18.07|55=ENI|54=2|59=0|63=4|60=20150504-13:30:07.540|453=1|448=IB|447=D|452=1|10=104|
20150504-13:30:07.559: 8=FIX.4.4|9=0274|35=9|49=ADR_ARBITRAGE_IB_XNYS|56=LVBSG|34=169|52=20150504-13:30:07|102=99|1=U1216799|39=8|37=-3ec259d362ccb009|583=4ddc48d71caf41e0|434=1|41=2ef526bea02b435a|11=7148ad33742e4c23|58=Your request can't be processed, because the Order Status is Filled|60=20150504-13:30:07.552|10=114|
20150504-13:30:07.562: 8=FIX.4.4|9=268|35=D|34=144|49=LVBSG|50=7369691|52=20150504-13:30:07.561|56=ADR_ARBITRAGE_IB_XNYS|57=XPUS|1=U1216799|11=78862b40470042ad|21=1|38=200|40=2|44=22.37|54=2|55=SQM|59=0|60=20150504-13:30:07.561|63=4|100=SMART|111=100|207=SMART|583=4ddc48d71caf41e0|453=1|448=IB|447=D|452=1|10=227|
20150504-13:30:07.582: 8=FIX.4.4|9=0335|35=8|49=ADR_ARBITRAGE_IB_XNYS|56=LVBSG|34=170|52=20150504-13:30:07|50=XPUS|57=7369691|1=U1216799|207=SMART|6=0|11=78862b40470042ad|14=0|17=7e0a4f9fd891430c|21=1|150=A|31=0|151=200|32=0|100=SMART|38=200|39=A|37=-3dbabc4b319db90b|583=4ddc48d71caf41e0|40=2|44=22.37|55=SQM|54=2|59=0|63=4|60=20150504-13:30:07.577|453=1|448=IB|447=D|452=1|10=035|
20150504-13:30:07.731: 8=FIX.4.4|9=0248|35=9|49=ADR_ARBITRAGE_IB_XNYS|56=LVBSG|34=171|52=20150504-13:30:07|50=XPUS|57=7369691|102=1|1=U1216799|39=8|37=5a1b69ba5054211|583=1f73c3d6476b4f6c|434=2|11=63c9bc9d88164a43|41=-4dab264db731b989|58=Order is being cancelled|60=20150504-13:30:07.724|10=002|
20150504-13:30:07.734: 8=FIX.4.4|9=269|35=D|34=145|49=LVBSG|50=7369691|52=20150504-13:30:07.733|56=ADR_ARBITRAGE_IB_XNYS|57=XPUS|1=U1216799|11=-3168c786d706b0f8|21=1|38=300|40=2|44=69.85|54=2|55=BCH|59=0|60=20150504-13:30:07.733|63=4|100=SMART|111=100|207=SMART|583=1f73c3d6476b4f6c|453=1|448=IB|447=D|452=1|10=235|
20150504-13:30:07.747: 8=FIX.4.4|9=0336|35=8|49=ADR_ARBITRAGE_IB_XNYS|56=LVBSG|34=172|52=20150504-13:30:07|50=XPUS|57=7369691|1=U1216799|207=SMART|6=0|11=-3168c786d706b0f8|14=0|17=20ceb61ed02541f7|21=1|150=A|31=0|151=300|32=0|100=SMART|38=300|39=A|37=-3b4c5991753ab622|583=1f73c3d6476b4f6c|40=2|44=69.85|55=BCH|54=2|59=0|63=4|60=20150504-13:30:07.741|453=1|448=IB|447=D|452=1|10=048|
20150504-13:30:07.930: 8=FIX.4.4|9=0367|35=8|49=ADR_ARBITRAGE_IB_XNYS|56=LVBSG|34=173|52=20150504-13:30:07|50=XPUS|57=7369691|1=U1216799|207=SMART|6=18.07|11=7e15fb4281d142a5|14=100|17=81760.1430746207.14|21=1|150=5|31=0|151=6500|32=0|100=SMART|38=6600|39=1|37=-605ca2614cc7bfd3|583=55a2c273a91f4276|40=2|41=-6c3db6860695bc9b|44=18.07|55=ENI|54=2|59=0|63=4|60=20150504-13:30:07.921|453=1|448=IB|447=D|452=1|10=125|
20150504-13:30:07.947: 8=FIX.4.4|9=0338|35=8|49=ADR_ARBITRAGE_IB_XNYS|56=LVBSG|34=174|52=20150504-13:30:07|50=XPUS|57=7369691|1=U1216799|207=SMART|6=0|11=78862b40470042ad|14=0|17=81760.1430746207.16|21=1|150=0|31=0|151=200|32=0|100=SMART|38=200|39=0|37=-3dbabc4b319db90b|583=4ddc48d71caf41e0|40=2|44=22.37|55=SQM|54=2|59=0|63=4|60=20150504-13:30:07.929|453=1|448=IB|447=D|452=1|10=110|
20150504-13:30:07.951: 8=FIX.4.4|9=0350|35=8|49=ADR_ARBITRAGE_IB_XNYS|56=LVBSG|34=175|52=20150504-13:30:07|50=XPUS|57=7369691|1=U1216799|207=SMART|6=22.4|11=78862b40470042ad|14=200|17=0000e262.55475c34.01.01|21=1|150=F|31=22.4|151=0|32=200|100=SMART|38=200|39=2|37=-3dbabc4b319db90b|583=4ddc48d71caf41e0|40=2|44=22.37|55=SQM|54=2|59=0|63=4|60=20150504-13:30:07.945|453=1|448=IB|447=D|452=1|10=033|
20150504-13:30:08.288: 8=FIX.4.4|9=0339|35=8|49=ADR_ARBITRAGE_IB_XNYS|56=LVBSG|34=176|52=20150504-13:30:08|50=XPUS|57=7369691|1=U1216799|207=SMART|6=0|11=-3168c786d706b0f8|14=0|17=81760.1430746207.20|21=1|150=0|31=0|151=300|32=0|100=SMART|38=300|39=0|37=-3b4c5991753ab622|583=1f73c3d6476b4f6c|40=2|44=69.85|55=BCH|54=2|59=0|63=4|60=20150504-13:30:08.282|453=1|448=IB|447=D|452=1|10=136|
20150504-13:30:08.297: 8=FIX.4.4|9=0355|35=8|49=ADR_ARBITRAGE_IB_XNYS|56=LVBSG|34=177|52=20150504-13:30:08|50=XPUS|57=7369691|1=U1216799|207=SMART|6=69.87|11=-3168c786d706b0f8|14=200|17=0000d322.aa8ecca1.02.01|21=1|150=F|31=69.87|151=100|32=200|100=SMART|38=300|39=1|37=-3b4c5991753ab622|583=1f73c3d6476b4f6c|40=2|44=69.85|55=BCH|54=2|59=0|63=4|60=20150504-13:30:08.291|453=1|448=IB|447=D|452=1|10=017|
20150504-13:30:08.333: 8=FIX.4.4|9=0357|35=8|49=ADR_ARBITRAGE_IB_XNYS|56=LVBSG|34=178|52=20150504-13:30:08|50=XPUS|57=7369691|1=U1216799|207=SMART|6=69.866667|11=-3168c786d706b0f8|14=300|17=0000d322.aa8ecca2.02.01|21=1|150=F|31=69.86|151=0|32=100|100=SMART|38=300|39=2|37=-3b4c5991753ab622|583=1f73c3d6476b4f6c|40=2|44=69.85|55=BCH|54=2|59=0|63=4|60=20150504-13:30:08.327|453=1|448=IB|447=D|452=1|10=140|
20150504-13:30:09.894: 8=FIX.4.4|9=279|35=G|34=146|49=LVBSG|50=7369691|52=20150504-13:30:09.893|56=ADR_ARBITRAGE_IB_XNYS|57=XPUS|1=U1216799|11=-7114ced376cbbef|21=1|38=6600|40=2|41=7e15fb4281d142a5|44=18.03|54=2|55=ENI|59=0|60=20150504-13:30:09.892|63=4|100=SMART|111=100|583=55a2c273a91f4276|453=1|448=IB|447=D|452=1|10=193|
20150504-13:30:09.908: 8=FIX.4.4|9=0363|35=8|49=ADR_ARBITRAGE_IB_XNYS|56=LVBSG|34=179|52=20150504-13:30:09|50=XPUS|57=7369691|1=U1216799|207=SMART|6=18.07|11=-7114ced376cbbef|14=100|17=1b546f3f58d24f3d|21=1|150=E|31=0|151=6500|32=0|100=SMART|38=6600|39=E|37=-605ca2614cc7bfd3|583=55a2c273a91f4276|40=2|41=7e15fb4281d142a5|44=18.03|55=ENI|54=2|59=0|63=4|60=20150504-13:30:09.902|453=1|448=IB|447=D|452=1|10=095|
20150504-13:30:10.527: 8=FIX.4.4|9=0365|35=8|49=ADR_ARBITRAGE_IB_XNYS|56=LVBSG|34=180|52=20150504-13:30:10|50=XPUS|57=7369691|1=U1216799|207=SMART|6=18.07|11=-7114ced376cbbef|14=100|17=81760.1430746210.1|21=1|150=5|31=0|151=6500|32=0|100=SMART|38=6600|39=1|37=-605ca2614cc7bfd3|583=55a2c273a91f4276|40=2|41=7e15fb4281d142a5|44=18.03|55=ENI|54=2|59=0|63=4|60=20150504-13:30:10.520|453=1|448=IB|447=D|452=1|10=075|
20150504-13:30:10.531: 8=FIX.4.4|9=0376|35=8|49=ADR_ARBITRAGE_IB_XNYS|56=LVBSG|34=181|52=20150504-13:30:10|50=XPUS|57=7369691|1=U1216799|207=SMART|6=18.05|11=-7114ced376cbbef|14=200|17=00010ff0.55476480.01.01|21=1|150=F|31=18.03|151=6400|32=100|100=SMART|38=6600|39=1|37=-605ca2614cc7bfd3|583=55a2c273a91f4276|40=2|41=7e15fb4281d142a5|44=18.03|55=ENI|54=2|59=0|63=4|60=20150504-13:30:10.523|453=1|448=IB|447=D|452=1|10=220|
20150504-13:30:10.531: 8=FIX.4.4|9=280|35=G|34=147|49=LVBSG|50=7369691|52=20150504-13:30:10.531|56=ADR_ARBITRAGE_IB_XNYS|57=XPUS|1=U1216799|11=-6927b8342192b41a|21=1|38=6600|40=2|41=-7114ced376cbbef|44=18.02|54=2|55=ENI|59=0|60=20150504-13:30:10.531|63=4|100=SMART|111=100|583=55a2c273a91f4276|453=1|448=IB|447=D|452=1|10=102|
20150504-13:30:10.546: 8=FIX.4.4|9=0364|35=8|49=ADR_ARBITRAGE_IB_XNYS|56=LVBSG|34=182|52=20150504-13:30:10|50=XPUS|57=7369691|1=U1216799|207=SMART|6=18.05|11=-6927b8342192b41a|14=200|17=6a8f2234b7c847a7|21=1|150=E|31=0|151=6400|32=0|100=SMART|38=6600|39=E|37=-605ca2614cc7bfd3|583=55a2c273a91f4276|40=2|41=-7114ced376cbbef|44=18.02|55=ENI|54=2|59=0|63=4|60=20150504-13:30:10.539|453=1|448=IB|447=D|452=1|10=241|
20150504-13:30:10.789: 8=FIX.4.4|9=0366|35=8|49=ADR_ARBITRAGE_IB_XNYS|56=LVBSG|34=183|52=20150504-13:30:10|50=XPUS|57=7369691|1=U1216799|207=SMART|6=18.05|11=-6927b8342192b41a|14=200|17=81760.1430746210.3|21=1|150=5|31=0|151=6400|32=0|100=SMART|38=6600|39=1|37=-605ca2614cc7bfd3|583=55a2c273a91f4276|40=2|41=-7114ced376cbbef|44=18.02|55=ENI|54=2|59=0|63=4|60=20150504-13:30:10.780|453=1|448=IB|447=D|452=1|10=040|
20150504-13:30:10.797: 8=FIX.4.4|9=0377|35=8|49=ADR_ARBITRAGE_IB_XNYS|56=LVBSG|34=184|52=20150504-13:30:10|50=XPUS|57=7369691|1=U1216799|207=SMART|6=18.04|11=-6927b8342192b41a|14=300|17=00010a77.55475c02.01.01|21=1|150=F|31=18.02|151=6300|32=100|100=SMART|38=6600|39=1|37=-605ca2614cc7bfd3|583=55a2c273a91f4276|40=2|41=-7114ced376cbbef|44=18.02|55=ENI|54=2|59=0|63=4|60=20150504-13:30:10.788|453=1|448=IB|447=D|452=1|10=183|
20150504-13:30:10.803: 8=FIX.4.4|9=0378|35=8|49=ADR_ARBITRAGE_IB_XNYS|56=LVBSG|34=185|52=20150504-13:30:10|50=XPUS|57=7369691|1=U1216799|207=SMART|6=18.035|11=-6927b8342192b41a|14=400|17=0000da28.55476dad.01.01|21=1|150=F|31=18.02|151=6200|32=100|100=SMART|38=6600|39=1|37=-605ca2614cc7bfd3|583=55a2c273a91f4276|40=2|41=-7114ced376cbbef|44=18.02|55=ENI|54=2|59=0|63=4|60=20150504-13:30:10.794|453=1|448=IB|447=D|452=1|10=126|
20150504-13:30:10.812: 8=FIX.4.4|9=0378|35=8|49=ADR_ARBITRAGE_IB_XNYS|56=LVBSG|34=186|52=20150504-13:30:10|50=XPUS|57=7369691|1=U1216799|207=SMART|6=18.032|11=-6927b8342192b41a|14=500|17=0000da28.55476dae.01.01|21=1|150=F|31=18.02|151=6100|32=100|100=SMART|38=6600|39=1|37=-605ca2614cc7bfd3|583=55a2c273a91f4276|40=2|41=-7114ced376cbbef|44=18.02|55=ENI|54=2|59=0|63=4|60=20150504-13:30:10.800|453=1|448=IB|447=D|452=1|10=113|
20150504-13:30:10.815: 8=FIX.4.4|9=0377|35=8|49=ADR_ARBITRAGE_IB_XNYS|56=LVBSG|34=187|52=20150504-13:30:10|50=XPUS|57=7369691|1=U1216799|207=SMART|6=18.03|11=-6927b8342192b41a|14=600|17=0000da28.55476daf.01.01|21=1|150=F|31=18.02|151=6000|32=100|100=SMART|38=6600|39=1|37=-605ca2614cc7bfd3|583=55a2c273a91f4276|40=2|41=-7114ced376cbbef|44=18.02|55=ENI|54=2|59=0|63=4|60=20150504-13:30:10.808|453=1|448=IB|447=D|452=1|10=072|
20150504-13:30:10.821: 8=FIX.4.4|9=0377|35=8|49=ADR_ARBITRAGE_IB_XNYS|56=LVBSG|34=188|52=20150504-13:30:10|50=XPUS|57=7369691|1=U1216799|207=SMART|6=18.03|11=-6927b8342192b41a|14=700|17=00010ec8.554728da.01.01|21=1|150=F|31=18.03|151=5900|32=100|100=SMART|38=6600|39=1|37=-605ca2614cc7bfd3|583=55a2c273a91f4276|40=2|41=-7114ced376cbbef|44=18.02|55=ENI|54=2|59=0|63=4|60=20150504-13:30:10.815|453=1|448=IB|447=D|452=1|10=033|
20150504-13:30:10.835: 8=FIX.4.4|9=0377|35=8|49=ADR_ARBITRAGE_IB_XNYS|56=LVBSG|34=189|52=20150504-13:30:10|50=XPUS|57=7369691|1=U1216799|207=SMART|6=18.03|11=-6927b8342192b41a|14=800|17=00010ff0.55476592.01.01|21=1|150=F|31=18.03|151=5800|32=100|100=SMART|38=6600|39=1|37=-605ca2614cc7bfd3|583=55a2c273a91f4276|40=2|41=-7114ced376cbbef|44=18.02|55=ENI|54=2|59=0|63=4|60=20150504-13:30:10.828|453=1|448=IB|447=D|452=1|10=201|
20150504-13:30:10.839: 8=FIX.4.4|9=0377|35=8|49=ADR_ARBITRAGE_IB_XNYS|56=LVBSG|34=190|52=20150504-13:30:10|50=XPUS|57=7369691|1=U1216799|207=SMART|6=18.03|11=-6927b8342192b41a|14=900|17=00010ff0.55476593.01.01|21=1|150=F|31=18.03|151=5700|32=100|100=SMART|38=6600|39=1|37=-605ca2614cc7bfd3|583=55a2c273a91f4276|40=2|41=-7114ced376cbbef|44=18.02|55=ENI|54=2|59=0|63=4|60=20150504-13:30:10.832|453=1|448=IB|447=D|452=1|10=189|
20150504-13:30:10.852: 8=FIX.4.4|9=0379|35=8|49=ADR_ARBITRAGE_IB_XNYS|56=LVBSG|34=191|52=20150504-13:30:10|50=XPUS|57=7369691|1=U1216799|207=SMART|6=18.029|11=-6927b8342192b41a|14=1000|17=00010ff0.55476594.01.01|21=1|150=F|31=18.02|151=5600|32=100|100=SMART|38=6600|39=1|37=-605ca2614cc7bfd3|583=55a2c273a91f4276|40=2|41=-7114ced376cbbef|44=18.02|55=ENI|54=2|59=0|63=4|60=20150504-13:30:10.842|453=1|448=IB|447=D|452=1|10=032|
20150504-13:30:10.861: 8=FIX.4.4|9=0382|35=8|49=ADR_ARBITRAGE_IB_XNYS|56=LVBSG|34=192|52=20150504-13:30:10|50=XPUS|57=7369691|1=U1216799|207=SMART|6=18.028182|11=-6927b8342192b41a|14=1100|17=00016e00.55472541.01.01|21=1|150=F|31=18.02|151=5500|32=100|100=SMART|38=6600|39=1|37=-605ca2614cc7bfd3|583=55a2c273a91f4276|40=2|41=-7114ced376cbbef|44=18.02|55=ENI|54=2|59=0|63=4|60=20150504-13:30:10.852|453=1|448=IB|447=D|452=1|10=121|
20150504-13:30:10.865: 8=FIX.4.4|9=0382|35=8|49=ADR_ARBITRAGE_IB_XNYS|56=LVBSG|34=193|52=20150504-13:30:10|50=XPUS|57=7369691|1=U1216799|207=SMART|6=18.026923|11=-6927b8342192b41a|14=1300|17=00010ec8.554728db.01.01|21=1|150=F|31=18.02|151=5300|32=200|100=SMART|38=6600|39=1|37=-605ca2614cc7bfd3|583=55a2c273a91f4276|40=2|41=-7114ced376cbbef|44=18.02|55=ENI|54=2|59=0|63=4|60=20150504-13:30:10.859|453=1|448=IB|447=D|452=1|10=028|
20150504-13:30:10.873: 8=FIX.4.4|9=281|35=G|34=148|49=LVBSG|50=7369691|52=20150504-13:30:10.872|56=ADR_ARBITRAGE_IB_XNYS|57=XPUS|1=U1216799|11=-3f06b4e2bf73b52d|21=1|38=6600|40=2|41=-6927b8342192b41a|44=18.03|54=2|55=ENI|59=0|60=20150504-13:30:10.872|63=4|100=SMART|111=100|583=55a2c273a91f4276|453=1|448=IB|447=D|452=1|10=121|
20150504-13:30:10.885: 8=FIX.4.4|9=0379|35=8|49=ADR_ARBITRAGE_IB_XNYS|56=LVBSG|34=194|52=20150504-13:30:10|50=XPUS|57=7369691|1=U1216799|207=SMART|6=18.025|11=-6927b8342192b41a|14=1800|17=00010ec8.554728dc.01.01|21=1|150=F|31=18.02|151=4800|32=500|100=SMART|38=6600|39=1|37=-605ca2614cc7bfd3|583=55a2c273a91f4276|40=2|41=-7114ced376cbbef|44=18.02|55=ENI|54=2|59=0|63=4|60=20150504-13:30:10.865|453=1|448=IB|447=D|452=1|10=142|
20150504-13:30:10.889: 8=FIX.4.4|9=0382|35=8|49=ADR_ARBITRAGE_IB_XNYS|56=LVBSG|34=195|52=20150504-13:30:10|50=XPUS|57=7369691|1=U1216799|207=SMART|6=18.024737|11=-6927b8342192b41a|14=1900|17=00010ec8.554728dd.01.01|21=1|150=F|31=18.02|151=4700|32=100|100=SMART|38=6600|39=1|37=-605ca2614cc7bfd3|583=55a2c273a91f4276|40=2|41=-7114ced376cbbef|44=18.02|55=ENI|54=2|59=0|63=4|60=20150504-13:30:10.872|453=1|448=IB|447=D|452=1|10=036|
20150504-13:30:10.891: 8=FIX.4.4|9=0380|35=8|49=ADR_ARBITRAGE_IB_XNYS|56=LVBSG|34=196|52=20150504-13:30:10|50=XPUS|57=7369691|1=U1216799|207=SMART|6=18.0245|11=-6927b8342192b41a|14=2000|17=00010ff0.55476595.01.01|21=1|150=F|31=18.02|151=4600|32=100|100=SMART|38=6600|39=1|37=-605ca2614cc7bfd3|583=55a2c273a91f4276|40=2|41=-7114ced376cbbef|44=18.02|55=ENI|54=2|59=0|63=4|60=20150504-13:30:10.878|453=1|448=IB|447=D|452=1|10=087|
20150504-13:30:10.908: 8=FIX.4.4|9=0368|35=8|49=ADR_ARBITRAGE_IB_XNYS|56=LVBSG|34=197|52=20150504-13:30:10|50=XPUS|57=7369691|1=U1216799|207=SMART|6=18.0245|11=-3f06b4e2bf73b52d|14=2000|17=6c2ba19f1d004f27|21=1|150=E|31=0|151=4600|32=0|100=SMART|38=6600|39=E|37=-605ca2614cc7bfd3|583=55a2c273a91f4276|40=2|41=-6927b8342192b41a|44=18.03|55=ENI|54=2|59=0|63=4|60=20150504-13:30:10.887|453=1|448=IB|447=D|452=1|10=183|
20150504-13:30:11.367: 8=FIX.4.4|9=267|35=D|34=149|49=LVBSG|50=7369691|52=20150504-13:30:11.367|56=ADR_ARBITRAGE_IB_XNYS|57=XPUS|1=U1216799|11=-9d95dc2ec1eb799|21=1|38=200|40=2|44=69.9|54=2|55=BCH|59=0|60=20150504-13:30:11.366|63=4|100=SMART|111=100|207=SMART|583=1f73c3d6476b4f6c|453=1|448=IB|447=D|452=1|10=021|
20150504-13:30:11.389: 8=FIX.4.4|9=0334|35=8|49=ADR_ARBITRAGE_IB_XNYS|56=LVBSG|34=198|52=20150504-13:30:11|50=XPUS|57=7369691|1=U1216799|207=SMART|6=0|11=-9d95dc2ec1eb799|14=0|17=67cae7b3ed814530|21=1|150=A|31=0|151=200|32=0|100=SMART|38=200|39=A|37=-4c88807e37d8bb60|583=1f73c3d6476b4f6c|40=2|44=69.9|55=BCH|54=2|59=0|63=4|60=20150504-13:30:11.378|453=1|448=IB|447=D|452=1|10=164|
20150504-13:30:11.437: 8=FIX.4.4|9=0370|35=8|49=ADR_ARBITRAGE_IB_XNYS|56=LVBSG|34=199|52=20150504-13:30:11|50=XPUS|57=7369691|1=U1216799|207=SMART|6=18.0245|11=-3f06b4e2bf73b52d|14=2000|17=81760.1430746210.9|21=1|150=5|31=0|151=4600|32=0|100=SMART|38=6600|39=1|37=-605ca2614cc7bfd3|583=55a2c273a91f4276|40=2|41=-6927b8342192b41a|44=18.03|55=ENI|54=2|59=0|63=4|60=20150504-13:30:11.411|453=1|448=IB|447=D|452=1|10=192|
20150504-13:30:11.472: 8=FIX.4.4|9=280|35=G|34=150|49=LVBSG|50=7369691|52=20150504-13:30:11.472|56=ADR_ARBITRAGE_IB_XNYS|57=XPUS|1=U1216799|11=394426aa332f4918|21=1|38=6600|40=2|41=-3f06b4e2bf73b52d|44=17.99|54=2|55=ENI|59=0|60=20150504-13:30:11.472|63=4|100=SMART|111=100|583=55a2c273a91f4276|453=1|448=IB|447=D|452=1|10=079|
20150504-13:30:11.505: 8=FIX.4.4|9=0367|35=8|49=ADR_ARBITRAGE_IB_XNYS|56=LVBSG|34=200|52=20150504-13:30:11|50=XPUS|57=7369691|1=U1216799|207=SMART|6=18.0245|11=394426aa332f4918|14=2000|17=16554645e9954022|21=1|150=E|31=0|151=4600|32=0|100=SMART|38=6600|39=E|37=-605ca2614cc7bfd3|583=55a2c273a91f4276|40=2|41=-3f06b4e2bf73b52d|44=17.99|55=ENI|54=2|59=0|63=4|60=20150504-13:30:11.485|453=1|448=IB|447=D|452=1|10=169|
20150504-13:30:11.575: 8=FIX.4.4|9=0336|35=8|49=ADR_ARBITRAGE_IB_XNYS|56=LVBSG|34=201|52=20150504-13:30:11|50=XPUS|57=7369691|1=U1216799|207=SMART|6=0|11=-9d95dc2ec1eb799|14=0|17=81760.1430746211.1|21=1|150=0|31=0|151=200|32=0|100=SMART|38=200|39=0|37=-4c88807e37d8bb60|583=1f73c3d6476b4f6c|40=2|44=69.9|55=BCH|54=2|59=0|63=4|60=20150504-13:30:11.567|453=1|448=IB|447=D|452=1|10=165|
20150504-13:30:11.582: 8=FIX.4.4|9=277|35=G|34=151|49=LVBSG|50=7369691|52=20150504-13:30:11.581|56=ADR_ARBITRAGE_IB_XNYS|57=XPUS|1=U1216799|11=517657ff6fff4b48|21=1|38=500|40=2|41=-9d95dc2ec1eb799|44=69.9|54=2|55=BCH|59=0|60=20150504-13:30:11.581|63=4|100=SMART|111=100|583=1f73c3d6476b4f6c|453=1|448=IB|447=D|452=1|10=204|
20150504-13:30:11.596: 8=FIX.4.4|9=0354|35=8|49=ADR_ARBITRAGE_IB_XNYS|56=LVBSG|34=202|52=20150504-13:30:11|50=XPUS|57=7369691|1=U1216799|207=SMART|6=0|11=517657ff6fff4b48|14=0|17=538d0a3fbd564d52|21=1|150=E|31=0|151=200|32=0|100=SMART|38=500|39=E|37=-4c88807e37d8bb60|583=1f73c3d6476b4f6c|40=2|41=-9d95dc2ec1eb799|44=69.9|55=BCH|54=2|59=0|63=4|60=20150504-13:30:11.590|453=1|448=IB|447=D|452=1|10=181|
20150504-13:30:12.020: 8=FIX.4.4|9=0249|35=9|49=ADR_ARBITRAGE_IB_XNYS|56=LVBSG|34=203|52=20150504-13:30:12|50=XPUS|57=7369691|102=1|1=U1216799|39=8|37=-4c88807e37d8bb60|583=1f73c3d6476b4f6c|434=2|11=517657ff6fff4b48|41=-9d95dc2ec1eb799|58=Order is being cancelled|60=20150504-13:30:12.010|10=218|
20150504-13:30:12.024: 8=FIX.4.4|9=0373|35=8|49=ADR_ARBITRAGE_IB_XNYS|56=LVBSG|34=204|52=20150504-13:30:12|50=XPUS|57=7369691|1=U1216799|207=SMART|6=69.91|11=517657ff6fff4b48|14=100|17=00010a77.55475c04.01.01|21=1|150=F|31=69.91|151=100|32=100|100=SMART|38=200|39=1|37=-4c88807e37d8bb60|583=1f73c3d6476b4f6c|40=2|41=-9d95dc2ec1eb799|44=69.9|55=BCH|54=2|59=0|63=4|60=20150504-13:30:12.011|453=1|448=IB|447=D|452=1|10=134|
20150504-13:30:12.025: 8=FIX.4.4|9=0371|35=8|49=ADR_ARBITRAGE_IB_XNYS|56=LVBSG|34=205|52=20150504-13:30:12|50=XPUS|57=7369691|1=U1216799|207=SMART|6=69.91|11=517657ff6fff4b48|14=200|17=0000d322.aa8ecca8.02.01|21=1|150=F|31=69.91|151=0|32=100|100=SMART|38=200|39=2|37=-4c88807e37d8bb60|583=1f73c3d6476b4f6c|40=2|41=-9d95dc2ec1eb799|44=69.9|55=BCH|54=2|59=0|63=4|60=20150504-13:30:12.011|453=1|448=IB|447=D|452=1|10=015|
20150504-13:30:12.029: 8=FIX.4.4|9=268|35=D|34=152|49=LVBSG|50=7369691|52=20150504-13:30:12.029|56=ADR_ARBITRAGE_IB_XNYS|57=XPUS|1=U1216799|11=-27d9c6dcbb7bb5f6|21=1|38=300|40=2|44=69.9|54=2|55=BCH|59=0|60=20150504-13:30:12.029|63=4|100=SMART|111=100|207=SMART|583=1f73c3d6476b4f6c|453=1|448=IB|447=D|452=1|10=147|
20150504-13:30:12.030: 8=FIX.4.4|9=0369|35=8|49=ADR_ARBITRAGE_IB_XNYS|56=LVBSG|34=206|52=20150504-13:30:12|50=XPUS|57=7369691|1=U1216799|207=SMART|6=18.0245|11=394426aa332f4918|14=2000|17=81760.1430746211.4|21=1|150=5|31=0|151=4600|32=0|100=SMART|38=6600|39=1|37=-605ca2614cc7bfd3|583=55a2c273a91f4276|40=2|41=-3f06b4e2bf73b52d|44=17.99|55=ENI|54=2|59=0|63=4|60=20150504-13:30:12.015|453=1|448=IB|447=D|452=1|10=159|
20150504-13:30:12.030: 8=FIX.4.4|9=0382|35=8|49=ADR_ARBITRAGE_IB_XNYS|56=LVBSG|34=207|52=20150504-13:30:12|50=XPUS|57=7369691|1=U1216799|207=SMART|6=18.022857|11=394426aa332f4918|14=2100|17=0000d8dc.55475857.01.01|21=1|150=F|31=17.99|151=4500|32=100|100=SMART|38=6600|39=1|37=-605ca2614cc7bfd3|583=55a2c273a91f4276|40=2|41=-3f06b4e2bf73b52d|44=17.99|55=ENI|54=2|59=0|63=4|60=20150504-13:30:12.016|453=1|448=IB|447=D|452=1|10=221|
20150504-13:30:12.035: 8=FIX.4.4|9=0380|35=8|49=ADR_ARBITRAGE_IB_XNYS|56=LVBSG|34=208|52=20150504-13:30:12|50=XPUS|57=7369691|1=U1216799|207=SMART|6=18.008571|11=394426aa332f4918|14=5600|17=00013911.5547276f.01.01|21=1|150=F|31=18|151=1000|32=3500|100=SMART|38=6600|39=1|37=-605ca2614cc7bfd3|583=55a2c273a91f4276|40=2|41=-3f06b4e2bf73b52d|44=17.99|55=ENI|54=2|59=0|63=4|60=20150504-13:30:12.017|453=1|448=IB|447=D|452=1|10=010|
20150504-13:30:12.035: 8=FIX.4.4|9=0381|35=8|49=ADR_ARBITRAGE_IB_XNYS|56=LVBSG|34=209|52=20150504-13:30:12|50=XPUS|57=7369691|1=U1216799|207=SMART|6=18.007333|11=394426aa332f4918|14=6000|17=00013911.55472770.01.01|21=1|150=F|31=17.99|151=600|32=400|100=SMART|38=6600|39=1|37=-605ca2614cc7bfd3|583=55a2c273a91f4276|40=2|41=-3f06b4e2bf73b52d|44=17.99|55=ENI|54=2|59=0|63=4|60=20150504-13:30:12.018|453=1|448=IB|447=D|452=1|10=014|
20150504-13:30:12.041: 8=FIX.4.4|9=0379|35=8|49=ADR_ARBITRAGE_IB_XNYS|56=LVBSG|34=210|52=20150504-13:30:12|50=XPUS|57=7369691|1=U1216799|207=SMART|6=18.005758|11=394426aa332f4918|14=6600|17=00013911.55472771.01.01|21=1|150=F|31=17.99|151=0|32=600|100=SMART|38=6600|39=2|37=-605ca2614cc7bfd3|583=55a2c273a91f4276|40=2|41=-3f06b4e2bf73b52d|44=17.99|55=ENI|54=2|59=0|63=4|60=20150504-13:30:12.019|453=1|448=IB|447=D|452=1|10=187|
20150504-13:30:12.054: 8=FIX.4.4|9=0335|35=8|49=ADR_ARBITRAGE_IB_XNYS|56=LVBSG|34=211|52=20150504-13:30:12|50=XPUS|57=7369691|1=U1216799|207=SMART|6=0|11=-27d9c6dcbb7bb5f6|14=0|17=3e13bfda27ea4140|21=1|150=A|31=0|151=300|32=0|100=SMART|38=300|39=A|37=-35729a1e1425bef1|583=1f73c3d6476b4f6c|40=2|44=69.9|55=BCH|54=2|59=0|63=4|60=20150504-13:30:12.042|453=1|448=IB|447=D|452=1|10=041|
20150504-13:30:12.126: 8=FIX.4.4|9=268|35=D|34=153|49=LVBSG|50=7369691|52=20150504-13:30:12.126|56=ADR_ARBITRAGE_IB_XNYS|57=XPUS|1=U1216799|11=28d4d0f3e09f4fcc|21=1|38=100|40=2|44=17.99|54=2|55=ENI|59=0|60=20150504-13:30:12.126|63=4|100=SMART|111=100|207=SMART|583=55a2c273a91f4276|453=1|448=IB|447=D|452=1|10=008|
20150504-13:30:12.142: 8=FIX.4.4|9=0335|35=8|49=ADR_ARBITRAGE_IB_XNYS|56=LVBSG|34=212|52=20150504-13:30:12|50=XPUS|57=7369691|1=U1216799|207=SMART|6=0|11=28d4d0f3e09f4fcc|14=0|17=-5bdd15e9951ba89|21=1|150=A|31=0|151=100|32=0|100=SMART|38=100|39=A|37=-1fcf9651363cb14e|583=55a2c273a91f4276|40=2|44=17.99|55=ENI|54=2|59=0|63=4|60=20150504-13:30:12.134|453=1|448=IB|447=D|452=1|10=185|
20150504-13:30:12.241: 8=FIX.4.4|9=0337|35=8|49=ADR_ARBITRAGE_IB_XNYS|56=LVBSG|34=213|52=20150504-13:30:12|50=XPUS|57=7369691|1=U1216799|207=SMART|6=0|11=-27d9c6dcbb7bb5f6|14=0|17=81760.1430746212.1|21=1|150=0|31=0|151=300|32=0|100=SMART|38=300|39=0|37=-35729a1e1425bef1|583=1f73c3d6476b4f6c|40=2|44=69.9|55=BCH|54=2|59=0|63=4|60=20150504-13:30:12.233|453=1|448=IB|447=D|452=1|10=029|
20150504-13:30:12.347: 8=FIX.4.4|9=279|35=G|34=154|49=LVBSG|50=7369691|52=20150504-13:30:12.347|56=ADR_ARBITRAGE_IB_XNYS|57=XPUS|1=U1216799|11=-7f61f3a407e5b618|21=1|38=500|40=2|41=-27d9c6dcbb7bb5f6|44=69.9|54=2|55=BCH|59=0|60=20150504-13:30:12.347|63=4|100=SMART|111=100|583=1f73c3d6476b4f6c|453=1|448=IB|447=D|452=1|10=072|
20150504-13:30:12.389: 8=FIX.4.4|9=0356|35=8|49=ADR_ARBITRAGE_IB_XNYS|56=LVBSG|34=214|52=20150504-13:30:12|50=XPUS|57=7369691|1=U1216799|207=SMART|6=0|11=-7f61f3a407e5b618|14=0|17=2367abb151f34eda|21=1|150=E|31=0|151=300|32=0|100=SMART|38=500|39=E|37=-35729a1e1425bef1|583=1f73c3d6476b4f6c|40=2|41=-27d9c6dcbb7bb5f6|44=69.9|55=BCH|54=2|59=0|63=4|60=20150504-13:30:12.364|453=1|448=IB|447=D|452=1|10=072|
20150504-13:30:12.490: 8=FIX.4.4|9=0375|35=8|49=ADR_ARBITRAGE_IB_XNYS|56=LVBSG|34=215|52=20150504-13:30:12|50=XPUS|57=7369691|1=U1216799|207=SMART|6=69.91|11=-7f61f3a407e5b618|14=100|17=00010a77.55475c0b.01.01|21=1|150=F|31=69.91|151=200|32=100|100=SMART|38=300|39=1|37=-35729a1e1425bef1|583=1f73c3d6476b4f6c|40=2|41=-27d9c6dcbb7bb5f6|44=69.9|55=BCH|54=2|59=0|63=4|60=20150504-13:30:12.483|453=1|448=IB|447=D|452=1|10=044|
20150504-13:30:12.496: 8=FIX.4.4|9=0375|35=8|49=ADR_ARBITRAGE_IB_XNYS|56=LVBSG|34=216|52=20150504-13:30:12|50=XPUS|57=7369691|1=U1216799|207=SMART|6=69.91|11=-7f61f3a407e5b618|14=200|17=0000d322.aa8ecca9.02.01|21=1|150=F|31=69.91|151=100|32=100|100=SMART|38=300|39=1|37=-35729a1e1425bef1|583=1f73c3d6476b4f6c|40=2|41=-27d9c6dcbb7bb5f6|44=69.9|55=BCH|54=2|59=0|63=4|60=20150504-13:30:12.489|453=1|448=IB|447=D|452=1|10=239|
20150504-13:30:12.499: 8=FIX.4.4|9=0373|35=8|49=ADR_ARBITRAGE_IB_XNYS|56=LVBSG|34=217|52=20150504-13:30:12|50=XPUS|57=7369691|1=U1216799|207=SMART|6=69.91|11=-7f61f3a407e5b618|14=300|17=0000d322.aa8eccaa.02.01|21=1|150=F|31=69.91|151=0|32=100|100=SMART|38=300|39=2|37=-35729a1e1425bef1|583=1f73c3d6476b4f6c|40=2|41=-27d9c6dcbb7bb5f6|44=69.9|55=BCH|54=2|59=0|63=4|60=20150504-13:30:12.492|453=1|448=IB|447=D|452=1|10=177|
20150504-13:30:12.502: 8=FIX.4.4|9=268|35=D|34=155|49=LVBSG|50=7369691|52=20150504-13:30:12.502|56=ADR_ARBITRAGE_IB_XNYS|57=XPUS|1=U1216799|11=-49d6d00b72d8b94f|21=1|38=300|40=2|44=69.9|54=2|55=BCH|59=0|60=20150504-13:30:12.502|63=4|100=SMART|111=100|207=SMART|583=1f73c3d6476b4f6c|453=1|448=IB|447=D|452=1|10=255|
20150504-13:30:12.511: 8=FIX.4.4|9=0337|35=8|49=ADR_ARBITRAGE_IB_XNYS|56=LVBSG|34=218|52=20150504-13:30:12|50=XPUS|57=7369691|1=U1216799|207=SMART|6=0|11=28d4d0f3e09f4fcc|14=0|17=81760.1430746212.4|21=1|150=0|31=0|151=100|32=0|100=SMART|38=100|39=0|37=-1fcf9651363cb14e|583=55a2c273a91f4276|40=2|44=17.99|55=ENI|54=2|59=0|63=4|60=20150504-13:30:12.498|453=1|448=IB|447=D|452=1|10=221|
20150504-13:30:12.513: 8=FIX.4.4|9=0352|35=8|49=ADR_ARBITRAGE_IB_XNYS|56=LVBSG|34=219|52=20150504-13:30:12|50=XPUS|57=7369691|1=U1216799|207=SMART|6=17.99|11=28d4d0f3e09f4fcc|14=100|17=00013911.55472772.01.01|21=1|150=F|31=17.99|151=0|32=100|100=SMART|38=100|39=2|37=-1fcf9651363cb14e|583=55a2c273a91f4276|40=2|44=17.99|55=ENI|54=2|59=0|63=4|60=20150504-13:30:12.506|453=1|448=IB|447=D|452=1|10=232|
20150504-13:30:12.515: 8=FIX.4.4|9=280|35=G|34=156|49=LVBSG|50=7369691|52=20150504-13:30:12.514|56=ADR_ARBITRAGE_IB_XNYS|57=XPUS|1=U1216799|11=-741f75590804bb78|21=1|38=3100|40=2|41=28d4d0f3e09f4fcc|44=17.99|54=2|55=ENI|59=0|60=20150504-13:30:12.514|63=4|100=SMART|111=100|583=55a2c273a91f4276|453=1|448=IB|447=D|452=1|10=138|
20150504-13:30:12.519: 8=FIX.4.4|9=0334|35=8|49=ADR_ARBITRAGE_IB_XNYS|56=LVBSG|34=220|52=20150504-13:30:12|50=XPUS|57=7369691|1=U1216799|207=SMART|6=0|11=-49d6d00b72d8b94f|14=0|17=3446bed30e114a6e|21=1|150=A|31=0|151=300|32=0|100=SMART|38=300|39=A|37=31e6e29ea6fd4340|583=1f73c3d6476b4f6c|40=2|44=69.9|55=BCH|54=2|59=0|63=4|60=20150504-13:30:12.510|453=1|448=IB|447=D|452=1|10=118|
20150504-13:30:12.530: 8=FIX.4.4|9=0275|35=9|49=ADR_ARBITRAGE_IB_XNYS|56=LVBSG|34=221|52=20150504-13:30:12|102=99|1=U1216799|39=8|37=-6b4893977896b598|583=55a2c273a91f4276|434=1|41=28d4d0f3e09f4fcc|11=-741f75590804bb78|58=Your request can't be processed, because the Order Status is Filled|60=20150504-13:30:12.524|10=090|
20150504-13:30:12.535: 8=FIX.4.4|9=269|35=D|34=157|49=LVBSG|50=7369691|52=20150504-13:30:12.534|56=ADR_ARBITRAGE_IB_XNYS|57=XPUS|1=U1216799|11=75d751a090164d4a|21=1|38=3000|40=2|44=17.99|54=2|55=ENI|59=0|60=20150504-13:30:12.534|63=4|100=SMART|111=100|207=SMART|583=55a2c273a91f4276|453=1|448=IB|447=D|452=1|10=125|
20150504-13:30:12.549: 8=FIX.4.4|9=0337|35=8|49=ADR_ARBITRAGE_IB_XNYS|56=LVBSG|34=222|52=20150504-13:30:12|50=XPUS|57=7369691|1=U1216799|207=SMART|6=0|11=75d751a090164d4a|14=0|17=2e50159a27f247b7|21=1|150=A|31=0|151=3000|32=0|100=SMART|38=3000|39=A|37=-16c5710875bbb10e|583=55a2c273a91f4276|40=2|44=17.99|55=ENI|54=2|59=0|63=4|60=20150504-13:30:12.542|453=1|448=IB|447=D|452=1|10=192|
20150504-13:30:12.682: 8=FIX.4.4|9=0251|35=9|49=ADR_ARBITRAGE_IB_XNYS|56=LVBSG|34=223|52=20150504-13:30:12|50=XPUS|57=7369691|102=1|1=U1216799|39=8|37=-35729a1e1425bef1|583=1f73c3d6476b4f6c|434=2|11=-7f61f3a407e5b618|41=-27d9c6dcbb7bb5f6|58=Order is being cancelled|60=20150504-13:30:12.676|10=076|
20150504-13:30:12.896: 8=FIX.4.4|9=0337|35=8|49=ADR_ARBITRAGE_IB_XNYS|56=LVBSG|34=224|52=20150504-13:30:12|50=XPUS|57=7369691|1=U1216799|207=SMART|6=0|11=-49d6d00b72d8b94f|14=0|17=81760.1430746212.10|21=1|150=0|31=0|151=300|32=0|100=SMART|38=300|39=0|37=31e6e29ea6fd4340|583=1f73c3d6476b4f6c|40=2|44=69.9|55=BCH|54=2|59=0|63=4|60=20150504-13:30:12.890|453=1|448=IB|447=D|452=1|10=209|
20150504-13:30:12.898: 8=FIX.4.4|9=280|35=G|34=158|49=LVBSG|50=7369691|52=20150504-13:30:12.898|56=ADR_ARBITRAGE_IB_XNYS|57=XPUS|1=U1216799|11=-7243965eba7db3d2|21=1|38=1000|40=2|41=-49d6d00b72d8b94f|44=69.9|54=2|55=BCH|59=0|60=20150504-13:30:12.897|63=4|100=SMART|111=100|583=1f73c3d6476b4f6c|453=1|448=IB|447=D|452=1|10=036|
20150504-13:30:12.947: 8=FIX.4.4|9=0353|35=8|49=ADR_ARBITRAGE_IB_XNYS|56=LVBSG|34=225|52=20150504-13:30:12|50=XPUS|57=7369691|1=U1216799|207=SMART|6=69.91|11=-49d6d00b72d8b94f|14=100|17=00010a77.55475c0c.01.01|21=1|150=F|31=69.91|151=200|32=100|100=SMART|38=300|39=1|37=31e6e29ea6fd4340|583=1f73c3d6476b4f6c|40=2|44=69.9|55=BCH|54=2|59=0|63=4|60=20150504-13:30:12.896|453=1|448=IB|447=D|452=1|10=167|
20150504-13:30:12.978: 8=FIX.4.4|9=0353|35=8|49=ADR_ARBITRAGE_IB_XNYS|56=LVBSG|34=226|52=20150504-13:30:12|50=XPUS|57=7369691|1=U1216799|207=SMART|6=69.905|11=-49d6d00b72d8b94f|14=200|17=00010a77.55475c0d.01.01|21=1|150=F|31=69.9|151=100|32=100|100=SMART|38=300|39=1|37=31e6e29ea6fd4340|583=1f73c3d6476b4f6c|40=2|44=69.9|55=BCH|54=2|59=0|63=4|60=20150504-13:30:12.905|453=1|448=IB|447=D|452=1|10=163|
20150504-13:30:12.979: 8=FIX.4.4|9=0340|35=8|49=ADR_ARBITRAGE_IB_XNYS|56=LVBSG|34=227|52=20150504-13:30:12|50=XPUS|57=7369691|1=U1216799|207=SMART|6=0|11=75d751a090164d4a|14=0|17=81760.1430746212.12|21=1|150=0|31=0|151=3000|32=0|100=SMART|38=3000|39=0|37=-16c5710875bbb10e|583=55a2c273a91f4276|40=2|44=17.99|55=ENI|54=2|59=0|63=4|60=20150504-13:30:12.911|453=1|448=IB|447=D|452=1|10=095|
20150504-13:30:12.979: 8=FIX.4.4|9=0350|35=8|49=ADR_ARBITRAGE_IB_XNYS|56=LVBSG|34=228|52=20150504-13:30:12|50=XPUS|57=7369691|1=U1216799|207=SMART|6=18|11=75d751a090164d4a|14=400|17=00013911.55472775.01.01|21=1|150=F|31=18|151=2600|32=400|100=SMART|38=3000|39=1|37=-16c5710875bbb10e|583=55a2c273a91f4276|40=2|44=17.99|55=ENI|54=2|59=0|63=4|60=20150504-13:30:12.915|453=1|448=IB|447=D|452=1|10=125|
20150504-13:30:12.979: 8=FIX.4.4|9=0357|35=8|49=ADR_ARBITRAGE_IB_XNYS|56=LVBSG|34=229|52=20150504-13:30:12|50=XPUS|57=7369691|1=U1216799|207=SMART|6=17.998|11=75d751a090164d4a|14=500|17=00010ff0.5547664e.01.01|21=1|150=F|31=17.99|151=2500|32=100|100=SMART|38=3000|39=1|37=-16c5710875bbb10e|583=55a2c273a91f4276|40=2|44=17.99|55=ENI|54=2|59=0|63=4|60=20150504-13:30:12.934|453=1|448=IB|447=D|452=1|10=135|
20150504-13:30:12.980: 8=FIX.4.4|9=0359|35=8|49=ADR_ARBITRAGE_IB_XNYS|56=LVBSG|34=230|52=20150504-13:30:12|50=XPUS|57=7369691|1=U1216799|207=SMART|6=17.991333|11=75d751a090164d4a|14=3000|17=00010ff0.5547664f.01.01|21=1|150=F|31=17.99|151=0|32=2500|100=SMART|38=3000|39=2|37=-16c5710875bbb10e|583=55a2c273a91f4276|40=2|44=17.99|55=ENI|54=2|59=0|63=4|60=20150504-13:30:12.935|453=1|448=IB|447=D|452=1|10=227|
20150504-13:30:13.024: 8=FIX.4.4|9=0363|35=8|49=ADR_ARBITRAGE_IB_XNYS|56=LVBSG|34=231|52=20150504-13:30:13|50=XPUS|57=7369691|1=U1216799|207=SMART|6=69.905|11=-7243965eba7db3d2|14=200|17=6556c66f43c6438a|21=1|150=E|31=0|151=100|32=0|100=SMART|38=1000|39=E|37=31e6e29ea6fd4340|583=1f73c3d6476b4f6c|40=2|41=-49d6d00b72d8b94f|44=69.9|55=BCH|54=2|59=0|63=4|60=20150504-13:30:12.978|453=1|448=IB|447=D|452=1|10=021|
20150504-13:30:13.501: 8=FIX.4.4|9=0365|35=8|49=ADR_ARBITRAGE_IB_XNYS|56=LVBSG|34=232|52=20150504-13:30:13|50=XPUS|57=7369691|1=U1216799|207=SMART|6=69.905|11=-7243965eba7db3d2|14=200|17=81760.1430746213.1|21=1|150=5|31=0|151=800|32=0|100=SMART|38=1000|39=1|37=31e6e29ea6fd4340|583=1f73c3d6476b4f6c|40=2|41=-49d6d00b72d8b94f|44=69.9|55=BCH|54=2|59=0|63=4|60=20150504-13:30:13.494|453=1|448=IB|447=D|452=1|10=124|
20150504-13:30:16.964: 8=FIX.4.4|9=269|35=D|34=159|49=LVBSG|50=7369691|52=20150504-13:30:16.964|56=ADR_ARBITRAGE_IB_XNYS|57=XPUS|1=U1216799|11=586c8996a1314665|21=1|38=3000|40=2|44=22.42|54=2|55=SQM|59=0|60=20150504-13:30:16.963|63=4|100=SMART|111=100|207=SMART|583=4ddc48d71caf41e0|453=1|448=IB|447=D|452=1|10=010|
20150504-13:30:16.986: 8=FIX.4.4|9=0336|35=8|49=ADR_ARBITRAGE_IB_XNYS|56=LVBSG|34=233|52=20150504-13:30:16|50=XPUS|57=7369691|1=U1216799|207=SMART|6=0|11=586c8996a1314665|14=0|17=5d8df481e6404935|21=1|150=A|31=0|151=3000|32=0|100=SMART|38=3000|39=A|37=11b78d4b01cf4a01|583=4ddc48d71caf41e0|40=2|44=22.42|55=SQM|54=2|59=0|63=4|60=20150504-13:30:16.973|453=1|448=IB|447=D|452=1|10=075|
20150504-13:30:17.171: 8=FIX.4.4|9=0338|35=8|49=ADR_ARBITRAGE_IB_XNYS|56=LVBSG|34=234|52=20150504-13:30:17|50=XPUS|57=7369691|1=U1216799|207=SMART|6=0|11=586c8996a1314665|14=0|17=81760.1430746217.1|21=1|150=0|31=0|151=3000|32=0|100=SMART|38=3000|39=0|37=11b78d4b01cf4a01|583=4ddc48d71caf41e0|40=2|44=22.42|55=SQM|54=2|59=0|63=4|60=20150504-13:30:17.163|453=1|448=IB|447=D|452=1|10=175|
20150504-13:30:17.532: 8=FIX.4.4|9=0357|35=8|49=ADR_ARBITRAGE_IB_XNYS|56=LVBSG|34=235|52=20150504-13:30:17|50=XPUS|57=7369691|1=U1216799|207=SMART|6=22.42|11=586c8996a1314665|14=1000|17=0000e262.55475c4e.01.01|21=1|150=F|31=22.42|151=2000|32=1000|100=SMART|38=3000|39=1|37=11b78d4b01cf4a01|583=4ddc48d71caf41e0|40=2|44=22.42|55=SQM|54=2|59=0|63=4|60=20150504-13:30:17.501|453=1|448=IB|447=D|452=1|10=240|
20150504-13:30:22.124: 8=FIX.4.4|9=267|35=D|34=160|49=LVBSG|50=7369691|52=20150504-13:30:22.123|56=ADR_ARBITRAGE_IB_XNYS|57=XPUS|1=U1216799|11=-7ce8e7ebe685b74f|21=1|38=4000|40=2|44=18|54=2|55=ENI|59=0|60=20150504-13:30:22.123|63=4|100=SMART|111=100|207=SMART|583=55a2c273a91f4276|453=1|448=IB|447=D|452=1|10=212|
20150504-13:30:22.290: 8=FIX.4.4|9=0335|35=8|49=ADR_ARBITRAGE_IB_XNYS|56=LVBSG|34=236|52=20150504-13:30:22|50=XPUS|57=7369691|1=U1216799|207=SMART|6=0|11=-7ce8e7ebe685b74f|14=0|17=-76332ce4b66fb78e|21=1|150=A|31=0|151=4000|32=0|100=SMART|38=4000|39=A|37=1a5b514a81d2469c|583=55a2c273a91f4276|40=2|44=18|55=ENI|54=2|59=0|63=4|60=20150504-13:30:22.254|453=1|448=IB|447=D|452=1|10=155|
20150504-13:30:22.685: 8=FIX.4.4|9=0336|35=8|49=ADR_ARBITRAGE_IB_XNYS|56=LVBSG|34=237|52=20150504-13:30:22|50=XPUS|57=7369691|1=U1216799|207=SMART|6=0|11=-7ce8e7ebe685b74f|14=0|17=81760.1430746222.1|21=1|150=0|31=0|151=4000|32=0|100=SMART|38=4000|39=0|37=1a5b514a81d2469c|583=55a2c273a91f4276|40=2|44=18|55=ENI|54=2|59=0|63=4|60=20150504-13:30:22.544|453=1|448=IB|447=D|452=1|10=119|
20150504-13:30:22.900: 8=FIX.4.4|9=0347|35=8|49=ADR_ARBITRAGE_IB_XNYS|56=LVBSG|34=238|52=20150504-13:30:22|50=XPUS|57=7369691|1=U1216799|207=SMART|6=18|11=-7ce8e7ebe685b74f|14=100|17=00016e00.55472546.01.01|21=1|150=F|31=18|151=3900|32=100|100=SMART|38=4000|39=1|37=1a5b514a81d2469c|583=55a2c273a91f4276|40=2|44=18|55=ENI|54=2|59=0|63=4|60=20150504-13:30:22.888|453=1|448=IB|447=D|452=1|10=244|
20150504-13:30:24.327: 8=FIX.4.4|9=280|35=G|34=161|49=LVBSG|50=7369691|52=20150504-13:30:24.327|56=ADR_ARBITRAGE_IB_XNYS|57=XPUS|1=U1216799|11=-4de539fdfd63b042|21=1|38=3000|40=2|41=586c8996a1314665|44=22.35|54=2|55=SQM|59=0|60=20150504-13:30:24.326|63=4|100=SMART|111=100|583=4ddc48d71caf41e0|453=1|448=IB|447=D|452=1|10=246|
20150504-13:30:24.469: 8=FIX.4.4|9=0364|35=8|49=ADR_ARBITRAGE_IB_XNYS|56=LVBSG|34=239|52=20150504-13:30:24|50=XPUS|57=7369691|1=U1216799|207=SMART|6=22.42|11=-4de539fdfd63b042|14=1000|17=4f0c743f26fc49f2|21=1|150=E|31=0|151=2000|32=0|100=SMART|38=3000|39=E|37=11b78d4b01cf4a01|583=4ddc48d71caf41e0|40=2|41=586c8996a1314665|44=22.35|55=SQM|54=2|59=0|63=4|60=20150504-13:30:24.459|453=1|448=IB|447=D|452=1|10=111|
20150504-13:30:24.998: 8=FIX.4.4|9=0366|35=8|49=ADR_ARBITRAGE_IB_XNYS|56=LVBSG|34=240|52=20150504-13:30:24|50=XPUS|57=7369691|1=U1216799|207=SMART|6=22.42|11=-4de539fdfd63b042|14=1000|17=81760.1430746224.1|21=1|150=5|31=0|151=2000|32=0|100=SMART|38=3000|39=1|37=11b78d4b01cf4a01|583=4ddc48d71caf41e0|40=2|41=586c8996a1314665|44=22.35|55=SQM|54=2|59=0|63=4|60=20150504-13:30:24.973|453=1|448=IB|447=D|452=1|10=115|
20150504-13:30:25.010: 8=FIX.4.4|9=0381|35=8|49=ADR_ARBITRAGE_IB_XNYS|56=LVBSG|34=241|52=20150504-13:30:25|50=XPUS|57=7369691|1=U1216799|207=SMART|6=22.414545|11=-4de539fdfd63b042|14=1100|17=00014229.5547256a.01.01|21=1|150=F|31=22.36|151=1900|32=100|100=SMART|38=3000|39=1|37=11b78d4b01cf4a01|583=4ddc48d71caf41e0|40=2|41=586c8996a1314665|44=22.35|55=SQM|54=2|59=0|63=4|60=20150504-13:30:24.974|453=1|448=IB|447=D|452=1|10=167|
20150504-13:30:25.015: 8=FIX.4.4|9=0381|35=8|49=ADR_ARBITRAGE_IB_XNYS|56=LVBSG|34=242|52=20150504-13:30:25|50=XPUS|57=7369691|1=U1216799|207=SMART|6=22.409167|11=-4de539fdfd63b042|14=1200|17=00014229.5547256b.01.01|21=1|150=F|31=22.35|151=1800|32=100|100=SMART|38=3000|39=1|37=11b78d4b01cf4a01|583=4ddc48d71caf41e0|40=2|41=586c8996a1314665|44=22.35|55=SQM|54=2|59=0|63=4|60=20150504-13:30:24.996|453=1|448=IB|447=D|452=1|10=176|
20150504-13:30:25.084: 8=FIX.4.4|9=0381|35=8|49=ADR_ARBITRAGE_IB_XNYS|56=LVBSG|34=243|52=20150504-13:30:25|50=XPUS|57=7369691|1=U1216799|207=SMART|6=22.404615|11=-4de539fdfd63b042|14=1300|17=00013800.55472936.01.01|21=1|150=F|31=22.35|151=1700|32=100|100=SMART|38=3000|39=1|37=11b78d4b01cf4a01|583=4ddc48d71caf41e0|40=2|41=586c8996a1314665|44=22.35|55=SQM|54=2|59=0|63=4|60=20150504-13:30:24.996|453=1|448=IB|447=D|452=1|10=121|
20150504-13:30:25.226: 8=FIX.4.4|9=281|35=G|34=162|49=LVBSG|50=7369691|52=20150504-13:30:25.226|56=ADR_ARBITRAGE_IB_XNYS|57=XPUS|1=U1216799|11=-59474232bd06b6fa|21=1|38=3000|40=2|41=-4de539fdfd63b042|44=22.34|54=2|55=SQM|59=0|60=20150504-13:30:25.226|63=4|100=SMART|111=100|583=4ddc48d71caf41e0|453=1|448=IB|447=D|452=1|10=161|
20150504-13:30:25.374: 8=FIX.4.4|9=0370|35=8|49=ADR_ARBITRAGE_IB_XNYS|56=LVBSG|34=244|52=20150504-13:30:25|50=XPUS|57=7369691|1=U1216799|207=SMART|6=22.404615|11=-59474232bd06b6fa|14=1300|17=-67bdeff46068b771|21=1|150=E|31=0|151=1700|32=0|100=SMART|38=3000|39=E|37=11b78d4b01cf4a01|583=4ddc48d71caf41e0|40=2|41=-4de539fdfd63b042|44=22.34|55=SQM|54=2|59=0|63=4|60=20150504-13:30:25.242|453=1|448=IB|447=D|452=1|10=020|
20150504-13:30:25.416: 8=FIX.4.4|9=0379|35=8|49=ADR_ARBITRAGE_IB_XNYS|56=LVBSG|34=245|52=20150504-13:30:25|50=XPUS|57=7369691|1=U1216799|207=SMART|6=22.40449|11=-59474232bd06b6fa|14=1303|17=00013800.55472939.01.01|21=1|150=F|31=22.35|151=1697|32=3|100=SMART|38=3000|39=1|37=11b78d4b01cf4a01|583=4ddc48d71caf41e0|40=2|41=-4de539fdfd63b042|44=22.35|55=SQM|54=2|59=0|63=4|60=20150504-13:30:25.315|453=1|448=IB|447=D|452=1|10=167|
20150504-13:30:25.649: 8=FIX.4.4|9=0370|35=8|49=ADR_ARBITRAGE_IB_XNYS|56=LVBSG|34=246|52=20150504-13:30:25|50=XPUS|57=7369691|1=U1216799|207=SMART|6=22.40449|11=-59474232bd06b6fa|14=1303|17=81760.1430746225.1|21=1|150=5|31=0|151=1697|32=0|100=SMART|38=3000|39=1|37=11b78d4b01cf4a01|583=4ddc48d71caf41e0|40=2|41=-4de539fdfd63b042|44=22.34|55=SQM|54=2|59=0|63=4|60=20150504-13:30:25.619|453=1|448=IB|447=D|452=1|10=216|
20150504-13:30:25.649: 8=FIX.4.4|9=0382|35=8|49=ADR_ARBITRAGE_IB_XNYS|56=LVBSG|34=247|52=20150504-13:30:25|50=XPUS|57=7369691|1=U1216799|207=SMART|6=22.400606|11=-59474232bd06b6fa|14=1403|17=0000d7a7.55475bbb.01.01|21=1|150=F|31=22.35|151=1597|32=100|100=SMART|38=3000|39=1|37=11b78d4b01cf4a01|583=4ddc48d71caf41e0|40=2|41=-4de539fdfd63b042|44=22.34|55=SQM|54=2|59=0|63=4|60=20150504-13:30:25.625|453=1|448=IB|447=D|452=1|10=026|
20150504-13:30:25.667: 8=FIX.4.4|9=279|35=G|34=163|49=LVBSG|50=7369691|52=20150504-13:30:25.667|56=ADR_ARBITRAGE_IB_XNYS|57=XPUS|1=U1216799|11=c94279a70484d53|21=1|38=3000|40=2|41=-59474232bd06b6fa|44=22.24|54=2|55=SQM|59=0|60=20150504-13:30:25.667|63=4|100=SMART|111=100|583=4ddc48d71caf41e0|453=1|448=IB|447=D|452=1|10=160|
20150504-13:30:25.668: 8=FIX.4.4|9=0382|35=8|49=ADR_ARBITRAGE_IB_XNYS|56=LVBSG|34=248|52=20150504-13:30:25|50=XPUS|57=7369691|1=U1216799|207=SMART|6=22.397904|11=-59474232bd06b6fa|14=1503|17=00014229.5547256c.01.01|21=1|150=F|31=22.36|151=1497|32=100|100=SMART|38=3000|39=1|37=11b78d4b01cf4a01|583=4ddc48d71caf41e0|40=2|41=-4de539fdfd63b042|44=22.34|55=SQM|54=2|59=0|63=4|60=20150504-13:30:25.642|453=1|448=IB|447=D|452=1|10=111|
20150504-13:30:25.678: 8=FIX.4.4|9=0382|35=8|49=ADR_ARBITRAGE_IB_XNYS|56=LVBSG|34=249|52=20150504-13:30:25|50=XPUS|57=7369691|1=U1216799|207=SMART|6=22.394916|11=-59474232bd06b6fa|14=1603|17=00014229.5547256d.01.01|21=1|150=F|31=22.35|151=1397|32=100|100=SMART|38=3000|39=1|37=11b78d4b01cf4a01|583=4ddc48d71caf41e0|40=2|41=-4de539fdfd63b042|44=22.34|55=SQM|54=2|59=0|63=4|60=20150504-13:30:25.644|453=1|448=IB|447=D|452=1|10=114|
20150504-13:30:25.703: 8=FIX.4.4|9=0382|35=8|49=ADR_ARBITRAGE_IB_XNYS|56=LVBSG|34=250|52=20150504-13:30:25|50=XPUS|57=7369691|1=U1216799|207=SMART|6=22.391691|11=-59474232bd06b6fa|14=1703|17=0000e262.55475c53.01.01|21=1|150=F|31=22.34|151=1297|32=100|100=SMART|38=3000|39=1|37=11b78d4b01cf4a01|583=4ddc48d71caf41e0|40=2|41=-4de539fdfd63b042|44=22.34|55=SQM|54=2|59=0|63=4|60=20150504-13:30:25.646|453=1|448=IB|447=D|452=1|10=148|
20150504-13:30:25.720: 8=FIX.4.4|9=0382|35=8|49=ADR_ARBITRAGE_IB_XNYS|56=LVBSG|34=251|52=20150504-13:30:25|50=XPUS|57=7369691|1=U1216799|207=SMART|6=22.388824|11=-59474232bd06b6fa|14=1803|17=00013800.5547293a.01.01|21=1|150=F|31=22.34|151=1197|32=100|100=SMART|38=3000|39=1|37=11b78d4b01cf4a01|583=4ddc48d71caf41e0|40=2|41=-4de539fdfd63b042|44=22.34|55=SQM|54=2|59=0|63=4|60=20150504-13:30:25.649|453=1|448=IB|447=D|452=1|10=104|
20150504-13:30:25.730: 8=FIX.4.4|9=0382|35=8|49=ADR_ARBITRAGE_IB_XNYS|56=LVBSG|34=252|52=20150504-13:30:25|50=XPUS|57=7369691|1=U1216799|207=SMART|6=22.386259|11=-59474232bd06b6fa|14=1903|17=000109e8.55472abb.01.01|21=1|150=F|31=22.34|151=1097|32=100|100=SMART|38=3000|39=1|37=11b78d4b01cf4a01|583=4ddc48d71caf41e0|40=2|41=-4de539fdfd63b042|44=22.34|55=SQM|54=2|59=0|63=4|60=20150504-13:30:25.652|453=1|448=IB|447=D|452=1|10=246|
20150504-13:30:25.775: 8=FIX.4.4|9=0367|35=8|49=ADR_ARBITRAGE_IB_XNYS|56=LVBSG|34=253|52=20150504-13:30:25|50=XPUS|57=7369691|1=U1216799|207=SMART|6=22.386259|11=c94279a70484d53|14=1903|17=-f1c8c107ed8b32d|21=1|150=E|31=0|151=1097|32=0|100=SMART|38=3000|39=E|37=11b78d4b01cf4a01|583=4ddc48d71caf41e0|40=2|41=-59474232bd06b6fa|44=22.24|55=SQM|54=2|59=0|63=4|60=20150504-13:30:25.704|453=1|448=IB|447=D|452=1|10=013|
20150504-13:30:26.235: 8=FIX.4.4|9=0369|35=8|49=ADR_ARBITRAGE_IB_XNYS|56=LVBSG|34=254|52=20150504-13:30:26|50=XPUS|57=7369691|1=U1216799|207=SMART|6=22.386259|11=c94279a70484d53|14=1903|17=81760.1430746225.7|21=1|150=5|31=0|151=1097|32=0|100=SMART|38=3000|39=1|37=11b78d4b01cf4a01|583=4ddc48d71caf41e0|40=2|41=-59474232bd06b6fa|44=22.24|55=SQM|54=2|59=0|63=4|60=20150504-13:30:26.228|453=1|448=IB|447=D|452=1|10=004|
20150504-13:30:26.240: 8=FIX.4.4|9=278|35=G|34=164|49=LVBSG|50=7369691|52=20150504-13:30:26.240|56=ADR_ARBITRAGE_IB_XNYS|57=XPUS|1=U1216799|11=-3365ad176cdeb0b4|21=1|38=3000|40=2|41=c94279a70484d53|44=22.3|54=2|55=SQM|59=0|60=20150504-13:30:26.240|63=4|100=SMART|111=100|583=4ddc48d71caf41e0|453=1|448=IB|447=D|452=1|10=174|
20150504-13:30:26.241: 8=FIX.4.4|9=0379|35=8|49=ADR_ARBITRAGE_IB_XNYS|56=LVBSG|34=255|52=20150504-13:30:26|50=XPUS|57=7369691|1=U1216799|207=SMART|6=22.378957|11=c94279a70484d53|14=2003|17=000109e8.55472abe.01.01|21=1|150=F|31=22.24|151=997|32=100|100=SMART|38=3000|39=1|37=11b78d4b01cf4a01|583=4ddc48d71caf41e0|40=2|41=-59474232bd06b6fa|44=22.24|55=SQM|54=2|59=0|63=4|60=20150504-13:30:26.233|453=1|448=IB|447=D|452=1|10=185|
20150504-13:30:26.268: 8=FIX.4.4|9=0379|35=8|49=ADR_ARBITRAGE_IB_XNYS|56=LVBSG|34=256|52=20150504-13:30:26|50=XPUS|57=7369691|1=U1216799|207=SMART|6=22.372349|11=c94279a70484d53|14=2103|17=000109e8.55472abf.01.01|21=1|150=F|31=22.24|151=897|32=100|100=SMART|38=3000|39=1|37=11b78d4b01cf4a01|583=4ddc48d71caf41e0|40=2|41=-59474232bd06b6fa|44=22.24|55=SQM|54=2|59=0|63=4|60=20150504-13:30:26.255|453=1|448=IB|447=D|452=1|10=180|
20150504-13:30:26.271: 8=FIX.4.4|9=0365|35=8|49=ADR_ARBITRAGE_IB_XNYS|56=LVBSG|34=257|52=20150504-13:30:26|50=XPUS|57=7369691|1=U1216799|207=SMART|6=22.372349|11=-3365ad176cdeb0b4|14=2103|17=3c7923eeb4ed4ea1|21=1|150=E|31=0|151=897|32=0|100=SMART|38=3000|39=1|37=11b78d4b01cf4a01|583=4ddc48d71caf41e0|40=2|41=c94279a70484d53|44=22.3|55=SQM|54=2|59=0|63=4|60=20150504-13:30:26.255|453=1|448=IB|447=D|452=1|10=040|
20150504-13:30:26.272: 8=FIX.4.4|9=0377|35=8|49=ADR_ARBITRAGE_IB_XNYS|56=LVBSG|34=258|52=20150504-13:30:26|50=XPUS|57=7369691|1=U1216799|207=SMART|6=22.332777|11=c94279a70484d53|14=3000|17=000109e8.55472ac0.01.01|21=1|150=F|31=22.24|151=0|32=897|100=SMART|38=3000|39=2|37=11b78d4b01cf4a01|583=4ddc48d71caf41e0|40=2|41=-59474232bd06b6fa|44=22.24|55=SQM|54=2|59=0|63=4|60=20150504-13:30:26.262|453=1|448=IB|447=D|452=1|10=027|
20150504-13:30:26.340: 8=FIX.4.4|9=268|35=D|34=165|49=LVBSG|50=7369691|52=20150504-13:30:26.340|56=ADR_ARBITRAGE_IB_XNYS|57=XPUS|1=U1216799|11=7ec3e4890331493a|21=1|38=1100|40=2|44=22.3|54=2|55=SQM|59=0|60=20150504-13:30:26.340|63=4|100=SMART|111=100|207=SMART|583=4ddc48d71caf41e0|453=1|448=IB|447=D|452=1|10=016|
20150504-13:30:26.355: 8=FIX.4.4|9=0335|35=8|49=ADR_ARBITRAGE_IB_XNYS|56=LVBSG|34=259|52=20150504-13:30:26|50=XPUS|57=7369691|1=U1216799|207=SMART|6=0|11=7ec3e4890331493a|14=0|17=1c383cb0f0f14350|21=1|150=A|31=0|151=1100|32=0|100=SMART|38=1100|39=A|37=72c9b527263a446c|583=4ddc48d71caf41e0|40=2|44=22.3|55=SQM|54=2|59=0|63=4|60=20150504-13:30:26.349|453=1|448=IB|447=D|452=1|10=056|
20150504-13:30:26.424: 8=FIX.4.4|9=0254|35=9|49=ADR_ARBITRAGE_IB_XNYS|56=LVBSG|34=260|52=20150504-13:30:26|50=XPUS|57=7369691|102=0|1=U1216799|39=8|37=11b78d4b01cf4a01|583=4ddc48d71caf41e0|434=2|11=-3365ad176cdeb0b4|41=c94279a70484d53|58=Cannot modify the filled order|60=20150504-13:30:26.419|10=212|
20150504-13:30:26.760: 8=FIX.4.4|9=0337|35=8|49=ADR_ARBITRAGE_IB_XNYS|56=LVBSG|34=261|52=20150504-13:30:26|50=XPUS|57=7369691|1=U1216799|207=SMART|6=0|11=7ec3e4890331493a|14=0|17=81760.1430746226.3|21=1|150=0|31=0|151=1100|32=0|100=SMART|38=1100|39=0|37=72c9b527263a446c|583=4ddc48d71caf41e0|40=2|44=22.3|55=SQM|54=2|59=0|63=4|60=20150504-13:30:26.754|453=1|448=IB|447=D|452=1|10=137|
20150504-13:30:26.768: 8=FIX.4.4|9=0353|35=8|49=ADR_ARBITRAGE_IB_XNYS|56=LVBSG|34=262|52=20150504-13:30:26|50=XPUS|57=7369691|1=U1216799|207=SMART|6=22.32|11=7ec3e4890331493a|14=1100|17=0000e262.55475c5a.01.01|21=1|150=F|31=22.32|151=0|32=1100|100=SMART|38=1100|39=2|37=72c9b527263a446c|583=4ddc48d71caf41e0|40=2|44=22.3|55=SQM|54=2|59=0|63=4|60=20150504-13:30:26.762|453=1|448=IB|447=D|452=1|10=053|
20150504-13:30:26.894: 8=FIX.4.4|9=280|35=G|34=166|49=LVBSG|50=7369691|52=20150504-13:30:26.894|56=ADR_ARBITRAGE_IB_XNYS|57=XPUS|1=U1216799|11=2224ca576dc64bf8|21=1|38=4000|40=2|41=-7ce8e7ebe685b74f|44=17.99|54=2|55=ENI|59=0|60=20150504-13:30:26.894|63=4|100=SMART|111=100|583=55a2c273a91f4276|453=1|448=IB|447=D|452=1|10=067|
20150504-13:30:26.906: 8=FIX.4.4|9=0360|35=8|49=ADR_ARBITRAGE_IB_XNYS|56=LVBSG|34=263|52=20150504-13:30:26|50=XPUS|57=7369691|1=U1216799|207=SMART|6=18|11=2224ca576dc64bf8|14=100|17=26e8b6688ea74f6a|21=1|150=E|31=0|151=3900|32=0|100=SMART|38=4000|39=E|37=1a5b514a81d2469c|583=55a2c273a91f4276|40=2|41=-7ce8e7ebe685b74f|44=17.99|55=ENI|54=2|59=0|63=4|60=20150504-13:30:26.900|453=1|448=IB|447=D|452=1|10=197|
20150504-13:30:27.432: 8=FIX.4.4|9=0362|35=8|49=ADR_ARBITRAGE_IB_XNYS|56=LVBSG|34=264|52=20150504-13:30:27|50=XPUS|57=7369691|1=U1216799|207=SMART|6=18|11=2224ca576dc64bf8|14=100|17=81760.1430746226.6|21=1|150=5|31=0|151=3900|32=0|100=SMART|38=4000|39=1|37=1a5b514a81d2469c|583=55a2c273a91f4276|40=2|41=-7ce8e7ebe685b74f|44=17.99|55=ENI|54=2|59=0|63=4|60=20150504-13:30:27.424|453=1|448=IB|447=D|452=1|10=209|
20150504-13:30:27.433: 8=FIX.4.4|9=0380|35=8|49=ADR_ARBITRAGE_IB_XNYS|56=LVBSG|34=265|52=20150504-13:30:27|50=XPUS|57=7369691|1=U1216799|207=SMART|6=17.995125|11=2224ca576dc64bf8|14=4000|17=00013911.55472790.01.01|21=1|150=F|31=17.995|151=0|32=3900|100=SMART|38=4000|39=2|37=1a5b514a81d2469c|583=55a2c273a91f4276|40=2|41=-7ce8e7ebe685b74f|44=17.99|55=ENI|54=2|59=0|63=4|60=20150504-13:30:27.426|453=1|448=IB|447=D|452=1|10=121|
20150504-13:30:33.793: 8=FIX.4.4|9=269|35=D|34=167|49=LVBSG|50=7369691|52=20150504-13:30:33.793|56=ADR_ARBITRAGE_IB_XNYS|57=XPUS|1=U1216799|11=-caf0a26bcabb8da|21=1|38=4000|40=2|44=17.99|54=2|55=ENI|59=0|60=20150504-13:30:33.793|63=4|100=SMART|111=100|207=SMART|583=55a2c273a91f4276|453=1|448=IB|447=D|452=1|10=207|
20150504-13:30:33.810: 8=FIX.4.4|9=0337|35=8|49=ADR_ARBITRAGE_IB_XNYS|56=LVBSG|34=266|52=20150504-13:30:33|50=XPUS|57=7369691|1=U1216799|207=SMART|6=0|11=-caf0a26bcabb8da|14=0|17=-6b84e07b8094bc35|21=1|150=A|31=0|151=4000|32=0|100=SMART|38=4000|39=A|37=3917ccf9fd474fbb|583=55a2c273a91f4276|40=2|44=17.99|55=ENI|54=2|59=0|63=4|60=20150504-13:30:33.804|453=1|448=IB|447=D|452=1|10=229|
20150504-13:30:34.001: 8=FIX.4.4|9=0338|35=8|49=ADR_ARBITRAGE_IB_XNYS|56=LVBSG|34=267|52=20150504-13:30:34|50=XPUS|57=7369691|1=U1216799|207=SMART|6=0|11=-caf0a26bcabb8da|14=0|17=81760.1430746233.1|21=1|150=0|31=0|151=4000|32=0|100=SMART|38=4000|39=0|37=3917ccf9fd474fbb|583=55a2c273a91f4276|40=2|44=17.99|55=ENI|54=2|59=0|63=4|60=20150504-13:30:33.988|453=1|448=IB|447=D|452=1|10=006|
20150504-13:30:34.150: 8=FIX.4.4|9=279|35=G|34=168|49=LVBSG|50=7369691|52=20150504-13:30:34.150|56=ADR_ARBITRAGE_IB_XNYS|57=XPUS|1=U1216799|11=55009c2766e3440e|21=1|38=4000|40=2|41=-caf0a26bcabb8da|44=17.98|54=2|55=ENI|59=0|60=20150504-13:30:34.149|63=4|100=SMART|111=100|583=55a2c273a91f4276|453=1|448=IB|447=D|452=1|10=216|
20150504-13:30:34.163: 8=FIX.4.4|9=0356|35=8|49=ADR_ARBITRAGE_IB_XNYS|56=LVBSG|34=268|52=20150504-13:30:34|50=XPUS|57=7369691|1=U1216799|207=SMART|6=0|11=55009c2766e3440e|14=0|17=5d9e6b6e6ae040dd|21=1|150=E|31=0|151=4000|32=0|100=SMART|38=4000|39=E|37=3917ccf9fd474fbb|583=55a2c273a91f4276|40=2|41=-caf0a26bcabb8da|44=17.98|55=ENI|54=2|59=0|63=4|60=20150504-13:30:34.156|453=1|448=IB|447=D|452=1|10=197|
20150504-13:30:34.333: 8=FIX.4.4|9=0378|35=8|49=ADR_ARBITRAGE_IB_XNYS|56=LVBSG|34=269|52=20150504-13:30:34|50=XPUS|57=7369691|1=U1216799|207=SMART|6=17.995|11=55009c2766e3440e|14=3300|17=00013911.554727a9.01.01|21=1|150=F|31=17.995|151=700|32=3300|100=SMART|38=4000|39=1|37=3917ccf9fd474fbb|583=55a2c273a91f4276|40=2|41=-caf0a26bcabb8da|44=17.99|55=ENI|54=2|59=0|63=4|60=20150504-13:30:34.326|453=1|448=IB|447=D|452=1|10=193|
20150504-13:30:34.343: 8=FIX.4.4|9=0379|35=8|49=ADR_ARBITRAGE_IB_XNYS|56=LVBSG|34=270|52=20150504-13:30:34|50=XPUS|57=7369691|1=U1216799|207=SMART|6=17.994583|11=55009c2766e3440e|14=3600|17=00013911.554727aa.01.01|21=1|150=F|31=17.99|151=400|32=300|100=SMART|38=4000|39=1|37=3917ccf9fd474fbb|583=55a2c273a91f4276|40=2|41=-caf0a26bcabb8da|44=17.99|55=ENI|54=2|59=0|63=4|60=20150504-13:30:34.337|453=1|448=IB|447=D|452=1|10=027|
20150504-13:30:34.731: 8=FIX.4.4|9=0368|35=8|49=ADR_ARBITRAGE_IB_XNYS|56=LVBSG|34=271|52=20150504-13:30:34|50=XPUS|57=7369691|1=U1216799|207=SMART|6=17.994583|11=55009c2766e3440e|14=3600|17=81760.1430746234.1|21=1|150=5|31=0|151=400|32=0|100=SMART|38=4000|39=1|37=3917ccf9fd474fbb|583=55a2c273a91f4276|40=2|41=-caf0a26bcabb8da|44=17.98|55=ENI|54=2|59=0|63=4|60=20150504-13:30:34.673|453=1|448=IB|447=D|452=1|10=138|
20150504-13:30:39.304: 8=FIX.4.4|9=268|35=D|34=169|49=LVBSG|50=7369691|52=20150504-13:30:39.303|56=ADR_ARBITRAGE_IB_XNYS|57=XPUS|1=U1216799|11=-6ff376679c06b92a|21=1|38=800|40=2|44=22.3|54=2|55=SQM|59=0|60=20150504-13:30:39.303|63=4|100=SMART|111=100|207=SMART|583=4ddc48d71caf41e0|453=1|448=IB|447=D|452=1|10=088|
