20150515-11:21:06.866: 8=FIX.4.4|9=69|35=5|34=1|49=LVBSG|52=20150515-11:21:06.866|56=ADR_ARBITRAGE_IB_XNYS|10=194|
20150515-11:21:06.872: 8=FIX.4.4|9=0163|35=5|49=ADR_ARBITRAGE_IB_XNYS|56=LVBSG|34=1|52=20150515-11:21:06|58=00100000004crxi_1891- CODE: 1-200-5: Expecting Logon but got Logout: disconnecting immediately|10=012|
20150515-11:21:07.853: 8=FIX.4.4|9=69|35=5|34=1|49=LVBSG|52=20150515-11:21:07.853|56=ADR_ARBITRAGE_IB_XNYS|10=191|
20150515-11:21:07.857: 8=FIX.4.4|9=0163|35=5|49=ADR_ARBITRAGE_IB_XNYS|56=LVBSG|34=2|52=20150515-11:21:07|58=00100000004crxi_1891- CODE: 1-200-5: Expecting Logon but got Logout: disconnecting immediately|10=014|
20150515-11:21:08.846: 8=FIX.4.4|9=87|35=A|34=1|49=LVBSG|52=20150515-11:21:08.846|56=ADR_ARBITRAGE_IB_XNYS|98=0|108=60|141=Y|10=023|
20150515-11:21:08.861: 8=FIX.4.4|9=0083|35=A|49=ADR_ARBITRAGE_IB_XNYS|56=LVBSG|34=1|52=20150515-11:21:08|98=0|108=60|141=Y|10=163|
20150515-11:21:49.098: 8=FIX.4.4|9=0093|35=1|49=ADR_ARBITRAGE_IB_XNYS|56=LVBSG|34=2|52=20150515-11:21:49|112=Appia-20150515-11:21:49|10=161|
20150515-11:21:49.100: 8=FIX.4.4|9=97|35=0|34=2|49=LVBSG|52=20150515-11:21:49.099|56=ADR_ARBITRAGE_IB_XNYS|112=Appia-20150515-11:21:49|10=020|
20150515-11:22:49.098: 8=FIX.4.4|9=0065|35=0|49=ADR_ARBITRAGE_IB_XNYS|56=LVBSG|34=3|52=20150515-11:22:49|10=081|
20150515-11:22:49.100: 8=FIX.4.4|9=69|35=0|34=3|49=LVBSG|52=20150515-11:22:49.099|56=ADR_ARBITRAGE_IB_XNYS|10=197|
20150515-11:23:49.097: 8=FIX.4.4|9=0065|35=0|49=ADR_ARBITRAGE_IB_XNYS|56=LVBSG|34=4|52=20150515-11:23:49|10=083|
20150515-11:23:49.099: 8=FIX.4.4|9=69|35=0|34=4|49=LVBSG|52=20150515-11:23:49.099|56=ADR_ARBITRAGE_IB_XNYS|10=199|
20150515-11:24:49.098: 8=FIX.4.4|9=0065|35=0|49=ADR_ARBITRAGE_IB_XNYS|56=LVBSG|34=5|52=20150515-11:24:49|10=085|
20150515-11:24:49.100: 8=FIX.4.4|9=69|35=0|34=5|49=LVBSG|52=20150515-11:24:49.099|56=ADR_ARBITRAGE_IB_XNYS|10=201|
20150515-11:25:49.098: 8=FIX.4.4|9=0065|35=0|49=ADR_ARBITRAGE_IB_XNYS|56=LVBSG|34=6|52=20150515-11:25:49|10=087|
20150515-11:25:49.100: 8=FIX.4.4|9=69|35=0|34=6|49=LVBSG|52=20150515-11:25:49.099|56=ADR_ARBITRAGE_IB_XNYS|10=203|
20150515-11:26:49.098: 8=FIX.4.4|9=0065|35=0|49=ADR_ARBITRAGE_IB_XNYS|56=LVBSG|34=7|52=20150515-11:26:49|10=089|
20150515-11:26:49.099: 8=FIX.4.4|9=69|35=0|34=7|49=LVBSG|52=20150515-11:26:49.099|56=ADR_ARBITRAGE_IB_XNYS|10=205|
20150515-11:27:49.099: 8=FIX.4.4|9=0065|35=0|49=ADR_ARBITRAGE_IB_XNYS|56=LVBSG|34=8|52=20150515-11:27:49|10=091|
20150515-11:27:49.100: 8=FIX.4.4|9=69|35=0|34=8|49=LVBSG|52=20150515-11:27:49.100|56=ADR_ARBITRAGE_IB_XNYS|10=190|
20150515-11:28:49.100: 8=FIX.4.4|9=0065|35=0|49=ADR_ARBITRAGE_IB_XNYS|56=LVBSG|34=9|52=20150515-11:28:49|10=093|
20150515-11:28:49.101: 8=FIX.4.4|9=69|35=0|34=9|49=LVBSG|52=20150515-11:28:49.101|56=ADR_ARBITRAGE_IB_XNYS|10=193|
20150515-11:29:49.099: 8=FIX.4.4|9=0066|35=0|49=ADR_ARBITRAGE_IB_XNYS|56=LVBSG|34=10|52=20150515-11:29:49|10=135|
20150515-11:29:49.842: 8=FIX.4.4|9=70|35=0|34=10|49=LVBSG|52=20150515-11:29:49.842|56=ADR_ARBITRAGE_IB_XNYS|10=238|
20150515-11:30:49.099: 8=FIX.4.4|9=0066|35=0|49=ADR_ARBITRAGE_IB_XNYS|56=LVBSG|34=11|52=20150515-11:30:49|10=128|
20150515-11:30:50.841: 8=FIX.4.4|9=70|35=0|34=11|49=LVBSG|52=20150515-11:30:50.841|56=ADR_ARBITRAGE_IB_XNYS|10=222|
20150515-11:31:49.104: 8=FIX.4.4|9=0066|35=0|49=ADR_ARBITRAGE_IB_XNYS|56=LVBSG|34=12|52=20150515-11:31:49|10=130|
20150515-11:31:50.842: 8=FIX.4.4|9=70|35=0|34=12|49=LVBSG|52=20150515-11:31:50.842|56=ADR_ARBITRAGE_IB_XNYS|10=225|
20150515-11:32:49.102: 8=FIX.4.4|9=0066|35=0|49=ADR_ARBITRAGE_IB_XNYS|56=LVBSG|34=13|52=20150515-11:32:49|10=132|
20150515-11:32:51.842: 8=FIX.4.4|9=70|35=0|34=13|49=LVBSG|52=20150515-11:32:51.841|56=ADR_ARBITRAGE_IB_XNYS|10=227|
20150515-11:33:49.100: 8=FIX.4.4|9=0066|35=0|49=ADR_ARBITRAGE_IB_XNYS|56=LVBSG|34=14|52=20150515-11:33:49|10=134|
20150515-11:33:51.842: 8=FIX.4.4|9=70|35=0|34=14|49=LVBSG|52=20150515-11:33:51.841|56=ADR_ARBITRAGE_IB_XNYS|10=229|
20150515-11:34:49.100: 8=FIX.4.4|9=0066|35=0|49=ADR_ARBITRAGE_IB_XNYS|56=LVBSG|34=15|52=20150515-11:34:49|10=136|
20150515-11:34:51.842: 8=FIX.4.4|9=70|35=0|34=15|49=LVBSG|52=20150515-11:34:51.841|56=ADR_ARBITRAGE_IB_XNYS|10=231|
20150515-11:35:49.099: 8=FIX.4.4|9=0066|35=0|49=ADR_ARBITRAGE_IB_XNYS|56=LVBSG|34=16|52=20150515-11:35:49|10=138|
20150515-11:35:51.842: 8=FIX.4.4|9=70|35=0|34=16|49=LVBSG|52=20150515-11:35:51.842|56=ADR_ARBITRAGE_IB_XNYS|10=234|
20150515-11:36:49.099: 8=FIX.4.4|9=0066|35=0|49=ADR_ARBITRAGE_IB_XNYS|56=LVBSG|34=17|52=20150515-11:36:49|10=140|
20150515-11:36:52.842: 8=FIX.4.4|9=70|35=0|34=17|49=LVBSG|52=20150515-11:36:52.841|56=ADR_ARBITRAGE_IB_XNYS|10=236|
20150515-11:37:49.103: 8=FIX.4.4|9=0066|35=0|49=ADR_ARBITRAGE_IB_XNYS|56=LVBSG|34=18|52=20150515-11:37:49|10=142|
20150515-11:37:52.842: 8=FIX.4.4|9=70|35=0|34=18|49=LVBSG|52=20150515-11:37:52.841|56=ADR_ARBITRAGE_IB_XNYS|10=238|
20150515-11:38:49.099: 8=FIX.4.4|9=0066|35=0|49=ADR_ARBITRAGE_IB_XNYS|56=LVBSG|34=19|52=20150515-11:38:49|10=144|
20150515-11:38:52.841: 8=FIX.4.4|9=70|35=0|34=19|49=LVBSG|52=20150515-11:38:52.841|56=ADR_ARBITRAGE_IB_XNYS|10=240|
20150515-11:39:49.099: 8=FIX.4.4|9=0066|35=0|49=ADR_ARBITRAGE_IB_XNYS|56=LVBSG|34=20|52=20150515-11:39:49|10=137|
20150515-11:39:52.841: 8=FIX.4.4|9=70|35=0|34=20|49=LVBSG|52=20150515-11:39:52.841|56=ADR_ARBITRAGE_IB_XNYS|10=233|
20150515-11:40:49.099: 8=FIX.4.4|9=0066|35=0|49=ADR_ARBITRAGE_IB_XNYS|56=LVBSG|34=21|52=20150515-11:40:49|10=130|
20150515-11:40:52.842: 8=FIX.4.4|9=70|35=0|34=21|49=LVBSG|52=20150515-11:40:52.841|56=ADR_ARBITRAGE_IB_XNYS|10=226|
20150515-11:41:49.099: 8=FIX.4.4|9=0066|35=0|49=ADR_ARBITRAGE_IB_XNYS|56=LVBSG|34=22|52=20150515-11:41:49|10=132|
20150515-11:41:52.842: 8=FIX.4.4|9=70|35=0|34=22|49=LVBSG|52=20150515-11:41:52.841|56=ADR_ARBITRAGE_IB_XNYS|10=228|
20150515-11:42:49.102: 8=FIX.4.4|9=0066|35=0|49=ADR_ARBITRAGE_IB_XNYS|56=LVBSG|34=23|52=20150515-11:42:49|10=134|
20150515-11:42:52.842: 8=FIX.4.4|9=70|35=0|34=23|49=LVBSG|52=20150515-11:42:52.842|56=ADR_ARBITRAGE_IB_XNYS|10=231|
20150515-11:43:49.100: 8=FIX.4.4|9=0066|35=0|49=ADR_ARBITRAGE_IB_XNYS|56=LVBSG|34=24|52=20150515-11:43:49|10=136|
20150515-11:43:52.842: 8=FIX.4.4|9=70|35=0|34=24|49=LVBSG|52=20150515-11:43:52.841|56=ADR_ARBITRAGE_IB_XNYS|10=232|
20150515-11:44:49.101: 8=FIX.4.4|9=0066|35=0|49=ADR_ARBITRAGE_IB_XNYS|56=LVBSG|34=25|52=20150515-11:44:49|10=138|
20150515-11:44:53.842: 8=FIX.4.4|9=70|35=0|34=25|49=LVBSG|52=20150515-11:44:53.841|56=ADR_ARBITRAGE_IB_XNYS|10=235|
20150515-11:45:49.101: 8=FIX.4.4|9=0066|35=0|49=ADR_ARBITRAGE_IB_XNYS|56=LVBSG|34=26|52=20150515-11:45:49|10=140|
20150515-11:45:53.842: 8=FIX.4.4|9=70|35=0|34=26|49=LVBSG|52=20150515-11:45:53.842|56=ADR_ARBITRAGE_IB_XNYS|10=238|
20150515-11:46:49.107: 8=FIX.4.4|9=0066|35=0|49=ADR_ARBITRAGE_IB_XNYS|56=LVBSG|34=27|52=20150515-11:46:49|10=142|
20150515-11:46:53.842: 8=FIX.4.4|9=70|35=0|34=27|49=LVBSG|52=20150515-11:46:53.841|56=ADR_ARBITRAGE_IB_XNYS|10=239|
20150515-11:47:49.100: 8=FIX.4.4|9=0066|35=0|49=ADR_ARBITRAGE_IB_XNYS|56=LVBSG|34=28|52=20150515-11:47:49|10=144|
20150515-11:47:53.841: 8=FIX.4.4|9=70|35=0|34=28|49=LVBSG|52=20150515-11:47:53.841|56=ADR_ARBITRAGE_IB_XNYS|10=241|
20150515-11:48:49.105: 8=FIX.4.4|9=0066|35=0|49=ADR_ARBITRAGE_IB_XNYS|56=LVBSG|34=29|52=20150515-11:48:49|10=146|
20150515-11:48:53.841: 8=FIX.4.4|9=70|35=0|34=29|49=LVBSG|52=20150515-11:48:53.841|56=ADR_ARBITRAGE_IB_XNYS|10=243|
20150515-11:49:49.101: 8=FIX.4.4|9=0066|35=0|49=ADR_ARBITRAGE_IB_XNYS|56=LVBSG|34=30|52=20150515-11:49:49|10=139|
20150515-11:49:53.841: 8=FIX.4.4|9=70|35=0|34=30|49=LVBSG|52=20150515-11:49:53.841|56=ADR_ARBITRAGE_IB_XNYS|10=236|
20150515-11:50:49.107: 8=FIX.4.4|9=0066|35=0|49=ADR_ARBITRAGE_IB_XNYS|56=LVBSG|34=31|52=20150515-11:50:49|10=132|
20150515-11:50:53.841: 8=FIX.4.4|9=70|35=0|34=31|49=LVBSG|52=20150515-11:50:53.841|56=ADR_ARBITRAGE_IB_XNYS|10=229|
20150515-11:51:49.104: 8=FIX.4.4|9=0066|35=0|49=ADR_ARBITRAGE_IB_XNYS|56=LVBSG|34=32|52=20150515-11:51:49|10=134|
20150515-11:51:53.842: 8=FIX.4.4|9=70|35=0|34=32|49=LVBSG|52=20150515-11:51:53.841|56=ADR_ARBITRAGE_IB_XNYS|10=231|
20150515-11:52:49.101: 8=FIX.4.4|9=0066|35=0|49=ADR_ARBITRAGE_IB_XNYS|56=LVBSG|34=33|52=20150515-11:52:49|10=136|
20150515-11:52:53.842: 8=FIX.4.4|9=70|35=0|34=33|49=LVBSG|52=20150515-11:52:53.841|56=ADR_ARBITRAGE_IB_XNYS|10=233|
20150515-11:53:49.100: 8=FIX.4.4|9=0066|35=0|49=ADR_ARBITRAGE_IB_XNYS|56=LVBSG|34=34|52=20150515-11:53:49|10=138|
20150515-11:53:53.841: 8=FIX.4.4|9=70|35=0|34=34|49=LVBSG|52=20150515-11:53:53.841|56=ADR_ARBITRAGE_IB_XNYS|10=235|
20150515-11:54:49.105: 8=FIX.4.4|9=0066|35=0|49=ADR_ARBITRAGE_IB_XNYS|56=LVBSG|34=35|52=20150515-11:54:49|10=140|
20150515-11:54:54.841: 8=FIX.4.4|9=70|35=0|34=35|49=LVBSG|52=20150515-11:54:54.841|56=ADR_ARBITRAGE_IB_XNYS|10=238|
20150515-11:55:49.100: 8=FIX.4.4|9=0066|35=0|49=ADR_ARBITRAGE_IB_XNYS|56=LVBSG|34=36|52=20150515-11:55:49|10=142|
20150515-11:55:54.841: 8=FIX.4.4|9=70|35=0|34=36|49=LVBSG|52=20150515-11:55:54.841|56=ADR_ARBITRAGE_IB_XNYS|10=240|
20150515-11:56:49.101: 8=FIX.4.4|9=0066|35=0|49=ADR_ARBITRAGE_IB_XNYS|56=LVBSG|34=37|52=20150515-11:56:49|10=144|
20150515-11:56:54.841: 8=FIX.4.4|9=70|35=0|34=37|49=LVBSG|52=20150515-11:56:54.841|56=ADR_ARBITRAGE_IB_XNYS|10=242|
20150515-11:57:49.102: 8=FIX.4.4|9=0066|35=0|49=ADR_ARBITRAGE_IB_XNYS|56=LVBSG|34=38|52=20150515-11:57:49|10=146|
20150515-11:57:54.841: 8=FIX.4.4|9=70|35=0|34=38|49=LVBSG|52=20150515-11:57:54.841|56=ADR_ARBITRAGE_IB_XNYS|10=244|
20150515-11:58:49.103: 8=FIX.4.4|9=0066|35=0|49=ADR_ARBITRAGE_IB_XNYS|56=LVBSG|34=39|52=20150515-11:58:49|10=148|
20150515-11:58:54.842: 8=FIX.4.4|9=70|35=0|34=39|49=LVBSG|52=20150515-11:58:54.841|56=ADR_ARBITRAGE_IB_XNYS|10=246|
20150515-11:59:49.102: 8=FIX.4.4|9=0066|35=0|49=ADR_ARBITRAGE_IB_XNYS|56=LVBSG|34=40|52=20150515-11:59:49|10=141|
20150515-11:59:55.841: 8=FIX.4.4|9=70|35=0|34=40|49=LVBSG|52=20150515-11:59:55.841|56=ADR_ARBITRAGE_IB_XNYS|10=240|
20150515-12:00:49.103: 8=FIX.4.4|9=0066|35=0|49=ADR_ARBITRAGE_IB_XNYS|56=LVBSG|34=41|52=20150515-12:00:49|10=129|
20150515-12:00:56.841: 8=FIX.4.4|9=70|35=0|34=41|49=LVBSG|52=20150515-12:00:56.841|56=ADR_ARBITRAGE_IB_XNYS|10=229|
20150515-12:01:49.103: 8=FIX.4.4|9=0066|35=0|49=ADR_ARBITRAGE_IB_XNYS|56=LVBSG|34=42|52=20150515-12:01:49|10=131|
20150515-12:01:57.841: 8=FIX.4.4|9=70|35=0|34=42|49=LVBSG|52=20150515-12:01:57.841|56=ADR_ARBITRAGE_IB_XNYS|10=232|
20150515-12:02:49.102: 8=FIX.4.4|9=0066|35=0|49=ADR_ARBITRAGE_IB_XNYS|56=LVBSG|34=43|52=20150515-12:02:49|10=133|
20150515-12:02:57.841: 8=FIX.4.4|9=70|35=0|34=43|49=LVBSG|52=20150515-12:02:57.841|56=ADR_ARBITRAGE_IB_XNYS|10=234|
20150515-12:03:49.102: 8=FIX.4.4|9=0066|35=0|49=ADR_ARBITRAGE_IB_XNYS|56=LVBSG|34=44|52=20150515-12:03:49|10=135|
20150515-12:03:58.841: 8=FIX.4.4|9=70|35=0|34=44|49=LVBSG|52=20150515-12:03:58.841|56=ADR_ARBITRAGE_IB_XNYS|10=237|
20150515-12:04:49.105: 8=FIX.4.4|9=0066|35=0|49=ADR_ARBITRAGE_IB_XNYS|56=LVBSG|34=45|52=20150515-12:04:49|10=137|
20150515-12:04:59.841: 8=FIX.4.4|9=70|35=0|34=45|49=LVBSG|52=20150515-12:04:59.841|56=ADR_ARBITRAGE_IB_XNYS|10=240|
20150515-12:05:49.107: 8=FIX.4.4|9=0066|35=0|49=ADR_ARBITRAGE_IB_XNYS|56=LVBSG|34=46|52=20150515-12:05:49|10=139|
20150515-12:05:59.842: 8=FIX.4.4|9=70|35=0|34=46|49=LVBSG|52=20150515-12:05:59.841|56=ADR_ARBITRAGE_IB_XNYS|10=242|
20150515-12:06:49.108: 8=FIX.4.4|9=0066|35=0|49=ADR_ARBITRAGE_IB_XNYS|56=LVBSG|34=47|52=20150515-12:06:49|10=141|
20150515-12:07:00.841: 8=FIX.4.4|9=70|35=0|34=47|49=LVBSG|52=20150515-12:07:00.841|56=ADR_ARBITRAGE_IB_XNYS|10=231|
20150515-12:07:49.112: 8=FIX.4.4|9=0066|35=0|49=ADR_ARBITRAGE_IB_XNYS|56=LVBSG|34=48|52=20150515-12:07:49|10=143|
20150515-12:08:00.841: 8=FIX.4.4|9=70|35=0|34=48|49=LVBSG|52=20150515-12:08:00.841|56=ADR_ARBITRAGE_IB_XNYS|10=233|
20150515-12:08:49.107: 8=FIX.4.4|9=0066|35=0|49=ADR_ARBITRAGE_IB_XNYS|56=LVBSG|34=49|52=20150515-12:08:49|10=145|
20150515-12:09:00.841: 8=FIX.4.4|9=70|35=0|34=49|49=LVBSG|52=20150515-12:09:00.841|56=ADR_ARBITRAGE_IB_XNYS|10=235|
20150515-12:09:49.107: 8=FIX.4.4|9=0066|35=0|49=ADR_ARBITRAGE_IB_XNYS|56=LVBSG|34=50|52=20150515-12:09:49|10=138|
20150515-12:10:00.841: 8=FIX.4.4|9=70|35=0|34=50|49=LVBSG|52=20150515-12:10:00.841|56=ADR_ARBITRAGE_IB_XNYS|10=219|
20150515-12:10:49.108: 8=FIX.4.4|9=0066|35=0|49=ADR_ARBITRAGE_IB_XNYS|56=LVBSG|34=51|52=20150515-12:10:49|10=131|
20150515-12:11:00.841: 8=FIX.4.4|9=70|35=0|34=51|49=LVBSG|52=20150515-12:11:00.841|56=ADR_ARBITRAGE_IB_XNYS|10=221|
20150515-12:11:49.108: 8=FIX.4.4|9=0066|35=0|49=ADR_ARBITRAGE_IB_XNYS|56=LVBSG|34=52|52=20150515-12:11:49|10=133|
20150515-12:12:00.841: 8=FIX.4.4|9=70|35=0|34=52|49=LVBSG|52=20150515-12:12:00.841|56=ADR_ARBITRAGE_IB_XNYS|10=223|
20150515-12:12:49.109: 8=FIX.4.4|9=0066|35=0|49=ADR_ARBITRAGE_IB_XNYS|56=LVBSG|34=53|52=20150515-12:12:49|10=135|
20150515-12:13:00.841: 8=FIX.4.4|9=70|35=0|34=53|49=LVBSG|52=20150515-12:13:00.841|56=ADR_ARBITRAGE_IB_XNYS|10=225|
20150515-12:13:49.110: 8=FIX.4.4|9=0066|35=0|49=ADR_ARBITRAGE_IB_XNYS|56=LVBSG|34=54|52=20150515-12:13:49|10=137|
20150515-12:14:00.841: 8=FIX.4.4|9=70|35=0|34=54|49=LVBSG|52=20150515-12:14:00.841|56=ADR_ARBITRAGE_IB_XNYS|10=227|
20150515-12:14:49.121: 8=FIX.4.4|9=0066|35=0|49=ADR_ARBITRAGE_IB_XNYS|56=LVBSG|34=55|52=20150515-12:14:49|10=139|
20150515-12:15:01.841: 8=FIX.4.4|9=70|35=0|34=55|49=LVBSG|52=20150515-12:15:01.841|56=ADR_ARBITRAGE_IB_XNYS|10=230|
20150515-12:15:49.109: 8=FIX.4.4|9=0066|35=0|49=ADR_ARBITRAGE_IB_XNYS|56=LVBSG|34=56|52=20150515-12:15:49|10=141|
20150515-12:16:01.842: 8=FIX.4.4|9=70|35=0|34=56|49=LVBSG|52=20150515-12:16:01.841|56=ADR_ARBITRAGE_IB_XNYS|10=232|
20150515-12:16:49.109: 8=FIX.4.4|9=0066|35=0|49=ADR_ARBITRAGE_IB_XNYS|56=LVBSG|34=57|52=20150515-12:16:49|10=143|
20150515-12:17:01.841: 8=FIX.4.4|9=70|35=0|34=57|49=LVBSG|52=20150515-12:17:01.841|56=ADR_ARBITRAGE_IB_XNYS|10=234|
20150515-12:17:49.111: 8=FIX.4.4|9=0066|35=0|49=ADR_ARBITRAGE_IB_XNYS|56=LVBSG|34=58|52=20150515-12:17:49|10=145|
20150515-12:18:01.842: 8=FIX.4.4|9=70|35=0|34=58|49=LVBSG|52=20150515-12:18:01.841|56=ADR_ARBITRAGE_IB_XNYS|10=236|
20150515-12:18:49.109: 8=FIX.4.4|9=0066|35=0|49=ADR_ARBITRAGE_IB_XNYS|56=LVBSG|34=59|52=20150515-12:18:49|10=147|
20150515-12:19:01.841: 8=FIX.4.4|9=70|35=0|34=59|49=LVBSG|52=20150515-12:19:01.841|56=ADR_ARBITRAGE_IB_XNYS|10=238|
20150515-12:19:49.117: 8=FIX.4.4|9=0066|35=0|49=ADR_ARBITRAGE_IB_XNYS|56=LVBSG|34=60|52=20150515-12:19:49|10=140|
20150515-12:20:02.841: 8=FIX.4.4|9=70|35=0|34=60|49=LVBSG|52=20150515-12:20:02.841|56=ADR_ARBITRAGE_IB_XNYS|10=223|
20150515-12:20:49.111: 8=FIX.4.4|9=0066|35=0|49=ADR_ARBITRAGE_IB_XNYS|56=LVBSG|34=61|52=20150515-12:20:49|10=133|
20150515-12:21:02.841: 8=FIX.4.4|9=70|35=0|34=61|49=LVBSG|52=20150515-12:21:02.841|56=ADR_ARBITRAGE_IB_XNYS|10=225|
20150515-12:21:49.110: 8=FIX.4.4|9=0066|35=0|49=ADR_ARBITRAGE_IB_XNYS|56=LVBSG|34=62|52=20150515-12:21:49|10=135|
20150515-12:22:02.841: 8=FIX.4.4|9=70|35=0|34=62|49=LVBSG|52=20150515-12:22:02.841|56=ADR_ARBITRAGE_IB_XNYS|10=227|
20150515-12:22:49.109: 8=FIX.4.4|9=0066|35=0|49=ADR_ARBITRAGE_IB_XNYS|56=LVBSG|34=63|52=20150515-12:22:49|10=137|
20150515-12:23:02.841: 8=FIX.4.4|9=70|35=0|34=63|49=LVBSG|52=20150515-12:23:02.841|56=ADR_ARBITRAGE_IB_XNYS|10=229|
20150515-12:23:49.110: 8=FIX.4.4|9=0066|35=0|49=ADR_ARBITRAGE_IB_XNYS|56=LVBSG|34=64|52=20150515-12:23:49|10=139|
20150515-12:24:02.842: 8=FIX.4.4|9=70|35=0|34=64|49=LVBSG|52=20150515-12:24:02.841|56=ADR_ARBITRAGE_IB_XNYS|10=231|
20150515-12:24:49.109: 8=FIX.4.4|9=0066|35=0|49=ADR_ARBITRAGE_IB_XNYS|56=LVBSG|34=65|52=20150515-12:24:49|10=141|
20150515-12:25:02.841: 8=FIX.4.4|9=70|35=0|34=65|49=LVBSG|52=20150515-12:25:02.841|56=ADR_ARBITRAGE_IB_XNYS|10=233|
20150515-12:25:49.110: 8=FIX.4.4|9=0066|35=0|49=ADR_ARBITRAGE_IB_XNYS|56=LVBSG|34=66|52=20150515-12:25:49|10=143|
20150515-12:26:02.841: 8=FIX.4.4|9=70|35=0|34=66|49=LVBSG|52=20150515-12:26:02.841|56=ADR_ARBITRAGE_IB_XNYS|10=235|
20150515-12:26:49.109: 8=FIX.4.4|9=0066|35=0|49=ADR_ARBITRAGE_IB_XNYS|56=LVBSG|34=67|52=20150515-12:26:49|10=145|
20150515-12:27:03.841: 8=FIX.4.4|9=70|35=0|34=67|49=LVBSG|52=20150515-12:27:03.841|56=ADR_ARBITRAGE_IB_XNYS|10=238|
20150515-12:27:49.109: 8=FIX.4.4|9=0066|35=0|49=ADR_ARBITRAGE_IB_XNYS|56=LVBSG|34=68|52=20150515-12:27:49|10=147|
20150515-12:28:03.841: 8=FIX.4.4|9=70|35=0|34=68|49=LVBSG|52=20150515-12:28:03.841|56=ADR_ARBITRAGE_IB_XNYS|10=240|
20150515-12:28:49.110: 8=FIX.4.4|9=0066|35=0|49=ADR_ARBITRAGE_IB_XNYS|56=LVBSG|34=69|52=20150515-12:28:49|10=149|
20150515-12:29:03.841: 8=FIX.4.4|9=70|35=0|34=69|49=LVBSG|52=20150515-12:29:03.841|56=ADR_ARBITRAGE_IB_XNYS|10=242|
20150515-12:29:49.109: 8=FIX.4.4|9=0066|35=0|49=ADR_ARBITRAGE_IB_XNYS|56=LVBSG|34=70|52=20150515-12:29:49|10=142|
20150515-12:30:03.841: 8=FIX.4.4|9=70|35=0|34=70|49=LVBSG|52=20150515-12:30:03.841|56=ADR_ARBITRAGE_IB_XNYS|10=226|
20150515-12:30:49.111: 8=FIX.4.4|9=0066|35=0|49=ADR_ARBITRAGE_IB_XNYS|56=LVBSG|34=71|52=20150515-12:30:49|10=135|
20150515-12:31:03.841: 8=FIX.4.4|9=70|35=0|34=71|49=LVBSG|52=20150515-12:31:03.841|56=ADR_ARBITRAGE_IB_XNYS|10=228|
20150515-12:31:49.110: 8=FIX.4.4|9=0066|35=0|49=ADR_ARBITRAGE_IB_XNYS|56=LVBSG|34=72|52=20150515-12:31:49|10=137|
20150515-12:32:03.841: 8=FIX.4.4|9=70|35=0|34=72|49=LVBSG|52=20150515-12:32:03.841|56=ADR_ARBITRAGE_IB_XNYS|10=230|
20150515-12:32:49.110: 8=FIX.4.4|9=0066|35=0|49=ADR_ARBITRAGE_IB_XNYS|56=LVBSG|34=73|52=20150515-12:32:49|10=139|
20150515-12:33:03.841: 8=FIX.4.4|9=70|35=0|34=73|49=LVBSG|52=20150515-12:33:03.841|56=ADR_ARBITRAGE_IB_XNYS|10=232|
20150515-12:33:49.111: 8=FIX.4.4|9=0066|35=0|49=ADR_ARBITRAGE_IB_XNYS|56=LVBSG|34=74|52=20150515-12:33:49|10=141|
20150515-12:34:03.841: 8=FIX.4.4|9=70|35=0|34=74|49=LVBSG|52=20150515-12:34:03.841|56=ADR_ARBITRAGE_IB_XNYS|10=234|
20150515-12:34:49.110: 8=FIX.4.4|9=0066|35=0|49=ADR_ARBITRAGE_IB_XNYS|56=LVBSG|34=75|52=20150515-12:34:49|10=143|
20150515-12:35:04.841: 8=FIX.4.4|9=70|35=0|34=75|49=LVBSG|52=20150515-12:35:04.841|56=ADR_ARBITRAGE_IB_XNYS|10=237|
20150515-12:35:49.110: 8=FIX.4.4|9=0066|35=0|49=ADR_ARBITRAGE_IB_XNYS|56=LVBSG|34=76|52=20150515-12:35:49|10=145|
20150515-12:36:04.842: 8=FIX.4.4|9=70|35=0|34=76|49=LVBSG|52=20150515-12:36:04.841|56=ADR_ARBITRAGE_IB_XNYS|10=239|
20150515-12:36:49.110: 8=FIX.4.4|9=0066|35=0|49=ADR_ARBITRAGE_IB_XNYS|56=LVBSG|34=77|52=20150515-12:36:49|10=147|
20150515-12:37:05.841: 8=FIX.4.4|9=70|35=0|34=77|49=LVBSG|52=20150515-12:37:05.841|56=ADR_ARBITRAGE_IB_XNYS|10=242|
20150515-12:37:49.110: 8=FIX.4.4|9=0066|35=0|49=ADR_ARBITRAGE_IB_XNYS|56=LVBSG|34=78|52=20150515-12:37:49|10=149|
20150515-12:38:05.841: 8=FIX.4.4|9=70|35=0|34=78|49=LVBSG|52=20150515-12:38:05.841|56=ADR_ARBITRAGE_IB_XNYS|10=244|
20150515-12:38:49.111: 8=FIX.4.4|9=0066|35=0|49=ADR_ARBITRAGE_IB_XNYS|56=LVBSG|34=79|52=20150515-12:38:49|10=151|
20150515-12:39:05.842: 8=FIX.4.4|9=70|35=0|34=79|49=LVBSG|52=20150515-12:39:05.841|56=ADR_ARBITRAGE_IB_XNYS|10=246|
20150515-12:39:49.112: 8=FIX.4.4|9=0066|35=0|49=ADR_ARBITRAGE_IB_XNYS|56=LVBSG|34=80|52=20150515-12:39:49|10=144|
20150515-12:40:05.842: 8=FIX.4.4|9=70|35=0|34=80|49=LVBSG|52=20150515-12:40:05.841|56=ADR_ARBITRAGE_IB_XNYS|10=230|
20150515-12:40:49.118: 8=FIX.4.4|9=0066|35=0|49=ADR_ARBITRAGE_IB_XNYS|56=LVBSG|34=81|52=20150515-12:40:49|10=137|
20150515-12:41:05.841: 8=FIX.4.4|9=70|35=0|34=81|49=LVBSG|52=20150515-12:41:05.841|56=ADR_ARBITRAGE_IB_XNYS|10=232|
20150515-12:41:49.112: 8=FIX.4.4|9=0066|35=0|49=ADR_ARBITRAGE_IB_XNYS|56=LVBSG|34=82|52=20150515-12:41:49|10=139|
20150515-12:42:06.841: 8=FIX.4.4|9=70|35=0|34=82|49=LVBSG|52=20150515-12:42:06.841|56=ADR_ARBITRAGE_IB_XNYS|10=235|
20150515-12:42:49.116: 8=FIX.4.4|9=0066|35=0|49=ADR_ARBITRAGE_IB_XNYS|56=LVBSG|34=83|52=20150515-12:42:49|10=141|
20150515-12:43:06.841: 8=FIX.4.4|9=70|35=0|34=83|49=LVBSG|52=20150515-12:43:06.841|56=ADR_ARBITRAGE_IB_XNYS|10=237|
20150515-12:43:49.120: 8=FIX.4.4|9=0066|35=0|49=ADR_ARBITRAGE_IB_XNYS|56=LVBSG|34=84|52=20150515-12:43:49|10=143|
20150515-12:44:06.841: 8=FIX.4.4|9=70|35=0|34=84|49=LVBSG|52=20150515-12:44:06.841|56=ADR_ARBITRAGE_IB_XNYS|10=239|
20150515-12:44:49.114: 8=FIX.4.4|9=0066|35=0|49=ADR_ARBITRAGE_IB_XNYS|56=LVBSG|34=85|52=20150515-12:44:49|10=145|
20150515-12:45:06.841: 8=FIX.4.4|9=70|35=0|34=85|49=LVBSG|52=20150515-12:45:06.841|56=ADR_ARBITRAGE_IB_XNYS|10=241|
20150515-12:45:49.115: 8=FIX.4.4|9=0066|35=0|49=ADR_ARBITRAGE_IB_XNYS|56=LVBSG|34=86|52=20150515-12:45:49|10=147|
20150515-12:46:07.841: 8=FIX.4.4|9=70|35=0|34=86|49=LVBSG|52=20150515-12:46:07.841|56=ADR_ARBITRAGE_IB_XNYS|10=244|
20150515-12:46:49.113: 8=FIX.4.4|9=0066|35=0|49=ADR_ARBITRAGE_IB_XNYS|56=LVBSG|34=87|52=20150515-12:46:49|10=149|
20150515-12:47:07.842: 8=FIX.4.4|9=70|35=0|34=87|49=LVBSG|52=20150515-12:47:07.841|56=ADR_ARBITRAGE_IB_XNYS|10=246|
20150515-12:47:49.113: 8=FIX.4.4|9=0066|35=0|49=ADR_ARBITRAGE_IB_XNYS|56=LVBSG|34=88|52=20150515-12:47:49|10=151|
20150515-12:48:07.841: 8=FIX.4.4|9=70|35=0|34=88|49=LVBSG|52=20150515-12:48:07.841|56=ADR_ARBITRAGE_IB_XNYS|10=248|
20150515-12:48:49.114: 8=FIX.4.4|9=0066|35=0|49=ADR_ARBITRAGE_IB_XNYS|56=LVBSG|34=89|52=20150515-12:48:49|10=153|
20150515-12:49:07.841: 8=FIX.4.4|9=70|35=0|34=89|49=LVBSG|52=20150515-12:49:07.841|56=ADR_ARBITRAGE_IB_XNYS|10=250|
20150515-12:49:49.114: 8=FIX.4.4|9=0066|35=0|49=ADR_ARBITRAGE_IB_XNYS|56=LVBSG|34=90|52=20150515-12:49:49|10=146|
20150515-12:50:07.841: 8=FIX.4.4|9=70|35=0|34=90|49=LVBSG|52=20150515-12:50:07.841|56=ADR_ARBITRAGE_IB_XNYS|10=234|
20150515-12:50:49.115: 8=FIX.4.4|9=0066|35=0|49=ADR_ARBITRAGE_IB_XNYS|56=LVBSG|34=91|52=20150515-12:50:49|10=139|
20150515-12:51:07.841: 8=FIX.4.4|9=70|35=0|34=91|49=LVBSG|52=20150515-12:51:07.841|56=ADR_ARBITRAGE_IB_XNYS|10=236|
20150515-12:51:49.116: 8=FIX.4.4|9=0066|35=0|49=ADR_ARBITRAGE_IB_XNYS|56=LVBSG|34=92|52=20150515-12:51:49|10=141|
20150515-12:52:08.841: 8=FIX.4.4|9=70|35=0|34=92|49=LVBSG|52=20150515-12:52:08.841|56=ADR_ARBITRAGE_IB_XNYS|10=239|
20150515-12:52:49.116: 8=FIX.4.4|9=0066|35=0|49=ADR_ARBITRAGE_IB_XNYS|56=LVBSG|34=93|52=20150515-12:52:49|10=143|
20150515-12:53:08.841: 8=FIX.4.4|9=70|35=0|34=93|49=LVBSG|52=20150515-12:53:08.841|56=ADR_ARBITRAGE_IB_XNYS|10=241|
20150515-12:53:49.114: 8=FIX.4.4|9=0066|35=0|49=ADR_ARBITRAGE_IB_XNYS|56=LVBSG|34=94|52=20150515-12:53:49|10=145|
20150515-12:54:08.841: 8=FIX.4.4|9=70|35=0|34=94|49=LVBSG|52=20150515-12:54:08.841|56=ADR_ARBITRAGE_IB_XNYS|10=243|
20150515-12:54:49.117: 8=FIX.4.4|9=0066|35=0|49=ADR_ARBITRAGE_IB_XNYS|56=LVBSG|34=95|52=20150515-12:54:49|10=147|
20150515-12:55:09.841: 8=FIX.4.4|9=70|35=0|34=95|49=LVBSG|52=20150515-12:55:09.841|56=ADR_ARBITRAGE_IB_XNYS|10=246|
20150515-12:55:49.115: 8=FIX.4.4|9=0066|35=0|49=ADR_ARBITRAGE_IB_XNYS|56=LVBSG|34=96|52=20150515-12:55:49|10=149|
20150515-12:56:09.841: 8=FIX.4.4|9=70|35=0|34=96|49=LVBSG|52=20150515-12:56:09.841|56=ADR_ARBITRAGE_IB_XNYS|10=248|
20150515-12:56:49.115: 8=FIX.4.4|9=0066|35=0|49=ADR_ARBITRAGE_IB_XNYS|56=LVBSG|34=97|52=20150515-12:56:49|10=151|
20150515-12:57:09.842: 8=FIX.4.4|9=70|35=0|34=97|49=LVBSG|52=20150515-12:57:09.841|56=ADR_ARBITRAGE_IB_XNYS|10=250|
20150515-12:57:49.116: 8=FIX.4.4|9=0066|35=0|49=ADR_ARBITRAGE_IB_XNYS|56=LVBSG|34=98|52=20150515-12:57:49|10=153|
20150515-12:58:09.841: 8=FIX.4.4|9=70|35=0|34=98|49=LVBSG|52=20150515-12:58:09.841|56=ADR_ARBITRAGE_IB_XNYS|10=252|
20150515-12:58:49.116: 8=FIX.4.4|9=0066|35=0|49=ADR_ARBITRAGE_IB_XNYS|56=LVBSG|34=99|52=20150515-12:58:49|10=155|
20150515-12:59:09.841: 8=FIX.4.4|9=70|35=0|34=99|49=LVBSG|52=20150515-12:59:09.841|56=ADR_ARBITRAGE_IB_XNYS|10=254|
20150515-12:59:49.116: 8=FIX.4.4|9=0067|35=0|49=ADR_ARBITRAGE_IB_XNYS|56=LVBSG|34=100|52=20150515-12:59:49|10=188|
20150515-13:00:09.842: 8=FIX.4.4|9=71|35=0|34=100|49=LVBSG|52=20150515-13:00:09.841|56=ADR_ARBITRAGE_IB_XNYS|10=017|
20150515-13:00:49.116: 8=FIX.4.4|9=0067|35=0|49=ADR_ARBITRAGE_IB_XNYS|56=LVBSG|34=101|52=20150515-13:00:49|10=176|
20150515-13:01:09.842: 8=FIX.4.4|9=71|35=0|34=101|49=LVBSG|52=20150515-13:01:09.841|56=ADR_ARBITRAGE_IB_XNYS|10=019|
20150515-13:01:49.184: 8=FIX.4.4|9=0067|35=0|49=ADR_ARBITRAGE_IB_XNYS|56=LVBSG|34=102|52=20150515-13:01:49|10=178|
20150515-13:02:09.841: 8=FIX.4.4|9=71|35=0|34=102|49=LVBSG|52=20150515-13:02:09.841|56=ADR_ARBITRAGE_IB_XNYS|10=021|
20150515-13:02:49.115: 8=FIX.4.4|9=0067|35=0|49=ADR_ARBITRAGE_IB_XNYS|56=LVBSG|34=103|52=20150515-13:02:49|10=180|
20150515-13:03:09.841: 8=FIX.4.4|9=71|35=0|34=103|49=LVBSG|52=20150515-13:03:09.841|56=ADR_ARBITRAGE_IB_XNYS|10=023|
20150515-13:03:49.118: 8=FIX.4.4|9=0067|35=0|49=ADR_ARBITRAGE_IB_XNYS|56=LVBSG|34=104|52=20150515-13:03:49|10=182|
20150515-13:04:09.842: 8=FIX.4.4|9=71|35=0|34=104|49=LVBSG|52=20150515-13:04:09.841|56=ADR_ARBITRAGE_IB_XNYS|10=025|
20150515-13:04:49.115: 8=FIX.4.4|9=0067|35=0|49=ADR_ARBITRAGE_IB_XNYS|56=LVBSG|34=105|52=20150515-13:04:49|10=184|
20150515-13:05:09.842: 8=FIX.4.4|9=71|35=0|34=105|49=LVBSG|52=20150515-13:05:09.841|56=ADR_ARBITRAGE_IB_XNYS|10=027|
20150515-13:05:49.121: 8=FIX.4.4|9=0067|35=0|49=ADR_ARBITRAGE_IB_XNYS|56=LVBSG|34=106|52=20150515-13:05:49|10=186|
20150515-13:06:09.841: 8=FIX.4.4|9=71|35=0|34=106|49=LVBSG|52=20150515-13:06:09.841|56=ADR_ARBITRAGE_IB_XNYS|10=029|
20150515-13:06:49.115: 8=FIX.4.4|9=0067|35=0|49=ADR_ARBITRAGE_IB_XNYS|56=LVBSG|34=107|52=20150515-13:06:49|10=188|
20150515-13:07:09.841: 8=FIX.4.4|9=71|35=0|34=107|49=LVBSG|52=20150515-13:07:09.841|56=ADR_ARBITRAGE_IB_XNYS|10=031|
20150515-13:07:49.116: 8=FIX.4.4|9=0067|35=0|49=ADR_ARBITRAGE_IB_XNYS|56=LVBSG|34=108|52=20150515-13:07:49|10=190|
20150515-13:08:09.841: 8=FIX.4.4|9=71|35=0|34=108|49=LVBSG|52=20150515-13:08:09.841|56=ADR_ARBITRAGE_IB_XNYS|10=033|
20150515-13:08:49.117: 8=FIX.4.4|9=0067|35=0|49=ADR_ARBITRAGE_IB_XNYS|56=LVBSG|34=109|52=20150515-13:08:49|10=192|
20150515-13:09:09.841: 8=FIX.4.4|9=71|35=0|34=109|49=LVBSG|52=20150515-13:09:09.841|56=ADR_ARBITRAGE_IB_XNYS|10=035|
20150515-13:09:49.117: 8=FIX.4.4|9=0067|35=0|49=ADR_ARBITRAGE_IB_XNYS|56=LVBSG|34=110|52=20150515-13:09:49|10=185|
20150515-13:10:09.841: 8=FIX.4.4|9=71|35=0|34=110|49=LVBSG|52=20150515-13:10:09.841|56=ADR_ARBITRAGE_IB_XNYS|10=019|
20150515-13:10:49.117: 8=FIX.4.4|9=0067|35=0|49=ADR_ARBITRAGE_IB_XNYS|56=LVBSG|34=111|52=20150515-13:10:49|10=178|
20150515-13:11:09.841: 8=FIX.4.4|9=71|35=0|34=111|49=LVBSG|52=20150515-13:11:09.841|56=ADR_ARBITRAGE_IB_XNYS|10=021|
20150515-13:11:49.118: 8=FIX.4.4|9=0067|35=0|49=ADR_ARBITRAGE_IB_XNYS|56=LVBSG|34=112|52=20150515-13:11:49|10=180|
20150515-13:12:09.842: 8=FIX.4.4|9=71|35=0|34=112|49=LVBSG|52=20150515-13:12:09.841|56=ADR_ARBITRAGE_IB_XNYS|10=023|
20150515-13:12:49.116: 8=FIX.4.4|9=0067|35=0|49=ADR_ARBITRAGE_IB_XNYS|56=LVBSG|34=113|52=20150515-13:12:49|10=182|
20150515-13:13:09.841: 8=FIX.4.4|9=71|35=0|34=113|49=LVBSG|52=20150515-13:13:09.841|56=ADR_ARBITRAGE_IB_XNYS|10=025|
20150515-13:13:49.118: 8=FIX.4.4|9=0067|35=0|49=ADR_ARBITRAGE_IB_XNYS|56=LVBSG|34=114|52=20150515-13:13:49|10=184|
20150515-13:14:10.841: 8=FIX.4.4|9=71|35=0|34=114|49=LVBSG|52=20150515-13:14:10.841|56=ADR_ARBITRAGE_IB_XNYS|10=019|
20150515-13:14:49.117: 8=FIX.4.4|9=0067|35=0|49=ADR_ARBITRAGE_IB_XNYS|56=LVBSG|34=115|52=20150515-13:14:49|10=186|
20150515-13:15:10.842: 8=FIX.4.4|9=71|35=0|34=115|49=LVBSG|52=20150515-13:15:10.841|56=ADR_ARBITRAGE_IB_XNYS|10=021|
20150515-13:15:49.123: 8=FIX.4.4|9=0067|35=0|49=ADR_ARBITRAGE_IB_XNYS|56=LVBSG|34=116|52=20150515-13:15:49|10=188|
20150515-13:16:10.841: 8=FIX.4.4|9=71|35=0|34=116|49=LVBSG|52=20150515-13:16:10.841|56=ADR_ARBITRAGE_IB_XNYS|10=023|
20150515-13:16:49.121: 8=FIX.4.4|9=0067|35=0|49=ADR_ARBITRAGE_IB_XNYS|56=LVBSG|34=117|52=20150515-13:16:49|10=190|
20150515-13:17:10.841: 8=FIX.4.4|9=71|35=0|34=117|49=LVBSG|52=20150515-13:17:10.841|56=ADR_ARBITRAGE_IB_XNYS|10=025|
20150515-13:17:49.119: 8=FIX.4.4|9=0067|35=0|49=ADR_ARBITRAGE_IB_XNYS|56=LVBSG|34=118|52=20150515-13:17:49|10=192|
20150515-13:18:10.841: 8=FIX.4.4|9=71|35=0|34=118|49=LVBSG|52=20150515-13:18:10.841|56=ADR_ARBITRAGE_IB_XNYS|10=027|
20150515-13:18:49.118: 8=FIX.4.4|9=0067|35=0|49=ADR_ARBITRAGE_IB_XNYS|56=LVBSG|34=119|52=20150515-13:18:49|10=194|
20150515-13:19:10.841: 8=FIX.4.4|9=71|35=0|34=119|49=LVBSG|52=20150515-13:19:10.841|56=ADR_ARBITRAGE_IB_XNYS|10=029|
20150515-13:19:49.118: 8=FIX.4.4|9=0067|35=0|49=ADR_ARBITRAGE_IB_XNYS|56=LVBSG|34=120|52=20150515-13:19:49|10=187|
20150515-13:20:10.841: 8=FIX.4.4|9=71|35=0|34=120|49=LVBSG|52=20150515-13:20:10.841|56=ADR_ARBITRAGE_IB_XNYS|10=013|
20150515-13:20:49.119: 8=FIX.4.4|9=0067|35=0|49=ADR_ARBITRAGE_IB_XNYS|56=LVBSG|34=121|52=20150515-13:20:49|10=180|
20150515-13:21:10.841: 8=FIX.4.4|9=71|35=0|34=121|49=LVBSG|52=20150515-13:21:10.841|56=ADR_ARBITRAGE_IB_XNYS|10=015|
20150515-13:21:49.119: 8=FIX.4.4|9=0067|35=0|49=ADR_ARBITRAGE_IB_XNYS|56=LVBSG|34=122|52=20150515-13:21:49|10=182|
20150515-13:22:10.842: 8=FIX.4.4|9=71|35=0|34=122|49=LVBSG|52=20150515-13:22:10.841|56=ADR_ARBITRAGE_IB_XNYS|10=017|
20150515-13:22:49.121: 8=FIX.4.4|9=0067|35=0|49=ADR_ARBITRAGE_IB_XNYS|56=LVBSG|34=123|52=20150515-13:22:49|10=184|
20150515-13:23:10.841: 8=FIX.4.4|9=71|35=0|34=123|49=LVBSG|52=20150515-13:23:10.841|56=ADR_ARBITRAGE_IB_XNYS|10=019|
20150515-13:23:49.120: 8=FIX.4.4|9=0067|35=0|49=ADR_ARBITRAGE_IB_XNYS|56=LVBSG|34=124|52=20150515-13:23:49|10=186|
20150515-13:24:10.841: 8=FIX.4.4|9=71|35=0|34=124|49=LVBSG|52=20150515-13:24:10.841|56=ADR_ARBITRAGE_IB_XNYS|10=021|
20150515-13:24:49.118: 8=FIX.4.4|9=0067|35=0|49=ADR_ARBITRAGE_IB_XNYS|56=LVBSG|34=125|52=20150515-13:24:49|10=188|
20150515-13:25:10.845: 8=FIX.4.4|9=71|35=0|34=125|49=LVBSG|52=20150515-13:25:10.845|56=ADR_ARBITRAGE_IB_XNYS|10=027|
20150515-13:25:49.119: 8=FIX.4.4|9=0067|35=0|49=ADR_ARBITRAGE_IB_XNYS|56=LVBSG|34=126|52=20150515-13:25:49|10=190|
20150515-13:26:11.841: 8=FIX.4.4|9=71|35=0|34=126|49=LVBSG|52=20150515-13:26:11.841|56=ADR_ARBITRAGE_IB_XNYS|10=026|
20150515-13:26:49.120: 8=FIX.4.4|9=0067|35=0|49=ADR_ARBITRAGE_IB_XNYS|56=LVBSG|34=127|52=20150515-13:26:49|10=192|
20150515-13:27:11.842: 8=FIX.4.4|9=71|35=0|34=127|49=LVBSG|52=20150515-13:27:11.842|56=ADR_ARBITRAGE_IB_XNYS|10=029|
20150515-13:27:49.121: 8=FIX.4.4|9=0067|35=0|49=ADR_ARBITRAGE_IB_XNYS|56=LVBSG|34=128|52=20150515-13:27:49|10=194|
20150515-13:28:12.842: 8=FIX.4.4|9=71|35=0|34=128|49=LVBSG|52=20150515-13:28:12.841|56=ADR_ARBITRAGE_IB_XNYS|10=031|
20150515-13:28:49.121: 8=FIX.4.4|9=0067|35=0|49=ADR_ARBITRAGE_IB_XNYS|56=LVBSG|34=129|52=20150515-13:28:49|10=196|
20150515-13:29:12.841: 8=FIX.4.4|9=71|35=0|34=129|49=LVBSG|52=20150515-13:29:12.841|56=ADR_ARBITRAGE_IB_XNYS|10=033|
20150515-13:29:49.122: 8=FIX.4.4|9=0067|35=0|49=ADR_ARBITRAGE_IB_XNYS|56=LVBSG|34=130|52=20150515-13:29:49|10=189|
20150515-13:30:07.119: 8=FIX.4.4|9=268|35=D|34=130|49=LVBSG|50=7369691|52=20150515-13:30:07.119|56=ADR_ARBITRAGE_IB_XNYS|57=XPUS|1=U1216799|11=-323ab500bb84bb05|21=1|38=300|40=2|44=9.13|54=1|55=LFL|59=0|60=20150515-13:30:07.118|63=4|100=SMART|111=100|207=SMART|583=5abaef0713b14d4a|453=1|448=IB|447=D|452=1|10=058|
20150515-13:30:07.156: 8=FIX.4.4|9=0335|35=8|49=ADR_ARBITRAGE_IB_XNYS|56=LVBSG|34=131|52=20150515-13:30:07|50=XPUS|57=7369691|1=U1216799|207=SMART|6=0|11=-323ab500bb84bb05|14=0|17=3b2ec8d7be324d5b|21=1|150=A|31=0|151=300|32=0|100=SMART|38=300|39=A|37=-556099a113f5b386|583=5abaef0713b14d4a|40=2|44=9.13|55=LFL|54=1|59=0|63=4|60=20150515-13:30:07.142|453=1|448=IB|447=D|452=1|10=190|
20150515-13:30:07.343: 8=FIX.4.4|9=0337|35=8|49=ADR_ARBITRAGE_IB_XNYS|56=LVBSG|34=132|52=20150515-13:30:07|50=XPUS|57=7369691|1=U1216799|207=SMART|6=0|11=-323ab500bb84bb05|14=0|17=81760.1431696607.1|21=1|150=0|31=0|151=300|32=0|100=SMART|38=300|39=0|37=-556099a113f5b386|583=5abaef0713b14d4a|40=2|44=9.13|55=LFL|54=1|59=0|63=4|60=20150515-13:30:07.336|453=1|448=IB|447=D|452=1|10=133|
20150515-13:30:07.349: 8=FIX.4.4|9=290|35=G|34=131|49=LVBSG|50=7369691|52=20150515-13:30:07.348|56=ADR_ARBITRAGE_IB_XNYS|57=XPUS|1=U1216799|11=-56c34f0f44c2bd2a|21=1|38=2600|40=2|41=-323ab500bb84bb05|44=9.13|54=1|55=LFL|59=0|60=20150515-13:30:07.348|63=4|100=SMART|111=100|207=SMART|583=5abaef0713b14d4a|453=1|448=IB|447=D|452=1|10=206|
20150515-13:30:07.398: 8=FIX.4.4|9=0358|35=8|49=ADR_ARBITRAGE_IB_XNYS|56=LVBSG|34=133|52=20150515-13:30:07|50=XPUS|57=7369691|1=U1216799|207=SMART|6=0|11=-56c34f0f44c2bd2a|14=0|17=-6d88994cd38bbe19|21=1|150=E|31=0|151=300|32=0|100=SMART|38=2600|39=E|37=-556099a113f5b386|583=5abaef0713b14d4a|40=2|41=-323ab500bb84bb05|44=9.13|55=LFL|54=1|59=0|63=4|60=20150515-13:30:07.394|453=1|448=IB|447=D|452=1|10=071|
20150515-13:30:07.604: 8=FIX.4.4|9=0373|35=8|49=ADR_ARBITRAGE_IB_XNYS|56=LVBSG|34=134|52=20150515-13:30:07|50=XPUS|57=7369691|1=U1216799|207=SMART|6=9.13|11=-56c34f0f44c2bd2a|14=100|17=00010d1f.5555a690.01.01|21=1|150=F|31=9.13|151=200|32=100|100=SMART|38=300|39=1|37=-556099a113f5b386|583=5abaef0713b14d4a|40=2|41=-323ab500bb84bb05|44=9.13|55=LFL|54=1|59=0|63=4|60=20150515-13:30:07.599|453=1|448=IB|447=D|452=1|10=101|
20150515-13:30:07.606: 8=FIX.4.4|9=0373|35=8|49=ADR_ARBITRAGE_IB_XNYS|56=LVBSG|34=135|52=20150515-13:30:07|50=XPUS|57=7369691|1=U1216799|207=SMART|6=9.13|11=-56c34f0f44c2bd2a|14=200|17=00010ff0.5555dd37.01.01|21=1|150=F|31=9.13|151=100|32=100|100=SMART|38=300|39=1|37=-556099a113f5b386|583=5abaef0713b14d4a|40=2|41=-323ab500bb84bb05|44=9.13|55=LFL|54=1|59=0|63=4|60=20150515-13:30:07.600|453=1|448=IB|447=D|452=1|10=136|
20150515-13:30:07.608: 8=FIX.4.4|9=0371|35=8|49=ADR_ARBITRAGE_IB_XNYS|56=LVBSG|34=136|52=20150515-13:30:07|50=XPUS|57=7369691|1=U1216799|207=SMART|6=9.13|11=-56c34f0f44c2bd2a|14=300|17=00010ff0.5555dd38.01.01|21=1|150=F|31=9.13|151=0|32=100|100=SMART|38=300|39=2|37=-556099a113f5b386|583=5abaef0713b14d4a|40=2|41=-323ab500bb84bb05|44=9.13|55=LFL|54=1|59=0|63=4|60=20150515-13:30:07.603|453=1|448=IB|447=D|452=1|10=044|
20150515-13:30:07.610: 8=FIX.4.4|9=269|35=D|34=132|49=LVBSG|50=7369691|52=20150515-13:30:07.610|56=ADR_ARBITRAGE_IB_XNYS|57=XPUS|1=U1216799|11=-2515000da61fb80a|21=1|38=2000|40=2|44=9.14|54=1|55=LFL|59=0|60=20150515-13:30:07.610|63=4|100=SMART|111=100|207=SMART|583=5abaef0713b14d4a|453=1|448=IB|447=D|452=1|10=055|
20150515-13:30:07.625: 8=FIX.4.4|9=0338|35=8|49=ADR_ARBITRAGE_IB_XNYS|56=LVBSG|34=137|52=20150515-13:30:07|50=XPUS|57=7369691|1=U1216799|207=SMART|6=0|11=-2515000da61fb80a|14=0|17=-6683cacbb4e7b003|21=1|150=A|31=0|151=2000|32=0|100=SMART|38=2000|39=A|37=-49b3bf1d3938bc5b|583=5abaef0713b14d4a|40=2|44=9.14|55=LFL|54=1|59=0|63=4|60=20150515-13:30:07.620|453=1|448=IB|447=D|452=1|10=171|
20150515-13:30:07.849: 8=FIX.4.4|9=0251|35=9|49=ADR_ARBITRAGE_IB_XNYS|56=LVBSG|34=138|52=20150515-13:30:07|50=XPUS|57=7369691|102=1|1=U1216799|39=8|37=-556099a113f5b386|583=5abaef0713b14d4a|434=2|11=-56c34f0f44c2bd2a|41=-323ab500bb84bb05|58=Order is being cancelled|60=20150515-13:30:07.809|10=244|
20150515-13:30:07.998: 8=FIX.4.4|9=0339|35=8|49=ADR_ARBITRAGE_IB_XNYS|56=LVBSG|34=139|52=20150515-13:30:07|50=XPUS|57=7369691|1=U1216799|207=SMART|6=0|11=-2515000da61fb80a|14=0|17=81760.1431696607.6|21=1|150=0|31=0|151=2000|32=0|100=SMART|38=2000|39=0|37=-49b3bf1d3938bc5b|583=5abaef0713b14d4a|40=2|44=9.14|55=LFL|54=1|59=0|63=4|60=20150515-13:30:07.990|453=1|448=IB|447=D|452=1|10=133|
20150515-13:30:08.002: 8=FIX.4.4|9=0354|35=8|49=ADR_ARBITRAGE_IB_XNYS|56=LVBSG|34=140|52=20150515-13:30:08|50=XPUS|57=7369691|1=U1216799|207=SMART|6=9.14|11=-2515000da61fb80a|14=100|17=0001091f.5555dc5a.01.01|21=1|150=F|31=9.14|151=1900|32=100|100=SMART|38=2000|39=1|37=-49b3bf1d3938bc5b|583=5abaef0713b14d4a|40=2|44=9.14|55=LFL|54=1|59=0|63=4|60=20150515-13:30:07.996|453=1|448=IB|447=D|452=1|10=053|
20150515-13:30:08.002: 8=FIX.4.4|9=290|35=G|34=133|49=LVBSG|50=7369691|52=20150515-13:30:08.002|56=ADR_ARBITRAGE_IB_XNYS|57=XPUS|1=U1216799|11=-5bbc85d2944cb961|21=1|38=4300|40=2|41=-2515000da61fb80a|44=9.14|54=1|55=LFL|59=0|60=20150515-13:30:08.001|63=4|100=SMART|111=100|207=SMART|583=5abaef0713b14d4a|453=1|448=IB|447=D|452=1|10=102|
20150515-13:30:08.010: 8=FIX.4.4|9=0354|35=8|49=ADR_ARBITRAGE_IB_XNYS|56=LVBSG|34=141|52=20150515-13:30:08|50=XPUS|57=7369691|1=U1216799|207=SMART|6=9.14|11=-2515000da61fb80a|14=200|17=0001091f.5555dc5b.01.01|21=1|150=F|31=9.14|151=1800|32=100|100=SMART|38=2000|39=1|37=-49b3bf1d3938bc5b|583=5abaef0713b14d4a|40=2|44=9.14|55=LFL|54=1|59=0|63=4|60=20150515-13:30:08.002|453=1|448=IB|447=D|452=1|10=034|
20150515-13:30:08.017: 8=FIX.4.4|9=0363|35=8|49=ADR_ARBITRAGE_IB_XNYS|56=LVBSG|34=142|52=20150515-13:30:08|50=XPUS|57=7369691|1=U1216799|207=SMART|6=9.14|11=-5bbc85d2944cb961|14=200|17=73853a08a703441b|21=1|150=E|31=0|151=1800|32=0|100=SMART|38=4300|39=E|37=-49b3bf1d3938bc5b|583=5abaef0713b14d4a|40=2|41=-2515000da61fb80a|44=9.14|55=LFL|54=1|59=0|63=4|60=20150515-13:30:08.010|453=1|448=IB|447=D|452=1|10=252|
20150515-13:30:08.023: 8=FIX.4.4|9=0357|35=8|49=ADR_ARBITRAGE_IB_XNYS|56=LVBSG|34=143|52=20150515-13:30:08|50=XPUS|57=7369691|1=U1216799|207=SMART|6=9.1395|11=-2515000da61fb80a|14=400|17=0000f073.5555ea5f.01.01|21=1|150=F|31=9.139|151=1600|32=200|100=SMART|38=2000|39=1|37=-49b3bf1d3938bc5b|583=5abaef0713b14d4a|40=2|44=9.14|55=LFL|54=1|59=0|63=4|60=20150515-13:30:08.011|453=1|448=IB|447=D|452=1|10=207|
20150515-13:30:08.026: 8=FIX.4.4|9=0357|35=8|49=ADR_ARBITRAGE_IB_XNYS|56=LVBSG|34=144|52=20150515-13:30:08|50=XPUS|57=7369691|1=U1216799|207=SMART|6=9.13975|11=-2515000da61fb80a|14=800|17=0000e587.5555dcb1.01.01|21=1|150=F|31=9.14|151=1200|32=400|100=SMART|38=2000|39=1|37=-49b3bf1d3938bc5b|583=5abaef0713b14d4a|40=2|44=9.14|55=LFL|54=1|59=0|63=4|60=20150515-13:30:08.017|453=1|448=IB|447=D|452=1|10=217|
20150515-13:30:08.575: 8=FIX.4.4|9=0368|35=8|49=ADR_ARBITRAGE_IB_XNYS|56=LVBSG|34=145|52=20150515-13:30:08|50=XPUS|57=7369691|1=U1216799|207=SMART|6=9.13975|11=-5bbc85d2944cb961|14=800|17=81760.1431696608.1|21=1|150=5|31=0|151=3500|32=0|100=SMART|38=4300|39=1|37=-49b3bf1d3938bc5b|583=5abaef0713b14d4a|40=2|41=-2515000da61fb80a|44=9.14|55=LFL|54=1|59=0|63=4|60=20150515-13:30:08.560|453=1|448=IB|447=D|452=1|10=105|
20150515-13:30:16.098: 8=FIX.4.4|9=290|35=G|34=134|49=LVBSG|50=7369691|52=20150515-13:30:16.098|56=ADR_ARBITRAGE_IB_XNYS|57=XPUS|1=U1216799|11=-526c1dc2048bb4d6|21=1|38=4300|40=2|41=-5bbc85d2944cb961|44=9.16|54=1|55=LFL|59=0|60=20150515-13:30:16.098|63=4|100=SMART|111=100|207=SMART|583=5abaef0713b14d4a|453=1|448=IB|447=D|452=1|10=196|
20150515-13:30:16.119: 8=FIX.4.4|9=0367|35=8|49=ADR_ARBITRAGE_IB_XNYS|56=LVBSG|34=146|52=20150515-13:30:16|50=XPUS|57=7369691|1=U1216799|207=SMART|6=9.13975|11=-526c1dc2048bb4d6|14=800|17=-4d1e470aa72ab762|21=1|150=E|31=0|151=3500|32=0|100=SMART|38=4300|39=E|37=-49b3bf1d3938bc5b|583=5abaef0713b14d4a|40=2|41=-5bbc85d2944cb961|44=9.16|55=LFL|54=1|59=0|63=4|60=20150515-13:30:16.115|453=1|448=IB|447=D|452=1|10=171|
20150515-13:30:16.664: 8=FIX.4.4|9=0368|35=8|49=ADR_ARBITRAGE_IB_XNYS|56=LVBSG|34=147|52=20150515-13:30:16|50=XPUS|57=7369691|1=U1216799|207=SMART|6=9.13975|11=-526c1dc2048bb4d6|14=800|17=81760.1431696616.1|21=1|150=5|31=0|151=3500|32=0|100=SMART|38=4300|39=1|37=-49b3bf1d3938bc5b|583=5abaef0713b14d4a|40=2|41=-5bbc85d2944cb961|44=9.16|55=LFL|54=1|59=0|63=4|60=20150515-13:30:16.655|453=1|448=IB|447=D|452=1|10=173|
20150515-13:30:19.921: 8=FIX.4.4|9=270|35=D|34=135|49=LVBSG|50=7369691|52=20150515-13:30:19.921|56=ADR_ARBITRAGE_IB_XNYS|57=XPUS|1=U1216799|11=-7ea66c0ac288bbcd|21=1|38=1000|40=2|44=7.99|54=2|55=CNCO|59=0|60=20150515-13:30:19.920|63=4|100=SMART|111=100|207=SMART|583=778c176b83c84eb2|453=1|448=IB|447=D|452=1|10=241|
20150515-13:30:19.931: 8=FIX.4.4|9=0337|35=8|49=ADR_ARBITRAGE_IB_XNYS|56=LVBSG|34=148|52=20150515-13:30:19|50=XPUS|57=7369691|1=U1216799|207=SMART|6=0|11=-7ea66c0ac288bbcd|14=0|17=65baf52eb37a4790|21=1|150=A|31=0|151=1000|32=0|100=SMART|38=1000|39=A|37=-66f662f27f4b229|583=778c176b83c84eb2|40=2|44=7.99|55=CNCO|54=2|59=0|63=4|60=20150515-13:30:19.926|453=1|448=IB|447=D|452=1|10=093|
20150515-13:30:20.130: 8=FIX.4.4|9=0339|35=8|49=ADR_ARBITRAGE_IB_XNYS|56=LVBSG|34=149|52=20150515-13:30:20|50=XPUS|57=7369691|1=U1216799|207=SMART|6=0|11=-7ea66c0ac288bbcd|14=0|17=81760.1431696620.1|21=1|150=0|31=0|151=1000|32=0|100=SMART|38=1000|39=0|37=-66f662f27f4b229|583=778c176b83c84eb2|40=2|44=7.99|55=CNCO|54=2|59=0|63=4|60=20150515-13:30:20.126|453=1|448=IB|447=D|452=1|10=094|
20150515-13:30:20.490: 8=FIX.4.4|9=0353|35=8|49=ADR_ARBITRAGE_IB_XNYS|56=LVBSG|34=150|52=20150515-13:30:20|50=XPUS|57=7369691|1=U1216799|207=SMART|6=7.99|11=-7ea66c0ac288bbcd|14=100|17=0000e634.5555dc8c.01.01|21=1|150=F|31=7.99|151=900|32=100|100=SMART|38=1000|39=1|37=-66f662f27f4b229|583=778c176b83c84eb2|40=2|44=7.99|55=CNCO|54=2|59=0|63=4|60=20150515-13:30:20.484|453=1|448=IB|447=D|452=1|10=003|
20150515-13:30:20.491: 8=FIX.4.4|9=0353|35=8|49=ADR_ARBITRAGE_IB_XNYS|56=LVBSG|34=151|52=20150515-13:30:20|50=XPUS|57=7369691|1=U1216799|207=SMART|6=7.99|11=-7ea66c0ac288bbcd|14=200|17=00013d04.5555a77c.01.01|21=1|150=F|31=7.99|151=800|32=100|100=SMART|38=1000|39=1|37=-66f662f27f4b229|583=778c176b83c84eb2|40=2|44=7.99|55=CNCO|54=2|59=0|63=4|60=20150515-13:30:20.485|453=1|448=IB|447=D|452=1|10=207|
20150515-13:30:21.945: 8=FIX.4.4|9=0353|35=8|49=ADR_ARBITRAGE_IB_XNYS|56=LVBSG|34=152|52=20150515-13:30:21|50=XPUS|57=7369691|1=U1216799|207=SMART|6=7.99|11=-7ea66c0ac288bbcd|14=300|17=00013d04.5555a783.01.01|21=1|150=F|31=7.99|151=700|32=100|100=SMART|38=1000|39=1|37=-66f662f27f4b229|583=778c176b83c84eb2|40=2|44=7.99|55=CNCO|54=2|59=0|63=4|60=20150515-13:30:21.941|453=1|448=IB|447=D|452=1|10=160|
20150515-13:30:28.121: 8=FIX.4.4|9=290|35=G|34=136|49=LVBSG|50=7369691|52=20150515-13:30:28.120|56=ADR_ARBITRAGE_IB_XNYS|57=XPUS|1=U1216799|11=-5f74350bae77b735|21=1|38=4300|40=2|41=-526c1dc2048bb4d6|44=9.18|54=1|55=LFL|59=0|60=20150515-13:30:28.120|63=4|100=SMART|111=100|207=SMART|583=5abaef0713b14d4a|453=1|448=IB|447=D|452=1|10=130|
20150515-13:30:28.141: 8=FIX.4.4|9=0366|35=8|49=ADR_ARBITRAGE_IB_XNYS|56=LVBSG|34=153|52=20150515-13:30:28|50=XPUS|57=7369691|1=U1216799|207=SMART|6=9.13975|11=-5f74350bae77b735|14=800|17=599abed5bf1e4a6f|21=1|150=E|31=0|151=3500|32=0|100=SMART|38=4300|39=E|37=-49b3bf1d3938bc5b|583=5abaef0713b14d4a|40=2|41=-526c1dc2048bb4d6|44=9.18|55=LFL|54=1|59=0|63=4|60=20150515-13:30:28.138|453=1|448=IB|447=D|452=1|10=249|
20150515-13:30:28.703: 8=FIX.4.4|9=0368|35=8|49=ADR_ARBITRAGE_IB_XNYS|56=LVBSG|34=154|52=20150515-13:30:28|50=XPUS|57=7369691|1=U1216799|207=SMART|6=9.13975|11=-5f74350bae77b735|14=800|17=81760.1431696628.1|21=1|150=5|31=0|151=3500|32=0|100=SMART|38=4300|39=1|37=-49b3bf1d3938bc5b|583=5abaef0713b14d4a|40=2|41=-526c1dc2048bb4d6|44=9.18|55=LFL|54=1|59=0|63=4|60=20150515-13:30:28.698|453=1|448=IB|447=D|452=1|10=141|
20150515-13:30:28.705: 8=FIX.4.4|9=288|35=G|34=137|49=LVBSG|50=7369691|52=20150515-13:30:28.705|56=ADR_ARBITRAGE_IB_XNYS|57=XPUS|1=U1216799|11=2401957403b946ae|21=1|38=4300|40=2|41=-5f74350bae77b735|44=9.2|54=1|55=LFL|59=0|60=20150515-13:30:28.705|63=4|100=SMART|111=100|207=SMART|583=5abaef0713b14d4a|453=1|448=IB|447=D|452=1|10=174|
20150515-13:30:28.723: 8=FIX.4.4|9=0364|35=8|49=ADR_ARBITRAGE_IB_XNYS|56=LVBSG|34=155|52=20150515-13:30:28|50=XPUS|57=7369691|1=U1216799|207=SMART|6=9.13975|11=2401957403b946ae|14=800|17=140e919eb4f146b2|21=1|150=E|31=0|151=3500|32=0|100=SMART|38=4300|39=E|37=-49b3bf1d3938bc5b|583=5abaef0713b14d4a|40=2|41=-5f74350bae77b735|44=9.2|55=LFL|54=1|59=0|63=4|60=20150515-13:30:28.717|453=1|448=IB|447=D|452=1|10=068|
20150515-13:30:29.276: 8=FIX.4.4|9=0366|35=8|49=ADR_ARBITRAGE_IB_XNYS|56=LVBSG|34=156|52=20150515-13:30:29|50=XPUS|57=7369691|1=U1216799|207=SMART|6=9.13975|11=2401957403b946ae|14=800|17=81760.1431696628.3|21=1|150=5|31=0|151=3500|32=0|100=SMART|38=4300|39=1|37=-49b3bf1d3938bc5b|583=5abaef0713b14d4a|40=2|41=-5f74350bae77b735|44=9.2|55=LFL|54=1|59=0|63=4|60=20150515-13:30:29.269|453=1|448=IB|447=D|452=1|10=157|
20150515-13:30:29.279: 8=FIX.4.4|9=0376|35=8|49=ADR_ARBITRAGE_IB_XNYS|56=LVBSG|34=157|52=20150515-13:30:29|50=XPUS|57=7369691|1=U1216799|207=SMART|6=9.146444|11=2401957403b946ae|14=900|17=00010ff0.5555dfab.01.01|21=1|150=F|31=9.2|151=3400|32=100|100=SMART|38=4300|39=1|37=-49b3bf1d3938bc5b|583=5abaef0713b14d4a|40=2|41=-5f74350bae77b735|44=9.2|55=LFL|54=1|59=0|63=4|60=20150515-13:30:29.274|453=1|448=IB|447=D|452=1|10=155|
20150515-13:30:29.929: 8=FIX.4.4|9=0375|35=8|49=ADR_ARBITRAGE_IB_XNYS|56=LVBSG|34=158|52=20150515-13:30:29|50=XPUS|57=7369691|1=U1216799|207=SMART|6=9.1518|11=2401957403b946ae|14=1000|17=00010ff0.5555dfba.01.01|21=1|150=F|31=9.2|151=3300|32=100|100=SMART|38=4300|39=1|37=-49b3bf1d3938bc5b|583=5abaef0713b14d4a|40=2|41=-5f74350bae77b735|44=9.2|55=LFL|54=1|59=0|63=4|60=20150515-13:30:29.923|453=1|448=IB|447=D|452=1|10=091|
20150515-13:30:30.282: 8=FIX.4.4|9=0377|35=8|49=ADR_ARBITRAGE_IB_XNYS|56=LVBSG|34=159|52=20150515-13:30:30|50=XPUS|57=7369691|1=U1216799|207=SMART|6=9.156182|11=2401957403b946ae|14=1100|17=00010ff0.5555dfbb.01.01|21=1|150=F|31=9.2|151=3200|32=100|100=SMART|38=4300|39=1|37=-49b3bf1d3938bc5b|583=5abaef0713b14d4a|40=2|41=-5f74350bae77b735|44=9.2|55=LFL|54=1|59=0|63=4|60=20150515-13:30:30.274|453=1|448=IB|447=D|452=1|10=182|
20150515-13:30:37.320: 8=FIX.4.4|9=288|35=G|34=138|49=LVBSG|50=7369691|52=20150515-13:30:37.320|56=ADR_ARBITRAGE_IB_XNYS|57=XPUS|1=U1216799|11=6309aad5bc994da6|21=1|38=4300|40=2|41=2401957403b946ae|44=9.21|54=1|55=LFL|59=0|60=20150515-13:30:37.320|63=4|100=SMART|111=100|207=SMART|583=5abaef0713b14d4a|453=1|448=IB|447=D|452=1|10=003|
20150515-13:30:37.369: 8=FIX.4.4|9=0366|35=8|49=ADR_ARBITRAGE_IB_XNYS|56=LVBSG|34=160|52=20150515-13:30:37|50=XPUS|57=7369691|1=U1216799|207=SMART|6=9.156182|11=6309aad5bc994da6|14=1100|17=788c10781edf47ae|21=1|150=E|31=0|151=3200|32=0|100=SMART|38=4300|39=E|37=-49b3bf1d3938bc5b|583=5abaef0713b14d4a|40=2|41=2401957403b946ae|44=9.21|55=LFL|54=1|59=0|63=4|60=20150515-13:30:37.365|453=1|448=IB|447=D|452=1|10=054|
20150515-13:30:37.398: 8=FIX.4.4|9=268|35=D|34=139|49=LVBSG|50=7369691|52=20150515-13:30:37.398|56=ADR_ARBITRAGE_IB_XNYS|57=XPUS|1=U1216799|11=49732d4ea1af434c|21=1|38=1000|40=2|44=9.21|54=2|55=LFL|59=0|60=20150515-13:30:37.398|63=4|100=SMART|111=100|207=SMART|583=5abaef0713b14d4a|453=1|448=IB|447=D|452=1|10=113|
20150515-13:30:37.408: 8=FIX.4.4|9=0335|35=8|49=ADR_ARBITRAGE_IB_XNYS|56=LVBSG|34=161|52=20150515-13:30:37|50=XPUS|57=7369691|1=U1216799|207=SMART|6=0|11=49732d4ea1af434c|14=0|17=-2aac4b85d96be96|21=1|150=A|31=0|151=1000|32=0|100=SMART|38=1000|39=A|37=3d5c9144930a4cb4|583=5abaef0713b14d4a|40=2|44=9.21|55=LFL|54=2|59=0|63=4|60=20150515-13:30:37.404|453=1|448=IB|447=D|452=1|10=006|
20150515-13:30:37.793: 8=FIX.4.4|9=0368|35=8|49=ADR_ARBITRAGE_IB_XNYS|56=LVBSG|34=162|52=20150515-13:30:37|50=XPUS|57=7369691|1=U1216799|207=SMART|6=9.156182|11=6309aad5bc994da6|14=1100|17=81760.1431696637.1|21=1|150=5|31=0|151=3200|32=0|100=SMART|38=4300|39=1|37=-49b3bf1d3938bc5b|583=5abaef0713b14d4a|40=2|41=2401957403b946ae|44=9.21|55=LFL|54=1|59=0|63=4|60=20150515-13:30:37.788|453=1|448=IB|447=D|452=1|10=085|
20150515-13:30:37.803: 8=FIX.4.4|9=0337|35=8|49=ADR_ARBITRAGE_IB_XNYS|56=LVBSG|34=163|52=20150515-13:30:37|50=XPUS|57=7369691|1=U1216799|207=SMART|6=0|11=49732d4ea1af434c|14=0|17=81760.1431696637.3|21=1|150=0|31=0|151=1000|32=0|100=SMART|38=1000|39=0|37=3d5c9144930a4cb4|583=5abaef0713b14d4a|40=2|44=9.21|55=LFL|54=2|59=0|63=4|60=20150515-13:30:37.793|453=1|448=IB|447=D|452=1|10=006|
20150515-13:30:37.809: 8=FIX.4.4|9=0353|35=8|49=ADR_ARBITRAGE_IB_XNYS|56=LVBSG|34=164|52=20150515-13:30:37|50=XPUS|57=7369691|1=U1216799|207=SMART|6=9.221|11=49732d4ea1af434c|14=200|17=0000f321.5555debe.01.01|21=1|150=F|31=9.221|151=800|32=200|100=SMART|38=1000|39=1|37=3d5c9144930a4cb4|583=5abaef0713b14d4a|40=2|44=9.21|55=LFL|54=2|59=0|63=4|60=20150515-13:30:37.804|453=1|448=IB|447=D|452=1|10=017|
20150515-13:30:37.811: 8=FIX.4.4|9=0355|35=8|49=ADR_ARBITRAGE_IB_XNYS|56=LVBSG|34=165|52=20150515-13:30:37|50=XPUS|57=7369691|1=U1216799|207=SMART|6=9.220667|11=49732d4ea1af434c|14=300|17=0000e587.5555dcd4.01.01|21=1|150=F|31=9.22|151=700|32=100|100=SMART|38=1000|39=1|37=3d5c9144930a4cb4|583=5abaef0713b14d4a|40=2|44=9.21|55=LFL|54=2|59=0|63=4|60=20150515-13:30:37.807|453=1|448=IB|447=D|452=1|10=099|
20150515-13:30:37.813: 8=FIX.4.4|9=0353|35=8|49=ADR_ARBITRAGE_IB_XNYS|56=LVBSG|34=166|52=20150515-13:30:37|50=XPUS|57=7369691|1=U1216799|207=SMART|6=9.2205|11=49732d4ea1af434c|14=400|17=00010d1f.5555a6dd.01.01|21=1|150=F|31=9.22|151=600|32=100|100=SMART|38=1000|39=1|37=3d5c9144930a4cb4|583=5abaef0713b14d4a|40=2|44=9.21|55=LFL|54=2|59=0|63=4|60=20150515-13:30:37.808|453=1|448=IB|447=D|452=1|10=024|
20150515-13:30:37.820: 8=FIX.4.4|9=0353|35=8|49=ADR_ARBITRAGE_IB_XNYS|56=LVBSG|34=167|52=20150515-13:30:37|50=XPUS|57=7369691|1=U1216799|207=SMART|6=9.2204|11=49732d4ea1af434c|14=500|17=00010ff0.5555e0a0.01.01|21=1|150=F|31=9.22|151=500|32=100|100=SMART|38=1000|39=1|37=3d5c9144930a4cb4|583=5abaef0713b14d4a|40=2|44=9.21|55=LFL|54=2|59=0|63=4|60=20150515-13:30:37.814|453=1|448=IB|447=D|452=1|10=221|
20150515-13:30:37.825: 8=FIX.4.4|9=0355|35=8|49=ADR_ARBITRAGE_IB_XNYS|56=LVBSG|34=168|52=20150515-13:30:37|50=XPUS|57=7369691|1=U1216799|207=SMART|6=9.220333|11=49732d4ea1af434c|14=600|17=00010ff0.5555e0a1.01.01|21=1|150=F|31=9.22|151=400|32=100|100=SMART|38=1000|39=1|37=3d5c9144930a4cb4|583=5abaef0713b14d4a|40=2|44=9.21|55=LFL|54=2|59=0|63=4|60=20150515-13:30:37.819|453=1|448=IB|447=D|452=1|10=075|
20150515-13:30:37.839: 8=FIX.4.4|9=0355|35=8|49=ADR_ARBITRAGE_IB_XNYS|56=LVBSG|34=169|52=20150515-13:30:37|50=XPUS|57=7369691|1=U1216799|207=SMART|6=9.220286|11=49732d4ea1af434c|14=700|17=00010ff0.5555e0a2.01.01|21=1|150=F|31=9.22|151=300|32=100|100=SMART|38=1000|39=1|37=3d5c9144930a4cb4|583=5abaef0713b14d4a|40=2|44=9.21|55=LFL|54=2|59=0|63=4|60=20150515-13:30:37.826|453=1|448=IB|447=D|452=1|10=082|
20150515-13:30:37.841: 8=FIX.4.4|9=0354|35=8|49=ADR_ARBITRAGE_IB_XNYS|56=LVBSG|34=170|52=20150515-13:30:37|50=XPUS|57=7369691|1=U1216799|207=SMART|6=9.22025|11=49732d4ea1af434c|14=800|17=00010ff0.5555e0a3.01.01|21=1|150=F|31=9.22|151=200|32=100|100=SMART|38=1000|39=1|37=3d5c9144930a4cb4|583=5abaef0713b14d4a|40=2|44=9.21|55=LFL|54=2|59=0|63=4|60=20150515-13:30:37.833|453=1|448=IB|447=D|452=1|10=015|
20150515-13:30:37.845: 8=FIX.4.4|9=0355|35=8|49=ADR_ARBITRAGE_IB_XNYS|56=LVBSG|34=171|52=20150515-13:30:37|50=XPUS|57=7369691|1=U1216799|207=SMART|6=9.220222|11=49732d4ea1af434c|14=900|17=00010ff0.5555e0a4.01.01|21=1|150=F|31=9.22|151=100|32=100|100=SMART|38=1000|39=1|37=3d5c9144930a4cb4|583=5abaef0713b14d4a|40=2|44=9.21|55=LFL|54=2|59=0|63=4|60=20150515-13:30:37.841|453=1|448=IB|447=D|452=1|10=064|
20150515-13:30:38.278: 8=FIX.4.4|9=0352|35=8|49=ADR_ARBITRAGE_IB_XNYS|56=LVBSG|34=172|52=20150515-13:30:38|50=XPUS|57=7369691|1=U1216799|207=SMART|6=9.2202|11=49732d4ea1af434c|14=1000|17=0001390d.5555a820.01.01|21=1|150=F|31=9.22|151=0|32=100|100=SMART|38=1000|39=2|37=3d5c9144930a4cb4|583=5abaef0713b14d4a|40=2|44=9.21|55=LFL|54=2|59=0|63=4|60=20150515-13:30:38.257|453=1|448=IB|447=D|452=1|10=074|
20150515-13:30:42.678: 8=FIX.4.4|9=268|35=D|34=140|49=LVBSG|50=7369691|52=20150515-13:30:42.678|56=ADR_ARBITRAGE_IB_XNYS|57=XPUS|1=U1216799|11=a052e1ae5124433|21=1|38=3800|40=2|44=18.05|54=2|55=ENI|59=0|60=20150515-13:30:42.678|63=4|100=SMART|111=100|207=SMART|583=71a0a9bcfa124180|453=1|448=IB|447=D|452=1|10=154|
20150515-13:30:42.689: 8=FIX.4.4|9=0335|35=8|49=ADR_ARBITRAGE_IB_XNYS|56=LVBSG|34=173|52=20150515-13:30:42|50=XPUS|57=7369691|1=U1216799|207=SMART|6=0|11=a052e1ae5124433|14=0|17=15b908c47b51468e|21=1|150=A|31=0|151=3800|32=0|100=SMART|38=3800|39=A|37=53e0bb545cae458b|583=71a0a9bcfa124180|40=2|44=18.05|55=ENI|54=2|59=0|63=4|60=20150515-13:30:42.685|453=1|448=IB|447=D|452=1|10=035|
20150515-13:30:42.897: 8=FIX.4.4|9=0337|35=8|49=ADR_ARBITRAGE_IB_XNYS|56=LVBSG|34=174|52=20150515-13:30:42|50=XPUS|57=7369691|1=U1216799|207=SMART|6=0|11=a052e1ae5124433|14=0|17=81760.1431696642.1|21=1|150=0|31=0|151=3800|32=0|100=SMART|38=3800|39=0|37=53e0bb545cae458b|583=71a0a9bcfa124180|40=2|44=18.05|55=ENI|54=2|59=0|63=4|60=20150515-13:30:42.892|453=1|448=IB|447=D|452=1|10=155|
20150515-13:30:42.900: 8=FIX.4.4|9=277|35=G|34=141|49=LVBSG|50=7369691|52=20150515-13:30:42.900|56=ADR_ARBITRAGE_IB_XNYS|57=XPUS|1=U1216799|11=1a328ccf86c4f30|21=1|38=5000|40=2|41=a052e1ae5124433|44=18.05|54=2|55=ENI|59=0|60=20150515-13:30:42.900|63=4|100=SMART|111=100|583=71a0a9bcfa124180|453=1|448=IB|447=D|452=1|10=238|
20150515-13:30:42.909: 8=FIX.4.4|9=0353|35=8|49=ADR_ARBITRAGE_IB_XNYS|56=LVBSG|34=175|52=20150515-13:30:42|50=XPUS|57=7369691|1=U1216799|207=SMART|6=0|11=1a328ccf86c4f30|14=0|17=efaba8e757f4330|21=1|150=E|31=0|151=3800|32=0|100=SMART|38=5000|39=E|37=53e0bb545cae458b|583=71a0a9bcfa124180|40=2|41=a052e1ae5124433|44=18.05|55=ENI|54=2|59=0|63=4|60=20150515-13:30:42.905|453=1|448=IB|447=D|452=1|10=071|
20150515-13:30:43.099: 8=FIX.4.4|9=0373|35=8|49=ADR_ARBITRAGE_IB_XNYS|56=LVBSG|34=176|52=20150515-13:30:43|50=XPUS|57=7369691|1=U1216799|207=SMART|6=18.05|11=1a328ccf86c4f30|14=200|17=0000d73b.5555edd9.01.01|21=1|150=F|31=18.05|151=3600|32=200|100=SMART|38=3800|39=1|37=53e0bb545cae458b|583=71a0a9bcfa124180|40=2|41=a052e1ae5124433|44=18.05|55=ENI|54=2|59=0|63=4|60=20150515-13:30:43.094|453=1|448=IB|447=D|452=1|10=175|
20150515-13:30:43.104: 8=FIX.4.4|9=0373|35=8|49=ADR_ARBITRAGE_IB_XNYS|56=LVBSG|34=177|52=20150515-13:30:43|50=XPUS|57=7369691|1=U1216799|207=SMART|6=18.05|11=1a328ccf86c4f30|14=300|17=00010ec8.5555a98a.01.01|21=1|150=F|31=18.05|151=3500|32=100|100=SMART|38=3800|39=1|37=53e0bb545cae458b|583=71a0a9bcfa124180|40=2|41=a052e1ae5124433|44=18.05|55=ENI|54=2|59=0|63=4|60=20150515-13:30:43.099|453=1|448=IB|447=D|452=1|10=130|
20150515-13:30:43.109: 8=FIX.4.4|9=0373|35=8|49=ADR_ARBITRAGE_IB_XNYS|56=LVBSG|34=178|52=20150515-13:30:43|50=XPUS|57=7369691|1=U1216799|207=SMART|6=18.05|11=1a328ccf86c4f30|14=400|17=00010ec8.5555a98b.01.01|21=1|150=F|31=18.05|151=3400|32=100|100=SMART|38=3800|39=1|37=53e0bb545cae458b|583=71a0a9bcfa124180|40=2|41=a052e1ae5124433|44=18.05|55=ENI|54=2|59=0|63=4|60=20150515-13:30:43.105|453=1|448=IB|447=D|452=1|10=120|
20150515-13:30:43.112: 8=FIX.4.4|9=0373|35=8|49=ADR_ARBITRAGE_IB_XNYS|56=LVBSG|34=179|52=20150515-13:30:43|50=XPUS|57=7369691|1=U1216799|207=SMART|6=18.05|11=1a328ccf86c4f30|14=500|17=00010ff0.5555e0d3.01.01|21=1|150=F|31=18.05|151=3300|32=100|100=SMART|38=3800|39=1|37=53e0bb545cae458b|583=71a0a9bcfa124180|40=2|41=a052e1ae5124433|44=18.05|55=ENI|54=2|59=0|63=4|60=20150515-13:30:43.108|453=1|448=IB|447=D|452=1|10=112|
20150515-13:30:43.121: 8=FIX.4.4|9=0373|35=8|49=ADR_ARBITRAGE_IB_XNYS|56=LVBSG|34=180|52=20150515-13:30:43|50=XPUS|57=7369691|1=U1216799|207=SMART|6=18.05|11=1a328ccf86c4f30|14=600|17=00010ff0.5555e0d4.01.01|21=1|150=F|31=18.05|151=3200|32=100|100=SMART|38=3800|39=1|37=53e0bb545cae458b|583=71a0a9bcfa124180|40=2|41=a052e1ae5124433|44=18.05|55=ENI|54=2|59=0|63=4|60=20150515-13:30:43.114|453=1|448=IB|447=D|452=1|10=102|
20150515-13:30:43.455: 8=FIX.4.4|9=0362|35=8|49=ADR_ARBITRAGE_IB_XNYS|56=LVBSG|34=181|52=20150515-13:30:43|50=XPUS|57=7369691|1=U1216799|207=SMART|6=18.05|11=1a328ccf86c4f30|14=600|17=81760.1431696643.1|21=1|150=5|31=0|151=4400|32=0|100=SMART|38=5000|39=1|37=53e0bb545cae458b|583=71a0a9bcfa124180|40=2|41=a052e1ae5124433|44=18.05|55=ENI|54=2|59=0|63=4|60=20150515-13:30:43.445|453=1|448=IB|447=D|452=1|10=143|
20150515-13:30:47.626: 8=FIX.4.4|9=288|35=G|34=142|49=LVBSG|50=7369691|52=20150515-13:30:47.626|56=ADR_ARBITRAGE_IB_XNYS|57=XPUS|1=U1216799|11=286cce65139b4ff0|21=1|38=4300|40=2|41=6309aad5bc994da6|44=9.23|54=1|55=LFL|59=0|60=20150515-13:30:47.626|63=4|100=SMART|111=100|207=SMART|583=5abaef0713b14d4a|453=1|448=IB|447=D|452=1|10=171|
20150515-13:30:47.637: 8=FIX.4.4|9=0366|35=8|49=ADR_ARBITRAGE_IB_XNYS|56=LVBSG|34=182|52=20150515-13:30:47|50=XPUS|57=7369691|1=U1216799|207=SMART|6=9.156182|11=286cce65139b4ff0|14=1100|17=-7d267e76bc6b1fe|21=1|150=E|31=0|151=3200|32=0|100=SMART|38=4300|39=E|37=-49b3bf1d3938bc5b|583=5abaef0713b14d4a|40=2|41=6309aad5bc994da6|44=9.23|55=LFL|54=1|59=0|63=4|60=20150515-13:30:47.633|453=1|448=IB|447=D|452=1|10=250|
20150515-13:30:47.750: 8=FIX.4.4|9=267|35=D|34=143|49=LVBSG|50=7369691|52=20150515-13:30:47.750|56=ADR_ARBITRAGE_IB_XNYS|57=XPUS|1=U1216799|11=6daec9b04a024db6|21=1|38=500|40=2|44=9.23|54=2|55=LFL|59=0|60=20150515-13:30:47.750|63=4|100=SMART|111=100|207=SMART|583=5abaef0713b14d4a|453=1|448=IB|447=D|452=1|10=139|
20150515-13:30:47.761: 8=FIX.4.4|9=0334|35=8|49=ADR_ARBITRAGE_IB_XNYS|56=LVBSG|34=183|52=20150515-13:30:47|50=XPUS|57=7369691|1=U1216799|207=SMART|6=0|11=6daec9b04a024db6|14=0|17=-5d5445b3721fb461|21=1|150=A|31=0|151=500|32=0|100=SMART|38=500|39=A|37=58626bed614b4f85|583=5abaef0713b14d4a|40=2|44=9.23|55=LFL|54=2|59=0|63=4|60=20150515-13:30:47.757|453=1|448=IB|447=D|452=1|10=193|
20150515-13:30:48.124: 8=FIX.4.4|9=0368|35=8|49=ADR_ARBITRAGE_IB_XNYS|56=LVBSG|34=184|52=20150515-13:30:48|50=XPUS|57=7369691|1=U1216799|207=SMART|6=9.156182|11=286cce65139b4ff0|14=1100|17=81760.1431696647.1|21=1|150=5|31=0|151=3200|32=0|100=SMART|38=4300|39=1|37=-49b3bf1d3938bc5b|583=5abaef0713b14d4a|40=2|41=6309aad5bc994da6|44=9.23|55=LFL|54=1|59=0|63=4|60=20150515-13:30:48.116|453=1|448=IB|447=D|452=1|10=232|
20150515-13:30:48.128: 8=FIX.4.4|9=0335|35=8|49=ADR_ARBITRAGE_IB_XNYS|56=LVBSG|34=185|52=20150515-13:30:48|50=XPUS|57=7369691|1=U1216799|207=SMART|6=0|11=6daec9b04a024db6|14=0|17=81760.1431696647.3|21=1|150=0|31=0|151=500|32=0|100=SMART|38=500|39=0|37=58626bed614b4f85|583=5abaef0713b14d4a|40=2|44=9.23|55=LFL|54=2|59=0|63=4|60=20150515-13:30:48.123|453=1|448=IB|447=D|452=1|10=017|
20150515-13:30:48.130: 8=FIX.4.4|9=288|35=G|34=144|49=LVBSG|50=7369691|52=20150515-13:30:48.130|56=ADR_ARBITRAGE_IB_XNYS|57=XPUS|1=U1216799|11=25814c3a83594046|21=1|38=4300|40=2|41=286cce65139b4ff0|44=9.24|54=1|55=LFL|59=0|60=20150515-13:30:48.130|63=4|100=SMART|111=100|207=SMART|583=5abaef0713b14d4a|453=1|448=IB|447=D|452=1|10=171|
20150515-13:30:48.133: 8=FIX.4.4|9=278|35=G|34=145|49=LVBSG|50=7369691|52=20150515-13:30:48.133|56=ADR_ARBITRAGE_IB_XNYS|57=XPUS|1=U1216799|11=76fe7ab463f94ead|21=1|38=5000|40=2|41=6daec9b04a024db6|44=9.23|54=2|55=LFL|59=0|60=20150515-13:30:48.133|63=4|100=SMART|111=100|583=5abaef0713b14d4a|453=1|448=IB|447=D|452=1|10=203|
20150515-13:30:48.133: 8=FIX.4.4|9=0350|35=8|49=ADR_ARBITRAGE_IB_XNYS|56=LVBSG|34=186|52=20150515-13:30:48|50=XPUS|57=7369691|1=U1216799|207=SMART|6=9.24|11=6daec9b04a024db6|14=100|17=0001390d.5555a825.01.01|21=1|150=F|31=9.24|151=400|32=100|100=SMART|38=500|39=1|37=58626bed614b4f85|583=5abaef0713b14d4a|40=2|44=9.23|55=LFL|54=2|59=0|63=4|60=20150515-13:30:48.128|453=1|448=IB|447=D|452=1|10=099|
20150515-13:30:48.143: 8=FIX.4.4|9=0350|35=8|49=ADR_ARBITRAGE_IB_XNYS|56=LVBSG|34=187|52=20150515-13:30:48|50=XPUS|57=7369691|1=U1216799|207=SMART|6=9.24|11=6daec9b04a024db6|14=200|17=0001390d.5555a826.01.01|21=1|150=F|31=9.24|151=300|32=100|100=SMART|38=500|39=1|37=58626bed614b4f85|583=5abaef0713b14d4a|40=2|44=9.23|55=LFL|54=2|59=0|63=4|60=20150515-13:30:48.137|453=1|448=IB|447=D|452=1|10=101|
20150515-13:30:48.145: 8=FIX.4.4|9=0366|35=8|49=ADR_ARBITRAGE_IB_XNYS|56=LVBSG|34=188|52=20150515-13:30:48|50=XPUS|57=7369691|1=U1216799|207=SMART|6=9.156182|11=25814c3a83594046|14=1100|17=6e1d5bddef3740a5|21=1|150=E|31=0|151=3200|32=0|100=SMART|38=4300|39=E|37=-49b3bf1d3938bc5b|583=5abaef0713b14d4a|40=2|41=286cce65139b4ff0|44=9.24|55=LFL|54=1|59=0|63=4|60=20150515-13:30:48.137|453=1|448=IB|447=D|452=1|10=061|
20150515-13:30:48.146: 8=FIX.4.4|9=0350|35=8|49=ADR_ARBITRAGE_IB_XNYS|56=LVBSG|34=189|52=20150515-13:30:48|50=XPUS|57=7369691|1=U1216799|207=SMART|6=9.24|11=6daec9b04a024db6|14=300|17=0001390d.5555a827.01.01|21=1|150=F|31=9.24|151=200|32=100|100=SMART|38=500|39=1|37=58626bed614b4f85|583=5abaef0713b14d4a|40=2|44=9.23|55=LFL|54=2|59=0|63=4|60=20150515-13:30:48.139|453=1|448=IB|447=D|452=1|10=106|
20150515-13:30:48.147: 8=FIX.4.4|9=0360|35=8|49=ADR_ARBITRAGE_IB_XNYS|56=LVBSG|34=190|52=20150515-13:30:48|50=XPUS|57=7369691|1=U1216799|207=SMART|6=9.24|11=76fe7ab463f94ead|14=300|17=-580097fdbb95be54|21=1|150=E|31=0|151=200|32=0|100=SMART|38=5000|39=E|37=58626bed614b4f85|583=5abaef0713b14d4a|40=2|41=6daec9b04a024db6|44=9.23|55=LFL|54=2|59=0|63=4|60=20150515-13:30:48.140|453=1|448=IB|447=D|452=1|10=194|
20150515-13:30:48.151: 8=FIX.4.4|9=0350|35=8|49=ADR_ARBITRAGE_IB_XNYS|56=LVBSG|34=191|52=20150515-13:30:48|50=XPUS|57=7369691|1=U1216799|207=SMART|6=9.24|11=6daec9b04a024db6|14=400|17=0001a2f4.aaabcdae.02.01|21=1|150=F|31=9.24|151=100|32=100|100=SMART|38=500|39=1|37=58626bed614b4f85|583=5abaef0713b14d4a|40=2|44=9.23|55=LFL|54=2|59=0|63=4|60=20150515-13:30:48.145|453=1|448=IB|447=D|452=1|10=202|
20150515-13:30:48.154: 8=FIX.4.4|9=0348|35=8|49=ADR_ARBITRAGE_IB_XNYS|56=LVBSG|34=192|52=20150515-13:30:48|50=XPUS|57=7369691|1=U1216799|207=SMART|6=9.24|11=6daec9b04a024db6|14=500|17=0001a2f4.aaabcdaf.02.01|21=1|150=F|31=9.24|151=0|32=100|100=SMART|38=500|39=2|37=58626bed614b4f85|583=5abaef0713b14d4a|40=2|44=9.23|55=LFL|54=2|59=0|63=4|60=20150515-13:30:48.149|453=1|448=IB|447=D|452=1|10=120|
20150515-13:30:48.187: 8=FIX.4.4|9=268|35=D|34=146|49=LVBSG|50=7369691|52=20150515-13:30:48.187|56=ADR_ARBITRAGE_IB_XNYS|57=XPUS|1=U1216799|11=7f4b48cc4a1b4eea|21=1|38=4800|40=2|44=9.24|54=2|55=LFL|59=0|60=20150515-13:30:48.186|63=4|100=SMART|111=100|207=SMART|583=5abaef0713b14d4a|453=1|448=IB|447=D|452=1|10=007|
20150515-13:30:48.205: 8=FIX.4.4|9=0337|35=8|49=ADR_ARBITRAGE_IB_XNYS|56=LVBSG|34=193|52=20150515-13:30:48|50=XPUS|57=7369691|1=U1216799|207=SMART|6=0|11=7f4b48cc4a1b4eea|14=0|17=-567580396174b976|21=1|150=A|31=0|151=4800|32=0|100=SMART|38=4800|39=A|37=-6f001b1fa6fdb3f6|583=5abaef0713b14d4a|40=2|44=9.24|55=LFL|54=2|59=0|63=4|60=20150515-13:30:48.193|453=1|448=IB|447=D|452=1|10=154|
20150515-13:30:48.693: 8=FIX.4.4|9=0368|35=8|49=ADR_ARBITRAGE_IB_XNYS|56=LVBSG|34=194|52=20150515-13:30:48|50=XPUS|57=7369691|1=U1216799|207=SMART|6=9.156182|11=25814c3a83594046|14=1100|17=81760.1431696648.1|21=1|150=5|31=0|151=3200|32=0|100=SMART|38=4300|39=1|37=-49b3bf1d3938bc5b|583=5abaef0713b14d4a|40=2|41=286cce65139b4ff0|44=9.24|55=LFL|54=1|59=0|63=4|60=20150515-13:30:48.688|453=1|448=IB|447=D|452=1|10=008|
20150515-13:30:48.694: 8=FIX.4.4|9=0248|35=9|49=ADR_ARBITRAGE_IB_XNYS|56=LVBSG|34=195|52=20150515-13:30:48|50=XPUS|57=7369691|102=1|1=U1216799|39=8|37=58626bed614b4f85|583=5abaef0713b14d4a|434=2|11=76fe7ab463f94ead|41=6daec9b04a024db6|58=Order is being cancelled|60=20150515-13:30:48.688|10=154|
20150515-13:30:48.697: 8=FIX.4.4|9=0338|35=8|49=ADR_ARBITRAGE_IB_XNYS|56=LVBSG|34=196|52=20150515-13:30:48|50=XPUS|57=7369691|1=U1216799|207=SMART|6=0|11=7f4b48cc4a1b4eea|14=0|17=81760.1431696648.5|21=1|150=0|31=0|151=4800|32=0|100=SMART|38=4800|39=0|37=-6f001b1fa6fdb3f6|583=5abaef0713b14d4a|40=2|44=9.24|55=LFL|54=2|59=0|63=4|60=20150515-13:30:48.692|453=1|448=IB|447=D|452=1|10=117|
20150515-13:30:48.698: 8=FIX.4.4|9=279|35=G|34=147|49=LVBSG|50=7369691|52=20150515-13:30:48.698|56=ADR_ARBITRAGE_IB_XNYS|57=XPUS|1=U1216799|11=-1e00b5ae0b0db04e|21=1|38=9500|40=2|41=7f4b48cc4a1b4eea|44=9.24|54=2|55=LFL|59=0|60=20150515-13:30:48.698|63=4|100=SMART|111=100|583=5abaef0713b14d4a|453=1|448=IB|447=D|452=1|10=052|
20150515-13:30:48.710: 8=FIX.4.4|9=0358|35=8|49=ADR_ARBITRAGE_IB_XNYS|56=LVBSG|34=197|52=20150515-13:30:48|50=XPUS|57=7369691|1=U1216799|207=SMART|6=0|11=-1e00b5ae0b0db04e|14=0|17=-1b869b667736b794|21=1|150=E|31=0|151=4800|32=0|100=SMART|38=9500|39=E|37=-6f001b1fa6fdb3f6|583=5abaef0713b14d4a|40=2|41=7f4b48cc4a1b4eea|44=9.24|55=LFL|54=2|59=0|63=4|60=20150515-13:30:48.705|453=1|448=IB|447=D|452=1|10=126|
20150515-13:30:49.248: 8=FIX.4.4|9=0359|35=8|49=ADR_ARBITRAGE_IB_XNYS|56=LVBSG|34=198|52=20150515-13:30:49|50=XPUS|57=7369691|1=U1216799|207=SMART|6=0|11=-1e00b5ae0b0db04e|14=0|17=81760.1431696648.8|21=1|150=5|31=0|151=9500|32=0|100=SMART|38=9500|39=0|37=-6f001b1fa6fdb3f6|583=5abaef0713b14d4a|40=2|41=7f4b48cc4a1b4eea|44=9.24|55=LFL|54=2|59=0|63=4|60=20150515-13:30:49.239|453=1|448=IB|447=D|452=1|10=249|
20150515-13:30:50.344: 8=FIX.4.4|9=269|35=D|34=148|49=LVBSG|50=7369691|52=20150515-13:30:50.344|56=ADR_ARBITRAGE_IB_XNYS|57=XPUS|1=U1216799|11=1454f0f1b0164f55|21=1|38=400|40=2|44=46.62|54=2|55=EOC|59=0|60=20150515-13:30:50.344|63=4|100=SMART|111=100|207=SMART|583=-79f2657e9da5b6a2|453=1|448=IB|447=D|452=1|10=222|
20150515-13:30:50.354: 8=FIX.4.4|9=0337|35=8|49=ADR_ARBITRAGE_IB_XNYS|56=LVBSG|34=199|52=20150515-13:30:50|50=XPUS|57=7369691|1=U1216799|207=SMART|6=0|11=1454f0f1b0164f55|14=0|17=-1f620908890cb7dc|21=1|150=A|31=0|151=400|32=0|100=SMART|38=400|39=A|37=-3cf7a1c6a2d1b566|583=-79f2657e9da5b6a2|40=2|44=46.62|55=EOC|54=2|59=0|63=4|60=20150515-13:30:50.350|453=1|448=IB|447=D|452=1|10=192|
20150515-13:30:50.547: 8=FIX.4.4|9=0338|35=8|49=ADR_ARBITRAGE_IB_XNYS|56=LVBSG|34=200|52=20150515-13:30:50|50=XPUS|57=7369691|1=U1216799|207=SMART|6=0|11=1454f0f1b0164f55|14=0|17=81760.1431696650.1|21=1|150=0|31=0|151=400|32=0|100=SMART|38=400|39=0|37=-3cf7a1c6a2d1b566|583=-79f2657e9da5b6a2|40=2|44=46.62|55=EOC|54=2|59=0|63=4|60=20150515-13:30:50.543|453=1|448=IB|447=D|452=1|10=205|
20150515-13:30:50.549: 8=FIX.4.4|9=280|35=G|34=149|49=LVBSG|50=7369691|52=20150515-13:30:50.549|56=ADR_ARBITRAGE_IB_XNYS|57=XPUS|1=U1216799|11=-3baf5501bed5b40e|21=1|38=700|40=2|41=1454f0f1b0164f55|44=46.62|54=2|55=EOC|59=0|60=20150515-13:30:50.549|63=4|100=SMART|111=100|583=-79f2657e9da5b6a2|453=1|448=IB|447=D|452=1|10=016|
20150515-13:30:50.558: 8=FIX.4.4|9=0357|35=8|49=ADR_ARBITRAGE_IB_XNYS|56=LVBSG|34=201|52=20150515-13:30:50|50=XPUS|57=7369691|1=U1216799|207=SMART|6=0|11=-3baf5501bed5b40e|14=0|17=416db1ec02684361|21=1|150=E|31=0|151=400|32=0|100=SMART|38=700|39=E|37=-3cf7a1c6a2d1b566|583=-79f2657e9da5b6a2|40=2|41=1454f0f1b0164f55|44=46.62|55=EOC|54=2|59=0|63=4|60=20150515-13:30:50.554|453=1|448=IB|447=D|452=1|10=220|
20150515-13:30:51.087: 8=FIX.4.4|9=0359|35=8|49=ADR_ARBITRAGE_IB_XNYS|56=LVBSG|34=202|52=20150515-13:30:51|50=XPUS|57=7369691|1=U1216799|207=SMART|6=0|11=-3baf5501bed5b40e|14=0|17=81760.1431696650.3|21=1|150=5|31=0|151=700|32=0|100=SMART|38=700|39=0|37=-3cf7a1c6a2d1b566|583=-79f2657e9da5b6a2|40=2|41=1454f0f1b0164f55|44=46.62|55=EOC|54=2|59=0|63=4|60=20150515-13:30:51.082|453=1|448=IB|447=D|452=1|10=097|
20150515-13:30:53.274: 8=FIX.4.4|9=0376|35=8|49=ADR_ARBITRAGE_IB_XNYS|56=LVBSG|34=203|52=20150515-13:30:53|50=XPUS|57=7369691|1=U1216799|207=SMART|6=46.62|11=-3baf5501bed5b40e|14=100|17=00013911.5555a7e5.01.01|21=1|150=F|31=46.62|151=600|32=100|100=SMART|38=700|39=1|37=-3cf7a1c6a2d1b566|583=-79f2657e9da5b6a2|40=2|41=1454f0f1b0164f55|44=46.62|55=EOC|54=2|59=0|63=4|60=20150515-13:30:53.266|453=1|448=IB|447=D|452=1|10=031|
20150515-13:30:53.614: 8=FIX.4.4|9=0376|35=8|49=ADR_ARBITRAGE_IB_XNYS|56=LVBSG|34=204|52=20150515-13:30:53|50=XPUS|57=7369691|1=U1216799|207=SMART|6=46.62|11=-3baf5501bed5b40e|14=200|17=00013911.5555a7e6.01.01|21=1|150=F|31=46.62|151=500|32=100|100=SMART|38=700|39=1|37=-3cf7a1c6a2d1b566|583=-79f2657e9da5b6a2|40=2|41=1454f0f1b0164f55|44=46.62|55=EOC|54=2|59=0|63=4|60=20150515-13:30:53.609|453=1|448=IB|447=D|452=1|10=034|
20150515-13:30:57.033: 8=FIX.4.4|9=0374|35=8|49=ADR_ARBITRAGE_IB_XNYS|56=LVBSG|34=205|52=20150515-13:30:57|50=XPUS|57=7369691|1=U1216799|207=SMART|6=9.25|11=-1e00b5ae0b0db04e|14=100|17=0001390d.5555a833.01.01|21=1|150=F|31=9.25|151=9400|32=100|100=SMART|38=9500|39=1|37=-6f001b1fa6fdb3f6|583=5abaef0713b14d4a|40=2|41=7f4b48cc4a1b4eea|44=9.24|55=LFL|54=2|59=0|63=4|60=20150515-13:30:57.025|453=1|448=IB|447=D|452=1|10=039|
20150515-13:30:57.425: 8=FIX.4.4|9=0374|35=8|49=ADR_ARBITRAGE_IB_XNYS|56=LVBSG|34=206|52=20150515-13:30:57|50=XPUS|57=7369691|1=U1216799|207=SMART|6=9.25|11=-1e00b5ae0b0db04e|14=200|17=0001390d.5555a834.01.01|21=1|150=F|31=9.25|151=9300|32=100|100=SMART|38=9500|39=1|37=-6f001b1fa6fdb3f6|583=5abaef0713b14d4a|40=2|41=7f4b48cc4a1b4eea|44=9.24|55=LFL|54=2|59=0|63=4|60=20150515-13:30:57.420|453=1|448=IB|447=D|452=1|10=040|
20150515-13:31:00.475: 8=FIX.4.4|9=0373|35=8|49=ADR_ARBITRAGE_IB_XNYS|56=LVBSG|34=207|52=20150515-13:31:00|50=XPUS|57=7369691|1=U1216799|207=SMART|6=18.05|11=1a328ccf86c4f30|14=700|17=00010ff0.5555e206.01.01|21=1|150=F|31=18.05|151=4300|32=100|100=SMART|38=5000|39=1|37=53e0bb545cae458b|583=71a0a9bcfa124180|40=2|41=a052e1ae5124433|44=18.05|55=ENI|54=2|59=0|63=4|60=20150515-13:31:00.466|453=1|448=IB|447=D|452=1|10=049|
20150515-13:31:00.820: 8=FIX.4.4|9=0373|35=8|49=ADR_ARBITRAGE_IB_XNYS|56=LVBSG|34=208|52=20150515-13:31:00|50=XPUS|57=7369691|1=U1216799|207=SMART|6=18.05|11=1a328ccf86c4f30|14=800|17=00010ff0.5555e207.01.01|21=1|150=F|31=18.05|151=4200|32=100|100=SMART|38=5000|39=1|37=53e0bb545cae458b|583=71a0a9bcfa124180|40=2|41=a052e1ae5124433|44=18.05|55=ENI|54=2|59=0|63=4|60=20150515-13:31:00.815|453=1|448=IB|447=D|452=1|10=049|
20150515-13:31:00.826: 8=FIX.4.4|9=0373|35=8|49=ADR_ARBITRAGE_IB_XNYS|56=LVBSG|34=209|52=20150515-13:31:00|50=XPUS|57=7369691|1=U1216799|207=SMART|6=18.05|11=1a328ccf86c4f30|14=900|17=00010ff0.5555e208.01.01|21=1|150=F|31=18.05|151=4100|32=100|100=SMART|38=5000|39=1|37=53e0bb545cae458b|583=71a0a9bcfa124180|40=2|41=a052e1ae5124433|44=18.05|55=ENI|54=2|59=0|63=4|60=20150515-13:31:00.822|453=1|448=IB|447=D|452=1|10=049|
20150515-13:31:00.832: 8=FIX.4.4|9=0374|35=8|49=ADR_ARBITRAGE_IB_XNYS|56=LVBSG|34=210|52=20150515-13:31:00|50=XPUS|57=7369691|1=U1216799|207=SMART|6=18.05|11=1a328ccf86c4f30|14=1000|17=00010ff0.5555e20a.01.01|21=1|150=F|31=18.05|151=4000|32=100|100=SMART|38=5000|39=1|37=53e0bb545cae458b|583=71a0a9bcfa124180|40=2|41=a052e1ae5124433|44=18.05|55=ENI|54=2|59=0|63=4|60=20150515-13:31:00.828|453=1|448=IB|447=D|452=1|10=128|
20150515-13:31:01.634: 8=FIX.4.4|9=0374|35=8|49=ADR_ARBITRAGE_IB_XNYS|56=LVBSG|34=211|52=20150515-13:31:01|50=XPUS|57=7369691|1=U1216799|207=SMART|6=9.25|11=-1e00b5ae0b0db04e|14=300|17=0001390d.5555a83c.01.01|21=1|150=F|31=9.25|151=9200|32=100|100=SMART|38=9500|39=1|37=-6f001b1fa6fdb3f6|583=5abaef0713b14d4a|40=2|41=7f4b48cc4a1b4eea|44=9.24|55=LFL|54=2|59=0|63=4|60=20150515-13:31:01.629|453=1|448=IB|447=D|452=1|10=074|
20150515-13:31:01.992: 8=FIX.4.4|9=0374|35=8|49=ADR_ARBITRAGE_IB_XNYS|56=LVBSG|34=212|52=20150515-13:31:01|50=XPUS|57=7369691|1=U1216799|207=SMART|6=9.25|11=-1e00b5ae0b0db04e|14=400|17=0001390d.5555a83d.01.01|21=1|150=F|31=9.25|151=9100|32=100|100=SMART|38=9500|39=1|37=-6f001b1fa6fdb3f6|583=5abaef0713b14d4a|40=2|41=7f4b48cc4a1b4eea|44=9.24|55=LFL|54=2|59=0|63=4|60=20150515-13:31:01.987|453=1|448=IB|447=D|452=1|10=083|
20150515-13:31:03.592: 8=FIX.4.4|9=0376|35=8|49=ADR_ARBITRAGE_IB_XNYS|56=LVBSG|34=213|52=20150515-13:31:03|50=XPUS|57=7369691|1=U1216799|207=SMART|6=46.62|11=-3baf5501bed5b40e|14=300|17=00013911.5555a7f7.01.01|21=1|150=F|31=46.62|151=400|32=100|100=SMART|38=700|39=1|37=-3cf7a1c6a2d1b566|583=-79f2657e9da5b6a2|40=2|41=1454f0f1b0164f55|44=46.62|55=EOC|54=2|59=0|63=4|60=20150515-13:31:03.580|453=1|448=IB|447=D|452=1|10=026|
20150515-13:31:07.295: 8=FIX.4.4|9=288|35=G|34=150|49=LVBSG|50=7369691|52=20150515-13:31:07.295|56=ADR_ARBITRAGE_IB_XNYS|57=XPUS|1=U1216799|11=2dc2b0ccf4b94e4c|21=1|38=4300|40=2|41=25814c3a83594046|44=9.25|54=1|55=LFL|59=0|60=20150515-13:31:07.295|63=4|100=SMART|111=100|207=SMART|583=5abaef0713b14d4a|453=1|448=IB|447=D|452=1|10=060|
20150515-13:31:07.295: 8=FIX.4.4|9=279|35=G|34=151|49=LVBSG|50=7369691|52=20150515-13:31:07.295|56=ADR_ARBITRAGE_IB_XNYS|57=XPUS|1=U1216799|11=54c0e5a6694241bf|21=1|38=9500|40=2|41=-1e00b5ae0b0db04e|44=9.25|54=2|55=LFL|59=0|60=20150515-13:31:07.294|63=4|100=SMART|111=100|583=5abaef0713b14d4a|453=1|448=IB|447=D|452=1|10=092|
20150515-13:31:07.309: 8=FIX.4.4|9=0374|35=8|49=ADR_ARBITRAGE_IB_XNYS|56=LVBSG|34=214|52=20150515-13:31:07|50=XPUS|57=7369691|1=U1216799|207=SMART|6=9.25|11=-1e00b5ae0b0db04e|14=500|17=0001390d.5555a845.01.01|21=1|150=F|31=9.25|151=9000|32=100|100=SMART|38=9500|39=1|37=-6f001b1fa6fdb3f6|583=5abaef0713b14d4a|40=2|41=7f4b48cc4a1b4eea|44=9.24|55=LFL|54=2|59=0|63=4|60=20150515-13:31:07.294|453=1|448=IB|447=D|452=1|10=042|
20150515-13:31:07.317: 8=FIX.4.4|9=0365|35=8|49=ADR_ARBITRAGE_IB_XNYS|56=LVBSG|34=215|52=20150515-13:31:07|50=XPUS|57=7369691|1=U1216799|207=SMART|6=9.156182|11=2dc2b0ccf4b94e4c|14=1100|17=6fb39d8d7774eef|21=1|150=E|31=0|151=3200|32=0|100=SMART|38=4300|39=E|37=-49b3bf1d3938bc5b|583=5abaef0713b14d4a|40=2|41=25814c3a83594046|44=9.25|55=LFL|54=1|59=0|63=4|60=20150515-13:31:07.313|453=1|448=IB|447=D|452=1|10=096|
20150515-13:31:07.330: 8=FIX.4.4|9=0363|35=8|49=ADR_ARBITRAGE_IB_XNYS|56=LVBSG|34=216|52=20150515-13:31:07|50=XPUS|57=7369691|1=U1216799|207=SMART|6=9.25|11=54c0e5a6694241bf|14=500|17=-3fb4577a2bd7bdfd|21=1|150=E|31=0|151=9000|32=0|100=SMART|38=9500|39=E|37=-6f001b1fa6fdb3f6|583=5abaef0713b14d4a|40=2|41=-1e00b5ae0b0db04e|44=9.25|55=LFL|54=2|59=0|63=4|60=20150515-13:31:07.314|453=1|448=IB|447=D|452=1|10=183|
20150515-13:31:07.481: 8=FIX.4.4|9=0374|35=8|49=ADR_ARBITRAGE_IB_XNYS|56=LVBSG|34=217|52=20150515-13:31:07|50=XPUS|57=7369691|1=U1216799|207=SMART|6=9.25|11=54c0e5a6694241bf|14=600|17=0000e587.5555dce8.01.01|21=1|150=F|31=9.25|151=8900|32=100|100=SMART|38=9500|39=1|37=-6f001b1fa6fdb3f6|583=5abaef0713b14d4a|40=2|41=-1e00b5ae0b0db04e|44=9.24|55=LFL|54=2|59=0|63=4|60=20150515-13:31:07.462|453=1|448=IB|447=D|452=1|10=224|
20150515-13:31:07.483: 8=FIX.4.4|9=0374|35=8|49=ADR_ARBITRAGE_IB_XNYS|56=LVBSG|34=218|52=20150515-13:31:07|50=XPUS|57=7369691|1=U1216799|207=SMART|6=9.25|11=54c0e5a6694241bf|14=700|17=0001390d.5555a846.01.01|21=1|150=F|31=9.25|151=8800|32=100|100=SMART|38=9500|39=1|37=-6f001b1fa6fdb3f6|583=5abaef0713b14d4a|40=2|41=-1e00b5ae0b0db04e|44=9.24|55=LFL|54=2|59=0|63=4|60=20150515-13:31:07.468|453=1|448=IB|447=D|452=1|10=126|
20150515-13:31:07.484: 8=FIX.4.4|9=0374|35=8|49=ADR_ARBITRAGE_IB_XNYS|56=LVBSG|34=219|52=20150515-13:31:07|50=XPUS|57=7369691|1=U1216799|207=SMART|6=9.25|11=54c0e5a6694241bf|14=800|17=00010ff0.5555e254.01.01|21=1|150=F|31=9.25|151=8700|32=100|100=SMART|38=9500|39=1|37=-6f001b1fa6fdb3f6|583=5abaef0713b14d4a|40=2|41=-1e00b5ae0b0db04e|44=9.24|55=LFL|54=2|59=0|63=4|60=20150515-13:31:07.469|453=1|448=IB|447=D|452=1|10=169|
20150515-13:31:07.484: 8=FIX.4.4|9=0376|35=8|49=ADR_ARBITRAGE_IB_XNYS|56=LVBSG|34=220|52=20150515-13:31:07|50=XPUS|57=7369691|1=U1216799|207=SMART|6=9.25|11=54c0e5a6694241bf|14=5800|17=0000dde5.aaabcd99.01.01|21=1|150=F|31=9.25|151=3700|32=5000|100=SMART|38=9500|39=1|37=-6f001b1fa6fdb3f6|583=5abaef0713b14d4a|40=2|41=-1e00b5ae0b0db04e|44=9.24|55=LFL|54=2|59=0|63=4|60=20150515-13:31:07.470|453=1|448=IB|447=D|452=1|10=030|
20150515-13:31:07.488: 8=FIX.4.4|9=0375|35=8|49=ADR_ARBITRAGE_IB_XNYS|56=LVBSG|34=221|52=20150515-13:31:07|50=XPUS|57=7369691|1=U1216799|207=SMART|6=9.25|11=54c0e5a6694241bf|14=5900|17=00010d1f.5555a716.01.01|21=1|150=F|31=9.25|151=3600|32=100|100=SMART|38=9500|39=1|37=-6f001b1fa6fdb3f6|583=5abaef0713b14d4a|40=2|41=-1e00b5ae0b0db04e|44=9.24|55=LFL|54=2|59=0|63=4|60=20150515-13:31:07.482|453=1|448=IB|447=D|452=1|10=204|
20150515-13:31:07.505: 8=FIX.4.4|9=0375|35=8|49=ADR_ARBITRAGE_IB_XNYS|56=LVBSG|34=222|52=20150515-13:31:07|50=XPUS|57=7369691|1=U1216799|207=SMART|6=9.25|11=54c0e5a6694241bf|14=6000|17=00010d1f.5555a717.01.01|21=1|150=F|31=9.25|151=3500|32=100|100=SMART|38=9500|39=1|37=-6f001b1fa6fdb3f6|583=5abaef0713b14d4a|40=2|41=-1e00b5ae0b0db04e|44=9.24|55=LFL|54=2|59=0|63=4|60=20150515-13:31:07.485|453=1|448=IB|447=D|452=1|10=200|
20150515-13:31:07.505: 8=FIX.4.4|9=0375|35=8|49=ADR_ARBITRAGE_IB_XNYS|56=LVBSG|34=223|52=20150515-13:31:07|50=XPUS|57=7369691|1=U1216799|207=SMART|6=9.25|11=54c0e5a6694241bf|14=6100|17=00010ff0.5555e255.01.01|21=1|150=F|31=9.25|151=3400|32=100|100=SMART|38=9500|39=1|37=-6f001b1fa6fdb3f6|583=5abaef0713b14d4a|40=2|41=-1e00b5ae0b0db04e|44=9.24|55=LFL|54=2|59=0|63=4|60=20150515-13:31:07.488|453=1|448=IB|447=D|452=1|10=206|
20150515-13:31:07.505: 8=FIX.4.4|9=0378|35=8|49=ADR_ARBITRAGE_IB_XNYS|56=LVBSG|34=224|52=20150515-13:31:07|50=XPUS|57=7369691|1=U1216799|207=SMART|6=9.163167|11=2dc2b0ccf4b94e4c|14=1200|17=00010ff0.5555e256.01.01|21=1|150=F|31=9.24|151=3100|32=100|100=SMART|38=4300|39=1|37=-49b3bf1d3938bc5b|583=5abaef0713b14d4a|40=2|41=25814c3a83594046|44=9.24|55=LFL|54=1|59=0|63=4|60=20150515-13:31:07.490|453=1|448=IB|447=D|452=1|10=241|
20150515-13:31:07.820: 8=FIX.4.4|9=0368|35=8|49=ADR_ARBITRAGE_IB_XNYS|56=LVBSG|34=225|52=20150515-13:31:07|50=XPUS|57=7369691|1=U1216799|207=SMART|6=9.163167|11=2dc2b0ccf4b94e4c|14=1200|17=81760.1431696667.3|21=1|150=5|31=0|151=3100|32=0|100=SMART|38=4300|39=1|37=-49b3bf1d3938bc5b|583=5abaef0713b14d4a|40=2|41=25814c3a83594046|44=9.25|55=LFL|54=1|59=0|63=4|60=20150515-13:31:07.814|453=1|448=IB|447=D|452=1|10=122|
20150515-13:31:07.834: 8=FIX.4.4|9=0365|35=8|49=ADR_ARBITRAGE_IB_XNYS|56=LVBSG|34=226|52=20150515-13:31:07|50=XPUS|57=7369691|1=U1216799|207=SMART|6=9.25|11=54c0e5a6694241bf|14=6100|17=81760.1431696667.6|21=1|150=5|31=0|151=3400|32=0|100=SMART|38=9500|39=1|37=-6f001b1fa6fdb3f6|583=5abaef0713b14d4a|40=2|41=-1e00b5ae0b0db04e|44=9.25|55=LFL|54=2|59=0|63=4|60=20150515-13:31:07.826|453=1|448=IB|447=D|452=1|10=088|
20150515-13:31:07.836: 8=FIX.4.4|9=279|35=G|34=152|49=LVBSG|50=7369691|52=20150515-13:31:07.836|56=ADR_ARBITRAGE_IB_XNYS|57=XPUS|1=U1216799|11=-51553b94303cbff9|21=1|38=9500|40=2|41=54c0e5a6694241bf|44=9.24|54=2|55=LFL|59=0|60=20150515-13:31:07.836|63=4|100=SMART|111=100|583=5abaef0713b14d4a|453=1|448=IB|447=D|452=1|10=237|
20150515-13:31:07.854: 8=FIX.4.4|9=0363|35=8|49=ADR_ARBITRAGE_IB_XNYS|56=LVBSG|34=227|52=20150515-13:31:07|50=XPUS|57=7369691|1=U1216799|207=SMART|6=9.25|11=-51553b94303cbff9|14=6100|17=1ada1632a9124e0a|21=1|150=E|31=0|151=3400|32=0|100=SMART|38=9500|39=E|37=-6f001b1fa6fdb3f6|583=5abaef0713b14d4a|40=2|41=54c0e5a6694241bf|44=9.24|55=LFL|54=2|59=0|63=4|60=20150515-13:31:07.843|453=1|448=IB|447=D|452=1|10=168|
20150515-13:31:08.403: 8=FIX.4.4|9=0365|35=8|49=ADR_ARBITRAGE_IB_XNYS|56=LVBSG|34=228|52=20150515-13:31:08|50=XPUS|57=7369691|1=U1216799|207=SMART|6=9.25|11=-51553b94303cbff9|14=6100|17=81760.1431696667.9|21=1|150=5|31=0|151=3400|32=0|100=SMART|38=9500|39=1|37=-6f001b1fa6fdb3f6|583=5abaef0713b14d4a|40=2|41=54c0e5a6694241bf|44=9.24|55=LFL|54=2|59=0|63=4|60=20150515-13:31:08.398|453=1|448=IB|447=D|452=1|10=240|
20150515-13:31:16.681: 8=FIX.4.4|9=0375|35=8|49=ADR_ARBITRAGE_IB_XNYS|56=LVBSG|34=229|52=20150515-13:31:16|50=XPUS|57=7369691|1=U1216799|207=SMART|6=9.25|11=-51553b94303cbff9|14=6200|17=00010ff0.5555e297.01.01|21=1|150=F|31=9.25|151=3300|32=100|100=SMART|38=9500|39=1|37=-6f001b1fa6fdb3f6|583=5abaef0713b14d4a|40=2|41=54c0e5a6694241bf|44=9.24|55=LFL|54=2|59=0|63=4|60=20150515-13:31:16.676|453=1|448=IB|447=D|452=1|10=103|
20150515-13:31:17.034: 8=FIX.4.4|9=0375|35=8|49=ADR_ARBITRAGE_IB_XNYS|56=LVBSG|34=230|52=20150515-13:31:17|50=XPUS|57=7369691|1=U1216799|207=SMART|6=9.25|11=-51553b94303cbff9|14=6300|17=00010ff0.5555e298.01.01|21=1|150=F|31=9.25|151=3200|32=100|100=SMART|38=9500|39=1|37=-6f001b1fa6fdb3f6|583=5abaef0713b14d4a|40=2|41=54c0e5a6694241bf|44=9.24|55=LFL|54=2|59=0|63=4|60=20150515-13:31:17.029|453=1|448=IB|447=D|452=1|10=090|
20150515-13:31:17.039: 8=FIX.4.4|9=0375|35=8|49=ADR_ARBITRAGE_IB_XNYS|56=LVBSG|34=231|52=20150515-13:31:17|50=XPUS|57=7369691|1=U1216799|207=SMART|6=9.25|11=-51553b94303cbff9|14=6400|17=00010ff0.5555e299.01.01|21=1|150=F|31=9.25|151=3100|32=100|100=SMART|38=9500|39=1|37=-6f001b1fa6fdb3f6|583=5abaef0713b14d4a|40=2|41=54c0e5a6694241bf|44=9.24|55=LFL|54=2|59=0|63=4|60=20150515-13:31:17.035|453=1|448=IB|447=D|452=1|10=089|
20150515-13:31:17.044: 8=FIX.4.4|9=0375|35=8|49=ADR_ARBITRAGE_IB_XNYS|56=LVBSG|34=232|52=20150515-13:31:17|50=XPUS|57=7369691|1=U1216799|207=SMART|6=9.25|11=-51553b94303cbff9|14=6600|17=00010ff0.5555e29a.01.01|21=1|150=F|31=9.25|151=2900|32=200|100=SMART|38=9500|39=1|37=-6f001b1fa6fdb3f6|583=5abaef0713b14d4a|40=2|41=54c0e5a6694241bf|44=9.24|55=LFL|54=2|59=0|63=4|60=20150515-13:31:17.040|453=1|448=IB|447=D|452=1|10=136|
20150515-13:31:19.074: 8=FIX.4.4|9=0353|35=8|49=ADR_ARBITRAGE_IB_XNYS|56=LVBSG|34=233|52=20150515-13:31:19|50=XPUS|57=7369691|1=U1216799|207=SMART|6=7.99|11=-7ea66c0ac288bbcd|14=400|17=00013d04.5555a7c9.01.01|21=1|150=F|31=7.99|151=600|32=100|100=SMART|38=1000|39=1|37=-66f662f27f4b229|583=778c176b83c84eb2|40=2|44=7.99|55=CNCO|54=2|59=0|63=4|60=20150515-13:31:19.069|453=1|448=IB|447=D|452=1|10=226|
20150515-13:31:19.439: 8=FIX.4.4|9=0353|35=8|49=ADR_ARBITRAGE_IB_XNYS|56=LVBSG|34=234|52=20150515-13:31:19|50=XPUS|57=7369691|1=U1216799|207=SMART|6=7.99|11=-7ea66c0ac288bbcd|14=500|17=00013d04.5555a7ca.01.01|21=1|150=F|31=7.99|151=500|32=100|100=SMART|38=1000|39=1|37=-66f662f27f4b229|583=778c176b83c84eb2|40=2|44=7.99|55=CNCO|54=2|59=0|63=4|60=20150515-13:31:19.427|453=1|448=IB|447=D|452=1|10=009|
20150515-13:31:19.789: 8=FIX.4.4|9=0375|35=8|49=ADR_ARBITRAGE_IB_XNYS|56=LVBSG|34=235|52=20150515-13:31:19|50=XPUS|57=7369691|1=U1216799|207=SMART|6=9.25|11=-51553b94303cbff9|14=6700|17=00010ff0.5555e2bc.01.01|21=1|150=F|31=9.25|151=2800|32=100|100=SMART|38=9500|39=1|37=-6f001b1fa6fdb3f6|583=5abaef0713b14d4a|40=2|41=54c0e5a6694241bf|44=9.24|55=LFL|54=2|59=0|63=4|60=20150515-13:31:19.781|453=1|448=IB|447=D|452=1|10=197|
20150515-13:31:23.108: 8=FIX.4.4|9=0375|35=8|49=ADR_ARBITRAGE_IB_XNYS|56=LVBSG|34=236|52=20150515-13:31:23|50=XPUS|57=7369691|1=U1216799|207=SMART|6=9.25|11=-51553b94303cbff9|14=6800|17=00010ff0.5555e302.01.01|21=1|150=F|31=9.25|151=2700|32=100|100=SMART|38=9500|39=1|37=-6f001b1fa6fdb3f6|583=5abaef0713b14d4a|40=2|41=54c0e5a6694241bf|44=9.24|55=LFL|54=2|59=0|63=4|60=20150515-13:31:23.103|453=1|448=IB|447=D|452=1|10=078|
20150515-13:31:28.018: 8=FIX.4.4|9=279|35=G|34=153|49=LVBSG|50=7369691|52=20150515-13:31:28.018|56=ADR_ARBITRAGE_IB_XNYS|57=XPUS|1=U1216799|11=-76baffe22877b8e4|21=1|38=5000|40=2|41=1a328ccf86c4f30|44=18.04|54=2|55=ENI|59=0|60=20150515-13:31:28.017|63=4|100=SMART|111=100|583=71a0a9bcfa124180|453=1|448=IB|447=D|452=1|10=012|
20150515-13:31:28.028: 8=FIX.4.4|9=0363|35=8|49=ADR_ARBITRAGE_IB_XNYS|56=LVBSG|34=237|52=20150515-13:31:28|50=XPUS|57=7369691|1=U1216799|207=SMART|6=18.05|11=-76baffe22877b8e4|14=1000|17=2c6c7b6b7ddd4434|21=1|150=E|31=0|151=4000|32=0|100=SMART|38=5000|39=E|37=53e0bb545cae458b|583=71a0a9bcfa124180|40=2|41=1a328ccf86c4f30|44=18.04|55=ENI|54=2|59=0|63=4|60=20150515-13:31:28.024|453=1|448=IB|447=D|452=1|10=225|
20150515-13:31:28.378: 8=FIX.4.4|9=0365|35=8|49=ADR_ARBITRAGE_IB_XNYS|56=LVBSG|34=238|52=20150515-13:31:28|50=XPUS|57=7369691|1=U1216799|207=SMART|6=18.05|11=-76baffe22877b8e4|14=1000|17=81760.1431696688.1|21=1|150=5|31=0|151=4000|32=0|100=SMART|38=5000|39=1|37=53e0bb545cae458b|583=71a0a9bcfa124180|40=2|41=1a328ccf86c4f30|44=18.04|55=ENI|54=2|59=0|63=4|60=20150515-13:31:28.373|453=1|448=IB|447=D|452=1|10=221|
20150515-13:31:28.386: 8=FIX.4.4|9=0380|35=8|49=ADR_ARBITRAGE_IB_XNYS|56=LVBSG|34=239|52=20150515-13:31:28|50=XPUS|57=7369691|1=U1216799|207=SMART|6=18.049091|11=-76baffe22877b8e4|14=1100|17=00010a77.5555dcce.01.01|21=1|150=F|31=18.04|151=3900|32=100|100=SMART|38=5000|39=1|37=53e0bb545cae458b|583=71a0a9bcfa124180|40=2|41=1a328ccf86c4f30|44=18.04|55=ENI|54=2|59=0|63=4|60=20150515-13:31:28.380|453=1|448=IB|447=D|452=1|10=185|
20150515-13:31:28.391: 8=FIX.4.4|9=0380|35=8|49=ADR_ARBITRAGE_IB_XNYS|56=LVBSG|34=240|52=20150515-13:31:28|50=XPUS|57=7369691|1=U1216799|207=SMART|6=18.045882|11=-76baffe22877b8e4|14=1700|17=0000d8dc.5555d8ed.01.01|21=1|150=F|31=18.04|151=3300|32=600|100=SMART|38=5000|39=1|37=53e0bb545cae458b|583=71a0a9bcfa124180|40=2|41=1a328ccf86c4f30|44=18.04|55=ENI|54=2|59=0|63=4|60=20150515-13:31:28.386|453=1|448=IB|447=D|452=1|10=249|
20150515-13:31:28.396: 8=FIX.4.4|9=0380|35=8|49=ADR_ARBITRAGE_IB_XNYS|56=LVBSG|34=241|52=20150515-13:31:28|50=XPUS|57=7369691|1=U1216799|207=SMART|6=18.045556|11=-76baffe22877b8e4|14=1800|17=00010a77.5555dccf.01.01|21=1|150=F|31=18.04|151=3200|32=100|100=SMART|38=5000|39=1|37=53e0bb545cae458b|583=71a0a9bcfa124180|40=2|41=1a328ccf86c4f30|44=18.04|55=ENI|54=2|59=0|63=4|60=20150515-13:31:28.392|453=1|448=IB|447=D|452=1|10=184|
20150515-13:31:28.404: 8=FIX.4.4|9=0380|35=8|49=ADR_ARBITRAGE_IB_XNYS|56=LVBSG|34=242|52=20150515-13:31:28|50=XPUS|57=7369691|1=U1216799|207=SMART|6=18.044545|11=-76baffe22877b8e4|14=2200|17=00013911.5555a81a.01.01|21=1|150=F|31=18.04|151=2800|32=400|100=SMART|38=5000|39=1|37=53e0bb545cae458b|583=71a0a9bcfa124180|40=2|41=1a328ccf86c4f30|44=18.04|55=ENI|54=2|59=0|63=4|60=20150515-13:31:28.399|453=1|448=IB|447=D|452=1|10=042|
20150515-13:31:28.413: 8=FIX.4.4|9=0380|35=8|49=ADR_ARBITRAGE_IB_XNYS|56=LVBSG|34=243|52=20150515-13:31:28|50=XPUS|57=7369691|1=U1216799|207=SMART|6=18.044348|11=-76baffe22877b8e4|14=2300|17=00010ec8.5555aa51.01.01|21=1|150=F|31=18.04|151=2700|32=100|100=SMART|38=5000|39=1|37=53e0bb545cae458b|583=71a0a9bcfa124180|40=2|41=1a328ccf86c4f30|44=18.04|55=ENI|54=2|59=0|63=4|60=20150515-13:31:28.405|453=1|448=IB|447=D|452=1|10=124|
20150515-13:31:28.416: 8=FIX.4.4|9=0380|35=8|49=ADR_ARBITRAGE_IB_XNYS|56=LVBSG|34=244|52=20150515-13:31:28|50=XPUS|57=7369691|1=U1216799|207=SMART|6=18.043448|11=-76baffe22877b8e4|14=2900|17=00010ec8.5555aa52.01.01|21=1|150=F|31=18.04|151=2100|32=600|100=SMART|38=5000|39=1|37=53e0bb545cae458b|583=71a0a9bcfa124180|40=2|41=1a328ccf86c4f30|44=18.04|55=ENI|54=2|59=0|63=4|60=20150515-13:31:28.411|453=1|448=IB|447=D|452=1|10=128|
20150515-13:31:28.424: 8=FIX.4.4|9=0380|35=8|49=ADR_ARBITRAGE_IB_XNYS|56=LVBSG|34=245|52=20150515-13:31:28|50=XPUS|57=7369691|1=U1216799|207=SMART|6=18.043333|11=-76baffe22877b8e4|14=3000|17=00010ff0.5555e33a.01.01|21=1|150=F|31=18.04|151=2000|32=100|100=SMART|38=5000|39=1|37=53e0bb545cae458b|583=71a0a9bcfa124180|40=2|41=1a328ccf86c4f30|44=18.04|55=ENI|54=2|59=0|63=4|60=20150515-13:31:28.419|453=1|448=IB|447=D|452=1|10=115|
20150515-13:31:28.430: 8=FIX.4.4|9=0379|35=8|49=ADR_ARBITRAGE_IB_XNYS|56=LVBSG|34=246|52=20150515-13:31:28|50=XPUS|57=7369691|1=U1216799|207=SMART|6=18.04303|11=-76baffe22877b8e4|14=3300|17=00010ff0.5555e33b.01.01|21=1|150=F|31=18.04|151=1700|32=300|100=SMART|38=5000|39=1|37=53e0bb545cae458b|583=71a0a9bcfa124180|40=2|41=1a328ccf86c4f30|44=18.04|55=ENI|54=2|59=0|63=4|60=20150515-13:31:28.425|453=1|448=IB|447=D|452=1|10=079|
20150515-13:31:28.436: 8=FIX.4.4|9=0382|35=8|49=ADR_ARBITRAGE_IB_XNYS|56=LVBSG|34=247|52=20150515-13:31:28|50=XPUS|57=7369691|1=U1216799|207=SMART|6=18.042563|11=-76baffe22877b8e4|14=4900|17=00015e46.aaabcd9d.01.01|21=1|150=F|31=18.0416|151=100|32=1600|100=SMART|38=5000|39=1|37=53e0bb545cae458b|583=71a0a9bcfa124180|40=2|41=1a328ccf86c4f30|44=18.04|55=ENI|54=2|59=0|63=4|60=20150515-13:31:28.432|453=1|448=IB|447=D|452=1|10=173|
20150515-13:31:30.258: 8=FIX.4.4|9=0375|35=8|49=ADR_ARBITRAGE_IB_XNYS|56=LVBSG|34=248|52=20150515-13:31:30|50=XPUS|57=7369691|1=U1216799|207=SMART|6=9.25|11=-51553b94303cbff9|14=6900|17=00010ff0.5555e37f.01.01|21=1|150=F|31=9.25|151=2600|32=100|100=SMART|38=9500|39=1|37=-6f001b1fa6fdb3f6|583=5abaef0713b14d4a|40=2|41=54c0e5a6694241bf|44=9.24|55=LFL|54=2|59=0|63=4|60=20150515-13:31:30.254|453=1|448=IB|447=D|452=1|10=143|
20150515-13:31:30.620: 8=FIX.4.4|9=0375|35=8|49=ADR_ARBITRAGE_IB_XNYS|56=LVBSG|34=249|52=20150515-13:31:30|50=XPUS|57=7369691|1=U1216799|207=SMART|6=9.25|11=-51553b94303cbff9|14=7000|17=00010ff0.5555e380.01.01|21=1|150=F|31=9.25|151=2500|32=100|100=SMART|38=9500|39=1|37=-6f001b1fa6fdb3f6|583=5abaef0713b14d4a|40=2|41=54c0e5a6694241bf|44=9.24|55=LFL|54=2|59=0|63=4|60=20150515-13:31:30.612|453=1|448=IB|447=D|452=1|10=080|
20150515-13:31:34.111: 8=FIX.4.4|9=0375|35=8|49=ADR_ARBITRAGE_IB_XNYS|56=LVBSG|34=250|52=20150515-13:31:34|50=XPUS|57=7369691|1=U1216799|207=SMART|6=9.25|11=-51553b94303cbff9|14=7100|17=00010ff0.5555e397.01.01|21=1|150=F|31=9.25|151=2400|32=100|100=SMART|38=9500|39=1|37=-6f001b1fa6fdb3f6|583=5abaef0713b14d4a|40=2|41=54c0e5a6694241bf|44=9.24|55=LFL|54=2|59=0|63=4|60=20150515-13:31:34.106|453=1|448=IB|447=D|452=1|10=086|
20150515-13:31:34.471: 8=FIX.4.4|9=0353|35=8|49=ADR_ARBITRAGE_IB_XNYS|56=LVBSG|34=251|52=20150515-13:31:34|50=XPUS|57=7369691|1=U1216799|207=SMART|6=7.99|11=-7ea66c0ac288bbcd|14=600|17=00013d04.5555a7dc.01.01|21=1|150=F|31=7.99|151=400|32=100|100=SMART|38=1000|39=1|37=-66f662f27f4b229|583=778c176b83c84eb2|40=2|44=7.99|55=CNCO|54=2|59=0|63=4|60=20150515-13:31:34.466|453=1|448=IB|447=D|452=1|10=008|
20150515-13:31:34.475: 8=FIX.4.4|9=0353|35=8|49=ADR_ARBITRAGE_IB_XNYS|56=LVBSG|34=252|52=20150515-13:31:34|50=XPUS|57=7369691|1=U1216799|207=SMART|6=7.99|11=-7ea66c0ac288bbcd|14=700|17=00013d04.5555a7dd.01.01|21=1|150=F|31=7.99|151=300|32=100|100=SMART|38=1000|39=1|37=-66f662f27f4b229|583=778c176b83c84eb2|40=2|44=7.99|55=CNCO|54=2|59=0|63=4|60=20150515-13:31:34.471|453=1|448=IB|447=D|452=1|10=006|
20150515-13:31:35.846: 8=FIX.4.4|9=0375|35=8|49=ADR_ARBITRAGE_IB_XNYS|56=LVBSG|34=253|52=20150515-13:31:35|50=XPUS|57=7369691|1=U1216799|207=SMART|6=9.25|11=-51553b94303cbff9|14=7200|17=00010ff0.5555e3a1.01.01|21=1|150=F|31=9.25|151=2300|32=100|100=SMART|38=9500|39=1|37=-6f001b1fa6fdb3f6|583=5abaef0713b14d4a|40=2|41=54c0e5a6694241bf|44=9.24|55=LFL|54=2|59=0|63=4|60=20150515-13:31:35.834|453=1|448=IB|447=D|452=1|10=133|
20150515-13:31:37.627: 8=FIX.4.4|9=0375|35=8|49=ADR_ARBITRAGE_IB_XNYS|56=LVBSG|34=254|52=20150515-13:31:37|50=XPUS|57=7369691|1=U1216799|207=SMART|6=9.25|11=-51553b94303cbff9|14=7300|17=00010ff0.5555e3e6.01.01|21=1|150=F|31=9.25|151=2200|32=100|100=SMART|38=9500|39=1|37=-6f001b1fa6fdb3f6|583=5abaef0713b14d4a|40=2|41=54c0e5a6694241bf|44=9.24|55=LFL|54=2|59=0|63=4|60=20150515-13:31:37.623|453=1|448=IB|447=D|452=1|10=143|
20150515-13:31:37.979: 8=FIX.4.4|9=0375|35=8|49=ADR_ARBITRAGE_IB_XNYS|56=LVBSG|34=255|52=20150515-13:31:37|50=XPUS|57=7369691|1=U1216799|207=SMART|6=9.25|11=-51553b94303cbff9|14=7400|17=00010ff0.5555e3e7.01.01|21=1|150=F|31=9.25|151=2100|32=100|100=SMART|38=9500|39=1|37=-6f001b1fa6fdb3f6|583=5abaef0713b14d4a|40=2|41=54c0e5a6694241bf|44=9.24|55=LFL|54=2|59=0|63=4|60=20150515-13:31:37.974|453=1|448=IB|447=D|452=1|10=154|
20150515-13:31:41.509: 8=FIX.4.4|9=0375|35=8|49=ADR_ARBITRAGE_IB_XNYS|56=LVBSG|34=256|52=20150515-13:31:41|50=XPUS|57=7369691|1=U1216799|207=SMART|6=9.25|11=-51553b94303cbff9|14=7500|17=00010ff0.5555e40f.01.01|21=1|150=F|31=9.25|151=2000|32=100|100=SMART|38=9500|39=1|37=-6f001b1fa6fdb3f6|583=5abaef0713b14d4a|40=2|41=54c0e5a6694241bf|44=9.24|55=LFL|54=2|59=0|63=4|60=20150515-13:31:41.504|453=1|448=IB|447=D|452=1|10=129|
20150515-13:31:55.990: 8=FIX.4.4|9=0375|35=8|49=ADR_ARBITRAGE_IB_XNYS|56=LVBSG|34=257|52=20150515-13:31:55|50=XPUS|57=7369691|1=U1216799|207=SMART|6=9.25|11=-51553b94303cbff9|14=7600|17=00010ff0.5555e4d9.01.01|21=1|150=F|31=9.25|151=1900|32=100|100=SMART|38=9500|39=1|37=-6f001b1fa6fdb3f6|583=5abaef0713b14d4a|40=2|41=54c0e5a6694241bf|44=9.24|55=LFL|54=2|59=0|63=4|60=20150515-13:31:55.973|453=1|448=IB|447=D|452=1|10=166|
20150515-13:32:01.733: 8=FIX.4.4|9=0378|35=8|49=ADR_ARBITRAGE_IB_XNYS|56=LVBSG|34=258|52=20150515-13:32:01|50=XPUS|57=7369691|1=U1216799|207=SMART|6=9.169077|11=2dc2b0ccf4b94e4c|14=1300|17=0001390d.5555a866.01.01|21=1|150=F|31=9.24|151=3000|32=100|100=SMART|38=4300|39=1|37=-49b3bf1d3938bc5b|583=5abaef0713b14d4a|40=2|41=25814c3a83594046|44=9.25|55=LFL|54=1|59=0|63=4|60=20150515-13:32:01.729|453=1|448=IB|447=D|452=1|10=209|
20150515-13:32:20.153: 8=FIX.4.4|9=0378|35=8|49=ADR_ARBITRAGE_IB_XNYS|56=LVBSG|34=259|52=20150515-13:32:20|50=XPUS|57=7369691|1=U1216799|207=SMART|6=9.174857|11=2dc2b0ccf4b94e4c|14=1400|17=0000e587.5555dd13.01.01|21=1|150=F|31=9.25|151=2900|32=100|100=SMART|38=4300|39=1|37=-49b3bf1d3938bc5b|583=5abaef0713b14d4a|40=2|41=25814c3a83594046|44=9.25|55=LFL|54=1|59=0|63=4|60=20150515-13:32:20.149|453=1|448=IB|447=D|452=1|10=011|
20150515-13:32:20.158: 8=FIX.4.4|9=0378|35=8|49=ADR_ARBITRAGE_IB_XNYS|56=LVBSG|34=260|52=20150515-13:32:20|50=XPUS|57=7369691|1=U1216799|207=SMART|6=9.179867|11=2dc2b0ccf4b94e4c|14=1500|17=00010ff0.5555e599.01.01|21=1|150=F|31=9.25|151=2800|32=100|100=SMART|38=4300|39=1|37=-49b3bf1d3938bc5b|583=5abaef0713b14d4a|40=2|41=25814c3a83594046|44=9.25|55=LFL|54=1|59=0|63=4|60=20150515-13:32:20.154|453=1|448=IB|447=D|452=1|10=009|
20150515-13:32:20.164: 8=FIX.4.4|9=0377|35=8|49=ADR_ARBITRAGE_IB_XNYS|56=LVBSG|34=261|52=20150515-13:32:20|50=XPUS|57=7369691|1=U1216799|207=SMART|6=9.18425|11=2dc2b0ccf4b94e4c|14=1600|17=0000e587.5555dd14.01.01|21=1|150=F|31=9.25|151=2700|32=100|100=SMART|38=4300|39=1|37=-49b3bf1d3938bc5b|583=5abaef0713b14d4a|40=2|41=25814c3a83594046|44=9.25|55=LFL|54=1|59=0|63=4|60=20150515-13:32:20.160|453=1|448=IB|447=D|452=1|10=193|
20150515-13:32:20.173: 8=FIX.4.4|9=0378|35=8|49=ADR_ARBITRAGE_IB_XNYS|56=LVBSG|34=262|52=20150515-13:32:20|50=XPUS|57=7369691|1=U1216799|207=SMART|6=9.188118|11=2dc2b0ccf4b94e4c|14=1700|17=0000e587.5555dd15.01.01|21=1|150=F|31=9.25|151=2600|32=100|100=SMART|38=4300|39=1|37=-49b3bf1d3938bc5b|583=5abaef0713b14d4a|40=2|41=25814c3a83594046|44=9.25|55=LFL|54=1|59=0|63=4|60=20150515-13:32:20.168|453=1|448=IB|447=D|452=1|10=003|
20150515-13:32:20.178: 8=FIX.4.4|9=0378|35=8|49=ADR_ARBITRAGE_IB_XNYS|56=LVBSG|34=263|52=20150515-13:32:20|50=XPUS|57=7369691|1=U1216799|207=SMART|6=9.191556|11=2dc2b0ccf4b94e4c|14=1800|17=0001390d.5555a874.01.01|21=1|150=F|31=9.25|151=2500|32=100|100=SMART|38=4300|39=1|37=-49b3bf1d3938bc5b|583=5abaef0713b14d4a|40=2|41=25814c3a83594046|44=9.25|55=LFL|54=1|59=0|63=4|60=20150515-13:32:20.174|453=1|448=IB|447=D|452=1|10=207|
20150515-13:32:20.183: 8=FIX.4.4|9=0378|35=8|49=ADR_ARBITRAGE_IB_XNYS|56=LVBSG|34=264|52=20150515-13:32:20|50=XPUS|57=7369691|1=U1216799|207=SMART|6=9.194632|11=2dc2b0ccf4b94e4c|14=1900|17=00010d1f.5555a78c.01.01|21=1|150=F|31=9.25|151=2400|32=100|100=SMART|38=4300|39=1|37=-49b3bf1d3938bc5b|583=5abaef0713b14d4a|40=2|41=25814c3a83594046|44=9.25|55=LFL|54=1|59=0|63=4|60=20150515-13:32:20.179|453=1|448=IB|447=D|452=1|10=045|
20150515-13:32:20.187: 8=FIX.4.4|9=0362|35=8|49=ADR_ARBITRAGE_IB_XNYS|56=LVBSG|34=265|52=20150515-13:32:20|50=XPUS|57=7369691|1=U1216799|207=SMART|6=9.25|11=-51553b94303cbff9|14=7600|17=81760.1431696739.1|21=1|150=4|31=0|151=0|32=0|100=SMART|38=9500|39=4|37=-6f001b1fa6fdb3f6|583=5abaef0713b14d4a|40=2|41=54c0e5a6694241bf|44=9.24|55=LFL|54=2|59=0|63=4|60=20150515-13:32:20.181|453=1|448=IB|447=D|452=1|10=067|
20150515-13:32:24.701: 8=FIX.4.4|9=0365|35=8|49=ADR_ARBITRAGE_IB_XNYS|56=LVBSG|34=266|52=20150515-13:32:24|50=XPUS|57=7369691|1=U1216799|207=SMART|6=9.194632|11=2dc2b0ccf4b94e4c|14=1900|17=81760.1431696744.1|21=1|150=4|31=0|151=0|32=0|100=SMART|38=4300|39=4|37=-49b3bf1d3938bc5b|583=5abaef0713b14d4a|40=2|41=25814c3a83594046|44=9.25|55=LFL|54=1|59=0|63=4|60=20150515-13:32:24.697|453=1|448=IB|447=D|452=1|10=245|
20150515-13:32:27.787: 8=FIX.4.4|9=281|35=G|34=154|49=LVBSG|50=7369691|52=20150515-13:32:27.787|56=ADR_ARBITRAGE_IB_XNYS|57=XPUS|1=U1216799|11=-5a22655d4761bb6e|21=1|38=1000|40=2|41=-7ea66c0ac288bbcd|44=7.97|54=2|55=CNCO|59=0|60=20150515-13:32:27.786|63=4|100=SMART|111=100|583=778c176b83c84eb2|453=1|448=IB|447=D|452=1|10=172|
20150515-13:32:27.797: 8=FIX.4.4|9=0362|35=8|49=ADR_ARBITRAGE_IB_XNYS|56=LVBSG|34=267|52=20150515-13:32:27|50=XPUS|57=7369691|1=U1216799|207=SMART|6=7.99|11=-5a22655d4761bb6e|14=700|17=34bfc254933d42dc|21=1|150=E|31=0|151=300|32=0|100=SMART|38=1000|39=E|37=-66f662f27f4b229|583=778c176b83c84eb2|40=2|41=-7ea66c0ac288bbcd|44=7.97|55=CNCO|54=2|59=0|63=4|60=20150515-13:32:27.792|453=1|448=IB|447=D|452=1|10=065|
20150515-13:32:27.980: 8=FIX.4.4|9=0364|35=8|49=ADR_ARBITRAGE_IB_XNYS|56=LVBSG|34=268|52=20150515-13:32:27|50=XPUS|57=7369691|1=U1216799|207=SMART|6=7.99|11=-5a22655d4761bb6e|14=700|17=81760.1431696747.1|21=1|150=5|31=0|151=300|32=0|100=SMART|38=1000|39=1|37=-66f662f27f4b229|583=778c176b83c84eb2|40=2|41=-7ea66c0ac288bbcd|44=7.98|55=CNCO|54=2|59=0|63=4|60=20150515-13:32:27.970|453=1|448=IB|447=D|452=1|10=101|
20150515-13:32:28.328: 8=FIX.4.4|9=0364|35=8|49=ADR_ARBITRAGE_IB_XNYS|56=LVBSG|34=269|52=20150515-13:32:28|50=XPUS|57=7369691|1=U1216799|207=SMART|6=7.99|11=-5a22655d4761bb6e|14=700|17=81760.1431696747.3|21=1|150=5|31=0|151=300|32=0|100=SMART|38=1000|39=1|37=-66f662f27f4b229|583=778c176b83c84eb2|40=2|41=-7ea66c0ac288bbcd|44=7.97|55=CNCO|54=2|59=0|63=4|60=20150515-13:32:28.323|453=1|448=IB|447=D|452=1|10=097|
20150515-13:32:57.220: 8=FIX.4.4|9=281|35=G|34=155|49=LVBSG|50=7369691|52=20150515-13:32:57.220|56=ADR_ARBITRAGE_IB_XNYS|57=XPUS|1=U1216799|11=-3273745025cdbc31|21=1|38=5000|40=2|41=-76baffe22877b8e4|44=18.03|54=2|55=ENI|59=0|60=20150515-13:32:57.220|63=4|100=SMART|111=100|583=71a0a9bcfa124180|453=1|448=IB|447=D|452=1|10=253|
20150515-13:32:57.280: 8=FIX.4.4|9=0369|35=8|49=ADR_ARBITRAGE_IB_XNYS|56=LVBSG|34=270|52=20150515-13:32:57|50=XPUS|57=7369691|1=U1216799|207=SMART|6=18.042563|11=-3273745025cdbc31|14=4900|17=-7a7ec06fcce7b5cd|21=1|150=E|31=0|151=100|32=0|100=SMART|38=5000|39=E|37=53e0bb545cae458b|583=71a0a9bcfa124180|40=2|41=-76baffe22877b8e4|44=18.03|55=ENI|54=2|59=0|63=4|60=20150515-13:32:57.226|453=1|448=IB|447=D|452=1|10=078|
20150515-13:32:57.808: 8=FIX.4.4|9=0370|35=8|49=ADR_ARBITRAGE_IB_XNYS|56=LVBSG|34=271|52=20150515-13:32:57|50=XPUS|57=7369691|1=U1216799|207=SMART|6=18.042563|11=-3273745025cdbc31|14=4900|17=81760.1431696777.1|21=1|150=5|31=0|151=100|32=0|100=SMART|38=5000|39=1|37=53e0bb545cae458b|583=71a0a9bcfa124180|40=2|41=-76baffe22877b8e4|44=18.03|55=ENI|54=2|59=0|63=4|60=20150515-13:32:57.802|453=1|448=IB|447=D|452=1|10=121|
20150515-13:33:00.392: 8=FIX.4.4|9=269|35=D|34=156|49=LVBSG|50=7369691|52=20150515-13:33:00.392|56=ADR_ARBITRAGE_IB_XNYS|57=XPUS|1=U1216799|11=-2e2706e0fc7cbb6a|21=1|38=1100|40=2|44=9.29|54=2|55=LFL|59=0|60=20150515-13:33:00.392|63=4|100=SMART|111=100|207=SMART|583=5abaef0713b14d4a|453=1|448=IB|447=D|452=1|10=233|
20150515-13:33:00.404: 8=FIX.4.4|9=0337|35=8|49=ADR_ARBITRAGE_IB_XNYS|56=LVBSG|34=272|52=20150515-13:33:00|50=XPUS|57=7369691|1=U1216799|207=SMART|6=0|11=-2e2706e0fc7cbb6a|14=0|17=2066c33571be4d37|21=1|150=A|31=0|151=1100|32=0|100=SMART|38=1100|39=A|37=-1fc4a299c179b354|583=5abaef0713b14d4a|40=2|44=9.29|55=LFL|54=2|59=0|63=4|60=20150515-13:33:00.399|453=1|448=IB|447=D|452=1|10=065|
20150515-13:33:00.624: 8=FIX.4.4|9=0339|35=8|49=ADR_ARBITRAGE_IB_XNYS|56=LVBSG|34=273|52=20150515-13:33:00|50=XPUS|57=7369691|1=U1216799|207=SMART|6=0|11=-2e2706e0fc7cbb6a|14=0|17=81760.1431696780.1|21=1|150=0|31=0|151=1100|32=0|100=SMART|38=1100|39=0|37=-1fc4a299c179b354|583=5abaef0713b14d4a|40=2|44=9.29|55=LFL|54=2|59=0|63=4|60=20150515-13:33:00.596|453=1|448=IB|447=D|452=1|10=196|
20150515-13:33:00.626: 8=FIX.4.4|9=279|35=G|34=157|49=LVBSG|50=7369691|52=20150515-13:33:00.626|56=ADR_ARBITRAGE_IB_XNYS|57=XPUS|1=U1216799|11=48fae92c0eed42ef|21=1|38=5000|40=2|41=-2e2706e0fc7cbb6a|44=9.29|54=2|55=LFL|59=0|60=20150515-13:33:00.626|63=4|100=SMART|111=100|583=5abaef0713b14d4a|453=1|448=IB|447=D|452=1|10=043|
20150515-13:33:00.637: 8=FIX.4.4|9=0358|35=8|49=ADR_ARBITRAGE_IB_XNYS|56=LVBSG|34=274|52=20150515-13:33:00|50=XPUS|57=7369691|1=U1216799|207=SMART|6=0|11=48fae92c0eed42ef|14=0|17=-41a09c6d6d6db662|21=1|150=E|31=0|151=1100|32=0|100=SMART|38=5000|39=E|37=-1fc4a299c179b354|583=5abaef0713b14d4a|40=2|41=-2e2706e0fc7cbb6a|44=9.29|55=LFL|54=2|59=0|63=4|60=20150515-13:33:00.633|453=1|448=IB|447=D|452=1|10=112|
20150515-13:33:00.823: 8=FIX.4.4|9=0374|35=8|49=ADR_ARBITRAGE_IB_XNYS|56=LVBSG|34=275|52=20150515-13:33:00|50=XPUS|57=7369691|1=U1216799|207=SMART|6=9.29|11=48fae92c0eed42ef|14=100|17=00010ff0.5555e6c1.01.01|21=1|150=F|31=9.29|151=1000|32=100|100=SMART|38=1100|39=1|37=-1fc4a299c179b354|583=5abaef0713b14d4a|40=2|41=-2e2706e0fc7cbb6a|44=9.29|55=LFL|54=2|59=0|63=4|60=20150515-13:33:00.813|453=1|448=IB|447=D|452=1|10=013|
20150515-13:33:01.185: 8=FIX.4.4|9=0364|35=8|49=ADR_ARBITRAGE_IB_XNYS|56=LVBSG|34=276|52=20150515-13:33:01|50=XPUS|57=7369691|1=U1216799|207=SMART|6=9.29|11=48fae92c0eed42ef|14=100|17=81760.1431696780.5|21=1|150=5|31=0|151=4900|32=0|100=SMART|38=5000|39=1|37=-1fc4a299c179b354|583=5abaef0713b14d4a|40=2|41=-2e2706e0fc7cbb6a|44=9.29|55=LFL|54=2|59=0|63=4|60=20150515-13:33:01.177|453=1|448=IB|447=D|452=1|10=117|
20150515-13:33:01.188: 8=FIX.4.4|9=279|35=G|34=158|49=LVBSG|50=7369691|52=20150515-13:33:01.188|56=ADR_ARBITRAGE_IB_XNYS|57=XPUS|1=U1216799|11=-4ed17fac8dccb925|21=1|38=5000|40=2|41=48fae92c0eed42ef|44=9.28|54=2|55=LFL|59=0|60=20150515-13:33:01.188|63=4|100=SMART|111=100|583=5abaef0713b14d4a|453=1|448=IB|447=D|452=1|10=109|
