20150504-11:21:09.199: 8=FIX.4.4|9=64|35=5|34=1|49=MKDATACL2|52=20150504-11:21:09.197|56=MKDATAFHBCS2|10=152|
20150504-11:21:12.171: 8=FIX.4.4|9=82|35=A|34=1|49=MKDATACL2|52=20150504-11:21:12.169|56=MKDATAFHBCS2|98=0|108=60|141=Y|10=230|
20150504-11:21:12.178: 8=FIX.4.4|9=64|35=5|34=1|49=MKDATAFHBCS2|52=20150504-11:21:12.378|56=MKDATACL2|10=147|
20150504-11:21:15.147: 8=FIX.4.4|9=82|35=A|34=1|49=MKDATACL2|52=20150504-11:21:15.146|56=MKDATAFHBCS2|98=0|108=60|141=Y|10=228|
20150504-11:21:15.154: 8=FIX.4.4|9=82|35=A|34=1|49=MKDATAFHBCS2|52=20150504-11:21:15.342|56=MKDATACL2|98=0|108=60|141=Y|10=226|
20150504-11:22:16.075: 8=FIX.4.4|9=64|35=0|34=2|49=MKDATAFHBCS2|52=20150504-11:22:16.266|56=MKDATACL2|10=144|
20150504-11:22:16.079: 8=FIX.4.4|9=64|35=0|34=2|49=MKDATACL2|52=20150504-11:22:16.078|56=MKDATAFHBCS2|10=145|
20150504-11:23:16.072: 8=FIX.4.4|9=64|35=0|34=3|49=MKDATAFHBCS2|52=20150504-11:23:16.270|56=MKDATACL2|10=141|
20150504-11:23:17.285: 8=FIX.4.4|9=64|35=0|34=3|49=MKDATACL2|52=20150504-11:23:17.284|56=MKDATAFHBCS2|10=147|
20150504-11:24:16.085: 8=FIX.4.4|9=64|35=0|34=4|49=MKDATAFHBCS2|52=20150504-11:24:16.286|56=MKDATACL2|10=150|
20150504-11:24:18.364: 8=FIX.4.4|9=64|35=0|34=4|49=MKDATACL2|52=20150504-11:24:18.363|56=MKDATAFHBCS2|10=148|
20150504-11:25:17.083: 8=FIX.4.4|9=64|35=0|34=5|49=MKDATAFHBCS2|52=20150504-11:25:17.283|56=MKDATACL2|10=150|
20150504-11:25:19.440: 8=FIX.4.4|9=64|35=0|34=5|49=MKDATACL2|52=20150504-11:25:19.439|56=MKDATAFHBCS2|10=155|
20150504-11:26:18.077: 8=FIX.4.4|9=64|35=0|34=6|49=MKDATAFHBCS2|52=20150504-11:26:18.279|56=MKDATACL2|10=158|
20150504-11:26:20.505: 8=FIX.4.4|9=64|35=0|34=6|49=MKDATACL2|52=20150504-11:26:20.504|56=MKDATAFHBCS2|10=142|
20150504-11:27:19.073: 8=FIX.4.4|9=64|35=0|34=7|49=MKDATAFHBCS2|52=20150504-11:27:19.265|56=MKDATACL2|10=156|
20150504-11:27:21.580: 8=FIX.4.4|9=64|35=0|34=7|49=MKDATACL2|52=20150504-11:27:21.579|56=MKDATAFHBCS2|10=157|
20150504-11:28:19.070: 8=FIX.4.4|9=64|35=0|34=8|49=MKDATAFHBCS2|52=20150504-11:28:19.268|56=MKDATACL2|10=161|
20150504-11:28:22.657: 8=FIX.4.4|9=64|35=0|34=8|49=MKDATACL2|52=20150504-11:28:22.656|56=MKDATAFHBCS2|10=156|
20150504-11:29:19.083: 8=FIX.4.4|9=64|35=0|34=9|49=MKDATAFHBCS2|52=20150504-11:29:19.280|56=MKDATACL2|10=157|
20150504-11:29:23.735: 8=FIX.4.4|9=64|35=0|34=9|49=MKDATACL2|52=20150504-11:29:23.734|56=MKDATAFHBCS2|10=156|
20150504-11:30:19.081: 8=FIX.4.4|9=65|35=0|34=10|49=MKDATAFHBCS2|52=20150504-11:30:19.281|56=MKDATACL2|10=191|
20150504-11:30:24.811: 8=FIX.4.4|9=65|35=0|34=10|49=MKDATACL2|52=20150504-11:30:24.810|56=MKDATAFHBCS2|10=185|
20150504-11:31:20.076: 8=FIX.4.4|9=65|35=0|34=11|49=MKDATAFHBCS2|52=20150504-11:31:20.277|56=MKDATACL2|10=190|
20150504-11:31:25.879: 8=FIX.4.4|9=65|35=0|34=11|49=MKDATACL2|52=20150504-11:31:25.878|56=MKDATAFHBCS2|10=202|
20150504-11:32:20.087: 8=FIX.4.4|9=65|35=0|34=12|49=MKDATAFHBCS2|52=20150504-11:32:20.279|56=MKDATACL2|10=194|
20150504-11:32:26.960: 8=FIX.4.4|9=65|35=0|34=12|49=MKDATACL2|52=20150504-11:32:26.959|56=MKDATAFHBCS2|10=205|
20150504-11:33:20.072: 8=FIX.4.4|9=65|35=0|34=13|49=MKDATAFHBCS2|52=20150504-11:33:20.279|56=MKDATACL2|10=196|
20150504-11:33:28.026: 8=FIX.4.4|9=65|35=0|34=13|49=MKDATACL2|52=20150504-11:33:28.025|56=MKDATAFHBCS2|10=193|
20150504-11:34:21.083: 8=FIX.4.4|9=65|35=0|34=14|49=MKDATAFHBCS2|52=20150504-11:34:21.287|56=MKDATACL2|10=198|
20150504-11:34:29.098: 8=FIX.4.4|9=65|35=0|34=14|49=MKDATACL2|52=20150504-11:34:29.097|56=MKDATAFHBCS2|10=205|
20150504-11:35:22.078: 8=FIX.4.4|9=65|35=0|34=15|49=MKDATAFHBCS2|52=20150504-11:35:22.283|56=MKDATACL2|10=197|
20150504-11:35:30.173: 8=FIX.4.4|9=65|35=0|34=15|49=MKDATACL2|52=20150504-11:35:30.173|56=MKDATAFHBCS2|10=194|
20150504-11:36:23.074: 8=FIX.4.4|9=65|35=0|34=16|49=MKDATAFHBCS2|52=20150504-11:36:23.278|56=MKDATACL2|10=204|
20150504-11:36:31.250: 8=FIX.4.4|9=65|35=0|34=16|49=MKDATACL2|52=20150504-11:36:31.249|56=MKDATAFHBCS2|10=201|
20150504-11:37:24.069: 8=FIX.4.4|9=65|35=0|34=17|49=MKDATAFHBCS2|52=20150504-11:37:24.274|56=MKDATACL2|10=203|
20150504-11:37:32.325: 8=FIX.4.4|9=65|35=0|34=17|49=MKDATACL2|52=20150504-11:37:32.324|56=MKDATAFHBCS2|10=198|
20150504-11:38:25.076: 8=FIX.4.4|9=65|35=0|34=18|49=MKDATAFHBCS2|52=20150504-11:38:25.270|56=MKDATACL2|10=202|
20150504-11:38:33.401: 8=FIX.4.4|9=65|35=0|34=18|49=MKDATACL2|52=20150504-11:38:33.400|56=MKDATAFHBCS2|10=196|
20150504-11:39:26.077: 8=FIX.4.4|9=65|35=0|34=19|49=MKDATAFHBCS2|52=20150504-11:39:26.279|56=MKDATACL2|10=214|
20150504-11:39:34.471: 8=FIX.4.4|9=65|35=0|34=19|49=MKDATACL2|52=20150504-11:39:34.470|56=MKDATAFHBCS2|10=206|
20150504-11:40:27.073: 8=FIX.4.4|9=65|35=0|34=20|49=MKDATAFHBCS2|52=20150504-11:40:27.276|56=MKDATACL2|10=196|
20150504-11:40:35.547: 8=FIX.4.4|9=65|35=0|34=20|49=MKDATACL2|52=20150504-11:40:35.546|56=MKDATAFHBCS2|10=195|
20150504-11:41:28.072: 8=FIX.4.4|9=65|35=0|34=21|49=MKDATAFHBCS2|52=20150504-11:41:28.274|56=MKDATACL2|10=197|
20150504-11:41:36.624: 8=FIX.4.4|9=65|35=0|34=21|49=MKDATACL2|52=20150504-11:41:36.623|56=MKDATAFHBCS2|10=194|
20150504-11:42:29.079: 8=FIX.4.4|9=65|35=0|34=22|49=MKDATAFHBCS2|52=20150504-11:42:29.286|56=MKDATACL2|10=203|
20150504-11:42:36.957: 8=FIX.4.4|9=65|35=0|34=22|49=MKDATACL2|52=20150504-11:42:36.957|56=MKDATAFHBCS2|10=206|
20150504-11:43:30.075: 8=FIX.4.4|9=65|35=0|34=23|49=MKDATAFHBCS2|52=20150504-11:43:30.280|56=MKDATACL2|10=191|
20150504-11:43:37.958: 8=FIX.4.4|9=65|35=0|34=23|49=MKDATACL2|52=20150504-11:43:37.957|56=MKDATAFHBCS2|10=209|
20150504-11:44:31.071: 8=FIX.4.4|9=65|35=0|34=24|49=MKDATAFHBCS2|52=20150504-11:44:31.273|56=MKDATACL2|10=196|
20150504-11:44:38.958: 8=FIX.4.4|9=65|35=0|34=24|49=MKDATACL2|52=20150504-11:44:38.957|56=MKDATAFHBCS2|10=212|
20150504-11:45:32.066: 8=FIX.4.4|9=65|35=0|34=25|49=MKDATAFHBCS2|52=20150504-11:45:32.271|56=MKDATACL2|10=197|
20150504-11:45:38.958: 8=FIX.4.4|9=65|35=0|34=25|49=MKDATACL2|52=20150504-11:45:38.958|56=MKDATAFHBCS2|10=215|
20150504-11:46:33.078: 8=FIX.4.4|9=65|35=0|34=26|49=MKDATAFHBCS2|52=20150504-11:46:33.127|56=MKDATACL2|10=200|
20150504-11:46:39.284: 8=FIX.4.4|9=65|35=0|34=26|49=MKDATACL2|52=20150504-11:46:39.283|56=MKDATAFHBCS2|10=209|
20150504-11:47:33.076: 8=FIX.4.4|9=65|35=0|34=27|49=MKDATAFHBCS2|52=20150504-11:47:33.187|56=MKDATACL2|10=208|
20150504-11:47:40.349: 8=FIX.4.4|9=65|35=0|34=27|49=MKDATACL2|52=20150504-11:47:40.348|56=MKDATAFHBCS2|10=205|
20150504-11:48:33.073: 8=FIX.4.4|9=65|35=0|34=28|49=MKDATAFHBCS2|52=20150504-11:48:33.231|56=MKDATACL2|10=200|
20150504-11:48:41.419: 8=FIX.4.4|9=65|35=0|34=28|49=MKDATACL2|52=20150504-11:48:41.418|56=MKDATAFHBCS2|10=206|
20150504-11:49:33.072: 8=FIX.4.4|9=65|35=0|34=29|49=MKDATAFHBCS2|52=20150504-11:49:33.253|56=MKDATACL2|10=206|
20150504-11:49:42.489: 8=FIX.4.4|9=65|35=0|34=29|49=MKDATACL2|52=20150504-11:49:42.488|56=MKDATAFHBCS2|10=216|
20150504-11:50:33.068: 8=FIX.4.4|9=65|35=0|34=30|49=MKDATAFHBCS2|52=20150504-11:50:33.262|56=MKDATACL2|10=190|
20150504-11:50:43.564: 8=FIX.4.4|9=65|35=0|34=30|49=MKDATACL2|52=20150504-11:50:43.563|56=MKDATAFHBCS2|10=195|
20150504-11:51:34.067: 8=FIX.4.4|9=65|35=0|34=31|49=MKDATAFHBCS2|52=20150504-11:51:34.115|56=MKDATACL2|10=190|
20150504-11:51:44.633: 8=FIX.4.4|9=65|35=0|34=31|49=MKDATACL2|52=20150504-11:51:44.633|56=MKDATAFHBCS2|10=196|
20150504-11:52:34.079: 8=FIX.4.4|9=65|35=0|34=32|49=MKDATAFHBCS2|52=20150504-11:52:34.190|56=MKDATACL2|10=195|
20150504-11:52:45.714: 8=FIX.4.4|9=65|35=0|34=32|49=MKDATACL2|52=20150504-11:52:45.713|56=MKDATAFHBCS2|10=198|
20150504-11:53:34.074: 8=FIX.4.4|9=65|35=0|34=33|49=MKDATAFHBCS2|52=20150504-11:53:34.230|56=MKDATACL2|10=192|
20150504-11:53:46.794: 8=FIX.4.4|9=65|35=0|34=33|49=MKDATACL2|52=20150504-11:53:46.793|56=MKDATAFHBCS2|10=209|
20150504-11:54:34.071: 8=FIX.4.4|9=65|35=0|34=34|49=MKDATAFHBCS2|52=20150504-11:54:34.249|56=MKDATACL2|10=204|
20150504-11:54:47.864: 8=FIX.4.4|9=65|35=0|34=34|49=MKDATACL2|52=20150504-11:54:47.863|56=MKDATAFHBCS2|10=210|
20150504-11:55:34.069: 8=FIX.4.4|9=65|35=0|34=35|49=MKDATAFHBCS2|52=20150504-11:55:34.260|56=MKDATACL2|10=199|
20150504-11:55:48.944: 8=FIX.4.4|9=65|35=0|34=35|49=MKDATACL2|52=20150504-11:55:48.944|56=MKDATAFHBCS2|10=213|
20150504-11:56:35.066: 8=FIX.4.4|9=65|35=0|34=36|49=MKDATAFHBCS2|52=20150504-11:56:35.117|56=MKDATACL2|10=203|
20150504-11:56:50.021: 8=FIX.4.4|9=65|35=0|34=36|49=MKDATACL2|52=20150504-11:56:50.020|56=MKDATAFHBCS2|10=193|
20150504-11:57:35.072: 8=FIX.4.4|9=65|35=0|34=37|49=MKDATAFHBCS2|52=20150504-11:57:35.182|56=MKDATACL2|10=207|
20150504-11:57:51.104: 8=FIX.4.4|9=65|35=0|34=37|49=MKDATACL2|52=20150504-11:57:51.103|56=MKDATAFHBCS2|10=198|
20150504-11:58:35.068: 8=FIX.4.4|9=65|35=0|34=38|49=MKDATAFHBCS2|52=20150504-11:58:35.223|56=MKDATACL2|10=205|
20150504-11:58:52.172: 8=FIX.4.4|9=65|35=0|34=38|49=MKDATACL2|52=20150504-11:58:52.171|56=MKDATAFHBCS2|10=206|
20150504-11:59:35.077: 8=FIX.4.4|9=65|35=0|34=39|49=MKDATAFHBCS2|52=20150504-11:59:35.257|56=MKDATACL2|10=214|
20150504-11:59:53.249: 8=FIX.4.4|9=65|35=0|34=39|49=MKDATACL2|52=20150504-11:59:53.248|56=MKDATAFHBCS2|10=214|
20150504-12:00:35.073: 8=FIX.4.4|9=65|35=0|34=40|49=MKDATAFHBCS2|52=20150504-12:00:35.264|56=MKDATACL2|10=191|
20150504-12:00:54.327: 8=FIX.4.4|9=65|35=0|34=40|49=MKDATACL2|52=20150504-12:00:54.326|56=MKDATAFHBCS2|10=191|
20150504-12:01:36.065: 8=FIX.4.4|9=65|35=0|34=41|49=MKDATAFHBCS2|52=20150504-12:01:36.119|56=MKDATACL2|10=193|
20150504-12:01:55.400: 8=FIX.4.4|9=65|35=0|34=41|49=MKDATACL2|52=20150504-12:01:55.400|56=MKDATAFHBCS2|10=187|
20150504-12:02:36.062: 8=FIX.4.4|9=65|35=0|34=42|49=MKDATAFHBCS2|52=20150504-12:02:36.186|56=MKDATACL2|10=199|
20150504-12:02:56.464: 8=FIX.4.4|9=65|35=0|34=42|49=MKDATACL2|52=20150504-12:02:56.463|56=MKDATAFHBCS2|10=199|
20150504-12:03:37.058: 8=FIX.4.4|9=65|35=0|34=43|49=MKDATAFHBCS2|52=20150504-12:03:37.043|56=MKDATACL2|10=194|
20150504-12:03:57.537: 8=FIX.4.4|9=65|35=0|34=43|49=MKDATACL2|52=20150504-12:03:57.537|56=MKDATAFHBCS2|10=204|
20150504-12:04:37.073: 8=FIX.4.4|9=65|35=0|34=44|49=MKDATAFHBCS2|52=20150504-12:04:37.161|56=MKDATACL2|10=197|
20150504-12:04:58.613: 8=FIX.4.4|9=65|35=0|34=44|49=MKDATACL2|52=20150504-12:04:58.613|56=MKDATAFHBCS2|10=202|
20150504-12:05:37.069: 8=FIX.4.4|9=65|35=0|34=45|49=MKDATAFHBCS2|52=20150504-12:05:37.215|56=MKDATACL2|10=199|
20150504-12:05:59.661: 8=FIX.4.4|9=65|35=0|34=45|49=MKDATACL2|52=20150504-12:05:59.660|56=MKDATAFHBCS2|10=207|
20150504-12:06:37.066: 8=FIX.4.4|9=65|35=0|34=46|49=MKDATAFHBCS2|52=20150504-12:06:37.239|56=MKDATACL2|10=207|
20150504-12:07:00.739: 8=FIX.4.4|9=65|35=0|34=46|49=MKDATACL2|52=20150504-12:07:00.739|56=MKDATAFHBCS2|10=203|
20150504-12:07:37.073: 8=FIX.4.4|9=65|35=0|34=47|49=MKDATAFHBCS2|52=20150504-12:07:37.252|56=MKDATACL2|10=204|
20150504-12:08:01.804: 8=FIX.4.4|9=65|35=0|34=47|49=MKDATACL2|52=20150504-12:08:01.804|56=MKDATAFHBCS2|10=199|
20150504-12:08:38.059: 8=FIX.4.4|9=65|35=0|34=48|49=MKDATAFHBCS2|52=20150504-12:08:38.110|56=MKDATACL2|10=200|
20150504-12:09:02.854: 8=FIX.4.4|9=65|35=0|34=48|49=MKDATACL2|52=20150504-12:09:02.853|56=MKDATAFHBCS2|10=206|
20150504-12:09:38.057: 8=FIX.4.4|9=65|35=0|34=49|49=MKDATAFHBCS2|52=20150504-12:09:38.183|56=MKDATACL2|10=212|
20150504-12:10:03.917: 8=FIX.4.4|9=65|35=0|34=49|49=MKDATACL2|52=20150504-12:10:03.916|56=MKDATAFHBCS2|10=200|
20150504-12:10:38.070: 8=FIX.4.4|9=65|35=0|34=50|49=MKDATAFHBCS2|52=20150504-12:10:38.235|56=MKDATACL2|10=194|
20150504-12:11:04.973: 8=FIX.4.4|9=65|35=0|34=50|49=MKDATACL2|52=20150504-12:11:04.972|56=MKDATAFHBCS2|10=196|
20150504-12:11:38.068: 8=FIX.4.4|9=65|35=0|34=51|49=MKDATAFHBCS2|52=20150504-12:11:38.254|56=MKDATACL2|10=197|
20150504-12:12:06.070: 8=FIX.4.4|9=65|35=0|34=51|49=MKDATACL2|52=20150504-12:12:06.070|56=MKDATAFHBCS2|10=189|
20150504-12:12:38.064: 8=FIX.4.4|9=65|35=0|34=52|49=MKDATAFHBCS2|52=20150504-12:12:38.260|56=MKDATACL2|10=196|
20150504-12:13:07.147: 8=FIX.4.4|9=65|35=0|34=52|49=MKDATACL2|52=20150504-12:13:07.147|56=MKDATAFHBCS2|10=197|
20150504-12:13:39.073: 8=FIX.4.4|9=65|35=0|34=53|49=MKDATAFHBCS2|52=20150504-12:13:39.119|56=MKDATACL2|10=202|
20150504-12:14:08.190: 8=FIX.4.4|9=65|35=0|34=53|49=MKDATACL2|52=20150504-12:14:08.189|56=MKDATAFHBCS2|10=206|
20150504-12:14:39.058: 8=FIX.4.4|9=65|35=0|34=54|49=MKDATAFHBCS2|52=20150504-12:14:39.186|56=MKDATACL2|10=208|
20150504-12:15:09.252: 8=FIX.4.4|9=65|35=0|34=54|49=MKDATACL2|52=20150504-12:15:09.252|56=MKDATAFHBCS2|10=200|
20150504-12:15:39.055: 8=FIX.4.4|9=65|35=0|34=55|49=MKDATAFHBCS2|52=20150504-12:15:39.221|56=MKDATACL2|10=200|
20150504-12:16:10.318: 8=FIX.4.4|9=65|35=0|34=55|49=MKDATACL2|52=20150504-12:16:10.317|56=MKDATAFHBCS2|10=196|
20150504-12:16:39.070: 8=FIX.4.4|9=65|35=0|34=56|49=MKDATAFHBCS2|52=20150504-12:16:39.254|56=MKDATACL2|10=208|
20150504-12:17:11.384: 8=FIX.4.4|9=65|35=0|34=56|49=MKDATACL2|52=20150504-12:17:11.384|56=MKDATAFHBCS2|10=203|
20150504-12:17:39.067: 8=FIX.4.4|9=65|35=0|34=57|49=MKDATAFHBCS2|52=20150504-12:17:39.261|56=MKDATACL2|10=208|
20150504-12:18:12.421: 8=FIX.4.4|9=65|35=0|34=57|49=MKDATACL2|52=20150504-12:18:12.421|56=MKDATAFHBCS2|10=198|
20150504-12:18:40.062: 8=FIX.4.4|9=65|35=0|34=58|49=MKDATAFHBCS2|52=20150504-12:18:40.122|56=MKDATACL2|10=198|
20150504-12:19:13.489: 8=FIX.4.4|9=65|35=0|34=58|49=MKDATACL2|52=20150504-12:19:13.489|56=MKDATAFHBCS2|10=215|
20150504-12:19:40.060: 8=FIX.4.4|9=65|35=0|34=59|49=MKDATAFHBCS2|52=20150504-12:19:40.191|56=MKDATACL2|10=206|
20150504-12:20:14.552: 8=FIX.4.4|9=65|35=0|34=59|49=MKDATACL2|52=20150504-12:20:14.551|56=MKDATAFHBCS2|10=199|
20150504-12:20:41.054: 8=FIX.4.4|9=65|35=0|34=60|49=MKDATAFHBCS2|52=20150504-12:20:41.056|56=MKDATACL2|10=191|
20150504-12:21:15.606: 8=FIX.4.4|9=65|35=0|34=60|49=MKDATACL2|52=20150504-12:21:15.606|56=MKDATAFHBCS2|10=194|
20150504-12:21:41.067: 8=FIX.4.4|9=65|35=0|34=61|49=MKDATAFHBCS2|52=20150504-12:21:41.170|56=MKDATACL2|10=190|
20150504-12:22:16.677: 8=FIX.4.4|9=65|35=0|34=61|49=MKDATACL2|52=20150504-12:22:16.677|56=MKDATAFHBCS2|10=205|
20150504-12:22:41.065: 8=FIX.4.4|9=65|35=0|34=62|49=MKDATAFHBCS2|52=20150504-12:22:41.218|56=MKDATACL2|10=195|
20150504-12:23:17.732: 8=FIX.4.4|9=65|35=0|34=62|49=MKDATACL2|52=20150504-12:23:17.731|56=MKDATAFHBCS2|10=199|
20150504-12:23:41.061: 8=FIX.4.4|9=65|35=0|34=63|49=MKDATAFHBCS2|52=20150504-12:23:41.242|56=MKDATACL2|10=194|
20150504-12:24:18.776: 8=FIX.4.4|9=65|35=0|34=63|49=MKDATACL2|52=20150504-12:24:18.775|56=MKDATAFHBCS2|10=210|
20150504-12:24:41.059: 8=FIX.4.4|9=65|35=0|34=64|49=MKDATAFHBCS2|52=20150504-12:24:41.253|56=MKDATACL2|10=198|
20150504-12:25:19.842: 8=FIX.4.4|9=65|35=0|34=64|49=MKDATACL2|52=20150504-12:25:19.841|56=MKDATAFHBCS2|10=207|
20150504-12:25:42.056: 8=FIX.4.4|9=65|35=0|34=65|49=MKDATAFHBCS2|52=20150504-12:25:42.123|56=MKDATACL2|10=197|
20150504-12:26:20.904: 8=FIX.4.4|9=65|35=0|34=65|49=MKDATACL2|52=20150504-12:26:20.904|56=MKDATAFHBCS2|10=201|
20150504-12:26:42.052: 8=FIX.4.4|9=65|35=0|34=66|49=MKDATAFHBCS2|52=20150504-12:26:42.190|56=MKDATACL2|10=203|
20150504-12:27:21.947: 8=FIX.4.4|9=65|35=0|34=66|49=MKDATACL2|52=20150504-12:27:21.947|56=MKDATAFHBCS2|10=211|
20150504-12:27:42.051: 8=FIX.4.4|9=65|35=0|34=67|49=MKDATAFHBCS2|52=20150504-12:27:42.221|56=MKDATACL2|10=200|
20150504-12:28:22.996: 8=FIX.4.4|9=65|35=0|34=67|49=MKDATACL2|52=20150504-12:28:22.996|56=MKDATAFHBCS2|10=218|
20150504-12:28:42.062: 8=FIX.4.4|9=65|35=0|34=68|49=MKDATAFHBCS2|52=20150504-12:28:42.252|56=MKDATACL2|10=206|
20150504-12:29:24.055: 8=FIX.4.4|9=65|35=0|34=68|49=MKDATACL2|52=20150504-12:29:24.055|56=MKDATAFHBCS2|10=208|
20150504-12:29:42.061: 8=FIX.4.4|9=65|35=0|34=69|49=MKDATAFHBCS2|52=20150504-12:29:42.258|56=MKDATACL2|10=214|
20150504-12:30:24.954: 8=FIX.4.4|9=65|35=0|34=69|49=MKDATACL2|52=20150504-12:30:24.953|56=MKDATAFHBCS2|10=208|
20150504-12:30:43.074: 8=FIX.4.4|9=65|35=0|34=70|49=MKDATAFHBCS2|52=20150504-12:30:43.131|56=MKDATACL2|10=189|
20150504-12:31:24.955: 8=FIX.4.4|9=65|35=0|34=70|49=MKDATACL2|52=20150504-12:31:24.954|56=MKDATAFHBCS2|10=202|
20150504-12:31:43.071: 8=FIX.4.4|9=65|35=0|34=71|49=MKDATAFHBCS2|52=20150504-12:31:43.193|56=MKDATACL2|10=199|
20150504-12:32:24.954: 8=FIX.4.4|9=65|35=0|34=71|49=MKDATACL2|52=20150504-12:32:24.954|56=MKDATAFHBCS2|10=204|
20150504-12:32:43.059: 8=FIX.4.4|9=65|35=0|34=72|49=MKDATAFHBCS2|52=20150504-12:32:43.224|56=MKDATACL2|10=196|
20150504-12:33:25.954: 8=FIX.4.4|9=65|35=0|34=72|49=MKDATACL2|52=20150504-12:33:25.954|56=MKDATAFHBCS2|10=207|
20150504-12:33:43.071: 8=FIX.4.4|9=65|35=0|34=73|49=MKDATAFHBCS2|52=20150504-12:33:43.253|56=MKDATACL2|10=200|
20150504-12:34:26.954: 8=FIX.4.4|9=65|35=0|34=73|49=MKDATACL2|52=20150504-12:34:26.953|56=MKDATAFHBCS2|10=209|
20150504-12:34:43.066: 8=FIX.4.4|9=65|35=0|34=74|49=MKDATAFHBCS2|52=20150504-12:34:43.257|56=MKDATACL2|10=206|
20150504-12:35:26.954: 8=FIX.4.4|9=65|35=0|34=74|49=MKDATACL2|52=20150504-12:35:26.954|56=MKDATAFHBCS2|10=212|
20150504-12:35:44.057: 8=FIX.4.4|9=65|35=0|34=75|49=MKDATAFHBCS2|52=20150504-12:35:44.132|56=MKDATACL2|10=201|
20150504-12:36:26.955: 8=FIX.4.4|9=65|35=0|34=75|49=MKDATACL2|52=20150504-12:36:26.954|56=MKDATAFHBCS2|10=214|
20150504-12:36:44.054: 8=FIX.4.4|9=65|35=0|34=76|49=MKDATAFHBCS2|52=20150504-12:36:44.194|56=MKDATACL2|10=211|
20150504-12:37:26.954: 8=FIX.4.4|9=65|35=0|34=76|49=MKDATACL2|52=20150504-12:37:26.954|56=MKDATAFHBCS2|10=216|
20150504-12:37:45.055: 8=FIX.4.4|9=65|35=0|34=77|49=MKDATAFHBCS2|52=20150504-12:37:45.075|56=MKDATACL2|10=212|
20150504-12:38:27.955: 8=FIX.4.4|9=65|35=0|34=77|49=MKDATACL2|52=20150504-12:38:27.954|56=MKDATAFHBCS2|10=219|
20150504-12:38:45.061: 8=FIX.4.4|9=65|35=0|34=78|49=MKDATAFHBCS2|52=20150504-12:38:45.162|56=MKDATACL2|10=211|
20150504-12:39:27.955: 8=FIX.4.4|9=65|35=0|34=78|49=MKDATACL2|52=20150504-12:39:27.954|56=MKDATAFHBCS2|10=221|
20150504-12:39:45.081: 8=FIX.4.4|9=65|35=0|34=79|49=MKDATAFHBCS2|52=20150504-12:39:45.220|56=MKDATACL2|10=208|
20150504-12:40:27.955: 8=FIX.4.4|9=65|35=0|34=79|49=MKDATACL2|52=20150504-12:40:27.954|56=MKDATAFHBCS2|10=214|
20150504-12:40:45.065: 8=FIX.4.4|9=65|35=0|34=80|49=MKDATAFHBCS2|52=20150504-12:40:45.239|56=MKDATACL2|10=202|
20150504-12:41:27.955: 8=FIX.4.4|9=65|35=0|34=80|49=MKDATACL2|52=20150504-12:41:27.954|56=MKDATAFHBCS2|10=207|
20150504-12:41:45.057: 8=FIX.4.4|9=65|35=0|34=81|49=MKDATAFHBCS2|52=20150504-12:41:45.248|56=MKDATACL2|10=204|
20150504-12:42:28.954: 8=FIX.4.4|9=65|35=0|34=81|49=MKDATACL2|52=20150504-12:42:28.954|56=MKDATAFHBCS2|10=210|
20150504-12:42:46.057: 8=FIX.4.4|9=65|35=0|34=82|49=MKDATAFHBCS2|52=20150504-12:42:46.131|56=MKDATACL2|10=198|
20150504-12:43:28.954: 8=FIX.4.4|9=65|35=0|34=82|49=MKDATACL2|52=20150504-12:43:28.954|56=MKDATAFHBCS2|10=212|
20150504-12:43:46.055: 8=FIX.4.4|9=65|35=0|34=83|49=MKDATAFHBCS2|52=20150504-12:43:46.190|56=MKDATACL2|10=205|
20150504-12:44:29.954: 8=FIX.4.4|9=65|35=0|34=83|49=MKDATACL2|52=20150504-12:44:29.953|56=MKDATAFHBCS2|10=214|
20150504-12:44:46.048: 8=FIX.4.4|9=65|35=0|34=84|49=MKDATAFHBCS2|52=20150504-12:44:46.220|56=MKDATACL2|10=201|
20150504-12:45:29.954: 8=FIX.4.4|9=65|35=0|34=84|49=MKDATACL2|52=20150504-12:45:29.953|56=MKDATAFHBCS2|10=216|
20150504-12:45:46.059: 8=FIX.4.4|9=65|35=0|34=85|49=MKDATAFHBCS2|52=20150504-12:45:46.252|56=MKDATACL2|10=208|
20150504-12:46:29.955: 8=FIX.4.4|9=65|35=0|34=85|49=MKDATACL2|52=20150504-12:46:29.954|56=MKDATAFHBCS2|10=219|
20150504-12:46:46.059: 8=FIX.4.4|9=65|35=0|34=86|49=MKDATAFHBCS2|52=20150504-12:46:46.259|56=MKDATACL2|10=217|
20150504-12:47:30.954: 8=FIX.4.4|9=65|35=0|34=86|49=MKDATACL2|52=20150504-12:47:30.954|56=MKDATAFHBCS2|10=213|
20150504-12:47:47.054: 8=FIX.4.4|9=65|35=0|34=87|49=MKDATAFHBCS2|52=20150504-12:47:47.144|56=MKDATACL2|10=213|
20150504-12:48:31.954: 8=FIX.4.4|9=65|35=0|34=87|49=MKDATACL2|52=20150504-12:48:31.954|56=MKDATAFHBCS2|10=216|
20150504-12:48:47.053: 8=FIX.4.4|9=65|35=0|34=88|49=MKDATAFHBCS2|52=20150504-12:48:47.197|56=MKDATACL2|10=223|
20150504-12:49:32.954: 8=FIX.4.4|9=65|35=0|34=88|49=MKDATACL2|52=20150504-12:49:32.953|56=MKDATAFHBCS2|10=218|
20150504-12:49:47.047: 8=FIX.4.4|9=65|35=0|34=89|49=MKDATAFHBCS2|52=20150504-12:49:47.223|56=MKDATACL2|10=215|
20150504-12:50:32.954: 8=FIX.4.4|9=65|35=0|34=89|49=MKDATACL2|52=20150504-12:50:32.954|56=MKDATAFHBCS2|10=212|
20150504-12:50:47.050: 8=FIX.4.4|9=65|35=0|34=90|49=MKDATAFHBCS2|52=20150504-12:50:47.235|56=MKDATACL2|10=202|
20150504-12:51:33.954: 8=FIX.4.4|9=65|35=0|34=90|49=MKDATACL2|52=20150504-12:51:33.954|56=MKDATAFHBCS2|10=206|
20150504-12:51:47.057: 8=FIX.4.4|9=65|35=0|34=91|49=MKDATAFHBCS2|52=20150504-12:51:47.255|56=MKDATACL2|10=206|
20150504-12:52:34.954: 8=FIX.4.4|9=65|35=0|34=91|49=MKDATACL2|52=20150504-12:52:34.953|56=MKDATAFHBCS2|10=208|
20150504-12:52:48.055: 8=FIX.4.4|9=65|35=0|34=92|49=MKDATAFHBCS2|52=20150504-12:52:48.142|56=MKDATACL2|10=204|
20150504-12:53:34.954: 8=FIX.4.4|9=65|35=0|34=92|49=MKDATACL2|52=20150504-12:53:34.954|56=MKDATAFHBCS2|10=211|
20150504-12:53:48.050: 8=FIX.4.4|9=65|35=0|34=93|49=MKDATAFHBCS2|52=20150504-12:53:48.167|56=MKDATACL2|10=213|
20150504-12:54:35.955: 8=FIX.4.4|9=65|35=0|34=93|49=MKDATACL2|52=20150504-12:54:35.954|56=MKDATAFHBCS2|10=214|
20150504-12:54:49.050: 8=FIX.4.4|9=65|35=0|34=94|49=MKDATAFHBCS2|52=20150504-12:54:49.040|56=MKDATACL2|10=206|
20150504-12:55:35.954: 8=FIX.4.4|9=65|35=0|34=94|49=MKDATACL2|52=20150504-12:55:35.954|56=MKDATAFHBCS2|10=216|
20150504-12:55:49.044: 8=FIX.4.4|9=65|35=0|34=95|49=MKDATAFHBCS2|52=20150504-12:55:49.140|56=MKDATACL2|10=209|
20150504-12:56:35.954: 8=FIX.4.4|9=65|35=0|34=95|49=MKDATACL2|52=20150504-12:56:35.954|56=MKDATAFHBCS2|10=218|
20150504-12:56:49.044: 8=FIX.4.4|9=65|35=0|34=96|49=MKDATAFHBCS2|52=20150504-12:56:49.191|56=MKDATACL2|10=217|
20150504-12:57:36.954: 8=FIX.4.4|9=65|35=0|34=96|49=MKDATACL2|52=20150504-12:57:36.953|56=MKDATAFHBCS2|10=220|
20150504-12:57:49.055: 8=FIX.4.4|9=65|35=0|34=97|49=MKDATAFHBCS2|52=20150504-12:57:49.232|56=MKDATACL2|10=215|
20150504-12:58:36.954: 8=FIX.4.4|9=65|35=0|34=97|49=MKDATACL2|52=20150504-12:58:36.954|56=MKDATAFHBCS2|10=223|
20150504-12:58:49.052: 8=FIX.4.4|9=65|35=0|34=98|49=MKDATAFHBCS2|52=20150504-12:58:49.242|56=MKDATACL2|10=218|
20150504-12:59:36.958: 8=FIX.4.4|9=65|35=0|34=98|49=MKDATACL2|52=20150504-12:59:36.957|56=MKDATAFHBCS2|10=228|
20150504-12:59:50.055: 8=FIX.4.4|9=65|35=0|34=99|49=MKDATAFHBCS2|52=20150504-12:59:50.138|56=MKDATACL2|10=216|
20150504-13:00:37.954: 8=FIX.4.4|9=65|35=0|34=99|49=MKDATACL2|52=20150504-13:00:37.954|56=MKDATAFHBCS2|10=214|
20150504-13:00:50.045: 8=FIX.4.4|9=66|35=0|34=100|49=MKDATAFHBCS2|52=20150504-13:00:50.192|56=MKDATACL2|10=235|
20150504-13:01:38.953: 8=FIX.4.4|9=66|35=0|34=100|49=MKDATACL2|52=20150504-13:01:38.953|56=MKDATAFHBCS2|10=247|
20150504-13:01:50.042: 8=FIX.4.4|9=66|35=0|34=101|49=MKDATAFHBCS2|52=20150504-13:01:50.217|56=MKDATACL2|10=235|
20150504-13:02:38.955: 8=FIX.4.4|9=66|35=0|34=101|49=MKDATACL2|52=20150504-13:02:38.954|56=MKDATAFHBCS2|10=250|
20150504-13:02:50.055: 8=FIX.4.4|9=66|35=0|34=102|49=MKDATAFHBCS2|52=20150504-13:02:50.245|56=MKDATACL2|10=238|
20150504-13:03:38.954: 8=FIX.4.4|9=66|35=0|34=102|49=MKDATACL2|52=20150504-13:03:38.954|56=MKDATAFHBCS2|10=252|
20150504-13:03:50.053: 8=FIX.4.4|9=66|35=0|34=103|49=MKDATAFHBCS2|52=20150504-13:03:50.249|56=MKDATACL2|10=244|
20150504-13:04:39.954: 8=FIX.4.4|9=66|35=0|34=103|49=MKDATACL2|52=20150504-13:04:39.954|56=MKDATAFHBCS2|10=255|
20150504-13:04:51.050: 8=FIX.4.4|9=66|35=0|34=104|49=MKDATAFHBCS2|52=20150504-13:04:51.147|56=MKDATACL2|10=244|
20150504-13:05:39.955: 8=FIX.4.4|9=66|35=0|34=104|49=MKDATACL2|52=20150504-13:05:39.954|56=MKDATAFHBCS2|10=001|
20150504-13:05:51.048: 8=FIX.4.4|9=66|35=0|34=105|49=MKDATAFHBCS2|52=20150504-13:05:51.195|56=MKDATACL2|10=249|
20150504-13:06:39.954: 8=FIX.4.4|9=66|35=0|34=105|49=MKDATACL2|52=20150504-13:06:39.954|56=MKDATAFHBCS2|10=003|
20150504-13:06:51.046: 8=FIX.4.4|9=66|35=0|34=106|49=MKDATAFHBCS2|52=20150504-13:06:51.222|56=MKDATACL2|10=242|
20150504-13:07:22.211: 8=FIX.4.4|9=139|35=V|34=106|49=MKDATACL2|52=20150504-13:07:22.209|56=MKDATAFHBCS2|262=-50a9878352cfb8ee|263=1|264=1|146=1|55=CHILE|267=3|269=0|269=1|269=5|10=046|
20150504-13:07:22.213: 8=FIX.4.4|9=143|35=V|34=107|49=MKDATACL2|52=20150504-13:07:22.212|56=MKDATAFHBCS2|262=-2d93c67dd286bfe5|263=1|264=1|146=1|55=CORPBANCA|267=3|269=0|269=1|269=5|10=119|
20150504-13:07:22.215: 8=FIX.4.4|9=197|35=W|34=107|49=MKDATAFHBCS2|52=20150504-13:07:22.398|56=MKDATACL2|55=CHILE|262=-50a9878352cfb8ee|268=3|269=0|270=71.01|271=500000|282=020|290=1|269=1|270=71.3|271=200000|282=072|290=1|269=5|270=71|10=182|
20150504-13:07:22.215: 8=FIX.4.4|9=143|35=V|34=108|49=MKDATACL2|52=20150504-13:07:22.214|56=MKDATAFHBCS2|262=123b90cd450e4855|263=1|264=1|146=1|55=BSANTANDER|267=3|269=0|269=1|269=5|10=006|
20150504-13:07:22.226: 8=FIX.4.4|9=203|35=W|34=108|49=MKDATAFHBCS2|52=20150504-13:07:22.398|56=MKDATACL2|55=CORPBANCA|262=-2d93c67dd286bfe5|268=3|269=0|270=6.928|271=1004111|282=035|290=1|269=1|270=6.93|271=5356|282=066|290=1|269=5|270=6.928|10=161|
20150504-13:07:22.228: 8=FIX.4.4|9=136|35=V|34=109|49=MKDATACL2|52=20150504-13:07:22.227|56=MKDATAFHBCS2|262=36ffd563c3cd4d71|263=1|264=1|146=1|55=CCU|267=3|269=0|269=1|269=5|10=158|
20150504-13:07:22.309: 8=FIX.4.4|9=205|35=W|34=109|49=MKDATAFHBCS2|52=20150504-13:07:22.413|56=MKDATACL2|55=BSANTANDER|262=123b90cd450e4855|268=3|269=0|270=32.93|271=388331|282=035|290=1|269=1|270=33.19|271=262730|282=035|290=1|269=5|270=32.93|10=129|
20150504-13:07:22.310: 8=FIX.4.4|9=195|35=W|34=110|49=MKDATAFHBCS2|52=20150504-13:07:22.413|56=MKDATACL2|55=CCU|262=36ffd563c3cd4d71|268=3|269=0|270=6657.3|271=1092|282=035|290=1|269=1|270=6800|271=6400|282=043|290=1|269=5|270=6657.3|10=125|
20150504-13:07:22.311: 8=FIX.4.4|9=140|35=V|34=110|49=MKDATACL2|52=20150504-13:07:22.310|56=MKDATAFHBCS2|262=-122c67f85d93b8c1|263=1|264=1|146=1|55=ENDESA|267=3|269=0|269=1|269=5|10=046|
20150504-13:07:22.313: 8=FIX.4.4|9=140|35=V|34=111|49=MKDATACL2|52=20150504-13:07:22.312|56=MKDATAFHBCS2|262=57b88c2bcaff45d0|263=1|264=1|146=1|55=ENERSIS|267=3|269=0|269=1|269=5|10=249|
20150504-13:07:22.316: 8=FIX.4.4|9=141|35=V|34=112|49=MKDATACL2|52=20150504-13:07:22.314|56=MKDATAFHBCS2|262=61bb982e356a4840|263=1|264=1|146=1|55=CENCOSUD|267=3|269=0|269=1|269=5|10=120|
20150504-13:07:22.318: 8=FIX.4.4|9=196|35=W|34=111|49=MKDATAFHBCS2|52=20150504-13:07:22.491|56=MKDATACL2|55=ENDESA|262=-122c67f85d93b8c1|268=3|269=0|270=942.3|271=603|282=054|290=1|269=1|270=945|271=50000|282=058|290=1|269=5|270=942.3|10=138|
20150504-13:07:22.319: 8=FIX.4.4|9=136|35=V|34=113|49=MKDATACL2|52=20150504-13:07:22.318|56=MKDATAFHBCS2|262=1f16c004829d4c9c|263=1|264=1|146=1|55=LAN|267=3|269=0|269=1|269=5|10=053|
20150504-13:07:22.321: 8=FIX.4.4|9=141|35=V|34=114|49=MKDATACL2|52=20150504-13:07:22.320|56=MKDATAFHBCS2|262=29ca602c0d1d49b5|263=1|264=1|146=1|55=ANDINA-B|267=3|269=0|269=1|269=5|10=146|
20150504-13:07:22.328: 8=FIX.4.4|9=142|35=V|34=115|49=MKDATACL2|52=20150504-13:07:22.327|56=MKDATAFHBCS2|262=ae243240e8f4e9a|263=1|264=1|146=1|55=CONCHATORO|267=3|269=0|269=1|269=5|10=069|
20150504-13:07:22.331: 8=FIX.4.4|9=138|35=V|34=116|49=MKDATACL2|52=20150504-13:07:22.330|56=MKDATAFHBCS2|262=-5477a146c5aba1a|263=1|264=1|146=1|55=SQM-B|267=3|269=0|269=1|269=5|10=216|
20150504-13:07:22.332: 8=FIX.4.4|9=198|35=W|34=112|49=MKDATAFHBCS2|52=20150504-13:07:22.507|56=MKDATACL2|55=ENERSIS|262=57b88c2bcaff45d0|268=3|269=0|270=216|271=121164|282=035|290=1|269=1|270=216.8|271=125000|282=086|290=1|269=5|270=216|10=171|
20150504-13:07:22.333: 8=FIX.4.4|9=141|35=V|34=117|49=MKDATACL2|52=20150504-13:07:22.332|56=MKDATAFHBCS2|262=53c9aa2d226e4774|263=1|264=1|146=1|55=ANDINA-A|267=3|269=0|269=1|269=5|10=113|
20150504-13:07:22.336: 8=FIX.4.4|9=201|35=W|34=113|49=MKDATAFHBCS2|52=20150504-13:07:22.523|56=MKDATACL2|55=CENCOSUD|262=61bb982e356a4840|268=3|269=0|270=1570|271=10000|282=086|290=1|269=1|270=1576.9|271=1157|282=086|290=1|269=5|270=1576.9|10=148|
20150504-13:07:22.338: 8=FIX.4.4|9=191|35=W|34=114|49=MKDATAFHBCS2|52=20150504-13:07:22.523|56=MKDATACL2|55=LAN|262=1f16c004829d4c9c|268=3|269=0|270=5860|271=1000|282=059|290=1|269=1|270=5870|271=1000|282=058|290=1|269=5|270=5870|10=077|
20150504-13:07:22.341: 8=FIX.4.4|9=200|35=W|34=115|49=MKDATAFHBCS2|52=20150504-13:07:22.523|56=MKDATACL2|55=ANDINA-B|262=29ca602c0d1d49b5|268=3|269=0|270=1940.4|271=2081|282=035|290=1|269=1|270=1950|271=2000|282=062|290=1|269=5|270=1940.4|10=096|
20150504-13:07:22.343: 8=FIX.4.4|9=201|35=W|34=116|49=MKDATAFHBCS2|52=20150504-13:07:22.523|56=MKDATACL2|55=CONCHATORO|262=ae243240e8f4e9a|268=3|269=0|270=1247.3|271=1294|282=062|290=1|269=1|270=1255|271=3200|282=082|290=1|269=5|270=1247.3|10=018|
20150504-13:07:22.345: 8=FIX.4.4|9=196|35=W|34=117|49=MKDATAFHBCS2|52=20150504-13:07:22.523|56=MKDATACL2|55=SQM-B|262=-5477a146c5aba1a|268=3|269=0|270=13470|271=1000|282=020|290=1|269=1|270=13515|271=1000|282=069|290=1|269=5|270=13470|10=113|
20150504-13:07:22.348: 8=FIX.4.4|9=158|35=W|34=118|49=MKDATAFHBCS2|52=20150504-13:07:22.523|56=MKDATACL2|55=ANDINA-A|262=53c9aa2d226e4774|268=2|269=1|270=1525|271=2566|282=062|290=1|269=5|270=1510|10=184|
20150504-13:07:29.546: 8=FIX.4.4|9=127|35=X|34=119|49=MKDATAFHBCS2|52=20150504-13:07:29.731|56=MKDATACL2|262=1f16c004829d4c9c|268=1|279=1|269=5|55=LAN|270=5870|290=1|10=202|
20150504-13:07:40.521: 8=FIX.4.4|9=127|35=X|34=120|49=MKDATAFHBCS2|52=20150504-13:07:40.700|56=MKDATACL2|262=1f16c004829d4c9c|268=1|279=1|269=5|55=LAN|270=5870|290=1|10=183|
20150504-13:07:40.529: 8=FIX.4.4|9=144|35=X|34=121|49=MKDATAFHBCS2|52=20150504-13:07:40.716|56=MKDATACL2|262=1f16c004829d4c9c|268=1|279=2|269=1|55=LAN|270=5870|271=1000|282=058|290=1|10=203|
20150504-13:07:55.512: 8=FIX.4.4|9=130|35=X|34=122|49=MKDATAFHBCS2|52=20150504-13:07:55.679|56=MKDATACL2|262=57b88c2bcaff45d0|268=1|279=1|269=5|55=ENERSIS|270=216|290=1|10=094|
20150504-13:07:55.538: 8=FIX.4.4|9=149|35=X|34=123|49=MKDATAFHBCS2|52=20150504-13:07:55.710|56=MKDATACL2|262=57b88c2bcaff45d0|268=1|279=2|269=0|55=ENERSIS|270=216|271=121164|282=035|290=1|10=208|
20150504-13:07:55.539: 8=FIX.4.4|9=147|35=X|34=124|49=MKDATAFHBCS2|52=20150504-13:07:55.710|56=MKDATACL2|262=57b88c2bcaff45d0|268=1|279=0|269=1|55=ENERSIS|270=216|271=3836|282=082|290=1|10=117|
20150504-13:08:00.533: 8=FIX.4.4|9=144|35=X|34=125|49=MKDATAFHBCS2|52=20150504-13:08:00.719|56=MKDATACL2|262=36ffd563c3cd4d71|268=1|279=0|269=1|55=CCU|270=6750|271=5000|282=088|290=1|10=055|
20150504-13:08:01.515: 8=FIX.4.4|9=127|35=X|34=126|49=MKDATAFHBCS2|52=20150504-13:08:01.702|56=MKDATACL2|262=1f16c004829d4c9c|268=1|279=1|269=5|55=LAN|270=5869|290=1|10=197|
20150504-13:08:01.530: 8=FIX.4.4|9=143|35=X|34=127|49=MKDATAFHBCS2|52=20150504-13:08:01.717|56=MKDATACL2|262=1f16c004829d4c9c|268=1|279=0|269=1|55=LAN|270=5870|271=880|282=058|290=1|10=172|
20150504-13:08:14.538: 8=FIX.4.4|9=147|35=X|34=128|49=MKDATAFHBCS2|52=20150504-13:08:14.730|56=MKDATACL2|262=57b88c2bcaff45d0|268=1|279=2|269=1|55=ENERSIS|270=216|271=3836|282=082|290=1|10=121|
20150504-13:08:14.539: 8=FIX.4.4|9=151|35=X|34=129|49=MKDATAFHBCS2|52=20150504-13:08:14.730|56=MKDATACL2|262=57b88c2bcaff45d0|268=1|279=0|269=1|55=ENERSIS|270=216.5|271=125000|282=082|290=1|10=042|
20150504-13:08:17.604: 8=FIX.4.4|9=127|35=X|34=130|49=MKDATAFHBCS2|52=20150504-13:08:17.788|56=MKDATACL2|262=1f16c004829d4c9c|268=1|279=1|269=5|55=LAN|270=5870|290=1|10=205|
20150504-13:08:17.618: 8=FIX.4.4|9=143|35=X|34=131|49=MKDATAFHBCS2|52=20150504-13:08:17.804|56=MKDATACL2|262=1f16c004829d4c9c|268=1|279=2|269=1|55=LAN|270=5870|271=880|282=058|290=1|10=173|
20150504-13:08:22.956: 8=FIX.4.4|9=66|35=0|34=118|49=MKDATACL2|52=20150504-13:08:22.955|56=MKDATAFHBCS2|10=002|
20150504-13:08:35.579: 8=FIX.4.4|9=143|35=X|34=132|49=MKDATAFHBCS2|52=20150504-13:08:35.762|56=MKDATACL2|262=1f16c004829d4c9c|268=1|279=0|269=1|55=LAN|270=5870|271=200|282=058|290=1|10=161|
20150504-13:08:54.618: 8=FIX.4.4|9=127|35=X|34=133|49=MKDATAFHBCS2|52=20150504-13:08:54.810|56=MKDATACL2|262=1f16c004829d4c9c|268=1|279=1|269=5|55=LAN|270=5870|290=1|10=195|
20150504-13:08:54.627: 8=FIX.4.4|9=143|35=X|34=134|49=MKDATAFHBCS2|52=20150504-13:08:54.810|56=MKDATACL2|262=1f16c004829d4c9c|268=1|279=1|269=1|55=LAN|270=5870|271=180|282=058|290=1|10=166|
20150504-13:08:59.752: 8=FIX.4.4|9=135|35=X|34=135|49=MKDATAFHBCS2|52=20150504-13:08:59.933|56=MKDATACL2|262=-2d93c67dd286bfe5|268=1|279=1|269=5|55=CORPBANCA|270=6.928|290=1|10=074|
20150504-13:08:59.760: 8=FIX.4.4|9=155|35=X|34=136|49=MKDATAFHBCS2|52=20150504-13:08:59.948|56=MKDATACL2|262=-2d93c67dd286bfe5|268=1|279=2|269=0|55=CORPBANCA|270=6.928|271=1004111|282=035|290=1|10=241|
20150504-13:09:00.650: 8=FIX.4.4|9=155|35=X|34=137|49=MKDATAFHBCS2|52=20150504-13:09:00.835|56=MKDATACL2|262=-2d93c67dd286bfe5|268=1|279=0|269=1|55=CORPBANCA|270=6.929|271=1226064|282=035|290=1|10=237|
20150504-13:09:16.690: 8=FIX.4.4|9=135|35=X|34=138|49=MKDATAFHBCS2|52=20150504-13:09:16.832|56=MKDATACL2|262=-2d93c67dd286bfe5|268=1|279=1|269=5|55=CORPBANCA|270=6.929|290=1|10=070|
20150504-13:09:16.702: 8=FIX.4.4|9=155|35=X|34=139|49=MKDATAFHBCS2|52=20150504-13:09:16.847|56=MKDATACL2|262=-2d93c67dd286bfe5|268=1|279=1|269=1|55=CORPBANCA|270=6.929|271=1061064|282=035|290=1|10=247|
20150504-13:09:21.719: 8=FIX.4.4|9=151|35=X|34=140|49=MKDATAFHBCS2|52=20150504-13:09:21.842|56=MKDATACL2|262=-122c67f85d93b8c1|268=1|279=0|269=0|55=ENDESA|270=942.31|271=21590|282=086|290=1|10=111|
20150504-13:09:23.953: 8=FIX.4.4|9=66|35=0|34=119|49=MKDATACL2|52=20150504-13:09:23.953|56=MKDATAFHBCS2|10=003|
20150504-13:09:27.684: 8=FIX.4.4|9=151|35=X|34=141|49=MKDATAFHBCS2|52=20150504-13:09:27.802|56=MKDATACL2|262=57b88c2bcaff45d0|268=1|279=0|269=1|55=ENERSIS|270=216.4|271=125000|282=086|290=1|10=044|
20150504-13:09:33.712: 8=FIX.4.4|9=135|35=X|34=142|49=MKDATAFHBCS2|52=20150504-13:09:33.793|56=MKDATACL2|262=-2d93c67dd286bfe5|268=1|279=1|269=5|55=CORPBANCA|270=6.929|290=1|10=070|
20150504-13:09:33.713: 8=FIX.4.4|9=154|35=X|34=143|49=MKDATAFHBCS2|52=20150504-13:09:33.809|56=MKDATACL2|262=-2d93c67dd286bfe5|268=1|279=1|269=1|55=CORPBANCA|270=6.929|271=961064|282=035|290=1|10=198|
20150504-13:09:38.726: 8=FIX.4.4|9=127|35=X|34=144|49=MKDATAFHBCS2|52=20150504-13:09:38.804|56=MKDATACL2|262=1f16c004829d4c9c|268=1|279=1|269=5|55=LAN|270=5870|290=1|10=203|
20150504-13:09:38.730: 8=FIX.4.4|9=144|35=X|34=145|49=MKDATAFHBCS2|52=20150504-13:09:38.804|56=MKDATACL2|262=1f16c004829d4c9c|268=1|279=0|269=0|55=LAN|270=5870|271=1835|282=076|290=1|10=229|
20150504-13:09:38.730: 8=FIX.4.4|9=143|35=X|34=146|49=MKDATAFHBCS2|52=20150504-13:09:38.819|56=MKDATACL2|262=1f16c004829d4c9c|268=1|279=2|269=1|55=LAN|270=5870|271=180|282=058|290=1|10=182|
20150504-13:10:20.797: 8=FIX.4.4|9=130|35=X|34=147|49=MKDATAFHBCS2|52=20150504-13:10:20.912|56=MKDATACL2|262=57b88c2bcaff45d0|268=1|279=1|269=5|55=ENERSIS|270=215|290=1|10=076|
20150504-13:10:20.824: 8=FIX.4.4|9=149|35=X|34=148|49=MKDATAFHBCS2|52=20150504-13:10:20.928|56=MKDATACL2|262=57b88c2bcaff45d0|268=1|279=2|269=0|55=ENERSIS|270=215|271=100000|282=058|290=1|10=202|
20150504-13:10:20.824: 8=FIX.4.4|9=148|35=X|34=149|49=MKDATAFHBCS2|52=20150504-13:10:20.928|56=MKDATACL2|262=57b88c2bcaff45d0|268=1|279=2|269=0|55=ENERSIS|270=215|271=23132|282=072|290=1|10=160|
20150504-13:10:20.825: 8=FIX.4.4|9=149|35=X|34=150|49=MKDATAFHBCS2|52=20150504-13:10:20.928|56=MKDATACL2|262=57b88c2bcaff45d0|268=1|279=2|269=0|55=ENERSIS|270=215|271=150000|282=035|290=1|10=195|
20150504-13:10:20.826: 8=FIX.4.4|9=148|35=X|34=151|49=MKDATAFHBCS2|52=20150504-13:10:20.928|56=MKDATACL2|262=57b88c2bcaff45d0|268=1|279=0|269=0|55=ENERSIS|270=215|271=34209|282=035|290=1|10=157|
20150504-13:10:23.955: 8=FIX.4.4|9=66|35=0|34=120|49=MKDATACL2|52=20150504-13:10:23.954|56=MKDATAFHBCS2|10=244|
20150504-13:10:32.910: 8=FIX.4.4|9=146|35=X|34=152|49=MKDATAFHBCS2|52=20150504-13:10:33.044|56=MKDATACL2|262=-122c67f85d93b8c1|268=1|279=0|269=0|55=ENDESA|270=943|271=603|282=054|290=1|10=109|
20150504-13:10:32.918: 8=FIX.4.4|9=143|35=X|34=153|49=MKDATAFHBCS2|52=20150504-13:10:33.044|56=MKDATACL2|262=1f16c004829d4c9c|268=1|279=1|269=0|55=LAN|270=5870|271=675|282=076|290=1|10=164|
20150504-13:10:32.923: 8=FIX.4.4|9=127|35=X|34=154|49=MKDATAFHBCS2|52=20150504-13:10:33.059|56=MKDATACL2|262=1f16c004829d4c9c|268=1|279=1|269=5|55=LAN|270=5870|290=1|10=193|
20150504-13:10:56.924: 8=FIX.4.4|9=146|35=X|34=155|49=MKDATAFHBCS2|52=20150504-13:10:57.067|56=MKDATACL2|262=36ffd563c3cd4d71|268=1|279=0|269=1|55=CCU|270=6749.9|271=1166|282=035|290=1|10=173|
20150504-13:10:59.932: 8=FIX.4.4|9=127|35=X|34=156|49=MKDATAFHBCS2|52=20150504-13:11:00.079|56=MKDATACL2|262=1f16c004829d4c9c|268=1|279=1|269=5|55=LAN|270=5870|290=1|10=192|
20150504-13:10:59.953: 8=FIX.4.4|9=143|35=X|34=157|49=MKDATAFHBCS2|52=20150504-13:11:00.079|56=MKDATACL2|262=1f16c004829d4c9c|268=1|279=2|269=0|55=LAN|270=5870|271=675|282=076|290=1|10=172|
20150504-13:10:59.953: 8=FIX.4.4|9=144|35=X|34=158|49=MKDATAFHBCS2|52=20150504-13:11:00.079|56=MKDATACL2|262=1f16c004829d4c9c|268=1|279=0|269=0|55=LAN|270=5870|271=1778|282=076|290=1|10=225|
20150504-13:10:59.953: 8=FIX.4.4|9=143|35=X|34=159|49=MKDATAFHBCS2|52=20150504-13:11:00.079|56=MKDATACL2|262=1f16c004829d4c9c|268=1|279=2|269=1|55=LAN|270=5880|271=912|282=058|290=1|10=170|
20150504-13:11:10.901: 8=FIX.4.4|9=130|35=X|34=160|49=MKDATAFHBCS2|52=20150504-13:11:11.015|56=MKDATACL2|262=-5477a146c5aba1a|268=1|279=1|269=5|55=SQM-B|270=13470|290=1|10=124|
20150504-13:11:10.911: 8=FIX.4.4|9=146|35=X|34=161|49=MKDATAFHBCS2|52=20150504-13:11:11.031|56=MKDATACL2|262=-5477a146c5aba1a|268=1|279=1|269=1|55=SQM-B|270=13515|271=994|282=069|290=1|10=117|
20150504-13:11:23.956: 8=FIX.4.4|9=66|35=0|34=121|49=MKDATACL2|52=20150504-13:11:23.955|56=MKDATAFHBCS2|10=247|
20150504-13:11:39.977: 8=FIX.4.4|9=130|35=X|34=162|49=MKDATAFHBCS2|52=20150504-13:11:39.984|56=MKDATACL2|262=-122c67f85d93b8c1|268=1|279=1|269=5|55=ENDESA|270=943|290=1|10=157|
20150504-13:11:40.005: 8=FIX.4.4|9=146|35=X|34=163|49=MKDATAFHBCS2|52=20150504-13:11:40.015|56=MKDATACL2|262=-122c67f85d93b8c1|268=1|279=2|269=0|55=ENDESA|270=943|271=603|282=054|290=1|10=110|
20150504-13:11:40.006: 8=FIX.4.4|9=147|35=X|34=164|49=MKDATAFHBCS2|52=20150504-13:11:40.015|56=MKDATACL2|262=-122c67f85d93b8c1|268=1|279=0|269=1|55=ENDESA|270=943|271=2097|282=051|290=1|10=165|
20150504-13:11:41.013: 8=FIX.4.4|9=148|35=X|34=165|49=MKDATAFHBCS2|52=20150504-13:11:41.046|56=MKDATACL2|262=-122c67f85d93b8c1|268=1|279=0|269=0|55=ENDESA|270=943|271=17768|282=035|290=1|10=232|
20150504-13:11:41.014: 8=FIX.4.4|9=147|35=X|34=166|49=MKDATAFHBCS2|52=20150504-13:11:41.046|56=MKDATACL2|262=-122c67f85d93b8c1|268=1|279=2|269=1|55=ENDESA|270=943|271=2097|282=051|290=1|10=174|
20150504-13:11:41.021: 8=FIX.4.4|9=130|35=X|34=167|49=MKDATAFHBCS2|52=20150504-13:11:41.062|56=MKDATACL2|262=-122c67f85d93b8c1|268=1|279=1|269=5|55=ENDESA|270=943|290=1|10=142|
20150504-13:11:41.028: 8=FIX.4.4|9=130|35=X|34=168|49=MKDATAFHBCS2|52=20150504-13:11:41.062|56=MKDATACL2|262=57b88c2bcaff45d0|268=1|279=1|269=5|55=ENERSIS|270=215|290=1|10=079|
20150504-13:11:41.041: 8=FIX.4.4|9=148|35=X|34=169|49=MKDATAFHBCS2|52=20150504-13:11:41.078|56=MKDATACL2|262=57b88c2bcaff45d0|268=1|279=2|269=0|55=ENERSIS|270=215|271=34209|282=035|290=1|10=168|
20150504-13:11:41.042: 8=FIX.4.4|9=149|35=X|34=170|49=MKDATAFHBCS2|52=20150504-13:11:41.078|56=MKDATACL2|262=57b88c2bcaff45d0|268=1|279=0|269=0|55=ENERSIS|270=215|271=136059|282=035|290=1|10=213|
20150504-13:11:44.998: 8=FIX.4.4|9=144|35=X|34=171|49=MKDATAFHBCS2|52=20150504-13:11:45.045|56=MKDATACL2|262=1f16c004829d4c9c|268=1|279=2|269=1|55=LAN|270=5900|271=2000|282=058|290=1|10=198|
20150504-13:11:44.999: 8=FIX.4.4|9=144|35=X|34=172|49=MKDATAFHBCS2|52=20150504-13:11:45.045|56=MKDATACL2|262=1f16c004829d4c9c|268=1|279=0|269=1|55=LAN|270=5945|271=2000|282=058|290=1|10=206|
20150504-13:11:52.044: 8=FIX.4.4|9=151|35=X|34=173|49=MKDATAFHBCS2|52=20150504-13:11:52.089|56=MKDATACL2|262=61bb982e356a4840|268=1|279=2|269=1|55=CENCOSUD|270=1576.9|271=1157|282=086|290=1|10=145|
20150504-13:11:52.044: 8=FIX.4.4|9=150|35=X|34=174|49=MKDATAFHBCS2|52=20150504-13:11:52.105|56=MKDATACL2|262=61bb982e356a4840|268=1|279=2|269=1|55=CENCOSUD|270=1576.9|271=863|282=088|290=1|10=091|
20150504-13:11:52.054: 8=FIX.4.4|9=134|35=X|34=175|49=MKDATAFHBCS2|52=20150504-13:11:52.105|56=MKDATACL2|262=61bb982e356a4840|268=1|279=1|269=5|55=CENCOSUD|270=1576.9|290=1|10=110|
20150504-13:11:52.976: 8=FIX.4.4|9=151|35=X|34=176|49=MKDATAFHBCS2|52=20150504-13:11:53.027|56=MKDATACL2|262=61bb982e356a4840|268=1|279=0|269=0|55=CENCOSUD|270=1570.1|271=5230|282=035|290=1|10=114|
20150504-13:11:58.009: 8=FIX.4.4|9=143|35=X|34=177|49=MKDATAFHBCS2|52=20150504-13:11:58.072|56=MKDATACL2|262=1f16c004829d4c9c|268=1|279=0|269=0|55=LAN|270=5890|271=168|282=082|290=1|10=174|
20150504-13:12:00.007: 8=FIX.4.4|9=150|35=X|34=178|49=MKDATAFHBCS2|52=20150504-13:12:00.071|56=MKDATACL2|262=57b88c2bcaff45d0|268=1|279=0|269=1|55=ENERSIS|270=216.3|271=69412|282=082|290=1|10=253|
20150504-13:12:12.086: 8=FIX.4.4|9=150|35=X|34=179|49=MKDATAFHBCS2|52=20150504-13:12:12.161|56=MKDATACL2|262=-50a9878352cfb8ee|268=1|279=0|269=1|55=CHILE|270=71.25|271=150000|282=086|290=1|10=076|
20150504-13:12:23.956: 8=FIX.4.4|9=66|35=0|34=122|49=MKDATACL2|52=20150504-13:12:23.955|56=MKDATAFHBCS2|10=249|
20150504-13:12:33.317: 8=FIX.4.4|9=134|35=X|34=180|49=MKDATAFHBCS2|52=20150504-13:12:33.419|56=MKDATACL2|262=61bb982e356a4840|268=1|279=1|269=5|55=CENCOSUD|270=1579.9|290=1|10=117|
20150504-13:12:33.344: 8=FIX.4.4|9=149|35=X|34=181|49=MKDATAFHBCS2|52=20150504-13:12:33.450|56=MKDATACL2|262=61bb982e356a4840|268=1|279=2|269=1|55=CENCOSUD|270=1578|271=1912|282=082|290=1|10=037|
20150504-13:12:33.345: 8=FIX.4.4|9=151|35=X|34=182|49=MKDATAFHBCS2|52=20150504-13:12:33.450|56=MKDATACL2|262=61bb982e356a4840|268=1|279=2|269=1|55=CENCOSUD|270=1579.9|271=2074|282=043|290=1|10=132|
20150504-13:12:33.345: 8=FIX.4.4|9=151|35=X|34=183|49=MKDATAFHBCS2|52=20150504-13:12:33.450|56=MKDATACL2|262=61bb982e356a4840|268=1|279=2|269=1|55=CENCOSUD|270=1579.9|271=5474|282=086|290=1|10=147|
20150504-13:12:33.347: 8=FIX.4.4|9=151|35=X|34=184|49=MKDATAFHBCS2|52=20150504-13:12:33.450|56=MKDATACL2|262=61bb982e356a4840|268=1|279=0|269=1|55=CENCOSUD|270=1579.9|271=4778|282=086|290=1|10=152|
20150504-13:12:40.123: 8=FIX.4.4|9=134|35=X|34=185|49=MKDATAFHBCS2|52=20150504-13:12:40.228|56=MKDATACL2|262=61bb982e356a4840|268=1|279=1|269=5|55=CENCOSUD|270=1579.9|290=1|10=118|
20150504-13:12:40.143: 8=FIX.4.4|9=147|35=X|34=186|49=MKDATAFHBCS2|52=20150504-13:12:40.244|56=MKDATACL2|262=61bb982e356a4840|268=1|279=0|269=0|55=CENCOSUD|270=1580|271=67|282=035|290=1|10=187|
20150504-13:12:40.144: 8=FIX.4.4|9=151|35=X|34=187|49=MKDATAFHBCS2|52=20150504-13:12:40.244|56=MKDATACL2|262=61bb982e356a4840|268=1|279=2|269=1|55=CENCOSUD|270=1579.9|271=4778|282=086|290=1|10=156|
20150504-13:13:23.956: 8=FIX.4.4|9=66|35=0|34=123|49=MKDATACL2|52=20150504-13:13:23.955|56=MKDATAFHBCS2|10=251|
20150504-13:13:41.046: 8=FIX.4.4|9=66|35=0|34=188|49=MKDATAFHBCS2|52=20150504-13:13:41.199|56=MKDATACL2|10=006|
20150504-13:14:21.329: 8=FIX.4.4|9=130|35=X|34=189|49=MKDATAFHBCS2|52=20150504-13:14:21.491|56=MKDATACL2|262=-122c67f85d93b8c1|268=1|279=1|269=5|55=ENDESA|270=943|290=1|10=153|
20150504-13:14:21.340: 8=FIX.4.4|9=147|35=X|34=190|49=MKDATAFHBCS2|52=20150504-13:14:21.507|56=MKDATACL2|262=-122c67f85d93b8c1|268=1|279=1|269=0|55=ENDESA|270=943|271=9657|282=035|290=1|10=183|
20150504-13:14:23.318: 8=FIX.4.4|9=129|35=X|34=191|49=MKDATAFHBCS2|52=20150504-13:14:23.473|56=MKDATACL2|262=36ffd563c3cd4d71|268=1|279=1|269=5|55=CCU|270=6657.3|290=1|10=145|
20150504-13:14:23.337: 8=FIX.4.4|9=146|35=X|34=192|49=MKDATAFHBCS2|52=20150504-13:14:23.504|56=MKDATACL2|262=36ffd563c3cd4d71|268=1|279=2|269=0|55=CCU|270=6657.3|271=1092|282=035|290=1|10=158|
20150504-13:14:23.339: 8=FIX.4.4|9=145|35=X|34=193|49=MKDATAFHBCS2|52=20150504-13:14:23.504|56=MKDATACL2|262=36ffd563c3cd4d71|268=1|279=0|269=1|55=CCU|270=6657.3|271=908|282=086|290=1|10=120|
20150504-13:14:23.955: 8=FIX.4.4|9=66|35=0|34=124|49=MKDATACL2|52=20150504-13:14:23.955|56=MKDATAFHBCS2|10=253|
20150504-13:14:43.352: 8=FIX.4.4|9=149|35=X|34=194|49=MKDATAFHBCS2|52=20150504-13:14:43.525|56=MKDATACL2|262=-50a9878352cfb8ee|268=1|279=0|269=0|55=CHILE|270=71.02|271=55000|282=043|290=1|10=034|
20150504-13:15:23.955: 8=FIX.4.4|9=66|35=0|34=125|49=MKDATACL2|52=20150504-13:15:23.955|56=MKDATAFHBCS2|10=255|
20150504-13:15:38.526: 8=FIX.4.4|9=134|35=X|34=195|49=MKDATAFHBCS2|52=20150504-13:15:38.697|56=MKDATACL2|262=29ca602c0d1d49b5|268=1|279=1|269=5|55=ANDINA-B|270=1940.4|290=1|10=153|
20150504-13:15:38.545: 8=FIX.4.4|9=151|35=X|34=196|49=MKDATAFHBCS2|52=20150504-13:15:38.713|56=MKDATACL2|262=29ca602c0d1d49b5|268=1|279=2|269=0|55=ANDINA-B|270=1940.4|271=2081|282=035|290=1|10=159|
20150504-13:15:38.546: 8=FIX.4.4|9=150|35=X|34=197|49=MKDATAFHBCS2|52=20150504-13:15:38.713|56=MKDATACL2|262=29ca602c0d1d49b5|268=1|279=2|269=0|55=ANDINA-B|270=1940.4|271=355|282=070|290=1|10=112|
20150504-13:15:38.546: 8=FIX.4.4|9=149|35=X|34=198|49=MKDATAFHBCS2|52=20150504-13:15:38.713|56=MKDATACL2|262=29ca602c0d1d49b5|268=1|279=2|269=0|55=ANDINA-B|270=1940.4|271=75|282=035|290=1|10=073|
20150504-13:15:38.547: 8=FIX.4.4|9=150|35=X|34=199|49=MKDATAFHBCS2|52=20150504-13:15:38.713|56=MKDATACL2|262=29ca602c0d1d49b5|268=1|279=0|269=1|55=ANDINA-B|270=1940.4|271=969|282=086|290=1|10=131|
20150504-13:16:23.955: 8=FIX.4.4|9=66|35=0|34=126|49=MKDATACL2|52=20150504-13:16:23.955|56=MKDATAFHBCS2|10=001|
20150504-13:16:39.042: 8=FIX.4.4|9=66|35=0|34=200|49=MKDATAFHBCS2|52=20150504-13:16:39.125|56=MKDATACL2|10=246|
20150504-13:17:24.955: 8=FIX.4.4|9=66|35=0|34=127|49=MKDATACL2|52=20150504-13:17:24.955|56=MKDATAFHBCS2|10=004|
20150504-13:17:35.756: 8=FIX.4.4|9=130|35=X|34=201|49=MKDATAFHBCS2|52=20150504-13:17:35.883|56=MKDATACL2|262=-122c67f85d93b8c1|268=1|279=1|269=5|55=ENDESA|270=943|290=1|10=151|
20150504-13:17:35.759: 8=FIX.4.4|9=147|35=X|34=202|49=MKDATAFHBCS2|52=20150504-13:17:35.883|56=MKDATACL2|262=-122c67f85d93b8c1|268=1|279=2|269=0|55=ENDESA|270=943|271=9657|282=035|290=1|10=193|
20150504-13:17:35.759: 8=FIX.4.4|9=148|35=X|34=203|49=MKDATAFHBCS2|52=20150504-13:17:35.883|56=MKDATACL2|262=-122c67f85d93b8c1|268=1|279=2|269=0|55=ENDESA|270=943|271=21590|282=086|290=1|10=239|
20150504-13:17:35.760: 8=FIX.4.4|9=148|35=X|34=204|49=MKDATAFHBCS2|52=20150504-13:17:35.883|56=MKDATACL2|262=-122c67f85d93b8c1|268=1|279=0|269=0|55=ENDESA|270=943|271=17607|282=086|290=1|10=242|
20150504-13:17:36.677: 8=FIX.4.4|9=150|35=X|34=205|49=MKDATAFHBCS2|52=20150504-13:17:36.804|56=MKDATACL2|262=-122c67f85d93b8c1|268=1|279=0|269=1|55=ENDESA|270=944.99|271=9552|282=035|290=1|10=082|
20150504-13:18:10.738: 8=FIX.4.4|9=149|35=X|34=206|49=MKDATAFHBCS2|52=20150504-13:18:10.892|56=MKDATACL2|262=57b88c2bcaff45d0|268=1|279=0|269=1|55=ENERSIS|270=216|271=125000|282=086|290=1|10=212|
20150504-13:18:24.955: 8=FIX.4.4|9=66|35=0|34=128|49=MKDATACL2|52=20150504-13:18:24.955|56=MKDATAFHBCS2|10=006|
20150504-13:18:27.795: 8=FIX.4.4|9=144|35=X|34=207|49=MKDATAFHBCS2|52=20150504-13:18:27.951|56=MKDATACL2|262=1f16c004829d4c9c|268=1|279=0|269=1|55=LAN|270=5940|271=1500|282=086|290=1|10=218|
20150504-13:18:29.840: 8=FIX.4.4|9=144|35=X|34=208|49=MKDATAFHBCS2|52=20150504-13:18:29.996|56=MKDATACL2|262=1f16c004829d4c9c|268=1|279=0|269=1|55=LAN|270=5900|271=1044|282=035|290=1|10=223|
20150504-13:18:31.847: 8=FIX.4.4|9=130|35=X|34=209|49=MKDATAFHBCS2|52=20150504-13:18:32.009|56=MKDATACL2|262=57b88c2bcaff45d0|268=1|279=1|269=5|55=ENERSIS|270=215|290=1|10=083|
20150504-13:18:31.856: 8=FIX.4.4|9=149|35=X|34=210|49=MKDATAFHBCS2|52=20150504-13:18:32.009|56=MKDATACL2|262=57b88c2bcaff45d0|268=1|279=2|269=0|55=ENERSIS|270=215|271=136059|282=035|290=1|10=211|
20150504-13:18:31.856: 8=FIX.4.4|9=148|35=X|34=211|49=MKDATAFHBCS2|52=20150504-13:18:32.009|56=MKDATACL2|262=57b88c2bcaff45d0|268=1|279=0|269=0|55=ENERSIS|270=215|271=36159|282=035|290=1|10=161|
20150504-13:18:32.797: 8=FIX.4.4|9=130|35=X|34=212|49=MKDATAFHBCS2|52=20150504-13:18:32.961|56=MKDATACL2|262=57b88c2bcaff45d0|268=1|279=1|269=5|55=ENERSIS|270=215|290=1|10=084|
20150504-13:18:32.811: 8=FIX.4.4|9=148|35=X|34=213|49=MKDATAFHBCS2|52=20150504-13:18:32.977|56=MKDATACL2|262=57b88c2bcaff45d0|268=1|279=1|269=0|55=ENERSIS|270=215|271=28536|282=035|290=1|10=178|
20150504-13:19:25.955: 8=FIX.4.4|9=66|35=0|34=129|49=MKDATACL2|52=20150504-13:19:25.954|56=MKDATAFHBCS2|10=008|
20150504-13:19:33.041: 8=FIX.4.4|9=66|35=0|34=214|49=MKDATAFHBCS2|52=20150504-13:19:33.224|56=MKDATACL2|10=248|
20150504-13:19:50.063: 8=FIX.4.4|9=148|35=X|34=215|49=MKDATAFHBCS2|52=20150504-13:19:50.231|56=MKDATACL2|262=-122c67f85d93b8c1|268=1|279=2|269=0|55=ENDESA|270=943|271=17607|282=086|290=1|10=232|
20150504-13:19:50.063: 8=FIX.4.4|9=150|35=X|34=216|49=MKDATAFHBCS2|52=20150504-13:19:50.231|56=MKDATACL2|262=-122c67f85d93b8c1|268=1|279=0|269=0|55=ENDESA|270=940.2|271=21590|282=086|290=1|10=057|
20150504-13:20:15.118: 8=FIX.4.4|9=150|35=X|34=217|49=MKDATAFHBCS2|52=20150504-13:20:15.303|56=MKDATACL2|262=29ca602c0d1d49b5|268=1|279=0|269=0|55=ANDINA-B|270=1940.4|271=424|282=035|290=1|10=087|
20150504-13:20:15.120: 8=FIX.4.4|9=150|35=X|34=218|49=MKDATAFHBCS2|52=20150504-13:20:15.303|56=MKDATACL2|262=29ca602c0d1d49b5|268=1|279=2|269=1|55=ANDINA-B|270=1940.4|271=969|282=086|290=1|10=111|
20150504-13:20:15.120: 8=FIX.4.4|9=151|35=X|34=219|49=MKDATAFHBCS2|52=20150504-13:20:15.303|56=MKDATACL2|262=29ca602c0d1d49b5|268=1|279=2|269=1|55=ANDINA-B|270=1940.4|271=2000|282=062|290=1|10=133|
20150504-13:20:15.121: 8=FIX.4.4|9=151|35=X|34=220|49=MKDATAFHBCS2|52=20150504-13:20:15.303|56=MKDATACL2|262=29ca602c0d1d49b5|268=1|279=2|269=1|55=ANDINA-B|270=1940.4|271=1000|282=090|290=1|10=125|
20150504-13:20:15.122: 8=FIX.4.4|9=134|35=X|34=221|49=MKDATAFHBCS2|52=20150504-13:20:15.303|56=MKDATACL2|262=29ca602c0d1d49b5|268=1|279=1|269=5|55=ANDINA-B|270=1940.4|290=1|10=118|
20150504-13:20:24.041: 8=FIX.4.4|9=150|35=X|34=222|49=MKDATAFHBCS2|52=20150504-13:20:24.227|56=MKDATACL2|262=29ca602c0d1d49b5|268=1|279=2|269=0|55=ANDINA-B|270=1940.4|271=424|282=035|290=1|10=090|
20150504-13:20:25.955: 8=FIX.4.4|9=66|35=0|34=130|49=MKDATACL2|52=20150504-13:20:25.954|56=MKDATAFHBCS2|10=248|
20150504-13:20:44.070: 8=FIX.4.4|9=151|35=X|34=223|49=MKDATAFHBCS2|52=20150504-13:20:44.260|56=MKDATACL2|262=29ca602c0d1d49b5|268=1|279=0|269=0|55=ANDINA-B|270=1940.4|271=3111|282=035|290=1|10=133|
20150504-13:20:51.112: 8=FIX.4.4|9=151|35=X|34=224|49=MKDATAFHBCS2|52=20150504-13:20:51.295|56=MKDATACL2|262=29ca602c0d1d49b5|268=1|279=2|269=0|55=ANDINA-B|270=1940.4|271=3111|282=035|290=1|10=142|
20150504-13:20:51.113: 8=FIX.4.4|9=151|35=X|34=225|49=MKDATAFHBCS2|52=20150504-13:20:51.295|56=MKDATACL2|262=29ca602c0d1d49b5|268=1|279=2|269=0|55=ANDINA-B|270=1940.4|271=4153|282=035|290=1|10=150|
20150504-13:21:11.104: 8=FIX.4.4|9=130|35=X|34=226|49=MKDATAFHBCS2|52=20150504-13:21:11.267|56=MKDATACL2|262=57b88c2bcaff45d0|268=1|279=1|269=5|55=ENERSIS|270=216|290=1|10=080|
20150504-13:21:11.117: 8=FIX.4.4|9=149|35=X|34=227|49=MKDATAFHBCS2|52=20150504-13:21:11.267|56=MKDATACL2|262=57b88c2bcaff45d0|268=1|279=2|269=1|55=ENERSIS|270=216|271=125000|282=086|290=1|10=208|
20150504-13:21:11.117: 8=FIX.4.4|9=148|35=X|34=228|49=MKDATAFHBCS2|52=20150504-13:21:11.267|56=MKDATACL2|262=57b88c2bcaff45d0|268=1|279=2|269=1|55=ENERSIS|270=216|271=40159|282=035|290=1|10=165|
20150504-13:21:11.118: 8=FIX.4.4|9=148|35=X|34=229|49=MKDATAFHBCS2|52=20150504-13:21:11.267|56=MKDATACL2|262=57b88c2bcaff45d0|268=1|279=0|269=1|55=ENERSIS|270=216|271=16942|282=086|290=1|10=173|
20150504-13:21:18.157: 8=FIX.4.4|9=146|35=X|34=230|49=MKDATAFHBCS2|52=20150504-13:21:18.300|56=MKDATACL2|262=-5477a146c5aba1a|268=1|279=1|269=1|55=SQM-B|270=13515|271=484|282=069|290=1|10=115|
20150504-13:21:18.167: 8=FIX.4.4|9=130|35=X|34=231|49=MKDATAFHBCS2|52=20150504-13:21:18.300|56=MKDATACL2|262=-5477a146c5aba1a|268=1|279=1|269=5|55=SQM-B|270=13515|290=1|10=128|
20150504-13:21:25.955: 8=FIX.4.4|9=66|35=0|34=131|49=MKDATACL2|52=20150504-13:21:25.955|56=MKDATAFHBCS2|10=251|
20150504-13:22:19.039: 8=FIX.4.4|9=66|35=0|34=232|49=MKDATAFHBCS2|52=20150504-13:22:19.167|56=MKDATACL2|10=252|
20150504-13:22:23.296: 8=FIX.4.4|9=152|35=X|34=233|49=MKDATAFHBCS2|52=20150504-13:22:23.414|56=MKDATACL2|262=57b88c2bcaff45d0|268=1|279=0|269=0|55=ENERSIS|270=215.01|271=150000|282=035|290=1|10=072|
20150504-13:22:26.252: 8=FIX.4.4|9=155|35=X|34=234|49=MKDATAFHBCS2|52=20150504-13:22:26.381|56=MKDATACL2|262=-2d93c67dd286bfe5|268=1|279=0|269=1|55=CORPBANCA|270=6.928|271=1000000|282=086|290=1|10=219|
20150504-13:22:26.254: 8=FIX.4.4|9=66|35=0|34=132|49=MKDATACL2|52=20150504-13:22:26.254|56=MKDATAFHBCS2|10=246|
20150504-13:22:38.146: 8=FIX.4.4|9=141|35=V|34=133|49=MKDATACL2|52=20150504-13:22:38.145|56=MKDATAFHBCS2|262=53c9aa2d226e4774|263=2|264=1|146=1|55=ANDINA-A|267=3|269=0|269=1|269=5|10=118|
20150504-13:22:38.149: 8=FIX.4.4|9=141|35=V|34=134|49=MKDATACL2|52=20150504-13:22:38.148|56=MKDATAFHBCS2|262=29ca602c0d1d49b5|263=2|264=1|146=1|55=ANDINA-B|267=3|269=0|269=1|269=5|10=161|
20150504-13:22:38.150: 8=FIX.4.4|9=143|35=V|34=135|49=MKDATACL2|52=20150504-13:22:38.150|56=MKDATAFHBCS2|262=-2d93c67dd286bfe5|263=2|264=1|146=1|55=CORPBANCA|267=3|269=0|269=1|269=5|10=126|
20150504-13:22:38.152: 8=FIX.4.4|9=139|35=V|34=136|49=MKDATACL2|52=20150504-13:22:38.152|56=MKDATAFHBCS2|262=-50a9878352cfb8ee|263=2|264=1|146=1|55=CHILE|267=3|269=0|269=1|269=5|10=051|
20150504-13:22:38.154: 8=FIX.4.4|9=143|35=V|34=137|49=MKDATACL2|52=20150504-13:22:38.153|56=MKDATAFHBCS2|262=123b90cd450e4855|263=2|264=1|146=1|55=BSANTANDER|267=3|269=0|269=1|269=5|10=015|
20150504-13:22:38.156: 8=FIX.4.4|9=136|35=V|34=138|49=MKDATACL2|52=20150504-13:22:38.155|56=MKDATAFHBCS2|262=36ffd563c3cd4d71|263=2|264=1|146=1|55=CCU|267=3|269=0|269=1|269=5|10=165|
20150504-13:22:38.157: 8=FIX.4.4|9=141|35=V|34=139|49=MKDATACL2|52=20150504-13:22:38.157|56=MKDATAFHBCS2|262=61bb982e356a4840|263=2|264=1|146=1|55=CENCOSUD|267=3|269=0|269=1|269=5|10=139|
20150504-13:22:38.159: 8=FIX.4.4|9=140|35=V|34=140|49=MKDATACL2|52=20150504-13:22:38.159|56=MKDATAFHBCS2|262=57b88c2bcaff45d0|263=2|264=1|146=1|55=ENERSIS|267=3|269=0|269=1|269=5|10=009|
20150504-13:22:38.161: 8=FIX.4.4|9=140|35=V|34=141|49=MKDATACL2|52=20150504-13:22:38.160|56=MKDATAFHBCS2|262=-122c67f85d93b8c1|263=2|264=1|146=1|55=ENDESA|267=3|269=0|269=1|269=5|10=058|
20150504-13:22:38.163: 8=FIX.4.4|9=136|35=V|34=142|49=MKDATACL2|52=20150504-13:22:38.162|56=MKDATAFHBCS2|262=1f16c004829d4c9c|263=2|264=1|146=1|55=LAN|267=3|269=0|269=1|269=5|10=057|
20150504-13:22:38.165: 8=FIX.4.4|9=138|35=V|34=143|49=MKDATACL2|52=20150504-13:22:38.164|56=MKDATAFHBCS2|262=-5477a146c5aba1a|263=2|264=1|146=1|55=SQM-B|267=3|269=0|269=1|269=5|10=226|
20150504-13:22:38.167: 8=FIX.4.4|9=142|35=V|34=144|49=MKDATACL2|52=20150504-13:22:38.167|56=MKDATAFHBCS2|262=ae243240e8f4e9a|263=2|264=1|146=1|55=CONCHATORO|267=3|269=0|269=1|269=5|10=078|
20150504-13:23:27.040: 8=FIX.4.4|9=66|35=0|34=235|49=MKDATAFHBCS2|52=20150504-13:23:27.206|56=MKDATACL2|10=249|
20150504-13:23:38.955: 8=FIX.4.4|9=66|35=0|34=145|49=MKDATACL2|52=20150504-13:23:38.954|56=MKDATAFHBCS2|10=005|
20150504-13:24:27.039: 8=FIX.4.4|9=66|35=0|34=236|49=MKDATAFHBCS2|52=20150504-13:24:27.218|56=MKDATACL2|10=254|
20150504-13:24:38.955: 8=FIX.4.4|9=66|35=0|34=146|49=MKDATACL2|52=20150504-13:24:38.955|56=MKDATAFHBCS2|10=008|
20150504-13:25:27.032: 8=FIX.4.4|9=66|35=0|34=237|49=MKDATAFHBCS2|52=20150504-13:25:27.224|56=MKDATACL2|10=253|
20150504-13:25:38.955: 8=FIX.4.4|9=66|35=0|34=147|49=MKDATACL2|52=20150504-13:25:38.955|56=MKDATAFHBCS2|10=010|
20150504-13:26:28.044: 8=FIX.4.4|9=66|35=0|34=238|49=MKDATAFHBCS2|52=20150504-13:26:28.168|56=MKDATACL2|10=007|
20150504-13:26:39.954: 8=FIX.4.4|9=66|35=0|34=148|49=MKDATACL2|52=20150504-13:26:39.954|56=MKDATAFHBCS2|10=012|
20150504-13:27:28.041: 8=FIX.4.4|9=66|35=0|34=239|49=MKDATAFHBCS2|52=20150504-13:27:28.181|56=MKDATACL2|10=004|
20150504-13:27:40.954: 8=FIX.4.4|9=66|35=0|34=149|49=MKDATACL2|52=20150504-13:27:40.954|56=MKDATAFHBCS2|10=006|
20150504-13:28:29.036: 8=FIX.4.4|9=66|35=0|34=240|49=MKDATAFHBCS2|52=20150504-13:28:29.075|56=MKDATACL2|10=000|
20150504-13:28:40.954: 8=FIX.4.4|9=66|35=0|34=150|49=MKDATACL2|52=20150504-13:28:40.954|56=MKDATAFHBCS2|10=255|
20150504-13:29:29.034: 8=FIX.4.4|9=66|35=0|34=241|49=MKDATAFHBCS2|52=20150504-13:29:29.122|56=MKDATACL2|10=251|
20150504-13:29:41.954: 8=FIX.4.4|9=66|35=0|34=151|49=MKDATACL2|52=20150504-13:29:41.954|56=MKDATAFHBCS2|10=002|
20150504-13:30:01.577: 8=FIX.4.4|9=141|35=V|34=152|49=MKDATACL2|52=20150504-13:30:01.577|56=MKDATAFHBCS2|262=2bd31b933c594418|263=1|264=1|146=1|55=ANDINA-A|267=3|269=0|269=1|269=5|10=066|
20150504-13:30:01.580: 8=FIX.4.4|9=142|35=V|34=153|49=MKDATACL2|52=20150504-13:30:01.579|56=MKDATAFHBCS2|262=-3548c122c8d9b775|263=1|264=1|146=1|55=ANDINA-B|267=3|269=0|269=1|269=5|10=126|
20150504-13:30:01.582: 8=FIX.4.4|9=158|35=W|34=242|49=MKDATAFHBCS2|52=20150504-13:30:01.698|56=MKDATACL2|55=ANDINA-A|262=2bd31b933c594418|268=2|269=1|270=1525|271=2566|282=062|290=1|269=5|270=1510|10=138|
20150504-13:30:01.582: 8=FIX.4.4|9=142|35=V|34=154|49=MKDATACL2|52=20150504-13:30:01.582|56=MKDATAFHBCS2|262=365f19130d4747b7|263=1|264=1|146=1|55=CORPBANCA|267=3|269=0|269=1|269=5|10=135|
20150504-13:30:01.586: 8=FIX.4.4|9=138|35=V|34=155|49=MKDATACL2|52=20150504-13:30:01.585|56=MKDATAFHBCS2|262=7d8fc5da188245fa|263=1|264=1|146=1|55=CHILE|267=3|269=0|269=1|269=5|10=048|
20150504-13:30:01.588: 8=FIX.4.4|9=144|35=V|34=156|49=MKDATACL2|52=20150504-13:30:01.588|56=MKDATAFHBCS2|262=-41c3c9babe75b819|263=1|264=1|146=1|55=BSANTANDER|267=3|269=0|269=1|269=5|10=211|
20150504-13:30:01.593: 8=FIX.4.4|9=137|35=V|34=157|49=MKDATACL2|52=20150504-13:30:01.592|56=MKDATAFHBCS2|262=-2b6b1730398db202|263=1|264=1|146=1|55=CCU|267=3|269=0|269=1|269=5|10=046|
20150504-13:30:01.595: 8=FIX.4.4|9=142|35=V|34=158|49=MKDATACL2|52=20150504-13:30:01.595|56=MKDATAFHBCS2|262=-3d18c6382aa3b6e7|263=1|264=1|146=1|55=CENCOSUD|267=3|269=0|269=1|269=5|10=017|
20150504-13:30:01.599: 8=FIX.4.4|9=140|35=V|34=159|49=MKDATACL2|52=20150504-13:30:01.597|56=MKDATAFHBCS2|262=3e426338b06d4f17|263=1|264=1|146=1|55=ENERSIS|267=3|269=0|269=1|269=5|10=075|
20150504-13:30:01.601: 8=FIX.4.4|9=197|35=W|34=243|49=MKDATAFHBCS2|52=20150504-13:30:01.713|56=MKDATACL2|55=ANDINA-B|262=-3548c122c8d9b775|268=3|269=0|270=1940|271=70|282=035|290=1|269=1|270=1959.9|271=4545|282=035|290=1|269=5|270=1940|10=162|
20150504-13:30:01.604: 8=FIX.4.4|9=205|35=W|34=244|49=MKDATAFHBCS2|52=20150504-13:30:01.713|56=MKDATACL2|55=CORPBANCA|262=365f19130d4747b7|268=3|269=0|270=6.81|271=1500000|282=088|290=1|269=1|270=6.928|271=1000000|282=086|290=1|269=5|270=6.929|10=036|
20150504-13:30:01.606: 8=FIX.4.4|9=139|35=V|34=160|49=MKDATACL2|52=20150504-13:30:01.605|56=MKDATAFHBCS2|262=1f3d22eb73fb42d7|263=1|264=1|146=1|55=ENDESA|267=3|269=0|269=1|269=5|10=100|
20150504-13:30:01.607: 8=FIX.4.4|9=199|35=W|34=245|49=MKDATAFHBCS2|52=20150504-13:30:01.729|56=MKDATACL2|55=CHILE|262=7d8fc5da188245fa|268=3|269=0|270=71.05|271=54445|282=059|290=1|269=1|270=71.25|271=150000|282=086|290=1|269=5|270=71.03|10=112|
20150504-13:30:01.610: 8=FIX.4.4|9=206|35=W|34=246|49=MKDATAFHBCS2|52=20150504-13:30:01.729|56=MKDATACL2|55=BSANTANDER|262=-41c3c9babe75b819|268=3|269=0|270=32.94|271=111820|282=086|290=1|269=1|270=33.19|271=262730|282=035|290=1|269=5|270=32.93|10=067|
20150504-13:30:01.611: 8=FIX.4.4|9=137|35=V|34=161|49=MKDATACL2|52=20150504-13:30:01.610|56=MKDATAFHBCS2|262=-6ff69fefd2cab4b5|263=1|264=1|146=1|55=LAN|267=3|269=0|269=1|269=5|10=084|
20150504-13:30:01.612: 8=FIX.4.4|9=194|35=W|34=247|49=MKDATAFHBCS2|52=20150504-13:30:01.729|56=MKDATACL2|55=CCU|262=-2b6b1730398db202|268=3|269=0|270=6510|271=277|282=090|290=1|269=1|270=6657.3|271=908|282=086|290=1|269=5|270=6657.3|10=201|
20150504-13:30:01.612: 8=FIX.4.4|9=139|35=V|34=162|49=MKDATACL2|52=20150504-13:30:01.611|56=MKDATAFHBCS2|262=-6416b7360970b15d|263=1|264=1|146=1|55=SQM-B|267=3|269=0|269=1|269=5|10=131|
20150504-13:30:01.614: 8=FIX.4.4|9=144|35=V|34=163|49=MKDATACL2|52=20150504-13:30:01.613|56=MKDATAFHBCS2|262=-4b2826c51972b2b0|263=1|264=1|146=1|55=CONCHATORO|267=3|269=0|269=1|269=5|10=060|
20150504-13:30:01.615: 8=FIX.4.4|9=197|35=W|34=248|49=MKDATAFHBCS2|52=20150504-13:30:01.729|56=MKDATACL2|55=CENCOSUD|262=-3d18c6382aa3b6e7|268=3|269=0|270=1580|271=67|282=035|290=1|269=1|270=1585|271=3162|282=090|290=1|269=5|270=1579.9|10=066|
20150504-13:30:01.618: 8=FIX.4.4|9=191|35=W|34=249|49=MKDATAFHBCS2|52=20150504-13:30:01.729|56=MKDATACL2|55=ENERSIS|262=3e426338b06d4f17|268=3|269=0|270=215|271=75000|282=059|290=1|269=1|270=216|271=18|282=035|290=1|269=5|270=216|10=147|
20150504-13:30:01.621: 8=FIX.4.4|9=197|35=W|34=250|49=MKDATAFHBCS2|52=20150504-13:30:01.729|56=MKDATACL2|55=ENDESA|262=1f3d22eb73fb42d7|268=3|269=0|270=940.2|271=21590|282=086|290=1|269=1|270=944.99|271=9552|282=035|290=1|269=5|270=943|10=057|
20150504-13:30:01.625: 8=FIX.4.4|9=191|35=W|34=251|49=MKDATAFHBCS2|52=20150504-13:30:01.745|56=MKDATACL2|55=LAN|262=-6ff69fefd2cab4b5|268=3|269=0|270=5890|271=168|282=082|290=1|269=1|270=5900|271=1044|282=035|290=1|269=5|270=5870|10=079|
20150504-13:30:01.627: 8=FIX.4.4|9=196|35=W|34=252|49=MKDATAFHBCS2|52=20150504-13:30:01.745|56=MKDATACL2|55=SQM-B|262=-6416b7360970b15d|268=3|269=0|270=13470|271=1000|282=020|290=1|269=1|270=13590|271=514|282=020|290=1|269=5|270=13515|10=237|
20150504-13:30:01.628: 8=FIX.4.4|9=203|35=W|34=253|49=MKDATAFHBCS2|52=20150504-13:30:01.745|56=MKDATACL2|55=CONCHATORO|262=-4b2826c51972b2b0|268=3|269=0|270=1247.3|271=1294|282=062|290=1|269=1|270=1255|271=3200|282=082|290=1|269=5|270=1247.3|10=016|
20150504-13:30:02.779: 8=FIX.4.4|9=141|35=V|34=164|49=MKDATACL2|52=20150504-13:30:02.778|56=MKDATAFHBCS2|262=2bd31b933c594418|263=2|264=1|146=1|55=ANDINA-A|267=3|269=0|269=1|269=5|10=074|
20150504-13:30:03.557: 8=FIX.4.4|9=144|35=V|34=165|49=MKDATACL2|52=20150504-13:30:03.557|56=MKDATAFHBCS2|262=-4b2826c51972b2b0|263=2|264=1|146=1|55=CONCHATORO|267=3|269=0|269=1|269=5|10=072|
20150504-13:30:04.172: 8=FIX.4.4|9=154|35=X|34=254|49=MKDATAFHBCS2|52=20150504-13:30:04.289|56=MKDATACL2|262=365f19130d4747b7|268=1|279=0|269=0|55=CORPBANCA|270=6.811|271=1310365|282=035|290=1|10=236|
20150504-13:30:05.293: 8=FIX.4.4|9=146|35=X|34=255|49=MKDATAFHBCS2|52=20150504-13:30:05.398|56=MKDATACL2|262=-2b6b1730398db202|268=1|279=0|269=0|55=CCU|270=6510.1|271=478|282=035|290=1|10=252|
20150504-13:30:06.235: 8=FIX.4.4|9=152|35=X|34=256|49=MKDATAFHBCS2|52=20150504-13:30:06.350|56=MKDATACL2|262=-3548c122c8d9b775|268=1|279=0|269=0|55=ANDINA-B|270=1942.4|271=6000|282=035|290=1|10=108|
20150504-13:30:06.249: 8=FIX.4.4|9=147|35=X|34=257|49=MKDATAFHBCS2|52=20150504-13:30:06.350|56=MKDATACL2|262=-2b6b1730398db202|268=1|279=0|269=0|55=CCU|270=6538.8|271=2000|282=035|290=1|10=036|
20150504-13:30:06.249: 8=FIX.4.4|9=130|35=X|34=258|49=MKDATAFHBCS2|52=20150504-13:30:06.350|56=MKDATACL2|262=7d8fc5da188245fa|268=1|279=1|269=5|55=CHILE|270=71.25|290=1|10=217|
20150504-13:30:06.278: 8=FIX.4.4|9=149|35=X|34=259|49=MKDATAFHBCS2|52=20150504-13:30:06.397|56=MKDATACL2|262=7d8fc5da188245fa|268=1|279=2|269=1|55=CHILE|270=71.25|271=150000|282=086|290=1|10=098|
20150504-13:30:06.278: 8=FIX.4.4|9=148|35=X|34=260|49=MKDATAFHBCS2|52=20150504-13:30:06.397|56=MKDATACL2|262=7d8fc5da188245fa|268=1|279=2|269=1|55=CHILE|270=71.25|271=50000|282=034|290=1|10=033|
20150504-13:30:06.278: 8=FIX.4.4|9=148|35=X|34=261|49=MKDATAFHBCS2|52=20150504-13:30:06.397|56=MKDATACL2|262=7d8fc5da188245fa|268=1|279=0|269=1|55=CHILE|270=71.25|271=50000|282=086|290=1|10=039|
20150504-13:30:06.279: 8=FIX.4.4|9=130|35=X|34=262|49=MKDATAFHBCS2|52=20150504-13:30:06.397|56=MKDATACL2|262=3e426338b06d4f17|268=1|279=1|269=5|55=ENERSIS|270=217|290=1|10=151|
20150504-13:30:06.308: 8=FIX.4.4|9=145|35=X|34=263|49=MKDATAFHBCS2|52=20150504-13:30:06.413|56=MKDATACL2|262=3e426338b06d4f17|268=1|279=2|269=1|55=ENERSIS|270=216|271=18|282=035|290=1|10=066|
20150504-13:30:06.309: 8=FIX.4.4|9=150|35=X|34=264|49=MKDATAFHBCS2|52=20150504-13:30:06.413|56=MKDATACL2|262=3e426338b06d4f17|268=1|279=2|269=1|55=ENERSIS|270=216.3|271=69412|282=082|290=1|10=063|
20150504-13:30:06.309: 8=FIX.4.4|9=152|35=X|34=265|49=MKDATAFHBCS2|52=20150504-13:30:06.413|56=MKDATACL2|262=3e426338b06d4f17|268=1|279=2|269=1|55=ENERSIS|270=216.99|271=100000|282=058|290=1|10=159|
20150504-13:30:06.309: 8=FIX.4.4|9=147|35=X|34=266|49=MKDATAFHBCS2|52=20150504-13:30:06.413|56=MKDATACL2|262=3e426338b06d4f17|268=1|279=2|269=1|55=ENERSIS|270=217|271=2256|282=072|290=1|10=175|
20150504-13:30:06.310: 8=FIX.4.4|9=149|35=X|34=267|49=MKDATAFHBCS2|52=20150504-13:30:06.413|56=MKDATACL2|262=3e426338b06d4f17|268=1|279=1|269=1|55=ENERSIS|270=217|271=101237|282=088|290=1|10=023|
20150504-13:30:06.310: 8=FIX.4.4|9=131|35=X|34=268|49=MKDATAFHBCS2|52=20150504-13:30:06.413|56=MKDATACL2|262=-6416b7360970b15d|268=1|279=1|269=5|55=SQM-B|270=13590|290=1|10=062|
20150504-13:30:06.310: 8=FIX.4.4|9=148|35=X|34=269|49=MKDATAFHBCS2|52=20150504-13:30:06.413|56=MKDATACL2|262=-6416b7360970b15d|268=1|279=0|269=0|55=SQM-B|270=13550|271=3000|282=035|290=1|10=074|
20150504-13:30:06.311: 8=FIX.4.4|9=147|35=X|34=270|49=MKDATAFHBCS2|52=20150504-13:30:06.413|56=MKDATACL2|262=-6416b7360970b15d|268=1|279=2|269=1|55=SQM-B|270=13590|271=514|282=020|290=1|10=025|
20150504-13:30:07.257: 8=FIX.4.4|9=130|35=X|34=271|49=MKDATAFHBCS2|52=20150504-13:30:07.381|56=MKDATACL2|262=7d8fc5da188245fa|268=1|279=1|269=5|55=CHILE|270=71.25|290=1|10=217|
20150504-13:30:07.272: 8=FIX.4.4|9=148|35=X|34=272|49=MKDATAFHBCS2|52=20150504-13:30:07.381|56=MKDATACL2|262=7d8fc5da188245fa|268=1|279=2|269=1|55=CHILE|270=71.25|271=50000|282=086|290=1|10=037|
20150504-13:30:07.272: 8=FIX.4.4|9=130|35=X|34=273|49=MKDATAFHBCS2|52=20150504-13:30:07.396|56=MKDATACL2|262=3e426338b06d4f17|268=1|279=1|269=5|55=ENERSIS|270=217|290=1|10=153|
20150504-13:30:07.292: 8=FIX.4.4|9=149|35=X|34=274|49=MKDATAFHBCS2|52=20150504-13:30:07.412|56=MKDATACL2|262=3e426338b06d4f17|268=1|279=2|269=1|55=ENERSIS|270=217|271=101237|282=088|290=1|10=022|
20150504-13:30:07.292: 8=FIX.4.4|9=148|35=X|34=275|49=MKDATAFHBCS2|52=20150504-13:30:07.412|56=MKDATACL2|262=3e426338b06d4f17|268=1|279=2|269=1|55=ENERSIS|270=217|271=35000|282=059|290=1|10=222|
20150504-13:30:07.292: 8=FIX.4.4|9=147|35=X|34=276|49=MKDATAFHBCS2|52=20150504-13:30:07.412|56=MKDATACL2|262=3e426338b06d4f17|268=1|279=0|269=1|55=ENERSIS|270=217|271=6237|282=059|290=1|10=182|
20150504-13:30:07.293: 8=FIX.4.4|9=131|35=X|34=277|49=MKDATAFHBCS2|52=20150504-13:30:07.412|56=MKDATACL2|262=-6416b7360970b15d|268=1|279=1|269=5|55=SQM-B|270=13600|290=1|10=054|
20150504-13:30:07.304: 8=FIX.4.4|9=147|35=X|34=278|49=MKDATAFHBCS2|52=20150504-13:30:07.427|56=MKDATACL2|262=-6416b7360970b15d|268=1|279=2|269=1|55=SQM-B|270=13599|271=889|282=091|290=1|10=071|
20150504-13:30:07.304: 8=FIX.4.4|9=146|35=X|34=279|49=MKDATAFHBCS2|52=20150504-13:30:07.427|56=MKDATACL2|262=-6416b7360970b15d|268=1|279=2|269=1|55=SQM-B|270=13600|271=74|282=062|290=1|10=246|
20150504-13:30:07.304: 8=FIX.4.4|9=147|35=X|34=280|49=MKDATAFHBCS2|52=20150504-13:30:07.427|56=MKDATACL2|262=-6416b7360970b15d|268=1|279=0|269=0|55=SQM-B|270=13590|271=650|282=035|290=1|10=036|
20150504-13:30:07.314: 8=FIX.4.4|9=148|35=X|34=281|49=MKDATAFHBCS2|52=20150504-13:30:07.427|56=MKDATACL2|262=7d8fc5da188245fa|268=1|279=0|269=0|55=CHILE|270=71.25|271=22288|282=035|290=1|10=046|
20150504-13:30:08.236: 8=FIX.4.4|9=149|35=X|34=282|49=MKDATAFHBCS2|52=20150504-13:30:08.348|56=MKDATACL2|262=7d8fc5da188245fa|268=1|279=0|269=0|55=CHILE|270=71.33|271=100000|282=035|290=1|10=077|
20150504-13:30:08.236: 8=FIX.4.4|9=148|35=X|34=283|49=MKDATAFHBCS2|52=20150504-13:30:08.348|56=MKDATACL2|262=7d8fc5da188245fa|268=1|279=2|269=1|55=CHILE|270=71.3|271=200000|282=072|290=1|10=031|
20150504-13:30:08.240: 8=FIX.4.4|9=148|35=X|34=284|49=MKDATAFHBCS2|52=20150504-13:30:08.364|56=MKDATACL2|262=-6416b7360970b15d|268=1|279=0|269=0|55=SQM-B|270=13674|271=2800|282=035|290=1|10=092|
20150504-13:30:08.241: 8=FIX.4.4|9=147|35=X|34=285|49=MKDATAFHBCS2|52=20150504-13:30:08.364|56=MKDATACL2|262=-6416b7360970b15d|268=1|279=2|269=1|55=SQM-B|270=13600|271=304|282=035|290=1|10=033|
20150504-13:30:08.250: 8=FIX.4.4|9=147|35=X|34=286|49=MKDATAFHBCS2|52=20150504-13:30:08.364|56=MKDATACL2|262=-6416b7360970b15d|268=1|279=2|269=1|55=SQM-B|270=13620|271=200|282=072|290=1|10=032|
20150504-13:30:08.265: 8=FIX.4.4|9=129|35=X|34=287|49=MKDATAFHBCS2|52=20150504-13:30:08.380|56=MKDATACL2|262=7d8fc5da188245fa|268=1|279=1|269=5|55=CHILE|270=71.3|290=1|10=180|
20150504-13:30:08.266: 8=FIX.4.4|9=131|35=X|34=288|49=MKDATAFHBCS2|52=20150504-13:30:08.380|56=MKDATACL2|262=-6416b7360970b15d|268=1|279=1|269=5|55=SQM-B|270=13620|290=1|10=063|
20150504-13:30:09.207: 8=FIX.4.4|9=149|35=X|34=289|49=MKDATAFHBCS2|52=20150504-13:30:09.316|56=MKDATACL2|262=7d8fc5da188245fa|268=1|279=0|269=0|55=CHILE|270=71.34|271=300000|282=035|290=1|10=083|
20150504-13:30:09.207: 8=FIX.4.4|9=148|35=X|34=290|49=MKDATAFHBCS2|52=20150504-13:30:09.332|56=MKDATACL2|262=-6416b7360970b15d|268=1|279=0|269=0|55=SQM-B|270=13704|271=3000|282=035|290=1|10=072|
20150504-13:30:10.202: 8=FIX.4.4|9=149|35=X|34=291|49=MKDATAFHBCS2|52=20150504-13:30:10.316|56=MKDATACL2|262=7d8fc5da188245fa|268=1|279=0|269=0|55=CHILE|270=71.36|271=300000|282=035|290=1|10=070|
20150504-13:30:11.224: 8=FIX.4.4|9=148|35=X|34=292|49=MKDATAFHBCS2|52=20150504-13:30:11.346|56=MKDATACL2|262=-6416b7360970b15d|268=1|279=2|269=0|55=SQM-B|270=13704|271=3000|282=035|290=1|10=074|
20150504-13:30:11.225: 8=FIX.4.4|9=148|35=X|34=293|49=MKDATAFHBCS2|52=20150504-13:30:11.346|56=MKDATACL2|262=-6416b7360970b15d|268=1|279=0|269=0|55=SQM-B|270=13649|271=3000|282=035|290=1|10=081|
20150504-13:30:12.212: 8=FIX.4.4|9=130|35=X|34=294|49=MKDATAFHBCS2|52=20150504-13:30:12.330|56=MKDATACL2|262=7d8fc5da188245fa|268=1|279=1|269=5|55=CHILE|270=71.37|290=1|10=215|
20150504-13:30:12.244: 8=FIX.4.4|9=149|35=X|34=295|49=MKDATAFHBCS2|52=20150504-13:30:12.345|56=MKDATACL2|262=7d8fc5da188245fa|268=1|279=2|269=0|55=CHILE|270=71.36|271=300000|282=035|290=1|10=080|
20150504-13:30:12.245: 8=FIX.4.4|9=149|35=X|34=296|49=MKDATAFHBCS2|52=20150504-13:30:12.345|56=MKDATACL2|262=7d8fc5da188245fa|268=1|279=2|269=1|55=CHILE|270=71.37|271=100000|282=058|290=1|10=086|
20150504-13:30:12.245: 8=FIX.4.4|9=149|35=X|34=297|49=MKDATAFHBCS2|52=20150504-13:30:12.345|56=MKDATACL2|262=7d8fc5da188245fa|268=1|279=0|269=1|55=CHILE|270=71.37|271=100000|282=058|290=1|10=085|
20150504-13:30:12.245: 8=FIX.4.4|9=130|35=X|34=298|49=MKDATAFHBCS2|52=20150504-13:30:12.345|56=MKDATACL2|262=3e426338b06d4f17|268=1|279=1|269=5|55=ENERSIS|270=217|290=1|10=150|
20150504-13:30:12.268: 8=FIX.4.4|9=148|35=X|34=299|49=MKDATAFHBCS2|52=20150504-13:30:12.376|56=MKDATACL2|262=-6416b7360970b15d|268=1|279=0|269=0|55=SQM-B|270=13704|271=3000|282=035|290=1|10=083|
20150504-13:30:12.269: 8=FIX.4.4|9=148|35=X|34=300|49=MKDATAFHBCS2|52=20150504-13:30:12.376|56=MKDATACL2|262=3e426338b06d4f17|268=1|279=0|269=0|55=ENERSIS|270=217|271=98763|282=035|290=1|10=232|
20150504-13:30:12.269: 8=FIX.4.4|9=148|35=X|34=301|49=MKDATAFHBCS2|52=20150504-13:30:12.376|56=MKDATACL2|262=-6416b7360970b15d|268=1|279=0|269=1|55=SQM-B|270=13741|271=1077|282=066|290=1|10=085|
20150504-13:30:12.269: 8=FIX.4.4|9=147|35=X|34=302|49=MKDATAFHBCS2|52=20150504-13:30:12.392|56=MKDATACL2|262=3e426338b06d4f17|268=1|279=2|269=1|55=ENERSIS|270=217|271=6237|282=059|290=1|10=177|
20150504-13:30:13.256: 8=FIX.4.4|9=133|35=X|34=303|49=MKDATAFHBCS2|52=20150504-13:30:13.376|56=MKDATACL2|262=3e426338b06d4f17|268=1|279=1|269=5|55=ENERSIS|270=218.88|290=1|10=048|
20150504-13:30:13.268: 8=FIX.4.4|9=151|35=X|34=304|49=MKDATAFHBCS2|52=20150504-13:30:13.391|56=MKDATACL2|262=3e426338b06d4f17|268=1|279=2|269=1|55=ENERSIS|270=218.88|271=18777|282=072|290=1|10=132|
20150504-13:30:13.269: 8=FIX.4.4|9=151|35=X|34=305|49=MKDATAFHBCS2|52=20150504-13:30:13.391|56=MKDATACL2|262=3e426338b06d4f17|268=1|279=2|269=1|55=ENERSIS|270=218.88|271=37231|282=035|290=1|10=118|
20150504-13:30:13.281: 8=FIX.4.4|9=130|35=X|34=306|49=MKDATAFHBCS2|52=20150504-13:30:13.407|56=MKDATACL2|262=7d8fc5da188245fa|268=1|279=1|269=5|55=CHILE|270=71.37|290=1|10=215|
20150504-13:30:13.284: 8=FIX.4.4|9=148|35=X|34=307|49=MKDATAFHBCS2|52=20150504-13:30:13.407|56=MKDATACL2|262=-6416b7360970b15d|268=1|279=2|269=0|55=SQM-B|270=13704|271=3000|282=035|290=1|10=071|
20150504-13:30:13.284: 8=FIX.4.4|9=148|35=X|34=308|49=MKDATAFHBCS2|52=20150504-13:30:13.407|56=MKDATACL2|262=-6416b7360970b15d|268=1|279=0|269=0|55=SQM-B|270=13704|271=3000|282=035|290=1|10=070|
20150504-13:30:13.286: 8=FIX.4.4|9=149|35=X|34=309|49=MKDATAFHBCS2|52=20150504-13:30:13.407|56=MKDATACL2|262=7d8fc5da188245fa|268=1|279=2|269=1|55=CHILE|270=71.37|271=100000|282=058|290=1|10=081|
20150504-13:30:13.286: 8=FIX.4.4|9=148|35=X|34=310|49=MKDATAFHBCS2|52=20150504-13:30:13.407|56=MKDATACL2|262=7d8fc5da188245fa|268=1|279=0|269=1|55=CHILE|270=71.37|271=77712|282=058|290=1|10=045|
20150504-13:30:13.287: 8=FIX.4.4|9=152|35=X|34=311|49=MKDATAFHBCS2|52=20150504-13:30:13.407|56=MKDATACL2|262=3e426338b06d4f17|268=1|279=0|269=0|55=ENERSIS|270=219.98|271=200000|282=035|290=1|10=147|
20150504-13:30:13.298: 8=FIX.4.4|9=147|35=X|34=312|49=MKDATAFHBCS2|52=20150504-13:30:13.422|56=MKDATACL2|262=7d8fc5da188245fa|268=1|279=2|269=0|55=CHILE|270=71.3|271=22288|282=035|290=1|10=238|
20150504-13:30:13.298: 8=FIX.4.4|9=149|35=X|34=313|49=MKDATAFHBCS2|52=20150504-13:30:13.422|56=MKDATACL2|262=7d8fc5da188245fa|268=1|279=2|269=0|55=CHILE|270=71.25|271=300000|282=035|290=1|10=066|
20150504-13:30:14.199: 8=FIX.4.4|9=148|35=X|34=314|49=MKDATAFHBCS2|52=20150504-13:30:14.312|56=MKDATACL2|262=7d8fc5da188245fa|268=1|279=0|269=0|55=CHILE|270=71.06|271=28770|282=035|290=1|10=035|
20150504-13:30:15.207: 8=FIX.4.4|9=148|35=X|34=315|49=MKDATAFHBCS2|52=20150504-13:30:15.327|56=MKDATACL2|262=-6416b7360970b15d|268=1|279=0|269=1|55=SQM-B|270=13722|271=1077|282=066|290=1|10=088|
20150504-13:30:15.208: 8=FIX.4.4|9=148|35=X|34=316|49=MKDATAFHBCS2|52=20150504-13:30:15.327|56=MKDATACL2|262=-6416b7360970b15d|268=1|279=2|269=0|55=SQM-B|270=13704|271=3000|282=035|290=1|10=074|
20150504-13:30:15.208: 8=FIX.4.4|9=148|35=X|34=317|49=MKDATAFHBCS2|52=20150504-13:30:15.327|56=MKDATACL2|262=-6416b7360970b15d|268=1|279=0|269=0|55=SQM-B|270=13655|271=3000|282=035|290=1|10=078|
20150504-13:30:16.199: 8=FIX.4.4|9=148|35=X|34=318|49=MKDATAFHBCS2|52=20150504-13:30:16.326|56=MKDATACL2|262=-6416b7360970b15d|268=1|279=0|269=0|55=SQM-B|270=13704|271=3000|282=035|290=1|10=074|
20150504-13:30:17.215: 8=FIX.4.4|9=131|35=X|34=319|49=MKDATAFHBCS2|52=20150504-13:30:17.341|56=MKDATACL2|262=-6416b7360970b15d|268=1|279=1|269=5|55=SQM-B|270=13704|290=1|10=058|
20150504-13:30:17.224: 8=FIX.4.4|9=148|35=X|34=320|49=MKDATAFHBCS2|52=20150504-13:30:17.357|56=MKDATACL2|262=-6416b7360970b15d|268=1|279=2|269=0|55=SQM-B|270=13704|271=3000|282=035|290=1|10=074|
20150504-13:30:18.240: 8=FIX.4.4|9=147|35=X|34=321|49=MKDATAFHBCS2|52=20150504-13:30:18.356|56=MKDATACL2|262=-6416b7360970b15d|268=1|279=0|269=0|55=SQM-B|270=13704|271=346|282=035|290=1|10=034|
20150504-13:30:18.240: 8=FIX.4.4|9=148|35=X|34=322|49=MKDATAFHBCS2|52=20150504-13:30:18.356|56=MKDATACL2|262=-6416b7360970b15d|268=1|279=0|269=1|55=SQM-B|270=13717|271=1077|282=066|290=1|10=095|
20150504-13:30:19.288: 8=FIX.4.4|9=128|35=X|34=323|49=MKDATAFHBCS2|52=20150504-13:30:19.418|56=MKDATACL2|262=-6ff69fefd2cab4b5|268=1|279=1|269=5|55=LAN|270=5900|290=1|10=230|
20150504-13:30:19.305: 8=FIX.4.4|9=145|35=X|34=324|49=MKDATAFHBCS2|52=20150504-13:30:19.433|56=MKDATACL2|262=-6ff69fefd2cab4b5|268=1|279=2|269=1|55=LAN|270=5900|271=1044|282=035|290=1|10=243|
20150504-13:30:19.305: 8=FIX.4.4|9=145|35=X|34=325|49=MKDATAFHBCS2|52=20150504-13:30:19.433|56=MKDATACL2|262=-6ff69fefd2cab4b5|268=1|279=0|269=1|55=LAN|270=5900|271=1044|282=035|290=1|10=242|
20150504-13:30:20.284: 8=FIX.4.4|9=128|35=X|34=326|49=MKDATAFHBCS2|52=20150504-13:30:20.417|56=MKDATACL2|262=-6ff69fefd2cab4b5|268=1|279=1|269=5|55=LAN|270=5900|290=1|10=224|
20150504-13:30:20.291: 8=FIX.4.4|9=145|35=X|34=327|49=MKDATAFHBCS2|52=20150504-13:30:20.417|56=MKDATACL2|262=-6ff69fefd2cab4b5|268=1|279=2|269=1|55=LAN|270=5900|271=1044|282=035|290=1|10=240|
20150504-13:30:20.291: 8=FIX.4.4|9=145|35=X|34=328|49=MKDATAFHBCS2|52=20150504-13:30:20.417|56=MKDATACL2|262=-6ff69fefd2cab4b5|268=1|279=0|269=1|55=LAN|270=5900|271=1044|282=035|290=1|10=239|
20150504-13:30:21.484: 8=FIX.4.4|9=147|35=X|34=329|49=MKDATAFHBCS2|52=20150504-13:30:21.603|56=MKDATACL2|262=-2b6b1730398db202|268=1|279=0|269=0|55=CCU|270=6538.9|271=2000|282=070|290=1|10=034|
20150504-13:30:21.484: 8=FIX.4.4|9=128|35=X|34=330|49=MKDATAFHBCS2|52=20150504-13:30:21.603|56=MKDATACL2|262=-6ff69fefd2cab4b5|268=1|279=1|269=5|55=LAN|270=5900|290=1|10=217|
20150504-13:30:21.496: 8=FIX.4.4|9=144|35=X|34=331|49=MKDATAFHBCS2|52=20150504-13:30:21.619|56=MKDATACL2|262=-6ff69fefd2cab4b5|268=1|279=1|269=1|55=LAN|270=5900|271=888|282=035|290=1|10=205|
20150504-13:30:21.497: 8=FIX.4.4|9=131|35=X|34=332|49=MKDATAFHBCS2|52=20150504-13:30:21.619|56=MKDATACL2|262=-6416b7360970b15d|268=1|279=1|269=5|55=SQM-B|270=13704|290=1|10=056|
20150504-13:30:21.513: 8=FIX.4.4|9=147|35=X|34=333|49=MKDATAFHBCS2|52=20150504-13:30:21.634|56=MKDATACL2|262=-6416b7360970b15d|268=1|279=2|269=0|55=SQM-B|270=13704|271=346|282=035|290=1|10=032|
20150504-13:30:21.514: 8=FIX.4.4|9=148|35=X|34=334|49=MKDATAFHBCS2|52=20150504-13:30:21.634|56=MKDATACL2|262=-6416b7360970b15d|268=1|279=0|269=1|55=SQM-B|270=13712|271=1077|282=066|290=1|10=086|
20150504-13:30:22.295: 8=FIX.4.4|9=145|35=X|34=335|49=MKDATAFHBCS2|52=20150504-13:30:22.431|56=MKDATACL2|262=-2b6b1730398db202|268=1|279=0|269=0|55=CCU|270=6539|271=2000|282=035|290=1|10=184|
20150504-13:30:22.296: 8=FIX.4.4|9=152|35=X|34=336|49=MKDATAFHBCS2|52=20150504-13:30:22.431|56=MKDATACL2|262=3e426338b06d4f17|268=1|279=2|269=0|55=ENERSIS|270=219.98|271=200000|282=035|290=1|10=153|
20150504-13:30:22.317: 8=FIX.4.4|9=144|35=X|34=337|49=MKDATAFHBCS2|52=20150504-13:30:22.431|56=MKDATACL2|262=-6ff69fefd2cab4b5|268=1|279=2|269=1|55=LAN|270=5900|271=888|282=035|290=1|10=205|
20150504-13:30:22.342: 8=FIX.4.4|9=144|35=X|34=338|49=MKDATAFHBCS2|52=20150504-13:30:22.431|56=MKDATACL2|262=-6ff69fefd2cab4b5|268=1|279=0|269=1|55=LAN|270=5900|271=888|282=035|290=1|10=204|
20150504-13:30:22.342: 8=FIX.4.4|9=133|35=X|34=339|49=MKDATAFHBCS2|52=20150504-13:30:22.446|56=MKDATACL2|262=3e426338b06d4f17|268=1|279=1|269=5|55=ENERSIS|270=219.98|290=1|10=057|
20150504-13:30:22.346: 8=FIX.4.4|9=128|35=X|34=340|49=MKDATAFHBCS2|52=20150504-13:30:22.446|56=MKDATACL2|262=-6ff69fefd2cab4b5|268=1|279=1|269=5|55=LAN|270=5900|290=1|10=224|
20150504-13:30:23.249: 8=FIX.4.4|9=149|35=X|34=341|49=MKDATAFHBCS2|52=20150504-13:30:23.383|56=MKDATACL2|262=7d8fc5da188245fa|268=1|279=0|269=0|55=CHILE|270=71.07|271=300000|282=070|290=1|10=071|
20150504-13:30:23.318: 8=FIX.4.4|9=147|35=X|34=342|49=MKDATAFHBCS2|52=20150504-13:30:23.383|56=MKDATACL2|262=-6416b7360970b15d|268=1|279=0|269=1|55=SQM-B|270=13694|271=481|282=066|290=1|10=046|
20150504-13:30:23.318: 8=FIX.4.4|9=144|35=X|34=343|49=MKDATAFHBCS2|52=20150504-13:30:23.383|56=MKDATACL2|262=-6ff69fefd2cab4b5|268=1|279=2|269=1|55=LAN|270=5900|271=888|282=035|290=1|10=209|
20150504-13:30:23.319: 8=FIX.4.4|9=144|35=X|34=344|49=MKDATAFHBCS2|52=20150504-13:30:23.383|56=MKDATACL2|262=-6ff69fefd2cab4b5|268=1|279=0|269=1|55=LAN|270=5900|271=888|282=035|290=1|10=208|
20150504-13:30:23.319: 8=FIX.4.4|9=128|35=X|34=345|49=MKDATAFHBCS2|52=20150504-13:30:23.399|56=MKDATACL2|262=-6ff69fefd2cab4b5|268=1|279=1|269=5|55=LAN|270=5900|290=1|10=237|
20150504-13:30:24.312: 8=FIX.4.4|9=144|35=X|34=346|49=MKDATAFHBCS2|52=20150504-13:30:24.413|56=MKDATACL2|262=-6ff69fefd2cab4b5|268=1|279=2|269=1|55=LAN|270=5900|271=888|282=035|290=1|10=207|
20150504-13:30:24.313: 8=FIX.4.4|9=145|35=X|34=347|49=MKDATAFHBCS2|52=20150504-13:30:24.413|56=MKDATACL2|262=-6ff69fefd2cab4b5|268=1|279=0|269=1|55=LAN|270=5900|271=1044|282=035|290=1|10=240|
20150504-13:30:24.313: 8=FIX.4.4|9=148|35=X|34=348|49=MKDATAFHBCS2|52=20150504-13:30:24.413|56=MKDATACL2|262=-6416b7360970b15d|268=1|279=0|269=1|55=SQM-B|270=13594|271=1077|282=066|290=1|10=097|
20150504-13:30:24.313: 8=FIX.4.4|9=128|35=X|34=349|49=MKDATAFHBCS2|52=20150504-13:30:24.429|56=MKDATACL2|262=-6ff69fefd2cab4b5|268=1|279=1|269=5|55=LAN|270=5900|290=1|10=236|
20150504-13:30:25.297: 8=FIX.4.4|9=128|35=X|34=350|49=MKDATAFHBCS2|52=20150504-13:30:25.413|56=MKDATACL2|262=-6ff69fefd2cab4b5|268=1|279=1|269=5|55=LAN|270=5900|290=1|10=222|
20150504-13:30:25.298: 8=FIX.4.4|9=144|35=X|34=351|49=MKDATAFHBCS2|52=20150504-13:30:25.428|56=MKDATACL2|262=-6ff69fefd2cab4b5|268=1|279=1|269=1|55=LAN|270=5900|271=579|282=035|290=1|10=206|
20150504-13:30:27.269: 8=FIX.4.4|9=147|35=X|34=352|49=MKDATAFHBCS2|52=20150504-13:30:27.395|56=MKDATACL2|262=-2b6b1730398db202|268=1|279=0|269=0|55=CCU|270=6539.1|271=2000|282=070|290=1|10=037|
20150504-13:30:27.269: 8=FIX.4.4|9=131|35=X|34=353|49=MKDATAFHBCS2|52=20150504-13:30:27.395|56=MKDATACL2|262=-6416b7360970b15d|268=1|279=1|269=5|55=SQM-B|270=13594|290=1|10=073|
20150504-13:30:27.282: 8=FIX.4.4|9=148|35=X|34=354|49=MKDATAFHBCS2|52=20150504-13:30:27.411|56=MKDATACL2|262=-6416b7360970b15d|268=1|279=0|269=0|55=SQM-B|270=13594|271=1923|282=035|290=1|10=090|
20150504-13:30:27.282: 8=FIX.4.4|9=148|35=X|34=355|49=MKDATAFHBCS2|52=20150504-13:30:27.411|56=MKDATACL2|262=-6416b7360970b15d|268=1|279=2|269=1|55=SQM-B|270=13594|271=1077|282=066|290=1|10=098|
20150504-13:30:27.282: 8=FIX.4.4|9=147|35=X|34=356|49=MKDATAFHBCS2|52=20150504-13:30:27.411|56=MKDATACL2|262=-6416b7360970b15d|268=1|279=0|269=1|55=SQM-B|270=13674|271=481|282=066|290=1|10=045|
20150504-13:30:28.267: 8=FIX.4.4|9=148|35=X|34=357|49=MKDATAFHBCS2|52=20150504-13:30:28.395|56=MKDATACL2|262=-6416b7360970b15d|268=1|279=0|269=0|55=SQM-B|270=13631|271=3000|282=035|290=1|10=085|
20150504-13:30:28.268: 8=FIX.4.4|9=147|35=X|34=358|49=MKDATAFHBCS2|52=20150504-13:30:28.395|56=MKDATACL2|262=-2b6b1730398db202|268=1|279=0|269=0|55=CCU|270=6539.2|271=2000|282=035|290=1|10=046|
20150504-13:30:28.268: 8=FIX.4.4|9=149|35=X|34=359|49=MKDATAFHBCS2|52=20150504-13:30:28.395|56=MKDATACL2|262=3e426338b06d4f17|268=1|279=0|269=0|55=ENERSIS|270=217|271=200000|282=035|290=1|10=016|
20150504-13:30:29.301: 8=FIX.4.4|9=152|35=X|34=360|49=MKDATAFHBCS2|52=20150504-13:30:29.441|56=MKDATACL2|262=3e426338b06d4f17|268=1|279=0|269=0|55=ENERSIS|270=219.86|271=200000|282=035|290=1|10=153|
20150504-13:30:30.330: 8=FIX.4.4|9=147|35=X|34=361|49=MKDATAFHBCS2|52=20150504-13:30:30.471|56=MKDATACL2|262=-6416b7360970b15d|268=1|279=0|269=1|55=SQM-B|270=13661|271=481|282=066|290=1|10=037|
20150504-13:30:31.234: 8=FIX.4.4|9=152|35=X|34=362|49=MKDATAFHBCS2|52=20150504-13:30:31.376|56=MKDATACL2|262=3e426338b06d4f17|268=1|279=0|269=1|55=ENERSIS|270=219.98|271=200000|282=088|290=1|10=167|
20150504-13:30:32.276: 8=FIX.4.4|9=147|35=X|34=363|49=MKDATAFHBCS2|52=20150504-13:30:32.407|56=MKDATACL2|262=-2b6b1730398db202|268=1|279=0|269=0|55=CCU|270=6539.3|271=2000|282=070|290=1|10=031|
20150504-13:30:33.302: 8=FIX.4.4|9=147|35=X|34=364|49=MKDATAFHBCS2|52=20150504-13:30:33.437|56=MKDATACL2|262=-2b6b1730398db202|268=1|279=0|269=0|55=CCU|270=6539.4|271=2000|282=035|290=1|10=038|
20150504-13:30:33.302: 8=FIX.4.4|9=147|35=X|34=365|49=MKDATAFHBCS2|52=20150504-13:30:33.437|56=MKDATACL2|262=-6416b7360970b15d|268=1|279=0|269=1|55=SQM-B|270=13657|271=236|282=066|290=1|10=049|
20150504-13:30:34.314: 8=FIX.4.4|9=133|35=X|34=366|49=MKDATAFHBCS2|52=20150504-13:30:34.452|56=MKDATACL2|262=3e426338b06d4f17|268=1|279=1|269=5|55=ENERSIS|270=219.86|290=1|10=054|
20150504-13:30:34.324: 8=FIX.4.4|9=152|35=X|34=367|49=MKDATAFHBCS2|52=20150504-13:30:34.468|56=MKDATACL2|262=3e426338b06d4f17|268=1|279=2|269=0|55=ENERSIS|270=219.86|271=200000|282=035|290=1|10=167|
20150504-13:30:34.324: 8=FIX.4.4|9=151|35=X|34=368|49=MKDATAFHBCS2|52=20150504-13:30:34.468|56=MKDATACL2|262=3e426338b06d4f17|268=1|279=0|269=0|55=ENERSIS|270=215.05|271=75000|282=059|290=1|10=120|
20150504-13:30:34.324: 8=FIX.4.4|9=147|35=X|34=369|49=MKDATAFHBCS2|52=20150504-13:30:34.468|56=MKDATACL2|262=-6416b7360970b15d|268=1|279=0|269=1|55=SQM-B|270=13649|271=481|282=066|290=1|10=061|
20150504-13:30:36.293: 8=FIX.4.4|9=147|35=X|34=370|49=MKDATAFHBCS2|52=20150504-13:30:36.419|56=MKDATACL2|262=-2b6b1730398db202|268=1|279=0|269=0|55=CCU|270=6539.5|271=2000|282=070|290=1|10=038|
20150504-13:30:37.456: 8=FIX.4.4|9=147|35=X|34=371|49=MKDATAFHBCS2|52=20150504-13:30:37.606|56=MKDATACL2|262=-6416b7360970b15d|268=1|279=0|269=1|55=SQM-B|270=13639|271=481|282=066|290=1|10=050|
20150504-13:30:38.461: 8=FIX.4.4|9=147|35=X|34=372|49=MKDATAFHBCS2|52=20150504-13:30:38.605|56=MKDATACL2|262=-2b6b1730398db202|268=1|279=0|269=0|55=CCU|270=6539.6|271=2000|282=035|290=1|10=041|
20150504-13:30:38.475: 8=FIX.4.4|9=152|35=X|34=373|49=MKDATAFHBCS2|52=20150504-13:30:38.621|56=MKDATACL2|262=3e426338b06d4f17|268=1|279=0|269=1|55=ENERSIS|270=219.86|271=200000|282=088|290=1|10=166|
20150504-13:30:38.475: 8=FIX.4.4|9=152|35=X|34=374|49=MKDATAFHBCS2|52=20150504-13:30:38.621|56=MKDATACL2|262=3e426338b06d4f17|268=1|279=0|269=0|55=ENERSIS|270=215.06|271=200000|282=070|290=1|10=145|
20150504-13:30:40.308: 8=FIX.4.4|9=131|35=X|34=375|49=MKDATAFHBCS2|52=20150504-13:30:40.447|56=MKDATACL2|262=-6416b7360970b15d|268=1|279=1|269=5|55=SQM-B|270=13644|290=1|10=066|
20150504-13:30:40.315: 8=FIX.4.4|9=148|35=X|34=376|49=MKDATAFHBCS2|52=20150504-13:30:40.462|56=MKDATACL2|262=-6416b7360970b15d|268=1|279=0|269=0|55=SQM-B|270=13669|271=2283|282=035|290=1|10=098|
20150504-13:30:40.322: 8=FIX.4.4|9=147|35=X|34=377|49=MKDATAFHBCS2|52=20150504-13:30:40.462|56=MKDATACL2|262=-6416b7360970b15d|268=1|279=2|269=1|55=SQM-B|270=13639|271=481|282=066|290=1|10=052|
20150504-13:30:40.323: 8=FIX.4.4|9=147|35=X|34=378|49=MKDATAFHBCS2|52=20150504-13:30:40.462|56=MKDATACL2|262=-6416b7360970b15d|268=1|279=2|269=1|55=SQM-B|270=13644|271=236|282=066|290=1|10=047|
20150504-13:30:41.256: 8=FIX.4.4|9=131|35=X|34=379|49=MKDATAFHBCS2|52=20150504-13:30:41.399|56=MKDATACL2|262=-6416b7360970b15d|268=1|279=1|269=5|55=SQM-B|270=13669|290=1|10=084|
20150504-13:30:41.262: 8=FIX.4.4|9=148|35=X|34=380|49=MKDATAFHBCS2|52=20150504-13:30:41.414|56=MKDATACL2|262=-6416b7360970b15d|268=1|279=2|269=0|55=SQM-B|270=13669|271=2283|282=035|290=1|10=093|
20150504-13:30:41.263: 8=FIX.4.4|9=148|35=X|34=381|49=MKDATAFHBCS2|52=20150504-13:30:41.414|56=MKDATACL2|262=-6416b7360970b15d|268=1|279=0|269=0|55=SQM-B|270=13669|271=2853|282=035|290=1|10=095|
20150504-13:30:42.264: 8=FIX.4.4|9=148|35=X|34=382|49=MKDATAFHBCS2|52=20150504-13:30:42.398|56=MKDATACL2|262=-6416b7360970b15d|268=1|279=2|269=0|55=SQM-B|270=13669|271=2853|282=035|290=1|10=110|
20150504-13:30:42.265: 8=FIX.4.4|9=148|35=X|34=383|49=MKDATAFHBCS2|52=20150504-13:30:42.398|56=MKDATACL2|262=-6416b7360970b15d|268=1|279=0|269=0|55=SQM-B|270=13644|271=3000|282=035|290=1|10=087|
20150504-13:30:42.265: 8=FIX.4.4|9=147|35=X|34=384|49=MKDATAFHBCS2|52=20150504-13:30:42.398|56=MKDATACL2|262=-2b6b1730398db202|268=1|279=0|269=0|55=CCU|270=6539.7|271=2000|282=070|290=1|10=048|
20150504-13:30:43.273: 8=FIX.4.4|9=147|35=X|34=385|49=MKDATAFHBCS2|52=20150504-13:30:43.412|56=MKDATACL2|262=-2b6b1730398db202|268=1|279=0|269=0|55=CCU|270=6539.8|271=2000|282=035|290=1|10=039|
20150504-13:30:44.332: 8=FIX.4.4|9=152|35=X|34=386|49=MKDATAFHBCS2|52=20150504-13:30:44.473|56=MKDATACL2|262=-3d18c6382aa3b6e7|268=1|279=0|269=0|55=CENCOSUD|270=1580.1|271=5127|282=035|290=1|10=012|
20150504-13:30:44.333: 8=FIX.4.4|9=148|35=X|34=387|49=MKDATAFHBCS2|52=20150504-13:30:44.473|56=MKDATACL2|262=-6416b7360970b15d|268=1|279=2|269=0|55=SQM-B|270=13644|271=3000|282=035|290=1|10=089|
20150504-13:30:44.333: 8=FIX.4.4|9=148|35=X|34=388|49=MKDATAFHBCS2|52=20150504-13:30:44.473|56=MKDATACL2|262=-6416b7360970b15d|268=1|279=0|269=0|55=SQM-B|270=13595|271=3000|282=035|290=1|10=093|
20150504-13:30:45.320: 8=FIX.4.4|9=148|35=X|34=389|49=MKDATAFHBCS2|52=20150504-13:30:45.472|56=MKDATACL2|262=-6416b7360970b15d|268=1|279=0|269=0|55=SQM-B|270=13650|271=3000|282=035|290=1|10=086|
20150504-13:30:46.256: 8=FIX.4.4|9=147|35=X|34=390|49=MKDATAFHBCS2|52=20150504-13:30:46.408|56=MKDATACL2|262=-2b6b1730398db202|268=1|279=0|269=0|55=CCU|270=6539.9|271=2000|282=070|290=1|10=043|
20150504-13:30:46.258: 8=FIX.4.4|9=148|35=X|34=391|49=MKDATAFHBCS2|52=20150504-13:30:46.408|56=MKDATACL2|262=-6416b7360970b15d|268=1|279=2|269=0|55=SQM-B|270=13650|271=3000|282=035|290=1|10=081|
20150504-13:30:46.259: 8=FIX.4.4|9=148|35=X|34=392|49=MKDATAFHBCS2|52=20150504-13:30:46.408|56=MKDATACL2|262=-6416b7360970b15d|268=1|279=0|269=0|55=SQM-B|270=13644|271=3000|282=035|290=1|10=083|
20150504-13:30:47.299: 8=FIX.4.4|9=145|35=X|34=393|49=MKDATAFHBCS2|52=20150504-13:30:47.438|56=MKDATACL2|262=-2b6b1730398db202|268=1|279=0|269=0|55=CCU|270=6540|271=2000|282=035|290=1|10=194|
20150504-13:30:48.296: 8=FIX.4.4|9=147|35=X|34=394|49=MKDATAFHBCS2|52=20150504-13:30:48.437|56=MKDATACL2|262=-6416b7360970b15d|268=1|279=0|269=1|55=SQM-B|270=13738|271=179|282=066|290=1|10=063|
20150504-13:30:49.350: 8=FIX.4.4|9=147|35=X|34=395|49=MKDATAFHBCS2|52=20150504-13:30:49.498|56=MKDATACL2|262=7d8fc5da188245fa|268=1|279=0|269=0|55=CHILE|270=71.1|271=65520|282=035|290=1|10=007|
20150504-13:30:50.397: 8=FIX.4.4|9=147|35=X|34=396|49=MKDATAFHBCS2|52=20150504-13:30:50.544|56=MKDATACL2|262=-2b6b1730398db202|268=1|279=0|269=0|55=CCU|270=6540.1|271=2000|282=070|290=1|10=029|
20150504-13:30:50.398: 8=FIX.4.4|9=148|35=X|34=397|49=MKDATAFHBCS2|52=20150504-13:30:50.544|56=MKDATACL2|262=-6416b7360970b15d|268=1|279=2|269=0|55=SQM-B|270=13644|271=3000|282=035|290=1|10=086|
20150504-13:30:50.398: 8=FIX.4.4|9=148|35=X|34=398|49=MKDATAFHBCS2|52=20150504-13:30:50.544|56=MKDATACL2|262=-6416b7360970b15d|268=1|279=0|269=0|55=SQM-B|270=13620|271=3000|282=035|290=1|10=079|
20150504-13:30:51.267: 8=FIX.4.4|9=147|35=X|34=399|49=MKDATAFHBCS2|52=20150504-13:30:51.418|56=MKDATACL2|262=-2b6b1730398db202|268=1|279=0|269=0|55=CCU|270=6540.2|271=2000|282=035|290=1|10=035|
20150504-13:30:51.270: 8=FIX.4.4|9=147|35=X|34=400|49=MKDATAFHBCS2|52=20150504-13:30:51.418|56=MKDATACL2|262=-6416b7360970b15d|268=1|279=0|269=1|55=SQM-B|270=13711|271=179|282=066|290=1|10=035|
20150504-13:30:54.339: 8=FIX.4.4|9=149|35=X|34=401|49=MKDATAFHBCS2|52=20150504-13:30:54.477|56=MKDATACL2|262=7d8fc5da188245fa|268=1|279=0|269=0|55=CHILE|270=71.11|271=300000|282=070|290=1|10=071|
20150504-13:30:54.340: 8=FIX.4.4|9=147|35=X|34=402|49=MKDATAFHBCS2|52=20150504-13:30:54.477|56=MKDATACL2|262=-2b6b1730398db202|268=1|279=0|269=0|55=CCU|270=6540.3|271=2000|282=070|290=1|10=028|
20150504-13:30:54.340: 8=FIX.4.4|9=147|35=X|34=403|49=MKDATAFHBCS2|52=20150504-13:30:54.477|56=MKDATACL2|262=-6416b7360970b15d|268=1|279=0|269=1|55=SQM-B|270=13682|271=179|282=066|290=1|10=053|
20150504-13:30:55.279: 8=FIX.4.4|9=147|35=X|34=404|49=MKDATAFHBCS2|52=20150504-13:30:55.429|56=MKDATACL2|262=-2b6b1730398db202|268=1|279=0|269=0|55=CCU|270=6540.4|271=2000|282=035|290=1|10=030|
20150504-13:30:58.312: 8=FIX.4.4|9=147|35=X|34=405|49=MKDATAFHBCS2|52=20150504-13:30:58.457|56=MKDATACL2|262=-6416b7360970b15d|268=1|279=0|269=1|55=SQM-B|270=13654|271=179|282=066|290=1|10=056|
20150504-13:30:58.312: 8=FIX.4.4|9=151|35=X|34=406|49=MKDATAFHBCS2|52=20150504-13:30:58.457|56=MKDATACL2|262=3e426338b06d4f17|268=1|279=0|269=1|55=ENERSIS|270=219.8|271=100000|282=076|290=1|10=113|
20150504-13:30:59.301: 8=FIX.4.4|9=147|35=X|34=407|49=MKDATAFHBCS2|52=20150504-13:30:59.455|56=MKDATACL2|262=-2b6b1730398db202|268=1|279=0|269=0|55=CCU|270=6540.5|271=2000|282=070|290=1|10=036|
20150504-13:31:00.370: 8=FIX.4.4|9=147|35=X|34=408|49=MKDATAFHBCS2|52=20150504-13:31:00.517|56=MKDATACL2|262=-2b6b1730398db202|268=1|279=0|269=0|55=CCU|270=6540.6|271=2000|282=035|290=1|10=025|
20150504-13:31:00.370: 8=FIX.4.4|9=147|35=X|34=409|49=MKDATAFHBCS2|52=20150504-13:31:00.517|56=MKDATACL2|262=-6416b7360970b15d|268=1|279=0|269=1|55=SQM-B|270=13636|271=179|282=066|290=1|10=045|
20150504-13:31:01.306: 8=FIX.4.4|9=152|35=X|34=410|49=MKDATAFHBCS2|52=20150504-13:31:01.453|56=MKDATACL2|262=3e426338b06d4f17|268=1|279=0|269=0|55=ENERSIS|270=219.15|271=200000|282=035|290=1|10=135|
20150504-13:31:02.341: 8=FIX.4.4|9=155|35=X|34=411|49=MKDATAFHBCS2|52=20150504-13:31:02.499|56=MKDATACL2|262=-41c3c9babe75b819|268=1|279=0|269=0|55=BSANTANDER|270=32.95|271=267052|282=035|290=1|10=002|
20150504-13:31:03.954: 8=FIX.4.4|9=66|35=0|34=166|49=MKDATACL2|52=20150504-13:31:03.954|56=MKDATAFHBCS2|10=255|
20150504-13:31:04.423: 8=FIX.4.4|9=147|35=X|34=412|49=MKDATAFHBCS2|52=20150504-13:31:04.574|56=MKDATACL2|262=-6416b7360970b15d|268=1|279=0|269=1|55=SQM-B|270=13625|271=179|282=066|290=1|10=044|
20150504-13:31:05.336: 8=FIX.4.4|9=147|35=X|34=413|49=MKDATAFHBCS2|52=20150504-13:31:05.479|56=MKDATACL2|262=-2b6b1730398db202|268=1|279=0|269=0|55=CCU|270=6540.7|271=2000|282=070|290=1|10=033|
20150504-13:31:05.337: 8=FIX.4.4|9=133|35=X|34=414|49=MKDATAFHBCS2|52=20150504-13:31:05.495|56=MKDATACL2|262=3e426338b06d4f17|268=1|279=1|269=5|55=ENERSIS|270=219.15|290=1|10=046|
20150504-13:31:05.358: 8=FIX.4.4|9=152|35=X|34=415|49=MKDATAFHBCS2|52=20150504-13:31:05.511|56=MKDATACL2|262=3e426338b06d4f17|268=1|279=2|269=0|55=ENERSIS|270=219.15|271=200000|282=035|290=1|10=141|
20150504-13:31:05.359: 8=FIX.4.4|9=152|35=X|34=416|49=MKDATAFHBCS2|52=20150504-13:31:05.511|56=MKDATACL2|262=3e426338b06d4f17|268=1|279=2|269=0|55=ENERSIS|270=215.06|271=200000|282=070|290=1|10=137|
20150504-13:31:05.359: 8=FIX.4.4|9=152|35=X|34=417|49=MKDATAFHBCS2|52=20150504-13:31:05.511|56=MKDATACL2|262=3e426338b06d4f17|268=1|279=0|269=1|55=ENERSIS|270=219.15|271=200000|282=088|290=1|10=150|
20150504-13:31:06.377: 8=FIX.4.4|9=147|35=X|34=418|49=MKDATAFHBCS2|52=20150504-13:31:06.525|56=MKDATACL2|262=-2b6b1730398db202|268=1|279=0|269=0|55=CCU|270=6540.8|271=2000|282=035|290=1|10=033|
20150504-13:31:06.383: 8=FIX.4.4|9=133|35=X|34=419|49=MKDATAFHBCS2|52=20150504-13:31:06.541|56=MKDATACL2|262=3e426338b06d4f17|268=1|279=1|269=5|55=ENERSIS|270=219.15|290=1|10=044|
20150504-13:31:06.389: 8=FIX.4.4|9=152|35=X|34=420|49=MKDATAFHBCS2|52=20150504-13:31:06.541|56=MKDATACL2|262=3e426338b06d4f17|268=1|279=2|269=1|55=ENERSIS|270=219.15|271=200000|282=088|290=1|10=150|
20150504-13:31:06.389: 8=FIX.4.4|9=152|35=X|34=421|49=MKDATAFHBCS2|52=20150504-13:31:06.541|56=MKDATACL2|262=3e426338b06d4f17|268=1|279=0|269=1|55=ENERSIS|270=219.15|271=100000|282=088|290=1|10=148|
20150504-13:31:06.403: 8=FIX.4.4|9=152|35=X|34=422|49=MKDATAFHBCS2|52=20150504-13:31:06.556|56=MKDATACL2|262=3e426338b06d4f17|268=1|279=0|269=0|55=ENERSIS|270=218.78|271=200000|282=035|290=1|10=155|
20150504-13:31:08.328: 8=FIX.4.4|9=147|35=X|34=423|49=MKDATAFHBCS2|52=20150504-13:31:08.476|56=MKDATACL2|262=-6416b7360970b15d|268=1|279=0|269=1|55=SQM-B|270=13621|271=179|282=066|290=1|10=047|
20150504-13:31:09.359: 8=FIX.4.4|9=152|35=X|34=424|49=MKDATAFHBCS2|52=20150504-13:31:09.506|56=MKDATACL2|262=3e426338b06d4f17|268=1|279=2|269=0|55=ENERSIS|270=218.78|271=200000|282=035|290=1|10=157|
20150504-13:31:09.366: 8=FIX.4.4|9=152|35=X|34=425|49=MKDATAFHBCS2|52=20150504-13:31:09.521|56=MKDATACL2|262=3e426338b06d4f17|268=1|279=0|269=0|55=ENERSIS|270=218.77|271=200000|282=035|290=1|10=152|
20150504-13:31:11.373: 8=FIX.4.4|9=147|35=X|34=426|49=MKDATAFHBCS2|52=20150504-13:31:11.535|56=MKDATACL2|262=-2b6b1730398db202|268=1|279=0|269=0|55=CCU|270=6540.9|271=2000|282=070|290=1|10=029|
20150504-13:31:11.389: 8=FIX.4.4|9=131|35=X|34=427|49=MKDATAFHBCS2|52=20150504-13:31:11.550|56=MKDATACL2|262=-6416b7360970b15d|268=1|279=1|269=5|55=SQM-B|270=13620|290=1|10=052|
20150504-13:31:11.391: 8=FIX.4.4|9=148|35=X|34=428|49=MKDATAFHBCS2|52=20150504-13:31:11.550|56=MKDATACL2|262=-6416b7360970b15d|268=1|279=0|269=0|55=SQM-B|270=13626|271=3000|282=035|290=1|10=074|
20150504-13:31:11.398: 8=FIX.4.4|9=147|35=X|34=429|49=MKDATAFHBCS2|52=20150504-13:31:11.550|56=MKDATACL2|262=-6416b7360970b15d|268=1|279=2|269=1|55=SQM-B|270=13621|271=179|282=066|290=1|10=042|
20150504-13:31:12.374: 8=FIX.4.4|9=148|35=X|34=430|49=MKDATAFHBCS2|52=20150504-13:31:12.518|56=MKDATACL2|262=-6416b7360970b15d|268=1|279=2|269=0|55=SQM-B|270=13626|271=3000|282=035|290=1|10=074|
20150504-13:31:12.374: 8=FIX.4.4|9=148|35=X|34=431|49=MKDATAFHBCS2|52=20150504-13:31:12.518|56=MKDATACL2|262=-6416b7360970b15d|268=1|279=0|269=0|55=SQM-B|270=13607|271=3000|282=035|290=1|10=072|
20150504-13:31:12.374: 8=FIX.4.4|9=145|35=X|34=432|49=MKDATAFHBCS2|52=20150504-13:31:12.533|56=MKDATACL2|262=-2b6b1730398db202|268=1|279=0|269=0|55=CCU|270=6541|271=2000|282=035|290=1|10=178|
20150504-13:31:16.350: 8=FIX.4.4|9=147|35=X|34=433|49=MKDATAFHBCS2|52=20150504-13:31:16.513|56=MKDATACL2|262=-2b6b1730398db202|268=1|279=0|269=0|55=CCU|270=6541.1|271=2000|282=070|290=1|10=021|
20150504-13:31:16.356: 8=FIX.4.4|9=133|35=X|34=434|49=MKDATAFHBCS2|52=20150504-13:31:16.513|56=MKDATACL2|262=3e426338b06d4f17|268=1|279=1|269=5|55=ENERSIS|270=218.77|290=1|10=048|
20150504-13:31:16.368: 8=FIX.4.4|9=152|35=X|34=435|49=MKDATAFHBCS2|52=20150504-13:31:16.529|56=MKDATACL2|262=3e426338b06d4f17|268=1|279=1|269=0|55=ENERSIS|270=218.77|271=100000|282=035|290=1|10=159|
20150504-13:31:17.404: 8=FIX.4.4|9=147|35=X|34=436|49=MKDATAFHBCS2|52=20150504-13:31:17.559|56=MKDATACL2|262=-2b6b1730398db202|268=1|279=0|269=0|55=CCU|270=6541.2|271=2000|282=035|290=1|10=037|
20150504-13:31:17.404: 8=FIX.4.4|9=152|35=X|34=437|49=MKDATAFHBCS2|52=20150504-13:31:17.559|56=MKDATACL2|262=3e426338b06d4f17|268=1|279=2|269=0|55=ENERSIS|270=218.77|271=100000|282=035|290=1|10=166|
20150504-13:31:17.404: 8=FIX.4.4|9=152|35=X|34=438|49=MKDATAFHBCS2|52=20150504-13:31:17.559|56=MKDATACL2|262=3e426338b06d4f17|268=1|279=0|269=0|55=ENERSIS|270=218.65|271=200000|282=035|290=1|10=163|
20150504-13:31:18.337: 8=FIX.4.4|9=152|35=X|34=439|49=MKDATAFHBCS2|52=20150504-13:31:18.495|56=MKDATACL2|262=3e426338b06d4f17|268=1|279=2|269=0|55=ENERSIS|270=218.65|271=200000|282=035|290=1|10=166|
20150504-13:31:18.338: 8=FIX.4.4|9=152|35=X|34=440|49=MKDATAFHBCS2|52=20150504-13:31:18.495|56=MKDATACL2|262=3e426338b06d4f17|268=1|279=0|269=0|55=ENERSIS|270=218.63|271=200000|282=035|290=1|10=154|
20150504-13:31:18.365: 8=FIX.4.4|9=148|35=X|34=441|49=MKDATAFHBCS2|52=20150504-13:31:18.526|56=MKDATACL2|262=7d8fc5da188245fa|268=1|279=0|269=0|55=CHILE|270=71.12|271=54445|282=059|290=1|10=049|
20150504-13:31:18.386: 8=FIX.4.4|9=148|35=X|34=442|49=MKDATAFHBCS2|52=20150504-13:31:18.542|56=MKDATACL2|262=-6416b7360970b15d|268=1|279=2|269=0|55=SQM-B|270=13607|271=3000|282=035|290=1|10=079|
20150504-13:31:18.386: 8=FIX.4.4|9=148|35=X|34=443|49=MKDATAFHBCS2|52=20150504-13:31:18.542|56=MKDATACL2|262=-6416b7360970b15d|268=1|279=0|269=0|55=SQM-B|270=13606|271=3000|282=035|290=1|10=077|
20150504-13:31:20.333: 8=FIX.4.4|9=147|35=X|34=444|49=MKDATAFHBCS2|52=20150504-13:31:20.493|56=MKDATACL2|262=-2b6b1730398db202|268=1|279=0|269=0|55=CCU|270=6541.3|271=2000|282=070|290=1|10=027|
20150504-13:31:21.367: 8=FIX.4.4|9=147|35=X|34=445|49=MKDATAFHBCS2|52=20150504-13:31:21.523|56=MKDATACL2|262=-2b6b1730398db202|268=1|279=0|269=0|55=CCU|270=6541.4|271=2000|282=035|290=1|10=025|
20150504-13:31:21.367: 8=FIX.4.4|9=149|35=X|34=446|49=MKDATAFHBCS2|52=20150504-13:31:21.523|56=MKDATACL2|262=7d8fc5da188245fa|268=1|279=0|269=1|55=CHILE|270=71.35|271=501000|282=088|290=1|10=086|
20150504-13:31:22.335: 8=FIX.4.4|9=149|35=X|34=447|49=MKDATAFHBCS2|52=20150504-13:31:22.490|56=MKDATACL2|262=7d8fc5da188245fa|268=1|279=0|269=0|55=CHILE|270=71.13|271=300000|282=070|290=1|10=074|
20150504-13:31:24.410: 8=FIX.4.4|9=147|35=X|34=448|49=MKDATAFHBCS2|52=20150504-13:31:24.566|56=MKDATACL2|262=-2b6b1730398db202|268=1|279=0|269=0|55=CCU|270=6541.5|271=2000|282=070|290=1|10=038|
20150504-13:31:25.358: 8=FIX.4.4|9=147|35=X|34=449|49=MKDATAFHBCS2|52=20150504-13:31:25.502|56=MKDATACL2|262=-2b6b1730398db202|268=1|279=0|269=0|55=CCU|270=6541.6|271=2000|282=035|290=1|10=032|
20150504-13:31:28.343: 8=FIX.4.4|9=147|35=X|34=450|49=MKDATAFHBCS2|52=20150504-13:31:28.499|56=MKDATACL2|262=-2b6b1730398db202|268=1|279=0|269=0|55=CCU|270=6541.7|271=2000|282=070|290=1|10=042|
20150504-13:31:29.376: 8=FIX.4.4|9=147|35=X|34=451|49=MKDATAFHBCS2|52=20150504-13:31:29.544|56=MKDATACL2|262=-2b6b1730398db202|268=1|279=0|269=0|55=CCU|270=6541.8|271=2000|282=035|290=1|10=037|
