20140710-12:36:08.013: 8=FIX.4.4|9=89|35=A|34=1|49=LVBSG|52=20140710-12:36:08.013|56=FROMARBITRAGELIMA_XNYSE|98=0|108=60|141=Y|10=138|
20140710-12:36:08.056: 8=FIX.4.4|9=0085|35=A|49=FROMARBITRAGELIMA_XNYSE|56=LVBSG|34=1|52=20140710-12:35:50|98=0|108=60|141=Y|10=032|
20140710-12:36:51.422: 8=FIX.4.4|9=0095|35=1|49=FROMARBITRAGELIMA_XNYSE|56=LVBSG|34=2|52=20140710-12:36:33|112=Appia-20140710-12:36:33|10=023|
20140710-12:36:51.423: 8=FIX.4.4|9=99|35=0|34=2|49=LVBSG|52=20140710-12:36:51.423|56=FROMARBITRAGELIMA_XNYSE|112=Appia-20140710-12:36:33|10=129|
20140710-12:37:51.423: 8=FIX.4.4|9=0067|35=0|49=FROMARBITRAGELIMA_XNYSE|56=LVBSG|34=3|52=20140710-12:37:33|10=203|
20140710-12:37:51.423: 8=FIX.4.4|9=71|35=0|34=3|49=LVBSG|52=20140710-12:37:51.423|56=FROMARBITRAGELIMA_XNYSE|10=045|
20140710-12:38:51.423: 8=FIX.4.4|9=0067|35=0|49=FROMARBITRAGELIMA_XNYSE|56=LVBSG|34=4|52=20140710-12:38:33|10=205|
20140710-12:38:51.423: 8=FIX.4.4|9=71|35=0|34=4|49=LVBSG|52=20140710-12:38:51.423|56=FROMARBITRAGELIMA_XNYSE|10=047|
20140710-12:39:51.424: 8=FIX.4.4|9=0067|35=0|49=FROMARBITRAGELIMA_XNYSE|56=LVBSG|34=5|52=20140710-12:39:33|10=207|
20140710-12:39:51.424: 8=FIX.4.4|9=71|35=0|34=5|49=LVBSG|52=20140710-12:39:51.424|56=FROMARBITRAGELIMA_XNYSE|10=050|
20140710-12:40:51.426: 8=FIX.4.4|9=0067|35=0|49=FROMARBITRAGELIMA_XNYSE|56=LVBSG|34=6|52=20140710-12:40:33|10=200|
20140710-12:40:51.426: 8=FIX.4.4|9=71|35=0|34=6|49=LVBSG|52=20140710-12:40:51.426|56=FROMARBITRAGELIMA_XNYSE|10=045|
20140710-12:41:51.434: 8=FIX.4.4|9=0067|35=0|49=FROMARBITRAGELIMA_XNYSE|56=LVBSG|34=7|52=20140710-12:41:33|10=202|
20140710-12:41:51.434: 8=FIX.4.4|9=71|35=0|34=7|49=LVBSG|52=20140710-12:41:51.434|56=FROMARBITRAGELIMA_XNYSE|10=046|
20140710-12:42:51.426: 8=FIX.4.4|9=0067|35=0|49=FROMARBITRAGELIMA_XNYSE|56=LVBSG|34=8|52=20140710-12:42:33|10=204|
20140710-12:42:51.936: 8=FIX.4.4|9=71|35=0|34=8|49=LVBSG|52=20140710-12:42:51.936|56=FROMARBITRAGELIMA_XNYSE|10=055|
20140710-12:43:51.433: 8=FIX.4.4|9=0067|35=0|49=FROMARBITRAGELIMA_XNYSE|56=LVBSG|34=9|52=20140710-12:43:33|10=206|
20140710-12:43:52.936: 8=FIX.4.4|9=71|35=0|34=9|49=LVBSG|52=20140710-12:43:52.936|56=FROMARBITRAGELIMA_XNYSE|10=058|
20140710-12:44:51.427: 8=FIX.4.4|9=0068|35=0|49=FROMARBITRAGELIMA_XNYSE|56=LVBSG|34=10|52=20140710-12:44:33|10=248|
20140710-12:44:52.936: 8=FIX.4.4|9=72|35=0|34=10|49=LVBSG|52=20140710-12:44:52.936|56=FROMARBITRAGELIMA_XNYSE|10=100|
20140710-12:45:51.433: 8=FIX.4.4|9=0068|35=0|49=FROMARBITRAGELIMA_XNYSE|56=LVBSG|34=11|52=20140710-12:45:33|10=250|
20140710-12:45:52.937: 8=FIX.4.4|9=72|35=0|34=11|49=LVBSG|52=20140710-12:45:52.937|56=FROMARBITRAGELIMA_XNYSE|10=103|
20140710-12:46:51.427: 8=FIX.4.4|9=0068|35=0|49=FROMARBITRAGELIMA_XNYSE|56=LVBSG|34=12|52=20140710-12:46:33|10=252|
20140710-12:46:53.936: 8=FIX.4.4|9=72|35=0|34=12|49=LVBSG|52=20140710-12:46:53.936|56=FROMARBITRAGELIMA_XNYSE|10=105|
20140710-12:47:51.429: 8=FIX.4.4|9=0068|35=0|49=FROMARBITRAGELIMA_XNYSE|56=LVBSG|34=13|52=20140710-12:47:33|10=254|
20140710-12:47:53.937: 8=FIX.4.4|9=72|35=0|34=13|49=LVBSG|52=20140710-12:47:53.937|56=FROMARBITRAGELIMA_XNYSE|10=108|
20140710-12:48:51.429: 8=FIX.4.4|9=0068|35=0|49=FROMARBITRAGELIMA_XNYSE|56=LVBSG|34=14|52=20140710-12:48:33|10=000|
20140710-12:48:53.937: 8=FIX.4.4|9=72|35=0|34=14|49=LVBSG|52=20140710-12:48:53.937|56=FROMARBITRAGELIMA_XNYSE|10=110|
20140710-12:49:51.448: 8=FIX.4.4|9=0068|35=0|49=FROMARBITRAGELIMA_XNYSE|56=LVBSG|34=15|52=20140710-12:49:33|10=002|
20140710-12:49:54.936: 8=FIX.4.4|9=72|35=0|34=15|49=LVBSG|52=20140710-12:49:54.936|56=FROMARBITRAGELIMA_XNYSE|10=112|
20140710-12:50:51.430: 8=FIX.4.4|9=0068|35=0|49=FROMARBITRAGELIMA_XNYSE|56=LVBSG|34=16|52=20140710-12:50:33|10=251|
20140710-12:50:54.936: 8=FIX.4.4|9=72|35=0|34=16|49=LVBSG|52=20140710-12:50:54.936|56=FROMARBITRAGELIMA_XNYSE|10=105|
20140710-12:51:51.436: 8=FIX.4.4|9=0068|35=0|49=FROMARBITRAGELIMA_XNYSE|56=LVBSG|34=17|52=20140710-12:51:33|10=253|
20140710-12:51:54.936: 8=FIX.4.4|9=72|35=0|34=17|49=LVBSG|52=20140710-12:51:54.936|56=FROMARBITRAGELIMA_XNYSE|10=107|
20140710-12:52:51.430: 8=FIX.4.4|9=0068|35=0|49=FROMARBITRAGELIMA_XNYSE|56=LVBSG|34=18|52=20140710-12:52:33|10=255|
20140710-12:52:54.936: 8=FIX.4.4|9=72|35=0|34=18|49=LVBSG|52=20140710-12:52:54.936|56=FROMARBITRAGELIMA_XNYSE|10=109|
20140710-12:53:51.437: 8=FIX.4.4|9=0068|35=0|49=FROMARBITRAGELIMA_XNYSE|56=LVBSG|34=19|52=20140710-12:53:33|10=001|
20140710-12:53:54.937: 8=FIX.4.4|9=72|35=0|34=19|49=LVBSG|52=20140710-12:53:54.937|56=FROMARBITRAGELIMA_XNYSE|10=112|
20140710-12:54:51.437: 8=FIX.4.4|9=0068|35=0|49=FROMARBITRAGELIMA_XNYSE|56=LVBSG|34=20|52=20140710-12:54:33|10=250|
20140710-12:54:55.936: 8=FIX.4.4|9=72|35=0|34=20|49=LVBSG|52=20140710-12:54:55.936|56=FROMARBITRAGELIMA_XNYSE|10=105|
20140710-12:55:51.431: 8=FIX.4.4|9=0068|35=0|49=FROMARBITRAGELIMA_XNYSE|56=LVBSG|34=21|52=20140710-12:55:33|10=252|
20140710-12:55:55.941: 8=FIX.4.4|9=72|35=0|34=21|49=LVBSG|52=20140710-12:55:55.941|56=FROMARBITRAGELIMA_XNYSE|10=103|
20140710-12:56:51.435: 8=FIX.4.4|9=0068|35=0|49=FROMARBITRAGELIMA_XNYSE|56=LVBSG|34=22|52=20140710-12:56:33|10=254|
20140710-12:56:55.936: 8=FIX.4.4|9=72|35=0|34=22|49=LVBSG|52=20140710-12:56:55.936|56=FROMARBITRAGELIMA_XNYSE|10=109|
20140710-12:57:51.432: 8=FIX.4.4|9=0068|35=0|49=FROMARBITRAGELIMA_XNYSE|56=LVBSG|34=23|52=20140710-12:57:33|10=000|
20140710-12:57:55.936: 8=FIX.4.4|9=72|35=0|34=23|49=LVBSG|52=20140710-12:57:55.936|56=FROMARBITRAGELIMA_XNYSE|10=111|
20140710-12:58:51.438: 8=FIX.4.4|9=0068|35=0|49=FROMARBITRAGELIMA_XNYSE|56=LVBSG|34=24|52=20140710-12:58:33|10=002|
20140710-12:58:55.936: 8=FIX.4.4|9=72|35=0|34=24|49=LVBSG|52=20140710-12:58:55.936|56=FROMARBITRAGELIMA_XNYSE|10=113|
20140710-12:59:51.433: 8=FIX.4.4|9=0068|35=0|49=FROMARBITRAGELIMA_XNYSE|56=LVBSG|34=25|52=20140710-12:59:33|10=004|
20140710-12:59:55.936: 8=FIX.4.4|9=72|35=0|34=25|49=LVBSG|52=20140710-12:59:55.936|56=FROMARBITRAGELIMA_XNYSE|10=115|
20140710-13:00:51.434: 8=FIX.4.4|9=0068|35=0|49=FROMARBITRAGELIMA_XNYSE|56=LVBSG|34=26|52=20140710-13:00:33|10=248|
20140710-13:00:55.936: 8=FIX.4.4|9=72|35=0|34=26|49=LVBSG|52=20140710-13:00:55.936|56=FROMARBITRAGELIMA_XNYSE|10=103|
20140710-13:01:51.435: 8=FIX.4.4|9=0068|35=0|49=FROMARBITRAGELIMA_XNYSE|56=LVBSG|34=27|52=20140710-13:01:33|10=250|
20140710-13:01:55.936: 8=FIX.4.4|9=72|35=0|34=27|49=LVBSG|52=20140710-13:01:55.936|56=FROMARBITRAGELIMA_XNYSE|10=105|
20140710-13:02:51.438: 8=FIX.4.4|9=0068|35=0|49=FROMARBITRAGELIMA_XNYSE|56=LVBSG|34=28|52=20140710-13:02:33|10=252|
20140710-13:02:55.936: 8=FIX.4.4|9=72|35=0|34=28|49=LVBSG|52=20140710-13:02:55.936|56=FROMARBITRAGELIMA_XNYSE|10=107|
20140710-13:03:51.435: 8=FIX.4.4|9=0068|35=0|49=FROMARBITRAGELIMA_XNYSE|56=LVBSG|34=29|52=20140710-13:03:33|10=254|
20140710-13:03:55.936: 8=FIX.4.4|9=72|35=0|34=29|49=LVBSG|52=20140710-13:03:55.936|56=FROMARBITRAGELIMA_XNYSE|10=109|
20140710-13:04:51.436: 8=FIX.4.4|9=0068|35=0|49=FROMARBITRAGELIMA_XNYSE|56=LVBSG|34=30|52=20140710-13:04:33|10=247|
20140710-13:04:55.936: 8=FIX.4.4|9=72|35=0|34=30|49=LVBSG|52=20140710-13:04:55.936|56=FROMARBITRAGELIMA_XNYSE|10=102|
20140710-13:05:51.437: 8=FIX.4.4|9=0068|35=0|49=FROMARBITRAGELIMA_XNYSE|56=LVBSG|34=31|52=20140710-13:05:33|10=249|
20140710-13:05:55.936: 8=FIX.4.4|9=72|35=0|34=31|49=LVBSG|52=20140710-13:05:55.936|56=FROMARBITRAGELIMA_XNYSE|10=104|
20140710-13:06:51.438: 8=FIX.4.4|9=0068|35=0|49=FROMARBITRAGELIMA_XNYSE|56=LVBSG|34=32|52=20140710-13:06:33|10=251|
20140710-13:06:55.936: 8=FIX.4.4|9=72|35=0|34=32|49=LVBSG|52=20140710-13:06:55.936|56=FROMARBITRAGELIMA_XNYSE|10=106|
20140710-13:07:51.438: 8=FIX.4.4|9=0068|35=0|49=FROMARBITRAGELIMA_XNYSE|56=LVBSG|34=33|52=20140710-13:07:33|10=253|
20140710-13:07:55.936: 8=FIX.4.4|9=72|35=0|34=33|49=LVBSG|52=20140710-13:07:55.936|56=FROMARBITRAGELIMA_XNYSE|10=108|
20140710-13:08:51.442: 8=FIX.4.4|9=0068|35=0|49=FROMARBITRAGELIMA_XNYSE|56=LVBSG|34=34|52=20140710-13:08:33|10=255|
20140710-13:08:55.937: 8=FIX.4.4|9=72|35=0|34=34|49=LVBSG|52=20140710-13:08:55.937|56=FROMARBITRAGELIMA_XNYSE|10=111|
20140710-13:09:51.440: 8=FIX.4.4|9=0068|35=0|49=FROMARBITRAGELIMA_XNYSE|56=LVBSG|34=35|52=20140710-13:09:33|10=001|
20140710-13:09:55.937: 8=FIX.4.4|9=72|35=0|34=35|49=LVBSG|52=20140710-13:09:55.937|56=FROMARBITRAGELIMA_XNYSE|10=113|
20140710-13:10:51.448: 8=FIX.4.4|9=0068|35=0|49=FROMARBITRAGELIMA_XNYSE|56=LVBSG|34=36|52=20140710-13:10:33|10=250|
20140710-13:10:56.936: 8=FIX.4.4|9=72|35=0|34=36|49=LVBSG|52=20140710-13:10:56.936|56=FROMARBITRAGELIMA_XNYSE|10=106|
20140710-13:11:51.443: 8=FIX.4.4|9=0068|35=0|49=FROMARBITRAGELIMA_XNYSE|56=LVBSG|34=37|52=20140710-13:11:33|10=252|
20140710-13:11:56.936: 8=FIX.4.4|9=72|35=0|34=37|49=LVBSG|52=20140710-13:11:56.936|56=FROMARBITRAGELIMA_XNYSE|10=108|
20140710-13:12:51.443: 8=FIX.4.4|9=0068|35=0|49=FROMARBITRAGELIMA_XNYSE|56=LVBSG|34=38|52=20140710-13:12:33|10=254|
20140710-13:12:56.936: 8=FIX.4.4|9=72|35=0|34=38|49=LVBSG|52=20140710-13:12:56.936|56=FROMARBITRAGELIMA_XNYSE|10=110|
20140710-13:13:51.444: 8=FIX.4.4|9=0068|35=0|49=FROMARBITRAGELIMA_XNYSE|56=LVBSG|34=39|52=20140710-13:13:33|10=000|
20140710-13:13:56.936: 8=FIX.4.4|9=72|35=0|34=39|49=LVBSG|52=20140710-13:13:56.936|56=FROMARBITRAGELIMA_XNYSE|10=112|
20140710-13:14:51.443: 8=FIX.4.4|9=0068|35=0|49=FROMARBITRAGELIMA_XNYSE|56=LVBSG|34=40|52=20140710-13:14:33|10=249|
20140710-13:14:56.936: 8=FIX.4.4|9=72|35=0|34=40|49=LVBSG|52=20140710-13:14:56.936|56=FROMARBITRAGELIMA_XNYSE|10=105|
20140710-13:15:51.447: 8=FIX.4.4|9=0068|35=0|49=FROMARBITRAGELIMA_XNYSE|56=LVBSG|34=41|52=20140710-13:15:33|10=251|
20140710-13:15:56.936: 8=FIX.4.4|9=72|35=0|34=41|49=LVBSG|52=20140710-13:15:56.936|56=FROMARBITRAGELIMA_XNYSE|10=107|
20140710-13:16:51.443: 8=FIX.4.4|9=0068|35=0|49=FROMARBITRAGELIMA_XNYSE|56=LVBSG|34=42|52=20140710-13:16:33|10=253|
20140710-13:16:56.937: 8=FIX.4.4|9=72|35=0|34=42|49=LVBSG|52=20140710-13:16:56.937|56=FROMARBITRAGELIMA_XNYSE|10=110|
20140710-13:17:51.454: 8=FIX.4.4|9=0068|35=0|49=FROMARBITRAGELIMA_XNYSE|56=LVBSG|34=43|52=20140710-13:17:33|10=255|
20140710-13:17:56.937: 8=FIX.4.4|9=72|35=0|34=43|49=LVBSG|52=20140710-13:17:56.937|56=FROMARBITRAGELIMA_XNYSE|10=112|
20140710-13:18:51.444: 8=FIX.4.4|9=0068|35=0|49=FROMARBITRAGELIMA_XNYSE|56=LVBSG|34=44|52=20140710-13:18:33|10=001|
20140710-13:18:57.937: 8=FIX.4.4|9=72|35=0|34=44|49=LVBSG|52=20140710-13:18:57.937|56=FROMARBITRAGELIMA_XNYSE|10=115|
20140710-13:19:51.445: 8=FIX.4.4|9=0068|35=0|49=FROMARBITRAGELIMA_XNYSE|56=LVBSG|34=45|52=20140710-13:19:33|10=003|
20140710-13:19:58.936: 8=FIX.4.4|9=72|35=0|34=45|49=LVBSG|52=20140710-13:19:58.936|56=FROMARBITRAGELIMA_XNYSE|10=117|
20140710-13:20:51.448: 8=FIX.4.4|9=0068|35=0|49=FROMARBITRAGELIMA_XNYSE|56=LVBSG|34=46|52=20140710-13:20:33|10=252|
20140710-13:20:58.936: 8=FIX.4.4|9=72|35=0|34=46|49=LVBSG|52=20140710-13:20:58.936|56=FROMARBITRAGELIMA_XNYSE|10=110|
20140710-13:21:51.446: 8=FIX.4.4|9=0068|35=0|49=FROMARBITRAGELIMA_XNYSE|56=LVBSG|34=47|52=20140710-13:21:33|10=254|
20140710-13:21:58.936: 8=FIX.4.4|9=72|35=0|34=47|49=LVBSG|52=20140710-13:21:58.936|56=FROMARBITRAGELIMA_XNYSE|10=112|
20140710-13:22:51.447: 8=FIX.4.4|9=0068|35=0|49=FROMARBITRAGELIMA_XNYSE|56=LVBSG|34=48|52=20140710-13:22:33|10=000|
20140710-13:22:58.936: 8=FIX.4.4|9=72|35=0|34=48|49=LVBSG|52=20140710-13:22:58.936|56=FROMARBITRAGELIMA_XNYSE|10=114|
20140710-13:23:51.448: 8=FIX.4.4|9=0068|35=0|49=FROMARBITRAGELIMA_XNYSE|56=LVBSG|34=49|52=20140710-13:23:33|10=002|
20140710-13:23:59.936: 8=FIX.4.4|9=72|35=0|34=49|49=LVBSG|52=20140710-13:23:59.936|56=FROMARBITRAGELIMA_XNYSE|10=117|
20140710-13:24:51.452: 8=FIX.4.4|9=0068|35=0|49=FROMARBITRAGELIMA_XNYSE|56=LVBSG|34=50|52=20140710-13:24:33|10=251|
20140710-13:24:59.936: 8=FIX.4.4|9=72|35=0|34=50|49=LVBSG|52=20140710-13:24:59.936|56=FROMARBITRAGELIMA_XNYSE|10=110|
20140710-13:25:51.453: 8=FIX.4.4|9=0068|35=0|49=FROMARBITRAGELIMA_XNYSE|56=LVBSG|34=51|52=20140710-13:25:33|10=253|
20140710-13:25:59.936: 8=FIX.4.4|9=72|35=0|34=51|49=LVBSG|52=20140710-13:25:59.936|56=FROMARBITRAGELIMA_XNYSE|10=112|
20140710-13:26:51.449: 8=FIX.4.4|9=0068|35=0|49=FROMARBITRAGELIMA_XNYSE|56=LVBSG|34=52|52=20140710-13:26:33|10=255|
20140710-13:26:59.937: 8=FIX.4.4|9=72|35=0|34=52|49=LVBSG|52=20140710-13:26:59.937|56=FROMARBITRAGELIMA_XNYSE|10=115|
20140710-13:27:51.449: 8=FIX.4.4|9=0068|35=0|49=FROMARBITRAGELIMA_XNYSE|56=LVBSG|34=53|52=20140710-13:27:33|10=001|
20140710-13:28:00.936: 8=FIX.4.4|9=72|35=0|34=53|49=LVBSG|52=20140710-13:28:00.936|56=FROMARBITRAGELIMA_XNYSE|10=103|
20140710-13:28:51.452: 8=FIX.4.4|9=0068|35=0|49=FROMARBITRAGELIMA_XNYSE|56=LVBSG|34=54|52=20140710-13:28:33|10=003|
20140710-13:29:00.936: 8=FIX.4.4|9=72|35=0|34=54|49=LVBSG|52=20140710-13:29:00.936|56=FROMARBITRAGELIMA_XNYSE|10=105|
20140710-13:29:51.457: 8=FIX.4.4|9=0068|35=0|49=FROMARBITRAGELIMA_XNYSE|56=LVBSG|34=55|52=20140710-13:29:33|10=005|
20140710-13:30:00.937: 8=FIX.4.4|9=72|35=0|34=55|49=LVBSG|52=20140710-13:30:00.937|56=FROMARBITRAGELIMA_XNYSE|10=099|
20140710-13:30:51.451: 8=FIX.4.4|9=0068|35=0|49=FROMARBITRAGELIMA_XNYSE|56=LVBSG|34=56|52=20140710-13:30:33|10=254|
20140710-13:31:01.937: 8=FIX.4.4|9=72|35=0|34=56|49=LVBSG|52=20140710-13:31:01.937|56=FROMARBITRAGELIMA_XNYSE|10=102|
20140710-13:31:51.464: 8=FIX.4.4|9=0068|35=0|49=FROMARBITRAGELIMA_XNYSE|56=LVBSG|34=57|52=20140710-13:31:33|10=000|
20140710-13:32:02.936: 8=FIX.4.4|9=72|35=0|34=57|49=LVBSG|52=20140710-13:32:02.936|56=FROMARBITRAGELIMA_XNYSE|10=104|
20140710-13:32:51.456: 8=FIX.4.4|9=0068|35=0|49=FROMARBITRAGELIMA_XNYSE|56=LVBSG|34=58|52=20140710-13:32:33|10=002|
20140710-13:33:02.936: 8=FIX.4.4|9=72|35=0|34=58|49=LVBSG|52=20140710-13:33:02.936|56=FROMARBITRAGELIMA_XNYSE|10=106|
20140710-13:33:51.459: 8=FIX.4.4|9=0068|35=0|49=FROMARBITRAGELIMA_XNYSE|56=LVBSG|34=59|52=20140710-13:33:33|10=004|
20140710-13:34:02.936: 8=FIX.4.4|9=72|35=0|34=59|49=LVBSG|52=20140710-13:34:02.936|56=FROMARBITRAGELIMA_XNYSE|10=108|
20140710-13:34:51.459: 8=FIX.4.4|9=0068|35=0|49=FROMARBITRAGELIMA_XNYSE|56=LVBSG|34=60|52=20140710-13:34:33|10=253|
20140710-13:35:02.937: 8=FIX.4.4|9=72|35=0|34=60|49=LVBSG|52=20140710-13:35:02.937|56=FROMARBITRAGELIMA_XNYSE|10=102|
20140710-13:35:51.464: 8=FIX.4.4|9=0068|35=0|49=FROMARBITRAGELIMA_XNYSE|56=LVBSG|34=61|52=20140710-13:35:33|10=255|
20140710-13:36:03.936: 8=FIX.4.4|9=72|35=0|34=61|49=LVBSG|52=20140710-13:36:03.936|56=FROMARBITRAGELIMA_XNYSE|10=104|
20140710-13:36:51.471: 8=FIX.4.4|9=0068|35=0|49=FROMARBITRAGELIMA_XNYSE|56=LVBSG|34=62|52=20140710-13:36:33|10=001|
20140710-13:37:03.936: 8=FIX.4.4|9=72|35=0|34=62|49=LVBSG|52=20140710-13:37:03.936|56=FROMARBITRAGELIMA_XNYSE|10=106|
20140710-13:37:51.455: 8=FIX.4.4|9=0068|35=0|49=FROMARBITRAGELIMA_XNYSE|56=LVBSG|34=63|52=20140710-13:37:33|10=003|
20140710-13:38:03.951: 8=FIX.4.4|9=72|35=0|34=63|49=LVBSG|52=20140710-13:38:03.951|56=FROMARBITRAGELIMA_XNYSE|10=105|
20140710-13:38:51.455: 8=FIX.4.4|9=0068|35=0|49=FROMARBITRAGELIMA_XNYSE|56=LVBSG|34=64|52=20140710-13:38:33|10=005|
20140710-13:39:04.936: 8=FIX.4.4|9=72|35=0|34=64|49=LVBSG|52=20140710-13:39:04.936|56=FROMARBITRAGELIMA_XNYSE|10=111|
20140710-13:39:51.459: 8=FIX.4.4|9=0068|35=0|49=FROMARBITRAGELIMA_XNYSE|56=LVBSG|34=65|52=20140710-13:39:33|10=007|
20140710-13:40:04.936: 8=FIX.4.4|9=72|35=0|34=65|49=LVBSG|52=20140710-13:40:04.936|56=FROMARBITRAGELIMA_XNYSE|10=104|
20140710-13:40:51.475: 8=FIX.4.4|9=0068|35=0|49=FROMARBITRAGELIMA_XNYSE|56=LVBSG|34=66|52=20140710-13:40:33|10=000|
20140710-13:41:05.936: 8=FIX.4.4|9=72|35=0|34=66|49=LVBSG|52=20140710-13:41:05.936|56=FROMARBITRAGELIMA_XNYSE|10=107|
20140710-13:41:51.456: 8=FIX.4.4|9=0068|35=0|49=FROMARBITRAGELIMA_XNYSE|56=LVBSG|34=67|52=20140710-13:41:33|10=002|
20140710-13:42:05.936: 8=FIX.4.4|9=72|35=0|34=67|49=LVBSG|52=20140710-13:42:05.936|56=FROMARBITRAGELIMA_XNYSE|10=109|
20140710-13:42:51.461: 8=FIX.4.4|9=0068|35=0|49=FROMARBITRAGELIMA_XNYSE|56=LVBSG|34=68|52=20140710-13:42:33|10=004|
20140710-13:43:05.936: 8=FIX.4.4|9=72|35=0|34=68|49=LVBSG|52=20140710-13:43:05.936|56=FROMARBITRAGELIMA_XNYSE|10=111|
20140710-13:43:51.458: 8=FIX.4.4|9=0068|35=0|49=FROMARBITRAGELIMA_XNYSE|56=LVBSG|34=69|52=20140710-13:43:33|10=006|
20140710-13:44:05.936: 8=FIX.4.4|9=72|35=0|34=69|49=LVBSG|52=20140710-13:44:05.936|56=FROMARBITRAGELIMA_XNYSE|10=113|
20140710-13:44:51.460: 8=FIX.4.4|9=0068|35=0|49=FROMARBITRAGELIMA_XNYSE|56=LVBSG|34=70|52=20140710-13:44:33|10=255|
20140710-13:45:06.936: 8=FIX.4.4|9=72|35=0|34=70|49=LVBSG|52=20140710-13:45:06.936|56=FROMARBITRAGELIMA_XNYSE|10=107|
20140710-13:45:41.615: 8=FIX.4.4|9=294|35=D|34=71|49=LVBSG|50=lvalgo|52=20140710-13:45:41.615|56=FROMARBITRAGELIMA_XNYSE|1=99990140|11=3fc5df826e97427aaee62f0105a583b0|21=1|38=1000|40=2|44=2.63|54=2|55=RIOM|59=0|60=20140710-13:45:41.615|63=2|100=XNYS|111=100|207=XNYS|583=083b758f890444a8ab3f65dae48d104a|453=1|448=TRADE|447=D|452=1|10=173|
20140710-13:45:41.627: 8=FIX.4.4|9=0448|35=8|49=FROMARBITRAGELIMA_XNYSE|56=LVBSG|34=71|52=20140710-13:45:23|57=lvalgo|1=99990140|207=XNYS|6=0.0|11=3fc5df826e97427aaee62f0105a583b0|14=0.0|15=NONE|17=95fe24a5e81d46749aec12ac7d6fb86c|21=1|31=0.0|150=A|151=1000.0|100=XNYS|32=0.0|38=1000.0|39=A|583=083b758f890444a8ab3f65dae48d104a|37=f27fcc157e4a4e2c91b559a3e458f498|40=2|44=2.63|48=NONE|55=RIOM|54=2|59=0|58=New Sell RIOM 1000.0 @ 2.63|63=2|60=20140710-13:45:41|453=1|448=TRADE|447=D|452=1|10=044|
20140710-13:45:41.890: 8=FIX.4.4|9=0417|35=8|49=FROMARBITRAGELIMA_XNYSE|56=LVBSG|34=72|52=20140710-13:45:24|57=lvalgo|1=99990140|207=XNYS|6=0.0|11=3fc5df826e97427aaee62f0105a583b0|14=0.0|15=NONE|17=33eb78d2cb79407493556e783af783ad|21=1|31=0.0|150=0|151=1000.0|100=XNYS|32=0.0|38=1000.0|39=0|583=083b758f890444a8ab3f65dae48d104a|37=f27fcc157e4a4e2c91b559a3e458f498|40=2|44=2.63|48=NONE|55=RIOM|54=2|59=0|63=2|60=20140710-13:45:41|453=1|448=TRADE|447=D|452=1|10=236|
20140710-13:45:41.894: 8=FIX.4.4|9=330|35=G|34=72|49=LVBSG|50=lvalgo|52=20140710-13:45:41.894|56=FROMARBITRAGELIMA_XNYSE|1=99990140|11=e1a1f35ca94147b2b3025715de0547bc|21=1|38=2000|40=2|41=3fc5df826e97427aaee62f0105a583b0|44=2.63|54=2|55=RIOM|59=0|60=20140710-13:45:41.894|63=2|100=XNYS|111=100|207=XNYS|583=083b758f890444a8ab3f65dae48d104a|453=1|448=TRADE|447=D|452=1|10=220|
20140710-13:45:41.907: 8=FIX.4.4|9=0486|35=8|49=FROMARBITRAGELIMA_XNYSE|56=LVBSG|34=73|52=20140710-13:45:24|57=lvalgo|1=99990140|207=XNYS|6=0.0|11=e1a1f35ca94147b2b3025715de0547bc|14=0.0|15=NONE|17=1d89d936d1c24635ad9632aee22bd3a2|21=1|150=E|151=2000.0|100=XNYS|38=2000.0|39=E|583=083b758f890444a8ab3f65dae48d104a|37=f27fcc157e4a4e2c91b559a3e458f498|40=2|41=3fc5df826e97427aaee62f0105a583b0|44=2.63|48=NONE|55=RIOM|54=2|59=0|58=Replace from 1000.0 @ 2.63 To 2000.0 @ 2.63|63=2|60=20140710-13:45:41|453=1|448=TRADE|447=D|452=1|10=083|
20140710-13:45:42.520: 8=FIX.4.4|9=0407|35=8|49=FROMARBITRAGELIMA_XNYSE|56=LVBSG|34=74|52=20140710-13:45:24|57=lvalgo|1=99990140|207=XNYS|6=2.63|11=e1a1f35ca94147b2b3025715de0547bc|14=100.0|17=6c21a7da672e40388e475976e3eb3da2|21=1|31=2.63|150=F|151=1900.0|100=XNYS|32=100.0|38=2000.0|39=1|583=083b758f890444a8ab3f65dae48d104a|37=f27fcc157e4a4e2c91b559a3e458f498|40=2|44=2.63|55=RIOM|54=2|59=0|63=2|60=20140710-13:45:42|453=1|448=TRADE|447=D|452=1|10=120|
20140710-13:45:42.524: 8=FIX.4.4|9=0408|35=8|49=FROMARBITRAGELIMA_XNYSE|56=LVBSG|34=75|52=20140710-13:45:24|57=lvalgo|1=99990140|207=XNYS|6=2.63|11=e1a1f35ca94147b2b3025715de0547bc|14=1000.0|17=4407a164540944aa99cfae2ea60674af|21=1|31=2.63|150=F|151=1000.0|100=XNYS|32=900.0|38=2000.0|39=1|583=083b758f890444a8ab3f65dae48d104a|37=f27fcc157e4a4e2c91b559a3e458f498|40=2|44=2.63|55=RIOM|54=2|59=0|63=2|60=20140710-13:45:42|453=1|448=TRADE|447=D|452=1|10=159|
20140710-13:45:42.539: 8=FIX.4.4|9=0404|35=8|49=FROMARBITRAGELIMA_XNYSE|56=LVBSG|34=76|52=20140710-13:45:24|57=lvalgo|1=99990140|207=XNYS|6=2.63|11=e1a1f35ca94147b2b3025715de0547bc|14=1000.0|17=3b99a0ac73cb4de49689fdc642cb80d5|150=F|151=0.0|100=XNYS|38=2000.0|39=2|37=f27fcc157e4a4e2c91b559a3e458f498|583=083b758f890444a8ab3f65dae48d104a|41=3fc5df826e97427aaee62f0105a583b0|44=2.63|55=RIOM|54=2|60=20140710-13:45:42|453=1|448=TRADE|447=D|452=1|10=172|
20140710-13:46:41.936: 8=FIX.4.4|9=72|35=0|34=73|49=LVBSG|52=20140710-13:46:41.936|56=FROMARBITRAGELIMA_XNYSE|10=110|
20140710-13:46:42.553: 8=FIX.4.4|9=0068|35=0|49=FROMARBITRAGELIMA_XNYSE|56=LVBSG|34=77|52=20140710-13:46:24|10=008|
20140710-13:47:35.914: 8=FIX.4.4|9=294|35=D|34=74|49=LVBSG|50=lvalgo|52=20140710-13:47:35.914|56=FROMARBITRAGELIMA_XNYSE|1=99990140|11=0402d84050e7449eabf45a15abfa54be|21=1|38=2000|40=2|44=2.64|54=2|55=RIOM|59=0|60=20140710-13:47:35.914|63=2|100=XNYS|111=100|207=XNYS|583=083b758f890444a8ab3f65dae48d104a|453=1|448=TRADE|447=D|452=1|10=224|
20140710-13:47:35.953: 8=FIX.4.4|9=0448|35=8|49=FROMARBITRAGELIMA_XNYSE|56=LVBSG|34=78|52=20140710-13:47:18|57=lvalgo|1=99990140|207=XNYS|6=0.0|11=0402d84050e7449eabf45a15abfa54be|14=0.0|15=NONE|17=0686d274e9384008ae68d21da5efbc97|21=1|31=0.0|150=A|151=2000.0|100=XNYS|32=0.0|38=2000.0|39=A|583=083b758f890444a8ab3f65dae48d104a|37=672df0024be1480dbb05d99664b286cc|40=2|44=2.64|48=NONE|55=RIOM|54=2|59=0|58=New Sell RIOM 2000.0 @ 2.64|63=2|60=20140710-13:47:35|453=1|448=TRADE|447=D|452=1|10=141|
20140710-13:47:36.225: 8=FIX.4.4|9=0417|35=8|49=FROMARBITRAGELIMA_XNYSE|56=LVBSG|34=79|52=20140710-13:47:18|57=lvalgo|1=99990140|207=XNYS|6=0.0|11=0402d84050e7449eabf45a15abfa54be|14=0.0|15=NONE|17=cb7aef7ac3eb43baa7980b8298e70ef8|21=1|31=0.0|150=0|151=2000.0|100=XNYS|32=0.0|38=2000.0|39=0|583=083b758f890444a8ab3f65dae48d104a|37=672df0024be1480dbb05d99664b286cc|40=2|44=2.64|48=NONE|55=RIOM|54=2|59=0|63=2|60=20140710-13:47:36|453=1|448=TRADE|447=D|452=1|10=240|
20140710-13:47:37.187: 8=FIX.4.4|9=0407|35=8|49=FROMARBITRAGELIMA_XNYSE|56=LVBSG|34=80|52=20140710-13:47:19|57=lvalgo|1=99990140|207=XNYS|6=2.64|11=0402d84050e7449eabf45a15abfa54be|14=500.0|17=10b1da06b31744dd90417dd879fa3975|21=1|31=2.64|150=F|151=1500.0|100=XNYS|32=500.0|38=2000.0|39=1|583=083b758f890444a8ab3f65dae48d104a|37=672df0024be1480dbb05d99664b286cc|40=2|44=2.64|55=RIOM|54=2|59=0|63=2|60=20140710-13:47:37|453=1|448=TRADE|447=D|452=1|10=108|
20140710-13:47:53.377: 8=FIX.4.4|9=0407|35=8|49=FROMARBITRAGELIMA_XNYSE|56=LVBSG|34=81|52=20140710-13:47:35|57=lvalgo|1=99990140|207=XNYS|6=2.64|11=0402d84050e7449eabf45a15abfa54be|14=1300.0|17=6f3afa41e159465795e86d06f4e0bc70|21=1|31=2.64|150=F|151=700.0|100=XNYS|32=800.0|38=2000.0|39=1|583=083b758f890444a8ab3f65dae48d104a|37=672df0024be1480dbb05d99664b286cc|40=2|44=2.64|55=RIOM|54=2|59=0|63=2|60=20140710-13:47:53|453=1|448=TRADE|447=D|452=1|10=168|
20140710-13:48:35.937: 8=FIX.4.4|9=72|35=0|34=75|49=LVBSG|52=20140710-13:48:35.937|56=FROMARBITRAGELIMA_XNYSE|10=118|
20140710-13:48:53.372: 8=FIX.4.4|9=0068|35=0|49=FROMARBITRAGELIMA_XNYSE|56=LVBSG|34=82|52=20140710-13:48:35|10=008|
20140710-13:49:04.760: 8=FIX.4.4|9=0407|35=8|49=FROMARBITRAGELIMA_XNYSE|56=LVBSG|34=83|52=20140710-13:48:47|57=lvalgo|1=99990140|207=XNYS|6=2.64|11=0402d84050e7449eabf45a15abfa54be|14=1400.0|17=79bbf027202641fe927c7937130342c5|21=1|31=2.64|150=F|151=600.0|100=XNYS|32=100.0|38=2000.0|39=1|583=083b758f890444a8ab3f65dae48d104a|37=672df0024be1480dbb05d99664b286cc|40=2|44=2.64|55=RIOM|54=2|59=0|63=2|60=20140710-13:49:04|453=1|448=TRADE|447=D|452=1|10=218|
20140710-13:49:05.133: 8=FIX.4.4|9=0405|35=8|49=FROMARBITRAGELIMA_XNYSE|56=LVBSG|34=84|52=20140710-13:48:47|57=lvalgo|1=99990140|207=XNYS|6=2.64|11=0402d84050e7449eabf45a15abfa54be|14=2000.0|17=954dceae0f9b43b19eca9eea1fefae59|21=1|31=2.64|150=F|151=0.0|100=XNYS|32=600.0|38=2000.0|39=2|583=083b758f890444a8ab3f65dae48d104a|37=672df0024be1480dbb05d99664b286cc|40=2|44=2.64|55=RIOM|54=2|59=0|63=2|60=20140710-13:49:05|453=1|448=TRADE|447=D|452=1|10=193|
20140710-13:49:05.630: 8=FIX.4.4|9=294|35=D|34=76|49=LVBSG|50=lvalgo|52=20140710-13:49:05.630|56=FROMARBITRAGELIMA_XNYSE|1=99990140|11=65bf3744da3647799956a121acb09f3b|21=1|38=2000|40=2|44=2.64|54=2|55=RIOM|59=0|60=20140710-13:49:05.630|63=2|100=XNYS|111=100|207=XNYS|583=083b758f890444a8ab3f65dae48d104a|453=1|448=TRADE|447=D|452=1|10=096|
20140710-13:49:05.663: 8=FIX.4.4|9=0448|35=8|49=FROMARBITRAGELIMA_XNYSE|56=LVBSG|34=85|52=20140710-13:48:47|57=lvalgo|1=99990140|207=XNYS|6=0.0|11=65bf3744da3647799956a121acb09f3b|14=0.0|15=NONE|17=0188c9c09ffa4b43ae4325d3c9e04f94|21=1|31=0.0|150=A|151=2000.0|100=XNYS|32=0.0|38=2000.0|39=A|583=083b758f890444a8ab3f65dae48d104a|37=7977d428001045dbabfc39f9b8e2ab15|40=2|44=2.64|48=NONE|55=RIOM|54=2|59=0|58=New Sell RIOM 2000.0 @ 2.64|63=2|60=20140710-13:49:05|453=1|448=TRADE|447=D|452=1|10=113|
20140710-13:49:05.952: 8=FIX.4.4|9=0417|35=8|49=FROMARBITRAGELIMA_XNYSE|56=LVBSG|34=86|52=20140710-13:48:48|57=lvalgo|1=99990140|207=XNYS|6=0.0|11=65bf3744da3647799956a121acb09f3b|14=0.0|15=NONE|17=b80d0de00b004a7889a316fb942fd9e9|21=1|31=0.0|150=0|151=2000.0|100=XNYS|32=0.0|38=2000.0|39=0|583=083b758f890444a8ab3f65dae48d104a|37=7977d428001045dbabfc39f9b8e2ab15|40=2|44=2.64|48=NONE|55=RIOM|54=2|59=0|63=2|60=20140710-13:49:05|453=1|448=TRADE|447=D|452=1|10=226|
20140710-13:49:13.668: 8=FIX.4.4|9=0407|35=8|49=FROMARBITRAGELIMA_XNYSE|56=LVBSG|34=87|52=20140710-13:48:55|57=lvalgo|1=99990140|207=XNYS|6=2.64|11=65bf3744da3647799956a121acb09f3b|14=800.0|17=2076f5445e02468ba056ef1503f284b5|21=1|31=2.64|150=F|151=1200.0|100=XNYS|32=800.0|38=2000.0|39=1|583=083b758f890444a8ab3f65dae48d104a|37=7977d428001045dbabfc39f9b8e2ab15|40=2|44=2.64|55=RIOM|54=2|59=0|63=2|60=20140710-13:49:13|453=1|448=TRADE|447=D|452=1|10=205|
20140710-13:50:05.936: 8=FIX.4.4|9=72|35=0|34=77|49=LVBSG|52=20140710-13:50:05.936|56=FROMARBITRAGELIMA_XNYSE|10=109|
20140710-13:50:13.669: 8=FIX.4.4|9=0068|35=0|49=FROMARBITRAGELIMA_XNYSE|56=LVBSG|34=88|52=20140710-13:49:55|10=017|
20140710-13:51:05.936: 8=FIX.4.4|9=72|35=0|34=78|49=LVBSG|52=20140710-13:51:05.936|56=FROMARBITRAGELIMA_XNYSE|10=111|
20140710-13:51:13.673: 8=FIX.4.4|9=0068|35=0|49=FROMARBITRAGELIMA_XNYSE|56=LVBSG|34=89|52=20140710-13:50:55|10=010|
20140710-13:51:27.811: 8=FIX.4.4|9=330|35=G|34=79|49=LVBSG|50=lvalgo|52=20140710-13:51:27.811|56=FROMARBITRAGELIMA_XNYSE|1=99990140|11=a9405470cc1545de927d3e9f3eaae9cc|21=1|38=2000|40=2|41=65bf3744da3647799956a121acb09f3b|44=2.62|54=2|55=RIOM|59=0|60=20140710-13:51:27.811|63=2|100=XNYS|111=100|207=XNYS|583=083b758f890444a8ab3f65dae48d104a|453=1|448=TRADE|447=D|452=1|10=033|
20140710-13:51:27.836: 8=FIX.4.4|9=0489|35=8|49=FROMARBITRAGELIMA_XNYSE|56=LVBSG|34=90|52=20140710-13:51:10|57=lvalgo|1=99990140|207=XNYS|6=2.64|11=a9405470cc1545de927d3e9f3eaae9cc|14=800.0|15=NONE|17=22420aaa8be441ff944519e40b2206f3|21=1|150=E|151=2000.0|100=XNYS|38=2000.0|39=E|583=083b758f890444a8ab3f65dae48d104a|37=7977d428001045dbabfc39f9b8e2ab15|40=2|41=65bf3744da3647799956a121acb09f3b|44=2.62|48=NONE|55=RIOM|54=2|59=0|58=Replace from 2000.0 @ 2.64 To 2000.0 @ 2.62|63=2|60=20140710-13:51:27|453=1|448=TRADE|447=D|452=1|10=197|
20140710-13:51:28.433: 8=FIX.4.4|9=0471|35=8|49=FROMARBITRAGELIMA_XNYSE|56=LVBSG|34=91|52=20140710-13:51:10|57=lvalgo|1=99990140|207=XNYS|6=2.64|11=a9405470cc1545de927d3e9f3eaae9cc|14=800.0|15=NONE|17=ba7ffca9d033429eba733dee431f1413|21=1|150=5|151=1200.0|100=XNYS|38=2000.0|39=1|583=083b758f890444a8ab3f65dae48d104a|37=7977d428001045dbabfc39f9b8e2ab15|40=2|41=65bf3744da3647799956a121acb09f3b|44=2.62|48=NONE|55=RIOM|54=2|59=0|58=Replaced to 2000.0 @ 2.62|63=2|60=20140710-13:51:28|453=1|448=TRADE|447=D|452=1|10=136|
20140710-13:51:28.790: 8=FIX.4.4|9=0409|35=8|49=FROMARBITRAGELIMA_XNYSE|56=LVBSG|34=92|52=20140710-13:51:11|57=lvalgo|1=99990140|207=XNYS|6=2.636|11=a9405470cc1545de927d3e9f3eaae9cc|14=1000.0|17=198851aab12740cf8efb8faae9d8bd17|21=1|31=2.62|150=F|151=1000.0|100=XNYS|32=200.0|38=2000.0|39=1|583=083b758f890444a8ab3f65dae48d104a|37=7977d428001045dbabfc39f9b8e2ab15|40=2|44=2.62|55=RIOM|54=2|59=0|63=2|60=20140710-13:51:28|453=1|448=TRADE|447=D|452=1|10=038|
20140710-13:52:03.288: 8=FIX.4.4|9=330|35=G|34=80|49=LVBSG|50=lvalgo|52=20140710-13:52:03.288|56=FROMARBITRAGELIMA_XNYSE|1=99990140|11=5b4e9c9adc424650a7b8878ad3b685f8|21=1|38=2000|40=2|41=a9405470cc1545de927d3e9f3eaae9cc|44=2.61|54=2|55=RIOM|59=0|60=20140710-13:52:03.288|63=2|100=XNYS|111=100|207=XNYS|583=083b758f890444a8ab3f65dae48d104a|453=1|448=TRADE|447=D|452=1|10=138|
20140710-13:52:03.307: 8=FIX.4.4|9=0491|35=8|49=FROMARBITRAGELIMA_XNYSE|56=LVBSG|34=93|52=20140710-13:51:45|57=lvalgo|1=99990140|207=XNYS|6=2.636|11=5b4e9c9adc424650a7b8878ad3b685f8|14=1000.0|15=NONE|17=9af86fe2662242ddb15a3fcac49c7bbe|21=1|150=E|151=2000.0|100=XNYS|38=2000.0|39=E|583=083b758f890444a8ab3f65dae48d104a|37=7977d428001045dbabfc39f9b8e2ab15|40=2|41=a9405470cc1545de927d3e9f3eaae9cc|44=2.61|48=NONE|55=RIOM|54=2|59=0|58=Replace from 2000.0 @ 2.62 To 2000.0 @ 2.61|63=2|60=20140710-13:52:03|453=1|448=TRADE|447=D|452=1|10=189|
20140710-13:52:03.912: 8=FIX.4.4|9=293|35=D|34=81|49=LVBSG|50=lvalgo|52=20140710-13:52:03.912|56=FROMARBITRAGELIMA_XNYSE|1=99990140|11=16f265c28a154e37bc7a13a93223bc04|21=1|38=2000|40=2|44=2.6|54=1|55=RIOM|59=0|60=20140710-13:52:03.911|63=2|100=XNYS|111=100|207=XNYS|583=083b758f890444a8ab3f65dae48d104a|453=1|448=TRADE|447=D|452=1|10=000|
20140710-13:52:03.946: 8=FIX.4.4|9=0473|35=8|49=FROMARBITRAGELIMA_XNYSE|56=LVBSG|34=94|52=20140710-13:51:46|57=lvalgo|1=99990140|207=XNYS|6=2.636|11=5b4e9c9adc424650a7b8878ad3b685f8|14=1000.0|15=NONE|17=e7ee7489413b4640ae65bb1ef36ea778|21=1|150=5|151=1000.0|100=XNYS|38=2000.0|39=1|583=083b758f890444a8ab3f65dae48d104a|37=7977d428001045dbabfc39f9b8e2ab15|40=2|41=a9405470cc1545de927d3e9f3eaae9cc|44=2.61|48=NONE|55=RIOM|54=2|59=0|58=Replaced to 2000.0 @ 2.61|63=2|60=20140710-13:52:03|453=1|448=TRADE|447=D|452=1|10=016|
20140710-13:52:03.947: 8=FIX.4.4|9=330|35=G|34=82|49=LVBSG|50=lvalgo|52=20140710-13:52:03.947|56=FROMARBITRAGELIMA_XNYSE|1=99990140|11=1301a11d20df47c2b7d5208477528ca8|21=1|38=2000|40=2|41=5b4e9c9adc424650a7b8878ad3b685f8|44=2.59|54=2|55=RIOM|59=0|60=20140710-13:52:03.947|63=2|100=XNYS|111=100|207=XNYS|583=083b758f890444a8ab3f65dae48d104a|453=1|448=TRADE|447=D|452=1|10=145|
20140710-13:52:03.987: 8=FIX.4.4|9=0445|35=8|49=FROMARBITRAGELIMA_XNYSE|56=LVBSG|34=95|52=20140710-13:51:46|57=lvalgo|1=99990140|207=XNYS|6=0.0|11=16f265c28a154e37bc7a13a93223bc04|14=0.0|15=NONE|17=9de341eeebbc4ccabe6c878c3d5b007c|21=1|31=0.0|150=A|151=2000.0|100=XNYS|32=0.0|38=2000.0|39=A|583=083b758f890444a8ab3f65dae48d104a|37=2440bed576694522bab4ad9036db8d2c|40=2|44=2.6|48=NONE|55=RIOM|54=1|59=0|58=New Buy RIOM 2000.0 @ 2.6|63=2|60=20140710-13:52:03|453=1|448=TRADE|447=D|452=1|10=140|
20140710-13:52:04.023: 8=FIX.4.4|9=0491|35=8|49=FROMARBITRAGELIMA_XNYSE|56=LVBSG|34=96|52=20140710-13:51:46|57=lvalgo|1=99990140|207=XNYS|6=2.636|11=1301a11d20df47c2b7d5208477528ca8|14=1000.0|15=NONE|17=922c330c5eff4125a676eb91d82a1e13|21=1|150=E|151=2000.0|100=XNYS|38=2000.0|39=E|583=083b758f890444a8ab3f65dae48d104a|37=7977d428001045dbabfc39f9b8e2ab15|40=2|41=5b4e9c9adc424650a7b8878ad3b685f8|44=2.59|48=NONE|55=RIOM|54=2|59=0|58=Replace from 2000.0 @ 2.61 To 2000.0 @ 2.59|63=2|60=20140710-13:52:03|453=1|448=TRADE|447=D|452=1|10=207|
20140710-13:52:04.544: 8=FIX.4.4|9=0416|35=8|49=FROMARBITRAGELIMA_XNYSE|56=LVBSG|34=97|52=20140710-13:51:46|57=lvalgo|1=99990140|207=XNYS|6=0.0|11=16f265c28a154e37bc7a13a93223bc04|14=0.0|15=NONE|17=68d3b55d2d1f445899826a989a37a531|21=1|31=0.0|150=0|151=2000.0|100=XNYS|32=0.0|38=2000.0|39=0|583=083b758f890444a8ab3f65dae48d104a|37=2440bed576694522bab4ad9036db8d2c|40=2|44=2.6|48=NONE|55=RIOM|54=1|59=0|63=2|60=20140710-13:52:04|453=1|448=TRADE|447=D|452=1|10=213|
20140710-13:52:04.567: 8=FIX.4.4|9=0473|35=8|49=FROMARBITRAGELIMA_XNYSE|56=LVBSG|34=98|52=20140710-13:51:46|57=lvalgo|1=99990140|207=XNYS|6=2.636|11=1301a11d20df47c2b7d5208477528ca8|14=1000.0|15=NONE|17=85a5f3c3ca1741eb9b0544ff7a262796|21=1|150=5|151=1000.0|100=XNYS|38=2000.0|39=1|583=083b758f890444a8ab3f65dae48d104a|37=7977d428001045dbabfc39f9b8e2ab15|40=2|41=5b4e9c9adc424650a7b8878ad3b685f8|44=2.59|48=NONE|55=RIOM|54=2|59=0|58=Replaced to 2000.0 @ 2.59|63=2|60=20140710-13:52:04|453=1|448=TRADE|447=D|452=1|10=227|
20140710-13:52:04.568: 8=FIX.4.4|9=0407|35=8|49=FROMARBITRAGELIMA_XNYSE|56=LVBSG|34=99|52=20140710-13:51:46|57=lvalgo|1=99990140|207=XNYS|6=2.613|11=1301a11d20df47c2b7d5208477528ca8|14=2000.0|17=14285b2a4f0c451c8b481b8267f26cc0|21=1|31=2.59|150=F|151=0.0|100=XNYS|32=1000.0|38=2000.0|39=2|583=083b758f890444a8ab3f65dae48d104a|37=7977d428001045dbabfc39f9b8e2ab15|40=2|44=2.59|55=RIOM|54=2|59=0|63=2|60=20140710-13:52:04|453=1|448=TRADE|447=D|452=1|10=206|
20140710-13:52:04.911: 8=FIX.4.4|9=0404|35=8|49=FROMARBITRAGELIMA_XNYSE|56=LVBSG|34=100|52=20140710-13:51:47|57=lvalgo|1=99990140|207=XNYS|6=2.6|11=16f265c28a154e37bc7a13a93223bc04|14=2000.0|17=ed57f3c37d4f4deda8475d583913d4bd|21=1|31=2.6|150=F|151=0.0|100=XNYS|32=2000.0|38=2000.0|39=2|583=083b758f890444a8ab3f65dae48d104a|37=2440bed576694522bab4ad9036db8d2c|40=2|44=2.6|55=RIOM|54=1|59=0|63=2|60=20140710-13:52:04|453=1|448=TRADE|447=D|452=1|10=025|
20140710-13:52:05.431: 8=FIX.4.4|9=293|35=D|34=83|49=LVBSG|50=lvalgo|52=20140710-13:52:05.431|56=FROMARBITRAGELIMA_XNYSE|1=99990140|11=e28bfd06cfa54f4ba111bf28a6f489ea|21=1|38=2000|40=2|44=2.6|54=1|55=RIOM|59=0|60=20140710-13:52:05.431|63=2|100=XNYS|111=100|207=XNYS|583=083b758f890444a8ab3f65dae48d104a|453=1|448=TRADE|447=D|452=1|10=046|
20140710-13:52:05.486: 8=FIX.4.4|9=0446|35=8|49=FROMARBITRAGELIMA_XNYSE|56=LVBSG|34=101|52=20140710-13:51:47|57=lvalgo|1=99990140|207=XNYS|6=0.0|11=e28bfd06cfa54f4ba111bf28a6f489ea|14=0.0|15=NONE|17=cfd5f93d21e54a65ad6b80429c5a9777|21=1|31=0.0|150=A|151=2000.0|100=XNYS|32=0.0|38=2000.0|39=A|583=083b758f890444a8ab3f65dae48d104a|37=1e7a27630f7a4cfba99fd3569973743e|40=2|44=2.6|48=NONE|55=RIOM|54=1|59=0|58=New Buy RIOM 2000.0 @ 2.6|63=2|60=20140710-13:52:05|453=1|448=TRADE|447=D|452=1|10=195|
20140710-13:52:05.728: 8=FIX.4.4|9=0417|35=8|49=FROMARBITRAGELIMA_XNYSE|56=LVBSG|34=102|52=20140710-13:51:47|57=lvalgo|1=99990140|207=XNYS|6=0.0|11=e28bfd06cfa54f4ba111bf28a6f489ea|14=0.0|15=NONE|17=c4752a1eae6a42c7a6056cc06c8ed97d|21=1|31=0.0|150=0|151=2000.0|100=XNYS|32=0.0|38=2000.0|39=0|583=083b758f890444a8ab3f65dae48d104a|37=1e7a27630f7a4cfba99fd3569973743e|40=2|44=2.6|48=NONE|55=RIOM|54=1|59=0|63=2|60=20140710-13:52:05|453=1|448=TRADE|447=D|452=1|10=029|
20140710-13:52:06.051: 8=FIX.4.4|9=0405|35=8|49=FROMARBITRAGELIMA_XNYSE|56=LVBSG|34=103|52=20140710-13:51:48|57=lvalgo|1=99990140|207=XNYS|6=2.6|11=e28bfd06cfa54f4ba111bf28a6f489ea|14=100.0|17=753db4dcdf1a4b78950ac1b5a2efb174|21=1|31=2.6|150=F|151=1900.0|100=XNYS|32=100.0|38=2000.0|39=1|583=083b758f890444a8ab3f65dae48d104a|37=1e7a27630f7a4cfba99fd3569973743e|40=2|44=2.6|55=RIOM|54=1|59=0|63=2|60=20140710-13:52:06|453=1|448=TRADE|447=D|452=1|10=136|
20140710-13:52:26.906: 8=FIX.4.4|9=0404|35=8|49=FROMARBITRAGELIMA_XNYSE|56=LVBSG|34=104|52=20140710-13:52:09|57=lvalgo|1=99990140|207=XNYS|6=2.6|11=e28bfd06cfa54f4ba111bf28a6f489ea|14=2000.0|17=22ffc9d32b6545649384fae7a2e256af|21=1|31=2.6|150=F|151=0.0|100=XNYS|32=1900.0|38=2000.0|39=2|583=083b758f890444a8ab3f65dae48d104a|37=1e7a27630f7a4cfba99fd3569973743e|40=2|44=2.6|55=RIOM|54=1|59=0|63=2|60=20140710-13:52:26|453=1|448=TRADE|447=D|452=1|10=222|
20140710-13:52:27.494: 8=FIX.4.4|9=293|35=D|34=84|49=LVBSG|50=lvalgo|52=20140710-13:52:27.494|56=FROMARBITRAGELIMA_XNYSE|1=99990140|11=29c00757a22044f0abc71751e87dc383|21=1|38=300|40=2|44=2.61|54=1|55=RIOM|59=0|60=20140710-13:52:27.494|63=2|100=XNYS|111=100|207=XNYS|583=083b758f890444a8ab3f65dae48d104a|453=1|448=TRADE|447=D|452=1|10=245|
20140710-13:52:27.528: 8=FIX.4.4|9=0445|35=8|49=FROMARBITRAGELIMA_XNYSE|56=LVBSG|34=105|52=20140710-13:52:09|57=lvalgo|1=99990140|207=XNYS|6=0.0|11=29c00757a22044f0abc71751e87dc383|14=0.0|15=NONE|17=0bd45f43ec1a47bd8d0b55c5dc65105a|21=1|31=0.0|150=A|151=300.0|100=XNYS|32=0.0|38=300.0|39=A|583=083b758f890444a8ab3f65dae48d104a|37=2847108fac814fb59e709bf2d58ac43c|40=2|44=2.61|48=NONE|55=RIOM|54=1|59=0|58=New Buy RIOM 300.0 @ 2.61|63=2|60=20140710-13:52:27|453=1|448=TRADE|447=D|452=1|10=170|
20140710-13:52:27.808: 8=FIX.4.4|9=0416|35=8|49=FROMARBITRAGELIMA_XNYSE|56=LVBSG|34=106|52=20140710-13:52:10|57=lvalgo|1=99990140|207=XNYS|6=0.0|11=29c00757a22044f0abc71751e87dc383|14=0.0|15=NONE|17=873534e9d59344a1a446012a785840a3|21=1|31=0.0|150=0|151=300.0|100=XNYS|32=0.0|38=300.0|39=0|583=083b758f890444a8ab3f65dae48d104a|37=2847108fac814fb59e709bf2d58ac43c|40=2|44=2.61|48=NONE|55=RIOM|54=1|59=0|63=2|60=20140710-13:52:27|453=1|448=TRADE|447=D|452=1|10=061|
20140710-13:52:28.143: 8=FIX.4.4|9=0404|35=8|49=FROMARBITRAGELIMA_XNYSE|56=LVBSG|34=107|52=20140710-13:52:10|57=lvalgo|1=99990140|207=XNYS|6=2.6|11=29c00757a22044f0abc71751e87dc383|14=200.0|17=f9d06f226e824a67a330210a502eb550|21=1|31=2.6|150=F|151=100.0|100=XNYS|32=200.0|38=300.0|39=1|583=083b758f890444a8ab3f65dae48d104a|37=2847108fac814fb59e709bf2d58ac43c|40=2|44=2.61|55=RIOM|54=1|59=0|63=2|60=20140710-13:52:28|453=1|448=TRADE|447=D|452=1|10=242|
20140710-13:52:28.143: 8=FIX.4.4|9=0418|35=8|49=FROMARBITRAGELIMA_XNYSE|56=LVBSG|34=108|52=20140710-13:52:10|57=lvalgo|1=99990140|207=XNYS|6=2.599333333333333|11=29c00757a22044f0abc71751e87dc383|14=300.0|17=eff7601c21a14b72adf71f493b78848f|21=1|31=2.598|150=F|151=0.0|100=XNYS|32=100.0|38=300.0|39=2|583=083b758f890444a8ab3f65dae48d104a|37=2847108fac814fb59e709bf2d58ac43c|40=2|44=2.61|55=RIOM|54=1|59=0|63=2|60=20140710-13:52:28|453=1|448=TRADE|447=D|452=1|10=138|
20140710-13:53:27.936: 8=FIX.4.4|9=72|35=0|34=85|49=LVBSG|52=20140710-13:53:27.936|56=FROMARBITRAGELIMA_XNYSE|10=115|
20140710-13:53:28.138: 8=FIX.4.4|9=0069|35=0|49=FROMARBITRAGELIMA_XNYSE|56=LVBSG|34=109|52=20140710-13:53:10|10=046|
20140710-13:54:27.936: 8=FIX.4.4|9=72|35=0|34=86|49=LVBSG|52=20140710-13:54:27.936|56=FROMARBITRAGELIMA_XNYSE|10=117|
20140710-13:54:28.136: 8=FIX.4.4|9=0069|35=0|49=FROMARBITRAGELIMA_XNYSE|56=LVBSG|34=110|52=20140710-13:54:10|10=039|
20140710-13:55:27.936: 8=FIX.4.4|9=72|35=0|34=87|49=LVBSG|52=20140710-13:55:27.936|56=FROMARBITRAGELIMA_XNYSE|10=119|
20140710-13:55:28.135: 8=FIX.4.4|9=0069|35=0|49=FROMARBITRAGELIMA_XNYSE|56=LVBSG|34=111|52=20140710-13:55:10|10=041|
20140710-13:56:02.627: 8=FIX.4.4|9=294|35=D|34=88|49=LVBSG|50=lvalgo|52=20140710-13:56:02.627|56=FROMARBITRAGELIMA_XNYSE|1=99990140|11=4b0b8b3f655747d0bbbc76051a6b51c6|21=1|38=2000|40=2|44=2.56|54=2|55=RIOM|59=0|60=20140710-13:56:02.627|63=2|100=XNYS|111=100|207=XNYS|583=083b758f890444a8ab3f65dae48d104a|453=1|448=TRADE|447=D|452=1|10=177|
20140710-13:56:02.653: 8=FIX.4.4|9=0449|35=8|49=FROMARBITRAGELIMA_XNYSE|56=LVBSG|34=112|52=20140710-13:55:44|57=lvalgo|1=99990140|207=XNYS|6=0.0|11=4b0b8b3f655747d0bbbc76051a6b51c6|14=0.0|15=NONE|17=10576c800118485986413f9b21305c79|21=1|31=0.0|150=A|151=2000.0|100=XNYS|32=0.0|38=2000.0|39=A|583=083b758f890444a8ab3f65dae48d104a|37=d6aa11a511a74871a49b0018d06bd1c6|40=2|44=2.56|48=NONE|55=RIOM|54=2|59=0|58=New Sell RIOM 2000.0 @ 2.56|63=2|60=20140710-13:56:02|453=1|448=TRADE|447=D|452=1|10=017|
20140710-13:56:02.880: 8=FIX.4.4|9=0418|35=8|49=FROMARBITRAGELIMA_XNYSE|56=LVBSG|34=113|52=20140710-13:55:45|57=lvalgo|1=99990140|207=XNYS|6=0.0|11=4b0b8b3f655747d0bbbc76051a6b51c6|14=0.0|15=NONE|17=86304aa63bd24d6d9275100517f44049|21=1|31=0.0|150=0|151=2000.0|100=XNYS|32=0.0|38=2000.0|39=0|583=083b758f890444a8ab3f65dae48d104a|37=d6aa11a511a74871a49b0018d06bd1c6|40=2|44=2.56|48=NONE|55=RIOM|54=2|59=0|63=2|60=20140710-13:56:02|453=1|448=TRADE|447=D|452=1|10=009|
20140710-13:56:03.283: 8=FIX.4.4|9=0407|35=8|49=FROMARBITRAGELIMA_XNYSE|56=LVBSG|34=114|52=20140710-13:55:45|57=lvalgo|1=99990140|207=XNYS|6=2.56|11=4b0b8b3f655747d0bbbc76051a6b51c6|14=2000.0|17=d52d179a56e743ddbc1201f010496ee7|21=1|31=2.56|150=F|151=0.0|100=XNYS|32=2000.0|38=2000.0|39=2|583=083b758f890444a8ab3f65dae48d104a|37=d6aa11a511a74871a49b0018d06bd1c6|40=2|44=2.56|55=RIOM|54=2|59=0|63=2|60=20140710-13:56:03|453=1|448=TRADE|447=D|452=1|10=064|
20140710-13:57:02.936: 8=FIX.4.4|9=72|35=0|34=89|49=LVBSG|52=20140710-13:57:02.936|56=FROMARBITRAGELIMA_XNYSE|10=116|
20140710-13:57:03.270: 8=FIX.4.4|9=0069|35=0|49=FROMARBITRAGELIMA_XNYSE|56=LVBSG|34=115|52=20140710-13:56:45|10=054|
20140710-13:58:02.936: 8=FIX.4.4|9=72|35=0|34=90|49=LVBSG|52=20140710-13:58:02.936|56=FROMARBITRAGELIMA_XNYSE|10=109|
20140710-13:58:03.271: 8=FIX.4.4|9=0069|35=0|49=FROMARBITRAGELIMA_XNYSE|56=LVBSG|34=116|52=20140710-13:57:45|10=056|
20140710-13:58:17.997: 8=FIX.4.4|9=293|35=D|34=91|49=LVBSG|50=lvalgo|52=20140710-13:58:17.997|56=FROMARBITRAGELIMA_XNYSE|1=99990140|11=6cab374bf0334ecca3c9a3e06f139d6f|21=1|38=800|40=2|44=2.57|54=2|55=RIOM|59=0|60=20140710-13:58:17.997|63=2|100=XNYS|111=100|207=XNYS|583=083b758f890444a8ab3f65dae48d104a|453=1|448=TRADE|447=D|452=1|10=057|
20140710-13:58:18.008: 8=FIX.4.4|9=0446|35=8|49=FROMARBITRAGELIMA_XNYSE|56=LVBSG|34=117|52=20140710-13:58:00|57=lvalgo|1=99990140|207=XNYS|6=0.0|11=6cab374bf0334ecca3c9a3e06f139d6f|14=0.0|15=NONE|17=0d6b6d7453b94876863b9c320a5e78aa|21=1|31=0.0|150=A|151=800.0|100=XNYS|32=0.0|38=800.0|39=A|583=083b758f890444a8ab3f65dae48d104a|37=e131ecaf6bea49b3af480ee7a3e8c46c|40=2|44=2.57|48=NONE|55=RIOM|54=2|59=0|58=New Sell RIOM 800.0 @ 2.57|63=2|60=20140710-13:58:18|453=1|448=TRADE|447=D|452=1|10=142|
20140710-13:58:18.266: 8=FIX.4.4|9=0416|35=8|49=FROMARBITRAGELIMA_XNYSE|56=LVBSG|34=118|52=20140710-13:58:00|57=lvalgo|1=99990140|207=XNYS|6=0.0|11=6cab374bf0334ecca3c9a3e06f139d6f|14=0.0|15=NONE|17=9baf680be8b247df98119512a48b5a74|21=1|31=0.0|150=0|151=800.0|100=XNYS|32=0.0|38=800.0|39=0|583=083b758f890444a8ab3f65dae48d104a|37=e131ecaf6bea49b3af480ee7a3e8c46c|40=2|44=2.57|48=NONE|55=RIOM|54=2|59=0|63=2|60=20140710-13:58:18|453=1|448=TRADE|447=D|452=1|10=091|
20140710-13:58:18.606: 8=FIX.4.4|9=0404|35=8|49=FROMARBITRAGELIMA_XNYSE|56=LVBSG|34=119|52=20140710-13:58:00|57=lvalgo|1=99990140|207=XNYS|6=2.57|11=6cab374bf0334ecca3c9a3e06f139d6f|14=800.0|17=8a21ae968c544a23b18a4166780b2659|21=1|31=2.57|150=F|151=0.0|100=XNYS|32=800.0|38=800.0|39=2|583=083b758f890444a8ab3f65dae48d104a|37=e131ecaf6bea49b3af480ee7a3e8c46c|40=2|44=2.57|55=RIOM|54=2|59=0|63=2|60=20140710-13:58:18|453=1|448=TRADE|447=D|452=1|10=014|
20140710-13:59:18.604: 8=FIX.4.4|9=0069|35=0|49=FROMARBITRAGELIMA_XNYSE|56=LVBSG|34=120|52=20140710-13:59:00|10=044|
20140710-13:59:18.605: 8=FIX.4.4|9=72|35=0|34=92|49=LVBSG|52=20140710-13:59:18.604|56=FROMARBITRAGELIMA_XNYSE|10=111|
20140710-14:00:18.603: 8=FIX.4.4|9=0069|35=0|49=FROMARBITRAGELIMA_XNYSE|56=LVBSG|34=121|52=20140710-14:00:00|10=032|
20140710-14:00:18.937: 8=FIX.4.4|9=72|35=0|34=93|49=LVBSG|52=20140710-14:00:18.936|56=FROMARBITRAGELIMA_XNYSE|10=107|
20140710-14:01:18.605: 8=FIX.4.4|9=0069|35=0|49=FROMARBITRAGELIMA_XNYSE|56=LVBSG|34=122|52=20140710-14:01:00|10=034|
20140710-14:01:18.959: 8=FIX.4.4|9=72|35=0|34=94|49=LVBSG|52=20140710-14:01:18.959|56=FROMARBITRAGELIMA_XNYSE|10=114|
20140710-14:02:18.605: 8=FIX.4.4|9=0069|35=0|49=FROMARBITRAGELIMA_XNYSE|56=LVBSG|34=123|52=20140710-14:02:00|10=036|
20140710-14:02:19.936: 8=FIX.4.4|9=72|35=0|34=95|49=LVBSG|52=20140710-14:02:19.936|56=FROMARBITRAGELIMA_XNYSE|10=112|
20140710-14:03:18.603: 8=FIX.4.4|9=0069|35=0|49=FROMARBITRAGELIMA_XNYSE|56=LVBSG|34=124|52=20140710-14:03:00|10=038|
20140710-14:03:19.936: 8=FIX.4.4|9=72|35=0|34=96|49=LVBSG|52=20140710-14:03:19.936|56=FROMARBITRAGELIMA_XNYSE|10=114|
20140710-14:04:18.610: 8=FIX.4.4|9=0069|35=0|49=FROMARBITRAGELIMA_XNYSE|56=LVBSG|34=125|52=20140710-14:04:00|10=040|
20140710-14:04:19.936: 8=FIX.4.4|9=72|35=0|34=97|49=LVBSG|52=20140710-14:04:19.936|56=FROMARBITRAGELIMA_XNYSE|10=116|
20140710-14:05:18.604: 8=FIX.4.4|9=0069|35=0|49=FROMARBITRAGELIMA_XNYSE|56=LVBSG|34=126|52=20140710-14:05:00|10=042|
20140710-14:05:19.936: 8=FIX.4.4|9=72|35=0|34=98|49=LVBSG|52=20140710-14:05:19.936|56=FROMARBITRAGELIMA_XNYSE|10=118|
20140710-14:06:18.608: 8=FIX.4.4|9=0069|35=0|49=FROMARBITRAGELIMA_XNYSE|56=LVBSG|34=127|52=20140710-14:06:00|10=044|
20140710-14:06:19.937: 8=FIX.4.4|9=72|35=0|34=99|49=LVBSG|52=20140710-14:06:19.937|56=FROMARBITRAGELIMA_XNYSE|10=121|
20140710-14:07:18.611: 8=FIX.4.4|9=0069|35=0|49=FROMARBITRAGELIMA_XNYSE|56=LVBSG|34=128|52=20140710-14:07:00|10=046|
20140710-14:07:19.937: 8=FIX.4.4|9=73|35=0|34=100|49=LVBSG|52=20140710-14:07:19.937|56=FROMARBITRAGELIMA_XNYSE|10=154|
20140710-14:08:18.609: 8=FIX.4.4|9=0069|35=0|49=FROMARBITRAGELIMA_XNYSE|56=LVBSG|34=129|52=20140710-14:08:00|10=048|
20140710-14:08:20.936: 8=FIX.4.4|9=73|35=0|34=101|49=LVBSG|52=20140710-14:08:20.936|56=FROMARBITRAGELIMA_XNYSE|10=147|
20140710-14:08:58.447: 8=FIX.4.4|9=295|35=D|34=102|49=LVBSG|50=lvalgo|52=20140710-14:08:58.447|56=FROMARBITRAGELIMA_XNYSE|1=99990140|11=cca93cca442b4c4aa3aeb734adbba85d|21=1|38=1300|40=2|44=2.58|54=1|55=RIOM|59=0|60=20140710-14:08:58.447|63=2|100=XNYS|111=100|207=XNYS|583=083b758f890444a8ab3f65dae48d104a|453=1|448=TRADE|447=D|452=1|10=044|
20140710-14:08:58.463: 8=FIX.4.4|9=0448|35=8|49=FROMARBITRAGELIMA_XNYSE|56=LVBSG|34=130|52=20140710-14:08:40|57=lvalgo|1=99990140|207=XNYS|6=0.0|11=cca93cca442b4c4aa3aeb734adbba85d|14=0.0|15=NONE|17=9b4f24ccf31a455eb82b2f4f72184a9e|21=1|31=0.0|150=A|151=1300.0|100=XNYS|32=0.0|38=1300.0|39=A|583=083b758f890444a8ab3f65dae48d104a|37=1140c8bdca5f4571bdc6c98e08b10606|40=2|44=2.58|48=NONE|55=RIOM|54=1|59=0|58=New Buy RIOM 1300.0 @ 2.58|63=2|60=20140710-14:08:58|453=1|448=TRADE|447=D|452=1|10=237|
20140710-14:08:58.752: 8=FIX.4.4|9=0418|35=8|49=FROMARBITRAGELIMA_XNYSE|56=LVBSG|34=131|52=20140710-14:08:40|57=lvalgo|1=99990140|207=XNYS|6=0.0|11=cca93cca442b4c4aa3aeb734adbba85d|14=0.0|15=NONE|17=e30e405c20fa47ecaee40780fbb65f31|21=1|31=0.0|150=0|151=1300.0|100=XNYS|32=0.0|38=1300.0|39=0|583=083b758f890444a8ab3f65dae48d104a|37=1140c8bdca5f4571bdc6c98e08b10606|40=2|44=2.58|48=NONE|55=RIOM|54=1|59=0|63=2|60=20140710-14:08:58|453=1|448=TRADE|447=D|452=1|10=220|
20140710-14:08:58.992: 8=FIX.4.4|9=0423|35=8|49=FROMARBITRAGELIMA_XNYSE|56=LVBSG|34=132|52=20140710-14:08:41|57=lvalgo|1=99990140|207=XNYS|6=2.5780000000000003|11=cca93cca442b4c4aa3aeb734adbba85d|14=200.0|17=2da49026b3cf4217b41e69bc296255c0|21=1|31=2.578|150=F|151=1100.0|100=XNYS|32=200.0|38=1300.0|39=1|583=083b758f890444a8ab3f65dae48d104a|37=1140c8bdca5f4571bdc6c98e08b10606|40=2|44=2.58|55=RIOM|54=1|59=0|63=2|60=20140710-14:08:58|453=1|448=TRADE|447=D|452=1|10=170|
20140710-14:08:59.000: 8=FIX.4.4|9=0421|35=8|49=FROMARBITRAGELIMA_XNYSE|56=LVBSG|34=133|52=20140710-14:08:41|57=lvalgo|1=99990140|207=XNYS|6=2.5789999999999997|11=cca93cca442b4c4aa3aeb734adbba85d|14=400.0|17=bf5b486f71c64ad789502a0ba9aa03b0|21=1|31=2.58|150=F|151=900.0|100=XNYS|32=200.0|38=1300.0|39=1|583=083b758f890444a8ab3f65dae48d104a|37=1140c8bdca5f4571bdc6c98e08b10606|40=2|44=2.58|55=RIOM|54=1|59=0|63=2|60=20140710-14:08:58|453=1|448=TRADE|447=D|452=1|10=071|
20140710-14:08:59.003: 8=FIX.4.4|9=0420|35=8|49=FROMARBITRAGELIMA_XNYSE|56=LVBSG|34=134|52=20140710-14:08:41|57=lvalgo|1=99990140|207=XNYS|6=2.5796923076923077|11=cca93cca442b4c4aa3aeb734adbba85d|14=1300.0|17=d5a6ce1e1c8c4f908e03ada4089130ad|21=1|31=2.58|150=F|151=0.0|100=XNYS|32=900.0|38=1300.0|39=2|583=083b758f890444a8ab3f65dae48d104a|37=1140c8bdca5f4571bdc6c98e08b10606|40=2|44=2.58|55=RIOM|54=1|59=0|63=2|60=20140710-14:08:58|453=1|448=TRADE|447=D|452=1|10=017|
20140710-14:09:58.936: 8=FIX.4.4|9=73|35=0|34=103|49=LVBSG|52=20140710-14:09:58.936|56=FROMARBITRAGELIMA_XNYSE|10=161|
20140710-14:09:58.998: 8=FIX.4.4|9=0069|35=0|49=FROMARBITRAGELIMA_XNYSE|56=LVBSG|34=135|52=20140710-14:09:41|10=051|
20140710-14:10:58.959: 8=FIX.4.4|9=73|35=0|34=104|49=LVBSG|52=20140710-14:10:58.959|56=FROMARBITRAGELIMA_XNYSE|10=159|
20140710-14:10:59.005: 8=FIX.4.4|9=0069|35=0|49=FROMARBITRAGELIMA_XNYSE|56=LVBSG|34=136|52=20140710-14:10:41|10=044|
20140710-14:11:24.029: 8=FIX.4.4|9=294|35=D|34=105|49=LVBSG|50=lvalgo|52=20140710-14:11:24.029|56=FROMARBITRAGELIMA_XNYSE|1=99990140|11=f0f18965dd954afeb8452100d0aefb5d|21=1|38=400|40=2|44=2.56|54=1|55=RIOM|59=0|60=20140710-14:11:24.029|63=2|100=XNYS|111=100|207=XNYS|583=083b758f890444a8ab3f65dae48d104a|453=1|448=TRADE|447=D|452=1|10=003|
20140710-14:11:24.047: 8=FIX.4.4|9=0445|35=8|49=FROMARBITRAGELIMA_XNYSE|56=LVBSG|34=137|52=20140710-14:11:06|57=lvalgo|1=99990140|207=XNYS|6=0.0|11=f0f18965dd954afeb8452100d0aefb5d|14=0.0|15=NONE|17=704dc914d7f74163b2ed9c205c73e62e|21=1|31=0.0|150=A|151=400.0|100=XNYS|32=0.0|38=400.0|39=A|583=083b758f890444a8ab3f65dae48d104a|37=d83077997ba149b6ac15152586e995ee|40=2|44=2.56|48=NONE|55=RIOM|54=1|59=0|58=New Buy RIOM 400.0 @ 2.56|63=2|60=20140710-14:11:24|453=1|448=TRADE|447=D|452=1|10=170|
20140710-14:11:24.293: 8=FIX.4.4|9=0416|35=8|49=FROMARBITRAGELIMA_XNYSE|56=LVBSG|34=138|52=20140710-14:11:06|57=lvalgo|1=99990140|207=XNYS|6=0.0|11=f0f18965dd954afeb8452100d0aefb5d|14=0.0|15=NONE|17=ca6ac158eeb74a0f9facd586a7741b6f|21=1|31=0.0|150=0|151=400.0|100=XNYS|32=0.0|38=400.0|39=0|583=083b758f890444a8ab3f65dae48d104a|37=d83077997ba149b6ac15152586e995ee|40=2|44=2.56|48=NONE|55=RIOM|54=1|59=0|63=2|60=20140710-14:11:24|453=1|448=TRADE|447=D|452=1|10=159|
20140710-14:11:24.669: 8=FIX.4.4|9=0406|35=8|49=FROMARBITRAGELIMA_XNYSE|56=LVBSG|34=139|52=20140710-14:11:06|57=lvalgo|1=99990140|207=XNYS|6=2.558|11=f0f18965dd954afeb8452100d0aefb5d|14=400.0|17=b1f9478ce1a14a41ad0901448004f6ea|21=1|31=2.558|150=F|151=0.0|100=XNYS|32=400.0|38=400.0|39=2|583=083b758f890444a8ab3f65dae48d104a|37=d83077997ba149b6ac15152586e995ee|40=2|44=2.56|55=RIOM|54=1|59=0|63=2|60=20140710-14:11:24|453=1|448=TRADE|447=D|452=1|10=078|
20140710-14:11:25.143: 8=FIX.4.4|9=295|35=D|34=106|49=LVBSG|50=lvalgo|52=20140710-14:11:25.143|56=FROMARBITRAGELIMA_XNYSE|1=99990140|11=7e7867b2865c4b7db7261f7e1519a0a8|21=1|38=2000|40=2|44=2.56|54=1|55=RIOM|59=0|60=20140710-14:11:25.142|63=2|100=XNYS|111=100|207=XNYS|583=083b758f890444a8ab3f65dae48d104a|453=1|448=TRADE|447=D|452=1|10=127|
20140710-14:11:25.192: 8=FIX.4.4|9=0448|35=8|49=FROMARBITRAGELIMA_XNYSE|56=LVBSG|34=140|52=20140710-14:11:07|57=lvalgo|1=99990140|207=XNYS|6=0.0|11=7e7867b2865c4b7db7261f7e1519a0a8|14=0.0|15=NONE|17=1193999ff23f46639a7e96715aa57da5|21=1|31=0.0|150=A|151=2000.0|100=XNYS|32=0.0|38=2000.0|39=A|583=083b758f890444a8ab3f65dae48d104a|37=424e6501d6de4887bfb81408aedfe839|40=2|44=2.56|48=NONE|55=RIOM|54=1|59=0|58=New Buy RIOM 2000.0 @ 2.56|63=2|60=20140710-14:11:25|453=1|448=TRADE|447=D|452=1|10=195|
20140710-14:11:25.474: 8=FIX.4.4|9=0418|35=8|49=FROMARBITRAGELIMA_XNYSE|56=LVBSG|34=141|52=20140710-14:11:07|57=lvalgo|1=99990140|207=XNYS|6=0.0|11=7e7867b2865c4b7db7261f7e1519a0a8|14=0.0|15=NONE|17=de45a3bda78a49bc9e8b20c3f17659d3|21=1|31=0.0|150=0|151=2000.0|100=XNYS|32=0.0|38=2000.0|39=0|583=083b758f890444a8ab3f65dae48d104a|37=424e6501d6de4887bfb81408aedfe839|40=2|44=2.56|48=NONE|55=RIOM|54=1|59=0|63=2|60=20140710-14:11:25|453=1|448=TRADE|447=D|452=1|10=115|
20140710-14:11:25.704: 8=FIX.4.4|9=0409|35=8|49=FROMARBITRAGELIMA_XNYSE|56=LVBSG|34=142|52=20140710-14:11:07|57=lvalgo|1=99990140|207=XNYS|6=2.558|11=7e7867b2865c4b7db7261f7e1519a0a8|14=2000.0|17=e2752ebdc49346a699ce8612d29d8f99|21=1|31=2.558|150=F|151=0.0|100=XNYS|32=2000.0|38=2000.0|39=2|583=083b758f890444a8ab3f65dae48d104a|37=424e6501d6de4887bfb81408aedfe839|40=2|44=2.56|55=RIOM|54=1|59=0|63=2|60=20140710-14:11:25|453=1|448=TRADE|447=D|452=1|10=226|
20140710-14:11:26.119: 8=FIX.4.4|9=295|35=D|34=107|49=LVBSG|50=lvalgo|52=20140710-14:11:26.119|56=FROMARBITRAGELIMA_XNYSE|1=99990140|11=e2afdd75a5224db89c25d74f3e0a4a31|21=1|38=2000|40=2|44=2.56|54=1|55=RIOM|59=0|60=20140710-14:11:26.119|63=2|100=XNYS|111=100|207=XNYS|583=083b758f890444a8ab3f65dae48d104a|453=1|448=TRADE|447=D|452=1|10=048|
20140710-14:11:26.171: 8=FIX.4.4|9=0448|35=8|49=FROMARBITRAGELIMA_XNYSE|56=LVBSG|34=143|52=20140710-14:11:08|57=lvalgo|1=99990140|207=XNYS|6=0.0|11=e2afdd75a5224db89c25d74f3e0a4a31|14=0.0|15=NONE|17=d39b78bc73494036bff5e94ef6ae1fc0|21=1|31=0.0|150=A|151=2000.0|100=XNYS|32=0.0|38=2000.0|39=A|583=083b758f890444a8ab3f65dae48d104a|37=cd8555d2a1e744b38d270531a758a39d|40=2|44=2.56|48=NONE|55=RIOM|54=1|59=0|58=New Buy RIOM 2000.0 @ 2.56|63=2|60=20140710-14:11:26|453=1|448=TRADE|447=D|452=1|10=228|
20140710-14:11:26.446: 8=FIX.4.4|9=0418|35=8|49=FROMARBITRAGELIMA_XNYSE|56=LVBSG|34=144|52=20140710-14:11:08|57=lvalgo|1=99990140|207=XNYS|6=0.0|11=e2afdd75a5224db89c25d74f3e0a4a31|14=0.0|15=NONE|17=ebd2f44e257b4b9d8781017ce21637c0|21=1|31=0.0|150=0|151=2000.0|100=XNYS|32=0.0|38=2000.0|39=0|583=083b758f890444a8ab3f65dae48d104a|37=cd8555d2a1e744b38d270531a758a39d|40=2|44=2.56|48=NONE|55=RIOM|54=1|59=0|63=2|60=20140710-14:11:26|453=1|448=TRADE|447=D|452=1|10=026|
20140710-14:11:26.790: 8=FIX.4.4|9=0409|35=8|49=FROMARBITRAGELIMA_XNYSE|56=LVBSG|34=145|52=20140710-14:11:09|57=lvalgo|1=99990140|207=XNYS|6=2.558|11=e2afdd75a5224db89c25d74f3e0a4a31|14=2000.0|17=be7a9aa10c16410c9d2c95e41ea85a1d|21=1|31=2.558|150=F|151=0.0|100=XNYS|32=2000.0|38=2000.0|39=2|583=083b758f890444a8ab3f65dae48d104a|37=cd8555d2a1e744b38d270531a758a39d|40=2|44=2.56|55=RIOM|54=1|59=0|63=2|60=20140710-14:11:26|453=1|448=TRADE|447=D|452=1|10=127|
20140710-14:11:27.350: 8=FIX.4.4|9=295|35=D|34=108|49=LVBSG|50=lvalgo|52=20140710-14:11:27.350|56=FROMARBITRAGELIMA_XNYSE|1=99990140|11=c2b3a6fe64064dff9cdc0eee6b9e591c|21=1|38=1500|40=2|44=2.56|54=1|55=RIOM|59=0|60=20140710-14:11:27.350|63=2|100=XNYS|111=100|207=XNYS|583=083b758f890444a8ab3f65dae48d104a|453=1|448=TRADE|447=D|452=1|10=211|
20140710-14:11:27.415: 8=FIX.4.4|9=0448|35=8|49=FROMARBITRAGELIMA_XNYSE|56=LVBSG|34=146|52=20140710-14:11:09|57=lvalgo|1=99990140|207=XNYS|6=0.0|11=c2b3a6fe64064dff9cdc0eee6b9e591c|14=0.0|15=NONE|17=2c5743565c984bf1ae4fa1a644c23ceb|21=1|31=0.0|150=A|151=1500.0|100=XNYS|32=0.0|38=1500.0|39=A|583=083b758f890444a8ab3f65dae48d104a|37=2cc21e42c031465f871ecefa1d1eb5bd|40=2|44=2.56|48=NONE|55=RIOM|54=1|59=0|58=New Buy RIOM 1500.0 @ 2.56|63=2|60=20140710-14:11:27|453=1|448=TRADE|447=D|452=1|10=046|
20140710-14:11:27.681: 8=FIX.4.4|9=0418|35=8|49=FROMARBITRAGELIMA_XNYSE|56=LVBSG|34=147|52=20140710-14:11:09|57=lvalgo|1=99990140|207=XNYS|6=0.0|11=c2b3a6fe64064dff9cdc0eee6b9e591c|14=0.0|15=NONE|17=00d305f482bc435ab2a9e537be2fb163|21=1|31=0.0|150=0|151=1500.0|100=XNYS|32=0.0|38=1500.0|39=0|583=083b758f890444a8ab3f65dae48d104a|37=2cc21e42c031465f871ecefa1d1eb5bd|40=2|44=2.56|48=NONE|55=RIOM|54=1|59=0|63=2|60=20140710-14:11:27|453=1|448=TRADE|447=D|452=1|10=194|
20140710-14:11:27.688: 8=FIX.4.4|9=331|35=G|34=109|49=LVBSG|50=lvalgo|52=20140710-14:11:27.688|56=FROMARBITRAGELIMA_XNYSE|1=99990140|11=77c76fe869344d9a9d018ac5d76309f5|21=1|38=2000|40=2|41=c2b3a6fe64064dff9cdc0eee6b9e591c|44=2.56|54=1|55=RIOM|59=0|60=20140710-14:11:27.688|63=2|100=XNYS|111=100|207=XNYS|583=083b758f890444a8ab3f65dae48d104a|453=1|448=TRADE|447=D|452=1|10=009|
20140710-14:11:27.724: 8=FIX.4.4|9=0487|35=8|49=FROMARBITRAGELIMA_XNYSE|56=LVBSG|34=148|52=20140710-14:11:09|57=lvalgo|1=99990140|207=XNYS|6=0.0|11=77c76fe869344d9a9d018ac5d76309f5|14=0.0|15=NONE|17=c44ae404cc724a47ab163c5047b264e4|21=1|150=E|151=2000.0|100=XNYS|38=2000.0|39=E|583=083b758f890444a8ab3f65dae48d104a|37=2cc21e42c031465f871ecefa1d1eb5bd|40=2|41=c2b3a6fe64064dff9cdc0eee6b9e591c|44=2.56|48=NONE|55=RIOM|54=1|59=0|58=Replace from 1500.0 @ 2.56 To 2000.0 @ 2.56|63=2|60=20140710-14:11:27|453=1|448=TRADE|447=D|452=1|10=181|
20140710-14:11:27.920: 8=FIX.4.4|9=0411|35=8|49=FROMARBITRAGELIMA_XNYSE|56=LVBSG|34=149|52=20140710-14:11:10|57=lvalgo|1=99990140|207=XNYS|6=2.558|11=77c76fe869344d9a9d018ac5d76309f5|14=1500.0|17=f6f04c85a8ab4c05a892be822c3d65e5|21=1|31=2.558|150=F|151=500.0|100=XNYS|32=1500.0|38=2000.0|39=1|583=083b758f890444a8ab3f65dae48d104a|37=2cc21e42c031465f871ecefa1d1eb5bd|40=2|44=2.56|55=RIOM|54=1|59=0|63=2|60=20140710-14:11:27|453=1|448=TRADE|447=D|452=1|10=008|
20140710-14:11:28.297: 8=FIX.4.4|9=0406|35=8|49=FROMARBITRAGELIMA_XNYSE|56=LVBSG|34=150|52=20140710-14:11:10|57=lvalgo|1=99990140|207=XNYS|6=2.558|11=77c76fe869344d9a9d018ac5d76309f5|14=1500.0|17=814af8c175fc4723b6900aaec0fc720e|150=F|151=0.0|100=XNYS|38=2000.0|39=2|37=2cc21e42c031465f871ecefa1d1eb5bd|583=083b758f890444a8ab3f65dae48d104a|41=c2b3a6fe64064dff9cdc0eee6b9e591c|44=2.56|55=RIOM|54=1|60=20140710-14:11:28|453=1|448=TRADE|447=D|452=1|10=043|
20140710-14:11:28.733: 8=FIX.4.4|9=295|35=D|34=110|49=LVBSG|50=lvalgo|52=20140710-14:11:28.733|56=FROMARBITRAGELIMA_XNYSE|1=99990140|11=600b2a2261f549218984b1d43563eaeb|21=1|38=2000|40=2|44=2.56|54=1|55=RIOM|59=0|60=20140710-14:11:28.733|63=2|100=XNYS|111=100|207=XNYS|583=083b758f890444a8ab3f65dae48d104a|453=1|448=TRADE|447=D|452=1|10=065|
20140710-14:11:28.756: 8=FIX.4.4|9=0448|35=8|49=FROMARBITRAGELIMA_XNYSE|56=LVBSG|34=151|52=20140710-14:11:11|57=lvalgo|1=99990140|207=XNYS|6=0.0|11=600b2a2261f549218984b1d43563eaeb|14=0.0|15=NONE|17=cf3c74cc58494aabb043d3c145b74056|21=1|31=0.0|150=A|151=2000.0|100=XNYS|32=0.0|38=2000.0|39=A|583=083b758f890444a8ab3f65dae48d104a|37=71d0e485740f4b66a3f2baec1b5923ff|40=2|44=2.56|48=NONE|55=RIOM|54=1|59=0|58=New Buy RIOM 2000.0 @ 2.56|63=2|60=20140710-14:11:28|453=1|448=TRADE|447=D|452=1|10=000|
20140710-14:11:29.029: 8=FIX.4.4|9=0418|35=8|49=FROMARBITRAGELIMA_XNYSE|56=LVBSG|34=152|52=20140710-14:11:11|57=lvalgo|1=99990140|207=XNYS|6=0.0|11=600b2a2261f549218984b1d43563eaeb|14=0.0|15=NONE|17=63e583114f114958a1f9acf74b347644|21=1|31=0.0|150=0|151=2000.0|100=XNYS|32=0.0|38=2000.0|39=0|583=083b758f890444a8ab3f65dae48d104a|37=71d0e485740f4b66a3f2baec1b5923ff|40=2|44=2.56|48=NONE|55=RIOM|54=1|59=0|63=2|60=20140710-14:11:29|453=1|448=TRADE|447=D|452=1|10=041|
20140710-14:11:29.430: 8=FIX.4.4|9=0409|35=8|49=FROMARBITRAGELIMA_XNYSE|56=LVBSG|34=153|52=20140710-14:11:11|57=lvalgo|1=99990140|207=XNYS|6=2.558|11=600b2a2261f549218984b1d43563eaeb|14=2000.0|17=42ad610deb5a43bcb6746866d5a07d54|21=1|31=2.558|150=F|151=0.0|100=XNYS|32=2000.0|38=2000.0|39=2|583=083b758f890444a8ab3f65dae48d104a|37=71d0e485740f4b66a3f2baec1b5923ff|40=2|44=2.56|55=RIOM|54=1|59=0|63=2|60=20140710-14:11:29|453=1|448=TRADE|447=D|452=1|10=190|
20140710-14:11:29.946: 8=FIX.4.4|9=295|35=D|34=111|49=LVBSG|50=lvalgo|52=20140710-14:11:29.946|56=FROMARBITRAGELIMA_XNYSE|1=99990140|11=75707e26c7a84b41a4bd4b31eccb6127|21=1|38=2000|40=2|44=2.56|54=1|55=RIOM|59=0|60=20140710-14:11:29.946|63=2|100=XNYS|111=100|207=XNYS|583=083b758f890444a8ab3f65dae48d104a|453=1|448=TRADE|447=D|452=1|10=224|
20140710-14:11:29.957: 8=FIX.4.4|9=0448|35=8|49=FROMARBITRAGELIMA_XNYSE|56=LVBSG|34=154|52=20140710-14:11:12|57=lvalgo|1=99990140|207=XNYS|6=0.0|11=75707e26c7a84b41a4bd4b31eccb6127|14=0.0|15=NONE|17=ad931e42ecbc4aab97650d82b7690cba|21=1|31=0.0|150=A|151=2000.0|100=XNYS|32=0.0|38=2000.0|39=A|583=083b758f890444a8ab3f65dae48d104a|37=1b3d19b503874f75b38d598132404178|40=2|44=2.56|48=NONE|55=RIOM|54=1|59=0|58=New Buy RIOM 2000.0 @ 2.56|63=2|60=20140710-14:11:29|453=1|448=TRADE|447=D|452=1|10=225|
20140710-14:11:30.256: 8=FIX.4.4|9=0418|35=8|49=FROMARBITRAGELIMA_XNYSE|56=LVBSG|34=155|52=20140710-14:11:12|57=lvalgo|1=99990140|207=XNYS|6=0.0|11=75707e26c7a84b41a4bd4b31eccb6127|14=0.0|15=NONE|17=9ecb6678b2a741db98705e24f4658856|21=1|31=0.0|150=0|151=2000.0|100=XNYS|32=0.0|38=2000.0|39=0|583=083b758f890444a8ab3f65dae48d104a|37=1b3d19b503874f75b38d598132404178|40=2|44=2.56|48=NONE|55=RIOM|54=1|59=0|63=2|60=20140710-14:11:30|453=1|448=TRADE|447=D|452=1|10=178|
20140710-14:11:30.578: 8=FIX.4.4|9=0409|35=8|49=FROMARBITRAGELIMA_XNYSE|56=LVBSG|34=156|52=20140710-14:11:12|57=lvalgo|1=99990140|207=XNYS|6=2.558|11=75707e26c7a84b41a4bd4b31eccb6127|14=2000.0|17=e074a49b75584013b9c47576ab67e608|21=1|31=2.558|150=F|151=0.0|100=XNYS|32=2000.0|38=2000.0|39=2|583=083b758f890444a8ab3f65dae48d104a|37=1b3d19b503874f75b38d598132404178|40=2|44=2.56|55=RIOM|54=1|59=0|63=2|60=20140710-14:11:30|453=1|448=TRADE|447=D|452=1|10=089|
20140710-14:11:31.030: 8=FIX.4.4|9=295|35=D|34=112|49=LVBSG|50=lvalgo|52=20140710-14:11:31.030|56=FROMARBITRAGELIMA_XNYSE|1=99990140|11=61acbedbc8964f33be2ebc5ef6ffe48c|21=1|38=2000|40=2|44=2.56|54=1|55=RIOM|59=0|60=20140710-14:11:31.030|63=2|100=XNYS|111=100|207=XNYS|583=083b758f890444a8ab3f65dae48d104a|453=1|448=TRADE|447=D|452=1|10=023|
20140710-14:11:31.041: 8=FIX.4.4|9=0448|35=8|49=FROMARBITRAGELIMA_XNYSE|56=LVBSG|34=157|52=20140710-14:11:13|57=lvalgo|1=99990140|207=XNYS|6=0.0|11=61acbedbc8964f33be2ebc5ef6ffe48c|14=0.0|15=NONE|17=8041580fb94b4bae88ad3ed13893d9ac|21=1|31=0.0|150=A|151=2000.0|100=XNYS|32=0.0|38=2000.0|39=A|583=083b758f890444a8ab3f65dae48d104a|37=a57d9ae3c4454be3ae53d7fd0e469417|40=2|44=2.56|48=NONE|55=RIOM|54=1|59=0|58=New Buy RIOM 2000.0 @ 2.56|63=2|60=20140710-14:11:31|453=1|448=TRADE|447=D|452=1|10=064|
20140710-14:11:31.336: 8=FIX.4.4|9=0418|35=8|49=FROMARBITRAGELIMA_XNYSE|56=LVBSG|34=158|52=20140710-14:11:13|57=lvalgo|1=99990140|207=XNYS|6=0.0|11=61acbedbc8964f33be2ebc5ef6ffe48c|14=0.0|15=NONE|17=24b9edc844314c5b8f418825eb63e3dc|21=1|31=0.0|150=0|151=2000.0|100=XNYS|32=0.0|38=2000.0|39=0|583=083b758f890444a8ab3f65dae48d104a|37=a57d9ae3c4454be3ae53d7fd0e469417|40=2|44=2.56|48=NONE|55=RIOM|54=1|59=0|63=2|60=20140710-14:11:31|453=1|448=TRADE|447=D|452=1|10=230|
20140710-14:11:31.663: 8=FIX.4.4|9=0409|35=8|49=FROMARBITRAGELIMA_XNYSE|56=LVBSG|34=159|52=20140710-14:11:13|57=lvalgo|1=99990140|207=XNYS|6=2.558|11=61acbedbc8964f33be2ebc5ef6ffe48c|14=2000.0|17=00e449b6aa604443a93690a1f37ce0c4|21=1|31=2.558|150=F|151=0.0|100=XNYS|32=2000.0|38=2000.0|39=2|583=083b758f890444a8ab3f65dae48d104a|37=a57d9ae3c4454be3ae53d7fd0e469417|40=2|44=2.56|55=RIOM|54=1|59=0|63=2|60=20140710-14:11:31|453=1|448=TRADE|447=D|452=1|10=085|
20140710-14:11:32.126: 8=FIX.4.4|9=294|35=D|34=113|49=LVBSG|50=lvalgo|52=20140710-14:11:32.126|56=FROMARBITRAGELIMA_XNYSE|1=99990140|11=91368071a48d4badbc31bd4e947e98b0|21=1|38=300|40=2|44=2.56|54=1|55=RIOM|59=0|60=20140710-14:11:32.126|63=2|100=XNYS|111=100|207=XNYS|583=083b758f890444a8ab3f65dae48d104a|453=1|448=TRADE|447=D|452=1|10=158|
20140710-14:11:32.150: 8=FIX.4.4|9=0445|35=8|49=FROMARBITRAGELIMA_XNYSE|56=LVBSG|34=160|52=20140710-14:11:14|57=lvalgo|1=99990140|207=XNYS|6=0.0|11=91368071a48d4badbc31bd4e947e98b0|14=0.0|15=NONE|17=6ad93abbe0eb4388bf30df431113ed56|21=1|31=0.0|150=A|151=300.0|100=XNYS|32=0.0|38=300.0|39=A|583=083b758f890444a8ab3f65dae48d104a|37=666ad4c9091641e2b9a421fb886a4b4f|40=2|44=2.56|48=NONE|55=RIOM|54=1|59=0|58=New Buy RIOM 300.0 @ 2.56|63=2|60=20140710-14:11:32|453=1|448=TRADE|447=D|452=1|10=015|
20140710-14:11:32.424: 8=FIX.4.4|9=0416|35=8|49=FROMARBITRAGELIMA_XNYSE|56=LVBSG|34=161|52=20140710-14:11:14|57=lvalgo|1=99990140|207=XNYS|6=0.0|11=91368071a48d4badbc31bd4e947e98b0|14=0.0|15=NONE|17=a935505bd77845c2bf64a1500cc38f70|21=1|31=0.0|150=0|151=300.0|100=XNYS|32=0.0|38=300.0|39=0|583=083b758f890444a8ab3f65dae48d104a|37=666ad4c9091641e2b9a421fb886a4b4f|40=2|44=2.56|48=NONE|55=RIOM|54=1|59=0|63=2|60=20140710-14:11:32|453=1|448=TRADE|447=D|452=1|10=092|
20140710-14:11:32.762: 8=FIX.4.4|9=0406|35=8|49=FROMARBITRAGELIMA_XNYSE|56=LVBSG|34=162|52=20140710-14:11:15|57=lvalgo|1=99990140|207=XNYS|6=2.558|11=91368071a48d4badbc31bd4e947e98b0|14=300.0|17=b3a4111197f748278b50da0ee0dbf4ff|21=1|31=2.558|150=F|151=0.0|100=XNYS|32=300.0|38=300.0|39=2|583=083b758f890444a8ab3f65dae48d104a|37=666ad4c9091641e2b9a421fb886a4b4f|40=2|44=2.56|55=RIOM|54=1|59=0|63=2|60=20140710-14:11:32|453=1|448=TRADE|447=D|452=1|10=159|
20140710-14:11:56.411: 8=FIX.4.4|9=295|35=D|34=114|49=LVBSG|50=lvalgo|52=20140710-14:11:56.411|56=FROMARBITRAGELIMA_XNYSE|1=99990140|11=88de027f47be476381905d1ba26c813e|21=1|38=1700|40=2|44=2.55|54=1|55=RIOM|59=0|60=20140710-14:11:56.411|63=2|100=XNYS|111=100|207=XNYS|583=083b758f890444a8ab3f65dae48d104a|453=1|448=TRADE|447=D|452=1|10=128|
20140710-14:11:56.427: 8=FIX.4.4|9=0448|35=8|49=FROMARBITRAGELIMA_XNYSE|56=LVBSG|34=163|52=20140710-14:11:38|57=lvalgo|1=99990140|207=XNYS|6=0.0|11=88de027f47be476381905d1ba26c813e|14=0.0|15=NONE|17=bdc9b8ff8043406eb6516aa575593999|21=1|31=0.0|150=A|151=1700.0|100=XNYS|32=0.0|38=1700.0|39=A|583=083b758f890444a8ab3f65dae48d104a|37=69c9a2a1ca2b48389c5b8bd850065857|40=2|44=2.55|48=NONE|55=RIOM|54=1|59=0|58=New Buy RIOM 1700.0 @ 2.55|63=2|60=20140710-14:11:56|453=1|448=TRADE|447=D|452=1|10=159|
20140710-14:11:56.683: 8=FIX.4.4|9=0418|35=8|49=FROMARBITRAGELIMA_XNYSE|56=LVBSG|34=164|52=20140710-14:11:38|57=lvalgo|1=99990140|207=XNYS|6=0.0|11=88de027f47be476381905d1ba26c813e|14=0.0|15=NONE|17=9d242e2706cb462fa6fc07cb83e58957|21=1|31=0.0|150=0|151=1700.0|100=XNYS|32=0.0|38=1700.0|39=0|583=083b758f890444a8ab3f65dae48d104a|37=69c9a2a1ca2b48389c5b8bd850065857|40=2|44=2.55|48=NONE|55=RIOM|54=1|59=0|63=2|60=20140710-14:11:56|453=1|448=TRADE|447=D|452=1|10=148|
20140710-14:11:57.054: 8=FIX.4.4|9=0408|35=8|49=FROMARBITRAGELIMA_XNYSE|56=LVBSG|34=165|52=20140710-14:11:39|57=lvalgo|1=99990140|207=XNYS|6=2.55|11=88de027f47be476381905d1ba26c813e|14=100.0|17=ff5e1e09f73b4be3b19ced0d15c1820d|21=1|31=2.55|150=F|151=1600.0|100=XNYS|32=100.0|38=1700.0|39=1|583=083b758f890444a8ab3f65dae48d104a|37=69c9a2a1ca2b48389c5b8bd850065857|40=2|44=2.55|55=RIOM|54=1|59=0|63=2|60=20140710-14:11:57|453=1|448=TRADE|447=D|452=1|10=227|
20140710-14:12:35.620: 8=FIX.4.4|9=295|35=D|34=115|49=LVBSG|50=lvalgo|52=20140710-14:12:35.620|56=FROMARBITRAGELIMA_XNYSE|1=99990140|11=ed15a46aa37449fe8ad3a1a95e444452|21=1|38=1200|40=2|44=2.55|54=2|55=RIOM|59=0|60=20140710-14:12:35.620|63=2|100=XNYS|111=100|207=XNYS|583=083b758f890444a8ab3f65dae48d104a|453=1|448=TRADE|447=D|452=1|10=211|
20140710-14:12:35.651: 8=FIX.4.4|9=0449|35=8|49=FROMARBITRAGELIMA_XNYSE|56=LVBSG|34=166|52=20140710-14:12:17|57=lvalgo|1=99990140|207=XNYS|6=0.0|11=ed15a46aa37449fe8ad3a1a95e444452|14=0.0|15=NONE|17=f16b54a2e66647dfb91c71473258803c|21=1|31=0.0|150=A|151=1200.0|100=XNYS|32=0.0|38=1200.0|39=A|583=083b758f890444a8ab3f65dae48d104a|37=05157a26249943d6ba027281e4b5dd0b|40=2|44=2.55|48=NONE|55=RIOM|54=2|59=0|58=New Sell RIOM 1200.0 @ 2.55|63=2|60=20140710-14:12:35|453=1|448=TRADE|447=D|452=1|10=192|
20140710-14:12:35.919: 8=FIX.4.4|9=0418|35=8|49=FROMARBITRAGELIMA_XNYSE|56=LVBSG|34=167|52=20140710-14:12:18|57=lvalgo|1=99990140|207=XNYS|6=0.0|11=ed15a46aa37449fe8ad3a1a95e444452|14=0.0|15=NONE|17=196ccf491c5e4a02bc29f4ad58a60eb9|21=1|31=0.0|150=0|151=1200.0|100=XNYS|32=0.0|38=1200.0|39=0|583=083b758f890444a8ab3f65dae48d104a|37=05157a26249943d6ba027281e4b5dd0b|40=2|44=2.55|48=NONE|55=RIOM|54=2|59=0|63=2|60=20140710-14:12:35|453=1|448=TRADE|447=D|452=1|10=029|
20140710-14:12:36.283: 8=FIX.4.4|9=0409|35=8|49=FROMARBITRAGELIMA_XNYSE|56=LVBSG|34=168|52=20140710-14:12:18|57=lvalgo|1=99990140|207=XNYS|6=2.55|11=88de027f47be476381905d1ba26c813e|14=1300.0|17=5addde465b1f41a39f08449deeed807d|21=1|31=2.55|150=F|151=400.0|100=XNYS|32=1200.0|38=1700.0|39=1|583=083b758f890444a8ab3f65dae48d104a|37=69c9a2a1ca2b48389c5b8bd850065857|40=2|44=2.55|55=RIOM|54=1|59=0|63=2|60=20140710-14:12:36|453=1|448=TRADE|447=D|452=1|10=038|
20140710-14:12:36.299: 8=FIX.4.4|9=0407|35=8|49=FROMARBITRAGELIMA_XNYSE|56=LVBSG|34=169|52=20140710-14:12:18|57=lvalgo|1=99990140|207=XNYS|6=2.55|11=ed15a46aa37449fe8ad3a1a95e444452|14=1200.0|17=a99ad10418ac46df9eeb38aa63ead9b1|21=1|31=2.55|150=F|151=0.0|100=XNYS|32=1200.0|38=1200.0|39=2|583=083b758f890444a8ab3f65dae48d104a|37=05157a26249943d6ba027281e4b5dd0b|40=2|44=2.55|55=RIOM|54=2|59=0|63=2|60=20140710-14:12:36|453=1|448=TRADE|447=D|452=1|10=241|
20140710-14:12:36.682: 8=FIX.4.4|9=294|35=D|34=116|49=LVBSG|50=lvalgo|52=20140710-14:12:36.682|56=FROMARBITRAGELIMA_XNYSE|1=99990140|11=caf4170f54754861b688ff8011c9d79b|21=1|38=400|40=2|44=2.55|54=2|55=RIOM|59=0|60=20140710-14:12:36.682|63=2|100=XNYS|111=100|207=XNYS|583=083b758f890444a8ab3f65dae48d104a|453=1|448=TRADE|447=D|452=1|10=107|
20140710-14:12:36.742: 8=FIX.4.4|9=0446|35=8|49=FROMARBITRAGELIMA_XNYSE|56=LVBSG|34=170|52=20140710-14:12:18|57=lvalgo|1=99990140|207=XNYS|6=0.0|11=caf4170f54754861b688ff8011c9d79b|14=0.0|15=NONE|17=38833edfefce4076bd00eefc3c67509c|21=1|31=0.0|150=A|151=400.0|100=XNYS|32=0.0|38=400.0|39=A|583=083b758f890444a8ab3f65dae48d104a|37=53a3a853e0f14facb200538637bca468|40=2|44=2.55|48=NONE|55=RIOM|54=2|59=0|58=New Sell RIOM 400.0 @ 2.55|63=2|60=20140710-14:12:36|453=1|448=TRADE|447=D|452=1|10=096|
20140710-14:12:37.016: 8=FIX.4.4|9=0416|35=8|49=FROMARBITRAGELIMA_XNYSE|56=LVBSG|34=171|52=20140710-14:12:19|57=lvalgo|1=99990140|207=XNYS|6=0.0|11=caf4170f54754861b688ff8011c9d79b|14=0.0|15=NONE|17=e8ae573b74e14a28b45686843a51247d|21=1|31=0.0|150=0|151=400.0|100=XNYS|32=0.0|38=400.0|39=0|583=083b758f890444a8ab3f65dae48d104a|37=53a3a853e0f14facb200538637bca468|40=2|44=2.55|48=NONE|55=RIOM|54=2|59=0|63=2|60=20140710-14:12:36|453=1|448=TRADE|447=D|452=1|10=230|
20140710-14:12:37.356: 8=FIX.4.4|9=0406|35=8|49=FROMARBITRAGELIMA_XNYSE|56=LVBSG|34=172|52=20140710-14:12:19|57=lvalgo|1=99990140|207=XNYS|6=2.55|11=88de027f47be476381905d1ba26c813e|14=1700.0|17=50a65d0fd82c4fc79cea64850ffb6802|21=1|31=2.55|150=F|151=0.0|100=XNYS|32=400.0|38=1700.0|39=2|583=083b758f890444a8ab3f65dae48d104a|37=69c9a2a1ca2b48389c5b8bd850065857|40=2|44=2.55|55=RIOM|54=1|59=0|63=2|60=20140710-14:12:37|453=1|448=TRADE|447=D|452=1|10=047|
20140710-14:12:37.360: 8=FIX.4.4|9=0404|35=8|49=FROMARBITRAGELIMA_XNYSE|56=LVBSG|34=173|52=20140710-14:12:19|57=lvalgo|1=99990140|207=XNYS|6=2.55|11=caf4170f54754861b688ff8011c9d79b|14=400.0|17=94cc67ced6534c3f8f947f8597283bc4|21=1|31=2.55|150=F|151=0.0|100=XNYS|32=400.0|38=400.0|39=2|583=083b758f890444a8ab3f65dae48d104a|37=53a3a853e0f14facb200538637bca468|40=2|44=2.55|55=RIOM|54=2|59=0|63=2|60=20140710-14:12:37|453=1|448=TRADE|447=D|452=1|10=167|
20140710-14:13:36.936: 8=FIX.4.4|9=73|35=0|34=117|49=LVBSG|52=20140710-14:13:36.936|56=FROMARBITRAGELIMA_XNYSE|10=157|
20140710-14:13:37.362: 8=FIX.4.4|9=0069|35=0|49=FROMARBITRAGELIMA_XNYSE|56=LVBSG|34=174|52=20140710-14:13:19|10=054|
20140710-14:14:36.936: 8=FIX.4.4|9=73|35=0|34=118|49=LVBSG|52=20140710-14:14:36.936|56=FROMARBITRAGELIMA_XNYSE|10=159|
20140710-14:14:37.362: 8=FIX.4.4|9=0069|35=0|49=FROMARBITRAGELIMA_XNYSE|56=LVBSG|34=175|52=20140710-14:14:19|10=056|
20140710-14:15:36.936: 8=FIX.4.4|9=73|35=0|34=119|49=LVBSG|52=20140710-14:15:36.936|56=FROMARBITRAGELIMA_XNYSE|10=161|
20140710-14:15:37.377: 8=FIX.4.4|9=0069|35=0|49=FROMARBITRAGELIMA_XNYSE|56=LVBSG|34=176|52=20140710-14:15:19|10=058|
20140710-14:16:36.936: 8=FIX.4.4|9=73|35=0|34=120|49=LVBSG|52=20140710-14:16:36.936|56=FROMARBITRAGELIMA_XNYSE|10=154|
20140710-14:16:37.361: 8=FIX.4.4|9=0069|35=0|49=FROMARBITRAGELIMA_XNYSE|56=LVBSG|34=177|52=20140710-14:16:19|10=060|
20140710-14:17:36.936: 8=FIX.4.4|9=73|35=0|34=121|49=LVBSG|52=20140710-14:17:36.936|56=FROMARBITRAGELIMA_XNYSE|10=156|
20140710-14:17:37.362: 8=FIX.4.4|9=0069|35=0|49=FROMARBITRAGELIMA_XNYSE|56=LVBSG|34=178|52=20140710-14:17:19|10=062|
20140710-14:18:36.936: 8=FIX.4.4|9=73|35=0|34=122|49=LVBSG|52=20140710-14:18:36.936|56=FROMARBITRAGELIMA_XNYSE|10=158|
20140710-14:18:37.380: 8=FIX.4.4|9=0069|35=0|49=FROMARBITRAGELIMA_XNYSE|56=LVBSG|34=179|52=20140710-14:18:19|10=064|
20140710-14:19:36.936: 8=FIX.4.4|9=73|35=0|34=123|49=LVBSG|52=20140710-14:19:36.936|56=FROMARBITRAGELIMA_XNYSE|10=160|
20140710-14:19:37.367: 8=FIX.4.4|9=0069|35=0|49=FROMARBITRAGELIMA_XNYSE|56=LVBSG|34=180|52=20140710-14:19:19|10=057|
20140710-14:20:36.936: 8=FIX.4.4|9=73|35=0|34=124|49=LVBSG|52=20140710-14:20:36.936|56=FROMARBITRAGELIMA_XNYSE|10=153|
20140710-14:20:37.374: 8=FIX.4.4|9=0069|35=0|49=FROMARBITRAGELIMA_XNYSE|56=LVBSG|34=181|52=20140710-14:20:19|10=050|
20140710-14:21:36.936: 8=FIX.4.4|9=73|35=0|34=125|49=LVBSG|52=20140710-14:21:36.936|56=FROMARBITRAGELIMA_XNYSE|10=155|
20140710-14:21:37.365: 8=FIX.4.4|9=0069|35=0|49=FROMARBITRAGELIMA_XNYSE|56=LVBSG|34=182|52=20140710-14:21:19|10=052|
20140710-14:22:36.937: 8=FIX.4.4|9=73|35=0|34=126|49=LVBSG|52=20140710-14:22:36.937|56=FROMARBITRAGELIMA_XNYSE|10=158|
20140710-14:22:37.373: 8=FIX.4.4|9=0069|35=0|49=FROMARBITRAGELIMA_XNYSE|56=LVBSG|34=183|52=20140710-14:22:19|10=054|
20140710-14:23:37.366: 8=FIX.4.4|9=0069|35=0|49=FROMARBITRAGELIMA_XNYSE|56=LVBSG|34=184|52=20140710-14:23:19|10=056|
20140710-14:23:37.366: 8=FIX.4.4|9=73|35=0|34=127|49=LVBSG|52=20140710-14:23:37.366|56=FROMARBITRAGELIMA_XNYSE|10=157|
20140710-14:24:37.389: 8=FIX.4.4|9=0069|35=0|49=FROMARBITRAGELIMA_XNYSE|56=LVBSG|34=185|52=20140710-14:24:19|10=058|
20140710-14:24:37.390: 8=FIX.4.4|9=73|35=0|34=128|49=LVBSG|52=20140710-14:24:37.390|56=FROMARBITRAGELIMA_XNYSE|10=156|
20140710-14:25:37.368: 8=FIX.4.4|9=0069|35=0|49=FROMARBITRAGELIMA_XNYSE|56=LVBSG|34=186|52=20140710-14:25:19|10=060|
20140710-14:25:37.937: 8=FIX.4.4|9=73|35=0|34=129|49=LVBSG|52=20140710-14:25:37.937|56=FROMARBITRAGELIMA_XNYSE|10=165|
20140710-14:25:38.812: 8=FIX.4.4|9=295|35=D|34=130|49=LVBSG|50=lvalgo|52=20140710-14:25:38.811|56=FROMARBITRAGELIMA_XNYSE|1=99990140|11=5d2bcf0851b344658efc76adbe2b8d14|21=1|38=1600|40=2|44=2.53|54=2|55=RIOM|59=0|60=20140710-14:25:38.811|63=2|100=XNYS|111=100|207=XNYS|583=083b758f890444a8ab3f65dae48d104a|453=1|448=TRADE|447=D|452=1|10=069|
20140710-14:25:38.865: 8=FIX.4.4|9=0449|35=8|49=FROMARBITRAGELIMA_XNYSE|56=LVBSG|34=187|52=20140710-14:25:21|57=lvalgo|1=99990140|207=XNYS|6=0.0|11=5d2bcf0851b344658efc76adbe2b8d14|14=0.0|15=NONE|17=a61a18f7bd344babbd27aa313c978483|21=1|31=0.0|150=A|151=1600.0|100=XNYS|32=0.0|38=1600.0|39=A|583=083b758f890444a8ab3f65dae48d104a|37=bd65d59fe7414c0b99ecc4bf55dd88ba|40=2|44=2.53|48=NONE|55=RIOM|54=2|59=0|58=New Sell RIOM 1600.0 @ 2.53|63=2|60=20140710-14:25:38|453=1|448=TRADE|447=D|452=1|10=076|
20140710-14:25:39.118: 8=FIX.4.4|9=0418|35=8|49=FROMARBITRAGELIMA_XNYSE|56=LVBSG|34=188|52=20140710-14:25:21|57=lvalgo|1=99990140|207=XNYS|6=0.0|11=5d2bcf0851b344658efc76adbe2b8d14|14=0.0|15=NONE|17=2260032c255b44b9acf9d7e9de03df84|21=1|31=0.0|150=0|151=1600.0|100=XNYS|32=0.0|38=1600.0|39=0|583=083b758f890444a8ab3f65dae48d104a|37=bd65d59fe7414c0b99ecc4bf55dd88ba|40=2|44=2.53|48=NONE|55=RIOM|54=2|59=0|63=2|60=20140710-14:25:39|453=1|448=TRADE|447=D|452=1|10=153|
20140710-14:25:39.537: 8=FIX.4.4|9=0408|35=8|49=FROMARBITRAGELIMA_XNYSE|56=LVBSG|34=189|52=20140710-14:25:21|57=lvalgo|1=99990140|207=XNYS|6=2.53|11=5d2bcf0851b344658efc76adbe2b8d14|14=100.0|17=cca3e9d4694b481baddff738b939de46|21=1|31=2.53|150=F|151=1500.0|100=XNYS|32=100.0|38=1600.0|39=1|583=083b758f890444a8ab3f65dae48d104a|37=bd65d59fe7414c0b99ecc4bf55dd88ba|40=2|44=2.53|55=RIOM|54=2|59=0|63=2|60=20140710-14:25:39|453=1|448=TRADE|447=D|452=1|10=219|
20140710-14:25:39.538: 8=FIX.4.4|9=0421|35=8|49=FROMARBITRAGELIMA_XNYSE|56=LVBSG|34=190|52=20140710-14:25:21|57=lvalgo|1=99990140|207=XNYS|6=2.5299999999999994|11=5d2bcf0851b344658efc76adbe2b8d14|14=900.0|17=7e66281aac3d4073a996d65699df9e32|21=1|31=2.53|150=F|151=700.0|100=XNYS|32=800.0|38=1600.0|39=1|583=083b758f890444a8ab3f65dae48d104a|37=bd65d59fe7414c0b99ecc4bf55dd88ba|40=2|44=2.53|55=RIOM|54=2|59=0|63=2|60=20140710-14:25:39|453=1|448=TRADE|447=D|452=1|10=219|
20140710-14:25:39.586: 8=FIX.4.4|9=0408|35=8|49=FROMARBITRAGELIMA_XNYSE|56=LVBSG|34=191|52=20140710-14:25:21|57=lvalgo|1=99990140|207=XNYS|6=2.53|11=5d2bcf0851b344658efc76adbe2b8d14|14=1100.0|17=5c622f23585640f28bf666eae7702b03|21=1|31=2.53|150=F|151=500.0|100=XNYS|32=200.0|38=1600.0|39=1|583=083b758f890444a8ab3f65dae48d104a|37=bd65d59fe7414c0b99ecc4bf55dd88ba|40=2|44=2.53|55=RIOM|54=2|59=0|63=2|60=20140710-14:25:39|453=1|448=TRADE|447=D|452=1|10=163|
20140710-14:26:38.936: 8=FIX.4.4|9=73|35=0|34=131|49=LVBSG|52=20140710-14:26:38.936|56=FROMARBITRAGELIMA_XNYSE|10=159|
20140710-14:26:39.581: 8=FIX.4.4|9=0069|35=0|49=FROMARBITRAGELIMA_XNYSE|56=LVBSG|34=192|52=20140710-14:26:21|10=051|
20140710-14:27:38.964: 8=FIX.4.4|9=73|35=0|34=132|49=LVBSG|52=20140710-14:27:38.964|56=FROMARBITRAGELIMA_XNYSE|10=162|
20140710-14:27:39.591: 8=FIX.4.4|9=0069|35=0|49=FROMARBITRAGELIMA_XNYSE|56=LVBSG|34=193|52=20140710-14:27:21|10=053|
20140710-14:28:38.967: 8=FIX.4.4|9=73|35=0|34=133|49=LVBSG|52=20140710-14:28:38.967|56=FROMARBITRAGELIMA_XNYSE|10=167|
20140710-14:28:39.583: 8=FIX.4.4|9=0069|35=0|49=FROMARBITRAGELIMA_XNYSE|56=LVBSG|34=194|52=20140710-14:28:21|10=055|
20140710-14:29:38.977: 8=FIX.4.4|9=73|35=0|34=134|49=LVBSG|52=20140710-14:29:38.977|56=FROMARBITRAGELIMA_XNYSE|10=170|
20140710-14:29:39.583: 8=FIX.4.4|9=0069|35=0|49=FROMARBITRAGELIMA_XNYSE|56=LVBSG|34=195|52=20140710-14:29:21|10=057|
20140710-14:30:39.590: 8=FIX.4.4|9=0069|35=0|49=FROMARBITRAGELIMA_XNYSE|56=LVBSG|34=196|52=20140710-14:30:21|10=050|
20140710-14:30:39.590: 8=FIX.4.4|9=73|35=0|34=135|49=LVBSG|52=20140710-14:30:39.590|56=FROMARBITRAGELIMA_XNYSE|10=155|
20140710-14:31:39.584: 8=FIX.4.4|9=0069|35=0|49=FROMARBITRAGELIMA_XNYSE|56=LVBSG|34=197|52=20140710-14:31:21|10=052|
20140710-14:31:39.937: 8=FIX.4.4|9=73|35=0|34=136|49=LVBSG|52=20140710-14:31:39.936|56=FROMARBITRAGELIMA_XNYSE|10=161|
20140710-14:32:39.591: 8=FIX.4.4|9=0069|35=0|49=FROMARBITRAGELIMA_XNYSE|56=LVBSG|34=198|52=20140710-14:32:21|10=054|
20140710-14:32:39.936: 8=FIX.4.4|9=73|35=0|34=137|49=LVBSG|52=20140710-14:32:39.936|56=FROMARBITRAGELIMA_XNYSE|10=163|
20140710-14:33:39.589: 8=FIX.4.4|9=0069|35=0|49=FROMARBITRAGELIMA_XNYSE|56=LVBSG|34=199|52=20140710-14:33:21|10=056|
20140710-14:33:39.936: 8=FIX.4.4|9=73|35=0|34=138|49=LVBSG|52=20140710-14:33:39.936|56=FROMARBITRAGELIMA_XNYSE|10=165|
20140710-14:34:39.593: 8=FIX.4.4|9=0069|35=0|49=FROMARBITRAGELIMA_XNYSE|56=LVBSG|34=200|52=20140710-14:34:21|10=040|
20140710-14:34:39.937: 8=FIX.4.4|9=73|35=0|34=139|49=LVBSG|52=20140710-14:34:39.937|56=FROMARBITRAGELIMA_XNYSE|10=168|
20140710-14:35:39.585: 8=FIX.4.4|9=0069|35=0|49=FROMARBITRAGELIMA_XNYSE|56=LVBSG|34=201|52=20140710-14:35:21|10=042|
20140710-14:35:40.937: 8=FIX.4.4|9=73|35=0|34=140|49=LVBSG|52=20140710-14:35:40.937|56=FROMARBITRAGELIMA_XNYSE|10=153|
20140710-14:36:39.585: 8=FIX.4.4|9=0069|35=0|49=FROMARBITRAGELIMA_XNYSE|56=LVBSG|34=202|52=20140710-14:36:21|10=044|
20140710-14:36:40.964: 8=FIX.4.4|9=73|35=0|34=141|49=LVBSG|52=20140710-14:36:40.964|56=FROMARBITRAGELIMA_XNYSE|10=155|
20140710-14:36:41.992: 8=FIX.4.4|9=0408|35=8|49=FROMARBITRAGELIMA_XNYSE|56=LVBSG|34=203|52=20140710-14:36:24|57=lvalgo|1=99990140|207=XNYS|6=2.53|11=5d2bcf0851b344658efc76adbe2b8d14|14=1200.0|17=d2e03b83ec2d4fdf8c6fbc76a9e1b1b5|21=1|31=2.53|150=F|151=400.0|100=XNYS|32=100.0|38=1600.0|39=1|583=083b758f890444a8ab3f65dae48d104a|37=bd65d59fe7414c0b99ecc4bf55dd88ba|40=2|44=2.53|55=RIOM|54=2|59=0|63=2|60=20140710-14:36:41|453=1|448=TRADE|447=D|452=1|10=025|
20140710-14:36:46.788: 8=FIX.4.4|9=0408|35=8|49=FROMARBITRAGELIMA_XNYSE|56=LVBSG|34=204|52=20140710-14:36:29|57=lvalgo|1=99990140|207=XNYS|6=2.53|11=5d2bcf0851b344658efc76adbe2b8d14|14=1300.0|17=38d6b20f49ed423b94c250f54bd9f3b0|21=1|31=2.53|150=F|151=300.0|100=XNYS|32=100.0|38=1600.0|39=1|583=083b758f890444a8ab3f65dae48d104a|37=bd65d59fe7414c0b99ecc4bf55dd88ba|40=2|44=2.53|55=RIOM|54=2|59=0|63=2|60=20140710-14:36:46|453=1|448=TRADE|447=D|452=1|10=052|
20140710-14:37:41.937: 8=FIX.4.4|9=73|35=0|34=142|49=LVBSG|52=20140710-14:37:41.937|56=FROMARBITRAGELIMA_XNYSE|10=158|
20140710-14:37:46.789: 8=FIX.4.4|9=0069|35=0|49=FROMARBITRAGELIMA_XNYSE|56=LVBSG|34=205|52=20140710-14:37:29|10=056|
20140710-14:38:26.870: 8=FIX.4.4|9=0408|35=8|49=FROMARBITRAGELIMA_XNYSE|56=LVBSG|34=206|52=20140710-14:38:09|57=lvalgo|1=99990140|207=XNYS|6=2.53|11=5d2bcf0851b344658efc76adbe2b8d14|14=1400.0|17=42d04b10cb1543dba6ef40fe8acf81ee|21=1|31=2.53|150=F|151=200.0|100=XNYS|32=100.0|38=1600.0|39=1|583=083b758f890444a8ab3f65dae48d104a|37=bd65d59fe7414c0b99ecc4bf55dd88ba|40=2|44=2.53|55=RIOM|54=2|59=0|63=2|60=20140710-14:38:26|453=1|448=TRADE|447=D|452=1|10=229|
20140710-14:38:27.223: 8=FIX.4.4|9=0408|35=8|49=FROMARBITRAGELIMA_XNYSE|56=LVBSG|34=207|52=20140710-14:38:09|57=lvalgo|1=99990140|207=XNYS|6=2.53|11=5d2bcf0851b344658efc76adbe2b8d14|14=1500.0|17=8db622a6970d4b9a901c1514a329fb50|21=1|31=2.53|150=F|151=100.0|100=XNYS|32=100.0|38=1600.0|39=1|583=083b758f890444a8ab3f65dae48d104a|37=bd65d59fe7414c0b99ecc4bf55dd88ba|40=2|44=2.53|55=RIOM|54=2|59=0|63=2|60=20140710-14:38:27|453=1|448=TRADE|447=D|452=1|10=207|
20140710-14:38:42.937: 8=FIX.4.4|9=73|35=0|34=143|49=LVBSG|52=20140710-14:38:42.937|56=FROMARBITRAGELIMA_XNYSE|10=161|
20140710-14:38:45.182: 8=FIX.4.4|9=0406|35=8|49=FROMARBITRAGELIMA_XNYSE|56=LVBSG|34=208|52=20140710-14:38:27|57=lvalgo|1=99990140|207=XNYS|6=2.53|11=5d2bcf0851b344658efc76adbe2b8d14|14=1600.0|17=0d235b7bf12f41a4ac4ec3cb79990eb5|21=1|31=2.53|150=F|151=0.0|100=XNYS|32=100.0|38=1600.0|39=2|583=083b758f890444a8ab3f65dae48d104a|37=bd65d59fe7414c0b99ecc4bf55dd88ba|40=2|44=2.53|55=RIOM|54=2|59=0|63=2|60=20140710-14:38:45|453=1|448=TRADE|447=D|452=1|10=048|
20140710-14:39:43.936: 8=FIX.4.4|9=73|35=0|34=144|49=LVBSG|52=20140710-14:39:43.936|56=FROMARBITRAGELIMA_XNYSE|10=163|
20140710-14:39:45.184: 8=FIX.4.4|9=0069|35=0|49=FROMARBITRAGELIMA_XNYSE|56=LVBSG|34=209|52=20140710-14:39:27|10=060|
20140710-14:40:43.936: 8=FIX.4.4|9=73|35=0|34=145|49=LVBSG|52=20140710-14:40:43.936|56=FROMARBITRAGELIMA_XNYSE|10=156|
20140710-14:40:45.184: 8=FIX.4.4|9=0069|35=0|49=FROMARBITRAGELIMA_XNYSE|56=LVBSG|34=210|52=20140710-14:40:27|10=044|
20140710-14:41:43.937: 8=FIX.4.4|9=73|35=0|34=146|49=LVBSG|52=20140710-14:41:43.937|56=FROMARBITRAGELIMA_XNYSE|10=159|
20140710-14:41:45.189: 8=FIX.4.4|9=0069|35=0|49=FROMARBITRAGELIMA_XNYSE|56=LVBSG|34=211|52=20140710-14:41:27|10=046|
20140710-14:42:43.952: 8=FIX.4.4|9=73|35=0|34=147|49=LVBSG|52=20140710-14:42:43.952|56=FROMARBITRAGELIMA_XNYSE|10=158|
20140710-14:42:45.185: 8=FIX.4.4|9=0069|35=0|49=FROMARBITRAGELIMA_XNYSE|56=LVBSG|34=212|52=20140710-14:42:27|10=048|
20140710-14:43:44.937: 8=FIX.4.4|9=73|35=0|34=148|49=LVBSG|52=20140710-14:43:44.937|56=FROMARBITRAGELIMA_XNYSE|10=164|
20140710-14:43:45.197: 8=FIX.4.4|9=0069|35=0|49=FROMARBITRAGELIMA_XNYSE|56=LVBSG|34=213|52=20140710-14:43:27|10=050|
20140710-14:44:45.186: 8=FIX.4.4|9=0069|35=0|49=FROMARBITRAGELIMA_XNYSE|56=LVBSG|34=214|52=20140710-14:44:27|10=052|
20140710-14:44:45.186: 8=FIX.4.4|9=73|35=0|34=149|49=LVBSG|52=20140710-14:44:45.186|56=FROMARBITRAGELIMA_XNYSE|10=163|
20140710-14:45:45.189: 8=FIX.4.4|9=0069|35=0|49=FROMARBITRAGELIMA_XNYSE|56=LVBSG|34=215|52=20140710-14:45:27|10=054|
20140710-14:45:45.189: 8=FIX.4.4|9=73|35=0|34=150|49=LVBSG|52=20140710-14:45:45.189|56=FROMARBITRAGELIMA_XNYSE|10=159|
20140710-14:46:45.213: 8=FIX.4.4|9=0069|35=0|49=FROMARBITRAGELIMA_XNYSE|56=LVBSG|34=216|52=20140710-14:46:27|10=056|
20140710-14:46:45.213: 8=FIX.4.4|9=73|35=0|34=151|49=LVBSG|52=20140710-14:46:45.213|56=FROMARBITRAGELIMA_XNYSE|10=149|
20140710-14:47:45.187: 8=FIX.4.4|9=0069|35=0|49=FROMARBITRAGELIMA_XNYSE|56=LVBSG|34=217|52=20140710-14:47:27|10=058|
20140710-14:47:45.936: 8=FIX.4.4|9=73|35=0|34=152|49=LVBSG|52=20140710-14:47:45.936|56=FROMARBITRAGELIMA_XNYSE|10=163|
20140710-14:48:45.189: 8=FIX.4.4|9=0069|35=0|49=FROMARBITRAGELIMA_XNYSE|56=LVBSG|34=218|52=20140710-14:48:27|10=060|
20140710-14:48:45.936: 8=FIX.4.4|9=73|35=0|34=153|49=LVBSG|52=20140710-14:48:45.936|56=FROMARBITRAGELIMA_XNYSE|10=165|
20140710-14:49:45.191: 8=FIX.4.4|9=0069|35=0|49=FROMARBITRAGELIMA_XNYSE|56=LVBSG|34=219|52=20140710-14:49:27|10=062|
20140710-14:49:45.937: 8=FIX.4.4|9=73|35=0|34=154|49=LVBSG|52=20140710-14:49:45.937|56=FROMARBITRAGELIMA_XNYSE|10=168|
20140710-14:50:45.190: 8=FIX.4.4|9=0069|35=0|49=FROMARBITRAGELIMA_XNYSE|56=LVBSG|34=220|52=20140710-14:50:27|10=046|
20140710-14:50:45.937: 8=FIX.4.4|9=73|35=0|34=155|49=LVBSG|52=20140710-14:50:45.937|56=FROMARBITRAGELIMA_XNYSE|10=161|
20140710-14:51:45.190: 8=FIX.4.4|9=0069|35=0|49=FROMARBITRAGELIMA_XNYSE|56=LVBSG|34=221|52=20140710-14:51:27|10=048|
20140710-14:51:45.970: 8=FIX.4.4|9=73|35=0|34=156|49=LVBSG|52=20140710-14:51:45.970|56=FROMARBITRAGELIMA_XNYSE|10=160|
20140710-14:52:45.196: 8=FIX.4.4|9=0069|35=0|49=FROMARBITRAGELIMA_XNYSE|56=LVBSG|34=222|52=20140710-14:52:27|10=050|
20140710-14:52:46.937: 8=FIX.4.4|9=73|35=0|34=157|49=LVBSG|52=20140710-14:52:46.937|56=FROMARBITRAGELIMA_XNYSE|10=166|
20140710-14:53:45.208: 8=FIX.4.4|9=0069|35=0|49=FROMARBITRAGELIMA_XNYSE|56=LVBSG|34=223|52=20140710-14:53:27|10=052|
20140710-14:53:47.937: 8=FIX.4.4|9=73|35=0|34=158|49=LVBSG|52=20140710-14:53:47.937|56=FROMARBITRAGELIMA_XNYSE|10=169|
20140710-14:54:45.193: 8=FIX.4.4|9=0069|35=0|49=FROMARBITRAGELIMA_XNYSE|56=LVBSG|34=224|52=20140710-14:54:27|10=054|
20140710-14:54:48.979: 8=FIX.4.4|9=73|35=0|34=159|49=LVBSG|52=20140710-14:54:48.979|56=FROMARBITRAGELIMA_XNYSE|10=178|
20140710-14:55:45.191: 8=FIX.4.4|9=0069|35=0|49=FROMARBITRAGELIMA_XNYSE|56=LVBSG|34=225|52=20140710-14:55:27|10=056|
20140710-14:55:48.979: 8=FIX.4.4|9=73|35=0|34=160|49=LVBSG|52=20140710-14:55:48.979|56=FROMARBITRAGELIMA_XNYSE|10=171|
20140710-14:56:45.201: 8=FIX.4.4|9=0069|35=0|49=FROMARBITRAGELIMA_XNYSE|56=LVBSG|34=226|52=20140710-14:56:27|10=058|
20140710-14:56:49.936: 8=FIX.4.4|9=73|35=0|34=161|49=LVBSG|52=20140710-14:56:49.936|56=FROMARBITRAGELIMA_XNYSE|10=167|
20140710-14:57:45.192: 8=FIX.4.4|9=0069|35=0|49=FROMARBITRAGELIMA_XNYSE|56=LVBSG|34=227|52=20140710-14:57:27|10=060|
20140710-14:57:49.937: 8=FIX.4.4|9=73|35=0|34=162|49=LVBSG|52=20140710-14:57:49.937|56=FROMARBITRAGELIMA_XNYSE|10=170|
20140710-14:58:45.203: 8=FIX.4.4|9=0069|35=0|49=FROMARBITRAGELIMA_XNYSE|56=LVBSG|34=228|52=20140710-14:58:27|10=062|
20140710-14:58:50.937: 8=FIX.4.4|9=73|35=0|34=163|49=LVBSG|52=20140710-14:58:50.937|56=FROMARBITRAGELIMA_XNYSE|10=164|
20140710-14:59:45.193: 8=FIX.4.4|9=0069|35=0|49=FROMARBITRAGELIMA_XNYSE|56=LVBSG|34=229|52=20140710-14:59:27|10=064|
20140710-14:59:51.937: 8=FIX.4.4|9=73|35=0|34=164|49=LVBSG|52=20140710-14:59:51.937|56=FROMARBITRAGELIMA_XNYSE|10=167|
20140710-15:00:45.206: 8=FIX.4.4|9=0069|35=0|49=FROMARBITRAGELIMA_XNYSE|56=LVBSG|34=230|52=20140710-15:00:27|10=043|
20140710-15:00:52.937: 8=FIX.4.4|9=73|35=0|34=165|49=LVBSG|52=20140710-15:00:52.937|56=FROMARBITRAGELIMA_XNYSE|10=156|
20140710-15:01:45.194: 8=FIX.4.4|9=0069|35=0|49=FROMARBITRAGELIMA_XNYSE|56=LVBSG|34=231|52=20140710-15:01:27|10=045|
20140710-15:01:53.936: 8=FIX.4.4|9=73|35=0|34=166|49=LVBSG|52=20140710-15:01:53.936|56=FROMARBITRAGELIMA_XNYSE|10=158|
20140710-15:02:45.215: 8=FIX.4.4|9=0069|35=0|49=FROMARBITRAGELIMA_XNYSE|56=LVBSG|34=232|52=20140710-15:02:27|10=047|
20140710-15:02:53.937: 8=FIX.4.4|9=73|35=0|34=167|49=LVBSG|52=20140710-15:02:53.937|56=FROMARBITRAGELIMA_XNYSE|10=161|
20140710-15:03:45.202: 8=FIX.4.4|9=0069|35=0|49=FROMARBITRAGELIMA_XNYSE|56=LVBSG|34=233|52=20140710-15:03:27|10=049|
20140710-15:03:53.981: 8=FIX.4.4|9=73|35=0|34=168|49=LVBSG|52=20140710-15:03:53.981|56=FROMARBITRAGELIMA_XNYSE|10=162|
20140710-15:04:45.241: 8=FIX.4.4|9=0069|35=0|49=FROMARBITRAGELIMA_XNYSE|56=LVBSG|34=234|52=20140710-15:04:27|10=051|
20140710-15:04:54.936: 8=FIX.4.4|9=73|35=0|34=169|49=LVBSG|52=20140710-15:04:54.936|56=FROMARBITRAGELIMA_XNYSE|10=165|
20140710-15:05:45.201: 8=FIX.4.4|9=0069|35=0|49=FROMARBITRAGELIMA_XNYSE|56=LVBSG|34=235|52=20140710-15:05:27|10=053|
20140710-15:05:54.936: 8=FIX.4.4|9=73|35=0|34=170|49=LVBSG|52=20140710-15:05:54.936|56=FROMARBITRAGELIMA_XNYSE|10=158|
20140710-15:06:45.200: 8=FIX.4.4|9=0069|35=0|49=FROMARBITRAGELIMA_XNYSE|56=LVBSG|34=236|52=20140710-15:06:27|10=055|
20140710-15:06:54.937: 8=FIX.4.4|9=73|35=0|34=171|49=LVBSG|52=20140710-15:06:54.937|56=FROMARBITRAGELIMA_XNYSE|10=161|
20140710-15:07:45.211: 8=FIX.4.4|9=0069|35=0|49=FROMARBITRAGELIMA_XNYSE|56=LVBSG|34=237|52=20140710-15:07:27|10=057|
20140710-15:07:54.937: 8=FIX.4.4|9=73|35=0|34=172|49=LVBSG|52=20140710-15:07:54.937|56=FROMARBITRAGELIMA_XNYSE|10=163|
20140710-15:08:45.203: 8=FIX.4.4|9=0069|35=0|49=FROMARBITRAGELIMA_XNYSE|56=LVBSG|34=238|52=20140710-15:08:27|10=059|
20140710-15:08:55.937: 8=FIX.4.4|9=73|35=0|34=173|49=LVBSG|52=20140710-15:08:55.937|56=FROMARBITRAGELIMA_XNYSE|10=166|
20140710-15:09:45.199: 8=FIX.4.4|9=0069|35=0|49=FROMARBITRAGELIMA_XNYSE|56=LVBSG|34=239|52=20140710-15:09:27|10=061|
20140710-15:09:56.937: 8=FIX.4.4|9=73|35=0|34=174|49=LVBSG|52=20140710-15:09:56.937|56=FROMARBITRAGELIMA_XNYSE|10=169|
20140710-15:10:45.205: 8=FIX.4.4|9=0069|35=0|49=FROMARBITRAGELIMA_XNYSE|56=LVBSG|34=240|52=20140710-15:10:27|10=045|
20140710-15:10:57.937: 8=FIX.4.4|9=73|35=0|34=175|49=LVBSG|52=20140710-15:10:57.937|56=FROMARBITRAGELIMA_XNYSE|10=163|
20140710-15:11:45.204: 8=FIX.4.4|9=0069|35=0|49=FROMARBITRAGELIMA_XNYSE|56=LVBSG|34=241|52=20140710-15:11:27|10=047|
20140710-15:11:58.937: 8=FIX.4.4|9=73|35=0|34=176|49=LVBSG|52=20140710-15:11:58.937|56=FROMARBITRAGELIMA_XNYSE|10=166|
20140710-15:12:45.200: 8=FIX.4.4|9=0069|35=0|49=FROMARBITRAGELIMA_XNYSE|56=LVBSG|34=242|52=20140710-15:12:27|10=049|
20140710-15:12:58.937: 8=FIX.4.4|9=73|35=0|34=177|49=LVBSG|52=20140710-15:12:58.937|56=FROMARBITRAGELIMA_XNYSE|10=168|
20140710-15:13:45.201: 8=FIX.4.4|9=0069|35=0|49=FROMARBITRAGELIMA_XNYSE|56=LVBSG|34=243|52=20140710-15:13:27|10=051|
20140710-15:13:59.937: 8=FIX.4.4|9=73|35=0|34=178|49=LVBSG|52=20140710-15:13:59.937|56=FROMARBITRAGELIMA_XNYSE|10=171|
20140710-15:14:45.201: 8=FIX.4.4|9=0069|35=0|49=FROMARBITRAGELIMA_XNYSE|56=LVBSG|34=244|52=20140710-15:14:27|10=053|
20140710-15:15:00.936: 8=FIX.4.4|9=73|35=0|34=179|49=LVBSG|52=20140710-15:15:00.936|56=FROMARBITRAGELIMA_XNYSE|10=159|
20140710-15:15:45.205: 8=FIX.4.4|9=0069|35=0|49=FROMARBITRAGELIMA_XNYSE|56=LVBSG|34=245|52=20140710-15:15:27|10=055|
20140710-15:16:00.937: 8=FIX.4.4|9=73|35=0|34=180|49=LVBSG|52=20140710-15:16:00.937|56=FROMARBITRAGELIMA_XNYSE|10=153|
20140710-15:16:45.201: 8=FIX.4.4|9=0069|35=0|49=FROMARBITRAGELIMA_XNYSE|56=LVBSG|34=246|52=20140710-15:16:27|10=057|
20140710-15:17:01.937: 8=FIX.4.4|9=73|35=0|34=181|49=LVBSG|52=20140710-15:17:01.937|56=FROMARBITRAGELIMA_XNYSE|10=156|
20140710-15:17:45.202: 8=FIX.4.4|9=0069|35=0|49=FROMARBITRAGELIMA_XNYSE|56=LVBSG|34=247|52=20140710-15:17:27|10=059|
20140710-15:18:02.936: 8=FIX.4.4|9=73|35=0|34=182|49=LVBSG|52=20140710-15:18:02.936|56=FROMARBITRAGELIMA_XNYSE|10=158|
20140710-15:18:45.203: 8=FIX.4.4|9=0069|35=0|49=FROMARBITRAGELIMA_XNYSE|56=LVBSG|34=248|52=20140710-15:18:27|10=061|
20140710-15:19:02.937: 8=FIX.4.4|9=73|35=0|34=183|49=LVBSG|52=20140710-15:19:02.937|56=FROMARBITRAGELIMA_XNYSE|10=161|
20140710-15:19:45.205: 8=FIX.4.4|9=0069|35=0|49=FROMARBITRAGELIMA_XNYSE|56=LVBSG|34=249|52=20140710-15:19:27|10=063|
20140710-15:20:03.977: 8=FIX.4.4|9=73|35=0|34=184|49=LVBSG|52=20140710-15:20:03.977|56=FROMARBITRAGELIMA_XNYSE|10=159|
20140710-15:20:45.204: 8=FIX.4.4|9=0069|35=0|49=FROMARBITRAGELIMA_XNYSE|56=LVBSG|34=250|52=20140710-15:20:27|10=047|
20140710-15:21:04.936: 8=FIX.4.4|9=73|35=0|34=185|49=LVBSG|52=20140710-15:21:04.936|56=FROMARBITRAGELIMA_XNYSE|10=157|
20140710-15:21:45.207: 8=FIX.4.4|9=0069|35=0|49=FROMARBITRAGELIMA_XNYSE|56=LVBSG|34=251|52=20140710-15:21:27|10=049|
20140710-15:22:04.937: 8=FIX.4.4|9=73|35=0|34=186|49=LVBSG|52=20140710-15:22:04.937|56=FROMARBITRAGELIMA_XNYSE|10=160|
20140710-15:22:45.206: 8=FIX.4.4|9=0069|35=0|49=FROMARBITRAGELIMA_XNYSE|56=LVBSG|34=252|52=20140710-15:22:27|10=051|
20140710-15:23:05.936: 8=FIX.4.4|9=73|35=0|34=187|49=LVBSG|52=20140710-15:23:05.935|56=FROMARBITRAGELIMA_XNYSE|10=161|
20140710-15:23:45.212: 8=FIX.4.4|9=0069|35=0|49=FROMARBITRAGELIMA_XNYSE|56=LVBSG|34=253|52=20140710-15:23:27|10=053|
20140710-15:24:05.936: 8=FIX.4.4|9=73|35=0|34=188|49=LVBSG|52=20140710-15:24:05.936|56=FROMARBITRAGELIMA_XNYSE|10=164|
20140710-15:24:45.204: 8=FIX.4.4|9=0069|35=0|49=FROMARBITRAGELIMA_XNYSE|56=LVBSG|34=254|52=20140710-15:24:27|10=055|
20140710-15:25:05.936: 8=FIX.4.4|9=73|35=0|34=189|49=LVBSG|52=20140710-15:25:05.936|56=FROMARBITRAGELIMA_XNYSE|10=166|
20140710-15:25:45.207: 8=FIX.4.4|9=0069|35=0|49=FROMARBITRAGELIMA_XNYSE|56=LVBSG|34=255|52=20140710-15:25:27|10=057|
20140710-15:26:05.966: 8=FIX.4.4|9=73|35=0|34=190|49=LVBSG|52=20140710-15:26:05.965|56=FROMARBITRAGELIMA_XNYSE|10=161|
20140710-15:26:45.206: 8=FIX.4.4|9=0069|35=0|49=FROMARBITRAGELIMA_XNYSE|56=LVBSG|34=256|52=20140710-15:26:27|10=059|
20140710-15:27:06.936: 8=FIX.4.4|9=73|35=0|34=191|49=LVBSG|52=20140710-15:27:06.936|56=FROMARBITRAGELIMA_XNYSE|10=162|
20140710-15:27:45.208: 8=FIX.4.4|9=0069|35=0|49=FROMARBITRAGELIMA_XNYSE|56=LVBSG|34=257|52=20140710-15:27:27|10=061|
20140710-15:28:06.937: 8=FIX.4.4|9=73|35=0|34=192|49=LVBSG|52=20140710-15:28:06.937|56=FROMARBITRAGELIMA_XNYSE|10=165|
20140710-15:28:45.207: 8=FIX.4.4|9=0069|35=0|49=FROMARBITRAGELIMA_XNYSE|56=LVBSG|34=258|52=20140710-15:28:27|10=063|
20140710-15:29:07.937: 8=FIX.4.4|9=73|35=0|34=193|49=LVBSG|52=20140710-15:29:07.937|56=FROMARBITRAGELIMA_XNYSE|10=168|
20140710-15:29:45.209: 8=FIX.4.4|9=0069|35=0|49=FROMARBITRAGELIMA_XNYSE|56=LVBSG|34=259|52=20140710-15:29:27|10=065|
20140710-15:30:07.937: 8=FIX.4.4|9=73|35=0|34=194|49=LVBSG|52=20140710-15:30:07.937|56=FROMARBITRAGELIMA_XNYSE|10=161|
20140710-15:30:45.209: 8=FIX.4.4|9=0069|35=0|49=FROMARBITRAGELIMA_XNYSE|56=LVBSG|34=260|52=20140710-15:30:27|10=049|
20140710-15:31:08.981: 8=FIX.4.4|9=73|35=0|34=195|49=LVBSG|52=20140710-15:31:08.981|56=FROMARBITRAGELIMA_XNYSE|10=163|
20140710-15:31:45.217: 8=FIX.4.4|9=0069|35=0|49=FROMARBITRAGELIMA_XNYSE|56=LVBSG|34=261|52=20140710-15:31:27|10=051|
20140710-15:32:09.936: 8=FIX.4.4|9=73|35=0|34=196|49=LVBSG|52=20140710-15:32:09.936|56=FROMARBITRAGELIMA_XNYSE|10=166|
20140710-15:32:45.210: 8=FIX.4.4|9=0069|35=0|49=FROMARBITRAGELIMA_XNYSE|56=LVBSG|34=262|52=20140710-15:32:27|10=053|
20140710-15:33:09.936: 8=FIX.4.4|9=73|35=0|34=197|49=LVBSG|52=20140710-15:33:09.936|56=FROMARBITRAGELIMA_XNYSE|10=168|
20140710-15:33:45.211: 8=FIX.4.4|9=0069|35=0|49=FROMARBITRAGELIMA_XNYSE|56=LVBSG|34=263|52=20140710-15:33:27|10=055|
20140710-15:34:09.936: 8=FIX.4.4|9=73|35=0|34=198|49=LVBSG|52=20140710-15:34:09.936|56=FROMARBITRAGELIMA_XNYSE|10=170|
20140710-15:34:45.211: 8=FIX.4.4|9=0069|35=0|49=FROMARBITRAGELIMA_XNYSE|56=LVBSG|34=264|52=20140710-15:34:27|10=057|
20140710-15:35:09.937: 8=FIX.4.4|9=73|35=0|34=199|49=LVBSG|52=20140710-15:35:09.937|56=FROMARBITRAGELIMA_XNYSE|10=173|
20140710-15:35:45.229: 8=FIX.4.4|9=0069|35=0|49=FROMARBITRAGELIMA_XNYSE|56=LVBSG|34=265|52=20140710-15:35:27|10=059|
20140710-15:36:09.937: 8=FIX.4.4|9=73|35=0|34=200|49=LVBSG|52=20140710-15:36:09.937|56=FROMARBITRAGELIMA_XNYSE|10=157|
20140710-15:36:45.211: 8=FIX.4.4|9=0069|35=0|49=FROMARBITRAGELIMA_XNYSE|56=LVBSG|34=266|52=20140710-15:36:27|10=061|
20140710-15:37:10.937: 8=FIX.4.4|9=73|35=0|34=201|49=LVBSG|52=20140710-15:37:10.937|56=FROMARBITRAGELIMA_XNYSE|10=151|
20140710-15:37:45.212: 8=FIX.4.4|9=0069|35=0|49=FROMARBITRAGELIMA_XNYSE|56=LVBSG|34=267|52=20140710-15:37:27|10=063|
20140710-15:38:11.936: 8=FIX.4.4|9=73|35=0|34=202|49=LVBSG|52=20140710-15:38:11.936|56=FROMARBITRAGELIMA_XNYSE|10=153|
20140710-15:38:45.212: 8=FIX.4.4|9=0069|35=0|49=FROMARBITRAGELIMA_XNYSE|56=LVBSG|34=268|52=20140710-15:38:27|10=065|
20140710-15:39:11.936: 8=FIX.4.4|9=73|35=0|34=203|49=LVBSG|52=20140710-15:39:11.936|56=FROMARBITRAGELIMA_XNYSE|10=155|
20140710-15:39:45.220: 8=FIX.4.4|9=0069|35=0|49=FROMARBITRAGELIMA_XNYSE|56=LVBSG|34=269|52=20140710-15:39:27|10=067|
20140710-15:40:11.937: 8=FIX.4.4|9=73|35=0|34=204|49=LVBSG|52=20140710-15:40:11.937|56=FROMARBITRAGELIMA_XNYSE|10=149|
20140710-15:40:45.214: 8=FIX.4.4|9=0069|35=0|49=FROMARBITRAGELIMA_XNYSE|56=LVBSG|34=270|52=20140710-15:40:27|10=051|
20140710-15:41:12.937: 8=FIX.4.4|9=73|35=0|34=205|49=LVBSG|52=20140710-15:41:12.936|56=FROMARBITRAGELIMA_XNYSE|10=151|
20140710-15:41:45.215: 8=FIX.4.4|9=0069|35=0|49=FROMARBITRAGELIMA_XNYSE|56=LVBSG|34=271|52=20140710-15:41:27|10=053|
20140710-15:42:12.937: 8=FIX.4.4|9=73|35=0|34=206|49=LVBSG|52=20140710-15:42:12.936|56=FROMARBITRAGELIMA_XNYSE|10=153|
20140710-15:42:45.217: 8=FIX.4.4|9=0069|35=0|49=FROMARBITRAGELIMA_XNYSE|56=LVBSG|34=272|52=20140710-15:42:27|10=055|
20140710-15:43:12.937: 8=FIX.4.4|9=73|35=0|34=207|49=LVBSG|52=20140710-15:43:12.937|56=FROMARBITRAGELIMA_XNYSE|10=156|
20140710-15:43:45.219: 8=FIX.4.4|9=0069|35=0|49=FROMARBITRAGELIMA_XNYSE|56=LVBSG|34=273|52=20140710-15:43:27|10=057|
20140710-15:44:13.936: 8=FIX.4.4|9=73|35=0|34=208|49=LVBSG|52=20140710-15:44:13.936|56=FROMARBITRAGELIMA_XNYSE|10=158|
20140710-15:44:45.217: 8=FIX.4.4|9=0069|35=0|49=FROMARBITRAGELIMA_XNYSE|56=LVBSG|34=274|52=20140710-15:44:27|10=059|
20140710-15:45:13.936: 8=FIX.4.4|9=73|35=0|34=209|49=LVBSG|52=20140710-15:45:13.936|56=FROMARBITRAGELIMA_XNYSE|10=160|
20140710-15:45:45.217: 8=FIX.4.4|9=0069|35=0|49=FROMARBITRAGELIMA_XNYSE|56=LVBSG|34=275|52=20140710-15:45:27|10=061|
20140710-15:46:13.937: 8=FIX.4.4|9=73|35=0|34=210|49=LVBSG|52=20140710-15:46:13.936|56=FROMARBITRAGELIMA_XNYSE|10=153|
20140710-15:46:45.218: 8=FIX.4.4|9=0069|35=0|49=FROMARBITRAGELIMA_XNYSE|56=LVBSG|34=276|52=20140710-15:46:27|10=063|
20140710-15:47:13.936: 8=FIX.4.4|9=73|35=0|34=211|49=LVBSG|52=20140710-15:47:13.936|56=FROMARBITRAGELIMA_XNYSE|10=155|
20140710-15:47:45.226: 8=FIX.4.4|9=0069|35=0|49=FROMARBITRAGELIMA_XNYSE|56=LVBSG|34=277|52=20140710-15:47:27|10=065|
20140710-15:48:13.982: 8=FIX.4.4|9=73|35=0|34=212|49=LVBSG|52=20140710-15:48:13.981|56=FROMARBITRAGELIMA_XNYSE|10=157|
20140710-15:48:45.223: 8=FIX.4.4|9=0069|35=0|49=FROMARBITRAGELIMA_XNYSE|56=LVBSG|34=278|52=20140710-15:48:27|10=067|
20140710-15:49:13.981: 8=FIX.4.4|9=73|35=0|34=213|49=LVBSG|52=20140710-15:49:13.981|56=FROMARBITRAGELIMA_XNYSE|10=159|
20140710-15:49:45.221: 8=FIX.4.4|9=0069|35=0|49=FROMARBITRAGELIMA_XNYSE|56=LVBSG|34=279|52=20140710-15:49:27|10=069|
20140710-15:50:13.981: 8=FIX.4.4|9=73|35=0|34=214|49=LVBSG|52=20140710-15:50:13.981|56=FROMARBITRAGELIMA_XNYSE|10=152|
20140710-15:50:45.229: 8=FIX.4.4|9=0069|35=0|49=FROMARBITRAGELIMA_XNYSE|56=LVBSG|34=280|52=20140710-15:50:27|10=053|
20140710-15:51:14.936: 8=FIX.4.4|9=73|35=0|34=215|49=LVBSG|52=20140710-15:51:14.936|56=FROMARBITRAGELIMA_XNYSE|10=155|
20140710-15:51:45.225: 8=FIX.4.4|9=0069|35=0|49=FROMARBITRAGELIMA_XNYSE|56=LVBSG|34=281|52=20140710-15:51:27|10=055|
20140710-15:52:14.936: 8=FIX.4.4|9=73|35=0|34=216|49=LVBSG|52=20140710-15:52:14.936|56=FROMARBITRAGELIMA_XNYSE|10=157|
20140710-15:52:45.226: 8=FIX.4.4|9=0069|35=0|49=FROMARBITRAGELIMA_XNYSE|56=LVBSG|34=282|52=20140710-15:52:27|10=057|
20140710-15:53:14.936: 8=FIX.4.4|9=73|35=0|34=217|49=LVBSG|52=20140710-15:53:14.936|56=FROMARBITRAGELIMA_XNYSE|10=159|
20140710-15:53:45.230: 8=FIX.4.4|9=0069|35=0|49=FROMARBITRAGELIMA_XNYSE|56=LVBSG|34=283|52=20140710-15:53:27|10=059|
20140710-15:54:14.936: 8=FIX.4.4|9=73|35=0|34=218|49=LVBSG|52=20140710-15:54:14.936|56=FROMARBITRAGELIMA_XNYSE|10=161|
20140710-15:54:45.226: 8=FIX.4.4|9=0069|35=0|49=FROMARBITRAGELIMA_XNYSE|56=LVBSG|34=284|52=20140710-15:54:27|10=061|
20140710-15:55:14.936: 8=FIX.4.4|9=73|35=0|34=219|49=LVBSG|52=20140710-15:55:14.936|56=FROMARBITRAGELIMA_XNYSE|10=163|
20140710-15:55:45.234: 8=FIX.4.4|9=0069|35=0|49=FROMARBITRAGELIMA_XNYSE|56=LVBSG|34=285|52=20140710-15:55:27|10=063|
20140710-15:56:14.936: 8=FIX.4.4|9=73|35=0|34=220|49=LVBSG|52=20140710-15:56:14.936|56=FROMARBITRAGELIMA_XNYSE|10=156|
20140710-15:56:45.226: 8=FIX.4.4|9=0069|35=0|49=FROMARBITRAGELIMA_XNYSE|56=LVBSG|34=286|52=20140710-15:56:27|10=065|
20140710-15:57:14.938: 8=FIX.4.4|9=73|35=0|34=221|49=LVBSG|52=20140710-15:57:14.938|56=FROMARBITRAGELIMA_XNYSE|10=160|
20140710-15:57:45.233: 8=FIX.4.4|9=0069|35=0|49=FROMARBITRAGELIMA_XNYSE|56=LVBSG|34=287|52=20140710-15:57:27|10=067|
20140710-15:58:15.936: 8=FIX.4.4|9=73|35=0|34=222|49=LVBSG|52=20140710-15:58:15.936|56=FROMARBITRAGELIMA_XNYSE|10=161|
20140710-15:58:45.227: 8=FIX.4.4|9=0069|35=0|49=FROMARBITRAGELIMA_XNYSE|56=LVBSG|34=288|52=20140710-15:58:27|10=069|
20140710-15:59:15.936: 8=FIX.4.4|9=73|35=0|34=223|49=LVBSG|52=20140710-15:59:15.936|56=FROMARBITRAGELIMA_XNYSE|10=163|
20140710-15:59:45.227: 8=FIX.4.4|9=0069|35=0|49=FROMARBITRAGELIMA_XNYSE|56=LVBSG|34=289|52=20140710-15:59:27|10=071|
20140710-16:00:15.937: 8=FIX.4.4|9=73|35=0|34=224|49=LVBSG|52=20140710-16:00:15.937|56=FROMARBITRAGELIMA_XNYSE|10=152|
20140710-16:00:45.227: 8=FIX.4.4|9=0069|35=0|49=FROMARBITRAGELIMA_XNYSE|56=LVBSG|34=290|52=20140710-16:00:27|10=050|
20140710-16:01:16.937: 8=FIX.4.4|9=73|35=0|34=225|49=LVBSG|52=20140710-16:01:16.936|56=FROMARBITRAGELIMA_XNYSE|10=154|
20140710-16:01:45.231: 8=FIX.4.4|9=0069|35=0|49=FROMARBITRAGELIMA_XNYSE|56=LVBSG|34=291|52=20140710-16:01:27|10=052|
20140710-16:02:16.937: 8=FIX.4.4|9=73|35=0|34=226|49=LVBSG|52=20140710-16:02:16.937|56=FROMARBITRAGELIMA_XNYSE|10=157|
20140710-16:02:45.229: 8=FIX.4.4|9=0069|35=0|49=FROMARBITRAGELIMA_XNYSE|56=LVBSG|34=292|52=20140710-16:02:27|10=054|
20140710-16:03:17.936: 8=FIX.4.4|9=73|35=0|34=227|49=LVBSG|52=20140710-16:03:17.936|56=FROMARBITRAGELIMA_XNYSE|10=159|
20140710-16:03:45.230: 8=FIX.4.4|9=0069|35=0|49=FROMARBITRAGELIMA_XNYSE|56=LVBSG|34=293|52=20140710-16:03:27|10=056|
