20150519-11:09:08.182: 8=FIX.4.4|9=72|35=5|34=1|49=ARBv8_EQUITY_NYS_BCS|52=20150519-11:09:08.181|56=MAMA_NYSE|10=235|
20150519-11:09:09.109: 8=FIX.4.4|9=72|35=5|34=1|49=ARBv8_EQUITY_NYS_BCS|52=20150519-11:09:09.109|56=MAMA_NYSE|10=236|
20150519-11:09:10.114: 8=FIX.4.4|9=90|35=A|34=1|49=ARBv8_EQUITY_NYS_BCS|52=20150519-11:09:10.114|56=MAMA_NYSE|98=0|108=60|141=Y|10=053|
20150519-11:09:10.145: 8=FIX.4.4|9=72|35=5|34=1|49=MAMA_NYSE|52=20150519-11:09:10.117|56=ARBv8_EQUITY_NYS_BCS|10=227|
20150519-11:09:11.138: 8=FIX.4.4|9=90|35=A|34=1|49=ARBv8_EQUITY_NYS_BCS|52=20150519-11:09:11.138|56=MAMA_NYSE|98=0|108=60|141=Y|10=060|
20150519-11:09:11.145: 8=FIX.4.4|9=90|35=A|34=1|49=MAMA_NYSE|52=20150519-11:09:11.142|56=ARBv8_EQUITY_NYS_BCS|98=0|108=60|141=Y|10=055|
20150519-11:10:11.273: 8=FIX.4.4|9=72|35=0|34=2|49=MAMA_NYSE|52=20150519-11:10:11.265|56=ARBv8_EQUITY_NYS_BCS|10=220|
20150519-11:10:11.273: 8=FIX.4.4|9=72|35=0|34=2|49=ARBv8_EQUITY_NYS_BCS|52=20150519-11:10:11.273|56=MAMA_NYSE|10=219|
20150519-11:11:12.108: 8=FIX.4.4|9=72|35=0|34=3|49=ARBv8_EQUITY_NYS_BCS|52=20150519-11:11:12.108|56=MAMA_NYSE|10=219|
20150519-11:11:12.112: 8=FIX.4.4|9=72|35=0|34=3|49=MAMA_NYSE|52=20150519-11:11:12.110|56=ARBv8_EQUITY_NYS_BCS|10=212|
20150519-11:12:12.108: 8=FIX.4.4|9=72|35=0|34=4|49=ARBv8_EQUITY_NYS_BCS|52=20150519-11:12:12.108|56=MAMA_NYSE|10=221|
20150519-11:12:12.267: 8=FIX.4.4|9=72|35=0|34=4|49=MAMA_NYSE|52=20150519-11:12:12.264|56=ARBv8_EQUITY_NYS_BCS|10=224|
20150519-11:13:12.108: 8=FIX.4.4|9=72|35=0|34=5|49=ARBv8_EQUITY_NYS_BCS|52=20150519-11:13:12.108|56=MAMA_NYSE|10=223|
20150519-11:13:12.267: 8=FIX.4.4|9=72|35=0|34=5|49=MAMA_NYSE|52=20150519-11:13:12.264|56=ARBv8_EQUITY_NYS_BCS|10=226|
20150519-11:14:12.108: 8=FIX.4.4|9=72|35=0|34=6|49=ARBv8_EQUITY_NYS_BCS|52=20150519-11:14:12.108|56=MAMA_NYSE|10=225|
20150519-11:14:12.267: 8=FIX.4.4|9=72|35=0|34=6|49=MAMA_NYSE|52=20150519-11:14:12.264|56=ARBv8_EQUITY_NYS_BCS|10=228|
20150519-11:15:12.108: 8=FIX.4.4|9=72|35=0|34=7|49=ARBv8_EQUITY_NYS_BCS|52=20150519-11:15:12.108|56=MAMA_NYSE|10=227|
20150519-11:15:12.268: 8=FIX.4.4|9=72|35=0|34=7|49=MAMA_NYSE|52=20150519-11:15:12.265|56=ARBv8_EQUITY_NYS_BCS|10=231|
20150519-11:16:12.108: 8=FIX.4.4|9=72|35=0|34=8|49=ARBv8_EQUITY_NYS_BCS|52=20150519-11:16:12.108|56=MAMA_NYSE|10=229|
20150519-11:16:13.268: 8=FIX.4.4|9=72|35=0|34=8|49=MAMA_NYSE|52=20150519-11:16:13.265|56=ARBv8_EQUITY_NYS_BCS|10=234|
20150519-11:17:13.107: 8=FIX.4.4|9=72|35=0|34=9|49=ARBv8_EQUITY_NYS_BCS|52=20150519-11:17:13.107|56=MAMA_NYSE|10=231|
20150519-11:17:14.267: 8=FIX.4.4|9=72|35=0|34=9|49=MAMA_NYSE|52=20150519-11:17:14.264|56=ARBv8_EQUITY_NYS_BCS|10=236|
20150519-11:18:13.108: 8=FIX.4.4|9=73|35=0|34=10|49=ARBv8_EQUITY_NYS_BCS|52=20150519-11:18:13.108|56=MAMA_NYSE|10=018|
20150519-11:18:15.267: 8=FIX.4.4|9=73|35=0|34=10|49=MAMA_NYSE|52=20150519-11:18:15.264|56=ARBv8_EQUITY_NYS_BCS|10=023|
20150519-11:19:13.108: 8=FIX.4.4|9=73|35=0|34=11|49=ARBv8_EQUITY_NYS_BCS|52=20150519-11:19:13.108|56=MAMA_NYSE|10=020|
20150519-11:19:15.267: 8=FIX.4.4|9=73|35=0|34=11|49=MAMA_NYSE|52=20150519-11:19:15.264|56=ARBv8_EQUITY_NYS_BCS|10=025|
20150519-11:20:13.108: 8=FIX.4.4|9=73|35=0|34=12|49=ARBv8_EQUITY_NYS_BCS|52=20150519-11:20:13.108|56=MAMA_NYSE|10=013|
20150519-11:20:15.267: 8=FIX.4.4|9=73|35=0|34=12|49=MAMA_NYSE|52=20150519-11:20:15.264|56=ARBv8_EQUITY_NYS_BCS|10=018|
20150519-11:21:14.108: 8=FIX.4.4|9=73|35=0|34=13|49=ARBv8_EQUITY_NYS_BCS|52=20150519-11:21:14.107|56=MAMA_NYSE|10=015|
20150519-11:21:15.267: 8=FIX.4.4|9=73|35=0|34=13|49=MAMA_NYSE|52=20150519-11:21:15.264|56=ARBv8_EQUITY_NYS_BCS|10=020|
20150519-11:22:14.107: 8=FIX.4.4|9=73|35=0|34=14|49=ARBv8_EQUITY_NYS_BCS|52=20150519-11:22:14.107|56=MAMA_NYSE|10=017|
20150519-11:22:15.266: 8=FIX.4.4|9=73|35=0|34=14|49=MAMA_NYSE|52=20150519-11:22:15.264|56=ARBv8_EQUITY_NYS_BCS|10=022|
20150519-11:23:14.107: 8=FIX.4.4|9=73|35=0|34=15|49=ARBv8_EQUITY_NYS_BCS|52=20150519-11:23:14.107|56=MAMA_NYSE|10=019|
20150519-11:23:15.267: 8=FIX.4.4|9=73|35=0|34=15|49=MAMA_NYSE|52=20150519-11:23:15.264|56=ARBv8_EQUITY_NYS_BCS|10=024|
20150519-11:24:14.108: 8=FIX.4.4|9=73|35=0|34=16|49=ARBv8_EQUITY_NYS_BCS|52=20150519-11:24:14.107|56=MAMA_NYSE|10=021|
20150519-11:24:15.269: 8=FIX.4.4|9=73|35=0|34=16|49=MAMA_NYSE|52=20150519-11:24:15.264|56=ARBv8_EQUITY_NYS_BCS|10=026|
20150519-11:25:14.108: 8=FIX.4.4|9=73|35=0|34=17|49=ARBv8_EQUITY_NYS_BCS|52=20150519-11:25:14.107|56=MAMA_NYSE|10=023|
20150519-11:25:15.267: 8=FIX.4.4|9=73|35=0|34=17|49=MAMA_NYSE|52=20150519-11:25:15.265|56=ARBv8_EQUITY_NYS_BCS|10=029|
20150519-11:26:14.108: 8=FIX.4.4|9=73|35=0|34=18|49=ARBv8_EQUITY_NYS_BCS|52=20150519-11:26:14.108|56=MAMA_NYSE|10=026|
20150519-11:26:16.266: 8=FIX.4.4|9=73|35=0|34=18|49=MAMA_NYSE|52=20150519-11:26:16.264|56=ARBv8_EQUITY_NYS_BCS|10=031|
20150519-11:27:14.108: 8=FIX.4.4|9=73|35=0|34=19|49=ARBv8_EQUITY_NYS_BCS|52=20150519-11:27:14.108|56=MAMA_NYSE|10=028|
20150519-11:27:16.266: 8=FIX.4.4|9=73|35=0|34=19|49=MAMA_NYSE|52=20150519-11:27:16.264|56=ARBv8_EQUITY_NYS_BCS|10=033|
20150519-11:28:14.108: 8=FIX.4.4|9=73|35=0|34=20|49=ARBv8_EQUITY_NYS_BCS|52=20150519-11:28:14.108|56=MAMA_NYSE|10=021|
20150519-11:28:16.266: 8=FIX.4.4|9=73|35=0|34=20|49=MAMA_NYSE|52=20150519-11:28:16.264|56=ARBv8_EQUITY_NYS_BCS|10=026|
20150519-11:29:15.108: 8=FIX.4.4|9=73|35=0|34=21|49=ARBv8_EQUITY_NYS_BCS|52=20150519-11:29:15.108|56=MAMA_NYSE|10=024|
20150519-11:29:16.267: 8=FIX.4.4|9=73|35=0|34=21|49=MAMA_NYSE|52=20150519-11:29:16.265|56=ARBv8_EQUITY_NYS_BCS|10=029|
20150519-11:30:15.108: 8=FIX.4.4|9=73|35=0|34=22|49=ARBv8_EQUITY_NYS_BCS|52=20150519-11:30:15.108|56=MAMA_NYSE|10=017|
20150519-11:30:17.270: 8=FIX.4.4|9=73|35=0|34=22|49=MAMA_NYSE|52=20150519-11:30:17.264|56=ARBv8_EQUITY_NYS_BCS|10=022|
20150519-11:31:16.107: 8=FIX.4.4|9=73|35=0|34=23|49=ARBv8_EQUITY_NYS_BCS|52=20150519-11:31:16.107|56=MAMA_NYSE|10=019|
20150519-11:31:17.266: 8=FIX.4.4|9=73|35=0|34=23|49=MAMA_NYSE|52=20150519-11:31:17.264|56=ARBv8_EQUITY_NYS_BCS|10=024|
20150519-11:32:16.108: 8=FIX.4.4|9=73|35=0|34=24|49=ARBv8_EQUITY_NYS_BCS|52=20150519-11:32:16.108|56=MAMA_NYSE|10=022|
20150519-11:32:17.267: 8=FIX.4.4|9=73|35=0|34=24|49=MAMA_NYSE|52=20150519-11:32:17.264|56=ARBv8_EQUITY_NYS_BCS|10=026|
20150519-11:33:17.108: 8=FIX.4.4|9=73|35=0|34=25|49=ARBv8_EQUITY_NYS_BCS|52=20150519-11:33:17.108|56=MAMA_NYSE|10=025|
20150519-11:33:17.268: 8=FIX.4.4|9=73|35=0|34=25|49=MAMA_NYSE|52=20150519-11:33:17.264|56=ARBv8_EQUITY_NYS_BCS|10=028|
20150519-11:34:17.266: 8=FIX.4.4|9=73|35=0|34=26|49=MAMA_NYSE|52=20150519-11:34:17.264|56=ARBv8_EQUITY_NYS_BCS|10=030|
20150519-11:34:17.266: 8=FIX.4.4|9=73|35=0|34=26|49=ARBv8_EQUITY_NYS_BCS|52=20150519-11:34:17.266|56=MAMA_NYSE|10=032|
20150519-11:35:18.108: 8=FIX.4.4|9=73|35=0|34=27|49=ARBv8_EQUITY_NYS_BCS|52=20150519-11:35:18.108|56=MAMA_NYSE|10=030|
20150519-11:35:18.111: 8=FIX.4.4|9=73|35=0|34=27|49=MAMA_NYSE|52=20150519-11:35:18.110|56=ARBv8_EQUITY_NYS_BCS|10=023|
20150519-11:36:18.266: 8=FIX.4.4|9=73|35=0|34=28|49=MAMA_NYSE|52=20150519-11:36:18.264|56=ARBv8_EQUITY_NYS_BCS|10=035|
20150519-11:36:18.267: 8=FIX.4.4|9=73|35=0|34=28|49=ARBv8_EQUITY_NYS_BCS|52=20150519-11:36:18.267|56=MAMA_NYSE|10=038|
20150519-11:37:18.268: 8=FIX.4.4|9=73|35=0|34=29|49=MAMA_NYSE|52=20150519-11:37:18.265|56=ARBv8_EQUITY_NYS_BCS|10=038|
20150519-11:37:18.269: 8=FIX.4.4|9=73|35=0|34=29|49=ARBv8_EQUITY_NYS_BCS|52=20150519-11:37:18.268|56=MAMA_NYSE|10=041|
20150519-11:38:19.108: 8=FIX.4.4|9=73|35=0|34=30|49=ARBv8_EQUITY_NYS_BCS|52=20150519-11:38:19.108|56=MAMA_NYSE|10=028|
20150519-11:38:19.111: 8=FIX.4.4|9=73|35=0|34=30|49=MAMA_NYSE|52=20150519-11:38:19.109|56=ARBv8_EQUITY_NYS_BCS|10=029|
20150519-11:39:19.271: 8=FIX.4.4|9=73|35=0|34=31|49=MAMA_NYSE|52=20150519-11:39:19.264|56=ARBv8_EQUITY_NYS_BCS|10=033|
20150519-11:39:19.271: 8=FIX.4.4|9=73|35=0|34=31|49=ARBv8_EQUITY_NYS_BCS|52=20150519-11:39:19.271|56=MAMA_NYSE|10=031|
20150519-11:40:19.274: 8=FIX.4.4|9=73|35=0|34=32|49=MAMA_NYSE|52=20150519-11:40:19.264|56=ARBv8_EQUITY_NYS_BCS|10=026|
20150519-11:40:19.274: 8=FIX.4.4|9=73|35=0|34=32|49=ARBv8_EQUITY_NYS_BCS|52=20150519-11:40:19.274|56=MAMA_NYSE|10=027|
20150519-11:41:19.266: 8=FIX.4.4|9=73|35=0|34=33|49=MAMA_NYSE|52=20150519-11:41:19.264|56=ARBv8_EQUITY_NYS_BCS|10=028|
20150519-11:41:20.108: 8=FIX.4.4|9=73|35=0|34=33|49=ARBv8_EQUITY_NYS_BCS|52=20150519-11:41:20.108|56=MAMA_NYSE|10=017|
20150519-11:42:20.266: 8=FIX.4.4|9=73|35=0|34=34|49=MAMA_NYSE|52=20150519-11:42:20.264|56=ARBv8_EQUITY_NYS_BCS|10=022|
20150519-11:42:20.266: 8=FIX.4.4|9=73|35=0|34=34|49=ARBv8_EQUITY_NYS_BCS|52=20150519-11:42:20.266|56=MAMA_NYSE|10=024|
20150519-11:43:20.266: 8=FIX.4.4|9=73|35=0|34=35|49=MAMA_NYSE|52=20150519-11:43:20.264|56=ARBv8_EQUITY_NYS_BCS|10=024|
20150519-11:43:20.266: 8=FIX.4.4|9=73|35=0|34=35|49=ARBv8_EQUITY_NYS_BCS|52=20150519-11:43:20.266|56=MAMA_NYSE|10=026|
20150519-11:44:20.266: 8=FIX.4.4|9=73|35=0|34=36|49=MAMA_NYSE|52=20150519-11:44:20.265|56=ARBv8_EQUITY_NYS_BCS|10=027|
20150519-11:44:20.267: 8=FIX.4.4|9=73|35=0|34=36|49=ARBv8_EQUITY_NYS_BCS|52=20150519-11:44:20.267|56=MAMA_NYSE|10=029|
20150519-11:45:21.107: 8=FIX.4.4|9=73|35=0|34=37|49=ARBv8_EQUITY_NYS_BCS|52=20150519-11:45:21.107|56=MAMA_NYSE|10=025|
20150519-11:45:21.114: 8=FIX.4.4|9=73|35=0|34=37|49=MAMA_NYSE|52=20150519-11:45:21.112|56=ARBv8_EQUITY_NYS_BCS|10=021|
20150519-11:46:21.107: 8=FIX.4.4|9=73|35=0|34=38|49=ARBv8_EQUITY_NYS_BCS|52=20150519-11:46:21.107|56=MAMA_NYSE|10=027|
20150519-11:46:21.266: 8=FIX.4.4|9=73|35=0|34=38|49=MAMA_NYSE|52=20150519-11:46:21.264|56=ARBv8_EQUITY_NYS_BCS|10=031|
20150519-11:47:21.108: 8=FIX.4.4|9=73|35=0|34=39|49=ARBv8_EQUITY_NYS_BCS|52=20150519-11:47:21.108|56=MAMA_NYSE|10=030|
20150519-11:47:21.266: 8=FIX.4.4|9=73|35=0|34=39|49=MAMA_NYSE|52=20150519-11:47:21.264|56=ARBv8_EQUITY_NYS_BCS|10=033|
20150519-11:48:21.108: 8=FIX.4.4|9=73|35=0|34=40|49=ARBv8_EQUITY_NYS_BCS|52=20150519-11:48:21.108|56=MAMA_NYSE|10=023|
20150519-11:48:21.266: 8=FIX.4.4|9=73|35=0|34=40|49=MAMA_NYSE|52=20150519-11:48:21.264|56=ARBv8_EQUITY_NYS_BCS|10=026|
20150519-11:49:21.266: 8=FIX.4.4|9=73|35=0|34=41|49=MAMA_NYSE|52=20150519-11:49:21.264|56=ARBv8_EQUITY_NYS_BCS|10=028|
20150519-11:49:21.266: 8=FIX.4.4|9=73|35=0|34=41|49=ARBv8_EQUITY_NYS_BCS|52=20150519-11:49:21.266|56=MAMA_NYSE|10=030|
20150519-11:50:10.108: 8=FIX.4.4|9=90|35=A|34=1|49=ARBv8_EQUITY_NYS_BCS|52=20150519-11:50:10.108|56=MAMA_NYSE|98=0|108=60|141=Y|10=052|
20150519-11:50:10.188: 8=FIX.4.4|9=90|35=A|34=1|49=MAMA_NYSE|52=20150519-11:50:10.179|56=ARBv8_EQUITY_NYS_BCS|98=0|108=60|141=Y|10=060|
20150519-11:51:10.108: 8=FIX.4.4|9=72|35=0|34=2|49=ARBv8_EQUITY_NYS_BCS|52=20150519-11:51:10.108|56=MAMA_NYSE|10=220|
20150519-11:51:10.678: 8=FIX.4.4|9=72|35=0|34=2|49=MAMA_NYSE|52=20150519-11:51:10.675|56=ARBv8_EQUITY_NYS_BCS|10=229|
20150519-11:52:11.107: 8=FIX.4.4|9=72|35=0|34=3|49=ARBv8_EQUITY_NYS_BCS|52=20150519-11:52:11.107|56=MAMA_NYSE|10=222|
20150519-11:52:11.111: 8=FIX.4.4|9=72|35=0|34=3|49=MAMA_NYSE|52=20150519-11:52:11.110|56=ARBv8_EQUITY_NYS_BCS|10=216|
20150519-11:53:11.108: 8=FIX.4.4|9=72|35=0|34=4|49=ARBv8_EQUITY_NYS_BCS|52=20150519-11:53:11.108|56=MAMA_NYSE|10=225|
20150519-11:53:11.113: 8=FIX.4.4|9=72|35=0|34=4|49=MAMA_NYSE|52=20150519-11:53:11.110|56=ARBv8_EQUITY_NYS_BCS|10=218|
20150519-11:54:11.672: 8=FIX.4.4|9=72|35=0|34=5|49=MAMA_NYSE|52=20150519-11:54:11.670|56=ARBv8_EQUITY_NYS_BCS|10=231|
20150519-11:54:11.672: 8=FIX.4.4|9=72|35=0|34=5|49=ARBv8_EQUITY_NYS_BCS|52=20150519-11:54:11.672|56=MAMA_NYSE|10=233|
20150519-11:55:11.677: 8=FIX.4.4|9=72|35=0|34=6|49=MAMA_NYSE|52=20150519-11:55:11.672|56=ARBv8_EQUITY_NYS_BCS|10=235|
20150519-11:55:11.677: 8=FIX.4.4|9=72|35=0|34=6|49=ARBv8_EQUITY_NYS_BCS|52=20150519-11:55:11.677|56=MAMA_NYSE|10=240|
20150519-11:56:11.675: 8=FIX.4.4|9=72|35=0|34=7|49=MAMA_NYSE|52=20150519-11:56:11.672|56=ARBv8_EQUITY_NYS_BCS|10=237|
20150519-11:56:12.107: 8=FIX.4.4|9=72|35=0|34=7|49=ARBv8_EQUITY_NYS_BCS|52=20150519-11:56:12.107|56=MAMA_NYSE|10=231|
20150519-11:57:12.107: 8=FIX.4.4|9=72|35=0|34=8|49=ARBv8_EQUITY_NYS_BCS|52=20150519-11:57:12.107|56=MAMA_NYSE|10=233|
20150519-11:57:12.115: 8=FIX.4.4|9=72|35=0|34=8|49=MAMA_NYSE|52=20150519-11:57:12.110|56=ARBv8_EQUITY_NYS_BCS|10=227|
20150519-11:58:12.108: 8=FIX.4.4|9=72|35=0|34=9|49=ARBv8_EQUITY_NYS_BCS|52=20150519-11:58:12.108|56=MAMA_NYSE|10=236|
20150519-11:58:12.112: 8=FIX.4.4|9=72|35=0|34=9|49=MAMA_NYSE|52=20150519-11:58:12.110|56=ARBv8_EQUITY_NYS_BCS|10=229|
20150519-11:59:12.671: 8=FIX.4.4|9=73|35=0|34=10|49=MAMA_NYSE|52=20150519-11:59:12.669|56=ARBv8_EQUITY_NYS_BCS|10=034|
20150519-11:59:12.671: 8=FIX.4.4|9=73|35=0|34=10|49=ARBv8_EQUITY_NYS_BCS|52=20150519-11:59:12.671|56=MAMA_NYSE|10=027|
20150519-12:00:12.672: 8=FIX.4.4|9=73|35=0|34=11|49=MAMA_NYSE|52=20150519-12:00:12.670|56=ARBv8_EQUITY_NYS_BCS|10=014|
20150519-12:00:12.672: 8=FIX.4.4|9=73|35=0|34=11|49=ARBv8_EQUITY_NYS_BCS|52=20150519-12:00:12.672|56=MAMA_NYSE|10=016|
20150519-12:01:13.107: 8=FIX.4.4|9=73|35=0|34=12|49=ARBv8_EQUITY_NYS_BCS|52=20150519-12:01:13.107|56=MAMA_NYSE|10=012|
20150519-12:01:13.119: 8=FIX.4.4|9=73|35=0|34=12|49=MAMA_NYSE|52=20150519-12:01:13.110|56=ARBv8_EQUITY_NYS_BCS|10=006|
20150519-12:02:13.107: 8=FIX.4.4|9=73|35=0|34=13|49=ARBv8_EQUITY_NYS_BCS|52=20150519-12:02:13.107|56=MAMA_NYSE|10=014|
20150519-12:02:13.670: 8=FIX.4.4|9=73|35=0|34=13|49=MAMA_NYSE|52=20150519-12:02:13.668|56=ARBv8_EQUITY_NYS_BCS|10=026|
20150519-12:03:13.108: 8=FIX.4.4|9=73|35=0|34=14|49=ARBv8_EQUITY_NYS_BCS|52=20150519-12:03:13.108|56=MAMA_NYSE|10=017|
20150519-12:03:13.670: 8=FIX.4.4|9=73|35=0|34=14|49=MAMA_NYSE|52=20150519-12:03:13.668|56=ARBv8_EQUITY_NYS_BCS|10=028|
20150519-12:04:13.671: 8=FIX.4.4|9=73|35=0|34=15|49=MAMA_NYSE|52=20150519-12:04:13.669|56=ARBv8_EQUITY_NYS_BCS|10=031|
20150519-12:04:13.671: 8=FIX.4.4|9=73|35=0|34=15|49=ARBv8_EQUITY_NYS_BCS|52=20150519-12:04:13.671|56=MAMA_NYSE|10=024|
20150519-12:05:13.671: 8=FIX.4.4|9=73|35=0|34=16|49=MAMA_NYSE|52=20150519-12:05:13.669|56=ARBv8_EQUITY_NYS_BCS|10=033|
20150519-12:05:13.671: 8=FIX.4.4|9=73|35=0|34=16|49=ARBv8_EQUITY_NYS_BCS|52=20150519-12:05:13.671|56=MAMA_NYSE|10=026|
20150519-12:06:13.671: 8=FIX.4.4|9=73|35=0|34=17|49=MAMA_NYSE|52=20150519-12:06:13.670|56=ARBv8_EQUITY_NYS_BCS|10=027|
20150519-12:06:13.672: 8=FIX.4.4|9=73|35=0|34=17|49=ARBv8_EQUITY_NYS_BCS|52=20150519-12:06:13.672|56=MAMA_NYSE|10=029|
20150519-12:07:14.108: 8=FIX.4.4|9=73|35=0|34=18|49=ARBv8_EQUITY_NYS_BCS|52=20150519-12:07:14.108|56=MAMA_NYSE|10=026|
20150519-12:07:14.112: 8=FIX.4.4|9=73|35=0|34=18|49=MAMA_NYSE|52=20150519-12:07:14.110|56=ARBv8_EQUITY_NYS_BCS|10=019|
20150519-12:08:14.108: 8=FIX.4.4|9=73|35=0|34=19|49=ARBv8_EQUITY_NYS_BCS|52=20150519-12:08:14.108|56=MAMA_NYSE|10=028|
20150519-12:08:14.112: 8=FIX.4.4|9=73|35=0|34=19|49=MAMA_NYSE|52=20150519-12:08:14.110|56=ARBv8_EQUITY_NYS_BCS|10=021|
20150519-12:09:14.108: 8=FIX.4.4|9=73|35=0|34=20|49=ARBv8_EQUITY_NYS_BCS|52=20150519-12:09:14.108|56=MAMA_NYSE|10=021|
20150519-12:09:14.112: 8=FIX.4.4|9=73|35=0|34=20|49=MAMA_NYSE|52=20150519-12:09:14.110|56=ARBv8_EQUITY_NYS_BCS|10=014|
20150519-12:10:14.108: 8=FIX.4.4|9=73|35=0|34=21|49=ARBv8_EQUITY_NYS_BCS|52=20150519-12:10:14.108|56=MAMA_NYSE|10=014|
20150519-12:10:14.111: 8=FIX.4.4|9=73|35=0|34=21|49=MAMA_NYSE|52=20150519-12:10:14.110|56=ARBv8_EQUITY_NYS_BCS|10=007|
20150519-12:11:14.108: 8=FIX.4.4|9=73|35=0|34=22|49=ARBv8_EQUITY_NYS_BCS|52=20150519-12:11:14.108|56=MAMA_NYSE|10=016|
20150519-12:11:14.112: 8=FIX.4.4|9=73|35=0|34=22|49=MAMA_NYSE|52=20150519-12:11:14.110|56=ARBv8_EQUITY_NYS_BCS|10=009|
20150519-12:12:14.670: 8=FIX.4.4|9=73|35=0|34=23|49=MAMA_NYSE|52=20150519-12:12:14.669|56=ARBv8_EQUITY_NYS_BCS|10=030|
20150519-12:12:14.670: 8=FIX.4.4|9=73|35=0|34=23|49=ARBv8_EQUITY_NYS_BCS|52=20150519-12:12:14.670|56=MAMA_NYSE|10=022|
20150519-12:13:15.107: 8=FIX.4.4|9=73|35=0|34=24|49=ARBv8_EQUITY_NYS_BCS|52=20150519-12:13:15.107|56=MAMA_NYSE|10=020|
20150519-12:13:15.110: 8=FIX.4.4|9=73|35=0|34=24|49=MAMA_NYSE|52=20150519-12:13:15.109|56=ARBv8_EQUITY_NYS_BCS|10=022|
20150519-12:14:15.108: 8=FIX.4.4|9=73|35=0|34=25|49=ARBv8_EQUITY_NYS_BCS|52=20150519-12:14:15.108|56=MAMA_NYSE|10=023|
20150519-12:14:15.113: 8=FIX.4.4|9=73|35=0|34=25|49=MAMA_NYSE|52=20150519-12:14:15.111|56=ARBv8_EQUITY_NYS_BCS|10=017|
20150519-12:15:15.670: 8=FIX.4.4|9=73|35=0|34=26|49=MAMA_NYSE|52=20150519-12:15:15.668|56=ARBv8_EQUITY_NYS_BCS|10=036|
20150519-12:15:15.670: 8=FIX.4.4|9=73|35=0|34=26|49=ARBv8_EQUITY_NYS_BCS|52=20150519-12:15:15.670|56=MAMA_NYSE|10=029|
20150519-12:16:15.670: 8=FIX.4.4|9=73|35=0|34=27|49=MAMA_NYSE|52=20150519-12:16:15.669|56=ARBv8_EQUITY_NYS_BCS|10=039|
20150519-12:16:15.671: 8=FIX.4.4|9=73|35=0|34=27|49=ARBv8_EQUITY_NYS_BCS|52=20150519-12:16:15.671|56=MAMA_NYSE|10=032|
20150519-12:17:16.108: 8=FIX.4.4|9=73|35=0|34=28|49=ARBv8_EQUITY_NYS_BCS|52=20150519-12:17:16.108|56=MAMA_NYSE|10=030|
20150519-12:17:16.111: 8=FIX.4.4|9=73|35=0|34=28|49=MAMA_NYSE|52=20150519-12:17:16.110|56=ARBv8_EQUITY_NYS_BCS|10=023|
20150519-12:18:16.671: 8=FIX.4.4|9=73|35=0|34=29|49=MAMA_NYSE|52=20150519-12:18:16.670|56=ARBv8_EQUITY_NYS_BCS|10=036|
20150519-12:18:16.671: 8=FIX.4.4|9=73|35=0|34=29|49=ARBv8_EQUITY_NYS_BCS|52=20150519-12:18:16.671|56=MAMA_NYSE|10=037|
20150519-12:19:16.673: 8=FIX.4.4|9=73|35=0|34=30|49=MAMA_NYSE|52=20150519-12:19:16.670|56=ARBv8_EQUITY_NYS_BCS|10=029|
20150519-12:19:16.673: 8=FIX.4.4|9=73|35=0|34=30|49=ARBv8_EQUITY_NYS_BCS|52=20150519-12:19:16.673|56=MAMA_NYSE|10=032|
20150519-12:20:17.107: 8=FIX.4.4|9=73|35=0|34=31|49=ARBv8_EQUITY_NYS_BCS|52=20150519-12:20:17.107|56=MAMA_NYSE|10=018|
20150519-12:20:17.110: 8=FIX.4.4|9=73|35=0|34=31|49=MAMA_NYSE|52=20150519-12:20:17.110|56=ARBv8_EQUITY_NYS_BCS|10=012|
20150519-12:21:17.107: 8=FIX.4.4|9=73|35=0|34=32|49=ARBv8_EQUITY_NYS_BCS|52=20150519-12:21:17.107|56=MAMA_NYSE|10=020|
20150519-12:21:17.111: 8=FIX.4.4|9=73|35=0|34=32|49=MAMA_NYSE|52=20150519-12:21:17.110|56=ARBv8_EQUITY_NYS_BCS|10=014|
20150519-12:22:17.108: 8=FIX.4.4|9=73|35=0|34=33|49=ARBv8_EQUITY_NYS_BCS|52=20150519-12:22:17.108|56=MAMA_NYSE|10=023|
20150519-12:22:17.111: 8=FIX.4.4|9=73|35=0|34=33|49=MAMA_NYSE|52=20150519-12:22:17.111|56=ARBv8_EQUITY_NYS_BCS|10=017|
20150519-12:23:17.108: 8=FIX.4.4|9=73|35=0|34=34|49=ARBv8_EQUITY_NYS_BCS|52=20150519-12:23:17.108|56=MAMA_NYSE|10=025|
20150519-12:23:17.671: 8=FIX.4.4|9=73|35=0|34=34|49=MAMA_NYSE|52=20150519-12:23:17.669|56=ARBv8_EQUITY_NYS_BCS|10=037|
20150519-12:24:17.108: 8=FIX.4.4|9=73|35=0|34=35|49=ARBv8_EQUITY_NYS_BCS|52=20150519-12:24:17.108|56=MAMA_NYSE|10=027|
20150519-12:24:18.670: 8=FIX.4.4|9=73|35=0|34=35|49=MAMA_NYSE|52=20150519-12:24:18.669|56=ARBv8_EQUITY_NYS_BCS|10=040|
20150519-12:25:17.108: 8=FIX.4.4|9=73|35=0|34=36|49=ARBv8_EQUITY_NYS_BCS|52=20150519-12:25:17.108|56=MAMA_NYSE|10=029|
20150519-12:25:18.670: 8=FIX.4.4|9=73|35=0|34=36|49=MAMA_NYSE|52=20150519-12:25:18.669|56=ARBv8_EQUITY_NYS_BCS|10=042|
20150519-12:26:18.108: 8=FIX.4.4|9=73|35=0|34=37|49=ARBv8_EQUITY_NYS_BCS|52=20150519-12:26:18.107|56=MAMA_NYSE|10=031|
20150519-12:26:18.672: 8=FIX.4.4|9=73|35=0|34=37|49=MAMA_NYSE|52=20150519-12:26:18.669|56=ARBv8_EQUITY_NYS_BCS|10=044|
20150519-12:27:18.107: 8=FIX.4.4|9=73|35=0|34=38|49=ARBv8_EQUITY_NYS_BCS|52=20150519-12:27:18.107|56=MAMA_NYSE|10=033|
20150519-12:27:18.673: 8=FIX.4.4|9=73|35=0|34=38|49=MAMA_NYSE|52=20150519-12:27:18.670|56=ARBv8_EQUITY_NYS_BCS|10=038|
20150519-12:28:18.107: 8=FIX.4.4|9=73|35=0|34=39|49=ARBv8_EQUITY_NYS_BCS|52=20150519-12:28:18.107|56=MAMA_NYSE|10=035|
20150519-12:28:18.673: 8=FIX.4.4|9=73|35=0|34=39|49=MAMA_NYSE|52=20150519-12:28:18.670|56=ARBv8_EQUITY_NYS_BCS|10=040|
20150519-12:29:18.107: 8=FIX.4.4|9=73|35=0|34=40|49=ARBv8_EQUITY_NYS_BCS|52=20150519-12:29:18.107|56=MAMA_NYSE|10=028|
20150519-12:29:19.669: 8=FIX.4.4|9=73|35=0|34=40|49=MAMA_NYSE|52=20150519-12:29:19.668|56=ARBv8_EQUITY_NYS_BCS|10=041|
20150519-12:30:18.108: 8=FIX.4.4|9=73|35=0|34=41|49=ARBv8_EQUITY_NYS_BCS|52=20150519-12:30:18.108|56=MAMA_NYSE|10=022|
20150519-12:30:19.669: 8=FIX.4.4|9=73|35=0|34=41|49=MAMA_NYSE|52=20150519-12:30:19.669|56=ARBv8_EQUITY_NYS_BCS|10=035|
20150519-12:31:18.108: 8=FIX.4.4|9=73|35=0|34=42|49=ARBv8_EQUITY_NYS_BCS|52=20150519-12:31:18.108|56=MAMA_NYSE|10=024|
20150519-12:31:19.674: 8=FIX.4.4|9=73|35=0|34=42|49=MAMA_NYSE|52=20150519-12:31:19.670|56=ARBv8_EQUITY_NYS_BCS|10=029|
20150519-12:32:18.108: 8=FIX.4.4|9=73|35=0|34=43|49=ARBv8_EQUITY_NYS_BCS|52=20150519-12:32:18.108|56=MAMA_NYSE|10=026|
20150519-12:32:20.670: 8=FIX.4.4|9=73|35=0|34=43|49=MAMA_NYSE|52=20150519-12:32:20.669|56=ARBv8_EQUITY_NYS_BCS|10=031|
20150519-12:33:19.108: 8=FIX.4.4|9=73|35=0|34=44|49=ARBv8_EQUITY_NYS_BCS|52=20150519-12:33:19.108|56=MAMA_NYSE|10=029|
20150519-12:33:21.670: 8=FIX.4.4|9=73|35=0|34=44|49=MAMA_NYSE|52=20150519-12:33:21.669|56=ARBv8_EQUITY_NYS_BCS|10=034|
20150519-12:34:20.107: 8=FIX.4.4|9=73|35=0|34=45|49=ARBv8_EQUITY_NYS_BCS|52=20150519-12:34:20.107|56=MAMA_NYSE|10=022|
20150519-12:34:21.670: 8=FIX.4.4|9=73|35=0|34=45|49=MAMA_NYSE|52=20150519-12:34:21.669|56=ARBv8_EQUITY_NYS_BCS|10=036|
20150519-12:35:20.107: 8=FIX.4.4|9=73|35=0|34=46|49=ARBv8_EQUITY_NYS_BCS|52=20150519-12:35:20.107|56=MAMA_NYSE|10=024|
20150519-12:35:22.669: 8=FIX.4.4|9=73|35=0|34=46|49=MAMA_NYSE|52=20150519-12:35:22.668|56=ARBv8_EQUITY_NYS_BCS|10=038|
20150519-12:36:20.107: 8=FIX.4.4|9=73|35=0|34=47|49=ARBv8_EQUITY_NYS_BCS|52=20150519-12:36:20.107|56=MAMA_NYSE|10=026|
20150519-12:36:22.677: 8=FIX.4.4|9=73|35=0|34=47|49=MAMA_NYSE|52=20150519-12:36:22.668|56=ARBv8_EQUITY_NYS_BCS|10=040|
20150519-12:37:20.108: 8=FIX.4.4|9=73|35=0|34=48|49=ARBv8_EQUITY_NYS_BCS|52=20150519-12:37:20.108|56=MAMA_NYSE|10=029|
20150519-12:37:22.669: 8=FIX.4.4|9=73|35=0|34=48|49=MAMA_NYSE|52=20150519-12:37:22.668|56=ARBv8_EQUITY_NYS_BCS|10=042|
20150519-12:38:20.108: 8=FIX.4.4|9=73|35=0|34=49|49=ARBv8_EQUITY_NYS_BCS|52=20150519-12:38:20.108|56=MAMA_NYSE|10=031|
20150519-12:38:22.670: 8=FIX.4.4|9=73|35=0|34=49|49=MAMA_NYSE|52=20150519-12:38:22.669|56=ARBv8_EQUITY_NYS_BCS|10=045|
20150519-12:39:20.108: 8=FIX.4.4|9=73|35=0|34=50|49=ARBv8_EQUITY_NYS_BCS|52=20150519-12:39:20.108|56=MAMA_NYSE|10=024|
20150519-12:39:23.669: 8=FIX.4.4|9=73|35=0|34=50|49=MAMA_NYSE|52=20150519-12:39:23.668|56=ARBv8_EQUITY_NYS_BCS|10=038|
20150519-12:40:20.108: 8=FIX.4.4|9=73|35=0|34=51|49=ARBv8_EQUITY_NYS_BCS|52=20150519-12:40:20.108|56=MAMA_NYSE|10=017|
20150519-12:40:23.671: 8=FIX.4.4|9=73|35=0|34=51|49=MAMA_NYSE|52=20150519-12:40:23.669|56=ARBv8_EQUITY_NYS_BCS|10=032|
20150519-12:41:21.107: 8=FIX.4.4|9=73|35=0|34=52|49=ARBv8_EQUITY_NYS_BCS|52=20150519-12:41:21.107|56=MAMA_NYSE|10=019|
20150519-12:41:23.670: 8=FIX.4.4|9=73|35=0|34=52|49=MAMA_NYSE|52=20150519-12:41:23.669|56=ARBv8_EQUITY_NYS_BCS|10=034|
20150519-12:42:21.108: 8=FIX.4.4|9=73|35=0|34=53|49=ARBv8_EQUITY_NYS_BCS|52=20150519-12:42:21.108|56=MAMA_NYSE|10=022|
20150519-12:42:24.671: 8=FIX.4.4|9=73|35=0|34=53|49=MAMA_NYSE|52=20150519-12:42:24.669|56=ARBv8_EQUITY_NYS_BCS|10=037|
20150519-12:43:21.108: 8=FIX.4.4|9=73|35=0|34=54|49=ARBv8_EQUITY_NYS_BCS|52=20150519-12:43:21.108|56=MAMA_NYSE|10=024|
20150519-12:43:24.670: 8=FIX.4.4|9=73|35=0|34=54|49=MAMA_NYSE|52=20150519-12:43:24.669|56=ARBv8_EQUITY_NYS_BCS|10=039|
20150519-12:44:21.108: 8=FIX.4.4|9=73|35=0|34=55|49=ARBv8_EQUITY_NYS_BCS|52=20150519-12:44:21.108|56=MAMA_NYSE|10=026|
20150519-12:44:25.669: 8=FIX.4.4|9=73|35=0|34=55|49=MAMA_NYSE|52=20150519-12:44:25.669|56=ARBv8_EQUITY_NYS_BCS|10=042|
20150519-12:45:21.108: 8=FIX.4.4|9=73|35=0|34=56|49=ARBv8_EQUITY_NYS_BCS|52=20150519-12:45:21.108|56=MAMA_NYSE|10=028|
20150519-12:45:26.670: 8=FIX.4.4|9=73|35=0|34=56|49=MAMA_NYSE|52=20150519-12:45:26.669|56=ARBv8_EQUITY_NYS_BCS|10=045|
20150519-12:45:53.619: 8=FIX.4.4|9=143|35=V|34=57|49=ARBv8_EQUITY_NYS_BCS|52=20150519-12:45:53.618|56=MAMA_NYSE|262=649bd77c5e3e4a66|263=1|264=1|146=1|55=BCH|267=3|269=0|269=1|269=5|10=152|
20150519-12:45:53.619: 8=FIX.4.4|9=143|35=V|34=58|49=ARBv8_EQUITY_NYS_BCS|52=20150519-12:45:53.619|56=MAMA_NYSE|262=52b41ce196fd4b37|263=1|264=1|146=1|55=BCA|267=3|269=0|269=1|269=5|10=134|
20150519-12:45:53.619: 8=FIX.4.4|9=144|35=V|34=59|49=ARBv8_EQUITY_NYS_BCS|52=20150519-12:45:53.619|56=MAMA_NYSE|262=703818f64ed94c8c|263=1|264=1|146=1|55=BSAC|267=3|269=0|269=1|269=5|10=186|
20150519-12:45:53.620: 8=FIX.4.4|9=144|35=V|34=60|49=ARBv8_EQUITY_NYS_BCS|52=20150519-12:45:53.620|56=MAMA_NYSE|262=-56077c728667bd96|263=1|264=1|146=1|55=CCU|267=3|269=0|269=1|269=5|10=063|
20150519-12:45:53.620: 8=FIX.4.4|9=143|35=V|34=61|49=ARBv8_EQUITY_NYS_BCS|52=20150519-12:45:53.620|56=MAMA_NYSE|262=40f83f497a434013|263=1|264=1|146=1|55=EOC|267=3|269=0|269=1|269=5|10=248|
20150519-12:45:53.625: 8=FIX.4.4|9=143|35=V|34=62|49=ARBv8_EQUITY_NYS_BCS|52=20150519-12:45:53.625|56=MAMA_NYSE|262=480e22d3abfc4bb8|263=1|264=1|146=1|55=ENI|267=3|269=0|269=1|269=5|10=236|
20150519-12:45:53.626: 8=FIX.4.4|9=179|35=W|34=57|49=MAMA_NYSE|52=20150519-12:45:53.625|56=ARBv8_EQUITY_NYS_BCS|55=BCH|262=649bd77c5e3e4a66|268=3|269=0|270=53.21|271=100|290=1|269=1|270=712.1|271=100|290=1|269=5|270=0|10=015|
20150519-12:45:53.627: 8=FIX.4.4|9=144|35=V|34=63|49=ARBv8_EQUITY_NYS_BCS|52=20150519-12:45:53.626|56=MAMA_NYSE|262=2f225772dd784f0d|263=1|264=1|146=1|55=CNCO|267=3|269=0|269=1|269=5|10=180|
20150519-12:45:53.627: 8=FIX.4.4|9=143|35=V|34=64|49=ARBv8_EQUITY_NYS_BCS|52=20150519-12:45:53.627|56=MAMA_NYSE|262=2d3e249d225047ee|263=1|264=1|146=1|55=LFL|267=3|269=0|269=1|269=5|10=105|
20150519-12:45:53.630: 8=FIX.4.4|9=178|35=W|34=58|49=MAMA_NYSE|52=20150519-12:45:53.629|56=ARBv8_EQUITY_NYS_BCS|55=BCA|262=52b41ce196fd4b37|268=3|269=0|270=14.99|271=300|290=1|269=1|270=21.5|271=700|290=1|269=5|270=0|10=224|
20150519-12:45:53.633: 8=FIX.4.4|9=178|35=W|34=59|49=MAMA_NYSE|52=20150519-12:45:53.633|56=ARBv8_EQUITY_NYS_BCS|55=BSAC|262=703818f64ed94c8c|268=3|269=0|270=20.21|271=300|290=1|269=1|270=221|271=100|290=1|269=5|270=0|10=197|
20150519-12:45:53.634: 8=FIX.4.4|9=143|35=V|34=65|49=ARBv8_EQUITY_NYS_BCS|52=20150519-12:45:53.634|56=MAMA_NYSE|262=7ba71b13b6b14cb9|263=1|264=1|146=1|55=VCO|267=3|269=0|269=1|269=5|10=200|
20150519-12:45:53.638: 8=FIX.4.4|9=177|35=W|34=60|49=MAMA_NYSE|52=20150519-12:45:53.637|56=ARBv8_EQUITY_NYS_BCS|55=CCU|262=-56077c728667bd96|268=3|269=0|270=23|271=200|290=1|269=1|270=231.7|271=100|290=1|269=5|270=0|10=044|
20150519-12:45:53.641: 8=FIX.4.4|9=146|35=V|34=66|49=ARBv8_EQUITY_NYS_BCS|52=20150519-12:45:53.641|56=MAMA_NYSE|262=-6b7e0ff878f1b3be|263=1|264=1|146=1|55=AKO/B|267=3|269=0|269=1|269=5|10=160|
20150519-12:45:53.642: 8=FIX.4.4|9=173|35=W|34=61|49=MAMA_NYSE|52=20150519-12:45:53.641|56=ARBv8_EQUITY_NYS_BCS|55=EOC|262=40f83f497a434013|268=3|269=0|270=35|271=100|290=1|269=1|270=70|271=200|290=1|269=5|270=0|10=076|
20150519-12:45:53.646: 8=FIX.4.4|9=180|35=W|34=62|49=MAMA_NYSE|52=20150519-12:45:53.645|56=ARBv8_EQUITY_NYS_BCS|55=ENI|262=480e22d3abfc4bb8|268=3|269=0|270=17.15|271=1100|290=1|269=1|270=181.6|271=100|290=1|269=5|270=0|10=152|
20150519-12:45:53.648: 8=FIX.4.4|9=172|35=W|34=63|49=MAMA_NYSE|52=20150519-12:45:53.647|56=ARBv8_EQUITY_NYS_BCS|55=CNCO|262=2f225772dd784f0d|268=3|269=0|270=0|271=0|290=1|269=1|270=8.2|271=100|290=1|269=5|270=0|10=157|
20150519-12:45:53.650: 8=FIX.4.4|9=178|35=W|34=64|49=MAMA_NYSE|52=20150519-12:45:53.649|56=ARBv8_EQUITY_NYS_BCS|55=LFL|262=2d3e249d225047ee|268=3|269=0|270=8.01|271=1000|290=1|269=1|270=13.5|271=100|290=1|269=5|270=0|10=177|
20150519-12:45:53.650: 8=FIX.4.4|9=143|35=V|34=67|49=ARBv8_EQUITY_NYS_BCS|52=20150519-12:45:53.650|56=MAMA_NYSE|262=-209f94abd85bc22|263=1|264=1|146=1|55=SQM|267=3|269=0|269=1|269=5|10=164|
20150519-12:45:53.652: 8=FIX.4.4|9=145|35=V|34=68|49=ARBv8_EQUITY_NYS_BCS|52=20150519-12:45:53.652|56=MAMA_NYSE|262=5dd98597263e4d5a|263=1|264=1|146=1|55=AKO/A|267=3|269=0|269=1|269=5|10=236|
20150519-12:45:53.657: 8=FIX.4.4|9=176|35=W|34=65|49=MAMA_NYSE|52=20150519-12:45:53.653|56=ARBv8_EQUITY_NYS_BCS|55=VCO|262=7ba71b13b6b14cb9|268=3|269=0|270=36.32|271=800|290=1|269=1|270=43|271=500|290=1|269=5|270=0|10=187|
20150519-12:45:53.660: 8=FIX.4.4|9=170|35=W|34=66|49=MAMA_NYSE|52=20150519-12:45:53.659|56=ARBv8_EQUITY_NYS_BCS|55=AKO/B|262=-6b7e0ff878f1b3be|268=3|269=0|270=0|271=0|290=1|269=1|270=0|271=0|290=1|269=5|270=0|10=194|
20150519-12:45:53.663: 8=FIX.4.4|9=179|35=W|34=67|49=MAMA_NYSE|52=20150519-12:45:53.663|56=ARBv8_EQUITY_NYS_BCS|55=SQM|262=-209f94abd85bc22|268=3|269=0|270=20.56|271=500|290=1|269=1|270=23.69|271=300|290=1|269=5|270=0|10=050|
20150519-12:45:53.666: 8=FIX.4.4|9=169|35=W|34=68|49=MAMA_NYSE|52=20150519-12:45:53.665|56=ARBv8_EQUITY_NYS_BCS|55=AKO/A|262=5dd98597263e4d5a|268=3|269=0|270=0|271=0|290=1|269=1|270=0|271=0|290=1|269=5|270=0|10=018|
20150519-12:45:57.879: 8=FIX.4.4|9=142|35=X|34=69|49=MAMA_NYSE|52=20150519-12:45:57.875|56=ARBv8_EQUITY_NYS_BCS|262=2d3e249d225047ee|268=1|279=1|269=0|55=LFL|270=9.01|271=100|290=1|10=087|
20150519-12:45:58.378: 8=FIX.4.4|9=143|35=V|34=69|49=ARBv8_EQUITY_NYS_BCS|52=20150519-12:45:58.378|56=MAMA_NYSE|262=649bd77c5e3e4a66|263=2|264=1|146=1|55=BCH|267=3|269=0|269=1|269=5|10=164|
20150519-12:45:58.379: 8=FIX.4.4|9=143|35=V|34=70|49=ARBv8_EQUITY_NYS_BCS|52=20150519-12:45:58.379|56=MAMA_NYSE|262=52b41ce196fd4b37|263=2|264=1|146=1|55=BCA|267=3|269=0|269=1|269=5|10=137|
20150519-12:45:58.379: 8=FIX.4.4|9=144|35=V|34=71|49=ARBv8_EQUITY_NYS_BCS|52=20150519-12:45:58.379|56=MAMA_NYSE|262=703818f64ed94c8c|263=2|264=1|146=1|55=BSAC|267=3|269=0|269=1|269=5|10=189|
20150519-12:45:58.381: 8=FIX.4.4|9=144|35=V|34=72|49=ARBv8_EQUITY_NYS_BCS|52=20150519-12:45:58.381|56=MAMA_NYSE|262=-56077c728667bd96|263=2|264=1|146=1|55=CCU|267=3|269=0|269=1|269=5|10=076|
20150519-12:45:58.383: 8=FIX.4.4|9=143|35=V|34=73|49=ARBv8_EQUITY_NYS_BCS|52=20150519-12:45:58.383|56=MAMA_NYSE|262=40f83f497a434013|263=2|264=1|146=1|55=EOC|267=3|269=0|269=1|269=5|10=007|
20150519-12:45:58.385: 8=FIX.4.4|9=143|35=V|34=74|49=ARBv8_EQUITY_NYS_BCS|52=20150519-12:45:58.385|56=MAMA_NYSE|262=480e22d3abfc4bb8|263=2|264=1|146=1|55=ENI|267=3|269=0|269=1|269=5|10=248|
20150519-12:45:58.387: 8=FIX.4.4|9=144|35=V|34=75|49=ARBv8_EQUITY_NYS_BCS|52=20150519-12:45:58.387|56=MAMA_NYSE|262=2f225772dd784f0d|263=2|264=1|146=1|55=CNCO|267=3|269=0|269=1|269=5|10=193|
20150519-12:45:58.389: 8=FIX.4.4|9=143|35=V|34=76|49=ARBv8_EQUITY_NYS_BCS|52=20150519-12:45:58.389|56=MAMA_NYSE|262=2d3e249d225047ee|263=2|264=1|146=1|55=LFL|267=3|269=0|269=1|269=5|10=119|
20150519-12:45:58.390: 8=FIX.4.4|9=143|35=V|34=77|49=ARBv8_EQUITY_NYS_BCS|52=20150519-12:45:58.390|56=MAMA_NYSE|262=7ba71b13b6b14cb9|263=2|264=1|146=1|55=VCO|267=3|269=0|269=1|269=5|10=208|
20150519-12:45:58.392: 8=FIX.4.4|9=146|35=V|34=78|49=ARBv8_EQUITY_NYS_BCS|52=20150519-12:45:58.392|56=MAMA_NYSE|262=-6b7e0ff878f1b3be|263=2|264=1|146=1|55=AKO/B|267=3|269=0|269=1|269=5|10=172|
20150519-12:45:58.394: 8=FIX.4.4|9=143|35=V|34=79|49=ARBv8_EQUITY_NYS_BCS|52=20150519-12:45:58.394|56=MAMA_NYSE|262=-209f94abd85bc22|263=2|264=1|146=1|55=SQM|267=3|269=0|269=1|269=5|10=178|
20150519-12:45:58.396: 8=FIX.4.4|9=145|35=V|34=80|49=ARBv8_EQUITY_NYS_BCS|52=20150519-12:45:58.396|56=MAMA_NYSE|262=5dd98597263e4d5a|263=2|264=1|146=1|55=AKO/A|267=3|269=0|269=1|269=5|10=241|
20150519-12:46:58.669: 8=FIX.4.4|9=73|35=0|34=70|49=MAMA_NYSE|52=20150519-12:46:58.669|56=ARBv8_EQUITY_NYS_BCS|10=047|
20150519-12:46:58.669: 8=FIX.4.4|9=73|35=0|34=81|49=ARBv8_EQUITY_NYS_BCS|52=20150519-12:46:58.669|56=MAMA_NYSE|10=049|
20150519-12:47:58.670: 8=FIX.4.4|9=73|35=0|34=71|49=MAMA_NYSE|52=20150519-12:47:58.669|56=ARBv8_EQUITY_NYS_BCS|10=049|
20150519-12:47:58.670: 8=FIX.4.4|9=73|35=0|34=82|49=ARBv8_EQUITY_NYS_BCS|52=20150519-12:47:58.670|56=MAMA_NYSE|10=043|
20150519-12:48:59.108: 8=FIX.4.4|9=73|35=0|34=83|49=ARBv8_EQUITY_NYS_BCS|52=20150519-12:48:59.108|56=MAMA_NYSE|10=042|
20150519-12:48:59.112: 8=FIX.4.4|9=73|35=0|34=72|49=MAMA_NYSE|52=20150519-12:48:59.111|56=ARBv8_EQUITY_NYS_BCS|10=034|
20150519-12:49:59.669: 8=FIX.4.4|9=73|35=0|34=73|49=MAMA_NYSE|52=20150519-12:49:59.669|56=ARBv8_EQUITY_NYS_BCS|10=054|
20150519-12:49:59.670: 8=FIX.4.4|9=73|35=0|34=84|49=ARBv8_EQUITY_NYS_BCS|52=20150519-12:49:59.670|56=MAMA_NYSE|10=048|
20150519-12:51:00.108: 8=FIX.4.4|9=73|35=0|34=85|49=ARBv8_EQUITY_NYS_BCS|52=20150519-12:51:00.108|56=MAMA_NYSE|10=024|
20150519-12:51:00.112: 8=FIX.4.4|9=73|35=0|34=74|49=MAMA_NYSE|52=20150519-12:51:00.111|56=ARBv8_EQUITY_NYS_BCS|10=016|
20150519-12:52:00.109: 8=FIX.4.4|9=73|35=0|34=86|49=ARBv8_EQUITY_NYS_BCS|52=20150519-12:52:00.108|56=MAMA_NYSE|10=026|
20150519-12:52:00.113: 8=FIX.4.4|9=73|35=0|34=75|49=MAMA_NYSE|52=20150519-12:52:00.111|56=ARBv8_EQUITY_NYS_BCS|10=018|
20150519-12:53:00.669: 8=FIX.4.4|9=73|35=0|34=76|49=MAMA_NYSE|52=20150519-12:53:00.669|56=ARBv8_EQUITY_NYS_BCS|10=038|
20150519-12:53:00.670: 8=FIX.4.4|9=73|35=0|34=87|49=ARBv8_EQUITY_NYS_BCS|52=20150519-12:53:00.670|56=MAMA_NYSE|10=032|
20150519-12:54:00.697: 8=FIX.4.4|9=73|35=0|34=77|49=MAMA_NYSE|52=20150519-12:54:00.669|56=ARBv8_EQUITY_NYS_BCS|10=040|
20150519-12:54:00.697: 8=FIX.4.4|9=73|35=0|34=88|49=ARBv8_EQUITY_NYS_BCS|52=20150519-12:54:00.697|56=MAMA_NYSE|10=043|
20150519-12:55:01.107: 8=FIX.4.4|9=73|35=0|34=89|49=ARBv8_EQUITY_NYS_BCS|52=20150519-12:55:01.107|56=MAMA_NYSE|10=032|
20150519-12:55:01.111: 8=FIX.4.4|9=73|35=0|34=78|49=MAMA_NYSE|52=20150519-12:55:01.110|56=ARBv8_EQUITY_NYS_BCS|10=024|
20150519-12:56:01.107: 8=FIX.4.4|9=73|35=0|34=90|49=ARBv8_EQUITY_NYS_BCS|52=20150519-12:56:01.107|56=MAMA_NYSE|10=025|
20150519-12:56:01.118: 8=FIX.4.4|9=73|35=0|34=79|49=MAMA_NYSE|52=20150519-12:56:01.111|56=ARBv8_EQUITY_NYS_BCS|10=027|
20150519-12:57:01.107: 8=FIX.4.4|9=73|35=0|34=91|49=ARBv8_EQUITY_NYS_BCS|52=20150519-12:57:01.107|56=MAMA_NYSE|10=027|
20150519-12:57:01.670: 8=FIX.4.4|9=73|35=0|34=80|49=MAMA_NYSE|52=20150519-12:57:01.669|56=ARBv8_EQUITY_NYS_BCS|10=038|
20150519-12:58:01.108: 8=FIX.4.4|9=73|35=0|34=92|49=ARBv8_EQUITY_NYS_BCS|52=20150519-12:58:01.108|56=MAMA_NYSE|10=030|
20150519-12:58:01.671: 8=FIX.4.4|9=73|35=0|34=81|49=MAMA_NYSE|52=20150519-12:58:01.669|56=ARBv8_EQUITY_NYS_BCS|10=040|
20150519-12:59:01.669: 8=FIX.4.4|9=73|35=0|34=82|49=MAMA_NYSE|52=20150519-12:59:01.669|56=ARBv8_EQUITY_NYS_BCS|10=042|
20150519-12:59:01.670: 8=FIX.4.4|9=73|35=0|34=93|49=ARBv8_EQUITY_NYS_BCS|52=20150519-12:59:01.670|56=MAMA_NYSE|10=036|
20150519-13:00:02.108: 8=FIX.4.4|9=73|35=0|34=94|49=ARBv8_EQUITY_NYS_BCS|52=20150519-13:00:02.108|56=MAMA_NYSE|10=021|
20150519-13:00:02.111: 8=FIX.4.4|9=73|35=0|34=83|49=MAMA_NYSE|52=20150519-13:00:02.111|56=ARBv8_EQUITY_NYS_BCS|10=013|
20150519-13:01:24.410: 8=FIX.4.4|9=90|35=A|34=1|49=ARBv8_EQUITY_NYS_BCS|52=20150519-13:01:24.410|56=MAMA_NYSE|98=0|108=60|141=Y|10=051|
20150519-13:01:24.486: 8=FIX.4.4|9=90|35=A|34=1|49=MAMA_NYSE|52=20150519-13:01:24.418|56=ARBv8_EQUITY_NYS_BCS|98=0|108=60|141=Y|10=059|
20150519-13:02:24.678: 8=FIX.4.4|9=72|35=0|34=2|49=MAMA_NYSE|52=20150519-13:02:24.669|56=ARBv8_EQUITY_NYS_BCS|10=235|
20150519-13:02:24.679: 8=FIX.4.4|9=72|35=0|34=2|49=ARBv8_EQUITY_NYS_BCS|52=20150519-13:02:24.679|56=MAMA_NYSE|10=236|
20150519-13:03:25.313: 8=FIX.4.4|9=72|35=0|34=3|49=ARBv8_EQUITY_NYS_BCS|52=20150519-13:03:25.312|56=MAMA_NYSE|10=223|
20150519-13:03:25.321: 8=FIX.4.4|9=72|35=0|34=3|49=MAMA_NYSE|52=20150519-13:03:25.315|56=ARBv8_EQUITY_NYS_BCS|10=226|
20150519-13:04:25.313: 8=FIX.4.4|9=72|35=0|34=4|49=ARBv8_EQUITY_NYS_BCS|52=20150519-13:04:25.313|56=MAMA_NYSE|10=226|
20150519-13:04:25.317: 8=FIX.4.4|9=72|35=0|34=4|49=MAMA_NYSE|52=20150519-13:04:25.316|56=ARBv8_EQUITY_NYS_BCS|10=229|
20150519-13:05:25.669: 8=FIX.4.4|9=72|35=0|34=5|49=MAMA_NYSE|52=20150519-13:05:25.669|56=ARBv8_EQUITY_NYS_BCS|10=242|
20150519-13:05:25.670: 8=FIX.4.4|9=72|35=0|34=5|49=ARBv8_EQUITY_NYS_BCS|52=20150519-13:05:25.670|56=MAMA_NYSE|10=234|
20150519-13:06:26.312: 8=FIX.4.4|9=72|35=0|34=6|49=ARBv8_EQUITY_NYS_BCS|52=20150519-13:06:26.312|56=MAMA_NYSE|10=230|
20150519-13:06:26.316: 8=FIX.4.4|9=72|35=0|34=6|49=MAMA_NYSE|52=20150519-13:06:26.314|56=ARBv8_EQUITY_NYS_BCS|10=232|
20150519-13:07:26.669: 8=FIX.4.4|9=72|35=0|34=7|49=MAMA_NYSE|52=20150519-13:07:26.668|56=ARBv8_EQUITY_NYS_BCS|10=246|
20150519-13:07:26.669: 8=FIX.4.4|9=72|35=0|34=7|49=ARBv8_EQUITY_NYS_BCS|52=20150519-13:07:26.669|56=MAMA_NYSE|10=247|
20150519-13:08:26.669: 8=FIX.4.4|9=72|35=0|34=8|49=MAMA_NYSE|52=20150519-13:08:26.669|56=ARBv8_EQUITY_NYS_BCS|10=249|
20150519-13:08:26.670: 8=FIX.4.4|9=72|35=0|34=8|49=ARBv8_EQUITY_NYS_BCS|52=20150519-13:08:26.670|56=MAMA_NYSE|10=241|
20150519-13:09:27.311: 8=FIX.4.4|9=72|35=0|34=9|49=ARBv8_EQUITY_NYS_BCS|52=20150519-13:09:27.311|56=MAMA_NYSE|10=236|
20150519-13:09:27.316: 8=FIX.4.4|9=72|35=0|34=9|49=MAMA_NYSE|52=20150519-13:09:27.314|56=ARBv8_EQUITY_NYS_BCS|10=239|
20150519-13:10:27.311: 8=FIX.4.4|9=73|35=0|34=10|49=ARBv8_EQUITY_NYS_BCS|52=20150519-13:10:27.311|56=MAMA_NYSE|10=013|
20150519-13:10:27.314: 8=FIX.4.4|9=73|35=0|34=10|49=MAMA_NYSE|52=20150519-13:10:27.314|56=ARBv8_EQUITY_NYS_BCS|10=016|
20150519-13:11:27.311: 8=FIX.4.4|9=73|35=0|34=11|49=ARBv8_EQUITY_NYS_BCS|52=20150519-13:11:27.311|56=MAMA_NYSE|10=015|
20150519-13:11:27.316: 8=FIX.4.4|9=73|35=0|34=11|49=MAMA_NYSE|52=20150519-13:11:27.314|56=ARBv8_EQUITY_NYS_BCS|10=018|
20150519-13:12:27.312: 8=FIX.4.4|9=73|35=0|34=12|49=ARBv8_EQUITY_NYS_BCS|52=20150519-13:12:27.312|56=MAMA_NYSE|10=018|
20150519-13:12:27.315: 8=FIX.4.4|9=73|35=0|34=12|49=MAMA_NYSE|52=20150519-13:12:27.315|56=ARBv8_EQUITY_NYS_BCS|10=021|
20150519-13:13:27.312: 8=FIX.4.4|9=73|35=0|34=13|49=ARBv8_EQUITY_NYS_BCS|52=20150519-13:13:27.312|56=MAMA_NYSE|10=020|
20150519-13:13:27.669: 8=FIX.4.4|9=73|35=0|34=13|49=MAMA_NYSE|52=20150519-13:13:27.668|56=ARBv8_EQUITY_NYS_BCS|10=034|
20150519-13:14:27.669: 8=FIX.4.4|9=73|35=0|34=14|49=MAMA_NYSE|52=20150519-13:14:27.669|56=ARBv8_EQUITY_NYS_BCS|10=037|
20150519-13:14:27.670: 8=FIX.4.4|9=73|35=0|34=14|49=ARBv8_EQUITY_NYS_BCS|52=20150519-13:14:27.670|56=MAMA_NYSE|10=029|
20150519-13:15:28.311: 8=FIX.4.4|9=73|35=0|34=15|49=ARBv8_EQUITY_NYS_BCS|52=20150519-13:15:28.311|56=MAMA_NYSE|10=024|
20150519-13:15:28.314: 8=FIX.4.4|9=73|35=0|34=15|49=MAMA_NYSE|52=20150519-13:15:28.314|56=ARBv8_EQUITY_NYS_BCS|10=027|
20150519-13:16:28.311: 8=FIX.4.4|9=73|35=0|34=16|49=ARBv8_EQUITY_NYS_BCS|52=20150519-13:16:28.311|56=MAMA_NYSE|10=026|
20150519-13:16:28.314: 8=FIX.4.4|9=73|35=0|34=16|49=MAMA_NYSE|52=20150519-13:16:28.314|56=ARBv8_EQUITY_NYS_BCS|10=029|
20150519-13:17:28.311: 8=FIX.4.4|9=73|35=0|34=17|49=ARBv8_EQUITY_NYS_BCS|52=20150519-13:17:28.311|56=MAMA_NYSE|10=028|
20150519-13:17:28.315: 8=FIX.4.4|9=73|35=0|34=17|49=MAMA_NYSE|52=20150519-13:17:28.314|56=ARBv8_EQUITY_NYS_BCS|10=031|
20150519-13:18:28.311: 8=FIX.4.4|9=73|35=0|34=18|49=ARBv8_EQUITY_NYS_BCS|52=20150519-13:18:28.311|56=MAMA_NYSE|10=030|
20150519-13:18:28.314: 8=FIX.4.4|9=73|35=0|34=18|49=MAMA_NYSE|52=20150519-13:18:28.314|56=ARBv8_EQUITY_NYS_BCS|10=033|
20150519-13:19:28.312: 8=FIX.4.4|9=73|35=0|34=19|49=ARBv8_EQUITY_NYS_BCS|52=20150519-13:19:28.312|56=MAMA_NYSE|10=033|
20150519-13:19:28.314: 8=FIX.4.4|9=73|35=0|34=19|49=MAMA_NYSE|52=20150519-13:19:28.315|56=ARBv8_EQUITY_NYS_BCS|10=036|
20150519-13:20:28.312: 8=FIX.4.4|9=73|35=0|34=20|49=ARBv8_EQUITY_NYS_BCS|52=20150519-13:20:28.312|56=MAMA_NYSE|10=017|
20150519-13:20:28.315: 8=FIX.4.4|9=73|35=0|34=20|49=MAMA_NYSE|52=20150519-13:20:28.315|56=ARBv8_EQUITY_NYS_BCS|10=020|
20150519-13:21:28.312: 8=FIX.4.4|9=73|35=0|34=21|49=ARBv8_EQUITY_NYS_BCS|52=20150519-13:21:28.312|56=MAMA_NYSE|10=019|
20150519-13:21:28.315: 8=FIX.4.4|9=73|35=0|34=21|49=MAMA_NYSE|52=20150519-13:21:28.315|56=ARBv8_EQUITY_NYS_BCS|10=022|
20150519-13:22:28.668: 8=FIX.4.4|9=73|35=0|34=22|49=MAMA_NYSE|52=20150519-13:22:28.668|56=ARBv8_EQUITY_NYS_BCS|10=035|
20150519-13:22:28.669: 8=FIX.4.4|9=73|35=0|34=22|49=ARBv8_EQUITY_NYS_BCS|52=20150519-13:22:28.669|56=MAMA_NYSE|10=036|
20150519-13:23:28.674: 8=FIX.4.4|9=73|35=0|34=23|49=MAMA_NYSE|52=20150519-13:23:28.669|56=ARBv8_EQUITY_NYS_BCS|10=038|
20150519-13:23:28.675: 8=FIX.4.4|9=73|35=0|34=23|49=ARBv8_EQUITY_NYS_BCS|52=20150519-13:23:28.675|56=MAMA_NYSE|10=035|
20150519-13:24:28.669: 8=FIX.4.4|9=73|35=0|34=24|49=MAMA_NYSE|52=20150519-13:24:28.669|56=ARBv8_EQUITY_NYS_BCS|10=040|
20150519-13:24:29.311: 8=FIX.4.4|9=73|35=0|34=24|49=ARBv8_EQUITY_NYS_BCS|52=20150519-13:24:29.311|56=MAMA_NYSE|10=025|
20150519-13:25:28.672: 8=FIX.4.4|9=73|35=0|34=25|49=MAMA_NYSE|52=20150519-13:25:28.669|56=ARBv8_EQUITY_NYS_BCS|10=042|
20150519-13:25:29.311: 8=FIX.4.4|9=73|35=0|34=25|49=ARBv8_EQUITY_NYS_BCS|52=20150519-13:25:29.311|56=MAMA_NYSE|10=027|
20150519-13:26:29.312: 8=FIX.4.4|9=73|35=0|34=26|49=ARBv8_EQUITY_NYS_BCS|52=20150519-13:26:29.312|56=MAMA_NYSE|10=030|
20150519-13:26:29.331: 8=FIX.4.4|9=73|35=0|34=26|49=MAMA_NYSE|52=20150519-13:26:29.316|56=ARBv8_EQUITY_NYS_BCS|10=034|
20150519-13:27:29.312: 8=FIX.4.4|9=73|35=0|34=27|49=ARBv8_EQUITY_NYS_BCS|52=20150519-13:27:29.312|56=MAMA_NYSE|10=032|
20150519-13:27:29.669: 8=FIX.4.4|9=73|35=0|34=27|49=MAMA_NYSE|52=20150519-13:27:29.668|56=ARBv8_EQUITY_NYS_BCS|10=046|
20150519-13:28:29.669: 8=FIX.4.4|9=73|35=0|34=28|49=MAMA_NYSE|52=20150519-13:28:29.668|56=ARBv8_EQUITY_NYS_BCS|10=048|
20150519-13:28:29.669: 8=FIX.4.4|9=73|35=0|34=28|49=ARBv8_EQUITY_NYS_BCS|52=20150519-13:28:29.669|56=MAMA_NYSE|10=049|
20150519-13:29:29.685: 8=FIX.4.4|9=73|35=0|34=29|49=MAMA_NYSE|52=20150519-13:29:29.669|56=ARBv8_EQUITY_NYS_BCS|10=051|
20150519-13:29:29.685: 8=FIX.4.4|9=73|35=0|34=29|49=ARBv8_EQUITY_NYS_BCS|52=20150519-13:29:29.685|56=MAMA_NYSE|10=049|
20150519-13:30:30.312: 8=FIX.4.4|9=73|35=0|34=30|49=ARBv8_EQUITY_NYS_BCS|52=20150519-13:30:30.312|56=MAMA_NYSE|10=012|
20150519-13:30:30.315: 8=FIX.4.4|9=73|35=0|34=30|49=MAMA_NYSE|52=20150519-13:30:30.315|56=ARBv8_EQUITY_NYS_BCS|10=015|
20150519-13:31:07.637: 8=FIX.4.4|9=144|35=V|34=31|49=ARBv8_EQUITY_NYS_BCS|52=20150519-13:31:07.637|56=MAMA_NYSE|262=-413ed8735c81be91|263=1|264=1|146=1|55=BCA|267=3|269=0|269=1|269=5|10=123|
20150519-13:31:07.641: 8=FIX.4.4|9=183|35=W|34=31|49=MAMA_NYSE|52=20150519-13:31:07.641|56=ARBv8_EQUITY_NYS_BCS|55=BCA|262=-413ed8735c81be91|268=3|269=0|270=18.3|271=100|290=1|269=1|270=18.99|271=200|290=1|269=5|270=18.67|10=159|
20150519-13:31:21.614: 8=FIX.4.4|9=144|35=X|34=32|49=MAMA_NYSE|52=20150519-13:31:21.614|56=ARBv8_EQUITY_NYS_BCS|262=-413ed8735c81be91|268=1|279=1|269=1|55=BCA|270=18.99|271=300|290=1|10=152|
20150519-13:31:21.746: 8=FIX.4.4|9=144|35=X|34=33|49=MAMA_NYSE|52=20150519-13:31:21.745|56=ARBv8_EQUITY_NYS_BCS|262=-413ed8735c81be91|268=1|279=1|269=1|55=BCA|270=18.98|271=100|290=1|10=155|
20150519-13:31:22.988: 8=FIX.4.4|9=144|35=X|34=34|49=MAMA_NYSE|52=20150519-13:31:22.989|56=ARBv8_EQUITY_NYS_BCS|262=-413ed8735c81be91|268=1|279=1|269=1|55=BCA|270=18.98|271=200|290=1|10=168|
20150519-13:31:51.491: 8=FIX.4.4|9=144|35=X|34=35|49=MAMA_NYSE|52=20150519-13:31:51.492|56=ARBv8_EQUITY_NYS_BCS|262=-413ed8735c81be91|268=1|279=1|269=1|55=BCA|270=18.99|271=200|290=1|10=161|
20150519-13:31:51.517: 8=FIX.4.4|9=144|35=X|34=36|49=MAMA_NYSE|52=20150519-13:31:51.514|56=ARBv8_EQUITY_NYS_BCS|262=-413ed8735c81be91|268=1|279=1|269=1|55=BCA|270=18.99|271=400|290=1|10=159|
20150519-13:31:52.013: 8=FIX.4.4|9=144|35=X|34=37|49=MAMA_NYSE|52=20150519-13:31:52.014|56=ARBv8_EQUITY_NYS_BCS|262=-413ed8735c81be91|268=1|279=1|269=1|55=BCA|270=18.98|271=100|290=1|10=152|
20150519-13:31:55.630: 8=FIX.4.4|9=144|35=X|34=38|49=MAMA_NYSE|52=20150519-13:31:55.630|56=ARBv8_EQUITY_NYS_BCS|262=-413ed8735c81be91|268=1|279=1|269=1|55=BCA|270=18.97|271=100|290=1|10=159|
20150519-13:31:55.630: 8=FIX.4.4|9=144|35=X|34=39|49=MAMA_NYSE|52=20150519-13:31:55.631|56=ARBv8_EQUITY_NYS_BCS|262=-413ed8735c81be91|268=1|279=1|269=1|55=BCA|270=18.97|271=200|290=1|10=162|
20150519-13:31:55.717: 8=FIX.4.4|9=144|35=X|34=40|49=MAMA_NYSE|52=20150519-13:31:55.715|56=ARBv8_EQUITY_NYS_BCS|262=-413ed8735c81be91|268=1|279=1|269=1|55=BCA|270=18.96|271=100|290=1|10=155|
20150519-13:32:08.316: 8=FIX.4.4|9=73|35=0|34=32|49=ARBv8_EQUITY_NYS_BCS|52=20150519-13:32:08.316|56=MAMA_NYSE|10=025|
20150519-13:32:30.671: 8=FIX.4.4|9=144|35=X|34=41|49=MAMA_NYSE|52=20150519-13:32:30.668|56=ARBv8_EQUITY_NYS_BCS|262=-413ed8735c81be91|268=1|279=1|269=1|55=BCA|270=18.97|271=200|290=1|10=159|
20150519-13:32:30.676: 8=FIX.4.4|9=144|35=X|34=42|49=MAMA_NYSE|52=20150519-13:32:30.676|56=ARBv8_EQUITY_NYS_BCS|262=-413ed8735c81be91|268=1|279=1|269=1|55=BCA|270=18.97|271=300|290=1|10=160|
20150519-13:32:46.964: 8=FIX.4.4|9=144|35=X|34=43|49=MAMA_NYSE|52=20150519-13:32:46.964|56=ARBv8_EQUITY_NYS_BCS|262=-413ed8735c81be91|268=1|279=1|269=0|55=BCA|270=18.31|271=500|290=1|10=157|
20150519-13:32:46.965: 8=FIX.4.4|9=144|35=X|34=44|49=MAMA_NYSE|52=20150519-13:32:46.965|56=ARBv8_EQUITY_NYS_BCS|262=-413ed8735c81be91|268=1|279=1|269=1|55=BCA|270=18.66|271=100|290=1|10=164|
20150519-13:32:46.967: 8=FIX.4.4|9=144|35=X|34=45|49=MAMA_NYSE|52=20150519-13:32:46.966|56=ARBv8_EQUITY_NYS_BCS|262=-413ed8735c81be91|268=1|279=1|269=0|55=BCA|270=18.33|271=500|290=1|10=163|
20150519-13:32:46.967: 8=FIX.4.4|9=144|35=X|34=46|49=MAMA_NYSE|52=20150519-13:32:46.967|56=ARBv8_EQUITY_NYS_BCS|262=-413ed8735c81be91|268=1|279=1|269=0|55=BCA|270=18.33|271=500|290=1|10=165|
20150519-13:32:46.969: 8=FIX.4.4|9=144|35=X|34=47|49=MAMA_NYSE|52=20150519-13:32:46.969|56=ARBv8_EQUITY_NYS_BCS|262=-413ed8735c81be91|268=1|279=1|269=1|55=BCA|270=18.65|271=100|290=1|10=170|
20150519-13:32:47.112: 8=FIX.4.4|9=144|35=X|34=48|49=MAMA_NYSE|52=20150519-13:32:47.110|56=ARBv8_EQUITY_NYS_BCS|262=-413ed8735c81be91|268=1|279=1|269=0|55=BCA|270=18.34|271=500|290=1|10=149|
20150519-13:32:47.112: 8=FIX.4.4|9=144|35=X|34=49|49=MAMA_NYSE|52=20150519-13:32:47.111|56=ARBv8_EQUITY_NYS_BCS|262=-413ed8735c81be91|268=1|279=1|269=0|55=BCA|270=18.34|271=600|290=1|10=152|
20150519-13:32:47.112: 8=FIX.4.4|9=144|35=X|34=50|49=MAMA_NYSE|52=20150519-13:32:47.112|56=ARBv8_EQUITY_NYS_BCS|262=-413ed8735c81be91|268=1|279=1|269=0|55=BCA|270=18.35|271=500|290=1|10=145|
20150519-13:32:47.112: 8=FIX.4.4|9=144|35=X|34=51|49=MAMA_NYSE|52=20150519-13:32:47.113|56=ARBv8_EQUITY_NYS_BCS|262=-413ed8735c81be91|268=1|279=1|269=0|55=BCA|270=18.36|271=500|290=1|10=148|
20150519-13:32:47.114: 8=FIX.4.4|9=144|35=X|34=52|49=MAMA_NYSE|52=20150519-13:32:47.115|56=ARBv8_EQUITY_NYS_BCS|262=-413ed8735c81be91|268=1|279=1|269=0|55=BCA|270=18.37|271=500|290=1|10=152|
20150519-13:32:47.125: 8=FIX.4.4|9=144|35=X|34=53|49=MAMA_NYSE|52=20150519-13:32:47.124|56=ARBv8_EQUITY_NYS_BCS|262=-413ed8735c81be91|268=1|279=1|269=0|55=BCA|270=18.38|271=500|290=1|10=154|
20150519-13:32:47.126: 8=FIX.4.4|9=144|35=X|34=54|49=MAMA_NYSE|52=20150519-13:32:47.125|56=ARBv8_EQUITY_NYS_BCS|262=-413ed8735c81be91|268=1|279=1|269=0|55=BCA|270=18.38|271=600|290=1|10=157|
20150519-13:32:47.126: 8=FIX.4.4|9=144|35=X|34=55|49=MAMA_NYSE|52=20150519-13:32:47.125|56=ARBv8_EQUITY_NYS_BCS|262=-413ed8735c81be91|268=1|279=1|269=0|55=BCA|270=18.39|271=500|290=1|10=158|
20150519-13:32:47.128: 8=FIX.4.4|9=143|35=X|34=56|49=MAMA_NYSE|52=20150519-13:32:47.128|56=ARBv8_EQUITY_NYS_BCS|262=-413ed8735c81be91|268=1|279=1|269=0|55=BCA|270=18.4|271=100|290=1|10=101|
20150519-13:32:47.657: 8=FIX.4.4|9=144|35=X|34=57|49=MAMA_NYSE|52=20150519-13:32:47.658|56=ARBv8_EQUITY_NYS_BCS|262=-413ed8735c81be91|268=1|279=1|269=0|55=BCA|270=18.38|271=600|290=1|10=171|
20150519-13:32:47.662: 8=FIX.4.4|9=144|35=X|34=58|49=MAMA_NYSE|52=20150519-13:32:47.659|56=ARBv8_EQUITY_NYS_BCS|262=-413ed8735c81be91|268=1|279=1|269=0|55=BCA|270=18.39|271=100|290=1|10=169|
20150519-13:32:48.974: 8=FIX.4.4|9=144|35=X|34=59|49=MAMA_NYSE|52=20150519-13:32:48.975|56=ARBv8_EQUITY_NYS_BCS|262=-413ed8735c81be91|268=1|279=1|269=0|55=BCA|270=18.39|271=200|290=1|10=173|
20150519-13:32:49.009: 8=FIX.4.4|9=144|35=X|34=60|49=MAMA_NYSE|52=20150519-13:32:49.009|56=ARBv8_EQUITY_NYS_BCS|262=-413ed8735c81be91|268=1|279=1|269=1|55=BCA|270=18.64|271=100|290=1|10=152|
20150519-13:32:50.554: 8=FIX.4.4|9=144|35=X|34=61|49=MAMA_NYSE|52=20150519-13:32:50.554|56=ARBv8_EQUITY_NYS_BCS|262=-413ed8735c81be91|268=1|279=1|269=1|55=BCA|270=18.63|271=100|290=1|10=149|
20150519-13:32:50.555: 8=FIX.4.4|9=144|35=X|34=62|49=MAMA_NYSE|52=20150519-13:32:50.555|56=ARBv8_EQUITY_NYS_BCS|262=-413ed8735c81be91|268=1|279=1|269=1|55=BCA|270=18.62|271=100|290=1|10=150|
20150519-13:32:50.556: 8=FIX.4.4|9=144|35=X|34=63|49=MAMA_NYSE|52=20150519-13:32:50.556|56=ARBv8_EQUITY_NYS_BCS|262=-413ed8735c81be91|268=1|279=1|269=1|55=BCA|270=18.61|271=100|290=1|10=151|
20150519-13:32:50.565: 8=FIX.4.4|9=144|35=X|34=64|49=MAMA_NYSE|52=20150519-13:32:50.561|56=ARBv8_EQUITY_NYS_BCS|262=-413ed8735c81be91|268=1|279=1|269=0|55=BCA|270=18.38|271=600|290=1|10=156|
20150519-13:32:50.654: 8=FIX.4.4|9=144|35=X|34=65|49=MAMA_NYSE|52=20150519-13:32:50.654|56=ARBv8_EQUITY_NYS_BCS|262=-413ed8735c81be91|268=1|279=1|269=0|55=BCA|270=18.38|271=700|290=1|10=161|
20150519-13:32:50.843: 8=FIX.4.4|9=144|35=X|34=66|49=MAMA_NYSE|52=20150519-13:32:50.843|56=ARBv8_EQUITY_NYS_BCS|262=-413ed8735c81be91|268=1|279=1|269=0|55=BCA|270=18.39|271=100|290=1|10=157|
20150519-13:32:51.884: 8=FIX.4.4|9=144|35=X|34=67|49=MAMA_NYSE|52=20150519-13:32:51.883|56=ARBv8_EQUITY_NYS_BCS|262=-413ed8735c81be91|268=1|279=1|269=0|55=BCA|270=18.39|271=200|290=1|10=164|
20150519-13:32:51.892: 8=FIX.4.4|9=144|35=X|34=68|49=MAMA_NYSE|52=20150519-13:32:51.893|56=ARBv8_EQUITY_NYS_BCS|262=-413ed8735c81be91|268=1|279=1|269=0|55=BCA|270=18.38|271=600|290=1|10=169|
20150519-13:32:51.969: 8=FIX.4.4|9=143|35=X|34=69|49=MAMA_NYSE|52=20150519-13:32:51.969|56=ARBv8_EQUITY_NYS_BCS|262=-413ed8735c81be91|268=1|279=1|269=1|55=BCA|270=18.6|271=100|290=1|10=116|
20150519-13:32:53.571: 8=FIX.4.4|9=144|35=X|34=70|49=MAMA_NYSE|52=20150519-13:32:53.569|56=ARBv8_EQUITY_NYS_BCS|262=-413ed8735c81be91|268=1|279=1|269=0|55=BCA|270=18.38|271=700|290=1|10=165|
20150519-13:32:53.571: 8=FIX.4.4|9=144|35=X|34=71|49=MAMA_NYSE|52=20150519-13:32:53.570|56=ARBv8_EQUITY_NYS_BCS|262=-413ed8735c81be91|268=1|279=1|269=0|55=BCA|270=18.38|271=800|290=1|10=159|
20150519-13:32:53.571: 8=FIX.4.4|9=144|35=X|34=72|49=MAMA_NYSE|52=20150519-13:32:53.571|56=ARBv8_EQUITY_NYS_BCS|262=-413ed8735c81be91|268=1|279=1|269=0|55=BCA|270=18.39|271=100|290=1|10=155|
20150519-13:32:54.338: 8=FIX.4.4|9=144|35=X|34=73|49=MAMA_NYSE|52=20150519-13:32:54.336|56=ARBv8_EQUITY_NYS_BCS|262=-413ed8735c81be91|268=1|279=1|269=0|55=BCA|270=18.38|271=800|290=1|10=162|
20150519-13:32:55.737: 8=FIX.4.4|9=144|35=X|34=74|49=MAMA_NYSE|52=20150519-13:32:55.737|56=ARBv8_EQUITY_NYS_BCS|262=-413ed8735c81be91|268=1|279=1|269=0|55=BCA|270=18.39|271=600|290=1|10=168|
20150519-13:32:55.739: 8=FIX.4.4|9=144|35=X|34=75|49=MAMA_NYSE|52=20150519-13:32:55.738|56=ARBv8_EQUITY_NYS_BCS|262=-413ed8735c81be91|268=1|279=1|269=0|55=BCA|270=18.39|271=600|290=1|10=170|
20150519-13:32:55.741: 8=FIX.4.4|9=143|35=X|34=76|49=MAMA_NYSE|52=20150519-13:32:55.741|56=ARBv8_EQUITY_NYS_BCS|262=-413ed8735c81be91|268=1|279=1|269=0|55=BCA|270=18.4|271=100|290=1|10=103|
20150519-13:32:55.887: 8=FIX.4.4|9=144|35=X|34=77|49=MAMA_NYSE|52=20150519-13:32:55.882|56=ARBv8_EQUITY_NYS_BCS|262=-413ed8735c81be91|268=1|279=1|269=0|55=BCA|270=18.39|271=600|290=1|10=172|
20150519-13:32:56.903: 8=FIX.4.4|9=144|35=X|34=78|49=MAMA_NYSE|52=20150519-13:32:56.903|56=ARBv8_EQUITY_NYS_BCS|262=-413ed8735c81be91|268=1|279=1|269=1|55=BCA|270=18.63|271=200|290=1|10=162|
20150519-13:32:56.904: 8=FIX.4.4|9=144|35=X|34=79|49=MAMA_NYSE|52=20150519-13:32:56.904|56=ARBv8_EQUITY_NYS_BCS|262=-413ed8735c81be91|268=1|279=1|269=1|55=BCA|270=18.62|271=400|290=1|10=165|
20150519-13:32:56.904: 8=FIX.4.4|9=144|35=X|34=80|49=MAMA_NYSE|52=20150519-13:32:56.905|56=ARBv8_EQUITY_NYS_BCS|262=-413ed8735c81be91|268=1|279=1|269=1|55=BCA|270=18.59|271=100|290=1|10=161|
20150519-13:32:56.907: 8=FIX.4.4|9=143|35=X|34=81|49=MAMA_NYSE|52=20150519-13:32:56.907|56=ARBv8_EQUITY_NYS_BCS|262=-413ed8735c81be91|268=1|279=1|269=0|55=BCA|270=18.4|271=100|290=1|10=104|
20150519-13:32:56.910: 8=FIX.4.4|9=143|35=X|34=82|49=MAMA_NYSE|52=20150519-13:32:56.911|56=ARBv8_EQUITY_NYS_BCS|262=-413ed8735c81be91|268=1|279=1|269=0|55=BCA|270=18.4|271=200|290=1|10=101|
20150519-13:33:09.312: 8=FIX.4.4|9=73|35=0|34=33|49=ARBv8_EQUITY_NYS_BCS|52=20150519-13:33:09.312|56=MAMA_NYSE|10=024|
20150519-13:33:44.082: 8=FIX.4.4|9=144|35=X|34=83|49=MAMA_NYSE|52=20150519-13:33:44.082|56=ARBv8_EQUITY_NYS_BCS|262=-413ed8735c81be91|268=1|279=1|269=0|55=BCA|270=18.39|271=500|290=1|10=159|
20150519-13:33:44.084: 8=FIX.4.4|9=144|35=X|34=84|49=MAMA_NYSE|52=20150519-13:33:44.083|56=ARBv8_EQUITY_NYS_BCS|262=-413ed8735c81be91|268=1|279=1|269=0|55=BCA|270=18.37|271=100|290=1|10=155|
20150519-13:33:44.084: 8=FIX.4.4|9=144|35=X|34=85|49=MAMA_NYSE|52=20150519-13:33:44.085|56=ARBv8_EQUITY_NYS_BCS|262=-413ed8735c81be91|268=1|279=1|269=1|55=BCA|270=18.62|271=400|290=1|10=160|
20150519-13:33:44.085: 8=FIX.4.4|9=144|35=X|34=86|49=MAMA_NYSE|52=20150519-13:33:44.085|56=ARBv8_EQUITY_NYS_BCS|262=-413ed8735c81be91|268=1|279=1|269=1|55=BCA|270=18.58|271=100|290=1|10=163|
20150519-13:33:44.086: 8=FIX.4.4|9=144|35=X|34=87|49=MAMA_NYSE|52=20150519-13:33:44.086|56=ARBv8_EQUITY_NYS_BCS|262=-413ed8735c81be91|268=1|279=1|269=0|55=BCA|270=18.39|271=500|290=1|10=167|
20150519-13:33:44.086: 8=FIX.4.4|9=144|35=X|34=88|49=MAMA_NYSE|52=20150519-13:33:44.087|56=ARBv8_EQUITY_NYS_BCS|262=-413ed8735c81be91|268=1|279=1|269=0|55=BCA|270=18.39|271=500|290=1|10=169|
20150519-13:33:44.227: 8=FIX.4.4|9=143|35=X|34=89|49=MAMA_NYSE|52=20150519-13:33:44.228|56=ARBv8_EQUITY_NYS_BCS|262=-413ed8735c81be91|268=1|279=1|269=0|55=BCA|270=18.4|271=100|290=1|10=106|
20150519-13:33:44.229: 8=FIX.4.4|9=143|35=X|34=90|49=MAMA_NYSE|52=20150519-13:33:44.229|56=ARBv8_EQUITY_NYS_BCS|262=-413ed8735c81be91|268=1|279=1|269=0|55=BCA|270=18.4|271=100|290=1|10=099|
20150519-13:33:45.576: 8=FIX.4.4|9=143|35=X|34=91|49=MAMA_NYSE|52=20150519-13:33:45.576|56=ARBv8_EQUITY_NYS_BCS|262=-413ed8735c81be91|268=1|279=1|269=0|55=BCA|270=18.4|271=200|290=1|10=107|
20150519-13:33:45.602: 8=FIX.4.4|9=144|35=X|34=92|49=MAMA_NYSE|52=20150519-13:33:45.603|56=ARBv8_EQUITY_NYS_BCS|262=-413ed8735c81be91|268=1|279=1|269=1|55=BCA|270=18.57|271=100|290=1|10=156|
20150519-13:34:10.215: 8=FIX.4.4|9=144|35=X|34=93|49=MAMA_NYSE|52=20150519-13:34:10.185|56=ARBv8_EQUITY_NYS_BCS|262=-413ed8735c81be91|268=1|279=1|269=1|55=BCA|270=18.56|271=100|290=1|10=154|
20150519-13:34:10.215: 8=FIX.4.4|9=144|35=X|34=94|49=MAMA_NYSE|52=20150519-13:34:10.186|56=ARBv8_EQUITY_NYS_BCS|262=-413ed8735c81be91|268=1|279=1|269=1|55=BCA|270=18.55|271=100|290=1|10=155|
20150519-13:34:10.216: 8=FIX.4.4|9=73|35=0|34=34|49=ARBv8_EQUITY_NYS_BCS|52=20150519-13:34:10.216|56=MAMA_NYSE|10=021|
20150519-13:34:15.187: 8=FIX.4.4|9=144|35=X|34=95|49=MAMA_NYSE|52=20150519-13:34:15.185|56=ARBv8_EQUITY_NYS_BCS|262=-413ed8735c81be91|268=1|279=1|269=1|55=BCA|270=18.56|271=100|290=1|10=161|
20150519-13:34:15.187: 8=FIX.4.4|9=144|35=X|34=96|49=MAMA_NYSE|52=20150519-13:34:15.186|56=ARBv8_EQUITY_NYS_BCS|262=-413ed8735c81be91|268=1|279=1|269=1|55=BCA|270=18.62|271=400|290=1|10=163|
20150519-13:34:15.188: 8=FIX.4.4|9=144|35=X|34=97|49=MAMA_NYSE|52=20150519-13:34:15.186|56=ARBv8_EQUITY_NYS_BCS|262=-413ed8735c81be91|268=1|279=1|269=1|55=BCA|270=18.66|271=400|290=1|10=168|
20150519-13:34:15.188: 8=FIX.4.4|9=144|35=X|34=98|49=MAMA_NYSE|52=20150519-13:34:15.187|56=ARBv8_EQUITY_NYS_BCS|262=-413ed8735c81be91|268=1|279=1|269=1|55=BCA|270=18.66|271=200|290=1|10=168|
20150519-13:34:15.189: 8=FIX.4.4|9=144|35=X|34=99|49=MAMA_NYSE|52=20150519-13:34:15.188|56=ARBv8_EQUITY_NYS_BCS|262=-413ed8735c81be91|268=1|279=1|269=1|55=BCA|270=18.66|271=100|290=1|10=169|
20150519-13:34:15.191: 8=FIX.4.4|9=145|35=X|34=100|49=MAMA_NYSE|52=20150519-13:34:15.189|56=ARBv8_EQUITY_NYS_BCS|262=-413ed8735c81be91|268=1|279=1|269=1|55=BCA|270=18.65|271=500|290=1|10=205|
20150519-13:34:15.193: 8=FIX.4.4|9=145|35=X|34=101|49=MAMA_NYSE|52=20150519-13:34:15.190|56=ARBv8_EQUITY_NYS_BCS|262=-413ed8735c81be91|268=1|279=1|269=1|55=BCA|270=18.56|271=100|290=1|10=194|
20150519-13:34:15.331: 8=FIX.4.4|9=145|35=X|34=102|49=MAMA_NYSE|52=20150519-13:34:15.332|56=ARBv8_EQUITY_NYS_BCS|262=-413ed8735c81be91|268=1|279=1|269=1|55=BCA|270=18.55|271=100|290=1|10=192|
20150519-13:34:27.101: 8=FIX.4.4|9=145|35=X|34=103|49=MAMA_NYSE|52=20150519-13:34:27.094|56=ARBv8_EQUITY_NYS_BCS|262=-413ed8735c81be91|268=1|279=1|269=1|55=BCA|270=18.54|271=100|290=1|10=200|
20150519-13:34:42.578: 8=FIX.4.4|9=145|35=X|34=104|49=MAMA_NYSE|52=20150519-13:34:42.578|56=ARBv8_EQUITY_NYS_BCS|262=-413ed8735c81be91|268=1|279=1|269=0|55=BCA|270=18.39|271=500|290=1|10=211|
20150519-13:34:42.596: 8=FIX.4.4|9=145|35=X|34=105|49=MAMA_NYSE|52=20150519-13:34:42.597|56=ARBv8_EQUITY_NYS_BCS|262=-413ed8735c81be91|268=1|279=1|269=0|55=BCA|270=18.39|271=600|290=1|10=214|
20150519-13:34:46.235: 8=FIX.4.4|9=144|35=X|34=106|49=MAMA_NYSE|52=20150519-13:34:46.233|56=ARBv8_EQUITY_NYS_BCS|262=-413ed8735c81be91|268=1|279=1|269=0|55=BCA|270=18.4|271=100|290=1|10=144|
20150519-13:34:46.236: 8=FIX.4.4|9=145|35=X|34=107|49=MAMA_NYSE|52=20150519-13:34:46.235|56=ARBv8_EQUITY_NYS_BCS|262=-413ed8735c81be91|268=1|279=1|269=1|55=BCA|270=18.55|271=100|290=1|10=203|
20150519-13:34:47.409: 8=FIX.4.4|9=145|35=X|34=108|49=MAMA_NYSE|52=20150519-13:34:47.409|56=ARBv8_EQUITY_NYS_BCS|262=-413ed8735c81be91|268=1|279=1|269=0|55=BCA|270=18.39|271=600|290=1|10=214|
20150519-13:34:49.081: 8=FIX.4.4|9=144|35=X|34=109|49=MAMA_NYSE|52=20150519-13:34:49.081|56=ARBv8_EQUITY_NYS_BCS|262=-413ed8735c81be91|268=1|279=1|269=0|55=BCA|270=18.4|271=100|290=1|10=151|
20150519-13:34:49.086: 8=FIX.4.4|9=145|35=X|34=110|49=MAMA_NYSE|52=20150519-13:34:49.087|56=ARBv8_EQUITY_NYS_BCS|262=-413ed8735c81be91|268=1|279=1|269=0|55=BCA|270=18.39|271=600|290=1|10=211|
20150519-13:34:49.087: 8=FIX.4.4|9=145|35=X|34=111|49=MAMA_NYSE|52=20150519-13:34:49.088|56=ARBv8_EQUITY_NYS_BCS|262=-413ed8735c81be91|268=1|279=1|269=0|55=BCA|270=18.39|271=500|290=1|10=212|
20150519-13:34:49.095: 8=FIX.4.4|9=144|35=X|34=112|49=MAMA_NYSE|52=20150519-13:34:49.092|56=ARBv8_EQUITY_NYS_BCS|262=-413ed8735c81be91|268=1|279=1|269=0|55=BCA|270=18.4|271=100|290=1|10=147|
20150519-13:34:49.224: 8=FIX.4.4|9=144|35=X|34=113|49=MAMA_NYSE|52=20150519-13:34:49.224|56=ARBv8_EQUITY_NYS_BCS|262=-413ed8735c81be91|268=1|279=1|269=0|55=BCA|270=18.4|271=200|290=1|10=146|
20150519-13:35:04.083: 8=FIX.4.4|9=144|35=X|34=114|49=MAMA_NYSE|52=20150519-13:35:04.082|56=ARBv8_EQUITY_NYS_BCS|262=-413ed8735c81be91|268=1|279=1|269=0|55=BCA|270=18.4|271=300|290=1|10=142|
20150519-13:35:04.084: 8=FIX.4.4|9=145|35=X|34=115|49=MAMA_NYSE|52=20150519-13:35:04.085|56=ARBv8_EQUITY_NYS_BCS|262=-413ed8735c81be91|268=1|279=1|269=0|55=BCA|270=18.41|271=100|290=1|10=194|
20150519-13:35:04.229: 8=FIX.4.4|9=145|35=X|34=116|49=MAMA_NYSE|52=20150519-13:35:04.230|56=ARBv8_EQUITY_NYS_BCS|262=-413ed8735c81be91|268=1|279=1|269=0|55=BCA|270=18.41|271=200|290=1|10=188|
20150519-13:35:04.231: 8=FIX.4.4|9=145|35=X|34=117|49=MAMA_NYSE|52=20150519-13:35:04.231|56=ARBv8_EQUITY_NYS_BCS|262=-413ed8735c81be91|268=1|279=1|269=0|55=BCA|270=18.41|271=300|290=1|10=191|
20150519-13:35:04.232: 8=FIX.4.4|9=145|35=X|34=118|49=MAMA_NYSE|52=20150519-13:35:04.233|56=ARBv8_EQUITY_NYS_BCS|262=-413ed8735c81be91|268=1|279=1|269=0|55=BCA|270=18.42|271=100|290=1|10=193|
20150519-13:35:04.233: 8=FIX.4.4|9=145|35=X|34=119|49=MAMA_NYSE|52=20150519-13:35:04.233|56=ARBv8_EQUITY_NYS_BCS|262=-413ed8735c81be91|268=1|279=1|269=0|55=BCA|270=18.42|271=300|290=1|10=196|
20150519-13:35:05.409: 8=FIX.4.4|9=145|35=X|34=120|49=MAMA_NYSE|52=20150519-13:35:05.410|56=ARBv8_EQUITY_NYS_BCS|262=-413ed8735c81be91|268=1|279=1|269=0|55=BCA|270=18.43|271=100|290=1|10=185|
20150519-13:35:05.419: 8=FIX.4.4|9=145|35=X|34=121|49=MAMA_NYSE|52=20150519-13:35:05.413|56=ARBv8_EQUITY_NYS_BCS|262=-413ed8735c81be91|268=1|279=1|269=0|55=BCA|270=18.43|271=300|290=1|10=191|
20150519-13:35:06.101: 8=FIX.4.4|9=145|35=X|34=122|49=MAMA_NYSE|52=20150519-13:35:06.095|56=ARBv8_EQUITY_NYS_BCS|262=-413ed8735c81be91|268=1|279=1|269=0|55=BCA|270=18.44|271=100|290=1|10=198|
20150519-13:35:06.101: 8=FIX.4.4|9=145|35=X|34=123|49=MAMA_NYSE|52=20150519-13:35:06.097|56=ARBv8_EQUITY_NYS_BCS|262=-413ed8735c81be91|268=1|279=1|269=0|55=BCA|270=18.44|271=300|290=1|10=203|
20150519-13:35:06.729: 8=FIX.4.4|9=145|35=X|34=124|49=MAMA_NYSE|52=20150519-13:35:06.730|56=ARBv8_EQUITY_NYS_BCS|262=-413ed8735c81be91|268=1|279=1|269=0|55=BCA|270=18.45|271=100|290=1|10=197|
20150519-13:35:07.519: 8=FIX.4.4|9=145|35=X|34=125|49=MAMA_NYSE|52=20150519-13:35:07.520|56=ARBv8_EQUITY_NYS_BCS|262=-413ed8735c81be91|268=1|279=1|269=0|55=BCA|270=18.45|271=300|290=1|10=198|
20150519-13:35:10.312: 8=FIX.4.4|9=73|35=0|34=35|49=ARBv8_EQUITY_NYS_BCS|52=20150519-13:35:10.312|56=MAMA_NYSE|10=020|
20150519-13:35:15.904: 8=FIX.4.4|9=145|35=X|34=126|49=MAMA_NYSE|52=20150519-13:35:15.904|56=ARBv8_EQUITY_NYS_BCS|262=-413ed8735c81be91|268=1|279=1|269=0|55=BCA|270=18.45|271=100|290=1|10=202|
20150519-13:35:15.906: 8=FIX.4.4|9=145|35=X|34=127|49=MAMA_NYSE|52=20150519-13:35:15.906|56=ARBv8_EQUITY_NYS_BCS|262=-413ed8735c81be91|268=1|279=1|269=0|55=BCA|270=18.39|271=500|290=1|10=212|
20150519-13:35:15.907: 8=FIX.4.4|9=145|35=X|34=128|49=MAMA_NYSE|52=20150519-13:35:15.907|56=ARBv8_EQUITY_NYS_BCS|262=-413ed8735c81be91|268=1|279=1|269=0|55=BCA|270=18.33|271=100|290=1|10=204|
20150519-13:35:15.907: 8=FIX.4.4|9=145|35=X|34=129|49=MAMA_NYSE|52=20150519-13:35:15.908|56=ARBv8_EQUITY_NYS_BCS|262=-413ed8735c81be91|268=1|279=1|269=0|55=BCA|270=18.37|271=500|290=1|10=214|
20150519-13:35:15.910: 8=FIX.4.4|9=145|35=X|34=130|49=MAMA_NYSE|52=20150519-13:35:15.909|56=ARBv8_EQUITY_NYS_BCS|262=-413ed8735c81be91|268=1|279=1|269=0|55=BCA|270=18.39|271=500|290=1|10=209|
20150519-13:35:15.910: 8=FIX.4.4|9=144|35=X|34=131|49=MAMA_NYSE|52=20150519-13:35:15.910|56=ARBv8_EQUITY_NYS_BCS|262=-413ed8735c81be91|268=1|279=1|269=0|55=BCA|270=18.4|271=100|290=1|10=141|
20150519-13:35:15.929: 8=FIX.4.4|9=144|35=X|34=132|49=MAMA_NYSE|52=20150519-13:35:15.928|56=ARBv8_EQUITY_NYS_BCS|262=-413ed8735c81be91|268=1|279=1|269=0|55=BCA|270=18.4|271=200|290=1|10=152|
20150519-13:35:16.049: 8=FIX.4.4|9=144|35=X|34=133|49=MAMA_NYSE|52=20150519-13:35:16.050|56=ARBv8_EQUITY_NYS_BCS|262=-413ed8735c81be91|268=1|279=1|269=0|55=BCA|270=18.4|271=300|290=1|10=141|
20150519-13:35:16.054: 8=FIX.4.4|9=145|35=X|34=134|49=MAMA_NYSE|52=20150519-13:35:16.051|56=ARBv8_EQUITY_NYS_BCS|262=-413ed8735c81be91|268=1|279=1|269=0|55=BCA|270=18.41|271=100|290=1|10=191|
20150519-13:35:16.069: 8=FIX.4.4|9=145|35=X|34=135|49=MAMA_NYSE|52=20150519-13:35:16.052|56=ARBv8_EQUITY_NYS_BCS|262=-413ed8735c81be91|268=1|279=1|269=0|55=BCA|270=18.42|271=100|290=1|10=194|
20150519-13:35:16.069: 8=FIX.4.4|9=145|35=X|34=136|49=MAMA_NYSE|52=20150519-13:35:16.053|56=ARBv8_EQUITY_NYS_BCS|262=-413ed8735c81be91|268=1|279=1|269=0|55=BCA|270=18.42|271=300|290=1|10=198|
20150519-13:35:17.510: 8=FIX.4.4|9=145|35=X|34=137|49=MAMA_NYSE|52=20150519-13:35:17.510|56=ARBv8_EQUITY_NYS_BCS|262=-413ed8735c81be91|268=1|279=1|269=0|55=BCA|270=18.43|271=100|290=1|10=197|
20150519-13:35:17.513: 8=FIX.4.4|9=145|35=X|34=138|49=MAMA_NYSE|52=20150519-13:35:17.512|56=ARBv8_EQUITY_NYS_BCS|262=-413ed8735c81be91|268=1|279=1|269=0|55=BCA|270=18.43|271=300|290=1|10=202|
20150519-13:35:18.685: 8=FIX.4.4|9=145|35=X|34=139|49=MAMA_NYSE|52=20150519-13:35:18.685|56=ARBv8_EQUITY_NYS_BCS|262=-413ed8735c81be91|268=1|279=1|269=0|55=BCA|270=18.44|271=100|290=1|10=214|
20150519-13:35:18.692: 8=FIX.4.4|9=145|35=X|34=140|49=MAMA_NYSE|52=20150519-13:35:18.689|56=ARBv8_EQUITY_NYS_BCS|262=-413ed8735c81be91|268=1|279=1|269=0|55=BCA|270=18.44|271=300|290=1|10=212|
20150519-13:35:19.633: 8=FIX.4.4|9=145|35=X|34=141|49=MAMA_NYSE|52=20150519-13:35:19.634|56=ARBv8_EQUITY_NYS_BCS|262=-413ed8735c81be91|268=1|279=1|269=0|55=BCA|270=18.45|271=100|290=1|10=203|
20150519-13:35:19.804: 8=FIX.4.4|9=145|35=X|34=142|49=MAMA_NYSE|52=20150519-13:35:19.804|56=ARBv8_EQUITY_NYS_BCS|262=-413ed8735c81be91|268=1|279=1|269=0|55=BCA|270=18.44|271=300|290=1|10=204|
20150519-13:35:21.325: 8=FIX.4.4|9=145|35=X|34=143|49=MAMA_NYSE|52=20150519-13:35:21.326|56=ARBv8_EQUITY_NYS_BCS|262=-413ed8735c81be91|268=1|279=1|269=0|55=BCA|270=18.45|271=100|290=1|10=196|
20150519-13:35:23.602: 8=FIX.4.4|9=145|35=X|34=144|49=MAMA_NYSE|52=20150519-13:35:23.602|56=ARBv8_EQUITY_NYS_BCS|262=-413ed8735c81be91|268=1|279=1|269=0|55=BCA|270=18.44|271=300|290=1|10=197|
20150519-13:35:23.637: 8=FIX.4.4|9=145|35=X|34=145|49=MAMA_NYSE|52=20150519-13:35:23.636|56=ARBv8_EQUITY_NYS_BCS|262=-413ed8735c81be91|268=1|279=1|269=0|55=BCA|270=18.45|271=100|290=1|10=204|
20150519-13:35:23.637: 8=FIX.4.4|9=145|35=X|34=146|49=MAMA_NYSE|52=20150519-13:35:23.638|56=ARBv8_EQUITY_NYS_BCS|262=-413ed8735c81be91|268=1|279=1|269=0|55=BCA|270=18.45|271=300|290=1|10=209|
20150519-13:35:24.788: 8=FIX.4.4|9=145|35=X|34=147|49=MAMA_NYSE|52=20150519-13:35:24.788|56=ARBv8_EQUITY_NYS_BCS|262=-413ed8735c81be91|268=1|279=1|269=0|55=BCA|270=18.45|271=100|290=1|10=215|
20150519-13:35:24.793: 8=FIX.4.4|9=145|35=X|34=148|49=MAMA_NYSE|52=20150519-13:35:24.790|56=ARBv8_EQUITY_NYS_BCS|262=-413ed8735c81be91|268=1|279=1|269=1|55=BCA|270=18.55|271=300|290=1|10=213|
20150519-13:35:24.794: 8=FIX.4.4|9=144|35=X|34=149|49=MAMA_NYSE|52=20150519-13:35:24.790|56=ARBv8_EQUITY_NYS_BCS|262=-413ed8735c81be91|268=1|279=1|269=0|55=BCA|270=18.4|271=100|290=1|10=156|
20150519-13:35:24.794: 8=FIX.4.4|9=145|35=X|34=150|49=MAMA_NYSE|52=20150519-13:35:24.792|56=ARBv8_EQUITY_NYS_BCS|262=-413ed8735c81be91|268=1|279=1|269=0|55=BCA|270=18.39|271=400|290=1|10=210|
20150519-13:35:24.794: 8=FIX.4.4|9=145|35=X|34=151|49=MAMA_NYSE|52=20150519-13:35:24.793|56=ARBv8_EQUITY_NYS_BCS|262=-413ed8735c81be91|268=1|279=1|269=0|55=BCA|270=18.33|271=100|290=1|10=203|
20150519-13:35:24.794: 8=FIX.4.4|9=145|35=X|34=152|49=MAMA_NYSE|52=20150519-13:35:24.794|56=ARBv8_EQUITY_NYS_BCS|262=-413ed8735c81be91|268=1|279=1|269=0|55=BCA|270=18.37|271=500|290=1|10=213|
20150519-13:35:24.945: 8=FIX.4.4|9=145|35=X|34=153|49=MAMA_NYSE|52=20150519-13:35:24.934|56=ARBv8_EQUITY_NYS_BCS|262=-413ed8735c81be91|268=1|279=1|269=0|55=BCA|270=18.39|271=100|290=1|10=208|
20150519-13:35:24.945: 8=FIX.4.4|9=145|35=X|34=154|49=MAMA_NYSE|52=20150519-13:35:24.934|56=ARBv8_EQUITY_NYS_BCS|262=-413ed8735c81be91|268=1|279=1|269=0|55=BCA|270=18.39|271=500|290=1|10=213|
20150519-13:35:24.946: 8=FIX.4.4|9=144|35=X|34=155|49=MAMA_NYSE|52=20150519-13:35:24.935|56=ARBv8_EQUITY_NYS_BCS|262=-413ed8735c81be91|268=1|279=1|269=0|55=BCA|270=18.4|271=100|290=1|10=154|
20150519-13:35:24.946: 8=FIX.4.4|9=144|35=X|34=156|49=MAMA_NYSE|52=20150519-13:35:24.936|56=ARBv8_EQUITY_NYS_BCS|262=-413ed8735c81be91|268=1|279=1|269=0|55=BCA|270=18.4|271=200|290=1|10=157|
20150519-13:35:24.947: 8=FIX.4.4|9=144|35=X|34=157|49=MAMA_NYSE|52=20150519-13:35:24.937|56=ARBv8_EQUITY_NYS_BCS|262=-413ed8735c81be91|268=1|279=1|269=0|55=BCA|270=18.4|271=300|290=1|10=160|
20150519-13:35:24.947: 8=FIX.4.4|9=145|35=X|34=158|49=MAMA_NYSE|52=20150519-13:35:24.938|56=ARBv8_EQUITY_NYS_BCS|262=-413ed8735c81be91|268=1|279=1|269=0|55=BCA|270=18.41|271=100|290=1|10=210|
20150519-13:35:24.947: 8=FIX.4.4|9=145|35=X|34=159|49=MAMA_NYSE|52=20150519-13:35:24.938|56=ARBv8_EQUITY_NYS_BCS|262=-413ed8735c81be91|268=1|279=1|269=0|55=BCA|270=18.41|271=300|290=1|10=213|
20150519-13:35:24.947: 8=FIX.4.4|9=145|35=X|34=160|49=MAMA_NYSE|52=20150519-13:35:24.942|56=ARBv8_EQUITY_NYS_BCS|262=-413ed8735c81be91|268=1|279=1|269=1|55=BCA|270=18.55|271=100|290=1|10=204|
20150519-13:35:25.108: 8=FIX.4.4|9=145|35=X|34=161|49=MAMA_NYSE|52=20150519-13:35:25.104|56=ARBv8_EQUITY_NYS_BCS|262=-413ed8735c81be91|268=1|279=1|269=0|55=BCA|270=18.41|271=400|290=1|10=193|
20150519-13:35:25.108: 8=FIX.4.4|9=145|35=X|34=162|49=MAMA_NYSE|52=20150519-13:35:25.107|56=ARBv8_EQUITY_NYS_BCS|262=-413ed8735c81be91|268=1|279=1|269=0|55=BCA|270=18.42|271=100|290=1|10=195|
20150519-13:35:25.109: 8=FIX.4.4|9=145|35=X|34=163|49=MAMA_NYSE|52=20150519-13:35:25.109|56=ARBv8_EQUITY_NYS_BCS|262=-413ed8735c81be91|268=1|279=1|269=0|55=BCA|270=18.42|271=300|290=1|10=200|
20150519-13:35:27.012: 8=FIX.4.4|9=145|35=X|34=164|49=MAMA_NYSE|52=20150519-13:35:27.013|56=ARBv8_EQUITY_NYS_BCS|262=-413ed8735c81be91|268=1|279=1|269=0|55=BCA|270=18.43|271=100|290=1|10=196|
20150519-13:35:27.015: 8=FIX.4.4|9=145|35=X|34=165|49=MAMA_NYSE|52=20150519-13:35:27.015|56=ARBv8_EQUITY_NYS_BCS|262=-413ed8735c81be91|268=1|279=1|269=0|55=BCA|270=18.43|271=300|290=1|10=201|
20150519-13:35:46.044: 8=FIX.4.4|9=145|35=X|34=166|49=MAMA_NYSE|52=20150519-13:35:46.044|56=ARBv8_EQUITY_NYS_BCS|262=-413ed8735c81be91|268=1|279=1|269=1|55=BCA|270=18.55|271=400|290=1|10=210|
20150519-13:35:47.206: 8=FIX.4.4|9=145|35=X|34=167|49=MAMA_NYSE|52=20150519-13:35:47.204|56=ARBv8_EQUITY_NYS_BCS|262=-413ed8735c81be91|268=1|279=1|269=1|55=BCA|270=18.55|271=100|290=1|10=207|
20150519-13:35:48.297: 8=FIX.4.4|9=145|35=X|34=168|49=MAMA_NYSE|52=20150519-13:35:48.295|56=ARBv8_EQUITY_NYS_BCS|262=-413ed8735c81be91|268=1|279=1|269=1|55=BCA|270=18.55|271=400|290=1|10=222|
20150519-13:36:10.225: 8=FIX.4.4|9=145|35=X|34=169|49=MAMA_NYSE|52=20150519-13:36:10.221|56=ARBv8_EQUITY_NYS_BCS|262=-413ed8735c81be91|268=1|279=1|269=1|55=BCA|270=18.55|271=300|290=1|10=201|
20150519-13:36:10.312: 8=FIX.4.4|9=73|35=0|34=36|49=ARBv8_EQUITY_NYS_BCS|52=20150519-13:36:10.312|56=MAMA_NYSE|10=022|
20150519-13:36:24.934: 8=FIX.4.4|9=145|35=X|34=170|49=MAMA_NYSE|52=20150519-13:36:24.931|56=ARBv8_EQUITY_NYS_BCS|262=-413ed8735c81be91|268=1|279=1|269=1|55=BCA|270=18.55|271=100|290=1|10=204|
20150519-13:36:24.934: 8=FIX.4.4|9=145|35=X|34=171|49=MAMA_NYSE|52=20150519-13:36:24.932|56=ARBv8_EQUITY_NYS_BCS|262=-413ed8735c81be91|268=1|279=1|269=0|55=BCA|270=18.43|271=400|290=1|10=205|
20150519-13:36:41.131: 8=FIX.4.4|9=145|35=X|34=172|49=MAMA_NYSE|52=20150519-13:36:41.131|56=ARBv8_EQUITY_NYS_BCS|262=-413ed8735c81be91|268=1|279=1|269=1|55=BCA|270=18.55|271=200|290=1|10=198|
20150519-13:36:46.600: 8=FIX.4.4|9=145|35=X|34=173|49=MAMA_NYSE|52=20150519-13:36:46.601|56=ARBv8_EQUITY_NYS_BCS|262=-413ed8735c81be91|268=1|279=1|269=1|55=BCA|270=18.55|271=300|290=1|10=207|
20150519-13:36:51.935: 8=FIX.4.4|9=145|35=X|34=174|49=MAMA_NYSE|52=20150519-13:36:51.936|56=ARBv8_EQUITY_NYS_BCS|262=-413ed8735c81be91|268=1|279=1|269=1|55=BCA|270=18.55|271=200|290=1|10=214|
20150519-13:36:52.185: 8=FIX.4.4|9=145|35=X|34=175|49=MAMA_NYSE|52=20150519-13:36:52.185|56=ARBv8_EQUITY_NYS_BCS|262=-413ed8735c81be91|268=1|279=1|269=1|55=BCA|270=18.55|271=300|290=1|10=213|
20150519-13:37:04.430: 8=FIX.4.4|9=145|35=X|34=176|49=MAMA_NYSE|52=20150519-13:37:04.431|56=ARBv8_EQUITY_NYS_BCS|262=-413ed8735c81be91|268=1|279=1|269=0|55=BCA|270=18.43|271=300|290=1|10=202|
20150519-13:37:11.311: 8=FIX.4.4|9=73|35=0|34=37|49=ARBv8_EQUITY_NYS_BCS|52=20150519-13:37:11.311|56=MAMA_NYSE|10=024|
20150519-13:37:20.586: 8=FIX.4.4|9=145|35=X|34=177|49=MAMA_NYSE|52=20150519-13:37:20.586|56=ARBv8_EQUITY_NYS_BCS|262=-413ed8735c81be91|268=1|279=1|269=0|55=BCA|270=18.43|271=400|290=1|10=213|
20150519-13:37:24.023: 8=FIX.4.4|9=145|35=X|34=178|49=MAMA_NYSE|52=20150519-13:37:24.023|56=ARBv8_EQUITY_NYS_BCS|262=-413ed8735c81be91|268=1|279=1|269=1|55=BCA|270=18.55|271=100|290=1|10=205|
20150519-13:37:24.885: 8=FIX.4.4|9=145|35=X|34=179|49=MAMA_NYSE|52=20150519-13:37:24.883|56=ARBv8_EQUITY_NYS_BCS|262=-413ed8735c81be91|268=1|279=1|269=0|55=BCA|270=18.44|271=100|290=1|10=217|
20150519-13:37:24.900: 8=FIX.4.4|9=145|35=X|34=180|49=MAMA_NYSE|52=20150519-13:37:24.888|56=ARBv8_EQUITY_NYS_BCS|262=-413ed8735c81be91|268=1|279=1|269=0|55=BCA|270=18.44|271=400|290=1|10=217|
20150519-13:37:26.322: 8=FIX.4.4|9=145|35=X|34=181|49=MAMA_NYSE|52=20150519-13:37:26.322|56=ARBv8_EQUITY_NYS_BCS|262=-413ed8735c81be91|268=1|279=1|269=1|55=BCA|270=18.55|271=300|290=1|10=205|
20150519-13:37:26.323: 8=FIX.4.4|9=145|35=X|34=182|49=MAMA_NYSE|52=20150519-13:37:26.324|56=ARBv8_EQUITY_NYS_BCS|262=-413ed8735c81be91|268=1|279=1|269=0|55=BCA|270=18.44|271=300|290=1|10=205|
20150519-13:37:26.324: 8=FIX.4.4|9=145|35=X|34=183|49=MAMA_NYSE|52=20150519-13:37:26.324|56=ARBv8_EQUITY_NYS_BCS|262=-413ed8735c81be91|268=1|279=1|269=1|55=BCA|270=18.54|271=100|290=1|10=206|
20150519-13:37:34.091: 8=FIX.4.4|9=145|35=X|34=184|49=MAMA_NYSE|52=20150519-13:37:34.091|56=ARBv8_EQUITY_NYS_BCS|262=-413ed8735c81be91|268=1|279=1|269=0|55=BCA|270=18.44|271=400|290=1|10=208|
20150519-13:37:38.748: 8=FIX.4.4|9=145|35=X|34=185|49=MAMA_NYSE|52=20150519-13:37:38.749|56=ARBv8_EQUITY_NYS_BCS|262=-413ed8735c81be91|268=1|279=1|269=0|55=BCA|270=18.44|271=300|290=1|10=222|
20150519-13:37:44.096: 8=FIX.4.4|9=145|35=X|34=186|49=MAMA_NYSE|52=20150519-13:37:44.093|56=ARBv8_EQUITY_NYS_BCS|262=-413ed8735c81be91|268=1|279=1|269=0|55=BCA|270=18.44|271=400|290=1|10=213|
20150519-13:37:44.756: 8=FIX.4.4|9=145|35=X|34=187|49=MAMA_NYSE|52=20150519-13:37:44.757|56=ARBv8_EQUITY_NYS_BCS|262=-413ed8735c81be91|268=1|279=1|269=0|55=BCA|270=18.44|271=300|290=1|10=220|
20150519-13:37:55.982: 8=FIX.4.4|9=145|35=X|34=188|49=MAMA_NYSE|52=20150519-13:37:55.978|56=ARBv8_EQUITY_NYS_BCS|262=-413ed8735c81be91|268=1|279=1|269=0|55=BCA|270=18.45|271=100|290=1|10=227|
20150519-13:37:55.982: 8=FIX.4.4|9=145|35=X|34=189|49=MAMA_NYSE|52=20150519-13:37:55.981|56=ARBv8_EQUITY_NYS_BCS|262=-413ed8735c81be91|268=1|279=1|269=1|55=BCA|270=18.55|271=100|290=1|10=224|
20150519-13:37:55.982: 8=FIX.4.4|9=145|35=X|34=190|49=MAMA_NYSE|52=20150519-13:37:55.983|56=ARBv8_EQUITY_NYS_BCS|262=-413ed8735c81be91|268=1|279=1|269=0|55=BCA|270=18.45|271=400|290=1|10=219|
20150519-13:37:55.986: 8=FIX.4.4|9=145|35=X|34=191|49=MAMA_NYSE|52=20150519-13:37:55.987|56=ARBv8_EQUITY_NYS_BCS|262=-413ed8735c81be91|268=1|279=1|269=1|55=BCA|270=18.55|271=300|290=1|10=225|
20150519-13:38:00.256: 8=FIX.4.4|9=145|35=X|34=192|49=MAMA_NYSE|52=20150519-13:38:00.256|56=ARBv8_EQUITY_NYS_BCS|262=-413ed8735c81be91|268=1|279=1|269=1|55=BCA|270=18.54|271=100|290=1|10=203|
20150519-13:38:00.256: 8=FIX.4.4|9=145|35=X|34=193|49=MAMA_NYSE|52=20150519-13:38:00.257|56=ARBv8_EQUITY_NYS_BCS|262=-413ed8735c81be91|268=1|279=1|269=0|55=BCA|270=18.46|271=100|290=1|10=205|
20150519-13:38:00.257: 8=FIX.4.4|9=145|35=X|34=194|49=MAMA_NYSE|52=20150519-13:38:00.258|56=ARBv8_EQUITY_NYS_BCS|262=-413ed8735c81be91|268=1|279=1|269=1|55=BCA|270=18.55|271=300|290=1|10=210|
20150519-13:38:00.258: 8=FIX.4.4|9=145|35=X|34=195|49=MAMA_NYSE|52=20150519-13:38:00.259|56=ARBv8_EQUITY_NYS_BCS|262=-413ed8735c81be91|268=1|279=1|269=0|55=BCA|270=18.45|271=400|290=1|10=211|
20150519-13:38:00.258: 8=FIX.4.4|9=145|35=X|34=196|49=MAMA_NYSE|52=20150519-13:38:00.259|56=ARBv8_EQUITY_NYS_BCS|262=-413ed8735c81be91|268=1|279=1|269=0|55=BCA|270=18.46|271=100|290=1|10=210|
20150519-13:38:00.626: 8=FIX.4.4|9=145|35=X|34=197|49=MAMA_NYSE|52=20150519-13:38:00.626|56=ARBv8_EQUITY_NYS_BCS|262=-413ed8735c81be91|268=1|279=1|269=0|55=BCA|270=18.45|271=400|290=1|10=211|
20150519-13:38:00.988: 8=FIX.4.4|9=145|35=X|34=198|49=MAMA_NYSE|52=20150519-13:38:00.988|56=ARBv8_EQUITY_NYS_BCS|262=-413ed8735c81be91|268=1|279=1|269=1|55=BCA|270=18.55|271=100|290=1|10=222|
20150519-13:38:02.076: 8=FIX.4.4|9=145|35=X|34=199|49=MAMA_NYSE|52=20150519-13:38:02.077|56=ARBv8_EQUITY_NYS_BCS|262=-413ed8735c81be91|268=1|279=1|269=1|55=BCA|270=18.55|271=300|290=1|10=216|
20150519-13:38:06.153: 8=FIX.4.4|9=145|35=X|34=200|49=MAMA_NYSE|52=20150519-13:38:06.153|56=ARBv8_EQUITY_NYS_BCS|262=-413ed8735c81be91|268=1|279=1|269=1|55=BCA|270=18.54|271=100|290=1|10=195|
20150519-13:38:11.311: 8=FIX.4.4|9=73|35=0|34=38|49=ARBv8_EQUITY_NYS_BCS|52=20150519-13:38:11.311|56=MAMA_NYSE|10=026|
20150519-13:38:18.755: 8=FIX.4.4|9=145|35=X|34=201|49=MAMA_NYSE|52=20150519-13:38:18.754|56=ARBv8_EQUITY_NYS_BCS|262=-413ed8735c81be91|268=1|279=1|269=0|55=BCA|270=18.46|271=100|290=1|10=206|
20150519-13:38:18.765: 8=FIX.4.4|9=145|35=X|34=202|49=MAMA_NYSE|52=20150519-13:38:18.757|56=ARBv8_EQUITY_NYS_BCS|262=-413ed8735c81be91|268=1|279=1|269=0|55=BCA|270=18.46|271=300|290=1|10=212|
20150519-13:38:18.765: 8=FIX.4.4|9=145|35=X|34=203|49=MAMA_NYSE|52=20150519-13:38:18.760|56=ARBv8_EQUITY_NYS_BCS|262=-413ed8735c81be91|268=1|279=1|269=1|55=BCA|270=18.55|271=300|290=1|10=208|
20150519-13:38:23.165: 8=FIX.4.4|9=145|35=X|34=204|49=MAMA_NYSE|52=20150519-13:38:23.161|56=ARBv8_EQUITY_NYS_BCS|262=-413ed8735c81be91|268=1|279=1|269=1|55=BCA|270=18.54|271=100|290=1|10=197|
20150519-13:38:50.901: 8=FIX.4.4|9=145|35=X|34=205|49=MAMA_NYSE|52=20150519-13:38:50.902|56=ARBv8_EQUITY_NYS_BCS|262=-413ed8735c81be91|268=1|279=1|269=1|55=BCA|270=18.55|271=300|290=1|10=204|
20150519-13:38:58.107: 8=FIX.4.4|9=145|35=X|34=206|49=MAMA_NYSE|52=20150519-13:38:58.107|56=ARBv8_EQUITY_NYS_BCS|262=-413ed8735c81be91|268=1|279=1|269=1|55=BCA|270=18.54|271=100|290=1|10=207|
20150519-13:39:10.203: 8=FIX.4.4|9=145|35=X|34=207|49=MAMA_NYSE|52=20150519-13:39:10.191|56=ARBv8_EQUITY_NYS_BCS|262=-413ed8735c81be91|268=1|279=1|269=0|55=BCA|270=18.46|271=400|290=1|10=203|
20150519-13:39:10.435: 8=FIX.4.4|9=145|35=X|34=208|49=MAMA_NYSE|52=20150519-13:39:10.435|56=ARBv8_EQUITY_NYS_BCS|262=-413ed8735c81be91|268=1|279=1|269=0|55=BCA|270=18.46|271=300|290=1|10=204|
20150519-13:39:11.322: 8=FIX.4.4|9=73|35=0|34=39|49=ARBv8_EQUITY_NYS_BCS|52=20150519-13:39:11.322|56=MAMA_NYSE|10=030|
20150519-13:39:11.741: 8=FIX.4.4|9=145|35=X|34=209|49=MAMA_NYSE|52=20150519-13:39:11.742|56=ARBv8_EQUITY_NYS_BCS|262=-413ed8735c81be91|268=1|279=1|269=0|55=BCA|270=18.46|271=400|290=1|10=208|
20150519-13:39:13.099: 8=FIX.4.4|9=145|35=X|34=210|49=MAMA_NYSE|52=20150519-13:39:13.097|56=ARBv8_EQUITY_NYS_BCS|262=-413ed8735c81be91|268=1|279=1|269=0|55=BCA|270=18.46|271=300|290=1|10=204|
20150519-13:39:13.577: 8=FIX.4.4|9=145|35=X|34=211|49=MAMA_NYSE|52=20150519-13:39:13.578|56=ARBv8_EQUITY_NYS_BCS|262=-413ed8735c81be91|268=1|279=1|269=0|55=BCA|270=18.46|271=400|290=1|10=210|
20150519-13:39:35.969: 8=FIX.4.4|9=145|35=X|34=212|49=MAMA_NYSE|52=20150519-13:39:35.970|56=ARBv8_EQUITY_NYS_BCS|262=-413ed8735c81be91|268=1|279=1|269=0|55=BCA|270=18.46|271=300|290=1|10=210|
20150519-13:40:12.311: 8=FIX.4.4|9=73|35=0|34=40|49=ARBv8_EQUITY_NYS_BCS|52=20150519-13:40:12.311|56=MAMA_NYSE|10=013|
20150519-13:40:28.988: 8=FIX.4.4|9=145|35=X|34=213|49=MAMA_NYSE|52=20150519-13:40:28.981|56=ARBv8_EQUITY_NYS_BCS|262=-413ed8735c81be91|268=1|279=1|269=0|55=BCA|270=18.47|271=100|290=1|10=206|
20150519-13:40:28.989: 8=FIX.4.4|9=145|35=X|34=214|49=MAMA_NYSE|52=20150519-13:40:28.985|56=ARBv8_EQUITY_NYS_BCS|262=-413ed8735c81be91|268=1|279=1|269=0|55=BCA|270=18.47|271=400|290=1|10=214|
20150519-13:40:28.989: 8=FIX.4.4|9=145|35=X|34=215|49=MAMA_NYSE|52=20150519-13:40:28.986|56=ARBv8_EQUITY_NYS_BCS|262=-413ed8735c81be91|268=1|279=1|269=1|55=BCA|270=18.55|271=100|290=1|10=213|
20150519-13:40:28.989: 8=FIX.4.4|9=145|35=X|34=216|49=MAMA_NYSE|52=20150519-13:40:28.990|56=ARBv8_EQUITY_NYS_BCS|262=-413ed8735c81be91|268=1|279=1|269=0|55=BCA|270=18.48|271=100|290=1|10=210|
20150519-13:40:29.141: 8=FIX.4.4|9=145|35=X|34=217|49=MAMA_NYSE|52=20150519-13:40:29.134|56=ARBv8_EQUITY_NYS_BCS|262=-413ed8735c81be91|268=1|279=1|269=0|55=BCA|270=18.48|271=300|290=1|10=204|
20150519-13:40:47.279: 8=FIX.4.4|9=145|35=X|34=218|49=MAMA_NYSE|52=20150519-13:40:47.280|56=ARBv8_EQUITY_NYS_BCS|262=-413ed8735c81be91|268=1|279=1|269=0|55=BCA|270=18.48|271=500|290=1|10=209|
20150519-13:40:47.285: 8=FIX.4.4|9=145|35=X|34=219|49=MAMA_NYSE|52=20150519-13:40:47.286|56=ARBv8_EQUITY_NYS_BCS|262=-413ed8735c81be91|268=1|279=1|269=0|55=BCA|270=18.48|271=300|290=1|10=214|
20150519-13:41:12.311: 8=FIX.4.4|9=73|35=0|34=41|49=ARBv8_EQUITY_NYS_BCS|52=20150519-13:41:12.311|56=MAMA_NYSE|10=015|
20150519-13:41:47.668: 8=FIX.4.4|9=74|35=0|34=220|49=MAMA_NYSE|52=20150519-13:41:47.668|56=ARBv8_EQUITY_NYS_BCS|10=086|
20150519-13:42:12.311: 8=FIX.4.4|9=73|35=0|34=42|49=ARBv8_EQUITY_NYS_BCS|52=20150519-13:42:12.311|56=MAMA_NYSE|10=017|
20150519-13:42:47.667: 8=FIX.4.4|9=74|35=0|34=221|49=MAMA_NYSE|52=20150519-13:42:47.668|56=ARBv8_EQUITY_NYS_BCS|10=088|
20150519-13:43:12.311: 8=FIX.4.4|9=73|35=0|34=43|49=ARBv8_EQUITY_NYS_BCS|52=20150519-13:43:12.311|56=MAMA_NYSE|10=019|
20150519-13:43:47.667: 8=FIX.4.4|9=74|35=0|34=222|49=MAMA_NYSE|52=20150519-13:43:47.668|56=ARBv8_EQUITY_NYS_BCS|10=090|
20150519-13:44:12.311: 8=FIX.4.4|9=73|35=0|34=44|49=ARBv8_EQUITY_NYS_BCS|52=20150519-13:44:12.311|56=MAMA_NYSE|10=021|
20150519-13:44:47.667: 8=FIX.4.4|9=74|35=0|34=223|49=MAMA_NYSE|52=20150519-13:44:47.668|56=ARBv8_EQUITY_NYS_BCS|10=092|
20150519-13:45:12.311: 8=FIX.4.4|9=73|35=0|34=45|49=ARBv8_EQUITY_NYS_BCS|52=20150519-13:45:12.311|56=MAMA_NYSE|10=023|
20150519-13:45:18.210: 8=FIX.4.4|9=145|35=X|34=224|49=MAMA_NYSE|52=20150519-13:45:18.210|56=ARBv8_EQUITY_NYS_BCS|262=-413ed8735c81be91|268=1|279=1|269=0|55=BCA|270=18.49|271=100|290=1|10=199|
20150519-13:45:18.214: 8=FIX.4.4|9=145|35=X|34=225|49=MAMA_NYSE|52=20150519-13:45:18.214|56=ARBv8_EQUITY_NYS_BCS|262=-413ed8735c81be91|268=1|279=1|269=0|55=BCA|270=18.49|271=300|290=1|10=206|
20150519-13:45:18.414: 8=FIX.4.4|9=144|35=X|34=226|49=MAMA_NYSE|52=20150519-13:45:18.415|56=ARBv8_EQUITY_NYS_BCS|262=-413ed8735c81be91|268=1|279=1|269=0|55=BCA|270=18.5|271=100|290=1|10=151|
20150519-13:45:18.420: 8=FIX.4.4|9=144|35=X|34=227|49=MAMA_NYSE|52=20150519-13:45:18.420|56=ARBv8_EQUITY_NYS_BCS|262=-413ed8735c81be91|268=1|279=1|269=0|55=BCA|270=18.5|271=300|290=1|10=150|
20150519-13:45:27.979: 8=FIX.4.4|9=137|35=X|34=228|49=MAMA_NYSE|52=20150519-13:45:27.980|56=ARBv8_EQUITY_NYS_BCS|262=-413ed8735c81be91|268=1|279=1|269=5|55=BCA|270=18.55|290=1|10=115|
20150519-13:45:27.982: 8=FIX.4.4|9=145|35=X|34=229|49=MAMA_NYSE|52=20150519-13:45:27.983|56=ARBv8_EQUITY_NYS_BCS|262=-413ed8735c81be91|268=1|279=1|269=1|55=BCA|270=18.62|271=400|290=1|10=220|
20150519-13:45:27.983: 8=FIX.4.4|9=145|35=X|34=230|49=MAMA_NYSE|52=20150519-13:45:27.984|56=ARBv8_EQUITY_NYS_BCS|262=-413ed8735c81be91|268=1|279=1|269=1|55=BCA|270=18.55|271=100|290=1|10=212|
20150519-13:45:27.988: 8=FIX.4.4|9=145|35=X|34=231|49=MAMA_NYSE|52=20150519-13:45:27.989|56=ARBv8_EQUITY_NYS_BCS|262=-413ed8735c81be91|268=1|279=1|269=0|55=BCA|270=18.51|271=100|290=1|10=213|
20150519-13:45:28.123: 8=FIX.4.4|9=145|35=X|34=232|49=MAMA_NYSE|52=20150519-13:45:28.124|56=ARBv8_EQUITY_NYS_BCS|262=-413ed8735c81be91|268=1|279=1|269=0|55=BCA|270=18.51|271=300|290=1|10=198|
20150519-13:45:28.124: 8=FIX.4.4|9=145|35=X|34=233|49=MAMA_NYSE|52=20150519-13:45:28.125|56=ARBv8_EQUITY_NYS_BCS|262=-413ed8735c81be91|268=1|279=1|269=0|55=BCA|270=18.52|271=100|290=1|10=199|
20150519-13:45:28.124: 8=FIX.4.4|9=145|35=X|34=234|49=MAMA_NYSE|52=20150519-13:45:28.125|56=ARBv8_EQUITY_NYS_BCS|262=-413ed8735c81be91|268=1|279=1|269=0|55=BCA|270=18.52|271=300|290=1|10=202|
20150519-13:45:28.125: 8=FIX.4.4|9=145|35=X|34=235|49=MAMA_NYSE|52=20150519-13:45:28.126|56=ARBv8_EQUITY_NYS_BCS|262=-413ed8735c81be91|268=1|279=1|269=1|55=BCA|270=18.55|271=200|290=1|10=207|
20150519-13:45:28.126: 8=FIX.4.4|9=145|35=X|34=236|49=MAMA_NYSE|52=20150519-13:45:28.127|56=ARBv8_EQUITY_NYS_BCS|262=-413ed8735c81be91|268=1|279=1|269=0|55=BCA|270=18.53|271=100|290=1|10=205|
20150519-13:45:28.841: 8=FIX.4.4|9=145|35=X|34=237|49=MAMA_NYSE|52=20150519-13:45:28.842|56=ARBv8_EQUITY_NYS_BCS|262=-413ed8735c81be91|268=1|279=1|269=0|55=BCA|270=18.53|271=300|290=1|10=212|
20150519-13:45:28.863: 8=FIX.4.4|9=145|35=X|34=238|49=MAMA_NYSE|52=20150519-13:45:28.864|56=ARBv8_EQUITY_NYS_BCS|262=-413ed8735c81be91|268=1|279=1|269=0|55=BCA|270=18.54|271=100|290=1|10=216|
20150519-13:45:34.486: 8=FIX.4.4|9=145|35=X|34=239|49=MAMA_NYSE|52=20150519-13:45:34.487|56=ARBv8_EQUITY_NYS_BCS|262=-413ed8735c81be91|268=1|279=1|269=0|55=BCA|270=18.53|271=300|290=1|10=216|
20150519-13:45:53.983: 8=FIX.4.4|9=145|35=X|34=240|49=MAMA_NYSE|52=20150519-13:45:53.983|56=ARBv8_EQUITY_NYS_BCS|262=-413ed8735c81be91|268=1|279=1|269=0|55=BCA|270=18.54|271=100|290=1|10=209|
20150519-13:46:12.312: 8=FIX.4.4|9=73|35=0|34=46|49=ARBv8_EQUITY_NYS_BCS|52=20150519-13:46:12.312|56=MAMA_NYSE|10=026|
20150519-13:46:46.836: 8=FIX.4.4|9=145|35=X|34=241|49=MAMA_NYSE|52=20150519-13:46:46.835|56=ARBv8_EQUITY_NYS_BCS|262=-413ed8735c81be91|268=1|279=1|269=0|55=BCA|270=18.54|271=400|290=1|10=212|
20150519-13:46:50.338: 8=FIX.4.4|9=145|35=X|34=242|49=MAMA_NYSE|52=20150519-13:46:50.339|56=ARBv8_EQUITY_NYS_BCS|262=-413ed8735c81be91|268=1|279=1|269=0|55=BCA|270=18.54|271=100|290=1|10=204|
20150519-13:46:50.365: 8=FIX.4.4|9=145|35=X|34=243|49=MAMA_NYSE|52=20150519-13:46:50.366|56=ARBv8_EQUITY_NYS_BCS|262=-413ed8735c81be91|268=1|279=1|269=0|55=BCA|270=18.54|271=400|290=1|10=208|
20150519-13:47:13.312: 8=FIX.4.4|9=73|35=0|34=47|49=ARBv8_EQUITY_NYS_BCS|52=20150519-13:47:13.312|56=MAMA_NYSE|10=029|
20150519-13:47:30.978: 8=FIX.4.4|9=145|35=X|34=244|49=MAMA_NYSE|52=20150519-13:47:30.979|56=ARBv8_EQUITY_NYS_BCS|262=-413ed8735c81be91|268=1|279=1|269=0|55=BCA|270=18.54|271=300|290=1|10=217|
20150519-13:48:13.312: 8=FIX.4.4|9=73|35=0|34=48|49=ARBv8_EQUITY_NYS_BCS|52=20150519-13:48:13.312|56=MAMA_NYSE|10=031|
20150519-13:48:31.675: 8=FIX.4.4|9=74|35=0|34=245|49=MAMA_NYSE|52=20150519-13:48:31.668|56=ARBv8_EQUITY_NYS_BCS|10=093|
20150519-13:48:53.423: 8=FIX.4.4|9=145|35=X|34=246|49=MAMA_NYSE|52=20150519-13:48:53.420|56=ARBv8_EQUITY_NYS_BCS|262=-413ed8735c81be91|268=1|279=1|269=0|55=BCA|270=18.46|271=500|290=1|10=209|
20150519-13:48:53.423: 8=FIX.4.4|9=145|35=X|34=247|49=MAMA_NYSE|52=20150519-13:48:53.421|56=ARBv8_EQUITY_NYS_BCS|262=-413ed8735c81be91|268=1|279=1|269=0|55=BCA|270=18.46|271=500|290=1|10=211|
20150519-13:48:53.423: 8=FIX.4.4|9=145|35=X|34=248|49=MAMA_NYSE|52=20150519-13:48:53.421|56=ARBv8_EQUITY_NYS_BCS|262=-413ed8735c81be91|268=1|279=1|269=0|55=BCA|270=18.46|271=600|290=1|10=213|
20150519-13:48:53.424: 8=FIX.4.4|9=145|35=X|34=249|49=MAMA_NYSE|52=20150519-13:48:53.421|56=ARBv8_EQUITY_NYS_BCS|262=-413ed8735c81be91|268=1|279=1|269=0|55=BCA|270=18.46|271=600|290=1|10=214|
20150519-13:48:53.424: 8=FIX.4.4|9=145|35=X|34=250|49=MAMA_NYSE|52=20150519-13:48:53.422|56=ARBv8_EQUITY_NYS_BCS|262=-413ed8735c81be91|268=1|279=1|269=0|55=BCA|270=18.46|271=600|290=1|10=207|
20150519-13:48:53.567: 8=FIX.4.4|9=145|35=X|34=251|49=MAMA_NYSE|52=20150519-13:48:53.564|56=ARBv8_EQUITY_NYS_BCS|262=-413ed8735c81be91|268=1|279=1|269=0|55=BCA|270=18.47|271=100|290=1|10=211|
20150519-13:48:53.567: 8=FIX.4.4|9=145|35=X|34=252|49=MAMA_NYSE|52=20150519-13:48:53.566|56=ARBv8_EQUITY_NYS_BCS|262=-413ed8735c81be91|268=1|279=1|269=0|55=BCA|270=18.47|271=300|290=1|10=216|
20150519-13:48:53.567: 8=FIX.4.4|9=145|35=X|34=253|49=MAMA_NYSE|52=20150519-13:48:53.566|56=ARBv8_EQUITY_NYS_BCS|262=-413ed8735c81be91|268=1|279=1|269=0|55=BCA|270=18.48|271=100|290=1|10=216|
20150519-13:48:53.568: 8=FIX.4.4|9=145|35=X|34=254|49=MAMA_NYSE|52=20150519-13:48:53.567|56=ARBv8_EQUITY_NYS_BCS|262=-413ed8735c81be91|268=1|279=1|269=0|55=BCA|270=18.48|271=300|290=1|10=220|
20150519-13:48:53.568: 8=FIX.4.4|9=145|35=X|34=255|49=MAMA_NYSE|52=20150519-13:48:53.568|56=ARBv8_EQUITY_NYS_BCS|262=-413ed8735c81be91|268=1|279=1|269=0|55=BCA|270=18.49|271=100|290=1|10=221|
20150519-13:48:53.568: 8=FIX.4.4|9=145|35=X|34=256|49=MAMA_NYSE|52=20150519-13:48:53.569|56=ARBv8_EQUITY_NYS_BCS|262=-413ed8735c81be91|268=1|279=1|269=0|55=BCA|270=18.49|271=300|290=1|10=225|
20150519-13:48:53.569: 8=FIX.4.4|9=144|35=X|34=257|49=MAMA_NYSE|52=20150519-13:48:53.570|56=ARBv8_EQUITY_NYS_BCS|262=-413ed8735c81be91|268=1|279=1|269=0|55=BCA|270=18.5|271=100|290=1|10=159|
20150519-13:48:53.570: 8=FIX.4.4|9=144|35=X|34=258|49=MAMA_NYSE|52=20150519-13:48:53.570|56=ARBv8_EQUITY_NYS_BCS|262=-413ed8735c81be91|268=1|279=1|269=0|55=BCA|270=18.5|271=300|290=1|10=162|
20150519-13:48:53.571: 8=FIX.4.4|9=145|35=X|34=259|49=MAMA_NYSE|52=20150519-13:48:53.571|56=ARBv8_EQUITY_NYS_BCS|262=-413ed8735c81be91|268=1|279=1|269=0|55=BCA|270=18.51|271=100|290=1|10=212|
20150519-13:48:53.571: 8=FIX.4.4|9=145|35=X|34=260|49=MAMA_NYSE|52=20150519-13:48:53.572|56=ARBv8_EQUITY_NYS_BCS|262=-413ed8735c81be91|268=1|279=1|269=0|55=BCA|270=18.51|271=300|290=1|10=207|
20150519-13:48:53.594: 8=FIX.4.4|9=145|35=X|34=261|49=MAMA_NYSE|52=20150519-13:48:53.595|56=ARBv8_EQUITY_NYS_BCS|262=-413ed8735c81be91|268=1|279=1|269=0|55=BCA|270=18.52|271=100|290=1|10=212|
20150519-13:48:53.712: 8=FIX.4.4|9=145|35=X|34=262|49=MAMA_NYSE|52=20150519-13:48:53.711|56=ARBv8_EQUITY_NYS_BCS|262=-413ed8735c81be91|268=1|279=1|269=0|55=BCA|270=18.52|271=300|290=1|10=205|
20150519-13:48:53.713: 8=FIX.4.4|9=145|35=X|34=263|49=MAMA_NYSE|52=20150519-13:48:53.712|56=ARBv8_EQUITY_NYS_BCS|262=-413ed8735c81be91|268=1|279=1|269=0|55=BCA|270=18.53|271=100|290=1|10=206|
20150519-13:48:54.251: 8=FIX.4.4|9=145|35=X|34=264|49=MAMA_NYSE|52=20150519-13:48:54.251|56=ARBv8_EQUITY_NYS_BCS|262=-413ed8735c81be91|268=1|279=1|269=0|55=BCA|270=18.53|271=300|290=1|10=208|
20150519-13:49:14.311: 8=FIX.4.4|9=73|35=0|34=49|49=ARBv8_EQUITY_NYS_BCS|52=20150519-13:49:14.311|56=MAMA_NYSE|10=033|
20150519-13:49:54.669: 8=FIX.4.4|9=74|35=0|34=265|49=MAMA_NYSE|52=20150519-13:49:54.668|56=ARBv8_EQUITY_NYS_BCS|10=101|
20150519-13:50:14.311: 8=FIX.4.4|9=73|35=0|34=50|49=ARBv8_EQUITY_NYS_BCS|52=20150519-13:50:14.311|56=MAMA_NYSE|10=017|
20150519-13:50:54.668: 8=FIX.4.4|9=74|35=0|34=266|49=MAMA_NYSE|52=20150519-13:50:54.669|56=ARBv8_EQUITY_NYS_BCS|10=095|
20150519-13:51:14.311: 8=FIX.4.4|9=73|35=0|34=51|49=ARBv8_EQUITY_NYS_BCS|52=20150519-13:51:14.311|56=MAMA_NYSE|10=019|
20150519-13:51:55.641: 8=FIX.4.4|9=145|35=X|34=267|49=MAMA_NYSE|52=20150519-13:51:55.639|56=ARBv8_EQUITY_NYS_BCS|262=-413ed8735c81be91|268=1|279=1|269=0|55=BCA|270=18.53|271=200|290=1|10=215|
20150519-13:51:55.641: 8=FIX.4.4|9=137|35=X|34=268|49=MAMA_NYSE|52=20150519-13:51:55.639|56=ARBv8_EQUITY_NYS_BCS|262=-413ed8735c81be91|268=1|279=1|269=5|55=BCA|270=18.53|290=1|10=116|
20150519-13:52:14.313: 8=FIX.4.4|9=73|35=0|34=52|49=ARBv8_EQUITY_NYS_BCS|52=20150519-13:52:14.313|56=MAMA_NYSE|10=023|
20150519-13:52:48.987: 8=FIX.4.4|9=145|35=X|34=269|49=MAMA_NYSE|52=20150519-13:52:48.988|56=ARBv8_EQUITY_NYS_BCS|262=-413ed8735c81be91|268=1|279=1|269=0|55=BCA|270=18.54|271=100|290=1|10=227|
20150519-13:52:51.460: 8=FIX.4.4|9=145|35=X|34=270|49=MAMA_NYSE|52=20150519-13:52:51.455|56=ARBv8_EQUITY_NYS_BCS|262=-413ed8735c81be91|268=1|279=1|269=0|55=BCA|270=18.54|271=300|290=1|10=204|
20150519-13:53:15.312: 8=FIX.4.4|9=73|35=0|34=53|49=ARBv8_EQUITY_NYS_BCS|52=20150519-13:53:15.312|56=MAMA_NYSE|10=025|
20150519-13:53:51.670: 8=FIX.4.4|9=74|35=0|34=271|49=MAMA_NYSE|52=20150519-13:53:51.668|56=ARBv8_EQUITY_NYS_BCS|10=090|
20150519-13:53:57.581: 8=FIX.4.4|9=137|35=X|34=272|49=MAMA_NYSE|52=20150519-13:53:57.582|56=ARBv8_EQUITY_NYS_BCS|262=-413ed8735c81be91|268=1|279=1|269=5|55=BCA|270=18.54|290=1|10=113|
20150519-13:54:01.027: 8=FIX.4.4|9=145|35=X|34=273|49=MAMA_NYSE|52=20150519-13:54:01.019|56=ARBv8_EQUITY_NYS_BCS|262=-413ed8735c81be91|268=1|279=1|269=1|55=BCA|270=18.55|271=100|290=1|10=200|
20150519-13:54:12.983: 8=FIX.4.4|9=145|35=X|34=274|49=MAMA_NYSE|52=20150519-13:54:12.982|56=ARBv8_EQUITY_NYS_BCS|262=-413ed8735c81be91|268=1|279=1|269=0|55=BCA|270=18.54|271=200|290=1|10=211|
20150519-13:54:16.311: 8=FIX.4.4|9=73|35=0|34=54|49=ARBv8_EQUITY_NYS_BCS|52=20150519-13:54:16.311|56=MAMA_NYSE|10=027|
20150519-13:54:30.996: 8=FIX.4.4|9=137|35=X|34=275|49=MAMA_NYSE|52=20150519-13:54:30.989|56=ARBv8_EQUITY_NYS_BCS|262=-413ed8735c81be91|268=1|279=1|269=5|55=BCA|270=18.55|290=1|10=120|
20150519-13:54:59.966: 8=FIX.4.4|9=145|35=X|34=276|49=MAMA_NYSE|52=20150519-13:54:59.966|56=ARBv8_EQUITY_NYS_BCS|262=-413ed8735c81be91|268=1|279=1|269=0|55=BCA|270=18.49|271=200|290=1|10=230|
20150519-13:54:59.967: 8=FIX.4.4|9=145|35=X|34=277|49=MAMA_NYSE|52=20150519-13:54:59.966|56=ARBv8_EQUITY_NYS_BCS|262=-413ed8735c81be91|268=1|279=1|269=0|55=BCA|270=18.49|271=200|290=1|10=231|
20150519-13:54:59.967: 8=FIX.4.4|9=145|35=X|34=278|49=MAMA_NYSE|52=20150519-13:54:59.966|56=ARBv8_EQUITY_NYS_BCS|262=-413ed8735c81be91|268=1|279=1|269=0|55=BCA|270=18.49|271=200|290=1|10=232|
20150519-13:54:59.967: 8=FIX.4.4|9=145|35=X|34=279|49=MAMA_NYSE|52=20150519-13:54:59.966|56=ARBv8_EQUITY_NYS_BCS|262=-413ed8735c81be91|268=1|279=1|269=0|55=BCA|270=18.49|271=200|290=1|10=233|
20150519-13:54:59.967: 8=FIX.4.4|9=145|35=X|34=280|49=MAMA_NYSE|52=20150519-13:54:59.967|56=ARBv8_EQUITY_NYS_BCS|262=-413ed8735c81be91|268=1|279=1|269=0|55=BCA|270=18.49|271=200|290=1|10=226|
20150519-13:54:59.967: 8=FIX.4.4|9=145|35=X|34=281|49=MAMA_NYSE|52=20150519-13:54:59.967|56=ARBv8_EQUITY_NYS_BCS|262=-413ed8735c81be91|268=1|279=1|269=1|55=BCA|270=18.54|271=100|290=1|10=223|
20150519-13:55:00.111: 8=FIX.4.4|9=145|35=X|34=282|49=MAMA_NYSE|52=20150519-13:55:00.110|56=ARBv8_EQUITY_NYS_BCS|262=-413ed8735c81be91|268=1|279=1|269=0|55=BCA|270=18.49|271=300|290=1|10=196|
20150519-13:55:00.111: 8=FIX.4.4|9=145|35=X|34=283|49=MAMA_NYSE|52=20150519-13:55:00.110|56=ARBv8_EQUITY_NYS_BCS|262=-413ed8735c81be91|268=1|279=1|269=1|55=BCA|270=18.55|271=100|290=1|10=193|
20150519-13:55:00.112: 8=FIX.4.4|9=145|35=X|34=284|49=MAMA_NYSE|52=20150519-13:55:00.111|56=ARBv8_EQUITY_NYS_BCS|262=-413ed8735c81be91|268=1|279=1|269=1|55=BCA|270=18.55|271=100|290=1|10=195|
20150519-13:55:00.112: 8=FIX.4.4|9=145|35=X|34=285|49=MAMA_NYSE|52=20150519-13:55:00.111|56=ARBv8_EQUITY_NYS_BCS|262=-413ed8735c81be91|268=1|279=1|269=1|55=BCA|270=18.55|271=100|290=1|10=196|
20150519-13:55:02.125: 8=FIX.4.4|9=144|35=X|34=286|49=MAMA_NYSE|52=20150519-13:55:02.125|56=ARBv8_EQUITY_NYS_BCS|262=-413ed8735c81be91|268=1|279=1|269=0|55=BCA|270=18.5|271=100|290=1|10=149|
20150519-13:55:02.134: 8=FIX.4.4|9=144|35=X|34=287|49=MAMA_NYSE|52=20150519-13:55:02.130|56=ARBv8_EQUITY_NYS_BCS|262=-413ed8735c81be91|268=1|279=1|269=0|55=BCA|270=18.5|271=300|290=1|10=148|
20150519-13:55:16.312: 8=FIX.4.4|9=73|35=0|34=55|49=ARBv8_EQUITY_NYS_BCS|52=20150519-13:55:16.312|56=MAMA_NYSE|10=030|
20150519-13:55:55.434: 8=FIX.4.4|9=144|35=X|34=288|49=MAMA_NYSE|52=20150519-13:55:55.433|56=ARBv8_EQUITY_NYS_BCS|262=-413ed8735c81be91|268=1|279=1|269=0|55=BCA|270=18.5|271=200|290=1|10=162|
20150519-13:55:55.434: 8=FIX.4.4|9=136|35=X|34=289|49=MAMA_NYSE|52=20150519-13:55:55.434|56=ARBv8_EQUITY_NYS_BCS|262=-413ed8735c81be91|268=1|279=1|269=5|55=BCA|270=18.5|290=1|10=064|
20150519-13:56:04.114: 8=FIX.4.4|9=144|35=X|34=290|49=MAMA_NYSE|52=20150519-13:56:04.115|56=ARBv8_EQUITY_NYS_BCS|262=-413ed8735c81be91|268=1|279=1|269=0|55=BCA|270=18.5|271=300|290=1|10=148|
20150519-13:56:16.312: 8=FIX.4.4|9=73|35=0|34=56|49=ARBv8_EQUITY_NYS_BCS|52=20150519-13:56:16.312|56=MAMA_NYSE|10=032|
20150519-13:56:35.121: 8=FIX.4.4|9=144|35=X|34=291|49=MAMA_NYSE|52=20150519-13:56:35.120|56=ARBv8_EQUITY_NYS_BCS|262=-413ed8735c81be91|268=1|279=1|269=0|55=BCA|270=18.5|271=400|290=1|10=150|
20150519-13:57:17.333: 8=FIX.4.4|9=73|35=0|34=57|49=ARBv8_EQUITY_NYS_BCS|52=20150519-13:57:17.333|56=MAMA_NYSE|10=038|
20150519-13:57:20.437: 8=FIX.4.4|9=144|35=X|34=292|49=MAMA_NYSE|52=20150519-13:57:20.434|56=ARBv8_EQUITY_NYS_BCS|262=-413ed8735c81be91|268=1|279=1|269=0|55=BCA|270=18.5|271=300|290=1|10=153|
20150519-13:58:05.133: 8=FIX.4.4|9=144|35=X|34=293|49=MAMA_NYSE|52=20150519-13:58:05.132|56=ARBv8_EQUITY_NYS_BCS|262=-413ed8735c81be91|268=1|279=1|269=0|55=BCA|270=18.5|271=200|290=1|10=152|
20150519-13:58:18.312: 8=FIX.4.4|9=73|35=0|34=58|49=ARBv8_EQUITY_NYS_BCS|52=20150519-13:58:18.311|56=MAMA_NYSE|10=037|
20150519-13:58:29.673: 8=FIX.4.4|9=144|35=X|34=294|49=MAMA_NYSE|52=20150519-13:58:29.674|56=ARBv8_EQUITY_NYS_BCS|262=-413ed8735c81be91|268=1|279=1|269=0|55=BCA|270=18.5|271=300|290=1|10=171|
20150519-13:58:36.177: 8=FIX.4.4|9=144|35=X|34=295|49=MAMA_NYSE|52=20150519-13:58:36.177|56=ARBv8_EQUITY_NYS_BCS|262=-413ed8735c81be91|268=1|279=1|269=0|55=BCA|270=18.5|271=200|290=1|10=167|
20150519-13:59:00.110: 8=FIX.4.4|9=144|35=X|34=296|49=MAMA_NYSE|52=20150519-13:59:00.110|56=ARBv8_EQUITY_NYS_BCS|262=-413ed8735c81be91|268=1|279=1|269=0|55=BCA|270=18.5|271=300|290=1|10=148|
20150519-13:59:18.311: 8=FIX.4.4|9=73|35=0|34=59|49=ARBv8_EQUITY_NYS_BCS|52=20150519-13:59:18.311|56=MAMA_NYSE|10=039|
20150519-13:59:50.123: 8=FIX.4.4|9=144|35=X|34=297|49=MAMA_NYSE|52=20150519-13:59:50.123|56=ARBv8_EQUITY_NYS_BCS|262=-413ed8735c81be91|268=1|279=1|269=0|55=BCA|270=18.5|271=200|290=1|10=157|
20150519-13:59:50.123: 8=FIX.4.4|9=145|35=X|34=298|49=MAMA_NYSE|52=20150519-13:59:50.124|56=ARBv8_EQUITY_NYS_BCS|262=-413ed8735c81be91|268=1|279=1|269=1|55=BCA|270=18.54|271=100|290=1|10=212|
20150519-13:59:50.129: 8=FIX.4.4|9=144|35=X|34=299|49=MAMA_NYSE|52=20150519-13:59:50.124|56=ARBv8_EQUITY_NYS_BCS|262=-413ed8735c81be91|268=1|279=1|269=0|55=BCA|270=18.5|271=100|290=1|10=159|
20150519-13:59:50.144: 8=FIX.4.4|9=145|35=X|34=300|49=MAMA_NYSE|52=20150519-13:59:50.133|56=ARBv8_EQUITY_NYS_BCS|262=-413ed8735c81be91|268=1|279=1|269=1|55=BCA|270=18.55|271=100|290=1|10=197|
20150519-14:00:18.311: 8=FIX.4.4|9=73|35=0|34=60|49=ARBv8_EQUITY_NYS_BCS|52=20150519-14:00:18.311|56=MAMA_NYSE|10=018|
20150519-14:00:18.513: 8=FIX.4.4|9=145|35=X|34=301|49=MAMA_NYSE|52=20150519-14:00:18.513|56=ARBv8_EQUITY_NYS_BCS|262=-413ed8735c81be91|268=1|279=1|269=0|55=BCA|270=18.47|271=400|290=1|10=194|
20150519-14:00:18.513: 8=FIX.4.4|9=145|35=X|34=302|49=MAMA_NYSE|52=20150519-14:00:18.513|56=ARBv8_EQUITY_NYS_BCS|262=-413ed8735c81be91|268=1|279=1|269=1|55=BCA|270=18.54|271=100|290=1|10=191|
20150519-14:00:18.514: 8=FIX.4.4|9=145|35=X|34=303|49=MAMA_NYSE|52=20150519-14:00:18.514|56=ARBv8_EQUITY_NYS_BCS|262=-413ed8735c81be91|268=1|279=1|269=0|55=BCA|270=18.42|271=400|290=1|10=192|
20150519-14:00:18.514: 8=FIX.4.4|9=145|35=X|34=304|49=MAMA_NYSE|52=20150519-14:00:18.514|56=ARBv8_EQUITY_NYS_BCS|262=-413ed8735c81be91|268=1|279=1|269=0|55=BCA|270=18.44|271=500|290=1|10=196|
20150519-14:00:18.641: 8=FIX.4.4|9=145|35=X|34=305|49=MAMA_NYSE|52=20150519-14:00:18.641|56=ARBv8_EQUITY_NYS_BCS|262=-413ed8735c81be91|268=1|279=1|269=0|55=BCA|270=18.47|271=500|290=1|10=201|
20150519-14:00:18.642: 8=FIX.4.4|9=145|35=X|34=306|49=MAMA_NYSE|52=20150519-14:00:18.642|56=ARBv8_EQUITY_NYS_BCS|262=-413ed8735c81be91|268=1|279=1|269=0|55=BCA|270=18.48|271=100|290=1|10=200|
20150519-14:00:23.093: 8=FIX.4.4|9=145|35=X|34=307|49=MAMA_NYSE|52=20150519-14:00:23.092|56=ARBv8_EQUITY_NYS_BCS|262=-413ed8735c81be91|268=1|279=1|269=1|55=BCA|270=18.55|271=100|290=1|10=195|
20150519-14:00:23.512: 8=FIX.4.4|9=145|35=X|34=308|49=MAMA_NYSE|52=20150519-14:00:23.513|56=ARBv8_EQUITY_NYS_BCS|262=-413ed8735c81be91|268=1|279=1|269=0|55=BCA|270=18.48|271=300|290=1|10=197|
20150519-14:00:23.521: 8=FIX.4.4|9=145|35=X|34=309|49=MAMA_NYSE|52=20150519-14:00:23.517|56=ARBv8_EQUITY_NYS_BCS|262=-413ed8735c81be91|268=1|279=1|269=1|55=BCA|270=18.54|271=100|290=1|10=198|
20150519-14:00:23.550: 8=FIX.4.4|9=145|35=X|34=310|49=MAMA_NYSE|52=20150519-14:00:23.551|56=ARBv8_EQUITY_NYS_BCS|262=-413ed8735c81be91|268=1|279=1|269=1|55=BCA|270=18.55|271=100|290=1|10=189|
20150519-14:00:23.656: 8=FIX.4.4|9=145|35=X|34=311|49=MAMA_NYSE|52=20150519-14:00:23.657|56=ARBv8_EQUITY_NYS_BCS|262=-413ed8735c81be91|268=1|279=1|269=1|55=BCA|270=18.54|271=100|290=1|10=196|
20150519-14:00:23.657: 8=FIX.4.4|9=145|35=X|34=312|49=MAMA_NYSE|52=20150519-14:00:23.658|56=ARBv8_EQUITY_NYS_BCS|262=-413ed8735c81be91|268=1|279=1|269=1|55=BCA|270=18.55|271=100|290=1|10=199|
20150519-14:00:26.179: 8=FIX.4.4|9=145|35=X|34=313|49=MAMA_NYSE|52=20150519-14:00:26.177|56=ARBv8_EQUITY_NYS_BCS|262=-413ed8735c81be91|268=1|279=1|269=1|55=BCA|270=18.54|271=100|290=1|10=198|
20150519-14:00:26.233: 8=FIX.4.4|9=145|35=X|34=314|49=MAMA_NYSE|52=20150519-14:00:26.233|56=ARBv8_EQUITY_NYS_BCS|262=-413ed8735c81be91|268=1|279=1|269=1|55=BCA|270=18.55|271=100|290=1|10=193|
20150519-14:00:26.270: 8=FIX.4.4|9=145|35=X|34=315|49=MAMA_NYSE|52=20150519-14:00:26.271|56=ARBv8_EQUITY_NYS_BCS|262=-413ed8735c81be91|268=1|279=1|269=1|55=BCA|270=18.54|271=100|290=1|10=195|
20150519-14:00:27.003: 8=FIX.4.4|9=145|35=X|34=316|49=MAMA_NYSE|52=20150519-14:00:27.002|56=ARBv8_EQUITY_NYS_BCS|262=-413ed8735c81be91|268=1|279=1|269=1|55=BCA|270=18.55|271=100|290=1|10=190|
20150519-14:00:27.077: 8=FIX.4.4|9=145|35=X|34=317|49=MAMA_NYSE|52=20150519-14:00:27.075|56=ARBv8_EQUITY_NYS_BCS|262=-413ed8735c81be91|268=1|279=1|269=1|55=BCA|270=18.54|271=100|290=1|10=200|
20150519-14:00:27.151: 8=FIX.4.4|9=145|35=X|34=318|49=MAMA_NYSE|52=20150519-14:00:27.149|56=ARBv8_EQUITY_NYS_BCS|262=-413ed8735c81be91|268=1|279=1|269=0|55=BCA|270=18.48|271=100|290=1|10=205|
20150519-14:00:27.151: 8=FIX.4.4|9=137|35=X|34=319|49=MAMA_NYSE|52=20150519-14:00:27.150|56=ARBv8_EQUITY_NYS_BCS|262=-413ed8735c81be91|268=1|279=1|269=5|55=BCA|270=18.48|290=1|10=099|
