20150520-11:09:08.282: 8=FIX.4.4|9=52|35=5|34=1|49=LVBSG|52=20150520-11:09:08.282|56=CL02|10=069|
20150520-11:09:09.208: 8=FIX.4.4|9=52|35=5|34=1|49=LVBSG|52=20150520-11:09:09.208|56=CL02|10=068|
20150520-11:09:10.197: 8=FIX.4.4|9=70|35=A|34=1|49=LVBSG|52=20150520-11:09:10.197|56=CL02|98=0|108=60|141=Y|10=152|
20150520-11:09:10.202: 8=FIX.4.4|9=0066|35=A|49=CL02|56=LVBSG|34=1|52=20150520-11:09:10|98=0|108=60|141=Y|10=046|
20150520-11:09:48.461: 8=FIX.4.4|9=0076|35=1|49=CL02|56=LVBSG|34=2|52=20150520-11:09:48|112=Appia-20150520-11:09:48|10=051|
20150520-11:09:48.475: 8=FIX.4.4|9=80|35=0|34=2|49=LVBSG|52=20150520-11:09:48.475|56=CL02|112=Appia-20150520-11:09:48|10=155|
20150520-11:10:48.461: 8=FIX.4.4|9=0048|35=0|49=CL02|56=LVBSG|34=3|52=20150520-11:10:48|10=217|
20150520-11:10:49.197: 8=FIX.4.4|9=52|35=0|34=3|49=LVBSG|52=20150520-11:10:49.197|56=CL02|10=068|
20150520-11:11:48.462: 8=FIX.4.4|9=0048|35=0|49=CL02|56=LVBSG|34=4|52=20150520-11:11:48|10=219|
20150520-11:11:49.197: 8=FIX.4.4|9=52|35=0|34=4|49=LVBSG|52=20150520-11:11:49.197|56=CL02|10=070|
20150520-11:12:48.463: 8=FIX.4.4|9=0048|35=0|49=CL02|56=LVBSG|34=5|52=20150520-11:12:48|10=221|
20150520-11:12:50.197: 8=FIX.4.4|9=52|35=0|34=5|49=LVBSG|52=20150520-11:12:50.197|56=CL02|10=064|
20150520-11:13:48.464: 8=FIX.4.4|9=0048|35=0|49=CL02|56=LVBSG|34=6|52=20150520-11:13:48|10=223|
20150520-11:13:51.197: 8=FIX.4.4|9=52|35=0|34=6|49=LVBSG|52=20150520-11:13:51.197|56=CL02|10=067|
20150520-11:14:48.464: 8=FIX.4.4|9=0048|35=0|49=CL02|56=LVBSG|34=7|52=20150520-11:14:48|10=225|
20150520-11:14:52.196: 8=FIX.4.4|9=52|35=0|34=7|49=LVBSG|52=20150520-11:14:52.196|56=CL02|10=069|
20150520-11:15:48.466: 8=FIX.4.4|9=0048|35=0|49=CL02|56=LVBSG|34=8|52=20150520-11:15:48|10=227|
20150520-11:15:52.197: 8=FIX.4.4|9=52|35=0|34=8|49=LVBSG|52=20150520-11:15:52.197|56=CL02|10=072|
20150520-11:16:48.465: 8=FIX.4.4|9=0048|35=0|49=CL02|56=LVBSG|34=9|52=20150520-11:16:48|10=229|
20150520-11:16:53.197: 8=FIX.4.4|9=52|35=0|34=9|49=LVBSG|52=20150520-11:16:53.197|56=CL02|10=075|
20150520-11:17:48.465: 8=FIX.4.4|9=0049|35=0|49=CL02|56=LVBSG|34=10|52=20150520-11:17:48|10=015|
20150520-11:17:54.197: 8=FIX.4.4|9=53|35=0|34=10|49=LVBSG|52=20150520-11:17:54.197|56=CL02|10=118|
20150520-11:18:48.465: 8=FIX.4.4|9=0049|35=0|49=CL02|56=LVBSG|34=11|52=20150520-11:18:48|10=017|
20150520-11:18:55.197: 8=FIX.4.4|9=53|35=0|34=11|49=LVBSG|52=20150520-11:18:55.197|56=CL02|10=121|
20150520-11:19:48.465: 8=FIX.4.4|9=0049|35=0|49=CL02|56=LVBSG|34=12|52=20150520-11:19:48|10=019|
20150520-11:19:55.197: 8=FIX.4.4|9=53|35=0|34=12|49=LVBSG|52=20150520-11:19:55.197|56=CL02|10=123|
20150520-11:20:48.465: 8=FIX.4.4|9=0049|35=0|49=CL02|56=LVBSG|34=13|52=20150520-11:20:48|10=012|
20150520-11:20:56.196: 8=FIX.4.4|9=53|35=0|34=13|49=LVBSG|52=20150520-11:20:56.196|56=CL02|10=116|
20150520-11:21:48.465: 8=FIX.4.4|9=0049|35=0|49=CL02|56=LVBSG|34=14|52=20150520-11:21:48|10=014|
20150520-11:21:56.196: 8=FIX.4.4|9=53|35=0|34=14|49=LVBSG|52=20150520-11:21:56.196|56=CL02|10=118|
20150520-11:22:48.466: 8=FIX.4.4|9=0049|35=0|49=CL02|56=LVBSG|34=15|52=20150520-11:22:48|10=016|
20150520-11:22:56.196: 8=FIX.4.4|9=53|35=0|34=15|49=LVBSG|52=20150520-11:22:56.196|56=CL02|10=120|
20150520-11:23:48.465: 8=FIX.4.4|9=0049|35=0|49=CL02|56=LVBSG|34=16|52=20150520-11:23:48|10=018|
20150520-11:23:56.197: 8=FIX.4.4|9=53|35=0|34=16|49=LVBSG|52=20150520-11:23:56.196|56=CL02|10=122|
20150520-11:24:48.467: 8=FIX.4.4|9=0049|35=0|49=CL02|56=LVBSG|34=17|52=20150520-11:24:48|10=020|
20150520-11:24:56.197: 8=FIX.4.4|9=53|35=0|34=17|49=LVBSG|52=20150520-11:24:56.197|56=CL02|10=125|
20150520-11:25:48.467: 8=FIX.4.4|9=0049|35=0|49=CL02|56=LVBSG|34=18|52=20150520-11:25:48|10=022|
20150520-11:25:56.197: 8=FIX.4.4|9=53|35=0|34=18|49=LVBSG|52=20150520-11:25:56.197|56=CL02|10=127|
20150520-11:26:48.467: 8=FIX.4.4|9=0049|35=0|49=CL02|56=LVBSG|34=19|52=20150520-11:26:48|10=024|
20150520-11:26:56.197: 8=FIX.4.4|9=53|35=0|34=19|49=LVBSG|52=20150520-11:26:56.197|56=CL02|10=129|
20150520-11:27:48.467: 8=FIX.4.4|9=0049|35=0|49=CL02|56=LVBSG|34=20|52=20150520-11:27:48|10=017|
20150520-11:27:56.197: 8=FIX.4.4|9=53|35=0|34=20|49=LVBSG|52=20150520-11:27:56.197|56=CL02|10=122|
20150520-11:28:48.467: 8=FIX.4.4|9=0049|35=0|49=CL02|56=LVBSG|34=21|52=20150520-11:28:48|10=019|
20150520-11:28:57.196: 8=FIX.4.4|9=53|35=0|34=21|49=LVBSG|52=20150520-11:28:57.196|56=CL02|10=124|
20150520-11:29:48.472: 8=FIX.4.4|9=0049|35=0|49=CL02|56=LVBSG|34=22|52=20150520-11:29:48|10=021|
20150520-11:29:57.197: 8=FIX.4.4|9=53|35=0|34=22|49=LVBSG|52=20150520-11:29:57.197|56=CL02|10=127|
20150520-11:30:48.468: 8=FIX.4.4|9=0049|35=0|49=CL02|56=LVBSG|34=23|52=20150520-11:30:48|10=014|
20150520-11:30:57.197: 8=FIX.4.4|9=53|35=0|34=23|49=LVBSG|52=20150520-11:30:57.197|56=CL02|10=120|
20150520-11:31:48.470: 8=FIX.4.4|9=0049|35=0|49=CL02|56=LVBSG|34=24|52=20150520-11:31:48|10=016|
20150520-11:31:58.196: 8=FIX.4.4|9=53|35=0|34=24|49=LVBSG|52=20150520-11:31:58.196|56=CL02|10=122|
20150520-11:32:48.468: 8=FIX.4.4|9=0049|35=0|49=CL02|56=LVBSG|34=25|52=20150520-11:32:48|10=018|
20150520-11:32:58.196: 8=FIX.4.4|9=53|35=0|34=25|49=LVBSG|52=20150520-11:32:58.196|56=CL02|10=124|
20150520-11:33:48.469: 8=FIX.4.4|9=0049|35=0|49=CL02|56=LVBSG|34=26|52=20150520-11:33:48|10=020|
20150520-11:33:58.197: 8=FIX.4.4|9=53|35=0|34=26|49=LVBSG|52=20150520-11:33:58.197|56=CL02|10=127|
20150520-11:34:48.469: 8=FIX.4.4|9=0049|35=0|49=CL02|56=LVBSG|34=27|52=20150520-11:34:48|10=022|
20150520-11:34:58.197: 8=FIX.4.4|9=53|35=0|34=27|49=LVBSG|52=20150520-11:34:58.197|56=CL02|10=129|
20150520-11:35:48.472: 8=FIX.4.4|9=0049|35=0|49=CL02|56=LVBSG|34=28|52=20150520-11:35:48|10=024|
20150520-11:35:58.197: 8=FIX.4.4|9=53|35=0|34=28|49=LVBSG|52=20150520-11:35:58.197|56=CL02|10=131|
20150520-11:36:48.469: 8=FIX.4.4|9=0049|35=0|49=CL02|56=LVBSG|34=29|52=20150520-11:36:48|10=026|
20150520-11:36:58.197: 8=FIX.4.4|9=53|35=0|34=29|49=LVBSG|52=20150520-11:36:58.197|56=CL02|10=133|
20150520-11:37:48.469: 8=FIX.4.4|9=0049|35=0|49=CL02|56=LVBSG|34=30|52=20150520-11:37:48|10=019|
20150520-11:37:59.196: 8=FIX.4.4|9=53|35=0|34=30|49=LVBSG|52=20150520-11:37:59.196|56=CL02|10=126|
20150520-11:38:48.469: 8=FIX.4.4|9=0049|35=0|49=CL02|56=LVBSG|34=31|52=20150520-11:38:48|10=021|
20150520-11:38:59.196: 8=FIX.4.4|9=53|35=0|34=31|49=LVBSG|52=20150520-11:38:59.196|56=CL02|10=128|
20150520-11:39:48.469: 8=FIX.4.4|9=0049|35=0|49=CL02|56=LVBSG|34=32|52=20150520-11:39:48|10=023|
20150520-11:39:59.196: 8=FIX.4.4|9=53|35=0|34=32|49=LVBSG|52=20150520-11:39:59.196|56=CL02|10=130|
20150520-11:40:48.469: 8=FIX.4.4|9=0049|35=0|49=CL02|56=LVBSG|34=33|52=20150520-11:40:48|10=016|
20150520-11:40:59.196: 8=FIX.4.4|9=53|35=0|34=33|49=LVBSG|52=20150520-11:40:59.196|56=CL02|10=123|
20150520-11:41:48.469: 8=FIX.4.4|9=0049|35=0|49=CL02|56=LVBSG|34=34|52=20150520-11:41:48|10=018|
20150520-11:41:59.196: 8=FIX.4.4|9=53|35=0|34=34|49=LVBSG|52=20150520-11:41:59.196|56=CL02|10=125|
20150520-11:42:48.470: 8=FIX.4.4|9=0049|35=0|49=CL02|56=LVBSG|34=35|52=20150520-11:42:48|10=020|
20150520-11:42:59.197: 8=FIX.4.4|9=53|35=0|34=35|49=LVBSG|52=20150520-11:42:59.197|56=CL02|10=128|
20150520-11:43:48.470: 8=FIX.4.4|9=0049|35=0|49=CL02|56=LVBSG|34=36|52=20150520-11:43:48|10=022|
20150520-11:43:59.197: 8=FIX.4.4|9=53|35=0|34=36|49=LVBSG|52=20150520-11:43:59.197|56=CL02|10=130|
20150520-11:44:48.470: 8=FIX.4.4|9=0049|35=0|49=CL02|56=LVBSG|34=37|52=20150520-11:44:48|10=024|
20150520-11:45:00.197: 8=FIX.4.4|9=53|35=0|34=37|49=LVBSG|52=20150520-11:45:00.197|56=CL02|10=119|
20150520-11:45:48.470: 8=FIX.4.4|9=0049|35=0|49=CL02|56=LVBSG|34=38|52=20150520-11:45:48|10=026|
20150520-11:46:01.197: 8=FIX.4.4|9=53|35=0|34=38|49=LVBSG|52=20150520-11:46:01.197|56=CL02|10=122|
20150520-11:46:48.469: 8=FIX.4.4|9=0049|35=0|49=CL02|56=LVBSG|34=39|52=20150520-11:46:48|10=028|
20150520-11:47:02.197: 8=FIX.4.4|9=53|35=0|34=39|49=LVBSG|52=20150520-11:47:02.197|56=CL02|10=125|
20150520-11:47:48.470: 8=FIX.4.4|9=0049|35=0|49=CL02|56=LVBSG|34=40|52=20150520-11:47:48|10=021|
20150520-11:48:02.197: 8=FIX.4.4|9=53|35=0|34=40|49=LVBSG|52=20150520-11:48:02.197|56=CL02|10=118|
20150520-11:48:48.470: 8=FIX.4.4|9=0049|35=0|49=CL02|56=LVBSG|34=41|52=20150520-11:48:48|10=023|
20150520-11:49:02.197: 8=FIX.4.4|9=53|35=0|34=41|49=LVBSG|52=20150520-11:49:02.197|56=CL02|10=120|
20150520-11:49:48.470: 8=FIX.4.4|9=0049|35=0|49=CL02|56=LVBSG|34=42|52=20150520-11:49:48|10=025|
20150520-11:50:02.197: 8=FIX.4.4|9=53|35=0|34=42|49=LVBSG|52=20150520-11:50:02.197|56=CL02|10=113|
20150520-11:50:48.470: 8=FIX.4.4|9=0049|35=0|49=CL02|56=LVBSG|34=43|52=20150520-11:50:48|10=018|
20150520-11:51:03.196: 8=FIX.4.4|9=53|35=0|34=43|49=LVBSG|52=20150520-11:51:03.196|56=CL02|10=115|
20150520-11:51:48.474: 8=FIX.4.4|9=0049|35=0|49=CL02|56=LVBSG|34=44|52=20150520-11:51:48|10=020|
20150520-11:52:03.196: 8=FIX.4.4|9=53|35=0|34=44|49=LVBSG|52=20150520-11:52:03.196|56=CL02|10=117|
20150520-11:52:48.470: 8=FIX.4.4|9=0049|35=0|49=CL02|56=LVBSG|34=45|52=20150520-11:52:48|10=022|
20150520-11:53:03.197: 8=FIX.4.4|9=53|35=0|34=45|49=LVBSG|52=20150520-11:53:03.197|56=CL02|10=120|
20150520-11:53:48.471: 8=FIX.4.4|9=0049|35=0|49=CL02|56=LVBSG|34=46|52=20150520-11:53:48|10=024|
20150520-11:54:03.197: 8=FIX.4.4|9=53|35=0|34=46|49=LVBSG|52=20150520-11:54:03.197|56=CL02|10=122|
20150520-11:54:48.470: 8=FIX.4.4|9=0049|35=0|49=CL02|56=LVBSG|34=47|52=20150520-11:54:48|10=026|
20150520-11:55:03.197: 8=FIX.4.4|9=53|35=0|34=47|49=LVBSG|52=20150520-11:55:03.197|56=CL02|10=124|
20150520-11:55:48.470: 8=FIX.4.4|9=0049|35=0|49=CL02|56=LVBSG|34=48|52=20150520-11:55:48|10=028|
20150520-11:56:03.197: 8=FIX.4.4|9=53|35=0|34=48|49=LVBSG|52=20150520-11:56:03.197|56=CL02|10=126|
20150520-11:56:48.478: 8=FIX.4.4|9=0049|35=0|49=CL02|56=LVBSG|34=49|52=20150520-11:56:48|10=030|
20150520-11:57:04.196: 8=FIX.4.4|9=53|35=0|34=49|49=LVBSG|52=20150520-11:57:04.196|56=CL02|10=128|
20150520-11:57:48.469: 8=FIX.4.4|9=0049|35=0|49=CL02|56=LVBSG|34=50|52=20150520-11:57:48|10=023|
20150520-11:58:04.197: 8=FIX.4.4|9=53|35=0|34=50|49=LVBSG|52=20150520-11:58:04.197|56=CL02|10=122|
20150520-11:58:48.470: 8=FIX.4.4|9=0049|35=0|49=CL02|56=LVBSG|34=51|52=20150520-11:58:48|10=025|
20150520-11:59:04.197: 8=FIX.4.4|9=53|35=0|34=51|49=LVBSG|52=20150520-11:59:04.197|56=CL02|10=124|
20150520-11:59:48.470: 8=FIX.4.4|9=0049|35=0|49=CL02|56=LVBSG|34=52|52=20150520-11:59:48|10=027|
20150520-12:00:05.196: 8=FIX.4.4|9=53|35=0|34=52|49=LVBSG|52=20150520-12:00:05.196|56=CL02|10=112|
20150520-12:00:48.471: 8=FIX.4.4|9=0049|35=0|49=CL02|56=LVBSG|34=53|52=20150520-12:00:48|10=015|
20150520-12:01:05.197: 8=FIX.4.4|9=53|35=0|34=53|49=LVBSG|52=20150520-12:01:05.197|56=CL02|10=115|
20150520-12:01:48.471: 8=FIX.4.4|9=0049|35=0|49=CL02|56=LVBSG|34=54|52=20150520-12:01:48|10=017|
20150520-12:02:06.196: 8=FIX.4.4|9=53|35=0|34=54|49=LVBSG|52=20150520-12:02:06.196|56=CL02|10=117|
20150520-12:02:48.471: 8=FIX.4.4|9=0049|35=0|49=CL02|56=LVBSG|34=55|52=20150520-12:02:48|10=019|
20150520-12:03:06.196: 8=FIX.4.4|9=53|35=0|34=55|49=LVBSG|52=20150520-12:03:06.196|56=CL02|10=119|
20150520-12:03:48.471: 8=FIX.4.4|9=0049|35=0|49=CL02|56=LVBSG|34=56|52=20150520-12:03:48|10=021|
20150520-12:04:06.196: 8=FIX.4.4|9=53|35=0|34=56|49=LVBSG|52=20150520-12:04:06.196|56=CL02|10=121|
20150520-12:04:48.471: 8=FIX.4.4|9=0049|35=0|49=CL02|56=LVBSG|34=57|52=20150520-12:04:48|10=023|
20150520-12:05:06.197: 8=FIX.4.4|9=53|35=0|34=57|49=LVBSG|52=20150520-12:05:06.197|56=CL02|10=124|
20150520-12:05:48.471: 8=FIX.4.4|9=0049|35=0|49=CL02|56=LVBSG|34=58|52=20150520-12:05:48|10=025|
20150520-12:06:07.197: 8=FIX.4.4|9=53|35=0|34=58|49=LVBSG|52=20150520-12:06:07.197|56=CL02|10=127|
20150520-12:06:48.472: 8=FIX.4.4|9=0049|35=0|49=CL02|56=LVBSG|34=59|52=20150520-12:06:48|10=027|
20150520-12:07:08.197: 8=FIX.4.4|9=53|35=0|34=59|49=LVBSG|52=20150520-12:07:08.197|56=CL02|10=130|
20150520-12:07:48.473: 8=FIX.4.4|9=0049|35=0|49=CL02|56=LVBSG|34=60|52=20150520-12:07:48|10=020|
20150520-12:08:08.197: 8=FIX.4.4|9=53|35=0|34=60|49=LVBSG|52=20150520-12:08:08.197|56=CL02|10=123|
20150520-12:08:48.474: 8=FIX.4.4|9=0049|35=0|49=CL02|56=LVBSG|34=61|52=20150520-12:08:48|10=022|
20150520-12:09:09.197: 8=FIX.4.4|9=53|35=0|34=61|49=LVBSG|52=20150520-12:09:09.197|56=CL02|10=126|
20150520-12:09:48.474: 8=FIX.4.4|9=0049|35=0|49=CL02|56=LVBSG|34=62|52=20150520-12:09:48|10=024|
20150520-12:10:09.197: 8=FIX.4.4|9=53|35=0|34=62|49=LVBSG|52=20150520-12:10:09.197|56=CL02|10=119|
20150520-12:10:48.475: 8=FIX.4.4|9=0049|35=0|49=CL02|56=LVBSG|34=63|52=20150520-12:10:48|10=017|
20150520-12:11:10.197: 8=FIX.4.4|9=53|35=0|34=63|49=LVBSG|52=20150520-12:11:10.197|56=CL02|10=113|
20150520-12:11:48.475: 8=FIX.4.4|9=0049|35=0|49=CL02|56=LVBSG|34=64|52=20150520-12:11:48|10=019|
20150520-12:12:11.197: 8=FIX.4.4|9=53|35=0|34=64|49=LVBSG|52=20150520-12:12:11.197|56=CL02|10=116|
20150520-12:12:48.475: 8=FIX.4.4|9=0049|35=0|49=CL02|56=LVBSG|34=65|52=20150520-12:12:48|10=021|
20150520-12:13:12.197: 8=FIX.4.4|9=53|35=0|34=65|49=LVBSG|52=20150520-12:13:12.196|56=CL02|10=118|
20150520-12:13:48.475: 8=FIX.4.4|9=0049|35=0|49=CL02|56=LVBSG|34=66|52=20150520-12:13:48|10=023|
20150520-12:14:12.196: 8=FIX.4.4|9=53|35=0|34=66|49=LVBSG|52=20150520-12:14:12.196|56=CL02|10=120|
20150520-12:14:48.475: 8=FIX.4.4|9=0049|35=0|49=CL02|56=LVBSG|34=67|52=20150520-12:14:48|10=025|
20150520-12:15:12.196: 8=FIX.4.4|9=53|35=0|34=67|49=LVBSG|52=20150520-12:15:12.196|56=CL02|10=122|
20150520-12:15:48.475: 8=FIX.4.4|9=0049|35=0|49=CL02|56=LVBSG|34=68|52=20150520-12:15:48|10=027|
20150520-12:16:12.196: 8=FIX.4.4|9=53|35=0|34=68|49=LVBSG|52=20150520-12:16:12.196|56=CL02|10=124|
20150520-12:16:48.475: 8=FIX.4.4|9=0049|35=0|49=CL02|56=LVBSG|34=69|52=20150520-12:16:48|10=029|
20150520-12:17:12.197: 8=FIX.4.4|9=53|35=0|34=69|49=LVBSG|52=20150520-12:17:12.197|56=CL02|10=127|
20150520-12:17:48.476: 8=FIX.4.4|9=0049|35=0|49=CL02|56=LVBSG|34=70|52=20150520-12:17:48|10=022|
20150520-12:18:13.197: 8=FIX.4.4|9=53|35=0|34=70|49=LVBSG|52=20150520-12:18:13.197|56=CL02|10=121|
20150520-12:18:48.476: 8=FIX.4.4|9=0049|35=0|49=CL02|56=LVBSG|34=71|52=20150520-12:18:48|10=024|
20150520-12:19:14.197: 8=FIX.4.4|9=53|35=0|34=71|49=LVBSG|52=20150520-12:19:14.196|56=CL02|10=123|
20150520-12:19:48.476: 8=FIX.4.4|9=0049|35=0|49=CL02|56=LVBSG|34=72|52=20150520-12:19:48|10=026|
20150520-12:20:14.197: 8=FIX.4.4|9=53|35=0|34=72|49=LVBSG|52=20150520-12:20:14.197|56=CL02|10=117|
20150520-12:20:48.476: 8=FIX.4.4|9=0049|35=0|49=CL02|56=LVBSG|34=73|52=20150520-12:20:48|10=019|
20150520-12:21:14.197: 8=FIX.4.4|9=53|35=0|34=73|49=LVBSG|52=20150520-12:21:14.197|56=CL02|10=119|
20150520-12:21:48.479: 8=FIX.4.4|9=0049|35=0|49=CL02|56=LVBSG|34=74|52=20150520-12:21:48|10=021|
20150520-12:22:15.197: 8=FIX.4.4|9=53|35=0|34=74|49=LVBSG|52=20150520-12:22:15.197|56=CL02|10=122|
20150520-12:22:48.477: 8=FIX.4.4|9=0049|35=0|49=CL02|56=LVBSG|34=75|52=20150520-12:22:48|10=023|
20150520-12:23:15.197: 8=FIX.4.4|9=53|35=0|34=75|49=LVBSG|52=20150520-12:23:15.197|56=CL02|10=124|
20150520-12:23:48.477: 8=FIX.4.4|9=0049|35=0|49=CL02|56=LVBSG|34=76|52=20150520-12:23:48|10=025|
20150520-12:24:15.197: 8=FIX.4.4|9=53|35=0|34=76|49=LVBSG|52=20150520-12:24:15.197|56=CL02|10=126|
20150520-12:24:48.478: 8=FIX.4.4|9=0049|35=0|49=CL02|56=LVBSG|34=77|52=20150520-12:24:48|10=027|
20150520-12:25:16.197: 8=FIX.4.4|9=53|35=0|34=77|49=LVBSG|52=20150520-12:25:16.197|56=CL02|10=129|
20150520-12:25:48.478: 8=FIX.4.4|9=0049|35=0|49=CL02|56=LVBSG|34=78|52=20150520-12:25:48|10=029|
20150520-12:26:16.197: 8=FIX.4.4|9=53|35=0|34=78|49=LVBSG|52=20150520-12:26:16.197|56=CL02|10=131|
20150520-12:26:48.478: 8=FIX.4.4|9=0049|35=0|49=CL02|56=LVBSG|34=79|52=20150520-12:26:48|10=031|
20150520-12:27:17.197: 8=FIX.4.4|9=53|35=0|34=79|49=LVBSG|52=20150520-12:27:17.197|56=CL02|10=134|
20150520-12:27:48.478: 8=FIX.4.4|9=0049|35=0|49=CL02|56=LVBSG|34=80|52=20150520-12:27:48|10=024|
20150520-12:28:18.197: 8=FIX.4.4|9=53|35=0|34=80|49=LVBSG|52=20150520-12:28:18.197|56=CL02|10=128|
20150520-12:28:48.480: 8=FIX.4.4|9=0049|35=0|49=CL02|56=LVBSG|34=81|52=20150520-12:28:48|10=026|
20150520-12:29:18.197: 8=FIX.4.4|9=53|35=0|34=81|49=LVBSG|52=20150520-12:29:18.197|56=CL02|10=130|
20150520-12:29:48.479: 8=FIX.4.4|9=0049|35=0|49=CL02|56=LVBSG|34=82|52=20150520-12:29:48|10=028|
20150520-12:30:19.197: 8=FIX.4.4|9=53|35=0|34=82|49=LVBSG|52=20150520-12:30:19.197|56=CL02|10=124|
20150520-12:30:48.480: 8=FIX.4.4|9=0049|35=0|49=CL02|56=LVBSG|34=83|52=20150520-12:30:48|10=021|
20150520-12:31:19.197: 8=FIX.4.4|9=53|35=0|34=83|49=LVBSG|52=20150520-12:31:19.197|56=CL02|10=126|
20150520-12:31:48.480: 8=FIX.4.4|9=0049|35=0|49=CL02|56=LVBSG|34=84|52=20150520-12:31:48|10=023|
20150520-12:32:20.197: 8=FIX.4.4|9=53|35=0|34=84|49=LVBSG|52=20150520-12:32:20.197|56=CL02|10=120|
20150520-12:32:48.480: 8=FIX.4.4|9=0049|35=0|49=CL02|56=LVBSG|34=85|52=20150520-12:32:48|10=025|
20150520-12:33:21.197: 8=FIX.4.4|9=53|35=0|34=85|49=LVBSG|52=20150520-12:33:21.197|56=CL02|10=123|
20150520-12:33:48.480: 8=FIX.4.4|9=0049|35=0|49=CL02|56=LVBSG|34=86|52=20150520-12:33:48|10=027|
20150520-12:34:22.197: 8=FIX.4.4|9=53|35=0|34=86|49=LVBSG|52=20150520-12:34:22.197|56=CL02|10=126|
20150520-12:34:48.480: 8=FIX.4.4|9=0049|35=0|49=CL02|56=LVBSG|34=87|52=20150520-12:34:48|10=029|
20150520-12:35:22.197: 8=FIX.4.4|9=53|35=0|34=87|49=LVBSG|52=20150520-12:35:22.197|56=CL02|10=128|
20150520-12:35:48.480: 8=FIX.4.4|9=0049|35=0|49=CL02|56=LVBSG|34=88|52=20150520-12:35:48|10=031|
20150520-12:36:23.196: 8=FIX.4.4|9=53|35=0|34=88|49=LVBSG|52=20150520-12:36:23.196|56=CL02|10=130|
20150520-12:36:48.482: 8=FIX.4.4|9=0049|35=0|49=CL02|56=LVBSG|34=89|52=20150520-12:36:48|10=033|
20150520-12:37:23.196: 8=FIX.4.4|9=53|35=0|34=89|49=LVBSG|52=20150520-12:37:23.196|56=CL02|10=132|
20150520-12:37:48.480: 8=FIX.4.4|9=0049|35=0|49=CL02|56=LVBSG|34=90|52=20150520-12:37:48|10=026|
20150520-12:38:23.197: 8=FIX.4.4|9=53|35=0|34=90|49=LVBSG|52=20150520-12:38:23.197|56=CL02|10=126|
20150520-12:38:48.488: 8=FIX.4.4|9=0049|35=0|49=CL02|56=LVBSG|34=91|52=20150520-12:38:48|10=028|
20150520-12:39:23.197: 8=FIX.4.4|9=53|35=0|34=91|49=LVBSG|52=20150520-12:39:23.197|56=CL02|10=128|
20150520-12:39:48.482: 8=FIX.4.4|9=0049|35=0|49=CL02|56=LVBSG|34=92|52=20150520-12:39:48|10=030|
20150520-12:40:24.196: 8=FIX.4.4|9=53|35=0|34=92|49=LVBSG|52=20150520-12:40:24.196|56=CL02|10=121|
20150520-12:40:48.483: 8=FIX.4.4|9=0049|35=0|49=CL02|56=LVBSG|34=93|52=20150520-12:40:48|10=023|
20150520-12:41:24.196: 8=FIX.4.4|9=53|35=0|34=93|49=LVBSG|52=20150520-12:41:24.196|56=CL02|10=123|
20150520-12:41:48.482: 8=FIX.4.4|9=0049|35=0|49=CL02|56=LVBSG|34=94|52=20150520-12:41:48|10=025|
20150520-12:42:24.196: 8=FIX.4.4|9=53|35=0|34=94|49=LVBSG|52=20150520-12:42:24.196|56=CL02|10=125|
20150520-12:42:48.482: 8=FIX.4.4|9=0049|35=0|49=CL02|56=LVBSG|34=95|52=20150520-12:42:48|10=027|
20150520-12:43:24.197: 8=FIX.4.4|9=53|35=0|34=95|49=LVBSG|52=20150520-12:43:24.197|56=CL02|10=128|
20150520-12:43:48.482: 8=FIX.4.4|9=0049|35=0|49=CL02|56=LVBSG|34=96|52=20150520-12:43:48|10=029|
20150520-12:44:24.197: 8=FIX.4.4|9=53|35=0|34=96|49=LVBSG|52=20150520-12:44:24.197|56=CL02|10=130|
20150520-12:44:48.483: 8=FIX.4.4|9=0049|35=0|49=CL02|56=LVBSG|34=97|52=20150520-12:44:48|10=031|
20150520-12:45:25.196: 8=FIX.4.4|9=53|35=0|34=97|49=LVBSG|52=20150520-12:45:25.196|56=CL02|10=132|
20150520-12:45:48.484: 8=FIX.4.4|9=0049|35=0|49=CL02|56=LVBSG|34=98|52=20150520-12:45:48|10=033|
20150520-12:46:25.197: 8=FIX.4.4|9=53|35=0|34=98|49=LVBSG|52=20150520-12:46:25.197|56=CL02|10=135|
20150520-12:46:48.483: 8=FIX.4.4|9=0049|35=0|49=CL02|56=LVBSG|34=99|52=20150520-12:46:48|10=035|
20150520-12:47:26.197: 8=FIX.4.4|9=53|35=0|34=99|49=LVBSG|52=20150520-12:47:26.197|56=CL02|10=138|
20150520-12:47:48.484: 8=FIX.4.4|9=0050|35=0|49=CL02|56=LVBSG|34=100|52=20150520-12:47:48|10=059|
20150520-12:48:26.197: 8=FIX.4.4|9=54|35=0|34=100|49=LVBSG|52=20150520-12:48:26.197|56=CL02|10=171|
20150520-12:48:48.484: 8=FIX.4.4|9=0050|35=0|49=CL02|56=LVBSG|34=101|52=20150520-12:48:48|10=061|
20150520-12:49:27.197: 8=FIX.4.4|9=54|35=0|34=101|49=LVBSG|52=20150520-12:49:27.197|56=CL02|10=174|
20150520-12:49:48.502: 8=FIX.4.4|9=0050|35=0|49=CL02|56=LVBSG|34=102|52=20150520-12:49:48|10=063|
20150520-12:50:27.197: 8=FIX.4.4|9=54|35=0|34=102|49=LVBSG|52=20150520-12:50:27.197|56=CL02|10=167|
20150520-12:50:48.483: 8=FIX.4.4|9=0050|35=0|49=CL02|56=LVBSG|34=103|52=20150520-12:50:48|10=056|
20150520-12:51:28.197: 8=FIX.4.4|9=54|35=0|34=103|49=LVBSG|52=20150520-12:51:28.197|56=CL02|10=170|
20150520-12:51:48.483: 8=FIX.4.4|9=0050|35=0|49=CL02|56=LVBSG|34=104|52=20150520-12:51:48|10=058|
20150520-12:52:29.197: 8=FIX.4.4|9=54|35=0|34=104|49=LVBSG|52=20150520-12:52:29.197|56=CL02|10=173|
20150520-12:52:48.483: 8=FIX.4.4|9=0050|35=0|49=CL02|56=LVBSG|34=105|52=20150520-12:52:48|10=060|
20150520-12:53:30.197: 8=FIX.4.4|9=54|35=0|34=105|49=LVBSG|52=20150520-12:53:30.197|56=CL02|10=167|
20150520-12:53:48.484: 8=FIX.4.4|9=0050|35=0|49=CL02|56=LVBSG|34=106|52=20150520-12:53:48|10=062|
20150520-12:54:30.197: 8=FIX.4.4|9=54|35=0|34=106|49=LVBSG|52=20150520-12:54:30.197|56=CL02|10=169|
20150520-12:54:48.484: 8=FIX.4.4|9=0050|35=0|49=CL02|56=LVBSG|34=107|52=20150520-12:54:48|10=064|
20150520-12:55:30.197: 8=FIX.4.4|9=54|35=0|34=107|49=LVBSG|52=20150520-12:55:30.197|56=CL02|10=171|
20150520-12:55:48.483: 8=FIX.4.4|9=0050|35=0|49=CL02|56=LVBSG|34=108|52=20150520-12:55:48|10=066|
20150520-12:56:31.197: 8=FIX.4.4|9=54|35=0|34=108|49=LVBSG|52=20150520-12:56:31.197|56=CL02|10=174|
20150520-12:56:48.484: 8=FIX.4.4|9=0050|35=0|49=CL02|56=LVBSG|34=109|52=20150520-12:56:48|10=068|
20150520-12:57:31.197: 8=FIX.4.4|9=54|35=0|34=109|49=LVBSG|52=20150520-12:57:31.197|56=CL02|10=176|
20150520-12:57:48.484: 8=FIX.4.4|9=0050|35=0|49=CL02|56=LVBSG|34=110|52=20150520-12:57:48|10=061|
20150520-12:58:31.197: 8=FIX.4.4|9=54|35=0|34=110|49=LVBSG|52=20150520-12:58:31.197|56=CL02|10=169|
20150520-12:58:48.483: 8=FIX.4.4|9=0050|35=0|49=CL02|56=LVBSG|34=111|52=20150520-12:58:48|10=063|
20150520-12:59:31.197: 8=FIX.4.4|9=54|35=0|34=111|49=LVBSG|52=20150520-12:59:31.197|56=CL02|10=171|
20150520-12:59:48.484: 8=FIX.4.4|9=0050|35=0|49=CL02|56=LVBSG|34=112|52=20150520-12:59:48|10=065|
20150520-13:00:32.197: 8=FIX.4.4|9=54|35=0|34=112|49=LVBSG|52=20150520-13:00:32.197|56=CL02|10=160|
20150520-13:00:48.484: 8=FIX.4.4|9=0050|35=0|49=CL02|56=LVBSG|34=113|52=20150520-13:00:48|10=053|
20150520-13:01:32.197: 8=FIX.4.4|9=54|35=0|34=113|49=LVBSG|52=20150520-13:01:32.197|56=CL02|10=162|
20150520-13:01:48.486: 8=FIX.4.4|9=0050|35=0|49=CL02|56=LVBSG|34=114|52=20150520-13:01:48|10=055|
20150520-13:02:33.197: 8=FIX.4.4|9=54|35=0|34=114|49=LVBSG|52=20150520-13:02:33.197|56=CL02|10=165|
20150520-13:02:48.493: 8=FIX.4.4|9=0050|35=0|49=CL02|56=LVBSG|34=115|52=20150520-13:02:48|10=057|
20150520-13:03:34.196: 8=FIX.4.4|9=54|35=0|34=115|49=LVBSG|52=20150520-13:03:34.196|56=CL02|10=167|
20150520-13:03:48.484: 8=FIX.4.4|9=0050|35=0|49=CL02|56=LVBSG|34=116|52=20150520-13:03:48|10=059|
20150520-13:04:28.112: 8=FIX.4.4|9=70|35=A|34=1|49=LVBSG|52=20150520-13:04:28.112|56=CL02|98=0|108=60|141=Y|10=145|
20150520-13:04:28.155: 8=FIX.4.4|9=0066|35=A|49=CL02|56=LVBSG|34=1|52=20150520-13:04:28|98=0|108=60|141=Y|10=052|
20150520-13:04:57.202: 8=FIX.4.4|9=0076|35=1|49=CL02|56=LVBSG|34=2|52=20150520-13:04:57|112=Appia-20150520-13:04:57|10=045|
20150520-13:04:57.203: 8=FIX.4.4|9=80|35=0|34=2|49=LVBSG|52=20150520-13:04:57.203|56=CL02|112=Appia-20150520-13:04:57|10=138|
20150520-13:05:57.206: 8=FIX.4.4|9=0048|35=0|49=CL02|56=LVBSG|34=3|52=20150520-13:05:57|10=223|
20150520-13:05:57.206: 8=FIX.4.4|9=52|35=0|34=3|49=LVBSG|52=20150520-13:05:57.206|56=CL02|10=064|
20150520-13:06:57.203: 8=FIX.4.4|9=0048|35=0|49=CL02|56=LVBSG|34=4|52=20150520-13:06:57|10=225|
20150520-13:06:58.044: 8=FIX.4.4|9=52|35=0|34=4|49=LVBSG|52=20150520-13:06:58.044|56=CL02|10=067|
20150520-13:07:57.203: 8=FIX.4.4|9=0048|35=0|49=CL02|56=LVBSG|34=5|52=20150520-13:07:57|10=227|
20150520-13:07:58.044: 8=FIX.4.4|9=52|35=0|34=5|49=LVBSG|52=20150520-13:07:58.044|56=CL02|10=069|
20150520-13:08:57.202: 8=FIX.4.4|9=0048|35=0|49=CL02|56=LVBSG|34=6|52=20150520-13:08:57|10=229|
20150520-13:08:58.044: 8=FIX.4.4|9=52|35=0|34=6|49=LVBSG|52=20150520-13:08:58.044|56=CL02|10=071|
20150520-13:09:57.203: 8=FIX.4.4|9=0048|35=0|49=CL02|56=LVBSG|34=7|52=20150520-13:09:57|10=231|
20150520-13:09:59.043: 8=FIX.4.4|9=52|35=0|34=7|49=LVBSG|52=20150520-13:09:59.043|56=CL02|10=073|
20150520-13:10:57.205: 8=FIX.4.4|9=0048|35=0|49=CL02|56=LVBSG|34=8|52=20150520-13:10:57|10=224|
20150520-13:10:59.044: 8=FIX.4.4|9=52|35=0|34=8|49=LVBSG|52=20150520-13:10:59.044|56=CL02|10=067|
20150520-13:11:57.205: 8=FIX.4.4|9=0048|35=0|49=CL02|56=LVBSG|34=9|52=20150520-13:11:57|10=226|
20150520-13:12:00.043: 8=FIX.4.4|9=52|35=0|34=9|49=LVBSG|52=20150520-13:12:00.043|56=CL02|10=055|
20150520-13:12:57.205: 8=FIX.4.4|9=0049|35=0|49=CL02|56=LVBSG|34=10|52=20150520-13:12:57|10=012|
20150520-13:13:00.043: 8=FIX.4.4|9=53|35=0|34=10|49=LVBSG|52=20150520-13:13:00.043|56=CL02|10=097|
20150520-13:13:57.205: 8=FIX.4.4|9=0049|35=0|49=CL02|56=LVBSG|34=11|52=20150520-13:13:57|10=014|
20150520-13:14:00.043: 8=FIX.4.4|9=53|35=0|34=11|49=LVBSG|52=20150520-13:14:00.043|56=CL02|10=099|
20150520-13:14:57.205: 8=FIX.4.4|9=0049|35=0|49=CL02|56=LVBSG|34=12|52=20150520-13:14:57|10=016|
20150520-13:15:00.044: 8=FIX.4.4|9=53|35=0|34=12|49=LVBSG|52=20150520-13:15:00.044|56=CL02|10=102|
20150520-13:15:57.205: 8=FIX.4.4|9=0049|35=0|49=CL02|56=LVBSG|34=13|52=20150520-13:15:57|10=018|
20150520-13:16:01.044: 8=FIX.4.4|9=53|35=0|34=13|49=LVBSG|52=20150520-13:16:01.044|56=CL02|10=105|
20150520-13:16:57.205: 8=FIX.4.4|9=0049|35=0|49=CL02|56=LVBSG|34=14|52=20150520-13:16:57|10=020|
20150520-13:17:01.045: 8=FIX.4.4|9=53|35=0|34=14|49=LVBSG|52=20150520-13:17:01.045|56=CL02|10=108|
20150520-13:17:57.206: 8=FIX.4.4|9=0049|35=0|49=CL02|56=LVBSG|34=15|52=20150520-13:17:57|10=022|
20150520-13:18:02.044: 8=FIX.4.4|9=53|35=0|34=15|49=LVBSG|52=20150520-13:18:02.044|56=CL02|10=110|
20150520-13:18:57.205: 8=FIX.4.4|9=0049|35=0|49=CL02|56=LVBSG|34=16|52=20150520-13:18:57|10=024|
20150520-13:19:03.043: 8=FIX.4.4|9=53|35=0|34=16|49=LVBSG|52=20150520-13:19:03.043|56=CL02|10=112|
20150520-13:19:57.205: 8=FIX.4.4|9=0049|35=0|49=CL02|56=LVBSG|34=17|52=20150520-13:19:57|10=026|
20150520-13:20:03.044: 8=FIX.4.4|9=53|35=0|34=17|49=LVBSG|52=20150520-13:20:03.044|56=CL02|10=106|
20150520-13:20:57.205: 8=FIX.4.4|9=0049|35=0|49=CL02|56=LVBSG|34=18|52=20150520-13:20:57|10=019|
20150520-13:21:04.043: 8=FIX.4.4|9=53|35=0|34=18|49=LVBSG|52=20150520-13:21:04.043|56=CL02|10=108|
20150520-13:21:57.205: 8=FIX.4.4|9=0049|35=0|49=CL02|56=LVBSG|34=19|52=20150520-13:21:57|10=021|
20150520-13:22:04.043: 8=FIX.4.4|9=53|35=0|34=19|49=LVBSG|52=20150520-13:22:04.043|56=CL02|10=110|
20150520-13:22:57.205: 8=FIX.4.4|9=0049|35=0|49=CL02|56=LVBSG|34=20|52=20150520-13:22:57|10=014|
20150520-13:23:04.043: 8=FIX.4.4|9=53|35=0|34=20|49=LVBSG|52=20150520-13:23:04.043|56=CL02|10=103|
20150520-13:23:57.206: 8=FIX.4.4|9=0049|35=0|49=CL02|56=LVBSG|34=21|52=20150520-13:23:57|10=016|
20150520-13:24:04.043: 8=FIX.4.4|9=53|35=0|34=21|49=LVBSG|52=20150520-13:24:04.043|56=CL02|10=105|
20150520-13:24:57.207: 8=FIX.4.4|9=0049|35=0|49=CL02|56=LVBSG|34=22|52=20150520-13:24:57|10=018|
20150520-13:25:04.043: 8=FIX.4.4|9=53|35=0|34=22|49=LVBSG|52=20150520-13:25:04.043|56=CL02|10=107|
20150520-13:25:57.207: 8=FIX.4.4|9=0049|35=0|49=CL02|56=LVBSG|34=23|52=20150520-13:25:57|10=020|
20150520-13:26:04.043: 8=FIX.4.4|9=53|35=0|34=23|49=LVBSG|52=20150520-13:26:04.043|56=CL02|10=109|
20150520-13:26:57.207: 8=FIX.4.4|9=0049|35=0|49=CL02|56=LVBSG|34=24|52=20150520-13:26:57|10=022|
20150520-13:27:04.043: 8=FIX.4.4|9=53|35=0|34=24|49=LVBSG|52=20150520-13:27:04.043|56=CL02|10=111|
20150520-13:27:57.206: 8=FIX.4.4|9=0049|35=0|49=CL02|56=LVBSG|34=25|52=20150520-13:27:57|10=024|
20150520-13:28:04.043: 8=FIX.4.4|9=53|35=0|34=25|49=LVBSG|52=20150520-13:28:04.043|56=CL02|10=113|
20150520-13:28:57.206: 8=FIX.4.4|9=0049|35=0|49=CL02|56=LVBSG|34=26|52=20150520-13:28:57|10=026|
20150520-13:29:04.043: 8=FIX.4.4|9=53|35=0|34=26|49=LVBSG|52=20150520-13:29:04.043|56=CL02|10=115|
20150520-13:29:57.216: 8=FIX.4.4|9=0049|35=0|49=CL02|56=LVBSG|34=27|52=20150520-13:29:57|10=028|
20150520-13:30:04.044: 8=FIX.4.4|9=53|35=0|34=27|49=LVBSG|52=20150520-13:30:04.044|56=CL02|10=109|
20150520-13:30:57.207: 8=FIX.4.4|9=0049|35=0|49=CL02|56=LVBSG|34=28|52=20150520-13:30:57|10=021|
20150520-13:31:04.114: 8=FIX.4.4|9=53|35=0|34=28|49=LVBSG|52=20150520-13:31:04.114|56=CL02|10=109|
20150520-13:31:57.209: 8=FIX.4.4|9=0049|35=0|49=CL02|56=LVBSG|34=29|52=20150520-13:31:57|10=023|
20150520-13:32:05.043: 8=FIX.4.4|9=53|35=0|34=29|49=LVBSG|52=20150520-13:32:05.043|56=CL02|10=113|
20150520-13:32:57.207: 8=FIX.4.4|9=0049|35=0|49=CL02|56=LVBSG|34=30|52=20150520-13:32:57|10=016|
20150520-13:33:05.043: 8=FIX.4.4|9=53|35=0|34=30|49=LVBSG|52=20150520-13:33:05.043|56=CL02|10=106|
20150520-13:33:57.207: 8=FIX.4.4|9=0049|35=0|49=CL02|56=LVBSG|34=31|52=20150520-13:33:57|10=018|
20150520-13:34:05.044: 8=FIX.4.4|9=53|35=0|34=31|49=LVBSG|52=20150520-13:34:05.044|56=CL02|10=109|
20150520-13:34:57.207: 8=FIX.4.4|9=0049|35=0|49=CL02|56=LVBSG|34=32|52=20150520-13:34:57|10=020|
20150520-13:35:06.044: 8=FIX.4.4|9=53|35=0|34=32|49=LVBSG|52=20150520-13:35:06.044|56=CL02|10=112|
20150520-13:35:57.207: 8=FIX.4.4|9=0049|35=0|49=CL02|56=LVBSG|34=33|52=20150520-13:35:57|10=022|
20150520-13:36:07.044: 8=FIX.4.4|9=53|35=0|34=33|49=LVBSG|52=20150520-13:36:07.044|56=CL02|10=115|
20150520-13:36:57.208: 8=FIX.4.4|9=0049|35=0|49=CL02|56=LVBSG|34=34|52=20150520-13:36:57|10=024|
20150520-13:37:08.043: 8=FIX.4.4|9=53|35=0|34=34|49=LVBSG|52=20150520-13:37:08.043|56=CL02|10=117|
20150520-13:37:57.207: 8=FIX.4.4|9=0049|35=0|49=CL02|56=LVBSG|34=35|52=20150520-13:37:57|10=026|
20150520-13:38:08.044: 8=FIX.4.4|9=53|35=0|34=35|49=LVBSG|52=20150520-13:38:08.043|56=CL02|10=119|
20150520-13:38:57.208: 8=FIX.4.4|9=0049|35=0|49=CL02|56=LVBSG|34=36|52=20150520-13:38:57|10=028|
20150520-13:39:08.043: 8=FIX.4.4|9=53|35=0|34=36|49=LVBSG|52=20150520-13:39:08.043|56=CL02|10=121|
20150520-13:39:57.209: 8=FIX.4.4|9=0049|35=0|49=CL02|56=LVBSG|34=37|52=20150520-13:39:57|10=030|
20150520-13:40:08.043: 8=FIX.4.4|9=53|35=0|34=37|49=LVBSG|52=20150520-13:40:08.043|56=CL02|10=114|
20150520-13:40:57.209: 8=FIX.4.4|9=0049|35=0|49=CL02|56=LVBSG|34=38|52=20150520-13:40:57|10=023|
20150520-13:41:08.043: 8=FIX.4.4|9=53|35=0|34=38|49=LVBSG|52=20150520-13:41:08.043|56=CL02|10=116|
20150520-13:41:57.209: 8=FIX.4.4|9=0049|35=0|49=CL02|56=LVBSG|34=39|52=20150520-13:41:57|10=025|
20150520-13:42:08.044: 8=FIX.4.4|9=53|35=0|34=39|49=LVBSG|52=20150520-13:42:08.044|56=CL02|10=119|
20150520-13:42:57.209: 8=FIX.4.4|9=0049|35=0|49=CL02|56=LVBSG|34=40|52=20150520-13:42:57|10=018|
20150520-13:43:09.044: 8=FIX.4.4|9=53|35=0|34=40|49=LVBSG|52=20150520-13:43:09.044|56=CL02|10=113|
20150520-13:43:57.212: 8=FIX.4.4|9=0049|35=0|49=CL02|56=LVBSG|34=41|52=20150520-13:43:57|10=020|
20150520-13:44:09.044: 8=FIX.4.4|9=53|35=0|34=41|49=LVBSG|52=20150520-13:44:09.044|56=CL02|10=115|
20150520-13:44:57.209: 8=FIX.4.4|9=0049|35=0|49=CL02|56=LVBSG|34=42|52=20150520-13:44:57|10=022|
20150520-13:45:10.043: 8=FIX.4.4|9=53|35=0|34=42|49=LVBSG|52=20150520-13:45:10.043|56=CL02|10=108|
20150520-13:45:57.213: 8=FIX.4.4|9=0049|35=0|49=CL02|56=LVBSG|34=43|52=20150520-13:45:57|10=024|
20150520-13:46:10.044: 8=FIX.4.4|9=53|35=0|34=43|49=LVBSG|52=20150520-13:46:10.043|56=CL02|10=110|
20150520-13:46:57.210: 8=FIX.4.4|9=0049|35=0|49=CL02|56=LVBSG|34=44|52=20150520-13:46:57|10=026|
20150520-13:47:10.044: 8=FIX.4.4|9=53|35=0|34=44|49=LVBSG|52=20150520-13:47:10.044|56=CL02|10=113|
20150520-13:47:57.210: 8=FIX.4.4|9=0049|35=0|49=CL02|56=LVBSG|34=45|52=20150520-13:47:57|10=028|
20150520-13:48:11.043: 8=FIX.4.4|9=53|35=0|34=45|49=LVBSG|52=20150520-13:48:11.043|56=CL02|10=115|
20150520-13:48:57.211: 8=FIX.4.4|9=0049|35=0|49=CL02|56=LVBSG|34=46|52=20150520-13:48:57|10=030|
20150520-13:49:11.044: 8=FIX.4.4|9=53|35=0|34=46|49=LVBSG|52=20150520-13:49:11.044|56=CL02|10=118|
20150520-13:49:57.213: 8=FIX.4.4|9=0049|35=0|49=CL02|56=LVBSG|34=47|52=20150520-13:49:57|10=032|
20150520-13:50:12.044: 8=FIX.4.4|9=53|35=0|34=47|49=LVBSG|52=20150520-13:50:12.044|56=CL02|10=112|
20150520-13:50:57.213: 8=FIX.4.4|9=0049|35=0|49=CL02|56=LVBSG|34=48|52=20150520-13:50:57|10=025|
20150520-13:51:13.043: 8=FIX.4.4|9=53|35=0|34=48|49=LVBSG|52=20150520-13:51:13.043|56=CL02|10=114|
20150520-13:51:57.217: 8=FIX.4.4|9=0049|35=0|49=CL02|56=LVBSG|34=49|52=20150520-13:51:57|10=027|
20150520-13:52:13.043: 8=FIX.4.4|9=53|35=0|34=49|49=LVBSG|52=20150520-13:52:13.043|56=CL02|10=116|
20150520-13:52:57.218: 8=FIX.4.4|9=0049|35=0|49=CL02|56=LVBSG|34=50|52=20150520-13:52:57|10=020|
20150520-13:53:13.094: 8=FIX.4.4|9=53|35=0|34=50|49=LVBSG|52=20150520-13:53:13.094|56=CL02|10=115|
20150520-13:53:57.211: 8=FIX.4.4|9=0049|35=0|49=CL02|56=LVBSG|34=51|52=20150520-13:53:57|10=022|
20150520-13:54:14.043: 8=FIX.4.4|9=53|35=0|34=51|49=LVBSG|52=20150520-13:54:14.043|56=CL02|10=112|
20150520-13:54:57.214: 8=FIX.4.4|9=0049|35=0|49=CL02|56=LVBSG|34=52|52=20150520-13:54:57|10=024|
20150520-13:55:14.043: 8=FIX.4.4|9=53|35=0|34=52|49=LVBSG|52=20150520-13:55:14.043|56=CL02|10=114|
20150520-13:55:57.213: 8=FIX.4.4|9=0049|35=0|49=CL02|56=LVBSG|34=53|52=20150520-13:55:57|10=026|
20150520-13:56:14.043: 8=FIX.4.4|9=53|35=0|34=53|49=LVBSG|52=20150520-13:56:14.043|56=CL02|10=116|
20150520-13:56:57.211: 8=FIX.4.4|9=0049|35=0|49=CL02|56=LVBSG|34=54|52=20150520-13:56:57|10=028|
20150520-13:57:14.043: 8=FIX.4.4|9=53|35=0|34=54|49=LVBSG|52=20150520-13:57:14.043|56=CL02|10=118|
20150520-13:57:57.212: 8=FIX.4.4|9=0049|35=0|49=CL02|56=LVBSG|34=55|52=20150520-13:57:57|10=030|
20150520-13:58:14.043: 8=FIX.4.4|9=53|35=0|34=55|49=LVBSG|52=20150520-13:58:14.043|56=CL02|10=120|
20150520-13:58:57.214: 8=FIX.4.4|9=0049|35=0|49=CL02|56=LVBSG|34=56|52=20150520-13:58:57|10=032|
20150520-13:59:14.044: 8=FIX.4.4|9=53|35=0|34=56|49=LVBSG|52=20150520-13:59:14.044|56=CL02|10=123|
20150520-13:59:57.214: 8=FIX.4.4|9=0049|35=0|49=CL02|56=LVBSG|34=57|52=20150520-13:59:57|10=034|
20150520-14:00:14.044: 8=FIX.4.4|9=53|35=0|34=57|49=LVBSG|52=20150520-14:00:14.044|56=CL02|10=111|
20150520-14:00:57.216: 8=FIX.4.4|9=0049|35=0|49=CL02|56=LVBSG|34=58|52=20150520-14:00:57|10=022|
20150520-14:01:15.044: 8=FIX.4.4|9=53|35=0|34=58|49=LVBSG|52=20150520-14:01:15.044|56=CL02|10=114|
20150520-14:01:57.214: 8=FIX.4.4|9=0049|35=0|49=CL02|56=LVBSG|34=59|52=20150520-14:01:57|10=024|
20150520-14:02:15.044: 8=FIX.4.4|9=53|35=0|34=59|49=LVBSG|52=20150520-14:02:15.044|56=CL02|10=116|
20150520-14:02:57.214: 8=FIX.4.4|9=0049|35=0|49=CL02|56=LVBSG|34=60|52=20150520-14:02:57|10=017|
20150520-14:03:15.044: 8=FIX.4.4|9=53|35=0|34=60|49=LVBSG|52=20150520-14:03:15.044|56=CL02|10=109|
20150520-14:03:57.213: 8=FIX.4.4|9=0049|35=0|49=CL02|56=LVBSG|34=61|52=20150520-14:03:57|10=019|
20150520-14:04:15.044: 8=FIX.4.4|9=53|35=0|34=61|49=LVBSG|52=20150520-14:04:15.044|56=CL02|10=111|
20150520-14:04:57.214: 8=FIX.4.4|9=0049|35=0|49=CL02|56=LVBSG|34=62|52=20150520-14:04:57|10=021|
20150520-14:05:15.044: 8=FIX.4.4|9=53|35=0|34=62|49=LVBSG|52=20150520-14:05:15.044|56=CL02|10=113|
20150520-14:05:57.215: 8=FIX.4.4|9=0049|35=0|49=CL02|56=LVBSG|34=63|52=20150520-14:05:57|10=023|
20150520-14:06:16.044: 8=FIX.4.4|9=53|35=0|34=63|49=LVBSG|52=20150520-14:06:16.044|56=CL02|10=116|
20150520-14:06:57.211: 8=FIX.4.4|9=0049|35=0|49=CL02|56=LVBSG|34=64|52=20150520-14:06:57|10=025|
20150520-14:07:16.044: 8=FIX.4.4|9=53|35=0|34=64|49=LVBSG|52=20150520-14:07:16.044|56=CL02|10=118|
20150520-14:07:57.214: 8=FIX.4.4|9=0049|35=0|49=CL02|56=LVBSG|34=65|52=20150520-14:07:57|10=027|
20150520-14:08:17.044: 8=FIX.4.4|9=53|35=0|34=65|49=LVBSG|52=20150520-14:08:17.044|56=CL02|10=121|
20150520-14:08:57.212: 8=FIX.4.4|9=0049|35=0|49=CL02|56=LVBSG|34=66|52=20150520-14:08:57|10=029|
20150520-14:09:18.044: 8=FIX.4.4|9=53|35=0|34=66|49=LVBSG|52=20150520-14:09:18.044|56=CL02|10=124|
20150520-14:09:57.212: 8=FIX.4.4|9=0049|35=0|49=CL02|56=LVBSG|34=67|52=20150520-14:09:57|10=031|
20150520-14:10:18.044: 8=FIX.4.4|9=53|35=0|34=67|49=LVBSG|52=20150520-14:10:18.044|56=CL02|10=117|
20150520-14:10:57.212: 8=FIX.4.4|9=0049|35=0|49=CL02|56=LVBSG|34=68|52=20150520-14:10:57|10=024|
20150520-14:11:19.044: 8=FIX.4.4|9=53|35=0|34=68|49=LVBSG|52=20150520-14:11:19.043|56=CL02|10=119|
20150520-14:11:57.212: 8=FIX.4.4|9=0049|35=0|49=CL02|56=LVBSG|34=69|52=20150520-14:11:57|10=026|
20150520-14:12:19.044: 8=FIX.4.4|9=53|35=0|34=69|49=LVBSG|52=20150520-14:12:19.044|56=CL02|10=122|
20150520-14:12:57.213: 8=FIX.4.4|9=0049|35=0|49=CL02|56=LVBSG|34=70|52=20150520-14:12:57|10=019|
20150520-14:13:20.043: 8=FIX.4.4|9=53|35=0|34=70|49=LVBSG|52=20150520-14:13:20.043|56=CL02|10=106|
20150520-14:13:57.213: 8=FIX.4.4|9=0049|35=0|49=CL02|56=LVBSG|34=71|52=20150520-14:13:57|10=021|
20150520-14:14:20.044: 8=FIX.4.4|9=53|35=0|34=71|49=LVBSG|52=20150520-14:14:20.044|56=CL02|10=109|
20150520-14:14:57.213: 8=FIX.4.4|9=0049|35=0|49=CL02|56=LVBSG|34=72|52=20150520-14:14:57|10=023|
20150520-14:15:20.044: 8=FIX.4.4|9=53|35=0|34=72|49=LVBSG|52=20150520-14:15:20.044|56=CL02|10=111|
20150520-14:15:57.213: 8=FIX.4.4|9=0049|35=0|49=CL02|56=LVBSG|34=73|52=20150520-14:15:57|10=025|
20150520-14:16:21.044: 8=FIX.4.4|9=53|35=0|34=73|49=LVBSG|52=20150520-14:16:21.044|56=CL02|10=114|
20150520-14:16:57.213: 8=FIX.4.4|9=0049|35=0|49=CL02|56=LVBSG|34=74|52=20150520-14:16:57|10=027|
20150520-14:17:21.044: 8=FIX.4.4|9=53|35=0|34=74|49=LVBSG|52=20150520-14:17:21.044|56=CL02|10=116|
20150520-14:17:57.213: 8=FIX.4.4|9=0049|35=0|49=CL02|56=LVBSG|34=75|52=20150520-14:17:57|10=029|
20150520-14:18:22.044: 8=FIX.4.4|9=53|35=0|34=75|49=LVBSG|52=20150520-14:18:22.044|56=CL02|10=119|
20150520-14:18:57.213: 8=FIX.4.4|9=0049|35=0|49=CL02|56=LVBSG|34=76|52=20150520-14:18:57|10=031|
20150520-14:19:23.044: 8=FIX.4.4|9=53|35=0|34=76|49=LVBSG|52=20150520-14:19:23.044|56=CL02|10=122|
20150520-14:19:57.213: 8=FIX.4.4|9=0049|35=0|49=CL02|56=LVBSG|34=77|52=20150520-14:19:57|10=033|
20150520-14:20:24.044: 8=FIX.4.4|9=53|35=0|34=77|49=LVBSG|52=20150520-14:20:24.044|56=CL02|10=116|
20150520-14:20:57.213: 8=FIX.4.4|9=0049|35=0|49=CL02|56=LVBSG|34=78|52=20150520-14:20:57|10=026|
20150520-14:21:25.044: 8=FIX.4.4|9=53|35=0|34=78|49=LVBSG|52=20150520-14:21:25.044|56=CL02|10=119|
20150520-14:21:57.213: 8=FIX.4.4|9=0049|35=0|49=CL02|56=LVBSG|34=79|52=20150520-14:21:57|10=028|
20150520-14:22:26.043: 8=FIX.4.4|9=53|35=0|34=79|49=LVBSG|52=20150520-14:22:26.043|56=CL02|10=121|
20150520-14:22:57.215: 8=FIX.4.4|9=0049|35=0|49=CL02|56=LVBSG|34=80|52=20150520-14:22:57|10=021|
20150520-14:23:26.043: 8=FIX.4.4|9=53|35=0|34=80|49=LVBSG|52=20150520-14:23:26.043|56=CL02|10=114|
20150520-14:23:57.215: 8=FIX.4.4|9=0049|35=0|49=CL02|56=LVBSG|34=81|52=20150520-14:23:57|10=023|
20150520-14:24:26.044: 8=FIX.4.4|9=53|35=0|34=81|49=LVBSG|52=20150520-14:24:26.044|56=CL02|10=117|
20150520-14:24:57.215: 8=FIX.4.4|9=0049|35=0|49=CL02|56=LVBSG|34=82|52=20150520-14:24:57|10=025|
20150520-14:25:27.044: 8=FIX.4.4|9=53|35=0|34=82|49=LVBSG|52=20150520-14:25:27.044|56=CL02|10=120|
20150520-14:25:57.216: 8=FIX.4.4|9=0049|35=0|49=CL02|56=LVBSG|34=83|52=20150520-14:25:57|10=027|
20150520-14:26:28.044: 8=FIX.4.4|9=53|35=0|34=83|49=LVBSG|52=20150520-14:26:28.044|56=CL02|10=123|
20150520-14:26:57.218: 8=FIX.4.4|9=0049|35=0|49=CL02|56=LVBSG|34=84|52=20150520-14:26:57|10=029|
20150520-14:27:28.044: 8=FIX.4.4|9=53|35=0|34=84|49=LVBSG|52=20150520-14:27:28.044|56=CL02|10=125|
20150520-14:27:57.216: 8=FIX.4.4|9=0049|35=0|49=CL02|56=LVBSG|34=85|52=20150520-14:27:57|10=031|
20150520-14:28:29.043: 8=FIX.4.4|9=53|35=0|34=85|49=LVBSG|52=20150520-14:28:29.043|56=CL02|10=127|
20150520-14:28:57.217: 8=FIX.4.4|9=0049|35=0|49=CL02|56=LVBSG|34=86|52=20150520-14:28:57|10=033|
20150520-14:29:29.044: 8=FIX.4.4|9=53|35=0|34=86|49=LVBSG|52=20150520-14:29:29.044|56=CL02|10=130|
20150520-14:29:57.216: 8=FIX.4.4|9=0049|35=0|49=CL02|56=LVBSG|34=87|52=20150520-14:29:57|10=035|
20150520-14:30:29.044: 8=FIX.4.4|9=53|35=0|34=87|49=LVBSG|52=20150520-14:30:29.044|56=CL02|10=123|
20150520-14:30:57.218: 8=FIX.4.4|9=0049|35=0|49=CL02|56=LVBSG|34=88|52=20150520-14:30:57|10=028|
20150520-14:31:30.044: 8=FIX.4.4|9=53|35=0|34=88|49=LVBSG|52=20150520-14:31:30.044|56=CL02|10=117|
20150520-14:31:57.220: 8=FIX.4.4|9=0049|35=0|49=CL02|56=LVBSG|34=89|52=20150520-14:31:57|10=030|
20150520-14:32:31.044: 8=FIX.4.4|9=53|35=0|34=89|49=LVBSG|52=20150520-14:32:31.044|56=CL02|10=120|
20150520-14:32:57.216: 8=FIX.4.4|9=0049|35=0|49=CL02|56=LVBSG|34=90|52=20150520-14:32:57|10=023|
20150520-14:33:31.044: 8=FIX.4.4|9=53|35=0|34=90|49=LVBSG|52=20150520-14:33:31.044|56=CL02|10=113|
20150520-14:33:57.218: 8=FIX.4.4|9=0049|35=0|49=CL02|56=LVBSG|34=91|52=20150520-14:33:57|10=025|
20150520-14:34:31.044: 8=FIX.4.4|9=53|35=0|34=91|49=LVBSG|52=20150520-14:34:31.044|56=CL02|10=115|
20150520-14:34:57.216: 8=FIX.4.4|9=0049|35=0|49=CL02|56=LVBSG|34=92|52=20150520-14:34:57|10=027|
20150520-14:35:31.044: 8=FIX.4.4|9=53|35=0|34=92|49=LVBSG|52=20150520-14:35:31.044|56=CL02|10=117|
20150520-14:35:57.218: 8=FIX.4.4|9=0049|35=0|49=CL02|56=LVBSG|34=93|52=20150520-14:35:57|10=029|
20150520-14:36:32.044: 8=FIX.4.4|9=53|35=0|34=93|49=LVBSG|52=20150520-14:36:32.044|56=CL02|10=120|
20150520-14:36:57.217: 8=FIX.4.4|9=0049|35=0|49=CL02|56=LVBSG|34=94|52=20150520-14:36:57|10=031|
20150520-14:37:32.044: 8=FIX.4.4|9=53|35=0|34=94|49=LVBSG|52=20150520-14:37:32.044|56=CL02|10=122|
20150520-14:37:57.217: 8=FIX.4.4|9=0049|35=0|49=CL02|56=LVBSG|34=95|52=20150520-14:37:57|10=033|
20150520-14:38:32.044: 8=FIX.4.4|9=53|35=0|34=95|49=LVBSG|52=20150520-14:38:32.044|56=CL02|10=124|
20150520-14:38:57.221: 8=FIX.4.4|9=0049|35=0|49=CL02|56=LVBSG|34=96|52=20150520-14:38:57|10=035|
20150520-14:39:33.043: 8=FIX.4.4|9=53|35=0|34=96|49=LVBSG|52=20150520-14:39:33.043|56=CL02|10=126|
20150520-14:39:57.224: 8=FIX.4.4|9=0049|35=0|49=CL02|56=LVBSG|34=97|52=20150520-14:39:57|10=037|
20150520-14:40:33.044: 8=FIX.4.4|9=53|35=0|34=97|49=LVBSG|52=20150520-14:40:33.044|56=CL02|10=120|
20150520-14:40:57.218: 8=FIX.4.4|9=0049|35=0|49=CL02|56=LVBSG|34=98|52=20150520-14:40:57|10=030|
20150520-14:41:33.044: 8=FIX.4.4|9=53|35=0|34=98|49=LVBSG|52=20150520-14:41:33.044|56=CL02|10=122|
20150520-14:41:57.218: 8=FIX.4.4|9=0049|35=0|49=CL02|56=LVBSG|34=99|52=20150520-14:41:57|10=032|
20150520-14:42:33.044: 8=FIX.4.4|9=53|35=0|34=99|49=LVBSG|52=20150520-14:42:33.044|56=CL02|10=124|
20150520-14:42:57.218: 8=FIX.4.4|9=0050|35=0|49=CL02|56=LVBSG|34=100|52=20150520-14:42:57|10=056|
20150520-14:43:34.044: 8=FIX.4.4|9=54|35=0|34=100|49=LVBSG|52=20150520-14:43:34.044|56=CL02|10=158|
20150520-14:43:57.217: 8=FIX.4.4|9=0050|35=0|49=CL02|56=LVBSG|34=101|52=20150520-14:43:57|10=058|
20150520-14:44:35.043: 8=FIX.4.4|9=54|35=0|34=101|49=LVBSG|52=20150520-14:44:35.043|56=CL02|10=160|
20150520-14:44:57.218: 8=FIX.4.4|9=0050|35=0|49=CL02|56=LVBSG|34=102|52=20150520-14:44:57|10=060|
20150520-14:45:35.043: 8=FIX.4.4|9=54|35=0|34=102|49=LVBSG|52=20150520-14:45:35.043|56=CL02|10=162|
20150520-14:45:57.218: 8=FIX.4.4|9=0050|35=0|49=CL02|56=LVBSG|34=103|52=20150520-14:45:57|10=062|
20150520-14:46:35.043: 8=FIX.4.4|9=54|35=0|34=103|49=LVBSG|52=20150520-14:46:35.043|56=CL02|10=164|
20150520-14:46:57.218: 8=FIX.4.4|9=0050|35=0|49=CL02|56=LVBSG|34=104|52=20150520-14:46:57|10=064|
20150520-14:47:35.043: 8=FIX.4.4|9=54|35=0|34=104|49=LVBSG|52=20150520-14:47:35.043|56=CL02|10=166|
20150520-14:47:57.218: 8=FIX.4.4|9=0050|35=0|49=CL02|56=LVBSG|34=105|52=20150520-14:47:57|10=066|
20150520-14:48:35.043: 8=FIX.4.4|9=54|35=0|34=105|49=LVBSG|52=20150520-14:48:35.043|56=CL02|10=168|
20150520-14:48:57.221: 8=FIX.4.4|9=0050|35=0|49=CL02|56=LVBSG|34=106|52=20150520-14:48:57|10=068|
20150520-14:49:35.043: 8=FIX.4.4|9=54|35=0|34=106|49=LVBSG|52=20150520-14:49:35.043|56=CL02|10=170|
20150520-14:49:57.218: 8=FIX.4.4|9=0050|35=0|49=CL02|56=LVBSG|34=107|52=20150520-14:49:57|10=070|
20150520-14:50:35.044: 8=FIX.4.4|9=54|35=0|34=107|49=LVBSG|52=20150520-14:50:35.044|56=CL02|10=164|
20150520-14:50:57.218: 8=FIX.4.4|9=0050|35=0|49=CL02|56=LVBSG|34=108|52=20150520-14:50:57|10=063|
20150520-14:51:35.044: 8=FIX.4.4|9=54|35=0|34=108|49=LVBSG|52=20150520-14:51:35.044|56=CL02|10=166|
20150520-14:51:57.218: 8=FIX.4.4|9=0050|35=0|49=CL02|56=LVBSG|34=109|52=20150520-14:51:57|10=065|
20150520-14:52:35.044: 8=FIX.4.4|9=54|35=0|34=109|49=LVBSG|52=20150520-14:52:35.044|56=CL02|10=168|
20150520-14:52:57.219: 8=FIX.4.4|9=0050|35=0|49=CL02|56=LVBSG|34=110|52=20150520-14:52:57|10=058|
20150520-14:53:35.044: 8=FIX.4.4|9=54|35=0|34=110|49=LVBSG|52=20150520-14:53:35.044|56=CL02|10=161|
20150520-14:53:57.219: 8=FIX.4.4|9=0050|35=0|49=CL02|56=LVBSG|34=111|52=20150520-14:53:57|10=060|
20150520-14:54:36.043: 8=FIX.4.4|9=54|35=0|34=111|49=LVBSG|52=20150520-14:54:36.043|56=CL02|10=163|
20150520-14:54:57.218: 8=FIX.4.4|9=0050|35=0|49=CL02|56=LVBSG|34=112|52=20150520-14:54:57|10=062|
20150520-14:55:36.044: 8=FIX.4.4|9=54|35=0|34=112|49=LVBSG|52=20150520-14:55:36.044|56=CL02|10=166|
20150520-14:55:57.219: 8=FIX.4.4|9=0050|35=0|49=CL02|56=LVBSG|34=113|52=20150520-14:55:57|10=064|
20150520-14:56:36.044: 8=FIX.4.4|9=54|35=0|34=113|49=LVBSG|52=20150520-14:56:36.044|56=CL02|10=168|
20150520-14:56:57.220: 8=FIX.4.4|9=0050|35=0|49=CL02|56=LVBSG|34=114|52=20150520-14:56:57|10=066|
20150520-14:57:37.044: 8=FIX.4.4|9=54|35=0|34=114|49=LVBSG|52=20150520-14:57:37.044|56=CL02|10=171|
20150520-14:57:57.221: 8=FIX.4.4|9=0050|35=0|49=CL02|56=LVBSG|34=115|52=20150520-14:57:57|10=068|
20150520-14:58:37.044: 8=FIX.4.4|9=54|35=0|34=115|49=LVBSG|52=20150520-14:58:37.044|56=CL02|10=173|
20150520-14:58:57.221: 8=FIX.4.4|9=0050|35=0|49=CL02|56=LVBSG|34=116|52=20150520-14:58:57|10=070|
20150520-14:59:38.044: 8=FIX.4.4|9=54|35=0|34=116|49=LVBSG|52=20150520-14:59:38.044|56=CL02|10=176|
20150520-14:59:57.222: 8=FIX.4.4|9=0050|35=0|49=CL02|56=LVBSG|34=117|52=20150520-14:59:57|10=072|
20150520-15:00:39.044: 8=FIX.4.4|9=54|35=0|34=117|49=LVBSG|52=20150520-15:00:39.044|56=CL02|10=165|
20150520-15:00:57.223: 8=FIX.4.4|9=0050|35=0|49=CL02|56=LVBSG|34=118|52=20150520-15:00:57|10=060|
20150520-15:01:39.044: 8=FIX.4.4|9=54|35=0|34=118|49=LVBSG|52=20150520-15:01:39.044|56=CL02|10=167|
20150520-15:01:57.223: 8=FIX.4.4|9=0050|35=0|49=CL02|56=LVBSG|34=119|52=20150520-15:01:57|10=062|
20150520-15:02:40.044: 8=FIX.4.4|9=54|35=0|34=119|49=LVBSG|52=20150520-15:02:40.044|56=CL02|10=161|
20150520-15:02:57.235: 8=FIX.4.4|9=0050|35=0|49=CL02|56=LVBSG|34=120|52=20150520-15:02:57|10=055|
20150520-15:03:41.044: 8=FIX.4.4|9=54|35=0|34=120|49=LVBSG|52=20150520-15:03:41.044|56=CL02|10=155|
20150520-15:03:57.230: 8=FIX.4.4|9=0050|35=0|49=CL02|56=LVBSG|34=121|52=20150520-15:03:57|10=057|
20150520-15:04:41.044: 8=FIX.4.4|9=54|35=0|34=121|49=LVBSG|52=20150520-15:04:41.044|56=CL02|10=157|
20150520-15:04:57.228: 8=FIX.4.4|9=0050|35=0|49=CL02|56=LVBSG|34=122|52=20150520-15:04:57|10=059|
20150520-15:05:42.044: 8=FIX.4.4|9=54|35=0|34=122|49=LVBSG|52=20150520-15:05:42.044|56=CL02|10=160|
20150520-15:05:57.225: 8=FIX.4.4|9=0050|35=0|49=CL02|56=LVBSG|34=123|52=20150520-15:05:57|10=061|
20150520-15:06:43.043: 8=FIX.4.4|9=54|35=0|34=123|49=LVBSG|52=20150520-15:06:43.043|56=CL02|10=162|
20150520-15:06:57.226: 8=FIX.4.4|9=0050|35=0|49=CL02|56=LVBSG|34=124|52=20150520-15:06:57|10=063|
20150520-15:07:43.044: 8=FIX.4.4|9=54|35=0|34=124|49=LVBSG|52=20150520-15:07:43.044|56=CL02|10=165|
20150520-15:07:57.226: 8=FIX.4.4|9=0050|35=0|49=CL02|56=LVBSG|34=125|52=20150520-15:07:57|10=065|
20150520-15:08:44.043: 8=FIX.4.4|9=54|35=0|34=125|49=LVBSG|52=20150520-15:08:44.043|56=CL02|10=167|
20150520-15:08:57.228: 8=FIX.4.4|9=0050|35=0|49=CL02|56=LVBSG|34=126|52=20150520-15:08:57|10=067|
20150520-15:09:44.043: 8=FIX.4.4|9=54|35=0|34=126|49=LVBSG|52=20150520-15:09:44.043|56=CL02|10=169|
20150520-15:09:57.228: 8=FIX.4.4|9=0050|35=0|49=CL02|56=LVBSG|34=127|52=20150520-15:09:57|10=069|
20150520-15:10:44.043: 8=FIX.4.4|9=54|35=0|34=127|49=LVBSG|52=20150520-15:10:44.043|56=CL02|10=162|
20150520-15:10:57.235: 8=FIX.4.4|9=0050|35=0|49=CL02|56=LVBSG|34=128|52=20150520-15:10:57|10=062|
20150520-15:11:44.043: 8=FIX.4.4|9=54|35=0|34=128|49=LVBSG|52=20150520-15:11:44.043|56=CL02|10=164|
20150520-15:11:57.229: 8=FIX.4.4|9=0050|35=0|49=CL02|56=LVBSG|34=129|52=20150520-15:11:57|10=064|
20150520-15:12:44.044: 8=FIX.4.4|9=54|35=0|34=129|49=LVBSG|52=20150520-15:12:44.044|56=CL02|10=167|
20150520-15:12:57.229: 8=FIX.4.4|9=0050|35=0|49=CL02|56=LVBSG|34=130|52=20150520-15:12:57|10=057|
20150520-15:13:45.043: 8=FIX.4.4|9=54|35=0|34=130|49=LVBSG|52=20150520-15:13:45.043|56=CL02|10=160|
20150520-15:13:57.228: 8=FIX.4.4|9=0050|35=0|49=CL02|56=LVBSG|34=131|52=20150520-15:13:57|10=059|
20150520-15:14:45.043: 8=FIX.4.4|9=54|35=0|34=131|49=LVBSG|52=20150520-15:14:45.043|56=CL02|10=162|
20150520-15:14:57.235: 8=FIX.4.4|9=0050|35=0|49=CL02|56=LVBSG|34=132|52=20150520-15:14:57|10=061|
20150520-15:15:45.044: 8=FIX.4.4|9=54|35=0|34=132|49=LVBSG|52=20150520-15:15:45.044|56=CL02|10=165|
20150520-15:15:57.229: 8=FIX.4.4|9=0050|35=0|49=CL02|56=LVBSG|34=133|52=20150520-15:15:57|10=063|
20150520-15:16:46.043: 8=FIX.4.4|9=54|35=0|34=133|49=LVBSG|52=20150520-15:16:46.043|56=CL02|10=167|
20150520-15:16:57.230: 8=FIX.4.4|9=0050|35=0|49=CL02|56=LVBSG|34=134|52=20150520-15:16:57|10=065|
20150520-15:17:46.044: 8=FIX.4.4|9=54|35=0|34=134|49=LVBSG|52=20150520-15:17:46.044|56=CL02|10=170|
20150520-15:17:57.230: 8=FIX.4.4|9=0050|35=0|49=CL02|56=LVBSG|34=135|52=20150520-15:17:57|10=067|
20150520-15:18:47.043: 8=FIX.4.4|9=54|35=0|34=135|49=LVBSG|52=20150520-15:18:47.043|56=CL02|10=172|
20150520-15:18:57.229: 8=FIX.4.4|9=0050|35=0|49=CL02|56=LVBSG|34=136|52=20150520-15:18:57|10=069|
20150520-15:19:47.044: 8=FIX.4.4|9=54|35=0|34=136|49=LVBSG|52=20150520-15:19:47.044|56=CL02|10=175|
20150520-15:19:57.229: 8=FIX.4.4|9=0050|35=0|49=CL02|56=LVBSG|34=137|52=20150520-15:19:57|10=071|
20150520-15:20:48.043: 8=FIX.4.4|9=54|35=0|34=137|49=LVBSG|52=20150520-15:20:48.043|56=CL02|10=168|
20150520-15:20:57.230: 8=FIX.4.4|9=0050|35=0|49=CL02|56=LVBSG|34=138|52=20150520-15:20:57|10=064|
20150520-15:21:48.043: 8=FIX.4.4|9=54|35=0|34=138|49=LVBSG|52=20150520-15:21:48.043|56=CL02|10=170|
20150520-15:21:57.230: 8=FIX.4.4|9=0050|35=0|49=CL02|56=LVBSG|34=139|52=20150520-15:21:57|10=066|
20150520-15:22:48.043: 8=FIX.4.4|9=54|35=0|34=139|49=LVBSG|52=20150520-15:22:48.043|56=CL02|10=172|
20150520-15:22:57.230: 8=FIX.4.4|9=0050|35=0|49=CL02|56=LVBSG|34=140|52=20150520-15:22:57|10=059|
20150520-15:23:48.044: 8=FIX.4.4|9=54|35=0|34=140|49=LVBSG|52=20150520-15:23:48.044|56=CL02|10=166|
20150520-15:23:57.231: 8=FIX.4.4|9=0050|35=0|49=CL02|56=LVBSG|34=141|52=20150520-15:23:57|10=061|
20150520-15:24:49.044: 8=FIX.4.4|9=54|35=0|34=141|49=LVBSG|52=20150520-15:24:49.044|56=CL02|10=169|
20150520-15:24:57.232: 8=FIX.4.4|9=0050|35=0|49=CL02|56=LVBSG|34=142|52=20150520-15:24:57|10=063|
20150520-15:25:50.043: 8=FIX.4.4|9=54|35=0|34=142|49=LVBSG|52=20150520-15:25:50.043|56=CL02|10=162|
20150520-15:25:57.238: 8=FIX.4.4|9=0050|35=0|49=CL02|56=LVBSG|34=143|52=20150520-15:25:57|10=065|
20150520-15:26:50.043: 8=FIX.4.4|9=54|35=0|34=143|49=LVBSG|52=20150520-15:26:50.043|56=CL02|10=164|
20150520-15:26:57.231: 8=FIX.4.4|9=0050|35=0|49=CL02|56=LVBSG|34=144|52=20150520-15:26:57|10=067|
20150520-15:27:50.044: 8=FIX.4.4|9=54|35=0|34=144|49=LVBSG|52=20150520-15:27:50.044|56=CL02|10=167|
20150520-15:27:57.232: 8=FIX.4.4|9=0050|35=0|49=CL02|56=LVBSG|34=145|52=20150520-15:27:57|10=069|
20150520-15:28:50.044: 8=FIX.4.4|9=54|35=0|34=145|49=LVBSG|52=20150520-15:28:50.044|56=CL02|10=169|
20150520-15:28:57.231: 8=FIX.4.4|9=0050|35=0|49=CL02|56=LVBSG|34=146|52=20150520-15:28:57|10=071|
20150520-15:29:51.044: 8=FIX.4.4|9=54|35=0|34=146|49=LVBSG|52=20150520-15:29:51.044|56=CL02|10=172|
20150520-15:29:57.231: 8=FIX.4.4|9=0050|35=0|49=CL02|56=LVBSG|34=147|52=20150520-15:29:57|10=073|
20150520-15:30:52.043: 8=FIX.4.4|9=54|35=0|34=147|49=LVBSG|52=20150520-15:30:52.043|56=CL02|10=165|
20150520-15:30:57.232: 8=FIX.4.4|9=0050|35=0|49=CL02|56=LVBSG|34=148|52=20150520-15:30:57|10=066|
20150520-15:31:52.043: 8=FIX.4.4|9=54|35=0|34=148|49=LVBSG|52=20150520-15:31:52.043|56=CL02|10=167|
20150520-15:31:57.232: 8=FIX.4.4|9=0050|35=0|49=CL02|56=LVBSG|34=149|52=20150520-15:31:57|10=068|
20150520-15:32:52.043: 8=FIX.4.4|9=54|35=0|34=149|49=LVBSG|52=20150520-15:32:52.043|56=CL02|10=169|
20150520-15:32:57.232: 8=FIX.4.4|9=0050|35=0|49=CL02|56=LVBSG|34=150|52=20150520-15:32:57|10=061|
20150520-15:33:52.044: 8=FIX.4.4|9=54|35=0|34=150|49=LVBSG|52=20150520-15:33:52.044|56=CL02|10=163|
20150520-15:33:57.233: 8=FIX.4.4|9=0050|35=0|49=CL02|56=LVBSG|34=151|52=20150520-15:33:57|10=063|
20150520-15:34:52.044: 8=FIX.4.4|9=54|35=0|34=151|49=LVBSG|52=20150520-15:34:52.044|56=CL02|10=165|
20150520-15:34:57.234: 8=FIX.4.4|9=0050|35=0|49=CL02|56=LVBSG|34=152|52=20150520-15:34:57|10=065|
20150520-15:35:53.043: 8=FIX.4.4|9=54|35=0|34=152|49=LVBSG|52=20150520-15:35:53.043|56=CL02|10=167|
20150520-15:35:57.235: 8=FIX.4.4|9=0050|35=0|49=CL02|56=LVBSG|34=153|52=20150520-15:35:57|10=067|
20150520-15:36:53.044: 8=FIX.4.4|9=54|35=0|34=153|49=LVBSG|52=20150520-15:36:53.044|56=CL02|10=170|
20150520-15:36:57.235: 8=FIX.4.4|9=0050|35=0|49=CL02|56=LVBSG|34=154|52=20150520-15:36:57|10=069|
20150520-15:37:54.043: 8=FIX.4.4|9=54|35=0|34=154|49=LVBSG|52=20150520-15:37:54.043|56=CL02|10=172|
20150520-15:37:57.235: 8=FIX.4.4|9=0050|35=0|49=CL02|56=LVBSG|34=155|52=20150520-15:37:57|10=071|
20150520-15:38:54.043: 8=FIX.4.4|9=54|35=0|34=155|49=LVBSG|52=20150520-15:38:54.043|56=CL02|10=174|
20150520-15:38:57.235: 8=FIX.4.4|9=0050|35=0|49=CL02|56=LVBSG|34=156|52=20150520-15:38:57|10=073|
20150520-15:39:54.043: 8=FIX.4.4|9=54|35=0|34=156|49=LVBSG|52=20150520-15:39:54.043|56=CL02|10=176|
20150520-15:39:57.236: 8=FIX.4.4|9=0050|35=0|49=CL02|56=LVBSG|34=157|52=20150520-15:39:57|10=075|
20150520-15:40:54.043: 8=FIX.4.4|9=54|35=0|34=157|49=LVBSG|52=20150520-15:40:54.043|56=CL02|10=169|
20150520-15:40:57.236: 8=FIX.4.4|9=0050|35=0|49=CL02|56=LVBSG|34=158|52=20150520-15:40:57|10=068|
20150520-15:41:54.044: 8=FIX.4.4|9=54|35=0|34=158|49=LVBSG|52=20150520-15:41:54.044|56=CL02|10=172|
20150520-15:41:57.237: 8=FIX.4.4|9=0050|35=0|49=CL02|56=LVBSG|34=159|52=20150520-15:41:57|10=070|
20150520-15:42:55.044: 8=FIX.4.4|9=54|35=0|34=159|49=LVBSG|52=20150520-15:42:55.044|56=CL02|10=175|
20150520-15:42:57.237: 8=FIX.4.4|9=0050|35=0|49=CL02|56=LVBSG|34=160|52=20150520-15:42:57|10=063|
20150520-15:43:56.044: 8=FIX.4.4|9=54|35=0|34=160|49=LVBSG|52=20150520-15:43:56.044|56=CL02|10=169|
20150520-15:43:57.238: 8=FIX.4.4|9=0050|35=0|49=CL02|56=LVBSG|34=161|52=20150520-15:43:57|10=065|
20150520-15:44:57.043: 8=FIX.4.4|9=54|35=0|34=161|49=LVBSG|52=20150520-15:44:57.043|56=CL02|10=171|
20150520-15:44:57.238: 8=FIX.4.4|9=0050|35=0|49=CL02|56=LVBSG|34=162|52=20150520-15:44:57|10=067|
20150520-15:45:57.043: 8=FIX.4.4|9=54|35=0|34=162|49=LVBSG|52=20150520-15:45:57.043|56=CL02|10=173|
20150520-15:45:57.238: 8=FIX.4.4|9=0050|35=0|49=CL02|56=LVBSG|34=163|52=20150520-15:45:57|10=069|
20150520-15:46:57.043: 8=FIX.4.4|9=54|35=0|34=163|49=LVBSG|52=20150520-15:46:57.043|56=CL02|10=175|
20150520-15:46:57.238: 8=FIX.4.4|9=0050|35=0|49=CL02|56=LVBSG|34=164|52=20150520-15:46:57|10=071|
20150520-15:47:57.043: 8=FIX.4.4|9=54|35=0|34=164|49=LVBSG|52=20150520-15:47:57.043|56=CL02|10=177|
20150520-15:47:57.239: 8=FIX.4.4|9=0050|35=0|49=CL02|56=LVBSG|34=165|52=20150520-15:47:57|10=073|
20150520-15:48:57.044: 8=FIX.4.4|9=54|35=0|34=165|49=LVBSG|52=20150520-15:48:57.044|56=CL02|10=180|
20150520-15:48:57.238: 8=FIX.4.4|9=0050|35=0|49=CL02|56=LVBSG|34=166|52=20150520-15:48:57|10=075|
20150520-15:49:57.044: 8=FIX.4.4|9=54|35=0|34=166|49=LVBSG|52=20150520-15:49:57.044|56=CL02|10=182|
20150520-15:49:57.239: 8=FIX.4.4|9=0050|35=0|49=CL02|56=LVBSG|34=167|52=20150520-15:49:57|10=077|
20150520-15:50:57.241: 8=FIX.4.4|9=0050|35=0|49=CL02|56=LVBSG|34=168|52=20150520-15:50:57|10=070|
20150520-15:50:57.242: 8=FIX.4.4|9=54|35=0|34=167|49=LVBSG|52=20150520-15:50:57.242|56=CL02|10=175|
20150520-15:51:57.240: 8=FIX.4.4|9=0050|35=0|49=CL02|56=LVBSG|34=169|52=20150520-15:51:57|10=072|
20150520-15:51:58.043: 8=FIX.4.4|9=54|35=0|34=168|49=LVBSG|52=20150520-15:51:58.043|56=CL02|10=177|
20150520-15:52:57.239: 8=FIX.4.4|9=0050|35=0|49=CL02|56=LVBSG|34=170|52=20150520-15:52:57|10=065|
20150520-15:52:58.044: 8=FIX.4.4|9=54|35=0|34=169|49=LVBSG|52=20150520-15:52:58.044|56=CL02|10=180|
20150520-15:53:57.240: 8=FIX.4.4|9=0050|35=0|49=CL02|56=LVBSG|34=171|52=20150520-15:53:57|10=067|
20150520-15:53:59.044: 8=FIX.4.4|9=54|35=0|34=170|49=LVBSG|52=20150520-15:53:59.044|56=CL02|10=174|
20150520-15:54:57.239: 8=FIX.4.4|9=0050|35=0|49=CL02|56=LVBSG|34=172|52=20150520-15:54:57|10=069|
20150520-15:55:00.044: 8=FIX.4.4|9=54|35=0|34=171|49=LVBSG|52=20150520-15:55:00.044|56=CL02|10=163|
20150520-15:55:57.241: 8=FIX.4.4|9=0050|35=0|49=CL02|56=LVBSG|34=173|52=20150520-15:55:57|10=071|
20150520-15:56:01.044: 8=FIX.4.4|9=54|35=0|34=172|49=LVBSG|52=20150520-15:56:01.044|56=CL02|10=166|
20150520-15:56:57.242: 8=FIX.4.4|9=0050|35=0|49=CL02|56=LVBSG|34=174|52=20150520-15:56:57|10=073|
20150520-15:57:01.044: 8=FIX.4.4|9=54|35=0|34=173|49=LVBSG|52=20150520-15:57:01.044|56=CL02|10=168|
20150520-15:57:57.243: 8=FIX.4.4|9=0050|35=0|49=CL02|56=LVBSG|34=175|52=20150520-15:57:57|10=075|
20150520-15:58:02.043: 8=FIX.4.4|9=54|35=0|34=174|49=LVBSG|52=20150520-15:58:02.043|56=CL02|10=170|
20150520-15:58:57.240: 8=FIX.4.4|9=0050|35=0|49=CL02|56=LVBSG|34=176|52=20150520-15:58:57|10=077|
20150520-15:59:02.043: 8=FIX.4.4|9=54|35=0|34=175|49=LVBSG|52=20150520-15:59:02.043|56=CL02|10=172|
20150520-15:59:57.239: 8=FIX.4.4|9=0050|35=0|49=CL02|56=LVBSG|34=177|52=20150520-15:59:57|10=079|
20150520-16:00:02.044: 8=FIX.4.4|9=54|35=0|34=176|49=LVBSG|52=20150520-16:00:02.044|56=CL02|10=161|
20150520-16:00:57.240: 8=FIX.4.4|9=0050|35=0|49=CL02|56=LVBSG|34=178|52=20150520-16:00:57|10=067|
20150520-16:01:03.044: 8=FIX.4.4|9=54|35=0|34=177|49=LVBSG|52=20150520-16:01:03.044|56=CL02|10=164|
20150520-16:01:57.241: 8=FIX.4.4|9=0050|35=0|49=CL02|56=LVBSG|34=179|52=20150520-16:01:57|10=069|
20150520-16:02:04.044: 8=FIX.4.4|9=54|35=0|34=178|49=LVBSG|52=20150520-16:02:04.044|56=CL02|10=167|
20150520-16:02:57.251: 8=FIX.4.4|9=0050|35=0|49=CL02|56=LVBSG|34=180|52=20150520-16:02:57|10=062|
20150520-16:03:04.044: 8=FIX.4.4|9=54|35=0|34=179|49=LVBSG|52=20150520-16:03:04.044|56=CL02|10=169|
20150520-16:03:57.242: 8=FIX.4.4|9=0050|35=0|49=CL02|56=LVBSG|34=181|52=20150520-16:03:57|10=064|
20150520-16:04:04.044: 8=FIX.4.4|9=54|35=0|34=180|49=LVBSG|52=20150520-16:04:04.044|56=CL02|10=162|
20150520-16:04:57.256: 8=FIX.4.4|9=0050|35=0|49=CL02|56=LVBSG|34=182|52=20150520-16:04:57|10=066|
20150520-16:05:05.044: 8=FIX.4.4|9=54|35=0|34=181|49=LVBSG|52=20150520-16:05:05.044|56=CL02|10=165|
20150520-16:05:57.243: 8=FIX.4.4|9=0050|35=0|49=CL02|56=LVBSG|34=183|52=20150520-16:05:57|10=068|
20150520-16:06:06.044: 8=FIX.4.4|9=54|35=0|34=182|49=LVBSG|52=20150520-16:06:06.044|56=CL02|10=168|
20150520-16:06:57.242: 8=FIX.4.4|9=0050|35=0|49=CL02|56=LVBSG|34=184|52=20150520-16:06:57|10=070|
20150520-16:07:06.044: 8=FIX.4.4|9=54|35=0|34=183|49=LVBSG|52=20150520-16:07:06.044|56=CL02|10=170|
20150520-16:07:57.252: 8=FIX.4.4|9=0050|35=0|49=CL02|56=LVBSG|34=185|52=20150520-16:07:57|10=072|
20150520-16:08:07.044: 8=FIX.4.4|9=54|35=0|34=184|49=LVBSG|52=20150520-16:08:07.043|56=CL02|10=172|
20150520-16:08:57.241: 8=FIX.4.4|9=0050|35=0|49=CL02|56=LVBSG|34=186|52=20150520-16:08:57|10=074|
20150520-16:09:07.043: 8=FIX.4.4|9=54|35=0|34=185|49=LVBSG|52=20150520-16:09:07.043|56=CL02|10=174|
20150520-16:09:57.242: 8=FIX.4.4|9=0050|35=0|49=CL02|56=LVBSG|34=187|52=20150520-16:09:57|10=076|
20150520-16:10:07.043: 8=FIX.4.4|9=54|35=0|34=186|49=LVBSG|52=20150520-16:10:07.043|56=CL02|10=167|
20150520-16:10:57.243: 8=FIX.4.4|9=0050|35=0|49=CL02|56=LVBSG|34=188|52=20150520-16:10:57|10=069|
20150520-16:11:07.044: 8=FIX.4.4|9=54|35=0|34=187|49=LVBSG|52=20150520-16:11:07.044|56=CL02|10=170|
20150520-16:11:57.242: 8=FIX.4.4|9=0050|35=0|49=CL02|56=LVBSG|34=189|52=20150520-16:11:57|10=071|
20150520-16:12:07.044: 8=FIX.4.4|9=54|35=0|34=188|49=LVBSG|52=20150520-16:12:07.044|56=CL02|10=172|
20150520-16:12:57.242: 8=FIX.4.4|9=0050|35=0|49=CL02|56=LVBSG|34=190|52=20150520-16:12:57|10=064|
20150520-16:13:07.044: 8=FIX.4.4|9=54|35=0|34=189|49=LVBSG|52=20150520-16:13:07.044|56=CL02|10=174|
20150520-16:13:57.245: 8=FIX.4.4|9=0050|35=0|49=CL02|56=LVBSG|34=191|52=20150520-16:13:57|10=066|
20150520-16:14:07.044: 8=FIX.4.4|9=54|35=0|34=190|49=LVBSG|52=20150520-16:14:07.044|56=CL02|10=167|
20150520-16:14:57.243: 8=FIX.4.4|9=0050|35=0|49=CL02|56=LVBSG|34=192|52=20150520-16:14:57|10=068|
20150520-16:15:07.044: 8=FIX.4.4|9=54|35=0|34=191|49=LVBSG|52=20150520-16:15:07.044|56=CL02|10=169|
20150520-16:15:57.245: 8=FIX.4.4|9=0050|35=0|49=CL02|56=LVBSG|34=193|52=20150520-16:15:57|10=070|
20150520-16:16:07.044: 8=FIX.4.4|9=54|35=0|34=192|49=LVBSG|52=20150520-16:16:07.044|56=CL02|10=171|
20150520-16:16:57.243: 8=FIX.4.4|9=0050|35=0|49=CL02|56=LVBSG|34=194|52=20150520-16:16:57|10=072|
20150520-16:17:08.044: 8=FIX.4.4|9=54|35=0|34=193|49=LVBSG|52=20150520-16:17:08.044|56=CL02|10=174|
20150520-16:17:57.243: 8=FIX.4.4|9=0050|35=0|49=CL02|56=LVBSG|34=195|52=20150520-16:17:57|10=074|
20150520-16:18:09.044: 8=FIX.4.4|9=54|35=0|34=194|49=LVBSG|52=20150520-16:18:09.044|56=CL02|10=177|
20150520-16:18:57.243: 8=FIX.4.4|9=0050|35=0|49=CL02|56=LVBSG|34=196|52=20150520-16:18:57|10=076|
20150520-16:19:10.044: 8=FIX.4.4|9=54|35=0|34=195|49=LVBSG|52=20150520-16:19:10.044|56=CL02|10=171|
20150520-16:19:57.244: 8=FIX.4.4|9=0050|35=0|49=CL02|56=LVBSG|34=197|52=20150520-16:19:57|10=078|
20150520-16:20:11.044: 8=FIX.4.4|9=54|35=0|34=196|49=LVBSG|52=20150520-16:20:11.044|56=CL02|10=165|
20150520-16:20:57.245: 8=FIX.4.4|9=0050|35=0|49=CL02|56=LVBSG|34=198|52=20150520-16:20:57|10=071|
20150520-16:21:11.044: 8=FIX.4.4|9=54|35=0|34=197|49=LVBSG|52=20150520-16:21:11.044|56=CL02|10=167|
20150520-16:21:57.245: 8=FIX.4.4|9=0050|35=0|49=CL02|56=LVBSG|34=199|52=20150520-16:21:57|10=073|
20150520-16:22:12.044: 8=FIX.4.4|9=54|35=0|34=198|49=LVBSG|52=20150520-16:22:12.044|56=CL02|10=170|
20150520-16:22:57.246: 8=FIX.4.4|9=0050|35=0|49=CL02|56=LVBSG|34=200|52=20150520-16:22:57|10=057|
20150520-16:23:13.044: 8=FIX.4.4|9=54|35=0|34=199|49=LVBSG|52=20150520-16:23:13.044|56=CL02|10=173|
20150520-16:23:57.246: 8=FIX.4.4|9=0050|35=0|49=CL02|56=LVBSG|34=201|52=20150520-16:23:57|10=059|
20150520-16:24:14.043: 8=FIX.4.4|9=54|35=0|34=200|49=LVBSG|52=20150520-16:24:14.043|56=CL02|10=157|
20150520-16:24:57.250: 8=FIX.4.4|9=0050|35=0|49=CL02|56=LVBSG|34=202|52=20150520-16:24:57|10=061|
20150520-16:25:14.043: 8=FIX.4.4|9=54|35=0|34=201|49=LVBSG|52=20150520-16:25:14.043|56=CL02|10=159|
20150520-16:25:57.247: 8=FIX.4.4|9=0050|35=0|49=CL02|56=LVBSG|34=203|52=20150520-16:25:57|10=063|
20150520-16:26:14.043: 8=FIX.4.4|9=54|35=0|34=202|49=LVBSG|52=20150520-16:26:14.043|56=CL02|10=161|
20150520-16:26:57.247: 8=FIX.4.4|9=0050|35=0|49=CL02|56=LVBSG|34=204|52=20150520-16:26:57|10=065|
20150520-16:27:14.043: 8=FIX.4.4|9=54|35=0|34=203|49=LVBSG|52=20150520-16:27:14.043|56=CL02|10=163|
20150520-16:27:57.248: 8=FIX.4.4|9=0050|35=0|49=CL02|56=LVBSG|34=205|52=20150520-16:27:57|10=067|
20150520-16:28:14.043: 8=FIX.4.4|9=54|35=0|34=204|49=LVBSG|52=20150520-16:28:14.043|56=CL02|10=165|
20150520-16:28:57.266: 8=FIX.4.4|9=0050|35=0|49=CL02|56=LVBSG|34=206|52=20150520-16:28:57|10=069|
20150520-16:29:14.044: 8=FIX.4.4|9=54|35=0|34=205|49=LVBSG|52=20150520-16:29:14.044|56=CL02|10=168|
20150520-16:29:57.253: 8=FIX.4.4|9=0050|35=0|49=CL02|56=LVBSG|34=207|52=20150520-16:29:57|10=071|
20150520-16:30:14.044: 8=FIX.4.4|9=54|35=0|34=206|49=LVBSG|52=20150520-16:30:14.044|56=CL02|10=161|
20150520-16:30:57.249: 8=FIX.4.4|9=0050|35=0|49=CL02|56=LVBSG|34=208|52=20150520-16:30:57|10=064|
20150520-16:31:15.044: 8=FIX.4.4|9=54|35=0|34=207|49=LVBSG|52=20150520-16:31:15.044|56=CL02|10=164|
20150520-16:31:57.249: 8=FIX.4.4|9=0050|35=0|49=CL02|56=LVBSG|34=209|52=20150520-16:31:57|10=066|
20150520-16:32:16.044: 8=FIX.4.4|9=54|35=0|34=208|49=LVBSG|52=20150520-16:32:16.044|56=CL02|10=167|
20150520-16:32:57.248: 8=FIX.4.4|9=0050|35=0|49=CL02|56=LVBSG|34=210|52=20150520-16:32:57|10=059|
20150520-16:33:17.044: 8=FIX.4.4|9=54|35=0|34=209|49=LVBSG|52=20150520-16:33:17.044|56=CL02|10=170|
20150520-16:33:57.253: 8=FIX.4.4|9=0050|35=0|49=CL02|56=LVBSG|34=211|52=20150520-16:33:57|10=061|
20150520-16:34:18.043: 8=FIX.4.4|9=54|35=0|34=210|49=LVBSG|52=20150520-16:34:18.043|56=CL02|10=163|
20150520-16:34:57.249: 8=FIX.4.4|9=0050|35=0|49=CL02|56=LVBSG|34=212|52=20150520-16:34:57|10=063|
20150520-16:35:18.044: 8=FIX.4.4|9=54|35=0|34=211|49=LVBSG|52=20150520-16:35:18.044|56=CL02|10=166|
20150520-16:35:57.250: 8=FIX.4.4|9=0050|35=0|49=CL02|56=LVBSG|34=213|52=20150520-16:35:57|10=065|
20150520-16:36:18.044: 8=FIX.4.4|9=54|35=0|34=212|49=LVBSG|52=20150520-16:36:18.044|56=CL02|10=168|
20150520-16:36:57.250: 8=FIX.4.4|9=0050|35=0|49=CL02|56=LVBSG|34=214|52=20150520-16:36:57|10=067|
20150520-16:37:18.044: 8=FIX.4.4|9=54|35=0|34=213|49=LVBSG|52=20150520-16:37:18.044|56=CL02|10=170|
20150520-16:37:57.251: 8=FIX.4.4|9=0050|35=0|49=CL02|56=LVBSG|34=215|52=20150520-16:37:57|10=069|
20150520-16:38:19.044: 8=FIX.4.4|9=54|35=0|34=214|49=LVBSG|52=20150520-16:38:19.044|56=CL02|10=173|
20150520-16:38:57.250: 8=FIX.4.4|9=0050|35=0|49=CL02|56=LVBSG|34=216|52=20150520-16:38:57|10=071|
20150520-16:39:20.046: 8=FIX.4.4|9=54|35=0|34=215|49=LVBSG|52=20150520-16:39:20.046|56=CL02|10=169|
20150520-16:39:57.250: 8=FIX.4.4|9=0050|35=0|49=CL02|56=LVBSG|34=217|52=20150520-16:39:57|10=073|
20150520-16:40:21.044: 8=FIX.4.4|9=54|35=0|34=216|49=LVBSG|52=20150520-16:40:21.044|56=CL02|10=161|
20150520-16:40:57.251: 8=FIX.4.4|9=0050|35=0|49=CL02|56=LVBSG|34=218|52=20150520-16:40:57|10=066|
20150520-16:41:22.044: 8=FIX.4.4|9=54|35=0|34=217|49=LVBSG|52=20150520-16:41:22.044|56=CL02|10=164|
20150520-16:41:57.251: 8=FIX.4.4|9=0050|35=0|49=CL02|56=LVBSG|34=219|52=20150520-16:41:57|10=068|
20150520-16:42:23.043: 8=FIX.4.4|9=54|35=0|34=218|49=LVBSG|52=20150520-16:42:23.043|56=CL02|10=166|
20150520-16:42:57.251: 8=FIX.4.4|9=0050|35=0|49=CL02|56=LVBSG|34=220|52=20150520-16:42:57|10=061|
20150520-16:43:23.043: 8=FIX.4.4|9=54|35=0|34=219|49=LVBSG|52=20150520-16:43:23.043|56=CL02|10=168|
20150520-16:43:57.252: 8=FIX.4.4|9=0050|35=0|49=CL02|56=LVBSG|34=221|52=20150520-16:43:57|10=063|
20150520-16:44:23.043: 8=FIX.4.4|9=54|35=0|34=220|49=LVBSG|52=20150520-16:44:23.043|56=CL02|10=161|
20150520-16:44:57.254: 8=FIX.4.4|9=0050|35=0|49=CL02|56=LVBSG|34=222|52=20150520-16:44:57|10=065|
20150520-16:45:23.043: 8=FIX.4.4|9=54|35=0|34=221|49=LVBSG|52=20150520-16:45:23.043|56=CL02|10=163|
20150520-16:45:57.252: 8=FIX.4.4|9=0050|35=0|49=CL02|56=LVBSG|34=223|52=20150520-16:45:57|10=067|
20150520-16:46:23.044: 8=FIX.4.4|9=54|35=0|34=222|49=LVBSG|52=20150520-16:46:23.044|56=CL02|10=166|
20150520-16:46:57.253: 8=FIX.4.4|9=0050|35=0|49=CL02|56=LVBSG|34=224|52=20150520-16:46:57|10=069|
20150520-16:47:24.044: 8=FIX.4.4|9=54|35=0|34=223|49=LVBSG|52=20150520-16:47:24.044|56=CL02|10=169|
20150520-16:47:57.253: 8=FIX.4.4|9=0050|35=0|49=CL02|56=LVBSG|34=225|52=20150520-16:47:57|10=071|
20150520-16:48:25.043: 8=FIX.4.4|9=54|35=0|34=224|49=LVBSG|52=20150520-16:48:25.043|56=CL02|10=171|
20150520-16:48:57.254: 8=FIX.4.4|9=0050|35=0|49=CL02|56=LVBSG|34=226|52=20150520-16:48:57|10=073|
20150520-16:49:25.044: 8=FIX.4.4|9=54|35=0|34=225|49=LVBSG|52=20150520-16:49:25.044|56=CL02|10=174|
20150520-16:49:57.254: 8=FIX.4.4|9=0050|35=0|49=CL02|56=LVBSG|34=227|52=20150520-16:49:57|10=075|
20150520-16:50:25.044: 8=FIX.4.4|9=54|35=0|34=226|49=LVBSG|52=20150520-16:50:25.044|56=CL02|10=167|
20150520-16:50:57.253: 8=FIX.4.4|9=0050|35=0|49=CL02|56=LVBSG|34=228|52=20150520-16:50:57|10=068|
20150520-16:51:25.044: 8=FIX.4.4|9=54|35=0|34=227|49=LVBSG|52=20150520-16:51:25.044|56=CL02|10=169|
20150520-16:51:57.254: 8=FIX.4.4|9=0050|35=0|49=CL02|56=LVBSG|34=229|52=20150520-16:51:57|10=070|
20150520-16:52:26.043: 8=FIX.4.4|9=54|35=0|34=228|49=LVBSG|52=20150520-16:52:26.043|56=CL02|10=171|
20150520-16:52:57.254: 8=FIX.4.4|9=0050|35=0|49=CL02|56=LVBSG|34=230|52=20150520-16:52:57|10=063|
20150520-16:53:26.043: 8=FIX.4.4|9=54|35=0|34=229|49=LVBSG|52=20150520-16:53:26.043|56=CL02|10=173|
20150520-16:53:57.255: 8=FIX.4.4|9=0050|35=0|49=CL02|56=LVBSG|34=231|52=20150520-16:53:57|10=065|
20150520-16:54:26.044: 8=FIX.4.4|9=54|35=0|34=230|49=LVBSG|52=20150520-16:54:26.044|56=CL02|10=167|
20150520-16:54:57.273: 8=FIX.4.4|9=0050|35=0|49=CL02|56=LVBSG|34=232|52=20150520-16:54:57|10=067|
20150520-16:55:27.043: 8=FIX.4.4|9=54|35=0|34=231|49=LVBSG|52=20150520-16:55:27.043|56=CL02|10=169|
20150520-16:55:57.257: 8=FIX.4.4|9=0050|35=0|49=CL02|56=LVBSG|34=233|52=20150520-16:55:57|10=069|
20150520-16:56:27.044: 8=FIX.4.4|9=54|35=0|34=232|49=LVBSG|52=20150520-16:56:27.044|56=CL02|10=172|
20150520-16:56:57.256: 8=FIX.4.4|9=0050|35=0|49=CL02|56=LVBSG|34=234|52=20150520-16:56:57|10=071|
20150520-16:57:27.044: 8=FIX.4.4|9=54|35=0|34=233|49=LVBSG|52=20150520-16:57:27.044|56=CL02|10=174|
20150520-16:57:57.256: 8=FIX.4.4|9=0050|35=0|49=CL02|56=LVBSG|34=235|52=20150520-16:57:57|10=073|
20150520-16:58:28.043: 8=FIX.4.4|9=54|35=0|34=234|49=LVBSG|52=20150520-16:58:28.043|56=CL02|10=176|
20150520-16:58:57.258: 8=FIX.4.4|9=0050|35=0|49=CL02|56=LVBSG|34=236|52=20150520-16:58:57|10=075|
20150520-16:59:28.044: 8=FIX.4.4|9=54|35=0|34=235|49=LVBSG|52=20150520-16:59:28.044|56=CL02|10=179|
20150520-16:59:57.258: 8=FIX.4.4|9=0050|35=0|49=CL02|56=LVBSG|34=237|52=20150520-16:59:57|10=077|
20150520-17:00:29.044: 8=FIX.4.4|9=54|35=0|34=236|49=LVBSG|52=20150520-17:00:29.044|56=CL02|10=168|
20150520-17:00:57.258: 8=FIX.4.4|9=0050|35=0|49=CL02|56=LVBSG|34=238|52=20150520-17:00:57|10=065|
20150520-17:01:29.044: 8=FIX.4.4|9=54|35=0|34=237|49=LVBSG|52=20150520-17:01:29.044|56=CL02|10=170|
20150520-17:01:57.260: 8=FIX.4.4|9=0050|35=0|49=CL02|56=LVBSG|34=239|52=20150520-17:01:57|10=067|
20150520-17:02:30.044: 8=FIX.4.4|9=54|35=0|34=238|49=LVBSG|52=20150520-17:02:30.044|56=CL02|10=164|
20150520-17:02:57.259: 8=FIX.4.4|9=0050|35=0|49=CL02|56=LVBSG|34=240|52=20150520-17:02:57|10=060|
20150520-17:03:31.043: 8=FIX.4.4|9=54|35=0|34=239|49=LVBSG|52=20150520-17:03:31.043|56=CL02|10=166|
20150520-17:03:57.265: 8=FIX.4.4|9=0050|35=0|49=CL02|56=LVBSG|34=241|52=20150520-17:03:57|10=062|
20150520-17:04:31.044: 8=FIX.4.4|9=54|35=0|34=240|49=LVBSG|52=20150520-17:04:31.043|56=CL02|10=159|
20150520-17:04:57.258: 8=FIX.4.4|9=0050|35=0|49=CL02|56=LVBSG|34=242|52=20150520-17:04:57|10=064|
20150520-17:05:31.044: 8=FIX.4.4|9=54|35=0|34=241|49=LVBSG|52=20150520-17:05:31.044|56=CL02|10=162|
20150520-17:05:57.259: 8=FIX.4.4|9=0050|35=0|49=CL02|56=LVBSG|34=243|52=20150520-17:05:57|10=066|
20150520-17:06:31.044: 8=FIX.4.4|9=54|35=0|34=242|49=LVBSG|52=20150520-17:06:31.044|56=CL02|10=164|
20150520-17:06:57.260: 8=FIX.4.4|9=0050|35=0|49=CL02|56=LVBSG|34=244|52=20150520-17:06:57|10=068|
20150520-17:07:32.043: 8=FIX.4.4|9=54|35=0|34=243|49=LVBSG|52=20150520-17:07:32.043|56=CL02|10=166|
20150520-17:07:57.259: 8=FIX.4.4|9=0050|35=0|49=CL02|56=LVBSG|34=245|52=20150520-17:07:57|10=070|
20150520-17:08:32.043: 8=FIX.4.4|9=54|35=0|34=244|49=LVBSG|52=20150520-17:08:32.043|56=CL02|10=168|
20150520-17:08:57.260: 8=FIX.4.4|9=0050|35=0|49=CL02|56=LVBSG|34=246|52=20150520-17:08:57|10=072|
20150520-17:09:32.043: 8=FIX.4.4|9=54|35=0|34=245|49=LVBSG|52=20150520-17:09:32.043|56=CL02|10=170|
20150520-17:09:57.260: 8=FIX.4.4|9=0050|35=0|49=CL02|56=LVBSG|34=247|52=20150520-17:09:57|10=074|
20150520-17:10:32.043: 8=FIX.4.4|9=54|35=0|34=246|49=LVBSG|52=20150520-17:10:32.043|56=CL02|10=163|
20150520-17:10:57.262: 8=FIX.4.4|9=0050|35=0|49=CL02|56=LVBSG|34=248|52=20150520-17:10:57|10=067|
20150520-17:11:32.044: 8=FIX.4.4|9=54|35=0|34=247|49=LVBSG|52=20150520-17:11:32.044|56=CL02|10=166|
20150520-17:11:57.261: 8=FIX.4.4|9=0050|35=0|49=CL02|56=LVBSG|34=249|52=20150520-17:11:57|10=069|
20150520-17:12:33.044: 8=FIX.4.4|9=54|35=0|34=248|49=LVBSG|52=20150520-17:12:33.044|56=CL02|10=169|
20150520-17:12:57.262: 8=FIX.4.4|9=0050|35=0|49=CL02|56=LVBSG|34=250|52=20150520-17:12:57|10=062|
20150520-17:13:34.043: 8=FIX.4.4|9=54|35=0|34=249|49=LVBSG|52=20150520-17:13:34.043|56=CL02|10=171|
20150520-17:13:57.262: 8=FIX.4.4|9=0050|35=0|49=CL02|56=LVBSG|34=251|52=20150520-17:13:57|10=064|
20150520-17:14:34.044: 8=FIX.4.4|9=54|35=0|34=250|49=LVBSG|52=20150520-17:14:34.044|56=CL02|10=165|
20150520-17:14:57.262: 8=FIX.4.4|9=0050|35=0|49=CL02|56=LVBSG|34=252|52=20150520-17:14:57|10=066|
20150520-17:15:34.044: 8=FIX.4.4|9=54|35=0|34=251|49=LVBSG|52=20150520-17:15:34.044|56=CL02|10=167|
20150520-17:15:57.263: 8=FIX.4.4|9=0050|35=0|49=CL02|56=LVBSG|34=253|52=20150520-17:15:57|10=068|
20150520-17:16:35.044: 8=FIX.4.4|9=54|35=0|34=252|49=LVBSG|52=20150520-17:16:35.044|56=CL02|10=170|
20150520-17:16:57.263: 8=FIX.4.4|9=0050|35=0|49=CL02|56=LVBSG|34=254|52=20150520-17:16:57|10=070|
20150520-17:17:36.044: 8=FIX.4.4|9=54|35=0|34=253|49=LVBSG|52=20150520-17:17:36.044|56=CL02|10=173|
20150520-17:17:57.272: 8=FIX.4.4|9=0050|35=0|49=CL02|56=LVBSG|34=255|52=20150520-17:17:57|10=072|
20150520-17:18:37.043: 8=FIX.4.4|9=54|35=0|34=254|49=LVBSG|52=20150520-17:18:37.043|56=CL02|10=175|
20150520-17:18:57.264: 8=FIX.4.4|9=0050|35=0|49=CL02|56=LVBSG|34=256|52=20150520-17:18:57|10=074|
20150520-17:19:37.044: 8=FIX.4.4|9=54|35=0|34=255|49=LVBSG|52=20150520-17:19:37.044|56=CL02|10=178|
20150520-17:19:57.263: 8=FIX.4.4|9=0050|35=0|49=CL02|56=LVBSG|34=257|52=20150520-17:19:57|10=076|
20150520-17:20:38.043: 8=FIX.4.4|9=54|35=0|34=256|49=LVBSG|52=20150520-17:20:38.043|56=CL02|10=171|
20150520-17:20:57.264: 8=FIX.4.4|9=0050|35=0|49=CL02|56=LVBSG|34=258|52=20150520-17:20:57|10=069|
20150520-17:21:38.043: 8=FIX.4.4|9=54|35=0|34=257|49=LVBSG|52=20150520-17:21:38.043|56=CL02|10=173|
20150520-17:21:57.264: 8=FIX.4.4|9=0050|35=0|49=CL02|56=LVBSG|34=259|52=20150520-17:21:57|10=071|
20150520-17:22:38.044: 8=FIX.4.4|9=54|35=0|34=258|49=LVBSG|52=20150520-17:22:38.043|56=CL02|10=175|
20150520-17:22:57.265: 8=FIX.4.4|9=0050|35=0|49=CL02|56=LVBSG|34=260|52=20150520-17:22:57|10=064|
20150520-17:23:38.043: 8=FIX.4.4|9=54|35=0|34=259|49=LVBSG|52=20150520-17:23:38.043|56=CL02|10=177|
20150520-17:23:57.266: 8=FIX.4.4|9=0050|35=0|49=CL02|56=LVBSG|34=261|52=20150520-17:23:57|10=066|
20150520-17:24:38.043: 8=FIX.4.4|9=54|35=0|34=260|49=LVBSG|52=20150520-17:24:38.043|56=CL02|10=170|
20150520-17:24:57.267: 8=FIX.4.4|9=0050|35=0|49=CL02|56=LVBSG|34=262|52=20150520-17:24:57|10=068|
20150520-17:25:38.043: 8=FIX.4.4|9=54|35=0|34=261|49=LVBSG|52=20150520-17:25:38.043|56=CL02|10=172|
20150520-17:25:57.267: 8=FIX.4.4|9=0050|35=0|49=CL02|56=LVBSG|34=263|52=20150520-17:25:57|10=070|
20150520-17:26:38.043: 8=FIX.4.4|9=54|35=0|34=262|49=LVBSG|52=20150520-17:26:38.043|56=CL02|10=174|
20150520-17:26:57.268: 8=FIX.4.4|9=0050|35=0|49=CL02|56=LVBSG|34=264|52=20150520-17:26:57|10=072|
20150520-17:27:38.044: 8=FIX.4.4|9=54|35=0|34=263|49=LVBSG|52=20150520-17:27:38.044|56=CL02|10=177|
20150520-17:27:57.268: 8=FIX.4.4|9=0050|35=0|49=CL02|56=LVBSG|34=265|52=20150520-17:27:57|10=074|
20150520-17:28:38.044: 8=FIX.4.4|9=54|35=0|34=264|49=LVBSG|52=20150520-17:28:38.044|56=CL02|10=179|
20150520-17:28:57.268: 8=FIX.4.4|9=0050|35=0|49=CL02|56=LVBSG|34=266|52=20150520-17:28:57|10=076|
20150520-17:29:38.044: 8=FIX.4.4|9=54|35=0|34=265|49=LVBSG|52=20150520-17:29:38.044|56=CL02|10=181|
20150520-17:29:57.269: 8=FIX.4.4|9=0050|35=0|49=CL02|56=LVBSG|34=267|52=20150520-17:29:57|10=078|
20150520-17:30:38.044: 8=FIX.4.4|9=54|35=0|34=266|49=LVBSG|52=20150520-17:30:38.044|56=CL02|10=174|
20150520-17:30:57.269: 8=FIX.4.4|9=0050|35=0|49=CL02|56=LVBSG|34=268|52=20150520-17:30:57|10=071|
20150520-17:31:38.044: 8=FIX.4.4|9=54|35=0|34=267|49=LVBSG|52=20150520-17:31:38.044|56=CL02|10=176|
20150520-17:31:57.271: 8=FIX.4.4|9=0050|35=0|49=CL02|56=LVBSG|34=269|52=20150520-17:31:57|10=073|
20150520-17:32:39.044: 8=FIX.4.4|9=54|35=0|34=268|49=LVBSG|52=20150520-17:32:39.044|56=CL02|10=179|
20150520-17:32:57.270: 8=FIX.4.4|9=0050|35=0|49=CL02|56=LVBSG|34=270|52=20150520-17:32:57|10=066|
20150520-17:33:39.044: 8=FIX.4.4|9=54|35=0|34=269|49=LVBSG|52=20150520-17:33:39.044|56=CL02|10=181|
20150520-17:33:57.271: 8=FIX.4.4|9=0050|35=0|49=CL02|56=LVBSG|34=271|52=20150520-17:33:57|10=068|
20150520-17:34:39.044: 8=FIX.4.4|9=54|35=0|34=270|49=LVBSG|52=20150520-17:34:39.044|56=CL02|10=174|
20150520-17:34:57.270: 8=FIX.4.4|9=0050|35=0|49=CL02|56=LVBSG|34=272|52=20150520-17:34:57|10=070|
20150520-17:35:39.044: 8=FIX.4.4|9=54|35=0|34=271|49=LVBSG|52=20150520-17:35:39.044|56=CL02|10=176|
20150520-17:35:57.270: 8=FIX.4.4|9=0050|35=0|49=CL02|56=LVBSG|34=273|52=20150520-17:35:57|10=072|
20150520-17:36:39.044: 8=FIX.4.4|9=54|35=0|34=272|49=LVBSG|52=20150520-17:36:39.044|56=CL02|10=178|
20150520-17:36:57.270: 8=FIX.4.4|9=0050|35=0|49=CL02|56=LVBSG|34=274|52=20150520-17:36:57|10=074|
20150520-17:37:39.044: 8=FIX.4.4|9=54|35=0|34=273|49=LVBSG|52=20150520-17:37:39.044|56=CL02|10=180|
20150520-17:37:57.273: 8=FIX.4.4|9=0050|35=0|49=CL02|56=LVBSG|34=275|52=20150520-17:37:57|10=076|
20150520-17:38:40.044: 8=FIX.4.4|9=54|35=0|34=274|49=LVBSG|52=20150520-17:38:40.044|56=CL02|10=174|
20150520-17:38:57.270: 8=FIX.4.4|9=0050|35=0|49=CL02|56=LVBSG|34=276|52=20150520-17:38:57|10=078|
20150520-17:39:40.044: 8=FIX.4.4|9=54|35=0|34=275|49=LVBSG|52=20150520-17:39:40.044|56=CL02|10=176|
20150520-17:39:57.270: 8=FIX.4.4|9=0050|35=0|49=CL02|56=LVBSG|34=277|52=20150520-17:39:57|10=080|
20150520-17:40:41.043: 8=FIX.4.4|9=54|35=0|34=276|49=LVBSG|52=20150520-17:40:41.043|56=CL02|10=169|
20150520-17:40:57.272: 8=FIX.4.4|9=0050|35=0|49=CL02|56=LVBSG|34=278|52=20150520-17:40:57|10=073|
20150520-17:41:41.044: 8=FIX.4.4|9=54|35=0|34=277|49=LVBSG|52=20150520-17:41:41.043|56=CL02|10=171|
20150520-17:41:57.274: 8=FIX.4.4|9=0050|35=0|49=CL02|56=LVBSG|34=279|52=20150520-17:41:57|10=075|
20150520-17:42:41.044: 8=FIX.4.4|9=54|35=0|34=278|49=LVBSG|52=20150520-17:42:41.044|56=CL02|10=174|
20150520-17:42:57.273: 8=FIX.4.4|9=0050|35=0|49=CL02|56=LVBSG|34=280|52=20150520-17:42:57|10=068|
20150520-17:43:42.043: 8=FIX.4.4|9=54|35=0|34=279|49=LVBSG|52=20150520-17:43:42.043|56=CL02|10=176|
20150520-17:43:57.273: 8=FIX.4.4|9=0050|35=0|49=CL02|56=LVBSG|34=281|52=20150520-17:43:57|10=070|
20150520-17:44:42.044: 8=FIX.4.4|9=54|35=0|34=280|49=LVBSG|52=20150520-17:44:42.044|56=CL02|10=170|
20150520-17:44:57.277: 8=FIX.4.4|9=0050|35=0|49=CL02|56=LVBSG|34=282|52=20150520-17:44:57|10=072|
20150520-17:45:42.044: 8=FIX.4.4|9=54|35=0|34=281|49=LVBSG|52=20150520-17:45:42.044|56=CL02|10=172|
20150520-17:45:57.278: 8=FIX.4.4|9=0050|35=0|49=CL02|56=LVBSG|34=283|52=20150520-17:45:57|10=074|
20150520-17:46:42.044: 8=FIX.4.4|9=54|35=0|34=282|49=LVBSG|52=20150520-17:46:42.044|56=CL02|10=174|
20150520-17:46:57.273: 8=FIX.4.4|9=0050|35=0|49=CL02|56=LVBSG|34=284|52=20150520-17:46:57|10=076|
20150520-17:47:42.044: 8=FIX.4.4|9=54|35=0|34=283|49=LVBSG|52=20150520-17:47:42.044|56=CL02|10=176|
20150520-17:47:57.274: 8=FIX.4.4|9=0050|35=0|49=CL02|56=LVBSG|34=285|52=20150520-17:47:57|10=078|
20150520-17:48:43.044: 8=FIX.4.4|9=54|35=0|34=284|49=LVBSG|52=20150520-17:48:43.044|56=CL02|10=179|
20150520-17:48:57.273: 8=FIX.4.4|9=0050|35=0|49=CL02|56=LVBSG|34=286|52=20150520-17:48:57|10=080|
20150520-17:49:43.044: 8=FIX.4.4|9=54|35=0|34=285|49=LVBSG|52=20150520-17:49:43.044|56=CL02|10=181|
20150520-17:49:57.274: 8=FIX.4.4|9=0050|35=0|49=CL02|56=LVBSG|34=287|52=20150520-17:49:57|10=082|
20150520-17:50:44.044: 8=FIX.4.4|9=54|35=0|34=286|49=LVBSG|52=20150520-17:50:44.044|56=CL02|10=175|
20150520-17:50:57.275: 8=FIX.4.4|9=0050|35=0|49=CL02|56=LVBSG|34=288|52=20150520-17:50:57|10=075|
20150520-17:51:45.044: 8=FIX.4.4|9=54|35=0|34=287|49=LVBSG|52=20150520-17:51:45.044|56=CL02|10=178|
20150520-17:51:57.275: 8=FIX.4.4|9=0050|35=0|49=CL02|56=LVBSG|34=289|52=20150520-17:51:57|10=077|
20150520-17:52:46.044: 8=FIX.4.4|9=54|35=0|34=288|49=LVBSG|52=20150520-17:52:46.044|56=CL02|10=181|
20150520-17:52:57.276: 8=FIX.4.4|9=0050|35=0|49=CL02|56=LVBSG|34=290|52=20150520-17:52:57|10=070|
20150520-17:53:47.044: 8=FIX.4.4|9=54|35=0|34=289|49=LVBSG|52=20150520-17:53:47.044|56=CL02|10=184|
20150520-17:53:57.277: 8=FIX.4.4|9=0050|35=0|49=CL02|56=LVBSG|34=291|52=20150520-17:53:57|10=072|
20150520-17:54:48.044: 8=FIX.4.4|9=54|35=0|34=290|49=LVBSG|52=20150520-17:54:48.044|56=CL02|10=178|
20150520-17:54:57.278: 8=FIX.4.4|9=0050|35=0|49=CL02|56=LVBSG|34=292|52=20150520-17:54:57|10=074|
20150520-17:55:49.043: 8=FIX.4.4|9=54|35=0|34=291|49=LVBSG|52=20150520-17:55:49.043|56=CL02|10=180|
20150520-17:55:57.278: 8=FIX.4.4|9=0050|35=0|49=CL02|56=LVBSG|34=293|52=20150520-17:55:57|10=076|
20150520-17:56:49.043: 8=FIX.4.4|9=54|35=0|34=292|49=LVBSG|52=20150520-17:56:49.043|56=CL02|10=182|
20150520-17:56:57.278: 8=FIX.4.4|9=0050|35=0|49=CL02|56=LVBSG|34=294|52=20150520-17:56:57|10=078|
20150520-17:57:49.043: 8=FIX.4.4|9=54|35=0|34=293|49=LVBSG|52=20150520-17:57:49.043|56=CL02|10=184|
20150520-17:57:57.279: 8=FIX.4.4|9=0050|35=0|49=CL02|56=LVBSG|34=295|52=20150520-17:57:57|10=080|
20150520-17:58:49.044: 8=FIX.4.4|9=54|35=0|34=294|49=LVBSG|52=20150520-17:58:49.044|56=CL02|10=187|
20150520-17:58:57.280: 8=FIX.4.4|9=0050|35=0|49=CL02|56=LVBSG|34=296|52=20150520-17:58:57|10=082|
20150520-17:59:50.044: 8=FIX.4.4|9=54|35=0|34=295|49=LVBSG|52=20150520-17:59:50.044|56=CL02|10=181|
20150520-17:59:57.287: 8=FIX.4.4|9=0050|35=0|49=CL02|56=LVBSG|34=297|52=20150520-17:59:57|10=084|
20150520-18:00:51.044: 8=FIX.4.4|9=54|35=0|34=296|49=LVBSG|52=20150520-18:00:51.044|56=CL02|10=170|
20150520-18:00:57.282: 8=FIX.4.4|9=0050|35=0|49=CL02|56=LVBSG|34=298|52=20150520-18:00:57|10=072|
20150520-18:01:52.044: 8=FIX.4.4|9=54|35=0|34=297|49=LVBSG|52=20150520-18:01:52.044|56=CL02|10=173|
20150520-18:01:57.282: 8=FIX.4.4|9=0050|35=0|49=CL02|56=LVBSG|34=299|52=20150520-18:01:57|10=074|
20150520-18:02:52.044: 8=FIX.4.4|9=54|35=0|34=298|49=LVBSG|52=20150520-18:02:52.044|56=CL02|10=175|
20150520-18:02:57.280: 8=FIX.4.4|9=0050|35=0|49=CL02|56=LVBSG|34=300|52=20150520-18:02:57|10=058|
20150520-18:03:53.043: 8=FIX.4.4|9=54|35=0|34=299|49=LVBSG|52=20150520-18:03:53.043|56=CL02|10=177|
20150520-18:03:57.283: 8=FIX.4.4|9=0050|35=0|49=CL02|56=LVBSG|34=301|52=20150520-18:03:57|10=060|
20150520-18:04:53.044: 8=FIX.4.4|9=54|35=0|34=300|49=LVBSG|52=20150520-18:04:53.044|56=CL02|10=162|
20150520-18:04:57.281: 8=FIX.4.4|9=0050|35=0|49=CL02|56=LVBSG|34=302|52=20150520-18:04:57|10=062|
20150520-18:05:54.043: 8=FIX.4.4|9=54|35=0|34=301|49=LVBSG|52=20150520-18:05:54.043|56=CL02|10=164|
20150520-18:05:57.282: 8=FIX.4.4|9=0050|35=0|49=CL02|56=LVBSG|34=303|52=20150520-18:05:57|10=064|
20150520-18:06:54.043: 8=FIX.4.4|9=54|35=0|34=302|49=LVBSG|52=20150520-18:06:54.043|56=CL02|10=166|
20150520-18:06:57.281: 8=FIX.4.4|9=0050|35=0|49=CL02|56=LVBSG|34=304|52=20150520-18:06:57|10=066|
20150520-18:07:54.043: 8=FIX.4.4|9=54|35=0|34=303|49=LVBSG|52=20150520-18:07:54.043|56=CL02|10=168|
20150520-18:07:57.282: 8=FIX.4.4|9=0050|35=0|49=CL02|56=LVBSG|34=305|52=20150520-18:07:57|10=068|
20150520-18:08:54.043: 8=FIX.4.4|9=54|35=0|34=304|49=LVBSG|52=20150520-18:08:54.043|56=CL02|10=170|
20150520-18:08:57.281: 8=FIX.4.4|9=0050|35=0|49=CL02|56=LVBSG|34=306|52=20150520-18:08:57|10=070|
20150520-18:09:54.043: 8=FIX.4.4|9=54|35=0|34=305|49=LVBSG|52=20150520-18:09:54.043|56=CL02|10=172|
20150520-18:09:57.281: 8=FIX.4.4|9=0050|35=0|49=CL02|56=LVBSG|34=307|52=20150520-18:09:57|10=072|
20150520-18:10:54.043: 8=FIX.4.4|9=54|35=0|34=306|49=LVBSG|52=20150520-18:10:54.043|56=CL02|10=165|
20150520-18:10:57.281: 8=FIX.4.4|9=0050|35=0|49=CL02|56=LVBSG|34=308|52=20150520-18:10:57|10=065|
20150520-18:11:54.043: 8=FIX.4.4|9=54|35=0|34=307|49=LVBSG|52=20150520-18:11:54.043|56=CL02|10=167|
20150520-18:11:57.282: 8=FIX.4.4|9=0050|35=0|49=CL02|56=LVBSG|34=309|52=20150520-18:11:57|10=067|
20150520-18:12:54.043: 8=FIX.4.4|9=54|35=0|34=308|49=LVBSG|52=20150520-18:12:54.043|56=CL02|10=169|
20150520-18:12:57.282: 8=FIX.4.4|9=0050|35=0|49=CL02|56=LVBSG|34=310|52=20150520-18:12:57|10=060|
20150520-18:13:54.043: 8=FIX.4.4|9=54|35=0|34=309|49=LVBSG|52=20150520-18:13:54.043|56=CL02|10=171|
20150520-18:13:57.288: 8=FIX.4.4|9=0050|35=0|49=CL02|56=LVBSG|34=311|52=20150520-18:13:57|10=062|
20150520-18:14:54.043: 8=FIX.4.4|9=54|35=0|34=310|49=LVBSG|52=20150520-18:14:54.043|56=CL02|10=164|
20150520-18:14:57.282: 8=FIX.4.4|9=0050|35=0|49=CL02|56=LVBSG|34=312|52=20150520-18:14:57|10=064|
20150520-18:15:54.043: 8=FIX.4.4|9=54|35=0|34=311|49=LVBSG|52=20150520-18:15:54.043|56=CL02|10=166|
20150520-18:15:57.282: 8=FIX.4.4|9=0050|35=0|49=CL02|56=LVBSG|34=313|52=20150520-18:15:57|10=066|
20150520-18:16:54.043: 8=FIX.4.4|9=54|35=0|34=312|49=LVBSG|52=20150520-18:16:54.043|56=CL02|10=168|
20150520-18:16:57.283: 8=FIX.4.4|9=0050|35=0|49=CL02|56=LVBSG|34=314|52=20150520-18:16:57|10=068|
20150520-18:17:54.044: 8=FIX.4.4|9=54|35=0|34=313|49=LVBSG|52=20150520-18:17:54.044|56=CL02|10=171|
20150520-18:17:57.281: 8=FIX.4.4|9=0050|35=0|49=CL02|56=LVBSG|34=315|52=20150520-18:17:57|10=070|
20150520-18:18:55.043: 8=FIX.4.4|9=54|35=0|34=314|49=LVBSG|52=20150520-18:18:55.043|56=CL02|10=173|
20150520-18:18:57.286: 8=FIX.4.4|9=0050|35=0|49=CL02|56=LVBSG|34=316|52=20150520-18:18:57|10=072|
20150520-18:19:55.043: 8=FIX.4.4|9=54|35=0|34=315|49=LVBSG|52=20150520-18:19:55.043|56=CL02|10=175|
20150520-18:19:57.286: 8=FIX.4.4|9=0050|35=0|49=CL02|56=LVBSG|34=317|52=20150520-18:19:57|10=074|
20150520-18:20:55.043: 8=FIX.4.4|9=54|35=0|34=316|49=LVBSG|52=20150520-18:20:55.043|56=CL02|10=168|
20150520-18:20:57.281: 8=FIX.4.4|9=0050|35=0|49=CL02|56=LVBSG|34=318|52=20150520-18:20:57|10=067|
20150520-18:21:55.043: 8=FIX.4.4|9=54|35=0|34=317|49=LVBSG|52=20150520-18:21:55.043|56=CL02|10=170|
20150520-18:21:57.285: 8=FIX.4.4|9=0050|35=0|49=CL02|56=LVBSG|34=319|52=20150520-18:21:57|10=069|
20150520-18:22:55.043: 8=FIX.4.4|9=54|35=0|34=318|49=LVBSG|52=20150520-18:22:55.043|56=CL02|10=172|
20150520-18:22:57.283: 8=FIX.4.4|9=0050|35=0|49=CL02|56=LVBSG|34=320|52=20150520-18:22:57|10=062|
20150520-18:23:55.043: 8=FIX.4.4|9=54|35=0|34=319|49=LVBSG|52=20150520-18:23:55.043|56=CL02|10=174|
20150520-18:23:57.282: 8=FIX.4.4|9=0050|35=0|49=CL02|56=LVBSG|34=321|52=20150520-18:23:57|10=064|
20150520-18:24:55.043: 8=FIX.4.4|9=54|35=0|34=320|49=LVBSG|52=20150520-18:24:55.043|56=CL02|10=167|
20150520-18:24:57.283: 8=FIX.4.4|9=0050|35=0|49=CL02|56=LVBSG|34=322|52=20150520-18:24:57|10=066|
20150520-18:25:55.044: 8=FIX.4.4|9=54|35=0|34=321|49=LVBSG|52=20150520-18:25:55.044|56=CL02|10=170|
20150520-18:25:57.282: 8=FIX.4.4|9=0050|35=0|49=CL02|56=LVBSG|34=323|52=20150520-18:25:57|10=068|
20150520-18:26:56.044: 8=FIX.4.4|9=54|35=0|34=322|49=LVBSG|52=20150520-18:26:56.044|56=CL02|10=173|
20150520-18:26:57.283: 8=FIX.4.4|9=0050|35=0|49=CL02|56=LVBSG|34=324|52=20150520-18:26:57|10=070|
20150520-18:27:57.044: 8=FIX.4.4|9=54|35=0|34=323|49=LVBSG|52=20150520-18:27:57.044|56=CL02|10=176|
20150520-18:27:57.284: 8=FIX.4.4|9=0050|35=0|49=CL02|56=LVBSG|34=325|52=20150520-18:27:57|10=072|
20150520-18:28:57.284: 8=FIX.4.4|9=0050|35=0|49=CL02|56=LVBSG|34=326|52=20150520-18:28:57|10=074|
20150520-18:28:57.285: 8=FIX.4.4|9=54|35=0|34=324|49=LVBSG|52=20150520-18:28:57.284|56=CL02|10=184|
20150520-18:29:57.284: 8=FIX.4.4|9=0050|35=0|49=CL02|56=LVBSG|34=327|52=20150520-18:29:57|10=076|
20150520-18:29:57.284: 8=FIX.4.4|9=54|35=0|34=325|49=LVBSG|52=20150520-18:29:57.284|56=CL02|10=186|
20150520-18:30:57.284: 8=FIX.4.4|9=0050|35=0|49=CL02|56=LVBSG|34=328|52=20150520-18:30:57|10=069|
20150520-18:30:57.284: 8=FIX.4.4|9=54|35=0|34=326|49=LVBSG|52=20150520-18:30:57.284|56=CL02|10=179|
20150520-18:31:57.284: 8=FIX.4.4|9=0050|35=0|49=CL02|56=LVBSG|34=329|52=20150520-18:31:57|10=071|
20150520-18:31:57.285: 8=FIX.4.4|9=54|35=0|34=327|49=LVBSG|52=20150520-18:31:57.285|56=CL02|10=182|
20150520-18:32:57.285: 8=FIX.4.4|9=0050|35=0|49=CL02|56=LVBSG|34=330|52=20150520-18:32:57|10=064|
20150520-18:32:57.285: 8=FIX.4.4|9=54|35=0|34=328|49=LVBSG|52=20150520-18:32:57.285|56=CL02|10=184|
20150520-18:33:57.285: 8=FIX.4.4|9=0050|35=0|49=CL02|56=LVBSG|34=331|52=20150520-18:33:57|10=066|
20150520-18:33:57.285: 8=FIX.4.4|9=54|35=0|34=329|49=LVBSG|52=20150520-18:33:57.285|56=CL02|10=186|
20150520-18:34:57.285: 8=FIX.4.4|9=0050|35=0|49=CL02|56=LVBSG|34=332|52=20150520-18:34:57|10=068|
20150520-18:34:57.286: 8=FIX.4.4|9=54|35=0|34=330|49=LVBSG|52=20150520-18:34:57.285|56=CL02|10=179|
20150520-18:35:57.286: 8=FIX.4.4|9=0050|35=0|49=CL02|56=LVBSG|34=333|52=20150520-18:35:57|10=070|
20150520-18:35:57.286: 8=FIX.4.4|9=54|35=0|34=331|49=LVBSG|52=20150520-18:35:57.286|56=CL02|10=182|
20150520-18:36:57.286: 8=FIX.4.4|9=0050|35=0|49=CL02|56=LVBSG|34=334|52=20150520-18:36:57|10=072|
20150520-18:36:57.286: 8=FIX.4.4|9=54|35=0|34=332|49=LVBSG|52=20150520-18:36:57.286|56=CL02|10=184|
20150520-18:37:57.285: 8=FIX.4.4|9=0050|35=0|49=CL02|56=LVBSG|34=335|52=20150520-18:37:57|10=074|
20150520-18:37:57.286: 8=FIX.4.4|9=54|35=0|34=333|49=LVBSG|52=20150520-18:37:57.286|56=CL02|10=186|
20150520-18:38:57.285: 8=FIX.4.4|9=0050|35=0|49=CL02|56=LVBSG|34=336|52=20150520-18:38:57|10=076|
20150520-18:38:57.286: 8=FIX.4.4|9=54|35=0|34=334|49=LVBSG|52=20150520-18:38:57.286|56=CL02|10=188|
20150520-18:39:57.286: 8=FIX.4.4|9=0050|35=0|49=CL02|56=LVBSG|34=337|52=20150520-18:39:57|10=078|
20150520-18:39:57.286: 8=FIX.4.4|9=54|35=0|34=335|49=LVBSG|52=20150520-18:39:57.286|56=CL02|10=190|
20150520-18:40:57.286: 8=FIX.4.4|9=0050|35=0|49=CL02|56=LVBSG|34=338|52=20150520-18:40:57|10=071|
20150520-18:40:57.286: 8=FIX.4.4|9=54|35=0|34=336|49=LVBSG|52=20150520-18:40:57.286|56=CL02|10=183|
20150520-18:41:57.286: 8=FIX.4.4|9=0050|35=0|49=CL02|56=LVBSG|34=339|52=20150520-18:41:57|10=073|
20150520-18:41:57.287: 8=FIX.4.4|9=54|35=0|34=337|49=LVBSG|52=20150520-18:41:57.287|56=CL02|10=186|
20150520-18:42:57.285: 8=FIX.4.4|9=0050|35=0|49=CL02|56=LVBSG|34=340|52=20150520-18:42:57|10=066|
20150520-18:42:58.043: 8=FIX.4.4|9=54|35=0|34=338|49=LVBSG|52=20150520-18:42:58.043|56=CL02|10=179|
20150520-18:43:57.287: 8=FIX.4.4|9=0050|35=0|49=CL02|56=LVBSG|34=341|52=20150520-18:43:57|10=068|
20150520-18:43:58.044: 8=FIX.4.4|9=54|35=0|34=339|49=LVBSG|52=20150520-18:43:58.044|56=CL02|10=182|
20150520-18:44:57.286: 8=FIX.4.4|9=0050|35=0|49=CL02|56=LVBSG|34=342|52=20150520-18:44:57|10=070|
20150520-18:44:59.044: 8=FIX.4.4|9=54|35=0|34=340|49=LVBSG|52=20150520-18:44:59.044|56=CL02|10=176|
20150520-18:45:57.285: 8=FIX.4.4|9=0050|35=0|49=CL02|56=LVBSG|34=343|52=20150520-18:45:57|10=072|
20150520-18:45:59.044: 8=FIX.4.4|9=54|35=0|34=341|49=LVBSG|52=20150520-18:45:59.044|56=CL02|10=178|
20150520-18:46:57.286: 8=FIX.4.4|9=0050|35=0|49=CL02|56=LVBSG|34=344|52=20150520-18:46:57|10=074|
20150520-18:46:59.044: 8=FIX.4.4|9=54|35=0|34=342|49=LVBSG|52=20150520-18:46:59.044|56=CL02|10=180|
20150520-18:47:57.285: 8=FIX.4.4|9=0050|35=0|49=CL02|56=LVBSG|34=345|52=20150520-18:47:57|10=076|
20150520-18:48:00.044: 8=FIX.4.4|9=54|35=0|34=343|49=LVBSG|52=20150520-18:48:00.044|56=CL02|10=169|
20150520-18:48:57.286: 8=FIX.4.4|9=0050|35=0|49=CL02|56=LVBSG|34=346|52=20150520-18:48:57|10=078|
20150520-18:49:00.044: 8=FIX.4.4|9=54|35=0|34=344|49=LVBSG|52=20150520-18:49:00.044|56=CL02|10=171|
20150520-18:49:57.287: 8=FIX.4.4|9=0050|35=0|49=CL02|56=LVBSG|34=347|52=20150520-18:49:57|10=080|
20150520-18:50:00.044: 8=FIX.4.4|9=54|35=0|34=345|49=LVBSG|52=20150520-18:50:00.044|56=CL02|10=164|
20150520-18:50:57.287: 8=FIX.4.4|9=0050|35=0|49=CL02|56=LVBSG|34=348|52=20150520-18:50:57|10=073|
20150520-18:51:01.043: 8=FIX.4.4|9=54|35=0|34=346|49=LVBSG|52=20150520-18:51:01.043|56=CL02|10=166|
20150520-18:51:57.287: 8=FIX.4.4|9=0050|35=0|49=CL02|56=LVBSG|34=349|52=20150520-18:51:57|10=075|
20150520-18:52:01.043: 8=FIX.4.4|9=54|35=0|34=347|49=LVBSG|52=20150520-18:52:01.043|56=CL02|10=168|
20150520-18:52:57.287: 8=FIX.4.4|9=0050|35=0|49=CL02|56=LVBSG|34=350|52=20150520-18:52:57|10=068|
20150520-18:53:01.044: 8=FIX.4.4|9=54|35=0|34=348|49=LVBSG|52=20150520-18:53:01.044|56=CL02|10=171|
20150520-18:53:57.292: 8=FIX.4.4|9=0050|35=0|49=CL02|56=LVBSG|34=351|52=20150520-18:53:57|10=070|
20150520-18:54:02.044: 8=FIX.4.4|9=54|35=0|34=349|49=LVBSG|52=20150520-18:54:02.044|56=CL02|10=174|
20150520-18:54:57.290: 8=FIX.4.4|9=0050|35=0|49=CL02|56=LVBSG|34=352|52=20150520-18:54:57|10=072|
20150520-18:55:02.044: 8=FIX.4.4|9=54|35=0|34=350|49=LVBSG|52=20150520-18:55:02.044|56=CL02|10=167|
20150520-18:55:27.156: 8=FIX.4.4|9=251|35=D|34=351|49=LVBSG|50=7369691|52=20150520-18:55:27.156|56=CL02|57=XPUS|1=QXP019284|11=5d9dd030288942f3|21=1|38=700|40=2|44=21.37|54=2|55=AKO/B|59=0|60=20150520-18:55:27.156|63=4|100=US|111=100|207=US|583=-7a10cc3f6137ba20|453=1|448=XPUS|447=D|452=1|10=077|
20150520-18:55:27.167: 8=FIX.4.4|9=0317|35=8|49=CL02|56=LVBSG|34=353|52=20150520-18:55:27|50=XPUS|57=7369691|1=QXP019284|207=US|6=0|11=5d9dd030288942f3|14=0|17=3457922e963f412c|21=1|150=A|31=0|151=700|32=0|100=US|38=700|39=A|37=-94f1a04f395b301|583=-7a10cc3f6137ba20|40=2|44=21.37|55=AKO/B|54=2|59=0|63=4|60=20150520-18:55:27.163|453=1|448=XPUS|447=D|452=1|10=232|
20150520-18:55:27.570: 8=FIX.4.4|9=0326|35=8|49=CL02|56=LVBSG|34=354|52=20150520-18:55:27|50=XPUS|57=7369691|1=QXP019284|207=US|6=0|11=5d9dd030288942f3|14=0|17=LVSXFIX2-385400001Z000002|21=1|150=0|31=0|151=700|32=0|100=US|38=700|39=0|37=-94f1a04f395b301|583=-7a10cc3f6137ba20|40=2|44=21.37|55=AKO/B|54=2|59=0|63=4|60=20150520-18:55:27.565|453=1|448=XPUS|447=D|452=1|10=202|
20150520-18:55:27.653: 8=FIX.4.4|9=0334|35=8|49=CL02|56=LVBSG|34=355|52=20150520-18:55:27|50=XPUS|57=7369691|1=QXP019284|207=US|6=21.37|11=5d9dd030288942f3|14=1|17=LVSXFIX2-385400001Z000003|21=1|150=F|31=21.37|151=699|32=1|100=US|38=700|39=1|37=-94f1a04f395b301|583=-7a10cc3f6137ba20|40=2|44=21.37|55=AKO/B|54=2|59=0|63=4|60=20150520-18:55:27.644|453=1|448=XPUS|447=D|452=1|10=137|
20150520-18:55:27.656: 8=FIX.4.4|9=0338|35=8|49=CL02|56=LVBSG|34=356|52=20150520-18:55:27|50=XPUS|57=7369691|1=QXP019284|207=US|6=21.37|11=5d9dd030288942f3|14=101|17=LVSXFIX2-385400001Z000004|21=1|150=F|31=21.37|151=599|32=100|100=US|38=700|39=1|37=-94f1a04f395b301|583=-7a10cc3f6137ba20|40=2|44=21.37|55=AKO/B|54=2|59=0|63=4|60=20150520-18:55:27.650|453=1|448=XPUS|447=D|452=1|10=076|
20150520-18:55:27.657: 8=FIX.4.4|9=0338|35=8|49=CL02|56=LVBSG|34=357|52=20150520-18:55:27|50=XPUS|57=7369691|1=QXP019284|207=US|6=21.37|11=5d9dd030288942f3|14=201|17=LVSXFIX2-385400001Z000005|21=1|150=F|31=21.37|151=499|32=100|100=US|38=700|39=1|37=-94f1a04f395b301|583=-7a10cc3f6137ba20|40=2|44=21.37|55=AKO/B|54=2|59=0|63=4|60=20150520-18:55:27.652|453=1|448=XPUS|447=D|452=1|10=080|
20150520-18:55:27.666: 8=FIX.4.4|9=0338|35=8|49=CL02|56=LVBSG|34=358|52=20150520-18:55:27|50=XPUS|57=7369691|1=QXP019284|207=US|6=21.37|11=5d9dd030288942f3|14=301|17=LVSXFIX2-385400001Z000006|21=1|150=F|31=21.37|151=399|32=100|100=US|38=700|39=1|37=-94f1a04f395b301|583=-7a10cc3f6137ba20|40=2|44=21.37|55=AKO/B|54=2|59=0|63=4|60=20150520-18:55:27.657|453=1|448=XPUS|447=D|452=1|10=087|
20150520-18:55:39.442: 8=FIX.4.4|9=265|35=G|34=352|49=LVBSG|50=7369691|52=20150520-18:55:39.442|56=CL02|57=XPUS|1=QXP019284|11=33b15e8ca6f9479d|21=1|38=1000|40=2|41=5d9dd030288942f3|44=21.37|54=2|55=AKO/B|59=0|60=20150520-18:55:39.442|63=4|100=US|111=100|583=-7a10cc3f6137ba20|453=1|448=XPUS|447=D|452=1|10=018|
20150520-18:55:39.452: 8=FIX.4.4|9=0344|35=8|49=CL02|56=LVBSG|34=359|52=20150520-18:55:39|50=XPUS|57=7369691|1=QXP019284|207=US|6=21.37|11=33b15e8ca6f9479d|14=301|17=3458d419d8ac4293|21=1|150=E|31=0|151=399|32=0|100=US|38=1000|39=E|37=-94f1a04f395b301|583=-7a10cc3f6137ba20|40=2|41=5d9dd030288942f3|44=21.37|55=AKO/B|54=2|59=0|63=4|60=20150520-18:55:39.446|453=1|448=XPUS|447=D|452=1|10=167|
20150520-18:55:39.878: 8=FIX.4.4|9=0353|35=8|49=CL02|56=LVBSG|34=360|52=20150520-18:55:39|50=XPUS|57=7369691|1=QXP019284|207=US|6=21.37|11=33b15e8ca6f9479d|14=301|17=LVSXFIX2-385400001Z000009|21=1|150=5|31=0|151=699|32=0|100=US|38=1000|39=1|37=-94f1a04f395b301|583=-7a10cc3f6137ba20|40=2|41=5d9dd030288942f3|44=21.37|55=AKO/B|54=2|59=0|63=4|60=20150520-18:55:39.873|453=1|448=XPUS|447=D|452=1|10=085|
20150520-18:55:41.548: 8=FIX.4.4|9=265|35=G|34=353|49=LVBSG|50=7369691|52=20150520-18:55:41.548|56=CL02|57=XPUS|1=QXP019284|11=1f852bcfba7b48ec|21=1|38=1100|40=2|41=33b15e8ca6f9479d|44=21.37|54=2|55=AKO/B|59=0|60=20150520-18:55:41.547|63=4|100=US|111=100|583=-7a10cc3f6137ba20|453=1|448=XPUS|447=D|452=1|10=253|
20150520-18:55:41.558: 8=FIX.4.4|9=0345|35=8|49=CL02|56=LVBSG|34=361|52=20150520-18:55:41|50=XPUS|57=7369691|1=QXP019284|207=US|6=21.37|11=1f852bcfba7b48ec|14=301|17=-7cd599b8e3a5b009|21=1|150=E|31=0|151=699|32=0|100=US|38=1100|39=E|37=-94f1a04f395b301|583=-7a10cc3f6137ba20|40=2|41=33b15e8ca6f9479d|44=21.37|55=AKO/B|54=2|59=0|63=4|60=20150520-18:55:41.553|453=1|448=XPUS|447=D|452=1|10=013|
20150520-18:55:41.997: 8=FIX.4.4|9=0353|35=8|49=CL02|56=LVBSG|34=362|52=20150520-18:55:41|50=XPUS|57=7369691|1=QXP019284|207=US|6=21.37|11=1f852bcfba7b48ec|14=301|17=LVSXFIX2-385400001Z00000C|21=1|150=5|31=0|151=799|32=0|100=US|38=1100|39=1|37=-94f1a04f395b301|583=-7a10cc3f6137ba20|40=2|41=33b15e8ca6f9479d|44=21.37|55=AKO/B|54=2|59=0|63=4|60=20150520-18:55:41.992|453=1|448=XPUS|447=D|452=1|10=065|
20150520-18:55:41.998: 8=FIX.4.4|9=265|35=G|34=354|49=LVBSG|50=7369691|52=20150520-18:55:41.998|56=CL02|57=XPUS|1=QXP019284|11=29a99b4c267549fc|21=1|38=2000|40=2|41=1f852bcfba7b48ec|44=21.37|54=2|55=AKO/B|59=0|60=20150520-18:55:41.998|63=4|100=US|111=100|583=-7a10cc3f6137ba20|453=1|448=XPUS|447=D|452=1|10=230|
20150520-18:55:42.009: 8=FIX.4.4|9=0344|35=8|49=CL02|56=LVBSG|34=363|52=20150520-18:55:42|50=XPUS|57=7369691|1=QXP019284|207=US|6=21.37|11=29a99b4c267549fc|14=301|17=269278d848264bd9|21=1|150=E|31=0|151=799|32=0|100=US|38=2000|39=E|37=-94f1a04f395b301|583=-7a10cc3f6137ba20|40=2|41=1f852bcfba7b48ec|44=21.37|55=AKO/B|54=2|59=0|63=4|60=20150520-18:55:42.003|453=1|448=XPUS|447=D|452=1|10=044|
20150520-18:55:42.454: 8=FIX.4.4|9=0354|35=8|49=CL02|56=LVBSG|34=364|52=20150520-18:55:42|50=XPUS|57=7369691|1=QXP019284|207=US|6=21.37|11=29a99b4c267549fc|14=301|17=LVSXFIX2-385400001Z00000F|21=1|150=5|31=0|151=1699|32=0|100=US|38=2000|39=1|37=-94f1a04f395b301|583=-7a10cc3f6137ba20|40=2|41=1f852bcfba7b48ec|44=21.37|55=AKO/B|54=2|59=0|63=4|60=20150520-18:55:42.449|453=1|448=XPUS|447=D|452=1|10=075|
20150520-18:56:42.044: 8=FIX.4.4|9=54|35=0|34=355|49=LVBSG|52=20150520-18:56:42.044|56=CL02|10=177|
20150520-18:56:42.455: 8=FIX.4.4|9=0050|35=0|49=CL02|56=LVBSG|34=365|52=20150520-18:56:42|10=072|
20150520-18:56:59.108: 8=FIX.4.4|9=266|35=G|34=356|49=LVBSG|50=7369691|52=20150520-18:56:59.108|56=CL02|57=XPUS|1=QXP019284|11=-6aaaf768bb9fbc39|21=1|38=2900|40=2|41=29a99b4c267549fc|44=21.37|54=2|55=AKO/B|59=0|60=20150520-18:56:59.108|63=4|100=US|111=100|583=-7a10cc3f6137ba20|453=1|448=XPUS|447=D|452=1|10=024|
20150520-18:56:59.116: 8=FIX.4.4|9=0346|35=8|49=CL02|56=LVBSG|34=366|52=20150520-18:56:59|50=XPUS|57=7369691|1=QXP019284|207=US|6=21.37|11=-6aaaf768bb9fbc39|14=301|17=-9e95c6ac466b5a4|21=1|150=E|31=0|151=1699|32=0|100=US|38=2900|39=E|37=-94f1a04f395b301|583=-7a10cc3f6137ba20|40=2|41=29a99b4c267549fc|44=21.37|55=AKO/B|54=2|59=0|63=4|60=20150520-18:56:59.112|453=1|448=XPUS|447=D|452=1|10=046|
20150520-18:56:59.532: 8=FIX.4.4|9=0355|35=8|49=CL02|56=LVBSG|34=367|52=20150520-18:56:59|50=XPUS|57=7369691|1=QXP019284|207=US|6=21.37|11=-6aaaf768bb9fbc39|14=301|17=LVSXFIX2-385400001Z00000I|21=1|150=5|31=0|151=2599|32=0|100=US|38=2900|39=1|37=-94f1a04f395b301|583=-7a10cc3f6137ba20|40=2|41=29a99b4c267549fc|44=21.37|55=AKO/B|54=2|59=0|63=4|60=20150520-18:56:59.527|453=1|448=XPUS|447=D|452=1|10=158|
20150520-18:57:18.433: 8=FIX.4.4|9=266|35=G|34=357|49=LVBSG|50=7369691|52=20150520-18:57:18.432|56=CL02|57=XPUS|1=QXP019284|11=7c78ac94382b4b97|21=1|38=3700|40=2|41=-6aaaf768bb9fbc39|44=21.37|54=2|55=AKO/B|59=0|60=20150520-18:57:18.432|63=4|100=US|111=100|583=-7a10cc3f6137ba20|453=1|448=XPUS|447=D|452=1|10=014|
