20150519-11:09:08.183: 8=FIX.4.4|9=52|35=5|34=1|49=LVBSG|52=20150519-11:09:08.183|56=CL02|10=077|
20150519-11:09:09.111: 8=FIX.4.4|9=52|35=5|34=1|49=LVBSG|52=20150519-11:09:09.111|56=CL02|10=069|
20150519-11:09:10.114: 8=FIX.4.4|9=70|35=A|34=1|49=LVBSG|52=20150519-11:09:10.114|56=CL02|98=0|108=60|141=Y|10=149|
20150519-11:09:10.145: 8=FIX.4.4|9=0066|35=A|49=CL02|56=LVBSG|34=1|52=20150519-11:09:10|98=0|108=60|141=Y|10=054|
20150519-11:09:48.689: 8=FIX.4.4|9=0076|35=1|49=CL02|56=LVBSG|34=2|52=20150519-11:09:48|112=Appia-20150519-11:09:48|10=067|
20150519-11:09:48.690: 8=FIX.4.4|9=80|35=0|34=2|49=LVBSG|52=20150519-11:09:48.690|56=CL02|112=Appia-20150519-11:09:48|10=170|
20150519-11:10:48.687: 8=FIX.4.4|9=0048|35=0|49=CL02|56=LVBSG|34=3|52=20150519-11:10:48|10=225|
20150519-11:10:49.107: 8=FIX.4.4|9=52|35=0|34=3|49=LVBSG|52=20150519-11:10:49.107|56=CL02|10=067|
20150519-11:11:48.687: 8=FIX.4.4|9=0048|35=0|49=CL02|56=LVBSG|34=4|52=20150519-11:11:48|10=227|
20150519-11:11:49.107: 8=FIX.4.4|9=52|35=0|34=4|49=LVBSG|52=20150519-11:11:49.107|56=CL02|10=069|
20150519-11:12:48.688: 8=FIX.4.4|9=0048|35=0|49=CL02|56=LVBSG|34=5|52=20150519-11:12:48|10=229|
20150519-11:12:49.107: 8=FIX.4.4|9=52|35=0|34=5|49=LVBSG|52=20150519-11:12:49.107|56=CL02|10=071|
20150519-11:13:48.688: 8=FIX.4.4|9=0048|35=0|49=CL02|56=LVBSG|34=6|52=20150519-11:13:48|10=231|
20150519-11:13:49.107: 8=FIX.4.4|9=52|35=0|34=6|49=LVBSG|52=20150519-11:13:49.107|56=CL02|10=073|
20150519-11:14:48.688: 8=FIX.4.4|9=0048|35=0|49=CL02|56=LVBSG|34=7|52=20150519-11:14:48|10=233|
20150519-11:14:49.108: 8=FIX.4.4|9=52|35=0|34=7|49=LVBSG|52=20150519-11:14:49.108|56=CL02|10=076|
20150519-11:15:48.689: 8=FIX.4.4|9=0048|35=0|49=CL02|56=LVBSG|34=8|52=20150519-11:15:48|10=235|
20150519-11:15:50.108: 8=FIX.4.4|9=52|35=0|34=8|49=LVBSG|52=20150519-11:15:50.108|56=CL02|10=070|
20150519-11:16:48.689: 8=FIX.4.4|9=0048|35=0|49=CL02|56=LVBSG|34=9|52=20150519-11:16:48|10=237|
20150519-11:16:51.107: 8=FIX.4.4|9=52|35=0|34=9|49=LVBSG|52=20150519-11:16:51.107|56=CL02|10=072|
20150519-11:17:48.690: 8=FIX.4.4|9=0049|35=0|49=CL02|56=LVBSG|34=10|52=20150519-11:17:48|10=023|
20150519-11:17:51.107: 8=FIX.4.4|9=53|35=0|34=10|49=LVBSG|52=20150519-11:17:51.107|56=CL02|10=114|
20150519-11:18:48.691: 8=FIX.4.4|9=0049|35=0|49=CL02|56=LVBSG|34=11|52=20150519-11:18:48|10=025|
20150519-11:18:51.108: 8=FIX.4.4|9=53|35=0|34=11|49=LVBSG|52=20150519-11:18:51.108|56=CL02|10=117|
20150519-11:19:48.691: 8=FIX.4.4|9=0049|35=0|49=CL02|56=LVBSG|34=12|52=20150519-11:19:48|10=027|
20150519-11:19:52.108: 8=FIX.4.4|9=53|35=0|34=12|49=LVBSG|52=20150519-11:19:52.108|56=CL02|10=120|
20150519-11:20:48.691: 8=FIX.4.4|9=0049|35=0|49=CL02|56=LVBSG|34=13|52=20150519-11:20:48|10=020|
20150519-11:20:53.108: 8=FIX.4.4|9=53|35=0|34=13|49=LVBSG|52=20150519-11:20:53.108|56=CL02|10=114|
20150519-11:21:48.692: 8=FIX.4.4|9=0049|35=0|49=CL02|56=LVBSG|34=14|52=20150519-11:21:48|10=022|
20150519-11:21:53.108: 8=FIX.4.4|9=53|35=0|34=14|49=LVBSG|52=20150519-11:21:53.108|56=CL02|10=116|
20150519-11:22:48.692: 8=FIX.4.4|9=0049|35=0|49=CL02|56=LVBSG|34=15|52=20150519-11:22:48|10=024|
20150519-11:22:54.107: 8=FIX.4.4|9=53|35=0|34=15|49=LVBSG|52=20150519-11:22:54.107|56=CL02|10=118|
20150519-11:23:48.692: 8=FIX.4.4|9=0049|35=0|49=CL02|56=LVBSG|34=16|52=20150519-11:23:48|10=026|
20150519-11:23:54.108: 8=FIX.4.4|9=53|35=0|34=16|49=LVBSG|52=20150519-11:23:54.108|56=CL02|10=121|
20150519-11:24:48.693: 8=FIX.4.4|9=0049|35=0|49=CL02|56=LVBSG|34=17|52=20150519-11:24:48|10=028|
20150519-11:24:55.108: 8=FIX.4.4|9=53|35=0|34=17|49=LVBSG|52=20150519-11:24:55.108|56=CL02|10=124|
20150519-11:25:48.693: 8=FIX.4.4|9=0049|35=0|49=CL02|56=LVBSG|34=18|52=20150519-11:25:48|10=030|
20150519-11:25:56.108: 8=FIX.4.4|9=53|35=0|34=18|49=LVBSG|52=20150519-11:25:56.108|56=CL02|10=127|
20150519-11:26:48.696: 8=FIX.4.4|9=0049|35=0|49=CL02|56=LVBSG|34=19|52=20150519-11:26:48|10=032|
20150519-11:26:57.108: 8=FIX.4.4|9=53|35=0|34=19|49=LVBSG|52=20150519-11:26:57.108|56=CL02|10=130|
20150519-11:27:48.695: 8=FIX.4.4|9=0049|35=0|49=CL02|56=LVBSG|34=20|52=20150519-11:27:48|10=025|
20150519-11:27:58.108: 8=FIX.4.4|9=53|35=0|34=20|49=LVBSG|52=20150519-11:27:58.108|56=CL02|10=124|
20150519-11:28:48.695: 8=FIX.4.4|9=0049|35=0|49=CL02|56=LVBSG|34=21|52=20150519-11:28:48|10=027|
20150519-11:28:58.108: 8=FIX.4.4|9=53|35=0|34=21|49=LVBSG|52=20150519-11:28:58.108|56=CL02|10=126|
20150519-11:29:48.694: 8=FIX.4.4|9=0049|35=0|49=CL02|56=LVBSG|34=22|52=20150519-11:29:48|10=029|
20150519-11:29:58.108: 8=FIX.4.4|9=53|35=0|34=22|49=LVBSG|52=20150519-11:29:58.108|56=CL02|10=128|
20150519-11:30:48.695: 8=FIX.4.4|9=0049|35=0|49=CL02|56=LVBSG|34=23|52=20150519-11:30:48|10=022|
20150519-11:30:58.108: 8=FIX.4.4|9=53|35=0|34=23|49=LVBSG|52=20150519-11:30:58.108|56=CL02|10=121|
20150519-11:31:48.698: 8=FIX.4.4|9=0049|35=0|49=CL02|56=LVBSG|34=24|52=20150519-11:31:48|10=024|
20150519-11:31:58.108: 8=FIX.4.4|9=53|35=0|34=24|49=LVBSG|52=20150519-11:31:58.108|56=CL02|10=123|
20150519-11:32:48.698: 8=FIX.4.4|9=0049|35=0|49=CL02|56=LVBSG|34=25|52=20150519-11:32:48|10=026|
20150519-11:32:59.108: 8=FIX.4.4|9=53|35=0|34=25|49=LVBSG|52=20150519-11:32:59.108|56=CL02|10=126|
20150519-11:33:48.695: 8=FIX.4.4|9=0049|35=0|49=CL02|56=LVBSG|34=26|52=20150519-11:33:48|10=028|
20150519-11:34:00.108: 8=FIX.4.4|9=53|35=0|34=26|49=LVBSG|52=20150519-11:34:00.108|56=CL02|10=115|
20150519-11:34:48.695: 8=FIX.4.4|9=0049|35=0|49=CL02|56=LVBSG|34=27|52=20150519-11:34:48|10=030|
20150519-11:35:01.108: 8=FIX.4.4|9=53|35=0|34=27|49=LVBSG|52=20150519-11:35:01.108|56=CL02|10=118|
20150519-11:35:48.696: 8=FIX.4.4|9=0049|35=0|49=CL02|56=LVBSG|34=28|52=20150519-11:35:48|10=032|
20150519-11:36:01.108: 8=FIX.4.4|9=53|35=0|34=28|49=LVBSG|52=20150519-11:36:01.108|56=CL02|10=120|
20150519-11:36:48.696: 8=FIX.4.4|9=0049|35=0|49=CL02|56=LVBSG|34=29|52=20150519-11:36:48|10=034|
20150519-11:37:02.108: 8=FIX.4.4|9=53|35=0|34=29|49=LVBSG|52=20150519-11:37:02.108|56=CL02|10=123|
20150519-11:37:48.697: 8=FIX.4.4|9=0049|35=0|49=CL02|56=LVBSG|34=30|52=20150519-11:37:48|10=027|
20150519-11:38:02.108: 8=FIX.4.4|9=53|35=0|34=30|49=LVBSG|52=20150519-11:38:02.108|56=CL02|10=116|
20150519-11:38:48.697: 8=FIX.4.4|9=0049|35=0|49=CL02|56=LVBSG|34=31|52=20150519-11:38:48|10=029|
20150519-11:39:03.108: 8=FIX.4.4|9=53|35=0|34=31|49=LVBSG|52=20150519-11:39:03.108|56=CL02|10=119|
20150519-11:39:48.697: 8=FIX.4.4|9=0049|35=0|49=CL02|56=LVBSG|34=32|52=20150519-11:39:48|10=031|
20150519-11:40:04.108: 8=FIX.4.4|9=53|35=0|34=32|49=LVBSG|52=20150519-11:40:04.108|56=CL02|10=113|
20150519-11:40:48.697: 8=FIX.4.4|9=0049|35=0|49=CL02|56=LVBSG|34=33|52=20150519-11:40:48|10=024|
20150519-11:41:05.108: 8=FIX.4.4|9=53|35=0|34=33|49=LVBSG|52=20150519-11:41:05.108|56=CL02|10=116|
20150519-11:41:48.698: 8=FIX.4.4|9=0049|35=0|49=CL02|56=LVBSG|34=34|52=20150519-11:41:48|10=026|
20150519-11:42:06.107: 8=FIX.4.4|9=53|35=0|34=34|49=LVBSG|52=20150519-11:42:06.107|56=CL02|10=118|
20150519-11:42:48.697: 8=FIX.4.4|9=0049|35=0|49=CL02|56=LVBSG|34=35|52=20150519-11:42:48|10=028|
20150519-11:43:06.108: 8=FIX.4.4|9=53|35=0|34=35|49=LVBSG|52=20150519-11:43:06.108|56=CL02|10=121|
20150519-11:43:48.698: 8=FIX.4.4|9=0049|35=0|49=CL02|56=LVBSG|34=36|52=20150519-11:43:48|10=030|
20150519-11:44:07.108: 8=FIX.4.4|9=53|35=0|34=36|49=LVBSG|52=20150519-11:44:07.108|56=CL02|10=124|
20150519-11:44:48.697: 8=FIX.4.4|9=0049|35=0|49=CL02|56=LVBSG|34=37|52=20150519-11:44:48|10=032|
20150519-11:45:07.108: 8=FIX.4.4|9=53|35=0|34=37|49=LVBSG|52=20150519-11:45:07.108|56=CL02|10=126|
20150519-11:45:48.697: 8=FIX.4.4|9=0049|35=0|49=CL02|56=LVBSG|34=38|52=20150519-11:45:48|10=034|
20150519-11:46:08.108: 8=FIX.4.4|9=53|35=0|34=38|49=LVBSG|52=20150519-11:46:08.108|56=CL02|10=129|
20150519-11:46:48.700: 8=FIX.4.4|9=0049|35=0|49=CL02|56=LVBSG|34=39|52=20150519-11:46:48|10=036|
20150519-11:47:09.108: 8=FIX.4.4|9=53|35=0|34=39|49=LVBSG|52=20150519-11:47:09.108|56=CL02|10=132|
20150519-11:47:48.712: 8=FIX.4.4|9=0049|35=0|49=CL02|56=LVBSG|34=40|52=20150519-11:47:48|10=029|
20150519-11:48:10.108: 8=FIX.4.4|9=53|35=0|34=40|49=LVBSG|52=20150519-11:48:10.108|56=CL02|10=117|
20150519-11:48:48.699: 8=FIX.4.4|9=0049|35=0|49=CL02|56=LVBSG|34=41|52=20150519-11:48:48|10=031|
20150519-11:49:11.108: 8=FIX.4.4|9=53|35=0|34=41|49=LVBSG|52=20150519-11:49:11.108|56=CL02|10=120|
20150519-11:49:48.699: 8=FIX.4.4|9=0049|35=0|49=CL02|56=LVBSG|34=42|52=20150519-11:49:48|10=033|
20150519-11:50:11.108: 8=FIX.4.4|9=53|35=0|34=42|49=LVBSG|52=20150519-11:50:11.108|56=CL02|10=113|
20150519-11:50:48.700: 8=FIX.4.4|9=0049|35=0|49=CL02|56=LVBSG|34=43|52=20150519-11:50:48|10=026|
20150519-11:51:11.108: 8=FIX.4.4|9=53|35=0|34=43|49=LVBSG|52=20150519-11:51:11.108|56=CL02|10=115|
20150519-11:51:48.700: 8=FIX.4.4|9=0049|35=0|49=CL02|56=LVBSG|34=44|52=20150519-11:51:48|10=028|
20150519-11:52:12.107: 8=FIX.4.4|9=53|35=0|34=44|49=LVBSG|52=20150519-11:52:12.107|56=CL02|10=117|
20150519-11:52:48.700: 8=FIX.4.4|9=0049|35=0|49=CL02|56=LVBSG|34=45|52=20150519-11:52:48|10=030|
20150519-11:53:12.108: 8=FIX.4.4|9=53|35=0|34=45|49=LVBSG|52=20150519-11:53:12.108|56=CL02|10=120|
20150519-11:53:48.701: 8=FIX.4.4|9=0049|35=0|49=CL02|56=LVBSG|34=46|52=20150519-11:53:48|10=032|
20150519-11:54:12.108: 8=FIX.4.4|9=53|35=0|34=46|49=LVBSG|52=20150519-11:54:12.108|56=CL02|10=122|
20150519-11:54:48.701: 8=FIX.4.4|9=0049|35=0|49=CL02|56=LVBSG|34=47|52=20150519-11:54:48|10=034|
20150519-11:55:12.108: 8=FIX.4.4|9=53|35=0|34=47|49=LVBSG|52=20150519-11:55:12.108|56=CL02|10=124|
20150519-11:55:48.701: 8=FIX.4.4|9=0049|35=0|49=CL02|56=LVBSG|34=48|52=20150519-11:55:48|10=036|
20150519-11:56:12.108: 8=FIX.4.4|9=53|35=0|34=48|49=LVBSG|52=20150519-11:56:12.108|56=CL02|10=126|
20150519-11:56:48.702: 8=FIX.4.4|9=0049|35=0|49=CL02|56=LVBSG|34=49|52=20150519-11:56:48|10=038|
20150519-11:57:13.116: 8=FIX.4.4|9=53|35=0|34=49|49=LVBSG|52=20150519-11:57:13.116|56=CL02|10=128|
20150519-11:57:48.701: 8=FIX.4.4|9=0049|35=0|49=CL02|56=LVBSG|34=50|52=20150519-11:57:48|10=031|
20150519-11:58:14.108: 8=FIX.4.4|9=53|35=0|34=50|49=LVBSG|52=20150519-11:58:14.108|56=CL02|10=123|
20150519-11:58:48.701: 8=FIX.4.4|9=0049|35=0|49=CL02|56=LVBSG|34=51|52=20150519-11:58:48|10=033|
20150519-11:59:14.108: 8=FIX.4.4|9=53|35=0|34=51|49=LVBSG|52=20150519-11:59:14.108|56=CL02|10=125|
20150519-11:59:48.701: 8=FIX.4.4|9=0049|35=0|49=CL02|56=LVBSG|34=52|52=20150519-11:59:48|10=035|
20150519-12:00:15.107: 8=FIX.4.4|9=53|35=0|34=52|49=LVBSG|52=20150519-12:00:15.107|56=CL02|10=113|
20150519-12:00:48.701: 8=FIX.4.4|9=0049|35=0|49=CL02|56=LVBSG|34=53|52=20150519-12:00:48|10=023|
20150519-12:01:15.107: 8=FIX.4.4|9=53|35=0|34=53|49=LVBSG|52=20150519-12:01:15.107|56=CL02|10=115|
20150519-12:01:48.716: 8=FIX.4.4|9=0049|35=0|49=CL02|56=LVBSG|34=54|52=20150519-12:01:48|10=025|
20150519-12:02:15.108: 8=FIX.4.4|9=53|35=0|34=54|49=LVBSG|52=20150519-12:02:15.108|56=CL02|10=118|
20150519-12:02:48.701: 8=FIX.4.4|9=0049|35=0|49=CL02|56=LVBSG|34=55|52=20150519-12:02:48|10=027|
20150519-12:03:15.108: 8=FIX.4.4|9=53|35=0|34=55|49=LVBSG|52=20150519-12:03:15.108|56=CL02|10=120|
20150519-12:03:48.701: 8=FIX.4.4|9=0049|35=0|49=CL02|56=LVBSG|34=56|52=20150519-12:03:48|10=029|
20150519-12:04:15.108: 8=FIX.4.4|9=53|35=0|34=56|49=LVBSG|52=20150519-12:04:15.108|56=CL02|10=122|
20150519-12:04:48.701: 8=FIX.4.4|9=0049|35=0|49=CL02|56=LVBSG|34=57|52=20150519-12:04:48|10=031|
20150519-12:05:15.108: 8=FIX.4.4|9=53|35=0|34=57|49=LVBSG|52=20150519-12:05:15.108|56=CL02|10=124|
20150519-12:05:48.706: 8=FIX.4.4|9=0049|35=0|49=CL02|56=LVBSG|34=58|52=20150519-12:05:48|10=033|
20150519-12:06:15.108: 8=FIX.4.4|9=53|35=0|34=58|49=LVBSG|52=20150519-12:06:15.108|56=CL02|10=126|
20150519-12:06:48.701: 8=FIX.4.4|9=0049|35=0|49=CL02|56=LVBSG|34=59|52=20150519-12:06:48|10=035|
20150519-12:07:15.108: 8=FIX.4.4|9=53|35=0|34=59|49=LVBSG|52=20150519-12:07:15.108|56=CL02|10=128|
20150519-12:07:48.702: 8=FIX.4.4|9=0049|35=0|49=CL02|56=LVBSG|34=60|52=20150519-12:07:48|10=028|
20150519-12:08:15.108: 8=FIX.4.4|9=53|35=0|34=60|49=LVBSG|52=20150519-12:08:15.108|56=CL02|10=121|
20150519-12:08:48.701: 8=FIX.4.4|9=0049|35=0|49=CL02|56=LVBSG|34=61|52=20150519-12:08:48|10=030|
20150519-12:09:15.108: 8=FIX.4.4|9=53|35=0|34=61|49=LVBSG|52=20150519-12:09:15.108|56=CL02|10=123|
20150519-12:09:48.701: 8=FIX.4.4|9=0049|35=0|49=CL02|56=LVBSG|34=62|52=20150519-12:09:48|10=032|
20150519-12:10:15.108: 8=FIX.4.4|9=53|35=0|34=62|49=LVBSG|52=20150519-12:10:15.108|56=CL02|10=116|
20150519-12:10:48.702: 8=FIX.4.4|9=0049|35=0|49=CL02|56=LVBSG|34=63|52=20150519-12:10:48|10=025|
20150519-12:11:15.116: 8=FIX.4.4|9=53|35=0|34=63|49=LVBSG|52=20150519-12:11:15.116|56=CL02|10=117|
20150519-12:11:48.712: 8=FIX.4.4|9=0049|35=0|49=CL02|56=LVBSG|34=64|52=20150519-12:11:48|10=027|
20150519-12:12:16.108: 8=FIX.4.4|9=53|35=0|34=64|49=LVBSG|52=20150519-12:12:16.108|56=CL02|10=121|
20150519-12:12:48.704: 8=FIX.4.4|9=0049|35=0|49=CL02|56=LVBSG|34=65|52=20150519-12:12:48|10=029|
20150519-12:13:17.108: 8=FIX.4.4|9=53|35=0|34=65|49=LVBSG|52=20150519-12:13:17.108|56=CL02|10=124|
20150519-12:13:48.702: 8=FIX.4.4|9=0049|35=0|49=CL02|56=LVBSG|34=66|52=20150519-12:13:48|10=031|
20150519-12:14:17.108: 8=FIX.4.4|9=53|35=0|34=66|49=LVBSG|52=20150519-12:14:17.108|56=CL02|10=126|
20150519-12:14:48.702: 8=FIX.4.4|9=0049|35=0|49=CL02|56=LVBSG|34=67|52=20150519-12:14:48|10=033|
20150519-12:15:18.107: 8=FIX.4.4|9=53|35=0|34=67|49=LVBSG|52=20150519-12:15:18.107|56=CL02|10=128|
20150519-12:15:48.705: 8=FIX.4.4|9=0049|35=0|49=CL02|56=LVBSG|34=68|52=20150519-12:15:48|10=035|
20150519-12:16:18.108: 8=FIX.4.4|9=53|35=0|34=68|49=LVBSG|52=20150519-12:16:18.108|56=CL02|10=131|
20150519-12:16:48.703: 8=FIX.4.4|9=0049|35=0|49=CL02|56=LVBSG|34=69|52=20150519-12:16:48|10=037|
20150519-12:17:19.107: 8=FIX.4.4|9=53|35=0|34=69|49=LVBSG|52=20150519-12:17:19.107|56=CL02|10=133|
20150519-12:17:48.704: 8=FIX.4.4|9=0049|35=0|49=CL02|56=LVBSG|34=70|52=20150519-12:17:48|10=030|
20150519-12:18:19.108: 8=FIX.4.4|9=53|35=0|34=70|49=LVBSG|52=20150519-12:18:19.108|56=CL02|10=127|
20150519-12:18:48.703: 8=FIX.4.4|9=0049|35=0|49=CL02|56=LVBSG|34=71|52=20150519-12:18:48|10=032|
20150519-12:19:20.107: 8=FIX.4.4|9=53|35=0|34=71|49=LVBSG|52=20150519-12:19:20.107|56=CL02|10=120|
20150519-12:19:48.704: 8=FIX.4.4|9=0049|35=0|49=CL02|56=LVBSG|34=72|52=20150519-12:19:48|10=034|
20150519-12:20:20.108: 8=FIX.4.4|9=53|35=0|34=72|49=LVBSG|52=20150519-12:20:20.108|56=CL02|10=114|
20150519-12:20:48.703: 8=FIX.4.4|9=0049|35=0|49=CL02|56=LVBSG|34=73|52=20150519-12:20:48|10=027|
20150519-12:21:20.108: 8=FIX.4.4|9=53|35=0|34=73|49=LVBSG|52=20150519-12:21:20.108|56=CL02|10=116|
20150519-12:21:48.704: 8=FIX.4.4|9=0049|35=0|49=CL02|56=LVBSG|34=74|52=20150519-12:21:48|10=029|
20150519-12:22:20.108: 8=FIX.4.4|9=53|35=0|34=74|49=LVBSG|52=20150519-12:22:20.108|56=CL02|10=118|
20150519-12:22:48.705: 8=FIX.4.4|9=0049|35=0|49=CL02|56=LVBSG|34=75|52=20150519-12:22:48|10=031|
20150519-12:23:20.108: 8=FIX.4.4|9=53|35=0|34=75|49=LVBSG|52=20150519-12:23:20.108|56=CL02|10=120|
20150519-12:23:48.704: 8=FIX.4.4|9=0049|35=0|49=CL02|56=LVBSG|34=76|52=20150519-12:23:48|10=033|
20150519-12:24:20.108: 8=FIX.4.4|9=53|35=0|34=76|49=LVBSG|52=20150519-12:24:20.108|56=CL02|10=122|
20150519-12:24:48.706: 8=FIX.4.4|9=0049|35=0|49=CL02|56=LVBSG|34=77|52=20150519-12:24:48|10=035|
20150519-12:25:20.108: 8=FIX.4.4|9=53|35=0|34=77|49=LVBSG|52=20150519-12:25:20.108|56=CL02|10=124|
20150519-12:25:48.707: 8=FIX.4.4|9=0049|35=0|49=CL02|56=LVBSG|34=78|52=20150519-12:25:48|10=037|
20150519-12:26:21.107: 8=FIX.4.4|9=53|35=0|34=78|49=LVBSG|52=20150519-12:26:21.107|56=CL02|10=126|
20150519-12:26:48.706: 8=FIX.4.4|9=0049|35=0|49=CL02|56=LVBSG|34=79|52=20150519-12:26:48|10=039|
20150519-12:27:21.108: 8=FIX.4.4|9=53|35=0|34=79|49=LVBSG|52=20150519-12:27:21.108|56=CL02|10=129|
20150519-12:27:48.706: 8=FIX.4.4|9=0049|35=0|49=CL02|56=LVBSG|34=80|52=20150519-12:27:48|10=032|
20150519-12:28:22.107: 8=FIX.4.4|9=53|35=0|34=80|49=LVBSG|52=20150519-12:28:22.107|56=CL02|10=122|
20150519-12:28:48.707: 8=FIX.4.4|9=0049|35=0|49=CL02|56=LVBSG|34=81|52=20150519-12:28:48|10=034|
20150519-12:29:22.107: 8=FIX.4.4|9=53|35=0|34=81|49=LVBSG|52=20150519-12:29:22.107|56=CL02|10=124|
20150519-12:29:48.710: 8=FIX.4.4|9=0049|35=0|49=CL02|56=LVBSG|34=82|52=20150519-12:29:48|10=036|
20150519-12:30:22.108: 8=FIX.4.4|9=53|35=0|34=82|49=LVBSG|52=20150519-12:30:22.108|56=CL02|10=118|
20150519-12:30:48.723: 8=FIX.4.4|9=0049|35=0|49=CL02|56=LVBSG|34=83|52=20150519-12:30:48|10=029|
20150519-12:31:22.108: 8=FIX.4.4|9=53|35=0|34=83|49=LVBSG|52=20150519-12:31:22.108|56=CL02|10=120|
20150519-12:31:48.709: 8=FIX.4.4|9=0049|35=0|49=CL02|56=LVBSG|34=84|52=20150519-12:31:48|10=031|
20150519-12:32:22.108: 8=FIX.4.4|9=53|35=0|34=84|49=LVBSG|52=20150519-12:32:22.108|56=CL02|10=122|
20150519-12:32:48.710: 8=FIX.4.4|9=0049|35=0|49=CL02|56=LVBSG|34=85|52=20150519-12:32:48|10=033|
20150519-12:33:23.107: 8=FIX.4.4|9=53|35=0|34=85|49=LVBSG|52=20150519-12:33:23.107|56=CL02|10=124|
20150519-12:33:48.710: 8=FIX.4.4|9=0049|35=0|49=CL02|56=LVBSG|34=86|52=20150519-12:33:48|10=035|
20150519-12:34:23.108: 8=FIX.4.4|9=53|35=0|34=86|49=LVBSG|52=20150519-12:34:23.108|56=CL02|10=127|
20150519-12:34:48.713: 8=FIX.4.4|9=0049|35=0|49=CL02|56=LVBSG|34=87|52=20150519-12:34:48|10=037|
20150519-12:35:23.108: 8=FIX.4.4|9=53|35=0|34=87|49=LVBSG|52=20150519-12:35:23.108|56=CL02|10=129|
20150519-12:35:48.712: 8=FIX.4.4|9=0049|35=0|49=CL02|56=LVBSG|34=88|52=20150519-12:35:48|10=039|
20150519-12:36:23.108: 8=FIX.4.4|9=53|35=0|34=88|49=LVBSG|52=20150519-12:36:23.108|56=CL02|10=131|
20150519-12:36:48.712: 8=FIX.4.4|9=0049|35=0|49=CL02|56=LVBSG|34=89|52=20150519-12:36:48|10=041|
20150519-12:37:24.107: 8=FIX.4.4|9=53|35=0|34=89|49=LVBSG|52=20150519-12:37:24.107|56=CL02|10=133|
20150519-12:37:48.712: 8=FIX.4.4|9=0049|35=0|49=CL02|56=LVBSG|34=90|52=20150519-12:37:48|10=034|
20150519-12:38:24.107: 8=FIX.4.4|9=53|35=0|34=90|49=LVBSG|52=20150519-12:38:24.107|56=CL02|10=126|
20150519-12:38:48.711: 8=FIX.4.4|9=0049|35=0|49=CL02|56=LVBSG|34=91|52=20150519-12:38:48|10=036|
20150519-12:39:24.108: 8=FIX.4.4|9=53|35=0|34=91|49=LVBSG|52=20150519-12:39:24.108|56=CL02|10=129|
20150519-12:39:48.711: 8=FIX.4.4|9=0049|35=0|49=CL02|56=LVBSG|34=92|52=20150519-12:39:48|10=038|
20150519-12:40:24.108: 8=FIX.4.4|9=53|35=0|34=92|49=LVBSG|52=20150519-12:40:24.108|56=CL02|10=122|
20150519-12:40:48.711: 8=FIX.4.4|9=0049|35=0|49=CL02|56=LVBSG|34=93|52=20150519-12:40:48|10=031|
20150519-12:41:24.108: 8=FIX.4.4|9=53|35=0|34=93|49=LVBSG|52=20150519-12:41:24.108|56=CL02|10=124|
20150519-12:41:48.714: 8=FIX.4.4|9=0049|35=0|49=CL02|56=LVBSG|34=94|52=20150519-12:41:48|10=033|
20150519-12:42:25.108: 8=FIX.4.4|9=53|35=0|34=94|49=LVBSG|52=20150519-12:42:25.108|56=CL02|10=127|
20150519-12:42:48.712: 8=FIX.4.4|9=0049|35=0|49=CL02|56=LVBSG|34=95|52=20150519-12:42:48|10=035|
20150519-12:43:26.107: 8=FIX.4.4|9=53|35=0|34=95|49=LVBSG|52=20150519-12:43:26.107|56=CL02|10=129|
20150519-12:43:48.712: 8=FIX.4.4|9=0049|35=0|49=CL02|56=LVBSG|34=96|52=20150519-12:43:48|10=037|
20150519-12:44:26.108: 8=FIX.4.4|9=53|35=0|34=96|49=LVBSG|52=20150519-12:44:26.108|56=CL02|10=132|
20150519-12:44:48.718: 8=FIX.4.4|9=0049|35=0|49=CL02|56=LVBSG|34=97|52=20150519-12:44:48|10=039|
20150519-12:45:27.108: 8=FIX.4.4|9=53|35=0|34=97|49=LVBSG|52=20150519-12:45:27.108|56=CL02|10=135|
20150519-12:45:48.713: 8=FIX.4.4|9=0049|35=0|49=CL02|56=LVBSG|34=98|52=20150519-12:45:48|10=041|
20150519-12:46:27.108: 8=FIX.4.4|9=53|35=0|34=98|49=LVBSG|52=20150519-12:46:27.108|56=CL02|10=137|
20150519-12:46:48.713: 8=FIX.4.4|9=0049|35=0|49=CL02|56=LVBSG|34=99|52=20150519-12:46:48|10=043|
20150519-12:47:28.107: 8=FIX.4.4|9=53|35=0|34=99|49=LVBSG|52=20150519-12:47:28.107|56=CL02|10=139|
20150519-12:47:48.714: 8=FIX.4.4|9=0050|35=0|49=CL02|56=LVBSG|34=100|52=20150519-12:47:48|10=067|
20150519-12:48:28.107: 8=FIX.4.4|9=54|35=0|34=100|49=LVBSG|52=20150519-12:48:28.107|56=CL02|10=172|
20150519-12:48:48.719: 8=FIX.4.4|9=0050|35=0|49=CL02|56=LVBSG|34=101|52=20150519-12:48:48|10=069|
20150519-12:49:28.108: 8=FIX.4.4|9=54|35=0|34=101|49=LVBSG|52=20150519-12:49:28.108|56=CL02|10=175|
20150519-12:49:48.714: 8=FIX.4.4|9=0050|35=0|49=CL02|56=LVBSG|34=102|52=20150519-12:49:48|10=071|
20150519-12:50:29.107: 8=FIX.4.4|9=54|35=0|34=102|49=LVBSG|52=20150519-12:50:29.107|56=CL02|10=168|
20150519-12:50:48.715: 8=FIX.4.4|9=0050|35=0|49=CL02|56=LVBSG|34=103|52=20150519-12:50:48|10=064|
20150519-12:51:29.108: 8=FIX.4.4|9=54|35=0|34=103|49=LVBSG|52=20150519-12:51:29.108|56=CL02|10=171|
20150519-12:51:48.715: 8=FIX.4.4|9=0050|35=0|49=CL02|56=LVBSG|34=104|52=20150519-12:51:48|10=066|
20150519-12:52:29.108: 8=FIX.4.4|9=54|35=0|34=104|49=LVBSG|52=20150519-12:52:29.108|56=CL02|10=173|
20150519-12:52:48.715: 8=FIX.4.4|9=0050|35=0|49=CL02|56=LVBSG|34=105|52=20150519-12:52:48|10=068|
20150519-12:53:29.108: 8=FIX.4.4|9=54|35=0|34=105|49=LVBSG|52=20150519-12:53:29.108|56=CL02|10=175|
20150519-12:53:48.715: 8=FIX.4.4|9=0050|35=0|49=CL02|56=LVBSG|34=106|52=20150519-12:53:48|10=070|
20150519-12:54:30.107: 8=FIX.4.4|9=54|35=0|34=106|49=LVBSG|52=20150519-12:54:30.107|56=CL02|10=168|
20150519-12:54:48.716: 8=FIX.4.4|9=0050|35=0|49=CL02|56=LVBSG|34=107|52=20150519-12:54:48|10=072|
20150519-12:55:30.107: 8=FIX.4.4|9=54|35=0|34=107|49=LVBSG|52=20150519-12:55:30.107|56=CL02|10=170|
20150519-12:55:48.716: 8=FIX.4.4|9=0050|35=0|49=CL02|56=LVBSG|34=108|52=20150519-12:55:48|10=074|
20150519-12:56:30.107: 8=FIX.4.4|9=54|35=0|34=108|49=LVBSG|52=20150519-12:56:30.107|56=CL02|10=172|
20150519-12:56:48.715: 8=FIX.4.4|9=0050|35=0|49=CL02|56=LVBSG|34=109|52=20150519-12:56:48|10=076|
20150519-12:57:30.108: 8=FIX.4.4|9=54|35=0|34=109|49=LVBSG|52=20150519-12:57:30.107|56=CL02|10=174|
20150519-12:57:48.716: 8=FIX.4.4|9=0050|35=0|49=CL02|56=LVBSG|34=110|52=20150519-12:57:48|10=069|
20150519-12:58:30.107: 8=FIX.4.4|9=54|35=0|34=110|49=LVBSG|52=20150519-12:58:30.107|56=CL02|10=167|
20150519-12:58:48.721: 8=FIX.4.4|9=0050|35=0|49=CL02|56=LVBSG|34=111|52=20150519-12:58:48|10=071|
20150519-12:59:30.108: 8=FIX.4.4|9=54|35=0|34=111|49=LVBSG|52=20150519-12:59:30.108|56=CL02|10=170|
20150519-12:59:48.739: 8=FIX.4.4|9=0050|35=0|49=CL02|56=LVBSG|34=112|52=20150519-12:59:48|10=073|
20150519-13:00:30.108: 8=FIX.4.4|9=54|35=0|34=112|49=LVBSG|52=20150519-13:00:30.108|56=CL02|10=158|
20150519-13:00:48.721: 8=FIX.4.4|9=0050|35=0|49=CL02|56=LVBSG|34=113|52=20150519-13:00:48|10=061|
20150519-13:01:24.413: 8=FIX.4.4|9=70|35=A|34=1|49=LVBSG|52=20150519-13:01:24.413|56=CL02|98=0|108=60|141=Y|10=150|
20150519-13:01:24.486: 8=FIX.4.4|9=0066|35=A|49=CL02|56=LVBSG|34=1|52=20150519-13:01:24|98=0|108=60|141=Y|10=053|
20150519-13:01:54.110: 8=FIX.4.4|9=0076|35=1|49=CL02|56=LVBSG|34=2|52=20150519-13:01:54|112=Appia-20150519-13:01:54|10=049|
20150519-13:01:54.111: 8=FIX.4.4|9=80|35=0|34=2|49=LVBSG|52=20150519-13:01:54.111|56=CL02|112=Appia-20150519-13:01:54|10=140|
20150519-13:02:54.111: 8=FIX.4.4|9=0048|35=0|49=CL02|56=LVBSG|34=3|52=20150519-13:02:54|10=225|
20150519-13:02:54.112: 8=FIX.4.4|9=52|35=0|34=3|49=LVBSG|52=20150519-13:02:54.112|56=CL02|10=062|
20150519-13:03:54.115: 8=FIX.4.4|9=0048|35=0|49=CL02|56=LVBSG|34=4|52=20150519-13:03:54|10=227|
20150519-13:03:54.115: 8=FIX.4.4|9=52|35=0|34=4|49=LVBSG|52=20150519-13:03:54.115|56=CL02|10=067|
20150519-13:04:54.112: 8=FIX.4.4|9=0048|35=0|49=CL02|56=LVBSG|34=5|52=20150519-13:04:54|10=229|
20150519-13:04:54.311: 8=FIX.4.4|9=52|35=0|34=5|49=LVBSG|52=20150519-13:04:54.311|56=CL02|10=067|
20150519-13:05:54.111: 8=FIX.4.4|9=0048|35=0|49=CL02|56=LVBSG|34=6|52=20150519-13:05:54|10=231|
20150519-13:05:54.312: 8=FIX.4.4|9=52|35=0|34=6|49=LVBSG|52=20150519-13:05:54.312|56=CL02|10=070|
20150519-13:06:54.111: 8=FIX.4.4|9=0048|35=0|49=CL02|56=LVBSG|34=7|52=20150519-13:06:54|10=233|
20150519-13:06:55.311: 8=FIX.4.4|9=52|35=0|34=7|49=LVBSG|52=20150519-13:06:55.311|56=CL02|10=072|
20150519-13:07:54.124: 8=FIX.4.4|9=0048|35=0|49=CL02|56=LVBSG|34=8|52=20150519-13:07:54|10=235|
20150519-13:07:55.312: 8=FIX.4.4|9=52|35=0|34=8|49=LVBSG|52=20150519-13:07:55.312|56=CL02|10=075|
20150519-13:08:54.122: 8=FIX.4.4|9=0048|35=0|49=CL02|56=LVBSG|34=9|52=20150519-13:08:54|10=237|
20150519-13:08:56.311: 8=FIX.4.4|9=52|35=0|34=9|49=LVBSG|52=20150519-13:08:56.311|56=CL02|10=077|
20150519-13:09:54.113: 8=FIX.4.4|9=0049|35=0|49=CL02|56=LVBSG|34=10|52=20150519-13:09:54|10=023|
20150519-13:09:56.312: 8=FIX.4.4|9=53|35=0|34=10|49=LVBSG|52=20150519-13:09:56.311|56=CL02|10=119|
20150519-13:10:54.111: 8=FIX.4.4|9=0049|35=0|49=CL02|56=LVBSG|34=11|52=20150519-13:10:54|10=016|
20150519-13:10:56.311: 8=FIX.4.4|9=53|35=0|34=11|49=LVBSG|52=20150519-13:10:56.311|56=CL02|10=112|
20150519-13:11:54.112: 8=FIX.4.4|9=0049|35=0|49=CL02|56=LVBSG|34=12|52=20150519-13:11:54|10=018|
20150519-13:11:56.311: 8=FIX.4.4|9=53|35=0|34=12|49=LVBSG|52=20150519-13:11:56.311|56=CL02|10=114|
20150519-13:12:54.113: 8=FIX.4.4|9=0049|35=0|49=CL02|56=LVBSG|34=13|52=20150519-13:12:54|10=020|
20150519-13:12:56.311: 8=FIX.4.4|9=53|35=0|34=13|49=LVBSG|52=20150519-13:12:56.311|56=CL02|10=116|
20150519-13:13:54.122: 8=FIX.4.4|9=0049|35=0|49=CL02|56=LVBSG|34=14|52=20150519-13:13:54|10=022|
20150519-13:13:56.312: 8=FIX.4.4|9=53|35=0|34=14|49=LVBSG|52=20150519-13:13:56.312|56=CL02|10=119|
20150519-13:14:54.116: 8=FIX.4.4|9=0049|35=0|49=CL02|56=LVBSG|34=15|52=20150519-13:14:54|10=024|
20150519-13:14:57.311: 8=FIX.4.4|9=53|35=0|34=15|49=LVBSG|52=20150519-13:14:57.311|56=CL02|10=121|
20150519-13:15:54.118: 8=FIX.4.4|9=0049|35=0|49=CL02|56=LVBSG|34=16|52=20150519-13:15:54|10=026|
20150519-13:15:57.312: 8=FIX.4.4|9=53|35=0|34=16|49=LVBSG|52=20150519-13:15:57.312|56=CL02|10=124|
20150519-13:16:54.114: 8=FIX.4.4|9=0049|35=0|49=CL02|56=LVBSG|34=17|52=20150519-13:16:54|10=028|
20150519-13:16:58.311: 8=FIX.4.4|9=53|35=0|34=17|49=LVBSG|52=20150519-13:16:58.311|56=CL02|10=126|
20150519-13:17:54.114: 8=FIX.4.4|9=0049|35=0|49=CL02|56=LVBSG|34=18|52=20150519-13:17:54|10=030|
20150519-13:17:58.311: 8=FIX.4.4|9=53|35=0|34=18|49=LVBSG|52=20150519-13:17:58.311|56=CL02|10=128|
20150519-13:18:54.116: 8=FIX.4.4|9=0049|35=0|49=CL02|56=LVBSG|34=19|52=20150519-13:18:54|10=032|
20150519-13:18:58.312: 8=FIX.4.4|9=53|35=0|34=19|49=LVBSG|52=20150519-13:18:58.312|56=CL02|10=131|
20150519-13:19:54.117: 8=FIX.4.4|9=0049|35=0|49=CL02|56=LVBSG|34=20|52=20150519-13:19:54|10=025|
20150519-13:19:59.311: 8=FIX.4.4|9=53|35=0|34=20|49=LVBSG|52=20150519-13:19:59.311|56=CL02|10=124|
20150519-13:20:54.116: 8=FIX.4.4|9=0049|35=0|49=CL02|56=LVBSG|34=21|52=20150519-13:20:54|10=018|
20150519-13:20:59.312: 8=FIX.4.4|9=53|35=0|34=21|49=LVBSG|52=20150519-13:20:59.312|56=CL02|10=118|
20150519-13:21:54.116: 8=FIX.4.4|9=0049|35=0|49=CL02|56=LVBSG|34=22|52=20150519-13:21:54|10=020|
20150519-13:21:59.312: 8=FIX.4.4|9=53|35=0|34=22|49=LVBSG|52=20150519-13:21:59.312|56=CL02|10=120|
20150519-13:22:54.117: 8=FIX.4.4|9=0049|35=0|49=CL02|56=LVBSG|34=23|52=20150519-13:22:54|10=022|
20150519-13:23:00.311: 8=FIX.4.4|9=53|35=0|34=23|49=LVBSG|52=20150519-13:23:00.311|56=CL02|10=108|
20150519-13:23:54.117: 8=FIX.4.4|9=0049|35=0|49=CL02|56=LVBSG|34=24|52=20150519-13:23:54|10=024|
20150519-13:24:00.311: 8=FIX.4.4|9=53|35=0|34=24|49=LVBSG|52=20150519-13:24:00.311|56=CL02|10=110|
20150519-13:24:54.118: 8=FIX.4.4|9=0049|35=0|49=CL02|56=LVBSG|34=25|52=20150519-13:24:54|10=026|
20150519-13:25:00.311: 8=FIX.4.4|9=53|35=0|34=25|49=LVBSG|52=20150519-13:25:00.311|56=CL02|10=112|
20150519-13:25:54.128: 8=FIX.4.4|9=0049|35=0|49=CL02|56=LVBSG|34=26|52=20150519-13:25:54|10=028|
20150519-13:26:00.314: 8=FIX.4.4|9=53|35=0|34=26|49=LVBSG|52=20150519-13:26:00.314|56=CL02|10=117|
20150519-13:26:54.118: 8=FIX.4.4|9=0049|35=0|49=CL02|56=LVBSG|34=27|52=20150519-13:26:54|10=030|
20150519-13:27:01.311: 8=FIX.4.4|9=53|35=0|34=27|49=LVBSG|52=20150519-13:27:01.311|56=CL02|10=117|
20150519-13:27:54.129: 8=FIX.4.4|9=0049|35=0|49=CL02|56=LVBSG|34=28|52=20150519-13:27:54|10=032|
20150519-13:28:01.312: 8=FIX.4.4|9=53|35=0|34=28|49=LVBSG|52=20150519-13:28:01.312|56=CL02|10=120|
20150519-13:28:54.119: 8=FIX.4.4|9=0049|35=0|49=CL02|56=LVBSG|34=29|52=20150519-13:28:54|10=034|
20150519-13:29:02.311: 8=FIX.4.4|9=53|35=0|34=29|49=LVBSG|52=20150519-13:29:02.311|56=CL02|10=122|
20150519-13:29:54.120: 8=FIX.4.4|9=0049|35=0|49=CL02|56=LVBSG|34=30|52=20150519-13:29:54|10=027|
20150519-13:30:02.311: 8=FIX.4.4|9=53|35=0|34=30|49=LVBSG|52=20150519-13:30:02.311|56=CL02|10=106|
20150519-13:30:54.125: 8=FIX.4.4|9=0049|35=0|49=CL02|56=LVBSG|34=31|52=20150519-13:30:54|10=020|
20150519-13:31:02.311: 8=FIX.4.4|9=53|35=0|34=31|49=LVBSG|52=20150519-13:31:02.311|56=CL02|10=108|
20150519-13:31:54.120: 8=FIX.4.4|9=0049|35=0|49=CL02|56=LVBSG|34=32|52=20150519-13:31:54|10=022|
20150519-13:32:02.312: 8=FIX.4.4|9=53|35=0|34=32|49=LVBSG|52=20150519-13:32:02.312|56=CL02|10=111|
20150519-13:32:54.120: 8=FIX.4.4|9=0049|35=0|49=CL02|56=LVBSG|34=33|52=20150519-13:32:54|10=024|
20150519-13:33:02.312: 8=FIX.4.4|9=53|35=0|34=33|49=LVBSG|52=20150519-13:33:02.312|56=CL02|10=113|
20150519-13:33:54.124: 8=FIX.4.4|9=0049|35=0|49=CL02|56=LVBSG|34=34|52=20150519-13:33:54|10=026|
20150519-13:34:03.311: 8=FIX.4.4|9=53|35=0|34=34|49=LVBSG|52=20150519-13:34:03.311|56=CL02|10=115|
20150519-13:34:54.121: 8=FIX.4.4|9=0049|35=0|49=CL02|56=LVBSG|34=35|52=20150519-13:34:54|10=028|
20150519-13:35:03.314: 8=FIX.4.4|9=53|35=0|34=35|49=LVBSG|52=20150519-13:35:03.314|56=CL02|10=120|
20150519-13:35:54.120: 8=FIX.4.4|9=0049|35=0|49=CL02|56=LVBSG|34=36|52=20150519-13:35:54|10=030|
20150519-13:36:04.312: 8=FIX.4.4|9=53|35=0|34=36|49=LVBSG|52=20150519-13:36:04.312|56=CL02|10=121|
20150519-13:36:54.121: 8=FIX.4.4|9=0049|35=0|49=CL02|56=LVBSG|34=37|52=20150519-13:36:54|10=032|
20150519-13:37:05.312: 8=FIX.4.4|9=53|35=0|34=37|49=LVBSG|52=20150519-13:37:05.312|56=CL02|10=124|
20150519-13:37:54.121: 8=FIX.4.4|9=0049|35=0|49=CL02|56=LVBSG|34=38|52=20150519-13:37:54|10=034|
20150519-13:38:06.312: 8=FIX.4.4|9=53|35=0|34=38|49=LVBSG|52=20150519-13:38:06.312|56=CL02|10=127|
20150519-13:38:54.121: 8=FIX.4.4|9=0049|35=0|49=CL02|56=LVBSG|34=39|52=20150519-13:38:54|10=036|
20150519-13:39:06.321: 8=FIX.4.4|9=53|35=0|34=39|49=LVBSG|52=20150519-13:39:06.321|56=CL02|10=129|
20150519-13:39:54.121: 8=FIX.4.4|9=0049|35=0|49=CL02|56=LVBSG|34=40|52=20150519-13:39:54|10=029|
20150519-13:40:07.312: 8=FIX.4.4|9=53|35=0|34=40|49=LVBSG|52=20150519-13:40:07.312|56=CL02|10=114|
20150519-13:40:54.121: 8=FIX.4.4|9=0049|35=0|49=CL02|56=LVBSG|34=41|52=20150519-13:40:54|10=022|
20150519-13:41:07.312: 8=FIX.4.4|9=53|35=0|34=41|49=LVBSG|52=20150519-13:41:07.312|56=CL02|10=116|
20150519-13:41:54.122: 8=FIX.4.4|9=0049|35=0|49=CL02|56=LVBSG|34=42|52=20150519-13:41:54|10=024|
20150519-13:42:07.312: 8=FIX.4.4|9=53|35=0|34=42|49=LVBSG|52=20150519-13:42:07.312|56=CL02|10=118|
20150519-13:42:54.121: 8=FIX.4.4|9=0049|35=0|49=CL02|56=LVBSG|34=43|52=20150519-13:42:54|10=026|
20150519-13:43:08.311: 8=FIX.4.4|9=53|35=0|34=43|49=LVBSG|52=20150519-13:43:08.311|56=CL02|10=120|
20150519-13:43:54.122: 8=FIX.4.4|9=0049|35=0|49=CL02|56=LVBSG|34=44|52=20150519-13:43:54|10=028|
20150519-13:44:08.311: 8=FIX.4.4|9=53|35=0|34=44|49=LVBSG|52=20150519-13:44:08.311|56=CL02|10=122|
20150519-13:44:54.123: 8=FIX.4.4|9=0049|35=0|49=CL02|56=LVBSG|34=45|52=20150519-13:44:54|10=030|
20150519-13:45:08.311: 8=FIX.4.4|9=53|35=0|34=45|49=LVBSG|52=20150519-13:45:08.311|56=CL02|10=124|
20150519-13:45:54.122: 8=FIX.4.4|9=0049|35=0|49=CL02|56=LVBSG|34=46|52=20150519-13:45:54|10=032|
20150519-13:46:08.312: 8=FIX.4.4|9=53|35=0|34=46|49=LVBSG|52=20150519-13:46:08.312|56=CL02|10=127|
20150519-13:46:54.125: 8=FIX.4.4|9=0049|35=0|49=CL02|56=LVBSG|34=47|52=20150519-13:46:54|10=034|
20150519-13:47:09.312: 8=FIX.4.4|9=53|35=0|34=47|49=LVBSG|52=20150519-13:47:09.312|56=CL02|10=130|
20150519-13:47:54.127: 8=FIX.4.4|9=0049|35=0|49=CL02|56=LVBSG|34=48|52=20150519-13:47:54|10=036|
20150519-13:48:09.312: 8=FIX.4.4|9=53|35=0|34=48|49=LVBSG|52=20150519-13:48:09.312|56=CL02|10=132|
20150519-13:48:54.124: 8=FIX.4.4|9=0049|35=0|49=CL02|56=LVBSG|34=49|52=20150519-13:48:54|10=038|
20150519-13:49:10.312: 8=FIX.4.4|9=53|35=0|34=49|49=LVBSG|52=20150519-13:49:10.312|56=CL02|10=126|
20150519-13:49:54.124: 8=FIX.4.4|9=0049|35=0|49=CL02|56=LVBSG|34=50|52=20150519-13:49:54|10=031|
20150519-13:50:11.311: 8=FIX.4.4|9=53|35=0|34=50|49=LVBSG|52=20150519-13:50:11.311|56=CL02|10=110|
20150519-13:50:54.123: 8=FIX.4.4|9=0049|35=0|49=CL02|56=LVBSG|34=51|52=20150519-13:50:54|10=024|
20150519-13:51:11.311: 8=FIX.4.4|9=53|35=0|34=51|49=LVBSG|52=20150519-13:51:11.311|56=CL02|10=112|
20150519-13:51:54.126: 8=FIX.4.4|9=0049|35=0|49=CL02|56=LVBSG|34=52|52=20150519-13:51:54|10=026|
20150519-13:52:11.311: 8=FIX.4.4|9=53|35=0|34=52|49=LVBSG|52=20150519-13:52:11.311|56=CL02|10=114|
20150519-13:52:54.122: 8=FIX.4.4|9=0049|35=0|49=CL02|56=LVBSG|34=53|52=20150519-13:52:54|10=028|
20150519-13:53:11.311: 8=FIX.4.4|9=53|35=0|34=53|49=LVBSG|52=20150519-13:53:11.311|56=CL02|10=116|
20150519-13:53:54.125: 8=FIX.4.4|9=0049|35=0|49=CL02|56=LVBSG|34=54|52=20150519-13:53:54|10=030|
20150519-13:54:11.315: 8=FIX.4.4|9=53|35=0|34=54|49=LVBSG|52=20150519-13:54:11.314|56=CL02|10=121|
20150519-13:54:54.122: 8=FIX.4.4|9=0049|35=0|49=CL02|56=LVBSG|34=55|52=20150519-13:54:54|10=032|
20150519-13:55:12.312: 8=FIX.4.4|9=53|35=0|34=55|49=LVBSG|52=20150519-13:55:12.312|56=CL02|10=122|
20150519-13:55:54.123: 8=FIX.4.4|9=0049|35=0|49=CL02|56=LVBSG|34=56|52=20150519-13:55:54|10=034|
20150519-13:56:12.312: 8=FIX.4.4|9=53|35=0|34=56|49=LVBSG|52=20150519-13:56:12.312|56=CL02|10=124|
20150519-13:56:54.123: 8=FIX.4.4|9=0049|35=0|49=CL02|56=LVBSG|34=57|52=20150519-13:56:54|10=036|
20150519-13:57:13.311: 8=FIX.4.4|9=53|35=0|34=57|49=LVBSG|52=20150519-13:57:13.311|56=CL02|10=126|
20150519-13:57:54.128: 8=FIX.4.4|9=0049|35=0|49=CL02|56=LVBSG|34=58|52=20150519-13:57:54|10=038|
20150519-13:58:13.312: 8=FIX.4.4|9=53|35=0|34=58|49=LVBSG|52=20150519-13:58:13.312|56=CL02|10=129|
20150519-13:58:54.130: 8=FIX.4.4|9=0049|35=0|49=CL02|56=LVBSG|34=59|52=20150519-13:58:54|10=040|
20150519-13:59:13.312: 8=FIX.4.4|9=53|35=0|34=59|49=LVBSG|52=20150519-13:59:13.312|56=CL02|10=131|
20150519-13:59:54.126: 8=FIX.4.4|9=0049|35=0|49=CL02|56=LVBSG|34=60|52=20150519-13:59:54|10=033|
20150519-14:00:14.311: 8=FIX.4.4|9=53|35=0|34=60|49=LVBSG|52=20150519-14:00:14.311|56=CL02|10=110|
20150519-14:00:27.241: 8=FIX.4.4|9=249|35=D|34=61|49=LVBSG|50=7369691|52=20150519-14:00:27.241|56=CL02|57=XPUS|1=QXP019284|11=-390d5966a6e2b942|21=1|38=300|40=2|44=18.48|54=1|55=BCA|59=0|60=20150519-14:00:27.241|63=4|100=US|111=100|207=US|583=-31a50ece1f00b6fb|453=1|448=XPUS|447=D|452=1|10=024|
20150519-14:00:27.281: 8=FIX.4.4|9=0316|35=8|49=CL02|56=LVBSG|34=61|52=20150519-14:00:27|50=XPUS|57=7369691|1=QXP019284|207=US|6=0|11=-390d5966a6e2b942|14=0|17=7512e03536b94a4d|21=1|150=A|31=0|151=300|32=0|100=US|38=300|39=A|37=-3556ff9b1ee2b28d|583=-31a50ece1f00b6fb|40=2|44=18.48|55=BCA|54=1|59=0|63=4|60=20150519-14:00:27.265|453=1|448=XPUS|447=D|452=1|10=169|
20150519-14:00:28.030: 8=FIX.4.4|9=0325|35=8|49=CL02|56=LVBSG|34=62|52=20150519-14:00:28|50=XPUS|57=7369691|1=QXP019284|207=US|6=0|11=-390d5966a6e2b942|14=0|17=LVSXFIX2-385300000B000002|21=1|150=0|31=0|151=300|32=0|100=US|38=300|39=0|37=-3556ff9b1ee2b28d|583=-31a50ece1f00b6fb|40=2|44=18.48|55=BCA|54=1|59=0|63=4|60=20150519-14:00:28.022|453=1|448=XPUS|447=D|452=1|10=062|
20150519-14:00:28.034: 8=FIX.4.4|9=271|35=G|34=62|49=LVBSG|50=7369691|52=20150519-14:00:28.034|56=CL02|57=XPUS|1=QXP019284|11=-1e7f6d14dcadb695|21=1|38=1000|40=2|41=-390d5966a6e2b942|44=18.48|54=1|55=BCA|59=0|60=20150519-14:00:28.034|63=4|100=US|111=100|207=US|583=-31a50ece1f00b6fb|453=1|448=XPUS|447=D|452=1|10=219|
20150519-14:00:28.039: 8=FIX.4.4|9=0337|35=8|49=CL02|56=LVBSG|34=63|52=20150519-14:00:28|50=XPUS|57=7369691|1=QXP019284|207=US|6=18.48|11=-390d5966a6e2b942|14=100|17=LVSXFIX2-385300000B000003|21=1|150=F|31=18.48|151=200|32=100|100=US|38=300|39=1|37=-3556ff9b1ee2b28d|583=-31a50ece1f00b6fb|40=2|44=18.48|55=BCA|54=1|59=0|63=4|60=20150519-14:00:28.033|453=1|448=XPUS|447=D|452=1|10=195|
20150519-14:00:28.048: 8=FIX.4.4|9=0335|35=8|49=CL02|56=LVBSG|34=64|52=20150519-14:00:28|50=XPUS|57=7369691|1=QXP019284|207=US|6=18.48|11=-390d5966a6e2b942|14=300|17=LVSXFIX2-385300000B000004|21=1|150=F|31=18.48|151=0|32=200|100=US|38=300|39=2|37=-3556ff9b1ee2b28d|583=-31a50ece1f00b6fb|40=2|44=18.48|55=BCA|54=1|59=0|63=4|60=20150519-14:00:28.040|453=1|448=XPUS|447=D|452=1|10=099|
20150519-14:00:28.048: 8=FIX.4.4|9=0259|35=9|49=CL02|56=LVBSG|34=65|52=20150519-14:00:28|102=99|1=QXP019284|39=8|37=1cd451e2dfdb461a|583=-31a50ece1f00b6fb|434=1|41=-390d5966a6e2b942|11=-1e7f6d14dcadb695|58=Your request can't be processed, because the Order Status is Filled|60=20150519-14:00:28.041|10=051|
20150519-14:00:28.055: 8=FIX.4.4|9=248|35=D|34=63|49=LVBSG|50=7369691|52=20150519-14:00:28.054|56=CL02|57=XPUS|1=QXP019284|11=3f5ce36168c04cfd|21=1|38=700|40=2|44=18.48|54=1|55=BCA|59=0|60=20150519-14:00:28.054|63=4|100=US|111=100|207=US|583=-31a50ece1f00b6fb|453=1|448=XPUS|447=D|452=1|10=127|
20150519-14:00:28.087: 8=FIX.4.4|9=0315|35=8|49=CL02|56=LVBSG|34=66|52=20150519-14:00:28|50=XPUS|57=7369691|1=QXP019284|207=US|6=0|11=3f5ce36168c04cfd|14=0|17=18cb93ff09a74876|21=1|150=A|31=0|151=700|32=0|100=US|38=700|39=A|37=-573c89fa642dbf1e|583=-31a50ece1f00b6fb|40=2|44=18.48|55=BCA|54=1|59=0|63=4|60=20150519-14:00:28.061|453=1|448=XPUS|447=D|452=1|10=081|
20150519-14:00:28.484: 8=FIX.4.4|9=0324|35=8|49=CL02|56=LVBSG|34=67|52=20150519-14:00:28|50=XPUS|57=7369691|1=QXP019284|207=US|6=0|11=3f5ce36168c04cfd|14=0|17=LVSXFIX2-385300000C000002|21=1|150=0|31=0|151=700|32=0|100=US|38=700|39=0|37=-573c89fa642dbf1e|583=-31a50ece1f00b6fb|40=2|44=18.48|55=BCA|54=1|59=0|63=4|60=20150519-14:00:28.477|453=1|448=XPUS|447=D|452=1|10=182|
20150519-14:00:28.562: 8=FIX.4.4|9=0336|35=8|49=CL02|56=LVBSG|34=68|52=20150519-14:00:28|50=XPUS|57=7369691|1=QXP019284|207=US|6=18.48|11=3f5ce36168c04cfd|14=100|17=LVSXFIX2-385300000C000003|21=1|150=F|31=18.48|151=600|32=100|100=US|38=700|39=1|37=-573c89fa642dbf1e|583=-31a50ece1f00b6fb|40=2|44=18.48|55=BCA|54=1|59=0|63=4|60=20150519-14:00:28.536|453=1|448=XPUS|447=D|452=1|10=053|
20150519-14:00:28.573: 8=FIX.4.4|9=0336|35=8|49=CL02|56=LVBSG|34=69|52=20150519-14:00:28|50=XPUS|57=7369691|1=QXP019284|207=US|6=18.48|11=3f5ce36168c04cfd|14=500|17=LVSXFIX2-385300000C000004|21=1|150=F|31=18.48|151=200|32=400|100=US|38=700|39=1|37=-573c89fa642dbf1e|583=-31a50ece1f00b6fb|40=2|44=18.48|55=BCA|54=1|59=0|63=4|60=20150519-14:00:28.564|453=1|448=XPUS|447=D|452=1|10=059|
20150519-14:00:28.578: 8=FIX.4.4|9=0336|35=8|49=CL02|56=LVBSG|34=70|52=20150519-14:00:28|50=XPUS|57=7369691|1=QXP019284|207=US|6=18.48|11=3f5ce36168c04cfd|14=600|17=LVSXFIX2-385300000C000005|21=1|150=F|31=18.48|151=100|32=100|100=US|38=700|39=1|37=-573c89fa642dbf1e|583=-31a50ece1f00b6fb|40=2|44=18.48|55=BCA|54=1|59=0|63=4|60=20150519-14:00:28.568|453=1|448=XPUS|447=D|452=1|10=053|
20150519-14:00:28.579: 8=FIX.4.4|9=0334|35=8|49=CL02|56=LVBSG|34=71|52=20150519-14:00:28|50=XPUS|57=7369691|1=QXP019284|207=US|6=18.48|11=3f5ce36168c04cfd|14=700|17=LVSXFIX2-385300000C000006|21=1|150=F|31=18.48|151=0|32=100|100=US|38=700|39=2|37=-573c89fa642dbf1e|583=-31a50ece1f00b6fb|40=2|44=18.48|55=BCA|54=1|59=0|63=4|60=20150519-14:00:28.571|453=1|448=XPUS|447=D|452=1|10=208|
20150519-14:01:28.312: 8=FIX.4.4|9=53|35=0|34=64|49=LVBSG|52=20150519-14:01:28.312|56=CL02|10=121|
20150519-14:01:28.594: 8=FIX.4.4|9=0049|35=0|49=CL02|56=LVBSG|34=72|52=20150519-14:01:28|10=025|
20150519-14:02:28.586: 8=FIX.4.4|9=0049|35=0|49=CL02|56=LVBSG|34=73|52=20150519-14:02:28|10=027|
20150519-14:02:28.586: 8=FIX.4.4|9=53|35=0|34=65|49=LVBSG|52=20150519-14:02:28.586|56=CL02|10=136|
20150519-14:03:28.577: 8=FIX.4.4|9=0049|35=0|49=CL02|56=LVBSG|34=74|52=20150519-14:03:28|10=029|
20150519-14:03:29.311: 8=FIX.4.4|9=53|35=0|34=66|49=LVBSG|52=20150519-14:03:29.311|56=CL02|10=125|
20150519-14:04:28.577: 8=FIX.4.4|9=0049|35=0|49=CL02|56=LVBSG|34=75|52=20150519-14:04:28|10=031|
20150519-14:04:29.311: 8=FIX.4.4|9=53|35=0|34=67|49=LVBSG|52=20150519-14:04:29.311|56=CL02|10=127|
20150519-14:05:28.584: 8=FIX.4.4|9=0049|35=0|49=CL02|56=LVBSG|34=76|52=20150519-14:05:28|10=033|
20150519-14:05:29.312: 8=FIX.4.4|9=53|35=0|34=68|49=LVBSG|52=20150519-14:05:29.311|56=CL02|10=129|
20150519-14:06:28.580: 8=FIX.4.4|9=0049|35=0|49=CL02|56=LVBSG|34=77|52=20150519-14:06:28|10=035|
20150519-14:06:29.312: 8=FIX.4.4|9=53|35=0|34=69|49=LVBSG|52=20150519-14:06:29.312|56=CL02|10=132|
20150519-14:07:28.577: 8=FIX.4.4|9=0049|35=0|49=CL02|56=LVBSG|34=78|52=20150519-14:07:28|10=037|
20150519-14:07:29.312: 8=FIX.4.4|9=53|35=0|34=70|49=LVBSG|52=20150519-14:07:29.312|56=CL02|10=125|
20150519-14:08:28.576: 8=FIX.4.4|9=0049|35=0|49=CL02|56=LVBSG|34=79|52=20150519-14:08:28|10=039|
20150519-14:08:30.312: 8=FIX.4.4|9=53|35=0|34=71|49=LVBSG|52=20150519-14:08:30.312|56=CL02|10=119|
20150519-14:09:11.036: 8=FIX.4.4|9=248|35=D|34=72|49=LVBSG|50=7369691|52=20150519-14:09:11.036|56=CL02|57=XPUS|1=QXP019284|11=66f8244d6e254b43|21=1|38=100|40=2|44=18.45|54=1|55=BCA|59=0|60=20150519-14:09:11.036|63=4|100=US|111=100|207=US|583=-31a50ece1f00b6fb|453=1|448=XPUS|447=D|452=1|10=237|
20150519-14:09:11.070: 8=FIX.4.4|9=0315|35=8|49=CL02|56=LVBSG|34=80|52=20150519-14:09:11|50=XPUS|57=7369691|1=QXP019284|207=US|6=0|11=66f8244d6e254b43|14=0|17=-56e7f198269aba43|21=1|150=A|31=0|151=100|32=0|100=US|38=100|39=A|37=6c5e6983ebea42cf|583=-31a50ece1f00b6fb|40=2|44=18.45|55=BCA|54=1|59=0|63=4|60=20150519-14:09:11.053|453=1|448=XPUS|447=D|452=1|10=226|
20150519-14:09:11.472: 8=FIX.4.4|9=0323|35=8|49=CL02|56=LVBSG|34=81|52=20150519-14:09:11|50=XPUS|57=7369691|1=QXP019284|207=US|6=0|11=66f8244d6e254b43|14=0|17=LVSXFIX2-385300000O000002|21=1|150=0|31=0|151=100|32=0|100=US|38=100|39=0|37=6c5e6983ebea42cf|583=-31a50ece1f00b6fb|40=2|44=18.45|55=BCA|54=1|59=0|63=4|60=20150519-14:09:11.465|453=1|448=XPUS|447=D|452=1|10=038|
20150519-14:09:11.512: 8=FIX.4.4|9=0333|35=8|49=CL02|56=LVBSG|34=82|52=20150519-14:09:11|50=XPUS|57=7369691|1=QXP019284|207=US|6=18.45|11=66f8244d6e254b43|14=100|17=LVSXFIX2-385300000O000003|21=1|150=F|31=18.45|151=0|32=100|100=US|38=100|39=2|37=6c5e6983ebea42cf|583=-31a50ece1f00b6fb|40=2|44=18.45|55=BCA|54=1|59=0|63=4|60=20150519-14:09:11.504|453=1|448=XPUS|447=D|452=1|10=060|
20150519-14:10:11.312: 8=FIX.4.4|9=53|35=0|34=73|49=LVBSG|52=20150519-14:10:11.312|56=CL02|10=113|
20150519-14:10:11.510: 8=FIX.4.4|9=0049|35=0|49=CL02|56=LVBSG|34=83|52=20150519-14:10:11|10=019|
20150519-14:11:11.509: 8=FIX.4.4|9=0049|35=0|49=CL02|56=LVBSG|34=84|52=20150519-14:11:11|10=021|
20150519-14:11:11.510: 8=FIX.4.4|9=53|35=0|34=74|49=LVBSG|52=20150519-14:11:11.510|56=CL02|10=115|
20150519-14:12:11.510: 8=FIX.4.4|9=0049|35=0|49=CL02|56=LVBSG|34=85|52=20150519-14:12:11|10=023|
20150519-14:12:11.510: 8=FIX.4.4|9=53|35=0|34=75|49=LVBSG|52=20150519-14:12:11.510|56=CL02|10=117|
20150519-14:13:11.509: 8=FIX.4.4|9=0049|35=0|49=CL02|56=LVBSG|34=86|52=20150519-14:13:11|10=025|
20150519-14:13:11.510: 8=FIX.4.4|9=53|35=0|34=76|49=LVBSG|52=20150519-14:13:11.510|56=CL02|10=119|
20150519-14:14:11.516: 8=FIX.4.4|9=0049|35=0|49=CL02|56=LVBSG|34=87|52=20150519-14:14:11|10=027|
20150519-14:14:11.517: 8=FIX.4.4|9=53|35=0|34=77|49=LVBSG|52=20150519-14:14:11.517|56=CL02|10=128|
20150519-14:15:11.510: 8=FIX.4.4|9=0049|35=0|49=CL02|56=LVBSG|34=88|52=20150519-14:15:11|10=029|
20150519-14:15:12.312: 8=FIX.4.4|9=53|35=0|34=78|49=LVBSG|52=20150519-14:15:12.312|56=CL02|10=124|
20150519-14:16:11.510: 8=FIX.4.4|9=0049|35=0|49=CL02|56=LVBSG|34=89|52=20150519-14:16:11|10=031|
20150519-14:16:13.312: 8=FIX.4.4|9=53|35=0|34=79|49=LVBSG|52=20150519-14:16:13.312|56=CL02|10=127|
20150519-14:17:11.511: 8=FIX.4.4|9=0049|35=0|49=CL02|56=LVBSG|34=90|52=20150519-14:17:11|10=024|
20150519-14:17:13.312: 8=FIX.4.4|9=53|35=0|34=80|49=LVBSG|52=20150519-14:17:13.312|56=CL02|10=120|
20150519-14:18:11.510: 8=FIX.4.4|9=0049|35=0|49=CL02|56=LVBSG|34=91|52=20150519-14:18:11|10=026|
20150519-14:18:14.312: 8=FIX.4.4|9=53|35=0|34=81|49=LVBSG|52=20150519-14:18:14.312|56=CL02|10=123|
20150519-14:19:11.513: 8=FIX.4.4|9=0049|35=0|49=CL02|56=LVBSG|34=92|52=20150519-14:19:11|10=028|
20150519-14:19:15.311: 8=FIX.4.4|9=53|35=0|34=82|49=LVBSG|52=20150519-14:19:15.311|56=CL02|10=125|
20150519-14:20:11.509: 8=FIX.4.4|9=0049|35=0|49=CL02|56=LVBSG|34=93|52=20150519-14:20:11|10=021|
20150519-14:20:15.312: 8=FIX.4.4|9=53|35=0|34=83|49=LVBSG|52=20150519-14:20:15.312|56=CL02|10=119|
20150519-14:21:11.511: 8=FIX.4.4|9=0049|35=0|49=CL02|56=LVBSG|34=94|52=20150519-14:21:11|10=023|
20150519-14:21:15.312: 8=FIX.4.4|9=53|35=0|34=84|49=LVBSG|52=20150519-14:21:15.312|56=CL02|10=121|
20150519-14:22:11.510: 8=FIX.4.4|9=0049|35=0|49=CL02|56=LVBSG|34=95|52=20150519-14:22:11|10=025|
20150519-14:22:16.312: 8=FIX.4.4|9=53|35=0|34=85|49=LVBSG|52=20150519-14:22:16.312|56=CL02|10=124|
20150519-14:23:11.510: 8=FIX.4.4|9=0049|35=0|49=CL02|56=LVBSG|34=96|52=20150519-14:23:11|10=027|
20150519-14:23:17.312: 8=FIX.4.4|9=53|35=0|34=86|49=LVBSG|52=20150519-14:23:17.312|56=CL02|10=127|
20150519-14:24:11.510: 8=FIX.4.4|9=0049|35=0|49=CL02|56=LVBSG|34=97|52=20150519-14:24:11|10=029|
20150519-14:24:18.311: 8=FIX.4.4|9=53|35=0|34=87|49=LVBSG|52=20150519-14:24:18.311|56=CL02|10=129|
20150519-14:25:11.510: 8=FIX.4.4|9=0049|35=0|49=CL02|56=LVBSG|34=98|52=20150519-14:25:11|10=031|
20150519-14:25:18.312: 8=FIX.4.4|9=53|35=0|34=88|49=LVBSG|52=20150519-14:25:18.312|56=CL02|10=132|
20150519-14:26:11.510: 8=FIX.4.4|9=0049|35=0|49=CL02|56=LVBSG|34=99|52=20150519-14:26:11|10=033|
20150519-14:26:19.312: 8=FIX.4.4|9=53|35=0|34=89|49=LVBSG|52=20150519-14:26:19.312|56=CL02|10=135|
20150519-14:27:11.510: 8=FIX.4.4|9=0050|35=0|49=CL02|56=LVBSG|34=100|52=20150519-14:27:11|10=057|
20150519-14:27:20.312: 8=FIX.4.4|9=53|35=0|34=90|49=LVBSG|52=20150519-14:27:20.312|56=CL02|10=120|
20150519-14:28:11.515: 8=FIX.4.4|9=0050|35=0|49=CL02|56=LVBSG|34=101|52=20150519-14:28:11|10=059|
20150519-14:28:20.312: 8=FIX.4.4|9=53|35=0|34=91|49=LVBSG|52=20150519-14:28:20.312|56=CL02|10=122|
20150519-14:29:11.511: 8=FIX.4.4|9=0050|35=0|49=CL02|56=LVBSG|34=102|52=20150519-14:29:11|10=061|
20150519-14:29:21.312: 8=FIX.4.4|9=53|35=0|34=92|49=LVBSG|52=20150519-14:29:21.312|56=CL02|10=125|
20150519-14:30:11.511: 8=FIX.4.4|9=0050|35=0|49=CL02|56=LVBSG|34=103|52=20150519-14:30:11|10=054|
20150519-14:30:22.311: 8=FIX.4.4|9=53|35=0|34=93|49=LVBSG|52=20150519-14:30:22.311|56=CL02|10=118|
20150519-14:31:11.513: 8=FIX.4.4|9=0050|35=0|49=CL02|56=LVBSG|34=104|52=20150519-14:31:11|10=056|
20150519-14:31:22.311: 8=FIX.4.4|9=53|35=0|34=94|49=LVBSG|52=20150519-14:31:22.311|56=CL02|10=120|
20150519-14:32:11.516: 8=FIX.4.4|9=0050|35=0|49=CL02|56=LVBSG|34=105|52=20150519-14:32:11|10=058|
20150519-14:32:22.312: 8=FIX.4.4|9=53|35=0|34=95|49=LVBSG|52=20150519-14:32:22.312|56=CL02|10=123|
20150519-14:33:11.513: 8=FIX.4.4|9=0050|35=0|49=CL02|56=LVBSG|34=106|52=20150519-14:33:11|10=060|
20150519-14:33:22.312: 8=FIX.4.4|9=53|35=0|34=96|49=LVBSG|52=20150519-14:33:22.312|56=CL02|10=125|
20150519-14:34:11.511: 8=FIX.4.4|9=0050|35=0|49=CL02|56=LVBSG|34=107|52=20150519-14:34:11|10=062|
20150519-14:34:22.312: 8=FIX.4.4|9=53|35=0|34=97|49=LVBSG|52=20150519-14:34:22.312|56=CL02|10=127|
20150519-14:35:11.511: 8=FIX.4.4|9=0050|35=0|49=CL02|56=LVBSG|34=108|52=20150519-14:35:11|10=064|
20150519-14:35:23.311: 8=FIX.4.4|9=53|35=0|34=98|49=LVBSG|52=20150519-14:35:23.311|56=CL02|10=129|
20150519-14:36:11.512: 8=FIX.4.4|9=0050|35=0|49=CL02|56=LVBSG|34=109|52=20150519-14:36:11|10=066|
20150519-14:36:23.312: 8=FIX.4.4|9=53|35=0|34=99|49=LVBSG|52=20150519-14:36:23.312|56=CL02|10=132|
20150519-14:37:11.514: 8=FIX.4.4|9=0050|35=0|49=CL02|56=LVBSG|34=110|52=20150519-14:37:11|10=059|
20150519-14:37:24.312: 8=FIX.4.4|9=54|35=0|34=100|49=LVBSG|52=20150519-14:37:24.312|56=CL02|10=166|
20150519-14:38:11.526: 8=FIX.4.4|9=0050|35=0|49=CL02|56=LVBSG|34=111|52=20150519-14:38:11|10=061|
20150519-14:38:25.311: 8=FIX.4.4|9=54|35=0|34=101|49=LVBSG|52=20150519-14:38:25.311|56=CL02|10=168|
20150519-14:39:11.513: 8=FIX.4.4|9=0050|35=0|49=CL02|56=LVBSG|34=112|52=20150519-14:39:11|10=063|
20150519-14:39:25.311: 8=FIX.4.4|9=54|35=0|34=102|49=LVBSG|52=20150519-14:39:25.311|56=CL02|10=170|
20150519-14:40:11.518: 8=FIX.4.4|9=0050|35=0|49=CL02|56=LVBSG|34=113|52=20150519-14:40:11|10=056|
20150519-14:40:25.312: 8=FIX.4.4|9=54|35=0|34=103|49=LVBSG|52=20150519-14:40:25.312|56=CL02|10=164|
20150519-14:41:11.516: 8=FIX.4.4|9=0050|35=0|49=CL02|56=LVBSG|34=114|52=20150519-14:41:11|10=058|
20150519-14:41:25.312: 8=FIX.4.4|9=54|35=0|34=104|49=LVBSG|52=20150519-14:41:25.312|56=CL02|10=166|
20150519-14:42:11.517: 8=FIX.4.4|9=0050|35=0|49=CL02|56=LVBSG|34=115|52=20150519-14:42:11|10=060|
20150519-14:42:26.312: 8=FIX.4.4|9=54|35=0|34=105|49=LVBSG|52=20150519-14:42:26.312|56=CL02|10=169|
20150519-14:43:11.513: 8=FIX.4.4|9=0050|35=0|49=CL02|56=LVBSG|34=116|52=20150519-14:43:11|10=062|
20150519-14:43:26.312: 8=FIX.4.4|9=54|35=0|34=106|49=LVBSG|52=20150519-14:43:26.312|56=CL02|10=171|
20150519-14:44:11.523: 8=FIX.4.4|9=0050|35=0|49=CL02|56=LVBSG|34=117|52=20150519-14:44:11|10=064|
20150519-14:44:27.311: 8=FIX.4.4|9=54|35=0|34=107|49=LVBSG|52=20150519-14:44:27.311|56=CL02|10=173|
20150519-14:45:11.514: 8=FIX.4.4|9=0050|35=0|49=CL02|56=LVBSG|34=118|52=20150519-14:45:11|10=066|
20150519-14:45:27.354: 8=FIX.4.4|9=54|35=0|34=108|49=LVBSG|52=20150519-14:45:27.354|56=CL02|10=182|
20150519-14:46:11.515: 8=FIX.4.4|9=0050|35=0|49=CL02|56=LVBSG|34=119|52=20150519-14:46:11|10=068|
20150519-14:46:28.312: 8=FIX.4.4|9=54|35=0|34=109|49=LVBSG|52=20150519-14:46:28.312|56=CL02|10=179|
20150519-14:47:11.515: 8=FIX.4.4|9=0050|35=0|49=CL02|56=LVBSG|34=120|52=20150519-14:47:11|10=061|
20150519-14:47:29.311: 8=FIX.4.4|9=54|35=0|34=110|49=LVBSG|52=20150519-14:47:29.311|56=CL02|10=172|
20150519-14:48:11.516: 8=FIX.4.4|9=0050|35=0|49=CL02|56=LVBSG|34=121|52=20150519-14:48:11|10=063|
20150519-14:48:29.311: 8=FIX.4.4|9=54|35=0|34=111|49=LVBSG|52=20150519-14:48:29.311|56=CL02|10=174|
20150519-14:49:11.515: 8=FIX.4.4|9=0050|35=0|49=CL02|56=LVBSG|34=122|52=20150519-14:49:11|10=065|
20150519-14:49:29.311: 8=FIX.4.4|9=54|35=0|34=112|49=LVBSG|52=20150519-14:49:29.311|56=CL02|10=176|
20150519-14:50:11.521: 8=FIX.4.4|9=0050|35=0|49=CL02|56=LVBSG|34=123|52=20150519-14:50:11|10=058|
20150519-14:50:29.312: 8=FIX.4.4|9=54|35=0|34=113|49=LVBSG|52=20150519-14:50:29.312|56=CL02|10=170|
20150519-14:51:11.524: 8=FIX.4.4|9=0050|35=0|49=CL02|56=LVBSG|34=124|52=20150519-14:51:11|10=060|
20150519-14:51:30.312: 8=FIX.4.4|9=54|35=0|34=114|49=LVBSG|52=20150519-14:51:30.312|56=CL02|10=164|
20150519-14:52:11.519: 8=FIX.4.4|9=0050|35=0|49=CL02|56=LVBSG|34=125|52=20150519-14:52:11|10=062|
20150519-14:52:31.313: 8=FIX.4.4|9=54|35=0|34=115|49=LVBSG|52=20150519-14:52:31.313|56=CL02|10=168|
20150519-14:53:11.521: 8=FIX.4.4|9=0050|35=0|49=CL02|56=LVBSG|34=126|52=20150519-14:53:11|10=064|
20150519-14:53:32.311: 8=FIX.4.4|9=54|35=0|34=116|49=LVBSG|52=20150519-14:53:32.311|56=CL02|10=169|
20150519-14:54:11.516: 8=FIX.4.4|9=0050|35=0|49=CL02|56=LVBSG|34=127|52=20150519-14:54:11|10=066|
20150519-14:54:32.312: 8=FIX.4.4|9=54|35=0|34=117|49=LVBSG|52=20150519-14:54:32.312|56=CL02|10=172|
20150519-14:55:11.516: 8=FIX.4.4|9=0050|35=0|49=CL02|56=LVBSG|34=128|52=20150519-14:55:11|10=068|
20150519-14:55:33.312: 8=FIX.4.4|9=54|35=0|34=118|49=LVBSG|52=20150519-14:55:33.312|56=CL02|10=175|
20150519-14:56:11.518: 8=FIX.4.4|9=0050|35=0|49=CL02|56=LVBSG|34=129|52=20150519-14:56:11|10=070|
20150519-14:56:33.312: 8=FIX.4.4|9=54|35=0|34=119|49=LVBSG|52=20150519-14:56:33.312|56=CL02|10=177|
20150519-14:57:11.516: 8=FIX.4.4|9=0050|35=0|49=CL02|56=LVBSG|34=130|52=20150519-14:57:11|10=063|
20150519-14:57:33.314: 8=FIX.4.4|9=54|35=0|34=120|49=LVBSG|52=20150519-14:57:33.314|56=CL02|10=172|
20150519-14:58:11.521: 8=FIX.4.4|9=0050|35=0|49=CL02|56=LVBSG|34=131|52=20150519-14:58:11|10=065|
20150519-14:58:34.311: 8=FIX.4.4|9=54|35=0|34=121|49=LVBSG|52=20150519-14:58:34.311|56=CL02|10=172|
20150519-14:59:11.516: 8=FIX.4.4|9=0050|35=0|49=CL02|56=LVBSG|34=132|52=20150519-14:59:11|10=067|
20150519-14:59:34.311: 8=FIX.4.4|9=54|35=0|34=122|49=LVBSG|52=20150519-14:59:34.311|56=CL02|10=174|
20150519-15:00:11.518: 8=FIX.4.4|9=0050|35=0|49=CL02|56=LVBSG|34=133|52=20150519-15:00:11|10=055|
20150519-15:00:34.312: 8=FIX.4.4|9=54|35=0|34=123|49=LVBSG|52=20150519-15:00:34.312|56=CL02|10=163|
20150519-15:01:11.521: 8=FIX.4.4|9=0050|35=0|49=CL02|56=LVBSG|34=134|52=20150519-15:01:11|10=057|
20150519-15:01:34.312: 8=FIX.4.4|9=54|35=0|34=124|49=LVBSG|52=20150519-15:01:34.312|56=CL02|10=165|
20150519-15:02:11.521: 8=FIX.4.4|9=0050|35=0|49=CL02|56=LVBSG|34=135|52=20150519-15:02:11|10=059|
20150519-15:02:35.312: 8=FIX.4.4|9=54|35=0|34=125|49=LVBSG|52=20150519-15:02:35.312|56=CL02|10=168|
20150519-15:03:11.526: 8=FIX.4.4|9=0050|35=0|49=CL02|56=LVBSG|34=136|52=20150519-15:03:11|10=061|
20150519-15:03:36.312: 8=FIX.4.4|9=54|35=0|34=126|49=LVBSG|52=20150519-15:03:36.312|56=CL02|10=171|
20150519-15:04:11.520: 8=FIX.4.4|9=0050|35=0|49=CL02|56=LVBSG|34=137|52=20150519-15:04:11|10=063|
20150519-15:04:37.312: 8=FIX.4.4|9=54|35=0|34=127|49=LVBSG|52=20150519-15:04:37.312|56=CL02|10=174|
20150519-15:05:11.520: 8=FIX.4.4|9=0050|35=0|49=CL02|56=LVBSG|34=138|52=20150519-15:05:11|10=065|
20150519-15:05:38.311: 8=FIX.4.4|9=54|35=0|34=128|49=LVBSG|52=20150519-15:05:38.311|56=CL02|10=176|
20150519-15:06:11.521: 8=FIX.4.4|9=0050|35=0|49=CL02|56=LVBSG|34=139|52=20150519-15:06:11|10=067|
20150519-15:06:38.312: 8=FIX.4.4|9=54|35=0|34=129|49=LVBSG|52=20150519-15:06:38.311|56=CL02|10=178|
20150519-15:07:11.532: 8=FIX.4.4|9=0050|35=0|49=CL02|56=LVBSG|34=140|52=20150519-15:07:11|10=060|
20150519-15:07:38.311: 8=FIX.4.4|9=54|35=0|34=130|49=LVBSG|52=20150519-15:07:38.311|56=CL02|10=171|
20150519-15:08:11.519: 8=FIX.4.4|9=0050|35=0|49=CL02|56=LVBSG|34=141|52=20150519-15:08:11|10=062|
20150519-15:08:38.312: 8=FIX.4.4|9=54|35=0|34=131|49=LVBSG|52=20150519-15:08:38.312|56=CL02|10=174|
20150519-15:09:11.521: 8=FIX.4.4|9=0050|35=0|49=CL02|56=LVBSG|34=142|52=20150519-15:09:11|10=064|
20150519-15:09:39.311: 8=FIX.4.4|9=54|35=0|34=132|49=LVBSG|52=20150519-15:09:39.311|56=CL02|10=176|
20150519-15:10:11.521: 8=FIX.4.4|9=0050|35=0|49=CL02|56=LVBSG|34=143|52=20150519-15:10:11|10=057|
20150519-15:10:39.311: 8=FIX.4.4|9=54|35=0|34=133|49=LVBSG|52=20150519-15:10:39.311|56=CL02|10=169|
20150519-15:11:11.521: 8=FIX.4.4|9=0050|35=0|49=CL02|56=LVBSG|34=144|52=20150519-15:11:11|10=059|
20150519-15:11:39.311: 8=FIX.4.4|9=54|35=0|34=134|49=LVBSG|52=20150519-15:11:39.311|56=CL02|10=171|
20150519-15:12:11.522: 8=FIX.4.4|9=0050|35=0|49=CL02|56=LVBSG|34=145|52=20150519-15:12:11|10=061|
20150519-15:12:39.311: 8=FIX.4.4|9=54|35=0|34=135|49=LVBSG|52=20150519-15:12:39.311|56=CL02|10=173|
20150519-15:13:11.521: 8=FIX.4.4|9=0050|35=0|49=CL02|56=LVBSG|34=146|52=20150519-15:13:11|10=063|
20150519-15:13:39.312: 8=FIX.4.4|9=54|35=0|34=136|49=LVBSG|52=20150519-15:13:39.312|56=CL02|10=176|
20150519-15:14:11.543: 8=FIX.4.4|9=0050|35=0|49=CL02|56=LVBSG|34=147|52=20150519-15:14:11|10=065|
20150519-15:14:39.312: 8=FIX.4.4|9=54|35=0|34=137|49=LVBSG|52=20150519-15:14:39.312|56=CL02|10=178|
20150519-15:15:11.521: 8=FIX.4.4|9=0050|35=0|49=CL02|56=LVBSG|34=148|52=20150519-15:15:11|10=067|
20150519-15:15:39.312: 8=FIX.4.4|9=54|35=0|34=138|49=LVBSG|52=20150519-15:15:39.312|56=CL02|10=180|
20150519-15:16:11.521: 8=FIX.4.4|9=0050|35=0|49=CL02|56=LVBSG|34=149|52=20150519-15:16:11|10=069|
20150519-15:16:39.312: 8=FIX.4.4|9=54|35=0|34=139|49=LVBSG|52=20150519-15:16:39.312|56=CL02|10=182|
20150519-15:17:11.521: 8=FIX.4.4|9=0050|35=0|49=CL02|56=LVBSG|34=150|52=20150519-15:17:11|10=062|
20150519-15:17:39.312: 8=FIX.4.4|9=54|35=0|34=140|49=LVBSG|52=20150519-15:17:39.312|56=CL02|10=175|
20150519-15:18:11.521: 8=FIX.4.4|9=0050|35=0|49=CL02|56=LVBSG|34=151|52=20150519-15:18:11|10=064|
20150519-15:18:39.317: 8=FIX.4.4|9=54|35=0|34=141|49=LVBSG|52=20150519-15:18:39.317|56=CL02|10=182|
20150519-15:19:11.521: 8=FIX.4.4|9=0050|35=0|49=CL02|56=LVBSG|34=152|52=20150519-15:19:11|10=066|
20150519-15:19:40.312: 8=FIX.4.4|9=54|35=0|34=142|49=LVBSG|52=20150519-15:19:40.312|56=CL02|10=171|
20150519-15:20:11.521: 8=FIX.4.4|9=0050|35=0|49=CL02|56=LVBSG|34=153|52=20150519-15:20:11|10=059|
20150519-15:20:40.312: 8=FIX.4.4|9=54|35=0|34=143|49=LVBSG|52=20150519-15:20:40.312|56=CL02|10=164|
20150519-15:21:11.522: 8=FIX.4.4|9=0050|35=0|49=CL02|56=LVBSG|34=154|52=20150519-15:21:11|10=061|
20150519-15:21:41.312: 8=FIX.4.4|9=54|35=0|34=144|49=LVBSG|52=20150519-15:21:41.312|56=CL02|10=167|
20150519-15:22:11.523: 8=FIX.4.4|9=0050|35=0|49=CL02|56=LVBSG|34=155|52=20150519-15:22:11|10=063|
20150519-15:22:42.311: 8=FIX.4.4|9=54|35=0|34=145|49=LVBSG|52=20150519-15:22:42.311|56=CL02|10=169|
20150519-15:23:11.522: 8=FIX.4.4|9=0050|35=0|49=CL02|56=LVBSG|34=156|52=20150519-15:23:11|10=065|
20150519-15:23:42.316: 8=FIX.4.4|9=54|35=0|34=146|49=LVBSG|52=20150519-15:23:42.316|56=CL02|10=176|
20150519-15:24:11.523: 8=FIX.4.4|9=0050|35=0|49=CL02|56=LVBSG|34=157|52=20150519-15:24:11|10=067|
20150519-15:24:43.311: 8=FIX.4.4|9=54|35=0|34=147|49=LVBSG|52=20150519-15:24:43.311|56=CL02|10=174|
20150519-15:25:11.523: 8=FIX.4.4|9=0050|35=0|49=CL02|56=LVBSG|34=158|52=20150519-15:25:11|10=069|
20150519-15:25:43.311: 8=FIX.4.4|9=54|35=0|34=148|49=LVBSG|52=20150519-15:25:43.311|56=CL02|10=176|
20150519-15:26:11.522: 8=FIX.4.4|9=0050|35=0|49=CL02|56=LVBSG|34=159|52=20150519-15:26:11|10=071|
20150519-15:26:43.311: 8=FIX.4.4|9=54|35=0|34=149|49=LVBSG|52=20150519-15:26:43.311|56=CL02|10=178|
20150519-15:27:11.522: 8=FIX.4.4|9=0050|35=0|49=CL02|56=LVBSG|34=160|52=20150519-15:27:11|10=064|
20150519-15:27:43.311: 8=FIX.4.4|9=54|35=0|34=150|49=LVBSG|52=20150519-15:27:43.311|56=CL02|10=171|
20150519-15:28:11.523: 8=FIX.4.4|9=0050|35=0|49=CL02|56=LVBSG|34=161|52=20150519-15:28:11|10=066|
20150519-15:28:43.312: 8=FIX.4.4|9=54|35=0|34=151|49=LVBSG|52=20150519-15:28:43.312|56=CL02|10=174|
20150519-15:29:11.522: 8=FIX.4.4|9=0050|35=0|49=CL02|56=LVBSG|34=162|52=20150519-15:29:11|10=068|
20150519-15:29:44.312: 8=FIX.4.4|9=54|35=0|34=152|49=LVBSG|52=20150519-15:29:44.312|56=CL02|10=177|
20150519-15:30:11.522: 8=FIX.4.4|9=0050|35=0|49=CL02|56=LVBSG|34=163|52=20150519-15:30:11|10=061|
20150519-15:30:44.312: 8=FIX.4.4|9=54|35=0|34=153|49=LVBSG|52=20150519-15:30:44.312|56=CL02|10=170|
20150519-15:31:11.523: 8=FIX.4.4|9=0050|35=0|49=CL02|56=LVBSG|34=164|52=20150519-15:31:11|10=063|
20150519-15:31:44.312: 8=FIX.4.4|9=54|35=0|34=154|49=LVBSG|52=20150519-15:31:44.312|56=CL02|10=172|
20150519-15:32:11.524: 8=FIX.4.4|9=0050|35=0|49=CL02|56=LVBSG|34=165|52=20150519-15:32:11|10=065|
20150519-15:32:44.312: 8=FIX.4.4|9=54|35=0|34=155|49=LVBSG|52=20150519-15:32:44.312|56=CL02|10=174|
20150519-15:33:11.529: 8=FIX.4.4|9=0050|35=0|49=CL02|56=LVBSG|34=166|52=20150519-15:33:11|10=067|
20150519-15:33:44.312: 8=FIX.4.4|9=54|35=0|34=156|49=LVBSG|52=20150519-15:33:44.312|56=CL02|10=176|
20150519-15:34:11.531: 8=FIX.4.4|9=0050|35=0|49=CL02|56=LVBSG|34=167|52=20150519-15:34:11|10=069|
20150519-15:34:45.312: 8=FIX.4.4|9=54|35=0|34=157|49=LVBSG|52=20150519-15:34:45.312|56=CL02|10=179|
20150519-15:35:11.527: 8=FIX.4.4|9=0050|35=0|49=CL02|56=LVBSG|34=168|52=20150519-15:35:11|10=071|
20150519-15:35:46.312: 8=FIX.4.4|9=54|35=0|34=158|49=LVBSG|52=20150519-15:35:46.312|56=CL02|10=182|
20150519-15:36:11.526: 8=FIX.4.4|9=0050|35=0|49=CL02|56=LVBSG|34=169|52=20150519-15:36:11|10=073|
20150519-15:36:46.312: 8=FIX.4.4|9=54|35=0|34=159|49=LVBSG|52=20150519-15:36:46.312|56=CL02|10=184|
20150519-15:37:11.526: 8=FIX.4.4|9=0050|35=0|49=CL02|56=LVBSG|34=170|52=20150519-15:37:11|10=066|
20150519-15:37:46.312: 8=FIX.4.4|9=54|35=0|34=160|49=LVBSG|52=20150519-15:37:46.312|56=CL02|10=177|
20150519-15:38:11.526: 8=FIX.4.4|9=0050|35=0|49=CL02|56=LVBSG|34=171|52=20150519-15:38:11|10=068|
20150519-15:38:47.312: 8=FIX.4.4|9=54|35=0|34=161|49=LVBSG|52=20150519-15:38:47.312|56=CL02|10=180|
20150519-15:39:11.559: 8=FIX.4.4|9=0050|35=0|49=CL02|56=LVBSG|34=172|52=20150519-15:39:11|10=070|
20150519-15:39:48.312: 8=FIX.4.4|9=54|35=0|34=162|49=LVBSG|52=20150519-15:39:48.312|56=CL02|10=183|
20150519-15:40:11.530: 8=FIX.4.4|9=0050|35=0|49=CL02|56=LVBSG|34=173|52=20150519-15:40:11|10=063|
20150519-15:40:48.312: 8=FIX.4.4|9=54|35=0|34=163|49=LVBSG|52=20150519-15:40:48.312|56=CL02|10=176|
20150519-15:41:11.528: 8=FIX.4.4|9=0050|35=0|49=CL02|56=LVBSG|34=174|52=20150519-15:41:11|10=065|
20150519-15:41:49.312: 8=FIX.4.4|9=54|35=0|34=164|49=LVBSG|52=20150519-15:41:49.312|56=CL02|10=179|
20150519-15:42:11.528: 8=FIX.4.4|9=0050|35=0|49=CL02|56=LVBSG|34=175|52=20150519-15:42:11|10=067|
20150519-15:42:49.312: 8=FIX.4.4|9=54|35=0|34=165|49=LVBSG|52=20150519-15:42:49.312|56=CL02|10=181|
20150519-15:43:11.531: 8=FIX.4.4|9=0050|35=0|49=CL02|56=LVBSG|34=176|52=20150519-15:43:11|10=069|
20150519-15:43:50.312: 8=FIX.4.4|9=54|35=0|34=166|49=LVBSG|52=20150519-15:43:50.312|56=CL02|10=175|
20150519-15:44:11.529: 8=FIX.4.4|9=0050|35=0|49=CL02|56=LVBSG|34=177|52=20150519-15:44:11|10=071|
20150519-15:44:50.312: 8=FIX.4.4|9=54|35=0|34=167|49=LVBSG|52=20150519-15:44:50.312|56=CL02|10=177|
20150519-15:45:11.531: 8=FIX.4.4|9=0050|35=0|49=CL02|56=LVBSG|34=178|52=20150519-15:45:11|10=073|
20150519-15:45:51.312: 8=FIX.4.4|9=54|35=0|34=168|49=LVBSG|52=20150519-15:45:51.312|56=CL02|10=180|
20150519-15:46:11.535: 8=FIX.4.4|9=0050|35=0|49=CL02|56=LVBSG|34=179|52=20150519-15:46:11|10=075|
20150519-15:46:51.312: 8=FIX.4.4|9=54|35=0|34=169|49=LVBSG|52=20150519-15:46:51.312|56=CL02|10=182|
20150519-15:47:11.532: 8=FIX.4.4|9=0050|35=0|49=CL02|56=LVBSG|34=180|52=20150519-15:47:11|10=068|
20150519-15:47:51.312: 8=FIX.4.4|9=54|35=0|34=170|49=LVBSG|52=20150519-15:47:51.312|56=CL02|10=175|
20150519-15:48:11.531: 8=FIX.4.4|9=0050|35=0|49=CL02|56=LVBSG|34=181|52=20150519-15:48:11|10=070|
20150519-15:48:52.312: 8=FIX.4.4|9=54|35=0|34=171|49=LVBSG|52=20150519-15:48:52.312|56=CL02|10=178|
20150519-15:49:11.534: 8=FIX.4.4|9=0050|35=0|49=CL02|56=LVBSG|34=182|52=20150519-15:49:11|10=072|
20150519-15:49:53.312: 8=FIX.4.4|9=54|35=0|34=172|49=LVBSG|52=20150519-15:49:53.312|56=CL02|10=181|
20150519-15:50:11.531: 8=FIX.4.4|9=0050|35=0|49=CL02|56=LVBSG|34=183|52=20150519-15:50:11|10=065|
20150519-15:50:53.312: 8=FIX.4.4|9=54|35=0|34=173|49=LVBSG|52=20150519-15:50:53.312|56=CL02|10=174|
20150519-15:51:11.531: 8=FIX.4.4|9=0050|35=0|49=CL02|56=LVBSG|34=184|52=20150519-15:51:11|10=067|
20150519-15:51:53.313: 8=FIX.4.4|9=54|35=0|34=174|49=LVBSG|52=20150519-15:51:53.313|56=CL02|10=177|
20150519-15:52:11.531: 8=FIX.4.4|9=0050|35=0|49=CL02|56=LVBSG|34=185|52=20150519-15:52:11|10=069|
20150519-15:52:54.312: 8=FIX.4.4|9=54|35=0|34=175|49=LVBSG|52=20150519-15:52:54.312|56=CL02|10=179|
20150519-15:53:11.532: 8=FIX.4.4|9=0050|35=0|49=CL02|56=LVBSG|34=186|52=20150519-15:53:11|10=071|
20150519-15:53:55.311: 8=FIX.4.4|9=54|35=0|34=176|49=LVBSG|52=20150519-15:53:55.311|56=CL02|10=181|
20150519-15:54:11.534: 8=FIX.4.4|9=0050|35=0|49=CL02|56=LVBSG|34=187|52=20150519-15:54:11|10=073|
20150519-15:54:55.311: 8=FIX.4.4|9=54|35=0|34=177|49=LVBSG|52=20150519-15:54:55.311|56=CL02|10=183|
20150519-15:55:11.533: 8=FIX.4.4|9=0050|35=0|49=CL02|56=LVBSG|34=188|52=20150519-15:55:11|10=075|
20150519-15:55:55.311: 8=FIX.4.4|9=54|35=0|34=178|49=LVBSG|52=20150519-15:55:55.311|56=CL02|10=185|
20150519-15:56:11.533: 8=FIX.4.4|9=0050|35=0|49=CL02|56=LVBSG|34=189|52=20150519-15:56:11|10=077|
20150519-15:56:55.311: 8=FIX.4.4|9=54|35=0|34=179|49=LVBSG|52=20150519-15:56:55.311|56=CL02|10=187|
20150519-15:57:11.533: 8=FIX.4.4|9=0050|35=0|49=CL02|56=LVBSG|34=190|52=20150519-15:57:11|10=070|
20150519-15:57:55.312: 8=FIX.4.4|9=54|35=0|34=180|49=LVBSG|52=20150519-15:57:55.312|56=CL02|10=181|
20150519-15:58:11.533: 8=FIX.4.4|9=0050|35=0|49=CL02|56=LVBSG|34=191|52=20150519-15:58:11|10=072|
20150519-15:58:56.314: 8=FIX.4.4|9=54|35=0|34=181|49=LVBSG|52=20150519-15:58:56.314|56=CL02|10=186|
20150519-15:59:11.534: 8=FIX.4.4|9=0050|35=0|49=CL02|56=LVBSG|34=192|52=20150519-15:59:11|10=074|
20150519-15:59:57.312: 8=FIX.4.4|9=54|35=0|34=182|49=LVBSG|52=20150519-15:59:57.312|56=CL02|10=187|
20150519-16:00:11.534: 8=FIX.4.4|9=0050|35=0|49=CL02|56=LVBSG|34=193|52=20150519-16:00:11|10=062|
20150519-16:00:58.311: 8=FIX.4.4|9=54|35=0|34=183|49=LVBSG|52=20150519-16:00:58.311|56=CL02|10=175|
20150519-16:01:11.535: 8=FIX.4.4|9=0050|35=0|49=CL02|56=LVBSG|34=194|52=20150519-16:01:11|10=064|
20150519-16:01:58.311: 8=FIX.4.4|9=54|35=0|34=184|49=LVBSG|52=20150519-16:01:58.311|56=CL02|10=177|
20150519-16:02:11.535: 8=FIX.4.4|9=0050|35=0|49=CL02|56=LVBSG|34=195|52=20150519-16:02:11|10=066|
20150519-16:02:58.311: 8=FIX.4.4|9=54|35=0|34=185|49=LVBSG|52=20150519-16:02:58.311|56=CL02|10=179|
20150519-16:03:11.535: 8=FIX.4.4|9=0050|35=0|49=CL02|56=LVBSG|34=196|52=20150519-16:03:11|10=068|
20150519-16:03:58.311: 8=FIX.4.4|9=54|35=0|34=186|49=LVBSG|52=20150519-16:03:58.311|56=CL02|10=181|
20150519-16:04:11.535: 8=FIX.4.4|9=0050|35=0|49=CL02|56=LVBSG|34=197|52=20150519-16:04:11|10=070|
20150519-16:04:58.311: 8=FIX.4.4|9=54|35=0|34=187|49=LVBSG|52=20150519-16:04:58.311|56=CL02|10=183|
20150519-16:05:11.536: 8=FIX.4.4|9=0050|35=0|49=CL02|56=LVBSG|34=198|52=20150519-16:05:11|10=072|
20150519-16:05:58.312: 8=FIX.4.4|9=54|35=0|34=188|49=LVBSG|52=20150519-16:05:58.311|56=CL02|10=185|
20150519-16:06:11.568: 8=FIX.4.4|9=0050|35=0|49=CL02|56=LVBSG|34=199|52=20150519-16:06:11|10=074|
20150519-16:06:58.312: 8=FIX.4.4|9=54|35=0|34=189|49=LVBSG|52=20150519-16:06:58.312|56=CL02|10=188|
20150519-16:07:11.536: 8=FIX.4.4|9=0050|35=0|49=CL02|56=LVBSG|34=200|52=20150519-16:07:11|10=058|
20150519-16:07:59.312: 8=FIX.4.4|9=54|35=0|34=190|49=LVBSG|52=20150519-16:07:59.312|56=CL02|10=182|
20150519-16:08:11.537: 8=FIX.4.4|9=0050|35=0|49=CL02|56=LVBSG|34=201|52=20150519-16:08:11|10=060|
20150519-16:09:00.311: 8=FIX.4.4|9=54|35=0|34=191|49=LVBSG|52=20150519-16:09:00.311|56=CL02|10=170|
20150519-16:09:11.537: 8=FIX.4.4|9=0050|35=0|49=CL02|56=LVBSG|34=202|52=20150519-16:09:11|10=062|
20150519-16:10:00.311: 8=FIX.4.4|9=54|35=0|34=192|49=LVBSG|52=20150519-16:10:00.311|56=CL02|10=163|
20150519-16:10:11.538: 8=FIX.4.4|9=0050|35=0|49=CL02|56=LVBSG|34=203|52=20150519-16:10:11|10=055|
20150519-16:11:00.313: 8=FIX.4.4|9=54|35=0|34=193|49=LVBSG|52=20150519-16:11:00.313|56=CL02|10=167|
20150519-16:11:11.539: 8=FIX.4.4|9=0050|35=0|49=CL02|56=LVBSG|34=204|52=20150519-16:11:11|10=057|
20150519-16:12:00.313: 8=FIX.4.4|9=54|35=0|34=194|49=LVBSG|52=20150519-16:12:00.313|56=CL02|10=169|
20150519-16:12:11.537: 8=FIX.4.4|9=0050|35=0|49=CL02|56=LVBSG|34=205|52=20150519-16:12:11|10=059|
20150519-16:13:01.312: 8=FIX.4.4|9=54|35=0|34=195|49=LVBSG|52=20150519-16:13:01.312|56=CL02|10=171|
20150519-16:13:11.537: 8=FIX.4.4|9=0050|35=0|49=CL02|56=LVBSG|34=206|52=20150519-16:13:11|10=061|
20150519-16:14:02.312: 8=FIX.4.4|9=54|35=0|34=196|49=LVBSG|52=20150519-16:14:02.312|56=CL02|10=174|
20150519-16:14:11.538: 8=FIX.4.4|9=0050|35=0|49=CL02|56=LVBSG|34=207|52=20150519-16:14:11|10=063|
20150519-16:15:03.311: 8=FIX.4.4|9=54|35=0|34=197|49=LVBSG|52=20150519-16:15:03.311|56=CL02|10=176|
20150519-16:15:11.538: 8=FIX.4.4|9=0050|35=0|49=CL02|56=LVBSG|34=208|52=20150519-16:15:11|10=065|
20150519-16:16:03.311: 8=FIX.4.4|9=54|35=0|34=198|49=LVBSG|52=20150519-16:16:03.311|56=CL02|10=178|
20150519-16:16:11.539: 8=FIX.4.4|9=0050|35=0|49=CL02|56=LVBSG|34=209|52=20150519-16:16:11|10=067|
20150519-16:17:03.312: 8=FIX.4.4|9=54|35=0|34=199|49=LVBSG|52=20150519-16:17:03.311|56=CL02|10=180|
20150519-16:17:11.538: 8=FIX.4.4|9=0050|35=0|49=CL02|56=LVBSG|34=210|52=20150519-16:17:11|10=060|
20150519-16:18:03.311: 8=FIX.4.4|9=54|35=0|34=200|49=LVBSG|52=20150519-16:18:03.311|56=CL02|10=164|
20150519-16:18:11.539: 8=FIX.4.4|9=0050|35=0|49=CL02|56=LVBSG|34=211|52=20150519-16:18:11|10=062|
20150519-16:19:03.312: 8=FIX.4.4|9=54|35=0|34=201|49=LVBSG|52=20150519-16:19:03.312|56=CL02|10=167|
20150519-16:19:11.541: 8=FIX.4.4|9=0050|35=0|49=CL02|56=LVBSG|34=212|52=20150519-16:19:11|10=064|
20150519-16:20:04.311: 8=FIX.4.4|9=54|35=0|34=202|49=LVBSG|52=20150519-16:20:04.311|56=CL02|10=160|
20150519-16:20:11.541: 8=FIX.4.4|9=0050|35=0|49=CL02|56=LVBSG|34=213|52=20150519-16:20:11|10=057|
20150519-16:21:04.312: 8=FIX.4.4|9=54|35=0|34=203|49=LVBSG|52=20150519-16:21:04.312|56=CL02|10=163|
20150519-16:21:11.541: 8=FIX.4.4|9=0050|35=0|49=CL02|56=LVBSG|34=214|52=20150519-16:21:11|10=059|
20150519-16:22:05.311: 8=FIX.4.4|9=54|35=0|34=204|49=LVBSG|52=20150519-16:22:05.311|56=CL02|10=165|
20150519-16:22:11.541: 8=FIX.4.4|9=0050|35=0|49=CL02|56=LVBSG|34=215|52=20150519-16:22:11|10=061|
20150519-16:23:05.311: 8=FIX.4.4|9=54|35=0|34=205|49=LVBSG|52=20150519-16:23:05.311|56=CL02|10=167|
20150519-16:23:11.548: 8=FIX.4.4|9=0050|35=0|49=CL02|56=LVBSG|34=216|52=20150519-16:23:11|10=063|
20150519-16:24:05.312: 8=FIX.4.4|9=54|35=0|34=206|49=LVBSG|52=20150519-16:24:05.312|56=CL02|10=170|
20150519-16:24:11.542: 8=FIX.4.4|9=0050|35=0|49=CL02|56=LVBSG|34=217|52=20150519-16:24:11|10=065|
20150519-16:25:05.312: 8=FIX.4.4|9=54|35=0|34=207|49=LVBSG|52=20150519-16:25:05.312|56=CL02|10=172|
20150519-16:25:11.542: 8=FIX.4.4|9=0050|35=0|49=CL02|56=LVBSG|34=218|52=20150519-16:25:11|10=067|
20150519-16:26:05.312: 8=FIX.4.4|9=54|35=0|34=208|49=LVBSG|52=20150519-16:26:05.312|56=CL02|10=174|
20150519-16:26:11.543: 8=FIX.4.4|9=0050|35=0|49=CL02|56=LVBSG|34=219|52=20150519-16:26:11|10=069|
20150519-16:27:05.312: 8=FIX.4.4|9=54|35=0|34=209|49=LVBSG|52=20150519-16:27:05.312|56=CL02|10=176|
20150519-16:27:11.542: 8=FIX.4.4|9=0050|35=0|49=CL02|56=LVBSG|34=220|52=20150519-16:27:11|10=062|
20150519-16:28:05.312: 8=FIX.4.4|9=54|35=0|34=210|49=LVBSG|52=20150519-16:28:05.312|56=CL02|10=169|
20150519-16:28:11.545: 8=FIX.4.4|9=0050|35=0|49=CL02|56=LVBSG|34=221|52=20150519-16:28:11|10=064|
20150519-16:29:05.312: 8=FIX.4.4|9=54|35=0|34=211|49=LVBSG|52=20150519-16:29:05.312|56=CL02|10=171|
20150519-16:29:11.544: 8=FIX.4.4|9=0050|35=0|49=CL02|56=LVBSG|34=222|52=20150519-16:29:11|10=066|
20150519-16:30:06.312: 8=FIX.4.4|9=54|35=0|34=212|49=LVBSG|52=20150519-16:30:06.312|56=CL02|10=165|
20150519-16:30:11.543: 8=FIX.4.4|9=0050|35=0|49=CL02|56=LVBSG|34=223|52=20150519-16:30:11|10=059|
20150519-16:31:06.312: 8=FIX.4.4|9=54|35=0|34=213|49=LVBSG|52=20150519-16:31:06.312|56=CL02|10=167|
20150519-16:31:11.544: 8=FIX.4.4|9=0050|35=0|49=CL02|56=LVBSG|34=224|52=20150519-16:31:11|10=061|
20150519-16:32:06.312: 8=FIX.4.4|9=54|35=0|34=214|49=LVBSG|52=20150519-16:32:06.312|56=CL02|10=169|
20150519-16:32:11.544: 8=FIX.4.4|9=0050|35=0|49=CL02|56=LVBSG|34=225|52=20150519-16:32:11|10=063|
20150519-16:33:07.312: 8=FIX.4.4|9=54|35=0|34=215|49=LVBSG|52=20150519-16:33:07.312|56=CL02|10=172|
20150519-16:33:11.544: 8=FIX.4.4|9=0050|35=0|49=CL02|56=LVBSG|34=226|52=20150519-16:33:11|10=065|
20150519-16:34:08.312: 8=FIX.4.4|9=54|35=0|34=216|49=LVBSG|52=20150519-16:34:08.312|56=CL02|10=175|
20150519-16:34:11.544: 8=FIX.4.4|9=0050|35=0|49=CL02|56=LVBSG|34=227|52=20150519-16:34:11|10=067|
20150519-16:35:09.312: 8=FIX.4.4|9=54|35=0|34=217|49=LVBSG|52=20150519-16:35:09.312|56=CL02|10=178|
20150519-16:35:11.546: 8=FIX.4.4|9=0050|35=0|49=CL02|56=LVBSG|34=228|52=20150519-16:35:11|10=069|
20150519-16:36:09.312: 8=FIX.4.4|9=54|35=0|34=218|49=LVBSG|52=20150519-16:36:09.312|56=CL02|10=180|
20150519-16:36:11.544: 8=FIX.4.4|9=0050|35=0|49=CL02|56=LVBSG|34=229|52=20150519-16:36:11|10=071|
20150519-16:37:09.312: 8=FIX.4.4|9=54|35=0|34=219|49=LVBSG|52=20150519-16:37:09.312|56=CL02|10=182|
20150519-16:37:11.545: 8=FIX.4.4|9=0050|35=0|49=CL02|56=LVBSG|34=230|52=20150519-16:37:11|10=064|
20150519-16:38:10.312: 8=FIX.4.4|9=54|35=0|34=220|49=LVBSG|52=20150519-16:38:10.311|56=CL02|10=166|
20150519-16:38:11.545: 8=FIX.4.4|9=0050|35=0|49=CL02|56=LVBSG|34=231|52=20150519-16:38:11|10=066|
20150519-16:39:10.311: 8=FIX.4.4|9=54|35=0|34=221|49=LVBSG|52=20150519-16:39:10.311|56=CL02|10=168|
20150519-16:39:11.546: 8=FIX.4.4|9=0050|35=0|49=CL02|56=LVBSG|34=232|52=20150519-16:39:11|10=068|
20150519-16:40:10.311: 8=FIX.4.4|9=54|35=0|34=222|49=LVBSG|52=20150519-16:40:10.311|56=CL02|10=161|
20150519-16:40:11.549: 8=FIX.4.4|9=0050|35=0|49=CL02|56=LVBSG|34=233|52=20150519-16:40:11|10=061|
20150519-16:41:10.311: 8=FIX.4.4|9=54|35=0|34=223|49=LVBSG|52=20150519-16:41:10.311|56=CL02|10=163|
20150519-16:41:11.545: 8=FIX.4.4|9=0050|35=0|49=CL02|56=LVBSG|34=234|52=20150519-16:41:11|10=063|
20150519-16:42:10.311: 8=FIX.4.4|9=54|35=0|34=224|49=LVBSG|52=20150519-16:42:10.311|56=CL02|10=165|
20150519-16:42:11.548: 8=FIX.4.4|9=0050|35=0|49=CL02|56=LVBSG|34=235|52=20150519-16:42:11|10=065|
20150519-16:43:10.312: 8=FIX.4.4|9=54|35=0|34=225|49=LVBSG|52=20150519-16:43:10.312|56=CL02|10=168|
20150519-16:43:11.546: 8=FIX.4.4|9=0050|35=0|49=CL02|56=LVBSG|34=236|52=20150519-16:43:11|10=067|
20150519-16:44:11.312: 8=FIX.4.4|9=54|35=0|34=226|49=LVBSG|52=20150519-16:44:11.311|56=CL02|10=170|
20150519-16:44:11.546: 8=FIX.4.4|9=0050|35=0|49=CL02|56=LVBSG|34=237|52=20150519-16:44:11|10=069|
20150519-16:45:11.312: 8=FIX.4.4|9=54|35=0|34=227|49=LVBSG|52=20150519-16:45:11.312|56=CL02|10=173|
20150519-16:45:11.546: 8=FIX.4.4|9=0050|35=0|49=CL02|56=LVBSG|34=238|52=20150519-16:45:11|10=071|
20150519-16:46:11.546: 8=FIX.4.4|9=0050|35=0|49=CL02|56=LVBSG|34=239|52=20150519-16:46:11|10=073|
20150519-16:46:11.547: 8=FIX.4.4|9=54|35=0|34=228|49=LVBSG|52=20150519-16:46:11.547|56=CL02|10=185|
20150519-16:47:11.553: 8=FIX.4.4|9=0050|35=0|49=CL02|56=LVBSG|34=240|52=20150519-16:47:11|10=066|
20150519-16:47:11.553: 8=FIX.4.4|9=54|35=0|34=229|49=LVBSG|52=20150519-16:47:11.553|56=CL02|10=184|
20150519-16:48:11.548: 8=FIX.4.4|9=0050|35=0|49=CL02|56=LVBSG|34=241|52=20150519-16:48:11|10=068|
20150519-16:48:12.312: 8=FIX.4.4|9=54|35=0|34=230|49=LVBSG|52=20150519-16:48:12.312|56=CL02|10=171|
20150519-16:49:11.547: 8=FIX.4.4|9=0050|35=0|49=CL02|56=LVBSG|34=242|52=20150519-16:49:11|10=070|
20150519-16:49:12.312: 8=FIX.4.4|9=54|35=0|34=231|49=LVBSG|52=20150519-16:49:12.312|56=CL02|10=173|
20150519-16:50:11.548: 8=FIX.4.4|9=0050|35=0|49=CL02|56=LVBSG|34=243|52=20150519-16:50:11|10=063|
20150519-16:50:13.312: 8=FIX.4.4|9=54|35=0|34=232|49=LVBSG|52=20150519-16:50:13.312|56=CL02|10=167|
20150519-16:51:11.548: 8=FIX.4.4|9=0050|35=0|49=CL02|56=LVBSG|34=244|52=20150519-16:51:11|10=065|
20150519-16:51:14.312: 8=FIX.4.4|9=54|35=0|34=233|49=LVBSG|52=20150519-16:51:14.312|56=CL02|10=170|
20150519-16:52:11.554: 8=FIX.4.4|9=0050|35=0|49=CL02|56=LVBSG|34=245|52=20150519-16:52:11|10=067|
20150519-16:52:15.312: 8=FIX.4.4|9=54|35=0|34=234|49=LVBSG|52=20150519-16:52:15.312|56=CL02|10=173|
20150519-16:53:11.550: 8=FIX.4.4|9=0050|35=0|49=CL02|56=LVBSG|34=246|52=20150519-16:53:11|10=069|
20150519-16:53:16.312: 8=FIX.4.4|9=54|35=0|34=235|49=LVBSG|52=20150519-16:53:16.312|56=CL02|10=176|
20150519-16:54:11.550: 8=FIX.4.4|9=0050|35=0|49=CL02|56=LVBSG|34=247|52=20150519-16:54:11|10=071|
20150519-16:54:16.312: 8=FIX.4.4|9=54|35=0|34=236|49=LVBSG|52=20150519-16:54:16.312|56=CL02|10=178|
20150519-16:55:11.551: 8=FIX.4.4|9=0050|35=0|49=CL02|56=LVBSG|34=248|52=20150519-16:55:11|10=073|
20150519-16:55:17.311: 8=FIX.4.4|9=54|35=0|34=237|49=LVBSG|52=20150519-16:55:17.311|56=CL02|10=180|
20150519-16:56:11.551: 8=FIX.4.4|9=0050|35=0|49=CL02|56=LVBSG|34=249|52=20150519-16:56:11|10=075|
20150519-16:56:17.312: 8=FIX.4.4|9=54|35=0|34=238|49=LVBSG|52=20150519-16:56:17.312|56=CL02|10=183|
20150519-16:57:11.551: 8=FIX.4.4|9=0050|35=0|49=CL02|56=LVBSG|34=250|52=20150519-16:57:11|10=068|
20150519-16:57:17.312: 8=FIX.4.4|9=54|35=0|34=239|49=LVBSG|52=20150519-16:57:17.312|56=CL02|10=185|
20150519-16:58:11.552: 8=FIX.4.4|9=0050|35=0|49=CL02|56=LVBSG|34=251|52=20150519-16:58:11|10=070|
20150519-16:58:18.312: 8=FIX.4.4|9=54|35=0|34=240|49=LVBSG|52=20150519-16:58:18.311|56=CL02|10=178|
20150519-16:59:11.552: 8=FIX.4.4|9=0050|35=0|49=CL02|56=LVBSG|34=252|52=20150519-16:59:11|10=072|
20150519-16:59:18.312: 8=FIX.4.4|9=54|35=0|34=241|49=LVBSG|52=20150519-16:59:18.312|56=CL02|10=181|
20150519-17:00:11.551: 8=FIX.4.4|9=0050|35=0|49=CL02|56=LVBSG|34=253|52=20150519-17:00:11|10=060|
20150519-17:00:19.311: 8=FIX.4.4|9=54|35=0|34=242|49=LVBSG|52=20150519-17:00:19.311|56=CL02|10=169|
20150519-17:01:11.551: 8=FIX.4.4|9=0050|35=0|49=CL02|56=LVBSG|34=254|52=20150519-17:01:11|10=062|
20150519-17:01:19.311: 8=FIX.4.4|9=54|35=0|34=243|49=LVBSG|52=20150519-17:01:19.311|56=CL02|10=171|
20150519-17:02:11.554: 8=FIX.4.4|9=0050|35=0|49=CL02|56=LVBSG|34=255|52=20150519-17:02:11|10=064|
20150519-17:02:19.311: 8=FIX.4.4|9=54|35=0|34=244|49=LVBSG|52=20150519-17:02:19.311|56=CL02|10=173|
20150519-17:03:11.551: 8=FIX.4.4|9=0050|35=0|49=CL02|56=LVBSG|34=256|52=20150519-17:03:11|10=066|
20150519-17:03:19.312: 8=FIX.4.4|9=54|35=0|34=245|49=LVBSG|52=20150519-17:03:19.312|56=CL02|10=176|
20150519-17:04:11.551: 8=FIX.4.4|9=0050|35=0|49=CL02|56=LVBSG|34=257|52=20150519-17:04:11|10=068|
20150519-17:04:20.312: 8=FIX.4.4|9=54|35=0|34=246|49=LVBSG|52=20150519-17:04:20.312|56=CL02|10=170|
20150519-17:05:11.552: 8=FIX.4.4|9=0050|35=0|49=CL02|56=LVBSG|34=258|52=20150519-17:05:11|10=070|
20150519-17:05:21.311: 8=FIX.4.4|9=54|35=0|34=247|49=LVBSG|52=20150519-17:05:21.311|56=CL02|10=172|
20150519-17:06:11.553: 8=FIX.4.4|9=0050|35=0|49=CL02|56=LVBSG|34=259|52=20150519-17:06:11|10=072|
20150519-17:06:21.311: 8=FIX.4.4|9=54|35=0|34=248|49=LVBSG|52=20150519-17:06:21.311|56=CL02|10=174|
20150519-17:07:11.553: 8=FIX.4.4|9=0050|35=0|49=CL02|56=LVBSG|34=260|52=20150519-17:07:11|10=065|
20150519-17:07:21.311: 8=FIX.4.4|9=54|35=0|34=249|49=LVBSG|52=20150519-17:07:21.311|56=CL02|10=176|
20150519-17:08:11.553: 8=FIX.4.4|9=0050|35=0|49=CL02|56=LVBSG|34=261|52=20150519-17:08:11|10=067|
20150519-17:08:21.312: 8=FIX.4.4|9=54|35=0|34=250|49=LVBSG|52=20150519-17:08:21.312|56=CL02|10=170|
20150519-17:09:11.553: 8=FIX.4.4|9=0050|35=0|49=CL02|56=LVBSG|34=262|52=20150519-17:09:11|10=069|
20150519-17:09:21.312: 8=FIX.4.4|9=54|35=0|34=251|49=LVBSG|52=20150519-17:09:21.312|56=CL02|10=172|
20150519-17:10:11.553: 8=FIX.4.4|9=0050|35=0|49=CL02|56=LVBSG|34=263|52=20150519-17:10:11|10=062|
20150519-17:10:21.312: 8=FIX.4.4|9=54|35=0|34=252|49=LVBSG|52=20150519-17:10:21.312|56=CL02|10=165|
20150519-17:11:11.553: 8=FIX.4.4|9=0050|35=0|49=CL02|56=LVBSG|34=264|52=20150519-17:11:11|10=064|
20150519-17:11:22.311: 8=FIX.4.4|9=54|35=0|34=253|49=LVBSG|52=20150519-17:11:22.311|56=CL02|10=167|
20150519-17:12:11.554: 8=FIX.4.4|9=0050|35=0|49=CL02|56=LVBSG|34=265|52=20150519-17:12:11|10=066|
20150519-17:12:22.312: 8=FIX.4.4|9=54|35=0|34=254|49=LVBSG|52=20150519-17:12:22.312|56=CL02|10=170|
20150519-17:13:11.554: 8=FIX.4.4|9=0050|35=0|49=CL02|56=LVBSG|34=266|52=20150519-17:13:11|10=068|
20150519-17:13:23.312: 8=FIX.4.4|9=54|35=0|34=255|49=LVBSG|52=20150519-17:13:23.312|56=CL02|10=173|
20150519-17:14:11.554: 8=FIX.4.4|9=0050|35=0|49=CL02|56=LVBSG|34=267|52=20150519-17:14:11|10=070|
20150519-17:14:24.312: 8=FIX.4.4|9=54|35=0|34=256|49=LVBSG|52=20150519-17:14:24.312|56=CL02|10=176|
20150519-17:15:11.555: 8=FIX.4.4|9=0050|35=0|49=CL02|56=LVBSG|34=268|52=20150519-17:15:11|10=072|
20150519-17:15:25.312: 8=FIX.4.4|9=54|35=0|34=257|49=LVBSG|52=20150519-17:15:25.312|56=CL02|10=179|
20150519-17:16:11.554: 8=FIX.4.4|9=0050|35=0|49=CL02|56=LVBSG|34=269|52=20150519-17:16:11|10=074|
20150519-17:16:26.312: 8=FIX.4.4|9=54|35=0|34=258|49=LVBSG|52=20150519-17:16:26.312|56=CL02|10=182|
20150519-17:17:11.554: 8=FIX.4.4|9=0050|35=0|49=CL02|56=LVBSG|34=270|52=20150519-17:17:11|10=067|
20150519-17:17:27.312: 8=FIX.4.4|9=54|35=0|34=259|49=LVBSG|52=20150519-17:17:27.312|56=CL02|10=185|
20150519-17:18:11.554: 8=FIX.4.4|9=0050|35=0|49=CL02|56=LVBSG|34=271|52=20150519-17:18:11|10=069|
20150519-17:18:28.312: 8=FIX.4.4|9=54|35=0|34=260|49=LVBSG|52=20150519-17:18:28.312|56=CL02|10=179|
20150519-17:19:11.554: 8=FIX.4.4|9=0050|35=0|49=CL02|56=LVBSG|34=272|52=20150519-17:19:11|10=071|
20150519-17:19:28.312: 8=FIX.4.4|9=54|35=0|34=261|49=LVBSG|52=20150519-17:19:28.312|56=CL02|10=181|
20150519-17:20:11.555: 8=FIX.4.4|9=0050|35=0|49=CL02|56=LVBSG|34=273|52=20150519-17:20:11|10=064|
20150519-17:20:28.312: 8=FIX.4.4|9=54|35=0|34=262|49=LVBSG|52=20150519-17:20:28.312|56=CL02|10=174|
20150519-17:21:11.555: 8=FIX.4.4|9=0050|35=0|49=CL02|56=LVBSG|34=274|52=20150519-17:21:11|10=066|
20150519-17:21:29.312: 8=FIX.4.4|9=54|35=0|34=263|49=LVBSG|52=20150519-17:21:29.312|56=CL02|10=177|
20150519-17:22:11.555: 8=FIX.4.4|9=0050|35=0|49=CL02|56=LVBSG|34=275|52=20150519-17:22:11|10=068|
20150519-17:22:29.312: 8=FIX.4.4|9=54|35=0|34=264|49=LVBSG|52=20150519-17:22:29.312|56=CL02|10=179|
20150519-17:23:11.561: 8=FIX.4.4|9=0050|35=0|49=CL02|56=LVBSG|34=276|52=20150519-17:23:11|10=070|
20150519-17:23:30.311: 8=FIX.4.4|9=54|35=0|34=265|49=LVBSG|52=20150519-17:23:30.311|56=CL02|10=172|
20150519-17:24:11.555: 8=FIX.4.4|9=0050|35=0|49=CL02|56=LVBSG|34=277|52=20150519-17:24:11|10=072|
20150519-17:24:30.311: 8=FIX.4.4|9=54|35=0|34=266|49=LVBSG|52=20150519-17:24:30.311|56=CL02|10=174|
20150519-17:25:11.555: 8=FIX.4.4|9=0050|35=0|49=CL02|56=LVBSG|34=278|52=20150519-17:25:11|10=074|
20150519-17:25:30.312: 8=FIX.4.4|9=54|35=0|34=267|49=LVBSG|52=20150519-17:25:30.312|56=CL02|10=177|
20150519-17:26:11.555: 8=FIX.4.4|9=0050|35=0|49=CL02|56=LVBSG|34=279|52=20150519-17:26:11|10=076|
20150519-17:26:30.312: 8=FIX.4.4|9=54|35=0|34=268|49=LVBSG|52=20150519-17:26:30.312|56=CL02|10=179|
20150519-17:27:11.556: 8=FIX.4.4|9=0050|35=0|49=CL02|56=LVBSG|34=280|52=20150519-17:27:11|10=069|
20150519-17:27:30.312: 8=FIX.4.4|9=54|35=0|34=269|49=LVBSG|52=20150519-17:27:30.312|56=CL02|10=181|
20150519-17:28:11.556: 8=FIX.4.4|9=0050|35=0|49=CL02|56=LVBSG|34=281|52=20150519-17:28:11|10=071|
20150519-17:28:31.312: 8=FIX.4.4|9=54|35=0|34=270|49=LVBSG|52=20150519-17:28:31.312|56=CL02|10=175|
20150519-17:29:11.557: 8=FIX.4.4|9=0050|35=0|49=CL02|56=LVBSG|34=282|52=20150519-17:29:11|10=073|
20150519-17:29:31.312: 8=FIX.4.4|9=54|35=0|34=271|49=LVBSG|52=20150519-17:29:31.312|56=CL02|10=177|
20150519-17:30:11.558: 8=FIX.4.4|9=0050|35=0|49=CL02|56=LVBSG|34=283|52=20150519-17:30:11|10=066|
20150519-17:30:32.312: 8=FIX.4.4|9=54|35=0|34=272|49=LVBSG|52=20150519-17:30:32.312|56=CL02|10=171|
20150519-17:31:11.560: 8=FIX.4.4|9=0050|35=0|49=CL02|56=LVBSG|34=284|52=20150519-17:31:11|10=068|
20150519-17:31:33.312: 8=FIX.4.4|9=54|35=0|34=273|49=LVBSG|52=20150519-17:31:33.312|56=CL02|10=174|
20150519-17:32:11.557: 8=FIX.4.4|9=0050|35=0|49=CL02|56=LVBSG|34=285|52=20150519-17:32:11|10=070|
20150519-17:32:33.312: 8=FIX.4.4|9=54|35=0|34=274|49=LVBSG|52=20150519-17:32:33.312|56=CL02|10=176|
20150519-17:32:50.361: 8=FIX.4.4|9=250|35=D|34=275|49=LVBSG|50=7369691|52=20150519-17:32:50.361|56=CL02|57=XPUS|1=QXP019284|11=-5425e7f5dbf1b6e1|21=1|38=800|40=2|44=18.42|54=1|55=BCA|59=0|60=20150519-17:32:50.361|63=4|100=US|111=100|207=US|583=-31a50ece1f00b6fb|453=1|448=XPUS|447=D|452=1|10=221|
20150519-17:32:50.369: 8=FIX.4.4|9=0317|35=8|49=CL02|56=LVBSG|34=286|52=20150519-17:32:50|50=XPUS|57=7369691|1=QXP019284|207=US|6=0|11=-5425e7f5dbf1b6e1|14=0|17=1b66ee8e3873466b|21=1|150=A|31=0|151=800|32=0|100=US|38=800|39=A|37=-7a2092e94e44bdf8|583=-31a50ece1f00b6fb|40=2|44=18.42|55=BCA|54=1|59=0|63=4|60=20150519-17:32:50.365|453=1|448=XPUS|447=D|452=1|10=138|
20150519-17:32:50.808: 8=FIX.4.4|9=0326|35=8|49=CL02|56=LVBSG|34=287|52=20150519-17:32:50|50=XPUS|57=7369691|1=QXP019284|207=US|6=0|11=-5425e7f5dbf1b6e1|14=0|17=LVSXFIX2-385300003B000002|21=1|150=0|31=0|151=800|32=0|100=US|38=800|39=0|37=-7a2092e94e44bdf8|583=-31a50ece1f00b6fb|40=2|44=18.42|55=BCA|54=1|59=0|63=4|60=20150519-17:32:50.803|453=1|448=XPUS|447=D|452=1|10=230|
20150519-17:32:50.809: 8=FIX.4.4|9=271|35=G|34=276|49=LVBSG|50=7369691|52=20150519-17:32:50.809|56=CL02|57=XPUS|1=QXP019284|11=-1d24009d77eb783|21=1|38=1000|40=2|41=-5425e7f5dbf1b6e1|44=18.42|54=1|55=BCA|59=0|60=20150519-17:32:50.809|63=4|100=US|111=100|207=US|583=-31a50ece1f00b6fb|453=1|448=XPUS|447=D|452=1|10=186|
20150519-17:32:50.819: 8=FIX.4.4|9=0339|35=8|49=CL02|56=LVBSG|34=288|52=20150519-17:32:50|50=XPUS|57=7369691|1=QXP019284|207=US|6=0|11=-1d24009d77eb783|14=0|17=-7b2f01d54c7cb507|21=1|150=E|31=0|151=800|32=0|100=US|38=1000|39=E|37=-7a2092e94e44bdf8|583=-31a50ece1f00b6fb|40=2|41=-5425e7f5dbf1b6e1|44=18.42|55=BCA|54=1|59=0|63=4|60=20150519-17:32:50.815|453=1|448=XPUS|447=D|452=1|10=170|
20150519-17:32:50.820: 8=FIX.4.4|9=0338|35=8|49=CL02|56=LVBSG|34=289|52=20150519-17:32:50|50=XPUS|57=7369691|1=QXP019284|207=US|6=18.42|11=-5425e7f5dbf1b6e1|14=100|17=LVSXFIX2-385300003B000003|21=1|150=F|31=18.42|151=700|32=100|100=US|38=800|39=1|37=-7a2092e94e44bdf8|583=-31a50ece1f00b6fb|40=2|44=18.42|55=BCA|54=1|59=0|63=4|60=20150519-17:32:50.815|453=1|448=XPUS|447=D|452=1|10=097|
20150519-17:32:50.823: 8=FIX.4.4|9=0338|35=8|49=CL02|56=LVBSG|34=290|52=20150519-17:32:50|50=XPUS|57=7369691|1=QXP019284|207=US|6=18.42|11=-5425e7f5dbf1b6e1|14=200|17=LVSXFIX2-385300003B000004|21=1|150=F|31=18.42|151=600|32=100|100=US|38=800|39=1|37=-7a2092e94e44bdf8|583=-31a50ece1f00b6fb|40=2|44=18.42|55=BCA|54=1|59=0|63=4|60=20150519-17:32:50.818|453=1|448=XPUS|447=D|452=1|10=093|
20150519-17:32:51.231: 8=FIX.4.4|9=0353|35=8|49=CL02|56=LVBSG|34=291|52=20150519-17:32:51|50=XPUS|57=7369691|1=QXP019284|207=US|6=18.42|11=-1d24009d77eb783|14=200|17=LVSXFIX2-385300003B000007|21=1|150=5|31=0|151=800|32=0|100=US|38=1000|39=1|37=-7a2092e94e44bdf8|583=-31a50ece1f00b6fb|40=2|41=-5425e7f5dbf1b6e1|44=18.42|55=BCA|54=1|59=0|63=4|60=20150519-17:32:51.227|453=1|448=XPUS|447=D|452=1|10=229|
20150519-17:33:51.232: 8=FIX.4.4|9=0050|35=0|49=CL02|56=LVBSG|34=292|52=20150519-17:33:51|10=073|
20150519-17:33:51.232: 8=FIX.4.4|9=54|35=0|34=277|49=LVBSG|52=20150519-17:33:51.232|56=CL02|10=181|
20150519-17:34:51.233: 8=FIX.4.4|9=0050|35=0|49=CL02|56=LVBSG|34=293|52=20150519-17:34:51|10=075|
20150519-17:34:51.234: 8=FIX.4.4|9=54|35=0|34=278|49=LVBSG|52=20150519-17:34:51.234|56=CL02|10=185|
20150519-17:35:51.233: 8=FIX.4.4|9=0050|35=0|49=CL02|56=LVBSG|34=294|52=20150519-17:35:51|10=077|
20150519-17:35:51.312: 8=FIX.4.4|9=54|35=0|34=279|49=LVBSG|52=20150519-17:35:51.312|56=CL02|10=184|
20150519-17:36:51.233: 8=FIX.4.4|9=0050|35=0|49=CL02|56=LVBSG|34=295|52=20150519-17:36:51|10=079|
20150519-17:36:52.312: 8=FIX.4.4|9=54|35=0|34=280|49=LVBSG|52=20150519-17:36:52.312|56=CL02|10=178|
20150519-17:37:51.234: 8=FIX.4.4|9=0050|35=0|49=CL02|56=LVBSG|34=296|52=20150519-17:37:51|10=081|
20150519-17:37:53.312: 8=FIX.4.4|9=54|35=0|34=281|49=LVBSG|52=20150519-17:37:53.312|56=CL02|10=181|
20150519-17:38:51.234: 8=FIX.4.4|9=0050|35=0|49=CL02|56=LVBSG|34=297|52=20150519-17:38:51|10=083|
20150519-17:38:54.312: 8=FIX.4.4|9=54|35=0|34=282|49=LVBSG|52=20150519-17:38:54.312|56=CL02|10=184|
20150519-17:39:51.235: 8=FIX.4.4|9=0050|35=0|49=CL02|56=LVBSG|34=298|52=20150519-17:39:51|10=085|
20150519-17:39:55.311: 8=FIX.4.4|9=54|35=0|34=283|49=LVBSG|52=20150519-17:39:55.311|56=CL02|10=186|
20150519-17:40:51.235: 8=FIX.4.4|9=0050|35=0|49=CL02|56=LVBSG|34=299|52=20150519-17:40:51|10=078|
20150519-17:40:55.312: 8=FIX.4.4|9=54|35=0|34=284|49=LVBSG|52=20150519-17:40:55.312|56=CL02|10=180|
20150519-17:41:51.241: 8=FIX.4.4|9=0050|35=0|49=CL02|56=LVBSG|34=300|52=20150519-17:41:51|10=062|
20150519-17:41:55.312: 8=FIX.4.4|9=54|35=0|34=285|49=LVBSG|52=20150519-17:41:55.312|56=CL02|10=182|
20150519-17:42:51.235: 8=FIX.4.4|9=0050|35=0|49=CL02|56=LVBSG|34=301|52=20150519-17:42:51|10=064|
20150519-17:42:56.311: 8=FIX.4.4|9=54|35=0|34=286|49=LVBSG|52=20150519-17:42:56.311|56=CL02|10=184|
20150519-17:43:51.243: 8=FIX.4.4|9=0050|35=0|49=CL02|56=LVBSG|34=302|52=20150519-17:43:51|10=066|
20150519-17:43:56.311: 8=FIX.4.4|9=54|35=0|34=287|49=LVBSG|52=20150519-17:43:56.311|56=CL02|10=186|
20150519-17:44:51.237: 8=FIX.4.4|9=0050|35=0|49=CL02|56=LVBSG|34=303|52=20150519-17:44:51|10=068|
20150519-17:44:56.311: 8=FIX.4.4|9=54|35=0|34=288|49=LVBSG|52=20150519-17:44:56.311|56=CL02|10=188|
20150519-17:45:51.237: 8=FIX.4.4|9=0050|35=0|49=CL02|56=LVBSG|34=304|52=20150519-17:45:51|10=070|
20150519-17:45:56.312: 8=FIX.4.4|9=54|35=0|34=289|49=LVBSG|52=20150519-17:45:56.312|56=CL02|10=191|
20150519-17:46:51.237: 8=FIX.4.4|9=0050|35=0|49=CL02|56=LVBSG|34=305|52=20150519-17:46:51|10=072|
20150519-17:46:56.312: 8=FIX.4.4|9=54|35=0|34=290|49=LVBSG|52=20150519-17:46:56.312|56=CL02|10=184|
20150519-17:47:51.239: 8=FIX.4.4|9=0050|35=0|49=CL02|56=LVBSG|34=306|52=20150519-17:47:51|10=074|
20150519-17:47:57.312: 8=FIX.4.4|9=54|35=0|34=291|49=LVBSG|52=20150519-17:47:57.312|56=CL02|10=187|
20150519-17:48:12.348: 8=FIX.4.4|9=0353|35=8|49=CL02|56=LVBSG|34=307|52=20150519-17:48:12|50=XPUS|57=7369691|1=QXP019284|207=US|6=18.42|11=-1d24009d77eb783|14=200|17=LVSXFIX2-385300003B00000A|21=1|150=5|31=0|151=800|32=0|100=US|38=1000|39=1|37=-7a2092e94e44bdf8|583=-31a50ece1f00b6fb|40=2|41=-5425e7f5dbf1b6e1|44=18.43|55=BCA|54=1|59=0|63=4|60=20150519-17:48:12.344|453=1|448=XPUS|447=D|452=1|10=246|
20150519-17:48:13.556: 8=FIX.4.4|9=270|35=G|34=292|49=LVBSG|50=7369691|52=20150519-17:48:13.556|56=CL02|57=XPUS|1=QXP019284|11=427d9fd3007a4b70|21=1|38=1000|40=2|41=-1d24009d77eb783|44=18.44|54=1|55=BCA|59=0|60=20150519-17:48:13.555|63=4|100=US|111=100|207=US|583=-31a50ece1f00b6fb|453=1|448=XPUS|447=D|452=1|10=047|
20150519-17:48:13.565: 8=FIX.4.4|9=0344|35=8|49=CL02|56=LVBSG|34=308|52=20150519-17:48:13|50=XPUS|57=7369691|1=QXP019284|207=US|6=18.42|11=427d9fd3007a4b70|14=200|17=-14623fdddca0bb47|21=1|150=E|31=0|151=800|32=0|100=US|38=1000|39=E|37=-7a2092e94e44bdf8|583=-31a50ece1f00b6fb|40=2|41=-1d24009d77eb783|44=18.44|55=BCA|54=1|59=0|63=4|60=20150519-17:48:13.560|453=1|448=XPUS|447=D|452=1|10=161|
20150519-17:48:13.684: 8=FIX.4.4|9=0352|35=8|49=CL02|56=LVBSG|34=309|52=20150519-17:48:13|50=XPUS|57=7369691|1=QXP019284|207=US|6=18.42|11=427d9fd3007a4b70|14=200|17=LVSXFIX2-385300003B00000D|21=1|150=5|31=0|151=800|32=0|100=US|38=1000|39=1|37=-7a2092e94e44bdf8|583=-31a50ece1f00b6fb|40=2|41=-1d24009d77eb783|44=18.44|55=BCA|54=1|59=0|63=4|60=20150519-17:48:13.679|453=1|448=XPUS|447=D|452=1|10=117|
20150519-17:48:13.691: 8=FIX.4.4|9=0358|35=8|49=CL02|56=LVBSG|34=310|52=20150519-17:48:13|50=XPUS|57=7369691|1=QXP019284|207=US|6=18.43|11=427d9fd3007a4b70|14=400|17=LVSXFIX2-385300003B00000E|21=1|150=F|31=18.44|151=600|32=200|100=US|38=1000|39=1|37=-7a2092e94e44bdf8|583=-31a50ece1f00b6fb|40=2|41=-1d24009d77eb783|44=18.44|55=BCA|54=1|59=0|63=4|60=20150519-17:48:13.687|453=1|448=XPUS|447=D|452=1|10=182|
20150519-17:48:14.059: 8=FIX.4.4|9=0352|35=8|49=CL02|56=LVBSG|34=311|52=20150519-17:48:14|50=XPUS|57=7369691|1=QXP019284|207=US|6=18.43|11=427d9fd3007a4b70|14=400|17=LVSXFIX2-385300003B00000H|21=1|150=5|31=0|151=600|32=0|100=US|38=1000|39=1|37=-7a2092e94e44bdf8|583=-31a50ece1f00b6fb|40=2|41=-1d24009d77eb783|44=18.44|55=BCA|54=1|59=0|63=4|60=20150519-17:48:14.055|453=1|448=XPUS|447=D|452=1|10=105|
20150519-17:48:17.918: 8=FIX.4.4|9=0352|35=8|49=CL02|56=LVBSG|34=312|52=20150519-17:48:17|50=XPUS|57=7369691|1=QXP019284|207=US|6=18.43|11=427d9fd3007a4b70|14=400|17=LVSXFIX2-385300003B00000K|21=1|150=5|31=0|151=600|32=0|100=US|38=1000|39=1|37=-7a2092e94e44bdf8|583=-31a50ece1f00b6fb|40=2|41=-1d24009d77eb783|44=18.43|55=BCA|54=1|59=0|63=4|60=20150519-17:48:17.911|453=1|448=XPUS|447=D|452=1|10=115|
20150519-17:48:18.549: 8=FIX.4.4|9=270|35=G|34=293|49=LVBSG|50=7369691|52=20150519-17:48:18.549|56=CL02|57=XPUS|1=QXP019284|11=44bd0e794bd54719|21=1|38=1000|40=2|41=427d9fd3007a4b70|44=18.44|54=1|55=BCA|59=0|60=20150519-17:48:18.549|63=4|100=US|111=100|207=US|583=-31a50ece1f00b6fb|453=1|448=XPUS|447=D|452=1|10=122|
20150519-17:48:18.557: 8=FIX.4.4|9=0344|35=8|49=CL02|56=LVBSG|34=313|52=20150519-17:48:18|50=XPUS|57=7369691|1=QXP019284|207=US|6=18.43|11=44bd0e794bd54719|14=400|17=-2b721e04f454b7f7|21=1|150=E|31=0|151=600|32=0|100=US|38=1000|39=E|37=-7a2092e94e44bdf8|583=-31a50ece1f00b6fb|40=2|41=427d9fd3007a4b70|44=18.44|55=BCA|54=1|59=0|63=4|60=20150519-17:48:18.553|453=1|448=XPUS|447=D|452=1|10=096|
20150519-17:48:18.796: 8=FIX.4.4|9=0251|35=9|49=CL02|56=LVBSG|34=314|52=20150519-17:48:18|50=XPUS|57=7369691|1=QXP019284|39=8|37=-7a2092e94e44bdf8|583=-31a50ece1f00b6fb|434=2|11=44bd0e794bd54719|41=427d9fd3007a4b70|58=BLP_FIXNET: Order already has a request pending|60=20150519-17:48:18.791|10=153|
20150519-17:48:18.904: 8=FIX.4.4|9=0352|35=8|49=CL02|56=LVBSG|34=315|52=20150519-17:48:18|50=XPUS|57=7369691|1=QXP019284|207=US|6=18.43|11=44bd0e794bd54719|14=400|17=LVSXFIX2-385300003B00000O|21=1|150=5|31=0|151=600|32=0|100=US|38=1000|39=1|37=-7a2092e94e44bdf8|583=-31a50ece1f00b6fb|40=2|41=427d9fd3007a4b70|44=18.42|55=BCA|54=1|59=0|63=4|60=20150519-17:48:18.893|453=1|448=XPUS|447=D|452=1|10=191|
20150519-17:48:40.340: 8=FIX.4.4|9=271|35=G|34=294|49=LVBSG|50=7369691|52=20150519-17:48:40.340|56=CL02|57=XPUS|1=QXP019284|11=-4339c334f2f1b0b3|21=1|38=1000|40=2|41=44bd0e794bd54719|44=18.44|54=1|55=BCA|59=0|60=20150519-17:48:40.340|63=4|100=US|111=100|207=US|583=-31a50ece1f00b6fb|453=1|448=XPUS|447=D|452=1|10=131|
20150519-17:48:40.351: 8=FIX.4.4|9=0345|35=8|49=CL02|56=LVBSG|34=316|52=20150519-17:48:40|50=XPUS|57=7369691|1=QXP019284|207=US|6=18.43|11=-4339c334f2f1b0b3|14=400|17=-4874f87e64a1b0d9|21=1|150=E|31=0|151=600|32=0|100=US|38=1000|39=E|37=-7a2092e94e44bdf8|583=-31a50ece1f00b6fb|40=2|41=44bd0e794bd54719|44=18.44|55=BCA|54=1|59=0|63=4|60=20150519-17:48:40.345|453=1|448=XPUS|447=D|452=1|10=140|
20150519-17:48:40.771: 8=FIX.4.4|9=0353|35=8|49=CL02|56=LVBSG|34=317|52=20150519-17:48:40|50=XPUS|57=7369691|1=QXP019284|207=US|6=18.43|11=-4339c334f2f1b0b3|14=400|17=LVSXFIX2-385300003B00000R|21=1|150=5|31=0|151=600|32=0|100=US|38=1000|39=1|37=-7a2092e94e44bdf8|583=-31a50ece1f00b6fb|40=2|41=44bd0e794bd54719|44=18.44|55=BCA|54=1|59=0|63=4|60=20150519-17:48:40.764|453=1|448=XPUS|447=D|452=1|10=225|
20150519-17:49:40.770: 8=FIX.4.4|9=0050|35=0|49=CL02|56=LVBSG|34=318|52=20150519-17:49:40|10=077|
20150519-17:49:40.770: 8=FIX.4.4|9=54|35=0|34=295|49=LVBSG|52=20150519-17:49:40.770|56=CL02|10=193|
20150519-17:50:40.770: 8=FIX.4.4|9=0050|35=0|49=CL02|56=LVBSG|34=319|52=20150519-17:50:40|10=070|
20150519-17:50:40.771: 8=FIX.4.4|9=54|35=0|34=296|49=LVBSG|52=20150519-17:50:40.771|56=CL02|10=187|
20150519-17:51:40.769: 8=FIX.4.4|9=0050|35=0|49=CL02|56=LVBSG|34=320|52=20150519-17:51:40|10=063|
20150519-17:51:41.311: 8=FIX.4.4|9=54|35=0|34=297|49=LVBSG|52=20150519-17:51:41.311|56=CL02|10=180|
20150519-17:52:40.769: 8=FIX.4.4|9=0050|35=0|49=CL02|56=LVBSG|34=321|52=20150519-17:52:40|10=065|
20150519-17:52:41.312: 8=FIX.4.4|9=54|35=0|34=298|49=LVBSG|52=20150519-17:52:41.312|56=CL02|10=183|
20150519-17:53:40.769: 8=FIX.4.4|9=0050|35=0|49=CL02|56=LVBSG|34=322|52=20150519-17:53:40|10=067|
20150519-17:53:41.312: 8=FIX.4.4|9=54|35=0|34=299|49=LVBSG|52=20150519-17:53:41.312|56=CL02|10=185|
20150519-17:53:52.681: 8=FIX.4.4|9=0360|35=8|49=CL02|56=LVBSG|34=323|52=20150519-17:53:52|50=XPUS|57=7369691|1=QXP019284|207=US|6=18.432|11=-4339c334f2f1b0b3|14=500|17=LVSXFIX2-385300003B00000S|21=1|150=F|31=18.44|151=500|32=100|100=US|38=1000|39=1|37=-7a2092e94e44bdf8|583=-31a50ece1f00b6fb|40=2|41=44bd0e794bd54719|44=18.44|55=BCA|54=1|59=0|63=4|60=20150519-17:53:52.676|453=1|448=XPUS|447=D|452=1|10=080|
20150519-17:53:52.711: 8=FIX.4.4|9=0363|35=8|49=CL02|56=LVBSG|34=324|52=20150519-17:53:52|50=XPUS|57=7369691|1=QXP019284|207=US|6=18.433333|11=-4339c334f2f1b0b3|14=600|17=LVSXFIX2-385300003B00000T|21=1|150=F|31=18.44|151=400|32=100|100=US|38=1000|39=1|37=-7a2092e94e44bdf8|583=-31a50ece1f00b6fb|40=2|41=44bd0e794bd54719|44=18.44|55=BCA|54=1|59=0|63=4|60=20150519-17:53:52.706|453=1|448=XPUS|447=D|452=1|10=233|
20150519-17:53:52.724: 8=FIX.4.4|9=0363|35=8|49=CL02|56=LVBSG|34=325|52=20150519-17:53:52|50=XPUS|57=7369691|1=QXP019284|207=US|6=18.434286|11=-4339c334f2f1b0b3|14=700|17=LVSXFIX2-385300003B00000U|21=1|150=F|31=18.44|151=300|32=100|100=US|38=1000|39=1|37=-7a2092e94e44bdf8|583=-31a50ece1f00b6fb|40=2|41=44bd0e794bd54719|44=18.44|55=BCA|54=1|59=0|63=4|60=20150519-17:53:52.719|453=1|448=XPUS|447=D|452=1|10=247|
20150519-17:53:52.812: 8=FIX.4.4|9=0362|35=8|49=CL02|56=LVBSG|34=326|52=20150519-17:53:52|50=XPUS|57=7369691|1=QXP019284|207=US|6=18.43375|11=-4339c334f2f1b0b3|14=800|17=LVSXFIX2-385300003B00000V|21=1|150=F|31=18.43|151=200|32=100|100=US|38=1000|39=1|37=-7a2092e94e44bdf8|583=-31a50ece1f00b6fb|40=2|41=44bd0e794bd54719|44=18.44|55=BCA|54=1|59=0|63=4|60=20150519-17:53:52.806|453=1|448=XPUS|447=D|452=1|10=191|
20150519-17:53:52.823: 8=FIX.4.4|9=0363|35=8|49=CL02|56=LVBSG|34=327|52=20150519-17:53:52|50=XPUS|57=7369691|1=QXP019284|207=US|6=18.434444|11=-4339c334f2f1b0b3|14=900|17=LVSXFIX2-385300003B00000W|21=1|150=F|31=18.44|151=100|32=100|100=US|38=1000|39=1|37=-7a2092e94e44bdf8|583=-31a50ece1f00b6fb|40=2|41=44bd0e794bd54719|44=18.44|55=BCA|54=1|59=0|63=4|60=20150519-17:53:52.817|453=1|448=XPUS|447=D|452=1|10=246|
20150519-17:53:52.836: 8=FIX.4.4|9=0359|35=8|49=CL02|56=LVBSG|34=328|52=20150519-17:53:52|50=XPUS|57=7369691|1=QXP019284|207=US|6=18.435|11=-4339c334f2f1b0b3|14=1000|17=LVSXFIX2-385300003B00000X|21=1|150=F|31=18.44|151=0|32=100|100=US|38=1000|39=2|37=-7a2092e94e44bdf8|583=-31a50ece1f00b6fb|40=2|41=44bd0e794bd54719|44=18.44|55=BCA|54=1|59=0|63=4|60=20150519-17:53:52.828|453=1|448=XPUS|447=D|452=1|10=044|
20150519-17:54:42.312: 8=FIX.4.4|9=54|35=0|34=300|49=LVBSG|52=20150519-17:54:42.312|56=CL02|10=170|
20150519-17:54:52.836: 8=FIX.4.4|9=0050|35=0|49=CL02|56=LVBSG|34=329|52=20150519-17:54:52|10=078|
20150519-17:55:43.312: 8=FIX.4.4|9=54|35=0|34=301|49=LVBSG|52=20150519-17:55:43.312|56=CL02|10=173|
20150519-17:55:52.837: 8=FIX.4.4|9=0050|35=0|49=CL02|56=LVBSG|34=330|52=20150519-17:55:52|10=071|
20150519-17:56:44.312: 8=FIX.4.4|9=54|35=0|34=302|49=LVBSG|52=20150519-17:56:44.312|56=CL02|10=176|
20150519-17:56:52.837: 8=FIX.4.4|9=0050|35=0|49=CL02|56=LVBSG|34=331|52=20150519-17:56:52|10=073|
20150519-17:57:45.311: 8=FIX.4.4|9=54|35=0|34=303|49=LVBSG|52=20150519-17:57:45.311|56=CL02|10=178|
20150519-17:57:52.839: 8=FIX.4.4|9=0050|35=0|49=CL02|56=LVBSG|34=332|52=20150519-17:57:52|10=075|
20150519-17:58:45.311: 8=FIX.4.4|9=54|35=0|34=304|49=LVBSG|52=20150519-17:58:45.311|56=CL02|10=180|
20150519-17:58:52.838: 8=FIX.4.4|9=0050|35=0|49=CL02|56=LVBSG|34=333|52=20150519-17:58:52|10=077|
20150519-17:59:45.311: 8=FIX.4.4|9=54|35=0|34=305|49=LVBSG|52=20150519-17:59:45.311|56=CL02|10=182|
20150519-17:59:52.838: 8=FIX.4.4|9=0050|35=0|49=CL02|56=LVBSG|34=334|52=20150519-17:59:52|10=079|
20150519-18:00:45.312: 8=FIX.4.4|9=54|35=0|34=306|49=LVBSG|52=20150519-18:00:45.312|56=CL02|10=171|
20150519-18:00:52.838: 8=FIX.4.4|9=0050|35=0|49=CL02|56=LVBSG|34=335|52=20150519-18:00:52|10=067|
20150519-18:01:45.312: 8=FIX.4.4|9=54|35=0|34=307|49=LVBSG|52=20150519-18:01:45.312|56=CL02|10=173|
20150519-18:01:52.839: 8=FIX.4.4|9=0050|35=0|49=CL02|56=LVBSG|34=336|52=20150519-18:01:52|10=069|
20150519-18:02:45.312: 8=FIX.4.4|9=54|35=0|34=308|49=LVBSG|52=20150519-18:02:45.312|56=CL02|10=175|
20150519-18:02:52.839: 8=FIX.4.4|9=0050|35=0|49=CL02|56=LVBSG|34=337|52=20150519-18:02:52|10=071|
20150519-18:03:46.312: 8=FIX.4.4|9=54|35=0|34=309|49=LVBSG|52=20150519-18:03:46.312|56=CL02|10=178|
20150519-18:03:52.840: 8=FIX.4.4|9=0050|35=0|49=CL02|56=LVBSG|34=338|52=20150519-18:03:52|10=073|
20150519-18:04:46.312: 8=FIX.4.4|9=54|35=0|34=310|49=LVBSG|52=20150519-18:04:46.312|56=CL02|10=171|
20150519-18:04:52.841: 8=FIX.4.4|9=0050|35=0|49=CL02|56=LVBSG|34=339|52=20150519-18:04:52|10=075|
20150519-18:05:47.312: 8=FIX.4.4|9=54|35=0|34=311|49=LVBSG|52=20150519-18:05:47.312|56=CL02|10=174|
20150519-18:05:52.840: 8=FIX.4.4|9=0050|35=0|49=CL02|56=LVBSG|34=340|52=20150519-18:05:52|10=068|
20150519-18:06:48.312: 8=FIX.4.4|9=54|35=0|34=312|49=LVBSG|52=20150519-18:06:48.312|56=CL02|10=177|
20150519-18:06:52.839: 8=FIX.4.4|9=0050|35=0|49=CL02|56=LVBSG|34=341|52=20150519-18:06:52|10=070|
20150519-18:07:48.312: 8=FIX.4.4|9=54|35=0|34=313|49=LVBSG|52=20150519-18:07:48.312|56=CL02|10=179|
20150519-18:07:52.840: 8=FIX.4.4|9=0050|35=0|49=CL02|56=LVBSG|34=342|52=20150519-18:07:52|10=072|
20150519-18:08:49.312: 8=FIX.4.4|9=54|35=0|34=314|49=LVBSG|52=20150519-18:08:49.312|56=CL02|10=182|
20150519-18:08:52.840: 8=FIX.4.4|9=0050|35=0|49=CL02|56=LVBSG|34=343|52=20150519-18:08:52|10=074|
20150519-18:09:49.312: 8=FIX.4.4|9=54|35=0|34=315|49=LVBSG|52=20150519-18:09:49.312|56=CL02|10=184|
20150519-18:09:52.842: 8=FIX.4.4|9=0050|35=0|49=CL02|56=LVBSG|34=344|52=20150519-18:09:52|10=076|
