20150520-11:09:08.223: 8=FIX.4.4|9=61|35=5|34=1|49=ALGOARBADR4|52=20150520-11:09:08.210|56=MDFHBLP|10=205|
20150520-11:09:09.204: 8=FIX.4.4|9=79|35=A|34=1|49=ALGOARBADR4|52=20150520-11:09:09.204|56=MDFHBLP|98=0|108=60|141=Y|10=047|
20150520-11:09:09.253: 8=FIX.4.4|9=79|35=A|34=1|49=MDFHBLP|52=20150520-11:09:09.497|56=ALGOARBADR4|98=0|108=60|141=Y|10=061|
20150520-11:09:09.391: 8=FIX.4.4|9=144|35=V|34=2|49=ALGOARBADR4|52=20150520-11:09:09.390|56=MDFHBLP|262=-6ebd1efab5e2b15e|263=1|264=1|146=1|55=CLP DTTC CURNCY|267=3|269=0|269=1|269=5|10=117|
20150520-11:09:09.397: 8=FIX.4.4|9=168|35=W|34=2|49=MDFHBLP|52=20150520-11:09:09.661|56=ALGOARBADR4|55=CLP DTTC CURNCY|262=-6ebd1efab5e2b15e|268=3|269=0|270=604.5|271=0|269=1|270=605.7|271=0|269=5|270=605.1|10=235|
20150520-11:10:09.486: 8=FIX.4.4|9=61|35=0|34=3|49=MDFHBLP|52=20150520-11:10:09.752|56=ALGOARBADR4|10=206|
20150520-11:10:09.487: 8=FIX.4.4|9=61|35=0|34=3|49=ALGOARBADR4|52=20150520-11:10:09.487|56=MDFHBLP|10=211|
20150520-11:10:23.388: 8=FIX.4.4|9=139|35=X|34=4|49=MDFHBLP|52=20150520-11:10:23.654|56=ALGOARBADR4|262=71010593cc924fc5|268=1|279=1|269=0|55=CLP DTTC CURNCY|270=604|271=0|290=1|10=123|
20150520-11:10:23.388: 8=FIX.4.4|9=140|35=X|34=5|49=MDFHBLP|52=20150520-11:10:23.654|56=ALGOARBADR4|262=-6ebd1efab5e2b15e|268=1|279=1|269=0|55=CLP DTTC CURNCY|270=604|271=0|290=1|10=189|
20150520-11:10:23.392: 8=FIX.4.4|9=136|35=X|34=6|49=MDFHBLP|52=20150520-11:10:23.656|56=ALGOARBADR4|262=71010593cc924fc5|268=1|279=1|269=5|55=CLP DTTC CURNCY|270=604.85|290=1|10=020|
20150520-11:10:23.393: 8=FIX.4.4|9=137|35=X|34=7|49=MDFHBLP|52=20150520-11:10:23.660|56=ALGOARBADR4|262=-6ebd1efab5e2b15e|268=1|279=1|269=5|55=CLP DTTC CURNCY|270=604.85|290=1|10=090|
20150520-11:10:31.718: 8=FIX.4.4|9=141|35=X|34=8|49=MDFHBLP|52=20150520-11:10:31.985|56=ALGOARBADR4|262=71010593cc924fc5|268=1|279=1|269=0|55=CLP DTTC CURNCY|270=604.1|271=0|290=1|10=221|
20150520-11:10:31.719: 8=FIX.4.4|9=142|35=X|34=9|49=MDFHBLP|52=20150520-11:10:31.986|56=ALGOARBADR4|262=-6ebd1efab5e2b15e|268=1|279=1|269=0|55=CLP DTTC CURNCY|270=604.1|271=0|290=1|10=041|
20150520-11:10:31.720: 8=FIX.4.4|9=136|35=X|34=10|49=MDFHBLP|52=20150520-11:10:31.987|56=ALGOARBADR4|262=71010593cc924fc5|268=1|279=1|269=5|55=CLP DTTC CURNCY|270=604.9|290=1|10=017|
20150520-11:10:31.721: 8=FIX.4.4|9=137|35=X|34=11|49=MDFHBLP|52=20150520-11:10:31.988|56=ALGOARBADR4|262=-6ebd1efab5e2b15e|268=1|279=1|269=5|55=CLP DTTC CURNCY|270=604.9|290=1|10=093|
20150520-11:10:34.707: 8=FIX.4.4|9=137|35=X|34=12|49=MDFHBLP|52=20150520-11:10:34.975|56=ALGOARBADR4|262=71010593cc924fc5|268=1|279=1|269=5|55=CLP DTTC CURNCY|270=604.55|290=1|10=069|
20150520-11:10:34.708: 8=FIX.4.4|9=138|35=X|34=13|49=MDFHBLP|52=20150520-11:10:34.975|56=ALGOARBADR4|262=-6ebd1efab5e2b15e|268=1|279=1|269=5|55=CLP DTTC CURNCY|270=604.55|290=1|10=144|
20150520-11:10:34.709: 8=FIX.4.4|9=140|35=X|34=14|49=MDFHBLP|52=20150520-11:10:34.977|56=ALGOARBADR4|262=71010593cc924fc5|268=1|279=1|269=1|55=CLP DTTC CURNCY|270=605|271=0|290=1|10=176|
20150520-11:10:34.710: 8=FIX.4.4|9=141|35=X|34=15|49=MDFHBLP|52=20150520-11:10:34.977|56=ALGOARBADR4|262=-6ebd1efab5e2b15e|268=1|279=1|269=1|55=CLP DTTC CURNCY|270=605|271=0|290=1|10=251|
20150520-11:11:10.196: 8=FIX.4.4|9=61|35=0|34=4|49=ALGOARBADR4|52=20150520-11:11:10.196|56=MDFHBLP|10=202|
20150520-11:11:35.488: 8=FIX.4.4|9=62|35=0|34=16|49=MDFHBLP|52=20150520-11:11:35.757|56=ALGOARBADR4|10=008|
20150520-11:12:10.197: 8=FIX.4.4|9=61|35=0|34=5|49=ALGOARBADR4|52=20150520-11:12:10.197|56=MDFHBLP|10=205|
20150520-11:12:35.490: 8=FIX.4.4|9=62|35=0|34=17|49=MDFHBLP|52=20150520-11:12:35.761|56=ALGOARBADR4|10=005|
20150520-11:13:11.196: 8=FIX.4.4|9=61|35=0|34=6|49=ALGOARBADR4|52=20150520-11:13:11.196|56=MDFHBLP|10=207|
20150520-11:13:11.248: 8=FIX.4.4|9=142|35=X|34=18|49=MDFHBLP|52=20150520-11:13:11.519|56=ALGOARBADR4|262=71010593cc924fc5|268=1|279=1|269=0|55=CLP DTTC CURNCY|270=604.5|271=0|290=1|10=013|
20150520-11:13:11.249: 8=FIX.4.4|9=143|35=X|34=19|49=MDFHBLP|52=20150520-11:13:11.520|56=ALGOARBADR4|262=-6ebd1efab5e2b15e|268=1|279=1|269=0|55=CLP DTTC CURNCY|270=604.5|271=0|290=1|10=080|
20150520-11:13:11.250: 8=FIX.4.4|9=137|35=X|34=20|49=MDFHBLP|52=20150520-11:13:11.521|56=ALGOARBADR4|262=71010593cc924fc5|268=1|279=1|269=5|55=CLP DTTC CURNCY|270=604.75|290=1|10=055|
20150520-11:13:11.251: 8=FIX.4.4|9=138|35=X|34=21|49=MDFHBLP|52=20150520-11:13:11.522|56=ALGOARBADR4|262=-6ebd1efab5e2b15e|268=1|279=1|269=5|55=CLP DTTC CURNCY|270=604.75|290=1|10=131|
20150520-11:14:11.197: 8=FIX.4.4|9=61|35=0|34=7|49=ALGOARBADR4|52=20150520-11:14:11.197|56=MDFHBLP|10=210|
20150520-11:14:11.494: 8=FIX.4.4|9=62|35=0|34=22|49=MDFHBLP|52=20150520-11:14:11.766|56=ALGOARBADR4|10=002|
20150520-11:15:11.497: 8=FIX.4.4|9=62|35=0|34=23|49=MDFHBLP|52=20150520-11:15:11.770|56=ALGOARBADR4|10=255|
20150520-11:15:11.497: 8=FIX.4.4|9=61|35=0|34=8|49=ALGOARBADR4|52=20150520-11:15:11.497|56=MDFHBLP|10=215|
20150520-11:16:11.499: 8=FIX.4.4|9=62|35=0|34=24|49=MDFHBLP|52=20150520-11:16:11.773|56=ALGOARBADR4|10=004|
20150520-11:16:11.499: 8=FIX.4.4|9=61|35=0|34=9|49=ALGOARBADR4|52=20150520-11:16:11.499|56=MDFHBLP|10=219|
20150520-11:17:11.501: 8=FIX.4.4|9=62|35=0|34=25|49=MDFHBLP|52=20150520-11:17:11.777|56=ALGOARBADR4|10=010|
20150520-11:17:11.501: 8=FIX.4.4|9=62|35=0|34=10|49=ALGOARBADR4|52=20150520-11:17:11.501|56=MDFHBLP|10=245|
20150520-11:18:11.503: 8=FIX.4.4|9=62|35=0|34=26|49=MDFHBLP|52=20150520-11:18:11.781|56=ALGOARBADR4|10=007|
20150520-11:18:11.504: 8=FIX.4.4|9=62|35=0|34=11|49=ALGOARBADR4|52=20150520-11:18:11.504|56=MDFHBLP|10=250|
20150520-11:18:30.092: 8=FIX.4.4|9=137|35=X|34=27|49=MDFHBLP|52=20150520-11:18:30.370|56=ALGOARBADR4|262=71010593cc924fc5|268=1|279=1|269=5|55=CLP DTTC CURNCY|270=604.76|290=1|10=071|
20150520-11:18:30.093: 8=FIX.4.4|9=138|35=X|34=28|49=MDFHBLP|52=20150520-11:18:30.371|56=ALGOARBADR4|262=-6ebd1efab5e2b15e|268=1|279=1|269=5|55=CLP DTTC CURNCY|270=604.76|290=1|10=147|
20150520-11:18:30.094: 8=FIX.4.4|9=143|35=X|34=29|49=MDFHBLP|52=20150520-11:18:30.373|56=ALGOARBADR4|262=71010593cc924fc5|268=1|279=1|269=0|55=CLP DTTC CURNCY|270=604.51|271=0|290=1|10=069|
20150520-11:18:30.095: 8=FIX.4.4|9=144|35=X|34=30|49=MDFHBLP|52=20150520-11:18:30.373|56=ALGOARBADR4|262=-6ebd1efab5e2b15e|268=1|279=1|269=0|55=CLP DTTC CURNCY|270=604.51|271=0|290=1|10=135|
20150520-11:19:12.196: 8=FIX.4.4|9=62|35=0|34=12|49=ALGOARBADR4|52=20150520-11:19:12.196|56=MDFHBLP|10=004|
20150520-11:19:30.505: 8=FIX.4.4|9=62|35=0|34=31|49=MDFHBLP|52=20150520-11:19:30.785|56=ALGOARBADR4|10=009|
20150520-11:20:12.196: 8=FIX.4.4|9=62|35=0|34=13|49=ALGOARBADR4|52=20150520-11:20:12.196|56=MDFHBLP|10=253|
20150520-11:20:30.507: 8=FIX.4.4|9=62|35=0|34=32|49=MDFHBLP|52=20150520-11:20:30.789|56=ALGOARBADR4|10=006|
20150520-11:21:02.963: 8=FIX.4.4|9=136|35=X|34=33|49=MDFHBLP|52=20150520-11:21:03.245|56=ALGOARBADR4|262=71010593cc924fc5|268=1|279=1|269=5|55=CLP DTTC CURNCY|270=604.8|290=1|10=009|
20150520-11:21:02.964: 8=FIX.4.4|9=137|35=X|34=34|49=MDFHBLP|52=20150520-11:21:03.246|56=ALGOARBADR4|262=-6ebd1efab5e2b15e|268=1|279=1|269=5|55=CLP DTTC CURNCY|270=604.8|290=1|10=085|
20150520-11:21:02.965: 8=FIX.4.4|9=142|35=X|34=35|49=MDFHBLP|52=20150520-11:21:03.247|56=ALGOARBADR4|262=71010593cc924fc5|268=1|279=1|269=0|55=CLP DTTC CURNCY|270=604.6|271=0|290=1|10=011|
20150520-11:21:02.966: 8=FIX.4.4|9=143|35=X|34=36|49=MDFHBLP|52=20150520-11:21:03.248|56=ALGOARBADR4|262=-6ebd1efab5e2b15e|268=1|279=1|269=0|55=CLP DTTC CURNCY|270=604.6|271=0|290=1|10=087|
20150520-11:21:12.197: 8=FIX.4.4|9=62|35=0|34=14|49=ALGOARBADR4|52=20150520-11:21:12.197|56=MDFHBLP|10=000|
20150520-11:21:26.119: 8=FIX.4.4|9=143|35=X|34=37|49=MDFHBLP|52=20150520-11:21:26.402|56=ALGOARBADR4|262=71010593cc924fc5|268=1|279=1|269=1|55=CLP DTTC CURNCY|270=605.19|271=0|290=1|10=066|
20150520-11:21:26.119: 8=FIX.4.4|9=144|35=X|34=38|49=MDFHBLP|52=20150520-11:21:26.403|56=ALGOARBADR4|262=-6ebd1efab5e2b15e|268=1|279=1|269=1|55=CLP DTTC CURNCY|270=605.19|271=0|290=1|10=142|
20150520-11:21:26.121: 8=FIX.4.4|9=136|35=X|34=39|49=MDFHBLP|52=20150520-11:21:26.404|56=ALGOARBADR4|262=71010593cc924fc5|268=1|279=1|269=5|55=CLP DTTC CURNCY|270=604.9|290=1|10=018|
20150520-11:21:26.121: 8=FIX.4.4|9=137|35=X|34=40|49=MDFHBLP|52=20150520-11:21:26.405|56=ALGOARBADR4|262=-6ebd1efab5e2b15e|268=1|279=1|269=5|55=CLP DTTC CURNCY|270=604.9|290=1|10=085|
20150520-11:21:28.402: 8=FIX.4.4|9=137|35=X|34=41|49=MDFHBLP|52=20150520-11:21:28.685|56=ALGOARBADR4|262=71010593cc924fc5|268=1|279=1|269=5|55=CLP DTTC CURNCY|270=604.92|290=1|10=075|
20150520-11:21:28.402: 8=FIX.4.4|9=138|35=X|34=42|49=MDFHBLP|52=20150520-11:21:28.686|56=ALGOARBADR4|262=-6ebd1efab5e2b15e|268=1|279=1|269=5|55=CLP DTTC CURNCY|270=604.92|290=1|10=151|
20150520-11:21:28.404: 8=FIX.4.4|9=143|35=X|34=43|49=MDFHBLP|52=20150520-11:21:28.687|56=ALGOARBADR4|262=71010593cc924fc5|268=1|279=1|269=0|55=CLP DTTC CURNCY|270=604.65|271=0|290=1|10=079|
20150520-11:21:28.404: 8=FIX.4.4|9=144|35=X|34=44|49=MDFHBLP|52=20150520-11:21:28.688|56=ALGOARBADR4|262=-6ebd1efab5e2b15e|268=1|279=1|269=0|55=CLP DTTC CURNCY|270=604.65|271=0|290=1|10=155|
20150520-11:22:12.197: 8=FIX.4.4|9=62|35=0|34=15|49=ALGOARBADR4|52=20150520-11:22:12.197|56=MDFHBLP|10=002|
20150520-11:22:28.512: 8=FIX.4.4|9=62|35=0|34=45|49=MDFHBLP|52=20150520-11:22:28.796|56=ALGOARBADR4|10=017|
20150520-11:23:13.196: 8=FIX.4.4|9=62|35=0|34=16|49=ALGOARBADR4|52=20150520-11:23:13.196|56=MDFHBLP|10=004|
20150520-11:23:28.514: 8=FIX.4.4|9=62|35=0|34=46|49=MDFHBLP|52=20150520-11:23:28.800|56=ALGOARBADR4|10=005|
20150520-11:24:11.830: 8=FIX.4.4|9=246|35=X|34=47|49=MDFHBLP|52=20150520-11:24:12.117|56=ALGOARBADR4|262=-6ebd1efab5e2b15e|268=3|279=1|269=0|55=CLP DTTC CURNCY|270=604.65|271=0|290=1|279=1|269=1|55=CLP DTTC CURNCY|270=605.19|271=0|290=1|279=1|269=5|55=CLP DTTC CURNCY|270=604.92|290=1|10=156|
20150520-11:24:11.831: 8=FIX.4.4|9=245|35=X|34=48|49=MDFHBLP|52=20150520-11:24:12.118|56=ALGOARBADR4|262=71010593cc924fc5|268=3|279=1|269=0|55=CLP DTTC CURNCY|270=604.65|271=0|290=1|279=1|269=1|55=CLP DTTC CURNCY|270=605.19|271=0|290=1|279=1|269=5|55=CLP DTTC CURNCY|270=604.92|290=1|10=084|
20150520-11:24:11.857: 8=FIX.4.4|9=245|35=X|34=49|49=MDFHBLP|52=20150520-11:24:12.144|56=ALGOARBADR4|262=71010593cc924fc5|268=3|279=1|269=0|55=CLP DTTC CURNCY|270=604.65|271=0|290=1|279=1|269=1|55=CLP DTTC CURNCY|270=605.19|271=0|290=1|279=1|269=5|55=CLP DTTC CURNCY|270=604.92|290=1|10=084|
20150520-11:24:11.858: 8=FIX.4.4|9=246|35=X|34=50|49=MDFHBLP|52=20150520-11:24:12.144|56=ALGOARBADR4|262=-6ebd1efab5e2b15e|268=3|279=1|269=0|55=CLP DTTC CURNCY|270=604.65|271=0|290=1|279=1|269=1|55=CLP DTTC CURNCY|270=605.19|271=0|290=1|279=1|269=5|55=CLP DTTC CURNCY|270=604.92|290=1|10=150|
20150520-11:24:13.197: 8=FIX.4.4|9=62|35=0|34=17|49=ALGOARBADR4|52=20150520-11:24:13.197|56=MDFHBLP|10=007|
20150520-11:25:12.518: 8=FIX.4.4|9=62|35=0|34=51|49=MDFHBLP|52=20150520-11:25:12.807|56=ALGOARBADR4|10=003|
20150520-11:25:14.196: 8=FIX.4.4|9=62|35=0|34=18|49=ALGOARBADR4|52=20150520-11:25:14.196|56=MDFHBLP|10=009|
20150520-11:26:12.520: 8=FIX.4.4|9=62|35=0|34=52|49=MDFHBLP|52=20150520-11:26:12.810|56=ALGOARBADR4|10=255|
20150520-11:26:14.197: 8=FIX.4.4|9=62|35=0|34=19|49=ALGOARBADR4|52=20150520-11:26:14.197|56=MDFHBLP|10=012|
20150520-11:26:41.448: 8=FIX.4.4|9=140|35=X|34=53|49=MDFHBLP|52=20150520-11:26:41.739|56=ALGOARBADR4|262=71010593cc924fc5|268=1|279=1|269=1|55=CLP DTTC CURNCY|270=605|271=0|290=1|10=180|
20150520-11:26:41.448: 8=FIX.4.4|9=141|35=X|34=54|49=MDFHBLP|52=20150520-11:26:41.739|56=ALGOARBADR4|262=-6ebd1efab5e2b15e|268=1|279=1|269=1|55=CLP DTTC CURNCY|270=605|271=0|290=1|10=255|
20150520-11:26:41.450: 8=FIX.4.4|9=137|35=X|34=55|49=MDFHBLP|52=20150520-11:26:41.741|56=ALGOARBADR4|262=71010593cc924fc5|268=1|279=1|269=5|55=CLP DTTC CURNCY|270=604.82|290=1|10=072|
20150520-11:26:41.451: 8=FIX.4.4|9=138|35=X|34=56|49=MDFHBLP|52=20150520-11:26:41.742|56=ALGOARBADR4|262=-6ebd1efab5e2b15e|268=1|279=1|269=5|55=CLP DTTC CURNCY|270=604.82|290=1|10=148|
20150520-11:27:14.197: 8=FIX.4.4|9=62|35=0|34=20|49=ALGOARBADR4|52=20150520-11:27:14.197|56=MDFHBLP|10=005|
20150520-11:27:28.510: 8=FIX.4.4|9=137|35=X|34=57|49=MDFHBLP|52=20150520-11:27:28.802|56=ALGOARBADR4|262=71010593cc924fc5|268=1|279=1|269=5|55=CLP DTTC CURNCY|270=604.85|290=1|10=081|
20150520-11:27:28.511: 8=FIX.4.4|9=138|35=X|34=58|49=MDFHBLP|52=20150520-11:27:28.803|56=ALGOARBADR4|262=-6ebd1efab5e2b15e|268=1|279=1|269=5|55=CLP DTTC CURNCY|270=604.85|290=1|10=157|
20150520-11:27:28.513: 8=FIX.4.4|9=142|35=X|34=59|49=MDFHBLP|52=20150520-11:27:28.805|56=ALGOARBADR4|262=71010593cc924fc5|268=1|279=1|269=0|55=CLP DTTC CURNCY|270=604.7|271=0|290=1|10=031|
20150520-11:27:28.513: 8=FIX.4.4|9=143|35=X|34=60|49=MDFHBLP|52=20150520-11:27:28.805|56=ALGOARBADR4|262=-6ebd1efab5e2b15e|268=1|279=1|269=0|55=CLP DTTC CURNCY|270=604.7|271=0|290=1|10=097|
20150520-11:27:47.400: 8=FIX.4.4|9=143|35=X|34=61|49=MDFHBLP|52=20150520-11:27:47.693|56=ALGOARBADR4|262=71010593cc924fc5|268=1|279=1|269=1|55=CLP DTTC CURNCY|270=605.15|271=0|290=1|10=080|
20150520-11:27:47.401: 8=FIX.4.4|9=144|35=X|34=62|49=MDFHBLP|52=20150520-11:27:47.694|56=ALGOARBADR4|262=-6ebd1efab5e2b15e|268=1|279=1|269=1|55=CLP DTTC CURNCY|270=605.15|271=0|290=1|10=156|
20150520-11:27:47.403: 8=FIX.4.4|9=137|35=X|34=63|49=MDFHBLP|52=20150520-11:27:47.695|56=ALGOARBADR4|262=71010593cc924fc5|268=1|279=1|269=5|55=CLP DTTC CURNCY|270=604.93|290=1|10=088|
20150520-11:27:47.403: 8=FIX.4.4|9=138|35=X|34=64|49=MDFHBLP|52=20150520-11:27:47.696|56=ALGOARBADR4|262=-6ebd1efab5e2b15e|268=1|279=1|269=5|55=CLP DTTC CURNCY|270=604.93|290=1|10=164|
20150520-11:28:15.197: 8=FIX.4.4|9=62|35=0|34=21|49=ALGOARBADR4|52=20150520-11:28:15.197|56=MDFHBLP|10=008|
20150520-11:28:47.526: 8=FIX.4.4|9=62|35=0|34=65|49=MDFHBLP|52=20150520-11:28:47.820|56=ALGOARBADR4|10=014|
20150520-11:29:16.197: 8=FIX.4.4|9=62|35=0|34=22|49=ALGOARBADR4|52=20150520-11:29:16.197|56=MDFHBLP|10=011|
20150520-11:29:47.528: 8=FIX.4.4|9=62|35=0|34=66|49=MDFHBLP|52=20150520-11:29:47.823|56=ALGOARBADR4|10=019|
20150520-11:30:16.197: 8=FIX.4.4|9=62|35=0|34=23|49=ALGOARBADR4|52=20150520-11:30:16.197|56=MDFHBLP|10=004|
20150520-11:30:47.530: 8=FIX.4.4|9=62|35=0|34=67|49=MDFHBLP|52=20150520-11:30:47.827|56=ALGOARBADR4|10=016|
20150520-11:30:54.140: 8=FIX.4.4|9=137|35=X|34=68|49=MDFHBLP|52=20150520-11:30:54.437|56=ALGOARBADR4|262=71010593cc924fc5|268=1|279=1|269=5|55=CLP DTTC CURNCY|270=605.07|290=1|10=075|
20150520-11:30:54.140: 8=FIX.4.4|9=138|35=X|34=69|49=MDFHBLP|52=20150520-11:30:54.438|56=ALGOARBADR4|262=-6ebd1efab5e2b15e|268=1|279=1|269=5|55=CLP DTTC CURNCY|270=605.07|290=1|10=151|
20150520-11:30:54.143: 8=FIX.4.4|9=140|35=X|34=70|49=MDFHBLP|52=20150520-11:30:54.441|56=ALGOARBADR4|262=71010593cc924fc5|268=1|279=1|269=0|55=CLP DTTC CURNCY|270=605|271=0|290=1|10=167|
20150520-11:30:54.144: 8=FIX.4.4|9=141|35=X|34=71|49=MDFHBLP|52=20150520-11:30:54.441|56=ALGOARBADR4|262=-6ebd1efab5e2b15e|268=1|279=1|269=0|55=CLP DTTC CURNCY|270=605|271=0|290=1|10=242|
20150520-11:31:01.114: 8=FIX.4.4|9=143|35=X|34=72|49=MDFHBLP|52=20150520-11:31:01.411|56=ALGOARBADR4|262=71010593cc924fc5|268=1|279=1|269=1|55=CLP DTTC CURNCY|270=605.19|271=0|290=1|10=059|
20150520-11:31:01.115: 8=FIX.4.4|9=144|35=X|34=73|49=MDFHBLP|52=20150520-11:31:01.411|56=ALGOARBADR4|262=-6ebd1efab5e2b15e|268=1|279=1|269=1|55=CLP DTTC CURNCY|270=605.19|271=0|290=1|10=134|
20150520-11:31:01.116: 8=FIX.4.4|9=137|35=X|34=74|49=MDFHBLP|52=20150520-11:31:01.413|56=ALGOARBADR4|262=71010593cc924fc5|268=1|279=1|269=5|55=CLP DTTC CURNCY|270=605.09|290=1|10=061|
20150520-11:31:01.117: 8=FIX.4.4|9=138|35=X|34=75|49=MDFHBLP|52=20150520-11:31:01.414|56=ALGOARBADR4|262=-6ebd1efab5e2b15e|268=1|279=1|269=5|55=CLP DTTC CURNCY|270=605.09|290=1|10=137|
20150520-11:31:11.760: 8=FIX.4.4|9=142|35=X|34=76|49=MDFHBLP|52=20150520-11:31:12.058|56=ALGOARBADR4|262=71010593cc924fc5|268=1|279=1|269=1|55=CLP DTTC CURNCY|270=605.2|271=0|290=1|10=015|
20150520-11:31:11.761: 8=FIX.4.4|9=143|35=X|34=77|49=MDFHBLP|52=20150520-11:31:12.058|56=ALGOARBADR4|262=-6ebd1efab5e2b15e|268=1|279=1|269=1|55=CLP DTTC CURNCY|270=605.2|271=0|290=1|10=090|
20150520-11:31:11.762: 8=FIX.4.4|9=137|35=X|34=78|49=MDFHBLP|52=20150520-11:31:12.059|56=ALGOARBADR4|262=-6ebd1efab5e2b15e|268=1|279=1|269=5|55=CLP DTTC CURNCY|270=605.1|290=1|10=090|
20150520-11:31:11.762: 8=FIX.4.4|9=136|35=X|34=79|49=MDFHBLP|52=20150520-11:31:12.060|56=ALGOARBADR4|262=71010593cc924fc5|268=1|279=1|269=5|55=CLP DTTC CURNCY|270=605.1|290=1|10=009|
20150520-11:31:15.048: 8=FIX.4.4|9=143|35=X|34=80|49=MDFHBLP|52=20150520-11:31:15.346|56=ALGOARBADR4|262=71010593cc924fc5|268=1|279=1|269=1|55=CLP DTTC CURNCY|270=605.45|271=0|290=1|10=069|
20150520-11:31:15.048: 8=FIX.4.4|9=144|35=X|34=81|49=MDFHBLP|52=20150520-11:31:15.346|56=ALGOARBADR4|262=-6ebd1efab5e2b15e|268=1|279=1|269=1|55=CLP DTTC CURNCY|270=605.45|271=0|290=1|10=144|
20150520-11:31:15.051: 8=FIX.4.4|9=137|35=X|34=82|49=MDFHBLP|52=20150520-11:31:15.349|56=ALGOARBADR4|262=71010593cc924fc5|268=1|279=1|269=5|55=CLP DTTC CURNCY|270=605.23|290=1|10=069|
20150520-11:31:15.051: 8=FIX.4.4|9=138|35=X|34=83|49=MDFHBLP|52=20150520-11:31:15.349|56=ALGOARBADR4|262=-6ebd1efab5e2b15e|268=1|279=1|269=5|55=CLP DTTC CURNCY|270=605.23|290=1|10=144|
20150520-11:31:17.196: 8=FIX.4.4|9=62|35=0|34=24|49=ALGOARBADR4|52=20150520-11:31:17.196|56=MDFHBLP|10=006|
20150520-11:31:29.043: 8=FIX.4.4|9=142|35=X|34=84|49=MDFHBLP|52=20150520-11:31:29.341|56=ALGOARBADR4|262=71010593cc924fc5|268=1|279=1|269=1|55=CLP DTTC CURNCY|270=605.4|271=0|290=1|10=019|
20150520-11:31:29.044: 8=FIX.4.4|9=143|35=X|34=85|49=MDFHBLP|52=20150520-11:31:29.342|56=ALGOARBADR4|262=-6ebd1efab5e2b15e|268=1|279=1|269=1|55=CLP DTTC CURNCY|270=605.4|271=0|290=1|10=095|
20150520-11:31:29.046: 8=FIX.4.4|9=136|35=X|34=86|49=MDFHBLP|52=20150520-11:31:29.343|56=ALGOARBADR4|262=71010593cc924fc5|268=1|279=1|269=5|55=CLP DTTC CURNCY|270=605.2|290=1|10=020|
20150520-11:31:29.046: 8=FIX.4.4|9=137|35=X|34=87|49=MDFHBLP|52=20150520-11:31:29.344|56=ALGOARBADR4|262=-6ebd1efab5e2b15e|268=1|279=1|269=5|55=CLP DTTC CURNCY|270=605.2|290=1|10=096|
20150520-11:31:39.806: 8=FIX.4.4|9=143|35=X|34=88|49=MDFHBLP|52=20150520-11:31:40.104|56=ALGOARBADR4|262=71010593cc924fc5|268=1|279=1|269=1|55=CLP DTTC CURNCY|270=605.65|271=0|290=1|10=069|
20150520-11:31:39.806: 8=FIX.4.4|9=144|35=X|34=89|49=MDFHBLP|52=20150520-11:31:40.105|56=ALGOARBADR4|262=-6ebd1efab5e2b15e|268=1|279=1|269=1|55=CLP DTTC CURNCY|270=605.65|271=0|290=1|10=145|
20150520-11:31:39.808: 8=FIX.4.4|9=137|35=X|34=90|49=MDFHBLP|52=20150520-11:31:40.106|56=ALGOARBADR4|262=71010593cc924fc5|268=1|279=1|269=5|55=CLP DTTC CURNCY|270=605.32|290=1|10=057|
20150520-11:31:39.809: 8=FIX.4.4|9=138|35=X|34=91|49=MDFHBLP|52=20150520-11:31:40.107|56=ALGOARBADR4|262=-6ebd1efab5e2b15e|268=1|279=1|269=5|55=CLP DTTC CURNCY|270=605.32|290=1|10=133|
20150520-11:31:41.308: 8=FIX.4.4|9=143|35=X|34=92|49=MDFHBLP|52=20150520-11:31:41.606|56=ALGOARBADR4|262=71010593cc924fc5|268=1|279=1|269=1|55=CLP DTTC CURNCY|270=605.37|271=0|290=1|10=071|
20150520-11:31:41.309: 8=FIX.4.4|9=144|35=X|34=93|49=MDFHBLP|52=20150520-11:31:41.607|56=ALGOARBADR4|262=-6ebd1efab5e2b15e|268=1|279=1|269=1|55=CLP DTTC CURNCY|270=605.37|271=0|290=1|10=147|
20150520-11:31:41.310: 8=FIX.4.4|9=137|35=X|34=94|49=MDFHBLP|52=20150520-11:31:41.609|56=ALGOARBADR4|262=71010593cc924fc5|268=1|279=1|269=5|55=CLP DTTC CURNCY|270=605.19|290=1|10=075|
20150520-11:31:41.311: 8=FIX.4.4|9=138|35=X|34=95|49=MDFHBLP|52=20150520-11:31:41.609|56=ALGOARBADR4|262=-6ebd1efab5e2b15e|268=1|279=1|269=5|55=CLP DTTC CURNCY|270=605.19|290=1|10=150|
20150520-11:31:45.964: 8=FIX.4.4|9=143|35=X|34=96|49=MDFHBLP|52=20150520-11:31:46.263|56=ALGOARBADR4|262=71010593cc924fc5|268=1|279=1|269=1|55=CLP DTTC CURNCY|270=605.37|271=0|290=1|10=079|
20150520-11:31:45.965: 8=FIX.4.4|9=144|35=X|34=97|49=MDFHBLP|52=20150520-11:31:46.264|56=ALGOARBADR4|262=-6ebd1efab5e2b15e|268=1|279=1|269=1|55=CLP DTTC CURNCY|270=605.37|271=0|290=1|10=155|
20150520-11:31:45.966: 8=FIX.4.4|9=137|35=X|34=98|49=MDFHBLP|52=20150520-11:31:46.265|56=ALGOARBADR4|262=71010593cc924fc5|268=1|279=1|269=5|55=CLP DTTC CURNCY|270=605.19|290=1|10=082|
20150520-11:31:45.967: 8=FIX.4.4|9=138|35=X|34=99|49=MDFHBLP|52=20150520-11:31:46.266|56=ALGOARBADR4|262=-6ebd1efab5e2b15e|268=1|279=1|269=5|55=CLP DTTC CURNCY|270=605.19|290=1|10=158|
20150520-11:31:45.969: 8=FIX.4.4|9=144|35=X|34=100|49=MDFHBLP|52=20150520-11:31:46.268|56=ALGOARBADR4|262=71010593cc924fc5|268=1|279=1|269=1|55=CLP DTTC CURNCY|270=605.37|271=0|290=1|10=119|
20150520-11:31:45.969: 8=FIX.4.4|9=145|35=X|34=101|49=MDFHBLP|52=20150520-11:31:46.268|56=ALGOARBADR4|262=-6ebd1efab5e2b15e|268=1|279=1|269=1|55=CLP DTTC CURNCY|270=605.37|271=0|290=1|10=194|
20150520-11:31:45.971: 8=FIX.4.4|9=138|35=X|34=102|49=MDFHBLP|52=20150520-11:31:46.270|56=ALGOARBADR4|262=71010593cc924fc5|268=1|279=1|269=5|55=CLP DTTC CURNCY|270=605.19|290=1|10=113|
20150520-11:31:45.972: 8=FIX.4.4|9=139|35=X|34=103|49=MDFHBLP|52=20150520-11:31:46.270|56=ALGOARBADR4|262=-6ebd1efab5e2b15e|268=1|279=1|269=5|55=CLP DTTC CURNCY|270=605.19|290=1|10=188|
20150520-11:31:52.423: 8=FIX.4.4|9=138|35=X|34=104|49=MDFHBLP|52=20150520-11:31:52.721|56=ALGOARBADR4|262=71010593cc924fc5|268=1|279=1|269=5|55=CLP DTTC CURNCY|270=605.21|290=1|10=106|
20150520-11:31:52.423: 8=FIX.4.4|9=139|35=X|34=105|49=MDFHBLP|52=20150520-11:31:52.722|56=ALGOARBADR4|262=-6ebd1efab5e2b15e|268=1|279=1|269=5|55=CLP DTTC CURNCY|270=605.21|290=1|10=182|
20150520-11:31:52.425: 8=FIX.4.4|9=144|35=X|34=106|49=MDFHBLP|52=20150520-11:31:52.723|56=ALGOARBADR4|262=71010593cc924fc5|268=1|279=1|269=0|55=CLP DTTC CURNCY|270=605.05|271=0|290=1|10=112|
20150520-11:31:52.428: 8=FIX.4.4|9=145|35=X|34=107|49=MDFHBLP|52=20150520-11:31:52.724|56=ALGOARBADR4|262=-6ebd1efab5e2b15e|268=1|279=1|269=0|55=CLP DTTC CURNCY|270=605.05|271=0|290=1|10=188|
20150520-11:32:15.391: 8=FIX.4.4|9=141|35=X|34=108|49=MDFHBLP|52=20150520-11:32:15.690|56=ALGOARBADR4|262=71010593cc924fc5|268=1|279=1|269=0|55=CLP DTTC CURNCY|270=605|271=0|290=1|10=223|
20150520-11:32:15.391: 8=FIX.4.4|9=142|35=X|34=109|49=MDFHBLP|52=20150520-11:32:15.691|56=ALGOARBADR4|262=-6ebd1efab5e2b15e|268=1|279=1|269=0|55=CLP DTTC CURNCY|270=605|271=0|290=1|10=043|
20150520-11:32:15.392: 8=FIX.4.4|9=138|35=X|34=110|49=MDFHBLP|52=20150520-11:32:15.692|56=ALGOARBADR4|262=71010593cc924fc5|268=1|279=1|269=5|55=CLP DTTC CURNCY|270=605.19|290=1|10=117|
20150520-11:32:15.392: 8=FIX.4.4|9=139|35=X|34=111|49=MDFHBLP|52=20150520-11:32:15.692|56=ALGOARBADR4|262=-6ebd1efab5e2b15e|268=1|279=1|269=5|55=CLP DTTC CURNCY|270=605.19|290=1|10=192|
20150520-11:32:17.197: 8=FIX.4.4|9=62|35=0|34=25|49=ALGOARBADR4|52=20150520-11:32:17.197|56=MDFHBLP|10=009|
20150520-11:32:19.827: 8=FIX.4.4|9=144|35=X|34=112|49=MDFHBLP|52=20150520-11:32:20.126|56=ALGOARBADR4|262=71010593cc924fc5|268=1|279=1|269=0|55=CLP DTTC CURNCY|270=605.01|271=0|290=1|10=098|
20150520-11:32:19.827: 8=FIX.4.4|9=145|35=X|34=113|49=MDFHBLP|52=20150520-11:32:20.127|56=ALGOARBADR4|262=-6ebd1efab5e2b15e|268=1|279=1|269=0|55=CLP DTTC CURNCY|270=605.01|271=0|290=1|10=174|
20150520-11:32:19.829: 8=FIX.4.4|9=138|35=X|34=114|49=MDFHBLP|52=20150520-11:32:20.128|56=ALGOARBADR4|262=71010593cc924fc5|268=1|279=1|269=5|55=CLP DTTC CURNCY|270=605.19|290=1|10=111|
20150520-11:32:19.830: 8=FIX.4.4|9=139|35=X|34=115|49=MDFHBLP|52=20150520-11:32:20.129|56=ALGOARBADR4|262=-6ebd1efab5e2b15e|268=1|279=1|269=5|55=CLP DTTC CURNCY|270=605.19|290=1|10=187|
20150520-11:32:24.716: 8=FIX.4.4|9=144|35=X|34=116|49=MDFHBLP|52=20150520-11:32:25.016|56=ALGOARBADR4|262=71010593cc924fc5|268=1|279=1|269=0|55=CLP DTTC CURNCY|270=605.05|271=0|290=1|10=109|
20150520-11:32:24.717: 8=FIX.4.4|9=145|35=X|34=117|49=MDFHBLP|52=20150520-11:32:25.016|56=ALGOARBADR4|262=-6ebd1efab5e2b15e|268=1|279=1|269=0|55=CLP DTTC CURNCY|270=605.05|271=0|290=1|10=184|
20150520-11:32:24.719: 8=FIX.4.4|9=138|35=X|34=118|49=MDFHBLP|52=20150520-11:32:25.018|56=ALGOARBADR4|262=71010593cc924fc5|268=1|279=1|269=5|55=CLP DTTC CURNCY|270=605.21|290=1|10=111|
20150520-11:32:24.719: 8=FIX.4.4|9=139|35=X|34=119|49=MDFHBLP|52=20150520-11:32:25.019|56=ALGOARBADR4|262=-6ebd1efab5e2b15e|268=1|279=1|269=5|55=CLP DTTC CURNCY|270=605.21|290=1|10=187|
20150520-11:32:29.203: 8=FIX.4.4|9=138|35=X|34=120|49=MDFHBLP|52=20150520-11:32:29.503|56=ALGOARBADR4|262=71010593cc924fc5|268=1|279=1|269=5|55=CLP DTTC CURNCY|270=605.24|290=1|10=110|
20150520-11:32:29.204: 8=FIX.4.4|9=139|35=X|34=121|49=MDFHBLP|52=20150520-11:32:29.503|56=ALGOARBADR4|262=-6ebd1efab5e2b15e|268=1|279=1|269=5|55=CLP DTTC CURNCY|270=605.24|290=1|10=185|
20150520-11:32:29.206: 8=FIX.4.4|9=143|35=X|34=122|49=MDFHBLP|52=20150520-11:32:29.506|56=ALGOARBADR4|262=71010593cc924fc5|268=1|279=1|269=0|55=CLP DTTC CURNCY|270=605.1|271=0|290=1|10=061|
20150520-11:32:29.207: 8=FIX.4.4|9=144|35=X|34=123|49=MDFHBLP|52=20150520-11:32:29.506|56=ALGOARBADR4|262=-6ebd1efab5e2b15e|268=1|279=1|269=0|55=CLP DTTC CURNCY|270=605.1|271=0|290=1|10=136|
20150520-11:33:17.197: 8=FIX.4.4|9=62|35=0|34=26|49=ALGOARBADR4|52=20150520-11:33:17.197|56=MDFHBLP|10=011|
20150520-11:33:29.536: 8=FIX.4.4|9=63|35=0|34=124|49=MDFHBLP|52=20150520-11:33:29.837|56=ALGOARBADR4|10=063|
20150520-11:34:12.910: 8=FIX.4.4|9=138|35=X|34=125|49=MDFHBLP|52=20150520-11:34:13.212|56=ALGOARBADR4|262=71010593cc924fc5|268=1|279=1|269=5|55=CLP DTTC CURNCY|270=605.29|290=1|10=112|
20150520-11:34:12.911: 8=FIX.4.4|9=139|35=X|34=126|49=MDFHBLP|52=20150520-11:34:13.213|56=ALGOARBADR4|262=-6ebd1efab5e2b15e|268=1|279=1|269=5|55=CLP DTTC CURNCY|270=605.29|290=1|10=188|
20150520-11:34:12.913: 8=FIX.4.4|9=143|35=X|34=127|49=MDFHBLP|52=20150520-11:34:13.214|56=ALGOARBADR4|262=71010593cc924fc5|268=1|279=1|269=0|55=CLP DTTC CURNCY|270=605.2|271=0|290=1|10=058|
20150520-11:34:12.913: 8=FIX.4.4|9=144|35=X|34=128|49=MDFHBLP|52=20150520-11:34:13.215|56=ALGOARBADR4|262=-6ebd1efab5e2b15e|268=1|279=1|269=0|55=CLP DTTC CURNCY|270=605.2|271=0|290=1|10=134|
20150520-11:34:18.197: 8=FIX.4.4|9=62|35=0|34=27|49=ALGOARBADR4|52=20150520-11:34:18.197|56=MDFHBLP|10=014|
20150520-11:35:13.539: 8=FIX.4.4|9=63|35=0|34=129|49=MDFHBLP|52=20150520-11:35:13.842|56=ALGOARBADR4|10=059|
20150520-11:35:18.197: 8=FIX.4.4|9=62|35=0|34=28|49=ALGOARBADR4|52=20150520-11:35:18.197|56=MDFHBLP|10=016|
20150520-11:35:47.748: 8=FIX.4.4|9=143|35=X|34=130|49=MDFHBLP|52=20150520-11:35:48.053|56=ALGOARBADR4|262=71010593cc924fc5|268=1|279=1|269=1|55=CLP DTTC CURNCY|270=605.5|271=0|290=1|10=066|
20150520-11:35:47.749: 8=FIX.4.4|9=144|35=X|34=131|49=MDFHBLP|52=20150520-11:35:48.054|56=ALGOARBADR4|262=-6ebd1efab5e2b15e|268=1|279=1|269=1|55=CLP DTTC CURNCY|270=605.5|271=0|290=1|10=142|
20150520-11:35:47.750: 8=FIX.4.4|9=138|35=X|34=132|49=MDFHBLP|52=20150520-11:35:48.055|56=ALGOARBADR4|262=71010593cc924fc5|268=1|279=1|269=5|55=CLP DTTC CURNCY|270=605.35|290=1|10=121|
20150520-11:35:47.750: 8=FIX.4.4|9=139|35=X|34=133|49=MDFHBLP|52=20150520-11:35:48.055|56=ALGOARBADR4|262=-6ebd1efab5e2b15e|268=1|279=1|269=5|55=CLP DTTC CURNCY|270=605.35|290=1|10=196|
20150520-11:35:47.896: 8=FIX.4.4|9=143|35=X|34=134|49=MDFHBLP|52=20150520-11:35:48.201|56=ALGOARBADR4|262=71010593cc924fc5|268=1|279=1|269=1|55=CLP DTTC CURNCY|270=605.7|271=0|290=1|10=067|
20150520-11:35:47.897: 8=FIX.4.4|9=144|35=X|34=135|49=MDFHBLP|52=20150520-11:35:48.201|56=ALGOARBADR4|262=-6ebd1efab5e2b15e|268=1|279=1|269=1|55=CLP DTTC CURNCY|270=605.7|271=0|290=1|10=142|
20150520-11:35:47.899: 8=FIX.4.4|9=138|35=X|34=136|49=MDFHBLP|52=20150520-11:35:48.203|56=ALGOARBADR4|262=71010593cc924fc5|268=1|279=1|269=5|55=CLP DTTC CURNCY|270=605.45|290=1|10=121|
20150520-11:35:47.899: 8=FIX.4.4|9=139|35=X|34=137|49=MDFHBLP|52=20150520-11:35:48.204|56=ALGOARBADR4|262=-6ebd1efab5e2b15e|268=1|279=1|269=5|55=CLP DTTC CURNCY|270=605.45|290=1|10=197|
20150520-11:35:56.406: 8=FIX.4.4|9=143|35=X|34=138|49=MDFHBLP|52=20150520-11:35:56.711|56=ALGOARBADR4|262=71010593cc924fc5|268=1|279=1|269=0|55=CLP DTTC CURNCY|270=605.4|271=0|290=1|10=072|
20150520-11:35:56.407: 8=FIX.4.4|9=144|35=X|34=139|49=MDFHBLP|52=20150520-11:35:56.712|56=ALGOARBADR4|262=-6ebd1efab5e2b15e|268=1|279=1|269=0|55=CLP DTTC CURNCY|270=605.4|271=0|290=1|10=148|
20150520-11:35:56.408: 8=FIX.4.4|9=138|35=X|34=140|49=MDFHBLP|52=20150520-11:35:56.713|56=ALGOARBADR4|262=71010593cc924fc5|268=1|279=1|269=5|55=CLP DTTC CURNCY|270=605.55|290=1|10=122|
20150520-11:35:56.409: 8=FIX.4.4|9=139|35=X|34=141|49=MDFHBLP|52=20150520-11:35:56.714|56=ALGOARBADR4|262=-6ebd1efab5e2b15e|268=1|279=1|269=5|55=CLP DTTC CURNCY|270=605.55|290=1|10=198|
20150520-11:36:01.312: 8=FIX.4.4|9=144|35=X|34=142|49=MDFHBLP|52=20150520-11:36:01.616|56=ALGOARBADR4|262=71010593cc924fc5|268=1|279=1|269=1|55=CLP DTTC CURNCY|270=605.69|271=0|290=1|10=123|
20150520-11:36:01.312: 8=FIX.4.4|9=145|35=X|34=143|49=MDFHBLP|52=20150520-11:36:01.617|56=ALGOARBADR4|262=-6ebd1efab5e2b15e|268=1|279=1|269=1|55=CLP DTTC CURNCY|270=605.69|271=0|290=1|10=199|
20150520-11:36:01.313: 8=FIX.4.4|9=138|35=X|34=144|49=MDFHBLP|52=20150520-11:36:01.618|56=ALGOARBADR4|262=71010593cc924fc5|268=1|279=1|269=5|55=CLP DTTC CURNCY|270=605.55|290=1|10=121|
20150520-11:36:01.314: 8=FIX.4.4|9=139|35=X|34=145|49=MDFHBLP|52=20150520-11:36:01.619|56=ALGOARBADR4|262=-6ebd1efab5e2b15e|268=1|279=1|269=5|55=CLP DTTC CURNCY|270=605.55|290=1|10=197|
20150520-11:36:19.196: 8=FIX.4.4|9=62|35=0|34=29|49=ALGOARBADR4|52=20150520-11:36:19.196|56=MDFHBLP|10=018|
20150520-11:36:27.773: 8=FIX.4.4|9=143|35=X|34=146|49=MDFHBLP|52=20150520-11:36:28.077|56=ALGOARBADR4|262=71010593cc924fc5|268=1|279=1|269=1|55=CLP DTTC CURNCY|270=605.5|271=0|290=1|10=078|
20150520-11:36:27.773: 8=FIX.4.4|9=144|35=X|34=147|49=MDFHBLP|52=20150520-11:36:28.079|56=ALGOARBADR4|262=-6ebd1efab5e2b15e|268=1|279=1|269=1|55=CLP DTTC CURNCY|270=605.5|271=0|290=1|10=155|
20150520-11:36:27.776: 8=FIX.4.4|9=143|35=X|34=148|49=MDFHBLP|52=20150520-11:36:28.081|56=ALGOARBADR4|262=71010593cc924fc5|268=1|279=1|269=1|55=CLP DTTC CURNCY|270=605.5|271=0|290=1|10=075|
20150520-11:36:27.776: 8=FIX.4.4|9=144|35=X|34=149|49=MDFHBLP|52=20150520-11:36:28.082|56=ALGOARBADR4|262=-6ebd1efab5e2b15e|268=1|279=1|269=1|55=CLP DTTC CURNCY|270=605.5|271=0|290=1|10=151|
20150520-11:36:27.778: 8=FIX.4.4|9=138|35=X|34=150|49=MDFHBLP|52=20150520-11:36:28.084|56=ALGOARBADR4|262=71010593cc924fc5|268=1|279=1|269=5|55=CLP DTTC CURNCY|270=605.55|290=1|10=124|
20150520-11:36:27.779: 8=FIX.4.4|9=139|35=X|34=151|49=MDFHBLP|52=20150520-11:36:28.084|56=ALGOARBADR4|262=-6ebd1efab5e2b15e|268=1|279=1|269=5|55=CLP DTTC CURNCY|270=605.55|290=1|10=199|
20150520-11:36:27.782: 8=FIX.4.4|9=138|35=X|34=152|49=MDFHBLP|52=20150520-11:36:28.087|56=ALGOARBADR4|262=71010593cc924fc5|268=1|279=1|269=5|55=CLP DTTC CURNCY|270=605.45|290=1|10=128|
20150520-11:36:27.783: 8=FIX.4.4|9=139|35=X|34=153|49=MDFHBLP|52=20150520-11:36:28.088|56=ALGOARBADR4|262=-6ebd1efab5e2b15e|268=1|279=1|269=5|55=CLP DTTC CURNCY|270=605.45|290=1|10=204|
20150520-11:36:29.657: 8=FIX.4.4|9=144|35=X|34=154|49=MDFHBLP|52=20150520-11:36:29.963|56=ALGOARBADR4|262=71010593cc924fc5|268=1|279=1|269=0|55=CLP DTTC CURNCY|270=605.11|271=0|290=1|10=127|
20150520-11:36:29.658: 8=FIX.4.4|9=145|35=X|34=155|49=MDFHBLP|52=20150520-11:36:29.964|56=ALGOARBADR4|262=-6ebd1efab5e2b15e|268=1|279=1|269=0|55=CLP DTTC CURNCY|270=605.11|271=0|290=1|10=203|
20150520-11:36:29.659: 8=FIX.4.4|9=137|35=X|34=156|49=MDFHBLP|52=20150520-11:36:29.965|56=ALGOARBADR4|262=71010593cc924fc5|268=1|279=1|269=5|55=CLP DTTC CURNCY|270=605.3|290=1|10=083|
20150520-11:36:29.660: 8=FIX.4.4|9=138|35=X|34=157|49=MDFHBLP|52=20150520-11:36:29.966|56=ALGOARBADR4|262=-6ebd1efab5e2b15e|268=1|279=1|269=5|55=CLP DTTC CURNCY|270=605.3|290=1|10=159|
20150520-11:36:33.117: 8=FIX.4.4|9=144|35=X|34=158|49=MDFHBLP|52=20150520-11:36:33.422|56=ALGOARBADR4|262=71010593cc924fc5|268=1|279=1|269=0|55=CLP DTTC CURNCY|270=605.05|271=0|290=1|10=119|
20150520-11:36:33.117: 8=FIX.4.4|9=145|35=X|34=159|49=MDFHBLP|52=20150520-11:36:33.423|56=ALGOARBADR4|262=-6ebd1efab5e2b15e|268=1|279=1|269=0|55=CLP DTTC CURNCY|270=605.05|271=0|290=1|10=195|
20150520-11:36:33.119: 8=FIX.4.4|9=138|35=X|34=160|49=MDFHBLP|52=20150520-11:36:33.425|56=ALGOARBADR4|262=71010593cc924fc5|268=1|279=1|269=5|55=CLP DTTC CURNCY|270=605.28|290=1|10=120|
20150520-11:36:33.120: 8=FIX.4.4|9=139|35=X|34=161|49=MDFHBLP|52=20150520-11:36:33.425|56=ALGOARBADR4|262=-6ebd1efab5e2b15e|268=1|279=1|269=5|55=CLP DTTC CURNCY|270=605.28|290=1|10=195|
20150520-11:36:35.847: 8=FIX.4.4|9=143|35=X|34=162|49=MDFHBLP|52=20150520-11:36:36.152|56=ALGOARBADR4|262=71010593cc924fc5|268=1|279=1|269=0|55=CLP DTTC CURNCY|270=605.1|271=0|290=1|10=064|
20150520-11:36:35.847: 8=FIX.4.4|9=144|35=X|34=163|49=MDFHBLP|52=20150520-11:36:36.153|56=ALGOARBADR4|262=-6ebd1efab5e2b15e|268=1|279=1|269=0|55=CLP DTTC CURNCY|270=605.1|271=0|290=1|10=140|
20150520-11:36:35.849: 8=FIX.4.4|9=138|35=X|34=164|49=MDFHBLP|52=20150520-11:36:36.155|56=ALGOARBADR4|262=71010593cc924fc5|268=1|279=1|269=5|55=CLP DTTC CURNCY|270=605.28|290=1|10=127|
20150520-11:36:35.850: 8=FIX.4.4|9=139|35=X|34=165|49=MDFHBLP|52=20150520-11:36:36.156|56=ALGOARBADR4|262=-6ebd1efab5e2b15e|268=1|279=1|269=5|55=CLP DTTC CURNCY|270=605.28|290=1|10=203|
20150520-11:36:35.851: 8=FIX.4.4|9=144|35=X|34=166|49=MDFHBLP|52=20150520-11:36:36.157|56=ALGOARBADR4|262=71010593cc924fc5|268=1|279=1|269=1|55=CLP DTTC CURNCY|270=605.45|271=0|290=1|10=131|
20150520-11:36:35.852: 8=FIX.4.4|9=145|35=X|34=167|49=MDFHBLP|52=20150520-11:36:36.158|56=ALGOARBADR4|262=-6ebd1efab5e2b15e|268=1|279=1|269=1|55=CLP DTTC CURNCY|270=605.45|271=0|290=1|10=207|
20150520-11:36:35.853: 8=FIX.4.4|9=138|35=X|34=168|49=MDFHBLP|52=20150520-11:36:36.160|56=ALGOARBADR4|262=71010593cc924fc5|268=1|279=1|269=5|55=CLP DTTC CURNCY|270=605.28|290=1|10=127|
20150520-11:36:35.854: 8=FIX.4.4|9=139|35=X|34=169|49=MDFHBLP|52=20150520-11:36:36.160|56=ALGOARBADR4|262=-6ebd1efab5e2b15e|268=1|279=1|269=5|55=CLP DTTC CURNCY|270=605.28|290=1|10=202|
20150520-11:36:54.033: 8=FIX.4.4|9=143|35=X|34=170|49=MDFHBLP|52=20150520-11:36:54.340|56=ALGOARBADR4|262=71010593cc924fc5|268=1|279=1|269=0|55=CLP DTTC CURNCY|270=605.2|271=0|290=1|10=063|
20150520-11:36:54.033: 8=FIX.4.4|9=144|35=X|34=171|49=MDFHBLP|52=20150520-11:36:54.340|56=ALGOARBADR4|262=-6ebd1efab5e2b15e|268=1|279=1|269=0|55=CLP DTTC CURNCY|270=605.2|271=0|290=1|10=138|
20150520-11:36:54.035: 8=FIX.4.4|9=138|35=X|34=172|49=MDFHBLP|52=20150520-11:36:54.342|56=ALGOARBADR4|262=71010593cc924fc5|268=1|279=1|269=5|55=CLP DTTC CURNCY|270=605.32|290=1|10=119|
20150520-11:36:54.036: 8=FIX.4.4|9=139|35=X|34=173|49=MDFHBLP|52=20150520-11:36:54.342|56=ALGOARBADR4|262=-6ebd1efab5e2b15e|268=1|279=1|269=5|55=CLP DTTC CURNCY|270=605.32|290=1|10=194|
20150520-11:37:19.197: 8=FIX.4.4|9=62|35=0|34=30|49=ALGOARBADR4|52=20150520-11:37:19.197|56=MDFHBLP|10=012|
20150520-11:37:38.516: 8=FIX.4.4|9=143|35=X|34=174|49=MDFHBLP|52=20150520-11:37:38.824|56=ALGOARBADR4|262=71010593cc924fc5|268=1|279=1|269=0|55=CLP DTTC CURNCY|270=605.3|271=0|290=1|10=078|
20150520-11:37:38.517: 8=FIX.4.4|9=144|35=X|34=175|49=MDFHBLP|52=20150520-11:37:38.824|56=ALGOARBADR4|262=-6ebd1efab5e2b15e|268=1|279=1|269=0|55=CLP DTTC CURNCY|270=605.3|271=0|290=1|10=153|
20150520-11:37:38.519: 8=FIX.4.4|9=138|35=X|34=176|49=MDFHBLP|52=20150520-11:37:38.826|56=ALGOARBADR4|262=71010593cc924fc5|268=1|279=1|269=5|55=CLP DTTC CURNCY|270=605.38|290=1|10=139|
20150520-11:37:38.519: 8=FIX.4.4|9=139|35=X|34=177|49=MDFHBLP|52=20150520-11:37:38.827|56=ALGOARBADR4|262=-6ebd1efab5e2b15e|268=1|279=1|269=5|55=CLP DTTC CURNCY|270=605.38|290=1|10=215|
20150520-11:37:41.005: 8=FIX.4.4|9=143|35=X|34=178|49=MDFHBLP|52=20150520-11:37:41.312|56=ALGOARBADR4|262=71010593cc924fc5|268=1|279=1|269=0|55=CLP DTTC CURNCY|270=605.2|271=0|290=1|10=067|
20150520-11:37:41.005: 8=FIX.4.4|9=144|35=X|34=179|49=MDFHBLP|52=20150520-11:37:41.312|56=ALGOARBADR4|262=-6ebd1efab5e2b15e|268=1|279=1|269=0|55=CLP DTTC CURNCY|270=605.2|271=0|290=1|10=142|
20150520-11:37:41.006: 8=FIX.4.4|9=138|35=X|34=180|49=MDFHBLP|52=20150520-11:37:41.314|56=ALGOARBADR4|262=71010593cc924fc5|268=1|279=1|269=5|55=CLP DTTC CURNCY|270=605.32|290=1|10=114|
20150520-11:37:41.007: 8=FIX.4.4|9=139|35=X|34=181|49=MDFHBLP|52=20150520-11:37:41.314|56=ALGOARBADR4|262=-6ebd1efab5e2b15e|268=1|279=1|269=5|55=CLP DTTC CURNCY|270=605.32|290=1|10=189|
20150520-11:38:17.204: 8=FIX.4.4|9=144|35=X|34=182|49=MDFHBLP|52=20150520-11:38:17.513|56=ALGOARBADR4|262=71010593cc924fc5|268=1|279=1|269=1|55=CLP DTTC CURNCY|270=605.42|271=0|290=1|10=123|
20150520-11:38:17.205: 8=FIX.4.4|9=145|35=X|34=183|49=MDFHBLP|52=20150520-11:38:17.514|56=ALGOARBADR4|262=-6ebd1efab5e2b15e|268=1|279=1|269=1|55=CLP DTTC CURNCY|270=605.42|271=0|290=1|10=199|
20150520-11:38:17.206: 8=FIX.4.4|9=138|35=X|34=184|49=MDFHBLP|52=20150520-11:38:17.515|56=ALGOARBADR4|262=71010593cc924fc5|268=1|279=1|269=5|55=CLP DTTC CURNCY|270=605.31|290=1|10=124|
20150520-11:38:17.207: 8=FIX.4.4|9=139|35=X|34=185|49=MDFHBLP|52=20150520-11:38:17.515|56=ALGOARBADR4|262=-6ebd1efab5e2b15e|268=1|279=1|269=5|55=CLP DTTC CURNCY|270=605.31|290=1|10=199|
20150520-11:38:20.196: 8=FIX.4.4|9=62|35=0|34=31|49=ALGOARBADR4|52=20150520-11:38:20.196|56=MDFHBLP|10=005|
20150520-11:38:54.626: 8=FIX.4.4|9=144|35=X|34=186|49=MDFHBLP|52=20150520-11:38:54.936|56=ALGOARBADR4|262=71010593cc924fc5|268=1|279=1|269=0|55=CLP DTTC CURNCY|270=605.21|271=0|290=1|10=133|
20150520-11:38:54.627: 8=FIX.4.4|9=145|35=X|34=187|49=MDFHBLP|52=20150520-11:38:54.937|56=ALGOARBADR4|262=-6ebd1efab5e2b15e|268=1|279=1|269=0|55=CLP DTTC CURNCY|270=605.21|271=0|290=1|10=209|
20150520-11:38:54.629: 8=FIX.4.4|9=138|35=X|34=188|49=MDFHBLP|52=20150520-11:38:54.939|56=ALGOARBADR4|262=71010593cc924fc5|268=1|279=1|269=5|55=CLP DTTC CURNCY|270=605.31|290=1|10=139|
20150520-11:38:54.630: 8=FIX.4.4|9=139|35=X|34=189|49=MDFHBLP|52=20150520-11:38:54.940|56=ALGOARBADR4|262=-6ebd1efab5e2b15e|268=1|279=1|269=5|55=CLP DTTC CURNCY|270=605.31|290=1|10=206|
20150520-11:39:20.196: 8=FIX.4.4|9=62|35=0|34=32|49=ALGOARBADR4|52=20150520-11:39:20.196|56=MDFHBLP|10=007|
20150520-11:39:55.549: 8=FIX.4.4|9=63|35=0|34=190|49=MDFHBLP|52=20150520-11:39:55.860|56=ALGOARBADR4|10=067|
20150520-11:40:20.196: 8=FIX.4.4|9=62|35=0|34=33|49=ALGOARBADR4|52=20150520-11:40:20.196|56=MDFHBLP|10=000|
20150520-11:40:40.711: 8=FIX.4.4|9=143|35=X|34=191|49=MDFHBLP|52=20150520-11:40:41.023|56=ALGOARBADR4|262=71010593cc924fc5|268=1|279=1|269=0|55=CLP DTTC CURNCY|270=605.2|271=0|290=1|10=055|
20150520-11:40:40.711: 8=FIX.4.4|9=144|35=X|34=192|49=MDFHBLP|52=20150520-11:40:41.023|56=ALGOARBADR4|262=-6ebd1efab5e2b15e|268=1|279=1|269=0|55=CLP DTTC CURNCY|270=605.2|271=0|290=1|10=130|
20150520-11:40:40.713: 8=FIX.4.4|9=138|35=X|34=193|49=MDFHBLP|52=20150520-11:40:41.025|56=ALGOARBADR4|262=71010593cc924fc5|268=1|279=1|269=5|55=CLP DTTC CURNCY|270=605.31|290=1|10=110|
20150520-11:40:40.713: 8=FIX.4.4|9=139|35=X|34=194|49=MDFHBLP|52=20150520-11:40:41.025|56=ALGOARBADR4|262=-6ebd1efab5e2b15e|268=1|279=1|269=5|55=CLP DTTC CURNCY|270=605.31|290=1|10=185|
20150520-11:40:41.018: 8=FIX.4.4|9=143|35=X|34=195|49=MDFHBLP|52=20150520-11:40:41.329|56=ALGOARBADR4|262=71010593cc924fc5|268=1|279=1|269=0|55=CLP DTTC CURNCY|270=605.1|271=0|290=1|10=067|
20150520-11:40:41.018: 8=FIX.4.4|9=144|35=X|34=196|49=MDFHBLP|52=20150520-11:40:41.330|56=ALGOARBADR4|262=-6ebd1efab5e2b15e|268=1|279=1|269=0|55=CLP DTTC CURNCY|270=605.1|271=0|290=1|10=134|
20150520-11:40:41.020: 8=FIX.4.4|9=138|35=X|34=197|49=MDFHBLP|52=20150520-11:40:41.332|56=ALGOARBADR4|262=71010593cc924fc5|268=1|279=1|269=5|55=CLP DTTC CURNCY|270=605.26|290=1|10=119|
20150520-11:40:41.020: 8=FIX.4.4|9=139|35=X|34=198|49=MDFHBLP|52=20150520-11:40:41.332|56=ALGOARBADR4|262=-6ebd1efab5e2b15e|268=1|279=1|269=5|55=CLP DTTC CURNCY|270=605.26|290=1|10=194|
20150520-11:40:46.937: 8=FIX.4.4|9=143|35=X|34=199|49=MDFHBLP|52=20150520-11:40:47.249|56=ALGOARBADR4|262=71010593cc924fc5|268=1|279=1|269=1|55=CLP DTTC CURNCY|270=605.3|271=0|290=1|10=081|
20150520-11:40:46.937: 8=FIX.4.4|9=144|35=X|34=200|49=MDFHBLP|52=20150520-11:40:47.250|56=ALGOARBADR4|262=-6ebd1efab5e2b15e|268=1|279=1|269=1|55=CLP DTTC CURNCY|270=605.3|271=0|290=1|10=130|
20150520-11:40:46.938: 8=FIX.4.4|9=137|35=X|34=201|49=MDFHBLP|52=20150520-11:40:47.251|56=ALGOARBADR4|262=71010593cc924fc5|268=1|279=1|269=5|55=CLP DTTC CURNCY|270=605.2|290=1|10=056|
20150520-11:40:46.939: 8=FIX.4.4|9=138|35=X|34=202|49=MDFHBLP|52=20150520-11:40:47.251|56=ALGOARBADR4|262=-6ebd1efab5e2b15e|268=1|279=1|269=5|55=CLP DTTC CURNCY|270=605.2|290=1|10=131|
20150520-11:41:20.197: 8=FIX.4.4|9=62|35=0|34=34|49=ALGOARBADR4|52=20150520-11:41:20.197|56=MDFHBLP|10=003|
20150520-11:41:30.628: 8=FIX.4.4|9=143|35=X|34=203|49=MDFHBLP|52=20150520-11:41:30.940|56=ALGOARBADR4|262=71010593cc924fc5|268=1|279=1|269=1|55=CLP DTTC CURNCY|270=605.2|271=0|290=1|10=057|
20150520-11:41:30.628: 8=FIX.4.4|9=144|35=X|34=204|49=MDFHBLP|52=20150520-11:41:30.941|56=ALGOARBADR4|262=-6ebd1efab5e2b15e|268=1|279=1|269=1|55=CLP DTTC CURNCY|270=605.2|271=0|290=1|10=133|
20150520-11:41:30.630: 8=FIX.4.4|9=138|35=X|34=205|49=MDFHBLP|52=20150520-11:41:30.942|56=ALGOARBADR4|262=71010593cc924fc5|268=1|279=1|269=5|55=CLP DTTC CURNCY|270=605.15|290=1|10=113|
20150520-11:41:30.630: 8=FIX.4.4|9=139|35=X|34=206|49=MDFHBLP|52=20150520-11:41:30.943|56=ALGOARBADR4|262=-6ebd1efab5e2b15e|268=1|279=1|269=5|55=CLP DTTC CURNCY|270=605.15|290=1|10=189|
20150520-11:41:35.936: 8=FIX.4.4|9=143|35=X|34=207|49=MDFHBLP|52=20150520-11:41:36.250|56=ALGOARBADR4|262=71010593cc924fc5|268=1|279=1|269=1|55=CLP DTTC CURNCY|270=605.4|271=0|290=1|10=063|
20150520-11:41:35.937: 8=FIX.4.4|9=144|35=X|34=208|49=MDFHBLP|52=20150520-11:41:36.250|56=ALGOARBADR4|262=-6ebd1efab5e2b15e|268=1|279=1|269=1|55=CLP DTTC CURNCY|270=605.4|271=0|290=1|10=138|
20150520-11:41:35.938: 8=FIX.4.4|9=138|35=X|34=209|49=MDFHBLP|52=20150520-11:41:36.252|56=ALGOARBADR4|262=71010593cc924fc5|268=1|279=1|269=5|55=CLP DTTC CURNCY|270=605.25|290=1|10=118|
20150520-11:41:35.939: 8=FIX.4.4|9=139|35=X|34=210|49=MDFHBLP|52=20150520-11:41:36.252|56=ALGOARBADR4|262=-6ebd1efab5e2b15e|268=1|279=1|269=5|55=CLP DTTC CURNCY|270=605.25|290=1|10=184|
20150520-11:41:38.146: 8=FIX.4.4|9=143|35=X|34=211|49=MDFHBLP|52=20150520-11:41:38.460|56=ALGOARBADR4|262=71010593cc924fc5|268=1|279=1|269=1|55=CLP DTTC CURNCY|270=605.2|271=0|290=1|10=061|
20150520-11:41:38.147: 8=FIX.4.4|9=144|35=X|34=212|49=MDFHBLP|52=20150520-11:41:38.460|56=ALGOARBADR4|262=-6ebd1efab5e2b15e|268=1|279=1|269=1|55=CLP DTTC CURNCY|270=605.2|271=0|290=1|10=136|
20150520-11:41:38.152: 8=FIX.4.4|9=138|35=X|34=213|49=MDFHBLP|52=20150520-11:41:38.465|56=ALGOARBADR4|262=71010593cc924fc5|268=1|279=1|269=5|55=CLP DTTC CURNCY|270=605.15|290=1|10=120|
20150520-11:41:38.153: 8=FIX.4.4|9=139|35=X|34=214|49=MDFHBLP|52=20150520-11:41:38.466|56=ALGOARBADR4|262=-6ebd1efab5e2b15e|268=1|279=1|269=5|55=CLP DTTC CURNCY|270=605.15|290=1|10=196|
20150520-11:42:21.196: 8=FIX.4.4|9=62|35=0|34=35|49=ALGOARBADR4|52=20150520-11:42:21.196|56=MDFHBLP|10=005|
20150520-11:42:38.555: 8=FIX.4.4|9=63|35=0|34=215|49=MDFHBLP|52=20150520-11:42:38.870|56=ALGOARBADR4|10=061|
20150520-11:42:58.424: 8=FIX.4.4|9=144|35=X|34=216|49=MDFHBLP|52=20150520-11:42:58.739|56=ALGOARBADR4|262=71010593cc924fc5|268=1|279=1|269=0|55=CLP DTTC CURNCY|270=605.11|271=0|290=1|10=126|
20150520-11:42:58.424: 8=FIX.4.4|9=145|35=X|34=217|49=MDFHBLP|52=20150520-11:42:58.739|56=ALGOARBADR4|262=-6ebd1efab5e2b15e|268=1|279=1|269=0|55=CLP DTTC CURNCY|270=605.11|271=0|290=1|10=201|
20150520-11:42:58.425: 8=FIX.4.4|9=138|35=X|34=218|49=MDFHBLP|52=20150520-11:42:58.740|56=ALGOARBADR4|262=71010593cc924fc5|268=1|279=1|269=5|55=CLP DTTC CURNCY|270=605.16|290=1|10=125|
20150520-11:42:58.425: 8=FIX.4.4|9=139|35=X|34=219|49=MDFHBLP|52=20150520-11:42:58.741|56=ALGOARBADR4|262=-6ebd1efab5e2b15e|268=1|279=1|269=5|55=CLP DTTC CURNCY|270=605.16|290=1|10=201|
20150520-11:43:21.197: 8=FIX.4.4|9=62|35=0|34=36|49=ALGOARBADR4|52=20150520-11:43:21.197|56=MDFHBLP|10=008|
20150520-11:43:47.122: 8=FIX.4.4|9=143|35=X|34=220|49=MDFHBLP|52=20150520-11:43:47.439|56=ALGOARBADR4|262=71010593cc924fc5|268=1|279=1|269=1|55=CLP DTTC CURNCY|270=605.3|271=0|290=1|10=070|
20150520-11:43:47.123: 8=FIX.4.4|9=144|35=X|34=221|49=MDFHBLP|52=20150520-11:43:47.439|56=ALGOARBADR4|262=-6ebd1efab5e2b15e|268=1|279=1|269=1|55=CLP DTTC CURNCY|270=605.3|271=0|290=1|10=145|
20150520-11:43:47.124: 8=FIX.4.4|9=138|35=X|34=222|49=MDFHBLP|52=20150520-11:43:47.441|56=ALGOARBADR4|262=71010593cc924fc5|268=1|279=1|269=5|55=CLP DTTC CURNCY|270=605.21|290=1|10=113|
20150520-11:43:47.125: 8=FIX.4.4|9=139|35=X|34=223|49=MDFHBLP|52=20150520-11:43:47.442|56=ALGOARBADR4|262=-6ebd1efab5e2b15e|268=1|279=1|269=5|55=CLP DTTC CURNCY|270=605.21|290=1|10=189|
20150520-11:43:50.427: 8=FIX.4.4|9=143|35=X|34=224|49=MDFHBLP|52=20150520-11:43:50.744|56=ALGOARBADR4|262=71010593cc924fc5|268=1|279=1|269=1|55=CLP DTTC CURNCY|270=605.3|271=0|290=1|10=067|
20150520-11:43:50.428: 8=FIX.4.4|9=144|35=X|34=225|49=MDFHBLP|52=20150520-11:43:50.744|56=ALGOARBADR4|262=-6ebd1efab5e2b15e|268=1|279=1|269=1|55=CLP DTTC CURNCY|270=605.3|271=0|290=1|10=142|
20150520-11:43:50.429: 8=FIX.4.4|9=143|35=X|34=226|49=MDFHBLP|52=20150520-11:43:50.746|56=ALGOARBADR4|262=71010593cc924fc5|268=1|279=1|269=1|55=CLP DTTC CURNCY|270=605.3|271=0|290=1|10=071|
20150520-11:43:50.430: 8=FIX.4.4|9=144|35=X|34=227|49=MDFHBLP|52=20150520-11:43:50.747|56=ALGOARBADR4|262=-6ebd1efab5e2b15e|268=1|279=1|269=1|55=CLP DTTC CURNCY|270=605.3|271=0|290=1|10=147|
20150520-11:43:50.432: 8=FIX.4.4|9=138|35=X|34=228|49=MDFHBLP|52=20150520-11:43:50.748|56=ALGOARBADR4|262=71010593cc924fc5|268=1|279=1|269=5|55=CLP DTTC CURNCY|270=605.26|290=1|10=128|
20150520-11:43:50.432: 8=FIX.4.4|9=139|35=X|34=229|49=MDFHBLP|52=20150520-11:43:50.749|56=ALGOARBADR4|262=-6ebd1efab5e2b15e|268=1|279=1|269=5|55=CLP DTTC CURNCY|270=605.26|290=1|10=204|
20150520-11:43:50.435: 8=FIX.4.4|9=138|35=X|34=230|49=MDFHBLP|52=20150520-11:43:50.751|56=ALGOARBADR4|262=71010593cc924fc5|268=1|279=1|269=5|55=CLP DTTC CURNCY|270=605.21|290=1|10=110|
20150520-11:43:50.436: 8=FIX.4.4|9=139|35=X|34=231|49=MDFHBLP|52=20150520-11:43:50.752|56=ALGOARBADR4|262=-6ebd1efab5e2b15e|268=1|279=1|269=5|55=CLP DTTC CURNCY|270=605.21|290=1|10=186|
20150520-11:43:57.422: 8=FIX.4.4|9=144|35=X|34=232|49=MDFHBLP|52=20150520-11:43:57.738|56=ALGOARBADR4|262=71010593cc924fc5|268=1|279=1|269=1|55=CLP DTTC CURNCY|270=605.35|271=0|290=1|10=130|
20150520-11:43:57.422: 8=FIX.4.4|9=145|35=X|34=233|49=MDFHBLP|52=20150520-11:43:57.739|56=ALGOARBADR4|262=-6ebd1efab5e2b15e|268=1|279=1|269=1|55=CLP DTTC CURNCY|270=605.35|271=0|290=1|10=206|
20150520-11:43:57.424: 8=FIX.4.4|9=138|35=X|34=234|49=MDFHBLP|52=20150520-11:43:57.741|56=ALGOARBADR4|262=71010593cc924fc5|268=1|279=1|269=5|55=CLP DTTC CURNCY|270=605.23|290=1|10=122|
20150520-11:43:57.424: 8=FIX.4.4|9=139|35=X|34=235|49=MDFHBLP|52=20150520-11:43:57.741|56=ALGOARBADR4|262=-6ebd1efab5e2b15e|268=1|279=1|269=5|55=CLP DTTC CURNCY|270=605.23|290=1|10=197|
20150520-11:44:21.197: 8=FIX.4.4|9=62|35=0|34=37|49=ALGOARBADR4|52=20150520-11:44:21.197|56=MDFHBLP|10=010|
20150520-11:44:39.365: 8=FIX.4.4|9=144|35=X|34=236|49=MDFHBLP|52=20150520-11:44:39.683|56=ALGOARBADR4|262=71010593cc924fc5|268=1|279=1|269=0|55=CLP DTTC CURNCY|270=605.15|271=0|290=1|10=131|
20150520-11:44:39.366: 8=FIX.4.4|9=145|35=X|34=237|49=MDFHBLP|52=20150520-11:44:39.684|56=ALGOARBADR4|262=-6ebd1efab5e2b15e|268=1|279=1|269=0|55=CLP DTTC CURNCY|270=605.15|271=0|290=1|10=207|
20150520-11:44:39.369: 8=FIX.4.4|9=138|35=X|34=238|49=MDFHBLP|52=20150520-11:44:39.686|56=ALGOARBADR4|262=71010593cc924fc5|268=1|279=1|269=5|55=CLP DTTC CURNCY|270=605.25|290=1|10=137|
20150520-11:44:39.369: 8=FIX.4.4|9=139|35=X|34=239|49=MDFHBLP|52=20150520-11:44:39.687|56=ALGOARBADR4|262=-6ebd1efab5e2b15e|268=1|279=1|269=5|55=CLP DTTC CURNCY|270=605.25|290=1|10=213|
20150520-11:45:22.196: 8=FIX.4.4|9=62|35=0|34=38|49=ALGOARBADR4|52=20150520-11:45:22.196|56=MDFHBLP|10=012|
20150520-11:45:28.999: 8=FIX.4.4|9=143|35=X|34=240|49=MDFHBLP|52=20150520-11:45:29.318|56=ALGOARBADR4|262=71010593cc924fc5|268=1|279=1|269=1|55=CLP DTTC CURNCY|270=605.4|271=0|290=1|10=071|
20150520-11:45:29.000: 8=FIX.4.4|9=144|35=X|34=241|49=MDFHBLP|52=20150520-11:45:29.319|56=ALGOARBADR4|262=-6ebd1efab5e2b15e|268=1|279=1|269=1|55=CLP DTTC CURNCY|270=605.4|271=0|290=1|10=147|
20150520-11:45:29.001: 8=FIX.4.4|9=138|35=X|34=242|49=MDFHBLP|52=20150520-11:45:29.320|56=ALGOARBADR4|262=71010593cc924fc5|268=1|279=1|269=5|55=CLP DTTC CURNCY|270=605.28|290=1|10=120|
20150520-11:45:29.002: 8=FIX.4.4|9=139|35=X|34=243|49=MDFHBLP|52=20150520-11:45:29.321|56=ALGOARBADR4|262=-6ebd1efab5e2b15e|268=1|279=1|269=5|55=CLP DTTC CURNCY|270=605.28|290=1|10=196|
20150520-11:45:39.867: 8=FIX.4.4|9=144|35=X|34=244|49=MDFHBLP|52=20150520-11:45:40.186|56=ALGOARBADR4|262=71010593cc924fc5|268=1|279=1|269=1|55=CLP DTTC CURNCY|270=605.35|271=0|290=1|10=124|
20150520-11:45:39.867: 8=FIX.4.4|9=145|35=X|34=245|49=MDFHBLP|52=20150520-11:45:40.187|56=ALGOARBADR4|262=-6ebd1efab5e2b15e|268=1|279=1|269=1|55=CLP DTTC CURNCY|270=605.35|271=0|290=1|10=200|
20150520-11:45:39.869: 8=FIX.4.4|9=138|35=X|34=246|49=MDFHBLP|52=20150520-11:45:40.188|56=ALGOARBADR4|262=71010593cc924fc5|268=1|279=1|269=5|55=CLP DTTC CURNCY|270=605.25|290=1|10=126|
20150520-11:45:39.870: 8=FIX.4.4|9=139|35=X|34=247|49=MDFHBLP|52=20150520-11:45:40.189|56=ALGOARBADR4|262=-6ebd1efab5e2b15e|268=1|279=1|269=5|55=CLP DTTC CURNCY|270=605.25|290=1|10=202|
20150520-11:45:46.853: 8=FIX.4.4|9=143|35=X|34=248|49=MDFHBLP|52=20150520-11:45:47.173|56=ALGOARBADR4|262=71010593cc924fc5|268=1|279=1|269=1|55=CLP DTTC CURNCY|270=605.4|271=0|290=1|10=078|
20150520-11:45:46.854: 8=FIX.4.4|9=144|35=X|34=249|49=MDFHBLP|52=20150520-11:45:47.174|56=ALGOARBADR4|262=-6ebd1efab5e2b15e|268=1|279=1|269=1|55=CLP DTTC CURNCY|270=605.4|271=0|290=1|10=154|
20150520-11:45:46.855: 8=FIX.4.4|9=138|35=X|34=250|49=MDFHBLP|52=20150520-11:45:47.175|56=ALGOARBADR4|262=71010593cc924fc5|268=1|279=1|269=5|55=CLP DTTC CURNCY|270=605.28|290=1|10=127|
20150520-11:45:46.856: 8=FIX.4.4|9=139|35=X|34=251|49=MDFHBLP|52=20150520-11:45:47.176|56=ALGOARBADR4|262=-6ebd1efab5e2b15e|268=1|279=1|269=5|55=CLP DTTC CURNCY|270=605.28|290=1|10=203|
20150520-11:45:48.179: 8=FIX.4.4|9=144|35=X|34=252|49=MDFHBLP|52=20150520-11:45:48.499|56=ALGOARBADR4|262=71010593cc924fc5|268=1|279=1|269=1|55=CLP DTTC CURNCY|270=605.35|271=0|290=1|10=138|
20150520-11:45:48.180: 8=FIX.4.4|9=145|35=X|34=253|49=MDFHBLP|52=20150520-11:45:48.500|56=ALGOARBADR4|262=-6ebd1efab5e2b15e|268=1|279=1|269=1|55=CLP DTTC CURNCY|270=605.35|271=0|290=1|10=196|
20150520-11:45:48.182: 8=FIX.4.4|9=138|35=X|34=254|49=MDFHBLP|52=20150520-11:45:48.501|56=ALGOARBADR4|262=71010593cc924fc5|268=1|279=1|269=5|55=CLP DTTC CURNCY|270=605.25|290=1|10=122|
20150520-11:45:48.182: 8=FIX.4.4|9=139|35=X|34=255|49=MDFHBLP|52=20150520-11:45:48.502|56=ALGOARBADR4|262=-6ebd1efab5e2b15e|268=1|279=1|269=5|55=CLP DTTC CURNCY|270=605.25|290=1|10=198|
20150520-11:45:49.119: 8=FIX.4.4|9=143|35=X|34=256|49=MDFHBLP|52=20150520-11:45:49.439|56=ALGOARBADR4|262=71010593cc924fc5|268=1|279=1|269=1|55=CLP DTTC CURNCY|270=605.4|271=0|290=1|10=084|
20150520-11:45:49.120: 8=FIX.4.4|9=144|35=X|34=257|49=MDFHBLP|52=20150520-11:45:49.439|56=ALGOARBADR4|262=-6ebd1efab5e2b15e|268=1|279=1|269=1|55=CLP DTTC CURNCY|270=605.4|271=0|290=1|10=159|
20150520-11:45:49.122: 8=FIX.4.4|9=138|35=X|34=258|49=MDFHBLP|52=20150520-11:45:49.441|56=ALGOARBADR4|262=71010593cc924fc5|268=1|279=1|269=5|55=CLP DTTC CURNCY|270=605.28|290=1|10=133|
20150520-11:45:49.123: 8=FIX.4.4|9=139|35=X|34=259|49=MDFHBLP|52=20150520-11:45:49.442|56=ALGOARBADR4|262=-6ebd1efab5e2b15e|268=1|279=1|269=5|55=CLP DTTC CURNCY|270=605.28|290=1|10=209|
20150520-11:45:56.853: 8=FIX.4.4|9=144|35=X|34=260|49=MDFHBLP|52=20150520-11:45:57.173|56=ALGOARBADR4|262=71010593cc924fc5|268=1|279=1|269=1|55=CLP DTTC CURNCY|270=605.35|271=0|290=1|10=126|
20150520-11:45:56.854: 8=FIX.4.4|9=145|35=X|34=261|49=MDFHBLP|52=20150520-11:45:57.174|56=ALGOARBADR4|262=-6ebd1efab5e2b15e|268=1|279=1|269=1|55=CLP DTTC CURNCY|270=605.35|271=0|290=1|10=202|
20150520-11:45:56.855: 8=FIX.4.4|9=138|35=X|34=262|49=MDFHBLP|52=20150520-11:45:57.175|56=ALGOARBADR4|262=71010593cc924fc5|268=1|279=1|269=5|55=CLP DTTC CURNCY|270=605.25|290=1|10=128|
20150520-11:45:56.856: 8=FIX.4.4|9=139|35=X|34=263|49=MDFHBLP|52=20150520-11:45:57.176|56=ALGOARBADR4|262=-6ebd1efab5e2b15e|268=1|279=1|269=5|55=CLP DTTC CURNCY|270=605.25|290=1|10=204|
20150520-11:46:00.273: 8=FIX.4.4|9=144|35=X|34=264|49=MDFHBLP|52=20150520-11:46:00.593|56=ALGOARBADR4|262=71010593cc924fc5|268=1|279=1|269=0|55=CLP DTTC CURNCY|270=605.18|271=0|290=1|10=125|
20150520-11:46:00.274: 8=FIX.4.4|9=145|35=X|34=265|49=MDFHBLP|52=20150520-11:46:00.594|56=ALGOARBADR4|262=-6ebd1efab5e2b15e|268=1|279=1|269=0|55=CLP DTTC CURNCY|270=605.18|271=0|290=1|10=201|
20150520-11:46:00.275: 8=FIX.4.4|9=143|35=X|34=266|49=MDFHBLP|52=20150520-11:46:00.595|56=ALGOARBADR4|262=71010593cc924fc5|268=1|279=1|269=1|55=CLP DTTC CURNCY|270=605.4|271=0|290=1|10=076|
20150520-11:46:00.276: 8=FIX.4.4|9=144|35=X|34=267|49=MDFHBLP|52=20150520-11:46:00.595|56=ALGOARBADR4|262=-6ebd1efab5e2b15e|268=1|279=1|269=1|55=CLP DTTC CURNCY|270=605.4|271=0|290=1|10=151|
20150520-11:46:00.280: 8=FIX.4.4|9=138|35=X|34=268|49=MDFHBLP|52=20150520-11:46:00.600|56=ALGOARBADR4|262=71010593cc924fc5|268=1|279=1|269=5|55=CLP DTTC CURNCY|270=605.27|290=1|10=118|
20150520-11:46:00.281: 8=FIX.4.4|9=139|35=X|34=269|49=MDFHBLP|52=20150520-11:46:00.601|56=ALGOARBADR4|262=-6ebd1efab5e2b15e|268=1|279=1|269=5|55=CLP DTTC CURNCY|270=605.27|290=1|10=194|
20150520-11:46:00.283: 8=FIX.4.4|9=138|35=X|34=270|49=MDFHBLP|52=20150520-11:46:00.603|56=ALGOARBADR4|262=71010593cc924fc5|268=1|279=1|269=5|55=CLP DTTC CURNCY|270=605.29|290=1|10=116|
20150520-11:46:00.284: 8=FIX.4.4|9=139|35=X|34=271|49=MDFHBLP|52=20150520-11:46:00.604|56=ALGOARBADR4|262=-6ebd1efab5e2b15e|268=1|279=1|269=5|55=CLP DTTC CURNCY|270=605.29|290=1|10=192|
20150520-11:46:02.467: 8=FIX.4.4|9=144|35=X|34=272|49=MDFHBLP|52=20150520-11:46:02.786|56=ALGOARBADR4|262=71010593cc924fc5|268=1|279=1|269=1|55=CLP DTTC CURNCY|270=605.42|271=0|290=1|10=128|
20150520-11:46:02.467: 8=FIX.4.4|9=145|35=X|34=273|49=MDFHBLP|52=20150520-11:46:02.787|56=ALGOARBADR4|262=-6ebd1efab5e2b15e|268=1|279=1|269=1|55=CLP DTTC CURNCY|270=605.42|271=0|290=1|10=204|
20150520-11:46:02.468: 8=FIX.4.4|9=137|35=X|34=274|49=MDFHBLP|52=20150520-11:46:02.788|56=ALGOARBADR4|262=71010593cc924fc5|268=1|279=1|269=5|55=CLP DTTC CURNCY|270=605.3|290=1|10=079|
20150520-11:46:02.469: 8=FIX.4.4|9=138|35=X|34=275|49=MDFHBLP|52=20150520-11:46:02.788|56=ALGOARBADR4|262=-6ebd1efab5e2b15e|268=1|279=1|269=5|55=CLP DTTC CURNCY|270=605.3|290=1|10=154|
20150520-11:46:02.754: 8=FIX.4.4|9=144|35=X|34=276|49=MDFHBLP|52=20150520-11:46:03.074|56=ALGOARBADR4|262=71010593cc924fc5|268=1|279=1|269=1|55=CLP DTTC CURNCY|270=605.45|271=0|290=1|10=126|
20150520-11:46:02.755: 8=FIX.4.4|9=145|35=X|34=277|49=MDFHBLP|52=20150520-11:46:03.074|56=ALGOARBADR4|262=-6ebd1efab5e2b15e|268=1|279=1|269=1|55=CLP DTTC CURNCY|270=605.45|271=0|290=1|10=201|
20150520-11:46:02.756: 8=FIX.4.4|9=138|35=X|34=278|49=MDFHBLP|52=20150520-11:46:03.076|56=ALGOARBADR4|262=71010593cc924fc5|268=1|279=1|269=5|55=CLP DTTC CURNCY|270=605.31|290=1|10=124|
20150520-11:46:02.757: 8=FIX.4.4|9=139|35=X|34=279|49=MDFHBLP|52=20150520-11:46:03.076|56=ALGOARBADR4|262=-6ebd1efab5e2b15e|268=1|279=1|269=5|55=CLP DTTC CURNCY|270=605.31|290=1|10=199|
20150520-11:46:05.180: 8=FIX.4.4|9=143|35=X|34=280|49=MDFHBLP|52=20150520-11:46:05.500|56=ALGOARBADR4|262=71010593cc924fc5|268=1|279=1|269=1|55=CLP DTTC CURNCY|270=605.5|271=0|290=1|10=064|
20150520-11:46:05.180: 8=FIX.4.4|9=144|35=X|34=281|49=MDFHBLP|52=20150520-11:46:05.501|56=ALGOARBADR4|262=-6ebd1efab5e2b15e|268=1|279=1|269=1|55=CLP DTTC CURNCY|270=605.5|271=0|290=1|10=140|
20150520-11:46:05.182: 8=FIX.4.4|9=143|35=X|34=282|49=MDFHBLP|52=20150520-11:46:05.503|56=ALGOARBADR4|262=71010593cc924fc5|268=1|279=1|269=1|55=CLP DTTC CURNCY|270=605.5|271=0|290=1|10=069|
20150520-11:46:05.183: 8=FIX.4.4|9=144|35=X|34=283|49=MDFHBLP|52=20150520-11:46:05.503|56=ALGOARBADR4|262=-6ebd1efab5e2b15e|268=1|279=1|269=1|55=CLP DTTC CURNCY|270=605.5|271=0|290=1|10=144|
20150520-11:46:05.184: 8=FIX.4.4|9=138|35=X|34=284|49=MDFHBLP|52=20150520-11:46:05.505|56=ALGOARBADR4|262=71010593cc924fc5|268=1|279=1|269=5|55=CLP DTTC CURNCY|270=605.42|290=1|10=122|
20150520-11:46:05.185: 8=FIX.4.4|9=139|35=X|34=285|49=MDFHBLP|52=20150520-11:46:05.505|56=ALGOARBADR4|262=-6ebd1efab5e2b15e|268=1|279=1|269=5|55=CLP DTTC CURNCY|270=605.42|290=1|10=197|
20150520-11:46:05.188: 8=FIX.4.4|9=138|35=X|34=286|49=MDFHBLP|52=20150520-11:46:05.508|56=ALGOARBADR4|262=71010593cc924fc5|268=1|279=1|269=5|55=CLP DTTC CURNCY|270=605.34|290=1|10=128|
20150520-11:46:05.188: 8=FIX.4.4|9=139|35=X|34=287|49=MDFHBLP|52=20150520-11:46:05.509|56=ALGOARBADR4|262=-6ebd1efab5e2b15e|268=1|279=1|269=5|55=CLP DTTC CURNCY|270=605.34|290=1|10=204|
20150520-11:46:07.630: 8=FIX.4.4|9=144|35=X|34=288|49=MDFHBLP|52=20150520-11:46:07.951|56=ALGOARBADR4|262=71010593cc924fc5|268=1|279=1|269=1|55=CLP DTTC CURNCY|270=605.65|271=0|290=1|10=139|
20150520-11:46:07.631: 8=FIX.4.4|9=145|35=X|34=289|49=MDFHBLP|52=20150520-11:46:07.951|56=ALGOARBADR4|262=-6ebd1efab5e2b15e|268=1|279=1|269=1|55=CLP DTTC CURNCY|270=605.65|271=0|290=1|10=214|
20150520-11:46:07.631: 8=FIX.4.4|9=138|35=X|34=290|49=MDFHBLP|52=20150520-11:46:07.952|56=ALGOARBADR4|262=71010593cc924fc5|268=1|279=1|269=5|55=CLP DTTC CURNCY|270=605.42|290=1|10=127|
20150520-11:46:07.632: 8=FIX.4.4|9=139|35=X|34=291|49=MDFHBLP|52=20150520-11:46:07.952|56=ALGOARBADR4|262=-6ebd1efab5e2b15e|268=1|279=1|269=5|55=CLP DTTC CURNCY|270=605.42|290=1|10=202|
20150520-11:46:10.805: 8=FIX.4.4|9=144|35=X|34=292|49=MDFHBLP|52=20150520-11:46:11.125|56=ALGOARBADR4|262=71010593cc924fc5|268=1|279=1|269=1|55=CLP DTTC CURNCY|270=605.64|271=0|290=1|10=121|
20150520-11:46:10.805: 8=FIX.4.4|9=145|35=X|34=293|49=MDFHBLP|52=20150520-11:46:11.125|56=ALGOARBADR4|262=-6ebd1efab5e2b15e|268=1|279=1|269=1|55=CLP DTTC CURNCY|270=605.64|271=0|290=1|10=196|
20150520-11:46:10.807: 8=FIX.4.4|9=138|35=X|34=294|49=MDFHBLP|52=20150520-11:46:11.127|56=ALGOARBADR4|262=71010593cc924fc5|268=1|279=1|269=5|55=CLP DTTC CURNCY|270=605.41|290=1|10=119|
20150520-11:46:10.808: 8=FIX.4.4|9=139|35=X|34=295|49=MDFHBLP|52=20150520-11:46:11.128|56=ALGOARBADR4|262=-6ebd1efab5e2b15e|268=1|279=1|269=5|55=CLP DTTC CURNCY|270=605.41|290=1|10=195|
20150520-11:46:14.756: 8=FIX.4.4|9=143|35=X|34=296|49=MDFHBLP|52=20150520-11:46:15.076|56=ALGOARBADR4|262=71010593cc924fc5|268=1|279=1|269=0|55=CLP DTTC CURNCY|270=605.2|271=0|290=1|10=076|
20150520-11:46:14.756: 8=FIX.4.4|9=144|35=X|34=297|49=MDFHBLP|52=20150520-11:46:15.077|56=ALGOARBADR4|262=-6ebd1efab5e2b15e|268=1|279=1|269=0|55=CLP DTTC CURNCY|270=605.2|271=0|290=1|10=152|
20150520-11:46:14.757: 8=FIX.4.4|9=138|35=X|34=298|49=MDFHBLP|52=20150520-11:46:15.078|56=ALGOARBADR4|262=71010593cc924fc5|268=1|279=1|269=5|55=CLP DTTC CURNCY|270=605.42|290=1|10=133|
20150520-11:46:14.757: 8=FIX.4.4|9=139|35=X|34=299|49=MDFHBLP|52=20150520-11:46:15.078|56=ALGOARBADR4|262=-6ebd1efab5e2b15e|268=1|279=1|269=5|55=CLP DTTC CURNCY|270=605.42|290=1|10=208|
20150520-11:46:18.243: 8=FIX.4.4|9=144|35=X|34=300|49=MDFHBLP|52=20150520-11:46:18.564|56=ALGOARBADR4|262=71010593cc924fc5|268=1|279=1|269=0|55=CLP DTTC CURNCY|270=605.18|271=0|290=1|10=123|
20150520-11:46:18.244: 8=FIX.4.4|9=145|35=X|34=301|49=MDFHBLP|52=20150520-11:46:18.564|56=ALGOARBADR4|262=-6ebd1efab5e2b15e|268=1|279=1|269=0|55=CLP DTTC CURNCY|270=605.18|271=0|290=1|10=198|
20150520-11:46:18.246: 8=FIX.4.4|9=138|35=X|34=302|49=MDFHBLP|52=20150520-11:46:18.567|56=ALGOARBADR4|262=71010593cc924fc5|268=1|279=1|269=5|55=CLP DTTC CURNCY|270=605.41|290=1|10=124|
20150520-11:46:18.247: 8=FIX.4.4|9=139|35=X|34=303|49=MDFHBLP|52=20150520-11:46:18.567|56=ALGOARBADR4|262=-6ebd1efab5e2b15e|268=1|279=1|269=5|55=CLP DTTC CURNCY|270=605.41|290=1|10=199|
20150520-11:46:22.196: 8=FIX.4.4|9=62|35=0|34=39|49=ALGOARBADR4|52=20150520-11:46:22.196|56=MDFHBLP|10=014|
20150520-11:46:23.195: 8=FIX.4.4|9=143|35=X|34=304|49=MDFHBLP|52=20150520-11:46:23.515|56=ALGOARBADR4|262=71010593cc924fc5|268=1|279=1|269=0|55=CLP DTTC CURNCY|270=605.5|271=0|290=1|10=066|
20150520-11:46:23.195: 8=FIX.4.4|9=144|35=X|34=305|49=MDFHBLP|52=20150520-11:46:23.515|56=ALGOARBADR4|262=-6ebd1efab5e2b15e|268=1|279=1|269=0|55=CLP DTTC CURNCY|270=605.5|271=0|290=1|10=141|
20150520-11:46:23.197: 8=FIX.4.4|9=138|35=X|34=306|49=MDFHBLP|52=20150520-11:46:23.517|56=ALGOARBADR4|262=71010593cc924fc5|268=1|279=1|269=5|55=CLP DTTC CURNCY|270=605.57|290=1|10=126|
20150520-11:46:23.197: 8=FIX.4.4|9=139|35=X|34=307|49=MDFHBLP|52=20150520-11:46:23.518|56=ALGOARBADR4|262=-6ebd1efab5e2b15e|268=1|279=1|269=5|55=CLP DTTC CURNCY|270=605.57|290=1|10=202|
20150520-11:46:29.357: 8=FIX.4.4|9=143|35=X|34=308|49=MDFHBLP|52=20150520-11:46:29.678|56=ALGOARBADR4|262=71010593cc924fc5|268=1|279=1|269=1|55=CLP DTTC CURNCY|270=605.7|271=0|290=1|10=089|
20150520-11:46:29.358: 8=FIX.4.4|9=144|35=X|34=309|49=MDFHBLP|52=20150520-11:46:29.678|56=ALGOARBADR4|262=-6ebd1efab5e2b15e|268=1|279=1|269=1|55=CLP DTTC CURNCY|270=605.7|271=0|290=1|10=164|
20150520-11:46:29.360: 8=FIX.4.4|9=138|35=X|34=310|49=MDFHBLP|52=20150520-11:46:29.681|56=ALGOARBADR4|262=-6ebd1efab5e2b15e|268=1|279=1|269=5|55=CLP DTTC CURNCY|270=605.6|290=1|10=148|
20150520-11:46:29.360: 8=FIX.4.4|9=137|35=X|34=311|49=MDFHBLP|52=20150520-11:46:29.681|56=ALGOARBADR4|262=71010593cc924fc5|268=1|279=1|269=5|55=CLP DTTC CURNCY|270=605.6|290=1|10=075|
20150520-11:46:31.539: 8=FIX.4.4|9=144|35=X|34=312|49=MDFHBLP|52=20150520-11:46:31.859|56=ALGOARBADR4|262=71010593cc924fc5|268=1|279=1|269=0|55=CLP DTTC CURNCY|270=605.18|271=0|290=1|10=128|
20150520-11:46:31.539: 8=FIX.4.4|9=145|35=X|34=313|49=MDFHBLP|52=20150520-11:46:31.860|56=ALGOARBADR4|262=-6ebd1efab5e2b15e|268=1|279=1|269=0|55=CLP DTTC CURNCY|270=605.18|271=0|290=1|10=195|
20150520-11:46:31.540: 8=FIX.4.4|9=138|35=X|34=314|49=MDFHBLP|52=20150520-11:46:31.861|56=ALGOARBADR4|262=71010593cc924fc5|268=1|279=1|269=5|55=CLP DTTC CURNCY|270=605.44|290=1|10=122|
20150520-11:46:31.540: 8=FIX.4.4|9=139|35=X|34=315|49=MDFHBLP|52=20150520-11:46:31.861|56=ALGOARBADR4|262=-6ebd1efab5e2b15e|268=1|279=1|269=5|55=CLP DTTC CURNCY|270=605.44|290=1|10=197|
20150520-11:46:32.371: 8=FIX.4.4|9=144|35=X|34=316|49=MDFHBLP|52=20150520-11:46:32.691|56=ALGOARBADR4|262=71010593cc924fc5|268=1|279=1|269=0|55=CLP DTTC CURNCY|270=605.35|271=0|290=1|10=126|
20150520-11:46:32.372: 8=FIX.4.4|9=145|35=X|34=317|49=MDFHBLP|52=20150520-11:46:32.692|56=ALGOARBADR4|262=-6ebd1efab5e2b15e|268=1|279=1|269=0|55=CLP DTTC CURNCY|270=605.35|271=0|290=1|10=202|
20150520-11:46:32.373: 8=FIX.4.4|9=138|35=X|34=318|49=MDFHBLP|52=20150520-11:46:32.694|56=ALGOARBADR4|262=71010593cc924fc5|268=1|279=1|269=5|55=CLP DTTC CURNCY|270=605.53|290=1|10=131|
20150520-11:46:32.374: 8=FIX.4.4|9=139|35=X|34=319|49=MDFHBLP|52=20150520-11:46:32.694|56=ALGOARBADR4|262=-6ebd1efab5e2b15e|268=1|279=1|269=5|55=CLP DTTC CURNCY|270=605.53|290=1|10=206|
20150520-11:46:35.008: 8=FIX.4.4|9=144|35=X|34=320|49=MDFHBLP|52=20150520-11:46:35.329|56=ALGOARBADR4|262=71010593cc924fc5|268=1|279=1|269=1|55=CLP DTTC CURNCY|270=605.69|271=0|290=1|10=130|
20150520-11:46:35.009: 8=FIX.4.4|9=145|35=X|34=321|49=MDFHBLP|52=20150520-11:46:35.330|56=ALGOARBADR4|262=-6ebd1efab5e2b15e|268=1|279=1|269=1|55=CLP DTTC CURNCY|270=605.69|271=0|290=1|10=197|
20150520-11:46:35.010: 8=FIX.4.4|9=138|35=X|34=322|49=MDFHBLP|52=20150520-11:46:35.331|56=ALGOARBADR4|262=71010593cc924fc5|268=1|279=1|269=5|55=CLP DTTC CURNCY|270=605.52|290=1|10=116|
20150520-11:46:35.011: 8=FIX.4.4|9=139|35=X|34=323|49=MDFHBLP|52=20150520-11:46:35.332|56=ALGOARBADR4|262=-6ebd1efab5e2b15e|268=1|279=1|269=5|55=CLP DTTC CURNCY|270=605.52|290=1|10=192|
20150520-11:46:37.350: 8=FIX.4.4|9=143|35=X|34=324|49=MDFHBLP|52=20150520-11:46:37.671|56=ALGOARBADR4|262=71010593cc924fc5|268=1|279=1|269=0|55=CLP DTTC CURNCY|270=605.6|271=0|290=1|10=077|
20150520-11:46:37.350: 8=FIX.4.4|9=144|35=X|34=325|49=MDFHBLP|52=20150520-11:46:37.671|56=ALGOARBADR4|262=-6ebd1efab5e2b15e|268=1|279=1|269=0|55=CLP DTTC CURNCY|270=605.6|271=0|290=1|10=152|
20150520-11:46:37.352: 8=FIX.4.4|9=138|35=X|34=326|49=MDFHBLP|52=20150520-11:46:37.673|56=ALGOARBADR4|262=71010593cc924fc5|268=1|279=1|269=5|55=CLP DTTC CURNCY|270=605.65|290=1|10=135|
20150520-11:46:37.352: 8=FIX.4.4|9=139|35=X|34=327|49=MDFHBLP|52=20150520-11:46:37.673|56=ALGOARBADR4|262=-6ebd1efab5e2b15e|268=1|279=1|269=5|55=CLP DTTC CURNCY|270=605.65|290=1|10=210|
20150520-11:46:39.197: 8=FIX.4.4|9=143|35=X|34=328|49=MDFHBLP|52=20150520-11:46:39.518|56=ALGOARBADR4|262=71010593cc924fc5|268=1|279=1|269=1|55=CLP DTTC CURNCY|270=605.7|271=0|290=1|10=085|
20150520-11:46:39.198: 8=FIX.4.4|9=144|35=X|34=329|49=MDFHBLP|52=20150520-11:46:39.519|56=ALGOARBADR4|262=-6ebd1efab5e2b15e|268=1|279=1|269=1|55=CLP DTTC CURNCY|270=605.7|271=0|290=1|10=161|
20150520-11:46:39.201: 8=FIX.4.4|9=138|35=X|34=330|49=MDFHBLP|52=20150520-11:46:39.522|56=ALGOARBADR4|262=71010593cc924fc5|268=1|279=1|269=5|55=CLP DTTC CURNCY|270=605.65|290=1|10=125|
20150520-11:46:39.202: 8=FIX.4.4|9=139|35=X|34=331|49=MDFHBLP|52=20150520-11:46:39.523|56=ALGOARBADR4|262=-6ebd1efab5e2b15e|268=1|279=1|269=5|55=CLP DTTC CURNCY|270=605.65|290=1|10=201|
20150520-11:46:50.119: 8=FIX.4.4|9=144|35=X|34=332|49=MDFHBLP|52=20150520-11:46:50.440|56=ALGOARBADR4|262=71010593cc924fc5|268=1|279=1|269=1|55=CLP DTTC CURNCY|270=605.69|271=0|290=1|10=124|
20150520-11:46:50.120: 8=FIX.4.4|9=145|35=X|34=333|49=MDFHBLP|52=20150520-11:46:50.441|56=ALGOARBADR4|262=-6ebd1efab5e2b15e|268=1|279=1|269=1|55=CLP DTTC CURNCY|270=605.69|271=0|290=1|10=200|
20150520-11:46:50.122: 8=FIX.4.4|9=138|35=X|34=334|49=MDFHBLP|52=20150520-11:46:50.442|56=ALGOARBADR4|262=71010593cc924fc5|268=1|279=1|269=5|55=CLP DTTC CURNCY|270=605.65|290=1|10=123|
20150520-11:46:50.122: 8=FIX.4.4|9=139|35=X|34=335|49=MDFHBLP|52=20150520-11:46:50.443|56=ALGOARBADR4|262=-6ebd1efab5e2b15e|268=1|279=1|269=5|55=CLP DTTC CURNCY|270=605.65|290=1|10=199|
20150520-11:47:22.197: 8=FIX.4.4|9=62|35=0|34=40|49=ALGOARBADR4|52=20150520-11:47:22.197|56=MDFHBLP|10=008|
20150520-11:47:27.551: 8=FIX.4.4|9=143|35=X|34=336|49=MDFHBLP|52=20150520-11:47:27.873|56=ALGOARBADR4|262=71010593cc924fc5|268=1|279=1|269=1|55=CLP DTTC CURNCY|270=605.7|271=0|290=1|10=086|
20150520-11:47:27.552: 8=FIX.4.4|9=144|35=X|34=337|49=MDFHBLP|52=20150520-11:47:27.874|56=ALGOARBADR4|262=-6ebd1efab5e2b15e|268=1|279=1|269=1|55=CLP DTTC CURNCY|270=605.7|271=0|290=1|10=162|
20150520-11:47:27.554: 8=FIX.4.4|9=138|35=X|34=338|49=MDFHBLP|52=20150520-11:47:27.876|56=ALGOARBADR4|262=71010593cc924fc5|268=1|279=1|269=5|55=CLP DTTC CURNCY|270=605.65|290=1|10=143|
20150520-11:47:27.554: 8=FIX.4.4|9=139|35=X|34=339|49=MDFHBLP|52=20150520-11:47:27.876|56=ALGOARBADR4|262=-6ebd1efab5e2b15e|268=1|279=1|269=5|55=CLP DTTC CURNCY|270=605.65|290=1|10=218|
20150520-11:47:34.038: 8=FIX.4.4|9=144|35=X|34=340|49=MDFHBLP|52=20150520-11:47:34.360|56=ALGOARBADR4|262=71010593cc924fc5|268=1|279=1|269=1|55=CLP DTTC CURNCY|270=605.65|271=0|290=1|10=123|
20150520-11:47:34.039: 8=FIX.4.4|9=145|35=X|34=341|49=MDFHBLP|52=20150520-11:47:34.361|56=ALGOARBADR4|262=-6ebd1efab5e2b15e|268=1|279=1|269=1|55=CLP DTTC CURNCY|270=605.65|271=0|290=1|10=199|
20150520-11:47:34.041: 8=FIX.4.4|9=138|35=X|34=342|49=MDFHBLP|52=20150520-11:47:34.363|56=ALGOARBADR4|262=71010593cc924fc5|268=1|279=1|269=5|55=CLP DTTC CURNCY|270=605.63|290=1|10=125|
20150520-11:47:34.042: 8=FIX.4.4|9=139|35=X|34=343|49=MDFHBLP|52=20150520-11:47:34.364|56=ALGOARBADR4|262=-6ebd1efab5e2b15e|268=1|279=1|269=5|55=CLP DTTC CURNCY|270=605.63|290=1|10=201|
20150520-11:47:35.288: 8=FIX.4.4|9=143|35=X|34=344|49=MDFHBLP|52=20150520-11:47:35.610|56=ALGOARBADR4|262=71010593cc924fc5|268=1|279=1|269=1|55=CLP DTTC CURNCY|270=605.7|271=0|290=1|10=073|
20150520-11:47:35.288: 8=FIX.4.4|9=144|35=X|34=345|49=MDFHBLP|52=20150520-11:47:35.611|56=ALGOARBADR4|262=-6ebd1efab5e2b15e|268=1|279=1|269=1|55=CLP DTTC CURNCY|270=605.7|271=0|290=1|10=149|
20150520-11:47:35.290: 8=FIX.4.4|9=138|35=X|34=346|49=MDFHBLP|52=20150520-11:47:35.613|56=ALGOARBADR4|262=71010593cc924fc5|268=1|279=1|269=5|55=CLP DTTC CURNCY|270=605.65|290=1|10=130|
20150520-11:47:35.291: 8=FIX.4.4|9=139|35=X|34=347|49=MDFHBLP|52=20150520-11:47:35.613|56=ALGOARBADR4|262=-6ebd1efab5e2b15e|268=1|279=1|269=5|55=CLP DTTC CURNCY|270=605.65|290=1|10=205|
20150520-11:47:37.588: 8=FIX.4.4|9=144|35=X|34=348|49=MDFHBLP|52=20150520-11:47:37.911|56=ALGOARBADR4|262=71010593cc924fc5|268=1|279=1|269=0|55=CLP DTTC CURNCY|270=605.55|271=0|290=1|10=134|
20150520-11:47:37.589: 8=FIX.4.4|9=145|35=X|34=349|49=MDFHBLP|52=20150520-11:47:37.911|56=ALGOARBADR4|262=-6ebd1efab5e2b15e|268=1|279=1|269=0|55=CLP DTTC CURNCY|270=605.55|271=0|290=1|10=209|
20150520-11:47:37.590: 8=FIX.4.4|9=138|35=X|34=350|49=MDFHBLP|52=20150520-11:47:37.913|56=ALGOARBADR4|262=71010593cc924fc5|268=1|279=1|269=5|55=CLP DTTC CURNCY|270=605.63|290=1|10=128|
20150520-11:47:37.591: 8=FIX.4.4|9=139|35=X|34=351|49=MDFHBLP|52=20150520-11:47:37.914|56=ALGOARBADR4|262=-6ebd1efab5e2b15e|268=1|279=1|269=5|55=CLP DTTC CURNCY|270=605.63|290=1|10=204|
20150520-11:47:38.159: 8=FIX.4.4|9=144|35=X|34=352|49=MDFHBLP|52=20150520-11:47:38.481|56=ALGOARBADR4|262=71010593cc924fc5|268=1|279=1|269=0|55=CLP DTTC CURNCY|270=605.35|271=0|290=1|10=130|
20150520-11:47:38.159: 8=FIX.4.4|9=145|35=X|34=353|49=MDFHBLP|52=20150520-11:47:38.482|56=ALGOARBADR4|262=-6ebd1efab5e2b15e|268=1|279=1|269=0|55=CLP DTTC CURNCY|270=605.35|271=0|290=1|10=206|
20150520-11:47:38.160: 8=FIX.4.4|9=138|35=X|34=354|49=MDFHBLP|52=20150520-11:47:38.483|56=ALGOARBADR4|262=71010593cc924fc5|268=1|279=1|269=5|55=CLP DTTC CURNCY|270=605.53|290=1|10=134|
20150520-11:47:38.162: 8=FIX.4.4|9=139|35=X|34=355|49=MDFHBLP|52=20150520-11:47:38.483|56=ALGOARBADR4|262=-6ebd1efab5e2b15e|268=1|279=1|269=5|55=CLP DTTC CURNCY|270=605.53|290=1|10=209|
20150520-11:47:51.114: 8=FIX.4.4|9=143|35=X|34=356|49=MDFHBLP|52=20150520-11:47:51.437|56=ALGOARBADR4|262=71010593cc924fc5|268=1|279=1|269=0|55=CLP DTTC CURNCY|270=605.6|271=0|290=1|10=079|
20150520-11:47:51.115: 8=FIX.4.4|9=144|35=X|34=357|49=MDFHBLP|52=20150520-11:47:51.437|56=ALGOARBADR4|262=-6ebd1efab5e2b15e|268=1|279=1|269=0|55=CLP DTTC CURNCY|270=605.6|271=0|290=1|10=154|
20150520-11:47:51.116: 8=FIX.4.4|9=138|35=X|34=358|49=MDFHBLP|52=20150520-11:47:51.438|56=ALGOARBADR4|262=71010593cc924fc5|268=1|279=1|269=5|55=CLP DTTC CURNCY|270=605.65|290=1|10=136|
20150520-11:47:51.117: 8=FIX.4.4|9=139|35=X|34=359|49=MDFHBLP|52=20150520-11:47:51.439|56=ALGOARBADR4|262=-6ebd1efab5e2b15e|268=1|279=1|269=5|55=CLP DTTC CURNCY|270=605.65|290=1|10=212|
20150520-11:48:22.197: 8=FIX.4.4|9=62|35=0|34=41|49=ALGOARBADR4|52=20150520-11:48:22.197|56=MDFHBLP|10=010|
20150520-11:48:43.607: 8=FIX.4.4|9=144|35=X|34=360|49=MDFHBLP|52=20150520-11:48:43.930|56=ALGOARBADR4|262=71010593cc924fc5|268=1|279=1|269=0|55=CLP DTTC CURNCY|270=605.55|271=0|290=1|10=127|
20150520-11:48:43.607: 8=FIX.4.4|9=145|35=X|34=361|49=MDFHBLP|52=20150520-11:48:43.931|56=ALGOARBADR4|262=-6ebd1efab5e2b15e|268=1|279=1|269=0|55=CLP DTTC CURNCY|270=605.55|271=0|290=1|10=203|
20150520-11:48:43.609: 8=FIX.4.4|9=144|35=X|34=362|49=MDFHBLP|52=20150520-11:48:43.932|56=ALGOARBADR4|262=71010593cc924fc5|268=1|279=1|269=0|55=CLP DTTC CURNCY|270=605.55|271=0|290=1|10=131|
20150520-11:48:43.609: 8=FIX.4.4|9=145|35=X|34=363|49=MDFHBLP|52=20150520-11:48:43.933|56=ALGOARBADR4|262=-6ebd1efab5e2b15e|268=1|279=1|269=0|55=CLP DTTC CURNCY|270=605.55|271=0|290=1|10=207|
20150520-11:48:43.611: 8=FIX.4.4|9=138|35=X|34=364|49=MDFHBLP|52=20150520-11:48:43.934|56=ALGOARBADR4|262=71010593cc924fc5|268=1|279=1|269=5|55=CLP DTTC CURNCY|270=605.53|290=1|10=133|
20150520-11:48:43.611: 8=FIX.4.4|9=139|35=X|34=365|49=MDFHBLP|52=20150520-11:48:43.935|56=ALGOARBADR4|262=-6ebd1efab5e2b15e|268=1|279=1|269=5|55=CLP DTTC CURNCY|270=605.53|290=1|10=209|
20150520-11:48:43.616: 8=FIX.4.4|9=138|35=X|34=366|49=MDFHBLP|52=20150520-11:48:43.940|56=ALGOARBADR4|262=71010593cc924fc5|268=1|279=1|269=5|55=CLP DTTC CURNCY|270=605.63|290=1|10=133|
20150520-11:48:43.617: 8=FIX.4.4|9=139|35=X|34=367|49=MDFHBLP|52=20150520-11:48:43.941|56=ALGOARBADR4|262=-6ebd1efab5e2b15e|268=1|279=1|269=5|55=CLP DTTC CURNCY|270=605.63|290=1|10=209|
20150520-11:49:17.702: 8=FIX.4.4|9=144|35=X|34=368|49=MDFHBLP|52=20150520-11:49:18.027|56=ALGOARBADR4|262=71010593cc924fc5|268=1|279=1|269=1|55=CLP DTTC CURNCY|270=605.65|271=0|290=1|10=137|
20150520-11:49:17.703: 8=FIX.4.4|9=145|35=X|34=369|49=MDFHBLP|52=20150520-11:49:18.027|56=ALGOARBADR4|262=-6ebd1efab5e2b15e|268=1|279=1|269=1|55=CLP DTTC CURNCY|270=605.65|271=0|290=1|10=212|
20150520-11:49:17.704: 8=FIX.4.4|9=137|35=X|34=370|49=MDFHBLP|52=20150520-11:49:18.029|56=ALGOARBADR4|262=71010593cc924fc5|268=1|279=1|269=5|55=CLP DTTC CURNCY|270=605.6|290=1|10=077|
20150520-11:49:17.705: 8=FIX.4.4|9=138|35=X|34=371|49=MDFHBLP|52=20150520-11:49:18.030|56=ALGOARBADR4|262=-6ebd1efab5e2b15e|268=1|279=1|269=5|55=CLP DTTC CURNCY|270=605.6|290=1|10=144|
20150520-11:49:18.139: 8=FIX.4.4|9=144|35=X|34=372|49=MDFHBLP|52=20150520-11:49:18.463|56=ALGOARBADR4|262=71010593cc924fc5|268=1|279=1|269=0|55=CLP DTTC CURNCY|270=605.35|271=0|290=1|10=132|
20150520-11:49:18.139: 8=FIX.4.4|9=145|35=X|34=373|49=MDFHBLP|52=20150520-11:49:18.464|56=ALGOARBADR4|262=-6ebd1efab5e2b15e|268=1|279=1|269=0|55=CLP DTTC CURNCY|270=605.35|271=0|290=1|10=208|
20150520-11:49:18.141: 8=FIX.4.4|9=137|35=X|34=374|49=MDFHBLP|52=20150520-11:49:18.466|56=ALGOARBADR4|262=71010593cc924fc5|268=1|279=1|269=5|55=CLP DTTC CURNCY|270=605.5|290=1|10=085|
20150520-11:49:18.141: 8=FIX.4.4|9=138|35=X|34=375|49=MDFHBLP|52=20150520-11:49:18.466|56=ALGOARBADR4|262=-6ebd1efab5e2b15e|268=1|279=1|269=5|55=CLP DTTC CURNCY|270=605.5|290=1|10=160|
20150520-11:49:21.066: 8=FIX.4.4|9=143|35=X|34=376|49=MDFHBLP|52=20150520-11:49:21.391|56=ALGOARBADR4|262=71010593cc924fc5|268=1|279=1|269=0|55=CLP DTTC CURNCY|270=605.5|271=0|290=1|10=078|
20150520-11:49:21.068: 8=FIX.4.4|9=144|35=X|34=377|49=MDFHBLP|52=20150520-11:49:21.392|56=ALGOARBADR4|262=-6ebd1efab5e2b15e|268=1|279=1|269=0|55=CLP DTTC CURNCY|270=605.5|271=0|290=1|10=154|
20150520-11:49:21.069: 8=FIX.4.4|9=138|35=X|34=378|49=MDFHBLP|52=20150520-11:49:21.393|56=ALGOARBADR4|262=71010593cc924fc5|268=1|279=1|269=5|55=CLP DTTC CURNCY|270=605.57|290=1|10=138|
20150520-11:49:21.069: 8=FIX.4.4|9=139|35=X|34=379|49=MDFHBLP|52=20150520-11:49:21.394|56=ALGOARBADR4|262=-6ebd1efab5e2b15e|268=1|279=1|269=5|55=CLP DTTC CURNCY|270=605.57|290=1|10=214|
20150520-11:49:22.197: 8=FIX.4.4|9=62|35=0|34=42|49=ALGOARBADR4|52=20150520-11:49:22.197|56=MDFHBLP|10=012|
20150520-11:49:22.748: 8=FIX.4.4|9=144|35=X|34=380|49=MDFHBLP|52=20150520-11:49:23.073|56=ALGOARBADR4|262=71010593cc924fc5|268=1|279=1|269=0|55=CLP DTTC CURNCY|270=605.35|271=0|290=1|10=124|
20150520-11:49:22.749: 8=FIX.4.4|9=145|35=X|34=381|49=MDFHBLP|52=20150520-11:49:23.073|56=ALGOARBADR4|262=-6ebd1efab5e2b15e|268=1|279=1|269=0|55=CLP DTTC CURNCY|270=605.35|271=0|290=1|10=199|
20150520-11:49:22.751: 8=FIX.4.4|9=137|35=X|34=382|49=MDFHBLP|52=20150520-11:49:23.076|56=ALGOARBADR4|262=71010593cc924fc5|268=1|279=1|269=5|55=CLP DTTC CURNCY|270=605.5|290=1|10=077|
20150520-11:49:22.751: 8=FIX.4.4|9=138|35=X|34=383|49=MDFHBLP|52=20150520-11:49:23.076|56=ALGOARBADR4|262=-6ebd1efab5e2b15e|268=1|279=1|269=5|55=CLP DTTC CURNCY|270=605.5|290=1|10=152|
20150520-11:49:24.086: 8=FIX.4.4|9=143|35=X|34=384|49=MDFHBLP|52=20150520-11:49:24.411|56=ALGOARBADR4|262=71010593cc924fc5|268=1|279=1|269=0|55=CLP DTTC CURNCY|270=605.5|271=0|290=1|10=073|
20150520-11:49:24.086: 8=FIX.4.4|9=144|35=X|34=385|49=MDFHBLP|52=20150520-11:49:24.412|56=ALGOARBADR4|262=-6ebd1efab5e2b15e|268=1|279=1|269=0|55=CLP DTTC CURNCY|270=605.5|271=0|290=1|10=149|
20150520-11:49:24.087: 8=FIX.4.4|9=138|35=X|34=386|49=MDFHBLP|52=20150520-11:49:24.413|56=ALGOARBADR4|262=71010593cc924fc5|268=1|279=1|269=5|55=CLP DTTC CURNCY|270=605.57|290=1|10=133|
20150520-11:49:24.087: 8=FIX.4.4|9=139|35=X|34=387|49=MDFHBLP|52=20150520-11:49:24.413|56=ALGOARBADR4|262=-6ebd1efab5e2b15e|268=1|279=1|269=5|55=CLP DTTC CURNCY|270=605.57|290=1|10=208|
20150520-11:49:26.963: 8=FIX.4.4|9=143|35=X|34=388|49=MDFHBLP|52=20150520-11:49:27.288|56=ALGOARBADR4|262=71010593cc924fc5|268=1|279=1|269=1|55=CLP DTTC CURNCY|270=605.7|271=0|290=1|10=095|
20150520-11:49:26.963: 8=FIX.4.4|9=144|35=X|34=389|49=MDFHBLP|52=20150520-11:49:27.288|56=ALGOARBADR4|262=-6ebd1efab5e2b15e|268=1|279=1|269=1|55=CLP DTTC CURNCY|270=605.7|271=0|290=1|10=170|
20150520-11:49:26.965: 8=FIX.4.4|9=137|35=X|34=390|49=MDFHBLP|52=20150520-11:49:27.290|56=ALGOARBADR4|262=71010593cc924fc5|268=1|279=1|269=5|55=CLP DTTC CURNCY|270=605.6|290=1|10=079|
20150520-11:49:26.966: 8=FIX.4.4|9=138|35=X|34=391|49=MDFHBLP|52=20150520-11:49:27.291|56=ALGOARBADR4|262=-6ebd1efab5e2b15e|268=1|279=1|269=5|55=CLP DTTC CURNCY|270=605.6|290=1|10=155|
20150520-11:49:29.493: 8=FIX.4.4|9=144|35=X|34=392|49=MDFHBLP|52=20150520-11:49:29.818|56=ALGOARBADR4|262=71010593cc924fc5|268=1|279=1|269=1|55=CLP DTTC CURNCY|270=605.65|271=0|290=1|10=144|
20150520-11:49:29.495: 8=FIX.4.4|9=145|35=X|34=393|49=MDFHBLP|52=20150520-11:49:29.819|56=ALGOARBADR4|262=-6ebd1efab5e2b15e|268=1|279=1|269=1|55=CLP DTTC CURNCY|270=605.65|271=0|290=1|10=220|
20150520-11:49:29.496: 8=FIX.4.4|9=138|35=X|34=394|49=MDFHBLP|52=20150520-11:49:29.821|56=ALGOARBADR4|262=71010593cc924fc5|268=1|279=1|269=5|55=CLP DTTC CURNCY|270=605.57|290=1|10=140|
20150520-11:49:29.496: 8=FIX.4.4|9=139|35=X|34=395|49=MDFHBLP|52=20150520-11:49:29.821|56=ALGOARBADR4|262=-6ebd1efab5e2b15e|268=1|279=1|269=5|55=CLP DTTC CURNCY|270=605.57|290=1|10=215|
20150520-11:49:38.040: 8=FIX.4.4|9=143|35=X|34=396|49=MDFHBLP|52=20150520-11:49:38.365|56=ALGOARBADR4|262=71010593cc924fc5|268=1|279=1|269=1|55=CLP DTTC CURNCY|270=605.7|271=0|290=1|10=092|
20150520-11:49:38.048: 8=FIX.4.4|9=144|35=X|34=397|49=MDFHBLP|52=20150520-11:49:38.366|56=ALGOARBADR4|262=-6ebd1efab5e2b15e|268=1|279=1|269=1|55=CLP DTTC CURNCY|270=605.7|271=0|290=1|10=168|
20150520-11:49:38.048: 8=FIX.4.4|9=137|35=X|34=398|49=MDFHBLP|52=20150520-11:49:38.367|56=ALGOARBADR4|262=71010593cc924fc5|268=1|279=1|269=5|55=CLP DTTC CURNCY|270=605.6|290=1|10=094|
20150520-11:49:38.048: 8=FIX.4.4|9=138|35=X|34=399|49=MDFHBLP|52=20150520-11:49:38.368|56=ALGOARBADR4|262=-6ebd1efab5e2b15e|268=1|279=1|269=5|55=CLP DTTC CURNCY|270=605.6|290=1|10=170|
20150520-11:49:58.244: 8=FIX.4.4|9=144|35=X|34=400|49=MDFHBLP|52=20150520-11:49:58.569|56=ALGOARBADR4|262=71010593cc924fc5|268=1|279=1|269=0|55=CLP DTTC CURNCY|270=605.35|271=0|290=1|10=135|
20150520-11:49:58.244: 8=FIX.4.4|9=145|35=X|34=401|49=MDFHBLP|52=20150520-11:49:58.570|56=ALGOARBADR4|262=-6ebd1efab5e2b15e|268=1|279=1|269=0|55=CLP DTTC CURNCY|270=605.35|271=0|290=1|10=202|
20150520-11:49:58.246: 8=FIX.4.4|9=138|35=X|34=402|49=MDFHBLP|52=20150520-11:49:58.572|56=ALGOARBADR4|262=71010593cc924fc5|268=1|279=1|269=5|55=CLP DTTC CURNCY|270=605.53|290=1|10=131|
20150520-11:49:58.246: 8=FIX.4.4|9=139|35=X|34=403|49=MDFHBLP|52=20150520-11:49:58.572|56=ALGOARBADR4|262=-6ebd1efab5e2b15e|268=1|279=1|269=5|55=CLP DTTC CURNCY|270=605.53|290=1|10=206|
20150520-11:49:58.248: 8=FIX.4.4|9=144|35=X|34=404|49=MDFHBLP|52=20150520-11:49:58.574|56=ALGOARBADR4|262=71010593cc924fc5|268=1|279=1|269=0|55=CLP DTTC CURNCY|270=605.35|271=0|290=1|10=135|
20150520-11:49:58.249: 8=FIX.4.4|9=145|35=X|34=405|49=MDFHBLP|52=20150520-11:49:58.575|56=ALGOARBADR4|262=-6ebd1efab5e2b15e|268=1|279=1|269=0|55=CLP DTTC CURNCY|270=605.35|271=0|290=1|10=211|
20150520-11:49:58.250: 8=FIX.4.4|9=138|35=X|34=406|49=MDFHBLP|52=20150520-11:49:58.576|56=ALGOARBADR4|262=71010593cc924fc5|268=1|279=1|269=5|55=CLP DTTC CURNCY|270=605.53|290=1|10=139|
20150520-11:49:58.251: 8=FIX.4.4|9=139|35=X|34=407|49=MDFHBLP|52=20150520-11:49:58.577|56=ALGOARBADR4|262=-6ebd1efab5e2b15e|268=1|279=1|269=5|55=CLP DTTC CURNCY|270=605.53|290=1|10=215|
20150520-11:50:18.041: 8=FIX.4.4|9=143|35=X|34=408|49=MDFHBLP|52=20150520-11:50:18.367|56=ALGOARBADR4|262=71010593cc924fc5|268=1|279=1|269=0|55=CLP DTTC CURNCY|270=605.5|271=0|290=1|10=075|
20150520-11:50:18.041: 8=FIX.4.4|9=144|35=X|34=409|49=MDFHBLP|52=20150520-11:50:18.368|56=ALGOARBADR4|262=-6ebd1efab5e2b15e|268=1|279=1|269=0|55=CLP DTTC CURNCY|270=605.5|271=0|290=1|10=151|
20150520-11:50:18.043: 8=FIX.4.4|9=137|35=X|34=410|49=MDFHBLP|52=20150520-11:50:18.369|56=ALGOARBADR4|262=71010593cc924fc5|268=1|279=1|269=5|55=CLP DTTC CURNCY|270=605.6|290=1|10=071|
20150520-11:50:18.043: 8=FIX.4.4|9=138|35=X|34=411|49=MDFHBLP|52=20150520-11:50:18.370|56=ALGOARBADR4|262=-6ebd1efab5e2b15e|268=1|279=1|269=5|55=CLP DTTC CURNCY|270=605.6|290=1|10=138|
20150520-11:50:22.197: 8=FIX.4.4|9=62|35=0|34=43|49=ALGOARBADR4|52=20150520-11:50:22.197|56=MDFHBLP|10=005|
20150520-11:51:07.736: 8=FIX.4.4|9=143|35=X|34=412|49=MDFHBLP|52=20150520-11:51:08.064|56=ALGOARBADR4|262=71010593cc924fc5|268=1|279=1|269=0|55=CLP DTTC CURNCY|270=605.4|271=0|290=1|10=063|
20150520-11:51:07.737: 8=FIX.4.4|9=144|35=X|34=413|49=MDFHBLP|52=20150520-11:51:08.064|56=ALGOARBADR4|262=-6ebd1efab5e2b15e|268=1|279=1|269=0|55=CLP DTTC CURNCY|270=605.4|271=0|290=1|10=138|
20150520-11:51:07.739: 8=FIX.4.4|9=138|35=X|34=414|49=MDFHBLP|52=20150520-11:51:08.066|56=ALGOARBADR4|262=71010593cc924fc5|268=1|279=1|269=5|55=CLP DTTC CURNCY|270=605.55|290=1|10=122|
20150520-11:51:07.740: 8=FIX.4.4|9=139|35=X|34=415|49=MDFHBLP|52=20150520-11:51:08.067|56=ALGOARBADR4|262=-6ebd1efab5e2b15e|268=1|279=1|269=5|55=CLP DTTC CURNCY|270=605.55|290=1|10=198|
20150520-11:51:08.021: 8=FIX.4.4|9=144|35=X|34=416|49=MDFHBLP|52=20150520-11:51:08.348|56=ALGOARBADR4|262=71010593cc924fc5|268=1|279=1|269=0|55=CLP DTTC CURNCY|270=605.35|271=0|290=1|10=125|
20150520-11:51:08.021: 8=FIX.4.4|9=145|35=X|34=417|49=MDFHBLP|52=20150520-11:51:08.349|56=ALGOARBADR4|262=-6ebd1efab5e2b15e|268=1|279=1|269=0|55=CLP DTTC CURNCY|270=605.35|271=0|290=1|10=201|
20150520-11:51:08.023: 8=FIX.4.4|9=138|35=X|34=418|49=MDFHBLP|52=20150520-11:51:08.351|56=ALGOARBADR4|262=71010593cc924fc5|268=1|279=1|269=5|55=CLP DTTC CURNCY|270=605.53|290=1|10=121|
20150520-11:51:08.024: 8=FIX.4.4|9=139|35=X|34=419|49=MDFHBLP|52=20150520-11:51:08.351|56=ALGOARBADR4|262=-6ebd1efab5e2b15e|268=1|279=1|269=5|55=CLP DTTC CURNCY|270=605.53|290=1|10=196|
20150520-11:51:11.164: 8=FIX.4.4|9=143|35=X|34=420|49=MDFHBLP|52=20150520-11:51:11.492|56=ALGOARBADR4|262=71010593cc924fc5|268=1|279=1|269=0|55=CLP DTTC CURNCY|270=605.3|271=0|290=1|10=060|
20150520-11:51:11.165: 8=FIX.4.4|9=144|35=X|34=421|49=MDFHBLP|52=20150520-11:51:11.492|56=ALGOARBADR4|262=-6ebd1efab5e2b15e|268=1|279=1|269=0|55=CLP DTTC CURNCY|270=605.3|271=0|290=1|10=135|
20150520-11:51:11.167: 8=FIX.4.4|9=137|35=X|34=422|49=MDFHBLP|52=20150520-11:51:11.494|56=ALGOARBADR4|262=71010593cc924fc5|268=1|279=1|269=5|55=CLP DTTC CURNCY|270=605.5|290=1|10=066|
20150520-11:51:11.167: 8=FIX.4.4|9=138|35=X|34=423|49=MDFHBLP|52=20150520-11:51:11.495|56=ALGOARBADR4|262=-6ebd1efab5e2b15e|268=1|279=1|269=5|55=CLP DTTC CURNCY|270=605.5|290=1|10=142|
20150520-11:51:15.076: 8=FIX.4.4|9=144|35=X|34=424|49=MDFHBLP|52=20150520-11:51:15.404|56=ALGOARBADR4|262=71010593cc924fc5|268=1|279=1|269=0|55=CLP DTTC CURNCY|270=605.35|271=0|290=1|10=115|
20150520-11:51:15.077: 8=FIX.4.4|9=145|35=X|34=425|49=MDFHBLP|52=20150520-11:51:15.405|56=ALGOARBADR4|262=-6ebd1efab5e2b15e|268=1|279=1|269=0|55=CLP DTTC CURNCY|270=605.35|271=0|290=1|10=191|
20150520-11:51:15.080: 8=FIX.4.4|9=138|35=X|34=426|49=MDFHBLP|52=20150520-11:51:15.408|56=ALGOARBADR4|262=71010593cc924fc5|268=1|279=1|269=5|55=CLP DTTC CURNCY|270=605.53|290=1|10=121|
20150520-11:51:15.081: 8=FIX.4.4|9=139|35=X|34=427|49=MDFHBLP|52=20150520-11:51:15.409|56=ALGOARBADR4|262=-6ebd1efab5e2b15e|268=1|279=1|269=5|55=CLP DTTC CURNCY|270=605.53|290=1|10=197|
20150520-11:51:18.073: 8=FIX.4.4|9=143|35=X|34=428|49=MDFHBLP|52=20150520-11:51:18.401|56=ALGOARBADR4|262=71010593cc924fc5|268=1|279=1|269=0|55=CLP DTTC CURNCY|270=605.3|271=0|290=1|10=065|
20150520-11:51:18.074: 8=FIX.4.4|9=144|35=X|34=429|49=MDFHBLP|52=20150520-11:51:18.402|56=ALGOARBADR4|262=-6ebd1efab5e2b15e|268=1|279=1|269=0|55=CLP DTTC CURNCY|270=605.3|271=0|290=1|10=141|
20150520-11:51:18.075: 8=FIX.4.4|9=137|35=X|34=430|49=MDFHBLP|52=20150520-11:51:18.403|56=ALGOARBADR4|262=71010593cc924fc5|268=1|279=1|269=5|55=CLP DTTC CURNCY|270=605.5|290=1|10=062|
20150520-11:51:18.076: 8=FIX.4.4|9=138|35=X|34=431|49=MDFHBLP|52=20150520-11:51:18.404|56=ALGOARBADR4|262=-6ebd1efab5e2b15e|268=1|279=1|269=5|55=CLP DTTC CURNCY|270=605.5|290=1|10=138|
20150520-11:51:22.197: 8=FIX.4.4|9=62|35=0|34=44|49=ALGOARBADR4|52=20150520-11:51:22.197|56=MDFHBLP|10=007|
20150520-11:51:22.604: 8=FIX.4.4|9=143|35=X|34=432|49=MDFHBLP|52=20150520-11:51:22.931|56=ALGOARBADR4|262=71010593cc924fc5|268=1|279=1|269=0|55=CLP DTTC CURNCY|270=605.2|271=0|290=1|10=062|
20150520-11:51:22.607: 8=FIX.4.4|9=144|35=X|34=433|49=MDFHBLP|52=20150520-11:51:22.931|56=ALGOARBADR4|262=-6ebd1efab5e2b15e|268=1|279=1|269=0|55=CLP DTTC CURNCY|270=605.2|271=0|290=1|10=137|
20150520-11:51:22.607: 8=FIX.4.4|9=138|35=X|34=434|49=MDFHBLP|52=20150520-11:51:22.933|56=ALGOARBADR4|262=71010593cc924fc5|268=1|279=1|269=5|55=CLP DTTC CURNCY|270=605.45|290=1|10=122|
20150520-11:51:22.607: 8=FIX.4.4|9=139|35=X|34=435|49=MDFHBLP|52=20150520-11:51:22.934|56=ALGOARBADR4|262=-6ebd1efab5e2b15e|268=1|279=1|269=5|55=CLP DTTC CURNCY|270=605.45|290=1|10=198|
20150520-11:51:25.433: 8=FIX.4.4|9=143|35=X|34=436|49=MDFHBLP|52=20150520-11:51:25.762|56=ALGOARBADR4|262=71010593cc924fc5|268=1|279=1|269=1|55=CLP DTTC CURNCY|270=605.5|271=0|290=1|10=075|
20150520-11:51:25.434: 8=FIX.4.4|9=144|35=X|34=437|49=MDFHBLP|52=20150520-11:51:25.762|56=ALGOARBADR4|262=-6ebd1efab5e2b15e|268=1|279=1|269=1|55=CLP DTTC CURNCY|270=605.5|271=0|290=1|10=150|
20150520-11:51:25.435: 8=FIX.4.4|9=138|35=X|34=438|49=MDFHBLP|52=20150520-11:51:25.764|56=ALGOARBADR4|262=71010593cc924fc5|268=1|279=1|269=5|55=CLP DTTC CURNCY|270=605.35|290=1|10=130|
20150520-11:51:25.436: 8=FIX.4.4|9=139|35=X|34=439|49=MDFHBLP|52=20150520-11:51:25.764|56=ALGOARBADR4|262=-6ebd1efab5e2b15e|268=1|279=1|269=5|55=CLP DTTC CURNCY|270=605.35|290=1|10=205|
20150520-11:51:30.387: 8=FIX.4.4|9=144|35=X|34=440|49=MDFHBLP|52=20150520-11:51:30.715|56=ALGOARBADR4|262=71010593cc924fc5|268=1|279=1|269=0|55=CLP DTTC CURNCY|270=605.25|271=0|290=1|10=114|
20150520-11:51:30.388: 8=FIX.4.4|9=145|35=X|34=441|49=MDFHBLP|52=20150520-11:51:30.716|56=ALGOARBADR4|262=-6ebd1efab5e2b15e|268=1|279=1|269=0|55=CLP DTTC CURNCY|270=605.25|271=0|290=1|10=190|
20150520-11:51:30.390: 8=FIX.4.4|9=138|35=X|34=442|49=MDFHBLP|52=20150520-11:51:30.718|56=ALGOARBADR4|262=71010593cc924fc5|268=1|279=1|269=5|55=CLP DTTC CURNCY|270=605.38|290=1|10=123|
20150520-11:51:30.390: 8=FIX.4.4|9=139|35=X|34=443|49=MDFHBLP|52=20150520-11:51:30.718|56=ALGOARBADR4|262=-6ebd1efab5e2b15e|268=1|279=1|269=5|55=CLP DTTC CURNCY|270=605.38|290=1|10=198|
20150520-11:51:32.717: 8=FIX.4.4|9=143|35=X|34=444|49=MDFHBLP|52=20150520-11:51:33.044|56=ALGOARBADR4|262=71010593cc924fc5|268=1|279=1|269=0|55=CLP DTTC CURNCY|270=605.3|271=0|290=1|10=063|
20150520-11:51:32.718: 8=FIX.4.4|9=144|35=X|34=445|49=MDFHBLP|52=20150520-11:51:33.045|56=ALGOARBADR4|262=-6ebd1efab5e2b15e|268=1|279=1|269=0|55=CLP DTTC CURNCY|270=605.3|271=0|290=1|10=139|
20150520-11:51:32.718: 8=FIX.4.4|9=137|35=X|34=446|49=MDFHBLP|52=20150520-11:51:33.046|56=ALGOARBADR4|262=71010593cc924fc5|268=1|279=1|269=5|55=CLP DTTC CURNCY|270=605.4|290=1|10=068|
20150520-11:51:32.719: 8=FIX.4.4|9=138|35=X|34=447|49=MDFHBLP|52=20150520-11:51:33.047|56=ALGOARBADR4|262=-6ebd1efab5e2b15e|268=1|279=1|269=5|55=CLP DTTC CURNCY|270=605.4|290=1|10=144|
20150520-11:51:59.418: 8=FIX.4.4|9=143|35=X|34=448|49=MDFHBLP|52=20150520-11:51:59.746|56=ALGOARBADR4|262=71010593cc924fc5|268=1|279=1|269=1|55=CLP DTTC CURNCY|270=605.6|271=0|290=1|10=088|
20150520-11:51:59.418: 8=FIX.4.4|9=144|35=X|34=449|49=MDFHBLP|52=20150520-11:51:59.747|56=ALGOARBADR4|262=-6ebd1efab5e2b15e|268=1|279=1|269=1|55=CLP DTTC CURNCY|270=605.6|271=0|290=1|10=164|
20150520-11:51:59.420: 8=FIX.4.4|9=138|35=X|34=450|49=MDFHBLP|52=20150520-11:51:59.749|56=ALGOARBADR4|262=71010593cc924fc5|268=1|279=1|269=5|55=CLP DTTC CURNCY|270=605.45|290=1|10=135|
20150520-11:51:59.421: 8=FIX.4.4|9=139|35=X|34=451|49=MDFHBLP|52=20150520-11:51:59.749|56=ALGOARBADR4|262=-6ebd1efab5e2b15e|268=1|279=1|269=5|55=CLP DTTC CURNCY|270=605.45|290=1|10=210|
20150520-11:52:02.277: 8=FIX.4.4|9=143|35=X|34=452|49=MDFHBLP|52=20150520-11:52:02.605|56=ALGOARBADR4|262=71010593cc924fc5|268=1|279=1|269=1|55=CLP DTTC CURNCY|270=605.4|271=0|290=1|10=064|
20150520-11:52:02.277: 8=FIX.4.4|9=144|35=X|34=453|49=MDFHBLP|52=20150520-11:52:02.606|56=ALGOARBADR4|262=-6ebd1efab5e2b15e|268=1|279=1|269=1|55=CLP DTTC CURNCY|270=605.4|271=0|290=1|10=140|
20150520-11:52:02.280: 8=FIX.4.4|9=138|35=X|34=454|49=MDFHBLP|52=20150520-11:52:02.608|56=ALGOARBADR4|262=71010593cc924fc5|268=1|279=1|269=5|55=CLP DTTC CURNCY|270=605.35|290=1|10=121|
20150520-11:52:02.280: 8=FIX.4.4|9=139|35=X|34=455|49=MDFHBLP|52=20150520-11:52:02.609|56=ALGOARBADR4|262=-6ebd1efab5e2b15e|268=1|279=1|269=5|55=CLP DTTC CURNCY|270=605.35|290=1|10=197|
20150520-11:52:23.197: 8=FIX.4.4|9=62|35=0|34=45|49=ALGOARBADR4|52=20150520-11:52:23.196|56=MDFHBLP|10=009|
20150520-11:52:29.126: 8=FIX.4.4|9=143|35=X|34=456|49=MDFHBLP|52=20150520-11:52:29.456|56=ALGOARBADR4|262=71010593cc924fc5|268=1|279=1|269=0|55=CLP DTTC CURNCY|270=605.2|271=0|290=1|10=078|
20150520-11:52:29.127: 8=FIX.4.4|9=144|35=X|34=457|49=MDFHBLP|52=20150520-11:52:29.456|56=ALGOARBADR4|262=-6ebd1efab5e2b15e|268=1|279=1|269=0|55=CLP DTTC CURNCY|270=605.2|271=0|290=1|10=153|
20150520-11:52:29.128: 8=FIX.4.4|9=137|35=X|34=458|49=MDFHBLP|52=20150520-11:52:29.458|56=ALGOARBADR4|262=71010593cc924fc5|268=1|279=1|269=5|55=CLP DTTC CURNCY|270=605.3|290=1|10=083|
20150520-11:52:29.129: 8=FIX.4.4|9=138|35=X|34=459|49=MDFHBLP|52=20150520-11:52:29.459|56=ALGOARBADR4|262=-6ebd1efab5e2b15e|268=1|279=1|269=5|55=CLP DTTC CURNCY|270=605.3|290=1|10=159|
20150520-11:52:33.710: 8=FIX.4.4|9=143|35=X|34=460|49=MDFHBLP|52=20150520-11:52:34.039|56=ALGOARBADR4|262=71010593cc924fc5|268=1|279=1|269=0|55=CLP DTTC CURNCY|270=605.1|271=0|290=1|10=065|
20150520-11:52:33.710: 8=FIX.4.4|9=144|35=X|34=461|49=MDFHBLP|52=20150520-11:52:34.040|56=ALGOARBADR4|262=-6ebd1efab5e2b15e|268=1|279=1|269=0|55=CLP DTTC CURNCY|270=605.1|271=0|290=1|10=132|
20150520-11:52:33.712: 8=FIX.4.4|9=138|35=X|34=462|49=MDFHBLP|52=20150520-11:52:34.041|56=ALGOARBADR4|262=71010593cc924fc5|268=1|279=1|269=5|55=CLP DTTC CURNCY|270=605.25|290=1|10=115|
20150520-11:52:33.712: 8=FIX.4.4|9=139|35=X|34=463|49=MDFHBLP|52=20150520-11:52:34.042|56=ALGOARBADR4|262=-6ebd1efab5e2b15e|268=1|279=1|269=5|55=CLP DTTC CURNCY|270=605.25|290=1|10=191|
20150520-11:52:34.423: 8=FIX.4.4|9=141|35=X|34=464|49=MDFHBLP|52=20150520-11:52:34.753|56=ALGOARBADR4|262=71010593cc924fc5|268=1|279=1|269=0|55=CLP DTTC CURNCY|270=605|271=0|290=1|10=231|
20150520-11:52:34.424: 8=FIX.4.4|9=142|35=X|34=465|49=MDFHBLP|52=20150520-11:52:34.754|56=ALGOARBADR4|262=-6ebd1efab5e2b15e|268=1|279=1|269=0|55=CLP DTTC CURNCY|270=605|271=0|290=1|10=051|
20150520-11:52:34.426: 8=FIX.4.4|9=137|35=X|34=466|49=MDFHBLP|52=20150520-11:52:34.756|56=ALGOARBADR4|262=71010593cc924fc5|268=1|279=1|269=5|55=CLP DTTC CURNCY|270=605.2|290=1|10=078|
20150520-11:52:34.426: 8=FIX.4.4|9=138|35=X|34=467|49=MDFHBLP|52=20150520-11:52:34.756|56=ALGOARBADR4|262=-6ebd1efab5e2b15e|268=1|279=1|269=5|55=CLP DTTC CURNCY|270=605.2|290=1|10=153|
20150520-11:52:41.638: 8=FIX.4.4|9=144|35=X|34=468|49=MDFHBLP|52=20150520-11:52:41.968|56=ALGOARBADR4|262=71010593cc924fc5|268=1|279=1|269=1|55=CLP DTTC CURNCY|270=605.35|271=0|290=1|10=139|
20150520-11:52:41.639: 8=FIX.4.4|9=145|35=X|34=469|49=MDFHBLP|52=20150520-11:52:41.968|56=ALGOARBADR4|262=-6ebd1efab5e2b15e|268=1|279=1|269=1|55=CLP DTTC CURNCY|270=605.35|271=0|290=1|10=214|
20150520-11:52:41.640: 8=FIX.4.4|9=138|35=X|34=470|49=MDFHBLP|52=20150520-11:52:41.970|56=ALGOARBADR4|262=71010593cc924fc5|268=1|279=1|269=5|55=CLP DTTC CURNCY|270=605.18|290=1|10=125|
20150520-11:52:41.641: 8=FIX.4.4|9=139|35=X|34=471|49=MDFHBLP|52=20150520-11:52:41.970|56=ALGOARBADR4|262=-6ebd1efab5e2b15e|268=1|279=1|269=5|55=CLP DTTC CURNCY|270=605.18|290=1|10=200|
20150520-11:52:44.436: 8=FIX.4.4|9=144|35=X|34=472|49=MDFHBLP|52=20150520-11:52:44.767|56=ALGOARBADR4|262=71010593cc924fc5|268=1|279=1|269=0|55=CLP DTTC CURNCY|270=604.95|271=0|290=1|10=138|
20150520-11:52:44.437: 8=FIX.4.4|9=145|35=X|34=473|49=MDFHBLP|52=20150520-11:52:44.767|56=ALGOARBADR4|262=-6ebd1efab5e2b15e|268=1|279=1|269=0|55=CLP DTTC CURNCY|270=604.95|271=0|290=1|10=213|
20150520-11:52:44.438: 8=FIX.4.4|9=138|35=X|34=474|49=MDFHBLP|52=20150520-11:52:44.768|56=ALGOARBADR4|262=71010593cc924fc5|268=1|279=1|269=5|55=CLP DTTC CURNCY|270=605.15|290=1|10=134|
20150520-11:52:44.438: 8=FIX.4.4|9=139|35=X|34=475|49=MDFHBLP|52=20150520-11:52:44.768|56=ALGOARBADR4|262=-6ebd1efab5e2b15e|268=1|279=1|269=5|55=CLP DTTC CURNCY|270=605.15|290=1|10=209|
20150520-11:52:45.097: 8=FIX.4.4|9=143|35=X|34=476|49=MDFHBLP|52=20150520-11:52:45.427|56=ALGOARBADR4|262=71010593cc924fc5|268=1|279=1|269=1|55=CLP DTTC CURNCY|270=605.3|271=0|290=1|10=078|
20150520-11:52:45.098: 8=FIX.4.4|9=144|35=X|34=477|49=MDFHBLP|52=20150520-11:52:45.428|56=ALGOARBADR4|262=-6ebd1efab5e2b15e|268=1|279=1|269=1|55=CLP DTTC CURNCY|270=605.3|271=0|290=1|10=154|
20150520-11:52:45.099: 8=FIX.4.4|9=138|35=X|34=478|49=MDFHBLP|52=20150520-11:52:45.430|56=ALGOARBADR4|262=71010593cc924fc5|268=1|279=1|269=5|55=CLP DTTC CURNCY|270=605.13|290=1|10=123|
20150520-11:52:45.100: 8=FIX.4.4|9=139|35=X|34=479|49=MDFHBLP|52=20150520-11:52:45.430|56=ALGOARBADR4|262=-6ebd1efab5e2b15e|268=1|279=1|269=5|55=CLP DTTC CURNCY|270=605.13|290=1|10=198|
20150520-11:52:48.382: 8=FIX.4.4|9=143|35=X|34=480|49=MDFHBLP|52=20150520-11:52:48.713|56=ALGOARBADR4|262=71010593cc924fc5|268=1|279=1|269=0|55=CLP DTTC CURNCY|270=604.9|271=0|290=1|10=078|
20150520-11:52:48.383: 8=FIX.4.4|9=144|35=X|34=481|49=MDFHBLP|52=20150520-11:52:48.713|56=ALGOARBADR4|262=-6ebd1efab5e2b15e|268=1|279=1|269=0|55=CLP DTTC CURNCY|270=604.9|271=0|290=1|10=153|
20150520-11:52:48.384: 8=FIX.4.4|9=137|35=X|34=482|49=MDFHBLP|52=20150520-11:52:48.715|56=ALGOARBADR4|262=71010593cc924fc5|268=1|279=1|269=5|55=CLP DTTC CURNCY|270=605.1|290=1|10=075|
20150520-11:52:48.385: 8=FIX.4.4|9=138|35=X|34=483|49=MDFHBLP|52=20150520-11:52:48.715|56=ALGOARBADR4|262=-6ebd1efab5e2b15e|268=1|279=1|269=5|55=CLP DTTC CURNCY|270=605.1|290=1|10=150|
20150520-11:52:51.073: 8=FIX.4.4|9=141|35=X|34=484|49=MDFHBLP|52=20150520-11:52:51.403|56=ALGOARBADR4|262=71010593cc924fc5|268=1|279=1|269=0|55=CLP DTTC CURNCY|270=605|271=0|290=1|10=224|
20150520-11:52:51.073: 8=FIX.4.4|9=142|35=X|34=485|49=MDFHBLP|52=20150520-11:52:51.403|56=ALGOARBADR4|262=-6ebd1efab5e2b15e|268=1|279=1|269=0|55=CLP DTTC CURNCY|270=605|271=0|290=1|10=043|
20150520-11:52:51.076: 8=FIX.4.4|9=138|35=X|34=486|49=MDFHBLP|52=20150520-11:52:51.406|56=ALGOARBADR4|262=71010593cc924fc5|268=1|279=1|269=5|55=CLP DTTC CURNCY|270=605.15|290=1|10=124|
20150520-11:52:51.076: 8=FIX.4.4|9=139|35=X|34=487|49=MDFHBLP|52=20150520-11:52:51.406|56=ALGOARBADR4|262=-6ebd1efab5e2b15e|268=1|279=1|269=5|55=CLP DTTC CURNCY|270=605.15|290=1|10=199|
20150520-11:52:53.278: 8=FIX.4.4|9=138|35=X|34=488|49=MDFHBLP|52=20150520-11:52:53.608|56=ALGOARBADR4|262=71010593cc924fc5|268=1|279=1|269=5|55=CLP DTTC CURNCY|270=605.05|290=1|10=131|
20150520-11:52:53.279: 8=FIX.4.4|9=139|35=X|34=489|49=MDFHBLP|52=20150520-11:52:53.609|56=ALGOARBADR4|262=-6ebd1efab5e2b15e|268=1|279=1|269=5|55=CLP DTTC CURNCY|270=605.05|290=1|10=207|
20150520-11:52:53.280: 8=FIX.4.4|9=143|35=X|34=490|49=MDFHBLP|52=20150520-11:52:53.610|56=ALGOARBADR4|262=71010593cc924fc5|268=1|279=1|269=0|55=CLP DTTC CURNCY|270=604.9|271=0|290=1|10=071|
20150520-11:52:53.280: 8=FIX.4.4|9=144|35=X|34=491|49=MDFHBLP|52=20150520-11:52:53.610|56=ALGOARBADR4|262=-6ebd1efab5e2b15e|268=1|279=1|269=0|55=CLP DTTC CURNCY|270=604.9|271=0|290=1|10=146|
20150520-11:52:53.281: 8=FIX.4.4|9=138|35=X|34=492|49=MDFHBLP|52=20150520-11:52:53.611|56=ALGOARBADR4|262=71010593cc924fc5|268=1|279=1|269=5|55=CLP DTTC CURNCY|270=605.05|290=1|10=120|
20150520-11:52:53.281: 8=FIX.4.4|9=139|35=X|34=493|49=MDFHBLP|52=20150520-11:52:53.611|56=ALGOARBADR4|262=-6ebd1efab5e2b15e|268=1|279=1|269=5|55=CLP DTTC CURNCY|270=605.05|290=1|10=195|
20150520-11:52:53.282: 8=FIX.4.4|9=143|35=X|34=494|49=MDFHBLP|52=20150520-11:52:53.612|56=ALGOARBADR4|262=71010593cc924fc5|268=1|279=1|269=1|55=CLP DTTC CURNCY|270=605.2|271=0|290=1|10=072|
20150520-11:52:53.284: 8=FIX.4.4|9=144|35=X|34=495|49=MDFHBLP|52=20150520-11:52:53.613|56=ALGOARBADR4|262=-6ebd1efab5e2b15e|268=1|279=1|269=1|55=CLP DTTC CURNCY|270=605.2|271=0|290=1|10=148|
20150520-11:53:06.513: 8=FIX.4.4|9=141|35=X|34=496|49=MDFHBLP|52=20150520-11:53:06.843|56=ALGOARBADR4|262=71010593cc924fc5|268=1|279=1|269=1|55=CLP DTTC CURNCY|270=605|271=0|290=1|10=237|
20150520-11:53:06.513: 8=FIX.4.4|9=142|35=X|34=497|49=MDFHBLP|52=20150520-11:53:06.844|56=ALGOARBADR4|262=-6ebd1efab5e2b15e|268=1|279=1|269=1|55=CLP DTTC CURNCY|270=605|271=0|290=1|10=057|
20150520-11:53:06.515: 8=FIX.4.4|9=138|35=X|34=498|49=MDFHBLP|52=20150520-11:53:06.846|56=ALGOARBADR4|262=71010593cc924fc5|268=1|279=1|269=5|55=CLP DTTC CURNCY|270=604.95|290=1|10=143|
20150520-11:53:06.516: 8=FIX.4.4|9=139|35=X|34=499|49=MDFHBLP|52=20150520-11:53:06.846|56=ALGOARBADR4|262=-6ebd1efab5e2b15e|268=1|279=1|269=5|55=CLP DTTC CURNCY|270=604.95|290=1|10=218|
20150520-11:53:11.906: 8=FIX.4.4|9=143|35=X|34=500|49=MDFHBLP|52=20150520-11:53:12.236|56=ALGOARBADR4|262=71010593cc924fc5|268=1|279=1|269=1|55=CLP DTTC CURNCY|270=605.2|271=0|290=1|10=058|
20150520-11:53:11.907: 8=FIX.4.4|9=144|35=X|34=501|49=MDFHBLP|52=20150520-11:53:12.237|56=ALGOARBADR4|262=-6ebd1efab5e2b15e|268=1|279=1|269=1|55=CLP DTTC CURNCY|270=605.2|271=0|290=1|10=134|
20150520-11:53:11.908: 8=FIX.4.4|9=138|35=X|34=502|49=MDFHBLP|52=20150520-11:53:12.239|56=ALGOARBADR4|262=71010593cc924fc5|268=1|279=1|269=5|55=CLP DTTC CURNCY|270=605.05|290=1|10=114|
20150520-11:53:11.909: 8=FIX.4.4|9=139|35=X|34=503|49=MDFHBLP|52=20150520-11:53:12.239|56=ALGOARBADR4|262=-6ebd1efab5e2b15e|268=1|279=1|269=5|55=CLP DTTC CURNCY|270=605.05|290=1|10=189|
20150520-11:53:11.911: 8=FIX.4.4|9=144|35=X|34=504|49=MDFHBLP|52=20150520-11:53:12.242|56=ALGOARBADR4|262=71010593cc924fc5|268=1|279=1|269=1|55=CLP DTTC CURNCY|270=605.05|271=0|290=1|10=111|
20150520-11:53:11.912: 8=FIX.4.4|9=145|35=X|34=505|49=MDFHBLP|52=20150520-11:53:12.242|56=ALGOARBADR4|262=-6ebd1efab5e2b15e|268=1|279=1|269=1|55=CLP DTTC CURNCY|270=605.05|271=0|290=1|10=186|
20150520-11:53:11.914: 8=FIX.4.4|9=138|35=X|34=506|49=MDFHBLP|52=20150520-11:53:12.244|56=ALGOARBADR4|262=71010593cc924fc5|268=1|279=1|269=5|55=CLP DTTC CURNCY|270=604.98|290=1|10=125|
20150520-11:53:11.915: 8=FIX.4.4|9=139|35=X|34=507|49=MDFHBLP|52=20150520-11:53:12.245|56=ALGOARBADR4|262=-6ebd1efab5e2b15e|268=1|279=1|269=5|55=CLP DTTC CURNCY|270=604.98|290=1|10=201|
20150520-11:53:23.197: 8=FIX.4.4|9=62|35=0|34=46|49=ALGOARBADR4|52=20150520-11:53:23.197|56=MDFHBLP|10=012|
20150520-11:53:35.108: 8=FIX.4.4|9=141|35=X|34=508|49=MDFHBLP|52=20150520-11:53:35.439|56=ALGOARBADR4|262=71010593cc924fc5|268=1|279=1|269=0|55=CLP DTTC CURNCY|270=605|271=0|290=1|10=233|
20150520-11:53:35.108: 8=FIX.4.4|9=142|35=X|34=509|49=MDFHBLP|52=20150520-11:53:35.440|56=ALGOARBADR4|262=-6ebd1efab5e2b15e|268=1|279=1|269=0|55=CLP DTTC CURNCY|270=605|271=0|290=1|10=044|
20150520-11:53:35.110: 8=FIX.4.4|9=138|35=X|34=510|49=MDFHBLP|52=20150520-11:53:35.441|56=ALGOARBADR4|262=71010593cc924fc5|268=1|279=1|269=5|55=CLP DTTC CURNCY|270=605.03|290=1|10=111|
20150520-11:53:35.110: 8=FIX.4.4|9=139|35=X|34=511|49=MDFHBLP|52=20150520-11:53:35.442|56=ALGOARBADR4|262=-6ebd1efab5e2b15e|268=1|279=1|269=5|55=CLP DTTC CURNCY|270=605.03|290=1|10=187|
