20150520-11:09:08.281: 8=FIX.4.4|9=56|35=5|34=1|49=adrbcs|52=20150520-11:09:08.281|56=to_xsgo|10=075|
20150520-11:09:09.207: 8=FIX.4.4|9=56|35=5|34=1|49=adrbcs|52=20150520-11:09:09.207|56=to_xsgo|10=074|
20150520-11:09:10.197: 8=FIX.4.4|9=74|35=A|34=1|49=adrbcs|52=20150520-11:09:10.197|56=to_xsgo|98=0|108=60|141=Y|10=159|
20150520-11:09:10.214: 8=FIX.4.4|9=74|35=A|34=1|49=to_xsgo|56=adrbcs|52=20150520-11:09:10.181|108=60|98=0|141=Y|10=152|
20150520-11:09:10.214: 8=FIX.4.4|9=67|35=1|34=2|49=to_xsgo|56=adrbcs|52=20150520-11:09:10.181|112=STBL-2|10=168|
20150520-11:09:10.216: 8=FIX.4.4|9=67|35=0|34=2|49=adrbcs|52=20150520-11:09:10.216|56=to_xsgo|112=STBL-2|10=166|
20150520-11:10:10.542: 8=FIX.4.4|9=56|35=0|34=3|49=to_xsgo|56=adrbcs|52=20150520-11:10:10.521|10=054|
20150520-11:10:10.542: 8=FIX.4.4|9=56|35=0|34=3|49=adrbcs|52=20150520-11:10:10.542|56=to_xsgo|10=057|
20150520-11:11:10.866: 8=FIX.4.4|9=56|35=0|34=4|49=to_xsgo|56=adrbcs|52=20150520-11:11:10.845|10=065|
20150520-11:11:10.867: 8=FIX.4.4|9=56|35=0|34=4|49=adrbcs|52=20150520-11:11:10.867|56=to_xsgo|10=069|
20150520-11:12:11.166: 8=FIX.4.4|9=56|35=0|34=5|49=to_xsgo|56=adrbcs|52=20150520-11:12:11.137|10=062|
20150520-11:12:11.167: 8=FIX.4.4|9=56|35=0|34=5|49=adrbcs|52=20150520-11:12:11.167|56=to_xsgo|10=065|
20150520-11:13:11.197: 8=FIX.4.4|9=56|35=0|34=6|49=adrbcs|52=20150520-11:13:11.197|56=to_xsgo|10=070|
20150520-11:13:11.468: 8=FIX.4.4|9=56|35=0|34=6|49=to_xsgo|56=adrbcs|52=20150520-11:13:11.446|10=067|
20150520-11:14:11.197: 8=FIX.4.4|9=56|35=0|34=7|49=adrbcs|52=20150520-11:14:11.197|56=to_xsgo|10=072|
20150520-11:14:11.792: 8=FIX.4.4|9=56|35=0|34=7|49=to_xsgo|56=adrbcs|52=20150520-11:14:11.770|10=069|
20150520-11:15:12.120: 8=FIX.4.4|9=56|35=0|34=8|49=to_xsgo|56=adrbcs|52=20150520-11:15:12.094|10=071|
20150520-11:15:12.120: 8=FIX.4.4|9=56|35=0|34=8|49=adrbcs|52=20150520-11:15:12.120|56=to_xsgo|10=061|
20150520-11:16:12.197: 8=FIX.4.4|9=56|35=0|34=9|49=adrbcs|52=20150520-11:16:12.197|56=to_xsgo|10=077|
20150520-11:16:12.395: 8=FIX.4.4|9=56|35=0|34=9|49=to_xsgo|56=adrbcs|52=20150520-11:16:12.371|10=071|
20150520-11:17:12.197: 8=FIX.4.4|9=57|35=0|34=10|49=adrbcs|52=20150520-11:17:12.197|56=to_xsgo|10=119|
20150520-11:17:12.719: 8=FIX.4.4|9=57|35=0|34=10|49=to_xsgo|56=adrbcs|52=20150520-11:17:12.695|10=122|
20150520-11:18:12.208: 8=FIX.4.4|9=57|35=0|34=11|49=adrbcs|52=20150520-11:18:12.208|56=to_xsgo|10=114|
20150520-11:18:13.044: 8=FIX.4.4|9=57|35=0|34=11|49=to_xsgo|56=adrbcs|52=20150520-11:18:13.019|10=115|
20150520-11:19:13.196: 8=FIX.4.4|9=57|35=0|34=12|49=adrbcs|52=20150520-11:19:13.196|56=to_xsgo|10=123|
20150520-11:19:13.338: 8=FIX.4.4|9=57|35=0|34=12|49=to_xsgo|56=adrbcs|52=20150520-11:19:13.312|10=113|
20150520-11:20:13.197: 8=FIX.4.4|9=57|35=0|34=13|49=adrbcs|52=20150520-11:20:13.197|56=to_xsgo|10=117|
20150520-11:20:13.707: 8=FIX.4.4|9=57|35=0|34=13|49=to_xsgo|56=adrbcs|52=20150520-11:20:13.667|10=119|
20150520-11:21:13.197: 8=FIX.4.4|9=57|35=0|34=14|49=adrbcs|52=20150520-11:21:13.197|56=to_xsgo|10=119|
20150520-11:21:13.831: 8=FIX.4.4|9=57|35=0|34=14|49=to_xsgo|56=adrbcs|52=20150520-11:21:13.804|10=114|
20150520-11:22:14.155: 8=FIX.4.4|9=57|35=0|34=15|49=to_xsgo|56=adrbcs|52=20150520-11:22:14.128|10=116|
20150520-11:22:14.156: 8=FIX.4.4|9=57|35=0|34=15|49=adrbcs|52=20150520-11:22:14.155|56=to_xsgo|10=116|
20150520-11:23:14.196: 8=FIX.4.4|9=57|35=0|34=16|49=adrbcs|52=20150520-11:23:14.196|56=to_xsgo|10=123|
20150520-11:23:14.448: 8=FIX.4.4|9=57|35=0|34=16|49=to_xsgo|56=adrbcs|52=20150520-11:23:14.421|10=114|
20150520-11:24:14.197: 8=FIX.4.4|9=57|35=0|34=17|49=adrbcs|52=20150520-11:24:14.197|56=to_xsgo|10=126|
20150520-11:24:14.759: 8=FIX.4.4|9=57|35=0|34=17|49=to_xsgo|56=adrbcs|52=20150520-11:24:14.730|10=119|
20150520-11:25:14.197: 8=FIX.4.4|9=57|35=0|34=18|49=adrbcs|52=20150520-11:25:14.197|56=to_xsgo|10=128|
20150520-11:25:15.083: 8=FIX.4.4|9=57|35=0|34=18|49=to_xsgo|56=adrbcs|52=20150520-11:25:15.054|10=121|
20150520-11:26:14.197: 8=FIX.4.4|9=57|35=0|34=19|49=adrbcs|52=20150520-11:26:14.197|56=to_xsgo|10=130|
20150520-11:26:15.376: 8=FIX.4.4|9=57|35=0|34=19|49=to_xsgo|56=adrbcs|52=20150520-11:26:15.346|10=127|
20150520-11:27:14.197: 8=FIX.4.4|9=57|35=0|34=20|49=adrbcs|52=20150520-11:27:14.197|56=to_xsgo|10=123|
20150520-11:27:15.716: 8=FIX.4.4|9=57|35=0|34=20|49=to_xsgo|56=adrbcs|52=20150520-11:27:15.686|10=127|
20150520-11:28:15.197: 8=FIX.4.4|9=57|35=0|34=21|49=adrbcs|52=20150520-11:28:15.197|56=to_xsgo|10=126|
20150520-11:28:16.025: 8=FIX.4.4|9=57|35=0|34=21|49=to_xsgo|56=adrbcs|52=20150520-11:28:15.994|10=131|
20150520-11:29:16.197: 8=FIX.4.4|9=57|35=0|34=22|49=adrbcs|52=20150520-11:29:16.197|56=to_xsgo|10=129|
20150520-11:29:16.380: 8=FIX.4.4|9=57|35=0|34=22|49=to_xsgo|56=adrbcs|52=20150520-11:29:16.350|10=120|
20150520-11:30:16.197: 8=FIX.4.4|9=57|35=0|34=23|49=adrbcs|52=20150520-11:30:16.197|56=to_xsgo|10=122|
20150520-11:30:16.709: 8=FIX.4.4|9=57|35=0|34=23|49=to_xsgo|56=adrbcs|52=20150520-11:30:16.674|10=122|
20150520-11:31:17.020: 8=FIX.4.4|9=57|35=0|34=24|49=to_xsgo|56=adrbcs|52=20150520-11:31:16.982|10=126|
20150520-11:31:17.020: 8=FIX.4.4|9=57|35=0|34=24|49=adrbcs|52=20150520-11:31:17.020|56=to_xsgo|10=110|
20150520-11:32:17.197: 8=FIX.4.4|9=57|35=0|34=25|49=adrbcs|52=20150520-11:32:17.197|56=to_xsgo|10=127|
20150520-11:32:17.343: 8=FIX.4.4|9=57|35=0|34=25|49=to_xsgo|56=adrbcs|52=20150520-11:32:17.306|10=119|
20150520-11:33:17.198: 8=FIX.4.4|9=57|35=0|34=26|49=adrbcs|52=20150520-11:33:17.198|56=to_xsgo|10=130|
20150520-11:33:17.634: 8=FIX.4.4|9=57|35=0|34=26|49=to_xsgo|56=adrbcs|52=20150520-11:33:17.599|10=135|
20150520-11:34:17.962: 8=FIX.4.4|9=57|35=0|34=27|49=to_xsgo|56=adrbcs|52=20150520-11:34:17.926|10=131|
20150520-11:34:17.962: 8=FIX.4.4|9=57|35=0|34=27|49=adrbcs|52=20150520-11:34:17.962|56=to_xsgo|10=131|
20150520-11:35:18.197: 8=FIX.4.4|9=57|35=0|34=28|49=adrbcs|52=20150520-11:35:18.197|56=to_xsgo|10=134|
20150520-11:35:18.235: 8=FIX.4.4|9=57|35=0|34=28|49=to_xsgo|56=adrbcs|52=20150520-11:35:18.207|10=126|
20150520-11:36:18.558: 8=FIX.4.4|9=57|35=0|34=29|49=to_xsgo|56=adrbcs|52=20150520-11:36:18.536|10=133|
20150520-11:36:18.559: 8=FIX.4.4|9=57|35=0|34=29|49=adrbcs|52=20150520-11:36:18.559|56=to_xsgo|10=138|
20150520-11:37:18.884: 8=FIX.4.4|9=57|35=0|34=30|49=to_xsgo|56=adrbcs|52=20150520-11:37:18.864|10=130|
20150520-11:37:18.884: 8=FIX.4.4|9=57|35=0|34=30|49=adrbcs|52=20150520-11:37:18.884|56=to_xsgo|10=132|
20150520-11:38:19.196: 8=FIX.4.4|9=57|35=0|34=31|49=adrbcs|52=20150520-11:38:19.196|56=to_xsgo|10=131|
20150520-11:38:19.208: 8=FIX.4.4|9=57|35=0|34=31|49=to_xsgo|56=adrbcs|52=20150520-11:38:19.192|10=127|
20150520-11:39:19.197: 8=FIX.4.4|9=57|35=0|34=32|49=adrbcs|52=20150520-11:39:19.197|56=to_xsgo|10=134|
20150520-11:39:19.361: 8=FIX.4.4|9=57|35=0|34=32|49=to_xsgo|56=adrbcs|52=20150520-11:39:19.347|10=131|
20150520-11:40:19.759: 8=FIX.4.4|9=57|35=0|34=33|49=to_xsgo|56=adrbcs|52=20150520-11:40:19.735|10=125|
20150520-11:40:19.759: 8=FIX.4.4|9=57|35=0|34=33|49=adrbcs|52=20150520-11:40:19.759|56=to_xsgo|10=131|
20150520-11:41:20.041: 8=FIX.4.4|9=57|35=0|34=34|49=to_xsgo|56=adrbcs|52=20150520-11:41:20.029|10=115|
20150520-11:41:20.041: 8=FIX.4.4|9=57|35=0|34=34|49=adrbcs|52=20150520-11:41:20.041|56=to_xsgo|10=109|
20150520-11:42:20.196: 8=FIX.4.4|9=57|35=0|34=35|49=adrbcs|52=20150520-11:42:20.196|56=to_xsgo|10=122|
20150520-11:42:20.381: 8=FIX.4.4|9=57|35=0|34=35|49=to_xsgo|56=adrbcs|52=20150520-11:42:20.371|10=117|
20150520-11:43:20.197: 8=FIX.4.4|9=57|35=0|34=36|49=adrbcs|52=20150520-11:43:20.197|56=to_xsgo|10=125|
20150520-11:43:20.690: 8=FIX.4.4|9=57|35=0|34=36|49=to_xsgo|56=adrbcs|52=20150520-11:43:20.681|10=123|
20150520-11:44:20.197: 8=FIX.4.4|9=57|35=0|34=37|49=adrbcs|52=20150520-11:44:20.197|56=to_xsgo|10=127|
20150520-11:44:20.974: 8=FIX.4.4|9=57|35=0|34=37|49=to_xsgo|56=adrbcs|52=20150520-11:44:20.959|10=133|
20150520-11:45:21.196: 8=FIX.4.4|9=57|35=0|34=38|49=adrbcs|52=20150520-11:45:21.196|56=to_xsgo|10=129|
20150520-11:45:21.293: 8=FIX.4.4|9=57|35=0|34=38|49=to_xsgo|56=adrbcs|52=20150520-11:45:21.284|10=127|
20150520-11:46:21.196: 8=FIX.4.4|9=57|35=0|34=39|49=adrbcs|52=20150520-11:46:21.196|56=to_xsgo|10=131|
20150520-11:46:21.664: 8=FIX.4.4|9=57|35=0|34=39|49=to_xsgo|56=adrbcs|52=20150520-11:46:21.655|10=131|
20150520-11:47:21.196: 8=FIX.4.4|9=57|35=0|34=40|49=adrbcs|52=20150520-11:47:21.196|56=to_xsgo|10=124|
20150520-11:47:21.989: 8=FIX.4.4|9=57|35=0|34=40|49=to_xsgo|56=adrbcs|52=20150520-11:47:21.980|10=125|
20150520-11:48:21.197: 8=FIX.4.4|9=57|35=0|34=41|49=adrbcs|52=20150520-11:48:21.197|56=to_xsgo|10=127|
20150520-11:48:22.329: 8=FIX.4.4|9=57|35=0|34=41|49=to_xsgo|56=adrbcs|52=20150520-11:48:22.321|10=117|
20150520-11:49:21.197: 8=FIX.4.4|9=57|35=0|34=42|49=adrbcs|52=20150520-11:49:21.197|56=to_xsgo|10=129|
20150520-11:49:22.685: 8=FIX.4.4|9=57|35=0|34=42|49=to_xsgo|56=adrbcs|52=20150520-11:49:22.676|10=132|
20150520-11:50:21.197: 8=FIX.4.4|9=57|35=0|34=43|49=adrbcs|52=20150520-11:50:21.197|56=to_xsgo|10=122|
20150520-11:50:23.009: 8=FIX.4.4|9=57|35=0|34=43|49=to_xsgo|56=adrbcs|52=20150520-11:50:23.000|10=107|
20150520-11:51:21.197: 8=FIX.4.4|9=57|35=0|34=44|49=adrbcs|52=20150520-11:51:21.197|56=to_xsgo|10=124|
20150520-11:51:23.328: 8=FIX.4.4|9=57|35=0|34=44|49=to_xsgo|56=adrbcs|52=20150520-11:51:23.308|10=120|
20150520-11:52:21.197: 8=FIX.4.4|9=57|35=0|34=45|49=adrbcs|52=20150520-11:52:21.197|56=to_xsgo|10=126|
20150520-11:52:23.331: 8=FIX.4.4|9=57|35=0|34=45|49=to_xsgo|56=adrbcs|52=20150520-11:52:23.321|10=117|
20150520-11:53:21.197: 8=FIX.4.4|9=57|35=0|34=46|49=adrbcs|52=20150520-11:53:21.197|56=to_xsgo|10=128|
20150520-11:53:23.715: 8=FIX.4.4|9=57|35=0|34=46|49=to_xsgo|56=adrbcs|52=20150520-11:53:23.691|10=129|
20150520-11:54:21.197: 8=FIX.4.4|9=57|35=0|34=47|49=adrbcs|52=20150520-11:54:21.197|56=to_xsgo|10=130|
20150520-11:54:24.156: 8=FIX.4.4|9=57|35=0|34=47|49=to_xsgo|56=adrbcs|52=20150520-11:54:24.140|10=121|
20150520-11:55:22.197: 8=FIX.4.4|9=57|35=0|34=48|49=adrbcs|52=20150520-11:55:22.197|56=to_xsgo|10=133|
20150520-11:55:24.587: 8=FIX.4.4|9=57|35=0|34=48|49=to_xsgo|56=adrbcs|52=20150520-11:55:24.573|10=133|
20150520-11:56:23.196: 8=FIX.4.4|9=57|35=0|34=49|49=adrbcs|52=20150520-11:56:23.196|56=to_xsgo|10=135|
20150520-11:56:24.895: 8=FIX.4.4|9=57|35=0|34=49|49=to_xsgo|56=adrbcs|52=20150520-11:56:24.882|10=138|
20150520-11:57:23.197: 8=FIX.4.4|9=57|35=0|34=50|49=adrbcs|52=20150520-11:57:23.197|56=to_xsgo|10=129|
20150520-11:57:24.914: 8=FIX.4.4|9=57|35=0|34=50|49=to_xsgo|56=adrbcs|52=20150520-11:57:24.894|10=134|
20150520-11:58:23.197: 8=FIX.4.4|9=57|35=0|34=51|49=adrbcs|52=20150520-11:58:23.197|56=to_xsgo|10=131|
20150520-11:58:25.278: 8=FIX.4.4|9=57|35=0|34=51|49=to_xsgo|56=adrbcs|52=20150520-11:58:25.265|10=129|
20150520-11:59:23.197: 8=FIX.4.4|9=57|35=0|34=52|49=adrbcs|52=20150520-11:59:23.197|56=to_xsgo|10=133|
20150520-11:59:25.603: 8=FIX.4.4|9=57|35=0|34=52|49=to_xsgo|56=adrbcs|52=20150520-11:59:25.589|10=140|
20150520-12:00:23.197: 8=FIX.4.4|9=57|35=0|34=53|49=adrbcs|52=20150520-12:00:23.197|56=to_xsgo|10=121|
20150520-12:00:25.976: 8=FIX.4.4|9=57|35=0|34=53|49=to_xsgo|56=adrbcs|52=20150520-12:00:25.960|10=121|
20150520-12:01:24.197: 8=FIX.4.4|9=57|35=0|34=54|49=adrbcs|52=20150520-12:01:24.197|56=to_xsgo|10=124|
20150520-12:01:26.377: 8=FIX.4.4|9=57|35=0|34=54|49=to_xsgo|56=adrbcs|52=20150520-12:01:26.362|10=120|
20150520-12:02:24.197: 8=FIX.4.4|9=57|35=0|34=55|49=adrbcs|52=20150520-12:02:24.197|56=to_xsgo|10=126|
20150520-12:02:26.687: 8=FIX.4.4|9=57|35=0|34=55|49=to_xsgo|56=adrbcs|52=20150520-12:02:26.655|10=127|
20150520-12:03:25.197: 8=FIX.4.4|9=57|35=0|34=56|49=adrbcs|52=20150520-12:03:25.197|56=to_xsgo|10=129|
20150520-12:03:27.050: 8=FIX.4.4|9=57|35=0|34=56|49=to_xsgo|56=adrbcs|52=20150520-12:03:27.025|10=121|
20150520-12:04:26.196: 8=FIX.4.4|9=57|35=0|34=57|49=adrbcs|52=20150520-12:04:26.196|56=to_xsgo|10=131|
20150520-12:04:27.399: 8=FIX.4.4|9=57|35=0|34=57|49=to_xsgo|56=adrbcs|52=20150520-12:04:27.365|10=130|
20150520-12:05:26.197: 8=FIX.4.4|9=57|35=0|34=58|49=adrbcs|52=20150520-12:05:26.197|56=to_xsgo|10=134|
20150520-12:05:27.753: 8=FIX.4.4|9=57|35=0|34=58|49=to_xsgo|56=adrbcs|52=20150520-12:05:27.736|10=134|
20150520-12:06:26.197: 8=FIX.4.4|9=57|35=0|34=59|49=adrbcs|52=20150520-12:06:26.197|56=to_xsgo|10=136|
20150520-12:06:28.081: 8=FIX.4.4|9=57|35=0|34=59|49=to_xsgo|56=adrbcs|52=20150520-12:06:28.060|10=127|
20150520-12:07:27.197: 8=FIX.4.4|9=57|35=0|34=60|49=adrbcs|52=20150520-12:07:27.197|56=to_xsgo|10=130|
20150520-12:07:28.405: 8=FIX.4.4|9=57|35=0|34=60|49=to_xsgo|56=adrbcs|52=20150520-12:07:28.384|10=129|
20150520-12:08:27.197: 8=FIX.4.4|9=57|35=0|34=61|49=adrbcs|52=20150520-12:08:27.197|56=to_xsgo|10=132|
20150520-12:08:28.726: 8=FIX.4.4|9=57|35=0|34=61|49=to_xsgo|56=adrbcs|52=20150520-12:08:28.708|10=131|
20150520-12:09:27.197: 8=FIX.4.4|9=57|35=0|34=62|49=adrbcs|52=20150520-12:09:27.197|56=to_xsgo|10=134|
20150520-12:09:29.004: 8=FIX.4.4|9=57|35=0|34=62|49=to_xsgo|56=adrbcs|52=20150520-12:09:28.985|10=140|
20150520-12:10:27.197: 8=FIX.4.4|9=57|35=0|34=63|49=adrbcs|52=20150520-12:10:27.197|56=to_xsgo|10=127|
20150520-12:10:29.314: 8=FIX.4.4|9=57|35=0|34=63|49=to_xsgo|56=adrbcs|52=20150520-12:10:29.294|10=127|
20150520-12:11:28.197: 8=FIX.4.4|9=57|35=0|34=64|49=adrbcs|52=20150520-12:11:28.197|56=to_xsgo|10=130|
20150520-12:11:29.608: 8=FIX.4.4|9=57|35=0|34=64|49=to_xsgo|56=adrbcs|52=20150520-12:11:29.586|10=133|
20150520-12:12:29.196: 8=FIX.4.4|9=57|35=0|34=65|49=adrbcs|52=20150520-12:12:29.196|56=to_xsgo|10=132|
20150520-12:12:29.915: 8=FIX.4.4|9=57|35=0|34=65|49=to_xsgo|56=adrbcs|52=20150520-12:12:29.895|10=138|
20150520-12:13:29.196: 8=FIX.4.4|9=57|35=0|34=66|49=adrbcs|52=20150520-12:13:29.196|56=to_xsgo|10=134|
20150520-12:13:30.243: 8=FIX.4.4|9=57|35=0|34=66|49=to_xsgo|56=adrbcs|52=20150520-12:13:30.219|10=122|
20150520-12:14:29.197: 8=FIX.4.4|9=57|35=0|34=67|49=adrbcs|52=20150520-12:14:29.197|56=to_xsgo|10=137|
20150520-12:14:30.646: 8=FIX.4.4|9=57|35=0|34=67|49=to_xsgo|56=adrbcs|52=20150520-12:14:30.621|10=121|
20150520-12:15:30.197: 8=FIX.4.4|9=57|35=0|34=68|49=adrbcs|52=20150520-12:15:30.197|56=to_xsgo|10=131|
20150520-12:15:31.103: 8=FIX.4.4|9=57|35=0|34=68|49=to_xsgo|56=adrbcs|52=20150520-12:15:31.070|10=122|
20150520-12:16:30.197: 8=FIX.4.4|9=57|35=0|34=69|49=adrbcs|52=20150520-12:16:30.197|56=to_xsgo|10=133|
20150520-12:16:31.401: 8=FIX.4.4|9=57|35=0|34=69|49=to_xsgo|56=adrbcs|52=20150520-12:16:31.378|10=135|
20150520-12:17:31.197: 8=FIX.4.4|9=57|35=0|34=70|49=adrbcs|52=20150520-12:17:31.197|56=to_xsgo|10=127|
20150520-12:17:31.788: 8=FIX.4.4|9=57|35=0|34=70|49=to_xsgo|56=adrbcs|52=20150520-12:17:31.765|10=128|
20150520-12:18:32.103: 8=FIX.4.4|9=57|35=0|34=71|49=to_xsgo|56=adrbcs|52=20150520-12:18:32.073|10=123|
20150520-12:18:32.103: 8=FIX.4.4|9=57|35=0|34=71|49=adrbcs|52=20150520-12:18:32.103|56=to_xsgo|10=117|
20150520-12:19:32.196: 8=FIX.4.4|9=57|35=0|34=72|49=adrbcs|52=20150520-12:19:32.196|56=to_xsgo|10=131|
20150520-12:19:32.421: 8=FIX.4.4|9=57|35=0|34=72|49=to_xsgo|56=adrbcs|52=20150520-12:19:32.397|10=134|
20150520-12:20:32.196: 8=FIX.4.4|9=57|35=0|34=73|49=adrbcs|52=20150520-12:20:32.196|56=to_xsgo|10=124|
20150520-12:20:32.730: 8=FIX.4.4|9=57|35=0|34=73|49=to_xsgo|56=adrbcs|52=20150520-12:20:32.706|10=121|
20150520-12:21:32.196: 8=FIX.4.4|9=57|35=0|34=74|49=adrbcs|52=20150520-12:21:32.196|56=to_xsgo|10=126|
20150520-12:21:33.039: 8=FIX.4.4|9=57|35=0|34=74|49=to_xsgo|56=adrbcs|52=20150520-12:21:33.014|10=116|
20150520-12:22:32.196: 8=FIX.4.4|9=57|35=0|34=75|49=adrbcs|52=20150520-12:22:32.196|56=to_xsgo|10=128|
20150520-12:22:33.348: 8=FIX.4.4|9=57|35=0|34=75|49=to_xsgo|56=adrbcs|52=20150520-12:22:33.323|10=121|
20150520-12:23:32.196: 8=FIX.4.4|9=57|35=0|34=76|49=adrbcs|52=20150520-12:23:32.196|56=to_xsgo|10=130|
20150520-12:23:33.673: 8=FIX.4.4|9=57|35=0|34=76|49=to_xsgo|56=adrbcs|52=20150520-12:23:33.647|10=132|
20150520-12:24:32.197: 8=FIX.4.4|9=57|35=0|34=77|49=adrbcs|52=20150520-12:24:32.197|56=to_xsgo|10=133|
20150520-12:24:33.982: 8=FIX.4.4|9=57|35=0|34=77|49=to_xsgo|56=adrbcs|52=20150520-12:24:33.955|10=136|
20150520-12:25:32.197: 8=FIX.4.4|9=57|35=0|34=78|49=adrbcs|52=20150520-12:25:32.197|56=to_xsgo|10=135|
20150520-12:25:34.291: 8=FIX.4.4|9=57|35=0|34=78|49=to_xsgo|56=adrbcs|52=20150520-12:25:34.263|10=131|
20150520-12:26:33.197: 8=FIX.4.4|9=57|35=0|34=79|49=adrbcs|52=20150520-12:26:33.197|56=to_xsgo|10=138|
20150520-12:26:34.600: 8=FIX.4.4|9=57|35=0|34=79|49=to_xsgo|56=adrbcs|52=20150520-12:26:34.572|10=136|
20150520-12:27:34.197: 8=FIX.4.4|9=57|35=0|34=80|49=adrbcs|52=20150520-12:27:34.197|56=to_xsgo|10=132|
20150520-12:27:34.913: 8=FIX.4.4|9=57|35=0|34=80|49=to_xsgo|56=adrbcs|52=20150520-12:27:34.865|10=134|
20150520-12:28:34.197: 8=FIX.4.4|9=57|35=0|34=81|49=adrbcs|52=20150520-12:28:34.197|56=to_xsgo|10=134|
20150520-12:28:35.208: 8=FIX.4.4|9=57|35=0|34=81|49=to_xsgo|56=adrbcs|52=20150520-12:28:35.173|10=129|
20150520-12:29:34.197: 8=FIX.4.4|9=57|35=0|34=82|49=adrbcs|52=20150520-12:29:34.197|56=to_xsgo|10=136|
20150520-12:29:35.495: 8=FIX.4.4|9=57|35=0|34=82|49=to_xsgo|56=adrbcs|52=20150520-12:29:35.466|10=136|
20150520-12:30:35.197: 8=FIX.4.4|9=57|35=0|34=83|49=adrbcs|52=20150520-12:30:35.197|56=to_xsgo|10=130|
20150520-12:30:35.774: 8=FIX.4.4|9=57|35=0|34=83|49=to_xsgo|56=adrbcs|52=20150520-12:30:35.743|10=127|
20150520-12:31:36.120: 8=FIX.4.4|9=57|35=0|34=84|49=to_xsgo|56=adrbcs|52=20150520-12:31:36.083|10=127|
20150520-12:31:36.120: 8=FIX.4.4|9=57|35=0|34=84|49=adrbcs|52=20150520-12:31:36.120|56=to_xsgo|10=119|
20150520-12:32:36.197: 8=FIX.4.4|9=57|35=0|34=85|49=adrbcs|52=20150520-12:32:36.197|56=to_xsgo|10=135|
20150520-12:32:36.407: 8=FIX.4.4|9=57|35=0|34=85|49=to_xsgo|56=adrbcs|52=20150520-12:32:36.376|10=134|
20150520-12:33:36.684: 8=FIX.4.4|9=57|35=0|34=86|49=to_xsgo|56=adrbcs|52=20150520-12:33:36.653|10=134|
20150520-12:33:36.685: 8=FIX.4.4|9=57|35=0|34=86|49=adrbcs|52=20150520-12:33:36.685|56=to_xsgo|10=139|
20150520-12:34:36.979: 8=FIX.4.4|9=57|35=0|34=87|49=to_xsgo|56=adrbcs|52=20150520-12:34:36.950|10=136|
20150520-12:34:36.980: 8=FIX.4.4|9=57|35=0|34=87|49=adrbcs|52=20150520-12:34:36.980|56=to_xsgo|10=139|
20150520-12:35:37.196: 8=FIX.4.4|9=57|35=0|34=88|49=adrbcs|52=20150520-12:35:37.196|56=to_xsgo|10=141|
20150520-12:35:37.240: 8=FIX.4.4|9=57|35=0|34=88|49=to_xsgo|56=adrbcs|52=20150520-12:35:37.216|10=134|
20150520-12:36:37.196: 8=FIX.4.4|9=57|35=0|34=89|49=adrbcs|52=20150520-12:36:37.196|56=to_xsgo|10=143|
20150520-12:36:37.534: 8=FIX.4.4|9=57|35=0|34=89|49=to_xsgo|56=adrbcs|52=20150520-12:36:37.513|10=136|
20150520-12:37:37.197: 8=FIX.4.4|9=57|35=0|34=90|49=adrbcs|52=20150520-12:37:37.196|56=to_xsgo|10=136|
20150520-12:37:37.843: 8=FIX.4.4|9=57|35=0|34=90|49=to_xsgo|56=adrbcs|52=20150520-12:37:37.826|10=136|
20150520-12:38:37.197: 8=FIX.4.4|9=57|35=0|34=91|49=adrbcs|52=20150520-12:38:37.197|56=to_xsgo|10=139|
20150520-12:38:38.120: 8=FIX.4.4|9=57|35=0|34=91|49=to_xsgo|56=adrbcs|52=20150520-12:38:38.107|10=131|
20150520-12:39:37.197: 8=FIX.4.4|9=57|35=0|34=92|49=adrbcs|52=20150520-12:39:37.197|56=to_xsgo|10=141|
20150520-12:39:38.398: 8=FIX.4.4|9=57|35=0|34=92|49=to_xsgo|56=adrbcs|52=20150520-12:39:38.386|10=142|
20150520-12:40:37.197: 8=FIX.4.4|9=57|35=0|34=93|49=adrbcs|52=20150520-12:40:37.197|56=to_xsgo|10=134|
20150520-12:40:38.817: 8=FIX.4.4|9=57|35=0|34=93|49=to_xsgo|56=adrbcs|52=20150520-12:40:38.805|10=131|
20150520-12:41:37.197: 8=FIX.4.4|9=57|35=0|34=94|49=adrbcs|52=20150520-12:41:37.197|56=to_xsgo|10=136|
20150520-12:41:39.167: 8=FIX.4.4|9=57|35=0|34=94|49=to_xsgo|56=adrbcs|52=20150520-12:41:39.146|10=132|
20150520-12:42:37.197: 8=FIX.4.4|9=57|35=0|34=95|49=adrbcs|52=20150520-12:42:37.197|56=to_xsgo|10=138|
20150520-12:42:39.460: 8=FIX.4.4|9=57|35=0|34=95|49=to_xsgo|56=adrbcs|52=20150520-12:42:39.440|10=131|
20150520-12:43:37.197: 8=FIX.4.4|9=57|35=0|34=96|49=adrbcs|52=20150520-12:43:37.197|56=to_xsgo|10=140|
20150520-12:43:39.868: 8=FIX.4.4|9=57|35=0|34=96|49=to_xsgo|56=adrbcs|52=20150520-12:43:39.858|10=146|
20150520-12:44:38.197: 8=FIX.4.4|9=57|35=0|34=97|49=adrbcs|52=20150520-12:44:38.196|56=to_xsgo|10=142|
20150520-12:44:40.163: 8=FIX.4.4|9=57|35=0|34=97|49=to_xsgo|56=adrbcs|52=20150520-12:44:40.152|10=127|
20150520-12:45:38.197: 8=FIX.4.4|9=57|35=0|34=98|49=adrbcs|52=20150520-12:45:38.197|56=to_xsgo|10=145|
20150520-12:45:40.486: 8=FIX.4.4|9=57|35=0|34=98|49=to_xsgo|56=adrbcs|52=20150520-12:45:40.477|10=139|
20150520-12:46:39.197: 8=FIX.4.4|9=57|35=0|34=99|49=adrbcs|52=20150520-12:46:39.197|56=to_xsgo|10=148|
20150520-12:46:40.811: 8=FIX.4.4|9=57|35=0|34=99|49=to_xsgo|56=adrbcs|52=20150520-12:46:40.801|10=132|
20150520-12:47:39.197: 8=FIX.4.4|9=58|35=0|34=100|49=adrbcs|52=20150520-12:47:39.197|56=to_xsgo|10=181|
20150520-12:47:41.104: 8=FIX.4.4|9=58|35=0|34=100|49=to_xsgo|56=adrbcs|52=20150520-12:47:41.095|10=171|
20150520-12:48:40.197: 8=FIX.4.4|9=58|35=0|34=101|49=adrbcs|52=20150520-12:48:40.197|56=to_xsgo|10=175|
20150520-12:48:41.413: 8=FIX.4.4|9=58|35=0|34=101|49=to_xsgo|56=adrbcs|52=20150520-12:48:41.403|10=166|
20150520-12:49:41.197: 8=FIX.4.4|9=58|35=0|34=102|49=adrbcs|52=20150520-12:49:41.197|56=to_xsgo|10=178|
20150520-12:49:41.925: 8=FIX.4.4|9=58|35=0|34=102|49=to_xsgo|56=adrbcs|52=20150520-12:49:41.915|10=176|
20150520-12:50:41.197: 8=FIX.4.4|9=58|35=0|34=103|49=adrbcs|52=20150520-12:50:41.197|56=to_xsgo|10=171|
20150520-12:50:42.222: 8=FIX.4.4|9=58|35=0|34=103|49=to_xsgo|56=adrbcs|52=20150520-12:50:42.208|10=165|
20150520-12:51:42.197: 8=FIX.4.4|9=58|35=0|34=104|49=adrbcs|52=20150520-12:51:42.197|56=to_xsgo|10=174|
20150520-12:51:42.548: 8=FIX.4.4|9=58|35=0|34=104|49=to_xsgo|56=adrbcs|52=20150520-12:51:42.533|10=168|
20150520-12:52:42.851: 8=FIX.4.4|9=58|35=0|34=105|49=to_xsgo|56=adrbcs|52=20150520-12:52:42.841|10=172|
20150520-12:52:42.852: 8=FIX.4.4|9=58|35=0|34=105|49=adrbcs|52=20150520-12:52:42.852|56=to_xsgo|10=174|
20150520-12:53:43.161: 8=FIX.4.4|9=58|35=0|34=106|49=to_xsgo|56=adrbcs|52=20150520-12:53:43.150|10=168|
20150520-12:53:43.162: 8=FIX.4.4|9=58|35=0|34=106|49=adrbcs|52=20150520-12:53:43.162|56=to_xsgo|10=171|
20150520-12:54:43.197: 8=FIX.4.4|9=58|35=0|34=107|49=adrbcs|52=20150520-12:54:43.197|56=to_xsgo|10=181|
20150520-12:54:43.454: 8=FIX.4.4|9=58|35=0|34=107|49=to_xsgo|56=adrbcs|52=20150520-12:54:43.444|10=176|
20150520-12:55:43.749: 8=FIX.4.4|9=58|35=0|34=108|49=to_xsgo|56=adrbcs|52=20150520-12:55:43.736|10=182|
20150520-12:55:43.749: 8=FIX.4.4|9=58|35=0|34=108|49=adrbcs|52=20150520-12:55:43.749|56=to_xsgo|10=186|
20150520-12:56:44.038: 8=FIX.4.4|9=58|35=0|34=109|49=to_xsgo|56=adrbcs|52=20150520-12:56:44.014|10=174|
20150520-12:56:44.039: 8=FIX.4.4|9=58|35=0|34=109|49=adrbcs|52=20150520-12:56:44.039|56=to_xsgo|10=181|
20150520-12:57:44.196: 8=FIX.4.4|9=58|35=0|34=110|49=adrbcs|52=20150520-12:57:44.196|56=to_xsgo|10=178|
20150520-12:57:44.350: 8=FIX.4.4|9=58|35=0|34=110|49=to_xsgo|56=adrbcs|52=20150520-12:57:44.338|10=176|
20150520-12:58:44.196: 8=FIX.4.4|9=58|35=0|34=111|49=adrbcs|52=20150520-12:58:44.196|56=to_xsgo|10=180|
20150520-12:58:44.675: 8=FIX.4.4|9=58|35=0|34=111|49=to_xsgo|56=adrbcs|52=20150520-12:58:44.662|10=178|
20150520-12:59:44.196: 8=FIX.4.4|9=58|35=0|34=112|49=adrbcs|52=20150520-12:59:44.196|56=to_xsgo|10=182|
20150520-12:59:44.954: 8=FIX.4.4|9=58|35=0|34=112|49=to_xsgo|56=adrbcs|52=20150520-12:59:44.939|10=187|
20150520-13:00:44.199: 8=FIX.4.4|9=58|35=0|34=113|49=adrbcs|52=20150520-13:00:44.199|56=to_xsgo|10=173|
20150520-13:00:45.293: 8=FIX.4.4|9=58|35=0|34=113|49=to_xsgo|56=adrbcs|52=20150520-13:00:45.279|10=173|
20150520-13:01:45.196: 8=FIX.4.4|9=58|35=0|34=114|49=adrbcs|52=20150520-13:01:45.196|56=to_xsgo|10=173|
20150520-13:01:45.633: 8=FIX.4.4|9=58|35=0|34=114|49=to_xsgo|56=adrbcs|52=20150520-13:01:45.618|10=172|
20150520-13:02:45.196: 8=FIX.4.4|9=58|35=0|34=115|49=adrbcs|52=20150520-13:02:45.196|56=to_xsgo|10=175|
20150520-13:02:45.942: 8=FIX.4.4|9=58|35=0|34=115|49=to_xsgo|56=adrbcs|52=20150520-13:02:45.927|10=177|
20150520-13:03:45.197: 8=FIX.4.4|9=58|35=0|34=116|49=adrbcs|52=20150520-13:03:45.197|56=to_xsgo|10=178|
20150520-13:03:46.245: 8=FIX.4.4|9=58|35=0|34=116|49=to_xsgo|56=adrbcs|52=20150520-13:03:46.219|10=174|
20150520-13:04:28.111: 8=FIX.4.4|9=74|35=A|34=1|49=adrbcs|52=20150520-13:04:28.111|56=to_xsgo|98=0|108=60|141=Y|10=151|
20150520-13:04:28.155: 8=FIX.4.4|9=74|35=A|34=1|49=to_xsgo|56=adrbcs|52=20150520-13:04:28.105|108=60|98=0|141=Y|10=154|
20150520-13:04:28.170: 8=FIX.4.4|9=67|35=1|34=2|49=to_xsgo|56=adrbcs|52=20150520-13:04:28.105|112=STBL-2|10=170|
20150520-13:04:28.226: 8=FIX.4.4|9=67|35=0|34=2|49=adrbcs|52=20150520-13:04:28.226|56=to_xsgo|112=STBL-2|10=173|
20150520-13:05:28.313: 8=FIX.4.4|9=56|35=0|34=3|49=to_xsgo|56=adrbcs|52=20150520-13:05:28.288|10=079|
20150520-13:05:28.313: 8=FIX.4.4|9=56|35=0|34=3|49=adrbcs|52=20150520-13:05:28.313|56=to_xsgo|10=068|
20150520-13:06:28.632: 8=FIX.4.4|9=56|35=0|34=4|49=to_xsgo|56=adrbcs|52=20150520-13:06:28.612|10=072|
20150520-13:06:28.632: 8=FIX.4.4|9=56|35=0|34=4|49=adrbcs|52=20150520-13:06:28.632|56=to_xsgo|10=074|
20150520-13:07:29.005: 8=FIX.4.4|9=56|35=0|34=5|49=to_xsgo|56=adrbcs|52=20150520-13:07:28.983|10=085|
20150520-13:07:29.006: 8=FIX.4.4|9=56|35=0|34=5|49=adrbcs|52=20150520-13:07:29.006|56=to_xsgo|10=072|
20150520-13:08:29.043: 8=FIX.4.4|9=56|35=0|34=6|49=adrbcs|52=20150520-13:08:29.043|56=to_xsgo|10=075|
20150520-13:08:29.405: 8=FIX.4.4|9=56|35=0|34=6|49=to_xsgo|56=adrbcs|52=20150520-13:08:29.385|10=084|
20150520-13:09:29.044: 8=FIX.4.4|9=56|35=0|34=7|49=adrbcs|52=20150520-13:09:29.044|56=to_xsgo|10=078|
20150520-13:09:29.697: 8=FIX.4.4|9=56|35=0|34=7|49=to_xsgo|56=adrbcs|52=20150520-13:09:29.678|10=091|
20150520-13:10:29.044: 8=FIX.4.4|9=56|35=0|34=8|49=adrbcs|52=20150520-13:10:29.044|56=to_xsgo|10=071|
20150520-13:10:30.023: 8=FIX.4.4|9=56|35=0|34=8|49=to_xsgo|56=adrbcs|52=20150520-13:10:30.002|10=057|
20150520-13:11:29.044: 8=FIX.4.4|9=56|35=0|34=9|49=adrbcs|52=20150520-13:11:29.044|56=to_xsgo|10=073|
20150520-13:11:30.393: 8=FIX.4.4|9=56|35=0|34=9|49=to_xsgo|56=adrbcs|52=20150520-13:11:30.373|10=070|
20150520-13:12:30.043: 8=FIX.4.4|9=57|35=0|34=10|49=adrbcs|52=20150520-13:12:30.043|56=to_xsgo|10=106|
20150520-13:12:30.734: 8=FIX.4.4|9=57|35=0|34=10|49=to_xsgo|56=adrbcs|52=20150520-13:12:30.713|10=110|
20150520-13:13:30.043: 8=FIX.4.4|9=57|35=0|34=11|49=adrbcs|52=20150520-13:13:30.043|56=to_xsgo|10=108|
20150520-13:13:31.027: 8=FIX.4.4|9=57|35=0|34=11|49=to_xsgo|56=adrbcs|52=20150520-13:13:31.005|10=107|
20150520-13:14:30.044: 8=FIX.4.4|9=57|35=0|34=12|49=adrbcs|52=20150520-13:14:30.044|56=to_xsgo|10=111|
20150520-13:14:31.352: 8=FIX.4.4|9=57|35=0|34=12|49=to_xsgo|56=adrbcs|52=20150520-13:14:31.329|10=118|
20150520-13:15:31.044: 8=FIX.4.4|9=57|35=0|34=13|49=adrbcs|52=20150520-13:15:31.044|56=to_xsgo|10=114|
20150520-13:15:31.660: 8=FIX.4.4|9=57|35=0|34=13|49=to_xsgo|56=adrbcs|52=20150520-13:15:31.638|10=123|
20150520-13:16:31.969: 8=FIX.4.4|9=57|35=0|34=14|49=to_xsgo|56=adrbcs|52=20150520-13:16:31.946|10=127|
20150520-13:16:31.970: 8=FIX.4.4|9=57|35=0|34=14|49=adrbcs|52=20150520-13:16:31.970|56=to_xsgo|10=124|
20150520-13:17:32.043: 8=FIX.4.4|9=57|35=0|34=15|49=adrbcs|52=20150520-13:17:32.043|56=to_xsgo|10=118|
20150520-13:17:32.265: 8=FIX.4.4|9=57|35=0|34=15|49=to_xsgo|56=adrbcs|52=20150520-13:17:32.239|10=125|
20150520-13:18:32.043: 8=FIX.4.4|9=57|35=0|34=16|49=adrbcs|52=20150520-13:18:32.043|56=to_xsgo|10=120|
20150520-13:18:32.556: 8=FIX.4.4|9=57|35=0|34=16|49=to_xsgo|56=adrbcs|52=20150520-13:18:32.532|10=123|
20150520-13:19:32.043: 8=FIX.4.4|9=57|35=0|34=17|49=adrbcs|52=20150520-13:19:32.043|56=to_xsgo|10=122|
20150520-13:19:32.897: 8=FIX.4.4|9=57|35=0|34=17|49=to_xsgo|56=adrbcs|52=20150520-13:19:32.872|10=132|
20150520-13:20:32.054: 8=FIX.4.4|9=57|35=0|34=18|49=adrbcs|52=20150520-13:20:32.047|56=to_xsgo|10=119|
20150520-13:20:33.210: 8=FIX.4.4|9=57|35=0|34=18|49=to_xsgo|56=adrbcs|52=20150520-13:20:33.180|10=118|
20150520-13:21:33.043: 8=FIX.4.4|9=57|35=0|34=19|49=adrbcs|52=20150520-13:21:33.043|56=to_xsgo|10=118|
20150520-13:21:33.522: 8=FIX.4.4|9=57|35=0|34=19|49=to_xsgo|56=adrbcs|52=20150520-13:21:33.489|10=132|
20150520-13:22:33.044: 8=FIX.4.4|9=57|35=0|34=20|49=adrbcs|52=20150520-13:22:33.044|56=to_xsgo|10=112|
20150520-13:22:33.830: 8=FIX.4.4|9=57|35=0|34=20|49=to_xsgo|56=adrbcs|52=20150520-13:22:33.797|10=127|
20150520-13:23:33.044: 8=FIX.4.4|9=57|35=0|34=21|49=adrbcs|52=20150520-13:23:33.044|56=to_xsgo|10=114|
20150520-13:23:34.151: 8=FIX.4.4|9=57|35=0|34=21|49=to_xsgo|56=adrbcs|52=20150520-13:23:34.121|10=111|
20150520-13:24:33.044: 8=FIX.4.4|9=57|35=0|34=22|49=adrbcs|52=20150520-13:24:33.044|56=to_xsgo|10=116|
20150520-13:24:34.456: 8=FIX.4.4|9=57|35=0|34=22|49=to_xsgo|56=adrbcs|52=20150520-13:24:34.429|10=124|
20150520-13:25:34.043: 8=FIX.4.4|9=57|35=0|34=23|49=adrbcs|52=20150520-13:25:34.043|56=to_xsgo|10=118|
20150520-13:25:34.908: 8=FIX.4.4|9=57|35=0|34=23|49=to_xsgo|56=adrbcs|52=20150520-13:25:34.878|10=134|
20150520-13:26:34.044: 8=FIX.4.4|9=57|35=0|34=24|49=adrbcs|52=20150520-13:26:34.044|56=to_xsgo|10=121|
20150520-13:26:35.314: 8=FIX.4.4|9=57|35=0|34=24|49=to_xsgo|56=adrbcs|52=20150520-13:26:35.280|10=124|
20150520-13:27:35.043: 8=FIX.4.4|9=57|35=0|34=25|49=adrbcs|52=20150520-13:27:35.043|56=to_xsgo|10=123|
20150520-13:27:35.608: 8=FIX.4.4|9=57|35=0|34=25|49=to_xsgo|56=adrbcs|52=20150520-13:27:35.573|10=131|
20150520-13:28:35.045: 8=FIX.4.4|9=57|35=0|34=26|49=adrbcs|52=20150520-13:28:35.045|56=to_xsgo|10=127|
20150520-13:28:35.911: 8=FIX.4.4|9=57|35=0|34=26|49=to_xsgo|56=adrbcs|52=20150520-13:28:35.882|10=136|
20150520-13:29:36.044: 8=FIX.4.4|9=57|35=0|34=27|49=adrbcs|52=20150520-13:29:36.044|56=to_xsgo|10=129|
20150520-13:29:36.251: 8=FIX.4.4|9=57|35=0|34=27|49=to_xsgo|56=adrbcs|52=20150520-13:29:36.221|10=126|
20150520-13:30:36.074: 8=FIX.4.4|9=57|35=0|34=28|49=adrbcs|52=20150520-13:30:36.074|56=to_xsgo|10=125|
20150520-13:30:36.629: 8=FIX.4.4|9=57|35=0|34=28|49=to_xsgo|56=adrbcs|52=20150520-13:30:36.592|10=130|
20150520-13:31:36.962: 8=FIX.4.4|9=57|35=0|34=29|49=to_xsgo|56=adrbcs|52=20150520-13:31:36.932|10=130|
20150520-13:31:36.963: 8=FIX.4.4|9=57|35=0|34=29|49=adrbcs|52=20150520-13:31:36.963|56=to_xsgo|10=134|
20150520-13:32:37.044: 8=FIX.4.4|9=57|35=0|34=30|49=adrbcs|52=20150520-13:32:37.044|56=to_xsgo|10=118|
20150520-13:32:37.325: 8=FIX.4.4|9=57|35=0|34=30|49=to_xsgo|56=adrbcs|52=20150520-13:32:37.287|10=127|
20150520-13:33:37.691: 8=FIX.4.4|9=57|35=0|34=31|49=to_xsgo|56=adrbcs|52=20150520-13:33:37.658|10=131|
20150520-13:33:37.692: 8=FIX.4.4|9=57|35=0|34=31|49=adrbcs|52=20150520-13:33:37.692|56=to_xsgo|10=129|
20150520-13:34:38.044: 8=FIX.4.4|9=57|35=0|34=32|49=adrbcs|52=20150520-13:34:38.044|56=to_xsgo|10=123|
20150520-13:34:38.108: 8=FIX.4.4|9=57|35=0|34=32|49=to_xsgo|56=adrbcs|52=20150520-13:34:38.080|10=123|
20150520-13:35:38.044: 8=FIX.4.4|9=57|35=0|34=33|49=adrbcs|52=20150520-13:35:38.044|56=to_xsgo|10=125|
20150520-13:35:38.448: 8=FIX.4.4|9=57|35=0|34=33|49=to_xsgo|56=adrbcs|52=20150520-13:35:38.424|10=127|
20150520-13:36:38.807: 8=FIX.4.4|9=57|35=0|34=34|49=to_xsgo|56=adrbcs|52=20150520-13:36:38.783|10=137|
20150520-13:36:38.807: 8=FIX.4.4|9=57|35=0|34=34|49=adrbcs|52=20150520-13:36:38.807|56=to_xsgo|10=134|
20150520-13:37:39.043: 8=FIX.4.4|9=57|35=0|34=35|49=adrbcs|52=20150520-13:37:39.043|56=to_xsgo|10=129|
20150520-13:37:39.103: 8=FIX.4.4|9=57|35=0|34=35|49=to_xsgo|56=adrbcs|52=20150520-13:37:39.080|10=130|
20150520-13:38:39.044: 8=FIX.4.4|9=57|35=0|34=36|49=adrbcs|52=20150520-13:38:39.044|56=to_xsgo|10=132|
20150520-13:38:39.448: 8=FIX.4.4|9=57|35=0|34=36|49=to_xsgo|56=adrbcs|52=20150520-13:38:39.424|10=134|
20150520-13:39:39.811: 8=FIX.4.4|9=57|35=0|34=37|49=to_xsgo|56=adrbcs|52=20150520-13:39:39.796|10=148|
20150520-13:39:39.811: 8=FIX.4.4|9=57|35=0|34=37|49=adrbcs|52=20150520-13:39:39.811|56=to_xsgo|10=136|
20150520-13:40:40.044: 8=FIX.4.4|9=57|35=0|34=38|49=adrbcs|52=20150520-13:40:40.044|56=to_xsgo|10=119|
20150520-13:40:40.096: 8=FIX.4.4|9=57|35=0|34=38|49=to_xsgo|56=adrbcs|52=20150520-13:40:40.075|10=123|
20150520-13:41:40.411: 8=FIX.4.4|9=57|35=0|34=39|49=to_xsgo|56=adrbcs|52=20150520-13:41:40.401|10=118|
20150520-13:41:40.411: 8=FIX.4.4|9=57|35=0|34=39|49=adrbcs|52=20150520-13:41:40.411|56=to_xsgo|10=119|
20150520-13:42:40.725: 8=FIX.4.4|9=57|35=0|34=40|49=to_xsgo|56=adrbcs|52=20150520-13:42:40.711|10=115|
20150520-13:42:40.725: 8=FIX.4.4|9=57|35=0|34=40|49=adrbcs|52=20150520-13:42:40.725|56=to_xsgo|10=120|
20150520-13:43:41.043: 8=FIX.4.4|9=57|35=0|34=41|49=adrbcs|52=20150520-13:43:41.043|56=to_xsgo|10=116|
20150520-13:43:41.107: 8=FIX.4.4|9=57|35=0|34=41|49=to_xsgo|56=adrbcs|52=20150520-13:43:41.099|10=127|
20150520-13:44:41.043: 8=FIX.4.4|9=57|35=0|34=42|49=adrbcs|52=20150520-13:44:41.043|56=to_xsgo|10=118|
20150520-13:44:41.416: 8=FIX.4.4|9=57|35=0|34=42|49=to_xsgo|56=adrbcs|52=20150520-13:44:41.408|10=123|
20150520-13:45:41.043: 8=FIX.4.4|9=57|35=0|34=43|49=adrbcs|52=20150520-13:45:41.043|56=to_xsgo|10=120|
20150520-13:45:41.792: 8=FIX.4.4|9=57|35=0|34=43|49=to_xsgo|56=adrbcs|52=20150520-13:45:41.779|10=136|
20150520-13:46:41.045: 8=FIX.4.4|9=57|35=0|34=44|49=adrbcs|52=20150520-13:46:41.045|56=to_xsgo|10=124|
20150520-13:46:42.164: 8=FIX.4.4|9=57|35=0|34=44|49=to_xsgo|56=adrbcs|52=20150520-13:46:42.150|10=122|
20150520-13:47:42.043: 8=FIX.4.4|9=57|35=0|34=45|49=adrbcs|52=20150520-13:47:42.043|56=to_xsgo|10=125|
20150520-13:47:42.594: 8=FIX.4.4|9=57|35=0|34=45|49=to_xsgo|56=adrbcs|52=20150520-13:47:42.584|10=135|
20150520-13:48:42.044: 8=FIX.4.4|9=57|35=0|34=46|49=adrbcs|52=20150520-13:48:42.044|56=to_xsgo|10=128|
20150520-13:48:42.979: 8=FIX.4.4|9=57|35=0|34=46|49=to_xsgo|56=adrbcs|52=20150520-13:48:42.970|10=136|
20150520-13:49:42.044: 8=FIX.4.4|9=57|35=0|34=47|49=adrbcs|52=20150520-13:49:42.044|56=to_xsgo|10=130|
20150520-13:49:43.434: 8=FIX.4.4|9=57|35=0|34=47|49=to_xsgo|56=adrbcs|52=20150520-13:49:43.420|10=129|
20150520-13:50:42.044: 8=FIX.4.4|9=57|35=0|34=48|49=adrbcs|52=20150520-13:50:42.044|56=to_xsgo|10=123|
20150520-13:50:43.832: 8=FIX.4.4|9=57|35=0|34=48|49=to_xsgo|56=adrbcs|52=20150520-13:50:43.822|10=128|
20150520-13:51:42.044: 8=FIX.4.4|9=57|35=0|34=49|49=adrbcs|52=20150520-13:51:42.044|56=to_xsgo|10=125|
20150520-13:51:44.172: 8=FIX.4.4|9=57|35=0|34=49|49=to_xsgo|56=adrbcs|52=20150520-13:51:44.162|10=128|
20150520-13:52:42.055: 8=FIX.4.4|9=57|35=0|34=50|49=adrbcs|52=20150520-13:52:42.055|56=to_xsgo|10=120|
20150520-13:52:44.574: 8=FIX.4.4|9=57|35=0|34=50|49=to_xsgo|56=adrbcs|52=20150520-13:52:44.565|10=128|
20150520-13:53:43.043: 8=FIX.4.4|9=57|35=0|34=51|49=adrbcs|52=20150520-13:53:43.043|56=to_xsgo|10=120|
20150520-13:53:44.961: 8=FIX.4.4|9=57|35=0|34=51|49=to_xsgo|56=adrbcs|52=20150520-13:53:44.936|10=132|
20150520-13:54:43.044: 8=FIX.4.4|9=57|35=0|34=52|49=adrbcs|52=20150520-13:54:43.043|56=to_xsgo|10=122|
20150520-13:54:45.280: 8=FIX.4.4|9=57|35=0|34=52|49=to_xsgo|56=adrbcs|52=20150520-13:54:45.260|10=125|
20150520-13:55:43.043: 8=FIX.4.4|9=57|35=0|34=53|49=adrbcs|52=20150520-13:55:43.043|56=to_xsgo|10=124|
20150520-13:55:45.580: 8=FIX.4.4|9=57|35=0|34=53|49=to_xsgo|56=adrbcs|52=20150520-13:55:45.568|10=138|
20150520-13:56:43.044: 8=FIX.4.4|9=57|35=0|34=54|49=adrbcs|52=20150520-13:56:43.044|56=to_xsgo|10=127|
20150520-13:56:45.968: 8=FIX.4.4|9=57|35=0|34=54|49=to_xsgo|56=adrbcs|52=20150520-13:56:45.955|10=140|
20150520-13:57:43.044: 8=FIX.4.4|9=57|35=0|34=55|49=adrbcs|52=20150520-13:57:43.044|56=to_xsgo|10=129|
20150520-13:57:46.309: 8=FIX.4.4|9=57|35=0|34=55|49=to_xsgo|56=adrbcs|52=20150520-13:57:46.294|10=139|
20150520-13:58:44.043: 8=FIX.4.4|9=57|35=0|34=56|49=adrbcs|52=20150520-13:58:44.043|56=to_xsgo|10=131|
20150520-13:58:46.634: 8=FIX.4.4|9=57|35=0|34=56|49=to_xsgo|56=adrbcs|52=20150520-13:58:46.618|10=141|
20150520-13:59:44.044: 8=FIX.4.4|9=57|35=0|34=57|49=adrbcs|52=20150520-13:59:44.044|56=to_xsgo|10=134|
20150520-13:59:46.955: 8=FIX.4.4|9=57|35=0|34=57|49=to_xsgo|56=adrbcs|52=20150520-13:59:46.942|10=143|
20150520-14:00:45.044: 8=FIX.4.4|9=57|35=0|34=58|49=adrbcs|52=20150520-14:00:45.044|56=to_xsgo|10=123|
20150520-14:00:47.221: 8=FIX.4.4|9=57|35=0|34=58|49=to_xsgo|56=adrbcs|52=20150520-14:00:47.204|10=123|
20150520-14:01:46.043: 8=FIX.4.4|9=57|35=0|34=59|49=adrbcs|52=20150520-14:01:46.043|56=to_xsgo|10=125|
20150520-14:01:47.511: 8=FIX.4.4|9=57|35=0|34=59|49=to_xsgo|56=adrbcs|52=20150520-14:01:47.497|10=139|
20150520-14:02:46.044: 8=FIX.4.4|9=57|35=0|34=60|49=adrbcs|52=20150520-14:02:46.044|56=to_xsgo|10=119|
20150520-14:02:47.982: 8=FIX.4.4|9=57|35=0|34=60|49=to_xsgo|56=adrbcs|52=20150520-14:02:47.961|10=128|
20150520-14:03:47.044: 8=FIX.4.4|9=57|35=0|34=61|49=adrbcs|52=20150520-14:03:47.044|56=to_xsgo|10=122|
20150520-14:03:48.378: 8=FIX.4.4|9=57|35=0|34=61|49=to_xsgo|56=adrbcs|52=20150520-14:03:48.363|10=127|
20150520-14:04:47.044: 8=FIX.4.4|9=57|35=0|34=62|49=adrbcs|52=20150520-14:04:47.044|56=to_xsgo|10=124|
20150520-14:04:48.562: 8=FIX.4.4|9=57|35=0|34=62|49=to_xsgo|56=adrbcs|52=20150520-14:04:48.547|10=133|
20150520-14:05:48.044: 8=FIX.4.4|9=57|35=0|34=63|49=adrbcs|52=20150520-14:05:48.044|56=to_xsgo|10=127|
20150520-14:05:48.871: 8=FIX.4.4|9=57|35=0|34=63|49=to_xsgo|56=adrbcs|52=20150520-14:05:48.855|10=137|
20150520-14:06:49.043: 8=FIX.4.4|9=57|35=0|34=64|49=adrbcs|52=20150520-14:06:49.043|56=to_xsgo|10=129|
20150520-14:06:49.282: 8=FIX.4.4|9=57|35=0|34=64|49=to_xsgo|56=adrbcs|52=20150520-14:06:49.257|10=136|
20150520-14:07:49.043: 8=FIX.4.4|9=57|35=0|34=65|49=adrbcs|52=20150520-14:07:49.043|56=to_xsgo|10=131|
20150520-14:07:49.678: 8=FIX.4.4|9=57|35=0|34=65|49=to_xsgo|56=adrbcs|52=20150520-14:07:49.659|10=144|
20150520-14:08:49.044: 8=FIX.4.4|9=57|35=0|34=66|49=adrbcs|52=20150520-14:08:49.044|56=to_xsgo|10=134|
20150520-14:08:50.039: 8=FIX.4.4|9=57|35=0|34=66|49=to_xsgo|56=adrbcs|52=20150520-14:08:50.015|10=124|
20150520-14:09:50.044: 8=FIX.4.4|9=57|35=0|34=67|49=adrbcs|52=20150520-14:09:50.044|56=to_xsgo|10=128|
20150520-14:09:50.388: 8=FIX.4.4|9=57|35=0|34=67|49=to_xsgo|56=adrbcs|52=20150520-14:09:50.370|10=130|
20150520-14:10:50.744: 8=FIX.4.4|9=57|35=0|34=68|49=to_xsgo|56=adrbcs|52=20150520-14:10:50.725|10=127|
20150520-14:10:50.745: 8=FIX.4.4|9=57|35=0|34=68|49=adrbcs|52=20150520-14:10:50.745|56=to_xsgo|10=129|
20150520-14:11:51.043: 8=FIX.4.4|9=57|35=0|34=69|49=adrbcs|52=20150520-14:11:51.043|56=to_xsgo|10=123|
20150520-14:11:51.072: 8=FIX.4.4|9=57|35=0|34=69|49=to_xsgo|56=adrbcs|52=20150520-14:11:51.049|10=129|
20150520-14:12:51.043: 8=FIX.4.4|9=57|35=0|34=70|49=adrbcs|52=20150520-14:12:51.043|56=to_xsgo|10=116|
20150520-14:12:51.408: 8=FIX.4.4|9=57|35=0|34=70|49=to_xsgo|56=adrbcs|52=20150520-14:12:51.389|10=129|
20150520-14:13:51.044: 8=FIX.4.4|9=57|35=0|34=71|49=adrbcs|52=20150520-14:13:51.044|56=to_xsgo|10=119|
20150520-14:13:51.703: 8=FIX.4.4|9=57|35=0|34=71|49=to_xsgo|56=adrbcs|52=20150520-14:13:51.682|10=127|
20150520-14:14:52.044: 8=FIX.4.4|9=57|35=0|34=72|49=adrbcs|52=20150520-14:14:52.043|56=to_xsgo|10=121|
20150520-14:14:52.086: 8=FIX.4.4|9=57|35=0|34=72|49=to_xsgo|56=adrbcs|52=20150520-14:14:52.053|10=122|
20150520-14:15:52.044: 8=FIX.4.4|9=57|35=0|34=73|49=adrbcs|52=20150520-14:15:52.044|56=to_xsgo|10=124|
20150520-14:15:52.445: 8=FIX.4.4|9=57|35=0|34=73|49=to_xsgo|56=adrbcs|52=20150520-14:15:52.423|10=125|
20150520-14:16:52.044: 8=FIX.4.4|9=57|35=0|34=74|49=adrbcs|52=20150520-14:16:52.044|56=to_xsgo|10=126|
20150520-14:16:52.786: 8=FIX.4.4|9=57|35=0|34=74|49=to_xsgo|56=adrbcs|52=20150520-14:16:52.763|10=134|
20150520-14:17:52.044: 8=FIX.4.4|9=57|35=0|34=75|49=adrbcs|52=20150520-14:17:52.044|56=to_xsgo|10=128|
20150520-14:17:53.079: 8=FIX.4.4|9=57|35=0|34=75|49=to_xsgo|56=adrbcs|52=20150520-14:17:53.056|10=132|
20150520-14:18:53.044: 8=FIX.4.4|9=57|35=0|34=76|49=adrbcs|52=20150520-14:18:53.044|56=to_xsgo|10=131|
20150520-14:18:53.496: 8=FIX.4.4|9=57|35=0|34=76|49=to_xsgo|56=adrbcs|52=20150520-14:18:53.474|10=138|
20150520-14:19:53.883: 8=FIX.4.4|9=57|35=0|34=77|49=to_xsgo|56=adrbcs|52=20150520-14:19:53.860|10=139|
20150520-14:19:53.884: 8=FIX.4.4|9=57|35=0|34=77|49=adrbcs|52=20150520-14:19:53.884|56=to_xsgo|10=145|
20150520-14:20:54.043: 8=FIX.4.4|9=57|35=0|34=78|49=adrbcs|52=20150520-14:20:54.043|56=to_xsgo|10=126|
20150520-14:20:54.208: 8=FIX.4.4|9=57|35=0|34=78|49=to_xsgo|56=adrbcs|52=20150520-14:20:54.184|10=132|
20150520-14:21:54.043: 8=FIX.4.4|9=57|35=0|34=79|49=adrbcs|52=20150520-14:21:54.043|56=to_xsgo|10=128|
20150520-14:21:54.550: 8=FIX.4.4|9=57|35=0|34=79|49=to_xsgo|56=adrbcs|52=20150520-14:21:54.524|10=132|
20150520-14:22:54.043: 8=FIX.4.4|9=57|35=0|34=80|49=adrbcs|52=20150520-14:22:54.043|56=to_xsgo|10=121|
20150520-14:22:54.883: 8=FIX.4.4|9=57|35=0|34=80|49=to_xsgo|56=adrbcs|52=20150520-14:22:54.848|10=134|
20150520-14:23:54.044: 8=FIX.4.4|9=57|35=0|34=81|49=adrbcs|52=20150520-14:23:54.044|56=to_xsgo|10=124|
20150520-14:23:55.182: 8=FIX.4.4|9=57|35=0|34=81|49=to_xsgo|56=adrbcs|52=20150520-14:23:55.156|10=129|
20150520-14:24:54.044: 8=FIX.4.4|9=57|35=0|34=82|49=adrbcs|52=20150520-14:24:54.044|56=to_xsgo|10=126|
20150520-14:24:55.428: 8=FIX.4.4|9=57|35=0|34=82|49=to_xsgo|56=adrbcs|52=20150520-14:24:55.402|10=125|
20150520-14:25:54.044: 8=FIX.4.4|9=57|35=0|34=83|49=adrbcs|52=20150520-14:25:54.044|56=to_xsgo|10=128|
20150520-14:25:55.800: 8=FIX.4.4|9=57|35=0|34=83|49=to_xsgo|56=adrbcs|52=20150520-14:25:55.773|10=138|
20150520-14:26:55.043: 8=FIX.4.4|9=57|35=0|34=84|49=adrbcs|52=20150520-14:26:55.043|56=to_xsgo|10=130|
20150520-14:26:56.190: 8=FIX.4.4|9=57|35=0|34=84|49=to_xsgo|56=adrbcs|52=20150520-14:26:56.159|10=139|
20150520-14:27:55.043: 8=FIX.4.4|9=57|35=0|34=85|49=adrbcs|52=20150520-14:27:55.043|56=to_xsgo|10=132|
20150520-14:27:56.507: 8=FIX.4.4|9=57|35=0|34=85|49=to_xsgo|56=adrbcs|52=20150520-14:27:56.468|10=144|
20150520-14:28:55.044: 8=FIX.4.4|9=57|35=0|34=86|49=adrbcs|52=20150520-14:28:55.044|56=to_xsgo|10=135|
20150520-14:28:56.826: 8=FIX.4.4|9=57|35=0|34=86|49=to_xsgo|56=adrbcs|52=20150520-14:28:56.792|10=146|
20150520-14:29:55.044: 8=FIX.4.4|9=57|35=0|34=87|49=adrbcs|52=20150520-14:29:55.044|56=to_xsgo|10=137|
20150520-14:29:57.176: 8=FIX.4.4|9=57|35=0|34=87|49=to_xsgo|56=adrbcs|52=20150520-14:29:57.147|10=143|
20150520-14:30:56.043: 8=FIX.4.4|9=57|35=0|34=88|49=adrbcs|52=20150520-14:30:56.043|56=to_xsgo|10=130|
20150520-14:30:57.583: 8=FIX.4.4|9=57|35=0|34=88|49=to_xsgo|56=adrbcs|52=20150520-14:30:57.549|10=142|
20150520-14:31:56.044: 8=FIX.4.4|9=57|35=0|34=89|49=adrbcs|52=20150520-14:31:56.043|56=to_xsgo|10=132|
20150520-14:31:57.901: 8=FIX.4.4|9=57|35=0|34=89|49=to_xsgo|56=adrbcs|52=20150520-14:31:57.858|10=147|
20150520-14:32:56.043: 8=FIX.4.4|9=57|35=0|34=90|49=adrbcs|52=20150520-14:32:56.043|56=to_xsgo|10=125|
20150520-14:32:58.212: 8=FIX.4.4|9=57|35=0|34=90|49=to_xsgo|56=adrbcs|52=20150520-14:32:58.182|10=131|
20150520-14:33:56.043: 8=FIX.4.4|9=57|35=0|34=91|49=adrbcs|52=20150520-14:33:56.043|56=to_xsgo|10=127|
20150520-14:33:58.554: 8=FIX.4.4|9=57|35=0|34=91|49=to_xsgo|56=adrbcs|52=20150520-14:33:58.523|10=132|
20150520-14:34:56.043: 8=FIX.4.4|9=57|35=0|34=92|49=adrbcs|52=20150520-14:34:56.043|56=to_xsgo|10=129|
20150520-14:34:58.815: 8=FIX.4.4|9=57|35=0|34=92|49=to_xsgo|56=adrbcs|52=20150520-14:34:58.789|10=148|
20150520-14:35:56.043: 8=FIX.4.4|9=57|35=0|34=93|49=adrbcs|52=20150520-14:35:56.043|56=to_xsgo|10=131|
20150520-14:35:59.093: 8=FIX.4.4|9=57|35=0|34=93|49=to_xsgo|56=adrbcs|52=20150520-14:35:59.070|10=134|
20150520-14:36:56.043: 8=FIX.4.4|9=57|35=0|34=94|49=adrbcs|52=20150520-14:36:56.043|56=to_xsgo|10=133|
20150520-14:36:59.370: 8=FIX.4.4|9=57|35=0|34=94|49=to_xsgo|56=adrbcs|52=20150520-14:36:59.352|10=139|
20150520-14:37:56.043: 8=FIX.4.4|9=57|35=0|34=95|49=adrbcs|52=20150520-14:37:56.043|56=to_xsgo|10=135|
20150520-14:37:59.804: 8=FIX.4.4|9=57|35=0|34=95|49=to_xsgo|56=adrbcs|52=20150520-14:37:59.789|10=155|
20150520-14:38:56.044: 8=FIX.4.4|9=57|35=0|34=96|49=adrbcs|52=20150520-14:38:56.044|56=to_xsgo|10=138|
20150520-14:39:00.206: 8=FIX.4.4|9=57|35=0|34=96|49=to_xsgo|56=adrbcs|52=20150520-14:39:00.194|10=134|
20150520-14:39:56.044: 8=FIX.4.4|9=57|35=0|34=97|49=adrbcs|52=20150520-14:39:56.044|56=to_xsgo|10=140|
20150520-14:40:00.551: 8=FIX.4.4|9=57|35=0|34=97|49=to_xsgo|56=adrbcs|52=20150520-14:40:00.536|10=127|
20150520-14:40:57.044: 8=FIX.4.4|9=57|35=0|34=98|49=adrbcs|52=20150520-14:40:57.044|56=to_xsgo|10=134|
20150520-14:41:00.840: 8=FIX.4.4|9=57|35=0|34=98|49=to_xsgo|56=adrbcs|52=20150520-14:41:00.830|10=126|
20150520-14:41:57.044: 8=FIX.4.4|9=57|35=0|34=99|49=adrbcs|52=20150520-14:41:57.044|56=to_xsgo|10=136|
20150520-14:42:01.151: 8=FIX.4.4|9=57|35=0|34=99|49=to_xsgo|56=adrbcs|52=20150520-14:42:01.140|10=123|
20150520-14:42:58.043: 8=FIX.4.4|9=58|35=0|34=100|49=adrbcs|52=20150520-14:42:58.043|56=to_xsgo|10=169|
20150520-14:43:01.458: 8=FIX.4.4|9=58|35=0|34=100|49=to_xsgo|56=adrbcs|52=20150520-14:43:01.450|10=160|
20150520-14:43:58.044: 8=FIX.4.4|9=58|35=0|34=101|49=adrbcs|52=20150520-14:43:58.044|56=to_xsgo|10=172|
20150520-14:44:01.788: 8=FIX.4.4|9=58|35=0|34=101|49=to_xsgo|56=adrbcs|52=20150520-14:44:01.775|10=172|
20150520-14:44:59.044: 8=FIX.4.4|9=58|35=0|34=102|49=adrbcs|52=20150520-14:44:59.044|56=to_xsgo|10=175|
20150520-14:45:02.142: 8=FIX.4.4|9=58|35=0|34=102|49=to_xsgo|56=adrbcs|52=20150520-14:45:02.115|10=163|
20150520-14:45:59.044: 8=FIX.4.4|9=58|35=0|34=103|49=adrbcs|52=20150520-14:45:59.044|56=to_xsgo|10=177|
20150520-14:46:02.400: 8=FIX.4.4|9=58|35=0|34=103|49=to_xsgo|56=adrbcs|52=20150520-14:46:02.393|10=173|
20150520-14:46:59.044: 8=FIX.4.4|9=58|35=0|34=104|49=adrbcs|52=20150520-14:46:59.044|56=to_xsgo|10=179|
20150520-14:47:02.803: 8=FIX.4.4|9=58|35=0|34=104|49=to_xsgo|56=adrbcs|52=20150520-14:47:02.795|10=181|
20150520-14:47:59.044: 8=FIX.4.4|9=58|35=0|34=105|49=adrbcs|52=20150520-14:47:59.044|56=to_xsgo|10=181|
20150520-14:48:03.158: 8=FIX.4.4|9=58|35=0|34=105|49=to_xsgo|56=adrbcs|52=20150520-14:48:03.151|10=170|
20150520-14:49:00.043: 8=FIX.4.4|9=58|35=0|34=106|49=adrbcs|52=20150520-14:49:00.043|56=to_xsgo|10=169|
20150520-14:49:03.502: 8=FIX.4.4|9=58|35=0|34=106|49=to_xsgo|56=adrbcs|52=20150520-14:49:03.491|10=179|
20150520-14:50:00.043: 8=FIX.4.4|9=58|35=0|34=107|49=adrbcs|52=20150520-14:50:00.043|56=to_xsgo|10=162|
20150520-14:50:03.808: 8=FIX.4.4|9=58|35=0|34=107|49=to_xsgo|56=adrbcs|52=20150520-14:50:03.799|10=183|
20150520-14:51:00.044: 8=FIX.4.4|9=58|35=0|34=108|49=adrbcs|52=20150520-14:51:00.044|56=to_xsgo|10=165|
20150520-14:51:04.137: 8=FIX.4.4|9=58|35=0|34=108|49=to_xsgo|56=adrbcs|52=20150520-14:51:04.123|10=167|
20150520-14:52:01.044: 8=FIX.4.4|9=58|35=0|34=109|49=adrbcs|52=20150520-14:52:01.044|56=to_xsgo|10=168|
20150520-14:52:04.474: 8=FIX.4.4|9=58|35=0|34=109|49=to_xsgo|56=adrbcs|52=20150520-14:52:04.463|10=176|
20150520-14:53:01.044: 8=FIX.4.4|9=58|35=0|34=110|49=adrbcs|52=20150520-14:53:01.044|56=to_xsgo|10=161|
20150520-14:53:04.792: 8=FIX.4.4|9=58|35=0|34=110|49=to_xsgo|56=adrbcs|52=20150520-14:53:04.771|10=171|
20150520-14:54:02.044: 8=FIX.4.4|9=58|35=0|34=111|49=adrbcs|52=20150520-14:54:02.044|56=to_xsgo|10=164|
20150520-14:54:05.138: 8=FIX.4.4|9=58|35=0|34=111|49=to_xsgo|56=adrbcs|52=20150520-14:54:05.126|10=168|
20150520-14:55:02.045: 8=FIX.4.4|9=58|35=0|34=112|49=adrbcs|52=20150520-14:55:02.044|56=to_xsgo|10=166|
20150520-14:55:05.501: 8=FIX.4.4|9=58|35=0|34=112|49=to_xsgo|56=adrbcs|52=20150520-14:55:05.482|10=175|
20150520-14:56:02.044: 8=FIX.4.4|9=58|35=0|34=113|49=adrbcs|52=20150520-14:56:02.044|56=to_xsgo|10=168|
20150520-14:56:05.898: 8=FIX.4.4|9=58|35=0|34=113|49=to_xsgo|56=adrbcs|52=20150520-14:56:05.884|10=183|
20150520-14:57:03.044: 8=FIX.4.4|9=58|35=0|34=114|49=adrbcs|52=20150520-14:57:03.044|56=to_xsgo|10=171|
20150520-14:57:06.237: 8=FIX.4.4|9=58|35=0|34=114|49=to_xsgo|56=adrbcs|52=20150520-14:57:06.223|10=173|
20150520-14:58:03.044: 8=FIX.4.4|9=58|35=0|34=115|49=adrbcs|52=20150520-14:58:03.044|56=to_xsgo|10=173|
20150520-14:58:06.515: 8=FIX.4.4|9=58|35=0|34=115|49=to_xsgo|56=adrbcs|52=20150520-14:58:06.501|10=174|
20150520-14:59:03.051: 8=FIX.4.4|9=58|35=0|34=116|49=adrbcs|52=20150520-14:59:03.051|56=to_xsgo|10=173|
20150520-14:59:06.924: 8=FIX.4.4|9=58|35=0|34=116|49=to_xsgo|56=adrbcs|52=20150520-14:59:06.903|10=182|
20150520-15:00:04.044: 8=FIX.4.4|9=58|35=0|34=117|49=adrbcs|52=20150520-15:00:04.044|56=to_xsgo|10=164|
20150520-15:00:07.340: 8=FIX.4.4|9=58|35=0|34=117|49=to_xsgo|56=adrbcs|52=20150520-15:00:07.320|10=164|
20150520-15:01:04.044: 8=FIX.4.4|9=58|35=0|34=118|49=adrbcs|52=20150520-15:01:04.044|56=to_xsgo|10=166|
20150520-15:01:07.658: 8=FIX.4.4|9=58|35=0|34=118|49=to_xsgo|56=adrbcs|52=20150520-15:01:07.629|10=178|
20150520-15:02:05.044: 8=FIX.4.4|9=58|35=0|34=119|49=adrbcs|52=20150520-15:02:05.044|56=to_xsgo|10=169|
20150520-15:02:08.006: 8=FIX.4.4|9=58|35=0|34=119|49=to_xsgo|56=adrbcs|52=20150520-15:02:07.984|10=184|
20150520-15:03:06.043: 8=FIX.4.4|9=58|35=0|34=120|49=adrbcs|52=20150520-15:03:06.043|56=to_xsgo|10=162|
20150520-15:03:08.341: 8=FIX.4.4|9=58|35=0|34=120|49=to_xsgo|56=adrbcs|52=20150520-15:03:08.324|10=166|
20150520-15:04:06.043: 8=FIX.4.4|9=58|35=0|34=121|49=adrbcs|52=20150520-15:04:06.043|56=to_xsgo|10=164|
20150520-15:04:08.664: 8=FIX.4.4|9=58|35=0|34=121|49=to_xsgo|56=adrbcs|52=20150520-15:04:08.632|10=170|
20150520-15:05:06.043: 8=FIX.4.4|9=58|35=0|34=122|49=adrbcs|52=20150520-15:05:06.043|56=to_xsgo|10=166|
20150520-15:05:08.975: 8=FIX.4.4|9=58|35=0|34=122|49=to_xsgo|56=adrbcs|52=20150520-15:05:08.956|10=181|
20150520-15:06:06.044: 8=FIX.4.4|9=58|35=0|34=123|49=adrbcs|52=20150520-15:06:06.044|56=to_xsgo|10=169|
20150520-15:06:09.313: 8=FIX.4.4|9=58|35=0|34=123|49=to_xsgo|56=adrbcs|52=20150520-15:06:09.296|10=181|
20150520-15:07:06.044: 8=FIX.4.4|9=58|35=0|34=124|49=adrbcs|52=20150520-15:07:06.044|56=to_xsgo|10=171|
20150520-15:07:09.624: 8=FIX.4.4|9=58|35=0|34=124|49=to_xsgo|56=adrbcs|52=20150520-15:07:09.604|10=176|
20150520-15:08:07.044: 8=FIX.4.4|9=58|35=0|34=125|49=adrbcs|52=20150520-15:08:07.044|56=to_xsgo|10=174|
20150520-15:08:09.947: 8=FIX.4.4|9=58|35=0|34=125|49=to_xsgo|56=adrbcs|52=20150520-15:08:09.928|10=187|
20150520-15:09:08.043: 8=FIX.4.4|9=58|35=0|34=126|49=adrbcs|52=20150520-15:09:08.043|56=to_xsgo|10=176|
20150520-15:09:10.304: 8=FIX.4.4|9=58|35=0|34=126|49=to_xsgo|56=adrbcs|52=20150520-15:09:10.283|10=175|
20150520-15:10:08.044: 8=FIX.4.4|9=58|35=0|34=127|49=adrbcs|52=20150520-15:10:08.044|56=to_xsgo|10=170|
20150520-15:10:10.644: 8=FIX.4.4|9=58|35=0|34=127|49=to_xsgo|56=adrbcs|52=20150520-15:10:10.623|10=166|
20150520-15:11:08.044: 8=FIX.4.4|9=58|35=0|34=128|49=adrbcs|52=20150520-15:11:08.044|56=to_xsgo|10=172|
20150520-15:11:10.999: 8=FIX.4.4|9=58|35=0|34=128|49=to_xsgo|56=adrbcs|52=20150520-15:11:10.978|10=181|
20150520-15:12:08.044: 8=FIX.4.4|9=58|35=0|34=129|49=adrbcs|52=20150520-15:12:08.044|56=to_xsgo|10=174|
20150520-15:12:11.356: 8=FIX.4.4|9=58|35=0|34=129|49=to_xsgo|56=adrbcs|52=20150520-15:12:11.334|10=170|
20150520-15:13:08.046: 8=FIX.4.4|9=58|35=0|34=130|49=adrbcs|52=20150520-15:13:08.046|56=to_xsgo|10=169|
20150520-15:13:11.710: 8=FIX.4.4|9=58|35=0|34=130|49=to_xsgo|56=adrbcs|52=20150520-15:13:11.689|10=176|
20150520-15:14:09.044: 8=FIX.4.4|9=58|35=0|34=131|49=adrbcs|52=20150520-15:14:09.044|56=to_xsgo|10=170|
20150520-15:14:12.050: 8=FIX.4.4|9=58|35=0|34=131|49=to_xsgo|56=adrbcs|52=20150520-15:14:12.028|10=166|
20150520-15:15:10.044: 8=FIX.4.4|9=58|35=0|34=132|49=adrbcs|52=20150520-15:15:10.044|56=to_xsgo|10=164|
20150520-15:15:12.564: 8=FIX.4.4|9=58|35=0|34=132|49=to_xsgo|56=adrbcs|52=20150520-15:15:12.540|10=167|
20150520-15:16:10.044: 8=FIX.4.4|9=58|35=0|34=133|49=adrbcs|52=20150520-15:16:10.044|56=to_xsgo|10=166|
20150520-15:16:12.886: 8=FIX.4.4|9=58|35=0|34=133|49=to_xsgo|56=adrbcs|52=20150520-15:16:12.864|10=178|
20150520-15:17:11.043: 8=FIX.4.4|9=58|35=0|34=134|49=adrbcs|52=20150520-15:17:11.043|56=to_xsgo|10=168|
20150520-15:17:13.244: 8=FIX.4.4|9=58|35=0|34=134|49=to_xsgo|56=adrbcs|52=20150520-15:17:13.219|10=175|
20150520-15:18:11.043: 8=FIX.4.4|9=58|35=0|34=135|49=adrbcs|52=20150520-15:18:11.043|56=to_xsgo|10=170|
20150520-15:18:13.634: 8=FIX.4.4|9=58|35=0|34=135|49=to_xsgo|56=adrbcs|52=20150520-15:18:13.590|10=179|
20150520-15:19:11.044: 8=FIX.4.4|9=58|35=0|34=136|49=adrbcs|52=20150520-15:19:11.044|56=to_xsgo|10=173|
20150520-15:19:13.990: 8=FIX.4.4|9=58|35=0|34=136|49=to_xsgo|56=adrbcs|52=20150520-15:19:13.961|10=183|
20150520-15:20:11.044: 8=FIX.4.4|9=58|35=0|34=137|49=adrbcs|52=20150520-15:20:11.044|56=to_xsgo|10=166|
20150520-15:20:14.391: 8=FIX.4.4|9=58|35=0|34=137|49=to_xsgo|56=adrbcs|52=20150520-15:20:14.363|10=173|
20150520-15:21:11.044: 8=FIX.4.4|9=58|35=0|34=138|49=adrbcs|52=20150520-15:21:11.044|56=to_xsgo|10=168|
20150520-15:21:14.744: 8=FIX.4.4|9=58|35=0|34=138|49=to_xsgo|56=adrbcs|52=20150520-15:21:14.718|10=179|
20150520-15:22:12.044: 8=FIX.4.4|9=58|35=0|34=139|49=adrbcs|52=20150520-15:22:12.044|56=to_xsgo|10=171|
20150520-15:22:15.039: 8=FIX.4.4|9=58|35=0|34=139|49=to_xsgo|56=adrbcs|52=20150520-15:22:15.011|10=168|
20150520-15:23:13.044: 8=FIX.4.4|9=58|35=0|34=140|49=adrbcs|52=20150520-15:23:13.044|56=to_xsgo|10=165|
20150520-15:23:15.331: 8=FIX.4.4|9=58|35=0|34=140|49=to_xsgo|56=adrbcs|52=20150520-15:23:15.304|10=166|
20150520-15:24:13.044: 8=FIX.4.4|9=58|35=0|34=141|49=adrbcs|52=20150520-15:24:13.044|56=to_xsgo|10=167|
20150520-15:24:15.668: 8=FIX.4.4|9=58|35=0|34=141|49=to_xsgo|56=adrbcs|52=20150520-15:24:15.612|10=170|
20150520-15:25:14.044: 8=FIX.4.4|9=58|35=0|34=142|49=adrbcs|52=20150520-15:25:14.044|56=to_xsgo|10=170|
20150520-15:25:15.902: 8=FIX.4.4|9=58|35=0|34=142|49=to_xsgo|56=adrbcs|52=20150520-15:25:15.874|10=182|
20150520-15:26:15.043: 8=FIX.4.4|9=58|35=0|34=143|49=adrbcs|52=20150520-15:26:15.043|56=to_xsgo|10=172|
20150520-15:26:16.179: 8=FIX.4.4|9=58|35=0|34=143|49=to_xsgo|56=adrbcs|52=20150520-15:26:16.151|10=173|
20150520-15:27:15.043: 8=FIX.4.4|9=58|35=0|34=144|49=adrbcs|52=20150520-15:27:15.043|56=to_xsgo|10=174|
20150520-15:27:16.521: 8=FIX.4.4|9=58|35=0|34=144|49=to_xsgo|56=adrbcs|52=20150520-15:27:16.491|10=182|
20150520-15:28:15.044: 8=FIX.4.4|9=58|35=0|34=145|49=adrbcs|52=20150520-15:28:15.044|56=to_xsgo|10=177|
20150520-15:28:16.845: 8=FIX.4.4|9=58|35=0|34=145|49=to_xsgo|56=adrbcs|52=20150520-15:28:16.815|10=184|
20150520-15:29:16.043: 8=FIX.4.4|9=58|35=0|34=146|49=adrbcs|52=20150520-15:29:16.043|56=to_xsgo|10=179|
20150520-15:29:17.134: 8=FIX.4.4|9=58|35=0|34=146|49=to_xsgo|56=adrbcs|52=20150520-15:29:17.092|10=184|
20150520-15:30:16.044: 8=FIX.4.4|9=58|35=0|34=147|49=adrbcs|52=20150520-15:30:16.044|56=to_xsgo|10=173|
20150520-15:30:17.448: 8=FIX.4.4|9=58|35=0|34=147|49=to_xsgo|56=adrbcs|52=20150520-15:30:17.416|10=177|
20150520-15:31:16.044: 8=FIX.4.4|9=58|35=0|34=148|49=adrbcs|52=20150520-15:31:16.044|56=to_xsgo|10=175|
20150520-15:31:17.820: 8=FIX.4.4|9=58|35=0|34=148|49=to_xsgo|56=adrbcs|52=20150520-15:31:17.787|10=190|
20150520-15:32:16.044: 8=FIX.4.4|9=58|35=0|34=149|49=adrbcs|52=20150520-15:32:16.044|56=to_xsgo|10=177|
20150520-15:32:18.173: 8=FIX.4.4|9=58|35=0|34=149|49=to_xsgo|56=adrbcs|52=20150520-15:32:18.142|10=178|
20150520-15:33:16.044: 8=FIX.4.4|9=58|35=0|34=150|49=adrbcs|52=20150520-15:33:16.044|56=to_xsgo|10=170|
20150520-15:33:18.514: 8=FIX.4.4|9=58|35=0|34=150|49=to_xsgo|56=adrbcs|52=20150520-15:33:18.482|10=178|
20150520-15:34:16.044: 8=FIX.4.4|9=58|35=0|34=151|49=adrbcs|52=20150520-15:34:16.044|56=to_xsgo|10=172|
20150520-15:34:18.807: 8=FIX.4.4|9=58|35=0|34=151|49=to_xsgo|56=adrbcs|52=20150520-15:34:18.777|10=187|
20150520-15:35:16.044: 8=FIX.4.4|9=58|35=0|34=152|49=adrbcs|52=20150520-15:35:16.044|56=to_xsgo|10=174|
20150520-15:35:19.164: 8=FIX.4.4|9=58|35=0|34=152|49=to_xsgo|56=adrbcs|52=20150520-15:35:19.137|10=180|
20150520-15:36:17.044: 8=FIX.4.4|9=58|35=0|34=153|49=adrbcs|52=20150520-15:36:17.044|56=to_xsgo|10=177|
20150520-15:36:19.503: 8=FIX.4.4|9=58|35=0|34=153|49=to_xsgo|56=adrbcs|52=20150520-15:36:19.481|10=184|
20150520-15:37:18.043: 8=FIX.4.4|9=58|35=0|34=154|49=adrbcs|52=20150520-15:37:18.043|56=to_xsgo|10=179|
20150520-15:37:19.828: 8=FIX.4.4|9=58|35=0|34=154|49=to_xsgo|56=adrbcs|52=20150520-15:37:19.809|10=190|
20150520-15:38:18.043: 8=FIX.4.4|9=58|35=0|34=155|49=adrbcs|52=20150520-15:38:18.043|56=to_xsgo|10=181|
20150520-15:38:20.200: 8=FIX.4.4|9=58|35=0|34=155|49=to_xsgo|56=adrbcs|52=20150520-15:38:20.184|10=180|
20150520-15:39:18.043: 8=FIX.4.4|9=58|35=0|34=156|49=adrbcs|52=20150520-15:39:18.043|56=to_xsgo|10=183|
20150520-15:39:20.566: 8=FIX.4.4|9=58|35=0|34=156|49=to_xsgo|56=adrbcs|52=20150520-15:39:20.542|10=180|
20150520-15:40:18.043: 8=FIX.4.4|9=58|35=0|34=157|49=adrbcs|52=20150520-15:40:18.043|56=to_xsgo|10=176|
20150520-15:40:20.980: 8=FIX.4.4|9=58|35=0|34=157|49=to_xsgo|56=adrbcs|52=20150520-15:40:20.961|10=178|
20150520-15:41:18.043: 8=FIX.4.4|9=58|35=0|34=158|49=adrbcs|52=20150520-15:41:18.043|56=to_xsgo|10=178|
20150520-15:41:21.298: 8=FIX.4.4|9=58|35=0|34=158|49=to_xsgo|56=adrbcs|52=20150520-15:41:21.286|10=181|
20150520-15:42:18.044: 8=FIX.4.4|9=58|35=0|34=159|49=adrbcs|52=20150520-15:42:18.044|56=to_xsgo|10=181|
20150520-15:42:21.545: 8=FIX.4.4|9=58|35=0|34=159|49=to_xsgo|56=adrbcs|52=20150520-15:42:21.534|10=179|
20150520-15:43:18.044: 8=FIX.4.4|9=58|35=0|34=160|49=adrbcs|52=20150520-15:43:18.044|56=to_xsgo|10=174|
20150520-15:43:21.877: 8=FIX.4.4|9=58|35=0|34=160|49=to_xsgo|56=adrbcs|52=20150520-15:43:21.860|10=174|
20150520-15:44:18.044: 8=FIX.4.4|9=58|35=0|34=161|49=adrbcs|52=20150520-15:44:18.044|56=to_xsgo|10=176|
20150520-15:44:22.147: 8=FIX.4.4|9=58|35=0|34=161|49=to_xsgo|56=adrbcs|52=20150520-15:44:22.138|10=175|
20150520-15:45:18.045: 8=FIX.4.4|9=58|35=0|34=162|49=adrbcs|52=20150520-15:45:18.045|56=to_xsgo|10=179|
20150520-15:45:22.488: 8=FIX.4.4|9=58|35=0|34=162|49=to_xsgo|56=adrbcs|52=20150520-15:45:22.478|10=184|
20150520-15:46:19.044: 8=FIX.4.4|9=58|35=0|34=163|49=adrbcs|52=20150520-15:46:19.044|56=to_xsgo|10=181|
20150520-15:46:22.813: 8=FIX.4.4|9=58|35=0|34=163|49=to_xsgo|56=adrbcs|52=20150520-15:46:22.802|10=177|
20150520-15:47:19.044: 8=FIX.4.4|9=58|35=0|34=164|49=adrbcs|52=20150520-15:47:19.044|56=to_xsgo|10=183|
20150520-15:47:23.126: 8=FIX.4.4|9=58|35=0|34=164|49=to_xsgo|56=adrbcs|52=20150520-15:47:23.111|10=173|
20150520-15:48:19.044: 8=FIX.4.4|9=58|35=0|34=165|49=adrbcs|52=20150520-15:48:19.044|56=to_xsgo|10=185|
20150520-15:48:23.445: 8=FIX.4.4|9=58|35=0|34=165|49=to_xsgo|56=adrbcs|52=20150520-15:48:23.435|10=184|
20150520-15:49:19.044: 8=FIX.4.4|9=58|35=0|34=166|49=adrbcs|52=20150520-15:49:19.044|56=to_xsgo|10=187|
20150520-15:49:23.740: 8=FIX.4.4|9=58|35=0|34=166|49=to_xsgo|56=adrbcs|52=20150520-15:49:23.728|10=191|
20150520-15:50:19.044: 8=FIX.4.4|9=58|35=0|34=167|49=adrbcs|52=20150520-15:50:19.044|56=to_xsgo|10=180|
20150520-15:50:24.097: 8=FIX.4.4|9=58|35=0|34=167|49=to_xsgo|56=adrbcs|52=20150520-15:50:24.084|10=180|
20150520-15:51:20.044: 8=FIX.4.4|9=58|35=0|34=168|49=adrbcs|52=20150520-15:51:20.044|56=to_xsgo|10=174|
20150520-15:51:24.426: 8=FIX.4.4|9=58|35=0|34=168|49=to_xsgo|56=adrbcs|52=20150520-15:51:24.409|10=183|
20150520-15:52:20.044: 8=FIX.4.4|9=58|35=0|34=169|49=adrbcs|52=20150520-15:52:20.044|56=to_xsgo|10=176|
20150520-15:52:24.761: 8=FIX.4.4|9=58|35=0|34=169|49=to_xsgo|56=adrbcs|52=20150520-15:52:24.749|10=192|
20150520-15:53:20.044: 8=FIX.4.4|9=58|35=0|34=170|49=adrbcs|52=20150520-15:53:20.044|56=to_xsgo|10=169|
20150520-15:53:25.070: 8=FIX.4.4|9=58|35=0|34=170|49=to_xsgo|56=adrbcs|52=20150520-15:53:25.057|10=178|
20150520-15:54:21.044: 8=FIX.4.4|9=58|35=0|34=171|49=adrbcs|52=20150520-15:54:21.044|56=to_xsgo|10=172|
20150520-15:54:25.368: 8=FIX.4.4|9=58|35=0|34=171|49=to_xsgo|56=adrbcs|52=20150520-15:54:25.350|10=176|
20150520-15:55:22.044: 8=FIX.4.4|9=58|35=0|34=172|49=adrbcs|52=20150520-15:55:22.044|56=to_xsgo|10=175|
20150520-15:55:25.688: 8=FIX.4.4|9=58|35=0|34=172|49=to_xsgo|56=adrbcs|52=20150520-15:55:25.674|10=187|
20150520-15:56:23.043: 8=FIX.4.4|9=58|35=0|34=173|49=adrbcs|52=20150520-15:56:23.043|56=to_xsgo|10=177|
20150520-15:56:25.996: 8=FIX.4.4|9=58|35=0|34=173|49=to_xsgo|56=adrbcs|52=20150520-15:56:25.983|10=192|
20150520-15:57:23.043: 8=FIX.4.4|9=58|35=0|34=174|49=adrbcs|52=20150520-15:57:23.043|56=to_xsgo|10=179|
20150520-15:57:26.320: 8=FIX.4.4|9=58|35=0|34=174|49=to_xsgo|56=adrbcs|52=20150520-15:57:26.291|10=187|
20150520-15:58:23.044: 8=FIX.4.4|9=58|35=0|34=175|49=adrbcs|52=20150520-15:58:23.043|56=to_xsgo|10=181|
20150520-15:58:26.602: 8=FIX.4.4|9=58|35=0|34=175|49=to_xsgo|56=adrbcs|52=20150520-15:58:26.584|10=194|
20150520-15:59:23.043: 8=FIX.4.4|9=58|35=0|34=176|49=adrbcs|52=20150520-15:59:23.043|56=to_xsgo|10=183|
20150520-15:59:26.931: 8=FIX.4.4|9=58|35=0|34=176|49=to_xsgo|56=adrbcs|52=20150520-15:59:26.908|10=196|
20150520-16:00:23.043: 8=FIX.4.4|9=58|35=0|34=177|49=adrbcs|52=20150520-16:00:23.043|56=to_xsgo|10=171|
20150520-16:00:27.248: 8=FIX.4.4|9=58|35=0|34=177|49=to_xsgo|56=adrbcs|52=20150520-16:00:27.232|10=175|
20150520-16:01:23.043: 8=FIX.4.4|9=58|35=0|34=178|49=adrbcs|52=20150520-16:01:23.043|56=to_xsgo|10=173|
20150520-16:01:27.684: 8=FIX.4.4|9=58|35=0|34=178|49=to_xsgo|56=adrbcs|52=20150520-16:01:27.665|10=187|
20150520-16:02:23.043: 8=FIX.4.4|9=58|35=0|34=179|49=adrbcs|52=20150520-16:02:23.043|56=to_xsgo|10=175|
20150520-16:02:28.028: 8=FIX.4.4|9=58|35=0|34=179|49=to_xsgo|56=adrbcs|52=20150520-16:02:28.005|10=178|
20150520-16:03:23.043: 8=FIX.4.4|9=58|35=0|34=180|49=adrbcs|52=20150520-16:03:23.043|56=to_xsgo|10=168|
20150520-16:03:28.361: 8=FIX.4.4|9=58|35=0|34=180|49=to_xsgo|56=adrbcs|52=20150520-16:03:28.345|10=178|
20150520-16:04:23.043: 8=FIX.4.4|9=58|35=0|34=181|49=adrbcs|52=20150520-16:04:23.043|56=to_xsgo|10=170|
20150520-16:04:28.640: 8=FIX.4.4|9=58|35=0|34=181|49=to_xsgo|56=adrbcs|52=20150520-16:04:28.622|10=178|
20150520-16:05:23.043: 8=FIX.4.4|9=58|35=0|34=182|49=adrbcs|52=20150520-16:05:23.043|56=to_xsgo|10=172|
20150520-16:05:28.980: 8=FIX.4.4|9=58|35=0|34=182|49=to_xsgo|56=adrbcs|52=20150520-16:05:28.962|10=187|
20150520-16:06:23.043: 8=FIX.4.4|9=58|35=0|34=183|49=adrbcs|52=20150520-16:06:23.043|56=to_xsgo|10=174|
20150520-16:06:29.382: 8=FIX.4.4|9=58|35=0|34=183|49=to_xsgo|56=adrbcs|52=20150520-16:06:29.364|10=186|
20150520-16:07:23.043: 8=FIX.4.4|9=58|35=0|34=184|49=adrbcs|52=20150520-16:07:23.043|56=to_xsgo|10=176|
20150520-16:07:29.879: 8=FIX.4.4|9=58|35=0|34=184|49=to_xsgo|56=adrbcs|52=20150520-16:07:29.859|10=197|
20150520-16:08:23.044: 8=FIX.4.4|9=58|35=0|34=185|49=adrbcs|52=20150520-16:08:23.044|56=to_xsgo|10=179|
20150520-16:08:30.177: 8=FIX.4.4|9=58|35=0|34=185|49=to_xsgo|56=adrbcs|52=20150520-16:08:30.152|10=177|
20150520-16:09:23.044: 8=FIX.4.4|9=58|35=0|34=186|49=adrbcs|52=20150520-16:09:23.044|56=to_xsgo|10=181|
20150520-16:09:30.500: 8=FIX.4.4|9=58|35=0|34=186|49=to_xsgo|56=adrbcs|52=20150520-16:09:30.476|10=188|
20150520-16:10:24.044: 8=FIX.4.4|9=58|35=0|34=187|49=adrbcs|52=20150520-16:10:24.044|56=to_xsgo|10=175|
20150520-16:10:30.792: 8=FIX.4.4|9=58|35=0|34=187|49=to_xsgo|56=adrbcs|52=20150520-16:10:30.769|10=186|
20150520-16:11:24.044: 8=FIX.4.4|9=58|35=0|34=188|49=adrbcs|52=20150520-16:11:24.044|56=to_xsgo|10=177|
20150520-16:11:31.099: 8=FIX.4.4|9=58|35=0|34=188|49=to_xsgo|56=adrbcs|52=20150520-16:11:31.077|10=181|
20150520-16:12:25.044: 8=FIX.4.4|9=58|35=0|34=189|49=adrbcs|52=20150520-16:12:25.043|56=to_xsgo|10=179|
20150520-16:12:31.450: 8=FIX.4.4|9=58|35=0|34=189|49=to_xsgo|56=adrbcs|52=20150520-16:12:31.417|10=181|
20150520-16:13:25.043: 8=FIX.4.4|9=58|35=0|34=190|49=adrbcs|52=20150520-16:13:25.043|56=to_xsgo|10=172|
20150520-16:13:31.735: 8=FIX.4.4|9=58|35=0|34=190|49=to_xsgo|56=adrbcs|52=20150520-16:13:31.710|10=170|
20150520-16:14:25.044: 8=FIX.4.4|9=58|35=0|34=191|49=adrbcs|52=20150520-16:14:25.044|56=to_xsgo|10=175|
20150520-16:14:32.046: 8=FIX.4.4|9=58|35=0|34=191|49=to_xsgo|56=adrbcs|52=20150520-16:14:32.018|10=174|
20150520-16:15:25.044: 8=FIX.4.4|9=58|35=0|34=192|49=adrbcs|52=20150520-16:15:25.044|56=to_xsgo|10=177|
20150520-16:15:32.366: 8=FIX.4.4|9=58|35=0|34=192|49=to_xsgo|56=adrbcs|52=20150520-16:15:32.342|10=176|
20150520-16:16:25.044: 8=FIX.4.4|9=58|35=0|34=193|49=adrbcs|52=20150520-16:16:25.044|56=to_xsgo|10=179|
20150520-16:16:32.691: 8=FIX.4.4|9=58|35=0|34=193|49=to_xsgo|56=adrbcs|52=20150520-16:16:32.666|10=187|
20150520-16:17:26.044: 8=FIX.4.4|9=58|35=0|34=194|49=adrbcs|52=20150520-16:17:26.044|56=to_xsgo|10=182|
20150520-16:17:32.975: 8=FIX.4.4|9=58|35=0|34=194|49=to_xsgo|56=adrbcs|52=20150520-16:17:32.944|10=188|
20150520-16:18:26.044: 8=FIX.4.4|9=58|35=0|34=195|49=adrbcs|52=20150520-16:18:26.044|56=to_xsgo|10=184|
20150520-16:18:33.298: 8=FIX.4.4|9=58|35=0|34=195|49=to_xsgo|56=adrbcs|52=20150520-16:18:33.268|10=190|
20150520-16:19:26.044: 8=FIX.4.4|9=58|35=0|34=196|49=adrbcs|52=20150520-16:19:26.044|56=to_xsgo|10=186|
20150520-16:19:33.681: 8=FIX.4.4|9=58|35=0|34=196|49=to_xsgo|56=adrbcs|52=20150520-16:19:33.654|10=191|
20150520-16:20:26.044: 8=FIX.4.4|9=58|35=0|34=197|49=adrbcs|52=20150520-16:20:26.044|56=to_xsgo|10=179|
20150520-16:20:33.991: 8=FIX.4.4|9=58|35=0|34=197|49=to_xsgo|56=adrbcs|52=20150520-16:20:33.963|10=187|
20150520-16:21:26.044: 8=FIX.4.4|9=58|35=0|34=198|49=adrbcs|52=20150520-16:21:26.044|56=to_xsgo|10=181|
20150520-16:21:34.315: 8=FIX.4.4|9=58|35=0|34=198|49=to_xsgo|56=adrbcs|52=20150520-16:21:34.287|10=189|
20150520-16:22:27.044: 8=FIX.4.4|9=58|35=0|34=199|49=adrbcs|52=20150520-16:22:27.044|56=to_xsgo|10=184|
20150520-16:22:34.631: 8=FIX.4.4|9=58|35=0|34=199|49=to_xsgo|56=adrbcs|52=20150520-16:22:34.595|10=193|
20150520-16:23:27.044: 8=FIX.4.4|9=58|35=0|34=200|49=adrbcs|52=20150520-16:23:27.044|56=to_xsgo|10=168|
20150520-16:23:35.013: 8=FIX.4.4|9=58|35=0|34=200|49=to_xsgo|56=adrbcs|52=20150520-16:23:34.981|10=176|
20150520-16:24:28.043: 8=FIX.4.4|9=58|35=0|34=201|49=adrbcs|52=20150520-16:24:28.043|56=to_xsgo|10=170|
20150520-16:24:35.319: 8=FIX.4.4|9=58|35=0|34=201|49=to_xsgo|56=adrbcs|52=20150520-16:24:35.290|10=172|
20150520-16:25:28.044: 8=FIX.4.4|9=58|35=0|34=202|49=adrbcs|52=20150520-16:25:28.044|56=to_xsgo|10=173|
20150520-16:25:35.614: 8=FIX.4.4|9=58|35=0|34=202|49=to_xsgo|56=adrbcs|52=20150520-16:25:35.583|10=179|
20150520-16:26:28.044: 8=FIX.4.4|9=58|35=0|34=203|49=adrbcs|52=20150520-16:26:28.044|56=to_xsgo|10=175|
20150520-16:26:35.941: 8=FIX.4.4|9=58|35=0|34=203|49=to_xsgo|56=adrbcs|52=20150520-16:26:35.907|10=181|
20150520-16:27:29.043: 8=FIX.4.4|9=58|35=0|34=204|49=adrbcs|52=20150520-16:27:29.043|56=to_xsgo|10=177|
20150520-16:27:36.278: 8=FIX.4.4|9=58|35=0|34=204|49=to_xsgo|56=adrbcs|52=20150520-16:27:36.246|10=180|
20150520-16:28:29.043: 8=FIX.4.4|9=58|35=0|34=205|49=adrbcs|52=20150520-16:28:29.043|56=to_xsgo|10=179|
20150520-16:28:36.641: 8=FIX.4.4|9=58|35=0|34=205|49=to_xsgo|56=adrbcs|52=20150520-16:28:36.602|10=178|
20150520-16:29:29.043: 8=FIX.4.4|9=58|35=0|34=206|49=adrbcs|52=20150520-16:29:29.043|56=to_xsgo|10=181|
20150520-16:29:36.939: 8=FIX.4.4|9=58|35=0|34=206|49=to_xsgo|56=adrbcs|52=20150520-16:29:36.895|10=194|
20150520-16:30:29.044: 8=FIX.4.4|9=58|35=0|34=207|49=adrbcs|52=20150520-16:30:29.043|56=to_xsgo|10=174|
20150520-16:30:37.193: 8=FIX.4.4|9=58|35=0|34=207|49=to_xsgo|56=adrbcs|52=20150520-16:30:37.156|10=178|
20150520-16:31:29.043: 8=FIX.4.4|9=58|35=0|34=208|49=adrbcs|52=20150520-16:31:29.043|56=to_xsgo|10=176|
20150520-16:31:37.514: 8=FIX.4.4|9=58|35=0|34=208|49=to_xsgo|56=adrbcs|52=20150520-16:31:37.480|10=180|
20150520-16:32:29.044: 8=FIX.4.4|9=58|35=0|34=209|49=adrbcs|52=20150520-16:32:29.044|56=to_xsgo|10=179|
20150520-16:32:37.839: 8=FIX.4.4|9=58|35=0|34=209|49=to_xsgo|56=adrbcs|52=20150520-16:32:37.804|10=182|
20150520-16:33:29.044: 8=FIX.4.4|9=58|35=0|34=210|49=adrbcs|52=20150520-16:33:29.044|56=to_xsgo|10=172|
20150520-16:33:38.132: 8=FIX.4.4|9=58|35=0|34=210|49=to_xsgo|56=adrbcs|52=20150520-16:33:38.097|10=180|
20150520-16:34:29.044: 8=FIX.4.4|9=58|35=0|34=211|49=adrbcs|52=20150520-16:34:29.044|56=to_xsgo|10=174|
20150520-16:34:38.445: 8=FIX.4.4|9=58|35=0|34=211|49=to_xsgo|56=adrbcs|52=20150520-16:34:38.410|10=171|
20150520-16:35:30.044: 8=FIX.4.4|9=58|35=0|34=212|49=adrbcs|52=20150520-16:35:30.044|56=to_xsgo|10=168|
20150520-16:35:38.828: 8=FIX.4.4|9=58|35=0|34=212|49=to_xsgo|56=adrbcs|52=20150520-16:35:38.801|10=177|
20150520-16:36:30.044: 8=FIX.4.4|9=58|35=0|34=213|49=adrbcs|52=20150520-16:36:30.044|56=to_xsgo|10=170|
20150520-16:36:39.153: 8=FIX.4.4|9=58|35=0|34=213|49=to_xsgo|56=adrbcs|52=20150520-16:36:39.130|10=175|
20150520-16:37:30.044: 8=FIX.4.4|9=58|35=0|34=214|49=adrbcs|52=20150520-16:37:30.044|56=to_xsgo|10=172|
20150520-16:37:39.556: 8=FIX.4.4|9=58|35=0|34=214|49=to_xsgo|56=adrbcs|52=20150520-16:37:39.537|10=188|
20150520-16:38:31.044: 8=FIX.4.4|9=58|35=0|34=215|49=adrbcs|52=20150520-16:38:31.044|56=to_xsgo|10=175|
20150520-16:38:39.849: 8=FIX.4.4|9=58|35=0|34=215|49=to_xsgo|56=adrbcs|52=20150520-16:38:39.834|10=190|
20150520-16:39:31.044: 8=FIX.4.4|9=58|35=0|34=216|49=adrbcs|52=20150520-16:39:31.044|56=to_xsgo|10=177|
20150520-16:39:40.252: 8=FIX.4.4|9=58|35=0|34=216|49=to_xsgo|56=adrbcs|52=20150520-16:39:40.238|10=182|
20150520-16:40:31.044: 8=FIX.4.4|9=58|35=0|34=217|49=adrbcs|52=20150520-16:40:31.044|56=to_xsgo|10=170|
20150520-16:40:40.530: 8=FIX.4.4|9=58|35=0|34=217|49=to_xsgo|56=adrbcs|52=20150520-16:40:40.516|10=174|
20150520-16:41:32.044: 8=FIX.4.4|9=58|35=0|34=218|49=adrbcs|52=20150520-16:41:32.044|56=to_xsgo|10=173|
20150520-16:41:40.839: 8=FIX.4.4|9=58|35=0|34=218|49=to_xsgo|56=adrbcs|52=20150520-16:41:40.826|10=180|
20150520-16:42:33.044: 8=FIX.4.4|9=58|35=0|34=219|49=adrbcs|52=20150520-16:42:33.044|56=to_xsgo|10=176|
20150520-16:42:41.163: 8=FIX.4.4|9=58|35=0|34=219|49=to_xsgo|56=adrbcs|52=20150520-16:42:41.152|10=175|
20150520-16:43:34.044: 8=FIX.4.4|9=58|35=0|34=220|49=adrbcs|52=20150520-16:43:34.044|56=to_xsgo|10=170|
20150520-16:43:41.458: 8=FIX.4.4|9=58|35=0|34=220|49=to_xsgo|56=adrbcs|52=20150520-16:43:41.446|10=174|
20150520-16:44:35.044: 8=FIX.4.4|9=58|35=0|34=221|49=adrbcs|52=20150520-16:44:35.044|56=to_xsgo|10=173|
20150520-16:44:41.799: 8=FIX.4.4|9=58|35=0|34=221|49=to_xsgo|56=adrbcs|52=20150520-16:44:41.787|10=184|
20150520-16:45:35.044: 8=FIX.4.4|9=58|35=0|34=222|49=adrbcs|52=20150520-16:45:35.044|56=to_xsgo|10=175|
20150520-16:45:42.168: 8=FIX.4.4|9=58|35=0|34=222|49=to_xsgo|56=adrbcs|52=20150520-16:45:42.158|10=179|
20150520-16:46:36.044: 8=FIX.4.4|9=58|35=0|34=223|49=adrbcs|52=20150520-16:46:36.044|56=to_xsgo|10=178|
20150520-16:46:42.499: 8=FIX.4.4|9=58|35=0|34=223|49=to_xsgo|56=adrbcs|52=20150520-16:46:42.483|10=182|
20150520-16:47:37.044: 8=FIX.4.4|9=58|35=0|34=224|49=adrbcs|52=20150520-16:47:37.044|56=to_xsgo|10=181|
20150520-16:47:42.787: 8=FIX.4.4|9=58|35=0|34=224|49=to_xsgo|56=adrbcs|52=20150520-16:47:42.777|10=190|
20150520-16:48:37.044: 8=FIX.4.4|9=58|35=0|34=225|49=adrbcs|52=20150520-16:48:37.044|56=to_xsgo|10=183|
20150520-16:48:43.112: 8=FIX.4.4|9=58|35=0|34=225|49=to_xsgo|56=adrbcs|52=20150520-16:48:43.102|10=175|
20150520-16:49:37.050: 8=FIX.4.4|9=58|35=0|34=226|49=adrbcs|52=20150520-16:49:37.050|56=to_xsgo|10=182|
20150520-16:49:43.442: 8=FIX.4.4|9=58|35=0|34=226|49=to_xsgo|56=adrbcs|52=20150520-16:49:43.426|10=186|
20150520-16:50:38.044: 8=FIX.4.4|9=58|35=0|34=227|49=adrbcs|52=20150520-16:50:38.044|56=to_xsgo|10=179|
20150520-16:50:43.792: 8=FIX.4.4|9=58|35=0|34=227|49=to_xsgo|56=adrbcs|52=20150520-16:50:43.782|10=184|
20150520-16:51:39.043: 8=FIX.4.4|9=58|35=0|34=228|49=adrbcs|52=20150520-16:51:39.043|56=to_xsgo|10=181|
20150520-16:51:44.169: 8=FIX.4.4|9=58|35=0|34=228|49=to_xsgo|56=adrbcs|52=20150520-16:51:44.153|10=179|
20150520-16:52:39.043: 8=FIX.4.4|9=58|35=0|34=229|49=adrbcs|52=20150520-16:52:39.043|56=to_xsgo|10=183|
20150520-16:52:44.472: 8=FIX.4.4|9=58|35=0|34=229|49=to_xsgo|56=adrbcs|52=20150520-16:52:44.462|10=184|
20150520-16:53:39.043: 8=FIX.4.4|9=58|35=0|34=230|49=adrbcs|52=20150520-16:53:39.043|56=to_xsgo|10=176|
20150520-16:53:44.799: 8=FIX.4.4|9=58|35=0|34=230|49=to_xsgo|56=adrbcs|52=20150520-16:53:44.786|10=186|
20150520-16:54:39.043: 8=FIX.4.4|9=58|35=0|34=231|49=adrbcs|52=20150520-16:54:39.043|56=to_xsgo|10=178|
20150520-16:54:45.107: 8=FIX.4.4|9=58|35=0|34=231|49=to_xsgo|56=adrbcs|52=20150520-16:54:45.094|10=181|
20150520-16:55:39.044: 8=FIX.4.4|9=58|35=0|34=232|49=adrbcs|52=20150520-16:55:39.044|56=to_xsgo|10=181|
20150520-16:55:45.540: 8=FIX.4.4|9=58|35=0|34=232|49=to_xsgo|56=adrbcs|52=20150520-16:55:45.528|10=185|
20150520-16:56:39.044: 8=FIX.4.4|9=58|35=0|34=233|49=adrbcs|52=20150520-16:56:39.044|56=to_xsgo|10=183|
20150520-16:56:45.802: 8=FIX.4.4|9=58|35=0|34=233|49=to_xsgo|56=adrbcs|52=20150520-16:56:45.789|10=196|
20150520-16:57:40.043: 8=FIX.4.4|9=58|35=0|34=234|49=adrbcs|52=20150520-16:57:40.043|56=to_xsgo|10=176|
20150520-16:57:46.220: 8=FIX.4.4|9=58|35=0|34=234|49=to_xsgo|56=adrbcs|52=20150520-16:57:46.207|10=184|
20150520-16:58:40.043: 8=FIX.4.4|9=58|35=0|34=235|49=adrbcs|52=20150520-16:58:40.043|56=to_xsgo|10=178|
20150520-16:58:46.233: 8=FIX.4.4|9=58|35=0|34=235|49=to_xsgo|56=adrbcs|52=20150520-16:58:46.219|10=189|
20150520-16:59:40.043: 8=FIX.4.4|9=58|35=0|34=236|49=adrbcs|52=20150520-16:59:40.043|56=to_xsgo|10=180|
20150520-16:59:46.527: 8=FIX.4.4|9=58|35=0|34=236|49=to_xsgo|56=adrbcs|52=20150520-16:59:46.512|10=187|
20150520-17:00:40.044: 8=FIX.4.4|9=58|35=0|34=237|49=adrbcs|52=20150520-17:00:40.044|56=to_xsgo|10=169|
20150520-17:00:46.839: 8=FIX.4.4|9=58|35=0|34=237|49=to_xsgo|56=adrbcs|52=20150520-17:00:46.820|10=177|
20150520-17:01:40.044: 8=FIX.4.4|9=58|35=0|34=238|49=adrbcs|52=20150520-17:01:40.044|56=to_xsgo|10=171|
20150520-17:01:47.222: 8=FIX.4.4|9=58|35=0|34=238|49=to_xsgo|56=adrbcs|52=20150520-17:01:47.207|10=179|
20150520-17:02:41.044: 8=FIX.4.4|9=58|35=0|34=239|49=adrbcs|52=20150520-17:02:41.044|56=to_xsgo|10=174|
20150520-17:02:47.550: 8=FIX.4.4|9=58|35=0|34=239|49=to_xsgo|56=adrbcs|52=20150520-17:02:47.531|10=181|
20150520-17:03:41.044: 8=FIX.4.4|9=58|35=0|34=240|49=adrbcs|52=20150520-17:03:41.044|56=to_xsgo|10=167|
20150520-17:03:47.840: 8=FIX.4.4|9=58|35=0|34=240|49=to_xsgo|56=adrbcs|52=20150520-17:03:47.824|10=179|
20150520-17:04:42.044: 8=FIX.4.4|9=58|35=0|34=241|49=adrbcs|52=20150520-17:04:42.044|56=to_xsgo|10=170|
20150520-17:04:48.152: 8=FIX.4.4|9=58|35=0|34=241|49=to_xsgo|56=adrbcs|52=20150520-17:04:48.132|10=174|
20150520-17:05:43.043: 8=FIX.4.4|9=58|35=0|34=242|49=adrbcs|52=20150520-17:05:43.043|56=to_xsgo|10=172|
20150520-17:05:48.465: 8=FIX.4.4|9=58|35=0|34=242|49=to_xsgo|56=adrbcs|52=20150520-17:05:48.441|10=179|
20150520-17:06:43.044: 8=FIX.4.4|9=58|35=0|34=243|49=adrbcs|52=20150520-17:06:43.044|56=to_xsgo|10=175|
20150520-17:06:48.744: 8=FIX.4.4|9=58|35=0|34=243|49=to_xsgo|56=adrbcs|52=20150520-17:06:48.718|10=188|
20150520-17:07:44.043: 8=FIX.4.4|9=58|35=0|34=244|49=adrbcs|52=20150520-17:07:44.043|56=to_xsgo|10=177|
20150520-17:07:49.092: 8=FIX.4.4|9=58|35=0|34=244|49=to_xsgo|56=adrbcs|52=20150520-17:07:49.073|10=185|
20150520-17:08:44.044: 8=FIX.4.4|9=58|35=0|34=245|49=adrbcs|52=20150520-17:08:44.044|56=to_xsgo|10=180|
20150520-17:08:49.377: 8=FIX.4.4|9=58|35=0|34=245|49=to_xsgo|56=adrbcs|52=20150520-17:08:49.350|10=185|
20150520-17:09:45.043: 8=FIX.4.4|9=58|35=0|34=246|49=adrbcs|52=20150520-17:09:45.043|56=to_xsgo|10=182|
20150520-17:09:49.710: 8=FIX.4.4|9=58|35=0|34=246|49=to_xsgo|56=adrbcs|52=20150520-17:09:49.690|10=194|
20150520-17:10:45.044: 8=FIX.4.4|9=58|35=0|34=247|49=adrbcs|52=20150520-17:10:45.044|56=to_xsgo|10=176|
20150520-17:10:50.019: 8=FIX.4.4|9=58|35=0|34=247|49=to_xsgo|56=adrbcs|52=20150520-17:10:49.998|10=198|
20150520-17:11:45.044: 8=FIX.4.4|9=58|35=0|34=248|49=adrbcs|52=20150520-17:11:45.044|56=to_xsgo|10=178|
20150520-17:11:50.417: 8=FIX.4.4|9=58|35=0|34=248|49=to_xsgo|56=adrbcs|52=20150520-17:11:50.385|10=182|
20150520-17:12:45.044: 8=FIX.4.4|9=58|35=0|34=249|49=adrbcs|52=20150520-17:12:45.044|56=to_xsgo|10=180|
20150520-17:12:50.451: 8=FIX.4.4|9=58|35=0|34=249|49=to_xsgo|56=adrbcs|52=20150520-17:12:50.428|10=182|
20150520-17:13:45.044: 8=FIX.4.4|9=58|35=0|34=250|49=adrbcs|52=20150520-17:13:45.044|56=to_xsgo|10=173|
20150520-17:13:50.743: 8=FIX.4.4|9=58|35=0|34=250|49=to_xsgo|56=adrbcs|52=20150520-17:13:50.721|10=171|
20150520-17:14:46.044: 8=FIX.4.4|9=58|35=0|34=251|49=adrbcs|52=20150520-17:14:46.044|56=to_xsgo|10=176|
20150520-17:14:51.065: 8=FIX.4.4|9=58|35=0|34=251|49=to_xsgo|56=adrbcs|52=20150520-17:14:51.029|10=175|
20150520-17:15:46.044: 8=FIX.4.4|9=58|35=0|34=252|49=adrbcs|52=20150520-17:15:46.044|56=to_xsgo|10=178|
20150520-17:15:51.424: 8=FIX.4.4|9=58|35=0|34=252|49=to_xsgo|56=adrbcs|52=20150520-17:15:51.400|10=170|
20150520-17:16:47.044: 8=FIX.4.4|9=58|35=0|34=253|49=adrbcs|52=20150520-17:16:47.044|56=to_xsgo|10=181|
20150520-17:16:51.764: 8=FIX.4.4|9=58|35=0|34=253|49=to_xsgo|56=adrbcs|52=20150520-17:16:51.740|10=179|
20150520-17:17:48.044: 8=FIX.4.4|9=58|35=0|34=254|49=adrbcs|52=20150520-17:17:48.044|56=to_xsgo|10=184|
20150520-17:17:52.098: 8=FIX.4.4|9=58|35=0|34=254|49=to_xsgo|56=adrbcs|52=20150520-17:17:52.064|10=181|
20150520-17:18:48.044: 8=FIX.4.4|9=58|35=0|34=255|49=adrbcs|52=20150520-17:18:48.044|56=to_xsgo|10=186|
20150520-17:18:52.383: 8=FIX.4.4|9=58|35=0|34=255|49=to_xsgo|56=adrbcs|52=20150520-17:18:52.357|10=188|
20150520-17:19:49.044: 8=FIX.4.4|9=58|35=0|34=256|49=adrbcs|52=20150520-17:19:49.044|56=to_xsgo|10=189|
20150520-17:19:52.754: 8=FIX.4.4|9=58|35=0|34=256|49=to_xsgo|56=adrbcs|52=20150520-17:19:52.727|10=191|
20150520-17:20:50.044: 8=FIX.4.4|9=58|35=0|34=257|49=adrbcs|52=20150520-17:20:50.044|56=to_xsgo|10=174|
20150520-17:20:53.063: 8=FIX.4.4|9=58|35=0|34=257|49=to_xsgo|56=adrbcs|52=20150520-17:20:53.036|10=178|
20150520-17:21:50.044: 8=FIX.4.4|9=58|35=0|34=258|49=adrbcs|52=20150520-17:21:50.044|56=to_xsgo|10=176|
20150520-17:21:53.372: 8=FIX.4.4|9=58|35=0|34=258|49=to_xsgo|56=adrbcs|52=20150520-17:21:53.344|10=182|
20150520-17:22:51.044: 8=FIX.4.4|9=58|35=0|34=259|49=adrbcs|52=20150520-17:22:51.044|56=to_xsgo|10=179|
20150520-17:22:53.650: 8=FIX.4.4|9=58|35=0|34=259|49=to_xsgo|56=adrbcs|52=20150520-17:22:53.622|10=183|
20150520-17:23:52.044: 8=FIX.4.4|9=58|35=0|34=260|49=adrbcs|52=20150520-17:23:52.044|56=to_xsgo|10=173|
20150520-17:23:53.975: 8=FIX.4.4|9=58|35=0|34=260|49=to_xsgo|56=adrbcs|52=20150520-17:23:53.946|10=185|
20150520-17:24:52.044: 8=FIX.4.4|9=58|35=0|34=261|49=adrbcs|52=20150520-17:24:52.044|56=to_xsgo|10=175|
20150520-17:24:54.313: 8=FIX.4.4|9=58|35=0|34=261|49=to_xsgo|56=adrbcs|52=20150520-17:24:54.270|10=178|
20150520-17:25:52.044: 8=FIX.4.4|9=58|35=0|34=262|49=adrbcs|52=20150520-17:25:52.044|56=to_xsgo|10=177|
20150520-17:25:54.592: 8=FIX.4.4|9=58|35=0|34=262|49=to_xsgo|56=adrbcs|52=20150520-17:25:54.563|10=185|
20150520-17:26:52.044: 8=FIX.4.4|9=58|35=0|34=263|49=adrbcs|52=20150520-17:26:52.044|56=to_xsgo|10=179|
20150520-17:26:54.933: 8=FIX.4.4|9=58|35=0|34=263|49=to_xsgo|56=adrbcs|52=20150520-17:26:54.902|10=184|
20150520-17:27:53.044: 8=FIX.4.4|9=58|35=0|34=264|49=adrbcs|52=20150520-17:27:53.044|56=to_xsgo|10=182|
20150520-17:27:55.232: 8=FIX.4.4|9=58|35=0|34=264|49=to_xsgo|56=adrbcs|52=20150520-17:27:55.195|10=191|
20150520-17:28:54.044: 8=FIX.4.4|9=58|35=0|34=265|49=adrbcs|52=20150520-17:28:54.044|56=to_xsgo|10=185|
20150520-17:28:55.551: 8=FIX.4.4|9=58|35=0|34=265|49=to_xsgo|56=adrbcs|52=20150520-17:28:55.519|10=193|
20150520-17:29:55.044: 8=FIX.4.4|9=58|35=0|34=266|49=adrbcs|52=20150520-17:29:55.044|56=to_xsgo|10=188|
20150520-17:29:55.896: 8=FIX.4.4|9=58|35=0|34=266|49=to_xsgo|56=adrbcs|52=20150520-17:29:55.859|10=202|
20150520-17:30:56.044: 8=FIX.4.4|9=58|35=0|34=267|49=adrbcs|52=20150520-17:30:56.044|56=to_xsgo|10=182|
20150520-17:30:56.159: 8=FIX.4.4|9=58|35=0|34=267|49=to_xsgo|56=adrbcs|52=20150520-17:30:56.120|10=177|
20150520-17:31:56.491: 8=FIX.4.4|9=58|35=0|34=268|49=to_xsgo|56=adrbcs|52=20150520-17:31:56.444|10=188|
20150520-17:31:56.491: 8=FIX.4.4|9=58|35=0|34=268|49=adrbcs|52=20150520-17:31:56.491|56=to_xsgo|10=190|
20150520-17:32:56.826: 8=FIX.4.4|9=58|35=0|34=269|49=to_xsgo|56=adrbcs|52=20150520-17:32:56.784|10=197|
20150520-17:32:56.827: 8=FIX.4.4|9=58|35=0|34=269|49=adrbcs|52=20150520-17:32:56.827|56=to_xsgo|10=195|
20150520-17:33:57.043: 8=FIX.4.4|9=58|35=0|34=270|49=adrbcs|52=20150520-17:33:57.043|56=to_xsgo|10=179|
20150520-17:33:57.080: 8=FIX.4.4|9=58|35=0|34=270|49=to_xsgo|56=adrbcs|52=20150520-17:33:57.047|10=183|
20150520-17:34:57.043: 8=FIX.4.4|9=58|35=0|34=271|49=adrbcs|52=20150520-17:34:57.043|56=to_xsgo|10=181|
20150520-17:34:57.405: 8=FIX.4.4|9=58|35=0|34=271|49=to_xsgo|56=adrbcs|52=20150520-17:34:57.374|10=188|
20150520-17:35:57.043: 8=FIX.4.4|9=58|35=0|34=272|49=adrbcs|52=20150520-17:35:57.043|56=to_xsgo|10=183|
20150520-17:35:57.729: 8=FIX.4.4|9=58|35=0|34=272|49=to_xsgo|56=adrbcs|52=20150520-17:35:57.701|10=184|
20150520-17:36:57.043: 8=FIX.4.4|9=58|35=0|34=273|49=adrbcs|52=20150520-17:36:57.043|56=to_xsgo|10=185|
20150520-17:36:58.083: 8=FIX.4.4|9=58|35=0|34=273|49=to_xsgo|56=adrbcs|52=20150520-17:36:58.028|10=189|
20150520-17:37:57.043: 8=FIX.4.4|9=58|35=0|34=274|49=adrbcs|52=20150520-17:37:57.043|56=to_xsgo|10=187|
20150520-17:37:58.363: 8=FIX.4.4|9=58|35=0|34=274|49=to_xsgo|56=adrbcs|52=20150520-17:37:58.340|10=188|
20150520-17:38:57.044: 8=FIX.4.4|9=58|35=0|34=275|49=adrbcs|52=20150520-17:38:57.044|56=to_xsgo|10=190|
20150520-17:38:58.672: 8=FIX.4.4|9=58|35=0|34=275|49=to_xsgo|56=adrbcs|52=20150520-17:38:58.650|10=194|
20150520-17:39:58.044: 8=FIX.4.4|9=58|35=0|34=276|49=adrbcs|52=20150520-17:39:58.044|56=to_xsgo|10=193|
20150520-17:39:58.996: 8=FIX.4.4|9=58|35=0|34=276|49=to_xsgo|56=adrbcs|52=20150520-17:39:58.976|10=207|
20150520-17:40:58.044: 8=FIX.4.4|9=58|35=0|34=277|49=adrbcs|52=20150520-17:40:58.044|56=to_xsgo|10=186|
20150520-17:40:59.373: 8=FIX.4.4|9=58|35=0|34=277|49=to_xsgo|56=adrbcs|52=20150520-17:40:59.348|10=194|
20150520-17:41:59.044: 8=FIX.4.4|9=58|35=0|34=278|49=adrbcs|52=20150520-17:41:59.044|56=to_xsgo|10=189|
20150520-17:41:59.692: 8=FIX.4.4|9=58|35=0|34=278|49=to_xsgo|56=adrbcs|52=20150520-17:41:59.673|10=197|
20150520-17:43:00.044: 8=FIX.4.4|9=58|35=0|34=279|49=adrbcs|52=20150520-17:43:00.044|56=to_xsgo|10=178|
20150520-17:43:00.058: 8=FIX.4.4|9=58|35=0|34=279|49=to_xsgo|56=adrbcs|52=20150520-17:43:00.029|10=181|
20150520-17:44:00.044: 8=FIX.4.4|9=58|35=0|34=280|49=adrbcs|52=20150520-17:44:00.044|56=to_xsgo|10=171|
20150520-17:44:00.364: 8=FIX.4.4|9=58|35=0|34=280|49=to_xsgo|56=adrbcs|52=20150520-17:44:00.339|10=178|
20150520-17:45:00.728: 8=FIX.4.4|9=58|35=0|34=281|49=to_xsgo|56=adrbcs|52=20150520-17:45:00.710|10=173|
20150520-17:45:00.729: 8=FIX.4.4|9=58|35=0|34=281|49=adrbcs|52=20150520-17:45:00.729|56=to_xsgo|10=183|
20150520-17:46:01.043: 8=FIX.4.4|9=58|35=0|34=282|49=adrbcs|52=20150520-17:46:01.043|56=to_xsgo|10=175|
20150520-17:46:01.053: 8=FIX.4.4|9=58|35=0|34=282|49=to_xsgo|56=adrbcs|52=20150520-17:46:01.034|10=175|
20150520-17:47:01.044: 8=FIX.4.4|9=58|35=0|34=283|49=adrbcs|52=20150520-17:47:01.044|56=to_xsgo|10=178|
20150520-17:47:01.314: 8=FIX.4.4|9=58|35=0|34=283|49=to_xsgo|56=adrbcs|52=20150520-17:47:01.296|10=187|
20150520-17:48:01.044: 8=FIX.4.4|9=58|35=0|34=284|49=adrbcs|52=20150520-17:48:01.044|56=to_xsgo|10=180|
20150520-17:48:01.657: 8=FIX.4.4|9=58|35=0|34=284|49=to_xsgo|56=adrbcs|52=20150520-17:48:01.636|10=187|
20150520-17:49:01.044: 8=FIX.4.4|9=58|35=0|34=285|49=adrbcs|52=20150520-17:49:01.044|56=to_xsgo|10=182|
20150520-17:49:01.995: 8=FIX.4.4|9=58|35=0|34=285|49=to_xsgo|56=adrbcs|52=20150520-17:49:01.976|10=196|
20150520-17:50:01.044: 8=FIX.4.4|9=58|35=0|34=286|49=adrbcs|52=20150520-17:50:01.044|56=to_xsgo|10=175|
20150520-17:50:02.320: 8=FIX.4.4|9=58|35=0|34=286|49=to_xsgo|56=adrbcs|52=20150520-17:50:02.300|10=171|
20150520-17:51:01.044: 8=FIX.4.4|9=58|35=0|34=287|49=adrbcs|52=20150520-17:51:01.044|56=to_xsgo|10=177|
20150520-17:51:02.613: 8=FIX.4.4|9=58|35=0|34=287|49=to_xsgo|56=adrbcs|52=20150520-17:51:02.593|10=187|
20150520-17:52:02.044: 8=FIX.4.4|9=58|35=0|34=288|49=adrbcs|52=20150520-17:52:02.044|56=to_xsgo|10=180|
20150520-17:52:02.911: 8=FIX.4.4|9=58|35=0|34=288|49=to_xsgo|56=adrbcs|52=20150520-17:52:02.886|10=194|
20150520-17:53:03.044: 8=FIX.4.4|9=58|35=0|34=289|49=adrbcs|52=20150520-17:53:03.044|56=to_xsgo|10=183|
20150520-17:53:03.175: 8=FIX.4.4|9=58|35=0|34=289|49=to_xsgo|56=adrbcs|52=20150520-17:53:03.132|10=181|
20150520-17:54:03.486: 8=FIX.4.4|9=58|35=0|34=290|49=to_xsgo|56=adrbcs|52=20150520-17:54:03.456|10=183|
20150520-17:54:03.487: 8=FIX.4.4|9=58|35=0|34=290|49=adrbcs|52=20150520-17:54:03.487|56=to_xsgo|10=187|
20150520-17:55:03.740: 8=FIX.4.4|9=58|35=0|34=291|49=to_xsgo|56=adrbcs|52=20150520-17:55:03.718|10=186|
20150520-17:55:03.740: 8=FIX.4.4|9=58|35=0|34=291|49=adrbcs|52=20150520-17:55:03.740|56=to_xsgo|10=181|
20150520-17:56:04.033: 8=FIX.4.4|9=58|35=0|34=292|49=to_xsgo|56=adrbcs|52=20150520-17:56:04.010|10=174|
20150520-17:56:04.034: 8=FIX.4.4|9=58|35=0|34=292|49=adrbcs|52=20150520-17:56:04.033|56=to_xsgo|10=179|
20150520-17:57:04.044: 8=FIX.4.4|9=58|35=0|34=293|49=adrbcs|52=20150520-17:57:04.044|56=to_xsgo|10=183|
20150520-17:57:04.295: 8=FIX.4.4|9=58|35=0|34=293|49=to_xsgo|56=adrbcs|52=20150520-17:57:04.272|10=186|
20150520-17:58:04.044: 8=FIX.4.4|9=58|35=0|34=294|49=adrbcs|52=20150520-17:58:04.044|56=to_xsgo|10=185|
20150520-17:58:04.636: 8=FIX.4.4|9=58|35=0|34=294|49=to_xsgo|56=adrbcs|52=20150520-17:58:04.612|10=186|
20150520-17:59:04.044: 8=FIX.4.4|9=58|35=0|34=295|49=adrbcs|52=20150520-17:59:04.044|56=to_xsgo|10=187|
20150520-17:59:05.065: 8=FIX.4.4|9=58|35=0|34=295|49=to_xsgo|56=adrbcs|52=20150520-17:59:05.029|10=191|
20150520-18:00:05.044: 8=FIX.4.4|9=58|35=0|34=296|49=adrbcs|52=20150520-18:00:05.044|56=to_xsgo|10=176|
20150520-18:00:05.331: 8=FIX.4.4|9=58|35=0|34=296|49=to_xsgo|56=adrbcs|52=20150520-18:00:05.307|10=178|
20150520-18:01:05.687: 8=FIX.4.4|9=58|35=0|34=297|49=to_xsgo|56=adrbcs|52=20150520-18:01:05.662|10=184|
20150520-18:01:05.687: 8=FIX.4.4|9=58|35=0|34=297|49=adrbcs|52=20150520-18:01:05.687|56=to_xsgo|10=191|
20150520-18:02:06.044: 8=FIX.4.4|9=58|35=0|34=298|49=adrbcs|52=20150520-18:02:06.044|56=to_xsgo|10=181|
20150520-18:02:06.098: 8=FIX.4.4|9=58|35=0|34=298|49=to_xsgo|56=adrbcs|52=20150520-18:02:06.064|10=183|
20150520-18:03:06.044: 8=FIX.4.4|9=58|35=0|34=299|49=adrbcs|52=20150520-18:03:06.044|56=to_xsgo|10=183|
20150520-18:03:06.455: 8=FIX.4.4|9=58|35=0|34=299|49=to_xsgo|56=adrbcs|52=20150520-18:03:06.419|10=189|
20150520-18:04:06.832: 8=FIX.4.4|9=58|35=0|34=300|49=to_xsgo|56=adrbcs|52=20150520-18:04:06.806|10=173|
20150520-18:04:06.832: 8=FIX.4.4|9=58|35=0|34=300|49=adrbcs|52=20150520-18:04:06.832|56=to_xsgo|10=172|
20150520-18:05:07.044: 8=FIX.4.4|9=58|35=0|34=301|49=adrbcs|52=20150520-18:05:07.044|56=to_xsgo|10=170|
20150520-18:05:07.141: 8=FIX.4.4|9=58|35=0|34=301|49=to_xsgo|56=adrbcs|52=20150520-18:05:07.114|10=168|
20150520-18:06:07.454: 8=FIX.4.4|9=58|35=0|34=302|49=to_xsgo|56=adrbcs|52=20150520-18:06:07.422|10=172|
20150520-18:06:07.455: 8=FIX.4.4|9=58|35=0|34=302|49=adrbcs|52=20150520-18:06:07.455|56=to_xsgo|10=178|
20150520-18:07:07.764: 8=FIX.4.4|9=58|35=0|34=303|49=to_xsgo|56=adrbcs|52=20150520-18:07:07.731|10=177|
20150520-18:07:07.765: 8=FIX.4.4|9=58|35=0|34=303|49=adrbcs|52=20150520-18:07:07.765|56=to_xsgo|10=184|
20150520-18:08:08.043: 8=FIX.4.4|9=58|35=0|34=304|49=adrbcs|52=20150520-18:08:08.043|56=to_xsgo|10=176|
20150520-18:08:08.147: 8=FIX.4.4|9=58|35=0|34=304|49=to_xsgo|56=adrbcs|52=20150520-18:08:08.117|10=178|
20150520-18:09:08.043: 8=FIX.4.4|9=58|35=0|34=305|49=adrbcs|52=20150520-18:09:08.043|56=to_xsgo|10=178|
20150520-18:09:08.423: 8=FIX.4.4|9=58|35=0|34=305|49=to_xsgo|56=adrbcs|52=20150520-18:09:08.395|10=188|
20150520-18:10:08.044: 8=FIX.4.4|9=58|35=0|34=306|49=adrbcs|52=20150520-18:10:08.044|56=to_xsgo|10=172|
20150520-18:10:08.765: 8=FIX.4.4|9=58|35=0|34=306|49=to_xsgo|56=adrbcs|52=20150520-18:10:08.734|10=178|
20150520-18:11:09.026: 8=FIX.4.4|9=58|35=0|34=307|49=to_xsgo|56=adrbcs|52=20150520-18:11:08.996|10=190|
20150520-18:11:09.026: 8=FIX.4.4|9=58|35=0|34=307|49=adrbcs|52=20150520-18:11:09.026|56=to_xsgo|10=175|
20150520-18:12:09.043: 8=FIX.4.4|9=58|35=0|34=308|49=adrbcs|52=20150520-18:12:09.043|56=to_xsgo|10=176|
20150520-18:12:09.319: 8=FIX.4.4|9=58|35=0|34=308|49=to_xsgo|56=adrbcs|52=20150520-18:12:09.289|10=188|
20150520-18:13:09.043: 8=FIX.4.4|9=58|35=0|34=309|49=adrbcs|52=20150520-18:13:09.043|56=to_xsgo|10=178|
20150520-18:13:09.645: 8=FIX.4.4|9=58|35=0|34=309|49=to_xsgo|56=adrbcs|52=20150520-18:13:09.613|10=181|
20150520-18:14:09.043: 8=FIX.4.4|9=58|35=0|34=310|49=adrbcs|52=20150520-18:14:09.043|56=to_xsgo|10=171|
20150520-18:14:09.940: 8=FIX.4.4|9=58|35=0|34=310|49=to_xsgo|56=adrbcs|52=20150520-18:14:09.906|10=179|
20150520-18:15:09.044: 8=FIX.4.4|9=58|35=0|34=311|49=adrbcs|52=20150520-18:15:09.044|56=to_xsgo|10=174|
20150520-18:15:10.246: 8=FIX.4.4|9=58|35=0|34=311|49=to_xsgo|56=adrbcs|52=20150520-18:15:10.214|10=165|
20150520-18:16:10.043: 8=FIX.4.4|9=58|35=0|34=312|49=adrbcs|52=20150520-18:16:10.043|56=to_xsgo|10=167|
20150520-18:16:10.555: 8=FIX.4.4|9=58|35=0|34=312|49=to_xsgo|56=adrbcs|52=20150520-18:16:10.522|10=169|
20150520-18:17:10.044: 8=FIX.4.4|9=58|35=0|34=313|49=adrbcs|52=20150520-18:17:10.044|56=to_xsgo|10=170|
20150520-18:17:10.880: 8=FIX.4.4|9=58|35=0|34=313|49=to_xsgo|56=adrbcs|52=20150520-18:17:10.846|10=180|
20150520-18:18:11.044: 8=FIX.4.4|9=58|35=0|34=314|49=adrbcs|52=20150520-18:18:11.044|56=to_xsgo|10=173|
20150520-18:18:11.188: 8=FIX.4.4|9=58|35=0|34=314|49=to_xsgo|56=adrbcs|52=20150520-18:18:11.155|10=176|
20150520-18:19:11.044: 8=FIX.4.4|9=58|35=0|34=315|49=adrbcs|52=20150520-18:19:11.044|56=to_xsgo|10=175|
20150520-18:19:11.498: 8=FIX.4.4|9=58|35=0|34=315|49=to_xsgo|56=adrbcs|52=20150520-18:19:11.463|10=180|
20150520-18:20:11.044: 8=FIX.4.4|9=58|35=0|34=316|49=adrbcs|52=20150520-18:20:11.044|56=to_xsgo|10=168|
20150520-18:20:11.840: 8=FIX.4.4|9=58|35=0|34=316|49=to_xsgo|56=adrbcs|52=20150520-18:20:11.803|10=171|
20150520-18:21:12.044: 8=FIX.4.4|9=58|35=0|34=317|49=adrbcs|52=20150520-18:21:12.044|56=to_xsgo|10=171|
20150520-18:21:12.117: 8=FIX.4.4|9=58|35=0|34=317|49=to_xsgo|56=adrbcs|52=20150520-18:21:12.080|10=171|
20150520-18:22:12.378: 8=FIX.4.4|9=58|35=0|34=318|49=to_xsgo|56=adrbcs|52=20150520-18:22:12.342|10=174|
20150520-18:22:12.378: 8=FIX.4.4|9=58|35=0|34=318|49=adrbcs|52=20150520-18:22:12.378|56=to_xsgo|10=183|
20150520-18:23:12.734: 8=FIX.4.4|9=58|35=0|34=319|49=to_xsgo|56=adrbcs|52=20150520-18:23:12.697|10=189|
20150520-18:23:12.734: 8=FIX.4.4|9=58|35=0|34=319|49=adrbcs|52=20150520-18:23:12.734|56=to_xsgo|10=181|
20150520-18:24:13.044: 8=FIX.4.4|9=58|35=0|34=320|49=adrbcs|52=20150520-18:24:13.044|56=to_xsgo|10=169|
20150520-18:24:13.136: 8=FIX.4.4|9=58|35=0|34=320|49=to_xsgo|56=adrbcs|52=20150520-18:24:13.099|10=179|
20150520-18:25:13.044: 8=FIX.4.4|9=58|35=0|34=321|49=adrbcs|52=20150520-18:25:13.044|56=to_xsgo|10=171|
20150520-18:25:13.603: 8=FIX.4.4|9=58|35=0|34=321|49=to_xsgo|56=adrbcs|52=20150520-18:25:13.564|10=178|
20150520-18:26:13.044: 8=FIX.4.4|9=58|35=0|34=322|49=adrbcs|52=20150520-18:26:13.044|56=to_xsgo|10=173|
20150520-18:26:13.894: 8=FIX.4.4|9=58|35=0|34=322|49=to_xsgo|56=adrbcs|52=20150520-18:26:13.856|10=184|
20150520-18:27:14.044: 8=FIX.4.4|9=58|35=0|34=323|49=adrbcs|52=20150520-18:27:14.044|56=to_xsgo|10=176|
20150520-18:27:14.188: 8=FIX.4.4|9=58|35=0|34=323|49=to_xsgo|56=adrbcs|52=20150520-18:27:14.149|10=182|
20150520-18:28:14.512: 8=FIX.4.4|9=58|35=0|34=324|49=to_xsgo|56=adrbcs|52=20150520-18:28:14.473|10=184|
20150520-18:28:14.512: 8=FIX.4.4|9=58|35=0|34=324|49=adrbcs|52=20150520-18:28:14.512|56=to_xsgo|10=178|
20150520-18:29:14.809: 8=FIX.4.4|9=58|35=0|34=325|49=to_xsgo|56=adrbcs|52=20150520-18:29:14.766|10=191|
20150520-18:29:14.810: 8=FIX.4.4|9=58|35=0|34=325|49=adrbcs|52=20150520-18:29:14.810|56=to_xsgo|10=181|
20150520-18:30:15.044: 8=FIX.4.4|9=58|35=0|34=326|49=adrbcs|52=20150520-18:30:15.044|56=to_xsgo|10=174|
20150520-18:30:15.155: 8=FIX.4.4|9=58|35=0|34=326|49=to_xsgo|56=adrbcs|52=20150520-18:30:15.106|10=173|
20150520-18:31:15.044: 8=FIX.4.4|9=58|35=0|34=327|49=adrbcs|52=20150520-18:31:15.044|56=to_xsgo|10=176|
20150520-18:31:15.472: 8=FIX.4.4|9=58|35=0|34=327|49=to_xsgo|56=adrbcs|52=20150520-18:31:15.430|10=175|
20150520-18:32:15.753: 8=FIX.4.4|9=58|35=0|34=328|49=to_xsgo|56=adrbcs|52=20150520-18:32:15.707|10=184|
20150520-18:32:15.753: 8=FIX.4.4|9=58|35=0|34=328|49=adrbcs|52=20150520-18:32:15.753|56=to_xsgo|10=185|
20150520-18:33:15.998: 8=FIX.4.4|9=58|35=0|34=329|49=to_xsgo|56=adrbcs|52=20150520-18:33:15.953|10=189|
20150520-18:33:15.999: 8=FIX.4.4|9=58|35=0|34=329|49=adrbcs|52=20150520-18:33:15.999|56=to_xsgo|10=199|
20150520-18:34:16.044: 8=FIX.4.4|9=58|35=0|34=330|49=adrbcs|52=20150520-18:34:16.044|56=to_xsgo|10=174|
20150520-18:34:16.261: 8=FIX.4.4|9=58|35=0|34=330|49=to_xsgo|56=adrbcs|52=20150520-18:34:16.218|10=177|
20150520-18:35:16.541: 8=FIX.4.4|9=58|35=0|34=331|49=to_xsgo|56=adrbcs|52=20150520-18:35:16.501|10=174|
20150520-18:35:16.542: 8=FIX.4.4|9=58|35=0|34=331|49=adrbcs|52=20150520-18:35:16.542|56=to_xsgo|10=179|
20150520-18:36:16.828: 8=FIX.4.4|9=58|35=0|34=332|49=to_xsgo|56=adrbcs|52=20150520-18:36:16.799|10=195|
20150520-18:36:16.828: 8=FIX.4.4|9=58|35=0|34=332|49=adrbcs|52=20150520-18:36:16.828|56=to_xsgo|10=188|
20150520-18:37:17.043: 8=FIX.4.4|9=58|35=0|34=333|49=adrbcs|52=20150520-18:37:17.043|56=to_xsgo|10=180|
20150520-18:37:17.152: 8=FIX.4.4|9=58|35=0|34=333|49=to_xsgo|56=adrbcs|52=20150520-18:37:17.128|10=184|
20150520-18:38:17.043: 8=FIX.4.4|9=58|35=0|34=334|49=adrbcs|52=20150520-18:38:17.043|56=to_xsgo|10=182|
20150520-18:38:17.463: 8=FIX.4.4|9=58|35=0|34=334|49=to_xsgo|56=adrbcs|52=20150520-18:38:17.442|10=185|
20150520-18:39:17.044: 8=FIX.4.4|9=58|35=0|34=335|49=adrbcs|52=20150520-18:39:17.044|56=to_xsgo|10=185|
20150520-18:39:17.715: 8=FIX.4.4|9=58|35=0|34=335|49=to_xsgo|56=adrbcs|52=20150520-18:39:17.691|10=193|
20150520-18:40:18.018: 8=FIX.4.4|9=58|35=0|34=336|49=to_xsgo|56=adrbcs|52=20150520-18:40:18.002|10=173|
20150520-18:40:18.018: 8=FIX.4.4|9=58|35=0|34=336|49=adrbcs|52=20150520-18:40:18.018|56=to_xsgo|10=180|
20150520-18:41:18.043: 8=FIX.4.4|9=58|35=0|34=337|49=adrbcs|52=20150520-18:41:18.043|56=to_xsgo|10=180|
20150520-18:41:18.264: 8=FIX.4.4|9=58|35=0|34=337|49=to_xsgo|56=adrbcs|52=20150520-18:41:18.250|10=180|
20150520-18:42:18.044: 8=FIX.4.4|9=58|35=0|34=338|49=adrbcs|52=20150520-18:42:18.044|56=to_xsgo|10=183|
20150520-18:42:18.659: 8=FIX.4.4|9=58|35=0|34=338|49=to_xsgo|56=adrbcs|52=20150520-18:42:18.576|10=193|
20150520-18:43:18.044: 8=FIX.4.4|9=58|35=0|34=339|49=adrbcs|52=20150520-18:43:18.044|56=to_xsgo|10=185|
20150520-18:43:19.941: 8=FIX.4.4|9=58|35=0|34=339|49=to_xsgo|56=adrbcs|52=20150520-18:43:19.916|10=194|
20150520-18:44:18.044: 8=FIX.4.4|9=58|35=0|34=340|49=adrbcs|52=20150520-18:44:18.044|56=to_xsgo|10=178|
20150520-18:44:20.228: 8=FIX.4.4|9=58|35=0|34=340|49=to_xsgo|56=adrbcs|52=20150520-18:44:20.210|10=166|
20150520-18:45:18.044: 8=FIX.4.4|9=58|35=0|34=341|49=adrbcs|52=20150520-18:45:18.044|56=to_xsgo|10=180|
20150520-18:45:20.561: 8=FIX.4.4|9=58|35=0|34=341|49=to_xsgo|56=adrbcs|52=20150520-18:45:20.550|10=175|
20150520-18:46:18.044: 8=FIX.4.4|9=58|35=0|34=342|49=adrbcs|52=20150520-18:46:18.044|56=to_xsgo|10=182|
20150520-18:46:20.948: 8=FIX.4.4|9=58|35=0|34=342|49=to_xsgo|56=adrbcs|52=20150520-18:46:20.937|10=186|
20150520-18:47:19.044: 8=FIX.4.4|9=58|35=0|34=343|49=adrbcs|52=20150520-18:47:19.044|56=to_xsgo|10=185|
20150520-18:47:21.224: 8=FIX.4.4|9=58|35=0|34=343|49=to_xsgo|56=adrbcs|52=20150520-18:47:21.215|10=178|
20150520-18:48:20.044: 8=FIX.4.4|9=58|35=0|34=344|49=adrbcs|52=20150520-18:48:20.044|56=to_xsgo|10=179|
20150520-18:48:21.549: 8=FIX.4.4|9=58|35=0|34=344|49=to_xsgo|56=adrbcs|52=20150520-18:48:21.540|10=181|
20150520-18:49:21.044: 8=FIX.4.4|9=58|35=0|34=345|49=adrbcs|52=20150520-18:49:21.044|56=to_xsgo|10=182|
20150520-18:49:21.874: 8=FIX.4.4|9=58|35=0|34=345|49=to_xsgo|56=adrbcs|52=20150520-18:49:21.864|10=192|
20150520-18:50:21.044: 8=FIX.4.4|9=58|35=0|34=346|49=adrbcs|52=20150520-18:50:21.044|56=to_xsgo|10=175|
20150520-18:50:22.167: 8=FIX.4.4|9=58|35=0|34=346|49=to_xsgo|56=adrbcs|52=20150520-18:50:22.157|10=181|
20150520-18:51:22.044: 8=FIX.4.4|9=58|35=0|34=347|49=adrbcs|52=20150520-18:51:22.044|56=to_xsgo|10=178|
20150520-18:51:22.478: 8=FIX.4.4|9=58|35=0|34=347|49=to_xsgo|56=adrbcs|52=20150520-18:51:22.466|10=186|
20150520-18:52:21.124: 8=FIX.4.4|9=244|35=D|34=348|49=adrbcs|52=20150520-18:52:21.124|56=to_xsgo|1=591866109-00|11=4278dacd22594f4b|21=1|38=6000|40=2|44=2149.6|54=1|55=ANDINA-B|59=0|60=20150520-18:52:21.123|63=3|100=XSGO|207=XSGO|583=-7a10cc3f6137ba20|453=1|448=LVIAL001|447=D|452=1|10=119|
20150520-18:52:21.142: 8=FIX.4.4|9=370|35=8|128=adrbcs|34=348|49=to_xsgo|56=adrbcs|52=20150520-18:52:21.121|6=0|11=4278dacd22594f4b|14=0|15=CLP|17=ex151404332710|21=1|31=0|32=0|37=ord15140424084|38=6000|39=0|40=2|44=2149.6|54=1|55=ANDINA-B|59=0|60=20150520-18:52:21.129|63=3|75=20150520|150=0|151=6000|167=CS|198=ord15140424084-1|207=XSGO|376=-7a10cc3f6137ba20|453=1|448=789|447=D|452=1|583=-7a10cc3f6137ba20|10=060|
20150520-18:52:52.387: 8=FIX.4.4|9=264|35=G|34=349|49=adrbcs|52=20150520-18:52:52.386|56=to_xsgo|1=591866109-00|11=6540091fde384e60|21=1|38=6000|40=2|41=4278dacd22594f4b|44=2154.7|54=1|55=ANDINA-B|59=0|60=20150520-18:52:52.386|63=3|100=XSGO|207=XSGO|583=-7a10cc3f6137ba20|453=1|448=LVIAL001|447=D|452=1|10=060|
20150520-18:52:52.406: 8=FIX.4.4|9=390|35=8|128=adrbcs|34=349|49=to_xsgo|56=adrbcs|52=20150520-18:52:52.382|6=0|11=6540091fde384e60|14=0|15=CLP|17=ex151404333450|21=1|31=0|32=0|37=ord15140424084|38=6000|39=0|40=2|41=4278dacd22594f4b|44=2154.7|54=1|55=ANDINA-B|59=0|60=20150520-18:52:52.392|63=3|75=20150520|150=5|151=6000|167=CS|198=ord15140424084-2|207=XSGO|376=-7a10cc3f6137ba20|453=1|448=789|447=D|452=1|583=-7a10cc3f6137ba20|10=252|
20150520-18:53:25.157: 8=FIX.4.4|9=244|35=D|34=350|49=adrbcs|52=20150520-18:53:25.157|56=to_xsgo|1=591866109-00|11=6c894687f5934a96|21=1|38=6000|40=2|44=2171.2|54=2|55=ANDINA-B|59=0|60=20150520-18:53:25.157|63=3|100=XSGO|207=XSGO|583=-7a10cc3f6137ba20|453=1|448=LVIAL001|447=D|452=1|10=010|
20150520-18:53:25.180: 8=FIX.4.4|9=370|35=8|128=adrbcs|34=350|49=to_xsgo|56=adrbcs|52=20150520-18:53:25.157|6=0|11=6c894687f5934a96|14=0|15=CLP|17=ex151404334132|21=1|31=0|32=0|37=ord15140424272|38=6000|39=0|40=2|44=2171.2|54=2|55=ANDINA-B|59=0|60=20150520-18:53:25.163|63=3|75=20150520|150=0|151=6000|167=CS|198=ord15140424272-1|207=XSGO|376=-7a10cc3f6137ba20|453=1|448=789|447=D|452=1|583=-7a10cc3f6137ba20|10=199|
20150520-18:54:25.531: 8=FIX.4.4|9=58|35=0|34=351|49=to_xsgo|56=adrbcs|52=20150520-18:54:25.513|10=180|
20150520-18:54:25.532: 8=FIX.4.4|9=58|35=0|34=351|49=adrbcs|52=20150520-18:54:25.532|56=to_xsgo|10=181|
20150520-18:55:25.865: 8=FIX.4.4|9=58|35=0|34=352|49=to_xsgo|56=adrbcs|52=20150520-18:55:25.852|10=188|
20150520-18:55:25.866: 8=FIX.4.4|9=58|35=0|34=352|49=adrbcs|52=20150520-18:55:25.866|56=to_xsgo|10=193|
20150520-18:55:27.148: 8=FIX.4.4|9=452|35=8|128=adrbcs|34=353|49=to_xsgo|56=adrbcs|52=20150520-18:55:27.131|6=2154.7|11=6540091fde384e60|14=4422|15=CLP|17=ex151404337868|21=1|31=2154.7|32=4422|37=ord15140424084|38=6000|39=1|40=2|41=4278dacd22594f4b|44=2154.7|54=1|55=ANDINA-B|59=0|60=20150520-18:55:27.131|63=3|64=20150525|75=20150520|150=F|151=1578|167=CS|198=ord15140424084-2|207=XSGO|381=9528083|382=1|375=066|337=739|376=-7a10cc3f6137ba20|453=1|448=789|447=D|452=1|583=-7a10cc3f6137ba20|10=231|
20150520-18:55:27.467: 8=FIX.4.4|9=266|35=G|34=353|49=adrbcs|52=20150520-18:55:27.467|56=to_xsgo|1=591866109-00|11=-569567586902b214|21=1|38=10422|40=2|41=6540091fde384e60|44=2154.7|54=1|55=ANDINA-B|59=0|60=20150520-18:55:27.467|63=3|100=XSGO|207=XSGO|583=-7a10cc3f6137ba20|453=1|448=LVIAL001|447=D|452=1|10=189|
