20150519-11:09:08.135: 8=FIX.4.4|9=61|35=5|34=1|49=ALGOARBADR4|52=20150519-11:09:08.122|56=MDFHBLP|10=215|
20150519-11:09:09.107: 8=FIX.4.4|9=61|35=5|34=1|49=ALGOARBADR4|52=20150519-11:09:09.107|56=MDFHBLP|10=219|
20150519-11:09:10.113: 8=FIX.4.4|9=79|35=A|34=1|49=ALGOARBADR4|52=20150519-11:09:10.113|56=MDFHBLP|98=0|108=60|141=Y|10=046|
20150519-11:09:10.145: 8=FIX.4.4|9=79|35=A|34=1|49=MDFHBLP|52=20150519-11:09:10.075|56=ALGOARBADR4|98=0|108=60|141=Y|10=053|
20150519-11:09:10.285: 8=FIX.4.4|9=143|35=V|34=2|49=ALGOARBADR4|52=20150519-11:09:10.285|56=MDFHBLP|262=22bc3e9e15364007|263=1|264=1|146=1|55=CLP DTTC CURNCY|267=3|269=0|269=1|269=5|10=042|
20150519-11:09:10.292: 8=FIX.4.4|9=168|35=W|34=2|49=MDFHBLP|52=20150519-11:09:10.231|56=ALGOARBADR4|55=CLP DTTC CURNCY|262=22bc3e9e15364007|268=3|269=0|270=600.6|271=0|269=1|270=601.5|271=0|269=5|270=601.05|10=190|
20150519-11:10:10.475: 8=FIX.4.4|9=61|35=0|34=3|49=MDFHBLP|52=20150519-11:10:10.426|56=ALGOARBADR4|10=204|
20150519-11:10:10.476: 8=FIX.4.4|9=61|35=0|34=3|49=ALGOARBADR4|52=20150519-11:10:10.476|56=MDFHBLP|10=209|
20150519-11:11:10.474: 8=FIX.4.4|9=61|35=0|34=4|49=MDFHBLP|52=20150519-11:11:10.434|56=ALGOARBADR4|10=205|
20150519-11:11:11.108: 8=FIX.4.4|9=61|35=0|34=4|49=ALGOARBADR4|52=20150519-11:11:11.108|56=MDFHBLP|10=204|
20150519-11:12:10.488: 8=FIX.4.4|9=61|35=0|34=5|49=MDFHBLP|52=20150519-11:12:10.457|56=ALGOARBADR4|10=212|
20150519-11:12:11.108: 8=FIX.4.4|9=61|35=0|34=5|49=ALGOARBADR4|52=20150519-11:12:11.108|56=MDFHBLP|10=206|
20150519-11:13:10.487: 8=FIX.4.4|9=61|35=0|34=6|49=MDFHBLP|52=20150519-11:13:10.460|56=ALGOARBADR4|10=208|
20150519-11:13:12.107: 8=FIX.4.4|9=61|35=0|34=6|49=ALGOARBADR4|52=20150519-11:13:12.107|56=MDFHBLP|10=208|
20150519-11:14:10.486: 8=FIX.4.4|9=61|35=0|34=7|49=MDFHBLP|52=20150519-11:14:10.461|56=ALGOARBADR4|10=211|
20150519-11:14:12.107: 8=FIX.4.4|9=61|35=0|34=7|49=ALGOARBADR4|52=20150519-11:14:12.107|56=MDFHBLP|10=210|
20150519-11:15:10.485: 8=FIX.4.4|9=61|35=0|34=8|49=MDFHBLP|52=20150519-11:15:10.463|56=ALGOARBADR4|10=215|
20150519-11:15:12.108: 8=FIX.4.4|9=61|35=0|34=8|49=ALGOARBADR4|52=20150519-11:15:12.108|56=MDFHBLP|10=213|
20150519-11:16:10.499: 8=FIX.4.4|9=61|35=0|34=9|49=MDFHBLP|52=20150519-11:16:10.480|56=ALGOARBADR4|10=216|
20150519-11:16:12.108: 8=FIX.4.4|9=61|35=0|34=9|49=ALGOARBADR4|52=20150519-11:16:12.108|56=MDFHBLP|10=215|
20150519-11:17:10.498: 8=FIX.4.4|9=62|35=0|34=10|49=MDFHBLP|52=20150519-11:17:10.481|56=ALGOARBADR4|10=003|
20150519-11:17:13.107: 8=FIX.4.4|9=62|35=0|34=10|49=ALGOARBADR4|52=20150519-11:17:13.107|56=MDFHBLP|10=001|
20150519-11:18:10.497: 8=FIX.4.4|9=62|35=0|34=11|49=MDFHBLP|52=20150519-11:18:10.481|56=ALGOARBADR4|10=005|
20150519-11:18:13.108: 8=FIX.4.4|9=62|35=0|34=11|49=ALGOARBADR4|52=20150519-11:18:13.108|56=MDFHBLP|10=004|
20150519-11:19:10.496: 8=FIX.4.4|9=62|35=0|34=12|49=MDFHBLP|52=20150519-11:19:10.481|56=ALGOARBADR4|10=007|
20150519-11:19:14.108: 8=FIX.4.4|9=62|35=0|34=12|49=ALGOARBADR4|52=20150519-11:19:14.108|56=MDFHBLP|10=007|
20150519-11:20:11.493: 8=FIX.4.4|9=62|35=0|34=13|49=MDFHBLP|52=20150519-11:20:11.478|56=ALGOARBADR4|10=007|
20150519-11:20:14.108: 8=FIX.4.4|9=62|35=0|34=13|49=ALGOARBADR4|52=20150519-11:20:14.108|56=MDFHBLP|10=000|
20150519-11:21:11.507: 8=FIX.4.4|9=62|35=0|34=14|49=MDFHBLP|52=20150519-11:21:11.494|56=ALGOARBADR4|10=007|
20150519-11:21:15.107: 8=FIX.4.4|9=62|35=0|34=14|49=ALGOARBADR4|52=20150519-11:21:15.107|56=MDFHBLP|10=002|
20150519-11:22:12.504: 8=FIX.4.4|9=62|35=0|34=15|49=MDFHBLP|52=20150519-11:22:12.492|56=ALGOARBADR4|10=008|
20150519-11:22:15.107: 8=FIX.4.4|9=62|35=0|34=15|49=ALGOARBADR4|52=20150519-11:22:15.107|56=MDFHBLP|10=004|
20150519-11:23:13.501: 8=FIX.4.4|9=62|35=0|34=16|49=MDFHBLP|52=20150519-11:23:13.489|56=ALGOARBADR4|10=017|
20150519-11:23:15.107: 8=FIX.4.4|9=62|35=0|34=16|49=ALGOARBADR4|52=20150519-11:23:15.107|56=MDFHBLP|10=006|
20150519-11:24:13.516: 8=FIX.4.4|9=62|35=0|34=17|49=MDFHBLP|52=20150519-11:24:13.503|56=ALGOARBADR4|10=006|
20150519-11:24:15.108: 8=FIX.4.4|9=62|35=0|34=17|49=ALGOARBADR4|52=20150519-11:24:15.108|56=MDFHBLP|10=009|
20150519-11:25:14.513: 8=FIX.4.4|9=62|35=0|34=18|49=MDFHBLP|52=20150519-11:25:14.500|56=ALGOARBADR4|10=006|
20150519-11:25:16.108: 8=FIX.4.4|9=62|35=0|34=18|49=ALGOARBADR4|52=20150519-11:25:16.108|56=MDFHBLP|10=012|
20150519-11:26:15.510: 8=FIX.4.4|9=62|35=0|34=19|49=MDFHBLP|52=20150519-11:26:15.498|56=ALGOARBADR4|10=025|
20150519-11:26:17.108: 8=FIX.4.4|9=62|35=0|34=19|49=ALGOARBADR4|52=20150519-11:26:17.108|56=MDFHBLP|10=015|
20150519-11:27:16.523: 8=FIX.4.4|9=62|35=0|34=20|49=MDFHBLP|52=20150519-11:27:16.510|56=ALGOARBADR4|10=004|
20150519-11:27:17.108: 8=FIX.4.4|9=62|35=0|34=20|49=ALGOARBADR4|52=20150519-11:27:17.108|56=MDFHBLP|10=008|
20150519-11:28:17.108: 8=FIX.4.4|9=62|35=0|34=21|49=ALGOARBADR4|52=20150519-11:28:17.108|56=MDFHBLP|10=010|
20150519-11:28:17.110: 8=FIX.4.4|9=62|35=0|34=21|49=MDFHBLP|52=20150519-11:28:17.086|56=ALGOARBADR4|10=015|
20150519-11:29:17.519: 8=FIX.4.4|9=62|35=0|34=22|49=MDFHBLP|52=20150519-11:29:17.506|56=ALGOARBADR4|10=014|
20150519-11:29:17.520: 8=FIX.4.4|9=62|35=0|34=22|49=ALGOARBADR4|52=20150519-11:29:17.519|56=MDFHBLP|10=018|
20150519-11:30:18.108: 8=FIX.4.4|9=62|35=0|34=23|49=ALGOARBADR4|52=20150519-11:30:18.108|56=MDFHBLP|10=006|
20150519-11:30:18.110: 8=FIX.4.4|9=62|35=0|34=23|49=MDFHBLP|52=20150519-11:30:18.082|56=ALGOARBADR4|10=007|
20150519-11:31:18.520: 8=FIX.4.4|9=62|35=0|34=24|49=MDFHBLP|52=20150519-11:31:18.507|56=ALGOARBADR4|10=011|
20150519-11:31:18.520: 8=FIX.4.4|9=62|35=0|34=24|49=ALGOARBADR4|52=20150519-11:31:18.520|56=MDFHBLP|10=006|
20150519-11:32:18.535: 8=FIX.4.4|9=62|35=0|34=25|49=MDFHBLP|52=20150519-11:32:18.521|56=ALGOARBADR4|10=009|
20150519-11:32:18.535: 8=FIX.4.4|9=62|35=0|34=25|49=ALGOARBADR4|52=20150519-11:32:18.535|56=MDFHBLP|10=014|
20150519-11:33:19.108: 8=FIX.4.4|9=62|35=0|34=26|49=ALGOARBADR4|52=20150519-11:33:19.108|56=MDFHBLP|10=013|
20150519-11:33:19.110: 8=FIX.4.4|9=62|35=0|34=26|49=MDFHBLP|52=20150519-11:33:19.069|56=ALGOARBADR4|10=019|
20150519-11:34:19.108: 8=FIX.4.4|9=62|35=0|34=27|49=ALGOARBADR4|52=20150519-11:34:19.108|56=MDFHBLP|10=015|
20150519-11:34:19.110: 8=FIX.4.4|9=62|35=0|34=27|49=MDFHBLP|52=20150519-11:34:19.071|56=ALGOARBADR4|10=014|
20150519-11:35:19.527: 8=FIX.4.4|9=62|35=0|34=28|49=MDFHBLP|52=20150519-11:35:19.488|56=ALGOARBADR4|10=028|
20150519-11:35:19.527: 8=FIX.4.4|9=62|35=0|34=28|49=ALGOARBADR4|52=20150519-11:35:19.527|56=MDFHBLP|10=022|
20150519-11:36:19.529: 8=FIX.4.4|9=62|35=0|34=29|49=MDFHBLP|52=20150519-11:36:19.521|56=ALGOARBADR4|10=018|
20150519-11:36:19.530: 8=FIX.4.4|9=62|35=0|34=29|49=ALGOARBADR4|52=20150519-11:36:19.530|56=MDFHBLP|10=018|
20150519-11:37:19.543: 8=FIX.4.4|9=62|35=0|34=30|49=MDFHBLP|52=20150519-11:37:19.534|56=ALGOARBADR4|10=015|
20150519-11:37:19.543: 8=FIX.4.4|9=62|35=0|34=30|49=ALGOARBADR4|52=20150519-11:37:19.543|56=MDFHBLP|10=015|
20150519-11:38:20.108: 8=FIX.4.4|9=62|35=0|34=31|49=ALGOARBADR4|52=20150519-11:38:20.108|56=MDFHBLP|10=006|
20150519-11:38:20.111: 8=FIX.4.4|9=62|35=0|34=31|49=MDFHBLP|52=20150519-11:38:20.094|56=ALGOARBADR4|10=010|
20150519-11:39:20.538: 8=FIX.4.4|9=62|35=0|34=32|49=MDFHBLP|52=20150519-11:39:20.529|56=ALGOARBADR4|10=015|
20150519-11:39:20.539: 8=FIX.4.4|9=62|35=0|34=32|49=ALGOARBADR4|52=20150519-11:39:20.539|56=MDFHBLP|10=016|
20150519-11:40:21.108: 8=FIX.4.4|9=62|35=0|34=33|49=ALGOARBADR4|52=20150519-11:40:21.108|56=MDFHBLP|10=002|
20150519-11:40:21.110: 8=FIX.4.4|9=62|35=0|34=33|49=MDFHBLP|52=20150519-11:40:21.089|56=ALGOARBADR4|10=010|
20150519-11:41:21.108: 8=FIX.4.4|9=62|35=0|34=34|49=ALGOARBADR4|52=20150519-11:41:21.108|56=MDFHBLP|10=004|
20150519-11:41:21.550: 8=FIX.4.4|9=62|35=0|34=34|49=MDFHBLP|52=20150519-11:41:21.540|56=ALGOARBADR4|10=004|
20150519-11:42:22.108: 8=FIX.4.4|9=62|35=0|34=35|49=ALGOARBADR4|52=20150519-11:42:22.107|56=MDFHBLP|10=006|
20150519-11:42:22.110: 8=FIX.4.4|9=62|35=0|34=35|49=MDFHBLP|52=20150519-11:42:22.085|56=ALGOARBADR4|10=011|
20150519-11:43:22.108: 8=FIX.4.4|9=62|35=0|34=36|49=ALGOARBADR4|52=20150519-11:43:22.108|56=MDFHBLP|10=009|
20150519-11:43:22.110: 8=FIX.4.4|9=62|35=0|34=36|49=MDFHBLP|52=20150519-11:43:22.099|56=ALGOARBADR4|10=018|
20150519-11:44:22.108: 8=FIX.4.4|9=62|35=0|34=37|49=ALGOARBADR4|52=20150519-11:44:22.108|56=MDFHBLP|10=011|
20150519-11:44:22.545: 8=FIX.4.4|9=62|35=0|34=37|49=MDFHBLP|52=20150519-11:44:22.534|56=ALGOARBADR4|10=014|
20150519-11:45:22.108: 8=FIX.4.4|9=62|35=0|34=38|49=ALGOARBADR4|52=20150519-11:45:22.108|56=MDFHBLP|10=013|
20150519-11:45:22.559: 8=FIX.4.4|9=62|35=0|34=38|49=MDFHBLP|52=20150519-11:45:22.548|56=ALGOARBADR4|10=021|
20150519-11:46:23.107: 8=FIX.4.4|9=62|35=0|34=39|49=ALGOARBADR4|52=20150519-11:46:23.107|56=MDFHBLP|10=015|
20150519-11:46:23.110: 8=FIX.4.4|9=62|35=0|34=39|49=MDFHBLP|52=20150519-11:46:23.092|56=ALGOARBADR4|10=018|
20150519-11:47:23.108: 8=FIX.4.4|9=62|35=0|34=40|49=ALGOARBADR4|52=20150519-11:47:23.108|56=MDFHBLP|10=009|
20150519-11:47:23.555: 8=FIX.4.4|9=62|35=0|34=40|49=MDFHBLP|52=20150519-11:47:23.543|56=ALGOARBADR4|10=012|
20150519-11:48:23.108: 8=FIX.4.4|9=62|35=0|34=41|49=ALGOARBADR4|52=20150519-11:48:23.108|56=MDFHBLP|10=011|
20150519-11:48:23.565: 8=FIX.4.4|9=62|35=0|34=41|49=MDFHBLP|52=20150519-11:48:23.552|56=ALGOARBADR4|10=014|
20150519-11:49:24.107: 8=FIX.4.4|9=62|35=0|34=42|49=ALGOARBADR4|52=20150519-11:49:24.107|56=MDFHBLP|10=013|
20150519-11:49:24.110: 8=FIX.4.4|9=62|35=0|34=42|49=MDFHBLP|52=20150519-11:49:24.097|56=ALGOARBADR4|10=021|
20150519-11:50:24.108: 8=FIX.4.4|9=62|35=0|34=43|49=ALGOARBADR4|52=20150519-11:50:24.107|56=MDFHBLP|10=006|
20150519-11:50:24.566: 8=FIX.4.4|9=62|35=0|34=43|49=MDFHBLP|52=20150519-11:50:24.553|56=ALGOARBADR4|10=011|
20150519-11:51:24.108: 8=FIX.4.4|9=62|35=0|34=44|49=ALGOARBADR4|52=20150519-11:51:24.107|56=MDFHBLP|10=008|
20150519-11:51:25.565: 8=FIX.4.4|9=62|35=0|34=44|49=MDFHBLP|52=20150519-11:51:25.551|56=ALGOARBADR4|10=012|
20150519-11:52:24.108: 8=FIX.4.4|9=62|35=0|34=45|49=ALGOARBADR4|52=20150519-11:52:24.107|56=MDFHBLP|10=010|
20150519-11:52:26.578: 8=FIX.4.4|9=62|35=0|34=45|49=MDFHBLP|52=20150519-11:52:26.563|56=ALGOARBADR4|10=018|
20150519-11:53:24.107: 8=FIX.4.4|9=62|35=0|34=46|49=ALGOARBADR4|52=20150519-11:53:24.107|56=MDFHBLP|10=012|
20150519-11:53:27.572: 8=FIX.4.4|9=62|35=0|34=46|49=MDFHBLP|52=20150519-11:53:27.557|56=ALGOARBADR4|10=024|
20150519-11:54:24.107: 8=FIX.4.4|9=62|35=0|34=47|49=ALGOARBADR4|52=20150519-11:54:24.107|56=MDFHBLP|10=014|
20150519-11:54:28.569: 8=FIX.4.4|9=62|35=0|34=47|49=MDFHBLP|52=20150519-11:54:28.554|56=ALGOARBADR4|10=024|
20150519-11:55:24.107: 8=FIX.4.4|9=62|35=0|34=48|49=ALGOARBADR4|52=20150519-11:55:24.107|56=MDFHBLP|10=016|
20150519-11:55:28.573: 8=FIX.4.4|9=62|35=0|34=48|49=MDFHBLP|52=20150519-11:55:28.557|56=ALGOARBADR4|10=029|
20150519-11:56:24.107: 8=FIX.4.4|9=62|35=0|34=49|49=ALGOARBADR4|52=20150519-11:56:24.107|56=MDFHBLP|10=018|
20150519-11:56:28.577: 8=FIX.4.4|9=62|35=0|34=49|49=MDFHBLP|52=20150519-11:56:28.561|56=ALGOARBADR4|10=026|
20150519-11:57:24.108: 8=FIX.4.4|9=62|35=0|34=50|49=ALGOARBADR4|52=20150519-11:57:24.108|56=MDFHBLP|10=012|
20150519-11:57:28.585: 8=FIX.4.4|9=62|35=0|34=50|49=MDFHBLP|52=20150519-11:57:28.569|56=ALGOARBADR4|10=027|
20150519-11:58:25.108: 8=FIX.4.4|9=62|35=0|34=51|49=ALGOARBADR4|52=20150519-11:58:25.108|56=MDFHBLP|10=015|
20150519-11:58:29.578: 8=FIX.4.4|9=62|35=0|34=51|49=MDFHBLP|52=20150519-11:58:29.562|56=ALGOARBADR4|10=023|
20150519-11:59:26.108: 8=FIX.4.4|9=62|35=0|34=52|49=ALGOARBADR4|52=20150519-11:59:26.107|56=MDFHBLP|10=017|
20150519-11:59:30.591: 8=FIX.4.4|9=62|35=0|34=52|49=MDFHBLP|52=20150519-11:59:30.574|56=ALGOARBADR4|10=020|
20150519-12:00:26.108: 8=FIX.4.4|9=62|35=0|34=53|49=ALGOARBADR4|52=20150519-12:00:26.108|56=MDFHBLP|10=006|
20150519-12:00:31.589: 8=FIX.4.4|9=62|35=0|34=53|49=MDFHBLP|52=20150519-12:00:31.571|56=ALGOARBADR4|10=006|
20150519-12:01:27.107: 8=FIX.4.4|9=62|35=0|34=54|49=ALGOARBADR4|52=20150519-12:01:27.107|56=MDFHBLP|10=008|
20150519-12:01:32.582: 8=FIX.4.4|9=62|35=0|34=54|49=MDFHBLP|52=20150519-12:01:32.564|56=ALGOARBADR4|10=011|
20150519-12:02:27.108: 8=FIX.4.4|9=62|35=0|34=55|49=ALGOARBADR4|52=20150519-12:02:27.108|56=MDFHBLP|10=011|
20150519-12:02:32.597: 8=FIX.4.4|9=62|35=0|34=55|49=MDFHBLP|52=20150519-12:02:32.578|56=ALGOARBADR4|10=018|
20150519-12:03:27.108: 8=FIX.4.4|9=62|35=0|34=56|49=ALGOARBADR4|52=20150519-12:03:27.108|56=MDFHBLP|10=013|
20150519-12:03:33.594: 8=FIX.4.4|9=62|35=0|34=56|49=MDFHBLP|52=20150519-12:03:33.575|56=ALGOARBADR4|10=018|
20150519-12:04:27.108: 8=FIX.4.4|9=62|35=0|34=57|49=ALGOARBADR4|52=20150519-12:04:27.108|56=MDFHBLP|10=015|
20150519-12:04:34.591: 8=FIX.4.4|9=62|35=0|34=57|49=MDFHBLP|52=20150519-12:04:34.571|56=ALGOARBADR4|10=017|
20150519-12:05:27.108: 8=FIX.4.4|9=62|35=0|34=58|49=ALGOARBADR4|52=20150519-12:05:27.108|56=MDFHBLP|10=017|
20150519-12:05:34.605: 8=FIX.4.4|9=62|35=0|34=58|49=MDFHBLP|52=20150519-12:05:34.585|56=ALGOARBADR4|10=024|
20150519-12:06:28.107: 8=FIX.4.4|9=62|35=0|34=59|49=ALGOARBADR4|52=20150519-12:06:28.107|56=MDFHBLP|10=019|
20150519-12:06:35.595: 8=FIX.4.4|9=62|35=0|34=59|49=MDFHBLP|52=20150519-12:06:35.575|56=ALGOARBADR4|10=026|
20150519-12:07:28.108: 8=FIX.4.4|9=62|35=0|34=60|49=ALGOARBADR4|52=20150519-12:07:28.108|56=MDFHBLP|10=013|
20150519-12:07:35.609: 8=FIX.4.4|9=62|35=0|34=60|49=MDFHBLP|52=20150519-12:07:35.589|56=ALGOARBADR4|10=024|
20150519-12:08:28.108: 8=FIX.4.4|9=62|35=0|34=61|49=ALGOARBADR4|52=20150519-12:08:28.108|56=MDFHBLP|10=015|
20150519-12:08:36.606: 8=FIX.4.4|9=62|35=0|34=61|49=MDFHBLP|52=20150519-12:08:36.585|56=ALGOARBADR4|10=023|
20150519-12:09:29.108: 8=FIX.4.4|9=62|35=0|34=62|49=ALGOARBADR4|52=20150519-12:09:29.107|56=MDFHBLP|10=017|
20150519-12:09:37.603: 8=FIX.4.4|9=62|35=0|34=62|49=MDFHBLP|52=20150519-12:09:37.582|56=ALGOARBADR4|10=023|
20150519-12:10:29.108: 8=FIX.4.4|9=62|35=0|34=63|49=ALGOARBADR4|52=20150519-12:10:29.107|56=MDFHBLP|10=010|
20150519-12:10:38.616: 8=FIX.4.4|9=62|35=0|34=63|49=MDFHBLP|52=20150519-12:10:38.595|56=ALGOARBADR4|10=021|
20150519-12:11:29.108: 8=FIX.4.4|9=62|35=0|34=64|49=ALGOARBADR4|52=20150519-12:11:29.108|56=MDFHBLP|10=013|
20150519-12:11:39.614: 8=FIX.4.4|9=62|35=0|34=64|49=MDFHBLP|52=20150519-12:11:39.591|56=ALGOARBADR4|10=020|
20150519-12:12:30.108: 8=FIX.4.4|9=62|35=0|34=65|49=ALGOARBADR4|52=20150519-12:12:30.108|56=MDFHBLP|10=007|
20150519-12:12:40.611: 8=FIX.4.4|9=62|35=0|34=65|49=MDFHBLP|52=20150519-12:12:40.588|56=ALGOARBADR4|10=020|
20150519-12:13:31.107: 8=FIX.4.4|9=62|35=0|34=66|49=ALGOARBADR4|52=20150519-12:13:31.107|56=MDFHBLP|10=009|
20150519-12:13:41.624: 8=FIX.4.4|9=62|35=0|34=66|49=MDFHBLP|52=20150519-12:13:41.600|56=ALGOARBADR4|10=008|
20150519-12:14:31.108: 8=FIX.4.4|9=62|35=0|34=67|49=ALGOARBADR4|52=20150519-12:14:31.108|56=MDFHBLP|10=012|
20150519-12:14:42.621: 8=FIX.4.4|9=62|35=0|34=67|49=MDFHBLP|52=20150519-12:14:42.597|56=ALGOARBADR4|10=026|
20150519-12:15:32.107: 8=FIX.4.4|9=62|35=0|34=68|49=ALGOARBADR4|52=20150519-12:15:32.107|56=MDFHBLP|10=014|
20150519-12:15:42.621: 8=FIX.4.4|9=62|35=0|34=68|49=MDFHBLP|52=20150519-12:15:42.598|56=ALGOARBADR4|10=029|
20150519-12:16:32.107: 8=FIX.4.4|9=62|35=0|34=69|49=ALGOARBADR4|52=20150519-12:16:32.107|56=MDFHBLP|10=016|
20150519-12:16:43.618: 8=FIX.4.4|9=62|35=0|34=69|49=MDFHBLP|52=20150519-12:16:43.594|56=ALGOARBADR4|10=028|
20150519-12:17:32.107: 8=FIX.4.4|9=62|35=0|34=70|49=ALGOARBADR4|52=20150519-12:17:32.107|56=MDFHBLP|10=009|
20150519-12:17:44.631: 8=FIX.4.4|9=62|35=0|34=70|49=MDFHBLP|52=20150519-12:17:44.607|56=ALGOARBADR4|10=017|
20150519-12:18:32.107: 8=FIX.4.4|9=62|35=0|34=71|49=ALGOARBADR4|52=20150519-12:18:32.107|56=MDFHBLP|10=011|
20150519-12:18:45.629: 8=FIX.4.4|9=62|35=0|34=71|49=MDFHBLP|52=20150519-12:18:45.604|56=ALGOARBADR4|10=017|
20150519-12:19:32.108: 8=FIX.4.4|9=62|35=0|34=72|49=ALGOARBADR4|52=20150519-12:19:32.108|56=MDFHBLP|10=014|
20150519-12:19:46.625: 8=FIX.4.4|9=62|35=0|34=72|49=MDFHBLP|52=20150519-12:19:46.600|56=ALGOARBADR4|10=016|
20150519-12:20:32.108: 8=FIX.4.4|9=62|35=0|34=73|49=ALGOARBADR4|52=20150519-12:20:32.108|56=MDFHBLP|10=007|
20150519-12:20:47.638: 8=FIX.4.4|9=62|35=0|34=73|49=MDFHBLP|52=20150519-12:20:47.612|56=ALGOARBADR4|10=013|
20150519-12:21:33.108: 8=FIX.4.4|9=62|35=0|34=74|49=ALGOARBADR4|52=20150519-12:21:33.108|56=MDFHBLP|10=010|
20150519-12:21:48.635: 8=FIX.4.4|9=62|35=0|34=74|49=MDFHBLP|52=20150519-12:21:48.609|56=ALGOARBADR4|10=022|
20150519-12:22:33.108: 8=FIX.4.4|9=62|35=0|34=75|49=ALGOARBADR4|52=20150519-12:22:33.108|56=MDFHBLP|10=012|
20150519-12:22:49.633: 8=FIX.4.4|9=62|35=0|34=75|49=MDFHBLP|52=20150519-12:22:49.606|56=ALGOARBADR4|10=022|
20150519-12:23:33.108: 8=FIX.4.4|9=62|35=0|34=76|49=ALGOARBADR4|52=20150519-12:23:33.108|56=MDFHBLP|10=014|
20150519-12:23:50.645: 8=FIX.4.4|9=62|35=0|34=76|49=MDFHBLP|52=20150519-12:23:50.618|56=ALGOARBADR4|10=019|
20150519-12:24:33.108: 8=FIX.4.4|9=62|35=0|34=77|49=ALGOARBADR4|52=20150519-12:24:33.108|56=MDFHBLP|10=016|
20150519-12:24:51.643: 8=FIX.4.4|9=62|35=0|34=77|49=MDFHBLP|52=20150519-12:24:51.615|56=ALGOARBADR4|10=019|
20150519-12:25:34.108: 8=FIX.4.4|9=62|35=0|34=78|49=ALGOARBADR4|52=20150519-12:25:34.108|56=MDFHBLP|10=019|
20150519-12:25:52.640: 8=FIX.4.4|9=62|35=0|34=78|49=MDFHBLP|52=20150519-12:25:52.611|56=ALGOARBADR4|10=018|
20150519-12:26:35.107: 8=FIX.4.4|9=62|35=0|34=79|49=ALGOARBADR4|52=20150519-12:26:35.107|56=MDFHBLP|10=021|
20150519-12:26:53.636: 8=FIX.4.4|9=62|35=0|34=79|49=MDFHBLP|52=20150519-12:26:53.579|56=ALGOARBADR4|10=034|
20150519-12:27:35.107: 8=FIX.4.4|9=62|35=0|34=80|49=ALGOARBADR4|52=20150519-12:27:35.107|56=MDFHBLP|10=014|
20150519-12:27:53.639: 8=FIX.4.4|9=62|35=0|34=80|49=MDFHBLP|52=20150519-12:27:53.584|56=ALGOARBADR4|10=023|
20150519-12:28:35.107: 8=FIX.4.4|9=62|35=0|34=81|49=ALGOARBADR4|52=20150519-12:28:35.107|56=MDFHBLP|10=016|
20150519-12:28:53.642: 8=FIX.4.4|9=62|35=0|34=81|49=MDFHBLP|52=20150519-12:28:53.588|56=ALGOARBADR4|10=029|
20150519-12:29:35.107: 8=FIX.4.4|9=62|35=0|34=82|49=ALGOARBADR4|52=20150519-12:29:35.107|56=MDFHBLP|10=018|
20150519-12:29:53.643: 8=FIX.4.4|9=62|35=0|34=82|49=MDFHBLP|52=20150519-12:29:53.591|56=ALGOARBADR4|10=025|
20150519-12:30:35.108: 8=FIX.4.4|9=62|35=0|34=83|49=ALGOARBADR4|52=20150519-12:30:35.108|56=MDFHBLP|10=012|
20150519-12:30:53.646: 8=FIX.4.4|9=62|35=0|34=83|49=MDFHBLP|52=20150519-12:30:53.595|56=ALGOARBADR4|10=022|
20150519-12:31:35.108: 8=FIX.4.4|9=62|35=0|34=84|49=ALGOARBADR4|52=20150519-12:31:35.108|56=MDFHBLP|10=014|
20150519-12:31:53.648: 8=FIX.4.4|9=62|35=0|34=84|49=MDFHBLP|52=20150519-12:31:53.599|56=ALGOARBADR4|10=028|
20150519-12:32:35.108: 8=FIX.4.4|9=62|35=0|34=85|49=ALGOARBADR4|52=20150519-12:32:35.108|56=MDFHBLP|10=016|
20150519-12:32:53.650: 8=FIX.4.4|9=62|35=0|34=85|49=MDFHBLP|52=20150519-12:32:53.602|56=ALGOARBADR4|10=015|
20150519-12:33:35.108: 8=FIX.4.4|9=62|35=0|34=86|49=ALGOARBADR4|52=20150519-12:33:35.108|56=MDFHBLP|10=018|
20150519-12:33:53.652: 8=FIX.4.4|9=62|35=0|34=86|49=MDFHBLP|52=20150519-12:33:53.606|56=ALGOARBADR4|10=021|
20150519-12:34:35.108: 8=FIX.4.4|9=62|35=0|34=87|49=ALGOARBADR4|52=20150519-12:34:35.108|56=MDFHBLP|10=020|
20150519-12:34:53.655: 8=FIX.4.4|9=62|35=0|34=87|49=MDFHBLP|52=20150519-12:34:53.610|56=ALGOARBADR4|10=018|
20150519-12:35:35.108: 8=FIX.4.4|9=62|35=0|34=88|49=ALGOARBADR4|52=20150519-12:35:35.108|56=MDFHBLP|10=022|
20150519-12:35:53.656: 8=FIX.4.4|9=62|35=0|34=88|49=MDFHBLP|52=20150519-12:35:53.613|56=ALGOARBADR4|10=023|
20150519-12:36:36.107: 8=FIX.4.4|9=62|35=0|34=89|49=ALGOARBADR4|52=20150519-12:36:36.107|56=MDFHBLP|10=024|
20150519-12:36:53.659: 8=FIX.4.4|9=62|35=0|34=89|49=MDFHBLP|52=20150519-12:36:53.617|56=ALGOARBADR4|10=029|
20150519-12:37:36.107: 8=FIX.4.4|9=62|35=0|34=90|49=ALGOARBADR4|52=20150519-12:37:36.107|56=MDFHBLP|10=017|
20150519-12:37:53.661: 8=FIX.4.4|9=62|35=0|34=90|49=MDFHBLP|52=20150519-12:37:53.620|56=ALGOARBADR4|10=016|
20150519-12:38:36.107: 8=FIX.4.4|9=62|35=0|34=91|49=ALGOARBADR4|52=20150519-12:38:36.107|56=MDFHBLP|10=019|
20150519-12:38:53.663: 8=FIX.4.4|9=62|35=0|34=91|49=MDFHBLP|52=20150519-12:38:53.624|56=ALGOARBADR4|10=022|
20150519-12:39:36.107: 8=FIX.4.4|9=62|35=0|34=92|49=ALGOARBADR4|52=20150519-12:39:36.107|56=MDFHBLP|10=021|
20150519-12:39:53.665: 8=FIX.4.4|9=62|35=0|34=92|49=MDFHBLP|52=20150519-12:39:53.627|56=ALGOARBADR4|10=027|
20150519-12:40:36.108: 8=FIX.4.4|9=62|35=0|34=93|49=ALGOARBADR4|52=20150519-12:40:36.108|56=MDFHBLP|10=015|
20150519-12:40:53.666: 8=FIX.4.4|9=62|35=0|34=93|49=MDFHBLP|52=20150519-12:40:53.630|56=ALGOARBADR4|10=014|
20150519-12:41:36.108: 8=FIX.4.4|9=62|35=0|34=94|49=ALGOARBADR4|52=20150519-12:41:36.108|56=MDFHBLP|10=017|
20150519-12:41:53.669: 8=FIX.4.4|9=62|35=0|34=94|49=MDFHBLP|52=20150519-12:41:53.635|56=ALGOARBADR4|10=021|
20150519-12:42:37.108: 8=FIX.4.4|9=62|35=0|34=95|49=ALGOARBADR4|52=20150519-12:42:37.108|56=MDFHBLP|10=020|
20150519-12:42:53.671: 8=FIX.4.4|9=62|35=0|34=95|49=MDFHBLP|52=20150519-12:42:53.638|56=ALGOARBADR4|10=026|
20150519-12:43:38.107: 8=FIX.4.4|9=62|35=0|34=96|49=ALGOARBADR4|52=20150519-12:43:38.107|56=MDFHBLP|10=022|
20150519-12:43:53.673: 8=FIX.4.4|9=62|35=0|34=96|49=MDFHBLP|52=20150519-12:43:53.642|56=ALGOARBADR4|10=023|
20150519-12:44:38.108: 8=FIX.4.4|9=62|35=0|34=97|49=ALGOARBADR4|52=20150519-12:44:38.108|56=MDFHBLP|10=025|
20150519-12:44:53.676: 8=FIX.4.4|9=62|35=0|34=97|49=MDFHBLP|52=20150519-12:44:53.646|56=ALGOARBADR4|10=029|
20150519-12:45:38.108: 8=FIX.4.4|9=62|35=0|34=98|49=ALGOARBADR4|52=20150519-12:45:38.108|56=MDFHBLP|10=027|
20150519-12:45:53.678: 8=FIX.4.4|9=62|35=0|34=98|49=MDFHBLP|52=20150519-12:45:53.650|56=ALGOARBADR4|10=026|
20150519-12:46:38.108: 8=FIX.4.4|9=62|35=0|34=99|49=ALGOARBADR4|52=20150519-12:46:38.108|56=MDFHBLP|10=029|
20150519-12:46:53.680: 8=FIX.4.4|9=62|35=0|34=99|49=MDFHBLP|52=20150519-12:46:53.653|56=ALGOARBADR4|10=031|
20150519-12:47:39.108: 8=FIX.4.4|9=63|35=0|34=100|49=ALGOARBADR4|52=20150519-12:47:39.108|56=MDFHBLP|10=063|
20150519-12:47:53.682: 8=FIX.4.4|9=63|35=0|34=100|49=MDFHBLP|52=20150519-12:47:53.656|56=ALGOARBADR4|10=067|
20150519-12:48:40.107: 8=FIX.4.4|9=63|35=0|34=101|49=ALGOARBADR4|52=20150519-12:48:40.107|56=MDFHBLP|10=056|
20150519-12:48:53.685: 8=FIX.4.4|9=63|35=0|34=101|49=MDFHBLP|52=20150519-12:48:53.661|56=ALGOARBADR4|10=065|
20150519-12:49:40.107: 8=FIX.4.4|9=63|35=0|34=102|49=ALGOARBADR4|52=20150519-12:49:40.107|56=MDFHBLP|10=058|
20150519-12:49:53.712: 8=FIX.4.4|9=63|35=0|34=102|49=MDFHBLP|52=20150519-12:49:53.664|56=ALGOARBADR4|10=070|
20150519-12:50:40.108: 8=FIX.4.4|9=63|35=0|34=103|49=ALGOARBADR4|52=20150519-12:50:40.108|56=MDFHBLP|10=052|
20150519-12:50:53.689: 8=FIX.4.4|9=63|35=0|34=103|49=MDFHBLP|52=20150519-12:50:53.668|56=ALGOARBADR4|10=067|
20150519-12:51:41.108: 8=FIX.4.4|9=63|35=0|34=104|49=ALGOARBADR4|52=20150519-12:51:41.108|56=MDFHBLP|10=055|
20150519-12:51:53.692: 8=FIX.4.4|9=63|35=0|34=104|49=MDFHBLP|52=20150519-12:51:53.672|56=ALGOARBADR4|10=064|
20150519-12:52:42.107: 8=FIX.4.4|9=63|35=0|34=105|49=ALGOARBADR4|52=20150519-12:52:42.107|56=MDFHBLP|10=057|
20150519-12:52:53.693: 8=FIX.4.4|9=63|35=0|34=105|49=MDFHBLP|52=20150519-12:52:53.674|56=ALGOARBADR4|10=068|
20150519-12:53:42.108: 8=FIX.4.4|9=63|35=0|34=106|49=ALGOARBADR4|52=20150519-12:53:42.107|56=MDFHBLP|10=059|
20150519-12:53:53.695: 8=FIX.4.4|9=63|35=0|34=106|49=MDFHBLP|52=20150519-12:53:53.678|56=ALGOARBADR4|10=074|
20150519-12:54:42.108: 8=FIX.4.4|9=63|35=0|34=107|49=ALGOARBADR4|52=20150519-12:54:42.108|56=MDFHBLP|10=062|
20150519-12:54:53.698: 8=FIX.4.4|9=63|35=0|34=107|49=MDFHBLP|52=20150519-12:54:53.683|56=ALGOARBADR4|10=072|
20150519-12:55:58.109: 8=FIX.4.4|9=79|35=A|34=1|49=ALGOARBADR4|52=20150519-12:55:58.109|56=MDFHBLP|98=0|108=60|141=Y|10=065|
20150519-12:55:58.134: 8=FIX.4.4|9=79|35=A|34=1|49=MDFHBLP|52=20150519-12:55:58.119|56=ALGOARBADR4|98=0|108=60|141=Y|10=066|
20150519-12:55:58.135: 8=FIX.4.4|9=144|35=V|34=2|49=ALGOARBADR4|52=20150519-12:55:58.135|56=MDFHBLP|262=-664c0f673871b68e|263=1|264=1|146=1|55=CLP DTTC CURNCY|267=3|269=0|269=1|269=5|10=117|
20150519-12:56:58.589: 8=FIX.4.4|9=61|35=0|34=2|49=MDFHBLP|52=20150519-12:56:58.576|56=ALGOARBADR4|10=232|
20150519-12:56:58.590: 8=FIX.4.4|9=61|35=0|34=3|49=ALGOARBADR4|52=20150519-12:56:58.590|56=MDFHBLP|10=229|
20150519-12:57:58.590: 8=FIX.4.4|9=61|35=0|34=3|49=MDFHBLP|52=20150519-12:57:58.579|56=ALGOARBADR4|10=237|
20150519-12:57:58.591: 8=FIX.4.4|9=61|35=0|34=4|49=ALGOARBADR4|52=20150519-12:57:58.591|56=MDFHBLP|10=232|
20150519-12:58:58.593: 8=FIX.4.4|9=61|35=0|34=4|49=MDFHBLP|52=20150519-12:58:58.583|56=ALGOARBADR4|10=234|
20150519-12:58:58.594: 8=FIX.4.4|9=61|35=0|34=5|49=ALGOARBADR4|52=20150519-12:58:58.594|56=MDFHBLP|10=237|
20150519-12:59:58.594: 8=FIX.4.4|9=61|35=0|34=5|49=MDFHBLP|52=20150519-12:59:58.586|56=ALGOARBADR4|10=239|
20150519-12:59:58.595: 8=FIX.4.4|9=61|35=0|34=6|49=ALGOARBADR4|52=20150519-12:59:58.595|56=MDFHBLP|10=240|
20150519-13:01:24.366: 8=FIX.4.4|9=79|35=A|34=1|49=ALGOARBADR4|52=20150519-13:01:24.348|56=MDFHBLP|98=0|108=60|141=Y|10=055|
20150519-13:01:24.485: 8=FIX.4.4|9=79|35=A|34=1|49=MDFHBLP|52=20150519-13:01:24.455|56=ALGOARBADR4|98=0|108=60|141=Y|10=054|
20150519-13:01:24.663: 8=FIX.4.4|9=143|35=V|34=2|49=ALGOARBADR4|52=20150519-13:01:24.662|56=MDFHBLP|262=71010593cc924fc5|263=1|264=1|146=1|55=CLP DTTC CURNCY|267=3|269=0|269=1|269=5|10=044|
20150519-13:01:24.668: 8=FIX.4.4|9=169|35=W|34=2|49=MDFHBLP|52=20150519-13:01:24.662|56=ALGOARBADR4|55=CLP DTTC CURNCY|262=71010593cc924fc5|268=3|269=0|270=602.96|271=0|269=1|270=603.1|271=0|269=5|270=603.03|10=003|
20150519-13:01:25.116: 8=FIX.4.4|9=142|35=X|34=3|49=MDFHBLP|52=20150519-13:01:25.110|56=ALGOARBADR4|262=71010593cc924fc5|268=1|279=1|269=1|55=CLP DTTC CURNCY|270=603.05|271=0|290=1|10=006|
20150519-13:01:25.118: 8=FIX.4.4|9=136|35=X|34=4|49=MDFHBLP|52=20150519-13:01:25.112|56=ALGOARBADR4|262=71010593cc924fc5|268=1|279=1|269=5|55=CLP DTTC CURNCY|270=603.01|290=1|10=004|
20150519-13:01:27.380: 8=FIX.4.4|9=142|35=X|34=5|49=MDFHBLP|52=20150519-13:01:27.371|56=ALGOARBADR4|262=71010593cc924fc5|268=1|279=1|269=0|55=CLP DTTC CURNCY|270=602.95|271=0|290=1|10=026|
20150519-13:01:27.381: 8=FIX.4.4|9=139|35=X|34=6|49=MDFHBLP|52=20150519-13:01:27.376|56=ALGOARBADR4|262=71010593cc924fc5|268=1|279=1|269=1|55=CLP DTTC CURNCY|270=603|271=0|290=1|10=140|
20150519-13:01:27.383: 8=FIX.4.4|9=133|35=X|34=7|49=MDFHBLP|52=20150519-13:01:27.377|56=ALGOARBADR4|262=71010593cc924fc5|268=1|279=1|269=5|55=CLP DTTC CURNCY|270=603|290=1|10=132|
20150519-13:01:27.385: 8=FIX.4.4|9=136|35=X|34=8|49=MDFHBLP|52=20150519-13:01:27.379|56=ALGOARBADR4|262=71010593cc924fc5|268=1|279=1|269=5|55=CLP DTTC CURNCY|270=602.98|290=1|10=040|
20150519-13:01:29.194: 8=FIX.4.4|9=141|35=X|34=9|49=MDFHBLP|52=20150519-13:01:29.189|56=ALGOARBADR4|262=71010593cc924fc5|268=1|279=1|269=0|55=CLP DTTC CURNCY|270=602.9|271=0|290=1|10=241|
20150519-13:01:29.196: 8=FIX.4.4|9=137|35=X|34=10|49=MDFHBLP|52=20150519-13:01:29.191|56=ALGOARBADR4|262=71010593cc924fc5|268=1|279=1|269=5|55=CLP DTTC CURNCY|270=602.95|290=1|10=073|
20150519-13:01:34.348: 8=FIX.4.4|9=143|35=X|34=11|49=MDFHBLP|52=20150519-13:01:34.342|56=ALGOARBADR4|262=71010593cc924fc5|268=1|279=1|269=0|55=CLP DTTC CURNCY|270=602.92|271=0|290=1|10=065|
20150519-13:01:34.350: 8=FIX.4.4|9=137|35=X|34=12|49=MDFHBLP|52=20150519-13:01:34.343|56=ALGOARBADR4|262=71010593cc924fc5|268=1|279=1|269=5|55=CLP DTTC CURNCY|270=602.96|290=1|10=071|
20150519-13:01:35.236: 8=FIX.4.4|9=142|35=X|34=13|49=MDFHBLP|52=20150519-13:01:35.229|56=ALGOARBADR4|262=71010593cc924fc5|268=1|279=1|269=0|55=CLP DTTC CURNCY|270=602.9|271=0|290=1|10=021|
20150519-13:01:35.237: 8=FIX.4.4|9=137|35=X|34=14|49=MDFHBLP|52=20150519-13:01:35.231|56=ALGOARBADR4|262=71010593cc924fc5|268=1|279=1|269=5|55=CLP DTTC CURNCY|270=602.95|290=1|10=069|
20150519-13:01:35.404: 8=FIX.4.4|9=143|35=X|34=15|49=MDFHBLP|52=20150519-13:01:35.399|56=ALGOARBADR4|262=71010593cc924fc5|268=1|279=1|269=0|55=CLP DTTC CURNCY|270=602.85|271=0|290=1|10=084|
20150519-13:01:35.411: 8=FIX.4.4|9=137|35=X|34=16|49=MDFHBLP|52=20150519-13:01:35.401|56=ALGOARBADR4|262=71010593cc924fc5|268=1|279=1|269=5|55=CLP DTTC CURNCY|270=602.93|290=1|10=068|
20150519-13:01:36.586: 8=FIX.4.4|9=143|35=X|34=17|49=MDFHBLP|52=20150519-13:01:36.580|56=ALGOARBADR4|262=71010593cc924fc5|268=1|279=1|269=0|55=CLP DTTC CURNCY|270=602.89|271=0|290=1|10=083|
20150519-13:01:36.587: 8=FIX.4.4|9=137|35=X|34=18|49=MDFHBLP|52=20150519-13:01:36.581|56=ALGOARBADR4|262=71010593cc924fc5|268=1|279=1|269=5|55=CLP DTTC CURNCY|270=602.95|290=1|10=082|
20150519-13:01:39.882: 8=FIX.4.4|9=143|35=X|34=19|49=MDFHBLP|52=20150519-13:01:39.877|56=ALGOARBADR4|262=71010593cc924fc5|268=1|279=1|269=0|55=CLP DTTC CURNCY|270=602.85|271=0|290=1|10=093|
20150519-13:01:39.884: 8=FIX.4.4|9=137|35=X|34=20|49=MDFHBLP|52=20150519-13:01:39.879|56=ALGOARBADR4|262=71010593cc924fc5|268=1|279=1|269=5|55=CLP DTTC CURNCY|270=602.93|290=1|10=086|
20150519-13:01:42.233: 8=FIX.4.4|9=143|35=X|34=21|49=MDFHBLP|52=20150519-13:01:42.227|56=ALGOARBADR4|262=71010593cc924fc5|268=1|279=1|269=0|55=CLP DTTC CURNCY|270=602.86|271=0|290=1|10=070|
20150519-13:01:42.233: 8=FIX.4.4|9=137|35=X|34=22|49=MDFHBLP|52=20150519-13:01:42.228|56=ALGOARBADR4|262=71010593cc924fc5|268=1|279=1|269=5|55=CLP DTTC CURNCY|270=602.93|290=1|10=070|
20150519-13:01:45.600: 8=FIX.4.4|9=143|35=X|34=23|49=MDFHBLP|52=20150519-13:01:45.594|56=ALGOARBADR4|262=71010593cc924fc5|268=1|279=1|269=0|55=CLP DTTC CURNCY|270=602.85|271=0|290=1|10=081|
20150519-13:01:45.602: 8=FIX.4.4|9=137|35=X|34=24|49=MDFHBLP|52=20150519-13:01:45.597|56=ALGOARBADR4|262=71010593cc924fc5|268=1|279=1|269=5|55=CLP DTTC CURNCY|270=602.93|290=1|10=084|
20150519-13:01:45.902: 8=FIX.4.4|9=143|35=X|34=25|49=MDFHBLP|52=20150519-13:01:45.896|56=ALGOARBADR4|262=71010593cc924fc5|268=1|279=1|269=0|55=CLP DTTC CURNCY|270=602.81|271=0|290=1|10=084|
20150519-13:01:45.903: 8=FIX.4.4|9=137|35=X|34=26|49=MDFHBLP|52=20150519-13:01:45.898|56=ALGOARBADR4|262=71010593cc924fc5|268=1|279=1|269=5|55=CLP DTTC CURNCY|270=602.91|290=1|10=088|
20150519-13:01:47.058: 8=FIX.4.4|9=143|35=X|34=27|49=MDFHBLP|52=20150519-13:01:47.053|56=ALGOARBADR4|262=71010593cc924fc5|268=1|279=1|269=0|55=CLP DTTC CURNCY|270=602.57|271=0|290=1|10=076|
20150519-13:01:47.062: 8=FIX.4.4|9=137|35=X|34=28|49=MDFHBLP|52=20150519-13:01:47.054|56=ALGOARBADR4|262=71010593cc924fc5|268=1|279=1|269=5|55=CLP DTTC CURNCY|270=602.79|290=1|10=082|
20150519-13:01:49.401: 8=FIX.4.4|9=142|35=X|34=29|49=MDFHBLP|52=20150519-13:01:49.397|56=ALGOARBADR4|262=71010593cc924fc5|268=1|279=1|269=0|55=CLP DTTC CURNCY|270=602.6|271=0|290=1|10=036|
20150519-13:01:49.403: 8=FIX.4.4|9=136|35=X|34=30|49=MDFHBLP|52=20150519-13:01:49.398|56=ALGOARBADR4|262=71010593cc924fc5|268=1|279=1|269=5|55=CLP DTTC CURNCY|270=602.8|290=1|10=031|
20150519-13:01:50.709: 8=FIX.4.4|9=143|35=X|34=31|49=MDFHBLP|52=20150519-13:01:50.704|56=ALGOARBADR4|262=71010593cc924fc5|268=1|279=1|269=0|55=CLP DTTC CURNCY|270=602.57|271=0|290=1|10=068|
20150519-13:01:50.711: 8=FIX.4.4|9=137|35=X|34=32|49=MDFHBLP|52=20150519-13:01:50.706|56=ALGOARBADR4|262=71010593cc924fc5|268=1|279=1|269=5|55=CLP DTTC CURNCY|270=602.79|290=1|10=075|
20150519-13:02:00.177: 8=FIX.4.4|9=142|35=X|34=33|49=MDFHBLP|52=20150519-13:02:00.172|56=ALGOARBADR4|262=71010593cc924fc5|268=1|279=1|269=0|55=CLP DTTC CURNCY|270=602.6|271=0|290=1|10=010|
20150519-13:02:00.180: 8=FIX.4.4|9=136|35=X|34=34|49=MDFHBLP|52=20150519-13:02:00.175|56=ALGOARBADR4|262=71010593cc924fc5|268=1|279=1|269=5|55=CLP DTTC CURNCY|270=602.8|290=1|10=016|
20150519-13:02:05.123: 8=FIX.4.4|9=143|35=X|34=35|49=MDFHBLP|52=20150519-13:02:05.118|56=ALGOARBADR4|262=71010593cc924fc5|268=1|279=1|269=0|55=CLP DTTC CURNCY|270=602.61|271=0|290=1|10=067|
20150519-13:02:05.125: 8=FIX.4.4|9=136|35=X|34=36|49=MDFHBLP|52=20150519-13:02:05.119|56=ALGOARBADR4|262=71010593cc924fc5|268=1|279=1|269=5|55=CLP DTTC CURNCY|270=602.8|290=1|10=021|
20150519-13:02:11.863: 8=FIX.4.4|9=143|35=X|34=37|49=MDFHBLP|52=20150519-13:02:11.859|56=ALGOARBADR4|262=71010593cc924fc5|268=1|279=1|269=1|55=CLP DTTC CURNCY|270=603.05|271=0|290=1|10=078|
20150519-13:02:11.864: 8=FIX.4.4|9=137|35=X|34=38|49=MDFHBLP|52=20150519-13:02:11.860|56=ALGOARBADR4|262=71010593cc924fc5|268=1|279=1|269=5|55=CLP DTTC CURNCY|270=602.83|290=1|10=075|
20150519-13:02:12.345: 8=FIX.4.4|9=143|35=X|34=39|49=MDFHBLP|52=20150519-13:02:12.341|56=ALGOARBADR4|262=71010593cc924fc5|268=1|279=1|269=1|55=CLP DTTC CURNCY|270=602.99|271=0|290=1|10=079|
20150519-13:02:12.347: 8=FIX.4.4|9=136|35=X|34=40|49=MDFHBLP|52=20150519-13:02:12.342|56=ALGOARBADR4|262=71010593cc924fc5|268=1|279=1|269=5|55=CLP DTTC CURNCY|270=602.8|290=1|10=012|
20150519-13:02:13.954: 8=FIX.4.4|9=143|35=X|34=41|49=MDFHBLP|52=20150519-13:02:13.949|56=ALGOARBADR4|262=71010593cc924fc5|268=1|279=1|269=0|55=CLP DTTC CURNCY|270=602.62|271=0|290=1|10=076|
20150519-13:02:13.955: 8=FIX.4.4|9=136|35=X|34=42|49=MDFHBLP|52=20150519-13:02:13.950|56=ALGOARBADR4|262=71010593cc924fc5|268=1|279=1|269=5|55=CLP DTTC CURNCY|270=602.8|290=1|10=020|
20150519-13:02:15.500: 8=FIX.4.4|9=143|35=X|34=43|49=MDFHBLP|52=20150519-13:02:15.496|56=ALGOARBADR4|262=71010593cc924fc5|268=1|279=1|269=0|55=CLP DTTC CURNCY|270=602.65|271=0|290=1|10=080|
20150519-13:02:15.502: 8=FIX.4.4|9=137|35=X|34=44|49=MDFHBLP|52=20150519-13:02:15.497|56=ALGOARBADR4|262=71010593cc924fc5|268=1|279=1|269=5|55=CLP DTTC CURNCY|270=602.82|290=1|10=081|
20150519-13:02:18.414: 8=FIX.4.4|9=143|35=X|34=45|49=MDFHBLP|52=20150519-13:02:18.407|56=ALGOARBADR4|262=71010593cc924fc5|268=1|279=1|269=0|55=CLP DTTC CURNCY|270=602.66|271=0|290=1|10=078|
20150519-13:02:18.414: 8=FIX.4.4|9=137|35=X|34=46|49=MDFHBLP|52=20150519-13:02:18.409|56=ALGOARBADR4|262=71010593cc924fc5|268=1|279=1|269=5|55=CLP DTTC CURNCY|270=602.82|290=1|10=079|
20150519-13:02:19.346: 8=FIX.4.4|9=142|35=X|34=47|49=MDFHBLP|52=20150519-13:02:19.339|56=ALGOARBADR4|262=71010593cc924fc5|268=1|279=1|269=0|55=CLP DTTC CURNCY|270=602.7|271=0|290=1|10=031|
20150519-13:02:19.347: 8=FIX.4.4|9=137|35=X|34=48|49=MDFHBLP|52=20150519-13:02:19.340|56=ALGOARBADR4|262=71010593cc924fc5|268=1|279=1|269=5|55=CLP DTTC CURNCY|270=602.84|290=1|10=078|
20150519-13:02:23.609: 8=FIX.4.4|9=140|35=X|34=49|49=MDFHBLP|52=20150519-13:02:23.605|56=ALGOARBADR4|262=71010593cc924fc5|268=1|279=1|269=1|55=CLP DTTC CURNCY|270=603|271=0|290=1|10=179|
20150519-13:02:23.610: 8=FIX.4.4|9=137|35=X|34=50|49=MDFHBLP|52=20150519-13:02:23.606|56=ALGOARBADR4|262=71010593cc924fc5|268=1|279=1|269=5|55=CLP DTTC CURNCY|270=602.85|290=1|10=072|
20150519-13:02:25.311: 8=FIX.4.4|9=61|35=0|34=3|49=ALGOARBADR4|52=20150519-13:02:25.311|56=MDFHBLP|10=206|
20150519-13:02:26.111: 8=FIX.4.4|9=143|35=X|34=51|49=MDFHBLP|52=20150519-13:02:26.106|56=ALGOARBADR4|262=71010593cc924fc5|268=1|279=1|269=0|55=CLP DTTC CURNCY|270=602.72|271=0|290=1|10=067|
20150519-13:02:26.113: 8=FIX.4.4|9=137|35=X|34=52|49=MDFHBLP|52=20150519-13:02:26.108|56=ALGOARBADR4|262=71010593cc924fc5|268=1|279=1|269=5|55=CLP DTTC CURNCY|270=602.86|290=1|10=075|
20150519-13:02:28.739: 8=FIX.4.4|9=143|35=X|34=53|49=MDFHBLP|52=20150519-13:02:28.734|56=ALGOARBADR4|262=71010593cc924fc5|268=1|279=1|269=1|55=CLP DTTC CURNCY|270=602.95|271=0|290=1|10=084|
20150519-13:02:28.739: 8=FIX.4.4|9=137|35=X|34=54|49=MDFHBLP|52=20150519-13:02:28.735|56=ALGOARBADR4|262=71010593cc924fc5|268=1|279=1|269=5|55=CLP DTTC CURNCY|270=602.83|290=1|10=082|
20150519-13:02:43.436: 8=FIX.4.4|9=140|35=X|34=55|49=MDFHBLP|52=20150519-13:02:43.432|56=ALGOARBADR4|262=71010593cc924fc5|268=1|279=1|269=1|55=CLP DTTC CURNCY|270=603|271=0|290=1|10=176|
20150519-13:02:43.438: 8=FIX.4.4|9=137|35=X|34=56|49=MDFHBLP|52=20150519-13:02:43.433|56=ALGOARBADR4|262=71010593cc924fc5|268=1|279=1|269=5|55=CLP DTTC CURNCY|270=602.86|290=1|10=079|
20150519-13:02:45.156: 8=FIX.4.4|9=142|35=X|34=57|49=MDFHBLP|52=20150519-13:02:45.152|56=ALGOARBADR4|262=71010593cc924fc5|268=1|279=1|269=0|55=CLP DTTC CURNCY|270=602.8|271=0|290=1|10=025|
20150519-13:02:45.159: 8=FIX.4.4|9=136|35=X|34=58|49=MDFHBLP|52=20150519-13:02:45.154|56=ALGOARBADR4|262=71010593cc924fc5|268=1|279=1|269=5|55=CLP DTTC CURNCY|270=602.9|290=1|10=029|
20150519-13:02:45.809: 8=FIX.4.4|9=143|35=X|34=59|49=MDFHBLP|52=20150519-13:02:45.805|56=ALGOARBADR4|262=71010593cc924fc5|268=1|279=1|269=0|55=CLP DTTC CURNCY|270=602.72|271=0|290=1|10=082|
20150519-13:02:45.811: 8=FIX.4.4|9=137|35=X|34=60|49=MDFHBLP|52=20150519-13:02:45.806|56=ALGOARBADR4|262=71010593cc924fc5|268=1|279=1|269=5|55=CLP DTTC CURNCY|270=602.86|290=1|10=080|
20150519-13:02:46.100: 8=FIX.4.4|9=142|35=X|34=61|49=MDFHBLP|52=20150519-13:02:46.096|56=ALGOARBADR4|262=71010593cc924fc5|268=1|279=1|269=0|55=CLP DTTC CURNCY|270=602.7|271=0|290=1|10=027|
20150519-13:02:46.101: 8=FIX.4.4|9=137|35=X|34=62|49=MDFHBLP|52=20150519-13:02:46.097|56=ALGOARBADR4|262=71010593cc924fc5|268=1|279=1|269=5|55=CLP DTTC CURNCY|270=602.85|290=1|10=084|
20150519-13:02:46.830: 8=FIX.4.4|9=143|35=X|34=63|49=MDFHBLP|52=20150519-13:02:46.826|56=ALGOARBADR4|262=71010593cc924fc5|268=1|279=1|269=0|55=CLP DTTC CURNCY|270=602.64|271=0|290=1|10=082|
20150519-13:02:46.832: 8=FIX.4.4|9=137|35=X|34=64|49=MDFHBLP|52=20150519-13:02:46.828|56=ALGOARBADR4|262=71010593cc924fc5|268=1|279=1|269=5|55=CLP DTTC CURNCY|270=602.82|290=1|10=085|
20150519-13:02:47.123: 8=FIX.4.4|9=143|35=X|34=65|49=MDFHBLP|52=20150519-13:02:47.119|56=ALGOARBADR4|262=71010593cc924fc5|268=1|279=1|269=0|55=CLP DTTC CURNCY|270=602.62|271=0|290=1|10=078|
20150519-13:02:47.124: 8=FIX.4.4|9=137|35=X|34=66|49=MDFHBLP|52=20150519-13:02:47.120|56=ALGOARBADR4|262=71010593cc924fc5|268=1|279=1|269=5|55=CLP DTTC CURNCY|270=602.81|290=1|10=072|
20150519-13:02:47.268: 8=FIX.4.4|9=143|35=X|34=67|49=MDFHBLP|52=20150519-13:02:47.264|56=ALGOARBADR4|262=71010593cc924fc5|268=1|279=1|269=0|55=CLP DTTC CURNCY|270=602.61|271=0|290=1|10=080|
20150519-13:02:47.269: 8=FIX.4.4|9=136|35=X|34=68|49=MDFHBLP|52=20150519-13:02:47.265|56=ALGOARBADR4|262=71010593cc924fc5|268=1|279=1|269=5|55=CLP DTTC CURNCY|270=602.8|290=1|10=034|
20150519-13:02:47.561: 8=FIX.4.4|9=143|35=X|34=69|49=MDFHBLP|52=20150519-13:02:47.557|56=ALGOARBADR4|262=71010593cc924fc5|268=1|279=1|269=0|55=CLP DTTC CURNCY|270=602.66|271=0|290=1|10=092|
20150519-13:02:47.563: 8=FIX.4.4|9=137|35=X|34=70|49=MDFHBLP|52=20150519-13:02:47.560|56=ALGOARBADR4|262=71010593cc924fc5|268=1|279=1|269=5|55=CLP DTTC CURNCY|270=602.83|290=1|10=077|
20150519-13:02:48.800: 8=FIX.4.4|9=143|35=X|34=71|49=MDFHBLP|52=20150519-13:02:48.796|56=ALGOARBADR4|262=71010593cc924fc5|268=1|279=1|269=0|55=CLP DTTC CURNCY|270=602.61|271=0|290=1|10=086|
20150519-13:02:48.802: 8=FIX.4.4|9=136|35=X|34=72|49=MDFHBLP|52=20150519-13:02:48.798|56=ALGOARBADR4|262=71010593cc924fc5|268=1|279=1|269=5|55=CLP DTTC CURNCY|270=602.8|290=1|10=041|
20150519-13:02:49.174: 8=FIX.4.4|9=143|35=X|34=73|49=MDFHBLP|52=20150519-13:02:49.171|56=ALGOARBADR4|262=71010593cc924fc5|268=1|279=1|269=0|55=CLP DTTC CURNCY|270=602.65|271=0|290=1|10=080|
20150519-13:02:49.176: 8=FIX.4.4|9=137|35=X|34=74|49=MDFHBLP|52=20150519-13:02:49.172|56=ALGOARBADR4|262=71010593cc924fc5|268=1|279=1|269=5|55=CLP DTTC CURNCY|270=602.82|290=1|10=081|
20150519-13:02:49.961: 8=FIX.4.4|9=143|35=X|34=75|49=MDFHBLP|52=20150519-13:02:49.957|56=ALGOARBADR4|262=71010593cc924fc5|268=1|279=1|269=0|55=CLP DTTC CURNCY|270=602.62|271=0|290=1|10=091|
20150519-13:02:49.961: 8=FIX.4.4|9=137|35=X|34=76|49=MDFHBLP|52=20150519-13:02:49.958|56=ALGOARBADR4|262=71010593cc924fc5|268=1|279=1|269=5|55=CLP DTTC CURNCY|270=602.81|290=1|10=094|
20150519-13:02:49.963: 8=FIX.4.4|9=143|35=X|34=77|49=MDFHBLP|52=20150519-13:02:49.959|56=ALGOARBADR4|262=71010593cc924fc5|268=1|279=1|269=0|55=CLP DTTC CURNCY|270=602.62|271=0|290=1|10=095|
20150519-13:02:49.963: 8=FIX.4.4|9=137|35=X|34=78|49=MDFHBLP|52=20150519-13:02:49.960|56=ALGOARBADR4|262=71010593cc924fc5|268=1|279=1|269=5|55=CLP DTTC CURNCY|270=602.81|290=1|10=089|
20150519-13:02:50.103: 8=FIX.4.4|9=143|35=X|34=79|49=MDFHBLP|52=20150519-13:02:50.100|56=ALGOARBADR4|262=71010593cc924fc5|268=1|279=1|269=0|55=CLP DTTC CURNCY|270=602.61|271=0|290=1|10=066|
20150519-13:02:50.104: 8=FIX.4.4|9=136|35=X|34=80|49=MDFHBLP|52=20150519-13:02:50.101|56=ALGOARBADR4|262=71010593cc924fc5|268=1|279=1|269=5|55=CLP DTTC CURNCY|270=602.8|290=1|10=011|
20150519-13:02:52.409: 8=FIX.4.4|9=142|35=X|34=81|49=MDFHBLP|52=20150519-13:02:52.406|56=ALGOARBADR4|262=71010593cc924fc5|268=1|279=1|269=0|55=CLP DTTC CURNCY|270=602.6|271=0|290=1|10=020|
20150519-13:02:52.411: 8=FIX.4.4|9=136|35=X|34=82|49=MDFHBLP|52=20150519-13:02:52.408|56=ALGOARBADR4|262=71010593cc924fc5|268=1|279=1|269=5|55=CLP DTTC CURNCY|270=602.8|290=1|10=025|
20150519-13:03:03.256: 8=FIX.4.4|9=143|35=X|34=83|49=MDFHBLP|52=20150519-13:03:03.252|56=ALGOARBADR4|262=71010593cc924fc5|268=1|279=1|269=0|55=CLP DTTC CURNCY|270=602.61|271=0|290=1|10=068|
20150519-13:03:03.257: 8=FIX.4.4|9=136|35=X|34=84|49=MDFHBLP|52=20150519-13:03:03.254|56=ALGOARBADR4|262=71010593cc924fc5|268=1|279=1|269=5|55=CLP DTTC CURNCY|270=602.8|290=1|10=023|
20150519-13:03:04.116: 8=FIX.4.4|9=142|35=X|34=85|49=MDFHBLP|52=20150519-13:03:04.112|56=ALGOARBADR4|262=71010593cc924fc5|268=1|279=1|269=1|55=CLP DTTC CURNCY|270=602.9|271=0|290=1|10=020|
20150519-13:03:04.117: 8=FIX.4.4|9=137|35=X|34=86|49=MDFHBLP|52=20150519-13:03:04.114|56=ALGOARBADR4|262=71010593cc924fc5|268=1|279=1|269=5|55=CLP DTTC CURNCY|270=602.76|290=1|10=075|
20150519-13:03:13.716: 8=FIX.4.4|9=143|35=X|34=87|49=MDFHBLP|52=20150519-13:03:13.713|56=ALGOARBADR4|262=71010593cc924fc5|268=1|279=1|269=1|55=CLP DTTC CURNCY|270=602.85|271=0|290=1|10=082|
20150519-13:03:13.716: 8=FIX.4.4|9=137|35=X|34=88|49=MDFHBLP|52=20150519-13:03:13.713|56=ALGOARBADR4|262=71010593cc924fc5|268=1|279=1|269=5|55=CLP DTTC CURNCY|270=602.73|290=1|10=079|
20150519-13:03:15.674: 8=FIX.4.4|9=142|35=X|34=89|49=MDFHBLP|52=20150519-13:03:15.669|56=ALGOARBADR4|262=71010593cc924fc5|268=1|279=1|269=1|55=CLP DTTC CURNCY|270=602.8|271=0|290=1|10=042|
20150519-13:03:15.675: 8=FIX.4.4|9=137|35=X|34=90|49=MDFHBLP|52=20150519-13:03:15.670|56=ALGOARBADR4|262=71010593cc924fc5|268=1|279=1|269=5|55=CLP DTTC CURNCY|270=602.71|290=1|10=074|
20150519-13:03:19.032: 8=FIX.4.4|9=143|35=X|34=91|49=MDFHBLP|52=20150519-13:03:19.030|56=ALGOARBADR4|262=71010593cc924fc5|268=1|279=1|269=1|55=CLP DTTC CURNCY|270=602.75|271=0|290=1|10=074|
20150519-13:03:19.034: 8=FIX.4.4|9=137|35=X|34=92|49=MDFHBLP|52=20150519-13:03:19.031|56=ALGOARBADR4|262=71010593cc924fc5|268=1|279=1|269=5|55=CLP DTTC CURNCY|270=602.68|290=1|10=077|
20150519-13:03:20.706: 8=FIX.4.4|9=143|35=X|34=93|49=MDFHBLP|52=20150519-13:03:20.703|56=ALGOARBADR4|262=71010593cc924fc5|268=1|279=1|269=0|55=CLP DTTC CURNCY|270=602.65|271=0|290=1|10=073|
20150519-13:03:20.708: 8=FIX.4.4|9=136|35=X|34=94|49=MDFHBLP|52=20150519-13:03:20.705|56=ALGOARBADR4|262=71010593cc924fc5|268=1|279=1|269=5|55=CLP DTTC CURNCY|270=602.7|290=1|10=023|
20150519-13:03:21.954: 8=FIX.4.4|9=143|35=X|34=95|49=MDFHBLP|52=20150519-13:03:21.950|56=ALGOARBADR4|262=71010593cc924fc5|268=1|279=1|269=0|55=CLP DTTC CURNCY|270=602.61|271=0|290=1|10=076|
20150519-13:03:21.956: 8=FIX.4.4|9=137|35=X|34=96|49=MDFHBLP|52=20150519-13:03:21.952|56=ALGOARBADR4|262=71010593cc924fc5|268=1|279=1|269=5|55=CLP DTTC CURNCY|270=602.68|290=1|10=086|
20150519-13:03:23.571: 8=FIX.4.4|9=142|35=X|34=97|49=MDFHBLP|52=20150519-13:03:23.568|56=ALGOARBADR4|262=71010593cc924fc5|268=1|279=1|269=0|55=CLP DTTC CURNCY|270=602.6|271=0|290=1|10=035|
20150519-13:03:23.572: 8=FIX.4.4|9=137|35=X|34=98|49=MDFHBLP|52=20150519-13:03:23.570|56=ALGOARBADR4|262=71010593cc924fc5|268=1|279=1|269=5|55=CLP DTTC CURNCY|270=602.68|290=1|10=086|
20150519-13:03:24.959: 8=FIX.4.4|9=143|35=X|34=99|49=MDFHBLP|52=20150519-13:03:24.956|56=ALGOARBADR4|262=71010593cc924fc5|268=1|279=1|269=0|55=CLP DTTC CURNCY|270=602.65|271=0|290=1|10=093|
20150519-13:03:24.960: 8=FIX.4.4|9=144|35=X|34=100|49=MDFHBLP|52=20150519-13:03:24.957|56=ALGOARBADR4|262=71010593cc924fc5|268=1|279=1|269=0|55=CLP DTTC CURNCY|270=602.65|271=0|290=1|10=126|
20150519-13:03:24.961: 8=FIX.4.4|9=138|35=X|34=101|49=MDFHBLP|52=20150519-13:03:24.959|56=ALGOARBADR4|262=71010593cc924fc5|268=1|279=1|269=5|55=CLP DTTC CURNCY|270=602.68|290=1|10=132|
20150519-13:03:24.964: 8=FIX.4.4|9=137|35=X|34=102|49=MDFHBLP|52=20150519-13:03:24.961|56=ALGOARBADR4|262=71010593cc924fc5|268=1|279=1|269=5|55=CLP DTTC CURNCY|270=602.7|290=1|10=070|
20150519-13:03:25.312: 8=FIX.4.4|9=61|35=0|34=4|49=ALGOARBADR4|52=20150519-13:03:25.312|56=MDFHBLP|10=209|
20150519-13:03:26.105: 8=FIX.4.4|9=144|35=X|34=103|49=MDFHBLP|52=20150519-13:03:26.102|56=ALGOARBADR4|262=71010593cc924fc5|268=1|279=1|269=0|55=CLP DTTC CURNCY|270=602.61|271=0|290=1|10=109|
20150519-13:03:26.107: 8=FIX.4.4|9=138|35=X|34=104|49=MDFHBLP|52=20150519-13:03:26.104|56=ALGOARBADR4|262=71010593cc924fc5|268=1|279=1|269=5|55=CLP DTTC CURNCY|270=602.68|290=1|10=119|
20150519-13:03:26.251: 8=FIX.4.4|9=143|35=X|34=105|49=MDFHBLP|52=20150519-13:03:26.248|56=ALGOARBADR4|262=71010593cc924fc5|268=1|279=1|269=0|55=CLP DTTC CURNCY|270=602.6|271=0|290=1|10=072|
20150519-13:03:26.253: 8=FIX.4.4|9=138|35=X|34=106|49=MDFHBLP|52=20150519-13:03:26.249|56=ALGOARBADR4|262=71010593cc924fc5|268=1|279=1|269=5|55=CLP DTTC CURNCY|270=602.68|290=1|10=131|
20150519-13:03:35.774: 8=FIX.4.4|9=144|35=X|34=107|49=MDFHBLP|52=20150519-13:03:35.771|56=ALGOARBADR4|262=71010593cc924fc5|268=1|279=1|269=0|55=CLP DTTC CURNCY|270=602.55|271=0|290=1|10=128|
20150519-13:03:35.776: 8=FIX.4.4|9=138|35=X|34=108|49=MDFHBLP|52=20150519-13:03:35.772|56=ALGOARBADR4|262=71010593cc924fc5|268=1|279=1|269=5|55=CLP DTTC CURNCY|270=602.65|290=1|10=131|
20150519-13:03:36.070: 8=FIX.4.4|9=143|35=X|34=109|49=MDFHBLP|52=20150519-13:03:36.068|56=ALGOARBADR4|262=71010593cc924fc5|268=1|279=1|269=0|55=CLP DTTC CURNCY|270=602.5|271=0|290=1|10=076|
20150519-13:03:36.072: 8=FIX.4.4|9=138|35=X|34=110|49=MDFHBLP|52=20150519-13:03:36.069|56=ALGOARBADR4|262=71010593cc924fc5|268=1|279=1|269=5|55=CLP DTTC CURNCY|270=602.63|290=1|10=122|
20150519-13:03:36.358: 8=FIX.4.4|9=144|35=X|34=111|49=MDFHBLP|52=20150519-13:03:36.356|56=ALGOARBADR4|262=71010593cc924fc5|268=1|279=1|269=0|55=CLP DTTC CURNCY|270=602.65|271=0|290=1|10=124|
20150519-13:03:36.361: 8=FIX.4.4|9=137|35=X|34=112|49=MDFHBLP|52=20150519-13:03:36.357|56=ALGOARBADR4|262=71010593cc924fc5|268=1|279=1|269=5|55=CLP DTTC CURNCY|270=602.7|290=1|10=073|
20150519-13:03:36.650: 8=FIX.4.4|9=143|35=X|34=113|49=MDFHBLP|52=20150519-13:03:36.647|56=ALGOARBADR4|262=71010593cc924fc5|268=1|279=1|269=0|55=CLP DTTC CURNCY|270=602.5|271=0|290=1|10=074|
20150519-13:03:36.651: 8=FIX.4.4|9=138|35=X|34=114|49=MDFHBLP|52=20150519-13:03:36.648|56=ALGOARBADR4|262=71010593cc924fc5|268=1|279=1|269=5|55=CLP DTTC CURNCY|270=602.63|290=1|10=129|
20150519-13:03:46.179: 8=FIX.4.4|9=143|35=X|34=115|49=MDFHBLP|52=20150519-13:03:46.176|56=ALGOARBADR4|262=71010593cc924fc5|268=1|279=1|269=0|55=CLP DTTC CURNCY|270=602.6|271=0|290=1|10=075|
20150519-13:03:46.181: 8=FIX.4.4|9=143|35=X|34=116|49=MDFHBLP|52=20150519-13:03:46.179|56=ALGOARBADR4|262=71010593cc924fc5|268=1|279=1|269=1|55=CLP DTTC CURNCY|270=602.9|271=0|290=1|10=083|
20150519-13:03:46.182: 8=FIX.4.4|9=138|35=X|34=117|49=MDFHBLP|52=20150519-13:03:46.180|56=ALGOARBADR4|262=71010593cc924fc5|268=1|279=1|269=5|55=CLP DTTC CURNCY|270=602.68|290=1|10=129|
20150519-13:03:46.184: 8=FIX.4.4|9=138|35=X|34=118|49=MDFHBLP|52=20150519-13:03:46.182|56=ALGOARBADR4|262=71010593cc924fc5|268=1|279=1|269=5|55=CLP DTTC CURNCY|270=602.75|290=1|10=130|
20150519-13:03:47.128: 8=FIX.4.4|9=144|35=X|34=119|49=MDFHBLP|52=20150519-13:03:47.126|56=ALGOARBADR4|262=71010593cc924fc5|268=1|279=1|269=0|55=CLP DTTC CURNCY|270=602.62|271=0|290=1|10=126|
20150519-13:03:47.130: 8=FIX.4.4|9=138|35=X|34=120|49=MDFHBLP|52=20150519-13:03:47.127|56=ALGOARBADR4|262=71010593cc924fc5|268=1|279=1|269=5|55=CLP DTTC CURNCY|270=602.76|290=1|10=124|
20150519-13:03:53.106: 8=FIX.4.4|9=144|35=X|34=121|49=MDFHBLP|52=20150519-13:03:53.102|56=ALGOARBADR4|262=71010593cc924fc5|268=1|279=1|269=0|55=CLP DTTC CURNCY|270=602.65|271=0|290=1|10=113|
20150519-13:03:53.106: 8=FIX.4.4|9=143|35=X|34=122|49=MDFHBLP|52=20150519-13:03:53.104|56=ALGOARBADR4|262=71010593cc924fc5|268=1|279=1|269=1|55=CLP DTTC CURNCY|270=602.8|271=0|290=1|10=065|
20150519-13:03:53.110: 8=FIX.4.4|9=138|35=X|34=123|49=MDFHBLP|52=20150519-13:03:53.106|56=ALGOARBADR4|262=71010593cc924fc5|268=1|279=1|269=5|55=CLP DTTC CURNCY|270=602.78|290=1|10=123|
20150519-13:03:53.110: 8=FIX.4.4|9=138|35=X|34=124|49=MDFHBLP|52=20150519-13:03:53.108|56=ALGOARBADR4|262=71010593cc924fc5|268=1|279=1|269=5|55=CLP DTTC CURNCY|270=602.73|290=1|10=121|
20150519-13:03:53.547: 8=FIX.4.4|9=144|35=X|34=125|49=MDFHBLP|52=20150519-13:03:53.545|56=ALGOARBADR4|262=71010593cc924fc5|268=1|279=1|269=1|55=CLP DTTC CURNCY|270=602.75|271=0|290=1|10=130|
20150519-13:03:53.548: 8=FIX.4.4|9=137|35=X|34=126|49=MDFHBLP|52=20150519-13:03:53.546|56=ALGOARBADR4|262=71010593cc924fc5|268=1|279=1|269=5|55=CLP DTTC CURNCY|270=602.7|290=1|10=077|
20150519-13:03:55.766: 8=FIX.4.4|9=144|35=X|34=127|49=MDFHBLP|52=20150519-13:03:55.764|56=ALGOARBADR4|262=71010593cc924fc5|268=1|279=1|269=0|55=CLP DTTC CURNCY|270=602.62|271=0|290=1|10=132|
20150519-13:03:55.767: 8=FIX.4.4|9=138|35=X|34=128|49=MDFHBLP|52=20150519-13:03:55.765|56=ALGOARBADR4|262=71010593cc924fc5|268=1|279=1|269=5|55=CLP DTTC CURNCY|270=602.69|290=1|10=141|
20150519-13:03:59.067: 8=FIX.4.4|9=144|35=X|34=129|49=MDFHBLP|52=20150519-13:03:59.066|56=ALGOARBADR4|262=71010593cc924fc5|268=1|279=1|269=0|55=CLP DTTC CURNCY|270=602.63|271=0|290=1|10=134|
20150519-13:03:59.069: 8=FIX.4.4|9=138|35=X|34=130|49=MDFHBLP|52=20150519-13:03:59.068|56=ALGOARBADR4|262=71010593cc924fc5|268=1|279=1|269=5|55=CLP DTTC CURNCY|270=602.69|290=1|10=134|
20150519-13:04:04.097: 8=FIX.4.4|9=144|35=X|34=131|49=MDFHBLP|52=20150519-13:04:04.095|56=ALGOARBADR4|262=71010593cc924fc5|268=1|279=1|269=0|55=CLP DTTC CURNCY|270=602.64|271=0|290=1|10=121|
20150519-13:04:04.098: 8=FIX.4.4|9=137|35=X|34=132|49=MDFHBLP|52=20150519-13:04:04.097|56=ALGOARBADR4|262=71010593cc924fc5|268=1|279=1|269=5|55=CLP DTTC CURNCY|270=602.7|290=1|10=072|
20150519-13:04:07.117: 8=FIX.4.4|9=138|35=X|34=133|49=MDFHBLP|52=20150519-13:04:07.115|56=ALGOARBADR4|262=71010593cc924fc5|268=1|279=1|269=5|55=CLP DTTC CURNCY|270=602.69|290=1|10=124|
20150519-13:04:07.118: 8=FIX.4.4|9=144|35=X|34=134|49=MDFHBLP|52=20150519-13:04:07.116|56=ALGOARBADR4|262=71010593cc924fc5|268=1|279=1|269=0|55=CLP DTTC CURNCY|270=602.63|271=0|290=1|10=120|
20150519-13:04:17.714: 8=FIX.4.4|9=144|35=X|34=135|49=MDFHBLP|52=20150519-13:04:17.711|56=ALGOARBADR4|262=71010593cc924fc5|268=1|279=1|269=1|55=CLP DTTC CURNCY|270=602.74|271=0|290=1|10=126|
20150519-13:04:17.716: 8=FIX.4.4|9=138|35=X|34=136|49=MDFHBLP|52=20150519-13:04:17.714|56=ALGOARBADR4|262=71010593cc924fc5|268=1|279=1|269=5|55=CLP DTTC CURNCY|270=602.69|290=1|10=133|
20150519-13:04:19.865: 8=FIX.4.4|9=143|35=X|34=137|49=MDFHBLP|52=20150519-13:04:19.864|56=ALGOARBADR4|262=71010593cc924fc5|268=1|279=1|269=1|55=CLP DTTC CURNCY|270=602.7|271=0|290=1|10=086|
20150519-13:04:19.866: 8=FIX.4.4|9=138|35=X|34=138|49=MDFHBLP|52=20150519-13:04:19.865|56=ALGOARBADR4|262=71010593cc924fc5|268=1|279=1|269=5|55=CLP DTTC CURNCY|270=602.67|290=1|10=142|
20150519-13:04:24.567: 8=FIX.4.4|9=144|35=X|34=139|49=MDFHBLP|52=20150519-13:04:24.565|56=ALGOARBADR4|262=71010593cc924fc5|268=1|279=1|269=1|55=CLP DTTC CURNCY|270=602.65|271=0|290=1|10=135|
20150519-13:04:24.568: 8=FIX.4.4|9=138|35=X|34=140|49=MDFHBLP|52=20150519-13:04:24.567|56=ALGOARBADR4|262=71010593cc924fc5|268=1|279=1|269=5|55=CLP DTTC CURNCY|270=602.64|290=1|10=127|
20150519-13:04:25.312: 8=FIX.4.4|9=61|35=0|34=5|49=ALGOARBADR4|52=20150519-13:04:25.312|56=MDFHBLP|10=211|
20150519-13:04:27.593: 8=FIX.4.4|9=144|35=X|34=141|49=MDFHBLP|52=20150519-13:04:27.591|56=ALGOARBADR4|262=71010593cc924fc5|268=1|279=1|269=0|55=CLP DTTC CURNCY|270=602.62|271=0|290=1|10=126|
20150519-13:04:27.594: 8=FIX.4.4|9=138|35=X|34=142|49=MDFHBLP|52=20150519-13:04:27.592|56=ALGOARBADR4|262=71010593cc924fc5|268=1|279=1|269=5|55=CLP DTTC CURNCY|270=602.66|290=1|10=132|
20150519-13:04:27.596: 8=FIX.4.4|9=143|35=X|34=143|49=MDFHBLP|52=20150519-13:04:27.593|56=ALGOARBADR4|262=71010593cc924fc5|268=1|279=1|269=1|55=CLP DTTC CURNCY|270=602.7|271=0|290=1|10=081|
20150519-13:04:27.596: 8=FIX.4.4|9=138|35=X|34=144|49=MDFHBLP|52=20150519-13:04:27.595|56=ALGOARBADR4|262=71010593cc924fc5|268=1|279=1|269=5|55=CLP DTTC CURNCY|270=602.66|290=1|10=137|
20150519-13:04:27.741: 8=FIX.4.4|9=143|35=X|34=145|49=MDFHBLP|52=20150519-13:04:27.739|56=ALGOARBADR4|262=71010593cc924fc5|268=1|279=1|269=0|55=CLP DTTC CURNCY|270=602.6|271=0|290=1|10=083|
20150519-13:04:27.742: 8=FIX.4.4|9=138|35=X|34=146|49=MDFHBLP|52=20150519-13:04:27.741|56=ALGOARBADR4|262=71010593cc924fc5|268=1|279=1|269=5|55=CLP DTTC CURNCY|270=602.65|290=1|10=131|
20150519-13:04:28.124: 8=FIX.4.4|9=144|35=X|34=147|49=MDFHBLP|52=20150519-13:04:28.123|56=ALGOARBADR4|262=71010593cc924fc5|268=1|279=1|269=0|55=CLP DTTC CURNCY|270=602.55|271=0|290=1|10=126|
20150519-13:04:28.126: 8=FIX.4.4|9=138|35=X|34=148|49=MDFHBLP|52=20150519-13:04:28.124|56=ALGOARBADR4|262=71010593cc924fc5|268=1|279=1|269=5|55=CLP DTTC CURNCY|270=602.63|290=1|10=127|
20150519-13:04:32.570: 8=FIX.4.4|9=144|35=X|34=149|49=MDFHBLP|52=20150519-13:04:32.569|56=ALGOARBADR4|262=71010593cc924fc5|268=1|279=1|269=1|55=CLP DTTC CURNCY|270=602.65|271=0|290=1|10=139|
20150519-13:04:32.572: 8=FIX.4.4|9=137|35=X|34=150|49=MDFHBLP|52=20150519-13:04:32.571|56=ALGOARBADR4|262=71010593cc924fc5|268=1|279=1|269=5|55=CLP DTTC CURNCY|270=602.6|290=1|10=069|
20150519-13:04:34.301: 8=FIX.4.4|9=144|35=X|34=151|49=MDFHBLP|52=20150519-13:04:34.300|56=ALGOARBADR4|262=71010593cc924fc5|268=1|279=1|269=1|55=CLP DTTC CURNCY|270=602.75|271=0|290=1|10=118|
20150519-13:04:34.304: 8=FIX.4.4|9=138|35=X|34=152|49=MDFHBLP|52=20150519-13:04:34.301|56=ALGOARBADR4|262=71010593cc924fc5|268=1|279=1|269=5|55=CLP DTTC CURNCY|270=602.65|290=1|10=118|
20150519-13:04:34.956: 8=FIX.4.4|9=143|35=X|34=153|49=MDFHBLP|52=20150519-13:04:34.953|56=ALGOARBADR4|262=71010593cc924fc5|268=1|279=1|269=0|55=CLP DTTC CURNCY|270=602.6|271=0|290=1|10=078|
20150519-13:04:34.957: 8=FIX.4.4|9=138|35=X|34=154|49=MDFHBLP|52=20150519-13:04:34.955|56=ALGOARBADR4|262=71010593cc924fc5|268=1|279=1|269=5|55=CLP DTTC CURNCY|270=602.68|290=1|10=138|
20150519-13:04:35.256: 8=FIX.4.4|9=144|35=X|34=155|49=MDFHBLP|52=20150519-13:04:35.252|56=ALGOARBADR4|262=71010593cc924fc5|268=1|279=1|269=0|55=CLP DTTC CURNCY|270=602.55|271=0|290=1|10=126|
20150519-13:04:35.256: 8=FIX.4.4|9=138|35=X|34=156|49=MDFHBLP|52=20150519-13:04:35.255|56=ALGOARBADR4|262=71010593cc924fc5|268=1|279=1|269=5|55=CLP DTTC CURNCY|270=602.65|290=1|10=131|
20150519-13:04:37.930: 8=FIX.4.4|9=143|35=X|34=157|49=MDFHBLP|52=20150519-13:04:37.929|56=ALGOARBADR4|262=71010593cc924fc5|268=1|279=1|269=1|55=CLP DTTC CURNCY|270=602.7|271=0|290=1|10=090|
20150519-13:04:37.931: 8=FIX.4.4|9=138|35=X|34=158|49=MDFHBLP|52=20150519-13:04:37.930|56=ALGOARBADR4|262=71010593cc924fc5|268=1|279=1|269=5|55=CLP DTTC CURNCY|270=602.63|290=1|10=133|
20150519-13:04:39.376: 8=FIX.4.4|9=143|35=X|34=159|49=MDFHBLP|52=20150519-13:04:39.376|56=ALGOARBADR4|262=71010593cc924fc5|268=1|279=1|269=0|55=CLP DTTC CURNCY|270=602.6|271=0|290=1|10=088|
20150519-13:04:39.380: 8=FIX.4.4|9=138|35=X|34=160|49=MDFHBLP|52=20150519-13:04:39.377|56=ALGOARBADR4|262=71010593cc924fc5|268=1|279=1|269=5|55=CLP DTTC CURNCY|270=602.65|290=1|10=135|
20150519-13:04:46.094: 8=FIX.4.4|9=143|35=X|34=161|49=MDFHBLP|52=20150519-13:04:46.093|56=ALGOARBADR4|262=71010593cc924fc5|268=1|279=1|269=1|55=CLP DTTC CURNCY|270=602.9|271=0|290=1|10=079|
20150519-13:04:46.095: 8=FIX.4.4|9=138|35=X|34=162|49=MDFHBLP|52=20150519-13:04:46.094|56=ALGOARBADR4|262=71010593cc924fc5|268=1|279=1|269=5|55=CLP DTTC CURNCY|270=602.75|290=1|10=132|
20150519-13:04:48.004: 8=FIX.4.4|9=143|35=X|34=163|49=MDFHBLP|52=20150519-13:04:48.003|56=ALGOARBADR4|262=71010593cc924fc5|268=1|279=1|269=1|55=CLP DTTC CURNCY|270=602.7|271=0|290=1|10=072|
20150519-13:04:48.005: 8=FIX.4.4|9=138|35=X|34=164|49=MDFHBLP|52=20150519-13:04:48.004|56=ALGOARBADR4|262=71010593cc924fc5|268=1|279=1|269=5|55=CLP DTTC CURNCY|270=602.65|290=1|10=126|
20150519-13:04:51.499: 8=FIX.4.4|9=144|35=X|34=165|49=MDFHBLP|52=20150519-13:04:51.499|56=ALGOARBADR4|262=71010593cc924fc5|268=1|279=1|269=1|55=CLP DTTC CURNCY|270=602.65|271=0|290=1|10=140|
20150519-13:04:51.500: 8=FIX.4.4|9=138|35=X|34=166|49=MDFHBLP|52=20150519-13:04:51.500|56=ALGOARBADR4|262=71010593cc924fc5|268=1|279=1|269=5|55=CLP DTTC CURNCY|270=602.63|290=1|10=121|
20150519-13:04:53.163: 8=FIX.4.4|9=143|35=X|34=167|49=MDFHBLP|52=20150519-13:04:53.162|56=ALGOARBADR4|262=71010593cc924fc5|268=1|279=1|269=1|55=CLP DTTC CURNCY|270=602.7|271=0|290=1|10=078|
20150519-13:04:53.164: 8=FIX.4.4|9=138|35=X|34=168|49=MDFHBLP|52=20150519-13:04:53.164|56=ALGOARBADR4|262=71010593cc924fc5|268=1|279=1|269=5|55=CLP DTTC CURNCY|270=602.65|290=1|10=133|
20150519-13:04:56.695: 8=FIX.4.4|9=144|35=X|34=169|49=MDFHBLP|52=20150519-13:04:56.694|56=ALGOARBADR4|262=71010593cc924fc5|268=1|279=1|269=1|55=CLP DTTC CURNCY|270=602.75|271=0|290=1|10=147|
20150519-13:04:56.696: 8=FIX.4.4|9=138|35=X|34=170|49=MDFHBLP|52=20150519-13:04:56.695|56=ALGOARBADR4|262=71010593cc924fc5|268=1|279=1|269=5|55=CLP DTTC CURNCY|270=602.68|290=1|10=141|
20150519-13:04:56.697: 8=FIX.4.4|9=144|35=X|34=171|49=MDFHBLP|52=20150519-13:04:56.696|56=ALGOARBADR4|262=71010593cc924fc5|268=1|279=1|269=1|55=CLP DTTC CURNCY|270=602.75|271=0|290=1|10=142|
20150519-13:04:56.699: 8=FIX.4.4|9=138|35=X|34=172|49=MDFHBLP|52=20150519-13:04:56.697|56=ALGOARBADR4|262=71010593cc924fc5|268=1|279=1|269=5|55=CLP DTTC CURNCY|270=602.68|290=1|10=145|
20150519-13:04:59.989: 8=FIX.4.4|9=143|35=X|34=173|49=MDFHBLP|52=20150519-13:04:59.988|56=ALGOARBADR4|262=71010593cc924fc5|268=1|279=1|269=1|55=CLP DTTC CURNCY|270=602.8|271=0|290=1|10=098|
20150519-13:04:59.989: 8=FIX.4.4|9=143|35=X|34=174|49=MDFHBLP|52=20150519-13:04:59.989|56=ALGOARBADR4|262=71010593cc924fc5|268=1|279=1|269=1|55=CLP DTTC CURNCY|270=602.8|271=0|290=1|10=100|
20150519-13:04:59.990: 8=FIX.4.4|9=138|35=X|34=175|49=MDFHBLP|52=20150519-13:04:59.990|56=ALGOARBADR4|262=71010593cc924fc5|268=1|279=1|269=5|55=CLP DTTC CURNCY|270=602.73|290=1|10=143|
20150519-13:04:59.992: 8=FIX.4.4|9=137|35=X|34=176|49=MDFHBLP|52=20150519-13:04:59.992|56=ALGOARBADR4|262=71010593cc924fc5|268=1|279=1|269=5|55=CLP DTTC CURNCY|270=602.7|290=1|10=094|
20150519-13:05:02.441: 8=FIX.4.4|9=143|35=X|34=177|49=MDFHBLP|52=20150519-13:05:02.441|56=ALGOARBADR4|262=71010593cc924fc5|268=1|279=1|269=1|55=CLP DTTC CURNCY|270=602.7|271=0|290=1|10=074|
20150519-13:05:02.443: 8=FIX.4.4|9=138|35=X|34=178|49=MDFHBLP|52=20150519-13:05:02.443|56=ALGOARBADR4|262=71010593cc924fc5|268=1|279=1|269=5|55=CLP DTTC CURNCY|270=602.65|290=1|10=129|
20150519-13:05:04.553: 8=FIX.4.4|9=143|35=X|34=179|49=MDFHBLP|52=20150519-13:05:04.553|56=ALGOARBADR4|262=71010593cc924fc5|268=1|279=1|269=1|55=CLP DTTC CURNCY|270=602.8|271=0|290=1|10=083|
20150519-13:05:04.555: 8=FIX.4.4|9=137|35=X|34=180|49=MDFHBLP|52=20150519-13:05:04.555|56=ALGOARBADR4|262=71010593cc924fc5|268=1|279=1|269=5|55=CLP DTTC CURNCY|270=602.7|290=1|10=075|
20150519-13:05:04.999: 8=FIX.4.4|9=144|35=X|34=181|49=MDFHBLP|52=20150519-13:05:04.999|56=ALGOARBADR4|262=71010593cc924fc5|268=1|279=1|269=1|55=CLP DTTC CURNCY|270=602.85|271=0|290=1|10=144|
20150519-13:05:05.000: 8=FIX.4.4|9=138|35=X|34=182|49=MDFHBLP|52=20150519-13:05:05.000|56=ALGOARBADR4|262=71010593cc924fc5|268=1|279=1|269=5|55=CLP DTTC CURNCY|270=602.73|290=1|10=115|
20150519-13:05:11.198: 8=FIX.4.4|9=143|35=X|34=183|49=MDFHBLP|52=20150519-13:05:11.198|56=ALGOARBADR4|262=71010593cc924fc5|268=1|279=1|269=1|55=CLP DTTC CURNCY|270=602.8|271=0|290=1|10=081|
20150519-13:05:11.200: 8=FIX.4.4|9=137|35=X|34=184|49=MDFHBLP|52=20150519-13:05:11.200|56=ALGOARBADR4|262=71010593cc924fc5|268=1|279=1|269=5|55=CLP DTTC CURNCY|270=602.7|290=1|10=064|
20150519-13:05:13.073: 8=FIX.4.4|9=144|35=X|34=185|49=MDFHBLP|52=20150519-13:05:13.073|56=ALGOARBADR4|262=71010593cc924fc5|268=1|279=1|269=1|55=CLP DTTC CURNCY|270=602.75|271=0|290=1|10=130|
20150519-13:05:13.075: 8=FIX.4.4|9=138|35=X|34=186|49=MDFHBLP|52=20150519-13:05:13.074|56=ALGOARBADR4|262=71010593cc924fc5|268=1|279=1|269=5|55=CLP DTTC CURNCY|270=602.68|290=1|10=133|
20150519-13:05:20.628: 8=FIX.4.4|9=144|35=X|34=187|49=MDFHBLP|52=20150519-13:05:20.629|56=ALGOARBADR4|262=71010593cc924fc5|268=1|279=1|269=0|55=CLP DTTC CURNCY|270=602.65|271=0|290=1|10=135|
20150519-13:05:20.629: 8=FIX.4.4|9=137|35=X|34=188|49=MDFHBLP|52=20150519-13:05:20.630|56=ALGOARBADR4|262=71010593cc924fc5|268=1|279=1|269=5|55=CLP DTTC CURNCY|270=602.7|290=1|10=075|
20150519-13:05:23.017: 8=FIX.4.4|9=143|35=X|34=189|49=MDFHBLP|52=20150519-13:05:23.018|56=ALGOARBADR4|262=71010593cc924fc5|268=1|279=1|269=1|55=CLP DTTC CURNCY|270=602.8|271=0|290=1|10=081|
20150519-13:05:23.019: 8=FIX.4.4|9=138|35=X|34=190|49=MDFHBLP|52=20150519-13:05:23.019|56=ALGOARBADR4|262=71010593cc924fc5|268=1|279=1|269=5|55=CLP DTTC CURNCY|270=602.73|290=1|10=124|
20150519-13:05:23.026: 8=FIX.4.4|9=144|35=X|34=191|49=MDFHBLP|52=20150519-13:05:23.026|56=ALGOARBADR4|262=71010593cc924fc5|268=1|279=1|269=1|55=CLP DTTC CURNCY|270=602.85|271=0|290=1|10=127|
20150519-13:05:23.028: 8=FIX.4.4|9=138|35=X|34=192|49=MDFHBLP|52=20150519-13:05:23.028|56=ALGOARBADR4|262=71010593cc924fc5|268=1|279=1|269=5|55=CLP DTTC CURNCY|270=602.75|290=1|10=128|
20150519-13:05:26.311: 8=FIX.4.4|9=61|35=0|34=6|49=ALGOARBADR4|52=20150519-13:05:26.311|56=MDFHBLP|10=213|
20150519-13:05:40.175: 8=FIX.4.4|9=143|35=X|34=193|49=MDFHBLP|52=20150519-13:05:40.176|56=ALGOARBADR4|262=71010593cc924fc5|268=1|279=1|269=1|55=CLP DTTC CURNCY|270=602.8|271=0|290=1|10=080|
20150519-13:05:40.178: 8=FIX.4.4|9=138|35=X|34=194|49=MDFHBLP|52=20150519-13:05:40.177|56=ALGOARBADR4|262=71010593cc924fc5|268=1|279=1|269=5|55=CLP DTTC CURNCY|270=602.73|290=1|10=132|
20150519-13:05:56.223: 8=FIX.4.4|9=144|35=X|34=195|49=MDFHBLP|52=20150519-13:05:56.223|56=ALGOARBADR4|262=71010593cc924fc5|268=1|279=1|269=1|55=CLP DTTC CURNCY|270=602.85|271=0|290=1|10=136|
20150519-13:05:56.225: 8=FIX.4.4|9=138|35=X|34=196|49=MDFHBLP|52=20150519-13:05:56.225|56=ALGOARBADR4|262=71010593cc924fc5|268=1|279=1|269=5|55=CLP DTTC CURNCY|270=602.75|290=1|10=137|
20150519-13:06:00.019: 8=FIX.4.4|9=143|35=X|34=197|49=MDFHBLP|52=20150519-13:06:00.020|56=ALGOARBADR4|262=71010593cc924fc5|268=1|279=1|269=0|55=CLP DTTC CURNCY|270=602.7|271=0|290=1|10=067|
20150519-13:06:00.021: 8=FIX.4.4|9=137|35=X|34=198|49=MDFHBLP|52=20150519-13:06:00.022|56=ALGOARBADR4|262=71010593cc924fc5|268=1|279=1|269=5|55=CLP DTTC CURNCY|270=602.8|290=1|10=071|
20150519-13:06:00.021: 8=FIX.4.4|9=143|35=X|34=199|49=MDFHBLP|52=20150519-13:06:00.023|56=ALGOARBADR4|262=71010593cc924fc5|268=1|279=1|269=1|55=CLP DTTC CURNCY|270=602.9|271=0|290=1|10=075|
20150519-13:06:00.022: 8=FIX.4.4|9=137|35=X|34=200|49=MDFHBLP|52=20150519-13:06:00.024|56=ALGOARBADR4|262=71010593cc924fc5|268=1|279=1|269=5|55=CLP DTTC CURNCY|270=602.8|290=1|10=057|
20150519-13:06:03.268: 8=FIX.4.4|9=144|35=X|34=201|49=MDFHBLP|52=20150519-13:06:03.270|56=ALGOARBADR4|262=71010593cc924fc5|268=1|279=1|269=0|55=CLP DTTC CURNCY|270=602.75|271=0|290=1|10=117|
20150519-13:06:03.270: 8=FIX.4.4|9=138|35=X|34=202|49=MDFHBLP|52=20150519-13:06:03.271|56=ALGOARBADR4|262=71010593cc924fc5|268=1|279=1|269=5|55=CLP DTTC CURNCY|270=602.82|290=1|10=117|
20150519-13:06:11.098: 8=FIX.4.4|9=144|35=X|34=203|49=MDFHBLP|52=20150519-13:06:11.100|56=ALGOARBADR4|262=71010593cc924fc5|268=1|279=1|269=1|55=CLP DTTC CURNCY|270=602.85|271=0|290=1|10=112|
20150519-13:06:11.100: 8=FIX.4.4|9=137|35=X|34=204|49=MDFHBLP|52=20150519-13:06:11.101|56=ALGOARBADR4|262=71010593cc924fc5|268=1|279=1|269=5|55=CLP DTTC CURNCY|270=602.8|290=1|10=059|
20150519-13:06:13.150: 8=FIX.4.4|9=143|35=X|34=205|49=MDFHBLP|52=20150519-13:06:13.152|56=ALGOARBADR4|262=71010593cc924fc5|268=1|279=1|269=0|55=CLP DTTC CURNCY|270=602.7|271=0|290=1|10=067|
20150519-13:06:13.152: 8=FIX.4.4|9=138|35=X|34=206|49=MDFHBLP|52=20150519-13:06:13.153|56=ALGOARBADR4|262=71010593cc924fc5|268=1|279=1|269=5|55=CLP DTTC CURNCY|270=602.78|290=1|10=126|
20150519-13:06:13.295: 8=FIX.4.4|9=144|35=X|34=207|49=MDFHBLP|52=20150519-13:06:13.296|56=ALGOARBADR4|262=71010593cc924fc5|268=1|279=1|269=0|55=CLP DTTC CURNCY|270=602.65|271=0|290=1|10=131|
20150519-13:06:13.298: 8=FIX.4.4|9=138|35=X|34=208|49=MDFHBLP|52=20150519-13:06:13.299|56=ALGOARBADR4|262=71010593cc924fc5|268=1|279=1|269=5|55=CLP DTTC CURNCY|270=602.75|290=1|10=136|
20150519-13:06:20.535: 8=FIX.4.4|9=143|35=X|34=209|49=MDFHBLP|52=20150519-13:06:20.537|56=ALGOARBADR4|262=71010593cc924fc5|268=1|279=1|269=0|55=CLP DTTC CURNCY|270=602.7|271=0|290=1|10=076|
20150519-13:06:20.537: 8=FIX.4.4|9=138|35=X|34=210|49=MDFHBLP|52=20150519-13:06:20.538|56=ALGOARBADR4|262=71010593cc924fc5|268=1|279=1|269=5|55=CLP DTTC CURNCY|270=602.78|290=1|10=126|
20150519-13:06:26.311: 8=FIX.4.4|9=61|35=0|34=7|49=ALGOARBADR4|52=20150519-13:06:26.311|56=MDFHBLP|10=215|
20150519-13:06:26.700: 8=FIX.4.4|9=144|35=X|34=211|49=MDFHBLP|52=20150519-13:06:26.701|56=ALGOARBADR4|262=71010593cc924fc5|268=1|279=1|269=0|55=CLP DTTC CURNCY|270=602.75|271=0|290=1|10=122|
20150519-13:06:26.701: 8=FIX.4.4|9=137|35=X|34=212|49=MDFHBLP|52=20150519-13:06:26.703|56=ALGOARBADR4|262=71010593cc924fc5|268=1|279=1|269=5|55=CLP DTTC CURNCY|270=602.8|290=1|10=072|
20150519-13:06:28.404: 8=FIX.4.4|9=143|35=X|34=213|49=MDFHBLP|52=20150519-13:06:28.406|56=ALGOARBADR4|262=71010593cc924fc5|268=1|279=1|269=1|55=CLP DTTC CURNCY|270=602.9|271=0|290=1|10=077|
20150519-13:06:28.406: 8=FIX.4.4|9=138|35=X|34=214|49=MDFHBLP|52=20150519-13:06:28.407|56=ALGOARBADR4|262=71010593cc924fc5|268=1|279=1|269=5|55=CLP DTTC CURNCY|270=602.82|290=1|10=128|
20150519-13:06:43.661: 8=FIX.4.4|9=144|35=X|34=215|49=MDFHBLP|52=20150519-13:06:43.663|56=ALGOARBADR4|262=71010593cc924fc5|268=1|279=1|269=1|55=CLP DTTC CURNCY|270=602.85|271=0|290=1|10=134|
20150519-13:06:43.662: 8=FIX.4.4|9=137|35=X|34=216|49=MDFHBLP|52=20150519-13:06:43.665|56=ALGOARBADR4|262=71010593cc924fc5|268=1|279=1|269=5|55=CLP DTTC CURNCY|270=602.8|290=1|10=082|
20150519-13:06:43.664: 8=FIX.4.4|9=144|35=X|34=217|49=MDFHBLP|52=20150519-13:06:43.666|56=ALGOARBADR4|262=71010593cc924fc5|268=1|279=1|269=1|55=CLP DTTC CURNCY|270=602.85|271=0|290=1|10=139|
20150519-13:06:43.666: 8=FIX.4.4|9=137|35=X|34=218|49=MDFHBLP|52=20150519-13:06:43.668|56=ALGOARBADR4|262=71010593cc924fc5|268=1|279=1|269=5|55=CLP DTTC CURNCY|270=602.8|290=1|10=087|
20150519-13:06:45.801: 8=FIX.4.4|9=143|35=X|34=219|49=MDFHBLP|52=20150519-13:06:45.803|56=ALGOARBADR4|262=71010593cc924fc5|268=1|279=1|269=1|55=CLP DTTC CURNCY|270=602.8|271=0|290=1|10=082|
20150519-13:06:45.803: 8=FIX.4.4|9=138|35=X|34=220|49=MDFHBLP|52=20150519-13:06:45.805|56=ALGOARBADR4|262=71010593cc924fc5|268=1|279=1|269=5|55=CLP DTTC CURNCY|270=602.78|290=1|10=131|
20150519-13:06:52.005: 8=FIX.4.4|9=144|35=X|34=221|49=MDFHBLP|52=20150519-13:06:52.008|56=ALGOARBADR4|262=71010593cc924fc5|268=1|279=1|269=1|55=CLP DTTC CURNCY|270=602.85|271=0|290=1|10=124|
20150519-13:06:52.007: 8=FIX.4.4|9=137|35=X|34=222|49=MDFHBLP|52=20150519-13:06:52.009|56=ALGOARBADR4|262=71010593cc924fc5|268=1|279=1|269=5|55=CLP DTTC CURNCY|270=602.8|290=1|10=071|
20150519-13:06:52.154: 8=FIX.4.4|9=144|35=X|34=223|49=MDFHBLP|52=20150519-13:06:52.157|56=ALGOARBADR4|262=71010593cc924fc5|268=1|279=1|269=1|55=CLP DTTC CURNCY|270=602.89|271=0|290=1|10=135|
20150519-13:06:52.157: 8=FIX.4.4|9=138|35=X|34=224|49=MDFHBLP|52=20150519-13:06:52.159|56=ALGOARBADR4|262=71010593cc924fc5|268=1|279=1|269=5|55=CLP DTTC CURNCY|270=602.82|290=1|10=130|
20150519-13:06:52.448: 8=FIX.4.4|9=143|35=X|34=225|49=MDFHBLP|52=20150519-13:06:52.451|56=ALGOARBADR4|262=71010593cc924fc5|268=1|279=1|269=1|55=CLP DTTC CURNCY|270=602.9|271=0|290=1|10=077|
20150519-13:06:52.451: 8=FIX.4.4|9=138|35=X|34=226|49=MDFHBLP|52=20150519-13:06:52.453|56=ALGOARBADR4|262=71010593cc924fc5|268=1|279=1|269=5|55=CLP DTTC CURNCY|270=602.82|290=1|10=129|
20150519-13:07:26.311: 8=FIX.4.4|9=61|35=0|34=8|49=ALGOARBADR4|52=20150519-13:07:26.311|56=MDFHBLP|10=217|
20150519-13:07:32.193: 8=FIX.4.4|9=144|35=X|34=227|49=MDFHBLP|52=20150519-13:07:32.196|56=ALGOARBADR4|262=71010593cc924fc5|268=1|279=1|269=1|55=CLP DTTC CURNCY|270=602.89|271=0|290=1|10=141|
20150519-13:07:32.194: 8=FIX.4.4|9=138|35=X|34=228|49=MDFHBLP|52=20150519-13:07:32.198|56=ALGOARBADR4|262=71010593cc924fc5|268=1|279=1|269=5|55=CLP DTTC CURNCY|270=602.82|290=1|10=136|
20150519-13:07:33.904: 8=FIX.4.4|9=143|35=X|34=229|49=MDFHBLP|52=20150519-13:07:33.908|56=ALGOARBADR4|262=71010593cc924fc5|268=1|279=1|269=1|55=CLP DTTC CURNCY|270=602.9|271=0|290=1|10=088|
20150519-13:07:33.906: 8=FIX.4.4|9=138|35=X|34=230|49=MDFHBLP|52=20150519-13:07:33.909|56=ALGOARBADR4|262=71010593cc924fc5|268=1|279=1|269=5|55=CLP DTTC CURNCY|270=602.82|290=1|10=130|
20150519-13:07:40.153: 8=FIX.4.4|9=144|35=X|34=231|49=MDFHBLP|52=20150519-13:07:40.157|56=ALGOARBADR4|262=71010593cc924fc5|268=1|279=1|269=1|55=CLP DTTC CURNCY|270=602.89|271=0|290=1|10=132|
20150519-13:07:40.155: 8=FIX.4.4|9=138|35=X|34=232|49=MDFHBLP|52=20150519-13:07:40.158|56=ALGOARBADR4|262=71010593cc924fc5|268=1|279=1|269=5|55=CLP DTTC CURNCY|270=602.82|290=1|10=126|
20150519-13:07:45.186: 8=FIX.4.4|9=143|35=X|34=233|49=MDFHBLP|52=20150519-13:07:45.188|56=ALGOARBADR4|262=71010593cc924fc5|268=1|279=1|269=1|55=CLP DTTC CURNCY|270=602.9|271=0|290=1|10=086|
20150519-13:07:45.187: 8=FIX.4.4|9=138|35=X|34=234|49=MDFHBLP|52=20150519-13:07:45.190|56=ALGOARBADR4|262=71010593cc924fc5|268=1|279=1|269=5|55=CLP DTTC CURNCY|270=602.82|290=1|10=129|
20150519-13:07:47.021: 8=FIX.4.4|9=144|35=X|34=235|49=MDFHBLP|52=20150519-13:07:47.025|56=ALGOARBADR4|262=71010593cc924fc5|268=1|279=1|269=1|55=CLP DTTC CURNCY|270=602.85|271=0|290=1|10=133|
20150519-13:07:47.023: 8=FIX.4.4|9=144|35=X|34=236|49=MDFHBLP|52=20150519-13:07:47.026|56=ALGOARBADR4|262=71010593cc924fc5|268=1|279=1|269=1|55=CLP DTTC CURNCY|270=602.85|271=0|290=1|10=135|
20150519-13:07:47.025: 8=FIX.4.4|9=138|35=X|34=237|49=MDFHBLP|52=20150519-13:07:47.028|56=ALGOARBADR4|262=71010593cc924fc5|268=1|279=1|269=5|55=CLP DTTC CURNCY|270=602.82|290=1|10=134|
20150519-13:07:47.027: 8=FIX.4.4|9=137|35=X|34=238|49=MDFHBLP|52=20150519-13:07:47.030|56=ALGOARBADR4|262=71010593cc924fc5|268=1|279=1|269=5|55=CLP DTTC CURNCY|270=602.8|290=1|10=077|
20150519-13:07:50.309: 8=FIX.4.4|9=143|35=X|34=239|49=MDFHBLP|52=20150519-13:07:50.312|56=ALGOARBADR4|262=71010593cc924fc5|268=1|279=1|269=1|55=CLP DTTC CURNCY|270=602.9|271=0|290=1|10=077|
20150519-13:07:50.309: 8=FIX.4.4|9=138|35=X|34=240|49=MDFHBLP|52=20150519-13:07:50.313|56=ALGOARBADR4|262=71010593cc924fc5|268=1|279=1|269=5|55=CLP DTTC CURNCY|270=602.82|290=1|10=119|
20150519-13:07:50.603: 8=FIX.4.4|9=144|35=X|34=241|49=MDFHBLP|52=20150519-13:07:50.607|56=ALGOARBADR4|262=71010593cc924fc5|268=1|279=1|269=0|55=CLP DTTC CURNCY|270=602.61|271=0|290=1|10=123|
20150519-13:07:50.605: 8=FIX.4.4|9=138|35=X|34=242|49=MDFHBLP|52=20150519-13:07:50.609|56=ALGOARBADR4|262=71010593cc924fc5|268=1|279=1|269=5|55=CLP DTTC CURNCY|270=602.76|290=1|10=132|
20150519-13:07:56.756: 8=FIX.4.4|9=138|35=X|34=243|49=MDFHBLP|52=20150519-13:07:56.759|56=ALGOARBADR4|262=71010593cc924fc5|268=1|279=1|269=5|55=CLP DTTC CURNCY|270=602.77|290=1|10=146|
20150519-13:07:56.758: 8=FIX.4.4|9=138|35=X|34=244|49=MDFHBLP|52=20150519-13:07:56.761|56=ALGOARBADR4|262=71010593cc924fc5|268=1|279=1|269=5|55=CLP DTTC CURNCY|270=602.77|290=1|10=140|
20150519-13:07:56.760: 8=FIX.4.4|9=144|35=X|34=245|49=MDFHBLP|52=20150519-13:07:56.763|56=ALGOARBADR4|262=71010593cc924fc5|268=1|279=1|269=1|55=CLP DTTC CURNCY|270=602.89|271=0|290=1|10=147|
20150519-13:07:56.761: 8=FIX.4.4|9=144|35=X|34=246|49=MDFHBLP|52=20150519-13:07:56.764|56=ALGOARBADR4|262=71010593cc924fc5|268=1|279=1|269=0|55=CLP DTTC CURNCY|270=602.65|271=0|290=1|10=142|
20150519-13:07:57.715: 8=FIX.4.4|9=144|35=X|34=247|49=MDFHBLP|52=20150519-13:07:57.713|56=ALGOARBADR4|262=71010593cc924fc5|268=1|279=1|269=1|55=CLP DTTC CURNCY|270=602.88|271=0|290=1|10=144|
20150519-13:07:57.716: 8=FIX.4.4|9=138|35=X|34=248|49=MDFHBLP|52=20150519-13:07:57.714|56=ALGOARBADR4|262=71010593cc924fc5|268=1|279=1|269=5|55=CLP DTTC CURNCY|270=602.77|290=1|10=143|
20150519-13:07:58.604: 8=FIX.4.4|9=143|35=X|34=249|49=MDFHBLP|52=20150519-13:07:58.608|56=ALGOARBADR4|262=71010593cc924fc5|268=1|279=1|269=0|55=CLP DTTC CURNCY|270=602.7|271=0|290=1|10=091|
20150519-13:07:58.607: 8=FIX.4.4|9=138|35=X|34=250|49=MDFHBLP|52=20150519-13:07:58.609|56=ALGOARBADR4|262=71010593cc924fc5|268=1|279=1|269=5|55=CLP DTTC CURNCY|270=602.79|290=1|10=142|
20150519-13:07:59.312: 8=FIX.4.4|9=144|35=X|34=251|49=MDFHBLP|52=20150519-13:07:59.316|56=ALGOARBADR4|262=71010593cc924fc5|268=1|279=1|269=1|55=CLP DTTC CURNCY|270=602.87|271=0|290=1|10=139|
20150519-13:07:59.314: 8=FIX.4.4|9=138|35=X|34=252|49=MDFHBLP|52=20150519-13:07:59.318|56=ALGOARBADR4|262=71010593cc924fc5|268=1|279=1|269=5|55=CLP DTTC CURNCY|270=602.79|290=1|10=142|
20150519-13:08:05.274: 8=FIX.4.4|9=144|35=X|34=253|49=MDFHBLP|52=20150519-13:08:05.278|56=ALGOARBADR4|262=71010593cc924fc5|268=1|279=1|269=1|55=CLP DTTC CURNCY|270=602.85|271=0|290=1|10=138|
20150519-13:08:05.275: 8=FIX.4.4|9=138|35=X|34=254|49=MDFHBLP|52=20150519-13:08:05.279|56=ALGOARBADR4|262=71010593cc924fc5|268=1|279=1|269=5|55=CLP DTTC CURNCY|270=602.78|290=1|10=141|
20150519-13:08:05.277: 8=FIX.4.4|9=144|35=X|34=255|49=MDFHBLP|52=20150519-13:08:05.281|56=ALGOARBADR4|262=71010593cc924fc5|268=1|279=1|269=1|55=CLP DTTC CURNCY|270=602.82|271=0|290=1|10=131|
20150519-13:08:05.277: 8=FIX.4.4|9=138|35=X|34=256|49=MDFHBLP|52=20150519-13:08:05.282|56=ALGOARBADR4|262=71010593cc924fc5|268=1|279=1|269=5|55=CLP DTTC CURNCY|270=602.76|290=1|10=135|
20150519-13:08:11.031: 8=FIX.4.4|9=144|35=X|34=257|49=MDFHBLP|52=20150519-13:08:11.035|56=ALGOARBADR4|262=71010593cc924fc5|268=1|279=1|269=1|55=CLP DTTC CURNCY|270=602.81|271=0|290=1|10=126|
20150519-13:08:11.033: 8=FIX.4.4|9=138|35=X|34=258|49=MDFHBLP|52=20150519-13:08:11.037|56=ALGOARBADR4|262=71010593cc924fc5|268=1|279=1|269=5|55=CLP DTTC CURNCY|270=602.76|290=1|10=132|
20150519-13:08:13.305: 8=FIX.4.4|9=144|35=X|34=259|49=MDFHBLP|52=20150519-13:08:13.309|56=ALGOARBADR4|262=71010593cc924fc5|268=1|279=1|269=0|55=CLP DTTC CURNCY|270=602.65|271=0|290=1|10=135|
20150519-13:08:13.306: 8=FIX.4.4|9=138|35=X|34=260|49=MDFHBLP|52=20150519-13:08:13.311|56=ALGOARBADR4|262=71010593cc924fc5|268=1|279=1|269=5|55=CLP DTTC CURNCY|270=602.73|290=1|10=119|
20150519-13:08:14.394: 8=FIX.4.4|9=144|35=X|34=261|49=MDFHBLP|52=20150519-13:08:14.389|56=ALGOARBADR4|262=71010593cc924fc5|268=1|279=1|269=0|55=CLP DTTC CURNCY|270=602.64|271=0|290=1|10=136|
20150519-13:08:14.395: 8=FIX.4.4|9=138|35=X|34=262|49=MDFHBLP|52=20150519-13:08:14.394|56=ALGOARBADR4|262=71010593cc924fc5|268=1|279=1|269=5|55=CLP DTTC CURNCY|270=602.73|290=1|10=133|
20150519-13:08:14.395: 8=FIX.4.4|9=144|35=X|34=263|49=MDFHBLP|52=20150519-13:08:14.397|56=ALGOARBADR4|262=71010593cc924fc5|268=1|279=1|269=0|55=CLP DTTC CURNCY|270=602.62|271=0|290=1|10=135|
20150519-13:08:14.395: 8=FIX.4.4|9=138|35=X|34=264|49=MDFHBLP|52=20150519-13:08:14.399|56=ALGOARBADR4|262=71010593cc924fc5|268=1|279=1|269=5|55=CLP DTTC CURNCY|270=602.72|290=1|10=139|
20150519-13:08:14.399: 8=FIX.4.4|9=144|35=X|34=265|49=MDFHBLP|52=20150519-13:08:14.400|56=ALGOARBADR4|262=71010593cc924fc5|268=1|279=1|269=0|55=CLP DTTC CURNCY|270=602.61|271=0|290=1|10=121|
20150519-13:08:14.399: 8=FIX.4.4|9=138|35=X|34=266|49=MDFHBLP|52=20150519-13:08:14.401|56=ALGOARBADR4|262=71010593cc924fc5|268=1|279=1|269=5|55=CLP DTTC CURNCY|270=602.71|290=1|10=124|
20150519-13:08:14.399: 8=FIX.4.4|9=143|35=X|34=267|49=MDFHBLP|52=20150519-13:08:14.403|56=ALGOARBADR4|262=71010593cc924fc5|268=1|279=1|269=0|55=CLP DTTC CURNCY|270=602.6|271=0|290=1|10=076|
20150519-13:08:14.400: 8=FIX.4.4|9=138|35=X|34=268|49=MDFHBLP|52=20150519-13:08:14.404|56=ALGOARBADR4|262=71010593cc924fc5|268=1|279=1|269=5|55=CLP DTTC CURNCY|270=602.71|290=1|10=129|
20150519-13:08:16.260: 8=FIX.4.4|9=144|35=X|34=269|49=MDFHBLP|52=20150519-13:08:16.265|56=ALGOARBADR4|262=71010593cc924fc5|268=1|279=1|269=0|55=CLP DTTC CURNCY|270=602.55|271=0|290=1|10=139|
20150519-13:08:16.262: 8=FIX.4.4|9=138|35=X|34=270|49=MDFHBLP|52=20150519-13:08:16.266|56=ALGOARBADR4|262=71010593cc924fc5|268=1|279=1|269=5|55=CLP DTTC CURNCY|270=602.68|290=1|10=136|
20150519-13:08:16.386: 8=FIX.4.4|9=143|35=X|34=271|49=MDFHBLP|52=20150519-13:08:16.391|56=ALGOARBADR4|262=71010593cc924fc5|268=1|279=1|269=0|55=CLP DTTC CURNCY|270=602.5|271=0|290=1|10=078|
20150519-13:08:16.388: 8=FIX.4.4|9=138|35=X|34=272|49=MDFHBLP|52=20150519-13:08:16.393|56=ALGOARBADR4|262=71010593cc924fc5|268=1|279=1|269=5|55=CLP DTTC CURNCY|270=602.66|290=1|10=137|
20150519-13:08:17.144: 8=FIX.4.4|9=144|35=X|34=273|49=MDFHBLP|52=20150519-13:08:17.148|56=ALGOARBADR4|262=71010593cc924fc5|268=1|279=1|269=0|55=CLP DTTC CURNCY|270=602.45|271=0|290=1|10=134|
20150519-13:08:17.146: 8=FIX.4.4|9=138|35=X|34=274|49=MDFHBLP|52=20150519-13:08:17.150|56=ALGOARBADR4|262=71010593cc924fc5|268=1|279=1|269=5|55=CLP DTTC CURNCY|270=602.63|290=1|10=128|
20150519-13:08:24.492: 8=FIX.4.4|9=143|35=X|34=275|49=MDFHBLP|52=20150519-13:08:24.496|56=ALGOARBADR4|262=71010593cc924fc5|268=1|279=1|269=0|55=CLP DTTC CURNCY|270=602.5|271=0|290=1|10=087|
20150519-13:08:24.494: 8=FIX.4.4|9=138|35=X|34=276|49=MDFHBLP|52=20150519-13:08:24.498|56=ALGOARBADR4|262=71010593cc924fc5|268=1|279=1|269=5|55=CLP DTTC CURNCY|270=602.66|290=1|10=146|
20150519-13:08:26.311: 8=FIX.4.4|9=61|35=0|34=9|49=ALGOARBADR4|52=20150519-13:08:26.311|56=MDFHBLP|10=219|
20150519-13:08:28.988: 8=FIX.4.4|9=144|35=X|34=277|49=MDFHBLP|52=20150519-13:08:28.993|56=ALGOARBADR4|262=71010593cc924fc5|268=1|279=1|269=1|55=CLP DTTC CURNCY|270=602.65|271=0|290=1|10=151|
20150519-13:08:28.990: 8=FIX.4.4|9=138|35=X|34=278|49=MDFHBLP|52=20150519-13:08:28.995|56=ALGOARBADR4|262=71010593cc924fc5|268=1|279=1|269=5|55=CLP DTTC CURNCY|270=602.57|290=1|10=154|
20150519-13:08:33.647: 8=FIX.4.4|9=143|35=X|34=279|49=MDFHBLP|52=20150519-13:08:33.651|56=ALGOARBADR4|262=71010593cc924fc5|268=1|279=1|269=1|55=CLP DTTC CURNCY|270=602.6|271=0|290=1|10=086|
20150519-13:08:33.647: 8=FIX.4.4|9=138|35=X|34=280|49=MDFHBLP|52=20150519-13:08:33.652|56=ALGOARBADR4|262=71010593cc924fc5|268=1|279=1|269=5|55=CLP DTTC CURNCY|270=602.55|290=1|10=131|
20150519-13:08:46.730: 8=FIX.4.4|9=144|35=X|34=281|49=MDFHBLP|52=20150519-13:08:46.735|56=ALGOARBADR4|262=71010593cc924fc5|268=1|279=1|269=1|55=CLP DTTC CURNCY|270=602.65|271=0|290=1|10=140|
20150519-13:08:46.732: 8=FIX.4.4|9=138|35=X|34=282|49=MDFHBLP|52=20150519-13:08:46.737|56=ALGOARBADR4|262=71010593cc924fc5|268=1|279=1|269=5|55=CLP DTTC CURNCY|270=602.57|290=1|10=143|
20150519-13:08:58.359: 8=FIX.4.4|9=144|35=X|34=283|49=MDFHBLP|52=20150519-13:08:58.362|56=ALGOARBADR4|262=71010593cc924fc5|268=1|279=1|269=0|55=CLP DTTC CURNCY|270=602.45|271=0|290=1|10=138|
20150519-13:08:58.362: 8=FIX.4.4|9=138|35=X|34=284|49=MDFHBLP|52=20150519-13:08:58.367|56=ALGOARBADR4|262=71010593cc924fc5|268=1|279=1|269=5|55=CLP DTTC CURNCY|270=602.55|290=1|10=145|
20150519-13:09:00.931: 8=FIX.4.4|9=143|35=X|34=285|49=MDFHBLP|52=20150519-13:09:00.937|56=ALGOARBADR4|262=71010593cc924fc5|268=1|279=1|269=0|55=CLP DTTC CURNCY|270=602.5|271=0|290=1|10=083|
20150519-13:09:00.933: 8=FIX.4.4|9=138|35=X|34=286|49=MDFHBLP|52=20150519-13:09:00.939|56=ALGOARBADR4|262=71010593cc924fc5|268=1|279=1|269=5|55=CLP DTTC CURNCY|270=602.57|290=1|10=142|
20150519-13:09:04.520: 8=FIX.4.4|9=144|35=X|34=287|49=MDFHBLP|52=20150519-13:09:04.526|56=ALGOARBADR4|262=71010593cc924fc5|268=1|279=1|269=0|55=CLP DTTC CURNCY|270=602.51|271=0|290=1|10=133|
20150519-13:09:04.523: 8=FIX.4.4|9=138|35=X|34=288|49=MDFHBLP|52=20150519-13:09:04.527|56=ALGOARBADR4|262=71010593cc924fc5|268=1|279=1|269=5|55=CLP DTTC CURNCY|270=602.58|290=1|10=142|
20150519-13:09:06.368: 8=FIX.4.4|9=143|35=X|34=289|49=MDFHBLP|52=20150519-13:09:06.374|56=ALGOARBADR4|262=71010593cc924fc5|268=1|279=1|269=1|55=CLP DTTC CURNCY|270=602.6|271=0|290=1|10=090|
20150519-13:09:06.369: 8=FIX.4.4|9=138|35=X|34=290|49=MDFHBLP|52=20150519-13:09:06.375|56=ALGOARBADR4|262=71010593cc924fc5|268=1|279=1|269=5|55=CLP DTTC CURNCY|270=602.55|290=1|10=135|
20150519-13:09:08.521: 8=FIX.4.4|9=143|35=X|34=291|49=MDFHBLP|52=20150519-13:09:08.527|56=ALGOARBADR4|262=71010593cc924fc5|268=1|279=1|269=0|55=CLP DTTC CURNCY|270=602.5|271=0|290=1|10=083|
20150519-13:09:08.523: 8=FIX.4.4|9=138|35=X|34=292|49=MDFHBLP|52=20150519-13:09:08.528|56=ALGOARBADR4|262=71010593cc924fc5|268=1|279=1|269=5|55=CLP DTTC CURNCY|270=602.55|290=1|10=139|
20150519-13:09:26.311: 8=FIX.4.4|9=62|35=0|34=10|49=ALGOARBADR4|52=20150519-13:09:26.311|56=MDFHBLP|10=005|
20150519-13:09:30.946: 8=FIX.4.4|9=144|35=X|34=293|49=MDFHBLP|52=20150519-13:09:30.953|56=ALGOARBADR4|262=71010593cc924fc5|268=1|279=1|269=0|55=CLP DTTC CURNCY|270=602.41|271=0|290=1|10=132|
20150519-13:09:30.948: 8=FIX.4.4|9=138|35=X|34=294|49=MDFHBLP|52=20150519-13:09:30.955|56=ALGOARBADR4|262=71010593cc924fc5|268=1|279=1|269=5|55=CLP DTTC CURNCY|270=602.51|290=1|10=136|
20150519-13:09:33.113: 8=FIX.4.4|9=143|35=X|34=295|49=MDFHBLP|52=20150519-13:09:33.120|56=ALGOARBADR4|262=71010593cc924fc5|268=1|279=1|269=0|55=CLP DTTC CURNCY|270=602.4|271=0|290=1|10=073|
20150519-13:09:33.114: 8=FIX.4.4|9=144|35=X|34=296|49=MDFHBLP|52=20150519-13:09:33.121|56=ALGOARBADR4|262=71010593cc924fc5|268=1|279=1|269=1|55=CLP DTTC CURNCY|270=602.65|271=0|290=1|10=132|
20150519-13:09:33.116: 8=FIX.4.4|9=137|35=X|34=297|49=MDFHBLP|52=20150519-13:09:33.123|56=ALGOARBADR4|262=71010593cc924fc5|268=1|279=1|269=5|55=CLP DTTC CURNCY|270=602.5|290=1|10=079|
20150519-13:09:33.124: 8=FIX.4.4|9=138|35=X|34=298|49=MDFHBLP|52=20150519-13:09:33.125|56=ALGOARBADR4|262=71010593cc924fc5|268=1|279=1|269=5|55=CLP DTTC CURNCY|270=602.53|290=1|10=134|
20150519-13:09:42.238: 8=FIX.4.4|9=144|35=X|34=299|49=MDFHBLP|52=20150519-13:09:42.244|56=ALGOARBADR4|262=71010593cc924fc5|268=1|279=1|269=0|55=CLP DTTC CURNCY|270=602.35|271=0|290=1|10=137|
20150519-13:09:42.240: 8=FIX.4.4|9=137|35=X|34=300|49=MDFHBLP|52=20150519-13:09:42.246|56=ALGOARBADR4|262=71010593cc924fc5|268=1|279=1|269=5|55=CLP DTTC CURNCY|270=602.5|290=1|10=070|
20150519-13:09:42.823: 8=FIX.4.4|9=144|35=X|34=301|49=MDFHBLP|52=20150519-13:09:42.829|56=ALGOARBADR4|262=71010593cc924fc5|268=1|279=1|269=0|55=CLP DTTC CURNCY|270=602.32|271=0|290=1|10=127|
20150519-13:09:42.824: 8=FIX.4.4|9=138|35=X|34=302|49=MDFHBLP|52=20150519-13:09:42.831|56=ALGOARBADR4|262=71010593cc924fc5|268=1|279=1|269=5|55=CLP DTTC CURNCY|270=602.49|290=1|10=129|
20150519-13:09:43.546: 8=FIX.4.4|9=144|35=X|34=303|49=MDFHBLP|52=20150519-13:09:43.553|56=ALGOARBADR4|262=71010593cc924fc5|268=1|279=1|269=0|55=CLP DTTC CURNCY|270=602.31|271=0|290=1|10=123|
20150519-13:09:43.547: 8=FIX.4.4|9=138|35=X|34=304|49=MDFHBLP|52=20150519-13:09:43.554|56=ALGOARBADR4|262=71010593cc924fc5|268=1|279=1|269=5|55=CLP DTTC CURNCY|270=602.48|290=1|10=133|
20150519-13:09:43.843: 8=FIX.4.4|9=143|35=X|34=305|49=MDFHBLP|52=20150519-13:09:43.849|56=ALGOARBADR4|262=71010593cc924fc5|268=1|279=1|269=0|55=CLP DTTC CURNCY|270=602.3|271=0|290=1|10=083|
20150519-13:09:43.844: 8=FIX.4.4|9=138|35=X|34=306|49=MDFHBLP|52=20150519-13:09:43.851|56=ALGOARBADR4|262=71010593cc924fc5|268=1|279=1|269=5|55=CLP DTTC CURNCY|270=602.48|290=1|10=135|
20150519-13:09:44.131: 8=FIX.4.4|9=144|35=X|34=307|49=MDFHBLP|52=20150519-13:09:44.138|56=ALGOARBADR4|262=71010593cc924fc5|268=1|279=1|269=0|55=CLP DTTC CURNCY|270=602.26|271=0|290=1|10=131|
20150519-13:09:44.132: 8=FIX.4.4|9=138|35=X|34=308|49=MDFHBLP|52=20150519-13:09:44.139|56=ALGOARBADR4|262=71010593cc924fc5|268=1|279=1|269=5|55=CLP DTTC CURNCY|270=602.46|290=1|10=135|
20150519-13:09:45.617: 8=FIX.4.4|9=143|35=X|34=309|49=MDFHBLP|52=20150519-13:09:45.624|56=ALGOARBADR4|262=71010593cc924fc5|268=1|279=1|269=0|55=CLP DTTC CURNCY|270=602.3|271=0|290=1|10=080|
20150519-13:09:45.619: 8=FIX.4.4|9=138|35=X|34=310|49=MDFHBLP|52=20150519-13:09:45.626|56=ALGOARBADR4|262=71010593cc924fc5|268=1|279=1|269=5|55=CLP DTTC CURNCY|270=602.48|290=1|10=132|
20150519-13:09:55.113: 8=FIX.4.4|9=144|35=X|34=311|49=MDFHBLP|52=20150519-13:09:55.120|56=ALGOARBADR4|262=71010593cc924fc5|268=1|279=1|269=0|55=CLP DTTC CURNCY|270=602.26|271=0|290=1|10=119|
20150519-13:09:55.115: 8=FIX.4.4|9=138|35=X|34=312|49=MDFHBLP|52=20150519-13:09:55.121|56=ALGOARBADR4|262=71010593cc924fc5|268=1|279=1|269=5|55=CLP DTTC CURNCY|270=602.46|290=1|10=123|
20150519-13:09:57.726: 8=FIX.4.4|9=144|35=X|34=313|49=MDFHBLP|52=20150519-13:09:57.732|56=ALGOARBADR4|262=71010593cc924fc5|268=1|279=1|269=0|55=CLP DTTC CURNCY|270=602.38|271=0|290=1|10=135|
20150519-13:09:57.731: 8=FIX.4.4|9=138|35=X|34=314|49=MDFHBLP|52=20150519-13:09:57.734|56=ALGOARBADR4|262=71010593cc924fc5|268=1|279=1|269=5|55=CLP DTTC CURNCY|270=602.52|290=1|10=134|
20150519-13:10:01.681: 8=FIX.4.4|9=143|35=X|34=315|49=MDFHBLP|52=20150519-13:10:01.688|56=ALGOARBADR4|262=71010593cc924fc5|268=1|279=1|269=1|55=CLP DTTC CURNCY|270=602.5|271=0|290=1|10=074|
20150519-13:10:01.682: 8=FIX.4.4|9=138|35=X|34=316|49=MDFHBLP|52=20150519-13:10:01.690|56=ALGOARBADR4|262=71010593cc924fc5|268=1|279=1|269=5|55=CLP DTTC CURNCY|270=602.44|290=1|10=119|
20150519-13:10:03.153: 8=FIX.4.4|9=143|35=X|34=317|49=MDFHBLP|52=20150519-13:10:03.160|56=ALGOARBADR4|262=71010593cc924fc5|268=1|279=1|269=0|55=CLP DTTC CURNCY|270=602.4|271=0|290=1|10=061|
20150519-13:10:03.155: 8=FIX.4.4|9=138|35=X|34=318|49=MDFHBLP|52=20150519-13:10:03.162|56=ALGOARBADR4|262=71010593cc924fc5|268=1|279=1|269=5|55=CLP DTTC CURNCY|270=602.45|290=1|10=118|
20150519-13:10:06.118: 8=FIX.4.4|9=143|35=X|34=319|49=MDFHBLP|52=20150519-13:10:06.125|56=ALGOARBADR4|262=71010593cc924fc5|268=1|279=1|269=1|55=CLP DTTC CURNCY|270=602.5|271=0|290=1|10=069|
20150519-13:10:06.120: 8=FIX.4.4|9=138|35=X|34=320|49=MDFHBLP|52=20150519-13:10:06.126|56=ALGOARBADR4|262=71010593cc924fc5|268=1|279=1|269=5|55=CLP DTTC CURNCY|270=602.45|290=1|10=114|
20150519-13:10:06.121: 8=FIX.4.4|9=138|35=X|34=321|49=MDFHBLP|52=20150519-13:10:06.128|56=ALGOARBADR4|262=71010593cc924fc5|268=1|279=1|269=5|55=CLP DTTC CURNCY|270=602.45|290=1|10=117|
20150519-13:10:06.122: 8=FIX.4.4|9=143|35=X|34=322|49=MDFHBLP|52=20150519-13:10:06.129|56=ALGOARBADR4|262=71010593cc924fc5|268=1|279=1|269=1|55=CLP DTTC CURNCY|270=602.5|271=0|290=1|10=067|
20150519-13:10:07.926: 8=FIX.4.4|9=144|35=X|34=323|49=MDFHBLP|52=20150519-13:10:07.933|56=ALGOARBADR4|262=71010593cc924fc5|268=1|279=1|269=0|55=CLP DTTC CURNCY|270=602.38|271=0|290=1|10=126|
20150519-13:10:07.928: 8=FIX.4.4|9=138|35=X|34=324|49=MDFHBLP|52=20150519-13:10:07.934|56=ALGOARBADR4|262=71010593cc924fc5|268=1|279=1|269=5|55=CLP DTTC CURNCY|270=602.44|290=1|10=125|
20150519-13:10:24.326: 8=FIX.4.4|9=144|35=X|34=325|49=MDFHBLP|52=20150519-13:10:24.334|56=ALGOARBADR4|262=71010593cc924fc5|268=1|279=1|269=0|55=CLP DTTC CURNCY|270=602.26|271=0|290=1|10=119|
20150519-13:10:24.329: 8=FIX.4.4|9=138|35=X|34=326|49=MDFHBLP|52=20150519-13:10:24.336|56=ALGOARBADR4|262=71010593cc924fc5|268=1|279=1|269=5|55=CLP DTTC CURNCY|270=602.38|290=1|10=125|
20150519-13:10:26.311: 8=FIX.4.4|9=62|35=0|34=11|49=ALGOARBADR4|52=20150519-13:10:26.311|56=MDFHBLP|10=254|
20150519-13:10:29.585: 8=FIX.4.4|9=143|35=X|34=327|49=MDFHBLP|52=20150519-13:10:29.593|56=ALGOARBADR4|262=71010593cc924fc5|268=1|279=1|269=0|55=CLP DTTC CURNCY|270=602.3|271=0|290=1|10=079|
20150519-13:10:29.588: 8=FIX.4.4|9=137|35=X|34=328|49=MDFHBLP|52=20150519-13:10:29.595|56=ALGOARBADR4|262=71010593cc924fc5|268=1|279=1|269=5|55=CLP DTTC CURNCY|270=602.4|290=1|10=083|
20150519-13:10:31.652: 8=FIX.4.4|9=144|35=X|34=329|49=MDFHBLP|52=20150519-13:10:31.660|56=ALGOARBADR4|262=71010593cc924fc5|268=1|279=1|269=1|55=CLP DTTC CURNCY|270=602.45|271=0|290=1|10=125|
20150519-13:10:31.654: 8=FIX.4.4|9=138|35=X|34=330|49=MDFHBLP|52=20150519-13:10:31.662|56=ALGOARBADR4|262=71010593cc924fc5|268=1|279=1|269=5|55=CLP DTTC CURNCY|270=602.38|290=1|10=120|
20150519-13:10:31.655: 8=FIX.4.4|9=144|35=X|34=331|49=MDFHBLP|52=20150519-13:10:31.663|56=ALGOARBADR4|262=71010593cc924fc5|268=1|279=1|269=1|55=CLP DTTC CURNCY|270=602.45|271=0|290=1|10=121|
20150519-13:10:31.657: 8=FIX.4.4|9=138|35=X|34=332|49=MDFHBLP|52=20150519-13:10:31.665|56=ALGOARBADR4|262=71010593cc924fc5|268=1|279=1|269=5|55=CLP DTTC CURNCY|270=602.38|290=1|10=125|
20150519-13:10:35.571: 8=FIX.4.4|9=143|35=X|34=333|49=MDFHBLP|52=20150519-13:10:35.577|56=ALGOARBADR4|262=71010593cc924fc5|268=1|279=1|269=1|55=CLP DTTC CURNCY|270=602.4|271=0|290=1|10=077|
20150519-13:10:35.571: 8=FIX.4.4|9=138|35=X|34=334|49=MDFHBLP|52=20150519-13:10:35.578|56=ALGOARBADR4|262=71010593cc924fc5|268=1|279=1|269=5|55=CLP DTTC CURNCY|270=602.35|290=1|10=131|
20150519-13:10:37.805: 8=FIX.4.4|9=143|35=X|34=335|49=MDFHBLP|52=20150519-13:10:37.812|56=ALGOARBADR4|262=71010593cc924fc5|268=1|279=1|269=0|55=CLP DTTC CURNCY|270=602.3|271=0|290=1|10=071|
20150519-13:10:37.807: 8=FIX.4.4|9=138|35=X|34=336|49=MDFHBLP|52=20150519-13:10:37.814|56=ALGOARBADR4|262=71010593cc924fc5|268=1|279=1|269=5|55=CLP DTTC CURNCY|270=602.35|290=1|10=128|
20150519-13:10:37.809: 8=FIX.4.4|9=143|35=X|34=337|49=MDFHBLP|52=20150519-13:10:37.817|56=ALGOARBADR4|262=71010593cc924fc5|268=1|279=1|269=0|55=CLP DTTC CURNCY|270=602.3|271=0|290=1|10=078|
20150519-13:10:37.817: 8=FIX.4.4|9=138|35=X|34=338|49=MDFHBLP|52=20150519-13:10:37.820|56=ALGOARBADR4|262=71010593cc924fc5|268=1|279=1|269=5|55=CLP DTTC CURNCY|270=602.35|290=1|10=127|
20150519-13:10:50.666: 8=FIX.4.4|9=144|35=X|34=339|49=MDFHBLP|52=20150519-13:10:50.675|56=ALGOARBADR4|262=71010593cc924fc5|268=1|279=1|269=1|55=CLP DTTC CURNCY|270=602.45|271=0|290=1|10=133|
20150519-13:10:50.670: 8=FIX.4.4|9=138|35=X|34=340|49=MDFHBLP|52=20150519-13:10:50.676|56=ALGOARBADR4|262=71010593cc924fc5|268=1|279=1|269=5|55=CLP DTTC CURNCY|270=602.38|290=1|10=127|
20150519-13:10:56.766: 8=FIX.4.4|9=144|35=X|34=341|49=MDFHBLP|52=20150519-13:10:56.774|56=ALGOARBADR4|262=71010593cc924fc5|268=1|279=1|269=1|55=CLP DTTC CURNCY|270=602.42|271=0|290=1|10=129|
20150519-13:10:56.771: 8=FIX.4.4|9=138|35=X|34=342|49=MDFHBLP|52=20150519-13:10:56.776|56=ALGOARBADR4|262=71010593cc924fc5|268=1|279=1|269=5|55=CLP DTTC CURNCY|270=602.36|290=1|10=134|
20150519-13:11:11.851: 8=FIX.4.4|9=143|35=X|34=343|49=MDFHBLP|52=20150519-13:11:11.860|56=ALGOARBADR4|262=71010593cc924fc5|268=1|279=1|269=1|55=CLP DTTC CURNCY|270=602.4|271=0|290=1|10=068|
20150519-13:11:11.874: 8=FIX.4.4|9=138|35=X|34=344|49=MDFHBLP|52=20150519-13:11:11.861|56=ALGOARBADR4|262=71010593cc924fc5|268=1|279=1|269=5|55=CLP DTTC CURNCY|270=602.35|290=1|10=122|
20150519-13:11:14.117: 8=FIX.4.4|9=144|35=X|34=345|49=MDFHBLP|52=20150519-13:11:14.126|56=ALGOARBADR4|262=71010593cc924fc5|268=1|279=1|269=0|55=CLP DTTC CURNCY|270=602.35|271=0|290=1|10=120|
20150519-13:11:14.120: 8=FIX.4.4|9=138|35=X|34=346|49=MDFHBLP|52=20150519-13:11:14.127|56=ALGOARBADR4|262=71010593cc924fc5|268=1|279=1|269=5|55=CLP DTTC CURNCY|270=602.38|290=1|10=125|
20150519-13:11:20.600: 8=FIX.4.4|9=143|35=X|34=347|49=MDFHBLP|52=20150519-13:11:20.610|56=ALGOARBADR4|262=71010593cc924fc5|268=1|279=1|269=0|55=CLP DTTC CURNCY|270=602.3|271=0|290=1|10=063|
20150519-13:11:20.603: 8=FIX.4.4|9=138|35=X|34=348|49=MDFHBLP|52=20150519-13:11:20.611|56=ALGOARBADR4|262=71010593cc924fc5|268=1|279=1|269=5|55=CLP DTTC CURNCY|270=602.35|290=1|10=119|
20150519-13:11:26.311: 8=FIX.4.4|9=62|35=0|34=12|49=ALGOARBADR4|52=20150519-13:11:26.311|56=MDFHBLP|10=000|
20150519-13:11:26.994: 8=FIX.4.4|9=144|35=X|34=349|49=MDFHBLP|52=20150519-13:11:27.003|56=ALGOARBADR4|262=71010593cc924fc5|268=1|279=1|269=0|55=CLP DTTC CURNCY|270=602.27|271=0|290=1|10=123|
20150519-13:11:26.996: 8=FIX.4.4|9=138|35=X|34=350|49=MDFHBLP|52=20150519-13:11:27.004|56=ALGOARBADR4|262=71010593cc924fc5|268=1|279=1|269=5|55=CLP DTTC CURNCY|270=602.33|290=1|10=113|
20150519-13:11:36.371: 8=FIX.4.4|9=143|35=X|34=351|49=MDFHBLP|52=20150519-13:11:36.381|56=ALGOARBADR4|262=71010593cc924fc5|268=1|279=1|269=0|55=CLP DTTC CURNCY|270=602.3|271=0|290=1|10=070|
20150519-13:11:36.373: 8=FIX.4.4|9=138|35=X|34=352|49=MDFHBLP|52=20150519-13:11:36.382|56=ALGOARBADR4|262=71010593cc924fc5|268=1|279=1|269=5|55=CLP DTTC CURNCY|270=602.35|290=1|10=126|
20150519-13:12:03.621: 8=FIX.4.4|9=144|35=X|34=353|49=MDFHBLP|52=20150519-13:12:03.631|56=ALGOARBADR4|262=71010593cc924fc5|268=1|279=1|269=1|55=CLP DTTC CURNCY|270=602.35|271=0|290=1|10=120|
20150519-13:12:03.623: 8=FIX.4.4|9=138|35=X|34=354|49=MDFHBLP|52=20150519-13:12:03.632|56=ALGOARBADR4|262=71010593cc924fc5|268=1|279=1|269=5|55=CLP DTTC CURNCY|270=602.32|290=1|10=118|
20150519-13:12:04.624: 8=FIX.4.4|9=143|35=X|34=355|49=MDFHBLP|52=20150519-13:12:04.634|56=ALGOARBADR4|262=71010593cc924fc5|268=1|279=1|269=1|55=CLP DTTC CURNCY|270=602.4|271=0|290=1|10=073|
20150519-13:12:04.627: 8=FIX.4.4|9=138|35=X|34=356|49=MDFHBLP|52=20150519-13:12:04.636|56=ALGOARBADR4|262=71010593cc924fc5|268=1|279=1|269=5|55=CLP DTTC CURNCY|270=602.35|290=1|10=128|
20150519-13:12:09.259: 8=FIX.4.4|9=144|35=X|34=357|49=MDFHBLP|52=20150519-13:12:09.270|56=ALGOARBADR4|262=71010593cc924fc5|268=1|279=1|269=0|55=CLP DTTC CURNCY|270=602.35|271=0|290=1|10=128|
20150519-13:12:09.262: 8=FIX.4.4|9=138|35=X|34=358|49=MDFHBLP|52=20150519-13:12:09.272|56=ALGOARBADR4|262=71010593cc924fc5|268=1|279=1|269=5|55=CLP DTTC CURNCY|270=602.38|290=1|10=134|
20150519-13:12:11.640: 8=FIX.4.4|9=143|35=X|34=359|49=MDFHBLP|52=20150519-13:12:11.650|56=ALGOARBADR4|262=71010593cc924fc5|268=1|279=1|269=0|55=CLP DTTC CURNCY|270=602.3|271=0|290=1|10=071|
20150519-13:12:11.641: 8=FIX.4.4|9=138|35=X|34=360|49=MDFHBLP|52=20150519-13:12:11.652|56=ALGOARBADR4|262=71010593cc924fc5|268=1|279=1|269=5|55=CLP DTTC CURNCY|270=602.35|290=1|10=119|
20150519-13:12:19.101: 8=FIX.4.4|9=144|35=X|34=361|49=MDFHBLP|52=20150519-13:12:19.110|56=ALGOARBADR4|262=71010593cc924fc5|268=1|279=1|269=0|55=CLP DTTC CURNCY|270=602.26|271=0|290=1|10=117|
20150519-13:12:19.101: 8=FIX.4.4|9=138|35=X|34=362|49=MDFHBLP|52=20150519-13:12:19.112|56=ALGOARBADR4|262=71010593cc924fc5|268=1|279=1|269=5|55=CLP DTTC CURNCY|270=602.33|290=1|10=118|
20150519-13:12:21.537: 8=FIX.4.4|9=143|35=X|34=363|49=MDFHBLP|52=20150519-13:12:21.548|56=ALGOARBADR4|262=71010593cc924fc5|268=1|279=1|269=0|55=CLP DTTC CURNCY|270=602.3|271=0|290=1|10=073|
20150519-13:12:21.540: 8=FIX.4.4|9=138|35=X|34=364|49=MDFHBLP|52=20150519-13:12:21.550|56=ALGOARBADR4|262=71010593cc924fc5|268=1|279=1|269=5|55=CLP DTTC CURNCY|270=602.35|290=1|10=121|
20150519-13:12:25.776: 8=FIX.4.4|9=144|35=X|34=365|49=MDFHBLP|52=20150519-13:12:25.786|56=ALGOARBADR4|262=71010593cc924fc5|268=1|279=1|269=0|55=CLP DTTC CURNCY|270=602.35|271=0|290=1|10=137|
20150519-13:12:25.778: 8=FIX.4.4|9=138|35=X|34=366|49=MDFHBLP|52=20150519-13:12:25.788|56=ALGOARBADR4|262=71010593cc924fc5|268=1|279=1|269=5|55=CLP DTTC CURNCY|270=602.38|290=1|10=143|
20150519-13:12:26.209: 8=FIX.4.4|9=144|35=X|34=367|49=MDFHBLP|52=20150519-13:12:26.220|56=ALGOARBADR4|262=71010593cc924fc5|268=1|279=1|269=1|55=CLP DTTC CURNCY|270=602.44|271=0|290=1|10=124|
20150519-13:12:26.212: 8=FIX.4.4|9=137|35=X|34=368|49=MDFHBLP|52=20150519-13:12:26.221|56=ALGOARBADR4|262=71010593cc924fc5|268=1|279=1|269=5|55=CLP DTTC CURNCY|270=602.4|290=1|10=072|
20150519-13:12:26.311: 8=FIX.4.4|9=62|35=0|34=13|49=ALGOARBADR4|52=20150519-13:12:26.311|56=MDFHBLP|10=002|
20150519-13:12:26.661: 8=FIX.4.4|9=144|35=X|34=369|49=MDFHBLP|52=20150519-13:12:26.671|56=ALGOARBADR4|262=71010593cc924fc5|268=1|279=1|269=1|55=CLP DTTC CURNCY|270=602.49|271=0|290=1|10=141|
20150519-13:12:26.663: 8=FIX.4.4|9=138|35=X|34=370|49=MDFHBLP|52=20150519-13:12:26.672|56=ALGOARBADR4|262=71010593cc924fc5|268=1|279=1|269=5|55=CLP DTTC CURNCY|270=602.42|290=1|10=126|
20150519-13:12:26.959: 8=FIX.4.4|9=143|35=X|34=371|49=MDFHBLP|52=20150519-13:12:26.970|56=ALGOARBADR4|262=71010593cc924fc5|268=1|279=1|269=1|55=CLP DTTC CURNCY|270=602.5|271=0|290=1|10=079|
20150519-13:12:26.960: 8=FIX.4.4|9=138|35=X|34=372|49=MDFHBLP|52=20150519-13:12:26.971|56=ALGOARBADR4|262=71010593cc924fc5|268=1|279=1|269=5|55=CLP DTTC CURNCY|270=602.43|290=1|10=131|
20150519-13:12:27.466: 8=FIX.4.4|9=144|35=X|34=373|49=MDFHBLP|52=20150519-13:12:27.477|56=ALGOARBADR4|262=71010593cc924fc5|268=1|279=1|269=1|55=CLP DTTC CURNCY|270=602.65|271=0|290=1|10=139|
20150519-13:12:27.468: 8=FIX.4.4|9=137|35=X|34=374|49=MDFHBLP|52=20150519-13:12:27.478|56=ALGOARBADR4|262=71010593cc924fc5|268=1|279=1|269=5|55=CLP DTTC CURNCY|270=602.5|290=1|10=085|
20150519-13:12:27.900: 8=FIX.4.4|9=144|35=X|34=375|49=MDFHBLP|52=20150519-13:12:27.911|56=ALGOARBADR4|262=71010593cc924fc5|268=1|279=1|269=1|55=CLP DTTC CURNCY|270=602.68|271=0|290=1|10=137|
20150519-13:12:27.902: 8=FIX.4.4|9=138|35=X|34=376|49=MDFHBLP|52=20150519-13:12:27.912|56=ALGOARBADR4|262=71010593cc924fc5|268=1|279=1|269=5|55=CLP DTTC CURNCY|270=602.52|290=1|10=131|
20150519-13:12:30.378: 8=FIX.4.4|9=144|35=X|34=377|49=MDFHBLP|52=20150519-13:12:30.389|56=ALGOARBADR4|262=71010593cc924fc5|268=1|279=1|269=1|55=CLP DTTC CURNCY|270=602.65|271=0|290=1|10=139|
20150519-13:12:30.380: 8=FIX.4.4|9=137|35=X|34=378|49=MDFHBLP|52=20150519-13:12:30.391|56=ALGOARBADR4|262=71010593cc924fc5|268=1|279=1|269=5|55=CLP DTTC CURNCY|270=602.5|290=1|10=077|
20150519-13:12:31.891: 8=FIX.4.4|9=143|35=X|34=379|49=MDFHBLP|52=20150519-13:12:31.903|56=ALGOARBADR4|262=71010593cc924fc5|268=1|279=1|269=0|55=CLP DTTC CURNCY|270=602.4|271=0|290=1|10=077|
20150519-13:12:31.893: 8=FIX.4.4|9=138|35=X|34=380|49=MDFHBLP|52=20150519-13:12:31.904|56=ALGOARBADR4|262=71010593cc924fc5|268=1|279=1|269=5|55=CLP DTTC CURNCY|270=602.53|290=1|10=123|
20150519-13:12:33.188: 8=FIX.4.4|9=144|35=X|34=381|49=MDFHBLP|52=20150519-13:12:33.198|56=ALGOARBADR4|262=71010593cc924fc5|268=1|279=1|269=0|55=CLP DTTC CURNCY|270=602.45|271=0|290=1|10=132|
20150519-13:12:33.188: 8=FIX.4.4|9=138|35=X|34=382|49=MDFHBLP|52=20150519-13:12:33.199|56=ALGOARBADR4|262=71010593cc924fc5|268=1|279=1|269=5|55=CLP DTTC CURNCY|270=602.55|290=1|10=135|
20150519-13:12:38.985: 8=FIX.4.4|9=143|35=X|34=383|49=MDFHBLP|52=20150519-13:12:38.996|56=ALGOARBADR4|262=71010593cc924fc5|268=1|279=1|269=0|55=CLP DTTC CURNCY|270=602.5|271=0|290=1|10=092|
20150519-13:12:38.989: 8=FIX.4.4|9=138|35=X|34=384|49=MDFHBLP|52=20150519-13:12:39.000|56=ALGOARBADR4|262=71010593cc924fc5|268=1|279=1|269=5|55=CLP DTTC CURNCY|270=602.57|290=1|10=126|
20150519-13:12:39.728: 8=FIX.4.4|9=144|35=X|34=385|49=MDFHBLP|52=20150519-13:12:39.739|56=ALGOARBADR4|262=71010593cc924fc5|268=1|279=1|269=1|55=CLP DTTC CURNCY|270=602.68|271=0|290=1|10=149|
20150519-13:12:39.730: 8=FIX.4.4|9=138|35=X|34=386|49=MDFHBLP|52=20150519-13:12:39.741|56=ALGOARBADR4|262=71010593cc924fc5|268=1|279=1|269=5|55=CLP DTTC CURNCY|270=602.59|290=1|10=142|
20150519-13:12:42.869: 8=FIX.4.4|9=143|35=X|34=387|49=MDFHBLP|52=20150519-13:12:42.880|56=ALGOARBADR4|262=71010593cc924fc5|268=1|279=1|269=0|55=CLP DTTC CURNCY|270=602.6|271=0|290=1|10=084|
20150519-13:12:42.871: 8=FIX.4.4|9=138|35=X|34=388|49=MDFHBLP|52=20150519-13:12:42.882|56=ALGOARBADR4|262=71010593cc924fc5|268=1|279=1|269=5|55=CLP DTTC CURNCY|270=602.64|290=1|10=140|
20150519-13:12:42.872: 8=FIX.4.4|9=143|35=X|34=389|49=MDFHBLP|52=20150519-13:12:42.883|56=ALGOARBADR4|262=71010593cc924fc5|268=1|279=1|269=1|55=CLP DTTC CURNCY|270=602.7|271=0|290=1|10=091|
20150519-13:12:42.897: 8=FIX.4.4|9=137|35=X|34=390|49=MDFHBLP|52=20150519-13:12:42.886|56=ALGOARBADR4|262=71010593cc924fc5|268=1|279=1|269=5|55=CLP DTTC CURNCY|270=602.6|290=1|10=084|
20150519-13:12:42.897: 8=FIX.4.4|9=137|35=X|34=391|49=MDFHBLP|52=20150519-13:12:42.887|56=ALGOARBADR4|262=71010593cc924fc5|268=1|279=1|269=5|55=CLP DTTC CURNCY|270=602.6|290=1|10=086|
20150519-13:12:42.897: 8=FIX.4.4|9=143|35=X|34=392|49=MDFHBLP|52=20150519-13:12:42.889|56=ALGOARBADR4|262=71010593cc924fc5|268=1|279=1|269=0|55=CLP DTTC CURNCY|270=602.5|271=0|290=1|10=088|
20150519-13:12:50.089: 8=FIX.4.4|9=144|35=X|34=393|49=MDFHBLP|52=20150519-13:12:50.101|56=ALGOARBADR4|262=71010593cc924fc5|268=1|279=1|269=1|55=CLP DTTC CURNCY|270=602.65|271=0|290=1|10=121|
