20150609-11:17:08.676: 8=FIX.4.4|9=68|35=5|34=1|49=ADRARB_XTSE_TOBVC|52=20150609-11:17:08.676|56=AMGTOBVC|10=106|
20150609-11:17:09.608: 8=FIX.4.4|9=68|35=5|34=1|49=ADRARB_XTSE_TOBVC|52=20150609-11:17:09.608|56=AMGTOBVC|10=102|
20150609-11:17:10.601: 8=FIX.4.4|9=86|35=A|34=1|49=ADRARB_XTSE_TOBVC|52=20150609-11:17:10.601|56=AMGTOBVC|98=0|108=60|141=Y|10=172|
20150609-11:17:10.609: 8=FIX.4.4|9=86|35=A|34=1|49=AMGTOBVC|56=ADRARB_XTSE_TOBVC|52=20150609-11:17:10.661|108=60|98=0|141=Y|10=178|
20150609-11:17:10.611: 8=FIX.4.4|9=79|35=1|34=2|49=AMGTOBVC|56=ADRARB_XTSE_TOBVC|52=20150609-11:17:10.661|112=STBL-2|10=194|
20150609-11:17:10.613: 8=FIX.4.4|9=79|35=0|34=2|49=ADRARB_XTSE_TOBVC|52=20150609-11:17:10.613|56=AMGTOBVC|112=STBL-2|10=190|
20150609-11:18:10.754: 8=FIX.4.4|9=68|35=0|34=3|49=AMGTOBVC|56=ADRARB_XTSE_TOBVC|52=20150609-11:18:10.815|10=092|
20150609-11:18:10.755: 8=FIX.4.4|9=68|35=0|34=3|49=ADRARB_XTSE_TOBVC|52=20150609-11:18:10.755|56=AMGTOBVC|10=095|
20150609-11:19:11.064: 8=FIX.4.4|9=68|35=0|34=4|49=AMGTOBVC|56=ADRARB_XTSE_TOBVC|52=20150609-11:19:11.126|10=090|
20150609-11:19:11.065: 8=FIX.4.4|9=68|35=0|34=4|49=ADRARB_XTSE_TOBVC|52=20150609-11:19:11.065|56=AMGTOBVC|10=092|
20150609-11:20:11.391: 8=FIX.4.4|9=68|35=0|34=5|49=AMGTOBVC|56=ADRARB_XTSE_TOBVC|52=20150609-11:20:11.452|10=085|
20150609-11:20:11.391: 8=FIX.4.4|9=68|35=0|34=5|49=ADRARB_XTSE_TOBVC|52=20150609-11:20:11.391|56=AMGTOBVC|10=087|
20150609-11:21:11.600: 8=FIX.4.4|9=68|35=0|34=6|49=ADRARB_XTSE_TOBVC|52=20150609-11:21:11.600|56=AMGTOBVC|10=082|
20150609-11:21:11.714: 8=FIX.4.4|9=68|35=0|34=6|49=AMGTOBVC|56=ADRARB_XTSE_TOBVC|52=20150609-11:21:11.779|10=099|
20150609-11:22:11.600: 8=FIX.4.4|9=68|35=0|34=7|49=ADRARB_XTSE_TOBVC|52=20150609-11:22:11.600|56=AMGTOBVC|10=084|
20150609-11:22:12.085: 8=FIX.4.4|9=68|35=0|34=7|49=AMGTOBVC|56=ADRARB_XTSE_TOBVC|52=20150609-11:22:12.152|10=087|
20150609-11:23:11.600: 8=FIX.4.4|9=68|35=0|34=8|49=ADRARB_XTSE_TOBVC|52=20150609-11:23:11.600|56=AMGTOBVC|10=086|
20150609-11:23:12.411: 8=FIX.4.4|9=68|35=0|34=8|49=AMGTOBVC|56=ADRARB_XTSE_TOBVC|52=20150609-11:23:12.478|10=100|
20150609-11:24:11.600: 8=FIX.4.4|9=68|35=0|34=9|49=ADRARB_XTSE_TOBVC|52=20150609-11:24:11.600|56=AMGTOBVC|10=088|
20150609-11:24:12.950: 8=FIX.4.4|9=68|35=0|34=9|49=AMGTOBVC|56=ADRARB_XTSE_TOBVC|52=20150609-11:24:13.007|10=091|
20150609-11:25:11.601: 8=FIX.4.4|9=69|35=0|34=10|49=ADRARB_XTSE_TOBVC|52=20150609-11:25:11.601|56=AMGTOBVC|10=131|
20150609-11:25:13.295: 8=FIX.4.4|9=69|35=0|34=10|49=AMGTOBVC|56=ADRARB_XTSE_TOBVC|52=20150609-11:25:13.365|10=140|
20150609-11:26:11.601: 8=FIX.4.4|9=69|35=0|34=11|49=ADRARB_XTSE_TOBVC|52=20150609-11:26:11.601|56=AMGTOBVC|10=133|
20150609-11:26:13.620: 8=FIX.4.4|9=69|35=0|34=11|49=AMGTOBVC|56=ADRARB_XTSE_TOBVC|52=20150609-11:26:13.691|10=144|
20150609-11:27:12.600: 8=FIX.4.4|9=69|35=0|34=12|49=ADRARB_XTSE_TOBVC|52=20150609-11:27:12.600|56=AMGTOBVC|10=135|
20150609-11:27:13.947: 8=FIX.4.4|9=69|35=0|34=12|49=AMGTOBVC|56=ADRARB_XTSE_TOBVC|52=20150609-11:27:14.018|10=140|
20150609-11:28:12.601: 8=FIX.4.4|9=69|35=0|34=13|49=ADRARB_XTSE_TOBVC|52=20150609-11:28:12.601|56=AMGTOBVC|10=138|
20150609-11:28:14.272: 8=FIX.4.4|9=69|35=0|34=13|49=AMGTOBVC|56=ADRARB_XTSE_TOBVC|52=20150609-11:28:14.344|10=144|
20150609-11:29:13.601: 8=FIX.4.4|9=69|35=0|34=14|49=ADRARB_XTSE_TOBVC|52=20150609-11:29:13.601|56=AMGTOBVC|10=141|
20150609-11:29:14.642: 8=FIX.4.4|9=69|35=0|34=14|49=AMGTOBVC|56=ADRARB_XTSE_TOBVC|52=20150609-11:29:14.717|10=150|
20150609-11:30:14.601: 8=FIX.4.4|9=69|35=0|34=15|49=ADRARB_XTSE_TOBVC|52=20150609-11:30:14.601|56=AMGTOBVC|10=135|
20150609-11:30:14.997: 8=FIX.4.4|9=69|35=0|34=15|49=AMGTOBVC|56=ADRARB_XTSE_TOBVC|52=20150609-11:30:15.075|10=141|
20150609-11:31:15.364: 8=FIX.4.4|9=69|35=0|34=16|49=AMGTOBVC|56=ADRARB_XTSE_TOBVC|52=20150609-11:31:15.432|10=140|
20150609-11:31:15.364: 8=FIX.4.4|9=69|35=0|34=16|49=ADRARB_XTSE_TOBVC|52=20150609-11:31:15.364|56=AMGTOBVC|10=144|
20150609-11:32:15.600: 8=FIX.4.4|9=69|35=0|34=17|49=ADRARB_XTSE_TOBVC|52=20150609-11:32:15.600|56=AMGTOBVC|10=139|
20150609-11:32:15.744: 8=FIX.4.4|9=69|35=0|34=17|49=AMGTOBVC|56=ADRARB_XTSE_TOBVC|52=20150609-11:32:15.821|10=144|
20150609-11:33:15.601: 8=FIX.4.4|9=69|35=0|34=18|49=ADRARB_XTSE_TOBVC|52=20150609-11:33:15.601|56=AMGTOBVC|10=142|
20150609-11:33:16.149: 8=FIX.4.4|9=69|35=0|34=18|49=AMGTOBVC|56=ADRARB_XTSE_TOBVC|52=20150609-11:33:16.225|10=145|
20150609-11:34:16.579: 8=FIX.4.4|9=69|35=0|34=19|49=AMGTOBVC|56=ADRARB_XTSE_TOBVC|52=20150609-11:34:16.656|10=155|
20150609-11:34:16.579: 8=FIX.4.4|9=69|35=0|34=19|49=ADRARB_XTSE_TOBVC|52=20150609-11:34:16.579|56=AMGTOBVC|10=159|
20150609-11:35:16.600: 8=FIX.4.4|9=69|35=0|34=20|49=ADRARB_XTSE_TOBVC|52=20150609-11:35:16.600|56=AMGTOBVC|10=137|
20150609-11:35:16.966: 8=FIX.4.4|9=69|35=0|34=20|49=AMGTOBVC|56=ADRARB_XTSE_TOBVC|52=20150609-11:35:17.035|10=140|
20150609-11:36:16.601: 8=FIX.4.4|9=69|35=0|34=21|49=ADRARB_XTSE_TOBVC|52=20150609-11:36:16.601|56=AMGTOBVC|10=140|
20150609-11:36:17.371: 8=FIX.4.4|9=69|35=0|34=21|49=AMGTOBVC|56=ADRARB_XTSE_TOBVC|52=20150609-11:36:17.429|10=149|
20150609-11:37:17.600: 8=FIX.4.4|9=69|35=0|34=22|49=ADRARB_XTSE_TOBVC|52=20150609-11:37:17.600|56=AMGTOBVC|10=142|
20150609-11:37:17.820: 8=FIX.4.4|9=69|35=0|34=22|49=AMGTOBVC|56=ADRARB_XTSE_TOBVC|52=20150609-11:37:17.870|10=151|
20150609-11:38:17.600: 8=FIX.4.4|9=69|35=0|34=23|49=ADRARB_XTSE_TOBVC|52=20150609-11:38:17.600|56=AMGTOBVC|10=144|
20150609-11:38:18.238: 8=FIX.4.4|9=69|35=0|34=23|49=AMGTOBVC|56=ADRARB_XTSE_TOBVC|52=20150609-11:38:18.280|10=149|
20150609-11:39:17.600: 8=FIX.4.4|9=69|35=0|34=24|49=ADRARB_XTSE_TOBVC|52=20150609-11:39:17.600|56=AMGTOBVC|10=146|
20150609-11:39:18.580: 8=FIX.4.4|9=69|35=0|34=24|49=AMGTOBVC|56=ADRARB_XTSE_TOBVC|52=20150609-11:39:18.615|10=153|
20150609-11:40:17.600: 8=FIX.4.4|9=69|35=0|34=25|49=ADRARB_XTSE_TOBVC|52=20150609-11:40:17.600|56=AMGTOBVC|10=139|
20150609-11:40:18.909: 8=FIX.4.4|9=69|35=0|34=25|49=AMGTOBVC|56=ADRARB_XTSE_TOBVC|52=20150609-11:40:18.938|10=154|
20150609-11:41:17.600: 8=FIX.4.4|9=69|35=0|34=26|49=ADRARB_XTSE_TOBVC|52=20150609-11:41:17.600|56=AMGTOBVC|10=141|
20150609-11:41:19.220: 8=FIX.4.4|9=69|35=0|34=26|49=AMGTOBVC|56=ADRARB_XTSE_TOBVC|52=20150609-11:41:19.246|10=149|
20150609-11:42:17.600: 8=FIX.4.4|9=69|35=0|34=27|49=ADRARB_XTSE_TOBVC|52=20150609-11:42:17.600|56=AMGTOBVC|10=143|
20150609-11:42:19.538: 8=FIX.4.4|9=69|35=0|34=27|49=AMGTOBVC|56=ADRARB_XTSE_TOBVC|52=20150609-11:42:19.568|10=158|
20150609-11:43:17.600: 8=FIX.4.4|9=69|35=0|34=28|49=ADRARB_XTSE_TOBVC|52=20150609-11:43:17.600|56=AMGTOBVC|10=145|
20150609-11:43:19.583: 8=FIX.4.4|9=69|35=0|34=28|49=AMGTOBVC|56=ADRARB_XTSE_TOBVC|52=20150609-11:43:19.610|10=148|
20150609-11:44:17.600: 8=FIX.4.4|9=69|35=0|34=29|49=ADRARB_XTSE_TOBVC|52=20150609-11:44:17.600|56=AMGTOBVC|10=147|
20150609-11:44:20.012: 8=FIX.4.4|9=69|35=0|34=29|49=AMGTOBVC|56=ADRARB_XTSE_TOBVC|52=20150609-11:44:20.028|10=145|
20150609-11:45:17.600: 8=FIX.4.4|9=69|35=0|34=30|49=ADRARB_XTSE_TOBVC|52=20150609-11:45:17.600|56=AMGTOBVC|10=140|
20150609-11:45:20.374: 8=FIX.4.4|9=69|35=0|34=30|49=AMGTOBVC|56=ADRARB_XTSE_TOBVC|52=20150609-11:45:20.400|10=132|
20150609-11:46:17.601: 8=FIX.4.4|9=69|35=0|34=31|49=ADRARB_XTSE_TOBVC|52=20150609-11:46:17.600|56=AMGTOBVC|10=142|
20150609-11:46:20.793: 8=FIX.4.4|9=69|35=0|34=31|49=AMGTOBVC|56=ADRARB_XTSE_TOBVC|52=20150609-11:46:20.819|10=148|
20150609-11:47:17.600: 8=FIX.4.4|9=69|35=0|34=32|49=ADRARB_XTSE_TOBVC|52=20150609-11:47:17.600|56=AMGTOBVC|10=144|
20150609-11:47:21.227: 8=FIX.4.4|9=69|35=0|34=32|49=AMGTOBVC|56=ADRARB_XTSE_TOBVC|52=20150609-11:47:21.253|10=143|
20150609-11:48:17.600: 8=FIX.4.4|9=69|35=0|34=33|49=ADRARB_XTSE_TOBVC|52=20150609-11:48:17.600|56=AMGTOBVC|10=146|
20150609-11:48:21.660: 8=FIX.4.4|9=69|35=0|34=33|49=AMGTOBVC|56=ADRARB_XTSE_TOBVC|52=20150609-11:48:21.688|10=157|
20150609-11:49:17.601: 8=FIX.4.4|9=69|35=0|34=34|49=ADRARB_XTSE_TOBVC|52=20150609-11:49:17.601|56=AMGTOBVC|10=149|
20150609-11:49:22.625: 8=FIX.4.4|9=69|35=0|34=34|49=AMGTOBVC|56=ADRARB_XTSE_TOBVC|52=20150609-11:49:22.653|10=152|
20150609-11:50:18.600: 8=FIX.4.4|9=69|35=0|34=35|49=ADRARB_XTSE_TOBVC|52=20150609-11:50:18.600|56=AMGTOBVC|10=142|
20150609-11:50:22.951: 8=FIX.4.4|9=69|35=0|34=35|49=AMGTOBVC|56=ADRARB_XTSE_TOBVC|52=20150609-11:50:22.979|10=156|
20150609-11:51:18.600: 8=FIX.4.4|9=69|35=0|34=36|49=ADRARB_XTSE_TOBVC|52=20150609-11:51:18.600|56=AMGTOBVC|10=144|
20150609-11:51:23.290: 8=FIX.4.4|9=69|35=0|34=36|49=AMGTOBVC|56=ADRARB_XTSE_TOBVC|52=20150609-11:51:23.321|10=140|
20150609-11:52:18.600: 8=FIX.4.4|9=69|35=0|34=37|49=ADRARB_XTSE_TOBVC|52=20150609-11:52:18.600|56=AMGTOBVC|10=146|
20150609-11:52:23.586: 8=FIX.4.4|9=69|35=0|34=37|49=AMGTOBVC|56=ADRARB_XTSE_TOBVC|52=20150609-11:52:23.615|10=148|
20150609-11:53:18.601: 8=FIX.4.4|9=69|35=0|34=38|49=ADRARB_XTSE_TOBVC|52=20150609-11:53:18.601|56=AMGTOBVC|10=149|
20150609-11:53:23.924: 8=FIX.4.4|9=69|35=0|34=38|49=AMGTOBVC|56=ADRARB_XTSE_TOBVC|52=20150609-11:53:23.957|10=159|
20150609-11:54:18.601: 8=FIX.4.4|9=69|35=0|34=39|49=ADRARB_XTSE_TOBVC|52=20150609-11:54:18.601|56=AMGTOBVC|10=151|
20150609-11:54:24.234: 8=FIX.4.4|9=69|35=0|34=39|49=AMGTOBVC|56=ADRARB_XTSE_TOBVC|52=20150609-11:54:24.267|10=156|
20150609-11:55:18.601: 8=FIX.4.4|9=69|35=0|34=40|49=ADRARB_XTSE_TOBVC|52=20150609-11:55:18.601|56=AMGTOBVC|10=144|
20150609-11:55:24.514: 8=FIX.4.4|9=69|35=0|34=40|49=AMGTOBVC|56=ADRARB_XTSE_TOBVC|52=20150609-11:55:24.547|10=150|
20150609-11:56:19.600: 8=FIX.4.4|9=69|35=0|34=41|49=ADRARB_XTSE_TOBVC|52=20150609-11:56:19.600|56=AMGTOBVC|10=146|
20150609-11:56:24.838: 8=FIX.4.4|9=69|35=0|34=41|49=AMGTOBVC|56=ADRARB_XTSE_TOBVC|52=20150609-11:56:24.873|10=154|
20150609-11:57:19.600: 8=FIX.4.4|9=69|35=0|34=42|49=ADRARB_XTSE_TOBVC|52=20150609-11:57:19.600|56=AMGTOBVC|10=148|
20150609-11:57:25.164: 8=FIX.4.4|9=69|35=0|34=42|49=AMGTOBVC|56=ADRARB_XTSE_TOBVC|52=20150609-11:57:25.199|10=158|
20150609-11:58:19.600: 8=FIX.4.4|9=69|35=0|34=43|49=ADRARB_XTSE_TOBVC|52=20150609-11:58:19.600|56=AMGTOBVC|10=150|
20150609-11:58:25.499: 8=FIX.4.4|9=69|35=0|34=43|49=AMGTOBVC|56=ADRARB_XTSE_TOBVC|52=20150609-11:58:25.525|10=153|
20150609-11:59:19.600: 8=FIX.4.4|9=69|35=0|34=44|49=ADRARB_XTSE_TOBVC|52=20150609-11:59:19.600|56=AMGTOBVC|10=152|
20150609-11:59:25.750: 8=FIX.4.4|9=69|35=0|34=44|49=AMGTOBVC|56=ADRARB_XTSE_TOBVC|52=20150609-11:59:25.788|10=166|
20150609-12:00:19.600: 8=FIX.4.4|9=69|35=0|34=45|49=ADRARB_XTSE_TOBVC|52=20150609-12:00:19.600|56=AMGTOBVC|10=140|
20150609-12:00:26.122: 8=FIX.4.4|9=69|35=0|34=45|49=AMGTOBVC|56=ADRARB_XTSE_TOBVC|52=20150609-12:00:26.162|10=141|
20150609-12:01:19.600: 8=FIX.4.4|9=69|35=0|34=46|49=ADRARB_XTSE_TOBVC|52=20150609-12:01:19.600|56=AMGTOBVC|10=142|
20150609-12:01:26.472: 8=FIX.4.4|9=69|35=0|34=46|49=AMGTOBVC|56=ADRARB_XTSE_TOBVC|52=20150609-12:01:26.503|10=142|
20150609-12:02:19.600: 8=FIX.4.4|9=69|35=0|34=47|49=ADRARB_XTSE_TOBVC|52=20150609-12:02:19.600|56=AMGTOBVC|10=144|
20150609-12:02:26.883: 8=FIX.4.4|9=69|35=0|34=47|49=AMGTOBVC|56=ADRARB_XTSE_TOBVC|52=20150609-12:02:26.923|10=150|
20150609-12:03:19.600: 8=FIX.4.4|9=69|35=0|34=48|49=ADRARB_XTSE_TOBVC|52=20150609-12:03:19.600|56=AMGTOBVC|10=146|
20150609-12:03:27.160: 8=FIX.4.4|9=69|35=0|34=48|49=AMGTOBVC|56=ADRARB_XTSE_TOBVC|52=20150609-12:03:27.203|10=144|
20150609-12:04:19.601: 8=FIX.4.4|9=69|35=0|34=49|49=ADRARB_XTSE_TOBVC|52=20150609-12:04:19.601|56=AMGTOBVC|10=149|
20150609-12:04:27.578: 8=FIX.4.4|9=69|35=0|34=49|49=AMGTOBVC|56=ADRARB_XTSE_TOBVC|52=20150609-12:04:27.623|10=152|
20150609-12:05:19.601: 8=FIX.4.4|9=69|35=0|34=50|49=ADRARB_XTSE_TOBVC|52=20150609-12:05:19.601|56=AMGTOBVC|10=142|
20150609-12:05:27.950: 8=FIX.4.4|9=69|35=0|34=50|49=AMGTOBVC|56=ADRARB_XTSE_TOBVC|52=20150609-12:05:27.996|10=158|
20150609-12:06:20.600: 8=FIX.4.4|9=69|35=0|34=51|49=ADRARB_XTSE_TOBVC|52=20150609-12:06:20.600|56=AMGTOBVC|10=135|
20150609-12:06:28.321: 8=FIX.4.4|9=69|35=0|34=51|49=AMGTOBVC|56=ADRARB_XTSE_TOBVC|52=20150609-12:06:28.369|10=155|
20150609-12:07:20.600: 8=FIX.4.4|9=69|35=0|34=52|49=ADRARB_XTSE_TOBVC|52=20150609-12:07:20.600|56=AMGTOBVC|10=137|
20150609-12:07:28.693: 8=FIX.4.4|9=69|35=0|34=52|49=AMGTOBVC|56=ADRARB_XTSE_TOBVC|52=20150609-12:07:28.742|10=152|
20150609-12:08:20.601: 8=FIX.4.4|9=69|35=0|34=53|49=ADRARB_XTSE_TOBVC|52=20150609-12:08:20.601|56=AMGTOBVC|10=140|
20150609-12:08:29.018: 8=FIX.4.4|9=69|35=0|34=53|49=AMGTOBVC|56=ADRARB_XTSE_TOBVC|52=20150609-12:08:29.069|10=157|
20150609-12:09:20.601: 8=FIX.4.4|9=69|35=0|34=54|49=ADRARB_XTSE_TOBVC|52=20150609-12:09:20.601|56=AMGTOBVC|10=142|
20150609-12:09:29.344: 8=FIX.4.4|9=69|35=0|34=54|49=AMGTOBVC|56=ADRARB_XTSE_TOBVC|52=20150609-12:09:29.395|10=161|
20150609-12:10:21.601: 8=FIX.4.4|9=69|35=0|34=55|49=ADRARB_XTSE_TOBVC|52=20150609-12:10:21.601|56=AMGTOBVC|10=136|
20150609-12:10:29.716: 8=FIX.4.4|9=69|35=0|34=55|49=AMGTOBVC|56=ADRARB_XTSE_TOBVC|52=20150609-12:10:29.768|10=158|
20150609-12:11:22.601: 8=FIX.4.4|9=69|35=0|34=56|49=ADRARB_XTSE_TOBVC|52=20150609-12:11:22.600|56=AMGTOBVC|10=138|
20150609-12:11:30.103: 8=FIX.4.4|9=69|35=0|34=56|49=AMGTOBVC|56=ADRARB_XTSE_TOBVC|52=20150609-12:11:30.157|10=144|
20150609-12:12:22.601: 8=FIX.4.4|9=69|35=0|34=57|49=ADRARB_XTSE_TOBVC|52=20150609-12:12:22.601|56=AMGTOBVC|10=141|
20150609-12:12:30.524: 8=FIX.4.4|9=69|35=0|34=57|49=AMGTOBVC|56=ADRARB_XTSE_TOBVC|52=20150609-12:12:30.561|10=145|
20150609-12:13:22.601: 8=FIX.4.4|9=69|35=0|34=58|49=ADRARB_XTSE_TOBVC|52=20150609-12:13:22.601|56=AMGTOBVC|10=143|
20150609-12:13:30.821: 8=FIX.4.4|9=69|35=0|34=58|49=AMGTOBVC|56=ADRARB_XTSE_TOBVC|52=20150609-12:13:30.872|10=152|
20150609-12:14:22.601: 8=FIX.4.4|9=69|35=0|34=59|49=ADRARB_XTSE_TOBVC|52=20150609-12:14:22.601|56=AMGTOBVC|10=145|
20150609-12:14:31.203: 8=FIX.4.4|9=69|35=0|34=59|49=AMGTOBVC|56=ADRARB_XTSE_TOBVC|52=20150609-12:14:31.261|10=147|
20150609-12:15:22.601: 8=FIX.4.4|9=69|35=0|34=60|49=ADRARB_XTSE_TOBVC|52=20150609-12:15:22.601|56=AMGTOBVC|10=138|
20150609-12:15:31.513: 8=FIX.4.4|9=69|35=0|34=60|49=AMGTOBVC|56=ADRARB_XTSE_TOBVC|52=20150609-12:15:31.572|10=145|
20150609-12:16:23.600: 8=FIX.4.4|9=69|35=0|34=61|49=ADRARB_XTSE_TOBVC|52=20150609-12:16:23.600|56=AMGTOBVC|10=140|
20150609-12:16:31.869: 8=FIX.4.4|9=69|35=0|34=61|49=AMGTOBVC|56=ADRARB_XTSE_TOBVC|52=20150609-12:16:31.929|10=153|
20150609-12:17:23.601: 8=FIX.4.4|9=69|35=0|34=62|49=ADRARB_XTSE_TOBVC|52=20150609-12:17:23.601|56=AMGTOBVC|10=143|
20150609-12:17:32.154: 8=FIX.4.4|9=69|35=0|34=62|49=AMGTOBVC|56=ADRARB_XTSE_TOBVC|52=20150609-12:17:32.209|10=147|
20150609-12:18:23.601: 8=FIX.4.4|9=69|35=0|34=63|49=ADRARB_XTSE_TOBVC|52=20150609-12:18:23.601|56=AMGTOBVC|10=145|
20150609-12:18:32.534: 8=FIX.4.4|9=69|35=0|34=63|49=AMGTOBVC|56=ADRARB_XTSE_TOBVC|52=20150609-12:18:32.598|10=160|
20150609-12:19:23.601: 8=FIX.4.4|9=69|35=0|34=64|49=ADRARB_XTSE_TOBVC|52=20150609-12:19:23.601|56=AMGTOBVC|10=147|
20150609-12:19:32.891: 8=FIX.4.4|9=69|35=0|34=64|49=AMGTOBVC|56=ADRARB_XTSE_TOBVC|52=20150609-12:19:32.955|10=159|
20150609-12:20:23.601: 8=FIX.4.4|9=69|35=0|34=65|49=ADRARB_XTSE_TOBVC|52=20150609-12:20:23.601|56=AMGTOBVC|10=140|
20150609-12:20:33.294: 8=FIX.4.4|9=69|35=0|34=65|49=AMGTOBVC|56=ADRARB_XTSE_TOBVC|52=20150609-12:20:33.360|10=143|
20150609-12:21:24.601: 8=FIX.4.4|9=69|35=0|34=66|49=ADRARB_XTSE_TOBVC|52=20150609-12:21:24.601|56=AMGTOBVC|10=143|
20150609-12:21:33.635: 8=FIX.4.4|9=69|35=0|34=66|49=AMGTOBVC|56=ADRARB_XTSE_TOBVC|52=20150609-12:21:33.701|10=144|
20150609-12:22:25.601: 8=FIX.4.4|9=69|35=0|34=67|49=ADRARB_XTSE_TOBVC|52=20150609-12:22:25.601|56=AMGTOBVC|10=146|
20150609-12:22:33.991: 8=FIX.4.4|9=69|35=0|34=67|49=AMGTOBVC|56=ADRARB_XTSE_TOBVC|52=20150609-12:22:34.059|10=153|
20150609-12:23:26.601: 8=FIX.4.4|9=69|35=0|34=68|49=ADRARB_XTSE_TOBVC|52=20150609-12:23:26.601|56=AMGTOBVC|10=149|
20150609-12:23:34.284: 8=FIX.4.4|9=69|35=0|34=68|49=AMGTOBVC|56=ADRARB_XTSE_TOBVC|52=20150609-12:23:34.354|10=153|
20150609-12:24:27.600: 8=FIX.4.4|9=69|35=0|34=69|49=ADRARB_XTSE_TOBVC|52=20150609-12:24:27.600|56=AMGTOBVC|10=151|
20150609-12:24:34.563: 8=FIX.4.4|9=69|35=0|34=69|49=AMGTOBVC|56=ADRARB_XTSE_TOBVC|52=20150609-12:24:34.634|10=156|
20150609-12:25:27.600: 8=FIX.4.4|9=69|35=0|34=70|49=ADRARB_XTSE_TOBVC|52=20150609-12:25:27.600|56=AMGTOBVC|10=144|
20150609-12:25:35.014: 8=FIX.4.4|9=69|35=0|34=70|49=AMGTOBVC|56=ADRARB_XTSE_TOBVC|52=20150609-12:25:35.085|10=150|
20150609-12:26:27.600: 8=FIX.4.4|9=69|35=0|34=71|49=ADRARB_XTSE_TOBVC|52=20150609-12:26:27.600|56=AMGTOBVC|10=146|
20150609-12:26:35.275: 8=FIX.4.4|9=69|35=0|34=71|49=AMGTOBVC|56=ADRARB_XTSE_TOBVC|52=20150609-12:26:35.349|10=155|
20150609-12:27:27.601: 8=FIX.4.4|9=69|35=0|34=72|49=ADRARB_XTSE_TOBVC|52=20150609-12:27:27.601|56=AMGTOBVC|10=149|
20150609-12:27:35.615: 8=FIX.4.4|9=69|35=0|34=72|49=AMGTOBVC|56=ADRARB_XTSE_TOBVC|52=20150609-12:27:35.691|10=157|
20150609-12:28:28.601: 8=FIX.4.4|9=69|35=0|34=73|49=ADRARB_XTSE_TOBVC|52=20150609-12:28:28.601|56=AMGTOBVC|10=152|
20150609-12:28:35.910: 8=FIX.4.4|9=69|35=0|34=73|49=AMGTOBVC|56=ADRARB_XTSE_TOBVC|52=20150609-12:28:35.986|10=166|
20150609-12:29:29.601: 8=FIX.4.4|9=69|35=0|34=74|49=ADRARB_XTSE_TOBVC|52=20150609-12:29:29.601|56=AMGTOBVC|10=155|
20150609-12:29:36.250: 8=FIX.4.4|9=69|35=0|34=74|49=AMGTOBVC|56=ADRARB_XTSE_TOBVC|52=20150609-12:29:36.328|10=159|
20150609-12:30:29.601: 8=FIX.4.4|9=69|35=0|34=75|49=ADRARB_XTSE_TOBVC|52=20150609-12:30:29.601|56=AMGTOBVC|10=148|
20150609-12:30:36.606: 8=FIX.4.4|9=69|35=0|34=75|49=AMGTOBVC|56=ADRARB_XTSE_TOBVC|52=20150609-12:30:36.686|10=159|
20150609-12:31:29.601: 8=FIX.4.4|9=69|35=0|34=76|49=ADRARB_XTSE_TOBVC|52=20150609-12:31:29.601|56=AMGTOBVC|10=150|
20150609-12:31:36.949: 8=FIX.4.4|9=69|35=0|34=76|49=AMGTOBVC|56=ADRARB_XTSE_TOBVC|52=20150609-12:31:37.027|10=151|
20150609-12:32:30.601: 8=FIX.4.4|9=69|35=0|34=77|49=ADRARB_XTSE_TOBVC|52=20150609-12:32:30.600|56=AMGTOBVC|10=143|
20150609-12:32:37.336: 8=FIX.4.4|9=69|35=0|34=77|49=AMGTOBVC|56=ADRARB_XTSE_TOBVC|52=20150609-12:32:37.416|10=155|
20150609-12:33:30.600: 8=FIX.4.4|9=69|35=0|34=78|49=ADRARB_XTSE_TOBVC|52=20150609-12:33:30.600|56=AMGTOBVC|10=145|
20150609-12:33:37.644: 8=FIX.4.4|9=69|35=0|34=78|49=AMGTOBVC|56=ADRARB_XTSE_TOBVC|52=20150609-12:33:37.727|10=162|
20150609-12:34:30.601: 8=FIX.4.4|9=69|35=0|34=79|49=ADRARB_XTSE_TOBVC|52=20150609-12:34:30.601|56=AMGTOBVC|10=148|
20150609-12:34:37.969: 8=FIX.4.4|9=69|35=0|34=79|49=AMGTOBVC|56=ADRARB_XTSE_TOBVC|52=20150609-12:34:38.045|10=158|
20150609-12:35:31.600: 8=FIX.4.4|9=69|35=0|34=80|49=ADRARB_XTSE_TOBVC|52=20150609-12:35:31.600|56=AMGTOBVC|10=141|
20150609-12:35:38.282: 8=FIX.4.4|9=69|35=0|34=80|49=AMGTOBVC|56=ADRARB_XTSE_TOBVC|52=20150609-12:35:38.345|10=154|
20150609-12:36:31.601: 8=FIX.4.4|9=69|35=0|34=81|49=ADRARB_XTSE_TOBVC|52=20150609-12:36:31.601|56=AMGTOBVC|10=144|
20150609-12:36:38.588: 8=FIX.4.4|9=69|35=0|34=81|49=AMGTOBVC|56=ADRARB_XTSE_TOBVC|52=20150609-12:36:38.646|10=160|
20150609-12:37:32.600: 8=FIX.4.4|9=69|35=0|34=82|49=ADRARB_XTSE_TOBVC|52=20150609-12:37:32.600|56=AMGTOBVC|10=146|
20150609-12:37:39.175: 8=FIX.4.4|9=69|35=0|34=82|49=AMGTOBVC|56=ADRARB_XTSE_TOBVC|52=20150609-12:37:39.212|10=152|
20150609-12:38:32.601: 8=FIX.4.4|9=69|35=0|34=83|49=ADRARB_XTSE_TOBVC|52=20150609-12:38:32.601|56=AMGTOBVC|10=149|
20150609-12:38:39.457: 8=FIX.4.4|9=69|35=0|34=83|49=AMGTOBVC|56=ADRARB_XTSE_TOBVC|52=20150609-12:38:39.497|10=169|
20150609-12:39:33.600: 8=FIX.4.4|9=69|35=0|34=84|49=ADRARB_XTSE_TOBVC|52=20150609-12:39:33.600|56=AMGTOBVC|10=151|
20150609-12:39:39.894: 8=FIX.4.4|9=69|35=0|34=84|49=AMGTOBVC|56=ADRARB_XTSE_TOBVC|52=20150609-12:39:39.928|10=170|
20150609-12:40:33.600: 8=FIX.4.4|9=69|35=0|34=85|49=ADRARB_XTSE_TOBVC|52=20150609-12:40:33.600|56=AMGTOBVC|10=144|
20150609-12:40:40.272: 8=FIX.4.4|9=69|35=0|34=85|49=AMGTOBVC|56=ADRARB_XTSE_TOBVC|52=20150609-12:40:40.298|10=155|
20150609-12:41:33.601: 8=FIX.4.4|9=69|35=0|34=86|49=ADRARB_XTSE_TOBVC|52=20150609-12:41:33.601|56=AMGTOBVC|10=147|
20150609-12:41:40.610: 8=FIX.4.4|9=69|35=0|34=86|49=AMGTOBVC|56=ADRARB_XTSE_TOBVC|52=20150609-12:41:40.637|10=154|
20150609-12:42:34.600: 8=FIX.4.4|9=69|35=0|34=87|49=ADRARB_XTSE_TOBVC|52=20150609-12:42:34.600|56=AMGTOBVC|10=149|
20150609-12:42:41.021: 8=FIX.4.4|9=69|35=0|34=87|49=AMGTOBVC|56=ADRARB_XTSE_TOBVC|52=20150609-12:42:41.054|10=150|
20150609-12:43:34.600: 8=FIX.4.4|9=69|35=0|34=88|49=ADRARB_XTSE_TOBVC|52=20150609-12:43:34.600|56=AMGTOBVC|10=151|
20150609-12:43:41.316: 8=FIX.4.4|9=69|35=0|34=88|49=AMGTOBVC|56=ADRARB_XTSE_TOBVC|52=20150609-12:43:41.346|10=156|
20150609-12:44:34.600: 8=FIX.4.4|9=69|35=0|34=89|49=ADRARB_XTSE_TOBVC|52=20150609-12:44:34.600|56=AMGTOBVC|10=153|
20150609-12:44:41.669: 8=FIX.4.4|9=69|35=0|34=89|49=AMGTOBVC|56=ADRARB_XTSE_TOBVC|52=20150609-12:44:41.685|10=164|
20150609-12:45:34.601: 8=FIX.4.4|9=69|35=0|34=90|49=ADRARB_XTSE_TOBVC|52=20150609-12:45:34.601|56=AMGTOBVC|10=147|
20150609-12:45:41.984: 8=FIX.4.4|9=69|35=0|34=90|49=AMGTOBVC|56=ADRARB_XTSE_TOBVC|52=20150609-12:45:42.010|10=140|
20150609-12:46:34.604: 8=FIX.4.4|9=69|35=0|34=91|49=ADRARB_XTSE_TOBVC|52=20150609-12:46:34.604|56=AMGTOBVC|10=152|
20150609-12:46:42.337: 8=FIX.4.4|9=69|35=0|34=91|49=AMGTOBVC|56=ADRARB_XTSE_TOBVC|52=20150609-12:46:42.366|10=156|
20150609-12:47:35.601: 8=FIX.4.4|9=69|35=0|34=92|49=ADRARB_XTSE_TOBVC|52=20150609-12:47:35.601|56=AMGTOBVC|10=152|
20150609-12:47:42.681: 8=FIX.4.4|9=69|35=0|34=92|49=AMGTOBVC|56=ADRARB_XTSE_TOBVC|52=20150609-12:47:42.707|10=157|
20150609-12:48:36.600: 8=FIX.4.4|9=69|35=0|34=93|49=ADRARB_XTSE_TOBVC|52=20150609-12:48:36.600|56=AMGTOBVC|10=154|
20150609-12:48:43.035: 8=FIX.4.4|9=69|35=0|34=93|49=AMGTOBVC|56=ADRARB_XTSE_TOBVC|52=20150609-12:48:43.063|10=155|
20150609-12:49:36.601: 8=FIX.4.4|9=69|35=0|34=94|49=ADRARB_XTSE_TOBVC|52=20150609-12:49:36.600|56=AMGTOBVC|10=156|
20150609-12:49:43.391: 8=FIX.4.4|9=69|35=0|34=94|49=AMGTOBVC|56=ADRARB_XTSE_TOBVC|52=20150609-12:49:43.420|10=154|
20150609-12:50:36.601: 8=FIX.4.4|9=69|35=0|34=95|49=ADRARB_XTSE_TOBVC|52=20150609-12:50:36.601|56=AMGTOBVC|10=150|
20150609-12:50:43.718: 8=FIX.4.4|9=69|35=0|34=95|49=AMGTOBVC|56=ADRARB_XTSE_TOBVC|52=20150609-12:50:43.746|10=158|
20150609-12:51:37.600: 8=FIX.4.4|9=69|35=0|34=96|49=ADRARB_XTSE_TOBVC|52=20150609-12:51:37.600|56=AMGTOBVC|10=152|
20150609-12:51:44.112: 8=FIX.4.4|9=69|35=0|34=96|49=AMGTOBVC|56=ADRARB_XTSE_TOBVC|52=20150609-12:51:44.134|10=152|
20150609-12:52:37.600: 8=FIX.4.4|9=69|35=0|34=97|49=ADRARB_XTSE_TOBVC|52=20150609-12:52:37.600|56=AMGTOBVC|10=154|
20150609-12:52:44.539: 8=FIX.4.4|9=69|35=0|34=97|49=AMGTOBVC|56=ADRARB_XTSE_TOBVC|52=20150609-12:52:44.569|10=166|
20150609-12:53:37.600: 8=FIX.4.4|9=69|35=0|34=98|49=ADRARB_XTSE_TOBVC|52=20150609-12:53:37.600|56=AMGTOBVC|10=156|
20150609-12:53:44.863: 8=FIX.4.4|9=69|35=0|34=98|49=AMGTOBVC|56=ADRARB_XTSE_TOBVC|52=20150609-12:53:44.895|10=170|
20150609-12:54:37.601: 8=FIX.4.4|9=69|35=0|34=99|49=ADRARB_XTSE_TOBVC|52=20150609-12:54:37.601|56=AMGTOBVC|10=159|
20150609-12:54:45.079: 8=FIX.4.4|9=69|35=0|34=99|49=AMGTOBVC|56=ADRARB_XTSE_TOBVC|52=20150609-12:54:45.112|10=155|
20150609-12:55:38.600: 8=FIX.4.4|9=70|35=0|34=100|49=ADRARB_XTSE_TOBVC|52=20150609-12:55:38.600|56=AMGTOBVC|10=183|
20150609-12:55:45.497: 8=FIX.4.4|9=70|35=0|34=100|49=AMGTOBVC|56=ADRARB_XTSE_TOBVC|52=20150609-12:55:45.532|10=185|
20150609-12:56:38.600: 8=FIX.4.4|9=70|35=0|34=101|49=ADRARB_XTSE_TOBVC|52=20150609-12:56:38.600|56=AMGTOBVC|10=185|
20150609-12:56:45.795: 8=FIX.4.4|9=70|35=0|34=101|49=AMGTOBVC|56=ADRARB_XTSE_TOBVC|52=20150609-12:56:45.827|10=194|
20150609-12:57:38.601: 8=FIX.4.4|9=70|35=0|34=102|49=ADRARB_XTSE_TOBVC|52=20150609-12:57:38.601|56=AMGTOBVC|10=188|
20150609-12:57:46.101: 8=FIX.4.4|9=70|35=0|34=102|49=AMGTOBVC|56=ADRARB_XTSE_TOBVC|52=20150609-12:57:46.138|10=192|
20150609-12:58:38.601: 8=FIX.4.4|9=70|35=0|34=103|49=ADRARB_XTSE_TOBVC|52=20150609-12:58:38.601|56=AMGTOBVC|10=190|
20150609-12:58:46.491: 8=FIX.4.4|9=70|35=0|34=103|49=AMGTOBVC|56=ADRARB_XTSE_TOBVC|52=20150609-12:58:46.527|10=196|
20150609-12:59:39.600: 8=FIX.4.4|9=70|35=0|34=104|49=ADRARB_XTSE_TOBVC|52=20150609-12:59:39.600|56=AMGTOBVC|10=192|
20150609-12:59:46.829: 8=FIX.4.4|9=70|35=0|34=104|49=AMGTOBVC|56=ADRARB_XTSE_TOBVC|52=20150609-12:59:46.869|10=207|
20150609-13:00:39.600: 8=FIX.4.4|9=70|35=0|34=105|49=ADRARB_XTSE_TOBVC|52=20150609-13:00:39.600|56=AMGTOBVC|10=180|
20150609-13:00:47.217: 8=FIX.4.4|9=70|35=0|34=105|49=AMGTOBVC|56=ADRARB_XTSE_TOBVC|52=20150609-13:00:47.226|10=183|
20150609-13:01:39.601: 8=FIX.4.4|9=70|35=0|34=106|49=ADRARB_XTSE_TOBVC|52=20150609-13:01:39.601|56=AMGTOBVC|10=183|
20150609-13:01:47.636: 8=FIX.4.4|9=70|35=0|34=106|49=AMGTOBVC|56=ADRARB_XTSE_TOBVC|52=20150609-13:01:47.677|10=195|
20150609-13:02:39.601: 8=FIX.4.4|9=70|35=0|34=107|49=ADRARB_XTSE_TOBVC|52=20150609-13:02:39.601|56=AMGTOBVC|10=185|
20150609-13:02:48.069: 8=FIX.4.4|9=70|35=0|34=107|49=AMGTOBVC|56=ADRARB_XTSE_TOBVC|52=20150609-13:02:48.113|10=183|
20150609-13:03:39.601: 8=FIX.4.4|9=70|35=0|34=108|49=ADRARB_XTSE_TOBVC|52=20150609-13:03:39.601|56=AMGTOBVC|10=187|
20150609-13:03:48.378: 8=FIX.4.4|9=70|35=0|34=108|49=AMGTOBVC|56=ADRARB_XTSE_TOBVC|52=20150609-13:03:48.424|10=190|
20150609-13:04:40.600: 8=FIX.4.4|9=70|35=0|34=109|49=ADRARB_XTSE_TOBVC|52=20150609-13:04:40.600|56=AMGTOBVC|10=180|
20150609-13:04:48.703: 8=FIX.4.4|9=70|35=0|34=109|49=AMGTOBVC|56=ADRARB_XTSE_TOBVC|52=20150609-13:04:48.750|10=194|
20150609-13:05:40.600: 8=FIX.4.4|9=70|35=0|34=110|49=ADRARB_XTSE_TOBVC|52=20150609-13:05:40.600|56=AMGTOBVC|10=173|
20150609-13:05:49.097: 8=FIX.4.4|9=70|35=0|34=110|49=AMGTOBVC|56=ADRARB_XTSE_TOBVC|52=20150609-13:05:49.139|10=189|
20150609-13:06:40.600: 8=FIX.4.4|9=70|35=0|34=111|49=ADRARB_XTSE_TOBVC|52=20150609-13:06:40.600|56=AMGTOBVC|10=175|
20150609-13:06:49.401: 8=FIX.4.4|9=70|35=0|34=111|49=AMGTOBVC|56=ADRARB_XTSE_TOBVC|52=20150609-13:06:49.450|10=187|
20150609-13:07:40.600: 8=FIX.4.4|9=70|35=0|34=112|49=ADRARB_XTSE_TOBVC|52=20150609-13:07:40.600|56=AMGTOBVC|10=177|
20150609-13:07:49.741: 8=FIX.4.4|9=70|35=0|34=112|49=AMGTOBVC|56=ADRARB_XTSE_TOBVC|52=20150609-13:07:49.791|10=197|
20150609-13:08:40.603: 8=FIX.4.4|9=70|35=0|34=113|49=ADRARB_XTSE_TOBVC|52=20150609-13:08:40.603|56=AMGTOBVC|10=182|
20150609-13:08:50.024: 8=FIX.4.4|9=70|35=0|34=113|49=AMGTOBVC|56=ADRARB_XTSE_TOBVC|52=20150609-13:08:50.071|10=182|
20150609-13:09:41.600: 8=FIX.4.4|9=70|35=0|34=114|49=ADRARB_XTSE_TOBVC|52=20150609-13:09:41.600|56=AMGTOBVC|10=182|
20150609-13:09:50.330: 8=FIX.4.4|9=70|35=0|34=114|49=AMGTOBVC|56=ADRARB_XTSE_TOBVC|52=20150609-13:09:50.382|10=189|
20150609-13:10:41.600: 8=FIX.4.4|9=70|35=0|34=115|49=ADRARB_XTSE_TOBVC|52=20150609-13:10:41.600|56=AMGTOBVC|10=175|
20150609-13:10:50.670: 8=FIX.4.4|9=70|35=0|34=115|49=AMGTOBVC|56=ADRARB_XTSE_TOBVC|52=20150609-13:10:50.724|10=182|
20150609-13:11:41.601: 8=FIX.4.4|9=70|35=0|34=116|49=ADRARB_XTSE_TOBVC|52=20150609-13:11:41.601|56=AMGTOBVC|10=178|
20150609-13:11:50.949: 8=FIX.4.4|9=70|35=0|34=116|49=AMGTOBVC|56=ADRARB_XTSE_TOBVC|52=20150609-13:11:51.003|10=175|
20150609-13:12:42.601: 8=FIX.4.4|9=70|35=0|34=117|49=ADRARB_XTSE_TOBVC|52=20150609-13:12:42.600|56=AMGTOBVC|10=180|
20150609-13:12:51.399: 8=FIX.4.4|9=70|35=0|34=117|49=AMGTOBVC|56=ADRARB_XTSE_TOBVC|52=20150609-13:12:51.439|10=190|
20150609-13:13:42.600: 8=FIX.4.4|9=70|35=0|34=118|49=ADRARB_XTSE_TOBVC|52=20150609-13:13:42.600|56=AMGTOBVC|10=182|
20150609-13:13:51.709: 8=FIX.4.4|9=70|35=0|34=118|49=AMGTOBVC|56=ADRARB_XTSE_TOBVC|52=20150609-13:13:51.765|10=194|
20150609-13:14:42.600: 8=FIX.4.4|9=70|35=0|34=119|49=ADRARB_XTSE_TOBVC|52=20150609-13:14:42.600|56=AMGTOBVC|10=184|
20150609-13:14:52.120: 8=FIX.4.4|9=70|35=0|34=119|49=AMGTOBVC|56=ADRARB_XTSE_TOBVC|52=20150609-13:14:52.170|10=187|
20150609-13:15:42.600: 8=FIX.4.4|9=70|35=0|34=120|49=ADRARB_XTSE_TOBVC|52=20150609-13:15:42.600|56=AMGTOBVC|10=177|
20150609-13:15:52.419: 8=FIX.4.4|9=70|35=0|34=120|49=AMGTOBVC|56=ADRARB_XTSE_TOBVC|52=20150609-13:15:52.480|10=184|
20150609-13:16:42.600: 8=FIX.4.4|9=70|35=0|34=121|49=ADRARB_XTSE_TOBVC|52=20150609-13:16:42.600|56=AMGTOBVC|10=179|
20150609-13:16:52.753: 8=FIX.4.4|9=70|35=0|34=121|49=AMGTOBVC|56=ADRARB_XTSE_TOBVC|52=20150609-13:16:52.807|10=189|
20150609-13:17:42.600: 8=FIX.4.4|9=70|35=0|34=122|49=ADRARB_XTSE_TOBVC|52=20150609-13:17:42.600|56=AMGTOBVC|10=181|
20150609-13:17:53.038: 8=FIX.4.4|9=70|35=0|34=122|49=AMGTOBVC|56=ADRARB_XTSE_TOBVC|52=20150609-13:17:53.102|10=180|
20150609-13:18:42.600: 8=FIX.4.4|9=70|35=0|34=123|49=ADRARB_XTSE_TOBVC|52=20150609-13:18:42.600|56=AMGTOBVC|10=183|
20150609-13:18:53.363: 8=FIX.4.4|9=70|35=0|34=123|49=AMGTOBVC|56=ADRARB_XTSE_TOBVC|52=20150609-13:18:53.428|10=193|
20150609-13:19:42.601: 8=FIX.4.4|9=70|35=0|34=124|49=ADRARB_XTSE_TOBVC|52=20150609-13:19:42.601|56=AMGTOBVC|10=186|
20150609-13:19:53.689: 8=FIX.4.4|9=70|35=0|34=124|49=AMGTOBVC|56=ADRARB_XTSE_TOBVC|52=20150609-13:19:53.755|10=198|
20150609-13:20:42.601: 8=FIX.4.4|9=70|35=0|34=125|49=ADRARB_XTSE_TOBVC|52=20150609-13:20:42.601|56=AMGTOBVC|10=179|
20150609-13:20:54.015: 8=FIX.4.4|9=70|35=0|34=125|49=AMGTOBVC|56=ADRARB_XTSE_TOBVC|52=20150609-13:20:54.081|10=184|
20150609-13:21:43.600: 8=FIX.4.4|9=70|35=0|34=126|49=ADRARB_XTSE_TOBVC|52=20150609-13:21:43.600|56=AMGTOBVC|10=181|
20150609-13:21:54.400: 8=FIX.4.4|9=70|35=0|34=126|49=AMGTOBVC|56=ADRARB_XTSE_TOBVC|52=20150609-13:21:54.470|10=188|
20150609-13:22:43.601: 8=FIX.4.4|9=70|35=0|34=127|49=ADRARB_XTSE_TOBVC|52=20150609-13:22:43.601|56=AMGTOBVC|10=184|
20150609-13:22:54.725: 8=FIX.4.4|9=70|35=0|34=127|49=AMGTOBVC|56=ADRARB_XTSE_TOBVC|52=20150609-13:22:54.796|10=201|
20150609-13:23:43.601: 8=FIX.4.4|9=70|35=0|34=128|49=ADRARB_XTSE_TOBVC|52=20150609-13:23:43.601|56=AMGTOBVC|10=186|
20150609-13:23:54.989: 8=FIX.4.4|9=70|35=0|34=128|49=AMGTOBVC|56=ADRARB_XTSE_TOBVC|52=20150609-13:23:55.060|10=188|
20150609-13:24:44.601: 8=FIX.4.4|9=70|35=0|34=129|49=ADRARB_XTSE_TOBVC|52=20150609-13:24:44.601|56=AMGTOBVC|10=189|
20150609-13:24:55.314: 8=FIX.4.4|9=70|35=0|34=129|49=AMGTOBVC|56=ADRARB_XTSE_TOBVC|52=20150609-13:24:55.386|10=201|
20150609-13:25:44.601: 8=FIX.4.4|9=70|35=0|34=130|49=ADRARB_XTSE_TOBVC|52=20150609-13:25:44.601|56=AMGTOBVC|10=182|
20150609-13:25:55.686: 8=FIX.4.4|9=70|35=0|34=130|49=AMGTOBVC|56=ADRARB_XTSE_TOBVC|52=20150609-13:25:55.760|10=190|
20150609-13:26:44.601: 8=FIX.4.4|9=70|35=0|34=131|49=ADRARB_XTSE_TOBVC|52=20150609-13:26:44.601|56=AMGTOBVC|10=184|
20150609-13:26:56.026: 8=FIX.4.4|9=70|35=0|34=131|49=AMGTOBVC|56=ADRARB_XTSE_TOBVC|52=20150609-13:26:56.102|10=183|
20150609-13:27:45.600: 8=FIX.4.4|9=70|35=0|34=132|49=ADRARB_XTSE_TOBVC|52=20150609-13:27:45.600|56=AMGTOBVC|10=186|
20150609-13:27:56.335: 8=FIX.4.4|9=70|35=0|34=132|49=AMGTOBVC|56=ADRARB_XTSE_TOBVC|52=20150609-13:27:56.412|10=189|
20150609-13:28:45.600: 8=FIX.4.4|9=70|35=0|34=133|49=ADRARB_XTSE_TOBVC|52=20150609-13:28:45.600|56=AMGTOBVC|10=188|
20150609-13:28:56.661: 8=FIX.4.4|9=70|35=0|34=133|49=AMGTOBVC|56=ADRARB_XTSE_TOBVC|52=20150609-13:28:56.739|10=203|
20150609-13:29:45.600: 8=FIX.4.4|9=70|35=0|34=134|49=ADRARB_XTSE_TOBVC|52=20150609-13:29:45.600|56=AMGTOBVC|10=190|
20150609-13:29:56.830: 8=FIX.4.4|9=70|35=0|34=134|49=AMGTOBVC|56=ADRARB_XTSE_TOBVC|52=20150609-13:29:56.909|10=204|
20150609-13:30:13.955: 8=FIX.4.4|9=237|35=D|34=135|49=ADRARB_XTSE_TOBVC|52=20150609-13:30:13.954|56=AMGTOBVC|1=881|11=2e0241fbe294668|21=1|38=8000|40=2|44=11760|54=1|55=PREC|59=0|60=20150609-13:30:13.953|63=3|100=XBOG|207=XBOG|583=6a48341c323a4fcc|453=1|448=LVARB|447=D|452=1|10=061|
20150609-13:30:13.956: 8=FIX.4.4|9=238|35=D|34=136|49=ADRARB_XTSE_TOBVC|52=20150609-13:30:13.956|56=AMGTOBVC|1=881|11=-70a1a2431a44bcc2|21=1|38=6000|40=2|44=6070|54=1|55=CNEC|59=0|60=20150609-13:30:13.955|63=3|100=XBOG|207=XBOG|583=-76abaff36eeb1c0|453=1|448=LVARB|447=D|452=1|10=048|
20150609-13:30:14.189: 8=FIX.4.4|9=324|35=8|57=062X01|128=LRVORBVC|115=BVC062|34=135|49=AMGTOBVC|56=ADRARB_XTSE_TOBVC|52=20150609-13:30:14.257|37=201506091167|11=2e0241fbe294668|17=5648|150=0|39=0|63=4|48=PREC|22=99|167=CS|54=1|38=8000|40=2|44=11760|59=0|151=8000|14=0|60=20150609-13:30:14.000|31=0|32=0|6=0|55=PREC|453=1|448=062|447=D|452=1|583=6a48341c323a4fcc|10=093|
20150609-13:30:14.217: 8=FIX.4.4|9=325|35=8|57=062X01|128=LRVORBVC|115=BVC062|34=136|49=AMGTOBVC|56=ADRARB_XTSE_TOBVC|52=20150609-13:30:14.272|37=201506091168|11=-70a1a2431a44bcc2|17=5649|150=0|39=0|63=4|48=CNEC|22=99|167=CS|54=1|38=6000|40=2|44=6070|59=0|151=6000|14=0|60=20150609-13:30:14.000|31=0|32=0|6=0|55=CNEC|453=1|448=062|447=D|452=1|583=-76abaff36eeb1c0|10=056|
20150609-13:30:14.625: 8=FIX.4.4|9=238|35=D|34=137|49=ADRARB_XTSE_TOBVC|52=20150609-13:30:14.625|56=AMGTOBVC|1=881|11=6a89a690629842c4|21=1|38=7000|40=2|44=11860|54=2|55=PREC|59=0|60=20150609-13:30:14.625|63=3|100=XBOG|207=XBOG|583=6a48341c323a4fcc|453=1|448=LVARB|447=D|452=1|10=074|
20150609-13:30:14.626: 8=FIX.4.4|9=237|35=D|34=138|49=ADRARB_XTSE_TOBVC|52=20150609-13:30:14.626|56=AMGTOBVC|1=881|11=1f7252201b634510|21=1|38=6000|40=2|44=6180|54=2|55=CNEC|59=0|60=20150609-13:30:14.626|63=3|100=XBOG|207=XBOG|583=-76abaff36eeb1c0|453=1|448=LVARB|447=D|452=1|10=070|
20150609-13:30:14.738: 8=FIX.4.4|9=325|35=8|57=062X01|128=LRVORBVC|115=BVC062|34=137|49=AMGTOBVC|56=ADRARB_XTSE_TOBVC|52=20150609-13:30:14.803|37=201506091174|11=6a89a690629842c4|17=5656|150=0|39=0|63=4|48=PREC|22=99|167=CS|54=2|38=7000|40=2|44=11860|59=0|151=7000|14=0|60=20150609-13:30:14.000|31=0|32=0|6=0|55=PREC|453=1|448=062|447=D|452=1|583=6a48341c323a4fcc|10=106|
20150609-13:30:14.740: 8=FIX.4.4|9=324|35=8|57=062X01|128=LRVORBVC|115=BVC062|34=138|49=AMGTOBVC|56=ADRARB_XTSE_TOBVC|52=20150609-13:30:14.818|37=201506091175|11=1f7252201b634510|17=5657|150=0|39=0|63=4|48=CNEC|22=99|167=CS|54=2|38=6000|40=2|44=6180|59=0|151=6000|14=0|60=20150609-13:30:14.000|31=0|32=0|6=0|55=CNEC|453=1|448=062|447=D|452=1|583=-76abaff36eeb1c0|10=090|
20150609-13:30:17.786: 8=FIX.4.4|9=257|35=G|34=139|49=ADRARB_XTSE_TOBVC|52=20150609-13:30:17.786|56=AMGTOBVC|1=881|11=36def21219d44c5|21=1|38=7000|40=2|41=6a89a690629842c4|44=11840|54=2|55=PREC|59=0|60=20150609-13:30:17.785|63=3|100=XBOG|207=XBOG|583=6a48341c323a4fcc|453=1|448=LVARB|447=D|452=1|10=001|
20150609-13:30:17.790: 8=FIX.4.4|9=258|35=G|34=140|49=ADRARB_XTSE_TOBVC|52=20150609-13:30:17.790|56=AMGTOBVC|1=881|11=-3356532cc76ab497|21=1|38=8000|40=2|41=2e0241fbe294668|44=11740|54=1|55=PREC|59=0|60=20150609-13:30:17.790|63=3|100=XBOG|207=XBOG|583=6a48341c323a4fcc|453=1|448=LVARB|447=D|452=1|10=023|
20150609-13:30:17.906: 8=FIX.4.4|9=344|35=8|57=062X01|128=LRVORBVC|115=BVC062|34=139|49=AMGTOBVC|56=ADRARB_XTSE_TOBVC|52=20150609-13:30:17.969|37=201506091174|11=36def21219d44c5|41=6a89a690629842c4|17=5701|150=5|39=0|63=4|48=PREC|22=99|167=CS|54=2|38=7000|40=2|44=11840|59=0|151=7000|14=0|60=20150609-13:30:17.000|31=0|32=0|6=0|55=PREC|453=1|448=062|447=D|452=1|583=6a48341c323a4fcc|10=024|
20150609-13:30:17.908: 8=FIX.4.4|9=258|35=G|34=141|49=ADRARB_XTSE_TOBVC|52=20150609-13:30:17.907|56=AMGTOBVC|1=881|11=-17865705e211b489|21=1|38=7000|40=2|41=36def21219d44c5|44=11820|54=2|55=PREC|59=0|60=20150609-13:30:17.907|63=3|100=XBOG|207=XBOG|583=6a48341c323a4fcc|453=1|448=LVARB|447=D|452=1|10=230|
20150609-13:30:17.912: 8=FIX.4.4|9=345|35=8|57=062X01|128=LRVORBVC|115=BVC062|34=140|49=AMGTOBVC|56=ADRARB_XTSE_TOBVC|52=20150609-13:30:17.985|37=201506091167|11=-3356532cc76ab497|41=2e0241fbe294668|17=5702|150=5|39=0|63=4|48=PREC|22=99|167=CS|54=1|38=8000|40=2|44=11740|59=0|151=8000|14=0|60=20150609-13:30:17.000|31=0|32=0|6=0|55=PREC|453=1|448=062|447=D|452=1|583=6a48341c323a4fcc|10=057|
20150609-13:30:18.012: 8=FIX.4.4|9=345|35=8|57=062X01|128=LRVORBVC|115=BVC062|34=141|49=AMGTOBVC|56=ADRARB_XTSE_TOBVC|52=20150609-13:30:18.079|37=201506091174|11=-17865705e211b489|41=36def21219d44c5|17=5707|150=5|39=0|63=4|48=PREC|22=99|167=CS|54=2|38=7000|40=2|44=11820|59=0|151=7000|14=0|60=20150609-13:30:17.000|31=0|32=0|6=0|55=PREC|453=1|448=062|447=D|452=1|583=6a48341c323a4fcc|10=005|
20150609-13:30:19.108: 8=FIX.4.4|9=256|35=G|34=142|49=ADRARB_XTSE_TOBVC|52=20150609-13:30:19.108|56=AMGTOBVC|1=881|11=89b4e559ac3487d|21=1|38=6000|40=2|41=1f7252201b634510|44=6190|54=2|55=CNEC|59=0|60=20150609-13:30:19.108|63=3|100=XBOG|207=XBOG|583=-76abaff36eeb1c0|453=1|448=LVARB|447=D|452=1|10=246|
20150609-13:30:19.216: 8=FIX.4.4|9=343|35=8|57=062X01|128=LRVORBVC|115=BVC062|34=142|49=AMGTOBVC|56=ADRARB_XTSE_TOBVC|52=20150609-13:30:19.295|37=201506091175|11=89b4e559ac3487d|41=1f7252201b634510|17=5732|150=5|39=0|63=4|48=CNEC|22=99|167=CS|54=2|38=6000|40=2|44=6190|59=0|151=6000|14=0|60=20150609-13:30:19.000|31=0|32=0|6=0|55=CNEC|453=1|448=062|447=D|452=1|583=-76abaff36eeb1c0|10=015|
20150609-13:30:19.227: 8=FIX.4.4|9=344|35=8|57=062X01|128=LRVORBVC|115=BVC062|34=143|49=AMGTOBVC|56=ADRARB_XTSE_TOBVC|52=20150609-13:30:19.295|37=201506091175|11=89b4e559ac3487d|17=5734S|150=F|39=2|63=4|64=20150612|48=CNEC|22=99|167=CS|54=2|38=6000|40=2|44=6190|59=0|32=6000|31=6190|151=0|14=6000|6=6190|75=20150609|60=20150609-13:30:19.169|381=37140000|55=CNEC|583=-76abaff36eeb1c0|10=100|
20150609-13:30:20.632: 8=FIX.4.4|9=259|35=G|34=143|49=ADRARB_XTSE_TOBVC|52=20150609-13:30:20.632|56=AMGTOBVC|1=881|11=-475186aa5823bbbf|21=1|38=6000|40=2|41=-70a1a2431a44bcc2|44=6150|54=1|55=CNEC|59=0|60=20150609-13:30:20.632|63=3|100=XBOG|207=XBOG|583=-76abaff36eeb1c0|453=1|448=LVARB|447=D|452=1|10=077|
20150609-13:30:20.747: 8=FIX.4.4|9=346|35=8|57=062X01|128=LRVORBVC|115=BVC062|34=144|49=AMGTOBVC|56=ADRARB_XTSE_TOBVC|52=20150609-13:30:20.809|37=201506091168|11=-475186aa5823bbbf|41=-70a1a2431a44bcc2|17=5761|150=5|39=0|63=4|48=CNEC|22=99|167=CS|54=1|38=6000|40=2|44=6150|59=0|151=6000|14=0|60=20150609-13:30:20.000|31=0|32=0|6=0|55=CNEC|453=1|448=062|447=D|452=1|583=-76abaff36eeb1c0|10=104|
20150609-13:30:21.349: 8=FIX.4.4|9=260|35=G|34=144|49=ADRARB_XTSE_TOBVC|52=20150609-13:30:21.349|56=AMGTOBVC|1=881|11=-320269487b02ba96|21=1|38=8000|40=2|41=-3356532cc76ab497|44=11760|54=1|55=PREC|59=0|60=20150609-13:30:21.349|63=3|100=XBOG|207=XBOG|583=6a48341c323a4fcc|453=1|448=LVARB|447=D|452=1|10=058|
20150609-13:30:21.456: 8=FIX.4.4|9=347|35=8|57=062X01|128=LRVORBVC|115=BVC062|34=145|49=AMGTOBVC|56=ADRARB_XTSE_TOBVC|52=20150609-13:30:21.526|37=201506091167|11=-320269487b02ba96|41=-3356532cc76ab497|17=5776|150=5|39=0|63=4|48=PREC|22=99|167=CS|54=1|38=8000|40=2|44=11760|59=0|151=8000|14=0|60=20150609-13:30:21.000|31=0|32=0|6=0|55=PREC|453=1|448=062|447=D|452=1|583=6a48341c323a4fcc|10=104|
20150609-13:30:23.249: 8=FIX.4.4|9=259|35=G|34=145|49=ADRARB_XTSE_TOBVC|52=20150609-13:30:23.249|56=AMGTOBVC|1=881|11=-bc673d5e64bba1e|21=1|38=7000|40=2|41=-17865705e211b489|44=11840|54=2|55=PREC|59=0|60=20150609-13:30:23.249|63=3|100=XBOG|207=XBOG|583=6a48341c323a4fcc|453=1|448=LVARB|447=D|452=1|10=159|
20150609-13:30:23.400: 8=FIX.4.4|9=346|35=8|57=062X01|128=LRVORBVC|115=BVC062|34=146|49=AMGTOBVC|56=ADRARB_XTSE_TOBVC|52=20150609-13:30:23.445|37=201506091174|11=-bc673d5e64bba1e|41=-17865705e211b489|17=5800|150=5|39=0|63=4|48=PREC|22=99|167=CS|54=2|38=7000|40=2|44=11840|59=0|151=7000|14=0|60=20150609-13:30:23.000|31=0|32=0|6=0|55=PREC|453=1|448=062|447=D|452=1|583=6a48341c323a4fcc|10=183|
20150609-13:30:29.738: 8=FIX.4.4|9=257|35=G|34=146|49=ADRARB_XTSE_TOBVC|52=20150609-13:30:29.738|56=AMGTOBVC|1=881|11=-889957eb25bd06|21=1|38=7000|40=2|41=-bc673d5e64bba1e|44=11860|54=2|55=PREC|59=0|60=20150609-13:30:29.738|63=3|100=XBOG|207=XBOG|583=6a48341c323a4fcc|453=1|448=LVARB|447=D|452=1|10=179|
20150609-13:30:29.741: 8=FIX.4.4|9=260|35=G|34=147|49=ADRARB_XTSE_TOBVC|52=20150609-13:30:29.741|56=AMGTOBVC|1=881|11=-5937f1c99191bf8b|21=1|38=8000|40=2|41=-320269487b02ba96|44=11780|54=1|55=PREC|59=0|60=20150609-13:30:29.741|63=3|100=XBOG|207=XBOG|583=6a48341c323a4fcc|453=1|448=LVARB|447=D|452=1|10=131|
20150609-13:30:29.847: 8=FIX.4.4|9=344|35=8|57=062X01|128=LRVORBVC|115=BVC062|34=147|49=AMGTOBVC|56=ADRARB_XTSE_TOBVC|52=20150609-13:30:29.919|37=201506091174|11=-889957eb25bd06|41=-bc673d5e64bba1e|17=5920|150=5|39=0|63=4|48=PREC|22=99|167=CS|54=2|38=7000|40=2|44=11860|59=0|151=7000|14=0|60=20150609-13:30:29.000|31=0|32=0|6=0|55=PREC|453=1|448=062|447=D|452=1|583=6a48341c323a4fcc|10=206|
20150609-13:30:29.852: 8=FIX.4.4|9=347|35=8|57=062X01|128=LRVORBVC|115=BVC062|34=148|49=AMGTOBVC|56=ADRARB_XTSE_TOBVC|52=20150609-13:30:29.919|37=201506091167|11=-5937f1c99191bf8b|41=-320269487b02ba96|17=5921|150=5|39=0|63=4|48=PREC|22=99|167=CS|54=1|38=8000|40=2|44=11780|59=0|151=8000|14=0|60=20150609-13:30:29.000|31=0|32=0|6=0|55=PREC|453=1|448=062|447=D|452=1|583=6a48341c323a4fcc|10=183|
20150609-13:30:30.212: 8=FIX.4.4|9=258|35=G|34=148|49=ADRARB_XTSE_TOBVC|52=20150609-13:30:30.212|56=AMGTOBVC|1=881|11=-62e86707c8e6b392|21=1|38=7000|40=2|41=-889957eb25bd06|44=11840|54=2|55=PREC|59=0|60=20150609-13:30:30.212|63=3|100=XBOG|207=XBOG|583=6a48341c323a4fcc|453=1|448=LVARB|447=D|452=1|10=017|
20150609-13:30:30.319: 8=FIX.4.4|9=345|35=8|57=062X01|128=LRVORBVC|115=BVC062|34=149|49=AMGTOBVC|56=ADRARB_XTSE_TOBVC|52=20150609-13:30:30.387|37=201506091174|11=-62e86707c8e6b392|41=-889957eb25bd06|17=5932|150=5|39=0|63=4|48=PREC|22=99|167=CS|54=2|38=7000|40=2|44=11840|59=0|151=7000|14=0|60=20150609-13:30:30.000|31=0|32=0|6=0|55=PREC|453=1|448=062|447=D|452=1|583=6a48341c323a4fcc|10=072|
20150609-13:30:30.321: 8=FIX.4.4|9=260|35=G|34=149|49=ADRARB_XTSE_TOBVC|52=20150609-13:30:30.320|56=AMGTOBVC|1=881|11=-1ebf8a709bc1b789|21=1|38=7000|40=2|41=-62e86707c8e6b392|44=11860|54=2|55=PREC|59=0|60=20150609-13:30:30.320|63=3|100=XBOG|207=XBOG|583=6a48341c323a4fcc|453=1|448=LVARB|447=D|452=1|10=252|
20150609-13:30:30.430: 8=FIX.4.4|9=347|35=8|57=062X01|128=LRVORBVC|115=BVC062|34=150|49=AMGTOBVC|56=ADRARB_XTSE_TOBVC|52=20150609-13:30:30.496|37=201506091174|11=-1ebf8a709bc1b789|41=-62e86707c8e6b392|17=5933|150=5|39=0|63=4|48=PREC|22=99|167=CS|54=2|38=7000|40=2|44=11860|59=0|151=7000|14=0|60=20150609-13:30:30.000|31=0|32=0|6=0|55=PREC|453=1|448=062|447=D|452=1|583=6a48341c323a4fcc|10=053|
20150609-13:30:49.014: 8=FIX.4.4|9=260|35=G|34=150|49=ADRARB_XTSE_TOBVC|52=20150609-13:30:49.014|56=AMGTOBVC|1=881|11=-3278b4c18bfebe3f|21=1|38=8000|40=2|41=-5937f1c99191bf8b|44=11800|54=1|55=PREC|59=0|60=20150609-13:30:49.014|63=3|100=XBOG|207=XBOG|583=6a48341c323a4fcc|453=1|448=LVARB|447=D|452=1|10=096|
20150609-13:30:49.123: 8=FIX.4.4|9=347|35=8|57=062X01|128=LRVORBVC|115=BVC062|34=151|49=AMGTOBVC|56=ADRARB_XTSE_TOBVC|52=20150609-13:30:49.201|37=201506091167|11=-3278b4c18bfebe3f|41=-5937f1c99191bf8b|17=6182|150=5|39=0|63=4|48=PREC|22=99|167=CS|54=1|38=8000|40=2|44=11800|59=0|151=8000|14=0|60=20150609-13:30:49.000|31=0|32=0|6=0|55=PREC|453=1|448=062|447=D|452=1|583=6a48341c323a4fcc|10=146|
20150609-13:30:49.130: 8=FIX.4.4|9=258|35=G|34=151|49=ADRARB_XTSE_TOBVC|52=20150609-13:30:49.130|56=AMGTOBVC|1=881|11=cc57d4d05334bcd|21=1|38=8000|40=2|41=-3278b4c18bfebe3f|44=11780|54=1|55=PREC|59=0|60=20150609-13:30:49.130|63=3|100=XBOG|207=XBOG|583=6a48341c323a4fcc|453=1|448=LVARB|447=D|452=1|10=085|
20150609-13:30:49.134: 8=FIX.4.4|9=260|35=G|34=152|49=ADRARB_XTSE_TOBVC|52=20150609-13:30:49.134|56=AMGTOBVC|1=881|11=-3492a7b53665baff|21=1|38=7000|40=2|41=-1ebf8a709bc1b789|44=11840|54=2|55=PREC|59=0|60=20150609-13:30:49.134|63=3|100=XBOG|207=XBOG|583=6a48341c323a4fcc|453=1|448=LVARB|447=D|452=1|10=099|
20150609-13:30:49.240: 8=FIX.4.4|9=345|35=8|57=062X01|128=LRVORBVC|115=BVC062|34=152|49=AMGTOBVC|56=ADRARB_XTSE_TOBVC|52=20150609-13:30:49.310|37=201506091167|11=cc57d4d05334bcd|41=-3278b4c18bfebe3f|17=6186|150=5|39=0|63=4|48=PREC|22=99|167=CS|54=1|38=8000|40=2|44=11780|59=0|151=8000|14=0|60=20150609-13:30:49.000|31=0|32=0|6=0|55=PREC|453=1|448=062|447=D|452=1|583=6a48341c323a4fcc|10=133|
20150609-13:30:49.246: 8=FIX.4.4|9=347|35=8|57=062X01|128=LRVORBVC|115=BVC062|34=153|49=AMGTOBVC|56=ADRARB_XTSE_TOBVC|52=20150609-13:30:49.326|37=201506091174|11=-3492a7b53665baff|41=-1ebf8a709bc1b789|17=6187|150=5|39=0|63=4|48=PREC|22=99|167=CS|54=2|38=7000|40=2|44=11840|59=0|151=7000|14=0|60=20150609-13:30:49.000|31=0|32=0|6=0|55=PREC|453=1|448=062|447=D|452=1|583=6a48341c323a4fcc|10=153|
20150609-13:30:50.328: 8=FIX.4.4|9=260|35=G|34=153|49=ADRARB_XTSE_TOBVC|52=20150609-13:30:50.328|56=AMGTOBVC|1=881|11=-6b86c773b024bf6f|21=1|38=7000|40=2|41=-3492a7b53665baff|44=11860|54=2|55=PREC|59=0|60=20150609-13:30:50.328|63=3|100=XBOG|207=XBOG|583=6a48341c323a4fcc|453=1|448=LVARB|447=D|452=1|10=047|
20150609-13:30:50.436: 8=FIX.4.4|9=347|35=8|57=062X01|128=LRVORBVC|115=BVC062|34=154|49=AMGTOBVC|56=ADRARB_XTSE_TOBVC|52=20150609-13:30:50.512|37=201506091174|11=-6b86c773b024bf6f|41=-3492a7b53665baff|17=6201|150=5|39=0|63=4|48=PREC|22=99|167=CS|54=2|38=7000|40=2|44=11860|59=0|151=7000|14=0|60=20150609-13:30:50.000|31=0|32=0|6=0|55=PREC|453=1|448=062|447=D|452=1|583=6a48341c323a4fcc|10=075|
20150609-13:30:51.589: 8=FIX.4.4|9=259|35=G|34=154|49=ADRARB_XTSE_TOBVC|52=20150609-13:30:51.589|56=AMGTOBVC|1=881|11=-7db4f40ccefcb95f|21=1|38=6000|40=2|41=-475186aa5823bbbf|44=6130|54=1|55=CNEC|59=0|60=20150609-13:30:51.589|63=3|100=XBOG|207=XBOG|583=-76abaff36eeb1c0|453=1|448=LVARB|447=D|452=1|10=073|
20150609-13:30:51.696: 8=FIX.4.4|9=346|35=8|57=062X01|128=LRVORBVC|115=BVC062|34=155|49=AMGTOBVC|56=ADRARB_XTSE_TOBVC|52=20150609-13:30:51.775|37=201506091168|11=-7db4f40ccefcb95f|41=-475186aa5823bbbf|17=6212|150=5|39=0|63=4|48=CNEC|22=99|167=CS|54=1|38=6000|40=2|44=6130|59=0|151=6000|14=0|60=20150609-13:30:51.000|31=0|32=0|6=0|55=CNEC|453=1|448=062|447=D|452=1|583=-76abaff36eeb1c0|10=072|
20150609-13:30:51.767: 8=FIX.4.4|9=237|35=D|34=155|49=ADRARB_XTSE_TOBVC|52=20150609-13:30:51.767|56=AMGTOBVC|1=881|11=256d1a307b814687|21=1|38=6000|40=2|44=6190|54=2|55=CNEC|59=0|60=20150609-13:30:51.767|63=3|100=XBOG|207=XBOG|583=-76abaff36eeb1c0|453=1|448=LVARB|447=D|452=1|10=150|
20150609-13:30:51.872: 8=FIX.4.4|9=324|35=8|57=062X01|128=LRVORBVC|115=BVC062|34=156|49=AMGTOBVC|56=ADRARB_XTSE_TOBVC|52=20150609-13:30:51.947|37=201506091382|11=256d1a307b814687|17=6215|150=0|39=0|63=4|48=CNEC|22=99|167=CS|54=2|38=6000|40=2|44=6190|59=0|151=6000|14=0|60=20150609-13:30:51.000|31=0|32=0|6=0|55=CNEC|453=1|448=062|447=D|452=1|583=-76abaff36eeb1c0|10=153|
20150609-13:31:00.928: 8=FIX.4.4|9=260|35=G|34=156|49=ADRARB_XTSE_TOBVC|52=20150609-13:31:00.928|56=AMGTOBVC|1=881|11=-6047a29190d5ba81|21=1|38=7000|40=2|41=-6b86c773b024bf6f|44=11880|54=2|55=PREC|59=0|60=20150609-13:31:00.928|63=3|100=XBOG|207=XBOG|583=6a48341c323a4fcc|453=1|448=LVARB|447=D|452=1|10=208|
20150609-13:31:00.936: 8=FIX.4.4|9=257|35=G|34=157|49=ADRARB_XTSE_TOBVC|52=20150609-13:31:00.936|56=AMGTOBVC|1=881|11=51413682b17e434a|21=1|38=8000|40=2|41=cc57d4d05334bcd|44=11800|54=1|55=PREC|59=0|60=20150609-13:31:00.936|63=3|100=XBOG|207=XBOG|583=6a48341c323a4fcc|453=1|448=LVARB|447=D|452=1|10=048|
20150609-13:31:01.063: 8=FIX.4.4|9=347|35=8|57=062X01|128=LRVORBVC|115=BVC062|34=157|49=AMGTOBVC|56=ADRARB_XTSE_TOBVC|52=20150609-13:31:01.135|37=201506091174|11=-6047a29190d5ba81|41=-6b86c773b024bf6f|17=6315|150=5|39=0|63=4|48=PREC|22=99|167=CS|54=2|38=7000|40=2|44=11880|59=0|151=7000|14=0|60=20150609-13:31:01.000|31=0|32=0|6=0|55=PREC|453=1|448=062|447=D|452=1|583=6a48341c323a4fcc|10=233|
20150609-13:31:01.069: 8=FIX.4.4|9=344|35=8|57=062X01|128=LRVORBVC|115=BVC062|34=158|49=AMGTOBVC|56=ADRARB_XTSE_TOBVC|52=20150609-13:31:01.151|37=201506091167|11=51413682b17e434a|41=cc57d4d05334bcd|17=6316|150=5|39=0|63=4|48=PREC|22=99|167=CS|54=1|38=8000|40=2|44=11800|59=0|151=8000|14=0|60=20150609-13:31:01.000|31=0|32=0|6=0|55=PREC|453=1|448=062|447=D|452=1|583=6a48341c323a4fcc|10=068|
20150609-13:31:01.438: 8=FIX.4.4|9=260|35=G|34=158|49=ADRARB_XTSE_TOBVC|52=20150609-13:31:01.438|56=AMGTOBVC|1=881|11=-6c6dcd95c779b485|21=1|38=7000|40=2|41=-6047a29190d5ba81|44=11860|54=2|55=PREC|59=0|60=20150609-13:31:01.438|63=3|100=XBOG|207=XBOG|583=6a48341c323a4fcc|453=1|448=LVARB|447=D|452=1|10=217|
20150609-13:31:02.115: 8=FIX.4.4|9=347|35=8|57=062X01|128=LRVORBVC|115=BVC062|34=159|49=AMGTOBVC|56=ADRARB_XTSE_TOBVC|52=20150609-13:31:02.181|37=201506091174|11=-6c6dcd95c779b485|41=-6047a29190d5ba81|17=6336|150=5|39=0|63=4|48=PREC|22=99|167=CS|54=2|38=7000|40=2|44=11860|59=0|151=7000|14=0|60=20150609-13:31:02.000|31=0|32=0|6=0|55=PREC|453=1|448=062|447=D|452=1|583=6a48341c323a4fcc|10=254|
20150609-13:31:02.116: 8=FIX.4.4|9=259|35=G|34=159|49=ADRARB_XTSE_TOBVC|52=20150609-13:31:02.116|56=AMGTOBVC|1=881|11=61fcea71bf0e4c45|21=1|38=7000|40=2|41=-6c6dcd95c779b485|44=11900|54=2|55=PREC|59=0|60=20150609-13:31:02.116|63=3|100=XBOG|207=XBOG|583=6a48341c323a4fcc|453=1|448=LVARB|447=D|452=1|10=099|
20150609-13:31:02.687: 8=FIX.4.4|9=346|35=8|57=062X01|128=LRVORBVC|115=BVC062|34=160|49=AMGTOBVC|56=ADRARB_XTSE_TOBVC|52=20150609-13:31:02.758|37=201506091174|11=61fcea71bf0e4c45|41=-6c6dcd95c779b485|17=6350|150=5|39=0|63=4|48=PREC|22=99|167=CS|54=2|38=7000|40=2|44=11900|59=0|151=7000|14=0|60=20150609-13:31:02.000|31=0|32=0|6=0|55=PREC|453=1|448=062|447=D|452=1|583=6a48341c323a4fcc|10=136|
20150609-13:31:03.179: 8=FIX.4.4|9=259|35=G|34=160|49=ADRARB_XTSE_TOBVC|52=20150609-13:31:03.178|56=AMGTOBVC|1=881|11=-11eaf4d50568b2a2|21=1|38=7000|40=2|41=61fcea71bf0e4c45|44=11880|54=2|55=PREC|59=0|60=20150609-13:31:03.178|63=3|100=XBOG|207=XBOG|583=6a48341c323a4fcc|453=1|448=LVARB|447=D|452=1|10=084|
20150609-13:31:03.289: 8=FIX.4.4|9=346|35=8|57=062X01|128=LRVORBVC|115=BVC062|34=161|49=AMGTOBVC|56=ADRARB_XTSE_TOBVC|52=20150609-13:31:03.366|37=201506091174|11=-11eaf4d50568b2a2|41=61fcea71bf0e4c45|17=6359|150=5|39=0|63=4|48=PREC|22=99|167=CS|54=2|38=7000|40=2|44=11880|59=0|151=7000|14=0|60=20150609-13:31:03.000|31=0|32=0|6=0|55=PREC|453=1|448=062|447=D|452=1|583=6a48341c323a4fcc|10=118|
20150609-13:31:03.358: 8=FIX.4.4|9=260|35=G|34=161|49=ADRARB_XTSE_TOBVC|52=20150609-13:31:03.358|56=AMGTOBVC|1=881|11=-1d88254244adb83a|21=1|38=7000|40=2|41=-11eaf4d50568b2a2|44=11860|54=2|55=PREC|59=0|60=20150609-13:31:03.358|63=3|100=XBOG|207=XBOG|583=6a48341c323a4fcc|453=1|448=LVARB|447=D|452=1|10=234|
20150609-13:31:03.464: 8=FIX.4.4|9=347|35=8|57=062X01|128=LRVORBVC|115=BVC062|34=162|49=AMGTOBVC|56=ADRARB_XTSE_TOBVC|52=20150609-13:31:03.538|37=201506091174|11=-1d88254244adb83a|41=-11eaf4d50568b2a2|17=6362|150=5|39=0|63=4|48=PREC|22=99|167=CS|54=2|38=7000|40=2|44=11860|59=0|151=7000|14=0|60=20150609-13:31:03.000|31=0|32=0|6=0|55=PREC|453=1|448=062|447=D|452=1|583=6a48341c323a4fcc|10=016|
20150609-13:31:16.365: 8=FIX.4.4|9=370|35=8|57=062X01|128=LRVORBVC|115=BVC062|34=163|49=AMGTOBVC|56=ADRARB_XTSE_TOBVC|52=20150609-13:31:16.424|37=201506091382|11=256d1a307b814687|17=6512S|150=F|39=1|63=4|64=20150612|48=CNEC|22=99|167=CS|54=2|38=6000|40=2|44=6190|59=0|32=140|31=6190|151=5860|14=140|6=6190|75=20150609|60=20150609-13:31:16.297|381=866600|55=CNEC|453=1|448=062|447=D|452=1|583=-76abaff36eeb1c0|10=179|
20150609-13:31:34.578: 8=FIX.4.4|9=373|35=8|57=062X01|128=LRVORBVC|115=BVC062|34=164|49=AMGTOBVC|56=ADRARB_XTSE_TOBVC|52=20150609-13:31:34.645|37=201506091382|11=256d1a307b814687|17=6691S|150=F|39=1|63=4|64=20150612|48=CNEC|22=99|167=CS|54=2|38=6000|40=2|44=6190|59=0|32=5000|31=6190|151=860|14=5140|6=6190|75=20150609|60=20150609-13:31:34.519|381=30950000|55=CNEC|453=1|448=062|447=D|452=1|583=-76abaff36eeb1c0|10=072|
20150609-13:31:35.279: 8=FIX.4.4|9=259|35=G|34=162|49=ADRARB_XTSE_TOBVC|52=20150609-13:31:35.279|56=AMGTOBVC|1=881|11=-304ef7403242b9c8|21=1|38=11140|40=2|41=256d1a307b814687|44=6210|54=2|55=CNEC|59=0|60=20150609-13:31:35.279|63=3|100=XBOG|207=XBOG|583=-76abaff36eeb1c0|453=1|448=LVARB|447=D|452=1|10=149|
20150609-13:31:35.282: 8=FIX.4.4|9=258|35=G|34=163|49=ADRARB_XTSE_TOBVC|52=20150609-13:31:35.282|56=AMGTOBVC|1=881|11=-6a6f999b88fb9c7|21=1|38=6000|40=2|41=-7db4f40ccefcb95f|44=6150|54=1|55=CNEC|59=0|60=20150609-13:31:35.279|63=3|100=XBOG|207=XBOG|583=-76abaff36eeb1c0|453=1|448=LVARB|447=D|452=1|10=046|
20150609-13:31:35.387: 8=FIX.4.4|9=352|35=8|57=062X01|128=LRVORBVC|115=BVC062|34=165|49=AMGTOBVC|56=ADRARB_XTSE_TOBVC|52=20150609-13:31:35.456|37=201506091382|11=-304ef7403242b9c8|41=256d1a307b814687|17=6703|150=5|39=1|63=4|48=CNEC|22=99|167=CS|54=2|38=11140|40=2|44=6210|59=0|151=6000|14=5140|6=6190|60=20150609-13:31:35.000|31=0|32=0|55=CNEC|453=1|448=062|447=D|452=1|583=-76abaff36eeb1c0|10=213|
20150609-13:31:35.391: 8=FIX.4.4|9=345|35=8|57=062X01|128=LRVORBVC|115=BVC062|34=166|49=AMGTOBVC|56=ADRARB_XTSE_TOBVC|52=20150609-13:31:35.472|37=201506091168|11=-6a6f999b88fb9c7|41=-7db4f40ccefcb95f|17=6704|150=5|39=0|63=4|48=CNEC|22=99|167=CS|54=1|38=6000|40=2|44=6150|59=0|151=6000|14=0|60=20150609-13:31:35.000|31=0|32=0|6=0|55=CNEC|453=1|448=062|447=D|452=1|583=-76abaff36eeb1c0|10=061|
20150609-13:31:43.600: 8=FIX.4.4|9=260|35=G|34=164|49=ADRARB_XTSE_TOBVC|52=20150609-13:31:43.600|56=AMGTOBVC|1=881|11=-7f7ea06e8475b46f|21=1|38=11140|40=2|41=-304ef7403242b9c8|44=6230|54=2|55=CNEC|59=0|60=20150609-13:31:43.600|63=3|100=XBOG|207=XBOG|583=-76abaff36eeb1c0|453=1|448=LVARB|447=D|452=1|10=066|
20150609-13:31:43.657: 8=FIX.4.4|9=258|35=G|34=165|49=ADRARB_XTSE_TOBVC|52=20150609-13:31:43.656|56=AMGTOBVC|1=881|11=-45c20637003cbe07|21=1|38=6000|40=2|41=-6a6f999b88fb9c7|44=6170|54=1|55=CNEC|59=0|60=20150609-13:31:43.656|63=3|100=XBOG|207=XBOG|583=-76abaff36eeb1c0|453=1|448=LVARB|447=D|452=1|10=001|
20150609-13:31:43.706: 8=FIX.4.4|9=353|35=8|57=062X01|128=LRVORBVC|115=BVC062|34=167|49=AMGTOBVC|56=ADRARB_XTSE_TOBVC|52=20150609-13:31:43.787|37=201506091382|11=-7f7ea06e8475b46f|41=-304ef7403242b9c8|17=6778|150=5|39=1|63=4|48=CNEC|22=99|167=CS|54=2|38=11140|40=2|44=6230|59=0|151=6000|14=5140|6=6190|60=20150609-13:31:43.000|31=0|32=0|55=CNEC|453=1|448=062|447=D|452=1|583=-76abaff36eeb1c0|10=182|
20150609-13:31:43.774: 8=FIX.4.4|9=345|35=8|57=062X01|128=LRVORBVC|115=BVC062|34=168|49=AMGTOBVC|56=ADRARB_XTSE_TOBVC|52=20150609-13:31:43.849|37=201506091168|11=-45c20637003cbe07|41=-6a6f999b88fb9c7|17=6781|150=5|39=0|63=4|48=CNEC|22=99|167=CS|54=1|38=6000|40=2|44=6170|59=0|151=6000|14=0|60=20150609-13:31:43.000|31=0|32=0|6=0|55=CNEC|453=1|448=062|447=D|452=1|583=-76abaff36eeb1c0|10=025|
20150609-13:31:47.729: 8=FIX.4.4|9=259|35=G|34=166|49=ADRARB_XTSE_TOBVC|52=20150609-13:31:47.729|56=AMGTOBVC|1=881|11=-15c1564933d8b37f|21=1|38=6000|40=2|41=-45c20637003cbe07|44=6180|54=1|55=CNEC|59=0|60=20150609-13:31:47.729|63=3|100=XBOG|207=XBOG|583=-76abaff36eeb1c0|453=1|448=LVARB|447=D|452=1|10=201|
20150609-13:31:47.833: 8=FIX.4.4|9=346|35=8|57=062X01|128=LRVORBVC|115=BVC062|34=169|49=AMGTOBVC|56=ADRARB_XTSE_TOBVC|52=20150609-13:31:47.905|37=201506091168|11=-15c1564933d8b37f|41=-45c20637003cbe07|17=6819|150=5|39=0|63=4|48=CNEC|22=99|167=CS|54=1|38=6000|40=2|44=6180|59=0|151=6000|14=0|60=20150609-13:31:47.000|31=0|32=0|6=0|55=CNEC|453=1|448=062|447=D|452=1|583=-76abaff36eeb1c0|10=218|
20150609-13:32:09.190: 8=FIX.4.4|9=260|35=G|34=167|49=ADRARB_XTSE_TOBVC|52=20150609-13:32:09.190|56=AMGTOBVC|1=881|11=-7457c5303613b43e|21=1|38=11140|40=2|41=-7f7ea06e8475b46f|44=6240|54=2|55=CNEC|59=0|60=20150609-13:32:09.190|63=3|100=XBOG|207=XBOG|583=-76abaff36eeb1c0|453=1|448=LVARB|447=D|452=1|10=035|
20150609-13:32:09.372: 8=FIX.4.4|9=353|35=8|57=062X01|128=LRVORBVC|115=BVC062|34=170|49=AMGTOBVC|56=ADRARB_XTSE_TOBVC|52=20150609-13:32:09.449|37=201506091382|11=-7457c5303613b43e|41=-7f7ea06e8475b46f|17=7081|150=5|39=1|63=4|48=CNEC|22=99|167=CS|54=2|38=11140|40=2|44=6240|59=0|151=6000|14=5140|6=6190|60=20150609-13:32:09.000|31=0|32=0|55=CNEC|453=1|448=062|447=D|452=1|583=-76abaff36eeb1c0|10=117|
20150609-13:32:15.219: 8=FIX.4.4|9=259|35=G|34=168|49=ADRARB_XTSE_TOBVC|52=20150609-13:32:15.219|56=AMGTOBVC|1=881|11=579cec70897f4a25|21=1|38=7000|40=2|41=-1d88254244adb83a|44=11880|54=2|55=PREC|59=0|60=20150609-13:32:15.218|63=3|100=XBOG|207=XBOG|583=6a48341c323a4fcc|453=1|448=LVARB|447=D|452=1|10=185|
20150609-13:32:15.233: 8=FIX.4.4|9=259|35=G|34=169|49=ADRARB_XTSE_TOBVC|52=20150609-13:32:15.233|56=AMGTOBVC|1=881|11=-1478a8247742bc05|21=1|38=8000|40=2|41=51413682b17e434a|44=11820|54=1|55=PREC|59=0|60=20150609-13:32:15.233|63=3|100=XBOG|207=XBOG|583=6a48341c323a4fcc|453=1|448=LVARB|447=D|452=1|10=217|
20150609-13:32:15.325: 8=FIX.4.4|9=346|35=8|57=062X01|128=LRVORBVC|115=BVC062|34=171|49=AMGTOBVC|56=ADRARB_XTSE_TOBVC|52=20150609-13:32:15.408|37=201506091174|11=579cec70897f4a25|41=-1d88254244adb83a|17=7122|150=5|39=0|63=4|48=PREC|22=99|167=CS|54=2|38=7000|40=2|44=11880|59=0|151=7000|14=0|60=20150609-13:32:15.000|31=0|32=0|6=0|55=PREC|453=1|448=062|447=D|452=1|583=6a48341c323a4fcc|10=207|
20150609-13:32:15.326: 8=FIX.4.4|9=258|35=G|34=170|49=ADRARB_XTSE_TOBVC|52=20150609-13:32:15.326|56=AMGTOBVC|1=881|11=-4c5f870c68ab0e0|21=1|38=7000|40=2|41=579cec70897f4a25|44=11920|54=2|55=PREC|59=0|60=20150609-13:32:15.326|63=3|100=XBOG|207=XBOG|583=6a48341c323a4fcc|453=1|448=LVARB|447=D|452=1|10=168|
20150609-13:32:15.339: 8=FIX.4.4|9=346|35=8|57=062X01|128=LRVORBVC|115=BVC062|34=172|49=AMGTOBVC|56=ADRARB_XTSE_TOBVC|52=20150609-13:32:15.408|37=201506091167|11=-1478a8247742bc05|41=51413682b17e434a|17=7123|150=5|39=0|63=4|48=PREC|22=99|167=CS|54=1|38=8000|40=2|44=11820|59=0|151=8000|14=0|60=20150609-13:32:15.000|31=0|32=0|6=0|55=PREC|453=1|448=062|447=D|452=1|583=6a48341c323a4fcc|10=250|
20150609-13:32:15.341: 8=FIX.4.4|9=260|35=G|34=171|49=ADRARB_XTSE_TOBVC|52=20150609-13:32:15.341|56=AMGTOBVC|1=881|11=-7d3fee9393feb608|21=1|38=8000|40=2|41=-1478a8247742bc05|44=11840|54=1|55=PREC|59=0|60=20150609-13:32:15.341|63=3|100=XBOG|207=XBOG|583=6a48341c323a4fcc|453=1|448=LVARB|447=D|452=1|10=209|
20150609-13:32:15.431: 8=FIX.4.4|9=345|35=8|57=062X01|128=LRVORBVC|115=BVC062|34=173|49=AMGTOBVC|56=ADRARB_XTSE_TOBVC|52=20150609-13:32:15.502|37=201506091174|11=-4c5f870c68ab0e0|41=579cec70897f4a25|17=7124|150=5|39=0|63=4|48=PREC|22=99|167=CS|54=2|38=7000|40=2|44=11920|59=0|151=7000|14=0|60=20150609-13:32:15.000|31=0|32=0|6=0|55=PREC|453=1|448=062|447=D|452=1|583=6a48341c323a4fcc|10=197|
20150609-13:32:15.447: 8=FIX.4.4|9=347|35=8|57=062X01|128=LRVORBVC|115=BVC062|34=174|49=AMGTOBVC|56=ADRARB_XTSE_TOBVC|52=20150609-13:32:15.518|37=201506091167|11=-7d3fee9393feb608|41=-1478a8247742bc05|17=7125|150=5|39=0|63=4|48=PREC|22=99|167=CS|54=1|38=8000|40=2|44=11840|59=0|151=8000|14=0|60=20150609-13:32:15.000|31=0|32=0|6=0|55=PREC|453=1|448=062|447=D|452=1|583=6a48341c323a4fcc|10=008|
20150609-13:32:15.468: 8=FIX.4.4|9=260|35=G|34=172|49=ADRARB_XTSE_TOBVC|52=20150609-13:32:15.468|56=AMGTOBVC|1=881|11=-3d78c212b252ba11|21=1|38=8000|40=2|41=-7d3fee9393feb608|44=11820|54=1|55=PREC|59=0|60=20150609-13:32:15.468|63=3|100=XBOG|207=XBOG|583=6a48341c323a4fcc|453=1|448=LVARB|447=D|452=1|10=049|
20150609-13:32:15.574: 8=FIX.4.4|9=347|35=8|57=062X01|128=LRVORBVC|115=BVC062|34=175|49=AMGTOBVC|56=ADRARB_XTSE_TOBVC|52=20150609-13:32:15.642|37=201506091167|11=-3d78c212b252ba11|41=-7d3fee9393feb608|17=7126|150=5|39=0|63=4|48=PREC|22=99|167=CS|54=1|38=8000|40=2|44=11820|59=0|151=8000|14=0|60=20150609-13:32:15.000|31=0|32=0|6=0|55=PREC|453=1|448=062|447=D|452=1|583=6a48341c323a4fcc|10=083|
20150609-13:32:15.684: 8=FIX.4.4|9=259|35=G|34=173|49=ADRARB_XTSE_TOBVC|52=20150609-13:32:15.684|56=AMGTOBVC|1=881|11=2af95e54ec0a4011|21=1|38=8000|40=2|41=-3d78c212b252ba11|44=11840|54=1|55=PREC|59=0|60=20150609-13:32:15.684|63=3|100=XBOG|207=XBOG|583=6a48341c323a4fcc|453=1|448=LVARB|447=D|452=1|10=194|
20150609-13:32:15.790: 8=FIX.4.4|9=346|35=8|57=062X01|128=LRVORBVC|115=BVC062|34=176|49=AMGTOBVC|56=ADRARB_XTSE_TOBVC|52=20150609-13:32:15.861|37=201506091167|11=2af95e54ec0a4011|41=-3d78c212b252ba11|17=7130|150=5|39=0|63=4|48=PREC|22=99|167=CS|54=1|38=8000|40=2|44=11840|59=0|151=8000|14=0|60=20150609-13:32:15.000|31=0|32=0|6=0|55=PREC|453=1|448=062|447=D|452=1|583=6a48341c323a4fcc|10=217|
20150609-13:32:16.409: 8=FIX.4.4|9=258|35=G|34=174|49=ADRARB_XTSE_TOBVC|52=20150609-13:32:16.409|56=AMGTOBVC|1=881|11=540c6fae6c584c59|21=1|38=8000|40=2|41=2af95e54ec0a4011|44=11820|54=1|55=PREC|59=0|60=20150609-13:32:16.409|63=3|100=XBOG|207=XBOG|583=6a48341c323a4fcc|453=1|448=LVARB|447=D|452=1|10=214|
20150609-13:32:16.588: 8=FIX.4.4|9=345|35=8|57=062X01|128=LRVORBVC|115=BVC062|34=177|49=AMGTOBVC|56=ADRARB_XTSE_TOBVC|52=20150609-13:32:16.656|37=201506091167|11=540c6fae6c584c59|41=2af95e54ec0a4011|17=7138|150=5|39=0|63=4|48=PREC|22=99|167=CS|54=1|38=8000|40=2|44=11820|59=0|151=8000|14=0|60=20150609-13:32:16.000|31=0|32=0|6=0|55=PREC|453=1|448=062|447=D|452=1|583=6a48341c323a4fcc|10=001|
20150609-13:32:18.620: 8=FIX.4.4|9=259|35=G|34=175|49=ADRARB_XTSE_TOBVC|52=20150609-13:32:18.620|56=AMGTOBVC|1=881|11=-4c9d8bf0f820ba0d|21=1|38=8000|40=2|41=540c6fae6c584c59|44=11840|54=1|55=PREC|59=0|60=20150609-13:32:18.620|63=3|100=XBOG|207=XBOG|583=6a48341c323a4fcc|453=1|448=LVARB|447=D|452=1|10=104|
20150609-13:32:18.623: 8=FIX.4.4|9=259|35=G|34=176|49=ADRARB_XTSE_TOBVC|52=20150609-13:32:18.623|56=AMGTOBVC|1=881|11=-19609c0215d7b7d0|21=1|38=7000|40=2|41=-4c5f870c68ab0e0|44=11940|54=2|55=PREC|59=0|60=20150609-13:32:18.623|63=3|100=XBOG|207=XBOG|583=6a48341c323a4fcc|453=1|448=LVARB|447=D|452=1|10=159|
20150609-13:32:18.782: 8=FIX.4.4|9=346|35=8|57=062X01|128=LRVORBVC|115=BVC062|34=178|49=AMGTOBVC|56=ADRARB_XTSE_TOBVC|52=20150609-13:32:18.856|37=201506091167|11=-4c9d8bf0f820ba0d|41=540c6fae6c584c59|17=7155|150=5|39=0|63=4|48=PREC|22=99|167=CS|54=1|38=8000|40=2|44=11840|59=0|151=8000|14=0|60=20150609-13:32:18.000|31=0|32=0|6=0|55=PREC|453=1|448=062|447=D|452=1|583=6a48341c323a4fcc|10=158|
20150609-13:32:18.797: 8=FIX.4.4|9=346|35=8|57=062X01|128=LRVORBVC|115=BVC062|34=179|49=AMGTOBVC|56=ADRARB_XTSE_TOBVC|52=20150609-13:32:18.872|37=201506091174|11=-19609c0215d7b7d0|41=-4c5f870c68ab0e0|17=7156|150=5|39=0|63=4|48=PREC|22=99|167=CS|54=2|38=7000|40=2|44=11940|59=0|151=7000|14=0|60=20150609-13:32:18.000|31=0|32=0|6=0|55=PREC|453=1|448=062|447=D|452=1|583=6a48341c323a4fcc|10=203|
20150609-13:32:19.934: 8=FIX.4.4|9=260|35=G|34=177|49=ADRARB_XTSE_TOBVC|52=20150609-13:32:19.934|56=AMGTOBVC|1=881|11=-290886aa8265b7df|21=1|38=7000|40=2|41=-19609c0215d7b7d0|44=11920|54=2|55=PREC|59=0|60=20150609-13:32:19.934|63=3|100=XBOG|207=XBOG|583=6a48341c323a4fcc|453=1|448=LVARB|447=D|452=1|10=179|
20150609-13:32:20.043: 8=FIX.4.4|9=347|35=8|57=062X01|128=LRVORBVC|115=BVC062|34=180|49=AMGTOBVC|56=ADRARB_XTSE_TOBVC|52=20150609-13:32:20.120|37=201506091174|11=-290886aa8265b7df|41=-19609c0215d7b7d0|17=7176|150=5|39=0|63=4|48=PREC|22=99|167=CS|54=2|38=7000|40=2|44=11920|59=0|151=7000|14=0|60=20150609-13:32:19.000|31=0|32=0|6=0|55=PREC|453=1|448=062|447=D|452=1|583=6a48341c323a4fcc|10=193|
20150609-13:32:20.045: 8=FIX.4.4|9=260|35=G|34=178|49=ADRARB_XTSE_TOBVC|52=20150609-13:32:20.045|56=AMGTOBVC|1=881|11=-593e860b962ab1af|21=1|38=7000|40=2|41=-290886aa8265b7df|44=11940|54=2|55=PREC|59=0|60=20150609-13:32:20.044|63=3|100=XBOG|207=XBOG|583=6a48341c323a4fcc|453=1|448=LVARB|447=D|452=1|10=253|
20150609-13:32:20.163: 8=FIX.4.4|9=347|35=8|57=062X01|128=LRVORBVC|115=BVC062|34=181|49=AMGTOBVC|56=ADRARB_XTSE_TOBVC|52=20150609-13:32:20.229|37=201506091174|11=-593e860b962ab1af|41=-290886aa8265b7df|17=7179|150=5|39=0|63=4|48=PREC|22=99|167=CS|54=2|38=7000|40=2|44=11940|59=0|151=7000|14=0|60=20150609-13:32:20.000|31=0|32=0|6=0|55=PREC|453=1|448=062|447=D|452=1|583=6a48341c323a4fcc|10=047|
20150609-13:32:21.354: 8=FIX.4.4|9=259|35=G|34=179|49=ADRARB_XTSE_TOBVC|52=20150609-13:32:21.354|56=AMGTOBVC|1=881|11=23cd0f8942874e7e|21=1|38=11140|40=2|41=-7457c5303613b43e|44=6230|54=2|55=CNEC|59=0|60=20150609-13:32:21.354|63=3|100=XBOG|207=XBOG|583=-76abaff36eeb1c0|453=1|448=LVARB|447=D|452=1|10=198|
20150609-13:32:21.406: 8=FIX.4.4|9=260|35=G|34=180|49=ADRARB_XTSE_TOBVC|52=20150609-13:32:21.406|56=AMGTOBVC|1=881|11=-6437769ca6ccb0ba|21=1|38=7000|40=2|41=-593e860b962ab1af|44=11920|54=2|55=PREC|59=0|60=20150609-13:32:21.406|63=3|100=XBOG|207=XBOG|583=6a48341c323a4fcc|453=1|448=LVARB|447=D|452=1|10=077|
20150609-13:32:21.469: 8=FIX.4.4|9=352|35=8|57=062X01|128=LRVORBVC|115=BVC062|34=182|49=AMGTOBVC|56=ADRARB_XTSE_TOBVC|52=20150609-13:32:21.539|37=201506091382|11=23cd0f8942874e7e|41=-7457c5303613b43e|17=7200|150=5|39=1|63=4|48=CNEC|22=99|167=CS|54=2|38=11140|40=2|44=6230|59=0|151=6000|14=5140|6=6190|60=20150609-13:32:21.000|31=0|32=0|55=CNEC|453=1|448=062|447=D|452=1|583=-76abaff36eeb1c0|10=004|
20150609-13:32:21.476: 8=FIX.4.4|9=260|35=G|34=181|49=ADRARB_XTSE_TOBVC|52=20150609-13:32:21.476|56=AMGTOBVC|1=881|11=-2ff61557f929b736|21=1|38=8000|40=2|41=-4c9d8bf0f820ba0d|44=11820|54=1|55=PREC|59=0|60=20150609-13:32:21.476|63=3|100=XBOG|207=XBOG|583=6a48341c323a4fcc|453=1|448=LVARB|447=D|452=1|10=055|
20150609-13:32:21.514: 8=FIX.4.4|9=347|35=8|57=062X01|128=LRVORBVC|115=BVC062|34=183|49=AMGTOBVC|56=ADRARB_XTSE_TOBVC|52=20150609-13:32:21.586|37=201506091174|11=-6437769ca6ccb0ba|41=-593e860b962ab1af|17=7201|150=5|39=0|63=4|48=PREC|22=99|167=CS|54=2|38=7000|40=2|44=11920|59=0|151=7000|14=0|60=20150609-13:32:21.000|31=0|32=0|6=0|55=PREC|453=1|448=062|447=D|452=1|583=6a48341c323a4fcc|10=125|
20150609-13:32:21.515: 8=FIX.4.4|9=259|35=G|34=182|49=ADRARB_XTSE_TOBVC|52=20150609-13:32:21.515|56=AMGTOBVC|1=881|11=37a02f9b7e6d4632|21=1|38=7000|40=2|41=-6437769ca6ccb0ba|44=11900|54=2|55=PREC|59=0|60=20150609-13:32:21.515|63=3|100=XBOG|207=XBOG|583=6a48341c323a4fcc|453=1|448=LVARB|447=D|452=1|10=251|
20150609-13:32:21.588: 8=FIX.4.4|9=347|35=8|57=062X01|128=LRVORBVC|115=BVC062|34=184|49=AMGTOBVC|56=ADRARB_XTSE_TOBVC|52=20150609-13:32:21.664|37=201506091167|11=-2ff61557f929b736|41=-4c9d8bf0f820ba0d|17=7202|150=5|39=0|63=4|48=PREC|22=99|167=CS|54=1|38=8000|40=2|44=11820|59=0|151=8000|14=0|60=20150609-13:32:21.000|31=0|32=0|6=0|55=PREC|453=1|448=062|447=D|452=1|583=6a48341c323a4fcc|10=090|
20150609-13:32:21.626: 8=FIX.4.4|9=346|35=8|57=062X01|128=LRVORBVC|115=BVC062|34=185|49=AMGTOBVC|56=ADRARB_XTSE_TOBVC|52=20150609-13:32:21.695|37=201506091174|11=37a02f9b7e6d4632|41=-6437769ca6ccb0ba|17=7203|150=5|39=0|63=4|48=PREC|22=99|167=CS|54=2|38=7000|40=2|44=11900|59=0|151=7000|14=0|60=20150609-13:32:21.000|31=0|32=0|6=0|55=PREC|453=1|448=062|447=D|452=1|583=6a48341c323a4fcc|10=035|
20150609-13:32:35.570: 8=FIX.4.4|9=259|35=G|34=183|49=ADRARB_XTSE_TOBVC|52=20150609-13:32:35.570|56=AMGTOBVC|1=881|11=-724d6e9826f9bb45|21=1|38=7000|40=2|41=37a02f9b7e6d4632|44=11880|54=2|55=PREC|59=0|60=20150609-13:32:35.570|63=3|100=XBOG|207=XBOG|583=6a48341c323a4fcc|453=1|448=LVARB|447=D|452=1|10=193|
20150609-13:32:35.678: 8=FIX.4.4|9=346|35=8|57=062X01|128=LRVORBVC|115=BVC062|34=186|49=AMGTOBVC|56=ADRARB_XTSE_TOBVC|52=20150609-13:32:35.751|37=201506091174|11=-724d6e9826f9bb45|41=37a02f9b7e6d4632|17=7362|150=5|39=0|63=4|48=PREC|22=99|167=CS|54=2|38=7000|40=2|44=11880|59=0|151=7000|14=0|60=20150609-13:32:35.000|31=0|32=0|6=0|55=PREC|453=1|448=062|447=D|452=1|583=6a48341c323a4fcc|10=230|
20150609-13:32:42.319: 8=FIX.4.4|9=260|35=G|34=184|49=ADRARB_XTSE_TOBVC|52=20150609-13:32:42.319|56=AMGTOBVC|1=881|11=-526f90c2a642b916|21=1|38=7000|40=2|41=-724d6e9826f9bb45|44=11920|54=2|55=PREC|59=0|60=20150609-13:32:42.319|63=3|100=XBOG|207=XBOG|583=6a48341c323a4fcc|453=1|448=LVARB|447=D|452=1|10=173|
20150609-13:32:42.320: 8=FIX.4.4|9=260|35=G|34=185|49=ADRARB_XTSE_TOBVC|52=20150609-13:32:42.320|56=AMGTOBVC|1=881|11=-2a292585f1c0ba01|21=1|38=8000|40=2|41=-2ff61557f929b736|44=11840|54=1|55=PREC|59=0|60=20150609-13:32:42.319|63=3|100=XBOG|207=XBOG|583=6a48341c323a4fcc|453=1|448=LVARB|447=D|452=1|10=152|
20150609-13:32:42.470: 8=FIX.4.4|9=347|35=8|57=062X01|128=LRVORBVC|115=BVC062|34=187|49=AMGTOBVC|56=ADRARB_XTSE_TOBVC|52=20150609-13:32:42.553|37=201506091174|11=-526f90c2a642b916|41=-724d6e9826f9bb45|17=7418|150=5|39=0|63=4|48=PREC|22=99|167=CS|54=2|38=7000|40=2|44=11920|59=0|151=7000|14=0|60=20150609-13:32:42.000|31=0|32=0|6=0|55=PREC|453=1|448=062|447=D|452=1|583=6a48341c323a4fcc|10=219|
20150609-13:32:42.471: 8=FIX.4.4|9=260|35=G|34=186|49=ADRARB_XTSE_TOBVC|52=20150609-13:32:42.471|56=AMGTOBVC|1=881|11=-417c28e4afd0b110|21=1|38=7000|40=2|41=-526f90c2a642b916|44=11880|54=2|55=PREC|59=0|60=20150609-13:32:42.471|63=3|100=XBOG|207=XBOG|583=6a48341c323a4fcc|453=1|448=LVARB|447=D|452=1|10=194|
20150609-13:32:42.473: 8=FIX.4.4|9=347|35=8|57=062X01|128=LRVORBVC|115=BVC062|34=188|49=AMGTOBVC|56=ADRARB_XTSE_TOBVC|52=20150609-13:32:42.553|37=201506091167|11=-2a292585f1c0ba01|41=-2ff61557f929b736|17=7419|150=5|39=0|63=4|48=PREC|22=99|167=CS|54=1|38=8000|40=2|44=11840|59=0|151=8000|14=0|60=20150609-13:32:42.000|31=0|32=0|6=0|55=PREC|453=1|448=062|447=D|452=1|583=6a48341c323a4fcc|10=210|
20150609-13:32:42.474: 8=FIX.4.4|9=259|35=G|34=187|49=ADRARB_XTSE_TOBVC|52=20150609-13:32:42.474|56=AMGTOBVC|1=881|11=340ec25548e94a55|21=1|38=8000|40=2|41=-2a292585f1c0ba01|44=11800|54=1|55=PREC|59=0|60=20150609-13:32:42.474|63=3|100=XBOG|207=XBOG|583=6a48341c323a4fcc|453=1|448=LVARB|447=D|452=1|10=111|
20150609-13:32:42.578: 8=FIX.4.4|9=347|35=8|57=062X01|128=LRVORBVC|115=BVC062|34=189|49=AMGTOBVC|56=ADRARB_XTSE_TOBVC|52=20150609-13:32:42.662|37=201506091174|11=-417c28e4afd0b110|41=-526f90c2a642b916|17=7421|150=5|39=0|63=4|48=PREC|22=99|167=CS|54=2|38=7000|40=2|44=11880|59=0|151=7000|14=0|60=20150609-13:32:42.000|31=0|32=0|6=0|55=PREC|453=1|448=062|447=D|452=1|583=6a48341c323a4fcc|10=237|
20150609-13:32:42.582: 8=FIX.4.4|9=346|35=8|57=062X01|128=LRVORBVC|115=BVC062|34=190|49=AMGTOBVC|56=ADRARB_XTSE_TOBVC|52=20150609-13:32:42.662|37=201506091167|11=340ec25548e94a55|41=-2a292585f1c0ba01|17=7422|150=5|39=0|63=4|48=PREC|22=99|167=CS|54=1|38=8000|40=2|44=11800|59=0|151=8000|14=0|60=20150609-13:32:42.000|31=0|32=0|6=0|55=PREC|453=1|448=062|447=D|452=1|583=6a48341c323a4fcc|10=134|
20150609-13:32:44.351: 8=FIX.4.4|9=260|35=G|34=188|49=ADRARB_XTSE_TOBVC|52=20150609-13:32:44.351|56=AMGTOBVC|1=881|11=-59395e064711b22c|21=1|38=7000|40=2|41=-417c28e4afd0b110|44=11900|54=2|55=PREC|59=0|60=20150609-13:32:44.351|63=3|100=XBOG|207=XBOG|583=6a48341c323a4fcc|453=1|448=LVARB|447=D|452=1|10=139|
20150609-13:32:44.459: 8=FIX.4.4|9=347|35=8|57=062X01|128=LRVORBVC|115=BVC062|34=191|49=AMGTOBVC|56=ADRARB_XTSE_TOBVC|52=20150609-13:32:44.534|37=201506091174|11=-59395e064711b22c|41=-417c28e4afd0b110|17=7438|150=5|39=0|63=4|48=PREC|22=99|167=CS|54=2|38=7000|40=2|44=11900|59=0|151=7000|14=0|60=20150609-13:32:44.000|31=0|32=0|6=0|55=PREC|453=1|448=062|447=D|452=1|583=6a48341c323a4fcc|10=185|
20150609-13:32:45.875: 8=FIX.4.4|9=258|35=G|34=189|49=ADRARB_XTSE_TOBVC|52=20150609-13:32:45.875|56=AMGTOBVC|1=881|11=16d64cdf788b49d0|21=1|38=11140|40=2|41=23cd0f8942874e7e|44=6240|54=2|55=CNEC|59=0|60=20150609-13:32:45.875|63=3|100=XBOG|207=XBOG|583=-76abaff36eeb1c0|453=1|448=LVARB|447=D|452=1|10=085|
20150609-13:32:45.966: 8=FIX.4.4|9=259|35=G|34=190|49=ADRARB_XTSE_TOBVC|52=20150609-13:32:45.966|56=AMGTOBVC|1=881|11=-70511f45827bb2bb|21=1|38=6000|40=2|41=-15c1564933d8b37f|44=6160|54=1|55=CNEC|59=0|60=20150609-13:32:45.966|63=3|100=XBOG|207=XBOG|583=-76abaff36eeb1c0|453=1|448=LVARB|447=D|452=1|10=254|
20150609-13:32:46.028: 8=FIX.4.4|9=351|35=8|57=062X01|128=LRVORBVC|115=BVC062|34=192|49=AMGTOBVC|56=ADRARB_XTSE_TOBVC|52=20150609-13:32:46.110|37=201506091382|11=16d64cdf788b49d0|41=23cd0f8942874e7e|17=7455|150=5|39=1|63=4|48=CNEC|22=99|167=CS|54=2|38=11140|40=2|44=6240|59=0|151=6000|14=5140|6=6190|60=20150609-13:32:45.000|31=0|32=0|55=CNEC|453=1|448=062|447=D|452=1|583=-76abaff36eeb1c0|10=129|
20150609-13:32:46.029: 8=FIX.4.4|9=257|35=G|34=191|49=ADRARB_XTSE_TOBVC|52=20150609-13:32:46.029|56=AMGTOBVC|1=881|11=af09ffcf3484c2b|21=1|38=11140|40=2|41=16d64cdf788b49d0|44=6220|54=2|55=CNEC|59=0|60=20150609-13:32:46.029|63=3|100=XBOG|207=XBOG|583=-76abaff36eeb1c0|453=1|448=LVARB|447=D|452=1|10=141|
20150609-13:32:46.083: 8=FIX.4.4|9=346|35=8|57=062X01|128=LRVORBVC|115=BVC062|34=193|49=AMGTOBVC|56=ADRARB_XTSE_TOBVC|52=20150609-13:32:46.157|37=201506091168|11=-70511f45827bb2bb|41=-15c1564933d8b37f|17=7458|150=5|39=0|63=4|48=CNEC|22=99|167=CS|54=1|38=6000|40=2|44=6160|59=0|151=6000|14=0|60=20150609-13:32:46.000|31=0|32=0|6=0|55=CNEC|453=1|448=062|447=D|452=1|583=-76abaff36eeb1c0|10=010|
20150609-13:32:46.141: 8=FIX.4.4|9=350|35=8|57=062X01|128=LRVORBVC|115=BVC062|34=194|49=AMGTOBVC|56=ADRARB_XTSE_TOBVC|52=20150609-13:32:46.219|37=201506091382|11=af09ffcf3484c2b|41=16d64cdf788b49d0|17=7460|150=5|39=1|63=4|48=CNEC|22=99|167=CS|54=2|38=11140|40=2|44=6220|59=0|151=6000|14=5140|6=6190|60=20150609-13:32:46.000|31=0|32=0|55=CNEC|453=1|448=062|447=D|452=1|583=-76abaff36eeb1c0|10=217|
20150609-13:32:48.102: 8=FIX.4.4|9=258|35=G|34=192|49=ADRARB_XTSE_TOBVC|52=20150609-13:32:48.102|56=AMGTOBVC|1=881|11=4270a5099c804517|21=1|38=8000|40=2|41=340ec25548e94a55|44=11820|54=1|55=PREC|59=0|60=20150609-13:32:48.102|63=3|100=XBOG|207=XBOG|583=6a48341c323a4fcc|453=1|448=LVARB|447=D|452=1|10=180|
20150609-13:32:48.215: 8=FIX.4.4|9=345|35=8|57=062X01|128=LRVORBVC|115=BVC062|34=195|49=AMGTOBVC|56=ADRARB_XTSE_TOBVC|52=20150609-13:32:48.278|37=201506091167|11=4270a5099c804517|41=340ec25548e94a55|17=7496|150=5|39=0|63=4|48=PREC|22=99|167=CS|54=1|38=8000|40=2|44=11820|59=0|151=8000|14=0|60=20150609-13:32:48.000|31=0|32=0|6=0|55=PREC|453=1|448=062|447=D|452=1|583=6a48341c323a4fcc|10=250|
20150609-13:32:53.623: 8=FIX.4.4|9=260|35=G|34=193|49=ADRARB_XTSE_TOBVC|52=20150609-13:32:53.623|56=AMGTOBVC|1=881|11=-2824f8ce75e1b02a|21=1|38=7000|40=2|41=-59395e064711b22c|44=11920|54=2|55=PREC|59=0|60=20150609-13:32:53.623|63=3|100=XBOG|207=XBOG|583=6a48341c323a4fcc|453=1|448=LVARB|447=D|452=1|10=153|
20150609-13:32:53.729: 8=FIX.4.4|9=347|35=8|57=062X01|128=LRVORBVC|115=BVC062|34=196|49=AMGTOBVC|56=ADRARB_XTSE_TOBVC|52=20150609-13:32:53.801|37=201506091174|11=-2824f8ce75e1b02a|41=-59395e064711b22c|17=7559|150=5|39=0|63=4|48=PREC|22=99|167=CS|54=2|38=7000|40=2|44=11920|59=0|151=7000|14=0|60=20150609-13:32:53.000|31=0|32=0|6=0|55=PREC|453=1|448=062|447=D|452=1|583=6a48341c323a4fcc|10=205|
20150609-13:32:55.678: 8=FIX.4.4|9=258|35=G|34=194|49=ADRARB_XTSE_TOBVC|52=20150609-13:32:55.678|56=AMGTOBVC|1=881|11=5cde6837c1c4b7d|21=1|38=7000|40=2|41=-2824f8ce75e1b02a|44=11900|54=2|55=PREC|59=0|60=20150609-13:32:55.678|63=3|100=XBOG|207=XBOG|583=6a48341c323a4fcc|453=1|448=LVARB|447=D|452=1|10=027|
20150609-13:32:55.785: 8=FIX.4.4|9=345|35=8|57=062X01|128=LRVORBVC|115=BVC062|34=197|49=AMGTOBVC|56=ADRARB_XTSE_TOBVC|52=20150609-13:32:55.860|37=201506091174|11=5cde6837c1c4b7d|41=-2824f8ce75e1b02a|17=7593|150=5|39=0|63=4|48=PREC|22=99|167=CS|54=2|38=7000|40=2|44=11900|59=0|151=7000|14=0|60=20150609-13:32:55.000|31=0|32=0|6=0|55=PREC|453=1|448=062|447=D|452=1|583=6a48341c323a4fcc|10=053|
20150609-13:32:55.786: 8=FIX.4.4|9=258|35=G|34=195|49=ADRARB_XTSE_TOBVC|52=20150609-13:32:55.786|56=AMGTOBVC|1=881|11=-1d1bdf6e3a80b1d0|21=1|38=7000|40=2|41=5cde6837c1c4b7d|44=11920|54=2|55=PREC|59=0|60=20150609-13:32:55.786|63=3|100=XBOG|207=XBOG|583=6a48341c323a4fcc|453=1|448=LVARB|447=D|452=1|10=113|
20150609-13:32:55.899: 8=FIX.4.4|9=345|35=8|57=062X01|128=LRVORBVC|115=BVC062|34=198|49=AMGTOBVC|56=ADRARB_XTSE_TOBVC|52=20150609-13:32:55.969|37=201506091174|11=-1d1bdf6e3a80b1d0|41=5cde6837c1c4b7d|17=7596|150=5|39=0|63=4|48=PREC|22=99|167=CS|54=2|38=7000|40=2|44=11920|59=0|151=7000|14=0|60=20150609-13:32:55.000|31=0|32=0|6=0|55=PREC|453=1|448=062|447=D|452=1|583=6a48341c323a4fcc|10=152|
20150609-13:32:58.712: 8=FIX.4.4|9=259|35=G|34=196|49=ADRARB_XTSE_TOBVC|52=20150609-13:32:58.712|56=AMGTOBVC|1=881|11=-30fd76a9e974b361|21=1|38=8000|40=2|41=4270a5099c804517|44=11840|54=1|55=PREC|59=0|60=20150609-13:32:58.712|63=3|100=XBOG|207=XBOG|583=6a48341c323a4fcc|453=1|448=LVARB|447=D|452=1|10=045|
20150609-13:32:58.819: 8=FIX.4.4|9=346|35=8|57=062X01|128=LRVORBVC|115=BVC062|34=199|49=AMGTOBVC|56=ADRARB_XTSE_TOBVC|52=20150609-13:32:58.902|37=201506091167|11=-30fd76a9e974b361|41=4270a5099c804517|17=7625|150=5|39=0|63=4|48=PREC|22=99|167=CS|54=1|38=8000|40=2|44=11840|59=0|151=8000|14=0|60=20150609-13:32:58.000|31=0|32=0|6=0|55=PREC|453=1|448=062|447=D|452=1|583=6a48341c323a4fcc|10=089|
20150609-13:32:58.820: 8=FIX.4.4|9=259|35=G|34=197|49=ADRARB_XTSE_TOBVC|52=20150609-13:32:58.820|56=AMGTOBVC|1=881|11=-7661d18ebbbbbc4|21=1|38=8000|40=2|41=-30fd76a9e974b361|44=11820|54=1|55=PREC|59=0|60=20150609-13:32:58.820|63=3|100=XBOG|207=XBOG|583=6a48341c323a4fcc|453=1|448=LVARB|447=D|452=1|10=063|
20150609-13:32:58.933: 8=FIX.4.4|9=346|35=8|57=062X01|128=LRVORBVC|115=BVC062|34=200|49=AMGTOBVC|56=ADRARB_XTSE_TOBVC|52=20150609-13:32:58.996|37=201506091167|11=-7661d18ebbbbbc4|41=-30fd76a9e974b361|17=7628|150=5|39=0|63=4|48=PREC|22=99|167=CS|54=1|38=8000|40=2|44=11820|59=0|151=8000|14=0|60=20150609-13:32:58.000|31=0|32=0|6=0|55=PREC|453=1|448=062|447=D|452=1|583=6a48341c323a4fcc|10=105|
20150609-13:33:04.078: 8=FIX.4.4|9=260|35=G|34=198|49=ADRARB_XTSE_TOBVC|52=20150609-13:33:04.077|56=AMGTOBVC|1=881|11=-19b8b72a668abdaa|21=1|38=7000|40=2|41=-1d1bdf6e3a80b1d0|44=11900|54=2|55=PREC|59=0|60=20150609-13:33:04.077|63=3|100=XBOG|207=XBOG|583=6a48341c323a4fcc|453=1|448=LVARB|447=D|452=1|10=220|
20150609-13:33:04.185: 8=FIX.4.4|9=347|35=8|57=062X01|128=LRVORBVC|115=BVC062|34=201|49=AMGTOBVC|56=ADRARB_XTSE_TOBVC|52=20150609-13:33:04.269|37=201506091174|11=-19b8b72a668abdaa|41=-1d1bdf6e3a80b1d0|17=7677|150=5|39=0|63=4|48=PREC|22=99|167=CS|54=2|38=7000|40=2|44=11900|59=0|151=7000|14=0|60=20150609-13:33:04.000|31=0|32=0|6=0|55=PREC|453=1|448=062|447=D|452=1|583=6a48341c323a4fcc|10=001|
20150609-13:33:12.953: 8=FIX.4.4|9=260|35=G|34=199|49=ADRARB_XTSE_TOBVC|52=20150609-13:33:12.953|56=AMGTOBVC|1=881|11=-426ba208d8d4bb3c|21=1|38=7000|40=2|41=-19b8b72a668abdaa|44=11920|54=2|55=PREC|59=0|60=20150609-13:33:12.953|63=3|100=XBOG|207=XBOG|583=6a48341c323a4fcc|453=1|448=LVARB|447=D|452=1|10=186|
20150609-13:33:13.059: 8=FIX.4.4|9=347|35=8|57=062X01|128=LRVORBVC|115=BVC062|34=202|49=AMGTOBVC|56=ADRARB_XTSE_TOBVC|52=20150609-13:33:13.130|37=201506091174|11=-426ba208d8d4bb3c|41=-19b8b72a668abdaa|17=7746|150=5|39=0|63=4|48=PREC|22=99|167=CS|54=2|38=7000|40=2|44=11920|59=0|151=7000|14=0|60=20150609-13:33:13.000|31=0|32=0|6=0|55=PREC|453=1|448=062|447=D|452=1|583=6a48341c323a4fcc|10=203|
20150609-13:33:16.929: 8=FIX.4.4|9=258|35=G|34=200|49=ADRARB_XTSE_TOBVC|52=20150609-13:33:16.929|56=AMGTOBVC|1=881|11=-668030cc7e2fb4cb|21=1|38=11140|40=2|41=af09ffcf3484c2b|44=6210|54=2|55=CNEC|59=0|60=20150609-13:33:16.929|63=3|100=XBOG|207=XBOG|583=-76abaff36eeb1c0|453=1|448=LVARB|447=D|452=1|10=223|
20150609-13:33:17.042: 8=FIX.4.4|9=351|35=8|57=062X01|128=LRVORBVC|115=BVC062|34=203|49=AMGTOBVC|56=ADRARB_XTSE_TOBVC|52=20150609-13:33:17.123|37=201506091382|11=-668030cc7e2fb4cb|41=af09ffcf3484c2b|17=7805|150=5|39=1|63=4|48=CNEC|22=99|167=CS|54=2|38=11140|40=2|44=6210|59=0|151=6000|14=5140|6=6190|60=20150609-13:33:16.000|31=0|32=0|55=CNEC|453=1|448=062|447=D|452=1|583=-76abaff36eeb1c0|10=023|
20150609-13:33:28.520: 8=FIX.4.4|9=260|35=G|34=201|49=ADRARB_XTSE_TOBVC|52=20150609-13:33:28.520|56=AMGTOBVC|1=881|11=-2f687b8d359bb3bc|21=1|38=7000|40=2|41=-426ba208d8d4bb3c|44=11900|54=2|55=PREC|59=0|60=20150609-13:33:28.520|63=3|100=XBOG|207=XBOG|583=6a48341c323a4fcc|453=1|448=LVARB|447=D|452=1|10=125|
20150609-13:33:28.521: 8=FIX.4.4|9=259|35=G|34=202|49=ADRARB_XTSE_TOBVC|52=20150609-13:33:28.521|56=AMGTOBVC|1=881|11=-3e3b345366d2bfd8|21=1|38=8000|40=2|41=-7661d18ebbbbbc4|44=11840|54=1|55=PREC|59=0|60=20150609-13:33:28.520|63=3|100=XBOG|207=XBOG|583=6a48341c323a4fcc|453=1|448=LVARB|447=D|452=1|10=084|
20150609-13:33:28.598: 8=FIX.4.4|9=259|35=G|34=203|49=ADRARB_XTSE_TOBVC|52=20150609-13:33:28.598|56=AMGTOBVC|1=881|11=-2a95da5a6e2ab4f4|21=1|38=6000|40=2|41=-70511f45827bb2bb|44=6150|54=1|55=CNEC|59=0|60=20150609-13:33:28.598|63=3|100=XBOG|207=XBOG|583=-76abaff36eeb1c0|453=1|448=LVARB|447=D|452=1|10=178|
20150609-13:33:28.635: 8=FIX.4.4|9=347|35=8|57=062X01|128=LRVORBVC|115=BVC062|34=204|49=AMGTOBVC|56=ADRARB_XTSE_TOBVC|52=20150609-13:33:28.714|37=201506091174|11=-2f687b8d359bb3bc|41=-426ba208d8d4bb3c|17=7990|150=5|39=0|63=4|48=PREC|22=99|167=CS|54=2|38=7000|40=2|44=11900|59=0|151=7000|14=0|60=20150609-13:33:28.000|31=0|32=0|6=0|55=PREC|453=1|448=062|447=D|452=1|583=6a48341c323a4fcc|10=187|
20150609-13:33:28.638: 8=FIX.4.4|9=258|35=G|34=204|49=ADRARB_XTSE_TOBVC|52=20150609-13:33:28.638|56=AMGTOBVC|1=881|11=51da1c5725949c2|21=1|38=7000|40=2|41=-2f687b8d359bb3bc|44=11880|54=2|55=PREC|59=0|60=20150609-13:33:28.638|63=3|100=XBOG|207=XBOG|583=6a48341c323a4fcc|453=1|448=LVARB|447=D|452=1|10=187|
20150609-13:33:28.638: 8=FIX.4.4|9=346|35=8|57=062X01|128=LRVORBVC|115=BVC062|34=205|49=AMGTOBVC|56=ADRARB_XTSE_TOBVC|52=20150609-13:33:28.714|37=201506091167|11=-3e3b345366d2bfd8|41=-7661d18ebbbbbc4|17=7991|150=5|39=0|63=4|48=PREC|22=99|167=CS|54=1|38=8000|40=2|44=11840|59=0|151=8000|14=0|60=20150609-13:33:28.000|31=0|32=0|6=0|55=PREC|453=1|448=062|447=D|452=1|583=6a48341c323a4fcc|10=140|
20150609-13:33:28.639: 8=FIX.4.4|9=259|35=G|34=205|49=ADRARB_XTSE_TOBVC|52=20150609-13:33:28.639|56=AMGTOBVC|1=881|11=331a6e1cc92244b7|21=1|38=8000|40=2|41=-3e3b345366d2bfd8|44=11820|54=1|55=PREC|59=0|60=20150609-13:33:28.639|63=3|100=XBOG|207=XBOG|583=6a48341c323a4fcc|453=1|448=LVARB|447=D|452=1|10=222|
20150609-13:33:28.704: 8=FIX.4.4|9=346|35=8|57=062X01|128=LRVORBVC|115=BVC062|34=206|49=AMGTOBVC|56=ADRARB_XTSE_TOBVC|52=20150609-13:33:28.777|37=201506091168|11=-2a95da5a6e2ab4f4|41=-70511f45827bb2bb|17=7992|150=5|39=0|63=4|48=CNEC|22=99|167=CS|54=1|38=6000|40=2|44=6150|59=0|151=6000|14=0|60=20150609-13:33:28.000|31=0|32=0|6=0|55=CNEC|453=1|448=062|447=D|452=1|583=-76abaff36eeb1c0|10=197|
20150609-13:33:28.749: 8=FIX.4.4|9=345|35=8|57=062X01|128=LRVORBVC|115=BVC062|34=207|49=AMGTOBVC|56=ADRARB_XTSE_TOBVC|52=20150609-13:33:28.823|37=201506091174|11=51da1c5725949c2|41=-2f687b8d359bb3bc|17=7993|150=5|39=0|63=4|48=PREC|22=99|167=CS|54=2|38=7000|40=2|44=11880|59=0|151=7000|14=0|60=20150609-13:33:28.000|31=0|32=0|6=0|55=PREC|453=1|448=062|447=D|452=1|583=6a48341c323a4fcc|10=224|
20150609-13:33:28.753: 8=FIX.4.4|9=346|35=8|57=062X01|128=LRVORBVC|115=BVC062|34=208|49=AMGTOBVC|56=ADRARB_XTSE_TOBVC|52=20150609-13:33:28.823|37=201506091167|11=331a6e1cc92244b7|41=-3e3b345366d2bfd8|17=7994|150=5|39=0|63=4|48=PREC|22=99|167=CS|54=1|38=8000|40=2|44=11820|59=0|151=8000|14=0|60=20150609-13:33:28.000|31=0|32=0|6=0|55=PREC|453=1|448=062|447=D|452=1|583=6a48341c323a4fcc|10=005|
20150609-13:33:29.306: 8=FIX.4.4|9=258|35=G|34=206|49=ADRARB_XTSE_TOBVC|52=20150609-13:33:29.305|56=AMGTOBVC|1=881|11=27837b6ffc264c5c|21=1|38=6000|40=2|41=-2a95da5a6e2ab4f4|44=6130|54=1|55=CNEC|59=0|60=20150609-13:33:29.305|63=3|100=XBOG|207=XBOG|583=-76abaff36eeb1c0|453=1|448=LVARB|447=D|452=1|10=172|
20150609-13:33:29.413: 8=FIX.4.4|9=345|35=8|57=062X01|128=LRVORBVC|115=BVC062|34=209|49=AMGTOBVC|56=ADRARB_XTSE_TOBVC|52=20150609-13:33:29.494|37=201506091168|11=27837b6ffc264c5c|41=-2a95da5a6e2ab4f4|17=8004|150=5|39=0|63=4|48=CNEC|22=99|167=CS|54=1|38=6000|40=2|44=6130|59=0|151=6000|14=0|60=20150609-13:33:29.000|31=0|32=0|6=0|55=CNEC|453=1|448=062|447=D|452=1|583=-76abaff36eeb1c0|10=200|
20150609-13:33:30.549: 8=FIX.4.4|9=257|35=G|34=207|49=ADRARB_XTSE_TOBVC|52=20150609-13:33:30.549|56=AMGTOBVC|1=881|11=-5c3059439bfb38c|21=1|38=7000|40=2|41=51da1c5725949c2|44=11900|54=2|55=PREC|59=0|60=20150609-13:33:30.549|63=3|100=XBOG|207=XBOG|583=6a48341c323a4fcc|453=1|448=LVARB|447=D|452=1|10=019|
20150609-13:33:30.657: 8=FIX.4.4|9=344|35=8|57=062X01|128=LRVORBVC|115=BVC062|34=210|49=AMGTOBVC|56=ADRARB_XTSE_TOBVC|52=20150609-13:33:30.727|37=201506091174|11=-5c3059439bfb38c|41=51da1c5725949c2|17=8021|150=5|39=0|63=4|48=PREC|22=99|167=CS|54=2|38=7000|40=2|44=11900|59=0|151=7000|14=0|60=20150609-13:33:30.000|31=0|32=0|6=0|55=PREC|453=1|448=062|447=D|452=1|583=6a48341c323a4fcc|10=031|
20150609-13:33:31.903: 8=FIX.4.4|9=257|35=G|34=208|49=ADRARB_XTSE_TOBVC|52=20150609-13:33:31.903|56=AMGTOBVC|1=881|11=5b84481b441145e4|21=1|38=6000|40=2|41=27837b6ffc264c5c|44=6150|54=1|55=CNEC|59=0|60=20150609-13:33:31.903|63=3|100=XBOG|207=XBOG|583=-76abaff36eeb1c0|453=1|448=LVARB|447=D|452=1|10=144|
20150609-13:33:32.010: 8=FIX.4.4|9=344|35=8|57=062X01|128=LRVORBVC|115=BVC062|34=211|49=AMGTOBVC|56=ADRARB_XTSE_TOBVC|52=20150609-13:33:32.084|37=201506091168|11=5b84481b441145e4|41=27837b6ffc264c5c|17=8033|150=5|39=0|63=4|48=CNEC|22=99|167=CS|54=1|38=6000|40=2|44=6150|59=0|151=6000|14=0|60=20150609-13:33:31.000|31=0|32=0|6=0|55=CNEC|453=1|448=062|447=D|452=1|583=-76abaff36eeb1c0|10=153|
20150609-13:33:35.900: 8=FIX.4.4|9=379|35=8|57=062X01|128=LRVORBVC|115=BVC062|34=212|49=AMGTOBVC|56=ADRARB_XTSE_TOBVC|52=20150609-13:33:35.984|37=201506091382|11=-668030cc7e2fb4cb|17=8081S|150=F|39=1|63=4|64=20150612|48=CNEC|22=99|167=CS|54=2|38=11140|40=2|44=6210|59=0|32=2300|31=6210|151=3700|14=7440|6=6196.18|75=20150609|60=20150609-13:33:35.843|381=14283000|55=CNEC|453=1|448=062|447=D|452=1|583=-76abaff36eeb1c0|10=041|
20150609-13:33:36.543: 8=FIX.4.4|9=257|35=G|34=209|49=ADRARB_XTSE_TOBVC|52=20150609-13:33:36.543|56=AMGTOBVC|1=881|11=-814c970b76ebf78|21=1|38=6000|40=2|41=5b84481b441145e4|44=6180|54=1|55=CNEC|59=0|60=20150609-13:33:36.543|63=3|100=XBOG|207=XBOG|583=-76abaff36eeb1c0|453=1|448=LVARB|447=D|452=1|10=109|
20150609-13:33:36.543: 8=FIX.4.4|9=260|35=G|34=210|49=ADRARB_XTSE_TOBVC|52=20150609-13:33:36.543|56=AMGTOBVC|1=881|11=-7bd3bf4c49b8b1e1|21=1|38=13440|40=2|41=-668030cc7e2fb4cb|44=6230|54=2|55=CNEC|59=0|60=20150609-13:33:36.543|63=3|100=XBOG|207=XBOG|583=-76abaff36eeb1c0|453=1|448=LVARB|447=D|452=1|10=049|
20150609-13:33:36.650: 8=FIX.4.4|9=344|35=8|57=062X01|128=LRVORBVC|115=BVC062|34=213|49=AMGTOBVC|56=ADRARB_XTSE_TOBVC|52=20150609-13:33:36.733|37=201506091168|11=-814c970b76ebf78|41=5b84481b441145e4|17=8085|150=5|39=0|63=4|48=CNEC|22=99|167=CS|54=1|38=6000|40=2|44=6180|59=0|151=6000|14=0|60=20150609-13:33:36.000|31=0|32=0|6=0|55=CNEC|453=1|448=062|447=D|452=1|583=-76abaff36eeb1c0|10=126|
20150609-13:33:36.654: 8=FIX.4.4|9=356|35=8|57=062X01|128=LRVORBVC|115=BVC062|34=214|49=AMGTOBVC|56=ADRARB_XTSE_TOBVC|52=20150609-13:33:36.733|37=201506091382|11=-7bd3bf4c49b8b1e1|41=-668030cc7e2fb4cb|17=8086|150=5|39=1|63=4|48=CNEC|22=99|167=CS|54=2|38=13440|40=2|44=6230|59=0|151=6000|14=7440|6=6196.18|60=20150609-13:33:36.000|31=0|32=0|55=CNEC|453=1|448=062|447=D|452=1|583=-76abaff36eeb1c0|10=048|
20150609-13:33:46.706: 8=FIX.4.4|9=258|35=G|34=211|49=ADRARB_XTSE_TOBVC|52=20150609-13:33:46.705|56=AMGTOBVC|1=881|11=1dacf0a370c249e3|21=1|38=7000|40=2|41=-5c3059439bfb38c|44=11880|54=2|55=PREC|59=0|60=20150609-13:33:46.705|63=3|100=XBOG|207=XBOG|583=6a48341c323a4fcc|453=1|448=LVARB|447=D|452=1|10=207|
20150609-13:33:46.814: 8=FIX.4.4|9=345|35=8|57=062X01|128=LRVORBVC|115=BVC062|34=215|49=AMGTOBVC|56=ADRARB_XTSE_TOBVC|52=20150609-13:33:46.888|37=201506091174|11=1dacf0a370c249e3|41=-5c3059439bfb38c|17=8174|150=5|39=0|63=4|48=PREC|22=99|167=CS|54=2|38=7000|40=2|44=11880|59=0|151=7000|14=0|60=20150609-13:33:46.000|31=0|32=0|6=0|55=PREC|453=1|448=062|447=D|452=1|583=6a48341c323a4fcc|10=002|
20150609-13:33:52.270: 8=FIX.4.4|9=258|35=G|34=212|49=ADRARB_XTSE_TOBVC|52=20150609-13:33:52.270|56=AMGTOBVC|1=881|11=2fae7f3a4f184e12|21=1|38=8000|40=2|41=331a6e1cc92244b7|44=11800|54=1|55=PREC|59=0|60=20150609-13:33:52.269|63=3|100=XBOG|207=XBOG|583=6a48341c323a4fcc|453=1|448=LVARB|447=D|452=1|10=200|
20150609-13:33:52.270: 8=FIX.4.4|9=259|35=G|34=213|49=ADRARB_XTSE_TOBVC|52=20150609-13:33:52.270|56=AMGTOBVC|1=881|11=-309d7862ff16b5f5|21=1|38=7000|40=2|41=1dacf0a370c249e3|44=11860|54=2|55=PREC|59=0|60=20150609-13:33:52.270|63=3|100=XBOG|207=XBOG|583=6a48341c323a4fcc|453=1|448=LVARB|447=D|452=1|10=255|
20150609-13:33:52.381: 8=FIX.4.4|9=345|35=8|57=062X01|128=LRVORBVC|115=BVC062|34=216|49=AMGTOBVC|56=ADRARB_XTSE_TOBVC|52=20150609-13:33:52.457|37=201506091167|11=2fae7f3a4f184e12|41=331a6e1cc92244b7|17=8209|150=5|39=0|63=4|48=PREC|22=99|167=CS|54=1|38=8000|40=2|44=11800|59=0|151=8000|14=0|60=20150609-13:33:52.000|31=0|32=0|6=0|55=PREC|453=1|448=062|447=D|452=1|583=6a48341c323a4fcc|10=243|
20150609-13:33:52.388: 8=FIX.4.4|9=346|35=8|57=062X01|128=LRVORBVC|115=BVC062|34=217|49=AMGTOBVC|56=ADRARB_XTSE_TOBVC|52=20150609-13:33:52.457|37=201506091174|11=-309d7862ff16b5f5|41=1dacf0a370c249e3|17=8210|150=5|39=0|63=4|48=PREC|22=99|167=CS|54=2|38=7000|40=2|44=11860|59=0|151=7000|14=0|60=20150609-13:33:52.000|31=0|32=0|6=0|55=PREC|453=1|448=062|447=D|452=1|583=6a48341c323a4fcc|10=039|
20150609-13:33:52.389: 8=FIX.4.4|9=259|35=G|34=214|49=ADRARB_XTSE_TOBVC|52=20150609-13:33:52.389|56=AMGTOBVC|1=881|11=-2b7be3099e4bda3|21=1|38=7000|40=2|41=-309d7862ff16b5f5|44=11880|54=2|55=PREC|59=0|60=20150609-13:33:52.389|63=3|100=XBOG|207=XBOG|583=6a48341c323a4fcc|453=1|448=LVARB|447=D|452=1|10=027|
20150609-13:33:52.507: 8=FIX.4.4|9=346|35=8|57=062X01|128=LRVORBVC|115=BVC062|34=218|49=AMGTOBVC|56=ADRARB_XTSE_TOBVC|52=20150609-13:33:52.582|37=201506091174|11=-2b7be3099e4bda3|41=-309d7862ff16b5f5|17=8211|150=5|39=0|63=4|48=PREC|22=99|167=CS|54=2|38=7000|40=2|44=11880|59=0|151=7000|14=0|60=20150609-13:33:52.000|31=0|32=0|6=0|55=PREC|453=1|448=062|447=D|452=1|583=6a48341c323a4fcc|10=045|
20150609-13:33:56.797: 8=FIX.4.4|9=258|35=G|34=215|49=ADRARB_XTSE_TOBVC|52=20150609-13:33:56.797|56=AMGTOBVC|1=881|11=22e8a0cee978423a|21=1|38=7000|40=2|41=-2b7be3099e4bda3|44=11860|54=2|55=PREC|59=0|60=20150609-13:33:56.797|63=3|100=XBOG|207=XBOG|583=6a48341c323a4fcc|453=1|448=LVARB|447=D|452=1|10=031|
20150609-13:33:56.905: 8=FIX.4.4|9=345|35=8|57=062X01|128=LRVORBVC|115=BVC062|34=219|49=AMGTOBVC|56=ADRARB_XTSE_TOBVC|52=20150609-13:33:56.980|37=201506091174|11=22e8a0cee978423a|41=-2b7be3099e4bda3|17=8248|150=5|39=0|63=4|48=PREC|22=99|167=CS|54=2|38=7000|40=2|44=11860|59=0|151=7000|14=0|60=20150609-13:33:56.000|31=0|32=0|6=0|55=PREC|453=1|448=062|447=D|452=1|583=6a48341c323a4fcc|10=055|
20150609-13:34:01.433: 8=FIX.4.4|9=258|35=G|34=216|49=ADRARB_XTSE_TOBVC|52=20150609-13:34:01.433|56=AMGTOBVC|1=881|11=4b70168b31074aca|21=1|38=8000|40=2|41=2fae7f3a4f184e12|44=11780|54=1|55=PREC|59=0|60=20150609-13:34:01.433|63=3|100=XBOG|207=XBOG|583=6a48341c323a4fcc|453=1|448=LVARB|447=D|452=1|10=189|
20150609-13:34:01.556: 8=FIX.4.4|9=345|35=8|57=062X01|128=LRVORBVC|115=BVC062|34=220|49=AMGTOBVC|56=ADRARB_XTSE_TOBVC|52=20150609-13:34:01.628|37=201506091167|11=4b70168b31074aca|41=2fae7f3a4f184e12|17=8288|150=5|39=0|63=4|48=PREC|22=99|167=CS|54=1|38=8000|40=2|44=11780|59=0|151=8000|14=0|60=20150609-13:34:01.000|31=0|32=0|6=0|55=PREC|453=1|448=062|447=D|452=1|583=6a48341c323a4fcc|10=236|
20150609-13:34:16.769: 8=FIX.4.4|9=259|35=G|34=217|49=ADRARB_XTSE_TOBVC|52=20150609-13:34:16.769|56=AMGTOBVC|1=881|11=-1a1dcbd7a6acb7d3|21=1|38=7000|40=2|41=22e8a0cee978423a|44=11840|54=2|55=PREC|59=0|60=20150609-13:34:16.769|63=3|100=XBOG|207=XBOG|583=6a48341c323a4fcc|453=1|448=LVARB|447=D|452=1|10=208|
20150609-13:34:16.785: 8=FIX.4.4|9=258|35=G|34=218|49=ADRARB_XTSE_TOBVC|52=20150609-13:34:16.785|56=AMGTOBVC|1=881|11=577e729a01594392|21=1|38=8000|40=2|41=4b70168b31074aca|44=11760|54=1|55=PREC|59=0|60=20150609-13:34:16.785|63=3|100=XBOG|207=XBOG|583=6a48341c323a4fcc|453=1|448=LVARB|447=D|452=1|10=251|
20150609-13:34:16.875: 8=FIX.4.4|9=346|35=8|57=062X01|128=LRVORBVC|115=BVC062|34=221|49=AMGTOBVC|56=ADRARB_XTSE_TOBVC|52=20150609-13:34:16.945|37=201506091174|11=-1a1dcbd7a6acb7d3|41=22e8a0cee978423a|17=8374|150=5|39=0|63=4|48=PREC|22=99|167=CS|54=2|38=7000|40=2|44=11840|59=0|151=7000|14=0|60=20150609-13:34:16.000|31=0|32=0|6=0|55=PREC|453=1|448=062|447=D|452=1|583=6a48341c323a4fcc|10=226|
20150609-13:34:16.890: 8=FIX.4.4|9=345|35=8|57=062X01|128=LRVORBVC|115=BVC062|34=222|49=AMGTOBVC|56=ADRARB_XTSE_TOBVC|52=20150609-13:34:16.961|37=201506091167|11=577e729a01594392|41=4b70168b31074aca|17=8375|150=5|39=0|63=4|48=PREC|22=99|167=CS|54=1|38=8000|40=2|44=11760|59=0|151=8000|14=0|60=20150609-13:34:16.000|31=0|32=0|6=0|55=PREC|453=1|448=062|447=D|452=1|583=6a48341c323a4fcc|10=019|
20150609-13:34:17.140: 8=FIX.4.4|9=259|35=G|34=219|49=ADRARB_XTSE_TOBVC|52=20150609-13:34:17.140|56=AMGTOBVC|1=881|11=-78d5ddedc211b5ff|21=1|38=8000|40=2|41=577e729a01594392|44=11780|54=1|55=PREC|59=0|60=20150609-13:34:17.139|63=3|100=XBOG|207=XBOG|583=6a48341c323a4fcc|453=1|448=LVARB|447=D|452=1|10=233|
20150609-13:34:17.245: 8=FIX.4.4|9=346|35=8|57=062X01|128=LRVORBVC|115=BVC062|34=223|49=AMGTOBVC|56=ADRARB_XTSE_TOBVC|52=20150609-13:34:17.319|37=201506091167|11=-78d5ddedc211b5ff|41=577e729a01594392|17=8376|150=5|39=0|63=4|48=PREC|22=99|167=CS|54=1|38=8000|40=2|44=11780|59=0|151=8000|14=0|60=20150609-13:34:17.000|31=0|32=0|6=0|55=PREC|453=1|448=062|447=D|452=1|583=6a48341c323a4fcc|10=021|
20150609-13:34:17.767: 8=FIX.4.4|9=259|35=G|34=220|49=ADRARB_XTSE_TOBVC|52=20150609-13:34:17.767|56=AMGTOBVC|1=881|11=76b6c429aa924b28|21=1|38=8000|40=2|41=-78d5ddedc211b5ff|44=11760|54=1|55=PREC|59=0|60=20150609-13:34:17.767|63=3|100=XBOG|207=XBOG|583=6a48341c323a4fcc|453=1|448=LVARB|447=D|452=1|10=125|
20150609-13:34:17.873: 8=FIX.4.4|9=346|35=8|57=062X01|128=LRVORBVC|115=BVC062|34=224|49=AMGTOBVC|56=ADRARB_XTSE_TOBVC|52=20150609-13:34:17.943|37=201506091167|11=76b6c429aa924b28|41=-78d5ddedc211b5ff|17=8383|150=5|39=0|63=4|48=PREC|22=99|167=CS|54=1|38=8000|40=2|44=11760|59=0|151=8000|14=0|60=20150609-13:34:17.000|31=0|32=0|6=0|55=PREC|453=1|448=062|447=D|452=1|583=6a48341c323a4fcc|10=157|
20150609-13:34:17.875: 8=FIX.4.4|9=259|35=G|34=221|49=ADRARB_XTSE_TOBVC|52=20150609-13:34:17.874|56=AMGTOBVC|1=881|11=-30838407b319bf3c|21=1|38=8000|40=2|41=76b6c429aa924b28|44=11780|54=1|55=PREC|59=0|60=20150609-13:34:17.874|63=3|100=XBOG|207=XBOG|583=6a48341c323a4fcc|453=1|448=LVARB|447=D|452=1|10=137|
20150609-13:34:17.981: 8=FIX.4.4|9=346|35=8|57=062X01|128=LRVORBVC|115=BVC062|34=225|49=AMGTOBVC|56=ADRARB_XTSE_TOBVC|52=20150609-13:34:18.052|37=201506091167|11=-30838407b319bf3c|41=76b6c429aa924b28|17=8384|150=5|39=0|63=4|48=PREC|22=99|167=CS|54=1|38=8000|40=2|44=11780|59=0|151=8000|14=0|60=20150609-13:34:17.000|31=0|32=0|6=0|55=PREC|453=1|448=062|447=D|452=1|583=6a48341c323a4fcc|10=164|
20150609-13:34:17.988: 8=FIX.4.4|9=258|35=G|34=222|49=ADRARB_XTSE_TOBVC|52=20150609-13:34:17.988|56=AMGTOBVC|1=881|11=e7453a305a845f4|21=1|38=8000|40=2|41=-30838407b319bf3c|44=11760|54=1|55=PREC|59=0|60=20150609-13:34:17.988|63=3|100=XBOG|207=XBOG|583=6a48341c323a4fcc|453=1|448=LVARB|447=D|452=1|10=044|
20150609-13:34:18.097: 8=FIX.4.4|9=345|35=8|57=062X01|128=LRVORBVC|115=BVC062|34=226|49=AMGTOBVC|56=ADRARB_XTSE_TOBVC|52=20150609-13:34:18.162|37=201506091167|11=e7453a305a845f4|41=-30838407b319bf3c|17=8385|150=5|39=0|63=4|48=PREC|22=99|167=CS|54=1|38=8000|40=2|44=11760|59=0|151=8000|14=0|60=20150609-13:34:18.000|31=0|32=0|6=0|55=PREC|453=1|448=062|447=D|452=1|583=6a48341c323a4fcc|10=063|
20150609-13:34:18.608: 8=FIX.4.4|9=257|35=G|34=223|49=ADRARB_XTSE_TOBVC|52=20150609-13:34:18.608|56=AMGTOBVC|1=881|11=64a1b592fef44f92|21=1|38=6000|40=2|41=-814c970b76ebf78|44=6170|54=1|55=CNEC|59=0|60=20150609-13:34:18.608|63=3|100=XBOG|207=XBOG|583=-76abaff36eeb1c0|453=1|448=LVARB|447=D|452=1|10=008|
20150609-13:34:18.719: 8=FIX.4.4|9=344|35=8|57=062X01|128=LRVORBVC|115=BVC062|34=227|49=AMGTOBVC|56=ADRARB_XTSE_TOBVC|52=20150609-13:34:18.786|37=201506091168|11=64a1b592fef44f92|41=-814c970b76ebf78|17=8393|150=5|39=0|63=4|48=CNEC|22=99|167=CS|54=1|38=6000|40=2|44=6170|59=0|151=6000|14=0|60=20150609-13:34:18.000|31=0|32=0|6=0|55=CNEC|453=1|448=062|447=D|452=1|583=-76abaff36eeb1c0|10=040|
20150609-13:34:19.681: 8=FIX.4.4|9=260|35=G|34=224|49=ADRARB_XTSE_TOBVC|52=20150609-13:34:19.681|56=AMGTOBVC|1=881|11=-433ff7e81a5eb2a7|21=1|38=7000|40=2|41=-1a1dcbd7a6acb7d3|44=11820|54=2|55=PREC|59=0|60=20150609-13:34:19.681|63=3|100=XBOG|207=XBOG|583=6a48341c323a4fcc|453=1|448=LVARB|447=D|452=1|10=026|
20150609-13:34:19.796: 8=FIX.4.4|9=347|35=8|57=062X01|128=LRVORBVC|115=BVC062|34=228|49=AMGTOBVC|56=ADRARB_XTSE_TOBVC|52=20150609-13:34:19.862|37=201506091174|11=-433ff7e81a5eb2a7|41=-1a1dcbd7a6acb7d3|17=8403|150=5|39=0|63=4|48=PREC|22=99|167=CS|54=2|38=7000|40=2|44=11820|59=0|151=7000|14=0|60=20150609-13:34:19.000|31=0|32=0|6=0|55=PREC|453=1|448=062|447=D|452=1|583=6a48341c323a4fcc|10=067|
20150609-13:34:34.662: 8=FIX.4.4|9=257|35=G|34=225|49=ADRARB_XTSE_TOBVC|52=20150609-13:34:34.661|56=AMGTOBVC|1=881|11=7820cf313a1d4816|21=1|38=6000|40=2|41=64a1b592fef44f92|44=6180|54=1|55=CNEC|59=0|60=20150609-13:34:34.661|63=3|100=XBOG|207=XBOG|583=-76abaff36eeb1c0|453=1|448=LVARB|447=D|452=1|10=199|
20150609-13:34:34.773: 8=FIX.4.4|9=344|35=8|57=062X01|128=LRVORBVC|115=BVC062|34=229|49=AMGTOBVC|56=ADRARB_XTSE_TOBVC|52=20150609-13:34:34.851|37=201506091168|11=7820cf313a1d4816|41=64a1b592fef44f92|17=8463|150=5|39=0|63=4|48=CNEC|22=99|167=CS|54=1|38=6000|40=2|44=6180|59=0|151=6000|14=0|60=20150609-13:34:34.000|31=0|32=0|6=0|55=CNEC|453=1|448=062|447=D|452=1|583=-76abaff36eeb1c0|10=224|
20150609-13:34:35.785: 8=FIX.4.4|9=260|35=G|34=226|49=ADRARB_XTSE_TOBVC|52=20150609-13:34:35.784|56=AMGTOBVC|1=881|11=-2bbc2d57590cb823|21=1|38=13440|40=2|41=-7bd3bf4c49b8b1e1|44=6240|54=2|55=CNEC|59=0|60=20150609-13:34:35.784|63=3|100=XBOG|207=XBOG|583=-76abaff36eeb1c0|453=1|448=LVARB|447=D|452=1|10=022|
20150609-13:34:35.898: 8=FIX.4.4|9=356|35=8|57=062X01|128=LRVORBVC|115=BVC062|34=230|49=AMGTOBVC|56=ADRARB_XTSE_TOBVC|52=20150609-13:34:35.958|37=201506091382|11=-2bbc2d57590cb823|41=-7bd3bf4c49b8b1e1|17=8472|150=5|39=1|63=4|48=CNEC|22=99|167=CS|54=2|38=13440|40=2|44=6240|59=0|151=6000|14=7440|6=6196.18|60=20150609-13:34:35.000|31=0|32=0|55=CNEC|453=1|448=062|447=D|452=1|583=-76abaff36eeb1c0|10=006|
20150609-13:34:36.074: 8=FIX.4.4|9=259|35=G|34=227|49=ADRARB_XTSE_TOBVC|52=20150609-13:34:36.074|56=AMGTOBVC|1=881|11=1bc989ef62cc4d16|21=1|38=7000|40=2|41=-433ff7e81a5eb2a7|44=11840|54=2|55=PREC|59=0|60=20150609-13:34:36.074|63=3|100=XBOG|207=XBOG|583=6a48341c323a4fcc|453=1|448=LVARB|447=D|452=1|10=118|
20150609-13:34:36.219: 8=FIX.4.4|9=346|35=8|57=062X01|128=LRVORBVC|115=BVC062|34=231|49=AMGTOBVC|56=ADRARB_XTSE_TOBVC|52=20150609-13:34:36.286|37=201506091174|11=1bc989ef62cc4d16|41=-433ff7e81a5eb2a7|17=8476|150=5|39=0|63=4|48=PREC|22=99|167=CS|54=2|38=7000|40=2|44=11840|59=0|151=7000|14=0|60=20150609-13:34:36.000|31=0|32=0|6=0|55=PREC|453=1|448=062|447=D|452=1|583=6a48341c323a4fcc|10=159|
20150609-13:34:48.846: 8=FIX.4.4|9=260|35=G|34=228|49=ADRARB_XTSE_TOBVC|52=20150609-13:34:48.846|56=AMGTOBVC|1=881|11=-12b6fe181899b800|21=1|38=13440|40=2|41=-2bbc2d57590cb823|44=6230|54=2|55=CNEC|59=0|60=20150609-13:34:48.846|63=3|100=XBOG|207=XBOG|583=-76abaff36eeb1c0|453=1|448=LVARB|447=D|452=1|10=098|
20150609-13:34:48.954: 8=FIX.4.4|9=356|35=8|57=062X01|128=LRVORBVC|115=BVC062|34=232|49=AMGTOBVC|56=ADRARB_XTSE_TOBVC|52=20150609-13:34:49.014|37=201506091382|11=-12b6fe181899b800|41=-2bbc2d57590cb823|17=8561|150=5|39=1|63=4|48=CNEC|22=99|167=CS|54=2|38=13440|40=2|44=6230|59=0|151=6000|14=7440|6=6196.18|60=20150609-13:34:48.000|31=0|32=0|55=CNEC|453=1|448=062|447=D|452=1|583=-76abaff36eeb1c0|10=067|
20150609-13:34:49.689: 8=FIX.4.4|9=256|35=G|34=229|49=ADRARB_XTSE_TOBVC|52=20150609-13:34:49.689|56=AMGTOBVC|1=881|11=24f3b207cd4cd6|21=1|38=7000|40=2|41=1bc989ef62cc4d16|44=11820|54=2|55=PREC|59=0|60=20150609-13:34:49.689|63=3|100=XBOG|207=XBOG|583=6a48341c323a4fcc|453=1|448=LVARB|447=D|452=1|10=198|
20150609-13:34:49.796: 8=FIX.4.4|9=343|35=8|57=062X01|128=LRVORBVC|115=BVC062|34=233|49=AMGTOBVC|56=ADRARB_XTSE_TOBVC|52=20150609-13:34:49.856|37=201506091174|11=24f3b207cd4cd6|41=1bc989ef62cc4d16|17=8566|150=5|39=0|63=4|48=PREC|22=99|167=CS|54=2|38=7000|40=2|44=11820|59=0|151=7000|14=0|60=20150609-13:34:49.000|31=0|32=0|6=0|55=PREC|453=1|448=062|447=D|452=1|583=6a48341c323a4fcc|10=218|
20150609-13:34:59.390: 8=FIX.4.4|9=257|35=G|34=230|49=ADRARB_XTSE_TOBVC|52=20150609-13:34:59.389|56=AMGTOBVC|1=881|11=2a82cc79db55480a|21=1|38=6000|40=2|41=7820cf313a1d4816|44=6160|54=1|55=CNEC|59=0|60=20150609-13:34:59.389|63=3|100=XBOG|207=XBOG|583=-76abaff36eeb1c0|453=1|448=LVARB|447=D|452=1|10=213|
20150609-13:34:59.390: 8=FIX.4.4|9=259|35=G|34=231|49=ADRARB_XTSE_TOBVC|52=20150609-13:34:59.390|56=AMGTOBVC|1=881|11=-ae60e3f38e9be67|21=1|38=13440|40=2|41=-12b6fe181899b800|44=6210|54=2|55=CNEC|59=0|60=20150609-13:34:59.390|63=3|100=XBOG|207=XBOG|583=-76abaff36eeb1c0|453=1|448=LVARB|447=D|452=1|10=102|
