20150609-11:17:08.626: 8=FIX.4.4|9=52|35=5|34=1|49=LVBSG|52=20150609-11:17:08.614|56=CL04|10=077|
20150609-11:17:08.686: 8=FIX.4.4|9=0146|35=5|49=CL04|56=LVBSG|34=1|52=20150609-11:17:08|58=00100000004crxi_1891- CODE: 1-200-5: Expecting Logon but got Logout: disconnecting immediately|10=169|
20150609-11:17:09.606: 8=FIX.4.4|9=70|35=A|34=1|49=LVBSG|52=20150609-11:17:09.606|56=CL04|98=0|108=60|141=Y|10=164|
20150609-11:17:09.609: 8=FIX.4.4|9=0066|35=A|49=CL04|56=LVBSG|34=1|52=20150609-11:17:09|98=0|108=60|141=Y|10=063|
20150609-11:18:09.807: 8=FIX.4.4|9=0048|35=0|49=CL04|56=LVBSG|34=2|52=20150609-11:18:09|10=231|
20150609-11:18:09.808: 8=FIX.4.4|9=52|35=0|34=2|49=LVBSG|52=20150609-11:18:09.808|56=CL04|10=080|
20150609-11:19:09.808: 8=FIX.4.4|9=0048|35=0|49=CL04|56=LVBSG|34=3|52=20150609-11:19:09|10=233|
20150609-11:19:09.808: 8=FIX.4.4|9=52|35=0|34=3|49=LVBSG|52=20150609-11:19:09.808|56=CL04|10=082|
20150609-11:20:09.809: 8=FIX.4.4|9=0048|35=0|49=CL04|56=LVBSG|34=4|52=20150609-11:20:09|10=226|
20150609-11:20:09.810: 8=FIX.4.4|9=52|35=0|34=4|49=LVBSG|52=20150609-11:20:09.810|56=CL04|10=068|
20150609-11:21:09.811: 8=FIX.4.4|9=0048|35=0|49=CL04|56=LVBSG|34=5|52=20150609-11:21:09|10=228|
20150609-11:21:09.811: 8=FIX.4.4|9=52|35=0|34=5|49=LVBSG|52=20150609-11:21:09.811|56=CL04|10=071|
20150609-11:22:09.808: 8=FIX.4.4|9=0048|35=0|49=CL04|56=LVBSG|34=6|52=20150609-11:22:09|10=230|
20150609-11:22:10.601: 8=FIX.4.4|9=52|35=0|34=6|49=LVBSG|52=20150609-11:22:10.601|56=CL04|10=062|
20150609-11:23:09.809: 8=FIX.4.4|9=0048|35=0|49=CL04|56=LVBSG|34=7|52=20150609-11:23:09|10=232|
20150609-11:23:10.601: 8=FIX.4.4|9=52|35=0|34=7|49=LVBSG|52=20150609-11:23:10.601|56=CL04|10=064|
20150609-11:24:09.809: 8=FIX.4.4|9=0048|35=0|49=CL04|56=LVBSG|34=8|52=20150609-11:24:09|10=234|
20150609-11:24:11.600: 8=FIX.4.4|9=52|35=0|34=8|49=LVBSG|52=20150609-11:24:11.600|56=CL04|10=066|
20150609-11:25:09.809: 8=FIX.4.4|9=0048|35=0|49=CL04|56=LVBSG|34=9|52=20150609-11:25:09|10=236|
20150609-11:25:11.600: 8=FIX.4.4|9=52|35=0|34=9|49=LVBSG|52=20150609-11:25:11.600|56=CL04|10=068|
20150609-11:26:09.810: 8=FIX.4.4|9=0049|35=0|49=CL04|56=LVBSG|34=10|52=20150609-11:26:09|10=022|
20150609-11:26:11.601: 8=FIX.4.4|9=53|35=0|34=10|49=LVBSG|52=20150609-11:26:11.601|56=CL04|10=111|
20150609-11:27:09.820: 8=FIX.4.4|9=0049|35=0|49=CL04|56=LVBSG|34=11|52=20150609-11:27:09|10=024|
20150609-11:27:12.600: 8=FIX.4.4|9=53|35=0|34=11|49=LVBSG|52=20150609-11:27:12.600|56=CL04|10=113|
20150609-11:28:09.819: 8=FIX.4.4|9=0049|35=0|49=CL04|56=LVBSG|34=12|52=20150609-11:28:09|10=026|
20150609-11:28:12.601: 8=FIX.4.4|9=53|35=0|34=12|49=LVBSG|52=20150609-11:28:12.601|56=CL04|10=116|
20150609-11:29:09.810: 8=FIX.4.4|9=0049|35=0|49=CL04|56=LVBSG|34=13|52=20150609-11:29:09|10=028|
20150609-11:29:13.600: 8=FIX.4.4|9=53|35=0|34=13|49=LVBSG|52=20150609-11:29:13.600|56=CL04|10=118|
20150609-11:30:09.810: 8=FIX.4.4|9=0049|35=0|49=CL04|56=LVBSG|34=14|52=20150609-11:30:09|10=021|
20150609-11:30:13.600: 8=FIX.4.4|9=53|35=0|34=14|49=LVBSG|52=20150609-11:30:13.600|56=CL04|10=111|
20150609-11:31:09.811: 8=FIX.4.4|9=0049|35=0|49=CL04|56=LVBSG|34=15|52=20150609-11:31:09|10=023|
20150609-11:31:13.600: 8=FIX.4.4|9=53|35=0|34=15|49=LVBSG|52=20150609-11:31:13.600|56=CL04|10=113|
20150609-11:32:09.819: 8=FIX.4.4|9=0049|35=0|49=CL04|56=LVBSG|34=16|52=20150609-11:32:09|10=025|
20150609-11:32:13.600: 8=FIX.4.4|9=53|35=0|34=16|49=LVBSG|52=20150609-11:32:13.600|56=CL04|10=115|
20150609-11:33:09.816: 8=FIX.4.4|9=0049|35=0|49=CL04|56=LVBSG|34=17|52=20150609-11:33:09|10=027|
20150609-11:33:13.600: 8=FIX.4.4|9=53|35=0|34=17|49=LVBSG|52=20150609-11:33:13.600|56=CL04|10=117|
20150609-11:34:09.810: 8=FIX.4.4|9=0049|35=0|49=CL04|56=LVBSG|34=18|52=20150609-11:34:09|10=029|
20150609-11:34:13.600: 8=FIX.4.4|9=53|35=0|34=18|49=LVBSG|52=20150609-11:34:13.600|56=CL04|10=119|
20150609-11:35:09.811: 8=FIX.4.4|9=0049|35=0|49=CL04|56=LVBSG|34=19|52=20150609-11:35:09|10=031|
20150609-11:35:13.600: 8=FIX.4.4|9=53|35=0|34=19|49=LVBSG|52=20150609-11:35:13.600|56=CL04|10=121|
20150609-11:36:09.831: 8=FIX.4.4|9=0049|35=0|49=CL04|56=LVBSG|34=20|52=20150609-11:36:09|10=024|
20150609-11:36:13.600: 8=FIX.4.4|9=53|35=0|34=20|49=LVBSG|52=20150609-11:36:13.600|56=CL04|10=114|
20150609-11:37:09.810: 8=FIX.4.4|9=0049|35=0|49=CL04|56=LVBSG|34=21|52=20150609-11:37:09|10=026|
20150609-11:37:13.600: 8=FIX.4.4|9=53|35=0|34=21|49=LVBSG|52=20150609-11:37:13.600|56=CL04|10=116|
20150609-11:38:09.812: 8=FIX.4.4|9=0049|35=0|49=CL04|56=LVBSG|34=22|52=20150609-11:38:09|10=028|
20150609-11:38:13.600: 8=FIX.4.4|9=53|35=0|34=22|49=LVBSG|52=20150609-11:38:13.600|56=CL04|10=118|
20150609-11:39:09.811: 8=FIX.4.4|9=0049|35=0|49=CL04|56=LVBSG|34=23|52=20150609-11:39:09|10=030|
20150609-11:39:13.600: 8=FIX.4.4|9=53|35=0|34=23|49=LVBSG|52=20150609-11:39:13.600|56=CL04|10=120|
20150609-11:40:09.810: 8=FIX.4.4|9=0049|35=0|49=CL04|56=LVBSG|34=24|52=20150609-11:40:09|10=023|
20150609-11:40:13.600: 8=FIX.4.4|9=53|35=0|34=24|49=LVBSG|52=20150609-11:40:13.600|56=CL04|10=113|
20150609-11:41:09.810: 8=FIX.4.4|9=0049|35=0|49=CL04|56=LVBSG|34=25|52=20150609-11:41:09|10=025|
20150609-11:41:13.600: 8=FIX.4.4|9=53|35=0|34=25|49=LVBSG|52=20150609-11:41:13.600|56=CL04|10=115|
20150609-11:42:09.811: 8=FIX.4.4|9=0049|35=0|49=CL04|56=LVBSG|34=26|52=20150609-11:42:09|10=027|
20150609-11:42:13.600: 8=FIX.4.4|9=53|35=0|34=26|49=LVBSG|52=20150609-11:42:13.600|56=CL04|10=117|
20150609-11:43:09.811: 8=FIX.4.4|9=0049|35=0|49=CL04|56=LVBSG|34=27|52=20150609-11:43:09|10=029|
20150609-11:43:13.600: 8=FIX.4.4|9=53|35=0|34=27|49=LVBSG|52=20150609-11:43:13.600|56=CL04|10=119|
20150609-11:44:09.811: 8=FIX.4.4|9=0049|35=0|49=CL04|56=LVBSG|34=28|52=20150609-11:44:09|10=031|
20150609-11:44:13.600: 8=FIX.4.4|9=53|35=0|34=28|49=LVBSG|52=20150609-11:44:13.600|56=CL04|10=121|
20150609-11:45:09.811: 8=FIX.4.4|9=0049|35=0|49=CL04|56=LVBSG|34=29|52=20150609-11:45:09|10=033|
20150609-11:45:13.600: 8=FIX.4.4|9=53|35=0|34=29|49=LVBSG|52=20150609-11:45:13.600|56=CL04|10=123|
20150609-11:46:09.811: 8=FIX.4.4|9=0049|35=0|49=CL04|56=LVBSG|34=30|52=20150609-11:46:09|10=026|
20150609-11:46:13.601: 8=FIX.4.4|9=53|35=0|34=30|49=LVBSG|52=20150609-11:46:13.601|56=CL04|10=117|
20150609-11:47:09.812: 8=FIX.4.4|9=0049|35=0|49=CL04|56=LVBSG|34=31|52=20150609-11:47:09|10=028|
20150609-11:47:14.601: 8=FIX.4.4|9=53|35=0|34=31|49=LVBSG|52=20150609-11:47:14.601|56=CL04|10=120|
20150609-11:48:09.812: 8=FIX.4.4|9=0049|35=0|49=CL04|56=LVBSG|34=32|52=20150609-11:48:09|10=030|
20150609-11:48:15.600: 8=FIX.4.4|9=53|35=0|34=32|49=LVBSG|52=20150609-11:48:15.600|56=CL04|10=122|
20150609-11:49:09.812: 8=FIX.4.4|9=0049|35=0|49=CL04|56=LVBSG|34=33|52=20150609-11:49:09|10=032|
20150609-11:49:15.600: 8=FIX.4.4|9=53|35=0|34=33|49=LVBSG|52=20150609-11:49:15.600|56=CL04|10=124|
20150609-11:50:09.812: 8=FIX.4.4|9=0049|35=0|49=CL04|56=LVBSG|34=34|52=20150609-11:50:09|10=025|
20150609-11:50:15.601: 8=FIX.4.4|9=53|35=0|34=34|49=LVBSG|52=20150609-11:50:15.601|56=CL04|10=118|
20150609-11:51:09.813: 8=FIX.4.4|9=0049|35=0|49=CL04|56=LVBSG|34=35|52=20150609-11:51:09|10=027|
20150609-11:51:15.601: 8=FIX.4.4|9=53|35=0|34=35|49=LVBSG|52=20150609-11:51:15.601|56=CL04|10=120|
20150609-11:52:09.814: 8=FIX.4.4|9=0049|35=0|49=CL04|56=LVBSG|34=36|52=20150609-11:52:09|10=029|
20150609-11:52:15.601: 8=FIX.4.4|9=53|35=0|34=36|49=LVBSG|52=20150609-11:52:15.601|56=CL04|10=122|
20150609-11:53:09.813: 8=FIX.4.4|9=0049|35=0|49=CL04|56=LVBSG|34=37|52=20150609-11:53:09|10=031|
20150609-11:53:15.601: 8=FIX.4.4|9=53|35=0|34=37|49=LVBSG|52=20150609-11:53:15.601|56=CL04|10=124|
20150609-11:54:09.814: 8=FIX.4.4|9=0049|35=0|49=CL04|56=LVBSG|34=38|52=20150609-11:54:09|10=033|
20150609-11:54:16.600: 8=FIX.4.4|9=53|35=0|34=38|49=LVBSG|52=20150609-11:54:16.600|56=CL04|10=126|
20150609-11:55:09.814: 8=FIX.4.4|9=0049|35=0|49=CL04|56=LVBSG|34=39|52=20150609-11:55:09|10=035|
20150609-11:55:16.601: 8=FIX.4.4|9=53|35=0|34=39|49=LVBSG|52=20150609-11:55:16.601|56=CL04|10=129|
20150609-11:56:09.815: 8=FIX.4.4|9=0049|35=0|49=CL04|56=LVBSG|34=40|52=20150609-11:56:09|10=028|
20150609-11:56:16.601: 8=FIX.4.4|9=53|35=0|34=40|49=LVBSG|52=20150609-11:56:16.601|56=CL04|10=122|
20150609-11:57:09.815: 8=FIX.4.4|9=0049|35=0|49=CL04|56=LVBSG|34=41|52=20150609-11:57:09|10=030|
20150609-11:57:17.601: 8=FIX.4.4|9=53|35=0|34=41|49=LVBSG|52=20150609-11:57:17.601|56=CL04|10=125|
20150609-11:58:09.815: 8=FIX.4.4|9=0049|35=0|49=CL04|56=LVBSG|34=42|52=20150609-11:58:09|10=032|
20150609-11:58:18.600: 8=FIX.4.4|9=53|35=0|34=42|49=LVBSG|52=20150609-11:58:18.600|56=CL04|10=127|
20150609-11:59:09.821: 8=FIX.4.4|9=0049|35=0|49=CL04|56=LVBSG|34=43|52=20150609-11:59:09|10=034|
20150609-11:59:18.601: 8=FIX.4.4|9=53|35=0|34=43|49=LVBSG|52=20150609-11:59:18.601|56=CL04|10=130|
20150609-12:00:09.818: 8=FIX.4.4|9=0049|35=0|49=CL04|56=LVBSG|34=44|52=20150609-12:00:09|10=022|
20150609-12:00:18.601: 8=FIX.4.4|9=53|35=0|34=44|49=LVBSG|52=20150609-12:00:18.601|56=CL04|10=118|
20150609-12:01:09.817: 8=FIX.4.4|9=0049|35=0|49=CL04|56=LVBSG|34=45|52=20150609-12:01:09|10=024|
20150609-12:01:18.601: 8=FIX.4.4|9=53|35=0|34=45|49=LVBSG|52=20150609-12:01:18.601|56=CL04|10=120|
20150609-12:02:09.816: 8=FIX.4.4|9=0049|35=0|49=CL04|56=LVBSG|34=46|52=20150609-12:02:09|10=026|
20150609-12:02:18.601: 8=FIX.4.4|9=53|35=0|34=46|49=LVBSG|52=20150609-12:02:18.601|56=CL04|10=122|
20150609-12:03:09.816: 8=FIX.4.4|9=0049|35=0|49=CL04|56=LVBSG|34=47|52=20150609-12:03:09|10=028|
20150609-12:03:19.600: 8=FIX.4.4|9=53|35=0|34=47|49=LVBSG|52=20150609-12:03:19.600|56=CL04|10=124|
20150609-12:04:09.817: 8=FIX.4.4|9=0049|35=0|49=CL04|56=LVBSG|34=48|52=20150609-12:04:09|10=030|
20150609-12:04:19.601: 8=FIX.4.4|9=53|35=0|34=48|49=LVBSG|52=20150609-12:04:19.601|56=CL04|10=127|
20150609-12:05:09.817: 8=FIX.4.4|9=0049|35=0|49=CL04|56=LVBSG|34=49|52=20150609-12:05:09|10=032|
20150609-12:05:19.601: 8=FIX.4.4|9=53|35=0|34=49|49=LVBSG|52=20150609-12:05:19.601|56=CL04|10=129|
20150609-12:06:09.817: 8=FIX.4.4|9=0049|35=0|49=CL04|56=LVBSG|34=50|52=20150609-12:06:09|10=025|
20150609-12:06:20.600: 8=FIX.4.4|9=53|35=0|34=50|49=LVBSG|52=20150609-12:06:20.600|56=CL04|10=113|
20150609-12:07:09.817: 8=FIX.4.4|9=0049|35=0|49=CL04|56=LVBSG|34=51|52=20150609-12:07:09|10=027|
20150609-12:07:20.600: 8=FIX.4.4|9=53|35=0|34=51|49=LVBSG|52=20150609-12:07:20.600|56=CL04|10=115|
20150609-12:08:09.822: 8=FIX.4.4|9=0049|35=0|49=CL04|56=LVBSG|34=52|52=20150609-12:08:09|10=029|
20150609-12:08:20.601: 8=FIX.4.4|9=53|35=0|34=52|49=LVBSG|52=20150609-12:08:20.601|56=CL04|10=118|
20150609-12:09:09.817: 8=FIX.4.4|9=0049|35=0|49=CL04|56=LVBSG|34=53|52=20150609-12:09:09|10=031|
20150609-12:09:20.601: 8=FIX.4.4|9=53|35=0|34=53|49=LVBSG|52=20150609-12:09:20.601|56=CL04|10=120|
20150609-12:10:09.817: 8=FIX.4.4|9=0049|35=0|49=CL04|56=LVBSG|34=54|52=20150609-12:10:09|10=024|
20150609-12:10:21.601: 8=FIX.4.4|9=53|35=0|34=54|49=LVBSG|52=20150609-12:10:21.601|56=CL04|10=114|
20150609-12:11:09.821: 8=FIX.4.4|9=0049|35=0|49=CL04|56=LVBSG|34=55|52=20150609-12:11:09|10=026|
20150609-12:11:22.600: 8=FIX.4.4|9=53|35=0|34=55|49=LVBSG|52=20150609-12:11:22.600|56=CL04|10=116|
20150609-12:12:09.817: 8=FIX.4.4|9=0049|35=0|49=CL04|56=LVBSG|34=56|52=20150609-12:12:09|10=028|
20150609-12:12:22.600: 8=FIX.4.4|9=53|35=0|34=56|49=LVBSG|52=20150609-12:12:22.600|56=CL04|10=118|
20150609-12:13:09.820: 8=FIX.4.4|9=0049|35=0|49=CL04|56=LVBSG|34=57|52=20150609-12:13:09|10=030|
20150609-12:13:22.601: 8=FIX.4.4|9=53|35=0|34=57|49=LVBSG|52=20150609-12:13:22.601|56=CL04|10=121|
20150609-12:14:09.822: 8=FIX.4.4|9=0049|35=0|49=CL04|56=LVBSG|34=58|52=20150609-12:14:09|10=032|
20150609-12:14:22.601: 8=FIX.4.4|9=53|35=0|34=58|49=LVBSG|52=20150609-12:14:22.601|56=CL04|10=123|
20150609-12:15:09.819: 8=FIX.4.4|9=0049|35=0|49=CL04|56=LVBSG|34=59|52=20150609-12:15:09|10=034|
20150609-12:15:22.601: 8=FIX.4.4|9=53|35=0|34=59|49=LVBSG|52=20150609-12:15:22.601|56=CL04|10=125|
20150609-12:16:09.818: 8=FIX.4.4|9=0049|35=0|49=CL04|56=LVBSG|34=60|52=20150609-12:16:09|10=027|
20150609-12:16:23.600: 8=FIX.4.4|9=53|35=0|34=60|49=LVBSG|52=20150609-12:16:23.600|56=CL04|10=118|
20150609-12:17:09.819: 8=FIX.4.4|9=0049|35=0|49=CL04|56=LVBSG|34=61|52=20150609-12:17:09|10=029|
20150609-12:17:23.600: 8=FIX.4.4|9=53|35=0|34=61|49=LVBSG|52=20150609-12:17:23.600|56=CL04|10=120|
20150609-12:18:09.827: 8=FIX.4.4|9=0049|35=0|49=CL04|56=LVBSG|34=62|52=20150609-12:18:09|10=031|
20150609-12:18:23.601: 8=FIX.4.4|9=53|35=0|34=62|49=LVBSG|52=20150609-12:18:23.601|56=CL04|10=123|
20150609-12:19:09.823: 8=FIX.4.4|9=0049|35=0|49=CL04|56=LVBSG|34=63|52=20150609-12:19:09|10=033|
20150609-12:19:23.601: 8=FIX.4.4|9=53|35=0|34=63|49=LVBSG|52=20150609-12:19:23.601|56=CL04|10=125|
20150609-12:20:09.821: 8=FIX.4.4|9=0049|35=0|49=CL04|56=LVBSG|34=64|52=20150609-12:20:09|10=026|
20150609-12:20:24.600: 8=FIX.4.4|9=53|35=0|34=64|49=LVBSG|52=20150609-12:20:24.600|56=CL04|10=118|
20150609-12:21:09.821: 8=FIX.4.4|9=0049|35=0|49=CL04|56=LVBSG|34=65|52=20150609-12:21:09|10=028|
20150609-12:21:24.601: 8=FIX.4.4|9=53|35=0|34=65|49=LVBSG|52=20150609-12:21:24.601|56=CL04|10=121|
20150609-12:22:09.825: 8=FIX.4.4|9=0049|35=0|49=CL04|56=LVBSG|34=66|52=20150609-12:22:09|10=030|
20150609-12:22:25.601: 8=FIX.4.4|9=53|35=0|34=66|49=LVBSG|52=20150609-12:22:25.601|56=CL04|10=124|
20150609-12:23:09.822: 8=FIX.4.4|9=0049|35=0|49=CL04|56=LVBSG|34=67|52=20150609-12:23:09|10=032|
20150609-12:23:26.600: 8=FIX.4.4|9=53|35=0|34=67|49=LVBSG|52=20150609-12:23:26.600|56=CL04|10=126|
20150609-12:24:09.832: 8=FIX.4.4|9=0049|35=0|49=CL04|56=LVBSG|34=68|52=20150609-12:24:09|10=034|
20150609-12:24:26.600: 8=FIX.4.4|9=53|35=0|34=68|49=LVBSG|52=20150609-12:24:26.600|56=CL04|10=128|
20150609-12:25:09.825: 8=FIX.4.4|9=0049|35=0|49=CL04|56=LVBSG|34=69|52=20150609-12:25:09|10=036|
20150609-12:25:26.601: 8=FIX.4.4|9=53|35=0|34=69|49=LVBSG|52=20150609-12:25:26.601|56=CL04|10=131|
20150609-12:26:09.829: 8=FIX.4.4|9=0049|35=0|49=CL04|56=LVBSG|34=70|52=20150609-12:26:09|10=029|
20150609-12:26:26.601: 8=FIX.4.4|9=53|35=0|34=70|49=LVBSG|52=20150609-12:26:26.601|56=CL04|10=124|
20150609-12:27:09.823: 8=FIX.4.4|9=0049|35=0|49=CL04|56=LVBSG|34=71|52=20150609-12:27:09|10=031|
20150609-12:27:26.601: 8=FIX.4.4|9=53|35=0|34=71|49=LVBSG|52=20150609-12:27:26.601|56=CL04|10=126|
20150609-12:28:09.823: 8=FIX.4.4|9=0049|35=0|49=CL04|56=LVBSG|34=72|52=20150609-12:28:09|10=033|
20150609-12:28:26.601: 8=FIX.4.4|9=53|35=0|34=72|49=LVBSG|52=20150609-12:28:26.601|56=CL04|10=128|
20150609-12:29:09.824: 8=FIX.4.4|9=0049|35=0|49=CL04|56=LVBSG|34=73|52=20150609-12:29:09|10=035|
20150609-12:29:26.601: 8=FIX.4.4|9=53|35=0|34=73|49=LVBSG|52=20150609-12:29:26.601|56=CL04|10=130|
20150609-12:30:09.824: 8=FIX.4.4|9=0049|35=0|49=CL04|56=LVBSG|34=74|52=20150609-12:30:09|10=028|
20150609-12:30:26.601: 8=FIX.4.4|9=53|35=0|34=74|49=LVBSG|52=20150609-12:30:26.601|56=CL04|10=123|
20150609-12:31:09.829: 8=FIX.4.4|9=0049|35=0|49=CL04|56=LVBSG|34=75|52=20150609-12:31:09|10=030|
20150609-12:31:26.601: 8=FIX.4.4|9=53|35=0|34=75|49=LVBSG|52=20150609-12:31:26.601|56=CL04|10=125|
20150609-12:32:09.833: 8=FIX.4.4|9=0049|35=0|49=CL04|56=LVBSG|34=76|52=20150609-12:32:09|10=032|
20150609-12:32:26.601: 8=FIX.4.4|9=53|35=0|34=76|49=LVBSG|52=20150609-12:32:26.601|56=CL04|10=127|
20150609-12:33:09.825: 8=FIX.4.4|9=0049|35=0|49=CL04|56=LVBSG|34=77|52=20150609-12:33:09|10=034|
20150609-12:33:26.601: 8=FIX.4.4|9=53|35=0|34=77|49=LVBSG|52=20150609-12:33:26.601|56=CL04|10=129|
20150609-12:34:09.829: 8=FIX.4.4|9=0049|35=0|49=CL04|56=LVBSG|34=78|52=20150609-12:34:09|10=036|
20150609-12:34:27.601: 8=FIX.4.4|9=53|35=0|34=78|49=LVBSG|52=20150609-12:34:27.601|56=CL04|10=132|
20150609-12:35:09.825: 8=FIX.4.4|9=0049|35=0|49=CL04|56=LVBSG|34=79|52=20150609-12:35:09|10=038|
20150609-12:35:28.600: 8=FIX.4.4|9=53|35=0|34=79|49=LVBSG|52=20150609-12:35:28.600|56=CL04|10=134|
20150609-12:36:09.825: 8=FIX.4.4|9=0049|35=0|49=CL04|56=LVBSG|34=80|52=20150609-12:36:09|10=031|
20150609-12:36:28.601: 8=FIX.4.4|9=53|35=0|34=80|49=LVBSG|52=20150609-12:36:28.601|56=CL04|10=128|
20150609-12:37:09.825: 8=FIX.4.4|9=0049|35=0|49=CL04|56=LVBSG|34=81|52=20150609-12:37:09|10=033|
20150609-12:37:29.600: 8=FIX.4.4|9=53|35=0|34=81|49=LVBSG|52=20150609-12:37:29.600|56=CL04|10=130|
20150609-12:38:09.826: 8=FIX.4.4|9=0049|35=0|49=CL04|56=LVBSG|34=82|52=20150609-12:38:09|10=035|
20150609-12:38:29.601: 8=FIX.4.4|9=53|35=0|34=82|49=LVBSG|52=20150609-12:38:29.600|56=CL04|10=132|
20150609-12:39:09.826: 8=FIX.4.4|9=0049|35=0|49=CL04|56=LVBSG|34=83|52=20150609-12:39:09|10=037|
20150609-12:39:29.600: 8=FIX.4.4|9=53|35=0|34=83|49=LVBSG|52=20150609-12:39:29.600|56=CL04|10=134|
20150609-12:40:09.826: 8=FIX.4.4|9=0049|35=0|49=CL04|56=LVBSG|34=84|52=20150609-12:40:09|10=030|
20150609-12:40:29.601: 8=FIX.4.4|9=53|35=0|34=84|49=LVBSG|52=20150609-12:40:29.601|56=CL04|10=128|
20150609-12:41:09.827: 8=FIX.4.4|9=0049|35=0|49=CL04|56=LVBSG|34=85|52=20150609-12:41:09|10=032|
20150609-12:41:30.601: 8=FIX.4.4|9=53|35=0|34=85|49=LVBSG|52=20150609-12:41:30.601|56=CL04|10=122|
20150609-12:42:09.830: 8=FIX.4.4|9=0049|35=0|49=CL04|56=LVBSG|34=86|52=20150609-12:42:09|10=034|
20150609-12:42:30.601: 8=FIX.4.4|9=53|35=0|34=86|49=LVBSG|52=20150609-12:42:30.601|56=CL04|10=124|
20150609-12:43:09.828: 8=FIX.4.4|9=0049|35=0|49=CL04|56=LVBSG|34=87|52=20150609-12:43:09|10=036|
20150609-12:43:30.601: 8=FIX.4.4|9=53|35=0|34=87|49=LVBSG|52=20150609-12:43:30.601|56=CL04|10=126|
20150609-12:44:09.830: 8=FIX.4.4|9=0049|35=0|49=CL04|56=LVBSG|34=88|52=20150609-12:44:09|10=038|
20150609-12:44:30.601: 8=FIX.4.4|9=53|35=0|34=88|49=LVBSG|52=20150609-12:44:30.601|56=CL04|10=128|
20150609-12:45:09.834: 8=FIX.4.4|9=0049|35=0|49=CL04|56=LVBSG|34=89|52=20150609-12:45:09|10=040|
20150609-12:45:30.601: 8=FIX.4.4|9=53|35=0|34=89|49=LVBSG|52=20150609-12:45:30.601|56=CL04|10=130|
20150609-12:46:09.830: 8=FIX.4.4|9=0049|35=0|49=CL04|56=LVBSG|34=90|52=20150609-12:46:09|10=033|
20150609-12:46:31.600: 8=FIX.4.4|9=53|35=0|34=90|49=LVBSG|52=20150609-12:46:31.600|56=CL04|10=123|
20150609-12:47:09.830: 8=FIX.4.4|9=0049|35=0|49=CL04|56=LVBSG|34=91|52=20150609-12:47:09|10=035|
20150609-12:47:31.600: 8=FIX.4.4|9=53|35=0|34=91|49=LVBSG|52=20150609-12:47:31.600|56=CL04|10=125|
20150609-12:48:09.831: 8=FIX.4.4|9=0049|35=0|49=CL04|56=LVBSG|34=92|52=20150609-12:48:09|10=037|
20150609-12:48:31.601: 8=FIX.4.4|9=53|35=0|34=92|49=LVBSG|52=20150609-12:48:31.600|56=CL04|10=127|
20150609-12:49:09.830: 8=FIX.4.4|9=0049|35=0|49=CL04|56=LVBSG|34=93|52=20150609-12:49:09|10=039|
20150609-12:49:31.601: 8=FIX.4.4|9=53|35=0|34=93|49=LVBSG|52=20150609-12:49:31.601|56=CL04|10=130|
20150609-12:50:09.831: 8=FIX.4.4|9=0049|35=0|49=CL04|56=LVBSG|34=94|52=20150609-12:50:09|10=032|
20150609-12:50:32.601: 8=FIX.4.4|9=53|35=0|34=94|49=LVBSG|52=20150609-12:50:32.601|56=CL04|10=124|
20150609-12:51:09.831: 8=FIX.4.4|9=0049|35=0|49=CL04|56=LVBSG|34=95|52=20150609-12:51:09|10=034|
20150609-12:51:33.600: 8=FIX.4.4|9=53|35=0|34=95|49=LVBSG|52=20150609-12:51:33.600|56=CL04|10=126|
20150609-12:52:09.831: 8=FIX.4.4|9=0049|35=0|49=CL04|56=LVBSG|34=96|52=20150609-12:52:09|10=036|
20150609-12:52:33.600: 8=FIX.4.4|9=53|35=0|34=96|49=LVBSG|52=20150609-12:52:33.600|56=CL04|10=128|
20150609-12:53:09.845: 8=FIX.4.4|9=0049|35=0|49=CL04|56=LVBSG|34=97|52=20150609-12:53:09|10=038|
20150609-12:53:33.600: 8=FIX.4.4|9=53|35=0|34=97|49=LVBSG|52=20150609-12:53:33.600|56=CL04|10=130|
20150609-12:54:09.831: 8=FIX.4.4|9=0049|35=0|49=CL04|56=LVBSG|34=98|52=20150609-12:54:09|10=040|
20150609-12:54:33.601: 8=FIX.4.4|9=53|35=0|34=98|49=LVBSG|52=20150609-12:54:33.601|56=CL04|10=133|
20150609-12:55:09.835: 8=FIX.4.4|9=0049|35=0|49=CL04|56=LVBSG|34=99|52=20150609-12:55:09|10=042|
20150609-12:55:34.600: 8=FIX.4.4|9=53|35=0|34=99|49=LVBSG|52=20150609-12:55:34.600|56=CL04|10=135|
20150609-12:56:09.831: 8=FIX.4.4|9=0050|35=0|49=CL04|56=LVBSG|34=100|52=20150609-12:56:09|10=066|
20150609-12:56:34.600: 8=FIX.4.4|9=54|35=0|34=100|49=LVBSG|52=20150609-12:56:34.600|56=CL04|10=168|
20150609-12:57:09.832: 8=FIX.4.4|9=0050|35=0|49=CL04|56=LVBSG|34=101|52=20150609-12:57:09|10=068|
20150609-12:57:34.601: 8=FIX.4.4|9=54|35=0|34=101|49=LVBSG|52=20150609-12:57:34.601|56=CL04|10=171|
20150609-12:58:09.831: 8=FIX.4.4|9=0050|35=0|49=CL04|56=LVBSG|34=102|52=20150609-12:58:09|10=070|
20150609-12:58:35.601: 8=FIX.4.4|9=54|35=0|34=102|49=LVBSG|52=20150609-12:58:35.601|56=CL04|10=174|
20150609-12:59:09.832: 8=FIX.4.4|9=0050|35=0|49=CL04|56=LVBSG|34=103|52=20150609-12:59:09|10=072|
20150609-12:59:35.601: 8=FIX.4.4|9=54|35=0|34=103|49=LVBSG|52=20150609-12:59:35.601|56=CL04|10=176|
20150609-13:00:09.832: 8=FIX.4.4|9=0050|35=0|49=CL04|56=LVBSG|34=104|52=20150609-13:00:09|10=060|
20150609-13:00:36.600: 8=FIX.4.4|9=54|35=0|34=104|49=LVBSG|52=20150609-13:00:36.600|56=CL04|10=164|
20150609-13:01:09.838: 8=FIX.4.4|9=0050|35=0|49=CL04|56=LVBSG|34=105|52=20150609-13:01:09|10=062|
20150609-13:01:36.601: 8=FIX.4.4|9=54|35=0|34=105|49=LVBSG|52=20150609-13:01:36.601|56=CL04|10=167|
20150609-13:02:09.837: 8=FIX.4.4|9=0050|35=0|49=CL04|56=LVBSG|34=106|52=20150609-13:02:09|10=064|
20150609-13:02:36.601: 8=FIX.4.4|9=54|35=0|34=106|49=LVBSG|52=20150609-13:02:36.601|56=CL04|10=169|
20150609-13:03:09.833: 8=FIX.4.4|9=0050|35=0|49=CL04|56=LVBSG|34=107|52=20150609-13:03:09|10=066|
20150609-13:03:37.600: 8=FIX.4.4|9=54|35=0|34=107|49=LVBSG|52=20150609-13:03:37.600|56=CL04|10=171|
20150609-13:04:09.833: 8=FIX.4.4|9=0050|35=0|49=CL04|56=LVBSG|34=108|52=20150609-13:04:09|10=068|
20150609-13:04:37.600: 8=FIX.4.4|9=54|35=0|34=108|49=LVBSG|52=20150609-13:04:37.600|56=CL04|10=173|
20150609-13:05:09.834: 8=FIX.4.4|9=0050|35=0|49=CL04|56=LVBSG|34=109|52=20150609-13:05:09|10=070|
20150609-13:05:37.600: 8=FIX.4.4|9=54|35=0|34=109|49=LVBSG|52=20150609-13:05:37.600|56=CL04|10=175|
20150609-13:06:09.834: 8=FIX.4.4|9=0050|35=0|49=CL04|56=LVBSG|34=110|52=20150609-13:06:09|10=063|
20150609-13:06:37.601: 8=FIX.4.4|9=54|35=0|34=110|49=LVBSG|52=20150609-13:06:37.601|56=CL04|10=169|
20150609-13:07:09.841: 8=FIX.4.4|9=0050|35=0|49=CL04|56=LVBSG|34=111|52=20150609-13:07:09|10=065|
20150609-13:07:37.601: 8=FIX.4.4|9=54|35=0|34=111|49=LVBSG|52=20150609-13:07:37.601|56=CL04|10=171|
20150609-13:08:09.834: 8=FIX.4.4|9=0050|35=0|49=CL04|56=LVBSG|34=112|52=20150609-13:08:09|10=067|
20150609-13:08:37.601: 8=FIX.4.4|9=54|35=0|34=112|49=LVBSG|52=20150609-13:08:37.601|56=CL04|10=173|
20150609-13:09:09.843: 8=FIX.4.4|9=0050|35=0|49=CL04|56=LVBSG|34=113|52=20150609-13:09:09|10=069|
20150609-13:09:37.601: 8=FIX.4.4|9=54|35=0|34=113|49=LVBSG|52=20150609-13:09:37.601|56=CL04|10=175|
20150609-13:10:09.840: 8=FIX.4.4|9=0050|35=0|49=CL04|56=LVBSG|34=114|52=20150609-13:10:09|10=062|
20150609-13:10:38.600: 8=FIX.4.4|9=54|35=0|34=114|49=LVBSG|52=20150609-13:10:38.600|56=CL04|10=168|
20150609-13:11:09.833: 8=FIX.4.4|9=0050|35=0|49=CL04|56=LVBSG|34=115|52=20150609-13:11:09|10=064|
20150609-13:11:38.601: 8=FIX.4.4|9=54|35=0|34=115|49=LVBSG|52=20150609-13:11:38.601|56=CL04|10=171|
20150609-13:12:09.833: 8=FIX.4.4|9=0050|35=0|49=CL04|56=LVBSG|34=116|52=20150609-13:12:09|10=066|
20150609-13:12:39.600: 8=FIX.4.4|9=54|35=0|34=116|49=LVBSG|52=20150609-13:12:39.600|56=CL04|10=173|
20150609-13:13:09.834: 8=FIX.4.4|9=0050|35=0|49=CL04|56=LVBSG|34=117|52=20150609-13:13:09|10=068|
20150609-13:13:39.600: 8=FIX.4.4|9=54|35=0|34=117|49=LVBSG|52=20150609-13:13:39.600|56=CL04|10=175|
20150609-13:14:09.834: 8=FIX.4.4|9=0050|35=0|49=CL04|56=LVBSG|34=118|52=20150609-13:14:09|10=070|
20150609-13:14:39.600: 8=FIX.4.4|9=54|35=0|34=118|49=LVBSG|52=20150609-13:14:39.600|56=CL04|10=177|
20150609-13:15:09.833: 8=FIX.4.4|9=0050|35=0|49=CL04|56=LVBSG|34=119|52=20150609-13:15:09|10=072|
20150609-13:15:39.600: 8=FIX.4.4|9=54|35=0|34=119|49=LVBSG|52=20150609-13:15:39.600|56=CL04|10=179|
20150609-13:16:09.835: 8=FIX.4.4|9=0050|35=0|49=CL04|56=LVBSG|34=120|52=20150609-13:16:09|10=065|
20150609-13:16:39.600: 8=FIX.4.4|9=54|35=0|34=120|49=LVBSG|52=20150609-13:16:39.600|56=CL04|10=172|
20150609-13:17:09.836: 8=FIX.4.4|9=0050|35=0|49=CL04|56=LVBSG|34=121|52=20150609-13:17:09|10=067|
20150609-13:17:39.601: 8=FIX.4.4|9=54|35=0|34=121|49=LVBSG|52=20150609-13:17:39.601|56=CL04|10=175|
20150609-13:18:09.835: 8=FIX.4.4|9=0050|35=0|49=CL04|56=LVBSG|34=122|52=20150609-13:18:09|10=069|
20150609-13:18:40.610: 8=FIX.4.4|9=54|35=0|34=122|49=LVBSG|52=20150609-13:18:40.610|56=CL04|10=169|
20150609-13:19:09.836: 8=FIX.4.4|9=0050|35=0|49=CL04|56=LVBSG|34=123|52=20150609-13:19:09|10=071|
20150609-13:19:41.600: 8=FIX.4.4|9=54|35=0|34=123|49=LVBSG|52=20150609-13:19:41.600|56=CL04|10=171|
20150609-13:20:09.846: 8=FIX.4.4|9=0050|35=0|49=CL04|56=LVBSG|34=124|52=20150609-13:20:09|10=064|
20150609-13:20:41.601: 8=FIX.4.4|9=54|35=0|34=124|49=LVBSG|52=20150609-13:20:41.601|56=CL04|10=165|
20150609-13:21:09.846: 8=FIX.4.4|9=0050|35=0|49=CL04|56=LVBSG|34=125|52=20150609-13:21:09|10=066|
20150609-13:21:42.600: 8=FIX.4.4|9=54|35=0|34=125|49=LVBSG|52=20150609-13:21:42.600|56=CL04|10=167|
20150609-13:22:09.836: 8=FIX.4.4|9=0050|35=0|49=CL04|56=LVBSG|34=126|52=20150609-13:22:09|10=068|
20150609-13:22:42.601: 8=FIX.4.4|9=54|35=0|34=126|49=LVBSG|52=20150609-13:22:42.601|56=CL04|10=170|
20150609-13:23:09.836: 8=FIX.4.4|9=0050|35=0|49=CL04|56=LVBSG|34=127|52=20150609-13:23:09|10=070|
20150609-13:23:43.601: 8=FIX.4.4|9=54|35=0|34=127|49=LVBSG|52=20150609-13:23:43.601|56=CL04|10=173|
20150609-13:24:09.836: 8=FIX.4.4|9=0050|35=0|49=CL04|56=LVBSG|34=128|52=20150609-13:24:09|10=072|
20150609-13:24:44.600: 8=FIX.4.4|9=54|35=0|34=128|49=LVBSG|52=20150609-13:24:44.600|56=CL04|10=175|
20150609-13:25:09.836: 8=FIX.4.4|9=0050|35=0|49=CL04|56=LVBSG|34=129|52=20150609-13:25:09|10=074|
20150609-13:25:44.601: 8=FIX.4.4|9=54|35=0|34=129|49=LVBSG|52=20150609-13:25:44.600|56=CL04|10=177|
20150609-13:26:09.836: 8=FIX.4.4|9=0050|35=0|49=CL04|56=LVBSG|34=130|52=20150609-13:26:09|10=067|
20150609-13:26:44.600: 8=FIX.4.4|9=54|35=0|34=130|49=LVBSG|52=20150609-13:26:44.600|56=CL04|10=170|
20150609-13:27:09.836: 8=FIX.4.4|9=0050|35=0|49=CL04|56=LVBSG|34=131|52=20150609-13:27:09|10=069|
20150609-13:27:44.600: 8=FIX.4.4|9=54|35=0|34=131|49=LVBSG|52=20150609-13:27:44.600|56=CL04|10=172|
20150609-13:28:09.836: 8=FIX.4.4|9=0050|35=0|49=CL04|56=LVBSG|34=132|52=20150609-13:28:09|10=071|
20150609-13:28:44.600: 8=FIX.4.4|9=54|35=0|34=132|49=LVBSG|52=20150609-13:28:44.600|56=CL04|10=174|
20150609-13:29:09.838: 8=FIX.4.4|9=0050|35=0|49=CL04|56=LVBSG|34=133|52=20150609-13:29:09|10=073|
20150609-13:29:44.600: 8=FIX.4.4|9=54|35=0|34=133|49=LVBSG|52=20150609-13:29:44.600|56=CL04|10=176|
20150609-13:30:09.836: 8=FIX.4.4|9=0050|35=0|49=CL04|56=LVBSG|34=134|52=20150609-13:30:09|10=066|
20150609-13:30:19.237: 8=FIX.4.4|9=259|35=D|34=134|49=LVBSG|50=QXP018914|52=20150609-13:30:19.237|56=CL04|57=FCST|128=FCHB|1=QXP018914|11=4a466ea657564828|21=1|38=6000|40=2|44=2.95|54=1|55=CNE|59=0|60=20150609-13:30:19.237|63=4|100=CN|111=100|207=CN|583=-76abaff36eeb1c0|453=1|448=XPUS|447=D|452=1|10=110|
20150609-13:30:19.247: 8=FIX.4.4|9=0363|35=8|49=CL04|56=LVBSG|34=135|52=20150609-13:30:19|50=FCST|115=FCHB|57=QXP018914|1=QXP018914|207=CN|6=0|11=4a466ea657564828|14=0|17=740d2c3284374910|21=1|150=A|31=0|151=6000|32=0|100=CN|38=6000|39=A|37=261da00189a84e46|583=-76abaff36eeb1c0|111=100|40=2|44=2.95|55=CNE|54=1|59=0|58=New Buy CNE 6000.0 @ 2.95|63=4|60=20150609-13:30:19.242|453=1|448=XPUS|447=D|452=1|10=008|
20150609-13:30:20.313: 8=FIX.4.4|9=0372|35=8|49=CL04|56=LVBSG|34=136|52=20150609-13:30:20|50=FCST|115=FCHB|57=QXP018914|1=QXP018914|207=CN|6=0|11=4a466ea657564828|14=0|17=LVSXFIX2-387L000003000002|21=1|150=0|31=0|151=6000|32=0|100=CN|38=6000|39=0|37=261da00189a84e46|583=-76abaff36eeb1c0|111=100|40=2|44=2.95|55=CNE|54=1|59=0|58=New Buy CNE 6000.0 @ 2.95|63=4|60=20150609-13:30:20.307|453=1|448=XPUS|447=D|452=1|10=002|
20150609-13:30:20.318: 8=FIX.4.4|9=0384|35=8|49=CL04|56=LVBSG|34=137|52=20150609-13:30:20|50=FCST|115=FCHB|57=QXP018914|1=QXP018914|207=CN|6=2.95|11=4a466ea657564828|14=1000|17=LVSXFIX2-387L000003000003|21=1|150=F|31=2.95|151=5000|32=1000|100=CN|38=6000|39=1|37=261da00189a84e46|583=-76abaff36eeb1c0|111=100|40=2|44=2.95|55=CNE|54=1|59=0|58=New Buy CNE 6000.0 @ 2.95|63=4|60=20150609-13:30:20.313|453=1|448=XPUS|447=D|452=1|10=120|
20150609-13:30:20.333: 8=FIX.4.4|9=0383|35=8|49=CL04|56=LVBSG|34=138|52=20150609-13:30:20|50=FCST|115=FCHB|57=QXP018914|1=QXP018914|207=CN|6=2.95|11=4a466ea657564828|14=1100|17=LVSXFIX2-387L000003000004|21=1|150=F|31=2.95|151=4900|32=100|100=CN|38=6000|39=1|37=261da00189a84e46|583=-76abaff36eeb1c0|111=100|40=2|44=2.95|55=CNE|54=1|59=0|58=New Buy CNE 6000.0 @ 2.95|63=4|60=20150609-13:30:20.326|453=1|448=XPUS|447=D|452=1|10=086|
20150609-13:30:20.335: 8=FIX.4.4|9=0384|35=8|49=CL04|56=LVBSG|34=139|52=20150609-13:30:20|50=FCST|115=FCHB|57=QXP018914|1=QXP018914|207=CN|6=2.95|11=4a466ea657564828|14=3100|17=LVSXFIX2-387L000003000005|21=1|150=F|31=2.95|151=2900|32=2000|100=CN|38=6000|39=1|37=261da00189a84e46|583=-76abaff36eeb1c0|111=100|40=2|44=2.95|55=CNE|54=1|59=0|58=New Buy CNE 6000.0 @ 2.95|63=4|60=20150609-13:30:20.330|453=1|448=XPUS|447=D|452=1|10=133|
20150609-13:30:20.343: 8=FIX.4.4|9=0384|35=8|49=CL04|56=LVBSG|34=140|52=20150609-13:30:20|50=FCST|115=FCHB|57=QXP018914|1=QXP018914|207=CN|6=2.95|11=4a466ea657564828|14=4100|17=LVSXFIX2-387L000003000006|21=1|150=F|31=2.95|151=1900|32=1000|100=CN|38=6000|39=1|37=261da00189a84e46|583=-76abaff36eeb1c0|111=100|40=2|44=2.95|55=CNE|54=1|59=0|58=New Buy CNE 6000.0 @ 2.95|63=4|60=20150609-13:30:20.338|453=1|448=XPUS|447=D|452=1|10=133|
20150609-13:30:20.350: 8=FIX.4.4|9=0383|35=8|49=CL04|56=LVBSG|34=141|52=20150609-13:30:20|50=FCST|115=FCHB|57=QXP018914|1=QXP018914|207=CN|6=2.95|11=4a466ea657564828|14=4200|17=LVSXFIX2-387L000003000007|21=1|150=F|31=2.95|151=1800|32=100|100=CN|38=6000|39=1|37=261da00189a84e46|583=-76abaff36eeb1c0|111=100|40=2|44=2.95|55=CNE|54=1|59=0|58=New Buy CNE 6000.0 @ 2.95|63=4|60=20150609-13:30:20.346|453=1|448=XPUS|447=D|452=1|10=085|
20150609-13:30:20.357: 8=FIX.4.4|9=0383|35=8|49=CL04|56=LVBSG|34=142|52=20150609-13:30:20|50=FCST|115=FCHB|57=QXP018914|1=QXP018914|207=CN|6=2.95|11=4a466ea657564828|14=4500|17=LVSXFIX2-387L000003000008|21=1|150=F|31=2.95|151=1500|32=300|100=CN|38=6000|39=1|37=261da00189a84e46|583=-76abaff36eeb1c0|111=100|40=2|44=2.95|55=CNE|54=1|59=0|58=New Buy CNE 6000.0 @ 2.95|63=4|60=20150609-13:30:20.350|453=1|448=XPUS|447=D|452=1|10=084|
20150609-13:30:20.366: 8=FIX.4.4|9=0383|35=8|49=CL04|56=LVBSG|34=143|52=20150609-13:30:20|50=FCST|115=FCHB|57=QXP018914|1=QXP018914|207=CN|6=2.95|11=4a466ea657564828|14=4600|17=LVSXFIX2-387L000003000009|21=1|150=F|31=2.95|151=1400|32=100|100=CN|38=6000|39=1|37=261da00189a84e46|583=-76abaff36eeb1c0|111=100|40=2|44=2.95|55=CNE|54=1|59=0|58=New Buy CNE 6000.0 @ 2.95|63=4|60=20150609-13:30:20.356|453=1|448=XPUS|447=D|452=1|10=090|
20150609-13:30:20.376: 8=FIX.4.4|9=0383|35=8|49=CL04|56=LVBSG|34=144|52=20150609-13:30:20|50=FCST|115=FCHB|57=QXP018914|1=QXP018914|207=CN|6=2.95|11=4a466ea657564828|14=4700|17=LVSXFIX2-387L00000300000A|21=1|150=F|31=2.95|151=1300|32=100|100=CN|38=6000|39=1|37=261da00189a84e46|583=-76abaff36eeb1c0|111=100|40=2|44=2.95|55=CNE|54=1|59=0|58=New Buy CNE 6000.0 @ 2.95|63=4|60=20150609-13:30:20.368|453=1|448=XPUS|447=D|452=1|10=102|
20150609-13:30:20.406: 8=FIX.4.4|9=0383|35=8|49=CL04|56=LVBSG|34=145|52=20150609-13:30:20|50=FCST|115=FCHB|57=QXP018914|1=QXP018914|207=CN|6=2.95|11=4a466ea657564828|14=4800|17=LVSXFIX2-387L00000300000B|21=1|150=F|31=2.95|151=1200|32=100|100=CN|38=6000|39=1|37=261da00189a84e46|583=-76abaff36eeb1c0|111=100|40=2|44=2.95|55=CNE|54=1|59=0|58=New Buy CNE 6000.0 @ 2.95|63=4|60=20150609-13:30:20.402|453=1|448=XPUS|447=D|452=1|10=093|
20150609-13:30:51.666: 8=FIX.4.4|9=0383|35=8|49=CL04|56=LVBSG|34=146|52=20150609-13:30:51|50=FCST|115=FCHB|57=QXP018914|1=QXP018914|207=CN|6=2.95|11=4a466ea657564828|14=4900|17=LVSXFIX2-387L00000300000C|21=1|150=F|31=2.95|151=1100|32=100|100=CN|38=6000|39=1|37=261da00189a84e46|583=-76abaff36eeb1c0|111=100|40=2|44=2.95|55=CNE|54=1|59=0|58=New Buy CNE 6000.0 @ 2.95|63=4|60=20150609-13:30:51.661|453=1|448=XPUS|447=D|452=1|10=110|
20150609-13:30:51.744: 8=FIX.4.4|9=0382|35=8|49=CL04|56=LVBSG|34=147|52=20150609-13:30:51|50=FCST|115=FCHB|57=QXP018914|1=QXP018914|207=CN|6=2.95|11=4a466ea657564828|14=5700|17=LVSXFIX2-387L00000300000D|21=1|150=F|31=2.95|151=300|32=800|100=CN|38=6000|39=1|37=261da00189a84e46|583=-76abaff36eeb1c0|111=100|40=2|44=2.95|55=CNE|54=1|59=0|58=New Buy CNE 6000.0 @ 2.95|63=4|60=20150609-13:30:51.739|453=1|448=XPUS|447=D|452=1|10=076|
20150609-13:30:51.759: 8=FIX.4.4|9=0380|35=8|49=CL04|56=LVBSG|34=148|52=20150609-13:30:51|50=FCST|115=FCHB|57=QXP018914|1=QXP018914|207=CN|6=2.95|11=4a466ea657564828|14=6000|17=LVSXFIX2-387L00000300000E|21=1|150=F|31=2.95|151=0|32=300|100=CN|38=6000|39=2|37=261da00189a84e46|583=-76abaff36eeb1c0|111=100|40=2|44=2.95|55=CNE|54=1|59=0|58=New Buy CNE 6000.0 @ 2.95|63=4|60=20150609-13:30:51.755|453=1|448=XPUS|447=D|452=1|10=221|
20150609-13:31:16.366: 8=FIX.4.4|9=258|35=D|34=135|49=LVBSG|50=QXP018914|52=20150609-13:31:16.366|56=CL04|57=FCST|128=FCHB|1=QXP018914|11=6ee7ae7262c940a2|21=1|38=100|40=2|44=2.95|54=1|55=CNE|59=0|60=20150609-13:31:16.366|63=4|100=CN|111=100|207=CN|583=-76abaff36eeb1c0|453=1|448=XPUS|447=D|452=1|10=190|
20150609-13:31:16.380: 8=FIX.4.4|9=0360|35=8|49=CL04|56=LVBSG|34=149|52=20150609-13:31:16|50=FCST|115=FCHB|57=QXP018914|1=QXP018914|207=CN|6=0|11=6ee7ae7262c940a2|14=0|17=6e41056028cb4a63|21=1|150=A|31=0|151=100|32=0|100=CN|38=100|39=A|37=4d842e495c024c22|583=-76abaff36eeb1c0|111=100|40=2|44=2.95|55=CNE|54=1|59=0|58=New Buy CNE 100.0 @ 2.95|63=4|60=20150609-13:31:16.374|453=1|448=XPUS|447=D|452=1|10=076|
20150609-13:31:17.168: 8=FIX.4.4|9=0369|35=8|49=CL04|56=LVBSG|34=150|52=20150609-13:31:17|50=FCST|115=FCHB|57=QXP018914|1=QXP018914|207=CN|6=0|11=6ee7ae7262c940a2|14=0|17=LVSXFIX2-387L00000C000002|21=1|150=0|31=0|151=100|32=0|100=CN|38=100|39=0|37=4d842e495c024c22|583=-76abaff36eeb1c0|111=100|40=2|44=2.95|55=CNE|54=1|59=0|58=New Buy CNE 100.0 @ 2.95|63=4|60=20150609-13:31:17.164|453=1|448=XPUS|447=D|452=1|10=008|
20150609-13:31:17.174: 8=FIX.4.4|9=0377|35=8|49=CL04|56=LVBSG|34=151|52=20150609-13:31:17|50=FCST|115=FCHB|57=QXP018914|1=QXP018914|207=CN|6=2.95|11=6ee7ae7262c940a2|14=100|17=LVSXFIX2-387L00000C000003|21=1|150=F|31=2.95|151=0|32=100|100=CN|38=100|39=2|37=4d842e495c024c22|583=-76abaff36eeb1c0|111=100|40=2|44=2.95|55=CNE|54=1|59=0|58=New Buy CNE 100.0 @ 2.95|63=4|60=20150609-13:31:17.169|453=1|448=XPUS|447=D|452=1|10=195|
20150609-13:31:34.579: 8=FIX.4.4|9=259|35=D|34=136|49=LVBSG|50=QXP018914|52=20150609-13:31:34.579|56=CL04|57=FCST|128=FCHB|1=QXP018914|11=6e630c5be1f540f3|21=1|38=5000|40=2|44=2.95|54=1|55=CNE|59=0|60=20150609-13:31:34.579|63=4|100=CN|111=100|207=CN|583=-76abaff36eeb1c0|453=1|448=XPUS|447=D|452=1|10=251|
20150609-13:31:34.591: 8=FIX.4.4|9=0365|35=8|49=CL04|56=LVBSG|34=152|52=20150609-13:31:34|50=FCST|115=FCHB|57=QXP018914|1=QXP018914|207=CN|6=0|11=6e630c5be1f540f3|14=0|17=-5120f23be1afbc4f|21=1|150=A|31=0|151=5000|32=0|100=CN|38=5000|39=A|37=-574a71d3b665b112|583=-76abaff36eeb1c0|111=100|40=2|44=2.95|55=CNE|54=1|59=0|58=New Buy CNE 5000.0 @ 2.95|63=4|60=20150609-13:31:34.586|453=1|448=XPUS|447=D|452=1|10=246|
20150609-13:31:35.338: 8=FIX.4.4|9=0373|35=8|49=CL04|56=LVBSG|34=153|52=20150609-13:31:35|50=FCST|115=FCHB|57=QXP018914|1=QXP018914|207=CN|6=0|11=6e630c5be1f540f3|14=0|17=LVSXFIX2-387L00000D000002|21=1|150=0|31=0|151=5000|32=0|100=CN|38=5000|39=0|37=-574a71d3b665b112|583=-76abaff36eeb1c0|111=100|40=2|44=2.95|55=CNE|54=1|59=0|58=New Buy CNE 5000.0 @ 2.95|63=4|60=20150609-13:31:35.332|453=1|448=XPUS|447=D|452=1|10=196|
20150609-13:31:35.351: 8=FIX.4.4|9=0383|35=8|49=CL04|56=LVBSG|34=154|52=20150609-13:31:35|50=FCST|115=FCHB|57=QXP018914|1=QXP018914|207=CN|6=2.95|11=6e630c5be1f540f3|14=100|17=LVSXFIX2-387L00000D000003|21=1|150=F|31=2.95|151=4900|32=100|100=CN|38=5000|39=1|37=-574a71d3b665b112|583=-76abaff36eeb1c0|111=100|40=2|44=2.95|55=CNE|54=1|59=0|58=New Buy CNE 5000.0 @ 2.95|63=4|60=20150609-13:31:35.345|453=1|448=XPUS|447=D|452=1|10=232|
20150609-13:31:35.358: 8=FIX.4.4|9=0383|35=8|49=CL04|56=LVBSG|34=155|52=20150609-13:31:35|50=FCST|115=FCHB|57=QXP018914|1=QXP018914|207=CN|6=2.95|11=6e630c5be1f540f3|14=200|17=LVSXFIX2-387L00000D000004|21=1|150=F|31=2.95|151=4800|32=100|100=CN|38=5000|39=1|37=-574a71d3b665b112|583=-76abaff36eeb1c0|111=100|40=2|44=2.95|55=CNE|54=1|59=0|58=New Buy CNE 5000.0 @ 2.95|63=4|60=20150609-13:31:35.351|453=1|448=XPUS|447=D|452=1|10=231|
20150609-13:31:35.363: 8=FIX.4.4|9=0383|35=8|49=CL04|56=LVBSG|34=156|52=20150609-13:31:35|50=FCST|115=FCHB|57=QXP018914|1=QXP018914|207=CN|6=2.95|11=6e630c5be1f540f3|14=500|17=LVSXFIX2-387L00000D000005|21=1|150=F|31=2.95|151=4500|32=300|100=CN|38=5000|39=1|37=-574a71d3b665b112|583=-76abaff36eeb1c0|111=100|40=2|44=2.95|55=CNE|54=1|59=0|58=New Buy CNE 5000.0 @ 2.95|63=4|60=20150609-13:31:35.357|453=1|448=XPUS|447=D|452=1|10=241|
20150609-13:31:35.372: 8=FIX.4.4|9=0383|35=8|49=CL04|56=LVBSG|34=157|52=20150609-13:31:35|50=FCST|115=FCHB|57=QXP018914|1=QXP018914|207=CN|6=2.95|11=6e630c5be1f540f3|14=600|17=LVSXFIX2-387L00000D000006|21=1|150=F|31=2.95|151=4400|32=100|100=CN|38=5000|39=1|37=-574a71d3b665b112|583=-76abaff36eeb1c0|111=100|40=2|44=2.95|55=CNE|54=1|59=0|58=New Buy CNE 5000.0 @ 2.95|63=4|60=20150609-13:31:35.363|453=1|448=XPUS|447=D|452=1|10=238|
20150609-13:31:35.374: 8=FIX.4.4|9=0383|35=8|49=CL04|56=LVBSG|34=158|52=20150609-13:31:35|50=FCST|115=FCHB|57=QXP018914|1=QXP018914|207=CN|6=2.95|11=6e630c5be1f540f3|14=700|17=LVSXFIX2-387L00000D000007|21=1|150=F|31=2.95|151=4300|32=100|100=CN|38=5000|39=1|37=-574a71d3b665b112|583=-76abaff36eeb1c0|111=100|40=2|44=2.95|55=CNE|54=1|59=0|58=New Buy CNE 5000.0 @ 2.95|63=4|60=20150609-13:31:35.370|453=1|448=XPUS|447=D|452=1|10=238|
20150609-13:31:43.596: 8=FIX.4.4|9=278|35=G|34=137|49=LVBSG|50=QXP018914|52=20150609-13:31:43.596|56=CL04|57=FCST|128=FCHB|1=QXP018914|11=c2674c0e26c4042|21=1|38=5000|40=2|41=6e630c5be1f540f3|44=2.96|54=1|55=CNE|59=0|60=20150609-13:31:43.596|63=4|100=CN|111=100|207=CN|583=-76abaff36eeb1c0|453=1|448=XPUS|447=D|452=1|10=101|
20150609-13:31:43.607: 8=FIX.4.4|9=0406|35=8|49=CL04|56=LVBSG|34=159|52=20150609-13:31:43|50=FCST|115=FCHB|57=QXP018914|1=QXP018914|207=CN|6=2.95|11=c2674c0e26c4042|14=700|17=76b3c92f7c094f84|21=1|150=E|31=0|151=4300|32=0|100=CN|38=5000|39=E|37=-574a71d3b665b112|583=-76abaff36eeb1c0|111=100|40=2|41=6e630c5be1f540f3|44=2.96|55=CNE|54=1|59=0|58=Replace from 5000.0 @ 2.95 To 5000.0 @ 2.96|63=4|60=20150609-13:31:43.602|453=1|448=XPUS|447=D|452=1|10=090|
20150609-13:31:44.170: 8=FIX.4.4|9=0396|35=8|49=CL04|56=LVBSG|34=160|52=20150609-13:31:44|50=FCST|115=FCHB|57=QXP018914|1=QXP018914|207=CN|6=2.95|11=6e630c5be1f540f3|14=700|17=LVSXFIX2-387L00000D000009|21=1|150=5|31=0|151=4300|32=0|100=CN|38=5000|39=1|37=-574a71d3b665b112|583=-76abaff36eeb1c0|111=100|40=2|44=2.96|55=CNE|54=1|59=0|58=Replace from 5000.0 @ 2.95 To 5000.0 @ 2.96|63=4|60=20150609-13:31:44.164|453=1|448=XPUS|447=D|452=1|10=116|
20150609-13:32:43.600: 8=FIX.4.4|9=54|35=0|34=138|49=LVBSG|52=20150609-13:32:43.600|56=CL04|10=174|
20150609-13:32:44.172: 8=FIX.4.4|9=0050|35=0|49=CL04|56=LVBSG|34=161|52=20150609-13:32:44|10=067|
20150609-13:32:45.983: 8=FIX.4.4|9=0404|35=8|49=CL04|56=LVBSG|34=162|52=20150609-13:32:45|50=FCST|115=FCHB|57=QXP018914|1=QXP018914|207=CN|6=2.95125|11=6e630c5be1f540f3|14=800|17=LVSXFIX2-387L00000D00000A|21=1|150=F|31=2.96|151=4200|32=100|100=CN|38=5000|39=1|37=-574a71d3b665b112|583=-76abaff36eeb1c0|111=100|40=2|44=2.96|55=CNE|54=1|59=0|58=Replace from 5000.0 @ 2.95 To 5000.0 @ 2.96|63=4|60=20150609-13:32:45.978|453=1|448=XPUS|447=D|452=1|10=046|
20150609-13:32:46.011: 8=FIX.4.4|9=0402|35=8|49=CL04|56=LVBSG|34=163|52=20150609-13:32:46|50=FCST|115=FCHB|57=QXP018914|1=QXP018914|207=CN|6=2.9586|11=6e630c5be1f540f3|14=5000|17=LVSXFIX2-387L00000D00000B|21=1|150=F|31=2.96|151=0|32=4200|100=CN|38=5000|39=2|37=-574a71d3b665b112|583=-76abaff36eeb1c0|111=100|40=2|44=2.96|55=CNE|54=1|59=0|58=Replace from 5000.0 @ 2.95 To 5000.0 @ 2.96|63=4|60=20150609-13:32:46.006|453=1|448=XPUS|447=D|452=1|10=193|
20150609-13:33:35.901: 8=FIX.4.4|9=260|35=D|34=139|49=LVBSG|50=QXP018914|52=20150609-13:33:35.901|56=CL04|57=FCST|128=FCHB|1=QXP018914|11=-6dc365d097d5b9e6|21=1|38=2300|40=2|44=2.96|54=1|55=CNE|59=0|60=20150609-13:33:35.901|63=4|100=CN|111=100|207=CN|583=-76abaff36eeb1c0|453=1|448=XPUS|447=D|452=1|10=038|
20150609-13:33:35.919: 8=FIX.4.4|9=0365|35=8|49=CL04|56=LVBSG|34=164|52=20150609-13:33:35|50=FCST|115=FCHB|57=QXP018914|1=QXP018914|207=CN|6=0|11=-6dc365d097d5b9e6|14=0|17=51a3d92b51ee4095|21=1|150=A|31=0|151=2300|32=0|100=CN|38=2300|39=A|37=-79470286ce73bb5e|583=-76abaff36eeb1c0|111=100|40=2|44=2.96|55=CNE|54=1|59=0|58=New Buy CNE 2300.0 @ 2.96|63=4|60=20150609-13:33:35.906|453=1|448=XPUS|447=D|452=1|10=205|
20150609-13:33:36.582: 8=FIX.4.4|9=0374|35=8|49=CL04|56=LVBSG|34=165|52=20150609-13:33:36|50=FCST|115=FCHB|57=QXP018914|1=QXP018914|207=CN|6=0|11=-6dc365d097d5b9e6|14=0|17=LVSXFIX2-387L00000I000002|21=1|150=0|31=0|151=2300|32=0|100=CN|38=2300|39=0|37=-79470286ce73bb5e|583=-76abaff36eeb1c0|111=100|40=2|44=2.96|55=CNE|54=1|59=0|58=New Buy CNE 2300.0 @ 2.96|63=4|60=20150609-13:33:36.575|453=1|448=XPUS|447=D|452=1|10=095|
20150609-13:33:36.591: 8=FIX.4.4|9=0384|35=8|49=CL04|56=LVBSG|34=166|52=20150609-13:33:36|50=FCST|115=FCHB|57=QXP018914|1=QXP018914|207=CN|6=2.96|11=-6dc365d097d5b9e6|14=100|17=LVSXFIX2-387L00000I000003|21=1|150=F|31=2.96|151=2200|32=100|100=CN|38=2300|39=1|37=-79470286ce73bb5e|583=-76abaff36eeb1c0|111=100|40=2|44=2.96|55=CNE|54=1|59=0|58=New Buy CNE 2300.0 @ 2.96|63=4|60=20150609-13:33:36.586|453=1|448=XPUS|447=D|452=1|10=122|
20150609-13:33:36.600: 8=FIX.4.4|9=0384|35=8|49=CL04|56=LVBSG|34=167|52=20150609-13:33:36|50=FCST|115=FCHB|57=QXP018914|1=QXP018914|207=CN|6=2.96|11=-6dc365d097d5b9e6|14=300|17=LVSXFIX2-387L00000I000004|21=1|150=F|31=2.96|151=2000|32=200|100=CN|38=2300|39=1|37=-79470286ce73bb5e|583=-76abaff36eeb1c0|111=100|40=2|44=2.96|55=CNE|54=1|59=0|58=New Buy CNE 2300.0 @ 2.96|63=4|60=20150609-13:33:36.596|453=1|448=XPUS|447=D|452=1|10=126|
20150609-13:33:36.612: 8=FIX.4.4|9=0384|35=8|49=CL04|56=LVBSG|34=168|52=20150609-13:33:36|50=FCST|115=FCHB|57=QXP018914|1=QXP018914|207=CN|6=2.96|11=-6dc365d097d5b9e6|14=400|17=LVSXFIX2-387L00000I000005|21=1|150=F|31=2.96|151=1900|32=100|100=CN|38=2300|39=1|37=-79470286ce73bb5e|583=-76abaff36eeb1c0|111=100|40=2|44=2.96|55=CNE|54=1|59=0|58=New Buy CNE 2300.0 @ 2.96|63=4|60=20150609-13:33:36.608|453=1|448=XPUS|447=D|452=1|10=130|
20150609-13:33:36.636: 8=FIX.4.4|9=0384|35=8|49=CL04|56=LVBSG|34=169|52=20150609-13:33:36|50=FCST|115=FCHB|57=QXP018914|1=QXP018914|207=CN|6=2.96|11=-6dc365d097d5b9e6|14=500|17=LVSXFIX2-387L00000I000006|21=1|150=F|31=2.96|151=1800|32=100|100=CN|38=2300|39=1|37=-79470286ce73bb5e|583=-76abaff36eeb1c0|111=100|40=2|44=2.96|55=CNE|54=1|59=0|58=New Buy CNE 2300.0 @ 2.96|63=4|60=20150609-13:33:36.631|453=1|448=XPUS|447=D|452=1|10=128|
20150609-13:33:38.673: 8=FIX.4.4|9=0385|35=8|49=CL04|56=LVBSG|34=170|52=20150609-13:33:38|50=FCST|115=FCHB|57=QXP018914|1=QXP018914|207=CN|6=2.96|11=-6dc365d097d5b9e6|14=1000|17=LVSXFIX2-387L00000I000007|21=1|150=F|31=2.96|151=1300|32=500|100=CN|38=2300|39=1|37=-79470286ce73bb5e|583=-76abaff36eeb1c0|111=100|40=2|44=2.96|55=CNE|54=1|59=0|58=New Buy CNE 2300.0 @ 2.96|63=4|60=20150609-13:33:38.666|453=1|448=XPUS|447=D|452=1|10=177|
20150609-13:34:36.600: 8=FIX.4.4|9=54|35=0|34=140|49=LVBSG|52=20150609-13:34:36.600|56=CL04|10=171|
20150609-13:34:38.673: 8=FIX.4.4|9=0050|35=0|49=CL04|56=LVBSG|34=171|52=20150609-13:34:38|10=073|
20150609-13:34:59.312: 8=FIX.4.4|9=0385|35=8|49=CL04|56=LVBSG|34=172|52=20150609-13:34:59|50=FCST|115=FCHB|57=QXP018914|1=QXP018914|207=CN|6=2.96|11=-6dc365d097d5b9e6|14=1100|17=LVSXFIX2-387L00000I000008|21=1|150=F|31=2.96|151=1200|32=100|100=CN|38=2300|39=1|37=-79470286ce73bb5e|583=-76abaff36eeb1c0|111=100|40=2|44=2.96|55=CNE|54=1|59=0|58=New Buy CNE 2300.0 @ 2.96|63=4|60=20150609-13:34:59.304|453=1|448=XPUS|447=D|452=1|10=173|
20150609-13:34:59.343: 8=FIX.4.4|9=0385|35=8|49=CL04|56=LVBSG|34=173|52=20150609-13:34:59|50=FCST|115=FCHB|57=QXP018914|1=QXP018914|207=CN|6=2.96|11=-6dc365d097d5b9e6|14=1200|17=LVSXFIX2-387L00000I000009|21=1|150=F|31=2.96|151=1100|32=100|100=CN|38=2300|39=1|37=-79470286ce73bb5e|583=-76abaff36eeb1c0|111=100|40=2|44=2.96|55=CNE|54=1|59=0|58=New Buy CNE 2300.0 @ 2.96|63=4|60=20150609-13:34:59.331|453=1|448=XPUS|447=D|452=1|10=175|
20150609-13:34:59.345: 8=FIX.4.4|9=0385|35=8|49=CL04|56=LVBSG|34=174|52=20150609-13:34:59|50=FCST|115=FCHB|57=QXP018914|1=QXP018914|207=CN|6=2.96|11=-6dc365d097d5b9e6|14=1300|17=LVSXFIX2-387L00000I00000A|21=1|150=F|31=2.96|151=1000|32=100|100=CN|38=2300|39=1|37=-79470286ce73bb5e|583=-76abaff36eeb1c0|111=100|40=2|44=2.96|55=CNE|54=1|59=0|58=New Buy CNE 2300.0 @ 2.96|63=4|60=20150609-13:34:59.336|453=1|448=XPUS|447=D|452=1|10=189|
20150609-13:34:59.346: 8=FIX.4.4|9=0384|35=8|49=CL04|56=LVBSG|34=175|52=20150609-13:34:59|50=FCST|115=FCHB|57=QXP018914|1=QXP018914|207=CN|6=2.96|11=-6dc365d097d5b9e6|14=1400|17=LVSXFIX2-387L00000I00000B|21=1|150=F|31=2.96|151=900|32=100|100=CN|38=2300|39=1|37=-79470286ce73bb5e|583=-76abaff36eeb1c0|111=100|40=2|44=2.96|55=CNE|54=1|59=0|58=New Buy CNE 2300.0 @ 2.96|63=4|60=20150609-13:34:59.339|453=1|448=XPUS|447=D|452=1|10=154|
20150609-13:34:59.351: 8=FIX.4.4|9=0384|35=8|49=CL04|56=LVBSG|34=176|52=20150609-13:34:59|50=FCST|115=FCHB|57=QXP018914|1=QXP018914|207=CN|6=2.96|11=-6dc365d097d5b9e6|14=1500|17=LVSXFIX2-387L00000I00000C|21=1|150=F|31=2.96|151=800|32=100|100=CN|38=2300|39=1|37=-79470286ce73bb5e|583=-76abaff36eeb1c0|111=100|40=2|44=2.96|55=CNE|54=1|59=0|58=New Buy CNE 2300.0 @ 2.96|63=4|60=20150609-13:34:59.344|453=1|448=XPUS|447=D|452=1|10=152|
20150609-13:34:59.356: 8=FIX.4.4|9=0384|35=8|49=CL04|56=LVBSG|34=177|52=20150609-13:34:59|50=FCST|115=FCHB|57=QXP018914|1=QXP018914|207=CN|6=2.96|11=-6dc365d097d5b9e6|14=1600|17=LVSXFIX2-387L00000I00000D|21=1|150=F|31=2.96|151=700|32=100|100=CN|38=2300|39=1|37=-79470286ce73bb5e|583=-76abaff36eeb1c0|111=100|40=2|44=2.96|55=CNE|54=1|59=0|58=New Buy CNE 2300.0 @ 2.96|63=4|60=20150609-13:34:59.350|453=1|448=XPUS|447=D|452=1|10=151|
20150609-13:34:59.362: 8=FIX.4.4|9=0384|35=8|49=CL04|56=LVBSG|34=178|52=20150609-13:34:59|50=FCST|115=FCHB|57=QXP018914|1=QXP018914|207=CN|6=2.96|11=-6dc365d097d5b9e6|14=1700|17=LVSXFIX2-387L00000I00000E|21=1|150=F|31=2.96|151=600|32=100|100=CN|38=2300|39=1|37=-79470286ce73bb5e|583=-76abaff36eeb1c0|111=100|40=2|44=2.96|55=CNE|54=1|59=0|58=New Buy CNE 2300.0 @ 2.96|63=4|60=20150609-13:34:59.356|453=1|448=XPUS|447=D|452=1|10=159|
20150609-13:34:59.373: 8=FIX.4.4|9=0384|35=8|49=CL04|56=LVBSG|34=179|52=20150609-13:34:59|50=FCST|115=FCHB|57=QXP018914|1=QXP018914|207=CN|6=2.96|11=-6dc365d097d5b9e6|14=1800|17=LVSXFIX2-387L00000I00000F|21=1|150=F|31=2.96|151=500|32=100|100=CN|38=2300|39=1|37=-79470286ce73bb5e|583=-76abaff36eeb1c0|111=100|40=2|44=2.96|55=CNE|54=1|59=0|58=New Buy CNE 2300.0 @ 2.96|63=4|60=20150609-13:34:59.365|453=1|448=XPUS|447=D|452=1|10=161|
20150609-13:34:59.380: 8=FIX.4.4|9=0384|35=8|49=CL04|56=LVBSG|34=180|52=20150609-13:34:59|50=FCST|115=FCHB|57=QXP018914|1=QXP018914|207=CN|6=2.96|11=-6dc365d097d5b9e6|14=1900|17=LVSXFIX2-387L00000I00000G|21=1|150=F|31=2.96|151=400|32=100|100=CN|38=2300|39=1|37=-79470286ce73bb5e|583=-76abaff36eeb1c0|111=100|40=2|44=2.96|55=CNE|54=1|59=0|58=New Buy CNE 2300.0 @ 2.96|63=4|60=20150609-13:34:59.374|453=1|448=XPUS|447=D|452=1|10=154|
20150609-13:34:59.389: 8=FIX.4.4|9=0384|35=8|49=CL04|56=LVBSG|34=181|52=20150609-13:34:59|50=FCST|115=FCHB|57=QXP018914|1=QXP018914|207=CN|6=2.96|11=-6dc365d097d5b9e6|14=2000|17=LVSXFIX2-387L00000I00000H|21=1|150=F|31=2.96|151=300|32=100|100=CN|38=2300|39=1|37=-79470286ce73bb5e|583=-76abaff36eeb1c0|111=100|40=2|44=2.96|55=CNE|54=1|59=0|58=New Buy CNE 2300.0 @ 2.96|63=4|60=20150609-13:34:59.384|453=1|448=XPUS|447=D|452=1|10=148|
20150609-13:34:59.396: 8=FIX.4.4|9=0384|35=8|49=CL04|56=LVBSG|34=182|52=20150609-13:34:59|50=FCST|115=FCHB|57=QXP018914|1=QXP018914|207=CN|6=2.96|11=-6dc365d097d5b9e6|14=2100|17=LVSXFIX2-387L00000I00000I|21=1|150=F|31=2.96|151=200|32=100|100=CN|38=2300|39=1|37=-79470286ce73bb5e|583=-76abaff36eeb1c0|111=100|40=2|44=2.96|55=CNE|54=1|59=0|58=New Buy CNE 2300.0 @ 2.96|63=4|60=20150609-13:34:59.391|453=1|448=XPUS|447=D|452=1|10=148|
20150609-13:34:59.411: 8=FIX.4.4|9=0384|35=8|49=CL04|56=LVBSG|34=183|52=20150609-13:34:59|50=FCST|115=FCHB|57=QXP018914|1=QXP018914|207=CN|6=2.96|11=-6dc365d097d5b9e6|14=2200|17=LVSXFIX2-387L00000I00000J|21=1|150=F|31=2.96|151=100|32=100|100=CN|38=2300|39=1|37=-79470286ce73bb5e|583=-76abaff36eeb1c0|111=100|40=2|44=2.96|55=CNE|54=1|59=0|58=New Buy CNE 2300.0 @ 2.96|63=4|60=20150609-13:34:59.406|453=1|448=XPUS|447=D|452=1|10=147|
20150609-13:34:59.475: 8=FIX.4.4|9=0382|35=8|49=CL04|56=LVBSG|34=184|52=20150609-13:34:59|50=FCST|115=FCHB|57=QXP018914|1=QXP018914|207=CN|6=2.96|11=-6dc365d097d5b9e6|14=2300|17=LVSXFIX2-387L00000I00000K|21=1|150=F|31=2.96|151=0|32=100|100=CN|38=2300|39=2|37=-79470286ce73bb5e|583=-76abaff36eeb1c0|111=100|40=2|44=2.96|55=CNE|54=1|59=0|58=New Buy CNE 2300.0 @ 2.96|63=4|60=20150609-13:34:59.469|453=1|448=XPUS|447=D|452=1|10=061|
20150609-13:35:36.600: 8=FIX.4.4|9=54|35=0|34=141|49=LVBSG|52=20150609-13:35:36.600|56=CL04|10=173|
20150609-13:35:59.475: 8=FIX.4.4|9=0050|35=0|49=CL04|56=LVBSG|34=185|52=20150609-13:35:59|10=082|
20150609-13:36:36.601: 8=FIX.4.4|9=54|35=0|34=142|49=LVBSG|52=20150609-13:36:36.601|56=CL04|10=176|
20150609-13:36:59.475: 8=FIX.4.4|9=0050|35=0|49=CL04|56=LVBSG|34=186|52=20150609-13:36:59|10=084|
20150609-13:37:36.603: 8=FIX.4.4|9=54|35=0|34=143|49=LVBSG|52=20150609-13:37:36.603|56=CL04|10=180|
20150609-13:37:59.475: 8=FIX.4.4|9=0050|35=0|49=CL04|56=LVBSG|34=187|52=20150609-13:37:59|10=086|
20150609-13:38:37.600: 8=FIX.4.4|9=54|35=0|34=144|49=LVBSG|52=20150609-13:38:37.600|56=CL04|10=180|
20150609-13:38:59.476: 8=FIX.4.4|9=0050|35=0|49=CL04|56=LVBSG|34=188|52=20150609-13:38:59|10=088|
20150609-13:39:37.600: 8=FIX.4.4|9=54|35=0|34=145|49=LVBSG|52=20150609-13:39:37.600|56=CL04|10=182|
20150609-13:39:59.477: 8=FIX.4.4|9=0050|35=0|49=CL04|56=LVBSG|34=189|52=20150609-13:39:59|10=090|
20150609-13:40:34.888: 8=FIX.4.4|9=259|35=D|34=146|49=LVBSG|50=QXP018914|52=20150609-13:40:34.888|56=CL04|57=FCST|128=FCHB|1=QXP018914|11=2d93657323d3401b|21=1|38=2500|40=2|44=2.95|54=1|55=CNE|59=0|60=20150609-13:40:34.888|63=4|100=CN|111=100|207=CN|583=-76abaff36eeb1c0|453=1|448=XPUS|447=D|452=1|10=114|
20150609-13:40:34.922: 8=FIX.4.4|9=0365|35=8|49=CL04|56=LVBSG|34=190|52=20150609-13:40:34|50=FCST|115=FCHB|57=QXP018914|1=QXP018914|207=CN|6=0|11=2d93657323d3401b|14=0|17=-636316f86932b130|21=1|150=A|31=0|151=2500|32=0|100=CN|38=2500|39=A|37=-2fdff006a092bbf2|583=-76abaff36eeb1c0|111=100|40=2|44=2.95|55=CNE|54=1|59=0|58=New Buy CNE 2500.0 @ 2.95|63=4|60=20150609-13:40:34.910|453=1|448=XPUS|447=D|452=1|10=016|
20150609-13:40:35.602: 8=FIX.4.4|9=0373|35=8|49=CL04|56=LVBSG|34=191|52=20150609-13:40:35|50=FCST|115=FCHB|57=QXP018914|1=QXP018914|207=CN|6=0|11=2d93657323d3401b|14=0|17=LVSXFIX2-387L00000K000002|21=1|150=0|31=0|151=2500|32=0|100=CN|38=2500|39=0|37=-2fdff006a092bbf2|583=-76abaff36eeb1c0|111=100|40=2|44=2.95|55=CNE|54=1|59=0|58=New Buy CNE 2500.0 @ 2.95|63=4|60=20150609-13:40:35.597|453=1|448=XPUS|447=D|452=1|10=011|
20150609-13:40:35.639: 8=FIX.4.4|9=0383|35=8|49=CL04|56=LVBSG|34=192|52=20150609-13:40:35|50=FCST|115=FCHB|57=QXP018914|1=QXP018914|207=CN|6=2.95|11=2d93657323d3401b|14=200|17=LVSXFIX2-387L00000K000003|21=1|150=F|31=2.95|151=2300|32=200|100=CN|38=2500|39=1|37=-2fdff006a092bbf2|583=-76abaff36eeb1c0|111=100|40=2|44=2.95|55=CNE|54=1|59=0|58=New Buy CNE 2500.0 @ 2.95|63=4|60=20150609-13:40:35.629|453=1|448=XPUS|447=D|452=1|10=031|
20150609-13:40:35.648: 8=FIX.4.4|9=0383|35=8|49=CL04|56=LVBSG|34=193|52=20150609-13:40:35|50=FCST|115=FCHB|57=QXP018914|1=QXP018914|207=CN|6=2.95|11=2d93657323d3401b|14=300|17=LVSXFIX2-387L00000K000004|21=1|150=F|31=2.95|151=2200|32=100|100=CN|38=2500|39=1|37=-2fdff006a092bbf2|583=-76abaff36eeb1c0|111=100|40=2|44=2.95|55=CNE|54=1|59=0|58=New Buy CNE 2500.0 @ 2.95|63=4|60=20150609-13:40:35.640|453=1|448=XPUS|447=D|452=1|10=025|
20150609-13:40:35.653: 8=FIX.4.4|9=0383|35=8|49=CL04|56=LVBSG|34=194|52=20150609-13:40:35|50=FCST|115=FCHB|57=QXP018914|1=QXP018914|207=CN|6=2.95|11=2d93657323d3401b|14=400|17=LVSXFIX2-387L00000K000005|21=1|150=F|31=2.95|151=2100|32=100|100=CN|38=2500|39=1|37=-2fdff006a092bbf2|583=-76abaff36eeb1c0|111=100|40=2|44=2.95|55=CNE|54=1|59=0|58=New Buy CNE 2500.0 @ 2.95|63=4|60=20150609-13:40:35.647|453=1|448=XPUS|447=D|452=1|10=034|
20150609-13:40:35.660: 8=FIX.4.4|9=0383|35=8|49=CL04|56=LVBSG|34=195|52=20150609-13:40:35|50=FCST|115=FCHB|57=QXP018914|1=QXP018914|207=CN|6=2.95|11=2d93657323d3401b|14=600|17=LVSXFIX2-387L00000K000006|21=1|150=F|31=2.95|151=1900|32=200|100=CN|38=2500|39=1|37=-2fdff006a092bbf2|583=-76abaff36eeb1c0|111=100|40=2|44=2.95|55=CNE|54=1|59=0|58=New Buy CNE 2500.0 @ 2.95|63=4|60=20150609-13:40:35.654|453=1|448=XPUS|447=D|452=1|10=044|
20150609-13:40:35.672: 8=FIX.4.4|9=0383|35=8|49=CL04|56=LVBSG|34=196|52=20150609-13:40:35|50=FCST|115=FCHB|57=QXP018914|1=QXP018914|207=CN|6=2.95|11=2d93657323d3401b|14=700|17=LVSXFIX2-387L00000K000007|21=1|150=F|31=2.95|151=1800|32=100|100=CN|38=2500|39=1|37=-2fdff006a092bbf2|583=-76abaff36eeb1c0|111=100|40=2|44=2.95|55=CNE|54=1|59=0|58=New Buy CNE 2500.0 @ 2.95|63=4|60=20150609-13:40:35.664|453=1|448=XPUS|447=D|452=1|10=046|
20150609-13:40:35.672: 8=FIX.4.4|9=0383|35=8|49=CL04|56=LVBSG|34=197|52=20150609-13:40:35|50=FCST|115=FCHB|57=QXP018914|1=QXP018914|207=CN|6=2.95|11=2d93657323d3401b|14=800|17=LVSXFIX2-387L00000K000008|21=1|150=F|31=2.95|151=1700|32=100|100=CN|38=2500|39=1|37=-2fdff006a092bbf2|583=-76abaff36eeb1c0|111=100|40=2|44=2.95|55=CNE|54=1|59=0|58=New Buy CNE 2500.0 @ 2.95|63=4|60=20150609-13:40:35.665|453=1|448=XPUS|447=D|452=1|10=049|
20150609-13:40:35.679: 8=FIX.4.4|9=0383|35=8|49=CL04|56=LVBSG|34=198|52=20150609-13:40:35|50=FCST|115=FCHB|57=QXP018914|1=QXP018914|207=CN|6=2.95|11=2d93657323d3401b|14=900|17=LVSXFIX2-387L00000K000009|21=1|150=F|31=2.95|151=1600|32=100|100=CN|38=2500|39=1|37=-2fdff006a092bbf2|583=-76abaff36eeb1c0|111=100|40=2|44=2.95|55=CNE|54=1|59=0|58=New Buy CNE 2500.0 @ 2.95|63=4|60=20150609-13:40:35.671|453=1|448=XPUS|447=D|452=1|10=048|
20150609-13:40:35.683: 8=FIX.4.4|9=0383|35=8|49=CL04|56=LVBSG|34=199|52=20150609-13:40:35|50=FCST|115=FCHB|57=QXP018914|1=QXP018914|207=CN|6=2.95|11=2d93657323d3401b|14=1800|17=LVSXFIX2-387L00000K00000A|21=1|150=F|31=2.95|151=700|32=900|100=CN|38=2500|39=1|37=-2fdff006a092bbf2|583=-76abaff36eeb1c0|111=100|40=2|44=2.95|55=CNE|54=1|59=0|58=New Buy CNE 2500.0 @ 2.95|63=4|60=20150609-13:40:35.677|453=1|448=XPUS|447=D|452=1|10=071|
20150609-13:40:35.691: 8=FIX.4.4|9=0383|35=8|49=CL04|56=LVBSG|34=200|52=20150609-13:40:35|50=FCST|115=FCHB|57=QXP018914|1=QXP018914|207=CN|6=2.95|11=2d93657323d3401b|14=2100|17=LVSXFIX2-387L00000K00000B|21=1|150=F|31=2.95|151=400|32=300|100=CN|38=2500|39=1|37=-2fdff006a092bbf2|583=-76abaff36eeb1c0|111=100|40=2|44=2.95|55=CNE|54=1|59=0|58=New Buy CNE 2500.0 @ 2.95|63=4|60=20150609-13:40:35.685|453=1|448=XPUS|447=D|452=1|10=039|
20150609-13:40:35.697: 8=FIX.4.4|9=0383|35=8|49=CL04|56=LVBSG|34=201|52=20150609-13:40:35|50=FCST|115=FCHB|57=QXP018914|1=QXP018914|207=CN|6=2.95|11=2d93657323d3401b|14=2200|17=LVSXFIX2-387L00000K00000C|21=1|150=F|31=2.95|151=300|32=100|100=CN|38=2500|39=1|37=-2fdff006a092bbf2|583=-76abaff36eeb1c0|111=100|40=2|44=2.95|55=CNE|54=1|59=0|58=New Buy CNE 2500.0 @ 2.95|63=4|60=20150609-13:40:35.692|453=1|448=XPUS|447=D|452=1|10=037|
20150609-13:40:35.713: 8=FIX.4.4|9=0381|35=8|49=CL04|56=LVBSG|34=202|52=20150609-13:40:35|50=FCST|115=FCHB|57=QXP018914|1=QXP018914|207=CN|6=2.95|11=2d93657323d3401b|14=2500|17=LVSXFIX2-387L00000K00000D|21=1|150=F|31=2.95|151=0|32=300|100=CN|38=2500|39=2|37=-2fdff006a092bbf2|583=-76abaff36eeb1c0|111=100|40=2|44=2.95|55=CNE|54=1|59=0|58=New Buy CNE 2500.0 @ 2.95|63=4|60=20150609-13:40:35.698|453=1|448=XPUS|447=D|452=1|10=206|
20150609-13:40:47.378: 8=FIX.4.4|9=260|35=D|34=147|49=LVBSG|50=QXP018914|52=20150609-13:40:47.378|56=CL04|57=FCST|128=FCHB|1=QXP018914|11=-7f58f389361bb938|21=1|38=2500|40=2|44=2.94|54=1|55=CNE|59=0|60=20150609-13:40:47.378|63=4|100=CN|111=100|207=CN|583=-76abaff36eeb1c0|453=1|448=XPUS|447=D|452=1|10=223|
20150609-13:40:47.392: 8=FIX.4.4|9=0364|35=8|49=CL04|56=LVBSG|34=203|52=20150609-13:40:47|50=FCST|115=FCHB|57=QXP018914|1=QXP018914|207=CN|6=0|11=-7f58f389361bb938|14=0|17=-7b0926ef9870becb|21=1|150=A|31=0|151=2500|32=0|100=CN|38=2500|39=A|37=-c3a4f62fe4bc31|583=-76abaff36eeb1c0|111=100|40=2|44=2.94|55=CNE|54=1|59=0|58=New Buy CNE 2500.0 @ 2.94|63=4|60=20150609-13:40:47.384|453=1|448=XPUS|447=D|452=1|10=241|
20150609-13:40:48.209: 8=FIX.4.4|9=0372|35=8|49=CL04|56=LVBSG|34=204|52=20150609-13:40:48|50=FCST|115=FCHB|57=QXP018914|1=QXP018914|207=CN|6=0|11=-7f58f389361bb938|14=0|17=LVSXFIX2-387L00000L000002|21=1|150=0|31=0|151=2500|32=0|100=CN|38=2500|39=0|37=-c3a4f62fe4bc31|583=-76abaff36eeb1c0|111=100|40=2|44=2.94|55=CNE|54=1|59=0|58=New Buy CNE 2500.0 @ 2.94|63=4|60=20150609-13:40:48.197|453=1|448=XPUS|447=D|452=1|10=236|
20150609-13:40:48.213: 8=FIX.4.4|9=0382|35=8|49=CL04|56=LVBSG|34=205|52=20150609-13:40:48|50=FCST|115=FCHB|57=QXP018914|1=QXP018914|207=CN|6=2.94|11=-7f58f389361bb938|14=100|17=LVSXFIX2-387L00000L000003|21=1|150=F|31=2.94|151=2400|32=100|100=CN|38=2500|39=1|37=-c3a4f62fe4bc31|583=-76abaff36eeb1c0|111=100|40=2|44=2.94|55=CNE|54=1|59=0|58=New Buy CNE 2500.0 @ 2.94|63=4|60=20150609-13:40:48.207|453=1|448=XPUS|447=D|452=1|10=249|
20150609-13:40:48.217: 8=FIX.4.4|9=282|35=G|34=148|49=LVBSG|50=QXP018914|52=20150609-13:40:48.217|56=CL04|57=FCST|128=FCHB|1=QXP018914|11=-51439b29564fb8bd|21=1|38=11500|40=2|41=-7f58f389361bb938|44=2.94|54=1|55=CNE|59=0|60=20150609-13:40:48.217|63=4|100=CN|111=100|207=CN|583=-76abaff36eeb1c0|453=1|448=XPUS|447=D|452=1|10=017|
20150609-13:40:48.228: 8=FIX.4.4|9=0382|35=8|49=CL04|56=LVBSG|34=206|52=20150609-13:40:48|50=FCST|115=FCHB|57=QXP018914|1=QXP018914|207=CN|6=2.94|11=-7f58f389361bb938|14=200|17=LVSXFIX2-387L00000L000004|21=1|150=F|31=2.94|151=2300|32=100|100=CN|38=2500|39=1|37=-c3a4f62fe4bc31|583=-76abaff36eeb1c0|111=100|40=2|44=2.94|55=CNE|54=1|59=0|58=New Buy CNE 2500.0 @ 2.94|63=4|60=20150609-13:40:48.220|453=1|448=XPUS|447=D|452=1|10=246|
20150609-13:40:48.236: 8=FIX.4.4|9=0410|35=8|49=CL04|56=LVBSG|34=207|52=20150609-13:40:48|50=FCST|115=FCHB|57=QXP018914|1=QXP018914|207=CN|6=2.94|11=-51439b29564fb8bd|14=200|17=-50d2b428e083b97b|21=1|150=E|31=0|151=2300|32=0|100=CN|38=11500|39=E|37=-c3a4f62fe4bc31|583=-76abaff36eeb1c0|111=100|40=2|41=-7f58f389361bb938|44=2.94|55=CNE|54=1|59=0|58=Replace from 2500.0 @ 2.94 To 11500.0 @ 2.94|63=4|60=20150609-13:40:48.223|453=1|448=XPUS|447=D|452=1|10=127|
20150609-13:40:48.242: 8=FIX.4.4|9=0401|35=8|49=CL04|56=LVBSG|34=208|52=20150609-13:40:48|50=FCST|115=FCHB|57=QXP018914|1=QXP018914|207=CN|6=2.94|11=-7f58f389361bb938|14=500|17=LVSXFIX2-387L00000L000005|21=1|150=F|31=2.94|151=2000|32=300|100=CN|38=2500|39=1|37=-c3a4f62fe4bc31|583=-76abaff36eeb1c0|111=100|40=2|44=2.94|55=CNE|54=1|59=0|58=Replace from 2500.0 @ 2.94 To 11500.0 @ 2.94|63=4|60=20150609-13:40:48.228|453=1|448=XPUS|447=D|452=1|10=192|
20150609-13:40:48.245: 8=FIX.4.4|9=0401|35=8|49=CL04|56=LVBSG|34=209|52=20150609-13:40:48|50=FCST|115=FCHB|57=QXP018914|1=QXP018914|207=CN|6=2.94|11=-7f58f389361bb938|14=600|17=LVSXFIX2-387L00000L000006|21=1|150=F|31=2.94|151=1900|32=100|100=CN|38=2500|39=1|37=-c3a4f62fe4bc31|583=-76abaff36eeb1c0|111=100|40=2|44=2.94|55=CNE|54=1|59=0|58=Replace from 2500.0 @ 2.94 To 11500.0 @ 2.94|63=4|60=20150609-13:40:48.236|453=1|448=XPUS|447=D|452=1|10=200|
20150609-13:40:48.256: 8=FIX.4.4|9=0401|35=8|49=CL04|56=LVBSG|34=210|52=20150609-13:40:48|50=FCST|115=FCHB|57=QXP018914|1=QXP018914|207=CN|6=2.94|11=-7f58f389361bb938|14=900|17=LVSXFIX2-387L00000L000007|21=1|150=F|31=2.94|151=1600|32=300|100=CN|38=2500|39=1|37=-c3a4f62fe4bc31|583=-76abaff36eeb1c0|111=100|40=2|44=2.94|55=CNE|54=1|59=0|58=Replace from 2500.0 @ 2.94 To 11500.0 @ 2.94|63=4|60=20150609-13:40:48.244|453=1|448=XPUS|447=D|452=1|10=194|
20150609-13:40:48.579: 8=FIX.4.4|9=0398|35=8|49=CL04|56=LVBSG|34=211|52=20150609-13:40:48|50=FCST|115=FCHB|57=QXP018914|1=QXP018914|207=CN|6=2.94|11=-7f58f389361bb938|14=900|17=LVSXFIX2-387L00000L000009|21=1|150=5|31=0|151=10600|32=0|100=CN|38=11500|39=1|37=-c3a4f62fe4bc31|583=-76abaff36eeb1c0|111=100|40=2|44=2.94|55=CNE|54=1|59=0|58=Replace from 2500.0 @ 2.94 To 11500.0 @ 2.94|63=4|60=20150609-13:40:48.571|453=1|448=XPUS|447=D|452=1|10=038|
20150609-13:41:48.577: 8=FIX.4.4|9=0050|35=0|49=CL04|56=LVBSG|34=212|52=20150609-13:41:48|10=068|
20150609-13:41:48.578: 8=FIX.4.4|9=54|35=0|34=149|49=LVBSG|52=20150609-13:41:48.578|56=CL04|10=195|
20150609-13:42:05.958: 8=FIX.4.4|9=0404|35=8|49=CL04|56=LVBSG|34=213|52=20150609-13:42:05|50=FCST|115=FCHB|57=QXP018914|1=QXP018914|207=CN|6=2.94|11=-7f58f389361bb938|14=1000|17=LVSXFIX2-387L00000L00000A|21=1|150=F|31=2.94|151=10500|32=100|100=CN|38=11500|39=1|37=-c3a4f62fe4bc31|583=-76abaff36eeb1c0|111=100|40=2|44=2.94|55=CNE|54=1|59=0|58=Replace from 2500.0 @ 2.94 To 11500.0 @ 2.94|63=4|60=20150609-13:42:05.952|453=1|448=XPUS|447=D|452=1|10=083|
20150609-13:42:05.964: 8=FIX.4.4|9=0404|35=8|49=CL04|56=LVBSG|34=214|52=20150609-13:42:05|50=FCST|115=FCHB|57=QXP018914|1=QXP018914|207=CN|6=2.94|11=-7f58f389361bb938|14=1100|17=LVSXFIX2-387L00000L00000B|21=1|150=F|31=2.94|151=10400|32=100|100=CN|38=11500|39=1|37=-c3a4f62fe4bc31|583=-76abaff36eeb1c0|111=100|40=2|44=2.94|55=CNE|54=1|59=0|58=Replace from 2500.0 @ 2.94 To 11500.0 @ 2.94|63=4|60=20150609-13:42:05.958|453=1|448=XPUS|447=D|452=1|10=091|
20150609-13:42:28.510: 8=FIX.4.4|9=0404|35=8|49=CL04|56=LVBSG|34=215|52=20150609-13:42:28|50=FCST|115=FCHB|57=QXP018914|1=QXP018914|207=CN|6=2.94|11=-7f58f389361bb938|14=1200|17=LVSXFIX2-387L00000L00000C|21=1|150=F|31=2.94|151=10300|32=100|100=CN|38=11500|39=1|37=-c3a4f62fe4bc31|583=-76abaff36eeb1c0|111=100|40=2|44=2.94|55=CNE|54=1|59=0|58=Replace from 2500.0 @ 2.94 To 11500.0 @ 2.94|63=4|60=20150609-13:42:28.503|453=1|448=XPUS|447=D|452=1|10=089|
20150609-13:42:28.520: 8=FIX.4.4|9=0404|35=8|49=CL04|56=LVBSG|34=216|52=20150609-13:42:28|50=FCST|115=FCHB|57=QXP018914|1=QXP018914|207=CN|6=2.94|11=-7f58f389361bb938|14=1300|17=LVSXFIX2-387L00000L00000D|21=1|150=F|31=2.94|151=10200|32=100|100=CN|38=11500|39=1|37=-c3a4f62fe4bc31|583=-76abaff36eeb1c0|111=100|40=2|44=2.94|55=CNE|54=1|59=0|58=Replace from 2500.0 @ 2.94 To 11500.0 @ 2.94|63=4|60=20150609-13:42:28.514|453=1|448=XPUS|447=D|452=1|10=093|
20150609-13:42:28.532: 8=FIX.4.4|9=0404|35=8|49=CL04|56=LVBSG|34=217|52=20150609-13:42:28|50=FCST|115=FCHB|57=QXP018914|1=QXP018914|207=CN|6=2.94|11=-7f58f389361bb938|14=1400|17=LVSXFIX2-387L00000L00000E|21=1|150=F|31=2.94|151=10100|32=100|100=CN|38=11500|39=1|37=-c3a4f62fe4bc31|583=-76abaff36eeb1c0|111=100|40=2|44=2.94|55=CNE|54=1|59=0|58=Replace from 2500.0 @ 2.94 To 11500.0 @ 2.94|63=4|60=20150609-13:42:28.521|453=1|448=XPUS|447=D|452=1|10=093|
20150609-13:42:48.601: 8=FIX.4.4|9=54|35=0|34=150|49=LVBSG|52=20150609-13:42:48.601|56=CL04|10=175|
20150609-13:43:12.795: 8=FIX.4.4|9=0404|35=8|49=CL04|56=LVBSG|34=218|52=20150609-13:43:12|50=FCST|115=FCHB|57=QXP018914|1=QXP018914|207=CN|6=2.94|11=-7f58f389361bb938|14=1500|17=LVSXFIX2-387L00000L00000F|21=1|150=F|31=2.94|151=10000|32=100|100=CN|38=11500|39=1|37=-c3a4f62fe4bc31|583=-76abaff36eeb1c0|111=100|40=2|44=2.94|55=CNE|54=1|59=0|58=Replace from 2500.0 @ 2.94 To 11500.0 @ 2.94|63=4|60=20150609-13:43:12.789|453=1|448=XPUS|447=D|452=1|10=099|
20150609-13:43:49.600: 8=FIX.4.4|9=54|35=0|34=151|49=LVBSG|52=20150609-13:43:49.600|56=CL04|10=177|
20150609-13:43:56.025: 8=FIX.4.4|9=0403|35=8|49=CL04|56=LVBSG|34=219|52=20150609-13:43:56|50=FCST|115=FCHB|57=QXP018914|1=QXP018914|207=CN|6=2.94|11=-7f58f389361bb938|14=1600|17=LVSXFIX2-387L00000L00000G|21=1|150=F|31=2.94|151=9900|32=100|100=CN|38=11500|39=1|37=-c3a4f62fe4bc31|583=-76abaff36eeb1c0|111=100|40=2|44=2.94|55=CNE|54=1|59=0|58=Replace from 2500.0 @ 2.94 To 11500.0 @ 2.94|63=4|60=20150609-13:43:56.013|453=1|448=XPUS|447=D|452=1|10=066|
20150609-13:43:59.638: 8=FIX.4.4|9=281|35=G|34=152|49=LVBSG|50=QXP018914|52=20150609-13:43:59.638|56=CL04|57=FCST|128=FCHB|1=QXP018914|11=3810a4a448234689|21=1|38=11500|40=2|41=-7f58f389361bb938|44=2.95|54=1|55=CNE|59=0|60=20150609-13:43:59.638|63=4|100=CN|111=100|207=CN|583=-76abaff36eeb1c0|453=1|448=XPUS|447=D|452=1|10=097|
20150609-13:43:59.669: 8=FIX.4.4|9=0410|35=8|49=CL04|56=LVBSG|34=220|52=20150609-13:43:59|50=FCST|115=FCHB|57=QXP018914|1=QXP018914|207=CN|6=2.94|11=3810a4a448234689|14=1600|17=499c37fb3a284396|21=1|150=E|31=0|151=9900|32=0|100=CN|38=11500|39=E|37=-c3a4f62fe4bc31|583=-76abaff36eeb1c0|111=100|40=2|41=-7f58f389361bb938|44=2.95|55=CNE|54=1|59=0|58=Replace from 11500.0 @ 2.94 To 11500.0 @ 2.95|63=4|60=20150609-13:43:59.659|453=1|448=XPUS|447=D|452=1|10=245|
20150609-13:44:00.348: 8=FIX.4.4|9=0399|35=8|49=CL04|56=LVBSG|34=221|52=20150609-13:44:00|50=FCST|115=FCHB|57=QXP018914|1=QXP018914|207=CN|6=2.94|11=-7f58f389361bb938|14=1600|17=LVSXFIX2-387L00000L00000I|21=1|150=5|31=0|151=9900|32=0|100=CN|38=11500|39=1|37=-c3a4f62fe4bc31|583=-76abaff36eeb1c0|111=100|40=2|44=2.95|55=CNE|54=1|59=0|58=Replace from 11500.0 @ 2.94 To 11500.0 @ 2.95|63=4|60=20150609-13:44:00.337|453=1|448=XPUS|447=D|452=1|10=099|
20150609-13:44:01.078: 8=FIX.4.4|9=0408|35=8|49=CL04|56=LVBSG|34=222|52=20150609-13:44:01|50=FCST|115=FCHB|57=QXP018914|1=QXP018914|207=CN|6=2.940588|11=-7f58f389361bb938|14=1700|17=LVSXFIX2-387L00000L00000J|21=1|150=F|31=2.95|151=9800|32=100|100=CN|38=11500|39=1|37=-c3a4f62fe4bc31|583=-76abaff36eeb1c0|111=100|40=2|44=2.95|55=CNE|54=1|59=0|58=Replace from 11500.0 @ 2.94 To 11500.0 @ 2.95|63=4|60=20150609-13:44:01.072|453=1|448=XPUS|447=D|452=1|10=063|
20150609-13:44:01.101: 8=FIX.4.4|9=0408|35=8|49=CL04|56=LVBSG|34=223|52=20150609-13:44:01|50=FCST|115=FCHB|57=QXP018914|1=QXP018914|207=CN|6=2.941111|11=-7f58f389361bb938|14=1800|17=LVSXFIX2-387L00000L00000K|21=1|150=F|31=2.95|151=9700|32=100|100=CN|38=11500|39=1|37=-c3a4f62fe4bc31|583=-76abaff36eeb1c0|111=100|40=2|44=2.95|55=CNE|54=1|59=0|58=Replace from 11500.0 @ 2.94 To 11500.0 @ 2.95|63=4|60=20150609-13:44:01.095|453=1|448=XPUS|447=D|452=1|10=053|
20150609-13:44:01.113: 8=FIX.4.4|9=0408|35=8|49=CL04|56=LVBSG|34=224|52=20150609-13:44:01|50=FCST|115=FCHB|57=QXP018914|1=QXP018914|207=CN|6=2.941579|11=-7f58f389361bb938|14=1900|17=LVSXFIX2-387L00000L00000L|21=1|150=F|31=2.95|151=9600|32=100|100=CN|38=11500|39=1|37=-c3a4f62fe4bc31|583=-76abaff36eeb1c0|111=100|40=2|44=2.95|55=CNE|54=1|59=0|58=Replace from 11500.0 @ 2.94 To 11500.0 @ 2.95|63=4|60=20150609-13:44:01.107|453=1|448=XPUS|447=D|452=1|10=067|
20150609-13:44:01.126: 8=FIX.4.4|9=0405|35=8|49=CL04|56=LVBSG|34=225|52=20150609-13:44:01|50=FCST|115=FCHB|57=QXP018914|1=QXP018914|207=CN|6=2.942|11=-7f58f389361bb938|14=2000|17=LVSXFIX2-387L00000L00000M|21=1|150=F|31=2.95|151=9500|32=100|100=CN|38=11500|39=1|37=-c3a4f62fe4bc31|583=-76abaff36eeb1c0|111=100|40=2|44=2.95|55=CNE|54=1|59=0|58=Replace from 11500.0 @ 2.94 To 11500.0 @ 2.95|63=4|60=20150609-13:44:01.120|453=1|448=XPUS|447=D|452=1|10=144|
20150609-13:44:01.136: 8=FIX.4.4|9=0408|35=8|49=CL04|56=LVBSG|34=226|52=20150609-13:44:01|50=FCST|115=FCHB|57=QXP018914|1=QXP018914|207=CN|6=2.942381|11=-7f58f389361bb938|14=2100|17=LVSXFIX2-387L00000L00000N|21=1|150=F|31=2.95|151=9400|32=100|100=CN|38=11500|39=1|37=-c3a4f62fe4bc31|583=-76abaff36eeb1c0|111=100|40=2|44=2.95|55=CNE|54=1|59=0|58=Replace from 11500.0 @ 2.94 To 11500.0 @ 2.95|63=4|60=20150609-13:44:01.131|453=1|448=XPUS|447=D|452=1|10=051|
20150609-13:44:01.148: 8=FIX.4.4|9=0408|35=8|49=CL04|56=LVBSG|34=227|52=20150609-13:44:01|50=FCST|115=FCHB|57=QXP018914|1=QXP018914|207=CN|6=2.942727|11=-7f58f389361bb938|14=2200|17=LVSXFIX2-387L00000L00000O|21=1|150=F|31=2.95|151=9300|32=100|100=CN|38=11500|39=1|37=-c3a4f62fe4bc31|583=-76abaff36eeb1c0|111=100|40=2|44=2.95|55=CNE|54=1|59=0|58=Replace from 11500.0 @ 2.94 To 11500.0 @ 2.95|63=4|60=20150609-13:44:01.138|453=1|448=XPUS|447=D|452=1|10=064|
20150609-13:44:01.158: 8=FIX.4.4|9=0408|35=8|49=CL04|56=LVBSG|34=228|52=20150609-13:44:01|50=FCST|115=FCHB|57=QXP018914|1=QXP018914|207=CN|6=2.943043|11=-7f58f389361bb938|14=2300|17=LVSXFIX2-387L00000L00000P|21=1|150=F|31=2.95|151=9200|32=100|100=CN|38=11500|39=1|37=-c3a4f62fe4bc31|583=-76abaff36eeb1c0|111=100|40=2|44=2.95|55=CNE|54=1|59=0|58=Replace from 11500.0 @ 2.94 To 11500.0 @ 2.95|63=4|60=20150609-13:44:01.146|453=1|448=XPUS|447=D|452=1|10=057|
20150609-13:44:01.164: 8=FIX.4.4|9=0408|35=8|49=CL04|56=LVBSG|34=229|52=20150609-13:44:01|50=FCST|115=FCHB|57=QXP018914|1=QXP018914|207=CN|6=2.943333|11=-7f58f389361bb938|14=2400|17=LVSXFIX2-387L00000L00000Q|21=1|150=F|31=2.95|151=9100|32=100|100=CN|38=11500|39=1|37=-c3a4f62fe4bc31|583=-76abaff36eeb1c0|111=100|40=2|44=2.95|55=CNE|54=1|59=0|58=Replace from 11500.0 @ 2.94 To 11500.0 @ 2.95|63=4|60=20150609-13:44:01.153|453=1|448=XPUS|447=D|452=1|10=059|
20150609-13:44:01.168: 8=FIX.4.4|9=0406|35=8|49=CL04|56=LVBSG|34=230|52=20150609-13:44:01|50=FCST|115=FCHB|57=QXP018914|1=QXP018914|207=CN|6=2.9436|11=-7f58f389361bb938|14=2500|17=LVSXFIX2-387L00000L00000R|21=1|150=F|31=2.95|151=9000|32=100|100=CN|38=11500|39=1|37=-c3a4f62fe4bc31|583=-76abaff36eeb1c0|111=100|40=2|44=2.95|55=CNE|54=1|59=0|58=Replace from 11500.0 @ 2.94 To 11500.0 @ 2.95|63=4|60=20150609-13:44:01.159|453=1|448=XPUS|447=D|452=1|10=213|
20150609-13:44:01.171: 8=FIX.4.4|9=0408|35=8|49=CL04|56=LVBSG|34=231|52=20150609-13:44:01|50=FCST|115=FCHB|57=QXP018914|1=QXP018914|207=CN|6=2.943846|11=-7f58f389361bb938|14=2600|17=LVSXFIX2-387L00000L00000S|21=1|150=F|31=2.95|151=8900|32=100|100=CN|38=11500|39=1|37=-c3a4f62fe4bc31|583=-76abaff36eeb1c0|111=100|40=2|44=2.95|55=CNE|54=1|59=0|58=Replace from 11500.0 @ 2.94 To 11500.0 @ 2.95|63=4|60=20150609-13:44:01.166|453=1|448=XPUS|447=D|452=1|10=076|
20150609-13:44:01.175: 8=FIX.4.4|9=0408|35=8|49=CL04|56=LVBSG|34=232|52=20150609-13:44:01|50=FCST|115=FCHB|57=QXP018914|1=QXP018914|207=CN|6=2.944074|11=-7f58f389361bb938|14=2700|17=LVSXFIX2-387L00000L00000T|21=1|150=F|31=2.95|151=8800|32=100|100=CN|38=11500|39=1|37=-c3a4f62fe4bc31|583=-76abaff36eeb1c0|111=100|40=2|44=2.95|55=CNE|54=1|59=0|58=Replace from 11500.0 @ 2.94 To 11500.0 @ 2.95|63=4|60=20150609-13:44:01.170|453=1|448=XPUS|447=D|452=1|10=067|
20150609-13:44:01.181: 8=FIX.4.4|9=0408|35=8|49=CL04|56=LVBSG|34=233|52=20150609-13:44:01|50=FCST|115=FCHB|57=QXP018914|1=QXP018914|207=CN|6=2.944286|11=-7f58f389361bb938|14=2800|17=LVSXFIX2-387L00000L00000U|21=1|150=F|31=2.95|151=8700|32=100|100=CN|38=11500|39=1|37=-c3a4f62fe4bc31|583=-76abaff36eeb1c0|111=100|40=2|44=2.95|55=CNE|54=1|59=0|58=Replace from 11500.0 @ 2.94 To 11500.0 @ 2.95|63=4|60=20150609-13:44:01.175|453=1|448=XPUS|447=D|452=1|10=079|
20150609-13:44:01.203: 8=FIX.4.4|9=0408|35=8|49=CL04|56=LVBSG|34=234|52=20150609-13:44:01|50=FCST|115=FCHB|57=QXP018914|1=QXP018914|207=CN|6=2.944483|11=-7f58f389361bb938|14=2900|17=LVSXFIX2-387L00000L00000V|21=1|150=F|31=2.95|151=8600|32=100|100=CN|38=11500|39=1|37=-c3a4f62fe4bc31|583=-76abaff36eeb1c0|111=100|40=2|44=2.95|55=CNE|54=1|59=0|58=Replace from 11500.0 @ 2.94 To 11500.0 @ 2.95|63=4|60=20150609-13:44:01.185|453=1|448=XPUS|447=D|452=1|10=081|
20150609-13:44:01.207: 8=FIX.4.4|9=0408|35=8|49=CL04|56=LVBSG|34=235|52=20150609-13:44:01|50=FCST|115=FCHB|57=QXP018914|1=QXP018914|207=CN|6=2.944667|11=-7f58f389361bb938|14=3000|17=LVSXFIX2-387L00000L00000W|21=1|150=F|31=2.95|151=8500|32=100|100=CN|38=11500|39=1|37=-c3a4f62fe4bc31|583=-76abaff36eeb1c0|111=100|40=2|44=2.95|55=CNE|54=1|59=0|58=Replace from 11500.0 @ 2.94 To 11500.0 @ 2.95|63=4|60=20150609-13:44:01.191|453=1|448=XPUS|447=D|452=1|10=075|
20150609-13:44:01.211: 8=FIX.4.4|9=0408|35=8|49=CL04|56=LVBSG|34=236|52=20150609-13:44:01|50=FCST|115=FCHB|57=QXP018914|1=QXP018914|207=CN|6=2.944839|11=-7f58f389361bb938|14=3100|17=LVSXFIX2-387L00000L00000X|21=1|150=F|31=2.95|151=8400|32=100|100=CN|38=11500|39=1|37=-c3a4f62fe4bc31|583=-76abaff36eeb1c0|111=100|40=2|44=2.95|55=CNE|54=1|59=0|58=Replace from 11500.0 @ 2.94 To 11500.0 @ 2.95|63=4|60=20150609-13:44:01.205|453=1|448=XPUS|447=D|452=1|10=074|
20150609-13:44:01.213: 8=FIX.4.4|9=0405|35=8|49=CL04|56=LVBSG|34=237|52=20150609-13:44:01|50=FCST|115=FCHB|57=QXP018914|1=QXP018914|207=CN|6=2.945|11=-7f58f389361bb938|14=3200|17=LVSXFIX2-387L00000L00000Y|21=1|150=F|31=2.95|151=8300|32=100|100=CN|38=11500|39=1|37=-c3a4f62fe4bc31|583=-76abaff36eeb1c0|111=100|40=2|44=2.95|55=CNE|54=1|59=0|58=Replace from 11500.0 @ 2.94 To 11500.0 @ 2.95|63=4|60=20150609-13:44:01.206|453=1|448=XPUS|447=D|452=1|10=167|
20150609-13:44:01.218: 8=FIX.4.4|9=0408|35=8|49=CL04|56=LVBSG|34=238|52=20150609-13:44:01|50=FCST|115=FCHB|57=QXP018914|1=QXP018914|207=CN|6=2.945152|11=-7f58f389361bb938|14=3300|17=LVSXFIX2-387L00000L00000Z|21=1|150=F|31=2.95|151=8200|32=100|100=CN|38=11500|39=1|37=-c3a4f62fe4bc31|583=-76abaff36eeb1c0|111=100|40=2|44=2.95|55=CNE|54=1|59=0|58=Replace from 11500.0 @ 2.94 To 11500.0 @ 2.95|63=4|60=20150609-13:44:01.212|453=1|448=XPUS|447=D|452=1|10=065|
20150609-13:44:01.228: 8=FIX.4.4|9=0408|35=8|49=CL04|56=LVBSG|34=239|52=20150609-13:44:01|50=FCST|115=FCHB|57=QXP018914|1=QXP018914|207=CN|6=2.945294|11=-7f58f389361bb938|14=3400|17=LVSXFIX2-387L00000L000010|21=1|150=F|31=2.95|151=8100|32=100|100=CN|38=11500|39=1|37=-c3a4f62fe4bc31|583=-76abaff36eeb1c0|111=100|40=2|44=2.95|55=CNE|54=1|59=0|58=Replace from 11500.0 @ 2.94 To 11500.0 @ 2.95|63=4|60=20150609-13:44:01.220|453=1|448=XPUS|447=D|452=1|10=031|
20150609-13:44:01.237: 8=FIX.4.4|9=0408|35=8|49=CL04|56=LVBSG|34=240|52=20150609-13:44:01|50=FCST|115=FCHB|57=QXP018914|1=QXP018914|207=CN|6=2.945429|11=-7f58f389361bb938|14=3500|17=LVSXFIX2-387L00000L000011|21=1|150=F|31=2.95|151=8000|32=100|100=CN|38=11500|39=1|37=-c3a4f62fe4bc31|583=-76abaff36eeb1c0|111=100|40=2|44=2.95|55=CNE|54=1|59=0|58=Replace from 11500.0 @ 2.94 To 11500.0 @ 2.95|63=4|60=20150609-13:44:01.230|453=1|448=XPUS|447=D|452=1|10=025|
20150609-13:44:01.240: 8=FIX.4.4|9=0408|35=8|49=CL04|56=LVBSG|34=241|52=20150609-13:44:01|50=FCST|115=FCHB|57=QXP018914|1=QXP018914|207=CN|6=2.945556|11=-7f58f389361bb938|14=3600|17=LVSXFIX2-387L00000L000012|21=1|150=F|31=2.95|151=7900|32=100|100=CN|38=11500|39=1|37=-c3a4f62fe4bc31|583=-76abaff36eeb1c0|111=100|40=2|44=2.95|55=CNE|54=1|59=0|58=Replace from 11500.0 @ 2.94 To 11500.0 @ 2.95|63=4|60=20150609-13:44:01.234|453=1|448=XPUS|447=D|452=1|10=041|
20150609-13:44:49.845: 8=FIX.4.4|9=0408|35=8|49=CL04|56=LVBSG|34=242|52=20150609-13:44:49|50=FCST|115=FCHB|57=QXP018914|1=QXP018914|207=CN|6=2.945676|11=-7f58f389361bb938|14=3700|17=LVSXFIX2-387L00000L000013|21=1|150=F|31=2.95|151=7800|32=100|100=CN|38=11500|39=1|37=-c3a4f62fe4bc31|583=-76abaff36eeb1c0|111=100|40=2|44=2.95|55=CNE|54=1|59=0|58=Replace from 11500.0 @ 2.94 To 11500.0 @ 2.95|63=4|60=20150609-13:44:49.838|453=1|448=XPUS|447=D|452=1|10=080|
20150609-13:44:49.852: 8=FIX.4.4|9=0408|35=8|49=CL04|56=LVBSG|34=243|52=20150609-13:44:49|50=FCST|115=FCHB|57=QXP018914|1=QXP018914|207=CN|6=2.945789|11=-7f58f389361bb938|14=3800|17=LVSXFIX2-387L00000L000014|21=1|150=F|31=2.95|151=7700|32=100|100=CN|38=11500|39=1|37=-c3a4f62fe4bc31|583=-76abaff36eeb1c0|111=100|40=2|44=2.95|55=CNE|54=1|59=0|58=Replace from 11500.0 @ 2.94 To 11500.0 @ 2.95|63=4|60=20150609-13:44:49.846|453=1|448=XPUS|447=D|452=1|10=086|
20150609-13:44:49.870: 8=FIX.4.4|9=0408|35=8|49=CL04|56=LVBSG|34=244|52=20150609-13:44:49|50=FCST|115=FCHB|57=QXP018914|1=QXP018914|207=CN|6=2.945897|11=-7f58f389361bb938|14=3900|17=LVSXFIX2-387L00000L000015|21=1|150=F|31=2.95|151=7600|32=100|100=CN|38=11500|39=1|37=-c3a4f62fe4bc31|583=-76abaff36eeb1c0|111=100|40=2|44=2.95|55=CNE|54=1|59=0|58=Replace from 11500.0 @ 2.94 To 11500.0 @ 2.95|63=4|60=20150609-13:44:49.865|453=1|448=XPUS|447=D|452=1|10=089|
20150609-13:44:49.911: 8=FIX.4.4|9=0405|35=8|49=CL04|56=LVBSG|34=245|52=20150609-13:44:49|50=FCST|115=FCHB|57=QXP018914|1=QXP018914|207=CN|6=2.946|11=-7f58f389361bb938|14=4000|17=LVSXFIX2-387L00000L000016|21=1|150=F|31=2.95|151=7500|32=100|100=CN|38=11500|39=1|37=-c3a4f62fe4bc31|583=-76abaff36eeb1c0|111=100|40=2|44=2.95|55=CNE|54=1|59=0|58=Replace from 11500.0 @ 2.94 To 11500.0 @ 2.95|63=4|60=20150609-13:44:49.905|453=1|448=XPUS|447=D|452=1|10=163|
20150609-13:44:49.919: 8=FIX.4.4|9=0408|35=8|49=CL04|56=LVBSG|34=246|52=20150609-13:44:49|50=FCST|115=FCHB|57=QXP018914|1=QXP018914|207=CN|6=2.946098|11=-7f58f389361bb938|14=4100|17=LVSXFIX2-387L00000L000017|21=1|150=F|31=2.95|151=7400|32=100|100=CN|38=11500|39=1|37=-c3a4f62fe4bc31|583=-76abaff36eeb1c0|111=100|40=2|44=2.95|55=CNE|54=1|59=0|58=Replace from 11500.0 @ 2.94 To 11500.0 @ 2.95|63=4|60=20150609-13:44:49.911|453=1|448=XPUS|447=D|452=1|10=070|
20150609-13:44:49.934: 8=FIX.4.4|9=0407|35=8|49=CL04|56=LVBSG|34=247|52=20150609-13:44:49|50=FCST|115=FCHB|57=QXP018914|1=QXP018914|207=CN|6=2.94619|11=-7f58f389361bb938|14=4200|17=LVSXFIX2-387L00000L000018|21=1|150=F|31=2.95|151=7300|32=100|100=CN|38=11500|39=1|37=-c3a4f62fe4bc31|583=-76abaff36eeb1c0|111=100|40=2|44=2.95|55=CNE|54=1|59=0|58=Replace from 11500.0 @ 2.94 To 11500.0 @ 2.95|63=4|60=20150609-13:44:49.920|453=1|448=XPUS|447=D|452=1|10=016|
20150609-13:44:49.940: 8=FIX.4.4|9=0408|35=8|49=CL04|56=LVBSG|34=248|52=20150609-13:44:49|50=FCST|115=FCHB|57=QXP018914|1=QXP018914|207=CN|6=2.946279|11=-7f58f389361bb938|14=4300|17=LVSXFIX2-387L00000L000019|21=1|150=F|31=2.95|151=7200|32=100|100=CN|38=11500|39=1|37=-c3a4f62fe4bc31|583=-76abaff36eeb1c0|111=100|40=2|44=2.95|55=CNE|54=1|59=0|58=Replace from 11500.0 @ 2.94 To 11500.0 @ 2.95|63=4|60=20150609-13:44:49.925|453=1|448=XPUS|447=D|452=1|10=080|
20150609-13:44:49.942: 8=FIX.4.4|9=0408|35=8|49=CL04|56=LVBSG|34=249|52=20150609-13:44:49|50=FCST|115=FCHB|57=QXP018914|1=QXP018914|207=CN|6=2.946364|11=-7f58f389361bb938|14=4400|17=LVSXFIX2-387L00000L00001A|21=1|150=F|31=2.95|151=7100|32=100|100=CN|38=11500|39=1|37=-c3a4f62fe4bc31|583=-76abaff36eeb1c0|111=100|40=2|44=2.95|55=CNE|54=1|59=0|58=Replace from 11500.0 @ 2.94 To 11500.0 @ 2.95|63=4|60=20150609-13:44:49.931|453=1|448=XPUS|447=D|452=1|10=081|
20150609-13:44:49.943: 8=FIX.4.4|9=0408|35=8|49=CL04|56=LVBSG|34=250|52=20150609-13:44:49|50=FCST|115=FCHB|57=QXP018914|1=QXP018914|207=CN|6=2.946444|11=-7f58f389361bb938|14=4500|17=LVSXFIX2-387L00000L00001B|21=1|150=F|31=2.95|151=7000|32=100|100=CN|38=11500|39=1|37=-c3a4f62fe4bc31|583=-76abaff36eeb1c0|111=100|40=2|44=2.95|55=CNE|54=1|59=0|58=Replace from 11500.0 @ 2.94 To 11500.0 @ 2.95|63=4|60=20150609-13:44:49.936|453=1|448=XPUS|447=D|452=1|10=078|
20150609-13:44:49.949: 8=FIX.4.4|9=0408|35=8|49=CL04|56=LVBSG|34=251|52=20150609-13:44:49|50=FCST|115=FCHB|57=QXP018914|1=QXP018914|207=CN|6=2.946522|11=-7f58f389361bb938|14=4600|17=LVSXFIX2-387L00000L00001C|21=1|150=F|31=2.95|151=6900|32=100|100=CN|38=11500|39=1|37=-c3a4f62fe4bc31|583=-76abaff36eeb1c0|111=100|40=2|44=2.95|55=CNE|54=1|59=0|58=Replace from 11500.0 @ 2.94 To 11500.0 @ 2.95|63=4|60=20150609-13:44:49.943|453=1|448=XPUS|447=D|452=1|10=084|
20150609-13:45:00.601: 8=FIX.4.4|9=54|35=0|34=153|49=LVBSG|52=20150609-13:45:00.600|56=CL04|10=168|
20150609-13:45:49.948: 8=FIX.4.4|9=0050|35=0|49=CL04|56=LVBSG|34=252|52=20150609-13:45:49|10=077|
20150609-13:46:00.600: 8=FIX.4.4|9=54|35=0|34=154|49=LVBSG|52=20150609-13:46:00.600|56=CL04|10=170|
20150609-13:46:01.913: 8=FIX.4.4|9=259|35=D|34=155|49=LVBSG|50=QXP018914|52=20150609-13:46:01.913|56=CL04|57=FCST|128=FCHB|1=QXP018914|11=-1cb03bd7a052bd65|21=1|38=300|40=2|44=5.53|54=1|55=PRE|59=0|60=20150609-13:46:01.913|63=4|100=CN|111=100|207=CN|583=6a48341c323a4fcc|453=1|448=XPUS|447=D|452=1|10=140|
20150609-13:46:01.932: 8=FIX.4.4|9=0361|35=8|49=CL04|56=LVBSG|34=253|52=20150609-13:46:01|50=FCST|115=FCHB|57=QXP018914|1=QXP018914|207=CN|6=0|11=-1cb03bd7a052bd65|14=0|17=11962c53101944b0|21=1|150=A|31=0|151=300|32=0|100=CN|38=300|39=A|37=3ebafa081f59483f|583=6a48341c323a4fcc|111=100|40=2|44=5.53|55=PRE|54=1|59=0|58=New Buy PRE 300.0 @ 5.53|63=4|60=20150609-13:46:01.923|453=1|448=XPUS|447=D|452=1|10=092|
20150609-13:46:03.050: 8=FIX.4.4|9=0370|35=8|49=CL04|56=LVBSG|34=254|52=20150609-13:46:03|50=FCST|115=FCHB|57=QXP018914|1=QXP018914|207=CN|6=0|11=-1cb03bd7a052bd65|14=0|17=LVSXFIX2-387L00000R000002|21=1|150=0|31=0|151=300|32=0|100=CN|38=300|39=0|37=3ebafa081f59483f|583=6a48341c323a4fcc|111=100|40=2|44=5.53|55=PRE|54=1|59=0|58=New Buy PRE 300.0 @ 5.53|63=4|60=20150609-13:46:03.032|453=1|448=XPUS|447=D|452=1|10=136|
20150609-13:46:03.086: 8=FIX.4.4|9=0378|35=8|49=CL04|56=LVBSG|34=255|52=20150609-13:46:03|50=FCST|115=FCHB|57=QXP018914|1=QXP018914|207=CN|6=5.53|11=-1cb03bd7a052bd65|14=300|17=LVSXFIX2-387L00000R000003|21=1|150=F|31=5.53|151=0|32=300|100=CN|38=300|39=2|37=3ebafa081f59483f|583=6a48341c323a4fcc|111=100|40=2|44=5.53|55=PRE|54=1|59=0|58=New Buy PRE 300.0 @ 5.53|63=4|60=20150609-13:46:03.071|453=1|448=XPUS|447=D|452=1|10=070|
20150609-13:47:02.601: 8=FIX.4.4|9=54|35=0|34=156|49=LVBSG|52=20150609-13:47:02.601|56=CL04|10=176|
20150609-13:47:03.087: 8=FIX.4.4|9=0050|35=0|49=CL04|56=LVBSG|34=256|52=20150609-13:47:03|10=073|
20150609-13:48:03.087: 8=FIX.4.4|9=0050|35=0|49=CL04|56=LVBSG|34=257|52=20150609-13:48:03|10=075|
20150609-13:48:03.087: 8=FIX.4.4|9=54|35=0|34=157|49=LVBSG|52=20150609-13:48:03.087|56=CL04|10=187|
20150609-13:48:04.335: 8=FIX.4.4|9=281|35=G|34=158|49=LVBSG|50=QXP018914|52=20150609-13:48:04.335|56=CL04|57=FCST|128=FCHB|1=QXP018914|11=79786e7198b140d8|21=1|38=11500|40=2|41=-7f58f389361bb938|44=2.96|54=1|55=CNE|59=0|60=20150609-13:48:04.335|63=4|100=CN|111=100|207=CN|583=-76abaff36eeb1c0|453=1|448=XPUS|447=D|452=1|10=150|
20150609-13:48:04.345: 8=FIX.4.4|9=0414|35=8|49=CL04|56=LVBSG|34=258|52=20150609-13:48:04|50=FCST|115=FCHB|57=QXP018914|1=QXP018914|207=CN|6=2.946522|11=79786e7198b140d8|14=4600|17=1ddcfda1bb1f48fd|21=1|150=E|31=0|151=6900|32=0|100=CN|38=11500|39=E|37=-c3a4f62fe4bc31|583=-76abaff36eeb1c0|111=100|40=2|41=-7f58f389361bb938|44=2.96|55=CNE|54=1|59=0|58=Replace from 11500.0 @ 2.95 To 11500.0 @ 2.96|63=4|60=20150609-13:48:04.340|453=1|448=XPUS|447=D|452=1|10=061|
20150609-13:48:04.877: 8=FIX.4.4|9=0403|35=8|49=CL04|56=LVBSG|34=259|52=20150609-13:48:04|50=FCST|115=FCHB|57=QXP018914|1=QXP018914|207=CN|6=2.946522|11=-7f58f389361bb938|14=4600|17=LVSXFIX2-387L00000L00001E|21=1|150=5|31=0|151=6900|32=0|100=CN|38=11500|39=1|37=-c3a4f62fe4bc31|583=-76abaff36eeb1c0|111=100|40=2|44=2.96|55=CNE|54=1|59=0|58=Replace from 11500.0 @ 2.95 To 11500.0 @ 2.96|63=4|60=20150609-13:48:04.871|453=1|448=XPUS|447=D|452=1|10=066|
20150609-13:48:44.580: 8=FIX.4.4|9=281|35=G|34=159|49=LVBSG|50=QXP018914|52=20150609-13:48:44.580|56=CL04|57=FCST|128=FCHB|1=QXP018914|11=23a4b26228a54e3f|21=1|38=11500|40=2|41=-7f58f389361bb938|44=2.97|54=1|55=CNE|59=0|60=20150609-13:48:44.580|63=4|100=CN|111=100|207=CN|583=-76abaff36eeb1c0|453=1|448=XPUS|447=D|452=1|10=230|
20150609-13:48:44.598: 8=FIX.4.4|9=0414|35=8|49=CL04|56=LVBSG|34=260|52=20150609-13:48:44|50=FCST|115=FCHB|57=QXP018914|1=QXP018914|207=CN|6=2.946522|11=23a4b26228a54e3f|14=4600|17=5bf197124fc8440e|21=1|150=E|31=0|151=6900|32=0|100=CN|38=11500|39=E|37=-c3a4f62fe4bc31|583=-76abaff36eeb1c0|111=100|40=2|41=-7f58f389361bb938|44=2.97|55=CNE|54=1|59=0|58=Replace from 11500.0 @ 2.96 To 11500.0 @ 2.97|63=4|60=20150609-13:48:44.590|453=1|448=XPUS|447=D|452=1|10=116|
20150609-13:48:44.966: 8=FIX.4.4|9=0403|35=8|49=CL04|56=LVBSG|34=261|52=20150609-13:48:44|50=FCST|115=FCHB|57=QXP018914|1=QXP018914|207=CN|6=2.946522|11=-7f58f389361bb938|14=4600|17=LVSXFIX2-387L00000L00001G|21=1|150=5|31=0|151=6900|32=0|100=CN|38=11500|39=1|37=-c3a4f62fe4bc31|583=-76abaff36eeb1c0|111=100|40=2|44=2.97|55=CNE|54=1|59=0|58=Replace from 11500.0 @ 2.96 To 11500.0 @ 2.97|63=4|60=20150609-13:48:44.960|453=1|448=XPUS|447=D|452=1|10=071|
20150609-13:49:44.600: 8=FIX.4.4|9=54|35=0|34=160|49=LVBSG|52=20150609-13:49:44.600|56=CL04|10=178|
20150609-13:49:44.967: 8=FIX.4.4|9=0050|35=0|49=CL04|56=LVBSG|34=262|52=20150609-13:49:44|10=077|
20150609-13:50:44.601: 8=FIX.4.4|9=54|35=0|34=161|49=LVBSG|52=20150609-13:50:44.601|56=CL04|10=172|
20150609-13:50:44.967: 8=FIX.4.4|9=0050|35=0|49=CL04|56=LVBSG|34=263|52=20150609-13:50:44|10=070|
20150609-13:51:44.967: 8=FIX.4.4|9=0050|35=0|49=CL04|56=LVBSG|34=264|52=20150609-13:51:44|10=072|
20150609-13:51:44.968: 8=FIX.4.4|9=54|35=0|34=162|49=LVBSG|52=20150609-13:51:44.968|56=CL04|10=190|
20150609-13:52:44.559: 8=FIX.4.4|9=0408|35=8|49=CL04|56=LVBSG|34=265|52=20150609-13:52:44|50=FCST|115=FCHB|57=QXP018914|1=QXP018914|207=CN|6=2.950364|11=-7f58f389361bb938|14=5500|17=LVSXFIX2-387L00000L00001H|21=1|150=F|31=2.97|151=6000|32=900|100=CN|38=11500|39=1|37=-c3a4f62fe4bc31|583=-76abaff36eeb1c0|111=100|40=2|44=2.97|55=CNE|54=1|59=0|58=Replace from 11500.0 @ 2.96 To 11500.0 @ 2.97|63=4|60=20150609-13:52:44.552|453=1|448=XPUS|447=D|452=1|10=084|
20150609-13:52:44.579: 8=FIX.4.4|9=0408|35=8|49=CL04|56=LVBSG|34=266|52=20150609-13:52:44|50=FCST|115=FCHB|57=QXP018914|1=QXP018914|207=CN|6=2.950714|11=-7f58f389361bb938|14=5600|17=LVSXFIX2-387L00000L00001I|21=1|150=F|31=2.97|151=5900|32=100|100=CN|38=11500|39=1|37=-c3a4f62fe4bc31|583=-76abaff36eeb1c0|111=100|40=2|44=2.97|55=CNE|54=1|59=0|58=Replace from 11500.0 @ 2.96 To 11500.0 @ 2.97|63=4|60=20150609-13:52:44.574|453=1|448=XPUS|447=D|452=1|10=090|
20150609-13:52:44.588: 8=FIX.4.4|9=0408|35=8|49=CL04|56=LVBSG|34=267|52=20150609-13:52:44|50=FCST|115=FCHB|57=QXP018914|1=QXP018914|207=CN|6=2.951053|11=-7f58f389361bb938|14=5700|17=LVSXFIX2-387L00000L00001J|21=1|150=F|31=2.97|151=5800|32=100|100=CN|38=11500|39=1|37=-c3a4f62fe4bc31|583=-76abaff36eeb1c0|111=100|40=2|44=2.97|55=CNE|54=1|59=0|58=Replace from 11500.0 @ 2.96 To 11500.0 @ 2.97|63=4|60=20150609-13:52:44.581|453=1|448=XPUS|447=D|452=1|10=087|
20150609-13:52:44.594: 8=FIX.4.4|9=0408|35=8|49=CL04|56=LVBSG|34=268|52=20150609-13:52:44|50=FCST|115=FCHB|57=QXP018914|1=QXP018914|207=CN|6=2.951379|11=-7f58f389361bb938|14=5800|17=LVSXFIX2-387L00000L00001K|21=1|150=F|31=2.97|151=5700|32=100|100=CN|38=11500|39=1|37=-c3a4f62fe4bc31|583=-76abaff36eeb1c0|111=100|40=2|44=2.97|55=CNE|54=1|59=0|58=Replace from 11500.0 @ 2.96 To 11500.0 @ 2.97|63=4|60=20150609-13:52:44.589|453=1|448=XPUS|447=D|452=1|10=108|
20150609-13:52:44.796: 8=FIX.4.4|9=0408|35=8|49=CL04|56=LVBSG|34=269|52=20150609-13:52:44|50=FCST|115=FCHB|57=QXP018914|1=QXP018914|207=CN|6=2.951695|11=-7f58f389361bb938|14=5900|17=LVSXFIX2-387L00000L00001L|21=1|150=F|31=2.97|151=5600|32=100|100=CN|38=11500|39=1|37=-c3a4f62fe4bc31|583=-76abaff36eeb1c0|111=100|40=2|44=2.97|55=CNE|54=1|59=0|58=Replace from 11500.0 @ 2.96 To 11500.0 @ 2.97|63=4|60=20150609-13:52:44.791|453=1|448=XPUS|447=D|452=1|10=106|
20150609-13:52:45.269: 8=FIX.4.4|9=0408|35=8|49=CL04|56=LVBSG|34=270|52=20150609-13:52:45|50=FCST|115=FCHB|57=QXP018914|1=QXP018914|207=CN|6=2.952295|11=-7f58f389361bb938|14=6100|17=LVSXFIX2-387L00000L00001M|21=1|150=F|31=2.97|151=5400|32=200|100=CN|38=11500|39=1|37=-c3a4f62fe4bc31|583=-76abaff36eeb1c0|111=100|40=2|44=2.97|55=CNE|54=1|59=0|58=Replace from 11500.0 @ 2.96 To 11500.0 @ 2.97|63=4|60=20150609-13:52:45.263|453=1|448=XPUS|447=D|452=1|10=084|
20150609-13:52:45.270: 8=FIX.4.4|9=54|35=0|34=163|49=LVBSG|52=20150609-13:52:45.270|56=CL04|10=179|
20150609-13:52:52.016: 8=FIX.4.4|9=0408|35=8|49=CL04|56=LVBSG|34=271|52=20150609-13:52:52|50=FCST|115=FCHB|57=QXP018914|1=QXP018914|207=CN|6=2.952581|11=-7f58f389361bb938|14=6200|17=LVSXFIX2-387L00000L00001N|21=1|150=F|31=2.97|151=5300|32=100|100=CN|38=11500|39=1|37=-c3a4f62fe4bc31|583=-76abaff36eeb1c0|111=100|40=2|44=2.97|55=CNE|54=1|59=0|58=Replace from 11500.0 @ 2.96 To 11500.0 @ 2.97|63=4|60=20150609-13:52:52.011|453=1|448=XPUS|447=D|452=1|10=070|
20150609-13:53:45.601: 8=FIX.4.4|9=54|35=0|34=164|49=LVBSG|52=20150609-13:53:45.601|56=CL04|10=179|
20150609-13:53:51.520: 8=FIX.4.4|9=282|35=G|34=165|49=LVBSG|50=QXP018914|52=20150609-13:53:51.520|56=CL04|57=FCST|128=FCHB|1=QXP018914|11=-3f8ad8497d97b592|21=1|38=11500|40=2|41=-7f58f389361bb938|44=2.98|54=1|55=CNE|59=0|60=20150609-13:53:51.520|63=4|100=CN|111=100|207=CN|583=-76abaff36eeb1c0|453=1|448=XPUS|447=D|452=1|10=026|
20150609-13:53:51.542: 8=FIX.4.4|9=0415|35=8|49=CL04|56=LVBSG|34=272|52=20150609-13:53:51|50=FCST|115=FCHB|57=QXP018914|1=QXP018914|207=CN|6=2.952581|11=-3f8ad8497d97b592|14=6200|17=4415fbd2f0054601|21=1|150=E|31=0|151=5300|32=0|100=CN|38=11500|39=E|37=-c3a4f62fe4bc31|583=-76abaff36eeb1c0|111=100|40=2|41=-7f58f389361bb938|44=2.98|55=CNE|54=1|59=0|58=Replace from 11500.0 @ 2.97 To 11500.0 @ 2.98|63=4|60=20150609-13:53:51.527|453=1|448=XPUS|447=D|452=1|10=116|
20150609-13:53:51.904: 8=FIX.4.4|9=0403|35=8|49=CL04|56=LVBSG|34=273|52=20150609-13:53:51|50=FCST|115=FCHB|57=QXP018914|1=QXP018914|207=CN|6=2.952581|11=-7f58f389361bb938|14=6200|17=LVSXFIX2-387L00000L00001P|21=1|150=5|31=0|151=5300|32=0|100=CN|38=11500|39=1|37=-c3a4f62fe4bc31|583=-76abaff36eeb1c0|111=100|40=2|44=2.98|55=CNE|54=1|59=0|58=Replace from 11500.0 @ 2.97 To 11500.0 @ 2.98|63=4|60=20150609-13:53:51.899|453=1|448=XPUS|447=D|452=1|10=078|
20150609-13:54:03.583: 8=FIX.4.4|9=278|35=G|34=166|49=LVBSG|50=QXP018914|52=20150609-13:54:03.582|56=CL04|57=FCST|128=FCHB|1=QXP018914|11=5cf97a9a5f644331|21=1|38=11500|40=2|41=-7f58f389361bb938|44=3|54=1|55=CNE|59=0|60=20150609-13:54:03.582|63=4|100=CN|111=100|207=CN|583=-76abaff36eeb1c0|453=1|448=XPUS|447=D|452=1|10=082|
20150609-13:54:03.597: 8=FIX.4.4|9=0410|35=8|49=CL04|56=LVBSG|34=274|52=20150609-13:54:03|50=FCST|115=FCHB|57=QXP018914|1=QXP018914|207=CN|6=2.952581|11=5cf97a9a5f644331|14=6200|17=7d2d2d56bbe545b7|21=1|150=E|31=0|151=5300|32=0|100=CN|38=11500|39=E|37=-c3a4f62fe4bc31|583=-76abaff36eeb1c0|111=100|40=2|41=-7f58f389361bb938|44=3|55=CNE|54=1|59=0|58=Replace from 11500.0 @ 2.98 To 11500.0 @ 3.0|63=4|60=20150609-13:54:03.591|453=1|448=XPUS|447=D|452=1|10=245|
20150609-13:54:03.822: 8=FIX.4.4|9=256|35=D|34=167|49=LVBSG|50=QXP018914|52=20150609-13:54:03.822|56=CL04|57=FCST|128=FCHB|1=QXP018914|11=5099d4904cb944cf|21=1|38=3000|40=2|44=3|54=2|55=CNE|59=0|60=20150609-13:54:03.821|63=4|100=CN|111=100|207=CN|583=-76abaff36eeb1c0|453=1|448=XPUS|447=D|452=1|10=046|
20150609-13:54:03.831: 8=FIX.4.4|9=0362|35=8|49=CL04|56=LVBSG|34=275|52=20150609-13:54:03|50=FCST|115=FCHB|57=QXP018914|1=QXP018914|207=CN|6=0|11=5099d4904cb944cf|14=0|17=-7bc3851682d3b13f|21=1|150=A|31=0|151=3000|32=0|100=CN|38=3000|39=A|37=-375e6d8a7bf9b499|583=-76abaff36eeb1c0|111=100|40=2|44=3|55=CNE|54=2|59=0|58=New Sell CNE 3000.0 @ 3.0|63=4|60=20150609-13:54:03.827|453=1|448=XPUS|447=D|452=1|10=088|
20150609-13:54:03.975: 8=FIX.4.4|9=0399|35=8|49=CL04|56=LVBSG|34=276|52=20150609-13:54:03|50=FCST|115=FCHB|57=QXP018914|1=QXP018914|207=CN|6=2.952581|11=-7f58f389361bb938|14=6200|17=LVSXFIX2-387L00000L00001R|21=1|150=5|31=0|151=5300|32=0|100=CN|38=11500|39=1|37=-c3a4f62fe4bc31|583=-76abaff36eeb1c0|111=100|40=2|44=3|55=CNE|54=1|59=0|58=Replace from 11500.0 @ 2.98 To 11500.0 @ 3.0|63=4|60=20150609-13:54:03.969|453=1|448=XPUS|447=D|452=1|10=126|
20150609-13:54:04.328: 8=FIX.4.4|9=0401|35=8|49=CL04|56=LVBSG|34=277|52=20150609-13:54:04|50=FCST|115=FCHB|57=QXP018914|1=QXP018914|207=CN|6=2.953333|11=-7f58f389361bb938|14=6300|17=LVSXFIX2-387L00000L00001S|21=1|150=F|31=3|151=5200|32=100|100=CN|38=11500|39=1|37=-c3a4f62fe4bc31|583=-76abaff36eeb1c0|111=100|40=2|44=3|55=CNE|54=1|59=0|58=Replace from 11500.0 @ 2.98 To 11500.0 @ 3.0|63=4|60=20150609-13:54:04.321|453=1|448=XPUS|447=D|452=1|10=209|
20150609-13:54:04.402: 8=FIX.4.4|9=0370|35=8|49=CL04|56=LVBSG|34=278|52=20150609-13:54:04|50=FCST|115=FCHB|57=QXP018914|1=QXP018914|207=CN|6=0|11=5099d4904cb944cf|14=0|17=LVSXFIX2-387L00000U000002|21=1|150=0|31=0|151=3000|32=0|100=CN|38=3000|39=0|37=-375e6d8a7bf9b499|583=-76abaff36eeb1c0|111=100|40=2|44=3|55=CNE|54=2|59=0|58=New Sell CNE 3000.0 @ 3.0|63=4|60=20150609-13:54:04.396|453=1|448=XPUS|447=D|452=1|10=198|
20150609-13:54:04.411: 8=FIX.4.4|9=0374|35=8|49=CL04|56=LVBSG|34=279|52=20150609-13:54:04|50=FCST|115=FCHB|57=QXP018914|1=QXP018914|207=CN|6=3|11=5099d4904cb944cf|14=100|17=LVSXFIX2-387L00000U000003|21=1|150=F|31=3|151=2900|32=100|100=CN|38=3000|39=1|37=-375e6d8a7bf9b499|583=-76abaff36eeb1c0|111=100|40=2|44=3|55=CNE|54=2|59=0|58=New Sell CNE 3000.0 @ 3.0|63=4|60=20150609-13:54:04.406|453=1|448=XPUS|447=D|452=1|10=171|
20150609-13:54:04.428: 8=FIX.4.4|9=0374|35=8|49=CL04|56=LVBSG|34=280|52=20150609-13:54:04|50=FCST|115=FCHB|57=QXP018914|1=QXP018914|207=CN|6=3|11=5099d4904cb944cf|14=300|17=LVSXFIX2-387L00000U000004|21=1|150=F|31=3|151=2700|32=200|100=CN|38=3000|39=1|37=-375e6d8a7bf9b499|583=-76abaff36eeb1c0|111=100|40=2|44=3|55=CNE|54=2|59=0|58=New Sell CNE 3000.0 @ 3.0|63=4|60=20150609-13:54:04.423|453=1|448=XPUS|447=D|452=1|10=164|
20150609-13:54:04.433: 8=FIX.4.4|9=0374|35=8|49=CL04|56=LVBSG|34=281|52=20150609-13:54:04|50=FCST|115=FCHB|57=QXP018914|1=QXP018914|207=CN|6=3|11=5099d4904cb944cf|14=400|17=LVSXFIX2-387L00000U000005|21=1|150=F|31=3|151=2600|32=100|100=CN|38=3000|39=1|37=-375e6d8a7bf9b499|583=-76abaff36eeb1c0|111=100|40=2|44=3|55=CNE|54=2|59=0|58=New Sell CNE 3000.0 @ 3.0|63=4|60=20150609-13:54:04.428|453=1|448=XPUS|447=D|452=1|10=170|
20150609-13:54:04.449: 8=FIX.4.4|9=0374|35=8|49=CL04|56=LVBSG|34=282|52=20150609-13:54:04|50=FCST|115=FCHB|57=QXP018914|1=QXP018914|207=CN|6=3|11=5099d4904cb944cf|14=500|17=LVSXFIX2-387L00000U000006|21=1|150=F|31=3|151=2500|32=100|100=CN|38=3000|39=1|37=-375e6d8a7bf9b499|583=-76abaff36eeb1c0|111=100|40=2|44=3|55=CNE|54=2|59=0|58=New Sell CNE 3000.0 @ 3.0|63=4|60=20150609-13:54:04.444|453=1|448=XPUS|447=D|452=1|10=170|
20150609-13:54:04.455: 8=FIX.4.4|9=0374|35=8|49=CL04|56=LVBSG|34=283|52=20150609-13:54:04|50=FCST|115=FCHB|57=QXP018914|1=QXP018914|207=CN|6=3|11=5099d4904cb944cf|14=800|17=LVSXFIX2-387L00000U000007|21=1|150=F|31=3|151=2200|32=300|100=CN|38=3000|39=1|37=-375e6d8a7bf9b499|583=-76abaff36eeb1c0|111=100|40=2|44=3|55=CNE|54=2|59=0|58=New Sell CNE 3000.0 @ 3.0|63=4|60=20150609-13:54:04.450|453=1|448=XPUS|447=D|452=1|10=171|
20150609-13:54:04.461: 8=FIX.4.4|9=0375|35=8|49=CL04|56=LVBSG|34=284|52=20150609-13:54:04|50=FCST|115=FCHB|57=QXP018914|1=QXP018914|207=CN|6=3|11=5099d4904cb944cf|14=1100|17=LVSXFIX2-387L00000U000008|21=1|150=F|31=3|151=1900|32=300|100=CN|38=3000|39=1|37=-375e6d8a7bf9b499|583=-76abaff36eeb1c0|111=100|40=2|44=3|55=CNE|54=2|59=0|58=New Sell CNE 3000.0 @ 3.0|63=4|60=20150609-13:54:04.456|453=1|448=XPUS|447=D|452=1|10=228|
20150609-13:54:04.491: 8=FIX.4.4|9=0375|35=8|49=CL04|56=LVBSG|34=285|52=20150609-13:54:04|50=FCST|115=FCHB|57=QXP018914|1=QXP018914|207=CN|6=3|11=5099d4904cb944cf|14=1200|17=LVSXFIX2-387L00000U000009|21=1|150=F|31=3|151=1800|32=100|100=CN|38=3000|39=1|37=-375e6d8a7bf9b499|583=-76abaff36eeb1c0|111=100|40=2|44=3|55=CNE|54=2|59=0|58=New Sell CNE 3000.0 @ 3.0|63=4|60=20150609-13:54:04.479|453=1|448=XPUS|447=D|452=1|10=233|
20150609-13:54:04.496: 8=FIX.4.4|9=0375|35=8|49=CL04|56=LVBSG|34=286|52=20150609-13:54:04|50=FCST|115=FCHB|57=QXP018914|1=QXP018914|207=CN|6=3|11=5099d4904cb944cf|14=1500|17=LVSXFIX2-387L00000U00000A|21=1|150=F|31=3|151=1500|32=300|100=CN|38=3000|39=1|37=-375e6d8a7bf9b499|583=-76abaff36eeb1c0|111=100|40=2|44=3|55=CNE|54=2|59=0|58=New Sell CNE 3000.0 @ 3.0|63=4|60=20150609-13:54:04.486|453=1|448=XPUS|447=D|452=1|10=242|
20150609-13:54:04.501: 8=FIX.4.4|9=0375|35=8|49=CL04|56=LVBSG|34=287|52=20150609-13:54:04|50=FCST|115=FCHB|57=QXP018914|1=QXP018914|207=CN|6=3|11=5099d4904cb944cf|14=1600|17=LVSXFIX2-387L00000U00000B|21=1|150=F|31=3|151=1400|32=100|100=CN|38=3000|39=1|37=-375e6d8a7bf9b499|583=-76abaff36eeb1c0|111=100|40=2|44=3|55=CNE|54=2|59=0|58=New Sell CNE 3000.0 @ 3.0|63=4|60=20150609-13:54:04.496|453=1|448=XPUS|447=D|452=1|10=243|
20150609-13:54:04.509: 8=FIX.4.4|9=0375|35=8|49=CL04|56=LVBSG|34=288|52=20150609-13:54:04|50=FCST|115=FCHB|57=QXP018914|1=QXP018914|207=CN|6=3|11=5099d4904cb944cf|14=1700|17=LVSXFIX2-387L00000U00000C|21=1|150=F|31=3|151=1300|32=100|100=CN|38=3000|39=1|37=-375e6d8a7bf9b499|583=-76abaff36eeb1c0|111=100|40=2|44=3|55=CNE|54=2|59=0|58=New Sell CNE 3000.0 @ 3.0|63=4|60=20150609-13:54:04.500|453=1|448=XPUS|447=D|452=1|10=231|
20150609-13:54:04.517: 8=FIX.4.4|9=0375|35=8|49=CL04|56=LVBSG|34=289|52=20150609-13:54:04|50=FCST|115=FCHB|57=QXP018914|1=QXP018914|207=CN|6=3|11=5099d4904cb944cf|14=1800|17=LVSXFIX2-387L00000U00000D|21=1|150=F|31=3|151=1200|32=100|100=CN|38=3000|39=1|37=-375e6d8a7bf9b499|583=-76abaff36eeb1c0|111=100|40=2|44=3|55=CNE|54=2|59=0|58=New Sell CNE 3000.0 @ 3.0|63=4|60=20150609-13:54:04.511|453=1|448=XPUS|447=D|452=1|10=235|
20150609-13:54:04.532: 8=FIX.4.4|9=0374|35=8|49=CL04|56=LVBSG|34=290|52=20150609-13:54:04|50=FCST|115=FCHB|57=QXP018914|1=QXP018914|207=CN|6=3|11=5099d4904cb944cf|14=2100|17=LVSXFIX2-387L00000U00000E|21=1|150=F|31=3|151=900|32=300|100=CN|38=3000|39=1|37=-375e6d8a7bf9b499|583=-76abaff36eeb1c0|111=100|40=2|44=3|55=CNE|54=2|59=0|58=New Sell CNE 3000.0 @ 3.0|63=4|60=20150609-13:54:04.526|453=1|448=XPUS|447=D|452=1|10=187|
20150609-13:54:04.536: 8=FIX.4.4|9=0374|35=8|49=CL04|56=LVBSG|34=291|52=20150609-13:54:04|50=FCST|115=FCHB|57=QXP018914|1=QXP018914|207=CN|6=3|11=5099d4904cb944cf|14=2400|17=LVSXFIX2-387L00000U00000F|21=1|150=F|31=3|151=600|32=300|100=CN|38=3000|39=1|37=-375e6d8a7bf9b499|583=-76abaff36eeb1c0|111=100|40=2|44=3|55=CNE|54=2|59=0|58=New Sell CNE 3000.0 @ 3.0|63=4|60=20150609-13:54:04.531|453=1|448=XPUS|447=D|452=1|10=185|
20150609-13:54:04.549: 8=FIX.4.4|9=0374|35=8|49=CL04|56=LVBSG|34=292|52=20150609-13:54:04|50=FCST|115=FCHB|57=QXP018914|1=QXP018914|207=CN|6=3|11=5099d4904cb944cf|14=2800|17=LVSXFIX2-387L00000U00000G|21=1|150=F|31=3|151=200|32=400|100=CN|38=3000|39=1|37=-375e6d8a7bf9b499|583=-76abaff36eeb1c0|111=100|40=2|44=3|55=CNE|54=2|59=0|58=New Sell CNE 3000.0 @ 3.0|63=4|60=20150609-13:54:04.542|453=1|448=XPUS|447=D|452=1|10=190|
20150609-13:54:04.565: 8=FIX.4.4|9=0372|35=8|49=CL04|56=LVBSG|34=293|52=20150609-13:54:04|50=FCST|115=FCHB|57=QXP018914|1=QXP018914|207=CN|6=3|11=5099d4904cb944cf|14=3000|17=LVSXFIX2-387L00000U00000H|21=1|150=F|31=3|151=0|32=200|100=CN|38=3000|39=2|37=-375e6d8a7bf9b499|583=-76abaff36eeb1c0|111=100|40=2|44=3|55=CNE|54=2|59=0|58=New Sell CNE 3000.0 @ 3.0|63=4|60=20150609-13:54:04.560|453=1|448=XPUS|447=D|452=1|10=084|
20150609-13:54:44.302: 8=FIX.4.4|9=0401|35=8|49=CL04|56=LVBSG|34=294|52=20150609-13:54:44|50=FCST|115=FCHB|57=QXP018914|1=QXP018914|207=CN|6=2.954063|11=-7f58f389361bb938|14=6400|17=LVSXFIX2-387L00000L00001T|21=1|150=F|31=3|151=5100|32=100|100=CN|38=11500|39=1|37=-c3a4f62fe4bc31|583=-76abaff36eeb1c0|111=100|40=2|44=3|55=CNE|54=1|59=0|58=Replace from 11500.0 @ 2.98 To 11500.0 @ 3.0|63=4|60=20150609-13:54:44.294|453=1|448=XPUS|447=D|452=1|10=227|
20150609-13:54:44.318: 8=FIX.4.4|9=0401|35=8|49=CL04|56=LVBSG|34=295|52=20150609-13:54:44|50=FCST|115=FCHB|57=QXP018914|1=QXP018914|207=CN|6=2.954769|11=-7f58f389361bb938|14=6500|17=LVSXFIX2-387L00000L00001U|21=1|150=F|31=3|151=5000|32=100|100=CN|38=11500|39=1|37=-c3a4f62fe4bc31|583=-76abaff36eeb1c0|111=100|40=2|44=3|55=CNE|54=1|59=0|58=Replace from 11500.0 @ 2.98 To 11500.0 @ 3.0|63=4|60=20150609-13:54:44.304|453=1|448=XPUS|447=D|452=1|10=234|
20150609-13:54:44.325: 8=FIX.4.4|9=0401|35=8|49=CL04|56=LVBSG|34=296|52=20150609-13:54:44|50=FCST|115=FCHB|57=QXP018914|1=QXP018914|207=CN|6=2.955455|11=-7f58f389361bb938|14=6600|17=LVSXFIX2-387L00000L00001V|21=1|150=F|31=3|151=4900|32=100|100=CN|38=11500|39=1|37=-c3a4f62fe4bc31|583=-76abaff36eeb1c0|111=100|40=2|44=3|55=CNE|54=1|59=0|58=Replace from 11500.0 @ 2.98 To 11500.0 @ 3.0|63=4|60=20150609-13:54:44.320|453=1|448=XPUS|447=D|452=1|10=236|
20150609-13:54:44.328: 8=FIX.4.4|9=0401|35=8|49=CL04|56=LVBSG|34=297|52=20150609-13:54:44|50=FCST|115=FCHB|57=QXP018914|1=QXP018914|207=CN|6=2.956119|11=-7f58f389361bb938|14=6700|17=LVSXFIX2-387L00000L00001W|21=1|150=F|31=3|151=4800|32=100|100=CN|38=11500|39=1|37=-c3a4f62fe4bc31|583=-76abaff36eeb1c0|111=100|40=2|44=3|55=CNE|54=1|59=0|58=Replace from 11500.0 @ 2.98 To 11500.0 @ 3.0|63=4|60=20150609-13:54:44.323|453=1|448=XPUS|447=D|452=1|10=239|
