20150521-11:17:08.276: 8=FIX.4.4|9=52|35=5|34=1|49=LVBSG|52=20150521-11:17:08.265|56=CL04|10=072|
20150521-11:17:08.337: 8=FIX.4.4|9=0146|35=5|49=CL04|56=LVBSG|34=1|52=20150521-11:17:08|58=00100000004crxi_1891- CODE: 1-200-5: Expecting Logon but got Logout: disconnecting immediately|10=162|
20150521-11:17:09.258: 8=FIX.4.4|9=70|35=A|34=1|49=LVBSG|52=20150521-11:17:09.257|56=CL04|98=0|108=60|141=Y|10=159|
20150521-11:17:09.264: 8=FIX.4.4|9=0066|35=A|49=CL04|56=LVBSG|34=1|52=20150521-11:17:09|98=0|108=60|141=Y|10=056|
20150521-11:18:09.261: 8=FIX.4.4|9=0048|35=0|49=CL04|56=LVBSG|34=2|52=20150521-11:18:09|10=224|
20150521-11:18:09.262: 8=FIX.4.4|9=52|35=0|34=2|49=LVBSG|52=20150521-11:18:09.262|56=CL04|10=067|
20150521-11:19:09.261: 8=FIX.4.4|9=0048|35=0|49=CL04|56=LVBSG|34=3|52=20150521-11:19:09|10=226|
20150521-11:19:10.251: 8=FIX.4.4|9=52|35=0|34=3|49=LVBSG|52=20150521-11:19:10.251|56=CL04|10=059|
20150521-11:20:09.263: 8=FIX.4.4|9=0048|35=0|49=CL04|56=LVBSG|34=4|52=20150521-11:20:09|10=219|
20150521-11:20:11.251: 8=FIX.4.4|9=52|35=0|34=4|49=LVBSG|52=20150521-11:20:11.251|56=CL04|10=053|
20150521-11:21:09.262: 8=FIX.4.4|9=0048|35=0|49=CL04|56=LVBSG|34=5|52=20150521-11:21:09|10=221|
20150521-11:21:11.251: 8=FIX.4.4|9=52|35=0|34=5|49=LVBSG|52=20150521-11:21:11.251|56=CL04|10=055|
20150521-11:22:09.262: 8=FIX.4.4|9=0048|35=0|49=CL04|56=LVBSG|34=6|52=20150521-11:22:09|10=223|
20150521-11:22:11.251: 8=FIX.4.4|9=52|35=0|34=6|49=LVBSG|52=20150521-11:22:11.251|56=CL04|10=057|
20150521-11:23:09.263: 8=FIX.4.4|9=0048|35=0|49=CL04|56=LVBSG|34=7|52=20150521-11:23:09|10=225|
20150521-11:23:12.251: 8=FIX.4.4|9=52|35=0|34=7|49=LVBSG|52=20150521-11:23:12.251|56=CL04|10=060|
20150521-11:24:09.263: 8=FIX.4.4|9=0048|35=0|49=CL04|56=LVBSG|34=8|52=20150521-11:24:09|10=227|
20150521-11:24:12.251: 8=FIX.4.4|9=52|35=0|34=8|49=LVBSG|52=20150521-11:24:12.251|56=CL04|10=062|
20150521-11:25:09.264: 8=FIX.4.4|9=0048|35=0|49=CL04|56=LVBSG|34=9|52=20150521-11:25:09|10=229|
20150521-11:25:12.251: 8=FIX.4.4|9=52|35=0|34=9|49=LVBSG|52=20150521-11:25:12.251|56=CL04|10=064|
20150521-11:26:09.264: 8=FIX.4.4|9=0049|35=0|49=CL04|56=LVBSG|34=10|52=20150521-11:26:09|10=015|
20150521-11:26:12.251: 8=FIX.4.4|9=53|35=0|34=10|49=LVBSG|52=20150521-11:26:12.251|56=CL04|10=106|
20150521-11:27:09.264: 8=FIX.4.4|9=0049|35=0|49=CL04|56=LVBSG|34=11|52=20150521-11:27:09|10=017|
20150521-11:27:12.251: 8=FIX.4.4|9=53|35=0|34=11|49=LVBSG|52=20150521-11:27:12.251|56=CL04|10=108|
20150521-11:28:09.265: 8=FIX.4.4|9=0049|35=0|49=CL04|56=LVBSG|34=12|52=20150521-11:28:09|10=019|
20150521-11:28:12.251: 8=FIX.4.4|9=53|35=0|34=12|49=LVBSG|52=20150521-11:28:12.251|56=CL04|10=110|
20150521-11:29:09.266: 8=FIX.4.4|9=0049|35=0|49=CL04|56=LVBSG|34=13|52=20150521-11:29:09|10=021|
20150521-11:29:12.251: 8=FIX.4.4|9=53|35=0|34=13|49=LVBSG|52=20150521-11:29:12.251|56=CL04|10=112|
20150521-11:30:09.267: 8=FIX.4.4|9=0049|35=0|49=CL04|56=LVBSG|34=14|52=20150521-11:30:09|10=014|
20150521-11:30:12.251: 8=FIX.4.4|9=53|35=0|34=14|49=LVBSG|52=20150521-11:30:12.251|56=CL04|10=105|
20150521-11:31:09.267: 8=FIX.4.4|9=0049|35=0|49=CL04|56=LVBSG|34=15|52=20150521-11:31:09|10=016|
20150521-11:31:12.251: 8=FIX.4.4|9=53|35=0|34=15|49=LVBSG|52=20150521-11:31:12.251|56=CL04|10=107|
20150521-11:32:09.269: 8=FIX.4.4|9=0049|35=0|49=CL04|56=LVBSG|34=16|52=20150521-11:32:09|10=018|
20150521-11:32:12.251: 8=FIX.4.4|9=53|35=0|34=16|49=LVBSG|52=20150521-11:32:12.251|56=CL04|10=109|
20150521-11:33:09.268: 8=FIX.4.4|9=0049|35=0|49=CL04|56=LVBSG|34=17|52=20150521-11:33:09|10=020|
20150521-11:33:13.251: 8=FIX.4.4|9=53|35=0|34=17|49=LVBSG|52=20150521-11:33:13.251|56=CL04|10=112|
20150521-11:34:09.269: 8=FIX.4.4|9=0049|35=0|49=CL04|56=LVBSG|34=18|52=20150521-11:34:09|10=022|
20150521-11:34:13.251: 8=FIX.4.4|9=53|35=0|34=18|49=LVBSG|52=20150521-11:34:13.251|56=CL04|10=114|
20150521-11:35:09.274: 8=FIX.4.4|9=0049|35=0|49=CL04|56=LVBSG|34=19|52=20150521-11:35:09|10=024|
20150521-11:35:14.251: 8=FIX.4.4|9=53|35=0|34=19|49=LVBSG|52=20150521-11:35:14.251|56=CL04|10=117|
20150521-11:36:09.270: 8=FIX.4.4|9=0049|35=0|49=CL04|56=LVBSG|34=20|52=20150521-11:36:09|10=017|
20150521-11:36:14.251: 8=FIX.4.4|9=53|35=0|34=20|49=LVBSG|52=20150521-11:36:14.251|56=CL04|10=110|
20150521-11:37:09.271: 8=FIX.4.4|9=0049|35=0|49=CL04|56=LVBSG|34=21|52=20150521-11:37:09|10=019|
20150521-11:37:14.251: 8=FIX.4.4|9=53|35=0|34=21|49=LVBSG|52=20150521-11:37:14.251|56=CL04|10=112|
20150521-11:38:09.272: 8=FIX.4.4|9=0049|35=0|49=CL04|56=LVBSG|34=22|52=20150521-11:38:09|10=021|
20150521-11:38:15.251: 8=FIX.4.4|9=53|35=0|34=22|49=LVBSG|52=20150521-11:38:15.251|56=CL04|10=115|
20150521-11:39:09.273: 8=FIX.4.4|9=0049|35=0|49=CL04|56=LVBSG|34=23|52=20150521-11:39:09|10=023|
20150521-11:39:15.251: 8=FIX.4.4|9=53|35=0|34=23|49=LVBSG|52=20150521-11:39:15.251|56=CL04|10=117|
20150521-11:40:09.274: 8=FIX.4.4|9=0049|35=0|49=CL04|56=LVBSG|34=24|52=20150521-11:40:09|10=016|
20150521-11:40:15.251: 8=FIX.4.4|9=53|35=0|34=24|49=LVBSG|52=20150521-11:40:15.251|56=CL04|10=110|
20150521-11:41:09.274: 8=FIX.4.4|9=0049|35=0|49=CL04|56=LVBSG|34=25|52=20150521-11:41:09|10=018|
20150521-11:41:16.251: 8=FIX.4.4|9=53|35=0|34=25|49=LVBSG|52=20150521-11:41:16.251|56=CL04|10=113|
20150521-11:42:09.273: 8=FIX.4.4|9=0049|35=0|49=CL04|56=LVBSG|34=26|52=20150521-11:42:09|10=020|
20150521-11:42:16.251: 8=FIX.4.4|9=53|35=0|34=26|49=LVBSG|52=20150521-11:42:16.251|56=CL04|10=115|
20150521-11:43:09.273: 8=FIX.4.4|9=0049|35=0|49=CL04|56=LVBSG|34=27|52=20150521-11:43:09|10=022|
20150521-11:43:16.251: 8=FIX.4.4|9=53|35=0|34=27|49=LVBSG|52=20150521-11:43:16.251|56=CL04|10=117|
20150521-11:44:09.274: 8=FIX.4.4|9=0049|35=0|49=CL04|56=LVBSG|34=28|52=20150521-11:44:09|10=024|
20150521-11:44:16.251: 8=FIX.4.4|9=53|35=0|34=28|49=LVBSG|52=20150521-11:44:16.251|56=CL04|10=119|
20150521-11:45:09.274: 8=FIX.4.4|9=0049|35=0|49=CL04|56=LVBSG|34=29|52=20150521-11:45:09|10=026|
20150521-11:45:16.251: 8=FIX.4.4|9=53|35=0|34=29|49=LVBSG|52=20150521-11:45:16.251|56=CL04|10=121|
20150521-11:46:09.278: 8=FIX.4.4|9=0049|35=0|49=CL04|56=LVBSG|34=30|52=20150521-11:46:09|10=019|
20150521-11:46:16.251: 8=FIX.4.4|9=53|35=0|34=30|49=LVBSG|52=20150521-11:46:16.251|56=CL04|10=114|
20150521-11:47:09.276: 8=FIX.4.4|9=0049|35=0|49=CL04|56=LVBSG|34=31|52=20150521-11:47:09|10=021|
20150521-11:47:16.251: 8=FIX.4.4|9=53|35=0|34=31|49=LVBSG|52=20150521-11:47:16.251|56=CL04|10=116|
20150521-11:48:09.274: 8=FIX.4.4|9=0049|35=0|49=CL04|56=LVBSG|34=32|52=20150521-11:48:09|10=023|
20150521-11:48:16.251: 8=FIX.4.4|9=53|35=0|34=32|49=LVBSG|52=20150521-11:48:16.251|56=CL04|10=118|
20150521-11:49:09.274: 8=FIX.4.4|9=0049|35=0|49=CL04|56=LVBSG|34=33|52=20150521-11:49:09|10=025|
20150521-11:49:16.251: 8=FIX.4.4|9=53|35=0|34=33|49=LVBSG|52=20150521-11:49:16.251|56=CL04|10=120|
20150521-11:50:09.279: 8=FIX.4.4|9=0049|35=0|49=CL04|56=LVBSG|34=34|52=20150521-11:50:09|10=018|
20150521-11:50:17.251: 8=FIX.4.4|9=53|35=0|34=34|49=LVBSG|52=20150521-11:50:17.251|56=CL04|10=114|
20150521-11:51:09.276: 8=FIX.4.4|9=0049|35=0|49=CL04|56=LVBSG|34=35|52=20150521-11:51:09|10=020|
20150521-11:51:17.251: 8=FIX.4.4|9=53|35=0|34=35|49=LVBSG|52=20150521-11:51:17.251|56=CL04|10=116|
20150521-11:52:09.274: 8=FIX.4.4|9=0049|35=0|49=CL04|56=LVBSG|34=36|52=20150521-11:52:09|10=022|
20150521-11:52:18.251: 8=FIX.4.4|9=53|35=0|34=36|49=LVBSG|52=20150521-11:52:18.251|56=CL04|10=119|
20150521-11:53:09.279: 8=FIX.4.4|9=0049|35=0|49=CL04|56=LVBSG|34=37|52=20150521-11:53:09|10=024|
20150521-11:53:19.251: 8=FIX.4.4|9=53|35=0|34=37|49=LVBSG|52=20150521-11:53:19.251|56=CL04|10=122|
20150521-11:54:09.276: 8=FIX.4.4|9=0049|35=0|49=CL04|56=LVBSG|34=38|52=20150521-11:54:09|10=026|
20150521-11:54:20.251: 8=FIX.4.4|9=53|35=0|34=38|49=LVBSG|52=20150521-11:54:20.251|56=CL04|10=116|
20150521-11:55:09.276: 8=FIX.4.4|9=0049|35=0|49=CL04|56=LVBSG|34=39|52=20150521-11:55:09|10=028|
20150521-11:55:20.251: 8=FIX.4.4|9=53|35=0|34=39|49=LVBSG|52=20150521-11:55:20.251|56=CL04|10=118|
20150521-11:56:09.275: 8=FIX.4.4|9=0049|35=0|49=CL04|56=LVBSG|34=40|52=20150521-11:56:09|10=021|
20150521-11:56:20.251: 8=FIX.4.4|9=53|35=0|34=40|49=LVBSG|52=20150521-11:56:20.251|56=CL04|10=111|
20150521-11:57:09.279: 8=FIX.4.4|9=0049|35=0|49=CL04|56=LVBSG|34=41|52=20150521-11:57:09|10=023|
20150521-11:57:20.251: 8=FIX.4.4|9=53|35=0|34=41|49=LVBSG|52=20150521-11:57:20.251|56=CL04|10=113|
20150521-11:58:09.276: 8=FIX.4.4|9=0049|35=0|49=CL04|56=LVBSG|34=42|52=20150521-11:58:09|10=025|
20150521-11:58:20.251: 8=FIX.4.4|9=53|35=0|34=42|49=LVBSG|52=20150521-11:58:20.251|56=CL04|10=115|
20150521-11:59:09.275: 8=FIX.4.4|9=0049|35=0|49=CL04|56=LVBSG|34=43|52=20150521-11:59:09|10=027|
20150521-11:59:21.251: 8=FIX.4.4|9=53|35=0|34=43|49=LVBSG|52=20150521-11:59:21.251|56=CL04|10=118|
20150521-12:00:09.275: 8=FIX.4.4|9=0049|35=0|49=CL04|56=LVBSG|34=44|52=20150521-12:00:09|10=015|
20150521-12:00:21.251: 8=FIX.4.4|9=53|35=0|34=44|49=LVBSG|52=20150521-12:00:21.251|56=CL04|10=106|
20150521-12:01:09.277: 8=FIX.4.4|9=0049|35=0|49=CL04|56=LVBSG|34=45|52=20150521-12:01:09|10=017|
20150521-12:01:21.251: 8=FIX.4.4|9=53|35=0|34=45|49=LVBSG|52=20150521-12:01:21.251|56=CL04|10=108|
20150521-12:02:09.282: 8=FIX.4.4|9=0049|35=0|49=CL04|56=LVBSG|34=46|52=20150521-12:02:09|10=019|
20150521-12:02:21.251: 8=FIX.4.4|9=53|35=0|34=46|49=LVBSG|52=20150521-12:02:21.251|56=CL04|10=110|
20150521-12:03:09.294: 8=FIX.4.4|9=0049|35=0|49=CL04|56=LVBSG|34=47|52=20150521-12:03:09|10=021|
20150521-12:03:21.251: 8=FIX.4.4|9=53|35=0|34=47|49=LVBSG|52=20150521-12:03:21.251|56=CL04|10=112|
20150521-12:04:09.276: 8=FIX.4.4|9=0049|35=0|49=CL04|56=LVBSG|34=48|52=20150521-12:04:09|10=023|
20150521-12:04:21.251: 8=FIX.4.4|9=53|35=0|34=48|49=LVBSG|52=20150521-12:04:21.251|56=CL04|10=114|
20150521-12:05:09.277: 8=FIX.4.4|9=0049|35=0|49=CL04|56=LVBSG|34=49|52=20150521-12:05:09|10=025|
20150521-12:05:21.251: 8=FIX.4.4|9=53|35=0|34=49|49=LVBSG|52=20150521-12:05:21.251|56=CL04|10=116|
20150521-12:06:09.277: 8=FIX.4.4|9=0049|35=0|49=CL04|56=LVBSG|34=50|52=20150521-12:06:09|10=018|
20150521-12:06:21.251: 8=FIX.4.4|9=53|35=0|34=50|49=LVBSG|52=20150521-12:06:21.251|56=CL04|10=109|
20150521-12:07:09.278: 8=FIX.4.4|9=0049|35=0|49=CL04|56=LVBSG|34=51|52=20150521-12:07:09|10=020|
20150521-12:07:21.251: 8=FIX.4.4|9=53|35=0|34=51|49=LVBSG|52=20150521-12:07:21.251|56=CL04|10=111|
20150521-12:08:09.277: 8=FIX.4.4|9=0049|35=0|49=CL04|56=LVBSG|34=52|52=20150521-12:08:09|10=022|
20150521-12:08:21.251: 8=FIX.4.4|9=53|35=0|34=52|49=LVBSG|52=20150521-12:08:21.251|56=CL04|10=113|
20150521-12:09:09.278: 8=FIX.4.4|9=0049|35=0|49=CL04|56=LVBSG|34=53|52=20150521-12:09:09|10=024|
20150521-12:09:21.251: 8=FIX.4.4|9=53|35=0|34=53|49=LVBSG|52=20150521-12:09:21.251|56=CL04|10=115|
20150521-12:10:09.277: 8=FIX.4.4|9=0049|35=0|49=CL04|56=LVBSG|34=54|52=20150521-12:10:09|10=017|
20150521-12:10:21.251: 8=FIX.4.4|9=53|35=0|34=54|49=LVBSG|52=20150521-12:10:21.251|56=CL04|10=108|
20150521-12:11:09.281: 8=FIX.4.4|9=0049|35=0|49=CL04|56=LVBSG|34=55|52=20150521-12:11:09|10=019|
20150521-12:11:21.251: 8=FIX.4.4|9=53|35=0|34=55|49=LVBSG|52=20150521-12:11:21.251|56=CL04|10=110|
20150521-12:12:09.278: 8=FIX.4.4|9=0049|35=0|49=CL04|56=LVBSG|34=56|52=20150521-12:12:09|10=021|
20150521-12:12:21.251: 8=FIX.4.4|9=53|35=0|34=56|49=LVBSG|52=20150521-12:12:21.251|56=CL04|10=112|
20150521-12:13:09.277: 8=FIX.4.4|9=0049|35=0|49=CL04|56=LVBSG|34=57|52=20150521-12:13:09|10=023|
20150521-12:13:21.251: 8=FIX.4.4|9=53|35=0|34=57|49=LVBSG|52=20150521-12:13:21.251|56=CL04|10=114|
20150521-12:14:09.278: 8=FIX.4.4|9=0049|35=0|49=CL04|56=LVBSG|34=58|52=20150521-12:14:09|10=025|
20150521-12:14:21.251: 8=FIX.4.4|9=53|35=0|34=58|49=LVBSG|52=20150521-12:14:21.251|56=CL04|10=116|
20150521-12:15:09.277: 8=FIX.4.4|9=0049|35=0|49=CL04|56=LVBSG|34=59|52=20150521-12:15:09|10=027|
20150521-12:15:21.251: 8=FIX.4.4|9=53|35=0|34=59|49=LVBSG|52=20150521-12:15:21.251|56=CL04|10=118|
20150521-12:16:09.278: 8=FIX.4.4|9=0049|35=0|49=CL04|56=LVBSG|34=60|52=20150521-12:16:09|10=020|
20150521-12:16:21.251: 8=FIX.4.4|9=53|35=0|34=60|49=LVBSG|52=20150521-12:16:21.251|56=CL04|10=111|
20150521-12:17:09.279: 8=FIX.4.4|9=0049|35=0|49=CL04|56=LVBSG|34=61|52=20150521-12:17:09|10=022|
20150521-12:17:21.251: 8=FIX.4.4|9=53|35=0|34=61|49=LVBSG|52=20150521-12:17:21.251|56=CL04|10=113|
20150521-12:18:09.279: 8=FIX.4.4|9=0049|35=0|49=CL04|56=LVBSG|34=62|52=20150521-12:18:09|10=024|
20150521-12:18:21.251: 8=FIX.4.4|9=53|35=0|34=62|49=LVBSG|52=20150521-12:18:21.251|56=CL04|10=115|
20150521-12:19:09.279: 8=FIX.4.4|9=0049|35=0|49=CL04|56=LVBSG|34=63|52=20150521-12:19:09|10=026|
20150521-12:19:21.318: 8=FIX.4.4|9=53|35=0|34=63|49=LVBSG|52=20150521-12:19:21.318|56=CL04|10=121|
20150521-12:20:09.279: 8=FIX.4.4|9=0049|35=0|49=CL04|56=LVBSG|34=64|52=20150521-12:20:09|10=019|
20150521-12:20:22.251: 8=FIX.4.4|9=53|35=0|34=64|49=LVBSG|52=20150521-12:20:22.251|56=CL04|10=111|
20150521-12:21:09.280: 8=FIX.4.4|9=0049|35=0|49=CL04|56=LVBSG|34=65|52=20150521-12:21:09|10=021|
20150521-12:21:22.251: 8=FIX.4.4|9=53|35=0|34=65|49=LVBSG|52=20150521-12:21:22.251|56=CL04|10=113|
20150521-12:22:09.279: 8=FIX.4.4|9=0049|35=0|49=CL04|56=LVBSG|34=66|52=20150521-12:22:09|10=023|
20150521-12:22:22.251: 8=FIX.4.4|9=53|35=0|34=66|49=LVBSG|52=20150521-12:22:22.251|56=CL04|10=115|
20150521-12:23:09.279: 8=FIX.4.4|9=0049|35=0|49=CL04|56=LVBSG|34=67|52=20150521-12:23:09|10=025|
20150521-12:23:23.251: 8=FIX.4.4|9=53|35=0|34=67|49=LVBSG|52=20150521-12:23:23.251|56=CL04|10=118|
20150521-12:24:09.279: 8=FIX.4.4|9=0049|35=0|49=CL04|56=LVBSG|34=68|52=20150521-12:24:09|10=027|
20150521-12:24:23.251: 8=FIX.4.4|9=53|35=0|34=68|49=LVBSG|52=20150521-12:24:23.251|56=CL04|10=120|
20150521-12:25:09.279: 8=FIX.4.4|9=0049|35=0|49=CL04|56=LVBSG|34=69|52=20150521-12:25:09|10=029|
20150521-12:25:23.330: 8=FIX.4.4|9=53|35=0|34=69|49=LVBSG|52=20150521-12:25:23.330|56=CL04|10=120|
20150521-12:26:09.279: 8=FIX.4.4|9=0049|35=0|49=CL04|56=LVBSG|34=70|52=20150521-12:26:09|10=022|
20150521-12:26:24.250: 8=FIX.4.4|9=53|35=0|34=70|49=LVBSG|52=20150521-12:26:24.250|56=CL04|10=115|
20150521-12:27:09.279: 8=FIX.4.4|9=0049|35=0|49=CL04|56=LVBSG|34=71|52=20150521-12:27:09|10=024|
20150521-12:27:24.251: 8=FIX.4.4|9=53|35=0|34=71|49=LVBSG|52=20150521-12:27:24.251|56=CL04|10=118|
20150521-12:28:09.279: 8=FIX.4.4|9=0049|35=0|49=CL04|56=LVBSG|34=72|52=20150521-12:28:09|10=026|
20150521-12:28:24.251: 8=FIX.4.4|9=53|35=0|34=72|49=LVBSG|52=20150521-12:28:24.251|56=CL04|10=120|
20150521-12:29:09.279: 8=FIX.4.4|9=0049|35=0|49=CL04|56=LVBSG|34=73|52=20150521-12:29:09|10=028|
20150521-12:29:24.251: 8=FIX.4.4|9=53|35=0|34=73|49=LVBSG|52=20150521-12:29:24.251|56=CL04|10=122|
20150521-12:30:09.280: 8=FIX.4.4|9=0049|35=0|49=CL04|56=LVBSG|34=74|52=20150521-12:30:09|10=021|
20150521-12:30:24.251: 8=FIX.4.4|9=53|35=0|34=74|49=LVBSG|52=20150521-12:30:24.251|56=CL04|10=115|
20150521-12:31:09.280: 8=FIX.4.4|9=0049|35=0|49=CL04|56=LVBSG|34=75|52=20150521-12:31:09|10=023|
20150521-12:31:25.251: 8=FIX.4.4|9=53|35=0|34=75|49=LVBSG|52=20150521-12:31:25.251|56=CL04|10=118|
20150521-12:32:09.280: 8=FIX.4.4|9=0049|35=0|49=CL04|56=LVBSG|34=76|52=20150521-12:32:09|10=025|
20150521-12:32:25.251: 8=FIX.4.4|9=53|35=0|34=76|49=LVBSG|52=20150521-12:32:25.251|56=CL04|10=120|
20150521-12:33:09.280: 8=FIX.4.4|9=0049|35=0|49=CL04|56=LVBSG|34=77|52=20150521-12:33:09|10=027|
20150521-12:33:25.251: 8=FIX.4.4|9=53|35=0|34=77|49=LVBSG|52=20150521-12:33:25.251|56=CL04|10=122|
20150521-12:34:09.281: 8=FIX.4.4|9=0049|35=0|49=CL04|56=LVBSG|34=78|52=20150521-12:34:09|10=029|
20150521-12:34:25.251: 8=FIX.4.4|9=53|35=0|34=78|49=LVBSG|52=20150521-12:34:25.251|56=CL04|10=124|
20150521-12:35:09.281: 8=FIX.4.4|9=0049|35=0|49=CL04|56=LVBSG|34=79|52=20150521-12:35:09|10=031|
20150521-12:35:25.251: 8=FIX.4.4|9=53|35=0|34=79|49=LVBSG|52=20150521-12:35:25.251|56=CL04|10=126|
20150521-12:36:09.281: 8=FIX.4.4|9=0049|35=0|49=CL04|56=LVBSG|34=80|52=20150521-12:36:09|10=024|
20150521-12:36:26.251: 8=FIX.4.4|9=53|35=0|34=80|49=LVBSG|52=20150521-12:36:26.251|56=CL04|10=120|
20150521-12:37:09.280: 8=FIX.4.4|9=0049|35=0|49=CL04|56=LVBSG|34=81|52=20150521-12:37:09|10=026|
20150521-12:37:27.251: 8=FIX.4.4|9=53|35=0|34=81|49=LVBSG|52=20150521-12:37:27.251|56=CL04|10=123|
20150521-12:38:09.281: 8=FIX.4.4|9=0049|35=0|49=CL04|56=LVBSG|34=82|52=20150521-12:38:09|10=028|
20150521-12:38:27.251: 8=FIX.4.4|9=53|35=0|34=82|49=LVBSG|52=20150521-12:38:27.251|56=CL04|10=125|
20150521-12:39:09.282: 8=FIX.4.4|9=0049|35=0|49=CL04|56=LVBSG|34=83|52=20150521-12:39:09|10=030|
20150521-12:39:28.251: 8=FIX.4.4|9=53|35=0|34=83|49=LVBSG|52=20150521-12:39:28.251|56=CL04|10=128|
20150521-12:40:09.281: 8=FIX.4.4|9=0049|35=0|49=CL04|56=LVBSG|34=84|52=20150521-12:40:09|10=023|
20150521-12:40:28.251: 8=FIX.4.4|9=53|35=0|34=84|49=LVBSG|52=20150521-12:40:28.251|56=CL04|10=121|
20150521-12:41:09.280: 8=FIX.4.4|9=0049|35=0|49=CL04|56=LVBSG|34=85|52=20150521-12:41:09|10=025|
20150521-12:41:28.251: 8=FIX.4.4|9=53|35=0|34=85|49=LVBSG|52=20150521-12:41:28.251|56=CL04|10=123|
20150521-12:42:09.281: 8=FIX.4.4|9=0049|35=0|49=CL04|56=LVBSG|34=86|52=20150521-12:42:09|10=027|
20150521-12:42:29.251: 8=FIX.4.4|9=53|35=0|34=86|49=LVBSG|52=20150521-12:42:29.251|56=CL04|10=126|
20150521-12:43:09.283: 8=FIX.4.4|9=0049|35=0|49=CL04|56=LVBSG|34=87|52=20150521-12:43:09|10=029|
20150521-12:43:29.251: 8=FIX.4.4|9=53|35=0|34=87|49=LVBSG|52=20150521-12:43:29.251|56=CL04|10=128|
20150521-12:44:09.283: 8=FIX.4.4|9=0049|35=0|49=CL04|56=LVBSG|34=88|52=20150521-12:44:09|10=031|
20150521-12:44:29.251: 8=FIX.4.4|9=53|35=0|34=88|49=LVBSG|52=20150521-12:44:29.251|56=CL04|10=130|
20150521-12:45:09.283: 8=FIX.4.4|9=0049|35=0|49=CL04|56=LVBSG|34=89|52=20150521-12:45:09|10=033|
20150521-12:45:29.251: 8=FIX.4.4|9=53|35=0|34=89|49=LVBSG|52=20150521-12:45:29.251|56=CL04|10=132|
20150521-12:46:09.283: 8=FIX.4.4|9=0049|35=0|49=CL04|56=LVBSG|34=90|52=20150521-12:46:09|10=026|
20150521-12:46:29.251: 8=FIX.4.4|9=53|35=0|34=90|49=LVBSG|52=20150521-12:46:29.251|56=CL04|10=125|
20150521-12:47:09.284: 8=FIX.4.4|9=0049|35=0|49=CL04|56=LVBSG|34=91|52=20150521-12:47:09|10=028|
20150521-12:47:29.251: 8=FIX.4.4|9=53|35=0|34=91|49=LVBSG|52=20150521-12:47:29.251|56=CL04|10=127|
20150521-12:48:09.283: 8=FIX.4.4|9=0049|35=0|49=CL04|56=LVBSG|34=92|52=20150521-12:48:09|10=030|
20150521-12:48:29.251: 8=FIX.4.4|9=53|35=0|34=92|49=LVBSG|52=20150521-12:48:29.251|56=CL04|10=129|
20150521-12:49:09.284: 8=FIX.4.4|9=0049|35=0|49=CL04|56=LVBSG|34=93|52=20150521-12:49:09|10=032|
20150521-12:49:29.251: 8=FIX.4.4|9=53|35=0|34=93|49=LVBSG|52=20150521-12:49:29.251|56=CL04|10=131|
20150521-12:50:09.284: 8=FIX.4.4|9=0049|35=0|49=CL04|56=LVBSG|34=94|52=20150521-12:50:09|10=025|
20150521-12:50:29.251: 8=FIX.4.4|9=53|35=0|34=94|49=LVBSG|52=20150521-12:50:29.251|56=CL04|10=124|
20150521-12:51:09.284: 8=FIX.4.4|9=0049|35=0|49=CL04|56=LVBSG|34=95|52=20150521-12:51:09|10=027|
20150521-12:51:29.251: 8=FIX.4.4|9=53|35=0|34=95|49=LVBSG|52=20150521-12:51:29.251|56=CL04|10=126|
20150521-12:52:09.284: 8=FIX.4.4|9=0049|35=0|49=CL04|56=LVBSG|34=96|52=20150521-12:52:09|10=029|
20150521-12:52:29.251: 8=FIX.4.4|9=53|35=0|34=96|49=LVBSG|52=20150521-12:52:29.251|56=CL04|10=128|
20150521-12:53:09.283: 8=FIX.4.4|9=0049|35=0|49=CL04|56=LVBSG|34=97|52=20150521-12:53:09|10=031|
20150521-12:53:29.251: 8=FIX.4.4|9=53|35=0|34=97|49=LVBSG|52=20150521-12:53:29.251|56=CL04|10=130|
20150521-12:54:09.284: 8=FIX.4.4|9=0049|35=0|49=CL04|56=LVBSG|34=98|52=20150521-12:54:09|10=033|
20150521-12:54:29.251: 8=FIX.4.4|9=53|35=0|34=98|49=LVBSG|52=20150521-12:54:29.251|56=CL04|10=132|
20150521-12:55:09.284: 8=FIX.4.4|9=0049|35=0|49=CL04|56=LVBSG|34=99|52=20150521-12:55:09|10=035|
20150521-12:55:29.251: 8=FIX.4.4|9=53|35=0|34=99|49=LVBSG|52=20150521-12:55:29.251|56=CL04|10=134|
20150521-12:56:09.284: 8=FIX.4.4|9=0050|35=0|49=CL04|56=LVBSG|34=100|52=20150521-12:56:09|10=059|
20150521-12:56:30.251: 8=FIX.4.4|9=54|35=0|34=100|49=LVBSG|52=20150521-12:56:30.251|56=CL04|10=159|
20150521-12:57:09.285: 8=FIX.4.4|9=0050|35=0|49=CL04|56=LVBSG|34=101|52=20150521-12:57:09|10=061|
20150521-12:57:30.251: 8=FIX.4.4|9=54|35=0|34=101|49=LVBSG|52=20150521-12:57:30.251|56=CL04|10=161|
20150521-12:58:09.285: 8=FIX.4.4|9=0050|35=0|49=CL04|56=LVBSG|34=102|52=20150521-12:58:09|10=063|
20150521-12:58:30.251: 8=FIX.4.4|9=54|35=0|34=102|49=LVBSG|52=20150521-12:58:30.251|56=CL04|10=163|
20150521-12:59:09.285: 8=FIX.4.4|9=0050|35=0|49=CL04|56=LVBSG|34=103|52=20150521-12:59:09|10=065|
20150521-12:59:30.251: 8=FIX.4.4|9=54|35=0|34=103|49=LVBSG|52=20150521-12:59:30.251|56=CL04|10=165|
20150521-13:00:09.286: 8=FIX.4.4|9=0050|35=0|49=CL04|56=LVBSG|34=104|52=20150521-13:00:09|10=053|
20150521-13:00:30.251: 8=FIX.4.4|9=54|35=0|34=104|49=LVBSG|52=20150521-13:00:30.251|56=CL04|10=153|
20150521-13:01:09.287: 8=FIX.4.4|9=0050|35=0|49=CL04|56=LVBSG|34=105|52=20150521-13:01:09|10=055|
20150521-13:01:31.251: 8=FIX.4.4|9=54|35=0|34=105|49=LVBSG|52=20150521-13:01:31.251|56=CL04|10=156|
20150521-13:02:09.287: 8=FIX.4.4|9=0050|35=0|49=CL04|56=LVBSG|34=106|52=20150521-13:02:09|10=057|
20150521-13:02:31.251: 8=FIX.4.4|9=54|35=0|34=106|49=LVBSG|52=20150521-13:02:31.251|56=CL04|10=158|
20150521-13:03:09.287: 8=FIX.4.4|9=0050|35=0|49=CL04|56=LVBSG|34=107|52=20150521-13:03:09|10=059|
20150521-13:03:31.251: 8=FIX.4.4|9=54|35=0|34=107|49=LVBSG|52=20150521-13:03:31.251|56=CL04|10=160|
20150521-13:04:09.307: 8=FIX.4.4|9=0050|35=0|49=CL04|56=LVBSG|34=108|52=20150521-13:04:09|10=061|
20150521-13:04:31.251: 8=FIX.4.4|9=54|35=0|34=108|49=LVBSG|52=20150521-13:04:31.251|56=CL04|10=162|
20150521-13:05:09.287: 8=FIX.4.4|9=0050|35=0|49=CL04|56=LVBSG|34=109|52=20150521-13:05:09|10=063|
20150521-13:05:31.251: 8=FIX.4.4|9=54|35=0|34=109|49=LVBSG|52=20150521-13:05:31.251|56=CL04|10=164|
20150521-13:06:09.287: 8=FIX.4.4|9=0050|35=0|49=CL04|56=LVBSG|34=110|52=20150521-13:06:09|10=056|
20150521-13:06:31.251: 8=FIX.4.4|9=54|35=0|34=110|49=LVBSG|52=20150521-13:06:31.251|56=CL04|10=157|
20150521-13:07:09.287: 8=FIX.4.4|9=0050|35=0|49=CL04|56=LVBSG|34=111|52=20150521-13:07:09|10=058|
20150521-13:07:31.251: 8=FIX.4.4|9=54|35=0|34=111|49=LVBSG|52=20150521-13:07:31.251|56=CL04|10=159|
20150521-13:08:09.288: 8=FIX.4.4|9=0050|35=0|49=CL04|56=LVBSG|34=112|52=20150521-13:08:09|10=060|
20150521-13:08:32.251: 8=FIX.4.4|9=54|35=0|34=112|49=LVBSG|52=20150521-13:08:32.251|56=CL04|10=162|
20150521-13:09:09.324: 8=FIX.4.4|9=0050|35=0|49=CL04|56=LVBSG|34=113|52=20150521-13:09:09|10=062|
20150521-13:09:32.251: 8=FIX.4.4|9=54|35=0|34=113|49=LVBSG|52=20150521-13:09:32.251|56=CL04|10=164|
20150521-13:10:09.289: 8=FIX.4.4|9=0050|35=0|49=CL04|56=LVBSG|34=114|52=20150521-13:10:09|10=055|
20150521-13:10:32.251: 8=FIX.4.4|9=54|35=0|34=114|49=LVBSG|52=20150521-13:10:32.251|56=CL04|10=157|
20150521-13:11:09.289: 8=FIX.4.4|9=0050|35=0|49=CL04|56=LVBSG|34=115|52=20150521-13:11:09|10=057|
20150521-13:11:32.251: 8=FIX.4.4|9=54|35=0|34=115|49=LVBSG|52=20150521-13:11:32.251|56=CL04|10=159|
20150521-13:12:09.291: 8=FIX.4.4|9=0050|35=0|49=CL04|56=LVBSG|34=116|52=20150521-13:12:09|10=059|
20150521-13:12:33.251: 8=FIX.4.4|9=54|35=0|34=116|49=LVBSG|52=20150521-13:12:33.251|56=CL04|10=162|
20150521-13:13:09.291: 8=FIX.4.4|9=0050|35=0|49=CL04|56=LVBSG|34=117|52=20150521-13:13:09|10=061|
20150521-13:13:33.251: 8=FIX.4.4|9=54|35=0|34=117|49=LVBSG|52=20150521-13:13:33.251|56=CL04|10=164|
20150521-13:14:09.289: 8=FIX.4.4|9=0050|35=0|49=CL04|56=LVBSG|34=118|52=20150521-13:14:09|10=063|
20150521-13:14:33.251: 8=FIX.4.4|9=54|35=0|34=118|49=LVBSG|52=20150521-13:14:33.251|56=CL04|10=166|
20150521-13:15:09.290: 8=FIX.4.4|9=0050|35=0|49=CL04|56=LVBSG|34=119|52=20150521-13:15:09|10=065|
20150521-13:15:33.251: 8=FIX.4.4|9=54|35=0|34=119|49=LVBSG|52=20150521-13:15:33.251|56=CL04|10=168|
20150521-13:16:09.291: 8=FIX.4.4|9=0050|35=0|49=CL04|56=LVBSG|34=120|52=20150521-13:16:09|10=058|
20150521-13:16:33.251: 8=FIX.4.4|9=54|35=0|34=120|49=LVBSG|52=20150521-13:16:33.251|56=CL04|10=161|
20150521-13:17:09.291: 8=FIX.4.4|9=0050|35=0|49=CL04|56=LVBSG|34=121|52=20150521-13:17:09|10=060|
20150521-13:17:33.251: 8=FIX.4.4|9=54|35=0|34=121|49=LVBSG|52=20150521-13:17:33.251|56=CL04|10=163|
20150521-13:18:09.291: 8=FIX.4.4|9=0050|35=0|49=CL04|56=LVBSG|34=122|52=20150521-13:18:09|10=062|
20150521-13:18:34.251: 8=FIX.4.4|9=54|35=0|34=122|49=LVBSG|52=20150521-13:18:34.251|56=CL04|10=166|
20150521-13:19:09.291: 8=FIX.4.4|9=0050|35=0|49=CL04|56=LVBSG|34=123|52=20150521-13:19:09|10=064|
20150521-13:19:34.255: 8=FIX.4.4|9=54|35=0|34=123|49=LVBSG|52=20150521-13:19:34.255|56=CL04|10=172|
20150521-13:20:09.292: 8=FIX.4.4|9=0050|35=0|49=CL04|56=LVBSG|34=124|52=20150521-13:20:09|10=057|
20150521-13:20:35.251: 8=FIX.4.4|9=54|35=0|34=124|49=LVBSG|52=20150521-13:20:35.251|56=CL04|10=162|
20150521-13:21:09.292: 8=FIX.4.4|9=0050|35=0|49=CL04|56=LVBSG|34=125|52=20150521-13:21:09|10=059|
20150521-13:21:35.251: 8=FIX.4.4|9=54|35=0|34=125|49=LVBSG|52=20150521-13:21:35.251|56=CL04|10=164|
20150521-13:22:09.292: 8=FIX.4.4|9=0050|35=0|49=CL04|56=LVBSG|34=126|52=20150521-13:22:09|10=061|
20150521-13:22:35.251: 8=FIX.4.4|9=54|35=0|34=126|49=LVBSG|52=20150521-13:22:35.251|56=CL04|10=166|
20150521-13:23:09.292: 8=FIX.4.4|9=0050|35=0|49=CL04|56=LVBSG|34=127|52=20150521-13:23:09|10=063|
20150521-13:23:35.251: 8=FIX.4.4|9=54|35=0|34=127|49=LVBSG|52=20150521-13:23:35.251|56=CL04|10=168|
20150521-13:24:09.294: 8=FIX.4.4|9=0050|35=0|49=CL04|56=LVBSG|34=128|52=20150521-13:24:09|10=065|
20150521-13:24:35.251: 8=FIX.4.4|9=54|35=0|34=128|49=LVBSG|52=20150521-13:24:35.251|56=CL04|10=170|
20150521-13:25:09.291: 8=FIX.4.4|9=0050|35=0|49=CL04|56=LVBSG|34=129|52=20150521-13:25:09|10=067|
20150521-13:25:35.251: 8=FIX.4.4|9=54|35=0|34=129|49=LVBSG|52=20150521-13:25:35.251|56=CL04|10=172|
20150521-13:26:09.292: 8=FIX.4.4|9=0050|35=0|49=CL04|56=LVBSG|34=130|52=20150521-13:26:09|10=060|
20150521-13:26:35.373: 8=FIX.4.4|9=54|35=0|34=130|49=LVBSG|52=20150521-13:26:35.373|56=CL04|10=170|
20150521-13:27:09.292: 8=FIX.4.4|9=0050|35=0|49=CL04|56=LVBSG|34=131|52=20150521-13:27:09|10=062|
20150521-13:27:36.251: 8=FIX.4.4|9=54|35=0|34=131|49=LVBSG|52=20150521-13:27:36.251|56=CL04|10=168|
20150521-13:28:09.292: 8=FIX.4.4|9=0050|35=0|49=CL04|56=LVBSG|34=132|52=20150521-13:28:09|10=064|
20150521-13:28:36.251: 8=FIX.4.4|9=54|35=0|34=132|49=LVBSG|52=20150521-13:28:36.251|56=CL04|10=170|
20150521-13:29:09.293: 8=FIX.4.4|9=0050|35=0|49=CL04|56=LVBSG|34=133|52=20150521-13:29:09|10=066|
20150521-13:29:37.251: 8=FIX.4.4|9=54|35=0|34=133|49=LVBSG|52=20150521-13:29:37.251|56=CL04|10=173|
20150521-13:30:09.293: 8=FIX.4.4|9=0050|35=0|49=CL04|56=LVBSG|34=134|52=20150521-13:30:09|10=059|
20150521-13:30:37.251: 8=FIX.4.4|9=54|35=0|34=134|49=LVBSG|52=20150521-13:30:37.251|56=CL04|10=166|
20150521-13:31:09.293: 8=FIX.4.4|9=0050|35=0|49=CL04|56=LVBSG|34=135|52=20150521-13:31:09|10=061|
20150521-13:31:37.251: 8=FIX.4.4|9=54|35=0|34=135|49=LVBSG|52=20150521-13:31:37.251|56=CL04|10=168|
20150521-13:32:09.293: 8=FIX.4.4|9=0050|35=0|49=CL04|56=LVBSG|34=136|52=20150521-13:32:09|10=063|
20150521-13:32:37.251: 8=FIX.4.4|9=54|35=0|34=136|49=LVBSG|52=20150521-13:32:37.251|56=CL04|10=170|
20150521-13:33:09.293: 8=FIX.4.4|9=0050|35=0|49=CL04|56=LVBSG|34=137|52=20150521-13:33:09|10=065|
20150521-13:33:37.251: 8=FIX.4.4|9=54|35=0|34=137|49=LVBSG|52=20150521-13:33:37.251|56=CL04|10=172|
20150521-13:34:09.292: 8=FIX.4.4|9=0050|35=0|49=CL04|56=LVBSG|34=138|52=20150521-13:34:09|10=067|
20150521-13:34:38.251: 8=FIX.4.4|9=54|35=0|34=138|49=LVBSG|52=20150521-13:34:38.251|56=CL04|10=175|
20150521-13:35:09.293: 8=FIX.4.4|9=0050|35=0|49=CL04|56=LVBSG|34=139|52=20150521-13:35:09|10=069|
20150521-13:35:38.251: 8=FIX.4.4|9=54|35=0|34=139|49=LVBSG|52=20150521-13:35:38.251|56=CL04|10=177|
20150521-13:36:09.293: 8=FIX.4.4|9=0050|35=0|49=CL04|56=LVBSG|34=140|52=20150521-13:36:09|10=062|
20150521-13:36:38.251: 8=FIX.4.4|9=54|35=0|34=140|49=LVBSG|52=20150521-13:36:38.251|56=CL04|10=170|
20150521-13:37:09.293: 8=FIX.4.4|9=0050|35=0|49=CL04|56=LVBSG|34=141|52=20150521-13:37:09|10=064|
20150521-13:37:38.251: 8=FIX.4.4|9=54|35=0|34=141|49=LVBSG|52=20150521-13:37:38.251|56=CL04|10=172|
20150521-13:38:09.293: 8=FIX.4.4|9=0050|35=0|49=CL04|56=LVBSG|34=142|52=20150521-13:38:09|10=066|
20150521-13:38:38.251: 8=FIX.4.4|9=54|35=0|34=142|49=LVBSG|52=20150521-13:38:38.251|56=CL04|10=174|
20150521-13:39:09.293: 8=FIX.4.4|9=0050|35=0|49=CL04|56=LVBSG|34=143|52=20150521-13:39:09|10=068|
20150521-13:39:38.251: 8=FIX.4.4|9=54|35=0|34=143|49=LVBSG|52=20150521-13:39:38.251|56=CL04|10=176|
20150521-13:40:09.293: 8=FIX.4.4|9=0050|35=0|49=CL04|56=LVBSG|34=144|52=20150521-13:40:09|10=061|
20150521-13:40:38.251: 8=FIX.4.4|9=54|35=0|34=144|49=LVBSG|52=20150521-13:40:38.251|56=CL04|10=169|
20150521-13:41:09.293: 8=FIX.4.4|9=0050|35=0|49=CL04|56=LVBSG|34=145|52=20150521-13:41:09|10=063|
20150521-13:41:38.251: 8=FIX.4.4|9=54|35=0|34=145|49=LVBSG|52=20150521-13:41:38.251|56=CL04|10=171|
20150521-13:42:09.294: 8=FIX.4.4|9=0050|35=0|49=CL04|56=LVBSG|34=146|52=20150521-13:42:09|10=065|
20150521-13:42:38.251: 8=FIX.4.4|9=54|35=0|34=146|49=LVBSG|52=20150521-13:42:38.251|56=CL04|10=173|
20150521-13:43:09.293: 8=FIX.4.4|9=0050|35=0|49=CL04|56=LVBSG|34=147|52=20150521-13:43:09|10=067|
20150521-13:43:39.251: 8=FIX.4.4|9=54|35=0|34=147|49=LVBSG|52=20150521-13:43:39.251|56=CL04|10=176|
20150521-13:44:09.293: 8=FIX.4.4|9=0050|35=0|49=CL04|56=LVBSG|34=148|52=20150521-13:44:09|10=069|
20150521-13:44:40.251: 8=FIX.4.4|9=54|35=0|34=148|49=LVBSG|52=20150521-13:44:40.251|56=CL04|10=170|
20150521-13:45:09.293: 8=FIX.4.4|9=0050|35=0|49=CL04|56=LVBSG|34=149|52=20150521-13:45:09|10=071|
20150521-13:45:40.251: 8=FIX.4.4|9=54|35=0|34=149|49=LVBSG|52=20150521-13:45:40.251|56=CL04|10=172|
20150521-13:46:09.306: 8=FIX.4.4|9=0050|35=0|49=CL04|56=LVBSG|34=150|52=20150521-13:46:09|10=064|
20150521-13:46:40.251: 8=FIX.4.4|9=54|35=0|34=150|49=LVBSG|52=20150521-13:46:40.251|56=CL04|10=165|
20150521-13:47:09.294: 8=FIX.4.4|9=0050|35=0|49=CL04|56=LVBSG|34=151|52=20150521-13:47:09|10=066|
20150521-13:47:41.251: 8=FIX.4.4|9=54|35=0|34=151|49=LVBSG|52=20150521-13:47:41.251|56=CL04|10=168|
20150521-13:48:09.294: 8=FIX.4.4|9=0050|35=0|49=CL04|56=LVBSG|34=152|52=20150521-13:48:09|10=068|
20150521-13:48:42.251: 8=FIX.4.4|9=54|35=0|34=152|49=LVBSG|52=20150521-13:48:42.251|56=CL04|10=171|
20150521-13:49:09.294: 8=FIX.4.4|9=0050|35=0|49=CL04|56=LVBSG|34=153|52=20150521-13:49:09|10=070|
20150521-13:49:43.251: 8=FIX.4.4|9=54|35=0|34=153|49=LVBSG|52=20150521-13:49:43.251|56=CL04|10=174|
20150521-13:50:09.294: 8=FIX.4.4|9=0050|35=0|49=CL04|56=LVBSG|34=154|52=20150521-13:50:09|10=063|
20150521-13:50:43.251: 8=FIX.4.4|9=54|35=0|34=154|49=LVBSG|52=20150521-13:50:43.251|56=CL04|10=167|
20150521-13:51:09.294: 8=FIX.4.4|9=0050|35=0|49=CL04|56=LVBSG|34=155|52=20150521-13:51:09|10=065|
20150521-13:51:44.251: 8=FIX.4.4|9=54|35=0|34=155|49=LVBSG|52=20150521-13:51:44.251|56=CL04|10=170|
20150521-13:52:09.294: 8=FIX.4.4|9=0050|35=0|49=CL04|56=LVBSG|34=156|52=20150521-13:52:09|10=067|
20150521-13:52:44.251: 8=FIX.4.4|9=54|35=0|34=156|49=LVBSG|52=20150521-13:52:44.251|56=CL04|10=172|
20150521-13:53:09.294: 8=FIX.4.4|9=0050|35=0|49=CL04|56=LVBSG|34=157|52=20150521-13:53:09|10=069|
20150521-13:53:44.251: 8=FIX.4.4|9=54|35=0|34=157|49=LVBSG|52=20150521-13:53:44.251|56=CL04|10=174|
20150521-13:54:09.294: 8=FIX.4.4|9=0050|35=0|49=CL04|56=LVBSG|34=158|52=20150521-13:54:09|10=071|
20150521-13:54:44.251: 8=FIX.4.4|9=54|35=0|34=158|49=LVBSG|52=20150521-13:54:44.251|56=CL04|10=176|
20150521-13:55:09.295: 8=FIX.4.4|9=0050|35=0|49=CL04|56=LVBSG|34=159|52=20150521-13:55:09|10=073|
20150521-13:55:45.251: 8=FIX.4.4|9=54|35=0|34=159|49=LVBSG|52=20150521-13:55:45.250|56=CL04|10=178|
20150521-13:56:09.295: 8=FIX.4.4|9=0050|35=0|49=CL04|56=LVBSG|34=160|52=20150521-13:56:09|10=066|
20150521-13:56:45.251: 8=FIX.4.4|9=54|35=0|34=160|49=LVBSG|52=20150521-13:56:45.251|56=CL04|10=172|
20150521-13:57:09.295: 8=FIX.4.4|9=0050|35=0|49=CL04|56=LVBSG|34=161|52=20150521-13:57:09|10=068|
20150521-13:57:45.251: 8=FIX.4.4|9=54|35=0|34=161|49=LVBSG|52=20150521-13:57:45.251|56=CL04|10=174|
20150521-13:58:09.295: 8=FIX.4.4|9=0050|35=0|49=CL04|56=LVBSG|34=162|52=20150521-13:58:09|10=070|
20150521-13:58:45.251: 8=FIX.4.4|9=54|35=0|34=162|49=LVBSG|52=20150521-13:58:45.251|56=CL04|10=176|
20150521-13:59:09.295: 8=FIX.4.4|9=0050|35=0|49=CL04|56=LVBSG|34=163|52=20150521-13:59:09|10=072|
20150521-13:59:45.251: 8=FIX.4.4|9=54|35=0|34=163|49=LVBSG|52=20150521-13:59:45.251|56=CL04|10=178|
20150521-14:00:09.295: 8=FIX.4.4|9=0050|35=0|49=CL04|56=LVBSG|34=164|52=20150521-14:00:09|10=060|
20150521-14:00:46.251: 8=FIX.4.4|9=54|35=0|34=164|49=LVBSG|52=20150521-14:00:46.251|56=CL04|10=167|
20150521-14:01:09.295: 8=FIX.4.4|9=0050|35=0|49=CL04|56=LVBSG|34=165|52=20150521-14:01:09|10=062|
20150521-14:01:46.251: 8=FIX.4.4|9=54|35=0|34=165|49=LVBSG|52=20150521-14:01:46.251|56=CL04|10=169|
20150521-14:02:09.296: 8=FIX.4.4|9=0050|35=0|49=CL04|56=LVBSG|34=166|52=20150521-14:02:09|10=064|
20150521-14:02:46.251: 8=FIX.4.4|9=54|35=0|34=166|49=LVBSG|52=20150521-14:02:46.251|56=CL04|10=171|
20150521-14:03:09.295: 8=FIX.4.4|9=0050|35=0|49=CL04|56=LVBSG|34=167|52=20150521-14:03:09|10=066|
20150521-14:03:46.251: 8=FIX.4.4|9=54|35=0|34=167|49=LVBSG|52=20150521-14:03:46.251|56=CL04|10=173|
20150521-14:04:09.296: 8=FIX.4.4|9=0050|35=0|49=CL04|56=LVBSG|34=168|52=20150521-14:04:09|10=068|
20150521-14:04:46.251: 8=FIX.4.4|9=54|35=0|34=168|49=LVBSG|52=20150521-14:04:46.251|56=CL04|10=175|
20150521-14:05:09.296: 8=FIX.4.4|9=0050|35=0|49=CL04|56=LVBSG|34=169|52=20150521-14:05:09|10=070|
20150521-14:05:46.251: 8=FIX.4.4|9=54|35=0|34=169|49=LVBSG|52=20150521-14:05:46.251|56=CL04|10=177|
20150521-14:06:09.296: 8=FIX.4.4|9=0050|35=0|49=CL04|56=LVBSG|34=170|52=20150521-14:06:09|10=063|
20150521-14:06:46.251: 8=FIX.4.4|9=54|35=0|34=170|49=LVBSG|52=20150521-14:06:46.251|56=CL04|10=170|
20150521-14:07:09.295: 8=FIX.4.4|9=0050|35=0|49=CL04|56=LVBSG|34=171|52=20150521-14:07:09|10=065|
20150521-14:07:46.251: 8=FIX.4.4|9=54|35=0|34=171|49=LVBSG|52=20150521-14:07:46.251|56=CL04|10=172|
20150521-14:08:09.297: 8=FIX.4.4|9=0050|35=0|49=CL04|56=LVBSG|34=172|52=20150521-14:08:09|10=067|
20150521-14:08:46.251: 8=FIX.4.4|9=54|35=0|34=172|49=LVBSG|52=20150521-14:08:46.251|56=CL04|10=174|
20150521-14:09:09.296: 8=FIX.4.4|9=0050|35=0|49=CL04|56=LVBSG|34=173|52=20150521-14:09:09|10=069|
20150521-14:09:46.251: 8=FIX.4.4|9=54|35=0|34=173|49=LVBSG|52=20150521-14:09:46.251|56=CL04|10=176|
20150521-14:10:09.296: 8=FIX.4.4|9=0050|35=0|49=CL04|56=LVBSG|34=174|52=20150521-14:10:09|10=062|
20150521-14:10:46.251: 8=FIX.4.4|9=54|35=0|34=174|49=LVBSG|52=20150521-14:10:46.251|56=CL04|10=169|
20150521-14:11:09.297: 8=FIX.4.4|9=0050|35=0|49=CL04|56=LVBSG|34=175|52=20150521-14:11:09|10=064|
20150521-14:11:46.251: 8=FIX.4.4|9=54|35=0|34=175|49=LVBSG|52=20150521-14:11:46.251|56=CL04|10=171|
20150521-14:12:09.297: 8=FIX.4.4|9=0050|35=0|49=CL04|56=LVBSG|34=176|52=20150521-14:12:09|10=066|
20150521-14:12:46.251: 8=FIX.4.4|9=54|35=0|34=176|49=LVBSG|52=20150521-14:12:46.251|56=CL04|10=173|
20150521-14:13:09.300: 8=FIX.4.4|9=0050|35=0|49=CL04|56=LVBSG|34=177|52=20150521-14:13:09|10=068|
20150521-14:13:46.251: 8=FIX.4.4|9=54|35=0|34=177|49=LVBSG|52=20150521-14:13:46.251|56=CL04|10=175|
20150521-14:14:09.299: 8=FIX.4.4|9=0050|35=0|49=CL04|56=LVBSG|34=178|52=20150521-14:14:09|10=070|
20150521-14:14:46.251: 8=FIX.4.4|9=54|35=0|34=178|49=LVBSG|52=20150521-14:14:46.251|56=CL04|10=177|
20150521-14:15:09.298: 8=FIX.4.4|9=0050|35=0|49=CL04|56=LVBSG|34=179|52=20150521-14:15:09|10=072|
20150521-14:15:47.251: 8=FIX.4.4|9=54|35=0|34=179|49=LVBSG|52=20150521-14:15:47.251|56=CL04|10=180|
20150521-14:16:09.298: 8=FIX.4.4|9=0050|35=0|49=CL04|56=LVBSG|34=180|52=20150521-14:16:09|10=065|
20150521-14:16:47.251: 8=FIX.4.4|9=54|35=0|34=180|49=LVBSG|52=20150521-14:16:47.251|56=CL04|10=173|
20150521-14:17:09.298: 8=FIX.4.4|9=0050|35=0|49=CL04|56=LVBSG|34=181|52=20150521-14:17:09|10=067|
20150521-14:17:47.251: 8=FIX.4.4|9=54|35=0|34=181|49=LVBSG|52=20150521-14:17:47.251|56=CL04|10=175|
20150521-14:18:09.298: 8=FIX.4.4|9=0050|35=0|49=CL04|56=LVBSG|34=182|52=20150521-14:18:09|10=069|
20150521-14:18:47.251: 8=FIX.4.4|9=54|35=0|34=182|49=LVBSG|52=20150521-14:18:47.251|56=CL04|10=177|
20150521-14:19:09.299: 8=FIX.4.4|9=0050|35=0|49=CL04|56=LVBSG|34=183|52=20150521-14:19:09|10=071|
20150521-14:19:47.251: 8=FIX.4.4|9=54|35=0|34=183|49=LVBSG|52=20150521-14:19:47.251|56=CL04|10=179|
20150521-14:20:09.300: 8=FIX.4.4|9=0050|35=0|49=CL04|56=LVBSG|34=184|52=20150521-14:20:09|10=064|
20150521-14:20:48.251: 8=FIX.4.4|9=54|35=0|34=184|49=LVBSG|52=20150521-14:20:48.251|56=CL04|10=173|
20150521-14:21:09.301: 8=FIX.4.4|9=0050|35=0|49=CL04|56=LVBSG|34=185|52=20150521-14:21:09|10=066|
20150521-14:21:48.251: 8=FIX.4.4|9=54|35=0|34=185|49=LVBSG|52=20150521-14:21:48.251|56=CL04|10=175|
20150521-14:22:09.300: 8=FIX.4.4|9=0050|35=0|49=CL04|56=LVBSG|34=186|52=20150521-14:22:09|10=068|
20150521-14:22:48.251: 8=FIX.4.4|9=54|35=0|34=186|49=LVBSG|52=20150521-14:22:48.251|56=CL04|10=177|
20150521-14:23:09.300: 8=FIX.4.4|9=0050|35=0|49=CL04|56=LVBSG|34=187|52=20150521-14:23:09|10=070|
20150521-14:23:48.251: 8=FIX.4.4|9=54|35=0|34=187|49=LVBSG|52=20150521-14:23:48.251|56=CL04|10=179|
20150521-14:24:09.301: 8=FIX.4.4|9=0050|35=0|49=CL04|56=LVBSG|34=188|52=20150521-14:24:09|10=072|
20150521-14:24:48.251: 8=FIX.4.4|9=54|35=0|34=188|49=LVBSG|52=20150521-14:24:48.251|56=CL04|10=181|
20150521-14:25:09.300: 8=FIX.4.4|9=0050|35=0|49=CL04|56=LVBSG|34=189|52=20150521-14:25:09|10=074|
20150521-14:25:48.251: 8=FIX.4.4|9=54|35=0|34=189|49=LVBSG|52=20150521-14:25:48.251|56=CL04|10=183|
20150521-14:26:09.300: 8=FIX.4.4|9=0050|35=0|49=CL04|56=LVBSG|34=190|52=20150521-14:26:09|10=067|
20150521-14:26:48.251: 8=FIX.4.4|9=54|35=0|34=190|49=LVBSG|52=20150521-14:26:48.251|56=CL04|10=176|
20150521-14:27:09.300: 8=FIX.4.4|9=0050|35=0|49=CL04|56=LVBSG|34=191|52=20150521-14:27:09|10=069|
20150521-14:27:48.251: 8=FIX.4.4|9=54|35=0|34=191|49=LVBSG|52=20150521-14:27:48.251|56=CL04|10=178|
20150521-14:28:09.300: 8=FIX.4.4|9=0050|35=0|49=CL04|56=LVBSG|34=192|52=20150521-14:28:09|10=071|
20150521-14:28:49.251: 8=FIX.4.4|9=54|35=0|34=192|49=LVBSG|52=20150521-14:28:49.251|56=CL04|10=181|
20150521-14:29:09.301: 8=FIX.4.4|9=0050|35=0|49=CL04|56=LVBSG|34=193|52=20150521-14:29:09|10=073|
20150521-14:29:50.251: 8=FIX.4.4|9=54|35=0|34=193|49=LVBSG|52=20150521-14:29:50.251|56=CL04|10=175|
20150521-14:30:09.301: 8=FIX.4.4|9=0050|35=0|49=CL04|56=LVBSG|34=194|52=20150521-14:30:09|10=066|
20150521-14:30:50.251: 8=FIX.4.4|9=54|35=0|34=194|49=LVBSG|52=20150521-14:30:50.251|56=CL04|10=168|
20150521-14:31:09.302: 8=FIX.4.4|9=0050|35=0|49=CL04|56=LVBSG|34=195|52=20150521-14:31:09|10=068|
20150521-14:31:50.251: 8=FIX.4.4|9=54|35=0|34=195|49=LVBSG|52=20150521-14:31:50.251|56=CL04|10=170|
20150521-14:32:09.304: 8=FIX.4.4|9=0050|35=0|49=CL04|56=LVBSG|34=196|52=20150521-14:32:09|10=070|
20150521-14:32:50.251: 8=FIX.4.4|9=54|35=0|34=196|49=LVBSG|52=20150521-14:32:50.251|56=CL04|10=172|
20150521-14:33:09.305: 8=FIX.4.4|9=0050|35=0|49=CL04|56=LVBSG|34=197|52=20150521-14:33:09|10=072|
20150521-14:33:50.251: 8=FIX.4.4|9=54|35=0|34=197|49=LVBSG|52=20150521-14:33:50.251|56=CL04|10=174|
20150521-14:34:09.304: 8=FIX.4.4|9=0050|35=0|49=CL04|56=LVBSG|34=198|52=20150521-14:34:09|10=074|
20150521-14:34:50.251: 8=FIX.4.4|9=54|35=0|34=198|49=LVBSG|52=20150521-14:34:50.251|56=CL04|10=176|
20150521-14:35:09.304: 8=FIX.4.4|9=0050|35=0|49=CL04|56=LVBSG|34=199|52=20150521-14:35:09|10=076|
20150521-14:35:50.251: 8=FIX.4.4|9=54|35=0|34=199|49=LVBSG|52=20150521-14:35:50.251|56=CL04|10=178|
20150521-14:36:09.305: 8=FIX.4.4|9=0050|35=0|49=CL04|56=LVBSG|34=200|52=20150521-14:36:09|10=060|
20150521-14:36:51.251: 8=FIX.4.4|9=54|35=0|34=200|49=LVBSG|52=20150521-14:36:51.251|56=CL04|10=163|
20150521-14:37:09.305: 8=FIX.4.4|9=0050|35=0|49=CL04|56=LVBSG|34=201|52=20150521-14:37:09|10=062|
20150521-14:37:51.251: 8=FIX.4.4|9=54|35=0|34=201|49=LVBSG|52=20150521-14:37:51.251|56=CL04|10=165|
20150521-14:38:09.305: 8=FIX.4.4|9=0050|35=0|49=CL04|56=LVBSG|34=202|52=20150521-14:38:09|10=064|
20150521-14:38:51.251: 8=FIX.4.4|9=54|35=0|34=202|49=LVBSG|52=20150521-14:38:51.251|56=CL04|10=167|
20150521-14:39:09.306: 8=FIX.4.4|9=0050|35=0|49=CL04|56=LVBSG|34=203|52=20150521-14:39:09|10=066|
20150521-14:39:51.251: 8=FIX.4.4|9=54|35=0|34=203|49=LVBSG|52=20150521-14:39:51.251|56=CL04|10=169|
20150521-14:40:09.306: 8=FIX.4.4|9=0050|35=0|49=CL04|56=LVBSG|34=204|52=20150521-14:40:09|10=059|
20150521-14:40:51.251: 8=FIX.4.4|9=54|35=0|34=204|49=LVBSG|52=20150521-14:40:51.251|56=CL04|10=162|
20150521-14:41:09.306: 8=FIX.4.4|9=0050|35=0|49=CL04|56=LVBSG|34=205|52=20150521-14:41:09|10=061|
20150521-14:41:51.251: 8=FIX.4.4|9=54|35=0|34=205|49=LVBSG|52=20150521-14:41:51.251|56=CL04|10=164|
20150521-14:42:09.306: 8=FIX.4.4|9=0050|35=0|49=CL04|56=LVBSG|34=206|52=20150521-14:42:09|10=063|
20150521-14:42:52.251: 8=FIX.4.4|9=54|35=0|34=206|49=LVBSG|52=20150521-14:42:52.251|56=CL04|10=167|
20150521-14:43:09.307: 8=FIX.4.4|9=0050|35=0|49=CL04|56=LVBSG|34=207|52=20150521-14:43:09|10=065|
20150521-14:43:53.251: 8=FIX.4.4|9=54|35=0|34=207|49=LVBSG|52=20150521-14:43:53.251|56=CL04|10=170|
20150521-14:44:09.307: 8=FIX.4.4|9=0050|35=0|49=CL04|56=LVBSG|34=208|52=20150521-14:44:09|10=067|
20150521-14:44:53.251: 8=FIX.4.4|9=54|35=0|34=208|49=LVBSG|52=20150521-14:44:53.251|56=CL04|10=172|
20150521-14:45:09.308: 8=FIX.4.4|9=0050|35=0|49=CL04|56=LVBSG|34=209|52=20150521-14:45:09|10=069|
20150521-14:45:54.250: 8=FIX.4.4|9=54|35=0|34=209|49=LVBSG|52=20150521-14:45:54.250|56=CL04|10=174|
20150521-14:46:09.309: 8=FIX.4.4|9=0050|35=0|49=CL04|56=LVBSG|34=210|52=20150521-14:46:09|10=062|
20150521-14:46:54.251: 8=FIX.4.4|9=54|35=0|34=210|49=LVBSG|52=20150521-14:46:54.251|56=CL04|10=168|
20150521-14:47:09.309: 8=FIX.4.4|9=0050|35=0|49=CL04|56=LVBSG|34=211|52=20150521-14:47:09|10=064|
20150521-14:47:54.251: 8=FIX.4.4|9=54|35=0|34=211|49=LVBSG|52=20150521-14:47:54.251|56=CL04|10=170|
20150521-14:48:09.309: 8=FIX.4.4|9=0050|35=0|49=CL04|56=LVBSG|34=212|52=20150521-14:48:09|10=066|
20150521-14:48:54.251: 8=FIX.4.4|9=54|35=0|34=212|49=LVBSG|52=20150521-14:48:54.251|56=CL04|10=172|
20150521-14:49:09.309: 8=FIX.4.4|9=0050|35=0|49=CL04|56=LVBSG|34=213|52=20150521-14:49:09|10=068|
20150521-14:49:54.251: 8=FIX.4.4|9=54|35=0|34=213|49=LVBSG|52=20150521-14:49:54.251|56=CL04|10=174|
20150521-14:50:09.311: 8=FIX.4.4|9=0050|35=0|49=CL04|56=LVBSG|34=214|52=20150521-14:50:09|10=061|
20150521-14:50:54.251: 8=FIX.4.4|9=54|35=0|34=214|49=LVBSG|52=20150521-14:50:54.251|56=CL04|10=167|
20150521-14:51:09.310: 8=FIX.4.4|9=0050|35=0|49=CL04|56=LVBSG|34=215|52=20150521-14:51:09|10=063|
20150521-14:51:54.251: 8=FIX.4.4|9=54|35=0|34=215|49=LVBSG|52=20150521-14:51:54.251|56=CL04|10=169|
20150521-14:52:09.309: 8=FIX.4.4|9=0050|35=0|49=CL04|56=LVBSG|34=216|52=20150521-14:52:09|10=065|
20150521-14:52:55.251: 8=FIX.4.4|9=54|35=0|34=216|49=LVBSG|52=20150521-14:52:55.251|56=CL04|10=172|
20150521-14:53:09.310: 8=FIX.4.4|9=0050|35=0|49=CL04|56=LVBSG|34=217|52=20150521-14:53:09|10=067|
20150521-14:53:55.251: 8=FIX.4.4|9=54|35=0|34=217|49=LVBSG|52=20150521-14:53:55.251|56=CL04|10=174|
20150521-14:54:09.310: 8=FIX.4.4|9=0050|35=0|49=CL04|56=LVBSG|34=218|52=20150521-14:54:09|10=069|
20150521-14:54:55.251: 8=FIX.4.4|9=54|35=0|34=218|49=LVBSG|52=20150521-14:54:55.251|56=CL04|10=176|
20150521-14:55:09.310: 8=FIX.4.4|9=0050|35=0|49=CL04|56=LVBSG|34=219|52=20150521-14:55:09|10=071|
20150521-14:55:56.251: 8=FIX.4.4|9=54|35=0|34=219|49=LVBSG|52=20150521-14:55:56.251|56=CL04|10=179|
20150521-14:56:09.311: 8=FIX.4.4|9=0050|35=0|49=CL04|56=LVBSG|34=220|52=20150521-14:56:09|10=064|
20150521-14:56:56.251: 8=FIX.4.4|9=54|35=0|34=220|49=LVBSG|52=20150521-14:56:56.251|56=CL04|10=172|
20150521-14:57:09.311: 8=FIX.4.4|9=0050|35=0|49=CL04|56=LVBSG|34=221|52=20150521-14:57:09|10=066|
20150521-14:57:56.251: 8=FIX.4.4|9=54|35=0|34=221|49=LVBSG|52=20150521-14:57:56.251|56=CL04|10=174|
20150521-14:58:09.311: 8=FIX.4.4|9=0050|35=0|49=CL04|56=LVBSG|34=222|52=20150521-14:58:09|10=068|
20150521-14:58:56.251: 8=FIX.4.4|9=54|35=0|34=222|49=LVBSG|52=20150521-14:58:56.251|56=CL04|10=176|
20150521-14:59:09.310: 8=FIX.4.4|9=0050|35=0|49=CL04|56=LVBSG|34=223|52=20150521-14:59:09|10=070|
20150521-14:59:56.251: 8=FIX.4.4|9=54|35=0|34=223|49=LVBSG|52=20150521-14:59:56.251|56=CL04|10=178|
20150521-15:00:09.311: 8=FIX.4.4|9=0050|35=0|49=CL04|56=LVBSG|34=224|52=20150521-15:00:09|10=058|
20150521-15:00:56.251: 8=FIX.4.4|9=54|35=0|34=224|49=LVBSG|52=20150521-15:00:56.251|56=CL04|10=166|
20150521-15:01:09.311: 8=FIX.4.4|9=0050|35=0|49=CL04|56=LVBSG|34=225|52=20150521-15:01:09|10=060|
20150521-15:01:56.251: 8=FIX.4.4|9=54|35=0|34=225|49=LVBSG|52=20150521-15:01:56.251|56=CL04|10=168|
20150521-15:02:09.316: 8=FIX.4.4|9=0050|35=0|49=CL04|56=LVBSG|34=226|52=20150521-15:02:09|10=062|
20150521-15:02:57.251: 8=FIX.4.4|9=54|35=0|34=226|49=LVBSG|52=20150521-15:02:57.251|56=CL04|10=171|
20150521-15:03:09.311: 8=FIX.4.4|9=0050|35=0|49=CL04|56=LVBSG|34=227|52=20150521-15:03:09|10=064|
20150521-15:03:57.251: 8=FIX.4.4|9=54|35=0|34=227|49=LVBSG|52=20150521-15:03:57.251|56=CL04|10=173|
20150521-15:04:09.314: 8=FIX.4.4|9=0050|35=0|49=CL04|56=LVBSG|34=228|52=20150521-15:04:09|10=066|
20150521-15:04:57.251: 8=FIX.4.4|9=54|35=0|34=228|49=LVBSG|52=20150521-15:04:57.251|56=CL04|10=175|
20150521-15:05:09.311: 8=FIX.4.4|9=0050|35=0|49=CL04|56=LVBSG|34=229|52=20150521-15:05:09|10=068|
20150521-15:05:58.251: 8=FIX.4.4|9=54|35=0|34=229|49=LVBSG|52=20150521-15:05:58.251|56=CL04|10=178|
20150521-15:06:09.312: 8=FIX.4.4|9=0050|35=0|49=CL04|56=LVBSG|34=230|52=20150521-15:06:09|10=061|
20150521-15:06:58.251: 8=FIX.4.4|9=54|35=0|34=230|49=LVBSG|52=20150521-15:06:58.251|56=CL04|10=171|
20150521-15:07:09.312: 8=FIX.4.4|9=0050|35=0|49=CL04|56=LVBSG|34=231|52=20150521-15:07:09|10=063|
20150521-15:07:58.251: 8=FIX.4.4|9=54|35=0|34=231|49=LVBSG|52=20150521-15:07:58.251|56=CL04|10=173|
20150521-15:08:09.311: 8=FIX.4.4|9=0050|35=0|49=CL04|56=LVBSG|34=232|52=20150521-15:08:09|10=065|
20150521-15:08:58.251: 8=FIX.4.4|9=54|35=0|34=232|49=LVBSG|52=20150521-15:08:58.251|56=CL04|10=175|
20150521-15:09:09.311: 8=FIX.4.4|9=0050|35=0|49=CL04|56=LVBSG|34=233|52=20150521-15:09:09|10=067|
20150521-15:09:58.251: 8=FIX.4.4|9=54|35=0|34=233|49=LVBSG|52=20150521-15:09:58.251|56=CL04|10=177|
20150521-15:10:09.311: 8=FIX.4.4|9=0050|35=0|49=CL04|56=LVBSG|34=234|52=20150521-15:10:09|10=060|
20150521-15:10:59.251: 8=FIX.4.4|9=54|35=0|34=234|49=LVBSG|52=20150521-15:10:59.251|56=CL04|10=171|
20150521-15:11:09.312: 8=FIX.4.4|9=0050|35=0|49=CL04|56=LVBSG|34=235|52=20150521-15:11:09|10=062|
20150521-15:11:59.251: 8=FIX.4.4|9=54|35=0|34=235|49=LVBSG|52=20150521-15:11:59.251|56=CL04|10=173|
20150521-15:12:09.313: 8=FIX.4.4|9=0050|35=0|49=CL04|56=LVBSG|34=236|52=20150521-15:12:09|10=064|
20150521-15:12:59.251: 8=FIX.4.4|9=54|35=0|34=236|49=LVBSG|52=20150521-15:12:59.251|56=CL04|10=175|
20150521-15:13:09.313: 8=FIX.4.4|9=0050|35=0|49=CL04|56=LVBSG|34=237|52=20150521-15:13:09|10=066|
20150521-15:13:59.251: 8=FIX.4.4|9=54|35=0|34=237|49=LVBSG|52=20150521-15:13:59.251|56=CL04|10=177|
20150521-15:14:09.314: 8=FIX.4.4|9=0050|35=0|49=CL04|56=LVBSG|34=238|52=20150521-15:14:09|10=068|
20150521-15:14:59.251: 8=FIX.4.4|9=54|35=0|34=238|49=LVBSG|52=20150521-15:14:59.251|56=CL04|10=179|
20150521-15:15:09.314: 8=FIX.4.4|9=0050|35=0|49=CL04|56=LVBSG|34=239|52=20150521-15:15:09|10=070|
20150521-15:15:59.251: 8=FIX.4.4|9=54|35=0|34=239|49=LVBSG|52=20150521-15:15:59.251|56=CL04|10=181|
20150521-15:16:09.313: 8=FIX.4.4|9=0050|35=0|49=CL04|56=LVBSG|34=240|52=20150521-15:16:09|10=063|
20150521-15:16:59.251: 8=FIX.4.4|9=54|35=0|34=240|49=LVBSG|52=20150521-15:16:59.251|56=CL04|10=174|
20150521-15:17:09.314: 8=FIX.4.4|9=0050|35=0|49=CL04|56=LVBSG|34=241|52=20150521-15:17:09|10=065|
20150521-15:18:00.251: 8=FIX.4.4|9=54|35=0|34=241|49=LVBSG|52=20150521-15:18:00.251|56=CL04|10=163|
20150521-15:18:09.314: 8=FIX.4.4|9=0050|35=0|49=CL04|56=LVBSG|34=242|52=20150521-15:18:09|10=067|
20150521-15:19:00.251: 8=FIX.4.4|9=54|35=0|34=242|49=LVBSG|52=20150521-15:19:00.251|56=CL04|10=165|
20150521-15:19:09.314: 8=FIX.4.4|9=0050|35=0|49=CL04|56=LVBSG|34=243|52=20150521-15:19:09|10=069|
20150521-15:20:00.251: 8=FIX.4.4|9=54|35=0|34=243|49=LVBSG|52=20150521-15:20:00.251|56=CL04|10=158|
20150521-15:20:09.314: 8=FIX.4.4|9=0050|35=0|49=CL04|56=LVBSG|34=244|52=20150521-15:20:09|10=062|
20150521-15:21:00.251: 8=FIX.4.4|9=54|35=0|34=244|49=LVBSG|52=20150521-15:21:00.251|56=CL04|10=160|
20150521-15:21:09.314: 8=FIX.4.4|9=0050|35=0|49=CL04|56=LVBSG|34=245|52=20150521-15:21:09|10=064|
20150521-15:22:00.251: 8=FIX.4.4|9=54|35=0|34=245|49=LVBSG|52=20150521-15:22:00.251|56=CL04|10=162|
20150521-15:22:09.315: 8=FIX.4.4|9=0050|35=0|49=CL04|56=LVBSG|34=246|52=20150521-15:22:09|10=066|
20150521-15:23:01.251: 8=FIX.4.4|9=54|35=0|34=246|49=LVBSG|52=20150521-15:23:01.251|56=CL04|10=165|
20150521-15:23:09.315: 8=FIX.4.4|9=0050|35=0|49=CL04|56=LVBSG|34=247|52=20150521-15:23:09|10=068|
20150521-15:24:01.251: 8=FIX.4.4|9=54|35=0|34=247|49=LVBSG|52=20150521-15:24:01.251|56=CL04|10=167|
20150521-15:24:09.316: 8=FIX.4.4|9=0050|35=0|49=CL04|56=LVBSG|34=248|52=20150521-15:24:09|10=070|
20150521-15:25:02.251: 8=FIX.4.4|9=54|35=0|34=248|49=LVBSG|52=20150521-15:25:02.251|56=CL04|10=170|
20150521-15:25:09.316: 8=FIX.4.4|9=0050|35=0|49=CL04|56=LVBSG|34=249|52=20150521-15:25:09|10=072|
20150521-15:26:02.256: 8=FIX.4.4|9=54|35=0|34=249|49=LVBSG|52=20150521-15:26:02.256|56=CL04|10=177|
20150521-15:26:09.316: 8=FIX.4.4|9=0050|35=0|49=CL04|56=LVBSG|34=250|52=20150521-15:26:09|10=065|
20150521-15:27:03.251: 8=FIX.4.4|9=54|35=0|34=250|49=LVBSG|52=20150521-15:27:03.251|56=CL04|10=166|
20150521-15:27:09.316: 8=FIX.4.4|9=0050|35=0|49=CL04|56=LVBSG|34=251|52=20150521-15:27:09|10=067|
20150521-15:28:03.251: 8=FIX.4.4|9=54|35=0|34=251|49=LVBSG|52=20150521-15:28:03.251|56=CL04|10=168|
20150521-15:28:09.316: 8=FIX.4.4|9=0050|35=0|49=CL04|56=LVBSG|34=252|52=20150521-15:28:09|10=069|
20150521-15:29:03.251: 8=FIX.4.4|9=54|35=0|34=252|49=LVBSG|52=20150521-15:29:03.251|56=CL04|10=170|
20150521-15:29:09.316: 8=FIX.4.4|9=0050|35=0|49=CL04|56=LVBSG|34=253|52=20150521-15:29:09|10=071|
20150521-15:30:03.251: 8=FIX.4.4|9=54|35=0|34=253|49=LVBSG|52=20150521-15:30:03.251|56=CL04|10=163|
20150521-15:30:09.316: 8=FIX.4.4|9=0050|35=0|49=CL04|56=LVBSG|34=254|52=20150521-15:30:09|10=064|
20150521-15:31:03.251: 8=FIX.4.4|9=54|35=0|34=254|49=LVBSG|52=20150521-15:31:03.251|56=CL04|10=165|
20150521-15:31:09.316: 8=FIX.4.4|9=0050|35=0|49=CL04|56=LVBSG|34=255|52=20150521-15:31:09|10=066|
20150521-15:32:03.251: 8=FIX.4.4|9=54|35=0|34=255|49=LVBSG|52=20150521-15:32:03.251|56=CL04|10=167|
20150521-15:32:09.316: 8=FIX.4.4|9=0050|35=0|49=CL04|56=LVBSG|34=256|52=20150521-15:32:09|10=068|
20150521-15:33:03.251: 8=FIX.4.4|9=54|35=0|34=256|49=LVBSG|52=20150521-15:33:03.251|56=CL04|10=169|
20150521-15:33:09.316: 8=FIX.4.4|9=0050|35=0|49=CL04|56=LVBSG|34=257|52=20150521-15:33:09|10=070|
20150521-15:34:03.251: 8=FIX.4.4|9=54|35=0|34=257|49=LVBSG|52=20150521-15:34:03.251|56=CL04|10=171|
20150521-15:34:09.317: 8=FIX.4.4|9=0050|35=0|49=CL04|56=LVBSG|34=258|52=20150521-15:34:09|10=072|
20150521-15:35:03.251: 8=FIX.4.4|9=54|35=0|34=258|49=LVBSG|52=20150521-15:35:03.251|56=CL04|10=173|
20150521-15:35:09.317: 8=FIX.4.4|9=0050|35=0|49=CL04|56=LVBSG|34=259|52=20150521-15:35:09|10=074|
20150521-15:36:03.251: 8=FIX.4.4|9=54|35=0|34=259|49=LVBSG|52=20150521-15:36:03.251|56=CL04|10=175|
20150521-15:36:09.319: 8=FIX.4.4|9=0050|35=0|49=CL04|56=LVBSG|34=260|52=20150521-15:36:09|10=067|
20150521-15:37:04.251: 8=FIX.4.4|9=54|35=0|34=260|49=LVBSG|52=20150521-15:37:04.251|56=CL04|10=169|
20150521-15:37:09.323: 8=FIX.4.4|9=0050|35=0|49=CL04|56=LVBSG|34=261|52=20150521-15:37:09|10=069|
20150521-15:38:04.251: 8=FIX.4.4|9=54|35=0|34=261|49=LVBSG|52=20150521-15:38:04.251|56=CL04|10=171|
20150521-15:38:09.318: 8=FIX.4.4|9=0050|35=0|49=CL04|56=LVBSG|34=262|52=20150521-15:38:09|10=071|
20150521-15:39:04.251: 8=FIX.4.4|9=54|35=0|34=262|49=LVBSG|52=20150521-15:39:04.251|56=CL04|10=173|
20150521-15:39:09.320: 8=FIX.4.4|9=0050|35=0|49=CL04|56=LVBSG|34=263|52=20150521-15:39:09|10=073|
20150521-15:40:04.251: 8=FIX.4.4|9=54|35=0|34=263|49=LVBSG|52=20150521-15:40:04.251|56=CL04|10=166|
20150521-15:40:09.318: 8=FIX.4.4|9=0050|35=0|49=CL04|56=LVBSG|34=264|52=20150521-15:40:09|10=066|
20150521-15:41:04.251: 8=FIX.4.4|9=54|35=0|34=264|49=LVBSG|52=20150521-15:41:04.251|56=CL04|10=168|
20150521-15:41:09.318: 8=FIX.4.4|9=0050|35=0|49=CL04|56=LVBSG|34=265|52=20150521-15:41:09|10=068|
20150521-15:42:04.251: 8=FIX.4.4|9=54|35=0|34=265|49=LVBSG|52=20150521-15:42:04.251|56=CL04|10=170|
20150521-15:42:09.318: 8=FIX.4.4|9=0050|35=0|49=CL04|56=LVBSG|34=266|52=20150521-15:42:09|10=070|
20150521-15:43:04.251: 8=FIX.4.4|9=54|35=0|34=266|49=LVBSG|52=20150521-15:43:04.251|56=CL04|10=172|
20150521-15:43:09.318: 8=FIX.4.4|9=0050|35=0|49=CL04|56=LVBSG|34=267|52=20150521-15:43:09|10=072|
20150521-15:44:04.251: 8=FIX.4.4|9=54|35=0|34=267|49=LVBSG|52=20150521-15:44:04.251|56=CL04|10=174|
20150521-15:44:09.319: 8=FIX.4.4|9=0050|35=0|49=CL04|56=LVBSG|34=268|52=20150521-15:44:09|10=074|
20150521-15:45:04.251: 8=FIX.4.4|9=54|35=0|34=268|49=LVBSG|52=20150521-15:45:04.251|56=CL04|10=176|
20150521-15:45:09.319: 8=FIX.4.4|9=0050|35=0|49=CL04|56=LVBSG|34=269|52=20150521-15:45:09|10=076|
20150521-15:46:04.251: 8=FIX.4.4|9=54|35=0|34=269|49=LVBSG|52=20150521-15:46:04.251|56=CL04|10=178|
20150521-15:46:09.319: 8=FIX.4.4|9=0050|35=0|49=CL04|56=LVBSG|34=270|52=20150521-15:46:09|10=069|
20150521-15:47:05.251: 8=FIX.4.4|9=54|35=0|34=270|49=LVBSG|52=20150521-15:47:05.251|56=CL04|10=172|
20150521-15:47:09.319: 8=FIX.4.4|9=0050|35=0|49=CL04|56=LVBSG|34=271|52=20150521-15:47:09|10=071|
20150521-15:48:06.251: 8=FIX.4.4|9=54|35=0|34=271|49=LVBSG|52=20150521-15:48:06.251|56=CL04|10=175|
20150521-15:48:09.319: 8=FIX.4.4|9=0050|35=0|49=CL04|56=LVBSG|34=272|52=20150521-15:48:09|10=073|
20150521-15:49:06.251: 8=FIX.4.4|9=54|35=0|34=272|49=LVBSG|52=20150521-15:49:06.251|56=CL04|10=177|
20150521-15:49:09.320: 8=FIX.4.4|9=0050|35=0|49=CL04|56=LVBSG|34=273|52=20150521-15:49:09|10=075|
20150521-15:50:07.251: 8=FIX.4.4|9=54|35=0|34=273|49=LVBSG|52=20150521-15:50:07.251|56=CL04|10=171|
20150521-15:50:09.319: 8=FIX.4.4|9=0050|35=0|49=CL04|56=LVBSG|34=274|52=20150521-15:50:09|10=068|
20150521-15:51:07.251: 8=FIX.4.4|9=54|35=0|34=274|49=LVBSG|52=20150521-15:51:07.251|56=CL04|10=173|
20150521-15:51:09.319: 8=FIX.4.4|9=0050|35=0|49=CL04|56=LVBSG|34=275|52=20150521-15:51:09|10=070|
20150521-15:52:07.251: 8=FIX.4.4|9=54|35=0|34=275|49=LVBSG|52=20150521-15:52:07.251|56=CL04|10=175|
20150521-15:52:09.319: 8=FIX.4.4|9=0050|35=0|49=CL04|56=LVBSG|34=276|52=20150521-15:52:09|10=072|
20150521-15:53:07.251: 8=FIX.4.4|9=54|35=0|34=276|49=LVBSG|52=20150521-15:53:07.251|56=CL04|10=177|
20150521-15:53:09.320: 8=FIX.4.4|9=0050|35=0|49=CL04|56=LVBSG|34=277|52=20150521-15:53:09|10=074|
20150521-15:54:07.251: 8=FIX.4.4|9=54|35=0|34=277|49=LVBSG|52=20150521-15:54:07.251|56=CL04|10=179|
20150521-15:54:09.321: 8=FIX.4.4|9=0050|35=0|49=CL04|56=LVBSG|34=278|52=20150521-15:54:09|10=076|
20150521-15:55:07.251: 8=FIX.4.4|9=54|35=0|34=278|49=LVBSG|52=20150521-15:55:07.251|56=CL04|10=181|
20150521-15:55:09.322: 8=FIX.4.4|9=0050|35=0|49=CL04|56=LVBSG|34=279|52=20150521-15:55:09|10=078|
20150521-15:56:08.251: 8=FIX.4.4|9=54|35=0|34=279|49=LVBSG|52=20150521-15:56:08.251|56=CL04|10=184|
20150521-15:56:09.323: 8=FIX.4.4|9=0050|35=0|49=CL04|56=LVBSG|34=280|52=20150521-15:56:09|10=071|
20150521-15:57:08.251: 8=FIX.4.4|9=54|35=0|34=280|49=LVBSG|52=20150521-15:57:08.251|56=CL04|10=177|
20150521-15:57:09.325: 8=FIX.4.4|9=0050|35=0|49=CL04|56=LVBSG|34=281|52=20150521-15:57:09|10=073|
20150521-15:58:08.251: 8=FIX.4.4|9=54|35=0|34=281|49=LVBSG|52=20150521-15:58:08.251|56=CL04|10=179|
20150521-15:58:09.323: 8=FIX.4.4|9=0050|35=0|49=CL04|56=LVBSG|34=282|52=20150521-15:58:09|10=075|
20150521-15:59:08.251: 8=FIX.4.4|9=54|35=0|34=282|49=LVBSG|52=20150521-15:59:08.251|56=CL04|10=181|
20150521-15:59:09.326: 8=FIX.4.4|9=0050|35=0|49=CL04|56=LVBSG|34=283|52=20150521-15:59:09|10=077|
20150521-16:00:08.251: 8=FIX.4.4|9=54|35=0|34=283|49=LVBSG|52=20150521-16:00:08.251|56=CL04|10=169|
20150521-16:00:09.324: 8=FIX.4.4|9=0050|35=0|49=CL04|56=LVBSG|34=284|52=20150521-16:00:09|10=065|
20150521-16:01:09.251: 8=FIX.4.4|9=54|35=0|34=284|49=LVBSG|52=20150521-16:01:09.251|56=CL04|10=172|
20150521-16:01:09.325: 8=FIX.4.4|9=0050|35=0|49=CL04|56=LVBSG|34=285|52=20150521-16:01:09|10=067|
20150521-16:02:09.251: 8=FIX.4.4|9=54|35=0|34=285|49=LVBSG|52=20150521-16:02:09.251|56=CL04|10=174|
20150521-16:02:09.326: 8=FIX.4.4|9=0050|35=0|49=CL04|56=LVBSG|34=286|52=20150521-16:02:09|10=069|
20150521-16:03:09.251: 8=FIX.4.4|9=54|35=0|34=286|49=LVBSG|52=20150521-16:03:09.251|56=CL04|10=176|
20150521-16:03:09.324: 8=FIX.4.4|9=0050|35=0|49=CL04|56=LVBSG|34=287|52=20150521-16:03:09|10=071|
20150521-16:04:09.251: 8=FIX.4.4|9=54|35=0|34=287|49=LVBSG|52=20150521-16:04:09.251|56=CL04|10=178|
20150521-16:04:09.326: 8=FIX.4.4|9=0050|35=0|49=CL04|56=LVBSG|34=288|52=20150521-16:04:09|10=073|
20150521-16:05:09.251: 8=FIX.4.4|9=54|35=0|34=288|49=LVBSG|52=20150521-16:05:09.251|56=CL04|10=180|
20150521-16:05:09.325: 8=FIX.4.4|9=0050|35=0|49=CL04|56=LVBSG|34=289|52=20150521-16:05:09|10=075|
20150521-16:06:09.251: 8=FIX.4.4|9=54|35=0|34=289|49=LVBSG|52=20150521-16:06:09.251|56=CL04|10=182|
20150521-16:06:09.326: 8=FIX.4.4|9=0050|35=0|49=CL04|56=LVBSG|34=290|52=20150521-16:06:09|10=068|
20150521-16:07:09.251: 8=FIX.4.4|9=54|35=0|34=290|49=LVBSG|52=20150521-16:07:09.251|56=CL04|10=175|
20150521-16:07:09.325: 8=FIX.4.4|9=0050|35=0|49=CL04|56=LVBSG|34=291|52=20150521-16:07:09|10=070|
20150521-16:08:09.251: 8=FIX.4.4|9=54|35=0|34=291|49=LVBSG|52=20150521-16:08:09.251|56=CL04|10=177|
20150521-16:08:09.331: 8=FIX.4.4|9=0050|35=0|49=CL04|56=LVBSG|34=292|52=20150521-16:08:09|10=072|
20150521-16:09:09.251: 8=FIX.4.4|9=54|35=0|34=292|49=LVBSG|52=20150521-16:09:09.251|56=CL04|10=179|
20150521-16:09:09.327: 8=FIX.4.4|9=0050|35=0|49=CL04|56=LVBSG|34=293|52=20150521-16:09:09|10=074|
20150521-16:10:09.251: 8=FIX.4.4|9=54|35=0|34=293|49=LVBSG|52=20150521-16:10:09.251|56=CL04|10=172|
20150521-16:10:09.325: 8=FIX.4.4|9=0050|35=0|49=CL04|56=LVBSG|34=294|52=20150521-16:10:09|10=067|
20150521-16:11:09.251: 8=FIX.4.4|9=54|35=0|34=294|49=LVBSG|52=20150521-16:11:09.251|56=CL04|10=174|
20150521-16:11:09.327: 8=FIX.4.4|9=0050|35=0|49=CL04|56=LVBSG|34=295|52=20150521-16:11:09|10=069|
20150521-16:12:09.251: 8=FIX.4.4|9=54|35=0|34=295|49=LVBSG|52=20150521-16:12:09.251|56=CL04|10=176|
20150521-16:12:09.326: 8=FIX.4.4|9=0050|35=0|49=CL04|56=LVBSG|34=296|52=20150521-16:12:09|10=071|
20150521-16:13:09.251: 8=FIX.4.4|9=54|35=0|34=296|49=LVBSG|52=20150521-16:13:09.251|56=CL04|10=178|
20150521-16:13:09.326: 8=FIX.4.4|9=0050|35=0|49=CL04|56=LVBSG|34=297|52=20150521-16:13:09|10=073|
20150521-16:14:09.251: 8=FIX.4.4|9=54|35=0|34=297|49=LVBSG|52=20150521-16:14:09.251|56=CL04|10=180|
20150521-16:14:09.325: 8=FIX.4.4|9=0050|35=0|49=CL04|56=LVBSG|34=298|52=20150521-16:14:09|10=075|
20150521-16:15:09.251: 8=FIX.4.4|9=54|35=0|34=298|49=LVBSG|52=20150521-16:15:09.251|56=CL04|10=182|
20150521-16:15:09.325: 8=FIX.4.4|9=0050|35=0|49=CL04|56=LVBSG|34=299|52=20150521-16:15:09|10=077|
20150521-16:16:09.251: 8=FIX.4.4|9=54|35=0|34=299|49=LVBSG|52=20150521-16:16:09.251|56=CL04|10=184|
20150521-16:16:09.329: 8=FIX.4.4|9=0050|35=0|49=CL04|56=LVBSG|34=300|52=20150521-16:16:09|10=061|
20150521-16:17:09.251: 8=FIX.4.4|9=54|35=0|34=300|49=LVBSG|52=20150521-16:17:09.251|56=CL04|10=168|
20150521-16:17:09.326: 8=FIX.4.4|9=0050|35=0|49=CL04|56=LVBSG|34=301|52=20150521-16:17:09|10=063|
20150521-16:18:09.325: 8=FIX.4.4|9=0050|35=0|49=CL04|56=LVBSG|34=302|52=20150521-16:18:09|10=065|
20150521-16:18:09.326: 8=FIX.4.4|9=54|35=0|34=301|49=LVBSG|52=20150521-16:18:09.326|56=CL04|10=173|
20150521-16:19:09.325: 8=FIX.4.4|9=0050|35=0|49=CL04|56=LVBSG|34=303|52=20150521-16:19:09|10=067|
20150521-16:19:09.326: 8=FIX.4.4|9=54|35=0|34=302|49=LVBSG|52=20150521-16:19:09.326|56=CL04|10=175|
20150521-16:20:09.326: 8=FIX.4.4|9=0050|35=0|49=CL04|56=LVBSG|34=304|52=20150521-16:20:09|10=060|
20150521-16:20:09.327: 8=FIX.4.4|9=54|35=0|34=303|49=LVBSG|52=20150521-16:20:09.327|56=CL04|10=169|
20150521-16:21:09.326: 8=FIX.4.4|9=0050|35=0|49=CL04|56=LVBSG|34=305|52=20150521-16:21:09|10=062|
20150521-16:21:10.251: 8=FIX.4.4|9=54|35=0|34=304|49=LVBSG|52=20150521-16:21:10.251|56=CL04|10=159|
20150521-16:22:09.327: 8=FIX.4.4|9=0050|35=0|49=CL04|56=LVBSG|34=306|52=20150521-16:22:09|10=064|
20150521-16:22:10.251: 8=FIX.4.4|9=54|35=0|34=305|49=LVBSG|52=20150521-16:22:10.251|56=CL04|10=161|
20150521-16:23:09.327: 8=FIX.4.4|9=0050|35=0|49=CL04|56=LVBSG|34=307|52=20150521-16:23:09|10=066|
20150521-16:23:11.251: 8=FIX.4.4|9=54|35=0|34=306|49=LVBSG|52=20150521-16:23:11.251|56=CL04|10=164|
20150521-16:24:09.328: 8=FIX.4.4|9=0050|35=0|49=CL04|56=LVBSG|34=308|52=20150521-16:24:09|10=068|
20150521-16:24:11.251: 8=FIX.4.4|9=54|35=0|34=307|49=LVBSG|52=20150521-16:24:11.251|56=CL04|10=166|
20150521-16:25:09.327: 8=FIX.4.4|9=0050|35=0|49=CL04|56=LVBSG|34=309|52=20150521-16:25:09|10=070|
20150521-16:25:11.251: 8=FIX.4.4|9=54|35=0|34=308|49=LVBSG|52=20150521-16:25:11.251|56=CL04|10=168|
20150521-16:26:09.328: 8=FIX.4.4|9=0050|35=0|49=CL04|56=LVBSG|34=310|52=20150521-16:26:09|10=063|
20150521-16:26:11.251: 8=FIX.4.4|9=54|35=0|34=309|49=LVBSG|52=20150521-16:26:11.251|56=CL04|10=170|
20150521-16:27:09.328: 8=FIX.4.4|9=0050|35=0|49=CL04|56=LVBSG|34=311|52=20150521-16:27:09|10=065|
20150521-16:27:11.251: 8=FIX.4.4|9=54|35=0|34=310|49=LVBSG|52=20150521-16:27:11.251|56=CL04|10=163|
20150521-16:28:09.329: 8=FIX.4.4|9=0050|35=0|49=CL04|56=LVBSG|34=312|52=20150521-16:28:09|10=067|
20150521-16:28:11.251: 8=FIX.4.4|9=54|35=0|34=311|49=LVBSG|52=20150521-16:28:11.251|56=CL04|10=165|
20150521-16:29:09.328: 8=FIX.4.4|9=0050|35=0|49=CL04|56=LVBSG|34=313|52=20150521-16:29:09|10=069|
20150521-16:29:11.251: 8=FIX.4.4|9=54|35=0|34=312|49=LVBSG|52=20150521-16:29:11.251|56=CL04|10=167|
20150521-16:30:09.329: 8=FIX.4.4|9=0050|35=0|49=CL04|56=LVBSG|34=314|52=20150521-16:30:09|10=062|
20150521-16:30:11.251: 8=FIX.4.4|9=54|35=0|34=313|49=LVBSG|52=20150521-16:30:11.251|56=CL04|10=160|
20150521-16:31:09.329: 8=FIX.4.4|9=0050|35=0|49=CL04|56=LVBSG|34=315|52=20150521-16:31:09|10=064|
20150521-16:31:11.251: 8=FIX.4.4|9=54|35=0|34=314|49=LVBSG|52=20150521-16:31:11.251|56=CL04|10=162|
20150521-16:32:09.328: 8=FIX.4.4|9=0050|35=0|49=CL04|56=LVBSG|34=316|52=20150521-16:32:09|10=066|
20150521-16:32:11.251: 8=FIX.4.4|9=54|35=0|34=315|49=LVBSG|52=20150521-16:32:11.251|56=CL04|10=164|
20150521-16:33:09.329: 8=FIX.4.4|9=0050|35=0|49=CL04|56=LVBSG|34=317|52=20150521-16:33:09|10=068|
20150521-16:33:11.251: 8=FIX.4.4|9=54|35=0|34=316|49=LVBSG|52=20150521-16:33:11.251|56=CL04|10=166|
20150521-16:34:09.328: 8=FIX.4.4|9=0050|35=0|49=CL04|56=LVBSG|34=318|52=20150521-16:34:09|10=070|
20150521-16:34:11.251: 8=FIX.4.4|9=54|35=0|34=317|49=LVBSG|52=20150521-16:34:11.251|56=CL04|10=168|
20150521-16:35:09.329: 8=FIX.4.4|9=0050|35=0|49=CL04|56=LVBSG|34=319|52=20150521-16:35:09|10=072|
20150521-16:35:11.251: 8=FIX.4.4|9=54|35=0|34=318|49=LVBSG|52=20150521-16:35:11.251|56=CL04|10=170|
20150521-16:36:09.335: 8=FIX.4.4|9=0050|35=0|49=CL04|56=LVBSG|34=320|52=20150521-16:36:09|10=065|
20150521-16:36:11.251: 8=FIX.4.4|9=54|35=0|34=319|49=LVBSG|52=20150521-16:36:11.251|56=CL04|10=172|
20150521-16:37:09.330: 8=FIX.4.4|9=0050|35=0|49=CL04|56=LVBSG|34=321|52=20150521-16:37:09|10=067|
20150521-16:37:12.251: 8=FIX.4.4|9=54|35=0|34=320|49=LVBSG|52=20150521-16:37:12.251|56=CL04|10=166|
20150521-16:38:09.330: 8=FIX.4.4|9=0050|35=0|49=CL04|56=LVBSG|34=322|52=20150521-16:38:09|10=069|
20150521-16:38:13.251: 8=FIX.4.4|9=54|35=0|34=321|49=LVBSG|52=20150521-16:38:13.251|56=CL04|10=169|
20150521-16:39:09.330: 8=FIX.4.4|9=0050|35=0|49=CL04|56=LVBSG|34=323|52=20150521-16:39:09|10=071|
20150521-16:39:13.251: 8=FIX.4.4|9=54|35=0|34=322|49=LVBSG|52=20150521-16:39:13.251|56=CL04|10=171|
20150521-16:40:09.331: 8=FIX.4.4|9=0050|35=0|49=CL04|56=LVBSG|34=324|52=20150521-16:40:09|10=064|
20150521-16:40:13.251: 8=FIX.4.4|9=54|35=0|34=323|49=LVBSG|52=20150521-16:40:13.251|56=CL04|10=164|
20150521-16:41:09.331: 8=FIX.4.4|9=0050|35=0|49=CL04|56=LVBSG|34=325|52=20150521-16:41:09|10=066|
20150521-16:41:14.251: 8=FIX.4.4|9=54|35=0|34=324|49=LVBSG|52=20150521-16:41:14.251|56=CL04|10=167|
20150521-16:42:09.332: 8=FIX.4.4|9=0050|35=0|49=CL04|56=LVBSG|34=326|52=20150521-16:42:09|10=068|
20150521-16:42:14.251: 8=FIX.4.4|9=54|35=0|34=325|49=LVBSG|52=20150521-16:42:14.251|56=CL04|10=169|
20150521-16:43:09.332: 8=FIX.4.4|9=0050|35=0|49=CL04|56=LVBSG|34=327|52=20150521-16:43:09|10=070|
20150521-16:43:14.251: 8=FIX.4.4|9=54|35=0|34=326|49=LVBSG|52=20150521-16:43:14.251|56=CL04|10=171|
20150521-16:44:09.333: 8=FIX.4.4|9=0050|35=0|49=CL04|56=LVBSG|34=328|52=20150521-16:44:09|10=072|
20150521-16:44:14.251: 8=FIX.4.4|9=54|35=0|34=327|49=LVBSG|52=20150521-16:44:14.251|56=CL04|10=173|
20150521-16:45:09.333: 8=FIX.4.4|9=0050|35=0|49=CL04|56=LVBSG|34=329|52=20150521-16:45:09|10=074|
20150521-16:45:14.251: 8=FIX.4.4|9=54|35=0|34=328|49=LVBSG|52=20150521-16:45:14.251|56=CL04|10=175|
20150521-16:46:09.332: 8=FIX.4.4|9=0050|35=0|49=CL04|56=LVBSG|34=330|52=20150521-16:46:09|10=067|
20150521-16:46:14.251: 8=FIX.4.4|9=54|35=0|34=329|49=LVBSG|52=20150521-16:46:14.251|56=CL04|10=177|
20150521-16:47:09.333: 8=FIX.4.4|9=0050|35=0|49=CL04|56=LVBSG|34=331|52=20150521-16:47:09|10=069|
20150521-16:47:14.251: 8=FIX.4.4|9=54|35=0|34=330|49=LVBSG|52=20150521-16:47:14.251|56=CL04|10=170|
20150521-16:48:09.333: 8=FIX.4.4|9=0050|35=0|49=CL04|56=LVBSG|34=332|52=20150521-16:48:09|10=071|
20150521-16:48:14.251: 8=FIX.4.4|9=54|35=0|34=331|49=LVBSG|52=20150521-16:48:14.251|56=CL04|10=172|
20150521-16:49:09.332: 8=FIX.4.4|9=0050|35=0|49=CL04|56=LVBSG|34=333|52=20150521-16:49:09|10=073|
20150521-16:49:14.251: 8=FIX.4.4|9=54|35=0|34=332|49=LVBSG|52=20150521-16:49:14.251|56=CL04|10=174|
20150521-16:50:09.333: 8=FIX.4.4|9=0050|35=0|49=CL04|56=LVBSG|34=334|52=20150521-16:50:09|10=066|
20150521-16:50:14.251: 8=FIX.4.4|9=54|35=0|34=333|49=LVBSG|52=20150521-16:50:14.251|56=CL04|10=167|
20150521-16:51:09.333: 8=FIX.4.4|9=0050|35=0|49=CL04|56=LVBSG|34=335|52=20150521-16:51:09|10=068|
20150521-16:51:14.251: 8=FIX.4.4|9=54|35=0|34=334|49=LVBSG|52=20150521-16:51:14.251|56=CL04|10=169|
20150521-16:52:09.333: 8=FIX.4.4|9=0050|35=0|49=CL04|56=LVBSG|34=336|52=20150521-16:52:09|10=070|
20150521-16:52:14.251: 8=FIX.4.4|9=54|35=0|34=335|49=LVBSG|52=20150521-16:52:14.251|56=CL04|10=171|
20150521-16:53:09.332: 8=FIX.4.4|9=0050|35=0|49=CL04|56=LVBSG|34=337|52=20150521-16:53:09|10=072|
20150521-16:53:14.251: 8=FIX.4.4|9=54|35=0|34=336|49=LVBSG|52=20150521-16:53:14.251|56=CL04|10=173|
20150521-16:54:09.333: 8=FIX.4.4|9=0050|35=0|49=CL04|56=LVBSG|34=338|52=20150521-16:54:09|10=074|
20150521-16:54:14.251: 8=FIX.4.4|9=54|35=0|34=337|49=LVBSG|52=20150521-16:54:14.251|56=CL04|10=175|
20150521-16:55:09.333: 8=FIX.4.4|9=0050|35=0|49=CL04|56=LVBSG|34=339|52=20150521-16:55:09|10=076|
20150521-16:55:14.251: 8=FIX.4.4|9=54|35=0|34=338|49=LVBSG|52=20150521-16:55:14.251|56=CL04|10=177|
20150521-16:56:09.333: 8=FIX.4.4|9=0050|35=0|49=CL04|56=LVBSG|34=340|52=20150521-16:56:09|10=069|
20150521-16:56:14.251: 8=FIX.4.4|9=54|35=0|34=339|49=LVBSG|52=20150521-16:56:14.251|56=CL04|10=179|
20150521-16:57:09.333: 8=FIX.4.4|9=0050|35=0|49=CL04|56=LVBSG|34=341|52=20150521-16:57:09|10=071|
20150521-16:57:14.251: 8=FIX.4.4|9=54|35=0|34=340|49=LVBSG|52=20150521-16:57:14.251|56=CL04|10=172|
20150521-16:58:09.334: 8=FIX.4.4|9=0050|35=0|49=CL04|56=LVBSG|34=342|52=20150521-16:58:09|10=073|
20150521-16:58:14.251: 8=FIX.4.4|9=54|35=0|34=341|49=LVBSG|52=20150521-16:58:14.251|56=CL04|10=174|
20150521-16:59:09.335: 8=FIX.4.4|9=0050|35=0|49=CL04|56=LVBSG|34=343|52=20150521-16:59:09|10=075|
20150521-16:59:14.251: 8=FIX.4.4|9=54|35=0|34=342|49=LVBSG|52=20150521-16:59:14.251|56=CL04|10=176|
20150521-17:00:09.335: 8=FIX.4.4|9=0050|35=0|49=CL04|56=LVBSG|34=344|52=20150521-17:00:09|10=063|
20150521-17:00:14.251: 8=FIX.4.4|9=54|35=0|34=343|49=LVBSG|52=20150521-17:00:14.251|56=CL04|10=164|
20150521-17:01:09.336: 8=FIX.4.4|9=0050|35=0|49=CL04|56=LVBSG|34=345|52=20150521-17:01:09|10=065|
20150521-17:01:14.251: 8=FIX.4.4|9=54|35=0|34=344|49=LVBSG|52=20150521-17:01:14.251|56=CL04|10=166|
20150521-17:02:09.339: 8=FIX.4.4|9=0050|35=0|49=CL04|56=LVBSG|34=346|52=20150521-17:02:09|10=067|
20150521-17:02:14.251: 8=FIX.4.4|9=54|35=0|34=345|49=LVBSG|52=20150521-17:02:14.251|56=CL04|10=168|
20150521-17:03:09.342: 8=FIX.4.4|9=0050|35=0|49=CL04|56=LVBSG|34=347|52=20150521-17:03:09|10=069|
20150521-17:03:14.251: 8=FIX.4.4|9=54|35=0|34=346|49=LVBSG|52=20150521-17:03:14.251|56=CL04|10=170|
20150521-17:04:09.343: 8=FIX.4.4|9=0050|35=0|49=CL04|56=LVBSG|34=348|52=20150521-17:04:09|10=071|
20150521-17:04:14.251: 8=FIX.4.4|9=54|35=0|34=347|49=LVBSG|52=20150521-17:04:14.251|56=CL04|10=172|
20150521-17:05:09.357: 8=FIX.4.4|9=0050|35=0|49=CL04|56=LVBSG|34=349|52=20150521-17:05:09|10=073|
20150521-17:05:14.251: 8=FIX.4.4|9=54|35=0|34=348|49=LVBSG|52=20150521-17:05:14.251|56=CL04|10=174|
20150521-17:06:09.344: 8=FIX.4.4|9=0050|35=0|49=CL04|56=LVBSG|34=350|52=20150521-17:06:09|10=066|
20150521-17:06:14.251: 8=FIX.4.4|9=54|35=0|34=349|49=LVBSG|52=20150521-17:06:14.251|56=CL04|10=176|
20150521-17:07:09.344: 8=FIX.4.4|9=0050|35=0|49=CL04|56=LVBSG|34=351|52=20150521-17:07:09|10=068|
20150521-17:07:15.251: 8=FIX.4.4|9=54|35=0|34=350|49=LVBSG|52=20150521-17:07:15.251|56=CL04|10=170|
20150521-17:08:09.345: 8=FIX.4.4|9=0050|35=0|49=CL04|56=LVBSG|34=352|52=20150521-17:08:09|10=070|
20150521-17:08:15.251: 8=FIX.4.4|9=54|35=0|34=351|49=LVBSG|52=20150521-17:08:15.251|56=CL04|10=172|
20150521-17:09:09.345: 8=FIX.4.4|9=0050|35=0|49=CL04|56=LVBSG|34=353|52=20150521-17:09:09|10=072|
20150521-17:09:15.251: 8=FIX.4.4|9=54|35=0|34=352|49=LVBSG|52=20150521-17:09:15.251|56=CL04|10=174|
20150521-17:10:09.344: 8=FIX.4.4|9=0050|35=0|49=CL04|56=LVBSG|34=354|52=20150521-17:10:09|10=065|
20150521-17:10:15.251: 8=FIX.4.4|9=54|35=0|34=353|49=LVBSG|52=20150521-17:10:15.251|56=CL04|10=167|
20150521-17:11:09.345: 8=FIX.4.4|9=0050|35=0|49=CL04|56=LVBSG|34=355|52=20150521-17:11:09|10=067|
20150521-17:11:15.251: 8=FIX.4.4|9=54|35=0|34=354|49=LVBSG|52=20150521-17:11:15.251|56=CL04|10=169|
20150521-17:12:09.345: 8=FIX.4.4|9=0050|35=0|49=CL04|56=LVBSG|34=356|52=20150521-17:12:09|10=069|
20150521-17:12:16.251: 8=FIX.4.4|9=54|35=0|34=355|49=LVBSG|52=20150521-17:12:16.251|56=CL04|10=172|
20150521-17:13:09.345: 8=FIX.4.4|9=0050|35=0|49=CL04|56=LVBSG|34=357|52=20150521-17:13:09|10=071|
20150521-17:13:16.251: 8=FIX.4.4|9=54|35=0|34=356|49=LVBSG|52=20150521-17:13:16.251|56=CL04|10=174|
20150521-17:14:09.346: 8=FIX.4.4|9=0050|35=0|49=CL04|56=LVBSG|34=358|52=20150521-17:14:09|10=073|
20150521-17:14:16.251: 8=FIX.4.4|9=54|35=0|34=357|49=LVBSG|52=20150521-17:14:16.251|56=CL04|10=176|
20150521-17:15:09.346: 8=FIX.4.4|9=0050|35=0|49=CL04|56=LVBSG|34=359|52=20150521-17:15:09|10=075|
20150521-17:15:16.251: 8=FIX.4.4|9=54|35=0|34=358|49=LVBSG|52=20150521-17:15:16.251|56=CL04|10=178|
20150521-17:16:09.346: 8=FIX.4.4|9=0050|35=0|49=CL04|56=LVBSG|34=360|52=20150521-17:16:09|10=068|
20150521-17:16:16.251: 8=FIX.4.4|9=54|35=0|34=359|49=LVBSG|52=20150521-17:16:16.251|56=CL04|10=180|
20150521-17:17:09.346: 8=FIX.4.4|9=0050|35=0|49=CL04|56=LVBSG|34=361|52=20150521-17:17:09|10=070|
20150521-17:17:16.251: 8=FIX.4.4|9=54|35=0|34=360|49=LVBSG|52=20150521-17:17:16.251|56=CL04|10=173|
20150521-17:18:09.347: 8=FIX.4.4|9=0050|35=0|49=CL04|56=LVBSG|34=362|52=20150521-17:18:09|10=072|
20150521-17:18:16.251: 8=FIX.4.4|9=54|35=0|34=361|49=LVBSG|52=20150521-17:18:16.251|56=CL04|10=175|
20150521-17:19:09.348: 8=FIX.4.4|9=0050|35=0|49=CL04|56=LVBSG|34=363|52=20150521-17:19:09|10=074|
20150521-17:19:16.251: 8=FIX.4.4|9=54|35=0|34=362|49=LVBSG|52=20150521-17:19:16.251|56=CL04|10=177|
20150521-17:20:09.349: 8=FIX.4.4|9=0050|35=0|49=CL04|56=LVBSG|34=364|52=20150521-17:20:09|10=067|
20150521-17:20:16.251: 8=FIX.4.4|9=54|35=0|34=363|49=LVBSG|52=20150521-17:20:16.251|56=CL04|10=170|
20150521-17:21:09.349: 8=FIX.4.4|9=0050|35=0|49=CL04|56=LVBSG|34=365|52=20150521-17:21:09|10=069|
20150521-17:21:17.251: 8=FIX.4.4|9=54|35=0|34=364|49=LVBSG|52=20150521-17:21:17.251|56=CL04|10=173|
20150521-17:22:09.349: 8=FIX.4.4|9=0050|35=0|49=CL04|56=LVBSG|34=366|52=20150521-17:22:09|10=071|
20150521-17:22:17.251: 8=FIX.4.4|9=54|35=0|34=365|49=LVBSG|52=20150521-17:22:17.251|56=CL04|10=175|
20150521-17:23:09.348: 8=FIX.4.4|9=0050|35=0|49=CL04|56=LVBSG|34=367|52=20150521-17:23:09|10=073|
20150521-17:23:17.251: 8=FIX.4.4|9=54|35=0|34=366|49=LVBSG|52=20150521-17:23:17.251|56=CL04|10=177|
20150521-17:24:09.349: 8=FIX.4.4|9=0050|35=0|49=CL04|56=LVBSG|34=368|52=20150521-17:24:09|10=075|
20150521-17:24:18.251: 8=FIX.4.4|9=54|35=0|34=367|49=LVBSG|52=20150521-17:24:18.251|56=CL04|10=180|
20150521-17:25:09.351: 8=FIX.4.4|9=0050|35=0|49=CL04|56=LVBSG|34=369|52=20150521-17:25:09|10=077|
20150521-17:25:18.251: 8=FIX.4.4|9=54|35=0|34=368|49=LVBSG|52=20150521-17:25:18.251|56=CL04|10=182|
20150521-17:26:09.354: 8=FIX.4.4|9=0050|35=0|49=CL04|56=LVBSG|34=370|52=20150521-17:26:09|10=070|
20150521-17:26:18.251: 8=FIX.4.4|9=54|35=0|34=369|49=LVBSG|52=20150521-17:26:18.251|56=CL04|10=184|
20150521-17:27:09.350: 8=FIX.4.4|9=0050|35=0|49=CL04|56=LVBSG|34=371|52=20150521-17:27:09|10=072|
20150521-17:27:18.251: 8=FIX.4.4|9=54|35=0|34=370|49=LVBSG|52=20150521-17:27:18.251|56=CL04|10=177|
20150521-17:28:09.371: 8=FIX.4.4|9=0050|35=0|49=CL04|56=LVBSG|34=372|52=20150521-17:28:09|10=074|
20150521-17:28:19.251: 8=FIX.4.4|9=54|35=0|34=371|49=LVBSG|52=20150521-17:28:19.251|56=CL04|10=180|
20150521-17:29:09.353: 8=FIX.4.4|9=0050|35=0|49=CL04|56=LVBSG|34=373|52=20150521-17:29:09|10=076|
20150521-17:29:19.251: 8=FIX.4.4|9=54|35=0|34=372|49=LVBSG|52=20150521-17:29:19.251|56=CL04|10=182|
20150521-17:30:09.368: 8=FIX.4.4|9=0050|35=0|49=CL04|56=LVBSG|34=374|52=20150521-17:30:09|10=069|
20150521-17:30:19.251: 8=FIX.4.4|9=54|35=0|34=373|49=LVBSG|52=20150521-17:30:19.251|56=CL04|10=175|
20150521-17:31:09.359: 8=FIX.4.4|9=0050|35=0|49=CL04|56=LVBSG|34=375|52=20150521-17:31:09|10=071|
20150521-17:31:19.251: 8=FIX.4.4|9=54|35=0|34=374|49=LVBSG|52=20150521-17:31:19.251|56=CL04|10=177|
20150521-17:32:09.371: 8=FIX.4.4|9=0050|35=0|49=CL04|56=LVBSG|34=376|52=20150521-17:32:09|10=073|
20150521-17:32:19.777: 8=FIX.4.4|9=54|35=0|34=375|49=LVBSG|52=20150521-17:32:19.777|56=CL04|10=192|
20150521-17:33:09.358: 8=FIX.4.4|9=0050|35=0|49=CL04|56=LVBSG|34=377|52=20150521-17:33:09|10=075|
20150521-17:33:20.251: 8=FIX.4.4|9=54|35=0|34=376|49=LVBSG|52=20150521-17:33:20.251|56=CL04|10=173|
20150521-17:34:09.369: 8=FIX.4.4|9=0050|35=0|49=CL04|56=LVBSG|34=378|52=20150521-17:34:09|10=077|
20150521-17:34:21.251: 8=FIX.4.4|9=54|35=0|34=377|49=LVBSG|52=20150521-17:34:21.251|56=CL04|10=176|
20150521-17:35:09.363: 8=FIX.4.4|9=0050|35=0|49=CL04|56=LVBSG|34=379|52=20150521-17:35:09|10=079|
20150521-17:35:21.251: 8=FIX.4.4|9=54|35=0|34=378|49=LVBSG|52=20150521-17:35:21.251|56=CL04|10=178|
20150521-17:36:09.368: 8=FIX.4.4|9=0050|35=0|49=CL04|56=LVBSG|34=380|52=20150521-17:36:09|10=072|
20150521-17:36:21.251: 8=FIX.4.4|9=54|35=0|34=379|49=LVBSG|52=20150521-17:36:21.251|56=CL04|10=180|
20150521-17:37:09.362: 8=FIX.4.4|9=0050|35=0|49=CL04|56=LVBSG|34=381|52=20150521-17:37:09|10=074|
20150521-17:37:21.251: 8=FIX.4.4|9=54|35=0|34=380|49=LVBSG|52=20150521-17:37:21.251|56=CL04|10=173|
20150521-17:38:09.369: 8=FIX.4.4|9=0050|35=0|49=CL04|56=LVBSG|34=382|52=20150521-17:38:09|10=076|
20150521-17:38:21.251: 8=FIX.4.4|9=54|35=0|34=381|49=LVBSG|52=20150521-17:38:21.251|56=CL04|10=175|
20150521-17:39:09.374: 8=FIX.4.4|9=0050|35=0|49=CL04|56=LVBSG|34=383|52=20150521-17:39:09|10=078|
20150521-17:39:21.251: 8=FIX.4.4|9=54|35=0|34=382|49=LVBSG|52=20150521-17:39:21.251|56=CL04|10=177|
20150521-17:40:09.366: 8=FIX.4.4|9=0050|35=0|49=CL04|56=LVBSG|34=384|52=20150521-17:40:09|10=071|
20150521-17:40:21.251: 8=FIX.4.4|9=54|35=0|34=383|49=LVBSG|52=20150521-17:40:21.251|56=CL04|10=170|
20150521-17:41:09.368: 8=FIX.4.4|9=0050|35=0|49=CL04|56=LVBSG|34=385|52=20150521-17:41:09|10=073|
20150521-17:41:21.251: 8=FIX.4.4|9=54|35=0|34=384|49=LVBSG|52=20150521-17:41:21.251|56=CL04|10=172|
20150521-17:42:09.357: 8=FIX.4.4|9=0050|35=0|49=CL04|56=LVBSG|34=386|52=20150521-17:42:09|10=075|
20150521-17:42:21.251: 8=FIX.4.4|9=54|35=0|34=385|49=LVBSG|52=20150521-17:42:21.251|56=CL04|10=174|
20150521-17:43:09.357: 8=FIX.4.4|9=0050|35=0|49=CL04|56=LVBSG|34=387|52=20150521-17:43:09|10=077|
20150521-17:43:21.251: 8=FIX.4.4|9=54|35=0|34=386|49=LVBSG|52=20150521-17:43:21.251|56=CL04|10=176|
20150521-17:44:09.358: 8=FIX.4.4|9=0050|35=0|49=CL04|56=LVBSG|34=388|52=20150521-17:44:09|10=079|
20150521-17:44:21.251: 8=FIX.4.4|9=54|35=0|34=387|49=LVBSG|52=20150521-17:44:21.251|56=CL04|10=178|
20150521-17:45:09.357: 8=FIX.4.4|9=0050|35=0|49=CL04|56=LVBSG|34=389|52=20150521-17:45:09|10=081|
20150521-17:45:21.251: 8=FIX.4.4|9=54|35=0|34=388|49=LVBSG|52=20150521-17:45:21.251|56=CL04|10=180|
20150521-17:46:09.358: 8=FIX.4.4|9=0050|35=0|49=CL04|56=LVBSG|34=390|52=20150521-17:46:09|10=074|
20150521-17:46:22.251: 8=FIX.4.4|9=54|35=0|34=389|49=LVBSG|52=20150521-17:46:22.251|56=CL04|10=183|
20150521-17:47:09.358: 8=FIX.4.4|9=0050|35=0|49=CL04|56=LVBSG|34=391|52=20150521-17:47:09|10=076|
20150521-17:47:22.251: 8=FIX.4.4|9=54|35=0|34=390|49=LVBSG|52=20150521-17:47:22.251|56=CL04|10=176|
20150521-17:48:09.358: 8=FIX.4.4|9=0050|35=0|49=CL04|56=LVBSG|34=392|52=20150521-17:48:09|10=078|
20150521-17:48:22.251: 8=FIX.4.4|9=54|35=0|34=391|49=LVBSG|52=20150521-17:48:22.251|56=CL04|10=178|
20150521-17:49:09.359: 8=FIX.4.4|9=0050|35=0|49=CL04|56=LVBSG|34=393|52=20150521-17:49:09|10=080|
20150521-17:49:22.251: 8=FIX.4.4|9=54|35=0|34=392|49=LVBSG|52=20150521-17:49:22.251|56=CL04|10=180|
20150521-17:50:09.358: 8=FIX.4.4|9=0050|35=0|49=CL04|56=LVBSG|34=394|52=20150521-17:50:09|10=073|
20150521-17:50:22.251: 8=FIX.4.4|9=54|35=0|34=393|49=LVBSG|52=20150521-17:50:22.251|56=CL04|10=173|
20150521-17:51:09.382: 8=FIX.4.4|9=0050|35=0|49=CL04|56=LVBSG|34=395|52=20150521-17:51:09|10=075|
20150521-17:51:22.251: 8=FIX.4.4|9=54|35=0|34=394|49=LVBSG|52=20150521-17:51:22.251|56=CL04|10=175|
20150521-17:52:09.359: 8=FIX.4.4|9=0050|35=0|49=CL04|56=LVBSG|34=396|52=20150521-17:52:09|10=077|
20150521-17:52:23.251: 8=FIX.4.4|9=54|35=0|34=395|49=LVBSG|52=20150521-17:52:23.251|56=CL04|10=178|
20150521-17:53:09.362: 8=FIX.4.4|9=0050|35=0|49=CL04|56=LVBSG|34=397|52=20150521-17:53:09|10=079|
20150521-17:53:23.251: 8=FIX.4.4|9=54|35=0|34=396|49=LVBSG|52=20150521-17:53:23.251|56=CL04|10=180|
20150521-17:54:09.372: 8=FIX.4.4|9=0050|35=0|49=CL04|56=LVBSG|34=398|52=20150521-17:54:09|10=081|
20150521-17:54:23.251: 8=FIX.4.4|9=54|35=0|34=397|49=LVBSG|52=20150521-17:54:23.251|56=CL04|10=182|
20150521-17:55:09.360: 8=FIX.4.4|9=0050|35=0|49=CL04|56=LVBSG|34=399|52=20150521-17:55:09|10=083|
20150521-17:55:24.251: 8=FIX.4.4|9=54|35=0|34=398|49=LVBSG|52=20150521-17:55:24.251|56=CL04|10=185|
20150521-17:56:09.380: 8=FIX.4.4|9=0050|35=0|49=CL04|56=LVBSG|34=400|52=20150521-17:56:09|10=067|
20150521-17:56:24.251: 8=FIX.4.4|9=54|35=0|34=399|49=LVBSG|52=20150521-17:56:24.251|56=CL04|10=187|
20150521-17:57:09.361: 8=FIX.4.4|9=0050|35=0|49=CL04|56=LVBSG|34=401|52=20150521-17:57:09|10=069|
20150521-17:57:24.251: 8=FIX.4.4|9=54|35=0|34=400|49=LVBSG|52=20150521-17:57:24.251|56=CL04|10=171|
20150521-17:58:09.383: 8=FIX.4.4|9=0050|35=0|49=CL04|56=LVBSG|34=402|52=20150521-17:58:09|10=071|
20150521-17:58:24.251: 8=FIX.4.4|9=54|35=0|34=401|49=LVBSG|52=20150521-17:58:24.251|56=CL04|10=173|
20150521-17:59:09.375: 8=FIX.4.4|9=0050|35=0|49=CL04|56=LVBSG|34=403|52=20150521-17:59:09|10=073|
20150521-17:59:24.251: 8=FIX.4.4|9=54|35=0|34=402|49=LVBSG|52=20150521-17:59:24.251|56=CL04|10=175|
20150521-18:00:09.404: 8=FIX.4.4|9=0050|35=0|49=CL04|56=LVBSG|34=404|52=20150521-18:00:09|10=061|
20150521-18:00:24.251: 8=FIX.4.4|9=54|35=0|34=403|49=LVBSG|52=20150521-18:00:24.251|56=CL04|10=163|
20150521-18:01:09.366: 8=FIX.4.4|9=0050|35=0|49=CL04|56=LVBSG|34=405|52=20150521-18:01:09|10=063|
20150521-18:01:24.251: 8=FIX.4.4|9=54|35=0|34=404|49=LVBSG|52=20150521-18:01:24.251|56=CL04|10=165|
20150521-18:02:09.366: 8=FIX.4.4|9=0050|35=0|49=CL04|56=LVBSG|34=406|52=20150521-18:02:09|10=065|
20150521-18:02:24.251: 8=FIX.4.4|9=54|35=0|34=405|49=LVBSG|52=20150521-18:02:24.251|56=CL04|10=167|
20150521-18:03:09.377: 8=FIX.4.4|9=0050|35=0|49=CL04|56=LVBSG|34=407|52=20150521-18:03:09|10=067|
20150521-18:03:25.251: 8=FIX.4.4|9=54|35=0|34=406|49=LVBSG|52=20150521-18:03:25.251|56=CL04|10=170|
20150521-18:04:09.365: 8=FIX.4.4|9=0050|35=0|49=CL04|56=LVBSG|34=408|52=20150521-18:04:09|10=069|
20150521-18:04:25.251: 8=FIX.4.4|9=54|35=0|34=407|49=LVBSG|52=20150521-18:04:25.251|56=CL04|10=172|
20150521-18:05:09.385: 8=FIX.4.4|9=0050|35=0|49=CL04|56=LVBSG|34=409|52=20150521-18:05:09|10=071|
20150521-18:05:26.251: 8=FIX.4.4|9=54|35=0|34=408|49=LVBSG|52=20150521-18:05:26.251|56=CL04|10=175|
20150521-18:06:09.378: 8=FIX.4.4|9=0050|35=0|49=CL04|56=LVBSG|34=410|52=20150521-18:06:09|10=064|
20150521-18:06:26.251: 8=FIX.4.4|9=54|35=0|34=409|49=LVBSG|52=20150521-18:06:26.251|56=CL04|10=177|
20150521-18:07:09.371: 8=FIX.4.4|9=0050|35=0|49=CL04|56=LVBSG|34=411|52=20150521-18:07:09|10=066|
20150521-18:07:26.251: 8=FIX.4.4|9=54|35=0|34=410|49=LVBSG|52=20150521-18:07:26.251|56=CL04|10=170|
20150521-18:08:09.371: 8=FIX.4.4|9=0050|35=0|49=CL04|56=LVBSG|34=412|52=20150521-18:08:09|10=068|
20150521-18:08:27.251: 8=FIX.4.4|9=54|35=0|34=411|49=LVBSG|52=20150521-18:08:27.251|56=CL04|10=173|
20150521-18:09:09.376: 8=FIX.4.4|9=0050|35=0|49=CL04|56=LVBSG|34=413|52=20150521-18:09:09|10=070|
20150521-18:09:27.251: 8=FIX.4.4|9=54|35=0|34=412|49=LVBSG|52=20150521-18:09:27.251|56=CL04|10=175|
20150521-18:10:09.370: 8=FIX.4.4|9=0050|35=0|49=CL04|56=LVBSG|34=414|52=20150521-18:10:09|10=063|
20150521-18:10:27.251: 8=FIX.4.4|9=54|35=0|34=413|49=LVBSG|52=20150521-18:10:27.251|56=CL04|10=168|
20150521-18:11:09.376: 8=FIX.4.4|9=0050|35=0|49=CL04|56=LVBSG|34=415|52=20150521-18:11:09|10=065|
20150521-18:11:27.251: 8=FIX.4.4|9=54|35=0|34=414|49=LVBSG|52=20150521-18:11:27.251|56=CL04|10=170|
20150521-18:12:09.371: 8=FIX.4.4|9=0050|35=0|49=CL04|56=LVBSG|34=416|52=20150521-18:12:09|10=067|
20150521-18:12:27.251: 8=FIX.4.4|9=54|35=0|34=415|49=LVBSG|52=20150521-18:12:27.251|56=CL04|10=172|
20150521-18:13:09.377: 8=FIX.4.4|9=0050|35=0|49=CL04|56=LVBSG|34=417|52=20150521-18:13:09|10=069|
20150521-18:13:27.251: 8=FIX.4.4|9=54|35=0|34=416|49=LVBSG|52=20150521-18:13:27.251|56=CL04|10=174|
20150521-18:14:09.391: 8=FIX.4.4|9=0050|35=0|49=CL04|56=LVBSG|34=418|52=20150521-18:14:09|10=071|
20150521-18:14:27.251: 8=FIX.4.4|9=54|35=0|34=417|49=LVBSG|52=20150521-18:14:27.251|56=CL04|10=176|
20150521-18:15:09.376: 8=FIX.4.4|9=0050|35=0|49=CL04|56=LVBSG|34=419|52=20150521-18:15:09|10=073|
20150521-18:15:27.251: 8=FIX.4.4|9=54|35=0|34=418|49=LVBSG|52=20150521-18:15:27.251|56=CL04|10=178|
20150521-18:16:09.375: 8=FIX.4.4|9=0050|35=0|49=CL04|56=LVBSG|34=420|52=20150521-18:16:09|10=066|
20150521-18:16:27.251: 8=FIX.4.4|9=54|35=0|34=419|49=LVBSG|52=20150521-18:16:27.251|56=CL04|10=180|
20150521-18:17:09.372: 8=FIX.4.4|9=0050|35=0|49=CL04|56=LVBSG|34=421|52=20150521-18:17:09|10=068|
20150521-18:17:27.251: 8=FIX.4.4|9=54|35=0|34=420|49=LVBSG|52=20150521-18:17:27.251|56=CL04|10=173|
20150521-18:18:09.371: 8=FIX.4.4|9=0050|35=0|49=CL04|56=LVBSG|34=422|52=20150521-18:18:09|10=070|
20150521-18:18:27.251: 8=FIX.4.4|9=54|35=0|34=421|49=LVBSG|52=20150521-18:18:27.251|56=CL04|10=175|
20150521-18:19:09.377: 8=FIX.4.4|9=0050|35=0|49=CL04|56=LVBSG|34=423|52=20150521-18:19:09|10=072|
20150521-18:19:27.251: 8=FIX.4.4|9=54|35=0|34=422|49=LVBSG|52=20150521-18:19:27.251|56=CL04|10=177|
20150521-18:20:09.376: 8=FIX.4.4|9=0050|35=0|49=CL04|56=LVBSG|34=424|52=20150521-18:20:09|10=065|
20150521-18:20:27.251: 8=FIX.4.4|9=54|35=0|34=423|49=LVBSG|52=20150521-18:20:27.251|56=CL04|10=170|
20150521-18:21:09.379: 8=FIX.4.4|9=0050|35=0|49=CL04|56=LVBSG|34=425|52=20150521-18:21:09|10=067|
20150521-18:21:28.251: 8=FIX.4.4|9=54|35=0|34=424|49=LVBSG|52=20150521-18:21:28.251|56=CL04|10=173|
20150521-18:22:09.375: 8=FIX.4.4|9=0050|35=0|49=CL04|56=LVBSG|34=426|52=20150521-18:22:09|10=069|
20150521-18:22:28.251: 8=FIX.4.4|9=54|35=0|34=425|49=LVBSG|52=20150521-18:22:28.251|56=CL04|10=175|
20150521-18:23:09.376: 8=FIX.4.4|9=0050|35=0|49=CL04|56=LVBSG|34=427|52=20150521-18:23:09|10=071|
20150521-18:23:28.251: 8=FIX.4.4|9=54|35=0|34=426|49=LVBSG|52=20150521-18:23:28.251|56=CL04|10=177|
20150521-18:24:09.370: 8=FIX.4.4|9=0050|35=0|49=CL04|56=LVBSG|34=428|52=20150521-18:24:09|10=073|
20150521-18:24:29.251: 8=FIX.4.4|9=54|35=0|34=427|49=LVBSG|52=20150521-18:24:29.251|56=CL04|10=180|
20150521-18:25:09.371: 8=FIX.4.4|9=0050|35=0|49=CL04|56=LVBSG|34=429|52=20150521-18:25:09|10=075|
20150521-18:25:29.251: 8=FIX.4.4|9=54|35=0|34=428|49=LVBSG|52=20150521-18:25:29.251|56=CL04|10=182|
20150521-18:26:09.384: 8=FIX.4.4|9=0050|35=0|49=CL04|56=LVBSG|34=430|52=20150521-18:26:09|10=068|
20150521-18:26:29.251: 8=FIX.4.4|9=54|35=0|34=429|49=LVBSG|52=20150521-18:26:29.251|56=CL04|10=184|
20150521-18:27:09.369: 8=FIX.4.4|9=0050|35=0|49=CL04|56=LVBSG|34=431|52=20150521-18:27:09|10=070|
20150521-18:27:30.251: 8=FIX.4.4|9=54|35=0|34=430|49=LVBSG|52=20150521-18:27:30.251|56=CL04|10=169|
20150521-18:28:09.379: 8=FIX.4.4|9=0050|35=0|49=CL04|56=LVBSG|34=432|52=20150521-18:28:09|10=072|
20150521-18:28:30.251: 8=FIX.4.4|9=54|35=0|34=431|49=LVBSG|52=20150521-18:28:30.251|56=CL04|10=171|
20150521-18:29:09.369: 8=FIX.4.4|9=0050|35=0|49=CL04|56=LVBSG|34=433|52=20150521-18:29:09|10=074|
20150521-18:29:30.251: 8=FIX.4.4|9=54|35=0|34=432|49=LVBSG|52=20150521-18:29:30.251|56=CL04|10=173|
20150521-18:30:09.384: 8=FIX.4.4|9=0050|35=0|49=CL04|56=LVBSG|34=434|52=20150521-18:30:09|10=067|
20150521-18:30:30.251: 8=FIX.4.4|9=54|35=0|34=433|49=LVBSG|52=20150521-18:30:30.251|56=CL04|10=166|
20150521-18:31:09.389: 8=FIX.4.4|9=0050|35=0|49=CL04|56=LVBSG|34=435|52=20150521-18:31:09|10=069|
20150521-18:31:30.251: 8=FIX.4.4|9=54|35=0|34=434|49=LVBSG|52=20150521-18:31:30.251|56=CL04|10=168|
20150521-18:32:09.383: 8=FIX.4.4|9=0050|35=0|49=CL04|56=LVBSG|34=436|52=20150521-18:32:09|10=071|
20150521-18:32:30.251: 8=FIX.4.4|9=54|35=0|34=435|49=LVBSG|52=20150521-18:32:30.251|56=CL04|10=170|
20150521-18:33:09.382: 8=FIX.4.4|9=0050|35=0|49=CL04|56=LVBSG|34=437|52=20150521-18:33:09|10=073|
20150521-18:33:30.251: 8=FIX.4.4|9=54|35=0|34=436|49=LVBSG|52=20150521-18:33:30.251|56=CL04|10=172|
20150521-18:34:09.383: 8=FIX.4.4|9=0050|35=0|49=CL04|56=LVBSG|34=438|52=20150521-18:34:09|10=075|
20150521-18:34:30.251: 8=FIX.4.4|9=54|35=0|34=437|49=LVBSG|52=20150521-18:34:30.251|56=CL04|10=174|
20150521-18:35:09.368: 8=FIX.4.4|9=0050|35=0|49=CL04|56=LVBSG|34=439|52=20150521-18:35:09|10=077|
20150521-18:35:30.251: 8=FIX.4.4|9=54|35=0|34=438|49=LVBSG|52=20150521-18:35:30.251|56=CL04|10=176|
20150521-18:36:09.373: 8=FIX.4.4|9=0050|35=0|49=CL04|56=LVBSG|34=440|52=20150521-18:36:09|10=070|
20150521-18:36:30.251: 8=FIX.4.4|9=54|35=0|34=439|49=LVBSG|52=20150521-18:36:30.251|56=CL04|10=178|
20150521-18:37:09.367: 8=FIX.4.4|9=0050|35=0|49=CL04|56=LVBSG|34=441|52=20150521-18:37:09|10=072|
20150521-18:37:30.251: 8=FIX.4.4|9=54|35=0|34=440|49=LVBSG|52=20150521-18:37:30.251|56=CL04|10=171|
20150521-18:38:09.373: 8=FIX.4.4|9=0050|35=0|49=CL04|56=LVBSG|34=442|52=20150521-18:38:09|10=074|
20150521-18:38:30.251: 8=FIX.4.4|9=54|35=0|34=441|49=LVBSG|52=20150521-18:38:30.251|56=CL04|10=173|
20150521-18:39:09.375: 8=FIX.4.4|9=0050|35=0|49=CL04|56=LVBSG|34=443|52=20150521-18:39:09|10=076|
20150521-18:39:30.251: 8=FIX.4.4|9=54|35=0|34=442|49=LVBSG|52=20150521-18:39:30.251|56=CL04|10=175|
20150521-18:40:09.386: 8=FIX.4.4|9=0050|35=0|49=CL04|56=LVBSG|34=444|52=20150521-18:40:09|10=069|
20150521-18:40:30.251: 8=FIX.4.4|9=54|35=0|34=443|49=LVBSG|52=20150521-18:40:30.251|56=CL04|10=168|
20150521-18:41:09.374: 8=FIX.4.4|9=0050|35=0|49=CL04|56=LVBSG|34=445|52=20150521-18:41:09|10=071|
20150521-18:41:30.251: 8=FIX.4.4|9=54|35=0|34=444|49=LVBSG|52=20150521-18:41:30.251|56=CL04|10=170|
20150521-18:42:09.377: 8=FIX.4.4|9=0050|35=0|49=CL04|56=LVBSG|34=446|52=20150521-18:42:09|10=073|
20150521-18:42:30.251: 8=FIX.4.4|9=54|35=0|34=445|49=LVBSG|52=20150521-18:42:30.251|56=CL04|10=172|
20150521-18:43:09.379: 8=FIX.4.4|9=0050|35=0|49=CL04|56=LVBSG|34=447|52=20150521-18:43:09|10=075|
20150521-18:43:30.251: 8=FIX.4.4|9=54|35=0|34=446|49=LVBSG|52=20150521-18:43:30.251|56=CL04|10=174|
20150521-18:44:09.372: 8=FIX.4.4|9=0050|35=0|49=CL04|56=LVBSG|34=448|52=20150521-18:44:09|10=077|
20150521-18:44:30.251: 8=FIX.4.4|9=54|35=0|34=447|49=LVBSG|52=20150521-18:44:30.251|56=CL04|10=176|
20150521-18:45:09.374: 8=FIX.4.4|9=0050|35=0|49=CL04|56=LVBSG|34=449|52=20150521-18:45:09|10=079|
20150521-18:45:30.251: 8=FIX.4.4|9=54|35=0|34=448|49=LVBSG|52=20150521-18:45:30.251|56=CL04|10=178|
20150521-18:46:09.369: 8=FIX.4.4|9=0050|35=0|49=CL04|56=LVBSG|34=450|52=20150521-18:46:09|10=072|
20150521-18:46:31.251: 8=FIX.4.4|9=54|35=0|34=449|49=LVBSG|52=20150521-18:46:31.251|56=CL04|10=181|
20150521-18:47:09.370: 8=FIX.4.4|9=0050|35=0|49=CL04|56=LVBSG|34=451|52=20150521-18:47:09|10=074|
20150521-18:47:32.251: 8=FIX.4.4|9=54|35=0|34=450|49=LVBSG|52=20150521-18:47:32.251|56=CL04|10=175|
20150521-18:48:09.368: 8=FIX.4.4|9=0050|35=0|49=CL04|56=LVBSG|34=452|52=20150521-18:48:09|10=076|
20150521-18:48:32.251: 8=FIX.4.4|9=54|35=0|34=451|49=LVBSG|52=20150521-18:48:32.251|56=CL04|10=177|
20150521-18:49:09.371: 8=FIX.4.4|9=0050|35=0|49=CL04|56=LVBSG|34=453|52=20150521-18:49:09|10=078|
20150521-18:49:32.251: 8=FIX.4.4|9=54|35=0|34=452|49=LVBSG|52=20150521-18:49:32.251|56=CL04|10=179|
20150521-18:50:09.372: 8=FIX.4.4|9=0050|35=0|49=CL04|56=LVBSG|34=454|52=20150521-18:50:09|10=071|
20150521-18:50:32.251: 8=FIX.4.4|9=54|35=0|34=453|49=LVBSG|52=20150521-18:50:32.251|56=CL04|10=172|
20150521-18:51:09.369: 8=FIX.4.4|9=0050|35=0|49=CL04|56=LVBSG|34=455|52=20150521-18:51:09|10=073|
20150521-18:51:32.251: 8=FIX.4.4|9=54|35=0|34=454|49=LVBSG|52=20150521-18:51:32.251|56=CL04|10=174|
20150521-18:52:09.369: 8=FIX.4.4|9=0050|35=0|49=CL04|56=LVBSG|34=456|52=20150521-18:52:09|10=075|
20150521-18:52:33.251: 8=FIX.4.4|9=54|35=0|34=455|49=LVBSG|52=20150521-18:52:33.251|56=CL04|10=177|
20150521-18:53:09.367: 8=FIX.4.4|9=0050|35=0|49=CL04|56=LVBSG|34=457|52=20150521-18:53:09|10=077|
20150521-18:53:33.251: 8=FIX.4.4|9=54|35=0|34=456|49=LVBSG|52=20150521-18:53:33.251|56=CL04|10=179|
20150521-18:54:09.372: 8=FIX.4.4|9=0050|35=0|49=CL04|56=LVBSG|34=458|52=20150521-18:54:09|10=079|
20150521-18:54:33.251: 8=FIX.4.4|9=54|35=0|34=457|49=LVBSG|52=20150521-18:54:33.251|56=CL04|10=181|
20150521-18:55:09.369: 8=FIX.4.4|9=0050|35=0|49=CL04|56=LVBSG|34=459|52=20150521-18:55:09|10=081|
20150521-18:55:33.251: 8=FIX.4.4|9=54|35=0|34=458|49=LVBSG|52=20150521-18:55:33.251|56=CL04|10=183|
20150521-18:56:09.371: 8=FIX.4.4|9=0050|35=0|49=CL04|56=LVBSG|34=460|52=20150521-18:56:09|10=074|
20150521-18:56:33.251: 8=FIX.4.4|9=54|35=0|34=459|49=LVBSG|52=20150521-18:56:33.251|56=CL04|10=185|
20150521-18:57:09.369: 8=FIX.4.4|9=0050|35=0|49=CL04|56=LVBSG|34=461|52=20150521-18:57:09|10=076|
20150521-18:57:33.251: 8=FIX.4.4|9=54|35=0|34=460|49=LVBSG|52=20150521-18:57:33.251|56=CL04|10=178|
20150521-18:58:09.373: 8=FIX.4.4|9=0050|35=0|49=CL04|56=LVBSG|34=462|52=20150521-18:58:09|10=078|
20150521-18:58:33.251: 8=FIX.4.4|9=54|35=0|34=461|49=LVBSG|52=20150521-18:58:33.251|56=CL04|10=180|
20150521-18:59:09.370: 8=FIX.4.4|9=0050|35=0|49=CL04|56=LVBSG|34=463|52=20150521-18:59:09|10=080|
20150521-18:59:33.251: 8=FIX.4.4|9=54|35=0|34=462|49=LVBSG|52=20150521-18:59:33.251|56=CL04|10=182|
20150521-19:00:09.374: 8=FIX.4.4|9=0050|35=0|49=CL04|56=LVBSG|34=464|52=20150521-19:00:09|10=068|
20150521-19:00:33.251: 8=FIX.4.4|9=54|35=0|34=463|49=LVBSG|52=20150521-19:00:33.251|56=CL04|10=170|
20150521-19:01:09.371: 8=FIX.4.4|9=0050|35=0|49=CL04|56=LVBSG|34=465|52=20150521-19:01:09|10=070|
20150521-19:01:33.251: 8=FIX.4.4|9=54|35=0|34=464|49=LVBSG|52=20150521-19:01:33.251|56=CL04|10=172|
20150521-19:02:09.372: 8=FIX.4.4|9=0050|35=0|49=CL04|56=LVBSG|34=466|52=20150521-19:02:09|10=072|
20150521-19:02:33.251: 8=FIX.4.4|9=54|35=0|34=465|49=LVBSG|52=20150521-19:02:33.251|56=CL04|10=174|
20150521-19:03:09.376: 8=FIX.4.4|9=0050|35=0|49=CL04|56=LVBSG|34=467|52=20150521-19:03:09|10=074|
20150521-19:03:33.251: 8=FIX.4.4|9=54|35=0|34=466|49=LVBSG|52=20150521-19:03:33.251|56=CL04|10=176|
20150521-19:04:09.373: 8=FIX.4.4|9=0050|35=0|49=CL04|56=LVBSG|34=468|52=20150521-19:04:09|10=076|
20150521-19:04:33.251: 8=FIX.4.4|9=54|35=0|34=467|49=LVBSG|52=20150521-19:04:33.251|56=CL04|10=178|
20150521-19:05:09.374: 8=FIX.4.4|9=0050|35=0|49=CL04|56=LVBSG|34=469|52=20150521-19:05:09|10=078|
20150521-19:05:34.251: 8=FIX.4.4|9=54|35=0|34=468|49=LVBSG|52=20150521-19:05:34.251|56=CL04|10=181|
20150521-19:06:09.377: 8=FIX.4.4|9=0050|35=0|49=CL04|56=LVBSG|34=470|52=20150521-19:06:09|10=071|
20150521-19:06:34.251: 8=FIX.4.4|9=54|35=0|34=469|49=LVBSG|52=20150521-19:06:34.251|56=CL04|10=183|
20150521-19:07:09.374: 8=FIX.4.4|9=0050|35=0|49=CL04|56=LVBSG|34=471|52=20150521-19:07:09|10=073|
20150521-19:07:34.251: 8=FIX.4.4|9=54|35=0|34=470|49=LVBSG|52=20150521-19:07:34.251|56=CL04|10=176|
20150521-19:08:09.374: 8=FIX.4.4|9=0050|35=0|49=CL04|56=LVBSG|34=472|52=20150521-19:08:09|10=075|
20150521-19:08:34.251: 8=FIX.4.4|9=54|35=0|34=471|49=LVBSG|52=20150521-19:08:34.251|56=CL04|10=178|
20150521-19:09:09.376: 8=FIX.4.4|9=0050|35=0|49=CL04|56=LVBSG|34=473|52=20150521-19:09:09|10=077|
20150521-19:09:34.251: 8=FIX.4.4|9=54|35=0|34=472|49=LVBSG|52=20150521-19:09:34.251|56=CL04|10=180|
20150521-19:10:09.378: 8=FIX.4.4|9=0050|35=0|49=CL04|56=LVBSG|34=474|52=20150521-19:10:09|10=070|
20150521-19:10:35.251: 8=FIX.4.4|9=54|35=0|34=473|49=LVBSG|52=20150521-19:10:35.251|56=CL04|10=174|
20150521-19:11:09.375: 8=FIX.4.4|9=0050|35=0|49=CL04|56=LVBSG|34=475|52=20150521-19:11:09|10=072|
20150521-19:11:35.251: 8=FIX.4.4|9=54|35=0|34=474|49=LVBSG|52=20150521-19:11:35.251|56=CL04|10=176|
20150521-19:12:09.375: 8=FIX.4.4|9=0050|35=0|49=CL04|56=LVBSG|34=476|52=20150521-19:12:09|10=074|
20150521-19:12:36.251: 8=FIX.4.4|9=54|35=0|34=475|49=LVBSG|52=20150521-19:12:36.251|56=CL04|10=179|
20150521-19:13:09.379: 8=FIX.4.4|9=0050|35=0|49=CL04|56=LVBSG|34=477|52=20150521-19:13:09|10=076|
20150521-19:13:36.251: 8=FIX.4.4|9=54|35=0|34=476|49=LVBSG|52=20150521-19:13:36.251|56=CL04|10=181|
20150521-19:14:09.379: 8=FIX.4.4|9=0050|35=0|49=CL04|56=LVBSG|34=478|52=20150521-19:14:09|10=078|
20150521-19:14:36.251: 8=FIX.4.4|9=54|35=0|34=477|49=LVBSG|52=20150521-19:14:36.251|56=CL04|10=183|
20150521-19:15:09.375: 8=FIX.4.4|9=0050|35=0|49=CL04|56=LVBSG|34=479|52=20150521-19:15:09|10=080|
20150521-19:15:36.251: 8=FIX.4.4|9=54|35=0|34=478|49=LVBSG|52=20150521-19:15:36.251|56=CL04|10=185|
20150521-19:16:09.377: 8=FIX.4.4|9=0050|35=0|49=CL04|56=LVBSG|34=480|52=20150521-19:16:09|10=073|
20150521-19:16:36.251: 8=FIX.4.4|9=54|35=0|34=479|49=LVBSG|52=20150521-19:16:36.251|56=CL04|10=187|
20150521-19:17:09.378: 8=FIX.4.4|9=0050|35=0|49=CL04|56=LVBSG|34=481|52=20150521-19:17:09|10=075|
20150521-19:17:37.251: 8=FIX.4.4|9=54|35=0|34=480|49=LVBSG|52=20150521-19:17:37.251|56=CL04|10=181|
20150521-19:18:09.378: 8=FIX.4.4|9=0050|35=0|49=CL04|56=LVBSG|34=482|52=20150521-19:18:09|10=077|
20150521-19:18:37.251: 8=FIX.4.4|9=54|35=0|34=481|49=LVBSG|52=20150521-19:18:37.251|56=CL04|10=183|
20150521-19:19:09.376: 8=FIX.4.4|9=0050|35=0|49=CL04|56=LVBSG|34=483|52=20150521-19:19:09|10=079|
20150521-19:19:37.251: 8=FIX.4.4|9=54|35=0|34=482|49=LVBSG|52=20150521-19:19:37.251|56=CL04|10=185|
20150521-19:20:09.377: 8=FIX.4.4|9=0050|35=0|49=CL04|56=LVBSG|34=484|52=20150521-19:20:09|10=072|
20150521-19:20:37.251: 8=FIX.4.4|9=54|35=0|34=483|49=LVBSG|52=20150521-19:20:37.251|56=CL04|10=178|
20150521-19:21:09.379: 8=FIX.4.4|9=0050|35=0|49=CL04|56=LVBSG|34=485|52=20150521-19:21:09|10=074|
20150521-19:21:37.251: 8=FIX.4.4|9=54|35=0|34=484|49=LVBSG|52=20150521-19:21:37.251|56=CL04|10=180|
20150521-19:22:09.379: 8=FIX.4.4|9=0050|35=0|49=CL04|56=LVBSG|34=486|52=20150521-19:22:09|10=076|
20150521-19:22:37.251: 8=FIX.4.4|9=54|35=0|34=485|49=LVBSG|52=20150521-19:22:37.251|56=CL04|10=182|
20150521-19:23:09.376: 8=FIX.4.4|9=0050|35=0|49=CL04|56=LVBSG|34=487|52=20150521-19:23:09|10=078|
20150521-19:23:38.251: 8=FIX.4.4|9=54|35=0|34=486|49=LVBSG|52=20150521-19:23:38.251|56=CL04|10=185|
20150521-19:24:09.379: 8=FIX.4.4|9=0050|35=0|49=CL04|56=LVBSG|34=488|52=20150521-19:24:09|10=080|
20150521-19:24:38.251: 8=FIX.4.4|9=54|35=0|34=487|49=LVBSG|52=20150521-19:24:38.251|56=CL04|10=187|
20150521-19:25:09.378: 8=FIX.4.4|9=0050|35=0|49=CL04|56=LVBSG|34=489|52=20150521-19:25:09|10=082|
20150521-19:25:38.251: 8=FIX.4.4|9=54|35=0|34=488|49=LVBSG|52=20150521-19:25:38.251|56=CL04|10=189|
20150521-19:26:09.378: 8=FIX.4.4|9=0050|35=0|49=CL04|56=LVBSG|34=490|52=20150521-19:26:09|10=075|
20150521-19:26:38.251: 8=FIX.4.4|9=54|35=0|34=489|49=LVBSG|52=20150521-19:26:38.251|56=CL04|10=191|
20150521-19:27:09.379: 8=FIX.4.4|9=0050|35=0|49=CL04|56=LVBSG|34=491|52=20150521-19:27:09|10=077|
20150521-19:27:38.251: 8=FIX.4.4|9=54|35=0|34=490|49=LVBSG|52=20150521-19:27:38.251|56=CL04|10=184|
20150521-19:28:09.378: 8=FIX.4.4|9=0050|35=0|49=CL04|56=LVBSG|34=492|52=20150521-19:28:09|10=079|
20150521-19:28:39.251: 8=FIX.4.4|9=54|35=0|34=491|49=LVBSG|52=20150521-19:28:39.251|56=CL04|10=187|
20150521-19:29:09.380: 8=FIX.4.4|9=0050|35=0|49=CL04|56=LVBSG|34=493|52=20150521-19:29:09|10=081|
20150521-19:29:40.251: 8=FIX.4.4|9=54|35=0|34=492|49=LVBSG|52=20150521-19:29:40.251|56=CL04|10=181|
20150521-19:30:09.377: 8=FIX.4.4|9=0050|35=0|49=CL04|56=LVBSG|34=494|52=20150521-19:30:09|10=074|
20150521-19:30:41.251: 8=FIX.4.4|9=54|35=0|34=493|49=LVBSG|52=20150521-19:30:41.251|56=CL04|10=175|
20150521-19:31:09.378: 8=FIX.4.4|9=0050|35=0|49=CL04|56=LVBSG|34=495|52=20150521-19:31:09|10=076|
20150521-19:31:41.251: 8=FIX.4.4|9=54|35=0|34=494|49=LVBSG|52=20150521-19:31:41.251|56=CL04|10=177|
20150521-19:32:09.378: 8=FIX.4.4|9=0050|35=0|49=CL04|56=LVBSG|34=496|52=20150521-19:32:09|10=078|
20150521-19:32:41.251: 8=FIX.4.4|9=54|35=0|34=495|49=LVBSG|52=20150521-19:32:41.251|56=CL04|10=179|
20150521-19:33:09.379: 8=FIX.4.4|9=0050|35=0|49=CL04|56=LVBSG|34=497|52=20150521-19:33:09|10=080|
20150521-19:33:41.251: 8=FIX.4.4|9=54|35=0|34=496|49=LVBSG|52=20150521-19:33:41.251|56=CL04|10=181|
20150521-19:34:09.379: 8=FIX.4.4|9=0050|35=0|49=CL04|56=LVBSG|34=498|52=20150521-19:34:09|10=082|
20150521-19:34:41.251: 8=FIX.4.4|9=54|35=0|34=497|49=LVBSG|52=20150521-19:34:41.251|56=CL04|10=183|
20150521-19:35:09.378: 8=FIX.4.4|9=0050|35=0|49=CL04|56=LVBSG|34=499|52=20150521-19:35:09|10=084|
20150521-19:35:41.251: 8=FIX.4.4|9=54|35=0|34=498|49=LVBSG|52=20150521-19:35:41.251|56=CL04|10=185|
20150521-19:36:09.377: 8=FIX.4.4|9=0050|35=0|49=CL04|56=LVBSG|34=500|52=20150521-19:36:09|10=068|
20150521-19:36:41.251: 8=FIX.4.4|9=54|35=0|34=499|49=LVBSG|52=20150521-19:36:41.251|56=CL04|10=187|
20150521-19:37:09.381: 8=FIX.4.4|9=0050|35=0|49=CL04|56=LVBSG|34=501|52=20150521-19:37:09|10=070|
20150521-19:37:42.251: 8=FIX.4.4|9=54|35=0|34=500|49=LVBSG|52=20150521-19:37:42.251|56=CL04|10=172|
20150521-19:38:09.403: 8=FIX.4.4|9=0050|35=0|49=CL04|56=LVBSG|34=502|52=20150521-19:38:09|10=072|
20150521-19:38:42.251: 8=FIX.4.4|9=54|35=0|34=501|49=LVBSG|52=20150521-19:38:42.251|56=CL04|10=174|
20150521-19:39:09.396: 8=FIX.4.4|9=0050|35=0|49=CL04|56=LVBSG|34=503|52=20150521-19:39:09|10=074|
20150521-19:39:43.251: 8=FIX.4.4|9=54|35=0|34=502|49=LVBSG|52=20150521-19:39:43.251|56=CL04|10=177|
20150521-19:40:09.384: 8=FIX.4.4|9=0050|35=0|49=CL04|56=LVBSG|34=504|52=20150521-19:40:09|10=067|
20150521-19:40:43.251: 8=FIX.4.4|9=54|35=0|34=503|49=LVBSG|52=20150521-19:40:43.251|56=CL04|10=170|
20150521-19:41:09.380: 8=FIX.4.4|9=0050|35=0|49=CL04|56=LVBSG|34=505|52=20150521-19:41:09|10=069|
