20150521-11:17:08.324: 8=FIX.4.4|9=68|35=5|34=1|49=ADRARB_XTSE_TOBVC|52=20150521-11:17:08.324|56=AMGTOBVC|10=089|
20150521-11:17:09.259: 8=FIX.4.4|9=68|35=5|34=1|49=ADRARB_XTSE_TOBVC|52=20150521-11:17:09.259|56=AMGTOBVC|10=097|
20150521-11:17:10.251: 8=FIX.4.4|9=86|35=A|34=1|49=ADRARB_XTSE_TOBVC|52=20150521-11:17:10.251|56=AMGTOBVC|98=0|108=60|141=Y|10=166|
20150521-11:17:10.258: 8=FIX.4.4|9=86|35=A|34=1|49=AMGTOBVC|56=ADRARB_XTSE_TOBVC|52=20150521-11:17:10.225|108=60|98=0|141=Y|10=167|
20150521-11:17:10.260: 8=FIX.4.4|9=79|35=1|34=2|49=AMGTOBVC|56=ADRARB_XTSE_TOBVC|52=20150521-11:17:10.225|112=STBL-2|10=183|
20150521-11:17:10.262: 8=FIX.4.4|9=79|35=0|34=2|49=ADRARB_XTSE_TOBVC|52=20150521-11:17:10.261|56=AMGTOBVC|112=STBL-2|10=182|
20150521-11:18:10.574: 8=FIX.4.4|9=68|35=0|34=3|49=AMGTOBVC|56=ADRARB_XTSE_TOBVC|52=20150521-11:18:10.549|10=089|
20150521-11:18:10.574: 8=FIX.4.4|9=68|35=0|34=3|49=ADRARB_XTSE_TOBVC|52=20150521-11:18:10.574|56=AMGTOBVC|10=087|
20150521-11:19:10.899: 8=FIX.4.4|9=68|35=0|34=4|49=AMGTOBVC|56=ADRARB_XTSE_TOBVC|52=20150521-11:19:10.873|10=091|
20150521-11:19:10.899: 8=FIX.4.4|9=68|35=0|34=4|49=ADRARB_XTSE_TOBVC|52=20150521-11:19:10.899|56=AMGTOBVC|10=099|
20150521-11:20:11.208: 8=FIX.4.4|9=68|35=0|34=5|49=AMGTOBVC|56=ADRARB_XTSE_TOBVC|52=20150521-11:20:11.182|10=078|
20150521-11:20:11.208: 8=FIX.4.4|9=68|35=0|34=5|49=ADRARB_XTSE_TOBVC|52=20150521-11:20:11.208|56=AMGTOBVC|10=077|
20150521-11:21:11.251: 8=FIX.4.4|9=68|35=0|34=6|49=ADRARB_XTSE_TOBVC|52=20150521-11:21:11.251|56=AMGTOBVC|10=077|
20150521-11:21:11.532: 8=FIX.4.4|9=68|35=0|34=6|49=AMGTOBVC|56=ADRARB_XTSE_TOBVC|52=20150521-11:21:11.506|10=080|
20150521-11:22:11.252: 8=FIX.4.4|9=68|35=0|34=7|49=ADRARB_XTSE_TOBVC|52=20150521-11:22:11.252|56=AMGTOBVC|10=080|
20150521-11:22:11.811: 8=FIX.4.4|9=68|35=0|34=7|49=AMGTOBVC|56=ADRARB_XTSE_TOBVC|52=20150521-11:22:11.783|10=089|
20150521-11:23:12.251: 8=FIX.4.4|9=68|35=0|34=8|49=ADRARB_XTSE_TOBVC|52=20150521-11:23:12.251|56=AMGTOBVC|10=082|
20150521-11:23:12.951: 8=FIX.4.4|9=68|35=0|34=8|49=AMGTOBVC|56=ADRARB_XTSE_TOBVC|52=20150521-11:23:12.918|10=092|
20150521-11:24:12.252: 8=FIX.4.4|9=68|35=0|34=9|49=ADRARB_XTSE_TOBVC|52=20150521-11:24:12.252|56=AMGTOBVC|10=085|
20150521-11:24:13.257: 8=FIX.4.4|9=68|35=0|34=9|49=AMGTOBVC|56=ADRARB_XTSE_TOBVC|52=20150521-11:24:13.227|10=088|
20150521-11:25:13.251: 8=FIX.4.4|9=69|35=0|34=10|49=ADRARB_XTSE_TOBVC|52=20150521-11:25:13.250|56=AMGTOBVC|10=126|
20150521-11:25:13.563: 8=FIX.4.4|9=69|35=0|34=10|49=AMGTOBVC|56=ADRARB_XTSE_TOBVC|52=20150521-11:25:13.535|10=132|
20150521-11:26:13.251: 8=FIX.4.4|9=69|35=0|34=11|49=ADRARB_XTSE_TOBVC|52=20150521-11:26:13.251|56=AMGTOBVC|10=129|
20150521-11:26:13.951: 8=FIX.4.4|9=69|35=0|34=11|49=AMGTOBVC|56=ADRARB_XTSE_TOBVC|52=20150521-11:26:13.922|10=134|
20150521-11:27:13.251: 8=FIX.4.4|9=69|35=0|34=12|49=ADRARB_XTSE_TOBVC|52=20150521-11:27:13.251|56=AMGTOBVC|10=131|
20150521-11:27:14.259: 8=FIX.4.4|9=69|35=0|34=12|49=AMGTOBVC|56=ADRARB_XTSE_TOBVC|52=20150521-11:27:14.230|10=129|
20150521-11:28:13.251: 8=FIX.4.4|9=69|35=0|34=13|49=ADRARB_XTSE_TOBVC|52=20150521-11:28:13.251|56=AMGTOBVC|10=133|
20150521-11:28:14.568: 8=FIX.4.4|9=69|35=0|34=13|49=AMGTOBVC|56=ADRARB_XTSE_TOBVC|52=20150521-11:28:14.538|10=142|
20150521-11:29:14.251: 8=FIX.4.4|9=69|35=0|34=14|49=ADRARB_XTSE_TOBVC|52=20150521-11:29:14.251|56=AMGTOBVC|10=136|
20150521-11:29:14.877: 8=FIX.4.4|9=69|35=0|34=14|49=AMGTOBVC|56=ADRARB_XTSE_TOBVC|52=20150521-11:29:14.847|10=147|
20150521-11:30:14.251: 8=FIX.4.4|9=69|35=0|34=15|49=ADRARB_XTSE_TOBVC|52=20150521-11:30:14.251|56=AMGTOBVC|10=129|
20150521-11:30:15.260: 8=FIX.4.4|9=69|35=0|34=15|49=AMGTOBVC|56=ADRARB_XTSE_TOBVC|52=20150521-11:30:15.218|10=133|
20150521-11:31:14.251: 8=FIX.4.4|9=69|35=0|34=16|49=ADRARB_XTSE_TOBVC|52=20150521-11:31:14.251|56=AMGTOBVC|10=131|
20150521-11:31:15.589: 8=FIX.4.4|9=69|35=0|34=16|49=AMGTOBVC|56=ADRARB_XTSE_TOBVC|52=20150521-11:31:15.557|10=141|
20150521-11:32:15.251: 8=FIX.4.4|9=69|35=0|34=17|49=ADRARB_XTSE_TOBVC|52=20150521-11:32:15.251|56=AMGTOBVC|10=134|
20150521-11:32:15.947: 8=FIX.4.4|9=69|35=0|34=17|49=AMGTOBVC|56=ADRARB_XTSE_TOBVC|52=20150521-11:32:15.913|10=139|
20150521-11:33:16.251: 8=FIX.4.4|9=69|35=0|34=18|49=ADRARB_XTSE_TOBVC|52=20150521-11:33:16.251|56=AMGTOBVC|10=137|
20150521-11:33:16.251: 8=FIX.4.4|9=69|35=0|34=18|49=AMGTOBVC|56=ADRARB_XTSE_TOBVC|52=20150521-11:33:16.205|10=136|
20150521-11:34:16.532: 8=FIX.4.4|9=69|35=0|34=19|49=AMGTOBVC|56=ADRARB_XTSE_TOBVC|52=20150521-11:34:16.501|10=137|
20150521-11:34:16.532: 8=FIX.4.4|9=69|35=0|34=19|49=ADRARB_XTSE_TOBVC|52=20150521-11:34:16.532|56=AMGTOBVC|10=141|
20150521-11:35:16.887: 8=FIX.4.4|9=69|35=0|34=20|49=AMGTOBVC|56=ADRARB_XTSE_TOBVC|52=20150521-11:35:16.860|10=138|
20150521-11:35:16.888: 8=FIX.4.4|9=69|35=0|34=20|49=ADRARB_XTSE_TOBVC|52=20150521-11:35:16.888|56=AMGTOBVC|10=148|
20150521-11:36:17.212: 8=FIX.4.4|9=69|35=0|34=21|49=AMGTOBVC|56=ADRARB_XTSE_TOBVC|52=20150521-11:36:17.189|10=145|
20150521-11:36:17.212: 8=FIX.4.4|9=69|35=0|34=21|49=ADRARB_XTSE_TOBVC|52=20150521-11:36:17.212|56=AMGTOBVC|10=132|
20150521-11:37:17.251: 8=FIX.4.4|9=69|35=0|34=22|49=ADRARB_XTSE_TOBVC|52=20150521-11:37:17.251|56=AMGTOBVC|10=137|
20150521-11:37:17.521: 8=FIX.4.4|9=69|35=0|34=22|49=AMGTOBVC|56=ADRARB_XTSE_TOBVC|52=20150521-11:37:17.501|10=135|
20150521-11:38:17.251: 8=FIX.4.4|9=69|35=0|34=23|49=ADRARB_XTSE_TOBVC|52=20150521-11:38:17.251|56=AMGTOBVC|10=139|
20150521-11:38:17.799: 8=FIX.4.4|9=69|35=0|34=23|49=AMGTOBVC|56=ADRARB_XTSE_TOBVC|52=20150521-11:38:17.783|10=149|
20150521-11:39:18.123: 8=FIX.4.4|9=69|35=0|34=24|49=AMGTOBVC|56=ADRARB_XTSE_TOBVC|52=20150521-11:39:18.109|10=144|
20150521-11:39:18.124: 8=FIX.4.4|9=69|35=0|34=24|49=ADRARB_XTSE_TOBVC|52=20150521-11:39:18.124|56=AMGTOBVC|10=141|
20150521-11:40:18.251: 8=FIX.4.4|9=69|35=0|34=25|49=ADRARB_XTSE_TOBVC|52=20150521-11:40:18.251|56=AMGTOBVC|10=135|
20150521-11:40:18.463: 8=FIX.4.4|9=69|35=0|34=25|49=AMGTOBVC|56=ADRARB_XTSE_TOBVC|52=20150521-11:40:18.451|10=137|
20150521-11:41:18.251: 8=FIX.4.4|9=69|35=0|34=26|49=ADRARB_XTSE_TOBVC|52=20150521-11:41:18.251|56=AMGTOBVC|10=137|
20150521-11:41:18.476: 8=FIX.4.4|9=69|35=0|34=26|49=AMGTOBVC|56=ADRARB_XTSE_TOBVC|52=20150521-11:41:18.464|10=143|
20150521-11:42:18.785: 8=FIX.4.4|9=69|35=0|34=27|49=AMGTOBVC|56=ADRARB_XTSE_TOBVC|52=20150521-11:42:18.774|10=149|
20150521-11:42:18.786: 8=FIX.4.4|9=69|35=0|34=27|49=ADRARB_XTSE_TOBVC|52=20150521-11:42:18.786|56=AMGTOBVC|10=152|
20150521-11:43:19.094: 8=FIX.4.4|9=69|35=0|34=28|49=AMGTOBVC|56=ADRARB_XTSE_TOBVC|52=20150521-11:43:19.084|10=146|
20150521-11:43:19.094: 8=FIX.4.4|9=69|35=0|34=28|49=ADRARB_XTSE_TOBVC|52=20150521-11:43:19.094|56=AMGTOBVC|10=147|
20150521-11:44:19.251: 8=FIX.4.4|9=69|35=0|34=29|49=ADRARB_XTSE_TOBVC|52=20150521-11:44:19.251|56=AMGTOBVC|10=144|
20150521-11:44:19.372: 8=FIX.4.4|9=69|35=0|34=29|49=AMGTOBVC|56=ADRARB_XTSE_TOBVC|52=20150521-11:44:19.362|10=147|
20150521-11:45:19.251: 8=FIX.4.4|9=69|35=0|34=30|49=ADRARB_XTSE_TOBVC|52=20150521-11:45:19.251|56=AMGTOBVC|10=137|
20150521-11:45:19.665: 8=FIX.4.4|9=69|35=0|34=30|49=AMGTOBVC|56=ADRARB_XTSE_TOBVC|52=20150521-11:45:19.655|10=145|
20150521-11:46:19.251: 8=FIX.4.4|9=69|35=0|34=31|49=ADRARB_XTSE_TOBVC|52=20150521-11:46:19.251|56=AMGTOBVC|10=139|
20150521-11:46:20.023: 8=FIX.4.4|9=69|35=0|34=31|49=AMGTOBVC|56=ADRARB_XTSE_TOBVC|52=20150521-11:46:20.011|10=125|
20150521-11:47:20.251: 8=FIX.4.4|9=69|35=0|34=32|49=ADRARB_XTSE_TOBVC|52=20150521-11:47:20.251|56=AMGTOBVC|10=133|
20150521-11:47:20.501: 8=FIX.4.4|9=69|35=0|34=32|49=AMGTOBVC|56=ADRARB_XTSE_TOBVC|52=20150521-11:47:20.491|10=139|
20150521-11:48:20.251: 8=FIX.4.4|9=69|35=0|34=33|49=ADRARB_XTSE_TOBVC|52=20150521-11:48:20.251|56=AMGTOBVC|10=135|
20150521-11:48:20.841: 8=FIX.4.4|9=69|35=0|34=33|49=AMGTOBVC|56=ADRARB_XTSE_TOBVC|52=20150521-11:48:20.831|10=139|
20150521-11:49:21.251: 8=FIX.4.4|9=69|35=0|34=34|49=ADRARB_XTSE_TOBVC|52=20150521-11:49:21.251|56=AMGTOBVC|10=138|
20150521-11:49:21.262: 8=FIX.4.4|9=69|35=0|34=34|49=AMGTOBVC|56=ADRARB_XTSE_TOBVC|52=20150521-11:49:21.250|10=137|
20150521-11:50:21.251: 8=FIX.4.4|9=69|35=0|34=35|49=ADRARB_XTSE_TOBVC|52=20150521-11:50:21.251|56=AMGTOBVC|10=131|
20150521-11:50:21.663: 8=FIX.4.4|9=69|35=0|34=35|49=AMGTOBVC|56=ADRARB_XTSE_TOBVC|52=20150521-11:50:21.652|10=136|
20150521-11:51:21.251: 8=FIX.4.4|9=69|35=0|34=36|49=ADRARB_XTSE_TOBVC|52=20150521-11:51:21.251|56=AMGTOBVC|10=133|
20150521-11:51:21.987: 8=FIX.4.4|9=69|35=0|34=36|49=AMGTOBVC|56=ADRARB_XTSE_TOBVC|52=20150521-11:51:21.976|10=147|
20150521-11:52:21.251: 8=FIX.4.4|9=69|35=0|34=37|49=ADRARB_XTSE_TOBVC|52=20150521-11:52:21.251|56=AMGTOBVC|10=135|
20150521-11:52:22.320: 8=FIX.4.4|9=69|35=0|34=37|49=AMGTOBVC|56=ADRARB_XTSE_TOBVC|52=20150521-11:52:22.301|10=132|
20150521-11:53:22.251: 8=FIX.4.4|9=69|35=0|34=38|49=ADRARB_XTSE_TOBVC|52=20150521-11:53:22.251|56=AMGTOBVC|10=138|
20150521-11:53:22.559: 8=FIX.4.4|9=69|35=0|34=38|49=AMGTOBVC|56=ADRARB_XTSE_TOBVC|52=20150521-11:53:22.547|10=146|
20150521-11:54:22.251: 8=FIX.4.4|9=69|35=0|34=39|49=ADRARB_XTSE_TOBVC|52=20150521-11:54:22.251|56=AMGTOBVC|10=140|
20150521-11:54:22.961: 8=FIX.4.4|9=69|35=0|34=39|49=AMGTOBVC|56=ADRARB_XTSE_TOBVC|52=20150521-11:54:22.949|10=154|
20150521-11:55:23.251: 8=FIX.4.4|9=69|35=0|34=40|49=ADRARB_XTSE_TOBVC|52=20150521-11:55:23.251|56=AMGTOBVC|10=134|
20150521-11:55:23.255: 8=FIX.4.4|9=69|35=0|34=40|49=AMGTOBVC|56=ADRARB_XTSE_TOBVC|52=20150521-11:55:23.242|10=134|
20150521-11:56:23.594: 8=FIX.4.4|9=69|35=0|34=41|49=AMGTOBVC|56=ADRARB_XTSE_TOBVC|52=20150521-11:56:23.582|10=143|
20150521-11:56:23.595: 8=FIX.4.4|9=69|35=0|34=41|49=ADRARB_XTSE_TOBVC|52=20150521-11:56:23.595|56=AMGTOBVC|10=147|
20150521-11:57:24.044: 8=FIX.4.4|9=69|35=0|34=42|49=AMGTOBVC|56=ADRARB_XTSE_TOBVC|52=20150521-11:57:24.031|10=135|
20150521-11:57:24.044: 8=FIX.4.4|9=69|35=0|34=42|49=ADRARB_XTSE_TOBVC|52=20150521-11:57:24.044|56=AMGTOBVC|10=139|
20150521-11:58:24.150: 8=FIX.4.4|9=69|35=0|34=43|49=AMGTOBVC|56=ADRARB_XTSE_TOBVC|52=20150521-11:58:24.136|10=143|
20150521-11:58:24.150: 8=FIX.4.4|9=69|35=0|34=43|49=ADRARB_XTSE_TOBVC|52=20150521-11:58:24.150|56=AMGTOBVC|10=139|
20150521-11:59:24.251: 8=FIX.4.4|9=69|35=0|34=44|49=ADRARB_XTSE_TOBVC|52=20150521-11:59:24.251|56=AMGTOBVC|10=143|
20150521-11:59:24.465: 8=FIX.4.4|9=69|35=0|34=44|49=AMGTOBVC|56=ADRARB_XTSE_TOBVC|52=20150521-11:59:24.445|10=148|
20150521-12:00:24.251: 8=FIX.4.4|9=69|35=0|34=45|49=ADRARB_XTSE_TOBVC|52=20150521-12:00:24.251|56=AMGTOBVC|10=131|
20150521-12:00:24.751: 8=FIX.4.4|9=69|35=0|34=45|49=AMGTOBVC|56=ADRARB_XTSE_TOBVC|52=20150521-12:00:24.722|10=134|
20150521-12:01:24.279: 8=FIX.4.4|9=69|35=0|34=46|49=ADRARB_XTSE_TOBVC|52=20150521-12:01:24.279|56=AMGTOBVC|10=143|
20150521-12:01:25.061: 8=FIX.4.4|9=69|35=0|34=46|49=AMGTOBVC|56=ADRARB_XTSE_TOBVC|52=20150521-12:01:25.046|10=136|
20150521-12:02:25.251: 8=FIX.4.4|9=69|35=0|34=47|49=ADRARB_XTSE_TOBVC|52=20150521-12:02:25.251|56=AMGTOBVC|10=136|
20150521-12:02:25.386: 8=FIX.4.4|9=69|35=0|34=47|49=AMGTOBVC|56=ADRARB_XTSE_TOBVC|52=20150521-12:02:25.370|10=138|
20150521-12:03:25.695: 8=FIX.4.4|9=69|35=0|34=48|49=AMGTOBVC|56=ADRARB_XTSE_TOBVC|52=20150521-12:03:25.679|10=152|
20150521-12:03:25.695: 8=FIX.4.4|9=69|35=0|34=48|49=ADRARB_XTSE_TOBVC|52=20150521-12:03:25.695|56=AMGTOBVC|10=150|
20150521-12:04:26.019: 8=FIX.4.4|9=69|35=0|34=49|49=AMGTOBVC|56=ADRARB_XTSE_TOBVC|52=20150521-12:04:26.003|10=136|
20150521-12:04:26.020: 8=FIX.4.4|9=69|35=0|34=49|49=ADRARB_XTSE_TOBVC|52=20150521-12:04:26.020|56=AMGTOBVC|10=135|
20150521-12:05:26.251: 8=FIX.4.4|9=69|35=0|34=50|49=ADRARB_XTSE_TOBVC|52=20150521-12:05:26.251|56=AMGTOBVC|10=134|
20150521-12:05:26.313: 8=FIX.4.4|9=69|35=0|34=50|49=AMGTOBVC|56=ADRARB_XTSE_TOBVC|52=20150521-12:05:26.295|10=142|
20150521-12:06:26.251: 8=FIX.4.4|9=69|35=0|34=51|49=ADRARB_XTSE_TOBVC|52=20150521-12:06:26.251|56=AMGTOBVC|10=136|
20150521-12:06:26.623: 8=FIX.4.4|9=69|35=0|34=51|49=AMGTOBVC|56=ADRARB_XTSE_TOBVC|52=20150521-12:06:26.604|10=138|
20150521-12:07:26.251: 8=FIX.4.4|9=69|35=0|34=52|49=ADRARB_XTSE_TOBVC|52=20150521-12:07:26.251|56=AMGTOBVC|10=138|
20150521-12:07:26.948: 8=FIX.4.4|9=69|35=0|34=52|49=AMGTOBVC|56=ADRARB_XTSE_TOBVC|52=20150521-12:07:26.928|10=149|
20150521-12:08:26.251: 8=FIX.4.4|9=69|35=0|34=53|49=ADRARB_XTSE_TOBVC|52=20150521-12:08:26.251|56=AMGTOBVC|10=140|
20150521-12:08:27.271: 8=FIX.4.4|9=69|35=0|34=53|49=AMGTOBVC|56=ADRARB_XTSE_TOBVC|52=20150521-12:08:27.252|10=142|
20150521-12:09:26.251: 8=FIX.4.4|9=69|35=0|34=54|49=ADRARB_XTSE_TOBVC|52=20150521-12:09:26.251|56=AMGTOBVC|10=142|
20150521-12:09:27.583: 8=FIX.4.4|9=69|35=0|34=54|49=AMGTOBVC|56=ADRARB_XTSE_TOBVC|52=20150521-12:09:27.560|10=146|
20150521-12:10:26.251: 8=FIX.4.4|9=69|35=0|34=55|49=ADRARB_XTSE_TOBVC|52=20150521-12:10:26.251|56=AMGTOBVC|10=135|
20150521-12:10:27.936: 8=FIX.4.4|9=69|35=0|34=55|49=AMGTOBVC|56=ADRARB_XTSE_TOBVC|52=20150521-12:10:27.916|10=144|
20150521-12:11:26.251: 8=FIX.4.4|9=69|35=0|34=56|49=ADRARB_XTSE_TOBVC|52=20150521-12:11:26.251|56=AMGTOBVC|10=137|
20150521-12:11:28.260: 8=FIX.4.4|9=69|35=0|34=56|49=AMGTOBVC|56=ADRARB_XTSE_TOBVC|52=20150521-12:11:28.240|10=137|
20150521-12:12:26.251: 8=FIX.4.4|9=69|35=0|34=57|49=ADRARB_XTSE_TOBVC|52=20150521-12:12:26.251|56=AMGTOBVC|10=139|
20150521-12:12:28.569: 8=FIX.4.4|9=69|35=0|34=57|49=AMGTOBVC|56=ADRARB_XTSE_TOBVC|52=20150521-12:12:28.548|10=150|
20150521-12:13:26.312: 8=FIX.4.4|9=69|35=0|34=58|49=ADRARB_XTSE_TOBVC|52=20150521-12:13:26.312|56=AMGTOBVC|10=139|
20150521-12:13:28.925: 8=FIX.4.4|9=69|35=0|34=58|49=AMGTOBVC|56=ADRARB_XTSE_TOBVC|52=20150521-12:13:28.903|10=147|
20150521-12:14:27.251: 8=FIX.4.4|9=69|35=0|34=59|49=ADRARB_XTSE_TOBVC|52=20150521-12:14:27.251|56=AMGTOBVC|10=144|
20150521-12:14:29.250: 8=FIX.4.4|9=69|35=0|34=59|49=AMGTOBVC|56=ADRARB_XTSE_TOBVC|52=20150521-12:14:29.227|10=149|
20150521-12:15:27.251: 8=FIX.4.4|9=69|35=0|34=60|49=ADRARB_XTSE_TOBVC|52=20150521-12:15:27.251|56=AMGTOBVC|10=137|
20150521-12:15:29.622: 8=FIX.4.4|9=69|35=0|34=60|49=AMGTOBVC|56=ADRARB_XTSE_TOBVC|52=20150521-12:15:29.598|10=153|
20150521-12:16:27.251: 8=FIX.4.4|9=69|35=0|34=61|49=ADRARB_XTSE_TOBVC|52=20150521-12:16:27.251|56=AMGTOBVC|10=139|
20150521-12:16:29.920: 8=FIX.4.4|9=69|35=0|34=61|49=AMGTOBVC|56=ADRARB_XTSE_TOBVC|52=20150521-12:16:29.891|10=151|
20150521-12:17:28.251: 8=FIX.4.4|9=69|35=0|34=62|49=ADRARB_XTSE_TOBVC|52=20150521-12:17:28.251|56=AMGTOBVC|10=142|
20150521-12:17:30.225: 8=FIX.4.4|9=69|35=0|34=62|49=AMGTOBVC|56=ADRARB_XTSE_TOBVC|52=20150521-12:17:30.199|10=146|
20150521-12:18:28.251: 8=FIX.4.4|9=69|35=0|34=63|49=ADRARB_XTSE_TOBVC|52=20150521-12:18:28.251|56=AMGTOBVC|10=144|
20150521-12:18:30.564: 8=FIX.4.4|9=69|35=0|34=63|49=AMGTOBVC|56=ADRARB_XTSE_TOBVC|52=20150521-12:18:30.539|10=146|
20150521-12:19:28.251: 8=FIX.4.4|9=69|35=0|34=64|49=ADRARB_XTSE_TOBVC|52=20150521-12:19:28.251|56=AMGTOBVC|10=146|
20150521-12:19:30.888: 8=FIX.4.4|9=69|35=0|34=64|49=AMGTOBVC|56=ADRARB_XTSE_TOBVC|52=20150521-12:19:30.863|10=148|
20150521-12:20:28.251: 8=FIX.4.4|9=69|35=0|34=65|49=ADRARB_XTSE_TOBVC|52=20150521-12:20:28.251|56=AMGTOBVC|10=139|
20150521-12:20:31.167: 8=FIX.4.4|9=69|35=0|34=65|49=AMGTOBVC|56=ADRARB_XTSE_TOBVC|52=20150521-12:20:31.140|10=130|
20150521-12:21:28.251: 8=FIX.4.4|9=69|35=0|34=66|49=ADRARB_XTSE_TOBVC|52=20150521-12:21:28.251|56=AMGTOBVC|10=141|
20150521-12:21:31.491: 8=FIX.4.4|9=69|35=0|34=66|49=AMGTOBVC|56=ADRARB_XTSE_TOBVC|52=20150521-12:21:31.464|10=141|
20150521-12:22:28.252: 8=FIX.4.4|9=69|35=0|34=67|49=ADRARB_XTSE_TOBVC|52=20150521-12:22:28.252|56=AMGTOBVC|10=144|
20150521-12:22:31.933: 8=FIX.4.4|9=69|35=0|34=67|49=AMGTOBVC|56=ADRARB_XTSE_TOBVC|52=20150521-12:22:31.898|10=154|
20150521-12:23:29.251: 8=FIX.4.4|9=69|35=0|34=68|49=ADRARB_XTSE_TOBVC|52=20150521-12:23:29.251|56=AMGTOBVC|10=146|
20150521-12:23:32.311: 8=FIX.4.4|9=69|35=0|34=68|49=AMGTOBVC|56=ADRARB_XTSE_TOBVC|52=20150521-12:23:32.284|10=146|
20150521-12:24:30.251: 8=FIX.4.4|9=69|35=0|34=69|49=ADRARB_XTSE_TOBVC|52=20150521-12:24:30.251|56=AMGTOBVC|10=140|
20150521-12:24:32.621: 8=FIX.4.4|9=69|35=0|34=69|49=AMGTOBVC|56=ADRARB_XTSE_TOBVC|52=20150521-12:24:32.593|10=151|
20150521-12:25:30.251: 8=FIX.4.4|9=69|35=0|34=70|49=ADRARB_XTSE_TOBVC|52=20150521-12:25:30.251|56=AMGTOBVC|10=133|
20150521-12:25:32.945: 8=FIX.4.4|9=69|35=0|34=70|49=AMGTOBVC|56=ADRARB_XTSE_TOBVC|52=20150521-12:25:32.917|10=144|
20150521-12:26:30.251: 8=FIX.4.4|9=69|35=0|34=71|49=ADRARB_XTSE_TOBVC|52=20150521-12:26:30.251|56=AMGTOBVC|10=135|
20150521-12:26:33.317: 8=FIX.4.4|9=69|35=0|34=71|49=AMGTOBVC|56=ADRARB_XTSE_TOBVC|52=20150521-12:26:33.287|10=147|
20150521-12:27:30.257: 8=FIX.4.4|9=69|35=0|34=72|49=ADRARB_XTSE_TOBVC|52=20150521-12:27:30.257|56=AMGTOBVC|10=143|
20150521-12:27:33.642: 8=FIX.4.4|9=69|35=0|34=72|49=AMGTOBVC|56=ADRARB_XTSE_TOBVC|52=20150521-12:27:33.611|10=140|
20150521-12:28:31.252: 8=FIX.4.4|9=69|35=0|34=73|49=ADRARB_XTSE_TOBVC|52=20150521-12:28:31.251|56=AMGTOBVC|10=140|
20150521-12:28:33.950: 8=FIX.4.4|9=69|35=0|34=73|49=AMGTOBVC|56=ADRARB_XTSE_TOBVC|52=20150521-12:28:33.920|10=145|
20150521-12:29:31.251: 8=FIX.4.4|9=69|35=0|34=74|49=ADRARB_XTSE_TOBVC|52=20150521-12:29:31.251|56=AMGTOBVC|10=142|
20150521-12:29:34.244: 8=FIX.4.4|9=69|35=0|34=74|49=AMGTOBVC|56=ADRARB_XTSE_TOBVC|52=20150521-12:29:34.213|10=143|
20150521-12:30:31.251: 8=FIX.4.4|9=69|35=0|34=75|49=ADRARB_XTSE_TOBVC|52=20150521-12:30:31.251|56=AMGTOBVC|10=135|
20150521-12:30:34.538: 8=FIX.4.4|9=69|35=0|34=75|49=AMGTOBVC|56=ADRARB_XTSE_TOBVC|52=20150521-12:30:34.506|10=141|
20150521-12:31:31.251: 8=FIX.4.4|9=69|35=0|34=76|49=ADRARB_XTSE_TOBVC|52=20150521-12:31:31.251|56=AMGTOBVC|10=137|
20150521-12:31:34.827: 8=FIX.4.4|9=69|35=0|34=76|49=AMGTOBVC|56=ADRARB_XTSE_TOBVC|52=20150521-12:31:34.783|10=150|
20150521-12:32:31.251: 8=FIX.4.4|9=69|35=0|34=77|49=ADRARB_XTSE_TOBVC|52=20150521-12:32:31.251|56=AMGTOBVC|10=139|
20150521-12:32:34.990: 8=FIX.4.4|9=69|35=0|34=77|49=AMGTOBVC|56=ADRARB_XTSE_TOBVC|52=20150521-12:32:34.951|10=149|
20150521-12:33:32.251: 8=FIX.4.4|9=69|35=0|34=78|49=ADRARB_XTSE_TOBVC|52=20150521-12:33:32.251|56=AMGTOBVC|10=142|
20150521-12:33:35.261: 8=FIX.4.4|9=69|35=0|34=78|49=AMGTOBVC|56=ADRARB_XTSE_TOBVC|52=20150521-12:33:35.228|10=149|
20150521-12:34:32.251: 8=FIX.4.4|9=69|35=0|34=79|49=ADRARB_XTSE_TOBVC|52=20150521-12:34:32.251|56=AMGTOBVC|10=144|
20150521-12:34:35.523: 8=FIX.4.4|9=69|35=0|34=79|49=AMGTOBVC|56=ADRARB_XTSE_TOBVC|52=20150521-12:34:35.494|10=156|
20150521-12:35:33.251: 8=FIX.4.4|9=69|35=0|34=80|49=ADRARB_XTSE_TOBVC|52=20150521-12:35:33.251|56=AMGTOBVC|10=138|
20150521-12:35:35.848: 8=FIX.4.4|9=69|35=0|34=80|49=AMGTOBVC|56=ADRARB_XTSE_TOBVC|52=20150521-12:35:35.822|10=144|
20150521-12:36:33.251: 8=FIX.4.4|9=69|35=0|34=81|49=ADRARB_XTSE_TOBVC|52=20150521-12:36:33.251|56=AMGTOBVC|10=140|
20150521-12:36:36.146: 8=FIX.4.4|9=69|35=0|34=81|49=AMGTOBVC|56=ADRARB_XTSE_TOBVC|52=20150521-12:36:36.119|10=146|
20150521-12:37:33.251: 8=FIX.4.4|9=69|35=0|34=82|49=ADRARB_XTSE_TOBVC|52=20150521-12:37:33.251|56=AMGTOBVC|10=142|
20150521-12:37:36.419: 8=FIX.4.4|9=69|35=0|34=82|49=AMGTOBVC|56=ADRARB_XTSE_TOBVC|52=20150521-12:37:36.401|10=142|
20150521-12:38:33.251: 8=FIX.4.4|9=69|35=0|34=83|49=ADRARB_XTSE_TOBVC|52=20150521-12:38:33.251|56=AMGTOBVC|10=144|
20150521-12:38:36.744: 8=FIX.4.4|9=69|35=0|34=83|49=AMGTOBVC|56=ADRARB_XTSE_TOBVC|52=20150521-12:38:36.729|10=157|
20150521-12:39:33.251: 8=FIX.4.4|9=69|35=0|34=84|49=ADRARB_XTSE_TOBVC|52=20150521-12:39:33.251|56=AMGTOBVC|10=146|
20150521-12:39:37.021: 8=FIX.4.4|9=69|35=0|34=84|49=AMGTOBVC|56=ADRARB_XTSE_TOBVC|52=20150521-12:39:37.008|10=150|
20150521-12:40:33.251: 8=FIX.4.4|9=69|35=0|34=85|49=ADRARB_XTSE_TOBVC|52=20150521-12:40:33.251|56=AMGTOBVC|10=139|
20150521-12:40:37.331: 8=FIX.4.4|9=69|35=0|34=85|49=AMGTOBVC|56=ADRARB_XTSE_TOBVC|52=20150521-12:40:37.318|10=147|
20150521-12:41:33.251: 8=FIX.4.4|9=69|35=0|34=86|49=ADRARB_XTSE_TOBVC|52=20150521-12:41:33.251|56=AMGTOBVC|10=141|
20150521-12:41:37.611: 8=FIX.4.4|9=69|35=0|34=86|49=AMGTOBVC|56=ADRARB_XTSE_TOBVC|52=20150521-12:41:37.597|10=158|
20150521-12:42:33.251: 8=FIX.4.4|9=69|35=0|34=87|49=ADRARB_XTSE_TOBVC|52=20150521-12:42:33.251|56=AMGTOBVC|10=143|
20150521-12:42:37.933: 8=FIX.4.4|9=69|35=0|34=87|49=AMGTOBVC|56=ADRARB_XTSE_TOBVC|52=20150521-12:42:37.922|10=152|
20150521-12:43:33.251: 8=FIX.4.4|9=69|35=0|34=88|49=ADRARB_XTSE_TOBVC|52=20150521-12:43:33.251|56=AMGTOBVC|10=145|
20150521-12:43:38.180: 8=FIX.4.4|9=69|35=0|34=88|49=AMGTOBVC|56=ADRARB_XTSE_TOBVC|52=20150521-12:43:38.170|10=150|
20150521-12:44:33.251: 8=FIX.4.4|9=69|35=0|34=89|49=ADRARB_XTSE_TOBVC|52=20150521-12:44:33.251|56=AMGTOBVC|10=147|
20150521-12:44:38.458: 8=FIX.4.4|9=69|35=0|34=89|49=AMGTOBVC|56=ADRARB_XTSE_TOBVC|52=20150521-12:44:38.447|10=159|
20150521-12:45:33.251: 8=FIX.4.4|9=69|35=0|34=90|49=ADRARB_XTSE_TOBVC|52=20150521-12:45:33.251|56=AMGTOBVC|10=140|
20150521-12:45:38.799: 8=FIX.4.4|9=69|35=0|34=90|49=AMGTOBVC|56=ADRARB_XTSE_TOBVC|52=20150521-12:45:38.787|10=159|
20150521-12:46:33.252: 8=FIX.4.4|9=69|35=0|34=91|49=ADRARB_XTSE_TOBVC|52=20150521-12:46:33.251|56=AMGTOBVC|10=142|
20150521-12:46:39.116: 8=FIX.4.4|9=69|35=0|34=91|49=AMGTOBVC|56=ADRARB_XTSE_TOBVC|52=20150521-12:46:39.096|10=155|
20150521-12:47:33.251: 8=FIX.4.4|9=69|35=0|34=92|49=ADRARB_XTSE_TOBVC|52=20150521-12:47:33.251|56=AMGTOBVC|10=144|
20150521-12:47:39.393: 8=FIX.4.4|9=69|35=0|34=92|49=AMGTOBVC|56=ADRARB_XTSE_TOBVC|52=20150521-12:47:39.374|10=156|
20150521-12:48:33.251: 8=FIX.4.4|9=69|35=0|34=93|49=ADRARB_XTSE_TOBVC|52=20150521-12:48:33.251|56=AMGTOBVC|10=146|
20150521-12:48:39.456: 8=FIX.4.4|9=69|35=0|34=93|49=AMGTOBVC|56=ADRARB_XTSE_TOBVC|52=20150521-12:48:39.433|10=154|
20150521-12:49:33.251: 8=FIX.4.4|9=69|35=0|34=94|49=ADRARB_XTSE_TOBVC|52=20150521-12:49:33.251|56=AMGTOBVC|10=148|
20150521-12:49:39.753: 8=FIX.4.4|9=69|35=0|34=94|49=AMGTOBVC|56=ADRARB_XTSE_TOBVC|52=20150521-12:49:39.742|10=159|
20150521-12:50:33.251: 8=FIX.4.4|9=69|35=0|34=95|49=ADRARB_XTSE_TOBVC|52=20150521-12:50:33.251|56=AMGTOBVC|10=141|
20150521-12:50:40.062: 8=FIX.4.4|9=69|35=0|34=95|49=AMGTOBVC|56=ADRARB_XTSE_TOBVC|52=20150521-12:50:40.051|10=137|
20150521-12:51:33.251: 8=FIX.4.4|9=69|35=0|34=96|49=ADRARB_XTSE_TOBVC|52=20150521-12:51:33.251|56=AMGTOBVC|10=143|
20150521-12:51:40.370: 8=FIX.4.4|9=69|35=0|34=96|49=AMGTOBVC|56=ADRARB_XTSE_TOBVC|52=20150521-12:51:40.360|10=142|
20150521-12:52:33.252: 8=FIX.4.4|9=69|35=0|34=97|49=ADRARB_XTSE_TOBVC|52=20150521-12:52:33.252|56=AMGTOBVC|10=146|
20150521-12:52:40.713: 8=FIX.4.4|9=69|35=0|34=97|49=AMGTOBVC|56=ADRARB_XTSE_TOBVC|52=20150521-12:52:40.700|10=142|
20150521-12:53:34.251: 8=FIX.4.4|9=69|35=0|34=98|49=ADRARB_XTSE_TOBVC|52=20150521-12:53:34.251|56=AMGTOBVC|10=148|
20150521-12:53:41.051: 8=FIX.4.4|9=69|35=0|34=98|49=AMGTOBVC|56=ADRARB_XTSE_TOBVC|52=20150521-12:53:41.040|10=142|
20150521-12:54:35.251: 8=FIX.4.4|9=69|35=0|34=99|49=ADRARB_XTSE_TOBVC|52=20150521-12:54:35.251|56=AMGTOBVC|10=151|
20150521-12:54:41.376: 8=FIX.4.4|9=69|35=0|34=99|49=AMGTOBVC|56=ADRARB_XTSE_TOBVC|52=20150521-12:54:41.364|10=153|
20150521-12:55:35.251: 8=FIX.4.4|9=70|35=0|34=100|49=ADRARB_XTSE_TOBVC|52=20150521-12:55:35.251|56=AMGTOBVC|10=175|
20150521-12:55:41.715: 8=FIX.4.4|9=70|35=0|34=100|49=AMGTOBVC|56=ADRARB_XTSE_TOBVC|52=20150521-12:55:41.703|10=174|
20150521-12:56:35.251: 8=FIX.4.4|9=70|35=0|34=101|49=ADRARB_XTSE_TOBVC|52=20150521-12:56:35.251|56=AMGTOBVC|10=177|
20150521-12:56:42.072: 8=FIX.4.4|9=70|35=0|34=101|49=AMGTOBVC|56=ADRARB_XTSE_TOBVC|52=20150521-12:56:42.059|10=181|
20150521-12:57:36.251: 8=FIX.4.4|9=70|35=0|34=102|49=ADRARB_XTSE_TOBVC|52=20150521-12:57:36.251|56=AMGTOBVC|10=180|
20150521-12:57:42.401: 8=FIX.4.4|9=70|35=0|34=102|49=AMGTOBVC|56=ADRARB_XTSE_TOBVC|52=20150521-12:57:42.383|10=183|
20150521-12:58:37.251: 8=FIX.4.4|9=70|35=0|34=103|49=ADRARB_XTSE_TOBVC|52=20150521-12:58:37.251|56=AMGTOBVC|10=183|
20150521-12:58:42.664: 8=FIX.4.4|9=70|35=0|34=103|49=AMGTOBVC|56=ADRARB_XTSE_TOBVC|52=20150521-12:58:42.644|10=185|
20150521-12:59:37.251: 8=FIX.4.4|9=70|35=0|34=104|49=ADRARB_XTSE_TOBVC|52=20150521-12:59:37.251|56=AMGTOBVC|10=185|
20150521-12:59:42.936: 8=FIX.4.4|9=70|35=0|34=104|49=AMGTOBVC|56=ADRARB_XTSE_TOBVC|52=20150521-12:59:42.921|10=185|
20150521-13:00:37.251: 8=FIX.4.4|9=70|35=0|34=105|49=ADRARB_XTSE_TOBVC|52=20150521-13:00:37.251|56=AMGTOBVC|10=173|
20150521-13:00:43.198: 8=FIX.4.4|9=70|35=0|34=105|49=AMGTOBVC|56=ADRARB_XTSE_TOBVC|52=20150521-13:00:43.183|10=174|
20150521-13:01:37.251: 8=FIX.4.4|9=70|35=0|34=106|49=ADRARB_XTSE_TOBVC|52=20150521-13:01:37.251|56=AMGTOBVC|10=175|
20150521-13:01:43.492: 8=FIX.4.4|9=70|35=0|34=106|49=AMGTOBVC|56=ADRARB_XTSE_TOBVC|52=20150521-13:01:43.476|10=181|
20150521-13:02:37.251: 8=FIX.4.4|9=70|35=0|34=107|49=ADRARB_XTSE_TOBVC|52=20150521-13:02:37.251|56=AMGTOBVC|10=177|
20150521-13:02:43.723: 8=FIX.4.4|9=70|35=0|34=107|49=AMGTOBVC|56=ADRARB_XTSE_TOBVC|52=20150521-13:02:43.706|10=179|
20150521-13:03:37.251: 8=FIX.4.4|9=70|35=0|34=108|49=ADRARB_XTSE_TOBVC|52=20150521-13:03:37.251|56=AMGTOBVC|10=179|
20150521-13:03:44.003: 8=FIX.4.4|9=70|35=0|34=108|49=AMGTOBVC|56=ADRARB_XTSE_TOBVC|52=20150521-13:03:43.984|10=189|
20150521-13:04:37.251: 8=FIX.4.4|9=70|35=0|34=109|49=ADRARB_XTSE_TOBVC|52=20150521-13:04:37.251|56=AMGTOBVC|10=181|
20150521-13:04:44.125: 8=FIX.4.4|9=70|35=0|34=109|49=AMGTOBVC|56=ADRARB_XTSE_TOBVC|52=20150521-13:04:44.105|10=177|
20150521-13:05:37.251: 8=FIX.4.4|9=70|35=0|34=110|49=ADRARB_XTSE_TOBVC|52=20150521-13:05:37.251|56=AMGTOBVC|10=174|
20150521-13:05:44.386: 8=FIX.4.4|9=70|35=0|34=110|49=AMGTOBVC|56=ADRARB_XTSE_TOBVC|52=20150521-13:05:44.367|10=180|
20150521-13:06:37.251: 8=FIX.4.4|9=70|35=0|34=111|49=ADRARB_XTSE_TOBVC|52=20150521-13:06:37.251|56=AMGTOBVC|10=176|
20150521-13:06:44.678: 8=FIX.4.4|9=70|35=0|34=111|49=AMGTOBVC|56=ADRARB_XTSE_TOBVC|52=20150521-13:06:44.659|10=186|
20150521-13:07:37.251: 8=FIX.4.4|9=70|35=0|34=112|49=ADRARB_XTSE_TOBVC|52=20150521-13:07:37.251|56=AMGTOBVC|10=178|
20150521-13:07:45.035: 8=FIX.4.4|9=70|35=0|34=112|49=AMGTOBVC|56=ADRARB_XTSE_TOBVC|52=20150521-13:07:45.015|10=175|
20150521-13:08:37.251: 8=FIX.4.4|9=70|35=0|34=113|49=ADRARB_XTSE_TOBVC|52=20150521-13:08:37.251|56=AMGTOBVC|10=180|
20150521-13:08:45.343: 8=FIX.4.4|9=70|35=0|34=113|49=AMGTOBVC|56=ADRARB_XTSE_TOBVC|52=20150521-13:08:45.323|10=179|
20150521-13:09:37.251: 8=FIX.4.4|9=70|35=0|34=114|49=ADRARB_XTSE_TOBVC|52=20150521-13:09:37.251|56=AMGTOBVC|10=182|
20150521-13:09:45.611: 8=FIX.4.4|9=70|35=0|34=114|49=AMGTOBVC|56=ADRARB_XTSE_TOBVC|52=20150521-13:09:45.585|10=191|
20150521-13:10:37.252: 8=FIX.4.4|9=70|35=0|34=115|49=ADRARB_XTSE_TOBVC|52=20150521-13:10:37.252|56=AMGTOBVC|10=176|
20150521-13:10:45.894: 8=FIX.4.4|9=70|35=0|34=115|49=AMGTOBVC|56=ADRARB_XTSE_TOBVC|52=20150521-13:10:45.862|10=182|
20150521-13:11:38.251: 8=FIX.4.4|9=70|35=0|34=116|49=ADRARB_XTSE_TOBVC|52=20150521-13:11:38.251|56=AMGTOBVC|10=178|
20150521-13:11:46.180: 8=FIX.4.4|9=70|35=0|34=116|49=AMGTOBVC|56=ADRARB_XTSE_TOBVC|52=20150521-13:11:46.155|10=180|
20150521-13:12:38.251: 8=FIX.4.4|9=70|35=0|34=117|49=ADRARB_XTSE_TOBVC|52=20150521-13:12:38.251|56=AMGTOBVC|10=180|
20150521-13:12:46.503: 8=FIX.4.4|9=70|35=0|34=117|49=AMGTOBVC|56=ADRARB_XTSE_TOBVC|52=20150521-13:12:46.479|10=191|
20150521-13:13:38.251: 8=FIX.4.4|9=70|35=0|34=118|49=ADRARB_XTSE_TOBVC|52=20150521-13:13:38.251|56=AMGTOBVC|10=182|
20150521-13:13:46.826: 8=FIX.4.4|9=70|35=0|34=118|49=AMGTOBVC|56=ADRARB_XTSE_TOBVC|52=20150521-13:13:46.803|10=184|
20150521-13:14:38.251: 8=FIX.4.4|9=70|35=0|34=119|49=ADRARB_XTSE_TOBVC|52=20150521-13:14:38.251|56=AMGTOBVC|10=184|
20150521-13:14:47.119: 8=FIX.4.4|9=70|35=0|34=119|49=AMGTOBVC|56=ADRARB_XTSE_TOBVC|52=20150521-13:14:47.096|10=191|
20150521-13:15:38.252: 8=FIX.4.4|9=70|35=0|34=120|49=ADRARB_XTSE_TOBVC|52=20150521-13:15:38.252|56=AMGTOBVC|10=178|
20150521-13:15:47.491: 8=FIX.4.4|9=70|35=0|34=120|49=AMGTOBVC|56=ADRARB_XTSE_TOBVC|52=20150521-13:15:47.467|10=186|
20150521-13:16:39.251: 8=FIX.4.4|9=70|35=0|34=121|49=ADRARB_XTSE_TOBVC|52=20150521-13:16:39.251|56=AMGTOBVC|10=180|
20150521-13:16:47.877: 8=FIX.4.4|9=70|35=0|34=121|49=AMGTOBVC|56=ADRARB_XTSE_TOBVC|52=20150521-13:16:47.853|10=187|
20150521-13:17:39.251: 8=FIX.4.4|9=70|35=0|34=122|49=ADRARB_XTSE_TOBVC|52=20150521-13:17:39.251|56=AMGTOBVC|10=182|
20150521-13:17:48.187: 8=FIX.4.4|9=70|35=0|34=122|49=AMGTOBVC|56=ADRARB_XTSE_TOBVC|52=20150521-13:17:48.161|10=182|
20150521-13:18:40.251: 8=FIX.4.4|9=70|35=0|34=123|49=ADRARB_XTSE_TOBVC|52=20150521-13:18:40.251|56=AMGTOBVC|10=176|
20150521-13:18:48.574: 8=FIX.4.4|9=70|35=0|34=123|49=AMGTOBVC|56=ADRARB_XTSE_TOBVC|52=20150521-13:18:48.548|10=193|
20150521-13:19:40.262: 8=FIX.4.4|9=70|35=0|34=124|49=ADRARB_XTSE_TOBVC|52=20150521-13:19:40.262|56=AMGTOBVC|10=180|
20150521-13:19:48.851: 8=FIX.4.4|9=70|35=0|34=124|49=AMGTOBVC|56=ADRARB_XTSE_TOBVC|52=20150521-13:19:48.825|10=193|
20150521-13:20:41.251: 8=FIX.4.4|9=70|35=0|34=125|49=ADRARB_XTSE_TOBVC|52=20150521-13:20:41.251|56=AMGTOBVC|10=172|
20150521-13:20:49.374: 8=FIX.4.4|9=70|35=0|34=125|49=AMGTOBVC|56=ADRARB_XTSE_TOBVC|52=20150521-13:20:49.243|10=181|
20150521-13:21:41.252: 8=FIX.4.4|9=70|35=0|34=126|49=ADRARB_XTSE_TOBVC|52=20150521-13:21:41.252|56=AMGTOBVC|10=175|
20150521-13:21:49.609: 8=FIX.4.4|9=70|35=0|34=126|49=AMGTOBVC|56=ADRARB_XTSE_TOBVC|52=20150521-13:21:49.582|10=189|
20150521-13:22:41.252: 8=FIX.4.4|9=70|35=0|34=127|49=ADRARB_XTSE_TOBVC|52=20150521-13:22:41.252|56=AMGTOBVC|10=177|
20150521-13:22:49.937: 8=FIX.4.4|9=70|35=0|34=127|49=AMGTOBVC|56=ADRARB_XTSE_TOBVC|52=20150521-13:22:49.906|10=191|
20150521-13:23:42.251: 8=FIX.4.4|9=70|35=0|34=128|49=ADRARB_XTSE_TOBVC|52=20150521-13:23:42.251|56=AMGTOBVC|10=179|
20150521-13:23:50.306: 8=FIX.4.4|9=70|35=0|34=128|49=AMGTOBVC|56=ADRARB_XTSE_TOBVC|52=20150521-13:23:50.277|10=186|
20150521-13:24:42.251: 8=FIX.4.4|9=70|35=0|34=129|49=ADRARB_XTSE_TOBVC|52=20150521-13:24:42.251|56=AMGTOBVC|10=181|
20150521-13:24:50.693: 8=FIX.4.4|9=70|35=0|34=129|49=AMGTOBVC|56=ADRARB_XTSE_TOBVC|52=20150521-13:24:50.664|10=188|
20150521-13:25:43.259: 8=FIX.4.4|9=70|35=0|34=130|49=ADRARB_XTSE_TOBVC|52=20150521-13:25:43.259|56=AMGTOBVC|10=183|
20150521-13:25:50.940: 8=FIX.4.4|9=70|35=0|34=130|49=AMGTOBVC|56=ADRARB_XTSE_TOBVC|52=20150521-13:25:50.910|10=175|
20150521-13:26:44.250: 8=FIX.4.4|9=70|35=0|34=131|49=ADRARB_XTSE_TOBVC|52=20150521-13:26:44.250|56=AMGTOBVC|10=177|
20150521-13:26:51.357: 8=FIX.4.4|9=70|35=0|34=131|49=AMGTOBVC|56=ADRARB_XTSE_TOBVC|52=20150521-13:26:51.327|10=180|
20150521-13:27:44.251: 8=FIX.4.4|9=70|35=0|34=132|49=ADRARB_XTSE_TOBVC|52=20150521-13:27:44.251|56=AMGTOBVC|10=180|
20150521-13:27:51.666: 8=FIX.4.4|9=70|35=0|34=132|49=AMGTOBVC|56=ADRARB_XTSE_TOBVC|52=20150521-13:27:51.636|10=185|
20150521-13:28:44.251: 8=FIX.4.4|9=70|35=0|34=133|49=ADRARB_XTSE_TOBVC|52=20150521-13:28:44.251|56=AMGTOBVC|10=182|
20150521-13:28:51.946: 8=FIX.4.4|9=70|35=0|34=133|49=AMGTOBVC|56=ADRARB_XTSE_TOBVC|52=20150521-13:28:51.913|10=185|
20150521-13:29:44.251: 8=FIX.4.4|9=70|35=0|34=134|49=ADRARB_XTSE_TOBVC|52=20150521-13:29:44.251|56=AMGTOBVC|10=184|
20150521-13:29:52.316: 8=FIX.4.4|9=70|35=0|34=134|49=AMGTOBVC|56=ADRARB_XTSE_TOBVC|52=20150521-13:29:52.284|10=189|
20150521-13:30:44.251: 8=FIX.4.4|9=70|35=0|34=135|49=ADRARB_XTSE_TOBVC|52=20150521-13:30:44.251|56=AMGTOBVC|10=177|
20150521-13:30:52.625: 8=FIX.4.4|9=70|35=0|34=135|49=AMGTOBVC|56=ADRARB_XTSE_TOBVC|52=20150521-13:30:52.592|10=184|
20150521-13:31:45.251: 8=FIX.4.4|9=70|35=0|34=136|49=ADRARB_XTSE_TOBVC|52=20150521-13:31:45.251|56=AMGTOBVC|10=180|
20150521-13:31:52.949: 8=FIX.4.4|9=70|35=0|34=136|49=AMGTOBVC|56=ADRARB_XTSE_TOBVC|52=20150521-13:31:52.916|10=186|
20150521-13:32:45.251: 8=FIX.4.4|9=70|35=0|34=137|49=ADRARB_XTSE_TOBVC|52=20150521-13:32:45.251|56=AMGTOBVC|10=182|
20150521-13:32:53.181: 8=FIX.4.4|9=70|35=0|34=137|49=AMGTOBVC|56=ADRARB_XTSE_TOBVC|52=20150521-13:32:53.147|10=185|
20150521-13:33:45.251: 8=FIX.4.4|9=70|35=0|34=138|49=ADRARB_XTSE_TOBVC|52=20150521-13:33:45.251|56=AMGTOBVC|10=184|
20150521-13:33:53.524: 8=FIX.4.4|9=70|35=0|34=138|49=AMGTOBVC|56=ADRARB_XTSE_TOBVC|52=20150521-13:33:53.472|10=188|
20150521-13:34:45.251: 8=FIX.4.4|9=70|35=0|34=139|49=ADRARB_XTSE_TOBVC|52=20150521-13:34:45.251|56=AMGTOBVC|10=186|
20150521-13:34:53.753: 8=FIX.4.4|9=70|35=0|34=139|49=AMGTOBVC|56=ADRARB_XTSE_TOBVC|52=20150521-13:34:53.722|10=188|
20150521-13:35:45.251: 8=FIX.4.4|9=70|35=0|34=140|49=ADRARB_XTSE_TOBVC|52=20150521-13:35:45.251|56=AMGTOBVC|10=179|
20150521-13:35:54.666: 8=FIX.4.4|9=70|35=0|34=140|49=AMGTOBVC|56=ADRARB_XTSE_TOBVC|52=20150521-13:35:54.628|10=187|
20150521-13:36:46.251: 8=FIX.4.4|9=70|35=0|34=141|49=ADRARB_XTSE_TOBVC|52=20150521-13:36:46.251|56=AMGTOBVC|10=182|
20150521-13:36:54.948: 8=FIX.4.4|9=70|35=0|34=141|49=AMGTOBVC|56=ADRARB_XTSE_TOBVC|52=20150521-13:36:54.925|10=189|
20150521-13:37:46.252: 8=FIX.4.4|9=70|35=0|34=142|49=ADRARB_XTSE_TOBVC|52=20150521-13:37:46.252|56=AMGTOBVC|10=185|
20150521-13:37:55.241: 8=FIX.4.4|9=70|35=0|34=142|49=AMGTOBVC|56=ADRARB_XTSE_TOBVC|52=20150521-13:37:55.222|10=182|
20150521-13:38:47.251: 8=FIX.4.4|9=70|35=0|34=143|49=ADRARB_XTSE_TOBVC|52=20150521-13:38:47.251|56=AMGTOBVC|10=187|
20150521-13:38:55.567: 8=FIX.4.4|9=70|35=0|34=143|49=AMGTOBVC|56=ADRARB_XTSE_TOBVC|52=20150521-13:38:55.549|10=196|
20150521-13:39:47.251: 8=FIX.4.4|9=70|35=0|34=144|49=ADRARB_XTSE_TOBVC|52=20150521-13:39:47.251|56=AMGTOBVC|10=189|
20150521-13:39:55.998: 8=FIX.4.4|9=70|35=0|34=144|49=AMGTOBVC|56=ADRARB_XTSE_TOBVC|52=20150521-13:39:55.984|10=201|
20150521-13:40:47.251: 8=FIX.4.4|9=70|35=0|34=145|49=ADRARB_XTSE_TOBVC|52=20150521-13:40:47.251|56=AMGTOBVC|10=182|
20150521-13:40:56.432: 8=FIX.4.4|9=70|35=0|34=145|49=AMGTOBVC|56=ADRARB_XTSE_TOBVC|52=20150521-13:40:56.419|10=188|
20150521-13:41:47.251: 8=FIX.4.4|9=70|35=0|34=146|49=ADRARB_XTSE_TOBVC|52=20150521-13:41:47.251|56=AMGTOBVC|10=184|
20150521-13:41:56.728: 8=FIX.4.4|9=70|35=0|34=146|49=AMGTOBVC|56=ADRARB_XTSE_TOBVC|52=20150521-13:41:56.713|10=187|
20150521-13:42:47.251: 8=FIX.4.4|9=70|35=0|34=147|49=ADRARB_XTSE_TOBVC|52=20150521-13:42:47.251|56=AMGTOBVC|10=186|
20150521-13:42:57.020: 8=FIX.4.4|9=70|35=0|34=147|49=AMGTOBVC|56=ADRARB_XTSE_TOBVC|52=20150521-13:42:57.008|10=187|
20150521-13:43:47.251: 8=FIX.4.4|9=70|35=0|34=148|49=ADRARB_XTSE_TOBVC|52=20150521-13:43:47.251|56=AMGTOBVC|10=188|
20150521-13:43:57.313: 8=FIX.4.4|9=70|35=0|34=148|49=AMGTOBVC|56=ADRARB_XTSE_TOBVC|52=20150521-13:43:57.302|10=186|
20150521-13:44:47.251: 8=FIX.4.4|9=70|35=0|34=149|49=ADRARB_XTSE_TOBVC|52=20150521-13:44:47.251|56=AMGTOBVC|10=190|
20150521-13:44:57.621: 8=FIX.4.4|9=70|35=0|34=149|49=AMGTOBVC|56=ADRARB_XTSE_TOBVC|52=20150521-13:44:57.611|10=191|
20150521-13:45:48.251: 8=FIX.4.4|9=70|35=0|34=150|49=ADRARB_XTSE_TOBVC|52=20150521-13:45:48.251|56=AMGTOBVC|10=184|
20150521-13:45:57.914: 8=FIX.4.4|9=70|35=0|34=150|49=AMGTOBVC|56=ADRARB_XTSE_TOBVC|52=20150521-13:45:57.905|10=190|
20150521-13:46:48.252: 8=FIX.4.4|9=70|35=0|34=151|49=ADRARB_XTSE_TOBVC|52=20150521-13:46:48.252|56=AMGTOBVC|10=187|
20150521-13:46:58.239: 8=FIX.4.4|9=70|35=0|34=151|49=AMGTOBVC|56=ADRARB_XTSE_TOBVC|52=20150521-13:46:58.230|10=184|
20150521-13:47:49.251: 8=FIX.4.4|9=70|35=0|34=152|49=ADRARB_XTSE_TOBVC|52=20150521-13:47:49.251|56=AMGTOBVC|10=189|
20150521-13:47:58.471: 8=FIX.4.4|9=70|35=0|34=152|49=AMGTOBVC|56=ADRARB_XTSE_TOBVC|52=20150521-13:47:58.461|10=192|
20150521-13:48:49.251: 8=FIX.4.4|9=70|35=0|34=153|49=ADRARB_XTSE_TOBVC|52=20150521-13:48:49.251|56=AMGTOBVC|10=191|
20150521-13:48:58.796: 8=FIX.4.4|9=70|35=0|34=153|49=AMGTOBVC|56=ADRARB_XTSE_TOBVC|52=20150521-13:48:58.785|10=203|
20150521-13:49:49.251: 8=FIX.4.4|9=70|35=0|34=154|49=ADRARB_XTSE_TOBVC|52=20150521-13:49:49.251|56=AMGTOBVC|10=193|
20150521-13:49:59.026: 8=FIX.4.4|9=70|35=0|34=154|49=AMGTOBVC|56=ADRARB_XTSE_TOBVC|52=20150521-13:49:59.016|10=193|
20150521-13:50:49.251: 8=FIX.4.4|9=70|35=0|34=155|49=ADRARB_XTSE_TOBVC|52=20150521-13:50:49.251|56=AMGTOBVC|10=186|
20150521-13:50:59.303: 8=FIX.4.4|9=70|35=0|34=155|49=AMGTOBVC|56=ADRARB_XTSE_TOBVC|52=20150521-13:50:59.293|10=193|
20150521-13:51:49.251: 8=FIX.4.4|9=70|35=0|34=156|49=ADRARB_XTSE_TOBVC|52=20150521-13:51:49.251|56=AMGTOBVC|10=188|
20150521-13:51:59.804: 8=FIX.4.4|9=70|35=0|34=156|49=AMGTOBVC|56=ADRARB_XTSE_TOBVC|52=20150521-13:51:59.789|10=205|
20150521-13:52:49.251: 8=FIX.4.4|9=70|35=0|34=157|49=ADRARB_XTSE_TOBVC|52=20150521-13:52:49.251|56=AMGTOBVC|10=190|
20150521-13:53:00.095: 8=FIX.4.4|9=70|35=0|34=157|49=AMGTOBVC|56=ADRARB_XTSE_TOBVC|52=20150521-13:53:00.081|10=179|
20150521-13:53:49.251: 8=FIX.4.4|9=70|35=0|34=158|49=ADRARB_XTSE_TOBVC|52=20150521-13:53:49.251|56=AMGTOBVC|10=192|
20150521-13:54:00.340: 8=FIX.4.4|9=70|35=0|34=158|49=AMGTOBVC|56=ADRARB_XTSE_TOBVC|52=20150521-13:54:00.328|10=185|
20150521-13:54:50.251: 8=FIX.4.4|9=70|35=0|34=159|49=ADRARB_XTSE_TOBVC|52=20150521-13:54:50.251|56=AMGTOBVC|10=186|
20150521-13:55:00.680: 8=FIX.4.4|9=70|35=0|34=159|49=AMGTOBVC|56=ADRARB_XTSE_TOBVC|52=20150521-13:55:00.667|10=193|
20150521-13:55:51.251: 8=FIX.4.4|9=70|35=0|34=160|49=ADRARB_XTSE_TOBVC|52=20150521-13:55:51.251|56=AMGTOBVC|10=180|
20150521-13:56:00.976: 8=FIX.4.4|9=70|35=0|34=160|49=AMGTOBVC|56=ADRARB_XTSE_TOBVC|52=20150521-13:56:00.960|10=182|
20150521-13:56:51.251: 8=FIX.4.4|9=70|35=0|34=161|49=ADRARB_XTSE_TOBVC|52=20150521-13:56:51.251|56=AMGTOBVC|10=182|
20150521-13:57:01.360: 8=FIX.4.4|9=70|35=0|34=161|49=AMGTOBVC|56=ADRARB_XTSE_TOBVC|52=20150521-13:57:01.346|10=183|
20150521-13:57:51.251: 8=FIX.4.4|9=70|35=0|34=162|49=ADRARB_XTSE_TOBVC|52=20150521-13:57:51.251|56=AMGTOBVC|10=184|
20150521-13:58:01.669: 8=FIX.4.4|9=70|35=0|34=162|49=AMGTOBVC|56=ADRARB_XTSE_TOBVC|52=20150521-13:58:01.655|10=188|
20150521-13:58:51.252: 8=FIX.4.4|9=70|35=0|34=163|49=ADRARB_XTSE_TOBVC|52=20150521-13:58:51.252|56=AMGTOBVC|10=187|
20150521-13:59:01.963: 8=FIX.4.4|9=70|35=0|34=163|49=AMGTOBVC|56=ADRARB_XTSE_TOBVC|52=20150521-13:59:01.948|10=195|
20150521-13:59:52.251: 8=FIX.4.4|9=70|35=0|34=164|49=ADRARB_XTSE_TOBVC|52=20150521-13:59:52.251|56=AMGTOBVC|10=189|
20150521-14:00:02.322: 8=FIX.4.4|9=70|35=0|34=164|49=AMGTOBVC|56=ADRARB_XTSE_TOBVC|52=20150521-14:00:02.303|10=169|
20150521-14:00:52.251: 8=FIX.4.4|9=70|35=0|34=165|49=ADRARB_XTSE_TOBVC|52=20150521-14:00:52.251|56=AMGTOBVC|10=177|
20150521-14:01:02.613: 8=FIX.4.4|9=70|35=0|34=165|49=AMGTOBVC|56=ADRARB_XTSE_TOBVC|52=20150521-14:01:02.596|10=185|
20150521-14:01:52.251: 8=FIX.4.4|9=70|35=0|34=166|49=ADRARB_XTSE_TOBVC|52=20150521-14:01:52.251|56=AMGTOBVC|10=179|
20150521-14:02:02.921: 8=FIX.4.4|9=70|35=0|34=166|49=AMGTOBVC|56=ADRARB_XTSE_TOBVC|52=20150521-14:02:02.904|10=180|
20150521-14:02:52.251: 8=FIX.4.4|9=70|35=0|34=167|49=ADRARB_XTSE_TOBVC|52=20150521-14:02:52.251|56=AMGTOBVC|10=181|
20150521-14:03:03.232: 8=FIX.4.4|9=70|35=0|34=167|49=AMGTOBVC|56=ADRARB_XTSE_TOBVC|52=20150521-14:03:03.213|10=176|
20150521-14:03:52.251: 8=FIX.4.4|9=70|35=0|34=168|49=ADRARB_XTSE_TOBVC|52=20150521-14:03:52.251|56=AMGTOBVC|10=183|
20150521-14:04:03.617: 8=FIX.4.4|9=70|35=0|34=168|49=AMGTOBVC|56=ADRARB_XTSE_TOBVC|52=20150521-14:04:03.599|10=195|
20150521-14:04:52.251: 8=FIX.4.4|9=70|35=0|34=169|49=ADRARB_XTSE_TOBVC|52=20150521-14:04:52.251|56=AMGTOBVC|10=185|
20150521-14:05:03.910: 8=FIX.4.4|9=70|35=0|34=169|49=AMGTOBVC|56=ADRARB_XTSE_TOBVC|52=20150521-14:05:03.892|10=193|
20150521-14:05:52.251: 8=FIX.4.4|9=70|35=0|34=170|49=ADRARB_XTSE_TOBVC|52=20150521-14:05:52.251|56=AMGTOBVC|10=178|
20150521-14:06:04.219: 8=FIX.4.4|9=70|35=0|34=170|49=AMGTOBVC|56=ADRARB_XTSE_TOBVC|52=20150521-14:06:04.200|10=170|
20150521-14:06:52.251: 8=FIX.4.4|9=70|35=0|34=171|49=ADRARB_XTSE_TOBVC|52=20150521-14:06:52.251|56=AMGTOBVC|10=180|
20150521-14:07:04.528: 8=FIX.4.4|9=70|35=0|34=171|49=AMGTOBVC|56=ADRARB_XTSE_TOBVC|52=20150521-14:07:04.509|10=184|
20150521-14:07:52.251: 8=FIX.4.4|9=70|35=0|34=172|49=ADRARB_XTSE_TOBVC|52=20150521-14:07:52.251|56=AMGTOBVC|10=182|
20150521-14:08:04.603: 8=FIX.4.4|9=70|35=0|34=172|49=AMGTOBVC|56=ADRARB_XTSE_TOBVC|52=20150521-14:08:04.583|10=188|
20150521-14:08:52.251: 8=FIX.4.4|9=70|35=0|34=173|49=ADRARB_XTSE_TOBVC|52=20150521-14:08:52.251|56=AMGTOBVC|10=184|
20150521-14:09:04.953: 8=FIX.4.4|9=70|35=0|34=173|49=AMGTOBVC|56=ADRARB_XTSE_TOBVC|52=20150521-14:09:04.923|10=188|
20150521-14:09:53.251: 8=FIX.4.4|9=70|35=0|34=174|49=ADRARB_XTSE_TOBVC|52=20150521-14:09:53.251|56=AMGTOBVC|10=187|
20150521-14:10:05.363: 8=FIX.4.4|9=70|35=0|34=174|49=AMGTOBVC|56=ADRARB_XTSE_TOBVC|52=20150521-14:10:05.341|10=176|
20150521-14:10:53.251: 8=FIX.4.4|9=70|35=0|34=175|49=ADRARB_XTSE_TOBVC|52=20150521-14:10:53.251|56=AMGTOBVC|10=180|
20150521-14:11:05.640: 8=FIX.4.4|9=70|35=0|34=175|49=AMGTOBVC|56=ADRARB_XTSE_TOBVC|52=20150521-14:11:05.618|10=185|
20150521-14:11:53.251: 8=FIX.4.4|9=70|35=0|34=176|49=ADRARB_XTSE_TOBVC|52=20150521-14:11:53.251|56=AMGTOBVC|10=182|
20150521-14:12:05.954: 8=FIX.4.4|9=70|35=0|34=176|49=AMGTOBVC|56=ADRARB_XTSE_TOBVC|52=20150521-14:12:05.926|10=189|
20150521-14:12:54.251: 8=FIX.4.4|9=70|35=0|34=177|49=ADRARB_XTSE_TOBVC|52=20150521-14:12:54.251|56=AMGTOBVC|10=185|
20150521-14:13:06.258: 8=FIX.4.4|9=70|35=0|34=177|49=AMGTOBVC|56=ADRARB_XTSE_TOBVC|52=20150521-14:13:06.235|10=185|
20150521-14:13:55.251: 8=FIX.4.4|9=70|35=0|34=178|49=ADRARB_XTSE_TOBVC|52=20150521-14:13:55.251|56=AMGTOBVC|10=188|
20150521-14:14:06.582: 8=FIX.4.4|9=70|35=0|34=178|49=AMGTOBVC|56=ADRARB_XTSE_TOBVC|52=20150521-14:14:06.559|10=196|
20150521-14:14:55.252: 8=FIX.4.4|9=70|35=0|34=179|49=ADRARB_XTSE_TOBVC|52=20150521-14:14:55.252|56=AMGTOBVC|10=191|
20150521-14:15:06.875: 8=FIX.4.4|9=70|35=0|34=179|49=AMGTOBVC|56=ADRARB_XTSE_TOBVC|52=20150521-14:15:06.852|10=194|
20150521-14:15:56.251: 8=FIX.4.4|9=70|35=0|34=180|49=ADRARB_XTSE_TOBVC|52=20150521-14:15:56.251|56=AMGTOBVC|10=184|
20150521-14:16:07.184: 8=FIX.4.4|9=70|35=0|34=180|49=AMGTOBVC|56=ADRARB_XTSE_TOBVC|52=20150521-14:16:07.160|10=180|
20150521-14:16:56.251: 8=FIX.4.4|9=70|35=0|34=181|49=ADRARB_XTSE_TOBVC|52=20150521-14:16:56.251|56=AMGTOBVC|10=186|
20150521-14:17:07.496: 8=FIX.4.4|9=70|35=0|34=181|49=AMGTOBVC|56=ADRARB_XTSE_TOBVC|52=20150521-14:17:07.468|10=193|
20150521-14:17:56.251: 8=FIX.4.4|9=70|35=0|34=182|49=ADRARB_XTSE_TOBVC|52=20150521-14:17:56.251|56=AMGTOBVC|10=188|
20150521-14:18:07.833: 8=FIX.4.4|9=70|35=0|34=182|49=AMGTOBVC|56=ADRARB_XTSE_TOBVC|52=20150521-14:18:07.808|10=193|
20150521-14:18:57.251: 8=FIX.4.4|9=70|35=0|34=183|49=ADRARB_XTSE_TOBVC|52=20150521-14:18:57.251|56=AMGTOBVC|10=191|
20150521-14:19:08.126: 8=FIX.4.4|9=70|35=0|34=183|49=AMGTOBVC|56=ADRARB_XTSE_TOBVC|52=20150521-14:19:08.101|10=182|
20150521-14:19:58.251: 8=FIX.4.4|9=70|35=0|34=184|49=ADRARB_XTSE_TOBVC|52=20150521-14:19:58.251|56=AMGTOBVC|10=194|
20150521-14:20:08.420: 8=FIX.4.4|9=70|35=0|34=184|49=AMGTOBVC|56=ADRARB_XTSE_TOBVC|52=20150521-14:20:08.394|10=189|
20150521-14:20:58.251: 8=FIX.4.4|9=70|35=0|34=185|49=ADRARB_XTSE_TOBVC|52=20150521-14:20:58.251|56=AMGTOBVC|10=187|
20150521-14:21:08.760: 8=FIX.4.4|9=70|35=0|34=185|49=AMGTOBVC|56=ADRARB_XTSE_TOBVC|52=20150521-14:21:08.733|10=188|
20150521-14:21:58.251: 8=FIX.4.4|9=70|35=0|34=186|49=ADRARB_XTSE_TOBVC|52=20150521-14:21:58.251|56=AMGTOBVC|10=189|
20150521-14:22:09.054: 8=FIX.4.4|9=70|35=0|34=186|49=AMGTOBVC|56=ADRARB_XTSE_TOBVC|52=20150521-14:22:09.026|10=186|
20150521-14:22:58.251: 8=FIX.4.4|9=70|35=0|34=187|49=ADRARB_XTSE_TOBVC|52=20150521-14:22:58.251|56=AMGTOBVC|10=191|
20150521-14:23:09.378: 8=FIX.4.4|9=70|35=0|34=187|49=AMGTOBVC|56=ADRARB_XTSE_TOBVC|52=20150521-14:23:09.350|10=188|
20150521-14:23:58.251: 8=FIX.4.4|9=70|35=0|34=188|49=ADRARB_XTSE_TOBVC|52=20150521-14:23:58.251|56=AMGTOBVC|10=193|
20150521-14:24:09.828: 8=FIX.4.4|9=70|35=0|34=188|49=AMGTOBVC|56=ADRARB_XTSE_TOBVC|52=20150521-14:24:09.799|10=207|
20150521-14:24:59.251: 8=FIX.4.4|9=70|35=0|34=189|49=ADRARB_XTSE_TOBVC|52=20150521-14:24:59.251|56=AMGTOBVC|10=196|
20150521-14:25:10.136: 8=FIX.4.4|9=70|35=0|34=189|49=AMGTOBVC|56=ADRARB_XTSE_TOBVC|52=20150521-14:25:10.108|10=185|
20150521-14:25:59.251: 8=FIX.4.4|9=70|35=0|34=190|49=ADRARB_XTSE_TOBVC|52=20150521-14:25:59.251|56=AMGTOBVC|10=189|
20150521-14:26:10.446: 8=FIX.4.4|9=70|35=0|34=190|49=AMGTOBVC|56=ADRARB_XTSE_TOBVC|52=20150521-14:26:10.416|10=180|
20150521-14:27:00.251: 8=FIX.4.4|9=70|35=0|34=191|49=ADRARB_XTSE_TOBVC|52=20150521-14:27:00.251|56=AMGTOBVC|10=178|
20150521-14:27:10.759: 8=FIX.4.4|9=70|35=0|34=191|49=AMGTOBVC|56=ADRARB_XTSE_TOBVC|52=20150521-14:27:10.724|10=184|
20150521-14:28:00.251: 8=FIX.4.4|9=70|35=0|34=192|49=ADRARB_XTSE_TOBVC|52=20150521-14:28:00.251|56=AMGTOBVC|10=180|
20150521-14:28:11.143: 8=FIX.4.4|9=70|35=0|34=192|49=AMGTOBVC|56=ADRARB_XTSE_TOBVC|52=20150521-14:28:11.111|10=177|
20150521-14:29:00.251: 8=FIX.4.4|9=70|35=0|34=193|49=ADRARB_XTSE_TOBVC|52=20150521-14:29:00.251|56=AMGTOBVC|10=182|
20150521-14:29:11.529: 8=FIX.4.4|9=70|35=0|34=193|49=AMGTOBVC|56=ADRARB_XTSE_TOBVC|52=20150521-14:29:11.497|10=196|
20150521-14:30:00.251: 8=FIX.4.4|9=70|35=0|34=194|49=ADRARB_XTSE_TOBVC|52=20150521-14:30:00.251|56=AMGTOBVC|10=175|
20150521-14:30:11.863: 8=FIX.4.4|9=70|35=0|34=194|49=AMGTOBVC|56=ADRARB_XTSE_TOBVC|52=20150521-14:30:11.821|10=180|
20150521-14:31:00.251: 8=FIX.4.4|9=70|35=0|34=195|49=ADRARB_XTSE_TOBVC|52=20150521-14:31:00.251|56=AMGTOBVC|10=177|
20150521-14:31:12.147: 8=FIX.4.4|9=70|35=0|34=195|49=AMGTOBVC|56=ADRARB_XTSE_TOBVC|52=20150521-14:31:12.114|10=178|
20150521-14:32:01.250: 8=FIX.4.4|9=70|35=0|34=196|49=ADRARB_XTSE_TOBVC|52=20150521-14:32:01.250|56=AMGTOBVC|10=179|
20150521-14:32:12.455: 8=FIX.4.4|9=70|35=0|34=196|49=AMGTOBVC|56=ADRARB_XTSE_TOBVC|52=20150521-14:32:12.423|10=183|
20150521-14:33:01.252: 8=FIX.4.4|9=70|35=0|34=197|49=ADRARB_XTSE_TOBVC|52=20150521-14:33:01.252|56=AMGTOBVC|10=183|
20150521-14:33:12.781: 8=FIX.4.4|9=70|35=0|34=197|49=AMGTOBVC|56=ADRARB_XTSE_TOBVC|52=20150521-14:33:12.747|10=194|
20150521-14:34:02.251: 8=FIX.4.4|9=70|35=0|34=198|49=ADRARB_XTSE_TOBVC|52=20150521-14:34:02.251|56=AMGTOBVC|10=185|
20150521-14:34:13.089: 8=FIX.4.4|9=70|35=0|34=198|49=AMGTOBVC|56=ADRARB_XTSE_TOBVC|52=20150521-14:34:13.058|10=192|
20150521-14:35:02.251: 8=FIX.4.4|9=70|35=0|34=199|49=ADRARB_XTSE_TOBVC|52=20150521-14:35:02.251|56=AMGTOBVC|10=187|
20150521-14:35:13.413: 8=FIX.4.4|9=70|35=0|34=199|49=AMGTOBVC|56=ADRARB_XTSE_TOBVC|52=20150521-14:35:13.386|10=198|
20150521-14:36:02.251: 8=FIX.4.4|9=70|35=0|34=200|49=ADRARB_XTSE_TOBVC|52=20150521-14:36:02.251|56=AMGTOBVC|10=171|
20150521-14:36:13.709: 8=FIX.4.4|9=70|35=0|34=200|49=AMGTOBVC|56=ADRARB_XTSE_TOBVC|52=20150521-14:36:13.684|10=183|
20150521-14:37:03.251: 8=FIX.4.4|9=70|35=0|34=201|49=ADRARB_XTSE_TOBVC|52=20150521-14:37:03.251|56=AMGTOBVC|10=174|
20150521-14:37:14.033: 8=FIX.4.4|9=70|35=0|34=201|49=AMGTOBVC|56=ADRARB_XTSE_TOBVC|52=20150521-14:37:14.013|10=172|
20150521-14:38:03.251: 8=FIX.4.4|9=70|35=0|34=202|49=ADRARB_XTSE_TOBVC|52=20150521-14:38:03.251|56=AMGTOBVC|10=176|
20150521-14:38:14.343: 8=FIX.4.4|9=70|35=0|34=202|49=AMGTOBVC|56=ADRARB_XTSE_TOBVC|52=20150521-14:38:14.326|10=181|
20150521-14:39:03.251: 8=FIX.4.4|9=70|35=0|34=203|49=ADRARB_XTSE_TOBVC|52=20150521-14:39:03.251|56=AMGTOBVC|10=178|
20150521-14:39:14.640: 8=FIX.4.4|9=70|35=0|34=203|49=AMGTOBVC|56=ADRARB_XTSE_TOBVC|52=20150521-14:39:14.621|10=181|
20150521-14:40:03.292: 8=FIX.4.4|9=70|35=0|34=204|49=ADRARB_XTSE_TOBVC|52=20150521-14:40:03.292|56=AMGTOBVC|10=176|
20150521-14:40:14.730: 8=FIX.4.4|9=70|35=0|34=204|49=AMGTOBVC|56=ADRARB_XTSE_TOBVC|52=20150521-14:40:14.713|10=176|
20150521-14:41:04.251: 8=FIX.4.4|9=70|35=0|34=205|49=ADRARB_XTSE_TOBVC|52=20150521-14:41:04.251|56=AMGTOBVC|10=174|
20150521-14:41:15.080: 8=FIX.4.4|9=70|35=0|34=205|49=AMGTOBVC|56=ADRARB_XTSE_TOBVC|52=20150521-14:41:15.070|10=175|
20150521-14:42:04.251: 8=FIX.4.4|9=70|35=0|34=206|49=ADRARB_XTSE_TOBVC|52=20150521-14:42:04.251|56=AMGTOBVC|10=176|
20150521-14:42:15.358: 8=FIX.4.4|9=70|35=0|34=206|49=AMGTOBVC|56=ADRARB_XTSE_TOBVC|52=20150521-14:42:15.348|10=185|
20150521-14:43:04.251: 8=FIX.4.4|9=70|35=0|34=207|49=ADRARB_XTSE_TOBVC|52=20150521-14:43:04.251|56=AMGTOBVC|10=178|
20150521-14:43:15.667: 8=FIX.4.4|9=70|35=0|34=207|49=AMGTOBVC|56=ADRARB_XTSE_TOBVC|52=20150521-14:43:15.658|10=191|
20150521-14:44:05.251: 8=FIX.4.4|9=70|35=0|34=208|49=ADRARB_XTSE_TOBVC|52=20150521-14:44:05.251|56=AMGTOBVC|10=181|
20150521-14:44:15.977: 8=FIX.4.4|9=70|35=0|34=208|49=AMGTOBVC|56=ADRARB_XTSE_TOBVC|52=20150521-14:44:15.968|10=197|
20150521-14:45:05.251: 8=FIX.4.4|9=70|35=0|34=209|49=ADRARB_XTSE_TOBVC|52=20150521-14:45:05.251|56=AMGTOBVC|10=183|
20150521-14:45:16.332: 8=FIX.4.4|9=70|35=0|34=209|49=AMGTOBVC|56=ADRARB_XTSE_TOBVC|52=20150521-14:45:16.323|10=185|
20150521-14:46:05.251: 8=FIX.4.4|9=70|35=0|34=210|49=ADRARB_XTSE_TOBVC|52=20150521-14:46:05.251|56=AMGTOBVC|10=176|
20150521-14:46:16.610: 8=FIX.4.4|9=70|35=0|34=210|49=AMGTOBVC|56=ADRARB_XTSE_TOBVC|52=20150521-14:46:16.601|10=177|
20150521-14:47:06.251: 8=FIX.4.4|9=70|35=0|34=211|49=ADRARB_XTSE_TOBVC|52=20150521-14:47:06.251|56=AMGTOBVC|10=179|
20150521-14:47:16.887: 8=FIX.4.4|9=70|35=0|34=211|49=AMGTOBVC|56=ADRARB_XTSE_TOBVC|52=20150521-14:47:16.879|10=196|
20150521-14:48:06.251: 8=FIX.4.4|9=70|35=0|34=212|49=ADRARB_XTSE_TOBVC|52=20150521-14:48:06.251|56=AMGTOBVC|10=181|
20150521-14:48:17.150: 8=FIX.4.4|9=70|35=0|34=212|49=AMGTOBVC|56=ADRARB_XTSE_TOBVC|52=20150521-14:48:17.141|10=181|
20150521-14:49:06.251: 8=FIX.4.4|9=70|35=0|34=213|49=ADRARB_XTSE_TOBVC|52=20150521-14:49:06.251|56=AMGTOBVC|10=183|
20150521-14:49:17.399: 8=FIX.4.4|9=70|35=0|34=213|49=AMGTOBVC|56=ADRARB_XTSE_TOBVC|52=20150521-14:49:17.387|10=195|
20150521-14:50:06.251: 8=FIX.4.4|9=70|35=0|34=214|49=ADRARB_XTSE_TOBVC|52=20150521-14:50:06.251|56=AMGTOBVC|10=176|
20150521-14:50:17.628: 8=FIX.4.4|9=70|35=0|34=214|49=AMGTOBVC|56=ADRARB_XTSE_TOBVC|52=20150521-14:50:17.618|10=185|
20150521-14:51:06.251: 8=FIX.4.4|9=70|35=0|34=215|49=ADRARB_XTSE_TOBVC|52=20150521-14:51:06.251|56=AMGTOBVC|10=178|
20150521-14:51:17.874: 8=FIX.4.4|9=70|35=0|34=215|49=AMGTOBVC|56=ADRARB_XTSE_TOBVC|52=20150521-14:51:17.864|10=190|
20150521-14:52:06.251: 8=FIX.4.4|9=70|35=0|34=216|49=ADRARB_XTSE_TOBVC|52=20150521-14:52:06.251|56=AMGTOBVC|10=180|
20150521-14:52:18.183: 8=FIX.4.4|9=70|35=0|34=216|49=AMGTOBVC|56=ADRARB_XTSE_TOBVC|52=20150521-14:52:18.173|10=186|
20150521-14:53:06.251: 8=FIX.4.4|9=70|35=0|34=217|49=ADRARB_XTSE_TOBVC|52=20150521-14:53:06.251|56=AMGTOBVC|10=182|
20150521-14:53:18.414: 8=FIX.4.4|9=70|35=0|34=217|49=AMGTOBVC|56=ADRARB_XTSE_TOBVC|52=20150521-14:53:18.404|10=185|
20150521-14:54:06.251: 8=FIX.4.4|9=70|35=0|34=218|49=ADRARB_XTSE_TOBVC|52=20150521-14:54:06.251|56=AMGTOBVC|10=184|
20150521-14:54:18.692: 8=FIX.4.4|9=70|35=0|34=218|49=AMGTOBVC|56=ADRARB_XTSE_TOBVC|52=20150521-14:54:18.681|10=194|
20150521-14:55:06.251: 8=FIX.4.4|9=70|35=0|34=219|49=ADRARB_XTSE_TOBVC|52=20150521-14:55:06.251|56=AMGTOBVC|10=186|
20150521-14:55:18.923: 8=FIX.4.4|9=70|35=0|34=219|49=AMGTOBVC|56=ADRARB_XTSE_TOBVC|52=20150521-14:55:18.912|10=193|
20150521-14:56:07.251: 8=FIX.4.4|9=70|35=0|34=220|49=ADRARB_XTSE_TOBVC|52=20150521-14:56:07.251|56=AMGTOBVC|10=180|
20150521-14:56:19.388: 8=FIX.4.4|9=70|35=0|34=220|49=AMGTOBVC|56=ADRARB_XTSE_TOBVC|52=20150521-14:56:19.376|10=191|
20150521-14:57:07.251: 8=FIX.4.4|9=70|35=0|34=221|49=ADRARB_XTSE_TOBVC|52=20150521-14:57:07.251|56=AMGTOBVC|10=182|
20150521-14:57:19.681: 8=FIX.4.4|9=70|35=0|34=221|49=AMGTOBVC|56=ADRARB_XTSE_TOBVC|52=20150521-14:57:19.669|10=198|
20150521-14:58:07.251: 8=FIX.4.4|9=70|35=0|34=222|49=ADRARB_XTSE_TOBVC|52=20150521-14:58:07.251|56=AMGTOBVC|10=184|
20150521-14:58:19.990: 8=FIX.4.4|9=70|35=0|34=222|49=AMGTOBVC|56=ADRARB_XTSE_TOBVC|52=20150521-14:58:19.978|10=203|
20150521-14:59:08.251: 8=FIX.4.4|9=70|35=0|34=223|49=ADRARB_XTSE_TOBVC|52=20150521-14:59:08.251|56=AMGTOBVC|10=187|
20150521-14:59:20.300: 8=FIX.4.4|9=70|35=0|34=223|49=AMGTOBVC|56=ADRARB_XTSE_TOBVC|52=20150521-14:59:20.286|10=189|
20150521-15:00:08.251: 8=FIX.4.4|9=70|35=0|34=224|49=ADRARB_XTSE_TOBVC|52=20150521-15:00:08.251|56=AMGTOBVC|10=175|
20150521-15:00:20.605: 8=FIX.4.4|9=70|35=0|34=224|49=AMGTOBVC|56=ADRARB_XTSE_TOBVC|52=20150521-15:00:20.579|10=182|
20150521-15:01:08.251: 8=FIX.4.4|9=70|35=0|34=225|49=ADRARB_XTSE_TOBVC|52=20150521-15:01:08.251|56=AMGTOBVC|10=177|
20150521-15:01:20.873: 8=FIX.4.4|9=70|35=0|34=225|49=AMGTOBVC|56=ADRARB_XTSE_TOBVC|52=20150521-15:01:20.856|10=182|
20150521-15:02:08.251: 8=FIX.4.4|9=70|35=0|34=226|49=ADRARB_XTSE_TOBVC|52=20150521-15:02:08.251|56=AMGTOBVC|10=179|
20150521-15:02:21.165: 8=FIX.4.4|9=70|35=0|34=226|49=AMGTOBVC|56=ADRARB_XTSE_TOBVC|52=20150521-15:02:21.149|10=180|
20150521-15:03:08.251: 8=FIX.4.4|9=70|35=0|34=227|49=ADRARB_XTSE_TOBVC|52=20150521-15:03:08.251|56=AMGTOBVC|10=181|
20150521-15:03:21.488: 8=FIX.4.4|9=70|35=0|34=227|49=AMGTOBVC|56=ADRARB_XTSE_TOBVC|52=20150521-15:03:21.473|10=182|
20150521-15:04:08.251: 8=FIX.4.4|9=70|35=0|34=228|49=ADRARB_XTSE_TOBVC|52=20150521-15:04:08.251|56=AMGTOBVC|10=183|
20150521-15:04:21.860: 8=FIX.4.4|9=70|35=0|34=228|49=AMGTOBVC|56=ADRARB_XTSE_TOBVC|52=20150521-15:04:21.844|10=186|
20150521-15:05:08.251: 8=FIX.4.4|9=70|35=0|34=229|49=ADRARB_XTSE_TOBVC|52=20150521-15:05:08.251|56=AMGTOBVC|10=185|
20150521-15:05:22.174: 8=FIX.4.4|9=70|35=0|34=229|49=AMGTOBVC|56=ADRARB_XTSE_TOBVC|52=20150521-15:05:22.152|10=181|
20150521-15:06:08.251: 8=FIX.4.4|9=70|35=0|34=230|49=ADRARB_XTSE_TOBVC|52=20150521-15:06:08.251|56=AMGTOBVC|10=178|
20150521-15:06:22.462: 8=FIX.4.4|9=70|35=0|34=230|49=AMGTOBVC|56=ADRARB_XTSE_TOBVC|52=20150521-15:06:22.445|10=179|
20150521-15:07:08.251: 8=FIX.4.4|9=70|35=0|34=231|49=ADRARB_XTSE_TOBVC|52=20150521-15:07:08.251|56=AMGTOBVC|10=180|
20150521-15:07:22.860: 8=FIX.4.4|9=70|35=0|34=231|49=AMGTOBVC|56=ADRARB_XTSE_TOBVC|52=20150521-15:07:22.769|10=190|
20150521-15:08:08.251: 8=FIX.4.4|9=70|35=0|34=232|49=ADRARB_XTSE_TOBVC|52=20150521-15:08:08.251|56=AMGTOBVC|10=182|
20150521-15:08:23.111: 8=FIX.4.4|9=70|35=0|34=232|49=AMGTOBVC|56=ADRARB_XTSE_TOBVC|52=20150521-15:08:23.093|10=183|
20150521-15:09:08.251: 8=FIX.4.4|9=70|35=0|34=233|49=ADRARB_XTSE_TOBVC|52=20150521-15:09:08.251|56=AMGTOBVC|10=184|
20150521-15:09:23.425: 8=FIX.4.4|9=70|35=0|34=233|49=AMGTOBVC|56=ADRARB_XTSE_TOBVC|52=20150521-15:09:23.386|10=190|
20150521-15:10:08.251: 8=FIX.4.4|9=70|35=0|34=234|49=ADRARB_XTSE_TOBVC|52=20150521-15:10:08.251|56=AMGTOBVC|10=177|
20150521-15:10:23.668: 8=FIX.4.4|9=70|35=0|34=234|49=AMGTOBVC|56=ADRARB_XTSE_TOBVC|52=20150521-15:10:23.648|10=184|
20150521-15:11:08.252: 8=FIX.4.4|9=70|35=0|34=235|49=ADRARB_XTSE_TOBVC|52=20150521-15:11:08.252|56=AMGTOBVC|10=180|
20150521-15:11:23.930: 8=FIX.4.4|9=70|35=0|34=235|49=AMGTOBVC|56=ADRARB_XTSE_TOBVC|52=20150521-15:11:23.909|10=186|
20150521-15:12:09.251: 8=FIX.4.4|9=70|35=0|34=236|49=ADRARB_XTSE_TOBVC|52=20150521-15:12:09.251|56=AMGTOBVC|10=182|
20150521-15:12:24.443: 8=FIX.4.4|9=70|35=0|34=236|49=AMGTOBVC|56=ADRARB_XTSE_TOBVC|52=20150521-15:12:24.420|10=177|
20150521-15:13:09.252: 8=FIX.4.4|9=70|35=0|34=237|49=ADRARB_XTSE_TOBVC|52=20150521-15:13:09.252|56=AMGTOBVC|10=185|
20150521-15:13:24.737: 8=FIX.4.4|9=70|35=0|34=237|49=AMGTOBVC|56=ADRARB_XTSE_TOBVC|52=20150521-15:13:24.713|10=184|
20150521-15:14:09.252: 8=FIX.4.4|9=70|35=0|34=238|49=ADRARB_XTSE_TOBVC|52=20150521-15:14:09.252|56=AMGTOBVC|10=187|
20150521-15:14:25.059: 8=FIX.4.4|9=70|35=0|34=238|49=AMGTOBVC|56=ADRARB_XTSE_TOBVC|52=20150521-15:14:25.037|10=186|
20150521-15:15:09.252: 8=FIX.4.4|9=70|35=0|34=239|49=ADRARB_XTSE_TOBVC|52=20150521-15:15:09.252|56=AMGTOBVC|10=189|
20150521-15:15:25.368: 8=FIX.4.4|9=70|35=0|34=239|49=AMGTOBVC|56=ADRARB_XTSE_TOBVC|52=20150521-15:15:25.346|10=191|
20150521-15:16:10.251: 8=FIX.4.4|9=70|35=0|34=240|49=ADRARB_XTSE_TOBVC|52=20150521-15:16:10.251|56=AMGTOBVC|10=173|
20150521-15:16:25.662: 8=FIX.4.4|9=70|35=0|34=240|49=AMGTOBVC|56=ADRARB_XTSE_TOBVC|52=20150521-15:16:25.639|10=189|
20150521-15:17:11.251: 8=FIX.4.4|9=70|35=0|34=241|49=ADRARB_XTSE_TOBVC|52=20150521-15:17:11.251|56=AMGTOBVC|10=176|
20150521-15:17:25.986: 8=FIX.4.4|9=70|35=0|34=241|49=AMGTOBVC|56=ADRARB_XTSE_TOBVC|52=20150521-15:17:25.963|10=191|
20150521-15:18:11.251: 8=FIX.4.4|9=70|35=0|34=242|49=ADRARB_XTSE_TOBVC|52=20150521-15:18:11.251|56=AMGTOBVC|10=178|
20150521-15:18:26.279: 8=FIX.4.4|9=70|35=0|34=242|49=AMGTOBVC|56=ADRARB_XTSE_TOBVC|52=20150521-15:18:26.256|10=189|
20150521-15:19:11.251: 8=FIX.4.4|9=70|35=0|34=243|49=ADRARB_XTSE_TOBVC|52=20150521-15:19:11.251|56=AMGTOBVC|10=180|
20150521-15:19:26.589: 8=FIX.4.4|9=70|35=0|34=243|49=AMGTOBVC|56=ADRARB_XTSE_TOBVC|52=20150521-15:19:26.564|10=193|
20150521-15:20:12.251: 8=FIX.4.4|9=70|35=0|34=244|49=ADRARB_XTSE_TOBVC|52=20150521-15:20:12.251|56=AMGTOBVC|10=174|
20150521-15:20:26.851: 8=FIX.4.4|9=70|35=0|34=244|49=AMGTOBVC|56=ADRARB_XTSE_TOBVC|52=20150521-15:20:26.826|10=187|
20150521-15:21:12.251: 8=FIX.4.4|9=70|35=0|34=245|49=ADRARB_XTSE_TOBVC|52=20150521-15:21:12.251|56=AMGTOBVC|10=176|
20150521-15:21:27.144: 8=FIX.4.4|9=70|35=0|34=245|49=AMGTOBVC|56=ADRARB_XTSE_TOBVC|52=20150521-15:21:27.118|10=184|
20150521-15:22:12.251: 8=FIX.4.4|9=70|35=0|34=246|49=ADRARB_XTSE_TOBVC|52=20150521-15:22:12.251|56=AMGTOBVC|10=178|
20150521-15:22:27.407: 8=FIX.4.4|9=70|35=0|34=246|49=AMGTOBVC|56=ADRARB_XTSE_TOBVC|52=20150521-15:22:27.380|10=187|
20150521-15:23:12.251: 8=FIX.4.4|9=70|35=0|34=247|49=ADRARB_XTSE_TOBVC|52=20150521-15:23:12.251|56=AMGTOBVC|10=180|
20150521-15:23:27.732: 8=FIX.4.4|9=70|35=0|34=247|49=AMGTOBVC|56=ADRARB_XTSE_TOBVC|52=20150521-15:23:27.704|10=189|
20150521-15:24:13.251: 8=FIX.4.4|9=70|35=0|34=248|49=ADRARB_XTSE_TOBVC|52=20150521-15:24:13.251|56=AMGTOBVC|10=183|
20150521-15:24:28.036: 8=FIX.4.4|9=70|35=0|34=248|49=AMGTOBVC|56=ADRARB_XTSE_TOBVC|52=20150521-15:24:27.997|10=205|
20150521-15:25:13.251: 8=FIX.4.4|9=70|35=0|34=249|49=ADRARB_XTSE_TOBVC|52=20150521-15:25:13.251|56=AMGTOBVC|10=185|
20150521-15:25:28.302: 8=FIX.4.4|9=70|35=0|34=249|49=AMGTOBVC|56=ADRARB_XTSE_TOBVC|52=20150521-15:25:28.274|10=196|
20150521-15:26:13.251: 8=FIX.4.4|9=70|35=0|34=250|49=ADRARB_XTSE_TOBVC|52=20150521-15:26:13.251|56=AMGTOBVC|10=178|
20150521-15:26:28.626: 8=FIX.4.4|9=70|35=0|34=250|49=AMGTOBVC|56=ADRARB_XTSE_TOBVC|52=20150521-15:26:28.598|10=198|
20150521-15:27:13.251: 8=FIX.4.4|9=70|35=0|34=251|49=ADRARB_XTSE_TOBVC|52=20150521-15:27:13.251|56=AMGTOBVC|10=180|
20150521-15:27:28.951: 8=FIX.4.4|9=70|35=0|34=251|49=AMGTOBVC|56=ADRARB_XTSE_TOBVC|52=20150521-15:27:28.922|10=191|
20150521-15:28:14.251: 8=FIX.4.4|9=70|35=0|34=252|49=ADRARB_XTSE_TOBVC|52=20150521-15:28:14.251|56=AMGTOBVC|10=183|
20150521-15:28:29.448: 8=FIX.4.4|9=70|35=0|34=252|49=AMGTOBVC|56=ADRARB_XTSE_TOBVC|52=20150521-15:28:29.418|10=194|
20150521-15:29:14.251: 8=FIX.4.4|9=70|35=0|34=253|49=ADRARB_XTSE_TOBVC|52=20150521-15:29:14.251|56=AMGTOBVC|10=185|
20150521-15:29:29.694: 8=FIX.4.4|9=70|35=0|34=253|49=AMGTOBVC|56=ADRARB_XTSE_TOBVC|52=20150521-15:29:29.664|10=199|
20150521-15:30:15.251: 8=FIX.4.4|9=70|35=0|34=254|49=ADRARB_XTSE_TOBVC|52=20150521-15:30:15.251|56=AMGTOBVC|10=179|
20150521-15:30:29.987: 8=FIX.4.4|9=70|35=0|34=254|49=AMGTOBVC|56=ADRARB_XTSE_TOBVC|52=20150521-15:30:29.957|10=197|
20150521-15:31:15.251: 8=FIX.4.4|9=70|35=0|34=255|49=ADRARB_XTSE_TOBVC|52=20150521-15:31:15.251|56=AMGTOBVC|10=181|
20150521-15:31:30.249: 8=FIX.4.4|9=70|35=0|34=255|49=AMGTOBVC|56=ADRARB_XTSE_TOBVC|52=20150521-15:31:30.218|10=181|
20150521-15:32:15.251: 8=FIX.4.4|9=70|35=0|34=256|49=ADRARB_XTSE_TOBVC|52=20150521-15:32:15.251|56=AMGTOBVC|10=183|
20150521-15:32:30.527: 8=FIX.4.4|9=70|35=0|34=256|49=AMGTOBVC|56=ADRARB_XTSE_TOBVC|52=20150521-15:32:30.496|10=191|
20150521-15:33:15.251: 8=FIX.4.4|9=70|35=0|34=257|49=ADRARB_XTSE_TOBVC|52=20150521-15:33:15.251|56=AMGTOBVC|10=185|
20150521-15:33:30.805: 8=FIX.4.4|9=70|35=0|34=257|49=AMGTOBVC|56=ADRARB_XTSE_TOBVC|52=20150521-15:33:30.773|10=191|
20150521-15:34:15.251: 8=FIX.4.4|9=70|35=0|34=258|49=ADRARB_XTSE_TOBVC|52=20150521-15:34:15.251|56=AMGTOBVC|10=187|
20150521-15:34:31.067: 8=FIX.4.4|9=70|35=0|34=258|49=AMGTOBVC|56=ADRARB_XTSE_TOBVC|52=20150521-15:34:31.038|10=188|
20150521-15:35:16.251: 8=FIX.4.4|9=70|35=0|34=259|49=ADRARB_XTSE_TOBVC|52=20150521-15:35:16.251|56=AMGTOBVC|10=190|
20150521-15:35:31.360: 8=FIX.4.4|9=70|35=0|34=259|49=AMGTOBVC|56=ADRARB_XTSE_TOBVC|52=20150521-15:35:31.335|10=190|
20150521-15:36:17.251: 8=FIX.4.4|9=70|35=0|34=260|49=ADRARB_XTSE_TOBVC|52=20150521-15:36:17.251|56=AMGTOBVC|10=184|
20150521-15:36:31.685: 8=FIX.4.4|9=70|35=0|34=260|49=AMGTOBVC|56=ADRARB_XTSE_TOBVC|52=20150521-15:36:31.664|10=188|
20150521-15:37:17.251: 8=FIX.4.4|9=70|35=0|34=261|49=ADRARB_XTSE_TOBVC|52=20150521-15:37:17.251|56=AMGTOBVC|10=186|
20150521-15:37:31.963: 8=FIX.4.4|9=70|35=0|34=261|49=AMGTOBVC|56=ADRARB_XTSE_TOBVC|52=20150521-15:37:31.945|10=192|
20150521-15:38:17.251: 8=FIX.4.4|9=70|35=0|34=262|49=ADRARB_XTSE_TOBVC|52=20150521-15:38:17.251|56=AMGTOBVC|10=188|
20150521-15:38:32.225: 8=FIX.4.4|9=70|35=0|34=262|49=AMGTOBVC|56=ADRARB_XTSE_TOBVC|52=20150521-15:38:32.211|10=181|
20150521-15:39:17.251: 8=FIX.4.4|9=70|35=0|34=263|49=ADRARB_XTSE_TOBVC|52=20150521-15:39:17.251|56=AMGTOBVC|10=190|
20150521-15:39:32.556: 8=FIX.4.4|9=70|35=0|34=263|49=AMGTOBVC|56=ADRARB_XTSE_TOBVC|52=20150521-15:39:32.537|10=194|
20150521-15:40:17.251: 8=FIX.4.4|9=70|35=0|34=264|49=ADRARB_XTSE_TOBVC|52=20150521-15:40:17.251|56=AMGTOBVC|10=183|
20150521-15:40:32.844: 8=FIX.4.4|9=70|35=0|34=264|49=AMGTOBVC|56=ADRARB_XTSE_TOBVC|52=20150521-15:40:32.831|10=184|
20150521-15:41:17.251: 8=FIX.4.4|9=70|35=0|34=265|49=ADRARB_XTSE_TOBVC|52=20150521-15:41:17.251|56=AMGTOBVC|10=185|
20150521-15:41:33.171: 8=FIX.4.4|9=70|35=0|34=265|49=AMGTOBVC|56=ADRARB_XTSE_TOBVC|52=20150521-15:41:33.157|10=188|
20150521-15:42:18.251: 8=FIX.4.4|9=70|35=0|34=266|49=ADRARB_XTSE_TOBVC|52=20150521-15:42:18.251|56=AMGTOBVC|10=188|
20150521-15:42:33.446: 8=FIX.4.4|9=70|35=0|34=266|49=AMGTOBVC|56=ADRARB_XTSE_TOBVC|52=20150521-15:42:33.436|10=190|
20150521-15:43:19.251: 8=FIX.4.4|9=70|35=0|34=267|49=ADRARB_XTSE_TOBVC|52=20150521-15:43:19.251|56=AMGTOBVC|10=191|
20150521-15:43:33.743: 8=FIX.4.4|9=70|35=0|34=267|49=AMGTOBVC|56=ADRARB_XTSE_TOBVC|52=20150521-15:43:33.730|10=189|
20150521-15:44:19.257: 8=FIX.4.4|9=70|35=0|34=268|49=ADRARB_XTSE_TOBVC|52=20150521-15:44:19.256|56=AMGTOBVC|10=198|
20150521-15:44:34.251: 8=FIX.4.4|9=70|35=0|34=268|49=AMGTOBVC|56=ADRARB_XTSE_TOBVC|52=20150521-15:44:34.242|10=190|
20150521-15:45:20.251: 8=FIX.4.4|9=70|35=0|34=269|49=ADRARB_XTSE_TOBVC|52=20150521-15:45:20.251|56=AMGTOBVC|10=187|
20150521-15:45:34.547: 8=FIX.4.4|9=70|35=0|34=269|49=AMGTOBVC|56=ADRARB_XTSE_TOBVC|52=20150521-15:45:34.535|10=197|
20150521-15:46:21.251: 8=FIX.4.4|9=70|35=0|34=270|49=ADRARB_XTSE_TOBVC|52=20150521-15:46:21.251|56=AMGTOBVC|10=181|
20150521-15:46:34.906: 8=FIX.4.4|9=70|35=0|34=270|49=AMGTOBVC|56=ADRARB_XTSE_TOBVC|52=20150521-15:46:34.891|10=195|
20150521-15:47:22.251: 8=FIX.4.4|9=70|35=0|34=271|49=ADRARB_XTSE_TOBVC|52=20150521-15:47:22.251|56=AMGTOBVC|10=184|
20150521-15:47:35.194: 8=FIX.4.4|9=70|35=0|34=271|49=AMGTOBVC|56=ADRARB_XTSE_TOBVC|52=20150521-15:47:35.184|10=193|
20150521-15:48:23.251: 8=FIX.4.4|9=70|35=0|34=272|49=ADRARB_XTSE_TOBVC|52=20150521-15:48:23.251|56=AMGTOBVC|10=187|
20150521-15:48:35.534: 8=FIX.4.4|9=70|35=0|34=272|49=AMGTOBVC|56=ADRARB_XTSE_TOBVC|52=20150521-15:48:35.524|10=193|
20150521-15:49:24.251: 8=FIX.4.4|9=70|35=0|34=273|49=ADRARB_XTSE_TOBVC|52=20150521-15:49:24.251|56=AMGTOBVC|10=190|
20150521-15:49:35.875: 8=FIX.4.4|9=70|35=0|34=273|49=AMGTOBVC|56=ADRARB_XTSE_TOBVC|52=20150521-15:49:35.864|10=202|
20150521-15:50:24.251: 8=FIX.4.4|9=70|35=0|34=274|49=ADRARB_XTSE_TOBVC|52=20150521-15:50:24.251|56=AMGTOBVC|10=183|
20150521-15:50:36.308: 8=FIX.4.4|9=70|35=0|34=274|49=AMGTOBVC|56=ADRARB_XTSE_TOBVC|52=20150521-15:50:36.298|10=197|
20150521-15:51:25.251: 8=FIX.4.4|9=70|35=0|34=275|49=ADRARB_XTSE_TOBVC|52=20150521-15:51:25.251|56=AMGTOBVC|10=186|
20150521-15:51:36.680: 8=FIX.4.4|9=70|35=0|34=275|49=AMGTOBVC|56=ADRARB_XTSE_TOBVC|52=20150521-15:51:36.669|10=201|
20150521-15:52:25.251: 8=FIX.4.4|9=70|35=0|34=276|49=ADRARB_XTSE_TOBVC|52=20150521-15:52:25.251|56=AMGTOBVC|10=188|
20150521-15:52:37.099: 8=FIX.4.4|9=70|35=0|34=276|49=AMGTOBVC|56=ADRARB_XTSE_TOBVC|52=20150521-15:52:37.087|10=198|
20150521-15:53:25.251: 8=FIX.4.4|9=70|35=0|34=277|49=ADRARB_XTSE_TOBVC|52=20150521-15:53:25.251|56=AMGTOBVC|10=190|
20150521-15:53:37.378: 8=FIX.4.4|9=70|35=0|34=277|49=AMGTOBVC|56=ADRARB_XTSE_TOBVC|52=20150521-15:53:37.364|10=198|
20150521-15:54:25.251: 8=FIX.4.4|9=70|35=0|34=278|49=ADRARB_XTSE_TOBVC|52=20150521-15:54:25.251|56=AMGTOBVC|10=192|
20150521-15:54:37.748: 8=FIX.4.4|9=70|35=0|34=278|49=AMGTOBVC|56=ADRARB_XTSE_TOBVC|52=20150521-15:54:37.735|10=202|
20150521-15:55:25.251: 8=FIX.4.4|9=70|35=0|34=279|49=ADRARB_XTSE_TOBVC|52=20150521-15:55:25.251|56=AMGTOBVC|10=194|
20150521-15:55:38.057: 8=FIX.4.4|9=70|35=0|34=279|49=AMGTOBVC|56=ADRARB_XTSE_TOBVC|52=20150521-15:55:38.044|10=198|
20150521-15:56:25.251: 8=FIX.4.4|9=70|35=0|34=280|49=ADRARB_XTSE_TOBVC|52=20150521-15:56:25.251|56=AMGTOBVC|10=187|
20150521-15:56:38.383: 8=FIX.4.4|9=70|35=0|34=280|49=AMGTOBVC|56=ADRARB_XTSE_TOBVC|52=20150521-15:56:38.368|10=200|
20150521-15:57:25.251: 8=FIX.4.4|9=70|35=0|34=281|49=ADRARB_XTSE_TOBVC|52=20150521-15:57:25.251|56=AMGTOBVC|10=189|
20150521-15:57:38.674: 8=FIX.4.4|9=70|35=0|34=281|49=AMGTOBVC|56=ADRARB_XTSE_TOBVC|52=20150521-15:57:38.661|10=198|
20150521-15:58:25.251: 8=FIX.4.4|9=70|35=0|34=282|49=ADRARB_XTSE_TOBVC|52=20150521-15:58:25.251|56=AMGTOBVC|10=191|
20150521-15:58:39.000: 8=FIX.4.4|9=70|35=0|34=282|49=AMGTOBVC|56=ADRARB_XTSE_TOBVC|52=20150521-15:58:38.985|10=209|
20150521-15:59:25.251: 8=FIX.4.4|9=70|35=0|34=283|49=ADRARB_XTSE_TOBVC|52=20150521-15:59:25.251|56=AMGTOBVC|10=193|
20150521-15:59:39.309: 8=FIX.4.4|9=70|35=0|34=283|49=AMGTOBVC|56=ADRARB_XTSE_TOBVC|52=20150521-15:59:39.293|10=204|
20150521-16:00:25.251: 8=FIX.4.4|9=70|35=0|34=284|49=ADRARB_XTSE_TOBVC|52=20150521-16:00:25.251|56=AMGTOBVC|10=181|
20150521-16:00:39.507: 8=FIX.4.4|9=70|35=0|34=284|49=AMGTOBVC|56=ADRARB_XTSE_TOBVC|52=20150521-16:00:39.492|10=193|
20150521-16:01:26.251: 8=FIX.4.4|9=70|35=0|34=285|49=ADRARB_XTSE_TOBVC|52=20150521-16:01:26.251|56=AMGTOBVC|10=184|
20150521-16:01:39.863: 8=FIX.4.4|9=70|35=0|34=285|49=AMGTOBVC|56=ADRARB_XTSE_TOBVC|52=20150521-16:01:39.848|10=200|
20150521-16:02:26.251: 8=FIX.4.4|9=70|35=0|34=286|49=ADRARB_XTSE_TOBVC|52=20150521-16:02:26.251|56=AMGTOBVC|10=186|
20150521-16:02:40.383: 8=FIX.4.4|9=70|35=0|34=286|49=AMGTOBVC|56=ADRARB_XTSE_TOBVC|52=20150521-16:02:40.359|10=191|
20150521-16:03:26.251: 8=FIX.4.4|9=70|35=0|34=287|49=ADRARB_XTSE_TOBVC|52=20150521-16:03:26.251|56=AMGTOBVC|10=188|
20150521-16:03:40.730: 8=FIX.4.4|9=70|35=0|34=287|49=AMGTOBVC|56=ADRARB_XTSE_TOBVC|52=20150521-16:03:40.714|10=188|
20150521-16:04:26.251: 8=FIX.4.4|9=70|35=0|34=288|49=ADRARB_XTSE_TOBVC|52=20150521-16:04:26.251|56=AMGTOBVC|10=190|
20150521-16:04:41.008: 8=FIX.4.4|9=70|35=0|34=288|49=AMGTOBVC|56=ADRARB_XTSE_TOBVC|52=20150521-16:04:40.991|10=197|
20150521-16:05:26.251: 8=FIX.4.4|9=70|35=0|34=289|49=ADRARB_XTSE_TOBVC|52=20150521-16:05:26.251|56=AMGTOBVC|10=192|
20150521-16:05:41.333: 8=FIX.4.4|9=70|35=0|34=289|49=AMGTOBVC|56=ADRARB_XTSE_TOBVC|52=20150521-16:05:41.315|10=190|
20150521-16:06:26.251: 8=FIX.4.4|9=70|35=0|34=290|49=ADRARB_XTSE_TOBVC|52=20150521-16:06:26.251|56=AMGTOBVC|10=185|
20150521-16:06:41.619: 8=FIX.4.4|9=70|35=0|34=290|49=AMGTOBVC|56=ADRARB_XTSE_TOBVC|52=20150521-16:06:41.593|10=191|
20150521-16:07:26.251: 8=FIX.4.4|9=70|35=0|34=291|49=ADRARB_XTSE_TOBVC|52=20150521-16:07:26.251|56=AMGTOBVC|10=187|
20150521-16:07:41.935: 8=FIX.4.4|9=70|35=0|34=291|49=AMGTOBVC|56=ADRARB_XTSE_TOBVC|52=20150521-16:07:41.917|10=193|
20150521-16:08:26.251: 8=FIX.4.4|9=70|35=0|34=292|49=ADRARB_XTSE_TOBVC|52=20150521-16:08:26.251|56=AMGTOBVC|10=189|
20150521-16:08:42.245: 8=FIX.4.4|9=70|35=0|34=292|49=AMGTOBVC|56=ADRARB_XTSE_TOBVC|52=20150521-16:08:42.225|10=188|
20150521-16:09:26.251: 8=FIX.4.4|9=70|35=0|34=293|49=ADRARB_XTSE_TOBVC|52=20150521-16:09:26.251|56=AMGTOBVC|10=191|
20150521-16:09:42.553: 8=FIX.4.4|9=70|35=0|34=293|49=AMGTOBVC|56=ADRARB_XTSE_TOBVC|52=20150521-16:09:42.533|10=192|
20150521-16:10:26.251: 8=FIX.4.4|9=70|35=0|34=294|49=ADRARB_XTSE_TOBVC|52=20150521-16:10:26.251|56=AMGTOBVC|10=184|
20150521-16:10:42.903: 8=FIX.4.4|9=70|35=0|34=294|49=AMGTOBVC|56=ADRARB_XTSE_TOBVC|52=20150521-16:10:42.873|10=192|
20150521-16:11:27.251: 8=FIX.4.4|9=70|35=0|34=295|49=ADRARB_XTSE_TOBVC|52=20150521-16:11:27.251|56=AMGTOBVC|10=187|
20150521-16:11:43.187: 8=FIX.4.4|9=70|35=0|34=295|49=AMGTOBVC|56=ADRARB_XTSE_TOBVC|52=20150521-16:11:43.166|10=190|
20150521-16:12:27.251: 8=FIX.4.4|9=70|35=0|34=296|49=ADRARB_XTSE_TOBVC|52=20150521-16:12:27.251|56=AMGTOBVC|10=189|
20150521-16:12:43.497: 8=FIX.4.4|9=70|35=0|34=296|49=AMGTOBVC|56=ADRARB_XTSE_TOBVC|52=20150521-16:12:43.474|10=194|
20150521-16:13:27.251: 8=FIX.4.4|9=70|35=0|34=297|49=ADRARB_XTSE_TOBVC|52=20150521-16:13:27.251|56=AMGTOBVC|10=191|
20150521-16:13:43.836: 8=FIX.4.4|9=70|35=0|34=297|49=AMGTOBVC|56=ADRARB_XTSE_TOBVC|52=20150521-16:13:43.814|10=194|
20150521-16:14:27.251: 8=FIX.4.4|9=70|35=0|34=298|49=ADRARB_XTSE_TOBVC|52=20150521-16:14:27.251|56=AMGTOBVC|10=193|
20150521-16:14:44.144: 8=FIX.4.4|9=70|35=0|34=298|49=AMGTOBVC|56=ADRARB_XTSE_TOBVC|52=20150521-16:14:44.107|10=192|
20150521-16:15:27.251: 8=FIX.4.4|9=70|35=0|34=299|49=ADRARB_XTSE_TOBVC|52=20150521-16:15:27.251|56=AMGTOBVC|10=195|
20150521-16:15:44.443: 8=FIX.4.4|9=70|35=0|34=299|49=AMGTOBVC|56=ADRARB_XTSE_TOBVC|52=20150521-16:15:44.415|10=196|
20150521-16:16:28.251: 8=FIX.4.4|9=70|35=0|34=300|49=ADRARB_XTSE_TOBVC|52=20150521-16:16:28.251|56=AMGTOBVC|10=180|
20150521-16:16:44.623: 8=FIX.4.4|9=70|35=0|34=300|49=AMGTOBVC|56=ADRARB_XTSE_TOBVC|52=20150521-16:16:44.599|10=193|
20150521-16:17:28.251: 8=FIX.4.4|9=70|35=0|34=301|49=ADRARB_XTSE_TOBVC|52=20150521-16:17:28.251|56=AMGTOBVC|10=182|
20150521-16:17:45.056: 8=FIX.4.4|9=70|35=0|34=301|49=AMGTOBVC|56=ADRARB_XTSE_TOBVC|52=20150521-16:17:45.032|10=178|
20150521-16:18:28.251: 8=FIX.4.4|9=70|35=0|34=302|49=ADRARB_XTSE_TOBVC|52=20150521-16:18:28.251|56=AMGTOBVC|10=184|
20150521-16:18:45.428: 8=FIX.4.4|9=70|35=0|34=302|49=AMGTOBVC|56=ADRARB_XTSE_TOBVC|52=20150521-16:18:45.403|10=182|
20150521-16:19:28.251: 8=FIX.4.4|9=70|35=0|34=303|49=ADRARB_XTSE_TOBVC|52=20150521-16:19:28.251|56=AMGTOBVC|10=186|
20150521-16:19:45.737: 8=FIX.4.4|9=70|35=0|34=303|49=AMGTOBVC|56=ADRARB_XTSE_TOBVC|52=20150521-16:19:45.711|10=186|
20150521-16:20:28.251: 8=FIX.4.4|9=70|35=0|34=304|49=ADRARB_XTSE_TOBVC|52=20150521-16:20:28.251|56=AMGTOBVC|10=179|
20150521-16:20:46.021: 8=FIX.4.4|9=70|35=0|34=304|49=AMGTOBVC|56=ADRARB_XTSE_TOBVC|52=20150521-16:20:45.989|10=196|
20150521-16:21:28.251: 8=FIX.4.4|9=70|35=0|34=305|49=ADRARB_XTSE_TOBVC|52=20150521-16:21:28.251|56=AMGTOBVC|10=181|
20150521-16:21:46.310: 8=FIX.4.4|9=70|35=0|34=305|49=AMGTOBVC|56=ADRARB_XTSE_TOBVC|52=20150521-16:21:46.282|10=185|
20150521-16:22:28.251: 8=FIX.4.4|9=70|35=0|34=306|49=ADRARB_XTSE_TOBVC|52=20150521-16:22:28.251|56=AMGTOBVC|10=183|
20150521-16:22:46.617: 8=FIX.4.4|9=70|35=0|34=306|49=AMGTOBVC|56=ADRARB_XTSE_TOBVC|52=20150521-16:22:46.590|10=189|
20150521-16:23:28.251: 8=FIX.4.4|9=70|35=0|34=307|49=ADRARB_XTSE_TOBVC|52=20150521-16:23:28.251|56=AMGTOBVC|10=185|
20150521-16:23:46.911: 8=FIX.4.4|9=70|35=0|34=307|49=AMGTOBVC|56=ADRARB_XTSE_TOBVC|52=20150521-16:23:46.883|10=196|
20150521-16:24:28.251: 8=FIX.4.4|9=70|35=0|34=308|49=ADRARB_XTSE_TOBVC|52=20150521-16:24:28.251|56=AMGTOBVC|10=187|
20150521-16:24:47.220: 8=FIX.4.4|9=70|35=0|34=308|49=AMGTOBVC|56=ADRARB_XTSE_TOBVC|52=20150521-16:24:47.191|10=191|
20150521-16:25:29.251: 8=FIX.4.4|9=70|35=0|34=309|49=ADRARB_XTSE_TOBVC|52=20150521-16:25:29.251|56=AMGTOBVC|10=190|
20150521-16:25:47.544: 8=FIX.4.4|9=70|35=0|34=309|49=AMGTOBVC|56=ADRARB_XTSE_TOBVC|52=20150521-16:25:47.515|10=193|
20150521-16:26:29.251: 8=FIX.4.4|9=70|35=0|34=310|49=ADRARB_XTSE_TOBVC|52=20150521-16:26:29.251|56=AMGTOBVC|10=183|
20150521-16:26:47.853: 8=FIX.4.4|9=70|35=0|34=310|49=AMGTOBVC|56=ADRARB_XTSE_TOBVC|52=20150521-16:26:47.824|10=189|
20150521-16:27:29.251: 8=FIX.4.4|9=70|35=0|34=311|49=ADRARB_XTSE_TOBVC|52=20150521-16:27:29.251|56=AMGTOBVC|10=185|
20150521-16:27:48.193: 8=FIX.4.4|9=70|35=0|34=311|49=AMGTOBVC|56=ADRARB_XTSE_TOBVC|52=20150521-16:27:48.163|10=188|
20150521-16:28:29.251: 8=FIX.4.4|9=70|35=0|34=312|49=ADRARB_XTSE_TOBVC|52=20150521-16:28:29.251|56=AMGTOBVC|10=187|
20150521-16:28:48.502: 8=FIX.4.4|9=70|35=0|34=312|49=AMGTOBVC|56=ADRARB_XTSE_TOBVC|52=20150521-16:28:48.472|10=193|
20150521-16:29:29.251: 8=FIX.4.4|9=70|35=0|34=313|49=ADRARB_XTSE_TOBVC|52=20150521-16:29:29.251|56=AMGTOBVC|10=189|
20150521-16:29:48.796: 8=FIX.4.4|9=70|35=0|34=313|49=AMGTOBVC|56=ADRARB_XTSE_TOBVC|52=20150521-16:29:48.765|10=200|
20150521-16:30:29.251: 8=FIX.4.4|9=70|35=0|34=314|49=ADRARB_XTSE_TOBVC|52=20150521-16:30:29.251|56=AMGTOBVC|10=182|
20150521-16:30:49.089: 8=FIX.4.4|9=70|35=0|34=314|49=AMGTOBVC|56=ADRARB_XTSE_TOBVC|52=20150521-16:30:49.057|10=188|
20150521-16:31:29.251: 8=FIX.4.4|9=70|35=0|34=315|49=ADRARB_XTSE_TOBVC|52=20150521-16:31:29.251|56=AMGTOBVC|10=184|
20150521-16:31:49.382: 8=FIX.4.4|9=70|35=0|34=315|49=AMGTOBVC|56=ADRARB_XTSE_TOBVC|52=20150521-16:31:49.350|10=186|
20150521-16:32:29.251: 8=FIX.4.4|9=70|35=0|34=316|49=ADRARB_XTSE_TOBVC|52=20150521-16:32:29.251|56=AMGTOBVC|10=186|
20150521-16:32:49.725: 8=FIX.4.4|9=70|35=0|34=316|49=AMGTOBVC|56=ADRARB_XTSE_TOBVC|52=20150521-16:32:49.690|10=195|
20150521-16:33:30.251: 8=FIX.4.4|9=70|35=0|34=317|49=ADRARB_XTSE_TOBVC|52=20150521-16:33:30.251|56=AMGTOBVC|10=180|
20150521-16:33:50.126: 8=FIX.4.4|9=70|35=0|34=317|49=AMGTOBVC|56=ADRARB_XTSE_TOBVC|52=20150521-16:33:50.093|10=186|
20150521-16:34:30.251: 8=FIX.4.4|9=70|35=0|34=318|49=ADRARB_XTSE_TOBVC|52=20150521-16:34:30.251|56=AMGTOBVC|10=182|
20150521-16:34:50.434: 8=FIX.4.4|9=70|35=0|34=318|49=AMGTOBVC|56=ADRARB_XTSE_TOBVC|52=20150521-16:34:50.406|10=186|
20150521-16:35:30.251: 8=FIX.4.4|9=70|35=0|34=319|49=ADRARB_XTSE_TOBVC|52=20150521-16:35:30.251|56=AMGTOBVC|10=184|
20150521-16:35:50.727: 8=FIX.4.4|9=70|35=0|34=319|49=AMGTOBVC|56=ADRARB_XTSE_TOBVC|52=20150521-16:35:50.703|10=188|
20150521-16:36:30.271: 8=FIX.4.4|9=70|35=0|34=320|49=ADRARB_XTSE_TOBVC|52=20150521-16:36:30.271|56=AMGTOBVC|10=179|
20150521-16:36:51.134: 8=FIX.4.4|9=70|35=0|34=320|49=AMGTOBVC|56=ADRARB_XTSE_TOBVC|52=20150521-16:36:51.109|10=182|
20150521-16:37:31.251: 8=FIX.4.4|9=70|35=0|34=321|49=ADRARB_XTSE_TOBVC|52=20150521-16:37:31.251|56=AMGTOBVC|10=180|
20150521-16:37:51.439: 8=FIX.4.4|9=70|35=0|34=321|49=AMGTOBVC|56=ADRARB_XTSE_TOBVC|52=20150521-16:37:51.422|10=182|
20150521-16:38:32.251: 8=FIX.4.4|9=70|35=0|34=322|49=ADRARB_XTSE_TOBVC|52=20150521-16:38:32.251|56=AMGTOBVC|10=183|
20150521-16:38:51.733: 8=FIX.4.4|9=70|35=0|34=322|49=AMGTOBVC|56=ADRARB_XTSE_TOBVC|52=20150521-16:38:51.718|10=192|
20150521-16:39:32.251: 8=FIX.4.4|9=70|35=0|34=323|49=ADRARB_XTSE_TOBVC|52=20150521-16:39:32.251|56=AMGTOBVC|10=185|
20150521-16:39:52.057: 8=FIX.4.4|9=70|35=0|34=323|49=AMGTOBVC|56=ADRARB_XTSE_TOBVC|52=20150521-16:39:52.044|10=187|
20150521-16:40:32.251: 8=FIX.4.4|9=70|35=0|34=324|49=ADRARB_XTSE_TOBVC|52=20150521-16:40:32.251|56=AMGTOBVC|10=178|
20150521-16:40:52.444: 8=FIX.4.4|9=70|35=0|34=324|49=AMGTOBVC|56=ADRARB_XTSE_TOBVC|52=20150521-16:40:52.432|10=181|
20150521-16:41:32.251: 8=FIX.4.4|9=70|35=0|34=325|49=ADRARB_XTSE_TOBVC|52=20150521-16:41:32.251|56=AMGTOBVC|10=180|
20150521-16:41:52.755: 8=FIX.4.4|9=70|35=0|34=325|49=AMGTOBVC|56=ADRARB_XTSE_TOBVC|52=20150521-16:41:52.742|10=187|
20150521-16:42:32.290: 8=FIX.4.4|9=70|35=0|34=326|49=ADRARB_XTSE_TOBVC|52=20150521-16:42:32.290|56=AMGTOBVC|10=185|
20150521-16:42:53.048: 8=FIX.4.4|9=70|35=0|34=326|49=AMGTOBVC|56=ADRARB_XTSE_TOBVC|52=20150521-16:42:53.036|10=186|
20150521-16:43:33.251: 8=FIX.4.4|9=70|35=0|34=327|49=ADRARB_XTSE_TOBVC|52=20150521-16:43:33.251|56=AMGTOBVC|10=185|
20150521-16:43:53.373: 8=FIX.4.4|9=70|35=0|34=327|49=AMGTOBVC|56=ADRARB_XTSE_TOBVC|52=20150521-16:43:53.361|10=189|
20150521-16:44:33.251: 8=FIX.4.4|9=70|35=0|34=328|49=ADRARB_XTSE_TOBVC|52=20150521-16:44:33.251|56=AMGTOBVC|10=187|
20150521-16:44:53.700: 8=FIX.4.4|9=70|35=0|34=328|49=AMGTOBVC|56=ADRARB_XTSE_TOBVC|52=20150521-16:44:53.686|10=201|
20150521-16:45:33.251: 8=FIX.4.4|9=70|35=0|34=329|49=ADRARB_XTSE_TOBVC|52=20150521-16:45:33.251|56=AMGTOBVC|10=189|
20150521-16:45:53.995: 8=FIX.4.4|9=70|35=0|34=329|49=AMGTOBVC|56=ADRARB_XTSE_TOBVC|52=20150521-16:45:53.979|10=208|
20150521-16:46:33.251: 8=FIX.4.4|9=70|35=0|34=330|49=ADRARB_XTSE_TOBVC|52=20150521-16:46:33.251|56=AMGTOBVC|10=182|
20150521-16:46:54.298: 8=FIX.4.4|9=70|35=0|34=330|49=AMGTOBVC|56=ADRARB_XTSE_TOBVC|52=20150521-16:46:54.288|10=195|
20150521-16:47:33.251: 8=FIX.4.4|9=70|35=0|34=331|49=ADRARB_XTSE_TOBVC|52=20150521-16:47:33.251|56=AMGTOBVC|10=184|
20150521-16:47:54.632: 8=FIX.4.4|9=70|35=0|34=331|49=AMGTOBVC|56=ADRARB_XTSE_TOBVC|52=20150521-16:47:54.612|10=188|
20150521-16:48:33.251: 8=FIX.4.4|9=70|35=0|34=332|49=ADRARB_XTSE_TOBVC|52=20150521-16:48:33.251|56=AMGTOBVC|10=186|
20150521-16:48:55.026: 8=FIX.4.4|9=70|35=0|34=332|49=AMGTOBVC|56=ADRARB_XTSE_TOBVC|52=20150521-16:48:55.015|10=188|
20150521-16:49:33.251: 8=FIX.4.4|9=70|35=0|34=333|49=ADRARB_XTSE_TOBVC|52=20150521-16:49:33.251|56=AMGTOBVC|10=188|
20150521-16:49:55.412: 8=FIX.4.4|9=70|35=0|34=333|49=AMGTOBVC|56=ADRARB_XTSE_TOBVC|52=20150521-16:49:55.402|10=190|
20150521-16:50:33.251: 8=FIX.4.4|9=70|35=0|34=334|49=ADRARB_XTSE_TOBVC|52=20150521-16:50:33.251|56=AMGTOBVC|10=181|
20150521-16:50:55.659: 8=FIX.4.4|9=70|35=0|34=334|49=AMGTOBVC|56=ADRARB_XTSE_TOBVC|52=20150521-16:50:55.648|10=195|
20150521-16:51:33.251: 8=FIX.4.4|9=70|35=0|34=335|49=ADRARB_XTSE_TOBVC|52=20150521-16:51:33.251|56=AMGTOBVC|10=183|
20150521-16:51:56.082: 8=FIX.4.4|9=70|35=0|34=335|49=AMGTOBVC|56=ADRARB_XTSE_TOBVC|52=20150521-16:51:56.066|10=192|
20150521-16:52:33.251: 8=FIX.4.4|9=70|35=0|34=336|49=ADRARB_XTSE_TOBVC|52=20150521-16:52:33.251|56=AMGTOBVC|10=185|
20150521-16:52:56.388: 8=FIX.4.4|9=70|35=0|34=336|49=AMGTOBVC|56=ADRARB_XTSE_TOBVC|52=20150521-16:52:56.375|10=197|
20150521-16:53:34.251: 8=FIX.4.4|9=70|35=0|34=337|49=ADRARB_XTSE_TOBVC|52=20150521-16:53:34.251|56=AMGTOBVC|10=188|
20150521-16:53:56.695: 8=FIX.4.4|9=70|35=0|34=337|49=AMGTOBVC|56=ADRARB_XTSE_TOBVC|52=20150521-16:53:56.684|10=202|
20150521-16:54:34.251: 8=FIX.4.4|9=70|35=0|34=338|49=ADRARB_XTSE_TOBVC|52=20150521-16:54:34.251|56=AMGTOBVC|10=190|
20150521-16:54:57.098: 8=FIX.4.4|9=70|35=0|34=338|49=AMGTOBVC|56=ADRARB_XTSE_TOBVC|52=20150521-16:54:57.086|10=201|
20150521-16:55:34.251: 8=FIX.4.4|9=70|35=0|34=339|49=ADRARB_XTSE_TOBVC|52=20150521-16:55:34.251|56=AMGTOBVC|10=192|
20150521-16:55:57.391: 8=FIX.4.4|9=70|35=0|34=339|49=AMGTOBVC|56=ADRARB_XTSE_TOBVC|52=20150521-16:55:57.378|10=207|
20150521-16:56:34.251: 8=FIX.4.4|9=70|35=0|34=340|49=ADRARB_XTSE_TOBVC|52=20150521-16:56:34.251|56=AMGTOBVC|10=185|
20150521-16:56:57.701: 8=FIX.4.4|9=70|35=0|34=340|49=AMGTOBVC|56=ADRARB_XTSE_TOBVC|52=20150521-16:56:57.687|10=203|
20150521-16:57:34.251: 8=FIX.4.4|9=70|35=0|34=341|49=ADRARB_XTSE_TOBVC|52=20150521-16:57:34.251|56=AMGTOBVC|10=187|
20150521-16:57:58.009: 8=FIX.4.4|9=70|35=0|34=341|49=AMGTOBVC|56=ADRARB_XTSE_TOBVC|52=20150521-16:57:57.995|10=207|
20150521-16:58:34.251: 8=FIX.4.4|9=70|35=0|34=342|49=ADRARB_XTSE_TOBVC|52=20150521-16:58:34.251|56=AMGTOBVC|10=189|
20150521-16:58:58.334: 8=FIX.4.4|9=70|35=0|34=342|49=AMGTOBVC|56=ADRARB_XTSE_TOBVC|52=20150521-16:58:58.319|10=200|
20150521-16:59:34.251: 8=FIX.4.4|9=70|35=0|34=343|49=ADRARB_XTSE_TOBVC|52=20150521-16:59:34.251|56=AMGTOBVC|10=191|
20150521-16:59:58.646: 8=FIX.4.4|9=70|35=0|34=343|49=AMGTOBVC|56=ADRARB_XTSE_TOBVC|52=20150521-16:59:58.628|10=205|
20150521-17:00:34.251: 8=FIX.4.4|9=70|35=0|34=344|49=ADRARB_XTSE_TOBVC|52=20150521-17:00:34.251|56=AMGTOBVC|10=179|
20150521-17:00:58.937: 8=FIX.4.4|9=70|35=0|34=344|49=AMGTOBVC|56=ADRARB_XTSE_TOBVC|52=20150521-17:00:58.921|10=189|
20150521-17:01:34.251: 8=FIX.4.4|9=70|35=0|34=345|49=ADRARB_XTSE_TOBVC|52=20150521-17:01:34.251|56=AMGTOBVC|10=181|
20150521-17:01:59.276: 8=FIX.4.4|9=70|35=0|34=345|49=AMGTOBVC|56=ADRARB_XTSE_TOBVC|52=20150521-17:01:59.260|10=188|
20150521-17:02:34.251: 8=FIX.4.4|9=70|35=0|34=346|49=ADRARB_XTSE_TOBVC|52=20150521-17:02:34.251|56=AMGTOBVC|10=183|
20150521-17:02:59.571: 8=FIX.4.4|9=70|35=0|34=346|49=AMGTOBVC|56=ADRARB_XTSE_TOBVC|52=20150521-17:02:59.553|10=195|
20150521-17:03:35.251: 8=FIX.4.4|9=70|35=0|34=347|49=ADRARB_XTSE_TOBVC|52=20150521-17:03:35.251|56=AMGTOBVC|10=186|
20150521-17:03:59.879: 8=FIX.4.4|9=70|35=0|34=347|49=AMGTOBVC|56=ADRARB_XTSE_TOBVC|52=20150521-17:03:59.862|10=200|
20150521-17:04:35.251: 8=FIX.4.4|9=70|35=0|34=348|49=ADRARB_XTSE_TOBVC|52=20150521-17:04:35.251|56=AMGTOBVC|10=188|
20150521-17:04:59.917: 8=FIX.4.4|9=70|35=0|34=348|49=AMGTOBVC|56=ADRARB_XTSE_TOBVC|52=20150521-17:04:59.889|10=211|
20150521-17:05:35.251: 8=FIX.4.4|9=70|35=0|34=349|49=ADRARB_XTSE_TOBVC|52=20150521-17:05:35.251|56=AMGTOBVC|10=190|
20150521-17:06:00.216: 8=FIX.4.4|9=70|35=0|34=349|49=AMGTOBVC|56=ADRARB_XTSE_TOBVC|52=20150521-17:06:00.198|10=193|
20150521-17:06:35.251: 8=FIX.4.4|9=70|35=0|34=350|49=ADRARB_XTSE_TOBVC|52=20150521-17:06:35.251|56=AMGTOBVC|10=183|
20150521-17:07:00.526: 8=FIX.4.4|9=70|35=0|34=350|49=AMGTOBVC|56=ADRARB_XTSE_TOBVC|52=20150521-17:07:00.506|10=179|
20150521-17:07:35.251: 8=FIX.4.4|9=70|35=0|34=351|49=ADRARB_XTSE_TOBVC|52=20150521-17:07:35.251|56=AMGTOBVC|10=185|
20150521-17:08:00.849: 8=FIX.4.4|9=70|35=0|34=351|49=AMGTOBVC|56=ADRARB_XTSE_TOBVC|52=20150521-17:08:00.830|10=181|
20150521-17:08:35.251: 8=FIX.4.4|9=70|35=0|34=352|49=ADRARB_XTSE_TOBVC|52=20150521-17:08:35.251|56=AMGTOBVC|10=187|
20150521-17:09:01.177: 8=FIX.4.4|9=70|35=0|34=352|49=AMGTOBVC|56=ADRARB_XTSE_TOBVC|52=20150521-17:09:01.154|10=183|
20150521-17:09:35.251: 8=FIX.4.4|9=70|35=0|34=353|49=ADRARB_XTSE_TOBVC|52=20150521-17:09:35.251|56=AMGTOBVC|10=189|
20150521-17:10:01.530: 8=FIX.4.4|9=70|35=0|34=353|49=AMGTOBVC|56=ADRARB_XTSE_TOBVC|52=20150521-17:10:01.509|10=180|
20150521-17:10:35.251: 8=FIX.4.4|9=70|35=0|34=354|49=ADRARB_XTSE_TOBVC|52=20150521-17:10:35.251|56=AMGTOBVC|10=182|
20150521-17:11:01.872: 8=FIX.4.4|9=70|35=0|34=354|49=AMGTOBVC|56=ADRARB_XTSE_TOBVC|52=20150521-17:11:01.849|10=189|
20150521-17:11:35.251: 8=FIX.4.4|9=70|35=0|34=355|49=ADRARB_XTSE_TOBVC|52=20150521-17:11:35.251|56=AMGTOBVC|10=184|
20150521-17:12:02.164: 8=FIX.4.4|9=70|35=0|34=355|49=AMGTOBVC|56=ADRARB_XTSE_TOBVC|52=20150521-17:12:02.142|10=178|
20150521-17:12:36.251: 8=FIX.4.4|9=70|35=0|34=356|49=ADRARB_XTSE_TOBVC|52=20150521-17:12:36.251|56=AMGTOBVC|10=187|
20150521-17:13:02.458: 8=FIX.4.4|9=70|35=0|34=356|49=AMGTOBVC|56=ADRARB_XTSE_TOBVC|52=20150521-17:13:02.435|10=185|
20150521-17:13:36.251: 8=FIX.4.4|9=70|35=0|34=357|49=ADRARB_XTSE_TOBVC|52=20150521-17:13:36.251|56=AMGTOBVC|10=189|
20150521-17:14:02.781: 8=FIX.4.4|9=70|35=0|34=357|49=AMGTOBVC|56=ADRARB_XTSE_TOBVC|52=20150521-17:14:02.759|10=196|
20150521-17:14:36.251: 8=FIX.4.4|9=70|35=0|34=358|49=ADRARB_XTSE_TOBVC|52=20150521-17:14:36.251|56=AMGTOBVC|10=191|
20150521-17:15:03.121: 8=FIX.4.4|9=70|35=0|34=358|49=AMGTOBVC|56=ADRARB_XTSE_TOBVC|52=20150521-17:15:03.098|10=195|
20150521-17:15:36.251: 8=FIX.4.4|9=70|35=0|34=359|49=ADRARB_XTSE_TOBVC|52=20150521-17:15:36.251|56=AMGTOBVC|10=193|
20150521-17:16:03.524: 8=FIX.4.4|9=70|35=0|34=359|49=AMGTOBVC|56=ADRARB_XTSE_TOBVC|52=20150521-17:16:03.500|10=185|
20150521-17:16:36.251: 8=FIX.4.4|9=70|35=0|34=360|49=ADRARB_XTSE_TOBVC|52=20150521-17:16:36.251|56=AMGTOBVC|10=186|
20150521-17:17:03.833: 8=FIX.4.4|9=70|35=0|34=360|49=AMGTOBVC|56=ADRARB_XTSE_TOBVC|52=20150521-17:17:03.809|10=190|
20150521-17:17:36.251: 8=FIX.4.4|9=70|35=0|34=361|49=ADRARB_XTSE_TOBVC|52=20150521-17:17:36.251|56=AMGTOBVC|10=188|
20150521-17:18:04.128: 8=FIX.4.4|9=70|35=0|34=361|49=AMGTOBVC|56=ADRARB_XTSE_TOBVC|52=20150521-17:18:04.102|10=179|
20150521-17:18:36.251: 8=FIX.4.4|9=70|35=0|34=362|49=ADRARB_XTSE_TOBVC|52=20150521-17:18:36.251|56=AMGTOBVC|10=190|
20150521-17:19:04.498: 8=FIX.4.4|9=70|35=0|34=362|49=AMGTOBVC|56=ADRARB_XTSE_TOBVC|52=20150521-17:19:04.473|10=192|
20150521-17:19:36.251: 8=FIX.4.4|9=70|35=0|34=363|49=ADRARB_XTSE_TOBVC|52=20150521-17:19:36.251|56=AMGTOBVC|10=192|
20150521-17:20:04.760: 8=FIX.4.4|9=70|35=0|34=363|49=AMGTOBVC|56=ADRARB_XTSE_TOBVC|52=20150521-17:20:04.734|10=185|
20150521-17:20:36.251: 8=FIX.4.4|9=70|35=0|34=364|49=ADRARB_XTSE_TOBVC|52=20150521-17:20:36.251|56=AMGTOBVC|10=185|
20150521-17:21:05.271: 8=FIX.4.4|9=70|35=0|34=364|49=AMGTOBVC|56=ADRARB_XTSE_TOBVC|52=20150521-17:21:05.245|10=185|
20150521-17:21:36.251: 8=FIX.4.4|9=70|35=0|34=365|49=ADRARB_XTSE_TOBVC|52=20150521-17:21:36.251|56=AMGTOBVC|10=187|
20150521-17:22:05.675: 8=FIX.4.4|9=70|35=0|34=365|49=AMGTOBVC|56=ADRARB_XTSE_TOBVC|52=20150521-17:22:05.647|10=193|
20150521-17:22:36.251: 8=FIX.4.4|9=70|35=0|34=366|49=ADRARB_XTSE_TOBVC|52=20150521-17:22:36.251|56=AMGTOBVC|10=189|
20150521-17:23:05.985: 8=FIX.4.4|9=70|35=0|34=366|49=AMGTOBVC|56=ADRARB_XTSE_TOBVC|52=20150521-17:23:05.956|10=198|
20150521-17:23:36.251: 8=FIX.4.4|9=70|35=0|34=367|49=ADRARB_XTSE_TOBVC|52=20150521-17:23:36.251|56=AMGTOBVC|10=191|
20150521-17:24:06.312: 8=FIX.4.4|9=70|35=0|34=367|49=AMGTOBVC|56=ADRARB_XTSE_TOBVC|52=20150521-17:24:06.280|10=191|
20150521-17:24:37.251: 8=FIX.4.4|9=70|35=0|34=368|49=ADRARB_XTSE_TOBVC|52=20150521-17:24:37.251|56=AMGTOBVC|10=194|
20150521-17:25:06.617: 8=FIX.4.4|9=70|35=0|34=368|49=AMGTOBVC|56=ADRARB_XTSE_TOBVC|52=20150521-17:25:06.588|10=204|
20150521-17:25:37.251: 8=FIX.4.4|9=70|35=0|34=369|49=ADRARB_XTSE_TOBVC|52=20150521-17:25:37.251|56=AMGTOBVC|10=196|
20150521-17:26:06.926: 8=FIX.4.4|9=70|35=0|34=369|49=AMGTOBVC|56=ADRARB_XTSE_TOBVC|52=20150521-17:26:06.897|10=209|
20150521-17:26:37.251: 8=FIX.4.4|9=70|35=0|34=370|49=ADRARB_XTSE_TOBVC|52=20150521-17:26:37.251|56=AMGTOBVC|10=189|
20150521-17:27:07.219: 8=FIX.4.4|9=70|35=0|34=370|49=AMGTOBVC|56=ADRARB_XTSE_TOBVC|52=20150521-17:27:07.190|10=189|
20150521-17:27:37.251: 8=FIX.4.4|9=70|35=0|34=371|49=ADRARB_XTSE_TOBVC|52=20150521-17:27:37.251|56=AMGTOBVC|10=191|
20150521-17:28:07.543: 8=FIX.4.4|9=70|35=0|34=371|49=AMGTOBVC|56=ADRARB_XTSE_TOBVC|52=20150521-17:28:07.514|10=191|
20150521-17:28:37.251: 8=FIX.4.4|9=70|35=0|34=372|49=ADRARB_XTSE_TOBVC|52=20150521-17:28:37.251|56=AMGTOBVC|10=193|
20150521-17:29:07.915: 8=FIX.4.4|9=70|35=0|34=372|49=AMGTOBVC|56=ADRARB_XTSE_TOBVC|52=20150521-17:29:07.885|10=204|
20150521-17:29:37.251: 8=FIX.4.4|9=70|35=0|34=373|49=ADRARB_XTSE_TOBVC|52=20150521-17:29:37.251|56=AMGTOBVC|10=195|
20150521-17:30:08.240: 8=FIX.4.4|9=70|35=0|34=373|49=AMGTOBVC|56=ADRARB_XTSE_TOBVC|52=20150521-17:30:08.209|10=188|
20150521-17:30:37.251: 8=FIX.4.4|9=70|35=0|34=374|49=ADRARB_XTSE_TOBVC|52=20150521-17:30:37.251|56=AMGTOBVC|10=188|
20150521-17:31:08.549: 8=FIX.4.4|9=70|35=0|34=374|49=AMGTOBVC|56=ADRARB_XTSE_TOBVC|52=20150521-17:31:08.517|10=192|
20150521-17:31:37.251: 8=FIX.4.4|9=70|35=0|34=375|49=ADRARB_XTSE_TOBVC|52=20150521-17:31:37.251|56=AMGTOBVC|10=190|
20150521-17:32:08.873: 8=FIX.4.4|9=70|35=0|34=375|49=AMGTOBVC|56=ADRARB_XTSE_TOBVC|52=20150521-17:32:08.841|10=194|
20150521-17:32:37.781: 8=FIX.4.4|9=70|35=0|34=376|49=ADRARB_XTSE_TOBVC|52=20150521-17:32:37.781|56=AMGTOBVC|10=200|
20150521-17:33:09.229: 8=FIX.4.4|9=70|35=0|34=376|49=AMGTOBVC|56=ADRARB_XTSE_TOBVC|52=20150521-17:33:09.196|10=200|
20150521-17:33:38.251: 8=FIX.4.4|9=70|35=0|34=377|49=ADRARB_XTSE_TOBVC|52=20150521-17:33:38.251|56=AMGTOBVC|10=195|
20150521-17:34:09.679: 8=FIX.4.4|9=70|35=0|34=377|49=AMGTOBVC|56=ADRARB_XTSE_TOBVC|52=20150521-17:34:09.647|10=203|
20150521-17:34:38.251: 8=FIX.4.4|9=70|35=0|34=378|49=ADRARB_XTSE_TOBVC|52=20150521-17:34:38.251|56=AMGTOBVC|10=197|
20150521-17:35:10.067: 8=FIX.4.4|9=70|35=0|34=378|49=AMGTOBVC|56=ADRARB_XTSE_TOBVC|52=20150521-17:35:10.038|10=191|
20150521-17:35:38.251: 8=FIX.4.4|9=70|35=0|34=379|49=ADRARB_XTSE_TOBVC|52=20150521-17:35:38.251|56=AMGTOBVC|10=199|
20150521-17:36:10.343: 8=FIX.4.4|9=70|35=0|34=379|49=AMGTOBVC|56=ADRARB_XTSE_TOBVC|52=20150521-17:36:10.319|10=195|
20150521-17:36:38.251: 8=FIX.4.4|9=70|35=0|34=380|49=ADRARB_XTSE_TOBVC|52=20150521-17:36:38.251|56=AMGTOBVC|10=192|
20150521-17:37:10.497: 8=FIX.4.4|9=70|35=0|34=380|49=AMGTOBVC|56=ADRARB_XTSE_TOBVC|52=20150521-17:37:10.476|10=192|
20150521-17:37:38.251: 8=FIX.4.4|9=70|35=0|34=381|49=ADRARB_XTSE_TOBVC|52=20150521-17:37:38.251|56=AMGTOBVC|10=194|
20150521-17:38:10.790: 8=FIX.4.4|9=70|35=0|34=381|49=AMGTOBVC|56=ADRARB_XTSE_TOBVC|52=20150521-17:38:10.773|10=194|
20150521-17:38:38.251: 8=FIX.4.4|9=70|35=0|34=382|49=ADRARB_XTSE_TOBVC|52=20150521-17:38:38.251|56=AMGTOBVC|10=196|
20150521-17:39:11.099: 8=FIX.4.4|9=70|35=0|34=382|49=AMGTOBVC|56=ADRARB_XTSE_TOBVC|52=20150521-17:39:11.084|10=192|
20150521-17:39:38.251: 8=FIX.4.4|9=70|35=0|34=383|49=ADRARB_XTSE_TOBVC|52=20150521-17:39:38.251|56=AMGTOBVC|10=198|
20150521-17:40:11.377: 8=FIX.4.4|9=70|35=0|34=383|49=AMGTOBVC|56=ADRARB_XTSE_TOBVC|52=20150521-17:40:11.363|10=185|
20150521-17:40:38.251: 8=FIX.4.4|9=70|35=0|34=384|49=ADRARB_XTSE_TOBVC|52=20150521-17:40:38.251|56=AMGTOBVC|10=191|
20150521-17:41:11.670: 8=FIX.4.4|9=70|35=0|34=384|49=AMGTOBVC|56=ADRARB_XTSE_TOBVC|52=20150521-17:41:11.658|10=194|
20150521-17:41:38.251: 8=FIX.4.4|9=70|35=0|34=385|49=ADRARB_XTSE_TOBVC|52=20150521-17:41:38.251|56=AMGTOBVC|10=193|
20150521-17:42:11.978: 8=FIX.4.4|9=70|35=0|34=385|49=AMGTOBVC|56=ADRARB_XTSE_TOBVC|52=20150521-17:42:11.968|10=200|
20150521-17:42:38.251: 8=FIX.4.4|9=70|35=0|34=386|49=ADRARB_XTSE_TOBVC|52=20150521-17:42:38.251|56=AMGTOBVC|10=195|
20150521-17:43:12.305: 8=FIX.4.4|9=70|35=0|34=386|49=AMGTOBVC|56=ADRARB_XTSE_TOBVC|52=20150521-17:43:12.293|10=194|
20150521-17:43:38.251: 8=FIX.4.4|9=70|35=0|34=387|49=ADRARB_XTSE_TOBVC|52=20150521-17:43:38.251|56=AMGTOBVC|10=197|
20150521-17:44:12.614: 8=FIX.4.4|9=70|35=0|34=387|49=AMGTOBVC|56=ADRARB_XTSE_TOBVC|52=20150521-17:44:12.603|10=191|
20150521-17:44:38.251: 8=FIX.4.4|9=70|35=0|34=388|49=ADRARB_XTSE_TOBVC|52=20150521-17:44:38.251|56=AMGTOBVC|10=199|
20150521-17:45:12.926: 8=FIX.4.4|9=70|35=0|34=388|49=AMGTOBVC|56=ADRARB_XTSE_TOBVC|52=20150521-17:45:12.912|10=196|
20150521-17:45:38.251: 8=FIX.4.4|9=70|35=0|34=389|49=ADRARB_XTSE_TOBVC|52=20150521-17:45:38.251|56=AMGTOBVC|10=201|
20150521-17:46:13.246: 8=FIX.4.4|9=70|35=0|34=389|49=AMGTOBVC|56=ADRARB_XTSE_TOBVC|52=20150521-17:46:13.237|10=199|
20150521-17:46:39.251: 8=FIX.4.4|9=70|35=0|34=390|49=ADRARB_XTSE_TOBVC|52=20150521-17:46:39.251|56=AMGTOBVC|10=195|
20150521-17:47:13.555: 8=FIX.4.4|9=70|35=0|34=390|49=AMGTOBVC|56=ADRARB_XTSE_TOBVC|52=20150521-17:47:13.546|10=195|
20150521-17:47:39.251: 8=FIX.4.4|9=70|35=0|34=391|49=ADRARB_XTSE_TOBVC|52=20150521-17:47:39.251|56=AMGTOBVC|10=197|
20150521-17:48:13.864: 8=FIX.4.4|9=70|35=0|34=391|49=AMGTOBVC|56=ADRARB_XTSE_TOBVC|52=20150521-17:48:13.855|10=200|
20150521-17:48:39.251: 8=FIX.4.4|9=70|35=0|34=392|49=ADRARB_XTSE_TOBVC|52=20150521-17:48:39.251|56=AMGTOBVC|10=199|
20150521-17:49:14.235: 8=FIX.4.4|9=70|35=0|34=392|49=AMGTOBVC|56=ADRARB_XTSE_TOBVC|52=20150521-17:49:14.226|10=195|
20150521-17:49:39.251: 8=FIX.4.4|9=70|35=0|34=393|49=ADRARB_XTSE_TOBVC|52=20150521-17:49:39.251|56=AMGTOBVC|10=201|
20150521-17:50:14.544: 8=FIX.4.4|9=70|35=0|34=393|49=AMGTOBVC|56=ADRARB_XTSE_TOBVC|52=20150521-17:50:14.535|10=191|
20150521-17:50:39.251: 8=FIX.4.4|9=70|35=0|34=394|49=ADRARB_XTSE_TOBVC|52=20150521-17:50:39.251|56=AMGTOBVC|10=194|
20150521-17:51:14.853: 8=FIX.4.4|9=70|35=0|34=394|49=AMGTOBVC|56=ADRARB_XTSE_TOBVC|52=20150521-17:51:14.843|10=195|
20150521-17:51:39.251: 8=FIX.4.4|9=70|35=0|34=395|49=ADRARB_XTSE_TOBVC|52=20150521-17:51:39.251|56=AMGTOBVC|10=196|
20150521-17:52:15.164: 8=FIX.4.4|9=70|35=0|34=395|49=AMGTOBVC|56=ADRARB_XTSE_TOBVC|52=20150521-17:52:15.152|10=191|
20150521-17:52:39.251: 8=FIX.4.4|9=70|35=0|34=396|49=ADRARB_XTSE_TOBVC|52=20150521-17:52:39.251|56=AMGTOBVC|10=198|
20150521-17:53:15.253: 8=FIX.4.4|9=70|35=0|34=396|49=AMGTOBVC|56=ADRARB_XTSE_TOBVC|52=20150521-17:53:15.242|10=193|
20150521-17:53:39.251: 8=FIX.4.4|9=70|35=0|34=397|49=ADRARB_XTSE_TOBVC|52=20150521-17:53:39.251|56=AMGTOBVC|10=200|
20150521-17:54:15.618: 8=FIX.4.4|9=70|35=0|34=397|49=AMGTOBVC|56=ADRARB_XTSE_TOBVC|52=20150521-17:54:15.597|10=208|
20150521-17:54:40.251: 8=FIX.4.4|9=70|35=0|34=398|49=ADRARB_XTSE_TOBVC|52=20150521-17:54:40.251|56=AMGTOBVC|10=194|
20150521-17:55:15.887: 8=FIX.4.4|9=70|35=0|34=398|49=AMGTOBVC|56=ADRARB_XTSE_TOBVC|52=20150521-17:55:15.874|10=208|
20150521-17:55:40.251: 8=FIX.4.4|9=70|35=0|34=399|49=ADRARB_XTSE_TOBVC|52=20150521-17:55:40.251|56=AMGTOBVC|10=196|
20150521-17:56:16.216: 8=FIX.4.4|9=70|35=0|34=399|49=AMGTOBVC|56=ADRARB_XTSE_TOBVC|52=20150521-17:56:16.198|10=210|
20150521-17:56:40.251: 8=FIX.4.4|9=70|35=0|34=400|49=ADRARB_XTSE_TOBVC|52=20150521-17:56:40.251|56=AMGTOBVC|10=180|
20150521-17:57:16.505: 8=FIX.4.4|9=70|35=0|34=400|49=AMGTOBVC|56=ADRARB_XTSE_TOBVC|52=20150521-17:57:16.491|10=190|
20150521-17:57:40.251: 8=FIX.4.4|9=70|35=0|34=401|49=ADRARB_XTSE_TOBVC|52=20150521-17:57:40.251|56=AMGTOBVC|10=182|
20150521-17:58:16.835: 8=FIX.4.4|9=70|35=0|34=401|49=AMGTOBVC|56=ADRARB_XTSE_TOBVC|52=20150521-17:58:16.815|10=192|
20150521-17:58:40.252: 8=FIX.4.4|9=70|35=0|34=402|49=ADRARB_XTSE_TOBVC|52=20150521-17:58:40.252|56=AMGTOBVC|10=185|
20150521-17:59:17.063: 8=FIX.4.4|9=70|35=0|34=402|49=AMGTOBVC|56=ADRARB_XTSE_TOBVC|52=20150521-17:59:17.046|10=191|
20150521-17:59:41.251: 8=FIX.4.4|9=70|35=0|34=403|49=ADRARB_XTSE_TOBVC|52=20150521-17:59:41.251|56=AMGTOBVC|10=187|
20150521-18:00:17.339: 8=FIX.4.4|9=70|35=0|34=403|49=AMGTOBVC|56=ADRARB_XTSE_TOBVC|52=20150521-18:00:17.323|10=177|
20150521-18:00:41.251: 8=FIX.4.4|9=70|35=0|34=404|49=ADRARB_XTSE_TOBVC|52=20150521-18:00:41.251|56=AMGTOBVC|10=175|
20150521-18:01:17.647: 8=FIX.4.4|9=70|35=0|34=404|49=AMGTOBVC|56=ADRARB_XTSE_TOBVC|52=20150521-18:01:17.631|10=181|
20150521-18:01:41.251: 8=FIX.4.4|9=70|35=0|34=405|49=ADRARB_XTSE_TOBVC|52=20150521-18:01:41.251|56=AMGTOBVC|10=177|
20150521-18:02:17.957: 8=FIX.4.4|9=70|35=0|34=405|49=AMGTOBVC|56=ADRARB_XTSE_TOBVC|52=20150521-18:02:17.940|10=186|
20150521-18:02:41.251: 8=FIX.4.4|9=70|35=0|34=406|49=ADRARB_XTSE_TOBVC|52=20150521-18:02:41.251|56=AMGTOBVC|10=179|
20150521-18:03:18.234: 8=FIX.4.4|9=70|35=0|34=406|49=AMGTOBVC|56=ADRARB_XTSE_TOBVC|52=20150521-18:03:18.217|10=186|
20150521-18:03:41.251: 8=FIX.4.4|9=70|35=0|34=407|49=ADRARB_XTSE_TOBVC|52=20150521-18:03:41.251|56=AMGTOBVC|10=181|
20150521-18:04:18.543: 8=FIX.4.4|9=70|35=0|34=407|49=AMGTOBVC|56=ADRARB_XTSE_TOBVC|52=20150521-18:04:18.525|10=190|
20150521-18:04:41.251: 8=FIX.4.4|9=70|35=0|34=408|49=ADRARB_XTSE_TOBVC|52=20150521-18:04:41.251|56=AMGTOBVC|10=183|
20150521-18:05:18.852: 8=FIX.4.4|9=70|35=0|34=408|49=AMGTOBVC|56=ADRARB_XTSE_TOBVC|52=20150521-18:05:18.834|10=195|
20150521-18:05:41.251: 8=FIX.4.4|9=70|35=0|34=409|49=ADRARB_XTSE_TOBVC|52=20150521-18:05:41.251|56=AMGTOBVC|10=185|
20150521-18:06:19.161: 8=FIX.4.4|9=70|35=0|34=409|49=AMGTOBVC|56=ADRARB_XTSE_TOBVC|52=20150521-18:06:19.142|10=190|
20150521-18:06:42.251: 8=FIX.4.4|9=70|35=0|34=410|49=ADRARB_XTSE_TOBVC|52=20150521-18:06:42.251|56=AMGTOBVC|10=179|
20150521-18:07:19.423: 8=FIX.4.4|9=70|35=0|34=410|49=AMGTOBVC|56=ADRARB_XTSE_TOBVC|52=20150521-18:07:19.404|10=184|
20150521-18:07:42.251: 8=FIX.4.4|9=70|35=0|34=411|49=ADRARB_XTSE_TOBVC|52=20150521-18:07:42.251|56=AMGTOBVC|10=181|
20150521-18:08:19.669: 8=FIX.4.4|9=70|35=0|34=411|49=AMGTOBVC|56=ADRARB_XTSE_TOBVC|52=20150521-18:08:19.650|10=189|
20150521-18:08:42.251: 8=FIX.4.4|9=70|35=0|34=412|49=ADRARB_XTSE_TOBVC|52=20150521-18:08:42.251|56=AMGTOBVC|10=183|
20150521-18:09:19.698: 8=FIX.4.4|9=70|35=0|34=412|49=AMGTOBVC|56=ADRARB_XTSE_TOBVC|52=20150521-18:09:19.678|10=201|
20150521-18:09:43.251: 8=FIX.4.4|9=70|35=0|34=413|49=ADRARB_XTSE_TOBVC|52=20150521-18:09:43.251|56=AMGTOBVC|10=186|
20150521-18:10:20.022: 8=FIX.4.4|9=70|35=0|34=413|49=AMGTOBVC|56=ADRARB_XTSE_TOBVC|52=20150521-18:10:20.002|10=167|
20150521-18:10:44.251: 8=FIX.4.4|9=70|35=0|34=414|49=ADRARB_XTSE_TOBVC|52=20150521-18:10:44.251|56=AMGTOBVC|10=180|
20150521-18:11:20.300: 8=FIX.4.4|9=70|35=0|34=414|49=AMGTOBVC|56=ADRARB_XTSE_TOBVC|52=20150521-18:11:20.279|10=185|
20150521-18:11:44.251: 8=FIX.4.4|9=70|35=0|34=415|49=ADRARB_XTSE_TOBVC|52=20150521-18:11:44.251|56=AMGTOBVC|10=182|
20150521-18:12:20.716: 8=FIX.4.4|9=70|35=0|34=415|49=AMGTOBVC|56=ADRARB_XTSE_TOBVC|52=20150521-18:12:20.681|10=184|
20150521-18:12:44.251: 8=FIX.4.4|9=70|35=0|34=416|49=ADRARB_XTSE_TOBVC|52=20150521-18:12:44.251|56=AMGTOBVC|10=184|
20150521-18:13:21.011: 8=FIX.4.4|9=70|35=0|34=416|49=AMGTOBVC|56=ADRARB_XTSE_TOBVC|52=20150521-18:13:20.989|10=197|
20150521-18:13:44.251: 8=FIX.4.4|9=70|35=0|34=417|49=ADRARB_XTSE_TOBVC|52=20150521-18:13:44.251|56=AMGTOBVC|10=186|
20150521-18:14:21.367: 8=FIX.4.4|9=70|35=0|34=417|49=AMGTOBVC|56=ADRARB_XTSE_TOBVC|52=20150521-18:14:21.345|10=186|
20150521-18:14:44.251: 8=FIX.4.4|9=70|35=0|34=418|49=ADRARB_XTSE_TOBVC|52=20150521-18:14:44.251|56=AMGTOBVC|10=188|
20150521-18:15:21.692: 8=FIX.4.4|9=70|35=0|34=418|49=AMGTOBVC|56=ADRARB_XTSE_TOBVC|52=20150521-18:15:21.669|10=197|
20150521-18:15:45.251: 8=FIX.4.4|9=70|35=0|34=419|49=ADRARB_XTSE_TOBVC|52=20150521-18:15:45.251|56=AMGTOBVC|10=191|
20150521-18:16:21.959: 8=FIX.4.4|9=70|35=0|34=419|49=AMGTOBVC|56=ADRARB_XTSE_TOBVC|52=20150521-18:16:21.930|10=190|
20150521-18:16:45.251: 8=FIX.4.4|9=70|35=0|34=420|49=ADRARB_XTSE_TOBVC|52=20150521-18:16:45.251|56=AMGTOBVC|10=184|
20150521-18:17:22.279: 8=FIX.4.4|9=70|35=0|34=420|49=AMGTOBVC|56=ADRARB_XTSE_TOBVC|52=20150521-18:17:22.254|10=183|
20150521-18:17:45.251: 8=FIX.4.4|9=70|35=0|34=421|49=ADRARB_XTSE_TOBVC|52=20150521-18:17:45.251|56=AMGTOBVC|10=186|
20150521-18:18:22.572: 8=FIX.4.4|9=70|35=0|34=421|49=AMGTOBVC|56=ADRARB_XTSE_TOBVC|52=20150521-18:18:22.547|10=190|
20150521-18:18:45.251: 8=FIX.4.4|9=70|35=0|34=422|49=ADRARB_XTSE_TOBVC|52=20150521-18:18:45.251|56=AMGTOBVC|10=188|
20150521-18:19:22.906: 8=FIX.4.4|9=70|35=0|34=422|49=AMGTOBVC|56=ADRARB_XTSE_TOBVC|52=20150521-18:19:22.871|10=192|
20150521-18:19:45.251: 8=FIX.4.4|9=70|35=0|34=423|49=ADRARB_XTSE_TOBVC|52=20150521-18:19:45.251|56=AMGTOBVC|10=190|
20150521-18:20:23.206: 8=FIX.4.4|9=70|35=0|34=423|49=AMGTOBVC|56=ADRARB_XTSE_TOBVC|52=20150521-18:20:23.180|10=179|
20150521-18:20:45.251: 8=FIX.4.4|9=70|35=0|34=424|49=ADRARB_XTSE_TOBVC|52=20150521-18:20:45.251|56=AMGTOBVC|10=183|
20150521-18:21:23.499: 8=FIX.4.4|9=70|35=0|34=424|49=AMGTOBVC|56=ADRARB_XTSE_TOBVC|52=20150521-18:21:23.472|10=185|
20150521-18:21:45.251: 8=FIX.4.4|9=70|35=0|34=425|49=ADRARB_XTSE_TOBVC|52=20150521-18:21:45.251|56=AMGTOBVC|10=185|
20150521-18:22:23.800: 8=FIX.4.4|9=70|35=0|34=425|49=AMGTOBVC|56=ADRARB_XTSE_TOBVC|52=20150521-18:22:23.765|10=192|
20150521-18:22:45.251: 8=FIX.4.4|9=70|35=0|34=426|49=ADRARB_XTSE_TOBVC|52=20150521-18:22:45.251|56=AMGTOBVC|10=187|
20150521-18:23:24.146: 8=FIX.4.4|9=70|35=0|34=426|49=AMGTOBVC|56=ADRARB_XTSE_TOBVC|52=20150521-18:23:24.105|10=183|
20150521-18:23:45.251: 8=FIX.4.4|9=70|35=0|34=427|49=ADRARB_XTSE_TOBVC|52=20150521-18:23:45.251|56=AMGTOBVC|10=189|
20150521-18:24:24.457: 8=FIX.4.4|9=70|35=0|34=427|49=AMGTOBVC|56=ADRARB_XTSE_TOBVC|52=20150521-18:24:24.429|10=194|
20150521-18:24:46.251: 8=FIX.4.4|9=70|35=0|34=428|49=ADRARB_XTSE_TOBVC|52=20150521-18:24:46.251|56=AMGTOBVC|10=192|
20150521-18:25:24.583: 8=FIX.4.4|9=70|35=0|34=428|49=AMGTOBVC|56=ADRARB_XTSE_TOBVC|52=20150521-18:25:24.550|10=191|
20150521-18:25:46.251: 8=FIX.4.4|9=70|35=0|34=429|49=ADRARB_XTSE_TOBVC|52=20150521-18:25:46.251|56=AMGTOBVC|10=194|
20150521-18:26:24.888: 8=FIX.4.4|9=70|35=0|34=429|49=AMGTOBVC|56=ADRARB_XTSE_TOBVC|52=20150521-18:26:24.859|10=205|
20150521-18:26:46.251: 8=FIX.4.4|9=70|35=0|34=430|49=ADRARB_XTSE_TOBVC|52=20150521-18:26:46.251|56=AMGTOBVC|10=187|
20150521-18:27:25.212: 8=FIX.4.4|9=70|35=0|34=430|49=AMGTOBVC|56=ADRARB_XTSE_TOBVC|52=20150521-18:27:25.183|10=189|
20150521-18:27:46.251: 8=FIX.4.4|9=70|35=0|34=431|49=ADRARB_XTSE_TOBVC|52=20150521-18:27:46.251|56=AMGTOBVC|10=189|
