20150520-11:21:07.077: 8=FIX.4.4|9=64|35=5|34=1|49=MKDATACL2|52=20150520-11:21:07.077|56=MKDATAFHBCS2|10=145|
20150520-11:21:08.066: 8=FIX.4.4|9=64|35=5|34=1|49=MKDATACL2|52=20150520-11:21:08.066|56=MKDATAFHBCS2|10=144|
20150520-11:21:09.053: 8=FIX.4.4|9=82|35=A|34=1|49=MKDATACL2|52=20150520-11:21:09.052|56=MKDATAFHBCS2|98=0|108=60|141=Y|10=225|
20150520-11:21:09.058: 8=FIX.4.4|9=64|35=5|34=1|49=MKDATAFHBCS2|52=20150520-11:21:09.147|56=MKDATACL2|10=145|
20150520-11:21:09.061: 8=FIX.4.4|9=64|35=5|34=2|49=MKDATACL2|52=20150520-11:21:09.060|56=MKDATAFHBCS2|10=140|
20150520-11:21:10.049: 8=FIX.4.4|9=82|35=A|34=1|49=MKDATACL2|52=20150520-11:21:10.048|56=MKDATAFHBCS2|98=0|108=60|141=Y|10=222|
20150520-11:21:10.066: 8=FIX.4.4|9=82|35=A|34=1|49=MKDATAFHBCS2|52=20150520-11:21:10.147|56=MKDATACL2|98=0|108=60|141=Y|10=222|
20150520-11:22:10.797: 8=FIX.4.4|9=64|35=0|34=2|49=MKDATAFHBCS2|52=20150520-11:22:10.944|56=MKDATACL2|10=139|
20150520-11:22:10.799: 8=FIX.4.4|9=64|35=0|34=2|49=MKDATACL2|52=20150520-11:22:10.799|56=MKDATAFHBCS2|10=147|
20150520-11:23:10.795: 8=FIX.4.4|9=64|35=0|34=3|49=MKDATAFHBCS2|52=20150520-11:23:10.965|56=MKDATACL2|10=144|
20150520-11:23:11.045: 8=FIX.4.4|9=64|35=0|34=3|49=MKDATACL2|52=20150520-11:23:11.045|56=MKDATAFHBCS2|10=134|
20150520-11:24:10.792: 8=FIX.4.4|9=64|35=0|34=4|49=MKDATAFHBCS2|52=20150520-11:24:10.974|56=MKDATACL2|10=146|
20150520-11:24:12.043: 8=FIX.4.4|9=64|35=0|34=4|49=MKDATACL2|52=20150520-11:24:12.042|56=MKDATAFHBCS2|10=134|
20150520-11:25:11.789: 8=FIX.4.4|9=64|35=0|34=5|49=MKDATAFHBCS2|52=20150520-11:25:11.853|56=MKDATACL2|10=145|
20150520-11:25:13.043: 8=FIX.4.4|9=64|35=0|34=5|49=MKDATACL2|52=20150520-11:25:13.042|56=MKDATAFHBCS2|10=137|
20150520-11:26:11.785: 8=FIX.4.4|9=64|35=0|34=6|49=MKDATAFHBCS2|52=20150520-11:26:11.884|56=MKDATACL2|10=151|
20150520-11:26:13.043: 8=FIX.4.4|9=64|35=0|34=6|49=MKDATACL2|52=20150520-11:26:13.042|56=MKDATAFHBCS2|10=139|
20150520-11:27:12.789: 8=FIX.4.4|9=64|35=0|34=7|49=MKDATAFHBCS2|52=20150520-11:27:12.779|56=MKDATACL2|10=157|
20150520-11:27:13.042: 8=FIX.4.4|9=64|35=0|34=7|49=MKDATACL2|52=20150520-11:27:13.042|56=MKDATAFHBCS2|10=141|
20150520-11:28:12.794: 8=FIX.4.4|9=64|35=0|34=8|49=MKDATAFHBCS2|52=20150520-11:28:12.855|56=MKDATACL2|10=154|
20150520-11:28:13.044: 8=FIX.4.4|9=64|35=0|34=8|49=MKDATACL2|52=20150520-11:28:13.044|56=MKDATAFHBCS2|10=145|
20150520-11:29:12.791: 8=FIX.4.4|9=64|35=0|34=9|49=MKDATAFHBCS2|52=20150520-11:29:12.919|56=MKDATACL2|10=157|
20150520-11:29:14.042: 8=FIX.4.4|9=64|35=0|34=9|49=MKDATACL2|52=20150520-11:29:14.042|56=MKDATAFHBCS2|10=146|
20150520-11:30:12.789: 8=FIX.4.4|9=65|35=0|34=10|49=MKDATAFHBCS2|52=20150520-11:30:12.949|56=MKDATACL2|10=193|
20150520-11:30:14.043: 8=FIX.4.4|9=65|35=0|34=10|49=MKDATACL2|52=20150520-11:30:14.043|56=MKDATAFHBCS2|10=180|
20150520-11:31:12.786: 8=FIX.4.4|9=65|35=0|34=11|49=MKDATAFHBCS2|52=20150520-11:31:12.963|56=MKDATACL2|10=191|
20150520-11:31:14.044: 8=FIX.4.4|9=65|35=0|34=11|49=MKDATACL2|52=20150520-11:31:14.043|56=MKDATAFHBCS2|10=182|
20150520-11:32:13.782: 8=FIX.4.4|9=65|35=0|34=12|49=MKDATAFHBCS2|52=20150520-11:32:13.846|56=MKDATACL2|10=194|
20150520-11:32:14.044: 8=FIX.4.4|9=65|35=0|34=12|49=MKDATACL2|52=20150520-11:32:14.043|56=MKDATAFHBCS2|10=184|
20150520-11:33:13.795: 8=FIX.4.4|9=65|35=0|34=13|49=MKDATAFHBCS2|52=20150520-11:33:13.896|56=MKDATACL2|10=201|
20150520-11:33:14.044: 8=FIX.4.4|9=65|35=0|34=13|49=MKDATACL2|52=20150520-11:33:14.043|56=MKDATAFHBCS2|10=186|
20150520-11:34:13.792: 8=FIX.4.4|9=65|35=0|34=14|49=MKDATAFHBCS2|52=20150520-11:34:13.937|56=MKDATACL2|10=199|
20150520-11:34:15.043: 8=FIX.4.4|9=65|35=0|34=14|49=MKDATACL2|52=20150520-11:34:15.043|56=MKDATAFHBCS2|10=189|
20150520-11:35:13.789: 8=FIX.4.4|9=65|35=0|34=15|49=MKDATAFHBCS2|52=20150520-11:35:13.957|56=MKDATACL2|10=203|
20150520-11:35:16.043: 8=FIX.4.4|9=65|35=0|34=15|49=MKDATACL2|52=20150520-11:35:16.043|56=MKDATAFHBCS2|10=192|
20150520-11:36:13.789: 8=FIX.4.4|9=65|35=0|34=16|49=MKDATAFHBCS2|52=20150520-11:36:13.968|56=MKDATACL2|10=207|
20150520-11:36:16.044: 8=FIX.4.4|9=65|35=0|34=16|49=MKDATACL2|52=20150520-11:36:16.043|56=MKDATAFHBCS2|10=194|
20150520-11:37:14.796: 8=FIX.4.4|9=65|35=0|34=17|49=MKDATAFHBCS2|52=20150520-11:37:14.849|56=MKDATACL2|10=208|
20150520-11:37:16.044: 8=FIX.4.4|9=65|35=0|34=17|49=MKDATACL2|52=20150520-11:37:16.043|56=MKDATAFHBCS2|10=196|
20150520-11:38:14.780: 8=FIX.4.4|9=65|35=0|34=18|49=MKDATAFHBCS2|52=20150520-11:38:14.888|56=MKDATACL2|10=213|
20150520-11:38:17.043: 8=FIX.4.4|9=65|35=0|34=18|49=MKDATACL2|52=20150520-11:38:17.042|56=MKDATAFHBCS2|10=198|
20150520-11:39:14.793: 8=FIX.4.4|9=65|35=0|34=19|49=MKDATAFHBCS2|52=20150520-11:39:14.946|56=MKDATACL2|10=210|
20150520-11:39:17.043: 8=FIX.4.4|9=65|35=0|34=19|49=MKDATACL2|52=20150520-11:39:17.042|56=MKDATAFHBCS2|10=200|
20150520-11:40:14.790: 8=FIX.4.4|9=65|35=0|34=20|49=MKDATAFHBCS2|52=20150520-11:40:14.964|56=MKDATACL2|10=194|
20150520-11:40:17.044: 8=FIX.4.4|9=65|35=0|34=20|49=MKDATACL2|52=20150520-11:40:17.043|56=MKDATAFHBCS2|10=185|
20150520-11:41:14.788: 8=FIX.4.4|9=65|35=0|34=21|49=MKDATAFHBCS2|52=20150520-11:41:14.971|56=MKDATACL2|10=194|
20150520-11:41:18.043: 8=FIX.4.4|9=65|35=0|34=21|49=MKDATACL2|52=20150520-11:41:18.043|56=MKDATAFHBCS2|10=188|
20150520-11:42:15.785: 8=FIX.4.4|9=65|35=0|34=22|49=MKDATAFHBCS2|52=20150520-11:42:15.850|56=MKDATACL2|10=193|
20150520-11:42:19.042: 8=FIX.4.4|9=65|35=0|34=22|49=MKDATACL2|52=20150520-11:42:19.042|56=MKDATAFHBCS2|10=190|
20150520-11:43:15.783: 8=FIX.4.4|9=65|35=0|34=23|49=MKDATAFHBCS2|52=20150520-11:43:15.892|56=MKDATACL2|10=201|
20150520-11:43:19.043: 8=FIX.4.4|9=65|35=0|34=23|49=MKDATACL2|52=20150520-11:43:19.043|56=MKDATAFHBCS2|10=193|
20150520-11:44:16.792: 8=FIX.4.4|9=65|35=0|34=24|49=MKDATAFHBCS2|52=20150520-11:44:16.798|56=MKDATACL2|10=209|
20150520-11:44:20.043: 8=FIX.4.4|9=65|35=0|34=24|49=MKDATACL2|52=20150520-11:44:20.042|56=MKDATAFHBCS2|10=186|
20150520-11:45:16.790: 8=FIX.4.4|9=65|35=0|34=25|49=MKDATAFHBCS2|52=20150520-11:45:16.867|56=MKDATACL2|10=208|
20150520-11:45:20.042: 8=FIX.4.4|9=65|35=0|34=25|49=MKDATACL2|52=20150520-11:45:20.042|56=MKDATAFHBCS2|10=188|
20150520-11:46:16.787: 8=FIX.4.4|9=65|35=0|34=26|49=MKDATAFHBCS2|52=20150520-11:46:16.921|56=MKDATACL2|10=201|
20150520-11:46:20.043: 8=FIX.4.4|9=65|35=0|34=26|49=MKDATACL2|52=20150520-11:46:20.042|56=MKDATAFHBCS2|10=190|
20150520-11:47:16.803: 8=FIX.4.4|9=65|35=0|34=27|49=MKDATAFHBCS2|52=20150520-11:47:16.948|56=MKDATACL2|10=212|
20150520-11:47:20.042: 8=FIX.4.4|9=65|35=0|34=27|49=MKDATACL2|52=20150520-11:47:20.042|56=MKDATAFHBCS2|10=192|
20150520-11:48:16.782: 8=FIX.4.4|9=65|35=0|34=28|49=MKDATAFHBCS2|52=20150520-11:48:16.961|56=MKDATACL2|10=209|
20150520-11:48:20.043: 8=FIX.4.4|9=65|35=0|34=28|49=MKDATACL2|52=20150520-11:48:20.042|56=MKDATAFHBCS2|10=194|
20150520-11:49:17.779: 8=FIX.4.4|9=65|35=0|34=29|49=MKDATAFHBCS2|52=20150520-11:49:17.843|56=MKDATACL2|10=211|
20150520-11:49:21.042: 8=FIX.4.4|9=65|35=0|34=29|49=MKDATACL2|52=20150520-11:49:21.042|56=MKDATAFHBCS2|10=197|
20150520-11:50:17.794: 8=FIX.4.4|9=65|35=0|34=30|49=MKDATAFHBCS2|52=20150520-11:50:17.906|56=MKDATACL2|10=195|
20150520-11:50:21.043: 8=FIX.4.4|9=65|35=0|34=30|49=MKDATACL2|52=20150520-11:50:21.042|56=MKDATAFHBCS2|10=181|
20150520-11:51:17.788: 8=FIX.4.4|9=65|35=0|34=31|49=MKDATAFHBCS2|52=20150520-11:51:17.944|56=MKDATACL2|10=199|
20150520-11:51:21.042: 8=FIX.4.4|9=65|35=0|34=31|49=MKDATACL2|52=20150520-11:51:21.042|56=MKDATAFHBCS2|10=183|
20150520-11:52:17.785: 8=FIX.4.4|9=65|35=0|34=32|49=MKDATAFHBCS2|52=20150520-11:52:17.960|56=MKDATACL2|10=199|
20150520-11:52:21.044: 8=FIX.4.4|9=65|35=0|34=32|49=MKDATACL2|52=20150520-11:52:21.043|56=MKDATAFHBCS2|10=186|
20150520-11:53:17.783: 8=FIX.4.4|9=65|35=0|34=33|49=MKDATAFHBCS2|52=20150520-11:53:17.966|56=MKDATACL2|10=207|
20150520-11:53:21.043: 8=FIX.4.4|9=65|35=0|34=33|49=MKDATACL2|52=20150520-11:53:21.043|56=MKDATAFHBCS2|10=188|
20150520-11:54:18.781: 8=FIX.4.4|9=65|35=0|34=34|49=MKDATAFHBCS2|52=20150520-11:54:18.848|56=MKDATACL2|10=209|
20150520-11:54:21.043: 8=FIX.4.4|9=65|35=0|34=34|49=MKDATACL2|52=20150520-11:54:21.043|56=MKDATAFHBCS2|10=190|
20150520-11:55:18.776: 8=FIX.4.4|9=65|35=0|34=35|49=MKDATAFHBCS2|52=20150520-11:55:18.896|56=MKDATACL2|10=214|
20150520-11:55:22.041: 8=FIX.4.4|9=65|35=0|34=35|49=MKDATACL2|52=20150520-11:55:22.041|56=MKDATAFHBCS2|10=191|
20150520-11:56:18.774: 8=FIX.4.4|9=65|35=0|34=36|49=MKDATAFHBCS2|52=20150520-11:56:18.931|56=MKDATACL2|10=206|
20150520-11:56:22.043: 8=FIX.4.4|9=65|35=0|34=36|49=MKDATACL2|52=20150520-11:56:22.043|56=MKDATAFHBCS2|10=195|
20150520-11:57:18.787: 8=FIX.4.4|9=65|35=0|34=37|49=MKDATAFHBCS2|52=20150520-11:57:18.963|56=MKDATACL2|10=213|
20150520-11:57:23.043: 8=FIX.4.4|9=65|35=0|34=37|49=MKDATACL2|52=20150520-11:57:23.043|56=MKDATAFHBCS2|10=198|
20150520-11:58:18.787: 8=FIX.4.4|9=65|35=0|34=38|49=MKDATAFHBCS2|52=20150520-11:58:18.969|56=MKDATACL2|10=221|
20150520-11:58:24.043: 8=FIX.4.4|9=65|35=0|34=38|49=MKDATACL2|52=20150520-11:58:24.043|56=MKDATAFHBCS2|10=201|
20150520-11:59:19.773: 8=FIX.4.4|9=65|35=0|34=39|49=MKDATAFHBCS2|52=20150520-11:59:19.833|56=MKDATACL2|10=214|
20150520-11:59:25.043: 8=FIX.4.4|9=65|35=0|34=39|49=MKDATACL2|52=20150520-11:59:25.043|56=MKDATAFHBCS2|10=204|
20150520-12:00:19.782: 8=FIX.4.4|9=65|35=0|34=40|49=MKDATAFHBCS2|52=20150520-12:00:19.900|56=MKDATACL2|10=188|
20150520-12:00:26.042: 8=FIX.4.4|9=65|35=0|34=40|49=MKDATACL2|52=20150520-12:00:26.042|56=MKDATAFHBCS2|10=183|
20150520-12:01:20.772: 8=FIX.4.4|9=65|35=0|34=41|49=MKDATAFHBCS2|52=20150520-12:01:20.786|56=MKDATACL2|10=194|
20150520-12:01:26.042: 8=FIX.4.4|9=65|35=0|34=41|49=MKDATACL2|52=20150520-12:01:26.042|56=MKDATAFHBCS2|10=185|
20150520-12:02:20.786: 8=FIX.4.4|9=65|35=0|34=42|49=MKDATAFHBCS2|52=20150520-12:02:20.880|56=MKDATACL2|10=191|
20150520-12:02:26.042: 8=FIX.4.4|9=65|35=0|34=42|49=MKDATACL2|52=20150520-12:02:26.042|56=MKDATAFHBCS2|10=187|
20150520-12:03:20.783: 8=FIX.4.4|9=65|35=0|34=43|49=MKDATAFHBCS2|52=20150520-12:03:20.927|56=MKDATACL2|10=195|
20150520-12:03:26.043: 8=FIX.4.4|9=65|35=0|34=43|49=MKDATACL2|52=20150520-12:03:26.042|56=MKDATAFHBCS2|10=189|
20150520-12:04:20.781: 8=FIX.4.4|9=65|35=0|34=44|49=MKDATAFHBCS2|52=20150520-12:04:20.949|56=MKDATACL2|10=201|
20150520-12:04:26.042: 8=FIX.4.4|9=65|35=0|34=44|49=MKDATACL2|52=20150520-12:04:26.042|56=MKDATAFHBCS2|10=191|
20150520-12:05:20.779: 8=FIX.4.4|9=65|35=0|34=45|49=MKDATAFHBCS2|52=20150520-12:05:20.959|56=MKDATACL2|10=204|
20150520-12:05:26.042: 8=FIX.4.4|9=65|35=0|34=45|49=MKDATACL2|52=20150520-12:05:26.042|56=MKDATAFHBCS2|10=193|
20150520-12:06:21.776: 8=FIX.4.4|9=65|35=0|34=46|49=MKDATAFHBCS2|52=20150520-12:06:21.840|56=MKDATACL2|10=196|
20150520-12:06:26.042: 8=FIX.4.4|9=65|35=0|34=46|49=MKDATACL2|52=20150520-12:06:26.042|56=MKDATAFHBCS2|10=195|
20150520-12:07:21.774: 8=FIX.4.4|9=65|35=0|34=47|49=MKDATAFHBCS2|52=20150520-12:07:21.898|56=MKDATACL2|10=211|
20150520-12:07:27.042: 8=FIX.4.4|9=65|35=0|34=47|49=MKDATACL2|52=20150520-12:07:27.042|56=MKDATAFHBCS2|10=198|
20150520-12:08:21.789: 8=FIX.4.4|9=65|35=0|34=48|49=MKDATAFHBCS2|52=20150520-12:08:21.945|56=MKDATACL2|10=206|
20150520-12:08:27.042: 8=FIX.4.4|9=65|35=0|34=48|49=MKDATACL2|52=20150520-12:08:27.042|56=MKDATAFHBCS2|10=200|
20150520-12:09:22.780: 8=FIX.4.4|9=65|35=0|34=49|49=MKDATAFHBCS2|52=20150520-12:09:22.958|56=MKDATACL2|10=213|
20150520-12:09:28.041: 8=FIX.4.4|9=65|35=0|34=49|49=MKDATACL2|52=20150520-12:09:28.041|56=MKDATAFHBCS2|10=202|
20150520-12:10:22.777: 8=FIX.4.4|9=65|35=0|34=50|49=MKDATAFHBCS2|52=20150520-12:10:22.964|56=MKDATACL2|10=194|
20150520-12:10:28.041: 8=FIX.4.4|9=65|35=0|34=50|49=MKDATACL2|52=20150520-12:10:28.041|56=MKDATAFHBCS2|10=186|
20150520-12:11:23.773: 8=FIX.4.4|9=65|35=0|34=51|49=MKDATAFHBCS2|52=20150520-12:11:23.842|56=MKDATACL2|10=192|
20150520-12:11:28.041: 8=FIX.4.4|9=65|35=0|34=51|49=MKDATACL2|52=20150520-12:11:28.041|56=MKDATAFHBCS2|10=188|
20150520-12:12:23.776: 8=FIX.4.4|9=65|35=0|34=52|49=MKDATAFHBCS2|52=20150520-12:12:23.902|56=MKDATACL2|10=191|
20150520-12:12:28.042: 8=FIX.4.4|9=65|35=0|34=52|49=MKDATACL2|52=20150520-12:12:28.042|56=MKDATAFHBCS2|10=191|
20150520-12:13:23.786: 8=FIX.4.4|9=65|35=0|34=53|49=MKDATAFHBCS2|52=20150520-12:13:23.946|56=MKDATACL2|10=201|
20150520-12:13:28.042: 8=FIX.4.4|9=65|35=0|34=53|49=MKDATACL2|52=20150520-12:13:28.042|56=MKDATAFHBCS2|10=193|
20150520-12:14:23.782: 8=FIX.4.4|9=65|35=0|34=54|49=MKDATAFHBCS2|52=20150520-12:14:23.960|56=MKDATACL2|10=199|
20150520-12:14:28.042: 8=FIX.4.4|9=65|35=0|34=54|49=MKDATACL2|52=20150520-12:14:28.042|56=MKDATAFHBCS2|10=195|
20150520-12:15:23.778: 8=FIX.4.4|9=65|35=0|34=55|49=MKDATAFHBCS2|52=20150520-12:15:23.965|56=MKDATACL2|10=206|
20150520-12:15:28.042: 8=FIX.4.4|9=65|35=0|34=55|49=MKDATACL2|52=20150520-12:15:28.042|56=MKDATAFHBCS2|10=197|
20150520-12:16:24.789: 8=FIX.4.4|9=65|35=0|34=56|49=MKDATAFHBCS2|52=20150520-12:16:24.843|56=MKDATACL2|10=204|
20150520-12:16:28.042: 8=FIX.4.4|9=65|35=0|34=56|49=MKDATACL2|52=20150520-12:16:28.042|56=MKDATAFHBCS2|10=199|
20150520-12:17:24.772: 8=FIX.4.4|9=65|35=0|34=57|49=MKDATAFHBCS2|52=20150520-12:17:24.900|56=MKDATACL2|10=200|
20150520-12:17:29.042: 8=FIX.4.4|9=65|35=0|34=57|49=MKDATACL2|52=20150520-12:17:29.042|56=MKDATAFHBCS2|10=202|
20150520-12:18:25.767: 8=FIX.4.4|9=65|35=0|34=58|49=MKDATAFHBCS2|52=20150520-12:18:25.735|56=MKDATACL2|10=209|
20150520-12:18:30.042: 8=FIX.4.4|9=65|35=0|34=58|49=MKDATACL2|52=20150520-12:18:30.041|56=MKDATAFHBCS2|10=195|
20150520-12:19:25.780: 8=FIX.4.4|9=65|35=0|34=59|49=MKDATAFHBCS2|52=20150520-12:19:25.862|56=MKDATACL2|10=212|
20150520-12:19:30.041: 8=FIX.4.4|9=65|35=0|34=59|49=MKDATACL2|52=20150520-12:19:30.041|56=MKDATAFHBCS2|10=197|
20150520-12:20:25.777: 8=FIX.4.4|9=65|35=0|34=60|49=MKDATAFHBCS2|52=20150520-12:20:25.915|56=MKDATACL2|10=195|
20150520-12:20:30.041: 8=FIX.4.4|9=65|35=0|34=60|49=MKDATACL2|52=20150520-12:20:30.041|56=MKDATAFHBCS2|10=181|
20150520-12:21:25.775: 8=FIX.4.4|9=65|35=0|34=61|49=MKDATAFHBCS2|52=20150520-12:21:25.941|56=MKDATACL2|10=196|
20150520-12:21:30.042: 8=FIX.4.4|9=65|35=0|34=61|49=MKDATACL2|52=20150520-12:21:30.041|56=MKDATAFHBCS2|10=183|
20150520-12:22:25.772: 8=FIX.4.4|9=65|35=0|34=62|49=MKDATAFHBCS2|52=20150520-12:22:25.952|56=MKDATACL2|10=200|
20150520-12:22:30.042: 8=FIX.4.4|9=65|35=0|34=62|49=MKDATACL2|52=20150520-12:22:30.042|56=MKDATAFHBCS2|10=186|
20150520-12:23:26.778: 8=FIX.4.4|9=65|35=0|34=63|49=MKDATAFHBCS2|52=20150520-12:23:26.839|56=MKDATACL2|10=207|
20150520-12:23:30.042: 8=FIX.4.4|9=65|35=0|34=63|49=MKDATACL2|52=20150520-12:23:30.042|56=MKDATAFHBCS2|10=188|
20150520-12:24:26.776: 8=FIX.4.4|9=65|35=0|34=64|49=MKDATAFHBCS2|52=20150520-12:24:26.896|56=MKDATACL2|10=212|
20150520-12:24:31.042: 8=FIX.4.4|9=65|35=0|34=64|49=MKDATACL2|52=20150520-12:24:31.042|56=MKDATAFHBCS2|10=191|
20150520-12:25:26.788: 8=FIX.4.4|9=65|35=0|34=65|49=MKDATAFHBCS2|52=20150520-12:25:26.941|56=MKDATACL2|10=205|
20150520-12:25:32.042: 8=FIX.4.4|9=65|35=0|34=65|49=MKDATACL2|52=20150520-12:25:32.042|56=MKDATAFHBCS2|10=194|
20150520-12:26:26.792: 8=FIX.4.4|9=65|35=0|34=66|49=MKDATAFHBCS2|52=20150520-12:26:26.954|56=MKDATACL2|10=211|
20150520-12:26:33.042: 8=FIX.4.4|9=65|35=0|34=66|49=MKDATACL2|52=20150520-12:26:33.042|56=MKDATAFHBCS2|10=197|
20150520-12:27:26.780: 8=FIX.4.4|9=65|35=0|34=67|49=MKDATAFHBCS2|52=20150520-12:27:26.959|56=MKDATACL2|10=218|
20150520-12:27:34.042: 8=FIX.4.4|9=65|35=0|34=67|49=MKDATACL2|52=20150520-12:27:34.042|56=MKDATAFHBCS2|10=200|
20150520-12:28:27.768: 8=FIX.4.4|9=65|35=0|34=68|49=MKDATAFHBCS2|52=20150520-12:28:27.848|56=MKDATACL2|10=218|
20150520-12:28:34.042: 8=FIX.4.4|9=65|35=0|34=68|49=MKDATACL2|52=20150520-12:28:34.042|56=MKDATAFHBCS2|10=202|
20150520-12:29:27.766: 8=FIX.4.4|9=65|35=0|34=69|49=MKDATAFHBCS2|52=20150520-12:29:27.900|56=MKDATACL2|10=209|
20150520-12:29:34.042: 8=FIX.4.4|9=65|35=0|34=69|49=MKDATACL2|52=20150520-12:29:34.042|56=MKDATAFHBCS2|10=204|
20150520-12:30:27.763: 8=FIX.4.4|9=65|35=0|34=70|49=MKDATAFHBCS2|52=20150520-12:30:27.928|56=MKDATACL2|10=203|
20150520-12:30:34.042: 8=FIX.4.4|9=65|35=0|34=70|49=MKDATACL2|52=20150520-12:30:34.042|56=MKDATAFHBCS2|10=188|
20150520-12:31:27.770: 8=FIX.4.4|9=65|35=0|34=71|49=MKDATAFHBCS2|52=20150520-12:31:27.941|56=MKDATACL2|10=200|
20150520-12:31:35.042: 8=FIX.4.4|9=65|35=0|34=71|49=MKDATACL2|52=20150520-12:31:35.042|56=MKDATAFHBCS2|10=191|
20150520-12:32:27.774: 8=FIX.4.4|9=65|35=0|34=72|49=MKDATAFHBCS2|52=20150520-12:32:27.962|56=MKDATACL2|10=205|
20150520-12:32:35.042: 8=FIX.4.4|9=65|35=0|34=72|49=MKDATACL2|52=20150520-12:32:35.042|56=MKDATAFHBCS2|10=193|
20150520-12:33:28.770: 8=FIX.4.4|9=65|35=0|34=73|49=MKDATAFHBCS2|52=20150520-12:33:28.853|56=MKDATACL2|10=207|
20150520-12:33:36.042: 8=FIX.4.4|9=65|35=0|34=73|49=MKDATACL2|52=20150520-12:33:36.042|56=MKDATAFHBCS2|10=196|
20150520-12:34:28.767: 8=FIX.4.4|9=65|35=0|34=74|49=MKDATAFHBCS2|52=20150520-12:34:28.903|56=MKDATACL2|10=205|
20150520-12:34:37.042: 8=FIX.4.4|9=65|35=0|34=74|49=MKDATACL2|52=20150520-12:34:37.042|56=MKDATAFHBCS2|10=199|
20150520-12:35:29.763: 8=FIX.4.4|9=65|35=0|34=75|49=MKDATAFHBCS2|52=20150520-12:35:29.804|56=MKDATACL2|10=208|
20150520-12:35:38.042: 8=FIX.4.4|9=65|35=0|34=75|49=MKDATACL2|52=20150520-12:35:38.041|56=MKDATAFHBCS2|10=201|
20150520-12:36:29.778: 8=FIX.4.4|9=65|35=0|34=76|49=MKDATAFHBCS2|52=20150520-12:36:29.894|56=MKDATACL2|10=219|
20150520-12:36:38.042: 8=FIX.4.4|9=65|35=0|34=76|49=MKDATACL2|52=20150520-12:36:38.042|56=MKDATAFHBCS2|10=204|
20150520-12:37:29.777: 8=FIX.4.4|9=65|35=0|34=77|49=MKDATAFHBCS2|52=20150520-12:37:29.931|56=MKDATACL2|10=213|
20150520-12:37:39.042: 8=FIX.4.4|9=65|35=0|34=77|49=MKDATACL2|52=20150520-12:37:39.042|56=MKDATAFHBCS2|10=207|
20150520-12:38:29.771: 8=FIX.4.4|9=65|35=0|34=78|49=MKDATAFHBCS2|52=20150520-12:38:29.948|56=MKDATACL2|10=223|
20150520-12:38:40.042: 8=FIX.4.4|9=65|35=0|34=78|49=MKDATACL2|52=20150520-12:38:40.042|56=MKDATAFHBCS2|10=201|
20150520-12:39:29.767: 8=FIX.4.4|9=65|35=0|34=79|49=MKDATAFHBCS2|52=20150520-12:39:29.952|56=MKDATACL2|10=220|
20150520-12:39:41.042: 8=FIX.4.4|9=65|35=0|34=79|49=MKDATACL2|52=20150520-12:39:41.041|56=MKDATAFHBCS2|10=203|
20150520-12:40:30.764: 8=FIX.4.4|9=65|35=0|34=80|49=MKDATAFHBCS2|52=20150520-12:40:30.851|56=MKDATACL2|10=194|
20150520-12:40:41.042: 8=FIX.4.4|9=65|35=0|34=80|49=MKDATACL2|52=20150520-12:40:41.042|56=MKDATAFHBCS2|10=188|
20150520-12:41:30.762: 8=FIX.4.4|9=65|35=0|34=81|49=MKDATAFHBCS2|52=20150520-12:41:30.902|56=MKDATACL2|10=193|
20150520-12:41:42.042: 8=FIX.4.4|9=65|35=0|34=81|49=MKDATACL2|52=20150520-12:41:42.042|56=MKDATAFHBCS2|10=191|
20150520-12:42:30.760: 8=FIX.4.4|9=65|35=0|34=82|49=MKDATAFHBCS2|52=20150520-12:42:30.926|56=MKDATACL2|10=201|
20150520-12:42:42.042: 8=FIX.4.4|9=65|35=0|34=82|49=MKDATACL2|52=20150520-12:42:42.042|56=MKDATAFHBCS2|10=193|
20150520-12:43:30.771: 8=FIX.4.4|9=65|35=0|34=83|49=MKDATAFHBCS2|52=20150520-12:43:30.953|56=MKDATACL2|10=203|
20150520-12:43:43.042: 8=FIX.4.4|9=65|35=0|34=83|49=MKDATACL2|52=20150520-12:43:43.042|56=MKDATAFHBCS2|10=196|
20150520-12:44:30.775: 8=FIX.4.4|9=65|35=0|34=84|49=MKDATAFHBCS2|52=20150520-12:44:30.959|56=MKDATACL2|10=211|
20150520-12:44:44.042: 8=FIX.4.4|9=65|35=0|34=84|49=MKDATACL2|52=20150520-12:44:44.042|56=MKDATAFHBCS2|10=199|
20150520-12:45:31.766: 8=FIX.4.4|9=65|35=0|34=85|49=MKDATAFHBCS2|52=20150520-12:45:31.860|56=MKDATACL2|10=205|
20150520-12:45:44.042: 8=FIX.4.4|9=65|35=0|34=85|49=MKDATACL2|52=20150520-12:45:44.042|56=MKDATAFHBCS2|10=201|
20150520-12:46:31.763: 8=FIX.4.4|9=65|35=0|34=86|49=MKDATAFHBCS2|52=20150520-12:46:31.907|56=MKDATACL2|10=209|
20150520-12:46:45.042: 8=FIX.4.4|9=65|35=0|34=86|49=MKDATACL2|52=20150520-12:46:45.042|56=MKDATAFHBCS2|10=204|
20150520-12:47:31.759: 8=FIX.4.4|9=65|35=0|34=87|49=MKDATAFHBCS2|52=20150520-12:47:31.928|56=MKDATACL2|10=214|
20150520-12:47:45.042: 8=FIX.4.4|9=65|35=0|34=87|49=MKDATACL2|52=20150520-12:47:45.042|56=MKDATAFHBCS2|10=206|
20150520-12:48:31.757: 8=FIX.4.4|9=65|35=0|34=88|49=MKDATAFHBCS2|52=20150520-12:48:31.939|56=MKDATACL2|10=218|
20150520-12:48:46.042: 8=FIX.4.4|9=65|35=0|34=88|49=MKDATACL2|52=20150520-12:48:46.041|56=MKDATAFHBCS2|10=208|
20150520-12:49:31.769: 8=FIX.4.4|9=65|35=0|34=89|49=MKDATAFHBCS2|52=20150520-12:49:31.958|56=MKDATACL2|10=221|
20150520-12:49:46.042: 8=FIX.4.4|9=65|35=0|34=89|49=MKDATACL2|52=20150520-12:49:46.042|56=MKDATAFHBCS2|10=211|
20150520-12:50:32.767: 8=FIX.4.4|9=65|35=0|34=90|49=MKDATAFHBCS2|52=20150520-12:50:32.862|56=MKDATACL2|10=200|
20150520-12:50:47.042: 8=FIX.4.4|9=65|35=0|34=90|49=MKDATACL2|52=20150520-12:50:47.042|56=MKDATAFHBCS2|10=196|
20150520-12:51:32.781: 8=FIX.4.4|9=65|35=0|34=91|49=MKDATAFHBCS2|52=20150520-12:51:32.905|56=MKDATACL2|10=200|
20150520-12:51:48.042: 8=FIX.4.4|9=65|35=0|34=91|49=MKDATACL2|52=20150520-12:51:48.042|56=MKDATAFHBCS2|10=199|
20150520-12:52:33.760: 8=FIX.4.4|9=65|35=0|34=92|49=MKDATAFHBCS2|52=20150520-12:52:33.772|56=MKDATACL2|10=205|
20150520-12:52:49.042: 8=FIX.4.4|9=65|35=0|34=92|49=MKDATACL2|52=20150520-12:52:49.042|56=MKDATAFHBCS2|10=202|
20150520-12:53:33.756: 8=FIX.4.4|9=65|35=0|34=93|49=MKDATAFHBCS2|52=20150520-12:53:33.861|56=MKDATACL2|10=206|
20150520-12:53:49.042: 8=FIX.4.4|9=65|35=0|34=93|49=MKDATACL2|52=20150520-12:53:49.042|56=MKDATAFHBCS2|10=204|
20150520-12:54:33.775: 8=FIX.4.4|9=65|35=0|34=94|49=MKDATAFHBCS2|52=20150520-12:54:33.919|56=MKDATACL2|10=212|
20150520-12:54:50.041: 8=FIX.4.4|9=65|35=0|34=94|49=MKDATACL2|52=20150520-12:54:50.041|56=MKDATAFHBCS2|10=197|
20150520-12:55:33.767: 8=FIX.4.4|9=65|35=0|34=95|49=MKDATAFHBCS2|52=20150520-12:55:33.939|56=MKDATACL2|10=216|
20150520-12:55:50.041: 8=FIX.4.4|9=65|35=0|34=95|49=MKDATACL2|52=20150520-12:55:50.041|56=MKDATAFHBCS2|10=199|
20150520-12:56:33.764: 8=FIX.4.4|9=65|35=0|34=96|49=MKDATAFHBCS2|52=20150520-12:56:33.945|56=MKDATACL2|10=215|
20150520-12:56:50.042: 8=FIX.4.4|9=65|35=0|34=96|49=MKDATACL2|52=20150520-12:56:50.042|56=MKDATAFHBCS2|10=202|
20150520-12:57:34.760: 8=FIX.4.4|9=65|35=0|34=97|49=MKDATAFHBCS2|52=20150520-12:57:34.820|56=MKDATACL2|10=210|
20150520-12:57:47.410: 8=FIX.4.4|9=135|35=V|34=97|49=MKDATACL2|52=20150520-12:57:47.409|56=MKDATAFHBCS2|262=62b8848ff7fb4c74|263=1|264=1|146=1|55=CCU|267=3|269=0|269=1|269=5|10=093|
20150520-12:57:47.411: 8=FIX.4.4|9=140|35=V|34=98|49=MKDATACL2|52=20150520-12:57:47.411|56=MKDATAFHBCS2|262=-1b2144149897b7ab|263=1|264=1|146=1|55=ENERSIS|267=3|269=0|269=1|269=5|10=075|
20150520-12:57:47.412: 8=FIX.4.4|9=135|35=V|34=99|49=MKDATACL2|52=20150520-12:57:47.411|56=MKDATAFHBCS2|262=-9080a4306aab35b|263=1|264=1|146=1|55=LAN|267=3|269=0|269=1|269=5|10=255|
20150520-12:57:47.413: 8=FIX.4.4|9=191|35=W|34=98|49=MKDATAFHBCS2|52=20150520-12:57:47.487|56=MKDATACL2|55=CCU|262=62b8848ff7fb4c74|268=3|269=0|270=6662|271=1700|282=072|290=1|269=1|270=7000|271=683|282=035|290=1|269=5|270=6881.7|10=183|
20150520-12:57:47.415: 8=FIX.4.4|9=141|35=V|34=100|49=MKDATACL2|52=20150520-12:57:47.414|56=MKDATAFHBCS2|262=13b826857d5943ae|263=1|264=1|146=1|55=CENCOSUD|267=3|269=0|269=1|269=5|10=134|
20150520-12:57:47.422: 8=FIX.4.4|9=140|35=V|34=101|49=MKDATACL2|52=20150520-12:57:47.422|56=MKDATAFHBCS2|262=-26e0c1f050aab366|263=1|264=1|146=1|55=ENDESA|267=3|269=0|269=1|269=5|10=084|
20150520-12:57:47.423: 8=FIX.4.4|9=144|35=V|34=102|49=MKDATACL2|52=20150520-12:57:47.423|56=MKDATAFHBCS2|262=-673589bc841fb712|263=1|264=1|146=1|55=CONCHATORO|267=3|269=0|269=1|269=5|10=085|
20150520-12:57:47.424: 8=FIX.4.4|9=142|35=V|34=103|49=MKDATACL2|52=20150520-12:57:47.424|56=MKDATAFHBCS2|262=-45f46eafe690b716|263=1|264=1|146=1|55=CENCOSUD|267=3|269=0|269=1|269=5|10=024|
20150520-12:57:47.425: 8=FIX.4.4|9=141|35=V|34=104|49=MKDATACL2|52=20150520-12:57:47.425|56=MKDATAFHBCS2|262=60e047956bda4add|263=1|264=1|146=1|55=ANDINA-B|267=3|269=0|269=1|269=5|10=215|
20150520-12:57:47.426: 8=FIX.4.4|9=138|35=V|34=105|49=MKDATACL2|52=20150520-12:57:47.426|56=MKDATAFHBCS2|262=4859ca87839b4ce2|263=1|264=1|146=1|55=CHILE|267=3|269=0|269=1|269=5|10=221|
20150520-12:57:47.431: 8=FIX.4.4|9=141|35=V|34=106|49=MKDATACL2|52=20150520-12:57:47.431|56=MKDATAFHBCS2|262=7ed4441d60ea41b8|263=1|264=1|146=1|55=ANDINA-A|267=3|269=0|269=1|269=5|10=163|
20150520-12:57:47.432: 8=FIX.4.4|9=144|35=V|34=107|49=MKDATACL2|52=20150520-12:57:47.431|56=MKDATAFHBCS2|262=-432b7e728e27b139|263=1|264=1|146=1|55=BSANTANDER|267=3|269=0|269=1|269=5|10=070|
20150520-12:57:47.432: 8=FIX.4.4|9=197|35=W|34=99|49=MKDATAFHBCS2|52=20150520-12:57:47.487|56=MKDATACL2|55=ENERSIS|262=-1b2144149897b7ab|268=3|269=0|270=213.1|271=37942|282=090|290=1|269=1|270=214|271=2370|282=090|290=1|269=5|270=213.1|10=205|
20150520-12:57:47.433: 8=FIX.4.4|9=138|35=V|34=108|49=MKDATACL2|52=20150520-12:57:47.432|56=MKDATAFHBCS2|262=7b76acc93e904280|263=1|264=1|146=1|55=SQM-B|267=3|269=0|269=1|269=5|10=204|
20150520-12:57:47.433: 8=FIX.4.4|9=190|35=W|34=100|49=MKDATAFHBCS2|52=20150520-12:57:47.487|56=MKDATACL2|55=LAN|262=-9080a4306aab35b|268=3|269=0|270=5420|271=2500|282=051|290=1|269=1|270=5475|271=362|282=082|290=1|269=5|270=5450|10=012|
20150520-12:57:47.434: 8=FIX.4.4|9=143|35=V|34=109|49=MKDATACL2|52=20150520-12:57:47.433|56=MKDATAFHBCS2|262=-34f9643cc085b300|263=1|264=1|146=1|55=CORPBANCA|267=3|269=0|269=1|269=5|10=230|
20150520-12:57:47.435: 8=FIX.4.4|9=143|35=V|34=110|49=MKDATACL2|52=20150520-12:57:47.434|56=MKDATAFHBCS2|262=-61e8e26b3fcb525|263=1|264=1|146=1|55=BSANTANDER|267=3|269=0|269=1|269=5|10=106|
20150520-12:57:47.435: 8=FIX.4.4|9=197|35=W|34=101|49=MKDATAFHBCS2|52=20150520-12:57:47.487|56=MKDATACL2|55=CENCOSUD|262=13b826857d5943ae|268=3|269=0|270=1577|271=12500|282=082|290=1|269=1|270=1585|271=3646|282=035|290=1|269=5|270=1585|10=243|
20150520-12:57:47.436: 8=FIX.4.4|9=140|35=V|34=111|49=MKDATACL2|52=20150520-12:57:47.435|56=MKDATAFHBCS2|262=-2c5f7acdb851bf18|263=1|264=1|146=1|55=ENDESA|267=3|269=0|269=1|269=5|10=202|
20150520-12:57:47.436: 8=FIX.4.4|9=198|35=W|34=102|49=MKDATAFHBCS2|52=20150520-12:57:47.503|56=MKDATACL2|55=ENDESA|262=-26e0c1f050aab366|268=3|269=0|270=921.05|271=3000|282=090|290=1|269=1|270=931|271=1569|282=088|290=1|269=5|270=931.07|10=017|
20150520-12:57:47.436: 8=FIX.4.4|9=200|35=W|34=103|49=MKDATAFHBCS2|52=20150520-12:57:47.503|56=MKDATACL2|55=CONCHATORO|262=-673589bc841fb712|268=3|269=0|270=1199|271=830|282=051|290=1|269=1|270=1275|271=2620|282=058|290=1|269=5|270=1198.9|10=163|
20150520-12:57:47.437: 8=FIX.4.4|9=137|35=V|34=112|49=MKDATACL2|52=20150520-12:57:47.437|56=MKDATAFHBCS2|262=-3d058661fecdb98b|263=1|264=1|146=1|55=CCU|267=3|269=0|269=1|269=5|10=214|
20150520-12:57:47.439: 8=FIX.4.4|9=198|35=W|34=104|49=MKDATAFHBCS2|52=20150520-12:57:47.503|56=MKDATACL2|55=CENCOSUD|262=-45f46eafe690b716|268=3|269=0|270=1577|271=12500|282=082|290=1|269=1|270=1585|271=3646|282=035|290=1|269=5|270=1585|10=121|
20150520-12:57:47.439: 8=FIX.4.4|9=143|35=V|34=113|49=MKDATACL2|52=20150520-12:57:47.439|56=MKDATAFHBCS2|262=5627f282f812403a|263=1|264=1|146=1|55=CONCHATORO|267=3|269=0|269=1|269=5|10=245|
20150520-12:57:47.441: 8=FIX.4.4|9=139|35=V|34=114|49=MKDATACL2|52=20150520-12:57:47.440|56=MKDATAFHBCS2|262=-35f210adb704bee4|263=1|264=1|146=1|55=CHILE|267=3|269=0|269=1|269=5|10=073|
20150520-12:57:47.441: 8=FIX.4.4|9=198|35=W|34=105|49=MKDATAFHBCS2|52=20150520-12:57:47.503|56=MKDATACL2|55=ANDINA-B|262=60e047956bda4add|268=3|269=0|270=2120.1|271=1603|282=091|290=1|269=1|270=2140|271=4646|282=051|290=1|269=5|270=2120|10=063|
20150520-12:57:47.443: 8=FIX.4.4|9=196|35=W|34=106|49=MKDATAFHBCS2|52=20150520-12:57:47.503|56=MKDATACL2|55=CHILE|262=4859ca87839b4ce2|268=3|269=0|270=71.01|271=40000|282=058|290=1|269=1|270=71.39|271=113350|282=035|290=1|269=5|270=71|10=117|
20150520-12:57:47.444: 8=FIX.4.4|9=195|35=W|34=107|49=MKDATAFHBCS2|52=20150520-12:57:47.519|56=MKDATACL2|55=ANDINA-A|262=7ed4441d60ea41b8|268=3|269=0|270=1600|271=5000|282=020|290=1|269=1|270=1640|271=100|282=086|290=1|269=5|270=1640|10=119|
20150520-12:57:47.445: 8=FIX.4.4|9=141|35=V|34=115|49=MKDATACL2|52=20150520-12:57:47.445|56=MKDATAFHBCS2|262=-26771af68fb9b63a|263=1|264=1|146=1|55=ENERSIS|267=3|269=0|269=1|269=5|10=226|
20150520-12:57:47.446: 8=FIX.4.4|9=200|35=W|34=108|49=MKDATAFHBCS2|52=20150520-12:57:47.519|56=MKDATACL2|55=BSANTANDER|262=-432b7e728e27b139|268=3|269=0|270=33|271=56110|282=090|290=1|269=1|270=33.3|271=63621|282=090|290=1|269=5|270=32.99|10=138|
20150520-12:57:47.447: 8=FIX.4.4|9=194|35=W|34=109|49=MKDATAFHBCS2|52=20150520-12:57:47.519|56=MKDATACL2|55=SQM-B|262=7b76acc93e904280|268=3|269=0|270=12600|271=143|282=090|290=1|269=1|270=12700|271=824|282=086|290=1|269=5|270=12700|10=015|
20150520-12:57:47.449: 8=FIX.4.4|9=141|35=V|34=116|49=MKDATACL2|52=20150520-12:57:47.449|56=MKDATAFHBCS2|262=3b6054d7a1194307|263=1|264=1|146=1|55=ANDINA-B|267=3|269=0|269=1|269=5|10=027|
20150520-12:57:47.450: 8=FIX.4.4|9=204|35=W|34=110|49=MKDATAFHBCS2|52=20150520-12:57:47.519|56=MKDATACL2|55=CORPBANCA|262=-34f9643cc085b300|268=3|269=0|270=7.283|271=300000|282=090|290=1|269=1|270=7.436|271=70000|282=086|290=1|269=5|270=7.436|10=024|
20150520-12:57:47.450: 8=FIX.4.4|9=141|35=V|34=117|49=MKDATACL2|52=20150520-12:57:47.450|56=MKDATAFHBCS2|262=2a0c083bf5154f42|263=1|264=1|146=1|55=ANDINA-A|267=3|269=0|269=1|269=5|10=110|
20150520-12:57:47.451: 8=FIX.4.4|9=138|35=V|34=118|49=MKDATACL2|52=20150520-12:57:47.450|56=MKDATAFHBCS2|262=4615a23f7c6f46a1|263=1|264=1|146=1|55=SQM-B|267=3|269=0|269=1|269=5|10=198|
20150520-12:57:47.452: 8=FIX.4.4|9=136|35=V|34=119|49=MKDATACL2|52=20150520-12:57:47.451|56=MKDATAFHBCS2|262=42fc46c630f34347|263=1|264=1|146=1|55=LAN|267=3|269=0|269=1|269=5|10=019|
20150520-12:57:47.453: 8=FIX.4.4|9=199|35=W|34=111|49=MKDATAFHBCS2|52=20150520-12:57:47.519|56=MKDATACL2|55=BSANTANDER|262=-61e8e26b3fcb525|268=3|269=0|270=33|271=56110|282=090|290=1|269=1|270=33.3|271=63621|282=090|290=1|269=5|270=32.99|10=189|
20150520-12:57:47.454: 8=FIX.4.4|9=143|35=V|34=120|49=MKDATACL2|52=20150520-12:57:47.453|56=MKDATAFHBCS2|262=-7ea6994316cfb0cf|263=1|264=1|146=1|55=CORPBANCA|267=3|269=0|269=1|269=5|10=125|
20150520-12:57:47.456: 8=FIX.4.4|9=198|35=W|34=112|49=MKDATAFHBCS2|52=20150520-12:57:47.519|56=MKDATACL2|55=ENDESA|262=-2c5f7acdb851bf18|268=3|269=0|270=921.05|271=3000|282=090|290=1|269=1|270=931|271=1569|282=088|290=1|269=5|270=931.07|10=138|
20150520-12:57:47.458: 8=FIX.4.4|9=193|35=W|34=113|49=MKDATAFHBCS2|52=20150520-12:57:47.534|56=MKDATACL2|55=CCU|262=-3d058661fecdb98b|268=3|269=0|270=6662|271=1700|282=072|290=1|269=1|270=7000|271=683|282=035|290=1|269=5|270=6881.7|10=040|
20150520-12:57:47.461: 8=FIX.4.4|9=199|35=W|34=114|49=MKDATAFHBCS2|52=20150520-12:57:47.534|56=MKDATACL2|55=CONCHATORO|262=5627f282f812403a|268=3|269=0|270=1199|271=830|282=051|290=1|269=1|270=1275|271=2620|282=058|290=1|269=5|270=1198.9|10=082|
20150520-12:57:47.463: 8=FIX.4.4|9=197|35=W|34=115|49=MKDATAFHBCS2|52=20150520-12:57:47.534|56=MKDATACL2|55=CHILE|262=-35f210adb704bee4|268=3|269=0|270=71.01|271=40000|282=058|290=1|269=1|270=71.39|271=113350|282=035|290=1|269=5|270=71|10=233|
20150520-12:57:47.464: 8=FIX.4.4|9=198|35=W|34=116|49=MKDATAFHBCS2|52=20150520-12:57:47.534|56=MKDATACL2|55=ENERSIS|262=-26771af68fb9b63a|268=3|269=0|270=213.1|271=37942|282=090|290=1|269=1|270=214|271=2370|282=090|290=1|269=5|270=213.1|10=086|
20150520-12:57:47.466: 8=FIX.4.4|9=198|35=W|34=117|49=MKDATAFHBCS2|52=20150520-12:57:47.534|56=MKDATACL2|55=ANDINA-B|262=3b6054d7a1194307|268=3|269=0|270=2120.1|271=1603|282=091|290=1|269=1|270=2140|271=4646|282=051|290=1|269=5|270=2120|10=129|
20150520-12:57:47.467: 8=FIX.4.4|9=195|35=W|34=118|49=MKDATAFHBCS2|52=20150520-12:57:47.534|56=MKDATACL2|55=ANDINA-A|262=2a0c083bf5154f42|268=3|269=0|270=1600|271=5000|282=020|290=1|269=1|270=1640|271=100|282=086|290=1|269=5|270=1640|10=062|
20150520-12:57:47.479: 8=FIX.4.4|9=194|35=W|34=119|49=MKDATAFHBCS2|52=20150520-12:57:47.550|56=MKDATACL2|55=SQM-B|262=4615a23f7c6f46a1|268=3|269=0|270=12600|271=143|282=090|290=1|269=1|270=12700|271=824|282=086|290=1|269=5|270=12700|10=004|
20150520-12:57:47.482: 8=FIX.4.4|9=190|35=W|34=120|49=MKDATAFHBCS2|52=20150520-12:57:47.550|56=MKDATACL2|55=LAN|262=42fc46c630f34347|268=3|269=0|270=5420|271=2500|282=051|290=1|269=1|270=5475|271=362|282=082|290=1|269=5|270=5450|10=235|
20150520-12:57:47.483: 8=FIX.4.4|9=204|35=W|34=121|49=MKDATAFHBCS2|52=20150520-12:57:47.550|56=MKDATACL2|55=CORPBANCA|262=-7ea6994316cfb0cf|268=3|269=0|270=7.283|271=300000|282=090|290=1|269=1|270=7.436|271=70000|282=086|290=1|269=5|270=7.436|10=177|
20150520-12:57:51.925: 8=FIX.4.4|9=143|35=X|34=122|49=MKDATAFHBCS2|52=20150520-12:57:52.001|56=MKDATACL2|262=-9080a4306aab35b|268=1|279=0|269=0|55=LAN|270=5450|271=400|282=088|290=1|10=123|
20150520-12:57:51.926: 8=FIX.4.4|9=143|35=X|34=123|49=MKDATAFHBCS2|52=20150520-12:57:52.001|56=MKDATACL2|262=42fc46c630f34347|268=1|279=0|269=0|55=LAN|270=5450|271=400|282=088|290=1|10=098|
20150520-12:58:30.012: 8=FIX.4.4|9=154|35=X|34=124|49=MKDATAFHBCS2|52=20150520-12:58:30.124|56=MKDATACL2|262=-7ea6994316cfb0cf|268=1|279=0|269=0|55=CORPBANCA|270=7.285|271=479296|282=062|290=1|10=185|
20150520-12:58:30.012: 8=FIX.4.4|9=154|35=X|34=125|49=MKDATAFHBCS2|52=20150520-12:58:30.124|56=MKDATACL2|262=-34f9643cc085b300|268=1|279=0|269=0|55=CORPBANCA|270=7.285|271=479296|282=062|290=1|10=030|
20150520-12:58:48.041: 8=FIX.4.4|9=66|35=0|34=121|49=MKDATACL2|52=20150520-12:58:48.041|56=MKDATAFHBCS2|10=248|
20150520-12:58:54.029: 8=FIX.4.4|9=127|35=X|34=126|49=MKDATAFHBCS2|52=20150520-12:58:54.163|56=MKDATACL2|262=-9080a4306aab35b|268=1|279=1|269=5|55=LAN|270=5450|290=1|10=173|
20150520-12:58:54.029: 8=FIX.4.4|9=127|35=X|34=127|49=MKDATAFHBCS2|52=20150520-12:58:54.163|56=MKDATACL2|262=42fc46c630f34347|268=1|279=1|269=5|55=LAN|270=5450|290=1|10=148|
20150520-12:58:54.038: 8=FIX.4.4|9=143|35=X|34=128|49=MKDATAFHBCS2|52=20150520-12:58:54.163|56=MKDATACL2|262=-9080a4306aab35b|268=1|279=2|269=0|55=LAN|270=5450|271=400|282=088|290=1|10=143|
20150520-12:58:54.038: 8=FIX.4.4|9=143|35=X|34=129|49=MKDATAFHBCS2|52=20150520-12:58:54.163|56=MKDATACL2|262=42fc46c630f34347|268=1|279=2|269=0|55=LAN|270=5450|271=400|282=088|290=1|10=118|
20150520-12:59:00.029: 8=FIX.4.4|9=127|35=X|34=130|49=MKDATAFHBCS2|52=20150520-12:59:00.157|56=MKDATACL2|262=-9080a4306aab35b|268=1|279=1|269=5|55=LAN|270=5475|290=1|10=170|
20150520-12:59:00.029: 8=FIX.4.4|9=127|35=X|34=131|49=MKDATAFHBCS2|52=20150520-12:59:00.157|56=MKDATACL2|262=42fc46c630f34347|268=1|279=1|269=5|55=LAN|270=5475|290=1|10=145|
20150520-12:59:00.030: 8=FIX.4.4|9=143|35=X|34=132|49=MKDATAFHBCS2|52=20150520-12:59:00.173|56=MKDATACL2|262=-9080a4306aab35b|268=1|279=1|269=1|55=LAN|270=5475|271=262|282=082|290=1|10=138|
20150520-12:59:00.031: 8=FIX.4.4|9=143|35=X|34=133|49=MKDATAFHBCS2|52=20150520-12:59:00.173|56=MKDATACL2|262=42fc46c630f34347|268=1|279=1|269=1|55=LAN|270=5475|271=262|282=082|290=1|10=113|
20150520-12:59:01.037: 8=FIX.4.4|9=143|35=X|34=134|49=MKDATAFHBCS2|52=20150520-12:59:01.172|56=MKDATACL2|262=-9080a4306aab35b|268=1|279=0|269=0|55=LAN|270=5450|271=920|282=086|290=1|10=136|
20150520-12:59:01.037: 8=FIX.4.4|9=143|35=X|34=135|49=MKDATAFHBCS2|52=20150520-12:59:01.172|56=MKDATACL2|262=42fc46c630f34347|268=1|279=0|269=0|55=LAN|270=5450|271=920|282=086|290=1|10=111|
20150520-12:59:05.067: 8=FIX.4.4|9=151|35=X|34=136|49=MKDATAFHBCS2|52=20150520-12:59:05.199|56=MKDATACL2|262=13b826857d5943ae|268=1|279=0|269=0|55=CENCOSUD|270=1577.1|271=5660|282=035|290=1|10=147|
20150520-12:59:05.067: 8=FIX.4.4|9=152|35=X|34=137|49=MKDATAFHBCS2|52=20150520-12:59:05.199|56=MKDATACL2|262=-45f46eafe690b716|268=1|279=0|269=0|55=CENCOSUD|270=1577.1|271=5660|282=035|290=1|10=034|
20150520-12:59:48.041: 8=FIX.4.4|9=66|35=0|34=122|49=MKDATACL2|52=20150520-12:59:48.041|56=MKDATAFHBCS2|10=250|
20150520-13:00:05.768: 8=FIX.4.4|9=66|35=0|34=138|49=MKDATAFHBCS2|52=20150520-13:00:05.939|56=MKDATACL2|10=253|
20150520-13:00:48.042: 8=FIX.4.4|9=66|35=0|34=123|49=MKDATACL2|52=20150520-13:00:48.041|56=MKDATAFHBCS2|10=238|
20150520-13:01:05.765: 8=FIX.4.4|9=66|35=0|34=139|49=MKDATAFHBCS2|52=20150520-13:01:05.948|56=MKDATACL2|10=255|
20150520-13:01:18.053: 8=FIX.4.4|9=136|35=V|34=124|49=MKDATACL2|52=20150520-13:01:18.052|56=MKDATAFHBCS2|262=62b8848ff7fb4c74|263=2|264=1|146=1|55=CCU|267=3|269=0|269=1|269=5|10=116|
20150520-13:01:18.058: 8=FIX.4.4|9=141|35=V|34=125|49=MKDATACL2|52=20150520-13:01:18.058|56=MKDATAFHBCS2|262=-1b2144149897b7ab|263=2|264=1|146=1|55=ENERSIS|267=3|269=0|269=1|269=5|10=111|
20150520-13:01:18.060: 8=FIX.4.4|9=136|35=V|34=126|49=MKDATACL2|52=20150520-13:01:18.060|56=MKDATAFHBCS2|262=-9080a4306aab35b|263=2|264=1|146=1|55=LAN|267=3|269=0|269=1|269=5|10=028|
20150520-13:01:18.064: 8=FIX.4.4|9=141|35=V|34=127|49=MKDATACL2|52=20150520-13:01:18.064|56=MKDATAFHBCS2|262=13b826857d5943ae|263=2|264=1|146=1|55=CENCOSUD|267=3|269=0|269=1|269=5|10=133|
20150520-13:01:18.067: 8=FIX.4.4|9=140|35=V|34=128|49=MKDATACL2|52=20150520-13:01:18.066|56=MKDATAFHBCS2|262=-26e0c1f050aab366|263=2|264=1|146=1|55=ENDESA|267=3|269=0|269=1|269=5|10=086|
20150520-13:01:18.068: 8=FIX.4.4|9=144|35=V|34=129|49=MKDATACL2|52=20150520-13:01:18.067|56=MKDATAFHBCS2|262=-673589bc841fb712|263=2|264=1|146=1|55=CONCHATORO|267=3|269=0|269=1|269=5|10=087|
20150520-13:01:18.069: 8=FIX.4.4|9=142|35=V|34=130|49=MKDATACL2|52=20150520-13:01:18.069|56=MKDATAFHBCS2|262=-45f46eafe690b716|263=2|264=1|146=1|55=CENCOSUD|267=3|269=0|269=1|269=5|10=018|
20150520-13:01:18.071: 8=FIX.4.4|9=141|35=V|34=131|49=MKDATACL2|52=20150520-13:01:18.071|56=MKDATAFHBCS2|262=60e047956bda4add|263=2|264=1|146=1|55=ANDINA-B|267=3|269=0|269=1|269=5|10=201|
20150520-13:01:18.090: 8=FIX.4.4|9=138|35=V|34=132|49=MKDATACL2|52=20150520-13:01:18.090|56=MKDATAFHBCS2|262=4859ca87839b4ce2|263=2|264=1|146=1|55=CHILE|267=3|269=0|269=1|269=5|10=207|
20150520-13:01:18.093: 8=FIX.4.4|9=141|35=V|34=133|49=MKDATACL2|52=20150520-13:01:18.092|56=MKDATAFHBCS2|262=7ed4441d60ea41b8|263=2|264=1|146=1|55=ANDINA-A|267=3|269=0|269=1|269=5|10=155|
20150520-13:01:18.094: 8=FIX.4.4|9=144|35=V|34=134|49=MKDATACL2|52=20150520-13:01:18.094|56=MKDATAFHBCS2|262=-432b7e728e27b139|263=2|264=1|146=1|55=BSANTANDER|267=3|269=0|269=1|269=5|10=064|
20150520-13:01:18.096: 8=FIX.4.4|9=138|35=V|34=135|49=MKDATACL2|52=20150520-13:01:18.096|56=MKDATAFHBCS2|262=7b76acc93e904280|263=2|264=1|146=1|55=SQM-B|267=3|269=0|269=1|269=5|10=199|
20150520-13:01:18.097: 8=FIX.4.4|9=143|35=V|34=136|49=MKDATACL2|52=20150520-13:01:18.097|56=MKDATAFHBCS2|262=-34f9643cc085b300|263=2|264=1|146=1|55=CORPBANCA|267=3|269=0|269=1|269=5|10=225|
20150520-13:01:18.098: 8=FIX.4.4|9=143|35=V|34=137|49=MKDATACL2|52=20150520-13:01:18.098|56=MKDATAFHBCS2|262=-61e8e26b3fcb525|263=2|264=1|146=1|55=BSANTANDER|267=3|269=0|269=1|269=5|10=110|
20150520-13:01:18.100: 8=FIX.4.4|9=140|35=V|34=138|49=MKDATACL2|52=20150520-13:01:18.100|56=MKDATAFHBCS2|262=-2c5f7acdb851bf18|263=2|264=1|146=1|55=ENDESA|267=3|269=0|269=1|269=5|10=189|
20150520-13:01:18.104: 8=FIX.4.4|9=137|35=V|34=139|49=MKDATACL2|52=20150520-13:01:18.104|56=MKDATAFHBCS2|262=-3d058661fecdb98b|263=2|264=1|146=1|55=CCU|267=3|269=0|269=1|269=5|10=203|
20150520-13:01:18.106: 8=FIX.4.4|9=143|35=V|34=140|49=MKDATACL2|52=20150520-13:01:18.105|56=MKDATAFHBCS2|262=5627f282f812403a|263=2|264=1|146=1|55=CONCHATORO|267=3|269=0|269=1|269=5|10=224|
20150520-13:01:18.107: 8=FIX.4.4|9=139|35=V|34=141|49=MKDATACL2|52=20150520-13:01:18.107|56=MKDATAFHBCS2|262=-35f210adb704bee4|263=2|264=1|146=1|55=CHILE|267=3|269=0|269=1|269=5|10=062|
20150520-13:01:18.108: 8=FIX.4.4|9=141|35=V|34=142|49=MKDATACL2|52=20150520-13:01:18.108|56=MKDATAFHBCS2|262=-26771af68fb9b63a|263=2|264=1|146=1|55=ENERSIS|267=3|269=0|269=1|269=5|10=211|
20150520-13:01:18.109: 8=FIX.4.4|9=141|35=V|34=143|49=MKDATACL2|52=20150520-13:01:18.109|56=MKDATAFHBCS2|262=3b6054d7a1194307|263=2|264=1|146=1|55=ANDINA-B|267=3|269=0|269=1|269=5|10=009|
20150520-13:01:18.110: 8=FIX.4.4|9=141|35=V|34=144|49=MKDATACL2|52=20150520-13:01:18.110|56=MKDATAFHBCS2|262=2a0c083bf5154f42|263=2|264=1|146=1|55=ANDINA-A|267=3|269=0|269=1|269=5|10=092|
20150520-13:01:18.113: 8=FIX.4.4|9=138|35=V|34=145|49=MKDATACL2|52=20150520-13:01:18.113|56=MKDATAFHBCS2|262=4615a23f7c6f46a1|263=2|264=1|146=1|55=SQM-B|267=3|269=0|269=1|269=5|10=183|
20150520-13:01:18.115: 8=FIX.4.4|9=136|35=V|34=146|49=MKDATACL2|52=20150520-13:01:18.114|56=MKDATAFHBCS2|262=42fc46c630f34347|263=2|264=1|146=1|55=LAN|267=3|269=0|269=1|269=5|10=004|
20150520-13:01:18.116: 8=FIX.4.4|9=143|35=V|34=147|49=MKDATACL2|52=20150520-13:01:18.116|56=MKDATAFHBCS2|262=-7ea6994316cfb0cf|263=2|264=1|146=1|55=CORPBANCA|267=3|269=0|269=1|269=5|10=119|
20150520-13:01:32.737: 8=FIX.4.4|9=137|35=V|34=148|49=MKDATACL2|52=20150520-13:01:32.737|56=MKDATAFHBCS2|262=-63cb0651053bb43a|263=1|264=1|146=1|55=CCU|267=3|269=0|269=1|269=5|10=088|
20150520-13:01:32.739: 8=FIX.4.4|9=139|35=V|34=149|49=MKDATACL2|52=20150520-13:01:32.738|56=MKDATAFHBCS2|262=a4222fd22c74fc2|263=1|264=1|146=1|55=ENERSIS|267=3|269=0|269=1|269=5|10=113|
20150520-13:01:32.741: 8=FIX.4.4|9=193|35=W|34=140|49=MKDATAFHBCS2|52=20150520-13:01:32.923|56=MKDATACL2|55=CCU|262=-63cb0651053bb43a|268=3|269=0|270=6662|271=1700|282=072|290=1|269=1|270=7000|271=683|282=035|290=1|269=5|270=6881.7|10=160|
20150520-13:01:32.743: 8=FIX.4.4|9=196|35=W|34=141|49=MKDATAFHBCS2|52=20150520-13:01:32.923|56=MKDATACL2|55=ENERSIS|262=a4222fd22c74fc2|268=3|269=0|270=213.1|271=37942|282=090|290=1|269=1|270=214|271=2370|282=090|290=1|269=5|270=213.1|10=208|
20150520-13:01:32.745: 8=FIX.4.4|9=136|35=V|34=150|49=MKDATACL2|52=20150520-13:01:32.745|56=MKDATAFHBCS2|262=6fe3aa1021434aa0|263=1|264=1|146=1|55=LAN|267=3|269=0|269=1|269=5|10=075|
20150520-13:01:32.748: 8=FIX.4.4|9=141|35=V|34=151|49=MKDATACL2|52=20150520-13:01:32.748|56=MKDATAFHBCS2|262=40fe63cdf8f64e19|263=1|264=1|146=1|55=CENCOSUD|267=3|269=0|269=1|269=5|10=025|
20150520-13:01:32.749: 8=FIX.4.4|9=189|35=W|34=142|49=MKDATAFHBCS2|52=20150520-13:01:32.923|56=MKDATACL2|55=LAN|262=6fe3aa1021434aa0|268=3|269=0|270=5450|271=920|282=086|290=1|269=1|270=5475|271=262|282=082|290=1|269=5|270=5475|10=023|
20150520-13:01:32.750: 8=FIX.4.4|9=140|35=V|34=152|49=MKDATACL2|52=20150520-13:01:32.750|56=MKDATAFHBCS2|262=-187bdefe15f5be29|263=1|264=1|146=1|55=ENDESA|267=3|269=0|269=1|269=5|10=200|
20150520-13:01:32.751: 8=FIX.4.4|9=198|35=W|34=143|49=MKDATAFHBCS2|52=20150520-13:01:32.923|56=MKDATACL2|55=CENCOSUD|262=40fe63cdf8f64e19|268=3|269=0|270=1577.1|271=5660|282=035|290=1|269=1|270=1585|271=3646|282=035|290=1|269=5|270=1585|10=174|
20150520-13:01:32.754: 8=FIX.4.4|9=198|35=W|34=144|49=MKDATAFHBCS2|52=20150520-13:01:32.938|56=MKDATACL2|55=ENDESA|262=-187bdefe15f5be29|268=3|269=0|270=921.05|271=3000|282=090|290=1|269=1|270=931|271=1569|282=088|290=1|269=5|270=931.07|10=141|
20150520-13:01:32.762: 8=FIX.4.4|9=144|35=V|34=153|49=MKDATACL2|52=20150520-13:01:32.761|56=MKDATAFHBCS2|262=-2c3e6196e97abfc5|263=1|264=1|146=1|55=CONCHATORO|267=3|269=0|269=1|269=5|10=223|
20150520-13:01:32.764: 8=FIX.4.4|9=142|35=V|34=154|49=MKDATACL2|52=20150520-13:01:32.763|56=MKDATAFHBCS2|262=-3bf58d3fcf65bcc9|263=1|264=1|146=1|55=CENCOSUD|267=3|269=0|269=1|269=5|10=165|
20150520-13:01:32.765: 8=FIX.4.4|9=200|35=W|34=145|49=MKDATAFHBCS2|52=20150520-13:01:32.938|56=MKDATACL2|55=CONCHATORO|262=-2c3e6196e97abfc5|268=3|269=0|270=1199|271=830|282=051|290=1|269=1|270=1275|271=2620|282=058|290=1|269=5|270=1198.9|10=052|
20150520-13:01:32.765: 8=FIX.4.4|9=142|35=V|34=155|49=MKDATACL2|52=20150520-13:01:32.764|56=MKDATAFHBCS2|262=-1c0eb3f108b1b6aa|263=1|264=1|146=1|55=ANDINA-B|267=3|269=0|269=1|269=5|10=029|
20150520-13:01:32.768: 8=FIX.4.4|9=199|35=W|34=146|49=MKDATAFHBCS2|52=20150520-13:01:32.954|56=MKDATACL2|55=CENCOSUD|262=-3bf58d3fcf65bcc9|268=3|269=0|270=1577.1|271=5660|282=035|290=1|269=1|270=1585|271=3646|282=035|290=1|269=5|270=1585|10=065|
20150520-13:01:32.768: 8=FIX.4.4|9=139|35=V|34=156|49=MKDATACL2|52=20150520-13:01:32.768|56=MKDATAFHBCS2|262=-44e4b51f10b7b04d|263=1|264=1|146=1|55=CHILE|267=3|269=0|269=1|269=5|10=028|
20150520-13:01:32.770: 8=FIX.4.4|9=141|35=V|34=157|49=MKDATACL2|52=20150520-13:01:32.769|56=MKDATAFHBCS2|262=7a87cd99576a446e|263=1|264=1|146=1|55=ANDINA-A|267=3|269=0|269=1|269=5|10=145|
20150520-13:01:32.771: 8=FIX.4.4|9=143|35=V|34=158|49=MKDATACL2|52=20150520-13:01:32.771|56=MKDATAFHBCS2|262=25fe90f8aeaa4f39|263=1|264=1|146=1|55=BSANTANDER|267=3|269=0|269=1|269=5|10=215|
20150520-13:01:32.773: 8=FIX.4.4|9=138|35=V|34=159|49=MKDATACL2|52=20150520-13:01:32.772|56=MKDATAFHBCS2|262=7dc1eec2554648f7|263=1|264=1|146=1|55=SQM-B|267=3|269=0|269=1|269=5|10=255|
20150520-13:01:32.773: 8=FIX.4.4|9=199|35=W|34=147|49=MKDATAFHBCS2|52=20150520-13:01:32.954|56=MKDATACL2|55=ANDINA-B|262=-1c0eb3f108b1b6aa|268=3|269=0|270=2120.1|271=1603|282=091|290=1|269=1|270=2140|271=4646|282=051|290=1|269=5|270=2120|10=137|
20150520-13:01:32.774: 8=FIX.4.4|9=142|35=V|34=160|49=MKDATACL2|52=20150520-13:01:32.774|56=MKDATAFHBCS2|262=36364afec7684df9|263=1|264=1|146=1|55=CORPBANCA|267=3|269=0|269=1|269=5|10=035|
20150520-13:01:32.778: 8=FIX.4.4|9=144|35=V|34=161|49=MKDATACL2|52=20150520-13:01:32.778|56=MKDATAFHBCS2|262=-771efa71a3c8b38c|263=1|264=1|146=1|55=BSANTANDER|267=3|269=0|269=1|269=5|10=209|
20150520-13:01:32.780: 8=FIX.4.4|9=140|35=V|34=162|49=MKDATACL2|52=20150520-13:01:32.780|56=MKDATAFHBCS2|262=-4ef7a864f012b924|263=1|264=1|146=1|55=ENDESA|267=3|269=0|269=1|269=5|10=054|
20150520-13:01:32.781: 8=FIX.4.4|9=136|35=V|34=163|49=MKDATACL2|52=20150520-13:01:32.781|56=MKDATAFHBCS2|262=3475d362cbbc4fc7|263=1|264=1|146=1|55=CCU|267=3|269=0|269=1|269=5|10=152|
20150520-13:01:32.782: 8=FIX.4.4|9=143|35=V|34=164|49=MKDATACL2|52=20150520-13:01:32.782|56=MKDATAFHBCS2|262=52e35982f8f74baa|263=1|264=1|146=1|55=CONCHATORO|267=3|269=0|269=1|269=5|10=135|
20150520-13:01:32.783: 8=FIX.4.4|9=139|35=V|34=165|49=MKDATACL2|52=20150520-13:01:32.783|56=MKDATAFHBCS2|262=-620495bdb81fb943|263=1|264=1|146=1|55=CHILE|267=3|269=0|269=1|269=5|10=249|
20150520-13:01:32.784: 8=FIX.4.4|9=141|35=V|34=166|49=MKDATACL2|52=20150520-13:01:32.783|56=MKDATAFHBCS2|262=-3661dcda716ebf05|263=1|264=1|146=1|55=ENERSIS|267=3|269=0|269=1|269=5|10=000|
20150520-13:01:32.784: 8=FIX.4.4|9=141|35=V|34=167|49=MKDATACL2|52=20150520-13:01:32.784|56=MKDATAFHBCS2|262=3da67ebcc4664d50|263=1|264=1|146=1|55=ANDINA-B|267=3|269=0|269=1|269=5|10=217|
20150520-13:01:32.785: 8=FIX.4.4|9=197|35=W|34=148|49=MKDATAFHBCS2|52=20150520-13:01:32.969|56=MKDATACL2|55=CHILE|262=-44e4b51f10b7b04d|268=3|269=0|270=71.01|271=40000|282=058|290=1|269=1|270=71.39|271=113350|282=035|290=1|269=5|270=71|10=187|
20150520-13:01:32.786: 8=FIX.4.4|9=142|35=V|34=168|49=MKDATACL2|52=20150520-13:01:32.785|56=MKDATAFHBCS2|262=-5ef155530cbab1c9|263=1|264=1|146=1|55=ANDINA-A|267=3|269=0|269=1|269=5|10=001|
20150520-13:01:32.792: 8=FIX.4.4|9=195|35=W|34=149|49=MKDATAFHBCS2|52=20150520-13:01:32.969|56=MKDATACL2|55=ANDINA-A|262=7a87cd99576a446e|268=3|269=0|270=1600|271=5000|282=020|290=1|269=1|270=1640|271=100|282=086|290=1|269=5|270=1640|10=096|
20150520-13:01:32.794: 8=FIX.4.4|9=199|35=W|34=150|49=MKDATAFHBCS2|52=20150520-13:01:32.969|56=MKDATACL2|55=BSANTANDER|262=25fe90f8aeaa4f39|268=3|269=0|270=33|271=56110|282=090|290=1|269=1|270=33.3|271=63621|282=090|290=1|269=5|270=32.99|10=038|
20150520-13:01:32.797: 8=FIX.4.4|9=194|35=W|34=151|49=MKDATAFHBCS2|52=20150520-13:01:32.969|56=MKDATACL2|55=SQM-B|262=7dc1eec2554648f7|268=3|269=0|270=12600|271=143|282=090|290=1|269=1|270=12700|271=824|282=086|290=1|269=5|270=12700|10=059|
20150520-13:01:32.798: 8=FIX.4.4|9=203|35=W|34=152|49=MKDATAFHBCS2|52=20150520-13:01:32.969|56=MKDATACL2|55=CORPBANCA|262=36364afec7684df9|268=3|269=0|270=7.285|271=479296|282=062|290=1|269=1|270=7.436|271=70000|282=086|290=1|269=5|270=7.436|10=130|
20150520-13:01:32.798: 8=FIX.4.4|9=138|35=V|34=169|49=MKDATACL2|52=20150520-13:01:32.798|56=MKDATAFHBCS2|262=229b79888f764b3b|263=1|264=1|146=1|55=SQM-B|267=3|269=0|269=1|269=5|10=178|
20150520-13:01:32.799: 8=FIX.4.4|9=136|35=V|34=170|49=MKDATACL2|52=20150520-13:01:32.799|56=MKDATAFHBCS2|262=2a08f0d6d59243f2|263=1|264=1|146=1|55=LAN|267=3|269=0|269=1|269=5|10=061|
20150520-13:01:32.800: 8=FIX.4.4|9=143|35=V|34=171|49=MKDATACL2|52=20150520-13:01:32.800|56=MKDATAFHBCS2|262=-20c19c0e616eb2d6|263=1|264=1|146=1|55=CORPBANCA|267=3|269=0|269=1|269=5|10=047|
20150520-13:01:32.802: 8=FIX.4.4|9=200|35=W|34=153|49=MKDATAFHBCS2|52=20150520-13:01:32.985|56=MKDATACL2|55=BSANTANDER|262=-771efa71a3c8b38c|268=3|269=0|270=33|271=56110|282=090|290=1|269=1|270=33.3|271=63621|282=090|290=1|269=5|270=32.99|10=014|
20150520-13:01:32.803: 8=FIX.4.4|9=198|35=W|34=154|49=MKDATAFHBCS2|52=20150520-13:01:32.985|56=MKDATACL2|55=ENDESA|262=-4ef7a864f012b924|268=3|269=0|270=921.05|271=3000|282=090|290=1|269=1|270=931|271=1569|282=088|290=1|269=5|270=931.07|10=250|
20150520-13:01:32.806: 8=FIX.4.4|9=192|35=W|34=155|49=MKDATAFHBCS2|52=20150520-13:01:32.985|56=MKDATACL2|55=CCU|262=3475d362cbbc4fc7|268=3|269=0|270=6662|271=1700|282=072|290=1|269=1|270=7000|271=683|282=035|290=1|269=5|270=6881.7|10=242|
20150520-13:01:32.807: 8=FIX.4.4|9=199|35=W|34=156|49=MKDATAFHBCS2|52=20150520-13:01:32.985|56=MKDATACL2|55=CONCHATORO|262=52e35982f8f74baa|268=3|269=0|270=1199|271=830|282=051|290=1|269=1|270=1275|271=2620|282=058|290=1|269=5|270=1198.9|10=237|
20150520-13:01:32.808: 8=FIX.4.4|9=197|35=W|34=157|49=MKDATAFHBCS2|52=20150520-13:01:32.985|56=MKDATACL2|55=CHILE|262=-620495bdb81fb943|268=3|269=0|270=71.01|271=40000|282=058|290=1|269=1|270=71.39|271=113350|282=035|290=1|269=5|270=71|10=153|
20150520-13:01:32.810: 8=FIX.4.4|9=198|35=W|34=158|49=MKDATAFHBCS2|52=20150520-13:01:32.985|56=MKDATACL2|55=ENERSIS|262=-3661dcda716ebf05|268=3|269=0|270=213.1|271=37942|282=090|290=1|269=1|270=214|271=2370|282=090|290=1|269=5|270=213.1|10=121|
20150520-13:01:32.817: 8=FIX.4.4|9=198|35=W|34=159|49=MKDATAFHBCS2|52=20150520-13:01:32.985|56=MKDATACL2|55=ANDINA-B|262=3da67ebcc4664d50|268=3|269=0|270=2120.1|271=1603|282=091|290=1|269=1|270=2140|271=4646|282=051|290=1|269=5|270=2120|10=071|
20150520-13:01:32.817: 8=FIX.4.4|9=196|35=W|34=160|49=MKDATAFHBCS2|52=20150520-13:01:32.985|56=MKDATACL2|55=ANDINA-A|262=-5ef155530cbab1c9|268=3|269=0|270=1600|271=5000|282=020|290=1|269=1|270=1640|271=100|282=086|290=1|269=5|270=1640|10=199|
20150520-13:01:32.817: 8=FIX.4.4|9=194|35=W|34=161|49=MKDATAFHBCS2|52=20150520-13:01:32.985|56=MKDATACL2|55=SQM-B|262=229b79888f764b3b|268=3|269=0|270=12600|271=143|282=090|290=1|269=1|270=12700|271=824|282=086|290=1|269=5|270=12700|10=228|
20150520-13:01:32.817: 8=FIX.4.4|9=189|35=W|34=162|49=MKDATAFHBCS2|52=20150520-13:01:33.000|56=MKDATACL2|55=LAN|262=2a08f0d6d59243f2|268=3|269=0|270=5450|271=920|282=086|290=1|269=1|270=5475|271=262|282=082|290=1|269=5|270=5475|10=243|
20150520-13:01:32.818: 8=FIX.4.4|9=204|35=W|34=163|49=MKDATAFHBCS2|52=20150520-13:01:33.000|56=MKDATACL2|55=CORPBANCA|262=-20c19c0e616eb2d6|268=3|269=0|270=7.285|271=479296|282=062|290=1|269=1|270=7.436|271=70000|282=086|290=1|269=5|270=7.436|10=129|
20150520-13:01:35.987: 8=FIX.4.4|9=137|35=V|34=172|49=MKDATACL2|52=20150520-13:01:35.987|56=MKDATAFHBCS2|262=-63cb0651053bb43a|263=2|264=1|146=1|55=CCU|267=3|269=0|269=1|269=5|10=096|
20150520-13:01:35.989: 8=FIX.4.4|9=139|35=V|34=173|49=MKDATACL2|52=20150520-13:01:35.989|56=MKDATAFHBCS2|262=a4222fd22c74fc2|263=2|264=1|146=1|55=ENERSIS|267=3|269=0|269=1|269=5|10=122|
20150520-13:01:35.990: 8=FIX.4.4|9=136|35=V|34=174|49=MKDATACL2|52=20150520-13:01:35.990|56=MKDATAFHBCS2|262=6fe3aa1021434aa0|263=2|264=1|146=1|55=LAN|267=3|269=0|269=1|269=5|10=087|
20150520-13:01:35.992: 8=FIX.4.4|9=141|35=V|34=175|49=MKDATACL2|52=20150520-13:01:35.992|56=MKDATAFHBCS2|262=40fe63cdf8f64e19|263=2|264=1|146=1|55=CENCOSUD|267=3|269=0|269=1|269=5|10=036|
20150520-13:01:35.993: 8=FIX.4.4|9=140|35=V|34=176|49=MKDATACL2|52=20150520-13:01:35.993|56=MKDATAFHBCS2|262=-187bdefe15f5be29|263=2|264=1|146=1|55=ENDESA|267=3|269=0|269=1|269=5|10=219|
20150520-13:01:35.995: 8=FIX.4.4|9=144|35=V|34=177|49=MKDATACL2|52=20150520-13:01:35.994|56=MKDATAFHBCS2|262=-2c3e6196e97abfc5|263=2|264=1|146=1|55=CONCHATORO|267=3|269=0|269=1|269=5|10=241|
20150520-13:01:35.998: 8=FIX.4.4|9=142|35=V|34=178|49=MKDATACL2|52=20150520-13:01:35.997|56=MKDATAFHBCS2|262=-3bf58d3fcf65bcc9|263=2|264=1|146=1|55=CENCOSUD|267=3|269=0|269=1|269=5|10=184|
20150520-13:01:35.999: 8=FIX.4.4|9=142|35=V|34=179|49=MKDATACL2|52=20150520-13:01:35.999|56=MKDATAFHBCS2|262=-1c0eb3f108b1b6aa|263=2|264=1|146=1|55=ANDINA-B|267=3|269=0|269=1|269=5|10=049|
20150520-13:01:36.001: 8=FIX.4.4|9=139|35=V|34=180|49=MKDATACL2|52=20150520-13:01:36.001|56=MKDATAFHBCS2|262=-44e4b51f10b7b04d|263=2|264=1|146=1|55=CHILE|267=3|269=0|269=1|269=5|10=010|
20150520-13:01:36.003: 8=FIX.4.4|9=141|35=V|34=181|49=MKDATACL2|52=20150520-13:01:36.003|56=MKDATAFHBCS2|262=7a87cd99576a446e|263=2|264=1|146=1|55=ANDINA-A|267=3|269=0|269=1|269=5|10=128|
20150520-13:01:36.005: 8=FIX.4.4|9=143|35=V|34=182|49=MKDATACL2|52=20150520-13:01:36.004|56=MKDATAFHBCS2|262=25fe90f8aeaa4f39|263=2|264=1|146=1|55=BSANTANDER|267=3|269=0|269=1|269=5|10=206|
20150520-13:01:36.005: 8=FIX.4.4|9=138|35=V|34=183|49=MKDATACL2|52=20150520-13:01:36.005|56=MKDATAFHBCS2|262=7dc1eec2554648f7|263=2|264=1|146=1|55=SQM-B|267=3|269=0|269=1|269=5|10=246|
20150520-13:01:36.006: 8=FIX.4.4|9=142|35=V|34=184|49=MKDATACL2|52=20150520-13:01:36.006|56=MKDATAFHBCS2|262=36364afec7684df9|263=2|264=1|146=1|55=CORPBANCA|267=3|269=0|269=1|269=5|10=034|
20150520-13:01:36.008: 8=FIX.4.4|9=144|35=V|34=185|49=MKDATACL2|52=20150520-13:01:36.007|56=MKDATAFHBCS2|262=-771efa71a3c8b38c|263=2|264=1|146=1|55=BSANTANDER|267=3|269=0|269=1|269=5|10=205|
20150520-13:01:36.009: 8=FIX.4.4|9=140|35=V|34=186|49=MKDATACL2|52=20150520-13:01:36.009|56=MKDATAFHBCS2|262=-4ef7a864f012b924|263=2|264=1|146=1|55=ENDESA|267=3|269=0|269=1|269=5|10=059|
20150520-13:01:36.012: 8=FIX.4.4|9=136|35=V|34=187|49=MKDATACL2|52=20150520-13:01:36.012|56=MKDATAFHBCS2|262=3475d362cbbc4fc7|263=2|264=1|146=1|55=CCU|267=3|269=0|269=1|269=5|10=150|
20150520-13:01:36.014: 8=FIX.4.4|9=143|35=V|34=188|49=MKDATACL2|52=20150520-13:01:36.014|56=MKDATAFHBCS2|262=52e35982f8f74baa|263=2|264=1|146=1|55=CONCHATORO|267=3|269=0|269=1|269=5|10=134|
20150520-13:01:36.015: 8=FIX.4.4|9=139|35=V|34=189|49=MKDATACL2|52=20150520-13:01:36.014|56=MKDATAFHBCS2|262=-620495bdb81fb943|263=2|264=1|146=1|55=CHILE|267=3|269=0|269=1|269=5|10=247|
20150520-13:01:36.016: 8=FIX.4.4|9=141|35=V|34=190|49=MKDATACL2|52=20150520-13:01:36.016|56=MKDATAFHBCS2|262=-3661dcda716ebf05|263=2|264=1|146=1|55=ENERSIS|267=3|269=0|269=1|269=5|10=247|
20150520-13:01:36.017: 8=FIX.4.4|9=141|35=V|34=191|49=MKDATACL2|52=20150520-13:01:36.017|56=MKDATAFHBCS2|262=3da67ebcc4664d50|263=2|264=1|146=1|55=ANDINA-B|267=3|269=0|269=1|269=5|10=208|
20150520-13:01:36.019: 8=FIX.4.4|9=142|35=V|34=192|49=MKDATACL2|52=20150520-13:01:36.019|56=MKDATAFHBCS2|262=-5ef155530cbab1c9|263=2|264=1|146=1|55=ANDINA-A|267=3|269=0|269=1|269=5|10=249|
20150520-13:01:36.020: 8=FIX.4.4|9=138|35=V|34=193|49=MKDATACL2|52=20150520-13:01:36.019|56=MKDATAFHBCS2|262=229b79888f764b3b|263=2|264=1|146=1|55=SQM-B|267=3|269=0|269=1|269=5|10=166|
20150520-13:01:36.021: 8=FIX.4.4|9=136|35=V|34=194|49=MKDATACL2|52=20150520-13:01:36.021|56=MKDATAFHBCS2|262=2a08f0d6d59243f2|263=2|264=1|146=1|55=LAN|267=3|269=0|269=1|269=5|10=050|
20150520-13:01:36.023: 8=FIX.4.4|9=143|35=V|34=195|49=MKDATACL2|52=20150520-13:01:36.022|56=MKDATAFHBCS2|262=-20c19c0e616eb2d6|263=2|264=1|146=1|55=CORPBANCA|267=3|269=0|269=1|269=5|10=054|
20150520-13:02:33.765: 8=FIX.4.4|9=66|35=0|34=164|49=MKDATAFHBCS2|52=20150520-13:02:33.828|56=MKDATACL2|10=252|
20150520-13:02:36.043: 8=FIX.4.4|9=66|35=0|34=196|49=MKDATACL2|52=20150520-13:02:36.043|56=MKDATAFHBCS2|10=249|
20150520-13:03:33.761: 8=FIX.4.4|9=66|35=0|34=165|49=MKDATAFHBCS2|52=20150520-13:03:33.891|56=MKDATACL2|10=254|
20150520-13:03:37.042: 8=FIX.4.4|9=66|35=0|34=197|49=MKDATACL2|52=20150520-13:03:37.042|56=MKDATAFHBCS2|10=251|
20150520-13:04:33.759: 8=FIX.4.4|9=66|35=0|34=166|49=MKDATAFHBCS2|52=20150520-13:04:33.921|56=MKDATACL2|10=250|
20150520-13:04:37.043: 8=FIX.4.4|9=66|35=0|34=198|49=MKDATACL2|52=20150520-13:04:37.043|56=MKDATAFHBCS2|10=254|
20150520-13:05:33.757: 8=FIX.4.4|9=66|35=0|34=167|49=MKDATAFHBCS2|52=20150520-13:05:33.935|56=MKDATACL2|10=001|
20150520-13:05:38.041: 8=FIX.4.4|9=66|35=0|34=199|49=MKDATACL2|52=20150520-13:05:38.041|56=MKDATAFHBCS2|10=255|
20150520-13:06:33.754: 8=FIX.4.4|9=66|35=0|34=168|49=MKDATAFHBCS2|52=20150520-13:06:33.937|56=MKDATACL2|10=005|
20150520-13:06:38.042: 8=FIX.4.4|9=66|35=0|34=200|49=MKDATACL2|52=20150520-13:06:38.042|56=MKDATAFHBCS2|10=240|
20150520-13:07:34.765: 8=FIX.4.4|9=66|35=0|34=169|49=MKDATAFHBCS2|52=20150520-13:07:34.832|56=MKDATACL2|10=002|
20150520-13:07:39.042: 8=FIX.4.4|9=66|35=0|34=201|49=MKDATACL2|52=20150520-13:07:39.041|56=MKDATAFHBCS2|10=242|
20150520-13:08:34.764: 8=FIX.4.4|9=66|35=0|34=170|49=MKDATAFHBCS2|52=20150520-13:08:34.894|56=MKDATACL2|10=003|
20150520-13:08:39.042: 8=FIX.4.4|9=66|35=0|34=202|49=MKDATACL2|52=20150520-13:08:39.041|56=MKDATAFHBCS2|10=244|
20150520-13:09:35.759: 8=FIX.4.4|9=66|35=0|34=171|49=MKDATAFHBCS2|52=20150520-13:09:35.823|56=MKDATACL2|10=254|
20150520-13:09:39.042: 8=FIX.4.4|9=66|35=0|34=203|49=MKDATACL2|52=20150520-13:09:39.042|56=MKDATAFHBCS2|10=247|
20150520-13:10:35.756: 8=FIX.4.4|9=66|35=0|34=172|49=MKDATAFHBCS2|52=20150520-13:10:35.885|56=MKDATACL2|10=255|
20150520-13:10:39.042: 8=FIX.4.4|9=66|35=0|34=204|49=MKDATACL2|52=20150520-13:10:39.042|56=MKDATAFHBCS2|10=240|
20150520-13:11:35.753: 8=FIX.4.4|9=66|35=0|34=173|49=MKDATAFHBCS2|52=20150520-13:11:35.915|56=MKDATACL2|10=251|
20150520-13:11:40.042: 8=FIX.4.4|9=66|35=0|34=205|49=MKDATACL2|52=20150520-13:11:40.041|56=MKDATAFHBCS2|10=233|
20150520-13:12:35.751: 8=FIX.4.4|9=66|35=0|34=174|49=MKDATAFHBCS2|52=20150520-13:12:35.929|56=MKDATACL2|10=002|
20150520-13:12:40.043: 8=FIX.4.4|9=66|35=0|34=206|49=MKDATACL2|52=20150520-13:12:40.042|56=MKDATAFHBCS2|10=236|
20150520-13:13:35.764: 8=FIX.4.4|9=66|35=0|34=175|49=MKDATAFHBCS2|52=20150520-13:13:35.949|56=MKDATACL2|10=006|
20150520-13:13:41.043: 8=FIX.4.4|9=66|35=0|34=207|49=MKDATACL2|52=20150520-13:13:41.042|56=MKDATAFHBCS2|10=239|
20150520-13:14:36.759: 8=FIX.4.4|9=66|35=0|34=176|49=MKDATAFHBCS2|52=20150520-13:14:36.872|56=MKDATACL2|10=004|
20150520-13:14:41.044: 8=FIX.4.4|9=66|35=0|34=208|49=MKDATACL2|52=20150520-13:14:41.044|56=MKDATAFHBCS2|10=243|
20150520-13:15:36.760: 8=FIX.4.4|9=66|35=0|34=177|49=MKDATAFHBCS2|52=20150520-13:15:36.911|56=MKDATACL2|10=000|
20150520-13:15:42.042: 8=FIX.4.4|9=66|35=0|34=209|49=MKDATACL2|52=20150520-13:15:42.042|56=MKDATAFHBCS2|10=244|
20150520-13:16:36.759: 8=FIX.4.4|9=66|35=0|34=178|49=MKDATAFHBCS2|52=20150520-13:16:36.929|56=MKDATACL2|10=011|
20150520-13:16:42.042: 8=FIX.4.4|9=66|35=0|34=210|49=MKDATACL2|52=20150520-13:16:42.042|56=MKDATAFHBCS2|10=237|
20150520-13:17:36.776: 8=FIX.4.4|9=66|35=0|34=179|49=MKDATAFHBCS2|52=20150520-13:17:36.936|56=MKDATACL2|10=011|
20150520-13:17:42.043: 8=FIX.4.4|9=66|35=0|34=211|49=MKDATACL2|52=20150520-13:17:42.042|56=MKDATAFHBCS2|10=239|
20150520-13:18:36.749: 8=FIX.4.4|9=66|35=0|34=180|49=MKDATAFHBCS2|52=20150520-13:18:36.938|56=MKDATACL2|10=006|
20150520-13:18:42.043: 8=FIX.4.4|9=66|35=0|34=212|49=MKDATACL2|52=20150520-13:18:42.043|56=MKDATAFHBCS2|10=242|
20150520-13:19:37.764: 8=FIX.4.4|9=66|35=0|34=181|49=MKDATAFHBCS2|52=20150520-13:19:37.877|56=MKDATACL2|10=011|
20150520-13:19:42.043: 8=FIX.4.4|9=66|35=0|34=213|49=MKDATACL2|52=20150520-13:19:42.043|56=MKDATAFHBCS2|10=244|
20150520-13:20:37.759: 8=FIX.4.4|9=66|35=0|34=182|49=MKDATAFHBCS2|52=20150520-13:20:37.913|56=MKDATACL2|10=251|
20150520-13:20:43.041: 8=FIX.4.4|9=66|35=0|34=214|49=MKDATACL2|52=20150520-13:20:43.041|56=MKDATAFHBCS2|10=236|
20150520-13:21:37.755: 8=FIX.4.4|9=66|35=0|34=183|49=MKDATAFHBCS2|52=20150520-13:21:37.931|56=MKDATACL2|10=253|
20150520-13:21:43.041: 8=FIX.4.4|9=66|35=0|34=215|49=MKDATACL2|52=20150520-13:21:43.041|56=MKDATAFHBCS2|10=238|
20150520-13:22:37.752: 8=FIX.4.4|9=66|35=0|34=184|49=MKDATAFHBCS2|52=20150520-13:22:37.940|56=MKDATACL2|10=255|
20150520-13:22:43.042: 8=FIX.4.4|9=66|35=0|34=216|49=MKDATACL2|52=20150520-13:22:43.042|56=MKDATAFHBCS2|10=241|
20150520-13:23:37.752: 8=FIX.4.4|9=66|35=0|34=185|49=MKDATAFHBCS2|52=20150520-13:23:37.942|56=MKDATACL2|10=003|
20150520-13:23:44.041: 8=FIX.4.4|9=66|35=0|34=217|49=MKDATACL2|52=20150520-13:23:44.041|56=MKDATAFHBCS2|10=243|
20150520-13:24:38.749: 8=FIX.4.4|9=66|35=0|34=186|49=MKDATAFHBCS2|52=20150520-13:24:38.866|56=MKDATACL2|10=011|
20150520-13:24:44.041: 8=FIX.4.4|9=66|35=0|34=218|49=MKDATACL2|52=20150520-13:24:44.041|56=MKDATAFHBCS2|10=245|
20150520-13:25:38.762: 8=FIX.4.4|9=66|35=0|34=187|49=MKDATAFHBCS2|52=20150520-13:25:38.916|56=MKDATACL2|10=009|
20150520-13:25:44.041: 8=FIX.4.4|9=66|35=0|34=219|49=MKDATACL2|52=20150520-13:25:44.041|56=MKDATAFHBCS2|10=247|
20150520-13:26:39.755: 8=FIX.4.4|9=66|35=0|34=188|49=MKDATAFHBCS2|52=20150520-13:26:39.852|56=MKDATACL2|10=011|
20150520-13:26:44.042: 8=FIX.4.4|9=66|35=0|34=220|49=MKDATACL2|52=20150520-13:26:44.042|56=MKDATAFHBCS2|10=241|
20150520-13:27:39.758: 8=FIX.4.4|9=66|35=0|34=189|49=MKDATAFHBCS2|52=20150520-13:27:39.898|56=MKDATACL2|10=023|
20150520-13:27:44.042: 8=FIX.4.4|9=66|35=0|34=221|49=MKDATACL2|52=20150520-13:27:44.042|56=MKDATAFHBCS2|10=243|
20150520-13:28:39.750: 8=FIX.4.4|9=66|35=0|34=190|49=MKDATAFHBCS2|52=20150520-13:28:39.921|56=MKDATACL2|10=003|
20150520-13:28:45.042: 8=FIX.4.4|9=66|35=0|34=222|49=MKDATACL2|52=20150520-13:28:45.042|56=MKDATAFHBCS2|10=246|
20150520-13:29:39.749: 8=FIX.4.4|9=66|35=0|34=191|49=MKDATAFHBCS2|52=20150520-13:29:39.930|56=MKDATACL2|10=005|
20150520-13:29:45.042: 8=FIX.4.4|9=66|35=0|34=223|49=MKDATACL2|52=20150520-13:29:45.042|56=MKDATAFHBCS2|10=248|
20150520-13:29:52.412: 8=FIX.4.4|9=141|35=V|34=224|49=MKDATACL2|52=20150520-13:29:52.411|56=MKDATAFHBCS2|262=6cec5c84440a431b|263=1|264=1|146=1|55=ANDINA-B|267=3|269=0|269=1|269=5|10=155|
20150520-13:29:52.416: 8=FIX.4.4|9=196|35=W|34=192|49=MKDATAFHBCS2|52=20150520-13:29:52.599|56=MKDATACL2|55=ANDINA-B|262=6cec5c84440a431b|268=3|269=0|270=2121|271=1354|282=051|290=1|269=1|270=2140|271=4646|282=051|290=1|269=5|270=2120|10=185|
20150520-13:29:52.916: 8=FIX.4.4|9=142|35=V|34=225|49=MKDATACL2|52=20150520-13:29:52.916|56=MKDATAFHBCS2|262=3728473f0e904e3c|263=1|264=1|146=1|55=CORPBANCA|267=3|269=0|269=1|269=5|10=195|
20150520-13:29:52.920: 8=FIX.4.4|9=203|35=W|34=193|49=MKDATAFHBCS2|52=20150520-13:29:53.098|56=MKDATACL2|55=CORPBANCA|262=3728473f0e904e3c|268=3|269=0|270=7.285|271=479296|282=062|290=1|269=1|270=7.436|271=70000|282=086|290=1|269=5|270=7.436|10=033|
20150520-13:29:53.293: 8=FIX.4.4|9=138|35=V|34=226|49=MKDATACL2|52=20150520-13:29:53.293|56=MKDATAFHBCS2|262=4fb7b31c28dd49fd|263=1|264=1|146=1|55=CHILE|267=3|269=0|269=1|269=5|10=100|
20150520-13:29:53.296: 8=FIX.4.4|9=193|35=W|34=194|49=MKDATAFHBCS2|52=20150520-13:29:53.472|56=MKDATACL2|55=CHILE|262=4fb7b31c28dd49fd|268=3|269=0|270=70.96|271=46725|282=035|290=1|269=1|270=71|271=598025|282=035|290=1|269=5|270=71|10=145|
20150520-13:29:53.631: 8=FIX.4.4|9=144|35=V|34=227|49=MKDATACL2|52=20150520-13:29:53.631|56=MKDATAFHBCS2|262=-196066cce440b1de|263=1|264=1|146=1|55=BSANTANDER|267=3|269=0|269=1|269=5|10=158|
20150520-13:29:53.637: 8=FIX.4.4|9=200|35=W|34=195|49=MKDATAFHBCS2|52=20150520-13:29:53.815|56=MKDATACL2|55=BSANTANDER|262=-196066cce440b1de|268=3|269=0|270=32.55|271=100000|282=034|290=1|269=1|270=33|271=369288|282=042|290=1|269=5|270=33|10=218|
20150520-13:29:53.963: 8=FIX.4.4|9=136|35=V|34=228|49=MKDATACL2|52=20150520-13:29:53.963|56=MKDATAFHBCS2|262=-673134038aeb59e|263=1|264=1|146=1|55=CCU|267=3|269=0|269=1|269=5|10=020|
20150520-13:29:53.977: 8=FIX.4.4|9=194|35=W|34=196|49=MKDATAFHBCS2|52=20150520-13:29:54.143|56=MKDATACL2|55=CCU|262=-673134038aeb59e|268=3|269=0|270=6662|271=1700|282=072|290=1|269=1|270=6881.7|271=124|282=035|290=1|269=5|270=6881.7|10=207|
20150520-13:29:54.402: 8=FIX.4.4|9=141|35=V|34=229|49=MKDATACL2|52=20150520-13:29:54.402|56=MKDATAFHBCS2|262=58356fdb1cc74d87|263=1|264=1|146=1|55=CENCOSUD|267=3|269=0|269=1|269=5|10=240|
20150520-13:29:54.405: 8=FIX.4.4|9=198|35=W|34=197|49=MKDATAFHBCS2|52=20150520-13:29:54.580|56=MKDATACL2|55=CENCOSUD|262=58356fdb1cc74d87|268=3|269=0|270=1577.1|271=7370|282=043|290=1|269=1|270=1585|271=3646|282=035|290=1|269=5|270=1585|10=147|
20150520-13:29:54.782: 8=FIX.4.4|9=141|35=V|34=230|49=MKDATACL2|52=20150520-13:29:54.782|56=MKDATAFHBCS2|262=-63ce75e4797cbab9|263=1|264=1|146=1|55=ENERSIS|267=3|269=0|269=1|269=5|10=023|
20150520-13:29:54.785: 8=FIX.4.4|9=198|35=W|34=198|49=MKDATAFHBCS2|52=20150520-13:29:54.970|56=MKDATACL2|55=ENERSIS|262=-63ce75e4797cbab9|268=3|269=0|270=213.11|271=13668|282=066|290=1|269=1|270=214|271=54476|282=035|290=1|269=5|270=214|10=169|
20150520-13:29:55.265: 8=FIX.4.4|9=140|35=V|34=231|49=MKDATACL2|52=20150520-13:29:55.265|56=MKDATAFHBCS2|262=-17f3fffa8266bb7f|263=1|264=1|146=1|55=ENDESA|267=3|269=0|269=1|269=5|10=216|
20150520-13:29:55.273: 8=FIX.4.4|9=195|35=W|34=199|49=MKDATAFHBCS2|52=20150520-13:29:55.454|56=MKDATACL2|55=ENDESA|262=-17f3fffa8266bb7f|268=3|269=0|270=922|271=1150|282=051|290=1|269=1|270=931|271=1569|282=088|290=1|269=5|270=931.07|10=013|
20150520-13:29:55.766: 8=FIX.4.4|9=136|35=V|34=232|49=MKDATACL2|52=20150520-13:29:55.766|56=MKDATAFHBCS2|262=1299befb667d4bea|263=1|264=1|146=1|55=LAN|267=3|269=0|269=1|269=5|10=222|
20150520-13:29:55.773: 8=FIX.4.4|9=193|35=W|34=200|49=MKDATAFHBCS2|52=20150520-13:29:55.953|56=MKDATACL2|55=LAN|262=1299befb667d4bea|268=3|269=0|270=5420|271=2500|282=051|290=1|269=1|270=5498.3|271=1281|282=020|290=1|269=5|270=5479|10=084|
20150520-13:29:56.383: 8=FIX.4.4|9=138|35=V|34=233|49=MKDATACL2|52=20150520-13:29:56.383|56=MKDATAFHBCS2|262=428a7de7788d424b|263=1|264=1|146=1|55=SQM-B|267=3|269=0|269=1|269=5|10=216|
20150520-13:29:56.386: 8=FIX.4.4|9=194|35=W|34=201|49=MKDATAFHBCS2|52=20150520-13:29:56.561|56=MKDATACL2|55=SQM-B|262=428a7de7788d424b|268=3|269=0|270=12550|271=100|282=072|290=1|269=1|270=12650|271=521|282=035|290=1|269=5|270=12600|10=001|
20150520-13:29:57.256: 8=FIX.4.4|9=143|35=V|34=234|49=MKDATACL2|52=20150520-13:29:57.256|56=MKDATAFHBCS2|262=47f6ae0b15734684|263=1|264=1|146=1|55=CONCHATORO|267=3|269=0|269=1|269=5|10=045|
20150520-13:29:57.260: 8=FIX.4.4|9=199|35=W|34=202|49=MKDATAFHBCS2|52=20150520-13:29:57.435|56=MKDATACL2|55=CONCHATORO|262=47f6ae0b15734684|268=3|269=0|270=1199|271=830|282=051|290=1|269=1|270=1275|271=2620|282=058|290=1|269=5|270=1198.9|10=135|
20150520-13:30:01.826: 8=FIX.4.4|9=133|35=X|34=203|49=MKDATAFHBCS2|52=20150520-13:30:02.006|56=MKDATACL2|262=-196066cce440b1de|268=1|279=1|269=5|55=BSANTANDER|270=33|290=1|10=159|
20150520-13:30:01.925: 8=FIX.4.4|9=152|35=X|34=204|49=MKDATAFHBCS2|52=20150520-13:30:02.006|56=MKDATACL2|262=-196066cce440b1de|268=1|279=2|269=1|55=BSANTANDER|270=33|271=369288|282=042|290=1|10=042|
20150520-13:30:01.925: 8=FIX.4.4|9=152|35=X|34=205|49=MKDATAFHBCS2|52=20150520-13:30:02.006|56=MKDATACL2|262=-196066cce440b1de|268=1|279=2|269=1|55=BSANTANDER|270=33|271=244119|282=035|290=1|10=030|
20150520-13:30:01.925: 8=FIX.4.4|9=152|35=X|34=206|49=MKDATAFHBCS2|52=20150520-13:30:02.006|56=MKDATACL2|262=-196066cce440b1de|268=1|279=2|269=1|55=BSANTANDER|270=33|271=148452|282=058|290=1|10=039|
20150520-13:30:01.925: 8=FIX.4.4|9=152|35=X|34=207|49=MKDATAFHBCS2|52=20150520-13:30:02.006|56=MKDATACL2|262=-196066cce440b1de|268=1|279=1|269=1|55=BSANTANDER|270=33|271=764363|282=086|290=1|10=045|
20150520-13:30:01.926: 8=FIX.4.4|9=154|35=X|34=208|49=MKDATAFHBCS2|52=20150520-13:30:02.006|56=MKDATACL2|262=3728473f0e904e3c|268=1|279=0|269=0|55=CORPBANCA|270=7.303|271=1500000|282=035|290=1|10=250|
20150520-13:30:01.926: 8=FIX.4.4|9=153|35=X|34=209|49=MKDATAFHBCS2|52=20150520-13:30:02.022|56=MKDATACL2|262=-63ce75e4797cbab9|268=1|279=0|269=0|55=ENERSIS|270=213.76|271=200000|282=035|290=1|10=080|
20150520-13:30:01.926: 8=FIX.4.4|9=144|35=X|34=210|49=MKDATAFHBCS2|52=20150520-13:30:02.022|56=MKDATACL2|262=-673134038aeb59e|268=1|279=0|269=0|55=CCU|270=6690|271=2000|282=035|290=1|10=126|
20150520-13:30:01.926: 8=FIX.4.4|9=147|35=X|34=211|49=MKDATAFHBCS2|52=20150520-13:30:02.022|56=MKDATACL2|262=428a7de7788d424b|268=1|279=0|269=0|55=SQM-B|270=12695|271=2000|282=035|290=1|10=123|
20150520-13:30:01.926: 8=FIX.4.4|9=146|35=X|34=212|49=MKDATAFHBCS2|52=20150520-13:30:02.022|56=MKDATACL2|262=428a7de7788d424b|268=1|279=2|269=1|55=SQM-B|270=12650|271=521|282=035|290=1|10=075|
20150520-13:30:01.926: 8=FIX.4.4|9=130|35=X|34=213|49=MKDATAFHBCS2|52=20150520-13:30:02.038|56=MKDATACL2|262=428a7de7788d424b|268=1|279=1|269=5|55=SQM-B|270=12650|290=1|10=109|
20150520-13:30:02.844: 8=FIX.4.4|9=154|35=X|34=214|49=MKDATAFHBCS2|52=20150520-13:30:03.020|56=MKDATACL2|262=47f6ae0b15734684|268=1|279=0|269=1|55=CONCHATORO|270=1247.9|271=10000|282=035|290=1|10=049|
20150520-13:30:02.844: 8=FIX.4.4|9=151|35=X|34=215|49=MKDATAFHBCS2|52=20150520-13:30:03.020|56=MKDATACL2|262=-17f3fffa8266bb7f|268=1|279=0|269=0|55=ENDESA|270=922.01|271=21000|282=035|290=1|10=218|
20150520-13:30:02.844: 8=FIX.4.4|9=146|35=X|34=216|49=MKDATAFHBCS2|52=20150520-13:30:03.020|56=MKDATACL2|262=-673134038aeb59e|268=1|279=0|269=0|55=CCU|270=6823.3|271=1316|282=070|290=1|10=236|
20150520-13:30:02.844: 8=FIX.4.4|9=131|35=X|34=217|49=MKDATAFHBCS2|52=20150520-13:30:03.020|56=MKDATACL2|262=-63ce75e4797cbab9|268=1|279=1|269=5|55=ENERSIS|270=214|290=1|10=074|
20150520-13:30:02.854: 8=FIX.4.4|9=147|35=X|34=218|49=MKDATAFHBCS2|52=20150520-13:30:03.036|56=MKDATACL2|262=428a7de7788d424b|268=1|279=2|269=0|55=SQM-B|270=12695|271=2000|282=035|290=1|10=138|
20150520-13:30:02.854: 8=FIX.4.4|9=147|35=X|34=219|49=MKDATAFHBCS2|52=20150520-13:30:03.036|56=MKDATACL2|262=428a7de7788d424b|268=1|279=0|269=0|55=SQM-B|270=12604|271=2000|282=035|290=1|10=127|
20150520-13:30:02.854: 8=FIX.4.4|9=153|35=X|34=220|49=MKDATAFHBCS2|52=20150520-13:30:03.036|56=MKDATACL2|262=-63ce75e4797cbab9|268=1|279=2|269=0|55=ENERSIS|270=213.76|271=200000|282=035|290=1|10=081|
20150520-13:30:02.856: 8=FIX.4.4|9=149|35=X|34=221|49=MKDATAFHBCS2|52=20150520-13:30:03.036|56=MKDATACL2|262=-63ce75e4797cbab9|268=1|279=2|269=1|55=ENERSIS|270=214|271=54476|282=035|290=1|10=166|
20150520-13:30:02.856: 8=FIX.4.4|9=148|35=X|34=222|49=MKDATAFHBCS2|52=20150520-13:30:03.036|56=MKDATACL2|262=-63ce75e4797cbab9|268=1|279=2|269=1|55=ENERSIS|270=214|271=4500|282=088|290=1|10=109|
20150520-13:30:02.856: 8=FIX.4.4|9=149|35=X|34=223|49=MKDATAFHBCS2|52=20150520-13:30:03.036|56=MKDATACL2|262=-63ce75e4797cbab9|268=1|279=0|269=1|55=ENERSIS|270=214|271=59668|282=035|290=1|10=174|
20150520-13:30:02.856: 8=FIX.4.4|9=146|35=X|34=224|49=MKDATAFHBCS2|52=20150520-13:30:03.036|56=MKDATACL2|262=1299befb667d4bea|268=1|279=0|269=1|55=LAN|270=5475.3|271=4000|282=035|290=1|10=187|
20150520-13:30:03.784: 8=FIX.4.4|9=143|35=X|34=225|49=MKDATAFHBCS2|52=20150520-13:30:03.957|56=MKDATACL2|262=-673134038aeb59e|268=1|279=0|269=1|55=CCU|270=6881|271=302|282=088|290=1|10=115|
20150520-13:30:03.784: 8=FIX.4.4|9=151|35=X|34=226|49=MKDATAFHBCS2|52=20150520-13:30:03.957|56=MKDATACL2|262=-17f3fffa8266bb7f|268=1|279=0|269=0|55=ENDESA|270=922.02|271=21000|282=035|290=1|10=240|
20150520-13:30:03.784: 8=FIX.4.4|9=147|35=X|34=227|49=MKDATAFHBCS2|52=20150520-13:30:03.957|56=MKDATACL2|262=428a7de7788d424b|268=1|279=0|269=0|55=SQM-B|270=12605|271=2000|282=035|290=1|10=139|
20150520-13:30:04.779: 8=FIX.4.4|9=151|35=X|34=228|49=MKDATAFHBCS2|52=20150520-13:30:04.955|56=MKDATACL2|262=-17f3fffa8266bb7f|268=1|279=0|269=0|55=ENDESA|270=922.03|271=21000|282=035|290=1|10=242|
20150520-13:30:04.779: 8=FIX.4.4|9=147|35=X|34=229|49=MKDATAFHBCS2|52=20150520-13:30:04.955|56=MKDATACL2|262=428a7de7788d424b|268=1|279=0|269=0|55=SQM-B|270=12606|271=2000|282=035|290=1|10=141|
20150520-13:30:05.804: 8=FIX.4.4|9=147|35=X|34=230|49=MKDATAFHBCS2|52=20150520-13:30:05.985|56=MKDATACL2|262=428a7de7788d424b|268=1|279=0|269=0|55=SQM-B|270=12607|271=2000|282=035|290=1|10=138|
20150520-13:30:09.781: 8=FIX.4.4|9=132|35=X|34=231|49=MKDATAFHBCS2|52=20150520-13:30:09.963|56=MKDATACL2|262=58356fdb1cc74d87|268=1|279=1|269=5|55=CENCOSUD|270=1585|290=1|10=117|
20150520-13:30:09.791: 8=FIX.4.4|9=146|35=X|34=232|49=MKDATAFHBCS2|52=20150520-13:30:09.963|56=MKDATACL2|262=1299befb667d4bea|268=1|279=2|269=1|55=LAN|270=5475.3|271=4000|282=035|290=1|10=203|
20150520-13:30:09.791: 8=FIX.4.4|9=146|35=X|34=233|49=MKDATAFHBCS2|52=20150520-13:30:09.963|56=MKDATACL2|262=1299befb667d4bea|268=1|279=0|269=1|55=LAN|270=5475.8|271=4000|282=035|290=1|10=207|
20150520-13:30:09.795: 8=FIX.4.4|9=154|35=X|34=234|49=MKDATAFHBCS2|52=20150520-13:30:09.963|56=MKDATACL2|262=47f6ae0b15734684|268=1|279=2|269=1|55=CONCHATORO|270=1247.9|271=10000|282=035|290=1|10=075|
20150520-13:30:09.795: 8=FIX.4.4|9=152|35=X|34=235|49=MKDATAFHBCS2|52=20150520-13:30:09.979|56=MKDATACL2|262=47f6ae0b15734684|268=1|279=0|269=1|55=CONCHATORO|270=1248|271=10000|282=035|290=1|10=233|
20150520-13:30:09.795: 8=FIX.4.4|9=148|35=X|34=236|49=MKDATAFHBCS2|52=20150520-13:30:09.979|56=MKDATACL2|262=58356fdb1cc74d87|268=1|279=1|269=1|55=CENCOSUD|270=1585|271=646|282=035|290=1|10=110|
20150520-13:30:11.797: 8=FIX.4.4|9=132|35=X|34=237|49=MKDATAFHBCS2|52=20150520-13:30:11.976|56=MKDATACL2|262=58356fdb1cc74d87|268=1|279=1|269=5|55=CENCOSUD|270=1585|290=1|10=120|
20150520-13:30:11.803: 8=FIX.4.4|9=148|35=X|34=238|49=MKDATAFHBCS2|52=20150520-13:30:11.976|56=MKDATACL2|262=58356fdb1cc74d87|268=1|279=2|269=1|55=CENCOSUD|270=1585|271=646|282=035|290=1|10=103|
20150520-13:30:11.804: 8=FIX.4.4|9=148|35=X|34=239|49=MKDATAFHBCS2|52=20150520-13:30:11.976|56=MKDATACL2|262=58356fdb1cc74d87|268=1|279=1|269=1|55=CENCOSUD|270=1585|271=117|282=035|290=1|10=096|
20150520-13:30:12.799: 8=FIX.4.4|9=147|35=X|34=240|49=MKDATAFHBCS2|52=20150520-13:30:12.974|56=MKDATACL2|262=428a7de7788d424b|268=1|279=0|269=0|55=SQM-B|270=12653|271=2000|282=035|290=1|10=136|
20150520-13:30:13.814: 8=FIX.4.4|9=151|35=X|34=241|49=MKDATAFHBCS2|52=20150520-13:30:13.973|56=MKDATACL2|262=58356fdb1cc74d87|268=1|279=0|269=0|55=CENCOSUD|270=1577.2|271=3000|282=070|290=1|10=218|
20150520-13:30:13.815: 8=FIX.4.4|9=132|35=X|34=242|49=MKDATAFHBCS2|52=20150520-13:30:13.973|56=MKDATACL2|262=58356fdb1cc74d87|268=1|279=1|269=5|55=CENCOSUD|270=1585|290=1|10=115|
20150520-13:30:13.815: 8=FIX.4.4|9=155|35=X|34=243|49=MKDATAFHBCS2|52=20150520-13:30:13.973|56=MKDATACL2|262=-196066cce440b1de|268=1|279=0|269=0|55=BSANTANDER|270=32.56|271=400000|282=070|290=1|10=181|
20150520-13:30:13.815: 8=FIX.4.4|9=148|35=X|34=244|49=MKDATAFHBCS2|52=20150520-13:30:13.988|56=MKDATACL2|262=58356fdb1cc74d87|268=1|279=2|269=1|55=CENCOSUD|270=1585|271=117|282=035|290=1|10=098|
20150520-13:30:13.815: 8=FIX.4.4|9=148|35=X|34=245|49=MKDATAFHBCS2|52=20150520-13:30:13.988|56=MKDATACL2|262=58356fdb1cc74d87|268=1|279=2|269=1|55=CENCOSUD|270=1585|271=403|282=066|290=1|10=101|
20150520-13:30:13.816: 8=FIX.4.4|9=149|35=X|34=246|49=MKDATAFHBCS2|52=20150520-13:30:13.988|56=MKDATACL2|262=58356fdb1cc74d87|268=1|279=1|269=1|55=CENCOSUD|270=1585|271=7145|282=035|290=1|10=156|
20150520-13:30:15.866: 8=FIX.4.4|9=132|35=X|34=247|49=MKDATAFHBCS2|52=20150520-13:30:16.048|56=MKDATACL2|262=58356fdb1cc74d87|268=1|279=1|269=5|55=CENCOSUD|270=1585|290=1|10=116|
20150520-13:30:15.882: 8=FIX.4.4|9=151|35=X|34=248|49=MKDATAFHBCS2|52=20150520-13:30:16.048|56=MKDATACL2|262=58356fdb1cc74d87|268=1|279=0|269=0|55=CENCOSUD|270=1577.3|271=5571|282=035|290=1|10=238|
20150520-13:30:15.883: 8=FIX.4.4|9=147|35=X|34=249|49=MKDATAFHBCS2|52=20150520-13:30:16.048|56=MKDATACL2|262=428a7de7788d424b|268=1|279=2|269=0|55=SQM-B|270=12653|271=2000|282=035|290=1|10=143|
20150520-13:30:15.883: 8=FIX.4.4|9=147|35=X|34=250|49=MKDATAFHBCS2|52=20150520-13:30:16.048|56=MKDATACL2|262=428a7de7788d424b|268=1|279=0|269=0|55=SQM-B|270=12653|271=2000|282=035|290=1|10=133|
20150520-13:30:15.883: 8=FIX.4.4|9=149|35=X|34=251|49=MKDATAFHBCS2|52=20150520-13:30:16.048|56=MKDATACL2|262=58356fdb1cc74d87|268=1|279=1|269=1|55=CENCOSUD|270=1585|271=5553|282=035|290=1|10=143|
20150520-13:30:17.815: 8=FIX.4.4|9=154|35=X|34=252|49=MKDATAFHBCS2|52=20150520-13:30:17.998|56=MKDATACL2|262=3728473f0e904e3c|268=1|279=0|269=0|55=CORPBANCA|270=7.304|271=1500000|282=070|290=1|10=019|
20150520-13:30:17.815: 8=FIX.4.4|9=147|35=X|34=253|49=MKDATAFHBCS2|52=20150520-13:30:17.998|56=MKDATACL2|262=428a7de7788d424b|268=1|279=0|269=0|55=SQM-B|270=12677|271=2000|282=035|290=1|10=157|
20150520-13:30:17.815: 8=FIX.4.4|9=155|35=X|34=254|49=MKDATAFHBCS2|52=20150520-13:30:17.998|56=MKDATACL2|262=-196066cce440b1de|268=1|279=0|269=0|55=BSANTANDER|270=32.57|271=400000|282=070|290=1|10=195|
20150520-13:30:19.815: 8=FIX.4.4|9=147|35=X|34=255|49=MKDATAFHBCS2|52=20150520-13:30:19.995|56=MKDATACL2|262=428a7de7788d424b|268=1|279=0|269=0|55=SQM-B|270=12683|271=2000|282=035|290=1|10=155|
20150520-13:30:20.799: 8=FIX.4.4|9=155|35=X|34=256|49=MKDATAFHBCS2|52=20150520-13:30:20.978|56=MKDATACL2|262=-196066cce440b1de|268=1|279=0|269=0|55=BSANTANDER|270=32.58|271=400000|282=070|290=1|10=190|
20150520-13:30:21.851: 8=FIX.4.4|9=146|35=X|34=257|49=MKDATAFHBCS2|52=20150520-13:30:22.023|56=MKDATACL2|262=1299befb667d4bea|268=1|279=0|269=1|55=LAN|270=5475.7|271=4000|282=035|290=1|10=194|
20150520-13:30:22.875: 8=FIX.4.4|9=147|35=X|34=258|49=MKDATAFHBCS2|52=20150520-13:30:23.053|56=MKDATACL2|262=428a7de7788d424b|268=1|279=2|269=0|55=SQM-B|270=12683|271=2000|282=035|290=1|10=140|
20150520-13:30:22.876: 8=FIX.4.4|9=147|35=X|34=259|49=MKDATAFHBCS2|52=20150520-13:30:23.053|56=MKDATACL2|262=428a7de7788d424b|268=1|279=2|269=0|55=SQM-B|270=12683|271=2000|282=070|290=1|10=140|
20150520-13:30:22.876: 8=FIX.4.4|9=147|35=X|34=260|49=MKDATAFHBCS2|52=20150520-13:30:23.053|56=MKDATACL2|262=428a7de7788d424b|268=1|279=0|269=0|55=SQM-B|270=12677|271=2000|282=035|290=1|10=134|
20150520-13:30:23.822: 8=FIX.4.4|9=127|35=X|34=261|49=MKDATAFHBCS2|52=20150520-13:30:24.005|56=MKDATACL2|262=4fb7b31c28dd49fd|268=1|279=1|269=5|55=CHILE|270=71|290=1|10=107|
20150520-13:30:23.838: 8=FIX.4.4|9=146|35=X|34=262|49=MKDATAFHBCS2|52=20150520-13:30:24.005|56=MKDATACL2|262=4fb7b31c28dd49fd|268=1|279=1|269=1|55=CHILE|270=71|271=478025|282=035|290=1|10=237|
20150520-13:30:23.839: 8=FIX.4.4|9=147|35=X|34=263|49=MKDATAFHBCS2|52=20150520-13:30:24.005|56=MKDATACL2|262=428a7de7788d424b|268=1|279=0|269=0|55=SQM-B|270=12683|271=2000|282=035|290=1|10=132|
20150520-13:30:24.894: 8=FIX.4.4|9=130|35=X|34=264|49=MKDATAFHBCS2|52=20150520-13:30:25.066|56=MKDATACL2|262=4fb7b31c28dd49fd|268=1|279=1|269=5|55=CHILE|270=70.96|290=1|10=012|
20150520-13:30:24.894: 8=FIX.4.4|9=148|35=X|34=265|49=MKDATAFHBCS2|52=20150520-13:30:25.066|56=MKDATACL2|262=4fb7b31c28dd49fd|268=1|279=2|269=0|55=CHILE|270=70.96|271=46725|282=035|290=1|10=100|
20150520-13:30:25.820: 8=FIX.4.4|9=155|35=X|34=266|49=MKDATAFHBCS2|52=20150520-13:30:26.002|56=MKDATACL2|262=-196066cce440b1de|268=1|279=0|269=0|55=BSANTANDER|270=32.59|271=400000|282=070|290=1|10=176|
20150520-13:30:26.892: 8=FIX.4.4|9=147|35=X|34=267|49=MKDATAFHBCS2|52=20150520-13:30:27.062|56=MKDATACL2|262=428a7de7788d424b|268=1|279=2|269=0|55=SQM-B|270=12683|271=2000|282=035|290=1|10=144|
20150520-13:30:26.892: 8=FIX.4.4|9=147|35=X|34=268|49=MKDATAFHBCS2|52=20150520-13:30:27.062|56=MKDATACL2|262=428a7de7788d424b|268=1|279=2|269=0|55=SQM-B|270=12683|271=2000|282=070|290=1|10=144|
20150520-13:30:26.892: 8=FIX.4.4|9=147|35=X|34=269|49=MKDATAFHBCS2|52=20150520-13:30:27.062|56=MKDATACL2|262=428a7de7788d424b|268=1|279=0|269=0|55=SQM-B|270=12677|271=2000|282=035|290=1|10=147|
20150520-13:30:27.855: 8=FIX.4.4|9=154|35=X|34=270|49=MKDATAFHBCS2|52=20150520-13:30:28.030|56=MKDATACL2|262=3728473f0e904e3c|268=1|279=0|269=0|55=CORPBANCA|270=7.305|271=1500000|282=070|290=1|10=255|
20150520-13:30:27.855: 8=FIX.4.4|9=147|35=X|34=271|49=MKDATAFHBCS2|52=20150520-13:30:28.030|56=MKDATACL2|262=428a7de7788d424b|268=1|279=0|269=0|55=SQM-B|270=12683|271=2000|282=035|290=1|10=133|
20150520-13:30:28.826: 8=FIX.4.4|9=132|35=X|34=272|49=MKDATAFHBCS2|52=20150520-13:30:28.997|56=MKDATACL2|262=6cec5c84440a431b|268=1|279=1|269=5|55=ANDINA-B|270=2121|290=1|10=039|
20150520-13:30:28.834: 8=FIX.4.4|9=148|35=X|34=273|49=MKDATAFHBCS2|52=20150520-13:30:29.013|56=MKDATACL2|262=6cec5c84440a431b|268=1|279=1|269=0|55=ANDINA-B|270=2121|271=366|282=051|290=1|10=253|
20150520-13:30:30.036: 8=FIX.4.4|9=154|35=X|34=274|49=MKDATAFHBCS2|52=20150520-13:30:30.214|56=MKDATACL2|262=-196066cce440b1de|268=1|279=0|269=0|55=BSANTANDER|270=32.6|271=400000|282=070|290=1|10=118|
20150520-13:30:30.844: 8=FIX.4.4|9=147|35=X|34=275|49=MKDATAFHBCS2|52=20150520-13:30:31.025|56=MKDATACL2|262=428a7de7788d424b|268=1|279=2|269=0|55=SQM-B|270=12683|271=2000|282=035|290=1|10=137|
20150520-13:30:30.844: 8=FIX.4.4|9=147|35=X|34=276|49=MKDATAFHBCS2|52=20150520-13:30:31.025|56=MKDATACL2|262=428a7de7788d424b|268=1|279=0|269=0|55=SQM-B|270=12677|271=2000|282=035|290=1|10=139|
20150520-13:30:31.837: 8=FIX.4.4|9=154|35=X|34=277|49=MKDATAFHBCS2|52=20150520-13:30:32.023|56=MKDATACL2|262=3728473f0e904e3c|268=1|279=0|269=0|55=CORPBANCA|270=7.306|271=1500000|282=070|290=1|10=004|
20150520-13:30:31.837: 8=FIX.4.4|9=147|35=X|34=278|49=MKDATAFHBCS2|52=20150520-13:30:32.023|56=MKDATACL2|262=428a7de7788d424b|268=1|279=0|269=0|55=SQM-B|270=12695|271=2000|282=035|290=1|10=140|
20150520-13:30:32.839: 8=FIX.4.4|9=144|35=X|34=279|49=MKDATAFHBCS2|52=20150520-13:30:33.022|56=MKDATACL2|262=1299befb667d4bea|268=1|279=0|269=0|55=LAN|270=5430|271=1000|282=059|290=1|10=089|
20150520-13:30:32.839: 8=FIX.4.4|9=155|35=X|34=280|49=MKDATAFHBCS2|52=20150520-13:30:33.022|56=MKDATACL2|262=-196066cce440b1de|268=1|279=0|269=0|55=BSANTANDER|270=32.61|271=400000|282=070|290=1|10=165|
20150520-13:30:34.853: 8=FIX.4.4|9=154|35=X|34=281|49=MKDATAFHBCS2|52=20150520-13:30:35.019|56=MKDATACL2|262=3728473f0e904e3c|268=1|279=0|269=0|55=CORPBANCA|270=7.307|271=1500000|282=070|290=1|10=008|
20150520-13:30:34.854: 8=FIX.4.4|9=130|35=X|34=282|49=MKDATAFHBCS2|52=20150520-13:30:35.019|56=MKDATACL2|262=428a7de7788d424b|268=1|279=1|269=5|55=SQM-B|270=12700|290=1|10=116|
20150520-13:30:34.862: 8=FIX.4.4|9=146|35=X|34=283|49=MKDATAFHBCS2|52=20150520-13:30:35.034|56=MKDATACL2|262=428a7de7788d424b|268=1|279=2|269=1|55=SQM-B|270=12700|271=824|282=086|290=1|10=100|
20150520-13:30:34.862: 8=FIX.4.4|9=146|35=X|34=284|49=MKDATAFHBCS2|52=20150520-13:30:35.034|56=MKDATACL2|262=428a7de7788d424b|268=1|279=2|269=1|55=SQM-B|270=12700|271=726|282=051|290=1|10=094|
20150520-13:30:34.862: 8=FIX.4.4|9=146|35=X|34=285|49=MKDATAFHBCS2|52=20150520-13:30:35.034|56=MKDATACL2|262=428a7de7788d424b|268=1|279=2|269=1|55=SQM-B|270=12700|271=454|282=035|290=1|10=095|
20150520-13:30:34.862: 8=FIX.4.4|9=145|35=X|34=286|49=MKDATAFHBCS2|52=20150520-13:30:35.034|56=MKDATACL2|262=428a7de7788d424b|268=1|279=2|269=1|55=SQM-B|270=12700|271=24|282=086|290=1|10=046|
20150520-13:30:34.862: 8=FIX.4.4|9=146|35=X|34=287|49=MKDATAFHBCS2|52=20150520-13:30:35.034|56=MKDATACL2|262=428a7de7788d424b|268=1|279=2|269=1|55=SQM-B|270=12700|271=987|282=035|290=1|10=108|
20150520-13:30:34.862: 8=FIX.4.4|9=146|35=X|34=288|49=MKDATAFHBCS2|52=20150520-13:30:35.034|56=MKDATACL2|262=428a7de7788d424b|268=1|279=0|269=1|55=SQM-B|270=12700|271=641|282=051|290=1|10=092|
20150520-13:30:35.919: 8=FIX.4.4|9=130|35=X|34=289|49=MKDATAFHBCS2|52=20150520-13:30:36.095|56=MKDATACL2|262=428a7de7788d424b|268=1|279=1|269=5|55=SQM-B|270=12700|290=1|10=128|
20150520-13:30:35.932: 8=FIX.4.4|9=146|35=X|34=290|49=MKDATAFHBCS2|52=20150520-13:30:36.111|56=MKDATACL2|262=428a7de7788d424b|268=1|279=2|269=1|55=SQM-B|270=12700|271=641|282=051|290=1|10=084|
20150520-13:30:35.932: 8=FIX.4.4|9=146|35=X|34=291|49=MKDATAFHBCS2|52=20150520-13:30:36.111|56=MKDATACL2|262=428a7de7788d424b|268=1|279=2|269=1|55=SQM-B|270=12700|271=987|282=035|290=1|10=100|
20150520-13:30:35.932: 8=FIX.4.4|9=146|35=X|34=292|49=MKDATAFHBCS2|52=20150520-13:30:36.111|56=MKDATACL2|262=428a7de7788d424b|268=1|279=0|269=1|55=SQM-B|270=12700|271=441|282=035|290=1|10=084|
20150520-13:30:36.860: 8=FIX.4.4|9=130|35=X|34=293|49=MKDATAFHBCS2|52=20150520-13:30:37.031|56=MKDATACL2|262=428a7de7788d424b|268=1|279=1|269=5|55=SQM-B|270=12700|290=1|10=114|
20150520-13:30:36.873: 8=FIX.4.4|9=147|35=X|34=294|49=MKDATAFHBCS2|52=20150520-13:30:37.047|56=MKDATACL2|262=428a7de7788d424b|268=1|279=2|269=0|55=SQM-B|270=12695|271=2000|282=035|290=1|10=151|
20150520-13:30:36.873: 8=FIX.4.4|9=147|35=X|34=295|49=MKDATAFHBCS2|52=20150520-13:30:37.047|56=MKDATACL2|262=428a7de7788d424b|268=1|279=2|269=0|55=SQM-B|270=12695|271=2000|282=070|290=1|10=151|
20150520-13:30:36.873: 8=FIX.4.4|9=147|35=X|34=296|49=MKDATAFHBCS2|52=20150520-13:30:37.047|56=MKDATACL2|262=428a7de7788d424b|268=1|279=0|269=0|55=SQM-B|270=12684|271=2000|282=070|290=1|10=148|
20150520-13:30:36.873: 8=FIX.4.4|9=146|35=X|34=297|49=MKDATAFHBCS2|52=20150520-13:30:37.047|56=MKDATACL2|262=428a7de7788d424b|268=1|279=1|269=1|55=SQM-B|270=12700|271=152|282=051|290=1|10=096|
20150520-13:30:37.839: 8=FIX.4.4|9=147|35=X|34=298|49=MKDATAFHBCS2|52=20150520-13:30:38.014|56=MKDATACL2|262=428a7de7788d424b|268=1|279=2|269=0|55=SQM-B|270=12684|271=2000|282=070|290=1|10=147|
20150520-13:30:37.840: 8=FIX.4.4|9=147|35=X|34=299|49=MKDATAFHBCS2|52=20150520-13:30:38.014|56=MKDATACL2|262=428a7de7788d424b|268=1|279=0|269=0|55=SQM-B|270=12684|271=2000|282=070|290=1|10=146|
20150520-13:30:37.840: 8=FIX.4.4|9=155|35=X|34=300|49=MKDATAFHBCS2|52=20150520-13:30:38.014|56=MKDATACL2|262=-196066cce440b1de|268=1|279=0|269=0|55=BSANTANDER|270=32.62|271=400000|282=070|290=1|10=165|
20150520-13:30:38.912: 8=FIX.4.4|9=147|35=X|34=301|49=MKDATAFHBCS2|52=20150520-13:30:39.091|56=MKDATACL2|262=428a7de7788d424b|268=1|279=2|269=0|55=SQM-B|270=12684|271=2000|282=070|290=1|10=138|
20150520-13:30:38.912: 8=FIX.4.4|9=147|35=X|34=302|49=MKDATAFHBCS2|52=20150520-13:30:39.091|56=MKDATACL2|262=428a7de7788d424b|268=1|279=0|269=0|55=SQM-B|270=12626|271=2000|282=070|290=1|10=133|
20150520-13:30:39.866: 8=FIX.4.4|9=127|35=X|34=303|49=MKDATAFHBCS2|52=20150520-13:30:40.042|56=MKDATACL2|262=1299befb667d4bea|268=1|279=1|269=5|55=LAN|270=5430|290=1|10=067|
20150520-13:30:39.877: 8=FIX.4.4|9=147|35=X|34=304|49=MKDATAFHBCS2|52=20150520-13:30:40.058|56=MKDATACL2|262=428a7de7788d424b|268=1|279=2|269=0|55=SQM-B|270=12626|271=2000|282=070|290=1|10=132|
20150520-13:30:39.878: 8=FIX.4.4|9=147|35=X|34=305|49=MKDATAFHBCS2|52=20150520-13:30:40.058|56=MKDATACL2|262=428a7de7788d424b|268=1|279=0|269=0|55=SQM-B|270=12621|271=2000|282=070|290=1|10=126|
20150520-13:30:39.878: 8=FIX.4.4|9=144|35=X|34=306|49=MKDATAFHBCS2|52=20150520-13:30:40.058|56=MKDATACL2|262=1299befb667d4bea|268=1|279=2|269=0|55=LAN|270=5430|271=1000|282=059|290=1|10=089|
20150520-13:30:39.878: 8=FIX.4.4|9=144|35=X|34=307|49=MKDATAFHBCS2|52=20150520-13:30:40.058|56=MKDATACL2|262=1299befb667d4bea|268=1|279=0|269=1|55=LAN|270=5430|271=4000|282=020|290=1|10=080|
20150520-13:30:40.891: 8=FIX.4.4|9=153|35=X|34=308|49=MKDATAFHBCS2|52=20150520-13:30:41.072|56=MKDATACL2|262=-63ce75e4797cbab9|268=1|279=0|269=0|55=ENERSIS|270=213.75|271=200000|282=035|290=1|10=087|
20150520-13:30:40.894: 8=FIX.4.4|9=147|35=X|34=309|49=MKDATAFHBCS2|52=20150520-13:30:41.072|56=MKDATACL2|262=428a7de7788d424b|268=1|279=2|269=0|55=SQM-B|270=12621|271=2000|282=070|290=1|10=129|
20150520-13:30:40.896: 8=FIX.4.4|9=147|35=X|34=310|49=MKDATAFHBCS2|52=20150520-13:30:41.072|56=MKDATACL2|262=428a7de7788d424b|268=1|279=2|269=0|55=SQM-B|270=12609|271=2000|282=035|290=1|10=128|
20150520-13:30:40.899: 8=FIX.4.4|9=147|35=X|34=311|49=MKDATAFHBCS2|52=20150520-13:30:41.088|56=MKDATACL2|262=428a7de7788d424b|268=1|279=0|269=0|55=SQM-B|270=12591|271=2000|282=035|290=1|10=134|
20150520-13:30:41.861: 8=FIX.4.4|9=147|35=X|34=312|49=MKDATAFHBCS2|52=20150520-13:30:42.039|56=MKDATACL2|262=428a7de7788d424b|268=1|279=0|269=0|55=SQM-B|270=12609|271=2000|282=070|290=1|10=131|
20150520-13:30:41.861: 8=FIX.4.4|9=155|35=X|34=313|49=MKDATAFHBCS2|52=20150520-13:30:42.039|56=MKDATACL2|262=-196066cce440b1de|268=1|279=0|269=0|55=BSANTANDER|270=32.63|271=400000|282=070|290=1|10=172|
20150520-13:30:42.872: 8=FIX.4.4|9=147|35=X|34=314|49=MKDATAFHBCS2|52=20150520-13:30:43.022|56=MKDATACL2|262=428a7de7788d424b|268=1|279=2|269=0|55=SQM-B|270=12609|271=2000|282=070|290=1|10=128|
20150520-13:30:42.872: 8=FIX.4.4|9=147|35=X|34=315|49=MKDATAFHBCS2|52=20150520-13:30:43.022|56=MKDATACL2|262=428a7de7788d424b|268=1|279=0|269=0|55=SQM-B|270=12596|271=2000|282=070|290=1|10=132|
20150520-13:30:43.879: 8=FIX.4.4|9=155|35=X|34=316|49=MKDATAFHBCS2|52=20150520-13:30:44.052|56=MKDATACL2|262=-196066cce440b1de|268=1|279=0|269=0|55=BSANTANDER|270=32.64|271=273460|282=035|290=1|10=192|
20150520-13:30:43.879: 8=FIX.4.4|9=155|35=X|34=317|49=MKDATAFHBCS2|52=20150520-13:30:44.052|56=MKDATACL2|262=-196066cce440b1de|268=1|279=0|269=1|55=BSANTANDER|270=32.99|271=273460|282=035|290=1|10=202|
20150520-13:30:43.879: 8=FIX.4.4|9=147|35=X|34=318|49=MKDATAFHBCS2|52=20150520-13:30:44.052|56=MKDATACL2|262=428a7de7788d424b|268=1|279=2|269=0|55=SQM-B|270=12596|271=2000|282=070|290=1|10=141|
20150520-13:30:44.861: 8=FIX.4.4|9=147|35=X|34=319|49=MKDATAFHBCS2|52=20150520-13:30:45.035|56=MKDATACL2|262=428a7de7788d424b|268=1|279=0|269=0|55=SQM-B|270=12596|271=2000|282=070|290=1|10=142|
20150520-13:30:45.881: 8=FIX.4.4|9=147|35=X|34=320|49=MKDATAFHBCS2|52=20150520-13:30:46.064|56=MKDATACL2|262=428a7de7788d424b|268=1|279=2|269=0|55=SQM-B|270=12596|271=2000|282=070|290=1|10=139|
20150520-13:30:45.881: 8=FIX.4.4|9=147|35=X|34=321|49=MKDATAFHBCS2|52=20150520-13:30:46.064|56=MKDATACL2|262=428a7de7788d424b|268=1|279=0|269=0|55=SQM-B|270=12596|271=2000|282=070|290=1|10=138|
20150520-13:30:46.855: 8=FIX.4.4|9=147|35=X|34=322|49=MKDATAFHBCS2|52=20150520-13:30:47.031|56=MKDATACL2|262=428a7de7788d424b|268=1|279=2|269=0|55=SQM-B|270=12596|271=2000|282=070|290=1|10=136|
20150520-13:30:46.855: 8=FIX.4.4|9=147|35=X|34=323|49=MKDATAFHBCS2|52=20150520-13:30:47.031|56=MKDATACL2|262=428a7de7788d424b|268=1|279=0|269=0|55=SQM-B|270=12596|271=2000|282=070|290=1|10=135|
20150520-13:30:47.894: 8=FIX.4.4|9=147|35=X|34=324|49=MKDATAFHBCS2|52=20150520-13:30:48.061|56=MKDATACL2|262=428a7de7788d424b|268=1|279=2|269=0|55=SQM-B|270=12596|271=2000|282=070|290=1|10=142|
20150520-13:30:47.894: 8=FIX.4.4|9=147|35=X|34=325|49=MKDATAFHBCS2|52=20150520-13:30:48.061|56=MKDATACL2|262=428a7de7788d424b|268=1|279=0|269=0|55=SQM-B|270=12592|271=2000|282=070|290=1|10=137|
20150520-13:30:47.895: 8=FIX.4.4|9=155|35=X|34=326|49=MKDATAFHBCS2|52=20150520-13:30:48.061|56=MKDATACL2|262=-196066cce440b1de|268=1|279=0|269=0|55=BSANTANDER|270=32.66|271=273460|282=035|290=1|10=199|
20150520-13:30:48.861: 8=FIX.4.4|9=147|35=X|34=327|49=MKDATAFHBCS2|52=20150520-13:30:49.044|56=MKDATACL2|262=428a7de7788d424b|268=1|279=0|269=0|55=SQM-B|270=12596|271=2000|282=070|290=1|10=145|
20150520-13:30:48.861: 8=FIX.4.4|9=146|35=X|34=328|49=MKDATAFHBCS2|52=20150520-13:30:49.044|56=MKDATACL2|262=1299befb667d4bea|268=1|279=0|269=1|55=LAN|270=5426.4|271=4000|282=035|290=1|10=198|
20150520-13:30:49.878: 8=FIX.4.4|9=147|35=X|34=329|49=MKDATAFHBCS2|52=20150520-13:30:50.058|56=MKDATACL2|262=428a7de7788d424b|268=1|279=2|269=0|55=SQM-B|270=12596|271=2000|282=070|290=1|10=146|
20150520-13:30:49.878: 8=FIX.4.4|9=147|35=X|34=330|49=MKDATAFHBCS2|52=20150520-13:30:50.058|56=MKDATACL2|262=428a7de7788d424b|268=1|279=0|269=0|55=SQM-B|270=12592|271=2000|282=070|290=1|10=132|
20150520-13:30:51.874: 8=FIX.4.4|9=147|35=X|34=331|49=MKDATAFHBCS2|52=20150520-13:30:52.039|56=MKDATACL2|262=428a7de7788d424b|268=1|279=0|269=0|55=SQM-B|270=12593|271=2000|282=035|290=1|10=136|
20150520-13:30:52.876: 8=FIX.4.4|9=151|35=X|34=332|49=MKDATAFHBCS2|52=20150520-13:30:53.053|56=MKDATACL2|262=-17f3fffa8266bb7f|268=1|279=2|269=0|55=ENDESA|270=922.03|271=21000|282=035|290=1|10=233|
20150520-13:30:53.888: 8=FIX.4.4|9=127|35=X|34=333|49=MKDATAFHBCS2|52=20150520-13:30:54.067|56=MKDATACL2|262=1299befb667d4bea|268=1|279=1|269=5|55=LAN|270=5420|290=1|10=081|
20150520-13:30:53.920: 8=FIX.4.4|9=144|35=X|34=334|49=MKDATAFHBCS2|52=20150520-13:30:54.099|56=MKDATACL2|262=1299befb667d4bea|268=1|279=2|269=0|55=LAN|270=5420|271=2500|282=051|290=1|10=097|
20150520-13:30:53.921: 8=FIX.4.4|9=143|35=X|34=335|49=MKDATAFHBCS2|52=20150520-13:30:54.099|56=MKDATACL2|262=1299befb667d4bea|268=1|279=2|269=0|55=LAN|270=5420|271=405|282=090|290=1|10=054|
20150520-13:30:53.921: 8=FIX.4.4|9=146|35=X|34=336|49=MKDATAFHBCS2|52=20150520-13:30:54.099|56=MKDATACL2|262=1299befb667d4bea|268=1|279=0|269=1|55=LAN|270=5414.3|271=4000|282=035|290=1|10=199|
20150520-13:30:57.272: 8=FIX.4.4|9=151|35=X|34=337|49=MKDATAFHBCS2|52=20150520-13:30:57.435|56=MKDATACL2|262=-17f3fffa8266bb7f|268=1|279=0|269=0|55=ENDESA|270=922.04|271=21000|282=035|290=1|10=245|
20150520-13:30:57.273: 8=FIX.4.4|9=155|35=X|34=338|49=MKDATAFHBCS2|52=20150520-13:30:57.435|56=MKDATACL2|262=-196066cce440b1de|268=1|279=0|269=0|55=BSANTANDER|270=32.67|271=400000|282=070|290=1|10=189|
20150520-13:30:57.273: 8=FIX.4.4|9=127|35=X|34=339|49=MKDATAFHBCS2|52=20150520-13:30:57.435|56=MKDATACL2|262=1299befb667d4bea|268=1|279=1|269=5|55=LAN|270=5410|290=1|10=088|
20150520-13:30:57.274: 8=FIX.4.4|9=66|35=0|34=235|49=MKDATACL2|52=20150520-13:30:57.274|56=MKDATAFHBCS2|10=253|
20150520-13:30:57.279: 8=FIX.4.4|9=144|35=X|34=340|49=MKDATAFHBCS2|52=20150520-13:30:57.451|56=MKDATACL2|262=1299befb667d4bea|268=1|279=2|269=0|55=LAN|270=5411|271=2500|282=076|290=1|10=096|
20150520-13:30:57.279: 8=FIX.4.4|9=144|35=X|34=341|49=MKDATAFHBCS2|52=20150520-13:30:57.451|56=MKDATACL2|262=1299befb667d4bea|268=1|279=2|269=0|55=LAN|270=5411|271=1175|282=070|290=1|10=098|
20150520-13:30:57.279: 8=FIX.4.4|9=144|35=X|34=342|49=MKDATAFHBCS2|52=20150520-13:30:57.451|56=MKDATACL2|262=1299befb667d4bea|268=1|279=1|269=0|55=LAN|270=5410|271=1175|282=020|290=1|10=092|
20150520-13:30:57.279: 8=FIX.4.4|9=146|35=X|34=343|49=MKDATAFHBCS2|52=20150520-13:30:57.451|56=MKDATACL2|262=1299befb667d4bea|268=1|279=2|269=1|55=LAN|270=5414.3|271=4000|282=035|290=1|10=194|
20150520-13:30:57.279: 8=FIX.4.4|9=144|35=X|34=344|49=MKDATAFHBCS2|52=20150520-13:30:57.451|56=MKDATACL2|262=1299befb667d4bea|268=1|279=2|269=1|55=LAN|270=5430|271=4000|282=020|290=1|10=088|
20150520-13:30:57.887: 8=FIX.4.4|9=147|35=X|34=345|49=MKDATAFHBCS2|52=20150520-13:30:58.058|56=MKDATACL2|262=428a7de7788d424b|268=1|279=0|269=0|55=SQM-B|270=12594|271=2000|282=070|290=1|10=148|
20150520-13:30:57.887: 8=FIX.4.4|9=155|35=X|34=346|49=MKDATAFHBCS2|52=20150520-13:30:58.058|56=MKDATACL2|262=-196066cce440b1de|268=1|279=0|269=0|55=BSANTANDER|270=32.68|271=273460|282=035|290=1|10=210|
20150520-13:30:58.899: 8=FIX.4.4|9=147|35=X|34=347|49=MKDATAFHBCS2|52=20150520-13:30:59.069|56=MKDATACL2|262=428a7de7788d424b|268=1|279=0|269=0|55=SQM-B|270=12595|271=2000|282=035|290=1|10=155|
20150520-13:30:59.892: 8=FIX.4.4|9=127|35=X|34=348|49=MKDATAFHBCS2|52=20150520-13:31:00.065|56=MKDATACL2|262=1299befb667d4bea|268=1|279=1|269=5|55=LAN|270=5410|290=1|10=076|
20150520-13:30:59.897: 8=FIX.4.4|9=144|35=X|34=349|49=MKDATAFHBCS2|52=20150520-13:31:00.065|56=MKDATACL2|262=1299befb667d4bea|268=1|279=2|269=0|55=LAN|270=5410|271=1175|282=020|290=1|10=090|
20150520-13:31:00.891: 8=FIX.4.4|9=144|35=X|34=350|49=MKDATAFHBCS2|52=20150520-13:31:01.061|56=MKDATACL2|262=1299befb667d4bea|268=1|279=0|269=1|55=LAN|270=5490|271=4000|282=020|290=1|10=076|
20150520-13:31:01.955: 8=FIX.4.4|9=155|35=X|34=351|49=MKDATAFHBCS2|52=20150520-13:31:02.119|56=MKDATACL2|262=-196066cce440b1de|268=1|279=0|269=0|55=BSANTANDER|270=32.69|271=400000|282=070|290=1|10=176|
20150520-13:31:01.958: 8=FIX.4.4|9=127|35=X|34=352|49=MKDATAFHBCS2|52=20150520-13:31:02.119|56=MKDATACL2|262=1299befb667d4bea|268=1|279=1|269=5|55=LAN|270=5410|290=1|10=073|
20150520-13:31:01.974: 8=FIX.4.4|9=144|35=X|34=353|49=MKDATAFHBCS2|52=20150520-13:31:02.134|56=MKDATACL2|262=1299befb667d4bea|268=1|279=2|269=0|55=LAN|270=5410|271=2500|282=072|290=1|10=084|
20150520-13:31:01.975: 8=FIX.4.4|9=144|35=X|34=354|49=MKDATAFHBCS2|52=20150520-13:31:02.134|56=MKDATACL2|262=1299befb667d4bea|268=1|279=2|269=0|55=LAN|270=5410|271=7000|282=059|290=1|10=090|
20150520-13:31:01.975: 8=FIX.4.4|9=143|35=X|34=355|49=MKDATAFHBCS2|52=20150520-13:31:02.134|56=MKDATACL2|262=1299befb667d4bea|268=1|279=0|269=1|55=LAN|270=5410|271=500|282=076|290=1|10=038|
20150520-13:31:02.897: 8=FIX.4.4|9=127|35=X|34=356|49=MKDATAFHBCS2|52=20150520-13:31:03.068|56=MKDATACL2|262=1299befb667d4bea|268=1|279=1|269=5|55=LAN|270=5410|290=1|10=081|
20150520-13:31:02.905: 8=FIX.4.4|9=143|35=X|34=357|49=MKDATAFHBCS2|52=20150520-13:31:03.068|56=MKDATACL2|262=1299befb667d4bea|268=1|279=0|269=0|55=LAN|270=5410|271=641|282=070|290=1|10=046|
20150520-13:31:02.905: 8=FIX.4.4|9=143|35=X|34=358|49=MKDATAFHBCS2|52=20150520-13:31:03.068|56=MKDATACL2|262=1299befb667d4bea|268=1|279=2|269=1|55=LAN|270=5410|271=500|282=076|290=1|10=050|
20150520-13:31:04.979: 8=FIX.4.4|9=147|35=X|34=359|49=MKDATAFHBCS2|52=20150520-13:31:05.137|56=MKDATACL2|262=428a7de7788d424b|268=1|279=0|269=0|55=SQM-B|270=12596|271=2000|282=070|290=1|10=146|
20150520-13:31:05.918: 8=FIX.4.4|9=155|35=X|34=360|49=MKDATAFHBCS2|52=20150520-13:31:06.055|56=MKDATACL2|262=-196066cce440b1de|268=1|279=2|269=0|55=BSANTANDER|270=32.69|271=400000|282=070|290=1|10=181|
20150520-13:31:05.918: 8=FIX.4.4|9=155|35=X|34=361|49=MKDATAFHBCS2|52=20150520-13:31:06.055|56=MKDATACL2|262=-196066cce440b1de|268=1|279=0|269=0|55=BSANTANDER|270=32.69|271=400000|282=070|290=1|10=180|
20150520-13:31:05.918: 8=FIX.4.4|9=147|35=X|34=362|49=MKDATAFHBCS2|52=20150520-13:31:06.071|56=MKDATACL2|262=428a7de7788d424b|268=1|279=0|269=0|55=SQM-B|270=12597|271=2000|282=035|290=1|10=140|
20150520-13:31:06.911: 8=FIX.4.4|9=155|35=X|34=363|49=MKDATAFHBCS2|52=20150520-13:31:07.066|56=MKDATACL2|262=-196066cce440b1de|268=1|279=2|269=0|55=BSANTANDER|270=32.69|271=400000|282=070|290=1|10=187|
20150520-13:31:06.914: 8=FIX.4.4|9=155|35=X|34=364|49=MKDATAFHBCS2|52=20150520-13:31:07.066|56=MKDATACL2|262=-196066cce440b1de|268=1|279=0|269=0|55=BSANTANDER|270=32.56|271=400000|282=070|290=1|10=182|
20150520-13:31:06.916: 8=FIX.4.4|9=155|35=X|34=365|49=MKDATAFHBCS2|52=20150520-13:31:07.066|56=MKDATACL2|262=-196066cce440b1de|268=1|279=2|269=1|55=BSANTANDER|270=32.99|271=273460|282=035|290=1|10=212|
20150520-13:31:07.911: 8=FIX.4.4|9=155|35=X|34=366|49=MKDATAFHBCS2|52=20150520-13:31:08.062|56=MKDATACL2|262=-196066cce440b1de|268=1|279=0|269=0|55=BSANTANDER|270=32.69|271=400000|282=070|290=1|10=185|
20150520-13:31:08.898: 8=FIX.4.4|9=154|35=X|34=367|49=MKDATAFHBCS2|52=20150520-13:31:09.042|56=MKDATACL2|262=3728473f0e904e3c|268=1|279=2|269=0|55=CORPBANCA|270=7.307|271=1500000|282=070|290=1|10=013|
20150520-13:31:08.899: 8=FIX.4.4|9=155|35=X|34=368|49=MKDATAFHBCS2|52=20150520-13:31:09.042|56=MKDATACL2|262=-196066cce440b1de|268=1|279=2|269=0|55=BSANTANDER|270=32.69|271=400000|282=070|290=1|10=188|
20150520-13:31:10.920: 8=FIX.4.4|9=155|35=X|34=369|49=MKDATAFHBCS2|52=20150520-13:31:11.065|56=MKDATACL2|262=-196066cce440b1de|268=1|279=2|269=0|55=BSANTANDER|270=32.56|271=231634|282=035|290=1|10=199|
20150520-13:31:11.927: 8=FIX.4.4|9=151|35=X|34=370|49=MKDATAFHBCS2|52=20150520-13:31:12.061|56=MKDATACL2|262=58356fdb1cc74d87|268=1|279=0|269=0|55=CENCOSUD|270=1577.4|271=3000|282=070|290=1|10=211|
20150520-13:31:11.928: 8=FIX.4.4|9=155|35=X|34=371|49=MKDATAFHBCS2|52=20150520-13:31:12.077|56=MKDATACL2|262=-196066cce440b1de|268=1|279=0|269=0|55=BSANTANDER|270=32.56|271=400000|282=070|290=1|10=178|
20150520-13:31:12.917: 8=FIX.4.4|9=154|35=X|34=372|49=MKDATAFHBCS2|52=20150520-13:31:13.057|56=MKDATACL2|262=3728473f0e904e3c|268=1|279=0|269=0|55=CORPBANCA|270=7.308|271=1500000|282=070|290=1|10=009|
20150520-13:31:12.917: 8=FIX.4.4|9=147|35=X|34=373|49=MKDATAFHBCS2|52=20150520-13:31:13.057|56=MKDATACL2|262=428a7de7788d424b|268=1|279=0|269=0|55=SQM-B|270=12598|271=2000|282=070|290=1|10=144|
20150520-13:31:14.920: 8=FIX.4.4|9=151|35=X|34=374|49=MKDATAFHBCS2|52=20150520-13:31:15.048|56=MKDATACL2|262=58356fdb1cc74d87|268=1|279=2|269=0|55=CENCOSUD|270=1577.4|271=3000|282=070|290=1|10=225|
20150520-13:31:14.920: 8=FIX.4.4|9=154|35=X|34=375|49=MKDATAFHBCS2|52=20150520-13:31:15.048|56=MKDATACL2|262=3728473f0e904e3c|268=1|279=2|269=0|55=CORPBANCA|270=7.308|271=1500000|282=070|290=1|10=016|
