20150520-11:21:07.068: 8=FIX.4.4|9=69|35=5|34=1|49=LVBSG|52=20150520-11:21:07.067|56=ADR_ARBITRAGE_IB_XNYS|10=184|
20150520-11:21:07.072: 8=FIX.4.4|9=0163|35=5|49=ADR_ARBITRAGE_IB_XNYS|56=LVBSG|34=1|52=20150520-11:21:07|58=00100000004crxi_1891- CODE: 1-200-5: Expecting Logon but got Logout: disconnecting immediately|10=009|
20150520-11:21:08.054: 8=FIX.4.4|9=69|35=5|34=1|49=LVBSG|52=20150520-11:21:08.054|56=ADR_ARBITRAGE_IB_XNYS|10=181|
20150520-11:21:08.058: 8=FIX.4.4|9=0163|35=5|49=ADR_ARBITRAGE_IB_XNYS|56=LVBSG|34=2|52=20150520-11:21:08|58=00100000004crxi_1891- CODE: 1-200-5: Expecting Logon but got Logout: disconnecting immediately|10=011|
20150520-11:21:09.047: 8=FIX.4.4|9=87|35=A|34=1|49=LVBSG|52=20150520-11:21:09.046|56=ADR_ARBITRAGE_IB_XNYS|98=0|108=60|141=Y|10=012|
20150520-11:21:09.053: 8=FIX.4.4|9=0083|35=A|49=ADR_ARBITRAGE_IB_XNYS|56=LVBSG|34=1|52=20150520-11:21:09|98=0|108=60|141=Y|10=160|
20150520-11:21:48.180: 8=FIX.4.4|9=0093|35=1|49=ADR_ARBITRAGE_IB_XNYS|56=LVBSG|34=2|52=20150520-11:21:48|112=Appia-20150520-11:21:48|10=151|
20150520-11:21:48.182: 8=FIX.4.4|9=97|35=0|34=2|49=LVBSG|52=20150520-11:21:48.181|56=ADR_ARBITRAGE_IB_XNYS|112=Appia-20150520-11:21:48|10=002|
20150520-11:22:48.181: 8=FIX.4.4|9=0065|35=0|49=ADR_ARBITRAGE_IB_XNYS|56=LVBSG|34=3|52=20150520-11:22:48|10=076|
20150520-11:22:48.183: 8=FIX.4.4|9=69|35=0|34=3|49=LVBSG|52=20150520-11:22:48.183|56=ADR_ARBITRAGE_IB_XNYS|10=186|
20150520-11:23:48.189: 8=FIX.4.4|9=0065|35=0|49=ADR_ARBITRAGE_IB_XNYS|56=LVBSG|34=4|52=20150520-11:23:48|10=078|
20150520-11:23:48.191: 8=FIX.4.4|9=69|35=0|34=4|49=LVBSG|52=20150520-11:23:48.191|56=ADR_ARBITRAGE_IB_XNYS|10=187|
20150520-11:24:48.192: 8=FIX.4.4|9=0065|35=0|49=ADR_ARBITRAGE_IB_XNYS|56=LVBSG|34=5|52=20150520-11:24:48|10=080|
20150520-11:24:48.194: 8=FIX.4.4|9=69|35=0|34=5|49=LVBSG|52=20150520-11:24:48.194|56=ADR_ARBITRAGE_IB_XNYS|10=192|
20150520-11:25:48.182: 8=FIX.4.4|9=0065|35=0|49=ADR_ARBITRAGE_IB_XNYS|56=LVBSG|34=6|52=20150520-11:25:48|10=082|
20150520-11:25:49.042: 8=FIX.4.4|9=69|35=0|34=6|49=LVBSG|52=20150520-11:25:49.042|56=ADR_ARBITRAGE_IB_XNYS|10=187|
20150520-11:26:48.188: 8=FIX.4.4|9=0065|35=0|49=ADR_ARBITRAGE_IB_XNYS|56=LVBSG|34=7|52=20150520-11:26:48|10=084|
20150520-11:26:49.043: 8=FIX.4.4|9=69|35=0|34=7|49=LVBSG|52=20150520-11:26:49.043|56=ADR_ARBITRAGE_IB_XNYS|10=190|
20150520-11:27:48.186: 8=FIX.4.4|9=0065|35=0|49=ADR_ARBITRAGE_IB_XNYS|56=LVBSG|34=8|52=20150520-11:27:48|10=086|
20150520-11:27:50.043: 8=FIX.4.4|9=69|35=0|34=8|49=LVBSG|52=20150520-11:27:50.042|56=ADR_ARBITRAGE_IB_XNYS|10=183|
20150520-11:28:48.182: 8=FIX.4.4|9=0065|35=0|49=ADR_ARBITRAGE_IB_XNYS|56=LVBSG|34=9|52=20150520-11:28:48|10=088|
20150520-11:28:51.042: 8=FIX.4.4|9=69|35=0|34=9|49=LVBSG|52=20150520-11:28:51.042|56=ADR_ARBITRAGE_IB_XNYS|10=186|
20150520-11:29:48.182: 8=FIX.4.4|9=0066|35=0|49=ADR_ARBITRAGE_IB_XNYS|56=LVBSG|34=10|52=20150520-11:29:48|10=130|
20150520-11:29:52.042: 8=FIX.4.4|9=70|35=0|34=10|49=LVBSG|52=20150520-11:29:52.042|56=ADR_ARBITRAGE_IB_XNYS|10=220|
20150520-11:30:48.182: 8=FIX.4.4|9=0066|35=0|49=ADR_ARBITRAGE_IB_XNYS|56=LVBSG|34=11|52=20150520-11:30:48|10=123|
20150520-11:30:53.042: 8=FIX.4.4|9=70|35=0|34=11|49=LVBSG|52=20150520-11:30:53.041|56=ADR_ARBITRAGE_IB_XNYS|10=213|
20150520-11:31:48.183: 8=FIX.4.4|9=0066|35=0|49=ADR_ARBITRAGE_IB_XNYS|56=LVBSG|34=12|52=20150520-11:31:48|10=125|
20150520-11:31:53.042: 8=FIX.4.4|9=70|35=0|34=12|49=LVBSG|52=20150520-11:31:53.042|56=ADR_ARBITRAGE_IB_XNYS|10=216|
20150520-11:32:48.183: 8=FIX.4.4|9=0066|35=0|49=ADR_ARBITRAGE_IB_XNYS|56=LVBSG|34=13|52=20150520-11:32:48|10=127|
20150520-11:32:53.043: 8=FIX.4.4|9=70|35=0|34=13|49=LVBSG|52=20150520-11:32:53.042|56=ADR_ARBITRAGE_IB_XNYS|10=218|
20150520-11:33:48.184: 8=FIX.4.4|9=0066|35=0|49=ADR_ARBITRAGE_IB_XNYS|56=LVBSG|34=14|52=20150520-11:33:48|10=129|
20150520-11:33:53.042: 8=FIX.4.4|9=70|35=0|34=14|49=LVBSG|52=20150520-11:33:53.042|56=ADR_ARBITRAGE_IB_XNYS|10=220|
20150520-11:34:48.184: 8=FIX.4.4|9=0066|35=0|49=ADR_ARBITRAGE_IB_XNYS|56=LVBSG|34=15|52=20150520-11:34:48|10=131|
20150520-11:34:54.042: 8=FIX.4.4|9=70|35=0|34=15|49=LVBSG|52=20150520-11:34:54.041|56=ADR_ARBITRAGE_IB_XNYS|10=222|
20150520-11:35:48.186: 8=FIX.4.4|9=0066|35=0|49=ADR_ARBITRAGE_IB_XNYS|56=LVBSG|34=16|52=20150520-11:35:48|10=133|
20150520-11:35:54.042: 8=FIX.4.4|9=70|35=0|34=16|49=LVBSG|52=20150520-11:35:54.042|56=ADR_ARBITRAGE_IB_XNYS|10=225|
20150520-11:36:48.184: 8=FIX.4.4|9=0066|35=0|49=ADR_ARBITRAGE_IB_XNYS|56=LVBSG|34=17|52=20150520-11:36:48|10=135|
20150520-11:36:55.041: 8=FIX.4.4|9=70|35=0|34=17|49=LVBSG|52=20150520-11:36:55.041|56=ADR_ARBITRAGE_IB_XNYS|10=227|
20150520-11:37:48.185: 8=FIX.4.4|9=0066|35=0|49=ADR_ARBITRAGE_IB_XNYS|56=LVBSG|34=18|52=20150520-11:37:48|10=137|
20150520-11:37:55.042: 8=FIX.4.4|9=70|35=0|34=18|49=LVBSG|52=20150520-11:37:55.042|56=ADR_ARBITRAGE_IB_XNYS|10=230|
20150520-11:38:48.186: 8=FIX.4.4|9=0066|35=0|49=ADR_ARBITRAGE_IB_XNYS|56=LVBSG|34=19|52=20150520-11:38:48|10=139|
20150520-11:38:55.042: 8=FIX.4.4|9=70|35=0|34=19|49=LVBSG|52=20150520-11:38:55.042|56=ADR_ARBITRAGE_IB_XNYS|10=232|
20150520-11:39:48.185: 8=FIX.4.4|9=0066|35=0|49=ADR_ARBITRAGE_IB_XNYS|56=LVBSG|34=20|52=20150520-11:39:48|10=132|
20150520-11:39:55.042: 8=FIX.4.4|9=70|35=0|34=20|49=LVBSG|52=20150520-11:39:55.042|56=ADR_ARBITRAGE_IB_XNYS|10=225|
20150520-11:40:48.186: 8=FIX.4.4|9=0066|35=0|49=ADR_ARBITRAGE_IB_XNYS|56=LVBSG|34=21|52=20150520-11:40:48|10=125|
20150520-11:40:56.042: 8=FIX.4.4|9=70|35=0|34=21|49=LVBSG|52=20150520-11:40:56.041|56=ADR_ARBITRAGE_IB_XNYS|10=218|
20150520-11:41:48.187: 8=FIX.4.4|9=0066|35=0|49=ADR_ARBITRAGE_IB_XNYS|56=LVBSG|34=22|52=20150520-11:41:48|10=127|
20150520-11:41:56.042: 8=FIX.4.4|9=70|35=0|34=22|49=LVBSG|52=20150520-11:41:56.042|56=ADR_ARBITRAGE_IB_XNYS|10=221|
20150520-11:42:48.186: 8=FIX.4.4|9=0066|35=0|49=ADR_ARBITRAGE_IB_XNYS|56=LVBSG|34=23|52=20150520-11:42:48|10=129|
20150520-11:42:56.042: 8=FIX.4.4|9=70|35=0|34=23|49=LVBSG|52=20150520-11:42:56.042|56=ADR_ARBITRAGE_IB_XNYS|10=223|
20150520-11:43:48.186: 8=FIX.4.4|9=0066|35=0|49=ADR_ARBITRAGE_IB_XNYS|56=LVBSG|34=24|52=20150520-11:43:48|10=131|
20150520-11:43:56.042: 8=FIX.4.4|9=70|35=0|34=24|49=LVBSG|52=20150520-11:43:56.042|56=ADR_ARBITRAGE_IB_XNYS|10=225|
20150520-11:44:48.200: 8=FIX.4.4|9=0066|35=0|49=ADR_ARBITRAGE_IB_XNYS|56=LVBSG|34=25|52=20150520-11:44:48|10=133|
20150520-11:44:57.042: 8=FIX.4.4|9=70|35=0|34=25|49=LVBSG|52=20150520-11:44:57.041|56=ADR_ARBITRAGE_IB_XNYS|10=227|
20150520-11:45:48.189: 8=FIX.4.4|9=0066|35=0|49=ADR_ARBITRAGE_IB_XNYS|56=LVBSG|34=26|52=20150520-11:45:48|10=135|
20150520-11:45:57.042: 8=FIX.4.4|9=70|35=0|34=26|49=LVBSG|52=20150520-11:45:57.042|56=ADR_ARBITRAGE_IB_XNYS|10=230|
20150520-11:46:48.186: 8=FIX.4.4|9=0066|35=0|49=ADR_ARBITRAGE_IB_XNYS|56=LVBSG|34=27|52=20150520-11:46:48|10=137|
20150520-11:46:58.041: 8=FIX.4.4|9=70|35=0|34=27|49=LVBSG|52=20150520-11:46:58.041|56=ADR_ARBITRAGE_IB_XNYS|10=232|
20150520-11:47:48.186: 8=FIX.4.4|9=0066|35=0|49=ADR_ARBITRAGE_IB_XNYS|56=LVBSG|34=28|52=20150520-11:47:48|10=139|
20150520-11:47:58.042: 8=FIX.4.4|9=70|35=0|34=28|49=LVBSG|52=20150520-11:47:58.042|56=ADR_ARBITRAGE_IB_XNYS|10=235|
20150520-11:48:48.187: 8=FIX.4.4|9=0066|35=0|49=ADR_ARBITRAGE_IB_XNYS|56=LVBSG|34=29|52=20150520-11:48:48|10=141|
20150520-11:48:58.042: 8=FIX.4.4|9=70|35=0|34=29|49=LVBSG|52=20150520-11:48:58.042|56=ADR_ARBITRAGE_IB_XNYS|10=237|
20150520-11:49:48.187: 8=FIX.4.4|9=0066|35=0|49=ADR_ARBITRAGE_IB_XNYS|56=LVBSG|34=30|52=20150520-11:49:48|10=134|
20150520-11:49:59.042: 8=FIX.4.4|9=70|35=0|34=30|49=LVBSG|52=20150520-11:49:59.042|56=ADR_ARBITRAGE_IB_XNYS|10=231|
20150520-11:50:48.188: 8=FIX.4.4|9=0066|35=0|49=ADR_ARBITRAGE_IB_XNYS|56=LVBSG|34=31|52=20150520-11:50:48|10=127|
20150520-11:50:59.042: 8=FIX.4.4|9=70|35=0|34=31|49=LVBSG|52=20150520-11:50:59.042|56=ADR_ARBITRAGE_IB_XNYS|10=224|
20150520-11:51:48.188: 8=FIX.4.4|9=0066|35=0|49=ADR_ARBITRAGE_IB_XNYS|56=LVBSG|34=32|52=20150520-11:51:48|10=129|
20150520-11:51:59.043: 8=FIX.4.4|9=70|35=0|34=32|49=LVBSG|52=20150520-11:51:59.042|56=ADR_ARBITRAGE_IB_XNYS|10=226|
20150520-11:52:48.189: 8=FIX.4.4|9=0066|35=0|49=ADR_ARBITRAGE_IB_XNYS|56=LVBSG|34=33|52=20150520-11:52:48|10=131|
20150520-11:52:59.042: 8=FIX.4.4|9=70|35=0|34=33|49=LVBSG|52=20150520-11:52:59.042|56=ADR_ARBITRAGE_IB_XNYS|10=228|
20150520-11:53:48.195: 8=FIX.4.4|9=0066|35=0|49=ADR_ARBITRAGE_IB_XNYS|56=LVBSG|34=34|52=20150520-11:53:48|10=133|
20150520-11:53:59.042: 8=FIX.4.4|9=70|35=0|34=34|49=LVBSG|52=20150520-11:53:59.042|56=ADR_ARBITRAGE_IB_XNYS|10=230|
20150520-11:54:48.189: 8=FIX.4.4|9=0066|35=0|49=ADR_ARBITRAGE_IB_XNYS|56=LVBSG|34=35|52=20150520-11:54:48|10=135|
20150520-11:54:59.042: 8=FIX.4.4|9=70|35=0|34=35|49=LVBSG|52=20150520-11:54:59.042|56=ADR_ARBITRAGE_IB_XNYS|10=232|
20150520-11:55:48.190: 8=FIX.4.4|9=0066|35=0|49=ADR_ARBITRAGE_IB_XNYS|56=LVBSG|34=36|52=20150520-11:55:48|10=137|
20150520-11:56:00.042: 8=FIX.4.4|9=70|35=0|34=36|49=LVBSG|52=20150520-11:56:00.042|56=ADR_ARBITRAGE_IB_XNYS|10=221|
20150520-11:56:48.217: 8=FIX.4.4|9=0066|35=0|49=ADR_ARBITRAGE_IB_XNYS|56=LVBSG|34=37|52=20150520-11:56:48|10=139|
20150520-11:57:01.042: 8=FIX.4.4|9=70|35=0|34=37|49=LVBSG|52=20150520-11:57:01.042|56=ADR_ARBITRAGE_IB_XNYS|10=224|
20150520-11:57:48.193: 8=FIX.4.4|9=0066|35=0|49=ADR_ARBITRAGE_IB_XNYS|56=LVBSG|34=38|52=20150520-11:57:48|10=141|
20150520-11:58:01.042: 8=FIX.4.4|9=70|35=0|34=38|49=LVBSG|52=20150520-11:58:01.042|56=ADR_ARBITRAGE_IB_XNYS|10=226|
20150520-11:58:48.192: 8=FIX.4.4|9=0066|35=0|49=ADR_ARBITRAGE_IB_XNYS|56=LVBSG|34=39|52=20150520-11:58:48|10=143|
20150520-11:59:02.042: 8=FIX.4.4|9=70|35=0|34=39|49=LVBSG|52=20150520-11:59:02.042|56=ADR_ARBITRAGE_IB_XNYS|10=229|
20150520-11:59:48.192: 8=FIX.4.4|9=0066|35=0|49=ADR_ARBITRAGE_IB_XNYS|56=LVBSG|34=40|52=20150520-11:59:48|10=136|
20150520-12:00:02.042: 8=FIX.4.4|9=70|35=0|34=40|49=LVBSG|52=20150520-12:00:02.042|56=ADR_ARBITRAGE_IB_XNYS|10=208|
20150520-12:00:48.191: 8=FIX.4.4|9=0066|35=0|49=ADR_ARBITRAGE_IB_XNYS|56=LVBSG|34=41|52=20150520-12:00:48|10=124|
20150520-12:01:02.042: 8=FIX.4.4|9=70|35=0|34=41|49=LVBSG|52=20150520-12:01:02.042|56=ADR_ARBITRAGE_IB_XNYS|10=210|
20150520-12:01:48.192: 8=FIX.4.4|9=0066|35=0|49=ADR_ARBITRAGE_IB_XNYS|56=LVBSG|34=42|52=20150520-12:01:48|10=126|
20150520-12:02:03.041: 8=FIX.4.4|9=70|35=0|34=42|49=LVBSG|52=20150520-12:02:03.041|56=ADR_ARBITRAGE_IB_XNYS|10=212|
20150520-12:02:48.192: 8=FIX.4.4|9=0066|35=0|49=ADR_ARBITRAGE_IB_XNYS|56=LVBSG|34=43|52=20150520-12:02:48|10=128|
20150520-12:03:03.042: 8=FIX.4.4|9=70|35=0|34=43|49=LVBSG|52=20150520-12:03:03.042|56=ADR_ARBITRAGE_IB_XNYS|10=215|
20150520-12:03:48.192: 8=FIX.4.4|9=0066|35=0|49=ADR_ARBITRAGE_IB_XNYS|56=LVBSG|34=44|52=20150520-12:03:48|10=130|
20150520-12:04:03.042: 8=FIX.4.4|9=70|35=0|34=44|49=LVBSG|52=20150520-12:04:03.042|56=ADR_ARBITRAGE_IB_XNYS|10=217|
20150520-12:04:48.192: 8=FIX.4.4|9=0066|35=0|49=ADR_ARBITRAGE_IB_XNYS|56=LVBSG|34=45|52=20150520-12:04:48|10=132|
20150520-12:05:03.042: 8=FIX.4.4|9=70|35=0|34=45|49=LVBSG|52=20150520-12:05:03.042|56=ADR_ARBITRAGE_IB_XNYS|10=219|
20150520-12:05:48.193: 8=FIX.4.4|9=0066|35=0|49=ADR_ARBITRAGE_IB_XNYS|56=LVBSG|34=46|52=20150520-12:05:48|10=134|
20150520-12:06:03.042: 8=FIX.4.4|9=70|35=0|34=46|49=LVBSG|52=20150520-12:06:03.042|56=ADR_ARBITRAGE_IB_XNYS|10=221|
20150520-12:06:48.192: 8=FIX.4.4|9=0066|35=0|49=ADR_ARBITRAGE_IB_XNYS|56=LVBSG|34=47|52=20150520-12:06:48|10=136|
20150520-12:07:03.042: 8=FIX.4.4|9=70|35=0|34=47|49=LVBSG|52=20150520-12:07:03.042|56=ADR_ARBITRAGE_IB_XNYS|10=223|
20150520-12:07:48.192: 8=FIX.4.4|9=0066|35=0|49=ADR_ARBITRAGE_IB_XNYS|56=LVBSG|34=48|52=20150520-12:07:48|10=138|
20150520-12:08:04.042: 8=FIX.4.4|9=70|35=0|34=48|49=LVBSG|52=20150520-12:08:04.042|56=ADR_ARBITRAGE_IB_XNYS|10=226|
20150520-12:08:48.192: 8=FIX.4.4|9=0066|35=0|49=ADR_ARBITRAGE_IB_XNYS|56=LVBSG|34=49|52=20150520-12:08:48|10=140|
20150520-12:09:04.042: 8=FIX.4.4|9=70|35=0|34=49|49=LVBSG|52=20150520-12:09:04.042|56=ADR_ARBITRAGE_IB_XNYS|10=228|
20150520-12:09:48.193: 8=FIX.4.4|9=0066|35=0|49=ADR_ARBITRAGE_IB_XNYS|56=LVBSG|34=50|52=20150520-12:09:48|10=133|
20150520-12:10:04.042: 8=FIX.4.4|9=70|35=0|34=50|49=LVBSG|52=20150520-12:10:04.042|56=ADR_ARBITRAGE_IB_XNYS|10=212|
20150520-12:10:48.193: 8=FIX.4.4|9=0066|35=0|49=ADR_ARBITRAGE_IB_XNYS|56=LVBSG|34=51|52=20150520-12:10:48|10=126|
20150520-12:11:05.042: 8=FIX.4.4|9=70|35=0|34=51|49=LVBSG|52=20150520-12:11:05.042|56=ADR_ARBITRAGE_IB_XNYS|10=215|
20150520-12:11:48.193: 8=FIX.4.4|9=0066|35=0|49=ADR_ARBITRAGE_IB_XNYS|56=LVBSG|34=52|52=20150520-12:11:48|10=128|
20150520-12:12:05.042: 8=FIX.4.4|9=70|35=0|34=52|49=LVBSG|52=20150520-12:12:05.042|56=ADR_ARBITRAGE_IB_XNYS|10=217|
20150520-12:12:48.194: 8=FIX.4.4|9=0066|35=0|49=ADR_ARBITRAGE_IB_XNYS|56=LVBSG|34=53|52=20150520-12:12:48|10=130|
20150520-12:13:06.042: 8=FIX.4.4|9=70|35=0|34=53|49=LVBSG|52=20150520-12:13:06.042|56=ADR_ARBITRAGE_IB_XNYS|10=220|
20150520-12:13:48.193: 8=FIX.4.4|9=0066|35=0|49=ADR_ARBITRAGE_IB_XNYS|56=LVBSG|34=54|52=20150520-12:13:48|10=132|
20150520-12:14:06.042: 8=FIX.4.4|9=70|35=0|34=54|49=LVBSG|52=20150520-12:14:06.042|56=ADR_ARBITRAGE_IB_XNYS|10=222|
20150520-12:14:48.193: 8=FIX.4.4|9=0066|35=0|49=ADR_ARBITRAGE_IB_XNYS|56=LVBSG|34=55|52=20150520-12:14:48|10=134|
20150520-12:15:07.042: 8=FIX.4.4|9=70|35=0|34=55|49=LVBSG|52=20150520-12:15:07.042|56=ADR_ARBITRAGE_IB_XNYS|10=225|
20150520-12:15:48.193: 8=FIX.4.4|9=0066|35=0|49=ADR_ARBITRAGE_IB_XNYS|56=LVBSG|34=56|52=20150520-12:15:48|10=136|
20150520-12:16:07.042: 8=FIX.4.4|9=70|35=0|34=56|49=LVBSG|52=20150520-12:16:07.042|56=ADR_ARBITRAGE_IB_XNYS|10=227|
20150520-12:16:48.193: 8=FIX.4.4|9=0066|35=0|49=ADR_ARBITRAGE_IB_XNYS|56=LVBSG|34=57|52=20150520-12:16:48|10=138|
20150520-12:17:08.042: 8=FIX.4.4|9=70|35=0|34=57|49=LVBSG|52=20150520-12:17:08.042|56=ADR_ARBITRAGE_IB_XNYS|10=230|
20150520-12:17:48.194: 8=FIX.4.4|9=0066|35=0|49=ADR_ARBITRAGE_IB_XNYS|56=LVBSG|34=58|52=20150520-12:17:48|10=140|
20150520-12:18:09.042: 8=FIX.4.4|9=70|35=0|34=58|49=LVBSG|52=20150520-12:18:09.041|56=ADR_ARBITRAGE_IB_XNYS|10=232|
20150520-12:18:48.194: 8=FIX.4.4|9=0066|35=0|49=ADR_ARBITRAGE_IB_XNYS|56=LVBSG|34=59|52=20150520-12:18:48|10=142|
20150520-12:19:09.041: 8=FIX.4.4|9=70|35=0|34=59|49=LVBSG|52=20150520-12:19:09.041|56=ADR_ARBITRAGE_IB_XNYS|10=234|
20150520-12:19:48.194: 8=FIX.4.4|9=0066|35=0|49=ADR_ARBITRAGE_IB_XNYS|56=LVBSG|34=60|52=20150520-12:19:48|10=135|
20150520-12:20:09.042: 8=FIX.4.4|9=70|35=0|34=60|49=LVBSG|52=20150520-12:20:09.041|56=ADR_ARBITRAGE_IB_XNYS|10=218|
20150520-12:20:48.195: 8=FIX.4.4|9=0066|35=0|49=ADR_ARBITRAGE_IB_XNYS|56=LVBSG|34=61|52=20150520-12:20:48|10=128|
20150520-12:21:09.042: 8=FIX.4.4|9=70|35=0|34=61|49=LVBSG|52=20150520-12:21:09.042|56=ADR_ARBITRAGE_IB_XNYS|10=221|
20150520-12:21:48.195: 8=FIX.4.4|9=0066|35=0|49=ADR_ARBITRAGE_IB_XNYS|56=LVBSG|34=62|52=20150520-12:21:48|10=130|
20150520-12:22:10.041: 8=FIX.4.4|9=70|35=0|34=62|49=LVBSG|52=20150520-12:22:10.041|56=ADR_ARBITRAGE_IB_XNYS|10=214|
20150520-12:22:48.194: 8=FIX.4.4|9=0066|35=0|49=ADR_ARBITRAGE_IB_XNYS|56=LVBSG|34=63|52=20150520-12:22:48|10=132|
20150520-12:23:10.041: 8=FIX.4.4|9=70|35=0|34=63|49=LVBSG|52=20150520-12:23:10.041|56=ADR_ARBITRAGE_IB_XNYS|10=216|
20150520-12:23:48.195: 8=FIX.4.4|9=0066|35=0|49=ADR_ARBITRAGE_IB_XNYS|56=LVBSG|34=64|52=20150520-12:23:48|10=134|
20150520-12:24:10.042: 8=FIX.4.4|9=70|35=0|34=64|49=LVBSG|52=20150520-12:24:10.042|56=ADR_ARBITRAGE_IB_XNYS|10=219|
20150520-12:24:48.194: 8=FIX.4.4|9=0066|35=0|49=ADR_ARBITRAGE_IB_XNYS|56=LVBSG|34=65|52=20150520-12:24:48|10=136|
20150520-12:25:11.042: 8=FIX.4.4|9=70|35=0|34=65|49=LVBSG|52=20150520-12:25:11.042|56=ADR_ARBITRAGE_IB_XNYS|10=222|
20150520-12:25:48.195: 8=FIX.4.4|9=0066|35=0|49=ADR_ARBITRAGE_IB_XNYS|56=LVBSG|34=66|52=20150520-12:25:48|10=138|
20150520-12:26:12.042: 8=FIX.4.4|9=70|35=0|34=66|49=LVBSG|52=20150520-12:26:12.041|56=ADR_ARBITRAGE_IB_XNYS|10=224|
20150520-12:26:48.196: 8=FIX.4.4|9=0066|35=0|49=ADR_ARBITRAGE_IB_XNYS|56=LVBSG|34=67|52=20150520-12:26:48|10=140|
20150520-12:27:12.041: 8=FIX.4.4|9=70|35=0|34=67|49=LVBSG|52=20150520-12:27:12.041|56=ADR_ARBITRAGE_IB_XNYS|10=226|
20150520-12:27:48.197: 8=FIX.4.4|9=0066|35=0|49=ADR_ARBITRAGE_IB_XNYS|56=LVBSG|34=68|52=20150520-12:27:48|10=142|
20150520-12:28:12.042: 8=FIX.4.4|9=70|35=0|34=68|49=LVBSG|52=20150520-12:28:12.042|56=ADR_ARBITRAGE_IB_XNYS|10=229|
20150520-12:28:48.196: 8=FIX.4.4|9=0066|35=0|49=ADR_ARBITRAGE_IB_XNYS|56=LVBSG|34=69|52=20150520-12:28:48|10=144|
20150520-12:29:13.042: 8=FIX.4.4|9=70|35=0|34=69|49=LVBSG|52=20150520-12:29:13.041|56=ADR_ARBITRAGE_IB_XNYS|10=231|
20150520-12:29:48.196: 8=FIX.4.4|9=0066|35=0|49=ADR_ARBITRAGE_IB_XNYS|56=LVBSG|34=70|52=20150520-12:29:48|10=137|
20150520-12:30:13.042: 8=FIX.4.4|9=70|35=0|34=70|49=LVBSG|52=20150520-12:30:13.041|56=ADR_ARBITRAGE_IB_XNYS|10=215|
20150520-12:30:48.196: 8=FIX.4.4|9=0066|35=0|49=ADR_ARBITRAGE_IB_XNYS|56=LVBSG|34=71|52=20150520-12:30:48|10=130|
20150520-12:31:13.042: 8=FIX.4.4|9=70|35=0|34=71|49=LVBSG|52=20150520-12:31:13.042|56=ADR_ARBITRAGE_IB_XNYS|10=218|
20150520-12:31:48.197: 8=FIX.4.4|9=0066|35=0|49=ADR_ARBITRAGE_IB_XNYS|56=LVBSG|34=72|52=20150520-12:31:48|10=132|
20150520-12:32:14.042: 8=FIX.4.4|9=70|35=0|34=72|49=LVBSG|52=20150520-12:32:14.041|56=ADR_ARBITRAGE_IB_XNYS|10=220|
20150520-12:32:48.199: 8=FIX.4.4|9=0066|35=0|49=ADR_ARBITRAGE_IB_XNYS|56=LVBSG|34=73|52=20150520-12:32:48|10=134|
20150520-12:33:14.042: 8=FIX.4.4|9=70|35=0|34=73|49=LVBSG|52=20150520-12:33:14.042|56=ADR_ARBITRAGE_IB_XNYS|10=223|
20150520-12:33:48.198: 8=FIX.4.4|9=0066|35=0|49=ADR_ARBITRAGE_IB_XNYS|56=LVBSG|34=74|52=20150520-12:33:48|10=136|
20150520-12:34:14.042: 8=FIX.4.4|9=70|35=0|34=74|49=LVBSG|52=20150520-12:34:14.042|56=ADR_ARBITRAGE_IB_XNYS|10=225|
20150520-12:34:48.198: 8=FIX.4.4|9=0066|35=0|49=ADR_ARBITRAGE_IB_XNYS|56=LVBSG|34=75|52=20150520-12:34:48|10=138|
20150520-12:35:14.042: 8=FIX.4.4|9=70|35=0|34=75|49=LVBSG|52=20150520-12:35:14.042|56=ADR_ARBITRAGE_IB_XNYS|10=227|
20150520-12:35:48.199: 8=FIX.4.4|9=0066|35=0|49=ADR_ARBITRAGE_IB_XNYS|56=LVBSG|34=76|52=20150520-12:35:48|10=140|
20150520-12:36:14.042: 8=FIX.4.4|9=70|35=0|34=76|49=LVBSG|52=20150520-12:36:14.042|56=ADR_ARBITRAGE_IB_XNYS|10=229|
20150520-12:36:48.198: 8=FIX.4.4|9=0066|35=0|49=ADR_ARBITRAGE_IB_XNYS|56=LVBSG|34=77|52=20150520-12:36:48|10=142|
20150520-12:37:14.042: 8=FIX.4.4|9=70|35=0|34=77|49=LVBSG|52=20150520-12:37:14.042|56=ADR_ARBITRAGE_IB_XNYS|10=231|
20150520-12:37:48.198: 8=FIX.4.4|9=0066|35=0|49=ADR_ARBITRAGE_IB_XNYS|56=LVBSG|34=78|52=20150520-12:37:48|10=144|
20150520-12:38:15.042: 8=FIX.4.4|9=70|35=0|34=78|49=LVBSG|52=20150520-12:38:15.042|56=ADR_ARBITRAGE_IB_XNYS|10=234|
20150520-12:38:48.198: 8=FIX.4.4|9=0066|35=0|49=ADR_ARBITRAGE_IB_XNYS|56=LVBSG|34=79|52=20150520-12:38:48|10=146|
20150520-12:39:15.042: 8=FIX.4.4|9=70|35=0|34=79|49=LVBSG|52=20150520-12:39:15.042|56=ADR_ARBITRAGE_IB_XNYS|10=236|
20150520-12:39:48.201: 8=FIX.4.4|9=0066|35=0|49=ADR_ARBITRAGE_IB_XNYS|56=LVBSG|34=80|52=20150520-12:39:48|10=139|
20150520-12:40:16.042: 8=FIX.4.4|9=70|35=0|34=80|49=LVBSG|52=20150520-12:40:16.041|56=ADR_ARBITRAGE_IB_XNYS|10=220|
20150520-12:40:48.198: 8=FIX.4.4|9=0066|35=0|49=ADR_ARBITRAGE_IB_XNYS|56=LVBSG|34=81|52=20150520-12:40:48|10=132|
20150520-12:41:16.042: 8=FIX.4.4|9=70|35=0|34=81|49=LVBSG|52=20150520-12:41:16.041|56=ADR_ARBITRAGE_IB_XNYS|10=222|
20150520-12:41:48.198: 8=FIX.4.4|9=0066|35=0|49=ADR_ARBITRAGE_IB_XNYS|56=LVBSG|34=82|52=20150520-12:41:48|10=134|
20150520-12:42:16.042: 8=FIX.4.4|9=70|35=0|34=82|49=LVBSG|52=20150520-12:42:16.042|56=ADR_ARBITRAGE_IB_XNYS|10=225|
20150520-12:42:48.198: 8=FIX.4.4|9=0066|35=0|49=ADR_ARBITRAGE_IB_XNYS|56=LVBSG|34=83|52=20150520-12:42:48|10=136|
20150520-12:43:16.042: 8=FIX.4.4|9=70|35=0|34=83|49=LVBSG|52=20150520-12:43:16.042|56=ADR_ARBITRAGE_IB_XNYS|10=227|
20150520-12:43:48.199: 8=FIX.4.4|9=0066|35=0|49=ADR_ARBITRAGE_IB_XNYS|56=LVBSG|34=84|52=20150520-12:43:48|10=138|
20150520-12:44:16.042: 8=FIX.4.4|9=70|35=0|34=84|49=LVBSG|52=20150520-12:44:16.042|56=ADR_ARBITRAGE_IB_XNYS|10=229|
20150520-12:44:48.199: 8=FIX.4.4|9=0066|35=0|49=ADR_ARBITRAGE_IB_XNYS|56=LVBSG|34=85|52=20150520-12:44:48|10=140|
20150520-12:45:17.042: 8=FIX.4.4|9=70|35=0|34=85|49=LVBSG|52=20150520-12:45:17.042|56=ADR_ARBITRAGE_IB_XNYS|10=232|
20150520-12:45:48.200: 8=FIX.4.4|9=0066|35=0|49=ADR_ARBITRAGE_IB_XNYS|56=LVBSG|34=86|52=20150520-12:45:48|10=142|
20150520-12:46:18.042: 8=FIX.4.4|9=70|35=0|34=86|49=LVBSG|52=20150520-12:46:18.041|56=ADR_ARBITRAGE_IB_XNYS|10=234|
20150520-12:46:48.199: 8=FIX.4.4|9=0066|35=0|49=ADR_ARBITRAGE_IB_XNYS|56=LVBSG|34=87|52=20150520-12:46:48|10=144|
20150520-12:47:18.042: 8=FIX.4.4|9=70|35=0|34=87|49=LVBSG|52=20150520-12:47:18.041|56=ADR_ARBITRAGE_IB_XNYS|10=236|
20150520-12:47:48.199: 8=FIX.4.4|9=0066|35=0|49=ADR_ARBITRAGE_IB_XNYS|56=LVBSG|34=88|52=20150520-12:47:48|10=146|
20150520-12:48:18.042: 8=FIX.4.4|9=70|35=0|34=88|49=LVBSG|52=20150520-12:48:18.042|56=ADR_ARBITRAGE_IB_XNYS|10=239|
20150520-12:48:48.201: 8=FIX.4.4|9=0066|35=0|49=ADR_ARBITRAGE_IB_XNYS|56=LVBSG|34=89|52=20150520-12:48:48|10=148|
20150520-12:49:18.042: 8=FIX.4.4|9=70|35=0|34=89|49=LVBSG|52=20150520-12:49:18.042|56=ADR_ARBITRAGE_IB_XNYS|10=241|
20150520-12:49:48.202: 8=FIX.4.4|9=0066|35=0|49=ADR_ARBITRAGE_IB_XNYS|56=LVBSG|34=90|52=20150520-12:49:48|10=141|
20150520-12:50:19.042: 8=FIX.4.4|9=70|35=0|34=90|49=LVBSG|52=20150520-12:50:19.042|56=ADR_ARBITRAGE_IB_XNYS|10=226|
20150520-12:50:48.201: 8=FIX.4.4|9=0066|35=0|49=ADR_ARBITRAGE_IB_XNYS|56=LVBSG|34=91|52=20150520-12:50:48|10=134|
20150520-12:51:19.042: 8=FIX.4.4|9=70|35=0|34=91|49=LVBSG|52=20150520-12:51:19.042|56=ADR_ARBITRAGE_IB_XNYS|10=228|
20150520-12:51:48.201: 8=FIX.4.4|9=0066|35=0|49=ADR_ARBITRAGE_IB_XNYS|56=LVBSG|34=92|52=20150520-12:51:48|10=136|
20150520-12:52:19.042: 8=FIX.4.4|9=70|35=0|34=92|49=LVBSG|52=20150520-12:52:19.042|56=ADR_ARBITRAGE_IB_XNYS|10=230|
20150520-12:52:48.201: 8=FIX.4.4|9=0066|35=0|49=ADR_ARBITRAGE_IB_XNYS|56=LVBSG|34=93|52=20150520-12:52:48|10=138|
20150520-12:53:19.042: 8=FIX.4.4|9=70|35=0|34=93|49=LVBSG|52=20150520-12:53:19.042|56=ADR_ARBITRAGE_IB_XNYS|10=232|
20150520-12:53:48.201: 8=FIX.4.4|9=0066|35=0|49=ADR_ARBITRAGE_IB_XNYS|56=LVBSG|34=94|52=20150520-12:53:48|10=140|
20150520-12:54:20.042: 8=FIX.4.4|9=70|35=0|34=94|49=LVBSG|52=20150520-12:54:20.042|56=ADR_ARBITRAGE_IB_XNYS|10=226|
20150520-12:54:48.202: 8=FIX.4.4|9=0066|35=0|49=ADR_ARBITRAGE_IB_XNYS|56=LVBSG|34=95|52=20150520-12:54:48|10=142|
20150520-12:55:21.042: 8=FIX.4.4|9=70|35=0|34=95|49=LVBSG|52=20150520-12:55:21.041|56=ADR_ARBITRAGE_IB_XNYS|10=228|
20150520-12:55:48.203: 8=FIX.4.4|9=0066|35=0|49=ADR_ARBITRAGE_IB_XNYS|56=LVBSG|34=96|52=20150520-12:55:48|10=144|
20150520-12:56:21.041: 8=FIX.4.4|9=70|35=0|34=96|49=LVBSG|52=20150520-12:56:21.041|56=ADR_ARBITRAGE_IB_XNYS|10=230|
20150520-12:56:48.202: 8=FIX.4.4|9=0066|35=0|49=ADR_ARBITRAGE_IB_XNYS|56=LVBSG|34=97|52=20150520-12:56:48|10=146|
20150520-12:57:21.042: 8=FIX.4.4|9=70|35=0|34=97|49=LVBSG|52=20150520-12:57:21.041|56=ADR_ARBITRAGE_IB_XNYS|10=232|
20150520-12:57:48.203: 8=FIX.4.4|9=0066|35=0|49=ADR_ARBITRAGE_IB_XNYS|56=LVBSG|34=98|52=20150520-12:57:48|10=148|
20150520-12:58:21.041: 8=FIX.4.4|9=70|35=0|34=98|49=LVBSG|52=20150520-12:58:21.041|56=ADR_ARBITRAGE_IB_XNYS|10=234|
20150520-12:58:48.204: 8=FIX.4.4|9=0066|35=0|49=ADR_ARBITRAGE_IB_XNYS|56=LVBSG|34=99|52=20150520-12:58:48|10=150|
20150520-12:59:21.042: 8=FIX.4.4|9=70|35=0|34=99|49=LVBSG|52=20150520-12:59:21.042|56=ADR_ARBITRAGE_IB_XNYS|10=237|
20150520-12:59:48.204: 8=FIX.4.4|9=0067|35=0|49=ADR_ARBITRAGE_IB_XNYS|56=LVBSG|34=100|52=20150520-12:59:48|10=183|
20150520-13:00:22.041: 8=FIX.4.4|9=71|35=0|34=100|49=LVBSG|52=20150520-13:00:22.041|56=ADR_ARBITRAGE_IB_XNYS|10=000|
20150520-13:00:48.225: 8=FIX.4.4|9=0067|35=0|49=ADR_ARBITRAGE_IB_XNYS|56=LVBSG|34=101|52=20150520-13:00:48|10=171|
20150520-13:01:22.041: 8=FIX.4.4|9=71|35=0|34=101|49=LVBSG|52=20150520-13:01:22.041|56=ADR_ARBITRAGE_IB_XNYS|10=002|
20150520-13:01:48.205: 8=FIX.4.4|9=0067|35=0|49=ADR_ARBITRAGE_IB_XNYS|56=LVBSG|34=102|52=20150520-13:01:48|10=173|
20150520-13:02:22.042: 8=FIX.4.4|9=71|35=0|34=102|49=LVBSG|52=20150520-13:02:22.042|56=ADR_ARBITRAGE_IB_XNYS|10=005|
20150520-13:02:48.205: 8=FIX.4.4|9=0067|35=0|49=ADR_ARBITRAGE_IB_XNYS|56=LVBSG|34=103|52=20150520-13:02:48|10=175|
20150520-13:03:22.042: 8=FIX.4.4|9=71|35=0|34=103|49=LVBSG|52=20150520-13:03:22.042|56=ADR_ARBITRAGE_IB_XNYS|10=007|
20150520-13:03:48.205: 8=FIX.4.4|9=0067|35=0|49=ADR_ARBITRAGE_IB_XNYS|56=LVBSG|34=104|52=20150520-13:03:48|10=177|
20150520-13:04:23.042: 8=FIX.4.4|9=71|35=0|34=104|49=LVBSG|52=20150520-13:04:23.042|56=ADR_ARBITRAGE_IB_XNYS|10=010|
20150520-13:04:48.208: 8=FIX.4.4|9=0067|35=0|49=ADR_ARBITRAGE_IB_XNYS|56=LVBSG|34=105|52=20150520-13:04:48|10=179|
20150520-13:05:24.041: 8=FIX.4.4|9=71|35=0|34=105|49=LVBSG|52=20150520-13:05:24.041|56=ADR_ARBITRAGE_IB_XNYS|10=012|
20150520-13:05:48.204: 8=FIX.4.4|9=0067|35=0|49=ADR_ARBITRAGE_IB_XNYS|56=LVBSG|34=106|52=20150520-13:05:48|10=181|
20150520-13:06:24.041: 8=FIX.4.4|9=71|35=0|34=106|49=LVBSG|52=20150520-13:06:24.041|56=ADR_ARBITRAGE_IB_XNYS|10=014|
20150520-13:06:48.204: 8=FIX.4.4|9=0067|35=0|49=ADR_ARBITRAGE_IB_XNYS|56=LVBSG|34=107|52=20150520-13:06:48|10=183|
20150520-13:07:24.042: 8=FIX.4.4|9=71|35=0|34=107|49=LVBSG|52=20150520-13:07:24.042|56=ADR_ARBITRAGE_IB_XNYS|10=017|
20150520-13:07:48.205: 8=FIX.4.4|9=0067|35=0|49=ADR_ARBITRAGE_IB_XNYS|56=LVBSG|34=108|52=20150520-13:07:48|10=185|
20150520-13:08:25.042: 8=FIX.4.4|9=71|35=0|34=108|49=LVBSG|52=20150520-13:08:25.042|56=ADR_ARBITRAGE_IB_XNYS|10=020|
20150520-13:08:48.206: 8=FIX.4.4|9=0067|35=0|49=ADR_ARBITRAGE_IB_XNYS|56=LVBSG|34=109|52=20150520-13:08:48|10=187|
20150520-13:09:26.041: 8=FIX.4.4|9=71|35=0|34=109|49=LVBSG|52=20150520-13:09:26.041|56=ADR_ARBITRAGE_IB_XNYS|10=022|
20150520-13:09:48.207: 8=FIX.4.4|9=0067|35=0|49=ADR_ARBITRAGE_IB_XNYS|56=LVBSG|34=110|52=20150520-13:09:48|10=180|
20150520-13:10:26.042: 8=FIX.4.4|9=71|35=0|34=110|49=LVBSG|52=20150520-13:10:26.042|56=ADR_ARBITRAGE_IB_XNYS|10=007|
20150520-13:10:48.206: 8=FIX.4.4|9=0067|35=0|49=ADR_ARBITRAGE_IB_XNYS|56=LVBSG|34=111|52=20150520-13:10:48|10=173|
20150520-13:11:27.041: 8=FIX.4.4|9=71|35=0|34=111|49=LVBSG|52=20150520-13:11:27.041|56=ADR_ARBITRAGE_IB_XNYS|10=009|
20150520-13:11:48.206: 8=FIX.4.4|9=0067|35=0|49=ADR_ARBITRAGE_IB_XNYS|56=LVBSG|34=112|52=20150520-13:11:48|10=175|
20150520-13:12:27.042: 8=FIX.4.4|9=71|35=0|34=112|49=LVBSG|52=20150520-13:12:27.042|56=ADR_ARBITRAGE_IB_XNYS|10=012|
20150520-13:12:48.207: 8=FIX.4.4|9=0067|35=0|49=ADR_ARBITRAGE_IB_XNYS|56=LVBSG|34=113|52=20150520-13:12:48|10=177|
20150520-13:13:28.042: 8=FIX.4.4|9=71|35=0|34=113|49=LVBSG|52=20150520-13:13:28.042|56=ADR_ARBITRAGE_IB_XNYS|10=015|
20150520-13:13:48.207: 8=FIX.4.4|9=0067|35=0|49=ADR_ARBITRAGE_IB_XNYS|56=LVBSG|34=114|52=20150520-13:13:48|10=179|
20150520-13:14:28.042: 8=FIX.4.4|9=71|35=0|34=114|49=LVBSG|52=20150520-13:14:28.042|56=ADR_ARBITRAGE_IB_XNYS|10=017|
20150520-13:14:48.210: 8=FIX.4.4|9=0067|35=0|49=ADR_ARBITRAGE_IB_XNYS|56=LVBSG|34=115|52=20150520-13:14:48|10=181|
20150520-13:15:28.042: 8=FIX.4.4|9=71|35=0|34=115|49=LVBSG|52=20150520-13:15:28.042|56=ADR_ARBITRAGE_IB_XNYS|10=019|
20150520-13:15:48.211: 8=FIX.4.4|9=0067|35=0|49=ADR_ARBITRAGE_IB_XNYS|56=LVBSG|34=116|52=20150520-13:15:48|10=183|
20150520-13:16:29.042: 8=FIX.4.4|9=71|35=0|34=116|49=LVBSG|52=20150520-13:16:29.042|56=ADR_ARBITRAGE_IB_XNYS|10=022|
20150520-13:16:48.206: 8=FIX.4.4|9=0067|35=0|49=ADR_ARBITRAGE_IB_XNYS|56=LVBSG|34=117|52=20150520-13:16:48|10=185|
20150520-13:17:30.041: 8=FIX.4.4|9=71|35=0|34=117|49=LVBSG|52=20150520-13:17:30.041|56=ADR_ARBITRAGE_IB_XNYS|10=015|
20150520-13:17:48.207: 8=FIX.4.4|9=0067|35=0|49=ADR_ARBITRAGE_IB_XNYS|56=LVBSG|34=118|52=20150520-13:17:48|10=187|
20150520-13:18:30.041: 8=FIX.4.4|9=71|35=0|34=118|49=LVBSG|52=20150520-13:18:30.041|56=ADR_ARBITRAGE_IB_XNYS|10=017|
20150520-13:18:48.209: 8=FIX.4.4|9=0067|35=0|49=ADR_ARBITRAGE_IB_XNYS|56=LVBSG|34=119|52=20150520-13:18:48|10=189|
20150520-13:19:30.042: 8=FIX.4.4|9=71|35=0|34=119|49=LVBSG|52=20150520-13:19:30.042|56=ADR_ARBITRAGE_IB_XNYS|10=020|
20150520-13:19:48.208: 8=FIX.4.4|9=0067|35=0|49=ADR_ARBITRAGE_IB_XNYS|56=LVBSG|34=120|52=20150520-13:19:48|10=182|
20150520-13:20:31.041: 8=FIX.4.4|9=71|35=0|34=120|49=LVBSG|52=20150520-13:20:31.041|56=ADR_ARBITRAGE_IB_XNYS|10=004|
20150520-13:20:48.208: 8=FIX.4.4|9=0067|35=0|49=ADR_ARBITRAGE_IB_XNYS|56=LVBSG|34=121|52=20150520-13:20:48|10=175|
20150520-13:21:31.042: 8=FIX.4.4|9=71|35=0|34=121|49=LVBSG|52=20150520-13:21:31.042|56=ADR_ARBITRAGE_IB_XNYS|10=007|
20150520-13:21:48.209: 8=FIX.4.4|9=0067|35=0|49=ADR_ARBITRAGE_IB_XNYS|56=LVBSG|34=122|52=20150520-13:21:48|10=177|
20150520-13:22:31.061: 8=FIX.4.4|9=71|35=0|34=122|49=LVBSG|52=20150520-13:22:31.061|56=ADR_ARBITRAGE_IB_XNYS|10=010|
20150520-13:22:48.209: 8=FIX.4.4|9=0067|35=0|49=ADR_ARBITRAGE_IB_XNYS|56=LVBSG|34=123|52=20150520-13:22:48|10=179|
20150520-13:23:32.042: 8=FIX.4.4|9=71|35=0|34=123|49=LVBSG|52=20150520-13:23:32.042|56=ADR_ARBITRAGE_IB_XNYS|10=012|
20150520-13:23:48.209: 8=FIX.4.4|9=0067|35=0|49=ADR_ARBITRAGE_IB_XNYS|56=LVBSG|34=124|52=20150520-13:23:48|10=181|
20150520-13:24:32.042: 8=FIX.4.4|9=71|35=0|34=124|49=LVBSG|52=20150520-13:24:32.042|56=ADR_ARBITRAGE_IB_XNYS|10=014|
20150520-13:24:48.209: 8=FIX.4.4|9=0067|35=0|49=ADR_ARBITRAGE_IB_XNYS|56=LVBSG|34=125|52=20150520-13:24:48|10=183|
20150520-13:25:32.042: 8=FIX.4.4|9=71|35=0|34=125|49=LVBSG|52=20150520-13:25:32.042|56=ADR_ARBITRAGE_IB_XNYS|10=016|
20150520-13:25:48.209: 8=FIX.4.4|9=0067|35=0|49=ADR_ARBITRAGE_IB_XNYS|56=LVBSG|34=126|52=20150520-13:25:48|10=185|
20150520-13:26:33.041: 8=FIX.4.4|9=71|35=0|34=126|49=LVBSG|52=20150520-13:26:33.041|56=ADR_ARBITRAGE_IB_XNYS|10=018|
20150520-13:26:48.213: 8=FIX.4.4|9=0067|35=0|49=ADR_ARBITRAGE_IB_XNYS|56=LVBSG|34=127|52=20150520-13:26:48|10=187|
20150520-13:27:33.041: 8=FIX.4.4|9=71|35=0|34=127|49=LVBSG|52=20150520-13:27:33.041|56=ADR_ARBITRAGE_IB_XNYS|10=020|
20150520-13:27:48.209: 8=FIX.4.4|9=0067|35=0|49=ADR_ARBITRAGE_IB_XNYS|56=LVBSG|34=128|52=20150520-13:27:48|10=189|
20150520-13:28:33.042: 8=FIX.4.4|9=71|35=0|34=128|49=LVBSG|52=20150520-13:28:33.042|56=ADR_ARBITRAGE_IB_XNYS|10=023|
20150520-13:28:48.209: 8=FIX.4.4|9=0067|35=0|49=ADR_ARBITRAGE_IB_XNYS|56=LVBSG|34=129|52=20150520-13:28:48|10=191|
20150520-13:29:34.042: 8=FIX.4.4|9=71|35=0|34=129|49=LVBSG|52=20150520-13:29:34.042|56=ADR_ARBITRAGE_IB_XNYS|10=026|
20150520-13:29:48.210: 8=FIX.4.4|9=0067|35=0|49=ADR_ARBITRAGE_IB_XNYS|56=LVBSG|34=130|52=20150520-13:29:48|10=184|
20150520-13:30:01.094: 8=FIX.4.4|9=269|35=D|34=130|49=LVBSG|50=7369691|52=20150520-13:30:01.094|56=ADR_ARBITRAGE_IB_XNYS|57=XPUS|1=U1216799|11=62f54c1aee354f42|21=1|38=900|40=2|44=21.9|54=2|55=BSAC|59=0|60=20150520-13:30:01.094|63=4|100=SMART|111=100|207=SMART|583=-2bb9d4b6cd58b1af|453=1|448=IB|447=D|452=1|10=192|
20150520-13:30:01.123: 8=FIX.4.4|9=0337|35=8|49=ADR_ARBITRAGE_IB_XNYS|56=LVBSG|34=131|52=20150520-13:30:01|50=XPUS|57=7369691|1=U1216799|207=SMART|6=0|11=62f54c1aee354f42|14=0|17=-21d6724516a3b9a8|21=1|150=A|31=0|151=900|32=0|100=SMART|38=900|39=A|37=-44043d328241b7ba|583=-2bb9d4b6cd58b1af|40=2|44=21.9|55=BSAC|54=2|59=0|63=4|60=20150520-13:30:01.117|453=1|448=IB|447=D|452=1|10=211|
20150520-13:30:01.152: 8=FIX.4.4|9=270|35=D|34=131|49=LVBSG|50=7369691|52=20150520-13:30:01.152|56=ADR_ARBITRAGE_IB_XNYS|57=XPUS|1=U1216799|11=-162719b51411b2f0|21=1|38=500|40=2|44=21.02|54=2|55=SQM|59=0|60=20150520-13:30:01.152|63=4|100=SMART|111=100|207=SMART|583=-39b39e21901eb706|453=1|448=IB|447=D|452=1|10=080|
20150520-13:30:01.170: 8=FIX.4.4|9=0338|35=8|49=ADR_ARBITRAGE_IB_XNYS|56=LVBSG|34=132|52=20150520-13:30:01|50=XPUS|57=7369691|1=U1216799|207=SMART|6=0|11=-162719b51411b2f0|14=0|17=-334f4b12d575b1ec|21=1|150=A|31=0|151=500|32=0|100=SMART|38=500|39=A|37=-6e2e20a7c663b28b|583=-39b39e21901eb706|40=2|44=21.02|55=SQM|54=2|59=0|63=4|60=20150520-13:30:01.162|453=1|448=IB|447=D|452=1|10=054|
20150520-13:30:01.341: 8=FIX.4.4|9=0338|35=8|49=ADR_ARBITRAGE_IB_XNYS|56=LVBSG|34=133|52=20150520-13:30:01|50=XPUS|57=7369691|1=U1216799|207=SMART|6=0|11=62f54c1aee354f42|14=0|17=81760.1432128601.1|21=1|150=0|31=0|151=900|32=0|100=SMART|38=900|39=0|37=-44043d328241b7ba|583=-2bb9d4b6cd58b1af|40=2|44=21.9|55=BSAC|54=2|59=0|63=4|60=20150520-13:30:01.310|453=1|448=IB|447=D|452=1|10=019|
20150520-13:30:01.416: 8=FIX.4.4|9=281|35=G|34=132|49=LVBSG|50=7369691|52=20150520-13:30:01.415|56=ADR_ARBITRAGE_IB_XNYS|57=XPUS|1=U1216799|11=-6f95a49b92d8b79f|21=1|38=2000|40=2|41=62f54c1aee354f42|44=21.9|54=2|55=BSAC|59=0|60=20150520-13:30:01.415|63=4|100=SMART|111=100|583=-2bb9d4b6cd58b1af|453=1|448=IB|447=D|452=1|10=205|
20150520-13:30:01.494: 8=FIX.4.4|9=0358|35=8|49=ADR_ARBITRAGE_IB_XNYS|56=LVBSG|34=134|52=20150520-13:30:01|50=XPUS|57=7369691|1=U1216799|207=SMART|6=0|11=-6f95a49b92d8b79f|14=0|17=727ab5339c364f5b|21=1|150=E|31=0|151=900|32=0|100=SMART|38=2000|39=E|37=-44043d328241b7ba|583=-2bb9d4b6cd58b1af|40=2|41=62f54c1aee354f42|44=21.9|55=BSAC|54=2|59=0|63=4|60=20150520-13:30:01.487|453=1|448=IB|447=D|452=1|10=102|
20150520-13:30:01.677: 8=FIX.4.4|9=0376|35=8|49=ADR_ARBITRAGE_IB_XNYS|56=LVBSG|34=135|52=20150520-13:30:01|50=XPUS|57=7369691|1=U1216799|207=SMART|6=21.91|11=-6f95a49b92d8b79f|14=200|17=0000e634.555c740d.01.01|21=1|150=F|31=21.91|151=700|32=200|100=SMART|38=900|39=1|37=-44043d328241b7ba|583=-2bb9d4b6cd58b1af|40=2|41=62f54c1aee354f42|44=21.9|55=BSAC|54=2|59=0|63=4|60=20150520-13:30:01.667|453=1|448=IB|447=D|452=1|10=094|
20150520-13:30:01.685: 8=FIX.4.4|9=0376|35=8|49=ADR_ARBITRAGE_IB_XNYS|56=LVBSG|34=136|52=20150520-13:30:01|50=XPUS|57=7369691|1=U1216799|207=SMART|6=21.905|11=-6f95a49b92d8b79f|14=400|17=0000e634.555c740e.01.01|21=1|150=F|31=21.9|151=500|32=200|100=SMART|38=900|39=1|37=-44043d328241b7ba|583=-2bb9d4b6cd58b1af|40=2|41=62f54c1aee354f42|44=21.9|55=BSAC|54=2|59=0|63=4|60=20150520-13:30:01.672|453=1|448=IB|447=D|452=1|10=095|
20150520-13:30:01.688: 8=FIX.4.4|9=0339|35=8|49=ADR_ARBITRAGE_IB_XNYS|56=LVBSG|34=137|52=20150520-13:30:01|50=XPUS|57=7369691|1=U1216799|207=SMART|6=0|11=-162719b51411b2f0|14=0|17=81760.1432128601.4|21=1|150=0|31=0|151=500|32=0|100=SMART|38=500|39=0|37=-6e2e20a7c663b28b|583=-39b39e21901eb706|40=2|44=21.02|55=SQM|54=2|59=0|63=4|60=20150520-13:30:01.675|453=1|448=IB|447=D|452=1|10=047|
20150520-13:30:01.692: 8=FIX.4.4|9=0358|35=8|49=ADR_ARBITRAGE_IB_XNYS|56=LVBSG|34=138|52=20150520-13:30:01|50=XPUS|57=7369691|1=U1216799|207=SMART|6=21.025|11=-162719b51411b2f0|14=100|17=0000d73b.555c8555.01.01|21=1|150=F|31=21.025|151=400|32=100|100=SMART|38=500|39=1|37=-6e2e20a7c663b28b|583=-39b39e21901eb706|40=2|44=21.02|55=SQM|54=2|59=0|63=4|60=20150520-13:30:01.677|453=1|448=IB|447=D|452=1|10=126|
20150520-13:30:01.695: 8=FIX.4.4|9=282|35=G|34=133|49=LVBSG|50=7369691|52=20150520-13:30:01.695|56=ADR_ARBITRAGE_IB_XNYS|57=XPUS|1=U1216799|11=-2aa2deea7217b01e|21=1|38=1000|40=2|41=-162719b51411b2f0|44=21.02|54=2|55=SQM|59=0|60=20150520-13:30:01.694|63=4|100=SMART|111=100|583=-39b39e21901eb706|453=1|448=IB|447=D|452=1|10=187|
20150520-13:30:01.714: 8=FIX.4.4|9=0367|35=8|49=ADR_ARBITRAGE_IB_XNYS|56=LVBSG|34=139|52=20150520-13:30:01|50=XPUS|57=7369691|1=U1216799|207=SMART|6=21.025|11=-2aa2deea7217b01e|14=100|17=-46d81cc89b17bfb8|21=1|150=E|31=0|151=400|32=0|100=SMART|38=1000|39=E|37=-6e2e20a7c663b28b|583=-39b39e21901eb706|40=2|41=-162719b51411b2f0|44=21.02|55=SQM|54=2|59=0|63=4|60=20150520-13:30:01.708|453=1|448=IB|447=D|452=1|10=144|
20150520-13:30:01.913: 8=FIX.4.4|9=0379|35=8|49=ADR_ARBITRAGE_IB_XNYS|56=LVBSG|34=140|52=20150520-13:30:01|50=XPUS|57=7369691|1=U1216799|207=SMART|6=21.025|11=-2aa2deea7217b01e|14=400|17=0000d73b.555c8557.01.01|21=1|150=F|31=21.025|151=100|32=300|100=SMART|38=500|39=1|37=-6e2e20a7c663b28b|583=-39b39e21901eb706|40=2|41=-162719b51411b2f0|44=21.02|55=SQM|54=2|59=0|63=4|60=20150520-13:30:01.890|453=1|448=IB|447=D|452=1|10=249|
20150520-13:30:02.045: 8=FIX.4.4|9=270|35=D|34=134|49=LVBSG|50=7369691|52=20150520-13:30:02.044|56=ADR_ARBITRAGE_IB_XNYS|57=XPUS|1=U1216799|11=-396a28bd8aecb6f9|21=1|38=1100|40=2|44=17.72|54=2|55=ENI|59=0|60=20150520-13:30:02.044|63=4|100=SMART|111=100|207=SMART|583=35487c684f5b496f|453=1|448=IB|447=D|452=1|10=107|
20150520-13:30:02.059: 8=FIX.4.4|9=0337|35=8|49=ADR_ARBITRAGE_IB_XNYS|56=LVBSG|34=141|52=20150520-13:30:02|50=XPUS|57=7369691|1=U1216799|207=SMART|6=0|11=-396a28bd8aecb6f9|14=0|17=7bb481a4ed7a487d|21=1|150=A|31=0|151=1100|32=0|100=SMART|38=1100|39=A|37=1a51cc371c124a6b|583=35487c684f5b496f|40=2|44=17.72|55=ENI|54=2|59=0|63=4|60=20150520-13:30:02.052|453=1|448=IB|447=D|452=1|10=074|
20150520-13:30:02.244: 8=FIX.4.4|9=0368|35=8|49=ADR_ARBITRAGE_IB_XNYS|56=LVBSG|34=142|52=20150520-13:30:02|50=XPUS|57=7369691|1=U1216799|207=SMART|6=21.025|11=-2aa2deea7217b01e|14=400|17=81760.1432128602.0|21=1|150=5|31=0|151=600|32=0|100=SMART|38=1000|39=1|37=-6e2e20a7c663b28b|583=-39b39e21901eb706|40=2|41=-162719b51411b2f0|44=21.02|55=SQM|54=2|59=0|63=4|60=20150520-13:30:02.231|453=1|448=IB|447=D|452=1|10=045|
20150520-13:30:02.252: 8=FIX.4.4|9=0379|35=8|49=ADR_ARBITRAGE_IB_XNYS|56=LVBSG|34=143|52=20150520-13:30:02|50=XPUS|57=7369691|1=U1216799|207=SMART|6=21.024|11=-2aa2deea7217b01e|14=500|17=00010fc2.555c7529.01.01|21=1|150=F|31=21.02|151=500|32=100|100=SMART|38=1000|39=1|37=-6e2e20a7c663b28b|583=-39b39e21901eb706|40=2|41=-162719b51411b2f0|44=21.02|55=SQM|54=2|59=0|63=4|60=20150520-13:30:02.242|453=1|448=IB|447=D|452=1|10=232|
20150520-13:30:02.741: 8=FIX.4.4|9=0339|35=8|49=ADR_ARBITRAGE_IB_XNYS|56=LVBSG|34=144|52=20150520-13:30:02|50=XPUS|57=7369691|1=U1216799|207=SMART|6=0|11=-396a28bd8aecb6f9|14=0|17=81760.1432128602.3|21=1|150=0|31=0|151=1100|32=0|100=SMART|38=1100|39=0|37=1a51cc371c124a6b|583=35487c684f5b496f|40=2|44=17.72|55=ENI|54=2|59=0|63=4|60=20150520-13:30:02.734|453=1|448=IB|447=D|452=1|10=049|
20150520-13:30:02.769: 8=FIX.4.4|9=279|35=G|34=135|49=LVBSG|50=7369691|52=20150520-13:30:02.769|56=ADR_ARBITRAGE_IB_XNYS|57=XPUS|1=U1216799|11=1d5e5bb48be42fd|21=1|38=4000|40=2|41=-396a28bd8aecb6f9|44=17.72|54=2|55=ENI|59=0|60=20150520-13:30:02.769|63=4|100=SMART|111=100|583=35487c684f5b496f|453=1|448=IB|447=D|452=1|10=102|
20150520-13:30:02.802: 8=FIX.4.4|9=0356|35=8|49=ADR_ARBITRAGE_IB_XNYS|56=LVBSG|34=145|52=20150520-13:30:02|50=XPUS|57=7369691|1=U1216799|207=SMART|6=0|11=1d5e5bb48be42fd|14=0|17=-c1ab00e0fdeb385|21=1|150=E|31=0|151=1100|32=0|100=SMART|38=4000|39=E|37=1a51cc371c124a6b|583=35487c684f5b496f|40=2|41=-396a28bd8aecb6f9|44=17.72|55=ENI|54=2|59=0|63=4|60=20150520-13:30:02.797|453=1|448=IB|447=D|452=1|10=172|
20150520-13:30:03.010: 8=FIX.4.4|9=0375|35=8|49=ADR_ARBITRAGE_IB_XNYS|56=LVBSG|34=146|52=20150520-13:30:03|50=XPUS|57=7369691|1=U1216799|207=SMART|6=17.76|11=1d5e5bb48be42fd|14=100|17=0000d7a7.555c741f.01.01|21=1|150=F|31=17.76|151=1000|32=100|100=SMART|38=1100|39=1|37=1a51cc371c124a6b|583=35487c684f5b496f|40=2|41=-396a28bd8aecb6f9|44=17.72|55=ENI|54=2|59=0|63=4|60=20150520-13:30:02.997|453=1|448=IB|447=D|452=1|10=156|
20150520-13:30:03.012: 8=FIX.4.4|9=0374|35=8|49=ADR_ARBITRAGE_IB_XNYS|56=LVBSG|34=147|52=20150520-13:30:03|50=XPUS|57=7369691|1=U1216799|207=SMART|6=17.76|11=1d5e5bb48be42fd|14=400|17=0000d7a7.555c7420.01.01|21=1|150=F|31=17.76|151=700|32=300|100=SMART|38=1100|39=1|37=1a51cc371c124a6b|583=35487c684f5b496f|40=2|41=-396a28bd8aecb6f9|44=17.72|55=ENI|54=2|59=0|63=4|60=20150520-13:30:03.002|453=1|448=IB|447=D|452=1|10=044|
20150520-13:30:03.014: 8=FIX.4.4|9=0374|35=8|49=ADR_ARBITRAGE_IB_XNYS|56=LVBSG|34=148|52=20150520-13:30:03|50=XPUS|57=7369691|1=U1216799|207=SMART|6=17.76|11=1d5e5bb48be42fd|14=600|17=0000d7a7.555c7421.01.01|21=1|150=F|31=17.76|151=500|32=200|100=SMART|38=1100|39=1|37=1a51cc371c124a6b|583=35487c684f5b496f|40=2|41=-396a28bd8aecb6f9|44=17.72|55=ENI|54=2|59=0|63=4|60=20150520-13:30:03.003|453=1|448=IB|447=D|452=1|10=046|
20150520-13:30:03.329: 8=FIX.4.4|9=0368|35=8|49=ADR_ARBITRAGE_IB_XNYS|56=LVBSG|34=149|52=20150520-13:30:03|50=XPUS|57=7369691|1=U1216799|207=SMART|6=21.905|11=-6f95a49b92d8b79f|14=400|17=81760.1432128602.8|21=1|150=5|31=0|151=1600|32=0|100=SMART|38=2000|39=1|37=-44043d328241b7ba|583=-2bb9d4b6cd58b1af|40=2|41=62f54c1aee354f42|44=21.9|55=BSAC|54=2|59=0|63=4|60=20150520-13:30:03.299|453=1|448=IB|447=D|452=1|10=066|
20150520-13:30:03.329: 8=FIX.4.4|9=0364|35=8|49=ADR_ARBITRAGE_IB_XNYS|56=LVBSG|34=150|52=20150520-13:30:03|50=XPUS|57=7369691|1=U1216799|207=SMART|6=17.76|11=1d5e5bb48be42fd|14=600|17=81760.1432128603.0|21=1|150=5|31=0|151=3400|32=0|100=SMART|38=4000|39=1|37=1a51cc371c124a6b|583=35487c684f5b496f|40=2|41=-396a28bd8aecb6f9|44=17.72|55=ENI|54=2|59=0|63=4|60=20150520-13:30:03.299|453=1|448=IB|447=D|452=1|10=166|
20150520-13:30:03.332: 8=FIX.4.4|9=0375|35=8|49=ADR_ARBITRAGE_IB_XNYS|56=LVBSG|34=151|52=20150520-13:30:03|50=XPUS|57=7369691|1=U1216799|207=SMART|6=17.75|11=1d5e5bb48be42fd|14=800|17=00016e00.555c3d48.01.01|21=1|150=F|31=17.72|151=3200|32=200|100=SMART|38=4000|39=1|37=1a51cc371c124a6b|583=35487c684f5b496f|40=2|41=-396a28bd8aecb6f9|44=17.72|55=ENI|54=2|59=0|63=4|60=20150520-13:30:03.300|453=1|448=IB|447=D|452=1|10=086|
20150520-13:30:03.342: 8=FIX.4.4|9=282|35=G|34=136|49=LVBSG|50=7369691|52=20150520-13:30:03.342|56=ADR_ARBITRAGE_IB_XNYS|57=XPUS|1=U1216799|11=193afa9c29614d15|21=1|38=2000|40=2|41=-6f95a49b92d8b79f|44=21.85|54=2|55=BSAC|59=0|60=20150520-13:30:03.342|63=4|100=SMART|111=100|583=-2bb9d4b6cd58b1af|453=1|448=IB|447=D|452=1|10=219|
20150520-13:30:03.346: 8=FIX.4.4|9=0379|35=8|49=ADR_ARBITRAGE_IB_XNYS|56=LVBSG|34=152|52=20150520-13:30:03|50=XPUS|57=7369691|1=U1216799|207=SMART|6=17.746667|11=1d5e5bb48be42fd|14=900|17=00013911.555c3efc.01.01|21=1|150=F|31=17.72|151=3100|32=100|100=SMART|38=4000|39=1|37=1a51cc371c124a6b|583=35487c684f5b496f|40=2|41=-396a28bd8aecb6f9|44=17.72|55=ENI|54=2|59=0|63=4|60=20150520-13:30:03.318|453=1|448=IB|447=D|452=1|10=108|
20150520-13:30:03.346: 8=FIX.4.4|9=0378|35=8|49=ADR_ARBITRAGE_IB_XNYS|56=LVBSG|34=153|52=20150520-13:30:03|50=XPUS|57=7369691|1=U1216799|207=SMART|6=17.746374|11=1d5e5bb48be42fd|14=910|17=00013911.555c3efd.01.01|21=1|150=F|31=17.72|151=3090|32=10|100=SMART|38=4000|39=1|37=1a51cc371c124a6b|583=35487c684f5b496f|40=2|41=-396a28bd8aecb6f9|44=17.72|55=ENI|54=2|59=0|63=4|60=20150520-13:30:03.328|453=1|448=IB|447=D|452=1|10=066|
20150520-13:30:03.348: 8=FIX.4.4|9=0380|35=8|49=ADR_ARBITRAGE_IB_XNYS|56=LVBSG|34=154|52=20150520-13:30:03|50=XPUS|57=7369691|1=U1216799|207=SMART|6=17.743762|11=1d5e5bb48be42fd|14=1010|17=00010ff0.555c77be.01.01|21=1|150=F|31=17.72|151=2990|32=100|100=SMART|38=4000|39=1|37=1a51cc371c124a6b|583=35487c684f5b496f|40=2|41=-396a28bd8aecb6f9|44=17.72|55=ENI|54=2|59=0|63=4|60=20150520-13:30:03.330|453=1|448=IB|447=D|452=1|10=196|
20150520-13:30:03.369: 8=FIX.4.4|9=0368|35=8|49=ADR_ARBITRAGE_IB_XNYS|56=LVBSG|34=155|52=20150520-13:30:03|50=XPUS|57=7369691|1=U1216799|207=SMART|6=21.905|11=193afa9c29614d15|14=400|17=-6dcd4c3bb756b36e|21=1|150=E|31=0|151=1600|32=0|100=SMART|38=2000|39=E|37=-44043d328241b7ba|583=-2bb9d4b6cd58b1af|40=2|41=-6f95a49b92d8b79f|44=21.85|55=BSAC|54=2|59=0|63=4|60=20150520-13:30:03.354|453=1|448=IB|447=D|452=1|10=185|
20150520-13:30:03.941: 8=FIX.4.4|9=0369|35=8|49=ADR_ARBITRAGE_IB_XNYS|56=LVBSG|34=156|52=20150520-13:30:03|50=XPUS|57=7369691|1=U1216799|207=SMART|6=21.905|11=193afa9c29614d15|14=400|17=81760.1432128603.4|21=1|150=5|31=0|151=1600|32=0|100=SMART|38=2000|39=1|37=-44043d328241b7ba|583=-2bb9d4b6cd58b1af|40=2|41=-6f95a49b92d8b79f|44=21.85|55=BSAC|54=2|59=0|63=4|60=20150520-13:30:03.896|453=1|448=IB|447=D|452=1|10=072|
20150520-13:30:03.947: 8=FIX.4.4|9=0380|35=8|49=ADR_ARBITRAGE_IB_XNYS|56=LVBSG|34=157|52=20150520-13:30:03|50=XPUS|57=7369691|1=U1216799|207=SMART|6=21.894|11=193afa9c29614d15|14=500|17=00010ff0.555c77c1.01.01|21=1|150=F|31=21.85|151=1500|32=100|100=SMART|38=2000|39=1|37=-44043d328241b7ba|583=-2bb9d4b6cd58b1af|40=2|41=-6f95a49b92d8b79f|44=21.85|55=BSAC|54=2|59=0|63=4|60=20150520-13:30:03.929|453=1|448=IB|447=D|452=1|10=047|
20150520-13:30:04.068: 8=FIX.4.4|9=0380|35=8|49=ADR_ARBITRAGE_IB_XNYS|56=LVBSG|34=158|52=20150520-13:30:04|50=XPUS|57=7369691|1=U1216799|207=SMART|6=21.023984|11=-2aa2deea7217b01e|14=502|17=00013800.555c41bd.01.01|21=1|150=F|31=21.02|151=498|32=2|100=SMART|38=1000|39=1|37=-6e2e20a7c663b28b|583=-39b39e21901eb706|40=2|41=-162719b51411b2f0|44=21.02|55=SQM|54=2|59=0|63=4|60=20150520-13:30:04.062|453=1|448=IB|447=D|452=1|10=053|
20150520-13:30:04.072: 8=FIX.4.4|9=0381|35=8|49=ADR_ARBITRAGE_IB_XNYS|56=LVBSG|34=159|52=20150520-13:30:04|50=XPUS|57=7369691|1=U1216799|207=SMART|6=21.023333|11=-2aa2deea7217b01e|14=600|17=00013800.555c41be.01.01|21=1|150=F|31=21.02|151=400|32=98|100=SMART|38=1000|39=1|37=-6e2e20a7c663b28b|583=-39b39e21901eb706|40=2|41=-162719b51411b2f0|44=21.02|55=SQM|54=2|59=0|63=4|60=20150520-13:30:04.067|453=1|448=IB|447=D|452=1|10=094|
20150520-13:30:04.077: 8=FIX.4.4|9=0382|35=8|49=ADR_ARBITRAGE_IB_XNYS|56=LVBSG|34=160|52=20150520-13:30:04|50=XPUS|57=7369691|1=U1216799|207=SMART|6=21.022857|11=-2aa2deea7217b01e|14=700|17=00013800.555c41bf.01.01|21=1|150=F|31=21.02|151=300|32=100|100=SMART|38=1000|39=1|37=-6e2e20a7c663b28b|583=-39b39e21901eb706|40=2|41=-162719b51411b2f0|44=21.02|55=SQM|54=2|59=0|63=4|60=20150520-13:30:04.071|453=1|448=IB|447=D|452=1|10=125|
20150520-13:30:04.088: 8=FIX.4.4|9=0380|35=8|49=ADR_ARBITRAGE_IB_XNYS|56=LVBSG|34=161|52=20150520-13:30:04|50=XPUS|57=7369691|1=U1216799|207=SMART|6=21.022849|11=-2aa2deea7217b01e|14=702|17=00013800.555c41c0.01.01|21=1|150=F|31=21.02|151=298|32=2|100=SMART|38=1000|39=1|37=-6e2e20a7c663b28b|583=-39b39e21901eb706|40=2|41=-162719b51411b2f0|44=21.02|55=SQM|54=2|59=0|63=4|60=20150520-13:30:04.078|453=1|448=IB|447=D|452=1|10=002|
20150520-13:30:04.089: 8=FIX.4.4|9=0382|35=8|49=ADR_ARBITRAGE_IB_XNYS|56=LVBSG|34=162|52=20150520-13:30:04|50=XPUS|57=7369691|1=U1216799|207=SMART|6=21.022494|11=-2aa2deea7217b01e|14=802|17=00013800.555c41c1.01.01|21=1|150=F|31=21.02|151=198|32=100|100=SMART|38=1000|39=1|37=-6e2e20a7c663b28b|583=-39b39e21901eb706|40=2|41=-162719b51411b2f0|44=21.02|55=SQM|54=2|59=0|63=4|60=20150520-13:30:04.084|453=1|448=IB|447=D|452=1|10=094|
20150520-13:30:04.098: 8=FIX.4.4|9=0381|35=8|49=ADR_ARBITRAGE_IB_XNYS|56=LVBSG|34=163|52=20150520-13:30:04|50=XPUS|57=7369691|1=U1216799|207=SMART|6=21.022217|11=-2aa2deea7217b01e|14=902|17=00013800.555c41c2.01.01|21=1|150=F|31=21.02|151=98|32=100|100=SMART|38=1000|39=1|37=-6e2e20a7c663b28b|583=-39b39e21901eb706|40=2|41=-162719b51411b2f0|44=21.02|55=SQM|54=2|59=0|63=4|60=20150520-13:30:04.089|453=1|448=IB|447=D|452=1|10=045|
20150520-13:30:04.103: 8=FIX.4.4|9=0377|35=8|49=ADR_ARBITRAGE_IB_XNYS|56=LVBSG|34=164|52=20150520-13:30:04|50=XPUS|57=7369691|1=U1216799|207=SMART|6=21.022|11=-2aa2deea7217b01e|14=1000|17=00013800.555c41c3.01.01|21=1|150=F|31=21.02|151=0|32=98|100=SMART|38=1000|39=2|37=-6e2e20a7c663b28b|583=-39b39e21901eb706|40=2|41=-162719b51411b2f0|44=21.02|55=SQM|54=2|59=0|63=4|60=20150520-13:30:04.096|453=1|448=IB|447=D|452=1|10=094|
20150520-13:30:09.324: 8=FIX.4.4|9=270|35=D|34=137|49=LVBSG|50=7369691|52=20150520-13:30:09.324|56=ADR_ARBITRAGE_IB_XNYS|57=XPUS|1=U1216799|11=-cd327406f0db30e|21=1|38=1000|40=2|44=7.97|54=2|55=CNCO|59=0|60=20150520-13:30:09.324|63=4|100=SMART|111=100|207=SMART|583=-137ea74e200cbd83|453=1|448=IB|447=D|452=1|10=094|
20150520-13:30:09.341: 8=FIX.4.4|9=0339|35=8|49=ADR_ARBITRAGE_IB_XNYS|56=LVBSG|34=165|52=20150520-13:30:09|50=XPUS|57=7369691|1=U1216799|207=SMART|6=0|11=-cd327406f0db30e|14=0|17=-33b3774dfcb0b46e|21=1|150=A|31=0|151=1000|32=0|100=SMART|38=1000|39=A|37=-1c7b12d2ea99b288|583=-137ea74e200cbd83|40=2|44=7.97|55=CNCO|54=2|59=0|63=4|60=20150520-13:30:09.336|453=1|448=IB|447=D|452=1|10=172|
20150520-13:30:09.544: 8=FIX.4.4|9=0340|35=8|49=ADR_ARBITRAGE_IB_XNYS|56=LVBSG|34=166|52=20150520-13:30:09|50=XPUS|57=7369691|1=U1216799|207=SMART|6=0|11=-cd327406f0db30e|14=0|17=81760.1432128609.1|21=1|150=0|31=0|151=1000|32=0|100=SMART|38=1000|39=0|37=-1c7b12d2ea99b288|583=-137ea74e200cbd83|40=2|44=7.97|55=CNCO|54=2|59=0|63=4|60=20150520-13:30:09.537|453=1|448=IB|447=D|452=1|10=099|
20150520-13:30:09.801: 8=FIX.4.4|9=280|35=G|34=138|49=LVBSG|50=7369691|52=20150520-13:30:09.801|56=ADR_ARBITRAGE_IB_XNYS|57=XPUS|1=U1216799|11=4d0aca3cb1854b94|21=1|38=1000|40=2|41=-cd327406f0db30e|44=7.93|54=2|55=CNCO|59=0|60=20150520-13:30:09.800|63=4|100=SMART|111=100|583=-137ea74e200cbd83|453=1|448=IB|447=D|452=1|10=041|
20150520-13:30:09.817: 8=FIX.4.4|9=0358|35=8|49=ADR_ARBITRAGE_IB_XNYS|56=LVBSG|34=167|52=20150520-13:30:09|50=XPUS|57=7369691|1=U1216799|207=SMART|6=0|11=4d0aca3cb1854b94|14=0|17=-c23229bcbb4b4d7|21=1|150=E|31=0|151=1000|32=0|100=SMART|38=1000|39=E|37=-1c7b12d2ea99b288|583=-137ea74e200cbd83|40=2|41=-cd327406f0db30e|44=7.93|55=CNCO|54=2|59=0|63=4|60=20150520-13:30:09.807|453=1|448=IB|447=D|452=1|10=165|
20150520-13:30:09.876: 8=FIX.4.4|9=0374|35=8|49=ADR_ARBITRAGE_IB_XNYS|56=LVBSG|34=168|52=20150520-13:30:09|50=XPUS|57=7369691|1=U1216799|207=SMART|6=7.97|11=4d0aca3cb1854b94|14=100|17=00010ff0.555c78b3.01.01|21=1|150=F|31=7.97|151=900|32=100|100=SMART|38=1000|39=1|37=-1c7b12d2ea99b288|583=-137ea74e200cbd83|40=2|41=-cd327406f0db30e|44=7.97|55=CNCO|54=2|59=0|63=4|60=20150520-13:30:09.868|453=1|448=IB|447=D|452=1|10=063|
20150520-13:30:10.185: 8=FIX.4.4|9=0364|35=8|49=ADR_ARBITRAGE_IB_XNYS|56=LVBSG|34=169|52=20150520-13:30:10|50=XPUS|57=7369691|1=U1216799|207=SMART|6=7.97|11=4d0aca3cb1854b94|14=100|17=81760.1432128609.4|21=1|150=5|31=0|151=900|32=0|100=SMART|38=1000|39=1|37=-1c7b12d2ea99b288|583=-137ea74e200cbd83|40=2|41=-cd327406f0db30e|44=7.93|55=CNCO|54=2|59=0|63=4|60=20150520-13:30:10.178|453=1|448=IB|447=D|452=1|10=105|
20150520-13:30:10.209: 8=FIX.4.4|9=0375|35=8|49=ADR_ARBITRAGE_IB_XNYS|56=LVBSG|34=170|52=20150520-13:30:10|50=XPUS|57=7369691|1=U1216799|207=SMART|6=7.955|11=4d0aca3cb1854b94|14=200|17=0000d323.aab8fc9e.02.01|21=1|150=F|31=7.94|151=800|32=100|100=SMART|38=1000|39=1|37=-1c7b12d2ea99b288|583=-137ea74e200cbd83|40=2|41=-cd327406f0db30e|44=7.93|55=CNCO|54=2|59=0|63=4|60=20150520-13:30:10.183|453=1|448=IB|447=D|452=1|10=216|
20150520-13:30:10.222: 8=FIX.4.4|9=0378|35=8|49=ADR_ARBITRAGE_IB_XNYS|56=LVBSG|34=171|52=20150520-13:30:10|50=XPUS|57=7369691|1=U1216799|207=SMART|6=7.946667|11=4d0aca3cb1854b94|14=300|17=0000da28.555c8582.01.01|21=1|150=F|31=7.93|151=700|32=100|100=SMART|38=1000|39=1|37=-1c7b12d2ea99b288|583=-137ea74e200cbd83|40=2|41=-cd327406f0db30e|44=7.93|55=CNCO|54=2|59=0|63=4|60=20150520-13:30:10.209|453=1|448=IB|447=D|452=1|10=197|
20150520-13:30:10.230: 8=FIX.4.4|9=0377|35=8|49=ADR_ARBITRAGE_IB_XNYS|56=LVBSG|34=172|52=20150520-13:30:10|50=XPUS|57=7369691|1=U1216799|207=SMART|6=7.950874|11=4d0aca3cb1854b94|14=366|17=00010ff0.555c78d5.01.01|21=1|150=F|31=7.97|151=634|32=66|100=SMART|38=1000|39=1|37=-1c7b12d2ea99b288|583=-137ea74e200cbd83|40=2|41=-cd327406f0db30e|44=7.93|55=CNCO|54=2|59=0|63=4|60=20150520-13:30:10.215|453=1|448=IB|447=D|452=1|10=221|
20150520-13:30:10.230: 8=FIX.4.4|9=0378|35=8|49=ADR_ARBITRAGE_IB_XNYS|56=LVBSG|34=173|52=20150520-13:30:10|50=XPUS|57=7369691|1=U1216799|207=SMART|6=7.948541|11=4d0aca3cb1854b94|14=466|17=00010ff0.555c78d6.01.01|21=1|150=F|31=7.94|151=534|32=100|100=SMART|38=1000|39=1|37=-1c7b12d2ea99b288|583=-137ea74e200cbd83|40=2|41=-cd327406f0db30e|44=7.93|55=CNCO|54=2|59=0|63=4|60=20150520-13:30:10.219|453=1|448=IB|447=D|452=1|10=004|
20150520-13:30:10.232: 8=FIX.4.4|9=0376|35=8|49=ADR_ARBITRAGE_IB_XNYS|56=LVBSG|34=174|52=20150520-13:30:10|50=XPUS|57=7369691|1=U1216799|207=SMART|6=7.9444|11=4d0aca3cb1854b94|14=600|17=00010ff0.555c78d7.01.01|21=1|150=F|31=7.93|151=400|32=134|100=SMART|38=1000|39=1|37=-1c7b12d2ea99b288|583=-137ea74e200cbd83|40=2|41=-cd327406f0db30e|44=7.93|55=CNCO|54=2|59=0|63=4|60=20150520-13:30:10.220|453=1|448=IB|447=D|452=1|10=134|
20150520-13:30:10.235: 8=FIX.4.4|9=0378|35=8|49=ADR_ARBITRAGE_IB_XNYS|56=LVBSG|34=175|52=20150520-13:30:10|50=XPUS|57=7369691|1=U1216799|207=SMART|6=7.942343|11=4d0aca3cb1854b94|14=700|17=0000d7a7.555c7439.01.01|21=1|150=F|31=7.93|151=300|32=100|100=SMART|38=1000|39=1|37=-1c7b12d2ea99b288|583=-137ea74e200cbd83|40=2|41=-cd327406f0db30e|44=7.93|55=CNCO|54=2|59=0|63=4|60=20150520-13:30:10.221|453=1|448=IB|447=D|452=1|10=186|
20150520-13:30:11.221: 8=FIX.4.4|9=0377|35=8|49=ADR_ARBITRAGE_IB_XNYS|56=LVBSG|34=176|52=20150520-13:30:11|50=XPUS|57=7369691|1=U1216799|207=SMART|6=7.94205|11=4d0aca3cb1854b94|14=800|17=0000d7a7.555c743c.01.01|21=1|150=F|31=7.94|151=200|32=100|100=SMART|38=1000|39=1|37=-1c7b12d2ea99b288|583=-137ea74e200cbd83|40=2|41=-cd327406f0db30e|44=7.93|55=CNCO|54=2|59=0|63=4|60=20150520-13:30:11.215|453=1|448=IB|447=D|452=1|10=181|
20150520-13:30:11.576: 8=FIX.4.4|9=0378|35=8|49=ADR_ARBITRAGE_IB_XNYS|56=LVBSG|34=177|52=20150520-13:30:11|50=XPUS|57=7369691|1=U1216799|207=SMART|6=7.941822|11=4d0aca3cb1854b94|14=900|17=0000d7a7.555c743d.01.01|21=1|150=F|31=7.94|151=100|32=100|100=SMART|38=1000|39=1|37=-1c7b12d2ea99b288|583=-137ea74e200cbd83|40=2|41=-cd327406f0db30e|44=7.93|55=CNCO|54=2|59=0|63=4|60=20150520-13:30:11.570|453=1|448=IB|447=D|452=1|10=242|
20150520-13:30:11.577: 8=FIX.4.4|9=0376|35=8|49=ADR_ARBITRAGE_IB_XNYS|56=LVBSG|34=178|52=20150520-13:30:11|50=XPUS|57=7369691|1=U1216799|207=SMART|6=7.94164|11=4d0aca3cb1854b94|14=1000|17=0000d7a7.555c743e.01.01|21=1|150=F|31=7.94|151=0|32=100|100=SMART|38=1000|39=2|37=-1c7b12d2ea99b288|583=-137ea74e200cbd83|40=2|41=-cd327406f0db30e|44=7.93|55=CNCO|54=2|59=0|63=4|60=20150520-13:30:11.571|453=1|448=IB|447=D|452=1|10=137|
20150520-13:30:11.616: 8=FIX.4.4|9=271|35=D|34=139|49=LVBSG|50=7369691|52=20150520-13:30:11.616|56=ADR_ARBITRAGE_IB_XNYS|57=XPUS|1=U1216799|11=-7a3841919142b520|21=1|38=1000|40=2|44=7.93|54=2|55=CNCO|59=0|60=20150520-13:30:11.616|63=4|100=SMART|111=100|207=SMART|583=-137ea74e200cbd83|453=1|448=IB|447=D|452=1|10=209|
20150520-13:30:11.628: 8=FIX.4.4|9=0338|35=8|49=ADR_ARBITRAGE_IB_XNYS|56=LVBSG|34=179|52=20150520-13:30:11|50=XPUS|57=7369691|1=U1216799|207=SMART|6=0|11=-7a3841919142b520|14=0|17=-2d8284646fc6bde6|21=1|150=A|31=0|151=1000|32=0|100=SMART|38=1000|39=A|37=-e5afb22578b770|583=-137ea74e200cbd83|40=2|44=7.93|55=CNCO|54=2|59=0|63=4|60=20150520-13:30:11.623|453=1|448=IB|447=D|452=1|10=095|
20150520-13:30:11.819: 8=FIX.4.4|9=0339|35=8|49=ADR_ARBITRAGE_IB_XNYS|56=LVBSG|34=180|52=20150520-13:30:11|50=XPUS|57=7369691|1=U1216799|207=SMART|6=0|11=-7a3841919142b520|14=0|17=81760.1432128611.3|21=1|150=0|31=0|151=1000|32=0|100=SMART|38=1000|39=0|37=-e5afb22578b770|583=-137ea74e200cbd83|40=2|44=7.93|55=CNCO|54=2|59=0|63=4|60=20150520-13:30:11.813|453=1|448=IB|447=D|452=1|10=048|
20150520-13:30:11.987: 8=FIX.4.4|9=0353|35=8|49=ADR_ARBITRAGE_IB_XNYS|56=LVBSG|34=181|52=20150520-13:30:11|50=XPUS|57=7369691|1=U1216799|207=SMART|6=7.94|11=-7a3841919142b520|14=100|17=0000d323.aab8fca0.02.01|21=1|150=F|31=7.94|151=900|32=100|100=SMART|38=1000|39=1|37=-e5afb22578b770|583=-137ea74e200cbd83|40=2|44=7.93|55=CNCO|54=2|59=0|63=4|60=20150520-13:30:11.981|453=1|448=IB|447=D|452=1|10=085|
20150520-13:30:12.001: 8=FIX.4.4|9=0358|35=8|49=ADR_ARBITRAGE_IB_XNYS|56=LVBSG|34=182|52=20150520-13:30:11|50=XPUS|57=7369691|1=U1216799|207=SMART|6=7.93525|11=-7a3841919142b520|14=200|17=0000da28.555c858b.01.01|21=1|150=F|31=7.9305|151=800|32=100|100=SMART|38=1000|39=1|37=-e5afb22578b770|583=-137ea74e200cbd83|40=2|44=7.93|55=CNCO|54=2|59=0|63=4|60=20150520-13:30:11.988|453=1|448=IB|447=D|452=1|10=230|
20150520-13:30:12.002: 8=FIX.4.4|9=0359|35=8|49=ADR_ARBITRAGE_IB_XNYS|56=LVBSG|34=183|52=20150520-13:30:12|50=XPUS|57=7369691|1=U1216799|207=SMART|6=7.933533|11=-7a3841919142b520|14=300|17=000106fd.555c855a.01.01|21=1|150=F|31=7.9301|151=700|32=100|100=SMART|38=1000|39=1|37=-e5afb22578b770|583=-137ea74e200cbd83|40=2|44=7.93|55=CNCO|54=2|59=0|63=4|60=20150520-13:30:11.997|453=1|448=IB|447=D|452=1|10=021|
20150520-13:30:12.012: 8=FIX.4.4|9=0356|35=8|49=ADR_ARBITRAGE_IB_XNYS|56=LVBSG|34=184|52=20150520-13:30:12|50=XPUS|57=7369691|1=U1216799|207=SMART|6=7.93265|11=-7a3841919142b520|14=400|17=0000d7a7.555c7440.01.01|21=1|150=F|31=7.93|151=600|32=100|100=SMART|38=1000|39=1|37=-e5afb22578b770|583=-137ea74e200cbd83|40=2|44=7.93|55=CNCO|54=2|59=0|63=4|60=20150520-13:30:12.005|453=1|448=IB|447=D|452=1|10=060|
20150520-13:30:12.020: 8=FIX.4.4|9=0355|35=8|49=ADR_ARBITRAGE_IB_XNYS|56=LVBSG|34=185|52=20150520-13:30:12|50=XPUS|57=7369691|1=U1216799|207=SMART|6=7.9351|11=-7a3841919142b520|14=600|17=00010ff0.555c7a78.01.01|21=1|150=F|31=7.94|151=400|32=200|100=SMART|38=1000|39=1|37=-e5afb22578b770|583=-137ea74e200cbd83|40=2|44=7.93|55=CNCO|54=2|59=0|63=4|60=20150520-13:30:12.013|453=1|448=IB|447=D|452=1|10=056|
20150520-13:30:12.025: 8=FIX.4.4|9=0357|35=8|49=ADR_ARBITRAGE_IB_XNYS|56=LVBSG|34=186|52=20150520-13:30:12|50=XPUS|57=7369691|1=U1216799|207=SMART|6=7.936325|11=-7a3841919142b520|14=800|17=00010ff0.555c7a79.01.01|21=1|150=F|31=7.94|151=200|32=200|100=SMART|38=1000|39=1|37=-e5afb22578b770|583=-137ea74e200cbd83|40=2|44=7.93|55=CNCO|54=2|59=0|63=4|60=20150520-13:30:12.019|453=1|448=IB|447=D|452=1|10=172|
20150520-13:30:12.031: 8=FIX.4.4|9=0355|35=8|49=ADR_ARBITRAGE_IB_XNYS|56=LVBSG|34=187|52=20150520-13:30:12|50=XPUS|57=7369691|1=U1216799|207=SMART|6=7.93506|11=-7a3841919142b520|14=1000|17=00010ff0.555c7a7a.01.01|21=1|150=F|31=7.93|151=0|32=200|100=SMART|38=1000|39=2|37=-e5afb22578b770|583=-137ea74e200cbd83|40=2|44=7.93|55=CNCO|54=2|59=0|63=4|60=20150520-13:30:12.025|453=1|448=IB|447=D|452=1|10=098|
20150520-13:30:16.784: 8=FIX.4.4|9=0380|35=8|49=ADR_ARBITRAGE_IB_XNYS|56=LVBSG|34=188|52=20150520-13:30:16|50=XPUS|57=7369691|1=U1216799|207=SMART|6=17.741622|11=1d5e5bb48be42fd|14=1110|17=00010ff0.555c7ad0.01.01|21=1|150=F|31=17.72|151=2890|32=100|100=SMART|38=4000|39=1|37=1a51cc371c124a6b|583=35487c684f5b496f|40=2|41=-396a28bd8aecb6f9|44=17.72|55=ENI|54=2|59=0|63=4|60=20150520-13:30:16.778|453=1|448=IB|447=D|452=1|10=211|
20150520-13:30:40.487: 8=FIX.4.4|9=278|35=G|34=140|49=LVBSG|50=7369691|52=20150520-13:30:40.487|56=ADR_ARBITRAGE_IB_XNYS|57=XPUS|1=U1216799|11=75841576fc674f61|21=1|38=4000|40=2|41=1d5e5bb48be42fd|44=17.71|54=2|55=ENI|59=0|60=20150520-13:30:40.486|63=4|100=SMART|111=100|583=35487c684f5b496f|453=1|448=IB|447=D|452=1|10=071|
20150520-13:30:40.499: 8=FIX.4.4|9=0369|35=8|49=ADR_ARBITRAGE_IB_XNYS|56=LVBSG|34=189|52=20150520-13:30:40|50=XPUS|57=7369691|1=U1216799|207=SMART|6=17.741622|11=1d5e5bb48be42fd|14=1110|17=81760.1432128640.1|21=1|150=5|31=0|151=2890|32=0|100=SMART|38=4000|39=1|37=1a51cc371c124a6b|583=35487c684f5b496f|40=2|41=-396a28bd8aecb6f9|44=17.71|55=ENI|54=2|59=0|63=4|60=20150520-13:30:40.493|453=1|448=IB|447=D|452=1|10=184|
20150520-13:30:40.503: 8=FIX.4.4|9=0366|35=8|49=ADR_ARBITRAGE_IB_XNYS|56=LVBSG|34=190|52=20150520-13:30:40|50=XPUS|57=7369691|1=U1216799|207=SMART|6=17.741622|11=75841576fc674f61|14=1110|17=20f9910a5e054d09|21=1|150=E|31=0|151=2890|32=0|100=SMART|38=4000|39=E|37=1a51cc371c124a6b|583=35487c684f5b496f|40=2|41=1d5e5bb48be42fd|44=17.71|55=ENI|54=2|59=0|63=4|60=20150520-13:30:40.496|453=1|448=IB|447=D|452=1|10=040|
20150520-13:30:40.509: 8=FIX.4.4|9=0381|35=8|49=ADR_ARBITRAGE_IB_XNYS|56=LVBSG|34=191|52=20150520-13:30:40|50=XPUS|57=7369691|1=U1216799|207=SMART|6=17.730267|11=1d5e5bb48be42fd|14=1800|17=0000f073.555c81f6.01.01|21=1|150=F|31=17.712|151=2200|32=690|100=SMART|38=4000|39=1|37=1a51cc371c124a6b|583=35487c684f5b496f|40=2|41=-396a28bd8aecb6f9|44=17.71|55=ENI|54=2|59=0|63=4|60=20150520-13:30:40.498|453=1|448=IB|447=D|452=1|10=171|
20150520-13:30:40.513: 8=FIX.4.4|9=0381|35=8|49=ADR_ARBITRAGE_IB_XNYS|56=LVBSG|34=192|52=20150520-13:30:40|50=XPUS|57=7369691|1=U1216799|207=SMART|6=17.721509|11=1d5e5bb48be42fd|14=3300|17=0000f073.555c81f7.01.01|21=1|150=F|31=17.711|151=700|32=1500|100=SMART|38=4000|39=1|37=1a51cc371c124a6b|583=35487c684f5b496f|40=2|41=-396a28bd8aecb6f9|44=17.71|55=ENI|54=2|59=0|63=4|60=20150520-13:30:40.507|453=1|448=IB|447=D|452=1|10=153|
20150520-13:30:40.520: 8=FIX.4.4|9=0379|35=8|49=ADR_ARBITRAGE_IB_XNYS|56=LVBSG|34=193|52=20150520-13:30:40|50=XPUS|57=7369691|1=U1216799|207=SMART|6=17.721171|11=1d5e5bb48be42fd|14=3400|17=00010ec8.555c416b.01.01|21=1|150=F|31=17.71|151=600|32=100|100=SMART|38=4000|39=1|37=1a51cc371c124a6b|583=35487c684f5b496f|40=2|41=-396a28bd8aecb6f9|44=17.71|55=ENI|54=2|59=0|63=4|60=20150520-13:30:40.512|453=1|448=IB|447=D|452=1|10=090|
20150520-13:30:40.575: 8=FIX.4.4|9=0378|35=8|49=ADR_ARBITRAGE_IB_XNYS|56=LVBSG|34=194|52=20150520-13:30:40|50=XPUS|57=7369691|1=U1216799|207=SMART|6=17.720964|11=1d5e5bb48be42fd|14=3464|17=00010ff0.555c7ce6.01.01|21=1|150=F|31=17.71|151=536|32=64|100=SMART|38=4000|39=1|37=1a51cc371c124a6b|583=35487c684f5b496f|40=2|41=-396a28bd8aecb6f9|44=17.71|55=ENI|54=2|59=0|63=4|60=20150520-13:30:40.542|453=1|448=IB|447=D|452=1|10=133|
20150520-13:30:40.577: 8=FIX.4.4|9=0378|35=8|49=ADR_ARBITRAGE_IB_XNYS|56=LVBSG|34=195|52=20150520-13:30:40|50=XPUS|57=7369691|1=U1216799|207=SMART|6=17.720657|11=75841576fc674f61|14=3564|17=00010ff0.555c7ce7.01.01|21=1|150=F|31=17.71|151=436|32=100|100=SMART|38=4000|39=1|37=1a51cc371c124a6b|583=35487c684f5b496f|40=2|41=1d5e5bb48be42fd|44=17.71|55=ENI|54=2|59=0|63=4|60=20150520-13:30:40.549|453=1|448=IB|447=D|452=1|10=158|
20150520-13:30:40.577: 8=FIX.4.4|9=0376|35=8|49=ADR_ARBITRAGE_IB_XNYS|56=LVBSG|34=196|52=20150520-13:30:40|50=XPUS|57=7369691|1=U1216799|207=SMART|6=17.72055|11=75841576fc674f61|14=3600|17=00010ff0.555c7ce8.01.01|21=1|150=F|31=17.71|151=400|32=36|100=SMART|38=4000|39=1|37=1a51cc371c124a6b|583=35487c684f5b496f|40=2|41=1d5e5bb48be42fd|44=17.71|55=ENI|54=2|59=0|63=4|60=20150520-13:30:40.549|453=1|448=IB|447=D|452=1|10=044|
20150520-13:30:40.589: 8=FIX.4.4|9=0378|35=8|49=ADR_ARBITRAGE_IB_XNYS|56=LVBSG|34=197|52=20150520-13:30:40|50=XPUS|57=7369691|1=U1216799|207=SMART|6=17.719995|11=75841576fc674f61|14=3800|17=00010ec8.555c416c.01.01|21=1|150=F|31=17.71|151=200|32=200|100=SMART|38=4000|39=1|37=1a51cc371c124a6b|583=35487c684f5b496f|40=2|41=1d5e5bb48be42fd|44=17.71|55=ENI|54=2|59=0|63=4|60=20150520-13:30:40.575|453=1|448=IB|447=D|452=1|10=103|
20150520-13:30:40.595: 8=FIX.4.4|9=0378|35=8|49=ADR_ARBITRAGE_IB_XNYS|56=LVBSG|34=198|52=20150520-13:30:40|50=XPUS|57=7369691|1=U1216799|207=SMART|6=17.719738|11=75841576fc674f61|14=3900|17=00013911.555c3f66.01.01|21=1|150=F|31=17.71|151=100|32=100|100=SMART|38=4000|39=1|37=1a51cc371c124a6b|583=35487c684f5b496f|40=2|41=1d5e5bb48be42fd|44=17.71|55=ENI|54=2|59=0|63=4|60=20150520-13:30:40.578|453=1|448=IB|447=D|452=1|10=010|
20150520-13:30:40.595: 8=FIX.4.4|9=0376|35=8|49=ADR_ARBITRAGE_IB_XNYS|56=LVBSG|34=199|52=20150520-13:30:40|50=XPUS|57=7369691|1=U1216799|207=SMART|6=17.719495|11=75841576fc674f61|14=4000|17=00013911.555c3f67.01.01|21=1|150=F|31=17.71|151=0|32=100|100=SMART|38=4000|39=2|37=1a51cc371c124a6b|583=35487c684f5b496f|40=2|41=1d5e5bb48be42fd|44=17.71|55=ENI|54=2|59=0|63=4|60=20150520-13:30:40.578|453=1|448=IB|447=D|452=1|10=162|
20150520-13:30:40.813: 8=FIX.4.4|9=0253|35=9|49=ADR_ARBITRAGE_IB_XNYS|56=LVBSG|34=200|52=20150520-13:30:40|50=XPUS|57=7369691|102=0|1=U1216799|39=8|37=1a51cc371c124a6b|583=35487c684f5b496f|434=2|11=75841576fc674f61|41=1d5e5bb48be42fd|58=Cannot modify the filled order|60=20150520-13:30:40.755|10=048|
20150520-13:30:56.176: 8=FIX.4.4|9=269|35=D|34=141|49=LVBSG|50=7369691|52=20150520-13:30:56.176|56=ADR_ARBITRAGE_IB_XNYS|57=XPUS|1=U1216799|11=4e4fb53824884732|21=1|38=2500|40=2|44=8.84|54=1|55=LFL|59=0|60=20150520-13:30:56.176|63=4|100=SMART|111=100|207=SMART|583=-67434f8d2d7cbfcb|453=1|448=IB|447=D|452=1|10=041|
20150520-13:30:56.193: 8=FIX.4.4|9=0336|35=8|49=ADR_ARBITRAGE_IB_XNYS|56=LVBSG|34=201|52=20150520-13:30:56|50=XPUS|57=7369691|1=U1216799|207=SMART|6=0|11=4e4fb53824884732|14=0|17=-b142ab5f3d8b2d3|21=1|150=A|31=0|151=2500|32=0|100=SMART|38=2500|39=A|37=51ff17c35a354d4a|583=-67434f8d2d7cbfcb|40=2|44=8.84|55=LFL|54=1|59=0|63=4|60=20150520-13:30:56.187|453=1|448=IB|447=D|452=1|10=248|
20150520-13:30:56.389: 8=FIX.4.4|9=0338|35=8|49=ADR_ARBITRAGE_IB_XNYS|56=LVBSG|34=202|52=20150520-13:30:56|50=XPUS|57=7369691|1=U1216799|207=SMART|6=0|11=4e4fb53824884732|14=0|17=81760.1432128656.1|21=1|150=0|31=0|151=2500|32=0|100=SMART|38=2500|39=0|37=51ff17c35a354d4a|583=-67434f8d2d7cbfcb|40=2|44=8.84|55=LFL|54=1|59=0|63=4|60=20150520-13:30:56.377|453=1|448=IB|447=D|452=1|10=245|
20150520-13:30:56.394: 8=FIX.4.4|9=289|35=G|34=142|49=LVBSG|50=7369691|52=20150520-13:30:56.394|56=ADR_ARBITRAGE_IB_XNYS|57=XPUS|1=U1216799|11=2ad2aa97532247ef|21=1|38=4000|40=2|41=4e4fb53824884732|44=8.84|54=1|55=LFL|59=0|60=20150520-13:30:56.393|63=4|100=SMART|111=100|207=SMART|583=-67434f8d2d7cbfcb|453=1|448=IB|447=D|452=1|10=047|
20150520-13:30:56.405: 8=FIX.4.4|9=0356|35=8|49=ADR_ARBITRAGE_IB_XNYS|56=LVBSG|34=203|52=20150520-13:30:56|50=XPUS|57=7369691|1=U1216799|207=SMART|6=0|11=2ad2aa97532247ef|14=0|17=7a4e4bcb8c1340b0|21=1|150=E|31=0|151=2500|32=0|100=SMART|38=4000|39=E|37=51ff17c35a354d4a|583=-67434f8d2d7cbfcb|40=2|41=4e4fb53824884732|44=8.84|55=LFL|54=1|59=0|63=4|60=20150520-13:30:56.400|453=1|448=IB|447=D|452=1|10=248|
20150520-13:30:56.607: 8=FIX.4.4|9=0373|35=8|49=ADR_ARBITRAGE_IB_XNYS|56=LVBSG|34=204|52=20150520-13:30:56|50=XPUS|57=7369691|1=U1216799|207=SMART|6=8.84|11=2ad2aa97532247ef|14=100|17=0000e587.555c7412.01.01|21=1|150=F|31=8.84|151=2400|32=100|100=SMART|38=2500|39=1|37=51ff17c35a354d4a|583=-67434f8d2d7cbfcb|40=2|41=4e4fb53824884732|44=8.84|55=LFL|54=1|59=0|63=4|60=20150520-13:30:56.586|453=1|448=IB|447=D|452=1|10=096|
20150520-13:30:56.620: 8=FIX.4.4|9=0373|35=8|49=ADR_ARBITRAGE_IB_XNYS|56=LVBSG|34=205|52=20150520-13:30:56|50=XPUS|57=7369691|1=U1216799|207=SMART|6=8.84|11=2ad2aa97532247ef|14=200|17=0000d7a7.555c74ba.01.01|21=1|150=F|31=8.84|151=2300|32=100|100=SMART|38=2500|39=1|37=51ff17c35a354d4a|583=-67434f8d2d7cbfcb|40=2|41=4e4fb53824884732|44=8.84|55=LFL|54=1|59=0|63=4|60=20150520-13:30:56.597|453=1|448=IB|447=D|452=1|10=237|
20150520-13:30:56.620: 8=FIX.4.4|9=0373|35=8|49=ADR_ARBITRAGE_IB_XNYS|56=LVBSG|34=206|52=20150520-13:30:56|50=XPUS|57=7369691|1=U1216799|207=SMART|6=8.84|11=2ad2aa97532247ef|14=300|17=0000d7a7.555c74bb.01.01|21=1|150=F|31=8.84|151=2200|32=100|100=SMART|38=2500|39=1|37=51ff17c35a354d4a|583=-67434f8d2d7cbfcb|40=2|41=4e4fb53824884732|44=8.84|55=LFL|54=1|59=0|63=4|60=20150520-13:30:56.597|453=1|448=IB|447=D|452=1|10=239|
20150520-13:30:56.620: 8=FIX.4.4|9=0373|35=8|49=ADR_ARBITRAGE_IB_XNYS|56=LVBSG|34=207|52=20150520-13:30:56|50=XPUS|57=7369691|1=U1216799|207=SMART|6=8.84|11=2ad2aa97532247ef|14=400|17=0000d7a7.555c74bc.01.01|21=1|150=F|31=8.84|151=2100|32=100|100=SMART|38=2500|39=1|37=51ff17c35a354d4a|583=-67434f8d2d7cbfcb|40=2|41=4e4fb53824884732|44=8.84|55=LFL|54=1|59=0|63=4|60=20150520-13:30:56.598|453=1|448=IB|447=D|452=1|10=242|
20150520-13:30:56.630: 8=FIX.4.4|9=0373|35=8|49=ADR_ARBITRAGE_IB_XNYS|56=LVBSG|34=208|52=20150520-13:30:56|50=XPUS|57=7369691|1=U1216799|207=SMART|6=8.84|11=2ad2aa97532247ef|14=500|17=00010d1f.555c3f35.01.01|21=1|150=F|31=8.84|151=2000|32=100|100=SMART|38=2500|39=1|37=51ff17c35a354d4a|583=-67434f8d2d7cbfcb|40=2|41=4e4fb53824884732|44=8.84|55=LFL|54=1|59=0|63=4|60=20150520-13:30:56.609|453=1|448=IB|447=D|452=1|10=182|
20150520-13:30:56.630: 8=FIX.4.4|9=0373|35=8|49=ADR_ARBITRAGE_IB_XNYS|56=LVBSG|34=209|52=20150520-13:30:56|50=XPUS|57=7369691|1=U1216799|207=SMART|6=8.84|11=2ad2aa97532247ef|14=600|17=00010d1f.555c3f36.01.01|21=1|150=F|31=8.84|151=1900|32=100|100=SMART|38=2500|39=1|37=51ff17c35a354d4a|583=-67434f8d2d7cbfcb|40=2|41=4e4fb53824884732|44=8.84|55=LFL|54=1|59=0|63=4|60=20150520-13:30:56.610|453=1|448=IB|447=D|452=1|10=185|
20150520-13:30:56.639: 8=FIX.4.4|9=0373|35=8|49=ADR_ARBITRAGE_IB_XNYS|56=LVBSG|34=210|52=20150520-13:30:56|50=XPUS|57=7369691|1=U1216799|207=SMART|6=8.84|11=2ad2aa97532247ef|14=700|17=00010d1f.555c3f37.01.01|21=1|150=F|31=8.84|151=1800|32=100|100=SMART|38=2500|39=1|37=51ff17c35a354d4a|583=-67434f8d2d7cbfcb|40=2|41=4e4fb53824884732|44=8.84|55=LFL|54=1|59=0|63=4|60=20150520-13:30:56.621|453=1|448=IB|447=D|452=1|10=180|
20150520-13:30:56.648: 8=FIX.4.4|9=0373|35=8|49=ADR_ARBITRAGE_IB_XNYS|56=LVBSG|34=211|52=20150520-13:30:56|50=XPUS|57=7369691|1=U1216799|207=SMART|6=8.84|11=2ad2aa97532247ef|14=800|17=00010d1f.555c3f38.01.01|21=1|150=F|31=8.84|151=1700|32=100|100=SMART|38=2500|39=1|37=51ff17c35a354d4a|583=-67434f8d2d7cbfcb|40=2|41=4e4fb53824884732|44=8.84|55=LFL|54=1|59=0|63=4|60=20150520-13:30:56.630|453=1|448=IB|447=D|452=1|10=182|
20150520-13:30:56.665: 8=FIX.4.4|9=0373|35=8|49=ADR_ARBITRAGE_IB_XNYS|56=LVBSG|34=212|52=20150520-13:30:56|50=XPUS|57=7369691|1=U1216799|207=SMART|6=8.84|11=2ad2aa97532247ef|14=900|17=00010d1f.555c3f39.01.01|21=1|150=F|31=8.84|151=1600|32=100|100=SMART|38=2500|39=1|37=51ff17c35a354d4a|583=-67434f8d2d7cbfcb|40=2|41=4e4fb53824884732|44=8.84|55=LFL|54=1|59=0|63=4|60=20150520-13:30:56.640|453=1|448=IB|447=D|452=1|10=185|
20150520-13:30:56.683: 8=FIX.4.4|9=0374|35=8|49=ADR_ARBITRAGE_IB_XNYS|56=LVBSG|34=213|52=20150520-13:30:56|50=XPUS|57=7369691|1=U1216799|207=SMART|6=8.84|11=2ad2aa97532247ef|14=1000|17=0001390d.555c3fd5.01.01|21=1|150=F|31=8.84|151=1500|32=100|100=SMART|38=2500|39=1|37=51ff17c35a354d4a|583=-67434f8d2d7cbfcb|40=2|41=4e4fb53824884732|44=8.84|55=LFL|54=1|59=0|63=4|60=20150520-13:30:56.649|453=1|448=IB|447=D|452=1|10=237|
20150520-13:30:56.690: 8=FIX.4.4|9=0373|35=8|49=ADR_ARBITRAGE_IB_XNYS|56=LVBSG|34=214|52=20150520-13:30:56|50=XPUS|57=7369691|1=U1216799|207=SMART|6=8.84|11=2ad2aa97532247ef|14=1032|17=0001390d.555c3fd6.01.01|21=1|150=F|31=8.84|151=1468|32=32|100=SMART|38=2500|39=1|37=51ff17c35a354d4a|583=-67434f8d2d7cbfcb|40=2|41=4e4fb53824884732|44=8.84|55=LFL|54=1|59=0|63=4|60=20150520-13:30:56.651|453=1|448=IB|447=D|452=1|10=205|
20150520-13:30:56.703: 8=FIX.4.4|9=0374|35=8|49=ADR_ARBITRAGE_IB_XNYS|56=LVBSG|34=215|52=20150520-13:30:56|50=XPUS|57=7369691|1=U1216799|207=SMART|6=8.84|11=2ad2aa97532247ef|14=1132|17=0000d7a7.555c74bd.01.01|21=1|150=F|31=8.84|151=1368|32=100|100=SMART|38=2500|39=1|37=51ff17c35a354d4a|583=-67434f8d2d7cbfcb|40=2|41=4e4fb53824884732|44=8.84|55=LFL|54=1|59=0|63=4|60=20150520-13:30:56.667|453=1|448=IB|447=D|452=1|10=050|
20150520-13:30:56.705: 8=FIX.4.4|9=0374|35=8|49=ADR_ARBITRAGE_IB_XNYS|56=LVBSG|34=216|52=20150520-13:30:56|50=XPUS|57=7369691|1=U1216799|207=SMART|6=8.84|11=2ad2aa97532247ef|14=1232|17=0000e587.555c7413.01.01|21=1|150=F|31=8.84|151=1268|32=100|100=SMART|38=2500|39=1|37=51ff17c35a354d4a|583=-67434f8d2d7cbfcb|40=2|41=4e4fb53824884732|44=8.84|55=LFL|54=1|59=0|63=4|60=20150520-13:30:56.673|453=1|448=IB|447=D|452=1|10=164|
20150520-13:30:57.095: 8=FIX.4.4|9=0364|35=8|49=ADR_ARBITRAGE_IB_XNYS|56=LVBSG|34=217|52=20150520-13:30:56|50=XPUS|57=7369691|1=U1216799|207=SMART|6=8.84|11=2ad2aa97532247ef|14=1232|17=81760.1432128656.4|21=1|150=5|31=0|151=2768|32=0|100=SMART|38=4000|39=1|37=51ff17c35a354d4a|583=-67434f8d2d7cbfcb|40=2|41=4e4fb53824884732|44=8.84|55=LFL|54=1|59=0|63=4|60=20150520-13:30:56.970|453=1|448=IB|447=D|452=1|10=073|
20150520-13:30:57.101: 8=FIX.4.4|9=289|35=G|34=143|49=LVBSG|50=7369691|52=20150520-13:30:57.101|56=ADR_ARBITRAGE_IB_XNYS|57=XPUS|1=U1216799|11=37a16085a2e74c11|21=1|38=4000|40=2|41=2ad2aa97532247ef|44=8.85|54=1|55=LFL|59=0|60=20150520-13:30:57.100|63=4|100=SMART|111=100|207=SMART|583=-67434f8d2d7cbfcb|453=1|448=IB|447=D|452=1|10=051|
20150520-13:30:57.118: 8=FIX.4.4|9=0361|35=8|49=ADR_ARBITRAGE_IB_XNYS|56=LVBSG|34=218|52=20150520-13:30:57|50=XPUS|57=7369691|1=U1216799|207=SMART|6=8.84|11=37a16085a2e74c11|14=1232|17=74a8e466c744867|21=1|150=E|31=0|151=2768|32=0|100=SMART|38=4000|39=E|37=51ff17c35a354d4a|583=-67434f8d2d7cbfcb|40=2|41=2ad2aa97532247ef|44=8.85|55=LFL|54=1|59=0|63=4|60=20150520-13:30:57.112|453=1|448=IB|447=D|452=1|10=146|
20150520-13:30:57.484: 8=FIX.4.4|9=0364|35=8|49=ADR_ARBITRAGE_IB_XNYS|56=LVBSG|34=219|52=20150520-13:30:57|50=XPUS|57=7369691|1=U1216799|207=SMART|6=8.84|11=37a16085a2e74c11|14=1232|17=81760.1432128657.1|21=1|150=5|31=0|151=2768|32=0|100=SMART|38=4000|39=1|37=51ff17c35a354d4a|583=-67434f8d2d7cbfcb|40=2|41=2ad2aa97532247ef|44=8.85|55=LFL|54=1|59=0|63=4|60=20150520-13:30:57.478|453=1|448=IB|447=D|452=1|10=107|
20150520-13:30:57.487: 8=FIX.4.4|9=0378|35=8|49=ADR_ARBITRAGE_IB_XNYS|56=LVBSG|34=220|52=20150520-13:30:57|50=XPUS|57=7369691|1=U1216799|207=SMART|6=8.840751|11=37a16085a2e74c11|14=1332|17=0000e587.555c7414.01.01|21=1|150=F|31=8.85|151=2668|32=100|100=SMART|38=4000|39=1|37=51ff17c35a354d4a|583=-67434f8d2d7cbfcb|40=2|41=2ad2aa97532247ef|44=8.85|55=LFL|54=1|59=0|63=4|60=20150520-13:30:57.482|453=1|448=IB|447=D|452=1|10=146|
20150520-13:30:57.499: 8=FIX.4.4|9=0378|35=8|49=ADR_ARBITRAGE_IB_XNYS|56=LVBSG|34=221|52=20150520-13:30:57|50=XPUS|57=7369691|1=U1216799|207=SMART|6=8.841397|11=37a16085a2e74c11|14=1432|17=0000e587.555c7415.01.01|21=1|150=F|31=8.85|151=2568|32=100|100=SMART|38=4000|39=1|37=51ff17c35a354d4a|583=-67434f8d2d7cbfcb|40=2|41=2ad2aa97532247ef|44=8.85|55=LFL|54=1|59=0|63=4|60=20150520-13:30:57.486|453=1|448=IB|447=D|452=1|10=159|
20150520-13:30:57.512: 8=FIX.4.4|9=0378|35=8|49=ADR_ARBITRAGE_IB_XNYS|56=LVBSG|34=222|52=20150520-13:30:57|50=XPUS|57=7369691|1=U1216799|207=SMART|6=8.841958|11=37a16085a2e74c11|14=1532|17=0001390d.555c3fe2.01.01|21=1|150=F|31=8.85|151=2468|32=100|100=SMART|38=4000|39=1|37=51ff17c35a354d4a|583=-67434f8d2d7cbfcb|40=2|41=2ad2aa97532247ef|44=8.85|55=LFL|54=1|59=0|63=4|60=20150520-13:30:57.496|453=1|448=IB|447=D|452=1|10=251|
20150520-13:30:57.522: 8=FIX.4.4|9=0378|35=8|49=ADR_ARBITRAGE_IB_XNYS|56=LVBSG|34=223|52=20150520-13:30:57|50=XPUS|57=7369691|1=U1216799|207=SMART|6=8.842451|11=37a16085a2e74c11|14=1632|17=00010d1f.555c3f41.01.01|21=1|150=F|31=8.85|151=2368|32=100|100=SMART|38=4000|39=1|37=51ff17c35a354d4a|583=-67434f8d2d7cbfcb|40=2|41=2ad2aa97532247ef|44=8.85|55=LFL|54=1|59=0|63=4|60=20150520-13:30:57.513|453=1|448=IB|447=D|452=1|10=224|
20150520-13:30:57.524: 8=FIX.4.4|9=0378|35=8|49=ADR_ARBITRAGE_IB_XNYS|56=LVBSG|34=224|52=20150520-13:30:57|50=XPUS|57=7369691|1=U1216799|207=SMART|6=8.842887|11=37a16085a2e74c11|14=1732|17=00010d1f.555c3f42.01.01|21=1|150=F|31=8.85|151=2268|32=100|100=SMART|38=4000|39=1|37=51ff17c35a354d4a|583=-67434f8d2d7cbfcb|40=2|41=2ad2aa97532247ef|44=8.85|55=LFL|54=1|59=0|63=4|60=20150520-13:30:57.516|453=1|448=IB|447=D|452=1|10=242|
20150520-13:30:57.545: 8=FIX.4.4|9=0378|35=8|49=ADR_ARBITRAGE_IB_XNYS|56=LVBSG|34=225|52=20150520-13:30:57|50=XPUS|57=7369691|1=U1216799|207=SMART|6=8.843275|11=37a16085a2e74c11|14=1832|17=00010d1f.555c3f43.01.01|21=1|150=F|31=8.85|151=2168|32=100|100=SMART|38=4000|39=1|37=51ff17c35a354d4a|583=-67434f8d2d7cbfcb|40=2|41=2ad2aa97532247ef|44=8.85|55=LFL|54=1|59=0|63=4|60=20150520-13:30:57.527|453=1|448=IB|447=D|452=1|10=238|
20150520-13:30:57.564: 8=FIX.4.4|9=0378|35=8|49=ADR_ARBITRAGE_IB_XNYS|56=LVBSG|34=226|52=20150520-13:30:57|50=XPUS|57=7369691|1=U1216799|207=SMART|6=8.843623|11=37a16085a2e74c11|14=1932|17=00010d1f.555c3f44.01.01|21=1|150=F|31=8.85|151=2068|32=100|100=SMART|38=4000|39=1|37=51ff17c35a354d4a|583=-67434f8d2d7cbfcb|40=2|41=2ad2aa97532247ef|44=8.85|55=LFL|54=1|59=0|63=4|60=20150520-13:30:57.555|453=1|448=IB|447=D|452=1|10=238|
20150520-13:30:57.583: 8=FIX.4.4|9=0378|35=8|49=ADR_ARBITRAGE_IB_XNYS|56=LVBSG|34=227|52=20150520-13:30:57|50=XPUS|57=7369691|1=U1216799|207=SMART|6=8.843937|11=37a16085a2e74c11|14=2032|17=00010d1f.555c3f45.01.01|21=1|150=F|31=8.85|151=1968|32=100|100=SMART|38=4000|39=1|37=51ff17c35a354d4a|583=-67434f8d2d7cbfcb|40=2|41=2ad2aa97532247ef|44=8.85|55=LFL|54=1|59=0|63=4|60=20150520-13:30:57.559|453=1|448=IB|447=D|452=1|10=252|
20150520-13:30:57.584: 8=FIX.4.4|9=0378|35=8|49=ADR_ARBITRAGE_IB_XNYS|56=LVBSG|34=228|52=20150520-13:30:57|50=XPUS|57=7369691|1=U1216799|207=SMART|6=8.844221|11=37a16085a2e74c11|14=2132|17=00010d1f.555c3f46.01.01|21=1|150=F|31=8.85|151=1868|32=100|100=SMART|38=4000|39=1|37=51ff17c35a354d4a|583=-67434f8d2d7cbfcb|40=2|41=2ad2aa97532247ef|44=8.85|55=LFL|54=1|59=0|63=4|60=20150520-13:30:57.560|453=1|448=IB|447=D|452=1|10=233|
20150520-13:30:57.592: 8=FIX.4.4|9=0377|35=8|49=ADR_ARBITRAGE_IB_XNYS|56=LVBSG|34=229|52=20150520-13:30:57|50=XPUS|57=7369691|1=U1216799|207=SMART|6=8.84448|11=37a16085a2e74c11|14=2232|17=00010d1f.555c3f47.01.01|21=1|150=F|31=8.85|151=1768|32=100|100=SMART|38=4000|39=1|37=51ff17c35a354d4a|583=-67434f8d2d7cbfcb|40=2|41=2ad2aa97532247ef|44=8.85|55=LFL|54=1|59=0|63=4|60=20150520-13:30:57.561|453=1|448=IB|447=D|452=1|10=194|
20150520-13:31:23.134: 8=FIX.4.4|9=0378|35=8|49=ADR_ARBITRAGE_IB_XNYS|56=LVBSG|34=230|52=20150520-13:31:23|50=XPUS|57=7369691|1=U1216799|207=SMART|6=8.844717|11=37a16085a2e74c11|14=2332|17=00010ff0.555c7fbd.01.01|21=1|150=F|31=8.85|151=1668|32=100|100=SMART|38=4000|39=1|37=51ff17c35a354d4a|583=-67434f8d2d7cbfcb|40=2|41=2ad2aa97532247ef|44=8.85|55=LFL|54=1|59=0|63=4|60=20150520-13:31:23.128|453=1|448=IB|447=D|452=1|10=065|
20150520-13:31:23.282: 8=FIX.4.4|9=0378|35=8|49=ADR_ARBITRAGE_IB_XNYS|56=LVBSG|34=231|52=20150520-13:31:23|50=XPUS|57=7369691|1=U1216799|207=SMART|6=8.844934|11=37a16085a2e74c11|14=2432|17=00010ff0.555c7fbe.01.01|21=1|150=F|31=8.85|151=1568|32=100|100=SMART|38=4000|39=1|37=51ff17c35a354d4a|583=-67434f8d2d7cbfcb|40=2|41=2ad2aa97532247ef|44=8.85|55=LFL|54=1|59=0|63=4|60=20150520-13:31:23.276|453=1|448=IB|447=D|452=1|10=072|
20150520-13:31:23.293: 8=FIX.4.4|9=0378|35=8|49=ADR_ARBITRAGE_IB_XNYS|56=LVBSG|34=232|52=20150520-13:31:23|50=XPUS|57=7369691|1=U1216799|207=SMART|6=8.845134|11=37a16085a2e74c11|14=2532|17=00010ff0.555c7fbf.01.01|21=1|150=F|31=8.85|151=1468|32=100|100=SMART|38=4000|39=1|37=51ff17c35a354d4a|583=-67434f8d2d7cbfcb|40=2|41=2ad2aa97532247ef|44=8.85|55=LFL|54=1|59=0|63=4|60=20150520-13:31:23.283|453=1|448=IB|447=D|452=1|10=065|
20150520-13:31:23.296: 8=FIX.4.4|9=0378|35=8|49=ADR_ARBITRAGE_IB_XNYS|56=LVBSG|34=233|52=20150520-13:31:23|50=XPUS|57=7369691|1=U1216799|207=SMART|6=8.845319|11=37a16085a2e74c11|14=2632|17=00010ff0.555c7fc0.01.01|21=1|150=F|31=8.85|151=1368|32=100|100=SMART|38=4000|39=1|37=51ff17c35a354d4a|583=-67434f8d2d7cbfcb|40=2|41=2ad2aa97532247ef|44=8.85|55=LFL|54=1|59=0|63=4|60=20150520-13:31:23.290|453=1|448=IB|447=D|452=1|10=016|
20150520-13:31:23.300: 8=FIX.4.4|9=0377|35=8|49=ADR_ARBITRAGE_IB_XNYS|56=LVBSG|34=234|52=20150520-13:31:23|50=XPUS|57=7369691|1=U1216799|207=SMART|6=8.84549|11=37a16085a2e74c11|14=2732|17=00010ff0.555c7fc1.01.01|21=1|150=F|31=8.85|151=1268|32=100|100=SMART|38=4000|39=1|37=51ff17c35a354d4a|583=-67434f8d2d7cbfcb|40=2|41=2ad2aa97532247ef|44=8.85|55=LFL|54=1|59=0|63=4|60=20150520-13:31:23.295|453=1|448=IB|447=D|452=1|10=230|
20150520-13:31:23.315: 8=FIX.4.4|9=0377|35=8|49=ADR_ARBITRAGE_IB_XNYS|56=LVBSG|34=235|52=20150520-13:31:23|50=XPUS|57=7369691|1=U1216799|207=SMART|6=8.84565|11=37a16085a2e74c11|14=2832|17=00010ff0.555c7fc2.01.01|21=1|150=F|31=8.85|151=1168|32=100|100=SMART|38=4000|39=1|37=51ff17c35a354d4a|583=-67434f8d2d7cbfcb|40=2|41=2ad2aa97532247ef|44=8.85|55=LFL|54=1|59=0|63=4|60=20150520-13:31:23.308|453=1|448=IB|447=D|452=1|10=225|
20150520-13:31:23.320: 8=FIX.4.4|9=0378|35=8|49=ADR_ARBITRAGE_IB_XNYS|56=LVBSG|34=236|52=20150520-13:31:23|50=XPUS|57=7369691|1=U1216799|207=SMART|6=8.845798|11=37a16085a2e74c11|14=2932|17=00010ff0.555c7fc3.01.01|21=1|150=F|31=8.85|151=1068|32=100|100=SMART|38=4000|39=1|37=51ff17c35a354d4a|583=-67434f8d2d7cbfcb|40=2|41=2ad2aa97532247ef|44=8.85|55=LFL|54=1|59=0|63=4|60=20150520-13:31:23.312|453=1|448=IB|447=D|452=1|10=028|
20150520-13:31:23.326: 8=FIX.4.4|9=0377|35=8|49=ADR_ARBITRAGE_IB_XNYS|56=LVBSG|34=237|52=20150520-13:31:23|50=XPUS|57=7369691|1=U1216799|207=SMART|6=8.845937|11=37a16085a2e74c11|14=3032|17=00010ff0.555c7fc4.01.01|21=1|150=F|31=8.85|151=968|32=100|100=SMART|38=4000|39=1|37=51ff17c35a354d4a|583=-67434f8d2d7cbfcb|40=2|41=2ad2aa97532247ef|44=8.85|55=LFL|54=1|59=0|63=4|60=20150520-13:31:23.321|453=1|448=IB|447=D|452=1|10=232|
20150520-13:31:23.330: 8=FIX.4.4|9=0377|35=8|49=ADR_ARBITRAGE_IB_XNYS|56=LVBSG|34=238|52=20150520-13:31:23|50=XPUS|57=7369691|1=U1216799|207=SMART|6=8.846066|11=37a16085a2e74c11|14=3132|17=00010ff0.555c7fc5.01.01|21=1|150=F|31=8.85|151=868|32=100|100=SMART|38=4000|39=1|37=51ff17c35a354d4a|583=-67434f8d2d7cbfcb|40=2|41=2ad2aa97532247ef|44=8.85|55=LFL|54=1|59=0|63=4|60=20150520-13:31:23.325|453=1|448=IB|447=D|452=1|10=232|
20150520-13:31:23.338: 8=FIX.4.4|9=0377|35=8|49=ADR_ARBITRAGE_IB_XNYS|56=LVBSG|34=239|52=20150520-13:31:23|50=XPUS|57=7369691|1=U1216799|207=SMART|6=8.846188|11=37a16085a2e74c11|14=3232|17=00010ff0.555c7fc6.01.01|21=1|150=F|31=8.85|151=768|32=100|100=SMART|38=4000|39=1|37=51ff17c35a354d4a|583=-67434f8d2d7cbfcb|40=2|41=2ad2aa97532247ef|44=8.85|55=LFL|54=1|59=0|63=4|60=20150520-13:31:23.331|453=1|448=IB|447=D|452=1|10=236|
20150520-13:31:23.444: 8=FIX.4.4|9=0377|35=8|49=ADR_ARBITRAGE_IB_XNYS|56=LVBSG|34=240|52=20150520-13:31:23|50=XPUS|57=7369691|1=U1216799|207=SMART|6=8.846303|11=37a16085a2e74c11|14=3332|17=00010ff0.555c7fcc.01.01|21=1|150=F|31=8.85|151=668|32=100|100=SMART|38=4000|39=1|37=51ff17c35a354d4a|583=-67434f8d2d7cbfcb|40=2|41=2ad2aa97532247ef|44=8.85|55=LFL|54=1|59=0|63=4|60=20150520-13:31:23.439|453=1|448=IB|447=D|452=1|10=015|
20150520-13:31:23.446: 8=FIX.4.4|9=0376|35=8|49=ADR_ARBITRAGE_IB_XNYS|56=LVBSG|34=241|52=20150520-13:31:23|50=XPUS|57=7369691|1=U1216799|207=SMART|6=8.84641|11=37a16085a2e74c11|14=3432|17=00010ff0.555c7fcd.01.01|21=1|150=F|31=8.85|151=568|32=100|100=SMART|38=4000|39=1|37=51ff17c35a354d4a|583=-67434f8d2d7cbfcb|40=2|41=2ad2aa97532247ef|44=8.85|55=LFL|54=1|59=0|63=4|60=20150520-13:31:23.439|453=1|448=IB|447=D|452=1|10=223|
20150520-13:31:23.461: 8=FIX.4.4|9=0377|35=8|49=ADR_ARBITRAGE_IB_XNYS|56=LVBSG|34=242|52=20150520-13:31:23|50=XPUS|57=7369691|1=U1216799|207=SMART|6=8.846512|11=37a16085a2e74c11|14=3532|17=00010ff0.555c7fce.01.01|21=1|150=F|31=8.85|151=468|32=100|100=SMART|38=4000|39=1|37=51ff17c35a354d4a|583=-67434f8d2d7cbfcb|40=2|41=2ad2aa97532247ef|44=8.85|55=LFL|54=1|59=0|63=4|60=20150520-13:31:23.445|453=1|448=IB|447=D|452=1|10=018|
20150520-13:31:23.462: 8=FIX.4.4|9=0377|35=8|49=ADR_ARBITRAGE_IB_XNYS|56=LVBSG|34=243|52=20150520-13:31:23|50=XPUS|57=7369691|1=U1216799|207=SMART|6=8.846608|11=37a16085a2e74c11|14=3632|17=00010ff0.555c7fcf.01.01|21=1|150=F|31=8.85|151=368|32=100|100=SMART|38=4000|39=1|37=51ff17c35a354d4a|583=-67434f8d2d7cbfcb|40=2|41=2ad2aa97532247ef|44=8.85|55=LFL|54=1|59=0|63=4|60=20150520-13:31:23.445|453=1|448=IB|447=D|452=1|10=026|
20150520-13:31:23.494: 8=FIX.4.4|9=0377|35=8|49=ADR_ARBITRAGE_IB_XNYS|56=LVBSG|34=244|52=20150520-13:31:23|50=XPUS|57=7369691|1=U1216799|207=SMART|6=8.846699|11=37a16085a2e74c11|14=3732|17=00010ff0.555c7fd0.01.01|21=1|150=F|31=8.85|151=268|32=100|100=SMART|38=4000|39=1|37=51ff17c35a354d4a|583=-67434f8d2d7cbfcb|40=2|41=2ad2aa97532247ef|44=8.85|55=LFL|54=1|59=0|63=4|60=20150520-13:31:23.449|453=1|448=IB|447=D|452=1|10=244|
20150520-13:31:26.183: 8=FIX.4.4|9=0377|35=8|49=ADR_ARBITRAGE_IB_XNYS|56=LVBSG|34=245|52=20150520-13:31:26|50=XPUS|57=7369691|1=U1216799|207=SMART|6=8.846785|11=37a16085a2e74c11|14=3832|17=00010ff0.555c7ff1.01.01|21=1|150=F|31=8.85|151=168|32=100|100=SMART|38=4000|39=1|37=51ff17c35a354d4a|583=-67434f8d2d7cbfcb|40=2|41=2ad2aa97532247ef|44=8.85|55=LFL|54=1|59=0|63=4|60=20150520-13:31:26.176|453=1|448=IB|447=D|452=1|10=247|
20150520-13:31:33.657: 8=FIX.4.4|9=282|35=G|34=144|49=LVBSG|50=7369691|52=20150520-13:31:33.657|56=ADR_ARBITRAGE_IB_XNYS|57=XPUS|1=U1216799|11=-337619572ee1b430|21=1|38=2000|40=2|41=193afa9c29614d15|44=21.83|54=2|55=BSAC|59=0|60=20150520-13:31:33.657|63=4|100=SMART|111=100|583=-2bb9d4b6cd58b1af|453=1|448=IB|447=D|452=1|10=072|
20150520-13:31:33.668: 8=FIX.4.4|9=0368|35=8|49=ADR_ARBITRAGE_IB_XNYS|56=LVBSG|34=246|52=20150520-13:31:33|50=XPUS|57=7369691|1=U1216799|207=SMART|6=21.894|11=-337619572ee1b430|14=500|17=-50e9f0237e1fbd6a|21=1|150=E|31=0|151=1500|32=0|100=SMART|38=2000|39=E|37=-44043d328241b7ba|583=-2bb9d4b6cd58b1af|40=2|41=193afa9c29614d15|44=21.83|55=BSAC|54=2|59=0|63=4|60=20150520-13:31:33.663|453=1|448=IB|447=D|452=1|10=237|
20150520-13:31:33.846: 8=FIX.4.4|9=0369|35=8|49=ADR_ARBITRAGE_IB_XNYS|56=LVBSG|34=247|52=20150520-13:31:33|50=XPUS|57=7369691|1=U1216799|207=SMART|6=21.894|11=-337619572ee1b430|14=500|17=81760.1432128693.1|21=1|150=5|31=0|151=1500|32=0|100=SMART|38=2000|39=1|37=-44043d328241b7ba|583=-2bb9d4b6cd58b1af|40=2|41=193afa9c29614d15|44=21.84|55=BSAC|54=2|59=0|63=4|60=20150520-13:31:33.837|453=1|448=IB|447=D|452=1|10=174|
20150520-13:31:34.210: 8=FIX.4.4|9=0369|35=8|49=ADR_ARBITRAGE_IB_XNYS|56=LVBSG|34=248|52=20150520-13:31:34|50=XPUS|57=7369691|1=U1216799|207=SMART|6=21.894|11=-337619572ee1b430|14=500|17=81760.1432128693.3|21=1|150=5|31=0|151=1500|32=0|100=SMART|38=2000|39=1|37=-44043d328241b7ba|583=-2bb9d4b6cd58b1af|40=2|41=193afa9c29614d15|44=21.83|55=BSAC|54=2|59=0|63=4|60=20150520-13:31:34.205|453=1|448=IB|447=D|452=1|10=167|
20150520-13:31:34.218: 8=FIX.4.4|9=0383|35=8|49=ADR_ARBITRAGE_IB_XNYS|56=LVBSG|34=249|52=20150520-13:31:34|50=XPUS|57=7369691|1=U1216799|207=SMART|6=21.883333|11=-337619572ee1b430|14=600|17=00010ff0.555c8018.01.01|21=1|150=F|31=21.83|151=1400|32=100|100=SMART|38=2000|39=1|37=-44043d328241b7ba|583=-2bb9d4b6cd58b1af|40=2|41=193afa9c29614d15|44=21.83|55=BSAC|54=2|59=0|63=4|60=20150520-13:31:34.210|453=1|448=IB|447=D|452=1|10=229|
20150520-13:31:40.779: 8=FIX.4.4|9=282|35=G|34=145|49=LVBSG|50=7369691|52=20150520-13:31:40.779|56=ADR_ARBITRAGE_IB_XNYS|57=XPUS|1=U1216799|11=64261ec907734b60|21=1|38=2000|40=2|41=-337619572ee1b430|44=21.82|54=2|55=BSAC|59=0|60=20150520-13:31:40.778|63=4|100=SMART|111=100|583=-2bb9d4b6cd58b1af|453=1|448=IB|447=D|452=1|10=237|
20150520-13:31:40.811: 8=FIX.4.4|9=0370|35=8|49=ADR_ARBITRAGE_IB_XNYS|56=LVBSG|34=250|52=20150520-13:31:40|50=XPUS|57=7369691|1=U1216799|207=SMART|6=21.883333|11=64261ec907734b60|14=600|17=1dd968e42cc940dd|21=1|150=E|31=0|151=1400|32=0|100=SMART|38=2000|39=E|37=-44043d328241b7ba|583=-2bb9d4b6cd58b1af|40=2|41=-337619572ee1b430|44=21.82|55=BSAC|54=2|59=0|63=4|60=20150520-13:31:40.785|453=1|448=IB|447=D|452=1|10=243|
20150520-13:31:41.333: 8=FIX.4.4|9=0372|35=8|49=ADR_ARBITRAGE_IB_XNYS|56=LVBSG|34=251|52=20150520-13:31:41|50=XPUS|57=7369691|1=U1216799|207=SMART|6=21.883333|11=64261ec907734b60|14=600|17=81760.1432128700.1|21=1|150=5|31=0|151=1400|32=0|100=SMART|38=2000|39=1|37=-44043d328241b7ba|583=-2bb9d4b6cd58b1af|40=2|41=-337619572ee1b430|44=21.82|55=BSAC|54=2|59=0|63=4|60=20150520-13:31:41.327|453=1|448=IB|447=D|452=1|10=197|
20150520-13:31:46.347: 8=FIX.4.4|9=0376|35=8|49=ADR_ARBITRAGE_IB_XNYS|56=LVBSG|34=252|52=20150520-13:31:46|50=XPUS|57=7369691|1=U1216799|207=SMART|6=8.846867|11=37a16085a2e74c11|14=3932|17=00010ff0.555c8055.01.01|21=1|150=F|31=8.85|151=68|32=100|100=SMART|38=4000|39=1|37=51ff17c35a354d4a|583=-67434f8d2d7cbfcb|40=2|41=2ad2aa97532247ef|44=8.85|55=LFL|54=1|59=0|63=4|60=20150520-13:31:46.341|453=1|448=IB|447=D|452=1|10=097|
20150520-13:31:46.481: 8=FIX.4.4|9=290|35=G|34=146|49=LVBSG|50=7369691|52=20150520-13:31:46.481|56=ADR_ARBITRAGE_IB_XNYS|57=XPUS|1=U1216799|11=-773cbd98bcddb84e|21=1|38=4000|40=2|41=37a16085a2e74c11|44=8.84|54=1|55=LFL|59=0|60=20150520-13:31:46.481|63=4|100=SMART|111=100|207=SMART|583=-67434f8d2d7cbfcb|453=1|448=IB|447=D|452=1|10=013|
20150520-13:31:46.495: 8=FIX.4.4|9=0363|35=8|49=ADR_ARBITRAGE_IB_XNYS|56=LVBSG|34=253|52=20150520-13:31:46|50=XPUS|57=7369691|1=U1216799|207=SMART|6=8.846867|11=-773cbd98bcddb84e|14=3932|17=496d08c75e4f46|21=1|150=E|31=0|151=68|32=0|100=SMART|38=4000|39=E|37=51ff17c35a354d4a|583=-67434f8d2d7cbfcb|40=2|41=37a16085a2e74c11|44=8.84|55=LFL|54=1|59=0|63=4|60=20150520-13:31:46.490|453=1|448=IB|447=D|452=1|10=214|
20150520-13:31:46.669: 8=FIX.4.4|9=0374|35=8|49=ADR_ARBITRAGE_IB_XNYS|56=LVBSG|34=254|52=20150520-13:31:46|50=XPUS|57=7369691|1=U1216799|207=SMART|6=8.84692|11=-773cbd98bcddb84e|14=4000|17=00010ff0.555c8056.01.01|21=1|150=F|31=8.85|151=0|32=68|100=SMART|38=4000|39=2|37=51ff17c35a354d4a|583=-67434f8d2d7cbfcb|40=2|41=37a16085a2e74c11|44=8.85|55=LFL|54=1|59=0|63=4|60=20150520-13:31:46.664|453=1|448=IB|447=D|452=1|10=142|
20150520-13:31:46.702: 8=FIX.4.4|9=267|35=D|34=147|49=LVBSG|50=7369691|52=20150520-13:31:46.702|56=ADR_ARBITRAGE_IB_XNYS|57=XPUS|1=U1216799|11=ebcc2a6bfef4074|21=1|38=600|40=2|44=8.84|54=1|55=LFL|59=0|60=20150520-13:31:46.702|63=4|100=SMART|111=100|207=SMART|583=-67434f8d2d7cbfcb|453=1|448=IB|447=D|452=1|10=207|
20150520-13:31:46.713: 8=FIX.4.4|9=0334|35=8|49=ADR_ARBITRAGE_IB_XNYS|56=LVBSG|34=255|52=20150520-13:31:46|50=XPUS|57=7369691|1=U1216799|207=SMART|6=0|11=ebcc2a6bfef4074|14=0|17=76b6f8c52ec44c71|21=1|150=A|31=0|151=600|32=0|100=SMART|38=600|39=A|37=-70fa3b55aa97b50c|583=-67434f8d2d7cbfcb|40=2|44=8.84|55=LFL|54=1|59=0|63=4|60=20150520-13:31:46.708|453=1|448=IB|447=D|452=1|10=190|
20150520-13:31:46.887: 8=FIX.4.4|9=0256|35=9|49=ADR_ARBITRAGE_IB_XNYS|56=LVBSG|34=256|52=20150520-13:31:46|50=XPUS|57=7369691|102=0|1=U1216799|39=8|37=51ff17c35a354d4a|583=-67434f8d2d7cbfcb|434=2|11=-773cbd98bcddb84e|41=37a16085a2e74c11|58=Cannot modify the filled order|60=20150520-13:31:46.882|10=236|
20150520-13:31:46.889: 8=FIX.4.4|9=270|35=D|34=148|49=LVBSG|50=7369691|52=20150520-13:31:46.889|56=ADR_ARBITRAGE_IB_XNYS|57=XPUS|1=U1216799|11=-3d239110d682b951|21=1|38=3400|40=2|44=8.84|54=1|55=LFL|59=0|60=20150520-13:31:46.889|63=4|100=SMART|111=100|207=SMART|583=-67434f8d2d7cbfcb|453=1|448=IB|447=D|452=1|10=092|
20150520-13:31:46.901: 8=FIX.4.4|9=0337|35=8|49=ADR_ARBITRAGE_IB_XNYS|56=LVBSG|34=257|52=20150520-13:31:46|50=XPUS|57=7369691|1=U1216799|207=SMART|6=0|11=-3d239110d682b951|14=0|17=-34bd2009facebe65|21=1|150=A|31=0|151=3400|32=0|100=SMART|38=3400|39=A|37=12e7a8e4f984d40|583=-67434f8d2d7cbfcb|40=2|44=8.84|55=LFL|54=1|59=0|63=4|60=20150520-13:31:46.895|453=1|448=IB|447=D|452=1|10=057|
20150520-13:31:47.179: 8=FIX.4.4|9=0336|35=8|49=ADR_ARBITRAGE_IB_XNYS|56=LVBSG|34=258|52=20150520-13:31:47|50=XPUS|57=7369691|1=U1216799|207=SMART|6=0|11=ebcc2a6bfef4074|14=0|17=81760.1432128706.4|21=1|150=0|31=0|151=600|32=0|100=SMART|38=600|39=0|37=-70fa3b55aa97b50c|583=-67434f8d2d7cbfcb|40=2|44=8.84|55=LFL|54=1|59=0|63=4|60=20150520-13:31:47.072|453=1|448=IB|447=D|452=1|10=205|
20150520-13:31:47.193: 8=FIX.4.4|9=0351|35=8|49=ADR_ARBITRAGE_IB_XNYS|56=LVBSG|34=259|52=20150520-13:31:47|50=XPUS|57=7369691|1=U1216799|207=SMART|6=8.84|11=ebcc2a6bfef4074|14=100|17=00014229.555c3dc1.01.01|21=1|150=F|31=8.84|151=500|32=100|100=SMART|38=600|39=1|37=-70fa3b55aa97b50c|583=-67434f8d2d7cbfcb|40=2|44=8.84|55=LFL|54=1|59=0|63=4|60=20150520-13:31:47.173|453=1|448=IB|447=D|452=1|10=092|
20150520-13:31:47.193: 8=FIX.4.4|9=0354|35=8|49=ADR_ARBITRAGE_IB_XNYS|56=LVBSG|34=260|52=20150520-13:31:47|50=XPUS|57=7369691|1=U1216799|207=SMART|6=8.83575|11=ebcc2a6bfef4074|14=600|17=0000dde5.aab8fcac.01.01|21=1|150=F|31=8.8349|151=0|32=500|100=SMART|38=600|39=2|37=-70fa3b55aa97b50c|583=-67434f8d2d7cbfcb|40=2|44=8.84|55=LFL|54=1|59=0|63=4|60=20150520-13:31:47.175|453=1|448=IB|447=D|452=1|10=086|
20150520-13:31:47.422: 8=FIX.4.4|9=0338|35=8|49=ADR_ARBITRAGE_IB_XNYS|56=LVBSG|34=261|52=20150520-13:31:47|50=XPUS|57=7369691|1=U1216799|207=SMART|6=0|11=-3d239110d682b951|14=0|17=81760.1432128706.7|21=1|150=0|31=0|151=3400|32=0|100=SMART|38=3400|39=0|37=12e7a8e4f984d40|583=-67434f8d2d7cbfcb|40=2|44=8.84|55=LFL|54=1|59=0|63=4|60=20150520-13:31:47.417|453=1|448=IB|447=D|452=1|10=192|
20150520-13:31:47.433: 8=FIX.4.4|9=0353|35=8|49=ADR_ARBITRAGE_IB_XNYS|56=LVBSG|34=262|52=20150520-13:31:47|50=XPUS|57=7369691|1=U1216799|207=SMART|6=8.84|11=-3d239110d682b951|14=100|17=00010ff0.555c8057.01.01|21=1|150=F|31=8.84|151=3300|32=100|100=SMART|38=3400|39=1|37=12e7a8e4f984d40|583=-67434f8d2d7cbfcb|40=2|44=8.84|55=LFL|54=1|59=0|63=4|60=20150520-13:31:47.420|453=1|448=IB|447=D|452=1|10=072|
20150520-13:32:31.376: 8=FIX.4.4|9=0343|35=8|49=ADR_ARBITRAGE_IB_XNYS|56=LVBSG|34=263|52=20150520-13:32:31|50=XPUS|57=7369691|1=U1216799|207=SMART|6=8.84|11=-3d239110d682b951|14=100|17=81760.1432128750.1|21=1|150=5|31=0|151=3300|32=0|100=SMART|38=3400|39=1|37=12e7a8e4f984d40|583=-67434f8d2d7cbfcb|40=2|44=8.85|55=LFL|54=1|59=0|63=4|60=20150520-13:32:31.370|453=1|448=IB|447=D|452=1|10=178|
20150520-13:32:33.609: 8=FIX.4.4|9=270|35=D|34=149|49=LVBSG|50=7369691|52=20150520-13:32:33.609|56=ADR_ARBITRAGE_IB_XNYS|57=XPUS|1=U1216799|11=-39fe4a537cebbaa2|21=1|38=1200|40=2|44=17.72|54=2|55=ENI|59=0|60=20150520-13:32:33.609|63=4|100=SMART|111=100|207=SMART|583=35487c684f5b496f|453=1|448=IB|447=D|452=1|10=172|
20150520-13:32:33.621: 8=FIX.4.4|9=0338|35=8|49=ADR_ARBITRAGE_IB_XNYS|56=LVBSG|34=264|52=20150520-13:32:33|50=XPUS|57=7369691|1=U1216799|207=SMART|6=0|11=-39fe4a537cebbaa2|14=0|17=5d98211a4bf84548|21=1|150=A|31=0|151=1200|32=0|100=SMART|38=1200|39=A|37=-73c8d5cc5ff2be5b|583=35487c684f5b496f|40=2|44=17.72|55=ENI|54=2|59=0|63=4|60=20150520-13:32:33.616|453=1|448=IB|447=D|452=1|10=206|
20150520-13:32:33.809: 8=FIX.4.4|9=0340|35=8|49=ADR_ARBITRAGE_IB_XNYS|56=LVBSG|34=265|52=20150520-13:32:33|50=XPUS|57=7369691|1=U1216799|207=SMART|6=0|11=-39fe4a537cebbaa2|14=0|17=81760.1432128753.1|21=1|150=0|31=0|151=1200|32=0|100=SMART|38=1200|39=0|37=-73c8d5cc5ff2be5b|583=35487c684f5b496f|40=2|44=17.72|55=ENI|54=2|59=0|63=4|60=20150520-13:32:33.804|453=1|448=IB|447=D|452=1|10=052|
20150520-13:32:33.822: 8=FIX.4.4|9=280|35=G|34=150|49=LVBSG|50=7369691|52=20150520-13:32:33.822|56=ADR_ARBITRAGE_IB_XNYS|57=XPUS|1=U1216799|11=75d88b709138412e|21=1|38=2700|40=2|41=-39fe4a537cebbaa2|44=17.72|54=2|55=ENI|59=0|60=20150520-13:32:33.822|63=4|100=SMART|111=100|583=35487c684f5b496f|453=1|448=IB|447=D|452=1|10=199|
20150520-13:32:33.835: 8=FIX.4.4|9=0359|35=8|49=ADR_ARBITRAGE_IB_XNYS|56=LVBSG|34=266|52=20150520-13:32:33|50=XPUS|57=7369691|1=U1216799|207=SMART|6=0|11=75d88b709138412e|14=0|17=-1906bd9d2a30b173|21=1|150=E|31=0|151=1200|32=0|100=SMART|38=2700|39=E|37=-73c8d5cc5ff2be5b|583=35487c684f5b496f|40=2|41=-39fe4a537cebbaa2|44=17.72|55=ENI|54=2|59=0|63=4|60=20150520-13:32:33.830|453=1|448=IB|447=D|452=1|10=167|
20150520-13:32:34.031: 8=FIX.4.4|9=0377|35=8|49=ADR_ARBITRAGE_IB_XNYS|56=LVBSG|34=267|52=20150520-13:32:34|50=XPUS|57=7369691|1=U1216799|207=SMART|6=17.72|11=75d88b709138412e|14=100|17=00010a77.555c7470.01.01|21=1|150=F|31=17.72|151=1100|32=100|100=SMART|38=1200|39=1|37=-73c8d5cc5ff2be5b|583=35487c684f5b496f|40=2|41=-39fe4a537cebbaa2|44=17.72|55=ENI|54=2|59=0|63=4|60=20150520-13:32:34.024|453=1|448=IB|447=D|452=1|10=120|
20150520-13:32:34.037: 8=FIX.4.4|9=0384|35=8|49=ADR_ARBITRAGE_IB_XNYS|56=LVBSG|34=268|52=20150520-13:32:34|50=XPUS|57=7369691|1=U1216799|207=SMART|6=17.725182|11=75d88b709138412e|14=1100|17=00015e46.aab8fcb3.01.01|21=1|150=F|31=17.7257|151=100|32=1000|100=SMART|38=1200|39=1|37=-73c8d5cc5ff2be5b|583=35487c684f5b496f|40=2|41=-39fe4a537cebbaa2|44=17.72|55=ENI|54=2|59=0|63=4|60=20150520-13:32:34.031|453=1|448=IB|447=D|452=1|10=204|
20150520-13:32:34.044: 8=FIX.4.4|9=0378|35=8|49=ADR_ARBITRAGE_IB_XNYS|56=LVBSG|34=269|52=20150520-13:32:34|50=XPUS|57=7369691|1=U1216799|207=SMART|6=17.72475|11=75d88b709138412e|14=1200|17=00010a77.555c7471.01.01|21=1|150=F|31=17.72|151=0|32=100|100=SMART|38=1200|39=2|37=-73c8d5cc5ff2be5b|583=35487c684f5b496f|40=2|41=-39fe4a537cebbaa2|44=17.72|55=ENI|54=2|59=0|63=4|60=20150520-13:32:34.038|453=1|448=IB|447=D|452=1|10=194|
20150520-13:32:34.384: 8=FIX.4.4|9=0250|35=9|49=ADR_ARBITRAGE_IB_XNYS|56=LVBSG|34=270|52=20150520-13:32:34|50=XPUS|57=7369691|102=1|1=U1216799|39=8|37=-73c8d5cc5ff2be5b|583=35487c684f5b496f|434=2|11=75d88b709138412e|41=-39fe4a537cebbaa2|58=Order is being cancelled|60=20150520-13:32:34.379|10=060|
20150520-13:32:34.386: 8=FIX.4.4|9=270|35=D|34=151|49=LVBSG|50=7369691|52=20150520-13:32:34.386|56=ADR_ARBITRAGE_IB_XNYS|57=XPUS|1=U1216799|11=-107e73632e17b922|21=1|38=1500|40=2|44=17.73|54=2|55=ENI|59=0|60=20150520-13:32:34.386|63=4|100=SMART|111=100|207=SMART|583=35487c684f5b496f|453=1|448=IB|447=D|452=1|10=146|
20150520-13:32:34.400: 8=FIX.4.4|9=0336|35=8|49=ADR_ARBITRAGE_IB_XNYS|56=LVBSG|34=271|52=20150520-13:32:34|50=XPUS|57=7369691|1=U1216799|207=SMART|6=0|11=-107e73632e17b922|14=0|17=95828601ffb44fa|21=1|150=A|31=0|151=1500|32=0|100=SMART|38=1500|39=A|37=46c66123e6614d76|583=35487c684f5b496f|40=2|44=17.73|55=ENI|54=2|59=0|63=4|60=20150520-13:32:34.395|453=1|448=IB|447=D|452=1|10=106|
20150520-13:32:34.591: 8=FIX.4.4|9=0339|35=8|49=ADR_ARBITRAGE_IB_XNYS|56=LVBSG|34=272|52=20150520-13:32:34|50=XPUS|57=7369691|1=U1216799|207=SMART|6=0|11=-107e73632e17b922|14=0|17=81760.1432128754.1|21=1|150=0|31=0|151=1500|32=0|100=SMART|38=1500|39=0|37=46c66123e6614d76|583=35487c684f5b496f|40=2|44=17.73|55=ENI|54=2|59=0|63=4|60=20150520-13:32:34.585|453=1|448=IB|447=D|452=1|10=225|
20150520-13:32:34.936: 8=FIX.4.4|9=0356|35=8|49=ADR_ARBITRAGE_IB_XNYS|56=LVBSG|34=273|52=20150520-13:32:34|50=XPUS|57=7369691|1=U1216799|207=SMART|6=17.73|11=-107e73632e17b922|14=100|17=00010ff0.555c8232.01.01|21=1|150=F|31=17.73|151=1400|32=100|100=SMART|38=1500|39=1|37=46c66123e6614d76|583=35487c684f5b496f|40=2|44=17.73|55=ENI|54=2|59=0|63=4|60=20150520-13:32:34.930|453=1|448=IB|447=D|452=1|10=197|
20150520-13:32:34.939: 8=FIX.4.4|9=0356|35=8|49=ADR_ARBITRAGE_IB_XNYS|56=LVBSG|34=274|52=20150520-13:32:34|50=XPUS|57=7369691|1=U1216799|207=SMART|6=17.73|11=-107e73632e17b922|14=200|17=00010ff0.555c8233.01.01|21=1|150=F|31=17.73|151=1300|32=100|100=SMART|38=1500|39=1|37=46c66123e6614d76|583=35487c684f5b496f|40=2|44=17.73|55=ENI|54=2|59=0|63=4|60=20150520-13:32:34.934|453=1|448=IB|447=D|452=1|10=203|
20150520-13:32:34.947: 8=FIX.4.4|9=0357|35=8|49=ADR_ARBITRAGE_IB_XNYS|56=LVBSG|34=275|52=20150520-13:32:34|50=XPUS|57=7369691|1=U1216799|207=SMART|6=17.73|11=-107e73632e17b922|14=1200|17=00015e46.aab8fcb5.01.01|21=1|150=F|31=17.73|151=300|32=1000|100=SMART|38=1500|39=1|37=46c66123e6614d76|583=35487c684f5b496f|40=2|44=17.73|55=ENI|54=2|59=0|63=4|60=20150520-13:32:34.941|453=1|448=IB|447=D|452=1|10=189|
20150520-13:32:34.951: 8=FIX.4.4|9=0354|35=8|49=ADR_ARBITRAGE_IB_XNYS|56=LVBSG|34=276|52=20150520-13:32:34|50=XPUS|57=7369691|1=U1216799|207=SMART|6=17.73|11=-107e73632e17b922|14=1500|17=00010ff0.555c8234.01.01|21=1|150=F|31=17.73|151=0|32=300|100=SMART|38=1500|39=2|37=46c66123e6614d76|583=35487c684f5b496f|40=2|44=17.73|55=ENI|54=2|59=0|63=4|60=20150520-13:32:34.946|453=1|448=IB|447=D|452=1|10=114|
20150520-13:32:44.094: 8=FIX.4.4|9=0383|35=8|49=ADR_ARBITRAGE_IB_XNYS|56=LVBSG|34=277|52=20150520-13:32:44|50=XPUS|57=7369691|1=U1216799|207=SMART|6=21.874286|11=64261ec907734b60|14=700|17=00010ff0.555c8290.01.01|21=1|150=F|31=21.82|151=1300|32=100|100=SMART|38=2000|39=1|37=-44043d328241b7ba|583=-2bb9d4b6cd58b1af|40=2|41=-337619572ee1b430|44=21.82|55=BSAC|54=2|59=0|63=4|60=20150520-13:32:44.086|453=1|448=IB|447=D|452=1|10=156|
20150520-13:32:44.295: 8=FIX.4.4|9=0381|35=8|49=ADR_ARBITRAGE_IB_XNYS|56=LVBSG|34=278|52=20150520-13:32:44|50=XPUS|57=7369691|1=U1216799|207=SMART|6=21.8675|11=64261ec907734b60|14=800|17=00010ff0.555c8291.01.01|21=1|150=F|31=21.82|151=1200|32=100|100=SMART|38=2000|39=1|37=-44043d328241b7ba|583=-2bb9d4b6cd58b1af|40=2|41=-337619572ee1b430|44=21.82|55=BSAC|54=2|59=0|63=4|60=20150520-13:32:44.278|453=1|448=IB|447=D|452=1|10=054|
20150520-13:32:44.296: 8=FIX.4.4|9=0383|35=8|49=ADR_ARBITRAGE_IB_XNYS|56=LVBSG|34=279|52=20150520-13:32:44|50=XPUS|57=7369691|1=U1216799|207=SMART|6=21.862222|11=64261ec907734b60|14=900|17=00010ff0.555c8292.01.01|21=1|150=F|31=21.82|151=1100|32=100|100=SMART|38=2000|39=1|37=-44043d328241b7ba|583=-2bb9d4b6cd58b1af|40=2|41=-337619572ee1b430|44=21.82|55=BSAC|54=2|59=0|63=4|60=20150520-13:32:44.279|453=1|448=IB|447=D|452=1|10=151|
20150520-13:32:44.296: 8=FIX.4.4|9=0381|35=8|49=ADR_ARBITRAGE_IB_XNYS|56=LVBSG|34=280|52=20150520-13:32:44|50=XPUS|57=7369691|1=U1216799|207=SMART|6=21.858|11=64261ec907734b60|14=1000|17=00010ff0.555c8293.01.01|21=1|150=F|31=21.82|151=1000|32=100|100=SMART|38=2000|39=1|37=-44043d328241b7ba|583=-2bb9d4b6cd58b1af|40=2|41=-337619572ee1b430|44=21.82|55=BSAC|54=2|59=0|63=4|60=20150520-13:32:44.280|453=1|448=IB|447=D|452=1|10=028|
