20150519-11:16:07.973: 8=FIX.4.4|9=58|35=5|34=1|49=LVMDG|52=20150519-11:16:07.973|56=BLODPENNA5|10=042|
20150519-11:16:08.908: 8=FIX.4.4|9=58|35=5|34=1|49=LVMDG|52=20150519-11:16:08.908|56=BLODPENNA5|10=041|
20150519-11:16:09.903: 8=FIX.4.4|9=76|35=A|34=1|49=LVMDG|52=20150519-11:16:09.903|56=BLODPENNA5|98=0|108=60|141=Y|10=122|
20150519-11:16:10.027: 8=FIX.4.4|9=58|35=5|34=1|49=BLODPENNA5|52=20150519-11:16:10.030|56=LVMDG|10=020|
20150519-11:16:10.028: 8=FIX.4.4|9=58|35=5|34=2|49=LVMDG|52=20150519-11:16:10.028|56=BLODPENNA5|10=028|
20150519-11:16:10.925: 8=FIX.4.4|9=76|35=A|34=1|49=LVMDG|52=20150519-11:16:10.925|56=BLODPENNA5|98=0|108=60|141=Y|10=118|
20150519-11:16:11.051: 8=FIX.4.4|9=76|35=A|34=1|49=BLODPENNA5|52=20150519-11:16:11.054|56=LVMDG|98=0|108=60|141=Y|10=112|
20150519-11:16:11.130: 8=FIX.4.4|9=149|35=V|34=2|49=LVMDG|52=20150519-11:16:11.129|56=BLODPENNA5|262=62ff85cf408d484a|263=1|264=0|146=1|55=COFX INDEX|207=BLPDPENNA|267=3|269=0|269=1|269=5|10=240|
20150519-11:17:11.058: 8=FIX.4.4|9=58|35=0|34=2|49=BLODPENNA5|52=20150519-11:17:11.062|56=LVMDG|10=023|
20150519-11:17:11.895: 8=FIX.4.4|9=58|35=0|34=3|49=LVMDG|52=20150519-11:17:11.895|56=BLODPENNA5|10=038|
20150519-11:18:11.060: 8=FIX.4.4|9=58|35=0|34=3|49=BLODPENNA5|52=20150519-11:18:11.066|56=LVMDG|10=029|
20150519-11:18:11.896: 8=FIX.4.4|9=58|35=0|34=4|49=LVMDG|52=20150519-11:18:11.895|56=BLODPENNA5|10=040|
20150519-11:19:11.062: 8=FIX.4.4|9=58|35=0|34=4|49=BLODPENNA5|52=20150519-11:19:11.069|56=LVMDG|10=034|
20150519-11:19:11.896: 8=FIX.4.4|9=58|35=0|34=5|49=LVMDG|52=20150519-11:19:11.896|56=BLODPENNA5|10=043|
20150519-11:20:11.065: 8=FIX.4.4|9=58|35=0|34=5|49=BLODPENNA5|52=20150519-11:20:11.073|56=LVMDG|10=022|
20150519-11:20:12.896: 8=FIX.4.4|9=58|35=0|34=6|49=LVMDG|52=20150519-11:20:12.896|56=BLODPENNA5|10=037|
20150519-11:21:11.067: 8=FIX.4.4|9=58|35=0|34=6|49=BLODPENNA5|52=20150519-11:21:11.076|56=LVMDG|10=027|
20150519-11:21:13.896: 8=FIX.4.4|9=58|35=0|34=7|49=LVMDG|52=20150519-11:21:13.896|56=BLODPENNA5|10=040|
20150519-11:22:11.070: 8=FIX.4.4|9=58|35=0|34=7|49=BLODPENNA5|52=20150519-11:22:11.080|56=LVMDG|10=024|
20150519-11:22:14.895: 8=FIX.4.4|9=58|35=0|34=8|49=LVMDG|52=20150519-11:22:14.895|56=BLODPENNA5|10=042|
20150519-11:23:11.072: 8=FIX.4.4|9=58|35=0|34=8|49=BLODPENNA5|52=20150519-11:23:11.083|56=LVMDG|10=029|
20150519-11:23:14.895: 8=FIX.4.4|9=58|35=0|34=9|49=LVMDG|52=20150519-11:23:14.895|56=BLODPENNA5|10=044|
20150519-11:24:11.074: 8=FIX.4.4|9=58|35=0|34=9|49=BLODPENNA5|52=20150519-11:24:11.086|56=LVMDG|10=034|
20150519-11:24:14.895: 8=FIX.4.4|9=59|35=0|34=10|49=LVMDG|52=20150519-11:24:14.895|56=BLODPENNA5|10=086|
20150519-11:25:11.077: 8=FIX.4.4|9=59|35=0|34=10|49=BLODPENNA5|52=20150519-11:25:11.090|56=LVMDG|10=071|
20150519-11:25:14.896: 8=FIX.4.4|9=59|35=0|34=11|49=LVMDG|52=20150519-11:25:14.896|56=BLODPENNA5|10=089|
20150519-11:26:11.079: 8=FIX.4.4|9=59|35=0|34=11|49=BLODPENNA5|52=20150519-11:26:11.093|56=LVMDG|10=076|
20150519-11:26:15.895: 8=FIX.4.4|9=59|35=0|34=12|49=LVMDG|52=20150519-11:26:15.895|56=BLODPENNA5|10=091|
20150519-11:27:11.081: 8=FIX.4.4|9=59|35=0|34=12|49=BLODPENNA5|52=20150519-11:27:11.097|56=LVMDG|10=082|
20150519-11:27:15.895: 8=FIX.4.4|9=59|35=0|34=13|49=LVMDG|52=20150519-11:27:15.895|56=BLODPENNA5|10=093|
20150519-11:28:11.083: 8=FIX.4.4|9=59|35=0|34=13|49=BLODPENNA5|52=20150519-11:28:11.100|56=LVMDG|10=069|
20150519-11:28:15.896: 8=FIX.4.4|9=59|35=0|34=14|49=LVMDG|52=20150519-11:28:15.896|56=BLODPENNA5|10=096|
20150519-11:29:11.086: 8=FIX.4.4|9=59|35=0|34=14|49=BLODPENNA5|52=20150519-11:29:11.104|56=LVMDG|10=075|
20150519-11:29:16.895: 8=FIX.4.4|9=59|35=0|34=15|49=LVMDG|52=20150519-11:29:16.895|56=BLODPENNA5|10=098|
20150519-11:30:11.088: 8=FIX.4.4|9=59|35=0|34=15|49=BLODPENNA5|52=20150519-11:30:11.107|56=LVMDG|10=071|
20150519-11:30:16.896: 8=FIX.4.4|9=59|35=0|34=16|49=LVMDG|52=20150519-11:30:16.896|56=BLODPENNA5|10=092|
20150519-11:31:11.090: 8=FIX.4.4|9=59|35=0|34=16|49=BLODPENNA5|52=20150519-11:31:11.110|56=LVMDG|10=067|
20150519-11:31:16.896: 8=FIX.4.4|9=59|35=0|34=17|49=LVMDG|52=20150519-11:31:16.896|56=BLODPENNA5|10=094|
20150519-11:32:11.093: 8=FIX.4.4|9=59|35=0|34=17|49=BLODPENNA5|52=20150519-11:32:11.114|56=LVMDG|10=073|
20150519-11:32:17.895: 8=FIX.4.4|9=59|35=0|34=18|49=LVMDG|52=20150519-11:32:17.895|56=BLODPENNA5|10=096|
20150519-11:33:11.095: 8=FIX.4.4|9=59|35=0|34=18|49=BLODPENNA5|52=20150519-11:33:11.117|56=LVMDG|10=078|
20150519-11:33:17.896: 8=FIX.4.4|9=59|35=0|34=19|49=LVMDG|52=20150519-11:33:17.896|56=BLODPENNA5|10=099|
20150519-11:34:11.098: 8=FIX.4.4|9=59|35=0|34=19|49=BLODPENNA5|52=20150519-11:34:11.121|56=LVMDG|10=075|
20150519-11:34:17.896: 8=FIX.4.4|9=59|35=0|34=20|49=LVMDG|52=20150519-11:34:17.896|56=BLODPENNA5|10=092|
20150519-11:35:11.100: 8=FIX.4.4|9=59|35=0|34=20|49=BLODPENNA5|52=20150519-11:35:11.124|56=LVMDG|10=071|
20150519-11:35:18.895: 8=FIX.4.4|9=59|35=0|34=21|49=LVMDG|52=20150519-11:35:18.895|56=BLODPENNA5|10=094|
20150519-11:36:11.103: 8=FIX.4.4|9=59|35=0|34=21|49=BLODPENNA5|52=20150519-11:36:11.128|56=LVMDG|10=077|
20150519-11:36:18.896: 8=FIX.4.4|9=59|35=0|34=22|49=LVMDG|52=20150519-11:36:18.896|56=BLODPENNA5|10=097|
20150519-11:37:11.104: 8=FIX.4.4|9=59|35=0|34=22|49=BLODPENNA5|52=20150519-11:37:11.131|56=LVMDG|10=073|
20150519-11:37:19.895: 8=FIX.4.4|9=59|35=0|34=23|49=LVMDG|52=20150519-11:37:19.895|56=BLODPENNA5|10=099|
20150519-11:38:11.106: 8=FIX.4.4|9=59|35=0|34=23|49=BLODPENNA5|52=20150519-11:38:11.134|56=LVMDG|10=078|
20150519-11:38:19.896: 8=FIX.4.4|9=59|35=0|34=24|49=LVMDG|52=20150519-11:38:19.896|56=BLODPENNA5|10=102|
20150519-11:39:11.109: 8=FIX.4.4|9=59|35=0|34=24|49=BLODPENNA5|52=20150519-11:39:11.138|56=LVMDG|10=084|
20150519-11:39:20.896: 8=FIX.4.4|9=59|35=0|34=25|49=LVMDG|52=20150519-11:39:20.896|56=BLODPENNA5|10=096|
20150519-11:40:11.111: 8=FIX.4.4|9=59|35=0|34=25|49=BLODPENNA5|52=20150519-11:40:11.141|56=LVMDG|10=071|
20150519-11:40:21.896: 8=FIX.4.4|9=59|35=0|34=26|49=LVMDG|52=20150519-11:40:21.896|56=BLODPENNA5|10=090|
20150519-11:41:11.114: 8=FIX.4.4|9=59|35=0|34=26|49=BLODPENNA5|52=20150519-11:41:11.145|56=LVMDG|10=077|
20150519-11:41:22.895: 8=FIX.4.4|9=59|35=0|34=27|49=LVMDG|52=20150519-11:41:22.895|56=BLODPENNA5|10=092|
20150519-11:42:11.116: 8=FIX.4.4|9=59|35=0|34=27|49=BLODPENNA5|52=20150519-11:42:11.148|56=LVMDG|10=082|
20150519-11:42:22.895: 8=FIX.4.4|9=59|35=0|34=28|49=LVMDG|52=20150519-11:42:22.895|56=BLODPENNA5|10=094|
20150519-11:43:11.119: 8=FIX.4.4|9=59|35=0|34=28|49=BLODPENNA5|52=20150519-11:43:11.152|56=LVMDG|10=079|
20150519-11:43:22.895: 8=FIX.4.4|9=59|35=0|34=29|49=LVMDG|52=20150519-11:43:22.895|56=BLODPENNA5|10=096|
20150519-11:44:11.121: 8=FIX.4.4|9=59|35=0|34=29|49=BLODPENNA5|52=20150519-11:44:11.155|56=LVMDG|10=084|
20150519-11:44:22.895: 8=FIX.4.4|9=59|35=0|34=30|49=LVMDG|52=20150519-11:44:22.895|56=BLODPENNA5|10=089|
20150519-11:45:11.123: 8=FIX.4.4|9=59|35=0|34=30|49=BLODPENNA5|52=20150519-11:45:11.158|56=LVMDG|10=080|
20150519-11:45:22.895: 8=FIX.4.4|9=59|35=0|34=31|49=LVMDG|52=20150519-11:45:22.895|56=BLODPENNA5|10=091|
20150519-11:46:11.127: 8=FIX.4.4|9=59|35=0|34=31|49=BLODPENNA5|52=20150519-11:46:11.162|56=LVMDG|10=077|
20150519-11:46:22.896: 8=FIX.4.4|9=59|35=0|34=32|49=LVMDG|52=20150519-11:46:22.896|56=BLODPENNA5|10=094|
20150519-11:47:11.128: 8=FIX.4.4|9=59|35=0|34=32|49=BLODPENNA5|52=20150519-11:47:11.165|56=LVMDG|10=082|
20150519-11:47:22.896: 8=FIX.4.4|9=59|35=0|34=33|49=LVMDG|52=20150519-11:47:22.896|56=BLODPENNA5|10=096|
20150519-11:48:11.131: 8=FIX.4.4|9=59|35=0|34=33|49=BLODPENNA5|52=20150519-11:48:11.169|56=LVMDG|10=088|
20150519-11:48:22.896: 8=FIX.4.4|9=59|35=0|34=34|49=LVMDG|52=20150519-11:48:22.896|56=BLODPENNA5|10=098|
20150519-11:49:11.132: 8=FIX.4.4|9=59|35=0|34=34|49=BLODPENNA5|52=20150519-11:49:11.172|56=LVMDG|10=084|
20150519-11:49:23.896: 8=FIX.4.4|9=59|35=0|34=35|49=LVMDG|52=20150519-11:49:23.896|56=BLODPENNA5|10=101|
20150519-11:50:11.135: 8=FIX.4.4|9=59|35=0|34=35|49=BLODPENNA5|52=20150519-11:50:11.176|56=LVMDG|10=081|
20150519-11:50:23.896: 8=FIX.4.4|9=59|35=0|34=36|49=LVMDG|52=20150519-11:50:23.896|56=BLODPENNA5|10=094|
20150519-11:51:11.137: 8=FIX.4.4|9=59|35=0|34=36|49=BLODPENNA5|52=20150519-11:51:11.179|56=LVMDG|10=086|
20150519-11:51:24.896: 8=FIX.4.4|9=59|35=0|34=37|49=LVMDG|52=20150519-11:51:24.895|56=BLODPENNA5|10=096|
20150519-11:52:11.139: 8=FIX.4.4|9=59|35=0|34=37|49=BLODPENNA5|52=20150519-11:52:11.182|56=LVMDG|10=082|
20150519-11:52:24.895: 8=FIX.4.4|9=59|35=0|34=38|49=LVMDG|52=20150519-11:52:24.895|56=BLODPENNA5|10=098|
20150519-11:53:11.142: 8=FIX.4.4|9=59|35=0|34=38|49=BLODPENNA5|52=20150519-11:53:11.186|56=LVMDG|10=088|
20150519-11:53:24.895: 8=FIX.4.4|9=59|35=0|34=39|49=LVMDG|52=20150519-11:53:24.895|56=BLODPENNA5|10=100|
20150519-11:54:11.144: 8=FIX.4.4|9=59|35=0|34=39|49=BLODPENNA5|52=20150519-11:54:11.189|56=LVMDG|10=093|
20150519-11:54:24.896: 8=FIX.4.4|9=59|35=0|34=40|49=LVMDG|52=20150519-11:54:24.896|56=BLODPENNA5|10=094|
20150519-11:55:11.147: 8=FIX.4.4|9=59|35=0|34=40|49=BLODPENNA5|52=20150519-11:55:11.193|56=LVMDG|10=081|
20150519-11:55:24.896: 8=FIX.4.4|9=59|35=0|34=41|49=LVMDG|52=20150519-11:55:24.896|56=BLODPENNA5|10=096|
20150519-11:56:11.149: 8=FIX.4.4|9=59|35=0|34=41|49=BLODPENNA5|52=20150519-11:56:11.196|56=LVMDG|10=086|
20150519-11:56:24.896: 8=FIX.4.4|9=59|35=0|34=42|49=LVMDG|52=20150519-11:56:24.896|56=BLODPENNA5|10=098|
20150519-11:57:11.151: 8=FIX.4.4|9=59|35=0|34=42|49=BLODPENNA5|52=20150519-11:57:11.199|56=LVMDG|10=091|
20150519-11:57:24.896: 8=FIX.4.4|9=59|35=0|34=43|49=LVMDG|52=20150519-11:57:24.896|56=BLODPENNA5|10=100|
20150519-11:58:11.154: 8=FIX.4.4|9=59|35=0|34=43|49=BLODPENNA5|52=20150519-11:58:11.203|56=LVMDG|10=079|
20150519-11:58:24.896: 8=FIX.4.4|9=59|35=0|34=44|49=LVMDG|52=20150519-11:58:24.896|56=BLODPENNA5|10=102|
20150519-11:59:11.155: 8=FIX.4.4|9=59|35=0|34=44|49=BLODPENNA5|52=20150519-11:59:11.206|56=LVMDG|10=084|
20150519-11:59:25.896: 8=FIX.4.4|9=59|35=0|34=45|49=LVMDG|52=20150519-11:59:25.895|56=BLODPENNA5|10=104|
20150519-12:00:11.158: 8=FIX.4.4|9=59|35=0|34=45|49=BLODPENNA5|52=20150519-12:00:11.210|56=LVMDG|10=067|
20150519-12:00:25.896: 8=FIX.4.4|9=59|35=0|34=46|49=LVMDG|52=20150519-12:00:25.896|56=BLODPENNA5|10=093|
20150519-12:01:11.160: 8=FIX.4.4|9=59|35=0|34=46|49=BLODPENNA5|52=20150519-12:01:11.213|56=LVMDG|10=072|
20150519-12:01:25.896: 8=FIX.4.4|9=59|35=0|34=47|49=LVMDG|52=20150519-12:01:25.896|56=BLODPENNA5|10=095|
20150519-12:02:11.163: 8=FIX.4.4|9=59|35=0|34=47|49=BLODPENNA5|52=20150519-12:02:11.217|56=LVMDG|10=078|
20150519-12:02:26.895: 8=FIX.4.4|9=59|35=0|34=48|49=LVMDG|52=20150519-12:02:26.895|56=BLODPENNA5|10=097|
20150519-12:03:11.165: 8=FIX.4.4|9=59|35=0|34=48|49=BLODPENNA5|52=20150519-12:03:11.220|56=LVMDG|10=074|
20150519-12:03:26.895: 8=FIX.4.4|9=59|35=0|34=49|49=LVMDG|52=20150519-12:03:26.895|56=BLODPENNA5|10=099|
20150519-12:04:11.168: 8=FIX.4.4|9=59|35=0|34=49|49=BLODPENNA5|52=20150519-12:04:11.224|56=LVMDG|10=080|
20150519-12:04:26.895: 8=FIX.4.4|9=59|35=0|34=50|49=LVMDG|52=20150519-12:04:26.895|56=BLODPENNA5|10=092|
20150519-12:05:11.170: 8=FIX.4.4|9=59|35=0|34=50|49=BLODPENNA5|52=20150519-12:05:11.227|56=LVMDG|10=076|
20150519-12:05:26.895: 8=FIX.4.4|9=59|35=0|34=51|49=LVMDG|52=20150519-12:05:26.895|56=BLODPENNA5|10=094|
20150519-12:06:11.173: 8=FIX.4.4|9=59|35=0|34=51|49=BLODPENNA5|52=20150519-12:06:11.230|56=LVMDG|10=072|
20150519-12:06:26.896: 8=FIX.4.4|9=59|35=0|34=52|49=LVMDG|52=20150519-12:06:26.896|56=BLODPENNA5|10=097|
20150519-12:07:11.175: 8=FIX.4.4|9=59|35=0|34=52|49=BLODPENNA5|52=20150519-12:07:11.234|56=LVMDG|10=078|
20150519-12:07:26.896: 8=FIX.4.4|9=59|35=0|34=53|49=LVMDG|52=20150519-12:07:26.896|56=BLODPENNA5|10=099|
20150519-12:08:11.177: 8=FIX.4.4|9=59|35=0|34=53|49=BLODPENNA5|52=20150519-12:08:11.237|56=LVMDG|10=083|
20150519-12:08:26.896: 8=FIX.4.4|9=59|35=0|34=54|49=LVMDG|52=20150519-12:08:26.896|56=BLODPENNA5|10=101|
20150519-12:09:11.180: 8=FIX.4.4|9=59|35=0|34=54|49=BLODPENNA5|52=20150519-12:09:11.241|56=LVMDG|10=080|
20150519-12:09:26.896: 8=FIX.4.4|9=59|35=0|34=55|49=LVMDG|52=20150519-12:09:26.896|56=BLODPENNA5|10=103|
20150519-12:10:11.181: 8=FIX.4.4|9=59|35=0|34=55|49=BLODPENNA5|52=20150519-12:10:11.244|56=LVMDG|10=076|
20150519-12:10:27.896: 8=FIX.4.4|9=59|35=0|34=56|49=LVMDG|52=20150519-12:10:27.896|56=BLODPENNA5|10=097|
20150519-12:11:11.184: 8=FIX.4.4|9=59|35=0|34=56|49=BLODPENNA5|52=20150519-12:11:11.248|56=LVMDG|10=082|
20150519-12:11:28.895: 8=FIX.4.4|9=59|35=0|34=57|49=LVMDG|52=20150519-12:11:28.895|56=BLODPENNA5|10=099|
20150519-12:12:11.186: 8=FIX.4.4|9=59|35=0|34=57|49=BLODPENNA5|52=20150519-12:12:11.251|56=LVMDG|10=078|
20150519-12:12:28.895: 8=FIX.4.4|9=59|35=0|34=58|49=LVMDG|52=20150519-12:12:28.895|56=BLODPENNA5|10=101|
20150519-12:13:11.188: 8=FIX.4.4|9=59|35=0|34=58|49=BLODPENNA5|52=20150519-12:13:11.254|56=LVMDG|10=083|
20150519-12:13:28.896: 8=FIX.4.4|9=59|35=0|34=59|49=LVMDG|52=20150519-12:13:28.895|56=BLODPENNA5|10=103|
20150519-12:14:11.191: 8=FIX.4.4|9=59|35=0|34=59|49=BLODPENNA5|52=20150519-12:14:11.258|56=LVMDG|10=089|
20150519-12:14:28.896: 8=FIX.4.4|9=59|35=0|34=60|49=LVMDG|52=20150519-12:14:28.896|56=BLODPENNA5|10=097|
20150519-12:15:11.193: 8=FIX.4.4|9=59|35=0|34=60|49=BLODPENNA5|52=20150519-12:15:11.261|56=LVMDG|10=076|
20150519-12:15:29.895: 8=FIX.4.4|9=59|35=0|34=61|49=LVMDG|52=20150519-12:15:29.895|56=BLODPENNA5|10=099|
20150519-12:16:11.196: 8=FIX.4.4|9=59|35=0|34=61|49=BLODPENNA5|52=20150519-12:16:11.265|56=LVMDG|10=082|
20150519-12:16:29.896: 8=FIX.4.4|9=59|35=0|34=62|49=LVMDG|52=20150519-12:16:29.896|56=BLODPENNA5|10=102|
20150519-12:17:11.198: 8=FIX.4.4|9=59|35=0|34=62|49=BLODPENNA5|52=20150519-12:17:11.268|56=LVMDG|10=087|
20150519-12:17:30.895: 8=FIX.4.4|9=59|35=0|34=63|49=LVMDG|52=20150519-12:17:30.895|56=BLODPENNA5|10=095|
20150519-12:18:11.201: 8=FIX.4.4|9=59|35=0|34=63|49=BLODPENNA5|52=20150519-12:18:11.272|56=LVMDG|10=084|
20150519-12:18:30.896: 8=FIX.4.4|9=59|35=0|34=64|49=LVMDG|52=20150519-12:18:30.896|56=BLODPENNA5|10=098|
20150519-12:19:11.202: 8=FIX.4.4|9=59|35=0|34=64|49=BLODPENNA5|52=20150519-12:19:11.275|56=LVMDG|10=089|
20150519-12:19:31.895: 8=FIX.4.4|9=59|35=0|34=65|49=LVMDG|52=20150519-12:19:31.895|56=BLODPENNA5|10=100|
20150519-12:20:11.205: 8=FIX.4.4|9=59|35=0|34=65|49=BLODPENNA5|52=20150519-12:20:11.278|56=LVMDG|10=085|
20150519-12:20:31.896: 8=FIX.4.4|9=59|35=0|34=66|49=LVMDG|52=20150519-12:20:31.896|56=BLODPENNA5|10=094|
20150519-12:21:11.207: 8=FIX.4.4|9=59|35=0|34=66|49=BLODPENNA5|52=20150519-12:21:11.282|56=LVMDG|10=082|
20150519-12:21:31.896: 8=FIX.4.4|9=59|35=0|34=67|49=LVMDG|52=20150519-12:21:31.896|56=BLODPENNA5|10=096|
20150519-12:22:11.209: 8=FIX.4.4|9=59|35=0|34=67|49=BLODPENNA5|52=20150519-12:22:11.285|56=LVMDG|10=087|
20150519-12:22:31.896: 8=FIX.4.4|9=59|35=0|34=68|49=LVMDG|52=20150519-12:22:31.896|56=BLODPENNA5|10=098|
20150519-12:23:11.212: 8=FIX.4.4|9=59|35=0|34=68|49=BLODPENNA5|52=20150519-12:23:11.289|56=LVMDG|10=093|
20150519-12:23:32.895: 8=FIX.4.4|9=59|35=0|34=69|49=LVMDG|52=20150519-12:23:32.895|56=BLODPENNA5|10=100|
20150519-12:24:11.214: 8=FIX.4.4|9=59|35=0|34=69|49=BLODPENNA5|52=20150519-12:24:11.292|56=LVMDG|10=089|
20150519-12:24:32.895: 8=FIX.4.4|9=59|35=0|34=70|49=LVMDG|52=20150519-12:24:32.895|56=BLODPENNA5|10=093|
20150519-12:25:11.217: 8=FIX.4.4|9=59|35=0|34=70|49=BLODPENNA5|52=20150519-12:25:11.296|56=LVMDG|10=086|
20150519-12:25:32.896: 8=FIX.4.4|9=59|35=0|34=71|49=LVMDG|52=20150519-12:25:32.895|56=BLODPENNA5|10=095|
20150519-12:26:11.219: 8=FIX.4.4|9=59|35=0|34=71|49=BLODPENNA5|52=20150519-12:26:11.299|56=LVMDG|10=091|
20150519-12:26:32.895: 8=FIX.4.4|9=59|35=0|34=72|49=LVMDG|52=20150519-12:26:32.895|56=BLODPENNA5|10=097|
20150519-12:27:11.222: 8=FIX.4.4|9=59|35=0|34=72|49=BLODPENNA5|52=20150519-12:27:11.303|56=LVMDG|10=079|
20150519-12:27:32.895: 8=FIX.4.4|9=59|35=0|34=73|49=LVMDG|52=20150519-12:27:32.895|56=BLODPENNA5|10=099|
20150519-12:28:11.224: 8=FIX.4.4|9=59|35=0|34=73|49=BLODPENNA5|52=20150519-12:28:11.306|56=LVMDG|10=084|
20150519-12:28:32.895: 8=FIX.4.4|9=59|35=0|34=74|49=LVMDG|52=20150519-12:28:32.895|56=BLODPENNA5|10=101|
20150519-12:29:11.226: 8=FIX.4.4|9=59|35=0|34=74|49=BLODPENNA5|52=20150519-12:29:11.309|56=LVMDG|10=089|
20150519-12:29:32.895: 8=FIX.4.4|9=59|35=0|34=75|49=LVMDG|52=20150519-12:29:32.895|56=BLODPENNA5|10=103|
20150519-12:30:11.229: 8=FIX.4.4|9=59|35=0|34=75|49=BLODPENNA5|52=20150519-12:30:11.313|56=LVMDG|10=077|
20150519-12:30:32.896: 8=FIX.4.4|9=59|35=0|34=76|49=LVMDG|52=20150519-12:30:32.896|56=BLODPENNA5|10=097|
20150519-12:31:11.231: 8=FIX.4.4|9=59|35=0|34=76|49=BLODPENNA5|52=20150519-12:31:11.316|56=LVMDG|10=082|
20150519-12:31:32.896: 8=FIX.4.4|9=59|35=0|34=77|49=LVMDG|52=20150519-12:31:32.896|56=BLODPENNA5|10=099|
20150519-12:32:11.234: 8=FIX.4.4|9=59|35=0|34=77|49=BLODPENNA5|52=20150519-12:32:11.320|56=LVMDG|10=079|
20150519-12:32:32.896: 8=FIX.4.4|9=59|35=0|34=78|49=LVMDG|52=20150519-12:32:32.896|56=BLODPENNA5|10=101|
20150519-12:33:11.236: 8=FIX.4.4|9=59|35=0|34=78|49=BLODPENNA5|52=20150519-12:33:11.323|56=LVMDG|10=084|
20150519-12:33:32.896: 8=FIX.4.4|9=59|35=0|34=79|49=LVMDG|52=20150519-12:33:32.896|56=BLODPENNA5|10=103|
20150519-12:34:11.238: 8=FIX.4.4|9=59|35=0|34=79|49=BLODPENNA5|52=20150519-12:34:11.327|56=LVMDG|10=090|
20150519-12:34:32.896: 8=FIX.4.4|9=59|35=0|34=80|49=LVMDG|52=20150519-12:34:32.896|56=BLODPENNA5|10=096|
20150519-12:35:11.240: 8=FIX.4.4|9=59|35=0|34=80|49=BLODPENNA5|52=20150519-12:35:11.330|56=LVMDG|10=077|
20150519-12:35:32.896: 8=FIX.4.4|9=59|35=0|34=81|49=LVMDG|52=20150519-12:35:32.896|56=BLODPENNA5|10=098|
20150519-12:36:11.242: 8=FIX.4.4|9=59|35=0|34=81|49=BLODPENNA5|52=20150519-12:36:11.333|56=LVMDG|10=082|
20150519-12:36:33.896: 8=FIX.4.4|9=59|35=0|34=82|49=LVMDG|52=20150519-12:36:33.895|56=BLODPENNA5|10=100|
20150519-12:37:11.245: 8=FIX.4.4|9=59|35=0|34=82|49=BLODPENNA5|52=20150519-12:37:11.337|56=LVMDG|10=088|
20150519-12:37:33.896: 8=FIX.4.4|9=59|35=0|34=83|49=LVMDG|52=20150519-12:37:33.896|56=BLODPENNA5|10=103|
20150519-12:38:11.247: 8=FIX.4.4|9=59|35=0|34=83|49=BLODPENNA5|52=20150519-12:38:11.340|56=LVMDG|10=084|
20150519-12:38:34.895: 8=FIX.4.4|9=59|35=0|34=84|49=LVMDG|52=20150519-12:38:34.895|56=BLODPENNA5|10=105|
20150519-12:39:11.251: 8=FIX.4.4|9=59|35=0|34=84|49=BLODPENNA5|52=20150519-12:39:11.344|56=LVMDG|10=090|
20150519-12:39:34.895: 8=FIX.4.4|9=59|35=0|34=85|49=LVMDG|52=20150519-12:39:34.895|56=BLODPENNA5|10=107|
20150519-12:40:11.252: 8=FIX.4.4|9=59|35=0|34=85|49=BLODPENNA5|52=20150519-12:40:11.347|56=LVMDG|10=086|
20150519-12:40:34.895: 8=FIX.4.4|9=59|35=0|34=86|49=LVMDG|52=20150519-12:40:34.895|56=BLODPENNA5|10=100|
20150519-12:41:11.255: 8=FIX.4.4|9=59|35=0|34=86|49=BLODPENNA5|52=20150519-12:41:11.351|56=LVMDG|10=083|
20150519-12:41:34.895: 8=FIX.4.4|9=59|35=0|34=87|49=LVMDG|52=20150519-12:41:34.895|56=BLODPENNA5|10=102|
20150519-12:42:11.257: 8=FIX.4.4|9=59|35=0|34=87|49=BLODPENNA5|52=20150519-12:42:11.354|56=LVMDG|10=088|
20150519-12:42:34.895: 8=FIX.4.4|9=59|35=0|34=88|49=LVMDG|52=20150519-12:42:34.895|56=BLODPENNA5|10=104|
20150519-12:43:11.259: 8=FIX.4.4|9=59|35=0|34=88|49=BLODPENNA5|52=20150519-12:43:11.357|56=LVMDG|10=093|
20150519-12:43:34.896: 8=FIX.4.4|9=59|35=0|34=89|49=LVMDG|52=20150519-12:43:34.896|56=BLODPENNA5|10=107|
20150519-12:44:11.262: 8=FIX.4.4|9=59|35=0|34=89|49=BLODPENNA5|52=20150519-12:44:11.361|56=LVMDG|10=090|
20150519-12:44:35.895: 8=FIX.4.4|9=59|35=0|34=90|49=LVMDG|52=20150519-12:44:35.895|56=BLODPENNA5|10=100|
20150519-12:45:11.264: 8=FIX.4.4|9=59|35=0|34=90|49=BLODPENNA5|52=20150519-12:45:11.364|56=LVMDG|10=086|
20150519-12:45:35.896: 8=FIX.4.4|9=59|35=0|34=91|49=LVMDG|52=20150519-12:45:35.896|56=BLODPENNA5|10=103|
20150519-12:46:11.266: 8=FIX.4.4|9=59|35=0|34=91|49=BLODPENNA5|52=20150519-12:46:11.368|56=LVMDG|10=092|
20150519-12:46:36.896: 8=FIX.4.4|9=59|35=0|34=92|49=LVMDG|52=20150519-12:46:36.896|56=BLODPENNA5|10=106|
20150519-12:47:11.268: 8=FIX.4.4|9=59|35=0|34=92|49=BLODPENNA5|52=20150519-12:47:11.371|56=LVMDG|10=088|
20150519-12:47:37.897: 8=FIX.4.4|9=59|35=0|34=93|49=LVMDG|52=20150519-12:47:37.897|56=BLODPENNA5|10=110|
20150519-12:48:11.272: 8=FIX.4.4|9=59|35=0|34=93|49=BLODPENNA5|52=20150519-12:48:11.375|56=LVMDG|10=094|
20150519-12:48:38.896: 8=FIX.4.4|9=59|35=0|34=94|49=LVMDG|52=20150519-12:48:38.896|56=BLODPENNA5|10=112|
20150519-12:49:11.273: 8=FIX.4.4|9=59|35=0|34=94|49=BLODPENNA5|52=20150519-12:49:11.378|56=LVMDG|10=099|
20150519-12:49:38.896: 8=FIX.4.4|9=59|35=0|34=95|49=LVMDG|52=20150519-12:49:38.896|56=BLODPENNA5|10=114|
20150519-12:50:11.297: 8=FIX.4.4|9=59|35=0|34=95|49=BLODPENNA5|52=20150519-12:50:11.381|56=LVMDG|10=086|
20150519-12:50:39.895: 8=FIX.4.4|9=59|35=0|34=96|49=LVMDG|52=20150519-12:50:39.895|56=BLODPENNA5|10=107|
20150519-12:51:11.300: 8=FIX.4.4|9=59|35=0|34=96|49=BLODPENNA5|52=20150519-12:51:11.385|56=LVMDG|10=092|
20150519-12:51:39.895: 8=FIX.4.4|9=59|35=0|34=97|49=LVMDG|52=20150519-12:51:39.895|56=BLODPENNA5|10=109|
20150519-12:52:11.280: 8=FIX.4.4|9=59|35=0|34=97|49=BLODPENNA5|52=20150519-12:52:11.388|56=LVMDG|10=097|
20150519-12:52:39.896: 8=FIX.4.4|9=59|35=0|34=98|49=LVMDG|52=20150519-12:52:39.896|56=BLODPENNA5|10=112|
20150519-12:53:11.283: 8=FIX.4.4|9=59|35=0|34=98|49=BLODPENNA5|52=20150519-12:53:11.392|56=LVMDG|10=094|
20150519-12:53:39.896: 8=FIX.4.4|9=59|35=0|34=99|49=LVMDG|52=20150519-12:53:39.896|56=BLODPENNA5|10=114|
20150519-12:54:11.285: 8=FIX.4.4|9=59|35=0|34=99|49=BLODPENNA5|52=20150519-12:54:11.395|56=LVMDG|10=099|
20150519-12:54:39.896: 8=FIX.4.4|9=60|35=0|34=100|49=LVMDG|52=20150519-12:54:39.896|56=BLODPENNA5|10=138|
20150519-12:55:11.288: 8=FIX.4.4|9=60|35=0|34=100|49=BLODPENNA5|52=20150519-12:55:11.399|56=LVMDG|10=127|
20150519-12:55:40.895: 8=FIX.4.4|9=60|35=0|34=101|49=LVMDG|52=20150519-12:55:40.895|56=BLODPENNA5|10=131|
20150519-12:56:11.291: 8=FIX.4.4|9=60|35=0|34=101|49=BLODPENNA5|52=20150519-12:56:11.402|56=LVMDG|10=114|
20150519-12:56:40.896: 8=FIX.4.4|9=60|35=0|34=102|49=LVMDG|52=20150519-12:56:40.896|56=BLODPENNA5|10=134|
20150519-12:57:11.292: 8=FIX.4.4|9=60|35=0|34=102|49=BLODPENNA5|52=20150519-12:57:11.405|56=LVMDG|10=119|
20150519-12:57:40.896: 8=FIX.4.4|9=60|35=0|34=103|49=LVMDG|52=20150519-12:57:40.896|56=BLODPENNA5|10=136|
20150519-12:58:11.295: 8=FIX.4.4|9=60|35=0|34=103|49=BLODPENNA5|52=20150519-12:58:11.409|56=LVMDG|10=125|
20150519-12:58:40.896: 8=FIX.4.4|9=60|35=0|34=104|49=LVMDG|52=20150519-12:58:40.896|56=BLODPENNA5|10=138|
20150519-12:59:11.297: 8=FIX.4.4|9=60|35=0|34=104|49=BLODPENNA5|52=20150519-12:59:11.412|56=LVMDG|10=121|
20150519-12:59:41.896: 8=FIX.4.4|9=60|35=0|34=105|49=LVMDG|52=20150519-12:59:41.896|56=BLODPENNA5|10=141|
20150519-13:00:11.300: 8=FIX.4.4|9=60|35=0|34=105|49=BLODPENNA5|52=20150519-13:00:11.416|56=LVMDG|10=113|
20150519-13:00:42.896: 8=FIX.4.4|9=60|35=0|34=106|49=LVMDG|52=20150519-13:00:42.896|56=BLODPENNA5|10=130|
20150519-13:01:11.302: 8=FIX.4.4|9=60|35=0|34=106|49=BLODPENNA5|52=20150519-13:01:11.419|56=LVMDG|10=118|
20150519-13:01:43.896: 8=FIX.4.4|9=60|35=0|34=107|49=LVMDG|52=20150519-13:01:43.896|56=BLODPENNA5|10=133|
20150519-13:02:11.304: 8=FIX.4.4|9=60|35=0|34=107|49=BLODPENNA5|52=20150519-13:02:11.423|56=LVMDG|10=115|
20150519-13:02:44.895: 8=FIX.4.4|9=60|35=0|34=108|49=LVMDG|52=20150519-13:02:44.895|56=BLODPENNA5|10=135|
20150519-13:03:11.307: 8=FIX.4.4|9=60|35=0|34=108|49=BLODPENNA5|52=20150519-13:03:11.426|56=LVMDG|10=120|
20150519-13:03:44.895: 8=FIX.4.4|9=60|35=0|34=109|49=LVMDG|52=20150519-13:03:44.895|56=BLODPENNA5|10=137|
20150519-13:04:11.308: 8=FIX.4.4|9=60|35=0|34=109|49=BLODPENNA5|52=20150519-13:04:11.429|56=LVMDG|10=125|
20150519-13:04:44.895: 8=FIX.4.4|9=60|35=0|34=110|49=LVMDG|52=20150519-13:04:44.895|56=BLODPENNA5|10=130|
20150519-13:05:11.311: 8=FIX.4.4|9=60|35=0|34=110|49=BLODPENNA5|52=20150519-13:05:11.433|56=LVMDG|10=113|
20150519-13:05:44.896: 8=FIX.4.4|9=60|35=0|34=111|49=LVMDG|52=20150519-13:05:44.896|56=BLODPENNA5|10=133|
20150519-13:06:11.320: 8=FIX.4.4|9=60|35=0|34=111|49=BLODPENNA5|52=20150519-13:06:11.443|56=LVMDG|10=116|
20150519-13:06:45.896: 8=FIX.4.4|9=60|35=0|34=112|49=LVMDG|52=20150519-13:06:45.896|56=BLODPENNA5|10=136|
20150519-13:07:12.316: 8=FIX.4.4|9=60|35=0|34=112|49=BLODPENNA5|52=20150519-13:07:12.440|56=LVMDG|10=116|
20150519-13:07:46.895: 8=FIX.4.4|9=60|35=0|34=113|49=LVMDG|52=20150519-13:07:46.895|56=BLODPENNA5|10=138|
20150519-13:08:12.318: 8=FIX.4.4|9=60|35=0|34=113|49=BLODPENNA5|52=20150519-13:08:12.443|56=LVMDG|10=121|
20150519-13:08:46.895: 8=FIX.4.4|9=60|35=0|34=114|49=LVMDG|52=20150519-13:08:46.895|56=BLODPENNA5|10=140|
20150519-13:09:12.320: 8=FIX.4.4|9=60|35=0|34=114|49=BLODPENNA5|52=20150519-13:09:12.446|56=LVMDG|10=126|
20150519-13:09:46.895: 8=FIX.4.4|9=60|35=0|34=115|49=LVMDG|52=20150519-13:09:46.895|56=BLODPENNA5|10=142|
20150519-13:10:12.323: 8=FIX.4.4|9=60|35=0|34=115|49=BLODPENNA5|52=20150519-13:10:12.450|56=LVMDG|10=114|
20150519-13:10:46.895: 8=FIX.4.4|9=60|35=0|34=116|49=LVMDG|52=20150519-13:10:46.895|56=BLODPENNA5|10=135|
20150519-13:11:12.327: 8=FIX.4.4|9=60|35=0|34=116|49=BLODPENNA5|52=20150519-13:11:12.453|56=LVMDG|10=119|
20150519-13:11:46.896: 8=FIX.4.4|9=60|35=0|34=117|49=LVMDG|52=20150519-13:11:46.896|56=BLODPENNA5|10=138|
20150519-13:12:12.328: 8=FIX.4.4|9=60|35=0|34=117|49=BLODPENNA5|52=20150519-13:12:12.457|56=LVMDG|10=125|
20150519-13:12:47.895: 8=FIX.4.4|9=60|35=0|34=118|49=LVMDG|52=20150519-13:12:47.895|56=BLODPENNA5|10=140|
20150519-13:13:52.897: 8=FIX.4.4|9=76|35=A|34=1|49=LVMDG|52=20150519-13:13:52.897|56=BLODPENNA5|98=0|108=60|141=Y|10=131|
20150519-13:13:54.070: 8=FIX.4.4|9=76|35=A|34=1|49=BLODPENNA5|52=20150519-13:13:54.194|56=LVMDG|98=0|108=60|141=Y|10=123|
20150519-13:13:54.071: 8=FIX.4.4|9=149|35=V|34=2|49=LVMDG|52=20150519-13:13:54.071|56=BLODPENNA5|262=3a6566a3c2034e8f|263=1|264=0|146=1|55=COFX INDEX|207=BLPDPENNA|267=3|269=0|269=1|269=5|10=181|
20150519-13:13:59.400: 8=FIX.4.4|9=270|35=W|34=2|49=BLODPENNA5|52=20150519-13:13:59.530|56=LVMDG|55=COFX INDEX|262=3a6566a3c2034e8f|268=10|269=B|271=900476|269=4|270=2422|269=7|270=2428.87|269=9|270=0|269=8|270=2408.5|269=5|270=2417|269=A|811=27.99|269=G|58= +|269=0|270=0|271=0|290=1|269=1|270=0|271=0|290=1|10=207|
20150519-13:14:54.895: 8=FIX.4.4|9=58|35=0|34=3|49=LVMDG|52=20150519-13:14:54.895|56=BLODPENNA5|10=044|
20150519-13:15:00.082: 8=FIX.4.4|9=58|35=0|34=3|49=BLODPENNA5|52=20150519-13:15:00.214|56=LVMDG|10=021|
20150519-13:15:54.896: 8=FIX.4.4|9=58|35=0|34=4|49=LVMDG|52=20150519-13:15:54.895|56=BLODPENNA5|10=046|
20150519-13:16:00.084: 8=FIX.4.4|9=58|35=0|34=4|49=BLODPENNA5|52=20150519-13:16:00.217|56=LVMDG|10=026|
20150519-13:16:54.896: 8=FIX.4.4|9=58|35=0|34=5|49=LVMDG|52=20150519-13:16:54.895|56=BLODPENNA5|10=048|
20150519-13:17:00.086: 8=FIX.4.4|9=58|35=0|34=5|49=BLODPENNA5|52=20150519-13:17:00.220|56=LVMDG|10=022|
20150519-13:17:54.896: 8=FIX.4.4|9=58|35=0|34=6|49=LVMDG|52=20150519-13:17:54.896|56=BLODPENNA5|10=051|
20150519-13:18:00.088: 8=FIX.4.4|9=58|35=0|34=6|49=BLODPENNA5|52=20150519-13:18:00.224|56=LVMDG|10=028|
20150519-13:18:55.896: 8=FIX.4.4|9=58|35=0|34=7|49=LVMDG|52=20150519-13:18:55.896|56=BLODPENNA5|10=054|
20150519-13:19:00.093: 8=FIX.4.4|9=58|35=0|34=7|49=BLODPENNA5|52=20150519-13:19:00.227|56=LVMDG|10=033|
20150519-13:19:56.895: 8=FIX.4.4|9=58|35=0|34=8|49=LVMDG|52=20150519-13:19:56.895|56=BLODPENNA5|10=056|
20150519-13:20:00.093: 8=FIX.4.4|9=58|35=0|34=8|49=BLODPENNA5|52=20150519-13:20:00.231|56=LVMDG|10=021|
20150519-13:20:56.896: 8=FIX.4.4|9=58|35=0|34=9|49=LVMDG|52=20150519-13:20:56.896|56=BLODPENNA5|10=050|
20150519-13:21:00.100: 8=FIX.4.4|9=58|35=0|34=9|49=BLODPENNA5|52=20150519-13:21:00.238|56=LVMDG|10=030|
20150519-13:21:57.895: 8=FIX.4.4|9=59|35=0|34=10|49=LVMDG|52=20150519-13:21:57.895|56=BLODPENNA5|10=092|
20150519-13:22:00.098: 8=FIX.4.4|9=59|35=0|34=10|49=BLODPENNA5|52=20150519-13:22:00.238|56=LVMDG|10=072|
20150519-13:22:57.896: 8=FIX.4.4|9=59|35=0|34=11|49=LVMDG|52=20150519-13:22:57.896|56=BLODPENNA5|10=095|
20150519-13:23:00.100: 8=FIX.4.4|9=59|35=0|34=11|49=BLODPENNA5|52=20150519-13:23:00.241|56=LVMDG|10=068|
20150519-13:23:58.896: 8=FIX.4.4|9=59|35=0|34=12|49=LVMDG|52=20150519-13:23:58.896|56=BLODPENNA5|10=098|
20150519-13:24:00.103: 8=FIX.4.4|9=59|35=0|34=12|49=BLODPENNA5|52=20150519-13:24:00.245|56=LVMDG|10=074|
20150519-13:24:58.896: 8=FIX.4.4|9=59|35=0|34=13|49=LVMDG|52=20150519-13:24:58.896|56=BLODPENNA5|10=100|
20150519-13:25:00.107: 8=FIX.4.4|9=59|35=0|34=13|49=BLODPENNA5|52=20150519-13:25:00.250|56=LVMDG|10=072|
20150519-13:25:59.896: 8=FIX.4.4|9=59|35=0|34=14|49=LVMDG|52=20150519-13:25:59.896|56=BLODPENNA5|10=103|
20150519-13:26:00.107: 8=FIX.4.4|9=59|35=0|34=14|49=BLODPENNA5|52=20150519-13:26:00.251|56=LVMDG|10=075|
20150519-13:27:00.110: 8=FIX.4.4|9=59|35=0|34=15|49=BLODPENNA5|52=20150519-13:27:00.255|56=LVMDG|10=081|
20150519-13:27:00.111: 8=FIX.4.4|9=59|35=0|34=15|49=LVMDG|52=20150519-13:27:00.111|56=BLODPENNA5|10=072|
20150519-13:28:00.112: 8=FIX.4.4|9=59|35=0|34=16|49=BLODPENNA5|52=20150519-13:28:00.258|56=LVMDG|10=086|
20150519-13:28:00.112: 8=FIX.4.4|9=59|35=0|34=16|49=LVMDG|52=20150519-13:28:00.112|56=BLODPENNA5|10=075|
20150519-13:29:00.115: 8=FIX.4.4|9=59|35=0|34=17|49=BLODPENNA5|52=20150519-13:29:00.262|56=LVMDG|10=083|
20150519-13:29:00.117: 8=FIX.4.4|9=59|35=0|34=17|49=LVMDG|52=20150519-13:29:00.117|56=BLODPENNA5|10=082|
20150519-13:30:00.117: 8=FIX.4.4|9=59|35=0|34=18|49=BLODPENNA5|52=20150519-13:30:00.265|56=LVMDG|10=079|
20150519-13:30:00.118: 8=FIX.4.4|9=59|35=0|34=18|49=LVMDG|52=20150519-13:30:00.118|56=BLODPENNA5|10=076|
20150519-13:31:00.126: 8=FIX.4.4|9=59|35=0|34=19|49=BLODPENNA5|52=20150519-13:31:00.275|56=LVMDG|10=082|
20150519-13:31:00.127: 8=FIX.4.4|9=59|35=0|34=19|49=LVMDG|52=20150519-13:31:00.127|56=BLODPENNA5|10=078|
20150519-13:32:00.896: 8=FIX.4.4|9=59|35=0|34=20|49=LVMDG|52=20150519-13:32:00.896|56=BLODPENNA5|10=084|
20150519-13:32:01.020: 8=FIX.4.4|9=59|35=0|34=20|49=BLODPENNA5|52=20150519-13:32:01.171|56=LVMDG|10=071|
20150519-13:33:00.895: 8=FIX.4.4|9=59|35=0|34=21|49=LVMDG|52=20150519-13:33:00.895|56=BLODPENNA5|10=085|
20150519-13:33:01.021: 8=FIX.4.4|9=59|35=0|34=21|49=BLODPENNA5|52=20150519-13:33:01.172|56=LVMDG|10=074|
20150519-13:33:08.326: 8=FIX.4.4|9=126|35=X|34=22|49=BLODPENNA5|52=20150519-13:33:08.477|56=LVMDG|262=3a6566a3c2034e8f|268=1|279=0|269=B|55=COFX INDEX|271=750|290=1|10=225|
20150519-13:33:08.328: 8=FIX.4.4|9=129|35=X|34=23|49=BLODPENNA5|52=20150519-13:33:08.479|56=LVMDG|262=3a6566a3c2034e8f|268=1|279=0|269=5|55=COFX INDEX|270=2455.6|290=1|10=113|
20150519-13:33:08.330: 8=FIX.4.4|9=159|35=X|34=24|49=BLODPENNA5|52=20150519-13:33:08.480|56=LVMDG|262=3a6566a3c2034e8f|268=2|279=0|269=A|55=COFX INDEX|290=1|811=38.6|279=0|269=G|55=COFX INDEX|58= +|10=178|
20150519-13:33:08.331: 8=FIX.4.4|9=126|35=X|34=25|49=BLODPENNA5|52=20150519-13:33:08.482|56=LVMDG|262=3a6566a3c2034e8f|268=1|279=0|269=B|55=COFX INDEX|271=750|290=1|10=224|
20150519-13:33:08.332: 8=FIX.4.4|9=129|35=X|34=26|49=BLODPENNA5|52=20150519-13:33:08.483|56=LVMDG|262=3a6566a3c2034e8f|268=1|279=0|269=5|55=COFX INDEX|270=2455.5|290=1|10=110|
20150519-13:33:08.334: 8=FIX.4.4|9=159|35=X|34=27|49=BLODPENNA5|52=20150519-13:33:08.485|56=LVMDG|262=3a6566a3c2034e8f|268=2|279=0|269=A|55=COFX INDEX|290=1|811=38.5|279=0|269=G|55=COFX INDEX|58= +|10=185|
20150519-13:33:08.392: 8=FIX.4.4|9=159|35=X|34=28|49=BLODPENNA5|52=20150519-13:33:08.544|56=LVMDG|262=3a6566a3c2034e8f|268=2|279=0|269=A|55=COFX INDEX|290=1|811=38.5|279=0|269=G|55=COFX INDEX|58= +|10=182|
20150519-13:33:08.392: 8=FIX.4.4|9=127|35=X|34=29|49=BLODPENNA5|52=20150519-13:33:08.544|56=LVMDG|262=3a6566a3c2034e8f|268=1|279=0|269=B|55=COFX INDEX|271=1250|290=1|10=016|
20150519-13:33:08.498: 8=FIX.4.4|9=127|35=X|34=30|49=BLODPENNA5|52=20150519-13:33:08.650|56=LVMDG|262=3a6566a3c2034e8f|268=1|279=0|269=B|55=COFX INDEX|271=1500|290=1|10=004|
20150519-13:33:08.499: 8=FIX.4.4|9=159|35=X|34=31|49=BLODPENNA5|52=20150519-13:33:08.650|56=LVMDG|262=3a6566a3c2034e8f|268=2|279=0|269=A|55=COFX INDEX|290=1|811=38.5|279=0|269=G|55=COFX INDEX|58= +|10=174|
20150519-13:33:08.711: 8=FIX.4.4|9=159|35=X|34=32|49=BLODPENNA5|52=20150519-13:33:08.863|56=LVMDG|262=3a6566a3c2034e8f|268=2|279=0|269=A|55=COFX INDEX|290=1|811=38.5|279=0|269=G|55=COFX INDEX|58= +|10=181|
20150519-13:33:08.712: 8=FIX.4.4|9=127|35=X|34=33|49=BLODPENNA5|52=20150519-13:33:08.864|56=LVMDG|262=3a6566a3c2034e8f|268=1|279=0|269=B|55=COFX INDEX|271=2000|290=1|10=010|
20150519-13:33:08.870: 8=FIX.4.4|9=127|35=X|34=34|49=BLODPENNA5|52=20150519-13:33:09.013|56=LVMDG|262=3a6566a3c2034e8f|268=1|279=0|269=5|55=COFX INDEX|270=2448|290=1|10=000|
20150519-13:33:08.871: 8=FIX.4.4|9=127|35=X|34=35|49=BLODPENNA5|52=20150519-13:33:09.013|56=LVMDG|262=3a6566a3c2034e8f|268=1|279=0|269=5|55=COFX INDEX|270=2448|290=1|10=001|
20150519-13:33:08.872: 8=FIX.4.4|9=127|35=X|34=36|49=BLODPENNA5|52=20150519-13:33:09.014|56=LVMDG|262=3a6566a3c2034e8f|268=1|279=0|269=B|55=COFX INDEX|271=2750|290=1|10=013|
20150519-13:33:08.875: 8=FIX.4.4|9=127|35=X|34=37|49=BLODPENNA5|52=20150519-13:33:09.014|56=LVMDG|262=3a6566a3c2034e8f|268=1|279=0|269=B|55=COFX INDEX|271=2750|290=1|10=014|
20150519-13:33:08.876: 8=FIX.4.4|9=157|35=X|34=38|49=BLODPENNA5|52=20150519-13:33:09.015|56=LVMDG|262=3a6566a3c2034e8f|268=2|279=0|269=A|55=COFX INDEX|290=1|811=31|279=0|269=G|55=COFX INDEX|58= +|10=069|
20150519-13:33:08.904: 8=FIX.4.4|9=157|35=X|34=39|49=BLODPENNA5|52=20150519-13:33:09.015|56=LVMDG|262=3a6566a3c2034e8f|268=2|279=0|269=A|55=COFX INDEX|290=1|811=31|279=0|269=G|55=COFX INDEX|58= +|10=070|
20150519-13:33:08.905: 8=FIX.4.4|9=127|35=X|34=40|49=BLODPENNA5|52=20150519-13:33:09.058|56=LVMDG|262=3a6566a3c2034e8f|268=1|279=0|269=B|55=COFX INDEX|271=3000|290=1|10=005|
20150519-13:33:08.906: 8=FIX.4.4|9=160|35=X|34=41|49=BLODPENNA5|52=20150519-13:33:09.058|56=LVMDG|262=3a6566a3c2034e8f|268=2|279=0|269=A|55=COFX INDEX|290=1|811=23.05|279=0|269=G|55=COFX INDEX|58= +|10=212|
20150519-13:33:08.907: 8=FIX.4.4|9=130|35=X|34=42|49=BLODPENNA5|52=20150519-13:33:09.059|56=LVMDG|262=3a6566a3c2034e8f|268=1|279=0|269=5|55=COFX INDEX|270=2440.05|290=1|10=142|
20150519-13:33:08.939: 8=FIX.4.4|9=127|35=X|34=43|49=BLODPENNA5|52=20150519-13:33:09.084|56=LVMDG|262=3a6566a3c2034e8f|268=1|279=0|269=B|55=COFX INDEX|271=3250|290=1|10=014|
20150519-13:33:08.940: 8=FIX.4.4|9=160|35=X|34=44|49=BLODPENNA5|52=20150519-13:33:09.084|56=LVMDG|262=3a6566a3c2034e8f|268=2|279=0|269=A|55=COFX INDEX|290=1|811=30.25|279=0|269=G|55=COFX INDEX|58= +|10=214|
20150519-13:33:08.940: 8=FIX.4.4|9=130|35=X|34=45|49=BLODPENNA5|52=20150519-13:33:09.085|56=LVMDG|262=3a6566a3c2034e8f|268=1|279=0|269=5|55=COFX INDEX|270=2447.25|290=1|10=153|
20150519-13:33:08.965: 8=FIX.4.4|9=157|35=X|34=46|49=BLODPENNA5|52=20150519-13:33:09.116|56=LVMDG|262=3a6566a3c2034e8f|268=2|279=0|269=A|55=COFX INDEX|290=1|811=28|279=0|269=G|55=COFX INDEX|58= +|10=076|
20150519-13:33:08.965: 8=FIX.4.4|9=127|35=X|34=47|49=BLODPENNA5|52=20150519-13:33:09.117|56=LVMDG|262=3a6566a3c2034e8f|268=1|279=0|269=B|55=COFX INDEX|271=3750|290=1|10=020|
20150519-13:33:08.967: 8=FIX.4.4|9=127|35=X|34=48|49=BLODPENNA5|52=20150519-13:33:09.117|56=LVMDG|262=3a6566a3c2034e8f|268=1|279=0|269=5|55=COFX INDEX|270=2445|290=1|10=007|
20150519-13:33:09.025: 8=FIX.4.4|9=127|35=X|34=49|49=BLODPENNA5|52=20150519-13:33:09.171|56=LVMDG|262=3a6566a3c2034e8f|268=1|279=0|269=B|55=COFX INDEX|271=4000|290=1|10=011|
20150519-13:33:09.029: 8=FIX.4.4|9=159|35=X|34=50|49=BLODPENNA5|52=20150519-13:33:09.173|56=LVMDG|262=3a6566a3c2034e8f|268=2|279=0|269=A|55=COFX INDEX|290=1|811=28.9|279=0|269=G|55=COFX INDEX|58= +|10=179|
20150519-13:33:09.029: 8=FIX.4.4|9=129|35=X|34=51|49=BLODPENNA5|52=20150519-13:33:09.175|56=LVMDG|262=3a6566a3c2034e8f|268=1|279=0|269=5|55=COFX INDEX|270=2445.9|290=1|10=110|
20150519-13:33:09.084: 8=FIX.4.4|9=157|35=X|34=52|49=BLODPENNA5|52=20150519-13:33:09.235|56=LVMDG|262=3a6566a3c2034e8f|268=2|279=0|269=A|55=COFX INDEX|290=1|811=29|279=0|269=G|55=COFX INDEX|58= +|10=076|
20150519-13:33:09.084: 8=FIX.4.4|9=127|35=X|34=53|49=BLODPENNA5|52=20150519-13:33:09.236|56=LVMDG|262=3a6566a3c2034e8f|268=1|279=0|269=B|55=COFX INDEX|271=4250|290=1|10=015|
20150519-13:33:09.088: 8=FIX.4.4|9=127|35=X|34=54|49=BLODPENNA5|52=20150519-13:33:09.236|56=LVMDG|262=3a6566a3c2034e8f|268=1|279=0|269=5|55=COFX INDEX|270=2446|290=1|10=007|
20150519-13:33:09.100: 8=FIX.4.4|9=157|35=X|34=55|49=BLODPENNA5|52=20150519-13:33:09.238|56=LVMDG|262=3a6566a3c2034e8f|268=2|279=0|269=A|55=COFX INDEX|290=1|811=28|279=0|269=G|55=COFX INDEX|58= +|10=081|
20150519-13:33:09.104: 8=FIX.4.4|9=127|35=X|34=56|49=BLODPENNA5|52=20150519-13:33:09.239|56=LVMDG|262=3a6566a3c2034e8f|268=1|279=0|269=B|55=COFX INDEX|271=4750|290=1|10=026|
20150519-13:33:09.104: 8=FIX.4.4|9=127|35=X|34=57|49=BLODPENNA5|52=20150519-13:33:09.240|56=LVMDG|262=3a6566a3c2034e8f|268=1|279=0|269=5|55=COFX INDEX|270=2445|290=1|10=004|
20150519-13:33:09.112: 8=FIX.4.4|9=157|35=X|34=58|49=BLODPENNA5|52=20150519-13:33:09.249|56=LVMDG|262=3a6566a3c2034e8f|268=2|279=0|269=A|55=COFX INDEX|290=1|811=28|279=0|269=G|55=COFX INDEX|58= +|10=086|
20150519-13:33:09.112: 8=FIX.4.4|9=127|35=X|34=59|49=BLODPENNA5|52=20150519-13:33:09.250|56=LVMDG|262=3a6566a3c2034e8f|268=1|279=0|269=B|55=COFX INDEX|271=5250|290=1|10=018|
20150519-13:33:09.154: 8=FIX.4.4|9=157|35=X|34=60|49=BLODPENNA5|52=20150519-13:33:09.306|56=LVMDG|262=3a6566a3c2034e8f|268=2|279=0|269=A|55=COFX INDEX|290=1|811=28|279=0|269=G|55=COFX INDEX|58= +|10=073|
20150519-13:33:09.155: 8=FIX.4.4|9=127|35=X|34=61|49=BLODPENNA5|52=20150519-13:33:09.306|56=LVMDG|262=3a6566a3c2034e8f|268=1|279=0|269=B|55=COFX INDEX|271=5500|290=1|10=011|
20150519-13:33:09.229: 8=FIX.4.4|9=157|35=X|34=62|49=BLODPENNA5|52=20150519-13:33:09.379|56=LVMDG|262=3a6566a3c2034e8f|268=2|279=0|269=A|55=COFX INDEX|290=1|811=28|279=0|269=G|55=COFX INDEX|58= +|10=085|
20150519-13:33:09.229: 8=FIX.4.4|9=127|35=X|34=63|49=BLODPENNA5|52=20150519-13:33:09.380|56=LVMDG|262=3a6566a3c2034e8f|268=1|279=0|269=B|55=COFX INDEX|271=5750|290=1|10=022|
20150519-13:33:09.471: 8=FIX.4.4|9=127|35=X|34=64|49=BLODPENNA5|52=20150519-13:33:09.622|56=LVMDG|262=3a6566a3c2034e8f|268=1|279=0|269=B|55=COFX INDEX|271=6250|290=1|10=018|
20150519-13:33:09.471: 8=FIX.4.4|9=127|35=X|34=65|49=BLODPENNA5|52=20150519-13:33:09.623|56=LVMDG|262=3a6566a3c2034e8f|268=1|279=0|269=B|55=COFX INDEX|271=6500|290=1|10=018|
20150519-13:33:09.472: 8=FIX.4.4|9=127|35=X|34=66|49=BLODPENNA5|52=20150519-13:33:09.623|56=LVMDG|262=3a6566a3c2034e8f|268=1|279=0|269=B|55=COFX INDEX|271=6500|290=1|10=019|
20150519-13:33:09.484: 8=FIX.4.4|9=157|35=X|34=67|49=BLODPENNA5|52=20150519-13:33:09.624|56=LVMDG|262=3a6566a3c2034e8f|268=2|279=0|269=A|55=COFX INDEX|290=1|811=28|279=0|269=G|55=COFX INDEX|58= +|10=083|
20150519-13:33:09.484: 8=FIX.4.4|9=157|35=X|34=68|49=BLODPENNA5|52=20150519-13:33:09.624|56=LVMDG|262=3a6566a3c2034e8f|268=2|279=0|269=A|55=COFX INDEX|290=1|811=24|279=0|269=G|55=COFX INDEX|58= +|10=080|
20150519-13:33:09.492: 8=FIX.4.4|9=127|35=X|34=69|49=BLODPENNA5|52=20150519-13:33:09.626|56=LVMDG|262=3a6566a3c2034e8f|268=1|279=0|269=5|55=COFX INDEX|270=2441|290=1|10=011|
20150519-13:33:09.501: 8=FIX.4.4|9=157|35=X|34=70|49=BLODPENNA5|52=20150519-13:33:09.630|56=LVMDG|262=3a6566a3c2034e8f|268=2|279=0|269=A|55=COFX INDEX|290=1|811=24|279=0|269=G|55=COFX INDEX|58= +|10=070|
20150519-13:33:09.505: 8=FIX.4.4|9=127|35=X|34=71|49=BLODPENNA5|52=20150519-13:33:09.630|56=LVMDG|262=3a6566a3c2034e8f|268=1|279=0|269=B|55=COFX INDEX|271=6750|290=1|10=020|
20150519-13:33:09.510: 8=FIX.4.4|9=157|35=X|34=72|49=BLODPENNA5|52=20150519-13:33:09.631|56=LVMDG|262=3a6566a3c2034e8f|268=2|279=0|269=A|55=COFX INDEX|290=1|811=24|279=0|269=G|55=COFX INDEX|58= +|10=073|
20150519-13:33:09.511: 8=FIX.4.4|9=127|35=X|34=73|49=BLODPENNA5|52=20150519-13:33:09.632|56=LVMDG|262=3a6566a3c2034e8f|268=1|279=0|269=B|55=COFX INDEX|271=7000|290=1|10=013|
20150519-13:33:09.511: 8=FIX.4.4|9=157|35=X|34=74|49=BLODPENNA5|52=20150519-13:33:09.632|56=LVMDG|262=3a6566a3c2034e8f|268=2|279=0|269=A|55=COFX INDEX|290=1|811=24|279=0|269=G|55=COFX INDEX|58= +|10=076|
20150519-13:33:09.515: 8=FIX.4.4|9=127|35=X|34=75|49=BLODPENNA5|52=20150519-13:33:09.636|56=LVMDG|262=3a6566a3c2034e8f|268=1|279=0|269=B|55=COFX INDEX|271=7100|290=1|10=020|
20150519-13:33:09.520: 8=FIX.4.4|9=127|35=X|34=76|49=BLODPENNA5|52=20150519-13:33:09.655|56=LVMDG|262=3a6566a3c2034e8f|268=1|279=0|269=B|55=COFX INDEX|271=7350|290=1|10=029|
20150519-13:33:09.520: 8=FIX.4.4|9=157|35=X|34=77|49=BLODPENNA5|52=20150519-13:33:09.656|56=LVMDG|262=3a6566a3c2034e8f|268=2|279=0|269=A|55=COFX INDEX|290=1|811=23|279=0|269=G|55=COFX INDEX|58= +|10=084|
20150519-13:33:09.523: 8=FIX.4.4|9=127|35=X|34=78|49=BLODPENNA5|52=20150519-13:33:09.656|56=LVMDG|262=3a6566a3c2034e8f|268=1|279=0|269=5|55=COFX INDEX|270=2440|290=1|10=013|
20150519-13:33:09.542: 8=FIX.4.4|9=127|35=X|34=79|49=BLODPENNA5|52=20150519-13:33:09.694|56=LVMDG|262=3a6566a3c2034e8f|268=1|279=0|269=B|55=COFX INDEX|271=7600|290=1|10=033|
20150519-13:33:09.543: 8=FIX.4.4|9=157|35=X|34=80|49=BLODPENNA5|52=20150519-13:33:09.695|56=LVMDG|262=3a6566a3c2034e8f|268=2|279=0|269=A|55=COFX INDEX|290=1|811=23|279=0|269=G|55=COFX INDEX|58= +|10=081|
20150519-13:33:09.628: 8=FIX.4.4|9=127|35=X|34=81|49=BLODPENNA5|52=20150519-13:33:09.778|56=LVMDG|262=3a6566a3c2034e8f|268=1|279=0|269=B|55=COFX INDEX|271=7850|290=1|10=036|
20150519-13:33:09.628: 8=FIX.4.4|9=127|35=X|34=82|49=BLODPENNA5|52=20150519-13:33:09.778|56=LVMDG|262=3a6566a3c2034e8f|268=1|279=0|269=B|55=COFX INDEX|271=8350|290=1|10=033|
20150519-13:33:09.631: 8=FIX.4.4|9=157|35=X|34=83|49=BLODPENNA5|52=20150519-13:33:09.780|56=LVMDG|262=3a6566a3c2034e8f|268=2|279=0|269=A|55=COFX INDEX|290=1|811=23|279=0|269=G|55=COFX INDEX|58= +|10=079|
20150519-13:33:09.632: 8=FIX.4.4|9=157|35=X|34=84|49=BLODPENNA5|52=20150519-13:33:09.781|56=LVMDG|262=3a6566a3c2034e8f|268=2|279=0|269=A|55=COFX INDEX|290=1|811=23|279=0|269=G|55=COFX INDEX|58= +|10=081|
20150519-13:33:09.644: 8=FIX.4.4|9=129|35=X|34=85|49=BLODPENNA5|52=20150519-13:33:09.793|56=LVMDG|262=3a6566a3c2034e8f|268=1|279=0|269=5|55=COFX INDEX|270=2441.5|290=1|10=115|
20150519-13:33:09.644: 8=FIX.4.4|9=159|35=X|34=86|49=BLODPENNA5|52=20150519-13:33:09.794|56=LVMDG|262=3a6566a3c2034e8f|268=2|279=0|269=A|55=COFX INDEX|290=1|811=24.5|279=0|269=G|55=COFX INDEX|58= +|10=189|
20150519-13:33:09.645: 8=FIX.4.4|9=127|35=X|34=87|49=BLODPENNA5|52=20150519-13:33:09.795|56=LVMDG|262=3a6566a3c2034e8f|268=1|279=0|269=B|55=COFX INDEX|271=8600|290=1|10=035|
20150519-13:33:09.673: 8=FIX.4.4|9=157|35=X|34=88|49=BLODPENNA5|52=20150519-13:33:09.825|56=LVMDG|262=3a6566a3c2034e8f|268=2|279=0|269=A|55=COFX INDEX|290=1|811=23|279=0|269=G|55=COFX INDEX|58= +|10=084|
20150519-13:33:09.674: 8=FIX.4.4|9=127|35=X|34=89|49=BLODPENNA5|52=20150519-13:33:09.826|56=LVMDG|262=3a6566a3c2034e8f|268=1|279=0|269=B|55=COFX INDEX|271=9350|290=1|10=035|
20150519-13:33:09.675: 8=FIX.4.4|9=127|35=X|34=90|49=BLODPENNA5|52=20150519-13:33:09.826|56=LVMDG|262=3a6566a3c2034e8f|268=1|279=0|269=5|55=COFX INDEX|270=2440|290=1|10=006|
20150519-13:33:09.714: 8=FIX.4.4|9=127|35=X|34=91|49=BLODPENNA5|52=20150519-13:33:09.866|56=LVMDG|262=3a6566a3c2034e8f|268=1|279=0|269=5|55=COFX INDEX|270=2441|290=1|10=012|
20150519-13:33:09.715: 8=FIX.4.4|9=127|35=X|34=92|49=BLODPENNA5|52=20150519-13:33:09.866|56=LVMDG|262=3a6566a3c2034e8f|268=1|279=0|269=B|55=COFX INDEX|271=9850|290=1|10=038|
20150519-13:33:09.715: 8=FIX.4.4|9=157|35=X|34=93|49=BLODPENNA5|52=20150519-13:33:09.866|56=LVMDG|262=3a6566a3c2034e8f|268=2|279=0|269=A|55=COFX INDEX|290=1|811=24|279=0|269=G|55=COFX INDEX|58= +|10=086|
20150519-13:33:09.747: 8=FIX.4.4|9=127|35=X|34=94|49=BLODPENNA5|52=20150519-13:33:09.899|56=LVMDG|262=3a6566a3c2034e8f|268=1|279=0|269=5|55=COFX INDEX|270=2442|290=1|10=022|
20150519-13:33:09.748: 8=FIX.4.4|9=128|35=X|34=95|49=BLODPENNA5|52=20150519-13:33:09.900|56=LVMDG|262=3a6566a3c2034e8f|268=1|279=0|269=B|55=COFX INDEX|271=10350|290=1|10=066|
20150519-13:33:09.749: 8=FIX.4.4|9=157|35=X|34=96|49=BLODPENNA5|52=20150519-13:33:09.901|56=LVMDG|262=3a6566a3c2034e8f|268=2|279=0|269=A|55=COFX INDEX|290=1|811=25|279=0|269=G|55=COFX INDEX|58= +|10=080|
20150519-13:33:09.778: 8=FIX.4.4|9=128|35=X|34=97|49=BLODPENNA5|52=20150519-13:33:09.930|56=LVMDG|262=3a6566a3c2034e8f|268=1|279=0|269=B|55=COFX INDEX|271=10600|290=1|10=069|
20150519-13:33:09.779: 8=FIX.4.4|9=159|35=X|34=98|49=BLODPENNA5|52=20150519-13:33:09.930|56=LVMDG|262=3a6566a3c2034e8f|268=2|279=0|269=A|55=COFX INDEX|290=1|811=26.9|279=0|269=G|55=COFX INDEX|58= +|10=190|
20150519-13:33:09.779: 8=FIX.4.4|9=129|35=X|34=99|49=BLODPENNA5|52=20150519-13:33:09.930|56=LVMDG|262=3a6566a3c2034e8f|268=1|279=0|269=5|55=COFX INDEX|270=2443.9|290=1|10=119|
20150519-13:33:09.820: 8=FIX.4.4|9=129|35=X|34=100|49=BLODPENNA5|52=20150519-13:33:09.964|56=LVMDG|262=3a6566a3c2034e8f|268=1|279=0|269=B|55=COFX INDEX|271=11100|290=1|10=106|
20150519-13:33:09.820: 8=FIX.4.4|9=158|35=X|34=101|49=BLODPENNA5|52=20150519-13:33:09.965|56=LVMDG|262=3a6566a3c2034e8f|268=2|279=0|269=A|55=COFX INDEX|290=1|811=24|279=0|269=G|55=COFX INDEX|58= +|10=125|
20150519-13:33:09.820: 8=FIX.4.4|9=128|35=X|34=102|49=BLODPENNA5|52=20150519-13:33:09.965|56=LVMDG|262=3a6566a3c2034e8f|268=1|279=0|269=5|55=COFX INDEX|270=2441|290=1|10=054|
20150519-13:33:09.888: 8=FIX.4.4|9=158|35=X|34=103|49=BLODPENNA5|52=20150519-13:33:10.037|56=LVMDG|262=3a6566a3c2034e8f|268=2|279=0|269=A|55=COFX INDEX|290=1|811=25|279=0|269=G|55=COFX INDEX|58= +|10=110|
20150519-13:33:09.888: 8=FIX.4.4|9=128|35=X|34=104|49=BLODPENNA5|52=20150519-13:33:10.038|56=LVMDG|262=3a6566a3c2034e8f|268=1|279=0|269=5|55=COFX INDEX|270=2442|290=1|10=040|
20150519-13:33:09.888: 8=FIX.4.4|9=129|35=X|34=105|49=BLODPENNA5|52=20150519-13:33:10.038|56=LVMDG|262=3a6566a3c2034e8f|268=1|279=0|269=B|55=COFX INDEX|271=11350|290=1|10=102|
20150519-13:33:09.917: 8=FIX.4.4|9=129|35=X|34=106|49=BLODPENNA5|52=20150519-13:33:10.068|56=LVMDG|262=3a6566a3c2034e8f|268=1|279=0|269=B|55=COFX INDEX|271=11600|290=1|10=104|
20150519-13:33:09.917: 8=FIX.4.4|9=158|35=X|34=107|49=BLODPENNA5|52=20150519-13:33:10.069|56=LVMDG|262=3a6566a3c2034e8f|268=2|279=0|269=A|55=COFX INDEX|290=1|811=23|279=0|269=G|55=COFX INDEX|58= +|10=117|
20150519-13:33:09.927: 8=FIX.4.4|9=128|35=X|34=108|49=BLODPENNA5|52=20150519-13:33:10.069|56=LVMDG|262=3a6566a3c2034e8f|268=1|279=0|269=5|55=COFX INDEX|270=2440|290=1|10=046|
20150519-13:33:09.935: 8=FIX.4.4|9=129|35=X|34=109|49=BLODPENNA5|52=20150519-13:33:10.086|56=LVMDG|262=3a6566a3c2034e8f|268=1|279=0|269=B|55=COFX INDEX|271=12350|290=1|10=110|
20150519-13:33:09.936: 8=FIX.4.4|9=158|35=X|34=110|49=BLODPENNA5|52=20150519-13:33:10.087|56=LVMDG|262=3a6566a3c2034e8f|268=2|279=0|269=A|55=COFX INDEX|290=1|811=23|279=0|269=G|55=COFX INDEX|58= +|10=111|
20150519-13:33:09.976: 8=FIX.4.4|9=129|35=X|34=111|49=BLODPENNA5|52=20150519-13:33:10.127|56=LVMDG|262=3a6566a3c2034e8f|268=1|279=0|269=B|55=COFX INDEX|271=12600|290=1|10=097|
20150519-13:33:09.988: 8=FIX.4.4|9=158|35=X|34=112|49=BLODPENNA5|52=20150519-13:33:10.128|56=LVMDG|262=3a6566a3c2034e8f|268=2|279=0|269=A|55=COFX INDEX|290=1|811=23|279=0|269=G|55=COFX INDEX|58= +|10=109|
20150519-13:33:09.998: 8=FIX.4.4|9=129|35=X|34=113|49=BLODPENNA5|52=20150519-13:33:10.150|56=LVMDG|262=3a6566a3c2034e8f|268=1|279=0|269=B|55=COFX INDEX|271=12850|290=1|10=102|
20150519-13:33:09.998: 8=FIX.4.4|9=158|35=X|34=114|49=BLODPENNA5|52=20150519-13:33:10.150|56=LVMDG|262=3a6566a3c2034e8f|268=2|279=0|269=A|55=COFX INDEX|290=1|811=23|279=0|269=G|55=COFX INDEX|58= +|10=106|
20150519-13:33:10.031: 8=FIX.4.4|9=131|35=X|34=115|49=BLODPENNA5|52=20150519-13:33:10.182|56=LVMDG|262=3a6566a3c2034e8f|268=1|279=0|269=5|55=COFX INDEX|270=2441.95|290=1|10=191|
20150519-13:33:10.031: 8=FIX.4.4|9=129|35=X|34=116|49=BLODPENNA5|52=20150519-13:33:10.183|56=LVMDG|262=3a6566a3c2034e8f|268=1|279=0|269=B|55=COFX INDEX|271=13100|290=1|10=100|
20150519-13:33:10.031: 8=FIX.4.4|9=161|35=X|34=117|49=BLODPENNA5|52=20150519-13:33:10.183|56=LVMDG|262=3a6566a3c2034e8f|268=2|279=0|269=A|55=COFX INDEX|290=1|811=24.95|279=0|269=G|55=COFX INDEX|58= +|10=010|
20150519-13:33:10.074: 8=FIX.4.4|9=129|35=X|34=118|49=BLODPENNA5|52=20150519-13:33:10.226|56=LVMDG|262=3a6566a3c2034e8f|268=1|279=0|269=B|55=COFX INDEX|271=13600|290=1|10=105|
20150519-13:33:10.080: 8=FIX.4.4|9=160|35=X|34=119|49=BLODPENNA5|52=20150519-13:33:10.226|56=LVMDG|262=3a6566a3c2034e8f|268=2|279=0|269=A|55=COFX INDEX|290=1|811=24.5|279=0|269=G|55=COFX INDEX|58= +|10=208|
20150519-13:33:10.080: 8=FIX.4.4|9=130|35=X|34=120|49=BLODPENNA5|52=20150519-13:33:10.226|56=LVMDG|262=3a6566a3c2034e8f|268=1|279=0|269=5|55=COFX INDEX|270=2441.5|290=1|10=128|
20150519-13:33:10.096: 8=FIX.4.4|9=129|35=X|34=121|49=BLODPENNA5|52=20150519-13:33:10.247|56=LVMDG|262=3a6566a3c2034e8f|268=1|279=0|269=B|55=COFX INDEX|271=14100|290=1|10=098|
20150519-13:33:10.096: 8=FIX.4.4|9=161|35=X|34=122|49=BLODPENNA5|52=20150519-13:33:10.248|56=LVMDG|262=3a6566a3c2034e8f|268=2|279=0|269=A|55=COFX INDEX|290=1|811=24.95|279=0|269=G|55=COFX INDEX|58= +|10=008|
20150519-13:33:10.096: 8=FIX.4.4|9=131|35=X|34=123|49=BLODPENNA5|52=20150519-13:33:10.248|56=LVMDG|262=3a6566a3c2034e8f|268=1|279=0|269=5|55=COFX INDEX|270=2441.95|290=1|10=193|
20150519-13:33:10.136: 8=FIX.4.4|9=160|35=X|34=124|49=BLODPENNA5|52=20150519-13:33:10.284|56=LVMDG|262=3a6566a3c2034e8f|268=2|279=0|269=A|55=COFX INDEX|290=1|811=24.9|279=0|269=G|55=COFX INDEX|58= +|10=212|
20150519-13:33:10.136: 8=FIX.4.4|9=130|35=X|34=125|49=BLODPENNA5|52=20150519-13:33:10.285|56=LVMDG|262=3a6566a3c2034e8f|268=1|279=0|269=5|55=COFX INDEX|270=2441.9|290=1|10=142|
20150519-13:33:10.136: 8=FIX.4.4|9=129|35=X|34=126|49=BLODPENNA5|52=20150519-13:33:10.286|56=LVMDG|262=3a6566a3c2034e8f|268=1|279=0|269=B|55=COFX INDEX|271=14350|290=1|10=113|
20150519-13:33:10.168: 8=FIX.4.4|9=129|35=X|34=127|49=BLODPENNA5|52=20150519-13:33:10.319|56=LVMDG|262=3a6566a3c2034e8f|268=1|279=0|269=B|55=COFX INDEX|271=14600|290=1|10=109|
20150519-13:33:10.169: 8=FIX.4.4|9=158|35=X|34=128|49=BLODPENNA5|52=20150519-13:33:10.320|56=LVMDG|262=3a6566a3c2034e8f|268=2|279=0|269=A|55=COFX INDEX|290=1|811=25|279=0|269=G|55=COFX INDEX|58= +|10=112|
20150519-13:33:10.173: 8=FIX.4.4|9=128|35=X|34=129|49=BLODPENNA5|52=20150519-13:33:10.321|56=LVMDG|262=3a6566a3c2034e8f|268=1|279=0|269=5|55=COFX INDEX|270=2442|290=1|10=042|
20150519-13:33:10.197: 8=FIX.4.4|9=158|35=X|34=130|49=BLODPENNA5|52=20150519-13:33:10.348|56=LVMDG|262=3a6566a3c2034e8f|268=2|279=0|269=A|55=COFX INDEX|290=1|811=25|279=0|269=G|55=COFX INDEX|58= +|10=115|
20150519-13:33:10.199: 8=FIX.4.4|9=129|35=X|34=131|49=BLODPENNA5|52=20150519-13:33:10.349|56=LVMDG|262=3a6566a3c2034e8f|268=1|279=0|269=B|55=COFX INDEX|271=14850|290=1|10=114|
20150519-13:33:10.230: 8=FIX.4.4|9=158|35=X|34=132|49=BLODPENNA5|52=20150519-13:33:10.381|56=LVMDG|262=3a6566a3c2034e8f|268=2|279=0|269=A|55=COFX INDEX|290=1|811=25|279=0|269=G|55=COFX INDEX|58= +|10=114|
20150519-13:33:10.232: 8=FIX.4.4|9=129|35=X|34=133|49=BLODPENNA5|52=20150519-13:33:10.382|56=LVMDG|262=3a6566a3c2034e8f|268=1|279=0|269=B|55=COFX INDEX|271=15100|290=1|10=102|
20150519-13:33:10.294: 8=FIX.4.4|9=158|35=X|34=134|49=BLODPENNA5|52=20150519-13:33:10.445|56=LVMDG|262=3a6566a3c2034e8f|268=2|279=0|269=A|55=COFX INDEX|290=1|811=25|279=0|269=G|55=COFX INDEX|58= +|10=117|
20150519-13:33:10.294: 8=FIX.4.4|9=129|35=X|34=135|49=BLODPENNA5|52=20150519-13:33:10.445|56=LVMDG|262=3a6566a3c2034e8f|268=1|279=0|269=B|55=COFX INDEX|271=15350|290=1|10=111|
20150519-13:33:10.297: 8=FIX.4.4|9=129|35=X|34=136|49=BLODPENNA5|52=20150519-13:33:10.449|56=LVMDG|262=3a6566a3c2034e8f|268=1|279=0|269=B|55=COFX INDEX|271=15600|290=1|10=114|
20150519-13:33:10.298: 8=FIX.4.4|9=158|35=X|34=137|49=BLODPENNA5|52=20150519-13:33:10.450|56=LVMDG|262=3a6566a3c2034e8f|268=2|279=0|269=A|55=COFX INDEX|290=1|811=25|279=0|269=G|55=COFX INDEX|58= +|10=116|
20150519-13:33:10.328: 8=FIX.4.4|9=129|35=X|34=138|49=BLODPENNA5|52=20150519-13:33:10.479|56=LVMDG|262=3a6566a3c2034e8f|268=1|279=0|269=B|55=COFX INDEX|271=15850|290=1|10=126|
20150519-13:33:10.331: 8=FIX.4.4|9=158|35=X|34=139|49=BLODPENNA5|52=20150519-13:33:10.480|56=LVMDG|262=3a6566a3c2034e8f|268=2|279=0|269=A|55=COFX INDEX|290=1|811=25|279=0|269=G|55=COFX INDEX|58= +|10=121|
20150519-13:33:10.363: 8=FIX.4.4|9=129|35=X|34=140|49=BLODPENNA5|52=20150519-13:33:10.514|56=LVMDG|262=3a6566a3c2034e8f|268=1|279=0|269=B|55=COFX INDEX|271=16100|290=1|10=098|
20150519-13:33:10.364: 8=FIX.4.4|9=158|35=X|34=141|49=BLODPENNA5|52=20150519-13:33:10.514|56=LVMDG|262=3a6566a3c2034e8f|268=2|279=0|269=A|55=COFX INDEX|290=1|811=25|279=0|269=G|55=COFX INDEX|58= +|10=112|
20150519-13:33:10.403: 8=FIX.4.4|9=129|35=X|34=142|49=BLODPENNA5|52=20150519-13:33:10.555|56=LVMDG|262=3a6566a3c2034e8f|268=1|279=0|269=B|55=COFX INDEX|271=16350|290=1|10=112|
20150519-13:33:10.404: 8=FIX.4.4|9=158|35=X|34=143|49=BLODPENNA5|52=20150519-13:33:10.556|56=LVMDG|262=3a6566a3c2034e8f|268=2|279=0|269=A|55=COFX INDEX|290=1|811=25|279=0|269=G|55=COFX INDEX|58= +|10=120|
20150519-13:33:10.436: 8=FIX.4.4|9=129|35=X|34=144|49=BLODPENNA5|52=20150519-13:33:10.588|56=LVMDG|262=3a6566a3c2034e8f|268=1|279=0|269=B|55=COFX INDEX|271=16600|290=1|10=118|
20150519-13:33:10.438: 8=FIX.4.4|9=158|35=X|34=145|49=BLODPENNA5|52=20150519-13:33:10.590|56=LVMDG|262=3a6566a3c2034e8f|268=2|279=0|269=A|55=COFX INDEX|290=1|811=25|279=0|269=G|55=COFX INDEX|58= +|10=120|
20150519-13:33:10.488: 8=FIX.4.4|9=129|35=X|34=146|49=BLODPENNA5|52=20150519-13:33:10.639|56=LVMDG|262=3a6566a3c2034e8f|268=1|279=0|269=B|55=COFX INDEX|271=16850|290=1|10=124|
20150519-13:33:10.488: 8=FIX.4.4|9=158|35=X|34=147|49=BLODPENNA5|52=20150519-13:33:10.639|56=LVMDG|262=3a6566a3c2034e8f|268=2|279=0|269=A|55=COFX INDEX|290=1|811=25|279=0|269=G|55=COFX INDEX|58= +|10=126|
20150519-13:33:10.522: 8=FIX.4.4|9=158|35=X|34=148|49=BLODPENNA5|52=20150519-13:33:10.673|56=LVMDG|262=3a6566a3c2034e8f|268=2|279=0|269=A|55=COFX INDEX|290=1|811=25|279=0|269=G|55=COFX INDEX|58= +|10=125|
20150519-13:33:10.523: 8=FIX.4.4|9=129|35=X|34=149|49=BLODPENNA5|52=20150519-13:33:10.675|56=LVMDG|262=3a6566a3c2034e8f|268=1|279=0|269=B|55=COFX INDEX|271=17100|290=1|10=116|
20150519-13:33:10.540: 8=FIX.4.4|9=129|35=X|34=150|49=BLODPENNA5|52=20150519-13:33:10.691|56=LVMDG|262=3a6566a3c2034e8f|268=1|279=0|269=B|55=COFX INDEX|271=17600|290=1|10=111|
20150519-13:33:10.541: 8=FIX.4.4|9=158|35=X|34=151|49=BLODPENNA5|52=20150519-13:33:10.692|56=LVMDG|262=3a6566a3c2034e8f|268=2|279=0|269=A|55=COFX INDEX|290=1|811=25|279=0|269=G|55=COFX INDEX|58= +|10=120|
20150519-13:33:10.583: 8=FIX.4.4|9=129|35=X|34=152|49=BLODPENNA5|52=20150519-13:33:10.734|56=LVMDG|262=3a6566a3c2034e8f|268=1|279=0|269=B|55=COFX INDEX|271=17850|290=1|10=118|
20150519-13:33:10.583: 8=FIX.4.4|9=158|35=X|34=153|49=BLODPENNA5|52=20150519-13:33:10.735|56=LVMDG|262=3a6566a3c2034e8f|268=2|279=0|269=A|55=COFX INDEX|290=1|811=25|279=0|269=G|55=COFX INDEX|58= +|10=120|
20150519-13:33:10.610: 8=FIX.4.4|9=129|35=X|34=154|49=BLODPENNA5|52=20150519-13:33:10.762|56=LVMDG|262=3a6566a3c2034e8f|268=1|279=0|269=B|55=COFX INDEX|271=18100|290=1|10=110|
20150519-13:33:10.610: 8=FIX.4.4|9=158|35=X|34=155|49=BLODPENNA5|52=20150519-13:33:10.762|56=LVMDG|262=3a6566a3c2034e8f|268=2|279=0|269=A|55=COFX INDEX|290=1|811=25|279=0|269=G|55=COFX INDEX|58= +|10=122|
20150519-13:33:10.643: 8=FIX.4.4|9=129|35=X|34=156|49=BLODPENNA5|52=20150519-13:33:10.795|56=LVMDG|262=3a6566a3c2034e8f|268=1|279=0|269=B|55=COFX INDEX|271=18350|290=1|10=125|
20150519-13:33:10.643: 8=FIX.4.4|9=158|35=X|34=157|49=BLODPENNA5|52=20150519-13:33:10.795|56=LVMDG|262=3a6566a3c2034e8f|268=2|279=0|269=A|55=COFX INDEX|290=1|811=25|279=0|269=G|55=COFX INDEX|58= +|10=130|
20150519-13:33:10.740: 8=FIX.4.4|9=158|35=X|34=158|49=BLODPENNA5|52=20150519-13:33:10.891|56=LVMDG|262=3a6566a3c2034e8f|268=2|279=0|269=A|55=COFX INDEX|290=1|811=25|279=0|269=G|55=COFX INDEX|58= +|10=128|
20150519-13:33:10.741: 8=FIX.4.4|9=129|35=X|34=159|49=BLODPENNA5|52=20150519-13:33:10.893|56=LVMDG|262=3a6566a3c2034e8f|268=1|279=0|269=B|55=COFX INDEX|271=18600|290=1|10=125|
20150519-13:33:10.743: 8=FIX.4.4|9=129|35=X|34=160|49=BLODPENNA5|52=20150519-13:33:10.894|56=LVMDG|262=3a6566a3c2034e8f|268=1|279=0|269=B|55=COFX INDEX|271=18850|290=1|10=125|
20150519-13:33:10.747: 8=FIX.4.4|9=158|35=X|34=161|49=BLODPENNA5|52=20150519-13:33:10.895|56=LVMDG|262=3a6566a3c2034e8f|268=2|279=0|269=A|55=COFX INDEX|290=1|811=25|279=0|269=G|55=COFX INDEX|58= +|10=126|
20150519-13:33:10.770: 8=FIX.4.4|9=129|35=X|34=162|49=BLODPENNA5|52=20150519-13:33:10.922|56=LVMDG|262=3a6566a3c2034e8f|268=1|279=0|269=B|55=COFX INDEX|271=19100|290=1|10=108|
20150519-13:33:10.771: 8=FIX.4.4|9=158|35=X|34=163|49=BLODPENNA5|52=20150519-13:33:10.923|56=LVMDG|262=3a6566a3c2034e8f|268=2|279=0|269=A|55=COFX INDEX|290=1|811=25|279=0|269=G|55=COFX INDEX|58= +|10=120|
20150519-13:33:10.816: 8=FIX.4.4|9=158|35=X|34=164|49=BLODPENNA5|52=20150519-13:33:10.967|56=LVMDG|262=3a6566a3c2034e8f|268=2|279=0|269=A|55=COFX INDEX|290=1|811=25|279=0|269=G|55=COFX INDEX|58= +|10=129|
20150519-13:33:10.818: 8=FIX.4.4|9=129|35=X|34=165|49=BLODPENNA5|52=20150519-13:33:10.968|56=LVMDG|262=3a6566a3c2034e8f|268=1|279=0|269=B|55=COFX INDEX|271=19350|290=1|10=128|
20150519-13:33:10.841: 8=FIX.4.4|9=158|35=X|34=166|49=BLODPENNA5|52=20150519-13:33:10.993|56=LVMDG|262=3a6566a3c2034e8f|268=2|279=0|269=A|55=COFX INDEX|290=1|811=25|279=0|269=G|55=COFX INDEX|58= +|10=130|
20150519-13:33:10.842: 8=FIX.4.4|9=129|35=X|34=167|49=BLODPENNA5|52=20150519-13:33:10.994|56=LVMDG|262=3a6566a3c2034e8f|268=1|279=0|269=B|55=COFX INDEX|271=19600|290=1|10=127|
20150519-13:33:10.880: 8=FIX.4.4|9=129|35=X|34=168|49=BLODPENNA5|52=20150519-13:33:11.029|56=LVMDG|262=3a6566a3c2034e8f|268=1|279=0|269=B|55=COFX INDEX|271=19850|290=1|10=125|
20150519-13:33:10.880: 8=FIX.4.4|9=158|35=X|34=169|49=BLODPENNA5|52=20150519-13:33:11.029|56=LVMDG|262=3a6566a3c2034e8f|268=2|279=0|269=A|55=COFX INDEX|290=1|811=25|279=0|269=G|55=COFX INDEX|58= +|10=124|
20150519-13:33:10.914: 8=FIX.4.4|9=129|35=X|34=170|49=BLODPENNA5|52=20150519-13:33:11.065|56=LVMDG|262=3a6566a3c2034e8f|268=1|279=0|269=B|55=COFX INDEX|271=20100|290=1|10=098|
20150519-13:33:10.916: 8=FIX.4.4|9=158|35=X|34=171|49=BLODPENNA5|52=20150519-13:33:11.067|56=LVMDG|262=3a6566a3c2034e8f|268=2|279=0|269=A|55=COFX INDEX|290=1|811=25|279=0|269=G|55=COFX INDEX|58= +|10=119|
20150519-13:33:10.974: 8=FIX.4.4|9=129|35=X|34=172|49=BLODPENNA5|52=20150519-13:33:11.125|56=LVMDG|262=3a6566a3c2034e8f|268=1|279=0|269=B|55=COFX INDEX|271=20350|290=1|10=104|
20150519-13:33:10.975: 8=FIX.4.4|9=158|35=X|34=173|49=BLODPENNA5|52=20150519-13:33:11.126|56=LVMDG|262=3a6566a3c2034e8f|268=2|279=0|269=A|55=COFX INDEX|290=1|811=25|279=0|269=G|55=COFX INDEX|58= +|10=117|
20150519-13:33:10.989: 8=FIX.4.4|9=158|35=X|34=174|49=BLODPENNA5|52=20150519-13:33:11.140|56=LVMDG|262=3a6566a3c2034e8f|268=2|279=0|269=A|55=COFX INDEX|290=1|811=25|279=0|269=G|55=COFX INDEX|58= +|10=114|
20150519-13:33:10.989: 8=FIX.4.4|9=129|35=X|34=175|49=BLODPENNA5|52=20150519-13:33:11.140|56=LVMDG|262=3a6566a3c2034e8f|268=1|279=0|269=B|55=COFX INDEX|271=20600|290=1|10=102|
20150519-13:33:11.023: 8=FIX.4.4|9=129|35=X|34=176|49=BLODPENNA5|52=20150519-13:33:11.174|56=LVMDG|262=3a6566a3c2034e8f|268=1|279=0|269=B|55=COFX INDEX|271=20850|290=1|10=117|
20150519-13:33:11.023: 8=FIX.4.4|9=158|35=X|34=177|49=BLODPENNA5|52=20150519-13:33:11.175|56=LVMDG|262=3a6566a3c2034e8f|268=2|279=0|269=A|55=COFX INDEX|290=1|811=25|279=0|269=G|55=COFX INDEX|58= +|10=125|
20150519-13:33:11.066: 8=FIX.4.4|9=129|35=X|34=178|49=BLODPENNA5|52=20150519-13:33:11.217|56=LVMDG|262=3a6566a3c2034e8f|268=1|279=0|269=B|55=COFX INDEX|271=21100|290=1|10=106|
20150519-13:33:11.066: 8=FIX.4.4|9=158|35=X|34=179|49=BLODPENNA5|52=20150519-13:33:11.218|56=LVMDG|262=3a6566a3c2034e8f|268=2|279=0|269=A|55=COFX INDEX|290=1|811=25|279=0|269=G|55=COFX INDEX|58= +|10=125|
20150519-13:33:11.095: 8=FIX.4.4|9=129|35=X|34=180|49=BLODPENNA5|52=20150519-13:33:11.246|56=LVMDG|262=3a6566a3c2034e8f|268=1|279=0|269=B|55=COFX INDEX|271=21350|290=1|10=108|
20150519-13:33:11.095: 8=FIX.4.4|9=158|35=X|34=181|49=BLODPENNA5|52=20150519-13:33:11.247|56=LVMDG|262=3a6566a3c2034e8f|268=2|279=0|269=A|55=COFX INDEX|290=1|811=25|279=0|269=G|55=COFX INDEX|58= +|10=120|
20150519-13:33:11.127: 8=FIX.4.4|9=158|35=X|34=182|49=BLODPENNA5|52=20150519-13:33:11.279|56=LVMDG|262=3a6566a3c2034e8f|268=2|279=0|269=A|55=COFX INDEX|290=1|811=25|279=0|269=G|55=COFX INDEX|58= +|10=126|
20150519-13:33:11.129: 8=FIX.4.4|9=129|35=X|34=183|49=BLODPENNA5|52=20150519-13:33:11.281|56=LVMDG|262=3a6566a3c2034e8f|268=1|279=0|269=B|55=COFX INDEX|271=21600|290=1|10=108|
20150519-13:33:11.176: 8=FIX.4.4|9=158|35=X|34=184|49=BLODPENNA5|52=20150519-13:33:11.328|56=LVMDG|262=3a6566a3c2034e8f|268=2|279=0|269=A|55=COFX INDEX|290=1|811=25|279=0|269=G|55=COFX INDEX|58= +|10=123|
20150519-13:33:11.177: 8=FIX.4.4|9=129|35=X|34=185|49=BLODPENNA5|52=20150519-13:33:11.329|56=LVMDG|262=3a6566a3c2034e8f|268=1|279=0|269=B|55=COFX INDEX|271=21850|290=1|10=120|
20150519-13:33:11.222: 8=FIX.4.4|9=158|35=X|34=186|49=BLODPENNA5|52=20150519-13:33:11.371|56=LVMDG|262=3a6566a3c2034e8f|268=2|279=0|269=A|55=COFX INDEX|290=1|811=25|279=0|269=G|55=COFX INDEX|58= +|10=123|
20150519-13:33:11.222: 8=FIX.4.4|9=129|35=X|34=187|49=BLODPENNA5|52=20150519-13:33:11.373|56=LVMDG|262=3a6566a3c2034e8f|268=1|279=0|269=B|55=COFX INDEX|271=22100|290=1|10=110|
20150519-13:33:11.256: 8=FIX.4.4|9=129|35=X|34=188|49=BLODPENNA5|52=20150519-13:33:11.407|56=LVMDG|262=3a6566a3c2034e8f|268=1|279=0|269=B|55=COFX INDEX|271=22350|290=1|10=116|
20150519-13:33:11.256: 8=FIX.4.4|9=158|35=X|34=189|49=BLODPENNA5|52=20150519-13:33:11.408|56=LVMDG|262=3a6566a3c2034e8f|268=2|279=0|269=A|55=COFX INDEX|290=1|811=25|279=0|269=G|55=COFX INDEX|58= +|10=127|
20150519-13:33:11.331: 8=FIX.4.4|9=158|35=X|34=190|49=BLODPENNA5|52=20150519-13:33:11.482|56=LVMDG|262=3a6566a3c2034e8f|268=2|279=0|269=A|55=COFX INDEX|290=1|811=25|279=0|269=G|55=COFX INDEX|58= +|10=121|
20150519-13:33:11.331: 8=FIX.4.4|9=129|35=X|34=191|49=BLODPENNA5|52=20150519-13:33:11.482|56=LVMDG|262=3a6566a3c2034e8f|268=1|279=0|269=B|55=COFX INDEX|271=22600|290=1|10=111|
20150519-13:33:11.333: 8=FIX.4.4|9=158|35=X|34=192|49=BLODPENNA5|52=20150519-13:33:11.484|56=LVMDG|262=3a6566a3c2034e8f|268=2|279=0|269=A|55=COFX INDEX|290=1|811=25|279=0|269=G|55=COFX INDEX|58= +|10=125|
20150519-13:33:11.335: 8=FIX.4.4|9=129|35=X|34=193|49=BLODPENNA5|52=20150519-13:33:11.485|56=LVMDG|262=3a6566a3c2034e8f|268=1|279=0|269=B|55=COFX INDEX|271=22850|290=1|10=123|
20150519-13:33:11.355: 8=FIX.4.4|9=158|35=X|34=194|49=BLODPENNA5|52=20150519-13:33:11.506|56=LVMDG|262=3a6566a3c2034e8f|268=2|279=0|269=A|55=COFX INDEX|290=1|811=25|279=0|269=G|55=COFX INDEX|58= +|10=122|
20150519-13:33:11.355: 8=FIX.4.4|9=129|35=X|34=195|49=BLODPENNA5|52=20150519-13:33:11.507|56=LVMDG|262=3a6566a3c2034e8f|268=1|279=0|269=B|55=COFX INDEX|271=23100|290=1|10=109|
20150519-13:33:11.394: 8=FIX.4.4|9=158|35=X|34=196|49=BLODPENNA5|52=20150519-13:33:11.545|56=LVMDG|262=3a6566a3c2034e8f|268=2|279=0|269=A|55=COFX INDEX|290=1|811=25|279=0|269=G|55=COFX INDEX|58= +|10=127|
20150519-13:33:11.395: 8=FIX.4.4|9=129|35=X|34=197|49=BLODPENNA5|52=20150519-13:33:11.546|56=LVMDG|262=3a6566a3c2034e8f|268=1|279=0|269=B|55=COFX INDEX|271=23350|290=1|10=121|
20150519-13:33:11.427: 8=FIX.4.4|9=129|35=X|34=198|49=BLODPENNA5|52=20150519-13:33:11.576|56=LVMDG|262=3a6566a3c2034e8f|268=1|279=0|269=B|55=COFX INDEX|271=23850|290=1|10=130|
20150519-13:33:11.427: 8=FIX.4.4|9=158|35=X|34=199|49=BLODPENNA5|52=20150519-13:33:11.576|56=LVMDG|262=3a6566a3c2034e8f|268=2|279=0|269=A|55=COFX INDEX|290=1|811=25|279=0|269=G|55=COFX INDEX|58= +|10=134|
20150519-13:33:11.459: 8=FIX.4.4|9=129|35=X|34=200|49=BLODPENNA5|52=20150519-13:33:11.611|56=LVMDG|262=3a6566a3c2034e8f|268=1|279=0|269=B|55=COFX INDEX|271=24100|290=1|10=093|
20150519-13:33:11.459: 8=FIX.4.4|9=158|35=X|34=201|49=BLODPENNA5|52=20150519-13:33:11.611|56=LVMDG|262=3a6566a3c2034e8f|268=2|279=0|269=A|55=COFX INDEX|290=1|811=25|279=0|269=G|55=COFX INDEX|58= +|10=108|
20150519-13:33:11.495: 8=FIX.4.4|9=129|35=X|34=202|49=BLODPENNA5|52=20150519-13:33:11.646|56=LVMDG|262=3a6566a3c2034e8f|268=1|279=0|269=B|55=COFX INDEX|271=24350|290=1|10=110|
20150519-13:33:11.501: 8=FIX.4.4|9=158|35=X|34=203|49=BLODPENNA5|52=20150519-13:33:11.648|56=LVMDG|262=3a6566a3c2034e8f|268=2|279=0|269=A|55=COFX INDEX|290=1|811=25|279=0|269=G|55=COFX INDEX|58= +|10=120|
20150519-13:33:11.543: 8=FIX.4.4|9=129|35=X|34=204|49=BLODPENNA5|52=20150519-13:33:11.695|56=LVMDG|262=3a6566a3c2034e8f|268=1|279=0|269=B|55=COFX INDEX|271=25350|290=1|10=117|
20150519-13:33:11.544: 8=FIX.4.4|9=158|35=X|34=205|49=BLODPENNA5|52=20150519-13:33:11.696|56=LVMDG|262=3a6566a3c2034e8f|268=2|279=0|269=A|55=COFX INDEX|290=1|811=24|279=0|269=G|55=COFX INDEX|58= +|10=124|
20150519-13:33:11.551: 8=FIX.4.4|9=128|35=X|34=206|49=BLODPENNA5|52=20150519-13:33:11.700|56=LVMDG|262=3a6566a3c2034e8f|268=1|279=0|269=5|55=COFX INDEX|270=2441|290=1|10=039|
20150519-13:33:11.582: 8=FIX.4.4|9=158|35=X|34=207|49=BLODPENNA5|52=20150519-13:33:11.733|56=LVMDG|262=3a6566a3c2034e8f|268=2|279=0|269=A|55=COFX INDEX|290=1|811=24|279=0|269=G|55=COFX INDEX|58= +|10=118|
20150519-13:33:11.582: 8=FIX.4.4|9=129|35=X|34=208|49=BLODPENNA5|52=20150519-13:33:11.733|56=LVMDG|262=3a6566a3c2034e8f|268=1|279=0|269=B|55=COFX INDEX|271=26350|290=1|10=115|
20150519-13:33:11.619: 8=FIX.4.4|9=128|35=X|34=209|49=BLODPENNA5|52=20150519-13:33:11.770|56=LVMDG|262=3a6566a3c2034e8f|268=1|279=0|269=5|55=COFX INDEX|270=2440|290=1|10=048|
20150519-13:33:11.620: 8=FIX.4.4|9=129|35=X|34=210|49=BLODPENNA5|52=20150519-13:33:11.772|56=LVMDG|262=3a6566a3c2034e8f|268=1|279=0|269=B|55=COFX INDEX|271=26600|290=1|10=109|
20150519-13:33:11.621: 8=FIX.4.4|9=158|35=X|34=211|49=BLODPENNA5|52=20150519-13:33:11.773|56=LVMDG|262=3a6566a3c2034e8f|268=2|279=0|269=A|55=COFX INDEX|290=1|811=23|279=0|269=G|55=COFX INDEX|58= +|10=116|
20150519-13:33:11.631: 8=FIX.4.4|9=129|35=X|34=212|49=BLODPENNA5|52=20150519-13:33:11.783|56=LVMDG|262=3a6566a3c2034e8f|268=1|279=0|269=B|55=COFX INDEX|271=27600|290=1|10=114|
20150519-13:33:11.632: 8=FIX.4.4|9=158|35=X|34=213|49=BLODPENNA5|52=20150519-13:33:11.783|56=LVMDG|262=3a6566a3c2034e8f|268=2|279=0|269=A|55=COFX INDEX|290=1|811=24|279=0|269=G|55=COFX INDEX|58= +|10=120|
20150519-13:33:11.633: 8=FIX.4.4|9=128|35=X|34=214|49=BLODPENNA5|52=20150519-13:33:11.785|56=LVMDG|262=3a6566a3c2034e8f|268=1|279=0|269=5|55=COFX INDEX|270=2441|290=1|10=051|
20150519-13:33:11.663: 8=FIX.4.4|9=129|35=X|34=215|49=BLODPENNA5|52=20150519-13:33:11.815|56=LVMDG|262=3a6566a3c2034e8f|268=1|279=0|269=B|55=COFX INDEX|271=27850|290=1|10=120|
20150519-13:33:11.663: 8=FIX.4.4|9=160|35=X|34=216|49=BLODPENNA5|52=20150519-13:33:11.815|56=LVMDG|262=3a6566a3c2034e8f|268=2|279=0|269=A|55=COFX INDEX|290=1|811=23.1|279=0|269=G|55=COFX INDEX|58= +|10=206|
20150519-13:33:11.663: 8=FIX.4.4|9=130|35=X|34=217|49=BLODPENNA5|52=20150519-13:33:11.815|56=LVMDG|262=3a6566a3c2034e8f|268=1|279=0|269=5|55=COFX INDEX|270=2440.1|290=1|10=135|
20150519-13:33:11.697: 8=FIX.4.4|9=131|35=X|34=218|49=BLODPENNA5|52=20150519-13:33:11.848|56=LVMDG|262=3a6566a3c2034e8f|268=1|279=0|269=5|55=COFX INDEX|270=2440.95|290=1|10=204|
20150519-13:33:11.699: 8=FIX.4.4|9=129|35=X|34=219|49=BLODPENNA5|52=20150519-13:33:11.849|56=LVMDG|262=3a6566a3c2034e8f|268=1|279=0|269=B|55=COFX INDEX|271=28100|290=1|10=120|
20150519-13:33:11.700: 8=FIX.4.4|9=161|35=X|34=220|49=BLODPENNA5|52=20150519-13:33:11.849|56=LVMDG|262=3a6566a3c2034e8f|268=2|279=0|269=A|55=COFX INDEX|290=1|811=23.95|279=0|269=G|55=COFX INDEX|58= +|10=014|
20150519-13:33:11.739: 8=FIX.4.4|9=129|35=X|34=221|49=BLODPENNA5|52=20150519-13:33:11.890|56=LVMDG|262=3a6566a3c2034e8f|268=1|279=0|269=B|55=COFX INDEX|271=28600|290=1|10=114|
20150519-13:33:11.739: 8=FIX.4.4|9=130|35=X|34=222|49=BLODPENNA5|52=20150519-13:33:11.891|56=LVMDG|262=3a6566a3c2034e8f|268=1|279=0|269=5|55=COFX INDEX|270=2440.1|290=1|10=135|
20150519-13:33:11.744: 8=FIX.4.4|9=160|35=X|34=223|49=BLODPENNA5|52=20150519-13:33:11.892|56=LVMDG|262=3a6566a3c2034e8f|268=2|279=0|269=A|55=COFX INDEX|290=1|811=23.1|279=0|269=G|55=COFX INDEX|58= +|10=209|
20150519-13:33:11.774: 8=FIX.4.4|9=158|35=X|34=224|49=BLODPENNA5|52=20150519-13:33:11.926|56=LVMDG|262=3a6566a3c2034e8f|268=2|279=0|269=A|55=COFX INDEX|290=1|811=24|279=0|269=G|55=COFX INDEX|58= +|10=121|
20150519-13:33:11.775: 8=FIX.4.4|9=129|35=X|34=225|49=BLODPENNA5|52=20150519-13:33:11.926|56=LVMDG|262=3a6566a3c2034e8f|268=1|279=0|269=B|55=COFX INDEX|271=28850|290=1|10=125|
20150519-13:33:11.776: 8=FIX.4.4|9=128|35=X|34=226|49=BLODPENNA5|52=20150519-13:33:11.927|56=LVMDG|262=3a6566a3c2034e8f|268=1|279=0|269=5|55=COFX INDEX|270=2441|290=1|10=052|
20150519-13:33:11.802: 8=FIX.4.4|9=129|35=X|34=227|49=BLODPENNA5|52=20150519-13:33:11.954|56=LVMDG|262=3a6566a3c2034e8f|268=1|279=0|269=B|55=COFX INDEX|271=29100|290=1|10=117|
20150519-13:33:11.803: 8=FIX.4.4|9=158|35=X|34=228|49=BLODPENNA5|52=20150519-13:33:11.954|56=LVMDG|262=3a6566a3c2034e8f|268=2|279=0|269=A|55=COFX INDEX|290=1|811=24|279=0|269=G|55=COFX INDEX|58= +|10=126|
20150519-13:33:11.852: 8=FIX.4.4|9=129|35=X|34=229|49=BLODPENNA5|52=20150519-13:33:12.004|56=LVMDG|262=3a6566a3c2034e8f|268=1|279=0|269=B|55=COFX INDEX|271=29350|290=1|10=113|
20150519-13:33:11.853: 8=FIX.4.4|9=158|35=X|34=230|49=BLODPENNA5|52=20150519-13:33:12.004|56=LVMDG|262=3a6566a3c2034e8f|268=2|279=0|269=A|55=COFX INDEX|290=1|811=24|279=0|269=G|55=COFX INDEX|58= +|10=106|
20150519-13:33:11.869: 8=FIX.4.4|9=129|35=X|34=231|49=BLODPENNA5|52=20150519-13:33:12.020|56=LVMDG|262=3a6566a3c2034e8f|268=1|279=0|269=B|55=COFX INDEX|271=29600|290=1|10=102|
20150519-13:33:11.871: 8=FIX.4.4|9=160|35=X|34=232|49=BLODPENNA5|52=20150519-13:33:12.021|56=LVMDG|262=3a6566a3c2034e8f|268=2|279=0|269=A|55=COFX INDEX|290=1|811=24.5|279=0|269=G|55=COFX INDEX|58= +|10=199|
20150519-13:33:11.871: 8=FIX.4.4|9=130|35=X|34=233|49=BLODPENNA5|52=20150519-13:33:12.021|56=LVMDG|262=3a6566a3c2034e8f|268=1|279=0|269=5|55=COFX INDEX|270=2441.5|290=1|10=128|
20150519-13:33:11.906: 8=FIX.4.4|9=129|35=X|34=234|49=BLODPENNA5|52=20150519-13:33:12.057|56=LVMDG|262=3a6566a3c2034e8f|268=1|279=0|269=B|55=COFX INDEX|271=30100|290=1|10=102|
20150519-13:33:11.906: 8=FIX.4.4|9=160|35=X|34=235|49=BLODPENNA5|52=20150519-13:33:12.057|56=LVMDG|262=3a6566a3c2034e8f|268=2|279=0|269=A|55=COFX INDEX|290=1|811=23.1|279=0|269=G|55=COFX INDEX|58= +|10=206|
20150519-13:33:11.908: 8=FIX.4.4|9=130|35=X|34=236|49=BLODPENNA5|52=20150519-13:33:12.057|56=LVMDG|262=3a6566a3c2034e8f|268=1|279=0|269=5|55=COFX INDEX|270=2440.1|290=1|10=135|
20150519-13:33:11.977: 8=FIX.4.4|9=129|35=X|34=237|49=BLODPENNA5|52=20150519-13:33:12.129|56=LVMDG|262=3a6566a3c2034e8f|268=1|279=0|269=B|55=COFX INDEX|271=30600|290=1|10=110|
20150519-13:33:11.978: 8=FIX.4.4|9=160|35=X|34=238|49=BLODPENNA5|52=20150519-13:33:12.129|56=LVMDG|262=3a6566a3c2034e8f|268=2|279=0|269=A|55=COFX INDEX|290=1|811=23.1|279=0|269=G|55=COFX INDEX|58= +|10=209|
20150519-13:33:11.987: 8=FIX.4.4|9=129|35=X|34=239|49=BLODPENNA5|52=20150519-13:33:12.130|56=LVMDG|262=3a6566a3c2034e8f|268=1|279=0|269=B|55=COFX INDEX|271=30850|290=1|10=111|
20150519-13:33:11.988: 8=FIX.4.4|9=158|35=X|34=240|49=BLODPENNA5|52=20150519-13:33:12.132|56=LVMDG|262=3a6566a3c2034e8f|268=2|279=0|269=A|55=COFX INDEX|290=1|811=24|279=0|269=G|55=COFX INDEX|58= +|10=109|
20150519-13:33:11.988: 8=FIX.4.4|9=128|35=X|34=241|49=BLODPENNA5|52=20150519-13:33:12.132|56=LVMDG|262=3a6566a3c2034e8f|268=1|279=0|269=5|55=COFX INDEX|270=2441|290=1|10=038|
20150519-13:33:12.022: 8=FIX.4.4|9=130|35=X|34=242|49=BLODPENNA5|52=20150519-13:33:12.173|56=LVMDG|262=3a6566a3c2034e8f|268=1|279=0|269=5|55=COFX INDEX|270=2442.9|290=1|10=141|
20150519-13:33:12.022: 8=FIX.4.4|9=129|35=X|34=243|49=BLODPENNA5|52=20150519-13:33:12.173|56=LVMDG|262=3a6566a3c2034e8f|268=1|279=0|269=B|55=COFX INDEX|271=31100|290=1|10=102|
20150519-13:33:12.022: 8=FIX.4.4|9=160|35=X|34=244|49=BLODPENNA5|52=20150519-13:33:12.174|56=LVMDG|262=3a6566a3c2034e8f|268=2|279=0|269=A|55=COFX INDEX|290=1|811=25.9|279=0|269=G|55=COFX INDEX|58= +|10=216|
20150519-13:33:12.048: 8=FIX.4.4|9=158|35=X|34=245|49=BLODPENNA5|52=20150519-13:33:12.199|56=LVMDG|262=3a6566a3c2034e8f|268=2|279=0|269=A|55=COFX INDEX|290=1|811=25|279=0|269=G|55=COFX INDEX|58= +|10=128|
20150519-13:33:12.049: 8=FIX.4.4|9=129|35=X|34=246|49=BLODPENNA5|52=20150519-13:33:12.200|56=LVMDG|262=3a6566a3c2034e8f|268=1|279=0|269=B|55=COFX INDEX|271=31600|290=1|10=101|
20150519-13:33:12.051: 8=FIX.4.4|9=128|35=X|34=247|49=BLODPENNA5|52=20150519-13:33:12.200|56=LVMDG|262=3a6566a3c2034e8f|268=1|279=0|269=5|55=COFX INDEX|270=2442|290=1|10=041|
20150519-13:33:12.087: 8=FIX.4.4|9=129|35=X|34=248|49=BLODPENNA5|52=20150519-13:33:12.238|56=LVMDG|262=3a6566a3c2034e8f|268=1|279=0|269=B|55=COFX INDEX|271=32100|290=1|10=110|
20150519-13:33:12.087: 8=FIX.4.4|9=158|35=X|34=249|49=BLODPENNA5|52=20150519-13:33:12.239|56=LVMDG|262=3a6566a3c2034e8f|268=2|279=0|269=A|55=COFX INDEX|290=1|811=25|279=0|269=G|55=COFX INDEX|58= +|10=127|
20150519-13:33:12.122: 8=FIX.4.4|9=160|35=X|34=250|49=BLODPENNA5|52=20150519-13:33:12.273|56=LVMDG|262=3a6566a3c2034e8f|268=2|279=0|269=A|55=COFX INDEX|290=1|811=25.5|279=0|269=G|55=COFX INDEX|58= +|10=209|
20150519-13:33:12.122: 8=FIX.4.4|9=129|35=X|34=251|49=BLODPENNA5|52=20150519-13:33:12.274|56=LVMDG|262=3a6566a3c2034e8f|268=1|279=0|269=B|55=COFX INDEX|271=32350|290=1|10=111|
20150519-13:33:12.125: 8=FIX.4.4|9=130|35=X|34=252|49=BLODPENNA5|52=20150519-13:33:12.277|56=LVMDG|262=3a6566a3c2034e8f|268=1|279=0|269=5|55=COFX INDEX|270=2442.5|290=1|10=143|
20150519-13:33:12.154: 8=FIX.4.4|9=128|35=X|34=253|49=BLODPENNA5|52=20150519-13:33:12.305|56=LVMDG|262=3a6566a3c2034e8f|268=1|279=0|269=5|55=COFX INDEX|270=2442|290=1|10=044|
20150519-13:33:12.154: 8=FIX.4.4|9=129|35=X|34=254|49=BLODPENNA5|52=20150519-13:33:12.306|56=LVMDG|262=3a6566a3c2034e8f|268=1|279=0|269=B|55=COFX INDEX|271=32850|290=1|10=115|
20150519-13:33:12.155: 8=FIX.4.4|9=158|35=X|34=255|49=BLODPENNA5|52=20150519-13:33:12.307|56=LVMDG|262=3a6566a3c2034e8f|268=2|279=0|269=A|55=COFX INDEX|290=1|811=25|279=0|269=G|55=COFX INDEX|58= +|10=120|
20150519-13:33:12.213: 8=FIX.4.4|9=158|35=X|34=256|49=BLODPENNA5|52=20150519-13:33:12.362|56=LVMDG|262=3a6566a3c2034e8f|268=2|279=0|269=A|55=COFX INDEX|290=1|811=25|279=0|269=G|55=COFX INDEX|58= +|10=122|
20150519-13:33:12.214: 8=FIX.4.4|9=129|35=X|34=257|49=BLODPENNA5|52=20150519-13:33:12.363|56=LVMDG|262=3a6566a3c2034e8f|268=1|279=0|269=B|55=COFX INDEX|271=33350|290=1|10=117|
20150519-13:33:12.251: 8=FIX.4.4|9=158|35=X|34=258|49=BLODPENNA5|52=20150519-13:33:12.397|56=LVMDG|262=3a6566a3c2034e8f|268=2|279=0|269=A|55=COFX INDEX|290=1|811=24|279=0|269=G|55=COFX INDEX|58= +|10=131|
20150519-13:33:12.251: 8=FIX.4.4|9=129|35=X|34=259|49=BLODPENNA5|52=20150519-13:33:12.398|56=LVMDG|262=3a6566a3c2034e8f|268=1|279=0|269=B|55=COFX INDEX|271=34350|290=1|10=128|
20150519-13:33:12.251: 8=FIX.4.4|9=128|35=X|34=260|49=BLODPENNA5|52=20150519-13:33:12.398|56=LVMDG|262=3a6566a3c2034e8f|268=1|279=0|269=5|55=COFX INDEX|270=2441|290=1|10=053|
20150519-13:33:12.285: 8=FIX.4.4|9=129|35=X|34=261|49=BLODPENNA5|52=20150519-13:33:12.436|56=LVMDG|262=3a6566a3c2034e8f|268=1|279=0|269=B|55=COFX INDEX|271=34600|290=1|10=112|
20150519-13:33:12.286: 8=FIX.4.4|9=158|35=X|34=262|49=BLODPENNA5|52=20150519-13:33:12.437|56=LVMDG|262=3a6566a3c2034e8f|268=2|279=0|269=A|55=COFX INDEX|290=1|811=25|279=0|269=G|55=COFX INDEX|58= +|10=122|
20150519-13:33:12.288: 8=FIX.4.4|9=128|35=X|34=263|49=BLODPENNA5|52=20150519-13:33:12.439|56=LVMDG|262=3a6566a3c2034e8f|268=1|279=0|269=5|55=COFX INDEX|270=2442|290=1|10=053|
20150519-13:33:12.321: 8=FIX.4.4|9=129|35=X|34=264|49=BLODPENNA5|52=20150519-13:33:12.473|56=LVMDG|262=3a6566a3c2034e8f|268=1|279=0|269=B|55=COFX INDEX|271=34850|290=1|10=123|
20150519-13:33:12.322: 8=FIX.4.4|9=160|35=X|34=265|49=BLODPENNA5|52=20150519-13:33:12.473|56=LVMDG|262=3a6566a3c2034e8f|268=2|279=0|269=A|55=COFX INDEX|290=1|811=25.4|279=0|269=G|55=COFX INDEX|58= +|10=216|
20150519-13:33:12.323: 8=FIX.4.4|9=130|35=X|34=266|49=BLODPENNA5|52=20150519-13:33:12.474|56=LVMDG|262=3a6566a3c2034e8f|268=1|279=0|269=5|55=COFX INDEX|270=2442.4|290=1|10=146|
20150519-13:33:12.363: 8=FIX.4.4|9=160|35=X|34=267|49=BLODPENNA5|52=20150519-13:33:12.502|56=LVMDG|262=3a6566a3c2034e8f|268=2|279=0|269=A|55=COFX INDEX|290=1|811=25.8|279=0|269=G|55=COFX INDEX|58= +|10=215|
20150519-13:33:12.364: 8=FIX.4.4|9=129|35=X|34=268|49=BLODPENNA5|52=20150519-13:33:12.503|56=LVMDG|262=3a6566a3c2034e8f|268=1|279=0|269=B|55=COFX INDEX|271=35100|290=1|10=110|
20150519-13:33:12.364: 8=FIX.4.4|9=130|35=X|34=269|49=BLODPENNA5|52=20150519-13:33:12.504|56=LVMDG|262=3a6566a3c2034e8f|268=1|279=0|269=5|55=COFX INDEX|270=2442.8|290=1|10=147|
20150519-13:33:12.387: 8=FIX.4.4|9=129|35=X|34=270|49=BLODPENNA5|52=20150519-13:33:12.535|56=LVMDG|262=3a6566a3c2034e8f|268=1|279=0|269=B|55=COFX INDEX|271=35350|290=1|10=115|
20150519-13:33:12.387: 8=FIX.4.4|9=160|35=X|34=271|49=BLODPENNA5|52=20150519-13:33:12.535|56=LVMDG|262=3a6566a3c2034e8f|268=2|279=0|269=A|55=COFX INDEX|290=1|811=25.8|279=0|269=G|55=COFX INDEX|58= +|10=216|
20150519-13:33:12.422: 8=FIX.4.4|9=128|35=X|34=272|49=BLODPENNA5|52=20150519-13:33:12.572|56=LVMDG|262=3a6566a3c2034e8f|268=1|279=0|269=5|55=COFX INDEX|270=2442|290=1|10=051|
20150519-13:33:12.422: 8=FIX.4.4|9=158|35=X|34=273|49=BLODPENNA5|52=20150519-13:33:12.573|56=LVMDG|262=3a6566a3c2034e8f|268=2|279=0|269=A|55=COFX INDEX|290=1|811=25|279=0|269=G|55=COFX INDEX|58= +|10=125|
20150519-13:33:12.426: 8=FIX.4.4|9=129|35=X|34=274|49=BLODPENNA5|52=20150519-13:33:12.574|56=LVMDG|262=3a6566a3c2034e8f|268=1|279=0|269=B|55=COFX INDEX|271=35850|290=1|10=127|
20150519-13:33:12.455: 8=FIX.4.4|9=131|35=X|34=275|49=BLODPENNA5|52=20150519-13:33:12.601|56=LVMDG|262=3a6566a3c2034e8f|268=1|279=0|269=5|55=COFX INDEX|270=2442.01|290=1|10=184|
20150519-13:33:12.455: 8=FIX.4.4|9=161|35=X|34=276|49=BLODPENNA5|52=20150519-13:33:12.602|56=LVMDG|262=3a6566a3c2034e8f|268=2|279=0|269=A|55=COFX INDEX|290=1|811=25.01|279=0|269=G|55=COFX INDEX|58= +|10=002|
20150519-13:33:12.456: 8=FIX.4.4|9=129|35=X|34=277|49=BLODPENNA5|52=20150519-13:33:12.603|56=LVMDG|262=3a6566a3c2034e8f|268=1|279=0|269=B|55=COFX INDEX|271=36100|290=1|10=112|
20150519-13:33:12.491: 8=FIX.4.4|9=158|35=X|34=278|49=BLODPENNA5|52=20150519-13:33:12.642|56=LVMDG|262=3a6566a3c2034e8f|268=2|279=0|269=A|55=COFX INDEX|290=1|811=25|279=0|269=G|55=COFX INDEX|58= +|10=127|
20150519-13:33:12.493: 8=FIX.4.4|9=129|35=X|34=279|49=BLODPENNA5|52=20150519-13:33:12.644|56=LVMDG|262=3a6566a3c2034e8f|268=1|279=0|269=B|55=COFX INDEX|271=36600|290=1|10=124|
20150519-13:33:12.498: 8=FIX.4.4|9=128|35=X|34=280|49=BLODPENNA5|52=20150519-13:33:12.649|56=LVMDG|262=3a6566a3c2034e8f|268=1|279=0|269=5|55=COFX INDEX|270=2442|290=1|10=055|
20150519-13:33:12.520: 8=FIX.4.4|9=158|35=X|34=281|49=BLODPENNA5|52=20150519-13:33:12.672|56=LVMDG|262=3a6566a3c2034e8f|268=2|279=0|269=A|55=COFX INDEX|290=1|811=25|279=0|269=G|55=COFX INDEX|58= +|10=124|
20150519-13:33:12.523: 8=FIX.4.4|9=129|35=X|34=282|49=BLODPENNA5|52=20150519-13:33:12.674|56=LVMDG|262=3a6566a3c2034e8f|268=1|279=0|269=B|55=COFX INDEX|271=36850|290=1|10=128|
20150519-13:33:12.589: 8=FIX.4.4|9=129|35=X|34=283|49=BLODPENNA5|52=20150519-13:33:12.740|56=LVMDG|262=3a6566a3c2034e8f|268=1|279=0|269=B|55=COFX INDEX|271=37350|290=1|10=119|
20150519-13:33:12.589: 8=FIX.4.4|9=158|35=X|34=284|49=BLODPENNA5|52=20150519-13:33:12.740|56=LVMDG|262=3a6566a3c2034e8f|268=2|279=0|269=A|55=COFX INDEX|290=1|811=25|279=0|269=G|55=COFX INDEX|58= +|10=123|
20150519-13:33:12.595: 8=FIX.4.4|9=131|35=X|34=285|49=BLODPENNA5|52=20150519-13:33:12.745|56=LVMDG|262=3a6566a3c2034e8f|268=1|279=0|269=5|55=COFX INDEX|270=2442.95|290=1|10=207|
20150519-13:33:12.599: 8=FIX.4.4|9=129|35=X|34=286|49=BLODPENNA5|52=20150519-13:33:12.746|56=LVMDG|262=3a6566a3c2034e8f|268=1|279=0|269=B|55=COFX INDEX|271=37850|290=1|10=133|
20150519-13:33:12.600: 8=FIX.4.4|9=161|35=X|34=287|49=BLODPENNA5|52=20150519-13:33:12.747|56=LVMDG|262=3a6566a3c2034e8f|268=2|279=0|269=A|55=COFX INDEX|290=1|811=25.95|279=0|269=G|55=COFX INDEX|58= +|10=027|
20150519-13:33:12.645: 8=FIX.4.4|9=130|35=X|34=288|49=BLODPENNA5|52=20150519-13:33:12.796|56=LVMDG|262=3a6566a3c2034e8f|268=1|279=0|269=5|55=COFX INDEX|270=2442.8|290=1|10=161|
20150519-13:33:12.645: 8=FIX.4.4|9=160|35=X|34=289|49=BLODPENNA5|52=20150519-13:33:12.797|56=LVMDG|262=3a6566a3c2034e8f|268=2|279=0|269=A|55=COFX INDEX|290=1|811=25.8|279=0|269=G|55=COFX INDEX|58= +|10=235|
20150519-13:33:12.647: 8=FIX.4.4|9=129|35=X|34=290|49=BLODPENNA5|52=20150519-13:33:12.798|56=LVMDG|262=3a6566a3c2034e8f|268=1|279=0|269=B|55=COFX INDEX|271=38100|290=1|10=124|
20150519-13:33:12.680: 8=FIX.4.4|9=129|35=X|34=291|49=BLODPENNA5|52=20150519-13:33:12.827|56=LVMDG|262=3a6566a3c2034e8f|268=1|279=0|269=B|55=COFX INDEX|271=38350|290=1|10=125|
20150519-13:33:12.681: 8=FIX.4.4|9=128|35=X|34=292|49=BLODPENNA5|52=20150519-13:33:12.827|56=LVMDG|262=3a6566a3c2034e8f|268=1|279=0|269=5|55=COFX INDEX|270=2442|290=1|10=056|
20150519-13:33:12.681: 8=FIX.4.4|9=158|35=X|34=293|49=BLODPENNA5|52=20150519-13:33:12.829|56=LVMDG|262=3a6566a3c2034e8f|268=2|279=0|269=A|55=COFX INDEX|290=1|811=25|279=0|269=G|55=COFX INDEX|58= +|10=131|
20150519-13:33:12.697: 8=FIX.4.4|9=129|35=X|34=294|49=BLODPENNA5|52=20150519-13:33:12.848|56=LVMDG|262=3a6566a3c2034e8f|268=1|279=0|269=B|55=COFX INDEX|271=38600|290=1|10=129|
20150519-13:33:12.698: 8=FIX.4.4|9=130|35=X|34=295|49=BLODPENNA5|52=20150519-13:33:12.849|56=LVMDG|262=3a6566a3c2034e8f|268=1|279=0|269=5|55=COFX INDEX|270=2442.8|290=1|10=158|
20150519-13:33:12.699: 8=FIX.4.4|9=160|35=X|34=296|49=BLODPENNA5|52=20150519-13:33:12.849|56=LVMDG|262=3a6566a3c2034e8f|268=2|279=0|269=A|55=COFX INDEX|290=1|811=25.8|279=0|269=G|55=COFX INDEX|58= +|10=231|
20150519-13:33:12.744: 8=FIX.4.4|9=131|35=X|34=297|49=BLODPENNA5|52=20150519-13:33:12.896|56=LVMDG|262=3a6566a3c2034e8f|268=1|279=0|269=5|55=COFX INDEX|270=2442.85|290=1|10=216|
20150519-13:33:12.745: 8=FIX.4.4|9=161|35=X|34=298|49=BLODPENNA5|52=20150519-13:33:12.896|56=LVMDG|262=3a6566a3c2034e8f|268=2|279=0|269=A|55=COFX INDEX|290=1|811=25.85|279=0|269=G|55=COFX INDEX|58= +|10=033|
20150519-13:33:12.746: 8=FIX.4.4|9=129|35=X|34=299|49=BLODPENNA5|52=20150519-13:33:12.897|56=LVMDG|262=3a6566a3c2034e8f|268=1|279=0|269=B|55=COFX INDEX|271=38850|290=1|10=145|
20150519-13:33:12.760: 8=FIX.4.4|9=160|35=X|34=300|49=BLODPENNA5|52=20150519-13:33:12.911|56=LVMDG|262=3a6566a3c2034e8f|268=2|279=0|269=A|55=COFX INDEX|290=1|811=25.9|279=0|269=G|55=COFX INDEX|58= +|10=208|
20150519-13:33:12.761: 8=FIX.4.4|9=129|35=X|34=301|49=BLODPENNA5|52=20150519-13:33:12.912|56=LVMDG|262=3a6566a3c2034e8f|268=1|279=0|269=B|55=COFX INDEX|271=39100|290=1|10=106|
20150519-13:33:12.761: 8=FIX.4.4|9=130|35=X|34=302|49=BLODPENNA5|52=20150519-13:33:12.912|56=LVMDG|262=3a6566a3c2034e8f|268=1|279=0|269=5|55=COFX INDEX|270=2442.9|290=1|10=139|
20150519-13:33:12.801: 8=FIX.4.4|9=129|35=X|34=303|49=BLODPENNA5|52=20150519-13:33:12.951|56=LVMDG|262=3a6566a3c2034e8f|268=1|279=0|269=B|55=COFX INDEX|271=39350|290=1|10=118|
20150519-13:33:12.802: 8=FIX.4.4|9=131|35=X|34=304|49=BLODPENNA5|52=20150519-13:33:12.952|56=LVMDG|262=3a6566a3c2034e8f|268=1|279=0|269=5|55=COFX INDEX|270=2442.95|290=1|10=199|
20150519-13:33:12.804: 8=FIX.4.4|9=161|35=X|34=305|49=BLODPENNA5|52=20150519-13:33:12.954|56=LVMDG|262=3a6566a3c2034e8f|268=2|279=0|269=A|55=COFX INDEX|290=1|811=25.95|279=0|269=G|55=COFX INDEX|58= +|10=018|
20150519-13:33:12.836: 8=FIX.4.4|9=129|35=X|34=306|49=BLODPENNA5|52=20150519-13:33:12.987|56=LVMDG|262=3a6566a3c2034e8f|268=1|279=0|269=B|55=COFX INDEX|271=39850|290=1|10=135|
20150519-13:33:12.836: 8=FIX.4.4|9=161|35=X|34=307|49=BLODPENNA5|52=20150519-13:33:12.987|56=LVMDG|262=3a6566a3c2034e8f|268=2|279=0|269=A|55=COFX INDEX|290=1|811=25.95|279=0|269=G|55=COFX INDEX|58= +|10=026|
20150519-13:33:12.867: 8=FIX.4.4|9=161|35=X|34=308|49=BLODPENNA5|52=20150519-13:33:13.017|56=LVMDG|262=3a6566a3c2034e8f|268=2|279=0|269=A|55=COFX INDEX|290=1|811=25.95|279=0|269=G|55=COFX INDEX|58= +|10=012|
20150519-13:33:12.868: 8=FIX.4.4|9=129|35=X|34=309|49=BLODPENNA5|52=20150519-13:33:13.018|56=LVMDG|262=3a6566a3c2034e8f|268=1|279=0|269=B|55=COFX INDEX|271=40100|290=1|10=104|
20150519-13:33:13.120: 8=FIX.4.4|9=129|35=X|34=310|49=BLODPENNA5|52=20150519-13:33:13.268|56=LVMDG|262=3a6566a3c2034e8f|268=1|279=0|269=B|55=COFX INDEX|271=40850|290=1|10=115|
20150519-13:33:13.120: 8=FIX.4.4|9=129|35=X|34=311|49=BLODPENNA5|52=20150519-13:33:13.269|56=LVMDG|262=3a6566a3c2034e8f|268=1|279=0|269=B|55=COFX INDEX|271=40850|290=1|10=117|
20150519-13:33:13.120: 8=FIX.4.4|9=129|35=X|34=312|49=BLODPENNA5|52=20150519-13:33:13.269|56=LVMDG|262=3a6566a3c2034e8f|268=1|279=0|269=B|55=COFX INDEX|271=40850|290=1|10=118|
20150519-13:33:13.120: 8=FIX.4.4|9=158|35=X|34=313|49=BLODPENNA5|52=20150519-13:33:13.270|56=LVMDG|262=3a6566a3c2034e8f|268=2|279=0|269=A|55=COFX INDEX|290=1|811=26|279=0|269=G|55=COFX INDEX|58= +|10=116|
20150519-13:33:13.121: 8=FIX.4.4|9=158|35=X|34=314|49=BLODPENNA5|52=20150519-13:33:13.270|56=LVMDG|262=3a6566a3c2034e8f|268=2|279=0|269=A|55=COFX INDEX|290=1|811=26|279=0|269=G|55=COFX INDEX|58= +|10=117|
20150519-13:33:13.129: 8=FIX.4.4|9=158|35=X|34=315|49=BLODPENNA5|52=20150519-13:33:13.270|56=LVMDG|262=3a6566a3c2034e8f|268=2|279=0|269=A|55=COFX INDEX|290=1|811=26|279=0|269=G|55=COFX INDEX|58= +|10=118|
20150519-13:33:13.130: 8=FIX.4.4|9=128|35=X|34=316|49=BLODPENNA5|52=20150519-13:33:13.270|56=LVMDG|262=3a6566a3c2034e8f|268=1|279=0|269=5|55=COFX INDEX|270=2443|290=1|10=047|
20150519-13:33:13.185: 8=FIX.4.4|9=129|35=X|34=317|49=BLODPENNA5|52=20150519-13:33:13.332|56=LVMDG|262=3a6566a3c2034e8f|268=1|279=0|269=B|55=COFX INDEX|271=41850|290=1|10=115|
20150519-13:33:13.186: 8=FIX.4.4|9=131|35=X|34=318|49=BLODPENNA5|52=20150519-13:33:13.332|56=LVMDG|262=3a6566a3c2034e8f|268=1|279=0|269=5|55=COFX INDEX|270=2442.05|290=1|10=188|
20150519-13:33:13.186: 8=FIX.4.4|9=129|35=X|34=319|49=BLODPENNA5|52=20150519-13:33:13.333|56=LVMDG|262=3a6566a3c2034e8f|268=1|279=0|269=B|55=COFX INDEX|271=42100|290=1|10=107|
20150519-13:33:13.186: 8=FIX.4.4|9=161|35=X|34=320|49=BLODPENNA5|52=20150519-13:33:13.334|56=LVMDG|262=3a6566a3c2034e8f|268=2|279=0|269=A|55=COFX INDEX|290=1|811=25.05|279=0|269=G|55=COFX INDEX|58= +|10=255|
20150519-13:33:13.187: 8=FIX.4.4|9=161|35=X|34=321|49=BLODPENNA5|52=20150519-13:33:13.334|56=LVMDG|262=3a6566a3c2034e8f|268=2|279=0|269=A|55=COFX INDEX|290=1|811=25.05|279=0|269=G|55=COFX INDEX|58= +|10=000|
20150519-13:33:13.275: 8=FIX.4.4|9=128|35=X|34=322|49=BLODPENNA5|52=20150519-13:33:13.426|56=LVMDG|262=3a6566a3c2034e8f|268=1|279=0|269=5|55=COFX INDEX|270=2442|290=1|10=046|
20150519-13:33:13.275: 8=FIX.4.4|9=129|35=X|34=323|49=BLODPENNA5|52=20150519-13:33:13.427|56=LVMDG|262=3a6566a3c2034e8f|268=1|279=0|269=B|55=COFX INDEX|271=42600|290=1|10=111|
20150519-13:33:13.275: 8=FIX.4.4|9=158|35=X|34=324|49=BLODPENNA5|52=20150519-13:33:13.427|56=LVMDG|262=3a6566a3c2034e8f|268=2|279=0|269=A|55=COFX INDEX|290=1|811=25|279=0|269=G|55=COFX INDEX|58= +|10=121|
20150519-13:33:13.276: 8=FIX.4.4|9=131|35=X|34=325|49=BLODPENNA5|52=20150519-13:33:13.428|56=LVMDG|262=3a6566a3c2034e8f|268=1|279=0|269=5|55=COFX INDEX|270=2442.05|290=1|10=192|
20150519-13:33:13.279: 8=FIX.4.4|9=128|35=X|34=326|49=BLODPENNA5|52=20150519-13:33:13.428|56=LVMDG|262=3a6566a3c2034e8f|268=1|279=0|269=5|55=COFX INDEX|270=2442|290=1|10=052|
20150519-13:33:13.295: 8=FIX.4.4|9=129|35=X|34=327|49=BLODPENNA5|52=20150519-13:33:13.430|56=LVMDG|262=3a6566a3c2034e8f|268=1|279=0|269=B|55=COFX INDEX|271=44100|290=1|10=106|
20150519-13:33:13.299: 8=FIX.4.4|9=129|35=X|34=328|49=BLODPENNA5|52=20150519-13:33:13.431|56=LVMDG|262=3a6566a3c2034e8f|268=1|279=0|269=B|55=COFX INDEX|271=44100|290=1|10=108|
20150519-13:33:13.299: 8=FIX.4.4|9=129|35=X|34=329|49=BLODPENNA5|52=20150519-13:33:13.431|56=LVMDG|262=3a6566a3c2034e8f|268=1|279=0|269=B|55=COFX INDEX|271=44100|290=1|10=109|
20150519-13:33:13.303: 8=FIX.4.4|9=129|35=X|34=330|49=BLODPENNA5|52=20150519-13:33:13.432|56=LVMDG|262=3a6566a3c2034e8f|268=1|279=0|269=B|55=COFX INDEX|271=44100|290=1|10=102|
20150519-13:33:13.340: 8=FIX.4.4|9=158|35=X|34=331|49=BLODPENNA5|52=20150519-13:33:13.432|56=LVMDG|262=3a6566a3c2034e8f|268=2|279=0|269=A|55=COFX INDEX|290=1|811=25|279=0|269=G|55=COFX INDEX|58= +|10=115|
20150519-13:33:13.341: 8=FIX.4.4|9=158|35=X|34=332|49=BLODPENNA5|52=20150519-13:33:13.433|56=LVMDG|262=3a6566a3c2034e8f|268=2|279=0|269=A|55=COFX INDEX|290=1|811=25|279=0|269=G|55=COFX INDEX|58= +|10=117|
20150519-13:33:13.341: 8=FIX.4.4|9=158|35=X|34=333|49=BLODPENNA5|52=20150519-13:33:13.433|56=LVMDG|262=3a6566a3c2034e8f|268=2|279=0|269=A|55=COFX INDEX|290=1|811=25|279=0|269=G|55=COFX INDEX|58= +|10=118|
20150519-13:33:13.341: 8=FIX.4.4|9=158|35=X|34=334|49=BLODPENNA5|52=20150519-13:33:13.433|56=LVMDG|262=3a6566a3c2034e8f|268=2|279=0|269=A|55=COFX INDEX|290=1|811=25|279=0|269=G|55=COFX INDEX|58= +|10=119|
20150519-13:33:13.341: 8=FIX.4.4|9=158|35=X|34=335|49=BLODPENNA5|52=20150519-13:33:13.457|56=LVMDG|262=3a6566a3c2034e8f|268=2|279=0|269=A|55=COFX INDEX|290=1|811=26|279=0|269=G|55=COFX INDEX|58= +|10=127|
20150519-13:33:13.341: 8=FIX.4.4|9=128|35=X|34=336|49=BLODPENNA5|52=20150519-13:33:13.458|56=LVMDG|262=3a6566a3c2034e8f|268=1|279=0|269=5|55=COFX INDEX|270=2443|290=1|10=057|
20150519-13:33:13.341: 8=FIX.4.4|9=129|35=X|34=337|49=BLODPENNA5|52=20150519-13:33:13.458|56=LVMDG|262=3a6566a3c2034e8f|268=1|279=0|269=B|55=COFX INDEX|271=44350|290=1|10=124|
20150519-13:33:13.342: 8=FIX.4.4|9=129|35=X|34=338|49=BLODPENNA5|52=20150519-13:33:13.458|56=LVMDG|262=3a6566a3c2034e8f|268=1|279=0|269=B|55=COFX INDEX|271=44600|290=1|10=123|
20150519-13:33:13.349: 8=FIX.4.4|9=160|35=X|34=339|49=BLODPENNA5|52=20150519-13:33:13.459|56=LVMDG|262=3a6566a3c2034e8f|268=2|279=0|269=A|55=COFX INDEX|290=1|811=25.5|279=0|269=G|55=COFX INDEX|58= +|10=224|
20150519-13:33:13.349: 8=FIX.4.4|9=130|35=X|34=340|49=BLODPENNA5|52=20150519-13:33:13.459|56=LVMDG|262=3a6566a3c2034e8f|268=1|279=0|269=5|55=COFX INDEX|270=2442.5|290=1|10=144|
20150519-13:33:13.352: 8=FIX.4.4|9=129|35=X|34=341|49=BLODPENNA5|52=20150519-13:33:13.486|56=LVMDG|262=3a6566a3c2034e8f|268=1|279=0|269=B|55=COFX INDEX|271=44850|290=1|10=125|
20150519-13:33:13.352: 8=FIX.4.4|9=160|35=X|34=342|49=BLODPENNA5|52=20150519-13:33:13.487|56=LVMDG|262=3a6566a3c2034e8f|268=2|279=0|269=A|55=COFX INDEX|290=1|811=25.5|279=0|269=G|55=COFX INDEX|58= +|10=219|
20150519-13:33:13.360: 8=FIX.4.4|9=158|35=X|34=343|49=BLODPENNA5|52=20150519-13:33:13.505|56=LVMDG|262=3a6566a3c2034e8f|268=2|279=0|269=A|55=COFX INDEX|290=1|811=26|279=0|269=G|55=COFX INDEX|58= +|10=120|
20150519-13:33:13.360: 8=FIX.4.4|9=129|35=X|34=344|49=BLODPENNA5|52=20150519-13:33:13.505|56=LVMDG|262=3a6566a3c2034e8f|268=1|279=0|269=B|55=COFX INDEX|271=45100|290=1|10=109|
20150519-13:33:13.369: 8=FIX.4.4|9=128|35=X|34=345|49=BLODPENNA5|52=20150519-13:33:13.506|56=LVMDG|262=3a6566a3c2034e8f|268=1|279=0|269=5|55=COFX INDEX|270=2443|290=1|10=051|
20150519-13:33:13.391: 8=FIX.4.4|9=129|35=X|34=346|49=BLODPENNA5|52=20150519-13:33:13.540|56=LVMDG|262=3a6566a3c2034e8f|268=1|279=0|269=B|55=COFX INDEX|271=45600|290=1|10=115|
20150519-13:33:13.391: 8=FIX.4.4|9=158|35=X|34=347|49=BLODPENNA5|52=20150519-13:33:13.540|56=LVMDG|262=3a6566a3c2034e8f|268=2|279=0|269=A|55=COFX INDEX|290=1|811=26|279=0|269=G|55=COFX INDEX|58= +|10=123|
20150519-13:33:13.460: 8=FIX.4.4|9=160|35=X|34=348|49=BLODPENNA5|52=20150519-13:33:13.578|56=LVMDG|262=3a6566a3c2034e8f|268=2|279=0|269=A|55=COFX INDEX|290=1|811=26.5|279=0|269=G|55=COFX INDEX|58= +|10=227|
20150519-13:33:13.460: 8=FIX.4.4|9=129|35=X|34=349|49=BLODPENNA5|52=20150519-13:33:13.579|56=LVMDG|262=3a6566a3c2034e8f|268=1|279=0|269=B|55=COFX INDEX|271=45850|290=1|10=137|
20150519-13:33:13.461: 8=FIX.4.4|9=130|35=X|34=350|49=BLODPENNA5|52=20150519-13:33:13.579|56=LVMDG|262=3a6566a3c2034e8f|268=1|279=0|269=5|55=COFX INDEX|270=2443.5|290=1|10=149|
20150519-13:33:13.464: 8=FIX.4.4|9=161|35=X|34=351|49=BLODPENNA5|52=20150519-13:33:13.615|56=LVMDG|262=3a6566a3c2034e8f|268=2|279=0|269=A|55=COFX INDEX|290=1|811=25.75|279=0|269=G|55=COFX INDEX|58= +|10=012|
20150519-13:33:13.471: 8=FIX.4.4|9=131|35=X|34=352|49=BLODPENNA5|52=20150519-13:33:13.617|56=LVMDG|262=3a6566a3c2034e8f|268=1|279=0|269=5|55=COFX INDEX|270=2442.75|290=1|10=199|
20150519-13:33:13.471: 8=FIX.4.4|9=129|35=X|34=353|49=BLODPENNA5|52=20150519-13:33:13.619|56=LVMDG|262=3a6566a3c2034e8f|268=1|279=0|269=B|55=COFX INDEX|271=46100|290=1|10=116|
20150519-13:33:13.516: 8=FIX.4.4|9=129|35=X|34=354|49=BLODPENNA5|52=20150519-13:33:13.649|56=LVMDG|262=3a6566a3c2034e8f|268=1|279=0|269=B|55=COFX INDEX|271=48100|290=1|10=122|
20150519-13:33:13.530: 8=FIX.4.4|9=161|35=X|34=355|49=BLODPENNA5|52=20150519-13:33:13.681|56=LVMDG|262=3a6566a3c2034e8f|268=2|279=0|269=A|55=COFX INDEX|290=1|811=25.75|279=0|269=G|55=COFX INDEX|58= +|10=019|
20150519-13:33:13.538: 8=FIX.4.4|9=129|35=X|34=356|49=BLODPENNA5|52=20150519-13:33:13.685|56=LVMDG|262=3a6566a3c2034e8f|268=1|279=0|269=B|55=COFX INDEX|271=48600|290=1|10=129|
20150519-13:33:13.587: 8=FIX.4.4|9=161|35=X|34=357|49=BLODPENNA5|52=20150519-13:33:13.738|56=LVMDG|262=3a6566a3c2034e8f|268=2|279=0|269=A|55=COFX INDEX|290=1|811=25.75|279=0|269=G|55=COFX INDEX|58= +|10=024|
20150519-13:33:13.588: 8=FIX.4.4|9=129|35=X|34=358|49=BLODPENNA5|52=20150519-13:33:13.739|56=LVMDG|262=3a6566a3c2034e8f|268=1|279=0|269=B|55=COFX INDEX|271=49100|290=1|10=127|
20150519-13:33:13.602: 8=FIX.4.4|9=129|35=X|34=359|49=BLODPENNA5|52=20150519-13:33:13.754|56=LVMDG|262=3a6566a3c2034e8f|268=1|279=0|269=B|55=COFX INDEX|271=49350|290=1|10=132|
20150519-13:33:13.603: 8=FIX.4.4|9=158|35=X|34=360|49=BLODPENNA5|52=20150519-13:33:13.754|56=LVMDG|262=3a6566a3c2034e8f|268=2|279=0|269=A|55=COFX INDEX|290=1|811=26|279=0|269=G|55=COFX INDEX|58= +|10=125|
20150519-13:33:13.605: 8=FIX.4.4|9=128|35=X|34=361|49=BLODPENNA5|52=20150519-13:33:13.756|56=LVMDG|262=3a6566a3c2034e8f|268=1|279=0|269=5|55=COFX INDEX|270=2443|290=1|10=056|
20150519-13:33:13.642: 8=FIX.4.4|9=129|35=X|34=362|49=BLODPENNA5|52=20150519-13:33:13.792|56=LVMDG|262=3a6566a3c2034e8f|268=1|279=0|269=B|55=COFX INDEX|271=49600|290=1|10=126|
20150519-13:33:13.642: 8=FIX.4.4|9=160|35=X|34=363|49=BLODPENNA5|52=20150519-13:33:13.793|56=LVMDG|262=3a6566a3c2034e8f|268=2|279=0|269=A|55=COFX INDEX|290=1|811=26.3|279=0|269=G|55=COFX INDEX|58= +|10=221|
20150519-13:33:13.645: 8=FIX.4.4|9=130|35=X|34=364|49=BLODPENNA5|52=20150519-13:33:13.797|56=LVMDG|262=3a6566a3c2034e8f|268=1|279=0|269=5|55=COFX INDEX|270=2443.3|290=1|10=154|
20150519-13:33:13.684: 8=FIX.4.4|9=129|35=X|34=365|49=BLODPENNA5|52=20150519-13:33:13.835|56=LVMDG|262=3a6566a3c2034e8f|268=1|279=0|269=B|55=COFX INDEX|271=49850|290=1|10=134|
20150519-13:33:13.684: 8=FIX.4.4|9=161|35=X|34=366|49=BLODPENNA5|52=20150519-13:33:13.835|56=LVMDG|262=3a6566a3c2034e8f|268=2|279=0|269=A|55=COFX INDEX|290=1|811=26.25|279=0|269=G|55=COFX INDEX|58= +|10=018|
20150519-13:33:13.684: 8=FIX.4.4|9=131|35=X|34=367|49=BLODPENNA5|52=20150519-13:33:13.835|56=LVMDG|262=3a6566a3c2034e8f|268=1|279=0|269=5|55=COFX INDEX|270=2443.25|290=1|10=203|
20150519-13:33:13.716: 8=FIX.4.4|9=129|35=X|34=368|49=BLODPENNA5|52=20150519-13:33:13.851|56=LVMDG|262=3a6566a3c2034e8f|268=1|279=0|269=B|55=COFX INDEX|271=50350|290=1|10=122|
20150519-13:33:13.717: 8=FIX.4.4|9=131|35=X|34=369|49=BLODPENNA5|52=20150519-13:33:13.852|56=LVMDG|262=3a6566a3c2034e8f|268=1|279=0|269=5|55=COFX INDEX|270=2442.75|290=1|10=208|
20150519-13:33:13.717: 8=FIX.4.4|9=161|35=X|34=370|49=BLODPENNA5|52=20150519-13:33:13.852|56=LVMDG|262=3a6566a3c2034e8f|268=2|279=0|269=A|55=COFX INDEX|290=1|811=25.75|279=0|269=G|55=COFX INDEX|58= +|10=016|
20150519-13:33:13.753: 8=FIX.4.4|9=130|35=X|34=371|49=BLODPENNA5|52=20150519-13:33:13.896|56=LVMDG|262=3a6566a3c2034e8f|268=1|279=0|269=5|55=COFX INDEX|270=2443.5|290=1|10=154|
20150519-13:33:13.753: 8=FIX.4.4|9=160|35=X|34=372|49=BLODPENNA5|52=20150519-13:33:13.896|56=LVMDG|262=3a6566a3c2034e8f|268=2|279=0|269=A|55=COFX INDEX|290=1|811=26.5|279=0|269=G|55=COFX INDEX|58= +|10=227|
20150519-13:33:13.756: 8=FIX.4.4|9=129|35=X|34=373|49=BLODPENNA5|52=20150519-13:33:13.896|56=LVMDG|262=3a6566a3c2034e8f|268=1|279=0|269=B|55=COFX INDEX|271=50600|290=1|10=125|
20150519-13:33:13.784: 8=FIX.4.4|9=131|35=X|34=374|49=BLODPENNA5|52=20150519-13:33:13.928|56=LVMDG|262=3a6566a3c2034e8f|268=1|279=0|269=5|55=COFX INDEX|270=2443.85|290=1|10=210|
20150519-13:33:13.785: 8=FIX.4.4|9=161|35=X|34=375|49=BLODPENNA5|52=20150519-13:33:13.928|56=LVMDG|262=3a6566a3c2034e8f|268=2|279=0|269=A|55=COFX INDEX|290=1|811=26.85|279=0|269=G|55=COFX INDEX|58= +|10=027|
20150519-13:33:13.800: 8=FIX.4.4|9=129|35=X|34=376|49=BLODPENNA5|52=20150519-13:33:13.932|56=LVMDG|262=3a6566a3c2034e8f|268=1|279=0|269=B|55=COFX INDEX|271=51100|290=1|10=115|
20150519-13:33:13.808: 8=FIX.4.4|9=158|35=X|34=377|49=BLODPENNA5|52=20150519-13:33:13.953|56=LVMDG|262=3a6566a3c2034e8f|268=2|279=0|269=A|55=COFX INDEX|290=1|811=27|279=0|269=G|55=COFX INDEX|58= +|10=135|
20150519-13:33:13.808: 8=FIX.4.4|9=129|35=X|34=378|49=BLODPENNA5|52=20150519-13:33:13.954|56=LVMDG|262=3a6566a3c2034e8f|268=1|279=0|269=B|55=COFX INDEX|271=51600|290=1|10=126|
20150519-13:33:13.812: 8=FIX.4.4|9=128|35=X|34=379|49=BLODPENNA5|52=20150519-13:33:13.954|56=LVMDG|262=3a6566a3c2034e8f|268=1|279=0|269=5|55=COFX INDEX|270=2444|290=1|10=066|
20150519-13:33:14.043: 8=FIX.4.4|9=129|35=X|34=380|49=BLODPENNA5|52=20150519-13:33:14.195|56=LVMDG|262=3a6566a3c2034e8f|268=1|279=0|269=B|55=COFX INDEX|271=53850|290=1|10=126|
20150519-13:33:14.044: 8=FIX.4.4|9=129|35=X|34=381|49=BLODPENNA5|52=20150519-13:33:14.196|56=LVMDG|262=3a6566a3c2034e8f|268=1|279=0|269=B|55=COFX INDEX|271=54600|290=1|10=122|
20150519-13:33:14.045: 8=FIX.4.4|9=130|35=X|34=382|49=BLODPENNA5|52=20150519-13:33:14.196|56=LVMDG|262=3a6566a3c2034e8f|268=1|279=0|269=5|55=COFX INDEX|270=2444.2|290=1|10=148|
20150519-13:33:14.046: 8=FIX.4.4|9=130|35=X|34=383|49=BLODPENNA5|52=20150519-13:33:14.197|56=LVMDG|262=3a6566a3c2034e8f|268=1|279=0|269=5|55=COFX INDEX|270=2444.2|290=1|10=150|
20150519-13:33:14.052: 8=FIX.4.4|9=160|35=X|34=384|49=BLODPENNA5|52=20150519-13:33:14.198|56=LVMDG|262=3a6566a3c2034e8f|268=2|279=0|269=A|55=COFX INDEX|290=1|811=27.2|279=0|269=G|55=COFX INDEX|58= +|10=224|
20150519-13:33:14.055: 8=FIX.4.4|9=160|35=X|34=385|49=BLODPENNA5|52=20150519-13:33:14.199|56=LVMDG|262=3a6566a3c2034e8f|268=2|279=0|269=A|55=COFX INDEX|290=1|811=27.2|279=0|269=G|55=COFX INDEX|58= +|10=226|
20150519-13:33:14.056: 8=FIX.4.4|9=160|35=X|34=386|49=BLODPENNA5|52=20150519-13:33:14.199|56=LVMDG|262=3a6566a3c2034e8f|268=2|279=0|269=A|55=COFX INDEX|290=1|811=27.2|279=0|269=G|55=COFX INDEX|58= +|10=227|
20150519-13:33:14.056: 8=FIX.4.4|9=160|35=X|34=387|49=BLODPENNA5|52=20150519-13:33:14.199|56=LVMDG|262=3a6566a3c2034e8f|268=2|279=0|269=A|55=COFX INDEX|290=1|811=27.2|279=0|269=G|55=COFX INDEX|58= +|10=228|
20150519-13:33:14.059: 8=FIX.4.4|9=160|35=X|34=388|49=BLODPENNA5|52=20150519-13:33:14.199|56=LVMDG|262=3a6566a3c2034e8f|268=2|279=0|269=A|55=COFX INDEX|290=1|811=27.2|279=0|269=G|55=COFX INDEX|58= +|10=229|
20150519-13:33:14.092: 8=FIX.4.4|9=129|35=X|34=389|49=BLODPENNA5|52=20150519-13:33:14.201|56=LVMDG|262=3a6566a3c2034e8f|268=1|279=0|269=B|55=COFX INDEX|271=54600|290=1|10=117|
20150519-13:33:14.092: 8=FIX.4.4|9=129|35=X|34=390|49=BLODPENNA5|52=20150519-13:33:14.202|56=LVMDG|262=3a6566a3c2034e8f|268=1|279=0|269=B|55=COFX INDEX|271=54600|290=1|10=110|
20150519-13:33:14.100: 8=FIX.4.4|9=129|35=X|34=391|49=BLODPENNA5|52=20150519-13:33:14.202|56=LVMDG|262=3a6566a3c2034e8f|268=1|279=0|269=B|55=COFX INDEX|271=54600|290=1|10=111|
20150519-13:33:14.100: 8=FIX.4.4|9=158|35=X|34=392|49=BLODPENNA5|52=20150519-13:33:14.203|56=LVMDG|262=3a6566a3c2034e8f|268=2|279=0|269=A|55=COFX INDEX|290=1|811=28|279=0|269=G|55=COFX INDEX|58= +|10=122|
20150519-13:33:14.100: 8=FIX.4.4|9=129|35=X|34=393|49=BLODPENNA5|52=20150519-13:33:14.203|56=LVMDG|262=3a6566a3c2034e8f|268=1|279=0|269=B|55=COFX INDEX|271=54600|290=1|10=114|
