20150520-11:16:08.224: 8=FIX.4.4|9=70|35=5|34=1|49=LVBSG|52=20150520-11:16:08.224|56=FROMADRXBOG_XNYSE_BETA|10=250|
20150520-11:16:09.152: 8=FIX.4.4|9=70|35=5|34=1|49=LVBSG|52=20150520-11:16:09.152|56=FROMADRXBOG_XNYSE_BETA|10=251|
20150520-11:16:09.175: 8=FIX.4.4|9=0164|35=5|49=FROMADRXBOG_XNYSE_BETA|56=LVBSG|34=1|52=20150520-11:16:09|58=00100000004crxi_1891- CODE: 1-200-5: Expecting Logon but got Logout: disconnecting immediately|10=090|
20150520-11:16:10.158: 8=FIX.4.4|9=88|35=A|34=1|49=LVBSG|52=20150520-11:16:10.158|56=FROMADRXBOG_XNYSE_BETA|98=0|108=60|141=Y|10=087|
20150520-11:16:10.162: 8=FIX.4.4|9=0084|35=A|49=FROMADRXBOG_XNYSE_BETA|56=LVBSG|34=1|52=20150520-11:16:10|98=0|108=60|141=Y|10=231|
20150520-11:17:00.990: 8=FIX.4.4|9=0094|35=1|49=FROMADRXBOG_XNYSE_BETA|56=LVBSG|34=2|52=20150520-11:17:00|112=Appia-20150520-11:17:00|10=212|
20150520-11:17:00.991: 8=FIX.4.4|9=98|35=0|34=2|49=LVBSG|52=20150520-11:17:00.991|56=FROMADRXBOG_XNYSE_BETA|112=Appia-20150520-11:17:00|10=072|
20150520-11:18:00.990: 8=FIX.4.4|9=0066|35=0|49=FROMADRXBOG_XNYSE_BETA|56=LVBSG|34=3|52=20150520-11:18:00|10=144|
20150520-11:18:01.151: 8=FIX.4.4|9=70|35=0|34=3|49=LVBSG|52=20150520-11:18:01.151|56=FROMADRXBOG_XNYSE_BETA|10=241|
20150520-11:19:00.990: 8=FIX.4.4|9=0066|35=0|49=FROMADRXBOG_XNYSE_BETA|56=LVBSG|34=4|52=20150520-11:19:00|10=146|
20150520-11:19:01.151: 8=FIX.4.4|9=70|35=0|34=4|49=LVBSG|52=20150520-11:19:01.151|56=FROMADRXBOG_XNYSE_BETA|10=243|
20150520-11:20:00.991: 8=FIX.4.4|9=0066|35=0|49=FROMADRXBOG_XNYSE_BETA|56=LVBSG|34=5|52=20150520-11:20:00|10=139|
20150520-11:20:01.151: 8=FIX.4.4|9=70|35=0|34=5|49=LVBSG|52=20150520-11:20:01.151|56=FROMADRXBOG_XNYSE_BETA|10=236|
20150520-11:21:00.992: 8=FIX.4.4|9=0066|35=0|49=FROMADRXBOG_XNYSE_BETA|56=LVBSG|34=6|52=20150520-11:21:00|10=141|
20150520-11:21:01.152: 8=FIX.4.4|9=70|35=0|34=6|49=LVBSG|52=20150520-11:21:01.152|56=FROMADRXBOG_XNYSE_BETA|10=239|
20150520-11:22:00.992: 8=FIX.4.4|9=0066|35=0|49=FROMADRXBOG_XNYSE_BETA|56=LVBSG|34=7|52=20150520-11:22:00|10=143|
20150520-11:22:02.151: 8=FIX.4.4|9=70|35=0|34=7|49=LVBSG|52=20150520-11:22:02.151|56=FROMADRXBOG_XNYSE_BETA|10=241|
20150520-11:23:00.992: 8=FIX.4.4|9=0066|35=0|49=FROMADRXBOG_XNYSE_BETA|56=LVBSG|34=8|52=20150520-11:23:00|10=145|
20150520-11:23:02.151: 8=FIX.4.4|9=70|35=0|34=8|49=LVBSG|52=20150520-11:23:02.151|56=FROMADRXBOG_XNYSE_BETA|10=243|
20150520-11:24:00.992: 8=FIX.4.4|9=0066|35=0|49=FROMADRXBOG_XNYSE_BETA|56=LVBSG|34=9|52=20150520-11:24:00|10=147|
20150520-11:24:02.151: 8=FIX.4.4|9=70|35=0|34=9|49=LVBSG|52=20150520-11:24:02.151|56=FROMADRXBOG_XNYSE_BETA|10=245|
20150520-11:25:00.992: 8=FIX.4.4|9=0067|35=0|49=FROMADRXBOG_XNYSE_BETA|56=LVBSG|34=10|52=20150520-11:25:00|10=189|
20150520-11:25:02.152: 8=FIX.4.4|9=71|35=0|34=10|49=LVBSG|52=20150520-11:25:02.152|56=FROMADRXBOG_XNYSE_BETA|10=032|
20150520-11:26:00.993: 8=FIX.4.4|9=0067|35=0|49=FROMADRXBOG_XNYSE_BETA|56=LVBSG|34=11|52=20150520-11:26:00|10=191|
20150520-11:26:03.151: 8=FIX.4.4|9=71|35=0|34=11|49=LVBSG|52=20150520-11:26:03.151|56=FROMADRXBOG_XNYSE_BETA|10=034|
20150520-11:27:00.995: 8=FIX.4.4|9=0067|35=0|49=FROMADRXBOG_XNYSE_BETA|56=LVBSG|34=12|52=20150520-11:27:00|10=193|
20150520-11:27:03.151: 8=FIX.4.4|9=71|35=0|34=12|49=LVBSG|52=20150520-11:27:03.151|56=FROMADRXBOG_XNYSE_BETA|10=036|
20150520-11:28:00.994: 8=FIX.4.4|9=0067|35=0|49=FROMADRXBOG_XNYSE_BETA|56=LVBSG|34=13|52=20150520-11:28:00|10=195|
20150520-11:28:03.152: 8=FIX.4.4|9=71|35=0|34=13|49=LVBSG|52=20150520-11:28:03.152|56=FROMADRXBOG_XNYSE_BETA|10=039|
20150520-11:29:00.994: 8=FIX.4.4|9=0067|35=0|49=FROMADRXBOG_XNYSE_BETA|56=LVBSG|34=14|52=20150520-11:29:00|10=197|
20150520-11:29:04.151: 8=FIX.4.4|9=71|35=0|34=14|49=LVBSG|52=20150520-11:29:04.151|56=FROMADRXBOG_XNYSE_BETA|10=041|
20150520-11:30:00.994: 8=FIX.4.4|9=0067|35=0|49=FROMADRXBOG_XNYSE_BETA|56=LVBSG|34=15|52=20150520-11:30:00|10=190|
20150520-11:30:04.151: 8=FIX.4.4|9=71|35=0|34=15|49=LVBSG|52=20150520-11:30:04.151|56=FROMADRXBOG_XNYSE_BETA|10=034|
20150520-11:31:00.995: 8=FIX.4.4|9=0067|35=0|49=FROMADRXBOG_XNYSE_BETA|56=LVBSG|34=16|52=20150520-11:31:00|10=192|
20150520-11:31:04.151: 8=FIX.4.4|9=71|35=0|34=16|49=LVBSG|52=20150520-11:31:04.151|56=FROMADRXBOG_XNYSE_BETA|10=036|
20150520-11:32:00.995: 8=FIX.4.4|9=0067|35=0|49=FROMADRXBOG_XNYSE_BETA|56=LVBSG|34=17|52=20150520-11:32:00|10=194|
20150520-11:32:04.152: 8=FIX.4.4|9=71|35=0|34=17|49=LVBSG|52=20150520-11:32:04.152|56=FROMADRXBOG_XNYSE_BETA|10=039|
20150520-11:33:00.995: 8=FIX.4.4|9=0067|35=0|49=FROMADRXBOG_XNYSE_BETA|56=LVBSG|34=18|52=20150520-11:33:00|10=196|
20150520-11:33:05.151: 8=FIX.4.4|9=71|35=0|34=18|49=LVBSG|52=20150520-11:33:05.151|56=FROMADRXBOG_XNYSE_BETA|10=041|
20150520-11:34:00.995: 8=FIX.4.4|9=0067|35=0|49=FROMADRXBOG_XNYSE_BETA|56=LVBSG|34=19|52=20150520-11:34:00|10=198|
20150520-11:34:05.152: 8=FIX.4.4|9=71|35=0|34=19|49=LVBSG|52=20150520-11:34:05.152|56=FROMADRXBOG_XNYSE_BETA|10=044|
20150520-11:35:00.996: 8=FIX.4.4|9=0067|35=0|49=FROMADRXBOG_XNYSE_BETA|56=LVBSG|34=20|52=20150520-11:35:00|10=191|
20150520-11:35:05.152: 8=FIX.4.4|9=71|35=0|34=20|49=LVBSG|52=20150520-11:35:05.152|56=FROMADRXBOG_XNYSE_BETA|10=037|
20150520-11:36:00.995: 8=FIX.4.4|9=0067|35=0|49=FROMADRXBOG_XNYSE_BETA|56=LVBSG|34=21|52=20150520-11:36:00|10=193|
20150520-11:36:06.151: 8=FIX.4.4|9=71|35=0|34=21|49=LVBSG|52=20150520-11:36:06.151|56=FROMADRXBOG_XNYSE_BETA|10=039|
20150520-11:37:00.995: 8=FIX.4.4|9=0067|35=0|49=FROMADRXBOG_XNYSE_BETA|56=LVBSG|34=22|52=20150520-11:37:00|10=195|
20150520-11:37:06.151: 8=FIX.4.4|9=71|35=0|34=22|49=LVBSG|52=20150520-11:37:06.151|56=FROMADRXBOG_XNYSE_BETA|10=041|
20150520-11:38:00.995: 8=FIX.4.4|9=0067|35=0|49=FROMADRXBOG_XNYSE_BETA|56=LVBSG|34=23|52=20150520-11:38:00|10=197|
20150520-11:38:06.152: 8=FIX.4.4|9=71|35=0|34=23|49=LVBSG|52=20150520-11:38:06.152|56=FROMADRXBOG_XNYSE_BETA|10=044|
20150520-11:39:00.995: 8=FIX.4.4|9=0067|35=0|49=FROMADRXBOG_XNYSE_BETA|56=LVBSG|34=24|52=20150520-11:39:00|10=199|
20150520-11:39:07.151: 8=FIX.4.4|9=71|35=0|34=24|49=LVBSG|52=20150520-11:39:07.151|56=FROMADRXBOG_XNYSE_BETA|10=046|
20150520-11:40:00.995: 8=FIX.4.4|9=0067|35=0|49=FROMADRXBOG_XNYSE_BETA|56=LVBSG|34=25|52=20150520-11:40:00|10=192|
20150520-11:40:07.151: 8=FIX.4.4|9=71|35=0|34=25|49=LVBSG|52=20150520-11:40:07.151|56=FROMADRXBOG_XNYSE_BETA|10=039|
20150520-11:41:00.995: 8=FIX.4.4|9=0067|35=0|49=FROMADRXBOG_XNYSE_BETA|56=LVBSG|34=26|52=20150520-11:41:00|10=194|
20150520-11:41:07.151: 8=FIX.4.4|9=71|35=0|34=26|49=LVBSG|52=20150520-11:41:07.151|56=FROMADRXBOG_XNYSE_BETA|10=041|
20150520-11:42:00.996: 8=FIX.4.4|9=0067|35=0|49=FROMADRXBOG_XNYSE_BETA|56=LVBSG|34=27|52=20150520-11:42:00|10=196|
20150520-11:42:07.151: 8=FIX.4.4|9=71|35=0|34=27|49=LVBSG|52=20150520-11:42:07.151|56=FROMADRXBOG_XNYSE_BETA|10=043|
20150520-11:43:00.996: 8=FIX.4.4|9=0067|35=0|49=FROMADRXBOG_XNYSE_BETA|56=LVBSG|34=28|52=20150520-11:43:00|10=198|
20150520-11:43:07.151: 8=FIX.4.4|9=71|35=0|34=28|49=LVBSG|52=20150520-11:43:07.151|56=FROMADRXBOG_XNYSE_BETA|10=045|
20150520-11:44:00.995: 8=FIX.4.4|9=0067|35=0|49=FROMADRXBOG_XNYSE_BETA|56=LVBSG|34=29|52=20150520-11:44:00|10=200|
20150520-11:44:07.151: 8=FIX.4.4|9=71|35=0|34=29|49=LVBSG|52=20150520-11:44:07.151|56=FROMADRXBOG_XNYSE_BETA|10=047|
20150520-11:45:00.996: 8=FIX.4.4|9=0067|35=0|49=FROMADRXBOG_XNYSE_BETA|56=LVBSG|34=30|52=20150520-11:45:00|10=193|
20150520-11:45:07.152: 8=FIX.4.4|9=71|35=0|34=30|49=LVBSG|52=20150520-11:45:07.152|56=FROMADRXBOG_XNYSE_BETA|10=041|
20150520-11:46:00.997: 8=FIX.4.4|9=0067|35=0|49=FROMADRXBOG_XNYSE_BETA|56=LVBSG|34=31|52=20150520-11:46:00|10=195|
20150520-11:46:08.152: 8=FIX.4.4|9=71|35=0|34=31|49=LVBSG|52=20150520-11:46:08.152|56=FROMADRXBOG_XNYSE_BETA|10=044|
20150520-11:47:00.998: 8=FIX.4.4|9=0067|35=0|49=FROMADRXBOG_XNYSE_BETA|56=LVBSG|34=32|52=20150520-11:47:00|10=197|
20150520-11:47:09.151: 8=FIX.4.4|9=71|35=0|34=32|49=LVBSG|52=20150520-11:47:09.151|56=FROMADRXBOG_XNYSE_BETA|10=046|
20150520-11:48:00.998: 8=FIX.4.4|9=0067|35=0|49=FROMADRXBOG_XNYSE_BETA|56=LVBSG|34=33|52=20150520-11:48:00|10=199|
20150520-11:48:09.151: 8=FIX.4.4|9=71|35=0|34=33|49=LVBSG|52=20150520-11:48:09.151|56=FROMADRXBOG_XNYSE_BETA|10=048|
20150520-11:49:00.996: 8=FIX.4.4|9=0067|35=0|49=FROMADRXBOG_XNYSE_BETA|56=LVBSG|34=34|52=20150520-11:49:00|10=201|
20150520-11:49:09.151: 8=FIX.4.4|9=71|35=0|34=34|49=LVBSG|52=20150520-11:49:09.151|56=FROMADRXBOG_XNYSE_BETA|10=050|
20150520-11:50:00.997: 8=FIX.4.4|9=0067|35=0|49=FROMADRXBOG_XNYSE_BETA|56=LVBSG|34=35|52=20150520-11:50:00|10=194|
20150520-11:50:09.151: 8=FIX.4.4|9=71|35=0|34=35|49=LVBSG|52=20150520-11:50:09.151|56=FROMADRXBOG_XNYSE_BETA|10=043|
20150520-11:51:00.997: 8=FIX.4.4|9=0067|35=0|49=FROMADRXBOG_XNYSE_BETA|56=LVBSG|34=36|52=20150520-11:51:00|10=196|
20150520-11:51:09.152: 8=FIX.4.4|9=71|35=0|34=36|49=LVBSG|52=20150520-11:51:09.152|56=FROMADRXBOG_XNYSE_BETA|10=046|
20150520-11:52:00.997: 8=FIX.4.4|9=0067|35=0|49=FROMADRXBOG_XNYSE_BETA|56=LVBSG|34=37|52=20150520-11:52:00|10=198|
20150520-11:52:09.152: 8=FIX.4.4|9=71|35=0|34=37|49=LVBSG|52=20150520-11:52:09.152|56=FROMADRXBOG_XNYSE_BETA|10=048|
20150520-11:53:00.997: 8=FIX.4.4|9=0067|35=0|49=FROMADRXBOG_XNYSE_BETA|56=LVBSG|34=38|52=20150520-11:53:00|10=200|
20150520-11:53:10.152: 8=FIX.4.4|9=71|35=0|34=38|49=LVBSG|52=20150520-11:53:10.152|56=FROMADRXBOG_XNYSE_BETA|10=042|
20150520-11:54:00.998: 8=FIX.4.4|9=0067|35=0|49=FROMADRXBOG_XNYSE_BETA|56=LVBSG|34=39|52=20150520-11:54:00|10=202|
20150520-11:54:10.152: 8=FIX.4.4|9=71|35=0|34=39|49=LVBSG|52=20150520-11:54:10.152|56=FROMADRXBOG_XNYSE_BETA|10=044|
20150520-11:55:00.998: 8=FIX.4.4|9=0067|35=0|49=FROMADRXBOG_XNYSE_BETA|56=LVBSG|34=40|52=20150520-11:55:00|10=195|
20150520-11:55:11.151: 8=FIX.4.4|9=71|35=0|34=40|49=LVBSG|52=20150520-11:55:11.151|56=FROMADRXBOG_XNYSE_BETA|10=037|
20150520-11:56:00.998: 8=FIX.4.4|9=0067|35=0|49=FROMADRXBOG_XNYSE_BETA|56=LVBSG|34=41|52=20150520-11:56:00|10=197|
20150520-11:56:11.151: 8=FIX.4.4|9=71|35=0|34=41|49=LVBSG|52=20150520-11:56:11.151|56=FROMADRXBOG_XNYSE_BETA|10=039|
20150520-11:57:00.997: 8=FIX.4.4|9=0067|35=0|49=FROMADRXBOG_XNYSE_BETA|56=LVBSG|34=42|52=20150520-11:57:00|10=199|
20150520-11:57:11.152: 8=FIX.4.4|9=71|35=0|34=42|49=LVBSG|52=20150520-11:57:11.152|56=FROMADRXBOG_XNYSE_BETA|10=042|
20150520-11:58:01.002: 8=FIX.4.4|9=0067|35=0|49=FROMADRXBOG_XNYSE_BETA|56=LVBSG|34=43|52=20150520-11:58:00|10=201|
20150520-11:58:12.151: 8=FIX.4.4|9=71|35=0|34=43|49=LVBSG|52=20150520-11:58:12.151|56=FROMADRXBOG_XNYSE_BETA|10=044|
20150520-11:59:01.009: 8=FIX.4.4|9=0067|35=0|49=FROMADRXBOG_XNYSE_BETA|56=LVBSG|34=44|52=20150520-11:59:00|10=203|
20150520-11:59:12.152: 8=FIX.4.4|9=71|35=0|34=44|49=LVBSG|52=20150520-11:59:12.152|56=FROMADRXBOG_XNYSE_BETA|10=047|
20150520-12:00:00.999: 8=FIX.4.4|9=0067|35=0|49=FROMADRXBOG_XNYSE_BETA|56=LVBSG|34=45|52=20150520-12:00:00|10=191|
20150520-12:00:13.151: 8=FIX.4.4|9=71|35=0|34=45|49=LVBSG|52=20150520-12:00:13.151|56=FROMADRXBOG_XNYSE_BETA|10=035|
20150520-12:01:01.000: 8=FIX.4.4|9=0067|35=0|49=FROMADRXBOG_XNYSE_BETA|56=LVBSG|34=46|52=20150520-12:01:01|10=194|
20150520-12:01:13.151: 8=FIX.4.4|9=71|35=0|34=46|49=LVBSG|52=20150520-12:01:13.151|56=FROMADRXBOG_XNYSE_BETA|10=037|
20150520-12:02:01.000: 8=FIX.4.4|9=0067|35=0|49=FROMADRXBOG_XNYSE_BETA|56=LVBSG|34=47|52=20150520-12:02:01|10=196|
20150520-12:02:13.151: 8=FIX.4.4|9=71|35=0|34=47|49=LVBSG|52=20150520-12:02:13.151|56=FROMADRXBOG_XNYSE_BETA|10=039|
20150520-12:03:01.001: 8=FIX.4.4|9=0067|35=0|49=FROMADRXBOG_XNYSE_BETA|56=LVBSG|34=48|52=20150520-12:03:01|10=198|
20150520-12:03:13.152: 8=FIX.4.4|9=71|35=0|34=48|49=LVBSG|52=20150520-12:03:13.152|56=FROMADRXBOG_XNYSE_BETA|10=042|
20150520-12:04:01.000: 8=FIX.4.4|9=0067|35=0|49=FROMADRXBOG_XNYSE_BETA|56=LVBSG|34=49|52=20150520-12:04:01|10=200|
20150520-12:04:13.152: 8=FIX.4.4|9=71|35=0|34=49|49=LVBSG|52=20150520-12:04:13.152|56=FROMADRXBOG_XNYSE_BETA|10=044|
20150520-12:05:01.000: 8=FIX.4.4|9=0067|35=0|49=FROMADRXBOG_XNYSE_BETA|56=LVBSG|34=50|52=20150520-12:05:01|10=193|
20150520-12:05:13.152: 8=FIX.4.4|9=71|35=0|34=50|49=LVBSG|52=20150520-12:05:13.152|56=FROMADRXBOG_XNYSE_BETA|10=037|
20150520-12:06:01.000: 8=FIX.4.4|9=0067|35=0|49=FROMADRXBOG_XNYSE_BETA|56=LVBSG|34=51|52=20150520-12:06:01|10=195|
20150520-12:06:13.152: 8=FIX.4.4|9=71|35=0|34=51|49=LVBSG|52=20150520-12:06:13.152|56=FROMADRXBOG_XNYSE_BETA|10=039|
20150520-12:07:01.000: 8=FIX.4.4|9=0067|35=0|49=FROMADRXBOG_XNYSE_BETA|56=LVBSG|34=52|52=20150520-12:07:01|10=197|
20150520-12:07:14.151: 8=FIX.4.4|9=71|35=0|34=52|49=LVBSG|52=20150520-12:07:14.151|56=FROMADRXBOG_XNYSE_BETA|10=041|
20150520-12:08:01.000: 8=FIX.4.4|9=0067|35=0|49=FROMADRXBOG_XNYSE_BETA|56=LVBSG|34=53|52=20150520-12:08:01|10=199|
20150520-12:08:14.151: 8=FIX.4.4|9=71|35=0|34=53|49=LVBSG|52=20150520-12:08:14.151|56=FROMADRXBOG_XNYSE_BETA|10=043|
20150520-12:09:01.000: 8=FIX.4.4|9=0067|35=0|49=FROMADRXBOG_XNYSE_BETA|56=LVBSG|34=54|52=20150520-12:09:01|10=201|
20150520-12:09:14.152: 8=FIX.4.4|9=71|35=0|34=54|49=LVBSG|52=20150520-12:09:14.152|56=FROMADRXBOG_XNYSE_BETA|10=046|
20150520-12:10:01.000: 8=FIX.4.4|9=0067|35=0|49=FROMADRXBOG_XNYSE_BETA|56=LVBSG|34=55|52=20150520-12:10:01|10=194|
20150520-12:10:14.152: 8=FIX.4.4|9=71|35=0|34=55|49=LVBSG|52=20150520-12:10:14.152|56=FROMADRXBOG_XNYSE_BETA|10=039|
20150520-12:11:01.001: 8=FIX.4.4|9=0067|35=0|49=FROMADRXBOG_XNYSE_BETA|56=LVBSG|34=56|52=20150520-12:11:01|10=196|
20150520-12:11:15.151: 8=FIX.4.4|9=71|35=0|34=56|49=LVBSG|52=20150520-12:11:15.151|56=FROMADRXBOG_XNYSE_BETA|10=041|
20150520-12:12:01.000: 8=FIX.4.4|9=0067|35=0|49=FROMADRXBOG_XNYSE_BETA|56=LVBSG|34=57|52=20150520-12:12:01|10=198|
20150520-12:12:15.151: 8=FIX.4.4|9=71|35=0|34=57|49=LVBSG|52=20150520-12:12:15.151|56=FROMADRXBOG_XNYSE_BETA|10=043|
20150520-12:13:01.000: 8=FIX.4.4|9=0067|35=0|49=FROMADRXBOG_XNYSE_BETA|56=LVBSG|34=58|52=20150520-12:13:01|10=200|
20150520-12:13:15.151: 8=FIX.4.4|9=71|35=0|34=58|49=LVBSG|52=20150520-12:13:15.151|56=FROMADRXBOG_XNYSE_BETA|10=045|
20150520-12:14:01.000: 8=FIX.4.4|9=0067|35=0|49=FROMADRXBOG_XNYSE_BETA|56=LVBSG|34=59|52=20150520-12:14:01|10=202|
20150520-12:14:15.151: 8=FIX.4.4|9=71|35=0|34=59|49=LVBSG|52=20150520-12:14:15.151|56=FROMADRXBOG_XNYSE_BETA|10=047|
20150520-12:15:01.000: 8=FIX.4.4|9=0067|35=0|49=FROMADRXBOG_XNYSE_BETA|56=LVBSG|34=60|52=20150520-12:15:01|10=195|
20150520-12:15:15.151: 8=FIX.4.4|9=71|35=0|34=60|49=LVBSG|52=20150520-12:15:15.151|56=FROMADRXBOG_XNYSE_BETA|10=040|
20150520-12:16:01.000: 8=FIX.4.4|9=0067|35=0|49=FROMADRXBOG_XNYSE_BETA|56=LVBSG|34=61|52=20150520-12:16:01|10=197|
20150520-12:16:15.151: 8=FIX.4.4|9=71|35=0|34=61|49=LVBSG|52=20150520-12:16:15.151|56=FROMADRXBOG_XNYSE_BETA|10=042|
20150520-12:17:01.000: 8=FIX.4.4|9=0067|35=0|49=FROMADRXBOG_XNYSE_BETA|56=LVBSG|34=62|52=20150520-12:17:01|10=199|
20150520-12:17:15.151: 8=FIX.4.4|9=71|35=0|34=62|49=LVBSG|52=20150520-12:17:15.151|56=FROMADRXBOG_XNYSE_BETA|10=044|
20150520-12:18:01.000: 8=FIX.4.4|9=0067|35=0|49=FROMADRXBOG_XNYSE_BETA|56=LVBSG|34=63|52=20150520-12:18:01|10=201|
20150520-12:18:15.152: 8=FIX.4.4|9=71|35=0|34=63|49=LVBSG|52=20150520-12:18:15.152|56=FROMADRXBOG_XNYSE_BETA|10=047|
20150520-12:19:01.001: 8=FIX.4.4|9=0067|35=0|49=FROMADRXBOG_XNYSE_BETA|56=LVBSG|34=64|52=20150520-12:19:01|10=203|
20150520-12:19:16.152: 8=FIX.4.4|9=71|35=0|34=64|49=LVBSG|52=20150520-12:19:16.152|56=FROMADRXBOG_XNYSE_BETA|10=050|
20150520-12:20:01.002: 8=FIX.4.4|9=0067|35=0|49=FROMADRXBOG_XNYSE_BETA|56=LVBSG|34=65|52=20150520-12:20:01|10=196|
20150520-12:20:16.152: 8=FIX.4.4|9=71|35=0|34=65|49=LVBSG|52=20150520-12:20:16.152|56=FROMADRXBOG_XNYSE_BETA|10=043|
20150520-12:21:01.003: 8=FIX.4.4|9=0067|35=0|49=FROMADRXBOG_XNYSE_BETA|56=LVBSG|34=66|52=20150520-12:21:01|10=198|
20150520-12:21:17.152: 8=FIX.4.4|9=71|35=0|34=66|49=LVBSG|52=20150520-12:21:17.152|56=FROMADRXBOG_XNYSE_BETA|10=046|
20150520-12:22:01.002: 8=FIX.4.4|9=0067|35=0|49=FROMADRXBOG_XNYSE_BETA|56=LVBSG|34=67|52=20150520-12:22:01|10=200|
20150520-12:22:18.152: 8=FIX.4.4|9=71|35=0|34=67|49=LVBSG|52=20150520-12:22:18.152|56=FROMADRXBOG_XNYSE_BETA|10=049|
20150520-12:23:01.002: 8=FIX.4.4|9=0067|35=0|49=FROMADRXBOG_XNYSE_BETA|56=LVBSG|34=68|52=20150520-12:23:01|10=202|
20150520-12:23:19.151: 8=FIX.4.4|9=71|35=0|34=68|49=LVBSG|52=20150520-12:23:19.151|56=FROMADRXBOG_XNYSE_BETA|10=051|
20150520-12:24:01.003: 8=FIX.4.4|9=0067|35=0|49=FROMADRXBOG_XNYSE_BETA|56=LVBSG|34=69|52=20150520-12:24:01|10=204|
20150520-12:24:19.152: 8=FIX.4.4|9=71|35=0|34=69|49=LVBSG|52=20150520-12:24:19.152|56=FROMADRXBOG_XNYSE_BETA|10=054|
20150520-12:25:01.003: 8=FIX.4.4|9=0067|35=0|49=FROMADRXBOG_XNYSE_BETA|56=LVBSG|34=70|52=20150520-12:25:01|10=197|
20150520-12:25:19.152: 8=FIX.4.4|9=71|35=0|34=70|49=LVBSG|52=20150520-12:25:19.152|56=FROMADRXBOG_XNYSE_BETA|10=047|
20150520-12:26:01.004: 8=FIX.4.4|9=0067|35=0|49=FROMADRXBOG_XNYSE_BETA|56=LVBSG|34=71|52=20150520-12:26:01|10=199|
20150520-12:26:20.151: 8=FIX.4.4|9=71|35=0|34=71|49=LVBSG|52=20150520-12:26:20.151|56=FROMADRXBOG_XNYSE_BETA|10=040|
20150520-12:27:01.003: 8=FIX.4.4|9=0067|35=0|49=FROMADRXBOG_XNYSE_BETA|56=LVBSG|34=72|52=20150520-12:27:01|10=201|
20150520-12:27:20.152: 8=FIX.4.4|9=71|35=0|34=72|49=LVBSG|52=20150520-12:27:20.152|56=FROMADRXBOG_XNYSE_BETA|10=043|
20150520-12:28:01.004: 8=FIX.4.4|9=0067|35=0|49=FROMADRXBOG_XNYSE_BETA|56=LVBSG|34=73|52=20150520-12:28:01|10=203|
20150520-12:28:20.152: 8=FIX.4.4|9=71|35=0|34=73|49=LVBSG|52=20150520-12:28:20.152|56=FROMADRXBOG_XNYSE_BETA|10=045|
20150520-12:29:01.005: 8=FIX.4.4|9=0067|35=0|49=FROMADRXBOG_XNYSE_BETA|56=LVBSG|34=74|52=20150520-12:29:01|10=205|
20150520-12:29:20.152: 8=FIX.4.4|9=71|35=0|34=74|49=LVBSG|52=20150520-12:29:20.152|56=FROMADRXBOG_XNYSE_BETA|10=047|
20150520-12:30:01.003: 8=FIX.4.4|9=0067|35=0|49=FROMADRXBOG_XNYSE_BETA|56=LVBSG|34=75|52=20150520-12:30:01|10=198|
20150520-12:30:21.152: 8=FIX.4.4|9=71|35=0|34=75|49=LVBSG|52=20150520-12:30:21.152|56=FROMADRXBOG_XNYSE_BETA|10=041|
20150520-12:31:01.003: 8=FIX.4.4|9=0067|35=0|49=FROMADRXBOG_XNYSE_BETA|56=LVBSG|34=76|52=20150520-12:31:01|10=200|
20150520-12:31:22.151: 8=FIX.4.4|9=71|35=0|34=76|49=LVBSG|52=20150520-12:31:22.151|56=FROMADRXBOG_XNYSE_BETA|10=043|
20150520-12:32:01.003: 8=FIX.4.4|9=0067|35=0|49=FROMADRXBOG_XNYSE_BETA|56=LVBSG|34=77|52=20150520-12:32:01|10=202|
20150520-12:32:22.151: 8=FIX.4.4|9=71|35=0|34=77|49=LVBSG|52=20150520-12:32:22.151|56=FROMADRXBOG_XNYSE_BETA|10=045|
20150520-12:33:01.014: 8=FIX.4.4|9=0067|35=0|49=FROMADRXBOG_XNYSE_BETA|56=LVBSG|34=78|52=20150520-12:33:01|10=204|
20150520-12:33:22.151: 8=FIX.4.4|9=71|35=0|34=78|49=LVBSG|52=20150520-12:33:22.151|56=FROMADRXBOG_XNYSE_BETA|10=047|
20150520-12:34:01.005: 8=FIX.4.4|9=0067|35=0|49=FROMADRXBOG_XNYSE_BETA|56=LVBSG|34=79|52=20150520-12:34:01|10=206|
20150520-12:34:22.151: 8=FIX.4.4|9=71|35=0|34=79|49=LVBSG|52=20150520-12:34:22.151|56=FROMADRXBOG_XNYSE_BETA|10=049|
20150520-12:35:01.004: 8=FIX.4.4|9=0067|35=0|49=FROMADRXBOG_XNYSE_BETA|56=LVBSG|34=80|52=20150520-12:35:01|10=199|
20150520-12:35:22.151: 8=FIX.4.4|9=71|35=0|34=80|49=LVBSG|52=20150520-12:35:22.151|56=FROMADRXBOG_XNYSE_BETA|10=042|
20150520-12:36:01.004: 8=FIX.4.4|9=0067|35=0|49=FROMADRXBOG_XNYSE_BETA|56=LVBSG|34=81|52=20150520-12:36:01|10=201|
20150520-12:36:22.152: 8=FIX.4.4|9=71|35=0|34=81|49=LVBSG|52=20150520-12:36:22.152|56=FROMADRXBOG_XNYSE_BETA|10=045|
20150520-12:37:01.004: 8=FIX.4.4|9=0067|35=0|49=FROMADRXBOG_XNYSE_BETA|56=LVBSG|34=82|52=20150520-12:37:01|10=203|
20150520-12:37:22.152: 8=FIX.4.4|9=71|35=0|34=82|49=LVBSG|52=20150520-12:37:22.152|56=FROMADRXBOG_XNYSE_BETA|10=047|
20150520-12:38:01.005: 8=FIX.4.4|9=0067|35=0|49=FROMADRXBOG_XNYSE_BETA|56=LVBSG|34=83|52=20150520-12:38:01|10=205|
20150520-12:38:22.152: 8=FIX.4.4|9=71|35=0|34=83|49=LVBSG|52=20150520-12:38:22.152|56=FROMADRXBOG_XNYSE_BETA|10=049|
20150520-12:39:01.011: 8=FIX.4.4|9=0067|35=0|49=FROMADRXBOG_XNYSE_BETA|56=LVBSG|34=84|52=20150520-12:39:01|10=207|
20150520-12:39:22.152: 8=FIX.4.4|9=71|35=0|34=84|49=LVBSG|52=20150520-12:39:22.152|56=FROMADRXBOG_XNYSE_BETA|10=051|
20150520-12:40:01.005: 8=FIX.4.4|9=0067|35=0|49=FROMADRXBOG_XNYSE_BETA|56=LVBSG|34=85|52=20150520-12:40:01|10=200|
20150520-12:40:23.151: 8=FIX.4.4|9=71|35=0|34=85|49=LVBSG|52=20150520-12:40:23.151|56=FROMADRXBOG_XNYSE_BETA|10=044|
20150520-12:41:01.006: 8=FIX.4.4|9=0067|35=0|49=FROMADRXBOG_XNYSE_BETA|56=LVBSG|34=86|52=20150520-12:41:01|10=202|
20150520-12:41:23.152: 8=FIX.4.4|9=71|35=0|34=86|49=LVBSG|52=20150520-12:41:23.152|56=FROMADRXBOG_XNYSE_BETA|10=047|
20150520-12:42:01.006: 8=FIX.4.4|9=0067|35=0|49=FROMADRXBOG_XNYSE_BETA|56=LVBSG|34=87|52=20150520-12:42:01|10=204|
20150520-12:42:23.152: 8=FIX.4.4|9=71|35=0|34=87|49=LVBSG|52=20150520-12:42:23.152|56=FROMADRXBOG_XNYSE_BETA|10=049|
20150520-12:43:01.013: 8=FIX.4.4|9=0067|35=0|49=FROMADRXBOG_XNYSE_BETA|56=LVBSG|34=88|52=20150520-12:43:01|10=206|
20150520-12:43:23.152: 8=FIX.4.4|9=71|35=0|34=88|49=LVBSG|52=20150520-12:43:23.152|56=FROMADRXBOG_XNYSE_BETA|10=051|
20150520-12:44:01.006: 8=FIX.4.4|9=0067|35=0|49=FROMADRXBOG_XNYSE_BETA|56=LVBSG|34=89|52=20150520-12:44:01|10=208|
20150520-12:44:24.151: 8=FIX.4.4|9=71|35=0|34=89|49=LVBSG|52=20150520-12:44:24.151|56=FROMADRXBOG_XNYSE_BETA|10=053|
20150520-12:45:01.012: 8=FIX.4.4|9=0067|35=0|49=FROMADRXBOG_XNYSE_BETA|56=LVBSG|34=90|52=20150520-12:45:01|10=201|
20150520-12:45:24.152: 8=FIX.4.4|9=71|35=0|34=90|49=LVBSG|52=20150520-12:45:24.152|56=FROMADRXBOG_XNYSE_BETA|10=047|
20150520-12:46:01.007: 8=FIX.4.4|9=0067|35=0|49=FROMADRXBOG_XNYSE_BETA|56=LVBSG|34=91|52=20150520-12:46:01|10=203|
20150520-12:46:24.152: 8=FIX.4.4|9=71|35=0|34=91|49=LVBSG|52=20150520-12:46:24.152|56=FROMADRXBOG_XNYSE_BETA|10=049|
20150520-12:47:01.007: 8=FIX.4.4|9=0067|35=0|49=FROMADRXBOG_XNYSE_BETA|56=LVBSG|34=92|52=20150520-12:47:01|10=205|
20150520-12:47:25.151: 8=FIX.4.4|9=71|35=0|34=92|49=LVBSG|52=20150520-12:47:25.151|56=FROMADRXBOG_XNYSE_BETA|10=051|
20150520-12:48:01.010: 8=FIX.4.4|9=0067|35=0|49=FROMADRXBOG_XNYSE_BETA|56=LVBSG|34=93|52=20150520-12:48:01|10=207|
20150520-12:48:25.151: 8=FIX.4.4|9=71|35=0|34=93|49=LVBSG|52=20150520-12:48:25.151|56=FROMADRXBOG_XNYSE_BETA|10=053|
20150520-12:49:01.008: 8=FIX.4.4|9=0067|35=0|49=FROMADRXBOG_XNYSE_BETA|56=LVBSG|34=94|52=20150520-12:49:01|10=209|
20150520-12:49:25.151: 8=FIX.4.4|9=71|35=0|34=94|49=LVBSG|52=20150520-12:49:25.151|56=FROMADRXBOG_XNYSE_BETA|10=055|
20150520-12:50:01.008: 8=FIX.4.4|9=0067|35=0|49=FROMADRXBOG_XNYSE_BETA|56=LVBSG|34=95|52=20150520-12:50:01|10=202|
20150520-12:50:25.151: 8=FIX.4.4|9=71|35=0|34=95|49=LVBSG|52=20150520-12:50:25.151|56=FROMADRXBOG_XNYSE_BETA|10=048|
20150520-12:51:01.015: 8=FIX.4.4|9=0067|35=0|49=FROMADRXBOG_XNYSE_BETA|56=LVBSG|34=96|52=20150520-12:51:01|10=204|
20150520-12:51:25.151: 8=FIX.4.4|9=71|35=0|34=96|49=LVBSG|52=20150520-12:51:25.151|56=FROMADRXBOG_XNYSE_BETA|10=050|
20150520-12:52:01.010: 8=FIX.4.4|9=0067|35=0|49=FROMADRXBOG_XNYSE_BETA|56=LVBSG|34=97|52=20150520-12:52:01|10=206|
20150520-12:52:25.151: 8=FIX.4.4|9=71|35=0|34=97|49=LVBSG|52=20150520-12:52:25.151|56=FROMADRXBOG_XNYSE_BETA|10=052|
20150520-12:53:01.023: 8=FIX.4.4|9=0067|35=0|49=FROMADRXBOG_XNYSE_BETA|56=LVBSG|34=98|52=20150520-12:53:01|10=208|
20150520-12:53:25.151: 8=FIX.4.4|9=71|35=0|34=98|49=LVBSG|52=20150520-12:53:25.151|56=FROMADRXBOG_XNYSE_BETA|10=054|
20150520-12:54:01.011: 8=FIX.4.4|9=0067|35=0|49=FROMADRXBOG_XNYSE_BETA|56=LVBSG|34=99|52=20150520-12:54:01|10=210|
20150520-12:54:25.152: 8=FIX.4.4|9=71|35=0|34=99|49=LVBSG|52=20150520-12:54:25.152|56=FROMADRXBOG_XNYSE_BETA|10=057|
20150520-12:55:01.011: 8=FIX.4.4|9=0068|35=0|49=FROMADRXBOG_XNYSE_BETA|56=LVBSG|34=100|52=20150520-12:55:01|10=243|
20150520-12:55:25.152: 8=FIX.4.4|9=72|35=0|34=100|49=LVBSG|52=20150520-12:55:25.152|56=FROMADRXBOG_XNYSE_BETA|10=090|
20150520-12:56:01.016: 8=FIX.4.4|9=0068|35=0|49=FROMADRXBOG_XNYSE_BETA|56=LVBSG|34=101|52=20150520-12:56:01|10=245|
20150520-12:56:26.151: 8=FIX.4.4|9=72|35=0|34=101|49=LVBSG|52=20150520-12:56:26.151|56=FROMADRXBOG_XNYSE_BETA|10=092|
20150520-12:57:01.011: 8=FIX.4.4|9=0068|35=0|49=FROMADRXBOG_XNYSE_BETA|56=LVBSG|34=102|52=20150520-12:57:01|10=247|
20150520-12:57:26.151: 8=FIX.4.4|9=72|35=0|34=102|49=LVBSG|52=20150520-12:57:26.151|56=FROMADRXBOG_XNYSE_BETA|10=094|
20150520-12:58:01.013: 8=FIX.4.4|9=0068|35=0|49=FROMADRXBOG_XNYSE_BETA|56=LVBSG|34=103|52=20150520-12:58:01|10=249|
20150520-12:58:26.152: 8=FIX.4.4|9=72|35=0|34=103|49=LVBSG|52=20150520-12:58:26.152|56=FROMADRXBOG_XNYSE_BETA|10=097|
20150520-12:59:01.011: 8=FIX.4.4|9=0068|35=0|49=FROMADRXBOG_XNYSE_BETA|56=LVBSG|34=104|52=20150520-12:59:01|10=251|
20150520-12:59:26.152: 8=FIX.4.4|9=72|35=0|34=104|49=LVBSG|52=20150520-12:59:26.152|56=FROMADRXBOG_XNYSE_BETA|10=099|
20150520-13:00:01.012: 8=FIX.4.4|9=0068|35=0|49=FROMADRXBOG_XNYSE_BETA|56=LVBSG|34=105|52=20150520-13:00:01|10=239|
20150520-13:00:27.151: 8=FIX.4.4|9=72|35=0|34=105|49=LVBSG|52=20150520-13:00:27.151|56=FROMADRXBOG_XNYSE_BETA|10=087|
20150520-13:01:01.012: 8=FIX.4.4|9=0068|35=0|49=FROMADRXBOG_XNYSE_BETA|56=LVBSG|34=106|52=20150520-13:01:01|10=241|
20150520-13:01:27.151: 8=FIX.4.4|9=72|35=0|34=106|49=LVBSG|52=20150520-13:01:27.151|56=FROMADRXBOG_XNYSE_BETA|10=089|
20150520-13:02:01.012: 8=FIX.4.4|9=0068|35=0|49=FROMADRXBOG_XNYSE_BETA|56=LVBSG|34=107|52=20150520-13:02:01|10=243|
20150520-13:02:27.151: 8=FIX.4.4|9=72|35=0|34=107|49=LVBSG|52=20150520-13:02:27.151|56=FROMADRXBOG_XNYSE_BETA|10=091|
20150520-13:03:01.023: 8=FIX.4.4|9=0068|35=0|49=FROMADRXBOG_XNYSE_BETA|56=LVBSG|34=108|52=20150520-13:03:01|10=245|
20150520-13:03:27.152: 8=FIX.4.4|9=72|35=0|34=108|49=LVBSG|52=20150520-13:03:27.152|56=FROMADRXBOG_XNYSE_BETA|10=094|
20150520-13:04:01.014: 8=FIX.4.4|9=0068|35=0|49=FROMADRXBOG_XNYSE_BETA|56=LVBSG|34=109|52=20150520-13:04:01|10=247|
20150520-13:04:28.151: 8=FIX.4.4|9=72|35=0|34=109|49=LVBSG|52=20150520-13:04:28.151|56=FROMADRXBOG_XNYSE_BETA|10=096|
20150520-13:05:01.015: 8=FIX.4.4|9=0068|35=0|49=FROMADRXBOG_XNYSE_BETA|56=LVBSG|34=110|52=20150520-13:05:01|10=240|
20150520-13:05:28.151: 8=FIX.4.4|9=72|35=0|34=110|49=LVBSG|52=20150520-13:05:28.151|56=FROMADRXBOG_XNYSE_BETA|10=089|
20150520-13:06:01.014: 8=FIX.4.4|9=0068|35=0|49=FROMADRXBOG_XNYSE_BETA|56=LVBSG|34=111|52=20150520-13:06:01|10=242|
20150520-13:06:28.151: 8=FIX.4.4|9=72|35=0|34=111|49=LVBSG|52=20150520-13:06:28.151|56=FROMADRXBOG_XNYSE_BETA|10=091|
20150520-13:07:01.017: 8=FIX.4.4|9=0068|35=0|49=FROMADRXBOG_XNYSE_BETA|56=LVBSG|34=112|52=20150520-13:07:01|10=244|
20150520-13:07:28.345: 8=FIX.4.4|9=72|35=0|34=112|49=LVBSG|52=20150520-13:07:28.345|56=FROMADRXBOG_XNYSE_BETA|10=098|
20150520-13:08:01.016: 8=FIX.4.4|9=0068|35=0|49=FROMADRXBOG_XNYSE_BETA|56=LVBSG|34=113|52=20150520-13:08:01|10=246|
20150520-13:08:29.409: 8=FIX.4.4|9=72|35=0|34=113|49=LVBSG|52=20150520-13:08:29.409|56=FROMADRXBOG_XNYSE_BETA|10=102|
20150520-13:09:01.029: 8=FIX.4.4|9=0068|35=0|49=FROMADRXBOG_XNYSE_BETA|56=LVBSG|34=114|52=20150520-13:09:01|10=248|
20150520-13:09:30.470: 8=FIX.4.4|9=72|35=0|34=114|49=LVBSG|52=20150520-13:09:30.470|56=FROMADRXBOG_XNYSE_BETA|10=094|
20150520-13:10:01.022: 8=FIX.4.4|9=0068|35=0|49=FROMADRXBOG_XNYSE_BETA|56=LVBSG|34=115|52=20150520-13:10:01|10=241|
20150520-13:10:31.502: 8=FIX.4.4|9=72|35=0|34=115|49=LVBSG|52=20150520-13:10:31.502|56=FROMADRXBOG_XNYSE_BETA|10=084|
20150520-13:11:01.017: 8=FIX.4.4|9=0068|35=0|49=FROMADRXBOG_XNYSE_BETA|56=LVBSG|34=116|52=20150520-13:11:01|10=243|
20150520-13:11:32.541: 8=FIX.4.4|9=72|35=0|34=116|49=LVBSG|52=20150520-13:11:32.541|56=FROMADRXBOG_XNYSE_BETA|10=090|
20150520-13:12:01.019: 8=FIX.4.4|9=0068|35=0|49=FROMADRXBOG_XNYSE_BETA|56=LVBSG|34=117|52=20150520-13:12:01|10=245|
20150520-13:12:33.587: 8=FIX.4.4|9=72|35=0|34=117|49=LVBSG|52=20150520-13:12:33.587|56=FROMADRXBOG_XNYSE_BETA|10=103|
20150520-13:13:01.017: 8=FIX.4.4|9=0068|35=0|49=FROMADRXBOG_XNYSE_BETA|56=LVBSG|34=118|52=20150520-13:13:01|10=247|
20150520-13:13:34.638: 8=FIX.4.4|9=72|35=0|34=118|49=LVBSG|52=20150520-13:13:34.638|56=FROMADRXBOG_XNYSE_BETA|10=103|
20150520-13:14:01.022: 8=FIX.4.4|9=0068|35=0|49=FROMADRXBOG_XNYSE_BETA|56=LVBSG|34=119|52=20150520-13:14:01|10=249|
20150520-13:14:35.700: 8=FIX.4.4|9=72|35=0|34=119|49=LVBSG|52=20150520-13:14:35.700|56=FROMADRXBOG_XNYSE_BETA|10=096|
20150520-13:15:01.019: 8=FIX.4.4|9=0068|35=0|49=FROMADRXBOG_XNYSE_BETA|56=LVBSG|34=120|52=20150520-13:15:01|10=242|
20150520-13:15:36.738: 8=FIX.4.4|9=72|35=0|34=120|49=LVBSG|52=20150520-13:15:36.738|56=FROMADRXBOG_XNYSE_BETA|10=101|
20150520-13:16:01.018: 8=FIX.4.4|9=0068|35=0|49=FROMADRXBOG_XNYSE_BETA|56=LVBSG|34=121|52=20150520-13:16:01|10=244|
20150520-13:16:37.786: 8=FIX.4.4|9=72|35=0|34=121|49=LVBSG|52=20150520-13:16:37.786|56=FROMADRXBOG_XNYSE_BETA|10=107|
20150520-13:17:01.021: 8=FIX.4.4|9=0068|35=0|49=FROMADRXBOG_XNYSE_BETA|56=LVBSG|34=122|52=20150520-13:17:01|10=246|
20150520-13:17:38.831: 8=FIX.4.4|9=72|35=0|34=122|49=LVBSG|52=20150520-13:17:38.831|56=FROMADRXBOG_XNYSE_BETA|10=101|
20150520-13:18:01.019: 8=FIX.4.4|9=0068|35=0|49=FROMADRXBOG_XNYSE_BETA|56=LVBSG|34=123|52=20150520-13:18:01|10=248|
20150520-13:18:39.862: 8=FIX.4.4|9=72|35=0|34=123|49=LVBSG|52=20150520-13:18:39.862|56=FROMADRXBOG_XNYSE_BETA|10=108|
20150520-13:19:01.030: 8=FIX.4.4|9=0068|35=0|49=FROMADRXBOG_XNYSE_BETA|56=LVBSG|34=124|52=20150520-13:19:01|10=250|
20150520-13:19:40.898: 8=FIX.4.4|9=72|35=0|34=124|49=LVBSG|52=20150520-13:19:40.898|56=FROMADRXBOG_XNYSE_BETA|10=111|
20150520-13:20:01.020: 8=FIX.4.4|9=0068|35=0|49=FROMADRXBOG_XNYSE_BETA|56=LVBSG|34=125|52=20150520-13:20:01|10=243|
20150520-13:20:41.952: 8=FIX.4.4|9=72|35=0|34=125|49=LVBSG|52=20150520-13:20:41.952|56=FROMADRXBOG_XNYSE_BETA|10=096|
20150520-13:21:01.020: 8=FIX.4.4|9=0068|35=0|49=FROMADRXBOG_XNYSE_BETA|56=LVBSG|34=126|52=20150520-13:21:01|10=245|
20150520-13:21:43.005: 8=FIX.4.4|9=72|35=0|34=126|49=LVBSG|52=20150520-13:21:43.005|56=FROMADRXBOG_XNYSE_BETA|10=089|
20150520-13:22:01.020: 8=FIX.4.4|9=0068|35=0|49=FROMADRXBOG_XNYSE_BETA|56=LVBSG|34=127|52=20150520-13:22:01|10=247|
20150520-13:22:44.074: 8=FIX.4.4|9=72|35=0|34=127|49=LVBSG|52=20150520-13:22:44.074|56=FROMADRXBOG_XNYSE_BETA|10=098|
20150520-13:23:01.020: 8=FIX.4.4|9=0068|35=0|49=FROMADRXBOG_XNYSE_BETA|56=LVBSG|34=128|52=20150520-13:23:01|10=249|
20150520-13:23:45.123: 8=FIX.4.4|9=72|35=0|34=128|49=LVBSG|52=20150520-13:23:45.123|56=FROMADRXBOG_XNYSE_BETA|10=096|
20150520-13:24:01.020: 8=FIX.4.4|9=0068|35=0|49=FROMADRXBOG_XNYSE_BETA|56=LVBSG|34=129|52=20150520-13:24:01|10=251|
20150520-13:24:46.208: 8=FIX.4.4|9=72|35=0|34=129|49=LVBSG|52=20150520-13:24:46.208|56=FROMADRXBOG_XNYSE_BETA|10=103|
20150520-13:25:01.022: 8=FIX.4.4|9=0068|35=0|49=FROMADRXBOG_XNYSE_BETA|56=LVBSG|34=130|52=20150520-13:25:01|10=244|
20150520-13:25:47.151: 8=FIX.4.4|9=72|35=0|34=130|49=LVBSG|52=20150520-13:25:47.151|56=FROMADRXBOG_XNYSE_BETA|10=094|
20150520-13:26:01.020: 8=FIX.4.4|9=0068|35=0|49=FROMADRXBOG_XNYSE_BETA|56=LVBSG|34=131|52=20150520-13:26:01|10=246|
20150520-13:26:47.151: 8=FIX.4.4|9=72|35=0|34=131|49=LVBSG|52=20150520-13:26:47.151|56=FROMADRXBOG_XNYSE_BETA|10=096|
20150520-13:27:01.020: 8=FIX.4.4|9=0068|35=0|49=FROMADRXBOG_XNYSE_BETA|56=LVBSG|34=132|52=20150520-13:27:01|10=248|
20150520-13:27:47.151: 8=FIX.4.4|9=72|35=0|34=132|49=LVBSG|52=20150520-13:27:47.151|56=FROMADRXBOG_XNYSE_BETA|10=098|
20150520-13:28:01.019: 8=FIX.4.4|9=0068|35=0|49=FROMADRXBOG_XNYSE_BETA|56=LVBSG|34=133|52=20150520-13:28:01|10=250|
20150520-13:28:47.152: 8=FIX.4.4|9=72|35=0|34=133|49=LVBSG|52=20150520-13:28:47.152|56=FROMADRXBOG_XNYSE_BETA|10=101|
20150520-13:29:01.020: 8=FIX.4.4|9=0068|35=0|49=FROMADRXBOG_XNYSE_BETA|56=LVBSG|34=134|52=20150520-13:29:01|10=252|
20150520-13:29:48.151: 8=FIX.4.4|9=72|35=0|34=134|49=LVBSG|52=20150520-13:29:48.151|56=FROMADRXBOG_XNYSE_BETA|10=103|
20150520-13:30:01.020: 8=FIX.4.4|9=0068|35=0|49=FROMADRXBOG_XNYSE_BETA|56=LVBSG|34=135|52=20150520-13:30:01|10=245|
20150520-13:30:48.160: 8=FIX.4.4|9=72|35=0|34=135|49=LVBSG|52=20150520-13:30:48.160|56=FROMADRXBOG_XNYSE_BETA|10=096|
20150520-13:31:01.091: 8=FIX.4.4|9=0068|35=0|49=FROMADRXBOG_XNYSE_BETA|56=LVBSG|34=136|52=20150520-13:31:01|10=247|
20150520-13:31:48.169: 8=FIX.4.4|9=72|35=0|34=136|49=LVBSG|52=20150520-13:31:48.169|56=FROMADRXBOG_XNYSE_BETA|10=107|
20150520-13:32:01.021: 8=FIX.4.4|9=0068|35=0|49=FROMADRXBOG_XNYSE_BETA|56=LVBSG|34=137|52=20150520-13:32:01|10=249|
20150520-13:32:49.151: 8=FIX.4.4|9=72|35=0|34=137|49=LVBSG|52=20150520-13:32:49.151|56=FROMADRXBOG_XNYSE_BETA|10=101|
20150520-13:33:01.021: 8=FIX.4.4|9=0068|35=0|49=FROMADRXBOG_XNYSE_BETA|56=LVBSG|34=138|52=20150520-13:33:01|10=251|
20150520-13:33:49.152: 8=FIX.4.4|9=72|35=0|34=138|49=LVBSG|52=20150520-13:33:49.152|56=FROMADRXBOG_XNYSE_BETA|10=104|
20150520-13:34:01.026: 8=FIX.4.4|9=0068|35=0|49=FROMADRXBOG_XNYSE_BETA|56=LVBSG|34=139|52=20150520-13:34:01|10=253|
20150520-13:34:50.151: 8=FIX.4.4|9=72|35=0|34=139|49=LVBSG|52=20150520-13:34:50.151|56=FROMADRXBOG_XNYSE_BETA|10=097|
20150520-13:35:01.020: 8=FIX.4.4|9=0068|35=0|49=FROMADRXBOG_XNYSE_BETA|56=LVBSG|34=140|52=20150520-13:35:01|10=246|
20150520-13:35:50.151: 8=FIX.4.4|9=72|35=0|34=140|49=LVBSG|52=20150520-13:35:50.151|56=FROMADRXBOG_XNYSE_BETA|10=090|
20150520-13:36:01.020: 8=FIX.4.4|9=0068|35=0|49=FROMADRXBOG_XNYSE_BETA|56=LVBSG|34=141|52=20150520-13:36:01|10=248|
20150520-13:36:50.151: 8=FIX.4.4|9=72|35=0|34=141|49=LVBSG|52=20150520-13:36:50.151|56=FROMADRXBOG_XNYSE_BETA|10=092|
20150520-13:37:01.020: 8=FIX.4.4|9=0068|35=0|49=FROMADRXBOG_XNYSE_BETA|56=LVBSG|34=142|52=20150520-13:37:01|10=250|
20150520-13:37:50.151: 8=FIX.4.4|9=72|35=0|34=142|49=LVBSG|52=20150520-13:37:50.151|56=FROMADRXBOG_XNYSE_BETA|10=094|
20150520-13:38:01.020: 8=FIX.4.4|9=0068|35=0|49=FROMADRXBOG_XNYSE_BETA|56=LVBSG|34=143|52=20150520-13:38:01|10=252|
20150520-13:38:50.152: 8=FIX.4.4|9=72|35=0|34=143|49=LVBSG|52=20150520-13:38:50.152|56=FROMADRXBOG_XNYSE_BETA|10=097|
20150520-13:39:01.020: 8=FIX.4.4|9=0068|35=0|49=FROMADRXBOG_XNYSE_BETA|56=LVBSG|34=144|52=20150520-13:39:01|10=254|
20150520-13:39:50.153: 8=FIX.4.4|9=72|35=0|34=144|49=LVBSG|52=20150520-13:39:50.152|56=FROMADRXBOG_XNYSE_BETA|10=099|
20150520-13:40:01.019: 8=FIX.4.4|9=0068|35=0|49=FROMADRXBOG_XNYSE_BETA|56=LVBSG|34=145|52=20150520-13:40:01|10=247|
20150520-13:40:50.158: 8=FIX.4.4|9=72|35=0|34=145|49=LVBSG|52=20150520-13:40:50.158|56=FROMADRXBOG_XNYSE_BETA|10=098|
20150520-13:41:01.019: 8=FIX.4.4|9=0068|35=0|49=FROMADRXBOG_XNYSE_BETA|56=LVBSG|34=146|52=20150520-13:41:01|10=249|
20150520-13:41:51.151: 8=FIX.4.4|9=72|35=0|34=146|49=LVBSG|52=20150520-13:41:51.151|56=FROMADRXBOG_XNYSE_BETA|10=094|
20150520-13:42:01.022: 8=FIX.4.4|9=0068|35=0|49=FROMADRXBOG_XNYSE_BETA|56=LVBSG|34=147|52=20150520-13:42:01|10=251|
20150520-13:42:51.153: 8=FIX.4.4|9=72|35=0|34=147|49=LVBSG|52=20150520-13:42:51.153|56=FROMADRXBOG_XNYSE_BETA|10=098|
20150520-13:43:01.019: 8=FIX.4.4|9=0068|35=0|49=FROMADRXBOG_XNYSE_BETA|56=LVBSG|34=148|52=20150520-13:43:01|10=253|
20150520-13:43:52.152: 8=FIX.4.4|9=72|35=0|34=148|49=LVBSG|52=20150520-13:43:52.152|56=FROMADRXBOG_XNYSE_BETA|10=100|
20150520-13:44:01.019: 8=FIX.4.4|9=0068|35=0|49=FROMADRXBOG_XNYSE_BETA|56=LVBSG|34=149|52=20150520-13:44:01|10=255|
20150520-13:44:53.152: 8=FIX.4.4|9=72|35=0|34=149|49=LVBSG|52=20150520-13:44:53.152|56=FROMADRXBOG_XNYSE_BETA|10=103|
20150520-13:45:01.024: 8=FIX.4.4|9=0068|35=0|49=FROMADRXBOG_XNYSE_BETA|56=LVBSG|34=150|52=20150520-13:45:01|10=248|
20150520-13:45:54.152: 8=FIX.4.4|9=72|35=0|34=150|49=LVBSG|52=20150520-13:45:54.152|56=FROMADRXBOG_XNYSE_BETA|10=097|
20150520-13:46:01.022: 8=FIX.4.4|9=0068|35=0|49=FROMADRXBOG_XNYSE_BETA|56=LVBSG|34=151|52=20150520-13:46:01|10=250|
20150520-13:46:55.151: 8=FIX.4.4|9=72|35=0|34=151|49=LVBSG|52=20150520-13:46:55.151|56=FROMADRXBOG_XNYSE_BETA|10=099|
20150520-13:47:01.023: 8=FIX.4.4|9=0068|35=0|49=FROMADRXBOG_XNYSE_BETA|56=LVBSG|34=152|52=20150520-13:47:01|10=252|
20150520-13:47:01.023: 8=FIX.4.4|9=0068|35=0|49=FROMADRXBOG_XNYSE_BETA|56=LVBSG|34=153|52=20150520-13:47:01|10=253|
20150520-13:47:41.837: 8=FIX.4.4|9=277|35=D|34=152|49=LVBSG|50=QXP018914|52=20150520-13:47:41.837|56=FROMADRXBOG_XNYSE_BETA|57=FCST|128=FCHB|1=QXP018914|11=64da7045d9b44236|21=1|38=2000|40=2|44=14.97|54=1|55=EC|59=0|60=20150520-13:47:41.837|63=4|100=US|111=100|207=US|583=236291ae63c543f2|453=1|448=XPUS|447=D|452=1|10=119|
20150520-13:47:41.850: 8=FIX.4.4|9=0346|35=8|49=FROMADRXBOG_XNYSE_BETA|56=LVBSG|34=154|52=20150520-13:47:41|50=FCST|115=FCHB|57=QXP018914|1=QXP018914|207=US|6=0|11=64da7045d9b44236|14=0|17=-135e7b96c0b6b142|21=1|150=A|31=0|151=2000|32=0|100=US|38=2000|39=A|37=-7eab085b3700b9b0|583=236291ae63c543f2|40=2|44=14.97|55=EC|54=1|59=0|63=4|60=20150520-13:47:41.844|453=1|448=XPUS|447=D|452=1|10=060|
20150520-13:47:42.447: 8=FIX.4.4|9=0354|35=8|49=FROMADRXBOG_XNYSE_BETA|56=LVBSG|34=155|52=20150520-13:47:42|50=FCST|115=FCHB|57=QXP018914|1=QXP018914|207=US|6=0|11=64da7045d9b44236|14=0|17=LVSXFIX2-3854000001000002|21=1|150=0|31=0|151=2000|32=0|100=US|38=2000|39=0|37=-7eab085b3700b9b0|583=236291ae63c543f2|40=2|44=14.97|55=EC|54=1|59=0|63=4|60=20150520-13:47:42.432|453=1|448=XPUS|447=D|452=1|10=104|
20150520-13:48:01.241: 8=FIX.4.4|9=298|35=G|34=153|49=LVBSG|50=QXP018914|52=20150520-13:48:01.241|56=FROMADRXBOG_XNYSE_BETA|57=FCST|128=FCHB|1=QXP018914|11=-63cbde8ce272b7b3|21=1|38=2000|40=2|41=64da7045d9b44236|44=15.03|54=1|55=EC|59=0|60=20150520-13:48:01.241|63=4|100=US|111=100|207=US|583=236291ae63c543f2|453=1|448=XPUS|447=D|452=1|10=230|
20150520-13:48:01.256: 8=FIX.4.4|9=0366|35=8|49=FROMADRXBOG_XNYSE_BETA|56=LVBSG|34=156|52=20150520-13:48:01|50=FCST|115=FCHB|57=QXP018914|1=QXP018914|207=US|6=0|11=-63cbde8ce272b7b3|14=0|17=69c60f88a7724543|21=1|150=E|31=0|151=2000|32=0|100=US|38=2000|39=E|37=-7eab085b3700b9b0|583=236291ae63c543f2|40=2|41=64da7045d9b44236|44=15.03|55=EC|54=1|59=0|63=4|60=20150520-13:48:01.250|453=1|448=XPUS|447=D|452=1|10=069|
20150520-13:48:01.704: 8=FIX.4.4|9=0375|35=8|49=FROMADRXBOG_XNYSE_BETA|56=LVBSG|34=157|52=20150520-13:48:01|50=FCST|115=FCHB|57=QXP018914|1=QXP018914|207=US|6=0|11=-63cbde8ce272b7b3|14=0|17=LVSXFIX2-3854000001000005|21=1|150=5|31=0|151=2000|32=0|100=US|38=2000|39=0|37=-7eab085b3700b9b0|583=236291ae63c543f2|40=2|41=64da7045d9b44236|44=15.03|55=EC|54=1|59=0|63=4|60=20150520-13:48:01.699|453=1|448=XPUS|447=D|452=1|10=000|
20150520-13:48:06.044: 8=FIX.4.4|9=0387|35=8|49=FROMADRXBOG_XNYSE_BETA|56=LVBSG|34=158|52=20150520-13:48:06|50=FCST|115=FCHB|57=QXP018914|1=QXP018914|207=US|6=15.03|11=-63cbde8ce272b7b3|14=100|17=LVSXFIX2-3854000001000006|21=1|150=F|31=15.03|151=1900|32=100|100=US|38=2000|39=1|37=-7eab085b3700b9b0|583=236291ae63c543f2|40=2|41=64da7045d9b44236|44=15.03|55=EC|54=1|59=0|63=4|60=20150520-13:48:06.037|453=1|448=XPUS|447=D|452=1|10=107|
20150520-13:48:06.053: 8=FIX.4.4|9=0387|35=8|49=FROMADRXBOG_XNYSE_BETA|56=LVBSG|34=159|52=20150520-13:48:06|50=FCST|115=FCHB|57=QXP018914|1=QXP018914|207=US|6=15.03|11=-63cbde8ce272b7b3|14=200|17=LVSXFIX2-3854000001000007|21=1|150=F|31=15.03|151=1800|32=100|100=US|38=2000|39=1|37=-7eab085b3700b9b0|583=236291ae63c543f2|40=2|41=64da7045d9b44236|44=15.03|55=EC|54=1|59=0|63=4|60=20150520-13:48:06.042|453=1|448=XPUS|447=D|452=1|10=105|
20150520-13:48:20.158: 8=FIX.4.4|9=0387|35=8|49=FROMADRXBOG_XNYSE_BETA|56=LVBSG|34=160|52=20150520-13:48:20|50=FCST|115=FCHB|57=QXP018914|1=QXP018914|207=US|6=15.03|11=-63cbde8ce272b7b3|14=300|17=LVSXFIX2-3854000001000008|21=1|150=F|31=15.03|151=1700|32=100|100=US|38=2000|39=1|37=-7eab085b3700b9b0|583=236291ae63c543f2|40=2|41=64da7045d9b44236|44=15.03|55=EC|54=1|59=0|63=4|60=20150520-13:48:20.152|453=1|448=XPUS|447=D|452=1|10=092|
20150520-13:48:20.826: 8=FIX.4.4|9=0387|35=8|49=FROMADRXBOG_XNYSE_BETA|56=LVBSG|34=161|52=20150520-13:48:20|50=FCST|115=FCHB|57=QXP018914|1=QXP018914|207=US|6=15.03|11=-63cbde8ce272b7b3|14=400|17=LVSXFIX2-3854000001000009|21=1|150=F|31=15.03|151=1600|32=100|100=US|38=2000|39=1|37=-7eab085b3700b9b0|583=236291ae63c543f2|40=2|41=64da7045d9b44236|44=15.03|55=EC|54=1|59=0|63=4|60=20150520-13:48:20.816|453=1|448=XPUS|447=D|452=1|10=101|
20150520-13:48:25.591: 8=FIX.4.4|9=0387|35=8|49=FROMADRXBOG_XNYSE_BETA|56=LVBSG|34=162|52=20150520-13:48:25|50=FCST|115=FCHB|57=QXP018914|1=QXP018914|207=US|6=15.03|11=-63cbde8ce272b7b3|14=500|17=LVSXFIX2-385400000100000A|21=1|150=F|31=15.03|151=1500|32=100|100=US|38=2000|39=1|37=-7eab085b3700b9b0|583=236291ae63c543f2|40=2|41=64da7045d9b44236|44=15.03|55=EC|54=1|59=0|63=4|60=20150520-13:48:25.585|453=1|448=XPUS|447=D|452=1|10=123|
20150520-13:48:28.552: 8=FIX.4.4|9=0387|35=8|49=FROMADRXBOG_XNYSE_BETA|56=LVBSG|34=163|52=20150520-13:48:28|50=FCST|115=FCHB|57=QXP018914|1=QXP018914|207=US|6=15.03|11=-63cbde8ce272b7b3|14=600|17=LVSXFIX2-385400000100000B|21=1|150=F|31=15.03|151=1400|32=100|100=US|38=2000|39=1|37=-7eab085b3700b9b0|583=236291ae63c543f2|40=2|41=64da7045d9b44236|44=15.03|55=EC|54=1|59=0|63=4|60=20150520-13:48:28.545|453=1|448=XPUS|447=D|452=1|10=127|
20150520-13:48:29.098: 8=FIX.4.4|9=0387|35=8|49=FROMADRXBOG_XNYSE_BETA|56=LVBSG|34=164|52=20150520-13:48:29|50=FCST|115=FCHB|57=QXP018914|1=QXP018914|207=US|6=15.03|11=-63cbde8ce272b7b3|14=700|17=LVSXFIX2-385400000100000C|21=1|150=F|31=15.03|151=1300|32=100|100=US|38=2000|39=1|37=-7eab085b3700b9b0|583=236291ae63c543f2|40=2|41=64da7045d9b44236|44=15.03|55=EC|54=1|59=0|63=4|60=20150520-13:48:29.092|453=1|448=XPUS|447=D|452=1|10=128|
20150520-13:48:30.855: 8=FIX.4.4|9=0387|35=8|49=FROMADRXBOG_XNYSE_BETA|56=LVBSG|34=165|52=20150520-13:48:30|50=FCST|115=FCHB|57=QXP018914|1=QXP018914|207=US|6=15.03|11=-63cbde8ce272b7b3|14=800|17=LVSXFIX2-385400000100000D|21=1|150=F|31=15.03|151=1200|32=100|100=US|38=2000|39=1|37=-7eab085b3700b9b0|583=236291ae63c543f2|40=2|41=64da7045d9b44236|44=15.03|55=EC|54=1|59=0|63=4|60=20150520-13:48:30.849|453=1|448=XPUS|447=D|452=1|10=124|
20150520-13:48:30.861: 8=FIX.4.4|9=0388|35=8|49=FROMADRXBOG_XNYSE_BETA|56=LVBSG|34=166|52=20150520-13:48:30|50=FCST|115=FCHB|57=QXP018914|1=QXP018914|207=US|6=15.03|11=-63cbde8ce272b7b3|14=1000|17=LVSXFIX2-385400000100000E|21=1|150=F|31=15.03|151=1000|32=200|100=US|38=2000|39=1|37=-7eab085b3700b9b0|583=236291ae63c543f2|40=2|41=64da7045d9b44236|44=15.03|55=EC|54=1|59=0|63=4|60=20150520-13:48:30.857|453=1|448=XPUS|447=D|452=1|10=166|
20150520-13:48:31.509: 8=FIX.4.4|9=0387|35=8|49=FROMADRXBOG_XNYSE_BETA|56=LVBSG|34=167|52=20150520-13:48:31|50=FCST|115=FCHB|57=QXP018914|1=QXP018914|207=US|6=15.03|11=-63cbde8ce272b7b3|14=1100|17=LVSXFIX2-385400000100000F|21=1|150=F|31=15.03|151=900|32=100|100=US|38=2000|39=1|37=-7eab085b3700b9b0|583=236291ae63c543f2|40=2|41=64da7045d9b44236|44=15.03|55=EC|54=1|59=0|63=4|60=20150520-13:48:31.502|453=1|448=XPUS|447=D|452=1|10=116|
20150520-13:48:31.560: 8=FIX.4.4|9=0387|35=8|49=FROMADRXBOG_XNYSE_BETA|56=LVBSG|34=168|52=20150520-13:48:31|50=FCST|115=FCHB|57=QXP018914|1=QXP018914|207=US|6=15.03|11=-63cbde8ce272b7b3|14=1200|17=LVSXFIX2-385400000100000G|21=1|150=F|31=15.03|151=800|32=100|100=US|38=2000|39=1|37=-7eab085b3700b9b0|583=236291ae63c543f2|40=2|41=64da7045d9b44236|44=15.03|55=EC|54=1|59=0|63=4|60=20150520-13:48:31.550|453=1|448=XPUS|447=D|452=1|10=121|
20150520-13:48:31.562: 8=FIX.4.4|9=0391|35=8|49=FROMADRXBOG_XNYSE_BETA|56=LVBSG|34=169|52=20150520-13:48:31|50=FCST|115=FCHB|57=QXP018914|1=QXP018914|207=US|6=15.029231|11=-63cbde8ce272b7b3|14=1300|17=LVSXFIX2-385400000100000H|21=1|150=F|31=15.02|151=700|32=100|100=US|38=2000|39=1|37=-7eab085b3700b9b0|583=236291ae63c543f2|40=2|41=64da7045d9b44236|44=15.03|55=EC|54=1|59=0|63=4|60=20150520-13:48:31.551|453=1|448=XPUS|447=D|452=1|10=068|
20150520-13:48:31.578: 8=FIX.4.4|9=0391|35=8|49=FROMADRXBOG_XNYSE_BETA|56=LVBSG|34=170|52=20150520-13:48:31|50=FCST|115=FCHB|57=QXP018914|1=QXP018914|207=US|6=15.028571|11=-63cbde8ce272b7b3|14=1400|17=LVSXFIX2-385400000100000I|21=1|150=F|31=15.02|151=600|32=100|100=US|38=2000|39=1|37=-7eab085b3700b9b0|583=236291ae63c543f2|40=2|41=64da7045d9b44236|44=15.03|55=EC|54=1|59=0|63=4|60=20150520-13:48:31.561|453=1|448=XPUS|447=D|452=1|10=068|
20150520-13:48:31.583: 8=FIX.4.4|9=0389|35=8|49=FROMADRXBOG_XNYSE_BETA|56=LVBSG|34=171|52=20150520-13:48:31|50=FCST|115=FCHB|57=QXP018914|1=QXP018914|207=US|6=15.0275|11=-63cbde8ce272b7b3|14=1600|17=LVSXFIX2-385400000100000J|21=1|150=F|31=15.02|151=400|32=200|100=US|38=2000|39=1|37=-7eab085b3700b9b0|583=236291ae63c543f2|40=2|41=64da7045d9b44236|44=15.03|55=EC|54=1|59=0|63=4|60=20150520-13:48:31.571|453=1|448=XPUS|447=D|452=1|10=230|
20150520-13:48:31.587: 8=FIX.4.4|9=0391|35=8|49=FROMADRXBOG_XNYSE_BETA|56=LVBSG|34=172|52=20150520-13:48:31|50=FCST|115=FCHB|57=QXP018914|1=QXP018914|207=US|6=15.027647|11=-63cbde8ce272b7b3|14=1700|17=LVSXFIX2-385400000100000K|21=1|150=F|31=15.03|151=300|32=100|100=US|38=2000|39=1|37=-7eab085b3700b9b0|583=236291ae63c543f2|40=2|41=64da7045d9b44236|44=15.03|55=EC|54=1|59=0|63=4|60=20150520-13:48:31.575|453=1|448=XPUS|447=D|452=1|10=081|
20150520-13:48:31.663: 8=FIX.4.4|9=0391|35=8|49=FROMADRXBOG_XNYSE_BETA|56=LVBSG|34=173|52=20150520-13:48:31|50=FCST|115=FCHB|57=QXP018914|1=QXP018914|207=US|6=15.027895|11=-63cbde8ce272b7b3|14=1900|17=LVSXFIX2-385400000100000L|21=1|150=F|31=15.03|151=100|32=200|100=US|38=2000|39=1|37=-7eab085b3700b9b0|583=236291ae63c543f2|40=2|41=64da7045d9b44236|44=15.03|55=EC|54=1|59=0|63=4|60=20150520-13:48:31.656|453=1|448=XPUS|447=D|452=1|10=089|
20150520-13:48:31.682: 8=FIX.4.4|9=0386|35=8|49=FROMADRXBOG_XNYSE_BETA|56=LVBSG|34=174|52=20150520-13:48:31|50=FCST|115=FCHB|57=QXP018914|1=QXP018914|207=US|6=15.028|11=-63cbde8ce272b7b3|14=2000|17=LVSXFIX2-385400000100000M|21=1|150=F|31=15.03|151=0|32=100|100=US|38=2000|39=2|37=-7eab085b3700b9b0|583=236291ae63c543f2|40=2|41=64da7045d9b44236|44=15.03|55=EC|54=1|59=0|63=4|60=20150520-13:48:31.676|453=1|448=XPUS|447=D|452=1|10=083|
20150520-13:49:02.152: 8=FIX.4.4|9=72|35=0|34=154|49=LVBSG|52=20150520-13:49:02.152|56=FROMADRXBOG_XNYSE_BETA|10=098|
20150520-13:49:31.682: 8=FIX.4.4|9=0068|35=0|49=FROMADRXBOG_XNYSE_BETA|56=LVBSG|34=175|52=20150520-13:49:31|10=006|
20150520-13:50:03.151: 8=FIX.4.4|9=72|35=0|34=155|49=LVBSG|52=20150520-13:50:03.151|56=FROMADRXBOG_XNYSE_BETA|10=091|
20150520-13:50:31.683: 8=FIX.4.4|9=0068|35=0|49=FROMADRXBOG_XNYSE_BETA|56=LVBSG|34=176|52=20150520-13:50:31|10=255|
20150520-13:51:03.151: 8=FIX.4.4|9=72|35=0|34=156|49=LVBSG|52=20150520-13:51:03.151|56=FROMADRXBOG_XNYSE_BETA|10=093|
20150520-13:51:31.684: 8=FIX.4.4|9=0068|35=0|49=FROMADRXBOG_XNYSE_BETA|56=LVBSG|34=177|52=20150520-13:51:31|10=001|
20150520-13:52:03.151: 8=FIX.4.4|9=72|35=0|34=157|49=LVBSG|52=20150520-13:52:03.151|56=FROMADRXBOG_XNYSE_BETA|10=095|
20150520-13:52:31.684: 8=FIX.4.4|9=0068|35=0|49=FROMADRXBOG_XNYSE_BETA|56=LVBSG|34=178|52=20150520-13:52:31|10=003|
20150520-13:53:03.152: 8=FIX.4.4|9=72|35=0|34=158|49=LVBSG|52=20150520-13:53:03.152|56=FROMADRXBOG_XNYSE_BETA|10=098|
20150520-13:53:31.684: 8=FIX.4.4|9=0068|35=0|49=FROMADRXBOG_XNYSE_BETA|56=LVBSG|34=179|52=20150520-13:53:31|10=005|
20150520-13:54:03.174: 8=FIX.4.4|9=72|35=0|34=159|49=LVBSG|52=20150520-13:54:03.174|56=FROMADRXBOG_XNYSE_BETA|10=104|
20150520-13:54:31.684: 8=FIX.4.4|9=0068|35=0|49=FROMADRXBOG_XNYSE_BETA|56=LVBSG|34=180|52=20150520-13:54:31|10=254|
20150520-13:55:04.151: 8=FIX.4.4|9=72|35=0|34=160|49=LVBSG|52=20150520-13:55:04.151|56=FROMADRXBOG_XNYSE_BETA|10=093|
20150520-13:55:31.684: 8=FIX.4.4|9=0068|35=0|49=FROMADRXBOG_XNYSE_BETA|56=LVBSG|34=181|52=20150520-13:55:31|10=000|
20150520-13:56:04.152: 8=FIX.4.4|9=72|35=0|34=161|49=LVBSG|52=20150520-13:56:04.152|56=FROMADRXBOG_XNYSE_BETA|10=096|
20150520-13:56:31.684: 8=FIX.4.4|9=0068|35=0|49=FROMADRXBOG_XNYSE_BETA|56=LVBSG|34=182|52=20150520-13:56:31|10=002|
20150520-13:57:05.151: 8=FIX.4.4|9=72|35=0|34=162|49=LVBSG|52=20150520-13:57:05.151|56=FROMADRXBOG_XNYSE_BETA|10=098|
20150520-13:57:31.684: 8=FIX.4.4|9=0068|35=0|49=FROMADRXBOG_XNYSE_BETA|56=LVBSG|34=183|52=20150520-13:57:31|10=004|
20150520-13:58:05.151: 8=FIX.4.4|9=72|35=0|34=163|49=LVBSG|52=20150520-13:58:05.151|56=FROMADRXBOG_XNYSE_BETA|10=100|
20150520-13:58:31.685: 8=FIX.4.4|9=0068|35=0|49=FROMADRXBOG_XNYSE_BETA|56=LVBSG|34=184|52=20150520-13:58:31|10=006|
20150520-13:59:05.152: 8=FIX.4.4|9=72|35=0|34=164|49=LVBSG|52=20150520-13:59:05.152|56=FROMADRXBOG_XNYSE_BETA|10=103|
20150520-13:59:31.687: 8=FIX.4.4|9=0068|35=0|49=FROMADRXBOG_XNYSE_BETA|56=LVBSG|34=185|52=20150520-13:59:31|10=008|
20150520-14:00:06.152: 8=FIX.4.4|9=72|35=0|34=165|49=LVBSG|52=20150520-14:00:06.152|56=FROMADRXBOG_XNYSE_BETA|10=092|
20150520-14:00:31.687: 8=FIX.4.4|9=0068|35=0|49=FROMADRXBOG_XNYSE_BETA|56=LVBSG|34=186|52=20150520-14:00:31|10=252|
20150520-14:01:07.152: 8=FIX.4.4|9=72|35=0|34=166|49=LVBSG|52=20150520-14:01:07.152|56=FROMADRXBOG_XNYSE_BETA|10=095|
20150520-14:01:31.686: 8=FIX.4.4|9=0068|35=0|49=FROMADRXBOG_XNYSE_BETA|56=LVBSG|34=187|52=20150520-14:01:31|10=254|
20150520-14:02:07.152: 8=FIX.4.4|9=72|35=0|34=167|49=LVBSG|52=20150520-14:02:07.152|56=FROMADRXBOG_XNYSE_BETA|10=097|
20150520-14:02:31.686: 8=FIX.4.4|9=0068|35=0|49=FROMADRXBOG_XNYSE_BETA|56=LVBSG|34=188|52=20150520-14:02:31|10=000|
20150520-14:03:08.151: 8=FIX.4.4|9=72|35=0|34=168|49=LVBSG|52=20150520-14:03:08.151|56=FROMADRXBOG_XNYSE_BETA|10=099|
20150520-14:03:23.649: 8=FIX.4.4|9=277|35=D|34=169|49=LVBSG|50=QXP018914|52=20150520-14:03:23.649|56=FROMADRXBOG_XNYSE_BETA|57=FCST|128=FCHB|1=QXP018914|11=-14fa587f887cb176|21=1|38=1900|40=2|44=15.1|54=1|55=EC|59=0|60=20150520-14:03:23.649|63=4|100=US|111=100|207=US|583=236291ae63c543f2|453=1|448=XPUS|447=D|452=1|10=169|
20150520-14:03:23.662: 8=FIX.4.4|9=0345|35=8|49=FROMADRXBOG_XNYSE_BETA|56=LVBSG|34=189|52=20150520-14:03:23|50=FCST|115=FCHB|57=QXP018914|1=QXP018914|207=US|6=0|11=-14fa587f887cb176|14=0|17=-72fff49689afbe20|21=1|150=A|31=0|151=1900|32=0|100=US|38=1900|39=A|37=7cd8c89a0d0a46cf|583=236291ae63c543f2|40=2|44=15.1|55=EC|54=1|59=0|63=4|60=20150520-14:03:23.656|453=1|448=XPUS|447=D|452=1|10=042|
20150520-14:03:24.047: 8=FIX.4.4|9=0353|35=8|49=FROMADRXBOG_XNYSE_BETA|56=LVBSG|34=190|52=20150520-14:03:24|50=FCST|115=FCHB|57=QXP018914|1=QXP018914|207=US|6=0|11=-14fa587f887cb176|14=0|17=LVSXFIX2-385400000K000002|21=1|150=0|31=0|151=1900|32=0|100=US|38=1900|39=0|37=7cd8c89a0d0a46cf|583=236291ae63c543f2|40=2|44=15.1|55=EC|54=1|59=0|63=4|60=20150520-14:03:24.042|453=1|448=XPUS|447=D|452=1|10=238|
20150520-14:03:24.077: 8=FIX.4.4|9=0363|35=8|49=FROMADRXBOG_XNYSE_BETA|56=LVBSG|34=191|52=20150520-14:03:24|50=FCST|115=FCHB|57=QXP018914|1=QXP018914|207=US|6=15.1|11=-14fa587f887cb176|14=100|17=LVSXFIX2-385400000K000003|21=1|150=F|31=15.1|151=1800|32=100|100=US|38=1900|39=1|37=7cd8c89a0d0a46cf|583=236291ae63c543f2|40=2|44=15.1|55=EC|54=1|59=0|63=4|60=20150520-14:03:24.072|453=1|448=XPUS|447=D|452=1|10=246|
20150520-14:03:24.086: 8=FIX.4.4|9=0363|35=8|49=FROMADRXBOG_XNYSE_BETA|56=LVBSG|34=192|52=20150520-14:03:24|50=FCST|115=FCHB|57=QXP018914|1=QXP018914|207=US|6=15.1|11=-14fa587f887cb176|14=200|17=LVSXFIX2-385400000K000004|21=1|150=F|31=15.1|151=1700|32=100|100=US|38=1900|39=1|37=7cd8c89a0d0a46cf|583=236291ae63c543f2|40=2|44=15.1|55=EC|54=1|59=0|63=4|60=20150520-14:03:24.080|453=1|448=XPUS|447=D|452=1|10=247|
20150520-14:03:24.093: 8=FIX.4.4|9=0363|35=8|49=FROMADRXBOG_XNYSE_BETA|56=LVBSG|34=193|52=20150520-14:03:24|50=FCST|115=FCHB|57=QXP018914|1=QXP018914|207=US|6=15.1|11=-14fa587f887cb176|14=300|17=LVSXFIX2-385400000K000005|21=1|150=F|31=15.1|151=1600|32=100|100=US|38=1900|39=1|37=7cd8c89a0d0a46cf|583=236291ae63c543f2|40=2|44=15.1|55=EC|54=1|59=0|63=4|60=20150520-14:03:24.087|453=1|448=XPUS|447=D|452=1|10=000|
20150520-14:03:24.101: 8=FIX.4.4|9=0363|35=8|49=FROMADRXBOG_XNYSE_BETA|56=LVBSG|34=194|52=20150520-14:03:24|50=FCST|115=FCHB|57=QXP018914|1=QXP018914|207=US|6=15.1|11=-14fa587f887cb176|14=400|17=LVSXFIX2-385400000K000006|21=1|150=F|31=15.1|151=1500|32=100|100=US|38=1900|39=1|37=7cd8c89a0d0a46cf|583=236291ae63c543f2|40=2|44=15.1|55=EC|54=1|59=0|63=4|60=20150520-14:03:24.093|453=1|448=XPUS|447=D|452=1|10=255|
20150520-14:03:24.105: 8=FIX.4.4|9=0363|35=8|49=FROMADRXBOG_XNYSE_BETA|56=LVBSG|34=195|52=20150520-14:03:24|50=FCST|115=FCHB|57=QXP018914|1=QXP018914|207=US|6=15.1|11=-14fa587f887cb176|14=500|17=LVSXFIX2-385400000K000007|21=1|150=F|31=15.1|151=1400|32=100|100=US|38=1900|39=1|37=7cd8c89a0d0a46cf|583=236291ae63c543f2|40=2|44=15.1|55=EC|54=1|59=0|63=4|60=20150520-14:03:24.099|453=1|448=XPUS|447=D|452=1|10=007|
20150520-14:03:41.306: 8=FIX.4.4|9=0363|35=8|49=FROMADRXBOG_XNYSE_BETA|56=LVBSG|34=196|52=20150520-14:03:41|50=FCST|115=FCHB|57=QXP018914|1=QXP018914|207=US|6=15.1|11=-14fa587f887cb176|14=600|17=LVSXFIX2-385400000K000008|21=1|150=F|31=15.1|151=1300|32=100|100=US|38=1900|39=1|37=7cd8c89a0d0a46cf|583=236291ae63c543f2|40=2|44=15.1|55=EC|54=1|59=0|63=4|60=20150520-14:03:41.296|453=1|448=XPUS|447=D|452=1|10=006|
20150520-14:03:41.306: 8=FIX.4.4|9=0363|35=8|49=FROMADRXBOG_XNYSE_BETA|56=LVBSG|34=197|52=20150520-14:03:41|50=FCST|115=FCHB|57=QXP018914|1=QXP018914|207=US|6=15.1|11=-14fa587f887cb176|14=1000|17=LVSXFIX2-385400000K000009|21=1|150=F|31=15.1|151=900|32=400|100=US|38=1900|39=1|37=7cd8c89a0d0a46cf|583=236291ae63c543f2|40=2|44=15.1|55=EC|54=1|59=0|63=4|60=20150520-14:03:41.298|453=1|448=XPUS|447=D|452=1|10=013|
20150520-14:03:41.309: 8=FIX.4.4|9=0363|35=8|49=FROMADRXBOG_XNYSE_BETA|56=LVBSG|34=198|52=20150520-14:03:41|50=FCST|115=FCHB|57=QXP018914|1=QXP018914|207=US|6=15.1|11=-14fa587f887cb176|14=1100|17=LVSXFIX2-385400000K00000A|21=1|150=F|31=15.1|151=800|32=100|100=US|38=1900|39=1|37=7cd8c89a0d0a46cf|583=236291ae63c543f2|40=2|44=15.1|55=EC|54=1|59=0|63=4|60=20150520-14:03:41.302|453=1|448=XPUS|447=D|452=1|10=005|
20150520-14:03:41.312: 8=FIX.4.4|9=0363|35=8|49=FROMADRXBOG_XNYSE_BETA|56=LVBSG|34=199|52=20150520-14:03:41|50=FCST|115=FCHB|57=QXP018914|1=QXP018914|207=US|6=15.1|11=-14fa587f887cb176|14=1200|17=LVSXFIX2-385400000K00000B|21=1|150=F|31=15.1|151=700|32=100|100=US|38=1900|39=1|37=7cd8c89a0d0a46cf|583=236291ae63c543f2|40=2|44=15.1|55=EC|54=1|59=0|63=4|60=20150520-14:03:41.307|453=1|448=XPUS|447=D|452=1|10=012|
20150520-14:03:41.326: 8=FIX.4.4|9=0363|35=8|49=FROMADRXBOG_XNYSE_BETA|56=LVBSG|34=200|52=20150520-14:03:41|50=FCST|115=FCHB|57=QXP018914|1=QXP018914|207=US|6=15.1|11=-14fa587f887cb176|14=1300|17=LVSXFIX2-385400000K00000C|21=1|150=F|31=15.1|151=600|32=100|100=US|38=1900|39=1|37=7cd8c89a0d0a46cf|583=236291ae63c543f2|40=2|44=15.1|55=EC|54=1|59=0|63=4|60=20150520-14:03:41.321|453=1|448=XPUS|447=D|452=1|10=248|
20150520-14:03:41.332: 8=FIX.4.4|9=0363|35=8|49=FROMADRXBOG_XNYSE_BETA|56=LVBSG|34=201|52=20150520-14:03:41|50=FCST|115=FCHB|57=QXP018914|1=QXP018914|207=US|6=15.1|11=-14fa587f887cb176|14=1400|17=LVSXFIX2-385400000K00000D|21=1|150=F|31=15.1|151=500|32=100|100=US|38=1900|39=1|37=7cd8c89a0d0a46cf|583=236291ae63c543f2|40=2|44=15.1|55=EC|54=1|59=0|63=4|60=20150520-14:03:41.326|453=1|448=XPUS|447=D|452=1|10=255|
20150520-14:03:41.340: 8=FIX.4.4|9=0363|35=8|49=FROMADRXBOG_XNYSE_BETA|56=LVBSG|34=202|52=20150520-14:03:41|50=FCST|115=FCHB|57=QXP018914|1=QXP018914|207=US|6=15.1|11=-14fa587f887cb176|14=1500|17=LVSXFIX2-385400000K00000E|21=1|150=F|31=15.1|151=400|32=100|100=US|38=1900|39=1|37=7cd8c89a0d0a46cf|583=236291ae63c543f2|40=2|44=15.1|55=EC|54=1|59=0|63=4|60=20150520-14:03:41.333|453=1|448=XPUS|447=D|452=1|10=255|
20150520-14:03:41.346: 8=FIX.4.4|9=0363|35=8|49=FROMADRXBOG_XNYSE_BETA|56=LVBSG|34=203|52=20150520-14:03:41|50=FCST|115=FCHB|57=QXP018914|1=QXP018914|207=US|6=15.1|11=-14fa587f887cb176|14=1600|17=LVSXFIX2-385400000K00000F|21=1|150=F|31=15.1|151=300|32=100|100=US|38=1900|39=1|37=7cd8c89a0d0a46cf|583=236291ae63c543f2|40=2|44=15.1|55=EC|54=1|59=0|63=4|60=20150520-14:03:41.341|453=1|448=XPUS|447=D|452=1|10=000|
20150520-14:03:41.393: 8=FIX.4.4|9=0363|35=8|49=FROMADRXBOG_XNYSE_BETA|56=LVBSG|34=204|52=20150520-14:03:41|50=FCST|115=FCHB|57=QXP018914|1=QXP018914|207=US|6=15.1|11=-14fa587f887cb176|14=1700|17=LVSXFIX2-385400000K00000G|21=1|150=F|31=15.1|151=200|32=100|100=US|38=1900|39=1|37=7cd8c89a0d0a46cf|583=236291ae63c543f2|40=2|44=15.1|55=EC|54=1|59=0|63=4|60=20150520-14:03:41.387|453=1|448=XPUS|447=D|452=1|10=012|
20150520-14:03:41.398: 8=FIX.4.4|9=0363|35=8|49=FROMADRXBOG_XNYSE_BETA|56=LVBSG|34=205|52=20150520-14:03:41|50=FCST|115=FCHB|57=QXP018914|1=QXP018914|207=US|6=15.1|11=-14fa587f887cb176|14=1800|17=LVSXFIX2-385400000K00000H|21=1|150=F|31=15.1|151=100|32=100|100=US|38=1900|39=1|37=7cd8c89a0d0a46cf|583=236291ae63c543f2|40=2|44=15.1|55=EC|54=1|59=0|63=4|60=20150520-14:03:41.393|453=1|448=XPUS|447=D|452=1|10=011|
20150520-14:03:41.404: 8=FIX.4.4|9=0361|35=8|49=FROMADRXBOG_XNYSE_BETA|56=LVBSG|34=206|52=20150520-14:03:41|50=FCST|115=FCHB|57=QXP018914|1=QXP018914|207=US|6=15.1|11=-14fa587f887cb176|14=1900|17=LVSXFIX2-385400000K00000I|21=1|150=F|31=15.1|151=0|32=100|100=US|38=1900|39=2|37=7cd8c89a0d0a46cf|583=236291ae63c543f2|40=2|44=15.1|55=EC|54=1|59=0|63=4|60=20150520-14:03:41.398|453=1|448=XPUS|447=D|452=1|10=177|
20150520-14:04:19.856: 8=FIX.4.4|9=278|35=D|34=170|49=LVBSG|50=QXP018914|52=20150520-14:04:19.856|56=FROMADRXBOG_XNYSE_BETA|57=FCST|128=FCHB|1=QXP018914|11=-58bc01ac67f3bdf6|21=1|38=1600|40=2|44=15.11|54=1|55=EC|59=0|60=20150520-14:04:19.856|63=4|100=US|111=100|207=US|583=236291ae63c543f2|453=1|448=XPUS|447=D|452=1|10=091|
20150520-14:04:19.869: 8=FIX.4.4|9=0345|35=8|49=FROMADRXBOG_XNYSE_BETA|56=LVBSG|34=207|52=20150520-14:04:19|50=FCST|115=FCHB|57=QXP018914|1=QXP018914|207=US|6=0|11=-58bc01ac67f3bdf6|14=0|17=-58bda6a0a8eab638|21=1|150=A|31=0|151=1600|32=0|100=US|38=1600|39=A|37=64673f0ef2d4200|583=236291ae63c543f2|40=2|44=15.11|55=EC|54=1|59=0|63=4|60=20150520-14:04:19.862|453=1|448=XPUS|447=D|452=1|10=248|
20150520-14:04:20.294: 8=FIX.4.4|9=0353|35=8|49=FROMADRXBOG_XNYSE_BETA|56=LVBSG|34=208|52=20150520-14:04:20|50=FCST|115=FCHB|57=QXP018914|1=QXP018914|207=US|6=0|11=-58bc01ac67f3bdf6|14=0|17=LVSXFIX2-385400000L000002|21=1|150=0|31=0|151=1600|32=0|100=US|38=1600|39=0|37=64673f0ef2d4200|583=236291ae63c543f2|40=2|44=15.11|55=EC|54=1|59=0|63=4|60=20150520-14:04:20.289|453=1|448=XPUS|447=D|452=1|10=164|
20150520-14:04:20.384: 8=FIX.4.4|9=0365|35=8|49=FROMADRXBOG_XNYSE_BETA|56=LVBSG|34=209|52=20150520-14:04:20|50=FCST|115=FCHB|57=QXP018914|1=QXP018914|207=US|6=15.11|11=-58bc01ac67f3bdf6|14=200|17=LVSXFIX2-385400000L000003|21=1|150=F|31=15.11|151=1400|32=200|100=US|38=1600|39=1|37=64673f0ef2d4200|583=236291ae63c543f2|40=2|44=15.11|55=EC|54=1|59=0|63=4|60=20150520-14:04:20.379|453=1|448=XPUS|447=D|452=1|10=014|
20150520-14:04:20.390: 8=FIX.4.4|9=0365|35=8|49=FROMADRXBOG_XNYSE_BETA|56=LVBSG|34=210|52=20150520-14:04:20|50=FCST|115=FCHB|57=QXP018914|1=QXP018914|207=US|6=15.11|11=-58bc01ac67f3bdf6|14=300|17=LVSXFIX2-385400000L000004|21=1|150=F|31=15.11|151=1300|32=100|100=US|38=1600|39=1|37=64673f0ef2d4200|583=236291ae63c543f2|40=2|44=15.11|55=EC|54=1|59=0|63=4|60=20150520-14:04:20.385|453=1|448=XPUS|447=D|452=1|10=003|
20150520-14:04:20.397: 8=FIX.4.4|9=0365|35=8|49=FROMADRXBOG_XNYSE_BETA|56=LVBSG|34=211|52=20150520-14:04:20|50=FCST|115=FCHB|57=QXP018914|1=QXP018914|207=US|6=15.11|11=-58bc01ac67f3bdf6|14=400|17=LVSXFIX2-385400000L000005|21=1|150=F|31=15.11|151=1200|32=100|100=US|38=1600|39=1|37=64673f0ef2d4200|583=236291ae63c543f2|40=2|44=15.11|55=EC|54=1|59=0|63=4|60=20150520-14:04:20.392|453=1|448=XPUS|447=D|452=1|10=003|
20150520-14:04:20.405: 8=FIX.4.4|9=0365|35=8|49=FROMADRXBOG_XNYSE_BETA|56=LVBSG|34=212|52=20150520-14:04:20|50=FCST|115=FCHB|57=QXP018914|1=QXP018914|207=US|6=15.11|11=-58bc01ac67f3bdf6|14=500|17=LVSXFIX2-385400000L000006|21=1|150=F|31=15.11|151=1100|32=100|100=US|38=1600|39=1|37=64673f0ef2d4200|583=236291ae63c543f2|40=2|44=15.11|55=EC|54=1|59=0|63=4|60=20150520-14:04:20.399|453=1|448=XPUS|447=D|452=1|10=012|
20150520-14:04:20.412: 8=FIX.4.4|9=0370|35=8|49=FROMADRXBOG_XNYSE_BETA|56=LVBSG|34=213|52=20150520-14:04:20|50=FCST|115=FCHB|57=QXP018914|1=QXP018914|207=US|6=15.109167|11=-58bc01ac67f3bdf6|14=600|17=LVSXFIX2-385400000L000007|21=1|150=F|31=15.105|151=1000|32=100|100=US|38=1600|39=1|37=64673f0ef2d4200|583=236291ae63c543f2|40=2|44=15.11|55=EC|54=1|59=0|63=4|60=20150520-14:04:20.407|453=1|448=XPUS|447=D|452=1|10=010|
20150520-14:04:20.420: 8=FIX.4.4|9=0368|35=8|49=FROMADRXBOG_XNYSE_BETA|56=LVBSG|34=214|52=20150520-14:04:20|50=FCST|115=FCHB|57=QXP018914|1=QXP018914|207=US|6=15.109286|11=-58bc01ac67f3bdf6|14=700|17=LVSXFIX2-385400000L000008|21=1|150=F|31=15.11|151=900|32=100|100=US|38=1600|39=1|37=64673f0ef2d4200|583=236291ae63c543f2|40=2|44=15.11|55=EC|54=1|59=0|63=4|60=20150520-14:04:20.414|453=1|448=XPUS|447=D|452=1|10=184|
20150520-14:04:20.426: 8=FIX.4.4|9=0368|35=8|49=FROMADRXBOG_XNYSE_BETA|56=LVBSG|34=215|52=20150520-14:04:20|50=FCST|115=FCHB|57=QXP018914|1=QXP018914|207=US|6=15.109375|11=-58bc01ac67f3bdf6|14=800|17=LVSXFIX2-385400000L000009|21=1|150=F|31=15.11|151=800|32=100|100=US|38=1600|39=1|37=64673f0ef2d4200|583=236291ae63c543f2|40=2|44=15.11|55=EC|54=1|59=0|63=4|60=20150520-14:04:20.420|453=1|448=XPUS|447=D|452=1|10=182|
20150520-14:04:21.517: 8=FIX.4.4|9=298|35=G|34=171|49=LVBSG|50=QXP018914|52=20150520-14:04:21.517|56=FROMADRXBOG_XNYSE_BETA|57=FCST|128=FCHB|1=QXP018914|11=-74ddc218a8cb6b0|21=1|38=3600|40=2|41=-58bc01ac67f3bdf6|44=15.11|54=1|55=EC|59=0|60=20150520-14:04:21.517|63=4|100=US|111=100|207=US|583=236291ae63c543f2|453=1|448=XPUS|447=D|452=1|10=112|
20150520-14:04:21.528: 8=FIX.4.4|9=0374|35=8|49=FROMADRXBOG_XNYSE_BETA|56=LVBSG|34=216|52=20150520-14:04:21|50=FCST|115=FCHB|57=QXP018914|1=QXP018914|207=US|6=15.109375|11=-74ddc218a8cb6b0|14=800|17=-3216daab5b26bf65|21=1|150=E|31=0|151=800|32=0|100=US|38=3600|39=E|37=64673f0ef2d4200|583=236291ae63c543f2|40=2|41=-58bc01ac67f3bdf6|44=15.11|55=EC|54=1|59=0|63=4|60=20150520-14:04:21.522|453=1|448=XPUS|447=D|452=1|10=181|
20150520-14:04:21.959: 8=FIX.4.4|9=0383|35=8|49=FROMADRXBOG_XNYSE_BETA|56=LVBSG|34=217|52=20150520-14:04:21|50=FCST|115=FCHB|57=QXP018914|1=QXP018914|207=US|6=15.109375|11=-74ddc218a8cb6b0|14=800|17=LVSXFIX2-385400000L00000C|21=1|150=5|31=0|151=2800|32=0|100=US|38=3600|39=1|37=64673f0ef2d4200|583=236291ae63c543f2|40=2|41=-58bc01ac67f3bdf6|44=15.11|55=EC|54=1|59=0|63=4|60=20150520-14:04:21.954|453=1|448=XPUS|447=D|452=1|10=240|
20150520-14:04:54.983: 8=FIX.4.4|9=297|35=G|34=172|49=LVBSG|50=QXP018914|52=20150520-14:04:54.982|56=FROMADRXBOG_XNYSE_BETA|57=FCST|128=FCHB|1=QXP018914|11=-8731d493dc9b875|21=1|38=3600|40=2|41=-74ddc218a8cb6b0|44=15.12|54=1|55=EC|59=0|60=20150520-14:04:54.982|63=4|100=US|111=100|207=US|583=236291ae63c543f2|453=1|448=XPUS|447=D|452=1|10=167|
20150520-14:04:54.993: 8=FIX.4.4|9=0374|35=8|49=FROMADRXBOG_XNYSE_BETA|56=LVBSG|34=218|52=20150520-14:04:54|50=FCST|115=FCHB|57=QXP018914|1=QXP018914|207=US|6=15.109375|11=-8731d493dc9b875|14=800|17=-34231107405dbe04|21=1|150=E|31=0|151=2800|32=0|100=US|38=3600|39=E|37=64673f0ef2d4200|583=236291ae63c543f2|40=2|41=-74ddc218a8cb6b0|44=15.12|55=EC|54=1|59=0|63=4|60=20150520-14:04:54.988|453=1|448=XPUS|447=D|452=1|10=091|
20150520-14:04:55.444: 8=FIX.4.4|9=0382|35=8|49=FROMADRXBOG_XNYSE_BETA|56=LVBSG|34=219|52=20150520-14:04:55|50=FCST|115=FCHB|57=QXP018914|1=QXP018914|207=US|6=15.109375|11=-8731d493dc9b875|14=800|17=LVSXFIX2-385400000L00000F|21=1|150=5|31=0|151=2800|32=0|100=US|38=3600|39=1|37=64673f0ef2d4200|583=236291ae63c543f2|40=2|41=-74ddc218a8cb6b0|44=15.12|55=EC|54=1|59=0|63=4|60=20150520-14:04:55.437|453=1|448=XPUS|447=D|452=1|10=029|
20150520-14:05:17.223: 8=FIX.4.4|9=0388|35=8|49=FROMADRXBOG_XNYSE_BETA|56=LVBSG|34=220|52=20150520-14:05:17|50=FCST|115=FCHB|57=QXP018914|1=QXP018914|207=US|6=15.110556|11=-8731d493dc9b875|14=900|17=LVSXFIX2-385400000L00000G|21=1|150=F|31=15.12|151=2700|32=100|100=US|38=3600|39=1|37=64673f0ef2d4200|583=236291ae63c543f2|40=2|41=-74ddc218a8cb6b0|44=15.12|55=EC|54=1|59=0|63=4|60=20150520-14:05:17.203|453=1|448=XPUS|447=D|452=1|10=067|
20150520-14:05:17.223: 8=FIX.4.4|9=0389|35=8|49=FROMADRXBOG_XNYSE_BETA|56=LVBSG|34=221|52=20150520-14:05:17|50=FCST|115=FCHB|57=QXP018914|1=QXP018914|207=US|6=15.112273|11=-8731d493dc9b875|14=1100|17=LVSXFIX2-385400000L00000H|21=1|150=F|31=15.12|151=2500|32=200|100=US|38=3600|39=1|37=64673f0ef2d4200|583=236291ae63c543f2|40=2|41=-74ddc218a8cb6b0|44=15.12|55=EC|54=1|59=0|63=4|60=20150520-14:05:17.204|453=1|448=XPUS|447=D|452=1|10=109|
20150520-14:05:17.230: 8=FIX.4.4|9=0388|35=8|49=FROMADRXBOG_XNYSE_BETA|56=LVBSG|34=222|52=20150520-14:05:17|50=FCST|115=FCHB|57=QXP018914|1=QXP018914|207=US|6=15.112797|11=-8731d493dc9b875|14=1180|17=LVSXFIX2-385400000L00000I|21=1|150=F|31=15.12|151=2420|32=80|100=US|38=3600|39=1|37=64673f0ef2d4200|583=236291ae63c543f2|40=2|41=-74ddc218a8cb6b0|44=15.12|55=EC|54=1|59=0|63=4|60=20150520-14:05:17.218|453=1|448=XPUS|447=D|452=1|10=093|
20150520-14:05:17.373: 8=FIX.4.4|9=0389|35=8|49=FROMADRXBOG_XNYSE_BETA|56=LVBSG|34=223|52=20150520-14:05:17|50=FCST|115=FCHB|57=QXP018914|1=QXP018914|207=US|6=15.113359|11=-8731d493dc9b875|14=1280|17=LVSXFIX2-385400000L00000J|21=1|150=F|31=15.12|151=2320|32=100|100=US|38=3600|39=1|37=64673f0ef2d4200|583=236291ae63c543f2|40=2|41=-74ddc218a8cb6b0|44=15.12|55=EC|54=1|59=0|63=4|60=20150520-14:05:17.368|453=1|448=XPUS|447=D|452=1|10=138|
20150520-14:05:17.385: 8=FIX.4.4|9=0388|35=8|49=FROMADRXBOG_XNYSE_BETA|56=LVBSG|34=224|52=20150520-14:05:17|50=FCST|115=FCHB|57=QXP018914|1=QXP018914|207=US|6=15.113462|11=-8731d493dc9b875|14=1300|17=LVSXFIX2-385400000L00000K|21=1|150=F|31=15.12|151=2300|32=20|100=US|38=3600|39=1|37=64673f0ef2d4200|583=236291ae63c543f2|40=2|41=-74ddc218a8cb6b0|44=15.12|55=EC|54=1|59=0|63=4|60=20150520-14:05:17.379|453=1|448=XPUS|447=D|452=1|10=080|
20150520-14:05:17.389: 8=FIX.4.4|9=0388|35=8|49=FROMADRXBOG_XNYSE_BETA|56=LVBSG|34=225|52=20150520-14:05:17|50=FCST|115=FCHB|57=QXP018914|1=QXP018914|207=US|6=15.113561|11=-8731d493dc9b875|14=1320|17=LVSXFIX2-385400000L00000L|21=1|150=F|31=15.12|151=2280|32=20|100=US|38=3600|39=1|37=64673f0ef2d4200|583=236291ae63c543f2|40=2|41=-74ddc218a8cb6b0|44=15.12|55=EC|54=1|59=0|63=4|60=20150520-14:05:17.384|453=1|448=XPUS|447=D|452=1|10=087|
20150520-14:05:17.396: 8=FIX.4.4|9=0389|35=8|49=FROMADRXBOG_XNYSE_BETA|56=LVBSG|34=226|52=20150520-14:05:17|50=FCST|115=FCHB|57=QXP018914|1=QXP018914|207=US|6=15.114014|11=-8731d493dc9b875|14=1420|17=LVSXFIX2-385400000L00000M|21=1|150=F|31=15.12|151=2180|32=100|100=US|38=3600|39=1|37=64673f0ef2d4200|583=236291ae63c543f2|40=2|41=-74ddc218a8cb6b0|44=15.12|55=EC|54=1|59=0|63=4|60=20150520-14:05:17.390|453=1|448=XPUS|447=D|452=1|10=128|
20150520-14:05:17.401: 8=FIX.4.4|9=0389|35=8|49=FROMADRXBOG_XNYSE_BETA|56=LVBSG|34=227|52=20150520-14:05:17|50=FCST|115=FCHB|57=QXP018914|1=QXP018914|207=US|6=15.114408|11=-8731d493dc9b875|14=1520|17=LVSXFIX2-385400000L00000N|21=1|150=F|31=15.12|151=2080|32=100|100=US|38=3600|39=1|37=64673f0ef2d4200|583=236291ae63c543f2|40=2|41=-74ddc218a8cb6b0|44=15.12|55=EC|54=1|59=0|63=4|60=20150520-14:05:17.396|453=1|448=XPUS|447=D|452=1|10=143|
20150520-14:05:17.407: 8=FIX.4.4|9=0389|35=8|49=FROMADRXBOG_XNYSE_BETA|56=LVBSG|34=228|52=20150520-14:05:17|50=FCST|115=FCHB|57=QXP018914|1=QXP018914|207=US|6=15.114753|11=-8731d493dc9b875|14=1620|17=LVSXFIX2-385400000L00000O|21=1|150=F|31=15.12|151=1980|32=100|100=US|38=3600|39=1|37=64673f0ef2d4200|583=236291ae63c543f2|40=2|41=-74ddc218a8cb6b0|44=15.12|55=EC|54=1|59=0|63=4|60=20150520-14:05:17.401|453=1|448=XPUS|447=D|452=1|10=144|
20150520-14:05:18.217: 8=FIX.4.4|9=0389|35=8|49=FROMADRXBOG_XNYSE_BETA|56=LVBSG|34=229|52=20150520-14:05:18|50=FCST|115=FCHB|57=QXP018914|1=QXP018914|207=US|6=15.115058|11=-8731d493dc9b875|14=1720|17=LVSXFIX2-385400000L00000P|21=1|150=F|31=15.12|151=1880|32=100|100=US|38=3600|39=1|37=64673f0ef2d4200|583=236291ae63c543f2|40=2|41=-74ddc218a8cb6b0|44=15.12|55=EC|54=1|59=0|63=4|60=20150520-14:05:18.210|453=1|448=XPUS|447=D|452=1|10=145|
20150520-14:05:18.959: 8=FIX.4.4|9=0388|35=8|49=FROMADRXBOG_XNYSE_BETA|56=LVBSG|34=230|52=20150520-14:05:18|50=FCST|115=FCHB|57=QXP018914|1=QXP018914|207=US|6=15.115327|11=-8731d493dc9b875|14=1819|17=LVSXFIX2-385400000L00000Q|21=1|150=F|31=15.12|151=1781|32=99|100=US|38=3600|39=1|37=64673f0ef2d4200|583=236291ae63c543f2|40=2|41=-74ddc218a8cb6b0|44=15.12|55=EC|54=1|59=0|63=4|60=20150520-14:05:18.952|453=1|448=XPUS|447=D|452=1|10=127|
20150520-14:05:19.434: 8=FIX.4.4|9=0388|35=8|49=FROMADRXBOG_XNYSE_BETA|56=LVBSG|34=231|52=20150520-14:05:19|50=FCST|115=FCHB|57=QXP018914|1=QXP018914|207=US|6=15.115524|11=-8731d493dc9b875|14=1899|17=LVSXFIX2-385400000L00000R|21=1|150=F|31=15.12|151=1701|32=80|100=US|38=3600|39=1|37=64673f0ef2d4200|583=236291ae63c543f2|40=2|41=-74ddc218a8cb6b0|44=15.12|55=EC|54=1|59=0|63=4|60=20150520-14:05:19.430|453=1|448=XPUS|447=D|452=1|10=111|
20150520-14:05:19.441: 8=FIX.4.4|9=0388|35=8|49=FROMADRXBOG_XNYSE_BETA|56=LVBSG|34=232|52=20150520-14:05:19|50=FCST|115=FCHB|57=QXP018914|1=QXP018914|207=US|6=15.115571|11=-8731d493dc9b875|14=1919|17=LVSXFIX2-385400000L00000S|21=1|150=F|31=15.12|151=1681|32=20|100=US|38=3600|39=1|37=64673f0ef2d4200|583=236291ae63c543f2|40=2|41=-74ddc218a8cb6b0|44=15.12|55=EC|54=1|59=0|63=4|60=20150520-14:05:19.436|453=1|448=XPUS|447=D|452=1|10=115|
20150520-14:05:19.617: 8=FIX.4.4|9=0388|35=8|49=FROMADRXBOG_XNYSE_BETA|56=LVBSG|34=233|52=20150520-14:05:19|50=FCST|115=FCHB|57=QXP018914|1=QXP018914|207=US|6=15.11579|11=-8731d493dc9b875|14=2019|17=LVSXFIX2-385400000L00000T|21=1|150=F|31=15.12|151=1581|32=100|100=US|38=3600|39=1|37=64673f0ef2d4200|583=236291ae63c543f2|40=2|41=-74ddc218a8cb6b0|44=15.12|55=EC|54=1|59=0|63=4|60=20150520-14:05:19.612|453=1|448=XPUS|447=D|452=1|10=106|
20150520-14:05:20.314: 8=FIX.4.4|9=0389|35=8|49=FROMADRXBOG_XNYSE_BETA|56=LVBSG|34=234|52=20150520-14:05:20|50=FCST|115=FCHB|57=QXP018914|1=QXP018914|207=US|6=15.115989|11=-8731d493dc9b875|14=2119|17=LVSXFIX2-385400000L00000U|21=1|150=F|31=15.12|151=1481|32=100|100=US|38=3600|39=1|37=64673f0ef2d4200|583=236291ae63c543f2|40=2|41=-74ddc218a8cb6b0|44=15.12|55=EC|54=1|59=0|63=4|60=20150520-14:05:20.309|453=1|448=XPUS|447=D|452=1|10=154|
20150520-14:05:21.249: 8=FIX.4.4|9=0389|35=8|49=FROMADRXBOG_XNYSE_BETA|56=LVBSG|34=235|52=20150520-14:05:21|50=FCST|115=FCHB|57=QXP018914|1=QXP018914|207=US|6=15.116169|11=-8731d493dc9b875|14=2219|17=LVSXFIX2-385400000L00000V|21=1|150=F|31=15.12|151=1381|32=100|100=US|38=3600|39=1|37=64673f0ef2d4200|583=236291ae63c543f2|40=2|41=-74ddc218a8cb6b0|44=15.12|55=EC|54=1|59=0|63=4|60=20150520-14:05:21.245|453=1|448=XPUS|447=D|452=1|10=148|
20150520-14:05:23.832: 8=FIX.4.4|9=0389|35=8|49=FROMADRXBOG_XNYSE_BETA|56=LVBSG|34=236|52=20150520-14:05:23|50=FCST|115=FCHB|57=QXP018914|1=QXP018914|207=US|6=15.116335|11=-8731d493dc9b875|14=2319|17=LVSXFIX2-385400000L00000W|21=1|150=F|31=15.12|151=1281|32=100|100=US|38=3600|39=1|37=64673f0ef2d4200|583=236291ae63c543f2|40=2|41=-74ddc218a8cb6b0|44=15.12|55=EC|54=1|59=0|63=4|60=20150520-14:05:23.828|453=1|448=XPUS|447=D|452=1|10=156|
20150520-14:05:29.588: 8=FIX.4.4|9=297|35=G|34=173|49=LVBSG|50=QXP018914|52=20150520-14:05:29.588|56=FROMADRXBOG_XNYSE_BETA|57=FCST|128=FCHB|1=QXP018914|11=32aa66eb06e0405e|21=1|38=3600|40=2|41=-8731d493dc9b875|44=15.13|54=1|55=EC|59=0|60=20150520-14:05:29.588|63=4|100=US|111=100|207=US|583=236291ae63c543f2|453=1|448=XPUS|447=D|452=1|10=130|
20150520-14:05:29.598: 8=FIX.4.4|9=0375|35=8|49=FROMADRXBOG_XNYSE_BETA|56=LVBSG|34=237|52=20150520-14:05:29|50=FCST|115=FCHB|57=QXP018914|1=QXP018914|207=US|6=15.116335|11=32aa66eb06e0405e|14=2319|17=-623bb7bff6cbbe2c|21=1|150=E|31=0|151=1281|32=0|100=US|38=3600|39=E|37=64673f0ef2d4200|583=236291ae63c543f2|40=2|41=-8731d493dc9b875|44=15.13|55=EC|54=1|59=0|63=4|60=20150520-14:05:29.594|453=1|448=XPUS|447=D|452=1|10=189|
20150520-14:05:30.003: 8=FIX.4.4|9=0383|35=8|49=FROMADRXBOG_XNYSE_BETA|56=LVBSG|34=238|52=20150520-14:05:30|50=FCST|115=FCHB|57=QXP018914|1=QXP018914|207=US|6=15.116335|11=32aa66eb06e0405e|14=2319|17=LVSXFIX2-385400000L00000Z|21=1|150=5|31=0|151=1281|32=0|100=US|38=3600|39=1|37=64673f0ef2d4200|583=236291ae63c543f2|40=2|41=-8731d493dc9b875|44=15.13|55=EC|54=1|59=0|63=4|60=20150520-14:05:29.998|453=1|448=XPUS|447=D|452=1|10=062|
20150520-14:05:30.267: 8=FIX.4.4|9=297|35=G|34=174|49=LVBSG|50=QXP018914|52=20150520-14:05:30.267|56=FROMADRXBOG_XNYSE_BETA|57=FCST|128=FCHB|1=QXP018914|11=269a3e6a09da4c19|21=1|38=3600|40=2|41=32aa66eb06e0405e|44=15.14|54=1|55=EC|59=0|60=20150520-14:05:30.267|63=4|100=US|111=100|207=US|583=236291ae63c543f2|453=1|448=XPUS|447=D|452=1|10=190|
20150520-14:05:30.277: 8=FIX.4.4|9=0374|35=8|49=FROMADRXBOG_XNYSE_BETA|56=LVBSG|34=239|52=20150520-14:05:30|50=FCST|115=FCHB|57=QXP018914|1=QXP018914|207=US|6=15.116335|11=269a3e6a09da4c19|14=2319|17=1c44b5c8c18c4f6a|21=1|150=E|31=0|151=1281|32=0|100=US|38=3600|39=E|37=64673f0ef2d4200|583=236291ae63c543f2|40=2|41=32aa66eb06e0405e|44=15.14|55=EC|54=1|59=0|63=4|60=20150520-14:05:30.272|453=1|448=XPUS|447=D|452=1|10=068|
20150520-14:05:30.684: 8=FIX.4.4|9=0383|35=8|49=FROMADRXBOG_XNYSE_BETA|56=LVBSG|34=240|52=20150520-14:05:30|50=FCST|115=FCHB|57=QXP018914|1=QXP018914|207=US|6=15.116335|11=269a3e6a09da4c19|14=2319|17=LVSXFIX2-385400000L000012|21=1|150=5|31=0|151=1281|32=0|100=US|38=3600|39=1|37=64673f0ef2d4200|583=236291ae63c543f2|40=2|41=32aa66eb06e0405e|44=15.14|55=EC|54=1|59=0|63=4|60=20150520-14:05:30.679|453=1|448=XPUS|447=D|452=1|10=091|
20150520-14:05:33.362: 8=FIX.4.4|9=0389|35=8|49=FROMADRXBOG_XNYSE_BETA|56=LVBSG|34=241|52=20150520-14:05:33|50=FCST|115=FCHB|57=QXP018914|1=QXP018914|207=US|6=15.117313|11=269a3e6a09da4c19|14=2419|17=LVSXFIX2-385400000L000013|21=1|150=F|31=15.14|151=1181|32=100|100=US|38=3600|39=1|37=64673f0ef2d4200|583=236291ae63c543f2|40=2|41=32aa66eb06e0405e|44=15.14|55=EC|54=1|59=0|63=4|60=20150520-14:05:33.358|453=1|448=XPUS|447=D|452=1|10=155|
20150520-14:05:55.099: 8=FIX.4.4|9=297|35=G|34=175|49=LVBSG|50=QXP018914|52=20150520-14:05:55.099|56=FROMADRXBOG_XNYSE_BETA|57=FCST|128=FCHB|1=QXP018914|11=6928b92a097c4dc4|21=1|38=3600|40=2|41=269a3e6a09da4c19|44=15.15|54=1|55=EC|59=0|60=20150520-14:05:55.099|63=4|100=US|111=100|207=US|583=236291ae63c543f2|453=1|448=XPUS|447=D|452=1|10=186|
20150520-14:05:55.118: 8=FIX.4.4|9=0374|35=8|49=FROMADRXBOG_XNYSE_BETA|56=LVBSG|34=242|52=20150520-14:05:55|50=FCST|115=FCHB|57=QXP018914|1=QXP018914|207=US|6=15.117313|11=6928b92a097c4dc4|14=2419|17=453992e0a3ea4399|21=1|150=E|31=0|151=1181|32=0|100=US|38=3600|39=E|37=64673f0ef2d4200|583=236291ae63c543f2|40=2|41=269a3e6a09da4c19|44=15.15|55=EC|54=1|59=0|63=4|60=20150520-14:05:55.113|453=1|448=XPUS|447=D|452=1|10=164|
20150520-14:05:55.533: 8=FIX.4.4|9=0383|35=8|49=FROMADRXBOG_XNYSE_BETA|56=LVBSG|34=243|52=20150520-14:05:55|50=FCST|115=FCHB|57=QXP018914|1=QXP018914|207=US|6=15.117313|11=6928b92a097c4dc4|14=2419|17=LVSXFIX2-385400000L000016|21=1|150=5|31=0|151=1181|32=0|100=US|38=3600|39=1|37=64673f0ef2d4200|583=236291ae63c543f2|40=2|41=269a3e6a09da4c19|44=15.15|55=EC|54=1|59=0|63=4|60=20150520-14:05:55.528|453=1|448=XPUS|447=D|452=1|10=077|
20150520-14:05:55.834: 8=FIX.4.4|9=0389|35=8|49=FROMADRXBOG_XNYSE_BETA|56=LVBSG|34=244|52=20150520-14:05:55|50=FCST|115=FCHB|57=QXP018914|1=QXP018914|207=US|6=15.118611|11=6928b92a097c4dc4|14=2519|17=LVSXFIX2-385400000L000017|21=1|150=F|31=15.15|151=1081|32=100|100=US|38=3600|39=1|37=64673f0ef2d4200|583=236291ae63c543f2|40=2|41=269a3e6a09da4c19|44=15.15|55=EC|54=1|59=0|63=4|60=20150520-14:05:55.820|453=1|448=XPUS|447=D|452=1|10=142|
20150520-14:06:24.232: 8=FIX.4.4|9=298|35=G|34=176|49=LVBSG|50=QXP018914|52=20150520-14:06:24.232|56=FROMADRXBOG_XNYSE_BETA|57=FCST|128=FCHB|1=QXP018914|11=-52bd100bd7cbb87f|21=1|38=3600|40=2|41=6928b92a097c4dc4|44=15.17|54=1|55=EC|59=0|60=20150520-14:06:24.232|63=4|100=US|111=100|207=US|583=236291ae63c543f2|453=1|448=XPUS|447=D|452=1|10=038|
20150520-14:06:24.262: 8=FIX.4.4|9=0376|35=8|49=FROMADRXBOG_XNYSE_BETA|56=LVBSG|34=245|52=20150520-14:06:24|50=FCST|115=FCHB|57=QXP018914|1=QXP018914|207=US|6=15.118611|11=-52bd100bd7cbb87f|14=2519|17=-45e21cd91004b55b|21=1|150=E|31=0|151=1081|32=0|100=US|38=3600|39=E|37=64673f0ef2d4200|583=236291ae63c543f2|40=2|41=6928b92a097c4dc4|44=15.17|55=EC|54=1|59=0|63=4|60=20150520-14:06:24.252|453=1|448=XPUS|447=D|452=1|10=120|
20150520-14:06:24.682: 8=FIX.4.4|9=0384|35=8|49=FROMADRXBOG_XNYSE_BETA|56=LVBSG|34=246|52=20150520-14:06:24|50=FCST|115=FCHB|57=QXP018914|1=QXP018914|207=US|6=15.118611|11=-52bd100bd7cbb87f|14=2519|17=LVSXFIX2-385400000L00001A|21=1|150=5|31=0|151=1081|32=0|100=US|38=3600|39=1|37=64673f0ef2d4200|583=236291ae63c543f2|40=2|41=6928b92a097c4dc4|44=15.17|55=EC|54=1|59=0|63=4|60=20150520-14:06:24.676|453=1|448=XPUS|447=D|452=1|10=226|
20150520-14:06:24.688: 8=FIX.4.4|9=0389|35=8|49=FROMADRXBOG_XNYSE_BETA|56=LVBSG|34=247|52=20150520-14:06:24|50=FCST|115=FCHB|57=QXP018914|1=QXP018914|207=US|6=15.120573|11=-52bd100bd7cbb87f|14=2619|17=LVSXFIX2-385400000L00001B|21=1|150=F|31=15.17|151=981|32=100|100=US|38=3600|39=1|37=64673f0ef2d4200|583=236291ae63c543f2|40=2|41=6928b92a097c4dc4|44=15.17|55=EC|54=1|59=0|63=4|60=20150520-14:06:24.683|453=1|448=XPUS|447=D|452=1|10=254|
20150520-14:06:28.221: 8=FIX.4.4|9=0389|35=8|49=FROMADRXBOG_XNYSE_BETA|56=LVBSG|34=248|52=20150520-14:06:28|50=FCST|115=FCHB|57=QXP018914|1=QXP018914|207=US|6=15.122391|11=-52bd100bd7cbb87f|14=2719|17=LVSXFIX2-385400000L00001C|21=1|150=F|31=15.17|151=881|32=100|100=US|38=3600|39=1|37=64673f0ef2d4200|583=236291ae63c543f2|40=2|41=6928b92a097c4dc4|44=15.17|55=EC|54=1|59=0|63=4|60=20150520-14:06:28.216|453=1|448=XPUS|447=D|452=1|10=000|
20150520-14:06:28.295: 8=FIX.4.4|9=0389|35=8|49=FROMADRXBOG_XNYSE_BETA|56=LVBSG|34=249|52=20150520-14:06:28|50=FCST|115=FCHB|57=QXP018914|1=QXP018914|207=US|6=15.124079|11=-52bd100bd7cbb87f|14=2819|17=LVSXFIX2-385400000L00001D|21=1|150=F|31=15.17|151=781|32=100|100=US|38=3600|39=1|37=64673f0ef2d4200|583=236291ae63c543f2|40=2|41=6928b92a097c4dc4|44=15.17|55=EC|54=1|59=0|63=4|60=20150520-14:06:28.282|453=1|448=XPUS|447=D|452=1|10=010|
20150520-14:06:28.296: 8=FIX.4.4|9=0389|35=8|49=FROMADRXBOG_XNYSE_BETA|56=LVBSG|34=250|52=20150520-14:06:28|50=FCST|115=FCHB|57=QXP018914|1=QXP018914|207=US|6=15.125653|11=-52bd100bd7cbb87f|14=2919|17=LVSXFIX2-385400000L00001E|21=1|150=F|31=15.17|151=681|32=100|100=US|38=3600|39=1|37=64673f0ef2d4200|583=236291ae63c543f2|40=2|41=6928b92a097c4dc4|44=15.17|55=EC|54=1|59=0|63=4|60=20150520-14:06:28.285|453=1|448=XPUS|447=D|452=1|10=005|
20150520-14:06:28.302: 8=FIX.4.4|9=0389|35=8|49=FROMADRXBOG_XNYSE_BETA|56=LVBSG|34=251|52=20150520-14:06:28|50=FCST|115=FCHB|57=QXP018914|1=QXP018914|207=US|6=15.127122|11=-52bd100bd7cbb87f|14=3019|17=LVSXFIX2-385400000L00001F|21=1|150=F|31=15.17|151=581|32=100|100=US|38=3600|39=1|37=64673f0ef2d4200|583=236291ae63c543f2|40=2|41=6928b92a097c4dc4|44=15.17|55=EC|54=1|59=0|63=4|60=20150520-14:06:28.296|453=1|448=XPUS|447=D|452=1|10=249|
20150520-14:06:36.488: 8=FIX.4.4|9=0389|35=8|49=FROMADRXBOG_XNYSE_BETA|56=LVBSG|34=252|52=20150520-14:06:36|50=FCST|115=FCHB|57=QXP018914|1=QXP018914|207=US|6=15.128496|11=-52bd100bd7cbb87f|14=3119|17=LVSXFIX2-385400000L00001G|21=1|150=F|31=15.17|151=481|32=100|100=US|38=3600|39=1|37=64673f0ef2d4200|583=236291ae63c543f2|40=2|41=6928b92a097c4dc4|44=15.17|55=EC|54=1|59=0|63=4|60=20150520-14:06:36.483|453=1|448=XPUS|447=D|452=1|10=006|
20150520-14:06:49.865: 8=FIX.4.4|9=0389|35=8|49=FROMADRXBOG_XNYSE_BETA|56=LVBSG|34=253|52=20150520-14:06:49|50=FCST|115=FCHB|57=QXP018914|1=QXP018914|207=US|6=15.129786|11=-52bd100bd7cbb87f|14=3219|17=LVSXFIX2-385400000L00001H|21=1|150=F|31=15.17|151=381|32=100|100=US|38=3600|39=1|37=64673f0ef2d4200|583=236291ae63c543f2|40=2|41=6928b92a097c4dc4|44=15.17|55=EC|54=1|59=0|63=4|60=20150520-14:06:49.858|453=1|448=XPUS|447=D|452=1|10=025|
20150520-14:07:02.844: 8=FIX.4.4|9=298|35=G|34=177|49=LVBSG|50=QXP018914|52=20150520-14:07:02.844|56=FROMADRXBOG_XNYSE_BETA|57=FCST|128=FCHB|1=QXP018914|11=2c1bce8544cf4726|21=1|38=3600|40=2|41=-52bd100bd7cbb87f|44=15.18|54=1|55=EC|59=0|60=20150520-14:07:02.844|63=4|100=US|111=100|207=US|583=236291ae63c543f2|453=1|448=XPUS|447=D|452=1|10=092|
20150520-14:07:02.846: 8=FIX.4.4|9=0383|35=8|49=FROMADRXBOG_XNYSE_BETA|56=LVBSG|34=254|52=20150520-14:07:02|50=FCST|115=FCHB|57=QXP018914|1=QXP018914|207=US|6=15.129786|11=-52bd100bd7cbb87f|14=3219|17=LVSXFIX2-385400000L00001K|21=1|150=5|31=0|151=381|32=0|100=US|38=3600|39=1|37=64673f0ef2d4200|583=236291ae63c543f2|40=2|41=6928b92a097c4dc4|44=15.18|55=EC|54=1|59=0|63=4|60=20150520-14:07:02.839|453=1|448=XPUS|447=D|452=1|10=197|
20150520-14:07:02.851: 8=FIX.4.4|9=0388|35=8|49=FROMADRXBOG_XNYSE_BETA|56=LVBSG|34=255|52=20150520-14:07:02|50=FCST|115=FCHB|57=QXP018914|1=QXP018914|207=US|6=15.131018|11=-52bd100bd7cbb87f|14=3300|17=LVSXFIX2-385400000L00001L|21=1|150=F|31=15.18|151=300|32=81|100=US|38=3600|39=1|37=64673f0ef2d4200|583=236291ae63c543f2|40=2|41=6928b92a097c4dc4|44=15.18|55=EC|54=1|59=0|63=4|60=20150520-14:07:02.845|453=1|448=XPUS|447=D|452=1|10=187|
20150520-14:07:02.854: 8=FIX.4.4|9=0374|35=8|49=FROMADRXBOG_XNYSE_BETA|56=LVBSG|34=256|52=20150520-14:07:02|50=FCST|115=FCHB|57=QXP018914|1=QXP018914|207=US|6=15.131018|11=2c1bce8544cf4726|14=3300|17=6941c657053644e2|21=1|150=E|31=0|151=300|32=0|100=US|38=3600|39=E|37=64673f0ef2d4200|583=236291ae63c543f2|40=2|41=-52bd100bd7cbb87f|44=15.18|55=EC|54=1|59=0|63=4|60=20150520-14:07:02.849|453=1|448=XPUS|447=D|452=1|10=182|
20150520-14:07:02.859: 8=FIX.4.4|9=0388|35=8|49=FROMADRXBOG_XNYSE_BETA|56=LVBSG|34=257|52=20150520-14:07:02|50=FCST|115=FCHB|57=QXP018914|1=QXP018914|207=US|6=15.134519|11=-52bd100bd7cbb87f|14=3554|17=LVSXFIX2-385400000L00001M|21=1|150=F|31=15.18|151=46|32=254|100=US|38=3600|39=1|37=64673f0ef2d4200|583=236291ae63c543f2|40=2|41=6928b92a097c4dc4|44=15.18|55=EC|54=1|59=0|63=4|60=20150520-14:07:02.854|453=1|448=XPUS|447=D|452=1|10=219|
20150520-14:07:02.866: 8=FIX.4.4|9=0384|35=8|49=FROMADRXBOG_XNYSE_BETA|56=LVBSG|34=258|52=20150520-14:07:02|50=FCST|115=FCHB|57=QXP018914|1=QXP018914|207=US|6=15.1351|11=-52bd100bd7cbb87f|14=3600|17=LVSXFIX2-385400000L00001N|21=1|150=F|31=15.18|151=0|32=46|100=US|38=3600|39=2|37=64673f0ef2d4200|583=236291ae63c543f2|40=2|41=6928b92a097c4dc4|44=15.18|55=EC|54=1|59=0|63=4|60=20150520-14:07:02.859|453=1|448=XPUS|447=D|452=1|10=255|
20150520-14:07:02.980: 8=FIX.4.4|9=277|35=D|34=178|49=LVBSG|50=QXP018914|52=20150520-14:07:02.980|56=FROMADRXBOG_XNYSE_BETA|57=FCST|128=FCHB|1=QXP018914|11=1b992135b5814b55|21=1|38=1200|40=2|44=15.18|54=1|55=EC|59=0|60=20150520-14:07:02.980|63=4|100=US|111=100|207=US|583=236291ae63c543f2|453=1|448=XPUS|447=D|452=1|10=059|
20150520-14:07:02.990: 8=FIX.4.4|9=0343|35=8|49=FROMADRXBOG_XNYSE_BETA|56=LVBSG|34=259|52=20150520-14:07:02|50=FCST|115=FCHB|57=QXP018914|1=QXP018914|207=US|6=0|11=1b992135b5814b55|14=0|17=614a6630c2154f33|21=1|150=A|31=0|151=1200|32=0|100=US|38=1200|39=A|37=affeffdea4b43ab|583=236291ae63c543f2|40=2|44=15.18|55=EC|54=1|59=0|63=4|60=20150520-14:07:02.985|453=1|448=XPUS|447=D|452=1|10=057|
20150520-14:07:03.095: 8=FIX.4.4|9=0296|35=9|49=FROMADRXBOG_XNYSE_BETA|56=LVBSG|34=260|52=20150520-14:07:03|50=FCST|115=FCHB|57=QXP018914|1=QXP018914|39=8|37=64673f0ef2d4200|583=236291ae63c543f2|434=2|11=2c1bce8544cf4726|41=-52bd100bd7cbb87f|58=BLP_FIXNET: New order qty must be greater than previous order qty|60=20150520-14:07:03.090|10=180|
20150520-14:07:03.388: 8=FIX.4.4|9=0352|35=8|49=FROMADRXBOG_XNYSE_BETA|56=LVBSG|34=261|52=20150520-14:07:03|50=FCST|115=FCHB|57=QXP018914|1=QXP018914|207=US|6=0|11=1b992135b5814b55|14=0|17=LVSXFIX2-385400000N000002|21=1|150=0|31=0|151=1200|32=0|100=US|38=1200|39=0|37=affeffdea4b43ab|583=236291ae63c543f2|40=2|44=15.18|55=EC|54=1|59=0|63=4|60=20150520-14:07:03.383|453=1|448=XPUS|447=D|452=1|10=011|
20150520-14:07:23.014: 8=FIX.4.4|9=0364|35=8|49=FROMADRXBOG_XNYSE_BETA|56=LVBSG|34=262|52=20150520-14:07:23|50=FCST|115=FCHB|57=QXP018914|1=QXP018914|207=US|6=15.18|11=1b992135b5814b55|14=100|17=LVSXFIX2-385400000N000003|21=1|150=F|31=15.18|151=1100|32=100|100=US|38=1200|39=1|37=affeffdea4b43ab|583=236291ae63c543f2|40=2|44=15.18|55=EC|54=1|59=0|63=4|60=20150520-14:07:23.003|453=1|448=XPUS|447=D|452=1|10=123|
20150520-14:07:23.123: 8=FIX.4.4|9=0363|35=8|49=FROMADRXBOG_XNYSE_BETA|56=LVBSG|34=263|52=20150520-14:07:23|50=FCST|115=FCHB|57=QXP018914|1=QXP018914|207=US|6=15.18|11=1b992135b5814b55|14=300|17=LVSXFIX2-385400000N000004|21=1|150=F|31=15.18|151=900|32=200|100=US|38=1200|39=1|37=affeffdea4b43ab|583=236291ae63c543f2|40=2|44=15.18|55=EC|54=1|59=0|63=4|60=20150520-14:07:23.114|453=1|448=XPUS|447=D|452=1|10=089|
20150520-14:07:32.178: 8=FIX.4.4|9=298|35=G|34=179|49=LVBSG|50=QXP018914|52=20150520-14:07:32.178|56=FROMADRXBOG_XNYSE_BETA|57=FCST|128=FCHB|1=QXP018914|11=-6b6ea82482d9b001|21=1|38=3200|40=2|41=1b992135b5814b55|44=15.18|54=1|55=EC|59=0|60=20150520-14:07:32.178|63=4|100=US|111=100|207=US|583=236291ae63c543f2|453=1|448=XPUS|447=D|452=1|10=068|
20150520-14:07:32.197: 8=FIX.4.4|9=0370|35=8|49=FROMADRXBOG_XNYSE_BETA|56=LVBSG|34=264|52=20150520-14:07:32|50=FCST|115=FCHB|57=QXP018914|1=QXP018914|207=US|6=15.18|11=-6b6ea82482d9b001|14=300|17=-61cbfc9c72a5b4be|21=1|150=E|31=0|151=900|32=0|100=US|38=3200|39=E|37=affeffdea4b43ab|583=236291ae63c543f2|40=2|41=1b992135b5814b55|44=15.18|55=EC|54=1|59=0|63=4|60=20150520-14:07:32.190|453=1|448=XPUS|447=D|452=1|10=143|
20150520-14:07:32.603: 8=FIX.4.4|9=0379|35=8|49=FROMADRXBOG_XNYSE_BETA|56=LVBSG|34=265|52=20150520-14:07:32|50=FCST|115=FCHB|57=QXP018914|1=QXP018914|207=US|6=15.18|11=-6b6ea82482d9b001|14=300|17=LVSXFIX2-385400000N000007|21=1|150=5|31=0|151=2900|32=0|100=US|38=3200|39=1|37=affeffdea4b43ab|583=236291ae63c543f2|40=2|41=1b992135b5814b55|44=15.18|55=EC|54=1|59=0|63=4|60=20150520-14:07:32.596|453=1|448=XPUS|447=D|452=1|10=099|
20150520-14:08:32.600: 8=FIX.4.4|9=0068|35=0|49=FROMADRXBOG_XNYSE_BETA|56=LVBSG|34=266|52=20150520-14:08:32|10=004|
20150520-14:08:32.601: 8=FIX.4.4|9=72|35=0|34=180|49=LVBSG|52=20150520-14:08:32.600|56=FROMADRXBOG_XNYSE_BETA|10=094|
20150520-14:09:30.400: 8=FIX.4.4|9=0385|35=8|49=FROMADRXBOG_XNYSE_BETA|56=LVBSG|34=267|52=20150520-14:09:30|50=FCST|115=FCHB|57=QXP018914|1=QXP018914|207=US|6=15.18|11=-6b6ea82482d9b001|14=400|17=LVSXFIX2-385400000N000008|21=1|150=F|31=15.18|151=2800|32=100|100=US|38=3200|39=1|37=affeffdea4b43ab|583=236291ae63c543f2|40=2|41=1b992135b5814b55|44=15.18|55=EC|54=1|59=0|63=4|60=20150520-14:09:30.396|453=1|448=XPUS|447=D|452=1|10=160|
20150520-14:09:30.408: 8=FIX.4.4|9=0385|35=8|49=FROMADRXBOG_XNYSE_BETA|56=LVBSG|34=268|52=20150520-14:09:30|50=FCST|115=FCHB|57=QXP018914|1=QXP018914|207=US|6=15.18|11=-6b6ea82482d9b001|14=500|17=LVSXFIX2-385400000N000009|21=1|150=F|31=15.18|151=2700|32=100|100=US|38=3200|39=1|37=affeffdea4b43ab|583=236291ae63c543f2|40=2|41=1b992135b5814b55|44=15.18|55=EC|54=1|59=0|63=4|60=20150520-14:09:30.403|453=1|448=XPUS|447=D|452=1|10=151|
20150520-14:09:33.151: 8=FIX.4.4|9=72|35=0|34=181|49=LVBSG|52=20150520-14:09:33.151|56=FROMADRXBOG_XNYSE_BETA|10=098|
20150520-14:10:30.408: 8=FIX.4.4|9=0068|35=0|49=FROMADRXBOG_XNYSE_BETA|56=LVBSG|34=269|52=20150520-14:10:30|10=254|
20150520-14:10:33.151: 8=FIX.4.4|9=72|35=0|34=182|49=LVBSG|52=20150520-14:10:33.151|56=FROMADRXBOG_XNYSE_BETA|10=091|
20150520-14:11:30.408: 8=FIX.4.4|9=0068|35=0|49=FROMADRXBOG_XNYSE_BETA|56=LVBSG|34=270|52=20150520-14:11:30|10=247|
20150520-14:11:33.152: 8=FIX.4.4|9=72|35=0|34=183|49=LVBSG|52=20150520-14:11:33.152|56=FROMADRXBOG_XNYSE_BETA|10=094|
20150520-14:12:30.408: 8=FIX.4.4|9=0068|35=0|49=FROMADRXBOG_XNYSE_BETA|56=LVBSG|34=271|52=20150520-14:12:30|10=249|
20150520-14:12:34.151: 8=FIX.4.4|9=72|35=0|34=184|49=LVBSG|52=20150520-14:12:34.151|56=FROMADRXBOG_XNYSE_BETA|10=096|
20150520-14:12:42.145: 8=FIX.4.4|9=277|35=D|34=185|49=LVBSG|50=QXP018914|52=20150520-14:12:42.145|56=FROMADRXBOG_XNYSE_BETA|57=FCST|128=FCHB|1=QXP018914|11=566d3b60dec34285|21=1|38=800|40=2|44=44.67|54=5|55=CIB|59=0|60=20150520-14:12:42.145|63=4|100=US|111=100|207=US|583=-ee6c25b20e4bb0e|453=1|448=XPUS|447=D|452=1|10=098|
20150520-14:12:42.153: 8=FIX.4.4|9=0344|35=8|49=FROMADRXBOG_XNYSE_BETA|56=LVBSG|34=272|52=20150520-14:12:42|50=FCST|115=FCHB|57=QXP018914|1=QXP018914|207=US|6=0|11=566d3b60dec34285|14=0|17=13ee06ff695d4cd5|21=1|150=A|31=0|151=800|32=0|100=US|38=800|39=A|37=-357ec0abf037b556|583=-ee6c25b20e4bb0e|40=2|44=44.67|55=CIB|54=5|59=0|63=4|60=20150520-14:12:42.150|453=1|448=XPUS|447=D|452=1|10=068|
20150520-14:12:42.720: 8=FIX.4.4|9=0353|35=8|49=FROMADRXBOG_XNYSE_BETA|56=LVBSG|34=273|52=20150520-14:12:42|50=FCST|115=FCHB|57=QXP018914|1=QXP018914|207=US|6=0|11=566d3b60dec34285|14=0|17=LVSXFIX2-385400000R000002|21=1|150=0|31=0|151=800|32=0|100=US|38=800|39=0|37=-357ec0abf037b556|583=-ee6c25b20e4bb0e|40=2|44=44.67|55=CIB|54=5|59=0|63=4|60=20150520-14:12:42.716|453=1|448=XPUS|447=D|452=1|10=094|
20150520-14:12:42.723: 8=FIX.4.4|9=298|35=G|34=186|49=LVBSG|50=QXP018914|52=20150520-14:12:42.723|56=FROMADRXBOG_XNYSE_BETA|57=FCST|128=FCHB|1=QXP018914|11=6dafa1d99bd94b97|21=1|38=1000|40=2|41=566d3b60dec34285|44=44.67|54=5|55=CIB|59=0|60=20150520-11:50:38.337|63=4|100=US|111=100|207=US|583=-ee6c25b20e4bb0e|453=1|448=XPUS|447=D|452=1|10=012|
20150520-14:12:42.731: 8=FIX.4.4|9=0365|35=8|49=FROMADRXBOG_XNYSE_BETA|56=LVBSG|34=274|52=20150520-14:12:42|50=FCST|115=FCHB|57=QXP018914|1=QXP018914|207=US|6=0|11=6dafa1d99bd94b97|14=0|17=4f5ddb043efc4c41|21=1|150=E|31=0|151=800|32=0|100=US|38=1000|39=E|37=-357ec0abf037b556|583=-ee6c25b20e4bb0e|40=2|41=566d3b60dec34285|44=44.67|55=CIB|54=5|59=0|63=4|60=20150520-14:12:42.727|453=1|448=XPUS|447=D|452=1|10=023|
20150520-14:12:42.827: 8=FIX.4.4|9=0385|35=8|49=FROMADRXBOG_XNYSE_BETA|56=LVBSG|34=275|52=20150520-14:12:42|50=FCST|115=FCHB|57=QXP018914|1=QXP018914|207=US|6=44.69|11=6dafa1d99bd94b97|14=400|17=LVSXFIX2-385400000R000003|21=1|150=F|31=44.69|151=400|32=400|100=US|38=800|39=1|37=-357ec0abf037b556|583=-ee6c25b20e4bb0e|40=2|41=566d3b60dec34285|44=44.67|55=CIB|54=5|59=0|63=4|60=20150520-14:12:42.823|453=1|448=XPUS|447=D|452=1|10=091|
20150520-14:12:42.833: 8=FIX.4.4|9=0385|35=8|49=FROMADRXBOG_XNYSE_BETA|56=LVBSG|34=276|52=20150520-14:12:42|50=FCST|115=FCHB|57=QXP018914|1=QXP018914|207=US|6=44.69|11=6dafa1d99bd94b97|14=600|17=LVSXFIX2-385400000R000004|21=1|150=F|31=44.69|151=200|32=200|100=US|38=800|39=1|37=-357ec0abf037b556|583=-ee6c25b20e4bb0e|40=2|41=566d3b60dec34285|44=44.67|55=CIB|54=5|59=0|63=4|60=20150520-14:12:42.830|453=1|448=XPUS|447=D|452=1|10=089|
20150520-14:12:42.836: 8=FIX.4.4|9=0389|35=8|49=FROMADRXBOG_XNYSE_BETA|56=LVBSG|34=277|52=20150520-14:12:42|50=FCST|115=FCHB|57=QXP018914|1=QXP018914|207=US|6=44.688571|11=6dafa1d99bd94b97|14=700|17=LVSXFIX2-385400000R000005|21=1|150=F|31=44.68|151=100|32=100|100=US|38=800|39=1|37=-357ec0abf037b556|583=-ee6c25b20e4bb0e|40=2|41=566d3b60dec34285|44=44.67|55=CIB|54=5|59=0|63=4|60=20150520-14:12:42.832|453=1|448=XPUS|447=D|452=1|10=051|
20150520-14:12:42.917: 8=FIX.4.4|9=0386|35=8|49=FROMADRXBOG_XNYSE_BETA|56=LVBSG|34=278|52=20150520-14:12:42|50=FCST|115=FCHB|57=QXP018914|1=QXP018914|207=US|6=44.68625|11=6dafa1d99bd94b97|14=800|17=LVSXFIX2-385400000R000006|21=1|150=F|31=44.67|151=0|32=100|100=US|38=800|39=2|37=-357ec0abf037b556|583=-ee6c25b20e4bb0e|40=2|41=566d3b60dec34285|44=44.67|55=CIB|54=5|59=0|63=4|60=20150520-14:12:42.913|453=1|448=XPUS|447=D|452=1|10=154|
20150520-14:12:43.042: 8=FIX.4.4|9=278|35=D|34=187|49=LVBSG|50=QXP018914|52=20150520-14:12:43.042|56=FROMADRXBOG_XNYSE_BETA|57=FCST|128=FCHB|1=QXP018914|11=-6ead0bb49c8db9da|21=1|38=300|40=2|44=44.66|54=5|55=CIB|59=0|60=20150520-14:12:43.042|63=4|100=US|111=100|207=US|583=-ee6c25b20e4bb0e|453=1|448=XPUS|447=D|452=1|10=116|
20150520-14:12:43.051: 8=FIX.4.4|9=0345|35=8|49=FROMADRXBOG_XNYSE_BETA|56=LVBSG|34=279|52=20150520-14:12:43|50=FCST|115=FCHB|57=QXP018914|1=QXP018914|207=US|6=0|11=-6ead0bb49c8db9da|14=0|17=-65dcfa7af091b5db|21=1|150=A|31=0|151=300|32=0|100=US|38=300|39=A|37=35377e9bf5764e02|583=-ee6c25b20e4bb0e|40=2|44=44.66|55=CIB|54=5|59=0|63=4|60=20150520-14:12:43.047|453=1|448=XPUS|447=D|452=1|10=105|
20150520-14:12:43.118: 8=FIX.4.4|9=0383|35=8|49=FROMADRXBOG_XNYSE_BETA|56=LVBSG|34=280|52=20150520-14:12:43|50=FCST|115=FCHB|57=QXP018914|1=QXP018914|207=US|6=44.68625|11=6dafa1d99bd94b97|14=800|17=LVSXFIX2-385400000R000008|21=1|150=5|31=0|151=200|32=0|100=US|38=1000|39=1|37=-357ec0abf037b556|583=-ee6c25b20e4bb0e|40=2|41=566d3b60dec34285|44=44.67|55=CIB|54=5|59=0|63=4|60=20150520-14:12:43.113|453=1|448=XPUS|447=D|452=1|10=209|
20150520-14:12:43.119: 8=FIX.4.4|9=299|35=G|34=188|49=LVBSG|50=QXP018914|52=20150520-14:12:43.119|56=FROMADRXBOG_XNYSE_BETA|57=FCST|128=FCHB|1=QXP018914|11=-7a551969f58bb58f|21=1|38=1700|40=2|41=6dafa1d99bd94b97|44=44.67|54=5|55=CIB|59=0|60=20150520-11:50:38.337|63=4|100=US|111=100|207=US|583=-ee6c25b20e4bb0e|453=1|448=XPUS|447=D|452=1|10=086|
20150520-14:12:43.127: 8=FIX.4.4|9=0375|35=8|49=FROMADRXBOG_XNYSE_BETA|56=LVBSG|34=281|52=20150520-14:12:43|50=FCST|115=FCHB|57=QXP018914|1=QXP018914|207=US|6=44.68625|11=-7a551969f58bb58f|14=800|17=49ed6fc47b174db5|21=1|150=E|31=0|151=200|32=0|100=US|38=1700|39=E|37=-357ec0abf037b556|583=-ee6c25b20e4bb0e|40=2|41=6dafa1d99bd94b97|44=44.67|55=CIB|54=5|59=0|63=4|60=20150520-14:12:43.123|453=1|448=XPUS|447=D|452=1|10=007|
20150520-14:12:43.543: 8=FIX.4.4|9=0353|35=8|49=FROMADRXBOG_XNYSE_BETA|56=LVBSG|34=282|52=20150520-14:12:43|50=FCST|115=FCHB|57=QXP018914|1=QXP018914|207=US|6=0|11=-6ead0bb49c8db9da|14=0|17=LVSXFIX2-385400000S000002|21=1|150=0|31=0|151=300|32=0|100=US|38=300|39=0|37=35377e9bf5764e02|583=-ee6c25b20e4bb0e|40=2|44=44.66|55=CIB|54=5|59=0|63=4|60=20150520-14:12:43.538|453=1|448=XPUS|447=D|452=1|10=246|
20150520-14:12:43.560: 8=FIX.4.4|9=0384|35=8|49=FROMADRXBOG_XNYSE_BETA|56=LVBSG|34=283|52=20150520-14:12:43|50=FCST|115=FCHB|57=QXP018914|1=QXP018914|207=US|6=44.68625|11=-7a551969f58bb58f|14=800|17=LVSXFIX2-385400000R00000B|21=1|150=5|31=0|151=900|32=0|100=US|38=1700|39=1|37=-357ec0abf037b556|583=-ee6c25b20e4bb0e|40=2|41=6dafa1d99bd94b97|44=44.67|55=CIB|54=5|59=0|63=4|60=20150520-14:12:43.556|453=1|448=XPUS|447=D|452=1|10=056|
20150520-14:12:43.789: 8=FIX.4.4|9=299|35=G|34=189|49=LVBSG|50=QXP018914|52=20150520-14:12:43.789|56=FROMADRXBOG_XNYSE_BETA|57=FCST|128=FCHB|1=QXP018914|11=374db4a0864b4704|21=1|38=1700|40=2|41=-7a551969f58bb58f|44=44.64|54=5|55=CIB|59=0|60=20150520-14:12:43.789|63=4|100=US|111=100|207=US|583=-ee6c25b20e4bb0e|453=1|448=XPUS|447=D|452=1|10=151|
20150520-14:12:43.798: 8=FIX.4.4|9=0376|35=8|49=FROMADRXBOG_XNYSE_BETA|56=LVBSG|34=284|52=20150520-14:12:43|50=FCST|115=FCHB|57=QXP018914|1=QXP018914|207=US|6=44.68625|11=374db4a0864b4704|14=800|17=-2a5bf7d5c48bbc2e|21=1|150=E|31=0|151=900|32=0|100=US|38=1700|39=E|37=-357ec0abf037b556|583=-ee6c25b20e4bb0e|40=2|41=-7a551969f58bb58f|44=44.64|55=CIB|54=5|59=0|63=4|60=20150520-14:12:43.794|453=1|448=XPUS|447=D|452=1|10=204|
20150520-14:12:44.230: 8=FIX.4.4|9=0384|35=8|49=FROMADRXBOG_XNYSE_BETA|56=LVBSG|34=285|52=20150520-14:12:44|50=FCST|115=FCHB|57=QXP018914|1=QXP018914|207=US|6=44.68625|11=374db4a0864b4704|14=800|17=LVSXFIX2-385400000R00000E|21=1|150=5|31=0|151=900|32=0|100=US|38=1700|39=1|37=-357ec0abf037b556|583=-ee6c25b20e4bb0e|40=2|41=-7a551969f58bb58f|44=44.64|55=CIB|54=5|59=0|63=4|60=20150520-14:12:44.226|453=1|448=XPUS|447=D|452=1|10=100|
20150520-14:12:44.869: 8=FIX.4.4|9=0385|35=8|49=FROMADRXBOG_XNYSE_BETA|56=LVBSG|34=286|52=20150520-14:12:44|50=FCST|115=FCHB|57=QXP018914|1=QXP018914|207=US|6=15.18|11=-6b6ea82482d9b001|14=600|17=LVSXFIX2-385400000N00000A|21=1|150=F|31=15.18|151=2600|32=100|100=US|38=3200|39=1|37=affeffdea4b43ab|583=236291ae63c543f2|40=2|41=1b992135b5814b55|44=15.18|55=EC|54=1|59=0|63=4|60=20150520-14:12:44.865|453=1|448=XPUS|447=D|452=1|10=169|
20150520-14:12:44.987: 8=FIX.4.4|9=0385|35=8|49=FROMADRXBOG_XNYSE_BETA|56=LVBSG|34=287|52=20150520-14:12:44|50=FCST|115=FCHB|57=QXP018914|1=QXP018914|207=US|6=15.18|11=-6b6ea82482d9b001|14=700|17=LVSXFIX2-385400000N00000B|21=1|150=F|31=15.18|151=2500|32=100|100=US|38=3200|39=1|37=affeffdea4b43ab|583=236291ae63c543f2|40=2|41=1b992135b5814b55|44=15.18|55=EC|54=1|59=0|63=4|60=20150520-14:12:44.983|453=1|448=XPUS|447=D|452=1|10=172|
20150520-14:12:49.105: 8=FIX.4.4|9=0391|35=8|49=FROMADRXBOG_XNYSE_BETA|56=LVBSG|34=288|52=20150520-14:12:49|50=FCST|115=FCHB|57=QXP018914|1=QXP018914|207=US|6=44.681111|11=374db4a0864b4704|14=900|17=LVSXFIX2-385400000R00000F|21=1|150=F|31=44.64|151=800|32=100|100=US|38=1700|39=1|37=-357ec0abf037b556|583=-ee6c25b20e4bb0e|40=2|41=-7a551969f58bb58f|44=44.64|55=CIB|54=5|59=0|63=4|60=20150520-14:12:49.101|453=1|448=XPUS|447=D|452=1|10=209|
20150520-14:12:49.213: 8=FIX.4.4|9=0389|35=8|49=FROMADRXBOG_XNYSE_BETA|56=LVBSG|34=289|52=20150520-14:12:49|50=FCST|115=FCHB|57=QXP018914|1=QXP018914|207=US|6=44.677|11=374db4a0864b4704|14=1000|17=LVSXFIX2-385400000R00000G|21=1|150=F|31=44.64|151=700|32=100|100=US|38=1700|39=1|37=-357ec0abf037b556|583=-ee6c25b20e4bb0e|40=2|41=-7a551969f58bb58f|44=44.64|55=CIB|54=5|59=0|63=4|60=20150520-14:12:49.208|453=1|448=XPUS|447=D|452=1|10=123|
20150520-14:12:49.214: 8=FIX.4.4|9=0392|35=8|49=FROMADRXBOG_XNYSE_BETA|56=LVBSG|34=290|52=20150520-14:12:49|50=FCST|115=FCHB|57=QXP018914|1=QXP018914|207=US|6=44.673636|11=374db4a0864b4704|14=1100|17=LVSXFIX2-385400000R00000H|21=1|150=F|31=44.64|151=600|32=100|100=US|38=1700|39=1|37=-357ec0abf037b556|583=-ee6c25b20e4bb0e|40=2|41=-7a551969f58bb58f|44=44.64|55=CIB|54=5|59=0|63=4|60=20150520-14:12:49.209|453=1|448=XPUS|447=D|452=1|10=010|
20150520-14:12:49.216: 8=FIX.4.4|9=0392|35=8|49=FROMADRXBOG_XNYSE_BETA|56=LVBSG|34=291|52=20150520-14:12:49|50=FCST|115=FCHB|57=QXP018914|1=QXP018914|207=US|6=44.670833|11=374db4a0864b4704|14=1200|17=LVSXFIX2-385400000R00000I|21=1|150=F|31=44.64|151=500|32=100|100=US|38=1700|39=1|37=-357ec0abf037b556|583=-ee6c25b20e4bb0e|40=2|41=-7a551969f58bb58f|44=44.64|55=CIB|54=5|59=0|63=4|60=20150520-14:12:49.212|453=1|448=XPUS|447=D|452=1|10=002|
20150520-14:12:49.218: 8=FIX.4.4|9=0392|35=8|49=FROMADRXBOG_XNYSE_BETA|56=LVBSG|34=292|52=20150520-14:12:49|50=FCST|115=FCHB|57=QXP018914|1=QXP018914|207=US|6=44.668462|11=374db4a0864b4704|14=1300|17=LVSXFIX2-385400000R00000J|21=1|150=F|31=44.64|151=400|32=100|100=US|38=1700|39=1|37=-357ec0abf037b556|583=-ee6c25b20e4bb0e|40=2|41=-7a551969f58bb58f|44=44.64|55=CIB|54=5|59=0|63=4|60=20150520-14:12:49.214|453=1|448=XPUS|447=D|452=1|10=011|
20150520-14:12:49.219: 8=FIX.4.4|9=0392|35=8|49=FROMADRXBOG_XNYSE_BETA|56=LVBSG|34=293|52=20150520-14:12:49|50=FCST|115=FCHB|57=QXP018914|1=QXP018914|207=US|6=44.666429|11=374db4a0864b4704|14=1400|17=LVSXFIX2-385400000R00000K|21=1|150=F|31=44.64|151=300|32=100|100=US|38=1700|39=1|37=-357ec0abf037b556|583=-ee6c25b20e4bb0e|40=2|41=-7a551969f58bb58f|44=44.64|55=CIB|54=5|59=0|63=4|60=20150520-14:12:49.214|453=1|448=XPUS|447=D|452=1|10=014|
20150520-14:12:49.283: 8=FIX.4.4|9=0392|35=8|49=FROMADRXBOG_XNYSE_BETA|56=LVBSG|34=294|52=20150520-14:12:49|50=FCST|115=FCHB|57=QXP018914|1=QXP018914|207=US|6=44.664667|11=374db4a0864b4704|14=1500|17=LVSXFIX2-385400000R00000L|21=1|150=F|31=44.64|151=200|32=100|100=US|38=1700|39=1|37=-357ec0abf037b556|583=-ee6c25b20e4bb0e|40=2|41=-7a551969f58bb58f|44=44.64|55=CIB|54=5|59=0|63=4|60=20150520-14:12:49.279|453=1|448=XPUS|447=D|452=1|10=029|
20150520-14:12:49.304: 8=FIX.4.4|9=0390|35=8|49=FROMADRXBOG_XNYSE_BETA|56=LVBSG|34=295|52=20150520-14:12:49|50=FCST|115=FCHB|57=QXP018914|1=QXP018914|207=US|6=44.661765|11=374db4a0864b4704|14=1700|17=LVSXFIX2-385400000R00000M|21=1|150=F|31=44.64|151=0|32=200|100=US|38=1700|39=2|37=-357ec0abf037b556|583=-ee6c25b20e4bb0e|40=2|41=-7a551969f58bb58f|44=44.64|55=CIB|54=5|59=0|63=4|60=20150520-14:12:49.301|453=1|448=XPUS|447=D|452=1|10=173|
20150520-14:13:02.747: 8=FIX.4.4|9=298|35=G|34=190|49=LVBSG|50=QXP018914|52=20150520-14:13:02.747|56=FROMADRXBOG_XNYSE_BETA|57=FCST|128=FCHB|1=QXP018914|11=18cb336b885c46ec|21=1|38=3200|40=2|41=-6b6ea82482d9b001|44=15.19|54=1|55=EC|59=0|60=20150520-14:13:02.747|63=4|100=US|111=100|207=US|583=236291ae63c543f2|453=1|448=XPUS|447=D|452=1|10=204|
20150520-14:13:02.756: 8=FIX.4.4|9=0370|35=8|49=FROMADRXBOG_XNYSE_BETA|56=LVBSG|34=296|52=20150520-14:13:02|50=FCST|115=FCHB|57=QXP018914|1=QXP018914|207=US|6=15.18|11=18cb336b885c46ec|14=700|17=58f9dae308dc46e9|21=1|150=E|31=0|151=2500|32=0|100=US|38=3200|39=E|37=affeffdea4b43ab|583=236291ae63c543f2|40=2|41=-6b6ea82482d9b001|44=15.19|55=EC|54=1|59=0|63=4|60=20150520-14:13:02.751|453=1|448=XPUS|447=D|452=1|10=218|
