20150520-11:16:08.227: 8=FIX.4.4|9=61|35=5|34=1|49=ADRARBXBOG|52=20150520-11:16:08.227|56=AMGTOBVC|10=002|
20150520-11:16:09.164: 8=FIX.4.4|9=61|35=5|34=1|49=ADRARBXBOG|52=20150520-11:16:09.164|56=AMGTOBVC|10=003|
20150520-11:16:10.159: 8=FIX.4.4|9=79|35=A|34=1|49=ADRARBXBOG|52=20150520-11:16:10.159|56=AMGTOBVC|98=0|108=60|141=Y|10=093|
20150520-11:16:10.169: 8=FIX.4.4|9=79|35=A|34=1|49=AMGTOBVC|56=ADRARBXBOG|52=20150520-11:16:10.140|108=60|98=0|141=Y|10=083|
20150520-11:16:10.171: 8=FIX.4.4|9=72|35=1|34=2|49=AMGTOBVC|56=ADRARBXBOG|52=20150520-11:16:10.140|112=STBL-2|10=090|
20150520-11:16:10.208: 8=FIX.4.4|9=72|35=0|34=2|49=ADRARBXBOG|52=20150520-11:16:10.208|56=AMGTOBVC|112=STBL-2|10=094|
20150520-11:17:10.660: 8=FIX.4.4|9=61|35=0|34=3|49=AMGTOBVC|56=ADRARBXBOG|52=20150520-11:17:10.636|10=253|
20150520-11:17:10.661: 8=FIX.4.4|9=61|35=0|34=3|49=ADRARBXBOG|52=20150520-11:17:10.661|56=AMGTOBVC|10=251|
20150520-11:18:10.989: 8=FIX.4.4|9=61|35=0|34=4|49=AMGTOBVC|56=ADRARBXBOG|52=20150520-11:18:10.960|10=255|
20150520-11:18:10.990: 8=FIX.4.4|9=61|35=0|34=4|49=ADRARBXBOG|52=20150520-11:18:10.990|56=AMGTOBVC|10=002|
20150520-11:19:11.151: 8=FIX.4.4|9=61|35=0|34=5|49=ADRARBXBOG|52=20150520-11:19:11.151|56=AMGTOBVC|10=250|
20150520-11:19:11.264: 8=FIX.4.4|9=61|35=0|34=5|49=AMGTOBVC|56=ADRARBXBOG|52=20150520-11:19:11.237|10=255|
20150520-11:20:11.152: 8=FIX.4.4|9=61|35=0|34=6|49=ADRARBXBOG|52=20150520-11:20:11.152|56=AMGTOBVC|10=244|
20150520-11:20:11.588: 8=FIX.4.4|9=61|35=0|34=6|49=AMGTOBVC|56=ADRARBXBOG|52=20150520-11:20:11.561|10=248|
20150520-11:21:11.772: 8=FIX.4.4|9=61|35=0|34=7|49=AMGTOBVC|56=ADRARBXBOG|52=20150520-11:21:11.745|10=254|
20150520-11:21:11.772: 8=FIX.4.4|9=61|35=0|34=7|49=ADRARBXBOG|52=20150520-11:21:11.772|56=AMGTOBVC|10=254|
20150520-11:22:12.096: 8=FIX.4.4|9=61|35=0|34=8|49=AMGTOBVC|56=ADRARBXBOG|52=20150520-11:22:12.069|10=000|
20150520-11:22:12.097: 8=FIX.4.4|9=61|35=0|34=8|49=ADRARBXBOG|52=20150520-11:22:12.097|56=AMGTOBVC|10=001|
20150520-11:23:12.152: 8=FIX.4.4|9=61|35=0|34=9|49=ADRARBXBOG|52=20150520-11:23:12.152|56=AMGTOBVC|10=251|
20150520-11:23:12.395: 8=FIX.4.4|9=61|35=0|34=9|49=AMGTOBVC|56=ADRARBXBOG|52=20150520-11:23:12.362|10=254|
20150520-11:24:12.700: 8=FIX.4.4|9=62|35=0|34=10|49=AMGTOBVC|56=ADRARBXBOG|52=20150520-11:24:12.670|10=042|
20150520-11:24:12.700: 8=FIX.4.4|9=62|35=0|34=10|49=ADRARBXBOG|52=20150520-11:24:12.700|56=AMGTOBVC|10=036|
20150520-11:25:13.023: 8=FIX.4.4|9=62|35=0|34=11|49=AMGTOBVC|56=ADRARBXBOG|52=20150520-11:25:12.994|10=053|
20150520-11:25:13.024: 8=FIX.4.4|9=62|35=0|34=11|49=ADRARBXBOG|52=20150520-11:25:13.024|56=AMGTOBVC|10=038|
20150520-11:26:13.152: 8=FIX.4.4|9=62|35=0|34=12|49=ADRARBXBOG|52=20150520-11:26:13.152|56=AMGTOBVC|10=042|
20150520-11:26:13.311: 8=FIX.4.4|9=62|35=0|34=12|49=AMGTOBVC|56=ADRARBXBOG|52=20150520-11:26:13.272|10=045|
20150520-11:27:13.152: 8=FIX.4.4|9=62|35=0|34=13|49=ADRARBXBOG|52=20150520-11:27:13.152|56=AMGTOBVC|10=044|
20150520-11:27:13.659: 8=FIX.4.4|9=62|35=0|34=13|49=AMGTOBVC|56=ADRARBXBOG|52=20150520-11:27:13.627|10=051|
20150520-11:28:13.966: 8=FIX.4.4|9=62|35=0|34=14|49=AMGTOBVC|56=ADRARBXBOG|52=20150520-11:28:13.935|10=055|
20150520-11:28:13.967: 8=FIX.4.4|9=62|35=0|34=14|49=ADRARBXBOG|52=20150520-11:28:13.967|56=AMGTOBVC|10=060|
20150520-11:29:14.151: 8=FIX.4.4|9=62|35=0|34=15|49=ADRARBXBOG|52=20150520-11:29:14.151|56=AMGTOBVC|10=048|
20150520-11:29:14.322: 8=FIX.4.4|9=62|35=0|34=15|49=AMGTOBVC|56=ADRARBXBOG|52=20150520-11:29:14.291|10=053|
20150520-11:30:14.152: 8=FIX.4.4|9=62|35=0|34=16|49=ADRARBXBOG|52=20150520-11:30:14.152|56=AMGTOBVC|10=042|
20150520-11:30:14.652: 8=FIX.4.4|9=62|35=0|34=16|49=AMGTOBVC|56=ADRARBXBOG|52=20150520-11:30:14.615|10=046|
20150520-11:31:14.940: 8=FIX.4.4|9=62|35=0|34=17|49=AMGTOBVC|56=ADRARBXBOG|52=20150520-11:31:14.907|10=052|
20150520-11:31:14.940: 8=FIX.4.4|9=62|35=0|34=17|49=ADRARBXBOG|52=20150520-11:31:14.940|56=AMGTOBVC|10=049|
20150520-11:32:15.151: 8=FIX.4.4|9=62|35=0|34=18|49=ADRARBXBOG|52=20150520-11:32:15.151|56=AMGTOBVC|10=046|
20150520-11:32:15.266: 8=FIX.4.4|9=62|35=0|34=18|49=AMGTOBVC|56=ADRARBXBOG|52=20150520-11:32:15.231|10=045|
20150520-11:33:15.151: 8=FIX.4.4|9=62|35=0|34=19|49=ADRARBXBOG|52=20150520-11:33:15.151|56=AMGTOBVC|10=048|
20150520-11:33:15.575: 8=FIX.4.4|9=62|35=0|34=19|49=AMGTOBVC|56=ADRARBXBOG|52=20150520-11:33:15.540|10=050|
20150520-11:34:15.151: 8=FIX.4.4|9=62|35=0|34=20|49=ADRARBXBOG|52=20150520-11:34:15.151|56=AMGTOBVC|10=041|
20150520-11:34:15.899: 8=FIX.4.4|9=62|35=0|34=20|49=AMGTOBVC|56=ADRARBXBOG|52=20150520-11:34:15.867|10=055|
20150520-11:35:15.152: 8=FIX.4.4|9=62|35=0|34=21|49=ADRARBXBOG|52=20150520-11:35:15.152|56=AMGTOBVC|10=044|
20150520-11:35:16.177: 8=FIX.4.4|9=62|35=0|34=21|49=AMGTOBVC|56=ADRARBXBOG|52=20150520-11:35:16.148|10=050|
20150520-11:36:16.151: 8=FIX.4.4|9=62|35=0|34=22|49=ADRARBXBOG|52=20150520-11:36:16.151|56=AMGTOBVC|10=046|
20150520-11:36:16.500: 8=FIX.4.4|9=62|35=0|34=22|49=AMGTOBVC|56=ADRARBXBOG|52=20150520-11:36:16.476|10=056|
20150520-11:37:16.151: 8=FIX.4.4|9=62|35=0|34=23|49=ADRARBXBOG|52=20150520-11:37:16.151|56=AMGTOBVC|10=048|
20150520-11:37:16.825: 8=FIX.4.4|9=62|35=0|34=23|49=AMGTOBVC|56=ADRARBXBOG|52=20150520-11:37:16.805|10=054|
20150520-11:38:16.152: 8=FIX.4.4|9=62|35=0|34=24|49=ADRARBXBOG|52=20150520-11:38:16.152|56=AMGTOBVC|10=051|
20150520-11:38:17.139: 8=FIX.4.4|9=62|35=0|34=24|49=AMGTOBVC|56=ADRARBXBOG|52=20150520-11:38:17.117|10=053|
20150520-11:39:16.152: 8=FIX.4.4|9=62|35=0|34=25|49=ADRARBXBOG|52=20150520-11:39:16.152|56=AMGTOBVC|10=053|
20150520-11:39:17.303: 8=FIX.4.4|9=62|35=0|34=25|49=AMGTOBVC|56=ADRARBXBOG|52=20150520-11:39:17.288|10=064|
20150520-11:40:17.152: 8=FIX.4.4|9=62|35=0|34=26|49=ADRARBXBOG|52=20150520-11:40:17.151|56=AMGTOBVC|10=046|
20150520-11:40:17.689: 8=FIX.4.4|9=62|35=0|34=26|49=AMGTOBVC|56=ADRARBXBOG|52=20150520-11:40:17.676|10=058|
20150520-11:41:17.152: 8=FIX.4.4|9=62|35=0|34=27|49=ADRARBXBOG|52=20150520-11:41:17.152|56=AMGTOBVC|10=049|
20150520-11:41:17.985: 8=FIX.4.4|9=62|35=0|34=27|49=AMGTOBVC|56=ADRARBXBOG|52=20150520-11:41:17.970|10=057|
20150520-11:42:18.151: 8=FIX.4.4|9=62|35=0|34=28|49=ADRARBXBOG|52=20150520-11:42:18.151|56=AMGTOBVC|10=051|
20150520-11:42:18.322: 8=FIX.4.4|9=62|35=0|34=28|49=AMGTOBVC|56=ADRARBXBOG|52=20150520-11:42:18.311|10=049|
20150520-11:43:18.151: 8=FIX.4.4|9=62|35=0|34=29|49=ADRARBXBOG|52=20150520-11:43:18.151|56=AMGTOBVC|10=053|
20150520-11:43:18.642: 8=FIX.4.4|9=62|35=0|34=29|49=AMGTOBVC|56=ADRARBXBOG|52=20150520-11:43:18.621|10=055|
20150520-11:44:18.151: 8=FIX.4.4|9=62|35=0|34=30|49=ADRARBXBOG|52=20150520-11:44:18.151|56=AMGTOBVC|10=046|
20150520-11:44:18.910: 8=FIX.4.4|9=62|35=0|34=30|49=AMGTOBVC|56=ADRARBXBOG|52=20150520-11:44:18.900|10=048|
20150520-11:45:18.152: 8=FIX.4.4|9=62|35=0|34=31|49=ADRARBXBOG|52=20150520-11:45:18.152|56=AMGTOBVC|10=049|
20150520-11:45:19.241: 8=FIX.4.4|9=62|35=0|34=31|49=AMGTOBVC|56=ADRARBXBOG|52=20150520-11:45:19.225|10=051|
20150520-11:46:19.151: 8=FIX.4.4|9=62|35=0|34=32|49=ADRARBXBOG|52=20150520-11:46:19.151|56=AMGTOBVC|10=051|
20150520-11:46:19.575: 8=FIX.4.4|9=62|35=0|34=32|49=AMGTOBVC|56=ADRARBXBOG|52=20150520-11:46:19.565|10=060|
20150520-11:47:19.152: 8=FIX.4.4|9=62|35=0|34=33|49=ADRARBXBOG|52=20150520-11:47:19.152|56=AMGTOBVC|10=054|
20150520-11:47:19.931: 8=FIX.4.4|9=62|35=0|34=33|49=AMGTOBVC|56=ADRARBXBOG|52=20150520-11:47:19.921|10=058|
20150520-11:48:20.152: 8=FIX.4.4|9=62|35=0|34=34|49=ADRARBXBOG|52=20150520-11:48:20.151|56=AMGTOBVC|10=047|
20150520-11:48:20.254: 8=FIX.4.4|9=62|35=0|34=34|49=AMGTOBVC|56=ADRARBXBOG|52=20150520-11:48:20.246|10=052|
20150520-11:49:20.151: 8=FIX.4.4|9=62|35=0|34=35|49=ADRARBXBOG|52=20150520-11:49:20.151|56=AMGTOBVC|10=049|
20150520-11:49:20.626: 8=FIX.4.4|9=62|35=0|34=35|49=AMGTOBVC|56=ADRARBXBOG|52=20150520-11:49:20.617|10=056|
20150520-11:50:20.151: 8=FIX.4.4|9=62|35=0|34=36|49=ADRARBXBOG|52=20150520-11:50:20.151|56=AMGTOBVC|10=042|
20150520-11:50:20.950: 8=FIX.4.4|9=62|35=0|34=36|49=AMGTOBVC|56=ADRARBXBOG|52=20150520-11:50:20.941|10=049|
20150520-11:51:20.152: 8=FIX.4.4|9=62|35=0|34=37|49=ADRARBXBOG|52=20150520-11:51:20.152|56=AMGTOBVC|10=045|
20150520-11:51:21.244: 8=FIX.4.4|9=62|35=0|34=37|49=AMGTOBVC|56=ADRARBXBOG|52=20150520-11:51:21.234|10=047|
20150520-11:52:20.152: 8=FIX.4.4|9=62|35=0|34=38|49=ADRARBXBOG|52=20150520-11:52:20.152|56=AMGTOBVC|10=047|
20150520-11:52:21.273: 8=FIX.4.4|9=62|35=0|34=38|49=AMGTOBVC|56=ADRARBXBOG|52=20150520-11:52:21.261|10=049|
20150520-11:53:21.151: 8=FIX.4.4|9=62|35=0|34=39|49=ADRARBXBOG|52=20150520-11:53:21.151|56=AMGTOBVC|10=049|
20150520-11:53:21.646: 8=FIX.4.4|9=62|35=0|34=39|49=AMGTOBVC|56=ADRARBXBOG|52=20150520-11:53:21.632|10=053|
20150520-11:54:21.152: 8=FIX.4.4|9=62|35=0|34=40|49=ADRARBXBOG|52=20150520-11:54:21.152|56=AMGTOBVC|10=043|
20150520-11:54:22.095: 8=FIX.4.4|9=62|35=0|34=40|49=AMGTOBVC|56=ADRARBXBOG|52=20150520-11:54:22.081|10=045|
20150520-11:55:22.151: 8=FIX.4.4|9=62|35=0|34=41|49=ADRARBXBOG|52=20150520-11:55:22.151|56=AMGTOBVC|10=045|
20150520-11:55:22.529: 8=FIX.4.4|9=62|35=0|34=41|49=AMGTOBVC|56=ADRARBXBOG|52=20150520-11:55:22.514|10=048|
20150520-11:56:22.152: 8=FIX.4.4|9=62|35=0|34=42|49=ADRARBXBOG|52=20150520-11:56:22.152|56=AMGTOBVC|10=048|
20150520-11:56:22.837: 8=FIX.4.4|9=62|35=0|34=42|49=AMGTOBVC|56=ADRARBXBOG|52=20150520-11:56:22.823|10=053|
20150520-11:57:22.848: 8=FIX.4.4|9=62|35=0|34=43|49=AMGTOBVC|56=ADRARBXBOG|52=20150520-11:57:22.835|10=058|
20150520-11:57:22.849: 8=FIX.4.4|9=62|35=0|34=43|49=ADRARBXBOG|52=20150520-11:57:22.849|56=AMGTOBVC|10=063|
20150520-11:58:23.151: 8=FIX.4.4|9=62|35=0|34=44|49=ADRARBXBOG|52=20150520-11:58:23.151|56=AMGTOBVC|10=052|
20150520-11:58:23.220: 8=FIX.4.4|9=62|35=0|34=44|49=AMGTOBVC|56=ADRARBXBOG|52=20150520-11:58:23.206|10=053|
20150520-11:59:23.152: 8=FIX.4.4|9=62|35=0|34=45|49=ADRARBXBOG|52=20150520-11:59:23.152|56=AMGTOBVC|10=055|
20150520-11:59:23.546: 8=FIX.4.4|9=62|35=0|34=45|49=AMGTOBVC|56=ADRARBXBOG|52=20150520-11:59:23.530|10=055|
20150520-12:00:23.152: 8=FIX.4.4|9=62|35=0|34=46|49=ADRARBXBOG|52=20150520-12:00:23.152|56=AMGTOBVC|10=043|
20150520-12:00:23.918: 8=FIX.4.4|9=62|35=0|34=46|49=AMGTOBVC|56=ADRARBXBOG|52=20150520-12:00:23.900|10=044|
20150520-12:01:24.151: 8=FIX.4.4|9=62|35=0|34=47|49=ADRARBXBOG|52=20150520-12:01:24.151|56=AMGTOBVC|10=045|
20150520-12:01:24.318: 8=FIX.4.4|9=62|35=0|34=47|49=AMGTOBVC|56=ADRARBXBOG|52=20150520-12:01:24.303|10=044|
20150520-12:02:24.152: 8=FIX.4.4|9=62|35=0|34=48|49=ADRARBXBOG|52=20150520-12:02:24.152|56=AMGTOBVC|10=048|
20150520-12:02:24.611: 8=FIX.4.4|9=62|35=0|34=48|49=AMGTOBVC|56=ADRARBXBOG|52=20150520-12:02:24.595|10=059|
20150520-12:03:24.152: 8=FIX.4.4|9=62|35=0|34=49|49=ADRARBXBOG|52=20150520-12:03:24.152|56=AMGTOBVC|10=050|
20150520-12:03:24.984: 8=FIX.4.4|9=62|35=0|34=49|49=AMGTOBVC|56=ADRARBXBOG|52=20150520-12:03:24.966|10=063|
20150520-12:04:24.152: 8=FIX.4.4|9=62|35=0|34=50|49=ADRARBXBOG|52=20150520-12:04:24.152|56=AMGTOBVC|10=043|
20150520-12:04:25.324: 8=FIX.4.4|9=62|35=0|34=50|49=AMGTOBVC|56=ADRARBXBOG|52=20150520-12:04:25.306|10=045|
20150520-12:05:24.152: 8=FIX.4.4|9=62|35=0|34=51|49=ADRARBXBOG|52=20150520-12:05:24.152|56=AMGTOBVC|10=045|
20150520-12:05:25.695: 8=FIX.4.4|9=62|35=0|34=51|49=AMGTOBVC|56=ADRARBXBOG|52=20150520-12:05:25.677|10=058|
20150520-12:06:25.151: 8=FIX.4.4|9=62|35=0|34=52|49=ADRARBXBOG|52=20150520-12:06:25.151|56=AMGTOBVC|10=047|
20150520-12:06:26.004: 8=FIX.4.4|9=62|35=0|34=52|49=AMGTOBVC|56=ADRARBXBOG|52=20150520-12:06:25.985|10=062|
20150520-12:07:25.151: 8=FIX.4.4|9=62|35=0|34=53|49=ADRARBXBOG|52=20150520-12:07:25.151|56=AMGTOBVC|10=049|
20150520-12:07:26.345: 8=FIX.4.4|9=62|35=0|34=53|49=AMGTOBVC|56=ADRARBXBOG|52=20150520-12:07:26.325|10=053|
20150520-12:08:25.152: 8=FIX.4.4|9=62|35=0|34=54|49=ADRARBXBOG|52=20150520-12:08:25.152|56=AMGTOBVC|10=052|
20150520-12:08:26.639: 8=FIX.4.4|9=62|35=0|34=54|49=AMGTOBVC|56=ADRARBXBOG|52=20150520-12:08:26.618|10=060|
20150520-12:09:25.152: 8=FIX.4.4|9=62|35=0|34=55|49=ADRARBXBOG|52=20150520-12:09:25.152|56=AMGTOBVC|10=054|
20150520-12:09:26.954: 8=FIX.4.4|9=62|35=0|34=55|49=AMGTOBVC|56=ADRARBXBOG|52=20150520-12:09:26.926|10=064|
20150520-12:10:26.152: 8=FIX.4.4|9=62|35=0|34=56|49=ADRARBXBOG|52=20150520-12:10:26.152|56=AMGTOBVC|10=048|
20150520-12:10:27.256: 8=FIX.4.4|9=62|35=0|34=56|49=AMGTOBVC|56=ADRARBXBOG|52=20150520-12:10:27.234|10=050|
20150520-12:11:26.152: 8=FIX.4.4|9=62|35=0|34=57|49=ADRARBXBOG|52=20150520-12:11:26.152|56=AMGTOBVC|10=050|
20150520-12:11:27.552: 8=FIX.4.4|9=62|35=0|34=57|49=AMGTOBVC|56=ADRARBXBOG|52=20150520-12:11:27.527|10=057|
20150520-12:12:26.152: 8=FIX.4.4|9=62|35=0|34=58|49=ADRARBXBOG|52=20150520-12:12:26.152|56=AMGTOBVC|10=052|
20150520-12:12:27.858: 8=FIX.4.4|9=62|35=0|34=58|49=AMGTOBVC|56=ADRARBXBOG|52=20150520-12:12:27.836|10=062|
20150520-12:13:27.152: 8=FIX.4.4|9=62|35=0|34=59|49=ADRARBXBOG|52=20150520-12:13:27.152|56=AMGTOBVC|10=055|
20150520-12:13:28.181: 8=FIX.4.4|9=62|35=0|34=59|49=AMGTOBVC|56=ADRARBXBOG|52=20150520-12:13:28.160|10=055|
20150520-12:14:27.152: 8=FIX.4.4|9=62|35=0|34=60|49=ADRARBXBOG|52=20150520-12:14:27.152|56=AMGTOBVC|10=048|
20150520-12:14:28.570: 8=FIX.4.4|9=62|35=0|34=60|49=AMGTOBVC|56=ADRARBXBOG|52=20150520-12:14:28.546|10=056|
20150520-12:15:28.151: 8=FIX.4.4|9=62|35=0|34=61|49=ADRARBXBOG|52=20150520-12:15:28.151|56=AMGTOBVC|10=050|
20150520-12:15:29.036: 8=FIX.4.4|9=62|35=0|34=61|49=AMGTOBVC|56=ADRARBXBOG|52=20150520-12:15:29.011|10=046|
20150520-12:16:28.151: 8=FIX.4.4|9=62|35=0|34=62|49=ADRARBXBOG|52=20150520-12:16:28.151|56=AMGTOBVC|10=052|
20150520-12:16:29.352: 8=FIX.4.4|9=62|35=0|34=62|49=AMGTOBVC|56=ADRARBXBOG|52=20150520-12:16:29.319|10=059|
20150520-12:17:28.152: 8=FIX.4.4|9=62|35=0|34=63|49=ADRARBXBOG|52=20150520-12:17:28.152|56=AMGTOBVC|10=055|
20150520-12:17:29.731: 8=FIX.4.4|9=62|35=0|34=63|49=AMGTOBVC|56=ADRARBXBOG|52=20150520-12:17:29.706|10=061|
20150520-12:18:28.152: 8=FIX.4.4|9=62|35=0|34=64|49=ADRARBXBOG|52=20150520-12:18:28.152|56=AMGTOBVC|10=057|
20150520-12:18:30.039: 8=FIX.4.4|9=62|35=0|34=64|49=AMGTOBVC|56=ADRARBXBOG|52=20150520-12:18:30.014|10=047|
20150520-12:19:28.152: 8=FIX.4.4|9=62|35=0|34=65|49=ADRARBXBOG|52=20150520-12:19:28.152|56=AMGTOBVC|10=059|
20150520-12:19:30.363: 8=FIX.4.4|9=62|35=0|34=65|49=AMGTOBVC|56=ADRARBXBOG|52=20150520-12:19:30.338|10=058|
20150520-12:20:28.152: 8=FIX.4.4|9=62|35=0|34=66|49=ADRARBXBOG|52=20150520-12:20:28.152|56=AMGTOBVC|10=052|
20150520-12:20:30.673: 8=FIX.4.4|9=62|35=0|34=66|49=AMGTOBVC|56=ADRARBXBOG|52=20150520-12:20:30.646|10=053|
20150520-12:21:28.152: 8=FIX.4.4|9=62|35=0|34=67|49=ADRARBXBOG|52=20150520-12:21:28.152|56=AMGTOBVC|10=054|
20150520-12:21:30.966: 8=FIX.4.4|9=62|35=0|34=67|49=AMGTOBVC|56=ADRARBXBOG|52=20150520-12:21:30.939|10=060|
20150520-12:22:28.152: 8=FIX.4.4|9=62|35=0|34=68|49=ADRARBXBOG|52=20150520-12:22:28.152|56=AMGTOBVC|10=056|
20150520-12:22:31.294: 8=FIX.4.4|9=62|35=0|34=68|49=AMGTOBVC|56=ADRARBXBOG|52=20150520-12:22:31.263|10=053|
20150520-12:23:29.152: 8=FIX.4.4|9=62|35=0|34=69|49=ADRARBXBOG|52=20150520-12:23:29.151|56=AMGTOBVC|10=058|
20150520-12:23:31.616: 8=FIX.4.4|9=62|35=0|34=69|49=AMGTOBVC|56=ADRARBXBOG|52=20150520-12:23:31.587|10=064|
20150520-12:24:29.151: 8=FIX.4.4|9=62|35=0|34=70|49=ADRARBXBOG|52=20150520-12:24:29.151|56=AMGTOBVC|10=051|
20150520-12:24:31.924: 8=FIX.4.4|9=62|35=0|34=70|49=AMGTOBVC|56=ADRARBXBOG|52=20150520-12:24:31.896|10=060|
20150520-12:25:29.152: 8=FIX.4.4|9=62|35=0|34=71|49=ADRARBXBOG|52=20150520-12:25:29.152|56=AMGTOBVC|10=054|
20150520-12:25:32.221: 8=FIX.4.4|9=62|35=0|34=71|49=AMGTOBVC|56=ADRARBXBOG|52=20150520-12:25:32.189|10=058|
20150520-12:26:29.152: 8=FIX.4.4|9=62|35=0|34=72|49=ADRARBXBOG|52=20150520-12:26:29.152|56=AMGTOBVC|10=056|
20150520-12:26:32.548: 8=FIX.4.4|9=62|35=0|34=72|49=AMGTOBVC|56=ADRARBXBOG|52=20150520-12:26:32.513|10=051|
20150520-12:27:29.152: 8=FIX.4.4|9=62|35=0|34=73|49=ADRARBXBOG|52=20150520-12:27:29.152|56=AMGTOBVC|10=058|
20150520-12:27:32.820: 8=FIX.4.4|9=62|35=0|34=73|49=AMGTOBVC|56=ADRARBXBOG|52=20150520-12:27:32.790|10=060|
20150520-12:28:29.152: 8=FIX.4.4|9=62|35=0|34=74|49=ADRARBXBOG|52=20150520-12:28:29.152|56=AMGTOBVC|10=060|
20150520-12:28:33.144: 8=FIX.4.4|9=62|35=0|34=74|49=AMGTOBVC|56=ADRARBXBOG|52=20150520-12:28:33.114|10=053|
20150520-12:29:29.152: 8=FIX.4.4|9=62|35=0|34=75|49=ADRARBXBOG|52=20150520-12:29:29.152|56=AMGTOBVC|10=062|
20150520-12:29:33.437: 8=FIX.4.4|9=62|35=0|34=75|49=AMGTOBVC|56=ADRARBXBOG|52=20150520-12:29:33.407|10=060|
20150520-12:30:30.152: 8=FIX.4.4|9=62|35=0|34=76|49=ADRARBXBOG|52=20150520-12:30:30.152|56=AMGTOBVC|10=047|
20150520-12:30:33.700: 8=FIX.4.4|9=62|35=0|34=76|49=AMGTOBVC|56=ADRARBXBOG|52=20150520-12:30:33.668|10=062|
20150520-12:31:31.157: 8=FIX.4.4|9=62|35=0|34=77|49=ADRARBXBOG|52=20150520-12:31:31.157|56=AMGTOBVC|10=055|
20150520-12:31:34.055: 8=FIX.4.4|9=62|35=0|34=77|49=AMGTOBVC|56=ADRARBXBOG|52=20150520-12:31:34.024|10=051|
20150520-12:32:32.151: 8=FIX.4.4|9=62|35=0|34=78|49=ADRARBXBOG|52=20150520-12:32:32.151|56=AMGTOBVC|10=052|
20150520-12:32:34.357: 8=FIX.4.4|9=62|35=0|34=78|49=AMGTOBVC|56=ADRARBXBOG|52=20150520-12:32:34.317|10=058|
20150520-12:33:32.151: 8=FIX.4.4|9=62|35=0|34=79|49=ADRARBXBOG|52=20150520-12:33:32.151|56=AMGTOBVC|10=054|
20150520-12:33:34.626: 8=FIX.4.4|9=62|35=0|34=79|49=AMGTOBVC|56=ADRARBXBOG|52=20150520-12:33:34.594|10=067|
20150520-12:34:32.151: 8=FIX.4.4|9=62|35=0|34=80|49=ADRARBXBOG|52=20150520-12:34:32.151|56=AMGTOBVC|10=047|
20150520-12:34:34.919: 8=FIX.4.4|9=62|35=0|34=80|49=AMGTOBVC|56=ADRARBXBOG|52=20150520-12:34:34.891|10=060|
20150520-12:35:32.151: 8=FIX.4.4|9=62|35=0|34=81|49=ADRARBXBOG|52=20150520-12:35:32.151|56=AMGTOBVC|10=049|
20150520-12:35:35.181: 8=FIX.4.4|9=62|35=0|34=81|49=AMGTOBVC|56=ADRARBXBOG|52=20150520-12:35:35.157|10=058|
20150520-12:36:32.151: 8=FIX.4.4|9=62|35=0|34=82|49=ADRARBXBOG|52=20150520-12:36:32.151|56=AMGTOBVC|10=051|
20150520-12:36:35.459: 8=FIX.4.4|9=62|35=0|34=82|49=AMGTOBVC|56=ADRARBXBOG|52=20150520-12:36:35.438|10=062|
20150520-12:37:32.151: 8=FIX.4.4|9=62|35=0|34=83|49=ADRARBXBOG|52=20150520-12:37:32.151|56=AMGTOBVC|10=053|
20150520-12:37:35.786: 8=FIX.4.4|9=62|35=0|34=83|49=AMGTOBVC|56=ADRARBXBOG|52=20150520-12:37:35.766|10=068|
20150520-12:38:32.152: 8=FIX.4.4|9=62|35=0|34=84|49=ADRARBXBOG|52=20150520-12:38:32.152|56=AMGTOBVC|10=056|
20150520-12:38:36.064: 8=FIX.4.4|9=62|35=0|34=84|49=AMGTOBVC|56=ADRARBXBOG|52=20150520-12:38:36.048|10=064|
20150520-12:39:33.151: 8=FIX.4.4|9=62|35=0|34=85|49=ADRARBXBOG|52=20150520-12:39:33.151|56=AMGTOBVC|10=058|
20150520-12:39:36.340: 8=FIX.4.4|9=62|35=0|34=85|49=AMGTOBVC|56=ADRARBXBOG|52=20150520-12:39:36.327|10=066|
20150520-12:40:33.151: 8=FIX.4.4|9=62|35=0|34=86|49=ADRARBXBOG|52=20150520-12:40:33.151|56=AMGTOBVC|10=051|
20150520-12:40:36.758: 8=FIX.4.4|9=62|35=0|34=86|49=AMGTOBVC|56=ADRARBXBOG|52=20150520-12:40:36.746|10=064|
20150520-12:41:33.152: 8=FIX.4.4|9=62|35=0|34=87|49=ADRARBXBOG|52=20150520-12:41:33.152|56=AMGTOBVC|10=054|
20150520-12:41:37.098: 8=FIX.4.4|9=62|35=0|34=87|49=AMGTOBVC|56=ADRARBXBOG|52=20150520-12:41:37.086|10=064|
20150520-12:42:34.151: 8=FIX.4.4|9=62|35=0|34=88|49=ADRARBXBOG|52=20150520-12:42:34.151|56=AMGTOBVC|10=056|
20150520-12:42:37.399: 8=FIX.4.4|9=62|35=0|34=88|49=AMGTOBVC|56=ADRARBXBOG|52=20150520-12:42:37.380|10=063|
20150520-12:43:34.152: 8=FIX.4.4|9=62|35=0|34=89|49=ADRARBXBOG|52=20150520-12:43:34.152|56=AMGTOBVC|10=059|
20150520-12:43:37.810: 8=FIX.4.4|9=62|35=0|34=89|49=AMGTOBVC|56=ADRARBXBOG|52=20150520-12:43:37.799|10=079|
20150520-12:44:35.151: 8=FIX.4.4|9=62|35=0|34=90|49=ADRARBXBOG|52=20150520-12:44:35.151|56=AMGTOBVC|10=052|
20150520-12:44:38.104: 8=FIX.4.4|9=62|35=0|34=90|49=AMGTOBVC|56=ADRARBXBOG|52=20150520-12:44:38.093|10=060|
20150520-12:45:35.152: 8=FIX.4.4|9=62|35=0|34=91|49=ADRARBXBOG|52=20150520-12:45:35.152|56=AMGTOBVC|10=055|
20150520-12:45:38.433: 8=FIX.4.4|9=62|35=0|34=91|49=AMGTOBVC|56=ADRARBXBOG|52=20150520-12:45:38.418|10=063|
20150520-12:46:35.152: 8=FIX.4.4|9=62|35=0|34=92|49=ADRARBXBOG|52=20150520-12:46:35.152|56=AMGTOBVC|10=057|
20150520-12:46:38.752: 8=FIX.4.4|9=62|35=0|34=92|49=AMGTOBVC|56=ADRARBXBOG|52=20150520-12:46:38.742|10=065|
20150520-12:47:36.152: 8=FIX.4.4|9=62|35=0|34=93|49=ADRARBXBOG|52=20150520-12:47:36.152|56=AMGTOBVC|10=060|
20150520-12:47:39.046: 8=FIX.4.4|9=62|35=0|34=93|49=AMGTOBVC|56=ADRARBXBOG|52=20150520-12:47:39.035|10=063|
20150520-12:48:37.151: 8=FIX.4.4|9=62|35=0|34=94|49=ADRARBXBOG|52=20150520-12:48:37.151|56=AMGTOBVC|10=062|
20150520-12:48:39.358: 8=FIX.4.4|9=62|35=0|34=94|49=AMGTOBVC|56=ADRARBXBOG|52=20150520-12:48:39.344|10=068|
20150520-12:49:37.152: 8=FIX.4.4|9=62|35=0|34=95|49=ADRARBXBOG|52=20150520-12:49:37.152|56=AMGTOBVC|10=065|
20150520-12:49:39.850: 8=FIX.4.4|9=62|35=0|34=95|49=AMGTOBVC|56=ADRARBXBOG|52=20150520-12:49:39.840|10=071|
20150520-12:50:38.152: 8=FIX.4.4|9=62|35=0|34=96|49=ADRARBXBOG|52=20150520-12:50:38.151|56=AMGTOBVC|10=058|
20150520-12:50:40.182: 8=FIX.4.4|9=62|35=0|34=96|49=AMGTOBVC|56=ADRARBXBOG|52=20150520-12:50:40.165|10=056|
20150520-12:51:38.152: 8=FIX.4.4|9=62|35=0|34=97|49=ADRARBXBOG|52=20150520-12:51:38.152|56=AMGTOBVC|10=061|
20150520-12:51:40.486: 8=FIX.4.4|9=62|35=0|34=97|49=AMGTOBVC|56=ADRARBXBOG|52=20150520-12:51:40.473|10=060|
20150520-12:52:39.152: 8=FIX.4.4|9=62|35=0|34=98|49=ADRARBXBOG|52=20150520-12:52:39.152|56=AMGTOBVC|10=064|
20150520-12:52:40.794: 8=FIX.4.4|9=62|35=0|34=98|49=AMGTOBVC|56=ADRARBXBOG|52=20150520-12:52:40.782|10=065|
20150520-12:53:40.152: 8=FIX.4.4|9=62|35=0|34=99|49=ADRARBXBOG|52=20150520-12:53:40.152|56=AMGTOBVC|10=058|
20150520-12:53:41.118: 8=FIX.4.4|9=62|35=0|34=99|49=AMGTOBVC|56=ADRARBXBOG|52=20150520-12:53:41.091|10=061|
20150520-12:54:40.152: 8=FIX.4.4|9=63|35=0|34=100|49=ADRARBXBOG|52=20150520-12:54:40.152|56=AMGTOBVC|10=091|
20150520-12:54:41.404: 8=FIX.4.4|9=63|35=0|34=100|49=AMGTOBVC|56=ADRARBXBOG|52=20150520-12:54:41.384|10=099|
20150520-12:55:40.152: 8=FIX.4.4|9=63|35=0|34=101|49=ADRARBXBOG|52=20150520-12:55:40.152|56=AMGTOBVC|10=093|
20150520-12:55:41.674: 8=FIX.4.4|9=63|35=0|34=101|49=AMGTOBVC|56=ADRARBXBOG|52=20150520-12:55:41.662|10=100|
20150520-12:56:40.152: 8=FIX.4.4|9=63|35=0|34=102|49=ADRARBXBOG|52=20150520-12:56:40.152|56=AMGTOBVC|10=095|
20150520-12:56:41.967: 8=FIX.4.4|9=63|35=0|34=102|49=AMGTOBVC|56=ADRARBXBOG|52=20150520-12:56:41.954|10=106|
20150520-12:57:41.156: 8=FIX.4.4|9=63|35=0|34=103|49=ADRARBXBOG|52=20150520-12:57:41.156|56=AMGTOBVC|10=102|
20150520-12:57:42.295: 8=FIX.4.4|9=63|35=0|34=103|49=AMGTOBVC|56=ADRARBXBOG|52=20150520-12:57:42.278|10=108|
20150520-12:58:42.151: 8=FIX.4.4|9=63|35=0|34=104|49=ADRARBXBOG|52=20150520-12:58:42.151|56=AMGTOBVC|10=100|
20150520-12:58:42.616: 8=FIX.4.4|9=63|35=0|34=104|49=AMGTOBVC|56=ADRARBXBOG|52=20150520-12:58:42.603|10=102|
20150520-12:59:42.152: 8=FIX.4.4|9=63|35=0|34=105|49=ADRARBXBOG|52=20150520-12:59:42.152|56=AMGTOBVC|10=103|
20150520-12:59:42.884: 8=FIX.4.4|9=63|35=0|34=105|49=AMGTOBVC|56=ADRARBXBOG|52=20150520-12:59:42.864|10=113|
20150520-13:00:43.152: 8=FIX.4.4|9=63|35=0|34=106|49=ADRARBXBOG|52=20150520-13:00:43.152|56=AMGTOBVC|10=092|
20150520-13:00:43.240: 8=FIX.4.4|9=63|35=0|34=106|49=AMGTOBVC|56=ADRARBXBOG|52=20150520-13:00:43.219|10=096|
20150520-13:01:43.575: 8=FIX.4.4|9=63|35=0|34=107|49=AMGTOBVC|56=ADRARBXBOG|52=20150520-13:01:43.559|10=105|
20150520-13:01:43.575: 8=FIX.4.4|9=63|35=0|34=107|49=ADRARBXBOG|52=20150520-13:01:43.575|56=AMGTOBVC|10=103|
20150520-13:02:43.887: 8=FIX.4.4|9=63|35=0|34=108|49=AMGTOBVC|56=ADRARBXBOG|52=20150520-13:02:43.867|10=109|
20150520-13:02:43.887: 8=FIX.4.4|9=63|35=0|34=108|49=ADRARBXBOG|52=20150520-13:02:43.887|56=AMGTOBVC|10=111|
20150520-13:03:44.152: 8=FIX.4.4|9=63|35=0|34=109|49=ADRARBXBOG|52=20150520-13:03:44.152|56=AMGTOBVC|10=099|
20150520-13:03:44.177: 8=FIX.4.4|9=63|35=0|34=109|49=AMGTOBVC|56=ADRARBXBOG|52=20150520-13:03:44.160|10=098|
20150520-13:04:44.152: 8=FIX.4.4|9=63|35=0|34=110|49=ADRARBXBOG|52=20150520-13:04:44.152|56=AMGTOBVC|10=092|
20150520-13:04:44.503: 8=FIX.4.4|9=63|35=0|34=110|49=AMGTOBVC|56=ADRARBXBOG|52=20150520-13:04:44.484|10=100|
20150520-13:05:44.152: 8=FIX.4.4|9=63|35=0|34=111|49=ADRARBXBOG|52=20150520-13:05:44.152|56=AMGTOBVC|10=094|
20150520-13:05:44.810: 8=FIX.4.4|9=63|35=0|34=111|49=AMGTOBVC|56=ADRARBXBOG|52=20150520-13:05:44.793|10=105|
20150520-13:06:45.140: 8=FIX.4.4|9=63|35=0|34=112|49=AMGTOBVC|56=ADRARBXBOG|52=20150520-13:06:45.117|10=098|
20150520-13:06:45.140: 8=FIX.4.4|9=63|35=0|34=112|49=ADRARBXBOG|52=20150520-13:06:45.140|56=AMGTOBVC|10=094|
20150520-13:07:45.570: 8=FIX.4.4|9=63|35=0|34=113|49=AMGTOBVC|56=ADRARBXBOG|52=20150520-13:07:45.550|10=101|
20150520-13:07:45.571: 8=FIX.4.4|9=63|35=0|34=113|49=ADRARBXBOG|52=20150520-13:07:45.571|56=AMGTOBVC|10=104|
20150520-13:08:45.899: 8=FIX.4.4|9=63|35=0|34=114|49=AMGTOBVC|56=ADRARBXBOG|52=20150520-13:08:45.874|10=112|
20150520-13:08:45.900: 8=FIX.4.4|9=63|35=0|34=114|49=ADRARBXBOG|52=20150520-13:08:45.900|56=AMGTOBVC|10=102|
20150520-13:09:46.152: 8=FIX.4.4|9=63|35=0|34=115|49=ADRARBXBOG|52=20150520-13:09:46.152|56=AMGTOBVC|10=104|
20150520-13:09:46.202: 8=FIX.4.4|9=63|35=0|34=115|49=AMGTOBVC|56=ADRARBXBOG|52=20150520-13:09:46.183|10=108|
20150520-13:10:46.508: 8=FIX.4.4|9=63|35=0|34=116|49=ADRARBXBOG|52=20150520-13:10:46.508|56=AMGTOBVC|10=102|
20150520-13:10:46.527: 8=FIX.4.4|9=63|35=0|34=116|49=AMGTOBVC|56=ADRARBXBOG|52=20150520-13:10:46.507|10=101|
20150520-13:11:46.899: 8=FIX.4.4|9=63|35=0|34=117|49=AMGTOBVC|56=ADRARBXBOG|52=20150520-13:11:46.877|10=113|
20150520-13:11:46.899: 8=FIX.4.4|9=63|35=0|34=117|49=ADRARBXBOG|52=20150520-13:11:46.899|56=AMGTOBVC|10=117|
20150520-13:12:47.223: 8=FIX.4.4|9=63|35=0|34=118|49=AMGTOBVC|56=ADRARBXBOG|52=20150520-13:12:47.201|10=097|
20150520-13:12:47.223: 8=FIX.4.4|9=63|35=0|34=118|49=ADRARBXBOG|52=20150520-13:12:47.223|56=AMGTOBVC|10=101|
20150520-13:13:47.532: 8=FIX.4.4|9=63|35=0|34=119|49=AMGTOBVC|56=ADRARBXBOG|52=20150520-13:13:47.510|10=102|
20150520-13:13:47.532: 8=FIX.4.4|9=63|35=0|34=119|49=ADRARBXBOG|52=20150520-13:13:47.532|56=AMGTOBVC|10=106|
20150520-13:14:47.704: 8=FIX.4.4|9=63|35=0|34=120|49=ADRARBXBOG|52=20150520-13:14:47.704|56=AMGTOBVC|10=100|
20150520-13:14:47.826: 8=FIX.4.4|9=63|35=0|34=120|49=AMGTOBVC|56=ADRARBXBOG|52=20150520-13:14:47.803|10=100|
20150520-13:15:48.150: 8=FIX.4.4|9=63|35=0|34=121|49=AMGTOBVC|56=ADRARBXBOG|52=20150520-13:15:48.127|10=102|
20150520-13:15:48.151: 8=FIX.4.4|9=63|35=0|34=121|49=ADRARBXBOG|52=20150520-13:15:48.151|56=AMGTOBVC|10=099|
20150520-13:16:48.444: 8=FIX.4.4|9=63|35=0|34=122|49=AMGTOBVC|56=ADRARBXBOG|52=20150520-13:16:48.420|10=100|
20150520-13:16:48.444: 8=FIX.4.4|9=63|35=0|34=122|49=ADRARBXBOG|52=20150520-13:16:48.444|56=AMGTOBVC|10=106|
20150520-13:17:48.769: 8=FIX.4.4|9=63|35=0|34=123|49=AMGTOBVC|56=ADRARBXBOG|52=20150520-13:17:48.744|10=111|
20150520-13:17:48.769: 8=FIX.4.4|9=63|35=0|34=123|49=ADRARBXBOG|52=20150520-13:17:48.769|56=AMGTOBVC|10=118|
20150520-13:18:48.866: 8=FIX.4.4|9=63|35=0|34=124|49=ADRARBXBOG|52=20150520-13:18:48.866|56=AMGTOBVC|10=118|
20150520-13:18:49.076: 8=FIX.4.4|9=63|35=0|34=124|49=AMGTOBVC|56=ADRARBXBOG|52=20150520-13:18:49.052|10=106|
20150520-13:19:49.389: 8=FIX.4.4|9=63|35=0|34=125|49=AMGTOBVC|56=ADRARBXBOG|52=20150520-13:19:49.361|10=111|
20150520-13:19:49.390: 8=FIX.4.4|9=63|35=0|34=125|49=ADRARBXBOG|52=20150520-13:19:49.390|56=AMGTOBVC|10=113|
20150520-13:20:49.696: 8=FIX.4.4|9=63|35=0|34=126|49=AMGTOBVC|56=ADRARBXBOG|52=20150520-13:20:49.669|10=115|
20150520-13:20:49.697: 8=FIX.4.4|9=63|35=0|34=126|49=ADRARBXBOG|52=20150520-13:20:49.697|56=AMGTOBVC|10=116|
20150520-13:21:50.021: 8=FIX.4.4|9=63|35=0|34=127|49=AMGTOBVC|56=ADRARBXBOG|52=20150520-13:21:49.993|10=117|
20150520-13:21:50.022: 8=FIX.4.4|9=63|35=0|34=127|49=ADRARBXBOG|52=20150520-13:21:50.022|56=AMGTOBVC|10=092|
20150520-13:22:50.077: 8=FIX.4.4|9=63|35=0|34=128|49=ADRARBXBOG|52=20150520-13:22:50.077|56=AMGTOBVC|10=104|
20150520-13:22:50.316: 8=FIX.4.4|9=63|35=0|34=128|49=AMGTOBVC|56=ADRARBXBOG|52=20150520-13:22:50.286|10=106|
20150520-13:23:50.623: 8=FIX.4.4|9=63|35=0|34=129|49=AMGTOBVC|56=ADRARBXBOG|52=20150520-13:23:50.594|10=110|
20150520-13:23:50.624: 8=FIX.4.4|9=63|35=0|34=129|49=ADRARBXBOG|52=20150520-13:23:50.624|56=AMGTOBVC|10=104|
20150520-13:24:50.949: 8=FIX.4.4|9=63|35=0|34=130|49=AMGTOBVC|56=ADRARBXBOG|52=20150520-13:24:50.918|10=103|
20150520-13:24:50.949: 8=FIX.4.4|9=63|35=0|34=130|49=ADRARBXBOG|52=20150520-13:24:50.949|56=AMGTOBVC|10=107|
20150520-13:25:51.151: 8=FIX.4.4|9=63|35=0|34=131|49=ADRARBXBOG|52=20150520-13:25:51.151|56=AMGTOBVC|10=095|
20150520-13:25:51.411: 8=FIX.4.4|9=63|35=0|34=131|49=AMGTOBVC|56=ADRARBXBOG|52=20150520-13:25:51.383|10=102|
20150520-13:26:51.151: 8=FIX.4.4|9=63|35=0|34=132|49=ADRARBXBOG|52=20150520-13:26:51.151|56=AMGTOBVC|10=097|
20150520-13:26:51.782: 8=FIX.4.4|9=63|35=0|34=132|49=AMGTOBVC|56=ADRARBXBOG|52=20150520-13:26:51.754|10=106|
20150520-13:27:51.151: 8=FIX.4.4|9=63|35=0|34=133|49=ADRARBXBOG|52=20150520-13:27:51.151|56=AMGTOBVC|10=099|
20150520-13:27:52.107: 8=FIX.4.4|9=63|35=0|34=133|49=AMGTOBVC|56=ADRARBXBOG|52=20150520-13:27:52.078|10=108|
20150520-13:28:51.152: 8=FIX.4.4|9=63|35=0|34=134|49=ADRARBXBOG|52=20150520-13:28:51.152|56=AMGTOBVC|10=102|
20150520-13:28:52.416: 8=FIX.4.4|9=63|35=0|34=134|49=AMGTOBVC|56=ADRARBXBOG|52=20150520-13:28:52.386|10=112|
20150520-13:29:52.152: 8=FIX.4.4|9=63|35=0|34=135|49=ADRARBXBOG|52=20150520-13:29:52.152|56=AMGTOBVC|10=105|
20150520-13:29:52.756: 8=FIX.4.4|9=63|35=0|34=135|49=AMGTOBVC|56=ADRARBXBOG|52=20150520-13:29:52.726|10=112|
20150520-13:30:53.152: 8=FIX.4.4|9=63|35=0|34=136|49=ADRARBXBOG|52=20150520-13:30:53.152|56=AMGTOBVC|10=099|
20150520-13:30:53.170: 8=FIX.4.4|9=63|35=0|34=136|49=AMGTOBVC|56=ADRARBXBOG|52=20150520-13:30:53.128|10=102|
20150520-13:31:53.177: 8=FIX.4.4|9=63|35=0|34=137|49=ADRARBXBOG|52=20150520-13:31:53.177|56=AMGTOBVC|10=108|
20150520-13:31:53.483: 8=FIX.4.4|9=63|35=0|34=137|49=AMGTOBVC|56=ADRARBXBOG|52=20150520-13:31:53.436|10=106|
20150520-13:32:53.861: 8=FIX.4.4|9=63|35=0|34=138|49=AMGTOBVC|56=ADRARBXBOG|52=20150520-13:32:53.823|10=108|
20150520-13:32:53.861: 8=FIX.4.4|9=63|35=0|34=138|49=ADRARBXBOG|52=20150520-13:32:53.861|56=AMGTOBVC|10=110|
20150520-13:33:54.151: 8=FIX.4.4|9=63|35=0|34=139|49=ADRARBXBOG|52=20150520-13:33:54.151|56=AMGTOBVC|10=105|
20150520-13:33:54.383: 8=FIX.4.4|9=63|35=0|34=139|49=AMGTOBVC|56=ADRARBXBOG|52=20150520-13:33:54.288|10=116|
20150520-13:34:54.152: 8=FIX.4.4|9=63|35=0|34=140|49=ADRARBXBOG|52=20150520-13:34:54.152|56=AMGTOBVC|10=099|
20150520-13:34:54.613: 8=FIX.4.4|9=63|35=0|34=140|49=AMGTOBVC|56=ADRARBXBOG|52=20150520-13:34:54.585|10=109|
20150520-13:35:54.922: 8=FIX.4.4|9=63|35=0|34=141|49=AMGTOBVC|56=ADRARBXBOG|52=20150520-13:35:54.898|10=118|
20150520-13:35:54.922: 8=FIX.4.4|9=63|35=0|34=141|49=ADRARBXBOG|52=20150520-13:35:54.922|56=AMGTOBVC|10=106|
20150520-13:36:55.151: 8=FIX.4.4|9=63|35=0|34=142|49=ADRARBXBOG|52=20150520-13:36:55.151|56=AMGTOBVC|10=103|
20150520-13:36:55.303: 8=FIX.4.4|9=63|35=0|34=142|49=AMGTOBVC|56=ADRARBXBOG|52=20150520-13:36:55.273|10=108|
20150520-13:37:55.151: 8=FIX.4.4|9=63|35=0|34=143|49=ADRARBXBOG|52=20150520-13:37:55.151|56=AMGTOBVC|10=105|
20150520-13:37:55.602: 8=FIX.4.4|9=63|35=0|34=143|49=AMGTOBVC|56=ADRARBXBOG|52=20150520-13:37:55.586|10=117|
20150520-13:38:55.152: 8=FIX.4.4|9=63|35=0|34=144|49=ADRARBXBOG|52=20150520-13:38:55.152|56=AMGTOBVC|10=108|
20150520-13:38:55.942: 8=FIX.4.4|9=63|35=0|34=144|49=AMGTOBVC|56=ADRARBXBOG|52=20150520-13:38:55.929|10=120|
20150520-13:39:55.152: 8=FIX.4.4|9=63|35=0|34=145|49=ADRARBXBOG|52=20150520-13:39:55.152|56=AMGTOBVC|10=110|
20150520-13:39:56.300: 8=FIX.4.4|9=63|35=0|34=145|49=AMGTOBVC|56=ADRARBXBOG|52=20150520-13:39:56.286|10=119|
20150520-13:40:56.152: 8=FIX.4.4|9=63|35=0|34=146|49=ADRARBXBOG|52=20150520-13:40:56.152|56=AMGTOBVC|10=104|
20150520-13:40:56.621: 8=FIX.4.4|9=63|35=0|34=146|49=AMGTOBVC|56=ADRARBXBOG|52=20150520-13:40:56.596|10=116|
20150520-13:41:56.152: 8=FIX.4.4|9=63|35=0|34=147|49=ADRARBXBOG|52=20150520-13:41:56.152|56=AMGTOBVC|10=106|
20150520-13:41:56.914: 8=FIX.4.4|9=63|35=0|34=147|49=AMGTOBVC|56=ADRARBXBOG|52=20150520-13:41:56.890|10=115|
20150520-13:42:56.152: 8=FIX.4.4|9=63|35=0|34=148|49=ADRARBXBOG|52=20150520-13:42:56.152|56=AMGTOBVC|10=108|
20150520-13:42:57.241: 8=FIX.4.4|9=63|35=0|34=148|49=AMGTOBVC|56=ADRARBXBOG|52=20150520-13:42:57.231|10=107|
20150520-13:43:35.534: 8=FIX.4.4|9=232|35=D|34=149|49=ADRARBXBOG|52=20150520-13:43:35.534|56=AMGTOBVC|1=881|11=1f1fcaff16b540c4|21=1|38=12000|40=2|44=3440|54=1|55=PFAVH|59=0|60=20150520-13:43:35.534|63=3|100=XBOG|207=XBOG|583=204b73513cd54a16|453=1|448=LVARB|447=D|452=1|10=169|
20150520-13:43:35.642: 8=FIX.4.4|9=322|35=8|57=062X01|128=LRVORBVC|115=BVC062|34=149|49=AMGTOBVC|56=ADRARBXBOG|52=20150520-13:43:35.623|37=201505202204|11=1f1fcaff16b540c4|17=10783|150=0|39=0|63=4|48=PFAVH|22=99|167=CS|54=1|38=12000|40=2|44=3440|59=0|151=12000|14=0|60=20150520-13:43:35.000|31=0|32=0|6=0|55=PFAVH|453=1|448=062|447=D|452=1|583=204b73513cd54a16|10=101|
20150520-13:43:39.886: 8=FIX.4.4|9=233|35=D|34=150|49=ADRARBXBOG|52=20150520-13:43:39.886|56=AMGTOBVC|1=881|11=-2dabb1d1747bb5a5|21=1|38=12000|40=2|44=3505|54=2|55=PFAVH|59=0|60=20150520-13:43:39.886|63=3|100=XBOG|207=XBOG|583=204b73513cd54a16|453=1|448=LVARB|447=D|452=1|10=233|
20150520-13:43:40.001: 8=FIX.4.4|9=323|35=8|57=062X01|128=LRVORBVC|115=BVC062|34=150|49=AMGTOBVC|56=ADRARBXBOG|52=20150520-13:43:39.976|37=201505202207|11=-2dabb1d1747bb5a5|17=10806|150=0|39=0|63=4|48=PFAVH|22=99|167=CS|54=2|38=12000|40=2|44=3505|59=0|151=12000|14=0|60=20150520-13:43:39.000|31=0|32=0|6=0|55=PFAVH|453=1|448=062|447=D|452=1|583=204b73513cd54a16|10=155|
20150520-13:44:12.706: 8=FIX.4.4|9=254|35=G|34=151|49=ADRARBXBOG|52=20150520-13:44:12.706|56=AMGTOBVC|1=881|11=-748883ab81dbb71f|21=1|38=12000|40=2|41=-2dabb1d1747bb5a5|44=3500|54=2|55=PFAVH|59=0|60=20150520-13:44:12.706|63=3|100=XBOG|207=XBOG|583=204b73513cd54a16|453=1|448=LVARB|447=D|452=1|10=001|
20150520-13:44:12.818: 8=FIX.4.4|9=344|35=8|57=062X01|128=LRVORBVC|115=BVC062|34=151|49=AMGTOBVC|56=ADRARBXBOG|52=20150520-13:44:12.797|37=201505202207|11=-748883ab81dbb71f|41=-2dabb1d1747bb5a5|17=10963|150=5|39=0|63=4|48=PFAVH|22=99|167=CS|54=2|38=12000|40=2|44=3500|59=0|151=12000|14=0|60=20150520-13:44:12.000|31=0|32=0|6=0|55=PFAVH|453=1|448=062|447=D|452=1|583=204b73513cd54a16|10=204|
20150520-13:44:38.364: 8=FIX.4.4|9=254|35=G|34=152|49=ADRARBXBOG|52=20150520-13:44:38.364|56=AMGTOBVC|1=881|11=-36ba926c145fbaf3|21=1|38=12000|40=2|41=-748883ab81dbb71f|44=3495|54=2|55=PFAVH|59=0|60=20150520-13:44:38.363|63=3|100=XBOG|207=XBOG|583=204b73513cd54a16|453=1|448=LVARB|447=D|452=1|10=248|
20150520-13:44:38.475: 8=FIX.4.4|9=344|35=8|57=062X01|128=LRVORBVC|115=BVC062|34=152|49=AMGTOBVC|56=ADRARBXBOG|52=20150520-13:44:38.459|37=201505202207|11=-36ba926c145fbaf3|41=-748883ab81dbb71f|17=11067|150=5|39=0|63=4|48=PFAVH|22=99|167=CS|54=2|38=12000|40=2|44=3495|59=0|151=12000|14=0|60=20150520-13:44:38.000|31=0|32=0|6=0|55=PFAVH|453=1|448=062|447=D|452=1|583=204b73513cd54a16|10=187|
20150520-13:44:38.669: 8=FIX.4.4|9=253|35=G|34=153|49=ADRARBXBOG|52=20150520-13:44:38.668|56=AMGTOBVC|1=881|11=7747b2093cb24987|21=1|38=12000|40=2|41=-36ba926c145fbaf3|44=3500|54=2|55=PFAVH|59=0|60=20150520-13:44:38.668|63=3|100=XBOG|207=XBOG|583=204b73513cd54a16|453=1|448=LVARB|447=D|452=1|10=065|
20150520-13:44:38.775: 8=FIX.4.4|9=343|35=8|57=062X01|128=LRVORBVC|115=BVC062|34=153|49=AMGTOBVC|56=ADRARBXBOG|52=20150520-13:44:38.756|37=201505202207|11=7747b2093cb24987|41=-36ba926c145fbaf3|17=11068|150=5|39=0|63=4|48=PFAVH|22=99|167=CS|54=2|38=12000|40=2|44=3500|59=0|151=12000|14=0|60=20150520-13:44:38.000|31=0|32=0|6=0|55=PFAVH|453=1|448=062|447=D|452=1|583=204b73513cd54a16|10=246|
20150520-13:45:13.106: 8=FIX.4.4|9=251|35=G|34=154|49=ADRARBXBOG|52=20150520-13:45:13.106|56=AMGTOBVC|1=881|11=e1907084cff4985|21=1|38=12000|40=2|41=1f1fcaff16b540c4|44=3435|54=1|55=PFAVH|59=0|60=20150520-13:45:13.106|63=3|100=XBOG|207=XBOG|583=204b73513cd54a16|453=1|448=LVARB|447=D|452=1|10=029|
20150520-13:45:13.222: 8=FIX.4.4|9=341|35=8|57=062X01|128=LRVORBVC|115=BVC062|34=154|49=AMGTOBVC|56=ADRARBXBOG|52=20150520-13:45:13.200|37=201505202204|11=e1907084cff4985|41=1f1fcaff16b540c4|17=11289|150=5|39=0|63=4|48=PFAVH|22=99|167=CS|54=1|38=12000|40=2|44=3435|59=0|151=12000|14=0|60=20150520-13:45:13.000|31=0|32=0|6=0|55=PFAVH|453=1|448=062|447=D|452=1|583=204b73513cd54a16|10=222|
20150520-13:45:14.605: 8=FIX.4.4|9=252|35=G|34=155|49=ADRARBXBOG|52=20150520-13:45:14.605|56=AMGTOBVC|1=881|11=-3ab958ab438b657|21=1|38=12000|40=2|41=7747b2093cb24987|44=3495|54=2|55=PFAVH|59=0|60=20150520-13:45:14.605|63=3|100=XBOG|207=XBOG|583=204b73513cd54a16|453=1|448=LVARB|447=D|452=1|10=169|
20150520-13:45:14.712: 8=FIX.4.4|9=342|35=8|57=062X01|128=LRVORBVC|115=BVC062|34=155|49=AMGTOBVC|56=ADRARBXBOG|52=20150520-13:45:14.697|37=201505202207|11=-3ab958ab438b657|41=7747b2093cb24987|17=11302|150=5|39=0|63=4|48=PFAVH|22=99|167=CS|54=2|38=12000|40=2|44=3495|59=0|151=12000|14=0|60=20150520-13:45:14.000|31=0|32=0|6=0|55=PFAVH|453=1|448=062|447=D|452=1|583=204b73513cd54a16|10=107|
20150520-13:45:17.639: 8=FIX.4.4|9=235|35=D|34=156|49=ADRARBXBOG|52=20150520-13:45:17.639|56=AMGTOBVC|1=881|11=53e33da9db7e417d|21=1|38=4000|40=2|44=27860|54=1|55=PFBCOLOM|59=0|60=20150520-13:45:17.639|63=3|100=XBOG|207=XBOG|583=-ee6c25b20e4bb0e|453=1|448=LVARB|447=D|452=1|10=058|
20150520-13:45:17.751: 8=FIX.4.4|9=327|35=8|57=062X01|128=LRVORBVC|115=BVC062|34=156|49=AMGTOBVC|56=ADRARBXBOG|52=20150520-13:45:17.739|37=201505202285|11=53e33da9db7e417d|17=11337|150=0|39=0|63=4|48=PFBCOLOM|22=99|167=CS|54=1|38=4000|40=2|44=27860|59=0|151=4000|14=0|60=20150520-13:45:17.000|31=0|32=0|6=0|55=PFBCOLOM|453=1|448=062|447=D|452=1|583=-ee6c25b20e4bb0e|10=167|
20150520-13:45:19.559: 8=FIX.4.4|9=236|35=D|34=157|49=ADRARBXBOG|52=20150520-13:45:19.559|56=AMGTOBVC|1=881|11=-7f30c951080eb4b8|21=1|38=4000|40=2|44=28200|54=2|55=PFBCOLOM|59=0|60=20150520-13:45:19.559|63=3|100=XBOG|207=XBOG|583=-ee6c25b20e4bb0e|453=1|448=LVARB|447=D|452=1|10=001|
20150520-13:45:19.673: 8=FIX.4.4|9=328|35=8|57=062X01|128=LRVORBVC|115=BVC062|34=157|49=AMGTOBVC|56=ADRARBXBOG|52=20150520-13:45:19.643|37=201505202286|11=-7f30c951080eb4b8|17=11342|150=0|39=0|63=4|48=PFBCOLOM|22=99|167=CS|54=2|38=4000|40=2|44=28200|59=0|151=4000|14=0|60=20150520-13:45:19.000|31=0|32=0|6=0|55=PFBCOLOM|453=1|448=062|447=D|452=1|583=-ee6c25b20e4bb0e|10=099|
20150520-13:45:25.465: 8=FIX.4.4|9=257|35=G|34=158|49=ADRARBXBOG|52=20150520-13:45:25.465|56=AMGTOBVC|1=881|11=-6201cfeab590b798|21=1|38=4000|40=2|41=-7f30c951080eb4b8|44=28140|54=2|55=PFBCOLOM|59=0|60=20150520-13:45:25.465|63=3|100=XBOG|207=XBOG|583=-ee6c25b20e4bb0e|453=1|448=LVARB|447=D|452=1|10=047|
20150520-13:45:25.575: 8=FIX.4.4|9=349|35=8|57=062X01|128=LRVORBVC|115=BVC062|34=158|49=AMGTOBVC|56=ADRARBXBOG|52=20150520-13:45:25.555|37=201505202286|11=-6201cfeab590b798|41=-7f30c951080eb4b8|17=11382|150=5|39=0|63=4|48=PFBCOLOM|22=99|167=CS|54=2|38=4000|40=2|44=28140|59=0|151=4000|14=0|60=20150520-13:45:25.000|31=0|32=0|6=0|55=PFBCOLOM|453=1|448=062|447=D|452=1|583=-ee6c25b20e4bb0e|10=161|
20150520-13:45:39.651: 8=FIX.4.4|9=255|35=G|34=159|49=ADRARBXBOG|52=20150520-13:45:39.651|56=AMGTOBVC|1=881|11=-3c3bd0e4c16b8ff|21=1|38=4000|40=2|41=53e33da9db7e417d|44=27880|54=1|55=PFBCOLOM|59=0|60=20150520-13:45:39.650|63=3|100=XBOG|207=XBOG|583=-ee6c25b20e4bb0e|453=1|448=LVARB|447=D|452=1|10=151|
20150520-13:45:39.758: 8=FIX.4.4|9=347|35=8|57=062X01|128=LRVORBVC|115=BVC062|34=159|49=AMGTOBVC|56=ADRARBXBOG|52=20150520-13:45:39.735|37=201505202285|11=-3c3bd0e4c16b8ff|41=53e33da9db7e417d|17=11448|150=5|39=0|63=4|48=PFBCOLOM|22=99|167=CS|54=1|38=4000|40=2|44=27880|59=0|151=4000|14=0|60=20150520-13:45:39.000|31=0|32=0|6=0|55=PFBCOLOM|453=1|448=062|447=D|452=1|583=-ee6c25b20e4bb0e|10=018|
20150520-13:45:53.234: 8=FIX.4.4|9=236|35=D|34=160|49=ADRARBXBOG|52=20150520-13:45:53.234|56=AMGTOBVC|1=881|11=170c9990c9494449|21=1|38=40000|40=2|44=1855|54=1|55=ECOPETROL|59=0|60=20150520-13:45:53.234|63=3|100=XBOG|207=XBOG|583=236291ae63c543f2|453=1|448=LVARB|447=D|452=1|10=236|
20150520-13:45:53.340: 8=FIX.4.4|9=330|35=8|57=062X01|128=LRVORBVC|115=BVC062|34=160|49=AMGTOBVC|56=ADRARBXBOG|52=20150520-13:45:53.323|37=201505202316|11=170c9990c9494449|17=11528|150=0|39=0|63=4|48=ECOPETROL|22=99|167=CS|54=1|38=40000|40=2|44=1855|59=0|151=40000|14=0|60=20150520-13:45:53.000|31=0|32=0|6=0|55=ECOPETROL|453=1|448=062|447=D|452=1|583=236291ae63c543f2|10=225|
20150520-13:45:54.955: 8=FIX.4.4|9=237|35=D|34=161|49=ADRARBXBOG|52=20150520-13:45:54.955|56=AMGTOBVC|1=881|11=-3c1674a94f65b78e|21=1|38=40000|40=2|44=1870|54=2|55=ECOPETROL|59=0|60=20150520-13:45:54.955|63=3|100=XBOG|207=XBOG|583=236291ae63c543f2|453=1|448=LVARB|447=D|452=1|10=184|
20150520-13:45:55.062: 8=FIX.4.4|9=331|35=8|57=062X01|128=LRVORBVC|115=BVC062|34=161|49=AMGTOBVC|56=ADRARBXBOG|52=20150520-13:45:55.039|37=201505202319|11=-3c1674a94f65b78e|17=11537|150=0|39=0|63=4|48=ECOPETROL|22=99|167=CS|54=2|38=40000|40=2|44=1870|59=0|151=40000|14=0|60=20150520-13:45:55.000|31=0|32=0|6=0|55=ECOPETROL|453=1|448=062|447=D|452=1|583=236291ae63c543f2|10=162|
20150520-13:46:01.160: 8=FIX.4.4|9=257|35=G|34=162|49=ADRARBXBOG|52=20150520-13:46:01.160|56=AMGTOBVC|1=881|11=76e279e6af954159|21=1|38=40000|40=2|41=-3c1674a94f65b78e|44=1875|54=2|55=ECOPETROL|59=0|60=20150520-13:46:01.160|63=3|100=XBOG|207=XBOG|583=236291ae63c543f2|453=1|448=LVARB|447=D|452=1|10=087|
20150520-13:46:01.270: 8=FIX.4.4|9=351|35=8|57=062X01|128=LRVORBVC|115=BVC062|34=162|49=AMGTOBVC|56=ADRARBXBOG|52=20150520-13:46:01.247|37=201505202319|11=76e279e6af954159|41=-3c1674a94f65b78e|17=11555|150=5|39=0|63=4|48=ECOPETROL|22=99|167=CS|54=2|38=40000|40=2|44=1875|59=0|151=40000|14=0|60=20150520-13:46:01.000|31=0|32=0|6=0|55=ECOPETROL|453=1|448=062|447=D|452=1|583=236291ae63c543f2|10=090|
20150520-13:46:03.583: 8=FIX.4.4|9=255|35=G|34=163|49=ADRARBXBOG|52=20150520-13:46:03.583|56=AMGTOBVC|1=881|11=58e06c2bf3ce477c|21=1|38=4000|40=2|41=-3c3bd0e4c16b8ff|44=27860|54=1|55=PFBCOLOM|59=0|60=20150520-13:46:03.583|63=3|100=XBOG|207=XBOG|583=-ee6c25b20e4bb0e|453=1|448=LVARB|447=D|452=1|10=139|
20150520-13:46:03.584: 8=FIX.4.4|9=257|35=G|34=164|49=ADRARBXBOG|52=20150520-13:46:03.584|56=AMGTOBVC|1=881|11=-31dfa099ba9bbfa6|21=1|38=4000|40=2|41=-6201cfeab590b798|44=28120|54=2|55=PFBCOLOM|59=0|60=20150520-13:46:03.584|63=3|100=XBOG|207=XBOG|583=-ee6c25b20e4bb0e|453=1|448=LVARB|447=D|452=1|10=231|
20150520-13:46:03.731: 8=FIX.4.4|9=349|35=8|57=062X01|128=LRVORBVC|115=BVC062|34=163|49=AMGTOBVC|56=ADRARBXBOG|52=20150520-13:46:03.712|37=201505202286|11=-31dfa099ba9bbfa6|41=-6201cfeab590b798|17=11568|150=5|39=0|63=4|48=PFBCOLOM|22=99|167=CS|54=2|38=4000|40=2|44=28120|59=0|151=4000|14=0|60=20150520-13:46:03.000|31=0|32=0|6=0|55=PFBCOLOM|453=1|448=062|447=D|452=1|583=-ee6c25b20e4bb0e|10=085|
20150520-13:46:03.735: 8=FIX.4.4|9=347|35=8|57=062X01|128=LRVORBVC|115=BVC062|34=164|49=AMGTOBVC|56=ADRARBXBOG|52=20150520-13:46:03.712|37=201505202285|11=58e06c2bf3ce477c|41=-3c3bd0e4c16b8ff|17=11567|150=5|39=0|63=4|48=PFBCOLOM|22=99|167=CS|54=1|38=4000|40=2|44=27860|59=0|151=4000|14=0|60=20150520-13:46:03.000|31=0|32=0|6=0|55=PFBCOLOM|453=1|448=062|447=D|452=1|583=-ee6c25b20e4bb0e|10=251|
20150520-13:46:03.737: 8=FIX.4.4|9=254|35=G|34=165|49=ADRARBXBOG|52=20150520-13:46:03.737|56=AMGTOBVC|1=881|11=1630d6c2e5147fe|21=1|38=4000|40=2|41=58e06c2bf3ce477c|44=27840|54=1|55=PFBCOLOM|59=0|60=20150520-13:46:03.737|63=3|100=XBOG|207=XBOG|583=-ee6c25b20e4bb0e|453=1|448=LVARB|447=D|452=1|10=209|
20150520-13:46:03.845: 8=FIX.4.4|9=346|35=8|57=062X01|128=LRVORBVC|115=BVC062|34=165|49=AMGTOBVC|56=ADRARBXBOG|52=20150520-13:46:03.837|37=201505202285|11=1630d6c2e5147fe|41=58e06c2bf3ce477c|17=11569|150=5|39=0|63=4|48=PFBCOLOM|22=99|167=CS|54=1|38=4000|40=2|44=27840|59=0|151=4000|14=0|60=20150520-13:46:03.000|31=0|32=0|6=0|55=PFBCOLOM|453=1|448=062|447=D|452=1|583=-ee6c25b20e4bb0e|10=072|
20150520-13:46:03.943: 8=FIX.4.4|9=251|35=G|34=166|49=ADRARBXBOG|52=20150520-13:46:03.943|56=AMGTOBVC|1=881|11=-b550bffa6e6b3db|21=1|38=12000|40=2|41=e1907084cff4985|44=3440|54=1|55=PFAVH|59=0|60=20150520-13:46:03.943|63=3|100=XBOG|207=XBOG|583=204b73513cd54a16|453=1|448=LVARB|447=D|452=1|10=091|
20150520-13:46:04.051: 8=FIX.4.4|9=341|35=8|57=062X01|128=LRVORBVC|115=BVC062|34=166|49=AMGTOBVC|56=ADRARBXBOG|52=20150520-13:46:04.040|37=201505202204|11=-b550bffa6e6b3db|41=e1907084cff4985|17=11570|150=5|39=0|63=4|48=PFAVH|22=99|167=CS|54=1|38=12000|40=2|44=3440|59=0|151=12000|14=0|60=20150520-13:46:03.000|31=0|32=0|6=0|55=PFAVH|453=1|448=062|447=D|452=1|583=204b73513cd54a16|10=006|
20150520-13:46:04.094: 8=FIX.4.4|9=253|35=G|34=167|49=ADRARBXBOG|52=20150520-13:46:04.094|56=AMGTOBVC|1=881|11=-4c52c6f7a2acb4d6|21=1|38=12000|40=2|41=-3ab958ab438b657|44=3500|54=2|55=PFAVH|59=0|60=20150520-13:46:04.094|63=3|100=XBOG|207=XBOG|583=204b73513cd54a16|453=1|448=LVARB|447=D|452=1|10=176|
20150520-13:46:04.201: 8=FIX.4.4|9=343|35=8|57=062X01|128=LRVORBVC|115=BVC062|34=167|49=AMGTOBVC|56=ADRARBXBOG|52=20150520-13:46:04.180|37=201505202207|11=-4c52c6f7a2acb4d6|41=-3ab958ab438b657|17=11572|150=5|39=0|63=4|48=PFAVH|22=99|167=CS|54=2|38=12000|40=2|44=3500|59=0|151=12000|14=0|60=20150520-13:46:04.000|31=0|32=0|6=0|55=PFAVH|453=1|448=062|447=D|452=1|583=204b73513cd54a16|10=106|
20150520-13:46:06.528: 8=FIX.4.4|9=253|35=G|34=168|49=ADRARBXBOG|52=20150520-13:46:06.528|56=AMGTOBVC|1=881|11=-788b723b1c53bcec|21=1|38=12000|40=2|41=-b550bffa6e6b3db|44=3445|54=1|55=PFAVH|59=0|60=20150520-13:46:06.528|63=3|100=XBOG|207=XBOG|583=204b73513cd54a16|453=1|448=LVARB|447=D|452=1|10=074|
20150520-13:46:06.637: 8=FIX.4.4|9=343|35=8|57=062X01|128=LRVORBVC|115=BVC062|34=168|49=AMGTOBVC|56=ADRARBXBOG|52=20150520-13:46:06.614|37=201505202204|11=-788b723b1c53bcec|41=-b550bffa6e6b3db|17=11590|150=5|39=0|63=4|48=PFAVH|22=99|167=CS|54=1|38=12000|40=2|44=3445|59=0|151=12000|14=0|60=20150520-13:46:06.000|31=0|32=0|6=0|55=PFAVH|453=1|448=062|447=D|452=1|583=204b73513cd54a16|10=255|
20150520-13:46:08.578: 8=FIX.4.4|9=254|35=G|34=169|49=ADRARBXBOG|52=20150520-13:46:08.578|56=AMGTOBVC|1=881|11=1bc82cea46304b56|21=1|38=4000|40=2|41=1630d6c2e5147fe|44=27780|54=1|55=PFBCOLOM|59=0|60=20150520-13:46:08.577|63=3|100=XBOG|207=XBOG|583=-ee6c25b20e4bb0e|453=1|448=LVARB|447=D|452=1|10=169|
20150520-13:46:08.685: 8=FIX.4.4|9=346|35=8|57=062X01|128=LRVORBVC|115=BVC062|34=169|49=AMGTOBVC|56=ADRARBXBOG|52=20150520-13:46:08.673|37=201505202285|11=1bc82cea46304b56|41=1630d6c2e5147fe|17=11602|150=5|39=0|63=4|48=PFBCOLOM|22=99|167=CS|54=1|38=4000|40=2|44=27780|59=0|151=4000|14=0|60=20150520-13:46:08.000|31=0|32=0|6=0|55=PFBCOLOM|453=1|448=062|447=D|452=1|583=-ee6c25b20e4bb0e|10=013|
20150520-13:46:08.769: 8=FIX.4.4|9=254|35=G|34=170|49=ADRARBXBOG|52=20150520-13:46:08.769|56=AMGTOBVC|1=881|11=-35d524e25d77b172|21=1|38=12000|40=2|41=-788b723b1c53bcec|44=3440|54=1|55=PFAVH|59=0|60=20150520-13:46:08.768|63=3|100=XBOG|207=XBOG|583=204b73513cd54a16|453=1|448=LVARB|447=D|452=1|10=154|
20150520-13:46:08.877: 8=FIX.4.4|9=344|35=8|57=062X01|128=LRVORBVC|115=BVC062|34=170|49=AMGTOBVC|56=ADRARBXBOG|52=20150520-13:46:08.860|37=201505202204|11=-35d524e25d77b172|41=-788b723b1c53bcec|17=11603|150=5|39=0|63=4|48=PFAVH|22=99|167=CS|54=1|38=12000|40=2|44=3440|59=0|151=12000|14=0|60=20150520-13:46:08.000|31=0|32=0|6=0|55=PFAVH|453=1|448=062|447=D|452=1|583=204b73513cd54a16|10=064|
20150520-13:46:09.888: 8=FIX.4.4|9=253|35=G|34=171|49=ADRARBXBOG|52=20150520-13:46:09.888|56=AMGTOBVC|1=881|11=-6779b1be296ba74|21=1|38=12000|40=2|41=-4c52c6f7a2acb4d6|44=3505|54=2|55=PFAVH|59=0|60=20150520-13:46:09.888|63=3|100=XBOG|207=XBOG|583=204b73513cd54a16|453=1|448=LVARB|447=D|452=1|10=212|
20150520-13:46:09.995: 8=FIX.4.4|9=343|35=8|57=062X01|128=LRVORBVC|115=BVC062|34=171|49=AMGTOBVC|56=ADRARBXBOG|52=20150520-13:46:09.983|37=201505202207|11=-6779b1be296ba74|41=-4c52c6f7a2acb4d6|17=11606|150=5|39=0|63=4|48=PFAVH|22=99|167=CS|54=2|38=12000|40=2|44=3505|59=0|151=12000|14=0|60=20150520-13:46:09.000|31=0|32=0|6=0|55=PFAVH|453=1|448=062|447=D|452=1|583=204b73513cd54a16|10=129|
20150520-13:46:12.881: 8=FIX.4.4|9=256|35=G|34=172|49=ADRARBXBOG|52=20150520-13:46:12.881|56=AMGTOBVC|1=881|11=-3bcdc87656c0b38f|21=1|38=4000|40=2|41=1bc82cea46304b56|44=27820|54=1|55=PFBCOLOM|59=0|60=20150520-13:46:12.881|63=3|100=XBOG|207=XBOG|583=-ee6c25b20e4bb0e|453=1|448=LVARB|447=D|452=1|10=089|
20150520-13:46:12.989: 8=FIX.4.4|9=348|35=8|57=062X01|128=LRVORBVC|115=BVC062|34=172|49=AMGTOBVC|56=ADRARBXBOG|52=20150520-13:46:12.978|37=201505202285|11=-3bcdc87656c0b38f|41=1bc82cea46304b56|17=11622|150=5|39=0|63=4|48=PFBCOLOM|22=99|167=CS|54=1|38=4000|40=2|44=27820|59=0|151=4000|14=0|60=20150520-13:46:12.000|31=0|32=0|6=0|55=PFBCOLOM|453=1|448=062|447=D|452=1|583=-ee6c25b20e4bb0e|10=204|
20150520-13:46:12.992: 8=FIX.4.4|9=255|35=G|34=173|49=ADRARBXBOG|52=20150520-13:46:12.992|56=AMGTOBVC|1=881|11=26a25fdd30d4b38|21=1|38=4000|40=2|41=-3bcdc87656c0b38f|44=27780|54=1|55=PFBCOLOM|59=0|60=20150520-13:46:12.991|63=3|100=XBOG|207=XBOG|583=-ee6c25b20e4bb0e|453=1|448=LVARB|447=D|452=1|10=050|
20150520-13:46:13.102: 8=FIX.4.4|9=347|35=8|57=062X01|128=LRVORBVC|115=BVC062|34=173|49=AMGTOBVC|56=ADRARBXBOG|52=20150520-13:46:13.088|37=201505202285|11=26a25fdd30d4b38|41=-3bcdc87656c0b38f|17=11624|150=5|39=0|63=4|48=PFBCOLOM|22=99|167=CS|54=1|38=4000|40=2|44=27780|59=0|151=4000|14=0|60=20150520-13:46:13.000|31=0|32=0|6=0|55=PFBCOLOM|453=1|448=062|447=D|452=1|583=-ee6c25b20e4bb0e|10=156|
20150520-13:46:18.348: 8=FIX.4.4|9=256|35=G|34=174|49=ADRARBXBOG|52=20150520-13:46:18.348|56=AMGTOBVC|1=881|11=61a3956492654de7|21=1|38=4000|40=2|41=-31dfa099ba9bbfa6|44=28060|54=2|55=PFBCOLOM|59=0|60=20150520-13:46:18.348|63=3|100=XBOG|207=XBOG|583=-ee6c25b20e4bb0e|453=1|448=LVARB|447=D|452=1|10=064|
20150520-13:46:18.355: 8=FIX.4.4|9=255|35=G|34=175|49=ADRARBXBOG|52=20150520-13:46:18.355|56=AMGTOBVC|1=881|11=-38a86963544cb54d|21=1|38=4000|40=2|41=26a25fdd30d4b38|44=27760|54=1|55=PFBCOLOM|59=0|60=20150520-13:46:18.355|63=3|100=XBOG|207=XBOG|583=-ee6c25b20e4bb0e|453=1|448=LVARB|447=D|452=1|10=167|
20150520-13:46:18.474: 8=FIX.4.4|9=348|35=8|57=062X01|128=LRVORBVC|115=BVC062|34=174|49=AMGTOBVC|56=ADRARBXBOG|52=20150520-13:46:18.438|37=201505202286|11=61a3956492654de7|41=-31dfa099ba9bbfa6|17=11636|150=5|39=0|63=4|48=PFBCOLOM|22=99|167=CS|54=2|38=4000|40=2|44=28060|59=0|151=4000|14=0|60=20150520-13:46:18.000|31=0|32=0|6=0|55=PFBCOLOM|453=1|448=062|447=D|452=1|583=-ee6c25b20e4bb0e|10=180|
20150520-13:46:18.478: 8=FIX.4.4|9=347|35=8|57=062X01|128=LRVORBVC|115=BVC062|34=175|49=AMGTOBVC|56=ADRARBXBOG|52=20150520-13:46:18.454|37=201505202285|11=-38a86963544cb54d|41=26a25fdd30d4b38|17=11637|150=5|39=0|63=4|48=PFBCOLOM|22=99|167=CS|54=1|38=4000|40=2|44=27760|59=0|151=4000|14=0|60=20150520-13:46:18.000|31=0|32=0|6=0|55=PFBCOLOM|453=1|448=062|447=D|452=1|583=-ee6c25b20e4bb0e|10=029|
20150520-13:46:18.479: 8=FIX.4.4|9=257|35=G|34=176|49=ADRARBXBOG|52=20150520-13:46:18.479|56=AMGTOBVC|1=881|11=-62b45c37edc4b8ce|21=1|38=4000|40=2|41=-38a86963544cb54d|44=27740|54=1|55=PFBCOLOM|59=0|60=20150520-13:46:18.479|63=3|100=XBOG|207=XBOG|583=-ee6c25b20e4bb0e|453=1|448=LVARB|447=D|452=1|10=127|
20150520-13:46:18.612: 8=FIX.4.4|9=349|35=8|57=062X01|128=LRVORBVC|115=BVC062|34=176|49=AMGTOBVC|56=ADRARBXBOG|52=20150520-13:46:18.594|37=201505202285|11=-62b45c37edc4b8ce|41=-38a86963544cb54d|17=11639|150=5|39=0|63=4|48=PFBCOLOM|22=99|167=CS|54=1|38=4000|40=2|44=27740|59=0|151=4000|14=0|60=20150520-13:46:18.000|31=0|32=0|6=0|55=PFBCOLOM|453=1|448=062|447=D|452=1|583=-ee6c25b20e4bb0e|10=238|
20150520-13:46:19.417: 8=FIX.4.4|9=257|35=G|34=177|49=ADRARBXBOG|52=20150520-13:46:19.417|56=AMGTOBVC|1=881|11=-795b8b7b1e52b95a|21=1|38=4000|40=2|41=-62b45c37edc4b8ce|44=27700|54=1|55=PFBCOLOM|59=0|60=20150520-13:46:19.417|63=3|100=XBOG|207=XBOG|583=-ee6c25b20e4bb0e|453=1|448=LVARB|447=D|452=1|10=203|
20150520-13:46:19.524: 8=FIX.4.4|9=349|35=8|57=062X01|128=LRVORBVC|115=BVC062|34=177|49=AMGTOBVC|56=ADRARBXBOG|52=20150520-13:46:19.515|37=201505202285|11=-795b8b7b1e52b95a|41=-62b45c37edc4b8ce|17=11641|150=5|39=0|63=4|48=PFBCOLOM|22=99|167=CS|54=1|38=4000|40=2|44=27700|59=0|151=4000|14=0|60=20150520-13:46:19.000|31=0|32=0|6=0|55=PFBCOLOM|453=1|448=062|447=D|452=1|583=-ee6c25b20e4bb0e|10=060|
20150520-13:46:19.526: 8=FIX.4.4|9=255|35=G|34=178|49=ADRARBXBOG|52=20150520-13:46:19.526|56=AMGTOBVC|1=881|11=22c630be53243e4|21=1|38=4000|40=2|41=-795b8b7b1e52b95a|44=27680|54=1|55=PFBCOLOM|59=0|60=20150520-13:46:19.526|63=3|100=XBOG|207=XBOG|583=-ee6c25b20e4bb0e|453=1|448=LVARB|447=D|452=1|10=165|
20150520-13:46:19.634: 8=FIX.4.4|9=347|35=8|57=062X01|128=LRVORBVC|115=BVC062|34=178|49=AMGTOBVC|56=ADRARBXBOG|52=20150520-13:46:19.624|37=201505202285|11=22c630be53243e4|41=-795b8b7b1e52b95a|17=11642|150=5|39=0|63=4|48=PFBCOLOM|22=99|167=CS|54=1|38=4000|40=2|44=27680|59=0|151=4000|14=0|60=20150520-13:46:19.000|31=0|32=0|6=0|55=PFBCOLOM|453=1|448=062|447=D|452=1|583=-ee6c25b20e4bb0e|10=022|
20150520-13:46:20.724: 8=FIX.4.4|9=256|35=G|34=179|49=ADRARBXBOG|52=20150520-13:46:20.724|56=AMGTOBVC|1=881|11=-66eb6ce084b2b21a|21=1|38=4000|40=2|41=61a3956492654de7|44=28020|54=2|55=PFBCOLOM|59=0|60=20150520-13:46:20.724|63=3|100=XBOG|207=XBOG|583=-ee6c25b20e4bb0e|453=1|448=LVARB|447=D|452=1|10=200|
20150520-13:46:20.832: 8=FIX.4.4|9=348|35=8|57=062X01|128=LRVORBVC|115=BVC062|34=179|49=AMGTOBVC|56=ADRARBXBOG|52=20150520-13:46:20.809|37=201505202286|11=-66eb6ce084b2b21a|41=61a3956492654de7|17=11650|150=5|39=0|63=4|48=PFBCOLOM|22=99|167=CS|54=2|38=4000|40=2|44=28020|59=0|151=4000|14=0|60=20150520-13:46:20.000|31=0|32=0|6=0|55=PFBCOLOM|453=1|448=062|447=D|452=1|583=-ee6c25b20e4bb0e|10=062|
20150520-13:46:22.339: 8=FIX.4.4|9=254|35=G|34=180|49=ADRARBXBOG|52=20150520-13:46:22.339|56=AMGTOBVC|1=881|11=1b75123e1abe4914|21=1|38=4000|40=2|41=22c630be53243e4|44=27740|54=1|55=PFBCOLOM|59=0|60=20150520-13:46:22.339|63=3|100=XBOG|207=XBOG|583=-ee6c25b20e4bb0e|453=1|448=LVARB|447=D|452=1|10=034|
20150520-13:46:22.453: 8=FIX.4.4|9=346|35=8|57=062X01|128=LRVORBVC|115=BVC062|34=180|49=AMGTOBVC|56=ADRARBXBOG|52=20150520-13:46:22.432|37=201505202285|11=1b75123e1abe4914|41=22c630be53243e4|17=11660|150=5|39=0|63=4|48=PFBCOLOM|22=99|167=CS|54=1|38=4000|40=2|44=27740|59=0|151=4000|14=0|60=20150520-13:46:22.000|31=0|32=0|6=0|55=PFBCOLOM|453=1|448=062|447=D|452=1|583=-ee6c25b20e4bb0e|10=140|
20150520-13:46:23.749: 8=FIX.4.4|9=256|35=G|34=181|49=ADRARBXBOG|52=20150520-13:46:23.749|56=AMGTOBVC|1=881|11=-516498488c36b0ae|21=1|38=4000|40=2|41=1b75123e1abe4914|44=27760|54=1|55=PFBCOLOM|59=0|60=20150520-13:46:23.749|63=3|100=XBOG|207=XBOG|583=-ee6c25b20e4bb0e|453=1|448=LVARB|447=D|452=1|10=168|
20150520-13:46:23.856: 8=FIX.4.4|9=348|35=8|57=062X01|128=LRVORBVC|115=BVC062|34=181|49=AMGTOBVC|56=ADRARBXBOG|52=20150520-13:46:23.836|37=201505202285|11=-516498488c36b0ae|41=1b75123e1abe4914|17=11662|150=5|39=0|63=4|48=PFBCOLOM|22=99|167=CS|54=1|38=4000|40=2|44=27760|59=0|151=4000|14=0|60=20150520-13:46:23.000|31=0|32=0|6=0|55=PFBCOLOM|453=1|448=062|447=D|452=1|583=-ee6c25b20e4bb0e|10=018|
20150520-13:46:32.700: 8=FIX.4.4|9=256|35=G|34=182|49=ADRARBXBOG|52=20150520-13:46:32.700|56=AMGTOBVC|1=881|11=6d4bc746f28e4447|21=1|38=4000|40=2|41=-516498488c36b0ae|44=27720|54=1|55=PFBCOLOM|59=0|60=20150520-13:46:32.700|63=3|100=XBOG|207=XBOG|583=-ee6c25b20e4bb0e|453=1|448=LVARB|447=D|452=1|10=162|
20150520-13:46:32.809: 8=FIX.4.4|9=348|35=8|57=062X01|128=LRVORBVC|115=BVC062|34=182|49=AMGTOBVC|56=ADRARBXBOG|52=20150520-13:46:32.790|37=201505202285|11=6d4bc746f28e4447|41=-516498488c36b0ae|17=11678|150=5|39=0|63=4|48=PFBCOLOM|22=99|167=CS|54=1|38=4000|40=2|44=27720|59=0|151=4000|14=0|60=20150520-13:46:32.000|31=0|32=0|6=0|55=PFBCOLOM|453=1|448=062|447=D|452=1|583=-ee6c25b20e4bb0e|10=044|
20150520-13:46:33.390: 8=FIX.4.4|9=256|35=G|34=183|49=ADRARBXBOG|52=20150520-13:46:33.390|56=AMGTOBVC|1=881|11=71193ece11f04f0f|21=1|38=40000|40=2|41=170c9990c9494449|44=1860|54=1|55=ECOPETROL|59=0|60=20150520-13:46:33.390|63=3|100=XBOG|207=XBOG|583=236291ae63c543f2|453=1|448=LVARB|447=D|452=1|10=243|
20150520-13:46:33.502: 8=FIX.4.4|9=350|35=8|57=062X01|128=LRVORBVC|115=BVC062|34=183|49=AMGTOBVC|56=ADRARBXBOG|52=20150520-13:46:33.492|37=201505202316|11=71193ece11f04f0f|41=170c9990c9494449|17=11684|150=5|39=0|63=4|48=ECOPETROL|22=99|167=CS|54=1|38=40000|40=2|44=1860|59=0|151=40000|14=0|60=20150520-13:46:33.000|31=0|32=0|6=0|55=ECOPETROL|453=1|448=062|447=D|452=1|583=236291ae63c543f2|10=238|
20150520-13:46:34.368: 8=FIX.4.4|9=255|35=G|34=184|49=ADRARBXBOG|52=20150520-13:46:34.368|56=AMGTOBVC|1=881|11=5d4a2d52db384c8c|21=1|38=4000|40=2|41=6d4bc746f28e4447|44=27760|54=1|55=PFBCOLOM|59=0|60=20150520-13:46:34.368|63=3|100=XBOG|207=XBOG|583=-ee6c25b20e4bb0e|453=1|448=LVARB|447=D|452=1|10=023|
20150520-13:46:34.486: 8=FIX.4.4|9=347|35=8|57=062X01|128=LRVORBVC|115=BVC062|34=184|49=AMGTOBVC|56=ADRARBXBOG|52=20150520-13:46:34.459|37=201505202285|11=5d4a2d52db384c8c|41=6d4bc746f28e4447|17=11695|150=5|39=0|63=4|48=PFBCOLOM|22=99|167=CS|54=1|38=4000|40=2|44=27760|59=0|151=4000|14=0|60=20150520-13:46:34.000|31=0|32=0|6=0|55=PFBCOLOM|453=1|448=062|447=D|452=1|583=-ee6c25b20e4bb0e|10=142|
20150520-13:46:35.420: 8=FIX.4.4|9=253|35=G|34=185|49=ADRARBXBOG|52=20150520-13:46:35.420|56=AMGTOBVC|1=881|11=64b108918c4a01|21=1|38=4000|40=2|41=5d4a2d52db384c8c|44=27720|54=1|55=PFBCOLOM|59=0|60=20150520-13:46:35.420|63=3|100=XBOG|207=XBOG|583=-ee6c25b20e4bb0e|453=1|448=LVARB|447=D|452=1|10=034|
20150520-13:46:35.530: 8=FIX.4.4|9=345|35=8|57=062X01|128=LRVORBVC|115=BVC062|34=185|49=AMGTOBVC|56=ADRARBXBOG|52=20150520-13:46:35.520|37=201505202285|11=64b108918c4a01|41=5d4a2d52db384c8c|17=11707|150=5|39=0|63=4|48=PFBCOLOM|22=99|167=CS|54=1|38=4000|40=2|44=27720|59=0|151=4000|14=0|60=20150520-13:46:35.000|31=0|32=0|6=0|55=PFBCOLOM|453=1|448=062|447=D|452=1|583=-ee6c25b20e4bb0e|10=158|
20150520-13:46:35.558: 8=FIX.4.4|9=253|35=G|34=186|49=ADRARBXBOG|52=20150520-13:46:35.558|56=AMGTOBVC|1=881|11=-1ba2ff42e0fbd69|21=1|38=4000|40=2|41=64b108918c4a01|44=27760|54=1|55=PFBCOLOM|59=0|60=20150520-13:46:35.558|63=3|100=XBOG|207=XBOG|583=-ee6c25b20e4bb0e|453=1|448=LVARB|447=D|452=1|10=102|
20150520-13:46:35.558: 8=FIX.4.4|9=257|35=G|34=187|49=ADRARBXBOG|52=20150520-13:46:35.558|56=AMGTOBVC|1=881|11=-15e3fb8f6252ba55|21=1|38=4000|40=2|41=-66eb6ce084b2b21a|44=28040|54=2|55=PFBCOLOM|59=0|60=20150520-13:46:35.558|63=3|100=XBOG|207=XBOG|583=-ee6c25b20e4bb0e|453=1|448=LVARB|447=D|452=1|10=144|
20150520-13:46:35.673: 8=FIX.4.4|9=345|35=8|57=062X01|128=LRVORBVC|115=BVC062|34=186|49=AMGTOBVC|56=ADRARBXBOG|52=20150520-13:46:35.660|37=201505202285|11=-1ba2ff42e0fbd69|41=64b108918c4a01|17=11708|150=5|39=0|63=4|48=PFBCOLOM|22=99|167=CS|54=1|38=4000|40=2|44=27760|59=0|151=4000|14=0|60=20150520-13:46:35.000|31=0|32=0|6=0|55=PFBCOLOM|453=1|448=062|447=D|452=1|583=-ee6c25b20e4bb0e|10=208|
20150520-13:46:35.680: 8=FIX.4.4|9=349|35=8|57=062X01|128=LRVORBVC|115=BVC062|34=187|49=AMGTOBVC|56=ADRARBXBOG|52=20150520-13:46:35.660|37=201505202286|11=-15e3fb8f6252ba55|41=-66eb6ce084b2b21a|17=11709|150=5|39=0|63=4|48=PFBCOLOM|22=99|167=CS|54=2|38=4000|40=2|44=28040|59=0|151=4000|14=0|60=20150520-13:46:35.000|31=0|32=0|6=0|55=PFBCOLOM|453=1|448=062|447=D|452=1|583=-ee6c25b20e4bb0e|10=252|
20150520-13:46:35.682: 8=FIX.4.4|9=252|35=G|34=188|49=ADRARBXBOG|52=20150520-13:46:35.681|56=AMGTOBVC|1=881|11=6287fa49d90b4515|21=1|38=12000|40=2|41=-6779b1be296ba74|44=3510|54=2|55=PFAVH|59=0|60=20150520-13:46:35.681|63=3|100=XBOG|207=XBOG|583=204b73513cd54a16|453=1|448=LVARB|447=D|452=1|10=228|
20150520-13:46:35.682: 8=FIX.4.4|9=254|35=G|34=189|49=ADRARBXBOG|52=20150520-13:46:35.682|56=AMGTOBVC|1=881|11=-297daa217c00bc65|21=1|38=12000|40=2|41=-35d524e25d77b172|44=3445|54=1|55=PFAVH|59=0|60=20150520-13:46:35.682|63=3|100=XBOG|207=XBOG|583=204b73513cd54a16|453=1|448=LVARB|447=D|452=1|10=099|
20150520-13:46:35.810: 8=FIX.4.4|9=342|35=8|57=062X01|128=LRVORBVC|115=BVC062|34=188|49=AMGTOBVC|56=ADRARBXBOG|52=20150520-13:46:35.785|37=201505202207|11=6287fa49d90b4515|41=-6779b1be296ba74|17=11711|150=5|39=0|63=4|48=PFAVH|22=99|167=CS|54=2|38=12000|40=2|44=3510|59=0|151=12000|14=0|60=20150520-13:46:35.000|31=0|32=0|6=0|55=PFAVH|453=1|448=062|447=D|452=1|583=204b73513cd54a16|10=160|
20150520-13:46:35.810: 8=FIX.4.4|9=344|35=8|57=062X01|128=LRVORBVC|115=BVC062|34=189|49=AMGTOBVC|56=ADRARBXBOG|52=20150520-13:46:35.785|37=201505202204|11=-297daa217c00bc65|41=-35d524e25d77b172|17=11712|150=5|39=0|63=4|48=PFAVH|22=99|167=CS|54=1|38=12000|40=2|44=3445|59=0|151=12000|14=0|60=20150520-13:46:35.000|31=0|32=0|6=0|55=PFAVH|453=1|448=062|447=D|452=1|583=204b73513cd54a16|10=027|
20150520-13:46:36.219: 8=FIX.4.4|9=253|35=G|34=190|49=ADRARBXBOG|52=20150520-13:46:36.219|56=AMGTOBVC|1=881|11=5a244ac8ab444d8f|21=1|38=12000|40=2|41=-297daa217c00bc65|44=3440|54=1|55=PFAVH|59=0|60=20150520-13:46:36.219|63=3|100=XBOG|207=XBOG|583=204b73513cd54a16|453=1|448=LVARB|447=D|452=1|10=174|
20150520-13:46:36.327: 8=FIX.4.4|9=343|35=8|57=062X01|128=LRVORBVC|115=BVC062|34=190|49=AMGTOBVC|56=ADRARBXBOG|52=20150520-13:46:36.316|37=201505202204|11=5a244ac8ab444d8f|41=-297daa217c00bc65|17=11717|150=5|39=0|63=4|48=PFAVH|22=99|167=CS|54=1|38=12000|40=2|44=3440|59=0|151=12000|14=0|60=20150520-13:46:36.000|31=0|32=0|6=0|55=PFAVH|453=1|448=062|447=D|452=1|583=204b73513cd54a16|10=105|
20150520-13:46:37.732: 8=FIX.4.4|9=256|35=G|34=191|49=ADRARBXBOG|52=20150520-13:46:37.732|56=AMGTOBVC|1=881|11=-35e4ab18cbcab998|21=1|38=4000|40=2|41=-1ba2ff42e0fbd69|44=27780|54=1|55=PFBCOLOM|59=0|60=20150520-13:46:37.732|63=3|100=XBOG|207=XBOG|583=-ee6c25b20e4bb0e|453=1|448=LVARB|447=D|452=1|10=238|
20150520-13:46:37.854: 8=FIX.4.4|9=348|35=8|57=062X01|128=LRVORBVC|115=BVC062|34=191|49=AMGTOBVC|56=ADRARBXBOG|52=20150520-13:46:37.844|37=201505202285|11=-35e4ab18cbcab998|41=-1ba2ff42e0fbd69|17=11730|150=5|39=0|63=4|48=PFBCOLOM|22=99|167=CS|54=1|38=4000|40=2|44=27780|59=0|151=4000|14=0|60=20150520-13:46:37.000|31=0|32=0|6=0|55=PFBCOLOM|453=1|448=062|447=D|452=1|583=-ee6c25b20e4bb0e|10=099|
20150520-13:46:40.053: 8=FIX.4.4|9=252|35=G|34=192|49=ADRARBXBOG|52=20150520-13:46:40.052|56=AMGTOBVC|1=881|11=37094f9fdda54c13|21=1|38=12000|40=2|41=5a244ac8ab444d8f|44=3445|54=1|55=PFAVH|59=0|60=20150520-13:46:40.052|63=3|100=XBOG|207=XBOG|583=204b73513cd54a16|453=1|448=LVARB|447=D|452=1|10=131|
20150520-13:46:40.079: 8=FIX.4.4|9=256|35=G|34=193|49=ADRARBXBOG|52=20150520-13:46:40.079|56=AMGTOBVC|1=881|11=7fa36636749148f1|21=1|38=40000|40=2|41=76e279e6af954159|44=1880|54=2|55=ECOPETROL|59=0|60=20150520-13:46:40.079|63=3|100=XBOG|207=XBOG|583=236291ae63c543f2|453=1|448=LVARB|447=D|452=1|10=226|
20150520-13:46:40.163: 8=FIX.4.4|9=342|35=8|57=062X01|128=LRVORBVC|115=BVC062|34=192|49=AMGTOBVC|56=ADRARBXBOG|52=20150520-13:46:40.138|37=201505202204|11=37094f9fdda54c13|41=5a244ac8ab444d8f|17=11738|150=5|39=0|63=4|48=PFAVH|22=99|167=CS|54=1|38=12000|40=2|44=3445|59=0|151=12000|14=0|60=20150520-13:46:40.000|31=0|32=0|6=0|55=PFAVH|453=1|448=062|447=D|452=1|583=204b73513cd54a16|10=077|
20150520-13:46:40.186: 8=FIX.4.4|9=350|35=8|57=062X01|128=LRVORBVC|115=BVC062|34=193|49=AMGTOBVC|56=ADRARBXBOG|52=20150520-13:46:40.169|37=201505202319|11=7fa36636749148f1|41=76e279e6af954159|17=11739|150=5|39=0|63=4|48=ECOPETROL|22=99|167=CS|54=2|38=40000|40=2|44=1880|59=0|151=40000|14=0|60=20150520-13:46:40.000|31=0|32=0|6=0|55=ECOPETROL|453=1|448=062|447=D|452=1|583=236291ae63c543f2|10=218|
20150520-13:46:41.071: 8=FIX.4.4|9=256|35=G|34=194|49=ADRARBXBOG|52=20150520-13:46:41.071|56=AMGTOBVC|1=881|11=49d81d68f7644414|21=1|38=40000|40=2|41=71193ece11f04f0f|44=1865|54=1|55=ECOPETROL|59=0|60=20150520-13:46:41.071|63=3|100=XBOG|207=XBOG|583=236291ae63c543f2|453=1|448=LVARB|447=D|452=1|10=028|
20150520-13:46:41.178: 8=FIX.4.4|9=350|35=8|57=062X01|128=LRVORBVC|115=BVC062|34=194|49=AMGTOBVC|56=ADRARBXBOG|52=20150520-13:46:41.167|37=201505202316|11=49d81d68f7644414|41=71193ece11f04f0f|17=11747|150=5|39=0|63=4|48=ECOPETROL|22=99|167=CS|54=1|38=40000|40=2|44=1865|59=0|151=40000|14=0|60=20150520-13:46:41.000|31=0|32=0|6=0|55=ECOPETROL|453=1|448=062|447=D|452=1|583=236291ae63c543f2|10=030|
20150520-13:46:41.210: 8=FIX.4.4|9=257|35=G|34=195|49=ADRARBXBOG|52=20150520-13:46:41.210|56=AMGTOBVC|1=881|11=-1072ccb4aaa4bcbc|21=1|38=4000|40=2|41=-35e4ab18cbcab998|44=27740|54=1|55=PFBCOLOM|59=0|60=20150520-13:46:41.210|63=3|100=XBOG|207=XBOG|583=-ee6c25b20e4bb0e|453=1|448=LVARB|447=D|452=1|10=082|
20150520-13:46:41.319: 8=FIX.4.4|9=349|35=8|57=062X01|128=LRVORBVC|115=BVC062|34=195|49=AMGTOBVC|56=ADRARBXBOG|52=20150520-13:46:41.308|37=201505202285|11=-1072ccb4aaa4bcbc|41=-35e4ab18cbcab998|17=11748|150=5|39=0|63=4|48=PFBCOLOM|22=99|167=CS|54=1|38=4000|40=2|44=27740|59=0|151=4000|14=0|60=20150520-13:46:41.000|31=0|32=0|6=0|55=PFBCOLOM|453=1|448=062|447=D|452=1|583=-ee6c25b20e4bb0e|10=221|
20150520-13:46:41.321: 8=FIX.4.4|9=256|35=G|34=196|49=ADRARBXBOG|52=20150520-13:46:41.321|56=AMGTOBVC|1=881|11=42ea88b27bde468e|21=1|38=4000|40=2|41=-1072ccb4aaa4bcbc|44=27800|54=1|55=PFBCOLOM|59=0|60=20150520-13:46:41.321|63=3|100=XBOG|207=XBOG|583=-ee6c25b20e4bb0e|453=1|448=LVARB|447=D|452=1|10=255|
20150520-13:46:41.430: 8=FIX.4.4|9=348|35=8|57=062X01|128=LRVORBVC|115=BVC062|34=196|49=AMGTOBVC|56=ADRARBXBOG|52=20150520-13:46:41.417|37=201505202285|11=42ea88b27bde468e|41=-1072ccb4aaa4bcbc|17=11749|150=5|39=0|63=4|48=PFBCOLOM|22=99|167=CS|54=1|38=4000|40=2|44=27800|59=0|151=4000|14=0|60=20150520-13:46:41.000|31=0|32=0|6=0|55=PFBCOLOM|453=1|448=062|447=D|452=1|583=-ee6c25b20e4bb0e|10=134|
20150520-13:46:44.267: 8=FIX.4.4|9=253|35=G|34=197|49=ADRARBXBOG|52=20150520-13:46:44.267|56=AMGTOBVC|1=881|11=-4a5f6d126a2bb853|21=1|38=12000|40=2|41=37094f9fdda54c13|44=3440|54=1|55=PFAVH|59=0|60=20150520-13:46:44.267|63=3|100=XBOG|207=XBOG|583=204b73513cd54a16|453=1|448=LVARB|447=D|452=1|10=150|
20150520-13:46:44.377: 8=FIX.4.4|9=343|35=8|57=062X01|128=LRVORBVC|115=BVC062|34=197|49=AMGTOBVC|56=ADRARBXBOG|52=20150520-13:46:44.365|37=201505202204|11=-4a5f6d126a2bb853|41=37094f9fdda54c13|17=11771|150=5|39=0|63=4|48=PFAVH|22=99|167=CS|54=1|38=12000|40=2|44=3440|59=0|151=12000|14=0|60=20150520-13:46:44.000|31=0|32=0|6=0|55=PFAVH|453=1|448=062|447=D|452=1|583=204b73513cd54a16|10=079|
20150520-13:46:45.376: 8=FIX.4.4|9=256|35=G|34=198|49=ADRARBXBOG|52=20150520-13:46:45.376|56=AMGTOBVC|1=881|11=-f60342b1f47b1aa|21=1|38=4000|40=2|41=-15e3fb8f6252ba55|44=28060|54=2|55=PFBCOLOM|59=0|60=20150520-13:46:45.376|63=3|100=XBOG|207=XBOG|583=-ee6c25b20e4bb0e|453=1|448=LVARB|447=D|452=1|10=040|
20150520-13:46:45.484: 8=FIX.4.4|9=348|35=8|57=062X01|128=LRVORBVC|115=BVC062|34=198|49=AMGTOBVC|56=ADRARBXBOG|52=20150520-13:46:45.473|37=201505202286|11=-f60342b1f47b1aa|41=-15e3fb8f6252ba55|17=11782|150=5|39=0|63=4|48=PFBCOLOM|22=99|167=CS|54=2|38=4000|40=2|44=28060|59=0|151=4000|14=0|60=20150520-13:46:45.000|31=0|32=0|6=0|55=PFBCOLOM|453=1|448=062|447=D|452=1|583=-ee6c25b20e4bb0e|10=155|
20150520-13:46:50.600: 8=FIX.4.4|9=255|35=G|34=199|49=ADRARBXBOG|52=20150520-13:46:50.600|56=AMGTOBVC|1=881|11=3e0f4a3b6e654082|21=1|38=4000|40=2|41=42ea88b27bde468e|44=27840|54=1|55=PFBCOLOM|59=0|60=20150520-13:46:50.599|63=3|100=XBOG|207=XBOG|583=-ee6c25b20e4bb0e|453=1|448=LVARB|447=D|452=1|10=014|
20150520-13:46:50.713: 8=FIX.4.4|9=347|35=8|57=062X01|128=LRVORBVC|115=BVC062|34=199|49=AMGTOBVC|56=ADRARBXBOG|52=20150520-13:46:50.683|37=201505202285|11=3e0f4a3b6e654082|41=42ea88b27bde468e|17=11820|150=5|39=0|63=4|48=PFBCOLOM|22=99|167=CS|54=1|38=4000|40=2|44=27840|59=0|151=4000|14=0|60=20150520-13:46:50.000|31=0|32=0|6=0|55=PFBCOLOM|453=1|448=062|447=D|452=1|583=-ee6c25b20e4bb0e|10=127|
20150520-13:46:54.603: 8=FIX.4.4|9=256|35=G|34=200|49=ADRARBXBOG|52=20150520-13:46:54.602|56=AMGTOBVC|1=881|11=651a6db16d58480c|21=1|38=40000|40=2|41=49d81d68f7644414|44=1860|54=1|55=ECOPETROL|59=0|60=20150520-13:46:54.602|63=3|100=XBOG|207=XBOG|583=236291ae63c543f2|453=1|448=LVARB|447=D|452=1|10=233|
20150520-13:46:54.712: 8=FIX.4.4|9=350|35=8|57=062X01|128=LRVORBVC|115=BVC062|34=200|49=AMGTOBVC|56=ADRARBXBOG|52=20150520-13:46:54.692|37=201505202316|11=651a6db16d58480c|41=49d81d68f7644414|17=11832|150=5|39=0|63=4|48=ECOPETROL|22=99|167=CS|54=1|38=40000|40=2|44=1860|59=0|151=40000|14=0|60=20150520-13:46:54.000|31=0|32=0|6=0|55=ECOPETROL|453=1|448=062|447=D|452=1|583=236291ae63c543f2|10=233|
20150520-13:46:56.672: 8=FIX.4.4|9=256|35=G|34=201|49=ADRARBXBOG|52=20150520-13:46:56.672|56=AMGTOBVC|1=881|11=-4c3c6af3c376baa2|21=1|38=4000|40=2|41=3e0f4a3b6e654082|44=27820|54=1|55=PFBCOLOM|59=0|60=20150520-13:46:56.672|63=3|100=XBOG|207=XBOG|583=-ee6c25b20e4bb0e|453=1|448=LVARB|447=D|452=1|10=084|
20150520-13:46:56.673: 8=FIX.4.4|9=256|35=G|34=202|49=ADRARBXBOG|52=20150520-13:46:56.672|56=AMGTOBVC|1=881|11=-3534b340fbf5bce9|21=1|38=4000|40=2|41=-f60342b1f47b1aa|44=28020|54=2|55=PFBCOLOM|59=0|60=20150520-13:46:56.672|63=3|100=XBOG|207=XBOG|583=-ee6c25b20e4bb0e|453=1|448=LVARB|447=D|452=1|10=070|
20150520-13:46:56.782: 8=FIX.4.4|9=348|35=8|57=062X01|128=LRVORBVC|115=BVC062|34=201|49=AMGTOBVC|56=ADRARBXBOG|52=20150520-13:46:56.767|37=201505202285|11=-4c3c6af3c376baa2|41=3e0f4a3b6e654082|17=11837|150=5|39=0|63=4|48=PFBCOLOM|22=99|167=CS|54=1|38=4000|40=2|44=27820|59=0|151=4000|14=0|60=20150520-13:46:56.000|31=0|32=0|6=0|55=PFBCOLOM|453=1|448=062|447=D|452=1|583=-ee6c25b20e4bb0e|10=207|
20150520-13:46:56.791: 8=FIX.4.4|9=348|35=8|57=062X01|128=LRVORBVC|115=BVC062|34=202|49=AMGTOBVC|56=ADRARBXBOG|52=20150520-13:46:56.767|37=201505202286|11=-3534b340fbf5bce9|41=-f60342b1f47b1aa|17=11838|150=5|39=0|63=4|48=PFBCOLOM|22=99|167=CS|54=2|38=4000|40=2|44=28020|59=0|151=4000|14=0|60=20150520-13:46:56.000|31=0|32=0|6=0|55=PFBCOLOM|453=1|448=062|447=D|452=1|583=-ee6c25b20e4bb0e|10=195|
20150520-13:46:58.439: 8=FIX.4.4|9=254|35=G|34=203|49=ADRARBXBOG|52=20150520-13:46:58.439|56=AMGTOBVC|1=881|11=-675adcc9e892bc82|21=1|38=12000|40=2|41=-4a5f6d126a2bb853|44=3435|54=1|55=PFAVH|59=0|60=20150520-13:46:58.439|63=3|100=XBOG|207=XBOG|583=204b73513cd54a16|453=1|448=LVARB|447=D|452=1|10=000|
20150520-13:46:58.548: 8=FIX.4.4|9=344|35=8|57=062X01|128=LRVORBVC|115=BVC062|34=203|49=AMGTOBVC|56=ADRARBXBOG|52=20150520-13:46:58.530|37=201505202204|11=-675adcc9e892bc82|41=-4a5f6d126a2bb853|17=11849|150=5|39=0|63=4|48=PFAVH|22=99|167=CS|54=1|38=12000|40=2|44=3435|59=0|151=12000|14=0|60=20150520-13:46:58.000|31=0|32=0|6=0|55=PFAVH|453=1|448=062|447=D|452=1|583=204b73513cd54a16|10=183|
20150520-13:46:59.510: 8=FIX.4.4|9=252|35=G|34=204|49=ADRARBXBOG|52=20150520-13:46:59.510|56=AMGTOBVC|1=881|11=57804c5fe19c4c4c|21=1|38=12000|40=2|41=6287fa49d90b4515|44=3505|54=2|55=PFAVH|59=0|60=20150520-13:46:59.510|63=3|100=XBOG|207=XBOG|583=204b73513cd54a16|453=1|448=LVARB|447=D|452=1|10=010|
20150520-13:46:59.616: 8=FIX.4.4|9=342|35=8|57=062X01|128=LRVORBVC|115=BVC062|34=204|49=AMGTOBVC|56=ADRARBXBOG|52=20150520-13:46:59.606|37=201505202207|11=57804c5fe19c4c4c|41=6287fa49d90b4515|17=11861|150=5|39=0|63=4|48=PFAVH|22=99|167=CS|54=2|38=12000|40=2|44=3505|59=0|151=12000|14=0|60=20150520-13:46:59.000|31=0|32=0|6=0|55=PFAVH|453=1|448=062|447=D|452=1|583=204b73513cd54a16|10=214|
20150520-13:47:00.573: 8=FIX.4.4|9=254|35=G|34=205|49=ADRARBXBOG|52=20150520-13:47:00.573|56=AMGTOBVC|1=881|11=-7617d11052a7b70a|21=1|38=12000|40=2|41=-675adcc9e892bc82|44=3440|54=1|55=PFAVH|59=0|60=20150520-13:47:00.573|63=3|100=XBOG|207=XBOG|583=204b73513cd54a16|453=1|448=LVARB|447=D|452=1|10=126|
20150520-13:47:00.683: 8=FIX.4.4|9=344|35=8|57=062X01|128=LRVORBVC|115=BVC062|34=205|49=AMGTOBVC|56=ADRARBXBOG|52=20150520-13:47:00.667|37=201505202204|11=-7617d11052a7b70a|41=-675adcc9e892bc82|17=11870|150=5|39=0|63=4|48=PFAVH|22=99|167=CS|54=1|38=12000|40=2|44=3440|59=0|151=12000|14=0|60=20150520-13:47:00.000|31=0|32=0|6=0|55=PFAVH|453=1|448=062|447=D|452=1|583=204b73513cd54a16|10=060|
20150520-13:47:00.715: 8=FIX.4.4|9=256|35=G|34=206|49=ADRARBXBOG|52=20150520-13:47:00.714|56=AMGTOBVC|1=881|11=6d84127b0ccf4d89|21=1|38=4000|40=2|41=-4c3c6af3c376baa2|44=27800|54=1|55=PFBCOLOM|59=0|60=20150520-13:47:00.714|63=3|100=XBOG|207=XBOG|583=-ee6c25b20e4bb0e|453=1|448=LVARB|447=D|452=1|10=120|
20150520-13:47:00.822: 8=FIX.4.4|9=348|35=8|57=062X01|128=LRVORBVC|115=BVC062|34=206|49=AMGTOBVC|56=ADRARBXBOG|52=20150520-13:47:00.807|37=201505202285|11=6d84127b0ccf4d89|41=-4c3c6af3c376baa2|17=11872|150=5|39=0|63=4|48=PFBCOLOM|22=99|167=CS|54=1|38=4000|40=2|44=27800|59=0|151=4000|14=0|60=20150520-13:47:00.000|31=0|32=0|6=0|55=PFBCOLOM|453=1|448=062|447=D|452=1|583=-ee6c25b20e4bb0e|10=243|
20150520-13:47:20.879: 8=FIX.4.4|9=256|35=G|34=207|49=ADRARBXBOG|52=20150520-13:47:20.879|56=AMGTOBVC|1=881|11=-18a14edc6d19b76a|21=1|38=4000|40=2|41=6d84127b0ccf4d89|44=27820|54=1|55=PFBCOLOM|59=0|60=20150520-13:47:20.879|63=3|100=XBOG|207=XBOG|583=-ee6c25b20e4bb0e|453=1|448=LVARB|447=D|452=1|10=112|
20150520-13:47:20.880: 8=FIX.4.4|9=257|35=G|34=208|49=ADRARBXBOG|52=20150520-13:47:20.879|56=AMGTOBVC|1=881|11=-143973e3ccaabf92|21=1|38=4000|40=2|41=-3534b340fbf5bce9|44=28040|54=2|55=PFBCOLOM|59=0|60=20150520-13:47:20.879|63=3|100=XBOG|207=XBOG|583=-ee6c25b20e4bb0e|453=1|448=LVARB|447=D|452=1|10=193|
20150520-13:47:20.988: 8=FIX.4.4|9=348|35=8|57=062X01|128=LRVORBVC|115=BVC062|34=207|49=AMGTOBVC|56=ADRARBXBOG|52=20150520-13:47:20.978|37=201505202285|11=-18a14edc6d19b76a|41=6d84127b0ccf4d89|17=11963|150=5|39=0|63=4|48=PFBCOLOM|22=99|167=CS|54=1|38=4000|40=2|44=27820|59=0|151=4000|14=0|60=20150520-13:47:20.000|31=0|32=0|6=0|55=PFBCOLOM|453=1|448=062|447=D|452=1|583=-ee6c25b20e4bb0e|10=221|
20150520-13:47:20.992: 8=FIX.4.4|9=349|35=8|57=062X01|128=LRVORBVC|115=BVC062|34=208|49=AMGTOBVC|56=ADRARBXBOG|52=20150520-13:47:20.978|37=201505202286|11=-143973e3ccaabf92|41=-3534b340fbf5bce9|17=11964|150=5|39=0|63=4|48=PFBCOLOM|22=99|167=CS|54=2|38=4000|40=2|44=28040|59=0|151=4000|14=0|60=20150520-13:47:20.000|31=0|32=0|6=0|55=PFBCOLOM|453=1|448=062|447=D|452=1|583=-ee6c25b20e4bb0e|10=048|
20150520-13:47:22.194: 8=FIX.4.4|9=253|35=G|34=209|49=ADRARBXBOG|52=20150520-13:47:22.194|56=AMGTOBVC|1=881|11=308cd6d78c9c4c65|21=1|38=12000|40=2|41=-7617d11052a7b70a|44=3445|54=1|55=PFAVH|59=0|60=20150520-13:47:22.194|63=3|100=XBOG|207=XBOG|583=204b73513cd54a16|453=1|448=LVARB|447=D|452=1|10=046|
20150520-13:47:22.304: 8=FIX.4.4|9=343|35=8|57=062X01|128=LRVORBVC|115=BVC062|34=209|49=AMGTOBVC|56=ADRARBXBOG|52=20150520-13:47:22.288|37=201505202204|11=308cd6d78c9c4c65|41=-7617d11052a7b70a|17=11971|150=5|39=0|63=4|48=PFAVH|22=99|167=CS|54=1|38=12000|40=2|44=3445|59=0|151=12000|14=0|60=20150520-13:47:22.000|31=0|32=0|6=0|55=PFAVH|453=1|448=062|447=D|452=1|583=204b73513cd54a16|10=239|
20150520-13:47:25.807: 8=FIX.4.4|9=256|35=G|34=210|49=ADRARBXBOG|52=20150520-13:47:25.807|56=AMGTOBVC|1=881|11=-300f7710a70b3f7|21=1|38=40000|40=2|41=651a6db16d58480c|44=1865|54=1|55=ECOPETROL|59=0|60=20150520-13:47:25.807|63=3|100=XBOG|207=XBOG|583=236291ae63c543f2|453=1|448=LVARB|447=D|452=1|10=010|
20150520-13:47:25.914: 8=FIX.4.4|9=350|35=8|57=062X01|128=LRVORBVC|115=BVC062|34=210|49=AMGTOBVC|56=ADRARBXBOG|52=20150520-13:47:25.892|37=201505202316|11=-300f7710a70b3f7|41=651a6db16d58480c|17=11989|150=5|39=0|63=4|48=ECOPETROL|22=99|167=CS|54=1|38=40000|40=2|44=1865|59=0|151=40000|14=0|60=20150520-13:47:25.000|31=0|32=0|6=0|55=ECOPETROL|453=1|448=062|447=D|452=1|583=236291ae63c543f2|10=011|
20150520-13:47:27.262: 8=FIX.4.4|9=251|35=G|34=211|49=ADRARBXBOG|52=20150520-13:47:27.262|56=AMGTOBVC|1=881|11=3a493865b2b4e16|21=1|38=12000|40=2|41=57804c5fe19c4c4c|44=3510|54=2|55=PFAVH|59=0|60=20150520-13:47:27.262|63=3|100=XBOG|207=XBOG|583=204b73513cd54a16|453=1|448=LVARB|447=D|452=1|10=199|
20150520-13:47:27.374: 8=FIX.4.4|9=341|35=8|57=062X01|128=LRVORBVC|115=BVC062|34=211|49=AMGTOBVC|56=ADRARBXBOG|52=20150520-13:47:27.358|37=201505202207|11=3a493865b2b4e16|41=57804c5fe19c4c4c|17=11990|150=5|39=0|63=4|48=PFAVH|22=99|167=CS|54=2|38=12000|40=2|44=3510|59=0|151=12000|14=0|60=20150520-13:47:27.000|31=0|32=0|6=0|55=PFAVH|453=1|448=062|447=D|452=1|583=204b73513cd54a16|10=146|
20150520-13:47:35.405: 8=FIX.4.4|9=253|35=G|34=212|49=ADRARBXBOG|52=20150520-13:47:35.405|56=AMGTOBVC|1=881|11=-4f2e5f32f1a7b1f1|21=1|38=12000|40=2|41=308cd6d78c9c4c65|44=3460|54=1|55=PFAVH|59=0|60=20150520-13:47:35.405|63=3|100=XBOG|207=XBOG|583=204b73513cd54a16|453=1|448=LVARB|447=D|452=1|10=185|
20150520-13:47:35.406: 8=FIX.4.4|9=251|35=G|34=213|49=ADRARBXBOG|52=20150520-13:47:35.406|56=AMGTOBVC|1=881|11=3937fe96d2bb4479|21=1|38=12000|40=2|41=3a493865b2b4e16|44=3515|54=2|55=PFAVH|59=0|60=20150520-13:47:35.406|63=3|100=XBOG|207=XBOG|583=204b73513cd54a16|453=1|448=LVARB|447=D|452=1|10=168|
20150520-13:47:35.519: 8=FIX.4.4|9=343|35=8|57=062X01|128=LRVORBVC|115=BVC062|34=212|49=AMGTOBVC|56=ADRARBXBOG|52=20150520-13:47:35.501|37=201505202204|11=-4f2e5f32f1a7b1f1|41=308cd6d78c9c4c65|17=12037|150=5|39=0|63=4|48=PFAVH|22=99|167=CS|54=1|38=12000|40=2|44=3460|59=0|151=12000|14=0|60=20150520-13:47:35.000|31=0|32=0|6=0|55=PFAVH|453=1|448=062|447=D|452=1|583=204b73513cd54a16|10=114|
20150520-13:47:35.525: 8=FIX.4.4|9=341|35=8|57=062X01|128=LRVORBVC|115=BVC062|34=213|49=AMGTOBVC|56=ADRARBXBOG|52=20150520-13:47:35.501|37=201505202207|11=3937fe96d2bb4479|41=3a493865b2b4e16|17=12038|150=5|39=0|63=4|48=PFAVH|22=99|167=CS|54=2|38=12000|40=2|44=3515|59=0|151=12000|14=0|60=20150520-13:47:35.000|31=0|32=0|6=0|55=PFAVH|453=1|448=062|447=D|452=1|583=204b73513cd54a16|10=099|
20150520-13:47:36.788: 8=FIX.4.4|9=257|35=G|34=214|49=ADRARBXBOG|52=20150520-13:47:36.788|56=AMGTOBVC|1=881|11=-6cbf4220d861bf4d|21=1|38=4000|40=2|41=-143973e3ccaabf92|44=28080|54=2|55=PFBCOLOM|59=0|60=20150520-13:47:36.788|63=3|100=XBOG|207=XBOG|583=-ee6c25b20e4bb0e|453=1|448=LVARB|447=D|452=1|10=204|
20150520-13:47:36.916: 8=FIX.4.4|9=349|35=8|57=062X01|128=LRVORBVC|115=BVC062|34=214|49=AMGTOBVC|56=ADRARBXBOG|52=20150520-13:47:36.905|37=201505202286|11=-6cbf4220d861bf4d|41=-143973e3ccaabf92|17=12046|150=5|39=0|63=4|48=PFBCOLOM|22=99|167=CS|54=2|38=4000|40=2|44=28080|59=0|151=4000|14=0|60=20150520-13:47:36.000|31=0|32=0|6=0|55=PFBCOLOM|453=1|448=062|447=D|452=1|583=-ee6c25b20e4bb0e|10=043|
20150520-13:47:38.966: 8=FIX.4.4|9=252|35=G|34=215|49=ADRARBXBOG|52=20150520-13:47:38.966|56=AMGTOBVC|1=881|11=5c94f75446694919|21=1|38=12000|40=2|41=3937fe96d2bb4479|44=3520|54=2|55=PFAVH|59=0|60=20150520-13:47:38.966|63=3|100=XBOG|207=XBOG|583=204b73513cd54a16|453=1|448=LVARB|447=D|452=1|10=177|
20150520-13:47:39.075: 8=FIX.4.4|9=342|35=8|57=062X01|128=LRVORBVC|115=BVC062|34=215|49=AMGTOBVC|56=ADRARBXBOG|52=20150520-13:47:39.058|37=201505202207|11=5c94f75446694919|41=3937fe96d2bb4479|17=12057|150=5|39=0|63=4|48=PFAVH|22=99|167=CS|54=2|38=12000|40=2|44=3520|59=0|151=12000|14=0|60=20150520-13:47:39.000|31=0|32=0|6=0|55=PFAVH|453=1|448=062|447=D|452=1|583=204b73513cd54a16|10=096|
20150520-13:47:41.819: 8=FIX.4.4|9=352|35=8|57=062X01|128=LRVORBVC|115=BVC062|34=216|49=AMGTOBVC|56=ADRARBXBOG|52=20150520-13:47:41.804|37=201505202319|11=7fa36636749148f1|17=12082S|150=F|39=2|63=4|64=20150525|48=ECOPETROL|22=99|167=CS|54=2|38=40000|40=2|44=1880|59=0|32=40000|31=1880|151=0|14=40000|6=1880|75=20150520|60=20150520-13:47:41.763|381=75200000|55=ECOPETROL|583=236291ae63c543f2|10=195|
20150520-13:47:45.221: 8=FIX.4.4|9=256|35=G|34=216|49=ADRARBXBOG|52=20150520-13:47:45.221|56=AMGTOBVC|1=881|11=3266d855043b498b|21=1|38=4000|40=2|41=-18a14edc6d19b76a|44=27840|54=1|55=PFBCOLOM|59=0|60=20150520-13:47:45.221|63=3|100=XBOG|207=XBOG|583=-ee6c25b20e4bb0e|453=1|448=LVARB|447=D|452=1|10=202|
20150520-13:47:45.331: 8=FIX.4.4|9=348|35=8|57=062X01|128=LRVORBVC|115=BVC062|34=217|49=AMGTOBVC|56=ADRARBXBOG|52=20150520-13:47:45.314|37=201505202285|11=3266d855043b498b|41=-18a14edc6d19b76a|17=12125|150=5|39=0|63=4|48=PFBCOLOM|22=99|167=CS|54=1|38=4000|40=2|44=27840|59=0|151=4000|14=0|60=20150520-13:47:45.000|31=0|32=0|6=0|55=PFBCOLOM|453=1|448=062|447=D|452=1|583=-ee6c25b20e4bb0e|10=069|
20150520-13:47:48.236: 8=FIX.4.4|9=255|35=G|34=217|49=ADRARBXBOG|52=20150520-13:47:48.235|56=AMGTOBVC|1=881|11=6db059cddae74ded|21=1|38=4000|40=2|41=3266d855043b498b|44=27860|54=1|55=PFBCOLOM|59=0|60=20150520-13:47:48.235|63=3|100=XBOG|207=XBOG|583=-ee6c25b20e4bb0e|453=1|448=LVARB|447=D|452=1|10=067|
20150520-13:47:48.354: 8=FIX.4.4|9=347|35=8|57=062X01|128=LRVORBVC|115=BVC062|34=218|49=AMGTOBVC|56=ADRARBXBOG|52=20150520-13:47:48.324|37=201505202285|11=6db059cddae74ded|41=3266d855043b498b|17=12139|150=5|39=0|63=4|48=PFBCOLOM|22=99|167=CS|54=1|38=4000|40=2|44=27860|59=0|151=4000|14=0|60=20150520-13:47:48.000|31=0|32=0|6=0|55=PFBCOLOM|453=1|448=062|447=D|452=1|583=-ee6c25b20e4bb0e|10=186|
20150520-13:47:54.765: 8=FIX.4.4|9=255|35=G|34=218|49=ADRARBXBOG|52=20150520-13:47:54.765|56=AMGTOBVC|1=881|11=67b80a203fea405b|21=1|38=4000|40=2|41=6db059cddae74ded|44=27840|54=1|55=PFBCOLOM|59=0|60=20150520-13:47:54.765|63=3|100=XBOG|207=XBOG|583=-ee6c25b20e4bb0e|453=1|448=LVARB|447=D|452=1|10=201|
20150520-13:47:54.873: 8=FIX.4.4|9=347|35=8|57=062X01|128=LRVORBVC|115=BVC062|34=219|49=AMGTOBVC|56=ADRARBXBOG|52=20150520-13:47:54.861|37=201505202285|11=67b80a203fea405b|41=6db059cddae74ded|17=12175|150=5|39=0|63=4|48=PFBCOLOM|22=99|167=CS|54=1|38=4000|40=2|44=27840|59=0|151=4000|14=0|60=20150520-13:47:54.000|31=0|32=0|6=0|55=PFBCOLOM|453=1|448=062|447=D|452=1|583=-ee6c25b20e4bb0e|10=054|
20150520-13:47:56.672: 8=FIX.4.4|9=257|35=G|34=219|49=ADRARBXBOG|52=20150520-13:47:56.671|56=AMGTOBVC|1=881|11=-5b0150bd59cbbe6e|21=1|38=40000|40=2|41=-300f7710a70b3f7|44=1875|54=1|55=ECOPETROL|59=0|60=20150520-13:47:56.671|63=3|100=XBOG|207=XBOG|583=236291ae63c543f2|453=1|448=LVARB|447=D|452=1|10=208|
20150520-13:47:56.786: 8=FIX.4.4|9=351|35=8|57=062X01|128=LRVORBVC|115=BVC062|34=220|49=AMGTOBVC|56=ADRARBXBOG|52=20150520-13:47:56.764|37=201505202316|11=-5b0150bd59cbbe6e|41=-300f7710a70b3f7|17=12187|150=5|39=0|63=4|48=ECOPETROL|22=99|167=CS|54=1|38=40000|40=2|44=1875|59=0|151=40000|14=0|60=20150520-13:47:56.000|31=0|32=0|6=0|55=ECOPETROL|453=1|448=062|447=D|452=1|583=236291ae63c543f2|10=192|
20150520-13:48:01.927: 8=FIX.4.4|9=255|35=G|34=220|49=ADRARBXBOG|52=20150520-13:48:01.927|56=AMGTOBVC|1=881|11=5036e94d9ccc422c|21=1|38=4000|40=2|41=67b80a203fea405b|44=27860|54=1|55=PFBCOLOM|59=0|60=20150520-13:48:01.927|63=3|100=XBOG|207=XBOG|583=-ee6c25b20e4bb0e|453=1|448=LVARB|447=D|452=1|10=244|
20150520-13:48:02.034: 8=FIX.4.4|9=347|35=8|57=062X01|128=LRVORBVC|115=BVC062|34=221|49=AMGTOBVC|56=ADRARBXBOG|52=20150520-13:48:02.021|37=201505202285|11=5036e94d9ccc422c|41=67b80a203fea405b|17=12236|150=5|39=0|63=4|48=PFBCOLOM|22=99|167=CS|54=1|38=4000|40=2|44=27860|59=0|151=4000|14=0|60=20150520-13:48:01.000|31=0|32=0|6=0|55=PFBCOLOM|453=1|448=062|447=D|452=1|583=-ee6c25b20e4bb0e|10=084|
20150520-13:48:02.103: 8=FIX.4.4|9=255|35=G|34=221|49=ADRARBXBOG|52=20150520-13:48:02.103|56=AMGTOBVC|1=881|11=41a1628c1449414d|21=1|38=4000|40=2|41=5036e94d9ccc422c|44=27880|54=1|55=PFBCOLOM|59=0|60=20150520-13:48:02.102|63=3|100=XBOG|207=XBOG|583=-ee6c25b20e4bb0e|453=1|448=LVARB|447=D|452=1|10=081|
20150520-13:48:02.213: 8=FIX.4.4|9=347|35=8|57=062X01|128=LRVORBVC|115=BVC062|34=222|49=AMGTOBVC|56=ADRARBXBOG|52=20150520-13:48:02.193|37=201505202285|11=41a1628c1449414d|41=5036e94d9ccc422c|17=12238|150=5|39=0|63=4|48=PFBCOLOM|22=99|167=CS|54=1|38=4000|40=2|44=27880|59=0|151=4000|14=0|60=20150520-13:48:02.000|31=0|32=0|6=0|55=PFBCOLOM|453=1|448=062|447=D|452=1|583=-ee6c25b20e4bb0e|10=217|
20150520-13:48:04.512: 8=FIX.4.4|9=256|35=G|34=222|49=ADRARBXBOG|52=20150520-13:48:04.512|56=AMGTOBVC|1=881|11=-427f4f43fbafb127|21=1|38=4000|40=2|41=41a1628c1449414d|44=27860|54=1|55=PFBCOLOM|59=0|60=20150520-13:48:04.512|63=3|100=XBOG|207=XBOG|583=-ee6c25b20e4bb0e|453=1|448=LVARB|447=D|452=1|10=185|
20150520-13:48:04.672: 8=FIX.4.4|9=348|35=8|57=062X01|128=LRVORBVC|115=BVC062|34=223|49=AMGTOBVC|56=ADRARBXBOG|52=20150520-13:48:04.657|37=201505202285|11=-427f4f43fbafb127|41=41a1628c1449414d|17=12260|150=5|39=0|63=4|48=PFBCOLOM|22=99|167=CS|54=1|38=4000|40=2|44=27860|59=0|151=4000|14=0|60=20150520-13:48:04.000|31=0|32=0|6=0|55=PFBCOLOM|453=1|448=062|447=D|452=1|583=-ee6c25b20e4bb0e|10=056|
20150520-13:48:05.748: 8=FIX.4.4|9=256|35=G|34=223|49=ADRARBXBOG|52=20150520-13:48:05.747|56=AMGTOBVC|1=881|11=154314bbc858445f|21=1|38=4000|40=2|41=-427f4f43fbafb127|44=27820|54=1|55=PFBCOLOM|59=0|60=20150520-13:48:05.747|63=3|100=XBOG|207=XBOG|583=-ee6c25b20e4bb0e|453=1|448=LVARB|447=D|452=1|10=004|
20150520-13:48:05.855: 8=FIX.4.4|9=348|35=8|57=062X01|128=LRVORBVC|115=BVC062|34=224|49=AMGTOBVC|56=ADRARBXBOG|52=20150520-13:48:05.843|37=201505202285|11=154314bbc858445f|41=-427f4f43fbafb127|17=12275|150=5|39=0|63=4|48=PFBCOLOM|22=99|167=CS|54=1|38=4000|40=2|44=27820|59=0|151=4000|14=0|60=20150520-13:48:05.000|31=0|32=0|6=0|55=PFBCOLOM|453=1|448=062|447=D|452=1|583=-ee6c25b20e4bb0e|10=114|
20150520-13:48:09.144: 8=FIX.4.4|9=253|35=G|34=224|49=ADRARBXBOG|52=20150520-13:48:09.144|56=AMGTOBVC|1=881|11=4cfdad2beb8b451c|21=1|38=12000|40=2|41=-4f2e5f32f1a7b1f1|44=3465|54=1|55=PFAVH|59=0|60=20150520-13:48:09.144|63=3|100=XBOG|207=XBOG|583=204b73513cd54a16|453=1|448=LVARB|447=D|452=1|10=113|
20150520-13:48:09.251: 8=FIX.4.4|9=343|35=8|57=062X01|128=LRVORBVC|115=BVC062|34=225|49=AMGTOBVC|56=ADRARBXBOG|52=20150520-13:48:09.228|37=201505202204|11=4cfdad2beb8b451c|41=-4f2e5f32f1a7b1f1|17=12299|150=5|39=0|63=4|48=PFAVH|22=99|167=CS|54=1|38=12000|40=2|44=3465|59=0|151=12000|14=0|60=20150520-13:48:09.000|31=0|32=0|6=0|55=PFAVH|453=1|448=062|447=D|452=1|583=204b73513cd54a16|10=059|
20150520-13:48:10.655: 8=FIX.4.4|9=257|35=G|34=225|49=ADRARBXBOG|52=20150520-13:48:10.655|56=AMGTOBVC|1=881|11=-5e2ace4c8632b9a4|21=1|38=4000|40=2|41=-6cbf4220d861bf4d|44=28100|54=2|55=PFBCOLOM|59=0|60=20150520-13:48:10.655|63=3|100=XBOG|207=XBOG|583=-ee6c25b20e4bb0e|453=1|448=LVARB|447=D|452=1|10=172|
20150520-13:48:10.656: 8=FIX.4.4|9=255|35=G|34=226|49=ADRARBXBOG|52=20150520-13:48:10.656|56=AMGTOBVC|1=881|11=3b5a9ac1e9ed4999|21=1|38=4000|40=2|41=154314bbc858445f|44=27840|54=1|55=PFBCOLOM|59=0|60=20150520-13:48:10.655|63=3|100=XBOG|207=XBOG|583=-ee6c25b20e4bb0e|453=1|448=LVARB|447=D|452=1|10=224|
20150520-13:48:10.786: 8=FIX.4.4|9=349|35=8|57=062X01|128=LRVORBVC|115=BVC062|34=226|49=AMGTOBVC|56=ADRARBXBOG|52=20150520-13:48:10.757|37=201505202286|11=-5e2ace4c8632b9a4|41=-6cbf4220d861bf4d|17=12316|150=5|39=0|63=4|48=PFBCOLOM|22=99|167=CS|54=2|38=4000|40=2|44=28100|59=0|151=4000|14=0|60=20150520-13:48:10.000|31=0|32=0|6=0|55=PFBCOLOM|453=1|448=062|447=D|452=1|583=-ee6c25b20e4bb0e|10=031|
20150520-13:48:10.786: 8=FIX.4.4|9=347|35=8|57=062X01|128=LRVORBVC|115=BVC062|34=227|49=AMGTOBVC|56=ADRARBXBOG|52=20150520-13:48:10.757|37=201505202285|11=3b5a9ac1e9ed4999|41=154314bbc858445f|17=12317|150=5|39=0|63=4|48=PFBCOLOM|22=99|167=CS|54=1|38=4000|40=2|44=27840|59=0|151=4000|14=0|60=20150520-13:48:10.000|31=0|32=0|6=0|55=PFBCOLOM|453=1|448=062|447=D|452=1|583=-ee6c25b20e4bb0e|10=082|
20150520-13:48:12.127: 8=FIX.4.4|9=257|35=G|34=227|49=ADRARBXBOG|52=20150520-13:48:12.127|56=AMGTOBVC|1=881|11=-669fadb3c90dbfd3|21=1|38=4000|40=2|41=-5e2ace4c8632b9a4|44=28120|54=2|55=PFBCOLOM|59=0|60=20150520-13:48:12.127|63=3|100=XBOG|207=XBOG|583=-ee6c25b20e4bb0e|453=1|448=LVARB|447=D|452=1|10=016|
20150520-13:48:12.238: 8=FIX.4.4|9=349|35=8|57=062X01|128=LRVORBVC|115=BVC062|34=228|49=AMGTOBVC|56=ADRARBXBOG|52=20150520-13:48:12.223|37=201505202286|11=-669fadb3c90dbfd3|41=-5e2ace4c8632b9a4|17=12330|150=5|39=0|63=4|48=PFBCOLOM|22=99|167=CS|54=2|38=4000|40=2|44=28120|59=0|151=4000|14=0|60=20150520-13:48:12.000|31=0|32=0|6=0|55=PFBCOLOM|453=1|448=062|447=D|452=1|583=-ee6c25b20e4bb0e|10=127|
20150520-13:48:13.046: 8=FIX.4.4|9=252|35=G|34=228|49=ADRARBXBOG|52=20150520-13:48:13.045|56=AMGTOBVC|1=881|11=4d9486c14f7941bd|21=1|38=12000|40=2|41=5c94f75446694919|44=3515|54=2|55=PFAVH|59=0|60=20150520-13:48:13.045|63=3|100=XBOG|207=XBOG|583=204b73513cd54a16|453=1|448=LVARB|447=D|452=1|10=143|
20150520-13:48:13.153: 8=FIX.4.4|9=342|35=8|57=062X01|128=LRVORBVC|115=BVC062|34=229|49=AMGTOBVC|56=ADRARBXBOG|52=20150520-13:48:13.144|37=201505202207|11=4d9486c14f7941bd|41=5c94f75446694919|17=12335|150=5|39=0|63=4|48=PFAVH|22=99|167=CS|54=2|38=12000|40=2|44=3515|59=0|151=12000|14=0|60=20150520-13:48:13.000|31=0|32=0|6=0|55=PFAVH|453=1|448=062|447=D|452=1|583=204b73513cd54a16|10=080|
20150520-13:48:14.666: 8=FIX.4.4|9=255|35=G|34=229|49=ADRARBXBOG|52=20150520-13:48:14.666|56=AMGTOBVC|1=881|11=136bce89087f485f|21=1|38=4000|40=2|41=3b5a9ac1e9ed4999|44=27860|54=1|55=PFBCOLOM|59=0|60=20150520-13:48:14.666|63=3|100=XBOG|207=XBOG|583=-ee6c25b20e4bb0e|453=1|448=LVARB|447=D|452=1|10=048|
20150520-13:48:14.813: 8=FIX.4.4|9=347|35=8|57=062X01|128=LRVORBVC|115=BVC062|34=230|49=AMGTOBVC|56=ADRARBXBOG|52=20150520-13:48:14.797|37=201505202285|11=136bce89087f485f|41=3b5a9ac1e9ed4999|17=12348|150=5|39=0|63=4|48=PFBCOLOM|22=99|167=CS|54=1|38=4000|40=2|44=27860|59=0|151=4000|14=0|60=20150520-13:48:14.000|31=0|32=0|6=0|55=PFBCOLOM|453=1|448=062|447=D|452=1|583=-ee6c25b20e4bb0e|10=158|
20150520-13:48:29.336: 8=FIX.4.4|9=255|35=G|34=230|49=ADRARBXBOG|52=20150520-13:48:29.336|56=AMGTOBVC|1=881|11=1e39caec5fef4ca5|21=1|38=4000|40=2|41=136bce89087f485f|44=27900|54=1|55=PFBCOLOM|59=0|60=20150520-13:48:29.336|63=3|100=XBOG|207=XBOG|583=-ee6c25b20e4bb0e|453=1|448=LVARB|447=D|452=1|10=165|
20150520-13:48:29.459: 8=FIX.4.4|9=347|35=8|57=062X01|128=LRVORBVC|115=BVC062|34=231|49=AMGTOBVC|56=ADRARBXBOG|52=20150520-13:48:29.430|37=201505202285|11=1e39caec5fef4ca5|41=136bce89087f485f|17=12459|150=5|39=0|63=4|48=PFBCOLOM|22=99|167=CS|54=1|38=4000|40=2|44=27900|59=0|151=4000|14=0|60=20150520-13:48:29.000|31=0|32=0|6=0|55=PFBCOLOM|453=1|448=062|447=D|452=1|583=-ee6c25b20e4bb0e|10=027|
20150520-13:48:31.171: 8=FIX.4.4|9=253|35=G|34=231|49=ADRARBXBOG|52=20150520-13:48:31.170|56=AMGTOBVC|1=881|11=-5c7680d6e7a9b320|21=1|38=12000|40=2|41=4d9486c14f7941bd|44=3520|54=2|55=PFAVH|59=0|60=20150520-13:48:31.170|63=3|100=XBOG|207=XBOG|583=204b73513cd54a16|453=1|448=LVARB|447=D|452=1|10=042|
20150520-13:48:31.277: 8=FIX.4.4|9=343|35=8|57=062X01|128=LRVORBVC|115=BVC062|34=232|49=AMGTOBVC|56=ADRARBXBOG|52=20150520-13:48:31.255|37=201505202207|11=-5c7680d6e7a9b320|41=4d9486c14f7941bd|17=12474|150=5|39=0|63=4|48=PFAVH|22=99|167=CS|54=2|38=12000|40=2|44=3520|59=0|151=12000|14=0|60=20150520-13:48:31.000|31=0|32=0|6=0|55=PFAVH|453=1|448=062|447=D|452=1|583=204b73513cd54a16|10=244|
20150520-13:48:31.689: 8=FIX.4.4|9=236|35=D|34=232|49=ADRARBXBOG|52=20150520-13:48:31.689|56=AMGTOBVC|1=881|11=7a2288762ed44a8b|21=1|38=40000|40=2|44=1890|54=2|55=ECOPETROL|59=0|60=20150520-13:48:31.689|63=3|100=XBOG|207=XBOG|583=236291ae63c543f2|453=1|448=LVARB|447=D|452=1|10=137|
20150520-13:48:31.719: 8=FIX.4.4|9=252|35=G|34=233|49=ADRARBXBOG|52=20150520-13:48:31.719|56=AMGTOBVC|1=881|11=347331240b1e4ff4|21=1|38=12000|40=2|41=4cfdad2beb8b451c|44=3470|54=1|55=PFAVH|59=0|60=20150520-13:48:31.719|63=3|100=XBOG|207=XBOG|583=204b73513cd54a16|453=1|448=LVARB|447=D|452=1|10=178|
20150520-13:48:31.799: 8=FIX.4.4|9=330|35=8|57=062X01|128=LRVORBVC|115=BVC062|34=233|49=AMGTOBVC|56=ADRARBXBOG|52=20150520-13:48:31.785|37=201505202463|11=7a2288762ed44a8b|17=12479|150=0|39=0|63=4|48=ECOPETROL|22=99|167=CS|54=2|38=40000|40=2|44=1890|59=0|151=40000|14=0|60=20150520-13:48:31.000|31=0|32=0|6=0|55=ECOPETROL|453=1|448=062|447=D|452=1|583=236291ae63c543f2|10=120|
20150520-13:48:31.825: 8=FIX.4.4|9=342|35=8|57=062X01|128=LRVORBVC|115=BVC062|34=234|49=AMGTOBVC|56=ADRARBXBOG|52=20150520-13:48:31.817|37=201505202204|11=347331240b1e4ff4|41=4cfdad2beb8b451c|17=12480|150=5|39=0|63=4|48=PFAVH|22=99|167=CS|54=1|38=12000|40=2|44=3470|59=0|151=12000|14=0|60=20150520-13:48:31.000|31=0|32=0|6=0|55=PFAVH|453=1|448=062|447=D|452=1|583=204b73513cd54a16|10=104|
20150520-13:48:37.944: 8=FIX.4.4|9=256|35=G|34=234|49=ADRARBXBOG|52=20150520-13:48:37.944|56=AMGTOBVC|1=881|11=49325fb1d7994896|21=1|38=40000|40=2|41=7a2288762ed44a8b|44=1895|54=2|55=ECOPETROL|59=0|60=20150520-13:48:37.943|63=3|100=XBOG|207=XBOG|583=236291ae63c543f2|453=1|448=LVARB|447=D|452=1|10=031|
20150520-13:48:38.050: 8=FIX.4.4|9=350|35=8|57=062X01|128=LRVORBVC|115=BVC062|34=235|49=AMGTOBVC|56=ADRARBXBOG|52=20150520-13:48:38.041|37=201505202463|11=49325fb1d7994896|41=7a2288762ed44a8b|17=12534|150=5|39=0|63=4|48=ECOPETROL|22=99|167=CS|54=2|38=40000|40=2|44=1895|59=0|151=40000|14=0|60=20150520-13:48:37.000|31=0|32=0|6=0|55=ECOPETROL|453=1|448=062|447=D|452=1|583=236291ae63c543f2|10=007|
20150520-13:48:38.432: 8=FIX.4.4|9=257|35=G|34=235|49=ADRARBXBOG|52=20150520-13:48:38.432|56=AMGTOBVC|1=881|11=-43cd7286ea60b3a5|21=1|38=4000|40=2|41=-669fadb3c90dbfd3|44=28140|54=2|55=PFBCOLOM|59=0|60=20150520-13:48:38.432|63=3|100=XBOG|207=XBOG|583=-ee6c25b20e4bb0e|453=1|448=LVARB|447=D|452=1|10=236|
20150520-13:48:38.540: 8=FIX.4.4|9=349|35=8|57=062X01|128=LRVORBVC|115=BVC062|34=236|49=AMGTOBVC|56=ADRARBXBOG|52=20150520-13:48:38.524|37=201505202286|11=-43cd7286ea60b3a5|41=-669fadb3c90dbfd3|17=12542|150=5|39=0|63=4|48=PFBCOLOM|22=99|167=CS|54=2|38=4000|40=2|44=28140|59=0|151=4000|14=0|60=20150520-13:48:38.000|31=0|32=0|6=0|55=PFBCOLOM|453=1|448=062|447=D|452=1|583=-ee6c25b20e4bb0e|10=102|
20150520-13:48:44.012: 8=FIX.4.4|9=255|35=G|34=236|49=ADRARBXBOG|52=20150520-13:48:44.012|56=AMGTOBVC|1=881|11=746f05cf9d2b4e4e|21=1|38=4000|40=2|41=1e39caec5fef4ca5|44=27920|54=1|55=PFBCOLOM|59=0|60=20150520-13:48:44.012|63=3|100=XBOG|207=XBOG|583=-ee6c25b20e4bb0e|453=1|448=LVARB|447=D|452=1|10=236|
20150520-13:48:44.128: 8=FIX.4.4|9=347|35=8|57=062X01|128=LRVORBVC|115=BVC062|34=237|49=AMGTOBVC|56=ADRARBXBOG|52=20150520-13:48:44.109|37=201505202285|11=746f05cf9d2b4e4e|41=1e39caec5fef4ca5|17=12584|150=5|39=0|63=4|48=PFBCOLOM|22=99|167=CS|54=1|38=4000|40=2|44=27920|59=0|151=4000|14=0|60=20150520-13:48:44.000|31=0|32=0|6=0|55=PFBCOLOM|453=1|448=062|447=D|452=1|583=-ee6c25b20e4bb0e|10=118|
20150520-13:48:54.262: 8=FIX.4.4|9=254|35=G|34=237|49=ADRARBXBOG|52=20150520-13:48:54.261|56=AMGTOBVC|1=881|11=-530c0068b451b01d|21=1|38=12000|40=2|41=-5c7680d6e7a9b320|44=3525|54=2|55=PFAVH|59=0|60=20150520-13:48:54.261|63=3|100=XBOG|207=XBOG|583=204b73513cd54a16|453=1|448=LVARB|447=D|452=1|10=031|
20150520-13:48:54.263: 8=FIX.4.4|9=253|35=G|34=238|49=ADRARBXBOG|52=20150520-13:48:54.263|56=AMGTOBVC|1=881|11=-795add78a9c6b76d|21=1|38=12000|40=2|41=347331240b1e4ff4|44=3475|54=1|55=PFAVH|59=0|60=20150520-13:48:54.262|63=3|100=XBOG|207=XBOG|583=204b73513cd54a16|453=1|448=LVARB|447=D|452=1|10=114|
20150520-13:48:54.379: 8=FIX.4.4|9=344|35=8|57=062X01|128=LRVORBVC|115=BVC062|34=238|49=AMGTOBVC|56=ADRARBXBOG|52=20150520-13:48:54.358|37=201505202207|11=-530c0068b451b01d|41=-5c7680d6e7a9b320|17=12620|150=5|39=0|63=4|48=PFAVH|22=99|167=CS|54=2|38=12000|40=2|44=3525|59=0|151=12000|14=0|60=20150520-13:48:54.000|31=0|32=0|6=0|55=PFAVH|453=1|448=062|447=D|452=1|583=204b73513cd54a16|10=228|
20150520-13:48:54.382: 8=FIX.4.4|9=343|35=8|57=062X01|128=LRVORBVC|115=BVC062|34=239|49=AMGTOBVC|56=ADRARBXBOG|52=20150520-13:48:54.358|37=201505202204|11=-795add78a9c6b76d|41=347331240b1e4ff4|17=12621|150=5|39=0|63=4|48=PFAVH|22=99|167=CS|54=1|38=12000|40=2|44=3475|59=0|151=12000|14=0|60=20150520-13:48:54.000|31=0|32=0|6=0|55=PFAVH|453=1|448=062|447=D|452=1|583=204b73513cd54a16|10=050|
20150520-13:48:54.410: 8=FIX.4.4|9=254|35=G|34=239|49=ADRARBXBOG|52=20150520-13:48:54.410|56=AMGTOBVC|1=881|11=-4a75b2f85048b15e|21=1|38=12000|40=2|41=-530c0068b451b01d|44=3540|54=2|55=PFAVH|59=0|60=20150520-13:48:54.410|63=3|100=XBOG|207=XBOG|583=204b73513cd54a16|453=1|448=LVARB|447=D|452=1|10=019|
20150520-13:48:54.523: 8=FIX.4.4|9=344|35=8|57=062X01|128=LRVORBVC|115=BVC062|34=240|49=AMGTOBVC|56=ADRARBXBOG|52=20150520-13:48:54.499|37=201505202207|11=-4a75b2f85048b15e|41=-530c0068b451b01d|17=12623|150=5|39=0|63=4|48=PFAVH|22=99|167=CS|54=2|38=12000|40=2|44=3540|59=0|151=12000|14=0|60=20150520-13:48:54.000|31=0|32=0|6=0|55=PFAVH|453=1|448=062|447=D|452=1|583=204b73513cd54a16|10=224|
20150520-13:48:54.524: 8=FIX.4.4|9=253|35=G|34=240|49=ADRARBXBOG|52=20150520-13:48:54.524|56=AMGTOBVC|1=881|11=24cf44889132455a|21=1|38=12000|40=2|41=-4a75b2f85048b15e|44=3535|54=2|55=PFAVH|59=0|60=20150520-13:48:54.524|63=3|100=XBOG|207=XBOG|583=204b73513cd54a16|453=1|448=LVARB|447=D|452=1|10=214|
20150520-13:48:54.652: 8=FIX.4.4|9=343|35=8|57=062X01|128=LRVORBVC|115=BVC062|34=241|49=AMGTOBVC|56=ADRARBXBOG|52=20150520-13:48:54.623|37=201505202207|11=24cf44889132455a|41=-4a75b2f85048b15e|17=12625|150=5|39=0|63=4|48=PFAVH|22=99|167=CS|54=2|38=12000|40=2|44=3535|59=0|151=12000|14=0|60=20150520-13:48:54.000|31=0|32=0|6=0|55=PFAVH|453=1|448=062|447=D|452=1|583=204b73513cd54a16|10=151|
20150520-13:48:56.947: 8=FIX.4.4|9=254|35=G|34=241|49=ADRARBXBOG|52=20150520-13:48:56.947|56=AMGTOBVC|1=881|11=-2364548c25fdb2ff|21=1|38=12000|40=2|41=-795add78a9c6b76d|44=3480|54=1|55=PFAVH|59=0|60=20150520-13:48:56.947|63=3|100=XBOG|207=XBOG|583=204b73513cd54a16|453=1|448=LVARB|447=D|452=1|10=026|
20150520-13:48:57.075: 8=FIX.4.4|9=344|35=8|57=062X01|128=LRVORBVC|115=BVC062|34=242|49=AMGTOBVC|56=ADRARBXBOG|52=20150520-13:48:57.057|37=201505202204|11=-2364548c25fdb2ff|41=-795add78a9c6b76d|17=12654|150=5|39=0|63=4|48=PFAVH|22=99|167=CS|54=1|38=12000|40=2|44=3480|59=0|151=12000|14=0|60=20150520-13:48:57.000|31=0|32=0|6=0|55=PFAVH|453=1|448=062|447=D|452=1|583=204b73513cd54a16|10=203|
20150520-13:48:58.714: 8=FIX.4.4|9=253|35=G|34=242|49=ADRARBXBOG|52=20150520-13:48:58.714|56=AMGTOBVC|1=881|11=3a74cac3c72c4bee|21=1|38=12000|40=2|41=-2364548c25fdb2ff|44=3475|54=1|55=PFAVH|59=0|60=20150520-13:48:58.714|63=3|100=XBOG|207=XBOG|583=204b73513cd54a16|453=1|448=LVARB|447=D|452=1|10=042|
20150520-13:48:58.822: 8=FIX.4.4|9=343|35=8|57=062X01|128=LRVORBVC|115=BVC062|34=243|49=AMGTOBVC|56=ADRARBXBOG|52=20150520-13:48:58.804|37=201505202204|11=3a74cac3c72c4bee|41=-2364548c25fdb2ff|17=12675|150=5|39=0|63=4|48=PFAVH|22=99|167=CS|54=1|38=12000|40=2|44=3475|59=0|151=12000|14=0|60=20150520-13:48:58.000|31=0|32=0|6=0|55=PFAVH|453=1|448=062|447=D|452=1|583=204b73513cd54a16|10=236|
20150520-13:49:01.663: 8=FIX.4.4|9=255|35=G|34=243|49=ADRARBXBOG|52=20150520-13:49:01.663|56=AMGTOBVC|1=881|11=10680ed68e2f4a3b|21=1|38=4000|40=2|41=746f05cf9d2b4e4e|44=27900|54=1|55=PFBCOLOM|59=0|60=20150520-13:49:01.663|63=3|100=XBOG|207=XBOG|583=-ee6c25b20e4bb0e|453=1|448=LVARB|447=D|452=1|10=048|
20150520-13:49:01.663: 8=FIX.4.4|9=257|35=G|34=244|49=ADRARBXBOG|52=20150520-13:49:01.663|56=AMGTOBVC|1=881|11=-5829827d357fbcca|21=1|38=4000|40=2|41=-43cd7286ea60b3a5|44=28120|54=2|55=PFBCOLOM|59=0|60=20150520-13:49:01.663|63=3|100=XBOG|207=XBOG|583=-ee6c25b20e4bb0e|453=1|448=LVARB|447=D|452=1|10=091|
20150520-13:49:01.777: 8=FIX.4.4|9=347|35=8|57=062X01|128=LRVORBVC|115=BVC062|34=244|49=AMGTOBVC|56=ADRARBXBOG|52=20150520-13:49:01.753|37=201505202285|11=10680ed68e2f4a3b|41=746f05cf9d2b4e4e|17=12701|150=5|39=0|63=4|48=PFBCOLOM|22=99|167=CS|54=1|38=4000|40=2|44=27900|59=0|151=4000|14=0|60=20150520-13:49:01.000|31=0|32=0|6=0|55=PFBCOLOM|453=1|448=062|447=D|452=1|583=-ee6c25b20e4bb0e|10=158|
20150520-13:49:01.777: 8=FIX.4.4|9=349|35=8|57=062X01|128=LRVORBVC|115=BVC062|34=245|49=AMGTOBVC|56=ADRARBXBOG|52=20150520-13:49:01.768|37=201505202286|11=-5829827d357fbcca|41=-43cd7286ea60b3a5|17=12702|150=5|39=0|63=4|48=PFBCOLOM|22=99|167=CS|54=2|38=4000|40=2|44=28120|59=0|151=4000|14=0|60=20150520-13:49:01.000|31=0|32=0|6=0|55=PFBCOLOM|453=1|448=062|447=D|452=1|583=-ee6c25b20e4bb0e|10=209|
20150520-13:49:05.545: 8=FIX.4.4|9=252|35=G|34=245|49=ADRARBXBOG|52=20150520-13:49:05.545|56=AMGTOBVC|1=881|11=7b6501f367024a11|21=1|38=12000|40=2|41=24cf44889132455a|44=3530|54=2|55=PFAVH|59=0|60=20150520-13:49:05.545|63=3|100=XBOG|207=XBOG|583=204b73513cd54a16|453=1|448=LVARB|447=D|452=1|10=059|
20150520-13:49:05.661: 8=FIX.4.4|9=342|35=8|57=062X01|128=LRVORBVC|115=BVC062|34=246|49=AMGTOBVC|56=ADRARBXBOG|52=20150520-13:49:05.637|37=201505202207|11=7b6501f367024a11|41=24cf44889132455a|17=12729|150=5|39=0|63=4|48=PFAVH|22=99|167=CS|54=2|38=12000|40=2|44=3530|59=0|151=12000|14=0|60=20150520-13:49:05.000|31=0|32=0|6=0|55=PFAVH|453=1|448=062|447=D|452=1|583=204b73513cd54a16|10=000|
