20150519-11:16:07.974: 8=FIX.4.4|9=61|35=5|34=1|49=ADRARBXBOG|52=20150519-11:16:07.974|56=AMGTOBVC|10=018|
20150519-11:16:08.919: 8=FIX.4.4|9=61|35=5|34=1|49=ADRARBXBOG|52=20150519-11:16:08.919|56=AMGTOBVC|10=018|
20150519-11:16:09.903: 8=FIX.4.4|9=79|35=A|34=1|49=ADRARBXBOG|52=20150519-11:16:09.903|56=AMGTOBVC|98=0|108=60|141=Y|10=106|
20150519-11:16:09.915: 8=FIX.4.4|9=79|35=A|34=1|49=AMGTOBVC|56=ADRARBXBOG|52=20150519-11:16:09.888|108=60|98=0|141=Y|10=118|
20150519-11:16:09.915: 8=FIX.4.4|9=72|35=1|34=2|49=AMGTOBVC|56=ADRARBXBOG|52=20150519-11:16:09.888|112=STBL-2|10=125|
20150519-11:16:09.951: 8=FIX.4.4|9=72|35=0|34=2|49=ADRARBXBOG|52=20150519-11:16:09.951|56=AMGTOBVC|112=STBL-2|10=115|
20150519-11:17:09.990: 8=FIX.4.4|9=61|35=0|34=3|49=AMGTOBVC|56=ADRARBXBOG|52=20150519-11:17:09.962|10=015|
20150519-11:17:09.991: 8=FIX.4.4|9=61|35=0|34=3|49=ADRARBXBOG|52=20150519-11:17:09.991|56=AMGTOBVC|10=017|
20150519-11:18:10.313: 8=FIX.4.4|9=61|35=0|34=4|49=AMGTOBVC|56=ADRARBXBOG|52=20150519-11:18:10.286|10=008|
20150519-11:18:10.313: 8=FIX.4.4|9=61|35=0|34=4|49=ADRARBXBOG|52=20150519-11:18:10.313|56=AMGTOBVC|10=255|
20150519-11:19:10.628: 8=FIX.4.4|9=61|35=0|34=5|49=AMGTOBVC|56=ADRARBXBOG|52=20150519-11:19:10.595|10=013|
20150519-11:19:10.628: 8=FIX.4.4|9=61|35=0|34=5|49=ADRARBXBOG|52=20150519-11:19:10.628|56=AMGTOBVC|10=010|
20150519-11:20:10.896: 8=FIX.4.4|9=61|35=0|34=6|49=ADRARBXBOG|52=20150519-11:20:10.896|56=AMGTOBVC|10=010|
20150519-11:20:10.930: 8=FIX.4.4|9=61|35=0|34=6|49=AMGTOBVC|56=ADRARBXBOG|52=20150519-11:20:10.903|10=255|
20150519-11:21:11.240: 8=FIX.4.4|9=61|35=0|34=7|49=AMGTOBVC|56=ADRARBXBOG|52=20150519-11:21:11.212|10=251|
20150519-11:21:11.241: 8=FIX.4.4|9=61|35=0|34=7|49=ADRARBXBOG|52=20150519-11:21:11.240|56=AMGTOBVC|10=252|
20150519-11:22:11.565: 8=FIX.4.4|9=61|35=0|34=8|49=AMGTOBVC|56=ADRARBXBOG|52=20150519-11:22:11.536|10=006|
20150519-11:22:11.565: 8=FIX.4.4|9=61|35=0|34=8|49=ADRARBXBOG|52=20150519-11:22:11.565|56=AMGTOBVC|10=008|
20150519-11:23:11.874: 8=FIX.4.4|9=61|35=0|34=9|49=AMGTOBVC|56=ADRARBXBOG|52=20150519-11:23:11.844|10=010|
20150519-11:23:11.875: 8=FIX.4.4|9=61|35=0|34=9|49=ADRARBXBOG|52=20150519-11:23:11.875|56=AMGTOBVC|10=014|
20150519-11:24:11.896: 8=FIX.4.4|9=62|35=0|34=10|49=ADRARBXBOG|52=20150519-11:24:11.896|56=AMGTOBVC|10=059|
20150519-11:24:12.169: 8=FIX.4.4|9=62|35=0|34=10|49=AMGTOBVC|56=ADRARBXBOG|52=20150519-11:24:12.137|10=048|
20150519-11:25:12.492: 8=FIX.4.4|9=62|35=0|34=11|49=AMGTOBVC|56=ADRARBXBOG|52=20150519-11:25:12.461|10=050|
20150519-11:25:12.493: 8=FIX.4.4|9=62|35=0|34=11|49=ADRARBXBOG|52=20150519-11:25:12.493|56=AMGTOBVC|10=055|
20150519-11:26:12.803: 8=FIX.4.4|9=62|35=0|34=12|49=AMGTOBVC|56=ADRARBXBOG|52=20150519-11:26:12.769|10=063|
20150519-11:26:12.803: 8=FIX.4.4|9=62|35=0|34=12|49=ADRARBXBOG|52=20150519-11:26:12.803|56=AMGTOBVC|10=052|
20150519-11:27:12.895: 8=FIX.4.4|9=62|35=0|34=13|49=ADRARBXBOG|52=20150519-11:27:12.895|56=AMGTOBVC|10=065|
20150519-11:27:13.110: 8=FIX.4.4|9=62|35=0|34=13|49=AMGTOBVC|56=ADRARBXBOG|52=20150519-11:27:13.078|10=059|
20150519-11:28:12.896: 8=FIX.4.4|9=62|35=0|34=14|49=ADRARBXBOG|52=20150519-11:28:12.896|56=AMGTOBVC|10=068|
20150519-11:28:13.387: 8=FIX.4.4|9=62|35=0|34=14|49=AMGTOBVC|56=ADRARBXBOG|52=20150519-11:28:13.355|10=059|
20150519-11:29:13.650: 8=FIX.4.4|9=62|35=0|34=15|49=AMGTOBVC|56=ADRARBXBOG|52=20150519-11:29:13.617|10=062|
20150519-11:29:13.651: 8=FIX.4.4|9=62|35=0|34=15|49=ADRARBXBOG|52=20150519-11:29:13.651|56=AMGTOBVC|10=060|
20150519-11:30:13.895: 8=FIX.4.4|9=62|35=0|34=16|49=ADRARBXBOG|52=20150519-11:30:13.895|56=AMGTOBVC|10=063|
20150519-11:30:13.975: 8=FIX.4.4|9=62|35=0|34=16|49=AMGTOBVC|56=ADRARBXBOG|52=20150519-11:30:13.941|10=055|
20150519-11:31:13.895: 8=FIX.4.4|9=62|35=0|34=17|49=ADRARBXBOG|52=20150519-11:31:13.895|56=AMGTOBVC|10=065|
20150519-11:31:14.065: 8=FIX.4.4|9=62|35=0|34=17|49=AMGTOBVC|56=ADRARBXBOG|52=20150519-11:31:14.031|10=048|
20150519-11:32:13.896: 8=FIX.4.4|9=62|35=0|34=18|49=ADRARBXBOG|52=20150519-11:32:13.896|56=AMGTOBVC|10=068|
20150519-11:32:14.373: 8=FIX.4.4|9=62|35=0|34=18|49=AMGTOBVC|56=ADRARBXBOG|52=20150519-11:32:14.339|10=061|
20150519-11:33:13.896: 8=FIX.4.4|9=62|35=0|34=19|49=ADRARBXBOG|52=20150519-11:33:13.896|56=AMGTOBVC|10=070|
20150519-11:33:14.698: 8=FIX.4.4|9=62|35=0|34=19|49=AMGTOBVC|56=ADRARBXBOG|52=20150519-11:33:14.663|10=063|
20150519-11:34:13.896: 8=FIX.4.4|9=62|35=0|34=20|49=ADRARBXBOG|52=20150519-11:34:13.896|56=AMGTOBVC|10=063|
20150519-11:34:14.960: 8=FIX.4.4|9=62|35=0|34=20|49=AMGTOBVC|56=ADRARBXBOG|52=20150519-11:34:14.928|10=060|
20150519-11:35:14.895: 8=FIX.4.4|9=62|35=0|34=21|49=ADRARBXBOG|52=20150519-11:35:14.895|56=AMGTOBVC|10=065|
20150519-11:35:15.285: 8=FIX.4.4|9=62|35=0|34=21|49=AMGTOBVC|56=ADRARBXBOG|52=20150519-11:35:15.256|10=057|
20150519-11:36:14.896: 8=FIX.4.4|9=62|35=0|34=22|49=ADRARBXBOG|52=20150519-11:36:14.896|56=AMGTOBVC|10=068|
20150519-11:36:15.595: 8=FIX.4.4|9=62|35=0|34=22|49=AMGTOBVC|56=ADRARBXBOG|52=20150519-11:36:15.569|10=066|
20150519-11:37:14.896: 8=FIX.4.4|9=62|35=0|34=23|49=ADRARBXBOG|52=20150519-11:37:14.896|56=AMGTOBVC|10=070|
20150519-11:37:15.949: 8=FIX.4.4|9=62|35=0|34=23|49=AMGTOBVC|56=ADRARBXBOG|52=20150519-11:37:15.928|10=067|
20150519-11:38:14.896: 8=FIX.4.4|9=62|35=0|34=24|49=ADRARBXBOG|52=20150519-11:38:14.896|56=AMGTOBVC|10=072|
20150519-11:38:16.211: 8=FIX.4.4|9=62|35=0|34=24|49=AMGTOBVC|56=ADRARBXBOG|52=20150519-11:38:16.194|10=065|
20150519-11:39:14.896: 8=FIX.4.4|9=62|35=0|34=25|49=ADRARBXBOG|52=20150519-11:39:14.896|56=AMGTOBVC|10=074|
20150519-11:39:16.521: 8=FIX.4.4|9=62|35=0|34=25|49=AMGTOBVC|56=ADRARBXBOG|52=20150519-11:39:16.505|10=063|
20150519-11:40:14.896: 8=FIX.4.4|9=62|35=0|34=26|49=ADRARBXBOG|52=20150519-11:40:14.896|56=AMGTOBVC|10=067|
20150519-11:40:16.798: 8=FIX.4.4|9=62|35=0|34=26|49=AMGTOBVC|56=ADRARBXBOG|52=20150519-11:40:16.784|10=065|
20150519-11:41:15.895: 8=FIX.4.4|9=62|35=0|34=27|49=ADRARBXBOG|52=20150519-11:41:15.895|56=AMGTOBVC|10=069|
20150519-11:41:17.107: 8=FIX.4.4|9=62|35=0|34=27|49=AMGTOBVC|56=ADRARBXBOG|52=20150519-11:41:17.094|10=062|
20150519-11:42:15.895: 8=FIX.4.4|9=62|35=0|34=28|49=ADRARBXBOG|52=20150519-11:42:15.895|56=AMGTOBVC|10=071|
20150519-11:42:17.433: 8=FIX.4.4|9=62|35=0|34=28|49=AMGTOBVC|56=ADRARBXBOG|52=20150519-11:42:17.419|10=065|
20150519-11:43:15.896: 8=FIX.4.4|9=62|35=0|34=29|49=ADRARBXBOG|52=20150519-11:43:15.896|56=AMGTOBVC|10=074|
20150519-11:43:17.725: 8=FIX.4.4|9=62|35=0|34=29|49=AMGTOBVC|56=ADRARBXBOG|52=20150519-11:43:17.714|10=065|
20150519-11:44:16.896: 8=FIX.4.4|9=62|35=0|34=30|49=ADRARBXBOG|52=20150519-11:44:16.896|56=AMGTOBVC|10=068|
20150519-11:44:18.034: 8=FIX.4.4|9=62|35=0|34=30|49=AMGTOBVC|56=ADRARBXBOG|52=20150519-11:44:18.023|10=052|
20150519-11:45:17.896: 8=FIX.4.4|9=62|35=0|34=31|49=ADRARBXBOG|52=20150519-11:45:17.896|56=AMGTOBVC|10=071|
20150519-11:45:18.352: 8=FIX.4.4|9=62|35=0|34=31|49=AMGTOBVC|56=ADRARBXBOG|52=20150519-11:45:18.332|10=057|
20150519-11:46:17.896: 8=FIX.4.4|9=62|35=0|34=32|49=ADRARBXBOG|52=20150519-11:46:17.896|56=AMGTOBVC|10=073|
20150519-11:46:18.669: 8=FIX.4.4|9=62|35=0|34=32|49=AMGTOBVC|56=ADRARBXBOG|52=20150519-11:46:18.657|10=069|
20150519-11:47:17.896: 8=FIX.4.4|9=62|35=0|34=33|49=ADRARBXBOG|52=20150519-11:47:17.896|56=AMGTOBVC|10=075|
20150519-11:47:18.992: 8=FIX.4.4|9=62|35=0|34=33|49=AMGTOBVC|56=ADRARBXBOG|52=20150519-11:47:18.982|10=072|
20150519-11:48:18.896: 8=FIX.4.4|9=62|35=0|34=34|49=ADRARBXBOG|52=20150519-11:48:18.896|56=AMGTOBVC|10=078|
20150519-11:48:19.333: 8=FIX.4.4|9=62|35=0|34=34|49=AMGTOBVC|56=ADRARBXBOG|52=20150519-11:48:19.322|10=063|
20150519-11:49:18.896: 8=FIX.4.4|9=62|35=0|34=35|49=ADRARBXBOG|52=20150519-11:49:18.896|56=AMGTOBVC|10=080|
20150519-11:49:19.845: 8=FIX.4.4|9=62|35=0|34=35|49=AMGTOBVC|56=ADRARBXBOG|52=20150519-11:49:19.834|10=073|
20150519-11:50:19.896: 8=FIX.4.4|9=62|35=0|34=36|49=ADRARBXBOG|52=20150519-11:50:19.896|56=AMGTOBVC|10=074|
20150519-11:50:20.123: 8=FIX.4.4|9=62|35=0|34=36|49=AMGTOBVC|56=ADRARBXBOG|52=20150519-11:50:20.111|10=046|
20150519-11:51:20.448: 8=FIX.4.4|9=62|35=0|34=37|49=AMGTOBVC|56=ADRARBXBOG|52=20150519-11:51:20.435|10=057|
20150519-11:51:20.448: 8=FIX.4.4|9=62|35=0|34=37|49=ADRARBXBOG|52=20150519-11:51:20.448|56=AMGTOBVC|10=061|
20150519-11:52:20.741: 8=FIX.4.4|9=62|35=0|34=38|49=AMGTOBVC|56=ADRARBXBOG|52=20150519-11:52:20.728|10=064|
20150519-11:52:20.742: 8=FIX.4.4|9=62|35=0|34=38|49=ADRARBXBOG|52=20150519-11:52:20.742|56=AMGTOBVC|10=060|
20150519-11:53:20.895: 8=FIX.4.4|9=62|35=0|34=39|49=ADRARBXBOG|52=20150519-11:53:20.895|56=AMGTOBVC|10=071|
20150519-11:53:21.067: 8=FIX.4.4|9=62|35=0|34=39|49=AMGTOBVC|56=ADRARBXBOG|52=20150519-11:53:21.052|10=057|
20150519-11:54:20.896: 8=FIX.4.4|9=62|35=0|34=40|49=ADRARBXBOG|52=20150519-11:54:20.896|56=AMGTOBVC|10=065|
20150519-11:54:21.375: 8=FIX.4.4|9=62|35=0|34=40|49=AMGTOBVC|56=ADRARBXBOG|52=20150519-11:54:21.360|10=052|
20150519-11:55:20.896: 8=FIX.4.4|9=62|35=0|34=41|49=ADRARBXBOG|52=20150519-11:55:20.896|56=AMGTOBVC|10=067|
20150519-11:55:21.730: 8=FIX.4.4|9=62|35=0|34=41|49=AMGTOBVC|56=ADRARBXBOG|52=20150519-11:55:21.716|10=059|
20150519-11:56:20.896: 8=FIX.4.4|9=62|35=0|34=42|49=ADRARBXBOG|52=20150519-11:56:20.896|56=AMGTOBVC|10=069|
20150519-11:56:22.040: 8=FIX.4.4|9=62|35=0|34=42|49=AMGTOBVC|56=ADRARBXBOG|52=20150519-11:56:22.024|10=054|
20150519-11:57:21.895: 8=FIX.4.4|9=62|35=0|34=43|49=ADRARBXBOG|52=20150519-11:57:21.895|56=AMGTOBVC|10=071|
20150519-11:57:22.374: 8=FIX.4.4|9=62|35=0|34=43|49=AMGTOBVC|56=ADRARBXBOG|52=20150519-11:57:22.348|10=065|
20150519-11:58:21.895: 8=FIX.4.4|9=62|35=0|34=44|49=ADRARBXBOG|52=20150519-11:58:21.895|56=AMGTOBVC|10=073|
20150519-11:58:22.657: 8=FIX.4.4|9=62|35=0|34=44|49=AMGTOBVC|56=ADRARBXBOG|52=20150519-11:58:22.641|10=063|
20150519-11:59:21.895: 8=FIX.4.4|9=62|35=0|34=45|49=ADRARBXBOG|52=20150519-11:59:21.895|56=AMGTOBVC|10=075|
20150519-11:59:22.975: 8=FIX.4.4|9=62|35=0|34=45|49=AMGTOBVC|56=ADRARBXBOG|52=20150519-11:59:22.949|10=076|
20150519-12:00:21.896: 8=FIX.4.4|9=62|35=0|34=46|49=ADRARBXBOG|52=20150519-12:00:21.896|56=AMGTOBVC|10=064|
20150519-12:00:23.274: 8=FIX.4.4|9=62|35=0|34=46|49=AMGTOBVC|56=ADRARBXBOG|52=20150519-12:00:23.258|10=058|
20150519-12:01:21.896: 8=FIX.4.4|9=62|35=0|34=47|49=ADRARBXBOG|52=20150519-12:01:21.896|56=AMGTOBVC|10=066|
20150519-12:01:23.555: 8=FIX.4.4|9=62|35=0|34=47|49=AMGTOBVC|56=ADRARBXBOG|52=20150519-12:01:23.535|10=058|
20150519-12:02:22.895: 8=FIX.4.4|9=62|35=0|34=48|49=ADRARBXBOG|52=20150519-12:02:22.895|56=AMGTOBVC|10=068|
20150519-12:02:23.814: 8=FIX.4.4|9=62|35=0|34=48|49=AMGTOBVC|56=ADRARBXBOG|52=20150519-12:02:23.797|10=070|
20150519-12:03:22.896: 8=FIX.4.4|9=62|35=0|34=49|49=ADRARBXBOG|52=20150519-12:03:22.896|56=AMGTOBVC|10=071|
20150519-12:03:24.107: 8=FIX.4.4|9=62|35=0|34=49|49=AMGTOBVC|56=ADRARBXBOG|52=20150519-12:03:24.090|10=059|
20150519-12:04:23.895: 8=FIX.4.4|9=62|35=0|34=50|49=ADRARBXBOG|52=20150519-12:04:23.895|56=AMGTOBVC|10=064|
20150519-12:04:24.370: 8=FIX.4.4|9=62|35=0|34=50|49=AMGTOBVC|56=ADRARBXBOG|52=20150519-12:04:24.351|10=052|
20150519-12:05:23.895: 8=FIX.4.4|9=62|35=0|34=51|49=ADRARBXBOG|52=20150519-12:05:23.895|56=AMGTOBVC|10=066|
20150519-12:05:24.664: 8=FIX.4.4|9=62|35=0|34=51|49=AMGTOBVC|56=ADRARBXBOG|52=20150519-12:05:24.644|10=059|
20150519-12:06:23.896: 8=FIX.4.4|9=62|35=0|34=52|49=ADRARBXBOG|52=20150519-12:06:23.896|56=AMGTOBVC|10=069|
20150519-12:06:24.676: 8=FIX.4.4|9=62|35=0|34=52|49=AMGTOBVC|56=ADRARBXBOG|52=20150519-12:06:24.656|10=064|
20150519-12:07:24.896: 8=FIX.4.4|9=62|35=0|34=53|49=ADRARBXBOG|52=20150519-12:07:24.896|56=AMGTOBVC|10=072|
20150519-12:07:25.048: 8=FIX.4.4|9=62|35=0|34=53|49=AMGTOBVC|56=ADRARBXBOG|52=20150519-12:07:25.027|10=059|
20150519-12:08:25.294: 8=FIX.4.4|9=62|35=0|34=54|49=AMGTOBVC|56=ADRARBXBOG|52=20150519-12:08:25.273|10=064|
20150519-12:08:25.294: 8=FIX.4.4|9=62|35=0|34=54|49=ADRARBXBOG|52=20150519-12:08:25.294|56=AMGTOBVC|10=067|
20150519-12:09:25.558: 8=FIX.4.4|9=62|35=0|34=55|49=AMGTOBVC|56=ADRARBXBOG|52=20150519-12:09:25.535|10=067|
20150519-12:09:25.558: 8=FIX.4.4|9=62|35=0|34=55|49=ADRARBXBOG|52=20150519-12:09:25.558|56=AMGTOBVC|10=072|
20150519-12:10:25.852: 8=FIX.4.4|9=62|35=0|34=56|49=AMGTOBVC|56=ADRARBXBOG|52=20150519-12:10:25.827|10=064|
20150519-12:10:25.852: 8=FIX.4.4|9=62|35=0|34=56|49=ADRARBXBOG|52=20150519-12:10:25.852|56=AMGTOBVC|10=062|
20150519-12:11:25.895: 8=FIX.4.4|9=62|35=0|34=57|49=ADRARBXBOG|52=20150519-12:11:25.895|56=AMGTOBVC|10=071|
20150519-12:11:26.158: 8=FIX.4.4|9=62|35=0|34=57|49=AMGTOBVC|56=ADRARBXBOG|52=20150519-12:11:26.136|10=060|
20150519-12:12:25.895: 8=FIX.4.4|9=62|35=0|34=58|49=ADRARBXBOG|52=20150519-12:12:25.895|56=AMGTOBVC|10=073|
20150519-12:12:26.406: 8=FIX.4.4|9=62|35=0|34=58|49=AMGTOBVC|56=ADRARBXBOG|52=20150519-12:12:26.382|10=065|
20150519-12:13:25.895: 8=FIX.4.4|9=62|35=0|34=59|49=ADRARBXBOG|52=20150519-12:13:25.895|56=AMGTOBVC|10=075|
20150519-12:13:26.667: 8=FIX.4.4|9=62|35=0|34=59|49=AMGTOBVC|56=ADRARBXBOG|52=20150519-12:13:26.644|10=068|
20150519-12:14:25.896: 8=FIX.4.4|9=62|35=0|34=60|49=ADRARBXBOG|52=20150519-12:14:25.896|56=AMGTOBVC|10=069|
20150519-12:14:26.945: 8=FIX.4.4|9=62|35=0|34=60|49=AMGTOBVC|56=ADRARBXBOG|52=20150519-12:14:26.921|10=059|
20150519-12:15:26.895: 8=FIX.4.4|9=62|35=0|34=61|49=ADRARBXBOG|52=20150519-12:15:26.895|56=AMGTOBVC|10=071|
20150519-12:15:27.191: 8=FIX.4.4|9=62|35=0|34=61|49=AMGTOBVC|56=ADRARBXBOG|52=20150519-12:15:27.167|10=064|
20150519-12:16:26.896: 8=FIX.4.4|9=62|35=0|34=62|49=ADRARBXBOG|52=20150519-12:16:26.896|56=AMGTOBVC|10=074|
20150519-12:16:27.516: 8=FIX.4.4|9=62|35=0|34=62|49=AMGTOBVC|56=ADRARBXBOG|52=20150519-12:16:27.491|10=066|
20150519-12:17:26.896: 8=FIX.4.4|9=62|35=0|34=63|49=ADRARBXBOG|52=20150519-12:17:26.896|56=AMGTOBVC|10=076|
20150519-12:17:27.782: 8=FIX.4.4|9=62|35=0|34=63|49=AMGTOBVC|56=ADRARBXBOG|52=20150519-12:17:27.753|10=069|
20150519-12:18:26.896: 8=FIX.4.4|9=62|35=0|34=64|49=ADRARBXBOG|52=20150519-12:18:26.896|56=AMGTOBVC|10=078|
20150519-12:18:28.057: 8=FIX.4.4|9=62|35=0|34=64|49=AMGTOBVC|56=ADRARBXBOG|52=20150519-12:18:28.030|10=060|
20150519-12:19:27.895: 8=FIX.4.4|9=62|35=0|34=65|49=ADRARBXBOG|52=20150519-12:19:27.895|56=AMGTOBVC|10=080|
20150519-12:19:28.350: 8=FIX.4.4|9=62|35=0|34=65|49=AMGTOBVC|56=ADRARBXBOG|52=20150519-12:19:28.323|10=067|
20150519-12:20:27.896: 8=FIX.4.4|9=62|35=0|34=66|49=ADRARBXBOG|52=20150519-12:20:27.896|56=AMGTOBVC|10=074|
20150519-12:20:28.662: 8=FIX.4.4|9=62|35=0|34=66|49=AMGTOBVC|56=ADRARBXBOG|52=20150519-12:20:28.631|10=062|
20150519-12:21:27.896: 8=FIX.4.4|9=62|35=0|34=67|49=ADRARBXBOG|52=20150519-12:21:27.896|56=AMGTOBVC|10=076|
20150519-12:21:28.907: 8=FIX.4.4|9=62|35=0|34=67|49=AMGTOBVC|56=ADRARBXBOG|52=20150519-12:21:28.877|10=076|
20150519-12:22:27.896: 8=FIX.4.4|9=62|35=0|34=68|49=ADRARBXBOG|52=20150519-12:22:27.896|56=AMGTOBVC|10=078|
20150519-12:22:29.177: 8=FIX.4.4|9=62|35=0|34=68|49=AMGTOBVC|56=ADRARBXBOG|52=20150519-12:22:29.139|10=070|
20150519-12:23:28.895: 8=FIX.4.4|9=62|35=0|34=69|49=ADRARBXBOG|52=20150519-12:23:28.895|56=AMGTOBVC|10=080|
20150519-12:23:29.215: 8=FIX.4.4|9=62|35=0|34=69|49=AMGTOBVC|56=ADRARBXBOG|52=20150519-12:23:29.182|10=070|
20150519-12:24:28.895: 8=FIX.4.4|9=62|35=0|34=70|49=ADRARBXBOG|52=20150519-12:24:28.895|56=AMGTOBVC|10=073|
20150519-12:24:29.537: 8=FIX.4.4|9=62|35=0|34=70|49=AMGTOBVC|56=ADRARBXBOG|52=20150519-12:24:29.506|10=063|
20150519-12:25:28.895: 8=FIX.4.4|9=62|35=0|34=71|49=ADRARBXBOG|52=20150519-12:25:28.895|56=AMGTOBVC|10=075|
20150519-12:25:29.774: 8=FIX.4.4|9=62|35=0|34=71|49=AMGTOBVC|56=ADRARBXBOG|52=20150519-12:25:29.737|10=071|
20150519-12:26:28.895: 8=FIX.4.4|9=62|35=0|34=72|49=ADRARBXBOG|52=20150519-12:26:28.895|56=AMGTOBVC|10=077|
20150519-12:26:30.003: 8=FIX.4.4|9=62|35=0|34=72|49=AMGTOBVC|56=ADRARBXBOG|52=20150519-12:26:29.967|10=078|
20150519-12:27:28.895: 8=FIX.4.4|9=62|35=0|34=73|49=ADRARBXBOG|52=20150519-12:27:28.895|56=AMGTOBVC|10=079|
20150519-12:27:30.262: 8=FIX.4.4|9=62|35=0|34=73|49=AMGTOBVC|56=ADRARBXBOG|52=20150519-12:27:30.229|10=063|
20150519-12:28:28.895: 8=FIX.4.4|9=62|35=0|34=74|49=ADRARBXBOG|52=20150519-12:28:28.895|56=AMGTOBVC|10=081|
20150519-12:28:30.617: 8=FIX.4.4|9=62|35=0|34=74|49=AMGTOBVC|56=ADRARBXBOG|52=20150519-12:28:30.584|10=069|
20150519-12:29:28.895: 8=FIX.4.4|9=62|35=0|34=75|49=ADRARBXBOG|52=20150519-12:29:28.895|56=AMGTOBVC|10=083|
20150519-12:29:30.955: 8=FIX.4.4|9=62|35=0|34=75|49=AMGTOBVC|56=ADRARBXBOG|52=20150519-12:29:30.923|10=068|
20150519-12:30:28.895: 8=FIX.4.4|9=62|35=0|34=76|49=ADRARBXBOG|52=20150519-12:30:28.895|56=AMGTOBVC|10=076|
20150519-12:30:31.313: 8=FIX.4.4|9=62|35=0|34=76|49=AMGTOBVC|56=ADRARBXBOG|52=20150519-12:30:31.263|10=059|
20150519-12:31:28.896: 8=FIX.4.4|9=62|35=0|34=77|49=ADRARBXBOG|52=20150519-12:31:28.896|56=AMGTOBVC|10=079|
20150519-12:31:31.662: 8=FIX.4.4|9=62|35=0|34=77|49=AMGTOBVC|56=ADRARBXBOG|52=20150519-12:31:31.618|10=065|
20150519-12:32:28.896: 8=FIX.4.4|9=62|35=0|34=78|49=ADRARBXBOG|52=20150519-12:32:28.896|56=AMGTOBVC|10=081|
20150519-12:32:31.960: 8=FIX.4.4|9=62|35=0|34=78|49=AMGTOBVC|56=ADRARBXBOG|52=20150519-12:32:31.927|10=070|
20150519-12:33:28.896: 8=FIX.4.4|9=62|35=0|34=79|49=ADRARBXBOG|52=20150519-12:33:28.896|56=AMGTOBVC|10=083|
20150519-12:33:32.335: 8=FIX.4.4|9=62|35=0|34=79|49=AMGTOBVC|56=ADRARBXBOG|52=20150519-12:33:32.298|10=074|
20150519-12:34:28.896: 8=FIX.4.4|9=62|35=0|34=80|49=ADRARBXBOG|52=20150519-12:34:28.896|56=AMGTOBVC|10=076|
20150519-12:34:32.642: 8=FIX.4.4|9=62|35=0|34=80|49=AMGTOBVC|56=ADRARBXBOG|52=20150519-12:34:32.611|10=056|
20150519-12:35:28.896: 8=FIX.4.4|9=62|35=0|34=81|49=ADRARBXBOG|52=20150519-12:35:28.896|56=AMGTOBVC|10=078|
20150519-12:35:32.950: 8=FIX.4.4|9=62|35=0|34=81|49=AMGTOBVC|56=ADRARBXBOG|52=20150519-12:35:32.926|10=067|
20150519-12:36:29.896: 8=FIX.4.4|9=62|35=0|34=82|49=ADRARBXBOG|52=20150519-12:36:29.895|56=AMGTOBVC|10=080|
20150519-12:36:33.244: 8=FIX.4.4|9=62|35=0|34=82|49=AMGTOBVC|56=ADRARBXBOG|52=20150519-12:36:33.224|10=061|
20150519-12:37:29.896: 8=FIX.4.4|9=62|35=0|34=83|49=ADRARBXBOG|52=20150519-12:37:29.896|56=AMGTOBVC|10=083|
20150519-12:37:33.568: 8=FIX.4.4|9=62|35=0|34=83|49=AMGTOBVC|56=ADRARBXBOG|52=20150519-12:37:33.554|10=069|
20150519-12:38:29.896: 8=FIX.4.4|9=62|35=0|34=84|49=ADRARBXBOG|52=20150519-12:38:29.896|56=AMGTOBVC|10=085|
20150519-12:38:33.912: 8=FIX.4.4|9=62|35=0|34=84|49=AMGTOBVC|56=ADRARBXBOG|52=20150519-12:38:33.884|10=077|
20150519-12:39:30.895: 8=FIX.4.4|9=62|35=0|34=85|49=ADRARBXBOG|52=20150519-12:39:30.895|56=AMGTOBVC|10=078|
20150519-12:39:34.186: 8=FIX.4.4|9=62|35=0|34=85|49=AMGTOBVC|56=ADRARBXBOG|52=20150519-12:39:34.179|10=077|
20150519-12:40:30.895: 8=FIX.4.4|9=62|35=0|34=86|49=ADRARBXBOG|52=20150519-12:40:30.895|56=AMGTOBVC|10=071|
20150519-12:40:34.666: 8=FIX.4.4|9=62|35=0|34=86|49=AMGTOBVC|56=ADRARBXBOG|52=20150519-12:40:34.662|10=067|
20150519-12:41:30.895: 8=FIX.4.4|9=62|35=0|34=87|49=ADRARBXBOG|52=20150519-12:41:30.895|56=AMGTOBVC|10=073|
20150519-12:41:34.959: 8=FIX.4.4|9=62|35=0|34=87|49=AMGTOBVC|56=ADRARBXBOG|52=20150519-12:41:34.957|10=076|
20150519-12:42:30.896: 8=FIX.4.4|9=62|35=0|34=88|49=ADRARBXBOG|52=20150519-12:42:30.896|56=AMGTOBVC|10=076|
20150519-12:42:35.286: 8=FIX.4.4|9=62|35=0|34=88|49=AMGTOBVC|56=ADRARBXBOG|52=20150519-12:42:35.283|10=071|
20150519-12:43:30.896: 8=FIX.4.4|9=62|35=0|34=89|49=ADRARBXBOG|52=20150519-12:43:30.896|56=AMGTOBVC|10=078|
20150519-12:43:35.598: 8=FIX.4.4|9=62|35=0|34=89|49=AMGTOBVC|56=ADRARBXBOG|52=20150519-12:43:35.594|10=078|
20150519-12:44:30.896: 8=FIX.4.4|9=62|35=0|34=90|49=ADRARBXBOG|52=20150519-12:44:30.896|56=AMGTOBVC|10=071|
20150519-12:44:35.887: 8=FIX.4.4|9=62|35=0|34=90|49=AMGTOBVC|56=ADRARBXBOG|52=20150519-12:44:35.888|10=077|
20150519-12:45:30.896: 8=FIX.4.4|9=62|35=0|34=91|49=ADRARBXBOG|52=20150519-12:45:30.896|56=AMGTOBVC|10=073|
20150519-12:45:36.323: 8=FIX.4.4|9=62|35=0|34=91|49=AMGTOBVC|56=ADRARBXBOG|52=20150519-12:45:36.322|10=063|
20150519-12:46:30.896: 8=FIX.4.4|9=62|35=0|34=92|49=ADRARBXBOG|52=20150519-12:46:30.896|56=AMGTOBVC|10=075|
20150519-12:46:36.600: 8=FIX.4.4|9=62|35=0|34=92|49=AMGTOBVC|56=ADRARBXBOG|52=20150519-12:46:36.600|10=064|
20150519-12:47:30.896: 8=FIX.4.4|9=62|35=0|34=93|49=ADRARBXBOG|52=20150519-12:47:30.896|56=AMGTOBVC|10=077|
20150519-12:47:36.943: 8=FIX.4.4|9=62|35=0|34=93|49=AMGTOBVC|56=ADRARBXBOG|52=20150519-12:47:36.940|10=073|
20150519-12:48:31.895: 8=FIX.4.4|9=62|35=0|34=94|49=ADRARBXBOG|52=20150519-12:48:31.895|56=AMGTOBVC|10=079|
20150519-12:48:37.218: 8=FIX.4.4|9=62|35=0|34=94|49=AMGTOBVC|56=ADRARBXBOG|52=20150519-12:48:37.218|10=074|
20150519-12:49:31.896: 8=FIX.4.4|9=62|35=0|34=95|49=ADRARBXBOG|52=20150519-12:49:31.896|56=AMGTOBVC|10=082|
20150519-12:49:37.533: 8=FIX.4.4|9=62|35=0|34=95|49=AMGTOBVC|56=ADRARBXBOG|52=20150519-12:49:37.527|10=079|
20150519-12:50:32.895: 8=FIX.4.4|9=62|35=0|34=96|49=ADRARBXBOG|52=20150519-12:50:32.895|56=AMGTOBVC|10=075|
20150519-12:50:37.850: 8=FIX.4.4|9=62|35=0|34=96|49=AMGTOBVC|56=ADRARBXBOG|52=20150519-12:50:37.851|10=072|
20150519-12:51:32.895: 8=FIX.4.4|9=62|35=0|34=97|49=ADRARBXBOG|52=20150519-12:51:32.895|56=AMGTOBVC|10=077|
20150519-12:51:38.197: 8=FIX.4.4|9=62|35=0|34=97|49=AMGTOBVC|56=ADRARBXBOG|52=20150519-12:51:38.191|10=072|
20150519-12:52:32.895: 8=FIX.4.4|9=62|35=0|34=98|49=ADRARBXBOG|52=20150519-12:52:32.895|56=AMGTOBVC|10=079|
20150519-12:52:38.468: 8=FIX.4.4|9=62|35=0|34=98|49=AMGTOBVC|56=ADRARBXBOG|52=20150519-12:52:38.469|10=082|
20150519-12:53:32.895: 8=FIX.4.4|9=62|35=0|34=99|49=ADRARBXBOG|52=20150519-12:53:32.895|56=AMGTOBVC|10=081|
20150519-12:53:38.763: 8=FIX.4.4|9=62|35=0|34=99|49=AMGTOBVC|56=ADRARBXBOG|52=20150519-12:53:38.762|10=080|
20150519-12:54:32.896: 8=FIX.4.4|9=63|35=0|34=100|49=ADRARBXBOG|52=20150519-12:54:32.896|56=AMGTOBVC|10=115|
20150519-12:54:39.118: 8=FIX.4.4|9=63|35=0|34=100|49=AMGTOBVC|56=ADRARBXBOG|52=20150519-12:54:39.117|10=108|
20150519-12:55:32.896: 8=FIX.4.4|9=63|35=0|34=101|49=ADRARBXBOG|52=20150519-12:55:32.896|56=AMGTOBVC|10=117|
20150519-12:55:39.422: 8=FIX.4.4|9=63|35=0|34=101|49=AMGTOBVC|56=ADRARBXBOG|52=20150519-12:55:39.410|10=106|
20150519-12:56:32.896: 8=FIX.4.4|9=63|35=0|34=102|49=ADRARBXBOG|52=20150519-12:56:32.896|56=AMGTOBVC|10=119|
20150519-12:56:39.785: 8=FIX.4.4|9=63|35=0|34=102|49=AMGTOBVC|56=ADRARBXBOG|52=20150519-12:56:39.781|10=119|
20150519-12:57:32.897: 8=FIX.4.4|9=63|35=0|34=103|49=ADRARBXBOG|52=20150519-12:57:32.896|56=AMGTOBVC|10=121|
20150519-12:57:40.115: 8=FIX.4.4|9=63|35=0|34=103|49=AMGTOBVC|56=ADRARBXBOG|52=20150519-12:57:40.105|10=103|
20150519-12:58:32.897: 8=FIX.4.4|9=63|35=0|34=104|49=ADRARBXBOG|52=20150519-12:58:32.897|56=AMGTOBVC|10=124|
20150519-12:58:40.203: 8=FIX.4.4|9=63|35=0|34=104|49=AMGTOBVC|56=ADRARBXBOG|52=20150519-12:58:40.195|10=114|
20150519-12:59:33.896: 8=FIX.4.4|9=63|35=0|34=105|49=ADRARBXBOG|52=20150519-12:59:33.896|56=AMGTOBVC|10=126|
20150519-12:59:40.429: 8=FIX.4.4|9=63|35=0|34=105|49=AMGTOBVC|56=ADRARBXBOG|52=20150519-12:59:40.426|10=113|
20150519-13:00:34.896: 8=FIX.4.4|9=63|35=0|34=106|49=ADRARBXBOG|52=20150519-13:00:34.896|56=AMGTOBVC|10=115|
20150519-13:00:40.724: 8=FIX.4.4|9=63|35=0|34=106|49=AMGTOBVC|56=ADRARBXBOG|52=20150519-13:00:40.718|10=105|
20150519-13:01:35.895: 8=FIX.4.4|9=63|35=0|34=107|49=ADRARBXBOG|52=20150519-13:01:35.895|56=AMGTOBVC|10=117|
20150519-13:01:41.027: 8=FIX.4.4|9=63|35=0|34=107|49=AMGTOBVC|56=ADRARBXBOG|52=20150519-13:01:41.011|10=094|
20150519-13:02:35.895: 8=FIX.4.4|9=63|35=0|34=108|49=ADRARBXBOG|52=20150519-13:02:35.895|56=AMGTOBVC|10=119|
20150519-13:02:41.318: 8=FIX.4.4|9=63|35=0|34=108|49=AMGTOBVC|56=ADRARBXBOG|52=20150519-13:02:41.304|10=101|
20150519-13:03:35.895: 8=FIX.4.4|9=63|35=0|34=109|49=ADRARBXBOG|52=20150519-13:03:35.895|56=AMGTOBVC|10=121|
20150519-13:03:41.690: 8=FIX.4.4|9=63|35=0|34=109|49=AMGTOBVC|56=ADRARBXBOG|52=20150519-13:03:41.675|10=114|
20150519-13:04:35.896: 8=FIX.4.4|9=63|35=0|34=110|49=ADRARBXBOG|52=20150519-13:04:35.896|56=AMGTOBVC|10=115|
20150519-13:04:41.995: 8=FIX.4.4|9=63|35=0|34=110|49=AMGTOBVC|56=ADRARBXBOG|52=20150519-13:04:41.983|10=109|
20150519-13:05:35.896: 8=FIX.4.4|9=63|35=0|34=111|49=ADRARBXBOG|52=20150519-13:05:35.896|56=AMGTOBVC|10=117|
20150519-13:05:42.314: 8=FIX.4.4|9=63|35=0|34=111|49=AMGTOBVC|56=ADRARBXBOG|52=20150519-13:05:42.307|10=102|
20150519-13:06:36.895: 8=FIX.4.4|9=63|35=0|34=112|49=ADRARBXBOG|52=20150519-13:06:36.895|56=AMGTOBVC|10=119|
20150519-13:06:42.638: 8=FIX.4.4|9=63|35=0|34=112|49=AMGTOBVC|56=ADRARBXBOG|52=20150519-13:06:42.632|10=105|
20150519-13:07:36.895: 8=FIX.4.4|9=63|35=0|34=113|49=ADRARBXBOG|52=20150519-13:07:36.895|56=AMGTOBVC|10=121|
20150519-13:07:42.924: 8=FIX.4.4|9=63|35=0|34=113|49=AMGTOBVC|56=ADRARBXBOG|52=20150519-13:07:42.909|10=114|
20150519-13:08:36.896: 8=FIX.4.4|9=63|35=0|34=114|49=ADRARBXBOG|52=20150519-13:08:36.896|56=AMGTOBVC|10=124|
20150519-13:08:43.254: 8=FIX.4.4|9=63|35=0|34=114|49=AMGTOBVC|56=ADRARBXBOG|52=20150519-13:08:43.233|10=107|
20150519-13:09:36.896: 8=FIX.4.4|9=63|35=0|34=115|49=ADRARBXBOG|52=20150519-13:09:36.896|56=AMGTOBVC|10=126|
20150519-13:09:43.583: 8=FIX.4.4|9=63|35=0|34=115|49=AMGTOBVC|56=ADRARBXBOG|52=20150519-13:09:43.572|10=115|
20150519-13:10:37.895: 8=FIX.4.4|9=63|35=0|34=116|49=ADRARBXBOG|52=20150519-13:10:37.895|56=AMGTOBVC|10=119|
20150519-13:10:43.946: 8=FIX.4.4|9=63|35=0|34=116|49=AMGTOBVC|56=ADRARBXBOG|52=20150519-13:10:43.928|10=113|
20150519-13:11:37.895: 8=FIX.4.4|9=63|35=0|34=117|49=ADRARBXBOG|52=20150519-13:11:37.895|56=AMGTOBVC|10=121|
20150519-13:11:44.265: 8=FIX.4.4|9=63|35=0|34=117|49=AMGTOBVC|56=ADRARBXBOG|52=20150519-13:11:44.252|10=106|
20150519-13:12:37.895: 8=FIX.4.4|9=63|35=0|34=118|49=ADRARBXBOG|52=20150519-13:12:37.895|56=AMGTOBVC|10=123|
20150519-13:12:44.579: 8=FIX.4.4|9=63|35=0|34=118|49=AMGTOBVC|56=ADRARBXBOG|52=20150519-13:12:44.560|10=110|
20150519-13:13:37.959: 8=FIX.4.4|9=63|35=0|34=119|49=ADRARBXBOG|52=20150519-13:13:37.959|56=AMGTOBVC|10=126|
20150519-13:13:44.880: 8=FIX.4.4|9=63|35=0|34=119|49=AMGTOBVC|56=ADRARBXBOG|52=20150519-13:13:44.869|10=124|
20150519-13:14:38.896: 8=FIX.4.4|9=63|35=0|34=120|49=ADRARBXBOG|52=20150519-13:14:38.896|56=AMGTOBVC|10=120|
20150519-13:14:45.268: 8=FIX.4.4|9=63|35=0|34=120|49=AMGTOBVC|56=ADRARBXBOG|52=20150519-13:14:45.255|10=107|
20150519-13:15:39.895: 8=FIX.4.4|9=63|35=0|34=121|49=ADRARBXBOG|52=20150519-13:15:39.895|56=AMGTOBVC|10=122|
20150519-13:15:45.574: 8=FIX.4.4|9=63|35=0|34=121|49=AMGTOBVC|56=ADRARBXBOG|52=20150519-13:15:45.563|10=111|
20150519-13:16:39.895: 8=FIX.4.4|9=63|35=0|34=122|49=ADRARBXBOG|52=20150519-13:16:39.895|56=AMGTOBVC|10=124|
20150519-13:16:45.603: 8=FIX.4.4|9=63|35=0|34=122|49=AMGTOBVC|56=ADRARBXBOG|52=20150519-13:16:45.591|10=114|
20150519-13:17:39.896: 8=FIX.4.4|9=63|35=0|34=123|49=ADRARBXBOG|52=20150519-13:17:39.896|56=AMGTOBVC|10=127|
20150519-13:17:45.928: 8=FIX.4.4|9=63|35=0|34=123|49=AMGTOBVC|56=ADRARBXBOG|52=20150519-13:17:45.900|10=110|
20150519-13:18:39.896: 8=FIX.4.4|9=63|35=0|34=124|49=ADRARBXBOG|52=20150519-13:18:39.896|56=AMGTOBVC|10=129|
20150519-13:18:46.205: 8=FIX.4.4|9=63|35=0|34=124|49=AMGTOBVC|56=ADRARBXBOG|52=20150519-13:18:46.192|10=116|
20150519-13:19:39.896: 8=FIX.4.4|9=63|35=0|34=125|49=ADRARBXBOG|52=20150519-13:19:39.896|56=AMGTOBVC|10=131|
20150519-13:19:46.592: 8=FIX.4.4|9=63|35=0|34=125|49=AMGTOBVC|56=ADRARBXBOG|52=20150519-13:19:46.579|10=127|
20150519-13:20:40.896: 8=FIX.4.4|9=63|35=0|34=126|49=ADRARBXBOG|52=20150519-13:20:40.896|56=AMGTOBVC|10=116|
20150519-13:20:46.901: 8=FIX.4.4|9=63|35=0|34=126|49=AMGTOBVC|56=ADRARBXBOG|52=20150519-13:20:46.887|10=122|
20150519-13:21:41.895: 8=FIX.4.4|9=63|35=0|34=127|49=ADRARBXBOG|52=20150519-13:21:41.895|56=AMGTOBVC|10=118|
20150519-13:21:47.226: 8=FIX.4.4|9=63|35=0|34=127|49=AMGTOBVC|56=ADRARBXBOG|52=20150519-13:21:47.211|10=106|
20150519-13:22:41.896: 8=FIX.4.4|9=63|35=0|34=128|49=ADRARBXBOG|52=20150519-13:22:41.896|56=AMGTOBVC|10=121|
20150519-13:22:47.535: 8=FIX.4.4|9=63|35=0|34=128|49=AMGTOBVC|56=ADRARBXBOG|52=20150519-13:22:47.520|10=111|
20150519-13:23:41.896: 8=FIX.4.4|9=63|35=0|34=129|49=ADRARBXBOG|52=20150519-13:23:41.896|56=AMGTOBVC|10=123|
20150519-13:23:47.844: 8=FIX.4.4|9=63|35=0|34=129|49=AMGTOBVC|56=ADRARBXBOG|52=20150519-13:23:47.828|10=124|
20150519-13:24:42.895: 8=FIX.4.4|9=63|35=0|34=130|49=ADRARBXBOG|52=20150519-13:24:42.895|56=AMGTOBVC|10=116|
20150519-13:24:48.121: 8=FIX.4.4|9=63|35=0|34=130|49=AMGTOBVC|56=ADRARBXBOG|52=20150519-13:24:48.105|10=106|
20150519-13:25:42.895: 8=FIX.4.4|9=63|35=0|34=131|49=ADRARBXBOG|52=20150519-13:25:42.895|56=AMGTOBVC|10=118|
20150519-13:25:48.421: 8=FIX.4.4|9=63|35=0|34=131|49=AMGTOBVC|56=ADRARBXBOG|52=20150519-13:25:48.398|10=122|
20150519-13:26:42.895: 8=FIX.4.4|9=63|35=0|34=132|49=ADRARBXBOG|52=20150519-13:26:42.895|56=AMGTOBVC|10=120|
20150519-13:26:48.680: 8=FIX.4.4|9=63|35=0|34=132|49=AMGTOBVC|56=ADRARBXBOG|52=20150519-13:26:48.660|10=116|
20150519-13:27:42.896: 8=FIX.4.4|9=63|35=0|34=133|49=ADRARBXBOG|52=20150519-13:27:42.896|56=AMGTOBVC|10=123|
20150519-13:27:49.006: 8=FIX.4.4|9=63|35=0|34=133|49=AMGTOBVC|56=ADRARBXBOG|52=20150519-13:27:48.984|10=127|
20150519-13:28:42.896: 8=FIX.4.4|9=63|35=0|34=134|49=ADRARBXBOG|52=20150519-13:28:42.896|56=AMGTOBVC|10=125|
20150519-13:28:49.344: 8=FIX.4.4|9=63|35=0|34=134|49=AMGTOBVC|56=ADRARBXBOG|52=20150519-13:28:49.308|10=120|
20150519-13:29:43.896: 8=FIX.4.4|9=63|35=0|34=135|49=ADRARBXBOG|52=20150519-13:29:43.896|56=AMGTOBVC|10=128|
20150519-13:29:49.606: 8=FIX.4.4|9=63|35=0|34=135|49=AMGTOBVC|56=ADRARBXBOG|52=20150519-13:29:49.585|10=129|
20150519-13:30:43.896: 8=FIX.4.4|9=63|35=0|34=136|49=ADRARBXBOG|52=20150519-13:30:43.896|56=AMGTOBVC|10=121|
20150519-13:30:49.950: 8=FIX.4.4|9=63|35=0|34=136|49=AMGTOBVC|56=ADRARBXBOG|52=20150519-13:30:49.925|10=120|
20150519-13:31:43.896: 8=FIX.4.4|9=63|35=0|34=137|49=ADRARBXBOG|52=20150519-13:31:43.896|56=AMGTOBVC|10=123|
20150519-13:31:50.255: 8=FIX.4.4|9=63|35=0|34=137|49=AMGTOBVC|56=ADRARBXBOG|52=20150519-13:31:50.233|10=106|
20150519-13:32:43.896: 8=FIX.4.4|9=63|35=0|34=138|49=ADRARBXBOG|52=20150519-13:32:43.896|56=AMGTOBVC|10=125|
20150519-13:32:50.641: 8=FIX.4.4|9=63|35=0|34=138|49=AMGTOBVC|56=ADRARBXBOG|52=20150519-13:32:50.620|10=108|
20150519-13:33:43.896: 8=FIX.4.4|9=63|35=0|34=139|49=ADRARBXBOG|52=20150519-13:33:43.896|56=AMGTOBVC|10=127|
20150519-13:33:50.949: 8=FIX.4.4|9=63|35=0|34=139|49=AMGTOBVC|56=ADRARBXBOG|52=20150519-13:33:50.929|10=122|
20150519-13:34:44.895: 8=FIX.4.4|9=63|35=0|34=140|49=ADRARBXBOG|52=20150519-13:34:44.895|56=AMGTOBVC|10=120|
20150519-13:34:51.244: 8=FIX.4.4|9=63|35=0|34=140|49=AMGTOBVC|56=ADRARBXBOG|52=20150519-13:34:51.224|10=104|
20150519-13:35:44.896: 8=FIX.4.4|9=63|35=0|34=141|49=ADRARBXBOG|52=20150519-13:35:44.896|56=AMGTOBVC|10=123|
20150519-13:35:51.569: 8=FIX.4.4|9=63|35=0|34=141|49=AMGTOBVC|56=ADRARBXBOG|52=20150519-13:35:51.550|10=108|
20150519-13:36:44.896: 8=FIX.4.4|9=63|35=0|34=142|49=ADRARBXBOG|52=20150519-13:36:44.896|56=AMGTOBVC|10=125|
20150519-13:36:51.906: 8=FIX.4.4|9=63|35=0|34=142|49=AMGTOBVC|56=ADRARBXBOG|52=20150519-13:36:51.892|10=119|
20150519-13:37:44.896: 8=FIX.4.4|9=63|35=0|34=143|49=ADRARBXBOG|52=20150519-13:37:44.896|56=AMGTOBVC|10=127|
20150519-13:37:52.218: 8=FIX.4.4|9=63|35=0|34=143|49=AMGTOBVC|56=ADRARBXBOG|52=20150519-13:37:52.203|10=108|
20150519-13:38:44.896: 8=FIX.4.4|9=63|35=0|34=144|49=ADRARBXBOG|52=20150519-13:38:44.896|56=AMGTOBVC|10=129|
20150519-13:38:52.540: 8=FIX.4.4|9=63|35=0|34=144|49=AMGTOBVC|56=ADRARBXBOG|52=20150519-13:38:52.529|10=121|
20150519-13:39:45.896: 8=FIX.4.4|9=63|35=0|34=145|49=ADRARBXBOG|52=20150519-13:39:45.896|56=AMGTOBVC|10=132|
20150519-13:39:52.914: 8=FIX.4.4|9=63|35=0|34=145|49=AMGTOBVC|56=ADRARBXBOG|52=20150519-13:39:52.901|10=117|
20150519-13:40:45.896: 8=FIX.4.4|9=63|35=0|34=146|49=ADRARBXBOG|52=20150519-13:40:45.896|56=AMGTOBVC|10=125|
20150519-13:40:53.207: 8=FIX.4.4|9=63|35=0|34=146|49=AMGTOBVC|56=ADRARBXBOG|52=20150519-13:40:53.194|10=115|
20150519-13:41:46.896: 8=FIX.4.4|9=63|35=0|34=147|49=ADRARBXBOG|52=20150519-13:41:46.896|56=AMGTOBVC|10=128|
20150519-13:41:53.565: 8=FIX.4.4|9=63|35=0|34=147|49=AMGTOBVC|56=ADRARBXBOG|52=20150519-13:41:53.550|10=113|
20150519-13:42:47.895: 8=FIX.4.4|9=63|35=0|34=148|49=ADRARBXBOG|52=20150519-13:42:47.895|56=AMGTOBVC|10=130|
20150519-13:42:53.901: 8=FIX.4.4|9=63|35=0|34=148|49=AMGTOBVC|56=ADRARBXBOG|52=20150519-13:42:53.891|10=123|
20150519-13:43:47.896: 8=FIX.4.4|9=63|35=0|34=149|49=ADRARBXBOG|52=20150519-13:43:47.896|56=AMGTOBVC|10=133|
20150519-13:43:54.294: 8=FIX.4.4|9=63|35=0|34=149|49=AMGTOBVC|56=ADRARBXBOG|52=20150519-13:43:54.278|10=125|
20150519-13:44:47.896: 8=FIX.4.4|9=63|35=0|34=150|49=ADRARBXBOG|52=20150519-13:44:47.896|56=AMGTOBVC|10=126|
20150519-13:44:54.598: 8=FIX.4.4|9=63|35=0|34=150|49=AMGTOBVC|56=ADRARBXBOG|52=20150519-13:44:54.587|10=121|
20150519-13:45:48.895: 8=FIX.4.4|9=63|35=0|34=151|49=ADRARBXBOG|52=20150519-13:45:48.895|56=AMGTOBVC|10=128|
20150519-13:45:54.955: 8=FIX.4.4|9=63|35=0|34=151|49=AMGTOBVC|56=ADRARBXBOG|52=20150519-13:45:54.942|10=118|
20150519-13:46:41.293: 8=FIX.4.4|9=237|35=D|34=152|49=ADRARBXBOG|52=20150519-13:46:41.293|56=AMGTOBVC|1=881|11=7918b930dea54413|21=1|38=40000|40=2|44=1895|54=1|55=ECOPETROL|59=0|60=20150519-13:46:41.293|63=3|100=XBOG|207=XBOG|583=-43a2d7493a5cbb47|453=1|448=LVARB|447=D|452=1|10=227|
20150519-13:46:41.477: 8=FIX.4.4|9=331|35=8|57=062X01|128=LRVORBVC|115=BVC062|34=152|49=AMGTOBVC|56=ADRARBXBOG|52=20150519-13:46:41.461|37=201505191056|11=7918b930dea54413|17=10117|150=0|39=0|63=4|48=ECOPETROL|22=99|167=CS|54=1|38=40000|40=2|44=1895|59=0|151=40000|14=0|60=20150519-13:46:41.000|31=0|32=0|6=0|55=ECOPETROL|453=1|448=062|447=D|452=1|583=-43a2d7493a5cbb47|10=210|
20150519-13:46:49.575: 8=FIX.4.4|9=236|35=D|34=153|49=ADRARBXBOG|52=20150519-13:46:49.575|56=AMGTOBVC|1=881|11=26400e16dd574f86|21=1|38=4000|40=2|44=27560|54=1|55=PFBCOLOM|59=0|60=20150519-13:46:49.575|63=3|100=XBOG|207=XBOG|583=-6a58cd62c234b255|453=1|448=LVARB|447=D|452=1|10=109|
20150519-13:46:49.704: 8=FIX.4.4|9=328|35=8|57=062X01|128=LRVORBVC|115=BVC062|34=153|49=AMGTOBVC|56=ADRARBXBOG|52=20150519-13:46:49.682|37=201505191063|11=26400e16dd574f86|17=10190|150=0|39=0|63=4|48=PFBCOLOM|22=99|167=CS|54=1|38=4000|40=2|44=27560|59=0|151=4000|14=0|60=20150519-13:46:49.000|31=0|32=0|6=0|55=PFBCOLOM|453=1|448=062|447=D|452=1|583=-6a58cd62c234b255|10=214|
20150519-13:46:51.239: 8=FIX.4.4|9=233|35=D|34=154|49=ADRARBXBOG|52=20150519-13:46:51.239|56=AMGTOBVC|1=881|11=-4b973f7980fb0d2|21=1|38=12000|40=2|44=3250|54=1|55=PFAVH|59=0|60=20150519-13:46:51.239|63=3|100=XBOG|207=XBOG|583=-24ffb48c7f94b27f|453=1|448=LVARB|447=D|452=1|10=014|
20150519-13:46:51.363: 8=FIX.4.4|9=323|35=8|57=062X01|128=LRVORBVC|115=BVC062|34=154|49=AMGTOBVC|56=ADRARBXBOG|52=20150519-13:46:51.335|37=201505191066|11=-4b973f7980fb0d2|17=10205|150=0|39=0|63=4|48=PFAVH|22=99|167=CS|54=1|38=12000|40=2|44=3250|59=0|151=12000|14=0|60=20150519-13:46:51.000|31=0|32=0|6=0|55=PFAVH|453=1|448=062|447=D|452=1|583=-24ffb48c7f94b27f|10=200|
20150519-13:46:59.571: 8=FIX.4.4|9=253|35=G|34=155|49=ADRARBXBOG|52=20150519-13:46:59.571|56=AMGTOBVC|1=881|11=45c305b68ec94e24|21=1|38=12000|40=2|41=-4b973f7980fb0d2|44=3245|54=1|55=PFAVH|59=0|60=20150519-13:46:59.570|63=3|100=XBOG|207=XBOG|583=-24ffb48c7f94b27f|453=1|448=LVARB|447=D|452=1|10=252|
20150519-13:46:59.683: 8=FIX.4.4|9=343|35=8|57=062X01|128=LRVORBVC|115=BVC062|34=155|49=AMGTOBVC|56=ADRARBXBOG|52=20150519-13:46:59.666|37=201505191066|11=45c305b68ec94e24|41=-4b973f7980fb0d2|17=10258|150=5|39=0|63=4|48=PFAVH|22=99|167=CS|54=1|38=12000|40=2|44=3245|59=0|151=12000|14=0|60=20150519-13:46:59.000|31=0|32=0|6=0|55=PFAVH|453=1|448=062|447=D|452=1|583=-24ffb48c7f94b27f|10=202|
20150519-13:47:35.200: 8=FIX.4.4|9=257|35=G|34=156|49=ADRARBXBOG|52=20150519-13:47:35.200|56=AMGTOBVC|1=881|11=-4ebe752f941fb536|21=1|38=4000|40=2|41=26400e16dd574f86|44=27600|54=1|55=PFBCOLOM|59=0|60=20150519-13:47:35.200|63=3|100=XBOG|207=XBOG|583=-6a58cd62c234b255|453=1|448=LVARB|447=D|452=1|10=131|
20150519-13:47:35.310: 8=FIX.4.4|9=349|35=8|57=062X01|128=LRVORBVC|115=BVC062|34=156|49=AMGTOBVC|56=ADRARBXBOG|52=20150519-13:47:35.296|37=201505191063|11=-4ebe752f941fb536|41=26400e16dd574f86|17=10398|150=5|39=0|63=4|48=PFBCOLOM|22=99|167=CS|54=1|38=4000|40=2|44=27600|59=0|151=4000|14=0|60=20150519-13:47:35.000|31=0|32=0|6=0|55=PFBCOLOM|453=1|448=062|447=D|452=1|583=-6a58cd62c234b255|10=023|
20150519-13:48:19.658: 8=FIX.4.4|9=254|35=G|34=157|49=ADRARBXBOG|52=20150519-13:48:19.658|56=AMGTOBVC|1=881|11=-4083efc2d48fb855|21=1|38=12000|40=2|41=45c305b68ec94e24|44=3255|54=1|55=PFAVH|59=0|60=20150519-13:48:19.658|63=3|100=XBOG|207=XBOG|583=-24ffb48c7f94b27f|453=1|448=LVARB|447=D|452=1|10=109|
20150519-13:48:19.772: 8=FIX.4.4|9=344|35=8|57=062X01|128=LRVORBVC|115=BVC062|34=157|49=AMGTOBVC|56=ADRARBXBOG|52=20150519-13:48:19.755|37=201505191066|11=-4083efc2d48fb855|41=45c305b68ec94e24|17=10572|150=5|39=0|63=4|48=PFAVH|22=99|167=CS|54=1|38=12000|40=2|44=3255|59=0|151=12000|14=0|60=20150519-13:48:19.000|31=0|32=0|6=0|55=PFAVH|453=1|448=062|447=D|452=1|583=-24ffb48c7f94b27f|10=044|
20150519-13:48:20.541: 8=FIX.4.4|9=255|35=G|34=158|49=ADRARBXBOG|52=20150519-13:48:20.541|56=AMGTOBVC|1=881|11=-2a5b3978250dbd97|21=1|38=12000|40=2|41=-4083efc2d48fb855|44=3260|54=1|55=PFAVH|59=0|60=20150519-13:48:20.541|63=3|100=XBOG|207=XBOG|583=-24ffb48c7f94b27f|453=1|448=LVARB|447=D|452=1|10=120|
20150519-13:48:20.656: 8=FIX.4.4|9=345|35=8|57=062X01|128=LRVORBVC|115=BVC062|34=158|49=AMGTOBVC|56=ADRARBXBOG|52=20150519-13:48:20.644|37=201505191066|11=-2a5b3978250dbd97|41=-4083efc2d48fb855|17=10582|150=5|39=0|63=4|48=PFAVH|22=99|167=CS|54=1|38=12000|40=2|44=3260|59=0|151=12000|14=0|60=20150519-13:48:20.000|31=0|32=0|6=0|55=PFAVH|453=1|448=062|447=D|452=1|583=-24ffb48c7f94b27f|10=071|
20150519-13:48:21.224: 8=FIX.4.4|9=258|35=G|34=159|49=ADRARBXBOG|52=20150519-13:48:21.224|56=AMGTOBVC|1=881|11=-52eaea44d3e5b86a|21=1|38=40000|40=2|41=7918b930dea54413|44=1900|54=1|55=ECOPETROL|59=0|60=20150519-13:48:21.224|63=3|100=XBOG|207=XBOG|583=-43a2d7493a5cbb47|453=1|448=LVARB|447=D|452=1|10=100|
20150519-13:48:21.341: 8=FIX.4.4|9=352|35=8|57=062X01|128=LRVORBVC|115=BVC062|34=159|49=AMGTOBVC|56=ADRARBXBOG|52=20150519-13:48:21.315|37=201505191056|11=-52eaea44d3e5b86a|41=7918b930dea54413|17=10587|150=5|39=0|63=4|48=ECOPETROL|22=99|167=CS|54=1|38=40000|40=2|44=1900|59=0|151=40000|14=0|60=20150519-13:48:21.000|31=0|32=0|6=0|55=ECOPETROL|453=1|448=062|447=D|452=1|583=-43a2d7493a5cbb47|10=106|
20150519-13:48:22.380: 8=FIX.4.4|9=255|35=G|34=160|49=ADRARBXBOG|52=20150519-13:48:22.380|56=AMGTOBVC|1=881|11=-339cb322ec7fbb07|21=1|38=12000|40=2|41=-2a5b3978250dbd97|44=3265|54=1|55=PFAVH|59=0|60=20150519-13:48:22.380|63=3|100=XBOG|207=XBOG|583=-24ffb48c7f94b27f|453=1|448=LVARB|447=D|452=1|10=158|
20150519-13:48:22.491: 8=FIX.4.4|9=345|35=8|57=062X01|128=LRVORBVC|115=BVC062|34=160|49=AMGTOBVC|56=ADRARBXBOG|52=20150519-13:48:22.469|37=201505191066|11=-339cb322ec7fbb07|41=-2a5b3978250dbd97|17=10597|150=5|39=0|63=4|48=PFAVH|22=99|167=CS|54=1|38=12000|40=2|44=3265|59=0|151=12000|14=0|60=20150519-13:48:22.000|31=0|32=0|6=0|55=PFAVH|453=1|448=062|447=D|452=1|583=-24ffb48c7f94b27f|10=118|
20150519-13:49:22.813: 8=FIX.4.4|9=63|35=0|34=161|49=AMGTOBVC|56=ADRARBXBOG|52=20150519-13:49:22.794|10=123|
20150519-13:49:22.813: 8=FIX.4.4|9=63|35=0|34=161|49=ADRARBXBOG|52=20150519-13:49:22.813|56=AMGTOBVC|10=115|
20150519-13:49:31.746: 8=FIX.4.4|9=255|35=G|34=162|49=ADRARBXBOG|52=20150519-13:49:31.745|56=AMGTOBVC|1=881|11=-127a4cb8e23cba7e|21=1|38=12000|40=2|41=-339cb322ec7fbb07|44=3260|54=1|55=PFAVH|59=0|60=20150519-13:49:31.745|63=3|100=XBOG|207=XBOG|583=-24ffb48c7f94b27f|453=1|448=LVARB|447=D|452=1|10=041|
20150519-13:49:31.868: 8=FIX.4.4|9=345|35=8|57=062X01|128=LRVORBVC|115=BVC062|34=162|49=AMGTOBVC|56=ADRARBXBOG|52=20150519-13:49:31.841|37=201505191066|11=-127a4cb8e23cba7e|41=-339cb322ec7fbb07|17=10790|150=5|39=0|63=4|48=PFAVH|22=99|167=CS|54=1|38=12000|40=2|44=3260|59=0|151=12000|14=0|60=20150519-13:49:31.000|31=0|32=0|6=0|55=PFAVH|453=1|448=062|447=D|452=1|583=-24ffb48c7f94b27f|10=236|
20150519-13:49:40.626: 8=FIX.4.4|9=258|35=G|34=163|49=ADRARBXBOG|52=20150519-13:49:40.626|56=AMGTOBVC|1=881|11=-7957409de44bb0b0|21=1|38=4000|40=2|41=-4ebe752f941fb536|44=27580|54=1|55=PFBCOLOM|59=0|60=20150519-13:49:40.625|63=3|100=XBOG|207=XBOG|583=-6a58cd62c234b255|453=1|448=LVARB|447=D|452=1|10=245|
20150519-13:49:40.737: 8=FIX.4.4|9=350|35=8|57=062X01|128=LRVORBVC|115=BVC062|34=163|49=AMGTOBVC|56=ADRARBXBOG|52=20150519-13:49:40.718|37=201505191063|11=-7957409de44bb0b0|41=-4ebe752f941fb536|17=10818|150=5|39=0|63=4|48=PFBCOLOM|22=99|167=CS|54=1|38=4000|40=2|44=27580|59=0|151=4000|14=0|60=20150519-13:49:40.000|31=0|32=0|6=0|55=PFBCOLOM|453=1|448=062|447=D|452=1|583=-6a58cd62c234b255|10=101|
20150519-13:49:42.033: 8=FIX.4.4|9=255|35=G|34=164|49=ADRARBXBOG|52=20150519-13:49:42.033|56=AMGTOBVC|1=881|11=-2149c13d09a3b6f4|21=1|38=12000|40=2|41=-127a4cb8e23cba7e|44=3255|54=1|55=PFAVH|59=0|60=20150519-13:49:42.033|63=3|100=XBOG|207=XBOG|583=-24ffb48c7f94b27f|453=1|448=LVARB|447=D|452=1|10=190|
20150519-13:49:42.147: 8=FIX.4.4|9=345|35=8|57=062X01|128=LRVORBVC|115=BVC062|34=164|49=AMGTOBVC|56=ADRARBXBOG|52=20150519-13:49:42.122|37=201505191066|11=-2149c13d09a3b6f4|41=-127a4cb8e23cba7e|17=10822|150=5|39=0|63=4|48=PFAVH|22=99|167=CS|54=1|38=12000|40=2|44=3255|59=0|151=12000|14=0|60=20150519-13:49:42.000|31=0|32=0|6=0|55=PFAVH|453=1|448=062|447=D|452=1|583=-24ffb48c7f94b27f|10=137|
20150519-13:49:49.022: 8=FIX.4.4|9=254|35=G|34=165|49=ADRARBXBOG|52=20150519-13:49:49.022|56=AMGTOBVC|1=881|11=32edfa6777444a47|21=1|38=12000|40=2|41=-2149c13d09a3b6f4|44=3250|54=1|55=PFAVH|59=0|60=20150519-13:49:49.022|63=3|100=XBOG|207=XBOG|583=-24ffb48c7f94b27f|453=1|448=LVARB|447=D|452=1|10=022|
20150519-13:49:49.143: 8=FIX.4.4|9=344|35=8|57=062X01|128=LRVORBVC|115=BVC062|34=165|49=AMGTOBVC|56=ADRARBXBOG|52=20150519-13:49:49.110|37=201505191066|11=32edfa6777444a47|41=-2149c13d09a3b6f4|17=10860|150=5|39=0|63=4|48=PFAVH|22=99|167=CS|54=1|38=12000|40=2|44=3250|59=0|151=12000|14=0|60=20150519-13:49:49.000|31=0|32=0|6=0|55=PFAVH|453=1|448=062|447=D|452=1|583=-24ffb48c7f94b27f|10=228|
20150519-13:49:49.145: 8=FIX.4.4|9=254|35=G|34=166|49=ADRARBXBOG|52=20150519-13:49:49.145|56=AMGTOBVC|1=881|11=-6ad48d248b59b7dd|21=1|38=12000|40=2|41=32edfa6777444a47|44=3255|54=1|55=PFAVH|59=0|60=20150519-13:49:49.145|63=3|100=XBOG|207=XBOG|583=-24ffb48c7f94b27f|453=1|448=LVARB|447=D|452=1|10=152|
20150519-13:49:49.255: 8=FIX.4.4|9=344|35=8|57=062X01|128=LRVORBVC|115=BVC062|34=166|49=AMGTOBVC|56=ADRARBXBOG|52=20150519-13:49:49.235|37=201505191066|11=-6ad48d248b59b7dd|41=32edfa6777444a47|17=10861|150=5|39=0|63=4|48=PFAVH|22=99|167=CS|54=1|38=12000|40=2|44=3255|59=0|151=12000|14=0|60=20150519-13:49:49.000|31=0|32=0|6=0|55=PFAVH|453=1|448=062|447=D|452=1|583=-24ffb48c7f94b27f|10=099|
20150519-13:49:56.762: 8=FIX.4.4|9=257|35=G|34=167|49=ADRARBXBOG|52=20150519-13:49:56.762|56=AMGTOBVC|1=881|11=14ff5d2fa074437|21=1|38=40000|40=2|41=-52eaea44d3e5b86a|44=1895|54=1|55=ECOPETROL|59=0|60=20150519-13:49:56.762|63=3|100=XBOG|207=XBOG|583=-43a2d7493a5cbb47|453=1|448=LVARB|447=D|452=1|10=137|
20150519-13:49:56.875: 8=FIX.4.4|9=351|35=8|57=062X01|128=LRVORBVC|115=BVC062|34=167|49=AMGTOBVC|56=ADRARBXBOG|52=20150519-13:49:56.863|37=201505191056|11=14ff5d2fa074437|41=-52eaea44d3e5b86a|17=10897|150=5|39=0|63=4|48=ECOPETROL|22=99|167=CS|54=1|38=40000|40=2|44=1895|59=0|151=40000|14=0|60=20150519-13:49:56.000|31=0|32=0|6=0|55=ECOPETROL|453=1|448=062|447=D|452=1|583=-43a2d7493a5cbb47|10=141|
20150519-13:50:36.181: 8=FIX.4.4|9=257|35=G|34=168|49=ADRARBXBOG|52=20150519-13:50:36.180|56=AMGTOBVC|1=881|11=-54b61c2ced7bf0e|21=1|38=4000|40=2|41=-7957409de44bb0b0|44=27620|54=1|55=PFBCOLOM|59=0|60=20150519-13:50:36.180|63=3|100=XBOG|207=XBOG|583=-6a58cd62c234b255|453=1|448=LVARB|447=D|452=1|10=004|
20150519-13:50:36.292: 8=FIX.4.4|9=349|35=8|57=062X01|128=LRVORBVC|115=BVC062|34=168|49=AMGTOBVC|56=ADRARBXBOG|52=20150519-13:50:36.268|37=201505191063|11=-54b61c2ced7bf0e|41=-7957409de44bb0b0|17=11021|150=5|39=0|63=4|48=PFBCOLOM|22=99|167=CS|54=1|38=4000|40=2|44=27620|59=0|151=4000|14=0|60=20150519-13:50:36.000|31=0|32=0|6=0|55=PFBCOLOM|453=1|448=062|447=D|452=1|583=-6a58cd62c234b255|10=121|
20150519-13:50:36.849: 8=FIX.4.4|9=256|35=G|34=169|49=ADRARBXBOG|52=20150519-13:50:36.849|56=AMGTOBVC|1=881|11=758ebc420f2e4f44|21=1|38=4000|40=2|41=-54b61c2ced7bf0e|44=27600|54=1|55=PFBCOLOM|59=0|60=20150519-13:50:36.849|63=3|100=XBOG|207=XBOG|583=-6a58cd62c234b255|453=1|448=LVARB|447=D|452=1|10=032|
20150519-13:50:36.960: 8=FIX.4.4|9=348|35=8|57=062X01|128=LRVORBVC|115=BVC062|34=169|49=AMGTOBVC|56=ADRARBXBOG|52=20150519-13:50:36.939|37=201505191063|11=758ebc420f2e4f44|41=-54b61c2ced7bf0e|17=11031|150=5|39=0|63=4|48=PFBCOLOM|22=99|167=CS|54=1|38=4000|40=2|44=27600|59=0|151=4000|14=0|60=20150519-13:50:36.000|31=0|32=0|6=0|55=PFBCOLOM|453=1|448=062|447=D|452=1|583=-6a58cd62c234b255|10=131|
20150519-13:51:03.385: 8=FIX.4.4|9=254|35=G|34=170|49=ADRARBXBOG|52=20150519-13:51:03.385|56=AMGTOBVC|1=881|11=188a278da1c54dca|21=1|38=12000|40=2|41=-6ad48d248b59b7dd|44=3260|54=1|55=PFAVH|59=0|60=20150519-13:51:03.385|63=3|100=XBOG|207=XBOG|583=-24ffb48c7f94b27f|453=1|448=LVARB|447=D|452=1|10=206|
20150519-13:51:03.498: 8=FIX.4.4|9=344|35=8|57=062X01|128=LRVORBVC|115=BVC062|34=170|49=AMGTOBVC|56=ADRARBXBOG|52=20150519-13:51:03.474|37=201505191066|11=188a278da1c54dca|41=-6ad48d248b59b7dd|17=11179|150=5|39=0|63=4|48=PFAVH|22=99|167=CS|54=1|38=12000|40=2|44=3260|59=0|151=12000|14=0|60=20150519-13:51:03.000|31=0|32=0|6=0|55=PFAVH|453=1|448=062|447=D|452=1|583=-24ffb48c7f94b27f|10=149|
20150519-13:51:15.020: 8=FIX.4.4|9=253|35=G|34=171|49=ADRARBXBOG|52=20150519-13:51:15.020|56=AMGTOBVC|1=881|11=724c94ea21cb4f50|21=1|38=12000|40=2|41=188a278da1c54dca|44=3250|54=1|55=PFAVH|59=0|60=20150519-13:51:15.020|63=3|100=XBOG|207=XBOG|583=-24ffb48c7f94b27f|453=1|448=LVARB|447=D|452=1|10=074|
20150519-13:51:15.131: 8=FIX.4.4|9=343|35=8|57=062X01|128=LRVORBVC|115=BVC062|34=171|49=AMGTOBVC|56=ADRARBXBOG|52=20150519-13:51:15.111|37=201505191066|11=724c94ea21cb4f50|41=188a278da1c54dca|17=11258|150=5|39=0|63=4|48=PFAVH|22=99|167=CS|54=1|38=12000|40=2|44=3250|59=0|151=12000|14=0|60=20150519-13:51:15.000|31=0|32=0|6=0|55=PFAVH|453=1|448=062|447=D|452=1|583=-24ffb48c7f94b27f|10=031|
20150519-13:51:34.649: 8=FIX.4.4|9=254|35=G|34=172|49=ADRARBXBOG|52=20150519-13:51:34.649|56=AMGTOBVC|1=881|11=-3a34e548cb47b689|21=1|38=12000|40=2|41=724c94ea21cb4f50|44=3255|54=1|55=PFAVH|59=0|60=20150519-13:51:34.649|63=3|100=XBOG|207=XBOG|583=-24ffb48c7f94b27f|453=1|448=LVARB|447=D|452=1|10=079|
20150519-13:51:34.761: 8=FIX.4.4|9=344|35=8|57=062X01|128=LRVORBVC|115=BVC062|34=172|49=AMGTOBVC|56=ADRARBXBOG|52=20150519-13:51:34.736|37=201505191066|11=-3a34e548cb47b689|41=724c94ea21cb4f50|17=11324|150=5|39=0|63=4|48=PFAVH|22=99|167=CS|54=1|38=12000|40=2|44=3255|59=0|151=12000|14=0|60=20150519-13:51:34.000|31=0|32=0|6=0|55=PFAVH|453=1|448=062|447=D|452=1|583=-24ffb48c7f94b27f|10=009|
20150519-13:51:43.740: 8=FIX.4.4|9=252|35=G|34=173|49=ADRARBXBOG|52=20150519-13:51:43.740|56=AMGTOBVC|1=881|11=-761006e09b717|21=1|38=12000|40=2|41=-3a34e548cb47b689|44=3250|54=1|55=PFAVH|59=0|60=20150519-13:51:43.739|63=3|100=XBOG|207=XBOG|583=-24ffb48c7f94b27f|453=1|448=LVARB|447=D|452=1|10=023|
20150519-13:51:43.852: 8=FIX.4.4|9=342|35=8|57=062X01|128=LRVORBVC|115=BVC062|34=173|49=AMGTOBVC|56=ADRARBXBOG|52=20150519-13:51:43.830|37=201505191066|11=-761006e09b717|41=-3a34e548cb47b689|17=11351|150=5|39=0|63=4|48=PFAVH|22=99|167=CS|54=1|38=12000|40=2|44=3250|59=0|151=12000|14=0|60=20150519-13:51:43.000|31=0|32=0|6=0|55=PFAVH|453=1|448=062|447=D|452=1|583=-24ffb48c7f94b27f|10=212|
20150519-13:52:34.359: 8=FIX.4.4|9=256|35=G|34=174|49=ADRARBXBOG|52=20150519-13:52:34.359|56=AMGTOBVC|1=881|11=10656deb185949a3|21=1|38=4000|40=2|41=758ebc420f2e4f44|44=27620|54=1|55=PFBCOLOM|59=0|60=20150519-13:52:34.359|63=3|100=XBOG|207=XBOG|583=-6a58cd62c234b255|453=1|448=LVARB|447=D|452=1|10=103|
20150519-13:52:34.471: 8=FIX.4.4|9=348|35=8|57=062X01|128=LRVORBVC|115=BVC062|34=174|49=AMGTOBVC|56=ADRARBXBOG|52=20150519-13:52:34.452|37=201505191063|11=10656deb185949a3|41=758ebc420f2e4f44|17=11535|150=5|39=0|63=4|48=PFBCOLOM|22=99|167=CS|54=1|38=4000|40=2|44=27620|59=0|151=4000|14=0|60=20150519-13:52:34.000|31=0|32=0|6=0|55=PFBCOLOM|453=1|448=062|447=D|452=1|583=-6a58cd62c234b255|10=209|
20150519-13:52:48.376: 8=FIX.4.4|9=251|35=G|34=175|49=ADRARBXBOG|52=20150519-13:52:48.376|56=AMGTOBVC|1=881|11=442a4213ef5641b3|21=1|38=12000|40=2|41=-761006e09b717|44=3255|54=1|55=PFAVH|59=0|60=20150519-13:52:48.376|63=3|100=XBOG|207=XBOG|583=-24ffb48c7f94b27f|453=1|448=LVARB|447=D|452=1|10=185|
20150519-13:52:48.489: 8=FIX.4.4|9=341|35=8|57=062X01|128=LRVORBVC|115=BVC062|34=175|49=AMGTOBVC|56=ADRARBXBOG|52=20150519-13:52:48.476|37=201505191066|11=442a4213ef5641b3|41=-761006e09b717|17=11582|150=5|39=0|63=4|48=PFAVH|22=99|167=CS|54=1|38=12000|40=2|44=3255|59=0|151=12000|14=0|60=20150519-13:52:48.000|31=0|32=0|6=0|55=PFAVH|453=1|448=062|447=D|452=1|583=-24ffb48c7f94b27f|10=128|
20150519-13:52:52.488: 8=FIX.4.4|9=253|35=G|34=176|49=ADRARBXBOG|52=20150519-13:52:52.488|56=AMGTOBVC|1=881|11=20bfae09cb63492a|21=1|38=12000|40=2|41=442a4213ef5641b3|44=3260|54=1|55=PFAVH|59=0|60=20150519-13:52:52.488|63=3|100=XBOG|207=XBOG|583=-24ffb48c7f94b27f|453=1|448=LVARB|447=D|452=1|10=013|
20150519-13:52:52.599: 8=FIX.4.4|9=343|35=8|57=062X01|128=LRVORBVC|115=BVC062|34=176|49=AMGTOBVC|56=ADRARBXBOG|52=20150519-13:52:52.578|37=201505191066|11=20bfae09cb63492a|41=442a4213ef5641b3|17=11603|150=5|39=0|63=4|48=PFAVH|22=99|167=CS|54=1|38=12000|40=2|44=3260|59=0|151=12000|14=0|60=20150519-13:52:52.000|31=0|32=0|6=0|55=PFAVH|453=1|448=062|447=D|452=1|583=-24ffb48c7f94b27f|10=201|
20150519-13:52:58.023: 8=FIX.4.4|9=254|35=G|34=177|49=ADRARBXBOG|52=20150519-13:52:58.022|56=AMGTOBVC|1=881|11=-79725e8d9aadb042|21=1|38=12000|40=2|41=20bfae09cb63492a|44=3255|54=1|55=PFAVH|59=0|60=20150519-13:52:58.022|63=3|100=XBOG|207=XBOG|583=-24ffb48c7f94b27f|453=1|448=LVARB|447=D|452=1|10=157|
20150519-13:52:58.139: 8=FIX.4.4|9=344|35=8|57=062X01|128=LRVORBVC|115=BVC062|34=177|49=AMGTOBVC|56=ADRARBXBOG|52=20150519-13:52:58.116|37=201505191066|11=-79725e8d9aadb042|41=20bfae09cb63492a|17=11616|150=5|39=0|63=4|48=PFAVH|22=99|167=CS|54=1|38=12000|40=2|44=3255|59=0|151=12000|14=0|60=20150519-13:52:58.000|31=0|32=0|6=0|55=PFAVH|453=1|448=062|447=D|452=1|583=-24ffb48c7f94b27f|10=113|
20150519-13:53:13.900: 8=FIX.4.4|9=254|35=G|34=178|49=ADRARBXBOG|52=20150519-13:53:13.900|56=AMGTOBVC|1=881|11=6c546569373e4fed|21=1|38=12000|40=2|41=-79725e8d9aadb042|44=3260|54=1|55=PFAVH|59=0|60=20150519-13:53:13.900|63=3|100=XBOG|207=XBOG|583=-24ffb48c7f94b27f|453=1|448=LVARB|447=D|452=1|10=078|
20150519-13:53:14.015: 8=FIX.4.4|9=344|35=8|57=062X01|128=LRVORBVC|115=BVC062|34=178|49=AMGTOBVC|56=ADRARBXBOG|52=20150519-13:53:13.997|37=201505191066|11=6c546569373e4fed|41=-79725e8d9aadb042|17=11666|150=5|39=0|63=4|48=PFAVH|22=99|167=CS|54=1|38=12000|40=2|44=3260|59=0|151=12000|14=0|60=20150519-13:53:13.000|31=0|32=0|6=0|55=PFAVH|453=1|448=062|447=D|452=1|583=-24ffb48c7f94b27f|10=046|
20150519-13:53:14.017: 8=FIX.4.4|9=254|35=G|34=179|49=ADRARBXBOG|52=20150519-13:53:14.017|56=AMGTOBVC|1=881|11=-5fa7fec63d12b4ba|21=1|38=12000|40=2|41=6c546569373e4fed|44=3265|54=1|55=PFAVH|59=0|60=20150519-13:53:14.017|63=3|100=XBOG|207=XBOG|583=-24ffb48c7f94b27f|453=1|448=LVARB|447=D|452=1|10=216|
20150519-13:53:14.134: 8=FIX.4.4|9=344|35=8|57=062X01|128=LRVORBVC|115=BVC062|34=179|49=AMGTOBVC|56=ADRARBXBOG|52=20150519-13:53:14.106|37=201505191066|11=-5fa7fec63d12b4ba|41=6c546569373e4fed|17=11667|150=5|39=0|63=4|48=PFAVH|22=99|167=CS|54=1|38=12000|40=2|44=3265|59=0|151=12000|14=0|60=20150519-13:53:14.000|31=0|32=0|6=0|55=PFAVH|453=1|448=062|447=D|452=1|583=-24ffb48c7f94b27f|10=169|
20150519-13:54:14.506: 8=FIX.4.4|9=63|35=0|34=180|49=AMGTOBVC|56=ADRARBXBOG|52=20150519-13:54:14.492|10=116|
20150519-13:54:14.507: 8=FIX.4.4|9=63|35=0|34=180|49=ADRARBXBOG|52=20150519-13:54:14.507|56=AMGTOBVC|10=113|
20150519-13:54:19.949: 8=FIX.4.4|9=257|35=G|34=181|49=ADRARBXBOG|52=20150519-13:54:19.949|56=AMGTOBVC|1=881|11=-3723a5a4d8e9ba42|21=1|38=4000|40=2|41=10656deb185949a3|44=27600|54=1|55=PFBCOLOM|59=0|60=20150519-13:54:19.949|63=3|100=XBOG|207=XBOG|583=-6a58cd62c234b255|453=1|448=LVARB|447=D|452=1|10=159|
20150519-13:54:20.059: 8=FIX.4.4|9=349|35=8|57=062X01|128=LRVORBVC|115=BVC062|34=181|49=AMGTOBVC|56=ADRARBXBOG|52=20150519-13:54:20.046|37=201505191063|11=-3723a5a4d8e9ba42|41=10656deb185949a3|17=11907|150=5|39=0|63=4|48=PFBCOLOM|22=99|167=CS|54=1|38=4000|40=2|44=27600|59=0|151=4000|14=0|60=20150519-13:54:20.000|31=0|32=0|6=0|55=PFBCOLOM|453=1|448=062|447=D|452=1|583=-6a58cd62c234b255|10=241|
20150519-13:54:22.155: 8=FIX.4.4|9=255|35=G|34=182|49=ADRARBXBOG|52=20150519-13:54:22.154|56=AMGTOBVC|1=881|11=-659b6d6a834fb40c|21=1|38=12000|40=2|41=-5fa7fec63d12b4ba|44=3270|54=1|55=PFAVH|59=0|60=20150519-13:54:22.154|63=3|100=XBOG|207=XBOG|583=-24ffb48c7f94b27f|453=1|448=LVARB|447=D|452=1|10=036|
20150519-13:54:22.267: 8=FIX.4.4|9=345|35=8|57=062X01|128=LRVORBVC|115=BVC062|34=182|49=AMGTOBVC|56=ADRARBXBOG|52=20150519-13:54:22.245|37=201505191066|11=-659b6d6a834fb40c|41=-5fa7fec63d12b4ba|17=11937|150=5|39=0|63=4|48=PFAVH|22=99|167=CS|54=1|38=12000|40=2|44=3270|59=0|151=12000|14=0|60=20150519-13:54:22.000|31=0|32=0|6=0|55=PFAVH|453=1|448=062|447=D|452=1|583=-24ffb48c7f94b27f|10=245|
20150519-13:54:22.296: 8=FIX.4.4|9=254|35=G|34=183|49=ADRARBXBOG|52=20150519-13:54:22.296|56=AMGTOBVC|1=881|11=17c88f83033343e9|21=1|38=12000|40=2|41=-659b6d6a834fb40c|44=3275|54=1|55=PFAVH|59=0|60=20150519-13:54:22.296|63=3|100=XBOG|207=XBOG|583=-24ffb48c7f94b27f|453=1|448=LVARB|447=D|452=1|10=250|
20150519-13:54:22.407: 8=FIX.4.4|9=344|35=8|57=062X01|128=LRVORBVC|115=BVC062|34=183|49=AMGTOBVC|56=ADRARBXBOG|52=20150519-13:54:22.386|37=201505191066|11=17c88f83033343e9|41=-659b6d6a834fb40c|17=11938|150=5|39=0|63=4|48=PFAVH|22=99|167=CS|54=1|38=12000|40=2|44=3275|59=0|151=12000|14=0|60=20150519-13:54:22.000|31=0|32=0|6=0|55=PFAVH|453=1|448=062|447=D|452=1|583=-24ffb48c7f94b27f|10=196|
20150519-13:54:22.470: 8=FIX.4.4|9=254|35=G|34=184|49=ADRARBXBOG|52=20150519-13:54:22.469|56=AMGTOBVC|1=881|11=-381ddb7e90b9b63d|21=1|38=12000|40=2|41=17c88f83033343e9|44=3280|54=1|55=PFAVH|59=0|60=20150519-13:54:22.469|63=3|100=XBOG|207=XBOG|583=-24ffb48c7f94b27f|453=1|448=LVARB|447=D|452=1|10=043|
20150519-13:54:22.580: 8=FIX.4.4|9=344|35=8|57=062X01|128=LRVORBVC|115=BVC062|34=184|49=AMGTOBVC|56=ADRARBXBOG|52=20150519-13:54:22.557|37=201505191066|11=-381ddb7e90b9b63d|41=17c88f83033343e9|17=11941|150=5|39=0|63=4|48=PFAVH|22=99|167=CS|54=1|38=12000|40=2|44=3280|59=0|151=12000|14=0|60=20150519-13:54:22.000|31=0|32=0|6=0|55=PFAVH|453=1|448=062|447=D|452=1|583=-24ffb48c7f94b27f|10=235|
20150519-13:54:24.299: 8=FIX.4.4|9=255|35=G|34=185|49=ADRARBXBOG|52=20150519-13:54:24.299|56=AMGTOBVC|1=881|11=-607ff1883d08b9d4|21=1|38=12000|40=2|41=-381ddb7e90b9b63d|44=3285|54=1|55=PFAVH|59=0|60=20150519-13:54:24.299|63=3|100=XBOG|207=XBOG|583=-24ffb48c7f94b27f|453=1|448=LVARB|447=D|452=1|10=199|
20150519-13:54:24.413: 8=FIX.4.4|9=345|35=8|57=062X01|128=LRVORBVC|115=BVC062|34=185|49=AMGTOBVC|56=ADRARBXBOG|52=20150519-13:54:24.398|37=201505191066|11=-607ff1883d08b9d4|41=-381ddb7e90b9b63d|17=11961|150=5|39=0|63=4|48=PFAVH|22=99|167=CS|54=1|38=12000|40=2|44=3285|59=0|151=12000|14=0|60=20150519-13:54:24.000|31=0|32=0|6=0|55=PFAVH|453=1|448=062|447=D|452=1|583=-24ffb48c7f94b27f|10=138|
20150519-13:54:24.415: 8=FIX.4.4|9=254|35=G|34=186|49=ADRARBXBOG|52=20150519-13:54:24.415|56=AMGTOBVC|1=881|11=4398080892e44f81|21=1|38=12000|40=2|41=-607ff1883d08b9d4|44=3290|54=1|55=PFAVH|59=0|60=20150519-13:54:24.415|63=3|100=XBOG|207=XBOG|583=-24ffb48c7f94b27f|453=1|448=LVARB|447=D|452=1|10=156|
20150519-13:54:24.528: 8=FIX.4.4|9=344|35=8|57=062X01|128=LRVORBVC|115=BVC062|34=186|49=AMGTOBVC|56=ADRARBXBOG|52=20150519-13:54:24.507|37=201505191066|11=4398080892e44f81|41=-607ff1883d08b9d4|17=11963|150=5|39=0|63=4|48=PFAVH|22=99|167=CS|54=1|38=12000|40=2|44=3290|59=0|151=12000|14=0|60=20150519-13:54:24.000|31=0|32=0|6=0|55=PFAVH|453=1|448=062|447=D|452=1|583=-24ffb48c7f94b27f|10=109|
20150519-13:55:22.282: 8=FIX.4.4|9=258|35=G|34=187|49=ADRARBXBOG|52=20150519-13:55:22.282|56=AMGTOBVC|1=881|11=-4aa73993ab2ab60b|21=1|38=4000|40=2|41=-3723a5a4d8e9ba42|44=27640|54=1|55=PFBCOLOM|59=0|60=20150519-13:55:22.282|63=3|100=XBOG|207=XBOG|583=-6a58cd62c234b255|453=1|448=LVARB|447=D|452=1|10=057|
20150519-13:55:22.400: 8=FIX.4.4|9=350|35=8|57=062X01|128=LRVORBVC|115=BVC062|34=187|49=AMGTOBVC|56=ADRARBXBOG|52=20150519-13:55:22.382|37=201505191063|11=-4aa73993ab2ab60b|41=-3723a5a4d8e9ba42|17=12335|150=5|39=0|63=4|48=PFBCOLOM|22=99|167=CS|54=1|38=4000|40=2|44=27640|59=0|151=4000|14=0|60=20150519-13:55:22.000|31=0|32=0|6=0|55=PFBCOLOM|453=1|448=062|447=D|452=1|583=-6a58cd62c234b255|10=165|
20150519-13:55:23.331: 8=FIX.4.4|9=257|35=G|34=188|49=ADRARBXBOG|52=20150519-13:55:23.331|56=AMGTOBVC|1=881|11=4167220158634997|21=1|38=4000|40=2|41=-4aa73993ab2ab60b|44=27620|54=1|55=PFBCOLOM|59=0|60=20150519-13:55:23.331|63=3|100=XBOG|207=XBOG|583=-6a58cd62c234b255|453=1|448=LVARB|447=D|452=1|10=239|
20150519-13:55:23.447: 8=FIX.4.4|9=349|35=8|57=062X01|128=LRVORBVC|115=BVC062|34=188|49=AMGTOBVC|56=ADRARBXBOG|52=20150519-13:55:23.427|37=201505191063|11=4167220158634997|41=-4aa73993ab2ab60b|17=12353|150=5|39=0|63=4|48=PFBCOLOM|22=99|167=CS|54=1|38=4000|40=2|44=27620|59=0|151=4000|14=0|60=20150519-13:55:23.000|31=0|32=0|6=0|55=PFBCOLOM|453=1|448=062|447=D|452=1|583=-6a58cd62c234b255|10=110|
20150519-13:55:29.518: 8=FIX.4.4|9=253|35=G|34=189|49=ADRARBXBOG|52=20150519-13:55:29.518|56=AMGTOBVC|1=881|11=4e1c9c87dcc2417e|21=1|38=12000|40=2|41=4398080892e44f81|44=3295|54=1|55=PFAVH|59=0|60=20150519-13:55:29.518|63=3|100=XBOG|207=XBOG|583=-24ffb48c7f94b27f|453=1|448=LVARB|447=D|452=1|10=227|
20150519-13:55:29.639: 8=FIX.4.4|9=343|35=8|57=062X01|128=LRVORBVC|115=BVC062|34=189|49=AMGTOBVC|56=ADRARBXBOG|52=20150519-13:55:29.605|37=201505191066|11=4e1c9c87dcc2417e|41=4398080892e44f81|17=12413|150=5|39=0|63=4|48=PFAVH|22=99|167=CS|54=1|38=12000|40=2|44=3295|59=0|151=12000|14=0|60=20150519-13:55:29.000|31=0|32=0|6=0|55=PFAVH|453=1|448=062|447=D|452=1|583=-24ffb48c7f94b27f|10=162|
20150519-13:55:33.125: 8=FIX.4.4|9=257|35=G|34=190|49=ADRARBXBOG|52=20150519-13:55:33.125|56=AMGTOBVC|1=881|11=-5a5215fe45bab590|21=1|38=40000|40=2|41=14ff5d2fa074437|44=1900|54=1|55=ECOPETROL|59=0|60=20150519-13:55:33.125|63=3|100=XBOG|207=XBOG|583=-43a2d7493a5cbb47|453=1|448=LVARB|447=D|452=1|10=247|
20150519-13:55:33.244: 8=FIX.4.4|9=351|35=8|57=062X01|128=LRVORBVC|115=BVC062|34=190|49=AMGTOBVC|56=ADRARBXBOG|52=20150519-13:55:33.208|37=201505191056|11=-5a5215fe45bab590|41=14ff5d2fa074437|17=12427|150=5|39=0|63=4|48=ECOPETROL|22=99|167=CS|54=1|38=40000|40=2|44=1900|59=0|151=40000|14=0|60=20150519-13:55:33.000|31=0|32=0|6=0|55=ECOPETROL|453=1|448=062|447=D|452=1|583=-43a2d7493a5cbb47|10=249|
20150519-13:55:42.830: 8=FIX.4.4|9=254|35=G|34=191|49=ADRARBXBOG|52=20150519-13:55:42.830|56=AMGTOBVC|1=881|11=-13e5959d2c13b1fb|21=1|38=12000|40=2|41=4e1c9c87dcc2417e|44=3310|54=1|55=PFAVH|59=0|60=20150519-13:55:42.830|63=3|100=XBOG|207=XBOG|583=-24ffb48c7f94b27f|453=1|448=LVARB|447=D|452=1|10=156|
20150519-13:55:42.944: 8=FIX.4.4|9=344|35=8|57=062X01|128=LRVORBVC|115=BVC062|34=191|49=AMGTOBVC|56=ADRARBXBOG|52=20150519-13:55:42.927|37=201505191066|11=-13e5959d2c13b1fb|41=4e1c9c87dcc2417e|17=12466|150=5|39=0|63=4|48=PFAVH|22=99|167=CS|54=1|38=12000|40=2|44=3310|59=0|151=12000|14=0|60=20150519-13:55:42.000|31=0|32=0|6=0|55=PFAVH|453=1|448=062|447=D|452=1|583=-24ffb48c7f94b27f|10=112|
20150519-13:55:44.096: 8=FIX.4.4|9=254|35=G|34=192|49=ADRARBXBOG|52=20150519-13:55:44.096|56=AMGTOBVC|1=881|11=11b199501ec0498a|21=1|38=12000|40=2|41=-13e5959d2c13b1fb|44=3300|54=1|55=PFAVH|59=0|60=20150519-13:55:44.096|63=3|100=XBOG|207=XBOG|583=-24ffb48c7f94b27f|453=1|448=LVARB|447=D|452=1|10=014|
20150519-13:55:44.209: 8=FIX.4.4|9=344|35=8|57=062X01|128=LRVORBVC|115=BVC062|34=192|49=AMGTOBVC|56=ADRARBXBOG|52=20150519-13:55:44.191|37=201505191066|11=11b199501ec0498a|41=-13e5959d2c13b1fb|17=12476|150=5|39=0|63=4|48=PFAVH|22=99|167=CS|54=1|38=12000|40=2|44=3300|59=0|151=12000|14=0|60=20150519-13:55:44.000|31=0|32=0|6=0|55=PFAVH|453=1|448=062|447=D|452=1|583=-24ffb48c7f94b27f|10=212|
20150519-13:55:44.240: 8=FIX.4.4|9=253|35=G|34=193|49=ADRARBXBOG|52=20150519-13:55:44.239|56=AMGTOBVC|1=881|11=-8c12246f6e0b4cc|21=1|38=12000|40=2|41=11b199501ec0498a|44=3295|54=1|55=PFAVH|59=0|60=20150519-13:55:44.239|63=3|100=XBOG|207=XBOG|583=-24ffb48c7f94b27f|453=1|448=LVARB|447=D|452=1|10=227|
20150519-13:55:44.352: 8=FIX.4.4|9=343|35=8|57=062X01|128=LRVORBVC|115=BVC062|34=193|49=AMGTOBVC|56=ADRARBXBOG|52=20150519-13:55:44.331|37=201505191066|11=-8c12246f6e0b4cc|41=11b199501ec0498a|17=12477|150=5|39=0|63=4|48=PFAVH|22=99|167=CS|54=1|38=12000|40=2|44=3295|59=0|151=12000|14=0|60=20150519-13:55:44.000|31=0|32=0|6=0|55=PFAVH|453=1|448=062|447=D|452=1|583=-24ffb48c7f94b27f|10=168|
20150519-13:56:01.861: 8=FIX.4.4|9=254|35=G|34=194|49=ADRARBXBOG|52=20150519-13:56:01.861|56=AMGTOBVC|1=881|11=-2faac40b0e4ab87e|21=1|38=12000|40=2|41=-8c12246f6e0b4cc|44=3300|54=1|55=PFAVH|59=0|60=20150519-13:56:01.861|63=3|100=XBOG|207=XBOG|583=-24ffb48c7f94b27f|453=1|448=LVARB|447=D|452=1|10=227|
20150519-13:56:01.974: 8=FIX.4.4|9=344|35=8|57=062X01|128=LRVORBVC|115=BVC062|34=194|49=AMGTOBVC|56=ADRARBXBOG|52=20150519-13:56:01.959|37=201505191066|11=-2faac40b0e4ab87e|41=-8c12246f6e0b4cc|17=12568|150=5|39=0|63=4|48=PFAVH|22=99|167=CS|54=1|38=12000|40=2|44=3300|59=0|151=12000|14=0|60=20150519-13:56:01.000|31=0|32=0|6=0|55=PFAVH|453=1|448=062|447=D|452=1|583=-24ffb48c7f94b27f|10=183|
20150519-13:56:32.954: 8=FIX.4.4|9=257|35=G|34=195|49=ADRARBXBOG|52=20150519-13:56:32.954|56=AMGTOBVC|1=881|11=-4dbe0377035bb18a|21=1|38=4000|40=2|41=4167220158634997|44=27660|54=1|55=PFBCOLOM|59=0|60=20150519-13:56:32.954|63=3|100=XBOG|207=XBOG|583=-6a58cd62c234b255|453=1|448=LVARB|447=D|452=1|10=218|
20150519-13:56:33.084: 8=FIX.4.4|9=349|35=8|57=062X01|128=LRVORBVC|115=BVC062|34=195|49=AMGTOBVC|56=ADRARBXBOG|52=20150519-13:56:33.065|37=201505191063|11=-4dbe0377035bb18a|41=4167220158634997|17=12790|150=5|39=0|63=4|48=PFBCOLOM|22=99|167=CS|54=1|38=4000|40=2|44=27660|59=0|151=4000|14=0|60=20150519-13:56:33.000|31=0|32=0|6=0|55=PFBCOLOM|453=1|448=062|447=D|452=1|583=-6a58cd62c234b255|10=072|
20150519-13:57:13.764: 8=FIX.4.4|9=259|35=G|34=196|49=ADRARBXBOG|52=20150519-13:57:13.764|56=AMGTOBVC|1=881|11=-4564970408fcbfa5|21=1|38=40000|40=2|41=-5a5215fe45bab590|44=1895|54=1|55=ECOPETROL|59=0|60=20150519-13:57:13.764|63=3|100=XBOG|207=XBOG|583=-43a2d7493a5cbb47|453=1|448=LVARB|447=D|452=1|10=133|
20150519-13:57:13.883: 8=FIX.4.4|9=353|35=8|57=062X01|128=LRVORBVC|115=BVC062|34=196|49=AMGTOBVC|56=ADRARBXBOG|52=20150519-13:57:13.858|37=201505191056|11=-4564970408fcbfa5|41=-5a5215fe45bab590|17=12962|150=5|39=0|63=4|48=ECOPETROL|22=99|167=CS|54=1|38=40000|40=2|44=1895|59=0|151=40000|14=0|60=20150519-13:57:13.000|31=0|32=0|6=0|55=ECOPETROL|453=1|448=062|447=D|452=1|583=-43a2d7493a5cbb47|10=132|
20150519-13:57:51.258: 8=FIX.4.4|9=259|35=G|34=197|49=ADRARBXBOG|52=20150519-13:57:51.258|56=AMGTOBVC|1=881|11=-218e26d46948b6ff|21=1|38=40000|40=2|41=-4564970408fcbfa5|44=1900|54=1|55=ECOPETROL|59=0|60=20150519-13:57:51.258|63=3|100=XBOG|207=XBOG|583=-43a2d7493a5cbb47|453=1|448=LVARB|447=D|452=1|10=094|
20150519-13:57:51.378: 8=FIX.4.4|9=353|35=8|57=062X01|128=LRVORBVC|115=BVC062|34=197|49=AMGTOBVC|56=ADRARBXBOG|52=20150519-13:57:51.344|37=201505191056|11=-218e26d46948b6ff|41=-4564970408fcbfa5|17=13120|150=5|39=0|63=4|48=ECOPETROL|22=99|167=CS|54=1|38=40000|40=2|44=1900|59=0|151=40000|14=0|60=20150519-13:57:51.000|31=0|32=0|6=0|55=ECOPETROL|453=1|448=062|447=D|452=1|583=-43a2d7493a5cbb47|10=074|
20150519-13:58:33.094: 8=FIX.4.4|9=379|35=8|57=062X01|128=LRVORBVC|115=BVC062|34=198|49=AMGTOBVC|56=ADRARBXBOG|52=20150519-13:58:33.073|37=201505191063|11=-4dbe0377035bb18a|17=13302B|150=F|39=1|63=4|64=20150522|48=PFBCOLOM|22=99|167=CS|54=1|38=4000|40=2|44=27660|59=0|32=539|31=27660|151=3461|14=539|6=27660|75=20150519|60=20150519-13:58:33.033|381=14908740|55=PFBCOLOM|453=1|448=062|447=D|452=1|583=-6a58cd62c234b255|10=063|
20150519-13:58:33.461: 8=FIX.4.4|9=257|35=G|34=198|49=ADRARBXBOG|52=20150519-13:58:33.461|56=AMGTOBVC|1=881|11=409bda9d2ed54101|21=1|38=4539|40=2|41=-4dbe0377035bb18a|44=27660|54=1|55=PFBCOLOM|59=0|60=20150519-13:58:33.461|63=3|100=XBOG|207=XBOG|583=-6a58cd62c234b255|453=1|448=LVARB|447=D|452=1|10=243|
20150519-13:58:33.574: 8=FIX.4.4|9=355|35=8|57=062X01|128=LRVORBVC|115=BVC062|34=199|49=AMGTOBVC|56=ADRARBXBOG|52=20150519-13:58:33.557|37=201505191063|11=409bda9d2ed54101|41=-4dbe0377035bb18a|17=13305|150=5|39=1|63=4|48=PFBCOLOM|22=99|167=CS|54=1|38=4539|40=2|44=27660|59=0|151=4000|14=539|6=27660|60=20150519-13:58:33.000|31=0|32=0|55=PFBCOLOM|453=1|448=062|447=D|452=1|583=-6a58cd62c234b255|10=177|
20150519-13:58:46.068: 8=FIX.4.4|9=257|35=G|34=199|49=ADRARBXBOG|52=20150519-13:58:46.068|56=AMGTOBVC|1=881|11=-68e5da323914bc50|21=1|38=4539|40=2|41=409bda9d2ed54101|44=27700|54=1|55=PFBCOLOM|59=0|60=20150519-13:58:46.068|63=3|100=XBOG|207=XBOG|583=-6a58cd62c234b255|453=1|448=LVARB|447=D|452=1|10=212|
20150519-13:58:46.180: 8=FIX.4.4|9=355|35=8|57=062X01|128=LRVORBVC|115=BVC062|34=200|49=AMGTOBVC|56=ADRARBXBOG|52=20150519-13:58:46.161|37=201505191063|11=-68e5da323914bc50|41=409bda9d2ed54101|17=13325|150=5|39=1|63=4|48=PFBCOLOM|22=99|167=CS|54=1|38=4539|40=2|44=27700|59=0|151=4000|14=539|6=27660|60=20150519-13:58:46.000|31=0|32=0|55=PFBCOLOM|453=1|448=062|447=D|452=1|583=-6a58cd62c234b255|10=115|
20150519-13:58:46.232: 8=FIX.4.4|9=255|35=G|34=200|49=ADRARBXBOG|52=20150519-13:58:46.231|56=AMGTOBVC|1=881|11=-48cc3284fba1bfd3|21=1|38=12000|40=2|41=-2faac40b0e4ab87e|44=3305|54=1|55=PFAVH|59=0|60=20150519-13:58:46.231|63=3|100=XBOG|207=XBOG|583=-24ffb48c7f94b27f|453=1|448=LVARB|447=D|452=1|10=118|
20150519-13:58:46.348: 8=FIX.4.4|9=345|35=8|57=062X01|128=LRVORBVC|115=BVC062|34=201|49=AMGTOBVC|56=ADRARBXBOG|52=20150519-13:58:46.317|37=201505191066|11=-48cc3284fba1bfd3|41=-2faac40b0e4ab87e|17=13326|150=5|39=0|63=4|48=PFAVH|22=99|167=CS|54=1|38=12000|40=2|44=3305|59=0|151=12000|14=0|60=20150519-13:58:46.000|31=0|32=0|6=0|55=PFAVH|453=1|448=062|447=D|452=1|583=-24ffb48c7f94b27f|10=074|
20150519-13:58:54.198: 8=FIX.4.4|9=258|35=G|34=201|49=ADRARBXBOG|52=20150519-13:58:54.198|56=AMGTOBVC|1=881|11=-64b9b47d4666bc32|21=1|38=4539|40=2|41=-68e5da323914bc50|44=27680|54=1|55=PFBCOLOM|59=0|60=20150519-13:58:54.198|63=3|100=XBOG|207=XBOG|583=-6a58cd62c234b255|453=1|448=LVARB|447=D|452=1|10=222|
20150519-13:58:54.309: 8=FIX.4.4|9=356|35=8|57=062X01|128=LRVORBVC|115=BVC062|34=202|49=AMGTOBVC|56=ADRARBXBOG|52=20150519-13:58:54.289|37=201505191063|11=-64b9b47d4666bc32|41=-68e5da323914bc50|17=13382|150=5|39=1|63=4|48=PFBCOLOM|22=99|167=CS|54=1|38=4539|40=2|44=27680|59=0|151=4000|14=539|6=27660|60=20150519-13:58:54.000|31=0|32=0|55=PFBCOLOM|453=1|448=062|447=D|452=1|583=-6a58cd62c234b255|10=149|
20150519-13:58:54.310: 8=FIX.4.4|9=257|35=G|34=202|49=ADRARBXBOG|52=20150519-13:58:54.310|56=AMGTOBVC|1=881|11=2e6900e009034cf7|21=1|38=4539|40=2|41=-64b9b47d4666bc32|44=27700|54=1|55=PFBCOLOM|59=0|60=20150519-13:58:54.310|63=3|100=XBOG|207=XBOG|583=-6a58cd62c234b255|453=1|448=LVARB|447=D|452=1|10=092|
20150519-13:58:54.421: 8=FIX.4.4|9=355|35=8|57=062X01|128=LRVORBVC|115=BVC062|34=203|49=AMGTOBVC|56=ADRARBXBOG|52=20150519-13:58:54.398|37=201505191063|11=2e6900e009034cf7|41=-64b9b47d4666bc32|17=13384|150=5|39=1|63=4|48=PFBCOLOM|22=99|167=CS|54=1|38=4539|40=2|44=27700|59=0|151=4000|14=539|6=27660|60=20150519-13:58:54.000|31=0|32=0|55=PFBCOLOM|453=1|448=062|447=D|452=1|583=-6a58cd62c234b255|10=050|
20150519-13:58:54.525: 8=FIX.4.4|9=257|35=G|34=203|49=ADRARBXBOG|52=20150519-13:58:54.525|56=AMGTOBVC|1=881|11=-776b182bdd4db5ce|21=1|38=4539|40=2|41=2e6900e009034cf7|44=27680|54=1|55=PFBCOLOM|59=0|60=20150519-13:58:54.525|63=3|100=XBOG|207=XBOG|583=-6a58cd62c234b255|453=1|448=LVARB|447=D|452=1|10=000|
20150519-13:58:54.646: 8=FIX.4.4|9=355|35=8|57=062X01|128=LRVORBVC|115=BVC062|34=204|49=AMGTOBVC|56=ADRARBXBOG|52=20150519-13:58:54.616|37=201505191063|11=-776b182bdd4db5ce|41=2e6900e009034cf7|17=13385|150=5|39=1|63=4|48=PFBCOLOM|22=99|167=CS|54=1|38=4539|40=2|44=27680|59=0|151=4000|14=539|6=27660|60=20150519-13:58:54.000|31=0|32=0|55=PFBCOLOM|453=1|448=062|447=D|452=1|583=-6a58cd62c234b255|10=192|
20150519-13:59:30.039: 8=FIX.4.4|9=257|35=G|34=204|49=ADRARBXBOG|52=20150519-13:59:30.038|56=AMGTOBVC|1=881|11=2772744425d54210|21=1|38=4539|40=2|41=-776b182bdd4db5ce|44=27720|54=1|55=PFBCOLOM|59=0|60=20150519-13:59:30.038|63=3|100=XBOG|207=XBOG|583=-6a58cd62c234b255|453=1|448=LVARB|447=D|452=1|10=097|
20150519-13:59:30.168: 8=FIX.4.4|9=355|35=8|57=062X01|128=LRVORBVC|115=BVC062|34=205|49=AMGTOBVC|56=ADRARBXBOG|52=20150519-13:59:30.137|37=201505191063|11=2772744425d54210|41=-776b182bdd4db5ce|17=13552|150=5|39=1|63=4|48=PFBCOLOM|22=99|167=CS|54=1|38=4539|40=2|44=27720|59=0|151=4000|14=539|6=27660|60=20150519-13:59:30.000|31=0|32=0|55=PFBCOLOM|453=1|448=062|447=D|452=1|583=-6a58cd62c234b255|10=029|
20150519-13:59:30.168: 8=FIX.4.4|9=380|35=8|57=062X01|128=LRVORBVC|115=BVC062|34=206|49=AMGTOBVC|56=ADRARBXBOG|52=20150519-13:59:30.137|37=201505191063|11=2772744425d54210|17=13553B|150=F|39=1|63=4|64=20150522|48=PFBCOLOM|22=99|167=CS|54=1|38=4539|40=2|44=27720|59=0|32=100|31=27720|151=3900|14=639|6=27669.39|75=20150519|60=20150519-13:59:30.093|381=2772000|55=PFBCOLOM|453=1|448=062|447=D|452=1|583=-6a58cd62c234b255|10=127|
20150519-13:59:30.613: 8=FIX.4.4|9=257|35=G|34=205|49=ADRARBXBOG|52=20150519-13:59:30.613|56=AMGTOBVC|1=881|11=-3a4d97ce47aeb4be|21=1|38=4639|40=2|41=2772744425d54210|44=27720|54=1|55=PFBCOLOM|59=0|60=20150519-13:59:30.613|63=3|100=XBOG|207=XBOG|583=-6a58cd62c234b255|453=1|448=LVARB|447=D|452=1|10=145|
20150519-13:59:30.723: 8=FIX.4.4|9=358|35=8|57=062X01|128=LRVORBVC|115=BVC062|34=207|49=AMGTOBVC|56=ADRARBXBOG|52=20150519-13:59:30.698|37=201505191063|11=-3a4d97ce47aeb4be|41=2772744425d54210|17=13560|150=5|39=1|63=4|48=PFBCOLOM|22=99|167=CS|54=1|38=4639|40=2|44=27720|59=0|151=4000|14=639|6=27669.39|60=20150519-13:59:30.000|31=0|32=0|55=PFBCOLOM|453=1|448=062|447=D|452=1|583=-6a58cd62c234b255|10=002|
20150519-13:59:42.252: 8=FIX.4.4|9=254|35=G|34=206|49=ADRARBXBOG|52=20150519-13:59:42.252|56=AMGTOBVC|1=881|11=717e2ff5c5294d71|21=1|38=12000|40=2|41=-48cc3284fba1bfd3|44=3310|54=1|55=PFAVH|59=0|60=20150519-13:59:42.252|63=3|100=XBOG|207=XBOG|583=-24ffb48c7f94b27f|453=1|448=LVARB|447=D|452=1|10=161|
20150519-13:59:42.385: 8=FIX.4.4|9=344|35=8|57=062X01|128=LRVORBVC|115=BVC062|34=208|49=AMGTOBVC|56=ADRARBXBOG|52=20150519-13:59:42.367|37=201505191066|11=717e2ff5c5294d71|41=-48cc3284fba1bfd3|17=13605|150=5|39=0|63=4|48=PFAVH|22=99|167=CS|54=1|38=12000|40=2|44=3310|59=0|151=12000|14=0|60=20150519-13:59:42.000|31=0|32=0|6=0|55=PFAVH|453=1|448=062|447=D|452=1|583=-24ffb48c7f94b27f|10=117|
20150519-13:59:42.387: 8=FIX.4.4|9=254|35=G|34=207|49=ADRARBXBOG|52=20150519-13:59:42.387|56=AMGTOBVC|1=881|11=-4422fca49536bb62|21=1|38=12000|40=2|41=717e2ff5c5294d71|44=3320|54=1|55=PFAVH|59=0|60=20150519-13:59:42.387|63=3|100=XBOG|207=XBOG|583=-24ffb48c7f94b27f|453=1|448=LVARB|447=D|452=1|10=038|
20150519-13:59:42.520: 8=FIX.4.4|9=344|35=8|57=062X01|128=LRVORBVC|115=BVC062|34=209|49=AMGTOBVC|56=ADRARBXBOG|52=20150519-13:59:42.492|37=201505191066|11=-4422fca49536bb62|41=717e2ff5c5294d71|17=13606|150=5|39=0|63=4|48=PFAVH|22=99|167=CS|54=1|38=12000|40=2|44=3320|59=0|151=12000|14=0|60=20150519-13:59:42.000|31=0|32=0|6=0|55=PFAVH|453=1|448=062|447=D|452=1|583=-24ffb48c7f94b27f|10=232|
20150519-13:59:47.472: 8=FIX.4.4|9=254|35=G|34=208|49=ADRARBXBOG|52=20150519-13:59:47.472|56=AMGTOBVC|1=881|11=217d240dec944270|21=1|38=12000|40=2|41=-4422fca49536bb62|44=3305|54=1|55=PFAVH|59=0|60=20150519-13:59:47.472|63=3|100=XBOG|207=XBOG|583=-24ffb48c7f94b27f|453=1|448=LVARB|447=D|452=1|10=234|
20150519-13:59:47.597: 8=FIX.4.4|9=344|35=8|57=062X01|128=LRVORBVC|115=BVC062|34=210|49=AMGTOBVC|56=ADRARBXBOG|52=20150519-13:59:47.562|37=201505191066|11=217d240dec944270|41=-4422fca49536bb62|17=13646|150=5|39=0|63=4|48=PFAVH|22=99|167=CS|54=1|38=12000|40=2|44=3305|59=0|151=12000|14=0|60=20150519-13:59:47.000|31=0|32=0|6=0|55=PFAVH|453=1|448=062|447=D|452=1|583=-24ffb48c7f94b27f|10=175|
20150519-13:59:47.605: 8=FIX.4.4|9=254|35=G|34=209|49=ADRARBXBOG|52=20150519-13:59:47.605|56=AMGTOBVC|1=881|11=-2c2869934b8ebaaa|21=1|38=12000|40=2|41=217d240dec944270|44=3320|54=1|55=PFAVH|59=0|60=20150519-13:59:47.605|63=3|100=XBOG|207=XBOG|583=-24ffb48c7f94b27f|453=1|448=LVARB|447=D|452=1|10=073|
20150519-13:59:47.736: 8=FIX.4.4|9=344|35=8|57=062X01|128=LRVORBVC|115=BVC062|34=211|49=AMGTOBVC|56=ADRARBXBOG|52=20150519-13:59:47.702|37=201505191066|11=-2c2869934b8ebaaa|41=217d240dec944270|17=13648|150=5|39=0|63=4|48=PFAVH|22=99|167=CS|54=1|38=12000|40=2|44=3320|59=0|151=12000|14=0|60=20150519-13:59:47.000|31=0|32=0|6=0|55=PFAVH|453=1|448=062|447=D|452=1|583=-24ffb48c7f94b27f|10=016|
20150519-13:59:55.104: 8=FIX.4.4|9=255|35=G|34=210|49=ADRARBXBOG|52=20150519-13:59:55.104|56=AMGTOBVC|1=881|11=-7645b5937d58b5f2|21=1|38=12000|40=2|41=-2c2869934b8ebaaa|44=3325|54=1|55=PFAVH|59=0|60=20150519-13:59:55.104|63=3|100=XBOG|207=XBOG|583=-24ffb48c7f94b27f|453=1|448=LVARB|447=D|452=1|10=124|
20150519-13:59:55.511: 8=FIX.4.4|9=345|35=8|57=062X01|128=LRVORBVC|115=BVC062|34=212|49=AMGTOBVC|56=ADRARBXBOG|52=20150519-13:59:55.486|37=201505191066|11=-7645b5937d58b5f2|41=-2c2869934b8ebaaa|17=13683|150=5|39=0|63=4|48=PFAVH|22=99|167=CS|54=1|38=12000|40=2|44=3325|59=0|151=12000|14=0|60=20150519-13:59:55.000|31=0|32=0|6=0|55=PFAVH|453=1|448=062|447=D|452=1|583=-24ffb48c7f94b27f|10=096|
20150519-14:00:01.103: 8=FIX.4.4|9=255|35=G|34=211|49=ADRARBXBOG|52=20150519-14:00:01.103|56=AMGTOBVC|1=881|11=-3729f1f45d08b5b8|21=1|38=12000|40=2|41=-7645b5937d58b5f2|44=3320|54=1|55=PFAVH|59=0|60=20150519-14:00:01.103|63=3|100=XBOG|207=XBOG|583=-24ffb48c7f94b27f|453=1|448=LVARB|447=D|452=1|10=240|
20150519-14:00:01.216: 8=FIX.4.4|9=345|35=8|57=062X01|128=LRVORBVC|115=BVC062|34=213|49=AMGTOBVC|56=ADRARBXBOG|52=20150519-14:00:01.196|37=201505191066|11=-3729f1f45d08b5b8|41=-7645b5937d58b5f2|17=13701|150=5|39=0|63=4|48=PFAVH|22=99|167=CS|54=1|38=12000|40=2|44=3320|59=0|151=12000|14=0|60=20150519-14:00:01.000|31=0|32=0|6=0|55=PFAVH|453=1|448=062|447=D|452=1|583=-24ffb48c7f94b27f|10=203|
20150519-14:00:07.978: 8=FIX.4.4|9=383|35=8|57=062X01|128=LRVORBVC|115=BVC062|34=214|49=AMGTOBVC|56=ADRARBXBOG|52=20150519-14:00:07.950|37=201505191063|11=-3a4d97ce47aeb4be|17=13747B|150=F|39=1|63=4|64=20150522|48=PFBCOLOM|22=99|167=CS|54=1|38=4639|40=2|44=27720|59=0|32=640|31=27720|151=3360|14=1279|6=27694.71|75=20150519|60=20150519-14:00:07.913|381=17740800|55=PFBCOLOM|453=1|448=062|447=D|452=1|583=-6a58cd62c234b255|10=153|
20150519-14:00:08.018: 8=FIX.4.4|9=258|35=G|34=212|49=ADRARBXBOG|52=20150519-14:00:08.018|56=AMGTOBVC|1=881|11=-51c4dca78ac5b7a2|21=1|38=5279|40=2|41=-3a4d97ce47aeb4be|44=27720|54=1|55=PFBCOLOM|59=0|60=20150519-14:00:08.017|63=3|100=XBOG|207=XBOG|583=-6a58cd62c234b255|453=1|448=LVARB|447=D|452=1|10=248|
20150519-14:00:08.149: 8=FIX.4.4|9=360|35=8|57=062X01|128=LRVORBVC|115=BVC062|34=215|49=AMGTOBVC|56=ADRARBXBOG|52=20150519-14:00:08.122|37=201505191063|11=-51c4dca78ac5b7a2|41=-3a4d97ce47aeb4be|17=13750|150=5|39=1|63=4|48=PFBCOLOM|22=99|167=CS|54=1|38=5279|40=2|44=27720|59=0|151=4000|14=1279|6=27694.71|60=20150519-14:00:08.000|31=0|32=0|55=PFBCOLOM|453=1|448=062|447=D|452=1|583=-6a58cd62c234b255|10=127|
20150519-14:00:13.016: 8=FIX.4.4|9=234|35=D|34=213|49=ADRARBXBOG|52=20150519-14:00:13.015|56=AMGTOBVC|1=881|11=-2f7509e3f0c4bf99|21=1|38=50000|40=2|44=1280|54=2|55=PFAVAL|59=0|60=20150519-14:00:13.015|63=3|100=XBOG|207=XBOG|583=7ce16403d43e4c72|453=1|448=LVARB|447=D|452=1|10=247|
20150519-14:00:13.016: 8=FIX.4.4|9=238|35=D|34=214|49=ADRARBXBOG|52=20150519-14:00:13.016|56=AMGTOBVC|1=881|11=-327f17d98589b1dc|21=1|38=40000|40=2|44=1910|54=2|55=ECOPETROL|59=0|60=20150519-14:00:13.016|63=3|100=XBOG|207=XBOG|583=-43a2d7493a5cbb47|453=1|448=LVARB|447=D|452=1|10=032|
20150519-14:00:13.017: 8=FIX.4.4|9=237|35=D|34=215|49=ADRARBXBOG|52=20150519-14:00:13.017|56=AMGTOBVC|1=881|11=-536a32a5c849b7c1|21=1|38=4000|40=2|44=27940|54=2|55=PFBCOLOM|59=0|60=20150519-14:00:13.017|63=3|100=XBOG|207=XBOG|583=-6a58cd62c234b255|453=1|448=LVARB|447=D|452=1|10=146|
20150519-14:00:13.018: 8=FIX.4.4|9=234|35=D|34=216|49=ADRARBXBOG|52=20150519-14:00:13.018|56=AMGTOBVC|1=881|11=-6d11f95d97ebb3d5|21=1|38=12000|40=2|44=3370|54=2|55=PFAVH|59=0|60=20150519-14:00:13.018|63=3|100=XBOG|207=XBOG|583=-24ffb48c7f94b27f|453=1|448=LVARB|447=D|452=1|10=134|
20150519-14:00:13.137: 8=FIX.4.4|9=325|35=8|57=062X01|128=LRVORBVC|115=BVC062|34=216|49=AMGTOBVC|56=ADRARBXBOG|52=20150519-14:00:13.114|37=201505191561|11=-2f7509e3f0c4bf99|17=13779|150=0|39=0|63=4|48=PFAVAL|22=99|167=CS|54=2|38=50000|40=2|44=1280|59=0|151=50000|14=0|60=20150519-14:00:13.000|31=0|32=0|6=0|55=PFAVAL|453=1|448=062|447=D|452=1|583=7ce16403d43e4c72|10=026|
20150519-14:00:13.166: 8=FIX.4.4|9=332|35=8|57=062X01|128=LRVORBVC|115=BVC062|34=217|49=AMGTOBVC|56=ADRARBXBOG|52=20150519-14:00:13.129|37=201505191562|11=-327f17d98589b1dc|17=13780|150=0|39=0|63=4|48=ECOPETROL|22=99|167=CS|54=2|38=40000|40=2|44=1910|59=0|151=40000|14=0|60=20150519-14:00:13.000|31=0|32=0|6=0|55=ECOPETROL|453=1|448=062|447=D|452=1|583=-43a2d7493a5cbb47|10=044|
20150519-14:00:13.173: 8=FIX.4.4|9=329|35=8|57=062X01|128=LRVORBVC|115=BVC062|34=218|49=AMGTOBVC|56=ADRARBXBOG|52=20150519-14:00:13.145|37=201505191563|11=-536a32a5c849b7c1|17=13781|150=0|39=0|63=4|48=PFBCOLOM|22=99|167=CS|54=2|38=4000|40=2|44=27940|59=0|151=4000|14=0|60=20150519-14:00:13.000|31=0|32=0|6=0|55=PFBCOLOM|453=1|448=062|447=D|452=1|583=-6a58cd62c234b255|10=024|
20150519-14:00:13.176: 8=FIX.4.4|9=324|35=8|57=062X01|128=LRVORBVC|115=BVC062|34=219|49=AMGTOBVC|56=ADRARBXBOG|52=20150519-14:00:13.145|37=201505191564|11=-6d11f95d97ebb3d5|17=13782|150=0|39=0|63=4|48=PFAVH|22=99|167=CS|54=2|38=12000|40=2|44=3370|59=0|151=12000|14=0|60=20150519-14:00:13.000|31=0|32=0|6=0|55=PFAVH|453=1|448=062|447=D|452=1|583=-24ffb48c7f94b27f|10=092|
20150519-14:00:14.555: 8=FIX.4.4|9=356|35=8|57=062X01|128=LRVORBVC|115=BVC062|34=220|49=AMGTOBVC|56=ADRARBXBOG|52=20150519-14:00:14.533|37=201505191063|11=-51c4dca78ac5b7a2|17=13785B|150=F|39=2|63=4|64=20150522|48=PFBCOLOM|22=99|167=CS|54=1|38=5279|40=2|44=27720|59=0|32=4000|31=27720|151=0|14=5279|6=27713.87|75=20150519|60=20150519-14:00:14.494|381=110880000|55=PFBCOLOM|583=-6a58cd62c234b255|10=106|
20150519-14:00:15.087: 8=FIX.4.4|9=236|35=D|34=217|49=ADRARBXBOG|52=20150519-14:00:15.087|56=AMGTOBVC|1=881|11=69bdd2b393ce4b08|21=1|38=4000|40=2|44=27720|54=1|55=PFBCOLOM|59=0|60=20150519-14:00:15.087|63=3|100=XBOG|207=XBOG|583=-6a58cd62c234b255|453=1|448=LVARB|447=D|452=1|10=214|
20150519-14:00:15.209: 8=FIX.4.4|9=328|35=8|57=062X01|128=LRVORBVC|115=BVC062|34=221|49=AMGTOBVC|56=ADRARBXBOG|52=20150519-14:00:15.189|37=201505191567|11=69bdd2b393ce4b08|17=13791|150=0|39=0|63=4|48=PFBCOLOM|22=99|167=CS|54=1|38=4000|40=2|44=27720|59=0|151=4000|14=0|60=20150519-14:00:15.000|31=0|32=0|6=0|55=PFBCOLOM|453=1|448=062|447=D|452=1|583=-6a58cd62c234b255|10=083|
20150519-14:00:15.211: 8=FIX.4.4|9=352|35=8|57=062X01|128=LRVORBVC|115=BVC062|34=222|49=AMGTOBVC|56=ADRARBXBOG|52=20150519-14:00:15.189|37=201505191567|11=69bdd2b393ce4b08|17=13792B|150=F|39=2|63=4|64=20150522|48=PFBCOLOM|22=99|167=CS|54=1|38=4000|40=2|44=27720|59=0|32=4000|31=27720|151=0|14=4000|6=27720|75=20150519|60=20150519-14:00:15.142|381=110880000|55=PFBCOLOM|583=-6a58cd62c234b255|10=085|
20150519-14:00:15.417: 8=FIX.4.4|9=258|35=G|34=218|49=ADRARBXBOG|52=20150519-14:00:15.417|56=AMGTOBVC|1=881|11=-3392604be0ebb30b|21=1|38=4000|40=2|41=-536a32a5c849b7c1|44=27920|54=2|55=PFBCOLOM|59=0|60=20150519-14:00:15.417|63=3|100=XBOG|207=XBOG|583=-6a58cd62c234b255|453=1|448=LVARB|447=D|452=1|10=197|
20150519-14:00:15.541: 8=FIX.4.4|9=350|35=8|57=062X01|128=LRVORBVC|115=BVC062|34=223|49=AMGTOBVC|56=ADRARBXBOG|52=20150519-14:00:15.516|37=201505191563|11=-3392604be0ebb30b|41=-536a32a5c849b7c1|17=13797|150=5|39=0|63=4|48=PFBCOLOM|22=99|167=CS|54=2|38=4000|40=2|44=27920|59=0|151=4000|14=0|60=20150519-14:00:15.000|31=0|32=0|6=0|55=PFBCOLOM|453=1|448=062|447=D|452=1|583=-6a58cd62c234b255|10=062|
20150519-14:00:15.852: 8=FIX.4.4|9=257|35=G|34=219|49=ADRARBXBOG|52=20150519-14:00:15.852|56=AMGTOBVC|1=881|11=1d2b5a3bd57b4d85|21=1|38=4000|40=2|41=-3392604be0ebb30b|44=27880|54=2|55=PFBCOLOM|59=0|60=20150519-14:00:15.852|63=3|100=XBOG|207=XBOG|583=-6a58cd62c234b255|453=1|448=LVARB|447=D|452=1|10=255|
20150519-14:00:15.973: 8=FIX.4.4|9=349|35=8|57=062X01|128=LRVORBVC|115=BVC062|34=224|49=AMGTOBVC|56=ADRARBXBOG|52=20150519-14:00:15.937|37=201505191563|11=1d2b5a3bd57b4d85|41=-3392604be0ebb30b|17=13803|150=5|39=0|63=4|48=PFBCOLOM|22=99|167=CS|54=2|38=4000|40=2|44=27880|59=0|151=4000|14=0|60=20150519-14:00:15.000|31=0|32=0|6=0|55=PFBCOLOM|453=1|448=062|447=D|452=1|583=-6a58cd62c234b255|10=118|
20150519-14:00:18.241: 8=FIX.4.4|9=256|35=G|34=220|49=ADRARBXBOG|52=20150519-14:00:18.241|56=AMGTOBVC|1=881|11=7a4ece1e309e43ea|21=1|38=4000|40=2|41=1d2b5a3bd57b4d85|44=27840|54=2|55=PFBCOLOM|59=0|60=20150519-14:00:18.241|63=3|100=XBOG|207=XBOG|583=-6a58cd62c234b255|453=1|448=LVARB|447=D|452=1|10=040|
20150519-14:00:18.353: 8=FIX.4.4|9=348|35=8|57=062X01|128=LRVORBVC|115=BVC062|34=225|49=AMGTOBVC|56=ADRARBXBOG|52=20150519-14:00:18.324|37=201505191563|11=7a4ece1e309e43ea|41=1d2b5a3bd57b4d85|17=13825|150=5|39=0|63=4|48=PFBCOLOM|22=99|167=CS|54=2|38=4000|40=2|44=27840|59=0|151=4000|14=0|60=20150519-14:00:18.000|31=0|32=0|6=0|55=PFBCOLOM|453=1|448=062|447=D|452=1|583=-6a58cd62c234b255|10=178|
20150519-14:00:18.452: 8=FIX.4.4|9=252|35=G|34=221|49=ADRARBXBOG|52=20150519-14:00:18.452|56=AMGTOBVC|1=881|11=cfc0c0b8c14f28|21=1|38=12000|40=2|41=-3729f1f45d08b5b8|44=3315|54=1|55=PFAVH|59=0|60=20150519-14:00:18.452|63=3|100=XBOG|207=XBOG|583=-24ffb48c7f94b27f|453=1|448=LVARB|447=D|452=1|10=244|
20150519-14:00:18.578: 8=FIX.4.4|9=342|35=8|57=062X01|128=LRVORBVC|115=BVC062|34=226|49=AMGTOBVC|56=ADRARBXBOG|52=20150519-14:00:18.558|37=201505191066|11=cfc0c0b8c14f28|41=-3729f1f45d08b5b8|17=13826|150=5|39=0|63=4|48=PFAVH|22=99|167=CS|54=1|38=12000|40=2|44=3315|59=0|151=12000|14=0|60=20150519-14:00:18.000|31=0|32=0|6=0|55=PFAVH|453=1|448=062|447=D|452=1|583=-24ffb48c7f94b27f|10=206|
20150519-14:00:30.074: 8=FIX.4.4|9=258|35=G|34=222|49=ADRARBXBOG|52=20150519-14:00:30.074|56=AMGTOBVC|1=881|11=4b09b12309ac4799|21=1|38=40000|40=2|41=-327f17d98589b1dc|44=1915|54=2|55=ECOPETROL|59=0|60=20150519-14:00:30.073|63=3|100=XBOG|207=XBOG|583=-43a2d7493a5cbb47|453=1|448=LVARB|447=D|452=1|10=210|
20150519-14:00:30.188: 8=FIX.4.4|9=352|35=8|57=062X01|128=LRVORBVC|115=BVC062|34=227|49=AMGTOBVC|56=ADRARBXBOG|52=20150519-14:00:30.164|37=201505191562|11=4b09b12309ac4799|41=-327f17d98589b1dc|17=13877|150=5|39=0|63=4|48=ECOPETROL|22=99|167=CS|54=2|38=40000|40=2|44=1915|59=0|151=40000|14=0|60=20150519-14:00:30.000|31=0|32=0|6=0|55=ECOPETROL|453=1|448=062|447=D|452=1|583=-43a2d7493a5cbb47|10=225|
20150519-14:00:30.224: 8=FIX.4.4|9=256|35=G|34=223|49=ADRARBXBOG|52=20150519-14:00:30.224|56=AMGTOBVC|1=881|11=24c8791dbcf649ab|21=1|38=4000|40=2|41=7a4ece1e309e43ea|44=27880|54=2|55=PFBCOLOM|59=0|60=20150519-14:00:30.224|63=3|100=XBOG|207=XBOG|583=-6a58cd62c234b255|453=1|448=LVARB|447=D|452=1|10=049|
20150519-14:00:30.339: 8=FIX.4.4|9=348|35=8|57=062X01|128=LRVORBVC|115=BVC062|34=228|49=AMGTOBVC|56=ADRARBXBOG|52=20150519-14:00:30.305|37=201505191563|11=24c8791dbcf649ab|41=7a4ece1e309e43ea|17=13878|150=5|39=0|63=4|48=PFBCOLOM|22=99|167=CS|54=2|38=4000|40=2|44=27880|59=0|151=4000|14=0|60=20150519-14:00:30.000|31=0|32=0|6=0|55=PFBCOLOM|453=1|448=062|447=D|452=1|583=-6a58cd62c234b255|10=192|
20150519-14:00:30.761: 8=FIX.4.4|9=236|35=D|34=224|49=ADRARBXBOG|52=20150519-14:00:30.761|56=AMGTOBVC|1=881|11=45ebdda1232d44d4|21=1|38=4000|40=2|44=27720|54=1|55=PFBCOLOM|59=0|60=20150519-14:00:30.761|63=3|100=XBOG|207=XBOG|583=-6a58cd62c234b255|453=1|448=LVARB|447=D|452=1|10=191|
20150519-14:00:30.874: 8=FIX.4.4|9=328|35=8|57=062X01|128=LRVORBVC|115=BVC062|34=229|49=AMGTOBVC|56=ADRARBXBOG|52=20150519-14:00:30.851|37=201505191581|11=45ebdda1232d44d4|17=13883|150=0|39=0|63=4|48=PFBCOLOM|22=99|167=CS|54=1|38=4000|40=2|44=27720|59=0|151=4000|14=0|60=20150519-14:00:30.000|31=0|32=0|6=0|55=PFBCOLOM|453=1|448=062|447=D|452=1|583=-6a58cd62c234b255|10=066|
20150519-14:00:30.877: 8=FIX.4.4|9=380|35=8|57=062X01|128=LRVORBVC|115=BVC062|34=230|49=AMGTOBVC|56=ADRARBXBOG|52=20150519-14:00:30.851|37=201505191581|11=45ebdda1232d44d4|17=13884B|150=F|39=1|63=4|64=20150522|48=PFBCOLOM|22=99|167=CS|54=1|38=4000|40=2|44=27720|59=0|32=1998|31=27720|151=2002|14=1998|6=27720|75=20150519|60=20150519-14:00:30.816|381=55384560|55=PFBCOLOM|453=1|448=062|447=D|452=1|583=-6a58cd62c234b255|10=147|
20150519-14:00:30.883: 8=FIX.4.4|9=257|35=G|34=225|49=ADRARBXBOG|52=20150519-14:00:30.883|56=AMGTOBVC|1=881|11=-566c4e97b074b782|21=1|38=5998|40=2|41=45ebdda1232d44d4|44=27720|54=1|55=PFBCOLOM|59=0|60=20150519-14:00:30.883|63=3|100=XBOG|207=XBOG|583=-6a58cd62c234b255|453=1|448=LVARB|447=D|452=1|10=200|
20150519-14:00:30.995: 8=FIX.4.4|9=356|35=8|57=062X01|128=LRVORBVC|115=BVC062|34=231|49=AMGTOBVC|56=ADRARBXBOG|52=20150519-14:00:30.976|37=201505191581|11=-566c4e97b074b782|41=45ebdda1232d44d4|17=13885|150=5|39=1|63=4|48=PFBCOLOM|22=99|167=CS|54=1|38=5998|40=2|44=27720|59=0|151=4000|14=1998|6=27720|60=20150519-14:00:30.000|31=0|32=0|55=PFBCOLOM|453=1|448=062|447=D|452=1|583=-6a58cd62c234b255|10=193|
20150519-14:00:34.088: 8=FIX.4.4|9=251|35=G|34=226|49=ADRARBXBOG|52=20150519-14:00:34.087|56=AMGTOBVC|1=881|11=47ad2d714985470f|21=1|38=12000|40=2|41=cfc0c0b8c14f28|44=3320|54=1|55=PFAVH|59=0|60=20150519-14:00:34.087|63=3|100=XBOG|207=XBOG|583=-24ffb48c7f94b27f|453=1|448=LVARB|447=D|452=1|10=156|
20150519-14:00:34.202: 8=FIX.4.4|9=341|35=8|57=062X01|128=LRVORBVC|115=BVC062|34=232|49=AMGTOBVC|56=ADRARBXBOG|52=20150519-14:00:34.173|37=201505191066|11=47ad2d714985470f|41=cfc0c0b8c14f28|17=13918|150=5|39=0|63=4|48=PFAVH|22=99|167=CS|54=1|38=12000|40=2|44=3320|59=0|151=12000|14=0|60=20150519-14:00:34.000|31=0|32=0|6=0|55=PFAVH|453=1|448=062|447=D|452=1|583=-24ffb48c7f94b27f|10=097|
20150519-14:00:35.119: 8=FIX.4.4|9=254|35=G|34=227|49=ADRARBXBOG|52=20150519-14:00:35.119|56=AMGTOBVC|1=881|11=3528de3c62174db0|21=1|38=12000|40=2|41=-6d11f95d97ebb3d5|44=3365|54=2|55=PFAVH|59=0|60=20150519-14:00:35.119|63=3|100=XBOG|207=XBOG|583=-24ffb48c7f94b27f|453=1|448=LVARB|447=D|452=1|10=107|
20150519-14:00:35.234: 8=FIX.4.4|9=344|35=8|57=062X01|128=LRVORBVC|115=BVC062|34=233|49=AMGTOBVC|56=ADRARBXBOG|52=20150519-14:00:35.203|37=201505191564|11=3528de3c62174db0|41=-6d11f95d97ebb3d5|17=13929|150=5|39=0|63=4|48=PFAVH|22=99|167=CS|54=2|38=12000|40=2|44=3365|59=0|151=12000|14=0|60=20150519-14:00:35.000|31=0|32=0|6=0|55=PFAVH|453=1|448=062|447=D|452=1|583=-24ffb48c7f94b27f|10=055|
20150519-14:00:44.812: 8=FIX.4.4|9=257|35=G|34=228|49=ADRARBXBOG|52=20150519-14:00:44.812|56=AMGTOBVC|1=881|11=-4634eb821ff3bba7|21=1|38=4000|40=2|41=24c8791dbcf649ab|44=27900|54=2|55=PFBCOLOM|59=0|60=20150519-14:00:44.812|63=3|100=XBOG|207=XBOG|583=-6a58cd62c234b255|453=1|448=LVARB|447=D|452=1|10=062|
20150519-14:00:44.926: 8=FIX.4.4|9=349|35=8|57=062X01|128=LRVORBVC|115=BVC062|34=234|49=AMGTOBVC|56=ADRARBXBOG|52=20150519-14:00:44.906|37=201505191563|11=-4634eb821ff3bba7|41=24c8791dbcf649ab|17=13953|150=5|39=0|63=4|48=PFBCOLOM|22=99|167=CS|54=2|38=4000|40=2|44=27900|59=0|151=4000|14=0|60=20150519-14:00:44.000|31=0|32=0|6=0|55=PFBCOLOM|453=1|448=062|447=D|452=1|583=-6a58cd62c234b255|10=192|
20150519-14:00:46.031: 8=FIX.4.4|9=257|35=G|34=229|49=ADRARBXBOG|52=20150519-14:00:46.031|56=AMGTOBVC|1=881|11=6f61b4ecc7c245bb|21=1|38=4000|40=2|41=-4634eb821ff3bba7|44=27940|54=2|55=PFBCOLOM|59=0|60=20150519-14:00:46.031|63=3|100=XBOG|207=XBOG|583=-6a58cd62c234b255|453=1|448=LVARB|447=D|452=1|10=095|
20150519-14:00:46.176: 8=FIX.4.4|9=349|35=8|57=062X01|128=LRVORBVC|115=BVC062|34=235|49=AMGTOBVC|56=ADRARBXBOG|52=20150519-14:00:46.123|37=201505191563|11=6f61b4ecc7c245bb|41=-4634eb821ff3bba7|17=13960|150=5|39=0|63=4|48=PFBCOLOM|22=99|167=CS|54=2|38=4000|40=2|44=27940|59=0|151=4000|14=0|60=20150519-14:00:46.000|31=0|32=0|6=0|55=PFBCOLOM|453=1|448=062|447=D|452=1|583=-6a58cd62c234b255|10=228|
20150519-14:00:48.692: 8=FIX.4.4|9=256|35=G|34=230|49=ADRARBXBOG|52=20150519-14:00:48.692|56=AMGTOBVC|1=881|11=1d925a48a4d5449f|21=1|38=4000|40=2|41=6f61b4ecc7c245bb|44=27920|54=2|55=PFBCOLOM|59=0|60=20150519-14:00:48.692|63=3|100=XBOG|207=XBOG|583=-6a58cd62c234b255|453=1|448=LVARB|447=D|452=1|10=238|
20150519-14:00:48.806: 8=FIX.4.4|9=348|35=8|57=062X01|128=LRVORBVC|115=BVC062|34=236|49=AMGTOBVC|56=ADRARBXBOG|52=20150519-14:00:48.775|37=201505191563|11=1d925a48a4d5449f|41=6f61b4ecc7c245bb|17=13978|150=5|39=0|63=4|48=PFBCOLOM|22=99|167=CS|54=2|38=4000|40=2|44=27920|59=0|151=4000|14=0|60=20150519-14:00:48.000|31=0|32=0|6=0|55=PFBCOLOM|453=1|448=062|447=D|452=1|583=-6a58cd62c234b255|10=120|
20150519-14:00:50.602: 8=FIX.4.4|9=353|35=8|57=062X01|128=LRVORBVC|115=BVC062|34=237|49=AMGTOBVC|56=ADRARBXBOG|52=20150519-14:00:50.584|37=201505191581|11=-566c4e97b074b782|17=13992B|150=F|39=2|63=4|64=20150522|48=PFBCOLOM|22=99|167=CS|54=1|38=5998|40=2|44=27720|59=0|32=4000|31=27720|151=0|14=5998|6=27720|75=20150519|60=20150519-14:00:50.542|381=110880000|55=PFBCOLOM|583=-6a58cd62c234b255|10=057|
20150519-14:00:51.180: 8=FIX.4.4|9=236|35=D|34=231|49=ADRARBXBOG|52=20150519-14:00:51.180|56=AMGTOBVC|1=881|11=33e4be997c0f4aca|21=1|38=4000|40=2|44=27720|54=1|55=PFBCOLOM|59=0|60=20150519-14:00:51.180|63=3|100=XBOG|207=XBOG|583=-6a58cd62c234b255|453=1|448=LVARB|447=D|452=1|10=245|
20150519-14:00:51.301: 8=FIX.4.4|9=328|35=8|57=062X01|128=LRVORBVC|115=BVC062|34=238|49=AMGTOBVC|56=ADRARBXBOG|52=20150519-14:00:51.271|37=201505191602|11=33e4be997c0f4aca|17=13997|150=0|39=0|63=4|48=PFBCOLOM|22=99|167=CS|54=1|38=4000|40=2|44=27720|59=0|151=4000|14=0|60=20150519-14:00:51.000|31=0|32=0|6=0|55=PFBCOLOM|453=1|448=062|447=D|452=1|583=-6a58cd62c234b255|10=128|
20150519-14:00:53.595: 8=FIX.4.4|9=256|35=G|34=232|49=ADRARBXBOG|52=20150519-14:00:53.595|56=AMGTOBVC|1=881|11=56d313b8a06b4dc3|21=1|38=4000|40=2|41=1d925a48a4d5449f|44=27940|54=2|55=PFBCOLOM|59=0|60=20150519-14:00:53.595|63=3|100=XBOG|207=XBOG|583=-6a58cd62c234b255|453=1|448=LVARB|447=D|452=1|10=136|
20150519-14:00:53.711: 8=FIX.4.4|9=348|35=8|57=062X01|128=LRVORBVC|115=BVC062|34=239|49=AMGTOBVC|56=ADRARBXBOG|52=20150519-14:00:53.689|37=201505191563|11=56d313b8a06b4dc3|41=1d925a48a4d5449f|17=14011|150=5|39=0|63=4|48=PFBCOLOM|22=99|167=CS|54=2|38=4000|40=2|44=27940|59=0|151=4000|14=0|60=20150519-14:00:53.000|31=0|32=0|6=0|55=PFBCOLOM|453=1|448=062|447=D|452=1|583=-6a58cd62c234b255|10=254|
20150519-14:01:10.090: 8=FIX.4.4|9=253|35=G|34=233|49=ADRARBXBOG|52=20150519-14:01:10.090|56=AMGTOBVC|1=881|11=6d1bca5f368c4f0b|21=1|38=12000|40=2|41=47ad2d714985470f|44=3315|54=1|55=PFAVH|59=0|60=20150519-14:01:10.090|63=3|100=XBOG|207=XBOG|583=-24ffb48c7f94b27f|453=1|448=LVARB|447=D|452=1|10=037|
20150519-14:01:10.212: 8=FIX.4.4|9=343|35=8|57=062X01|128=LRVORBVC|115=BVC062|34=240|49=AMGTOBVC|56=ADRARBXBOG|52=20150519-14:01:10.178|37=201505191066|11=6d1bca5f368c4f0b|41=47ad2d714985470f|17=14052|150=5|39=0|63=4|48=PFAVH|22=99|167=CS|54=1|38=12000|40=2|44=3315|59=0|151=12000|14=0|60=20150519-14:01:10.000|31=0|32=0|6=0|55=PFAVH|453=1|448=062|447=D|452=1|583=-24ffb48c7f94b27f|10=242|
20150519-14:01:10.943: 8=FIX.4.4|9=253|35=G|34=234|49=ADRARBXBOG|52=20150519-14:01:10.943|56=AMGTOBVC|1=881|11=72ab8ba304874462|21=1|38=12000|40=2|41=3528de3c62174db0|44=3360|54=2|55=PFAVH|59=0|60=20150519-14:01:10.943|63=3|100=XBOG|207=XBOG|583=-24ffb48c7f94b27f|453=1|448=LVARB|447=D|452=1|10=152|
20150519-14:01:11.057: 8=FIX.4.4|9=343|35=8|57=062X01|128=LRVORBVC|115=BVC062|34=241|49=AMGTOBVC|56=ADRARBXBOG|52=20150519-14:01:11.036|37=201505191564|11=72ab8ba304874462|41=3528de3c62174db0|17=14064|150=5|39=0|63=4|48=PFAVH|22=99|167=CS|54=2|38=12000|40=2|44=3360|59=0|151=12000|14=0|60=20150519-14:01:10.000|31=0|32=0|6=0|55=PFAVH|453=1|448=062|447=D|452=1|583=-24ffb48c7f94b27f|10=087|
20150519-14:01:27.948: 8=FIX.4.4|9=256|35=G|34=235|49=ADRARBXBOG|52=20150519-14:01:27.948|56=AMGTOBVC|1=881|11=21b5a66164694e8b|21=1|38=4000|40=2|41=56d313b8a06b4dc3|44=27960|54=2|55=PFBCOLOM|59=0|60=20150519-14:01:27.948|63=3|100=XBOG|207=XBOG|583=-6a58cd62c234b255|453=1|448=LVARB|447=D|452=1|10=098|
20150519-14:01:28.064: 8=FIX.4.4|9=348|35=8|57=062X01|128=LRVORBVC|115=BVC062|34=242|49=AMGTOBVC|56=ADRARBXBOG|52=20150519-14:01:28.039|37=201505191563|11=21b5a66164694e8b|41=56d313b8a06b4dc3|17=14151|150=5|39=0|63=4|48=PFBCOLOM|22=99|167=CS|54=2|38=4000|40=2|44=27960|59=0|151=4000|14=0|60=20150519-14:01:28.000|31=0|32=0|6=0|55=PFBCOLOM|453=1|448=062|447=D|452=1|583=-6a58cd62c234b255|10=199|
20150519-14:01:31.555: 8=FIX.4.4|9=253|35=G|34=236|49=ADRARBXBOG|52=20150519-14:01:31.554|56=AMGTOBVC|1=881|11=7bfb90c0ebb74029|21=1|38=12000|40=2|41=6d1bca5f368c4f0b|44=3310|54=1|55=PFAVH|59=0|60=20150519-14:01:31.554|63=3|100=XBOG|207=XBOG|583=-24ffb48c7f94b27f|453=1|448=LVARB|447=D|452=1|10=182|
20150519-14:01:31.696: 8=FIX.4.4|9=343|35=8|57=062X01|128=LRVORBVC|115=BVC062|34=243|49=AMGTOBVC|56=ADRARBXBOG|52=20150519-14:01:31.643|37=201505191066|11=7bfb90c0ebb74029|41=6d1bca5f368c4f0b|17=14171|150=5|39=0|63=4|48=PFAVH|22=99|167=CS|54=1|38=12000|40=2|44=3310|59=0|151=12000|14=0|60=20150519-14:01:31.000|31=0|32=0|6=0|55=PFAVH|453=1|448=062|447=D|452=1|583=-24ffb48c7f94b27f|10=120|
20150519-14:01:32.169: 8=FIX.4.4|9=253|35=G|34=237|49=ADRARBXBOG|52=20150519-14:01:32.168|56=AMGTOBVC|1=881|11=68d76d6addf44961|21=1|38=12000|40=2|41=7bfb90c0ebb74029|44=3305|54=1|55=PFAVH|59=0|60=20150519-14:01:32.168|63=3|100=XBOG|207=XBOG|583=-24ffb48c7f94b27f|453=1|448=LVARB|447=D|452=1|10=115|
20150519-14:01:32.281: 8=FIX.4.4|9=343|35=8|57=062X01|128=LRVORBVC|115=BVC062|34=244|49=AMGTOBVC|56=ADRARBXBOG|52=20150519-14:01:32.251|37=201505191066|11=68d76d6addf44961|41=7bfb90c0ebb74029|17=14177|150=5|39=0|63=4|48=PFAVH|22=99|167=CS|54=1|38=12000|40=2|44=3305|59=0|151=12000|14=0|60=20150519-14:01:32.000|31=0|32=0|6=0|55=PFAVH|453=1|448=062|447=D|452=1|583=-24ffb48c7f94b27f|10=052|
20150519-14:01:33.017: 8=FIX.4.4|9=256|35=G|34=238|49=ADRARBXBOG|52=20150519-14:01:33.017|56=AMGTOBVC|1=881|11=23c1ebe1ba76411c|21=1|38=4000|40=2|41=33e4be997c0f4aca|44=27700|54=1|55=PFBCOLOM|59=0|60=20150519-14:01:33.017|63=3|100=XBOG|207=XBOG|583=-6a58cd62c234b255|453=1|448=LVARB|447=D|452=1|10=033|
20150519-14:01:33.018: 8=FIX.4.4|9=257|35=G|34=239|49=ADRARBXBOG|52=20150519-14:01:33.018|56=AMGTOBVC|1=881|11=-79e8c78f6d17b739|21=1|38=4000|40=2|41=21b5a66164694e8b|44=27940|54=2|55=PFBCOLOM|59=0|60=20150519-14:01:33.017|63=3|100=XBOG|207=XBOG|583=-6a58cd62c234b255|453=1|448=LVARB|447=D|452=1|10=104|
20150519-14:01:33.140: 8=FIX.4.4|9=348|35=8|57=062X01|128=LRVORBVC|115=BVC062|34=245|49=AMGTOBVC|56=ADRARBXBOG|52=20150519-14:01:33.109|37=201505191602|11=23c1ebe1ba76411c|41=33e4be997c0f4aca|17=14189|150=5|39=0|63=4|48=PFBCOLOM|22=99|167=CS|54=1|38=4000|40=2|44=27700|59=0|151=4000|14=0|60=20150519-14:01:33.000|31=0|32=0|6=0|55=PFBCOLOM|453=1|448=062|447=D|452=1|583=-6a58cd62c234b255|10=161|
20150519-14:01:33.147: 8=FIX.4.4|9=349|35=8|57=062X01|128=LRVORBVC|115=BVC062|34=246|49=AMGTOBVC|56=ADRARBXBOG|52=20150519-14:01:33.125|37=201505191563|11=-79e8c78f6d17b739|41=21b5a66164694e8b|17=14190|150=5|39=0|63=4|48=PFBCOLOM|22=99|167=CS|54=2|38=4000|40=2|44=27940|59=0|151=4000|14=0|60=20150519-14:01:33.000|31=0|32=0|6=0|55=PFBCOLOM|453=1|448=062|447=D|452=1|583=-6a58cd62c234b255|10=227|
20150519-14:01:37.510: 8=FIX.4.4|9=258|35=G|34=240|49=ADRARBXBOG|52=20150519-14:01:37.509|56=AMGTOBVC|1=881|11=-3ff927bbc3fabb49|21=1|38=4000|40=2|41=-79e8c78f6d17b739|44=27920|54=2|55=PFBCOLOM|59=0|60=20150519-14:01:37.509|63=3|100=XBOG|207=XBOG|583=-6a58cd62c234b255|453=1|448=LVARB|447=D|452=1|10=142|
20150519-14:01:37.626: 8=FIX.4.4|9=350|35=8|57=062X01|128=LRVORBVC|115=BVC062|34=247|49=AMGTOBVC|56=ADRARBXBOG|52=20150519-14:01:37.602|37=201505191563|11=-3ff927bbc3fabb49|41=-79e8c78f6d17b739|17=14221|150=5|39=0|63=4|48=PFBCOLOM|22=99|167=CS|54=2|38=4000|40=2|44=27920|59=0|151=4000|14=0|60=20150519-14:01:37.000|31=0|32=0|6=0|55=PFBCOLOM|453=1|448=062|447=D|452=1|583=-6a58cd62c234b255|10=249|
20150519-14:01:39.300: 8=FIX.4.4|9=253|35=G|34=241|49=ADRARBXBOG|52=20150519-14:01:39.300|56=AMGTOBVC|1=881|11=794e351bf6104e0c|21=1|38=12000|40=2|41=72ab8ba304874462|44=3355|54=2|55=PFAVH|59=0|60=20150519-14:01:39.300|63=3|100=XBOG|207=XBOG|583=-24ffb48c7f94b27f|453=1|448=LVARB|447=D|452=1|10=152|
20150519-14:01:39.414: 8=FIX.4.4|9=343|35=8|57=062X01|128=LRVORBVC|115=BVC062|34=248|49=AMGTOBVC|56=ADRARBXBOG|52=20150519-14:01:39.396|37=201505191564|11=794e351bf6104e0c|41=72ab8ba304874462|17=14237|150=5|39=0|63=4|48=PFAVH|22=99|167=CS|54=2|38=12000|40=2|44=3355|59=0|151=12000|14=0|60=20150519-14:01:39.000|31=0|32=0|6=0|55=PFAVH|453=1|448=062|447=D|452=1|583=-24ffb48c7f94b27f|10=132|
20150519-14:01:42.509: 8=FIX.4.4|9=258|35=G|34=242|49=ADRARBXBOG|52=20150519-14:01:42.509|56=AMGTOBVC|1=881|11=-324f13dbf42dbe5e|21=1|38=4000|40=2|41=-3ff927bbc3fabb49|44=27940|54=2|55=PFBCOLOM|59=0|60=20150519-14:01:42.509|63=3|100=XBOG|207=XBOG|583=-6a58cd62c234b255|453=1|448=LVARB|447=D|452=1|10=248|
20150519-14:01:42.658: 8=FIX.4.4|9=350|35=8|57=062X01|128=LRVORBVC|115=BVC062|34=249|49=AMGTOBVC|56=ADRARBXBOG|52=20150519-14:01:42.625|37=201505191563|11=-324f13dbf42dbe5e|41=-3ff927bbc3fabb49|17=14256|150=5|39=0|63=4|48=PFBCOLOM|22=99|167=CS|54=2|38=4000|40=2|44=27940|59=0|151=4000|14=0|60=20150519-14:01:42.000|31=0|32=0|6=0|55=PFBCOLOM|453=1|448=062|447=D|452=1|583=-6a58cd62c234b255|10=112|
20150519-14:01:46.307: 8=FIX.4.4|9=254|35=G|34=243|49=ADRARBXBOG|52=20150519-14:01:46.307|56=AMGTOBVC|1=881|11=-7137a4d13f2bba7f|21=1|38=12000|40=2|41=68d76d6addf44961|44=3310|54=1|55=PFAVH|59=0|60=20150519-14:01:46.307|63=3|100=XBOG|207=XBOG|583=-24ffb48c7f94b27f|453=1|448=LVARB|447=D|452=1|10=151|
20150519-14:01:46.425: 8=FIX.4.4|9=344|35=8|57=062X01|128=LRVORBVC|115=BVC062|34=250|49=AMGTOBVC|56=ADRARBXBOG|52=20150519-14:01:46.400|37=201505191066|11=-7137a4d13f2bba7f|41=68d76d6addf44961|17=14283|150=5|39=0|63=4|48=PFAVH|22=99|167=CS|54=1|38=12000|40=2|44=3310|59=0|151=12000|14=0|60=20150519-14:01:46.000|31=0|32=0|6=0|55=PFAVH|453=1|448=062|447=D|452=1|583=-24ffb48c7f94b27f|10=092|
20150519-14:01:46.437: 8=FIX.4.4|9=255|35=G|34=244|49=ADRARBXBOG|52=20150519-14:01:46.437|56=AMGTOBVC|1=881|11=-542504d413f9bf6e|21=1|38=12000|40=2|41=-7137a4d13f2bba7f|44=3305|54=1|55=PFAVH|59=0|60=20150519-14:01:46.437|63=3|100=XBOG|207=XBOG|583=-24ffb48c7f94b27f|453=1|448=LVARB|447=D|452=1|10=148|
20150519-14:01:46.546: 8=FIX.4.4|9=345|35=8|57=062X01|128=LRVORBVC|115=BVC062|34=251|49=AMGTOBVC|56=ADRARBXBOG|52=20150519-14:01:46.525|37=201505191066|11=-542504d413f9bf6e|41=-7137a4d13f2bba7f|17=14285|150=5|39=0|63=4|48=PFAVH|22=99|167=CS|54=1|38=12000|40=2|44=3305|59=0|151=12000|14=0|60=20150519-14:01:46.000|31=0|32=0|6=0|55=PFAVH|453=1|448=062|447=D|452=1|583=-24ffb48c7f94b27f|10=091|
20150519-14:01:47.955: 8=FIX.4.4|9=257|35=G|34=245|49=ADRARBXBOG|52=20150519-14:01:47.955|56=AMGTOBVC|1=881|11=-9e4e04d1023bec1|21=1|38=4000|40=2|41=-324f13dbf42dbe5e|44=27960|54=2|55=PFBCOLOM|59=0|60=20150519-14:01:47.955|63=3|100=XBOG|207=XBOG|583=-6a58cd62c234b255|453=1|448=LVARB|447=D|452=1|10=061|
