20150519-11:16:07.971: 8=FIX.4.4|9=70|35=5|34=1|49=LVBSG|52=20150519-11:16:07.971|56=FROMADRXBOG_XNYSE_BETA|10=010|
20150519-11:16:08.896: 8=FIX.4.4|9=70|35=5|34=1|49=LVBSG|52=20150519-11:16:08.896|56=FROMADRXBOG_XNYSE_BETA|10=017|
20150519-11:16:08.919: 8=FIX.4.4|9=0164|35=5|49=FROMADRXBOG_XNYSE_BETA|56=LVBSG|34=1|52=20150519-11:16:08|58=00100000004crxi_1891- CODE: 1-200-5: Expecting Logon but got Logout: disconnecting immediately|10=097|
20150519-11:16:09.902: 8=FIX.4.4|9=88|35=A|34=1|49=LVBSG|52=20150519-11:16:09.902|56=FROMADRXBOG_XNYSE_BETA|98=0|108=60|141=Y|10=100|
20150519-11:16:09.905: 8=FIX.4.4|9=0084|35=A|49=FROMADRXBOG_XNYSE_BETA|56=LVBSG|34=1|52=20150519-11:16:09|98=0|108=60|141=Y|10=247|
20150519-11:17:01.004: 8=FIX.4.4|9=0094|35=1|49=FROMADRXBOG_XNYSE_BETA|56=LVBSG|34=2|52=20150519-11:17:01|112=Appia-20150519-11:17:01|10=230|
20150519-11:17:01.005: 8=FIX.4.4|9=98|35=0|34=2|49=LVBSG|52=20150519-11:17:01.005|56=FROMADRXBOG_XNYSE_BETA|112=Appia-20150519-11:17:01|10=076|
20150519-11:18:01.004: 8=FIX.4.4|9=0066|35=0|49=FROMADRXBOG_XNYSE_BETA|56=LVBSG|34=3|52=20150519-11:18:01|10=153|
20150519-11:18:01.005: 8=FIX.4.4|9=70|35=0|34=3|49=LVBSG|52=20150519-11:18:01.005|56=FROMADRXBOG_XNYSE_BETA|10=247|
20150519-11:19:01.005: 8=FIX.4.4|9=0066|35=0|49=FROMADRXBOG_XNYSE_BETA|56=LVBSG|34=4|52=20150519-11:19:01|10=155|
20150519-11:19:01.005: 8=FIX.4.4|9=70|35=0|34=4|49=LVBSG|52=20150519-11:19:01.005|56=FROMADRXBOG_XNYSE_BETA|10=249|
20150519-11:20:01.006: 8=FIX.4.4|9=0066|35=0|49=FROMADRXBOG_XNYSE_BETA|56=LVBSG|34=5|52=20150519-11:20:01|10=148|
20150519-11:20:01.007: 8=FIX.4.4|9=70|35=0|34=5|49=LVBSG|52=20150519-11:20:01.007|56=FROMADRXBOG_XNYSE_BETA|10=244|
20150519-11:21:01.006: 8=FIX.4.4|9=0066|35=0|49=FROMADRXBOG_XNYSE_BETA|56=LVBSG|34=6|52=20150519-11:21:01|10=150|
20150519-11:21:01.006: 8=FIX.4.4|9=70|35=0|34=6|49=LVBSG|52=20150519-11:21:01.006|56=FROMADRXBOG_XNYSE_BETA|10=245|
20150519-11:22:01.005: 8=FIX.4.4|9=0066|35=0|49=FROMADRXBOG_XNYSE_BETA|56=LVBSG|34=7|52=20150519-11:22:01|10=152|
20150519-11:22:01.006: 8=FIX.4.4|9=70|35=0|34=7|49=LVBSG|52=20150519-11:22:01.006|56=FROMADRXBOG_XNYSE_BETA|10=247|
20150519-11:23:01.012: 8=FIX.4.4|9=0066|35=0|49=FROMADRXBOG_XNYSE_BETA|56=LVBSG|34=8|52=20150519-11:23:01|10=154|
20150519-11:23:01.014: 8=FIX.4.4|9=70|35=0|34=8|49=LVBSG|52=20150519-11:23:01.014|56=FROMADRXBOG_XNYSE_BETA|10=248|
20150519-11:24:01.006: 8=FIX.4.4|9=0066|35=0|49=FROMADRXBOG_XNYSE_BETA|56=LVBSG|34=9|52=20150519-11:24:01|10=156|
20150519-11:24:01.896: 8=FIX.4.4|9=70|35=0|34=9|49=LVBSG|52=20150519-11:24:01.896|56=FROMADRXBOG_XNYSE_BETA|10=012|
20150519-11:25:01.007: 8=FIX.4.4|9=0067|35=0|49=FROMADRXBOG_XNYSE_BETA|56=LVBSG|34=10|52=20150519-11:25:01|10=198|
20150519-11:25:02.895: 8=FIX.4.4|9=71|35=0|34=10|49=LVBSG|52=20150519-11:25:02.895|56=FROMADRXBOG_XNYSE_BETA|10=054|
20150519-11:26:01.007: 8=FIX.4.4|9=0067|35=0|49=FROMADRXBOG_XNYSE_BETA|56=LVBSG|34=11|52=20150519-11:26:01|10=200|
20150519-11:26:02.896: 8=FIX.4.4|9=71|35=0|34=11|49=LVBSG|52=20150519-11:26:02.896|56=FROMADRXBOG_XNYSE_BETA|10=057|
20150519-11:27:01.007: 8=FIX.4.4|9=0067|35=0|49=FROMADRXBOG_XNYSE_BETA|56=LVBSG|34=12|52=20150519-11:27:01|10=202|
20150519-11:27:02.896: 8=FIX.4.4|9=71|35=0|34=12|49=LVBSG|52=20150519-11:27:02.896|56=FROMADRXBOG_XNYSE_BETA|10=059|
20150519-11:28:01.008: 8=FIX.4.4|9=0067|35=0|49=FROMADRXBOG_XNYSE_BETA|56=LVBSG|34=13|52=20150519-11:28:01|10=204|
20150519-11:28:02.896: 8=FIX.4.4|9=71|35=0|34=13|49=LVBSG|52=20150519-11:28:02.896|56=FROMADRXBOG_XNYSE_BETA|10=061|
20150519-11:29:01.008: 8=FIX.4.4|9=0067|35=0|49=FROMADRXBOG_XNYSE_BETA|56=LVBSG|34=14|52=20150519-11:29:01|10=206|
20150519-11:29:02.896: 8=FIX.4.4|9=71|35=0|34=14|49=LVBSG|52=20150519-11:29:02.896|56=FROMADRXBOG_XNYSE_BETA|10=063|
20150519-11:30:01.009: 8=FIX.4.4|9=0067|35=0|49=FROMADRXBOG_XNYSE_BETA|56=LVBSG|34=15|52=20150519-11:30:01|10=199|
20150519-11:30:02.896: 8=FIX.4.4|9=71|35=0|34=15|49=LVBSG|52=20150519-11:30:02.896|56=FROMADRXBOG_XNYSE_BETA|10=056|
20150519-11:31:01.009: 8=FIX.4.4|9=0067|35=0|49=FROMADRXBOG_XNYSE_BETA|56=LVBSG|34=16|52=20150519-11:31:01|10=201|
20150519-11:31:03.895: 8=FIX.4.4|9=71|35=0|34=16|49=LVBSG|52=20150519-11:31:03.895|56=FROMADRXBOG_XNYSE_BETA|10=058|
20150519-11:32:01.009: 8=FIX.4.4|9=0067|35=0|49=FROMADRXBOG_XNYSE_BETA|56=LVBSG|34=17|52=20150519-11:32:01|10=203|
20150519-11:32:03.896: 8=FIX.4.4|9=71|35=0|34=17|49=LVBSG|52=20150519-11:32:03.896|56=FROMADRXBOG_XNYSE_BETA|10=061|
20150519-11:33:01.010: 8=FIX.4.4|9=0067|35=0|49=FROMADRXBOG_XNYSE_BETA|56=LVBSG|34=18|52=20150519-11:33:01|10=205|
20150519-11:33:04.895: 8=FIX.4.4|9=71|35=0|34=18|49=LVBSG|52=20150519-11:33:04.895|56=FROMADRXBOG_XNYSE_BETA|10=063|
20150519-11:34:01.010: 8=FIX.4.4|9=0067|35=0|49=FROMADRXBOG_XNYSE_BETA|56=LVBSG|34=19|52=20150519-11:34:01|10=207|
20150519-11:34:04.895: 8=FIX.4.4|9=71|35=0|34=19|49=LVBSG|52=20150519-11:34:04.895|56=FROMADRXBOG_XNYSE_BETA|10=065|
20150519-11:35:01.010: 8=FIX.4.4|9=0067|35=0|49=FROMADRXBOG_XNYSE_BETA|56=LVBSG|34=20|52=20150519-11:35:01|10=200|
20150519-11:35:04.895: 8=FIX.4.4|9=71|35=0|34=20|49=LVBSG|52=20150519-11:35:04.895|56=FROMADRXBOG_XNYSE_BETA|10=058|
20150519-11:36:01.012: 8=FIX.4.4|9=0067|35=0|49=FROMADRXBOG_XNYSE_BETA|56=LVBSG|34=21|52=20150519-11:36:01|10=202|
20150519-11:36:04.896: 8=FIX.4.4|9=71|35=0|34=21|49=LVBSG|52=20150519-11:36:04.896|56=FROMADRXBOG_XNYSE_BETA|10=061|
20150519-11:37:01.011: 8=FIX.4.4|9=0067|35=0|49=FROMADRXBOG_XNYSE_BETA|56=LVBSG|34=22|52=20150519-11:37:01|10=204|
20150519-11:37:04.896: 8=FIX.4.4|9=71|35=0|34=22|49=LVBSG|52=20150519-11:37:04.896|56=FROMADRXBOG_XNYSE_BETA|10=063|
20150519-11:38:01.011: 8=FIX.4.4|9=0067|35=0|49=FROMADRXBOG_XNYSE_BETA|56=LVBSG|34=23|52=20150519-11:38:01|10=206|
20150519-11:38:04.896: 8=FIX.4.4|9=71|35=0|34=23|49=LVBSG|52=20150519-11:38:04.896|56=FROMADRXBOG_XNYSE_BETA|10=065|
20150519-11:39:01.011: 8=FIX.4.4|9=0067|35=0|49=FROMADRXBOG_XNYSE_BETA|56=LVBSG|34=24|52=20150519-11:39:01|10=208|
20150519-11:39:05.895: 8=FIX.4.4|9=71|35=0|34=24|49=LVBSG|52=20150519-11:39:05.895|56=FROMADRXBOG_XNYSE_BETA|10=067|
20150519-11:40:01.011: 8=FIX.4.4|9=0067|35=0|49=FROMADRXBOG_XNYSE_BETA|56=LVBSG|34=25|52=20150519-11:40:01|10=201|
20150519-11:40:05.896: 8=FIX.4.4|9=71|35=0|34=25|49=LVBSG|52=20150519-11:40:05.896|56=FROMADRXBOG_XNYSE_BETA|10=061|
20150519-11:41:01.012: 8=FIX.4.4|9=0067|35=0|49=FROMADRXBOG_XNYSE_BETA|56=LVBSG|34=26|52=20150519-11:41:01|10=203|
20150519-11:41:06.896: 8=FIX.4.4|9=71|35=0|34=26|49=LVBSG|52=20150519-11:41:06.896|56=FROMADRXBOG_XNYSE_BETA|10=064|
20150519-11:42:01.012: 8=FIX.4.4|9=0067|35=0|49=FROMADRXBOG_XNYSE_BETA|56=LVBSG|34=27|52=20150519-11:42:01|10=205|
20150519-11:42:06.897: 8=FIX.4.4|9=71|35=0|34=27|49=LVBSG|52=20150519-11:42:06.897|56=FROMADRXBOG_XNYSE_BETA|10=067|
20150519-11:43:01.013: 8=FIX.4.4|9=0067|35=0|49=FROMADRXBOG_XNYSE_BETA|56=LVBSG|34=28|52=20150519-11:43:01|10=207|
20150519-11:43:07.896: 8=FIX.4.4|9=71|35=0|34=28|49=LVBSG|52=20150519-11:43:07.896|56=FROMADRXBOG_XNYSE_BETA|10=069|
20150519-11:44:01.014: 8=FIX.4.4|9=0067|35=0|49=FROMADRXBOG_XNYSE_BETA|56=LVBSG|34=29|52=20150519-11:44:01|10=209|
20150519-11:44:08.895: 8=FIX.4.4|9=71|35=0|34=29|49=LVBSG|52=20150519-11:44:08.895|56=FROMADRXBOG_XNYSE_BETA|10=071|
20150519-11:45:01.013: 8=FIX.4.4|9=0067|35=0|49=FROMADRXBOG_XNYSE_BETA|56=LVBSG|34=30|52=20150519-11:45:01|10=202|
20150519-11:45:08.896: 8=FIX.4.4|9=71|35=0|34=30|49=LVBSG|52=20150519-11:45:08.896|56=FROMADRXBOG_XNYSE_BETA|10=065|
20150519-11:46:01.018: 8=FIX.4.4|9=0067|35=0|49=FROMADRXBOG_XNYSE_BETA|56=LVBSG|34=31|52=20150519-11:46:01|10=204|
20150519-11:46:09.896: 8=FIX.4.4|9=71|35=0|34=31|49=LVBSG|52=20150519-11:46:09.896|56=FROMADRXBOG_XNYSE_BETA|10=068|
20150519-11:47:01.018: 8=FIX.4.4|9=0067|35=0|49=FROMADRXBOG_XNYSE_BETA|56=LVBSG|34=32|52=20150519-11:47:01|10=206|
20150519-11:47:09.896: 8=FIX.4.4|9=71|35=0|34=32|49=LVBSG|52=20150519-11:47:09.896|56=FROMADRXBOG_XNYSE_BETA|10=070|
20150519-11:48:01.015: 8=FIX.4.4|9=0067|35=0|49=FROMADRXBOG_XNYSE_BETA|56=LVBSG|34=33|52=20150519-11:48:01|10=208|
20150519-11:48:10.896: 8=FIX.4.4|9=71|35=0|34=33|49=LVBSG|52=20150519-11:48:10.896|56=FROMADRXBOG_XNYSE_BETA|10=064|
20150519-11:49:01.017: 8=FIX.4.4|9=0067|35=0|49=FROMADRXBOG_XNYSE_BETA|56=LVBSG|34=34|52=20150519-11:49:01|10=210|
20150519-11:49:10.896: 8=FIX.4.4|9=71|35=0|34=34|49=LVBSG|52=20150519-11:49:10.896|56=FROMADRXBOG_XNYSE_BETA|10=066|
20150519-11:50:01.017: 8=FIX.4.4|9=0067|35=0|49=FROMADRXBOG_XNYSE_BETA|56=LVBSG|34=35|52=20150519-11:50:01|10=203|
20150519-11:50:11.895: 8=FIX.4.4|9=71|35=0|34=35|49=LVBSG|52=20150519-11:50:11.895|56=FROMADRXBOG_XNYSE_BETA|10=059|
20150519-11:51:01.018: 8=FIX.4.4|9=0067|35=0|49=FROMADRXBOG_XNYSE_BETA|56=LVBSG|34=36|52=20150519-11:51:01|10=205|
20150519-11:51:11.895: 8=FIX.4.4|9=71|35=0|34=36|49=LVBSG|52=20150519-11:51:11.895|56=FROMADRXBOG_XNYSE_BETA|10=061|
20150519-11:52:01.017: 8=FIX.4.4|9=0067|35=0|49=FROMADRXBOG_XNYSE_BETA|56=LVBSG|34=37|52=20150519-11:52:01|10=207|
20150519-11:52:11.895: 8=FIX.4.4|9=71|35=0|34=37|49=LVBSG|52=20150519-11:52:11.895|56=FROMADRXBOG_XNYSE_BETA|10=063|
20150519-11:53:01.017: 8=FIX.4.4|9=0067|35=0|49=FROMADRXBOG_XNYSE_BETA|56=LVBSG|34=38|52=20150519-11:53:01|10=209|
20150519-11:53:11.895: 8=FIX.4.4|9=71|35=0|34=38|49=LVBSG|52=20150519-11:53:11.895|56=FROMADRXBOG_XNYSE_BETA|10=065|
20150519-11:54:01.019: 8=FIX.4.4|9=0067|35=0|49=FROMADRXBOG_XNYSE_BETA|56=LVBSG|34=39|52=20150519-11:54:01|10=211|
20150519-11:54:11.896: 8=FIX.4.4|9=71|35=0|34=39|49=LVBSG|52=20150519-11:54:11.896|56=FROMADRXBOG_XNYSE_BETA|10=068|
20150519-11:55:01.018: 8=FIX.4.4|9=0067|35=0|49=FROMADRXBOG_XNYSE_BETA|56=LVBSG|34=40|52=20150519-11:55:01|10=204|
20150519-11:55:12.895: 8=FIX.4.4|9=71|35=0|34=40|49=LVBSG|52=20150519-11:55:12.895|56=FROMADRXBOG_XNYSE_BETA|10=061|
20150519-11:56:01.018: 8=FIX.4.4|9=0067|35=0|49=FROMADRXBOG_XNYSE_BETA|56=LVBSG|34=41|52=20150519-11:56:01|10=206|
20150519-11:56:12.896: 8=FIX.4.4|9=71|35=0|34=41|49=LVBSG|52=20150519-11:56:12.896|56=FROMADRXBOG_XNYSE_BETA|10=064|
20150519-11:57:01.018: 8=FIX.4.4|9=0067|35=0|49=FROMADRXBOG_XNYSE_BETA|56=LVBSG|34=42|52=20150519-11:57:01|10=208|
20150519-11:57:13.895: 8=FIX.4.4|9=71|35=0|34=42|49=LVBSG|52=20150519-11:57:13.895|56=FROMADRXBOG_XNYSE_BETA|10=066|
20150519-11:58:01.018: 8=FIX.4.4|9=0067|35=0|49=FROMADRXBOG_XNYSE_BETA|56=LVBSG|34=43|52=20150519-11:58:01|10=210|
20150519-11:58:13.896: 8=FIX.4.4|9=71|35=0|34=43|49=LVBSG|52=20150519-11:58:13.896|56=FROMADRXBOG_XNYSE_BETA|10=069|
20150519-11:59:01.018: 8=FIX.4.4|9=0067|35=0|49=FROMADRXBOG_XNYSE_BETA|56=LVBSG|34=44|52=20150519-11:59:01|10=212|
20150519-11:59:14.895: 8=FIX.4.4|9=71|35=0|34=44|49=LVBSG|52=20150519-11:59:14.895|56=FROMADRXBOG_XNYSE_BETA|10=071|
20150519-12:00:01.018: 8=FIX.4.4|9=0067|35=0|49=FROMADRXBOG_XNYSE_BETA|56=LVBSG|34=45|52=20150519-12:00:01|10=200|
20150519-12:00:14.895: 8=FIX.4.4|9=71|35=0|34=45|49=LVBSG|52=20150519-12:00:14.895|56=FROMADRXBOG_XNYSE_BETA|10=059|
20150519-12:01:01.018: 8=FIX.4.4|9=0067|35=0|49=FROMADRXBOG_XNYSE_BETA|56=LVBSG|34=46|52=20150519-12:01:01|10=202|
20150519-12:01:14.895: 8=FIX.4.4|9=71|35=0|34=46|49=LVBSG|52=20150519-12:01:14.895|56=FROMADRXBOG_XNYSE_BETA|10=061|
20150519-12:02:01.020: 8=FIX.4.4|9=0067|35=0|49=FROMADRXBOG_XNYSE_BETA|56=LVBSG|34=47|52=20150519-12:02:01|10=204|
20150519-12:02:14.895: 8=FIX.4.4|9=71|35=0|34=47|49=LVBSG|52=20150519-12:02:14.895|56=FROMADRXBOG_XNYSE_BETA|10=063|
20150519-12:03:01.019: 8=FIX.4.4|9=0067|35=0|49=FROMADRXBOG_XNYSE_BETA|56=LVBSG|34=48|52=20150519-12:03:01|10=206|
20150519-12:03:14.895: 8=FIX.4.4|9=71|35=0|34=48|49=LVBSG|52=20150519-12:03:14.895|56=FROMADRXBOG_XNYSE_BETA|10=065|
20150519-12:04:01.046: 8=FIX.4.4|9=0067|35=0|49=FROMADRXBOG_XNYSE_BETA|56=LVBSG|34=49|52=20150519-12:04:01|10=208|
20150519-12:04:14.896: 8=FIX.4.4|9=71|35=0|34=49|49=LVBSG|52=20150519-12:04:14.896|56=FROMADRXBOG_XNYSE_BETA|10=068|
20150519-12:05:01.041: 8=FIX.4.4|9=0067|35=0|49=FROMADRXBOG_XNYSE_BETA|56=LVBSG|34=50|52=20150519-12:05:01|10=201|
20150519-12:05:14.896: 8=FIX.4.4|9=71|35=0|34=50|49=LVBSG|52=20150519-12:05:14.896|56=FROMADRXBOG_XNYSE_BETA|10=061|
20150519-12:06:01.052: 8=FIX.4.4|9=0067|35=0|49=FROMADRXBOG_XNYSE_BETA|56=LVBSG|34=51|52=20150519-12:06:01|10=203|
20150519-12:06:14.896: 8=FIX.4.4|9=71|35=0|34=51|49=LVBSG|52=20150519-12:06:14.896|56=FROMADRXBOG_XNYSE_BETA|10=063|
20150519-12:07:01.041: 8=FIX.4.4|9=0067|35=0|49=FROMADRXBOG_XNYSE_BETA|56=LVBSG|34=52|52=20150519-12:07:01|10=205|
20150519-12:07:15.895: 8=FIX.4.4|9=71|35=0|34=52|49=LVBSG|52=20150519-12:07:15.895|56=FROMADRXBOG_XNYSE_BETA|10=065|
20150519-12:08:01.029: 8=FIX.4.4|9=0067|35=0|49=FROMADRXBOG_XNYSE_BETA|56=LVBSG|34=53|52=20150519-12:08:01|10=207|
20150519-12:08:15.896: 8=FIX.4.4|9=71|35=0|34=53|49=LVBSG|52=20150519-12:08:15.896|56=FROMADRXBOG_XNYSE_BETA|10=068|
20150519-12:09:01.040: 8=FIX.4.4|9=0067|35=0|49=FROMADRXBOG_XNYSE_BETA|56=LVBSG|34=54|52=20150519-12:09:01|10=209|
20150519-12:09:15.896: 8=FIX.4.4|9=71|35=0|34=54|49=LVBSG|52=20150519-12:09:15.896|56=FROMADRXBOG_XNYSE_BETA|10=070|
20150519-12:10:01.032: 8=FIX.4.4|9=0067|35=0|49=FROMADRXBOG_XNYSE_BETA|56=LVBSG|34=55|52=20150519-12:10:01|10=202|
20150519-12:10:15.896: 8=FIX.4.4|9=71|35=0|34=55|49=LVBSG|52=20150519-12:10:15.896|56=FROMADRXBOG_XNYSE_BETA|10=063|
20150519-12:11:01.043: 8=FIX.4.4|9=0067|35=0|49=FROMADRXBOG_XNYSE_BETA|56=LVBSG|34=56|52=20150519-12:11:01|10=204|
20150519-12:11:16.895: 8=FIX.4.4|9=71|35=0|34=56|49=LVBSG|52=20150519-12:11:16.895|56=FROMADRXBOG_XNYSE_BETA|10=065|
20150519-12:12:01.022: 8=FIX.4.4|9=0067|35=0|49=FROMADRXBOG_XNYSE_BETA|56=LVBSG|34=57|52=20150519-12:12:01|10=206|
20150519-12:12:16.896: 8=FIX.4.4|9=71|35=0|34=57|49=LVBSG|52=20150519-12:12:16.896|56=FROMADRXBOG_XNYSE_BETA|10=068|
20150519-12:13:01.030: 8=FIX.4.4|9=0067|35=0|49=FROMADRXBOG_XNYSE_BETA|56=LVBSG|34=58|52=20150519-12:13:01|10=208|
20150519-12:13:17.896: 8=FIX.4.4|9=71|35=0|34=58|49=LVBSG|52=20150519-12:13:17.896|56=FROMADRXBOG_XNYSE_BETA|10=071|
20150519-12:14:01.034: 8=FIX.4.4|9=0067|35=0|49=FROMADRXBOG_XNYSE_BETA|56=LVBSG|34=59|52=20150519-12:14:01|10=210|
20150519-12:14:18.895: 8=FIX.4.4|9=71|35=0|34=59|49=LVBSG|52=20150519-12:14:18.895|56=FROMADRXBOG_XNYSE_BETA|10=073|
20150519-12:15:01.034: 8=FIX.4.4|9=0067|35=0|49=FROMADRXBOG_XNYSE_BETA|56=LVBSG|34=60|52=20150519-12:15:01|10=203|
20150519-12:15:18.895: 8=FIX.4.4|9=71|35=0|34=60|49=LVBSG|52=20150519-12:15:18.895|56=FROMADRXBOG_XNYSE_BETA|10=066|
20150519-12:16:01.028: 8=FIX.4.4|9=0067|35=0|49=FROMADRXBOG_XNYSE_BETA|56=LVBSG|34=61|52=20150519-12:16:01|10=205|
20150519-12:16:18.896: 8=FIX.4.4|9=71|35=0|34=61|49=LVBSG|52=20150519-12:16:18.896|56=FROMADRXBOG_XNYSE_BETA|10=069|
20150519-12:17:01.025: 8=FIX.4.4|9=0067|35=0|49=FROMADRXBOG_XNYSE_BETA|56=LVBSG|34=62|52=20150519-12:17:01|10=207|
20150519-12:17:19.895: 8=FIX.4.4|9=71|35=0|34=62|49=LVBSG|52=20150519-12:17:19.895|56=FROMADRXBOG_XNYSE_BETA|10=071|
20150519-12:18:01.020: 8=FIX.4.4|9=0067|35=0|49=FROMADRXBOG_XNYSE_BETA|56=LVBSG|34=63|52=20150519-12:18:01|10=209|
20150519-12:18:19.896: 8=FIX.4.4|9=71|35=0|34=63|49=LVBSG|52=20150519-12:18:19.896|56=FROMADRXBOG_XNYSE_BETA|10=074|
20150519-12:19:01.021: 8=FIX.4.4|9=0067|35=0|49=FROMADRXBOG_XNYSE_BETA|56=LVBSG|34=64|52=20150519-12:19:01|10=211|
20150519-12:19:20.896: 8=FIX.4.4|9=71|35=0|34=64|49=LVBSG|52=20150519-12:19:20.896|56=FROMADRXBOG_XNYSE_BETA|10=068|
20150519-12:20:01.032: 8=FIX.4.4|9=0067|35=0|49=FROMADRXBOG_XNYSE_BETA|56=LVBSG|34=65|52=20150519-12:20:01|10=204|
20150519-12:20:21.895: 8=FIX.4.4|9=71|35=0|34=65|49=LVBSG|52=20150519-12:20:21.895|56=FROMADRXBOG_XNYSE_BETA|10=061|
20150519-12:21:01.027: 8=FIX.4.4|9=0067|35=0|49=FROMADRXBOG_XNYSE_BETA|56=LVBSG|34=66|52=20150519-12:21:01|10=206|
20150519-12:21:21.896: 8=FIX.4.4|9=71|35=0|34=66|49=LVBSG|52=20150519-12:21:21.896|56=FROMADRXBOG_XNYSE_BETA|10=064|
20150519-12:22:01.029: 8=FIX.4.4|9=0067|35=0|49=FROMADRXBOG_XNYSE_BETA|56=LVBSG|34=67|52=20150519-12:22:01|10=208|
20150519-12:22:22.896: 8=FIX.4.4|9=71|35=0|34=67|49=LVBSG|52=20150519-12:22:22.896|56=FROMADRXBOG_XNYSE_BETA|10=067|
20150519-12:23:01.022: 8=FIX.4.4|9=0067|35=0|49=FROMADRXBOG_XNYSE_BETA|56=LVBSG|34=68|52=20150519-12:23:01|10=210|
20150519-12:23:23.895: 8=FIX.4.4|9=71|35=0|34=68|49=LVBSG|52=20150519-12:23:23.895|56=FROMADRXBOG_XNYSE_BETA|10=069|
20150519-12:24:01.025: 8=FIX.4.4|9=0067|35=0|49=FROMADRXBOG_XNYSE_BETA|56=LVBSG|34=69|52=20150519-12:24:01|10=212|
20150519-12:24:23.895: 8=FIX.4.4|9=71|35=0|34=69|49=LVBSG|52=20150519-12:24:23.895|56=FROMADRXBOG_XNYSE_BETA|10=071|
20150519-12:25:01.022: 8=FIX.4.4|9=0067|35=0|49=FROMADRXBOG_XNYSE_BETA|56=LVBSG|34=70|52=20150519-12:25:01|10=205|
20150519-12:25:23.895: 8=FIX.4.4|9=71|35=0|34=70|49=LVBSG|52=20150519-12:25:23.895|56=FROMADRXBOG_XNYSE_BETA|10=064|
20150519-12:26:01.025: 8=FIX.4.4|9=0067|35=0|49=FROMADRXBOG_XNYSE_BETA|56=LVBSG|34=71|52=20150519-12:26:01|10=207|
20150519-12:26:23.895: 8=FIX.4.4|9=71|35=0|34=71|49=LVBSG|52=20150519-12:26:23.895|56=FROMADRXBOG_XNYSE_BETA|10=066|
20150519-12:27:01.023: 8=FIX.4.4|9=0067|35=0|49=FROMADRXBOG_XNYSE_BETA|56=LVBSG|34=72|52=20150519-12:27:01|10=209|
20150519-12:27:23.895: 8=FIX.4.4|9=71|35=0|34=72|49=LVBSG|52=20150519-12:27:23.895|56=FROMADRXBOG_XNYSE_BETA|10=068|
20150519-12:28:01.028: 8=FIX.4.4|9=0067|35=0|49=FROMADRXBOG_XNYSE_BETA|56=LVBSG|34=73|52=20150519-12:28:01|10=211|
20150519-12:28:23.896: 8=FIX.4.4|9=71|35=0|34=73|49=LVBSG|52=20150519-12:28:23.896|56=FROMADRXBOG_XNYSE_BETA|10=071|
20150519-12:29:01.023: 8=FIX.4.4|9=0067|35=0|49=FROMADRXBOG_XNYSE_BETA|56=LVBSG|34=74|52=20150519-12:29:01|10=213|
20150519-12:29:23.896: 8=FIX.4.4|9=71|35=0|34=74|49=LVBSG|52=20150519-12:29:23.896|56=FROMADRXBOG_XNYSE_BETA|10=073|
20150519-12:30:01.022: 8=FIX.4.4|9=0067|35=0|49=FROMADRXBOG_XNYSE_BETA|56=LVBSG|34=75|52=20150519-12:30:01|10=206|
20150519-12:30:23.896: 8=FIX.4.4|9=71|35=0|34=75|49=LVBSG|52=20150519-12:30:23.896|56=FROMADRXBOG_XNYSE_BETA|10=066|
20150519-12:31:01.023: 8=FIX.4.4|9=0067|35=0|49=FROMADRXBOG_XNYSE_BETA|56=LVBSG|34=76|52=20150519-12:31:01|10=208|
20150519-12:31:23.896: 8=FIX.4.4|9=71|35=0|34=76|49=LVBSG|52=20150519-12:31:23.896|56=FROMADRXBOG_XNYSE_BETA|10=068|
20150519-12:32:01.023: 8=FIX.4.4|9=0067|35=0|49=FROMADRXBOG_XNYSE_BETA|56=LVBSG|34=77|52=20150519-12:32:01|10=210|
20150519-12:32:24.896: 8=FIX.4.4|9=71|35=0|34=77|49=LVBSG|52=20150519-12:32:24.896|56=FROMADRXBOG_XNYSE_BETA|10=071|
20150519-12:33:01.024: 8=FIX.4.4|9=0067|35=0|49=FROMADRXBOG_XNYSE_BETA|56=LVBSG|34=78|52=20150519-12:33:01|10=212|
20150519-12:33:24.896: 8=FIX.4.4|9=71|35=0|34=78|49=LVBSG|52=20150519-12:33:24.896|56=FROMADRXBOG_XNYSE_BETA|10=073|
20150519-12:34:01.024: 8=FIX.4.4|9=0067|35=0|49=FROMADRXBOG_XNYSE_BETA|56=LVBSG|34=79|52=20150519-12:34:01|10=214|
20150519-12:34:25.896: 8=FIX.4.4|9=71|35=0|34=79|49=LVBSG|52=20150519-12:34:25.896|56=FROMADRXBOG_XNYSE_BETA|10=076|
20150519-12:35:01.029: 8=FIX.4.4|9=0067|35=0|49=FROMADRXBOG_XNYSE_BETA|56=LVBSG|34=80|52=20150519-12:35:01|10=207|
20150519-12:35:25.896: 8=FIX.4.4|9=71|35=0|34=80|49=LVBSG|52=20150519-12:35:25.896|56=FROMADRXBOG_XNYSE_BETA|10=069|
20150519-12:36:01.026: 8=FIX.4.4|9=0067|35=0|49=FROMADRXBOG_XNYSE_BETA|56=LVBSG|34=81|52=20150519-12:36:01|10=209|
20150519-12:36:26.895: 8=FIX.4.4|9=71|35=0|34=81|49=LVBSG|52=20150519-12:36:26.895|56=FROMADRXBOG_XNYSE_BETA|10=071|
20150519-12:37:01.026: 8=FIX.4.4|9=0067|35=0|49=FROMADRXBOG_XNYSE_BETA|56=LVBSG|34=82|52=20150519-12:37:01|10=211|
20150519-12:37:26.896: 8=FIX.4.4|9=71|35=0|34=82|49=LVBSG|52=20150519-12:37:26.896|56=FROMADRXBOG_XNYSE_BETA|10=074|
20150519-12:38:01.026: 8=FIX.4.4|9=0067|35=0|49=FROMADRXBOG_XNYSE_BETA|56=LVBSG|34=83|52=20150519-12:38:01|10=213|
20150519-12:38:26.896: 8=FIX.4.4|9=71|35=0|34=83|49=LVBSG|52=20150519-12:38:26.896|56=FROMADRXBOG_XNYSE_BETA|10=076|
20150519-12:39:01.026: 8=FIX.4.4|9=0067|35=0|49=FROMADRXBOG_XNYSE_BETA|56=LVBSG|34=84|52=20150519-12:39:01|10=215|
20150519-12:39:27.896: 8=FIX.4.4|9=71|35=0|34=84|49=LVBSG|52=20150519-12:39:27.896|56=FROMADRXBOG_XNYSE_BETA|10=079|
20150519-12:40:01.029: 8=FIX.4.4|9=0067|35=0|49=FROMADRXBOG_XNYSE_BETA|56=LVBSG|34=85|52=20150519-12:40:01|10=208|
20150519-12:40:27.896: 8=FIX.4.4|9=71|35=0|34=85|49=LVBSG|52=20150519-12:40:27.896|56=FROMADRXBOG_XNYSE_BETA|10=072|
20150519-12:41:01.026: 8=FIX.4.4|9=0067|35=0|49=FROMADRXBOG_XNYSE_BETA|56=LVBSG|34=86|52=20150519-12:41:01|10=210|
20150519-12:41:27.896: 8=FIX.4.4|9=71|35=0|34=86|49=LVBSG|52=20150519-12:41:27.896|56=FROMADRXBOG_XNYSE_BETA|10=074|
20150519-12:42:01.027: 8=FIX.4.4|9=0067|35=0|49=FROMADRXBOG_XNYSE_BETA|56=LVBSG|34=87|52=20150519-12:42:01|10=212|
20150519-12:42:27.896: 8=FIX.4.4|9=71|35=0|34=87|49=LVBSG|52=20150519-12:42:27.896|56=FROMADRXBOG_XNYSE_BETA|10=076|
20150519-12:43:01.026: 8=FIX.4.4|9=0067|35=0|49=FROMADRXBOG_XNYSE_BETA|56=LVBSG|34=88|52=20150519-12:43:01|10=214|
20150519-12:43:28.896: 8=FIX.4.4|9=71|35=0|34=88|49=LVBSG|52=20150519-12:43:28.896|56=FROMADRXBOG_XNYSE_BETA|10=079|
20150519-12:44:01.027: 8=FIX.4.4|9=0067|35=0|49=FROMADRXBOG_XNYSE_BETA|56=LVBSG|34=89|52=20150519-12:44:01|10=216|
20150519-12:44:29.895: 8=FIX.4.4|9=71|35=0|34=89|49=LVBSG|52=20150519-12:44:29.895|56=FROMADRXBOG_XNYSE_BETA|10=081|
20150519-12:45:01.027: 8=FIX.4.4|9=0067|35=0|49=FROMADRXBOG_XNYSE_BETA|56=LVBSG|34=90|52=20150519-12:45:01|10=209|
20150519-12:45:29.895: 8=FIX.4.4|9=71|35=0|34=90|49=LVBSG|52=20150519-12:45:29.895|56=FROMADRXBOG_XNYSE_BETA|10=074|
20150519-12:46:01.029: 8=FIX.4.4|9=0067|35=0|49=FROMADRXBOG_XNYSE_BETA|56=LVBSG|34=91|52=20150519-12:46:01|10=211|
20150519-12:46:29.895: 8=FIX.4.4|9=71|35=0|34=91|49=LVBSG|52=20150519-12:46:29.895|56=FROMADRXBOG_XNYSE_BETA|10=076|
20150519-12:47:01.033: 8=FIX.4.4|9=0067|35=0|49=FROMADRXBOG_XNYSE_BETA|56=LVBSG|34=92|52=20150519-12:47:01|10=213|
20150519-12:47:29.895: 8=FIX.4.4|9=71|35=0|34=92|49=LVBSG|52=20150519-12:47:29.895|56=FROMADRXBOG_XNYSE_BETA|10=078|
20150519-12:48:01.030: 8=FIX.4.4|9=0067|35=0|49=FROMADRXBOG_XNYSE_BETA|56=LVBSG|34=93|52=20150519-12:48:01|10=215|
20150519-12:48:29.896: 8=FIX.4.4|9=71|35=0|34=93|49=LVBSG|52=20150519-12:48:29.895|56=FROMADRXBOG_XNYSE_BETA|10=080|
20150519-12:49:01.031: 8=FIX.4.4|9=0067|35=0|49=FROMADRXBOG_XNYSE_BETA|56=LVBSG|34=94|52=20150519-12:49:01|10=217|
20150519-12:49:29.896: 8=FIX.4.4|9=71|35=0|34=94|49=LVBSG|52=20150519-12:49:29.896|56=FROMADRXBOG_XNYSE_BETA|10=083|
20150519-12:50:01.031: 8=FIX.4.4|9=0067|35=0|49=FROMADRXBOG_XNYSE_BETA|56=LVBSG|34=95|52=20150519-12:50:01|10=210|
20150519-12:50:30.895: 8=FIX.4.4|9=71|35=0|34=95|49=LVBSG|52=20150519-12:50:30.895|56=FROMADRXBOG_XNYSE_BETA|10=067|
20150519-12:51:01.031: 8=FIX.4.4|9=0067|35=0|49=FROMADRXBOG_XNYSE_BETA|56=LVBSG|34=96|52=20150519-12:51:01|10=212|
20150519-12:51:30.895: 8=FIX.4.4|9=71|35=0|34=96|49=LVBSG|52=20150519-12:51:30.895|56=FROMADRXBOG_XNYSE_BETA|10=069|
20150519-12:52:01.037: 8=FIX.4.4|9=0067|35=0|49=FROMADRXBOG_XNYSE_BETA|56=LVBSG|34=97|52=20150519-12:52:01|10=214|
20150519-12:52:30.896: 8=FIX.4.4|9=71|35=0|34=97|49=LVBSG|52=20150519-12:52:30.896|56=FROMADRXBOG_XNYSE_BETA|10=072|
20150519-12:53:01.033: 8=FIX.4.4|9=0067|35=0|49=FROMADRXBOG_XNYSE_BETA|56=LVBSG|34=98|52=20150519-12:53:01|10=216|
20150519-12:53:31.895: 8=FIX.4.4|9=71|35=0|34=98|49=LVBSG|52=20150519-12:53:31.895|56=FROMADRXBOG_XNYSE_BETA|10=074|
20150519-12:54:01.033: 8=FIX.4.4|9=0067|35=0|49=FROMADRXBOG_XNYSE_BETA|56=LVBSG|34=99|52=20150519-12:54:01|10=218|
20150519-12:54:31.895: 8=FIX.4.4|9=71|35=0|34=99|49=LVBSG|52=20150519-12:54:31.895|56=FROMADRXBOG_XNYSE_BETA|10=076|
20150519-12:55:01.034: 8=FIX.4.4|9=0068|35=0|49=FROMADRXBOG_XNYSE_BETA|56=LVBSG|34=100|52=20150519-12:55:01|10=251|
20150519-12:55:31.896: 8=FIX.4.4|9=72|35=0|34=100|49=LVBSG|52=20150519-12:55:31.896|56=FROMADRXBOG_XNYSE_BETA|10=110|
20150519-12:56:01.033: 8=FIX.4.4|9=0068|35=0|49=FROMADRXBOG_XNYSE_BETA|56=LVBSG|34=101|52=20150519-12:56:01|10=253|
20150519-12:56:32.896: 8=FIX.4.4|9=72|35=0|34=101|49=LVBSG|52=20150519-12:56:32.896|56=FROMADRXBOG_XNYSE_BETA|10=113|
20150519-12:57:01.033: 8=FIX.4.4|9=0068|35=0|49=FROMADRXBOG_XNYSE_BETA|56=LVBSG|34=102|52=20150519-12:57:01|10=255|
20150519-12:57:32.896: 8=FIX.4.4|9=72|35=0|34=102|49=LVBSG|52=20150519-12:57:32.896|56=FROMADRXBOG_XNYSE_BETA|10=115|
20150519-12:58:01.034: 8=FIX.4.4|9=0068|35=0|49=FROMADRXBOG_XNYSE_BETA|56=LVBSG|34=103|52=20150519-12:58:01|10=001|
20150519-12:58:32.896: 8=FIX.4.4|9=72|35=0|34=103|49=LVBSG|52=20150519-12:58:32.896|56=FROMADRXBOG_XNYSE_BETA|10=117|
20150519-12:59:01.034: 8=FIX.4.4|9=0068|35=0|49=FROMADRXBOG_XNYSE_BETA|56=LVBSG|34=104|52=20150519-12:59:01|10=003|
20150519-12:59:33.895: 8=FIX.4.4|9=72|35=0|34=104|49=LVBSG|52=20150519-12:59:33.895|56=FROMADRXBOG_XNYSE_BETA|10=119|
20150519-13:00:01.043: 8=FIX.4.4|9=0068|35=0|49=FROMADRXBOG_XNYSE_BETA|56=LVBSG|34=105|52=20150519-13:00:01|10=247|
20150519-13:00:33.895: 8=FIX.4.4|9=72|35=0|34=105|49=LVBSG|52=20150519-13:00:33.895|56=FROMADRXBOG_XNYSE_BETA|10=107|
20150519-13:01:01.036: 8=FIX.4.4|9=0068|35=0|49=FROMADRXBOG_XNYSE_BETA|56=LVBSG|34=106|52=20150519-13:01:01|10=249|
20150519-13:01:33.895: 8=FIX.4.4|9=72|35=0|34=106|49=LVBSG|52=20150519-13:01:33.895|56=FROMADRXBOG_XNYSE_BETA|10=109|
20150519-13:02:01.036: 8=FIX.4.4|9=0068|35=0|49=FROMADRXBOG_XNYSE_BETA|56=LVBSG|34=107|52=20150519-13:02:01|10=251|
20150519-13:02:33.895: 8=FIX.4.4|9=72|35=0|34=107|49=LVBSG|52=20150519-13:02:33.895|56=FROMADRXBOG_XNYSE_BETA|10=111|
20150519-13:03:01.037: 8=FIX.4.4|9=0068|35=0|49=FROMADRXBOG_XNYSE_BETA|56=LVBSG|34=108|52=20150519-13:03:01|10=253|
20150519-13:03:33.895: 8=FIX.4.4|9=72|35=0|34=108|49=LVBSG|52=20150519-13:03:33.895|56=FROMADRXBOG_XNYSE_BETA|10=113|
20150519-13:04:01.036: 8=FIX.4.4|9=0068|35=0|49=FROMADRXBOG_XNYSE_BETA|56=LVBSG|34=109|52=20150519-13:04:01|10=255|
20150519-13:04:33.896: 8=FIX.4.4|9=72|35=0|34=109|49=LVBSG|52=20150519-13:04:33.896|56=FROMADRXBOG_XNYSE_BETA|10=116|
20150519-13:05:01.044: 8=FIX.4.4|9=0068|35=0|49=FROMADRXBOG_XNYSE_BETA|56=LVBSG|34=110|52=20150519-13:05:01|10=248|
20150519-13:05:34.895: 8=FIX.4.4|9=72|35=0|34=110|49=LVBSG|52=20150519-13:05:34.895|56=FROMADRXBOG_XNYSE_BETA|10=109|
20150519-13:06:01.037: 8=FIX.4.4|9=0068|35=0|49=FROMADRXBOG_XNYSE_BETA|56=LVBSG|34=111|52=20150519-13:06:01|10=250|
20150519-13:06:34.896: 8=FIX.4.4|9=72|35=0|34=111|49=LVBSG|52=20150519-13:06:34.896|56=FROMADRXBOG_XNYSE_BETA|10=112|
20150519-13:07:01.037: 8=FIX.4.4|9=0068|35=0|49=FROMADRXBOG_XNYSE_BETA|56=LVBSG|34=112|52=20150519-13:07:01|10=252|
20150519-13:07:35.895: 8=FIX.4.4|9=72|35=0|34=112|49=LVBSG|52=20150519-13:07:35.895|56=FROMADRXBOG_XNYSE_BETA|10=114|
20150519-13:08:01.037: 8=FIX.4.4|9=0068|35=0|49=FROMADRXBOG_XNYSE_BETA|56=LVBSG|34=113|52=20150519-13:08:01|10=254|
20150519-13:08:35.895: 8=FIX.4.4|9=72|35=0|34=113|49=LVBSG|52=20150519-13:08:35.895|56=FROMADRXBOG_XNYSE_BETA|10=116|
20150519-13:09:01.052: 8=FIX.4.4|9=0068|35=0|49=FROMADRXBOG_XNYSE_BETA|56=LVBSG|34=114|52=20150519-13:09:01|10=000|
20150519-13:09:35.895: 8=FIX.4.4|9=72|35=0|34=114|49=LVBSG|52=20150519-13:09:35.895|56=FROMADRXBOG_XNYSE_BETA|10=118|
20150519-13:10:01.037: 8=FIX.4.4|9=0068|35=0|49=FROMADRXBOG_XNYSE_BETA|56=LVBSG|34=115|52=20150519-13:10:01|10=249|
20150519-13:10:35.896: 8=FIX.4.4|9=72|35=0|34=115|49=LVBSG|52=20150519-13:10:35.895|56=FROMADRXBOG_XNYSE_BETA|10=111|
20150519-13:11:01.039: 8=FIX.4.4|9=0068|35=0|49=FROMADRXBOG_XNYSE_BETA|56=LVBSG|34=116|52=20150519-13:11:01|10=251|
20150519-13:11:35.896: 8=FIX.4.4|9=72|35=0|34=116|49=LVBSG|52=20150519-13:11:35.896|56=FROMADRXBOG_XNYSE_BETA|10=114|
20150519-13:12:01.039: 8=FIX.4.4|9=0068|35=0|49=FROMADRXBOG_XNYSE_BETA|56=LVBSG|34=117|52=20150519-13:12:01|10=253|
20150519-13:12:36.895: 8=FIX.4.4|9=72|35=0|34=117|49=LVBSG|52=20150519-13:12:36.895|56=FROMADRXBOG_XNYSE_BETA|10=116|
20150519-13:13:01.039: 8=FIX.4.4|9=0068|35=0|49=FROMADRXBOG_XNYSE_BETA|56=LVBSG|34=118|52=20150519-13:13:01|10=255|
20150519-13:13:37.959: 8=FIX.4.4|9=72|35=0|34=118|49=LVBSG|52=20150519-13:13:37.959|56=FROMADRXBOG_XNYSE_BETA|10=120|
20150519-13:14:01.041: 8=FIX.4.4|9=0068|35=0|49=FROMADRXBOG_XNYSE_BETA|56=LVBSG|34=119|52=20150519-13:14:01|10=001|
20150519-13:14:38.895: 8=FIX.4.4|9=72|35=0|34=119|49=LVBSG|52=20150519-13:14:38.895|56=FROMADRXBOG_XNYSE_BETA|10=122|
20150519-13:15:01.039: 8=FIX.4.4|9=0068|35=0|49=FROMADRXBOG_XNYSE_BETA|56=LVBSG|34=120|52=20150519-13:15:01|10=250|
20150519-13:15:38.895: 8=FIX.4.4|9=72|35=0|34=120|49=LVBSG|52=20150519-13:15:38.895|56=FROMADRXBOG_XNYSE_BETA|10=115|
20150519-13:16:01.039: 8=FIX.4.4|9=0068|35=0|49=FROMADRXBOG_XNYSE_BETA|56=LVBSG|34=121|52=20150519-13:16:01|10=252|
20150519-13:16:38.895: 8=FIX.4.4|9=72|35=0|34=121|49=LVBSG|52=20150519-13:16:38.895|56=FROMADRXBOG_XNYSE_BETA|10=117|
20150519-13:17:01.040: 8=FIX.4.4|9=0068|35=0|49=FROMADRXBOG_XNYSE_BETA|56=LVBSG|34=122|52=20150519-13:17:01|10=254|
20150519-13:17:38.896: 8=FIX.4.4|9=72|35=0|34=122|49=LVBSG|52=20150519-13:17:38.896|56=FROMADRXBOG_XNYSE_BETA|10=120|
20150519-13:18:01.040: 8=FIX.4.4|9=0068|35=0|49=FROMADRXBOG_XNYSE_BETA|56=LVBSG|34=123|52=20150519-13:18:01|10=000|
20150519-13:18:39.896: 8=FIX.4.4|9=72|35=0|34=123|49=LVBSG|52=20150519-13:18:39.896|56=FROMADRXBOG_XNYSE_BETA|10=123|
20150519-13:19:01.043: 8=FIX.4.4|9=0068|35=0|49=FROMADRXBOG_XNYSE_BETA|56=LVBSG|34=124|52=20150519-13:19:01|10=002|
20150519-13:19:39.896: 8=FIX.4.4|9=72|35=0|34=124|49=LVBSG|52=20150519-13:19:39.896|56=FROMADRXBOG_XNYSE_BETA|10=125|
20150519-13:20:01.041: 8=FIX.4.4|9=0068|35=0|49=FROMADRXBOG_XNYSE_BETA|56=LVBSG|34=125|52=20150519-13:20:01|10=251|
20150519-13:20:40.895: 8=FIX.4.4|9=72|35=0|34=125|49=LVBSG|52=20150519-13:20:40.895|56=FROMADRXBOG_XNYSE_BETA|10=109|
20150519-13:21:01.041: 8=FIX.4.4|9=0068|35=0|49=FROMADRXBOG_XNYSE_BETA|56=LVBSG|34=126|52=20150519-13:21:01|10=253|
20150519-13:21:40.895: 8=FIX.4.4|9=72|35=0|34=126|49=LVBSG|52=20150519-13:21:40.895|56=FROMADRXBOG_XNYSE_BETA|10=111|
20150519-13:22:01.041: 8=FIX.4.4|9=0068|35=0|49=FROMADRXBOG_XNYSE_BETA|56=LVBSG|34=127|52=20150519-13:22:01|10=255|
20150519-13:22:40.896: 8=FIX.4.4|9=72|35=0|34=127|49=LVBSG|52=20150519-13:22:40.896|56=FROMADRXBOG_XNYSE_BETA|10=114|
20150519-13:23:01.041: 8=FIX.4.4|9=0068|35=0|49=FROMADRXBOG_XNYSE_BETA|56=LVBSG|34=128|52=20150519-13:23:01|10=001|
20150519-13:23:40.896: 8=FIX.4.4|9=72|35=0|34=128|49=LVBSG|52=20150519-13:23:40.896|56=FROMADRXBOG_XNYSE_BETA|10=116|
20150519-13:24:01.043: 8=FIX.4.4|9=0068|35=0|49=FROMADRXBOG_XNYSE_BETA|56=LVBSG|34=129|52=20150519-13:24:01|10=003|
20150519-13:24:40.896: 8=FIX.4.4|9=72|35=0|34=129|49=LVBSG|52=20150519-13:24:40.896|56=FROMADRXBOG_XNYSE_BETA|10=118|
20150519-13:25:01.043: 8=FIX.4.4|9=0068|35=0|49=FROMADRXBOG_XNYSE_BETA|56=LVBSG|34=130|52=20150519-13:25:01|10=252|
20150519-13:25:41.896: 8=FIX.4.4|9=72|35=0|34=130|49=LVBSG|52=20150519-13:25:41.896|56=FROMADRXBOG_XNYSE_BETA|10=112|
20150519-13:26:01.044: 8=FIX.4.4|9=0068|35=0|49=FROMADRXBOG_XNYSE_BETA|56=LVBSG|34=131|52=20150519-13:26:01|10=254|
20150519-13:26:42.895: 8=FIX.4.4|9=72|35=0|34=131|49=LVBSG|52=20150519-13:26:42.895|56=FROMADRXBOG_XNYSE_BETA|10=114|
20150519-13:27:01.043: 8=FIX.4.4|9=0068|35=0|49=FROMADRXBOG_XNYSE_BETA|56=LVBSG|34=132|52=20150519-13:27:01|10=000|
20150519-13:27:42.896: 8=FIX.4.4|9=72|35=0|34=132|49=LVBSG|52=20150519-13:27:42.895|56=FROMADRXBOG_XNYSE_BETA|10=116|
20150519-13:28:01.044: 8=FIX.4.4|9=0068|35=0|49=FROMADRXBOG_XNYSE_BETA|56=LVBSG|34=133|52=20150519-13:28:01|10=002|
20150519-13:28:42.896: 8=FIX.4.4|9=72|35=0|34=133|49=LVBSG|52=20150519-13:28:42.896|56=FROMADRXBOG_XNYSE_BETA|10=119|
20150519-13:29:01.043: 8=FIX.4.4|9=0068|35=0|49=FROMADRXBOG_XNYSE_BETA|56=LVBSG|34=134|52=20150519-13:29:01|10=004|
20150519-13:29:43.896: 8=FIX.4.4|9=72|35=0|34=134|49=LVBSG|52=20150519-13:29:43.896|56=FROMADRXBOG_XNYSE_BETA|10=122|
20150519-13:30:01.043: 8=FIX.4.4|9=0068|35=0|49=FROMADRXBOG_XNYSE_BETA|56=LVBSG|34=135|52=20150519-13:30:01|10=253|
20150519-13:30:43.896: 8=FIX.4.4|9=72|35=0|34=135|49=LVBSG|52=20150519-13:30:43.896|56=FROMADRXBOG_XNYSE_BETA|10=115|
20150519-13:31:01.043: 8=FIX.4.4|9=0068|35=0|49=FROMADRXBOG_XNYSE_BETA|56=LVBSG|34=136|52=20150519-13:31:01|10=255|
20150519-13:31:43.896: 8=FIX.4.4|9=72|35=0|34=136|49=LVBSG|52=20150519-13:31:43.896|56=FROMADRXBOG_XNYSE_BETA|10=117|
20150519-13:32:01.044: 8=FIX.4.4|9=0068|35=0|49=FROMADRXBOG_XNYSE_BETA|56=LVBSG|34=137|52=20150519-13:32:01|10=001|
20150519-13:32:43.896: 8=FIX.4.4|9=72|35=0|34=137|49=LVBSG|52=20150519-13:32:43.896|56=FROMADRXBOG_XNYSE_BETA|10=119|
20150519-13:33:01.045: 8=FIX.4.4|9=0068|35=0|49=FROMADRXBOG_XNYSE_BETA|56=LVBSG|34=138|52=20150519-13:33:01|10=003|
20150519-13:33:43.896: 8=FIX.4.4|9=72|35=0|34=138|49=LVBSG|52=20150519-13:33:43.896|56=FROMADRXBOG_XNYSE_BETA|10=121|
20150519-13:34:01.044: 8=FIX.4.4|9=0068|35=0|49=FROMADRXBOG_XNYSE_BETA|56=LVBSG|34=139|52=20150519-13:34:01|10=005|
20150519-13:34:44.895: 8=FIX.4.4|9=72|35=0|34=139|49=LVBSG|52=20150519-13:34:44.895|56=FROMADRXBOG_XNYSE_BETA|10=123|
20150519-13:35:01.044: 8=FIX.4.4|9=0068|35=0|49=FROMADRXBOG_XNYSE_BETA|56=LVBSG|34=140|52=20150519-13:35:01|10=254|
20150519-13:35:44.896: 8=FIX.4.4|9=72|35=0|34=140|49=LVBSG|52=20150519-13:35:44.896|56=FROMADRXBOG_XNYSE_BETA|10=117|
20150519-13:36:01.047: 8=FIX.4.4|9=0068|35=0|49=FROMADRXBOG_XNYSE_BETA|56=LVBSG|34=141|52=20150519-13:36:01|10=000|
20150519-13:36:44.896: 8=FIX.4.4|9=72|35=0|34=141|49=LVBSG|52=20150519-13:36:44.896|56=FROMADRXBOG_XNYSE_BETA|10=119|
20150519-13:37:01.044: 8=FIX.4.4|9=0068|35=0|49=FROMADRXBOG_XNYSE_BETA|56=LVBSG|34=142|52=20150519-13:37:01|10=002|
20150519-13:37:44.896: 8=FIX.4.4|9=72|35=0|34=142|49=LVBSG|52=20150519-13:37:44.896|56=FROMADRXBOG_XNYSE_BETA|10=121|
20150519-13:38:01.044: 8=FIX.4.4|9=0068|35=0|49=FROMADRXBOG_XNYSE_BETA|56=LVBSG|34=143|52=20150519-13:38:01|10=004|
20150519-13:38:44.896: 8=FIX.4.4|9=72|35=0|34=143|49=LVBSG|52=20150519-13:38:44.896|56=FROMADRXBOG_XNYSE_BETA|10=123|
20150519-13:39:01.044: 8=FIX.4.4|9=0068|35=0|49=FROMADRXBOG_XNYSE_BETA|56=LVBSG|34=144|52=20150519-13:39:01|10=006|
20150519-13:39:45.896: 8=FIX.4.4|9=72|35=0|34=144|49=LVBSG|52=20150519-13:39:45.896|56=FROMADRXBOG_XNYSE_BETA|10=126|
20150519-13:40:01.044: 8=FIX.4.4|9=0068|35=0|49=FROMADRXBOG_XNYSE_BETA|56=LVBSG|34=145|52=20150519-13:40:01|10=255|
20150519-13:40:45.896: 8=FIX.4.4|9=72|35=0|34=145|49=LVBSG|52=20150519-13:40:45.896|56=FROMADRXBOG_XNYSE_BETA|10=119|
20150519-13:41:01.044: 8=FIX.4.4|9=0068|35=0|49=FROMADRXBOG_XNYSE_BETA|56=LVBSG|34=146|52=20150519-13:41:01|10=001|
20150519-13:41:46.895: 8=FIX.4.4|9=72|35=0|34=146|49=LVBSG|52=20150519-13:41:46.895|56=FROMADRXBOG_XNYSE_BETA|10=121|
20150519-13:42:01.044: 8=FIX.4.4|9=0068|35=0|49=FROMADRXBOG_XNYSE_BETA|56=LVBSG|34=147|52=20150519-13:42:01|10=003|
20150519-13:42:46.895: 8=FIX.4.4|9=72|35=0|34=147|49=LVBSG|52=20150519-13:42:46.895|56=FROMADRXBOG_XNYSE_BETA|10=123|
20150519-13:43:01.044: 8=FIX.4.4|9=0068|35=0|49=FROMADRXBOG_XNYSE_BETA|56=LVBSG|34=148|52=20150519-13:43:01|10=005|
20150519-13:43:46.896: 8=FIX.4.4|9=72|35=0|34=148|49=LVBSG|52=20150519-13:43:46.896|56=FROMADRXBOG_XNYSE_BETA|10=126|
20150519-13:44:01.045: 8=FIX.4.4|9=0068|35=0|49=FROMADRXBOG_XNYSE_BETA|56=LVBSG|34=149|52=20150519-13:44:01|10=007|
20150519-13:44:46.896: 8=FIX.4.4|9=72|35=0|34=149|49=LVBSG|52=20150519-13:44:46.896|56=FROMADRXBOG_XNYSE_BETA|10=128|
20150519-13:45:01.046: 8=FIX.4.4|9=0068|35=0|49=FROMADRXBOG_XNYSE_BETA|56=LVBSG|34=150|52=20150519-13:45:01|10=000|
20150519-13:45:46.896: 8=FIX.4.4|9=72|35=0|34=150|49=LVBSG|52=20150519-13:45:46.896|56=FROMADRXBOG_XNYSE_BETA|10=121|
20150519-13:46:01.047: 8=FIX.4.4|9=0068|35=0|49=FROMADRXBOG_XNYSE_BETA|56=LVBSG|34=151|52=20150519-13:46:01|10=002|
20150519-13:46:47.896: 8=FIX.4.4|9=72|35=0|34=151|49=LVBSG|52=20150519-13:46:47.896|56=FROMADRXBOG_XNYSE_BETA|10=124|
20150519-13:47:01.046: 8=FIX.4.4|9=0068|35=0|49=FROMADRXBOG_XNYSE_BETA|56=LVBSG|34=152|52=20150519-13:47:01|10=004|
20150519-13:47:48.896: 8=FIX.4.4|9=72|35=0|34=152|49=LVBSG|52=20150519-13:47:48.896|56=FROMADRXBOG_XNYSE_BETA|10=127|
20150519-13:48:01.047: 8=FIX.4.4|9=0068|35=0|49=FROMADRXBOG_XNYSE_BETA|56=LVBSG|34=153|52=20150519-13:48:01|10=006|
20150519-13:48:49.895: 8=FIX.4.4|9=72|35=0|34=153|49=LVBSG|52=20150519-13:48:49.895|56=FROMADRXBOG_XNYSE_BETA|10=129|
20150519-13:49:01.047: 8=FIX.4.4|9=0068|35=0|49=FROMADRXBOG_XNYSE_BETA|56=LVBSG|34=154|52=20150519-13:49:01|10=008|
20150519-13:49:49.895: 8=FIX.4.4|9=72|35=0|34=154|49=LVBSG|52=20150519-13:49:49.895|56=FROMADRXBOG_XNYSE_BETA|10=131|
20150519-13:50:01.047: 8=FIX.4.4|9=0068|35=0|49=FROMADRXBOG_XNYSE_BETA|56=LVBSG|34=155|52=20150519-13:50:01|10=001|
20150519-13:50:49.895: 8=FIX.4.4|9=72|35=0|34=155|49=LVBSG|52=20150519-13:50:49.895|56=FROMADRXBOG_XNYSE_BETA|10=124|
20150519-13:51:01.047: 8=FIX.4.4|9=0068|35=0|49=FROMADRXBOG_XNYSE_BETA|56=LVBSG|34=156|52=20150519-13:51:01|10=003|
20150519-13:51:49.896: 8=FIX.4.4|9=72|35=0|34=156|49=LVBSG|52=20150519-13:51:49.896|56=FROMADRXBOG_XNYSE_BETA|10=127|
20150519-13:52:01.048: 8=FIX.4.4|9=0068|35=0|49=FROMADRXBOG_XNYSE_BETA|56=LVBSG|34=157|52=20150519-13:52:01|10=005|
20150519-13:52:49.896: 8=FIX.4.4|9=72|35=0|34=157|49=LVBSG|52=20150519-13:52:49.896|56=FROMADRXBOG_XNYSE_BETA|10=129|
20150519-13:53:01.048: 8=FIX.4.4|9=0068|35=0|49=FROMADRXBOG_XNYSE_BETA|56=LVBSG|34=158|52=20150519-13:53:01|10=007|
20150519-13:53:50.896: 8=FIX.4.4|9=72|35=0|34=158|49=LVBSG|52=20150519-13:53:50.896|56=FROMADRXBOG_XNYSE_BETA|10=123|
20150519-13:54:01.054: 8=FIX.4.4|9=0068|35=0|49=FROMADRXBOG_XNYSE_BETA|56=LVBSG|34=159|52=20150519-13:54:01|10=009|
20150519-13:54:50.896: 8=FIX.4.4|9=72|35=0|34=159|49=LVBSG|52=20150519-13:54:50.896|56=FROMADRXBOG_XNYSE_BETA|10=125|
20150519-13:55:01.049: 8=FIX.4.4|9=0068|35=0|49=FROMADRXBOG_XNYSE_BETA|56=LVBSG|34=160|52=20150519-13:55:01|10=002|
20150519-13:55:50.896: 8=FIX.4.4|9=72|35=0|34=160|49=LVBSG|52=20150519-13:55:50.896|56=FROMADRXBOG_XNYSE_BETA|10=118|
20150519-13:56:01.048: 8=FIX.4.4|9=0068|35=0|49=FROMADRXBOG_XNYSE_BETA|56=LVBSG|34=161|52=20150519-13:56:01|10=004|
20150519-13:56:50.896: 8=FIX.4.4|9=72|35=0|34=161|49=LVBSG|52=20150519-13:56:50.896|56=FROMADRXBOG_XNYSE_BETA|10=120|
20150519-13:57:01.048: 8=FIX.4.4|9=0068|35=0|49=FROMADRXBOG_XNYSE_BETA|56=LVBSG|34=162|52=20150519-13:57:01|10=006|
20150519-13:57:51.895: 8=FIX.4.4|9=72|35=0|34=162|49=LVBSG|52=20150519-13:57:51.895|56=FROMADRXBOG_XNYSE_BETA|10=122|
20150519-13:58:01.048: 8=FIX.4.4|9=0068|35=0|49=FROMADRXBOG_XNYSE_BETA|56=LVBSG|34=163|52=20150519-13:58:01|10=008|
20150519-13:58:33.113: 8=FIX.4.4|9=279|35=D|34=163|49=LVBSG|50=QXP018914|52=20150519-13:58:33.113|56=FROMADRXBOG_XNYSE_BETA|57=FCST|128=FCHB|1=QXP018914|11=-18add1d53355bf58|21=1|38=100|40=2|44=45.04|54=5|55=CIB|59=0|60=20150519-13:58:33.113|63=4|100=US|111=100|207=US|583=-6a58cd62c234b255|453=1|448=XPUS|447=D|452=1|10=114|
20150519-13:58:33.128: 8=FIX.4.4|9=0346|35=8|49=FROMADRXBOG_XNYSE_BETA|56=LVBSG|34=164|52=20150519-13:58:33|50=FCST|115=FCHB|57=QXP018914|1=QXP018914|207=US|6=0|11=-18add1d53355bf58|14=0|17=2f7744ad75b44c9a|21=1|150=A|31=0|151=100|32=0|100=US|38=100|39=A|37=-1785ea951a13b571|583=-6a58cd62c234b255|40=2|44=45.04|55=CIB|54=5|59=0|63=4|60=20150519-13:58:33.120|453=1|448=XPUS|447=D|452=1|10=200|
20150519-13:58:33.674: 8=FIX.4.4|9=0355|35=8|49=FROMADRXBOG_XNYSE_BETA|56=LVBSG|34=165|52=20150519-13:58:33|50=FCST|115=FCHB|57=QXP018914|1=QXP018914|207=US|6=0|11=-18add1d53355bf58|14=0|17=LVSXFIX2-3853000007000002|21=1|150=0|31=0|151=100|32=0|100=US|38=100|39=0|37=-1785ea951a13b571|583=-6a58cd62c234b255|40=2|44=45.04|55=CIB|54=5|59=0|63=4|60=20150519-13:58:33.669|453=1|448=XPUS|447=D|452=1|10=002|
20150519-13:58:33.757: 8=FIX.4.4|9=0365|35=8|49=FROMADRXBOG_XNYSE_BETA|56=LVBSG|34=166|52=20150519-13:58:33|50=FCST|115=FCHB|57=QXP018914|1=QXP018914|207=US|6=45.04|11=-18add1d53355bf58|14=100|17=LVSXFIX2-3853000007000003|21=1|150=F|31=45.04|151=0|32=100|100=US|38=100|39=2|37=-1785ea951a13b571|583=-6a58cd62c234b255|40=2|44=45.04|55=CIB|54=5|59=0|63=4|60=20150519-13:58:33.751|453=1|448=XPUS|447=D|452=1|10=012|
20150519-13:59:33.759: 8=FIX.4.4|9=0068|35=0|49=FROMADRXBOG_XNYSE_BETA|56=LVBSG|34=167|52=20150519-13:59:33|10=018|
20150519-13:59:33.760: 8=FIX.4.4|9=72|35=0|34=164|49=LVBSG|52=20150519-13:59:33.760|56=FROMADRXBOG_XNYSE_BETA|10=117|
20150519-14:00:07.979: 8=FIX.4.4|9=279|35=D|34=165|49=LVBSG|50=QXP018914|52=20150519-14:00:07.979|56=FROMADRXBOG_XNYSE_BETA|57=FCST|128=FCHB|1=QXP018914|11=-71480b2db4fab9cf|21=1|38=200|40=2|44=45.09|54=5|55=CIB|59=0|60=20150519-14:00:07.979|63=4|100=US|111=100|207=US|583=-6a58cd62c234b255|453=1|448=XPUS|447=D|452=1|10=232|
20150519-14:00:07.991: 8=FIX.4.4|9=0345|35=8|49=FROMADRXBOG_XNYSE_BETA|56=LVBSG|34=168|52=20150519-14:00:07|50=FCST|115=FCHB|57=QXP018914|1=QXP018914|207=US|6=0|11=-71480b2db4fab9cf|14=0|17=-a6890f93483bc6e|21=1|150=A|31=0|151=200|32=0|100=US|38=200|39=A|37=5a51f98aaa4e4c49|583=-6a58cd62c234b255|40=2|44=45.09|55=CIB|54=5|59=0|63=4|60=20150519-14:00:07.986|453=1|448=XPUS|447=D|452=1|10=100|
20150519-14:00:08.492: 8=FIX.4.4|9=0354|35=8|49=FROMADRXBOG_XNYSE_BETA|56=LVBSG|34=169|52=20150519-14:00:08|50=FCST|115=FCHB|57=QXP018914|1=QXP018914|207=US|6=0|11=-71480b2db4fab9cf|14=0|17=LVSXFIX2-3853000008000002|21=1|150=0|31=0|151=200|32=0|100=US|38=200|39=0|37=5a51f98aaa4e4c49|583=-6a58cd62c234b255|40=2|44=45.09|55=CIB|54=5|59=0|63=4|60=20150519-14:00:08.469|453=1|448=XPUS|447=D|452=1|10=187|
20150519-14:00:08.598: 8=FIX.4.4|9=0366|35=8|49=FROMADRXBOG_XNYSE_BETA|56=LVBSG|34=170|52=20150519-14:00:08|50=FCST|115=FCHB|57=QXP018914|1=QXP018914|207=US|6=45.09|11=-71480b2db4fab9cf|14=100|17=LVSXFIX2-3853000008000003|21=1|150=F|31=45.09|151=100|32=100|100=US|38=200|39=1|37=5a51f98aaa4e4c49|583=-6a58cd62c234b255|40=2|44=45.09|55=CIB|54=5|59=0|63=4|60=20150519-14:00:08.588|453=1|448=XPUS|447=D|452=1|10=049|
20150519-14:00:08.609: 8=FIX.4.4|9=0364|35=8|49=FROMADRXBOG_XNYSE_BETA|56=LVBSG|34=171|52=20150519-14:00:08|50=FCST|115=FCHB|57=QXP018914|1=QXP018914|207=US|6=45.09|11=-71480b2db4fab9cf|14=200|17=LVSXFIX2-3853000008000004|21=1|150=F|31=45.09|151=0|32=100|100=US|38=200|39=2|37=5a51f98aaa4e4c49|583=-6a58cd62c234b255|40=2|44=45.09|55=CIB|54=5|59=0|63=4|60=20150519-14:00:08.603|453=1|448=XPUS|447=D|452=1|10=198|
20150519-14:00:14.556: 8=FIX.4.4|9=280|35=D|34=166|49=LVBSG|50=QXP018914|52=20150519-14:00:14.556|56=FROMADRXBOG_XNYSE_BETA|57=FCST|128=FCHB|1=QXP018914|11=-259feb70a6a8b2a4|21=1|38=1000|40=2|44=45.09|54=5|55=CIB|59=0|60=20150519-14:00:14.556|63=4|100=US|111=100|207=US|583=-6a58cd62c234b255|453=1|448=XPUS|447=D|452=1|10=202|
20150519-14:00:14.585: 8=FIX.4.4|9=0346|35=8|49=FROMADRXBOG_XNYSE_BETA|56=LVBSG|34=172|52=20150519-14:00:14|50=FCST|115=FCHB|57=QXP018914|1=QXP018914|207=US|6=0|11=-259feb70a6a8b2a4|14=0|17=6826961f53cc42cb|21=1|150=A|31=0|151=1000|32=0|100=US|38=1000|39=A|37=50f36fa5f9748ef|583=-6a58cd62c234b255|40=2|44=45.09|55=CIB|54=5|59=0|63=4|60=20150519-14:00:14.574|453=1|448=XPUS|447=D|452=1|10=044|
20150519-14:00:14.968: 8=FIX.4.4|9=0355|35=8|49=FROMADRXBOG_XNYSE_BETA|56=LVBSG|34=173|52=20150519-14:00:14|50=FCST|115=FCHB|57=QXP018914|1=QXP018914|207=US|6=0|11=-259feb70a6a8b2a4|14=0|17=LVSXFIX2-3853000009000002|21=1|150=0|31=0|151=1000|32=0|100=US|38=1000|39=0|37=50f36fa5f9748ef|583=-6a58cd62c234b255|40=2|44=45.09|55=CIB|54=5|59=0|63=4|60=20150519-14:00:14.963|453=1|448=XPUS|447=D|452=1|10=137|
20150519-14:00:14.989: 8=FIX.4.4|9=0366|35=8|49=FROMADRXBOG_XNYSE_BETA|56=LVBSG|34=174|52=20150519-14:00:14|50=FCST|115=FCHB|57=QXP018914|1=QXP018914|207=US|6=45.09|11=-259feb70a6a8b2a4|14=100|17=LVSXFIX2-3853000009000003|21=1|150=F|31=45.09|151=900|32=100|100=US|38=1000|39=1|37=50f36fa5f9748ef|583=-6a58cd62c234b255|40=2|44=45.09|55=CIB|54=5|59=0|63=4|60=20150519-14:00:14.982|453=1|448=XPUS|447=D|452=1|10=223|
20150519-14:00:14.994: 8=FIX.4.4|9=0366|35=8|49=FROMADRXBOG_XNYSE_BETA|56=LVBSG|34=175|52=20150519-14:00:14|50=FCST|115=FCHB|57=QXP018914|1=QXP018914|207=US|6=45.09|11=-259feb70a6a8b2a4|14=200|17=LVSXFIX2-3853000009000004|21=1|150=F|31=45.09|151=800|32=100|100=US|38=1000|39=1|37=50f36fa5f9748ef|583=-6a58cd62c234b255|40=2|44=45.09|55=CIB|54=5|59=0|63=4|60=20150519-14:00:14.988|453=1|448=XPUS|447=D|452=1|10=231|
20150519-14:00:15.001: 8=FIX.4.4|9=0366|35=8|49=FROMADRXBOG_XNYSE_BETA|56=LVBSG|34=176|52=20150519-14:00:15|50=FCST|115=FCHB|57=QXP018914|1=QXP018914|207=US|6=45.09|11=-259feb70a6a8b2a4|14=400|17=LVSXFIX2-3853000009000005|21=1|150=F|31=45.09|151=600|32=200|100=US|38=1000|39=1|37=50f36fa5f9748ef|583=-6a58cd62c234b255|40=2|44=45.09|55=CIB|54=5|59=0|63=4|60=20150519-14:00:14.994|453=1|448=XPUS|447=D|452=1|10=232|
20150519-14:00:15.004: 8=FIX.4.4|9=0366|35=8|49=FROMADRXBOG_XNYSE_BETA|56=LVBSG|34=177|52=20150519-14:00:15|50=FCST|115=FCHB|57=QXP018914|1=QXP018914|207=US|6=45.09|11=-259feb70a6a8b2a4|14=500|17=LVSXFIX2-3853000009000006|21=1|150=F|31=45.09|151=500|32=100|100=US|38=1000|39=1|37=50f36fa5f9748ef|583=-6a58cd62c234b255|40=2|44=45.09|55=CIB|54=5|59=0|63=4|60=20150519-14:00:14.999|453=1|448=XPUS|447=D|452=1|10=238|
20150519-14:00:15.011: 8=FIX.4.4|9=0370|35=8|49=FROMADRXBOG_XNYSE_BETA|56=LVBSG|34=178|52=20150519-14:00:15|50=FCST|115=FCHB|57=QXP018914|1=QXP018914|207=US|6=45.098889|11=-259feb70a6a8b2a4|14=900|17=LVSXFIX2-3853000009000007|21=1|150=F|31=45.11|151=100|32=400|100=US|38=1000|39=1|37=50f36fa5f9748ef|583=-6a58cd62c234b255|40=2|44=45.09|55=CIB|54=5|59=0|63=4|60=20150519-14:00:15.005|453=1|448=XPUS|447=D|452=1|10=179|
20150519-14:00:15.085: 8=FIX.4.4|9=0366|35=8|49=FROMADRXBOG_XNYSE_BETA|56=LVBSG|34=179|52=20150519-14:00:15|50=FCST|115=FCHB|57=QXP018914|1=QXP018914|207=US|6=45.098|11=-259feb70a6a8b2a4|14=1000|17=LVSXFIX2-3853000009000008|21=1|150=F|31=45.09|151=0|32=100|100=US|38=1000|39=2|37=50f36fa5f9748ef|583=-6a58cd62c234b255|40=2|44=45.09|55=CIB|54=5|59=0|63=4|60=20150519-14:00:15.075|453=1|448=XPUS|447=D|452=1|10=228|
20150519-14:00:15.213: 8=FIX.4.4|9=279|35=D|34=167|49=LVBSG|50=QXP018914|52=20150519-14:00:15.213|56=FROMADRXBOG_XNYSE_BETA|57=FCST|128=FCHB|1=QXP018914|11=11752aada5324579|21=1|38=1000|40=2|44=45.09|54=5|55=CIB|59=0|60=20150519-14:00:15.213|63=4|100=US|111=100|207=US|583=-6a58cd62c234b255|453=1|448=XPUS|447=D|452=1|10=001|
20150519-14:00:15.233: 8=FIX.4.4|9=0346|35=8|49=FROMADRXBOG_XNYSE_BETA|56=LVBSG|34=180|52=20150519-14:00:15|50=FCST|115=FCHB|57=QXP018914|1=QXP018914|207=US|6=0|11=11752aada5324579|14=0|17=-1130cac08c77bfb7|21=1|150=A|31=0|151=1000|32=0|100=US|38=1000|39=A|37=6dcec44160a42c0|583=-6a58cd62c234b255|40=2|44=45.09|55=CIB|54=5|59=0|63=4|60=20150519-14:00:15.225|453=1|448=XPUS|447=D|452=1|10=197|
20150519-14:00:15.630: 8=FIX.4.4|9=0354|35=8|49=FROMADRXBOG_XNYSE_BETA|56=LVBSG|34=181|52=20150519-14:00:15|50=FCST|115=FCHB|57=QXP018914|1=QXP018914|207=US|6=0|11=11752aada5324579|14=0|17=LVSXFIX2-385300000A000002|21=1|150=0|31=0|151=1000|32=0|100=US|38=1000|39=0|37=6dcec44160a42c0|583=-6a58cd62c234b255|40=2|44=45.09|55=CIB|54=5|59=0|63=4|60=20150519-14:00:15.621|453=1|448=XPUS|447=D|452=1|10=169|
20150519-14:00:15.750: 8=FIX.4.4|9=0363|35=8|49=FROMADRXBOG_XNYSE_BETA|56=LVBSG|34=182|52=20150519-14:00:15|50=FCST|115=FCHB|57=QXP018914|1=QXP018914|207=US|6=45.1|11=11752aada5324579|14=200|17=LVSXFIX2-385300000A000003|21=1|150=F|31=45.1|151=800|32=200|100=US|38=1000|39=1|37=6dcec44160a42c0|583=-6a58cd62c234b255|40=2|44=45.09|55=CIB|54=5|59=0|63=4|60=20150519-14:00:15.743|453=1|448=XPUS|447=D|452=1|10=146|
20150519-14:00:15.754: 8=FIX.4.4|9=0363|35=8|49=FROMADRXBOG_XNYSE_BETA|56=LVBSG|34=183|52=20150519-14:00:15|50=FCST|115=FCHB|57=QXP018914|1=QXP018914|207=US|6=45.1|11=11752aada5324579|14=400|17=LVSXFIX2-385300000A000004|21=1|150=F|31=45.1|151=600|32=200|100=US|38=1000|39=1|37=6dcec44160a42c0|583=-6a58cd62c234b255|40=2|44=45.09|55=CIB|54=5|59=0|63=4|60=20150519-14:00:15.749|453=1|448=XPUS|447=D|452=1|10=154|
20150519-14:00:30.230: 8=FIX.4.4|9=300|35=G|34=168|49=LVBSG|50=QXP018914|52=20150519-14:00:30.230|56=FROMADRXBOG_XNYSE_BETA|57=FCST|128=FCHB|1=QXP018914|11=-45054e8bed4fb67d|21=1|38=1000|40=2|41=11752aada5324579|44=45.04|54=5|55=CIB|59=0|60=20150519-14:00:30.230|63=4|100=US|111=100|207=US|583=-6a58cd62c234b255|453=1|448=XPUS|447=D|452=1|10=080|
20150519-14:00:30.242: 8=FIX.4.4|9=0371|35=8|49=FROMADRXBOG_XNYSE_BETA|56=LVBSG|34=184|52=20150519-14:00:30|50=FCST|115=FCHB|57=QXP018914|1=QXP018914|207=US|6=45.1|11=-45054e8bed4fb67d|14=400|17=-32595324b1a8b159|21=1|150=E|31=0|151=600|32=0|100=US|38=1000|39=E|37=6dcec44160a42c0|583=-6a58cd62c234b255|40=2|41=11752aada5324579|44=45.04|55=CIB|54=5|59=0|63=4|60=20150519-14:00:30.237|453=1|448=XPUS|447=D|452=1|10=071|
20150519-14:00:30.645: 8=FIX.4.4|9=0379|35=8|49=FROMADRXBOG_XNYSE_BETA|56=LVBSG|34=185|52=20150519-14:00:30|50=FCST|115=FCHB|57=QXP018914|1=QXP018914|207=US|6=45.1|11=-45054e8bed4fb67d|14=400|17=LVSXFIX2-385300000A000007|21=1|150=5|31=0|151=600|32=0|100=US|38=1000|39=1|37=6dcec44160a42c0|583=-6a58cd62c234b255|40=2|41=11752aada5324579|44=45.04|55=CIB|54=5|59=0|63=4|60=20150519-14:00:30.638|453=1|448=XPUS|447=D|452=1|10=244|
20150519-14:00:30.649: 8=FIX.4.4|9=0386|35=8|49=FROMADRXBOG_XNYSE_BETA|56=LVBSG|34=186|52=20150519-14:00:30|50=FCST|115=FCHB|57=QXP018914|1=QXP018914|207=US|6=45.08|11=-45054e8bed4fb67d|14=600|17=LVSXFIX2-385300000A000008|21=1|150=F|31=45.04|151=400|32=200|100=US|38=1000|39=1|37=6dcec44160a42c0|583=-6a58cd62c234b255|40=2|41=11752aada5324579|44=45.04|55=CIB|54=5|59=0|63=4|60=20150519-14:00:30.642|453=1|448=XPUS|447=D|452=1|10=100|
20150519-14:00:30.658: 8=FIX.4.4|9=0390|35=8|49=FROMADRXBOG_XNYSE_BETA|56=LVBSG|34=187|52=20150519-14:00:30|50=FCST|115=FCHB|57=QXP018914|1=QXP018914|207=US|6=45.074286|11=-45054e8bed4fb67d|14=700|17=LVSXFIX2-385300000A000009|21=1|150=F|31=45.04|151=300|32=100|100=US|38=1000|39=1|37=6dcec44160a42c0|583=-6a58cd62c234b255|40=2|41=11752aada5324579|44=45.04|55=CIB|54=5|59=0|63=4|60=20150519-14:00:30.651|453=1|448=XPUS|447=D|452=1|10=051|
20150519-14:00:30.664: 8=FIX.4.4|9=0386|35=8|49=FROMADRXBOG_XNYSE_BETA|56=LVBSG|34=188|52=20150519-14:00:30|50=FCST|115=FCHB|57=QXP018914|1=QXP018914|207=US|6=45.07|11=-45054e8bed4fb67d|14=800|17=LVSXFIX2-385300000A00000A|21=1|150=F|31=45.04|151=200|32=100|100=US|38=1000|39=1|37=6dcec44160a42c0|583=-6a58cd62c234b255|40=2|41=11752aada5324579|44=45.04|55=CIB|54=5|59=0|63=4|60=20150519-14:00:30.657|453=1|448=XPUS|447=D|452=1|10=115|
20150519-14:00:30.758: 8=FIX.4.4|9=0390|35=8|49=FROMADRXBOG_XNYSE_BETA|56=LVBSG|34=189|52=20150519-14:00:30|50=FCST|115=FCHB|57=QXP018914|1=QXP018914|207=US|6=45.066667|11=-45054e8bed4fb67d|14=900|17=LVSXFIX2-385300000A00000B|21=1|150=F|31=45.04|151=100|32=100|100=US|38=1000|39=1|37=6dcec44160a42c0|583=-6a58cd62c234b255|40=2|41=11752aada5324579|44=45.04|55=CIB|54=5|59=0|63=4|60=20150519-14:00:30.744|453=1|448=XPUS|447=D|452=1|10=069|
20150519-14:00:30.760: 8=FIX.4.4|9=0386|35=8|49=FROMADRXBOG_XNYSE_BETA|56=LVBSG|34=190|52=20150519-14:00:30|50=FCST|115=FCHB|57=QXP018914|1=QXP018914|207=US|6=45.064|11=-45054e8bed4fb67d|14=1000|17=LVSXFIX2-385300000A00000C|21=1|150=F|31=45.04|151=0|32=100|100=US|38=1000|39=2|37=6dcec44160a42c0|583=-6a58cd62c234b255|40=2|41=11752aada5324579|44=45.04|55=CIB|54=5|59=0|63=4|60=20150519-14:00:30.748|453=1|448=XPUS|447=D|452=1|10=106|
20150519-14:00:30.878: 8=FIX.4.4|9=278|35=D|34=169|49=LVBSG|50=QXP018914|52=20150519-14:00:30.878|56=FROMADRXBOG_XNYSE_BETA|57=FCST|128=FCHB|1=QXP018914|11=6b3c4780c214476e|21=1|38=500|40=2|44=45.04|54=5|55=CIB|59=0|60=20150519-14:00:30.878|63=4|100=US|111=100|207=US|583=-6a58cd62c234b255|453=1|448=XPUS|447=D|452=1|10=244|
20150519-14:00:30.890: 8=FIX.4.4|9=0344|35=8|49=FROMADRXBOG_XNYSE_BETA|56=LVBSG|34=191|52=20150519-14:00:30|50=FCST|115=FCHB|57=QXP018914|1=QXP018914|207=US|6=0|11=6b3c4780c214476e|14=0|17=e8e30fc71c44b88|21=1|150=A|31=0|151=500|32=0|100=US|38=500|39=A|37=-252fa496cdddb4f1|583=-6a58cd62c234b255|40=2|44=45.04|55=CIB|54=5|59=0|63=4|60=20150519-14:00:30.884|453=1|448=XPUS|447=D|452=1|10=194|
20150519-14:00:31.312: 8=FIX.4.4|9=0354|35=8|49=FROMADRXBOG_XNYSE_BETA|56=LVBSG|34=192|52=20150519-14:00:31|50=FCST|115=FCHB|57=QXP018914|1=QXP018914|207=US|6=0|11=6b3c4780c214476e|14=0|17=LVSXFIX2-385300000D000002|21=1|150=0|31=0|151=500|32=0|100=US|38=500|39=0|37=-252fa496cdddb4f1|583=-6a58cd62c234b255|40=2|44=45.04|55=CIB|54=5|59=0|63=4|60=20150519-14:00:31.302|453=1|448=XPUS|447=D|452=1|10=030|
20150519-14:00:31.353: 8=FIX.4.4|9=0368|35=8|49=FROMADRXBOG_XNYSE_BETA|56=LVBSG|34=193|52=20150519-14:00:31|50=FCST|115=FCHB|57=QXP018914|1=QXP018914|207=US|6=45.065|11=6b3c4780c214476e|14=100|17=LVSXFIX2-385300000D000003|21=1|150=F|31=45.065|151=400|32=100|100=US|38=500|39=1|37=-252fa496cdddb4f1|583=-6a58cd62c234b255|40=2|44=45.04|55=CIB|54=5|59=0|63=4|60=20150519-14:00:31.348|453=1|448=XPUS|447=D|452=1|10=011|
20150519-14:00:31.360: 8=FIX.4.4|9=0368|35=8|49=FROMADRXBOG_XNYSE_BETA|56=LVBSG|34=194|52=20150519-14:00:31|50=FCST|115=FCHB|57=QXP018914|1=QXP018914|207=US|6=45.0525|11=6b3c4780c214476e|14=200|17=LVSXFIX2-385300000D000004|21=1|150=F|31=45.04|151=300|32=100|100=US|38=500|39=1|37=-252fa496cdddb4f1|583=-6a58cd62c234b255|40=2|44=45.04|55=CIB|54=5|59=0|63=4|60=20150519-14:00:31.354|453=1|448=XPUS|447=D|452=1|10=004|
20150519-14:00:31.380: 8=FIX.4.4|9=0370|35=8|49=FROMADRXBOG_XNYSE_BETA|56=LVBSG|34=195|52=20150519-14:00:31|50=FCST|115=FCHB|57=QXP018914|1=QXP018914|207=US|6=45.05875|11=6b3c4780c214476e|14=400|17=LVSXFIX2-385300000D000005|21=1|150=F|31=45.065|151=100|32=200|100=US|38=500|39=1|37=-252fa496cdddb4f1|583=-6a58cd62c234b255|40=2|44=45.04|55=CIB|54=5|59=0|63=4|60=20150519-14:00:31.364|453=1|448=XPUS|447=D|452=1|10=117|
20150519-14:00:31.386: 8=FIX.4.4|9=0365|35=8|49=FROMADRXBOG_XNYSE_BETA|56=LVBSG|34=196|52=20150519-14:00:31|50=FCST|115=FCHB|57=QXP018914|1=QXP018914|207=US|6=45.06|11=6b3c4780c214476e|14=500|17=LVSXFIX2-385300000D000006|21=1|150=F|31=45.065|151=0|32=100|100=US|38=500|39=2|37=-252fa496cdddb4f1|583=-6a58cd62c234b255|40=2|44=45.04|55=CIB|54=5|59=0|63=4|60=20150519-14:00:31.377|453=1|448=XPUS|447=D|452=1|10=124|
20150519-14:00:50.604: 8=FIX.4.4|9=279|35=D|34=170|49=LVBSG|50=QXP018914|52=20150519-14:00:50.603|56=FROMADRXBOG_XNYSE_BETA|57=FCST|128=FCHB|1=QXP018914|11=2fed5b5b8b7c4660|21=1|38=1000|40=2|44=45.03|54=5|55=CIB|59=0|60=20150519-14:00:50.603|63=4|100=US|111=100|207=US|583=-6a58cd62c234b255|453=1|448=XPUS|447=D|452=1|10=146|
20150519-14:00:50.615: 8=FIX.4.4|9=0348|35=8|49=FROMADRXBOG_XNYSE_BETA|56=LVBSG|34=197|52=20150519-14:00:50|50=FCST|115=FCHB|57=QXP018914|1=QXP018914|207=US|6=0|11=2fed5b5b8b7c4660|14=0|17=-54f5ad9f7bfcbc70|21=1|150=A|31=0|151=1000|32=0|100=US|38=1000|39=A|37=-2a8ff046ac35b93a|583=-6a58cd62c234b255|40=2|44=45.03|55=CIB|54=5|59=0|63=4|60=20150519-14:00:50.609|453=1|448=XPUS|447=D|452=1|10=113|
20150519-14:00:51.050: 8=FIX.4.4|9=0356|35=8|49=FROMADRXBOG_XNYSE_BETA|56=LVBSG|34=198|52=20150519-14:00:51|50=FCST|115=FCHB|57=QXP018914|1=QXP018914|207=US|6=0|11=2fed5b5b8b7c4660|14=0|17=LVSXFIX2-385300000E000002|21=1|150=0|31=0|151=1000|32=0|100=US|38=1000|39=0|37=-2a8ff046ac35b93a|583=-6a58cd62c234b255|40=2|44=45.03|55=CIB|54=5|59=0|63=4|60=20150519-14:00:51.037|453=1|448=XPUS|447=D|452=1|10=230|
20150519-14:00:51.066: 8=FIX.4.4|9=0367|35=8|49=FROMADRXBOG_XNYSE_BETA|56=LVBSG|34=199|52=20150519-14:00:51|50=FCST|115=FCHB|57=QXP018914|1=QXP018914|207=US|6=45.04|11=2fed5b5b8b7c4660|14=100|17=LVSXFIX2-385300000E000003|21=1|150=F|31=45.04|151=900|32=100|100=US|38=1000|39=1|37=-2a8ff046ac35b93a|583=-6a58cd62c234b255|40=2|44=45.03|55=CIB|54=5|59=0|63=4|60=20150519-14:00:51.054|453=1|448=XPUS|447=D|452=1|10=048|
20150519-14:00:51.073: 8=FIX.4.4|9=0368|35=8|49=FROMADRXBOG_XNYSE_BETA|56=LVBSG|34=200|52=20150519-14:00:51|50=FCST|115=FCHB|57=QXP018914|1=QXP018914|207=US|6=45.035|11=2fed5b5b8b7c4660|14=200|17=LVSXFIX2-385300000E000004|21=1|150=F|31=45.03|151=800|32=100|100=US|38=1000|39=1|37=-2a8ff046ac35b93a|583=-6a58cd62c234b255|40=2|44=45.03|55=CIB|54=5|59=0|63=4|60=20150519-14:00:51.059|453=1|448=XPUS|447=D|452=1|10=089|
20150519-14:00:51.080: 8=FIX.4.4|9=0371|35=8|49=FROMADRXBOG_XNYSE_BETA|56=LVBSG|34=201|52=20150519-14:00:51|50=FCST|115=FCHB|57=QXP018914|1=QXP018914|207=US|6=45.033333|11=2fed5b5b8b7c4660|14=300|17=LVSXFIX2-385300000E000005|21=1|150=F|31=45.03|151=700|32=100|100=US|38=1000|39=1|37=-2a8ff046ac35b93a|583=-6a58cd62c234b255|40=2|44=45.03|55=CIB|54=5|59=0|63=4|60=20150519-14:00:51.067|453=1|448=XPUS|447=D|452=1|10=235|
20150519-14:00:51.097: 8=FIX.4.4|9=0369|35=8|49=FROMADRXBOG_XNYSE_BETA|56=LVBSG|34=202|52=20150519-14:00:51|50=FCST|115=FCHB|57=QXP018914|1=QXP018914|207=US|6=45.0325|11=2fed5b5b8b7c4660|14=400|17=LVSXFIX2-385300000E000006|21=1|150=F|31=45.03|151=600|32=100|100=US|38=1000|39=1|37=-2a8ff046ac35b93a|583=-6a58cd62c234b255|40=2|44=45.03|55=CIB|54=5|59=0|63=4|60=20150519-14:00:51.075|453=1|448=XPUS|447=D|452=1|10=142|
20150519-14:00:51.137: 8=FIX.4.4|9=0371|35=8|49=FROMADRXBOG_XNYSE_BETA|56=LVBSG|34=203|52=20150519-14:00:51|50=FCST|115=FCHB|57=QXP018914|1=QXP018914|207=US|6=45.031667|11=2fed5b5b8b7c4660|14=600|17=LVSXFIX2-385300000E000007|21=1|150=F|31=45.03|151=400|32=200|100=US|38=1000|39=1|37=-2a8ff046ac35b93a|583=-6a58cd62c234b255|40=2|44=45.03|55=CIB|54=5|59=0|63=4|60=20150519-14:00:51.080|453=1|448=XPUS|447=D|452=1|10=243|
20150519-14:00:51.138: 8=FIX.4.4|9=0373|35=8|49=FROMADRXBOG_XNYSE_BETA|56=LVBSG|34=204|52=20150519-14:00:51|50=FCST|115=FCHB|57=QXP018914|1=QXP018914|207=US|6=45.035357|11=2fed5b5b8b7c4660|14=700|17=LVSXFIX2-385300000E000008|21=1|150=F|31=45.0575|151=300|32=100|100=US|38=1000|39=1|37=-2a8ff046ac35b93a|583=-6a58cd62c234b255|40=2|44=45.03|55=CIB|54=5|59=0|63=4|60=20150519-14:00:51.099|453=1|448=XPUS|447=D|452=1|10=110|
20150519-14:00:51.160: 8=FIX.4.4|9=0371|35=8|49=FROMADRXBOG_XNYSE_BETA|56=LVBSG|34=205|52=20150519-14:00:51|50=FCST|115=FCHB|57=QXP018914|1=QXP018914|207=US|6=45.034688|11=2fed5b5b8b7c4660|14=800|17=LVSXFIX2-385300000E000009|21=1|150=F|31=45.03|151=200|32=100|100=US|38=1000|39=1|37=-2a8ff046ac35b93a|583=-6a58cd62c234b255|40=2|44=45.03|55=CIB|54=5|59=0|63=4|60=20150519-14:00:51.154|453=1|448=XPUS|447=D|452=1|10=254|
20150519-14:00:51.168: 8=FIX.4.4|9=0371|35=8|49=FROMADRXBOG_XNYSE_BETA|56=LVBSG|34=206|52=20150519-14:00:51|50=FCST|115=FCHB|57=QXP018914|1=QXP018914|207=US|6=45.034167|11=2fed5b5b8b7c4660|14=900|17=LVSXFIX2-385300000E00000A|21=1|150=F|31=45.03|151=100|32=100|100=US|38=1000|39=1|37=-2a8ff046ac35b93a|583=-6a58cd62c234b255|40=2|44=45.03|55=CIB|54=5|59=0|63=4|60=20150519-14:00:51.163|453=1|448=XPUS|447=D|452=1|10=255|
20150519-14:00:51.179: 8=FIX.4.4|9=0369|35=8|49=FROMADRXBOG_XNYSE_BETA|56=LVBSG|34=207|52=20150519-14:00:51|50=FCST|115=FCHB|57=QXP018914|1=QXP018914|207=US|6=45.03475|11=2fed5b5b8b7c4660|14=1000|17=LVSXFIX2-385300000E00000B|21=1|150=F|31=45.04|151=0|32=100|100=US|38=1000|39=2|37=-2a8ff046ac35b93a|583=-6a58cd62c234b255|40=2|44=45.03|55=CIB|54=5|59=0|63=4|60=20150519-14:00:51.169|453=1|448=XPUS|447=D|452=1|10=165|
20150519-14:01:50.905: 8=FIX.4.4|9=72|35=0|34=171|49=LVBSG|52=20150519-14:01:50.905|56=FROMADRXBOG_XNYSE_BETA|10=103|
20150519-14:01:51.181: 8=FIX.4.4|9=0068|35=0|49=FROMADRXBOG_XNYSE_BETA|56=LVBSG|34=208|52=20150519-14:01:51|10=002|
20150519-14:02:51.179: 8=FIX.4.4|9=0068|35=0|49=FROMADRXBOG_XNYSE_BETA|56=LVBSG|34=209|52=20150519-14:02:51|10=004|
20150519-14:02:51.179: 8=FIX.4.4|9=72|35=0|34=172|49=LVBSG|52=20150519-14:02:51.179|56=FROMADRXBOG_XNYSE_BETA|10=109|
20150519-14:03:51.177: 8=FIX.4.4|9=0068|35=0|49=FROMADRXBOG_XNYSE_BETA|56=LVBSG|34=210|52=20150519-14:03:51|10=253|
20150519-14:03:51.895: 8=FIX.4.4|9=72|35=0|34=173|49=LVBSG|52=20150519-14:03:51.895|56=FROMADRXBOG_XNYSE_BETA|10=116|
20150519-14:04:51.178: 8=FIX.4.4|9=0068|35=0|49=FROMADRXBOG_XNYSE_BETA|56=LVBSG|34=211|52=20150519-14:04:51|10=255|
20150519-14:04:51.895: 8=FIX.4.4|9=72|35=0|34=174|49=LVBSG|52=20150519-14:04:51.895|56=FROMADRXBOG_XNYSE_BETA|10=118|
20150519-14:05:51.177: 8=FIX.4.4|9=0068|35=0|49=FROMADRXBOG_XNYSE_BETA|56=LVBSG|34=212|52=20150519-14:05:51|10=001|
20150519-14:05:51.899: 8=FIX.4.4|9=72|35=0|34=175|49=LVBSG|52=20150519-14:05:51.899|56=FROMADRXBOG_XNYSE_BETA|10=124|
20150519-14:06:51.188: 8=FIX.4.4|9=0068|35=0|49=FROMADRXBOG_XNYSE_BETA|56=LVBSG|34=213|52=20150519-14:06:51|10=003|
20150519-14:06:52.896: 8=FIX.4.4|9=72|35=0|34=176|49=LVBSG|52=20150519-14:06:52.896|56=FROMADRXBOG_XNYSE_BETA|10=124|
20150519-14:07:34.139: 8=FIX.4.4|9=278|35=D|34=177|49=LVBSG|50=QXP018914|52=20150519-14:07:34.139|56=FROMADRXBOG_XNYSE_BETA|57=FCST|128=FCHB|1=QXP018914|11=42f2ff6149d64792|21=1|38=600|40=2|44=10.78|54=1|55=AVH|59=0|60=20150519-14:07:34.138|63=4|100=US|111=100|207=US|583=-24ffb48c7f94b27f|453=1|448=XPUS|447=D|452=1|10=131|
20150519-14:07:34.167: 8=FIX.4.4|9=0345|35=8|49=FROMADRXBOG_XNYSE_BETA|56=LVBSG|34=214|52=20150519-14:07:34|50=FCST|115=FCHB|57=QXP018914|1=QXP018914|207=US|6=0|11=42f2ff6149d64792|14=0|17=-7fd4c704e57db287|21=1|150=A|31=0|151=600|32=0|100=US|38=600|39=A|37=64858539845648ff|583=-24ffb48c7f94b27f|40=2|44=10.78|55=AVH|54=1|59=0|63=4|60=20150519-14:07:34.162|453=1|448=XPUS|447=D|452=1|10=146|
20150519-14:07:34.739: 8=FIX.4.4|9=0353|35=8|49=FROMADRXBOG_XNYSE_BETA|56=LVBSG|34=215|52=20150519-14:07:34|50=FCST|115=FCHB|57=QXP018914|1=QXP018914|207=US|6=0|11=42f2ff6149d64792|14=0|17=LVSXFIX2-385300000J000002|21=1|150=0|31=0|151=600|32=0|100=US|38=600|39=0|37=64858539845648ff|583=-24ffb48c7f94b27f|40=2|44=10.78|55=AVH|54=1|59=0|63=4|60=20150519-14:07:34.732|453=1|448=XPUS|447=D|452=1|10=157|
20150519-14:07:34.854: 8=FIX.4.4|9=0365|35=8|49=FROMADRXBOG_XNYSE_BETA|56=LVBSG|34=216|52=20150519-14:07:34|50=FCST|115=FCHB|57=QXP018914|1=QXP018914|207=US|6=10.77|11=42f2ff6149d64792|14=100|17=LVSXFIX2-385300000J000003|21=1|150=F|31=10.77|151=500|32=100|100=US|38=600|39=1|37=64858539845648ff|583=-24ffb48c7f94b27f|40=2|44=10.78|55=AVH|54=1|59=0|63=4|60=20150519-14:07:34.846|453=1|448=XPUS|447=D|452=1|10=026|
20150519-14:07:52.043: 8=FIX.4.4|9=0368|35=8|49=FROMADRXBOG_XNYSE_BETA|56=LVBSG|34=217|52=20150519-14:07:52|50=FCST|115=FCHB|57=QXP018914|1=QXP018914|207=US|6=10.773333|11=42f2ff6149d64792|14=150|17=LVSXFIX2-385300000J000004|21=1|150=F|31=10.78|151=450|32=50|100=US|38=600|39=1|37=64858539845648ff|583=-24ffb48c7f94b27f|40=2|44=10.78|55=AVH|54=1|59=0|63=4|60=20150519-14:07:52.038|453=1|448=XPUS|447=D|452=1|10=194|
20150519-14:08:17.169: 8=FIX.4.4|9=279|35=D|34=178|49=LVBSG|50=QXP018914|52=20150519-14:08:17.168|56=FROMADRXBOG_XNYSE_BETA|57=FCST|128=FCHB|1=QXP018914|11=-5fd6d5cadd5ab72f|21=1|38=500|40=2|44=45.04|54=5|55=CIB|59=0|60=20150519-14:08:17.168|63=4|100=US|111=100|207=US|583=-6a58cd62c234b255|453=1|448=XPUS|447=D|452=1|10=076|
20150519-14:08:17.180: 8=FIX.4.4|9=0345|35=8|49=FROMADRXBOG_XNYSE_BETA|56=LVBSG|34=218|52=20150519-14:08:17|50=FCST|115=FCHB|57=QXP018914|1=QXP018914|207=US|6=0|11=-5fd6d5cadd5ab72f|14=0|17=3b581e3317e3447b|21=1|150=A|31=0|151=500|32=0|100=US|38=500|39=A|37=68167362669442f8|583=-6a58cd62c234b255|40=2|44=45.04|55=CIB|54=5|59=0|63=4|60=20150519-14:08:17.175|453=1|448=XPUS|447=D|452=1|10=135|
20150519-14:08:17.612: 8=FIX.4.4|9=0354|35=8|49=FROMADRXBOG_XNYSE_BETA|56=LVBSG|34=219|52=20150519-14:08:17|50=FCST|115=FCHB|57=QXP018914|1=QXP018914|207=US|6=0|11=-5fd6d5cadd5ab72f|14=0|17=LVSXFIX2-385300000L000002|21=1|150=0|31=0|151=500|32=0|100=US|38=500|39=0|37=68167362669442f8|583=-6a58cd62c234b255|40=2|44=45.04|55=CIB|54=5|59=0|63=4|60=20150519-14:08:17.584|453=1|448=XPUS|447=D|452=1|10=047|
20150519-14:08:19.333: 8=FIX.4.4|9=300|35=G|34=179|49=LVBSG|50=QXP018914|52=20150519-14:08:19.333|56=FROMADRXBOG_XNYSE_BETA|57=FCST|128=FCHB|1=QXP018914|11=-5e1063a6a4b0b15d|21=1|38=500|40=2|41=-5fd6d5cadd5ab72f|44=45.01|54=5|55=CIB|59=0|60=20150519-14:08:19.333|63=4|100=US|111=100|207=US|583=-6a58cd62c234b255|453=1|448=XPUS|447=D|452=1|10=084|
20150519-14:08:19.349: 8=FIX.4.4|9=0367|35=8|49=FROMADRXBOG_XNYSE_BETA|56=LVBSG|34=220|52=20150519-14:08:19|50=FCST|115=FCHB|57=QXP018914|1=QXP018914|207=US|6=0|11=-5e1063a6a4b0b15d|14=0|17=-11a6b5967e7cb92a|21=1|150=E|31=0|151=500|32=0|100=US|38=500|39=E|37=68167362669442f8|583=-6a58cd62c234b255|40=2|41=-5fd6d5cadd5ab72f|44=45.01|55=CIB|54=5|59=0|63=4|60=20150519-14:08:19.343|453=1|448=XPUS|447=D|452=1|10=057|
20150519-14:08:19.844: 8=FIX.4.4|9=0375|35=8|49=FROMADRXBOG_XNYSE_BETA|56=LVBSG|34=221|52=20150519-14:08:19|50=FCST|115=FCHB|57=QXP018914|1=QXP018914|207=US|6=0|11=-5e1063a6a4b0b15d|14=0|17=LVSXFIX2-385300000L000005|21=1|150=5|31=0|151=500|32=0|100=US|38=500|39=0|37=68167362669442f8|583=-6a58cd62c234b255|40=2|41=-5fd6d5cadd5ab72f|44=45.01|55=CIB|54=5|59=0|63=4|60=20150519-14:08:19.823|453=1|448=XPUS|447=D|452=1|10=078|
20150519-14:08:19.846: 8=FIX.4.4|9=300|35=G|34=180|49=LVBSG|50=QXP018914|52=20150519-14:08:19.846|56=FROMADRXBOG_XNYSE_BETA|57=FCST|128=FCHB|1=QXP018914|11=-3ef0340cfd7bb135|21=1|38=500|40=2|41=-5e1063a6a4b0b15d|44=44.98|54=5|55=CIB|59=0|60=20150519-14:08:19.846|63=4|100=US|111=100|207=US|583=-6a58cd62c234b255|453=1|448=XPUS|447=D|452=1|10=210|
20150519-14:08:19.897: 8=FIX.4.4|9=0366|35=8|49=FROMADRXBOG_XNYSE_BETA|56=LVBSG|34=222|52=20150519-14:08:19|50=FCST|115=FCHB|57=QXP018914|1=QXP018914|207=US|6=0|11=-3ef0340cfd7bb135|14=0|17=416afd0e7df941e6|21=1|150=E|31=0|151=500|32=0|100=US|38=500|39=E|37=68167362669442f8|583=-6a58cd62c234b255|40=2|41=-5e1063a6a4b0b15d|44=44.98|55=CIB|54=5|59=0|63=4|60=20150519-14:08:19.880|453=1|448=XPUS|447=D|452=1|10=185|
20150519-14:08:20.324: 8=FIX.4.4|9=0375|35=8|49=FROMADRXBOG_XNYSE_BETA|56=LVBSG|34=223|52=20150519-14:08:20|50=FCST|115=FCHB|57=QXP018914|1=QXP018914|207=US|6=0|11=-3ef0340cfd7bb135|14=0|17=LVSXFIX2-385300000L000008|21=1|150=5|31=0|151=500|32=0|100=US|38=500|39=0|37=68167362669442f8|583=-6a58cd62c234b255|40=2|41=-5e1063a6a4b0b15d|44=44.98|55=CIB|54=5|59=0|63=4|60=20150519-14:08:20.318|453=1|448=XPUS|447=D|452=1|10=182|
20150519-14:08:20.341: 8=FIX.4.4|9=0385|35=8|49=FROMADRXBOG_XNYSE_BETA|56=LVBSG|34=224|52=20150519-14:08:20|50=FCST|115=FCHB|57=QXP018914|1=QXP018914|207=US|6=44.98|11=-3ef0340cfd7bb135|14=500|17=LVSXFIX2-385300000L000009|21=1|150=F|31=44.98|151=0|32=500|100=US|38=500|39=2|37=68167362669442f8|583=-6a58cd62c234b255|40=2|41=-5e1063a6a4b0b15d|44=44.98|55=CIB|54=5|59=0|63=4|60=20150519-14:08:20.327|453=1|448=XPUS|447=D|452=1|10=223|
20150519-14:08:26.174: 8=FIX.4.4|9=280|35=D|34=181|49=LVBSG|50=QXP018914|52=20150519-14:08:26.174|56=FROMADRXBOG_XNYSE_BETA|57=FCST|128=FCHB|1=QXP018914|11=-4484db0cf4d0bb03|21=1|38=1000|40=2|44=45.01|54=5|55=CIB|59=0|60=20150519-14:08:26.174|63=4|100=US|111=100|207=US|583=-6a58cd62c234b255|453=1|448=XPUS|447=D|452=1|10=194|
20150519-14:08:26.208: 8=FIX.4.4|9=0348|35=8|49=FROMADRXBOG_XNYSE_BETA|56=LVBSG|34=225|52=20150519-14:08:26|50=FCST|115=FCHB|57=QXP018914|1=QXP018914|207=US|6=0|11=-4484db0cf4d0bb03|14=0|17=726b4875234b4cf9|21=1|150=A|31=0|151=1000|32=0|100=US|38=1000|39=A|37=-6f184457ce20ba78|583=-6a58cd62c234b255|40=2|44=45.01|55=CIB|54=5|59=0|63=4|60=20150519-14:08:26.200|453=1|448=XPUS|447=D|452=1|10=028|
20150519-14:08:26.600: 8=FIX.4.4|9=0357|35=8|49=FROMADRXBOG_XNYSE_BETA|56=LVBSG|34=226|52=20150519-14:08:26|50=FCST|115=FCHB|57=QXP018914|1=QXP018914|207=US|6=0|11=-4484db0cf4d0bb03|14=0|17=LVSXFIX2-385300000M000002|21=1|150=0|31=0|151=1000|32=0|100=US|38=1000|39=0|37=-6f184457ce20ba78|583=-6a58cd62c234b255|40=2|44=45.01|55=CIB|54=5|59=0|63=4|60=20150519-14:08:26.593|453=1|448=XPUS|447=D|452=1|10=197|
20150519-14:08:26.667: 8=FIX.4.4|9=0368|35=8|49=FROMADRXBOG_XNYSE_BETA|56=LVBSG|34=227|52=20150519-14:08:26|50=FCST|115=FCHB|57=QXP018914|1=QXP018914|207=US|6=45.03|11=-4484db0cf4d0bb03|14=400|17=LVSXFIX2-385300000M000003|21=1|150=F|31=45.03|151=600|32=400|100=US|38=1000|39=1|37=-6f184457ce20ba78|583=-6a58cd62c234b255|40=2|44=45.01|55=CIB|54=5|59=0|63=4|60=20150519-14:08:26.658|453=1|448=XPUS|447=D|452=1|10=019|
20150519-14:08:26.682: 8=FIX.4.4|9=0369|35=8|49=FROMADRXBOG_XNYSE_BETA|56=LVBSG|34=228|52=20150519-14:08:26|50=FCST|115=FCHB|57=QXP018914|1=QXP018914|207=US|6=45.026|11=-4484db0cf4d0bb03|14=500|17=LVSXFIX2-385300000M000004|21=1|150=F|31=45.01|151=500|32=100|100=US|38=1000|39=1|37=-6f184457ce20ba78|583=-6a58cd62c234b255|40=2|44=45.01|55=CIB|54=5|59=0|63=4|60=20150519-14:08:26.671|453=1|448=XPUS|447=D|452=1|10=065|
20150519-14:08:48.700: 8=FIX.4.4|9=0372|35=8|49=FROMADRXBOG_XNYSE_BETA|56=LVBSG|34=229|52=20150519-14:08:48|50=FCST|115=FCHB|57=QXP018914|1=QXP018914|207=US|6=45.023333|11=-4484db0cf4d0bb03|14=600|17=LVSXFIX2-385300000M000005|21=1|150=F|31=45.01|151=400|32=100|100=US|38=1000|39=1|37=-6f184457ce20ba78|583=-6a58cd62c234b255|40=2|44=45.01|55=CIB|54=5|59=0|63=4|60=20150519-14:08:48.689|453=1|448=XPUS|447=D|452=1|10=228|
20150519-14:08:48.732: 8=FIX.4.4|9=0372|35=8|49=FROMADRXBOG_XNYSE_BETA|56=LVBSG|34=230|52=20150519-14:08:48|50=FCST|115=FCHB|57=QXP018914|1=QXP018914|207=US|6=45.021429|11=-4484db0cf4d0bb03|14=700|17=LVSXFIX2-385300000M000006|21=1|150=F|31=45.01|151=300|32=100|100=US|38=1000|39=1|37=-6f184457ce20ba78|583=-6a58cd62c234b255|40=2|44=45.01|55=CIB|54=5|59=0|63=4|60=20150519-14:08:48.712|453=1|448=XPUS|447=D|452=1|10=212|
20150519-14:08:48.751: 8=FIX.4.4|9=0370|35=8|49=FROMADRXBOG_XNYSE_BETA|56=LVBSG|34=231|52=20150519-14:08:48|50=FCST|115=FCHB|57=QXP018914|1=QXP018914|207=US|6=45.0225|11=-4484db0cf4d0bb03|14=800|17=LVSXFIX2-385300000M000007|21=1|150=F|31=45.03|151=200|32=100|100=US|38=1000|39=1|37=-6f184457ce20ba78|583=-6a58cd62c234b255|40=2|44=45.01|55=CIB|54=5|59=0|63=4|60=20150519-14:08:48.726|453=1|448=XPUS|447=D|452=1|10=114|
20150519-14:08:48.763: 8=FIX.4.4|9=0372|35=8|49=FROMADRXBOG_XNYSE_BETA|56=LVBSG|34=232|52=20150519-14:08:48|50=FCST|115=FCHB|57=QXP018914|1=QXP018914|207=US|6=45.022222|11=-4484db0cf4d0bb03|14=900|17=LVSXFIX2-385300000M000008|21=1|150=F|31=45.02|151=100|32=100|100=US|38=1000|39=1|37=-6f184457ce20ba78|583=-6a58cd62c234b255|40=2|44=45.01|55=CIB|54=5|59=0|63=4|60=20150519-14:08:48.728|453=1|448=XPUS|447=D|452=1|10=216|
20150519-14:08:48.766: 8=FIX.4.4|9=0368|35=8|49=FROMADRXBOG_XNYSE_BETA|56=LVBSG|34=233|52=20150519-14:08:48|50=FCST|115=FCHB|57=QXP018914|1=QXP018914|207=US|6=45.022|11=-4484db0cf4d0bb03|14=1000|17=LVSXFIX2-385300000M000009|21=1|150=F|31=45.02|151=0|32=100|100=US|38=1000|39=2|37=-6f184457ce20ba78|583=-6a58cd62c234b255|40=2|44=45.01|55=CIB|54=5|59=0|63=4|60=20150519-14:08:48.734|453=1|448=XPUS|447=D|452=1|10=014|
20150519-14:09:09.142: 8=FIX.4.4|9=279|35=D|34=182|49=LVBSG|50=QXP018914|52=20150519-14:09:09.142|56=FROMADRXBOG_XNYSE_BETA|57=FCST|128=FCHB|1=QXP018914|11=-49d41868400bf3d|21=1|38=1000|40=2|44=45.08|54=5|55=CIB|59=0|60=20150519-14:09:09.142|63=4|100=US|111=100|207=US|583=-6a58cd62c234b255|453=1|448=XPUS|447=D|452=1|10=025|
20150519-14:09:09.164: 8=FIX.4.4|9=0346|35=8|49=FROMADRXBOG_XNYSE_BETA|56=LVBSG|34=234|52=20150519-14:09:09|50=FCST|115=FCHB|57=QXP018914|1=QXP018914|207=US|6=0|11=-49d41868400bf3d|14=0|17=-59ca9bc0f973bf6e|21=1|150=A|31=0|151=1000|32=0|100=US|38=1000|39=A|37=3c9bf6364044f21|583=-6a58cd62c234b255|40=2|44=45.08|55=CIB|54=5|59=0|63=4|60=20150519-14:09:09.158|453=1|448=XPUS|447=D|452=1|10=214|
20150519-14:09:09.578: 8=FIX.4.4|9=0354|35=8|49=FROMADRXBOG_XNYSE_BETA|56=LVBSG|34=235|52=20150519-14:09:09|50=FCST|115=FCHB|57=QXP018914|1=QXP018914|207=US|6=0|11=-49d41868400bf3d|14=0|17=LVSXFIX2-385300000N000002|21=1|150=0|31=0|151=1000|32=0|100=US|38=1000|39=0|37=3c9bf6364044f21|583=-6a58cd62c234b255|40=2|44=45.08|55=CIB|54=5|59=0|63=4|60=20150519-14:09:09.567|453=1|448=XPUS|447=D|452=1|10=133|
20150519-14:09:12.031: 8=FIX.4.4|9=299|35=G|34=183|49=LVBSG|50=QXP018914|52=20150519-14:09:12.031|56=FROMADRXBOG_XNYSE_BETA|57=FCST|128=FCHB|1=QXP018914|11=6b0d059b66a748ab|21=1|38=1000|40=2|41=-49d41868400bf3d|44=45.07|54=5|55=CIB|59=0|60=20150519-14:09:12.031|63=4|100=US|111=100|207=US|583=-6a58cd62c234b255|453=1|448=XPUS|447=D|452=1|10=014|
20150519-14:09:12.070: 8=FIX.4.4|9=0363|35=8|49=FROMADRXBOG_XNYSE_BETA|56=LVBSG|34=236|52=20150519-14:09:12|50=FCST|115=FCHB|57=QXP018914|1=QXP018914|207=US|6=0|11=6b0d059b66a748ab|14=0|17=-b7bf15b05b7ff|21=1|150=E|31=0|151=1000|32=0|100=US|38=1000|39=E|37=3c9bf6364044f21|583=-6a58cd62c234b255|40=2|41=-49d41868400bf3d|44=45.07|55=CIB|54=5|59=0|63=4|60=20150519-14:09:12.047|453=1|448=XPUS|447=D|452=1|10=248|
20150519-14:09:12.494: 8=FIX.4.4|9=0374|35=8|49=FROMADRXBOG_XNYSE_BETA|56=LVBSG|34=237|52=20150519-14:09:12|50=FCST|115=FCHB|57=QXP018914|1=QXP018914|207=US|6=0|11=6b0d059b66a748ab|14=0|17=LVSXFIX2-385300000N000005|21=1|150=5|31=0|151=1000|32=0|100=US|38=1000|39=0|37=3c9bf6364044f21|583=-6a58cd62c234b255|40=2|41=-49d41868400bf3d|44=45.07|55=CIB|54=5|59=0|63=4|60=20150519-14:09:12.481|453=1|448=XPUS|447=D|452=1|10=129|
20150519-14:09:15.427: 8=FIX.4.4|9=0385|35=8|49=FROMADRXBOG_XNYSE_BETA|56=LVBSG|34=238|52=20150519-14:09:15|50=FCST|115=FCHB|57=QXP018914|1=QXP018914|207=US|6=45.07|11=6b0d059b66a748ab|14=100|17=LVSXFIX2-385300000N000006|21=1|150=F|31=45.07|151=900|32=100|100=US|38=1000|39=1|37=3c9bf6364044f21|583=-6a58cd62c234b255|40=2|41=-49d41868400bf3d|44=45.07|55=CIB|54=5|59=0|63=4|60=20150519-14:09:15.397|453=1|448=XPUS|447=D|452=1|10=217|
20150519-14:09:17.078: 8=FIX.4.4|9=299|35=G|34=184|49=LVBSG|50=QXP018914|52=20150519-14:09:17.078|56=FROMADRXBOG_XNYSE_BETA|57=FCST|128=FCHB|1=QXP018914|11=18ec8da4c6654e54|21=1|38=1000|40=2|41=6b0d059b66a748ab|44=45.06|54=5|55=CIB|59=0|60=20150519-14:09:17.078|63=4|100=US|111=100|207=US|583=-6a58cd62c234b255|453=1|448=XPUS|447=D|452=1|10=154|
20150519-14:09:17.101: 8=FIX.4.4|9=0371|35=8|49=FROMADRXBOG_XNYSE_BETA|56=LVBSG|34=239|52=20150519-14:09:17|50=FCST|115=FCHB|57=QXP018914|1=QXP018914|207=US|6=45.07|11=18ec8da4c6654e54|14=100|17=-239e190cacd8b084|21=1|150=E|31=0|151=900|32=0|100=US|38=1000|39=E|37=3c9bf6364044f21|583=-6a58cd62c234b255|40=2|41=6b0d059b66a748ab|44=45.06|55=CIB|54=5|59=0|63=4|60=20150519-14:09:17.084|453=1|448=XPUS|447=D|452=1|10=226|
20150519-14:09:17.516: 8=FIX.4.4|9=0379|35=8|49=FROMADRXBOG_XNYSE_BETA|56=LVBSG|34=240|52=20150519-14:09:17|50=FCST|115=FCHB|57=QXP018914|1=QXP018914|207=US|6=45.07|11=18ec8da4c6654e54|14=100|17=LVSXFIX2-385300000N000009|21=1|150=5|31=0|151=900|32=0|100=US|38=1000|39=1|37=3c9bf6364044f21|583=-6a58cd62c234b255|40=2|41=6b0d059b66a748ab|44=45.06|55=CIB|54=5|59=0|63=4|60=20150519-14:09:17.510|453=1|448=XPUS|447=D|452=1|10=250|
20150519-14:09:54.973: 8=FIX.4.4|9=300|35=G|34=185|49=LVBSG|50=QXP018914|52=20150519-14:09:54.973|56=FROMADRXBOG_XNYSE_BETA|57=FCST|128=FCHB|1=QXP018914|11=-3ca57cab8a46b57c|21=1|38=2100|40=2|41=42f2ff6149d64792|44=10.78|54=1|55=AVH|59=0|60=20150519-14:09:54.973|63=4|100=US|111=100|207=US|583=-24ffb48c7f94b27f|453=1|448=XPUS|447=D|452=1|10=070|
20150519-14:09:55.010: 8=FIX.4.4|9=0376|35=8|49=FROMADRXBOG_XNYSE_BETA|56=LVBSG|34=241|52=20150519-14:09:55|50=FCST|115=FCHB|57=QXP018914|1=QXP018914|207=US|6=10.773333|11=-3ca57cab8a46b57c|14=150|17=3e63f4dfa5954d49|21=1|150=E|31=0|151=450|32=0|100=US|38=2100|39=E|37=64858539845648ff|583=-24ffb48c7f94b27f|40=2|41=42f2ff6149d64792|44=10.78|55=AVH|54=1|59=0|63=4|60=20150519-14:09:54.993|453=1|448=XPUS|447=D|452=1|10=069|
20150519-14:09:55.575: 8=FIX.4.4|9=0386|35=8|49=FROMADRXBOG_XNYSE_BETA|56=LVBSG|34=242|52=20150519-14:09:55|50=FCST|115=FCHB|57=QXP018914|1=QXP018914|207=US|6=10.773333|11=-3ca57cab8a46b57c|14=150|17=LVSXFIX2-385300000J000007|21=1|150=5|31=0|151=1950|32=0|100=US|38=2100|39=1|37=64858539845648ff|583=-24ffb48c7f94b27f|40=2|41=42f2ff6149d64792|44=10.78|55=AVH|54=1|59=0|63=4|60=20150519-14:09:55.544|453=1|448=XPUS|447=D|452=1|10=171|
20150519-14:09:56.536: 8=FIX.4.4|9=299|35=G|34=186|49=LVBSG|50=QXP018914|52=20150519-14:09:56.536|56=FROMADRXBOG_XNYSE_BETA|57=FCST|128=FCHB|1=QXP018914|11=2b45ae910bb94280|21=1|38=1000|40=2|41=18ec8da4c6654e54|44=45.04|54=5|55=CIB|59=0|60=20150519-14:09:56.536|63=4|100=US|111=100|207=US|583=-6a58cd62c234b255|453=1|448=XPUS|447=D|452=1|10=103|
20150519-14:09:56.585: 8=FIX.4.4|9=0370|35=8|49=FROMADRXBOG_XNYSE_BETA|56=LVBSG|34=243|52=20150519-14:09:56|50=FCST|115=FCHB|57=QXP018914|1=QXP018914|207=US|6=45.07|11=2b45ae910bb94280|14=100|17=10c82a04c2264397|21=1|150=E|31=0|151=900|32=0|100=US|38=1000|39=E|37=3c9bf6364044f21|583=-6a58cd62c234b255|40=2|41=18ec8da4c6654e54|44=45.04|55=CIB|54=5|59=0|63=4|60=20150519-14:09:56.577|453=1|448=XPUS|447=D|452=1|10=236|
20150519-14:09:57.092: 8=FIX.4.4|9=0379|35=8|49=FROMADRXBOG_XNYSE_BETA|56=LVBSG|34=244|52=20150519-14:09:57|50=FCST|115=FCHB|57=QXP018914|1=QXP018914|207=US|6=45.07|11=2b45ae910bb94280|14=100|17=LVSXFIX2-385300000N00000C|21=1|150=5|31=0|151=900|32=0|100=US|38=1000|39=1|37=3c9bf6364044f21|583=-6a58cd62c234b255|40=2|41=18ec8da4c6654e54|44=45.04|55=CIB|54=5|59=0|63=4|60=20150519-14:09:57.081|453=1|448=XPUS|447=D|452=1|10=218|
20150519-14:10:56.895: 8=FIX.4.4|9=72|35=0|34=187|49=LVBSG|52=20150519-14:10:56.895|56=FROMADRXBOG_XNYSE_BETA|10=124|
20150519-14:10:57.089: 8=FIX.4.4|9=0068|35=0|49=FROMADRXBOG_XNYSE_BETA|56=LVBSG|34=245|52=20150519-14:10:57|10=009|
20150519-14:11:34.331: 8=FIX.4.4|9=301|35=G|34=188|49=LVBSG|50=QXP018914|52=20150519-14:11:34.331|56=FROMADRXBOG_XNYSE_BETA|57=FCST|128=FCHB|1=QXP018914|11=-5b6a3b4eaad4bd27|21=1|38=2100|40=2|41=-3ca57cab8a46b57c|44=10.79|54=1|55=AVH|59=0|60=20150519-14:11:34.331|63=4|100=US|111=100|207=US|583=-24ffb48c7f94b27f|453=1|448=XPUS|447=D|452=1|10=037|
20150519-14:11:34.342: 8=FIX.4.4|9=0378|35=8|49=FROMADRXBOG_XNYSE_BETA|56=LVBSG|34=246|52=20150519-14:11:34|50=FCST|115=FCHB|57=QXP018914|1=QXP018914|207=US|6=10.773333|11=-5b6a3b4eaad4bd27|14=150|17=467b03b29ee544d4|21=1|150=E|31=0|151=1950|32=0|100=US|38=2100|39=E|37=64858539845648ff|583=-24ffb48c7f94b27f|40=2|41=-3ca57cab8a46b57c|44=10.79|55=AVH|54=1|59=0|63=4|60=20150519-14:11:34.337|453=1|448=XPUS|447=D|452=1|10=048|
20150519-14:11:34.842: 8=FIX.4.4|9=0387|35=8|49=FROMADRXBOG_XNYSE_BETA|56=LVBSG|34=247|52=20150519-14:11:34|50=FCST|115=FCHB|57=QXP018914|1=QXP018914|207=US|6=10.773333|11=-5b6a3b4eaad4bd27|14=150|17=LVSXFIX2-385300000J00000A|21=1|150=5|31=0|151=1950|32=0|100=US|38=2100|39=1|37=64858539845648ff|583=-24ffb48c7f94b27f|40=2|41=-3ca57cab8a46b57c|44=10.79|55=AVH|54=1|59=0|63=4|60=20150519-14:11:34.835|453=1|448=XPUS|447=D|452=1|10=175|
20150519-14:11:34.849: 8=FIX.4.4|9=0389|35=8|49=FROMADRXBOG_XNYSE_BETA|56=LVBSG|34=248|52=20150519-14:11:34|50=FCST|115=FCHB|57=QXP018914|1=QXP018914|207=US|6=10.78|11=-5b6a3b4eaad4bd27|14=250|17=LVSXFIX2-385300000J00000B|21=1|150=F|31=10.79|151=1850|32=100|100=US|38=2100|39=1|37=64858539845648ff|583=-24ffb48c7f94b27f|40=2|41=-3ca57cab8a46b57c|44=10.79|55=AVH|54=1|59=0|63=4|60=20150519-14:11:34.844|453=1|448=XPUS|447=D|452=1|10=041|
20150519-14:11:34.853: 8=FIX.4.4|9=0393|35=8|49=FROMADRXBOG_XNYSE_BETA|56=LVBSG|34=249|52=20150519-14:11:34|50=FCST|115=FCHB|57=QXP018914|1=QXP018914|207=US|6=10.782857|11=-5b6a3b4eaad4bd27|14=350|17=LVSXFIX2-385300000J00000C|21=1|150=F|31=10.79|151=1750|32=100|100=US|38=2100|39=1|37=64858539845648ff|583=-24ffb48c7f94b27f|40=2|41=-3ca57cab8a46b57c|44=10.79|55=AVH|54=1|59=0|63=4|60=20150519-14:11:34.848|453=1|448=XPUS|447=D|452=1|10=000|
20150519-14:11:35.066: 8=FIX.4.4|9=300|35=G|34=189|49=LVBSG|50=QXP018914|52=20150519-14:11:35.066|56=FROMADRXBOG_XNYSE_BETA|57=FCST|128=FCHB|1=QXP018914|11=-560529902092bfef|21=1|38=1000|40=2|41=2b45ae910bb94280|44=45.03|54=5|55=CIB|59=0|60=20150519-14:11:35.066|63=4|100=US|111=100|207=US|583=-6a58cd62c234b255|453=1|448=XPUS|447=D|452=1|10=009|
20150519-14:11:35.076: 8=FIX.4.4|9=0371|35=8|49=FROMADRXBOG_XNYSE_BETA|56=LVBSG|34=250|52=20150519-14:11:35|50=FCST|115=FCHB|57=QXP018914|1=QXP018914|207=US|6=45.07|11=-560529902092bfef|14=100|17=-7a9b2f0becdb116|21=1|150=E|31=0|151=900|32=0|100=US|38=1000|39=E|37=3c9bf6364044f21|583=-6a58cd62c234b255|40=2|41=2b45ae910bb94280|44=45.03|55=CIB|54=5|59=0|63=4|60=20150519-14:11:35.071|453=1|448=XPUS|447=D|452=1|10=125|
20150519-14:11:35.150: 8=FIX.4.4|9=0380|35=8|49=FROMADRXBOG_XNYSE_BETA|56=LVBSG|34=251|52=20150519-14:11:35|50=FCST|115=FCHB|57=QXP018914|1=QXP018914|207=US|6=45.07|11=-560529902092bfef|14=100|17=LVSXFIX2-385300000N00000F|21=1|150=5|31=0|151=900|32=0|100=US|38=1000|39=1|37=3c9bf6364044f21|583=-6a58cd62c234b255|40=2|41=2b45ae910bb94280|44=44.98|55=CIB|54=5|59=0|63=4|60=20150519-14:11:35.144|453=1|448=XPUS|447=D|452=1|10=146|
20150519-14:11:35.163: 8=FIX.4.4|9=0387|35=8|49=FROMADRXBOG_XNYSE_BETA|56=LVBSG|34=252|52=20150519-14:11:35|50=FCST|115=FCHB|57=QXP018914|1=QXP018914|207=US|6=44.995|11=-560529902092bfef|14=600|17=LVSXFIX2-385300000N00000G|21=1|150=F|31=44.98|151=400|32=500|100=US|38=1000|39=1|37=3c9bf6364044f21|583=-6a58cd62c234b255|40=2|41=2b45ae910bb94280|44=44.98|55=CIB|54=5|59=0|63=4|60=20150519-14:11:35.157|453=1|448=XPUS|447=D|452=1|10=043|
20150519-14:11:35.171: 8=FIX.4.4|9=0383|35=8|49=FROMADRXBOG_XNYSE_BETA|56=LVBSG|34=253|52=20150519-14:11:35|50=FCST|115=FCHB|57=QXP018914|1=QXP018914|207=US|6=44.997|11=-560529902092bfef|14=1000|17=LVSXFIX2-385300000N00000H|21=1|150=F|31=45|151=0|32=400|100=US|38=1000|39=2|37=3c9bf6364044f21|583=-6a58cd62c234b255|40=2|41=2b45ae910bb94280|44=44.98|55=CIB|54=5|59=0|63=4|60=20150519-14:11:35.164|453=1|448=XPUS|447=D|452=1|10=082|
20150519-14:11:37.214: 8=FIX.4.4|9=278|35=D|34=190|49=LVBSG|50=QXP018914|52=20150519-14:11:37.214|56=FROMADRXBOG_XNYSE_BETA|57=FCST|128=FCHB|1=QXP018914|11=1d465bf788c14ea7|21=1|38=400|40=2|44=45.03|54=5|55=CIB|59=0|60=20150519-14:11:37.214|63=4|100=US|111=100|207=US|583=-6a58cd62c234b255|453=1|448=XPUS|447=D|452=1|10=069|
20150519-14:11:37.232: 8=FIX.4.4|9=0346|35=8|49=FROMADRXBOG_XNYSE_BETA|56=LVBSG|34=254|52=20150519-14:11:37|50=FCST|115=FCHB|57=QXP018914|1=QXP018914|207=US|6=0|11=1d465bf788c14ea7|14=0|17=-67059fe1725fb2a7|21=1|150=A|31=0|151=400|32=0|100=US|38=400|39=A|37=-61495a18e97fbe65|583=-6a58cd62c234b255|40=2|44=45.03|55=CIB|54=5|59=0|63=4|60=20150519-14:11:37.225|453=1|448=XPUS|447=D|452=1|10=225|
20150519-14:11:37.669: 8=FIX.4.4|9=0354|35=8|49=FROMADRXBOG_XNYSE_BETA|56=LVBSG|34=255|52=20150519-14:11:37|50=FCST|115=FCHB|57=QXP018914|1=QXP018914|207=US|6=0|11=1d465bf788c14ea7|14=0|17=LVSXFIX2-385300000Q000002|21=1|150=0|31=0|151=400|32=0|100=US|38=400|39=0|37=-61495a18e97fbe65|583=-6a58cd62c234b255|40=2|44=45.03|55=CIB|54=5|59=0|63=4|60=20150519-14:11:37.663|453=1|448=XPUS|447=D|452=1|10=042|
20150519-14:11:38.764: 8=FIX.4.4|9=300|35=G|34=191|49=LVBSG|50=QXP018914|52=20150519-14:11:38.764|56=FROMADRXBOG_XNYSE_BETA|57=FCST|128=FCHB|1=QXP018914|11=-47d5d2723702b6f9|21=1|38=2100|40=2|41=-5b6a3b4eaad4bd27|44=10.8|54=1|55=AVH|59=0|60=20150519-14:11:38.764|63=4|100=US|111=100|207=US|583=-24ffb48c7f94b27f|453=1|448=XPUS|447=D|452=1|10=075|
20150519-14:11:38.775: 8=FIX.4.4|9=0378|35=8|49=FROMADRXBOG_XNYSE_BETA|56=LVBSG|34=256|52=20150519-14:11:38|50=FCST|115=FCHB|57=QXP018914|1=QXP018914|207=US|6=10.782857|11=-47d5d2723702b6f9|14=350|17=-7057478c5b06b4ed|21=1|150=E|31=0|151=1750|32=0|100=US|38=2100|39=E|37=64858539845648ff|583=-24ffb48c7f94b27f|40=2|41=-5b6a3b4eaad4bd27|44=10.8|55=AVH|54=1|59=0|63=4|60=20150519-14:11:38.770|453=1|448=XPUS|447=D|452=1|10=134|
20150519-14:11:39.142: 8=FIX.4.4|9=299|35=G|34=192|49=LVBSG|50=QXP018914|52=20150519-14:11:39.142|56=FROMADRXBOG_XNYSE_BETA|57=FCST|128=FCHB|1=QXP018914|11=-65207c22ac6eb1fe|21=1|38=400|40=2|41=1d465bf788c14ea7|44=45.02|54=5|55=CIB|59=0|60=20150519-14:11:39.142|63=4|100=US|111=100|207=US|583=-6a58cd62c234b255|453=1|448=XPUS|447=D|452=1|10=168|
20150519-14:11:39.163: 8=FIX.4.4|9=0367|35=8|49=FROMADRXBOG_XNYSE_BETA|56=LVBSG|34=257|52=20150519-14:11:39|50=FCST|115=FCHB|57=QXP018914|1=QXP018914|207=US|6=0|11=-65207c22ac6eb1fe|14=0|17=-2fe3b0c53d4bbec4|21=1|150=E|31=0|151=400|32=0|100=US|38=400|39=E|37=-61495a18e97fbe65|583=-6a58cd62c234b255|40=2|41=1d465bf788c14ea7|44=45.02|55=CIB|54=5|59=0|63=4|60=20150519-14:11:39.154|453=1|448=XPUS|447=D|452=1|10=249|
20150519-14:11:39.281: 8=FIX.4.4|9=0386|35=8|49=FROMADRXBOG_XNYSE_BETA|56=LVBSG|34=258|52=20150519-14:11:39|50=FCST|115=FCHB|57=QXP018914|1=QXP018914|207=US|6=10.782857|11=-47d5d2723702b6f9|14=350|17=LVSXFIX2-385300000J00000F|21=1|150=5|31=0|151=1750|32=0|100=US|38=2100|39=1|37=64858539845648ff|583=-24ffb48c7f94b27f|40=2|41=-5b6a3b4eaad4bd27|44=10.8|55=AVH|54=1|59=0|63=4|60=20150519-14:11:39.273|453=1|448=XPUS|447=D|452=1|10=215|
20150519-14:11:39.570: 8=FIX.4.4|9=0375|35=8|49=FROMADRXBOG_XNYSE_BETA|56=LVBSG|34=259|52=20150519-14:11:39|50=FCST|115=FCHB|57=QXP018914|1=QXP018914|207=US|6=0|11=-65207c22ac6eb1fe|14=0|17=LVSXFIX2-385300000Q000005|21=1|150=5|31=0|151=400|32=0|100=US|38=400|39=0|37=-61495a18e97fbe65|583=-6a58cd62c234b255|40=2|41=1d465bf788c14ea7|44=45.02|55=CIB|54=5|59=0|63=4|60=20150519-14:11:39.565|453=1|448=XPUS|447=D|452=1|10=149|
20150519-14:11:39.576: 8=FIX.4.4|9=0387|35=8|49=FROMADRXBOG_XNYSE_BETA|56=LVBSG|34=260|52=20150519-14:11:39|50=FCST|115=FCHB|57=QXP018914|1=QXP018914|207=US|6=45.02|11=-65207c22ac6eb1fe|14=100|17=LVSXFIX2-385300000Q000006|21=1|150=F|31=45.02|151=300|32=100|100=US|38=400|39=1|37=-61495a18e97fbe65|583=-6a58cd62c234b255|40=2|41=1d465bf788c14ea7|44=45.02|55=CIB|54=5|59=0|63=4|60=20150519-14:11:39.572|453=1|448=XPUS|447=D|452=1|10=244|
20150519-14:12:39.576: 8=FIX.4.4|9=0068|35=0|49=FROMADRXBOG_XNYSE_BETA|56=LVBSG|34=261|52=20150519-14:12:39|10=009|
20150519-14:12:39.577: 8=FIX.4.4|9=72|35=0|34=193|49=LVBSG|52=20150519-14:12:39.577|56=FROMADRXBOG_XNYSE_BETA|10=121|
20150519-14:12:49.422: 8=FIX.4.4|9=0387|35=8|49=FROMADRXBOG_XNYSE_BETA|56=LVBSG|34=262|52=20150519-14:12:49|50=FCST|115=FCHB|57=QXP018914|1=QXP018914|207=US|6=45.02|11=-65207c22ac6eb1fe|14=200|17=LVSXFIX2-385300000Q000007|21=1|150=F|31=45.02|151=200|32=100|100=US|38=400|39=1|37=-61495a18e97fbe65|583=-6a58cd62c234b255|40=2|41=1d465bf788c14ea7|44=45.02|55=CIB|54=5|59=0|63=4|60=20150519-14:12:49.416|453=1|448=XPUS|447=D|452=1|10=248|
20150519-14:12:49.520: 8=FIX.4.4|9=0387|35=8|49=FROMADRXBOG_XNYSE_BETA|56=LVBSG|34=263|52=20150519-14:12:49|50=FCST|115=FCHB|57=QXP018914|1=QXP018914|207=US|6=45.02|11=-65207c22ac6eb1fe|14=300|17=LVSXFIX2-385300000Q000008|21=1|150=F|31=45.02|151=100|32=100|100=US|38=400|39=1|37=-61495a18e97fbe65|583=-6a58cd62c234b255|40=2|41=1d465bf788c14ea7|44=45.02|55=CIB|54=5|59=0|63=4|60=20150519-14:12:49.514|453=1|448=XPUS|447=D|452=1|10=249|
20150519-14:12:49.532: 8=FIX.4.4|9=0385|35=8|49=FROMADRXBOG_XNYSE_BETA|56=LVBSG|34=264|52=20150519-14:12:49|50=FCST|115=FCHB|57=QXP018914|1=QXP018914|207=US|6=45.02|11=-65207c22ac6eb1fe|14=400|17=LVSXFIX2-385300000Q000009|21=1|150=F|31=45.02|151=0|32=100|100=US|38=400|39=2|37=-61495a18e97fbe65|583=-6a58cd62c234b255|40=2|41=1d465bf788c14ea7|44=45.02|55=CIB|54=5|59=0|63=4|60=20150519-14:12:49.525|453=1|448=XPUS|447=D|452=1|10=156|
20150519-14:12:50.201: 8=FIX.4.4|9=278|35=D|34=194|49=LVBSG|50=QXP018914|52=20150519-14:12:50.201|56=FROMADRXBOG_XNYSE_BETA|57=FCST|128=FCHB|1=QXP018914|11=371cdcad1a994acd|21=1|38=300|40=2|44=45.03|54=5|55=CIB|59=0|60=20150519-14:12:50.201|63=4|100=US|111=100|207=US|583=-6a58cd62c234b255|453=1|448=XPUS|447=D|452=1|10=186|
20150519-14:12:50.222: 8=FIX.4.4|9=0346|35=8|49=FROMADRXBOG_XNYSE_BETA|56=LVBSG|34=265|52=20150519-14:12:50|50=FCST|115=FCHB|57=QXP018914|1=QXP018914|207=US|6=0|11=371cdcad1a994acd|14=0|17=-1501845821f8b2a8|21=1|150=A|31=0|151=300|32=0|100=US|38=300|39=A|37=-6dd813b9728cba84|583=-6a58cd62c234b255|40=2|44=45.03|55=CIB|54=5|59=0|63=4|60=20150519-14:12:50.209|453=1|448=XPUS|447=D|452=1|10=028|
20150519-14:12:50.738: 8=FIX.4.4|9=0354|35=8|49=FROMADRXBOG_XNYSE_BETA|56=LVBSG|34=266|52=20150519-14:12:50|50=FCST|115=FCHB|57=QXP018914|1=QXP018914|207=US|6=0|11=371cdcad1a994acd|14=0|17=LVSXFIX2-385300000R000002|21=1|150=0|31=0|151=300|32=0|100=US|38=300|39=0|37=-6dd813b9728cba84|583=-6a58cd62c234b255|40=2|44=45.03|55=CIB|54=5|59=0|63=4|60=20150519-14:12:50.724|453=1|448=XPUS|447=D|452=1|10=203|
20150519-14:12:50.782: 8=FIX.4.4|9=0366|35=8|49=FROMADRXBOG_XNYSE_BETA|56=LVBSG|34=267|52=20150519-14:12:50|50=FCST|115=FCHB|57=QXP018914|1=QXP018914|207=US|6=45.03|11=371cdcad1a994acd|14=100|17=LVSXFIX2-385300000R000003|21=1|150=F|31=45.03|151=200|32=100|100=US|38=300|39=1|37=-6dd813b9728cba84|583=-6a58cd62c234b255|40=2|44=45.03|55=CIB|54=5|59=0|63=4|60=20150519-14:12:50.768|453=1|448=XPUS|447=D|452=1|10=068|
20150519-14:12:50.817: 8=FIX.4.4|9=0366|35=8|49=FROMADRXBOG_XNYSE_BETA|56=LVBSG|34=268|52=20150519-14:12:50|50=FCST|115=FCHB|57=QXP018914|1=QXP018914|207=US|6=45.03|11=371cdcad1a994acd|14=200|17=LVSXFIX2-385300000R000004|21=1|150=F|31=45.03|151=100|32=100|100=US|38=300|39=1|37=-6dd813b9728cba84|583=-6a58cd62c234b255|40=2|44=45.03|55=CIB|54=5|59=0|63=4|60=20150519-14:12:50.776|453=1|448=XPUS|447=D|452=1|10=069|
20150519-14:12:50.834: 8=FIX.4.4|9=0364|35=8|49=FROMADRXBOG_XNYSE_BETA|56=LVBSG|34=269|52=20150519-14:12:50|50=FCST|115=FCHB|57=QXP018914|1=QXP018914|207=US|6=45.03|11=371cdcad1a994acd|14=300|17=LVSXFIX2-385300000R000005|21=1|150=F|31=45.03|151=0|32=100|100=US|38=300|39=2|37=-6dd813b9728cba84|583=-6a58cd62c234b255|40=2|44=45.03|55=CIB|54=5|59=0|63=4|60=20150519-14:12:50.786|453=1|448=XPUS|447=D|452=1|10=231|
20150519-14:13:13.653: 8=FIX.4.4|9=279|35=D|34=195|49=LVBSG|50=QXP018914|52=20150519-14:13:13.653|56=FROMADRXBOG_XNYSE_BETA|57=FCST|128=FCHB|1=QXP018914|11=-6e36af65b02db2ac|21=1|38=500|40=2|44=45.09|54=5|55=CIB|59=0|60=20150519-14:13:13.653|63=4|100=US|111=100|207=US|583=-6a58cd62c234b255|453=1|448=XPUS|447=D|452=1|10=211|
20150519-14:13:13.670: 8=FIX.4.4|9=0347|35=8|49=FROMADRXBOG_XNYSE_BETA|56=LVBSG|34=270|52=20150519-14:13:13|50=FCST|115=FCHB|57=QXP018914|1=QXP018914|207=US|6=0|11=-6e36af65b02db2ac|14=0|17=-36d833140981bb28|21=1|150=A|31=0|151=500|32=0|100=US|38=500|39=A|37=-67a980ac81a3bf10|583=-6a58cd62c234b255|40=2|44=45.09|55=CIB|54=5|59=0|63=4|60=20150519-14:13:13.661|453=1|448=XPUS|447=D|452=1|10=017|
20150519-14:13:14.145: 8=FIX.4.4|9=0355|35=8|49=FROMADRXBOG_XNYSE_BETA|56=LVBSG|34=271|52=20150519-14:13:14|50=FCST|115=FCHB|57=QXP018914|1=QXP018914|207=US|6=0|11=-6e36af65b02db2ac|14=0|17=LVSXFIX2-385300000U000002|21=1|150=0|31=0|151=500|32=0|100=US|38=500|39=0|37=-67a980ac81a3bf10|583=-6a58cd62c234b255|40=2|44=45.09|55=CIB|54=5|59=0|63=4|60=20150519-14:13:14.122|453=1|448=XPUS|447=D|452=1|10=185|
20150519-14:13:17.808: 8=FIX.4.4|9=301|35=G|34=196|49=LVBSG|50=QXP018914|52=20150519-14:13:17.808|56=FROMADRXBOG_XNYSE_BETA|57=FCST|128=FCHB|1=QXP018914|11=-3d601a7d3efabe49|21=1|38=2100|40=2|41=-47d5d2723702b6f9|44=10.82|54=1|55=AVH|59=0|60=20150519-14:13:17.808|63=4|100=US|111=100|207=US|583=-24ffb48c7f94b27f|453=1|448=XPUS|447=D|452=1|10=087|
20150519-14:13:17.844: 8=FIX.4.4|9=0379|35=8|49=FROMADRXBOG_XNYSE_BETA|56=LVBSG|34=272|52=20150519-14:13:17|50=FCST|115=FCHB|57=QXP018914|1=QXP018914|207=US|6=10.782857|11=-3d601a7d3efabe49|14=350|17=-57881001008ebf2d|21=1|150=E|31=0|151=1750|32=0|100=US|38=2100|39=E|37=64858539845648ff|583=-24ffb48c7f94b27f|40=2|41=-47d5d2723702b6f9|44=10.82|55=AVH|54=1|59=0|63=4|60=20150519-14:13:17.838|453=1|448=XPUS|447=D|452=1|10=086|
20150519-14:13:18.291: 8=FIX.4.4|9=0387|35=8|49=FROMADRXBOG_XNYSE_BETA|56=LVBSG|34=273|52=20150519-14:13:18|50=FCST|115=FCHB|57=QXP018914|1=QXP018914|207=US|6=10.782857|11=-3d601a7d3efabe49|14=350|17=LVSXFIX2-385300000J00000I|21=1|150=5|31=0|151=1750|32=0|100=US|38=2100|39=1|37=64858539845648ff|583=-24ffb48c7f94b27f|40=2|41=-47d5d2723702b6f9|44=10.82|55=AVH|54=1|59=0|63=4|60=20150519-14:13:18.276|453=1|448=XPUS|447=D|452=1|10=227|
20150519-14:13:33.586: 8=FIX.4.4|9=300|35=G|34=197|49=LVBSG|50=QXP018914|52=20150519-14:13:33.585|56=FROMADRXBOG_XNYSE_BETA|57=FCST|128=FCHB|1=QXP018914|11=7b7a35dbd6034153|21=1|38=2100|40=2|41=-3d601a7d3efabe49|44=10.83|54=1|55=AVH|59=0|60=20150519-14:13:33.585|63=4|100=US|111=100|207=US|583=-24ffb48c7f94b27f|453=1|448=XPUS|447=D|452=1|10=078|
20150519-14:13:33.597: 8=FIX.4.4|9=0378|35=8|49=FROMADRXBOG_XNYSE_BETA|56=LVBSG|34=274|52=20150519-14:13:33|50=FCST|115=FCHB|57=QXP018914|1=QXP018914|207=US|6=10.782857|11=7b7a35dbd6034153|14=350|17=-1daca89470dfb0d8|21=1|150=E|31=0|151=1750|32=0|100=US|38=2100|39=E|37=64858539845648ff|583=-24ffb48c7f94b27f|40=2|41=-3d601a7d3efabe49|44=10.83|55=AVH|54=1|59=0|63=4|60=20150519-14:13:33.592|453=1|448=XPUS|447=D|452=1|10=012|
20150519-14:13:33.779: 8=FIX.4.4|9=0392|35=8|49=FROMADRXBOG_XNYSE_BETA|56=LVBSG|34=275|52=20150519-14:13:33|50=FCST|115=FCHB|57=QXP018914|1=QXP018914|207=US|6=10.791111|11=7b7a35dbd6034153|14=450|17=LVSXFIX2-385300000J00000J|21=1|150=F|31=10.82|151=1650|32=100|100=US|38=2100|39=1|37=64858539845648ff|583=-24ffb48c7f94b27f|40=2|41=-3d601a7d3efabe49|44=10.82|55=AVH|54=1|59=0|63=4|60=20150519-14:13:33.774|453=1|448=XPUS|447=D|452=1|10=255|
20150519-14:13:33.784: 8=FIX.4.4|9=0392|35=8|49=FROMADRXBOG_XNYSE_BETA|56=LVBSG|34=276|52=20150519-14:13:33|50=FCST|115=FCHB|57=QXP018914|1=QXP018914|207=US|6=10.796364|11=7b7a35dbd6034153|14=550|17=LVSXFIX2-385300000J00000K|21=1|150=F|31=10.82|151=1550|32=100|100=US|38=2100|39=1|37=64858539845648ff|583=-24ffb48c7f94b27f|40=2|41=-3d601a7d3efabe49|44=10.82|55=AVH|54=1|59=0|63=4|60=20150519-14:13:33.779|453=1|448=XPUS|447=D|452=1|10=021|
20150519-14:13:33.821: 8=FIX.4.4|9=0387|35=8|49=FROMADRXBOG_XNYSE_BETA|56=LVBSG|34=277|52=20150519-14:13:33|50=FCST|115=FCHB|57=QXP018914|1=QXP018914|207=US|6=10.8|11=7b7a35dbd6034153|14=650|17=LVSXFIX2-385300000J00000L|21=1|150=F|31=10.82|151=1450|32=100|100=US|38=2100|39=1|37=64858539845648ff|583=-24ffb48c7f94b27f|40=2|41=-3d601a7d3efabe49|44=10.82|55=AVH|54=1|59=0|63=4|60=20150519-14:13:33.815|453=1|448=XPUS|447=D|452=1|10=007|
20150519-14:13:33.871: 8=FIX.4.4|9=0392|35=8|49=FROMADRXBOG_XNYSE_BETA|56=LVBSG|34=278|52=20150519-14:13:33|50=FCST|115=FCHB|57=QXP018914|1=QXP018914|207=US|6=10.808696|11=7b7a35dbd6034153|14=1150|17=LVSXFIX2-385300000J00000M|21=1|150=F|31=10.82|151=950|32=500|100=US|38=2100|39=1|37=64858539845648ff|583=-24ffb48c7f94b27f|40=2|41=-3d601a7d3efabe49|44=10.82|55=AVH|54=1|59=0|63=4|60=20150519-14:13:33.829|453=1|448=XPUS|447=D|452=1|10=027|
20150519-14:13:33.876: 8=FIX.4.4|9=0391|35=8|49=FROMADRXBOG_XNYSE_BETA|56=LVBSG|34=279|52=20150519-14:13:33|50=FCST|115=FCHB|57=QXP018914|1=QXP018914|207=US|6=10.8092|11=7b7a35dbd6034153|14=1250|17=LVSXFIX2-385300000J00000N|21=1|150=F|31=10.815|151=850|32=100|100=US|38=2100|39=1|37=64858539845648ff|583=-24ffb48c7f94b27f|40=2|41=-3d601a7d3efabe49|44=10.82|55=AVH|54=1|59=0|63=4|60=20150519-14:13:33.867|453=1|448=XPUS|447=D|452=1|10=220|
20150519-14:13:33.984: 8=FIX.4.4|9=0388|35=8|49=FROMADRXBOG_XNYSE_BETA|56=LVBSG|34=280|52=20150519-14:13:33|50=FCST|115=FCHB|57=QXP018914|1=QXP018914|207=US|6=10.81|11=7b7a35dbd6034153|14=1350|17=LVSXFIX2-385300000J00000P|21=1|150=F|31=10.82|151=750|32=100|100=US|38=2100|39=E|37=64858539845648ff|583=-24ffb48c7f94b27f|40=2|41=-3d601a7d3efabe49|44=10.82|55=AVH|54=1|59=0|63=4|60=20150519-14:13:33.976|453=1|448=XPUS|447=D|452=1|10=083|
20150519-14:13:34.042: 8=FIX.4.4|9=0382|35=8|49=FROMADRXBOG_XNYSE_BETA|56=LVBSG|34=281|52=20150519-14:13:34|50=FCST|115=FCHB|57=QXP018914|1=QXP018914|207=US|6=10.81|11=7b7a35dbd6034153|14=1350|17=LVSXFIX2-385300000J00000R|21=1|150=5|31=0|151=750|32=0|100=US|38=2100|39=1|37=64858539845648ff|583=-24ffb48c7f94b27f|40=2|41=-3d601a7d3efabe49|44=10.83|55=AVH|54=1|59=0|63=4|60=20150519-14:13:34.035|453=1|448=XPUS|447=D|452=1|10=246|
20150519-14:13:34.047: 8=FIX.4.4|9=0392|35=8|49=FROMADRXBOG_XNYSE_BETA|56=LVBSG|34=282|52=20150519-14:13:34|50=FCST|115=FCHB|57=QXP018914|1=QXP018914|207=US|6=10.811379|11=7b7a35dbd6034153|14=1450|17=LVSXFIX2-385300000J00000S|21=1|150=F|31=10.83|151=650|32=100|100=US|38=2100|39=1|37=64858539845648ff|583=-24ffb48c7f94b27f|40=2|41=-3d601a7d3efabe49|44=10.83|55=AVH|54=1|59=0|63=4|60=20150519-14:13:34.039|453=1|448=XPUS|447=D|452=1|10=013|
20150519-14:13:45.753: 8=FIX.4.4|9=0392|35=8|49=FROMADRXBOG_XNYSE_BETA|56=LVBSG|34=283|52=20150519-14:13:45|50=FCST|115=FCHB|57=QXP018914|1=QXP018914|207=US|6=10.812581|11=7b7a35dbd6034153|14=1550|17=LVSXFIX2-385300000J00000T|21=1|150=F|31=10.83|151=550|32=100|100=US|38=2100|39=1|37=64858539845648ff|583=-24ffb48c7f94b27f|40=2|41=-3d601a7d3efabe49|44=10.83|55=AVH|54=1|59=0|63=4|60=20150519-14:13:45.748|453=1|448=XPUS|447=D|452=1|10=022|
20150519-14:13:45.757: 8=FIX.4.4|9=0392|35=8|49=FROMADRXBOG_XNYSE_BETA|56=LVBSG|34=284|52=20150519-14:13:45|50=FCST|115=FCHB|57=QXP018914|1=QXP018914|207=US|6=10.813636|11=7b7a35dbd6034153|14=1650|17=LVSXFIX2-385300000J00000U|21=1|150=F|31=10.83|151=450|32=100|100=US|38=2100|39=1|37=64858539845648ff|583=-24ffb48c7f94b27f|40=2|41=-3d601a7d3efabe49|44=10.83|55=AVH|54=1|59=0|63=4|60=20150519-14:13:45.752|453=1|448=XPUS|447=D|452=1|10=021|
20150519-14:13:45.767: 8=FIX.4.4|9=0392|35=8|49=FROMADRXBOG_XNYSE_BETA|56=LVBSG|34=285|52=20150519-14:13:45|50=FCST|115=FCHB|57=QXP018914|1=QXP018914|207=US|6=10.815789|11=7b7a35dbd6034153|14=1900|17=LVSXFIX2-385300000J00000V|21=1|150=F|31=10.83|151=200|32=250|100=US|38=2100|39=1|37=64858539845648ff|583=-24ffb48c7f94b27f|40=2|41=-3d601a7d3efabe49|44=10.83|55=AVH|54=1|59=0|63=4|60=20150519-14:13:45.762|453=1|448=XPUS|447=D|452=1|10=032|
20150519-14:13:45.879: 8=FIX.4.4|9=0390|35=8|49=FROMADRXBOG_XNYSE_BETA|56=LVBSG|34=286|52=20150519-14:13:45|50=FCST|115=FCHB|57=QXP018914|1=QXP018914|207=US|6=10.8155|11=7b7a35dbd6034153|14=2000|17=LVSXFIX2-385300000J00000W|21=1|150=F|31=10.81|151=100|32=100|100=US|38=2100|39=1|37=64858539845648ff|583=-24ffb48c7f94b27f|40=2|41=-3d601a7d3efabe49|44=10.83|55=AVH|54=1|59=0|63=4|60=20150519-14:13:45.871|453=1|448=XPUS|447=D|452=1|10=157|
20150519-14:13:45.896: 8=FIX.4.4|9=0389|35=8|49=FROMADRXBOG_XNYSE_BETA|56=LVBSG|34=287|52=20150519-14:13:45|50=FCST|115=FCHB|57=QXP018914|1=QXP018914|207=US|6=10.814762|11=7b7a35dbd6034153|14=2100|17=LVSXFIX2-385300000J00000X|21=1|150=F|31=10.8|151=0|32=100|100=US|38=2100|39=2|37=64858539845648ff|583=-24ffb48c7f94b27f|40=2|41=-3d601a7d3efabe49|44=10.83|55=AVH|54=1|59=0|63=4|60=20150519-14:13:45.886|453=1|448=XPUS|447=D|452=1|10=134|
20150519-14:13:57.416: 8=FIX.4.4|9=0355|35=8|49=FROMADRXBOG_XNYSE_BETA|56=LVBSG|34=288|52=20150519-14:13:57|50=FCST|115=FCHB|57=QXP018914|1=QXP018914|207=US|6=0|11=-6e36af65b02db2ac|14=0|17=LVSXFIX2-385300000U000005|21=1|150=5|31=0|151=500|32=0|100=US|38=500|39=0|37=-67a980ac81a3bf10|583=-6a58cd62c234b255|40=2|44=45.03|55=CIB|54=5|59=0|63=4|60=20150519-14:13:57.409|453=1|448=XPUS|447=D|452=1|10=217|
20150519-14:13:57.423: 8=FIX.4.4|9=0367|35=8|49=FROMADRXBOG_XNYSE_BETA|56=LVBSG|34=289|52=20150519-14:13:57|50=FCST|115=FCHB|57=QXP018914|1=QXP018914|207=US|6=45.03|11=-6e36af65b02db2ac|14=100|17=LVSXFIX2-385300000U000006|21=1|150=F|31=45.03|151=400|32=100|100=US|38=500|39=1|37=-67a980ac81a3bf10|583=-6a58cd62c234b255|40=2|44=45.03|55=CIB|54=5|59=0|63=4|60=20150519-14:13:57.416|453=1|448=XPUS|447=D|452=1|10=067|
20150519-14:13:57.427: 8=FIX.4.4|9=0370|35=8|49=FROMADRXBOG_XNYSE_BETA|56=LVBSG|34=290|52=20150519-14:13:57|50=FCST|115=FCHB|57=QXP018914|1=QXP018914|207=US|6=45.0325|11=-6e36af65b02db2ac|14=200|17=LVSXFIX2-385300000U000007|21=1|150=F|31=45.035|151=300|32=100|100=US|38=500|39=1|37=-67a980ac81a3bf10|583=-6a58cd62c234b255|40=2|44=45.03|55=CIB|54=5|59=0|63=4|60=20150519-14:13:57.421|453=1|448=XPUS|447=D|452=1|10=206|
20150519-14:13:57.433: 8=FIX.4.4|9=0371|35=8|49=FROMADRXBOG_XNYSE_BETA|56=LVBSG|34=291|52=20150519-14:13:57|50=FCST|115=FCHB|57=QXP018914|1=QXP018914|207=US|6=45.031667|11=-6e36af65b02db2ac|14=300|17=LVSXFIX2-385300000U000008|21=1|150=F|31=45.03|151=200|32=100|100=US|38=500|39=1|37=-67a980ac81a3bf10|583=-6a58cd62c234b255|40=2|44=45.03|55=CIB|54=5|59=0|63=4|60=20150519-14:13:57.428|453=1|448=XPUS|447=D|452=1|10=016|
20150519-14:13:57.439: 8=FIX.4.4|9=0370|35=8|49=FROMADRXBOG_XNYSE_BETA|56=LVBSG|34=292|52=20150519-14:13:57|50=FCST|115=FCHB|57=QXP018914|1=QXP018914|207=US|6=45.03125|11=-6e36af65b02db2ac|14=400|17=LVSXFIX2-385300000U000009|21=1|150=F|31=45.03|151=100|32=100|100=US|38=500|39=1|37=-67a980ac81a3bf10|583=-6a58cd62c234b255|40=2|44=45.03|55=CIB|54=5|59=0|63=4|60=20150519-14:13:57.434|453=1|448=XPUS|447=D|452=1|10=210|
20150519-14:13:57.444: 8=FIX.4.4|9=0366|35=8|49=FROMADRXBOG_XNYSE_BETA|56=LVBSG|34=293|52=20150519-14:13:57|50=FCST|115=FCHB|57=QXP018914|1=QXP018914|207=US|6=45.031|11=-6e36af65b02db2ac|14=500|17=LVSXFIX2-385300000U00000A|21=1|150=F|31=45.03|151=0|32=100|100=US|38=500|39=2|37=-67a980ac81a3bf10|583=-6a58cd62c234b255|40=2|44=45.03|55=CIB|54=5|59=0|63=4|60=20150519-14:13:57.438|453=1|448=XPUS|447=D|452=1|10=030|
20150519-14:14:33.896: 8=FIX.4.4|9=72|35=0|34=198|49=LVBSG|52=20150519-14:14:33.896|56=FROMADRXBOG_XNYSE_BETA|10=126|
