20150520-11:16:08.226: 8=FIX.4.4|9=58|35=5|34=1|49=LVMDG|52=20150520-11:16:08.226|56=BLODPENNA5|10=026|
20150520-11:16:09.164: 8=FIX.4.4|9=58|35=5|34=1|49=LVMDG|52=20150520-11:16:09.164|56=BLODPENNA5|10=028|
20150520-11:16:10.159: 8=FIX.4.4|9=76|35=A|34=1|49=LVMDG|52=20150520-11:16:10.159|56=BLODPENNA5|98=0|108=60|141=Y|10=109|
20150520-11:16:10.304: 8=FIX.4.4|9=58|35=5|34=1|49=BLODPENNA5|52=20150520-11:16:10.675|56=LVMDG|10=027|
20150520-11:16:10.305: 8=FIX.4.4|9=58|35=5|34=2|49=LVMDG|52=20150520-11:16:10.305|56=BLODPENNA5|10=018|
20150520-11:16:11.182: 8=FIX.4.4|9=76|35=A|34=1|49=LVMDG|52=20150520-11:16:11.182|56=BLODPENNA5|98=0|108=60|141=Y|10=106|
20150520-11:16:11.330: 8=FIX.4.4|9=76|35=A|34=1|49=BLODPENNA5|52=20150520-11:16:11.708|56=LVMDG|98=0|108=60|141=Y|10=110|
20150520-11:16:11.408: 8=FIX.4.4|9=148|35=V|34=2|49=LVMDG|52=20150520-11:16:11.408|56=BLODPENNA5|262=b90ff35811641f3|263=1|264=0|146=1|55=COFX INDEX|207=BLPDPENNA|267=3|269=0|269=1|269=5|10=073|
20150520-11:17:12.151: 8=FIX.4.4|9=58|35=0|34=3|49=LVMDG|52=20150520-11:17:12.151|56=BLODPENNA5|10=016|
20150520-11:17:12.226: 8=FIX.4.4|9=58|35=0|34=2|49=BLODPENNA5|52=20150520-11:17:12.607|56=LVMDG|10=021|
20150520-11:18:12.152: 8=FIX.4.4|9=58|35=0|34=4|49=LVMDG|52=20150520-11:18:12.152|56=BLODPENNA5|10=019|
20150520-11:18:12.229: 8=FIX.4.4|9=58|35=0|34=3|49=BLODPENNA5|52=20150520-11:18:12.611|56=LVMDG|10=018|
20150520-11:19:12.231: 8=FIX.4.4|9=58|35=0|34=4|49=BLODPENNA5|52=20150520-11:19:12.614|56=LVMDG|10=023|
20150520-11:19:12.231: 8=FIX.4.4|9=58|35=0|34=5|49=LVMDG|52=20150520-11:19:12.231|56=BLODPENNA5|10=019|
20150520-11:20:12.234: 8=FIX.4.4|9=58|35=0|34=5|49=BLODPENNA5|52=20150520-11:20:12.618|56=LVMDG|10=020|
20150520-11:20:12.234: 8=FIX.4.4|9=58|35=0|34=6|49=LVMDG|52=20150520-11:20:12.234|56=BLODPENNA5|10=015|
20150520-11:21:12.236: 8=FIX.4.4|9=58|35=0|34=6|49=BLODPENNA5|52=20150520-11:21:12.621|56=LVMDG|10=016|
20150520-11:21:12.236: 8=FIX.4.4|9=58|35=0|34=7|49=LVMDG|52=20150520-11:21:12.236|56=BLODPENNA5|10=019|
20150520-11:22:12.239: 8=FIX.4.4|9=58|35=0|34=7|49=BLODPENNA5|52=20150520-11:22:12.625|56=LVMDG|10=022|
20150520-11:22:12.239: 8=FIX.4.4|9=58|35=0|34=8|49=LVMDG|52=20150520-11:22:12.239|56=BLODPENNA5|10=024|
20150520-11:23:12.241: 8=FIX.4.4|9=58|35=0|34=8|49=BLODPENNA5|52=20150520-11:23:12.628|56=LVMDG|10=027|
20150520-11:23:12.241: 8=FIX.4.4|9=58|35=0|34=9|49=LVMDG|52=20150520-11:23:12.241|56=BLODPENNA5|10=019|
20150520-11:24:12.243: 8=FIX.4.4|9=58|35=0|34=9|49=BLODPENNA5|52=20150520-11:24:12.631|56=LVMDG|10=023|
20150520-11:24:12.243: 8=FIX.4.4|9=59|35=0|34=10|49=LVMDG|52=20150520-11:24:12.243|56=BLODPENNA5|10=063|
20150520-11:25:12.246: 8=FIX.4.4|9=59|35=0|34=10|49=BLODPENNA5|52=20150520-11:25:12.635|56=LVMDG|10=069|
20150520-11:25:12.246: 8=FIX.4.4|9=59|35=0|34=11|49=LVMDG|52=20150520-11:25:12.246|56=BLODPENNA5|10=068|
20150520-11:26:12.248: 8=FIX.4.4|9=59|35=0|34=11|49=BLODPENNA5|52=20150520-11:26:12.638|56=LVMDG|10=074|
20150520-11:26:12.248: 8=FIX.4.4|9=59|35=0|34=12|49=LVMDG|52=20150520-11:26:12.248|56=BLODPENNA5|10=072|
20150520-11:27:12.251: 8=FIX.4.4|9=59|35=0|34=12|49=BLODPENNA5|52=20150520-11:27:12.642|56=LVMDG|10=071|
20150520-11:27:12.251: 8=FIX.4.4|9=59|35=0|34=13|49=LVMDG|52=20150520-11:27:12.251|56=BLODPENNA5|10=068|
20150520-11:28:12.253: 8=FIX.4.4|9=59|35=0|34=13|49=BLODPENNA5|52=20150520-11:28:12.645|56=LVMDG|10=076|
20150520-11:28:12.253: 8=FIX.4.4|9=59|35=0|34=14|49=LVMDG|52=20150520-11:28:12.253|56=BLODPENNA5|10=072|
20150520-11:29:12.255: 8=FIX.4.4|9=59|35=0|34=14|49=BLODPENNA5|52=20150520-11:29:12.648|56=LVMDG|10=081|
20150520-11:29:12.255: 8=FIX.4.4|9=59|35=0|34=15|49=LVMDG|52=20150520-11:29:12.255|56=BLODPENNA5|10=076|
20150520-11:30:12.257: 8=FIX.4.4|9=59|35=0|34=15|49=BLODPENNA5|52=20150520-11:30:12.652|56=LVMDG|10=069|
20150520-11:30:12.258: 8=FIX.4.4|9=59|35=0|34=16|49=LVMDG|52=20150520-11:30:12.258|56=BLODPENNA5|10=072|
20150520-11:31:12.259: 8=FIX.4.4|9=59|35=0|34=16|49=BLODPENNA5|52=20150520-11:31:12.655|56=LVMDG|10=074|
20150520-11:31:12.260: 8=FIX.4.4|9=59|35=0|34=17|49=LVMDG|52=20150520-11:31:12.260|56=BLODPENNA5|10=067|
20150520-11:32:12.262: 8=FIX.4.4|9=59|35=0|34=17|49=BLODPENNA5|52=20150520-11:32:12.659|56=LVMDG|10=080|
20150520-11:32:12.263: 8=FIX.4.4|9=59|35=0|34=18|49=LVMDG|52=20150520-11:32:12.263|56=BLODPENNA5|10=072|
20150520-11:33:12.264: 8=FIX.4.4|9=59|35=0|34=18|49=BLODPENNA5|52=20150520-11:33:12.662|56=LVMDG|10=076|
20150520-11:33:12.264: 8=FIX.4.4|9=59|35=0|34=19|49=LVMDG|52=20150520-11:33:12.264|56=BLODPENNA5|10=075|
20150520-11:34:12.267: 8=FIX.4.4|9=59|35=0|34=19|49=BLODPENNA5|52=20150520-11:34:12.666|56=LVMDG|10=082|
20150520-11:34:12.267: 8=FIX.4.4|9=59|35=0|34=20|49=LVMDG|52=20150520-11:34:12.267|56=BLODPENNA5|10=071|
20150520-11:35:12.269: 8=FIX.4.4|9=59|35=0|34=20|49=BLODPENNA5|52=20150520-11:35:12.669|56=LVMDG|10=078|
20150520-11:35:12.270: 8=FIX.4.4|9=59|35=0|34=21|49=LVMDG|52=20150520-11:35:12.269|56=BLODPENNA5|10=075|
20150520-11:36:12.272: 8=FIX.4.4|9=59|35=0|34=21|49=BLODPENNA5|52=20150520-11:36:12.673|56=LVMDG|10=075|
20150520-11:36:12.272: 8=FIX.4.4|9=59|35=0|34=22|49=LVMDG|52=20150520-11:36:12.272|56=BLODPENNA5|10=071|
20150520-11:37:12.274: 8=FIX.4.4|9=59|35=0|34=22|49=BLODPENNA5|52=20150520-11:37:12.676|56=LVMDG|10=080|
20150520-11:37:12.275: 8=FIX.4.4|9=59|35=0|34=23|49=LVMDG|52=20150520-11:37:12.274|56=BLODPENNA5|10=075|
20150520-11:38:12.276: 8=FIX.4.4|9=59|35=0|34=23|49=BLODPENNA5|52=20150520-11:38:12.679|56=LVMDG|10=085|
20150520-11:38:12.277: 8=FIX.4.4|9=59|35=0|34=24|49=LVMDG|52=20150520-11:38:12.277|56=BLODPENNA5|10=080|
20150520-11:39:12.279: 8=FIX.4.4|9=59|35=0|34=24|49=BLODPENNA5|52=20150520-11:39:12.683|56=LVMDG|10=082|
20150520-11:39:12.280: 8=FIX.4.4|9=59|35=0|34=25|49=LVMDG|52=20150520-11:39:12.280|56=BLODPENNA5|10=076|
20150520-11:40:12.281: 8=FIX.4.4|9=59|35=0|34=25|49=BLODPENNA5|52=20150520-11:40:12.686|56=LVMDG|10=078|
20150520-11:40:12.281: 8=FIX.4.4|9=59|35=0|34=26|49=LVMDG|52=20150520-11:40:12.281|56=BLODPENNA5|10=070|
20150520-11:41:12.284: 8=FIX.4.4|9=59|35=0|34=26|49=BLODPENNA5|52=20150520-11:41:12.690|56=LVMDG|10=075|
20150520-11:41:12.284: 8=FIX.4.4|9=59|35=0|34=27|49=LVMDG|52=20150520-11:41:12.284|56=BLODPENNA5|10=075|
20150520-11:42:12.286: 8=FIX.4.4|9=59|35=0|34=27|49=BLODPENNA5|52=20150520-11:42:12.693|56=LVMDG|10=080|
20150520-11:42:12.287: 8=FIX.4.4|9=59|35=0|34=28|49=LVMDG|52=20150520-11:42:12.287|56=BLODPENNA5|10=080|
20150520-11:43:12.288: 8=FIX.4.4|9=59|35=0|34=28|49=BLODPENNA5|52=20150520-11:43:12.696|56=LVMDG|10=085|
20150520-11:43:12.289: 8=FIX.4.4|9=59|35=0|34=29|49=LVMDG|52=20150520-11:43:12.289|56=BLODPENNA5|10=084|
20150520-11:44:12.291: 8=FIX.4.4|9=59|35=0|34=29|49=BLODPENNA5|52=20150520-11:44:12.700|56=LVMDG|10=073|
20150520-11:44:12.292: 8=FIX.4.4|9=59|35=0|34=30|49=LVMDG|52=20150520-11:44:12.292|56=BLODPENNA5|10=071|
20150520-11:45:12.293: 8=FIX.4.4|9=59|35=0|34=30|49=BLODPENNA5|52=20150520-11:45:12.703|56=LVMDG|10=069|
20150520-11:45:12.293: 8=FIX.4.4|9=59|35=0|34=31|49=LVMDG|52=20150520-11:45:12.293|56=BLODPENNA5|10=074|
20150520-11:46:12.295: 8=FIX.4.4|9=59|35=0|34=31|49=BLODPENNA5|52=20150520-11:46:12.707|56=LVMDG|10=075|
20150520-11:46:12.296: 8=FIX.4.4|9=59|35=0|34=32|49=LVMDG|52=20150520-11:46:12.296|56=BLODPENNA5|10=079|
20150520-11:47:12.298: 8=FIX.4.4|9=59|35=0|34=32|49=BLODPENNA5|52=20150520-11:47:12.710|56=LVMDG|10=071|
20150520-11:47:12.298: 8=FIX.4.4|9=59|35=0|34=33|49=LVMDG|52=20150520-11:47:12.298|56=BLODPENNA5|10=083|
20150520-11:48:12.301: 8=FIX.4.4|9=59|35=0|34=33|49=BLODPENNA5|52=20150520-11:48:12.714|56=LVMDG|10=077|
20150520-11:48:12.301: 8=FIX.4.4|9=59|35=0|34=34|49=LVMDG|52=20150520-11:48:12.301|56=BLODPENNA5|10=070|
20150520-11:49:12.302: 8=FIX.4.4|9=59|35=0|34=34|49=BLODPENNA5|52=20150520-11:49:12.717|56=LVMDG|10=082|
20150520-11:49:12.303: 8=FIX.4.4|9=59|35=0|34=35|49=LVMDG|52=20150520-11:49:12.303|56=BLODPENNA5|10=074|
20150520-11:50:12.305: 8=FIX.4.4|9=59|35=0|34=35|49=BLODPENNA5|52=20150520-11:50:12.721|56=LVMDG|10=070|
20150520-11:50:12.306: 8=FIX.4.4|9=59|35=0|34=36|49=LVMDG|52=20150520-11:50:12.306|56=BLODPENNA5|10=070|
20150520-11:51:12.307: 8=FIX.4.4|9=59|35=0|34=36|49=BLODPENNA5|52=20150520-11:51:12.724|56=LVMDG|10=075|
20150520-11:51:12.308: 8=FIX.4.4|9=59|35=0|34=37|49=LVMDG|52=20150520-11:51:12.308|56=BLODPENNA5|10=074|
20150520-11:52:12.309: 8=FIX.4.4|9=59|35=0|34=37|49=BLODPENNA5|52=20150520-11:52:12.727|56=LVMDG|10=080|
20150520-11:52:12.310: 8=FIX.4.4|9=59|35=0|34=38|49=LVMDG|52=20150520-11:52:12.310|56=BLODPENNA5|10=069|
20150520-11:53:12.312: 8=FIX.4.4|9=59|35=0|34=38|49=BLODPENNA5|52=20150520-11:53:12.731|56=LVMDG|10=077|
20150520-11:53:12.313: 8=FIX.4.4|9=59|35=0|34=39|49=LVMDG|52=20150520-11:53:12.313|56=BLODPENNA5|10=074|
20150520-11:54:12.314: 8=FIX.4.4|9=59|35=0|34=39|49=BLODPENNA5|52=20150520-11:54:12.734|56=LVMDG|10=082|
20150520-11:54:12.315: 8=FIX.4.4|9=59|35=0|34=40|49=LVMDG|52=20150520-11:54:12.315|56=BLODPENNA5|10=069|
20150520-11:55:12.317: 8=FIX.4.4|9=59|35=0|34=40|49=BLODPENNA5|52=20150520-11:55:12.738|56=LVMDG|10=079|
20150520-11:55:12.318: 8=FIX.4.4|9=59|35=0|34=41|49=LVMDG|52=20150520-11:55:12.318|56=BLODPENNA5|10=074|
20150520-11:56:12.319: 8=FIX.4.4|9=59|35=0|34=41|49=BLODPENNA5|52=20150520-11:56:12.741|56=LVMDG|10=075|
20150520-11:56:12.320: 8=FIX.4.4|9=59|35=0|34=42|49=LVMDG|52=20150520-11:56:12.320|56=BLODPENNA5|10=069|
20150520-11:57:12.322: 8=FIX.4.4|9=59|35=0|34=42|49=BLODPENNA5|52=20150520-11:57:12.745|56=LVMDG|10=081|
20150520-11:57:12.322: 8=FIX.4.4|9=59|35=0|34=43|49=LVMDG|52=20150520-11:57:12.322|56=BLODPENNA5|10=073|
20150520-11:58:12.324: 8=FIX.4.4|9=59|35=0|34=43|49=BLODPENNA5|52=20150520-11:58:12.748|56=LVMDG|10=086|
20150520-11:58:12.324: 8=FIX.4.4|9=59|35=0|34=44|49=LVMDG|52=20150520-11:58:12.324|56=BLODPENNA5|10=077|
20150520-11:59:12.326: 8=FIX.4.4|9=59|35=0|34=44|49=BLODPENNA5|52=20150520-11:59:12.751|56=LVMDG|10=082|
20150520-11:59:12.327: 8=FIX.4.4|9=59|35=0|34=45|49=LVMDG|52=20150520-11:59:12.327|56=BLODPENNA5|10=082|
20150520-12:00:12.329: 8=FIX.4.4|9=59|35=0|34=45|49=BLODPENNA5|52=20150520-12:00:12.755|56=LVMDG|10=074|
20150520-12:00:12.330: 8=FIX.4.4|9=59|35=0|34=46|49=LVMDG|52=20150520-12:00:12.330|56=BLODPENNA5|10=064|
20150520-12:01:12.331: 8=FIX.4.4|9=59|35=0|34=46|49=BLODPENNA5|52=20150520-12:01:12.758|56=LVMDG|10=079|
20150520-12:01:12.331: 8=FIX.4.4|9=59|35=0|34=47|49=LVMDG|52=20150520-12:01:12.331|56=BLODPENNA5|10=067|
20150520-12:02:12.334: 8=FIX.4.4|9=59|35=0|34=47|49=BLODPENNA5|52=20150520-12:02:12.762|56=LVMDG|10=076|
20150520-12:02:12.334: 8=FIX.4.4|9=59|35=0|34=48|49=LVMDG|52=20150520-12:02:12.334|56=BLODPENNA5|10=072|
20150520-12:03:13.152: 8=FIX.4.4|9=59|35=0|34=49|49=LVMDG|52=20150520-12:03:13.152|56=BLODPENNA5|10=073|
20150520-12:03:13.276: 8=FIX.4.4|9=59|35=0|34=48|49=BLODPENNA5|52=20150520-12:03:13.681|56=LVMDG|10=079|
20150520-12:04:13.152: 8=FIX.4.4|9=59|35=0|34=50|49=LVMDG|52=20150520-12:04:13.152|56=BLODPENNA5|10=066|
20150520-12:04:14.339: 8=FIX.4.4|9=59|35=0|34=49|49=BLODPENNA5|52=20150520-12:04:14.678|56=LVMDG|10=088|
20150520-12:05:13.152: 8=FIX.4.4|9=59|35=0|34=51|49=LVMDG|52=20150520-12:05:13.152|56=BLODPENNA5|10=068|
20150520-12:05:15.341: 8=FIX.4.4|9=59|35=0|34=50|49=BLODPENNA5|52=20150520-12:05:15.614|56=LVMDG|10=072|
20150520-12:06:13.152: 8=FIX.4.4|9=59|35=0|34=52|49=LVMDG|52=20150520-12:06:13.152|56=BLODPENNA5|10=070|
20150520-12:06:16.343: 8=FIX.4.4|9=59|35=0|34=51|49=BLODPENNA5|52=20150520-12:06:16.550|56=LVMDG|10=074|
20150520-12:07:14.152: 8=FIX.4.4|9=59|35=0|34=53|49=LVMDG|52=20150520-12:07:14.152|56=BLODPENNA5|10=073|
20150520-12:07:17.346: 8=FIX.4.4|9=59|35=0|34=52|49=BLODPENNA5|52=20150520-12:07:17.487|56=LVMDG|10=086|
20150520-12:08:15.151: 8=FIX.4.4|9=59|35=0|34=54|49=LVMDG|52=20150520-12:08:15.151|56=BLODPENNA5|10=075|
20150520-12:08:18.348: 8=FIX.4.4|9=59|35=0|34=53|49=BLODPENNA5|52=20150520-12:08:18.442|56=LVMDG|10=080|
20150520-12:09:15.151: 8=FIX.4.4|9=59|35=0|34=55|49=LVMDG|52=20150520-12:09:15.151|56=BLODPENNA5|10=077|
20150520-12:09:19.350: 8=FIX.4.4|9=59|35=0|34=54|49=BLODPENNA5|52=20150520-12:09:19.421|56=LVMDG|10=080|
20150520-12:10:15.152: 8=FIX.4.4|9=59|35=0|34=56|49=LVMDG|52=20150520-12:10:15.152|56=BLODPENNA5|10=071|
20150520-12:10:20.353: 8=FIX.4.4|9=59|35=0|34=55|49=BLODPENNA5|52=20150520-12:10:20.400|56=LVMDG|10=062|
20150520-12:11:16.151: 8=FIX.4.4|9=59|35=0|34=57|49=LVMDG|52=20150520-12:11:16.151|56=BLODPENNA5|10=073|
20150520-12:11:21.355: 8=FIX.4.4|9=59|35=0|34=56|49=BLODPENNA5|52=20150520-12:11:21.379|56=LVMDG|10=080|
20150520-12:12:16.152: 8=FIX.4.4|9=59|35=0|34=58|49=LVMDG|52=20150520-12:12:16.152|56=BLODPENNA5|10=076|
20150520-12:12:22.363: 8=FIX.4.4|9=59|35=0|34=57|49=BLODPENNA5|52=20150520-12:12:22.359|56=LVMDG|10=081|
20150520-12:13:17.151: 8=FIX.4.4|9=59|35=0|34=59|49=LVMDG|52=20150520-12:13:17.151|56=BLODPENNA5|10=078|
20150520-12:13:23.360: 8=FIX.4.4|9=59|35=0|34=58|49=BLODPENNA5|52=20150520-12:13:23.344|56=LVMDG|10=078|
20150520-12:14:17.152: 8=FIX.4.4|9=59|35=0|34=60|49=LVMDG|52=20150520-12:14:17.152|56=BLODPENNA5|10=072|
20150520-12:14:24.362: 8=FIX.4.4|9=59|35=0|34=59|49=BLODPENNA5|52=20150520-12:14:24.335|56=LVMDG|10=081|
20150520-12:15:18.151: 8=FIX.4.4|9=59|35=0|34=61|49=LVMDG|52=20150520-12:15:18.151|56=BLODPENNA5|10=074|
20150520-12:15:25.365: 8=FIX.4.4|9=59|35=0|34=60|49=BLODPENNA5|52=20150520-12:15:25.327|56=LVMDG|10=076|
20150520-12:16:18.151: 8=FIX.4.4|9=59|35=0|34=62|49=LVMDG|52=20150520-12:16:18.151|56=BLODPENNA5|10=076|
20150520-12:16:26.367: 8=FIX.4.4|9=59|35=0|34=61|49=BLODPENNA5|52=20150520-12:16:26.318|56=LVMDG|10=079|
20150520-12:17:18.151: 8=FIX.4.4|9=59|35=0|34=63|49=LVMDG|52=20150520-12:17:18.151|56=BLODPENNA5|10=078|
20150520-12:17:27.373: 8=FIX.4.4|9=59|35=0|34=62|49=BLODPENNA5|52=20150520-12:17:27.310|56=LVMDG|10=074|
20150520-12:18:18.152: 8=FIX.4.4|9=59|35=0|34=64|49=LVMDG|52=20150520-12:18:18.152|56=BLODPENNA5|10=081|
20150520-12:18:28.372: 8=FIX.4.4|9=59|35=0|34=63|49=BLODPENNA5|52=20150520-12:18:28.304|56=LVMDG|10=080|
20150520-12:19:19.151: 8=FIX.4.4|9=59|35=0|34=65|49=LVMDG|52=20150520-12:19:19.151|56=BLODPENNA5|10=083|
20150520-12:19:29.374: 8=FIX.4.4|9=59|35=0|34=64|49=BLODPENNA5|52=20150520-12:19:29.301|56=LVMDG|10=080|
20150520-12:20:19.151: 8=FIX.4.4|9=59|35=0|34=66|49=LVMDG|52=20150520-12:20:19.151|56=BLODPENNA5|10=076|
20150520-12:20:30.377: 8=FIX.4.4|9=59|35=0|34=65|49=BLODPENNA5|52=20150520-12:20:30.299|56=LVMDG|10=081|
20150520-12:21:19.152: 8=FIX.4.4|9=59|35=0|34=67|49=LVMDG|52=20150520-12:21:19.152|56=BLODPENNA5|10=079|
20150520-12:21:31.380: 8=FIX.4.4|9=59|35=0|34=66|49=BLODPENNA5|52=20150520-12:21:31.297|56=LVMDG|10=082|
20150520-12:22:20.152: 8=FIX.4.4|9=59|35=0|34=68|49=LVMDG|52=20150520-12:22:20.152|56=BLODPENNA5|10=073|
20150520-12:22:32.381: 8=FIX.4.4|9=59|35=0|34=67|49=BLODPENNA5|52=20150520-12:22:32.293|56=LVMDG|10=081|
20150520-12:23:21.151: 8=FIX.4.4|9=59|35=0|34=69|49=LVMDG|52=20150520-12:23:21.151|56=BLODPENNA5|10=075|
20150520-12:23:33.384: 8=FIX.4.4|9=59|35=0|34=68|49=BLODPENNA5|52=20150520-12:23:33.291|56=LVMDG|10=082|
20150520-12:24:21.151: 8=FIX.4.4|9=59|35=0|34=70|49=LVMDG|52=20150520-12:24:21.151|56=BLODPENNA5|10=068|
20150520-12:24:34.386: 8=FIX.4.4|9=59|35=0|34=69|49=BLODPENNA5|52=20150520-12:24:34.288|56=LVMDG|10=091|
20150520-12:25:21.152: 8=FIX.4.4|9=59|35=0|34=71|49=LVMDG|52=20150520-12:25:21.152|56=BLODPENNA5|10=071|
20150520-12:25:35.389: 8=FIX.4.4|9=59|35=0|34=70|49=BLODPENNA5|52=20150520-12:25:35.286|56=LVMDG|10=083|
20150520-12:26:22.152: 8=FIX.4.4|9=59|35=0|34=72|49=LVMDG|52=20150520-12:26:22.152|56=BLODPENNA5|10=074|
20150520-12:26:36.391: 8=FIX.4.4|9=59|35=0|34=71|49=BLODPENNA5|52=20150520-12:26:36.283|56=LVMDG|10=083|
20150520-12:27:22.152: 8=FIX.4.4|9=59|35=0|34=73|49=LVMDG|52=20150520-12:27:22.152|56=BLODPENNA5|10=076|
20150520-12:27:37.393: 8=FIX.4.4|9=59|35=0|34=72|49=BLODPENNA5|52=20150520-12:27:37.280|56=LVMDG|10=083|
20150520-12:28:23.151: 8=FIX.4.4|9=59|35=0|34=74|49=LVMDG|52=20150520-12:28:23.151|56=BLODPENNA5|10=078|
20150520-12:28:37.396: 8=FIX.4.4|9=59|35=0|34=73|49=BLODPENNA5|52=20150520-12:28:37.283|56=LVMDG|10=088|
20150520-12:29:23.152: 8=FIX.4.4|9=59|35=0|34=75|49=LVMDG|52=20150520-12:29:23.152|56=BLODPENNA5|10=081|
20150520-12:29:37.398: 8=FIX.4.4|9=59|35=0|34=74|49=BLODPENNA5|52=20150520-12:29:37.286|56=LVMDG|10=093|
20150520-12:30:24.152: 8=FIX.4.4|9=59|35=0|34=76|49=LVMDG|52=20150520-12:30:24.152|56=BLODPENNA5|10=075|
20150520-12:30:37.404: 8=FIX.4.4|9=59|35=0|34=75|49=BLODPENNA5|52=20150520-12:30:37.290|56=LVMDG|10=081|
20150520-12:31:25.151: 8=FIX.4.4|9=59|35=0|34=77|49=LVMDG|52=20150520-12:31:25.151|56=BLODPENNA5|10=077|
20150520-12:31:37.404: 8=FIX.4.4|9=59|35=0|34=76|49=BLODPENNA5|52=20150520-12:31:37.293|56=LVMDG|10=086|
20150520-12:32:25.151: 8=FIX.4.4|9=59|35=0|34=78|49=LVMDG|52=20150520-12:32:25.151|56=BLODPENNA5|10=079|
20150520-12:32:37.406: 8=FIX.4.4|9=59|35=0|34=77|49=BLODPENNA5|52=20150520-12:32:37.296|56=LVMDG|10=091|
20150520-12:33:25.151: 8=FIX.4.4|9=59|35=0|34=79|49=LVMDG|52=20150520-12:33:25.151|56=BLODPENNA5|10=081|
20150520-12:33:37.408: 8=FIX.4.4|9=59|35=0|34=78|49=BLODPENNA5|52=20150520-12:33:37.300|56=LVMDG|10=079|
20150520-12:34:25.151: 8=FIX.4.4|9=59|35=0|34=80|49=LVMDG|52=20150520-12:34:25.151|56=BLODPENNA5|10=074|
20150520-12:34:37.410: 8=FIX.4.4|9=59|35=0|34=79|49=BLODPENNA5|52=20150520-12:34:37.303|56=LVMDG|10=084|
20150520-12:35:25.151: 8=FIX.4.4|9=59|35=0|34=81|49=LVMDG|52=20150520-12:35:25.151|56=BLODPENNA5|10=076|
20150520-12:35:37.413: 8=FIX.4.4|9=59|35=0|34=80|49=BLODPENNA5|52=20150520-12:35:37.307|56=LVMDG|10=081|
20150520-12:36:25.151: 8=FIX.4.4|9=59|35=0|34=82|49=LVMDG|52=20150520-12:36:25.151|56=BLODPENNA5|10=078|
20150520-12:36:37.415: 8=FIX.4.4|9=59|35=0|34=81|49=BLODPENNA5|52=20150520-12:36:37.310|56=LVMDG|10=077|
20150520-12:37:25.152: 8=FIX.4.4|9=59|35=0|34=83|49=LVMDG|52=20150520-12:37:25.152|56=BLODPENNA5|10=081|
20150520-12:37:37.418: 8=FIX.4.4|9=59|35=0|34=82|49=BLODPENNA5|52=20150520-12:37:37.314|56=LVMDG|10=083|
20150520-12:38:26.151: 8=FIX.4.4|9=59|35=0|34=84|49=LVMDG|52=20150520-12:38:26.151|56=BLODPENNA5|10=083|
20150520-12:38:37.420: 8=FIX.4.4|9=59|35=0|34=83|49=BLODPENNA5|52=20150520-12:38:37.317|56=LVMDG|10=088|
20150520-12:39:26.152: 8=FIX.4.4|9=59|35=0|34=85|49=LVMDG|52=20150520-12:39:26.152|56=BLODPENNA5|10=086|
20150520-12:39:37.423: 8=FIX.4.4|9=59|35=0|34=84|49=BLODPENNA5|52=20150520-12:39:37.321|56=LVMDG|10=085|
20150520-12:40:27.151: 8=FIX.4.4|9=59|35=0|34=86|49=LVMDG|52=20150520-12:40:27.151|56=BLODPENNA5|10=079|
20150520-12:40:37.425: 8=FIX.4.4|9=59|35=0|34=85|49=BLODPENNA5|52=20150520-12:40:37.324|56=LVMDG|10=081|
20150520-12:41:27.152: 8=FIX.4.4|9=59|35=0|34=87|49=LVMDG|52=20150520-12:41:27.152|56=BLODPENNA5|10=082|
20150520-12:41:37.427: 8=FIX.4.4|9=59|35=0|34=86|49=BLODPENNA5|52=20150520-12:41:37.327|56=LVMDG|10=086|
20150520-12:42:28.151: 8=FIX.4.4|9=59|35=0|34=88|49=LVMDG|52=20150520-12:42:28.151|56=BLODPENNA5|10=084|
20150520-12:42:37.429: 8=FIX.4.4|9=59|35=0|34=87|49=BLODPENNA5|52=20150520-12:42:37.331|56=LVMDG|10=083|
20150520-12:43:28.151: 8=FIX.4.4|9=59|35=0|34=89|49=LVMDG|52=20150520-12:43:28.151|56=BLODPENNA5|10=086|
20150520-12:43:37.431: 8=FIX.4.4|9=59|35=0|34=88|49=BLODPENNA5|52=20150520-12:43:37.334|56=LVMDG|10=088|
20150520-12:44:28.152: 8=FIX.4.4|9=59|35=0|34=90|49=LVMDG|52=20150520-12:44:28.152|56=BLODPENNA5|10=080|
20150520-12:44:37.434: 8=FIX.4.4|9=59|35=0|34=89|49=BLODPENNA5|52=20150520-12:44:37.338|56=LVMDG|10=094|
20150520-12:45:29.151: 8=FIX.4.4|9=59|35=0|34=91|49=LVMDG|52=20150520-12:45:29.151|56=BLODPENNA5|10=082|
20150520-12:45:37.436: 8=FIX.4.4|9=59|35=0|34=90|49=BLODPENNA5|52=20150520-12:45:37.341|56=LVMDG|10=081|
20150520-12:46:29.151: 8=FIX.4.4|9=59|35=0|34=92|49=LVMDG|52=20150520-12:46:29.151|56=BLODPENNA5|10=084|
20150520-12:46:37.439: 8=FIX.4.4|9=59|35=0|34=91|49=BLODPENNA5|52=20150520-12:46:37.345|56=LVMDG|10=087|
20150520-12:47:29.152: 8=FIX.4.4|9=59|35=0|34=93|49=LVMDG|52=20150520-12:47:29.152|56=BLODPENNA5|10=087|
20150520-12:47:37.441: 8=FIX.4.4|9=59|35=0|34=92|49=BLODPENNA5|52=20150520-12:47:37.348|56=LVMDG|10=092|
20150520-12:48:30.152: 8=FIX.4.4|9=59|35=0|34=94|49=LVMDG|52=20150520-12:48:30.152|56=BLODPENNA5|10=081|
20150520-12:48:37.461: 8=FIX.4.4|9=59|35=0|34=93|49=BLODPENNA5|52=20150520-12:48:37.351|56=LVMDG|10=088|
20150520-12:49:30.152: 8=FIX.4.4|9=59|35=0|34=95|49=LVMDG|52=20150520-12:49:30.152|56=BLODPENNA5|10=083|
20150520-12:49:37.446: 8=FIX.4.4|9=59|35=0|34=94|49=BLODPENNA5|52=20150520-12:49:37.355|56=LVMDG|10=094|
20150520-12:50:31.151: 8=FIX.4.4|9=59|35=0|34=96|49=LVMDG|52=20150520-12:50:31.151|56=BLODPENNA5|10=076|
20150520-12:50:37.448: 8=FIX.4.4|9=59|35=0|34=95|49=BLODPENNA5|52=20150520-12:50:37.358|56=LVMDG|10=090|
20150520-12:51:31.152: 8=FIX.4.4|9=59|35=0|34=97|49=LVMDG|52=20150520-12:51:31.152|56=BLODPENNA5|10=079|
20150520-12:51:37.451: 8=FIX.4.4|9=59|35=0|34=96|49=BLODPENNA5|52=20150520-12:51:37.362|56=LVMDG|10=087|
20150520-12:52:31.152: 8=FIX.4.4|9=59|35=0|34=98|49=LVMDG|52=20150520-12:52:31.152|56=BLODPENNA5|10=081|
20150520-12:52:37.453: 8=FIX.4.4|9=59|35=0|34=97|49=BLODPENNA5|52=20150520-12:52:37.365|56=LVMDG|10=092|
20150520-12:53:31.152: 8=FIX.4.4|9=59|35=0|34=99|49=LVMDG|52=20150520-12:53:31.152|56=BLODPENNA5|10=083|
20150520-12:53:37.455: 8=FIX.4.4|9=59|35=0|34=98|49=BLODPENNA5|52=20150520-12:53:37.369|56=LVMDG|10=098|
20150520-12:54:32.151: 8=FIX.4.4|9=60|35=0|34=100|49=LVMDG|52=20150520-12:54:32.151|56=BLODPENNA5|10=107|
20150520-12:54:37.457: 8=FIX.4.4|9=59|35=0|34=99|49=BLODPENNA5|52=20150520-12:54:37.372|56=LVMDG|10=094|
20150520-12:55:32.152: 8=FIX.4.4|9=60|35=0|34=101|49=LVMDG|52=20150520-12:55:32.152|56=BLODPENNA5|10=110|
20150520-12:55:37.459: 8=FIX.4.4|9=60|35=0|34=100|49=BLODPENNA5|52=20150520-12:55:37.375|56=LVMDG|10=121|
20150520-12:56:33.152: 8=FIX.4.4|9=60|35=0|34=102|49=LVMDG|52=20150520-12:56:33.152|56=BLODPENNA5|10=113|
20150520-12:56:37.463: 8=FIX.4.4|9=60|35=0|34=101|49=BLODPENNA5|52=20150520-12:56:37.379|56=LVMDG|10=127|
20150520-12:57:33.152: 8=FIX.4.4|9=60|35=0|34=103|49=LVMDG|52=20150520-12:57:33.152|56=BLODPENNA5|10=115|
20150520-12:57:37.464: 8=FIX.4.4|9=60|35=0|34=102|49=BLODPENNA5|52=20150520-12:57:37.382|56=LVMDG|10=123|
20150520-12:58:33.152: 8=FIX.4.4|9=60|35=0|34=104|49=LVMDG|52=20150520-12:58:33.152|56=BLODPENNA5|10=117|
20150520-12:58:37.467: 8=FIX.4.4|9=60|35=0|34=103|49=BLODPENNA5|52=20150520-12:58:37.386|56=LVMDG|10=129|
20150520-12:59:34.152: 8=FIX.4.4|9=60|35=0|34=105|49=LVMDG|52=20150520-12:59:34.151|56=BLODPENNA5|10=119|
20150520-12:59:37.469: 8=FIX.4.4|9=60|35=0|34=104|49=BLODPENNA5|52=20150520-12:59:37.389|56=LVMDG|10=134|
20150520-13:00:34.155: 8=FIX.4.4|9=60|35=0|34=106|49=LVMDG|52=20150520-13:00:34.154|56=BLODPENNA5|10=110|
20150520-13:00:37.472: 8=FIX.4.4|9=60|35=0|34=105|49=BLODPENNA5|52=20150520-13:00:37.393|56=LVMDG|10=117|
20150520-13:00:48.526: 8=FIX.4.4|9=127|35=X|34=106|49=BLODPENNA5|52=20150520-13:00:48.447|56=LVMDG|262=3a6566a3c2034e8f|268=1|279=0|269=B|55=COFX INDEX|271=500|290=1|10=001|
20150520-13:00:48.535: 8=FIX.4.4|9=160|35=X|34=107|49=BLODPENNA5|52=20150520-13:00:48.447|56=LVMDG|262=3a6566a3c2034e8f|268=2|279=0|269=A|55=COFX INDEX|290=1|811=1.05|279=0|269=G|55=COFX INDEX|58= +|10=202|
20150520-13:00:48.536: 8=FIX.4.4|9=128|35=X|34=108|49=BLODPENNA5|52=20150520-13:00:48.447|56=LVMDG|262=3a6566a3c2034e8f|268=1|279=0|269=5|55=COFX INDEX|270=2486|290=1|10=053|
20150520-13:01:13.328: 8=FIX.4.4|9=128|35=X|34=109|49=BLODPENNA5|52=20150520-13:01:13.250|56=LVMDG|262=3a6566a3c2034e8f|268=1|279=0|269=5|55=COFX INDEX|270=2490|290=1|10=034|
20150520-13:01:13.330: 8=FIX.4.4|9=160|35=X|34=110|49=BLODPENNA5|52=20150520-13:01:13.250|56=LVMDG|262=3a6566a3c2034e8f|268=2|279=0|269=A|55=COFX INDEX|290=1|811=5.05|279=0|269=G|55=COFX INDEX|58= +|10=185|
20150520-13:01:13.330: 8=FIX.4.4|9=127|35=X|34=111|49=BLODPENNA5|52=20150520-13:01:13.250|56=LVMDG|262=3a6566a3c2034e8f|268=1|279=0|269=B|55=COFX INDEX|271=750|290=1|10=245|
20150520-13:01:35.151: 8=FIX.4.4|9=60|35=0|34=107|49=LVMDG|52=20150520-13:01:35.151|56=BLODPENNA5|10=110|
20150520-13:01:45.433: 8=FIX.4.4|9=128|35=X|34=112|49=BLODPENNA5|52=20150520-13:01:45.354|56=LVMDG|262=3a6566a3c2034e8f|268=1|279=0|269=B|55=COFX INDEX|271=1000|290=1|10=038|
20150520-13:01:45.433: 8=FIX.4.4|9=160|35=X|34=113|49=BLODPENNA5|52=20150520-13:01:45.355|56=LVMDG|262=3a6566a3c2034e8f|268=2|279=0|269=A|55=COFX INDEX|290=1|811=5.05|279=0|269=G|55=COFX INDEX|58= +|10=199|
20150520-13:01:46.757: 8=FIX.4.4|9=128|35=X|34=114|49=BLODPENNA5|52=20150520-13:01:46.679|56=LVMDG|262=3a6566a3c2034e8f|268=1|279=0|269=B|55=COFX INDEX|271=1250|290=1|10=058|
20150520-13:01:46.757: 8=FIX.4.4|9=160|35=X|34=115|49=BLODPENNA5|52=20150520-13:01:46.679|56=LVMDG|262=3a6566a3c2034e8f|268=2|279=0|269=A|55=COFX INDEX|290=1|811=5.05|279=0|269=G|55=COFX INDEX|58= +|10=211|
20150520-13:01:48.859: 8=FIX.4.4|9=128|35=X|34=116|49=BLODPENNA5|52=20150520-13:01:48.781|56=LVMDG|262=3a6566a3c2034e8f|268=1|279=0|269=B|55=COFX INDEX|271=1500|290=1|10=054|
20150520-13:01:48.859: 8=FIX.4.4|9=160|35=X|34=117|49=BLODPENNA5|52=20150520-13:01:48.781|56=LVMDG|262=3a6566a3c2034e8f|268=2|279=0|269=A|55=COFX INDEX|290=1|811=5.05|279=0|269=G|55=COFX INDEX|58= +|10=209|
20150520-13:02:07.982: 8=FIX.4.4|9=160|35=X|34=118|49=BLODPENNA5|52=20150520-13:02:07.898|56=LVMDG|262=3a6566a3c2034e8f|268=2|279=0|269=A|55=COFX INDEX|290=1|811=6.85|279=0|269=G|55=COFX INDEX|58= +|10=224|
20150520-13:02:07.982: 8=FIX.4.4|9=130|35=X|34=119|49=BLODPENNA5|52=20150520-13:02:07.901|56=LVMDG|262=3a6566a3c2034e8f|268=1|279=0|269=5|55=COFX INDEX|270=2491.8|290=1|10=138|
20150520-13:02:07.986: 8=FIX.4.4|9=128|35=X|34=120|49=BLODPENNA5|52=20150520-13:02:07.901|56=LVMDG|262=3a6566a3c2034e8f|268=1|279=0|269=B|55=COFX INDEX|271=1750|290=1|10=046|
20150520-13:02:12.554: 8=FIX.4.4|9=128|35=X|34=121|49=BLODPENNA5|52=20150520-13:02:12.473|56=LVMDG|262=3a6566a3c2034e8f|268=1|279=0|269=5|55=COFX INDEX|270=2492|290=1|10=037|
20150520-13:02:12.554: 8=FIX.4.4|9=128|35=X|34=122|49=BLODPENNA5|52=20150520-13:02:12.473|56=LVMDG|262=3a6566a3c2034e8f|268=1|279=0|269=B|55=COFX INDEX|271=2250|290=1|10=044|
20150520-13:02:12.554: 8=FIX.4.4|9=160|35=X|34=123|49=BLODPENNA5|52=20150520-13:02:12.474|56=LVMDG|262=3a6566a3c2034e8f|268=2|279=0|269=A|55=COFX INDEX|290=1|811=7.05|279=0|269=G|55=COFX INDEX|58= +|10=199|
20150520-13:02:13.746: 8=FIX.4.4|9=128|35=X|34=124|49=BLODPENNA5|52=20150520-13:02:13.668|56=LVMDG|262=3a6566a3c2034e8f|268=1|279=0|269=5|55=COFX INDEX|270=2493|290=1|10=048|
20150520-13:02:13.750: 8=FIX.4.4|9=128|35=X|34=125|49=BLODPENNA5|52=20150520-13:02:13.669|56=LVMDG|262=3a6566a3c2034e8f|268=1|279=0|269=B|55=COFX INDEX|271=3250|290=1|10=056|
20150520-13:02:13.754: 8=FIX.4.4|9=160|35=X|34=126|49=BLODPENNA5|52=20150520-13:02:13.669|56=LVMDG|262=3a6566a3c2034e8f|268=2|279=0|269=A|55=COFX INDEX|290=1|811=8.05|279=0|269=G|55=COFX INDEX|58= +|10=210|
20150520-13:02:26.036: 8=FIX.4.4|9=128|35=X|34=127|49=BLODPENNA5|52=20150520-13:02:25.959|56=LVMDG|262=3a6566a3c2034e8f|268=1|279=0|269=B|55=COFX INDEX|271=4250|290=1|10=064|
20150520-13:02:26.037: 8=FIX.4.4|9=160|35=X|34=128|49=BLODPENNA5|52=20150520-13:02:25.959|56=LVMDG|262=3a6566a3c2034e8f|268=2|279=0|269=A|55=COFX INDEX|290=1|811=8.05|279=0|269=G|55=COFX INDEX|58= +|10=217|
20150520-13:02:35.152: 8=FIX.4.4|9=60|35=0|34=108|49=LVMDG|52=20150520-13:02:35.152|56=BLODPENNA5|10=113|
20150520-13:02:55.974: 8=FIX.4.4|9=128|35=X|34=129|49=BLODPENNA5|52=20150520-13:02:55.898|56=LVMDG|262=3a6566a3c2034e8f|268=1|279=0|269=B|55=COFX INDEX|271=4500|290=1|10=069|
20150520-13:02:55.975: 8=FIX.4.4|9=128|35=X|34=130|49=BLODPENNA5|52=20150520-13:02:55.898|56=LVMDG|262=3a6566a3c2034e8f|268=1|279=0|269=5|55=COFX INDEX|270=2490|290=1|10=053|
20150520-13:02:55.982: 8=FIX.4.4|9=160|35=X|34=131|49=BLODPENNA5|52=20150520-13:02:55.898|56=LVMDG|262=3a6566a3c2034e8f|268=2|279=0|269=A|55=COFX INDEX|290=1|811=5.05|279=0|269=G|55=COFX INDEX|58= +|10=213|
20150520-13:03:05.176: 8=FIX.4.4|9=128|35=X|34=132|49=BLODPENNA5|52=20150520-13:03:05.100|56=LVMDG|262=3a6566a3c2034e8f|268=1|279=0|269=B|55=COFX INDEX|271=4750|290=1|10=042|
20150520-13:03:05.177: 8=FIX.4.4|9=160|35=X|34=133|49=BLODPENNA5|52=20150520-13:03:05.100|56=LVMDG|262=3a6566a3c2034e8f|268=2|279=0|269=A|55=COFX INDEX|290=1|811=6.05|279=0|269=G|55=COFX INDEX|58= +|10=188|
20150520-13:03:05.177: 8=FIX.4.4|9=128|35=X|34=134|49=BLODPENNA5|52=20150520-13:03:05.101|56=LVMDG|262=3a6566a3c2034e8f|268=1|279=0|269=5|55=COFX INDEX|270=2491|290=1|10=031|
20150520-13:03:06.532: 8=FIX.4.4|9=128|35=X|34=135|49=BLODPENNA5|52=20150520-13:03:06.454|56=LVMDG|262=3a6566a3c2034e8f|268=1|279=0|269=B|55=COFX INDEX|271=5000|290=1|10=047|
20150520-13:03:06.533: 8=FIX.4.4|9=160|35=X|34=136|49=BLODPENNA5|52=20150520-13:03:06.457|56=LVMDG|262=3a6566a3c2034e8f|268=2|279=0|269=A|55=COFX INDEX|290=1|811=6.55|279=0|269=G|55=COFX INDEX|58= +|10=212|
20150520-13:03:06.535: 8=FIX.4.4|9=130|35=X|34=137|49=BLODPENNA5|52=20150520-13:03:06.458|56=LVMDG|262=3a6566a3c2034e8f|268=1|279=0|269=5|55=COFX INDEX|270=2491.5|290=1|10=142|
20150520-13:03:36.151: 8=FIX.4.4|9=60|35=0|34=109|49=LVMDG|52=20150520-13:03:36.151|56=BLODPENNA5|10=115|
20150520-13:04:07.480: 8=FIX.4.4|9=60|35=0|34=138|49=BLODPENNA5|52=20150520-13:04:07.405|56=LVMDG|10=118|
20150520-13:04:15.012: 8=FIX.4.4|9=128|35=X|34=139|49=BLODPENNA5|52=20150520-13:04:14.937|56=LVMDG|262=3a6566a3c2034e8f|268=1|279=0|269=B|55=COFX INDEX|271=5050|290=1|10=062|
20150520-13:04:36.151: 8=FIX.4.4|9=60|35=0|34=110|49=LVMDG|52=20150520-13:04:36.151|56=BLODPENNA5|10=108|
20150520-13:04:54.677: 8=FIX.4.4|9=128|35=X|34=140|49=BLODPENNA5|52=20150520-13:04:54.602|56=LVMDG|262=3a6566a3c2034e8f|268=1|279=0|269=B|55=COFX INDEX|271=5550|290=1|10=052|
20150520-13:04:54.677: 8=FIX.4.4|9=128|35=X|34=141|49=BLODPENNA5|52=20150520-13:04:54.603|56=LVMDG|262=3a6566a3c2034e8f|268=1|279=0|269=5|55=COFX INDEX|270=2491|290=1|10=041|
20150520-13:04:54.678: 8=FIX.4.4|9=160|35=X|34=142|49=BLODPENNA5|52=20150520-13:04:54.604|56=LVMDG|262=3a6566a3c2034e8f|268=2|279=0|269=A|55=COFX INDEX|290=1|811=6.05|279=0|269=G|55=COFX INDEX|58= +|10=202|
20150520-13:05:11.019: 8=FIX.4.4|9=128|35=X|34=143|49=BLODPENNA5|52=20150520-13:05:10.945|56=LVMDG|262=3a6566a3c2034e8f|268=1|279=0|269=B|55=COFX INDEX|271=6050|290=1|10=054|
20150520-13:05:11.020: 8=FIX.4.4|9=160|35=X|34=144|49=BLODPENNA5|52=20150520-13:05:10.945|56=LVMDG|262=3a6566a3c2034e8f|268=2|279=0|269=A|55=COFX INDEX|290=1|811=7.55|279=0|269=G|55=COFX INDEX|58= +|10=211|
20150520-13:05:11.022: 8=FIX.4.4|9=130|35=X|34=145|49=BLODPENNA5|52=20150520-13:05:10.945|56=LVMDG|262=3a6566a3c2034e8f|268=1|279=0|269=5|55=COFX INDEX|270=2492.5|290=1|10=140|
20150520-13:05:13.315: 8=FIX.4.4|9=128|35=X|34=146|49=BLODPENNA5|52=20150520-13:05:13.241|56=LVMDG|262=3a6566a3c2034e8f|268=1|279=0|269=B|55=COFX INDEX|271=6550|290=1|10=054|
20150520-13:05:13.315: 8=FIX.4.4|9=128|35=X|34=147|49=BLODPENNA5|52=20150520-13:05:13.241|56=LVMDG|262=3a6566a3c2034e8f|268=1|279=0|269=5|55=COFX INDEX|270=2493|290=1|10=043|
20150520-13:05:13.315: 8=FIX.4.4|9=160|35=X|34=148|49=BLODPENNA5|52=20150520-13:05:13.241|56=LVMDG|262=3a6566a3c2034e8f|268=2|279=0|269=A|55=COFX INDEX|290=1|811=8.05|279=0|269=G|55=COFX INDEX|58= +|10=203|
20150520-13:05:20.697: 8=FIX.4.4|9=128|35=X|34=149|49=BLODPENNA5|52=20150520-13:05:20.623|56=LVMDG|262=3a6566a3c2034e8f|268=1|279=0|269=B|55=COFX INDEX|271=6800|290=1|10=057|
20150520-13:05:20.698: 8=FIX.4.4|9=160|35=X|34=150|49=BLODPENNA5|52=20150520-13:05:20.623|56=LVMDG|262=3a6566a3c2034e8f|268=2|279=0|269=A|55=COFX INDEX|290=1|811=8.05|279=0|269=G|55=COFX INDEX|58= +|10=198|
20150520-13:05:24.431: 8=FIX.4.4|9=131|35=X|34=151|49=BLODPENNA5|52=20150520-13:05:24.357|56=LVMDG|262=3a6566a3c2034e8f|268=1|279=0|269=5|55=COFX INDEX|270=2493.95|290=1|10=198|
20150520-13:05:24.434: 8=FIX.4.4|9=128|35=X|34=152|49=BLODPENNA5|52=20150520-13:05:24.357|56=LVMDG|262=3a6566a3c2034e8f|268=1|279=0|269=B|55=COFX INDEX|271=7050|290=1|10=057|
20150520-13:05:24.450: 8=FIX.4.4|9=157|35=X|34=153|49=BLODPENNA5|52=20150520-13:05:24.358|56=LVMDG|262=3a6566a3c2034e8f|268=2|279=0|269=A|55=COFX INDEX|290=1|811=9|279=0|269=G|55=COFX INDEX|58= +|10=070|
20150520-13:05:25.994: 8=FIX.4.4|9=128|35=X|34=154|49=BLODPENNA5|52=20150520-13:05:25.920|56=LVMDG|262=3a6566a3c2034e8f|268=1|279=0|269=5|55=COFX INDEX|270=2494|290=1|10=049|
20150520-13:05:25.995: 8=FIX.4.4|9=128|35=X|34=155|49=BLODPENNA5|52=20150520-13:05:25.921|56=LVMDG|262=3a6566a3c2034e8f|268=1|279=0|269=B|55=COFX INDEX|271=7300|290=1|10=056|
20150520-13:05:25.998: 8=FIX.4.4|9=160|35=X|34=156|49=BLODPENNA5|52=20150520-13:05:25.921|56=LVMDG|262=3a6566a3c2034e8f|268=2|279=0|269=A|55=COFX INDEX|290=1|811=9.05|279=0|269=G|55=COFX INDEX|58= +|10=211|
20150520-13:05:26.227: 8=FIX.4.4|9=128|35=X|34=157|49=BLODPENNA5|52=20150520-13:05:26.151|56=LVMDG|262=3a6566a3c2034e8f|268=1|279=0|269=5|55=COFX INDEX|270=2495|290=1|10=050|
20150520-13:05:26.227: 8=FIX.4.4|9=128|35=X|34=158|49=BLODPENNA5|52=20150520-13:05:26.152|56=LVMDG|262=3a6566a3c2034e8f|268=1|279=0|269=B|55=COFX INDEX|271=8050|290=1|10=059|
20150520-13:05:26.231: 8=FIX.4.4|9=161|35=X|34=159|49=BLODPENNA5|52=20150520-13:05:26.156|56=LVMDG|262=3a6566a3c2034e8f|268=2|279=0|269=A|55=COFX INDEX|290=1|811=10.05|279=0|269=G|55=COFX INDEX|58= +|10=000|
20150520-13:05:26.259: 8=FIX.4.4|9=128|35=X|34=160|49=BLODPENNA5|52=20150520-13:05:26.185|56=LVMDG|262=3a6566a3c2034e8f|268=1|279=0|269=5|55=COFX INDEX|270=2494|290=1|10=050|
20150520-13:05:26.259: 8=FIX.4.4|9=128|35=X|34=161|49=BLODPENNA5|52=20150520-13:05:26.185|56=LVMDG|262=3a6566a3c2034e8f|268=1|279=0|269=B|55=COFX INDEX|271=9050|290=1|10=060|
20150520-13:05:26.260: 8=FIX.4.4|9=160|35=X|34=162|49=BLODPENNA5|52=20150520-13:05:26.186|56=LVMDG|262=3a6566a3c2034e8f|268=2|279=0|269=A|55=COFX INDEX|290=1|811=9.05|279=0|269=G|55=COFX INDEX|58= +|10=212|
20150520-13:05:28.153: 8=FIX.4.4|9=128|35=X|34=163|49=BLODPENNA5|52=20150520-13:05:28.079|56=LVMDG|262=3a6566a3c2034e8f|268=1|279=0|269=B|55=COFX INDEX|271=9300|290=1|10=064|
20150520-13:05:28.153: 8=FIX.4.4|9=161|35=X|34=164|49=BLODPENNA5|52=20150520-13:05:28.079|56=LVMDG|262=3a6566a3c2034e8f|268=2|279=0|269=A|55=COFX INDEX|290=1|811=10.05|279=0|269=G|55=COFX INDEX|58= +|10=002|
20150520-13:05:28.153: 8=FIX.4.4|9=128|35=X|34=165|49=BLODPENNA5|52=20150520-13:05:28.079|56=LVMDG|262=3a6566a3c2034e8f|268=1|279=0|269=5|55=COFX INDEX|270=2495|290=1|10=060|
20150520-13:05:31.698: 8=FIX.4.4|9=128|35=X|34=166|49=BLODPENNA5|52=20150520-13:05:31.624|56=LVMDG|262=3a6566a3c2034e8f|268=1|279=0|269=B|55=COFX INDEX|271=9550|290=1|10=064|
20150520-13:05:31.699: 8=FIX.4.4|9=161|35=X|34=167|49=BLODPENNA5|52=20150520-13:05:31.624|56=LVMDG|262=3a6566a3c2034e8f|268=2|279=0|269=A|55=COFX INDEX|290=1|811=10.05|279=0|269=G|55=COFX INDEX|58= +|10=251|
20150520-13:05:32.783: 8=FIX.4.4|9=128|35=X|34=168|49=BLODPENNA5|52=20150520-13:05:32.708|56=LVMDG|262=3a6566a3c2034e8f|268=1|279=0|269=B|55=COFX INDEX|271=9800|290=1|10=068|
20150520-13:05:32.783: 8=FIX.4.4|9=161|35=X|34=169|49=BLODPENNA5|52=20150520-13:05:32.709|56=LVMDG|262=3a6566a3c2034e8f|268=2|279=0|269=A|55=COFX INDEX|290=1|811=10.05|279=0|269=G|55=COFX INDEX|58= +|10=002|
20150520-13:05:34.210: 8=FIX.4.4|9=129|35=X|34=170|49=BLODPENNA5|52=20150520-13:05:34.136|56=LVMDG|262=3a6566a3c2034e8f|268=1|279=0|269=B|55=COFX INDEX|271=10800|290=1|10=099|
20150520-13:05:34.210: 8=FIX.4.4|9=161|35=X|34=171|49=BLODPENNA5|52=20150520-13:05:34.136|56=LVMDG|262=3a6566a3c2034e8f|268=2|279=0|269=A|55=COFX INDEX|290=1|811=10.05|279=0|269=G|55=COFX INDEX|58= +|10=247|
20150520-13:05:36.151: 8=FIX.4.4|9=60|35=0|34=111|49=LVMDG|52=20150520-13:05:36.151|56=BLODPENNA5|10=110|
20150520-13:05:40.504: 8=FIX.4.4|9=129|35=X|34=172|49=BLODPENNA5|52=20150520-13:05:40.429|56=LVMDG|262=3a6566a3c2034e8f|268=1|279=0|269=B|55=COFX INDEX|271=11300|290=1|10=099|
20150520-13:05:40.504: 8=FIX.4.4|9=161|35=X|34=173|49=BLODPENNA5|52=20150520-13:05:40.430|56=LVMDG|262=3a6566a3c2034e8f|268=2|279=0|269=A|55=COFX INDEX|290=1|811=10.05|279=0|269=G|55=COFX INDEX|58= +|10=243|
20150520-13:05:41.754: 8=FIX.4.4|9=131|35=X|34=174|49=BLODPENNA5|52=20150520-13:05:41.680|56=LVMDG|262=3a6566a3c2034e8f|268=1|279=0|269=5|55=COFX INDEX|270=2494.95|290=1|10=202|
20150520-13:05:41.755: 8=FIX.4.4|9=129|35=X|34=175|49=BLODPENNA5|52=20150520-13:05:41.681|56=LVMDG|262=3a6566a3c2034e8f|268=1|279=0|269=B|55=COFX INDEX|271=11550|290=1|10=110|
20150520-13:05:41.766: 8=FIX.4.4|9=158|35=X|34=176|49=BLODPENNA5|52=20150520-13:05:41.682|56=LVMDG|262=3a6566a3c2034e8f|268=2|279=0|269=A|55=COFX INDEX|290=1|811=10|279=0|269=G|55=COFX INDEX|58= +|10=115|
20150520-13:05:46.323: 8=FIX.4.4|9=128|35=X|34=177|49=BLODPENNA5|52=20150520-13:05:46.249|56=LVMDG|262=3a6566a3c2034e8f|268=1|279=0|269=5|55=COFX INDEX|270=2494|290=1|10=061|
20150520-13:05:46.323: 8=FIX.4.4|9=129|35=X|34=178|49=BLODPENNA5|52=20150520-13:05:46.249|56=LVMDG|262=3a6566a3c2034e8f|268=1|279=0|269=B|55=COFX INDEX|271=11800|290=1|10=116|
20150520-13:05:46.338: 8=FIX.4.4|9=160|35=X|34=179|49=BLODPENNA5|52=20150520-13:05:46.253|56=LVMDG|262=3a6566a3c2034e8f|268=2|279=0|269=A|55=COFX INDEX|290=1|811=9.05|279=0|269=G|55=COFX INDEX|58= +|10=217|
20150520-13:25:40.397: 8=FIX.4.4|9=76|35=A|34=1|49=LVMDG|52=20150520-13:25:40.397|56=BLODPENNA5|98=0|108=60|141=Y|10=118|
20150520-13:25:40.579: 8=FIX.4.4|9=76|35=A|34=1|49=BLODPENNA5|52=20150520-13:25:40.520|56=LVMDG|98=0|108=60|141=Y|10=106|
20150520-13:25:40.580: 8=FIX.4.4|9=149|35=V|34=2|49=LVMDG|52=20150520-13:25:40.580|56=BLODPENNA5|262=6aa8782a50e3436c|263=1|264=0|146=1|55=COFX INDEX|207=BLPDPENNA|267=3|269=0|269=1|269=5|10=177|
20150520-13:25:43.279: 8=FIX.4.4|9=264|35=W|34=2|49=BLODPENNA5|52=20150520-13:25:43.223|56=LVMDG|55=COFX INDEX|262=6aa8782a50e3436c|268=10|269=B|271=80150|269=4|270=2486|269=7|270=2500|269=9|270=0|269=8|270=2486|269=5|270=2497|269=A|811=12.05|269=G|58= +|269=0|270=0|271=0|290=1|269=1|270=0|271=0|290=1|10=134|
20150520-13:26:05.068: 8=FIX.4.4|9=127|35=X|34=3|49=BLODPENNA5|52=20150520-13:26:05.015|56=LVMDG|262=6aa8782a50e3436c|268=1|279=0|269=B|55=COFX INDEX|271=80400|290=1|10=253|
20150520-13:26:05.068: 8=FIX.4.4|9=159|35=X|34=4|49=BLODPENNA5|52=20150520-13:26:05.016|56=LVMDG|262=6aa8782a50e3436c|268=2|279=0|269=A|55=COFX INDEX|290=1|811=13.85|279=0|269=G|55=COFX INDEX|58= +|10=163|
20150520-13:26:05.069: 8=FIX.4.4|9=128|35=X|34=5|49=BLODPENNA5|52=20150520-13:26:05.017|56=LVMDG|262=6aa8782a50e3436c|268=1|279=0|269=5|55=COFX INDEX|270=2498.8|290=1|10=053|
20150520-13:26:19.909: 8=FIX.4.4|9=127|35=X|34=6|49=BLODPENNA5|52=20150520-13:26:19.856|56=LVMDG|262=6aa8782a50e3436c|268=1|279=0|269=B|55=COFX INDEX|271=80650|290=1|10=025|
20150520-13:26:19.909: 8=FIX.4.4|9=159|35=X|34=7|49=BLODPENNA5|52=20150520-13:26:19.857|56=LVMDG|262=6aa8782a50e3436c|268=2|279=0|269=A|55=COFX INDEX|290=1|811=11.05|279=0|269=G|55=COFX INDEX|58= +|10=174|
20150520-13:26:19.912: 8=FIX.4.4|9=126|35=X|34=8|49=BLODPENNA5|52=20150520-13:26:19.857|56=LVMDG|262=6aa8782a50e3436c|268=1|279=0|269=5|55=COFX INDEX|270=2496|290=1|10=223|
20150520-13:26:23.198: 8=FIX.4.4|9=159|35=X|34=9|49=BLODPENNA5|52=20150520-13:26:23.144|56=LVMDG|262=6aa8782a50e3436c|268=2|279=0|269=A|55=COFX INDEX|290=1|811=10.45|279=0|269=G|55=COFX INDEX|58= +|10=163|
20150520-13:26:23.198: 8=FIX.4.4|9=128|35=X|34=10|49=BLODPENNA5|52=20150520-13:26:23.145|56=LVMDG|262=6aa8782a50e3436c|268=1|279=0|269=B|55=COFX INDEX|271=80900|290=1|10=053|
20150520-13:26:23.201: 8=FIX.4.4|9=129|35=X|34=11|49=BLODPENNA5|52=20150520-13:26:23.146|56=LVMDG|262=6aa8782a50e3436c|268=1|279=0|269=5|55=COFX INDEX|270=2495.4|290=1|10=095|
20150520-13:26:24.104: 8=FIX.4.4|9=128|35=X|34=12|49=BLODPENNA5|52=20150520-13:26:24.051|56=LVMDG|262=6aa8782a50e3436c|268=1|279=0|269=B|55=COFX INDEX|271=81150|290=1|10=050|
20150520-13:26:24.104: 8=FIX.4.4|9=160|35=X|34=13|49=BLODPENNA5|52=20150520-13:26:24.052|56=LVMDG|262=6aa8782a50e3436c|268=2|279=0|269=A|55=COFX INDEX|290=1|811=10.35|279=0|269=G|55=COFX INDEX|58= +|10=196|
20150520-13:26:24.105: 8=FIX.4.4|9=129|35=X|34=14|49=BLODPENNA5|52=20150520-13:26:24.052|56=LVMDG|262=6aa8782a50e3436c|268=1|279=0|269=5|55=COFX INDEX|270=2495.3|290=1|10=094|
20150520-13:26:25.349: 8=FIX.4.4|9=128|35=X|34=15|49=BLODPENNA5|52=20150520-13:26:25.296|56=LVMDG|262=6aa8782a50e3436c|268=1|279=0|269=B|55=COFX INDEX|271=81400|290=1|10=063|
20150520-13:26:25.349: 8=FIX.4.4|9=160|35=X|34=16|49=BLODPENNA5|52=20150520-13:26:25.297|56=LVMDG|262=6aa8782a50e3436c|268=2|279=0|269=A|55=COFX INDEX|290=1|811=10.25|279=0|269=G|55=COFX INDEX|58= +|10=210|
20150520-13:26:25.350: 8=FIX.4.4|9=129|35=X|34=17|49=BLODPENNA5|52=20150520-13:26:25.298|56=LVMDG|262=6aa8782a50e3436c|268=1|279=0|269=5|55=COFX INDEX|270=2495.2|290=1|10=109|
20150520-13:26:27.010: 8=FIX.4.4|9=128|35=X|34=18|49=BLODPENNA5|52=20150520-13:26:26.957|56=LVMDG|262=6aa8782a50e3436c|268=1|279=0|269=B|55=COFX INDEX|271=81650|290=1|10=078|
20150520-13:26:27.010: 8=FIX.4.4|9=160|35=X|34=19|49=BLODPENNA5|52=20150520-13:26:26.958|56=LVMDG|262=6aa8782a50e3436c|268=2|279=0|269=A|55=COFX INDEX|290=1|811=10.05|279=0|269=G|55=COFX INDEX|58= +|10=216|
20150520-13:26:27.011: 8=FIX.4.4|9=127|35=X|34=20|49=BLODPENNA5|52=20150520-13:26:26.959|56=LVMDG|262=6aa8782a50e3436c|268=1|279=0|269=5|55=COFX INDEX|270=2495|290=1|10=010|
20150520-13:26:27.425: 8=FIX.4.4|9=128|35=X|34=21|49=BLODPENNA5|52=20150520-13:26:27.371|56=LVMDG|262=6aa8782a50e3436c|268=1|279=0|269=B|55=COFX INDEX|271=82150|290=1|10=059|
20150520-13:26:27.426: 8=FIX.4.4|9=159|35=X|34=22|49=BLODPENNA5|52=20150520-13:26:27.373|56=LVMDG|262=6aa8782a50e3436c|268=2|279=0|269=A|55=COFX INDEX|290=1|811=9.25|279=0|269=G|55=COFX INDEX|58= +|10=172|
20150520-13:26:27.426: 8=FIX.4.4|9=129|35=X|34=23|49=BLODPENNA5|52=20150520-13:26:27.373|56=LVMDG|262=6aa8782a50e3436c|268=1|279=0|269=5|55=COFX INDEX|270=2494.2|290=1|10=101|
20150520-13:26:27.460: 8=FIX.4.4|9=128|35=X|34=24|49=BLODPENNA5|52=20150520-13:26:27.407|56=LVMDG|262=6aa8782a50e3436c|268=1|279=0|269=B|55=COFX INDEX|271=82650|290=1|10=067|
20150520-13:26:27.460: 8=FIX.4.4|9=158|35=X|34=25|49=BLODPENNA5|52=20150520-13:26:27.407|56=LVMDG|262=6aa8782a50e3436c|268=2|279=0|269=A|55=COFX INDEX|290=1|811=9.3|279=0|269=G|55=COFX INDEX|58= +|10=120|
20150520-13:26:27.460: 8=FIX.4.4|9=130|35=X|34=26|49=BLODPENNA5|52=20150520-13:26:27.408|56=LVMDG|262=6aa8782a50e3436c|268=1|279=0|269=5|55=COFX INDEX|270=2494.25|290=1|10=148|
20150520-13:26:34.805: 8=FIX.4.4|9=129|35=X|34=27|49=BLODPENNA5|52=20150520-13:26:34.753|56=LVMDG|262=6aa8782a50e3436c|268=1|279=0|269=5|55=COFX INDEX|270=2494.5|290=1|10=108|
20150520-13:26:34.805: 8=FIX.4.4|9=159|35=X|34=28|49=BLODPENNA5|52=20150520-13:26:34.754|56=LVMDG|262=6aa8782a50e3436c|268=2|279=0|269=A|55=COFX INDEX|290=1|811=9.55|279=0|269=G|55=COFX INDEX|58= +|10=182|
20150520-13:26:34.807: 8=FIX.4.4|9=128|35=X|34=29|49=BLODPENNA5|52=20150520-13:26:34.754|56=LVMDG|262=6aa8782a50e3436c|268=1|279=0|269=B|55=COFX INDEX|271=82900|290=1|10=073|
20150520-13:26:38.325: 8=FIX.4.4|9=128|35=X|34=30|49=BLODPENNA5|52=20150520-13:26:38.273|56=LVMDG|262=6aa8782a50e3436c|268=1|279=0|269=B|55=COFX INDEX|271=83150|290=1|10=063|
20150520-13:26:38.326: 8=FIX.4.4|9=158|35=X|34=31|49=BLODPENNA5|52=20150520-13:26:38.274|56=LVMDG|262=6aa8782a50e3436c|268=2|279=0|269=A|55=COFX INDEX|290=1|811=9.1|279=0|269=G|55=COFX INDEX|58= +|10=119|
20150520-13:26:38.327: 8=FIX.4.4|9=130|35=X|34=32|49=BLODPENNA5|52=20150520-13:26:38.275|56=LVMDG|262=6aa8782a50e3436c|268=1|279=0|269=5|55=COFX INDEX|270=2494.05|290=1|10=147|
20150520-13:26:41.152: 8=FIX.4.4|9=58|35=0|34=3|49=LVMDG|52=20150520-13:26:41.152|56=BLODPENNA5|10=021|
20150520-13:26:47.188: 8=FIX.4.4|9=127|35=X|34=33|49=BLODPENNA5|52=20150520-13:26:47.135|56=LVMDG|262=6aa8782a50e3436c|268=1|279=0|269=5|55=COFX INDEX|270=2495|290=1|10=003|
20150520-13:26:47.188: 8=FIX.4.4|9=128|35=X|34=34|49=BLODPENNA5|52=20150520-13:26:47.136|56=LVMDG|262=6aa8782a50e3436c|268=1|279=0|269=B|55=COFX INDEX|271=84150|290=1|10=066|
20150520-13:26:47.189: 8=FIX.4.4|9=160|35=X|34=35|49=BLODPENNA5|52=20150520-13:26:47.137|56=LVMDG|262=6aa8782a50e3436c|268=2|279=0|269=A|55=COFX INDEX|290=1|811=10.05|279=0|269=G|55=COFX INDEX|58= +|10=206|
20150520-13:27:24.604: 8=FIX.4.4|9=160|35=X|34=36|49=BLODPENNA5|52=20150520-13:27:24.553|56=LVMDG|262=6aa8782a50e3436c|268=2|279=0|269=A|55=COFX INDEX|290=1|811=11.85|279=0|269=G|55=COFX INDEX|58= +|10=214|
20150520-13:27:24.605: 8=FIX.4.4|9=128|35=X|34=37|49=BLODPENNA5|52=20150520-13:27:24.554|56=LVMDG|262=6aa8782a50e3436c|268=1|279=0|269=B|55=COFX INDEX|271=84400|290=1|10=067|
20150520-13:27:24.607: 8=FIX.4.4|9=129|35=X|34=38|49=BLODPENNA5|52=20150520-13:27:24.556|56=LVMDG|262=6aa8782a50e3436c|268=1|279=0|269=5|55=COFX INDEX|270=2496.8|290=1|10=116|
20150520-13:27:29.682: 8=FIX.4.4|9=128|35=X|34=39|49=BLODPENNA5|52=20150520-13:27:29.630|56=LVMDG|262=6aa8782a50e3436c|268=1|279=0|269=B|55=COFX INDEX|271=84650|290=1|10=076|
20150520-13:27:29.683: 8=FIX.4.4|9=160|35=X|34=40|49=BLODPENNA5|52=20150520-13:27:29.631|56=LVMDG|262=6aa8782a50e3436c|268=2|279=0|269=A|55=COFX INDEX|290=1|811=11.85|279=0|269=G|55=COFX INDEX|58= +|10=211|
20150520-13:27:42.151: 8=FIX.4.4|9=58|35=0|34=4|49=LVMDG|52=20150520-13:27:42.151|56=BLODPENNA5|10=023|
20150520-13:27:54.197: 8=FIX.4.4|9=127|35=X|34=41|49=BLODPENNA5|52=20150520-13:27:54.146|56=LVMDG|262=6aa8782a50e3436c|268=1|279=0|269=5|55=COFX INDEX|270=2496|290=1|10=004|
20150520-13:27:54.197: 8=FIX.4.4|9=128|35=X|34=42|49=BLODPENNA5|52=20150520-13:27:54.147|56=LVMDG|262=6aa8782a50e3436c|268=1|279=0|269=B|55=COFX INDEX|271=84900|290=1|10=069|
20150520-13:27:54.199: 8=FIX.4.4|9=160|35=X|34=43|49=BLODPENNA5|52=20150520-13:27:54.147|56=LVMDG|262=6aa8782a50e3436c|268=2|279=0|269=A|55=COFX INDEX|290=1|811=11.05|279=0|269=G|55=COFX INDEX|58= +|10=206|
20150520-13:27:57.562: 8=FIX.4.4|9=127|35=X|34=44|49=BLODPENNA5|52=20150520-13:27:57.511|56=LVMDG|262=6aa8782a50e3436c|268=1|279=0|269=5|55=COFX INDEX|270=2497|290=1|10=007|
20150520-13:27:57.562: 8=FIX.4.4|9=128|35=X|34=45|49=BLODPENNA5|52=20150520-13:27:57.512|56=LVMDG|262=6aa8782a50e3436c|268=1|279=0|269=B|55=COFX INDEX|271=85150|290=1|10=069|
20150520-13:27:57.564: 8=FIX.4.4|9=160|35=X|34=46|49=BLODPENNA5|52=20150520-13:27:57.514|56=LVMDG|262=6aa8782a50e3436c|268=2|279=0|269=A|55=COFX INDEX|290=1|811=12.05|279=0|269=G|55=COFX INDEX|58= +|10=211|
20150520-13:28:01.018: 8=FIX.4.4|9=128|35=X|34=47|49=BLODPENNA5|52=20150520-13:28:00.967|56=LVMDG|262=6aa8782a50e3436c|268=1|279=0|269=B|55=COFX INDEX|271=85400|290=1|10=072|
20150520-13:28:01.019: 8=FIX.4.4|9=160|35=X|34=48|49=BLODPENNA5|52=20150520-13:28:00.967|56=LVMDG|262=6aa8782a50e3436c|268=2|279=0|269=A|55=COFX INDEX|290=1|811=12.05|279=0|269=G|55=COFX INDEX|58= +|10=214|
20150520-13:28:01.808: 8=FIX.4.4|9=128|35=X|34=49|49=BLODPENNA5|52=20150520-13:28:01.757|56=LVMDG|262=6aa8782a50e3436c|268=1|279=0|269=B|55=COFX INDEX|271=85650|290=1|10=079|
20150520-13:28:01.809: 8=FIX.4.4|9=160|35=X|34=50|49=BLODPENNA5|52=20150520-13:28:01.758|56=LVMDG|262=6aa8782a50e3436c|268=2|279=0|269=A|55=COFX INDEX|290=1|811=12.05|279=0|269=G|55=COFX INDEX|58= +|10=206|
20150520-13:28:11.942: 8=FIX.4.4|9=128|35=X|34=51|49=BLODPENNA5|52=20150520-13:28:11.891|56=LVMDG|262=6aa8782a50e3436c|268=1|279=0|269=B|55=COFX INDEX|271=85900|290=1|10=070|
20150520-13:28:11.944: 8=FIX.4.4|9=157|35=X|34=52|49=BLODPENNA5|52=20150520-13:28:11.892|56=LVMDG|262=6aa8782a50e3436c|268=2|279=0|269=A|55=COFX INDEX|290=1|811=12|279=0|269=G|55=COFX INDEX|58= +|10=067|
20150520-13:28:11.944: 8=FIX.4.4|9=130|35=X|34=53|49=BLODPENNA5|52=20150520-13:28:11.893|56=LVMDG|262=6aa8782a50e3436c|268=1|279=0|269=5|55=COFX INDEX|270=2496.95|290=1|10=160|
20150520-13:28:13.696: 8=FIX.4.4|9=128|35=X|34=54|49=BLODPENNA5|52=20150520-13:28:13.646|56=LVMDG|262=6aa8782a50e3436c|268=1|279=0|269=B|55=COFX INDEX|271=86150|290=1|10=071|
20150520-13:28:13.698: 8=FIX.4.4|9=160|35=X|34=55|49=BLODPENNA5|52=20150520-13:28:13.647|56=LVMDG|262=6aa8782a50e3436c|268=2|279=0|269=A|55=COFX INDEX|290=1|811=11.05|279=0|269=G|55=COFX INDEX|58= +|10=210|
20150520-13:28:13.700: 8=FIX.4.4|9=127|35=X|34=56|49=BLODPENNA5|52=20150520-13:28:13.648|56=LVMDG|262=6aa8782a50e3436c|268=1|279=0|269=5|55=COFX INDEX|270=2496|290=1|10=013|
20150520-13:28:23.661: 8=FIX.4.4|9=128|35=X|34=57|49=BLODPENNA5|52=20150520-13:28:23.610|56=LVMDG|262=6aa8782a50e3436c|268=1|279=0|269=B|55=COFX INDEX|271=86400|290=1|10=064|
20150520-13:28:23.662: 8=FIX.4.4|9=127|35=X|34=58|49=BLODPENNA5|52=20150520-13:28:23.612|56=LVMDG|262=6aa8782a50e3436c|268=1|279=0|269=5|55=COFX INDEX|270=2497|290=1|10=008|
20150520-13:28:23.663: 8=FIX.4.4|9=160|35=X|34=59|49=BLODPENNA5|52=20150520-13:28:23.613|56=LVMDG|262=6aa8782a50e3436c|268=2|279=0|269=A|55=COFX INDEX|290=1|811=12.05|279=0|269=G|55=COFX INDEX|58= +|10=209|
20150520-13:28:42.151: 8=FIX.4.4|9=58|35=0|34=5|49=LVMDG|52=20150520-13:28:42.151|56=BLODPENNA5|10=025|
20150520-13:28:47.556: 8=FIX.4.4|9=160|35=X|34=60|49=BLODPENNA5|52=20150520-13:28:47.506|56=LVMDG|262=6aa8782a50e3436c|268=2|279=0|269=A|55=COFX INDEX|290=1|811=12.85|279=0|269=G|55=COFX INDEX|58= +|10=216|
20150520-13:28:47.557: 8=FIX.4.4|9=128|35=X|34=61|49=BLODPENNA5|52=20150520-13:28:47.507|56=LVMDG|262=6aa8782a50e3436c|268=1|279=0|269=B|55=COFX INDEX|271=86650|290=1|10=077|
20150520-13:28:47.560: 8=FIX.4.4|9=129|35=X|34=62|49=BLODPENNA5|52=20150520-13:28:47.508|56=LVMDG|262=6aa8782a50e3436c|268=1|279=0|269=5|55=COFX INDEX|270=2497.8|290=1|10=117|
20150520-13:28:52.515: 8=FIX.4.4|9=128|35=X|34=63|49=BLODPENNA5|52=20150520-13:28:52.464|56=LVMDG|262=6aa8782a50e3436c|268=1|279=0|269=B|55=COFX INDEX|271=86700|290=1|10=073|
20150520-13:29:16.443: 8=FIX.4.4|9=160|35=X|34=64|49=BLODPENNA5|52=20150520-13:29:16.394|56=LVMDG|262=6aa8782a50e3436c|268=2|279=0|269=A|55=COFX INDEX|290=1|811=12.05|279=0|269=G|55=COFX INDEX|58= +|10=214|
20150520-13:29:16.444: 8=FIX.4.4|9=128|35=X|34=65|49=BLODPENNA5|52=20150520-13:29:16.395|56=LVMDG|262=6aa8782a50e3436c|268=1|279=0|269=B|55=COFX INDEX|271=86950|290=1|10=086|
20150520-13:29:16.446: 8=FIX.4.4|9=127|35=X|34=66|49=BLODPENNA5|52=20150520-13:29:16.397|56=LVMDG|262=6aa8782a50e3436c|268=1|279=0|269=5|55=COFX INDEX|270=2497|290=1|10=020|
20150520-13:29:28.984: 8=FIX.4.4|9=129|35=X|34=67|49=BLODPENNA5|52=20150520-13:29:28.932|56=LVMDG|262=6aa8782a50e3436c|268=1|279=0|269=5|55=COFX INDEX|270=2498.5|290=1|10=121|
20150520-13:29:28.984: 8=FIX.4.4|9=160|35=X|34=68|49=BLODPENNA5|52=20150520-13:29:28.933|56=LVMDG|262=6aa8782a50e3436c|268=2|279=0|269=A|55=COFX INDEX|290=1|811=13.55|279=0|269=G|55=COFX INDEX|58= +|10=226|
20150520-13:29:28.985: 8=FIX.4.4|9=128|35=X|34=69|49=BLODPENNA5|52=20150520-13:29:28.934|56=LVMDG|262=6aa8782a50e3436c|268=1|279=0|269=B|55=COFX INDEX|271=88950|290=1|10=094|
20150520-13:29:29.214: 8=FIX.4.4|9=128|35=X|34=70|49=BLODPENNA5|52=20150520-13:29:29.164|56=LVMDG|262=6aa8782a50e3436c|268=1|279=0|269=B|55=COFX INDEX|271=89200|290=1|10=071|
20150520-13:29:29.214: 8=FIX.4.4|9=160|35=X|34=71|49=BLODPENNA5|52=20150520-13:29:29.165|56=LVMDG|262=6aa8782a50e3436c|268=2|279=0|269=A|55=COFX INDEX|290=1|811=13.05|279=0|269=G|55=COFX INDEX|58= +|10=213|
20150520-13:29:29.216: 8=FIX.4.4|9=127|35=X|34=72|49=BLODPENNA5|52=20150520-13:29:29.166|56=LVMDG|262=6aa8782a50e3436c|268=1|279=0|269=5|55=COFX INDEX|270=2498|290=1|10=016|
20150520-13:29:29.248: 8=FIX.4.4|9=128|35=X|34=73|49=BLODPENNA5|52=20150520-13:29:29.199|56=LVMDG|262=6aa8782a50e3436c|268=1|279=0|269=B|55=COFX INDEX|271=90700|290=1|10=079|
20150520-13:29:29.249: 8=FIX.4.4|9=129|35=X|34=74|49=BLODPENNA5|52=20150520-13:29:29.199|56=LVMDG|262=6aa8782a50e3436c|268=1|279=0|269=5|55=COFX INDEX|270=2498.9|290=1|10=129|
20150520-13:29:29.249: 8=FIX.4.4|9=160|35=X|34=75|49=BLODPENNA5|52=20150520-13:29:29.200|56=LVMDG|262=6aa8782a50e3436c|268=2|279=0|269=A|55=COFX INDEX|290=1|811=13.95|279=0|269=G|55=COFX INDEX|58= +|10=216|
20150520-13:29:29.279: 8=FIX.4.4|9=127|35=X|34=76|49=BLODPENNA5|52=20150520-13:29:29.229|56=LVMDG|262=6aa8782a50e3436c|268=1|279=0|269=5|55=COFX INDEX|270=2498|290=1|10=020|
20150520-13:29:29.279: 8=FIX.4.4|9=160|35=X|34=77|49=BLODPENNA5|52=20150520-13:29:29.229|56=LVMDG|262=6aa8782a50e3436c|268=2|279=0|269=A|55=COFX INDEX|290=1|811=13.05|279=0|269=G|55=COFX INDEX|58= +|10=220|
20150520-13:29:29.279: 8=FIX.4.4|9=128|35=X|34=78|49=BLODPENNA5|52=20150520-13:29:29.230|56=LVMDG|262=6aa8782a50e3436c|268=1|279=0|269=B|55=COFX INDEX|271=91200|290=1|10=066|
20150520-13:29:29.311: 8=FIX.4.4|9=128|35=X|34=79|49=BLODPENNA5|52=20150520-13:29:29.262|56=LVMDG|262=6aa8782a50e3436c|268=1|279=0|269=B|55=COFX INDEX|271=94200|290=1|10=075|
20150520-13:29:29.312: 8=FIX.4.4|9=157|35=X|34=80|49=BLODPENNA5|52=20150520-13:29:29.262|56=LVMDG|262=6aa8782a50e3436c|268=2|279=0|269=A|55=COFX INDEX|290=1|811=13|279=0|269=G|55=COFX INDEX|58= +|10=070|
20150520-13:29:29.313: 8=FIX.4.4|9=130|35=X|34=81|49=BLODPENNA5|52=20150520-13:29:29.263|56=LVMDG|262=6aa8782a50e3436c|268=1|279=0|269=5|55=COFX INDEX|270=2497.95|290=1|10=163|
20150520-13:29:29.347: 8=FIX.4.4|9=160|35=X|34=82|49=BLODPENNA5|52=20150520-13:29:29.298|56=LVMDG|262=6aa8782a50e3436c|268=2|279=0|269=A|55=COFX INDEX|290=1|811=13.95|279=0|269=G|55=COFX INDEX|58= +|10=231|
20150520-13:29:29.348: 8=FIX.4.4|9=128|35=X|34=83|49=BLODPENNA5|52=20150520-13:29:29.299|56=LVMDG|262=6aa8782a50e3436c|268=1|279=0|269=B|55=COFX INDEX|271=95950|290=1|10=093|
20150520-13:29:29.348: 8=FIX.4.4|9=129|35=X|34=84|49=BLODPENNA5|52=20150520-13:29:29.299|56=LVMDG|262=6aa8782a50e3436c|268=1|279=0|269=5|55=COFX INDEX|270=2498.9|290=1|10=131|
20150520-13:29:29.436: 8=FIX.4.4|9=128|35=X|34=85|49=BLODPENNA5|52=20150520-13:29:29.384|56=LVMDG|262=6aa8782a50e3436c|268=1|279=0|269=B|55=COFX INDEX|271=96200|290=1|10=079|
20150520-13:29:29.436: 8=FIX.4.4|9=130|35=X|34=86|49=BLODPENNA5|52=20150520-13:29:29.384|56=LVMDG|262=6aa8782a50e3436c|268=1|279=0|269=5|55=COFX INDEX|270=2498.99|290=1|10=177|
20150520-13:29:29.436: 8=FIX.4.4|9=160|35=X|34=87|49=BLODPENNA5|52=20150520-13:29:29.384|56=LVMDG|262=6aa8782a50e3436c|268=2|279=0|269=A|55=COFX INDEX|290=1|811=14.04|279=0|269=G|55=COFX INDEX|58= +|10=223|
20150520-13:29:29.459: 8=FIX.4.4|9=160|35=X|34=88|49=BLODPENNA5|52=20150520-13:29:29.409|56=LVMDG|262=6aa8782a50e3436c|268=2|279=0|269=A|55=COFX INDEX|290=1|811=14.05|279=0|269=G|55=COFX INDEX|58= +|10=223|
20150520-13:29:29.459: 8=FIX.4.4|9=128|35=X|34=89|49=BLODPENNA5|52=20150520-13:29:29.410|56=LVMDG|262=6aa8782a50e3436c|268=1|279=0|269=B|55=COFX INDEX|271=96450|290=1|10=080|
20150520-13:29:29.460: 8=FIX.4.4|9=127|35=X|34=90|49=BLODPENNA5|52=20150520-13:29:29.411|56=LVMDG|262=6aa8782a50e3436c|268=1|279=0|269=5|55=COFX INDEX|270=2499|290=1|10=010|
20150520-13:29:29.494: 8=FIX.4.4|9=128|35=X|34=91|49=BLODPENNA5|52=20150520-13:29:29.445|56=LVMDG|262=6aa8782a50e3436c|268=1|279=0|269=B|55=COFX INDEX|271=96950|290=1|10=086|
20150520-13:29:29.495: 8=FIX.4.4|9=160|35=X|34=92|49=BLODPENNA5|52=20150520-13:29:29.446|56=LVMDG|262=6aa8782a50e3436c|268=2|279=0|269=A|55=COFX INDEX|290=1|811=14.05|279=0|269=G|55=COFX INDEX|58= +|10=219|
20150520-13:29:30.914: 8=FIX.4.4|9=160|35=X|34=93|49=BLODPENNA5|52=20150520-13:29:30.865|56=LVMDG|262=6aa8782a50e3436c|268=2|279=0|269=A|55=COFX INDEX|290=1|811=14.05|279=0|269=G|55=COFX INDEX|58= +|10=217|
20150520-13:29:30.914: 8=FIX.4.4|9=128|35=X|34=94|49=BLODPENNA5|52=20150520-13:29:30.865|56=LVMDG|262=6aa8782a50e3436c|268=1|279=0|269=B|55=COFX INDEX|271=98450|290=1|10=084|
20150520-13:29:35.080: 8=FIX.4.4|9=128|35=X|34=95|49=BLODPENNA5|52=20150520-13:29:35.031|56=LVMDG|262=6aa8782a50e3436c|268=1|279=0|269=B|55=COFX INDEX|271=98700|290=1|10=073|
20150520-13:29:35.080: 8=FIX.4.4|9=160|35=X|34=96|49=BLODPENNA5|52=20150520-13:29:35.031|56=LVMDG|262=6aa8782a50e3436c|268=2|279=0|269=A|55=COFX INDEX|290=1|811=13.95|279=0|269=G|55=COFX INDEX|58= +|10=218|
20150520-13:29:35.084: 8=FIX.4.4|9=129|35=X|34=97|49=BLODPENNA5|52=20150520-13:29:35.032|56=LVMDG|262=6aa8782a50e3436c|268=1|279=0|269=5|55=COFX INDEX|270=2498.9|290=1|10=117|
20150520-13:29:39.001: 8=FIX.4.4|9=128|35=X|34=98|49=BLODPENNA5|52=20150520-13:29:38.951|56=LVMDG|262=6aa8782a50e3436c|268=1|279=0|269=B|55=COFX INDEX|271=98950|290=1|10=097|
20150520-13:29:39.001: 8=FIX.4.4|9=127|35=X|34=99|49=BLODPENNA5|52=20150520-13:29:38.951|56=LVMDG|262=6aa8782a50e3436c|268=1|279=0|269=5|55=COFX INDEX|270=2499|290=1|10=028|
20150520-13:29:39.004: 8=FIX.4.4|9=161|35=X|34=100|49=BLODPENNA5|52=20150520-13:29:38.953|56=LVMDG|262=6aa8782a50e3436c|268=2|279=0|269=A|55=COFX INDEX|290=1|811=14.05|279=0|269=G|55=COFX INDEX|58= +|10=005|
20150520-13:29:39.287: 8=FIX.4.4|9=130|35=X|34=101|49=BLODPENNA5|52=20150520-13:29:39.238|56=LVMDG|262=6aa8782a50e3436c|268=1|279=0|269=B|55=COFX INDEX|271=100200|290=1|10=142|
20150520-13:29:39.288: 8=FIX.4.4|9=161|35=X|34=102|49=BLODPENNA5|52=20150520-13:29:39.238|56=LVMDG|262=6aa8782a50e3436c|268=2|279=0|269=A|55=COFX INDEX|290=1|811=14.05|279=0|269=G|55=COFX INDEX|58= +|10=004|
20150520-13:29:39.321: 8=FIX.4.4|9=130|35=X|34=103|49=BLODPENNA5|52=20150520-13:29:39.272|56=LVMDG|262=6aa8782a50e3436c|268=1|279=0|269=B|55=COFX INDEX|271=100700|290=1|10=147|
20150520-13:29:39.322: 8=FIX.4.4|9=161|35=X|34=104|49=BLODPENNA5|52=20150520-13:29:39.273|56=LVMDG|262=6aa8782a50e3436c|268=2|279=0|269=A|55=COFX INDEX|290=1|811=14.55|279=0|269=G|55=COFX INDEX|58= +|10=010|
20150520-13:29:39.324: 8=FIX.4.4|9=130|35=X|34=105|49=BLODPENNA5|52=20150520-13:29:39.273|56=LVMDG|262=6aa8782a50e3436c|268=1|279=0|269=5|55=COFX INDEX|270=2499.5|290=1|10=155|
20150520-13:29:41.725: 8=FIX.4.4|9=161|35=X|34=106|49=BLODPENNA5|52=20150520-13:29:41.676|56=LVMDG|262=6aa8782a50e3436c|268=2|279=0|269=A|55=COFX INDEX|290=1|811=13.95|279=0|269=G|55=COFX INDEX|58= +|10=015|
20150520-13:29:41.726: 8=FIX.4.4|9=130|35=X|34=107|49=BLODPENNA5|52=20150520-13:29:41.676|56=LVMDG|262=6aa8782a50e3436c|268=1|279=0|269=B|55=COFX INDEX|271=100950|290=1|10=159|
20150520-13:29:41.728: 8=FIX.4.4|9=130|35=X|34=108|49=BLODPENNA5|52=20150520-13:29:41.677|56=LVMDG|262=6aa8782a50e3436c|268=1|279=0|269=5|55=COFX INDEX|270=2498.9|290=1|10=162|
20150520-13:29:42.151: 8=FIX.4.4|9=58|35=0|34=6|49=LVMDG|52=20150520-13:29:42.151|56=BLODPENNA5|10=027|
20150520-13:29:43.766: 8=FIX.4.4|9=161|35=X|34=109|49=BLODPENNA5|52=20150520-13:29:43.717|56=LVMDG|262=6aa8782a50e3436c|268=2|279=0|269=A|55=COFX INDEX|290=1|811=14.05|279=0|269=G|55=COFX INDEX|58= +|10=008|
20150520-13:29:43.768: 8=FIX.4.4|9=130|35=X|34=110|49=BLODPENNA5|52=20150520-13:29:43.718|56=LVMDG|262=6aa8782a50e3436c|268=1|279=0|269=B|55=COFX INDEX|271=101200|290=1|10=141|
20150520-13:29:43.768: 8=FIX.4.4|9=128|35=X|34=111|49=BLODPENNA5|52=20150520-13:29:43.719|56=LVMDG|262=6aa8782a50e3436c|268=1|279=0|269=5|55=COFX INDEX|270=2499|290=1|10=060|
20150520-13:30:34.392: 8=FIX.4.4|9=130|35=X|34=112|49=BLODPENNA5|52=20150520-13:30:34.345|56=LVMDG|262=6aa8782a50e3436c|268=1|279=0|269=B|55=COFX INDEX|271=101450|290=1|10=138|
20150520-13:30:34.393: 8=FIX.4.4|9=161|35=X|34=113|49=BLODPENNA5|52=20150520-13:30:34.345|56=LVMDG|262=6aa8782a50e3436c|268=2|279=0|269=A|55=COFX INDEX|290=1|811=14.05|279=0|269=G|55=COFX INDEX|58= +|10=248|
20150520-13:30:42.160: 8=FIX.4.4|9=58|35=0|34=7|49=LVMDG|52=20150520-13:30:42.160|56=BLODPENNA5|10=020|
20150520-13:30:42.495: 8=FIX.4.4|9=161|35=X|34=114|49=BLODPENNA5|52=20150520-13:30:42.446|56=LVMDG|262=6aa8782a50e3436c|268=2|279=0|269=A|55=COFX INDEX|290=1|811=14.25|279=0|269=G|55=COFX INDEX|58= +|10=252|
20150520-13:30:42.496: 8=FIX.4.4|9=130|35=X|34=115|49=BLODPENNA5|52=20150520-13:30:42.447|56=LVMDG|262=6aa8782a50e3436c|268=1|279=0|269=5|55=COFX INDEX|270=2499.2|290=1|10=142|
20150520-13:30:42.496: 8=FIX.4.4|9=130|35=X|34=116|49=BLODPENNA5|52=20150520-13:30:42.447|56=LVMDG|262=6aa8782a50e3436c|268=1|279=0|269=B|55=COFX INDEX|271=101700|290=1|10=142|
20150520-13:30:43.620: 8=FIX.4.4|9=161|35=X|34=117|49=BLODPENNA5|52=20150520-13:30:43.573|56=LVMDG|262=6aa8782a50e3436c|268=2|279=0|269=A|55=COFX INDEX|290=1|811=14.45|279=0|269=G|55=COFX INDEX|58= +|10=003|
20150520-13:30:43.621: 8=FIX.4.4|9=130|35=X|34=118|49=BLODPENNA5|52=20150520-13:30:43.573|56=LVMDG|262=6aa8782a50e3436c|268=1|279=0|269=B|55=COFX INDEX|271=101950|290=1|10=152|
20150520-13:30:43.621: 8=FIX.4.4|9=130|35=X|34=119|49=BLODPENNA5|52=20150520-13:30:43.574|56=LVMDG|262=6aa8782a50e3436c|268=1|279=0|269=5|55=COFX INDEX|270=2499.4|290=1|10=150|
20150520-13:30:45.431: 8=FIX.4.4|9=161|35=X|34=120|49=BLODPENNA5|52=20150520-13:30:45.383|56=LVMDG|262=6aa8782a50e3436c|268=2|279=0|269=A|55=COFX INDEX|290=1|811=14.55|279=0|269=G|55=COFX INDEX|58= +|10=255|
20150520-13:30:45.432: 8=FIX.4.4|9=130|35=X|34=121|49=BLODPENNA5|52=20150520-13:30:45.384|56=LVMDG|262=6aa8782a50e3436c|268=1|279=0|269=5|55=COFX INDEX|270=2499.5|290=1|10=145|
20150520-13:30:45.434: 8=FIX.4.4|9=130|35=X|34=122|49=BLODPENNA5|52=20150520-13:30:45.385|56=LVMDG|262=6aa8782a50e3436c|268=1|279=0|269=B|55=COFX INDEX|271=102950|290=1|10=151|
20150520-13:30:46.300: 8=FIX.4.4|9=131|35=X|34=123|49=BLODPENNA5|52=20150520-13:30:46.247|56=LVMDG|262=6aa8782a50e3436c|268=1|279=0|269=5|55=COFX INDEX|270=2499.75|290=1|10=202|
20150520-13:30:46.300: 8=FIX.4.4|9=130|35=X|34=124|49=BLODPENNA5|52=20150520-13:30:46.248|56=LVMDG|262=6aa8782a50e3436c|268=1|279=0|269=B|55=COFX INDEX|271=103200|290=1|10=141|
20150520-13:30:46.300: 8=FIX.4.4|9=160|35=X|34=125|49=BLODPENNA5|52=20150520-13:30:46.248|56=LVMDG|262=6aa8782a50e3436c|268=2|279=0|269=A|55=COFX INDEX|290=1|811=14.8|279=0|269=G|55=COFX INDEX|58= +|10=210|
20150520-13:30:46.847: 8=FIX.4.4|9=130|35=X|34=126|49=BLODPENNA5|52=20150520-13:30:46.799|56=LVMDG|262=6aa8782a50e3436c|268=1|279=0|269=B|55=COFX INDEX|271=103450|290=1|10=161|
20150520-13:30:46.851: 8=FIX.4.4|9=158|35=X|34=127|49=BLODPENNA5|52=20150520-13:30:46.800|56=LVMDG|262=6aa8782a50e3436c|268=2|279=0|269=A|55=COFX INDEX|290=1|811=15|279=0|269=G|55=COFX INDEX|58= +|10=112|
20150520-13:30:46.851: 8=FIX.4.4|9=131|35=X|34=128|49=BLODPENNA5|52=20150520-13:30:46.800|56=LVMDG|262=6aa8782a50e3436c|268=1|279=0|269=5|55=COFX INDEX|270=2499.95|290=1|10=204|
20150520-13:30:48.144: 8=FIX.4.4|9=130|35=X|34=129|49=BLODPENNA5|52=20150520-13:30:48.086|56=LVMDG|262=6aa8782a50e3436c|268=1|279=0|269=B|55=COFX INDEX|271=103950|290=1|10=160|
20150520-13:30:48.148: 8=FIX.4.4|9=161|35=X|34=130|49=BLODPENNA5|52=20150520-13:30:48.086|56=LVMDG|262=6aa8782a50e3436c|268=2|279=0|269=A|55=COFX INDEX|290=1|811=15.05|279=0|269=G|55=COFX INDEX|58= +|10=255|
20150520-13:30:48.148: 8=FIX.4.4|9=128|35=X|34=131|49=BLODPENNA5|52=20150520-13:30:48.086|56=LVMDG|262=6aa8782a50e3436c|268=1|279=0|269=5|55=COFX INDEX|270=2500|290=1|10=039|
20150520-13:30:48.400: 8=FIX.4.4|9=130|35=X|34=132|49=BLODPENNA5|52=20150520-13:30:48.352|56=LVMDG|262=6aa8782a50e3436c|268=1|279=0|269=B|55=COFX INDEX|271=104450|290=1|10=146|
20150520-13:30:48.400: 8=FIX.4.4|9=161|35=X|34=133|49=BLODPENNA5|52=20150520-13:30:48.353|56=LVMDG|262=6aa8782a50e3436c|268=2|279=0|269=A|55=COFX INDEX|290=1|811=15.05|279=0|269=G|55=COFX INDEX|58= +|10=255|
20150520-13:30:48.961: 8=FIX.4.4|9=130|35=X|34=134|49=BLODPENNA5|52=20150520-13:30:48.913|56=LVMDG|262=6aa8782a50e3436c|268=1|279=0|269=B|55=COFX INDEX|271=104950|290=1|10=156|
20150520-13:30:48.962: 8=FIX.4.4|9=161|35=X|34=135|49=BLODPENNA5|52=20150520-13:30:48.914|56=LVMDG|262=6aa8782a50e3436c|268=2|279=0|269=A|55=COFX INDEX|290=1|811=15.05|279=0|269=G|55=COFX INDEX|58= +|10=004|
20150520-13:30:51.071: 8=FIX.4.4|9=130|35=X|34=136|49=BLODPENNA5|52=20150520-13:30:50.998|56=LVMDG|262=6aa8782a50e3436c|268=1|279=0|269=B|55=COFX INDEX|271=105450|290=1|10=160|
20150520-13:30:51.072: 8=FIX.4.4|9=161|35=X|34=137|49=BLODPENNA5|52=20150520-13:30:50.998|56=LVMDG|262=6aa8782a50e3436c|268=2|279=0|269=A|55=COFX INDEX|290=1|811=15.05|279=0|269=G|55=COFX INDEX|58= +|10=011|
20150520-13:30:51.650: 8=FIX.4.4|9=130|35=X|34=138|49=BLODPENNA5|52=20150520-13:30:51.600|56=LVMDG|262=6aa8782a50e3436c|268=1|279=0|269=B|55=COFX INDEX|271=105950|290=1|10=148|
20150520-13:30:51.651: 8=FIX.4.4|9=161|35=X|34=139|49=BLODPENNA5|52=20150520-13:30:51.602|56=LVMDG|262=6aa8782a50e3436c|268=2|279=0|269=A|55=COFX INDEX|290=1|811=15.05|279=0|269=G|55=COFX INDEX|58= +|10=252|
20150520-13:30:52.165: 8=FIX.4.4|9=130|35=X|34=140|49=BLODPENNA5|52=20150520-13:30:52.117|56=LVMDG|262=6aa8782a50e3436c|268=1|279=0|269=B|55=COFX INDEX|271=106450|290=1|10=141|
20150520-13:30:52.166: 8=FIX.4.4|9=161|35=X|34=141|49=BLODPENNA5|52=20150520-13:30:52.118|56=LVMDG|262=6aa8782a50e3436c|268=2|279=0|269=A|55=COFX INDEX|290=1|811=15.05|279=0|269=G|55=COFX INDEX|58= +|10=248|
20150520-13:30:52.444: 8=FIX.4.4|9=130|35=X|34=142|49=BLODPENNA5|52=20150520-13:30:52.396|56=LVMDG|262=6aa8782a50e3436c|268=1|279=0|269=B|55=COFX INDEX|271=106950|290=1|10=157|
20150520-13:30:52.445: 8=FIX.4.4|9=161|35=X|34=143|49=BLODPENNA5|52=20150520-13:30:52.397|56=LVMDG|262=6aa8782a50e3436c|268=2|279=0|269=A|55=COFX INDEX|290=1|811=15.05|279=0|269=G|55=COFX INDEX|58= +|10=003|
20150520-13:30:53.257: 8=FIX.4.4|9=130|35=X|34=144|49=BLODPENNA5|52=20150520-13:30:53.207|56=LVMDG|262=6aa8782a50e3436c|268=1|279=0|269=B|55=COFX INDEX|271=107450|290=1|10=147|
20150520-13:30:53.257: 8=FIX.4.4|9=161|35=X|34=145|49=BLODPENNA5|52=20150520-13:30:53.207|56=LVMDG|262=6aa8782a50e3436c|268=2|279=0|269=A|55=COFX INDEX|290=1|811=15.05|279=0|269=G|55=COFX INDEX|58= +|10=252|
20150520-13:30:54.167: 8=FIX.4.4|9=161|35=X|34=146|49=BLODPENNA5|52=20150520-13:30:54.119|56=LVMDG|262=6aa8782a50e3436c|268=2|279=0|269=A|55=COFX INDEX|290=1|811=15.05|279=0|269=G|55=COFX INDEX|58= +|10=000|
20150520-13:30:54.167: 8=FIX.4.4|9=130|35=X|34=147|49=BLODPENNA5|52=20150520-13:30:54.120|56=LVMDG|262=6aa8782a50e3436c|268=1|279=0|269=B|55=COFX INDEX|271=107700|290=1|10=143|
20150520-13:30:54.631: 8=FIX.4.4|9=130|35=X|34=148|49=BLODPENNA5|52=20150520-13:30:54.584|56=LVMDG|262=6aa8782a50e3436c|268=1|279=0|269=B|55=COFX INDEX|271=107950|290=1|10=165|
20150520-13:30:54.632: 8=FIX.4.4|9=161|35=X|34=149|49=BLODPENNA5|52=20150520-13:30:54.584|56=LVMDG|262=6aa8782a50e3436c|268=2|279=0|269=A|55=COFX INDEX|290=1|811=15.55|279=0|269=G|55=COFX INDEX|58= +|10=014|
20150520-13:30:54.632: 8=FIX.4.4|9=130|35=X|34=150|49=BLODPENNA5|52=20150520-13:30:54.585|56=LVMDG|262=6aa8782a50e3436c|268=1|279=0|269=5|55=COFX INDEX|270=2500.5|290=1|10=133|
20150520-13:30:54.850: 8=FIX.4.4|9=130|35=X|34=151|49=BLODPENNA5|52=20150520-13:30:54.803|56=LVMDG|262=6aa8782a50e3436c|268=1|279=0|269=B|55=COFX INDEX|271=108950|290=1|10=154|
20150520-13:30:55.891: 8=FIX.4.4|9=161|35=X|34=152|49=BLODPENNA5|52=20150520-13:30:55.843|56=LVMDG|262=6aa8782a50e3436c|268=2|279=0|269=A|55=COFX INDEX|290=1|811=15.55|279=0|269=G|55=COFX INDEX|58= +|10=007|
20150520-13:30:55.891: 8=FIX.4.4|9=130|35=X|34=153|49=BLODPENNA5|52=20150520-13:30:55.844|56=LVMDG|262=6aa8782a50e3436c|268=1|279=0|269=B|55=COFX INDEX|271=109200|290=1|10=151|
20150520-13:31:08.984: 8=FIX.4.4|9=130|35=X|34=154|49=BLODPENNA5|52=20150520-13:31:08.927|56=LVMDG|262=6aa8782a50e3436c|268=1|279=0|269=B|55=COFX INDEX|271=109450|290=1|10=160|
20150520-13:31:08.988: 8=FIX.4.4|9=161|35=X|34=155|49=BLODPENNA5|52=20150520-13:31:08.927|56=LVMDG|262=6aa8782a50e3436c|268=2|279=0|269=A|55=COFX INDEX|290=1|811=15.05|279=0|269=G|55=COFX INDEX|58= +|10=007|
20150520-13:31:08.988: 8=FIX.4.4|9=128|35=X|34=156|49=BLODPENNA5|52=20150520-13:31:08.927|56=LVMDG|262=6aa8782a50e3436c|268=1|279=0|269=5|55=COFX INDEX|270=2500|290=1|10=047|
20150520-13:31:12.006: 8=FIX.4.4|9=131|35=X|34=157|49=BLODPENNA5|52=20150520-13:31:11.958|56=LVMDG|262=6aa8782a50e3436c|268=1|279=0|269=5|55=COFX INDEX|270=2499.99|290=1|10=217|
20150520-13:31:12.006: 8=FIX.4.4|9=130|35=X|34=158|49=BLODPENNA5|52=20150520-13:31:11.959|56=LVMDG|262=6aa8782a50e3436c|268=1|279=0|269=B|55=COFX INDEX|271=109700|290=1|10=161|
20150520-13:31:12.008: 8=FIX.4.4|9=161|35=X|34=159|49=BLODPENNA5|52=20150520-13:31:11.959|56=LVMDG|262=6aa8782a50e3436c|268=2|279=0|269=A|55=COFX INDEX|290=1|811=15.04|279=0|269=G|55=COFX INDEX|58= +|10=009|
20150520-13:31:22.129: 8=FIX.4.4|9=130|35=X|34=160|49=BLODPENNA5|52=20150520-13:31:22.042|56=LVMDG|262=6aa8782a50e3436c|268=1|279=0|269=B|55=COFX INDEX|271=109950|290=1|10=146|
20150520-13:31:22.129: 8=FIX.4.4|9=128|35=X|34=161|49=BLODPENNA5|52=20150520-13:31:22.044|56=LVMDG|262=6aa8782a50e3436c|268=1|279=0|269=5|55=COFX INDEX|270=2500|290=1|10=029|
20150520-13:31:22.129: 8=FIX.4.4|9=161|35=X|34=162|49=BLODPENNA5|52=20150520-13:31:22.044|56=LVMDG|262=6aa8782a50e3436c|268=2|279=0|269=A|55=COFX INDEX|290=1|811=15.05|279=0|269=G|55=COFX INDEX|58= +|10=247|
20150520-13:31:26.827: 8=FIX.4.4|9=130|35=X|34=163|49=BLODPENNA5|52=20150520-13:31:26.780|56=LVMDG|262=6aa8782a50e3436c|268=1|279=0|269=B|55=COFX INDEX|271=110200|290=1|10=142|
20150520-13:31:26.828: 8=FIX.4.4|9=161|35=X|34=164|49=BLODPENNA5|52=20150520-13:31:26.781|56=LVMDG|262=6aa8782a50e3436c|268=2|279=0|269=A|55=COFX INDEX|290=1|811=15.05|279=0|269=G|55=COFX INDEX|58= +|10=005|
20150520-13:31:38.184: 8=FIX.4.4|9=130|35=X|34=165|49=BLODPENNA5|52=20150520-13:31:38.137|56=LVMDG|262=6aa8782a50e3436c|268=1|279=0|269=B|55=COFX INDEX|271=110450|290=1|10=150|
20150520-13:31:38.184: 8=FIX.4.4|9=161|35=X|34=166|49=BLODPENNA5|52=20150520-13:31:38.137|56=LVMDG|262=6aa8782a50e3436c|268=2|279=0|269=A|55=COFX INDEX|290=1|811=15.05|279=0|269=G|55=COFX INDEX|58= +|10=005|
20150520-13:31:39.232: 8=FIX.4.4|9=130|35=X|34=167|49=BLODPENNA5|52=20150520-13:31:39.184|56=LVMDG|262=6aa8782a50e3436c|268=1|279=0|269=B|55=COFX INDEX|271=110950|290=1|10=160|
20150520-13:31:39.233: 8=FIX.4.4|9=161|35=X|34=168|49=BLODPENNA5|52=20150520-13:31:39.184|56=LVMDG|262=6aa8782a50e3436c|268=2|279=0|269=A|55=COFX INDEX|290=1|811=16.85|279=0|269=G|55=COFX INDEX|58= +|10=019|
20150520-13:31:39.233: 8=FIX.4.4|9=130|35=X|34=169|49=BLODPENNA5|52=20150520-13:31:39.185|56=LVMDG|262=6aa8782a50e3436c|268=1|279=0|269=5|55=COFX INDEX|270=2501.8|290=1|10=147|
20150520-13:31:39.481: 8=FIX.4.4|9=130|35=X|34=170|49=BLODPENNA5|52=20150520-13:31:39.434|56=LVMDG|262=6aa8782a50e3436c|268=1|279=0|269=5|55=COFX INDEX|270=2502.4|290=1|10=133|
20150520-13:31:39.488: 8=FIX.4.4|9=130|35=X|34=171|49=BLODPENNA5|52=20150520-13:31:39.435|56=LVMDG|262=6aa8782a50e3436c|268=1|279=0|269=B|55=COFX INDEX|271=111200|290=1|10=143|
20150520-13:31:39.489: 8=FIX.4.4|9=161|35=X|34=172|49=BLODPENNA5|52=20150520-13:31:39.435|56=LVMDG|262=6aa8782a50e3436c|268=2|279=0|269=A|55=COFX INDEX|290=1|811=17.45|279=0|269=G|55=COFX INDEX|58= +|10=010|
20150520-13:31:39.513: 8=FIX.4.4|9=160|35=X|34=173|49=BLODPENNA5|52=20150520-13:31:39.466|56=LVMDG|262=6aa8782a50e3436c|268=2|279=0|269=A|55=COFX INDEX|290=1|811=16.8|279=0|269=G|55=COFX INDEX|58= +|10=220|
20150520-13:31:39.514: 8=FIX.4.4|9=131|35=X|34=174|49=BLODPENNA5|52=20150520-13:31:39.466|56=LVMDG|262=6aa8782a50e3436c|268=1|279=0|269=5|55=COFX INDEX|270=2501.75|290=1|10=198|
20150520-13:31:39.516: 8=FIX.4.4|9=130|35=X|34=175|49=BLODPENNA5|52=20150520-13:31:39.467|56=LVMDG|262=6aa8782a50e3436c|268=1|279=0|269=B|55=COFX INDEX|271=111450|290=1|10=159|
20150520-13:31:39.550: 8=FIX.4.4|9=161|35=X|34=176|49=BLODPENNA5|52=20150520-13:31:39.502|56=LVMDG|262=6aa8782a50e3436c|268=2|279=0|269=A|55=COFX INDEX|290=1|811=16.85|279=0|269=G|55=COFX INDEX|58= +|10=012|
20150520-13:31:39.550: 8=FIX.4.4|9=130|35=X|34=177|49=BLODPENNA5|52=20150520-13:31:39.502|56=LVMDG|262=6aa8782a50e3436c|268=1|279=0|269=B|55=COFX INDEX|271=111700|290=1|10=149|
20150520-13:31:39.552: 8=FIX.4.4|9=130|35=X|34=178|49=BLODPENNA5|52=20150520-13:31:39.503|56=LVMDG|262=6aa8782a50e3436c|268=1|279=0|269=5|55=COFX INDEX|270=2501.8|290=1|10=141|
20150520-13:31:39.586: 8=FIX.4.4|9=130|35=X|34=179|49=BLODPENNA5|52=20150520-13:31:39.537|56=LVMDG|262=6aa8782a50e3436c|268=1|279=0|269=5|55=COFX INDEX|270=2501.9|290=1|10=150|
20150520-13:31:39.586: 8=FIX.4.4|9=130|35=X|34=180|49=BLODPENNA5|52=20150520-13:31:39.537|56=LVMDG|262=6aa8782a50e3436c|268=1|279=0|269=B|55=COFX INDEX|271=111950|290=1|10=158|
20150520-13:31:39.586: 8=FIX.4.4|9=161|35=X|34=181|49=BLODPENNA5|52=20150520-13:31:39.538|56=LVMDG|262=6aa8782a50e3436c|268=2|279=0|269=A|55=COFX INDEX|290=1|811=16.95|279=0|269=G|55=COFX INDEX|58= +|10=018|
20150520-13:31:39.616: 8=FIX.4.4|9=130|35=X|34=182|49=BLODPENNA5|52=20150520-13:31:39.569|56=LVMDG|262=6aa8782a50e3436c|268=1|279=0|269=B|55=COFX INDEX|271=112200|290=1|10=154|
20150520-13:31:39.616: 8=FIX.4.4|9=161|35=X|34=183|49=BLODPENNA5|52=20150520-13:31:39.569|56=LVMDG|262=6aa8782a50e3436c|268=2|279=0|269=A|55=COFX INDEX|290=1|811=17.05|279=0|269=G|55=COFX INDEX|58= +|10=016|
20150520-13:31:39.617: 8=FIX.4.4|9=128|35=X|34=184|49=BLODPENNA5|52=20150520-13:31:39.570|56=LVMDG|262=6aa8782a50e3436c|268=1|279=0|269=5|55=COFX INDEX|270=2502|290=1|10=048|
20150520-13:31:39.713: 8=FIX.4.4|9=130|35=X|34=185|49=BLODPENNA5|52=20150520-13:31:39.666|56=LVMDG|262=6aa8782a50e3436c|268=1|279=0|269=B|55=COFX INDEX|271=112450|290=1|10=162|
20150520-13:31:39.713: 8=FIX.4.4|9=161|35=X|34=186|49=BLODPENNA5|52=20150520-13:31:39.666|56=LVMDG|262=6aa8782a50e3436c|268=2|279=0|269=A|55=COFX INDEX|290=1|811=18.05|279=0|269=G|55=COFX INDEX|58= +|10=018|
20150520-13:31:39.716: 8=FIX.4.4|9=128|35=X|34=187|49=BLODPENNA5|52=20150520-13:31:39.668|56=LVMDG|262=6aa8782a50e3436c|268=1|279=0|269=5|55=COFX INDEX|270=2503|290=1|10=060|
20150520-13:31:39.748: 8=FIX.4.4|9=161|35=X|34=188|49=BLODPENNA5|52=20150520-13:31:39.700|56=LVMDG|262=6aa8782a50e3436c|268=2|279=0|269=A|55=COFX INDEX|290=1|811=17.05|279=0|269=G|55=COFX INDEX|58= +|10=008|
20150520-13:31:39.748: 8=FIX.4.4|9=130|35=X|34=189|49=BLODPENNA5|52=20150520-13:31:39.701|56=LVMDG|262=6aa8782a50e3436c|268=1|279=0|269=B|55=COFX INDEX|271=112950|290=1|10=161|
20150520-13:31:39.748: 8=FIX.4.4|9=128|35=X|34=190|49=BLODPENNA5|52=20150520-13:31:39.701|56=LVMDG|262=6aa8782a50e3436c|268=1|279=0|269=5|55=COFX INDEX|270=2502|290=1|10=041|
20150520-13:31:39.779: 8=FIX.4.4|9=161|35=X|34=191|49=BLODPENNA5|52=20150520-13:31:39.732|56=LVMDG|262=6aa8782a50e3436c|268=2|279=0|269=A|55=COFX INDEX|290=1|811=16.05|279=0|269=G|55=COFX INDEX|58= +|10=006|
20150520-13:31:39.780: 8=FIX.4.4|9=130|35=X|34=192|49=BLODPENNA5|52=20150520-13:31:39.732|56=LVMDG|262=6aa8782a50e3436c|268=1|279=0|269=B|55=COFX INDEX|271=113200|290=1|10=148|
20150520-13:31:39.781: 8=FIX.4.4|9=128|35=X|34=193|49=BLODPENNA5|52=20150520-13:31:39.733|56=LVMDG|262=6aa8782a50e3436c|268=1|279=0|269=5|55=COFX INDEX|270=2501|290=1|10=048|
20150520-13:31:39.809: 8=FIX.4.4|9=130|35=X|34=194|49=BLODPENNA5|52=20150520-13:31:39.760|56=LVMDG|262=6aa8782a50e3436c|268=1|279=0|269=5|55=COFX INDEX|270=2501.5|290=1|10=141|
20150520-13:31:39.810: 8=FIX.4.4|9=161|35=X|34=195|49=BLODPENNA5|52=20150520-13:31:39.761|56=LVMDG|262=6aa8782a50e3436c|268=2|279=0|269=A|55=COFX INDEX|290=1|811=16.55|279=0|269=G|55=COFX INDEX|58= +|10=017|
20150520-13:31:39.810: 8=FIX.4.4|9=130|35=X|34=196|49=BLODPENNA5|52=20150520-13:31:39.761|56=LVMDG|262=6aa8782a50e3436c|268=1|279=0|269=B|55=COFX INDEX|271=113450|290=1|10=161|
20150520-13:31:39.841: 8=FIX.4.4|9=161|35=X|34=197|49=BLODPENNA5|52=20150520-13:31:39.794|56=LVMDG|262=6aa8782a50e3436c|268=2|279=0|269=A|55=COFX INDEX|290=1|811=18.05|279=0|269=G|55=COFX INDEX|58= +|10=022|
20150520-13:31:39.841: 8=FIX.4.4|9=128|35=X|34=198|49=BLODPENNA5|52=20150520-13:31:39.794|56=LVMDG|262=6aa8782a50e3436c|268=1|279=0|269=5|55=COFX INDEX|270=2503|290=1|10=062|
20150520-13:31:39.844: 8=FIX.4.4|9=130|35=X|34=199|49=BLODPENNA5|52=20150520-13:31:39.795|56=LVMDG|262=6aa8782a50e3436c|268=1|279=0|269=B|55=COFX INDEX|271=113700|290=1|10=169|
20150520-13:31:40.367: 8=FIX.4.4|9=130|35=X|34=200|49=BLODPENNA5|52=20150520-13:31:40.320|56=LVMDG|262=6aa8782a50e3436c|268=1|279=0|269=B|55=COFX INDEX|271=113950|290=1|10=135|
20150520-13:31:40.367: 8=FIX.4.4|9=161|35=X|34=201|49=BLODPENNA5|52=20150520-13:31:40.320|56=LVMDG|262=6aa8782a50e3436c|268=2|279=0|269=A|55=COFX INDEX|290=1|811=18.05|279=0|269=G|55=COFX INDEX|58= +|10=241|
20150520-13:31:40.687: 8=FIX.4.4|9=161|35=X|34=202|49=BLODPENNA5|52=20150520-13:31:40.639|56=LVMDG|262=6aa8782a50e3436c|268=2|279=0|269=A|55=COFX INDEX|290=1|811=19.55|279=0|269=G|55=COFX INDEX|58= +|10=005|
20150520-13:31:40.688: 8=FIX.4.4|9=130|35=X|34=203|49=BLODPENNA5|52=20150520-13:31:40.640|56=LVMDG|262=6aa8782a50e3436c|268=1|279=0|269=B|55=COFX INDEX|271=114200|290=1|10=132|
20150520-13:31:40.690: 8=FIX.4.4|9=130|35=X|34=204|49=BLODPENNA5|52=20150520-13:31:40.640|56=LVMDG|262=6aa8782a50e3436c|268=1|279=0|269=5|55=COFX INDEX|270=2504.5|290=1|10=125|
20150520-13:31:40.719: 8=FIX.4.4|9=130|35=X|34=205|49=BLODPENNA5|52=20150520-13:31:40.671|56=LVMDG|262=6aa8782a50e3436c|268=1|279=0|269=B|55=COFX INDEX|271=114700|290=1|10=143|
20150520-13:31:40.720: 8=FIX.4.4|9=161|35=X|34=206|49=BLODPENNA5|52=20150520-13:31:40.672|56=LVMDG|262=6aa8782a50e3436c|268=2|279=0|269=A|55=COFX INDEX|290=1|811=18.55|279=0|269=G|55=COFX INDEX|58= +|10=005|
20150520-13:31:40.720: 8=FIX.4.4|9=130|35=X|34=207|49=BLODPENNA5|52=20150520-13:31:40.672|56=LVMDG|262=6aa8782a50e3436c|268=1|279=0|269=5|55=COFX INDEX|270=2503.5|290=1|10=132|
20150520-13:31:40.750: 8=FIX.4.4|9=161|35=X|34=208|49=BLODPENNA5|52=20150520-13:31:40.702|56=LVMDG|262=6aa8782a50e3436c|268=2|279=0|269=A|55=COFX INDEX|290=1|811=18.05|279=0|269=G|55=COFX INDEX|58= +|10=252|
20150520-13:31:40.750: 8=FIX.4.4|9=130|35=X|34=209|49=BLODPENNA5|52=20150520-13:31:40.703|56=LVMDG|262=6aa8782a50e3436c|268=1|279=0|269=B|55=COFX INDEX|271=114950|290=1|10=150|
20150520-13:31:40.752: 8=FIX.4.4|9=128|35=X|34=210|49=BLODPENNA5|52=20150520-13:31:40.703|56=LVMDG|262=6aa8782a50e3436c|268=1|279=0|269=5|55=COFX INDEX|270=2503|290=1|10=029|
20150520-13:31:40.806: 8=FIX.4.4|9=130|35=X|34=211|49=BLODPENNA5|52=20150520-13:31:40.759|56=LVMDG|262=6aa8782a50e3436c|268=1|279=0|269=B|55=COFX INDEX|271=115200|290=1|10=143|
20150520-13:31:40.808: 8=FIX.4.4|9=161|35=X|34=212|49=BLODPENNA5|52=20150520-13:31:40.759|56=LVMDG|262=6aa8782a50e3436c|268=2|279=0|269=A|55=COFX INDEX|290=1|811=18.85|279=0|269=G|55=COFX INDEX|58= +|10=011|
20150520-13:31:40.808: 8=FIX.4.4|9=130|35=X|34=213|49=BLODPENNA5|52=20150520-13:31:40.759|56=LVMDG|262=6aa8782a50e3436c|268=1|279=0|269=5|55=COFX INDEX|270=2503.8|290=1|10=138|
20150520-13:31:40.840: 8=FIX.4.4|9=130|35=X|34=214|49=BLODPENNA5|52=20150520-13:31:40.793|56=LVMDG|262=6aa8782a50e3436c|268=1|279=0|269=B|55=COFX INDEX|271=115450|290=1|10=151|
20150520-13:31:40.841: 8=FIX.4.4|9=161|35=X|34=215|49=BLODPENNA5|52=20150520-13:31:40.793|56=LVMDG|262=6aa8782a50e3436c|268=2|279=0|269=A|55=COFX INDEX|290=1|811=19.05|279=0|269=G|55=COFX INDEX|58= +|10=005|
20150520-13:31:40.844: 8=FIX.4.4|9=128|35=X|34=216|49=BLODPENNA5|52=20150520-13:31:40.795|56=LVMDG|262=6aa8782a50e3436c|268=1|279=0|269=5|55=COFX INDEX|270=2504|290=1|10=047|
20150520-13:31:42.939: 8=FIX.4.4|9=161|35=X|34=217|49=BLODPENNA5|52=20150520-13:31:42.891|56=LVMDG|262=6aa8782a50e3436c|268=2|279=0|269=A|55=COFX INDEX|290=1|811=18.65|279=0|269=G|55=COFX INDEX|58= +|10=013|
20150520-13:31:42.939: 8=FIX.4.4|9=130|35=X|34=218|49=BLODPENNA5|52=20150520-13:31:42.892|56=LVMDG|262=6aa8782a50e3436c|268=1|279=0|269=B|55=COFX INDEX|271=115700|290=1|10=155|
20150520-13:31:42.940: 8=FIX.4.4|9=130|35=X|34=219|49=BLODPENNA5|52=20150520-13:31:42.892|56=LVMDG|262=6aa8782a50e3436c|268=1|279=0|269=5|55=COFX INDEX|270=2503.6|290=1|10=142|
20150520-13:31:42.940: 8=FIX.4.4|9=58|35=0|34=8|49=LVMDG|52=20150520-13:31:42.940|56=BLODPENNA5|10=028|
20150520-13:31:46.488: 8=FIX.4.4|9=161|35=X|34=220|49=BLODPENNA5|52=20150520-13:31:46.441|56=LVMDG|262=6aa8782a50e3436c|268=2|279=0|269=A|55=COFX INDEX|290=1|811=19.65|279=0|269=G|55=COFX INDEX|58= +|10=003|
20150520-13:31:46.488: 8=FIX.4.4|9=130|35=X|34=221|49=BLODPENNA5|52=20150520-13:31:46.441|56=LVMDG|262=6aa8782a50e3436c|268=1|279=0|269=B|55=COFX INDEX|271=116450|290=1|10=146|
20150520-13:31:46.489: 8=FIX.4.4|9=130|35=X|34=222|49=BLODPENNA5|52=20150520-13:31:46.441|56=LVMDG|262=6aa8782a50e3436c|268=1|279=0|269=5|55=COFX INDEX|270=2504.6|290=1|10=131|
20150520-13:31:46.520: 8=FIX.4.4|9=161|35=X|34=223|49=BLODPENNA5|52=20150520-13:31:46.473|56=LVMDG|262=6aa8782a50e3436c|268=2|279=0|269=A|55=COFX INDEX|290=1|811=19.55|279=0|269=G|55=COFX INDEX|58= +|10=010|
20150520-13:31:46.521: 8=FIX.4.4|9=130|35=X|34=224|49=BLODPENNA5|52=20150520-13:31:46.473|56=LVMDG|262=6aa8782a50e3436c|268=1|279=0|269=5|55=COFX INDEX|270=2504.5|290=1|10=137|
20150520-13:31:46.521: 8=FIX.4.4|9=130|35=X|34=225|49=BLODPENNA5|52=20150520-13:31:46.473|56=LVMDG|262=6aa8782a50e3436c|268=1|279=0|269=B|55=COFX INDEX|271=117700|290=1|10=154|
20150520-13:31:50.031: 8=FIX.4.4|9=161|35=X|34=226|49=BLODPENNA5|52=20150520-13:31:49.984|56=LVMDG|262=6aa8782a50e3436c|268=2|279=0|269=A|55=COFX INDEX|290=1|811=18.85|279=0|269=G|55=COFX INDEX|58= +|10=025|
20150520-13:31:50.032: 8=FIX.4.4|9=130|35=X|34=227|49=BLODPENNA5|52=20150520-13:31:49.985|56=LVMDG|262=6aa8782a50e3436c|268=1|279=0|269=B|55=COFX INDEX|271=117950|290=1|10=174|
20150520-13:31:50.032: 8=FIX.4.4|9=130|35=X|34=228|49=BLODPENNA5|52=20150520-13:31:49.985|56=LVMDG|262=6aa8782a50e3436c|268=1|279=0|269=5|55=COFX INDEX|270=2503.8|290=1|10=154|
20150520-13:32:16.879: 8=FIX.4.4|9=130|35=X|34=229|49=BLODPENNA5|52=20150520-13:32:16.833|56=LVMDG|262=6aa8782a50e3436c|268=1|279=0|269=B|55=COFX INDEX|271=118200|290=1|10=152|
20150520-13:32:16.880: 8=FIX.4.4|9=161|35=X|34=230|49=BLODPENNA5|52=20150520-13:32:16.834|56=LVMDG|262=6aa8782a50e3436c|268=2|279=0|269=A|55=COFX INDEX|290=1|811=17.05|279=0|269=G|55=COFX INDEX|58= +|10=000|
20150520-13:32:16.880: 8=FIX.4.4|9=128|35=X|34=231|49=BLODPENNA5|52=20150520-13:32:16.834|56=LVMDG|262=6aa8782a50e3436c|268=1|279=0|269=5|55=COFX INDEX|270=2502|290=1|10=040|
20150520-13:32:27.522: 8=FIX.4.4|9=130|35=X|34=232|49=BLODPENNA5|52=20150520-13:32:27.474|56=LVMDG|262=6aa8782a50e3436c|268=1|279=0|269=B|55=COFX INDEX|271=118450|290=1|10=156|
20150520-13:32:27.522: 8=FIX.4.4|9=161|35=X|34=233|49=BLODPENNA5|52=20150520-13:32:27.475|56=LVMDG|262=6aa8782a50e3436c|268=2|279=0|269=A|55=COFX INDEX|290=1|811=16.85|279=0|269=G|55=COFX INDEX|58= +|10=013|
20150520-13:32:27.523: 8=FIX.4.4|9=130|35=X|34=234|49=BLODPENNA5|52=20150520-13:32:27.475|56=LVMDG|262=6aa8782a50e3436c|268=1|279=0|269=5|55=COFX INDEX|270=2501.8|290=1|10=140|
20150520-13:32:29.023: 8=FIX.4.4|9=130|35=X|34=235|49=BLODPENNA5|52=20150520-13:32:28.977|56=LVMDG|262=6aa8782a50e3436c|268=1|279=0|269=B|55=COFX INDEX|271=118700|290=1|10=166|
20150520-13:32:29.024: 8=FIX.4.4|9=128|35=X|34=236|49=BLODPENNA5|52=20150520-13:32:28.977|56=LVMDG|262=6aa8782a50e3436c|268=1|279=0|269=5|55=COFX INDEX|270=2502|290=1|10=056|
20150520-13:32:29.025: 8=FIX.4.4|9=161|35=X|34=237|49=BLODPENNA5|52=20150520-13:32:28.978|56=LVMDG|262=6aa8782a50e3436c|268=2|279=0|269=A|55=COFX INDEX|290=1|811=17.05|279=0|269=G|55=COFX INDEX|58= +|10=019|
20150520-13:32:43.152: 8=FIX.4.4|9=58|35=0|34=9|49=LVMDG|52=20150520-13:32:43.152|56=BLODPENNA5|10=026|
20150520-13:33:06.073: 8=FIX.4.4|9=161|35=X|34=238|49=BLODPENNA5|52=20150520-13:33:06.027|56=LVMDG|262=6aa8782a50e3436c|268=2|279=0|269=A|55=COFX INDEX|290=1|811=15.25|279=0|269=G|55=COFX INDEX|58= +|10=002|
20150520-13:33:06.073: 8=FIX.4.4|9=130|35=X|34=239|49=BLODPENNA5|52=20150520-13:33:06.028|56=LVMDG|262=6aa8782a50e3436c|268=1|279=0|269=5|55=COFX INDEX|270=2500.2|290=1|10=130|
20150520-13:33:06.076: 8=FIX.4.4|9=130|35=X|34=240|49=BLODPENNA5|52=20150520-13:33:06.028|56=LVMDG|262=6aa8782a50e3436c|268=1|279=0|269=B|55=COFX INDEX|271=118950|290=1|10=153|
20150520-13:33:22.032: 8=FIX.4.4|9=130|35=X|34=241|49=BLODPENNA5|52=20150520-13:33:21.986|56=LVMDG|262=6aa8782a50e3436c|268=1|279=0|269=B|55=COFX INDEX|271=119200|290=1|10=153|
20150520-13:33:22.032: 8=FIX.4.4|9=161|35=X|34=242|49=BLODPENNA5|52=20150520-13:33:21.987|56=LVMDG|262=6aa8782a50e3436c|268=2|279=0|269=A|55=COFX INDEX|290=1|811=15.05|279=0|269=G|55=COFX INDEX|58= +|10=007|
20150520-13:33:22.033: 8=FIX.4.4|9=128|35=X|34=243|49=BLODPENNA5|52=20150520-13:33:21.988|56=LVMDG|262=6aa8782a50e3436c|268=1|279=0|269=5|55=COFX INDEX|270=2500|290=1|10=048|
20150520-13:33:22.529: 8=FIX.4.4|9=130|35=X|34=244|49=BLODPENNA5|52=20150520-13:33:22.482|56=LVMDG|262=6aa8782a50e3436c|268=1|279=0|269=B|55=COFX INDEX|271=119450|290=1|10=155|
20150520-13:33:22.529: 8=FIX.4.4|9=130|35=X|34=245|49=BLODPENNA5|52=20150520-13:33:22.483|56=LVMDG|262=6aa8782a50e3436c|268=1|279=0|269=5|55=COFX INDEX|270=2499.5|290=1|10=150|
20150520-13:33:22.529: 8=FIX.4.4|9=161|35=X|34=246|49=BLODPENNA5|52=20150520-13:33:22.483|56=LVMDG|262=6aa8782a50e3436c|268=2|279=0|269=A|55=COFX INDEX|290=1|811=14.55|279=0|269=G|55=COFX INDEX|58= +|10=007|
20150520-13:33:23.712: 8=FIX.4.4|9=130|35=X|34=247|49=BLODPENNA5|52=20150520-13:33:23.665|56=LVMDG|262=6aa8782a50e3436c|268=1|279=0|269=B|55=COFX INDEX|271=119700|290=1|10=160|
20150520-13:33:23.712: 8=FIX.4.4|9=130|35=X|34=248|49=BLODPENNA5|52=20150520-13:33:23.666|56=LVMDG|262=6aa8782a50e3436c|268=1|279=0|269=5|55=COFX INDEX|270=2499.2|290=1|10=154|
20150520-13:33:23.712: 8=FIX.4.4|9=161|35=X|34=249|49=BLODPENNA5|52=20150520-13:33:23.666|56=LVMDG|262=6aa8782a50e3436c|268=2|279=0|269=A|55=COFX INDEX|290=1|811=14.25|279=0|269=G|55=COFX INDEX|58= +|10=011|
20150520-13:33:44.152: 8=FIX.4.4|9=59|35=0|34=10|49=LVMDG|52=20150520-13:33:44.152|56=BLODPENNA5|10=069|
20150520-13:34:23.779: 8=FIX.4.4|9=60|35=0|34=250|49=BLODPENNA5|52=20150520-13:34:23.735|56=LVMDG|10=120|
20150520-13:34:42.183: 8=FIX.4.4|9=130|35=X|34=251|49=BLODPENNA5|52=20150520-13:34:42.139|56=LVMDG|262=6aa8782a50e3436c|268=1|279=0|269=B|55=COFX INDEX|271=120200|290=1|10=140|
20150520-13:34:42.188: 8=FIX.4.4|9=161|35=X|34=252|49=BLODPENNA5|52=20150520-13:34:42.139|56=LVMDG|262=6aa8782a50e3436c|268=2|279=0|269=A|55=COFX INDEX|290=1|811=17.05|279=0|269=G|55=COFX INDEX|58= +|10=003|
20150520-13:34:42.188: 8=FIX.4.4|9=128|35=X|34=253|49=BLODPENNA5|52=20150520-13:34:42.140|56=LVMDG|262=6aa8782a50e3436c|268=1|279=0|269=5|55=COFX INDEX|270=2502|290=1|10=035|
20150520-13:34:43.049: 8=FIX.4.4|9=161|35=X|34=254|49=BLODPENNA5|52=20150520-13:34:43.005|56=LVMDG|262=6aa8782a50e3436c|268=2|279=0|269=A|55=COFX INDEX|290=1|811=17.05|279=0|269=G|55=COFX INDEX|58= +|10=254|
20150520-13:34:43.050: 8=FIX.4.4|9=130|35=X|34=255|49=BLODPENNA5|52=20150520-13:34:43.006|56=LVMDG|262=6aa8782a50e3436c|268=1|279=0|269=B|55=COFX INDEX|271=120700|290=1|10=143|
20150520-13:34:43.344: 8=FIX.4.4|9=130|35=X|34=256|49=BLODPENNA5|52=20150520-13:34:43.301|56=LVMDG|262=6aa8782a50e3436c|268=1|279=0|269=B|55=COFX INDEX|271=121200|290=1|10=138|
20150520-13:34:43.345: 8=FIX.4.4|9=161|35=X|34=257|49=BLODPENNA5|52=20150520-13:34:43.302|56=LVMDG|262=6aa8782a50e3436c|268=2|279=0|269=A|55=COFX INDEX|290=1|811=17.05|279=0|269=G|55=COFX INDEX|58= +|10=001|
20150520-13:34:43.659: 8=FIX.4.4|9=161|35=X|34=258|49=BLODPENNA5|52=20150520-13:34:43.616|56=LVMDG|262=6aa8782a50e3436c|268=2|279=0|269=A|55=COFX INDEX|290=1|811=17.05|279=0|269=G|55=COFX INDEX|58= +|10=010|
20150520-13:34:43.660: 8=FIX.4.4|9=130|35=X|34=259|49=BLODPENNA5|52=20150520-13:34:43.617|56=LVMDG|262=6aa8782a50e3436c|268=1|279=0|269=B|55=COFX INDEX|271=121700|290=1|10=156|
20150520-13:34:45.151: 8=FIX.4.4|9=59|35=0|34=11|49=LVMDG|52=20150520-13:34:45.151|56=BLODPENNA5|10=071|
20150520-13:34:46.229: 8=FIX.4.4|9=130|35=X|34=260|49=BLODPENNA5|52=20150520-13:34:46.185|56=LVMDG|262=6aa8782a50e3436c|268=1|279=0|269=B|55=COFX INDEX|271=121950|290=1|10=158|
20150520-13:34:46.229: 8=FIX.4.4|9=130|35=X|34=261|49=BLODPENNA5|52=20150520-13:34:46.186|56=LVMDG|262=6aa8782a50e3436c|268=1|279=0|269=5|55=COFX INDEX|270=2502.3|290=1|10=138|
20150520-13:34:46.230: 8=FIX.4.4|9=161|35=X|34=262|49=BLODPENNA5|52=20150520-13:34:46.186|56=LVMDG|262=6aa8782a50e3436c|268=2|279=0|269=A|55=COFX INDEX|290=1|811=17.35|279=0|269=G|55=COFX INDEX|58= +|10=013|
20150520-13:34:46.517: 8=FIX.4.4|9=130|35=X|34=263|49=BLODPENNA5|52=20150520-13:34:46.473|56=LVMDG|262=6aa8782a50e3436c|268=1|279=0|269=B|55=COFX INDEX|271=122200|290=1|10=150|
20150520-13:34:46.517: 8=FIX.4.4|9=161|35=X|34=264|49=BLODPENNA5|52=20150520-13:34:46.474|56=LVMDG|262=6aa8782a50e3436c|268=2|279=0|269=A|55=COFX INDEX|290=1|811=17.35|279=0|269=G|55=COFX INDEX|58= +|10=015|
20150520-13:34:48.214: 8=FIX.4.4|9=130|35=X|34=265|49=BLODPENNA5|52=20150520-13:34:48.170|56=LVMDG|262=6aa8782a50e3436c|268=1|279=0|269=B|55=COFX INDEX|271=122450|290=1|10=155|
20150520-13:34:48.216: 8=FIX.4.4|9=161|35=X|34=266|49=BLODPENNA5|52=20150520-13:34:48.170|56=LVMDG|262=6aa8782a50e3436c|268=2|279=0|269=A|55=COFX INDEX|290=1|811=17.65|279=0|269=G|55=COFX INDEX|58= +|10=015|
20150520-13:34:48.216: 8=FIX.4.4|9=130|35=X|34=267|49=BLODPENNA5|52=20150520-13:34:48.171|56=LVMDG|262=6aa8782a50e3436c|268=1|279=0|269=5|55=COFX INDEX|270=2502.6|290=1|10=143|
20150520-13:34:49.247: 8=FIX.4.4|9=131|35=X|34=268|49=BLODPENNA5|52=20150520-13:34:49.203|56=LVMDG|262=6aa8782a50e3436c|268=1|279=0|269=5|55=COFX INDEX|270=2502.65|290=1|10=195|
20150520-13:34:49.248: 8=FIX.4.4|9=130|35=X|34=269|49=BLODPENNA5|52=20150520-13:34:49.204|56=LVMDG|262=6aa8782a50e3436c|268=1|279=0|269=B|55=COFX INDEX|271=122700|290=1|10=156|
20150520-13:34:49.248: 8=FIX.4.4|9=160|35=X|34=270|49=BLODPENNA5|52=20150520-13:34:49.205|56=LVMDG|262=6aa8782a50e3436c|268=2|279=0|269=A|55=COFX INDEX|290=1|811=17.7|279=0|269=G|55=COFX INDEX|58= +|10=213|
20150520-13:34:51.227: 8=FIX.4.4|9=130|35=X|34=271|49=BLODPENNA5|52=20150520-13:34:51.183|56=LVMDG|262=6aa8782a50e3436c|268=1|279=0|269=B|55=COFX INDEX|271=122950|290=1|10=155|
20150520-13:34:51.227: 8=FIX.4.4|9=161|35=X|34=272|49=BLODPENNA5|52=20150520-13:34:51.183|56=LVMDG|262=6aa8782a50e3436c|268=2|279=0|269=A|55=COFX INDEX|290=1|811=18.05|279=0|269=G|55=COFX INDEX|58= +|10=005|
20150520-13:34:51.228: 8=FIX.4.4|9=128|35=X|34=273|49=BLODPENNA5|52=20150520-13:34:51.184|56=LVMDG|262=6aa8782a50e3436c|268=1|279=0|269=5|55=COFX INDEX|270=2503|290=1|10=046|
20150520-13:34:53.326: 8=FIX.4.4|9=130|35=X|34=274|49=BLODPENNA5|52=20150520-13:34:53.283|56=LVMDG|262=6aa8782a50e3436c|268=1|279=0|269=B|55=COFX INDEX|271=123200|290=1|10=150|
20150520-13:34:53.328: 8=FIX.4.4|9=161|35=X|34=275|49=BLODPENNA5|52=20150520-13:34:53.283|56=LVMDG|262=6aa8782a50e3436c|268=2|279=0|269=A|55=COFX INDEX|290=1|811=19.05|279=0|269=G|55=COFX INDEX|58= +|10=012|
20150520-13:34:53.336: 8=FIX.4.4|9=128|35=X|34=276|49=BLODPENNA5|52=20150520-13:34:53.284|56=LVMDG|262=6aa8782a50e3436c|268=1|279=0|269=5|55=COFX INDEX|270=2504|290=1|10=053|
20150520-13:35:08.404: 8=FIX.4.4|9=130|35=X|34=277|49=BLODPENNA5|52=20150520-13:35:08.361|56=LVMDG|262=6aa8782a50e3436c|268=1|279=0|269=B|55=COFX INDEX|271=123700|290=1|10=156|
20150520-13:35:08.406: 8=FIX.4.4|9=161|35=X|34=278|49=BLODPENNA5|52=20150520-13:35:08.361|56=LVMDG|262=6aa8782a50e3436c|268=2|279=0|269=A|55=COFX INDEX|290=1|811=18.05|279=0|269=G|55=COFX INDEX|58= +|10=012|
20150520-13:35:08.408: 8=FIX.4.4|9=128|35=X|34=279|49=BLODPENNA5|52=20150520-13:35:08.362|56=LVMDG|262=6aa8782a50e3436c|268=1|279=0|269=5|55=COFX INDEX|270=2503|290=1|10=053|
20150520-13:35:27.268: 8=FIX.4.4|9=161|35=X|34=280|49=BLODPENNA5|52=20150520-13:35:27.225|56=LVMDG|262=6aa8782a50e3436c|268=2|279=0|269=A|55=COFX INDEX|290=1|811=18.05|279=0|269=G|55=COFX INDEX|58= +|10=005|
20150520-13:35:27.268: 8=FIX.4.4|9=130|35=X|34=281|49=BLODPENNA5|52=20150520-13:35:27.225|56=LVMDG|262=6aa8782a50e3436c|268=1|279=0|269=B|55=COFX INDEX|271=124200|290=1|10=147|
20150520-13:35:31.152: 8=FIX.4.4|9=158|35=X|34=282|49=BLODPENNA5|52=20150520-13:35:31.109|56=LVMDG|262=6aa8782a50e3436c|268=2|279=0|269=A|55=COFX INDEX|290=1|811=19|279=0|269=G|55=COFX INDEX|58= +|10=119|
20150520-13:35:31.152: 8=FIX.4.4|9=130|35=X|34=283|49=BLODPENNA5|52=20150520-13:35:31.109|56=LVMDG|262=6aa8782a50e3436c|268=1|279=0|269=B|55=COFX INDEX|271=124450|290=1|10=152|
20150520-13:35:31.153: 8=FIX.4.4|9=131|35=X|34=284|49=BLODPENNA5|52=20150520-13:35:31.109|56=LVMDG|262=6aa8782a50e3436c|268=1|279=0|269=5|55=COFX INDEX|270=2503.95|290=1|10=194|
20150520-13:35:32.722: 8=FIX.4.4|9=130|35=X|34=285|49=BLODPENNA5|52=20150520-13:35:32.679|56=LVMDG|262=6aa8782a50e3436c|268=1|279=0|269=B|55=COFX INDEX|271=124700|290=1|10=165|
20150520-13:35:32.722: 8=FIX.4.4|9=128|35=X|34=286|49=BLODPENNA5|52=20150520-13:35:32.679|56=LVMDG|262=6aa8782a50e3436c|268=1|279=0|269=5|55=COFX INDEX|270=2504|290=1|10=060|
20150520-13:35:32.724: 8=FIX.4.4|9=161|35=X|34=287|49=BLODPENNA5|52=20150520-13:35:32.681|56=LVMDG|262=6aa8782a50e3436c|268=2|279=0|269=A|55=COFX INDEX|290=1|811=19.05|279=0|269=G|55=COFX INDEX|58= +|10=015|
20150520-13:35:33.912: 8=FIX.4.4|9=161|35=X|34=288|49=BLODPENNA5|52=20150520-13:35:33.870|56=LVMDG|262=6aa8782a50e3436c|268=2|279=0|269=A|55=COFX INDEX|290=1|811=19.05|279=0|269=G|55=COFX INDEX|58= +|10=017|
20150520-13:35:33.912: 8=FIX.4.4|9=130|35=X|34=289|49=BLODPENNA5|52=20150520-13:35:33.870|56=LVMDG|262=6aa8782a50e3436c|268=1|279=0|269=B|55=COFX INDEX|271=125200|290=1|10=159|
20150520-13:35:34.746: 8=FIX.4.4|9=130|35=X|34=290|49=BLODPENNA5|52=20150520-13:35:34.703|56=LVMDG|262=6aa8782a50e3436c|268=1|279=0|269=B|55=COFX INDEX|271=125450|290=1|10=154|
20150520-13:35:34.746: 8=FIX.4.4|9=161|35=X|34=291|49=BLODPENNA5|52=20150520-13:35:34.704|56=LVMDG|262=6aa8782a50e3436c|268=2|279=0|269=A|55=COFX INDEX|290=1|811=19.85|279=0|269=G|55=COFX INDEX|58= +|10=016|
20150520-13:35:34.746: 8=FIX.4.4|9=130|35=X|34=292|49=BLODPENNA5|52=20150520-13:35:34.704|56=LVMDG|262=6aa8782a50e3436c|268=1|279=0|269=5|55=COFX INDEX|270=2504.8|290=1|10=143|
20150520-13:35:34.986: 8=FIX.4.4|9=130|35=X|34=293|49=BLODPENNA5|52=20150520-13:35:34.943|56=LVMDG|262=6aa8782a50e3436c|268=1|279=0|269=B|55=COFX INDEX|271=125700|290=1|10=161|
20150520-13:35:34.987: 8=FIX.4.4|9=130|35=X|34=294|49=BLODPENNA5|52=20150520-13:35:34.944|56=LVMDG|262=6aa8782a50e3436c|268=1|279=0|269=5|55=COFX INDEX|270=2505.5|290=1|10=149|
20150520-13:35:34.988: 8=FIX.4.4|9=161|35=X|34=295|49=BLODPENNA5|52=20150520-13:35:34.944|56=LVMDG|262=6aa8782a50e3436c|268=2|279=0|269=A|55=COFX INDEX|290=1|811=20.55|279=0|269=G|55=COFX INDEX|58= +|10=015|
20150520-13:35:35.024: 8=FIX.4.4|9=131|35=X|34=296|49=BLODPENNA5|52=20150520-13:35:34.979|56=LVMDG|262=6aa8782a50e3436c|268=1|279=0|269=5|55=COFX INDEX|270=2505.65|290=1|10=214|
20150520-13:35:35.024: 8=FIX.4.4|9=130|35=X|34=297|49=BLODPENNA5|52=20150520-13:35:34.980|56=LVMDG|262=6aa8782a50e3436c|268=1|279=0|269=B|55=COFX INDEX|271=126200|290=1|10=162|
20150520-13:35:35.029: 8=FIX.4.4|9=160|35=X|34=298|49=BLODPENNA5|52=20150520-13:35:34.985|56=LVMDG|262=6aa8782a50e3436c|268=2|279=0|269=A|55=COFX INDEX|290=1|811=20.7|279=0|269=G|55=COFX INDEX|58= +|10=227|
20150520-13:35:35.066: 8=FIX.4.4|9=161|35=X|34=299|49=BLODPENNA5|52=20150520-13:35:35.023|56=LVMDG|262=6aa8782a50e3436c|268=2|279=0|269=A|55=COFX INDEX|290=1|811=19.95|279=0|269=G|55=COFX INDEX|58= +|10=020|
20150520-13:35:35.066: 8=FIX.4.4|9=130|35=X|34=300|49=BLODPENNA5|52=20150520-13:35:35.024|56=LVMDG|262=6aa8782a50e3436c|268=1|279=0|269=5|55=COFX INDEX|270=2504.9|290=1|10=130|
20150520-13:35:35.068: 8=FIX.4.4|9=130|35=X|34=301|49=BLODPENNA5|52=20150520-13:35:35.024|56=LVMDG|262=6aa8782a50e3436c|268=1|279=0|269=B|55=COFX INDEX|271=126700|290=1|10=143|
20150520-13:35:35.092: 8=FIX.4.4|9=130|35=X|34=302|49=BLODPENNA5|52=20150520-13:35:35.049|56=LVMDG|262=6aa8782a50e3436c|268=1|279=0|269=B|55=COFX INDEX|271=127950|290=1|10=159|
20150520-13:35:35.092: 8=FIX.4.4|9=161|35=X|34=303|49=BLODPENNA5|52=20150520-13:35:35.050|56=LVMDG|262=6aa8782a50e3436c|268=2|279=0|269=A|55=COFX INDEX|290=1|811=21.35|279=0|269=G|55=COFX INDEX|58= +|10=249|
20150520-13:35:35.093: 8=FIX.4.4|9=130|35=X|34=304|49=BLODPENNA5|52=20150520-13:35:35.050|56=LVMDG|262=6aa8782a50e3436c|268=1|279=0|269=5|55=COFX INDEX|270=2506.3|290=1|10=129|
20150520-13:35:35.140: 8=FIX.4.4|9=130|35=X|34=305|49=BLODPENNA5|52=20150520-13:35:35.097|56=LVMDG|262=6aa8782a50e3436c|268=1|279=0|269=B|55=COFX INDEX|271=128450|290=1|10=161|
20150520-13:35:35.140: 8=FIX.4.4|9=161|35=X|34=306|49=BLODPENNA5|52=20150520-13:35:35.098|56=LVMDG|262=6aa8782a50e3436c|268=2|279=0|269=A|55=COFX INDEX|290=1|811=21.05|279=0|269=G|55=COFX INDEX|58= +|10=005|
20150520-13:35:35.141: 8=FIX.4.4|9=128|35=X|34=307|49=BLODPENNA5|52=20150520-13:35:35.098|56=LVMDG|262=6aa8782a50e3436c|268=1|279=0|269=5|55=COFX INDEX|270=2506|290=1|10=054|
20150520-13:35:35.201: 8=FIX.4.4|9=130|35=X|34=308|49=BLODPENNA5|52=20150520-13:35:35.156|56=LVMDG|262=6aa8782a50e3436c|268=1|279=0|269=B|55=COFX INDEX|271=128700|290=1|10=158|
20150520-13:35:35.204: 8=FIX.4.4|9=161|35=X|34=309|49=BLODPENNA5|52=20150520-13:35:35.156|56=LVMDG|262=6aa8782a50e3436c|268=2|279=0|269=A|55=COFX INDEX|290=1|811=20.75|279=0|269=G|55=COFX INDEX|58= +|10=009|
20150520-13:35:35.204: 8=FIX.4.4|9=130|35=X|34=310|49=BLODPENNA5|52=20150520-13:35:35.157|56=LVMDG|262=6aa8782a50e3436c|268=1|279=0|269=5|55=COFX INDEX|270=2505.7|290=1|10=137|
20150520-13:35:35.238: 8=FIX.4.4|9=128|35=X|34=311|49=BLODPENNA5|52=20150520-13:35:35.195|56=LVMDG|262=6aa8782a50e3436c|268=1|279=0|269=5|55=COFX INDEX|270=2506|290=1|10=047|
20150520-13:35:35.239: 8=FIX.4.4|9=130|35=X|34=312|49=BLODPENNA5|52=20150520-13:35:35.197|56=LVMDG|262=6aa8782a50e3436c|268=1|279=0|269=B|55=COFX INDEX|271=129200|290=1|10=154|
20150520-13:35:35.243: 8=FIX.4.4|9=161|35=X|34=313|49=BLODPENNA5|52=20150520-13:35:35.200|56=LVMDG|262=6aa8782a50e3436c|268=2|279=0|269=A|55=COFX INDEX|290=1|811=21.05|279=0|269=G|55=COFX INDEX|58= +|10=244|
20150520-13:35:35.269: 8=FIX.4.4|9=160|35=X|34=314|49=BLODPENNA5|52=20150520-13:35:35.226|56=LVMDG|262=6aa8782a50e3436c|268=2|279=0|269=A|55=COFX INDEX|290=1|811=21.8|279=0|269=G|55=COFX INDEX|58= +|10=207|
20150520-13:35:35.269: 8=FIX.4.4|9=130|35=X|34=315|49=BLODPENNA5|52=20150520-13:35:35.226|56=LVMDG|262=6aa8782a50e3436c|268=1|279=0|269=B|55=COFX INDEX|271=129700|290=1|10=155|
20150520-13:35:35.269: 8=FIX.4.4|9=131|35=X|34=316|49=BLODPENNA5|52=20150520-13:35:35.226|56=LVMDG|262=6aa8782a50e3436c|268=1|279=0|269=5|55=COFX INDEX|270=2506.75|290=1|10=195|
20150520-13:35:35.303: 8=FIX.4.4|9=130|35=X|34=317|49=BLODPENNA5|52=20150520-13:35:35.260|56=LVMDG|262=6aa8782a50e3436c|268=1|279=0|269=B|55=COFX INDEX|271=129950|290=1|10=162|
20150520-13:35:35.304: 8=FIX.4.4|9=161|35=X|34=318|49=BLODPENNA5|52=20150520-13:35:35.261|56=LVMDG|262=6aa8782a50e3436c|268=2|279=0|269=A|55=COFX INDEX|290=1|811=20.85|279=0|269=G|55=COFX INDEX|58= +|10=007|
20150520-13:35:35.305: 8=FIX.4.4|9=130|35=X|34=319|49=BLODPENNA5|52=20150520-13:35:35.261|56=LVMDG|262=6aa8782a50e3436c|268=1|279=0|269=5|55=COFX INDEX|270=2505.8|290=1|10=143|
20150520-13:35:35.388: 8=FIX.4.4|9=130|35=X|34=320|49=BLODPENNA5|52=20150520-13:35:35.344|56=LVMDG|262=6aa8782a50e3436c|268=1|279=0|269=5|55=COFX INDEX|270=2506.5|290=1|10=135|
20150520-13:35:35.388: 8=FIX.4.4|9=130|35=X|34=321|49=BLODPENNA5|52=20150520-13:35:35.345|56=LVMDG|262=6aa8782a50e3436c|268=1|279=0|269=B|55=COFX INDEX|271=130200|290=1|10=141|
20150520-13:35:35.392: 8=FIX.4.4|9=161|35=X|34=322|49=BLODPENNA5|52=20150520-13:35:35.346|56=LVMDG|262=6aa8782a50e3436c|268=2|279=0|269=A|55=COFX INDEX|290=1|811=21.55|279=0|269=G|55=COFX INDEX|58= +|10=004|
20150520-13:35:38.271: 8=FIX.4.4|9=161|35=X|34=323|49=BLODPENNA5|52=20150520-13:35:38.227|56=LVMDG|262=6aa8782a50e3436c|268=2|279=0|269=A|55=COFX INDEX|290=1|811=21.05|279=0|269=G|55=COFX INDEX|58= +|10=001|
20150520-13:35:38.271: 8=FIX.4.4|9=130|35=X|34=324|49=BLODPENNA5|52=20150520-13:35:38.228|56=LVMDG|262=6aa8782a50e3436c|268=1|279=0|269=B|55=COFX INDEX|271=130450|290=1|10=154|
20150520-13:35:38.273: 8=FIX.4.4|9=128|35=X|34=325|49=BLODPENNA5|52=20150520-13:35:38.229|56=LVMDG|262=6aa8782a50e3436c|268=1|279=0|269=5|55=COFX INDEX|270=2506|290=1|10=053|
20150520-13:35:45.151: 8=FIX.4.4|9=59|35=0|34=12|49=LVMDG|52=20150520-13:35:45.151|56=BLODPENNA5|10=073|
20150520-13:36:05.078: 8=FIX.4.4|9=161|35=X|34=326|49=BLODPENNA5|52=20150520-13:36:05.036|56=LVMDG|262=6aa8782a50e3436c|268=2|279=0|269=A|55=COFX INDEX|290=1|811=21.55|279=0|269=G|55=COFX INDEX|58= +|10=002|
20150520-13:36:05.078: 8=FIX.4.4|9=130|35=X|34=327|49=BLODPENNA5|52=20150520-13:36:05.036|56=LVMDG|262=6aa8782a50e3436c|268=1|279=0|269=B|55=COFX INDEX|271=130700|290=1|10=147|
20150520-13:36:05.080: 8=FIX.4.4|9=130|35=X|34=328|49=BLODPENNA5|52=20150520-13:36:05.038|56=LVMDG|262=6aa8782a50e3436c|268=1|279=0|269=5|55=COFX INDEX|270=2506.5|290=1|10=141|
