20150522-11:21:06.728: 8=FIX.4.4|9=69|35=5|34=1|49=LVBSG|52=20150522-11:21:06.728|56=ADR_ARBITRAGE_IB_XNYS|10=189|
20150522-11:21:06.733: 8=FIX.4.4|9=0163|35=5|49=ADR_ARBITRAGE_IB_XNYS|56=LVBSG|34=1|52=20150522-11:21:06|58=00100000004crxi_1891- CODE: 1-200-5: Expecting Logon but got Logout: disconnecting immediately|10=010|
20150522-11:21:07.716: 8=FIX.4.4|9=69|35=5|34=1|49=LVBSG|52=20150522-11:21:07.715|56=ADR_ARBITRAGE_IB_XNYS|10=186|
20150522-11:21:07.719: 8=FIX.4.4|9=0163|35=5|49=ADR_ARBITRAGE_IB_XNYS|56=LVBSG|34=2|52=20150522-11:21:07|58=00100000004crxi_1891- CODE: 1-200-5: Expecting Logon but got Logout: disconnecting immediately|10=012|
20150522-11:21:08.708: 8=FIX.4.4|9=87|35=A|34=1|49=LVBSG|52=20150522-11:21:08.707|56=ADR_ARBITRAGE_IB_XNYS|98=0|108=60|141=Y|10=017|
20150522-11:21:08.713: 8=FIX.4.4|9=0083|35=A|49=ADR_ARBITRAGE_IB_XNYS|56=LVBSG|34=1|52=20150522-11:21:08|98=0|108=60|141=Y|10=161|
20150522-11:21:48.331: 8=FIX.4.4|9=0093|35=1|49=ADR_ARBITRAGE_IB_XNYS|56=LVBSG|34=2|52=20150522-11:21:48|112=Appia-20150522-11:21:48|10=155|
20150522-11:21:48.333: 8=FIX.4.4|9=97|35=0|34=2|49=LVBSG|52=20150522-11:21:48.333|56=ADR_ARBITRAGE_IB_XNYS|112=Appia-20150522-11:21:48|10=005|
20150522-11:22:48.331: 8=FIX.4.4|9=0065|35=0|49=ADR_ARBITRAGE_IB_XNYS|56=LVBSG|34=3|52=20150522-11:22:48|10=078|
20150522-11:22:48.704: 8=FIX.4.4|9=69|35=0|34=3|49=LVBSG|52=20150522-11:22:48.703|56=ADR_ARBITRAGE_IB_XNYS|10=186|
20150522-11:23:48.331: 8=FIX.4.4|9=0065|35=0|49=ADR_ARBITRAGE_IB_XNYS|56=LVBSG|34=4|52=20150522-11:23:48|10=080|
20150522-11:23:48.703: 8=FIX.4.4|9=69|35=0|34=4|49=LVBSG|52=20150522-11:23:48.703|56=ADR_ARBITRAGE_IB_XNYS|10=188|
20150522-11:24:48.330: 8=FIX.4.4|9=0065|35=0|49=ADR_ARBITRAGE_IB_XNYS|56=LVBSG|34=5|52=20150522-11:24:48|10=082|
20150522-11:24:48.704: 8=FIX.4.4|9=69|35=0|34=5|49=LVBSG|52=20150522-11:24:48.704|56=ADR_ARBITRAGE_IB_XNYS|10=191|
20150522-11:25:48.331: 8=FIX.4.4|9=0065|35=0|49=ADR_ARBITRAGE_IB_XNYS|56=LVBSG|34=6|52=20150522-11:25:48|10=084|
20150522-11:25:49.704: 8=FIX.4.4|9=69|35=0|34=6|49=LVBSG|52=20150522-11:25:49.703|56=ADR_ARBITRAGE_IB_XNYS|10=193|
20150522-11:26:48.332: 8=FIX.4.4|9=0065|35=0|49=ADR_ARBITRAGE_IB_XNYS|56=LVBSG|34=7|52=20150522-11:26:48|10=086|
20150522-11:26:49.704: 8=FIX.4.4|9=69|35=0|34=7|49=LVBSG|52=20150522-11:26:49.704|56=ADR_ARBITRAGE_IB_XNYS|10=196|
20150522-11:27:48.331: 8=FIX.4.4|9=0065|35=0|49=ADR_ARBITRAGE_IB_XNYS|56=LVBSG|34=8|52=20150522-11:27:48|10=088|
20150522-11:27:49.704: 8=FIX.4.4|9=69|35=0|34=8|49=LVBSG|52=20150522-11:27:49.703|56=ADR_ARBITRAGE_IB_XNYS|10=197|
20150522-11:28:48.331: 8=FIX.4.4|9=0065|35=0|49=ADR_ARBITRAGE_IB_XNYS|56=LVBSG|34=9|52=20150522-11:28:48|10=090|
20150522-11:28:50.704: 8=FIX.4.4|9=69|35=0|34=9|49=LVBSG|52=20150522-11:28:50.703|56=ADR_ARBITRAGE_IB_XNYS|10=191|
20150522-11:29:48.336: 8=FIX.4.4|9=0066|35=0|49=ADR_ARBITRAGE_IB_XNYS|56=LVBSG|34=10|52=20150522-11:29:48|10=132|
20150522-11:29:51.704: 8=FIX.4.4|9=70|35=0|34=10|49=LVBSG|52=20150522-11:29:51.703|56=ADR_ARBITRAGE_IB_XNYS|10=225|
20150522-11:30:48.331: 8=FIX.4.4|9=0066|35=0|49=ADR_ARBITRAGE_IB_XNYS|56=LVBSG|34=11|52=20150522-11:30:48|10=125|
20150522-11:30:51.704: 8=FIX.4.4|9=70|35=0|34=11|49=LVBSG|52=20150522-11:30:51.703|56=ADR_ARBITRAGE_IB_XNYS|10=218|
20150522-11:31:48.331: 8=FIX.4.4|9=0066|35=0|49=ADR_ARBITRAGE_IB_XNYS|56=LVBSG|34=12|52=20150522-11:31:48|10=127|
20150522-11:31:51.704: 8=FIX.4.4|9=70|35=0|34=12|49=LVBSG|52=20150522-11:31:51.703|56=ADR_ARBITRAGE_IB_XNYS|10=220|
20150522-11:32:48.331: 8=FIX.4.4|9=0066|35=0|49=ADR_ARBITRAGE_IB_XNYS|56=LVBSG|34=13|52=20150522-11:32:48|10=129|
20150522-11:32:51.704: 8=FIX.4.4|9=70|35=0|34=13|49=LVBSG|52=20150522-11:32:51.703|56=ADR_ARBITRAGE_IB_XNYS|10=222|
20150522-11:33:48.331: 8=FIX.4.4|9=0066|35=0|49=ADR_ARBITRAGE_IB_XNYS|56=LVBSG|34=14|52=20150522-11:33:48|10=131|
20150522-11:33:51.704: 8=FIX.4.4|9=70|35=0|34=14|49=LVBSG|52=20150522-11:33:51.703|56=ADR_ARBITRAGE_IB_XNYS|10=224|
20150522-11:34:48.331: 8=FIX.4.4|9=0066|35=0|49=ADR_ARBITRAGE_IB_XNYS|56=LVBSG|34=15|52=20150522-11:34:48|10=133|
20150522-11:34:51.704: 8=FIX.4.4|9=70|35=0|34=15|49=LVBSG|52=20150522-11:34:51.703|56=ADR_ARBITRAGE_IB_XNYS|10=226|
20150522-11:35:48.331: 8=FIX.4.4|9=0066|35=0|49=ADR_ARBITRAGE_IB_XNYS|56=LVBSG|34=16|52=20150522-11:35:48|10=135|
20150522-11:35:52.703: 8=FIX.4.4|9=70|35=0|34=16|49=LVBSG|52=20150522-11:35:52.702|56=ADR_ARBITRAGE_IB_XNYS|10=228|
20150522-11:36:48.345: 8=FIX.4.4|9=0066|35=0|49=ADR_ARBITRAGE_IB_XNYS|56=LVBSG|34=17|52=20150522-11:36:48|10=137|
20150522-11:36:52.703: 8=FIX.4.4|9=70|35=0|34=17|49=LVBSG|52=20150522-11:36:52.703|56=ADR_ARBITRAGE_IB_XNYS|10=231|
20150522-11:37:48.335: 8=FIX.4.4|9=0066|35=0|49=ADR_ARBITRAGE_IB_XNYS|56=LVBSG|34=18|52=20150522-11:37:48|10=139|
20150522-11:37:52.703: 8=FIX.4.4|9=70|35=0|34=18|49=LVBSG|52=20150522-11:37:52.703|56=ADR_ARBITRAGE_IB_XNYS|10=233|
20150522-11:38:48.331: 8=FIX.4.4|9=0066|35=0|49=ADR_ARBITRAGE_IB_XNYS|56=LVBSG|34=19|52=20150522-11:38:48|10=141|
20150522-11:38:53.703: 8=FIX.4.4|9=70|35=0|34=19|49=LVBSG|52=20150522-11:38:53.703|56=ADR_ARBITRAGE_IB_XNYS|10=236|
20150522-11:39:48.332: 8=FIX.4.4|9=0066|35=0|49=ADR_ARBITRAGE_IB_XNYS|56=LVBSG|34=20|52=20150522-11:39:48|10=134|
20150522-11:39:54.703: 8=FIX.4.4|9=70|35=0|34=20|49=LVBSG|52=20150522-11:39:54.703|56=ADR_ARBITRAGE_IB_XNYS|10=230|
20150522-11:40:48.332: 8=FIX.4.4|9=0066|35=0|49=ADR_ARBITRAGE_IB_XNYS|56=LVBSG|34=21|52=20150522-11:40:48|10=127|
20150522-11:40:55.703: 8=FIX.4.4|9=70|35=0|34=21|49=LVBSG|52=20150522-11:40:55.703|56=ADR_ARBITRAGE_IB_XNYS|10=224|
20150522-11:41:48.332: 8=FIX.4.4|9=0066|35=0|49=ADR_ARBITRAGE_IB_XNYS|56=LVBSG|34=22|52=20150522-11:41:48|10=129|
20150522-11:41:56.702: 8=FIX.4.4|9=70|35=0|34=22|49=LVBSG|52=20150522-11:41:56.702|56=ADR_ARBITRAGE_IB_XNYS|10=226|
20150522-11:42:48.335: 8=FIX.4.4|9=0066|35=0|49=ADR_ARBITRAGE_IB_XNYS|56=LVBSG|34=23|52=20150522-11:42:48|10=131|
20150522-11:42:56.703: 8=FIX.4.4|9=70|35=0|34=23|49=LVBSG|52=20150522-11:42:56.702|56=ADR_ARBITRAGE_IB_XNYS|10=228|
20150522-11:43:48.341: 8=FIX.4.4|9=0066|35=0|49=ADR_ARBITRAGE_IB_XNYS|56=LVBSG|34=24|52=20150522-11:43:48|10=133|
20150522-11:43:56.704: 8=FIX.4.4|9=70|35=0|34=24|49=LVBSG|52=20150522-11:43:56.703|56=ADR_ARBITRAGE_IB_XNYS|10=231|
20150522-11:44:48.333: 8=FIX.4.4|9=0066|35=0|49=ADR_ARBITRAGE_IB_XNYS|56=LVBSG|34=25|52=20150522-11:44:48|10=135|
20150522-11:44:57.704: 8=FIX.4.4|9=70|35=0|34=25|49=LVBSG|52=20150522-11:44:57.703|56=ADR_ARBITRAGE_IB_XNYS|10=234|
20150522-11:45:48.336: 8=FIX.4.4|9=0066|35=0|49=ADR_ARBITRAGE_IB_XNYS|56=LVBSG|34=26|52=20150522-11:45:48|10=137|
20150522-11:45:57.704: 8=FIX.4.4|9=70|35=0|34=26|49=LVBSG|52=20150522-11:45:57.703|56=ADR_ARBITRAGE_IB_XNYS|10=236|
20150522-11:46:48.333: 8=FIX.4.4|9=0066|35=0|49=ADR_ARBITRAGE_IB_XNYS|56=LVBSG|34=27|52=20150522-11:46:48|10=139|
20150522-11:46:58.703: 8=FIX.4.4|9=70|35=0|34=27|49=LVBSG|52=20150522-11:46:58.703|56=ADR_ARBITRAGE_IB_XNYS|10=239|
20150522-11:47:48.334: 8=FIX.4.4|9=0066|35=0|49=ADR_ARBITRAGE_IB_XNYS|56=LVBSG|34=28|52=20150522-11:47:48|10=141|
20150522-11:47:59.703: 8=FIX.4.4|9=70|35=0|34=28|49=LVBSG|52=20150522-11:47:59.703|56=ADR_ARBITRAGE_IB_XNYS|10=242|
20150522-11:48:48.335: 8=FIX.4.4|9=0066|35=0|49=ADR_ARBITRAGE_IB_XNYS|56=LVBSG|34=29|52=20150522-11:48:48|10=143|
20150522-11:49:00.703: 8=FIX.4.4|9=70|35=0|34=29|49=LVBSG|52=20150522-11:49:00.703|56=ADR_ARBITRAGE_IB_XNYS|10=231|
20150522-11:49:48.334: 8=FIX.4.4|9=0066|35=0|49=ADR_ARBITRAGE_IB_XNYS|56=LVBSG|34=30|52=20150522-11:49:48|10=136|
20150522-11:50:00.703: 8=FIX.4.4|9=70|35=0|34=30|49=LVBSG|52=20150522-11:50:00.703|56=ADR_ARBITRAGE_IB_XNYS|10=215|
20150522-11:50:48.337: 8=FIX.4.4|9=0066|35=0|49=ADR_ARBITRAGE_IB_XNYS|56=LVBSG|34=31|52=20150522-11:50:48|10=129|
20150522-11:51:00.703: 8=FIX.4.4|9=70|35=0|34=31|49=LVBSG|52=20150522-11:51:00.703|56=ADR_ARBITRAGE_IB_XNYS|10=217|
20150522-11:51:48.344: 8=FIX.4.4|9=0066|35=0|49=ADR_ARBITRAGE_IB_XNYS|56=LVBSG|34=32|52=20150522-11:51:48|10=131|
20150522-11:52:00.703: 8=FIX.4.4|9=70|35=0|34=32|49=LVBSG|52=20150522-11:52:00.703|56=ADR_ARBITRAGE_IB_XNYS|10=219|
20150522-11:52:48.334: 8=FIX.4.4|9=0066|35=0|49=ADR_ARBITRAGE_IB_XNYS|56=LVBSG|34=33|52=20150522-11:52:48|10=133|
20150522-11:53:01.702: 8=FIX.4.4|9=70|35=0|34=33|49=LVBSG|52=20150522-11:53:01.702|56=ADR_ARBITRAGE_IB_XNYS|10=221|
20150522-11:53:48.335: 8=FIX.4.4|9=0066|35=0|49=ADR_ARBITRAGE_IB_XNYS|56=LVBSG|34=34|52=20150522-11:53:48|10=135|
20150522-11:54:01.702: 8=FIX.4.4|9=70|35=0|34=34|49=LVBSG|52=20150522-11:54:01.702|56=ADR_ARBITRAGE_IB_XNYS|10=223|
20150522-11:54:48.344: 8=FIX.4.4|9=0066|35=0|49=ADR_ARBITRAGE_IB_XNYS|56=LVBSG|34=35|52=20150522-11:54:48|10=137|
20150522-11:55:01.703: 8=FIX.4.4|9=70|35=0|34=35|49=LVBSG|52=20150522-11:55:01.703|56=ADR_ARBITRAGE_IB_XNYS|10=226|
20150522-11:55:48.335: 8=FIX.4.4|9=0066|35=0|49=ADR_ARBITRAGE_IB_XNYS|56=LVBSG|34=36|52=20150522-11:55:48|10=139|
20150522-11:56:02.703: 8=FIX.4.4|9=70|35=0|34=36|49=LVBSG|52=20150522-11:56:02.703|56=ADR_ARBITRAGE_IB_XNYS|10=229|
20150522-11:56:48.340: 8=FIX.4.4|9=0066|35=0|49=ADR_ARBITRAGE_IB_XNYS|56=LVBSG|34=37|52=20150522-11:56:48|10=141|
20150522-11:57:03.702: 8=FIX.4.4|9=70|35=0|34=37|49=LVBSG|52=20150522-11:57:03.702|56=ADR_ARBITRAGE_IB_XNYS|10=231|
20150522-11:57:48.339: 8=FIX.4.4|9=0066|35=0|49=ADR_ARBITRAGE_IB_XNYS|56=LVBSG|34=38|52=20150522-11:57:48|10=143|
20150522-11:58:03.703: 8=FIX.4.4|9=70|35=0|34=38|49=LVBSG|52=20150522-11:58:03.703|56=ADR_ARBITRAGE_IB_XNYS|10=234|
20150522-11:58:48.338: 8=FIX.4.4|9=0066|35=0|49=ADR_ARBITRAGE_IB_XNYS|56=LVBSG|34=39|52=20150522-11:58:48|10=145|
20150522-11:59:04.703: 8=FIX.4.4|9=70|35=0|34=39|49=LVBSG|52=20150522-11:59:04.702|56=ADR_ARBITRAGE_IB_XNYS|10=236|
20150522-11:59:48.348: 8=FIX.4.4|9=0066|35=0|49=ADR_ARBITRAGE_IB_XNYS|56=LVBSG|34=40|52=20150522-11:59:48|10=138|
20150522-12:00:04.703: 8=FIX.4.4|9=70|35=0|34=40|49=LVBSG|52=20150522-12:00:04.702|56=ADR_ARBITRAGE_IB_XNYS|10=215|
20150522-12:00:48.340: 8=FIX.4.4|9=0066|35=0|49=ADR_ARBITRAGE_IB_XNYS|56=LVBSG|34=41|52=20150522-12:00:48|10=126|
20150522-12:01:04.703: 8=FIX.4.4|9=70|35=0|34=41|49=LVBSG|52=20150522-12:01:04.702|56=ADR_ARBITRAGE_IB_XNYS|10=217|
20150522-12:01:48.347: 8=FIX.4.4|9=0066|35=0|49=ADR_ARBITRAGE_IB_XNYS|56=LVBSG|34=42|52=20150522-12:01:48|10=128|
20150522-12:02:04.703: 8=FIX.4.4|9=70|35=0|34=42|49=LVBSG|52=20150522-12:02:04.703|56=ADR_ARBITRAGE_IB_XNYS|10=220|
20150522-12:02:48.340: 8=FIX.4.4|9=0066|35=0|49=ADR_ARBITRAGE_IB_XNYS|56=LVBSG|34=43|52=20150522-12:02:48|10=130|
20150522-12:03:05.703: 8=FIX.4.4|9=70|35=0|34=43|49=LVBSG|52=20150522-12:03:05.702|56=ADR_ARBITRAGE_IB_XNYS|10=222|
20150522-12:03:48.342: 8=FIX.4.4|9=0066|35=0|49=ADR_ARBITRAGE_IB_XNYS|56=LVBSG|34=44|52=20150522-12:03:48|10=132|
20150522-12:04:05.702: 8=FIX.4.4|9=70|35=0|34=44|49=LVBSG|52=20150522-12:04:05.702|56=ADR_ARBITRAGE_IB_XNYS|10=224|
20150522-12:04:48.339: 8=FIX.4.4|9=0066|35=0|49=ADR_ARBITRAGE_IB_XNYS|56=LVBSG|34=45|52=20150522-12:04:48|10=134|
20150522-12:05:05.703: 8=FIX.4.4|9=70|35=0|34=45|49=LVBSG|52=20150522-12:05:05.702|56=ADR_ARBITRAGE_IB_XNYS|10=226|
20150522-12:05:48.340: 8=FIX.4.4|9=0066|35=0|49=ADR_ARBITRAGE_IB_XNYS|56=LVBSG|34=46|52=20150522-12:05:48|10=136|
20150522-12:06:05.702: 8=FIX.4.4|9=70|35=0|34=46|49=LVBSG|52=20150522-12:06:05.702|56=ADR_ARBITRAGE_IB_XNYS|10=228|
20150522-12:06:48.340: 8=FIX.4.4|9=0066|35=0|49=ADR_ARBITRAGE_IB_XNYS|56=LVBSG|34=47|52=20150522-12:06:48|10=138|
20150522-12:07:05.703: 8=FIX.4.4|9=70|35=0|34=47|49=LVBSG|52=20150522-12:07:05.703|56=ADR_ARBITRAGE_IB_XNYS|10=231|
20150522-12:07:48.339: 8=FIX.4.4|9=0066|35=0|49=ADR_ARBITRAGE_IB_XNYS|56=LVBSG|34=48|52=20150522-12:07:48|10=140|
20150522-12:08:06.703: 8=FIX.4.4|9=70|35=0|34=48|49=LVBSG|52=20150522-12:08:06.703|56=ADR_ARBITRAGE_IB_XNYS|10=234|
20150522-12:08:48.340: 8=FIX.4.4|9=0066|35=0|49=ADR_ARBITRAGE_IB_XNYS|56=LVBSG|34=49|52=20150522-12:08:48|10=142|
20150522-12:09:07.703: 8=FIX.4.4|9=70|35=0|34=49|49=LVBSG|52=20150522-12:09:07.703|56=ADR_ARBITRAGE_IB_XNYS|10=237|
20150522-12:09:48.340: 8=FIX.4.4|9=0066|35=0|49=ADR_ARBITRAGE_IB_XNYS|56=LVBSG|34=50|52=20150522-12:09:48|10=135|
20150522-12:10:08.703: 8=FIX.4.4|9=70|35=0|34=50|49=LVBSG|52=20150522-12:10:08.702|56=ADR_ARBITRAGE_IB_XNYS|10=221|
20150522-12:10:48.340: 8=FIX.4.4|9=0066|35=0|49=ADR_ARBITRAGE_IB_XNYS|56=LVBSG|34=51|52=20150522-12:10:48|10=128|
20150522-12:11:08.702: 8=FIX.4.4|9=70|35=0|34=51|49=LVBSG|52=20150522-12:11:08.702|56=ADR_ARBITRAGE_IB_XNYS|10=223|
20150522-12:11:48.340: 8=FIX.4.4|9=0066|35=0|49=ADR_ARBITRAGE_IB_XNYS|56=LVBSG|34=52|52=20150522-12:11:48|10=130|
20150522-12:12:08.703: 8=FIX.4.4|9=70|35=0|34=52|49=LVBSG|52=20150522-12:12:08.702|56=ADR_ARBITRAGE_IB_XNYS|10=225|
20150522-12:12:48.340: 8=FIX.4.4|9=0066|35=0|49=ADR_ARBITRAGE_IB_XNYS|56=LVBSG|34=53|52=20150522-12:12:48|10=132|
20150522-12:13:08.702: 8=FIX.4.4|9=70|35=0|34=53|49=LVBSG|52=20150522-12:13:08.702|56=ADR_ARBITRAGE_IB_XNYS|10=227|
20150522-12:13:48.341: 8=FIX.4.4|9=0066|35=0|49=ADR_ARBITRAGE_IB_XNYS|56=LVBSG|34=54|52=20150522-12:13:48|10=134|
20150522-12:14:08.702: 8=FIX.4.4|9=70|35=0|34=54|49=LVBSG|52=20150522-12:14:08.702|56=ADR_ARBITRAGE_IB_XNYS|10=229|
20150522-12:14:48.340: 8=FIX.4.4|9=0066|35=0|49=ADR_ARBITRAGE_IB_XNYS|56=LVBSG|34=55|52=20150522-12:14:48|10=136|
20150522-12:15:08.703: 8=FIX.4.4|9=70|35=0|34=55|49=LVBSG|52=20150522-12:15:08.702|56=ADR_ARBITRAGE_IB_XNYS|10=231|
20150522-12:15:48.340: 8=FIX.4.4|9=0066|35=0|49=ADR_ARBITRAGE_IB_XNYS|56=LVBSG|34=56|52=20150522-12:15:48|10=138|
20150522-12:16:08.702: 8=FIX.4.4|9=70|35=0|34=56|49=LVBSG|52=20150522-12:16:08.702|56=ADR_ARBITRAGE_IB_XNYS|10=233|
20150522-12:16:48.369: 8=FIX.4.4|9=0066|35=0|49=ADR_ARBITRAGE_IB_XNYS|56=LVBSG|34=57|52=20150522-12:16:48|10=140|
20150522-12:17:08.702: 8=FIX.4.4|9=70|35=0|34=57|49=LVBSG|52=20150522-12:17:08.702|56=ADR_ARBITRAGE_IB_XNYS|10=235|
20150522-12:17:48.342: 8=FIX.4.4|9=0066|35=0|49=ADR_ARBITRAGE_IB_XNYS|56=LVBSG|34=58|52=20150522-12:17:48|10=142|
20150522-12:18:08.702: 8=FIX.4.4|9=70|35=0|34=58|49=LVBSG|52=20150522-12:18:08.702|56=ADR_ARBITRAGE_IB_XNYS|10=237|
20150522-12:18:48.343: 8=FIX.4.4|9=0066|35=0|49=ADR_ARBITRAGE_IB_XNYS|56=LVBSG|34=59|52=20150522-12:18:48|10=144|
20150522-12:19:08.702: 8=FIX.4.4|9=70|35=0|34=59|49=LVBSG|52=20150522-12:19:08.702|56=ADR_ARBITRAGE_IB_XNYS|10=239|
20150522-12:19:48.342: 8=FIX.4.4|9=0066|35=0|49=ADR_ARBITRAGE_IB_XNYS|56=LVBSG|34=60|52=20150522-12:19:48|10=137|
20150522-12:20:08.703: 8=FIX.4.4|9=70|35=0|34=60|49=LVBSG|52=20150522-12:20:08.703|56=ADR_ARBITRAGE_IB_XNYS|10=224|
20150522-12:20:48.342: 8=FIX.4.4|9=0066|35=0|49=ADR_ARBITRAGE_IB_XNYS|56=LVBSG|34=61|52=20150522-12:20:48|10=130|
20150522-12:21:09.702: 8=FIX.4.4|9=70|35=0|34=61|49=LVBSG|52=20150522-12:21:09.702|56=ADR_ARBITRAGE_IB_XNYS|10=226|
20150522-12:21:48.343: 8=FIX.4.4|9=0066|35=0|49=ADR_ARBITRAGE_IB_XNYS|56=LVBSG|34=62|52=20150522-12:21:48|10=132|
20150522-12:22:09.703: 8=FIX.4.4|9=70|35=0|34=62|49=LVBSG|52=20150522-12:22:09.703|56=ADR_ARBITRAGE_IB_XNYS|10=229|
20150522-12:22:48.344: 8=FIX.4.4|9=0066|35=0|49=ADR_ARBITRAGE_IB_XNYS|56=LVBSG|34=63|52=20150522-12:22:48|10=134|
20150522-12:23:10.703: 8=FIX.4.4|9=70|35=0|34=63|49=LVBSG|52=20150522-12:23:10.703|56=ADR_ARBITRAGE_IB_XNYS|10=223|
20150522-12:23:48.344: 8=FIX.4.4|9=0066|35=0|49=ADR_ARBITRAGE_IB_XNYS|56=LVBSG|34=64|52=20150522-12:23:48|10=136|
20150522-12:24:11.703: 8=FIX.4.4|9=70|35=0|34=64|49=LVBSG|52=20150522-12:24:11.703|56=ADR_ARBITRAGE_IB_XNYS|10=226|
20150522-12:24:48.345: 8=FIX.4.4|9=0066|35=0|49=ADR_ARBITRAGE_IB_XNYS|56=LVBSG|34=65|52=20150522-12:24:48|10=138|
20150522-12:25:11.703: 8=FIX.4.4|9=70|35=0|34=65|49=LVBSG|52=20150522-12:25:11.703|56=ADR_ARBITRAGE_IB_XNYS|10=228|
20150522-12:25:48.345: 8=FIX.4.4|9=0066|35=0|49=ADR_ARBITRAGE_IB_XNYS|56=LVBSG|34=66|52=20150522-12:25:48|10=140|
20150522-12:26:12.702: 8=FIX.4.4|9=70|35=0|34=66|49=LVBSG|52=20150522-12:26:12.702|56=ADR_ARBITRAGE_IB_XNYS|10=230|
20150522-12:26:48.346: 8=FIX.4.4|9=0066|35=0|49=ADR_ARBITRAGE_IB_XNYS|56=LVBSG|34=67|52=20150522-12:26:48|10=142|
20150522-12:27:12.702: 8=FIX.4.4|9=70|35=0|34=67|49=LVBSG|52=20150522-12:27:12.702|56=ADR_ARBITRAGE_IB_XNYS|10=232|
20150522-12:27:48.345: 8=FIX.4.4|9=0066|35=0|49=ADR_ARBITRAGE_IB_XNYS|56=LVBSG|34=68|52=20150522-12:27:48|10=144|
20150522-12:28:12.702: 8=FIX.4.4|9=70|35=0|34=68|49=LVBSG|52=20150522-12:28:12.702|56=ADR_ARBITRAGE_IB_XNYS|10=234|
20150522-12:28:48.346: 8=FIX.4.4|9=0066|35=0|49=ADR_ARBITRAGE_IB_XNYS|56=LVBSG|34=69|52=20150522-12:28:48|10=146|
20150522-12:29:12.703: 8=FIX.4.4|9=70|35=0|34=69|49=LVBSG|52=20150522-12:29:12.703|56=ADR_ARBITRAGE_IB_XNYS|10=237|
20150522-12:29:48.354: 8=FIX.4.4|9=0066|35=0|49=ADR_ARBITRAGE_IB_XNYS|56=LVBSG|34=70|52=20150522-12:29:48|10=139|
20150522-12:30:13.703: 8=FIX.4.4|9=70|35=0|34=70|49=LVBSG|52=20150522-12:30:13.703|56=ADR_ARBITRAGE_IB_XNYS|10=222|
20150522-12:30:48.351: 8=FIX.4.4|9=0066|35=0|49=ADR_ARBITRAGE_IB_XNYS|56=LVBSG|34=71|52=20150522-12:30:48|10=132|
20150522-12:31:14.702: 8=FIX.4.4|9=70|35=0|34=71|49=LVBSG|52=20150522-12:31:14.702|56=ADR_ARBITRAGE_IB_XNYS|10=224|
20150522-12:31:48.347: 8=FIX.4.4|9=0066|35=0|49=ADR_ARBITRAGE_IB_XNYS|56=LVBSG|34=72|52=20150522-12:31:48|10=134|
20150522-12:32:14.703: 8=FIX.4.4|9=70|35=0|34=72|49=LVBSG|52=20150522-12:32:14.703|56=ADR_ARBITRAGE_IB_XNYS|10=227|
20150522-12:32:48.353: 8=FIX.4.4|9=0066|35=0|49=ADR_ARBITRAGE_IB_XNYS|56=LVBSG|34=73|52=20150522-12:32:48|10=136|
20150522-12:33:15.703: 8=FIX.4.4|9=70|35=0|34=73|49=LVBSG|52=20150522-12:33:15.702|56=ADR_ARBITRAGE_IB_XNYS|10=229|
20150522-12:33:48.349: 8=FIX.4.4|9=0066|35=0|49=ADR_ARBITRAGE_IB_XNYS|56=LVBSG|34=74|52=20150522-12:33:48|10=138|
20150522-12:34:15.703: 8=FIX.4.4|9=70|35=0|34=74|49=LVBSG|52=20150522-12:34:15.702|56=ADR_ARBITRAGE_IB_XNYS|10=231|
20150522-12:34:48.351: 8=FIX.4.4|9=0066|35=0|49=ADR_ARBITRAGE_IB_XNYS|56=LVBSG|34=75|52=20150522-12:34:48|10=140|
20150522-12:35:15.703: 8=FIX.4.4|9=70|35=0|34=75|49=LVBSG|52=20150522-12:35:15.702|56=ADR_ARBITRAGE_IB_XNYS|10=233|
20150522-12:35:48.353: 8=FIX.4.4|9=0066|35=0|49=ADR_ARBITRAGE_IB_XNYS|56=LVBSG|34=76|52=20150522-12:35:48|10=142|
20150522-12:36:15.702: 8=FIX.4.4|9=70|35=0|34=76|49=LVBSG|52=20150522-12:36:15.702|56=ADR_ARBITRAGE_IB_XNYS|10=235|
20150522-12:36:48.349: 8=FIX.4.4|9=0066|35=0|49=ADR_ARBITRAGE_IB_XNYS|56=LVBSG|34=77|52=20150522-12:36:48|10=144|
20150522-12:37:15.702: 8=FIX.4.4|9=70|35=0|34=77|49=LVBSG|52=20150522-12:37:15.702|56=ADR_ARBITRAGE_IB_XNYS|10=237|
20150522-12:37:48.351: 8=FIX.4.4|9=0066|35=0|49=ADR_ARBITRAGE_IB_XNYS|56=LVBSG|34=78|52=20150522-12:37:48|10=146|
20150522-12:38:15.703: 8=FIX.4.4|9=70|35=0|34=78|49=LVBSG|52=20150522-12:38:15.702|56=ADR_ARBITRAGE_IB_XNYS|10=239|
20150522-12:38:48.353: 8=FIX.4.4|9=0066|35=0|49=ADR_ARBITRAGE_IB_XNYS|56=LVBSG|34=79|52=20150522-12:38:48|10=148|
20150522-12:39:15.702: 8=FIX.4.4|9=70|35=0|34=79|49=LVBSG|52=20150522-12:39:15.702|56=ADR_ARBITRAGE_IB_XNYS|10=241|
20150522-12:39:48.351: 8=FIX.4.4|9=0066|35=0|49=ADR_ARBITRAGE_IB_XNYS|56=LVBSG|34=80|52=20150522-12:39:48|10=141|
20150522-12:40:15.703: 8=FIX.4.4|9=70|35=0|34=80|49=LVBSG|52=20150522-12:40:15.703|56=ADR_ARBITRAGE_IB_XNYS|10=226|
20150522-12:40:48.351: 8=FIX.4.4|9=0066|35=0|49=ADR_ARBITRAGE_IB_XNYS|56=LVBSG|34=81|52=20150522-12:40:48|10=134|
20150522-12:41:15.703: 8=FIX.4.4|9=70|35=0|34=81|49=LVBSG|52=20150522-12:41:15.703|56=ADR_ARBITRAGE_IB_XNYS|10=228|
20150522-12:41:48.354: 8=FIX.4.4|9=0066|35=0|49=ADR_ARBITRAGE_IB_XNYS|56=LVBSG|34=82|52=20150522-12:41:48|10=136|
20150522-12:42:15.702: 8=FIX.4.4|9=70|35=0|34=82|49=LVBSG|52=20150522-12:42:15.702|56=ADR_ARBITRAGE_IB_XNYS|10=229|
20150522-12:42:48.352: 8=FIX.4.4|9=0066|35=0|49=ADR_ARBITRAGE_IB_XNYS|56=LVBSG|34=83|52=20150522-12:42:48|10=138|
20150522-12:43:15.703: 8=FIX.4.4|9=70|35=0|34=83|49=LVBSG|52=20150522-12:43:15.702|56=ADR_ARBITRAGE_IB_XNYS|10=231|
20150522-12:43:48.355: 8=FIX.4.4|9=0066|35=0|49=ADR_ARBITRAGE_IB_XNYS|56=LVBSG|34=84|52=20150522-12:43:48|10=140|
20150522-12:44:15.703: 8=FIX.4.4|9=70|35=0|34=84|49=LVBSG|52=20150522-12:44:15.702|56=ADR_ARBITRAGE_IB_XNYS|10=233|
20150522-12:44:48.352: 8=FIX.4.4|9=0066|35=0|49=ADR_ARBITRAGE_IB_XNYS|56=LVBSG|34=85|52=20150522-12:44:48|10=142|
20150522-12:45:15.703: 8=FIX.4.4|9=70|35=0|34=85|49=LVBSG|52=20150522-12:45:15.702|56=ADR_ARBITRAGE_IB_XNYS|10=235|
20150522-12:45:48.353: 8=FIX.4.4|9=0066|35=0|49=ADR_ARBITRAGE_IB_XNYS|56=LVBSG|34=86|52=20150522-12:45:48|10=144|
20150522-12:46:15.702: 8=FIX.4.4|9=70|35=0|34=86|49=LVBSG|52=20150522-12:46:15.702|56=ADR_ARBITRAGE_IB_XNYS|10=237|
20150522-12:46:48.355: 8=FIX.4.4|9=0066|35=0|49=ADR_ARBITRAGE_IB_XNYS|56=LVBSG|34=87|52=20150522-12:46:48|10=146|
20150522-12:47:15.703: 8=FIX.4.4|9=70|35=0|34=87|49=LVBSG|52=20150522-12:47:15.702|56=ADR_ARBITRAGE_IB_XNYS|10=239|
20150522-12:47:48.355: 8=FIX.4.4|9=0066|35=0|49=ADR_ARBITRAGE_IB_XNYS|56=LVBSG|34=88|52=20150522-12:47:48|10=148|
20150522-12:48:15.702: 8=FIX.4.4|9=70|35=0|34=88|49=LVBSG|52=20150522-12:48:15.702|56=ADR_ARBITRAGE_IB_XNYS|10=241|
20150522-12:48:48.375: 8=FIX.4.4|9=0066|35=0|49=ADR_ARBITRAGE_IB_XNYS|56=LVBSG|34=89|52=20150522-12:48:48|10=150|
20150522-12:49:15.703: 8=FIX.4.4|9=70|35=0|34=89|49=LVBSG|52=20150522-12:49:15.703|56=ADR_ARBITRAGE_IB_XNYS|10=244|
20150522-12:49:48.355: 8=FIX.4.4|9=0066|35=0|49=ADR_ARBITRAGE_IB_XNYS|56=LVBSG|34=90|52=20150522-12:49:48|10=143|
20150522-12:50:16.703: 8=FIX.4.4|9=70|35=0|34=90|49=LVBSG|52=20150522-12:50:16.703|56=ADR_ARBITRAGE_IB_XNYS|10=229|
20150522-12:50:48.357: 8=FIX.4.4|9=0066|35=0|49=ADR_ARBITRAGE_IB_XNYS|56=LVBSG|34=91|52=20150522-12:50:48|10=136|
20150522-12:51:16.703: 8=FIX.4.4|9=70|35=0|34=91|49=LVBSG|52=20150522-12:51:16.703|56=ADR_ARBITRAGE_IB_XNYS|10=231|
20150522-12:51:48.356: 8=FIX.4.4|9=0066|35=0|49=ADR_ARBITRAGE_IB_XNYS|56=LVBSG|34=92|52=20150522-12:51:48|10=138|
20150522-12:52:16.703: 8=FIX.4.4|9=70|35=0|34=92|49=LVBSG|52=20150522-12:52:16.703|56=ADR_ARBITRAGE_IB_XNYS|10=233|
20150522-12:52:48.356: 8=FIX.4.4|9=0066|35=0|49=ADR_ARBITRAGE_IB_XNYS|56=LVBSG|34=93|52=20150522-12:52:48|10=140|
20150522-12:53:17.703: 8=FIX.4.4|9=70|35=0|34=93|49=LVBSG|52=20150522-12:53:17.703|56=ADR_ARBITRAGE_IB_XNYS|10=236|
20150522-12:53:48.356: 8=FIX.4.4|9=0066|35=0|49=ADR_ARBITRAGE_IB_XNYS|56=LVBSG|34=94|52=20150522-12:53:48|10=142|
20150522-12:54:17.703: 8=FIX.4.4|9=70|35=0|34=94|49=LVBSG|52=20150522-12:54:17.703|56=ADR_ARBITRAGE_IB_XNYS|10=238|
20150522-12:54:48.367: 8=FIX.4.4|9=0066|35=0|49=ADR_ARBITRAGE_IB_XNYS|56=LVBSG|34=95|52=20150522-12:54:48|10=144|
20150522-12:55:17.703: 8=FIX.4.4|9=70|35=0|34=95|49=LVBSG|52=20150522-12:55:17.703|56=ADR_ARBITRAGE_IB_XNYS|10=240|
20150522-12:55:48.363: 8=FIX.4.4|9=0066|35=0|49=ADR_ARBITRAGE_IB_XNYS|56=LVBSG|34=96|52=20150522-12:55:48|10=146|
20150522-12:56:17.703: 8=FIX.4.4|9=70|35=0|34=96|49=LVBSG|52=20150522-12:56:17.703|56=ADR_ARBITRAGE_IB_XNYS|10=242|
20150522-12:56:48.358: 8=FIX.4.4|9=0066|35=0|49=ADR_ARBITRAGE_IB_XNYS|56=LVBSG|34=97|52=20150522-12:56:48|10=148|
20150522-12:57:18.702: 8=FIX.4.4|9=70|35=0|34=97|49=LVBSG|52=20150522-12:57:18.702|56=ADR_ARBITRAGE_IB_XNYS|10=244|
20150522-12:57:48.359: 8=FIX.4.4|9=0066|35=0|49=ADR_ARBITRAGE_IB_XNYS|56=LVBSG|34=98|52=20150522-12:57:48|10=150|
20150522-12:58:18.702: 8=FIX.4.4|9=70|35=0|34=98|49=LVBSG|52=20150522-12:58:18.702|56=ADR_ARBITRAGE_IB_XNYS|10=246|
20150522-12:58:48.358: 8=FIX.4.4|9=0066|35=0|49=ADR_ARBITRAGE_IB_XNYS|56=LVBSG|34=99|52=20150522-12:58:48|10=152|
20150522-12:59:18.703: 8=FIX.4.4|9=70|35=0|34=99|49=LVBSG|52=20150522-12:59:18.703|56=ADR_ARBITRAGE_IB_XNYS|10=249|
20150522-12:59:48.357: 8=FIX.4.4|9=0067|35=0|49=ADR_ARBITRAGE_IB_XNYS|56=LVBSG|34=100|52=20150522-12:59:48|10=185|
20150522-13:00:18.703: 8=FIX.4.4|9=71|35=0|34=100|49=LVBSG|52=20150522-13:00:18.703|56=ADR_ARBITRAGE_IB_XNYS|10=012|
20150522-13:00:48.359: 8=FIX.4.4|9=0067|35=0|49=ADR_ARBITRAGE_IB_XNYS|56=LVBSG|34=101|52=20150522-13:00:48|10=173|
20150522-13:01:19.702: 8=FIX.4.4|9=71|35=0|34=101|49=LVBSG|52=20150522-13:01:19.702|56=ADR_ARBITRAGE_IB_XNYS|10=014|
20150522-13:01:48.358: 8=FIX.4.4|9=0067|35=0|49=ADR_ARBITRAGE_IB_XNYS|56=LVBSG|34=102|52=20150522-13:01:48|10=175|
20150522-13:02:19.703: 8=FIX.4.4|9=71|35=0|34=102|49=LVBSG|52=20150522-13:02:19.703|56=ADR_ARBITRAGE_IB_XNYS|10=017|
20150522-13:02:48.358: 8=FIX.4.4|9=0067|35=0|49=ADR_ARBITRAGE_IB_XNYS|56=LVBSG|34=103|52=20150522-13:02:48|10=177|
20150522-13:03:20.702: 8=FIX.4.4|9=71|35=0|34=103|49=LVBSG|52=20150522-13:03:20.702|56=ADR_ARBITRAGE_IB_XNYS|10=010|
20150522-13:03:48.359: 8=FIX.4.4|9=0067|35=0|49=ADR_ARBITRAGE_IB_XNYS|56=LVBSG|34=104|52=20150522-13:03:48|10=179|
20150522-13:04:20.702: 8=FIX.4.4|9=71|35=0|34=104|49=LVBSG|52=20150522-13:04:20.702|56=ADR_ARBITRAGE_IB_XNYS|10=012|
20150522-13:04:48.359: 8=FIX.4.4|9=0067|35=0|49=ADR_ARBITRAGE_IB_XNYS|56=LVBSG|34=105|52=20150522-13:04:48|10=181|
20150522-13:05:20.703: 8=FIX.4.4|9=71|35=0|34=105|49=LVBSG|52=20150522-13:05:20.703|56=ADR_ARBITRAGE_IB_XNYS|10=015|
20150522-13:05:48.360: 8=FIX.4.4|9=0067|35=0|49=ADR_ARBITRAGE_IB_XNYS|56=LVBSG|34=106|52=20150522-13:05:48|10=183|
20150522-13:06:20.703: 8=FIX.4.4|9=71|35=0|34=106|49=LVBSG|52=20150522-13:06:20.703|56=ADR_ARBITRAGE_IB_XNYS|10=017|
20150522-13:06:48.360: 8=FIX.4.4|9=0067|35=0|49=ADR_ARBITRAGE_IB_XNYS|56=LVBSG|34=107|52=20150522-13:06:48|10=185|
20150522-13:07:20.703: 8=FIX.4.4|9=71|35=0|34=107|49=LVBSG|52=20150522-13:07:20.703|56=ADR_ARBITRAGE_IB_XNYS|10=019|
20150522-13:07:48.361: 8=FIX.4.4|9=0067|35=0|49=ADR_ARBITRAGE_IB_XNYS|56=LVBSG|34=108|52=20150522-13:07:48|10=187|
20150522-13:08:21.703: 8=FIX.4.4|9=71|35=0|34=108|49=LVBSG|52=20150522-13:08:21.703|56=ADR_ARBITRAGE_IB_XNYS|10=022|
20150522-13:08:48.361: 8=FIX.4.4|9=0067|35=0|49=ADR_ARBITRAGE_IB_XNYS|56=LVBSG|34=109|52=20150522-13:08:48|10=189|
20150522-13:09:21.703: 8=FIX.4.4|9=71|35=0|34=109|49=LVBSG|52=20150522-13:09:21.703|56=ADR_ARBITRAGE_IB_XNYS|10=024|
20150522-13:09:48.361: 8=FIX.4.4|9=0067|35=0|49=ADR_ARBITRAGE_IB_XNYS|56=LVBSG|34=110|52=20150522-13:09:48|10=182|
20150522-13:10:22.702: 8=FIX.4.4|9=71|35=0|34=110|49=LVBSG|52=20150522-13:10:22.702|56=ADR_ARBITRAGE_IB_XNYS|10=008|
20150522-13:10:48.361: 8=FIX.4.4|9=0067|35=0|49=ADR_ARBITRAGE_IB_XNYS|56=LVBSG|34=111|52=20150522-13:10:48|10=175|
20150522-13:11:22.702: 8=FIX.4.4|9=71|35=0|34=111|49=LVBSG|52=20150522-13:11:22.702|56=ADR_ARBITRAGE_IB_XNYS|10=010|
20150522-13:11:48.362: 8=FIX.4.4|9=0067|35=0|49=ADR_ARBITRAGE_IB_XNYS|56=LVBSG|34=112|52=20150522-13:11:48|10=177|
20150522-13:12:22.703: 8=FIX.4.4|9=71|35=0|34=112|49=LVBSG|52=20150522-13:12:22.703|56=ADR_ARBITRAGE_IB_XNYS|10=013|
20150522-13:12:48.361: 8=FIX.4.4|9=0067|35=0|49=ADR_ARBITRAGE_IB_XNYS|56=LVBSG|34=113|52=20150522-13:12:48|10=179|
20150522-13:13:23.703: 8=FIX.4.4|9=71|35=0|34=113|49=LVBSG|52=20150522-13:13:23.703|56=ADR_ARBITRAGE_IB_XNYS|10=016|
20150522-13:13:48.362: 8=FIX.4.4|9=0067|35=0|49=ADR_ARBITRAGE_IB_XNYS|56=LVBSG|34=114|52=20150522-13:13:48|10=181|
20150522-13:14:24.702: 8=FIX.4.4|9=71|35=0|34=114|49=LVBSG|52=20150522-13:14:24.702|56=ADR_ARBITRAGE_IB_XNYS|10=018|
20150522-13:14:48.363: 8=FIX.4.4|9=0067|35=0|49=ADR_ARBITRAGE_IB_XNYS|56=LVBSG|34=115|52=20150522-13:14:48|10=183|
20150522-13:15:24.702: 8=FIX.4.4|9=71|35=0|34=115|49=LVBSG|52=20150522-13:15:24.702|56=ADR_ARBITRAGE_IB_XNYS|10=020|
20150522-13:15:48.362: 8=FIX.4.4|9=0067|35=0|49=ADR_ARBITRAGE_IB_XNYS|56=LVBSG|34=116|52=20150522-13:15:48|10=185|
20150522-13:16:24.703: 8=FIX.4.4|9=71|35=0|34=116|49=LVBSG|52=20150522-13:16:24.703|56=ADR_ARBITRAGE_IB_XNYS|10=023|
20150522-13:16:48.363: 8=FIX.4.4|9=0067|35=0|49=ADR_ARBITRAGE_IB_XNYS|56=LVBSG|34=117|52=20150522-13:16:48|10=187|
20150522-13:17:25.702: 8=FIX.4.4|9=71|35=0|34=117|49=LVBSG|52=20150522-13:17:25.702|56=ADR_ARBITRAGE_IB_XNYS|10=025|
20150522-13:17:48.363: 8=FIX.4.4|9=0067|35=0|49=ADR_ARBITRAGE_IB_XNYS|56=LVBSG|34=118|52=20150522-13:17:48|10=189|
20150522-13:18:25.703: 8=FIX.4.4|9=71|35=0|34=118|49=LVBSG|52=20150522-13:18:25.703|56=ADR_ARBITRAGE_IB_XNYS|10=028|
20150522-13:18:48.364: 8=FIX.4.4|9=0067|35=0|49=ADR_ARBITRAGE_IB_XNYS|56=LVBSG|34=119|52=20150522-13:18:48|10=191|
20150522-13:19:26.703: 8=FIX.4.4|9=71|35=0|34=119|49=LVBSG|52=20150522-13:19:26.703|56=ADR_ARBITRAGE_IB_XNYS|10=031|
20150522-13:19:48.363: 8=FIX.4.4|9=0067|35=0|49=ADR_ARBITRAGE_IB_XNYS|56=LVBSG|34=120|52=20150522-13:19:48|10=184|
20150522-13:20:26.703: 8=FIX.4.4|9=71|35=0|34=120|49=LVBSG|52=20150522-13:20:26.703|56=ADR_ARBITRAGE_IB_XNYS|10=015|
20150522-13:20:48.363: 8=FIX.4.4|9=0067|35=0|49=ADR_ARBITRAGE_IB_XNYS|56=LVBSG|34=121|52=20150522-13:20:48|10=177|
20150522-13:21:27.702: 8=FIX.4.4|9=71|35=0|34=121|49=LVBSG|52=20150522-13:21:27.702|56=ADR_ARBITRAGE_IB_XNYS|10=017|
20150522-13:21:48.364: 8=FIX.4.4|9=0067|35=0|49=ADR_ARBITRAGE_IB_XNYS|56=LVBSG|34=122|52=20150522-13:21:48|10=179|
20150522-13:22:27.702: 8=FIX.4.4|9=71|35=0|34=122|49=LVBSG|52=20150522-13:22:27.702|56=ADR_ARBITRAGE_IB_XNYS|10=019|
20150522-13:22:48.364: 8=FIX.4.4|9=0067|35=0|49=ADR_ARBITRAGE_IB_XNYS|56=LVBSG|34=123|52=20150522-13:22:48|10=181|
20150522-13:23:27.703: 8=FIX.4.4|9=71|35=0|34=123|49=LVBSG|52=20150522-13:23:27.703|56=ADR_ARBITRAGE_IB_XNYS|10=022|
20150522-13:23:48.364: 8=FIX.4.4|9=0067|35=0|49=ADR_ARBITRAGE_IB_XNYS|56=LVBSG|34=124|52=20150522-13:23:48|10=183|
20150522-13:24:27.703: 8=FIX.4.4|9=71|35=0|34=124|49=LVBSG|52=20150522-13:24:27.703|56=ADR_ARBITRAGE_IB_XNYS|10=024|
20150522-13:24:48.365: 8=FIX.4.4|9=0067|35=0|49=ADR_ARBITRAGE_IB_XNYS|56=LVBSG|34=125|52=20150522-13:24:48|10=185|
20150522-13:25:28.703: 8=FIX.4.4|9=71|35=0|34=125|49=LVBSG|52=20150522-13:25:28.703|56=ADR_ARBITRAGE_IB_XNYS|10=027|
20150522-13:25:48.365: 8=FIX.4.4|9=0067|35=0|49=ADR_ARBITRAGE_IB_XNYS|56=LVBSG|34=126|52=20150522-13:25:48|10=187|
20150522-13:26:28.703: 8=FIX.4.4|9=71|35=0|34=126|49=LVBSG|52=20150522-13:26:28.703|56=ADR_ARBITRAGE_IB_XNYS|10=029|
20150522-13:26:48.371: 8=FIX.4.4|9=0067|35=0|49=ADR_ARBITRAGE_IB_XNYS|56=LVBSG|34=127|52=20150522-13:26:48|10=189|
20150522-13:27:29.703: 8=FIX.4.4|9=71|35=0|34=127|49=LVBSG|52=20150522-13:27:29.703|56=ADR_ARBITRAGE_IB_XNYS|10=032|
20150522-13:27:48.377: 8=FIX.4.4|9=0067|35=0|49=ADR_ARBITRAGE_IB_XNYS|56=LVBSG|34=128|52=20150522-13:27:48|10=191|
20150522-13:28:30.709: 8=FIX.4.4|9=71|35=0|34=128|49=LVBSG|52=20150522-13:28:30.709|56=ADR_ARBITRAGE_IB_XNYS|10=032|
20150522-13:28:48.365: 8=FIX.4.4|9=0067|35=0|49=ADR_ARBITRAGE_IB_XNYS|56=LVBSG|34=129|52=20150522-13:28:48|10=193|
20150522-13:29:31.703: 8=FIX.4.4|9=71|35=0|34=129|49=LVBSG|52=20150522-13:29:31.703|56=ADR_ARBITRAGE_IB_XNYS|10=029|
20150522-13:29:48.368: 8=FIX.4.4|9=0067|35=0|49=ADR_ARBITRAGE_IB_XNYS|56=LVBSG|34=130|52=20150522-13:29:48|10=186|
20150522-13:30:18.112: 8=FIX.4.4|9=266|35=D|34=130|49=LVBSG|50=7369691|52=20150522-13:30:18.112|56=ADR_ARBITRAGE_IB_XNYS|57=XPUS|1=U1216799|11=23d9d00241164c84|21=1|38=400|40=2|44=40|54=2|55=VCO|59=0|60=20150522-13:30:18.111|63=4|100=SMART|111=100|207=SMART|583=-2d13b94e6e97b8db|453=1|448=IB|447=D|452=1|10=055|
20150522-13:30:18.140: 8=FIX.4.4|9=0370|35=8|49=ADR_ARBITRAGE_IB_XNYS|56=LVBSG|34=131|52=20150522-13:30:18|50=XPUS|57=7369691|1=U1216799|207=SMART|6=0|11=23d9d00241164c84|14=0|17=2a46a031fc704b14|21=1|150=A|31=0|151=400|32=0|100=SMART|38=400|39=A|37=-2949131a0590b924|583=-2d13b94e6e97b8db|111=100|40=2|44=40|55=VCO|54=2|59=0|58=New Sell VCO 400.0 @ 40.0|63=4|60=20150522-13:30:18.120|453=1|448=IB|447=D|452=1|10=049|
20150522-13:30:18.379: 8=FIX.4.4|9=0372|35=8|49=ADR_ARBITRAGE_IB_XNYS|56=LVBSG|34=132|52=20150522-13:30:18|50=XPUS|57=7369691|1=U1216799|207=SMART|6=0|11=23d9d00241164c84|14=0|17=81760.1432301418.1|21=1|150=0|31=0|151=400|32=0|100=SMART|38=400|39=0|37=-2949131a0590b924|583=-2d13b94e6e97b8db|111=100|40=2|44=40|55=VCO|54=2|59=0|58=New Sell VCO 400.0 @ 40.0|63=4|60=20150522-13:30:18.375|453=1|448=IB|447=D|452=1|10=143|
20150522-13:30:18.390: 8=FIX.4.4|9=277|35=G|34=131|49=LVBSG|50=7369691|52=20150522-13:30:18.390|56=ADR_ARBITRAGE_IB_XNYS|57=XPUS|1=U1216799|11=-78cd2c158b43bbeb|21=1|38=500|40=2|41=23d9d00241164c84|44=40|54=2|55=VCO|59=0|60=20150522-13:30:18.388|63=4|100=SMART|111=100|583=-2d13b94e6e97b8db|453=1|448=IB|447=D|452=1|10=133|
20150522-13:30:18.461: 8=FIX.4.4|9=0408|35=8|49=ADR_ARBITRAGE_IB_XNYS|56=LVBSG|34=133|52=20150522-13:30:18|50=XPUS|57=7369691|1=U1216799|207=SMART|6=0|11=-78cd2c158b43bbeb|14=0|17=-6f33e9773e2ebbf6|21=1|150=E|31=0|151=400|32=0|100=SMART|38=500|39=0|37=-2949131a0590b924|583=-2d13b94e6e97b8db|111=100|40=2|41=23d9d00241164c84|44=40|55=VCO|54=2|59=0|58=Replace from 400.0 @ 40.0 To 500.0 @ 40.0|63=4|60=20150522-13:30:18.452|453=1|448=IB|447=D|452=1|10=081|
20150522-13:30:18.648: 8=FIX.4.4|9=0426|35=8|49=ADR_ARBITRAGE_IB_XNYS|56=LVBSG|34=134|52=20150522-13:30:18|50=XPUS|57=7369691|1=U1216799|207=SMART|6=40.02|11=-78cd2c158b43bbeb|14=100|17=00010fc2.555f1932.01.01|21=1|150=F|31=40.02|151=400|32=100|100=SMART|38=500|39=1|37=-2949131a0590b924|583=-2d13b94e6e97b8db|111=100|40=2|41=23d9d00241164c84|44=40|55=VCO|54=2|59=0|58=Replace from 400.0 @ 40.0 To 500.0 @ 40.0|63=4|60=20150522-13:30:18.473|453=1|448=IB|447=D|452=1|10=227|
20150522-13:30:18.656: 8=FIX.4.4|9=0425|35=8|49=ADR_ARBITRAGE_IB_XNYS|56=LVBSG|34=135|52=20150522-13:30:18|50=XPUS|57=7369691|1=U1216799|207=SMART|6=40.02|11=-78cd2c158b43bbeb|14=135|17=00010fc2.555f1933.01.01|21=1|150=F|31=40.02|151=365|32=35|100=SMART|38=500|39=1|37=-2949131a0590b924|583=-2d13b94e6e97b8db|111=100|40=2|41=23d9d00241164c84|44=40|55=VCO|54=2|59=0|58=Replace from 400.0 @ 40.0 To 500.0 @ 40.0|63=4|60=20150522-13:30:18.473|453=1|448=IB|447=D|452=1|10=205|
20150522-13:30:18.663: 8=FIX.4.4|9=0426|35=8|49=ADR_ARBITRAGE_IB_XNYS|56=LVBSG|34=136|52=20150522-13:30:18|50=XPUS|57=7369691|1=U1216799|207=SMART|6=40.00675|11=-78cd2c158b43bbeb|14=400|17=00010fc2.555f1934.01.01|21=1|150=F|31=40|151=100|32=265|100=SMART|38=500|39=1|37=-2949131a0590b924|583=-2d13b94e6e97b8db|111=100|40=2|41=23d9d00241164c84|44=40|55=VCO|54=2|59=0|58=Replace from 400.0 @ 40.0 To 500.0 @ 40.0|63=4|60=20150522-13:30:18.473|453=1|448=IB|447=D|452=1|10=003|
20150522-13:30:19.027: 8=FIX.4.4|9=0214|35=9|49=ADR_ARBITRAGE_IB_XNYS|56=LVBSG|34=137|52=20150522-13:30:19|115=IB|102=1|1=U1216799|39=2|37=-2949131a0590b924|583=-2d13b94e6e97b8db|434=2|41=23d9d00241164c84|11=-78cd2c158b43bbeb|58=Order is being cancelled|10=199|
20150522-13:30:32.907: 8=FIX.4.4|9=267|35=D|34=132|49=LVBSG|50=7369691|52=20150522-13:30:32.907|56=ADR_ARBITRAGE_IB_XNYS|57=XPUS|1=U1216799|11=46f75c5f1f5a445f|21=1|38=900|40=2|44=8.62|54=1|55=LFL|59=0|60=20150522-13:30:32.906|63=4|100=SMART|111=100|207=SMART|583=39d55a0b883d4dd8|453=1|448=IB|447=D|452=1|10=243|
20150522-13:30:32.923: 8=FIX.4.4|9=0370|35=8|49=ADR_ARBITRAGE_IB_XNYS|56=LVBSG|34=138|52=20150522-13:30:32|50=XPUS|57=7369691|1=U1216799|207=SMART|6=0|11=46f75c5f1f5a445f|14=0|17=-417c22115db9bf9c|21=1|150=A|31=0|151=900|32=0|100=SMART|38=900|39=A|37=22c3896df5a041c5|583=39d55a0b883d4dd8|111=100|40=2|44=8.62|55=LFL|54=1|59=0|58=New Buy LFL 900.0 @ 8.62|63=4|60=20150522-13:30:32.916|453=1|448=IB|447=D|452=1|10=099|
20150522-13:30:33.101: 8=FIX.4.4|9=0371|35=8|49=ADR_ARBITRAGE_IB_XNYS|56=LVBSG|34=139|52=20150522-13:30:33|50=XPUS|57=7369691|1=U1216799|207=SMART|6=0|11=46f75c5f1f5a445f|14=0|17=81760.1432301433.1|21=1|150=0|31=0|151=900|32=0|100=SMART|38=900|39=0|37=22c3896df5a041c5|583=39d55a0b883d4dd8|111=100|40=2|44=8.62|55=LFL|54=1|59=0|58=New Buy LFL 900.0 @ 8.62|63=4|60=20150522-13:30:33.096|453=1|448=IB|447=D|452=1|10=069|
20150522-13:30:33.126: 8=FIX.4.4|9=289|35=G|34=133|49=LVBSG|50=7369691|52=20150522-13:30:33.126|56=ADR_ARBITRAGE_IB_XNYS|57=XPUS|1=U1216799|11=-222ad08b11a0bbf6|21=1|38=5000|40=2|41=46f75c5f1f5a445f|44=8.62|54=1|55=LFL|59=0|60=20150522-13:30:33.125|63=4|100=SMART|111=100|207=SMART|583=39d55a0b883d4dd8|453=1|448=IB|447=D|452=1|10=099|
20150522-13:30:33.146: 8=FIX.4.4|9=0410|35=8|49=ADR_ARBITRAGE_IB_XNYS|56=LVBSG|34=140|52=20150522-13:30:33|50=XPUS|57=7369691|1=U1216799|207=SMART|6=0|11=-222ad08b11a0bbf6|14=0|17=-1b5e16109924bc68|21=1|150=E|31=0|151=900|32=0|100=SMART|38=5000|39=0|37=22c3896df5a041c5|583=39d55a0b883d4dd8|111=100|40=2|41=46f75c5f1f5a445f|44=8.62|55=LFL|54=1|59=0|58=Replace from 900.0 @ 8.62 To 5000.0 @ 8.62|63=4|60=20150522-13:30:33.137|453=1|448=IB|447=D|452=1|10=234|
20150522-13:30:33.346: 8=FIX.4.4|9=0427|35=8|49=ADR_ARBITRAGE_IB_XNYS|56=LVBSG|34=141|52=20150522-13:30:33|50=XPUS|57=7369691|1=U1216799|207=SMART|6=8.62|11=-222ad08b11a0bbf6|14=100|17=0001390d.555ee1c1.01.01|21=1|150=F|31=8.62|151=4900|32=100|100=SMART|38=5000|39=1|37=22c3896df5a041c5|583=39d55a0b883d4dd8|111=100|40=2|41=46f75c5f1f5a445f|44=8.62|55=LFL|54=1|59=0|58=Replace from 900.0 @ 8.62 To 5000.0 @ 8.62|63=4|60=20150522-13:30:33.176|453=1|448=IB|447=D|452=1|10=056|
20150522-13:30:33.350: 8=FIX.4.4|9=0427|35=8|49=ADR_ARBITRAGE_IB_XNYS|56=LVBSG|34=142|52=20150522-13:30:33|50=XPUS|57=7369691|1=U1216799|207=SMART|6=8.62|11=-222ad08b11a0bbf6|14=200|17=0001390d.555ee1c2.01.01|21=1|150=F|31=8.62|151=4800|32=100|100=SMART|38=5000|39=1|37=22c3896df5a041c5|583=39d55a0b883d4dd8|111=100|40=2|41=46f75c5f1f5a445f|44=8.62|55=LFL|54=1|59=0|58=Replace from 900.0 @ 8.62 To 5000.0 @ 8.62|63=4|60=20150522-13:30:33.176|453=1|448=IB|447=D|452=1|10=058|
20150522-13:30:33.725: 8=FIX.4.4|9=0422|35=8|49=ADR_ARBITRAGE_IB_XNYS|56=LVBSG|34=143|52=20150522-13:30:33|50=XPUS|57=7369691|1=U1216799|207=SMART|6=8.62|11=-222ad08b11a0bbf6|14=200|17=81760.1432301433.4|21=1|150=5|31=8.62|151=4800|32=100|100=SMART|38=5000|39=1|37=22c3896df5a041c5|583=39d55a0b883d4dd8|111=100|40=2|41=46f75c5f1f5a445f|44=8.62|55=LFL|54=1|59=0|58=Replace from 900.0 @ 8.62 To 5000.0 @ 8.62|63=4|60=20150522-13:30:33.703|453=1|448=IB|447=D|452=1|10=115|
20150522-13:30:33.727: 8=FIX.4.4|9=0427|35=8|49=ADR_ARBITRAGE_IB_XNYS|56=LVBSG|34=144|52=20150522-13:30:33|50=XPUS|57=7369691|1=U1216799|207=SMART|6=8.62|11=-222ad08b11a0bbf6|14=300|17=0001390d.555ee1c3.01.01|21=1|150=F|31=8.62|151=4700|32=100|100=SMART|38=5000|39=1|37=22c3896df5a041c5|583=39d55a0b883d4dd8|111=100|40=2|41=46f75c5f1f5a445f|44=8.62|55=LFL|54=1|59=0|58=Replace from 900.0 @ 8.62 To 5000.0 @ 8.62|63=4|60=20150522-13:30:33.703|453=1|448=IB|447=D|452=1|10=057|
20150522-13:30:37.499: 8=FIX.4.4|9=0427|35=8|49=ADR_ARBITRAGE_IB_XNYS|56=LVBSG|34=145|52=20150522-13:30:37|50=XPUS|57=7369691|1=U1216799|207=SMART|6=8.62|11=-222ad08b11a0bbf6|14=400|17=0001390d.555ee1cb.01.01|21=1|150=F|31=8.62|151=4600|32=100|100=SMART|38=5000|39=1|37=22c3896df5a041c5|583=39d55a0b883d4dd8|111=100|40=2|41=46f75c5f1f5a445f|44=8.62|55=LFL|54=1|59=0|58=Replace from 900.0 @ 8.62 To 5000.0 @ 8.62|63=4|60=20150522-13:30:33.703|453=1|448=IB|447=D|452=1|10=109|
20150522-13:30:37.853: 8=FIX.4.4|9=0427|35=8|49=ADR_ARBITRAGE_IB_XNYS|56=LVBSG|34=146|52=20150522-13:30:37|50=XPUS|57=7369691|1=U1216799|207=SMART|6=8.62|11=-222ad08b11a0bbf6|14=500|17=00010ff0.555f1b6e.01.01|21=1|150=F|31=8.62|151=4500|32=100|100=SMART|38=5000|39=1|37=22c3896df5a041c5|583=39d55a0b883d4dd8|111=100|40=2|41=46f75c5f1f5a445f|44=8.62|55=LFL|54=1|59=0|58=Replace from 900.0 @ 8.62 To 5000.0 @ 8.62|63=4|60=20150522-13:30:33.703|453=1|448=IB|447=D|452=1|10=110|
20150522-13:30:40.142: 8=FIX.4.4|9=0427|35=8|49=ADR_ARBITRAGE_IB_XNYS|56=LVBSG|34=147|52=20150522-13:30:40|50=XPUS|57=7369691|1=U1216799|207=SMART|6=8.62|11=-222ad08b11a0bbf6|14=600|17=00010ff0.555f1b97.01.01|21=1|150=F|31=8.62|151=4400|32=100|100=SMART|38=5000|39=1|37=22c3896df5a041c5|583=39d55a0b883d4dd8|111=100|40=2|41=46f75c5f1f5a445f|44=8.62|55=LFL|54=1|59=0|58=Replace from 900.0 @ 8.62 To 5000.0 @ 8.62|63=4|60=20150522-13:30:33.703|453=1|448=IB|447=D|452=1|10=062|
20150522-13:30:40.443: 8=FIX.4.4|9=0427|35=8|49=ADR_ARBITRAGE_IB_XNYS|56=LVBSG|34=148|52=20150522-13:30:40|50=XPUS|57=7369691|1=U1216799|207=SMART|6=8.62|11=-222ad08b11a0bbf6|14=700|17=00010ff0.555f1b98.01.01|21=1|150=F|31=8.62|151=4300|32=100|100=SMART|38=5000|39=1|37=22c3896df5a041c5|583=39d55a0b883d4dd8|111=100|40=2|41=46f75c5f1f5a445f|44=8.62|55=LFL|54=1|59=0|58=Replace from 900.0 @ 8.62 To 5000.0 @ 8.62|63=4|60=20150522-13:30:33.703|453=1|448=IB|447=D|452=1|10=064|
20150522-13:30:40.448: 8=FIX.4.4|9=0427|35=8|49=ADR_ARBITRAGE_IB_XNYS|56=LVBSG|34=149|52=20150522-13:30:40|50=XPUS|57=7369691|1=U1216799|207=SMART|6=8.62|11=-222ad08b11a0bbf6|14=800|17=00010ff0.555f1b99.01.01|21=1|150=F|31=8.62|151=4200|32=100|100=SMART|38=5000|39=1|37=22c3896df5a041c5|583=39d55a0b883d4dd8|111=100|40=2|41=46f75c5f1f5a445f|44=8.62|55=LFL|54=1|59=0|58=Replace from 900.0 @ 8.62 To 5000.0 @ 8.62|63=4|60=20150522-13:30:33.703|453=1|448=IB|447=D|452=1|10=066|
20150522-13:30:45.752: 8=FIX.4.4|9=0427|35=8|49=ADR_ARBITRAGE_IB_XNYS|56=LVBSG|34=150|52=20150522-13:30:45|50=XPUS|57=7369691|1=U1216799|207=SMART|6=8.62|11=-222ad08b11a0bbf6|14=900|17=00010ff0.555f1bd3.01.01|21=1|150=F|31=8.62|151=4100|32=100|100=SMART|38=5000|39=1|37=22c3896df5a041c5|583=39d55a0b883d4dd8|111=100|40=2|41=46f75c5f1f5a445f|44=8.62|55=LFL|54=1|59=0|58=Replace from 900.0 @ 8.62 To 5000.0 @ 8.62|63=4|60=20150522-13:30:33.703|453=1|448=IB|447=D|452=1|10=100|
20150522-13:30:46.090: 8=FIX.4.4|9=0428|35=8|49=ADR_ARBITRAGE_IB_XNYS|56=LVBSG|34=151|52=20150522-13:30:46|50=XPUS|57=7369691|1=U1216799|207=SMART|6=8.62|11=-222ad08b11a0bbf6|14=1000|17=00010ff0.555f1bd4.01.01|21=1|150=F|31=8.62|151=4000|32=100|100=SMART|38=5000|39=1|37=22c3896df5a041c5|583=39d55a0b883d4dd8|111=100|40=2|41=46f75c5f1f5a445f|44=8.62|55=LFL|54=1|59=0|58=Replace from 900.0 @ 8.62 To 5000.0 @ 8.62|63=4|60=20150522-13:30:33.703|453=1|448=IB|447=D|452=1|10=143|
20150522-13:30:48.334: 8=FIX.4.4|9=0428|35=8|49=ADR_ARBITRAGE_IB_XNYS|56=LVBSG|34=152|52=20150522-13:30:48|50=XPUS|57=7369691|1=U1216799|207=SMART|6=8.62|11=-222ad08b11a0bbf6|14=1100|17=00010ff0.555f1bfb.01.01|21=1|150=F|31=8.62|151=3900|32=100|100=SMART|38=5000|39=1|37=22c3896df5a041c5|583=39d55a0b883d4dd8|111=100|40=2|41=46f75c5f1f5a445f|44=8.62|55=LFL|54=1|59=0|58=Replace from 900.0 @ 8.62 To 5000.0 @ 8.62|63=4|60=20150522-13:30:33.703|453=1|448=IB|447=D|452=1|10=203|
20150522-13:30:48.666: 8=FIX.4.4|9=0428|35=8|49=ADR_ARBITRAGE_IB_XNYS|56=LVBSG|34=153|52=20150522-13:30:48|50=XPUS|57=7369691|1=U1216799|207=SMART|6=8.62|11=-222ad08b11a0bbf6|14=1200|17=00010ff0.555f1bfc.01.01|21=1|150=F|31=8.62|151=3800|32=100|100=SMART|38=5000|39=1|37=22c3896df5a041c5|583=39d55a0b883d4dd8|111=100|40=2|41=46f75c5f1f5a445f|44=8.62|55=LFL|54=1|59=0|58=Replace from 900.0 @ 8.62 To 5000.0 @ 8.62|63=4|60=20150522-13:30:33.703|453=1|448=IB|447=D|452=1|10=205|
20150522-13:30:48.868: 8=FIX.4.4|9=268|35=D|34=134|49=LVBSG|50=7369691|52=20150522-13:30:48.868|56=ADR_ARBITRAGE_IB_XNYS|57=XPUS|1=U1216799|11=61a44fe4d0134415|21=1|38=4000|40=2|44=17.55|54=2|55=ENI|59=0|60=20150522-13:30:48.868|63=4|100=SMART|111=100|207=SMART|583=f75c1edfe814ea1|453=1|448=IB|447=D|452=1|10=030|
20150522-13:30:48.889: 8=FIX.4.4|9=0376|35=8|49=ADR_ARBITRAGE_IB_XNYS|56=LVBSG|34=154|52=20150522-13:30:48|50=XPUS|57=7369691|1=U1216799|207=SMART|6=0|11=61a44fe4d0134415|14=0|17=-4e8147fee01cb177|21=1|150=A|31=0|151=4000|32=0|100=SMART|38=4000|39=A|37=-4e280e303c1ab106|583=f75c1edfe814ea1|111=100|40=2|44=17.55|55=ENI|54=2|59=0|58=New Sell ENI 4000.0 @ 17.55|63=4|60=20150522-13:30:48.875|453=1|448=IB|447=D|452=1|10=140|
20150522-13:30:49.060: 8=FIX.4.4|9=0377|35=8|49=ADR_ARBITRAGE_IB_XNYS|56=LVBSG|34=155|52=20150522-13:30:49|50=XPUS|57=7369691|1=U1216799|207=SMART|6=0|11=61a44fe4d0134415|14=0|17=81760.1432301448.1|21=1|150=0|31=0|151=4000|32=0|100=SMART|38=4000|39=0|37=-4e280e303c1ab106|583=f75c1edfe814ea1|111=100|40=2|44=17.55|55=ENI|54=2|59=0|58=New Sell ENI 4000.0 @ 17.55|63=4|60=20150522-13:30:49.052|453=1|448=IB|447=D|452=1|10=099|
20150522-13:30:49.220: 8=FIX.4.4|9=0394|35=8|49=ADR_ARBITRAGE_IB_XNYS|56=LVBSG|34=156|52=20150522-13:30:49|50=XPUS|57=7369691|1=U1216799|207=SMART|6=17.56|11=61a44fe4d0134415|14=100|17=00010a77.555f1726.01.01|21=1|150=F|31=17.56|151=3900|32=100|100=SMART|38=4000|39=1|37=-4e280e303c1ab106|583=f75c1edfe814ea1|111=100|40=2|44=17.55|55=ENI|54=2|59=0|58=New Sell ENI 4000.0 @ 17.55|63=4|60=20150522-13:30:49.052|453=1|448=IB|447=D|452=1|10=054|
20150522-13:30:49.228: 8=FIX.4.4|9=0396|35=8|49=ADR_ARBITRAGE_IB_XNYS|56=LVBSG|34=157|52=20150522-13:30:49|50=XPUS|57=7369691|1=U1216799|207=SMART|6=17.551|11=61a44fe4d0134415|14=1000|17=00010a77.555f1727.01.01|21=1|150=F|31=17.55|151=3000|32=900|100=SMART|38=4000|39=1|37=-4e280e303c1ab106|583=f75c1edfe814ea1|111=100|40=2|44=17.55|55=ENI|54=2|59=0|58=New Sell ENI 4000.0 @ 17.55|63=4|60=20150522-13:30:49.052|453=1|448=IB|447=D|452=1|10=152|
20150522-13:30:49.236: 8=FIX.4.4|9=0398|35=8|49=ADR_ARBITRAGE_IB_XNYS|56=LVBSG|34=158|52=20150522-13:30:49|50=XPUS|57=7369691|1=U1216799|207=SMART|6=17.5505|11=61a44fe4d0134415|14=2000|17=00014229.555ee07b.01.01|21=1|150=F|31=17.55|151=2000|32=1000|100=SMART|38=4000|39=1|37=-4e280e303c1ab106|583=f75c1edfe814ea1|111=100|40=2|44=17.55|55=ENI|54=2|59=0|58=New Sell ENI 4000.0 @ 17.55|63=4|60=20150522-13:30:49.052|453=1|448=IB|447=D|452=1|10=037|
20150522-13:30:49.240: 8=FIX.4.4|9=0398|35=8|49=ADR_ARBITRAGE_IB_XNYS|56=LVBSG|34=159|52=20150522-13:30:49|50=XPUS|57=7369691|1=U1216799|207=SMART|6=17.562|11=61a44fe4d0134415|14=3000|17=00013911.555ee253.01.01|21=1|150=F|31=17.585|151=1000|32=1000|100=SMART|38=4000|39=1|37=-4e280e303c1ab106|583=f75c1edfe814ea1|111=100|40=2|44=17.55|55=ENI|54=2|59=0|58=New Sell ENI 4000.0 @ 17.55|63=4|60=20150522-13:30:49.052|453=1|448=IB|447=D|452=1|10=250|
20150522-13:30:49.247: 8=FIX.4.4|9=0395|35=8|49=ADR_ARBITRAGE_IB_XNYS|56=LVBSG|34=160|52=20150522-13:30:49|50=XPUS|57=7369691|1=U1216799|207=SMART|6=17.5665|11=61a44fe4d0134415|14=4000|17=00013911.555ee254.01.01|21=1|150=F|31=17.58|151=0|32=1000|100=SMART|38=4000|39=2|37=-4e280e303c1ab106|583=f75c1edfe814ea1|111=100|40=2|44=17.55|55=ENI|54=2|59=0|58=New Sell ENI 4000.0 @ 17.55|63=4|60=20150522-13:30:49.052|453=1|448=IB|447=D|452=1|10=101|
20150522-13:30:49.448: 8=FIX.4.4|9=267|35=D|34=135|49=LVBSG|50=7369691|52=20150522-13:30:49.448|56=ADR_ARBITRAGE_IB_XNYS|57=XPUS|1=U1216799|11=-ade2be1584bbd8|21=1|38=3400|40=2|44=17.55|54=2|55=ENI|59=0|60=20150522-13:30:49.448|63=4|100=SMART|111=100|207=SMART|583=f75c1edfe814ea1|453=1|448=IB|447=D|452=1|10=164|
20150522-13:30:49.459: 8=FIX.4.4|9=0375|35=8|49=ADR_ARBITRAGE_IB_XNYS|56=LVBSG|34=161|52=20150522-13:30:49|50=XPUS|57=7369691|1=U1216799|207=SMART|6=0|11=-ade2be1584bbd8|14=0|17=-26fef22ffa6db200|21=1|150=A|31=0|151=3400|32=0|100=SMART|38=3400|39=A|37=-48407fcc672fb3ad|583=f75c1edfe814ea1|111=100|40=2|44=17.55|55=ENI|54=2|59=0|58=New Sell ENI 3400.0 @ 17.55|63=4|60=20150522-13:30:49.453|453=1|448=IB|447=D|452=1|10=229|
20150522-13:30:49.634: 8=FIX.4.4|9=0376|35=8|49=ADR_ARBITRAGE_IB_XNYS|56=LVBSG|34=162|52=20150522-13:30:49|50=XPUS|57=7369691|1=U1216799|207=SMART|6=0|11=-ade2be1584bbd8|14=0|17=81760.1432301449.2|21=1|150=0|31=0|151=3400|32=0|100=SMART|38=3400|39=0|37=-48407fcc672fb3ad|583=f75c1edfe814ea1|111=100|40=2|44=17.55|55=ENI|54=2|59=0|58=New Sell ENI 3400.0 @ 17.55|63=4|60=20150522-13:30:49.627|453=1|448=IB|447=D|452=1|10=118|
20150522-13:30:49.643: 8=FIX.4.4|9=277|35=G|34=136|49=LVBSG|50=7369691|52=20150522-13:30:49.642|56=ADR_ARBITRAGE_IB_XNYS|57=XPUS|1=U1216799|11=13fa02a9ea7f486d|21=1|38=4000|40=2|41=-ade2be1584bbd8|44=17.55|54=2|55=ENI|59=0|60=20150522-13:30:49.642|63=4|100=SMART|111=100|583=f75c1edfe814ea1|453=1|448=IB|447=D|452=1|10=115|
20150522-13:30:49.655: 8=FIX.4.4|9=0412|35=8|49=ADR_ARBITRAGE_IB_XNYS|56=LVBSG|34=163|52=20150522-13:30:49|50=XPUS|57=7369691|1=U1216799|207=SMART|6=0|11=13fa02a9ea7f486d|14=0|17=70c50fda6d994f8a|21=1|150=E|31=0|151=3400|32=0|100=SMART|38=4000|39=0|37=-48407fcc672fb3ad|583=f75c1edfe814ea1|111=100|40=2|41=-ade2be1584bbd8|44=17.55|55=ENI|54=2|59=0|58=Replace from 3400.0 @ 17.55 To 4000.0 @ 17.55|63=4|60=20150522-13:30:49.649|453=1|448=IB|447=D|452=1|10=028|
20150522-13:30:49.834: 8=FIX.4.4|9=0431|35=8|49=ADR_ARBITRAGE_IB_XNYS|56=LVBSG|34=164|52=20150522-13:30:49|50=XPUS|57=7369691|1=U1216799|207=SMART|6=17.55|11=13fa02a9ea7f486d|14=100|17=00010ec8.555ee5ac.01.01|21=1|150=F|31=17.55|151=3900|32=100|100=SMART|38=4000|39=1|37=-48407fcc672fb3ad|583=f75c1edfe814ea1|111=100|40=2|41=-ade2be1584bbd8|44=17.55|55=ENI|54=2|59=0|58=Replace from 3400.0 @ 17.55 To 4000.0 @ 17.55|63=4|60=20150522-13:30:49.661|453=1|448=IB|447=D|452=1|10=135|
20150522-13:30:49.837: 8=FIX.4.4|9=0446|35=8|49=ADR_ARBITRAGE_IB_XNYS|56=LVBSG|34=165|52=20150522-13:30:49|50=XPUS|57=7369691|1=U1216799|207=SMART|6=17.56416666666667|11=13fa02a9ea7f486d|14=1800|17=00013911.555ee255.01.01|21=1|150=F|31=17.565|151=2200|32=1700|100=SMART|38=4000|39=1|37=-48407fcc672fb3ad|583=f75c1edfe814ea1|111=100|40=2|41=-ade2be1584bbd8|44=17.55|55=ENI|54=2|59=0|58=Replace from 3400.0 @ 17.55 To 4000.0 @ 17.55|63=4|60=20150522-13:30:49.661|453=1|448=IB|447=D|452=1|10=239|
20150522-13:30:49.841: 8=FIX.4.4|9=0444|35=8|49=ADR_ARBITRAGE_IB_XNYS|56=LVBSG|34=166|52=20150522-13:30:49|50=XPUS|57=7369691|1=U1216799|207=SMART|6=17.56342105263158|11=13fa02a9ea7f486d|14=1900|17=00013911.555ee256.01.01|21=1|150=F|31=17.55|151=2100|32=100|100=SMART|38=4000|39=1|37=-48407fcc672fb3ad|583=f75c1edfe814ea1|111=100|40=2|41=-ade2be1584bbd8|44=17.55|55=ENI|54=2|59=0|58=Replace from 3400.0 @ 17.55 To 4000.0 @ 17.55|63=4|60=20150522-13:30:49.661|453=1|448=IB|447=D|452=1|10=104|
20150522-13:30:49.842: 8=FIX.4.4|9=0435|35=8|49=ADR_ARBITRAGE_IB_XNYS|56=LVBSG|34=167|52=20150522-13:30:49|50=XPUS|57=7369691|1=U1216799|207=SMART|6=17.56275|11=13fa02a9ea7f486d|14=2000|17=00013911.555ee257.01.01|21=1|150=F|31=17.55|151=2000|32=100|100=SMART|38=4000|39=1|37=-48407fcc672fb3ad|583=f75c1edfe814ea1|111=100|40=2|41=-ade2be1584bbd8|44=17.55|55=ENI|54=2|59=0|58=Replace from 3400.0 @ 17.55 To 4000.0 @ 17.55|63=4|60=20150522-13:30:49.661|453=1|448=IB|447=D|452=1|10=151|
20150522-13:30:50.172: 8=FIX.4.4|9=0430|35=8|49=ADR_ARBITRAGE_IB_XNYS|56=LVBSG|34=168|52=20150522-13:30:50|50=XPUS|57=7369691|1=U1216799|207=SMART|6=17.56275|11=13fa02a9ea7f486d|14=2000|17=81760.1432301449.8|21=1|150=5|31=17.55|151=2000|32=100|100=SMART|38=4000|39=1|37=-48407fcc672fb3ad|583=f75c1edfe814ea1|111=100|40=2|41=-ade2be1584bbd8|44=17.55|55=ENI|54=2|59=0|58=Replace from 3400.0 @ 17.55 To 4000.0 @ 17.55|63=4|60=20150522-13:30:50.163|453=1|448=IB|447=D|452=1|10=038|
20150522-13:30:59.515: 8=FIX.4.4|9=277|35=G|34=137|49=LVBSG|50=7369691|52=20150522-13:30:59.515|56=ADR_ARBITRAGE_IB_XNYS|57=XPUS|1=U1216799|11=59f6310c7c642e0|21=1|38=4000|40=2|41=13fa02a9ea7f486d|44=17.54|54=2|55=ENI|59=0|60=20150522-13:30:59.514|63=4|100=SMART|111=100|583=f75c1edfe814ea1|453=1|448=IB|447=D|452=1|10=188|
20150522-13:30:59.525: 8=FIX.4.4|9=0429|35=8|49=ADR_ARBITRAGE_IB_XNYS|56=LVBSG|34=169|52=20150522-13:30:59|50=XPUS|57=7369691|1=U1216799|207=SMART|6=17.56275|11=59f6310c7c642e0|14=2000|17=-315a2c34b008b0f8|21=1|150=E|31=17.55|151=2000|32=100|100=SMART|38=4000|39=1|37=-48407fcc672fb3ad|583=f75c1edfe814ea1|111=100|40=2|41=13fa02a9ea7f486d|44=17.54|55=ENI|54=2|59=0|58=Replace from 4000.0 @ 17.55 To 4000.0 @ 17.54|63=4|60=20150522-13:30:59.520|453=1|448=IB|447=D|452=1|10=071|
20150522-13:31:00.049: 8=FIX.4.4|9=0430|35=8|49=ADR_ARBITRAGE_IB_XNYS|56=LVBSG|34=170|52=20150522-13:31:00|50=XPUS|57=7369691|1=U1216799|207=SMART|6=17.56275|11=59f6310c7c642e0|14=2000|17=81760.1432301459.1|21=1|150=5|31=17.55|151=2000|32=100|100=SMART|38=4000|39=1|37=-48407fcc672fb3ad|583=f75c1edfe814ea1|111=100|40=2|41=13fa02a9ea7f486d|44=17.54|55=ENI|54=2|59=0|58=Replace from 4000.0 @ 17.55 To 4000.0 @ 17.54|63=4|60=20150522-13:31:00.044|453=1|448=IB|447=D|452=1|10=084|
20150522-13:31:00.474: 8=FIX.4.4|9=277|35=G|34=138|49=LVBSG|50=7369691|52=20150522-13:31:00.473|56=ADR_ARBITRAGE_IB_XNYS|57=XPUS|1=U1216799|11=4eae989f6ab54875|21=1|38=4000|40=2|41=59f6310c7c642e0|44=17.52|54=2|55=ENI|59=0|60=20150522-13:31:00.473|63=4|100=SMART|111=100|583=f75c1edfe814ea1|453=1|448=IB|447=D|452=1|10=141|
20150522-13:31:00.489: 8=FIX.4.4|9=0429|35=8|49=ADR_ARBITRAGE_IB_XNYS|56=LVBSG|34=171|52=20150522-13:31:00|50=XPUS|57=7369691|1=U1216799|207=SMART|6=17.56275|11=4eae989f6ab54875|14=2000|17=-6437c513e73cba75|21=1|150=E|31=17.55|151=2000|32=100|100=SMART|38=4000|39=1|37=-48407fcc672fb3ad|583=f75c1edfe814ea1|111=100|40=2|41=59f6310c7c642e0|44=17.52|55=ENI|54=2|59=0|58=Replace from 4000.0 @ 17.54 To 4000.0 @ 17.52|63=4|60=20150522-13:31:00.482|453=1|448=IB|447=D|452=1|10=030|
20150522-13:31:01.007: 8=FIX.4.4|9=0430|35=8|49=ADR_ARBITRAGE_IB_XNYS|56=LVBSG|34=172|52=20150522-13:31:01|50=XPUS|57=7369691|1=U1216799|207=SMART|6=17.56275|11=4eae989f6ab54875|14=2000|17=81760.1432301460.1|21=1|150=5|31=17.55|151=2000|32=100|100=SMART|38=4000|39=1|37=-48407fcc672fb3ad|583=f75c1edfe814ea1|111=100|40=2|41=59f6310c7c642e0|44=17.52|55=ENI|54=2|59=0|58=Replace from 4000.0 @ 17.54 To 4000.0 @ 17.52|63=4|60=20150522-13:31:01.001|453=1|448=IB|447=D|452=1|10=041|
20150522-13:31:01.012: 8=FIX.4.4|9=0428|35=8|49=ADR_ARBITRAGE_IB_XNYS|56=LVBSG|34=173|52=20150522-13:31:01|50=XPUS|57=7369691|1=U1216799|207=SMART|6=8.62|11=-222ad08b11a0bbf6|14=1300|17=00010ff0.555f1d14.01.01|21=1|150=F|31=8.62|151=3700|32=100|100=SMART|38=5000|39=1|37=22c3896df5a041c5|583=39d55a0b883d4dd8|111=100|40=2|41=46f75c5f1f5a445f|44=8.62|55=LFL|54=1|59=0|58=Replace from 900.0 @ 8.62 To 5000.0 @ 8.62|63=4|60=20150522-13:30:33.703|453=1|448=IB|447=D|452=1|10=099|
20150522-13:31:01.708: 8=FIX.4.4|9=279|35=G|34=139|49=LVBSG|50=7369691|52=20150522-13:31:01.708|56=ADR_ARBITRAGE_IB_XNYS|57=XPUS|1=U1216799|11=-24c78cca4047b846|21=1|38=4000|40=2|41=4eae989f6ab54875|44=17.51|54=2|55=ENI|59=0|60=20150522-13:31:01.708|63=4|100=SMART|111=100|583=f75c1edfe814ea1|453=1|448=IB|447=D|452=1|10=038|
20150522-13:31:01.723: 8=FIX.4.4|9=0430|35=8|49=ADR_ARBITRAGE_IB_XNYS|56=LVBSG|34=174|52=20150522-13:31:01|50=XPUS|57=7369691|1=U1216799|207=SMART|6=17.56275|11=-24c78cca4047b846|14=2000|17=442741be010b4583|21=1|150=E|31=17.55|151=2000|32=100|100=SMART|38=4000|39=1|37=-48407fcc672fb3ad|583=f75c1edfe814ea1|111=100|40=2|41=4eae989f6ab54875|44=17.51|55=ENI|54=2|59=0|58=Replace from 4000.0 @ 17.52 To 4000.0 @ 17.51|63=4|60=20150522-13:31:01.717|453=1|448=IB|447=D|452=1|10=017|
20150522-13:31:02.239: 8=FIX.4.4|9=0432|35=8|49=ADR_ARBITRAGE_IB_XNYS|56=LVBSG|34=175|52=20150522-13:31:02|50=XPUS|57=7369691|1=U1216799|207=SMART|6=17.56275|11=-24c78cca4047b846|14=2000|17=81760.1432301461.1|21=1|150=5|31=17.55|151=2000|32=100|100=SMART|38=4000|39=1|37=-48407fcc672fb3ad|583=f75c1edfe814ea1|111=100|40=2|41=4eae989f6ab54875|44=17.51|55=ENI|54=2|59=0|58=Replace from 4000.0 @ 17.52 To 4000.0 @ 17.51|63=4|60=20150522-13:31:02.231|453=1|448=IB|447=D|452=1|10=197|
20150522-13:31:20.627: 8=FIX.4.4|9=0428|35=8|49=ADR_ARBITRAGE_IB_XNYS|56=LVBSG|34=176|52=20150522-13:31:20|50=XPUS|57=7369691|1=U1216799|207=SMART|6=8.62|11=-222ad08b11a0bbf6|14=1400|17=00010ff0.555f1e69.01.01|21=1|150=F|31=8.62|151=3600|32=100|100=SMART|38=5000|39=1|37=22c3896df5a041c5|583=39d55a0b883d4dd8|111=100|40=2|41=46f75c5f1f5a445f|44=8.62|55=LFL|54=1|59=0|58=Replace from 900.0 @ 8.62 To 5000.0 @ 8.62|63=4|60=20150522-13:30:33.703|453=1|448=IB|447=D|452=1|10=114|
20150522-13:31:20.973: 8=FIX.4.4|9=0428|35=8|49=ADR_ARBITRAGE_IB_XNYS|56=LVBSG|34=177|52=20150522-13:31:20|50=XPUS|57=7369691|1=U1216799|207=SMART|6=8.62|11=-222ad08b11a0bbf6|14=1500|17=00010ff0.555f1e6a.01.01|21=1|150=F|31=8.62|151=3500|32=100|100=SMART|38=5000|39=1|37=22c3896df5a041c5|583=39d55a0b883d4dd8|111=100|40=2|41=46f75c5f1f5a445f|44=8.62|55=LFL|54=1|59=0|58=Replace from 900.0 @ 8.62 To 5000.0 @ 8.62|63=4|60=20150522-13:30:33.703|453=1|448=IB|447=D|452=1|10=155|
20150522-13:31:24.328: 8=FIX.4.4|9=0445|35=8|49=ADR_ARBITRAGE_IB_XNYS|56=LVBSG|34=178|52=20150522-13:31:24|50=XPUS|57=7369691|1=U1216799|207=SMART|6=17.5602380952381|11=-24c78cca4047b846|14=2100|17=00010ff0.555f1e84.01.01|21=1|150=F|31=17.51|151=1900|32=100|100=SMART|38=4000|39=1|37=-48407fcc672fb3ad|583=f75c1edfe814ea1|111=100|40=2|41=4eae989f6ab54875|44=17.51|55=ENI|54=2|59=0|58=Replace from 4000.0 @ 17.52 To 4000.0 @ 17.51|63=4|60=20150522-13:31:02.231|453=1|448=IB|447=D|452=1|10=053|
20150522-13:31:30.173: 8=FIX.4.4|9=0428|35=8|49=ADR_ARBITRAGE_IB_XNYS|56=LVBSG|34=179|52=20150522-13:31:30|50=XPUS|57=7369691|1=U1216799|207=SMART|6=8.62|11=-222ad08b11a0bbf6|14=1600|17=00010ff0.555f1ea4.01.01|21=1|150=F|31=8.62|151=3400|32=100|100=SMART|38=5000|39=1|37=22c3896df5a041c5|583=39d55a0b883d4dd8|111=100|40=2|41=46f75c5f1f5a445f|44=8.62|55=LFL|54=1|59=0|58=Replace from 900.0 @ 8.62 To 5000.0 @ 8.62|63=4|60=20150522-13:30:33.703|453=1|448=IB|447=D|452=1|10=156|
20150522-13:31:30.520: 8=FIX.4.4|9=0428|35=8|49=ADR_ARBITRAGE_IB_XNYS|56=LVBSG|34=180|52=20150522-13:31:30|50=XPUS|57=7369691|1=U1216799|207=SMART|6=8.62|11=-222ad08b11a0bbf6|14=1700|17=00010ff0.555f1ea5.01.01|21=1|150=F|31=8.62|151=3300|32=100|100=SMART|38=5000|39=1|37=22c3896df5a041c5|583=39d55a0b883d4dd8|111=100|40=2|41=46f75c5f1f5a445f|44=8.62|55=LFL|54=1|59=0|58=Replace from 900.0 @ 8.62 To 5000.0 @ 8.62|63=4|60=20150522-13:30:33.703|453=1|448=IB|447=D|452=1|10=149|
20150522-13:31:30.526: 8=FIX.4.4|9=0427|35=8|49=ADR_ARBITRAGE_IB_XNYS|56=LVBSG|34=181|52=20150522-13:31:30|50=XPUS|57=7369691|1=U1216799|207=SMART|6=8.62|11=-222ad08b11a0bbf6|14=1710|17=00010ff0.555f1ea6.01.01|21=1|150=F|31=8.62|151=3290|32=10|100=SMART|38=5000|39=1|37=22c3896df5a041c5|583=39d55a0b883d4dd8|111=100|40=2|41=46f75c5f1f5a445f|44=8.62|55=LFL|54=1|59=0|58=Replace from 900.0 @ 8.62 To 5000.0 @ 8.62|63=4|60=20150522-13:30:33.703|453=1|448=IB|447=D|452=1|10=111|
20150522-13:31:30.532: 8=FIX.4.4|9=0428|35=8|49=ADR_ARBITRAGE_IB_XNYS|56=LVBSG|34=182|52=20150522-13:31:30|50=XPUS|57=7369691|1=U1216799|207=SMART|6=8.62|11=-222ad08b11a0bbf6|14=1810|17=00010ff0.555f1ea7.01.01|21=1|150=F|31=8.62|151=3190|32=100|100=SMART|38=5000|39=1|37=22c3896df5a041c5|583=39d55a0b883d4dd8|111=100|40=2|41=46f75c5f1f5a445f|44=8.62|55=LFL|54=1|59=0|58=Replace from 900.0 @ 8.62 To 5000.0 @ 8.62|63=4|60=20150522-13:30:33.703|453=1|448=IB|447=D|452=1|10=162|
20150522-13:31:30.538: 8=FIX.4.4|9=0428|35=8|49=ADR_ARBITRAGE_IB_XNYS|56=LVBSG|34=183|52=20150522-13:31:30|50=XPUS|57=7369691|1=U1216799|207=SMART|6=8.62|11=-222ad08b11a0bbf6|14=1910|17=00010ff0.555f1eaa.01.01|21=1|150=F|31=8.62|151=3090|32=100|100=SMART|38=5000|39=1|37=22c3896df5a041c5|583=39d55a0b883d4dd8|111=100|40=2|41=46f75c5f1f5a445f|44=8.62|55=LFL|54=1|59=0|58=Replace from 900.0 @ 8.62 To 5000.0 @ 8.62|63=4|60=20150522-13:30:33.703|453=1|448=IB|447=D|452=1|10=205|
20150522-13:31:40.198: 8=FIX.4.4|9=278|35=G|34=140|49=LVBSG|50=7369691|52=20150522-13:31:40.198|56=ADR_ARBITRAGE_IB_XNYS|57=XPUS|1=U1216799|11=505bd521e9d46f7|21=1|38=4000|40=2|41=-24c78cca4047b846|44=17.49|54=2|55=ENI|59=0|60=20150522-13:31:40.198|63=4|100=SMART|111=100|583=f75c1edfe814ea1|453=1|448=IB|447=D|452=1|10=188|
20150522-13:31:40.208: 8=FIX.4.4|9=0438|35=8|49=ADR_ARBITRAGE_IB_XNYS|56=LVBSG|34=184|52=20150522-13:31:40|50=XPUS|57=7369691|1=U1216799|207=SMART|6=17.5602380952381|11=505bd521e9d46f7|14=2100|17=-225f15658515b15b|21=1|150=E|31=17.51|151=1900|32=100|100=SMART|38=4000|39=1|37=-48407fcc672fb3ad|583=f75c1edfe814ea1|111=100|40=2|41=-24c78cca4047b846|44=17.49|55=ENI|54=2|59=0|58=Replace from 4000.0 @ 17.51 To 4000.0 @ 17.49|63=4|60=20150522-13:31:40.203|453=1|448=IB|447=D|452=1|10=133|
20150522-13:31:40.723: 8=FIX.4.4|9=0432|35=8|49=ADR_ARBITRAGE_IB_XNYS|56=LVBSG|34=185|52=20150522-13:31:40|50=XPUS|57=7369691|1=U1216799|207=SMART|6=17.560238|11=505bd521e9d46f7|14=2100|17=81760.1432301500.1|21=1|150=5|31=17.51|151=1900|32=100|100=SMART|38=4000|39=1|37=-48407fcc672fb3ad|583=f75c1edfe814ea1|111=100|40=2|41=-24c78cca4047b846|44=17.49|55=ENI|54=2|59=0|58=Replace from 4000.0 @ 17.51 To 4000.0 @ 17.49|63=4|60=20150522-13:31:40.717|453=1|448=IB|447=D|452=1|10=154|
20150522-13:31:49.048: 8=FIX.4.4|9=269|35=D|34=141|49=LVBSG|50=7369691|52=20150522-13:31:49.048|56=ADR_ARBITRAGE_IB_XNYS|57=XPUS|1=U1216799|11=-1d2c04fa7565befe|21=1|38=700|40=2|44=45.72|54=1|55=EOC|59=0|60=20150522-13:31:49.048|63=4|100=SMART|111=100|207=SMART|583=75b3501f48044da1|453=1|448=IB|447=D|452=1|10=057|
20150522-13:31:49.069: 8=FIX.4.4|9=0373|35=8|49=ADR_ARBITRAGE_IB_XNYS|56=LVBSG|34=186|52=20150522-13:31:49|50=XPUS|57=7369691|1=U1216799|207=SMART|6=0|11=-1d2c04fa7565befe|14=0|17=-f1ed7b71cb5b9b2|21=1|150=A|31=0|151=700|32=0|100=SMART|38=700|39=A|37=-5068cb8c6ed6b5da|583=75b3501f48044da1|111=100|40=2|44=45.72|55=EOC|54=1|59=0|58=New Buy EOC 700.0 @ 45.72|63=4|60=20150522-13:31:49.054|453=1|448=IB|447=D|452=1|10=196|
20150522-13:31:49.262: 8=FIX.4.4|9=0375|35=8|49=ADR_ARBITRAGE_IB_XNYS|56=LVBSG|34=187|52=20150522-13:31:49|50=XPUS|57=7369691|1=U1216799|207=SMART|6=0|11=-1d2c04fa7565befe|14=0|17=81760.1432301509.1|21=1|150=0|31=0|151=700|32=0|100=SMART|38=700|39=0|37=-5068cb8c6ed6b5da|583=75b3501f48044da1|111=100|40=2|44=45.72|55=EOC|54=1|59=0|58=New Buy EOC 700.0 @ 45.72|63=4|60=20150522-13:31:49.254|453=1|448=IB|447=D|452=1|10=127|
20150522-13:31:49.349: 8=FIX.4.4|9=0392|35=8|49=ADR_ARBITRAGE_IB_XNYS|56=LVBSG|34=188|52=20150522-13:31:49|50=XPUS|57=7369691|1=U1216799|207=SMART|6=45.72|11=-1d2c04fa7565befe|14=100|17=00010ec8.555ee65f.01.01|21=1|150=F|31=45.72|151=600|32=100|100=SMART|38=700|39=1|37=-5068cb8c6ed6b5da|583=75b3501f48044da1|111=100|40=2|44=45.72|55=EOC|54=1|59=0|58=New Buy EOC 700.0 @ 45.72|63=4|60=20150522-13:31:49.254|453=1|448=IB|447=D|452=1|10=223|
20150522-13:31:49.352: 8=FIX.4.4|9=0392|35=8|49=ADR_ARBITRAGE_IB_XNYS|56=LVBSG|34=189|52=20150522-13:31:49|50=XPUS|57=7369691|1=U1216799|207=SMART|6=45.72|11=-1d2c04fa7565befe|14=200|17=00010ff0.555f1f3a.01.01|21=1|150=F|31=45.72|151=500|32=100|100=SMART|38=700|39=1|37=-5068cb8c6ed6b5da|583=75b3501f48044da1|111=100|40=2|44=45.72|55=EOC|54=1|59=0|58=New Buy EOC 700.0 @ 45.72|63=4|60=20150522-13:31:49.254|453=1|448=IB|447=D|452=1|10=210|
20150522-13:31:49.357: 8=FIX.4.4|9=0392|35=8|49=ADR_ARBITRAGE_IB_XNYS|56=LVBSG|34=190|52=20150522-13:31:49|50=XPUS|57=7369691|1=U1216799|207=SMART|6=45.72|11=-1d2c04fa7565befe|14=300|17=00013911.555ee29d.01.01|21=1|150=F|31=45.72|151=400|32=100|100=SMART|38=700|39=1|37=-5068cb8c6ed6b5da|583=75b3501f48044da1|111=100|40=2|44=45.72|55=EOC|54=1|59=0|58=New Buy EOC 700.0 @ 45.72|63=4|60=20150522-13:31:49.254|453=1|448=IB|447=D|452=1|10=116|
20150522-13:31:49.360: 8=FIX.4.4|9=0392|35=8|49=ADR_ARBITRAGE_IB_XNYS|56=LVBSG|34=191|52=20150522-13:31:49|50=XPUS|57=7369691|1=U1216799|207=SMART|6=45.72|11=-1d2c04fa7565befe|14=400|17=00013911.555ee29e.01.01|21=1|150=F|31=45.72|151=300|32=100|100=SMART|38=700|39=1|37=-5068cb8c6ed6b5da|583=75b3501f48044da1|111=100|40=2|44=45.72|55=EOC|54=1|59=0|58=New Buy EOC 700.0 @ 45.72|63=4|60=20150522-13:31:49.254|453=1|448=IB|447=D|452=1|10=118|
20150522-13:31:49.365: 8=FIX.4.4|9=0392|35=8|49=ADR_ARBITRAGE_IB_XNYS|56=LVBSG|34=192|52=20150522-13:31:49|50=XPUS|57=7369691|1=U1216799|207=SMART|6=45.72|11=-1d2c04fa7565befe|14=500|17=00013911.555ee29f.01.01|21=1|150=F|31=45.72|151=200|32=100|100=SMART|38=700|39=1|37=-5068cb8c6ed6b5da|583=75b3501f48044da1|111=100|40=2|44=45.72|55=EOC|54=1|59=0|58=New Buy EOC 700.0 @ 45.72|63=4|60=20150522-13:31:49.254|453=1|448=IB|447=D|452=1|10=120|
20150522-13:31:49.371: 8=FIX.4.4|9=0445|35=8|49=ADR_ARBITRAGE_IB_XNYS|56=LVBSG|34=193|52=20150522-13:31:49|50=XPUS|57=7369691|1=U1216799|207=SMART|6=17.55704545454546|11=505bd521e9d46f7|14=2200|17=00010ff0.555f1f3b.01.01|21=1|150=F|31=17.49|151=1800|32=100|100=SMART|38=4000|39=1|37=-48407fcc672fb3ad|583=f75c1edfe814ea1|111=100|40=2|41=-24c78cca4047b846|44=17.49|55=ENI|54=2|59=0|58=Replace from 4000.0 @ 17.51 To 4000.0 @ 17.49|63=4|60=20150522-13:31:40.717|453=1|448=IB|447=D|452=1|10=073|
20150522-13:31:49.377: 8=FIX.4.4|9=0444|35=8|49=ADR_ARBITRAGE_IB_XNYS|56=LVBSG|34=194|52=20150522-13:31:49|50=XPUS|57=7369691|1=U1216799|207=SMART|6=17.55644144144144|11=505bd521e9d46f7|14=2220|17=00010ff0.555f1f3c.01.01|21=1|150=F|31=17.49|151=1780|32=20|100=SMART|38=4000|39=1|37=-48407fcc672fb3ad|583=f75c1edfe814ea1|111=100|40=2|41=-24c78cca4047b846|44=17.49|55=ENI|54=2|59=0|58=Replace from 4000.0 @ 17.51 To 4000.0 @ 17.49|63=4|60=20150522-13:31:40.717|453=1|448=IB|447=D|452=1|10=024|
20150522-13:31:49.385: 8=FIX.4.4|9=0444|35=8|49=ADR_ARBITRAGE_IB_XNYS|56=LVBSG|34=195|52=20150522-13:31:49|50=XPUS|57=7369691|1=U1216799|207=SMART|6=17.55555555555556|11=505bd521e9d46f7|14=2250|17=00010ff0.555f1f3d.01.01|21=1|150=F|31=17.49|151=1750|32=30|100=SMART|38=4000|39=1|37=-48407fcc672fb3ad|583=f75c1edfe814ea1|111=100|40=2|41=-24c78cca4047b846|44=17.49|55=ENI|54=2|59=0|58=Replace from 4000.0 @ 17.51 To 4000.0 @ 17.49|63=4|60=20150522-13:31:40.717|453=1|448=IB|447=D|452=1|10=047|
20150522-13:31:49.390: 8=FIX.4.4|9=0443|35=8|49=ADR_ARBITRAGE_IB_XNYS|56=LVBSG|34=196|52=20150522-13:31:49|50=XPUS|57=7369691|1=U1216799|207=SMART|6=17.5535775862069|11=505bd521e9d46f7|14=2320|17=00010ff0.555f1f3e.01.01|21=1|150=F|31=17.49|151=1680|32=70|100=SMART|38=4000|39=1|37=-48407fcc672fb3ad|583=f75c1edfe814ea1|111=100|40=2|41=-24c78cca4047b846|44=17.49|55=ENI|54=2|59=0|58=Replace from 4000.0 @ 17.51 To 4000.0 @ 17.49|63=4|60=20150522-13:31:40.717|453=1|448=IB|447=D|452=1|10=001|
20150522-13:31:49.391: 8=FIX.4.4|9=0444|35=8|49=ADR_ARBITRAGE_IB_XNYS|56=LVBSG|34=197|52=20150522-13:31:49|50=XPUS|57=7369691|1=U1216799|207=SMART|6=17.55276595744681|11=505bd521e9d46f7|14=2350|17=00010ff0.555f1f3f.01.01|21=1|150=F|31=17.49|151=1650|32=30|100=SMART|38=4000|39=1|37=-48407fcc672fb3ad|583=f75c1edfe814ea1|111=100|40=2|41=-24c78cca4047b846|44=17.49|55=ENI|54=2|59=0|58=Replace from 4000.0 @ 17.51 To 4000.0 @ 17.49|63=4|60=20150522-13:31:40.717|453=1|448=IB|447=D|452=1|10=054|
20150522-13:31:49.397: 8=FIX.4.4|9=0444|35=8|49=ADR_ARBITRAGE_IB_XNYS|56=LVBSG|34=198|52=20150522-13:31:49|50=XPUS|57=7369691|1=U1216799|207=SMART|6=17.5478431372549|11=505bd521e9d46f7|14=2550|17=00010ff0.555f1f40.01.01|21=1|150=F|31=17.49|151=1450|32=200|100=SMART|38=4000|39=1|37=-48407fcc672fb3ad|583=f75c1edfe814ea1|111=100|40=2|41=-24c78cca4047b846|44=17.49|55=ENI|54=2|59=0|58=Replace from 4000.0 @ 17.51 To 4000.0 @ 17.49|63=4|60=20150522-13:31:40.717|453=1|448=IB|447=D|452=1|10=245|
20150522-13:31:49.401: 8=FIX.4.4|9=0445|35=8|49=ADR_ARBITRAGE_IB_XNYS|56=LVBSG|34=199|52=20150522-13:31:49|50=XPUS|57=7369691|1=U1216799|207=SMART|6=17.54566037735849|11=505bd521e9d46f7|14=2650|17=00010ff0.555f1f41.01.01|21=1|150=F|31=17.49|151=1350|32=100|100=SMART|38=4000|39=1|37=-48407fcc672fb3ad|583=f75c1edfe814ea1|111=100|40=2|41=-24c78cca4047b846|44=17.49|55=ENI|54=2|59=0|58=Replace from 4000.0 @ 17.51 To 4000.0 @ 17.49|63=4|60=20150522-13:31:40.717|453=1|448=IB|447=D|452=1|10=049|
20150522-13:31:49.404: 8=FIX.4.4|9=0445|35=8|49=ADR_ARBITRAGE_IB_XNYS|56=LVBSG|34=200|52=20150522-13:31:49|50=XPUS|57=7369691|1=U1216799|207=SMART|6=17.54175438596491|11=505bd521e9d46f7|14=2850|17=00010ff0.555f1f42.01.01|21=1|150=F|31=17.49|151=1150|32=200|100=SMART|38=4000|39=1|37=-48407fcc672fb3ad|583=f75c1edfe814ea1|111=100|40=2|41=-24c78cca4047b846|44=17.49|55=ENI|54=2|59=0|58=Replace from 4000.0 @ 17.51 To 4000.0 @ 17.49|63=4|60=20150522-13:31:40.717|453=1|448=IB|447=D|452=1|10=033|
20150522-13:31:49.418: 8=FIX.4.4|9=0433|35=8|49=ADR_ARBITRAGE_IB_XNYS|56=LVBSG|34=201|52=20150522-13:31:49|50=XPUS|57=7369691|1=U1216799|207=SMART|6=17.54|11=505bd521e9d46f7|14=2950|17=00010ff0.555f1f43.01.01|21=1|150=F|31=17.49|151=1050|32=100|100=SMART|38=4000|39=1|37=-48407fcc672fb3ad|583=f75c1edfe814ea1|111=100|40=2|41=-24c78cca4047b846|44=17.49|55=ENI|54=2|59=0|58=Replace from 4000.0 @ 17.51 To 4000.0 @ 17.49|63=4|60=20150522-13:31:40.717|453=1|448=IB|447=D|452=1|10=161|
20150522-13:31:49.426: 8=FIX.4.4|9=0392|35=8|49=ADR_ARBITRAGE_IB_XNYS|56=LVBSG|34=202|52=20150522-13:31:49|50=XPUS|57=7369691|1=U1216799|207=SMART|6=45.72|11=-1d2c04fa7565befe|14=600|17=00013911.555ee2a0.01.01|21=1|150=F|31=45.72|151=100|32=100|100=SMART|38=700|39=1|37=-5068cb8c6ed6b5da|583=75b3501f48044da1|111=100|40=2|44=45.72|55=EOC|54=1|59=0|58=New Buy EOC 700.0 @ 45.72|63=4|60=20150522-13:31:49.254|453=1|448=IB|447=D|452=1|10=098|
20150522-13:31:49.430: 8=FIX.4.4|9=0390|35=8|49=ADR_ARBITRAGE_IB_XNYS|56=LVBSG|34=203|52=20150522-13:31:49|50=XPUS|57=7369691|1=U1216799|207=SMART|6=45.72|11=-1d2c04fa7565befe|14=700|17=00013911.555ee2a1.01.01|21=1|150=F|31=45.72|151=0|32=100|100=SMART|38=700|39=2|37=-5068cb8c6ed6b5da|583=75b3501f48044da1|111=100|40=2|44=45.72|55=EOC|54=1|59=0|58=New Buy EOC 700.0 @ 45.72|63=4|60=20150522-13:31:49.254|453=1|448=IB|447=D|452=1|10=003|
20150522-13:31:57.378: 8=FIX.4.4|9=268|35=D|34=142|49=LVBSG|50=7369691|52=20150522-13:31:57.378|56=ADR_ARBITRAGE_IB_XNYS|57=XPUS|1=U1216799|11=-52f0dc102e0eb0a4|21=1|38=300|40=2|44=70.4|54=1|55=BCH|59=0|60=20150522-13:31:57.377|63=4|100=SMART|111=100|207=SMART|583=6e4c1fe2dbb54545|453=1|448=IB|447=D|452=1|10=079|
20150522-13:31:57.410: 8=FIX.4.4|9=0369|35=8|49=ADR_ARBITRAGE_IB_XNYS|56=LVBSG|34=204|52=20150522-13:31:57|50=XPUS|57=7369691|1=U1216799|207=SMART|6=0|11=-52f0dc102e0eb0a4|14=0|17=617f5286c3714242|21=1|150=A|31=0|151=300|32=0|100=SMART|38=300|39=A|37=162da0e07194256|583=6e4c1fe2dbb54545|111=100|40=2|44=70.4|55=BCH|54=1|59=0|58=New Buy BCH 300.0 @ 70.4|63=4|60=20150522-13:31:57.391|453=1|448=IB|447=D|452=1|10=022|
20150522-13:31:57.591: 8=FIX.4.4|9=0371|35=8|49=ADR_ARBITRAGE_IB_XNYS|56=LVBSG|34=205|52=20150522-13:31:57|50=XPUS|57=7369691|1=U1216799|207=SMART|6=0|11=-52f0dc102e0eb0a4|14=0|17=81760.1432301517.1|21=1|150=0|31=0|151=300|32=0|100=SMART|38=300|39=0|37=162da0e07194256|583=6e4c1fe2dbb54545|111=100|40=2|44=70.4|55=BCH|54=1|59=0|58=New Buy BCH 300.0 @ 70.4|63=4|60=20150522-13:31:57.586|453=1|448=IB|447=D|452=1|10=223|
20150522-13:31:57.594: 8=FIX.4.4|9=288|35=G|34=143|49=LVBSG|50=7369691|52=20150522-13:31:57.594|56=ADR_ARBITRAGE_IB_XNYS|57=XPUS|1=U1216799|11=203607236b10481d|21=1|38=500|40=2|41=-52f0dc102e0eb0a4|44=70.4|54=1|55=BCH|59=0|60=20150522-13:31:57.594|63=4|100=SMART|111=100|207=SMART|583=6e4c1fe2dbb54545|453=1|448=IB|447=D|452=1|10=140|
20150522-13:31:57.606: 8=FIX.4.4|9=0406|35=8|49=ADR_ARBITRAGE_IB_XNYS|56=LVBSG|34=206|52=20150522-13:31:57|50=XPUS|57=7369691|1=U1216799|207=SMART|6=0|11=203607236b10481d|14=0|17=2fef7a632b4149f9|21=1|150=E|31=0|151=300|32=0|100=SMART|38=500|39=0|37=162da0e07194256|583=6e4c1fe2dbb54545|111=100|40=2|41=-52f0dc102e0eb0a4|44=70.4|55=BCH|54=1|59=0|58=Replace from 300.0 @ 70.4 To 500.0 @ 70.4|63=4|60=20150522-13:31:57.601|453=1|448=IB|447=D|452=1|10=097|
20150522-13:31:57.776: 8=FIX.4.4|9=0425|35=8|49=ADR_ARBITRAGE_IB_XNYS|56=LVBSG|34=207|52=20150522-13:31:57|50=XPUS|57=7369691|1=U1216799|207=SMART|6=70.38|11=203607236b10481d|14=100|17=0000d322.aabe42d4.01.01|21=1|150=F|31=70.38|151=400|32=100|100=SMART|38=500|39=1|37=162da0e07194256|583=6e4c1fe2dbb54545|111=100|40=2|41=-52f0dc102e0eb0a4|44=70.4|55=BCH|54=1|59=0|58=Replace from 300.0 @ 70.4 To 500.0 @ 70.4|63=4|60=20150522-13:31:57.611|453=1|448=IB|447=D|452=1|10=238|
20150522-13:31:57.779: 8=FIX.4.4|9=0436|35=8|49=ADR_ARBITRAGE_IB_XNYS|56=LVBSG|34=208|52=20150522-13:31:57|50=XPUS|57=7369691|1=U1216799|207=SMART|6=70.38346405228758|11=203607236b10481d|14=153|17=00010ff0.555f1f6a.01.01|21=1|150=F|31=70.39|151=347|32=53|100=SMART|38=500|39=1|37=162da0e07194256|583=6e4c1fe2dbb54545|111=100|40=2|41=-52f0dc102e0eb0a4|44=70.4|55=BCH|54=1|59=0|58=Replace from 300.0 @ 70.4 To 500.0 @ 70.4|63=4|60=20150522-13:31:57.611|453=1|448=IB|447=D|452=1|10=047|
20150522-13:31:57.784: 8=FIX.4.4|9=0424|35=8|49=ADR_ARBITRAGE_IB_XNYS|56=LVBSG|34=209|52=20150522-13:31:57|50=XPUS|57=7369691|1=U1216799|207=SMART|6=70.39|11=203607236b10481d|14=253|17=00010ff0.555f1f6b.01.01|21=1|150=F|31=70.4|151=247|32=100|100=SMART|38=500|39=1|37=162da0e07194256|583=6e4c1fe2dbb54545|111=100|40=2|41=-52f0dc102e0eb0a4|44=70.4|55=BCH|54=1|59=0|58=Replace from 300.0 @ 70.4 To 500.0 @ 70.4|63=4|60=20150522-13:31:57.611|453=1|448=IB|447=D|452=1|10=170|
20150522-13:31:57.791: 8=FIX.4.4|9=0435|35=8|49=ADR_ARBITRAGE_IB_XNYS|56=LVBSG|34=210|52=20150522-13:31:57|50=XPUS|57=7369691|1=U1216799|207=SMART|6=70.39156666666668|11=203607236b10481d|14=300|17=00010ff0.555f1f6c.01.01|21=1|150=F|31=70.4|151=200|32=47|100=SMART|38=500|39=1|37=162da0e07194256|583=6e4c1fe2dbb54545|111=100|40=2|41=-52f0dc102e0eb0a4|44=70.4|55=BCH|54=1|59=0|58=Replace from 300.0 @ 70.4 To 500.0 @ 70.4|63=4|60=20150522-13:31:57.611|453=1|448=IB|447=D|452=1|10=241|
20150522-13:31:58.112: 8=FIX.4.4|9=0211|35=9|49=ADR_ARBITRAGE_IB_XNYS|56=LVBSG|34=211|52=20150522-13:31:58|115=IB|102=1|1=U1216799|39=2|37=162da0e07194256|583=6e4c1fe2dbb54545|434=2|41=-52f0dc102e0eb0a4|11=203607236b10481d|58=Order is being cancelled|10=218|
20150522-13:31:59.429: 8=FIX.4.4|9=0428|35=8|49=ADR_ARBITRAGE_IB_XNYS|56=LVBSG|34=212|52=20150522-13:31:59|50=XPUS|57=7369691|1=U1216799|207=SMART|6=8.62|11=-222ad08b11a0bbf6|14=2010|17=00010ff0.555f1f84.01.01|21=1|150=F|31=8.62|151=2990|32=100|100=SMART|38=5000|39=1|37=22c3896df5a041c5|583=39d55a0b883d4dd8|111=100|40=2|41=46f75c5f1f5a445f|44=8.62|55=LFL|54=1|59=0|58=Replace from 900.0 @ 8.62 To 5000.0 @ 8.62|63=4|60=20150522-13:30:33.703|453=1|448=IB|447=D|452=1|10=124|
20150522-13:32:00.323: 8=FIX.4.4|9=271|35=D|34=144|49=LVBSG|50=7369691|52=20150522-13:32:00.323|56=ADR_ARBITRAGE_IB_XNYS|57=XPUS|1=U1216799|11=-7674b47f0991bcca|21=1|38=500|40=2|44=21.92|54=2|55=BSAC|59=0|60=20150522-13:32:00.323|63=4|100=SMART|111=100|207=SMART|583=-3eec7fc9e4cebac8|453=1|448=IB|447=D|452=1|10=137|
20150522-13:32:00.334: 8=FIX.4.4|9=0376|35=8|49=ADR_ARBITRAGE_IB_XNYS|56=LVBSG|34=213|52=20150522-13:32:00|50=XPUS|57=7369691|1=U1216799|207=SMART|6=0|11=-7674b47f0991bcca|14=0|17=-17f03bf5b942bd5f|21=1|150=A|31=0|151=500|32=0|100=SMART|38=500|39=A|37=a2a9f7d3aa7443e|583=-3eec7fc9e4cebac8|111=100|40=2|44=21.92|55=BSAC|54=2|59=0|58=New Sell BSAC 500.0 @ 21.92|63=4|60=20150522-13:32:00.328|453=1|448=IB|447=D|452=1|10=039|
20150522-13:32:00.515: 8=FIX.4.4|9=0377|35=8|49=ADR_ARBITRAGE_IB_XNYS|56=LVBSG|34=214|52=20150522-13:32:00|50=XPUS|57=7369691|1=U1216799|207=SMART|6=0|11=-7674b47f0991bcca|14=0|17=81760.1432301520.1|21=1|150=0|31=0|151=500|32=0|100=SMART|38=500|39=0|37=a2a9f7d3aa7443e|583=-3eec7fc9e4cebac8|111=100|40=2|44=21.92|55=BSAC|54=2|59=0|58=New Sell BSAC 500.0 @ 21.92|63=4|60=20150522-13:32:00.509|453=1|448=IB|447=D|452=1|10=211|
20150522-13:32:00.518: 8=FIX.4.4|9=282|35=G|34=145|49=LVBSG|50=7369691|52=20150522-13:32:00.517|56=ADR_ARBITRAGE_IB_XNYS|57=XPUS|1=U1216799|11=-efb80c3ed5bbaeb|21=1|38=2000|40=2|41=-7674b47f0991bcca|44=21.92|54=2|55=BSAC|59=0|60=20150522-13:32:00.517|63=4|100=SMART|111=100|583=-3eec7fc9e4cebac8|453=1|448=IB|447=D|452=1|10=077|
20150522-13:32:00.531: 8=FIX.4.4|9=0414|35=8|49=ADR_ARBITRAGE_IB_XNYS|56=LVBSG|34=215|52=20150522-13:32:00|50=XPUS|57=7369691|1=U1216799|207=SMART|6=0|11=-efb80c3ed5bbaeb|14=0|17=-19aef9bfe17ebb5f|21=1|150=E|31=0|151=500|32=0|100=SMART|38=2000|39=0|37=a2a9f7d3aa7443e|583=-3eec7fc9e4cebac8|111=100|40=2|41=-7674b47f0991bcca|44=21.92|55=BSAC|54=2|59=0|58=Replace from 500.0 @ 21.92 To 2000.0 @ 21.92|63=4|60=20150522-13:32:00.526|453=1|448=IB|447=D|452=1|10=219|
20150522-13:32:00.697: 8=FIX.4.4|9=0433|35=8|49=ADR_ARBITRAGE_IB_XNYS|56=LVBSG|34=216|52=20150522-13:32:00|50=XPUS|57=7369691|1=U1216799|207=SMART|6=21.94|11=-efb80c3ed5bbaeb|14=100|17=0000d322.aabe42d8.02.01|21=1|150=F|31=21.94|151=1900|32=100|100=SMART|38=2000|39=1|37=a2a9f7d3aa7443e|583=-3eec7fc9e4cebac8|111=100|40=2|41=-7674b47f0991bcca|44=21.92|55=BSAC|54=2|59=0|58=Replace from 500.0 @ 21.92 To 2000.0 @ 21.92|63=4|60=20150522-13:32:00.538|453=1|448=IB|447=D|452=1|10=179|
20150522-13:32:00.702: 8=FIX.4.4|9=0437|35=8|49=ADR_ARBITRAGE_IB_XNYS|56=LVBSG|34=217|52=20150522-13:32:00|50=XPUS|57=7369691|1=U1216799|207=SMART|6=21.9352|11=-efb80c3ed5bbaeb|14=400|17=0000db5b.aabe42b7.01.01|21=1|150=F|31=21.9336|151=1600|32=300|100=SMART|38=2000|39=1|37=a2a9f7d3aa7443e|583=-3eec7fc9e4cebac8|111=100|40=2|41=-7674b47f0991bcca|44=21.92|55=BSAC|54=2|59=0|58=Replace from 500.0 @ 21.92 To 2000.0 @ 21.92|63=4|60=20150522-13:32:00.538|453=1|448=IB|447=D|452=1|10=230|
20150522-13:32:00.708: 8=FIX.4.4|9=0438|35=8|49=ADR_ARBITRAGE_IB_XNYS|56=LVBSG|34=218|52=20150522-13:32:00|50=XPUS|57=7369691|1=U1216799|207=SMART|6=21.93488|11=-efb80c3ed5bbaeb|14=500|17=0000db5b.aabe42b9.01.01|21=1|150=F|31=21.9336|151=1500|32=100|100=SMART|38=2000|39=1|37=a2a9f7d3aa7443e|583=-3eec7fc9e4cebac8|111=100|40=2|41=-7674b47f0991bcca|44=21.92|55=BSAC|54=2|59=0|58=Replace from 500.0 @ 21.92 To 2000.0 @ 21.92|63=4|60=20150522-13:32:00.538|453=1|448=IB|447=D|452=1|10=037|
20150522-13:32:01.044: 8=FIX.4.4|9=0212|35=9|49=ADR_ARBITRAGE_IB_XNYS|56=LVBSG|34=219|52=20150522-13:32:01|115=IB|102=1|1=U1216799|39=2|37=a2a9f7d3aa7443e|583=-3eec7fc9e4cebac8|434=2|41=-7674b47f0991bcca|11=-efb80c3ed5bbaeb|58=Order is being cancelled|10=051|
20150522-13:32:03.520: 8=FIX.4.4|9=0428|35=8|49=ADR_ARBITRAGE_IB_XNYS|56=LVBSG|34=220|52=20150522-13:32:03|50=XPUS|57=7369691|1=U1216799|207=SMART|6=8.62|11=-222ad08b11a0bbf6|14=2110|17=00010ff0.555f1f92.01.01|21=1|150=F|31=8.62|151=2890|32=100|100=SMART|38=5000|39=1|37=22c3896df5a041c5|583=39d55a0b883d4dd8|111=100|40=2|41=46f75c5f1f5a445f|44=8.62|55=LFL|54=1|59=0|58=Replace from 900.0 @ 8.62 To 5000.0 @ 8.62|63=4|60=20150522-13:30:33.703|453=1|448=IB|447=D|452=1|10=112|
20150522-13:32:09.144: 8=FIX.4.4|9=0428|35=8|49=ADR_ARBITRAGE_IB_XNYS|56=LVBSG|34=221|52=20150522-13:32:09|50=XPUS|57=7369691|1=U1216799|207=SMART|6=8.62|11=-222ad08b11a0bbf6|14=2210|17=00010ff0.555f1faa.01.01|21=1|150=F|31=8.62|151=2790|32=100|100=SMART|38=5000|39=1|37=22c3896df5a041c5|583=39d55a0b883d4dd8|111=100|40=2|41=46f75c5f1f5a445f|44=8.62|55=LFL|54=1|59=0|58=Replace from 900.0 @ 8.62 To 5000.0 @ 8.62|63=4|60=20150522-13:30:33.703|453=1|448=IB|447=D|452=1|10=206|
20150522-13:32:30.495: 8=FIX.4.4|9=0428|35=8|49=ADR_ARBITRAGE_IB_XNYS|56=LVBSG|34=222|52=20150522-13:32:30|50=XPUS|57=7369691|1=U1216799|207=SMART|6=8.62|11=-222ad08b11a0bbf6|14=2310|17=00010ff0.555f202a.01.01|21=1|150=F|31=8.62|151=2690|32=100|100=SMART|38=5000|39=1|37=22c3896df5a041c5|583=39d55a0b883d4dd8|111=100|40=2|41=46f75c5f1f5a445f|44=8.62|55=LFL|54=1|59=0|58=Replace from 900.0 @ 8.62 To 5000.0 @ 8.62|63=4|60=20150522-13:30:33.703|453=1|448=IB|447=D|452=1|10=101|
20150522-13:32:38.224: 8=FIX.4.4|9=0443|35=8|49=ADR_ARBITRAGE_IB_XNYS|56=LVBSG|34=223|52=20150522-13:32:38|50=XPUS|57=7369691|1=U1216799|207=SMART|6=17.5383606557377|11=505bd521e9d46f7|14=3050|17=00010ff0.555f2077.01.01|21=1|150=F|31=17.49|151=950|32=100|100=SMART|38=4000|39=1|37=-48407fcc672fb3ad|583=f75c1edfe814ea1|111=100|40=2|41=-24c78cca4047b846|44=17.49|55=ENI|54=2|59=0|58=Replace from 4000.0 @ 17.51 To 4000.0 @ 17.49|63=4|60=20150522-13:31:40.717|453=1|448=IB|447=D|452=1|10=143|
20150522-13:32:38.939: 8=FIX.4.4|9=268|35=D|34=146|49=LVBSG|50=7369691|52=20150522-13:32:38.938|56=ADR_ARBITRAGE_IB_XNYS|57=XPUS|1=U1216799|11=4570414ed04e4507|21=1|38=200|40=2|44=45.73|54=1|55=EOC|59=0|60=20150522-13:32:38.938|63=4|100=SMART|111=100|207=SMART|583=75b3501f48044da1|453=1|448=IB|447=D|452=1|10=039|
20150522-13:32:38.949: 8=FIX.4.4|9=0372|35=8|49=ADR_ARBITRAGE_IB_XNYS|56=LVBSG|34=224|52=20150522-13:32:38|50=XPUS|57=7369691|1=U1216799|207=SMART|6=0|11=4570414ed04e4507|14=0|17=47bfb3ac22384a49|21=1|150=A|31=0|151=200|32=0|100=SMART|38=200|39=A|37=-5c438bc5fa8db760|583=75b3501f48044da1|111=100|40=2|44=45.73|55=EOC|54=1|59=0|58=New Buy EOC 200.0 @ 45.73|63=4|60=20150522-13:32:38.944|453=1|448=IB|447=D|452=1|10=010|
20150522-13:32:39.123: 8=FIX.4.4|9=0374|35=8|49=ADR_ARBITRAGE_IB_XNYS|56=LVBSG|34=225|52=20150522-13:32:39|50=XPUS|57=7369691|1=U1216799|207=SMART|6=0|11=4570414ed04e4507|14=0|17=81760.1432301559.1|21=1|150=0|31=0|151=200|32=0|100=SMART|38=200|39=0|37=-5c438bc5fa8db760|583=75b3501f48044da1|111=100|40=2|44=45.73|55=EOC|54=1|59=0|58=New Buy EOC 200.0 @ 45.73|63=4|60=20150522-13:32:39.117|453=1|448=IB|447=D|452=1|10=028|
20150522-13:32:39.485: 8=FIX.4.4|9=0389|35=8|49=ADR_ARBITRAGE_IB_XNYS|56=LVBSG|34=226|52=20150522-13:32:39|50=XPUS|57=7369691|1=U1216799|207=SMART|6=45.71|11=4570414ed04e4507|14=200|17=0000fed1.aabe42f0.01.01|21=1|150=F|31=45.71|151=0|32=200|100=SMART|38=200|39=2|37=-5c438bc5fa8db760|583=75b3501f48044da1|111=100|40=2|44=45.73|55=EOC|54=1|59=0|58=New Buy EOC 200.0 @ 45.73|63=4|60=20150522-13:32:39.117|453=1|448=IB|447=D|452=1|10=152|
20150522-13:32:43.126: 8=FIX.4.4|9=290|35=G|34=147|49=LVBSG|50=7369691|52=20150522-13:32:43.125|56=ADR_ARBITRAGE_IB_XNYS|57=XPUS|1=U1216799|11=-76f638408105b673|21=1|38=5000|40=2|41=-222ad08b11a0bbf6|44=8.64|54=1|55=LFL|59=0|60=20150522-13:32:43.125|63=4|100=SMART|111=100|207=SMART|583=39d55a0b883d4dd8|453=1|448=IB|447=D|452=1|10=210|
20150522-13:32:43.138: 8=FIX.4.4|9=0423|35=8|49=ADR_ARBITRAGE_IB_XNYS|56=LVBSG|34=227|52=20150522-13:32:43|50=XPUS|57=7369691|1=U1216799|207=SMART|6=8.62|11=-76f638408105b673|14=2310|17=599a75e458944493|21=1|150=E|31=8.62|151=2690|32=100|100=SMART|38=5000|39=1|37=22c3896df5a041c5|583=39d55a0b883d4dd8|111=100|40=2|41=-222ad08b11a0bbf6|44=8.64|55=LFL|54=1|59=0|58=Replace from 5000.0 @ 8.62 To 5000.0 @ 8.64|63=4|60=20150522-13:32:43.132|453=1|448=IB|447=D|452=1|10=138|
20150522-13:32:43.665: 8=FIX.4.4|9=0425|35=8|49=ADR_ARBITRAGE_IB_XNYS|56=LVBSG|34=228|52=20150522-13:32:43|50=XPUS|57=7369691|1=U1216799|207=SMART|6=8.62|11=-76f638408105b673|14=2310|17=81760.1432301563.1|21=1|150=5|31=8.62|151=2690|32=100|100=SMART|38=5000|39=1|37=22c3896df5a041c5|583=39d55a0b883d4dd8|111=100|40=2|41=-222ad08b11a0bbf6|44=8.64|55=LFL|54=1|59=0|58=Replace from 5000.0 @ 8.62 To 5000.0 @ 8.64|63=4|60=20150522-13:32:43.660|453=1|448=IB|447=D|452=1|10=087|
20150522-13:32:46.220: 8=FIX.4.4|9=0442|35=8|49=ADR_ARBITRAGE_IB_XNYS|56=LVBSG|34=229|52=20150522-13:32:46|50=XPUS|57=7369691|1=U1216799|207=SMART|6=8.62082987551867|11=-76f638408105b673|14=2410|17=00010ff0.555f2094.01.01|21=1|150=F|31=8.64|151=2590|32=100|100=SMART|38=5000|39=1|37=22c3896df5a041c5|583=39d55a0b883d4dd8|111=100|40=2|41=-222ad08b11a0bbf6|44=8.64|55=LFL|54=1|59=0|58=Replace from 5000.0 @ 8.62 To 5000.0 @ 8.64|63=4|60=20150522-13:32:43.660|453=1|448=IB|447=D|452=1|10=109|
20150522-13:32:47.427: 8=FIX.4.4|9=0442|35=8|49=ADR_ARBITRAGE_IB_XNYS|56=LVBSG|34=230|52=20150522-13:32:47|50=XPUS|57=7369691|1=U1216799|207=SMART|6=8.62159362549801|11=-76f638408105b673|14=2510|17=00010ff0.555f20a4.01.01|21=1|150=F|31=8.64|151=2490|32=100|100=SMART|38=5000|39=1|37=22c3896df5a041c5|583=39d55a0b883d4dd8|111=100|40=2|41=-222ad08b11a0bbf6|44=8.64|55=LFL|54=1|59=0|58=Replace from 5000.0 @ 8.62 To 5000.0 @ 8.64|63=4|60=20150522-13:32:43.660|453=1|448=IB|447=D|452=1|10=129|
20150522-13:32:47.770: 8=FIX.4.4|9=0442|35=8|49=ADR_ARBITRAGE_IB_XNYS|56=LVBSG|34=231|52=20150522-13:32:47|50=XPUS|57=7369691|1=U1216799|207=SMART|6=8.62229885057471|11=-76f638408105b673|14=2610|17=00010ff0.555f20a5.01.01|21=1|150=F|31=8.64|151=2390|32=100|100=SMART|38=5000|39=1|37=22c3896df5a041c5|583=39d55a0b883d4dd8|111=100|40=2|41=-222ad08b11a0bbf6|44=8.64|55=LFL|54=1|59=0|58=Replace from 5000.0 @ 8.62 To 5000.0 @ 8.64|63=4|60=20150522-13:32:43.660|453=1|448=IB|447=D|452=1|10=136|
20150522-13:32:51.379: 8=FIX.4.4|9=277|35=G|34=148|49=LVBSG|50=7369691|52=20150522-13:32:51.379|56=ADR_ARBITRAGE_IB_XNYS|57=XPUS|1=U1216799|11=-830416d7429bab8|21=1|38=4000|40=2|41=505bd521e9d46f7|44=17.48|54=2|55=ENI|59=0|60=20150522-13:32:51.379|63=4|100=SMART|111=100|583=f75c1edfe814ea1|453=1|448=IB|447=D|452=1|10=101|
20150522-13:32:51.390: 8=FIX.4.4|9=0436|35=8|49=ADR_ARBITRAGE_IB_XNYS|56=LVBSG|34=232|52=20150522-13:32:51|50=XPUS|57=7369691|1=U1216799|207=SMART|6=17.5383606557377|11=-830416d7429bab8|14=3050|17=-27d4a667d065b6e1|21=1|150=E|31=17.49|151=950|32=100|100=SMART|38=4000|39=1|37=-48407fcc672fb3ad|583=f75c1edfe814ea1|111=100|40=2|41=505bd521e9d46f7|44=17.48|55=ENI|54=2|59=0|58=Replace from 4000.0 @ 17.49 To 4000.0 @ 17.48|63=4|60=20150522-13:32:51.385|453=1|448=IB|447=D|452=1|10=128|
20150522-13:32:51.406: 8=FIX.4.4|9=0431|35=8|49=ADR_ARBITRAGE_IB_XNYS|56=LVBSG|34=233|52=20150522-13:32:51|50=XPUS|57=7369691|1=U1216799|207=SMART|6=17.538361|11=505bd521e9d46f7|14=3050|17=81760.1432301571.1|21=1|150=5|31=17.49|151=950|32=100|100=SMART|38=4000|39=1|37=-48407fcc672fb3ad|583=f75c1edfe814ea1|111=100|40=2|41=-24c78cca4047b846|44=17.48|55=ENI|54=2|59=0|58=Replace from 4000.0 @ 17.49 To 4000.0 @ 17.48|63=4|60=20150522-13:32:51.397|453=1|448=IB|447=D|452=1|10=140|
20150522-13:32:51.414: 8=FIX.4.4|9=0445|35=8|49=ADR_ARBITRAGE_IB_XNYS|56=LVBSG|34=234|52=20150522-13:32:51|50=XPUS|57=7369691|1=U1216799|207=SMART|6=17.52878356164383|11=-830416d7429bab8|14=3650|17=0000da28.555f2917.01.01|21=1|150=F|31=17.4801|151=350|32=600|100=SMART|38=4000|39=1|37=-48407fcc672fb3ad|583=f75c1edfe814ea1|111=100|40=2|41=505bd521e9d46f7|44=17.48|55=ENI|54=2|59=0|58=Replace from 4000.0 @ 17.49 To 4000.0 @ 17.48|63=4|60=20150522-13:32:51.400|453=1|448=IB|447=D|452=1|10=196|
20150522-13:32:51.415: 8=FIX.4.4|9=0442|35=8|49=ADR_ARBITRAGE_IB_XNYS|56=LVBSG|34=235|52=20150522-13:32:51|50=XPUS|57=7369691|1=U1216799|207=SMART|6=17.52812432432432|11=-830416d7429bab8|14=3700|17=00016e00.555ee0fa.01.01|21=1|150=F|31=17.48|151=300|32=50|100=SMART|38=4000|39=1|37=-48407fcc672fb3ad|583=f75c1edfe814ea1|111=100|40=2|41=505bd521e9d46f7|44=17.48|55=ENI|54=2|59=0|58=Replace from 4000.0 @ 17.49 To 4000.0 @ 17.48|63=4|60=20150522-13:32:51.400|453=1|448=IB|447=D|452=1|10=100|
20150522-13:32:51.443: 8=FIX.4.4|9=0443|35=8|49=ADR_ARBITRAGE_IB_XNYS|56=LVBSG|34=236|52=20150522-13:32:51|50=XPUS|57=7369691|1=U1216799|207=SMART|6=17.52685789473684|11=-830416d7429bab8|14=3800|17=00010ff0.555f20ba.01.01|21=1|150=F|31=17.48|151=200|32=100|100=SMART|38=4000|39=1|37=-48407fcc672fb3ad|583=f75c1edfe814ea1|111=100|40=2|41=505bd521e9d46f7|44=17.48|55=ENI|54=2|59=0|58=Replace from 4000.0 @ 17.49 To 4000.0 @ 17.48|63=4|60=20150522-13:32:51.400|453=1|448=IB|447=D|452=1|10=178|
20150522-13:32:51.448: 8=FIX.4.4|9=0443|35=8|49=ADR_ARBITRAGE_IB_XNYS|56=LVBSG|34=237|52=20150522-13:32:51|50=XPUS|57=7369691|1=U1216799|207=SMART|6=17.52565641025641|11=-830416d7429bab8|14=3900|17=00010ff0.555f20bb.01.01|21=1|150=F|31=17.48|151=100|32=100|100=SMART|38=4000|39=1|37=-48407fcc672fb3ad|583=f75c1edfe814ea1|111=100|40=2|41=505bd521e9d46f7|44=17.48|55=ENI|54=2|59=0|58=Replace from 4000.0 @ 17.49 To 4000.0 @ 17.48|63=4|60=20150522-13:32:51.400|453=1|448=IB|447=D|452=1|10=150|
20150522-13:32:51.594: 8=FIX.4.4|9=0442|35=8|49=ADR_ARBITRAGE_IB_XNYS|56=LVBSG|34=238|52=20150522-13:32:51|50=XPUS|57=7369691|1=U1216799|207=SMART|6=8.62295202952029|11=-76f638408105b673|14=2710|17=00010ff0.555f20bc.01.01|21=1|150=F|31=8.64|151=2290|32=100|100=SMART|38=5000|39=1|37=22c3896df5a041c5|583=39d55a0b883d4dd8|111=100|40=2|41=-222ad08b11a0bbf6|44=8.64|55=LFL|54=1|59=0|58=Replace from 5000.0 @ 8.62 To 5000.0 @ 8.64|63=4|60=20150522-13:32:43.660|453=1|448=IB|447=D|452=1|10=174|
20150522-13:32:51.957: 8=FIX.4.4|9=0430|35=8|49=ADR_ARBITRAGE_IB_XNYS|56=LVBSG|34=239|52=20150522-13:32:51|50=XPUS|57=7369691|1=U1216799|207=SMART|6=17.525656|11=-830416d7429bab8|14=3900|17=81760.1432301571.6|21=1|150=5|31=17.48|151=100|32=100|100=SMART|38=4000|39=1|37=-48407fcc672fb3ad|583=f75c1edfe814ea1|111=100|40=2|41=505bd521e9d46f7|44=17.48|55=ENI|54=2|59=0|58=Replace from 4000.0 @ 17.49 To 4000.0 @ 17.48|63=4|60=20150522-13:32:51.939|453=1|448=IB|447=D|452=1|10=044|
20150522-13:32:53.429: 8=FIX.4.4|9=268|35=D|34=149|49=LVBSG|50=7369691|52=20150522-13:32:53.429|56=ADR_ARBITRAGE_IB_XNYS|57=XPUS|1=U1216799|11=3306265d5ac34c7b|21=1|38=700|40=2|44=45.73|54=1|55=EOC|59=0|60=20150522-13:32:53.429|63=4|100=SMART|111=100|207=SMART|583=75b3501f48044da1|453=1|448=IB|447=D|452=1|10=125|
20150522-13:32:53.441: 8=FIX.4.4|9=0372|35=8|49=ADR_ARBITRAGE_IB_XNYS|56=LVBSG|34=240|52=20150522-13:32:53|50=XPUS|57=7369691|1=U1216799|207=SMART|6=0|11=3306265d5ac34c7b|14=0|17=-331dbe736e90bcde|21=1|150=A|31=0|151=700|32=0|100=SMART|38=700|39=A|37=7ad2209080544142|583=75b3501f48044da1|111=100|40=2|44=45.73|55=EOC|54=1|59=0|58=New Buy EOC 700.0 @ 45.73|63=4|60=20150522-13:32:53.436|453=1|448=IB|447=D|452=1|10=206|
20150522-13:32:53.629: 8=FIX.4.4|9=0373|35=8|49=ADR_ARBITRAGE_IB_XNYS|56=LVBSG|34=241|52=20150522-13:32:53|50=XPUS|57=7369691|1=U1216799|207=SMART|6=0|11=3306265d5ac34c7b|14=0|17=81760.1432301573.1|21=1|150=0|31=0|151=700|32=0|100=SMART|38=700|39=0|37=7ad2209080544142|583=75b3501f48044da1|111=100|40=2|44=45.73|55=EOC|54=1|59=0|58=New Buy EOC 700.0 @ 45.73|63=4|60=20150522-13:32:53.623|453=1|448=IB|447=D|452=1|10=081|
20150522-13:32:53.982: 8=FIX.4.4|9=0390|35=8|49=ADR_ARBITRAGE_IB_XNYS|56=LVBSG|34=242|52=20150522-13:32:53|50=XPUS|57=7369691|1=U1216799|207=SMART|6=45.71|11=3306265d5ac34c7b|14=400|17=0000fed1.aabe42f9.01.01|21=1|150=F|31=45.71|151=300|32=400|100=SMART|38=700|39=1|37=7ad2209080544142|583=75b3501f48044da1|111=100|40=2|44=45.73|55=EOC|54=1|59=0|58=New Buy EOC 700.0 @ 45.73|63=4|60=20150522-13:32:53.623|453=1|448=IB|447=D|452=1|10=052|
20150522-13:32:53.984: 8=FIX.4.4|9=0391|35=8|49=ADR_ARBITRAGE_IB_XNYS|56=LVBSG|34=243|52=20150522-13:32:53|50=XPUS|57=7369691|1=U1216799|207=SMART|6=45.714|11=3306265d5ac34c7b|14=500|17=0000da28.555f2918.01.01|21=1|150=F|31=45.73|151=200|32=100|100=SMART|38=700|39=1|37=7ad2209080544142|583=75b3501f48044da1|111=100|40=2|44=45.73|55=EOC|54=1|59=0|58=New Buy EOC 700.0 @ 45.73|63=4|60=20150522-13:32:53.623|453=1|448=IB|447=D|452=1|10=131|
20150522-13:32:53.990: 8=FIX.4.4|9=0401|35=8|49=ADR_ARBITRAGE_IB_XNYS|56=LVBSG|34=244|52=20150522-13:32:53|50=XPUS|57=7369691|1=U1216799|207=SMART|6=45.71166666666667|11=3306265d5ac34c7b|14=600|17=0000da28.555f2919.01.01|21=1|150=F|31=45.7|151=100|32=100|100=SMART|38=700|39=1|37=7ad2209080544142|583=75b3501f48044da1|111=100|40=2|44=45.73|55=EOC|54=1|59=0|58=New Buy EOC 700.0 @ 45.73|63=4|60=20150522-13:32:53.623|453=1|448=IB|447=D|452=1|10=154|
20150522-13:32:53.996: 8=FIX.4.4|9=0400|35=8|49=ADR_ARBITRAGE_IB_XNYS|56=LVBSG|34=245|52=20150522-13:32:53|50=XPUS|57=7369691|1=U1216799|207=SMART|6=45.71428571428572|11=3306265d5ac34c7b|14=700|17=00010ff0.555f20ca.01.01|21=1|150=F|31=45.73|151=0|32=100|100=SMART|38=700|39=2|37=7ad2209080544142|583=75b3501f48044da1|111=100|40=2|44=45.73|55=EOC|54=1|59=0|58=New Buy EOC 700.0 @ 45.73|63=4|60=20150522-13:32:53.623|453=1|448=IB|447=D|452=1|10=176|
20150522-13:32:55.007: 8=FIX.4.4|9=0430|35=8|49=ADR_ARBITRAGE_IB_XNYS|56=LVBSG|34=246|52=20150522-13:32:55|50=XPUS|57=7369691|1=U1216799|207=SMART|6=17.525656|11=-830416d7429bab8|14=3900|17=81760.1432301574.1|21=1|150=5|31=17.48|151=100|32=100|100=SMART|38=4000|39=1|37=-48407fcc672fb3ad|583=f75c1edfe814ea1|111=100|40=2|41=505bd521e9d46f7|44=17.47|55=ENI|54=2|59=0|58=Replace from 4000.0 @ 17.49 To 4000.0 @ 17.48|63=4|60=20150522-13:32:55.001|453=1|448=IB|447=D|452=1|10=027|
20150522-13:32:55.864: 8=FIX.4.4|9=290|35=G|34=150|49=LVBSG|50=7369691|52=20150522-13:32:55.863|56=ADR_ARBITRAGE_IB_XNYS|57=XPUS|1=U1216799|11=-3ed8b7058bd5bd7b|21=1|38=5000|40=2|41=-76f638408105b673|44=8.65|54=1|55=LFL|59=0|60=20150522-13:32:55.863|63=4|100=SMART|111=100|207=SMART|583=39d55a0b883d4dd8|453=1|448=IB|447=D|452=1|10=049|
20150522-13:32:55.876: 8=FIX.4.4|9=0436|35=8|49=ADR_ARBITRAGE_IB_XNYS|56=LVBSG|34=247|52=20150522-13:32:55|50=XPUS|57=7369691|1=U1216799|207=SMART|6=8.62295202952029|11=-3ed8b7058bd5bd7b|14=2710|17=-49ed3921a878b29a|21=1|150=E|31=8.64|151=2290|32=100|100=SMART|38=5000|39=1|37=22c3896df5a041c5|583=39d55a0b883d4dd8|111=100|40=2|41=-76f638408105b673|44=8.65|55=LFL|54=1|59=0|58=Replace from 5000.0 @ 8.64 To 5000.0 @ 8.65|63=4|60=20150522-13:32:55.869|453=1|448=IB|447=D|452=1|10=021|
20150522-13:32:56.044: 8=FIX.4.4|9=0429|35=8|49=ADR_ARBITRAGE_IB_XNYS|56=LVBSG|34=248|52=20150522-13:32:56|50=XPUS|57=7369691|1=U1216799|207=SMART|6=8.622952|11=-3ed8b7058bd5bd7b|14=2710|17=81760.1432301575.1|21=1|150=5|31=8.64|151=2290|32=100|100=SMART|38=5000|39=1|37=22c3896df5a041c5|583=39d55a0b883d4dd8|111=100|40=2|41=-76f638408105b673|44=8.65|55=LFL|54=1|59=0|58=Replace from 5000.0 @ 8.64 To 5000.0 @ 8.65|63=4|60=20150522-13:32:56.038|453=1|448=IB|447=D|452=1|10=139|
20150522-13:32:56.048: 8=FIX.4.4|9=0442|35=8|49=ADR_ARBITRAGE_IB_XNYS|56=LVBSG|34=249|52=20150522-13:32:56|50=XPUS|57=7369691|1=U1216799|207=SMART|6=8.62481099656357|11=-3ed8b7058bd5bd7b|14=2910|17=00010ff0.555f20de.01.01|21=1|150=F|31=8.65|151=2090|32=200|100=SMART|38=5000|39=1|37=22c3896df5a041c5|583=39d55a0b883d4dd8|111=100|40=2|41=-76f638408105b673|44=8.65|55=LFL|54=1|59=0|58=Replace from 5000.0 @ 8.64 To 5000.0 @ 8.65|63=4|60=20150522-13:32:56.038|453=1|448=IB|447=D|452=1|10=030|
20150522-13:32:56.052: 8=FIX.4.4|9=268|35=D|34=151|49=LVBSG|50=7369691|52=20150522-13:32:56.051|56=ADR_ARBITRAGE_IB_XNYS|57=XPUS|1=U1216799|11=3ea401a8b7574594|21=1|38=100|40=2|44=45.73|54=1|55=EOC|59=0|60=20150522-13:32:56.051|63=4|100=SMART|111=100|207=SMART|583=75b3501f48044da1|453=1|448=IB|447=D|452=1|10=061|
20150522-13:32:56.063: 8=FIX.4.4|9=0371|35=8|49=ADR_ARBITRAGE_IB_XNYS|56=LVBSG|34=250|52=20150522-13:32:56|50=XPUS|57=7369691|1=U1216799|207=SMART|6=0|11=3ea401a8b7574594|14=0|17=59e7799174e2489a|21=1|150=A|31=0|151=100|32=0|100=SMART|38=100|39=A|37=39cb9f3defc148bf|583=75b3501f48044da1|111=100|40=2|44=45.73|55=EOC|54=1|59=0|58=New Buy EOC 100.0 @ 45.73|63=4|60=20150522-13:32:56.058|453=1|448=IB|447=D|452=1|10=001|
20150522-13:32:56.237: 8=FIX.4.4|9=0429|35=8|49=ADR_ARBITRAGE_IB_XNYS|56=LVBSG|34=251|52=20150522-13:32:56|50=XPUS|57=7369691|1=U1216799|207=SMART|6=8.624811|11=-3ed8b7058bd5bd7b|14=2910|17=81760.1432301575.3|21=1|150=5|31=8.65|151=2090|32=200|100=SMART|38=5000|39=1|37=22c3896df5a041c5|583=39d55a0b883d4dd8|111=100|40=2|41=-76f638408105b673|44=8.65|55=LFL|54=1|59=0|58=Replace from 5000.0 @ 8.64 To 5000.0 @ 8.65|63=4|60=20150522-13:32:56.231|453=1|448=IB|447=D|452=1|10=128|
20150522-13:32:56.567: 8=FIX.4.4|9=0373|35=8|49=ADR_ARBITRAGE_IB_XNYS|56=LVBSG|34=252|52=20150522-13:32:56|50=XPUS|57=7369691|1=U1216799|207=SMART|6=0|11=3ea401a8b7574594|14=0|17=81760.1432301576.1|21=1|150=0|31=0|151=100|32=0|100=SMART|38=100|39=0|37=39cb9f3defc148bf|583=75b3501f48044da1|111=100|40=2|44=45.73|55=EOC|54=1|59=0|58=New Buy EOC 100.0 @ 45.73|63=4|60=20150522-13:32:56.562|453=1|448=IB|447=D|452=1|10=138|
20150522-13:32:56.571: 8=FIX.4.4|9=0388|35=8|49=ADR_ARBITRAGE_IB_XNYS|56=LVBSG|34=253|52=20150522-13:32:56|50=XPUS|57=7369691|1=U1216799|207=SMART|6=45.73|11=3ea401a8b7574594|14=100|17=00010ff0.555f20df.01.01|21=1|150=F|31=45.73|151=0|32=100|100=SMART|38=100|39=2|37=39cb9f3defc148bf|583=75b3501f48044da1|111=100|40=2|44=45.73|55=EOC|54=1|59=0|58=New Buy EOC 100.0 @ 45.73|63=4|60=20150522-13:32:56.562|453=1|448=IB|447=D|452=1|10=131|
20150522-13:33:02.428: 8=FIX.4.4|9=269|35=D|34=152|49=LVBSG|50=7369691|52=20150522-13:33:02.428|56=ADR_ARBITRAGE_IB_XNYS|57=XPUS|1=U1216799|11=-73e0f9e8b747be6d|21=1|38=700|40=2|44=45.72|54=1|55=EOC|59=0|60=20150522-13:33:02.428|63=4|100=SMART|111=100|207=SMART|583=75b3501f48044da1|453=1|448=IB|447=D|452=1|10=015|
20150522-13:33:02.440: 8=FIX.4.4|9=0374|35=8|49=ADR_ARBITRAGE_IB_XNYS|56=LVBSG|34=254|52=20150522-13:33:02|50=XPUS|57=7369691|1=U1216799|207=SMART|6=0|11=-73e0f9e8b747be6d|14=0|17=-38c8892e0fafbbc8|21=1|150=A|31=0|151=700|32=0|100=SMART|38=700|39=A|37=-4e1f70014f4fb657|583=75b3501f48044da1|111=100|40=2|44=45.72|55=EOC|54=1|59=0|58=New Buy EOC 700.0 @ 45.72|63=4|60=20150522-13:33:02.434|453=1|448=IB|447=D|452=1|10=063|
20150522-13:33:02.622: 8=FIX.4.4|9=0375|35=8|49=ADR_ARBITRAGE_IB_XNYS|56=LVBSG|34=255|52=20150522-13:33:02|50=XPUS|57=7369691|1=U1216799|207=SMART|6=0|11=-73e0f9e8b747be6d|14=0|17=81760.1432301582.1|21=1|150=0|31=0|151=700|32=0|100=SMART|38=700|39=0|37=-4e1f70014f4fb657|583=75b3501f48044da1|111=100|40=2|44=45.72|55=EOC|54=1|59=0|58=New Buy EOC 700.0 @ 45.72|63=4|60=20150522-13:33:02.617|453=1|448=IB|447=D|452=1|10=187|
20150522-13:33:02.965: 8=FIX.4.4|9=0392|35=8|49=ADR_ARBITRAGE_IB_XNYS|56=LVBSG|34=256|52=20150522-13:33:02|50=XPUS|57=7369691|1=U1216799|207=SMART|6=45.72|11=-73e0f9e8b747be6d|14=300|17=0000d7a7.555f18b4.01.01|21=1|150=F|31=45.72|151=400|32=300|100=SMART|38=700|39=1|37=-4e1f70014f4fb657|583=75b3501f48044da1|111=100|40=2|44=45.72|55=EOC|54=1|59=0|58=New Buy EOC 700.0 @ 45.72|63=4|60=20150522-13:33:02.617|453=1|448=IB|447=D|452=1|10=232|
20150522-13:33:02.973: 8=FIX.4.4|9=0392|35=8|49=ADR_ARBITRAGE_IB_XNYS|56=LVBSG|34=257|52=20150522-13:33:02|50=XPUS|57=7369691|1=U1216799|207=SMART|6=45.72|11=-73e0f9e8b747be6d|14=600|17=00013911.555ee2d8.01.01|21=1|150=F|31=45.72|151=100|32=300|100=SMART|38=700|39=1|37=-4e1f70014f4fb657|583=75b3501f48044da1|111=100|40=2|44=45.72|55=EOC|54=1|59=0|58=New Buy EOC 700.0 @ 45.72|63=4|60=20150522-13:33:02.617|453=1|448=IB|447=D|452=1|10=184|
20150522-13:33:02.985: 8=FIX.4.4|9=0390|35=8|49=ADR_ARBITRAGE_IB_XNYS|56=LVBSG|34=258|52=20150522-13:33:02|50=XPUS|57=7369691|1=U1216799|207=SMART|6=45.72|11=-73e0f9e8b747be6d|14=700|17=00013911.555ee2d9.01.01|21=1|150=F|31=45.72|151=0|32=100|100=SMART|38=700|39=2|37=-4e1f70014f4fb657|583=75b3501f48044da1|111=100|40=2|44=45.72|55=EOC|54=1|59=0|58=New Buy EOC 700.0 @ 45.72|63=4|60=20150522-13:33:02.617|453=1|448=IB|447=D|452=1|10=087|
20150522-13:33:02.988: 8=FIX.4.4|9=0433|35=8|49=ADR_ARBITRAGE_IB_XNYS|56=LVBSG|34=259|52=20150522-13:33:02|50=XPUS|57=7369691|1=U1216799|207=SMART|6=17.524265|11=-830416d7429bab8|14=4000|17=00010ff0.555f20f0.01.01|21=1|150=F|31=17.47|151=0|32=100|100=SMART|38=4000|39=2|37=-48407fcc672fb3ad|583=f75c1edfe814ea1|111=100|40=2|41=505bd521e9d46f7|44=17.47|55=ENI|54=2|59=0|58=Replace from 4000.0 @ 17.49 To 4000.0 @ 17.48|63=4|60=20150522-13:32:55.001|453=1|448=IB|447=D|452=1|10=099|
20150522-13:33:09.023: 8=FIX.4.4|9=268|35=D|34=153|49=LVBSG|50=7369691|52=20150522-13:33:09.023|56=ADR_ARBITRAGE_IB_XNYS|57=XPUS|1=U1216799|11=-334eaf8958fbc61|21=1|38=300|40=2|44=45.71|54=1|55=EOC|59=0|60=20150522-13:33:09.023|63=4|100=SMART|111=100|207=SMART|583=75b3501f48044da1|453=1|448=IB|447=D|452=1|10=156|
20150522-13:33:09.044: 8=FIX.4.4|9=0371|35=8|49=ADR_ARBITRAGE_IB_XNYS|56=LVBSG|34=260|52=20150522-13:33:09|50=XPUS|57=7369691|1=U1216799|207=SMART|6=0|11=-334eaf8958fbc61|14=0|17=6a5f8540e9b84c34|21=1|150=A|31=0|151=300|32=0|100=SMART|38=300|39=A|37=35bc5e4eddeb40ce|583=75b3501f48044da1|111=100|40=2|44=45.71|55=EOC|54=1|59=0|58=New Buy EOC 300.0 @ 45.71|63=4|60=20150522-13:33:09.037|453=1|448=IB|447=D|452=1|10=206|
20150522-13:33:09.221: 8=FIX.4.4|9=0373|35=8|49=ADR_ARBITRAGE_IB_XNYS|56=LVBSG|34=261|52=20150522-13:33:09|50=XPUS|57=7369691|1=U1216799|207=SMART|6=0|11=-334eaf8958fbc61|14=0|17=81760.1432301589.1|21=1|150=0|31=0|151=300|32=0|100=SMART|38=300|39=0|37=35bc5e4eddeb40ce|583=75b3501f48044da1|111=100|40=2|44=45.71|55=EOC|54=1|59=0|58=New Buy EOC 300.0 @ 45.71|63=4|60=20150522-13:33:09.216|453=1|448=IB|447=D|452=1|10=012|
20150522-13:33:09.224: 8=FIX.4.4|9=289|35=G|34=154|49=LVBSG|50=7369691|52=20150522-13:33:09.224|56=ADR_ARBITRAGE_IB_XNYS|57=XPUS|1=U1216799|11=-2af17d572d5ab72f|21=1|38=700|40=2|41=-334eaf8958fbc61|44=45.71|54=1|55=EOC|59=0|60=20150522-13:33:09.224|63=4|100=SMART|111=100|207=SMART|583=75b3501f48044da1|453=1|448=IB|447=D|452=1|10=011|
20150522-13:33:09.235: 8=FIX.4.4|9=0410|35=8|49=ADR_ARBITRAGE_IB_XNYS|56=LVBSG|34=262|52=20150522-13:33:09|50=XPUS|57=7369691|1=U1216799|207=SMART|6=0|11=-2af17d572d5ab72f|14=0|17=25a3c3bf1ddf4f0b|21=1|150=E|31=0|151=300|32=0|100=SMART|38=700|39=0|37=35bc5e4eddeb40ce|583=75b3501f48044da1|111=100|40=2|41=-334eaf8958fbc61|44=45.71|55=EOC|54=1|59=0|58=Replace from 300.0 @ 45.71 To 700.0 @ 45.71|63=4|60=20150522-13:33:09.230|453=1|448=IB|447=D|452=1|10=091|
20150522-13:33:09.406: 8=FIX.4.4|9=0427|35=8|49=ADR_ARBITRAGE_IB_XNYS|56=LVBSG|34=263|52=20150522-13:33:09|50=XPUS|57=7369691|1=U1216799|207=SMART|6=45.7|11=-2af17d572d5ab72f|14=100|17=0000fed1.aabe42fe.01.01|21=1|150=F|31=45.7|151=600|32=100|100=SMART|38=700|39=1|37=35bc5e4eddeb40ce|583=75b3501f48044da1|111=100|40=2|41=-334eaf8958fbc61|44=45.71|55=EOC|54=1|59=0|58=Replace from 300.0 @ 45.71 To 700.0 @ 45.71|63=4|60=20150522-13:33:09.244|453=1|448=IB|447=D|452=1|10=174|
