20150522-11:21:06.733: 8=FIX.4.4|9=61|35=5|34=1|49=ALGOARBADR5|52=20150522-11:21:06.732|56=MDFHBLP|10=209|
20150522-11:21:07.721: 8=FIX.4.4|9=61|35=5|34=1|49=ALGOARBADR5|52=20150522-11:21:07.721|56=MDFHBLP|10=208|
20150522-11:21:08.710: 8=FIX.4.4|9=79|35=A|34=1|49=ALGOARBADR5|52=20150522-11:21:08.709|56=MDFHBLP|98=0|108=60|141=Y|10=053|
20150522-11:21:08.742: 8=FIX.4.4|9=79|35=A|34=1|49=MDFHBLP|52=20150522-11:21:08.577|56=ALGOARBADR5|98=0|108=60|141=Y|10=056|
20150522-11:21:08.764: 8=FIX.4.4|9=144|35=V|34=2|49=ALGOARBADR5|52=20150522-11:21:08.762|56=MDFHBLP|262=-787035d21399b9de|263=1|264=1|146=1|55=CLP DTTC CURNCY|267=3|269=0|269=1|269=5|10=105|
20150522-11:21:08.770: 8=FIX.4.4|9=162|35=W|34=2|49=MDFHBLP|52=20150522-11:21:08.608|56=ALGOARBADR5|55=CLP DTTC CURNCY|262=-787035d21399b9de|268=3|269=0|270=603|271=0|269=1|270=607|271=0|269=5|270=605|10=177|
20150522-11:22:09.361: 8=FIX.4.4|9=61|35=0|34=3|49=MDFHBLP|52=20150522-11:22:09.203|56=ALGOARBADR5|10=203|
20150522-11:22:09.363: 8=FIX.4.4|9=61|35=0|34=3|49=ALGOARBADR5|52=20150522-11:22:09.363|56=MDFHBLP|10=210|
20150522-11:23:09.705: 8=FIX.4.4|9=61|35=0|34=4|49=ALGOARBADR5|52=20150522-11:23:09.704|56=MDFHBLP|10=211|
20150522-11:23:09.708: 8=FIX.4.4|9=61|35=0|34=4|49=MDFHBLP|52=20150522-11:23:09.535|56=ALGOARBADR5|10=213|
20150522-11:24:10.352: 8=FIX.4.4|9=61|35=0|34=5|49=MDFHBLP|52=20150522-11:24:10.193|56=ALGOARBADR5|10=207|
20150522-11:24:10.355: 8=FIX.4.4|9=61|35=0|34=5|49=ALGOARBADR5|52=20150522-11:24:10.354|56=MDFHBLP|10=206|
20150522-11:25:10.369: 8=FIX.4.4|9=61|35=0|34=6|49=MDFHBLP|52=20150522-11:25:10.210|56=ALGOARBADR5|10=199|
20150522-11:25:10.372: 8=FIX.4.4|9=61|35=0|34=6|49=ALGOARBADR5|52=20150522-11:25:10.371|56=MDFHBLP|10=207|
20150522-11:26:10.703: 8=FIX.4.4|9=61|35=0|34=7|49=ALGOARBADR5|52=20150522-11:26:10.703|56=MDFHBLP|10=208|
20150522-11:26:10.707: 8=FIX.4.4|9=61|35=0|34=7|49=MDFHBLP|52=20150522-11:26:10.542|56=ALGOARBADR5|10=209|
20150522-11:27:10.704: 8=FIX.4.4|9=61|35=0|34=8|49=ALGOARBADR5|52=20150522-11:27:10.704|56=MDFHBLP|10=211|
20150522-11:27:11.364: 8=FIX.4.4|9=61|35=0|34=8|49=MDFHBLP|52=20150522-11:27:11.204|56=ALGOARBADR5|10=207|
20150522-11:27:43.347: 8=FIX.4.4|9=136|35=X|34=9|49=MDFHBLP|52=20150522-11:27:43.178|56=ALGOARBADR5|262=588fb88e85de4822|268=1|279=1|269=5|55=CLP DTTC CURNCY|270=604.25|290=1|10=104|
20150522-11:27:43.351: 8=FIX.4.4|9=138|35=X|34=10|49=MDFHBLP|52=20150522-11:27:43.178|56=ALGOARBADR5|262=-71416ea61cdbb728|268=1|279=1|269=5|55=CLP DTTC CURNCY|270=604.25|290=1|10=211|
20150522-11:27:43.352: 8=FIX.4.4|9=138|35=X|34=11|49=MDFHBLP|52=20150522-11:27:43.178|56=ALGOARBADR5|262=-787035d21399b9de|268=1|279=1|269=5|55=CLP DTTC CURNCY|270=604.25|290=1|10=134|
20150522-11:27:43.353: 8=FIX.4.4|9=142|35=X|34=12|49=MDFHBLP|52=20150522-11:27:43.178|56=ALGOARBADR5|262=588fb88e85de4822|268=1|279=1|269=1|55=CLP DTTC CURNCY|270=605.5|271=0|290=1|10=098|
20150522-11:27:43.355: 8=FIX.4.4|9=143|35=X|34=13|49=MDFHBLP|52=20150522-11:27:43.178|56=ALGOARBADR5|262=-71416ea61cdbb728|268=1|279=1|269=1|55=CLP DTTC CURNCY|270=605.5|271=0|290=1|10=165|
20150522-11:27:43.356: 8=FIX.4.4|9=143|35=X|34=14|49=MDFHBLP|52=20150522-11:27:43.178|56=ALGOARBADR5|262=-787035d21399b9de|268=1|279=1|269=1|55=CLP DTTC CURNCY|270=605.5|271=0|290=1|10=088|
20150522-11:27:53.759: 8=FIX.4.4|9=137|35=X|34=15|49=MDFHBLP|52=20150522-11:27:53.586|56=ALGOARBADR5|262=588fb88e85de4822|268=1|279=1|269=5|55=CLP DTTC CURNCY|270=603.75|290=1|10=158|
20150522-11:27:53.762: 8=FIX.4.4|9=138|35=X|34=16|49=MDFHBLP|52=20150522-11:27:53.586|56=ALGOARBADR5|262=-71416ea61cdbb728|268=1|279=1|269=5|55=CLP DTTC CURNCY|270=603.75|290=1|10=225|
20150522-11:27:53.763: 8=FIX.4.4|9=138|35=X|34=17|49=MDFHBLP|52=20150522-11:27:53.586|56=ALGOARBADR5|262=-787035d21399b9de|268=1|279=1|269=5|55=CLP DTTC CURNCY|270=603.75|290=1|10=148|
20150522-11:27:53.766: 8=FIX.4.4|9=142|35=X|34=18|49=MDFHBLP|52=20150522-11:27:53.601|56=ALGOARBADR5|262=588fb88e85de4822|268=1|279=1|269=1|55=CLP DTTC CURNCY|270=604.5|271=0|290=1|10=095|
20150522-11:27:53.766: 8=FIX.4.4|9=143|35=X|34=19|49=MDFHBLP|52=20150522-11:27:53.601|56=ALGOARBADR5|262=-71416ea61cdbb728|268=1|279=1|269=1|55=CLP DTTC CURNCY|270=604.5|271=0|290=1|10=162|
20150522-11:27:53.767: 8=FIX.4.4|9=143|35=X|34=20|49=MDFHBLP|52=20150522-11:27:53.601|56=ALGOARBADR5|262=-787035d21399b9de|268=1|279=1|269=1|55=CLP DTTC CURNCY|270=604.5|271=0|290=1|10=076|
20150522-11:28:11.704: 8=FIX.4.4|9=61|35=0|34=9|49=ALGOARBADR5|52=20150522-11:28:11.703|56=MDFHBLP|10=213|
20150522-11:28:54.378: 8=FIX.4.4|9=62|35=0|34=21|49=MDFHBLP|52=20150522-11:28:54.217|56=ALGOARBADR5|10=007|
20150522-11:29:11.704: 8=FIX.4.4|9=62|35=0|34=10|49=ALGOARBADR5|52=20150522-11:29:11.703|56=MDFHBLP|10=255|
20150522-11:29:55.368: 8=FIX.4.4|9=62|35=0|34=22|49=MDFHBLP|52=20150522-11:29:55.207|56=ALGOARBADR5|10=009|
20150522-11:30:11.703: 8=FIX.4.4|9=62|35=0|34=11|49=ALGOARBADR5|52=20150522-11:30:11.703|56=MDFHBLP|10=248|
20150522-11:30:55.373: 8=FIX.4.4|9=62|35=0|34=23|49=MDFHBLP|52=20150522-11:30:55.211|56=ALGOARBADR5|10=253|
20150522-11:31:11.704: 8=FIX.4.4|9=62|35=0|34=12|49=ALGOARBADR5|52=20150522-11:31:11.703|56=MDFHBLP|10=250|
20150522-11:31:55.377: 8=FIX.4.4|9=62|35=0|34=24|49=MDFHBLP|52=20150522-11:31:55.214|56=ALGOARBADR5|10=002|
20150522-11:32:00.367: 8=FIX.4.4|9=137|35=X|34=25|49=MDFHBLP|52=20150522-11:32:00.192|56=ALGOARBADR5|262=588fb88e85de4822|268=1|279=1|269=5|55=CLP DTTC CURNCY|270=604.25|290=1|10=136|
20150522-11:32:00.369: 8=FIX.4.4|9=138|35=X|34=26|49=MDFHBLP|52=20150522-11:32:00.192|56=ALGOARBADR5|262=-71416ea61cdbb728|268=1|279=1|269=5|55=CLP DTTC CURNCY|270=604.25|290=1|10=203|
20150522-11:32:00.370: 8=FIX.4.4|9=138|35=X|34=27|49=MDFHBLP|52=20150522-11:32:00.192|56=ALGOARBADR5|262=-787035d21399b9de|268=1|279=1|269=5|55=CLP DTTC CURNCY|270=604.25|290=1|10=126|
20150522-11:32:00.371: 8=FIX.4.4|9=140|35=X|34=28|49=MDFHBLP|52=20150522-11:32:00.208|56=ALGOARBADR5|262=588fb88e85de4822|268=1|279=1|269=0|55=CLP DTTC CURNCY|270=604|271=0|290=1|10=241|
20150522-11:32:00.372: 8=FIX.4.4|9=141|35=X|34=29|49=MDFHBLP|52=20150522-11:32:00.208|56=ALGOARBADR5|262=-71416ea61cdbb728|268=1|279=1|269=0|55=CLP DTTC CURNCY|270=604|271=0|290=1|10=052|
20150522-11:32:00.374: 8=FIX.4.4|9=141|35=X|34=30|49=MDFHBLP|52=20150522-11:32:00.208|56=ALGOARBADR5|262=-787035d21399b9de|268=1|279=1|269=0|55=CLP DTTC CURNCY|270=604|271=0|290=1|10=222|
20150522-11:32:11.704: 8=FIX.4.4|9=62|35=0|34=13|49=ALGOARBADR5|52=20150522-11:32:11.703|56=MDFHBLP|10=252|
20150522-11:33:00.373: 8=FIX.4.4|9=62|35=0|34=31|49=MDFHBLP|52=20150522-11:33:00.211|56=ALGOARBADR5|10=245|
20150522-11:33:11.704: 8=FIX.4.4|9=62|35=0|34=14|49=ALGOARBADR5|52=20150522-11:33:11.703|56=MDFHBLP|10=254|
20150522-11:34:00.382: 8=FIX.4.4|9=62|35=0|34=32|49=MDFHBLP|52=20150522-11:34:00.219|56=ALGOARBADR5|10=255|
20150522-11:34:12.703: 8=FIX.4.4|9=62|35=0|34=15|49=ALGOARBADR5|52=20150522-11:34:12.703|56=MDFHBLP|10=001|
20150522-11:35:00.385: 8=FIX.4.4|9=62|35=0|34=33|49=MDFHBLP|52=20150522-11:35:00.222|56=ALGOARBADR5|10=251|
20150522-11:35:13.703: 8=FIX.4.4|9=62|35=0|34=16|49=ALGOARBADR5|52=20150522-11:35:13.703|56=MDFHBLP|10=004|
20150522-11:36:00.388: 8=FIX.4.4|9=62|35=0|34=34|49=MDFHBLP|52=20150522-11:36:00.224|56=ALGOARBADR5|10=255|
20150522-11:36:13.703: 8=FIX.4.4|9=62|35=0|34=17|49=ALGOARBADR5|52=20150522-11:36:13.703|56=MDFHBLP|10=006|
20150522-11:37:00.390: 8=FIX.4.4|9=62|35=0|34=35|49=MDFHBLP|52=20150522-11:37:00.226|56=ALGOARBADR5|10=003|
20150522-11:37:13.703: 8=FIX.4.4|9=62|35=0|34=18|49=ALGOARBADR5|52=20150522-11:37:13.703|56=MDFHBLP|10=008|
20150522-11:37:30.541: 8=FIX.4.4|9=142|35=X|34=36|49=MDFHBLP|52=20150522-11:37:30.375|56=ALGOARBADR5|262=588fb88e85de4822|268=1|279=1|269=0|55=CLP DTTC CURNCY|270=603.5|271=0|290=1|10=097|
20150522-11:37:30.543: 8=FIX.4.4|9=143|35=X|34=37|49=MDFHBLP|52=20150522-11:37:30.375|56=ALGOARBADR5|262=-71416ea61cdbb728|268=1|279=1|269=0|55=CLP DTTC CURNCY|270=603.5|271=0|290=1|10=164|
20150522-11:37:30.545: 8=FIX.4.4|9=143|35=X|34=38|49=MDFHBLP|52=20150522-11:37:30.375|56=ALGOARBADR5|262=-787035d21399b9de|268=1|279=1|269=0|55=CLP DTTC CURNCY|270=603.5|271=0|290=1|10=087|
20150522-11:37:30.546: 8=FIX.4.4|9=134|35=X|34=39|49=MDFHBLP|52=20150522-11:37:30.375|56=ALGOARBADR5|262=588fb88e85de4822|268=1|279=1|269=5|55=CLP DTTC CURNCY|270=604|290=1|10=000|
20150522-11:37:30.547: 8=FIX.4.4|9=135|35=X|34=40|49=MDFHBLP|52=20150522-11:37:30.375|56=ALGOARBADR5|262=-71416ea61cdbb728|268=1|279=1|269=5|55=CLP DTTC CURNCY|270=604|290=1|10=058|
20150522-11:37:30.548: 8=FIX.4.4|9=135|35=X|34=41|49=MDFHBLP|52=20150522-11:37:30.375|56=ALGOARBADR5|262=-787035d21399b9de|268=1|279=1|269=5|55=CLP DTTC CURNCY|270=604|290=1|10=237|
20150522-11:37:47.911: 8=FIX.4.4|9=143|35=X|34=42|49=MDFHBLP|52=20150522-11:37:47.742|56=ALGOARBADR5|262=588fb88e85de4822|268=1|279=1|269=0|55=CLP DTTC CURNCY|270=603.88|271=0|290=1|10=160|
20150522-11:37:47.913: 8=FIX.4.4|9=144|35=X|34=43|49=MDFHBLP|52=20150522-11:37:47.742|56=ALGOARBADR5|262=-71416ea61cdbb728|268=1|279=1|269=0|55=CLP DTTC CURNCY|270=603.88|271=0|290=1|10=227|
20150522-11:37:47.914: 8=FIX.4.4|9=144|35=X|34=44|49=MDFHBLP|52=20150522-11:37:47.742|56=ALGOARBADR5|262=-787035d21399b9de|268=1|279=1|269=0|55=CLP DTTC CURNCY|270=603.88|271=0|290=1|10=150|
20150522-11:37:47.915: 8=FIX.4.4|9=137|35=X|34=45|49=MDFHBLP|52=20150522-11:37:47.742|56=ALGOARBADR5|262=588fb88e85de4822|268=1|279=1|269=5|55=CLP DTTC CURNCY|270=604.19|290=1|10=158|
20150522-11:37:47.917: 8=FIX.4.4|9=138|35=X|34=46|49=MDFHBLP|52=20150522-11:37:47.742|56=ALGOARBADR5|262=-71416ea61cdbb728|268=1|279=1|269=5|55=CLP DTTC CURNCY|270=604.19|290=1|10=225|
20150522-11:37:47.917: 8=FIX.4.4|9=138|35=X|34=47|49=MDFHBLP|52=20150522-11:37:47.742|56=ALGOARBADR5|262=-787035d21399b9de|268=1|279=1|269=5|55=CLP DTTC CURNCY|270=604.19|290=1|10=148|
20150522-11:38:13.703: 8=FIX.4.4|9=62|35=0|34=19|49=ALGOARBADR5|52=20150522-11:38:13.703|56=MDFHBLP|10=010|
20150522-11:38:48.395: 8=FIX.4.4|9=62|35=0|34=48|49=MDFHBLP|52=20150522-11:38:48.230|56=ALGOARBADR5|10=015|
20150522-11:39:14.703: 8=FIX.4.4|9=62|35=0|34=20|49=ALGOARBADR5|52=20150522-11:39:14.703|56=MDFHBLP|10=004|
20150522-11:39:48.399: 8=FIX.4.4|9=62|35=0|34=49|49=MDFHBLP|52=20150522-11:39:48.234|56=ALGOARBADR5|10=021|
20150522-11:40:15.703: 8=FIX.4.4|9=62|35=0|34=21|49=ALGOARBADR5|52=20150522-11:40:15.703|56=MDFHBLP|10=254|
20150522-11:40:18.948: 8=FIX.4.4|9=140|35=X|34=50|49=MDFHBLP|52=20150522-11:40:18.772|56=ALGOARBADR5|262=588fb88e85de4822|268=1|279=1|269=0|55=CLP DTTC CURNCY|270=604|271=0|290=1|10=250|
20150522-11:40:18.950: 8=FIX.4.4|9=141|35=X|34=51|49=MDFHBLP|52=20150522-11:40:18.772|56=ALGOARBADR5|262=-71416ea61cdbb728|268=1|279=1|269=0|55=CLP DTTC CURNCY|270=604|271=0|290=1|10=061|
20150522-11:40:18.952: 8=FIX.4.4|9=141|35=X|34=52|49=MDFHBLP|52=20150522-11:40:18.772|56=ALGOARBADR5|262=-787035d21399b9de|268=1|279=1|269=0|55=CLP DTTC CURNCY|270=604|271=0|290=1|10=240|
20150522-11:40:18.952: 8=FIX.4.4|9=137|35=X|34=53|49=MDFHBLP|52=20150522-11:40:18.772|56=ALGOARBADR5|262=588fb88e85de4822|268=1|279=1|269=5|55=CLP DTTC CURNCY|270=604.25|290=1|10=149|
20150522-11:40:18.953: 8=FIX.4.4|9=138|35=X|34=54|49=MDFHBLP|52=20150522-11:40:18.788|56=ALGOARBADR5|262=-71416ea61cdbb728|268=1|279=1|269=5|55=CLP DTTC CURNCY|270=604.25|290=1|10=223|
20150522-11:40:18.954: 8=FIX.4.4|9=138|35=X|34=55|49=MDFHBLP|52=20150522-11:40:18.788|56=ALGOARBADR5|262=-787035d21399b9de|268=1|279=1|269=5|55=CLP DTTC CURNCY|270=604.25|290=1|10=146|
20150522-11:40:50.311: 8=FIX.4.4|9=137|35=X|34=56|49=MDFHBLP|52=20150522-11:40:50.138|56=ALGOARBADR5|262=588fb88e85de4822|268=1|279=1|269=5|55=CLP DTTC CURNCY|270=604.23|290=1|10=142|
20150522-11:40:50.313: 8=FIX.4.4|9=138|35=X|34=57|49=MDFHBLP|52=20150522-11:40:50.138|56=ALGOARBADR5|262=-71416ea61cdbb728|268=1|279=1|269=5|55=CLP DTTC CURNCY|270=604.23|290=1|10=209|
20150522-11:40:50.315: 8=FIX.4.4|9=138|35=X|34=58|49=MDFHBLP|52=20150522-11:40:50.138|56=ALGOARBADR5|262=-787035d21399b9de|268=1|279=1|269=5|55=CLP DTTC CURNCY|270=604.23|290=1|10=132|
20150522-11:40:50.315: 8=FIX.4.4|9=143|35=X|34=59|49=MDFHBLP|52=20150522-11:40:50.138|56=ALGOARBADR5|262=588fb88e85de4822|268=1|279=1|269=1|55=CLP DTTC CURNCY|270=604.45|271=0|290=1|10=150|
20150522-11:40:50.316: 8=FIX.4.4|9=144|35=X|34=60|49=MDFHBLP|52=20150522-11:40:50.138|56=ALGOARBADR5|262=-71416ea61cdbb728|268=1|279=1|269=1|55=CLP DTTC CURNCY|270=604.45|271=0|290=1|10=208|
20150522-11:40:50.318: 8=FIX.4.4|9=144|35=X|34=61|49=MDFHBLP|52=20150522-11:40:50.138|56=ALGOARBADR5|262=-787035d21399b9de|268=1|279=1|269=1|55=CLP DTTC CURNCY|270=604.45|271=0|290=1|10=131|
20150522-11:40:58.525: 8=FIX.4.4|9=142|35=X|34=62|49=MDFHBLP|52=20150522-11:40:58.348|56=ALGOARBADR5|262=588fb88e85de4822|268=1|279=1|269=1|55=CLP DTTC CURNCY|270=604.5|271=0|290=1|10=102|
20150522-11:40:58.527: 8=FIX.4.4|9=143|35=X|34=63|49=MDFHBLP|52=20150522-11:40:58.348|56=ALGOARBADR5|262=-71416ea61cdbb728|268=1|279=1|269=1|55=CLP DTTC CURNCY|270=604.5|271=0|290=1|10=169|
20150522-11:40:58.528: 8=FIX.4.4|9=143|35=X|34=64|49=MDFHBLP|52=20150522-11:40:58.348|56=ALGOARBADR5|262=-787035d21399b9de|268=1|279=1|269=1|55=CLP DTTC CURNCY|270=604.5|271=0|290=1|10=092|
20150522-11:40:58.529: 8=FIX.4.4|9=137|35=X|34=65|49=MDFHBLP|52=20150522-11:40:58.363|56=ALGOARBADR5|262=588fb88e85de4822|268=1|279=1|269=5|55=CLP DTTC CURNCY|270=604.25|290=1|10=152|
20150522-11:40:58.530: 8=FIX.4.4|9=138|35=X|34=66|49=MDFHBLP|52=20150522-11:40:58.363|56=ALGOARBADR5|262=-71416ea61cdbb728|268=1|279=1|269=5|55=CLP DTTC CURNCY|270=604.25|290=1|10=219|
20150522-11:40:58.531: 8=FIX.4.4|9=138|35=X|34=67|49=MDFHBLP|52=20150522-11:40:58.363|56=ALGOARBADR5|262=-787035d21399b9de|268=1|279=1|269=5|55=CLP DTTC CURNCY|270=604.25|290=1|10=142|
20150522-11:41:16.702: 8=FIX.4.4|9=62|35=0|34=22|49=ALGOARBADR5|52=20150522-11:41:16.702|56=MDFHBLP|10=000|
20150522-11:41:59.368: 8=FIX.4.4|9=143|35=X|34=68|49=MDFHBLP|52=20150522-11:41:59.202|56=ALGOARBADR5|262=588fb88e85de4822|268=1|279=1|269=1|55=CLP DTTC CURNCY|270=604.45|271=0|290=1|10=152|
20150522-11:41:59.369: 8=FIX.4.4|9=144|35=X|34=69|49=MDFHBLP|52=20150522-11:41:59.202|56=ALGOARBADR5|262=-71416ea61cdbb728|268=1|279=1|269=1|55=CLP DTTC CURNCY|270=604.45|271=0|290=1|10=219|
20150522-11:41:59.371: 8=FIX.4.4|9=144|35=X|34=70|49=MDFHBLP|52=20150522-11:41:59.202|56=ALGOARBADR5|262=-787035d21399b9de|268=1|279=1|269=1|55=CLP DTTC CURNCY|270=604.45|271=0|290=1|10=133|
20150522-11:41:59.371: 8=FIX.4.4|9=137|35=X|34=71|49=MDFHBLP|52=20150522-11:41:59.202|56=ALGOARBADR5|262=588fb88e85de4822|268=1|279=1|269=5|55=CLP DTTC CURNCY|270=604.23|290=1|10=141|
20150522-11:41:59.372: 8=FIX.4.4|9=138|35=X|34=72|49=MDFHBLP|52=20150522-11:41:59.202|56=ALGOARBADR5|262=-71416ea61cdbb728|268=1|279=1|269=5|55=CLP DTTC CURNCY|270=604.23|290=1|10=208|
20150522-11:41:59.374: 8=FIX.4.4|9=138|35=X|34=73|49=MDFHBLP|52=20150522-11:41:59.202|56=ALGOARBADR5|262=-787035d21399b9de|268=1|279=1|269=5|55=CLP DTTC CURNCY|270=604.23|290=1|10=131|
20150522-11:42:16.703: 8=FIX.4.4|9=62|35=0|34=23|49=ALGOARBADR5|52=20150522-11:42:16.702|56=MDFHBLP|10=002|
20150522-11:42:59.392: 8=FIX.4.4|9=62|35=0|34=74|49=MDFHBLP|52=20150522-11:42:59.226|56=ALGOARBADR5|10=016|
20150522-11:43:16.704: 8=FIX.4.4|9=62|35=0|34=24|49=ALGOARBADR5|52=20150522-11:43:16.704|56=MDFHBLP|10=006|
20150522-11:43:59.399: 8=FIX.4.4|9=62|35=0|34=75|49=MDFHBLP|52=20150522-11:43:59.233|56=ALGOARBADR5|10=016|
20150522-11:44:17.704: 8=FIX.4.4|9=62|35=0|34=25|49=ALGOARBADR5|52=20150522-11:44:17.704|56=MDFHBLP|10=009|
20150522-11:45:00.397: 8=FIX.4.4|9=62|35=0|34=76|49=MDFHBLP|52=20150522-11:45:00.230|56=ALGOARBADR5|10=002|
20150522-11:45:18.703: 8=FIX.4.4|9=62|35=0|34=26|49=ALGOARBADR5|52=20150522-11:45:18.702|56=MDFHBLP|10=010|
20150522-11:46:00.400: 8=FIX.4.4|9=62|35=0|34=77|49=MDFHBLP|52=20150522-11:46:00.233|56=ALGOARBADR5|10=007|
20150522-11:46:18.703: 8=FIX.4.4|9=62|35=0|34=27|49=ALGOARBADR5|52=20150522-11:46:18.703|56=MDFHBLP|10=013|
20150522-11:47:00.405: 8=FIX.4.4|9=62|35=0|34=78|49=MDFHBLP|52=20150522-11:47:00.238|56=ALGOARBADR5|10=014|
20150522-11:47:18.703: 8=FIX.4.4|9=62|35=0|34=28|49=ALGOARBADR5|52=20150522-11:47:18.703|56=MDFHBLP|10=015|
20150522-11:48:00.412: 8=FIX.4.4|9=62|35=0|34=79|49=MDFHBLP|52=20150522-11:48:00.244|56=ALGOARBADR5|10=013|
20150522-11:48:18.703: 8=FIX.4.4|9=62|35=0|34=29|49=ALGOARBADR5|52=20150522-11:48:18.703|56=MDFHBLP|10=017|
20150522-11:49:00.414: 8=FIX.4.4|9=62|35=0|34=80|49=MDFHBLP|52=20150522-11:49:00.245|56=ALGOARBADR5|10=007|
20150522-11:49:19.703: 8=FIX.4.4|9=62|35=0|34=30|49=ALGOARBADR5|52=20150522-11:49:19.702|56=MDFHBLP|10=010|
20150522-11:50:00.417: 8=FIX.4.4|9=62|35=0|34=81|49=MDFHBLP|52=20150522-11:50:00.248|56=ALGOARBADR5|10=003|
20150522-11:50:19.703: 8=FIX.4.4|9=62|35=0|34=31|49=ALGOARBADR5|52=20150522-11:50:19.702|56=MDFHBLP|10=003|
20150522-11:51:00.420: 8=FIX.4.4|9=62|35=0|34=82|49=MDFHBLP|52=20150522-11:51:00.252|56=ALGOARBADR5|10=000|
20150522-11:51:19.703: 8=FIX.4.4|9=62|35=0|34=32|49=ALGOARBADR5|52=20150522-11:51:19.702|56=MDFHBLP|10=005|
20150522-11:52:00.423: 8=FIX.4.4|9=62|35=0|34=83|49=MDFHBLP|52=20150522-11:52:00.253|56=ALGOARBADR5|10=003|
20150522-11:52:19.703: 8=FIX.4.4|9=62|35=0|34=33|49=ALGOARBADR5|52=20150522-11:52:19.703|56=MDFHBLP|10=008|
20150522-11:53:00.427: 8=FIX.4.4|9=62|35=0|34=84|49=MDFHBLP|52=20150522-11:53:00.257|56=ALGOARBADR5|10=009|
20150522-11:53:19.703: 8=FIX.4.4|9=62|35=0|34=34|49=ALGOARBADR5|52=20150522-11:53:19.703|56=MDFHBLP|10=010|
20150522-11:53:27.957: 8=FIX.4.4|9=142|35=X|34=85|49=MDFHBLP|52=20150522-11:53:27.784|56=ALGOARBADR5|262=588fb88e85de4822|268=1|279=1|269=1|55=CLP DTTC CURNCY|270=604.5|271=0|290=1|10=111|
20150522-11:53:27.958: 8=FIX.4.4|9=143|35=X|34=86|49=MDFHBLP|52=20150522-11:53:27.784|56=ALGOARBADR5|262=-71416ea61cdbb728|268=1|279=1|269=1|55=CLP DTTC CURNCY|270=604.5|271=0|290=1|10=178|
20150522-11:53:27.959: 8=FIX.4.4|9=143|35=X|34=87|49=MDFHBLP|52=20150522-11:53:27.784|56=ALGOARBADR5|262=-787035d21399b9de|268=1|279=1|269=1|55=CLP DTTC CURNCY|270=604.5|271=0|290=1|10=101|
20150522-11:53:27.960: 8=FIX.4.4|9=137|35=X|34=88|49=MDFHBLP|52=20150522-11:53:27.784|56=ALGOARBADR5|262=588fb88e85de4822|268=1|279=1|269=5|55=CLP DTTC CURNCY|270=604.25|290=1|10=164|
20150522-11:53:28.021: 8=FIX.4.4|9=138|35=X|34=89|49=MDFHBLP|52=20150522-11:53:27.784|56=ALGOARBADR5|262=-71416ea61cdbb728|268=1|279=1|269=5|55=CLP DTTC CURNCY|270=604.25|290=1|10=231|
20150522-11:53:28.027: 8=FIX.4.4|9=138|35=X|34=90|49=MDFHBLP|52=20150522-11:53:27.784|56=ALGOARBADR5|262=-787035d21399b9de|268=1|279=1|269=5|55=CLP DTTC CURNCY|270=604.25|290=1|10=145|
20150522-11:53:28.270: 8=FIX.4.4|9=143|35=X|34=91|49=MDFHBLP|52=20150522-11:53:28.096|56=ALGOARBADR5|262=588fb88e85de4822|268=1|279=1|269=1|55=CLP DTTC CURNCY|270=605.25|271=0|290=1|10=157|
20150522-11:53:28.272: 8=FIX.4.4|9=144|35=X|34=92|49=MDFHBLP|52=20150522-11:53:28.096|56=ALGOARBADR5|262=-71416ea61cdbb728|268=1|279=1|269=1|55=CLP DTTC CURNCY|270=605.25|271=0|290=1|10=224|
20150522-11:53:28.273: 8=FIX.4.4|9=144|35=X|34=93|49=MDFHBLP|52=20150522-11:53:28.096|56=ALGOARBADR5|262=-787035d21399b9de|268=1|279=1|269=1|55=CLP DTTC CURNCY|270=605.25|271=0|290=1|10=147|
20150522-11:53:28.273: 8=FIX.4.4|9=137|35=X|34=94|49=MDFHBLP|52=20150522-11:53:28.096|56=ALGOARBADR5|262=588fb88e85de4822|268=1|279=1|269=5|55=CLP DTTC CURNCY|270=604.63|290=1|10=160|
20150522-11:53:28.274: 8=FIX.4.4|9=138|35=X|34=95|49=MDFHBLP|52=20150522-11:53:28.096|56=ALGOARBADR5|262=-71416ea61cdbb728|268=1|279=1|269=5|55=CLP DTTC CURNCY|270=604.63|290=1|10=227|
20150522-11:53:28.275: 8=FIX.4.4|9=138|35=X|34=96|49=MDFHBLP|52=20150522-11:53:28.096|56=ALGOARBADR5|262=-787035d21399b9de|268=1|279=1|269=5|55=CLP DTTC CURNCY|270=604.63|290=1|10=150|
20150522-11:53:31.894: 8=FIX.4.4|9=142|35=X|34=97|49=MDFHBLP|52=20150522-11:53:31.716|56=ALGOARBADR5|262=588fb88e85de4822|268=1|279=1|269=1|55=CLP DTTC CURNCY|270=605.3|271=0|290=1|10=103|
20150522-11:53:31.896: 8=FIX.4.4|9=143|35=X|34=98|49=MDFHBLP|52=20150522-11:53:31.716|56=ALGOARBADR5|262=-71416ea61cdbb728|268=1|279=1|269=1|55=CLP DTTC CURNCY|270=605.3|271=0|290=1|10=170|
20150522-11:53:31.897: 8=FIX.4.4|9=143|35=X|34=99|49=MDFHBLP|52=20150522-11:53:31.716|56=ALGOARBADR5|262=-787035d21399b9de|268=1|279=1|269=1|55=CLP DTTC CURNCY|270=605.3|271=0|290=1|10=093|
20150522-11:53:31.898: 8=FIX.4.4|9=138|35=X|34=100|49=MDFHBLP|52=20150522-11:53:31.716|56=ALGOARBADR5|262=588fb88e85de4822|268=1|279=1|269=5|55=CLP DTTC CURNCY|270=604.65|290=1|10=192|
20150522-11:53:31.898: 8=FIX.4.4|9=139|35=X|34=101|49=MDFHBLP|52=20150522-11:53:31.716|56=ALGOARBADR5|262=-71416ea61cdbb728|268=1|279=1|269=5|55=CLP DTTC CURNCY|270=604.65|290=1|10=003|
20150522-11:53:31.900: 8=FIX.4.4|9=139|35=X|34=102|49=MDFHBLP|52=20150522-11:53:31.716|56=ALGOARBADR5|262=-787035d21399b9de|268=1|279=1|269=5|55=CLP DTTC CURNCY|270=604.65|290=1|10=182|
20150522-11:53:44.770: 8=FIX.4.4|9=143|35=X|34=103|49=MDFHBLP|52=20150522-11:53:44.591|56=ALGOARBADR5|262=588fb88e85de4822|268=1|279=1|269=1|55=CLP DTTC CURNCY|270=605.5|271=0|290=1|10=147|
20150522-11:53:44.772: 8=FIX.4.4|9=144|35=X|34=104|49=MDFHBLP|52=20150522-11:53:44.591|56=ALGOARBADR5|262=-71416ea61cdbb728|268=1|279=1|269=1|55=CLP DTTC CURNCY|270=605.5|271=0|290=1|10=214|
20150522-11:53:44.773: 8=FIX.4.4|9=144|35=X|34=105|49=MDFHBLP|52=20150522-11:53:44.591|56=ALGOARBADR5|262=-787035d21399b9de|268=1|279=1|269=1|55=CLP DTTC CURNCY|270=605.5|271=0|290=1|10=137|
20150522-11:53:44.774: 8=FIX.4.4|9=138|35=X|34=106|49=MDFHBLP|52=20150522-11:53:44.591|56=ALGOARBADR5|262=588fb88e85de4822|268=1|279=1|269=5|55=CLP DTTC CURNCY|270=604.75|290=1|10=204|
20150522-11:53:44.775: 8=FIX.4.4|9=139|35=X|34=107|49=MDFHBLP|52=20150522-11:53:44.591|56=ALGOARBADR5|262=-71416ea61cdbb728|268=1|279=1|269=5|55=CLP DTTC CURNCY|270=604.75|290=1|10=015|
20150522-11:53:44.776: 8=FIX.4.4|9=139|35=X|34=108|49=MDFHBLP|52=20150522-11:53:44.591|56=ALGOARBADR5|262=-787035d21399b9de|268=1|279=1|269=5|55=CLP DTTC CURNCY|270=604.75|290=1|10=194|
20150522-11:53:46.708: 8=FIX.4.4|9=143|35=X|34=109|49=MDFHBLP|52=20150522-11:53:46.526|56=ALGOARBADR5|262=588fb88e85de4822|268=1|279=1|269=1|55=CLP DTTC CURNCY|270=605.3|271=0|290=1|10=151|
20150522-11:53:46.710: 8=FIX.4.4|9=144|35=X|34=110|49=MDFHBLP|52=20150522-11:53:46.526|56=ALGOARBADR5|262=-71416ea61cdbb728|268=1|279=1|269=1|55=CLP DTTC CURNCY|270=605.3|271=0|290=1|10=209|
20150522-11:53:46.711: 8=FIX.4.4|9=144|35=X|34=111|49=MDFHBLP|52=20150522-11:53:46.526|56=ALGOARBADR5|262=-787035d21399b9de|268=1|279=1|269=1|55=CLP DTTC CURNCY|270=605.3|271=0|290=1|10=132|
20150522-11:53:46.711: 8=FIX.4.4|9=138|35=X|34=112|49=MDFHBLP|52=20150522-11:53:46.526|56=ALGOARBADR5|262=588fb88e85de4822|268=1|279=1|269=5|55=CLP DTTC CURNCY|270=604.65|290=1|10=200|
20150522-11:53:46.714: 8=FIX.4.4|9=139|35=X|34=113|49=MDFHBLP|52=20150522-11:53:46.541|56=ALGOARBADR5|262=-71416ea61cdbb728|268=1|279=1|269=5|55=CLP DTTC CURNCY|270=604.65|290=1|10=008|
20150522-11:53:46.715: 8=FIX.4.4|9=139|35=X|34=114|49=MDFHBLP|52=20150522-11:53:46.541|56=ALGOARBADR5|262=-787035d21399b9de|268=1|279=1|269=5|55=CLP DTTC CURNCY|270=604.65|290=1|10=187|
20150522-11:54:00.119: 8=FIX.4.4|9=144|35=X|34=115|49=MDFHBLP|52=20150522-11:53:59.947|56=ALGOARBADR5|262=588fb88e85de4822|268=1|279=1|269=1|55=CLP DTTC CURNCY|270=605.12|271=0|290=1|10=208|
20150522-11:54:00.121: 8=FIX.4.4|9=145|35=X|34=116|49=MDFHBLP|52=20150522-11:53:59.947|56=ALGOARBADR5|262=-71416ea61cdbb728|268=1|279=1|269=1|55=CLP DTTC CURNCY|270=605.12|271=0|290=1|10=019|
20150522-11:54:00.121: 8=FIX.4.4|9=145|35=X|34=117|49=MDFHBLP|52=20150522-11:53:59.947|56=ALGOARBADR5|262=-787035d21399b9de|268=1|279=1|269=1|55=CLP DTTC CURNCY|270=605.12|271=0|290=1|10=198|
20150522-11:54:00.122: 8=FIX.4.4|9=138|35=X|34=118|49=MDFHBLP|52=20150522-11:53:59.947|56=ALGOARBADR5|262=588fb88e85de4822|268=1|279=1|269=5|55=CLP DTTC CURNCY|270=604.56|290=1|10=217|
20150522-11:54:00.124: 8=FIX.4.4|9=139|35=X|34=119|49=MDFHBLP|52=20150522-11:53:59.947|56=ALGOARBADR5|262=-71416ea61cdbb728|268=1|279=1|269=5|55=CLP DTTC CURNCY|270=604.56|290=1|10=028|
20150522-11:54:00.124: 8=FIX.4.4|9=139|35=X|34=120|49=MDFHBLP|52=20150522-11:53:59.947|56=ALGOARBADR5|262=-787035d21399b9de|268=1|279=1|269=5|55=CLP DTTC CURNCY|270=604.56|290=1|10=198|
20150522-11:54:06.460: 8=FIX.4.4|9=143|35=X|34=121|49=MDFHBLP|52=20150522-11:54:06.283|56=ALGOARBADR5|262=588fb88e85de4822|268=1|279=1|269=1|55=CLP DTTC CURNCY|270=605.1|271=0|290=1|10=140|
20150522-11:54:06.462: 8=FIX.4.4|9=144|35=X|34=122|49=MDFHBLP|52=20150522-11:54:06.283|56=ALGOARBADR5|262=-71416ea61cdbb728|268=1|279=1|269=1|55=CLP DTTC CURNCY|270=605.1|271=0|290=1|10=207|
20150522-11:54:06.463: 8=FIX.4.4|9=144|35=X|34=123|49=MDFHBLP|52=20150522-11:54:06.283|56=ALGOARBADR5|262=-787035d21399b9de|268=1|279=1|269=1|55=CLP DTTC CURNCY|270=605.1|271=0|290=1|10=130|
20150522-11:54:06.464: 8=FIX.4.4|9=138|35=X|34=124|49=MDFHBLP|52=20150522-11:54:06.283|56=ALGOARBADR5|262=588fb88e85de4822|268=1|279=1|269=5|55=CLP DTTC CURNCY|270=604.55|290=1|10=199|
20150522-11:54:06.465: 8=FIX.4.4|9=139|35=X|34=125|49=MDFHBLP|52=20150522-11:54:06.283|56=ALGOARBADR5|262=-71416ea61cdbb728|268=1|279=1|269=5|55=CLP DTTC CURNCY|270=604.55|290=1|10=010|
20150522-11:54:06.466: 8=FIX.4.4|9=139|35=X|34=126|49=MDFHBLP|52=20150522-11:54:06.283|56=ALGOARBADR5|262=-787035d21399b9de|268=1|279=1|269=5|55=CLP DTTC CURNCY|270=604.55|290=1|10=189|
20150522-11:54:11.175: 8=FIX.4.4|9=144|35=X|34=127|49=MDFHBLP|52=20150522-11:54:10.996|56=ALGOARBADR5|262=588fb88e85de4822|268=1|279=1|269=1|55=CLP DTTC CURNCY|270=605.12|271=0|290=1|10=203|
20150522-11:54:11.177: 8=FIX.4.4|9=145|35=X|34=128|49=MDFHBLP|52=20150522-11:54:10.996|56=ALGOARBADR5|262=-71416ea61cdbb728|268=1|279=1|269=1|55=CLP DTTC CURNCY|270=605.12|271=0|290=1|10=014|
20150522-11:54:11.178: 8=FIX.4.4|9=145|35=X|34=129|49=MDFHBLP|52=20150522-11:54:10.996|56=ALGOARBADR5|262=-787035d21399b9de|268=1|279=1|269=1|55=CLP DTTC CURNCY|270=605.12|271=0|290=1|10=193|
20150522-11:54:11.178: 8=FIX.4.4|9=138|35=X|34=130|49=MDFHBLP|52=20150522-11:54:10.996|56=ALGOARBADR5|262=588fb88e85de4822|268=1|279=1|269=5|55=CLP DTTC CURNCY|270=604.56|290=1|10=203|
20150522-11:54:11.180: 8=FIX.4.4|9=139|35=X|34=131|49=MDFHBLP|52=20150522-11:54:10.996|56=ALGOARBADR5|262=-71416ea61cdbb728|268=1|279=1|269=5|55=CLP DTTC CURNCY|270=604.56|290=1|10=014|
20150522-11:54:11.181: 8=FIX.4.4|9=139|35=X|34=132|49=MDFHBLP|52=20150522-11:54:10.996|56=ALGOARBADR5|262=-787035d21399b9de|268=1|279=1|269=5|55=CLP DTTC CURNCY|270=604.56|290=1|10=193|
20150522-11:54:19.703: 8=FIX.4.4|9=62|35=0|34=35|49=ALGOARBADR5|52=20150522-11:54:19.703|56=MDFHBLP|10=012|
20150522-11:55:11.421: 8=FIX.4.4|9=63|35=0|34=133|49=MDFHBLP|52=20150522-11:55:11.249|56=ALGOARBADR5|10=058|
20150522-11:55:19.703: 8=FIX.4.4|9=62|35=0|34=36|49=ALGOARBADR5|52=20150522-11:55:19.703|56=MDFHBLP|10=014|
20150522-11:55:30.792: 8=FIX.4.4|9=138|35=X|34=134|49=MDFHBLP|52=20150522-11:55:30.614|56=ALGOARBADR5|262=588fb88e85de4822|268=1|279=1|269=5|55=CLP DTTC CURNCY|270=604.81|290=1|10=195|
20150522-11:55:30.793: 8=FIX.4.4|9=139|35=X|34=135|49=MDFHBLP|52=20150522-11:55:30.614|56=ALGOARBADR5|262=-71416ea61cdbb728|268=1|279=1|269=5|55=CLP DTTC CURNCY|270=604.81|290=1|10=006|
20150522-11:55:30.794: 8=FIX.4.4|9=139|35=X|34=136|49=MDFHBLP|52=20150522-11:55:30.614|56=ALGOARBADR5|262=-787035d21399b9de|268=1|279=1|269=5|55=CLP DTTC CURNCY|270=604.81|290=1|10=185|
20150522-11:55:30.794: 8=FIX.4.4|9=143|35=X|34=137|49=MDFHBLP|52=20150522-11:55:30.614|56=ALGOARBADR5|262=588fb88e85de4822|268=1|279=1|269=0|55=CLP DTTC CURNCY|270=604.5|271=0|290=1|10=145|
20150522-11:55:30.796: 8=FIX.4.4|9=144|35=X|34=138|49=MDFHBLP|52=20150522-11:55:30.614|56=ALGOARBADR5|262=-71416ea61cdbb728|268=1|279=1|269=0|55=CLP DTTC CURNCY|270=604.5|271=0|290=1|10=212|
20150522-11:55:30.797: 8=FIX.4.4|9=144|35=X|34=139|49=MDFHBLP|52=20150522-11:55:30.614|56=ALGOARBADR5|262=-787035d21399b9de|268=1|279=1|269=0|55=CLP DTTC CURNCY|270=604.5|271=0|290=1|10=135|
20150522-11:55:34.570: 8=FIX.4.4|9=144|35=X|34=140|49=MDFHBLP|52=20150522-11:55:34.391|56=ALGOARBADR5|262=588fb88e85de4822|268=1|279=1|269=1|55=CLP DTTC CURNCY|270=605.25|271=0|290=1|10=198|
20150522-11:55:34.571: 8=FIX.4.4|9=145|35=X|34=141|49=MDFHBLP|52=20150522-11:55:34.391|56=ALGOARBADR5|262=-71416ea61cdbb728|268=1|279=1|269=1|55=CLP DTTC CURNCY|270=605.25|271=0|290=1|10=009|
20150522-11:55:34.572: 8=FIX.4.4|9=145|35=X|34=142|49=MDFHBLP|52=20150522-11:55:34.391|56=ALGOARBADR5|262=-787035d21399b9de|268=1|279=1|269=1|55=CLP DTTC CURNCY|270=605.25|271=0|290=1|10=188|
20150522-11:55:34.573: 8=FIX.4.4|9=138|35=X|34=143|49=MDFHBLP|52=20150522-11:55:34.391|56=ALGOARBADR5|262=588fb88e85de4822|268=1|279=1|269=5|55=CLP DTTC CURNCY|270=604.88|290=1|10=208|
20150522-11:55:34.574: 8=FIX.4.4|9=139|35=X|34=144|49=MDFHBLP|52=20150522-11:55:34.391|56=ALGOARBADR5|262=-71416ea61cdbb728|268=1|279=1|269=5|55=CLP DTTC CURNCY|270=604.88|290=1|10=019|
20150522-11:55:34.575: 8=FIX.4.4|9=139|35=X|34=145|49=MDFHBLP|52=20150522-11:55:34.391|56=ALGOARBADR5|262=-787035d21399b9de|268=1|279=1|269=5|55=CLP DTTC CURNCY|270=604.88|290=1|10=198|
20150522-11:55:36.474: 8=FIX.4.4|9=141|35=X|34=146|49=MDFHBLP|52=20150522-11:55:36.295|56=ALGOARBADR5|262=588fb88e85de4822|268=1|279=1|269=1|55=CLP DTTC CURNCY|270=605|271=0|290=1|10=057|
20150522-11:55:36.476: 8=FIX.4.4|9=142|35=X|34=147|49=MDFHBLP|52=20150522-11:55:36.295|56=ALGOARBADR5|262=-71416ea61cdbb728|268=1|279=1|269=1|55=CLP DTTC CURNCY|270=605|271=0|290=1|10=124|
20150522-11:55:36.477: 8=FIX.4.4|9=142|35=X|34=148|49=MDFHBLP|52=20150522-11:55:36.295|56=ALGOARBADR5|262=-787035d21399b9de|268=1|279=1|269=1|55=CLP DTTC CURNCY|270=605|271=0|290=1|10=047|
20150522-11:55:36.478: 8=FIX.4.4|9=138|35=X|34=149|49=MDFHBLP|52=20150522-11:55:36.295|56=ALGOARBADR5|262=588fb88e85de4822|268=1|279=1|269=5|55=CLP DTTC CURNCY|270=604.75|290=1|10=215|
20150522-11:55:36.497: 8=FIX.4.4|9=139|35=X|34=150|49=MDFHBLP|52=20150522-11:55:36.326|56=ALGOARBADR5|262=-71416ea61cdbb728|268=1|279=1|269=5|55=CLP DTTC CURNCY|270=604.75|290=1|10=012|
20150522-11:55:36.497: 8=FIX.4.4|9=139|35=X|34=151|49=MDFHBLP|52=20150522-11:55:36.326|56=ALGOARBADR5|262=-787035d21399b9de|268=1|279=1|269=5|55=CLP DTTC CURNCY|270=604.75|290=1|10=191|
20150522-11:55:44.600: 8=FIX.4.4|9=144|35=X|34=152|49=MDFHBLP|52=20150522-11:55:44.424|56=ALGOARBADR5|262=588fb88e85de4822|268=1|279=1|269=1|55=CLP DTTC CURNCY|270=604.99|271=0|290=1|10=209|
20150522-11:55:44.601: 8=FIX.4.4|9=145|35=X|34=153|49=MDFHBLP|52=20150522-11:55:44.424|56=ALGOARBADR5|262=-71416ea61cdbb728|268=1|279=1|269=1|55=CLP DTTC CURNCY|270=604.99|271=0|290=1|10=020|
20150522-11:55:44.602: 8=FIX.4.4|9=145|35=X|34=154|49=MDFHBLP|52=20150522-11:55:44.424|56=ALGOARBADR5|262=-787035d21399b9de|268=1|279=1|269=1|55=CLP DTTC CURNCY|270=604.99|271=0|290=1|10=199|
20150522-11:55:44.603: 8=FIX.4.4|9=138|35=X|34=155|49=MDFHBLP|52=20150522-11:55:44.424|56=ALGOARBADR5|262=588fb88e85de4822|268=1|279=1|269=5|55=CLP DTTC CURNCY|270=604.75|290=1|10=205|
20150522-11:55:44.605: 8=FIX.4.4|9=139|35=X|34=156|49=MDFHBLP|52=20150522-11:55:44.424|56=ALGOARBADR5|262=-71416ea61cdbb728|268=1|279=1|269=5|55=CLP DTTC CURNCY|270=604.75|290=1|10=016|
20150522-11:55:44.606: 8=FIX.4.4|9=139|35=X|34=157|49=MDFHBLP|52=20150522-11:55:44.424|56=ALGOARBADR5|262=-787035d21399b9de|268=1|279=1|269=5|55=CLP DTTC CURNCY|270=604.75|290=1|10=195|
20150522-11:56:20.703: 8=FIX.4.4|9=62|35=0|34=37|49=ALGOARBADR5|52=20150522-11:56:20.703|56=MDFHBLP|10=008|
20150522-11:56:45.426: 8=FIX.4.4|9=63|35=0|34=158|49=MDFHBLP|52=20150522-11:56:45.255|56=ALGOARBADR5|10=070|
20150522-11:56:47.239: 8=FIX.4.4|9=245|35=X|34=159|49=MDFHBLP|52=20150522-11:56:47.065|56=ALGOARBADR5|262=588fb88e85de4822|268=3|279=1|269=0|55=CLP DTTC CURNCY|270=604.5|271=0|290=1|279=1|269=1|55=CLP DTTC CURNCY|270=604.99|271=0|290=1|279=1|269=5|55=CLP DTTC CURNCY|270=604.75|290=1|10=181|
20150522-11:56:47.241: 8=FIX.4.4|9=246|35=X|34=160|49=MDFHBLP|52=20150522-11:56:47.065|56=ALGOARBADR5|262=-71416ea61cdbb728|268=3|279=1|269=0|55=CLP DTTC CURNCY|270=604.5|271=0|290=1|279=1|269=1|55=CLP DTTC CURNCY|270=604.99|271=0|290=1|279=1|269=5|55=CLP DTTC CURNCY|270=604.75|290=1|10=239|
20150522-11:56:47.242: 8=FIX.4.4|9=246|35=X|34=161|49=MDFHBLP|52=20150522-11:56:47.065|56=ALGOARBADR5|262=-787035d21399b9de|268=3|279=1|269=0|55=CLP DTTC CURNCY|270=604.5|271=0|290=1|279=1|269=1|55=CLP DTTC CURNCY|270=604.99|271=0|290=1|279=1|269=5|55=CLP DTTC CURNCY|270=604.75|290=1|10=162|
20150522-11:56:53.305: 8=FIX.4.4|9=141|35=X|34=162|49=MDFHBLP|52=20150522-11:56:53.119|56=ALGOARBADR5|262=588fb88e85de4822|268=1|279=1|269=1|55=CLP DTTC CURNCY|270=605|271=0|290=1|10=050|
20150522-11:56:53.307: 8=FIX.4.4|9=142|35=X|34=163|49=MDFHBLP|52=20150522-11:56:53.135|56=ALGOARBADR5|262=-71416ea61cdbb728|268=1|279=1|269=1|55=CLP DTTC CURNCY|270=605|271=0|290=1|10=115|
20150522-11:56:53.307: 8=FIX.4.4|9=142|35=X|34=164|49=MDFHBLP|52=20150522-11:56:53.135|56=ALGOARBADR5|262=-787035d21399b9de|268=1|279=1|269=1|55=CLP DTTC CURNCY|270=605|271=0|290=1|10=038|
20150522-11:56:53.308: 8=FIX.4.4|9=138|35=X|34=165|49=MDFHBLP|52=20150522-11:56:53.135|56=ALGOARBADR5|262=588fb88e85de4822|268=1|279=1|269=5|55=CLP DTTC CURNCY|270=604.75|290=1|10=206|
20150522-11:56:53.310: 8=FIX.4.4|9=139|35=X|34=166|49=MDFHBLP|52=20150522-11:56:53.135|56=ALGOARBADR5|262=-71416ea61cdbb728|268=1|279=1|269=5|55=CLP DTTC CURNCY|270=604.75|290=1|10=017|
20150522-11:56:53.311: 8=FIX.4.4|9=139|35=X|34=167|49=MDFHBLP|52=20150522-11:56:53.135|56=ALGOARBADR5|262=-787035d21399b9de|268=1|279=1|269=5|55=CLP DTTC CURNCY|270=604.75|290=1|10=196|
20150522-11:57:21.703: 8=FIX.4.4|9=62|35=0|34=38|49=ALGOARBADR5|52=20150522-11:57:21.703|56=MDFHBLP|10=011|
20150522-11:57:53.435: 8=FIX.4.4|9=63|35=0|34=168|49=MDFHBLP|52=20150522-11:57:53.264|56=ALGOARBADR5|10=071|
20150522-11:58:22.703: 8=FIX.4.4|9=62|35=0|34=39|49=ALGOARBADR5|52=20150522-11:58:22.703|56=MDFHBLP|10=014|
20150522-11:58:53.436: 8=FIX.4.4|9=63|35=0|34=169|49=MDFHBLP|52=20150522-11:58:53.264|56=ALGOARBADR5|10=073|
20150522-11:59:06.215: 8=FIX.4.4|9=138|35=X|34=170|49=MDFHBLP|52=20150522-11:59:06.030|56=ALGOARBADR5|262=588fb88e85de4822|268=1|279=1|269=5|55=CLP DTTC CURNCY|270=604.76|290=1|10=198|
20150522-11:59:06.218: 8=FIX.4.4|9=139|35=X|34=171|49=MDFHBLP|52=20150522-11:59:06.030|56=ALGOARBADR5|262=-71416ea61cdbb728|268=1|279=1|269=5|55=CLP DTTC CURNCY|270=604.76|290=1|10=009|
20150522-11:59:06.218: 8=FIX.4.4|9=139|35=X|34=172|49=MDFHBLP|52=20150522-11:59:06.030|56=ALGOARBADR5|262=-787035d21399b9de|268=1|279=1|269=5|55=CLP DTTC CURNCY|270=604.76|290=1|10=188|
20150522-11:59:06.219: 8=FIX.4.4|9=144|35=X|34=173|49=MDFHBLP|52=20150522-11:59:06.046|56=ALGOARBADR5|262=588fb88e85de4822|268=1|279=1|269=0|55=CLP DTTC CURNCY|270=604.51|271=0|290=1|10=201|
20150522-11:59:06.220: 8=FIX.4.4|9=145|35=X|34=174|49=MDFHBLP|52=20150522-11:59:06.046|56=ALGOARBADR5|262=-71416ea61cdbb728|268=1|279=1|269=0|55=CLP DTTC CURNCY|270=604.51|271=0|290=1|10=012|
20150522-11:59:06.221: 8=FIX.4.4|9=145|35=X|34=175|49=MDFHBLP|52=20150522-11:59:06.046|56=ALGOARBADR5|262=-787035d21399b9de|268=1|279=1|269=0|55=CLP DTTC CURNCY|270=604.51|271=0|290=1|10=191|
20150522-11:59:23.702: 8=FIX.4.4|9=62|35=0|34=40|49=ALGOARBADR5|52=20150522-11:59:23.702|56=MDFHBLP|10=007|
20150522-12:00:06.439: 8=FIX.4.4|9=63|35=0|34=176|49=MDFHBLP|52=20150522-12:00:06.267|56=ALGOARBADR5|10=060|
20150522-12:00:23.703: 8=FIX.4.4|9=62|35=0|34=41|49=ALGOARBADR5|52=20150522-12:00:23.703|56=MDFHBLP|10=252|
20150522-12:01:06.443: 8=FIX.4.4|9=63|35=0|34=177|49=MDFHBLP|52=20150522-12:01:06.270|56=ALGOARBADR5|10=056|
20150522-12:01:24.703: 8=FIX.4.4|9=62|35=0|34=42|49=ALGOARBADR5|52=20150522-12:01:24.703|56=MDFHBLP|10=255|
20150522-12:02:07.435: 8=FIX.4.4|9=63|35=0|34=178|49=MDFHBLP|52=20150522-12:02:07.262|56=ALGOARBADR5|10=060|
20150522-12:02:25.704: 8=FIX.4.4|9=62|35=0|34=43|49=ALGOARBADR5|52=20150522-12:02:25.703|56=MDFHBLP|10=002|
20150522-12:03:07.440: 8=FIX.4.4|9=63|35=0|34=179|49=MDFHBLP|52=20150522-12:03:07.266|56=ALGOARBADR5|10=066|
20150522-12:03:26.703: 8=FIX.4.4|9=62|35=0|34=44|49=ALGOARBADR5|52=20150522-12:03:26.703|56=MDFHBLP|10=005|
20150522-12:03:35.717: 8=FIX.4.4|9=138|35=X|34=180|49=MDFHBLP|52=20150522-12:03:35.543|56=ALGOARBADR5|262=588fb88e85de4822|268=1|279=1|269=5|55=CLP DTTC CURNCY|270=604.95|290=1|10=201|
20150522-12:03:35.719: 8=FIX.4.4|9=139|35=X|34=181|49=MDFHBLP|52=20150522-12:03:35.543|56=ALGOARBADR5|262=-71416ea61cdbb728|268=1|279=1|269=5|55=CLP DTTC CURNCY|270=604.95|290=1|10=012|
20150522-12:03:35.720: 8=FIX.4.4|9=139|35=X|34=182|49=MDFHBLP|52=20150522-12:03:35.543|56=ALGOARBADR5|262=-787035d21399b9de|268=1|279=1|269=5|55=CLP DTTC CURNCY|270=604.95|290=1|10=191|
20150522-12:03:35.720: 8=FIX.4.4|9=143|35=X|34=183|49=MDFHBLP|52=20150522-12:03:35.543|56=ALGOARBADR5|262=588fb88e85de4822|268=1|279=1|269=0|55=CLP DTTC CURNCY|270=604.9|271=0|290=1|10=150|
20150522-12:03:35.722: 8=FIX.4.4|9=144|35=X|34=184|49=MDFHBLP|52=20150522-12:03:35.543|56=ALGOARBADR5|262=-71416ea61cdbb728|268=1|279=1|269=0|55=CLP DTTC CURNCY|270=604.9|271=0|290=1|10=217|
20150522-12:03:35.722: 8=FIX.4.4|9=144|35=X|34=185|49=MDFHBLP|52=20150522-12:03:35.543|56=ALGOARBADR5|262=-787035d21399b9de|268=1|279=1|269=0|55=CLP DTTC CURNCY|270=604.9|271=0|290=1|10=140|
20150522-12:03:46.223: 8=FIX.4.4|9=144|35=X|34=186|49=MDFHBLP|52=20150522-12:03:46.044|56=ALGOARBADR5|262=588fb88e85de4822|268=1|279=1|269=0|55=CLP DTTC CURNCY|270=604.51|271=0|290=1|10=197|
20150522-12:03:46.225: 8=FIX.4.4|9=145|35=X|34=187|49=MDFHBLP|52=20150522-12:03:46.044|56=ALGOARBADR5|262=-71416ea61cdbb728|268=1|279=1|269=0|55=CLP DTTC CURNCY|270=604.51|271=0|290=1|10=008|
20150522-12:03:46.226: 8=FIX.4.4|9=145|35=X|34=188|49=MDFHBLP|52=20150522-12:03:46.044|56=ALGOARBADR5|262=-787035d21399b9de|268=1|279=1|269=0|55=CLP DTTC CURNCY|270=604.51|271=0|290=1|10=187|
20150522-12:03:46.226: 8=FIX.4.4|9=138|35=X|34=189|49=MDFHBLP|52=20150522-12:03:46.044|56=ALGOARBADR5|262=588fb88e85de4822|268=1|279=1|269=5|55=CLP DTTC CURNCY|270=604.76|290=1|10=207|
20150522-12:03:46.228: 8=FIX.4.4|9=139|35=X|34=190|49=MDFHBLP|52=20150522-12:03:46.044|56=ALGOARBADR5|262=-71416ea61cdbb728|268=1|279=1|269=5|55=CLP DTTC CURNCY|270=604.76|290=1|10=009|
20150522-12:03:46.229: 8=FIX.4.4|9=139|35=X|34=191|49=MDFHBLP|52=20150522-12:03:46.044|56=ALGOARBADR5|262=-787035d21399b9de|268=1|279=1|269=5|55=CLP DTTC CURNCY|270=604.76|290=1|10=188|
20150522-12:03:54.175: 8=FIX.4.4|9=143|35=X|34=192|49=MDFHBLP|52=20150522-12:03:53.987|56=ALGOARBADR5|262=588fb88e85de4822|268=1|279=1|269=0|55=CLP DTTC CURNCY|270=604.9|271=0|290=1|10=162|
20150522-12:03:54.176: 8=FIX.4.4|9=144|35=X|34=193|49=MDFHBLP|52=20150522-12:03:54.003|56=ALGOARBADR5|262=-71416ea61cdbb728|268=1|279=1|269=0|55=CLP DTTC CURNCY|270=604.9|271=0|290=1|10=209|
20150522-12:03:54.177: 8=FIX.4.4|9=144|35=X|34=194|49=MDFHBLP|52=20150522-12:03:54.003|56=ALGOARBADR5|262=-787035d21399b9de|268=1|279=1|269=0|55=CLP DTTC CURNCY|270=604.9|271=0|290=1|10=132|
20150522-12:03:54.178: 8=FIX.4.4|9=138|35=X|34=195|49=MDFHBLP|52=20150522-12:03:54.003|56=ALGOARBADR5|262=588fb88e85de4822|268=1|279=1|269=5|55=CLP DTTC CURNCY|270=604.95|290=1|10=199|
20150522-12:03:54.179: 8=FIX.4.4|9=139|35=X|34=196|49=MDFHBLP|52=20150522-12:03:54.003|56=ALGOARBADR5|262=-71416ea61cdbb728|268=1|279=1|269=5|55=CLP DTTC CURNCY|270=604.95|290=1|10=010|
20150522-12:03:54.180: 8=FIX.4.4|9=139|35=X|34=197|49=MDFHBLP|52=20150522-12:03:54.003|56=ALGOARBADR5|262=-787035d21399b9de|268=1|279=1|269=5|55=CLP DTTC CURNCY|270=604.95|290=1|10=189|
20150522-12:04:05.981: 8=FIX.4.4|9=143|35=X|34=198|49=MDFHBLP|52=20150522-12:04:05.805|56=ALGOARBADR5|262=588fb88e85de4822|268=1|279=1|269=1|55=CLP DTTC CURNCY|270=605.3|271=0|290=1|10=151|
20150522-12:04:05.983: 8=FIX.4.4|9=144|35=X|34=199|49=MDFHBLP|52=20150522-12:04:05.805|56=ALGOARBADR5|262=-71416ea61cdbb728|268=1|279=1|269=1|55=CLP DTTC CURNCY|270=605.3|271=0|290=1|10=218|
20150522-12:04:05.984: 8=FIX.4.4|9=144|35=X|34=200|49=MDFHBLP|52=20150522-12:04:05.805|56=ALGOARBADR5|262=-787035d21399b9de|268=1|279=1|269=1|55=CLP DTTC CURNCY|270=605.3|271=0|290=1|10=123|
20150522-12:04:05.984: 8=FIX.4.4|9=137|35=X|34=201|49=MDFHBLP|52=20150522-12:04:05.805|56=ALGOARBADR5|262=588fb88e85de4822|268=1|279=1|269=5|55=CLP DTTC CURNCY|270=605.1|290=1|10=133|
20150522-12:04:05.986: 8=FIX.4.4|9=138|35=X|34=202|49=MDFHBLP|52=20150522-12:04:05.805|56=ALGOARBADR5|262=-71416ea61cdbb728|268=1|279=1|269=5|55=CLP DTTC CURNCY|270=605.1|290=1|10=200|
20150522-12:04:05.986: 8=FIX.4.4|9=138|35=X|34=203|49=MDFHBLP|52=20150522-12:04:05.805|56=ALGOARBADR5|262=-787035d21399b9de|268=1|279=1|269=5|55=CLP DTTC CURNCY|270=605.1|290=1|10=123|
20150522-12:04:24.575: 8=FIX.4.4|9=144|35=X|34=204|49=MDFHBLP|52=20150522-12:04:24.391|56=ALGOARBADR5|262=588fb88e85de4822|268=1|279=1|269=0|55=CLP DTTC CURNCY|270=604.51|271=0|290=1|10=190|
20150522-12:04:24.577: 8=FIX.4.4|9=145|35=X|34=205|49=MDFHBLP|52=20150522-12:04:24.391|56=ALGOARBADR5|262=-71416ea61cdbb728|268=1|279=1|269=0|55=CLP DTTC CURNCY|270=604.51|271=0|290=1|10=001|
20150522-12:04:24.577: 8=FIX.4.4|9=145|35=X|34=206|49=MDFHBLP|52=20150522-12:04:24.391|56=ALGOARBADR5|262=-787035d21399b9de|268=1|279=1|269=0|55=CLP DTTC CURNCY|270=604.51|271=0|290=1|10=180|
20150522-12:04:24.578: 8=FIX.4.4|9=138|35=X|34=207|49=MDFHBLP|52=20150522-12:04:24.391|56=ALGOARBADR5|262=588fb88e85de4822|268=1|279=1|269=5|55=CLP DTTC CURNCY|270=604.91|290=1|10=197|
20150522-12:04:24.580: 8=FIX.4.4|9=139|35=X|34=208|49=MDFHBLP|52=20150522-12:04:24.391|56=ALGOARBADR5|262=-71416ea61cdbb728|268=1|279=1|269=5|55=CLP DTTC CURNCY|270=604.91|290=1|10=008|
20150522-12:04:24.581: 8=FIX.4.4|9=139|35=X|34=209|49=MDFHBLP|52=20150522-12:04:24.406|56=ALGOARBADR5|262=-787035d21399b9de|268=1|279=1|269=5|55=CLP DTTC CURNCY|270=604.91|290=1|10=184|
20150522-12:04:26.703: 8=FIX.4.4|9=62|35=0|34=45|49=ALGOARBADR5|52=20150522-12:04:26.703|56=MDFHBLP|10=007|
20150522-12:04:27.076: 8=FIX.4.4|9=141|35=X|34=210|49=MDFHBLP|52=20150522-12:04:26.902|56=ALGOARBADR5|262=588fb88e85de4822|268=1|279=1|269=0|55=CLP DTTC CURNCY|270=605|271=0|290=1|10=037|
20150522-12:04:27.078: 8=FIX.4.4|9=142|35=X|34=211|49=MDFHBLP|52=20150522-12:04:26.902|56=ALGOARBADR5|262=-71416ea61cdbb728|268=1|279=1|269=0|55=CLP DTTC CURNCY|270=605|271=0|290=1|10=104|
20150522-12:04:27.079: 8=FIX.4.4|9=142|35=X|34=212|49=MDFHBLP|52=20150522-12:04:26.902|56=ALGOARBADR5|262=-787035d21399b9de|268=1|279=1|269=0|55=CLP DTTC CURNCY|270=605|271=0|290=1|10=027|
20150522-12:04:27.080: 8=FIX.4.4|9=138|35=X|34=213|49=MDFHBLP|52=20150522-12:04:26.902|56=ALGOARBADR5|262=588fb88e85de4822|268=1|279=1|269=5|55=CLP DTTC CURNCY|270=605.15|290=1|10=191|
20150522-12:04:27.081: 8=FIX.4.4|9=139|35=X|34=214|49=MDFHBLP|52=20150522-12:04:26.902|56=ALGOARBADR5|262=-71416ea61cdbb728|268=1|279=1|269=5|55=CLP DTTC CURNCY|270=605.15|290=1|10=002|
20150522-12:04:27.082: 8=FIX.4.4|9=139|35=X|34=215|49=MDFHBLP|52=20150522-12:04:26.902|56=ALGOARBADR5|262=-787035d21399b9de|268=1|279=1|269=5|55=CLP DTTC CURNCY|270=605.15|290=1|10=181|
20150522-12:04:42.644: 8=FIX.4.4|9=144|35=X|34=216|49=MDFHBLP|52=20150522-12:04:42.462|56=ALGOARBADR5|262=588fb88e85de4822|268=1|279=1|269=1|55=CLP DTTC CURNCY|270=605.15|271=0|290=1|10=194|
20150522-12:04:42.646: 8=FIX.4.4|9=145|35=X|34=217|49=MDFHBLP|52=20150522-12:04:42.462|56=ALGOARBADR5|262=-71416ea61cdbb728|268=1|279=1|269=1|55=CLP DTTC CURNCY|270=605.15|271=0|290=1|10=005|
20150522-12:04:42.646: 8=FIX.4.4|9=145|35=X|34=218|49=MDFHBLP|52=20150522-12:04:42.462|56=ALGOARBADR5|262=-787035d21399b9de|268=1|279=1|269=1|55=CLP DTTC CURNCY|270=605.15|271=0|290=1|10=184|
20150522-12:04:42.647: 8=FIX.4.4|9=138|35=X|34=219|49=MDFHBLP|52=20150522-12:04:42.462|56=ALGOARBADR5|262=588fb88e85de4822|268=1|279=1|269=5|55=CLP DTTC CURNCY|270=605.07|290=1|10=197|
20150522-12:04:42.649: 8=FIX.4.4|9=139|35=X|34=220|49=MDFHBLP|52=20150522-12:04:42.462|56=ALGOARBADR5|262=-71416ea61cdbb728|268=1|279=1|269=5|55=CLP DTTC CURNCY|270=605.07|290=1|10=255|
20150522-12:04:42.649: 8=FIX.4.4|9=139|35=X|34=221|49=MDFHBLP|52=20150522-12:04:42.462|56=ALGOARBADR5|262=-787035d21399b9de|268=1|279=1|269=5|55=CLP DTTC CURNCY|270=605.07|290=1|10=178|
20150522-12:04:53.014: 8=FIX.4.4|9=143|35=X|34=222|49=MDFHBLP|52=20150522-12:04:52.840|56=ALGOARBADR5|262=588fb88e85de4822|268=1|279=1|269=1|55=CLP DTTC CURNCY|270=605.2|271=0|290=1|10=139|
20150522-12:04:53.016: 8=FIX.4.4|9=144|35=X|34=223|49=MDFHBLP|52=20150522-12:04:52.840|56=ALGOARBADR5|262=-71416ea61cdbb728|268=1|279=1|269=1|55=CLP DTTC CURNCY|270=605.2|271=0|290=1|10=206|
20150522-12:04:53.017: 8=FIX.4.4|9=144|35=X|34=224|49=MDFHBLP|52=20150522-12:04:52.840|56=ALGOARBADR5|262=-787035d21399b9de|268=1|279=1|269=1|55=CLP DTTC CURNCY|270=605.2|271=0|290=1|10=129|
20150522-12:04:53.018: 8=FIX.4.4|9=137|35=X|34=225|49=MDFHBLP|52=20150522-12:04:52.840|56=ALGOARBADR5|262=588fb88e85de4822|268=1|279=1|269=5|55=CLP DTTC CURNCY|270=605.1|290=1|10=140|
20150522-12:04:53.019: 8=FIX.4.4|9=138|35=X|34=226|49=MDFHBLP|52=20150522-12:04:52.840|56=ALGOARBADR5|262=-71416ea61cdbb728|268=1|279=1|269=5|55=CLP DTTC CURNCY|270=605.1|290=1|10=207|
20150522-12:04:53.020: 8=FIX.4.4|9=138|35=X|34=227|49=MDFHBLP|52=20150522-12:04:52.840|56=ALGOARBADR5|262=-787035d21399b9de|268=1|279=1|269=5|55=CLP DTTC CURNCY|270=605.1|290=1|10=130|
20150522-12:05:05.906: 8=FIX.4.4|9=144|35=X|34=228|49=MDFHBLP|52=20150522-12:05:05.729|56=ALGOARBADR5|262=588fb88e85de4822|268=1|279=1|269=0|55=CLP DTTC CURNCY|270=604.51|271=0|290=1|10=201|
20150522-12:05:05.908: 8=FIX.4.4|9=145|35=X|34=229|49=MDFHBLP|52=20150522-12:05:05.729|56=ALGOARBADR5|262=-71416ea61cdbb728|268=1|279=1|269=0|55=CLP DTTC CURNCY|270=604.51|271=0|290=1|10=012|
20150522-12:05:05.909: 8=FIX.4.4|9=145|35=X|34=230|49=MDFHBLP|52=20150522-12:05:05.729|56=ALGOARBADR5|262=-787035d21399b9de|268=1|279=1|269=0|55=CLP DTTC CURNCY|270=604.51|271=0|290=1|10=182|
20150522-12:05:05.910: 8=FIX.4.4|9=138|35=X|34=231|49=MDFHBLP|52=20150522-12:05:05.729|56=ALGOARBADR5|262=588fb88e85de4822|268=1|279=1|269=5|55=CLP DTTC CURNCY|270=604.85|290=1|10=202|
20150522-12:05:05.911: 8=FIX.4.4|9=139|35=X|34=232|49=MDFHBLP|52=20150522-12:05:05.729|56=ALGOARBADR5|262=-71416ea61cdbb728|268=1|279=1|269=5|55=CLP DTTC CURNCY|270=604.85|290=1|10=013|
20150522-12:05:05.911: 8=FIX.4.4|9=139|35=X|34=233|49=MDFHBLP|52=20150522-12:05:05.729|56=ALGOARBADR5|262=-787035d21399b9de|268=1|279=1|269=5|55=CLP DTTC CURNCY|270=604.85|290=1|10=192|
20150522-12:05:06.561: 8=FIX.4.4|9=143|35=X|34=234|49=MDFHBLP|52=20150522-12:05:06.386|56=ALGOARBADR5|262=588fb88e85de4822|268=1|279=1|269=1|55=CLP DTTC CURNCY|270=605.3|271=0|290=1|10=148|
20150522-12:05:06.562: 8=FIX.4.4|9=144|35=X|34=235|49=MDFHBLP|52=20150522-12:05:06.386|56=ALGOARBADR5|262=-71416ea61cdbb728|268=1|279=1|269=1|55=CLP DTTC CURNCY|270=605.3|271=0|290=1|10=215|
20150522-12:05:06.563: 8=FIX.4.4|9=144|35=X|34=236|49=MDFHBLP|52=20150522-12:05:06.386|56=ALGOARBADR5|262=-787035d21399b9de|268=1|279=1|269=1|55=CLP DTTC CURNCY|270=605.3|271=0|290=1|10=138|
20150522-12:05:06.564: 8=FIX.4.4|9=138|35=X|34=237|49=MDFHBLP|52=20150522-12:05:06.386|56=ALGOARBADR5|262=588fb88e85de4822|268=1|279=1|269=5|55=CLP DTTC CURNCY|270=604.91|290=1|10=205|
20150522-12:05:06.565: 8=FIX.4.4|9=139|35=X|34=238|49=MDFHBLP|52=20150522-12:05:06.386|56=ALGOARBADR5|262=-71416ea61cdbb728|268=1|279=1|269=5|55=CLP DTTC CURNCY|270=604.91|290=1|10=016|
20150522-12:05:06.566: 8=FIX.4.4|9=139|35=X|34=239|49=MDFHBLP|52=20150522-12:05:06.386|56=ALGOARBADR5|262=-787035d21399b9de|268=1|279=1|269=5|55=CLP DTTC CURNCY|270=604.91|290=1|10=195|
20150522-12:05:15.783: 8=FIX.4.4|9=144|35=X|34=240|49=MDFHBLP|52=20150522-12:05:15.608|56=ALGOARBADR5|262=588fb88e85de4822|268=1|279=1|269=0|55=CLP DTTC CURNCY|270=604.55|271=0|290=1|10=196|
20150522-12:05:15.785: 8=FIX.4.4|9=145|35=X|34=241|49=MDFHBLP|52=20150522-12:05:15.608|56=ALGOARBADR5|262=-71416ea61cdbb728|268=1|279=1|269=0|55=CLP DTTC CURNCY|270=604.55|271=0|290=1|10=007|
20150522-12:05:15.785: 8=FIX.4.4|9=145|35=X|34=242|49=MDFHBLP|52=20150522-12:05:15.608|56=ALGOARBADR5|262=-787035d21399b9de|268=1|279=1|269=0|55=CLP DTTC CURNCY|270=604.55|271=0|290=1|10=186|
20150522-12:05:15.786: 8=FIX.4.4|9=138|35=X|34=243|49=MDFHBLP|52=20150522-12:05:15.608|56=ALGOARBADR5|262=588fb88e85de4822|268=1|279=1|269=5|55=CLP DTTC CURNCY|270=604.93|290=1|10=201|
20150522-12:05:15.788: 8=FIX.4.4|9=139|35=X|34=244|49=MDFHBLP|52=20150522-12:05:15.608|56=ALGOARBADR5|262=-71416ea61cdbb728|268=1|279=1|269=5|55=CLP DTTC CURNCY|270=604.93|290=1|10=012|
20150522-12:05:15.789: 8=FIX.4.4|9=139|35=X|34=245|49=MDFHBLP|52=20150522-12:05:15.608|56=ALGOARBADR5|262=-787035d21399b9de|268=1|279=1|269=5|55=CLP DTTC CURNCY|270=604.93|290=1|10=191|
20150522-12:05:16.691: 8=FIX.4.4|9=143|35=X|34=246|49=MDFHBLP|52=20150522-12:05:16.513|56=ALGOARBADR5|262=588fb88e85de4822|268=1|279=1|269=1|55=CLP DTTC CURNCY|270=605.2|271=0|290=1|10=143|
20150522-12:05:16.693: 8=FIX.4.4|9=144|35=X|34=247|49=MDFHBLP|52=20150522-12:05:16.513|56=ALGOARBADR5|262=-71416ea61cdbb728|268=1|279=1|269=1|55=CLP DTTC CURNCY|270=605.2|271=0|290=1|10=210|
20150522-12:05:16.693: 8=FIX.4.4|9=144|35=X|34=248|49=MDFHBLP|52=20150522-12:05:16.513|56=ALGOARBADR5|262=-787035d21399b9de|268=1|279=1|269=1|55=CLP DTTC CURNCY|270=605.2|271=0|290=1|10=133|
20150522-12:05:16.694: 8=FIX.4.4|9=138|35=X|34=249|49=MDFHBLP|52=20150522-12:05:16.513|56=ALGOARBADR5|262=588fb88e85de4822|268=1|279=1|269=5|55=CLP DTTC CURNCY|270=604.88|290=1|10=207|
20150522-12:05:16.695: 8=FIX.4.4|9=139|35=X|34=250|49=MDFHBLP|52=20150522-12:05:16.513|56=ALGOARBADR5|262=-71416ea61cdbb728|268=1|279=1|269=5|55=CLP DTTC CURNCY|270=604.88|290=1|10=009|
20150522-12:05:16.696: 8=FIX.4.4|9=139|35=X|34=251|49=MDFHBLP|52=20150522-12:05:16.513|56=ALGOARBADR5|262=-787035d21399b9de|268=1|279=1|269=5|55=CLP DTTC CURNCY|270=604.88|290=1|10=188|
20150522-12:05:26.704: 8=FIX.4.4|9=62|35=0|34=46|49=ALGOARBADR5|52=20150522-12:05:26.703|56=MDFHBLP|10=009|
20150522-12:05:54.014: 8=FIX.4.4|9=144|35=X|34=252|49=MDFHBLP|52=20150522-12:05:53.836|56=ALGOARBADR5|262=588fb88e85de4822|268=1|279=1|269=1|55=CLP DTTC CURNCY|270=605.15|271=0|290=1|10=202|
20150522-12:05:54.016: 8=FIX.4.4|9=145|35=X|34=253|49=MDFHBLP|52=20150522-12:05:53.836|56=ALGOARBADR5|262=-71416ea61cdbb728|268=1|279=1|269=1|55=CLP DTTC CURNCY|270=605.15|271=0|290=1|10=013|
20150522-12:05:54.017: 8=FIX.4.4|9=145|35=X|34=254|49=MDFHBLP|52=20150522-12:05:53.836|56=ALGOARBADR5|262=-787035d21399b9de|268=1|279=1|269=1|55=CLP DTTC CURNCY|270=605.15|271=0|290=1|10=192|
20150522-12:05:54.017: 8=FIX.4.4|9=138|35=X|34=255|49=MDFHBLP|52=20150522-12:05:53.836|56=ALGOARBADR5|262=588fb88e85de4822|268=1|279=1|269=5|55=CLP DTTC CURNCY|270=604.85|290=1|10=210|
20150522-12:05:54.027: 8=FIX.4.4|9=139|35=X|34=256|49=MDFHBLP|52=20150522-12:05:53.836|56=ALGOARBADR5|262=-71416ea61cdbb728|268=1|279=1|269=5|55=CLP DTTC CURNCY|270=604.85|290=1|10=021|
20150522-12:05:54.028: 8=FIX.4.4|9=139|35=X|34=257|49=MDFHBLP|52=20150522-12:05:53.836|56=ALGOARBADR5|262=-787035d21399b9de|268=1|279=1|269=5|55=CLP DTTC CURNCY|270=604.85|290=1|10=200|
20150522-12:06:09.100: 8=FIX.4.4|9=143|35=X|34=258|49=MDFHBLP|52=20150522-12:06:08.910|56=ALGOARBADR5|262=588fb88e85de4822|268=1|279=1|269=0|55=CLP DTTC CURNCY|270=604.6|271=0|290=1|10=151|
20150522-12:06:09.102: 8=FIX.4.4|9=144|35=X|34=259|49=MDFHBLP|52=20150522-12:06:08.926|56=ALGOARBADR5|262=-71416ea61cdbb728|268=1|279=1|269=0|55=CLP DTTC CURNCY|270=604.6|271=0|290=1|10=225|
20150522-12:06:09.103: 8=FIX.4.4|9=144|35=X|34=260|49=MDFHBLP|52=20150522-12:06:08.926|56=ALGOARBADR5|262=-787035d21399b9de|268=1|279=1|269=0|55=CLP DTTC CURNCY|270=604.6|271=0|290=1|10=139|
20150522-12:06:09.103: 8=FIX.4.4|9=138|35=X|34=261|49=MDFHBLP|52=20150522-12:06:08.926|56=ALGOARBADR5|262=588fb88e85de4822|268=1|279=1|269=5|55=CLP DTTC CURNCY|270=604.88|290=1|10=211|
20150522-12:06:09.105: 8=FIX.4.4|9=139|35=X|34=262|49=MDFHBLP|52=20150522-12:06:08.926|56=ALGOARBADR5|262=-71416ea61cdbb728|268=1|279=1|269=5|55=CLP DTTC CURNCY|270=604.88|290=1|10=022|
20150522-12:06:09.105: 8=FIX.4.4|9=139|35=X|34=263|49=MDFHBLP|52=20150522-12:06:08.926|56=ALGOARBADR5|262=-787035d21399b9de|268=1|279=1|269=5|55=CLP DTTC CURNCY|270=604.88|290=1|10=201|
20150522-12:06:27.703: 8=FIX.4.4|9=62|35=0|34=47|49=ALGOARBADR5|52=20150522-12:06:27.703|56=MDFHBLP|10=012|
20150522-12:06:44.843: 8=FIX.4.4|9=143|35=X|34=264|49=MDFHBLP|52=20150522-12:06:44.654|56=ALGOARBADR5|262=588fb88e85de4822|268=1|279=1|269=1|55=CLP DTTC CURNCY|270=605.2|271=0|290=1|10=151|
20150522-12:06:44.845: 8=FIX.4.4|9=144|35=X|34=265|49=MDFHBLP|52=20150522-12:06:44.669|56=ALGOARBADR5|262=-71416ea61cdbb728|268=1|279=1|269=1|55=CLP DTTC CURNCY|270=605.2|271=0|290=1|10=224|
20150522-12:06:44.845: 8=FIX.4.4|9=144|35=X|34=266|49=MDFHBLP|52=20150522-12:06:44.669|56=ALGOARBADR5|262=-787035d21399b9de|268=1|279=1|269=1|55=CLP DTTC CURNCY|270=605.2|271=0|290=1|10=147|
20150522-12:06:44.846: 8=FIX.4.4|9=137|35=X|34=267|49=MDFHBLP|52=20150522-12:06:44.669|56=ALGOARBADR5|262=588fb88e85de4822|268=1|279=1|269=5|55=CLP DTTC CURNCY|270=604.9|290=1|10=165|
20150522-12:06:44.848: 8=FIX.4.4|9=138|35=X|34=268|49=MDFHBLP|52=20150522-12:06:44.669|56=ALGOARBADR5|262=-71416ea61cdbb728|268=1|279=1|269=5|55=CLP DTTC CURNCY|270=604.9|290=1|10=232|
20150522-12:06:44.848: 8=FIX.4.4|9=138|35=X|34=269|49=MDFHBLP|52=20150522-12:06:44.669|56=ALGOARBADR5|262=-787035d21399b9de|268=1|279=1|269=5|55=CLP DTTC CURNCY|270=604.9|290=1|10=155|
20150522-12:07:12.342: 8=FIX.4.4|9=144|35=X|34=270|49=MDFHBLP|52=20150522-12:07:12.166|56=ALGOARBADR5|262=588fb88e85de4822|268=1|279=1|269=0|55=CLP DTTC CURNCY|270=604.62|271=0|290=1|10=195|
20150522-12:07:12.344: 8=FIX.4.4|9=145|35=X|34=271|49=MDFHBLP|52=20150522-12:07:12.166|56=ALGOARBADR5|262=-71416ea61cdbb728|268=1|279=1|269=0|55=CLP DTTC CURNCY|270=604.62|271=0|290=1|10=006|
20150522-12:07:12.344: 8=FIX.4.4|9=145|35=X|34=272|49=MDFHBLP|52=20150522-12:07:12.166|56=ALGOARBADR5|262=-787035d21399b9de|268=1|279=1|269=0|55=CLP DTTC CURNCY|270=604.62|271=0|290=1|10=185|
20150522-12:07:12.345: 8=FIX.4.4|9=138|35=X|34=273|49=MDFHBLP|52=20150522-12:07:12.166|56=ALGOARBADR5|262=588fb88e85de4822|268=1|279=1|269=5|55=CLP DTTC CURNCY|270=604.91|290=1|10=200|
20150522-12:07:12.347: 8=FIX.4.4|9=139|35=X|34=274|49=MDFHBLP|52=20150522-12:07:12.166|56=ALGOARBADR5|262=-71416ea61cdbb728|268=1|279=1|269=5|55=CLP DTTC CURNCY|270=604.91|290=1|10=011|
20150522-12:07:12.347: 8=FIX.4.4|9=139|35=X|34=275|49=MDFHBLP|52=20150522-12:07:12.166|56=ALGOARBADR5|262=-787035d21399b9de|268=1|279=1|269=5|55=CLP DTTC CURNCY|270=604.91|290=1|10=190|
20150522-12:07:27.704: 8=FIX.4.4|9=62|35=0|34=48|49=ALGOARBADR5|52=20150522-12:07:27.703|56=MDFHBLP|10=014|
20150522-12:08:12.453: 8=FIX.4.4|9=63|35=0|34=276|49=MDFHBLP|52=20150522-12:08:12.277|56=ALGOARBADR5|10=067|
20150522-12:08:25.709: 8=FIX.4.4|9=141|35=X|34=277|49=MDFHBLP|52=20150522-12:08:25.527|56=ALGOARBADR5|262=588fb88e85de4822|268=1|279=1|269=0|55=CLP DTTC CURNCY|270=605|271=0|290=1|10=056|
20150522-12:08:25.711: 8=FIX.4.4|9=142|35=X|34=278|49=MDFHBLP|52=20150522-12:08:25.527|56=ALGOARBADR5|262=-71416ea61cdbb728|268=1|279=1|269=0|55=CLP DTTC CURNCY|270=605|271=0|290=1|10=123|
20150522-12:08:25.712: 8=FIX.4.4|9=142|35=X|34=279|49=MDFHBLP|52=20150522-12:08:25.527|56=ALGOARBADR5|262=-787035d21399b9de|268=1|279=1|269=0|55=CLP DTTC CURNCY|270=605|271=0|290=1|10=046|
20150522-12:08:25.712: 8=FIX.4.4|9=137|35=X|34=280|49=MDFHBLP|52=20150522-12:08:25.527|56=ALGOARBADR5|262=588fb88e85de4822|268=1|279=1|269=5|55=CLP DTTC CURNCY|270=605.1|290=1|10=147|
20150522-12:08:25.713: 8=FIX.4.4|9=138|35=X|34=281|49=MDFHBLP|52=20150522-12:08:25.527|56=ALGOARBADR5|262=-71416ea61cdbb728|268=1|279=1|269=5|55=CLP DTTC CURNCY|270=605.1|290=1|10=214|
20150522-12:08:25.714: 8=FIX.4.4|9=138|35=X|34=282|49=MDFHBLP|52=20150522-12:08:25.527|56=ALGOARBADR5|262=-787035d21399b9de|268=1|279=1|269=5|55=CLP DTTC CURNCY|270=605.1|290=1|10=137|
20150522-12:08:27.704: 8=FIX.4.4|9=62|35=0|34=49|49=ALGOARBADR5|52=20150522-12:08:27.704|56=MDFHBLP|10=017|
20150522-12:08:58.487: 8=FIX.4.4|9=144|35=X|34=283|49=MDFHBLP|52=20150522-12:08:58.292|56=ALGOARBADR5|262=588fb88e85de4822|268=1|279=1|269=0|55=CLP DTTC CURNCY|270=604.62|271=0|290=1|10=210|
20150522-12:08:58.488: 8=FIX.4.4|9=145|35=X|34=284|49=MDFHBLP|52=20150522-12:08:58.292|56=ALGOARBADR5|262=-71416ea61cdbb728|268=1|279=1|269=0|55=CLP DTTC CURNCY|270=604.62|271=0|290=1|10=021|
20150522-12:08:58.489: 8=FIX.4.4|9=145|35=X|34=285|49=MDFHBLP|52=20150522-12:08:58.292|56=ALGOARBADR5|262=-787035d21399b9de|268=1|279=1|269=0|55=CLP DTTC CURNCY|270=604.62|271=0|290=1|10=200|
20150522-12:08:58.494: 8=FIX.4.4|9=138|35=X|34=286|49=MDFHBLP|52=20150522-12:08:58.292|56=ALGOARBADR5|262=588fb88e85de4822|268=1|279=1|269=5|55=CLP DTTC CURNCY|270=604.91|290=1|10=215|
20150522-12:08:58.494: 8=FIX.4.4|9=139|35=X|34=287|49=MDFHBLP|52=20150522-12:08:58.292|56=ALGOARBADR5|262=-71416ea61cdbb728|268=1|279=1|269=5|55=CLP DTTC CURNCY|270=604.91|290=1|10=026|
20150522-12:08:58.495: 8=FIX.4.4|9=139|35=X|34=288|49=MDFHBLP|52=20150522-12:08:58.292|56=ALGOARBADR5|262=-787035d21399b9de|268=1|279=1|269=5|55=CLP DTTC CURNCY|270=604.91|290=1|10=205|
20150522-12:09:28.703: 8=FIX.4.4|9=62|35=0|34=50|49=ALGOARBADR5|52=20150522-12:09:28.703|56=MDFHBLP|10=010|
20150522-12:09:53.851: 8=FIX.4.4|9=144|35=X|34=289|49=MDFHBLP|52=20150522-12:09:53.662|56=ALGOARBADR5|262=588fb88e85de4822|268=1|279=1|269=0|55=CLP DTTC CURNCY|270=604.65|271=0|290=1|10=216|
20150522-12:09:53.853: 8=FIX.4.4|9=145|35=X|34=290|49=MDFHBLP|52=20150522-12:09:53.662|56=ALGOARBADR5|262=-71416ea61cdbb728|268=1|279=1|269=0|55=CLP DTTC CURNCY|270=604.65|271=0|290=1|10=018|
20150522-12:09:53.853: 8=FIX.4.4|9=145|35=X|34=291|49=MDFHBLP|52=20150522-12:09:53.678|56=ALGOARBADR5|262=-787035d21399b9de|268=1|279=1|269=0|55=CLP DTTC CURNCY|270=604.65|271=0|290=1|10=204|
20150522-12:09:53.854: 8=FIX.4.4|9=138|35=X|34=292|49=MDFHBLP|52=20150522-12:09:53.678|56=ALGOARBADR5|262=588fb88e85de4822|268=1|279=1|269=5|55=CLP DTTC CURNCY|270=604.93|290=1|10=218|
20150522-12:09:53.855: 8=FIX.4.4|9=139|35=X|34=293|49=MDFHBLP|52=20150522-12:09:53.678|56=ALGOARBADR5|262=-71416ea61cdbb728|268=1|279=1|269=5|55=CLP DTTC CURNCY|270=604.93|290=1|10=029|
20150522-12:09:53.857: 8=FIX.4.4|9=139|35=X|34=294|49=MDFHBLP|52=20150522-12:09:53.678|56=ALGOARBADR5|262=-787035d21399b9de|268=1|279=1|269=5|55=CLP DTTC CURNCY|270=604.93|290=1|10=208|
20150522-12:10:07.111: 8=FIX.4.4|9=141|35=X|34=295|49=MDFHBLP|52=20150522-12:10:06.922|56=ALGOARBADR5|262=588fb88e85de4822|268=1|279=1|269=1|55=CLP DTTC CURNCY|270=605|271=0|290=1|10=048|
20150522-12:10:07.114: 8=FIX.4.4|9=142|35=X|34=296|49=MDFHBLP|52=20150522-12:10:06.922|56=ALGOARBADR5|262=-71416ea61cdbb728|268=1|279=1|269=1|55=CLP DTTC CURNCY|270=605|271=0|290=1|10=115|
20150522-12:10:07.115: 8=FIX.4.4|9=142|35=X|34=297|49=MDFHBLP|52=20150522-12:10:06.922|56=ALGOARBADR5|262=-787035d21399b9de|268=1|279=1|269=1|55=CLP DTTC CURNCY|270=605|271=0|290=1|10=038|
20150522-12:10:07.115: 8=FIX.4.4|9=138|35=X|34=298|49=MDFHBLP|52=20150522-12:10:06.922|56=ALGOARBADR5|262=588fb88e85de4822|268=1|279=1|269=5|55=CLP DTTC CURNCY|270=604.82|290=1|10=204|
20150522-12:10:07.117: 8=FIX.4.4|9=139|35=X|34=299|49=MDFHBLP|52=20150522-12:10:06.922|56=ALGOARBADR5|262=-71416ea61cdbb728|268=1|279=1|269=5|55=CLP DTTC CURNCY|270=604.82|290=1|10=015|
20150522-12:10:07.117: 8=FIX.4.4|9=139|35=X|34=300|49=MDFHBLP|52=20150522-12:10:06.922|56=ALGOARBADR5|262=-787035d21399b9de|268=1|279=1|269=5|55=CLP DTTC CURNCY|270=604.82|290=1|10=176|
20150522-12:10:29.702: 8=FIX.4.4|9=62|35=0|34=51|49=ALGOARBADR5|52=20150522-12:10:29.702|56=MDFHBLP|10=003|
20150522-12:10:58.238: 8=FIX.4.4|9=144|35=X|34=301|49=MDFHBLP|52=20150522-12:10:58.054|56=ALGOARBADR5|262=588fb88e85de4822|268=1|279=1|269=1|55=CLP DTTC CURNCY|270=604.99|271=0|290=1|10=201|
20150522-12:10:58.239: 8=FIX.4.4|9=145|35=X|34=302|49=MDFHBLP|52=20150522-12:10:58.054|56=ALGOARBADR5|262=-71416ea61cdbb728|268=1|279=1|269=1|55=CLP DTTC CURNCY|270=604.99|271=0|290=1|10=012|
20150522-12:10:58.239: 8=FIX.4.4|9=145|35=X|34=303|49=MDFHBLP|52=20150522-12:10:58.054|56=ALGOARBADR5|262=-787035d21399b9de|268=1|279=1|269=1|55=CLP DTTC CURNCY|270=604.99|271=0|290=1|10=191|
20150522-12:10:58.240: 8=FIX.4.4|9=138|35=X|34=304|49=MDFHBLP|52=20150522-12:10:58.054|56=ALGOARBADR5|262=588fb88e85de4822|268=1|279=1|269=5|55=CLP DTTC CURNCY|270=604.82|290=1|10=195|
20150522-12:10:58.242: 8=FIX.4.4|9=139|35=X|34=305|49=MDFHBLP|52=20150522-12:10:58.054|56=ALGOARBADR5|262=-71416ea61cdbb728|268=1|279=1|269=5|55=CLP DTTC CURNCY|270=604.82|290=1|10=006|
20150522-12:10:58.243: 8=FIX.4.4|9=139|35=X|34=306|49=MDFHBLP|52=20150522-12:10:58.054|56=ALGOARBADR5|262=-787035d21399b9de|268=1|279=1|269=5|55=CLP DTTC CURNCY|270=604.82|290=1|10=185|
20150522-12:11:29.702: 8=FIX.4.4|9=62|35=0|34=52|49=ALGOARBADR5|52=20150522-12:11:29.702|56=MDFHBLP|10=005|
20150522-12:11:33.533: 8=FIX.4.4|9=141|35=X|34=307|49=MDFHBLP|52=20150522-12:11:33.328|56=ALGOARBADR5|262=588fb88e85de4822|268=1|279=1|269=1|55=CLP DTTC CURNCY|270=605|271=0|290=1|10=043|
20150522-12:11:33.535: 8=FIX.4.4|9=142|35=X|34=308|49=MDFHBLP|52=20150522-12:11:33.330|56=ALGOARBADR5|262=-71416ea61cdbb728|268=1|279=1|269=1|55=CLP DTTC CURNCY|270=605|271=0|290=1|10=103|
20150522-12:11:33.536: 8=FIX.4.4|9=142|35=X|34=309|49=MDFHBLP|52=20150522-12:11:33.331|56=ALGOARBADR5|262=-787035d21399b9de|268=1|279=1|269=1|55=CLP DTTC CURNCY|270=605|271=0|290=1|10=027|
20150522-12:11:33.537: 8=FIX.4.4|9=138|35=X|34=310|49=MDFHBLP|52=20150522-12:11:33.331|56=ALGOARBADR5|262=588fb88e85de4822|268=1|279=1|269=5|55=CLP DTTC CURNCY|270=604.82|290=1|10=184|
20150522-12:11:33.538: 8=FIX.4.4|9=139|35=X|34=311|49=MDFHBLP|52=20150522-12:11:33.333|56=ALGOARBADR5|262=-71416ea61cdbb728|268=1|279=1|269=5|55=CLP DTTC CURNCY|270=604.82|290=1|10=253|
20150522-12:11:33.539: 8=FIX.4.4|9=139|35=X|34=312|49=MDFHBLP|52=20150522-12:11:33.333|56=ALGOARBADR5|262=-787035d21399b9de|268=1|279=1|269=5|55=CLP DTTC CURNCY|270=604.82|290=1|10=176|
20150522-12:12:29.703: 8=FIX.4.4|9=62|35=0|34=53|49=ALGOARBADR5|52=20150522-12:12:29.703|56=MDFHBLP|10=008|
20150522-12:12:34.464: 8=FIX.4.4|9=63|35=0|34=313|49=MDFHBLP|52=20150522-12:12:34.277|56=ALGOARBADR5|10=058|
20150522-12:13:29.703: 8=FIX.4.4|9=62|35=0|34=54|49=ALGOARBADR5|52=20150522-12:13:29.703|56=MDFHBLP|10=010|
20150522-12:13:35.457: 8=FIX.4.4|9=63|35=0|34=314|49=MDFHBLP|52=20150522-12:13:35.253|56=ALGOARBADR5|10=055|
20150522-12:14:05.394: 8=FIX.4.4|9=144|35=X|34=315|49=MDFHBLP|52=20150522-12:14:05.191|56=ALGOARBADR5|262=588fb88e85de4822|268=1|279=1|269=0|55=CLP DTTC CURNCY|270=604.66|271=0|290=1|10=197|
20150522-12:14:05.395: 8=FIX.4.4|9=145|35=X|34=316|49=MDFHBLP|52=20150522-12:14:05.192|56=ALGOARBADR5|262=-71416ea61cdbb728|268=1|279=1|269=0|55=CLP DTTC CURNCY|270=604.66|271=0|290=1|10=009|
20150522-12:14:05.396: 8=FIX.4.4|9=145|35=X|34=317|49=MDFHBLP|52=20150522-12:14:05.192|56=ALGOARBADR5|262=-787035d21399b9de|268=1|279=1|269=0|55=CLP DTTC CURNCY|270=604.66|271=0|290=1|10=188|
20150522-12:14:05.396: 8=FIX.4.4|9=138|35=X|34=318|49=MDFHBLP|52=20150522-12:14:05.193|56=ALGOARBADR5|262=588fb88e85de4822|268=1|279=1|269=5|55=CLP DTTC CURNCY|270=604.83|290=1|10=201|
20150522-12:14:05.397: 8=FIX.4.4|9=139|35=X|34=319|49=MDFHBLP|52=20150522-12:14:05.194|56=ALGOARBADR5|262=-71416ea61cdbb728|268=1|279=1|269=5|55=CLP DTTC CURNCY|270=604.83|290=1|10=013|
20150522-12:14:05.398: 8=FIX.4.4|9=139|35=X|34=320|49=MDFHBLP|52=20150522-12:14:05.194|56=ALGOARBADR5|262=-787035d21399b9de|268=1|279=1|269=5|55=CLP DTTC CURNCY|270=604.83|290=1|10=183|
20150522-12:14:30.703: 8=FIX.4.4|9=62|35=0|34=55|49=ALGOARBADR5|52=20150522-12:14:30.702|56=MDFHBLP|10=003|
20150522-12:15:05.461: 8=FIX.4.4|9=63|35=0|34=321|49=MDFHBLP|52=20150522-12:15:05.259|56=ALGOARBADR5|10=058|
20150522-12:15:30.702: 8=FIX.4.4|9=62|35=0|34=56|49=ALGOARBADR5|52=20150522-12:15:30.702|56=MDFHBLP|10=005|
20150522-12:15:32.180: 8=FIX.4.4|9=143|35=X|34=322|49=MDFHBLP|52=20150522-12:15:31.979|56=ALGOARBADR5|262=588fb88e85de4822|268=1|279=1|269=1|55=CLP DTTC CURNCY|270=604.9|271=0|290=1|10=158|
20150522-12:15:32.182: 8=FIX.4.4|9=144|35=X|34=323|49=MDFHBLP|52=20150522-12:15:31.981|56=ALGOARBADR5|262=-71416ea61cdbb728|268=1|279=1|269=1|55=CLP DTTC CURNCY|270=604.9|271=0|290=1|10=218|
20150522-12:15:32.183: 8=FIX.4.4|9=144|35=X|34=324|49=MDFHBLP|52=20150522-12:15:31.981|56=ALGOARBADR5|262=-787035d21399b9de|268=1|279=1|269=1|55=CLP DTTC CURNCY|270=604.9|271=0|290=1|10=141|
20150522-12:15:32.183: 8=FIX.4.4|9=138|35=X|34=325|49=MDFHBLP|52=20150522-12:15:31.982|56=ALGOARBADR5|262=588fb88e85de4822|268=1|279=1|269=5|55=CLP DTTC CURNCY|270=604.78|290=1|10=209|
20150522-12:15:32.186: 8=FIX.4.4|9=139|35=X|34=326|49=MDFHBLP|52=20150522-12:15:31.985|56=ALGOARBADR5|262=-71416ea61cdbb728|268=1|279=1|269=5|55=CLP DTTC CURNCY|270=604.78|290=1|10=023|
20150522-12:15:32.187: 8=FIX.4.4|9=139|35=X|34=327|49=MDFHBLP|52=20150522-12:15:31.986|56=ALGOARBADR5|262=-787035d21399b9de|268=1|279=1|269=5|55=CLP DTTC CURNCY|270=604.78|290=1|10=203|
20150522-12:16:30.703: 8=FIX.4.4|9=62|35=0|34=57|49=ALGOARBADR5|52=20150522-12:16:30.703|56=MDFHBLP|10=008|
20150522-12:16:32.463: 8=FIX.4.4|9=63|35=0|34=328|49=MDFHBLP|52=20150522-12:16:32.264|56=ALGOARBADR5|10=062|
20150522-12:17:26.207: 8=FIX.4.4|9=141|35=X|34=329|49=MDFHBLP|52=20150522-12:17:26.008|56=ALGOARBADR5|262=588fb88e85de4822|268=1|279=1|269=1|55=CLP DTTC CURNCY|270=605|271=0|290=1|10=050|
20150522-12:17:26.208: 8=FIX.4.4|9=142|35=X|34=330|49=MDFHBLP|52=20150522-12:17:26.009|56=ALGOARBADR5|262=-71416ea61cdbb728|268=1|279=1|269=1|55=CLP DTTC CURNCY|270=605|271=0|290=1|10=109|
20150522-12:17:26.209: 8=FIX.4.4|9=142|35=X|34=331|49=MDFHBLP|52=20150522-12:17:26.010|56=ALGOARBADR5|262=-787035d21399b9de|268=1|279=1|269=1|55=CLP DTTC CURNCY|270=605|271=0|290=1|10=024|
20150522-12:17:26.209: 8=FIX.4.4|9=138|35=X|34=332|49=MDFHBLP|52=20150522-12:17:26.010|56=ALGOARBADR5|262=588fb88e85de4822|268=1|279=1|269=5|55=CLP DTTC CURNCY|270=604.83|290=1|10=191|
20150522-12:17:26.210: 8=FIX.4.4|9=139|35=X|34=333|49=MDFHBLP|52=20150522-12:17:26.011|56=ALGOARBADR5|262=-71416ea61cdbb728|268=1|279=1|269=5|55=CLP DTTC CURNCY|270=604.83|290=1|10=003|
20150522-12:17:26.210: 8=FIX.4.4|9=139|35=X|34=334|49=MDFHBLP|52=20150522-12:17:26.011|56=ALGOARBADR5|262=-787035d21399b9de|268=1|279=1|269=5|55=CLP DTTC CURNCY|270=604.83|290=1|10=182|
20150522-12:17:30.704: 8=FIX.4.4|9=62|35=0|34=58|49=ALGOARBADR5|52=20150522-12:17:30.704|56=MDFHBLP|10=011|
20150522-12:18:18.853: 8=FIX.4.4|9=143|35=X|34=335|49=MDFHBLP|52=20150522-12:18:18.654|56=ALGOARBADR5|262=588fb88e85de4822|268=1|279=1|269=0|55=CLP DTTC CURNCY|270=604.7|271=0|290=1|10=157|
20150522-12:18:18.853: 8=FIX.4.4|9=144|35=X|34=336|49=MDFHBLP|52=20150522-12:18:18.656|56=ALGOARBADR5|262=-71416ea61cdbb728|268=1|279=1|269=0|55=CLP DTTC CURNCY|270=604.7|271=0|290=1|10=226|
20150522-12:18:18.854: 8=FIX.4.4|9=144|35=X|34=337|49=MDFHBLP|52=20150522-12:18:18.657|56=ALGOARBADR5|262=-787035d21399b9de|268=1|279=1|269=0|55=CLP DTTC CURNCY|270=604.7|271=0|290=1|10=150|
20150522-12:18:18.855: 8=FIX.4.4|9=138|35=X|34=338|49=MDFHBLP|52=20150522-12:18:18.657|56=ALGOARBADR5|262=588fb88e85de4822|268=1|279=1|269=5|55=CLP DTTC CURNCY|270=604.85|290=1|10=218|
20150522-12:18:18.857: 8=FIX.4.4|9=139|35=X|34=339|49=MDFHBLP|52=20150522-12:18:18.659|56=ALGOARBADR5|262=-71416ea61cdbb728|268=1|279=1|269=5|55=CLP DTTC CURNCY|270=604.85|290=1|10=031|
20150522-12:18:18.857: 8=FIX.4.4|9=139|35=X|34=340|49=MDFHBLP|52=20150522-12:18:18.660|56=ALGOARBADR5|262=-787035d21399b9de|268=1|279=1|269=5|55=CLP DTTC CURNCY|270=604.85|290=1|10=193|
20150522-12:18:31.704: 8=FIX.4.4|9=62|35=0|34=59|49=ALGOARBADR5|52=20150522-12:18:31.703|56=MDFHBLP|10=013|
20150522-12:19:16.348: 8=FIX.4.4|9=143|35=X|34=341|49=MDFHBLP|52=20150522-12:19:16.152|56=ALGOARBADR5|262=588fb88e85de4822|268=1|279=1|269=1|55=CLP DTTC CURNCY|270=605.2|271=0|290=1|10=143|
20150522-12:19:16.349: 8=FIX.4.4|9=144|35=X|34=342|49=MDFHBLP|52=20150522-12:19:16.154|56=ALGOARBADR5|262=-71416ea61cdbb728|268=1|279=1|269=1|55=CLP DTTC CURNCY|270=605.2|271=0|290=1|10=212|
20150522-12:19:16.350: 8=FIX.4.4|9=144|35=X|34=343|49=MDFHBLP|52=20150522-12:19:16.154|56=ALGOARBADR5|262=-787035d21399b9de|268=1|279=1|269=1|55=CLP DTTC CURNCY|270=605.2|271=0|290=1|10=135|
20150522-12:19:16.351: 8=FIX.4.4|9=138|35=X|34=344|49=MDFHBLP|52=20150522-12:19:16.155|56=ALGOARBADR5|262=588fb88e85de4822|268=1|279=1|269=5|55=CLP DTTC CURNCY|270=604.95|290=1|10=208|
20150522-12:19:16.351: 8=FIX.4.4|9=139|35=X|34=345|49=MDFHBLP|52=20150522-12:19:16.156|56=ALGOARBADR5|262=-71416ea61cdbb728|268=1|279=1|269=5|55=CLP DTTC CURNCY|270=604.95|290=1|10=020|
20150522-12:19:16.352: 8=FIX.4.4|9=139|35=X|34=346|49=MDFHBLP|52=20150522-12:19:16.156|56=ALGOARBADR5|262=-787035d21399b9de|268=1|279=1|269=5|55=CLP DTTC CURNCY|270=604.95|290=1|10=199|
20150522-12:19:25.790: 8=FIX.4.4|9=143|35=X|34=347|49=MDFHBLP|52=20150522-12:19:25.595|56=ALGOARBADR5|262=588fb88e85de4822|268=1|279=1|269=1|55=CLP DTTC CURNCY|270=605.1|271=0|290=1|10=159|
20150522-12:19:25.792: 8=FIX.4.4|9=144|35=X|34=348|49=MDFHBLP|52=20150522-12:19:25.597|56=ALGOARBADR5|262=-71416ea61cdbb728|268=1|279=1|269=1|55=CLP DTTC CURNCY|270=605.1|271=0|290=1|10=228|
20150522-12:19:25.793: 8=FIX.4.4|9=144|35=X|34=349|49=MDFHBLP|52=20150522-12:19:25.597|56=ALGOARBADR5|262=-787035d21399b9de|268=1|279=1|269=1|55=CLP DTTC CURNCY|270=605.1|271=0|290=1|10=151|
20150522-12:19:25.794: 8=FIX.4.4|9=137|35=X|34=350|49=MDFHBLP|52=20150522-12:19:25.598|56=ALGOARBADR5|262=588fb88e85de4822|268=1|279=1|269=5|55=CLP DTTC CURNCY|270=604.9|290=1|10=162|
20150522-12:19:25.795: 8=FIX.4.4|9=138|35=X|34=351|49=MDFHBLP|52=20150522-12:19:25.600|56=ALGOARBADR5|262=-71416ea61cdbb728|268=1|279=1|269=5|55=CLP DTTC CURNCY|270=604.9|290=1|10=213|
20150522-12:19:25.796: 8=FIX.4.4|9=138|35=X|34=352|49=MDFHBLP|52=20150522-12:19:25.601|56=ALGOARBADR5|262=-787035d21399b9de|268=1|279=1|269=5|55=CLP DTTC CURNCY|270=604.9|290=1|10=137|
20150522-12:19:31.704: 8=FIX.4.4|9=62|35=0|34=60|49=ALGOARBADR5|52=20150522-12:19:31.703|56=MDFHBLP|10=006|
20150522-12:19:40.401: 8=FIX.4.4|9=143|35=X|34=353|49=MDFHBLP|52=20150522-12:19:40.205|56=ALGOARBADR5|262=588fb88e85de4822|268=1|279=1|269=1|55=CLP DTTC CURNCY|270=605.2|271=0|290=1|10=142|
20150522-12:19:40.402: 8=FIX.4.4|9=144|35=X|34=354|49=MDFHBLP|52=20150522-12:19:40.207|56=ALGOARBADR5|262=-71416ea61cdbb728|268=1|279=1|269=1|55=CLP DTTC CURNCY|270=605.2|271=0|290=1|10=211|
20150522-12:19:40.403: 8=FIX.4.4|9=144|35=X|34=355|49=MDFHBLP|52=20150522-12:19:40.208|56=ALGOARBADR5|262=-787035d21399b9de|268=1|279=1|269=1|55=CLP DTTC CURNCY|270=605.2|271=0|290=1|10=135|
20150522-12:19:40.404: 8=FIX.4.4|9=138|35=X|34=356|49=MDFHBLP|52=20150522-12:19:40.209|56=ALGOARBADR5|262=588fb88e85de4822|268=1|279=1|269=5|55=CLP DTTC CURNCY|270=604.95|290=1|10=208|
20150522-12:19:40.407: 8=FIX.4.4|9=139|35=X|34=357|49=MDFHBLP|52=20150522-12:19:40.210|56=ALGOARBADR5|262=-71416ea61cdbb728|268=1|279=1|269=5|55=CLP DTTC CURNCY|270=604.95|290=1|10=011|
20150522-12:19:40.407: 8=FIX.4.4|9=139|35=X|34=358|49=MDFHBLP|52=20150522-12:19:40.210|56=ALGOARBADR5|262=-787035d21399b9de|268=1|279=1|269=5|55=CLP DTTC CURNCY|270=604.95|290=1|10=190|
20150522-12:19:42.697: 8=FIX.4.4|9=144|35=X|34=359|49=MDFHBLP|52=20150522-12:19:42.502|56=ALGOARBADR5|262=588fb88e85de4822|268=1|279=1|269=1|55=CLP DTTC CURNCY|270=605.15|271=0|290=1|10=203|
20150522-12:19:42.698: 8=FIX.4.4|9=145|35=X|34=360|49=MDFHBLP|52=20150522-12:19:42.503|56=ALGOARBADR5|262=-71416ea61cdbb728|268=1|279=1|269=1|55=CLP DTTC CURNCY|270=605.15|271=0|290=1|10=006|
20150522-12:19:42.699: 8=FIX.4.4|9=145|35=X|34=361|49=MDFHBLP|52=20150522-12:19:42.504|56=ALGOARBADR5|262=-787035d21399b9de|268=1|279=1|269=1|55=CLP DTTC CURNCY|270=605.15|271=0|290=1|10=186|
20150522-12:19:42.699: 8=FIX.4.4|9=138|35=X|34=362|49=MDFHBLP|52=20150522-12:19:42.504|56=ALGOARBADR5|262=588fb88e85de4822|268=1|279=1|269=5|55=CLP DTTC CURNCY|270=604.93|290=1|10=203|
20150522-12:19:42.700: 8=FIX.4.4|9=139|35=X|34=363|49=MDFHBLP|52=20150522-12:19:42.505|56=ALGOARBADR5|262=-71416ea61cdbb728|268=1|279=1|269=5|55=CLP DTTC CURNCY|270=604.93|290=1|10=015|
20150522-12:19:42.700: 8=FIX.4.4|9=139|35=X|34=364|49=MDFHBLP|52=20150522-12:19:42.506|56=ALGOARBADR5|262=-787035d21399b9de|268=1|279=1|269=5|55=CLP DTTC CURNCY|270=604.93|290=1|10=195|
20150522-12:19:47.539: 8=FIX.4.4|9=143|35=X|34=365|49=MDFHBLP|52=20150522-12:19:47.344|56=ALGOARBADR5|262=588fb88e85de4822|268=1|279=1|269=1|55=CLP DTTC CURNCY|270=605.1|271=0|290=1|10=155|
20150522-12:19:47.540: 8=FIX.4.4|9=144|35=X|34=366|49=MDFHBLP|52=20150522-12:19:47.345|56=ALGOARBADR5|262=-71416ea61cdbb728|268=1|279=1|269=1|55=CLP DTTC CURNCY|270=605.1|271=0|290=1|10=223|
20150522-12:19:47.541: 8=FIX.4.4|9=144|35=X|34=367|49=MDFHBLP|52=20150522-12:19:47.345|56=ALGOARBADR5|262=-787035d21399b9de|268=1|279=1|269=1|55=CLP DTTC CURNCY|270=605.1|271=0|290=1|10=146|
20150522-12:19:47.541: 8=FIX.4.4|9=137|35=X|34=368|49=MDFHBLP|52=20150522-12:19:47.346|56=ALGOARBADR5|262=588fb88e85de4822|268=1|279=1|269=5|55=CLP DTTC CURNCY|270=604.9|290=1|10=166|
20150522-12:19:47.542: 8=FIX.4.4|9=138|35=X|34=369|49=MDFHBLP|52=20150522-12:19:47.347|56=ALGOARBADR5|262=-71416ea61cdbb728|268=1|279=1|269=5|55=CLP DTTC CURNCY|270=604.9|290=1|10=234|
20150522-12:19:47.542: 8=FIX.4.4|9=138|35=X|34=370|49=MDFHBLP|52=20150522-12:19:47.347|56=ALGOARBADR5|262=-787035d21399b9de|268=1|279=1|269=5|55=CLP DTTC CURNCY|270=604.9|290=1|10=148|
20150522-12:19:52.353: 8=FIX.4.4|9=141|35=X|34=371|49=MDFHBLP|52=20150522-12:19:52.158|56=ALGOARBADR5|262=588fb88e85de4822|268=1|279=1|269=1|55=CLP DTTC CURNCY|270=605|271=0|290=1|10=054|
20150522-12:19:52.354: 8=FIX.4.4|9=142|35=X|34=372|49=MDFHBLP|52=20150522-12:19:52.160|56=ALGOARBADR5|262=-71416ea61cdbb728|268=1|279=1|269=1|55=CLP DTTC CURNCY|270=605|271=0|290=1|10=114|
20150522-12:19:52.355: 8=FIX.4.4|9=142|35=X|34=373|49=MDFHBLP|52=20150522-12:19:52.161|56=ALGOARBADR5|262=-787035d21399b9de|268=1|279=1|269=1|55=CLP DTTC CURNCY|270=605|271=0|290=1|10=038|
20150522-12:19:52.355: 8=FIX.4.4|9=138|35=X|34=374|49=MDFHBLP|52=20150522-12:19:52.161|56=ALGOARBADR5|262=588fb88e85de4822|268=1|279=1|269=5|55=CLP DTTC CURNCY|270=604.85|290=1|10=207|
20150522-12:19:52.356: 8=FIX.4.4|9=139|35=X|34=375|49=MDFHBLP|52=20150522-12:19:52.162|56=ALGOARBADR5|262=-71416ea61cdbb728|268=1|279=1|269=5|55=CLP DTTC CURNCY|270=604.85|290=1|10=019|
20150522-12:19:52.357: 8=FIX.4.4|9=139|35=X|34=376|49=MDFHBLP|52=20150522-12:19:52.162|56=ALGOARBADR5|262=-787035d21399b9de|268=1|279=1|269=5|55=CLP DTTC CURNCY|270=604.85|290=1|10=198|
20150522-12:20:12.698: 8=FIX.4.4|9=143|35=X|34=377|49=MDFHBLP|52=20150522-12:20:12.504|56=ALGOARBADR5|262=588fb88e85de4822|268=1|279=1|269=1|55=CLP DTTC CURNCY|270=605.1|271=0|290=1|10=140|
20150522-12:20:12.700: 8=FIX.4.4|9=144|35=X|34=378|49=MDFHBLP|52=20150522-12:20:12.506|56=ALGOARBADR5|262=-71416ea61cdbb728|268=1|279=1|269=1|55=CLP DTTC CURNCY|270=605.1|271=0|290=1|10=209|
20150522-12:20:12.701: 8=FIX.4.4|9=144|35=X|34=379|49=MDFHBLP|52=20150522-12:20:12.507|56=ALGOARBADR5|262=-787035d21399b9de|268=1|279=1|269=1|55=CLP DTTC CURNCY|270=605.1|271=0|290=1|10=133|
20150522-12:20:12.702: 8=FIX.4.4|9=137|35=X|34=380|49=MDFHBLP|52=20150522-12:20:12.508|56=ALGOARBADR5|262=588fb88e85de4822|268=1|279=1|269=5|55=CLP DTTC CURNCY|270=604.9|290=1|10=144|
20150522-12:20:12.703: 8=FIX.4.4|9=138|35=X|34=381|49=MDFHBLP|52=20150522-12:20:12.509|56=ALGOARBADR5|262=-71416ea61cdbb728|268=1|279=1|269=5|55=CLP DTTC CURNCY|270=604.9|290=1|10=212|
20150522-12:20:12.703: 8=FIX.4.4|9=138|35=X|34=382|49=MDFHBLP|52=20150522-12:20:12.509|56=ALGOARBADR5|262=-787035d21399b9de|268=1|279=1|269=5|55=CLP DTTC CURNCY|270=604.9|290=1|10=135|
20150522-12:20:32.703: 8=FIX.4.4|9=62|35=0|34=61|49=ALGOARBADR5|52=20150522-12:20:32.703|56=MDFHBLP|10=000|
20150522-12:20:54.774: 8=FIX.4.4|9=141|35=X|34=383|49=MDFHBLP|52=20150522-12:20:54.580|56=ALGOARBADR5|262=588fb88e85de4822|268=1|279=1|269=1|55=CLP DTTC CURNCY|270=605|271=0|290=1|10=050|
20150522-12:20:54.776: 8=FIX.4.4|9=142|35=X|34=384|49=MDFHBLP|52=20150522-12:20:54.583|56=ALGOARBADR5|262=-71416ea61cdbb728|268=1|279=1|269=1|55=CLP DTTC CURNCY|270=605|271=0|290=1|10=120|
20150522-12:20:54.777: 8=FIX.4.4|9=142|35=X|34=385|49=MDFHBLP|52=20150522-12:20:54.583|56=ALGOARBADR5|262=-787035d21399b9de|268=1|279=1|269=1|55=CLP DTTC CURNCY|270=605|271=0|290=1|10=043|
20150522-12:20:54.777: 8=FIX.4.4|9=138|35=X|34=386|49=MDFHBLP|52=20150522-12:20:54.584|56=ALGOARBADR5|262=588fb88e85de4822|268=1|279=1|269=5|55=CLP DTTC CURNCY|270=604.85|290=1|10=213|
20150522-12:20:54.778: 8=FIX.4.4|9=139|35=X|34=387|49=MDFHBLP|52=20150522-12:20:54.585|56=ALGOARBADR5|262=-71416ea61cdbb728|268=1|279=1|269=5|55=CLP DTTC CURNCY|270=604.85|290=1|10=025|
20150522-12:20:54.779: 8=FIX.4.4|9=139|35=X|34=388|49=MDFHBLP|52=20150522-12:20:54.586|56=ALGOARBADR5|262=-787035d21399b9de|268=1|279=1|269=5|55=CLP DTTC CURNCY|270=604.85|290=1|10=205|
20150522-12:21:20.356: 8=FIX.4.4|9=144|35=X|34=389|49=MDFHBLP|52=20150522-12:21:20.163|56=ALGOARBADR5|262=588fb88e85de4822|268=1|279=1|269=1|55=CLP DTTC CURNCY|270=605.09|271=0|290=1|10=201|
20150522-12:21:20.358: 8=FIX.4.4|9=145|35=X|34=390|49=MDFHBLP|52=20150522-12:21:20.165|56=ALGOARBADR5|262=-71416ea61cdbb728|268=1|279=1|269=1|55=CLP DTTC CURNCY|270=605.09|271=0|290=1|10=005|
20150522-12:21:20.359: 8=FIX.4.4|9=145|35=X|34=391|49=MDFHBLP|52=20150522-12:21:20.166|56=ALGOARBADR5|262=-787035d21399b9de|268=1|279=1|269=1|55=CLP DTTC CURNCY|270=605.09|271=0|290=1|10=185|
20150522-12:21:20.359: 8=FIX.4.4|9=144|35=X|34=392|49=MDFHBLP|52=20150522-12:21:20.166|56=ALGOARBADR5|262=588fb88e85de4822|268=1|279=1|269=1|55=CLP DTTC CURNCY|270=605.09|271=0|290=1|10=198|
20150522-12:21:20.362: 8=FIX.4.4|9=145|35=X|34=393|49=MDFHBLP|52=20150522-12:21:20.168|56=ALGOARBADR5|262=-71416ea61cdbb728|268=1|279=1|269=1|55=CLP DTTC CURNCY|270=605.09|271=0|290=1|10=011|
20150522-12:21:20.363: 8=FIX.4.4|9=145|35=X|34=394|49=MDFHBLP|52=20150522-12:21:20.168|56=ALGOARBADR5|262=-787035d21399b9de|268=1|279=1|269=1|55=CLP DTTC CURNCY|270=605.09|271=0|290=1|10=190|
20150522-12:21:20.363: 8=FIX.4.4|9=137|35=X|34=395|49=MDFHBLP|52=20150522-12:21:20.169|56=ALGOARBADR5|262=588fb88e85de4822|268=1|279=1|269=5|55=CLP DTTC CURNCY|270=604.9|290=1|10=153|
20150522-12:21:20.364: 8=FIX.4.4|9=138|35=X|34=396|49=MDFHBLP|52=20150522-12:21:20.171|56=ALGOARBADR5|262=-71416ea61cdbb728|268=1|279=1|269=5|55=CLP DTTC CURNCY|270=604.9|290=1|10=213|
20150522-12:21:20.364: 8=FIX.4.4|9=138|35=X|34=397|49=MDFHBLP|52=20150522-12:21:20.171|56=ALGOARBADR5|262=-787035d21399b9de|268=1|279=1|269=5|55=CLP DTTC CURNCY|270=604.9|290=1|10=136|
20150522-12:21:20.365: 8=FIX.4.4|9=137|35=X|34=398|49=MDFHBLP|52=20150522-12:21:20.172|56=ALGOARBADR5|262=588fb88e85de4822|268=1|279=1|269=5|55=CLP DTTC CURNCY|270=604.9|290=1|10=150|
20150522-12:21:20.367: 8=FIX.4.4|9=138|35=X|34=399|49=MDFHBLP|52=20150522-12:21:20.174|56=ALGOARBADR5|262=-71416ea61cdbb728|268=1|279=1|269=5|55=CLP DTTC CURNCY|270=604.9|290=1|10=219|
20150522-12:21:20.368: 8=FIX.4.4|9=138|35=X|34=400|49=MDFHBLP|52=20150522-12:21:20.175|56=ALGOARBADR5|262=-787035d21399b9de|268=1|279=1|269=5|55=CLP DTTC CURNCY|270=604.9|290=1|10=125|
20150522-12:21:30.177: 8=FIX.4.4|9=143|35=X|34=401|49=MDFHBLP|52=20150522-12:21:29.984|56=ALGOARBADR5|262=588fb88e85de4822|268=1|279=1|269=1|55=CLP DTTC CURNCY|270=605.1|271=0|290=1|10=149|
20150522-12:21:30.178: 8=FIX.4.4|9=144|35=X|34=402|49=MDFHBLP|52=20150522-12:21:29.986|56=ALGOARBADR5|262=-71416ea61cdbb728|268=1|279=1|269=1|55=CLP DTTC CURNCY|270=605.1|271=0|290=1|10=218|
20150522-12:21:30.179: 8=FIX.4.4|9=144|35=X|34=403|49=MDFHBLP|52=20150522-12:21:29.986|56=ALGOARBADR5|262=-787035d21399b9de|268=1|279=1|269=1|55=CLP DTTC CURNCY|270=605.1|271=0|290=1|10=141|
20150522-12:21:30.180: 8=FIX.4.4|9=137|35=X|34=404|49=MDFHBLP|52=20150522-12:21:29.987|56=ALGOARBADR5|262=588fb88e85de4822|268=1|279=1|269=5|55=CLP DTTC CURNCY|270=604.9|290=1|10=161|
20150522-12:21:30.181: 8=FIX.4.4|9=138|35=X|34=405|49=MDFHBLP|52=20150522-12:21:29.989|56=ALGOARBADR5|262=-71416ea61cdbb728|268=1|279=1|269=5|55=CLP DTTC CURNCY|270=604.9|290=1|10=230|
20150522-12:21:30.182: 8=FIX.4.4|9=138|35=X|34=406|49=MDFHBLP|52=20150522-12:21:29.989|56=ALGOARBADR5|262=-787035d21399b9de|268=1|279=1|269=5|55=CLP DTTC CURNCY|270=604.9|290=1|10=153|
20150522-12:21:32.703: 8=FIX.4.4|9=62|35=0|34=62|49=ALGOARBADR5|52=20150522-12:21:32.703|56=MDFHBLP|10=002|
20150522-12:21:38.294: 8=FIX.4.4|9=144|35=X|34=407|49=MDFHBLP|52=20150522-12:21:38.101|56=ALGOARBADR5|262=588fb88e85de4822|268=1|279=1|269=1|55=CLP DTTC CURNCY|270=605.09|271=0|290=1|10=193|
20150522-12:21:38.295: 8=FIX.4.4|9=145|35=X|34=408|49=MDFHBLP|52=20150522-12:21:38.103|56=ALGOARBADR5|262=-71416ea61cdbb728|268=1|279=1|269=1|55=CLP DTTC CURNCY|270=605.09|271=0|290=1|10=006|
20150522-12:21:38.296: 8=FIX.4.4|9=145|35=X|34=409|49=MDFHBLP|52=20150522-12:21:38.104|56=ALGOARBADR5|262=-787035d21399b9de|268=1|279=1|269=1|55=CLP DTTC CURNCY|270=605.09|271=0|290=1|10=186|
20150522-12:21:38.297: 8=FIX.4.4|9=137|35=X|34=410|49=MDFHBLP|52=20150522-12:21:38.104|56=ALGOARBADR5|262=588fb88e85de4822|268=1|279=1|269=5|55=CLP DTTC CURNCY|270=604.9|290=1|10=139|
20150522-12:21:38.298: 8=FIX.4.4|9=138|35=X|34=411|49=MDFHBLP|52=20150522-12:21:38.106|56=ALGOARBADR5|262=-71416ea61cdbb728|268=1|279=1|269=5|55=CLP DTTC CURNCY|270=604.9|290=1|10=208|
20150522-12:21:38.299: 8=FIX.4.4|9=138|35=X|34=412|49=MDFHBLP|52=20150522-12:21:38.106|56=ALGOARBADR5|262=-787035d21399b9de|268=1|279=1|269=5|55=CLP DTTC CURNCY|270=604.9|290=1|10=131|
20150522-12:22:30.215: 8=FIX.4.4|9=141|35=X|34=413|49=MDFHBLP|52=20150522-12:22:30.024|56=ALGOARBADR5|262=588fb88e85de4822|268=1|279=1|269=1|55=CLP DTTC CURNCY|270=605|271=0|290=1|10=033|
20150522-12:22:30.217: 8=FIX.4.4|9=142|35=X|34=414|49=MDFHBLP|52=20150522-12:22:30.026|56=ALGOARBADR5|262=-71416ea61cdbb728|268=1|279=1|269=1|55=CLP DTTC CURNCY|270=605|271=0|290=1|10=102|
20150522-12:22:30.218: 8=FIX.4.4|9=142|35=X|34=415|49=MDFHBLP|52=20150522-12:22:30.027|56=ALGOARBADR5|262=-787035d21399b9de|268=1|279=1|269=1|55=CLP DTTC CURNCY|270=605|271=0|290=1|10=026|
20150522-12:22:30.218: 8=FIX.4.4|9=138|35=X|34=416|49=MDFHBLP|52=20150522-12:22:30.027|56=ALGOARBADR5|262=588fb88e85de4822|268=1|279=1|269=5|55=CLP DTTC CURNCY|270=604.85|290=1|10=195|
20150522-12:22:30.219: 8=FIX.4.4|9=139|35=X|34=417|49=MDFHBLP|52=20150522-12:22:30.028|56=ALGOARBADR5|262=-71416ea61cdbb728|268=1|279=1|269=5|55=CLP DTTC CURNCY|270=604.85|290=1|10=007|
20150522-12:22:30.220: 8=FIX.4.4|9=139|35=X|34=418|49=MDFHBLP|52=20150522-12:22:30.029|56=ALGOARBADR5|262=-787035d21399b9de|268=1|279=1|269=5|55=CLP DTTC CURNCY|270=604.85|290=1|10=187|
20150522-12:22:32.704: 8=FIX.4.4|9=62|35=0|34=63|49=ALGOARBADR5|52=20150522-12:22:32.703|56=MDFHBLP|10=004|
20150522-12:23:30.479: 8=FIX.4.4|9=63|35=0|34=419|49=MDFHBLP|52=20150522-12:23:30.289|56=ALGOARBADR5|10=066|
20150522-12:23:33.703: 8=FIX.4.4|9=62|35=0|34=64|49=ALGOARBADR5|52=20150522-12:23:33.703|56=MDFHBLP|10=007|
20150522-12:24:30.480: 8=FIX.4.4|9=63|35=0|34=420|49=MDFHBLP|52=20150522-12:24:30.292|56=ALGOARBADR5|10=053|
20150522-12:24:33.703: 8=FIX.4.4|9=62|35=0|34=65|49=ALGOARBADR5|52=20150522-12:24:33.703|56=MDFHBLP|10=009|
20150522-12:25:30.482: 8=FIX.4.4|9=63|35=0|34=421|49=MDFHBLP|52=20150522-12:25:30.296|56=ALGOARBADR5|10=059|
20150522-12:25:34.702: 8=FIX.4.4|9=62|35=0|34=66|49=ALGOARBADR5|52=20150522-12:25:34.702|56=MDFHBLP|10=011|
20150522-12:25:42.328: 8=FIX.4.4|9=144|35=X|34=422|49=MDFHBLP|52=20150522-12:25:42.142|56=ALGOARBADR5|262=588fb88e85de4822|268=1|279=1|269=0|55=CLP DTTC CURNCY|270=604.66|271=0|290=1|10=195|
20150522-12:25:42.330: 8=FIX.4.4|9=145|35=X|34=423|49=MDFHBLP|52=20150522-12:25:42.144|56=ALGOARBADR5|262=-71416ea61cdbb728|268=1|279=1|269=0|55=CLP DTTC CURNCY|270=604.66|271=0|290=1|10=008|
20150522-12:25:42.331: 8=FIX.4.4|9=145|35=X|34=424|49=MDFHBLP|52=20150522-12:25:42.145|56=ALGOARBADR5|262=-787035d21399b9de|268=1|279=1|269=0|55=CLP DTTC CURNCY|270=604.66|271=0|290=1|10=188|
20150522-12:25:42.331: 8=FIX.4.4|9=138|35=X|34=425|49=MDFHBLP|52=20150522-12:25:42.146|56=ALGOARBADR5|262=588fb88e85de4822|268=1|279=1|269=5|55=CLP DTTC CURNCY|270=604.83|290=1|10=201|
20150522-12:25:42.333: 8=FIX.4.4|9=139|35=X|34=426|49=MDFHBLP|52=20150522-12:25:42.147|56=ALGOARBADR5|262=-71416ea61cdbb728|268=1|279=1|269=5|55=CLP DTTC CURNCY|270=604.83|290=1|10=013|
20150522-12:25:42.334: 8=FIX.4.4|9=139|35=X|34=427|49=MDFHBLP|52=20150522-12:25:42.148|56=ALGOARBADR5|262=-787035d21399b9de|268=1|279=1|269=5|55=CLP DTTC CURNCY|270=604.83|290=1|10=193|
20150522-12:25:54.675: 8=FIX.4.4|9=144|35=X|34=428|49=MDFHBLP|52=20150522-12:25:54.489|56=ALGOARBADR5|262=588fb88e85de4822|268=1|279=1|269=0|55=CLP DTTC CURNCY|270=604.75|271=0|290=1|10=218|
20150522-12:25:54.676: 8=FIX.4.4|9=145|35=X|34=429|49=MDFHBLP|52=20150522-12:25:54.490|56=ALGOARBADR5|262=-71416ea61cdbb728|268=1|279=1|269=0|55=CLP DTTC CURNCY|270=604.75|271=0|290=1|10=021|
20150522-12:25:54.676: 8=FIX.4.4|9=145|35=X|34=430|49=MDFHBLP|52=20150522-12:25:54.491|56=ALGOARBADR5|262=-787035d21399b9de|268=1|279=1|269=0|55=CLP DTTC CURNCY|270=604.75|271=0|290=1|10=192|
20150522-12:25:54.677: 8=FIX.4.4|9=138|35=X|34=431|49=MDFHBLP|52=20150522-12:25:54.491|56=ALGOARBADR5|262=588fb88e85de4822|268=1|279=1|269=5|55=CLP DTTC CURNCY|270=604.88|290=1|10=209|
20150522-12:25:54.680: 8=FIX.4.4|9=139|35=X|34=432|49=MDFHBLP|52=20150522-12:25:54.495|56=ALGOARBADR5|262=-71416ea61cdbb728|268=1|279=1|269=5|55=CLP DTTC CURNCY|270=604.88|290=1|10=024|
20150522-12:25:54.680: 8=FIX.4.4|9=139|35=X|34=433|49=MDFHBLP|52=20150522-12:25:54.495|56=ALGOARBADR5|262=-787035d21399b9de|268=1|279=1|269=5|55=CLP DTTC CURNCY|270=604.88|290=1|10=203|
20150522-12:25:58.793: 8=FIX.4.4|9=143|35=X|34=434|49=MDFHBLP|52=20150522-12:25:58.607|56=ALGOARBADR5|262=588fb88e85de4822|268=1|279=1|269=0|55=CLP DTTC CURNCY|270=604.8|271=0|290=1|10=158|
20150522-12:25:58.794: 8=FIX.4.4|9=144|35=X|34=435|49=MDFHBLP|52=20150522-12:25:58.608|56=ALGOARBADR5|262=-71416ea61cdbb728|268=1|279=1|269=0|55=CLP DTTC CURNCY|270=604.8|271=0|290=1|10=226|
20150522-12:25:58.794: 8=FIX.4.4|9=144|35=X|34=436|49=MDFHBLP|52=20150522-12:25:58.609|56=ALGOARBADR5|262=-787035d21399b9de|268=1|279=1|269=0|55=CLP DTTC CURNCY|270=604.8|271=0|290=1|10=150|
20150522-12:25:58.795: 8=FIX.4.4|9=137|35=X|34=437|49=MDFHBLP|52=20150522-12:25:58.610|56=ALGOARBADR5|262=588fb88e85de4822|268=1|279=1|269=5|55=CLP DTTC CURNCY|270=604.9|290=1|10=156|
20150522-12:25:58.796: 8=FIX.4.4|9=138|35=X|34=438|49=MDFHBLP|52=20150522-12:25:58.610|56=ALGOARBADR5|262=-71416ea61cdbb728|268=1|279=1|269=5|55=CLP DTTC CURNCY|270=604.9|290=1|10=223|
20150522-12:25:58.796: 8=FIX.4.4|9=138|35=X|34=439|49=MDFHBLP|52=20150522-12:25:58.611|56=ALGOARBADR5|262=-787035d21399b9de|268=1|279=1|269=5|55=CLP DTTC CURNCY|270=604.9|290=1|10=147|
20150522-12:26:34.703: 8=FIX.4.4|9=62|35=0|34=67|49=ALGOARBADR5|52=20150522-12:26:34.703|56=MDFHBLP|10=014|
20150522-12:26:59.486: 8=FIX.4.4|9=63|35=0|34=440|49=MDFHBLP|52=20150522-12:26:59.302|56=ALGOARBADR5|10=060|
20150522-12:27:34.703: 8=FIX.4.4|9=62|35=0|34=68|49=ALGOARBADR5|52=20150522-12:27:34.703|56=MDFHBLP|10=016|
20150522-12:27:59.488: 8=FIX.4.4|9=63|35=0|34=441|49=MDFHBLP|52=20150522-12:27:59.305|56=ALGOARBADR5|10=065|
20150522-12:28:12.559: 8=FIX.4.4|9=143|35=X|34=442|49=MDFHBLP|52=20150522-12:28:12.377|56=ALGOARBADR5|262=588fb88e85de4822|268=1|279=1|269=1|55=CLP DTTC CURNCY|270=605.1|271=0|290=1|10=149|
20150522-12:28:12.561: 8=FIX.4.4|9=144|35=X|34=443|49=MDFHBLP|52=20150522-12:28:12.379|56=ALGOARBADR5|262=-71416ea61cdbb728|268=1|279=1|269=1|55=CLP DTTC CURNCY|270=605.1|271=0|290=1|10=218|
20150522-12:28:12.561: 8=FIX.4.4|9=144|35=X|34=444|49=MDFHBLP|52=20150522-12:28:12.380|56=ALGOARBADR5|262=-787035d21399b9de|268=1|279=1|269=1|55=CLP DTTC CURNCY|270=605.1|271=0|290=1|10=133|
20150522-12:28:12.562: 8=FIX.4.4|9=138|35=X|34=445|49=MDFHBLP|52=20150522-12:28:12.380|56=ALGOARBADR5|262=588fb88e85de4822|268=1|279=1|269=5|55=CLP DTTC CURNCY|270=604.95|290=1|10=206|
20150522-12:28:12.563: 8=FIX.4.4|9=139|35=X|34=446|49=MDFHBLP|52=20150522-12:28:12.382|56=ALGOARBADR5|262=-71416ea61cdbb728|268=1|279=1|269=5|55=CLP DTTC CURNCY|270=604.95|290=1|10=019|
20150522-12:28:12.564: 8=FIX.4.4|9=139|35=X|34=447|49=MDFHBLP|52=20150522-12:28:12.382|56=ALGOARBADR5|262=-787035d21399b9de|268=1|279=1|269=5|55=CLP DTTC CURNCY|270=604.95|290=1|10=198|
20150522-12:28:15.173: 8=FIX.4.4|9=144|35=X|34=448|49=MDFHBLP|52=20150522-12:28:14.991|56=ALGOARBADR5|262=588fb88e85de4822|268=1|279=1|269=1|55=CLP DTTC CURNCY|270=605.09|271=0|290=1|10=216|
20150522-12:28:15.175: 8=FIX.4.4|9=145|35=X|34=449|49=MDFHBLP|52=20150522-12:28:14.993|56=ALGOARBADR5|262=-71416ea61cdbb728|268=1|279=1|269=1|55=CLP DTTC CURNCY|270=605.09|271=0|290=1|10=029|
20150522-12:28:15.175: 8=FIX.4.4|9=145|35=X|34=450|49=MDFHBLP|52=20150522-12:28:14.994|56=ALGOARBADR5|262=-787035d21399b9de|268=1|279=1|269=1|55=CLP DTTC CURNCY|270=605.09|271=0|290=1|10=200|
20150522-12:28:15.176: 8=FIX.4.4|9=138|35=X|34=451|49=MDFHBLP|52=20150522-12:28:14.994|56=ALGOARBADR5|262=588fb88e85de4822|268=1|279=1|269=5|55=CLP DTTC CURNCY|270=604.95|290=1|10=216|
20150522-12:28:15.180: 8=FIX.4.4|9=139|35=X|34=452|49=MDFHBLP|52=20150522-12:28:14.998|56=ALGOARBADR5|262=-71416ea61cdbb728|268=1|279=1|269=5|55=CLP DTTC CURNCY|270=604.95|290=1|10=031|
20150522-12:28:15.181: 8=FIX.4.4|9=139|35=X|34=453|49=MDFHBLP|52=20150522-12:28:14.999|56=ALGOARBADR5|262=-787035d21399b9de|268=1|279=1|269=5|55=CLP DTTC CURNCY|270=604.95|290=1|10=211|
20150522-12:28:17.235: 8=FIX.4.4|9=144|35=X|34=454|49=MDFHBLP|52=20150522-12:28:17.053|56=ALGOARBADR5|262=588fb88e85de4822|268=1|279=1|269=1|55=CLP DTTC CURNCY|270=605.05|271=0|290=1|10=201|
20150522-12:28:17.237: 8=FIX.4.4|9=145|35=X|34=455|49=MDFHBLP|52=20150522-12:28:17.055|56=ALGOARBADR5|262=-71416ea61cdbb728|268=1|279=1|269=1|55=CLP DTTC CURNCY|270=605.05|271=0|290=1|10=014|
20150522-12:28:17.237: 8=FIX.4.4|9=138|35=X|34=456|49=MDFHBLP|52=20150522-12:28:17.055|56=ALGOARBADR5|262=588fb88e85de4822|268=1|279=1|269=5|55=CLP DTTC CURNCY|270=604.93|290=1|10=210|
20150522-12:28:17.238: 8=FIX.4.4|9=145|35=X|34=457|49=MDFHBLP|52=20150522-12:28:17.056|56=ALGOARBADR5|262=-787035d21399b9de|268=1|279=1|269=1|55=CLP DTTC CURNCY|270=605.05|271=0|290=1|10=195|
20150522-12:28:17.239: 8=FIX.4.4|9=139|35=X|34=458|49=MDFHBLP|52=20150522-12:28:17.058|56=ALGOARBADR5|262=-71416ea61cdbb728|268=1|279=1|269=5|55=CLP DTTC CURNCY|270=604.93|290=1|10=025|
20150522-12:28:17.240: 8=FIX.4.4|9=139|35=X|34=459|49=MDFHBLP|52=20150522-12:28:17.058|56=ALGOARBADR5|262=-787035d21399b9de|268=1|279=1|269=5|55=CLP DTTC CURNCY|270=604.93|290=1|10=204|
20150522-12:28:29.565: 8=FIX.4.4|9=141|35=X|34=460|49=MDFHBLP|52=20150522-12:28:29.382|56=ALGOARBADR5|262=588fb88e85de4822|268=1|279=1|269=1|55=CLP DTTC CURNCY|270=605|271=0|290=1|10=056|
20150522-12:28:29.566: 8=FIX.4.4|9=142|35=X|34=461|49=MDFHBLP|52=20150522-12:28:29.384|56=ALGOARBADR5|262=-71416ea61cdbb728|268=1|279=1|269=1|55=CLP DTTC CURNCY|270=605|271=0|290=1|10=125|
20150522-12:28:29.567: 8=FIX.4.4|9=142|35=X|34=462|49=MDFHBLP|52=20150522-12:28:29.385|56=ALGOARBADR5|262=-787035d21399b9de|268=1|279=1|269=1|55=CLP DTTC CURNCY|270=605|271=0|290=1|10=049|
20150522-12:28:29.568: 8=FIX.4.4|9=137|35=X|34=463|49=MDFHBLP|52=20150522-12:28:29.385|56=ALGOARBADR5|262=588fb88e85de4822|268=1|279=1|269=5|55=CLP DTTC CURNCY|270=604.9|290=1|10=165|
20150522-12:28:29.570: 8=FIX.4.4|9=138|35=X|34=464|49=MDFHBLP|52=20150522-12:28:29.387|56=ALGOARBADR5|262=-71416ea61cdbb728|268=1|279=1|269=5|55=CLP DTTC CURNCY|270=604.9|290=1|10=234|
20150522-12:28:29.570: 8=FIX.4.4|9=138|35=X|34=465|49=MDFHBLP|52=20150522-12:28:29.388|56=ALGOARBADR5|262=-787035d21399b9de|268=1|279=1|269=5|55=CLP DTTC CURNCY|270=604.9|290=1|10=158|
20150522-12:28:35.703: 8=FIX.4.4|9=62|35=0|34=69|49=ALGOARBADR5|52=20150522-12:28:35.703|56=MDFHBLP|10=019|
20150522-12:28:45.131: 8=FIX.4.4|9=144|35=X|34=466|49=MDFHBLP|52=20150522-12:28:44.949|56=ALGOARBADR5|262=588fb88e85de4822|268=1|279=1|269=1|55=CLP DTTC CURNCY|270=605.05|271=0|290=1|10=218|
20150522-12:28:45.133: 8=FIX.4.4|9=145|35=X|34=467|49=MDFHBLP|52=20150522-12:28:44.951|56=ALGOARBADR5|262=-71416ea61cdbb728|268=1|279=1|269=1|55=CLP DTTC CURNCY|270=605.05|271=0|290=1|10=022|
20150522-12:28:45.133: 8=FIX.4.4|9=145|35=X|34=468|49=MDFHBLP|52=20150522-12:28:44.952|56=ALGOARBADR5|262=-787035d21399b9de|268=1|279=1|269=1|55=CLP DTTC CURNCY|270=605.05|271=0|290=1|10=202|
20150522-12:28:45.134: 8=FIX.4.4|9=138|35=X|34=469|49=MDFHBLP|52=20150522-12:28:44.953|56=ALGOARBADR5|262=588fb88e85de4822|268=1|279=1|269=5|55=CLP DTTC CURNCY|270=604.93|290=1|10=221|
20150522-12:28:45.135: 8=FIX.4.4|9=139|35=X|34=470|49=MDFHBLP|52=20150522-12:28:44.955|56=ALGOARBADR5|262=-71416ea61cdbb728|268=1|279=1|269=5|55=CLP DTTC CURNCY|270=604.93|290=1|10=025|
20150522-12:28:45.136: 8=FIX.4.4|9=139|35=X|34=471|49=MDFHBLP|52=20150522-12:28:44.955|56=ALGOARBADR5|262=-787035d21399b9de|268=1|279=1|269=5|55=CLP DTTC CURNCY|270=604.93|290=1|10=204|
20150522-12:28:51.340: 8=FIX.4.4|9=144|35=X|34=472|49=MDFHBLP|52=20150522-12:28:51.159|56=ALGOARBADR5|262=588fb88e85de4822|268=1|279=1|269=1|55=CLP DTTC CURNCY|270=605.15|271=0|290=1|10=207|
20150522-12:28:51.342: 8=FIX.4.4|9=145|35=X|34=473|49=MDFHBLP|52=20150522-12:28:51.160|56=ALGOARBADR5|262=-71416ea61cdbb728|268=1|279=1|269=1|55=CLP DTTC CURNCY|270=605.15|271=0|290=1|10=010|
20150522-12:28:51.342: 8=FIX.4.4|9=145|35=X|34=474|49=MDFHBLP|52=20150522-12:28:51.161|56=ALGOARBADR5|262=-787035d21399b9de|268=1|279=1|269=1|55=CLP DTTC CURNCY|270=605.15|271=0|290=1|10=190|
20150522-12:28:51.343: 8=FIX.4.4|9=138|35=X|34=475|49=MDFHBLP|52=20150522-12:28:51.162|56=ALGOARBADR5|262=588fb88e85de4822|268=1|279=1|269=5|55=CLP DTTC CURNCY|270=604.98|290=1|10=213|
20150522-12:28:51.345: 8=FIX.4.4|9=139|35=X|34=476|49=MDFHBLP|52=20150522-12:28:51.163|56=ALGOARBADR5|262=-71416ea61cdbb728|268=1|279=1|269=5|55=CLP DTTC CURNCY|270=604.98|290=1|10=025|
20150522-12:28:51.345: 8=FIX.4.4|9=139|35=X|34=477|49=MDFHBLP|52=20150522-12:28:51.164|56=ALGOARBADR5|262=-787035d21399b9de|268=1|279=1|269=5|55=CLP DTTC CURNCY|270=604.98|290=1|10=205|
20150522-12:28:56.889: 8=FIX.4.4|9=141|35=X|34=478|49=MDFHBLP|52=20150522-12:28:56.708|56=ALGOARBADR5|262=588fb88e85de4822|268=1|279=1|269=1|55=CLP DTTC CURNCY|270=605|271=0|290=1|10=067|
20150522-12:28:56.891: 8=FIX.4.4|9=142|35=X|34=479|49=MDFHBLP|52=20150522-12:28:56.711|56=ALGOARBADR5|262=-71416ea61cdbb728|268=1|279=1|269=1|55=CLP DTTC CURNCY|270=605|271=0|290=1|10=128|
20150522-12:28:56.892: 8=FIX.4.4|9=142|35=X|34=480|49=MDFHBLP|52=20150522-12:28:56.711|56=ALGOARBADR5|262=-787035d21399b9de|268=1|279=1|269=1|55=CLP DTTC CURNCY|270=605|271=0|290=1|10=042|
20150522-12:28:56.893: 8=FIX.4.4|9=137|35=X|34=481|49=MDFHBLP|52=20150522-12:28:56.712|56=ALGOARBADR5|262=588fb88e85de4822|268=1|279=1|269=5|55=CLP DTTC CURNCY|270=604.9|290=1|10=159|
20150522-12:28:56.895: 8=FIX.4.4|9=138|35=X|34=482|49=MDFHBLP|52=20150522-12:28:56.714|56=ALGOARBADR5|262=-71416ea61cdbb728|268=1|279=1|269=5|55=CLP DTTC CURNCY|270=604.9|290=1|10=228|
20150522-12:28:56.895: 8=FIX.4.4|9=138|35=X|34=483|49=MDFHBLP|52=20150522-12:28:56.714|56=ALGOARBADR5|262=-787035d21399b9de|268=1|279=1|269=5|55=CLP DTTC CURNCY|270=604.9|290=1|10=151|
20150522-12:29:09.131: 8=FIX.4.4|9=144|35=X|34=484|49=MDFHBLP|52=20150522-12:29:08.950|56=ALGOARBADR5|262=588fb88e85de4822|268=1|279=1|269=0|55=CLP DTTC CURNCY|270=604.66|271=0|290=1|10=216|
20150522-12:29:09.133: 8=FIX.4.4|9=145|35=X|34=485|49=MDFHBLP|52=20150522-12:29:08.952|56=ALGOARBADR5|262=-71416ea61cdbb728|268=1|279=1|269=0|55=CLP DTTC CURNCY|270=604.66|271=0|290=1|10=029|
20150522-12:29:09.133: 8=FIX.4.4|9=145|35=X|34=486|49=MDFHBLP|52=20150522-12:29:08.953|56=ALGOARBADR5|262=-787035d21399b9de|268=1|279=1|269=0|55=CLP DTTC CURNCY|270=604.66|271=0|290=1|10=209|
20150522-12:29:09.134: 8=FIX.4.4|9=138|35=X|34=487|49=MDFHBLP|52=20150522-12:29:08.953|56=ALGOARBADR5|262=588fb88e85de4822|268=1|279=1|269=5|55=CLP DTTC CURNCY|270=604.83|290=1|10=221|
20150522-12:29:09.135: 8=FIX.4.4|9=139|35=X|34=488|49=MDFHBLP|52=20150522-12:29:08.955|56=ALGOARBADR5|262=-71416ea61cdbb728|268=1|279=1|269=5|55=CLP DTTC CURNCY|270=604.83|290=1|10=034|
20150522-12:29:09.136: 8=FIX.4.4|9=139|35=X|34=489|49=MDFHBLP|52=20150522-12:29:08.955|56=ALGOARBADR5|262=-787035d21399b9de|268=1|279=1|269=5|55=CLP DTTC CURNCY|270=604.83|290=1|10=213|
20150522-12:29:12.445: 8=FIX.4.4|9=144|35=X|34=490|49=MDFHBLP|52=20150522-12:29:12.265|56=ALGOARBADR5|262=588fb88e85de4822|268=1|279=1|269=0|55=CLP DTTC CURNCY|270=604.62|271=0|290=1|10=203|
20150522-12:29:12.447: 8=FIX.4.4|9=145|35=X|34=491|49=MDFHBLP|52=20150522-12:29:12.267|56=ALGOARBADR5|262=-71416ea61cdbb728|268=1|279=1|269=0|55=CLP DTTC CURNCY|270=604.62|271=0|290=1|10=016|
20150522-12:29:12.448: 8=FIX.4.4|9=145|35=X|34=492|49=MDFHBLP|52=20150522-12:29:12.268|56=ALGOARBADR5|262=-787035d21399b9de|268=1|279=1|269=0|55=CLP DTTC CURNCY|270=604.62|271=0|290=1|10=196|
20150522-12:29:12.449: 8=FIX.4.4|9=138|35=X|34=493|49=MDFHBLP|52=20150522-12:29:12.269|56=ALGOARBADR5|262=588fb88e85de4822|268=1|279=1|269=5|55=CLP DTTC CURNCY|270=604.81|290=1|10=211|
20150522-12:29:12.451: 8=FIX.4.4|9=139|35=X|34=494|49=MDFHBLP|52=20150522-12:29:12.271|56=ALGOARBADR5|262=-71416ea61cdbb728|268=1|279=1|269=5|55=CLP DTTC CURNCY|270=604.81|290=1|10=015|
20150522-12:29:12.451: 8=FIX.4.4|9=139|35=X|34=495|49=MDFHBLP|52=20150522-12:29:12.271|56=ALGOARBADR5|262=-787035d21399b9de|268=1|279=1|269=5|55=CLP DTTC CURNCY|270=604.81|290=1|10=194|
20150522-12:29:35.439: 8=FIX.4.4|9=144|35=X|34=496|49=MDFHBLP|52=20150522-12:29:35.259|56=ALGOARBADR5|262=588fb88e85de4822|268=1|279=1|269=1|55=CLP DTTC CURNCY|270=604.98|271=0|290=1|10=227|
20150522-12:29:35.440: 8=FIX.4.4|9=145|35=X|34=497|49=MDFHBLP|52=20150522-12:29:35.261|56=ALGOARBADR5|262=-71416ea61cdbb728|268=1|279=1|269=1|55=CLP DTTC CURNCY|270=604.98|271=0|290=1|10=031|
20150522-12:29:35.441: 8=FIX.4.4|9=145|35=X|34=498|49=MDFHBLP|52=20150522-12:29:35.261|56=ALGOARBADR5|262=-787035d21399b9de|268=1|279=1|269=1|55=CLP DTTC CURNCY|270=604.98|271=0|290=1|10=210|
20150522-12:29:35.441: 8=FIX.4.4|9=137|35=X|34=499|49=MDFHBLP|52=20150522-12:29:35.262|56=ALGOARBADR5|262=588fb88e85de4822|268=1|279=1|269=5|55=CLP DTTC CURNCY|270=604.8|290=1|10=165|
20150522-12:29:35.443: 8=FIX.4.4|9=138|35=X|34=500|49=MDFHBLP|52=20150522-12:29:35.263|56=ALGOARBADR5|262=-71416ea61cdbb728|268=1|279=1|269=5|55=CLP DTTC CURNCY|270=604.8|290=1|10=215|
20150522-12:29:35.444: 8=FIX.4.4|9=138|35=X|34=501|49=MDFHBLP|52=20150522-12:29:35.264|56=ALGOARBADR5|262=-787035d21399b9de|268=1|279=1|269=5|55=CLP DTTC CURNCY|270=604.8|290=1|10=139|
20150522-12:29:36.703: 8=FIX.4.4|9=62|35=0|34=70|49=ALGOARBADR5|52=20150522-12:29:36.703|56=MDFHBLP|10=013|
20150522-12:29:36.812: 8=FIX.4.4|9=143|35=X|34=502|49=MDFHBLP|52=20150522-12:29:36.632|56=ALGOARBADR5|262=588fb88e85de4822|268=1|279=1|269=1|55=CLP DTTC CURNCY|270=604.9|271=0|290=1|10=154|
20150522-12:29:36.814: 8=FIX.4.4|9=144|35=X|34=503|49=MDFHBLP|52=20150522-12:29:36.634|56=ALGOARBADR5|262=-71416ea61cdbb728|268=1|279=1|269=1|55=CLP DTTC CURNCY|270=604.9|271=0|290=1|10=223|
20150522-12:29:36.814: 8=FIX.4.4|9=144|35=X|34=504|49=MDFHBLP|52=20150522-12:29:36.635|56=ALGOARBADR5|262=-787035d21399b9de|268=1|279=1|269=1|55=CLP DTTC CURNCY|270=604.9|271=0|290=1|10=147|
20150522-12:29:36.815: 8=FIX.4.4|9=138|35=X|34=505|49=MDFHBLP|52=20150522-12:29:36.635|56=ALGOARBADR5|262=588fb88e85de4822|268=1|279=1|269=5|55=CLP DTTC CURNCY|270=604.76|290=1|10=212|
20150522-12:29:36.817: 8=FIX.4.4|9=139|35=X|34=506|49=MDFHBLP|52=20150522-12:29:36.637|56=ALGOARBADR5|262=-71416ea61cdbb728|268=1|279=1|269=5|55=CLP DTTC CURNCY|270=604.76|290=1|10=025|
20150522-12:29:36.818: 8=FIX.4.4|9=139|35=X|34=507|49=MDFHBLP|52=20150522-12:29:36.638|56=ALGOARBADR5|262=-787035d21399b9de|268=1|279=1|269=5|55=CLP DTTC CURNCY|270=604.76|290=1|10=205|
20150522-12:29:36.818: 8=FIX.4.4|9=143|35=X|34=508|49=MDFHBLP|52=20150522-12:29:36.639|56=ALGOARBADR5|262=588fb88e85de4822|268=1|279=1|269=1|55=CLP DTTC CURNCY|270=604.9|271=0|290=1|10=167|
