8=FIX.4.4|9=75|35=A|34=1|49=LVSSG_ARB|52=20150527-19:26:20.144|56=LVARB|98=0|108=60|141=Y|10=111|8=FIX.4.4|9=57|35=0|34=2|49=LVSSG_ARB|52=20150527-19:27:20.902|56=LVARB|10=025|8=FIX.4.4|9=335|35=8|34=3|49=LVSSG_ARB|52=20150527-19:27:54.344|56=LVARB|1=591866109-00|6=0|11=3a0ed67e0bfab8e0|14=0|17=-2ec6ed0a99e2bb30|21=1|31=0|32=0|37=-79fb2c0a01ffb0c8|38=400000|39=0|40=2|44=32.6|54=1|55=BSANTANDER|58=New Buy BSANTANDER 400000.0 @ 32.6|59=0|60=20150527-19:27:54.342|63=3|100=XSGO|150=0|151=400000|207=XSGO|583=-2a133de1fc8ab088|10=106|8=FIX.4.4|9=336|35=8|34=4|49=LVSSG_ARB|52=20150527-19:27:54.977|56=LVARB|1=591866109-00|6=0|11=3a0ed67e0bfab8e0|14=0|17=-744952e6a86fb5d6|21=1|31=0|32=0|37=-79fb2c0a01ffb0c8|38=400000|39=0|40=2|44=34.19|54=1|55=BSANTANDER|58=New Buy BSANTANDER 400000.0 @ 32.6|59=0|60=20150527-19:27:54.977|63=3|100=XSGO|150=5|151=400000|207=XSGO|583=-2a133de1fc8ab088|10=071|8=FIX.4.4|9=324|35=8|34=5|49=LVSSG_ARB|52=20150527-19:28:17.329|56=LVARB|1=109976|6=0|11=63fbaa740304eda|14=0|17=36661153b1fe4b53|21=1|31=0|32=0|37=321a47dc5d914296|38=10000|39=0|40=2|44=34.1|54=2|55=BSANTANDER|58=New Sell BSANTANDER 10000.0 @ 34.1|59=0|60=20150527-19:28:17.329|63=3|100=XSGO|150=0|151=10000|207=XSGO|583=-4644c7f44da4b69a|10=127|8=FIX.4.4|9=334|35=8|34=6|49=LVSSG_ARB|52=20150527-19:28:17.329|56=LVARB|1=109976|6=34.1|11=63fbaa740304eda|14=10000|17=3b0478f79e18441e|21=1|31=34.1|32=10000|37=321a47dc5d914296|38=10000|39=2|40=2|44=34.1|54=2|55=BSANTANDER|58=New Sell BSANTANDER 10000.0 @ 34.1|59=0|60=20150527-19:28:17.329|63=3|100=XSGO|150=F|151=0|207=XSGO|583=-4644c7f44da4b69a|10=149|8=FIX.4.4|9=349|35=8|34=7|49=LVSSG_ARB|52=20150527-19:28:17.330|56=LVARB|1=591866109-00|6=34.1|11=3a0ed67e0bfab8e0|14=10000|17=5b99b068bfa24d12|21=1|31=34.1|32=10000|37=-79fb2c0a01ffb0c8|38=400000|39=1|40=2|44=34.19|54=1|55=BSANTANDER|58=New Buy BSANTANDER 400000.0 @ 32.6|59=0|60=20150527-19:27:54.977|63=3|100=XSGO|150=F|151=390000|207=XSGO|583=-2a133de1fc8ab088|10=247|8=FIX.4.4|9=340|35=8|34=8|49=LVSSG_ARB|52=20150527-19:28:17.337|56=LVARB|1=109976|6=34.1|11=63fbaa740304eda|14=20000|17=-7a2e05462707b40a|21=1|31=34.1|32=10000|37=321a47dc5d914296|38=10000|39=2|40=2|44=34.1|54=2|55=BSANTANDER|58=New Sell BSANTANDER 10000.0 @ 34.1|59=0|60=20150527-19:28:17.329|63=3|100=XSGO|150=F|151=-10000|207=XSGO|583=-4644c7f44da4b69a|10=154|8=FIX.4.4|9=349|35=8|34=9|49=LVSSG_ARB|52=20150527-19:28:17.338|56=LVARB|1=591866109-00|6=34.1|11=3a0ed67e0bfab8e0|14=20000|17=1c577a050bc34d1c|21=1|31=34.1|32=10000|37=-79fb2c0a01ffb0c8|38=400000|39=1|40=2|44=34.19|54=1|55=BSANTANDER|58=New Buy BSANTANDER 400000.0 @ 32.6|59=0|60=20150527-19:27:54.977|63=3|100=XSGO|150=F|151=380000|207=XSGO|583=-2a133de1fc8ab088|10=243|8=FIX.4.4|9=340|35=8|34=10|49=LVSSG_ARB|52=20150527-19:28:17.338|56=LVARB|1=109976|6=34.1|11=63fbaa740304eda|14=30000|17=75d7476840744158|21=1|31=34.1|32=10000|37=321a47dc5d914296|38=10000|39=2|40=2|44=34.1|54=2|55=BSANTANDER|58=New Sell BSANTANDER 10000.0 @ 34.1|59=0|60=20150527-19:28:17.329|63=3|100=XSGO|150=F|151=-20000|207=XSGO|583=-4644c7f44da4b69a|10=037|8=FIX.4.4|9=351|35=8|34=11|49=LVSSG_ARB|52=20150527-19:28:17.338|56=LVARB|1=591866109-00|6=34.1|11=3a0ed67e0bfab8e0|14=30000|17=-12a3adb31913b208|21=1|31=34.1|32=10000|37=-79fb2c0a01ffb0c8|38=400000|39=1|40=2|44=34.19|54=1|55=BSANTANDER|58=New Buy BSANTANDER 400000.0 @ 32.6|59=0|60=20150527-19:27:54.977|63=3|100=XSGO|150=F|151=370000|207=XSGO|583=-2a133de1fc8ab088|10=012|8=FIX.4.4|9=351|35=8|34=12|49=LVSSG_ARB|52=20150527-19:28:19.228|56=LVARB|1=591866109-00|6=34.1|11=3a0ed67e0bfab8e0|14=30000|17=-1feb64d6d12bba8b|21=1|31=34.1|32=10000|37=-79fb2c0a01ffb0c8|38=430000|39=0|40=2|44=34.19|54=1|55=BSANTANDER|58=New Buy BSANTANDER 400000.0 @ 32.6|59=0|60=20150527-19:28:19.228|63=3|100=XSGO|150=5|151=370000|207=XSGO|583=-2a133de1fc8ab088|10=194|8=FIX.4.4|9=351|35=8|34=13|49=LVSSG_ARB|52=20150527-19:28:22.902|56=LVARB|1=591866109-00|6=34.1|11=3a0ed67e0bfab8e0|14=30000|17=-30a317233925b796|21=1|31=34.1|32=10000|37=-79fb2c0a01ffb0c8|38=430000|39=0|40=2|44=34.19|54=1|55=BSANTANDER|58=New Buy BSANTANDER 400000.0 @ 32.6|59=0|60=20150527-19:28:22.902|63=3|100=XSGO|150=5|151=370000|207=XSGO|583=-2a133de1fc8ab088|10=108|8=FIX.4.4|9=351|35=8|34=14|49=LVSSG_ARB|52=20150527-19:28:24.915|56=LVARB|1=591866109-00|6=34.1|11=3a0ed67e0bfab8e0|14=30000|17=-786f2b88e5ebb16e|21=1|31=34.1|32=10000|37=-79fb2c0a01ffb0c8|38=430000|39=0|40=2|44=34.21|54=1|55=BSANTANDER|58=New Buy BSANTANDER 400000.0 @ 32.6|59=0|60=20150527-19:28:24.915|63=3|100=XSGO|150=5|151=370000|207=XSGO|583=-2a133de1fc8ab088|10=113|8=FIX.4.4|9=351|35=8|34=15|49=LVSSG_ARB|52=20150527-19:28:24.967|56=LVARB|1=591866109-00|6=34.1|11=3a0ed67e0bfab8e0|14=30000|17=-223ecc9d3bc0b848|21=1|31=34.1|32=10000|37=-79fb2c0a01ffb0c8|38=430000|39=0|40=2|44=34.21|54=1|55=BSANTANDER|58=New Buy BSANTANDER 400000.0 @ 32.6|59=0|60=20150527-19:28:24.967|63=3|100=XSGO|150=5|151=370000|207=XSGO|583=-2a133de1fc8ab088|10=111|8=FIX.4.4|9=351|35=8|34=16|49=LVSSG_ARB|52=20150527-19:28:25.058|56=LVARB|1=591866109-00|6=34.1|11=3a0ed67e0bfab8e0|14=30000|17=-1e0f719fb538b859|21=1|31=34.1|32=10000|37=-79fb2c0a01ffb0c8|38=430000|39=0|40=2|44=34.21|54=1|55=BSANTANDER|58=New Buy BSANTANDER 400000.0 @ 32.6|59=0|60=20150527-19:28:25.058|63=3|100=XSGO|150=5|151=370000|207=XSGO|583=-2a133de1fc8ab088|10=016|8=FIX.4.4|9=350|35=8|34=17|49=LVSSG_ARB|52=20150527-19:28:25.123|56=LVARB|1=591866109-00|6=34.1|11=3a0ed67e0bfab8e0|14=30000|17=7848aecdbf7d4cbd|21=1|31=34.1|32=10000|37=-79fb2c0a01ffb0c8|38=430000|39=0|40=2|44=34.21|54=1|55=BSANTANDER|58=New Buy BSANTANDER 400000.0 @ 32.6|59=0|60=20150527-19:28:25.123|63=3|100=XSGO|150=5|151=370000|207=XSGO|583=-2a133de1fc8ab088|10=192|8=FIX.4.4|9=351|35=8|34=18|49=LVSSG_ARB|52=20150527-19:28:35.096|56=LVARB|1=591866109-00|6=34.1|11=3a0ed67e0bfab8e0|14=30000|17=-13a870099255bcf8|21=1|31=34.1|32=10000|37=-79fb2c0a01ffb0c8|38=430000|39=0|40=2|44=34.21|54=1|55=BSANTANDER|58=New Buy BSANTANDER 400000.0 @ 32.6|59=0|60=20150527-19:28:35.092|63=3|100=XSGO|150=5|151=370000|207=XSGO|583=-2a133de1fc8ab088|10=220|8=FIX.4.4|9=351|35=8|34=19|49=LVSSG_ARB|52=20150527-19:28:35.159|56=LVARB|1=591866109-00|6=34.1|11=3a0ed67e0bfab8e0|14=30000|17=-3fa1434a66e7b432|21=1|31=34.1|32=10000|37=-79fb2c0a01ffb0c8|38=430000|39=0|40=2|44=34.21|54=1|55=BSANTANDER|58=New Buy BSANTANDER 400000.0 @ 32.6|59=0|60=20150527-19:28:35.159|63=3|100=XSGO|150=5|151=370000|207=XSGO|583=-2a133de1fc8ab088|10=006|8=FIX.4.4|9=351|35=8|34=20|49=LVSSG_ARB|52=20150527-19:28:35.202|56=LVARB|1=591866109-00|6=34.1|11=3a0ed67e0bfab8e0|14=30000|17=-62bf2767b8dfbc00|21=1|31=34.1|32=10000|37=-79fb2c0a01ffb0c8|38=430000|39=0|40=2|44=34.21|54=1|55=BSANTANDER|58=New Buy BSANTANDER 400000.0 @ 32.6|59=0|60=20150527-19:28:35.202|63=3|100=XSGO|150=5|151=370000|207=XSGO|583=-2a133de1fc8ab088|10=077|8=FIX.4.4|9=351|35=8|34=21|49=LVSSG_ARB|52=20150527-19:28:43.244|56=LVARB|1=591866109-00|6=34.1|11=3a0ed67e0bfab8e0|14=30000|17=-348e1432f840b903|21=1|31=34.1|32=10000|37=-79fb2c0a01ffb0c8|38=430000|39=0|40=2|44=34.21|54=1|55=BSANTANDER|58=New Buy BSANTANDER 400000.0 @ 32.6|59=0|60=20150527-19:28:43.244|63=3|100=XSGO|150=5|151=370000|207=XSGO|583=-2a133de1fc8ab088|10=151|8=FIX.4.4|9=350|35=8|34=22|49=LVSSG_ARB|52=20150527-19:28:43.279|56=LVARB|1=591866109-00|6=34.1|11=3a0ed67e0bfab8e0|14=30000|17=25d03773f2ce468c|21=1|31=34.1|32=10000|37=-79fb2c0a01ffb0c8|38=430000|39=0|40=2|44=34.21|54=1|55=BSANTANDER|58=New Buy BSANTANDER 400000.0 @ 32.6|59=0|60=20150527-19:28:43.279|63=3|100=XSGO|150=5|151=370000|207=XSGO|583=-2a133de1fc8ab088|10=224|8=FIX.4.4|9=351|35=8|34=23|49=LVSSG_ARB|52=20150527-19:28:50.759|56=LVARB|1=591866109-00|6=34.1|11=3a0ed67e0bfab8e0|14=30000|17=-79ec534bb01dbe65|21=1|31=34.1|32=10000|37=-79fb2c0a01ffb0c8|38=430000|39=0|40=2|44=34.21|54=1|55=BSANTANDER|58=New Buy BSANTANDER 400000.0 @ 32.6|59=0|60=20150527-19:28:50.759|63=3|100=XSGO|150=5|151=370000|207=XSGO|583=-2a133de1fc8ab088|10=108|8=FIX.4.4|9=350|35=8|34=24|49=LVSSG_ARB|52=20150527-19:28:50.795|56=LVARB|1=591866109-00|6=34.1|11=3a0ed67e0bfab8e0|14=30000|17=1968c02f7257428c|21=1|31=34.1|32=10000|37=-79fb2c0a01ffb0c8|38=430000|39=0|40=2|44=34.21|54=1|55=BSANTANDER|58=New Buy BSANTANDER 400000.0 @ 32.6|59=0|60=20150527-19:28:50.795|63=3|100=XSGO|150=5|151=370000|207=XSGO|583=-2a133de1fc8ab088|10=137|8=FIX.4.4|9=351|35=8|34=25|49=LVSSG_ARB|52=20150527-19:28:55.764|56=LVARB|1=591866109-00|6=34.1|11=3a0ed67e0bfab8e0|14=30000|17=-6e113acc161bbe04|21=1|31=34.1|32=10000|37=-79fb2c0a01ffb0c8|38=430000|39=0|40=2|44=34.21|54=1|55=BSANTANDER|58=New Buy BSANTANDER 400000.0 @ 32.6|59=0|60=20150527-19:28:55.764|63=3|100=XSGO|150=5|151=370000|207=XSGO|583=-2a133de1fc8ab088|10=093|8=FIX.4.4|9=350|35=8|34=26|49=LVSSG_ARB|52=20150527-19:29:11.962|56=LVARB|1=591866109-00|6=34.1|11=3a0ed67e0bfab8e0|14=30000|17=478565bdf90047b9|21=1|31=34.1|32=10000|37=-79fb2c0a01ffb0c8|38=430000|39=0|40=2|44=34.21|54=1|55=BSANTANDER|58=New Buy BSANTANDER 400000.0 @ 32.6|59=0|60=20150527-19:29:11.962|63=3|100=XSGO|150=5|151=370000|207=XSGO|583=-2a133de1fc8ab088|10=180|8=FIX.4.4|9=351|35=8|34=27|49=LVSSG_ARB|52=20150527-19:29:11.997|56=LVARB|1=591866109-00|6=34.1|11=3a0ed67e0bfab8e0|14=30000|17=-6d7d5d9499e1b12a|21=1|31=34.1|32=10000|37=-79fb2c0a01ffb0c8|38=430000|39=0|40=2|44=34.21|54=1|55=BSANTANDER|58=New Buy BSANTANDER 400000.0 @ 32.6|59=0|60=20150527-19:29:11.997|63=3|100=XSGO|150=5|151=370000|207=XSGO|583=-2a133de1fc8ab088|10=078|8=FIX.4.4|9=350|35=8|34=28|49=LVSSG_ARB|52=20150527-19:29:16.633|56=LVARB|1=591866109-00|6=34.1|11=3a0ed67e0bfab8e0|14=30000|17=7099cb8246a0460c|21=1|31=34.1|32=10000|37=-79fb2c0a01ffb0c8|38=430000|39=0|40=2|44=34.21|54=1|55=BSANTANDER|58=New Buy BSANTANDER 400000.0 @ 32.6|59=0|60=20150527-19:29:16.633|63=3|100=XSGO|150=5|151=370000|207=XSGO|583=-2a133de1fc8ab088|10=168|8=FIX.4.4|9=350|35=8|34=29|49=LVSSG_ARB|52=20150527-19:29:22.157|56=LVARB|1=591866109-00|6=34.1|11=3a0ed67e0bfab8e0|14=30000|17=6b7a86f3029540bc|21=1|31=34.1|32=10000|37=-79fb2c0a01ffb0c8|38=430000|39=0|40=2|44=34.21|54=1|55=BSANTANDER|58=New Buy BSANTANDER 400000.0 @ 32.6|59=0|60=20150527-19:29:22.156|63=3|100=XSGO|150=5|151=370000|207=XSGO|583=-2a133de1fc8ab088|10=212|8=FIX.4.4|9=351|35=8|34=30|49=LVSSG_ARB|52=20150527-19:29:22.205|56=LVARB|1=591866109-00|6=34.1|11=3a0ed67e0bfab8e0|14=30000|17=-320b1076c58ab9f4|21=1|31=34.1|32=10000|37=-79fb2c0a01ffb0c8|38=430000|39=0|40=2|44=34.21|54=1|55=BSANTANDER|58=New Buy BSANTANDER 400000.0 @ 32.6|59=0|60=20150527-19:29:22.204|63=3|100=XSGO|150=5|151=370000|207=XSGO|583=-2a133de1fc8ab088|10=233|8=FIX.4.4|9=350|35=8|34=31|49=LVSSG_ARB|52=20150527-19:29:32.981|56=LVARB|1=591866109-00|6=34.1|11=3a0ed67e0bfab8e0|14=30000|17=6e01c2f5f51f4fbb|21=1|31=34.1|32=10000|37=-79fb2c0a01ffb0c8|38=430000|39=0|40=2|44=34.21|54=1|55=BSANTANDER|58=New Buy BSANTANDER 400000.0 @ 32.6|59=0|60=20150527-19:29:32.981|63=3|100=XSGO|150=5|151=370000|207=XSGO|583=-2a133de1fc8ab088|10=102|8=FIX.4.4|9=350|35=8|34=32|49=LVSSG_ARB|52=20150527-19:29:33.015|56=LVARB|1=591866109-00|6=34.1|11=3a0ed67e0bfab8e0|14=30000|17=11102938741446f1|21=1|31=34.1|32=10000|37=-79fb2c0a01ffb0c8|38=430000|39=0|40=2|44=34.21|54=1|55=BSANTANDER|58=New Buy BSANTANDER 400000.0 @ 32.6|59=0|60=20150527-19:29:33.015|63=3|100=XSGO|150=5|151=370000|207=XSGO|583=-2a133de1fc8ab088|10=255|8=FIX.4.4|9=350|35=8|34=33|49=LVSSG_ARB|52=20150527-19:29:39.225|56=LVARB|1=591866109-00|6=34.1|11=3a0ed67e0bfab8e0|14=30000|17=2cf6094dc57244d2|21=1|31=34.1|32=10000|37=-79fb2c0a01ffb0c8|38=430000|39=0|40=2|44=34.21|54=1|55=BSANTANDER|58=New Buy BSANTANDER 400000.0 @ 32.6|59=0|60=20150527-19:29:39.225|63=3|100=XSGO|150=5|151=370000|207=XSGO|583=-2a133de1fc8ab088|10=217|8=FIX.4.4|9=350|35=8|34=34|49=LVSSG_ARB|52=20150527-19:29:39.268|56=LVARB|1=591866109-00|6=34.1|11=3a0ed67e0bfab8e0|14=30000|17=-f74e1b16f36bbce|21=1|31=34.1|32=10000|37=-79fb2c0a01ffb0c8|38=430000|39=0|40=2|44=34.21|54=1|55=BSANTANDER|58=New Buy BSANTANDER 400000.0 @ 32.6|59=0|60=20150527-19:29:39.268|63=3|100=XSGO|150=5|151=370000|207=XSGO|583=-2a133de1fc8ab088|10=111|8=FIX.4.4|9=351|35=8|34=35|49=LVSSG_ARB|52=20150527-19:29:42.999|56=LVARB|1=591866109-00|6=34.1|11=3a0ed67e0bfab8e0|14=30000|17=-642f075ed24ebe26|21=1|31=34.1|32=10000|37=-79fb2c0a01ffb0c8|38=430000|39=0|40=2|44=34.21|54=1|55=BSANTANDER|58=New Buy BSANTANDER 400000.0 @ 32.6|59=0|60=20150527-19:29:42.999|63=3|100=XSGO|150=5|151=370000|207=XSGO|583=-2a133de1fc8ab088|10=081|8=FIX.4.4|9=350|35=8|34=36|49=LVSSG_ARB|52=20150527-19:29:43.034|56=LVARB|1=591866109-00|6=34.1|11=3a0ed67e0bfab8e0|14=30000|17=3d1c7e621eb844a8|21=1|31=34.1|32=10000|37=-79fb2c0a01ffb0c8|38=430000|39=0|40=2|44=34.21|54=1|55=BSANTANDER|58=New Buy BSANTANDER 400000.0 @ 32.6|59=0|60=20150527-19:29:43.034|63=3|100=XSGO|150=5|151=370000|207=XSGO|583=-2a133de1fc8ab088|10=253|8=FIX.4.4|9=351|35=8|34=37|49=LVSSG_ARB|52=20150527-19:29:43.135|56=LVARB|1=591866109-00|6=34.1|11=3a0ed67e0bfab8e0|14=30000|17=-4098f4915f95bf06|21=1|31=34.1|32=10000|37=-79fb2c0a01ffb0c8|38=430000|39=0|40=2|44=34.21|54=1|55=BSANTANDER|58=New Buy BSANTANDER 400000.0 @ 32.6|59=0|60=20150527-19:29:43.135|63=3|100=XSGO|150=5|151=370000|207=XSGO|583=-2a133de1fc8ab088|10=224|8=FIX.4.4|9=350|35=8|34=38|49=LVSSG_ARB|52=20150527-19:29:44.221|56=LVARB|1=591866109-00|6=34.1|11=3a0ed67e0bfab8e0|14=30000|17=3533e05c4e32407d|21=1|31=34.1|32=10000|37=-79fb2c0a01ffb0c8|38=430000|39=0|40=2|44=34.21|54=1|55=BSANTANDER|58=New Buy BSANTANDER 400000.0 @ 32.6|59=0|60=20150527-19:29:44.221|63=3|100=XSGO|150=5|151=370000|207=XSGO|583=-2a133de1fc8ab088|10=149|8=FIX.4.4|9=351|35=8|34=39|49=LVSSG_ARB|52=20150527-19:29:53.270|56=LVARB|1=591866109-00|6=34.1|11=3a0ed67e0bfab8e0|14=30000|17=-4ad4c2fe1588bcee|21=1|31=34.1|32=10000|37=-79fb2c0a01ffb0c8|38=430000|39=0|40=2|44=34.21|54=1|55=BSANTANDER|58=New Buy BSANTANDER 400000.0 @ 32.6|59=0|60=20150527-19:29:53.269|63=3|100=XSGO|150=5|151=370000|207=XSGO|583=-2a133de1fc8ab088|10=206|8=FIX.4.4|9=349|35=8|34=40|49=LVSSG_ARB|52=20150527-19:29:53.395|56=LVARB|1=591866109-00|6=34.1|11=3a0ed67e0bfab8e0|14=30000|17=5c89c009ef14151|21=1|31=34.1|32=10000|37=-79fb2c0a01ffb0c8|38=430000|39=0|40=2|44=34.21|54=1|55=BSANTANDER|58=New Buy BSANTANDER 400000.0 @ 32.6|59=0|60=20150527-19:29:53.395|63=3|100=XSGO|150=5|151=370000|207=XSGO|583=-2a133de1fc8ab088|10=130|8=FIX.4.4|9=351|35=8|34=41|49=LVSSG_ARB|52=20150527-19:29:53.433|56=LVARB|1=591866109-00|6=34.1|11=3a0ed67e0bfab8e0|14=30000|17=-5e65bc0d50e6b7ff|21=1|31=34.1|32=10000|37=-79fb2c0a01ffb0c8|38=430000|39=0|40=2|44=34.21|54=1|55=BSANTANDER|58=New Buy BSANTANDER 400000.0 @ 32.6|59=0|60=20150527-19:29:53.433|63=3|100=XSGO|150=5|151=370000|207=XSGO|583=-2a133de1fc8ab088|10=146|8=FIX.4.4|9=351|35=8|34=42|49=LVSSG_ARB|52=20150527-19:30:00.706|56=LVARB|1=591866109-00|6=34.1|11=3a0ed67e0bfab8e0|14=30000|17=-787d9eb242f4be1b|21=1|31=34.1|32=10000|37=-79fb2c0a01ffb0c8|38=430000|39=0|40=2|44=34.21|54=1|55=BSANTANDER|58=New Buy BSANTANDER 400000.0 @ 32.6|59=0|60=20150527-19:30:00.705|63=3|100=XSGO|150=5|151=370000|207=XSGO|583=-2a133de1fc8ab088|10=075|8=FIX.4.4|9=351|35=8|34=43|49=LVSSG_ARB|52=20150527-19:30:00.760|56=LVARB|1=591866109-00|6=34.1|11=3a0ed67e0bfab8e0|14=30000|17=-47e3a2086c38be7c|21=1|31=34.1|32=10000|37=-79fb2c0a01ffb0c8|38=430000|39=0|40=2|44=34.21|54=1|55=BSANTANDER|58=New Buy BSANTANDER 400000.0 @ 32.6|59=0|60=20150527-19:30:00.760|63=3|100=XSGO|150=5|151=370000|207=XSGO|583=-2a133de1fc8ab088|10=026|8=FIX.4.4|9=351|35=8|34=44|49=LVSSG_ARB|52=20150527-19:30:04.026|56=LVARB|1=591866109-00|6=34.1|11=3a0ed67e0bfab8e0|14=30000|17=-3499c740cfd7b4b0|21=1|31=34.1|32=10000|37=-79fb2c0a01ffb0c8|38=430000|39=0|40=2|44=34.22|54=1|55=BSANTANDER|58=New Buy BSANTANDER 400000.0 @ 32.6|59=0|60=20150527-19:30:04.026|63=3|100=XSGO|150=5|151=370000|207=XSGO|583=-2a133de1fc8ab088|10=026|8=FIX.4.4|9=350|35=8|34=45|49=LVSSG_ARB|52=20150527-19:30:04.067|56=LVARB|1=591866109-00|6=34.1|11=3a0ed67e0bfab8e0|14=30000|17=57b51a7e59194fbc|21=1|31=34.1|32=10000|37=-79fb2c0a01ffb0c8|38=430000|39=0|40=2|44=34.22|54=1|55=BSANTANDER|58=New Buy BSANTANDER 400000.0 @ 32.6|59=0|60=20150527-19:30:04.067|63=3|100=XSGO|150=5|151=370000|207=XSGO|583=-2a133de1fc8ab088|10=252|8=FIX.4.4|9=350|35=8|34=46|49=LVSSG_ARB|52=20150527-19:30:04.164|56=LVARB|1=591866109-00|6=34.1|11=3a0ed67e0bfab8e0|14=30000|17=1f95d5a744094240|21=1|31=34.1|32=10000|37=-79fb2c0a01ffb0c8|38=430000|39=0|40=2|44=34.22|54=1|55=BSANTANDER|58=New Buy BSANTANDER 400000.0 @ 32.6|59=0|60=20150527-19:30:04.164|63=3|100=XSGO|150=5|151=370000|207=XSGO|583=-2a133de1fc8ab088|10=098|8=FIX.4.4|9=350|35=8|34=47|49=LVSSG_ARB|52=20150527-19:30:04.201|56=LVARB|1=591866109-00|6=34.1|11=3a0ed67e0bfab8e0|14=30000|17=6124bfa4e6e74881|21=1|31=34.1|32=10000|37=-79fb2c0a01ffb0c8|38=430000|39=0|40=2|44=34.22|54=1|55=BSANTANDER|58=New Buy BSANTANDER 400000.0 @ 32.6|59=0|60=20150527-19:30:04.201|63=3|100=XSGO|150=5|151=370000|207=XSGO|583=-2a133de1fc8ab088|10=184|8=FIX.4.4|9=325|35=8|34=48|49=LVSSG_ARB|52=20150527-19:30:58.145|56=LVARB|1=109976|6=0|11=6398d60df7a24228|14=0|17=3ca9265d48da48ac|21=1|31=0|32=0|37=5b9a1b94ebc14182|38=10000|39=0|40=2|44=34.1|54=2|55=BSANTANDER|58=New Sell BSANTANDER 10000.0 @ 34.1|59=0|60=20150527-19:30:58.144|63=3|100=XSGO|150=0|151=10000|207=XSGO|583=78f6dcdfb905444a|10=091|8=FIX.4.4|9=351|35=8|34=49|49=LVSSG_ARB|52=20150527-19:31:26.526|56=LVARB|1=591866109-00|6=34.1|11=3a0ed67e0bfab8e0|14=30000|17=-282ed3bb2e21b364|21=1|31=34.1|32=10000|37=-79fb2c0a01ffb0c8|38=430000|39=0|40=2|44=34.22|54=1|55=BSANTANDER|58=New Buy BSANTANDER 400000.0 @ 32.6|59=0|60=20150527-19:31:26.489|63=3|100=XSGO|150=5|151=370000|207=XSGO|583=-2a133de1fc8ab088|10=045|8=FIX.4.4|9=336|35=8|34=50|49=LVSSG_ARB|52=20150527-19:31:59.158|56=LVARB|1=109976|6=34.1|11=6398d60df7a24228|14=10000|17=-4c7cc3e0a53dbbcf|21=1|31=34.1|32=10000|37=5b9a1b94ebc14182|38=10000|39=2|40=2|44=34.1|54=2|55=BSANTANDER|58=New Sell BSANTANDER 10000.0 @ 34.1|59=0|60=20150527-19:30:58.144|63=3|100=XSGO|150=F|151=0|207=XSGO|583=78f6dcdfb905444a|10=018|8=FIX.4.4|9=351|35=8|34=51|49=LVSSG_ARB|52=20150527-19:31:59.158|56=LVARB|1=591866109-00|6=34.1|11=3a0ed67e0bfab8e0|14=40000|17=-622107251568b721|21=1|31=34.1|32=10000|37=-79fb2c0a01ffb0c8|38=430000|39=1|40=2|44=34.22|54=1|55=BSANTANDER|58=New Buy BSANTANDER 400000.0 @ 32.6|59=0|60=20150527-19:31:26.489|63=3|100=XSGO|150=F|151=390000|207=XSGO|583=-2a133de1fc8ab088|10=086|8=FIX.4.4|9=342|35=8|34=52|49=LVSSG_ARB|50=XPUS|52=20150527-19:31:59.246|56=LVARB|57=default|1=QXP019284|6=0|11=a624491dd34470c|14=0|17=-5f4607509cb5b4ae|21=1|31=0|32=0|37=61f99f92a7164a8a|38=100|39=0|40=2|44=21.25|54=2|55=BSAC|58=New Sell BSAC 100.0 @ 21.25|59=0|60=20150527-19:31:59.246|63=3|100=SMART|111=100|150=0|151=100|207=SMART|583=-4a42cd4ee29cbab5|10=138|8=FIX.4.4|9=351|35=8|34=53|49=LVSSG_ARB|52=20150527-19:32:01.171|56=LVARB|1=591866109-00|6=34.1|11=3a0ed67e0bfab8e0|14=40000|17=-7ab6a485e438b19e|21=1|31=34.1|32=10000|37=-79fb2c0a01ffb0c8|38=440000|39=0|40=2|44=34.22|54=1|55=BSANTANDER|58=New Buy BSANTANDER 400000.0 @ 32.6|59=0|60=20150527-19:32:01.171|63=3|100=XSGO|150=5|151=390000|207=XSGO|583=-2a133de1fc8ab088|10=034|8=FIX.4.4|9=350|35=8|34=54|49=LVSSG_ARB|52=20150527-19:32:01.202|56=LVARB|1=591866109-00|6=34.1|11=3a0ed67e0bfab8e0|14=40000|17=7026b5fc39aa4533|21=1|31=34.1|32=10000|37=-79fb2c0a01ffb0c8|38=440000|39=0|40=2|44=34.22|54=1|55=BSANTANDER|58=New Buy BSANTANDER 400000.0 @ 32.6|59=0|60=20150527-19:32:01.202|63=3|100=XSGO|150=5|151=390000|207=XSGO|583=-2a133de1fc8ab088|10=176|8=FIX.4.4|9=350|35=8|34=55|49=LVSSG_ARB|52=20150527-19:32:01.326|56=LVARB|1=591866109-00|6=34.1|11=3a0ed67e0bfab8e0|14=40000|17=4272ba18931a4d5e|21=1|31=34.1|32=10000|37=-79fb2c0a01ffb0c8|38=440000|39=0|40=2|44=34.21|54=1|55=BSANTANDER|58=New Buy BSANTANDER 400000.0 @ 32.6|59=0|60=20150527-19:32:01.326|63=3|100=XSGO|150=5|151=390000|207=XSGO|583=-2a133de1fc8ab088|10=189|8=FIX.4.4|9=350|35=8|34=56|49=LVSSG_ARB|52=20150527-19:32:01.373|56=LVARB|1=591866109-00|6=34.1|11=3a0ed67e0bfab8e0|14=40000|17=791d7a9b43b24f31|21=1|31=34.1|32=10000|37=-79fb2c0a01ffb0c8|38=440000|39=0|40=2|44=34.21|54=1|55=BSANTANDER|58=New Buy BSANTANDER 400000.0 @ 32.6|59=0|60=20150527-19:32:01.373|63=3|100=XSGO|150=5|151=390000|207=XSGO|583=-2a133de1fc8ab088|10=200|8=FIX.4.4|9=350|35=8|34=57|49=LVSSG_ARB|52=20150527-19:32:07.966|56=LVARB|1=591866109-00|6=34.1|11=3a0ed67e0bfab8e0|14=40000|17=3c8731295d84409d|21=1|31=34.1|32=10000|37=-79fb2c0a01ffb0c8|38=440000|39=0|40=2|44=34.22|54=1|55=BSANTANDER|58=New Buy BSANTANDER 400000.0 @ 32.6|59=0|60=20150527-19:32:07.966|63=3|100=XSGO|150=5|151=390000|207=XSGO|583=-2a133de1fc8ab088|10=143|8=FIX.4.4|9=350|35=8|34=58|49=LVSSG_ARB|52=20150527-19:32:07.983|56=LVARB|1=591866109-00|6=34.1|11=3a0ed67e0bfab8e0|14=40000|17=40dfe95ccf924152|21=1|31=34.1|32=10000|37=-79fb2c0a01ffb0c8|38=440000|39=0|40=2|44=34.22|54=1|55=BSANTANDER|58=New Buy BSANTANDER 400000.0 @ 32.6|59=0|60=20150527-19:32:07.983|63=3|100=XSGO|150=5|151=390000|207=XSGO|583=-2a133de1fc8ab088|10=024|8=FIX.4.4|9=351|35=8|34=59|49=LVSSG_ARB|52=20150527-19:32:08.117|56=LVARB|1=591866109-00|6=34.1|11=3a0ed67e0bfab8e0|14=40000|17=-5c4ddd8720bbbf2d|21=1|31=34.1|32=10000|37=-79fb2c0a01ffb0c8|38=440000|39=0|40=2|44=34.22|54=1|55=BSANTANDER|58=New Buy BSANTANDER 400000.0 @ 32.6|59=0|60=20150527-19:32:08.116|63=3|100=XSGO|150=5|151=390000|207=XSGO|583=-2a133de1fc8ab088|10=185|8=FIX.4.4|9=351|35=8|34=60|49=LVSSG_ARB|52=20150527-19:32:08.144|56=LVARB|1=591866109-00|6=34.1|11=3a0ed67e0bfab8e0|14=40000|17=-4210318fc6aaba93|21=1|31=34.1|32=10000|37=-79fb2c0a01ffb0c8|38=440000|39=0|40=2|44=34.21|54=1|55=BSANTANDER|58=New Buy BSANTANDER 400000.0 @ 32.6|59=0|60=20150527-19:32:08.143|63=3|100=XSGO|150=5|151=390000|207=XSGO|583=-2a133de1fc8ab088|10=024|8=FIX.4.4|9=350|35=8|34=61|49=LVSSG_ARB|52=20150527-19:32:18.593|56=LVARB|1=591866109-00|6=34.1|11=3a0ed67e0bfab8e0|14=40000|17=-e89701a9896b708|21=1|31=34.1|32=10000|37=-79fb2c0a01ffb0c8|38=440000|39=0|40=2|44=34.21|54=1|55=BSANTANDER|58=New Buy BSANTANDER 400000.0 @ 32.6|59=0|60=20150527-19:32:18.593|63=3|100=XSGO|150=5|151=390000|207=XSGO|583=-2a133de1fc8ab088|10=136|8=FIX.4.4|9=350|35=8|34=62|49=LVSSG_ARB|52=20150527-19:32:23.716|56=LVARB|1=591866109-00|6=34.1|11=3a0ed67e0bfab8e0|14=40000|17=-e5804752b93b866|21=1|31=34.1|32=10000|37=-79fb2c0a01ffb0c8|38=440000|39=0|40=2|44=34.21|54=1|55=BSANTANDER|58=New Buy BSANTANDER 400000.0 @ 32.6|59=0|60=20150527-19:32:23.715|63=3|100=XSGO|150=5|151=390000|207=XSGO|583=-2a133de1fc8ab088|10=114|8=FIX.4.4|9=351|35=8|34=63|49=LVSSG_ARB|52=20150527-19:32:59.865|56=LVARB|1=591866109-00|6=34.1|11=3a0ed67e0bfab8e0|14=40000|17=-12eb8bbb6ab7b4e2|21=1|31=34.1|32=10000|37=-79fb2c0a01ffb0c8|38=440000|39=0|40=2|44=34.21|54=1|55=BSANTANDER|58=New Buy BSANTANDER 400000.0 @ 32.6|59=0|60=20150527-19:32:59.864|63=3|100=XSGO|150=5|151=390000|207=XSGO|583=-2a133de1fc8ab088|10=205|8=FIX.4.4|9=351|35=8|34=64|49=LVSSG_ARB|52=20150527-19:33:10.809|56=LVARB|1=591866109-00|6=34.1|11=3a0ed67e0bfab8e0|14=40000|17=-2de30eca0885b321|21=1|31=34.1|32=10000|37=-79fb2c0a01ffb0c8|38=440000|39=0|40=2|44=34.21|54=1|55=BSANTANDER|58=New Buy BSANTANDER 400000.0 @ 32.6|59=0|60=20150527-19:33:10.809|63=3|100=XSGO|150=5|151=390000|207=XSGO|583=-2a133de1fc8ab088|10=034|8=FIX.4.4|9=58|35=0|34=65|49=LVSSG_ARB|52=20150527-19:34:16.424|56=LVARB|10=085|8=FIX.4.4|9=144|35=3|34=66|49=LVSSG_ARB|50=XPUS|52=20150527-19:34:31.407|56=LVARB|57=default|45=60|58=Tag not defined for this message type|371=111|372=F|373=2|10=248|8=FIX.4.4|9=351|35=8|34=67|49=LVSSG_ARB|52=20150527-19:34:51.988|56=LVARB|1=591866109-00|6=34.1|11=3a0ed67e0bfab8e0|14=40000|17=-3e6afe575b00bf29|21=1|31=34.1|32=10000|37=-79fb2c0a01ffb0c8|38=440000|39=0|40=2|44=34.21|54=1|55=BSANTANDER|58=New Buy BSANTANDER 400000.0 @ 32.6|59=0|60=20150527-19:34:51.987|63=3|100=XSGO|150=5|151=390000|207=XSGO|583=-2a133de1fc8ab088|10=124|8=FIX.4.4|9=350|35=8|34=68|49=LVSSG_ARB|52=20150527-19:34:52.013|56=LVARB|1=591866109-00|6=34.1|11=3a0ed67e0bfab8e0|14=40000|17=7d73dc87917f436a|21=1|31=34.1|32=10000|37=-79fb2c0a01ffb0c8|38=440000|39=0|40=2|44=34.21|54=1|55=BSANTANDER|58=New Buy BSANTANDER 400000.0 @ 32.6|59=0|60=20150527-19:34:52.013|63=3|100=XSGO|150=5|151=390000|207=XSGO|583=-2a133de1fc8ab088|10=216|8=FIX.4.4|9=351|35=8|34=69|49=LVSSG_ARB|52=20150527-19:34:52.126|56=LVARB|1=591866109-00|6=34.1|11=3a0ed67e0bfab8e0|14=40000|17=-451807609595bc5e|21=1|31=34.1|32=10000|37=-79fb2c0a01ffb0c8|38=440000|39=0|40=2|44=34.21|54=1|55=BSANTANDER|58=New Buy BSANTANDER 400000.0 @ 32.6|59=0|60=20150527-19:34:52.126|63=3|100=XSGO|150=5|151=390000|207=XSGO|583=-2a133de1fc8ab088|10=171|8=FIX.4.4|9=350|35=8|34=70|49=LVSSG_ARB|52=20150527-19:34:52.153|56=LVARB|1=591866109-00|6=34.1|11=3a0ed67e0bfab8e0|14=40000|17=583b4909179e4e1f|21=1|31=34.1|32=10000|37=-79fb2c0a01ffb0c8|38=440000|39=0|40=2|44=34.21|54=1|55=BSANTANDER|58=New Buy BSANTANDER 400000.0 @ 32.6|59=0|60=20150527-19:34:52.152|63=3|100=XSGO|150=5|151=390000|207=XSGO|583=-2a133de1fc8ab088|10=168|8=FIX.4.4|9=351|35=8|34=71|49=LVSSG_ARB|52=20150527-19:34:52.245|56=LVARB|1=591866109-00|6=34.1|11=3a0ed67e0bfab8e0|14=40000|17=-3ec0b0f70afdb0fe|21=1|31=34.1|32=10000|37=-79fb2c0a01ffb0c8|38=440000|39=0|40=2|44=34.21|54=1|55=BSANTANDER|58=New Buy BSANTANDER 400000.0 @ 32.6|59=0|60=20150527-19:34:52.245|63=3|100=XSGO|150=5|151=390000|207=XSGO|583=-2a133de1fc8ab088|10=224|8=FIX.4.4|9=350|35=8|34=72|49=LVSSG_ARB|52=20150527-19:34:52.270|56=LVARB|1=591866109-00|6=34.1|11=3a0ed67e0bfab8e0|14=40000|17=270163e04c854b28|21=1|31=34.1|32=10000|37=-79fb2c0a01ffb0c8|38=440000|39=0|40=2|44=34.21|54=1|55=BSANTANDER|58=New Buy BSANTANDER 400000.0 @ 32.6|59=0|60=20150527-19:34:52.270|63=3|100=XSGO|150=5|151=390000|207=XSGO|583=-2a133de1fc8ab088|10=105|8=FIX.4.4|9=350|35=8|34=73|49=LVSSG_ARB|52=20150527-19:34:56.484|56=LVARB|1=591866109-00|6=34.1|11=3a0ed67e0bfab8e0|14=40000|17=3c37145d4ae64b21|21=1|31=34.1|32=10000|37=-79fb2c0a01ffb0c8|38=440000|39=0|40=2|44=34.21|54=1|55=BSANTANDER|58=New Buy BSANTANDER 400000.0 @ 32.6|59=0|60=20150527-19:34:56.484|63=3|100=XSGO|150=5|151=390000|207=XSGO|583=-2a133de1fc8ab088|10=219|8=FIX.4.4|9=351|35=8|34=74|49=LVSSG_ARB|52=20150527-19:34:57.248|56=LVARB|1=591866109-00|6=34.1|11=3a0ed67e0bfab8e0|14=40000|17=-344fcfa52c4abb01|21=1|31=34.1|32=10000|37=-79fb2c0a01ffb0c8|38=440000|39=0|40=2|44=34.21|54=1|55=BSANTANDER|58=New Buy BSANTANDER 400000.0 @ 32.6|59=0|60=20150527-19:34:57.247|63=3|100=XSGO|150=5|151=390000|207=XSGO|583=-2a133de1fc8ab088|10=143|8=FIX.4.4|9=350|35=8|34=75|49=LVSSG_ARB|52=20150527-19:34:58.377|56=LVARB|1=591866109-00|6=34.1|11=3a0ed67e0bfab8e0|14=40000|17=33462d01a0714db0|21=1|31=34.1|32=10000|37=-79fb2c0a01ffb0c8|38=440000|39=0|40=2|44=34.21|54=1|55=BSANTANDER|58=New Buy BSANTANDER 400000.0 @ 32.6|59=0|60=20150527-19:34:58.377|63=3|100=XSGO|150=5|151=390000|207=XSGO|583=-2a133de1fc8ab088|10=166|8=FIX.4.4|9=351|35=8|34=76|49=LVSSG_ARB|52=20150527-19:35:06.019|56=LVARB|1=591866109-00|6=34.1|11=3a0ed67e0bfab8e0|14=40000|17=-799eb1ab8ebcb4f9|21=1|31=34.1|32=10000|37=-79fb2c0a01ffb0c8|38=440000|39=0|40=2|44=34.21|54=1|55=BSANTANDER|58=New Buy BSANTANDER 400000.0 @ 32.6|59=0|60=20150527-19:35:06.018|63=3|100=XSGO|150=5|151=390000|207=XSGO|583=-2a133de1fc8ab088|10=203|8=FIX.4.4|9=350|35=8|34=77|49=LVSSG_ARB|52=20150527-19:35:06.524|56=LVARB|1=591866109-00|6=34.1|11=3a0ed67e0bfab8e0|14=40000|17=-904b284fa51bc99|21=1|31=34.1|32=10000|37=-79fb2c0a01ffb0c8|38=440000|39=0|40=2|44=34.21|54=1|55=BSANTANDER|58=New Buy BSANTANDER 400000.0 @ 32.6|59=0|60=20150527-19:35:06.524|63=3|100=XSGO|150=5|151=390000|207=XSGO|583=-2a133de1fc8ab088|10=212|8=FIX.4.4|9=350|35=8|34=78|49=LVSSG_ARB|52=20150527-19:35:32.076|56=LVARB|1=591866109-00|6=34.1|11=3a0ed67e0bfab8e0|14=40000|17=5df14cbf7df6457e|21=1|31=34.1|32=10000|37=-79fb2c0a01ffb0c8|38=440000|39=0|40=2|44=34.21|54=1|55=BSANTANDER|58=New Buy BSANTANDER 400000.0 @ 32.6|59=0|60=20150527-19:35:32.076|63=3|100=XSGO|150=5|151=390000|207=XSGO|583=-2a133de1fc8ab088|10=116|8=FIX.4.4|9=351|35=8|34=79|49=LVSSG_ARB|52=20150527-19:35:34.056|56=LVARB|1=591866109-00|6=34.1|11=3a0ed67e0bfab8e0|14=40000|17=-36be70f493b0b22a|21=1|31=34.1|32=10000|37=-79fb2c0a01ffb0c8|38=440000|39=0|40=2|44=34.22|54=1|55=BSANTANDER|58=New Buy BSANTANDER 400000.0 @ 32.6|59=0|60=20150527-19:35:34.056|63=3|100=XSGO|150=5|151=390000|207=XSGO|583=-2a133de1fc8ab088|10=047|8=FIX.4.4|9=351|35=8|34=80|49=LVSSG_ARB|52=20150527-19:35:47.348|56=LVARB|1=591866109-00|6=34.1|11=3a0ed67e0bfab8e0|14=40000|17=-27b40c8419d9bee0|21=1|31=34.1|32=10000|37=-79fb2c0a01ffb0c8|38=440000|39=0|40=2|44=34.24|54=1|55=BSANTANDER|58=New Buy BSANTANDER 400000.0 @ 32.6|59=0|60=20150527-19:35:47.348|63=3|100=XSGO|150=5|151=390000|207=XSGO|583=-2a133de1fc8ab088|10=068|8=FIX.4.4|9=351|35=8|34=81|49=LVSSG_ARB|52=20150527-19:35:47.399|56=LVARB|1=591866109-00|6=34.1|11=3a0ed67e0bfab8e0|14=40000|17=-519d07b5ed43b42e|21=1|31=34.1|32=10000|37=-79fb2c0a01ffb0c8|38=440000|39=0|40=2|44=34.24|54=1|55=BSANTANDER|58=New Buy BSANTANDER 400000.0 @ 32.6|59=0|60=20150527-19:35:47.399|63=3|100=XSGO|150=5|151=390000|207=XSGO|583=-2a133de1fc8ab088|10=078|8=FIX.4.4|9=351|35=8|34=82|49=LVSSG_ARB|52=20150527-19:35:52.223|56=LVARB|1=591866109-00|6=34.1|11=3a0ed67e0bfab8e0|14=40000|17=-2ead29c72089bc86|21=1|31=34.1|32=10000|37=-79fb2c0a01ffb0c8|38=440000|39=0|40=2|44=34.24|54=1|55=BSANTANDER|58=New Buy BSANTANDER 400000.0 @ 32.6|59=0|60=20150527-19:35:52.223|63=3|100=XSGO|150=5|151=390000|207=XSGO|583=-2a133de1fc8ab088|10=052|8=FIX.4.4|9=342|35=8|34=83|49=LVSSG_ARB|50=XPUS|52=20150527-19:36:14.864|56=LVARB|57=default|1=QXP019284|6=0|11=a624491dd34470c|14=0|17=-1ac49c9a5852b25e|21=1|31=0|32=0|37=61f99f92a7164a8a|38=100|39=4|40=2|44=21.25|54=2|55=BSAC|58=New Sell BSAC 100.0 @ 21.25|59=0|60=20150527-19:36:14.864|63=3|100=SMART|111=100|150=4|151=100|207=SMART|583=-4a42cd4ee29cbab5|10=155|8=FIX.4.4|9=351|35=8|34=84|49=LVSSG_ARB|52=20150527-19:36:18.609|56=LVARB|1=591866109-00|6=34.1|11=3a0ed67e0bfab8e0|14=40000|17=-538374f9a703be9f|21=1|31=34.1|32=10000|37=-79fb2c0a01ffb0c8|38=440000|39=0|40=2|44=34.24|54=1|55=BSANTANDER|58=New Buy BSANTANDER 400000.0 @ 32.6|59=0|60=20150527-19:36:18.609|63=3|100=XSGO|150=5|151=390000|207=XSGO|583=-2a133de1fc8ab088|10=035|8=FIX.4.4|9=350|35=8|34=85|49=LVSSG_ARB|52=20150527-19:36:18.639|56=LVARB|1=591866109-00|6=34.1|11=3a0ed67e0bfab8e0|14=40000|17=7eed359d6799487a|21=1|31=34.1|32=10000|37=-79fb2c0a01ffb0c8|38=440000|39=0|40=2|44=34.24|54=1|55=BSANTANDER|58=New Buy BSANTANDER 400000.0 @ 32.6|59=0|60=20150527-19:36:18.639|63=3|100=XSGO|150=5|151=390000|207=XSGO|583=-2a133de1fc8ab088|10=011|8=FIX.4.4|9=350|35=8|34=86|49=LVSSG_ARB|52=20150527-19:36:23.614|56=LVARB|1=591866109-00|6=34.1|11=3a0ed67e0bfab8e0|14=40000|17=7a124eb18c934721|21=1|31=34.1|32=10000|37=-79fb2c0a01ffb0c8|38=440000|39=0|40=2|44=34.24|54=1|55=BSANTANDER|58=New Buy BSANTANDER 400000.0 @ 32.6|59=0|60=20150527-19:36:23.614|63=3|100=XSGO|150=5|151=390000|207=XSGO|583=-2a133de1fc8ab088|10=165|8=FIX.4.4|9=327|35=8|34=87|49=LVSSG_ARB|52=20150527-19:36:24.054|56=LVARB|1=109976|6=0|11=7f030e13ca304b51|14=0|17=-4c82b30a9b63bfbf|21=1|31=0|32=0|37=304cf742858644f8|38=10000|39=0|40=2|44=34.1|54=2|55=BSANTANDER|58=New Sell BSANTANDER 10000.0 @ 34.1|59=0|60=20150527-19:36:24.053|63=3|100=XSGO|150=0|151=10000|207=XSGO|583=-1042c7b7079dbe39|10=014|8=FIX.4.4|9=336|35=8|34=88|49=LVSSG_ARB|52=20150527-19:36:26.168|56=LVARB|1=109976|6=34.1|11=7f030e13ca304b51|14=10000|17=5fbfd5a54d5344f5|21=1|31=34.1|32=10000|37=304cf742858644f8|38=10000|39=2|40=2|44=34.1|54=2|55=BSANTANDER|58=New Sell BSANTANDER 10000.0 @ 34.1|59=0|60=20150527-19:36:24.053|63=3|100=XSGO|150=F|151=0|207=XSGO|583=-1042c7b7079dbe39|10=201|8=FIX.4.4|9=350|35=8|34=89|49=LVSSG_ARB|52=20150527-19:36:26.168|56=LVARB|1=591866109-00|6=34.1|11=3a0ed67e0bfab8e0|14=50000|17=210d4556091d4d10|21=1|31=34.1|32=10000|37=-79fb2c0a01ffb0c8|38=440000|39=1|40=2|44=34.24|54=1|55=BSANTANDER|58=New Buy BSANTANDER 400000.0 @ 32.6|59=0|60=20150527-19:36:23.614|63=3|100=XSGO|150=F|151=390000|207=XSGO|583=-2a133de1fc8ab088|10=136|8=FIX.4.4|9=342|35=8|34=90|49=LVSSG_ARB|52=20150527-19:36:27.993|56=LVARB|1=109976|6=34.1|11=7f030e13ca304b51|14=20000|17=-62724807debfb3e6|21=1|31=34.1|32=10000|37=304cf742858644f8|38=10000|39=2|40=2|44=34.1|54=2|55=BSANTANDER|58=New Sell BSANTANDER 10000.0 @ 34.1|59=0|60=20150527-19:36:24.053|63=3|100=XSGO|150=F|151=-10000|207=XSGO|583=-1042c7b7079dbe39|10=178|8=FIX.4.4|9=351|35=8|34=91|49=LVSSG_ARB|52=20150527-19:36:27.994|56=LVARB|1=591866109-00|6=34.1|11=3a0ed67e0bfab8e0|14=60000|17=-713b4f44ee19b9d0|21=1|31=34.1|32=10000|37=-79fb2c0a01ffb0c8|38=440000|39=1|40=2|44=34.24|54=1|55=BSANTANDER|58=New Buy BSANTANDER 400000.0 @ 32.6|59=0|60=20150527-19:36:23.614|63=3|100=XSGO|150=F|151=380000|207=XSGO|583=-2a133de1fc8ab088|10=087|8=FIX.4.4|9=341|35=8|34=92|49=LVSSG_ARB|52=20150527-19:36:27.995|56=LVARB|1=109976|6=34.1|11=7f030e13ca304b51|14=30000|17=-93882bbf27bb9a9|21=1|31=34.1|32=10000|37=304cf742858644f8|38=10000|39=2|40=2|44=34.1|54=2|55=BSANTANDER|58=New Sell BSANTANDER 10000.0 @ 34.1|59=0|60=20150527-19:36:24.053|63=3|100=XSGO|150=F|151=-20000|207=XSGO|583=-1042c7b7079dbe39|10=138|8=FIX.4.4|9=350|35=8|34=93|49=LVSSG_ARB|52=20150527-19:36:27.995|56=LVARB|1=591866109-00|6=34.1|11=3a0ed67e0bfab8e0|14=70000|17=6cc4ea55e5334777|21=1|31=34.1|32=10000|37=-79fb2c0a01ffb0c8|38=440000|39=1|40=2|44=34.24|54=1|55=BSANTANDER|58=New Buy BSANTANDER 400000.0 @ 32.6|59=0|60=20150527-19:36:23.614|63=3|100=XSGO|150=F|151=370000|207=XSGO|583=-2a133de1fc8ab088|10=003|8=FIX.4.4|9=341|35=8|34=94|49=LVSSG_ARB|52=20150527-19:36:27.995|56=LVARB|1=109976|6=34.1|11=7f030e13ca304b51|14=40000|17=4e63619df3c4467f|21=1|31=34.1|32=10000|37=304cf742858644f8|38=10000|39=2|40=2|44=34.1|54=2|55=BSANTANDER|58=New Sell BSANTANDER 10000.0 @ 34.1|59=0|60=20150527-19:36:24.053|63=3|100=XSGO|150=F|151=-30000|207=XSGO|583=-1042c7b7079dbe39|10=102|8=FIX.4.4|9=350|35=8|34=95|49=LVSSG_ARB|52=20150527-19:36:27.996|56=LVARB|1=591866109-00|6=34.1|11=3a0ed67e0bfab8e0|14=80000|17=52c1753e1af84dde|21=1|31=34.1|32=10000|37=-79fb2c0a01ffb0c8|38=440000|39=1|40=2|44=34.24|54=1|55=BSANTANDER|58=New Buy BSANTANDER 400000.0 @ 32.6|59=0|60=20150527-19:36:23.614|63=3|100=XSGO|150=F|151=360000|207=XSGO|583=-2a133de1fc8ab088|10=093|8=FIX.4.4|9=341|35=8|34=96|49=LVSSG_ARB|52=20150527-19:36:27.996|56=LVARB|1=109976|6=34.1|11=7f030e13ca304b51|14=50000|17=410d2f66b0e74d92|21=1|31=34.1|32=10000|37=304cf742858644f8|38=10000|39=2|40=2|44=34.1|54=2|55=BSANTANDER|58=New Sell BSANTANDER 10000.0 @ 34.1|59=0|60=20150527-19:36:24.053|63=3|100=XSGO|150=F|151=-40000|207=XSGO|583=-1042c7b7079dbe39|10=092|8=FIX.4.4|9=351|35=8|34=97|49=LVSSG_ARB|52=20150527-19:36:27.996|56=LVARB|1=591866109-00|6=34.1|11=3a0ed67e0bfab8e0|14=90000|17=-39ac3293d709b635|21=1|31=34.1|32=10000|37=-79fb2c0a01ffb0c8|38=440000|39=1|40=2|44=34.24|54=1|55=BSANTANDER|58=New Buy BSANTANDER 400000.0 @ 32.6|59=0|60=20150527-19:36:23.614|63=3|100=XSGO|150=F|151=350000|207=XSGO|583=-2a133de1fc8ab088|10=002|8=FIX.4.4|9=342|35=8|34=98|49=LVSSG_ARB|52=20150527-19:36:27.997|56=LVARB|1=109976|6=34.1|11=7f030e13ca304b51|14=60000|17=-4e24f76cd3d2b1b0|21=1|31=34.1|32=10000|37=304cf742858644f8|38=10000|39=2|40=2|44=34.1|54=2|55=BSANTANDER|58=New Sell BSANTANDER 10000.0 @ 34.1|59=0|60=20150527-19:36:24.053|63=3|100=XSGO|150=F|151=-50000|207=XSGO|583=-1042c7b7079dbe39|10=232|8=FIX.4.4|9=351|35=8|34=99|49=LVSSG_ARB|52=20150527-19:36:27.997|56=LVARB|1=591866109-00|6=34.1|11=3a0ed67e0bfab8e0|14=100000|17=-867dc2bbef0b927|21=1|31=34.1|32=10000|37=-79fb2c0a01ffb0c8|38=440000|39=1|40=2|44=34.24|54=1|55=BSANTANDER|58=New Buy BSANTANDER 400000.0 @ 32.6|59=0|60=20150527-19:36:23.614|63=3|100=XSGO|150=F|151=340000|207=XSGO|583=-2a133de1fc8ab088|10=136|8=FIX.4.4|9=342|35=8|34=100|49=LVSSG_ARB|52=20150527-19:36:28.002|56=LVARB|1=109976|6=34.1|11=7f030e13ca304b51|14=70000|17=1d18e82c524d4849|21=1|31=34.1|32=10000|37=304cf742858644f8|38=10000|39=2|40=2|44=34.1|54=2|55=BSANTANDER|58=New Sell BSANTANDER 10000.0 @ 34.1|59=0|60=20150527-19:36:24.053|63=3|100=XSGO|150=F|151=-60000|207=XSGO|583=-1042c7b7079dbe39|10=072|8=FIX.4.4|9=352|35=8|34=101|49=LVSSG_ARB|52=20150527-19:36:28.002|56=LVARB|1=591866109-00|6=34.1|11=3a0ed67e0bfab8e0|14=110000|17=-86e7600d56ab3b8|21=1|31=34.1|32=10000|37=-79fb2c0a01ffb0c8|38=440000|39=1|40=2|44=34.24|54=1|55=BSANTANDER|58=New Buy BSANTANDER 400000.0 @ 32.6|59=0|60=20150527-19:36:23.614|63=3|100=XSGO|150=F|151=330000|207=XSGO|583=-2a133de1fc8ab088|10=049|8=FIX.4.4|9=342|35=8|34=102|49=LVSSG_ARB|52=20150527-19:36:28.003|56=LVARB|1=109976|6=34.1|11=7f030e13ca304b51|14=80000|17=1269321a75144b3a|21=1|31=34.1|32=10000|37=304cf742858644f8|38=10000|39=2|40=2|44=34.1|54=2|55=BSANTANDER|58=New Sell BSANTANDER 10000.0 @ 34.1|59=0|60=20150527-19:36:24.053|63=3|100=XSGO|150=F|151=-70000|207=XSGO|583=-1042c7b7079dbe39|10=009|8=FIX.4.4|9=353|35=8|34=103|49=LVSSG_ARB|52=20150527-19:36:28.003|56=LVARB|1=591866109-00|6=34.1|11=3a0ed67e0bfab8e0|14=120000|17=-13017407f8c6b1ea|21=1|31=34.1|32=10000|37=-79fb2c0a01ffb0c8|38=440000|39=1|40=2|44=34.24|54=1|55=BSANTANDER|58=New Buy BSANTANDER 400000.0 @ 32.6|59=0|60=20150527-19:36:23.614|63=3|100=XSGO|150=F|151=320000|207=XSGO|583=-2a133de1fc8ab088|10=093|8=FIX.4.4|9=342|35=8|34=104|49=LVSSG_ARB|52=20150527-19:36:28.003|56=LVARB|1=109976|6=34.1|11=7f030e13ca304b51|14=90000|17=7c848c74058c49ea|21=1|31=34.1|32=10000|37=304cf742858644f8|38=10000|39=2|40=2|44=34.1|54=2|55=BSANTANDER|58=New Sell BSANTANDER 10000.0 @ 34.1|59=0|60=20150527-19:36:24.053|63=3|100=XSGO|150=F|151=-80000|207=XSGO|583=-1042c7b7079dbe39|10=136|8=FIX.4.4|9=353|35=8|34=105|49=LVSSG_ARB|52=20150527-19:36:28.003|56=LVARB|1=591866109-00|6=34.1|11=3a0ed67e0bfab8e0|14=130000|17=-30a0705a4af3b99f|21=1|31=34.1|32=10000|37=-79fb2c0a01ffb0c8|38=440000|39=1|40=2|44=34.24|54=1|55=BSANTANDER|58=New Buy BSANTANDER 400000.0 @ 32.6|59=0|60=20150527-19:36:23.614|63=3|100=XSGO|150=F|151=310000|207=XSGO|583=-2a133de1fc8ab088|10=145|8=FIX.4.4|9=344|35=8|34=106|49=LVSSG_ARB|52=20150527-19:36:28.004|56=LVARB|1=109976|6=34.1|11=7f030e13ca304b51|14=100000|17=-6ea9eef092abbbc2|21=1|31=34.1|32=10000|37=304cf742858644f8|38=10000|39=2|40=2|44=34.1|54=2|55=BSANTANDER|58=New Sell BSANTANDER 10000.0 @ 34.1|59=0|60=20150527-19:36:24.053|63=3|100=XSGO|150=F|151=-90000|207=XSGO|583=-1042c7b7079dbe39|10=192|8=FIX.4.4|9=352|35=8|34=107|49=LVSSG_ARB|52=20150527-19:36:28.004|56=LVARB|1=591866109-00|6=34.1|11=3a0ed67e0bfab8e0|14=140000|17=181db02a4d494bcc|21=1|31=34.1|32=10000|37=-79fb2c0a01ffb0c8|38=440000|39=1|40=2|44=34.24|54=1|55=BSANTANDER|58=New Buy BSANTANDER 400000.0 @ 32.6|59=0|60=20150527-19:36:23.614|63=3|100=XSGO|150=F|151=300000|207=XSGO|583=-2a133de1fc8ab088|10=145|8=FIX.4.4|9=345|35=8|34=108|49=LVSSG_ARB|52=20150527-19:36:28.004|56=LVARB|1=109976|6=34.1|11=7f030e13ca304b51|14=110000|17=-2d6439a6883ebe1d|21=1|31=34.1|32=10000|37=304cf742858644f8|38=10000|39=2|40=2|44=34.1|54=2|55=BSANTANDER|58=New Sell BSANTANDER 10000.0 @ 34.1|59=0|60=20150527-19:36:24.053|63=3|100=XSGO|150=F|151=-100000|207=XSGO|583=-1042c7b7079dbe39|10=055|8=FIX.4.4|9=352|35=8|34=109|49=LVSSG_ARB|52=20150527-19:36:28.004|56=LVARB|1=591866109-00|6=34.1|11=3a0ed67e0bfab8e0|14=150000|17=6ab48cd677004070|21=1|31=34.1|32=10000|37=-79fb2c0a01ffb0c8|38=440000|39=1|40=2|44=34.24|54=1|55=BSANTANDER|58=New Buy BSANTANDER 400000.0 @ 32.6|59=0|60=20150527-19:36:23.614|63=3|100=XSGO|150=F|151=290000|207=XSGO|583=-2a133de1fc8ab088|10=019|8=FIX.4.4|9=344|35=8|34=110|49=LVSSG_ARB|52=20150527-19:36:28.005|56=LVARB|1=109976|6=34.1|11=7f030e13ca304b51|14=120000|17=521b4eadbbdc43e7|21=1|31=34.1|32=10000|37=304cf742858644f8|38=10000|39=2|40=2|44=34.1|54=2|55=BSANTANDER|58=New Sell BSANTANDER 10000.0 @ 34.1|59=0|60=20150527-19:36:24.053|63=3|100=XSGO|150=F|151=-110000|207=XSGO|583=-1042c7b7079dbe39|10=132|8=FIX.4.4|9=352|35=8|34=111|49=LVSSG_ARB|52=20150527-19:36:28.005|56=LVARB|1=591866109-00|6=34.1|11=3a0ed67e0bfab8e0|14=160000|17=162a207cf59246af|21=1|31=34.1|32=10000|37=-79fb2c0a01ffb0c8|38=440000|39=1|40=2|44=34.24|54=1|55=BSANTANDER|58=New Buy BSANTANDER 400000.0 @ 32.6|59=0|60=20150527-19:36:23.614|63=3|100=XSGO|150=F|151=280000|207=XSGO|583=-2a133de1fc8ab088|10=063|8=FIX.4.4|9=345|35=8|34=112|49=LVSSG_ARB|52=20150527-19:36:28.005|56=LVARB|1=109976|6=34.1|11=7f030e13ca304b51|14=130000|17=-5ce8ad1fe2e0bfb4|21=1|31=34.1|32=10000|37=304cf742858644f8|38=10000|39=2|40=2|44=34.1|54=2|55=BSANTANDER|58=New Sell BSANTANDER 10000.0 @ 34.1|59=0|60=20150527-19:36:24.053|63=3|100=XSGO|150=F|151=-120000|207=XSGO|583=-1042c7b7079dbe39|10=235|8=FIX.4.4|9=352|35=8|34=113|49=LVSSG_ARB|52=20150527-19:36:28.005|56=LVARB|1=591866109-00|6=34.1|11=3a0ed67e0bfab8e0|14=170000|17=322693be2d454678|21=1|31=34.1|32=10000|37=-79fb2c0a01ffb0c8|38=440000|39=1|40=2|44=34.24|54=1|55=BSANTANDER|58=New Buy BSANTANDER 400000.0 @ 32.6|59=0|60=20150527-19:36:23.614|63=3|100=XSGO|150=F|151=270000|207=XSGO|583=-2a133de1fc8ab088|10=236|8=FIX.4.4|9=343|35=8|34=114|49=LVSSG_ARB|52=20150527-19:36:28.006|56=LVARB|1=109976|6=34.1|11=7f030e13ca304b51|14=140000|17=da2954f92914d0c|21=1|31=34.1|32=10000|37=304cf742858644f8|38=10000|39=2|40=2|44=34.1|54=2|55=BSANTANDER|58=New Sell BSANTANDER 10000.0 @ 34.1|59=0|60=20150527-19:36:24.053|63=3|100=XSGO|150=F|151=-130000|207=XSGO|583=-1042c7b7079dbe39|10=165|8=FIX.4.4|9=353|35=8|34=115|49=LVSSG_ARB|52=20150527-19:36:28.006|56=LVARB|1=591866109-00|6=34.1|11=3a0ed67e0bfab8e0|14=180000|17=-763a8508a7b9b603|21=1|31=34.1|32=10000|37=-79fb2c0a01ffb0c8|38=440000|39=1|40=2|44=34.24|54=1|55=BSANTANDER|58=New Buy BSANTANDER 400000.0 @ 32.6|59=0|60=20150527-19:36:23.614|63=3|100=XSGO|150=F|151=260000|207=XSGO|583=-2a133de1fc8ab088|10=073|8=FIX.4.4|9=344|35=8|34=116|49=LVSSG_ARB|52=20150527-19:36:28.006|56=LVARB|1=109976|6=34.1|11=7f030e13ca304b51|14=150000|17=-cb8cc6edef6b0f2|21=1|31=34.1|32=10000|37=304cf742858644f8|38=10000|39=2|40=2|44=34.1|54=2|55=BSANTANDER|58=New Sell BSANTANDER 10000.0 @ 34.1|59=0|60=20150527-19:36:24.053|63=3|100=XSGO|150=F|151=-140000|207=XSGO|583=-1042c7b7079dbe39|10=197|8=FIX.4.4|9=352|35=8|34=117|49=LVSSG_ARB|52=20150527-19:36:28.006|56=LVARB|1=591866109-00|6=34.1|11=3a0ed67e0bfab8e0|14=190000|17=2550fda3d5044611|21=1|31=34.1|32=10000|37=-79fb2c0a01ffb0c8|38=440000|39=1|40=2|44=34.24|54=1|55=BSANTANDER|58=New Buy BSANTANDER 400000.0 @ 32.6|59=0|60=20150527-19:36:23.614|63=3|100=XSGO|150=F|151=250000|207=XSGO|583=-2a133de1fc8ab088|10=012|8=FIX.4.4|9=345|35=8|34=118|49=LVSSG_ARB|52=20150527-19:36:28.006|56=LVARB|1=109976|6=34.1|11=7f030e13ca304b51|14=160000|17=-194c877a62e4b898|21=1|31=34.1|32=10000|37=304cf742858644f8|38=10000|39=2|40=2|44=34.1|54=2|55=BSANTANDER|58=New Sell BSANTANDER 10000.0 @ 34.1|59=0|60=20150527-19:36:24.053|63=3|100=XSGO|150=F|151=-150000|207=XSGO|583=-1042c7b7079dbe39|10=241|8=FIX.4.4|9=352|35=8|34=119|49=LVSSG_ARB|52=20150527-19:36:28.007|56=LVARB|1=591866109-00|6=34.1|11=3a0ed67e0bfab8e0|14=200000|17=5d77098a0f274fef|21=1|31=34.1|32=10000|37=-79fb2c0a01ffb0c8|38=440000|39=1|40=2|44=34.24|54=1|55=BSANTANDER|58=New Buy BSANTANDER 400000.0 @ 32.6|59=0|60=20150527-19:36:23.614|63=3|100=XSGO|150=F|151=240000|207=XSGO|583=-2a133de1fc8ab088|10=128|8=FIX.4.4|9=344|35=8|34=120|49=LVSSG_ARB|52=20150527-19:36:28.009|56=LVARB|1=109976|6=34.1|11=7f030e13ca304b51|14=170000|17=287dac26bbc642a7|21=1|31=34.1|32=10000|37=304cf742858644f8|38=10000|39=2|40=2|44=34.1|54=2|55=BSANTANDER|58=New Sell BSANTANDER 10000.0 @ 34.1|59=0|60=20150527-19:36:24.053|63=3|100=XSGO|150=F|151=-160000|207=XSGO|583=-1042c7b7079dbe39|10=057|8=FIX.4.4|9=353|35=8|34=121|49=LVSSG_ARB|52=20150527-19:36:28.009|56=LVARB|1=591866109-00|6=34.1|11=3a0ed67e0bfab8e0|14=210000|17=-7c2c1c772c59b1db|21=1|31=34.1|32=10000|37=-79fb2c0a01ffb0c8|38=440000|39=1|40=2|44=34.24|54=1|55=BSANTANDER|58=New Buy BSANTANDER 400000.0 @ 32.6|59=0|60=20150527-19:36:23.614|63=3|100=XSGO|150=F|151=230000|207=XSGO|583=-2a133de1fc8ab088|10=201|8=FIX.4.4|9=343|35=8|34=122|49=LVSSG_ARB|52=20150527-19:36:28.012|56=LVARB|1=109976|6=34.1|11=7f030e13ca304b51|14=180000|17=2c138e943064632|21=1|31=34.1|32=10000|37=304cf742858644f8|38=10000|39=2|40=2|44=34.1|54=2|55=BSANTANDER|58=New Sell BSANTANDER 10000.0 @ 34.1|59=0|60=20150527-19:36:24.053|63=3|100=XSGO|150=F|151=-170000|207=XSGO|583=-1042c7b7079dbe39|10=021|8=FIX.4.4|9=352|35=8|34=123|49=LVSSG_ARB|52=20150527-19:36:28.013|56=LVARB|1=591866109-00|6=34.1|11=3a0ed67e0bfab8e0|14=220000|17=5e4919f1667f40f0|21=1|31=34.1|32=10000|37=-79fb2c0a01ffb0c8|38=440000|39=1|40=2|44=34.24|54=1|55=BSANTANDER|58=New Buy BSANTANDER 400000.0 @ 32.6|59=0|60=20150527-19:36:23.614|63=3|100=XSGO|150=F|151=220000|207=XSGO|583=-2a133de1fc8ab088|10=022|8=FIX.4.4|9=344|35=8|34=124|49=LVSSG_ARB|52=20150527-19:36:28.013|56=LVARB|1=109976|6=34.1|11=7f030e13ca304b51|14=190000|17=587c5e81b7f74018|21=1|31=34.1|32=10000|37=304cf742858644f8|38=10000|39=2|40=2|44=34.1|54=2|55=BSANTANDER|58=New Sell BSANTANDER 10000.0 @ 34.1|59=0|60=20150527-19:36:24.053|63=3|100=XSGO|150=F|151=-180000|207=XSGO|583=-1042c7b7079dbe39|10=189|8=FIX.4.4|9=353|35=8|34=125|49=LVSSG_ARB|52=20150527-19:36:28.013|56=LVARB|1=591866109-00|6=34.1|11=3a0ed67e0bfab8e0|14=230000|17=-6c6f08f086e3b61d|21=1|31=34.1|32=10000|37=-79fb2c0a01ffb0c8|38=440000|39=1|40=2|44=34.24|54=1|55=BSANTANDER|58=New Buy BSANTANDER 400000.0 @ 32.6|59=0|60=20150527-19:36:23.614|63=3|100=XSGO|150=F|151=210000|207=XSGO|583=-2a133de1fc8ab088|10=161|8=FIX.4.4|9=345|35=8|34=126|49=LVSSG_ARB|52=20150527-19:36:28.014|56=LVARB|1=109976|6=34.1|11=7f030e13ca304b51|14=200000|17=-721cc166e759bb58|21=1|31=34.1|32=10000|37=304cf742858644f8|38=10000|39=2|40=2|44=34.1|54=2|55=BSANTANDER|58=New Sell BSANTANDER 10000.0 @ 34.1|59=0|60=20150527-19:36:24.053|63=3|100=XSGO|150=F|151=-190000|207=XSGO|583=-1042c7b7079dbe39|10=018|8=FIX.4.4|9=353|35=8|34=127|49=LVSSG_ARB|52=20150527-19:36:28.014|56=LVARB|1=591866109-00|6=34.1|11=3a0ed67e0bfab8e0|14=240000|17=-3724cc6647bbba31|21=1|31=34.1|32=10000|37=-79fb2c0a01ffb0c8|38=440000|39=1|40=2|44=34.24|54=1|55=BSANTANDER|58=New Buy BSANTANDER 400000.0 @ 32.6|59=0|60=20150527-19:36:23.614|63=3|100=XSGO|150=F|151=200000|207=XSGO|583=-2a133de1fc8ab088|10=150|8=FIX.4.4|9=345|35=8|34=128|49=LVSSG_ARB|52=20150527-19:36:28.014|56=LVARB|1=109976|6=34.1|11=7f030e13ca304b51|14=210000|17=-7b9a1e8a1da4bb71|21=1|31=34.1|32=10000|37=304cf742858644f8|38=10000|39=2|40=2|44=34.1|54=2|55=BSANTANDER|58=New Sell BSANTANDER 10000.0 @ 34.1|59=0|60=20150527-19:36:24.053|63=3|100=XSGO|150=F|151=-200000|207=XSGO|583=-1042c7b7079dbe39|10=141|8=FIX.4.4|9=352|35=8|34=129|49=LVSSG_ARB|52=20150527-19:36:28.014|56=LVARB|1=591866109-00|6=34.1|11=3a0ed67e0bfab8e0|14=250000|17=-136bbd6373eb847|21=1|31=34.1|32=10000|37=-79fb2c0a01ffb0c8|38=440000|39=1|40=2|44=34.24|54=1|55=BSANTANDER|58=New Buy BSANTANDER 400000.0 @ 32.6|59=0|60=20150527-19:36:23.614|63=3|100=XSGO|150=F|151=190000|207=XSGO|583=-2a133de1fc8ab088|10=071|8=FIX.4.4|9=344|35=8|34=130|49=LVSSG_ARB|52=20150527-19:36:28.015|56=LVARB|1=109976|6=34.1|11=7f030e13ca304b51|14=220000|17=77b757678bda4cab|21=1|31=34.1|32=10000|37=304cf742858644f8|38=10000|39=2|40=2|44=34.1|54=2|55=BSANTANDER|58=New Sell BSANTANDER 10000.0 @ 34.1|59=0|60=20150527-19:36:24.053|63=3|100=XSGO|150=F|151=-210000|207=XSGO|583=-1042c7b7079dbe39|10=060|8=FIX.4.4|9=352|35=8|34=131|49=LVSSG_ARB|52=20150527-19:36:28.015|56=LVARB|1=591866109-00|6=34.1|11=3a0ed67e0bfab8e0|14=260000|17=534d7428c6fb487b|21=1|31=34.1|32=10000|37=-79fb2c0a01ffb0c8|38=440000|39=1|40=2|44=34.24|54=1|55=BSANTANDER|58=New Buy BSANTANDER 400000.0 @ 32.6|59=0|60=20150527-19:36:23.614|63=3|100=XSGO|150=F|151=180000|207=XSGO|583=-2a133de1fc8ab088|10=080|8=FIX.4.4|9=344|35=8|34=132|49=LVSSG_ARB|52=20150527-19:36:28.016|56=LVARB|1=109976|6=34.1|11=7f030e13ca304b51|14=230000|17=169b4cd33d6f4d31|21=1|31=34.1|32=10000|37=304cf742858644f8|38=10000|39=2|40=2|44=34.1|54=2|55=BSANTANDER|58=New Sell BSANTANDER 10000.0 @ 34.1|59=0|60=20150527-19:36:24.053|63=3|100=XSGO|150=F|151=-220000|207=XSGO|583=-1042c7b7079dbe39|10=007|8=FIX.4.4|9=352|35=8|34=133|49=LVSSG_ARB|52=20150527-19:36:28.016|56=LVARB|1=591866109-00|6=34.1|11=3a0ed67e0bfab8e0|14=270000|17=2faecb314d914f29|21=1|31=34.1|32=10000|37=-79fb2c0a01ffb0c8|38=440000|39=1|40=2|44=34.24|54=1|55=BSANTANDER|58=New Buy BSANTANDER 400000.0 @ 32.6|59=0|60=20150527-19:36:23.614|63=3|100=XSGO|150=F|151=170000|207=XSGO|583=-2a133de1fc8ab088|10=166|8=FIX.4.4|9=344|35=8|34=134|49=LVSSG_ARB|52=20150527-19:36:28.016|56=LVARB|1=109976|6=34.1|11=7f030e13ca304b51|14=240000|17=475751c170a94115|21=1|31=34.1|32=10000|37=304cf742858644f8|38=10000|39=2|40=2|44=34.1|54=2|55=BSANTANDER|58=New Sell BSANTANDER 10000.0 @ 34.1|59=0|60=20150527-19:36:24.053|63=3|100=XSGO|150=F|151=-230000|207=XSGO|583=-1042c7b7079dbe39|10=073|8=FIX.4.4|9=352|35=8|34=135|49=LVSSG_ARB|52=20150527-19:36:28.016|56=LVARB|1=591866109-00|6=34.1|11=3a0ed67e0bfab8e0|14=280000|17=-727f9005346b48d|21=1|31=34.1|32=10000|37=-79fb2c0a01ffb0c8|38=440000|39=1|40=2|44=34.24|54=1|55=BSANTANDER|58=New Buy BSANTANDER 400000.0 @ 32.6|59=0|60=20150527-19:36:23.614|63=3|100=XSGO|150=F|151=160000|207=XSGO|583=-2a133de1fc8ab088|10=234|8=FIX.4.4|9=344|35=8|34=136|49=LVSSG_ARB|52=20150527-19:36:28.017|56=LVARB|1=109976|6=34.1|11=7f030e13ca304b51|14=250000|17=716c71c348cd4e23|21=1|31=34.1|32=10000|37=304cf742858644f8|38=10000|39=2|40=2|44=34.1|54=2|55=BSANTANDER|58=New Sell BSANTANDER 10000.0 @ 34.1|59=0|60=20150527-19:36:24.053|63=3|100=XSGO|150=F|151=-240000|207=XSGO|583=-1042c7b7079dbe39|10=225|8=FIX.4.4|9=352|35=8|34=137|49=LVSSG_ARB|52=20150527-19:36:28.018|56=LVARB|1=591866109-00|6=34.1|11=3a0ed67e0bfab8e0|14=290000|17=4f0d455210804a7f|21=1|31=34.1|32=10000|37=-79fb2c0a01ffb0c8|38=440000|39=1|40=2|44=34.24|54=1|55=BSANTANDER|58=New Buy BSANTANDER 400000.0 @ 32.6|59=0|60=20150527-19:36:23.614|63=3|100=XSGO|150=F|151=150000|207=XSGO|583=-2a133de1fc8ab088|10=023|8=FIX.4.4|9=343|35=8|34=138|49=LVSSG_ARB|52=20150527-19:36:28.018|56=LVARB|1=109976|6=34.1|11=7f030e13ca304b51|14=260000|17=8e06a4d7fe840b7|21=1|31=34.1|32=10000|37=304cf742858644f8|38=10000|39=2|40=2|44=34.1|54=2|55=BSANTANDER|58=New Sell BSANTANDER 10000.0 @ 34.1|59=0|60=20150527-19:36:24.053|63=3|100=XSGO|150=F|151=-250000|207=XSGO|583=-1042c7b7079dbe39|10=232|8=FIX.4.4|9=352|35=8|34=139|49=LVSSG_ARB|52=20150527-19:36:28.018|56=LVARB|1=591866109-00|6=34.1|11=3a0ed67e0bfab8e0|14=300000|17=6c2e02b5fec04283|21=1|31=34.1|32=10000|37=-79fb2c0a01ffb0c8|38=440000|39=1|40=2|44=34.24|54=1|55=BSANTANDER|58=New Buy BSANTANDER 400000.0 @ 32.6|59=0|60=20150527-19:36:23.614|63=3|100=XSGO|150=F|151=140000|207=XSGO|583=-2a133de1fc8ab088|10=111|8=FIX.4.4|9=344|35=8|34=140|49=LVSSG_ARB|52=20150527-19:36:28.020|56=LVARB|1=109976|6=34.1|11=7f030e13ca304b51|14=270000|17=1b112ef41bf9486d|21=1|31=34.1|32=10000|37=304cf742858644f8|38=10000|39=2|40=2|44=34.1|54=2|55=BSANTANDER|58=New Sell BSANTANDER 10000.0 @ 34.1|59=0|60=20150527-19:36:24.053|63=3|100=XSGO|150=F|151=-260000|207=XSGO|583=-1042c7b7079dbe39|10=008|8=FIX.4.4|9=352|35=8|34=141|49=LVSSG_ARB|52=20150527-19:36:28.020|56=LVARB|1=591866109-00|6=34.1|11=3a0ed67e0bfab8e0|14=310000|17=3b7d9f3d4a814b8c|21=1|31=34.1|32=10000|37=-79fb2c0a01ffb0c8|38=440000|39=1|40=2|44=34.24|54=1|55=BSANTANDER|58=New Buy BSANTANDER 400000.0 @ 32.6|59=0|60=20150527-19:36:23.614|63=3|100=XSGO|150=F|151=130000|207=XSGO|583=-2a133de1fc8ab088|10=158|8=FIX.4.4|9=345|35=8|34=142|49=LVSSG_ARB|52=20150527-19:36:28.020|56=LVARB|1=109976|6=34.1|11=7f030e13ca304b51|14=280000|17=-55381890cc97b0ec|21=1|31=34.1|32=10000|37=304cf742858644f8|38=10000|39=2|40=2|44=34.1|54=2|55=BSANTANDER|58=New Sell BSANTANDER 10000.0 @ 34.1|59=0|60=20150527-19:36:24.053|63=3|100=XSGO|150=F|151=-270000|207=XSGO|583=-1042c7b7079dbe39|10=019|8=FIX.4.4|9=352|35=8|34=143|49=LVSSG_ARB|52=20150527-19:36:28.020|56=LVARB|1=591866109-00|6=34.1|11=3a0ed67e0bfab8e0|14=320000|17=1da45a6fba3e45f4|21=1|31=34.1|32=10000|37=-79fb2c0a01ffb0c8|38=440000|39=1|40=2|44=34.24|54=1|55=BSANTANDER|58=New Buy BSANTANDER 400000.0 @ 32.6|59=0|60=20150527-19:36:23.614|63=3|100=XSGO|150=F|151=120000|207=XSGO|583=-2a133de1fc8ab088|10=197|8=FIX.4.4|9=344|35=8|34=144|49=LVSSG_ARB|52=20150527-19:36:28.021|56=LVARB|1=109976|6=34.1|11=7f030e13ca304b51|14=290000|17=-18e1d36953dbd71|21=1|31=34.1|32=10000|37=304cf742858644f8|38=10000|39=2|40=2|44=34.1|54=2|55=BSANTANDER|58=New Sell BSANTANDER 10000.0 @ 34.1|59=0|60=20150527-19:36:24.053|63=3|100=XSGO|150=F|151=-280000|207=XSGO|583=-1042c7b7079dbe39|10=223|8=FIX.4.4|9=353|35=8|34=145|49=LVSSG_ARB|52=20150527-19:36:28.021|56=LVARB|1=591866109-00|6=34.1|11=3a0ed67e0bfab8e0|14=330000|17=-312d81de225ab449|21=1|31=34.1|32=10000|37=-79fb2c0a01ffb0c8|38=440000|39=1|40=2|44=34.24|54=1|55=BSANTANDER|58=New Buy BSANTANDER 400000.0 @ 32.6|59=0|60=20150527-19:36:23.614|63=3|100=XSGO|150=F|151=110000|207=XSGO|583=-2a133de1fc8ab088|10=101|8=FIX.4.4|9=344|35=8|34=146|49=LVSSG_ARB|52=20150527-19:36:28.021|56=LVARB|1=109976|6=34.1|11=7f030e13ca304b51|14=300000|17=548896b402a04a11|21=1|31=34.1|32=10000|37=304cf742858644f8|38=10000|39=2|40=2|44=34.1|54=2|55=BSANTANDER|58=New Sell BSANTANDER 10000.0 @ 34.1|59=0|60=20150527-19:36:24.053|63=3|100=XSGO|150=F|151=-290000|207=XSGO|583=-1042c7b7079dbe39|10=118|8=FIX.4.4|9=351|35=8|34=147|49=LVSSG_ARB|52=20150527-19:36:28.022|56=LVARB|1=591866109-00|6=34.1|11=3a0ed67e0bfab8e0|14=340000|17=8eb69ff084343cc|21=1|31=34.1|32=10000|37=-79fb2c0a01ffb0c8|38=440000|39=1|40=2|44=34.24|54=1|55=BSANTANDER|58=New Buy BSANTANDER 400000.0 @ 32.6|59=0|60=20150527-19:36:23.614|63=3|100=XSGO|150=F|151=100000|207=XSGO|583=-2a133de1fc8ab088|10=070|8=FIX.4.4|9=345|35=8|34=148|49=LVSSG_ARB|52=20150527-19:36:28.023|56=LVARB|1=109976|6=34.1|11=7f030e13ca304b51|14=310000|17=-42a09485f889b667|21=1|31=34.1|32=10000|37=304cf742858644f8|38=10000|39=2|40=2|44=34.1|54=2|55=BSANTANDER|58=New Sell BSANTANDER 10000.0 @ 34.1|59=0|60=20150527-19:36:24.053|63=3|100=XSGO|150=F|151=-300000|207=XSGO|583=-1042c7b7079dbe39|10=190|8=FIX.4.4|9=352|35=8|34=149|49=LVSSG_ARB|52=20150527-19:36:28.023|56=LVARB|1=591866109-00|6=34.1|11=3a0ed67e0bfab8e0|14=350000|17=-1caa3083df1dbcca|21=1|31=34.1|32=10000|37=-79fb2c0a01ffb0c8|38=440000|39=1|40=2|44=34.24|54=1|55=BSANTANDER|58=New Buy BSANTANDER 400000.0 @ 32.6|59=0|60=20150527-19:36:23.614|63=3|100=XSGO|150=F|151=90000|207=XSGO|583=-2a133de1fc8ab088|10=038|8=FIX.4.4|9=345|35=8|34=150|49=LVSSG_ARB|52=20150527-19:36:28.023|56=LVARB|1=109976|6=34.1|11=7f030e13ca304b51|14=320000|17=-66892fc94ce7bc3a|21=1|31=34.1|32=10000|37=304cf742858644f8|38=10000|39=2|40=2|44=34.1|54=2|55=BSANTANDER|58=New Sell BSANTANDER 10000.0 @ 34.1|59=0|60=20150527-19:36:24.053|63=3|100=XSGO|150=F|151=-310000|207=XSGO|583=-1042c7b7079dbe39|10=113|8=FIX.4.4|9=352|35=8|34=151|49=LVSSG_ARB|52=20150527-19:36:28.024|56=LVARB|1=591866109-00|6=34.1|11=3a0ed67e0bfab8e0|14=360000|17=-580479055401b467|21=1|31=34.1|32=10000|37=-79fb2c0a01ffb0c8|38=440000|39=1|40=2|44=34.24|54=1|55=BSANTANDER|58=New Buy BSANTANDER 400000.0 @ 32.6|59=0|60=20150527-19:36:23.614|63=3|100=XSGO|150=F|151=80000|207=XSGO|583=-2a133de1fc8ab088|10=135|8=FIX.4.4|9=345|35=8|34=152|49=LVSSG_ARB|52=20150527-19:36:28.028|56=LVARB|1=109976|6=34.1|11=7f030e13ca304b51|14=330000|17=-45837451b960b967|21=1|31=34.1|32=10000|37=304cf742858644f8|38=10000|39=2|40=2|44=34.1|54=2|55=BSANTANDER|58=New Sell BSANTANDER 10000.0 @ 34.1|59=0|60=20150527-19:36:24.053|63=3|100=XSGO|150=F|151=-320000|207=XSGO|583=-1042c7b7079dbe39|10=139|8=FIX.4.4|9=351|35=8|34=153|49=LVSSG_ARB|52=20150527-19:36:28.028|56=LVARB|1=591866109-00|6=34.1|11=3a0ed67e0bfab8e0|14=370000|17=15640c321efa42f6|21=1|31=34.1|32=10000|37=-79fb2c0a01ffb0c8|38=440000|39=1|40=2|44=34.24|54=1|55=BSANTANDER|58=New Buy BSANTANDER 400000.0 @ 32.6|59=0|60=20150527-19:36:23.614|63=3|100=XSGO|150=F|151=70000|207=XSGO|583=-2a133de1fc8ab088|10=019|8=FIX.4.4|9=344|35=8|34=154|49=LVSSG_ARB|52=20150527-19:36:28.028|56=LVARB|1=109976|6=34.1|11=7f030e13ca304b51|14=340000|17=-46de652378cbcb2|21=1|31=34.1|32=10000|37=304cf742858644f8|38=10000|39=2|40=2|44=34.1|54=2|55=BSANTANDER|58=New Sell BSANTANDER 10000.0 @ 34.1|59=0|60=20150527-19:36:24.053|63=3|100=XSGO|150=F|151=-330000|207=XSGO|583=-1042c7b7079dbe39|10=014|8=FIX.4.4|9=350|35=8|34=155|49=LVSSG_ARB|52=20150527-19:36:28.028|56=LVARB|1=591866109-00|6=34.1|11=3a0ed67e0bfab8e0|14=380000|17=5b901a877f343ce|21=1|31=34.1|32=10000|37=-79fb2c0a01ffb0c8|38=440000|39=1|40=2|44=34.24|54=1|55=BSANTANDER|58=New Buy BSANTANDER 400000.0 @ 32.6|59=0|60=20150527-19:36:23.614|63=3|100=XSGO|150=F|151=60000|207=XSGO|583=-2a133de1fc8ab088|10=237|8=FIX.4.4|9=344|35=8|34=156|49=LVSSG_ARB|52=20150527-19:36:28.029|56=LVARB|1=109976|6=34.1|11=7f030e13ca304b51|14=350000|17=6e89453f67d04a14|21=1|31=34.1|32=10000|37=304cf742858644f8|38=10000|39=2|40=2|44=34.1|54=2|55=BSANTANDER|58=New Sell BSANTANDER 10000.0 @ 34.1|59=0|60=20150527-19:36:24.053|63=3|100=XSGO|150=F|151=-340000|207=XSGO|583=-1042c7b7079dbe39|10=193|8=FIX.4.4|9=351|35=8|34=157|49=LVSSG_ARB|52=20150527-19:36:28.029|56=LVARB|1=591866109-00|6=34.1|11=3a0ed67e0bfab8e0|14=390000|17=50362599540e4764|21=1|31=34.1|32=10000|37=-79fb2c0a01ffb0c8|38=440000|39=1|40=2|44=34.24|54=1|55=BSANTANDER|58=New Buy BSANTANDER 400000.0 @ 32.6|59=0|60=20150527-19:36:23.614|63=3|100=XSGO|150=F|151=50000|207=XSGO|583=-2a133de1fc8ab088|10=107|8=FIX.4.4|9=344|35=8|34=158|49=LVSSG_ARB|52=20150527-19:36:28.029|56=LVARB|1=109976|6=34.1|11=7f030e13ca304b51|14=360000|17=3719993160ae4361|21=1|31=34.1|32=10000|37=304cf742858644f8|38=10000|39=2|40=2|44=34.1|54=2|55=BSANTANDER|58=New Sell BSANTANDER 10000.0 @ 34.1|59=0|60=20150527-19:36:24.053|63=3|100=XSGO|150=F|151=-350000|207=XSGO|583=-1042c7b7079dbe39|10=096|8=FIX.4.4|9=352|35=8|34=159|49=LVSSG_ARB|52=20150527-19:36:28.029|56=LVARB|1=591866109-00|6=34.1|11=3a0ed67e0bfab8e0|14=400000|17=-37db1e45e67fb7bc|21=1|31=34.1|32=10000|37=-79fb2c0a01ffb0c8|38=440000|39=1|40=2|44=34.24|54=1|55=BSANTANDER|58=New Buy BSANTANDER 400000.0 @ 32.6|59=0|60=20150527-19:36:23.614|63=3|100=XSGO|150=F|151=40000|207=XSGO|583=-2a133de1fc8ab088|10=221|8=FIX.4.4|9=345|35=8|34=160|49=LVSSG_ARB|52=20150527-19:36:28.030|56=LVARB|1=109976|6=34.1|11=7f030e13ca304b51|14=370000|17=-41b8f76428c5bee7|21=1|31=34.1|32=10000|37=304cf742858644f8|38=10000|39=2|40=2|44=34.1|54=2|55=BSANTANDER|58=New Sell BSANTANDER 10000.0 @ 34.1|59=0|60=20150527-19:36:24.053|63=3|100=XSGO|150=F|151=-360000|207=XSGO|583=-1042c7b7079dbe39|10=072|8=FIX.4.4|9=352|35=8|34=161|49=LVSSG_ARB|52=20150527-19:36:28.030|56=LVARB|1=591866109-00|6=34.1|11=3a0ed67e0bfab8e0|14=410000|17=-5532741e3356bef8|21=1|31=34.1|32=10000|37=-79fb2c0a01ffb0c8|38=440000|39=1|40=2|44=34.24|54=1|55=BSANTANDER|58=New Buy BSANTANDER 400000.0 @ 32.6|59=0|60=20150527-19:36:23.614|63=3|100=XSGO|150=F|151=30000|207=XSGO|583=-2a133de1fc8ab088|10=015|8=FIX.4.4|9=345|35=8|34=162|49=LVSSG_ARB|52=20150527-19:36:28.030|56=LVARB|1=109976|6=34.1|11=7f030e13ca304b51|14=380000|17=-19a27a719655b8ca|21=1|31=34.1|32=10000|37=304cf742858644f8|38=10000|39=2|40=2|44=34.1|54=2|55=BSANTANDER|58=New Sell BSANTANDER 10000.0 @ 34.1|59=0|60=20150527-19:36:24.053|63=3|100=XSGO|150=F|151=-370000|207=XSGO|583=-1042c7b7079dbe39|10=021|8=FIX.4.4|9=351|35=8|34=163|49=LVSSG_ARB|52=20150527-19:36:28.030|56=LVARB|1=591866109-00|6=34.1|11=3a0ed67e0bfab8e0|14=420000|17=4961ba6215bf43ca|21=1|31=34.1|32=10000|37=-79fb2c0a01ffb0c8|38=440000|39=1|40=2|44=34.24|54=1|55=BSANTANDER|58=New Buy BSANTANDER 400000.0 @ 32.6|59=0|60=20150527-19:36:23.614|63=3|100=XSGO|150=F|151=20000|207=XSGO|583=-2a133de1fc8ab088|10=053|8=FIX.4.4|9=344|35=8|34=164|49=LVSSG_ARB|52=20150527-19:36:28.031|56=LVARB|1=109976|6=34.1|11=7f030e13ca304b51|14=390000|17=24ba729882fa40d1|21=1|31=34.1|32=10000|37=304cf742858644f8|38=10000|39=2|40=2|44=34.1|54=2|55=BSANTANDER|58=New Sell BSANTANDER 10000.0 @ 34.1|59=0|60=20150527-19:36:24.053|63=3|100=XSGO|150=F|151=-380000|207=XSGO|583=-1042c7b7079dbe39|10=229|8=FIX.4.4|9=352|35=8|34=165|49=LVSSG_ARB|52=20150527-19:36:28.031|56=LVARB|1=591866109-00|6=34.1|11=3a0ed67e0bfab8e0|14=430000|17=-22192359a2b3ba30|21=1|31=34.1|32=10000|37=-79fb2c0a01ffb0c8|38=440000|39=1|40=2|44=34.24|54=1|55=BSANTANDER|58=New Buy BSANTANDER 400000.0 @ 32.6|59=0|60=20150527-19:36:23.614|63=3|100=XSGO|150=F|151=10000|207=XSGO|583=-2a133de1fc8ab088|10=253|8=FIX.4.4|9=345|35=8|34=166|49=LVSSG_ARB|52=20150527-19:36:28.032|56=LVARB|1=109976|6=34.1|11=7f030e13ca304b51|14=400000|17=-27bad186b764bedf|21=1|31=34.1|32=10000|37=304cf742858644f8|38=10000|39=2|40=2|44=34.1|54=2|55=BSANTANDER|58=New Sell BSANTANDER 10000.0 @ 34.1|59=0|60=20150527-19:36:24.053|63=3|100=XSGO|150=F|151=-390000|207=XSGO|583=-1042c7b7079dbe39|10=165|8=FIX.4.4|9=346|35=8|34=167|49=LVSSG_ARB|52=20150527-19:36:28.032|56=LVARB|1=591866109-00|6=34.1|11=3a0ed67e0bfab8e0|14=440000|17=c7aa385a20548ee|21=1|31=34.1|32=10000|37=-79fb2c0a01ffb0c8|38=440000|39=2|40=2|44=34.24|54=1|55=BSANTANDER|58=New Buy BSANTANDER 400000.0 @ 32.6|59=0|60=20150527-19:36:23.614|63=3|100=XSGO|150=F|151=0|207=XSGO|583=-2a133de1fc8ab088|10=082|8=FIX.4.4|9=343|35=8|34=168|49=LVSSG_ARB|50=XPUS|52=20150527-19:36:29.060|56=LVARB|57=default|1=QXP019284|6=0|11=47b3357ddd8ab83c|14=0|17=-19a9bf9eaa95b541|21=1|31=0|32=0|37=2793f429929c4db8|38=100|39=0|40=2|44=21.25|54=2|55=BSAC|58=New Sell BSAC 100.0 @ 21.25|59=0|60=20150527-19:36:29.060|63=3|100=SMART|111=100|150=0|151=100|207=SMART|583=70b02cde9f8e4f4b|10=065|8=FIX.4.4|9=342|35=8|34=169|49=LVSSG_ARB|50=XPUS|52=20150527-19:37:26.951|56=LVARB|57=default|1=QXP019284|6=0|11=47b3357ddd8ab83c|14=0|17=-77e3401a7e0b4ae|21=1|31=0|32=0|37=2793f429929c4db8|38=100|39=0|40=2|44=21.26|54=2|55=BSAC|58=New Sell BSAC 100.0 @ 21.25|59=0|60=20150527-19:37:26.951|63=3|100=SMART|111=100|150=5|151=100|207=SMART|583=70b02cde9f8e4f4b|10=227|8=FIX.4.4|9=343|35=8|34=170|49=LVSSG_ARB|50=XPUS|52=20150527-19:37:42.249|56=LVARB|57=default|1=QXP019284|6=0|11=47b3357ddd8ab83c|14=0|17=-45be952cce6ab944|21=1|31=0|32=0|37=2793f429929c4db8|38=100|39=0|40=2|44=21.24|54=2|55=BSAC|58=New Sell BSAC 100.0 @ 21.25|59=0|60=20150527-19:37:42.249|63=3|100=SMART|111=100|150=5|151=100|207=SMART|583=70b02cde9f8e4f4b|10=071|8=FIX.4.4|9=309|35=8|34=171|49=LVSSG_ARB|52=20150527-19:37:53.783|56=LVARB|1=109976|6=0|11=292d7b3d05584532|14=0|17=37625c7fd27f4a51|21=1|31=0|32=0|37=-37096dc583d3b695|38=100|39=0|40=2|44=21.24|54=1|55=BSAC|58=New Buy BSAC 100.0 @ 21.24|59=0|60=20150527-19:37:53.783|63=3|100=XSGO|150=0|151=100|207=XSGO|583=751f507ea364f34|10=111|8=FIX.4.4|9=319|35=8|34=172|49=LVSSG_ARB|52=20150527-19:37:53.789|56=LVARB|1=109976|6=21.24|11=292d7b3d05584532|14=100|17=-bf1bb555d95b19a|21=1|31=21.24|32=100|37=-37096dc583d3b695|38=100|39=2|40=2|44=21.24|54=1|55=BSAC|58=New Buy BSAC 100.0 @ 21.24|59=0|60=20150527-19:37:53.783|63=3|100=XSGO|150=F|151=0|207=XSGO|583=751f507ea364f34|10=209|8=FIX.4.4|9=353|35=8|34=173|49=LVSSG_ARB|50=XPUS|52=20150527-19:37:53.790|56=LVARB|57=default|1=QXP019284|6=21.24|11=47b3357ddd8ab83c|14=100|17=-4b7468dd141fbf00|21=1|31=21.24|32=100|37=2793f429929c4db8|38=100|39=2|40=2|44=21.24|54=2|55=BSAC|58=New Sell BSAC 100.0 @ 21.25|59=0|60=20150527-19:37:42.249|63=3|100=SMART|111=100|150=F|151=0|207=SMART|583=70b02cde9f8e4f4b|10=022|8=FIX.4.4|9=333|35=8|34=174|49=LVSSG_ARB|52=20150527-19:37:53.836|56=LVARB|1=591866109-00|6=0|11=23dbf741c86b694|14=0|17=-21d5253e6c99b242|21=1|31=0|32=0|37=eabf4e4c3fd412e|38=400000|39=0|40=2|44=32.6|54=1|55=BSANTANDER|58=New Buy BSANTANDER 400000.0 @ 32.6|59=0|60=20150527-19:37:53.836|63=3|100=XSGO|150=0|151=400000|207=XSGO|583=44bcb15c0ec74ebf|10=070|8=FIX.4.4|9=333|35=8|34=175|49=LVSSG_ARB|52=20150527-19:38:10.042|56=LVARB|1=591866109-00|6=0|11=23dbf741c86b694|14=0|17=546dd68a65194422|21=1|31=0|32=0|37=eabf4e4c3fd412e|38=400000|39=0|40=2|44=34.24|54=1|55=BSANTANDER|58=New Buy BSANTANDER 400000.0 @ 32.6|59=0|60=20150527-19:38:10.041|63=3|100=XSGO|150=5|151=400000|207=XSGO|583=44bcb15c0ec74ebf|10=005|8=FIX.4.4|9=333|35=8|34=176|49=LVSSG_ARB|52=20150527-19:38:10.150|56=LVARB|1=591866109-00|6=0|11=23dbf741c86b694|14=0|17=770472aa46e04799|21=1|31=0|32=0|37=eabf4e4c3fd412e|38=400000|39=0|40=2|44=34.22|54=1|55=BSANTANDER|58=New Buy BSANTANDER 400000.0 @ 32.6|59=0|60=20150527-19:38:10.149|63=3|100=XSGO|150=5|151=400000|207=XSGO|583=44bcb15c0ec74ebf|10=015|8=FIX.4.4|9=328|35=8|34=177|49=LVSSG_ARB|52=20150527-19:38:30.387|56=LVARB|1=109976|6=0|11=7b69558bd8e9b4b1|14=0|17=23687af180fe4d7c|21=1|31=0|32=0|37=72b6bd04eb0a4203|38=1000|39=0|40=2|44=10000|54=2|55=BSANTANDER|58=New Sell BSANTANDER 1000.0 @ 10000.0|59=0|60=20150527-19:38:30.387|63=3|100=XSGO|150=0|151=1000|207=XSGO|583=-48a3446c48fbb8cb|10=023|8=FIX.4.4|9=329|35=8|34=178|49=LVSSG_ARB|52=20150527-19:39:16.907|56=LVARB|1=109976|6=0|11=7b69558bd8e9b4b1|14=0|17=-152c2dd9915fbcf0|21=1|31=0|32=0|37=72b6bd04eb0a4203|38=1000|39=0|40=2|44=34.22|54=2|55=BSANTANDER|58=New Sell BSANTANDER 1000.0 @ 10000.0|59=0|60=20150527-19:39:16.907|63=3|100=XSGO|150=5|151=1000|207=XSGO|583=-48a3446c48fbb8cb|10=128|8=FIX.4.4|9=340|35=8|34=179|49=LVSSG_ARB|52=20150527-19:39:16.909|56=LVARB|1=109976|6=34.22|11=7b69558bd8e9b4b1|14=1000|17=-22b58365931bb922|21=1|31=34.22|32=1000|37=72b6bd04eb0a4203|38=1000|39=2|40=2|44=34.22|54=2|55=BSANTANDER|58=New Sell BSANTANDER 1000.0 @ 10000.0|59=0|60=20150527-19:39:16.907|63=3|100=XSGO|150=F|151=0|207=XSGO|583=-48a3446c48fbb8cb|10=243|8=FIX.4.4|9=347|35=8|34=180|49=LVSSG_ARB|52=20150527-19:39:16.909|56=LVARB|1=591866109-00|6=34.22|11=23dbf741c86b694|14=1000|17=2b9a8ccf79b947d4|21=1|31=34.22|32=1000|37=eabf4e4c3fd412e|38=400000|39=1|40=2|44=34.22|54=1|55=BSANTANDER|58=New Buy BSANTANDER 400000.0 @ 32.6|59=0|60=20150527-19:38:10.149|63=3|100=XSGO|150=F|151=399000|207=XSGO|583=44bcb15c0ec74ebf|10=192|8=FIX.4.4|9=343|35=8|34=181|49=LVSSG_ARB|52=20150527-19:39:16.909|56=LVARB|1=109976|6=34.22|11=7b69558bd8e9b4b1|14=2000|17=24ea292542e04192|21=1|31=34.22|32=1000|37=72b6bd04eb0a4203|38=1000|39=2|40=2|44=34.22|54=2|55=BSANTANDER|58=New Sell BSANTANDER 1000.0 @ 10000.0|59=0|60=20150527-19:39:16.907|63=3|100=XSGO|150=F|151=-1000|207=XSGO|583=-48a3446c48fbb8cb|10=123|8=FIX.4.4|9=348|35=8|34=182|49=LVSSG_ARB|52=20150527-19:39:16.909|56=LVARB|1=591866109-00|6=34.22|11=23dbf741c86b694|14=2000|17=-271a8d634f9cb202|21=1|31=34.22|32=1000|37=eabf4e4c3fd412e|38=400000|39=1|40=2|44=34.22|54=1|55=BSANTANDER|58=New Buy BSANTANDER 400000.0 @ 32.6|59=0|60=20150527-19:38:10.149|63=3|100=XSGO|150=F|151=398000|207=XSGO|583=44bcb15c0ec74ebf|10=124|8=FIX.4.4|9=343|35=8|34=183|49=LVSSG_ARB|52=20150527-19:39:16.910|56=LVARB|1=109976|6=34.22|11=7b69558bd8e9b4b1|14=3000|17=79a1851a8a2e46af|21=1|31=34.22|32=1000|37=72b6bd04eb0a4203|38=1000|39=2|40=2|44=34.22|54=2|55=BSANTANDER|58=New Sell BSANTANDER 1000.0 @ 10000.0|59=0|60=20150527-19:39:16.907|63=3|100=XSGO|150=F|151=-2000|207=XSGO|583=-48a3446c48fbb8cb|10=016|8=FIX.4.4|9=348|35=8|34=184|49=LVSSG_ARB|52=20150527-19:39:16.910|56=LVARB|1=591866109-00|6=34.22|11=23dbf741c86b694|14=3000|17=-15a25a4990b2bceb|21=1|31=34.22|32=1000|37=eabf4e4c3fd412e|38=400000|39=1|40=2|44=34.22|54=1|55=BSANTANDER|58=New Buy BSANTANDER 400000.0 @ 32.6|59=0|60=20150527-19:38:10.149|63=3|100=XSGO|150=F|151=397000|207=XSGO|583=44bcb15c0ec74ebf|10=207|8=FIX.4.4|9=344|35=8|34=185|49=LVSSG_ARB|52=20150527-19:39:16.910|56=LVARB|1=109976|6=34.22|11=7b69558bd8e9b4b1|14=4000|17=-3ffb71c56e06b2d9|21=1|31=34.22|32=1000|37=72b6bd04eb0a4203|38=1000|39=2|40=2|44=34.22|54=2|55=BSANTANDER|58=New Sell BSANTANDER 1000.0 @ 10000.0|59=0|60=20150527-19:39:16.907|63=3|100=XSGO|150=F|151=-3000|207=XSGO|583=-48a3446c48fbb8cb|10=115|8=FIX.4.4|9=347|35=8|34=186|49=LVSSG_ARB|52=20150527-19:39:16.911|56=LVARB|1=591866109-00|6=34.22|11=23dbf741c86b694|14=4000|17=559a2b5496184b1f|21=1|31=34.22|32=1000|37=eabf4e4c3fd412e|38=400000|39=1|40=2|44=34.22|54=1|55=BSANTANDER|58=New Buy BSANTANDER 400000.0 @ 32.6|59=0|60=20150527-19:38:10.149|63=3|100=XSGO|150=F|151=396000|207=XSGO|583=44bcb15c0ec74ebf|10=037|8=FIX.4.4|9=348|35=8|34=187|49=LVSSG_ARB|52=20150527-19:39:19.422|56=LVARB|1=591866109-00|6=34.22|11=23dbf741c86b694|14=4000|17=-7bd70c175309b6d7|21=1|31=34.22|32=1000|37=eabf4e4c3fd412e|38=404000|39=0|40=2|44=34.22|54=1|55=BSANTANDER|58=New Buy BSANTANDER 400000.0 @ 32.6|59=0|60=20150527-19:39:19.422|63=3|100=XSGO|150=5|151=396000|207=XSGO|583=44bcb15c0ec74ebf|10=119|8=FIX.4.4|9=347|35=8|34=188|49=LVSSG_ARB|52=20150527-19:39:45.050|56=LVARB|1=591866109-00|6=34.22|11=23dbf741c86b694|14=4000|17=20dcc915e93e4dd4|21=1|31=34.22|32=1000|37=eabf4e4c3fd412e|38=404000|39=0|40=2|44=34.22|54=1|55=BSANTANDER|58=New Buy BSANTANDER 400000.0 @ 32.6|59=0|60=20150527-19:39:45.050|63=3|100=XSGO|150=5|151=396000|207=XSGO|583=44bcb15c0ec74ebf|10=160|8=FIX.4.4|9=346|35=8|34=189|49=LVSSG_ARB|52=20150527-19:39:45.070|56=LVARB|1=591866109-00|6=34.22|11=23dbf741c86b694|14=4000|17=31846990b984ec7|21=1|31=34.22|32=1000|37=eabf4e4c3fd412e|38=404000|39=0|40=2|44=34.22|54=1|55=BSANTANDER|58=New Buy BSANTANDER 400000.0 @ 32.6|59=0|60=20150527-19:39:45.070|63=3|100=XSGO|150=5|151=396000|207=XSGO|583=44bcb15c0ec74ebf|10=193|8=FIX.4.4|9=347|35=8|34=190|49=LVSSG_ARB|52=20150527-19:39:48.246|56=LVARB|1=591866109-00|6=34.22|11=23dbf741c86b694|14=4000|17=4077d8825b51458d|21=1|31=34.22|32=1000|37=eabf4e4c3fd412e|38=404000|39=0|40=2|44=34.24|54=1|55=BSANTANDER|58=New Buy BSANTANDER 400000.0 @ 32.6|59=0|60=20150527-19:39:48.245|63=3|100=XSGO|150=5|151=396000|207=XSGO|583=44bcb15c0ec74ebf|10=247|8=FIX.4.4|9=347|35=8|34=191|49=LVSSG_ARB|52=20150527-19:39:48.265|56=LVARB|1=591866109-00|6=34.22|11=23dbf741c86b694|14=4000|17=6037daa8d6a44b9d|21=1|31=34.22|32=1000|37=eabf4e4c3fd412e|38=404000|39=0|40=2|44=34.24|54=1|55=BSANTANDER|58=New Buy BSANTANDER 400000.0 @ 32.6|59=0|60=20150527-19:39:48.264|63=3|100=XSGO|150=5|151=396000|207=XSGO|583=44bcb15c0ec74ebf|10=176|8=FIX.4.4|9=346|35=8|34=192|49=LVSSG_ARB|52=20150527-19:39:48.388|56=LVARB|1=591866109-00|6=34.22|11=23dbf741c86b694|14=4000|17=54ffe1cee1b4afd|21=1|31=34.22|32=1000|37=eabf4e4c3fd412e|38=404000|39=0|40=2|44=34.24|54=1|55=BSANTANDER|58=New Buy BSANTANDER 400000.0 @ 32.6|59=0|60=20150527-19:39:48.388|63=3|100=XSGO|150=5|151=396000|207=XSGO|583=44bcb15c0ec74ebf|10=023|8=FIX.4.4|9=348|35=8|34=193|49=LVSSG_ARB|52=20150527-19:39:48.406|56=LVARB|1=591866109-00|6=34.22|11=23dbf741c86b694|14=4000|17=-5f358a384a0bb088|21=1|31=34.22|32=1000|37=eabf4e4c3fd412e|38=404000|39=0|40=2|44=34.24|54=1|55=BSANTANDER|58=New Buy BSANTANDER 400000.0 @ 32.6|59=0|60=20150527-19:39:48.405|63=3|100=XSGO|150=5|151=396000|207=XSGO|583=44bcb15c0ec74ebf|10=122|8=FIX.4.4|9=348|35=8|34=194|49=LVSSG_ARB|52=20150527-19:39:53.261|56=LVARB|1=591866109-00|6=34.22|11=23dbf741c86b694|14=4000|17=-3c1c7dbead08b64a|21=1|31=34.22|32=1000|37=eabf4e4c3fd412e|38=404000|39=0|40=2|44=34.24|54=1|55=BSANTANDER|58=New Buy BSANTANDER 400000.0 @ 32.6|59=0|60=20150527-19:39:53.261|63=3|100=XSGO|150=5|151=396000|207=XSGO|583=44bcb15c0ec74ebf|10=040|8=FIX.4.4|9=348|35=8|34=195|49=LVSSG_ARB|52=20150527-19:40:14.992|56=LVARB|1=591866109-00|6=34.22|11=23dbf741c86b694|14=4000|17=-157dfdfe24e6b8ee|21=1|31=34.22|32=1000|37=eabf4e4c3fd412e|38=404000|39=0|40=2|44=34.22|54=1|55=BSANTANDER|58=New Buy BSANTANDER 400000.0 @ 32.6|59=0|60=20150527-19:40:14.992|63=3|100=XSGO|150=5|151=396000|207=XSGO|583=44bcb15c0ec74ebf|10=060|8=FIX.4.4|9=347|35=8|34=196|49=LVSSG_ARB|52=20150527-19:40:15.019|56=LVARB|1=591866109-00|6=34.22|11=23dbf741c86b694|14=4000|17=1993d8a2781c4802|21=1|31=34.22|32=1000|37=eabf4e4c3fd412e|38=404000|39=0|40=2|44=34.22|54=1|55=BSANTANDER|58=New Buy BSANTANDER 400000.0 @ 32.6|59=0|60=20150527-19:40:15.019|63=3|100=XSGO|150=5|151=396000|207=XSGO|583=44bcb15c0ec74ebf|10=216|8=FIX.4.4|9=347|35=8|34=197|49=LVSSG_ARB|52=20150527-19:40:15.200|56=LVARB|1=591866109-00|6=34.22|11=23dbf741c86b694|14=4000|17=29e73198bbb54308|21=1|31=34.22|32=1000|37=eabf4e4c3fd412e|38=404000|39=0|40=2|44=34.22|54=1|55=BSANTANDER|58=New Buy BSANTANDER 400000.0 @ 32.6|59=0|60=20150527-19:40:15.200|63=3|100=XSGO|150=5|151=396000|207=XSGO|583=44bcb15c0ec74ebf|10=249|8=FIX.4.4|9=348|35=8|34=198|49=LVSSG_ARB|52=20150527-19:40:15.396|56=LVARB|1=591866109-00|6=34.22|11=23dbf741c86b694|14=4000|17=-5fa0277b9ef4ba6f|21=1|31=34.22|32=1000|37=eabf4e4c3fd412e|38=404000|39=0|40=2|44=34.22|54=1|55=BSANTANDER|58=New Buy BSANTANDER 400000.0 @ 32.6|59=0|60=20150527-19:40:15.396|63=3|100=XSGO|150=5|151=396000|207=XSGO|583=44bcb15c0ec74ebf|10=007|8=FIX.4.4|9=348|35=8|34=199|49=LVSSG_ARB|52=20150527-19:40:16.978|56=LVARB|1=591866109-00|6=34.22|11=23dbf741c86b694|14=4000|17=-55b254e2d57cb9d2|21=1|31=34.22|32=1000|37=eabf4e4c3fd412e|38=404000|39=0|40=2|44=34.22|54=1|55=BSANTANDER|58=New Buy BSANTANDER 400000.0 @ 32.6|59=0|60=20150527-19:40:16.978|63=3|100=XSGO|150=5|151=396000|207=XSGO|583=44bcb15c0ec74ebf|10=179|8=FIX.4.4|9=348|35=8|34=200|49=LVSSG_ARB|52=20150527-19:40:21.747|56=LVARB|1=591866109-00|6=34.22|11=23dbf741c86b694|14=4000|17=-4e368610af6db4ae|21=1|31=34.22|32=1000|37=eabf4e4c3fd412e|38=404000|39=0|40=2|44=34.22|54=1|55=BSANTANDER|58=New Buy BSANTANDER 400000.0 @ 32.6|59=0|60=20150527-19:40:21.747|63=3|100=XSGO|150=5|151=396000|207=XSGO|583=44bcb15c0ec74ebf|10=186|8=FIX.4.4|9=348|35=8|34=201|49=LVSSG_ARB|52=20150527-19:41:00.684|56=LVARB|1=591866109-00|6=34.22|11=23dbf741c86b694|14=4000|17=-76ad968bbc36bf54|21=1|31=34.22|32=1000|37=eabf4e4c3fd412e|38=404000|39=0|40=2|44=34.22|54=1|55=BSANTANDER|58=New Buy BSANTANDER 400000.0 @ 32.6|59=0|60=20150527-19:41:00.684|63=3|100=XSGO|150=5|151=396000|207=XSGO|583=44bcb15c0ec74ebf|10=195|8=FIX.4.4|9=347|35=8|34=202|49=LVSSG_ARB|52=20150527-19:41:08.581|56=LVARB|1=591866109-00|6=34.22|11=23dbf741c86b694|14=4000|17=1b3228d449834ba5|21=1|31=34.22|32=1000|37=eabf4e4c3fd412e|38=404000|39=0|40=2|44=34.22|54=1|55=BSANTANDER|58=New Buy BSANTANDER 400000.0 @ 32.6|59=0|60=20150527-19:41:08.580|63=3|100=XSGO|150=5|151=396000|207=XSGO|583=44bcb15c0ec74ebf|10=001|8=FIX.4.4|9=347|35=8|34=203|49=LVSSG_ARB|52=20150527-19:41:08.717|56=LVARB|1=591866109-00|6=34.22|11=23dbf741c86b694|14=4000|17=62ece21aea7f40af|21=1|31=34.22|32=1000|37=eabf4e4c3fd412e|38=404000|39=0|40=2|44=34.22|54=1|55=BSANTANDER|58=New Buy BSANTANDER 400000.0 @ 32.6|59=0|60=20150527-19:41:08.717|63=3|100=XSGO|150=5|151=396000|207=XSGO|583=44bcb15c0ec74ebf|10=238|8=FIX.4.4|9=347|35=8|34=204|49=LVSSG_ARB|52=20150527-19:41:08.733|56=LVARB|1=591866109-00|6=34.22|11=23dbf741c86b694|14=4000|17=6878cf4bfec64d37|21=1|31=34.22|32=1000|37=eabf4e4c3fd412e|38=404000|39=0|40=2|44=34.22|54=1|55=BSANTANDER|58=New Buy BSANTANDER 400000.0 @ 32.6|59=0|60=20150527-19:41:08.733|63=3|100=XSGO|150=5|151=396000|207=XSGO|583=44bcb15c0ec74ebf|10=166|8=FIX.4.4|9=347|35=8|34=205|49=LVSSG_ARB|52=20150527-19:41:22.481|56=LVARB|1=591866109-00|6=34.22|11=23dbf741c86b694|14=4000|17=62f7c9d98742473c|21=1|31=34.22|32=1000|37=eabf4e4c3fd412e|38=404000|39=0|40=2|44=34.21|54=1|55=BSANTANDER|58=New Buy BSANTANDER 400000.0 @ 32.6|59=0|60=20150527-19:41:22.481|63=3|100=XSGO|150=5|151=396000|207=XSGO|583=44bcb15c0ec74ebf|10=016|8=FIX.4.4|9=348|35=8|34=206|49=LVSSG_ARB|52=20150527-19:41:27.475|56=LVARB|1=591866109-00|6=34.22|11=23dbf741c86b694|14=4000|17=-674e8c116f0ebd64|21=1|31=34.22|32=1000|37=eabf4e4c3fd412e|38=404000|39=0|40=2|44=34.21|54=1|55=BSANTANDER|58=New Buy BSANTANDER 400000.0 @ 32.6|59=0|60=20150527-19:41:27.475|63=3|100=XSGO|150=5|151=396000|207=XSGO|583=44bcb15c0ec74ebf|10=159|8=FIX.4.4|9=348|35=8|34=207|49=LVSSG_ARB|52=20150527-19:41:30.786|56=LVARB|1=591866109-00|6=34.22|11=23dbf741c86b694|14=4000|17=-32a31d87065dbe12|21=1|31=34.22|32=1000|37=eabf4e4c3fd412e|38=404000|39=0|40=2|44=34.21|54=1|55=BSANTANDER|58=New Buy BSANTANDER 400000.0 @ 32.6|59=0|60=20150527-19:41:30.785|63=3|100=XSGO|150=5|151=396000|207=XSGO|583=44bcb15c0ec74ebf|10=095|8=FIX.4.4|9=346|35=8|34=208|49=LVSSG_ARB|52=20150527-19:41:30.807|56=LVARB|1=591866109-00|6=34.22|11=23dbf741c86b694|14=4000|17=e2a6d9ec8ab4025|21=1|31=34.22|32=1000|37=eabf4e4c3fd412e|38=404000|39=0|40=2|44=34.21|54=1|55=BSANTANDER|58=New Buy BSANTANDER 400000.0 @ 32.6|59=0|60=20150527-19:41:30.806|63=3|100=XSGO|150=5|151=396000|207=XSGO|583=44bcb15c0ec74ebf|10=088|8=FIX.4.4|9=348|35=8|34=209|49=LVSSG_ARB|52=20150527-19:41:30.932|56=LVARB|1=591866109-00|6=34.22|11=23dbf741c86b694|14=4000|17=-3ca70794b5fabdc1|21=1|31=34.22|32=1000|37=eabf4e4c3fd412e|38=404000|39=0|40=2|44=34.19|54=1|55=BSANTANDER|58=New Buy BSANTANDER 400000.0 @ 32.6|59=0|60=20150527-19:41:30.931|63=3|100=XSGO|150=5|151=396000|207=XSGO|583=44bcb15c0ec74ebf|10=238|8=FIX.4.4|9=347|35=8|34=210|49=LVSSG_ARB|52=20150527-19:41:30.949|56=LVARB|1=591866109-00|6=34.22|11=23dbf741c86b694|14=4000|17=5898f839a03648a3|21=1|31=34.22|32=1000|37=eabf4e4c3fd412e|38=404000|39=0|40=2|44=34.19|54=1|55=BSANTANDER|58=New Buy BSANTANDER 400000.0 @ 32.6|59=0|60=20150527-19:41:30.949|63=3|100=XSGO|150=5|151=396000|207=XSGO|583=44bcb15c0ec74ebf|10=241|8=FIX.4.4|9=348|35=8|34=211|49=LVSSG_ARB|52=20150527-19:41:31.523|56=LVARB|1=591866109-00|6=34.22|11=23dbf741c86b694|14=4000|17=-685e1111c8e6b95c|21=1|31=34.22|32=1000|37=eabf4e4c3fd412e|38=404000|39=0|40=2|44=34.19|54=1|55=BSANTANDER|58=New Buy BSANTANDER 400000.0 @ 32.6|59=0|60=20150527-19:41:31.522|63=3|100=XSGO|150=5|151=396000|207=XSGO|583=44bcb15c0ec74ebf|10=092|8=FIX.4.4|9=348|35=8|34=212|49=LVSSG_ARB|52=20150527-19:41:31.551|56=LVARB|1=591866109-00|6=34.22|11=23dbf741c86b694|14=4000|17=-742111bce830bcb9|21=1|31=34.22|32=1000|37=eabf4e4c3fd412e|38=404000|39=0|40=2|44=34.19|54=1|55=BSANTANDER|58=New Buy BSANTANDER 400000.0 @ 32.6|59=0|60=20150527-19:41:31.551|63=3|100=XSGO|150=5|151=396000|207=XSGO|583=44bcb15c0ec74ebf|10=128|8=FIX.4.4|9=347|35=8|34=213|49=LVSSG_ARB|52=20150527-19:41:34.352|56=LVARB|1=591866109-00|6=34.22|11=23dbf741c86b694|14=4000|17=-b97f082765abb6f|21=1|31=34.22|32=1000|37=eabf4e4c3fd412e|38=404000|39=0|40=2|44=34.19|54=1|55=BSANTANDER|58=New Buy BSANTANDER 400000.0 @ 32.6|59=0|60=20150527-19:41:34.351|63=3|100=XSGO|150=5|151=396000|207=XSGO|583=44bcb15c0ec74ebf|10=099|8=FIX.4.4|9=347|35=8|34=214|49=LVSSG_ARB|52=20150527-19:41:34.639|56=LVARB|1=591866109-00|6=34.22|11=23dbf741c86b694|14=4000|17=2700d34f4e9f426d|21=1|31=34.22|32=1000|37=eabf4e4c3fd412e|38=404000|39=0|40=2|44=34.19|54=1|55=BSANTANDER|58=New Buy BSANTANDER 400000.0 @ 32.6|59=0|60=20150527-19:41:34.639|63=3|100=XSGO|150=5|151=396000|207=XSGO|583=44bcb15c0ec74ebf|10=069|8=FIX.4.4|9=347|35=8|34=215|49=LVSSG_ARB|52=20150527-19:41:37.232|56=LVARB|1=591866109-00|6=34.22|11=23dbf741c86b694|14=4000|17=30276838d75c46dd|21=1|31=34.22|32=1000|37=eabf4e4c3fd412e|38=404000|39=0|40=2|44=34.19|54=1|55=BSANTANDER|58=New Buy BSANTANDER 400000.0 @ 32.6|59=0|60=20150527-19:41:37.232|63=3|100=XSGO|150=5|151=396000|207=XSGO|583=44bcb15c0ec74ebf|10=014|8=FIX.4.4|9=347|35=8|34=216|49=LVSSG_ARB|52=20150527-19:41:37.323|56=LVARB|1=591866109-00|6=34.22|11=23dbf741c86b694|14=4000|17=79dd4f82b4004d23|21=1|31=34.22|32=1000|37=eabf4e4c3fd412e|38=404000|39=0|40=2|44=34.19|54=1|55=BSANTANDER|58=New Buy BSANTANDER 400000.0 @ 32.6|59=0|60=20150527-19:41:37.322|63=3|100=XSGO|150=5|151=396000|207=XSGO|583=44bcb15c0ec74ebf|10=053|8=FIX.4.4|9=348|35=8|34=217|49=LVSSG_ARB|52=20150527-19:41:52.376|56=LVARB|1=591866109-00|6=34.22|11=23dbf741c86b694|14=4000|17=-1b17b3dafbcbb30b|21=1|31=34.22|32=1000|37=eabf4e4c3fd412e|38=404000|39=0|40=2|44=34.19|54=1|55=BSANTANDER|58=New Buy BSANTANDER 400000.0 @ 32.6|59=0|60=20150527-19:41:52.376|63=3|100=XSGO|150=5|151=396000|207=XSGO|583=44bcb15c0ec74ebf|10=073|8=FIX.4.4|9=347|35=8|34=218|49=LVSSG_ARB|52=20150527-19:41:56.910|56=LVARB|1=591866109-00|6=34.22|11=23dbf741c86b694|14=4000|17=640686c53e694fec|21=1|31=34.22|32=1000|37=eabf4e4c3fd412e|38=404000|39=0|40=2|44=34.19|54=1|55=BSANTANDER|58=New Buy BSANTANDER 400000.0 @ 32.6|59=0|60=20150527-19:41:56.910|63=3|100=XSGO|150=5|151=396000|207=XSGO|583=44bcb15c0ec74ebf|10=078|8=FIX.4.4|9=346|35=8|34=219|49=LVSSG_ARB|52=20150527-19:42:08.037|56=LVARB|1=591866109-00|6=34.22|11=23dbf741c86b694|14=4000|17=-e729be5f87b2ef|21=1|31=34.22|32=1000|37=eabf4e4c3fd412e|38=404000|39=1|40=2|44=34.19|54=1|55=BSANTANDER|58=New Buy BSANTANDER 400000.0 @ 32.6|59=0|60=20150527-19:42:08.037|63=3|100=XSGO|150=5|151=396000|207=XSGO|583=44bcb15c0ec74ebf|10=112|8=FIX.4.4|9=347|35=8|34=220|49=LVSSG_ARB|52=20150527-19:42:08.057|56=LVARB|1=591866109-00|6=34.22|11=23dbf741c86b694|14=4000|17=77c2a9c9242048d3|21=1|31=34.22|32=1000|37=eabf4e4c3fd412e|38=404000|39=1|40=2|44=34.19|54=1|55=BSANTANDER|58=New Buy BSANTANDER 400000.0 @ 32.6|59=0|60=20150527-19:42:08.057|63=3|100=XSGO|150=5|151=396000|207=XSGO|583=44bcb15c0ec74ebf|10=013|8=FIX.4.4|9=325|35=8|34=221|49=LVSSG_ARB|52=20150527-19:42:40.876|56=LVARB|1=109976|6=0|11=2747d39851c645c1|14=0|17=71ba13bbeaca4e71|21=1|31=0|32=0|37=3328b8c4cb334ca7|38=1000|39=0|40=2|44=34.22|54=2|55=BSANTANDER|58=New Sell BSANTANDER 1000.0 @ 34.22|59=0|60=20150527-19:42:40.876|63=3|100=XSGO|150=0|151=1000|207=XSGO|583=26d0e01470ce4566|10=226|8=FIX.4.4|9=347|35=8|34=222|49=LVSSG_ARB|52=20150527-19:42:41.102|56=LVARB|1=591866109-00|6=34.22|11=23dbf741c86b694|14=4000|17=4843227ec7794ef4|21=1|31=34.22|32=1000|37=eabf4e4c3fd412e|38=404000|39=1|40=2|44=34.19|54=1|55=BSANTANDER|58=New Buy BSANTANDER 400000.0 @ 32.6|59=0|60=20150527-19:42:41.101|63=3|100=XSGO|150=5|151=396000|207=XSGO|583=44bcb15c0ec74ebf|10=002|8=FIX.4.4|9=348|35=8|34=223|49=LVSSG_ARB|52=20150527-19:42:41.119|56=LVARB|1=591866109-00|6=34.22|11=23dbf741c86b694|14=4000|17=-561ba676d74ab808|21=1|31=34.22|32=1000|37=eabf4e4c3fd412e|38=404000|39=1|40=2|44=34.19|54=1|55=BSANTANDER|58=New Buy BSANTANDER 400000.0 @ 32.6|59=0|60=20150527-19:42:41.119|63=3|100=XSGO|150=5|151=396000|207=XSGO|583=44bcb15c0ec74ebf|10=102|8=FIX.4.4|9=347|35=8|34=224|49=LVSSG_ARB|52=20150527-19:42:41.197|56=LVARB|1=591866109-00|6=34.22|11=23dbf741c86b694|14=4000|17=2acd08a6668e4c07|21=1|31=34.22|32=1000|37=eabf4e4c3fd412e|38=404000|39=1|40=2|44=34.19|54=1|55=BSANTANDER|58=New Buy BSANTANDER 400000.0 @ 32.6|59=0|60=20150527-19:42:41.197|63=3|100=XSGO|150=5|151=396000|207=XSGO|583=44bcb15c0ec74ebf|10=113|8=FIX.4.4|9=326|35=8|34=225|49=LVSSG_ARB|52=20150527-19:42:56.175|56=LVARB|1=109976|6=0|11=2747d39851c645c1|14=0|17=-21a086144e37bf9e|21=1|31=0|32=0|37=3328b8c4cb334ca7|38=1000|39=0|40=2|44=34.22|54=2|55=BSANTANDER|58=New Sell BSANTANDER 1000.0 @ 34.22|59=0|60=20150527-19:42:56.175|63=3|100=XSGO|150=5|151=1000|207=XSGO|583=26d0e01470ce4566|10=105|8=FIX.4.4|9=326|35=8|34=226|49=LVSSG_ARB|52=20150527-19:43:08.501|56=LVARB|1=109976|6=0|11=2747d39851c645c1|14=0|17=-764588b36fbdb060|21=1|31=0|32=0|37=3328b8c4cb334ca7|38=1000|39=0|40=2|44=34.19|54=2|55=BSANTANDER|58=New Sell BSANTANDER 1000.0 @ 34.22|59=0|60=20150527-19:43:08.501|63=3|100=XSGO|150=5|151=1000|207=XSGO|583=26d0e01470ce4566|10=099|8=FIX.4.4|9=336|35=8|34=227|49=LVSSG_ARB|52=20150527-19:43:08.502|56=LVARB|1=109976|6=34.19|11=2747d39851c645c1|14=1000|17=3052e6868a1744e2|21=1|31=34.19|32=1000|37=3328b8c4cb334ca7|38=1000|39=2|40=2|44=34.19|54=2|55=BSANTANDER|58=New Sell BSANTANDER 1000.0 @ 34.22|59=0|60=20150527-19:43:08.501|63=3|100=XSGO|150=F|151=0|207=XSGO|583=26d0e01470ce4566|10=025|8=FIX.4.4|9=349|35=8|34=228|49=LVSSG_ARB|52=20150527-19:43:08.502|56=LVARB|1=591866109-00|6=34.214|11=23dbf741c86b694|14=5000|17=-7c0020f01225b6ab|21=1|31=34.19|32=1000|37=eabf4e4c3fd412e|38=404000|39=1|40=2|44=34.19|54=1|55=BSANTANDER|58=New Buy BSANTANDER 400000.0 @ 32.6|59=0|60=20150527-19:42:41.197|63=3|100=XSGO|150=F|151=399000|207=XSGO|583=44bcb15c0ec74ebf|10=163|8=FIX.4.4|9=339|35=8|34=229|49=LVSSG_ARB|52=20150527-19:43:08.503|56=LVARB|1=109976|6=34.19|11=2747d39851c645c1|14=2000|17=ccfd6b9852840f2|21=1|31=34.19|32=1000|37=3328b8c4cb334ca7|38=1000|39=2|40=2|44=34.19|54=2|55=BSANTANDER|58=New Sell BSANTANDER 1000.0 @ 34.22|59=0|60=20150527-19:43:08.501|63=3|100=XSGO|150=F|151=-1000|207=XSGO|583=26d0e01470ce4566|10=063|8=FIX.4.4|9=347|35=8|34=230|49=LVSSG_ARB|52=20150527-19:43:08.503|56=LVARB|1=591866109-00|6=34.21|11=23dbf741c86b694|14=6000|17=4293a9a1a5e941e1|21=1|31=34.19|32=1000|37=eabf4e4c3fd412e|38=404000|39=1|40=2|44=34.19|54=1|55=BSANTANDER|58=New Buy BSANTANDER 400000.0 @ 32.6|59=0|60=20150527-19:42:41.197|63=3|100=XSGO|150=F|151=398000|207=XSGO|583=44bcb15c0ec74ebf|10=080|8=FIX.4.4|9=340|35=8|34=231|49=LVSSG_ARB|52=20150527-19:43:08.523|56=LVARB|1=109976|6=34.19|11=2747d39851c645c1|14=3000|17=3c9474d1ae8d435d|21=1|31=34.19|32=1000|37=3328b8c4cb334ca7|38=1000|39=2|40=2|44=34.19|54=2|55=BSANTANDER|58=New Sell BSANTANDER 1000.0 @ 34.22|59=0|60=20150527-19:43:08.501|63=3|100=XSGO|150=F|151=-2000|207=XSGO|583=26d0e01470ce4566|10=101|8=FIX.4.4|9=358|35=8|34=232|49=LVSSG_ARB|52=20150527-19:43:08.523|56=LVARB|1=591866109-00|6=34.20714285714286|11=23dbf741c86b694|14=7000|17=2c33b09837b444d|21=1|31=34.19|32=1000|37=eabf4e4c3fd412e|38=404000|39=1|40=2|44=34.19|54=1|55=BSANTANDER|58=New Buy BSANTANDER 400000.0 @ 32.6|59=0|60=20150527-19:42:41.197|63=3|100=XSGO|150=F|151=397000|207=XSGO|583=44bcb15c0ec74ebf|10=105|8=FIX.4.4|9=339|35=8|34=233|49=LVSSG_ARB|52=20150527-19:43:08.524|56=LVARB|1=109976|6=34.19|11=2747d39851c645c1|14=4000|17=c4704d91f784e0d|21=1|31=34.19|32=1000|37=3328b8c4cb334ca7|38=1000|39=2|40=2|44=34.19|54=2|55=BSANTANDER|58=New Sell BSANTANDER 1000.0 @ 34.22|59=0|60=20150527-19:43:08.501|63=3|100=XSGO|150=F|151=-3000|207=XSGO|583=26d0e01470ce4566|10=015|8=FIX.4.4|9=349|35=8|34=234|49=LVSSG_ARB|52=20150527-19:43:08.524|56=LVARB|1=591866109-00|6=34.205|11=23dbf741c86b694|14=8000|17=-2541416c514cbd98|21=1|31=34.19|32=1000|37=eabf4e4c3fd412e|38=404000|39=1|40=2|44=34.19|54=1|55=BSANTANDER|58=New Buy BSANTANDER 400000.0 @ 32.6|59=0|60=20150527-19:42:41.197|63=3|100=XSGO|150=F|151=396000|207=XSGO|583=44bcb15c0ec74ebf|10=139|8=FIX.4.4|9=340|35=8|34=235|49=LVSSG_ARB|52=20150527-19:43:08.524|56=LVARB|1=109976|6=34.19|11=2747d39851c645c1|14=5000|17=539523e9887d4df0|21=1|31=34.19|32=1000|37=3328b8c4cb334ca7|38=1000|39=2|40=2|44=34.19|54=2|55=BSANTANDER|58=New Sell BSANTANDER 1000.0 @ 34.22|59=0|60=20150527-19:43:08.501|63=3|100=XSGO|150=F|151=-4000|207=XSGO|583=26d0e01470ce4566|10=027|8=FIX.4.4|9=360|35=8|34=236|49=LVSSG_ARB|52=20150527-19:43:08.524|56=LVARB|1=591866109-00|6=34.20333333333333|11=23dbf741c86b694|14=9000|17=-7e1ff3d26b5bb640|21=1|31=34.19|32=1000|37=eabf4e4c3fd412e|38=404000|39=1|40=2|44=34.19|54=1|55=BSANTANDER|58=New Buy BSANTANDER 400000.0 @ 32.6|59=0|60=20150527-19:42:41.197|63=3|100=XSGO|150=F|151=395000|207=XSGO|583=44bcb15c0ec74ebf|10=068|8=FIX.4.4|9=341|35=8|34=237|49=LVSSG_ARB|52=20150527-19:43:08.524|56=LVARB|1=109976|6=34.19|11=2747d39851c645c1|14=6000|17=-1de44f737118bdbd|21=1|31=34.19|32=1000|37=3328b8c4cb334ca7|38=1000|39=2|40=2|44=34.19|54=2|55=BSANTANDER|58=New Sell BSANTANDER 1000.0 @ 34.22|59=0|60=20150527-19:43:08.501|63=3|100=XSGO|150=F|151=-5000|207=XSGO|583=26d0e01470ce4566|10=202|8=FIX.4.4|9=350|35=8|34=238|49=LVSSG_ARB|52=20150527-19:43:08.524|56=LVARB|1=591866109-00|6=34.202|11=23dbf741c86b694|14=10000|17=-39b6d9bb774db88d|21=1|31=34.19|32=1000|37=eabf4e4c3fd412e|38=404000|39=1|40=2|44=34.19|54=1|55=BSANTANDER|58=New Buy BSANTANDER 400000.0 @ 32.6|59=0|60=20150527-19:42:41.197|63=3|100=XSGO|150=F|151=394000|207=XSGO|583=44bcb15c0ec74ebf|10=078|8=FIX.4.4|9=340|35=8|34=239|49=LVSSG_ARB|52=20150527-19:43:08.524|56=LVARB|1=109976|6=34.19|11=2747d39851c645c1|14=7000|17=7560586f56cc437a|21=1|31=34.19|32=1000|37=3328b8c4cb334ca7|38=1000|39=2|40=2|44=34.19|54=2|55=BSANTANDER|58=New Sell BSANTANDER 1000.0 @ 34.22|59=0|60=20150527-19:43:08.501|63=3|100=XSGO|150=F|151=-6000|207=XSGO|583=26d0e01470ce4566|10=028|8=FIX.4.4|9=358|35=8|34=240|49=LVSSG_ARB|52=20150527-19:43:08.525|56=LVARB|1=591866109-00|6=34.20090909090909|11=23dbf741c86b694|14=11000|17=4df92777cc479c|21=1|31=34.19|32=1000|37=eabf4e4c3fd412e|38=404000|39=1|40=2|44=34.19|54=1|55=BSANTANDER|58=New Buy BSANTANDER 400000.0 @ 32.6|59=0|60=20150527-19:42:41.197|63=3|100=XSGO|150=F|151=393000|207=XSGO|583=44bcb15c0ec74ebf|10=161|8=FIX.4.4|9=340|35=8|34=241|49=LVSSG_ARB|52=20150527-19:43:08.525|56=LVARB|1=109976|6=34.19|11=2747d39851c645c1|14=8000|17=5446719ed2f64d92|21=1|31=34.19|32=1000|37=3328b8c4cb334ca7|38=1000|39=2|40=2|44=34.19|54=2|55=BSANTANDER|58=New Sell BSANTANDER 1000.0 @ 34.22|59=0|60=20150527-19:43:08.501|63=3|100=XSGO|150=F|151=-7000|207=XSGO|583=26d0e01470ce4566|10=027|8=FIX.4.4|9=347|35=8|34=242|49=LVSSG_ARB|52=20150527-19:43:08.525|56=LVARB|1=591866109-00|6=34.2|11=23dbf741c86b694|14=12000|17=2efb297d84064715|21=1|31=34.19|32=1000|37=eabf4e4c3fd412e|38=404000|39=1|40=2|44=34.19|54=1|55=BSANTANDER|58=New Buy BSANTANDER 400000.0 @ 32.6|59=0|60=20150527-19:42:41.197|63=3|100=XSGO|150=F|151=392000|207=XSGO|583=44bcb15c0ec74ebf|10=040|8=FIX.4.4|9=340|35=8|34=243|49=LVSSG_ARB|52=20150527-19:43:08.525|56=LVARB|1=109976|6=34.19|11=2747d39851c645c1|14=9000|17=-a742098cdf5be4c|21=1|31=34.19|32=1000|37=3328b8c4cb334ca7|38=1000|39=2|40=2|44=34.19|54=2|55=BSANTANDER|58=New Sell BSANTANDER 1000.0 @ 34.22|59=0|60=20150527-19:43:08.501|63=3|100=XSGO|150=F|151=-8000|207=XSGO|583=26d0e01470ce4566|10=157|8=FIX.4.4|9=361|35=8|34=244|49=LVSSG_ARB|52=20150527-19:43:08.525|56=LVARB|1=591866109-00|6=34.19923076923077|11=23dbf741c86b694|14=13000|17=-15dfba327b0fba92|21=1|31=34.19|32=1000|37=eabf4e4c3fd412e|38=404000|39=1|40=2|44=34.19|54=1|55=BSANTANDER|58=New Buy BSANTANDER 400000.0 @ 32.6|59=0|60=20150527-19:42:41.197|63=3|100=XSGO|150=F|151=391000|207=XSGO|583=44bcb15c0ec74ebf|10=175|8=FIX.4.4|9=341|35=8|34=245|49=LVSSG_ARB|52=20150527-19:43:08.526|56=LVARB|1=109976|6=34.19|11=2747d39851c645c1|14=10000|17=333442b31e1f4a0c|21=1|31=34.19|32=1000|37=3328b8c4cb334ca7|38=1000|39=2|40=2|44=34.19|54=2|55=BSANTANDER|58=New Sell BSANTANDER 1000.0 @ 34.22|59=0|60=20150527-19:43:08.501|63=3|100=XSGO|150=F|151=-9000|207=XSGO|583=26d0e01470ce4566|10=091|8=FIX.4.4|9=359|35=8|34=246|49=LVSSG_ARB|52=20150527-19:43:08.526|56=LVARB|1=591866109-00|6=34.19857142857143|11=23dbf741c86b694|14=14000|17=9ca78def8574022|21=1|31=34.19|32=1000|37=eabf4e4c3fd412e|38=404000|39=1|40=2|44=34.19|54=1|55=BSANTANDER|58=New Buy BSANTANDER 400000.0 @ 32.6|59=0|60=20150527-19:42:41.197|63=3|100=XSGO|150=F|151=390000|207=XSGO|583=44bcb15c0ec74ebf|10=222|8=FIX.4.4|9=343|35=8|34=247|49=LVSSG_ARB|52=20150527-19:43:08.526|56=LVARB|1=109976|6=34.19|11=2747d39851c645c1|14=11000|17=-336ea52ef728b49b|21=1|31=34.19|32=1000|37=3328b8c4cb334ca7|38=1000|39=2|40=2|44=34.19|54=2|55=BSANTANDER|58=New Sell BSANTANDER 1000.0 @ 34.22|59=0|60=20150527-19:43:08.501|63=3|100=XSGO|150=F|151=-10000|207=XSGO|583=26d0e01470ce4566|10=254|8=FIX.4.4|9=349|35=8|34=248|49=LVSSG_ARB|52=20150527-19:43:08.526|56=LVARB|1=591866109-00|6=34.198|11=23dbf741c86b694|14=15000|17=3e7399d3fc0841a9|21=1|31=34.19|32=1000|37=eabf4e4c3fd412e|38=404000|39=1|40=2|44=34.19|54=1|55=BSANTANDER|58=New Buy BSANTANDER 400000.0 @ 32.6|59=0|60=20150527-19:42:41.197|63=3|100=XSGO|150=F|151=389000|207=XSGO|583=44bcb15c0ec74ebf|10=221|8=FIX.4.4|9=343|35=8|34=249|49=LVSSG_ARB|52=20150527-19:43:08.526|56=LVARB|1=109976|6=34.19|11=2747d39851c645c1|14=12000|17=-7744799bc184bffd|21=1|31=34.19|32=1000|37=3328b8c4cb334ca7|38=1000|39=2|40=2|44=34.19|54=2|55=BSANTANDER|58=New Sell BSANTANDER 1000.0 @ 34.22|59=0|60=20150527-19:43:08.501|63=3|100=XSGO|150=F|151=-11000|207=XSGO|583=26d0e01470ce4566|10=015|8=FIX.4.4|9=351|35=8|34=250|49=LVSSG_ARB|52=20150527-19:43:08.527|56=LVARB|1=591866109-00|6=34.1975|11=23dbf741c86b694|14=16000|17=-6bfaf05b68c6b057|21=1|31=34.19|32=1000|37=eabf4e4c3fd412e|38=404000|39=1|40=2|44=34.19|54=1|55=BSANTANDER|58=New Buy BSANTANDER 400000.0 @ 32.6|59=0|60=20150527-19:42:41.197|63=3|100=XSGO|150=F|151=388000|207=XSGO|583=44bcb15c0ec74ebf|10=135|8=FIX.4.4|9=342|35=8|34=251|49=LVSSG_ARB|52=20150527-19:43:08.527|56=LVARB|1=109976|6=34.19|11=2747d39851c645c1|14=13000|17=18c62abd1f2642d3|21=1|31=34.19|32=1000|37=3328b8c4cb334ca7|38=1000|39=2|40=2|44=34.19|54=2|55=BSANTANDER|58=New Sell BSANTANDER 1000.0 @ 34.22|59=0|60=20150527-19:43:08.501|63=3|100=XSGO|150=F|151=-12000|207=XSGO|583=26d0e01470ce4566|10=193|8=FIX.4.4|9=360|35=8|34=252|49=LVSSG_ARB|52=20150527-19:43:08.527|56=LVARB|1=591866109-00|6=34.19705882352941|11=23dbf741c86b694|14=17000|17=1224e0632b8d4746|21=1|31=34.19|32=1000|37=eabf4e4c3fd412e|38=404000|39=1|40=2|44=34.19|54=1|55=BSANTANDER|58=New Buy BSANTANDER 400000.0 @ 32.6|59=0|60=20150527-19:42:41.197|63=3|100=XSGO|150=F|151=387000|207=XSGO|583=44bcb15c0ec74ebf|10=161|8=FIX.4.4|9=342|35=8|34=253|49=LVSSG_ARB|52=20150527-19:43:08.527|56=LVARB|1=109976|6=34.19|11=2747d39851c645c1|14=14000|17=64253c214bc24c0c|21=1|31=34.19|32=1000|37=3328b8c4cb334ca7|38=1000|39=2|40=2|44=34.19|54=2|55=BSANTANDER|58=New Sell BSANTANDER 1000.0 @ 34.22|59=0|60=20150527-19:43:08.501|63=3|100=XSGO|150=F|151=-13000|207=XSGO|583=26d0e01470ce4566|10=141|8=FIX.4.4|9=360|35=8|34=254|49=LVSSG_ARB|52=20150527-19:43:08.527|56=LVARB|1=591866109-00|6=34.19666666666667|11=23dbf741c86b694|14=18000|17=71f9181251074458|21=1|31=34.19|32=1000|37=eabf4e4c3fd412e|38=404000|39=1|40=2|44=34.19|54=1|55=BSANTANDER|58=New Buy BSANTANDER 400000.0 @ 32.6|59=0|60=20150527-19:42:41.197|63=3|100=XSGO|150=F|151=386000|207=XSGO|583=44bcb15c0ec74ebf|10=095|8=FIX.4.4|9=342|35=8|34=255|49=LVSSG_ARB|52=20150527-19:43:08.527|56=LVARB|1=109976|6=34.19|11=2747d39851c645c1|14=15000|17=4e300c04ab6948d4|21=1|31=34.19|32=1000|37=3328b8c4cb334ca7|38=1000|39=2|40=2|44=34.19|54=2|55=BSANTANDER|58=New Sell BSANTANDER 1000.0 @ 34.22|59=0|60=20150527-19:43:08.501|63=3|100=XSGO|150=F|151=-14000|207=XSGO|583=26d0e01470ce4566|10=155|8=FIX.4.4|9=359|35=8|34=256|49=LVSSG_ARB|52=20150527-19:43:08.527|56=LVARB|1=591866109-00|6=34.19631578947369|11=23dbf741c86b694|14=19000|17=637e17c39cb4a1b|21=1|31=34.19|32=1000|37=eabf4e4c3fd412e|38=404000|39=1|40=2|44=34.19|54=1|55=BSANTANDER|58=New Buy BSANTANDER 400000.0 @ 32.6|59=0|60=20150527-19:42:41.197|63=3|100=XSGO|150=F|151=385000|207=XSGO|583=44bcb15c0ec74ebf|10=024|8=FIX.4.4|9=342|35=8|34=257|49=LVSSG_ARB|52=20150527-19:43:08.527|56=LVARB|1=109976|6=34.19|11=2747d39851c645c1|14=16000|17=7531d3335fb44230|21=1|31=34.19|32=1000|37=3328b8c4cb334ca7|38=1000|39=2|40=2|44=34.19|54=2|55=BSANTANDER|58=New Sell BSANTANDER 1000.0 @ 34.22|59=0|60=20150527-19:43:08.501|63=3|100=XSGO|150=F|151=-15000|207=XSGO|583=26d0e01470ce4566|10=061|8=FIX.4.4|9=350|35=8|34=258|49=LVSSG_ARB|52=20150527-19:43:08.528|56=LVARB|1=591866109-00|6=34.196|11=23dbf741c86b694|14=20000|17=-4994342be57eb4f7|21=1|31=34.19|32=1000|37=eabf4e4c3fd412e|38=404000|39=1|40=2|44=34.19|54=1|55=BSANTANDER|58=New Buy BSANTANDER 400000.0 @ 32.6|59=0|60=20150527-19:42:41.197|63=3|100=XSGO|150=F|151=384000|207=XSGO|583=44bcb15c0ec74ebf|10=253|8=FIX.4.4|9=343|35=8|34=259|49=LVSSG_ARB|52=20150527-19:43:08.530|56=LVARB|1=109976|6=34.19|11=2747d39851c645c1|14=17000|17=-57c3e48702cdb262|21=1|31=34.19|32=1000|37=3328b8c4cb334ca7|38=1000|39=2|40=2|44=34.19|54=2|55=BSANTANDER|58=New Sell BSANTANDER 1000.0 @ 34.22|59=0|60=20150527-19:43:08.501|63=3|100=XSGO|150=F|151=-16000|207=XSGO|583=26d0e01470ce4566|10=209|8=FIX.4.4|9=360|35=8|34=260|49=LVSSG_ARB|52=20150527-19:43:08.530|56=LVARB|1=591866109-00|6=34.19571428571429|11=23dbf741c86b694|14=21000|17=58dea3a03ef4436f|21=1|31=34.19|32=1000|37=eabf4e4c3fd412e|38=404000|39=1|40=2|44=34.19|54=1|55=BSANTANDER|58=New Buy BSANTANDER 400000.0 @ 32.6|59=0|60=20150527-19:42:41.197|63=3|100=XSGO|150=F|151=383000|207=XSGO|583=44bcb15c0ec74ebf|10=086|8=FIX.4.4|9=343|35=8|34=261|49=LVSSG_ARB|52=20150527-19:43:08.530|56=LVARB|1=109976|6=34.19|11=2747d39851c645c1|14=18000|17=-24bcff073c81b523|21=1|31=34.19|32=1000|37=3328b8c4cb334ca7|38=1000|39=2|40=2|44=34.19|54=2|55=BSANTANDER|58=New Sell BSANTANDER 1000.0 @ 34.22|59=0|60=20150527-19:43:08.501|63=3|100=XSGO|150=F|151=-17000|207=XSGO|583=26d0e01470ce4566|10=246|8=FIX.4.4|9=361|35=8|34=262|49=LVSSG_ARB|52=20150527-19:43:08.531|56=LVARB|1=591866109-00|6=34.19545454545455|11=23dbf741c86b694|14=22000|17=-46070015fbe3b2a0|21=1|31=34.19|32=1000|37=eabf4e4c3fd412e|38=404000|39=1|40=2|44=34.19|54=1|55=BSANTANDER|58=New Buy BSANTANDER 400000.0 @ 32.6|59=0|60=20150527-19:42:41.197|63=3|100=XSGO|150=F|151=382000|207=XSGO|583=44bcb15c0ec74ebf|10=019|8=FIX.4.4|9=343|35=8|34=263|49=LVSSG_ARB|52=20150527-19:43:08.531|56=LVARB|1=109976|6=34.19|11=2747d39851c645c1|14=19000|17=-1698222c5945b8ac|21=1|31=34.19|32=1000|37=3328b8c4cb334ca7|38=1000|39=2|40=2|44=34.19|54=2|55=BSANTANDER|58=New Sell BSANTANDER 1000.0 @ 34.22|59=0|60=20150527-19:43:08.501|63=3|100=XSGO|150=F|151=-18000|207=XSGO|583=26d0e01470ce4566|10=168|8=FIX.4.4|9=360|35=8|34=264|49=LVSSG_ARB|52=20150527-19:43:08.531|56=LVARB|1=591866109-00|6=34.19521739130435|11=23dbf741c86b694|14=23000|17=-170bc41586eb12a|21=1|31=34.19|32=1000|37=eabf4e4c3fd412e|38=404000|39=1|40=2|44=34.19|54=1|55=BSANTANDER|58=New Buy BSANTANDER 400000.0 @ 32.6|59=0|60=20150527-19:42:41.197|63=3|100=XSGO|150=F|151=381000|207=XSGO|583=44bcb15c0ec74ebf|10=220|8=FIX.4.4|9=343|35=8|34=265|49=LVSSG_ARB|52=20150527-19:43:08.531|56=LVARB|1=109976|6=34.19|11=2747d39851c645c1|14=20000|17=-6129faec9790b3bd|21=1|31=34.19|32=1000|37=3328b8c4cb334ca7|38=1000|39=2|40=2|44=34.19|54=2|55=BSANTANDER|58=New Sell BSANTANDER 1000.0 @ 34.22|59=0|60=20150527-19:43:08.501|63=3|100=XSGO|150=F|151=-19000|207=XSGO|583=26d0e01470ce4566|10=050|8=FIX.4.4|9=349|35=8|34=266|49=LVSSG_ARB|52=20150527-19:43:08.531|56=LVARB|1=591866109-00|6=34.195|11=23dbf741c86b694|14=24000|17=31b26899f947443a|21=1|31=34.19|32=1000|37=eabf4e4c3fd412e|38=404000|39=1|40=2|44=34.19|54=1|55=BSANTANDER|58=New Buy BSANTANDER 400000.0 @ 32.6|59=0|60=20150527-19:42:41.197|63=3|100=XSGO|150=F|151=380000|207=XSGO|583=44bcb15c0ec74ebf|10=112|8=FIX.4.4|9=341|35=8|34=267|49=LVSSG_ARB|52=20150527-19:43:08.531|56=LVARB|1=109976|6=34.19|11=2747d39851c645c1|14=21000|17=b25775dbaa14174|21=1|31=34.19|32=1000|37=3328b8c4cb334ca7|38=1000|39=2|40=2|44=34.19|54=2|55=BSANTANDER|58=New Sell BSANTANDER 1000.0 @ 34.22|59=0|60=20150527-19:43:08.501|63=3|100=XSGO|150=F|151=-20000|207=XSGO|583=26d0e01470ce4566|10=094|8=FIX.4.4|9=350|35=8|34=268|49=LVSSG_ARB|52=20150527-19:43:08.531|56=LVARB|1=591866109-00|6=34.1948|11=23dbf741c86b694|14=25000|17=186024246f8b4168|21=1|31=34.19|32=1000|37=eabf4e4c3fd412e|38=404000|39=1|40=2|44=34.19|54=1|55=BSANTANDER|58=New Buy BSANTANDER 400000.0 @ 32.6|59=0|60=20150527-19:42:41.197|63=3|100=XSGO|150=F|151=379000|207=XSGO|583=44bcb15c0ec74ebf|10=112|8=FIX.4.4|9=342|35=8|34=269|49=LVSSG_ARB|52=20150527-19:43:08.531|56=LVARB|1=109976|6=34.19|11=2747d39851c645c1|14=22000|17=42c03aabbe744439|21=1|31=34.19|32=1000|37=3328b8c4cb334ca7|38=1000|39=2|40=2|44=34.19|54=2|55=BSANTANDER|58=New Sell BSANTANDER 1000.0 @ 34.22|59=0|60=20150527-19:43:08.501|63=3|100=XSGO|150=F|151=-21000|207=XSGO|583=26d0e01470ce4566|10=196|8=FIX.4.4|9=360|35=8|34=270|49=LVSSG_ARB|52=20150527-19:43:08.531|56=LVARB|1=591866109-00|6=34.19461538461538|11=23dbf741c86b694|14=26000|17=3fb95d2613d44d1d|21=1|31=34.19|32=1000|37=eabf4e4c3fd412e|38=404000|39=1|40=2|44=34.19|54=1|55=BSANTANDER|58=New Buy BSANTANDER 400000.0 @ 32.6|59=0|60=20150527-19:42:41.197|63=3|100=XSGO|150=F|151=378000|207=XSGO|583=44bcb15c0ec74ebf|10=046|8=FIX.4.4|9=343|35=8|34=271|49=LVSSG_ARB|52=20150527-19:43:08.531|56=LVARB|1=109976|6=34.19|11=2747d39851c645c1|14=23000|17=-4ce6338cc449b0d8|21=1|31=34.19|32=1000|37=3328b8c4cb334ca7|38=1000|39=2|40=2|44=34.19|54=2|55=BSANTANDER|58=New Sell BSANTANDER 1000.0 @ 34.22|59=0|60=20150527-19:43:08.501|63=3|100=XSGO|150=F|151=-22000|207=XSGO|583=26d0e01470ce4566|10=252|8=FIX.4.4|9=361|35=8|34=272|49=LVSSG_ARB|52=20150527-19:43:08.532|56=LVARB|1=591866109-00|6=34.19444444444444|11=23dbf741c86b694|14=27000|17=-265fb2d5b6b2b183|21=1|31=34.19|32=1000|37=eabf4e4c3fd412e|38=404000|39=1|40=2|44=34.19|54=1|55=BSANTANDER|58=New Buy BSANTANDER 400000.0 @ 32.6|59=0|60=20150527-19:42:41.197|63=3|100=XSGO|150=F|151=377000|207=XSGO|583=44bcb15c0ec74ebf|10=085|8=FIX.4.4|9=342|35=8|34=273|49=LVSSG_ARB|52=20150527-19:43:08.532|56=LVARB|1=109976|6=34.19|11=2747d39851c645c1|14=24000|17=4a3c090ceb594963|21=1|31=34.19|32=1000|37=3328b8c4cb334ca7|38=1000|39=2|40=2|44=34.19|54=2|55=BSANTANDER|58=New Sell BSANTANDER 1000.0 @ 34.22|59=0|60=20150527-19:43:08.501|63=3|100=XSGO|150=F|151=-23000|207=XSGO|583=26d0e01470ce4566|10=160|8=FIX.4.4|9=361|35=8|34=274|49=LVSSG_ARB|52=20150527-19: