8=FIX.4.4|9=75|35=A|34=1|49=LVSSG_ARB|52=20150618-20:39:20.789|56=LVARB|98=0|108=60|141=Y|10=123|8=FIX.4.4|9=365|35=8|34=2|49=LVSSG_ARB|52=20150618-20:40:15.568|56=LVARB|1=805370009-32|6=0|11=1506181740160016|14=0|17=-e292792377bb7f2|21=1|31=0|32=0|37=-18e042512a7db899|38=20000|39=0|40=2|44=11800|54=2|55=HCOLSEL|58=New Sell HCOLSEL 20000.0 @ 11800.0|59=0|60=20150618-20:40:15.515|63=3|100=XBOG|150=0|151=20000|207=XBOG|526=No01|583=1506181739510006|453=1|448=LARR|447=D|452=1|10=121|8=FIX.4.4|9=366|35=8|34=3|49=LVSSG_ARB|52=20150618-20:40:15.620|56=LVARB|1=805370009-32|6=0|11=1506181740160012|14=0|17=-4293d3e0a605bd29|21=1|31=0|32=0|37=-3a45e219f957bb0b|38=20000|39=0|40=2|44=11800|54=2|55=HCOLSEL|58=New Sell HCOLSEL 20000.0 @ 11800.0|59=0|60=20150618-20:40:15.518|63=3|100=XBOG|150=0|151=20000|207=XBOG|526=No02|583=1506181739510006|453=1|448=LARR|447=D|452=1|10=030|8=FIX.4.4|9=366|35=8|34=4|49=LVSSG_ARB|52=20150618-20:40:15.671|56=LVARB|1=805370009-32|6=0|11=1506181740160014|14=0|17=-54e5ec3745ffbaf8|21=1|31=0|32=0|37=-3f39e8fb304fbb31|38=30000|39=0|40=2|44=11800|54=2|55=HCOLSEL|58=New Sell HCOLSEL 30000.0 @ 11800.0|59=0|60=20150618-20:40:15.618|63=3|100=XBOG|150=0|151=30000|207=XBOG|526=No03|583=1506181739510006|453=1|448=LARR|447=D|452=1|10=252|8=FIX.4.4|9=386|35=8|34=5|49=LVSSG_ARB|52=20150618-20:40:26.672|56=LVARB|1=805370009-32|6=0|11=1506181740270018|14=0|17=-577caf4f8c7bb8c4|21=1|31=0|32=0|37=-3f39e8fb304fbb31|38=30000|39=4|40=2|41=1506181740160014|44=11800|54=2|55=HCOLSEL|58=New Sell HCOLSEL 30000.0 @ 11800.0|59=0|60=20150618-20:40:26.621|63=3|100=XBOG|150=4|151=30000|207=XBOG|526=No03|583=1506181739510006|453=1|448=LARR|447=D|452=1|10=221|8=FIX.4.4|9=386|35=8|34=6|49=LVSSG_ARB|52=20150618-20:40:26.723|56=LVARB|1=805370009-32|6=0|11=1506181740270020|14=0|17=-57af29631d0ab607|21=1|31=0|32=0|37=-18e042512a7db899|38=20000|39=4|40=2|41=1506181740160016|44=11800|54=2|55=HCOLSEL|58=New Sell HCOLSEL 20000.0 @ 11800.0|59=0|60=20150618-20:40:26.622|63=3|100=XBOG|150=4|151=20000|207=XBOG|526=No01|583=1506181739510006|453=1|448=LARR|447=D|452=1|10=167|8=FIX.4.4|9=385|35=8|34=7|49=LVSSG_ARB|52=20150618-20:40:26.775|56=LVARB|1=805370009-32|6=0|11=1506181740270022|14=0|17=786488f3132d4865|21=1|31=0|32=0|37=-3a45e219f957bb0b|38=20000|39=4|40=2|41=1506181740160012|44=11800|54=2|55=HCOLSEL|58=New Sell HCOLSEL 20000.0 @ 11800.0|59=0|60=20150618-20:40:26.674|63=3|100=XBOG|150=4|151=20000|207=XBOG|526=No02|583=1506181739510006|453=1|448=LARR|447=D|452=1|10=105|8=FIX.4.4|9=364|35=8|34=8|49=LVSSG_ARB|52=20150618-20:41:20.797|56=LVARB|1=805370009-32|6=0|11=1506181741210024|14=0|17=1b757c1d8d054e33|21=1|31=0|32=0|37=25383721154b4b04|38=30000|39=0|40=2|44=11800|54=2|55=HCOLSEL|58=New Sell HCOLSEL 30000.0 @ 11800.0|59=0|60=20150618-20:41:20.747|63=3|100=XBOG|150=0|151=30000|207=XBOG|526=No03|583=1506181739510006|453=1|448=LARR|447=D|452=1|10=017|8=FIX.4.4|9=365|35=8|34=9|49=LVSSG_ARB|52=20150618-20:41:20.848|56=LVARB|1=805370009-32|6=0|11=1506181741210026|14=0|17=-3078ac297af4b318|21=1|31=0|32=0|37=4a962e45de664609|38=20000|39=0|40=2|44=11800|54=2|55=HCOLSEL|58=New Sell HCOLSEL 20000.0 @ 11800.0|59=0|60=20150618-20:41:20.747|63=3|100=XBOG|150=0|151=20000|207=XBOG|526=No01|583=1506181739510006|453=1|448=LARR|447=D|452=1|10=180|8=FIX.4.4|9=364|35=8|34=10|49=LVSSG_ARB|52=20150618-20:41:20.899|56=LVARB|1=805370009-32|6=0|11=1506181741210028|14=0|17=abb095f626340d9|21=1|31=0|32=0|37=2d4a04035d6a4902|38=20000|39=0|40=2|44=11800|54=2|55=HCOLSEL|58=New Sell HCOLSEL 20000.0 @ 11800.0|59=0|60=20150618-20:41:20.847|63=3|100=XBOG|150=0|151=20000|207=XBOG|526=No02|583=1506181739510006|453=1|448=LARR|447=D|452=1|10=103|