20150520-11:09:08.269: 8=FIX.4.4|9=65|35=5|34=1|49=LVDEVELOP8|52=20150520-11:09:08.269|56=MKDATAFHBCS2|10=018|
20150520-11:09:09.205: 8=FIX.4.4|9=65|35=5|34=1|49=LVDEVELOP8|52=20150520-11:09:09.205|56=MKDATAFHBCS2|10=009|
20150520-11:09:10.196: 8=FIX.4.4|9=83|35=A|34=1|49=LVDEVELOP8|52=20150520-11:09:10.196|56=MKDATAFHBCS2|98=0|108=60|141=Y|10=095|
20150520-11:09:10.199: 8=FIX.4.4|9=65|35=5|34=1|49=MKDATAFHBCS2|52=20150520-11:09:10.379|56=LVDEVELOP8|10=013|
20150520-11:09:10.201: 8=FIX.4.4|9=65|35=5|34=2|49=LVDEVELOP8|52=20150520-11:09:10.201|56=MKDATAFHBCS2|10=254|
20150520-11:09:11.197: 8=FIX.4.4|9=83|35=A|34=1|49=LVDEVELOP8|52=20150520-11:09:11.197|56=MKDATAFHBCS2|98=0|108=60|141=Y|10=097|
20150520-11:09:11.201: 8=FIX.4.4|9=65|35=5|34=1|49=MKDATAFHBCS2|52=20150520-11:09:11.374|56=LVDEVELOP8|10=009|
20150520-11:09:11.201: 8=FIX.4.4|9=65|35=5|34=2|49=LVDEVELOP8|52=20150520-11:09:11.201|56=MKDATAFHBCS2|10=255|
20150520-11:09:12.197: 8=FIX.4.4|9=83|35=A|34=1|49=LVDEVELOP8|52=20150520-11:09:12.197|56=MKDATAFHBCS2|98=0|108=60|141=Y|10=098|
20150520-11:09:12.201: 8=FIX.4.4|9=83|35=A|34=1|49=MKDATAFHBCS2|52=20150520-11:09:12.370|56=LVDEVELOP8|98=0|108=60|141=Y|10=091|
20150520-11:10:12.794: 8=FIX.4.4|9=65|35=0|34=2|49=MKDATAFHBCS2|52=20150520-11:10:12.805|56=LVDEVELOP8|10=253|
20150520-11:10:12.794: 8=FIX.4.4|9=65|35=0|34=2|49=LVDEVELOP8|52=20150520-11:10:12.794|56=MKDATAFHBCS2|10=004|
20150520-11:11:12.791: 8=FIX.4.4|9=65|35=0|34=3|49=MKDATAFHBCS2|52=20150520-11:11:12.858|56=LVDEVELOP8|10=007|
20150520-11:11:13.196: 8=FIX.4.4|9=65|35=0|34=3|49=LVDEVELOP8|52=20150520-11:11:13.196|56=MKDATAFHBCS2|10=003|
20150520-11:12:12.788: 8=FIX.4.4|9=65|35=0|34=4|49=MKDATAFHBCS2|52=20150520-11:12:12.917|56=LVDEVELOP8|10=005|
20150520-11:12:13.197: 8=FIX.4.4|9=65|35=0|34=4|49=LVDEVELOP8|52=20150520-11:12:13.197|56=MKDATAFHBCS2|10=006|
20150520-11:13:12.801: 8=FIX.4.4|9=65|35=0|34=5|49=MKDATAFHBCS2|52=20150520-11:13:12.963|56=LVDEVELOP8|10=008|
20150520-11:13:14.197: 8=FIX.4.4|9=65|35=0|34=5|49=LVDEVELOP8|52=20150520-11:13:14.196|56=MKDATAFHBCS2|10=008|
20150520-11:14:12.798: 8=FIX.4.4|9=65|35=0|34=6|49=MKDATAFHBCS2|52=20150520-11:14:12.977|56=LVDEVELOP8|10=015|
20150520-11:14:14.197: 8=FIX.4.4|9=65|35=0|34=6|49=LVDEVELOP8|52=20150520-11:14:14.197|56=MKDATAFHBCS2|10=011|
20150520-11:15:13.795: 8=FIX.4.4|9=65|35=0|34=7|49=MKDATAFHBCS2|52=20150520-11:15:13.846|56=LVDEVELOP8|10=013|
20150520-11:15:15.196: 8=FIX.4.4|9=65|35=0|34=7|49=LVDEVELOP8|52=20150520-11:15:15.196|56=MKDATAFHBCS2|10=013|
20150520-11:16:13.792: 8=FIX.4.4|9=65|35=0|34=8|49=MKDATAFHBCS2|52=20150520-11:16:13.889|56=LVDEVELOP8|10=022|
20150520-11:16:15.196: 8=FIX.4.4|9=65|35=0|34=8|49=LVDEVELOP8|52=20150520-11:16:15.196|56=MKDATAFHBCS2|10=015|
20150520-11:17:13.789: 8=FIX.4.4|9=65|35=0|34=9|49=MKDATAFHBCS2|52=20150520-11:17:13.935|56=LVDEVELOP8|10=016|
20150520-11:17:15.196: 8=FIX.4.4|9=65|35=0|34=9|49=LVDEVELOP8|52=20150520-11:17:15.196|56=MKDATAFHBCS2|10=017|
20150520-11:18:13.787: 8=FIX.4.4|9=66|35=0|34=10|49=MKDATAFHBCS2|52=20150520-11:18:13.956|56=LVDEVELOP8|10=061|
20150520-11:18:15.197: 8=FIX.4.4|9=66|35=0|34=10|49=LVDEVELOP8|52=20150520-11:18:15.197|56=MKDATAFHBCS2|10=060|
20150520-11:19:13.800: 8=FIX.4.4|9=66|35=0|34=11|49=MKDATAFHBCS2|52=20150520-11:19:13.982|56=LVDEVELOP8|10=062|
20150520-11:19:16.196: 8=FIX.4.4|9=66|35=0|34=11|49=LVDEVELOP8|52=20150520-11:19:16.196|56=MKDATAFHBCS2|10=062|
20150520-11:20:14.796: 8=FIX.4.4|9=66|35=0|34=12|49=MKDATAFHBCS2|52=20150520-11:20:14.852|56=LVDEVELOP8|10=052|
20150520-11:20:16.197: 8=FIX.4.4|9=66|35=0|34=12|49=LVDEVELOP8|52=20150520-11:20:16.197|56=MKDATAFHBCS2|10=056|
20150520-11:21:14.793: 8=FIX.4.4|9=66|35=0|34=13|49=MKDATAFHBCS2|52=20150520-11:21:14.896|56=LVDEVELOP8|10=062|
20150520-11:21:16.197: 8=FIX.4.4|9=66|35=0|34=13|49=LVDEVELOP8|52=20150520-11:21:16.197|56=MKDATAFHBCS2|10=058|
20150520-11:22:14.790: 8=FIX.4.4|9=66|35=0|34=14|49=MKDATAFHBCS2|52=20150520-11:22:14.940|56=LVDEVELOP8|10=054|
20150520-11:22:17.196: 8=FIX.4.4|9=66|35=0|34=14|49=LVDEVELOP8|52=20150520-11:22:17.196|56=MKDATAFHBCS2|10=060|
20150520-11:23:14.787: 8=FIX.4.4|9=66|35=0|34=15|49=MKDATAFHBCS2|52=20150520-11:23:14.960|56=LVDEVELOP8|10=058|
20150520-11:23:17.196: 8=FIX.4.4|9=66|35=0|34=15|49=LVDEVELOP8|52=20150520-11:23:17.196|56=MKDATAFHBCS2|10=062|
20150520-11:24:14.785: 8=FIX.4.4|9=66|35=0|34=16|49=MKDATAFHBCS2|52=20150520-11:24:14.968|56=LVDEVELOP8|10=068|
20150520-11:24:17.197: 8=FIX.4.4|9=66|35=0|34=16|49=LVDEVELOP8|52=20150520-11:24:17.197|56=MKDATAFHBCS2|10=065|
20150520-11:25:15.810: 8=FIX.4.4|9=66|35=0|34=17|49=MKDATAFHBCS2|52=20150520-11:25:15.852|56=LVDEVELOP8|10=063|
20150520-11:25:18.197: 8=FIX.4.4|9=66|35=0|34=17|49=LVDEVELOP8|52=20150520-11:25:18.197|56=MKDATAFHBCS2|10=068|
20150520-11:26:15.794: 8=FIX.4.4|9=66|35=0|34=18|49=MKDATAFHBCS2|52=20150520-11:26:15.898|56=LVDEVELOP8|10=075|
20150520-11:26:18.197: 8=FIX.4.4|9=66|35=0|34=18|49=LVDEVELOP8|52=20150520-11:26:18.197|56=MKDATAFHBCS2|10=070|
20150520-11:27:16.790: 8=FIX.4.4|9=66|35=0|34=19|49=MKDATAFHBCS2|52=20150520-11:27:16.778|56=LVDEVELOP8|10=075|
20150520-11:27:18.197: 8=FIX.4.4|9=66|35=0|34=19|49=LVDEVELOP8|52=20150520-11:27:18.197|56=MKDATAFHBCS2|10=072|
20150520-11:28:16.787: 8=FIX.4.4|9=66|35=0|34=20|49=MKDATAFHBCS2|52=20150520-11:28:16.856|56=LVDEVELOP8|10=065|
20150520-11:28:18.197: 8=FIX.4.4|9=66|35=0|34=20|49=LVDEVELOP8|52=20150520-11:28:18.197|56=MKDATAFHBCS2|10=065|
20150520-11:29:16.784: 8=FIX.4.4|9=66|35=0|34=21|49=MKDATAFHBCS2|52=20150520-11:29:16.916|56=LVDEVELOP8|10=064|
20150520-11:29:19.196: 8=FIX.4.4|9=66|35=0|34=21|49=LVDEVELOP8|52=20150520-11:29:19.196|56=MKDATAFHBCS2|10=067|
20150520-11:30:16.782: 8=FIX.4.4|9=66|35=0|34=22|49=MKDATAFHBCS2|52=20150520-11:30:16.945|56=LVDEVELOP8|10=059|
20150520-11:30:19.197: 8=FIX.4.4|9=66|35=0|34=22|49=LVDEVELOP8|52=20150520-11:30:19.196|56=MKDATAFHBCS2|10=060|
20150520-11:31:16.799: 8=FIX.4.4|9=66|35=0|34=23|49=MKDATAFHBCS2|52=20150520-11:31:16.973|56=LVDEVELOP8|10=062|
20150520-11:31:19.197: 8=FIX.4.4|9=66|35=0|34=23|49=LVDEVELOP8|52=20150520-11:31:19.197|56=MKDATAFHBCS2|10=063|
20150520-11:32:17.791: 8=FIX.4.4|9=66|35=0|34=24|49=MKDATAFHBCS2|52=20150520-11:32:17.845|56=LVDEVELOP8|10=063|
20150520-11:32:19.197: 8=FIX.4.4|9=66|35=0|34=24|49=LVDEVELOP8|52=20150520-11:32:19.197|56=MKDATAFHBCS2|10=065|
20150520-11:33:17.789: 8=FIX.4.4|9=66|35=0|34=25|49=MKDATAFHBCS2|52=20150520-11:33:17.895|56=LVDEVELOP8|10=070|
20150520-11:33:19.197: 8=FIX.4.4|9=66|35=0|34=25|49=LVDEVELOP8|52=20150520-11:33:19.197|56=MKDATAFHBCS2|10=067|
20150520-11:34:17.787: 8=FIX.4.4|9=66|35=0|34=26|49=MKDATAFHBCS2|52=20150520-11:34:17.934|56=LVDEVELOP8|10=066|
20150520-11:34:19.197: 8=FIX.4.4|9=66|35=0|34=26|49=LVDEVELOP8|52=20150520-11:34:19.197|56=MKDATAFHBCS2|10=069|
20150520-11:35:17.783: 8=FIX.4.4|9=66|35=0|34=27|49=MKDATAFHBCS2|52=20150520-11:35:17.952|56=LVDEVELOP8|10=068|
20150520-11:35:20.197: 8=FIX.4.4|9=66|35=0|34=27|49=LVDEVELOP8|52=20150520-11:35:20.197|56=MKDATAFHBCS2|10=063|
20150520-11:36:17.780: 8=FIX.4.4|9=66|35=0|34=28|49=MKDATAFHBCS2|52=20150520-11:36:17.962|56=LVDEVELOP8|10=071|
20150520-11:36:21.196: 8=FIX.4.4|9=66|35=0|34=28|49=LVDEVELOP8|52=20150520-11:36:21.196|56=MKDATAFHBCS2|10=065|
20150520-11:37:18.791: 8=FIX.4.4|9=66|35=0|34=29|49=MKDATAFHBCS2|52=20150520-11:37:18.849|56=LVDEVELOP8|10=078|
20150520-11:37:21.197: 8=FIX.4.4|9=66|35=0|34=29|49=LVDEVELOP8|52=20150520-11:37:21.197|56=MKDATAFHBCS2|10=068|
20150520-11:38:18.801: 8=FIX.4.4|9=66|35=0|34=30|49=MKDATAFHBCS2|52=20150520-11:38:18.903|56=LVDEVELOP8|10=062|
20150520-11:38:22.197: 8=FIX.4.4|9=66|35=0|34=30|49=LVDEVELOP8|52=20150520-11:38:22.197|56=MKDATAFHBCS2|10=062|
20150520-11:39:18.786: 8=FIX.4.4|9=66|35=0|34=31|49=MKDATAFHBCS2|52=20150520-11:39:18.942|56=LVDEVELOP8|10=067|
20150520-11:39:23.197: 8=FIX.4.4|9=66|35=0|34=31|49=LVDEVELOP8|52=20150520-11:39:23.197|56=MKDATAFHBCS2|10=065|
20150520-11:40:18.784: 8=FIX.4.4|9=66|35=0|34=32|49=MKDATAFHBCS2|52=20150520-11:40:18.959|56=LVDEVELOP8|10=068|
20150520-11:40:24.196: 8=FIX.4.4|9=66|35=0|34=32|49=LVDEVELOP8|52=20150520-11:40:24.196|56=MKDATAFHBCS2|10=058|
20150520-11:41:18.781: 8=FIX.4.4|9=66|35=0|34=33|49=MKDATAFHBCS2|52=20150520-11:41:18.965|56=LVDEVELOP8|10=067|
20150520-11:41:24.197: 8=FIX.4.4|9=66|35=0|34=33|49=LVDEVELOP8|52=20150520-11:41:24.197|56=MKDATAFHBCS2|10=061|
20150520-11:42:19.794: 8=FIX.4.4|9=66|35=0|34=34|49=MKDATAFHBCS2|52=20150520-11:42:19.849|56=LVDEVELOP8|10=071|
20150520-11:42:24.197: 8=FIX.4.4|9=66|35=0|34=34|49=LVDEVELOP8|52=20150520-11:42:24.197|56=MKDATAFHBCS2|10=063|
20150520-11:43:19.790: 8=FIX.4.4|9=66|35=0|34=35|49=MKDATAFHBCS2|52=20150520-11:43:19.906|56=LVDEVELOP8|10=067|
20150520-11:43:25.196: 8=FIX.4.4|9=66|35=0|34=35|49=LVDEVELOP8|52=20150520-11:43:25.196|56=MKDATAFHBCS2|10=065|
20150520-11:44:20.786: 8=FIX.4.4|9=66|35=0|34=36|49=MKDATAFHBCS2|52=20150520-11:44:20.781|56=LVDEVELOP8|10=062|
20150520-11:44:25.196: 8=FIX.4.4|9=66|35=0|34=36|49=LVDEVELOP8|52=20150520-11:44:25.196|56=MKDATAFHBCS2|10=067|
20150520-11:45:20.783: 8=FIX.4.4|9=66|35=0|34=37|49=MKDATAFHBCS2|52=20150520-11:45:20.867|56=LVDEVELOP8|10=069|
20150520-11:45:25.197: 8=FIX.4.4|9=66|35=0|34=37|49=LVDEVELOP8|52=20150520-11:45:25.197|56=MKDATAFHBCS2|10=070|
20150520-11:46:20.780: 8=FIX.4.4|9=66|35=0|34=38|49=MKDATAFHBCS2|52=20150520-11:46:20.918|56=LVDEVELOP8|10=068|
20150520-11:46:26.196: 8=FIX.4.4|9=66|35=0|34=38|49=LVDEVELOP8|52=20150520-11:46:26.196|56=MKDATAFHBCS2|10=072|
20150520-11:47:20.778: 8=FIX.4.4|9=66|35=0|34=39|49=MKDATAFHBCS2|52=20150520-11:47:20.943|56=LVDEVELOP8|10=068|
20150520-11:47:26.197: 8=FIX.4.4|9=66|35=0|34=39|49=LVDEVELOP8|52=20150520-11:47:26.197|56=MKDATAFHBCS2|10=075|
20150520-11:48:20.791: 8=FIX.4.4|9=66|35=0|34=40|49=MKDATAFHBCS2|52=20150520-11:48:20.971|56=LVDEVELOP8|10=062|
20150520-11:48:26.197: 8=FIX.4.4|9=66|35=0|34=40|49=LVDEVELOP8|52=20150520-11:48:26.197|56=MKDATAFHBCS2|10=068|
20150520-11:49:21.787: 8=FIX.4.4|9=66|35=0|34=41|49=MKDATAFHBCS2|52=20150520-11:49:21.842|56=LVDEVELOP8|10=062|
20150520-11:49:27.197: 8=FIX.4.4|9=66|35=0|34=41|49=LVDEVELOP8|52=20150520-11:49:27.197|56=MKDATAFHBCS2|10=071|
20150520-11:50:21.784: 8=FIX.4.4|9=66|35=0|34=42|49=MKDATAFHBCS2|52=20150520-11:50:21.904|56=LVDEVELOP8|10=054|
20150520-11:50:28.196: 8=FIX.4.4|9=66|35=0|34=42|49=LVDEVELOP8|52=20150520-11:50:28.196|56=MKDATAFHBCS2|10=064|
20150520-11:51:21.781: 8=FIX.4.4|9=66|35=0|34=43|49=MKDATAFHBCS2|52=20150520-11:51:21.940|56=LVDEVELOP8|10=056|
20150520-11:51:28.197: 8=FIX.4.4|9=66|35=0|34=43|49=LVDEVELOP8|52=20150520-11:51:28.197|56=MKDATAFHBCS2|10=067|
20150520-11:52:21.779: 8=FIX.4.4|9=66|35=0|34=44|49=MKDATAFHBCS2|52=20150520-11:52:21.955|56=LVDEVELOP8|10=064|
20150520-11:52:28.197: 8=FIX.4.4|9=66|35=0|34=44|49=LVDEVELOP8|52=20150520-11:52:28.197|56=MKDATAFHBCS2|10=069|
20150520-11:53:21.781: 8=FIX.4.4|9=66|35=0|34=45|49=MKDATAFHBCS2|52=20150520-11:53:21.961|56=LVDEVELOP8|10=063|
20150520-11:53:28.197: 8=FIX.4.4|9=66|35=0|34=45|49=LVDEVELOP8|52=20150520-11:53:28.197|56=MKDATAFHBCS2|10=071|
20150520-11:54:22.788: 8=FIX.4.4|9=66|35=0|34=46|49=MKDATAFHBCS2|52=20150520-11:54:22.847|56=LVDEVELOP8|10=069|
20150520-11:54:29.196: 8=FIX.4.4|9=66|35=0|34=46|49=LVDEVELOP8|52=20150520-11:54:29.196|56=MKDATAFHBCS2|10=073|
20150520-11:55:22.785: 8=FIX.4.4|9=66|35=0|34=47|49=MKDATAFHBCS2|52=20150520-11:55:22.910|56=LVDEVELOP8|10=062|
20150520-11:55:29.196: 8=FIX.4.4|9=66|35=0|34=47|49=LVDEVELOP8|52=20150520-11:55:29.196|56=MKDATAFHBCS2|10=075|
20150520-11:56:22.782: 8=FIX.4.4|9=66|35=0|34=48|49=MKDATAFHBCS2|52=20150520-11:56:22.943|56=LVDEVELOP8|10=070|
20150520-11:56:29.196: 8=FIX.4.4|9=66|35=0|34=48|49=LVDEVELOP8|52=20150520-11:56:29.196|56=MKDATAFHBCS2|10=077|
20150520-11:57:22.780: 8=FIX.4.4|9=66|35=0|34=49|49=MKDATAFHBCS2|52=20150520-11:57:22.958|56=LVDEVELOP8|10=078|
20150520-11:57:29.196: 8=FIX.4.4|9=66|35=0|34=49|49=LVDEVELOP8|52=20150520-11:57:29.196|56=MKDATAFHBCS2|10=079|
20150520-11:58:22.780: 8=FIX.4.4|9=66|35=0|34=50|49=MKDATAFHBCS2|52=20150520-11:58:22.963|56=LVDEVELOP8|10=067|
20150520-11:58:29.197: 8=FIX.4.4|9=66|35=0|34=50|49=LVDEVELOP8|52=20150520-11:58:29.196|56=MKDATAFHBCS2|10=072|
20150520-11:59:23.774: 8=FIX.4.4|9=66|35=0|34=51|49=MKDATAFHBCS2|52=20150520-11:59:23.832|56=LVDEVELOP8|10=065|
20150520-11:59:29.196: 8=FIX.4.4|9=66|35=0|34=51|49=LVDEVELOP8|52=20150520-11:59:29.196|56=MKDATAFHBCS2|10=074|
20150520-12:00:23.787: 8=FIX.4.4|9=66|35=0|34=52|49=MKDATAFHBCS2|52=20150520-12:00:23.914|56=LVDEVELOP8|10=054|
20150520-12:00:29.197: 8=FIX.4.4|9=66|35=0|34=52|49=LVDEVELOP8|52=20150520-12:00:29.197|56=MKDATAFHBCS2|10=063|
20150520-12:01:24.782: 8=FIX.4.4|9=66|35=0|34=53|49=MKDATAFHBCS2|52=20150520-12:01:24.788|56=LVDEVELOP8|10=066|
20150520-12:01:29.197: 8=FIX.4.4|9=66|35=0|34=53|49=LVDEVELOP8|52=20150520-12:01:29.197|56=MKDATAFHBCS2|10=065|
20150520-12:02:24.780: 8=FIX.4.4|9=66|35=0|34=54|49=MKDATAFHBCS2|52=20150520-12:02:24.879|56=LVDEVELOP8|10=069|
20150520-12:02:30.197: 8=FIX.4.4|9=66|35=0|34=54|49=LVDEVELOP8|52=20150520-12:02:30.197|56=MKDATAFHBCS2|10=059|
20150520-12:03:24.776: 8=FIX.4.4|9=66|35=0|34=55|49=MKDATAFHBCS2|52=20150520-12:03:24.923|56=LVDEVELOP8|10=061|
20150520-12:03:31.196: 8=FIX.4.4|9=66|35=0|34=55|49=LVDEVELOP8|52=20150520-12:03:31.196|56=MKDATAFHBCS2|10=061|
20150520-12:04:24.773: 8=FIX.4.4|9=66|35=0|34=56|49=MKDATAFHBCS2|52=20150520-12:04:24.944|56=LVDEVELOP8|10=066|
20150520-12:04:31.196: 8=FIX.4.4|9=66|35=0|34=56|49=LVDEVELOP8|52=20150520-12:04:31.196|56=MKDATAFHBCS2|10=063|
20150520-12:05:24.787: 8=FIX.4.4|9=66|35=0|34=57|49=MKDATAFHBCS2|52=20150520-12:05:24.969|56=LVDEVELOP8|10=075|
20150520-12:05:31.197: 8=FIX.4.4|9=66|35=0|34=57|49=LVDEVELOP8|52=20150520-12:05:31.197|56=MKDATAFHBCS2|10=066|
20150520-12:06:25.782: 8=FIX.4.4|9=66|35=0|34=58|49=MKDATAFHBCS2|52=20150520-12:06:25.845|56=LVDEVELOP8|10=071|
20150520-12:06:32.197: 8=FIX.4.4|9=66|35=0|34=58|49=LVDEVELOP8|52=20150520-12:06:32.196|56=MKDATAFHBCS2|10=068|
20150520-12:07:25.804: 8=FIX.4.4|9=66|35=0|34=59|49=MKDATAFHBCS2|52=20150520-12:07:25.926|56=LVDEVELOP8|10=073|
20150520-12:07:32.196: 8=FIX.4.4|9=66|35=0|34=59|49=LVDEVELOP8|52=20150520-12:07:32.196|56=MKDATAFHBCS2|10=070|
20150520-12:08:25.777: 8=FIX.4.4|9=66|35=0|34=60|49=MKDATAFHBCS2|52=20150520-12:08:25.940|56=LVDEVELOP8|10=062|
20150520-12:08:32.197: 8=FIX.4.4|9=66|35=0|34=60|49=LVDEVELOP8|52=20150520-12:08:32.197|56=MKDATAFHBCS2|10=064|
20150520-12:09:25.775: 8=FIX.4.4|9=66|35=0|34=61|49=MKDATAFHBCS2|52=20150520-12:09:25.954|56=LVDEVELOP8|10=069|
20150520-12:09:32.197: 8=FIX.4.4|9=66|35=0|34=61|49=LVDEVELOP8|52=20150520-12:09:32.197|56=MKDATAFHBCS2|10=066|
20150520-12:10:25.772: 8=FIX.4.4|9=66|35=0|34=62|49=MKDATAFHBCS2|52=20150520-12:10:25.959|56=LVDEVELOP8|10=067|
20150520-12:10:32.197: 8=FIX.4.4|9=66|35=0|34=62|49=LVDEVELOP8|52=20150520-12:10:32.197|56=MKDATAFHBCS2|10=059|
20150520-12:11:26.788: 8=FIX.4.4|9=66|35=0|34=63|49=MKDATAFHBCS2|52=20150520-12:11:26.854|56=LVDEVELOP8|10=064|
20150520-12:11:33.197: 8=FIX.4.4|9=66|35=0|34=63|49=LVDEVELOP8|52=20150520-12:11:33.197|56=MKDATAFHBCS2|10=062|
20150520-12:12:26.784: 8=FIX.4.4|9=66|35=0|34=64|49=MKDATAFHBCS2|52=20150520-12:12:26.914|56=LVDEVELOP8|10=063|
20150520-12:12:34.196: 8=FIX.4.4|9=66|35=0|34=64|49=LVDEVELOP8|52=20150520-12:12:34.196|56=MKDATAFHBCS2|10=064|
20150520-12:13:26.802: 8=FIX.4.4|9=66|35=0|34=65|49=MKDATAFHBCS2|52=20150520-12:13:26.942|56=LVDEVELOP8|10=066|
20150520-12:13:34.196: 8=FIX.4.4|9=66|35=0|34=65|49=LVDEVELOP8|52=20150520-12:13:34.196|56=MKDATAFHBCS2|10=066|
20150520-12:14:26.781: 8=FIX.4.4|9=66|35=0|34=66|49=MKDATAFHBCS2|52=20150520-12:14:26.956|56=LVDEVELOP8|10=073|
20150520-12:14:34.197: 8=FIX.4.4|9=66|35=0|34=66|49=LVDEVELOP8|52=20150520-12:14:34.197|56=MKDATAFHBCS2|10=069|
20150520-12:15:26.775: 8=FIX.4.4|9=66|35=0|34=67|49=MKDATAFHBCS2|52=20150520-12:15:26.961|56=LVDEVELOP8|10=071|
20150520-12:15:35.197: 8=FIX.4.4|9=66|35=0|34=67|49=LVDEVELOP8|52=20150520-12:15:35.197|56=MKDATAFHBCS2|10=072|
20150520-12:16:27.770: 8=FIX.4.4|9=66|35=0|34=68|49=MKDATAFHBCS2|52=20150520-12:16:27.841|56=LVDEVELOP8|10=071|
20150520-12:16:35.197: 8=FIX.4.4|9=66|35=0|34=68|49=LVDEVELOP8|52=20150520-12:16:35.197|56=MKDATAFHBCS2|10=074|
20150520-12:17:27.768: 8=FIX.4.4|9=66|35=0|34=69|49=MKDATAFHBCS2|52=20150520-12:17:27.887|56=LVDEVELOP8|10=083|
20150520-12:17:36.197: 8=FIX.4.4|9=66|35=0|34=69|49=LVDEVELOP8|52=20150520-12:17:36.197|56=MKDATAFHBCS2|10=077|
20150520-12:18:28.778: 8=FIX.4.4|9=66|35=0|34=70|49=MKDATAFHBCS2|52=20150520-12:18:28.751|56=LVDEVELOP8|10=067|
20150520-12:18:37.196: 8=FIX.4.4|9=66|35=0|34=70|49=LVDEVELOP8|52=20150520-12:18:37.196|56=MKDATAFHBCS2|10=070|
20150520-12:19:28.799: 8=FIX.4.4|9=66|35=0|34=71|49=MKDATAFHBCS2|52=20150520-12:19:28.860|56=LVDEVELOP8|10=070|
20150520-12:19:37.196: 8=FIX.4.4|9=66|35=0|34=71|49=LVDEVELOP8|52=20150520-12:19:37.196|56=MKDATAFHBCS2|10=072|
20150520-12:20:28.772: 8=FIX.4.4|9=66|35=0|34=72|49=MKDATAFHBCS2|52=20150520-12:20:28.912|56=LVDEVELOP8|10=061|
20150520-12:20:37.196: 8=FIX.4.4|9=66|35=0|34=72|49=LVDEVELOP8|52=20150520-12:20:37.196|56=MKDATAFHBCS2|10=065|
20150520-12:21:28.770: 8=FIX.4.4|9=66|35=0|34=73|49=MKDATAFHBCS2|52=20150520-12:21:28.937|56=LVDEVELOP8|10=070|
20150520-12:21:37.196: 8=FIX.4.4|9=66|35=0|34=73|49=LVDEVELOP8|52=20150520-12:21:37.196|56=MKDATAFHBCS2|10=067|
20150520-12:22:28.767: 8=FIX.4.4|9=66|35=0|34=74|49=MKDATAFHBCS2|52=20150520-12:22:28.948|56=LVDEVELOP8|10=074|
20150520-12:22:37.196: 8=FIX.4.4|9=66|35=0|34=74|49=LVDEVELOP8|52=20150520-12:22:37.196|56=MKDATAFHBCS2|10=069|
20150520-12:23:29.779: 8=FIX.4.4|9=66|35=0|34=75|49=MKDATAFHBCS2|52=20150520-12:23:29.853|56=LVDEVELOP8|10=072|
20150520-12:23:37.196: 8=FIX.4.4|9=66|35=0|34=75|49=LVDEVELOP8|52=20150520-12:23:37.196|56=MKDATAFHBCS2|10=071|
20150520-12:24:29.777: 8=FIX.4.4|9=66|35=0|34=76|49=MKDATAFHBCS2|52=20150520-12:24:29.908|56=LVDEVELOP8|10=075|
20150520-12:24:37.196: 8=FIX.4.4|9=66|35=0|34=76|49=LVDEVELOP8|52=20150520-12:24:37.196|56=MKDATAFHBCS2|10=073|
20150520-12:25:29.774: 8=FIX.4.4|9=66|35=0|34=77|49=MKDATAFHBCS2|52=20150520-12:25:29.937|56=LVDEVELOP8|10=079|
20150520-12:25:37.197: 8=FIX.4.4|9=66|35=0|34=77|49=LVDEVELOP8|52=20150520-12:25:37.197|56=MKDATAFHBCS2|10=076|
20150520-12:26:29.770: 8=FIX.4.4|9=66|35=0|34=78|49=MKDATAFHBCS2|52=20150520-12:26:29.950|56=LVDEVELOP8|10=076|
20150520-12:26:38.197: 8=FIX.4.4|9=66|35=0|34=78|49=LVDEVELOP8|52=20150520-12:26:38.197|56=MKDATAFHBCS2|10=079|
20150520-12:27:29.768: 8=FIX.4.4|9=66|35=0|34=79|49=MKDATAFHBCS2|52=20150520-12:27:29.955|56=LVDEVELOP8|10=083|
20150520-12:27:39.197: 8=FIX.4.4|9=66|35=0|34=79|49=LVDEVELOP8|52=20150520-12:27:39.197|56=MKDATAFHBCS2|10=082|
20150520-12:28:30.764: 8=FIX.4.4|9=66|35=0|34=80|49=MKDATAFHBCS2|52=20150520-12:28:30.846|56=LVDEVELOP8|10=067|
20150520-12:28:40.197: 8=FIX.4.4|9=66|35=0|34=80|49=LVDEVELOP8|52=20150520-12:28:40.197|56=MKDATAFHBCS2|10=067|
20150520-12:29:30.782: 8=FIX.4.4|9=66|35=0|34=81|49=MKDATAFHBCS2|52=20150520-12:29:30.913|56=LVDEVELOP8|10=064|
20150520-12:29:41.196: 8=FIX.4.4|9=66|35=0|34=81|49=LVDEVELOP8|52=20150520-12:29:41.196|56=MKDATAFHBCS2|10=069|
20150520-12:30:30.774: 8=FIX.4.4|9=66|35=0|34=82|49=MKDATAFHBCS2|52=20150520-12:30:30.939|56=LVDEVELOP8|10=065|
20150520-12:30:41.196: 8=FIX.4.4|9=66|35=0|34=82|49=LVDEVELOP8|52=20150520-12:30:41.196|56=MKDATAFHBCS2|10=062|
20150520-12:31:30.793: 8=FIX.4.4|9=66|35=0|34=83|49=MKDATAFHBCS2|52=20150520-12:31:30.968|56=LVDEVELOP8|10=069|
20150520-12:31:41.196: 8=FIX.4.4|9=66|35=0|34=83|49=LVDEVELOP8|52=20150520-12:31:41.196|56=MKDATAFHBCS2|10=064|
20150520-12:32:31.770: 8=FIX.4.4|9=66|35=0|34=84|49=MKDATAFHBCS2|52=20150520-12:32:31.956|56=LVDEVELOP8|10=069|
20150520-12:32:41.197: 8=FIX.4.4|9=66|35=0|34=84|49=LVDEVELOP8|52=20150520-12:32:41.197|56=MKDATAFHBCS2|10=067|
20150520-12:33:32.764: 8=FIX.4.4|9=66|35=0|34=85|49=MKDATAFHBCS2|52=20150520-12:33:32.850|56=LVDEVELOP8|10=065|
20150520-12:33:42.197: 8=FIX.4.4|9=66|35=0|34=85|49=LVDEVELOP8|52=20150520-12:33:42.197|56=MKDATAFHBCS2|10=070|
20150520-12:34:32.776: 8=FIX.4.4|9=66|35=0|34=86|49=MKDATAFHBCS2|52=20150520-12:34:32.914|56=LVDEVELOP8|10=068|
20150520-12:34:42.197: 8=FIX.4.4|9=66|35=0|34=86|49=LVDEVELOP8|52=20150520-12:34:42.197|56=MKDATAFHBCS2|10=072|
20150520-12:35:33.772: 8=FIX.4.4|9=66|35=0|34=87|49=MKDATAFHBCS2|52=20150520-12:35:33.818|56=LVDEVELOP8|10=074|
20150520-12:35:43.197: 8=FIX.4.4|9=66|35=0|34=87|49=LVDEVELOP8|52=20150520-12:35:43.197|56=MKDATAFHBCS2|10=075|
20150520-12:36:33.770: 8=FIX.4.4|9=66|35=0|34=88|49=MKDATAFHBCS2|52=20150520-12:36:33.891|56=LVDEVELOP8|10=077|
20150520-12:36:44.196: 8=FIX.4.4|9=66|35=0|34=88|49=LVDEVELOP8|52=20150520-12:36:44.196|56=MKDATAFHBCS2|10=077|
20150520-12:37:33.770: 8=FIX.4.4|9=66|35=0|34=89|49=MKDATAFHBCS2|52=20150520-12:37:33.926|56=LVDEVELOP8|10=078|
20150520-12:37:44.197: 8=FIX.4.4|9=66|35=0|34=89|49=LVDEVELOP8|52=20150520-12:37:44.197|56=MKDATAFHBCS2|10=080|
20150520-12:38:33.764: 8=FIX.4.4|9=66|35=0|34=90|49=MKDATAFHBCS2|52=20150520-12:38:33.942|56=LVDEVELOP8|10=069|
20150520-12:38:45.197: 8=FIX.4.4|9=66|35=0|34=90|49=LVDEVELOP8|52=20150520-12:38:45.197|56=MKDATAFHBCS2|10=074|
20150520-12:39:33.764: 8=FIX.4.4|9=66|35=0|34=91|49=MKDATAFHBCS2|52=20150520-12:39:33.946|56=LVDEVELOP8|10=075|
20150520-12:39:46.197: 8=FIX.4.4|9=66|35=0|34=91|49=LVDEVELOP8|52=20150520-12:39:46.197|56=MKDATAFHBCS2|10=077|
20150520-12:40:34.772: 8=FIX.4.4|9=66|35=0|34=92|49=MKDATAFHBCS2|52=20150520-12:40:34.864|56=LVDEVELOP8|10=068|
20150520-12:40:47.197: 8=FIX.4.4|9=66|35=0|34=92|49=LVDEVELOP8|52=20150520-12:40:47.197|56=MKDATAFHBCS2|10=071|
20150520-12:41:34.770: 8=FIX.4.4|9=66|35=0|34=93|49=MKDATAFHBCS2|52=20150520-12:41:34.913|56=LVDEVELOP8|10=065|
20150520-12:41:47.197: 8=FIX.4.4|9=66|35=0|34=93|49=LVDEVELOP8|52=20150520-12:41:47.197|56=MKDATAFHBCS2|10=073|
20150520-12:42:34.775: 8=FIX.4.4|9=66|35=0|34=94|49=MKDATAFHBCS2|52=20150520-12:42:34.936|56=LVDEVELOP8|10=072|
20150520-12:42:48.197: 8=FIX.4.4|9=66|35=0|34=94|49=LVDEVELOP8|52=20150520-12:42:48.197|56=MKDATAFHBCS2|10=076|
20150520-12:43:34.765: 8=FIX.4.4|9=66|35=0|34=95|49=MKDATAFHBCS2|52=20150520-12:43:34.947|56=LVDEVELOP8|10=076|
20150520-12:43:49.197: 8=FIX.4.4|9=66|35=0|34=95|49=LVDEVELOP8|52=20150520-12:43:49.197|56=MKDATAFHBCS2|10=079|
20150520-12:44:34.762: 8=FIX.4.4|9=66|35=0|34=96|49=MKDATAFHBCS2|52=20150520-12:44:34.952|56=LVDEVELOP8|10=074|
20150520-12:44:50.197: 8=FIX.4.4|9=66|35=0|34=96|49=LVDEVELOP8|52=20150520-12:44:50.197|56=MKDATAFHBCS2|10=073|
20150520-12:45:35.758: 8=FIX.4.4|9=66|35=0|34=97|49=MKDATAFHBCS2|52=20150520-12:45:35.857|56=LVDEVELOP8|10=081|
20150520-12:45:51.197: 8=FIX.4.4|9=66|35=0|34=97|49=LVDEVELOP8|52=20150520-12:45:51.197|56=MKDATAFHBCS2|10=076|
20150520-12:46:35.772: 8=FIX.4.4|9=66|35=0|34=98|49=MKDATAFHBCS2|52=20150520-12:46:35.918|56=LVDEVELOP8|10=081|
20150520-12:46:51.197: 8=FIX.4.4|9=66|35=0|34=98|49=LVDEVELOP8|52=20150520-12:46:51.197|56=MKDATAFHBCS2|10=078|
20150520-12:47:35.769: 8=FIX.4.4|9=66|35=0|34=99|49=MKDATAFHBCS2|52=20150520-12:47:35.938|56=LVDEVELOP8|10=085|
20150520-12:47:52.197: 8=FIX.4.4|9=66|35=0|34=99|49=LVDEVELOP8|52=20150520-12:47:52.197|56=MKDATAFHBCS2|10=081|
20150520-12:48:36.764: 8=FIX.4.4|9=67|35=0|34=100|49=MKDATAFHBCS2|52=20150520-12:48:36.947|56=LVDEVELOP8|10=119|
20150520-12:48:53.197: 8=FIX.4.4|9=67|35=0|34=100|49=LVDEVELOP8|52=20150520-12:48:53.197|56=MKDATAFHBCS2|10=115|
20150520-12:49:36.761: 8=FIX.4.4|9=67|35=0|34=101|49=MKDATAFHBCS2|52=20150520-12:49:36.951|56=LVDEVELOP8|10=116|
20150520-12:49:53.197: 8=FIX.4.4|9=67|35=0|34=101|49=LVDEVELOP8|52=20150520-12:49:53.197|56=MKDATAFHBCS2|10=117|
20150520-12:50:37.757: 8=FIX.4.4|9=67|35=0|34=102|49=MKDATAFHBCS2|52=20150520-12:50:37.858|56=LVDEVELOP8|10=116|
20150520-12:50:54.197: 8=FIX.4.4|9=67|35=0|34=102|49=LVDEVELOP8|52=20150520-12:50:54.197|56=MKDATAFHBCS2|10=111|
20150520-12:51:37.772: 8=FIX.4.4|9=67|35=0|34=103|49=MKDATAFHBCS2|52=20150520-12:51:37.899|56=LVDEVELOP8|10=123|
20150520-12:51:55.197: 8=FIX.4.4|9=67|35=0|34=103|49=LVDEVELOP8|52=20150520-12:51:55.197|56=MKDATAFHBCS2|10=114|
20150520-12:52:38.767: 8=FIX.4.4|9=67|35=0|34=104|49=MKDATAFHBCS2|52=20150520-12:52:38.788|56=LVDEVELOP8|10=123|
20150520-12:52:55.197: 8=FIX.4.4|9=67|35=0|34=104|49=LVDEVELOP8|52=20150520-12:52:55.197|56=MKDATAFHBCS2|10=116|
20150520-12:53:38.768: 8=FIX.4.4|9=67|35=0|34=105|49=MKDATAFHBCS2|52=20150520-12:53:38.873|56=LVDEVELOP8|10=120|
20150520-12:53:56.197: 8=FIX.4.4|9=67|35=0|34=105|49=LVDEVELOP8|52=20150520-12:53:56.197|56=MKDATAFHBCS2|10=119|
20150520-12:54:38.772: 8=FIX.4.4|9=67|35=0|34=106|49=MKDATAFHBCS2|52=20150520-12:54:38.913|56=LVDEVELOP8|10=117|
20150520-12:54:56.197: 8=FIX.4.4|9=67|35=0|34=106|49=LVDEVELOP8|52=20150520-12:54:56.197|56=MKDATAFHBCS2|10=121|
20150520-12:55:38.761: 8=FIX.4.4|9=67|35=0|34=107|49=MKDATAFHBCS2|52=20150520-12:55:38.932|56=LVDEVELOP8|10=120|
20150520-12:55:56.197: 8=FIX.4.4|9=67|35=0|34=107|49=LVDEVELOP8|52=20150520-12:55:56.197|56=MKDATAFHBCS2|10=123|
20150520-12:56:39.763: 8=FIX.4.4|9=67|35=0|34=108|49=MKDATAFHBCS2|52=20150520-12:56:39.919|56=LVDEVELOP8|10=128|
20150520-12:56:57.197: 8=FIX.4.4|9=67|35=0|34=108|49=LVDEVELOP8|52=20150520-12:56:57.197|56=MKDATAFHBCS2|10=126|
20150520-12:57:40.766: 8=FIX.4.4|9=67|35=0|34=109|49=MKDATAFHBCS2|52=20150520-12:57:40.834|56=LVDEVELOP8|10=118|
20150520-12:57:58.197: 8=FIX.4.4|9=67|35=0|34=109|49=LVDEVELOP8|52=20150520-12:57:58.197|56=MKDATAFHBCS2|10=129|
20150520-12:58:40.763: 8=FIX.4.4|9=67|35=0|34=110|49=MKDATAFHBCS2|52=20150520-12:58:40.895|56=LVDEVELOP8|10=118|
20150520-12:58:58.197: 8=FIX.4.4|9=67|35=0|34=110|49=LVDEVELOP8|52=20150520-12:58:58.197|56=MKDATAFHBCS2|10=122|
20150520-12:59:40.761: 8=FIX.4.4|9=67|35=0|34=111|49=MKDATAFHBCS2|52=20150520-12:59:40.924|56=LVDEVELOP8|10=113|
20150520-12:59:59.196: 8=FIX.4.4|9=67|35=0|34=111|49=LVDEVELOP8|52=20150520-12:59:59.196|56=MKDATAFHBCS2|10=124|
20150520-13:00:40.764: 8=FIX.4.4|9=67|35=0|34=112|49=MKDATAFHBCS2|52=20150520-13:00:40.937|56=LVDEVELOP8|10=105|
20150520-13:00:59.197: 8=FIX.4.4|9=67|35=0|34=112|49=LVDEVELOP8|52=20150520-13:00:59.197|56=MKDATAFHBCS2|10=113|
20150520-13:01:41.753: 8=FIX.4.4|9=67|35=0|34=113|49=MKDATAFHBCS2|52=20150520-13:01:41.917|56=LVDEVELOP8|10=106|
20150520-13:02:00.196: 8=FIX.4.4|9=67|35=0|34=113|49=LVDEVELOP8|52=20150520-13:02:00.196|56=MKDATAFHBCS2|10=101|
20150520-13:02:15.549: 8=FIX.4.4|9=139|35=V|34=114|49=LVDEVELOP8|52=20150520-13:02:15.549|56=MKDATAFHBCS2|262=5035b80a96644e02|263=1|264=1|146=1|55=CHILE|267=3|269=0|269=1|269=5|10=215|
20150520-13:02:15.550: 8=FIX.4.4|9=143|35=V|34=115|49=LVDEVELOP8|52=20150520-13:02:15.550|56=MKDATAFHBCS2|262=13b5ab61cb3a49ce|263=1|264=1|146=1|55=CORPBANCA|267=3|269=0|269=1|269=5|10=214|
20150520-13:02:15.550: 8=FIX.4.4|9=145|35=V|34=116|49=LVDEVELOP8|52=20150520-13:02:15.550|56=MKDATAFHBCS2|262=-44800fa3fd7fbff0|263=1|264=1|146=1|55=BSANTANDER|267=3|269=0|269=1|269=5|10=107|
20150520-13:02:15.553: 8=FIX.4.4|9=197|35=W|34=114|49=MKDATAFHBCS2|52=20150520-13:02:15.621|56=LVDEVELOP8|55=CHILE|262=5035b80a96644e02|268=3|269=0|270=71.01|271=40000|282=058|290=1|269=1|270=71.39|271=113350|282=035|290=1|269=5|270=71|10=105|
20150520-13:02:15.553: 8=FIX.4.4|9=136|35=V|34=117|49=LVDEVELOP8|52=20150520-13:02:15.553|56=MKDATAFHBCS2|262=-c0a36f17e8b8db|263=1|264=1|146=1|55=CCU|267=3|269=0|269=1|269=5|10=209|
20150520-13:02:15.555: 8=FIX.4.4|9=204|35=W|34=115|49=MKDATAFHBCS2|52=20150520-13:02:15.621|56=LVDEVELOP8|55=CORPBANCA|262=13b5ab61cb3a49ce|268=3|269=0|270=7.285|271=479296|282=062|290=1|269=1|270=7.436|271=70000|282=086|290=1|269=5|270=7.436|10=045|
20150520-13:02:15.556: 8=FIX.4.4|9=141|35=V|34=118|49=LVDEVELOP8|52=20150520-13:02:15.555|56=MKDATAFHBCS2|262=-7d33deb945bdb7c3|263=1|264=1|146=1|55=ENDESA|267=3|269=0|269=1|269=5|10=064|
20150520-13:02:15.558: 8=FIX.4.4|9=141|35=V|34=119|49=LVDEVELOP8|52=20150520-13:02:15.558|56=MKDATAFHBCS2|262=40e64565ed5f4639|263=1|264=1|146=1|55=ENERSIS|267=3|269=0|269=1|269=5|10=202|
20150520-13:02:15.560: 8=FIX.4.4|9=142|35=V|34=120|49=LVDEVELOP8|52=20150520-13:02:15.560|56=MKDATAFHBCS2|262=2049392dd3f24dba|263=1|264=1|146=1|55=CENCOSUD|267=3|269=0|269=1|269=5|10=069|
20150520-13:02:15.563: 8=FIX.4.4|9=137|35=V|34=121|49=LVDEVELOP8|52=20150520-13:02:15.563|56=MKDATAFHBCS2|262=5a195bee74234af7|263=1|264=1|146=1|55=LAN|267=3|269=0|269=1|269=5|10=220|
20150520-13:02:15.564: 8=FIX.4.4|9=203|35=W|34=116|49=MKDATAFHBCS2|52=20150520-13:02:15.636|56=LVDEVELOP8|55=BSANTANDER|262=-44800fa3fd7fbff0|268=3|269=0|270=33|271=56110|282=090|290=1|269=1|270=33.29|271=261251|282=035|290=1|269=5|270=32.99|10=020|
20150520-13:02:15.565: 8=FIX.4.4|9=145|35=V|34=122|49=LVDEVELOP8|52=20150520-13:02:15.565|56=MKDATAFHBCS2|262=-4d542c258f4ab153|263=1|264=1|146=1|55=CONCHATORO|267=3|269=0|269=1|269=5|10=232|
20150520-13:02:15.572: 8=FIX.4.4|9=192|35=W|34=117|49=MKDATAFHBCS2|52=20150520-13:02:15.636|56=LVDEVELOP8|55=CCU|262=-c0a36f17e8b8db|268=3|269=0|270=6662|271=1700|282=072|290=1|269=1|270=7000|271=683|282=035|290=1|269=5|270=6881.7|10=038|
20150520-13:02:15.573: 8=FIX.4.4|9=199|35=W|34=118|49=MKDATAFHBCS2|52=20150520-13:02:15.636|56=LVDEVELOP8|55=ENDESA|262=-7d33deb945bdb7c3|268=3|269=0|270=921.05|271=3000|282=090|290=1|269=1|270=931|271=1569|282=088|290=1|269=5|270=931.07|10=252|
20150520-13:02:15.576: 8=FIX.4.4|9=198|35=W|34=119|49=MKDATAFHBCS2|52=20150520-13:02:15.652|56=LVDEVELOP8|55=ENERSIS|262=40e64565ed5f4639|268=3|269=0|270=213.1|271=37942|282=090|290=1|269=1|270=214|271=2370|282=090|290=1|269=5|270=213.1|10=057|
20150520-13:02:15.577: 8=FIX.4.4|9=199|35=W|34=120|49=MKDATAFHBCS2|52=20150520-13:02:15.652|56=LVDEVELOP8|55=CENCOSUD|262=2049392dd3f24dba|268=3|269=0|270=1577.1|271=5660|282=035|290=1|269=1|270=1585|271=3646|282=035|290=1|269=5|270=1585|10=224|
20150520-13:02:15.577: 8=FIX.4.4|9=142|35=V|34=123|49=LVDEVELOP8|52=20150520-13:02:15.577|56=MKDATAFHBCS2|262=35e664b370374b76|263=1|264=1|146=1|55=ANDINA-B|267=3|269=0|269=1|269=5|10=145|
20150520-13:02:15.579: 8=FIX.4.4|9=190|35=W|34=121|49=MKDATAFHBCS2|52=20150520-13:02:15.652|56=LVDEVELOP8|55=LAN|262=5a195bee74234af7|268=3|269=0|270=5450|271=920|282=086|290=1|269=1|270=5475|271=262|282=082|290=1|269=5|270=5475|10=159|
20150520-13:02:15.580: 8=FIX.4.4|9=140|35=V|34=124|49=LVDEVELOP8|52=20150520-13:02:15.579|56=MKDATAFHBCS2|262=-690e80b1511ebba8|263=1|264=1|146=1|55=SQM-B|267=3|269=0|269=1|269=5|10=135|
20150520-13:02:15.581: 8=FIX.4.4|9=201|35=W|34=122|49=MKDATAFHBCS2|52=20150520-13:02:15.652|56=LVDEVELOP8|55=CONCHATORO|262=-4d542c258f4ab153|268=3|269=0|270=1199|271=830|282=051|290=1|269=1|270=1275|271=2620|282=058|290=1|269=5|270=1198.9|10=051|
20150520-13:02:15.584: 8=FIX.4.4|9=199|35=W|34=123|49=MKDATAFHBCS2|52=20150520-13:02:15.652|56=LVDEVELOP8|55=ANDINA-B|262=35e664b370374b76|268=3|269=0|270=2120.1|271=1603|282=091|290=1|269=1|270=2140|271=4646|282=051|290=1|269=5|270=2120|10=245|
20150520-13:02:15.585: 8=FIX.4.4|9=143|35=V|34=125|49=LVDEVELOP8|52=20150520-13:02:15.585|56=MKDATAFHBCS2|262=-5208b1faa69fb2b3|263=1|264=1|146=1|55=ANDINA-A|267=3|269=0|269=1|269=5|10=113|
20150520-13:02:15.592: 8=FIX.4.4|9=196|35=W|34=124|49=MKDATAFHBCS2|52=20150520-13:02:15.652|56=LVDEVELOP8|55=SQM-B|262=-690e80b1511ebba8|268=3|269=0|270=12600|271=143|282=090|290=1|269=1|270=12700|271=824|282=086|290=1|269=5|270=12700|10=196|
20150520-13:02:15.593: 8=FIX.4.4|9=197|35=W|34=125|49=MKDATAFHBCS2|52=20150520-13:02:15.652|56=LVDEVELOP8|55=ANDINA-A|262=-5208b1faa69fb2b3|268=3|269=0|270=1600|271=5000|282=020|290=1|269=1|270=1640|271=100|282=086|290=1|269=5|270=1640|10=056|
20150520-13:02:48.484: 8=FIX.4.4|9=134|35=X|34=126|49=MKDATAFHBCS2|52=20150520-13:02:48.557|56=LVDEVELOP8|262=-44800fa3fd7fbff0|268=1|279=1|269=5|55=BSANTANDER|270=33|290=1|10=146|
20150520-13:02:48.502: 8=FIX.4.4|9=152|35=X|34=127|49=MKDATAFHBCS2|52=20150520-13:02:48.572|56=LVDEVELOP8|262=-44800fa3fd7fbff0|268=1|279=2|269=0|55=BSANTANDER|270=33|271=56110|282=090|290=1|10=212|
20150520-13:02:48.503: 8=FIX.4.4|9=152|35=X|34=128|49=MKDATAFHBCS2|52=20150520-13:02:48.572|56=LVDEVELOP8|262=-44800fa3fd7fbff0|268=1|279=2|269=0|55=BSANTANDER|270=33|271=74602|282=070|290=1|10=217|
20150520-13:02:48.503: 8=FIX.4.4|9=153|35=X|34=129|49=MKDATAFHBCS2|52=20150520-13:02:48.572|56=LVDEVELOP8|262=-44800fa3fd7fbff0|268=1|279=0|269=1|55=BSANTANDER|270=33|271=369288|282=042|290=1|10=026|
20150520-13:03:07.564: 8=FIX.4.4|9=156|35=X|34=130|49=MKDATAFHBCS2|52=20150520-13:03:07.658|56=LVDEVELOP8|262=-44800fa3fd7fbff0|268=1|279=0|269=0|55=BSANTANDER|270=32.51|271=105000|282=034|290=1|10=139|
20150520-13:03:16.197: 8=FIX.4.4|9=67|35=0|34=126|49=LVDEVELOP8|52=20150520-13:03:16.197|56=MKDATAFHBCS2|10=114|
20150520-13:03:25.383: 8=FIX.4.4|9=139|35=V|34=127|49=LVDEVELOP8|52=20150520-13:03:25.382|56=MKDATAFHBCS2|262=5035b80a96644e02|263=2|264=1|146=1|55=CHILE|267=3|269=0|269=1|269=5|10=217|
20150520-13:03:25.383: 8=FIX.4.4|9=143|35=V|34=128|49=LVDEVELOP8|52=20150520-13:03:25.383|56=MKDATAFHBCS2|262=13b5ab61cb3a49ce|263=2|264=1|146=1|55=CORPBANCA|267=3|269=0|269=1|269=5|10=225|
20150520-13:03:25.386: 8=FIX.4.4|9=145|35=V|34=129|49=LVDEVELOP8|52=20150520-13:03:25.386|56=MKDATAFHBCS2|262=-44800fa3fd7fbff0|263=2|264=1|146=1|55=BSANTANDER|267=3|269=0|269=1|269=5|10=121|
20150520-13:03:25.391: 8=FIX.4.4|9=136|35=V|34=130|49=LVDEVELOP8|52=20150520-13:03:25.391|56=MKDATAFHBCS2|262=-c0a36f17e8b8db|263=2|264=1|146=1|55=CCU|267=3|269=0|269=1|269=5|10=207|
20150520-13:03:25.396: 8=FIX.4.4|9=141|35=V|34=131|49=LVDEVELOP8|52=20150520-13:03:25.395|56=MKDATAFHBCS2|262=-7d33deb945bdb7c3|263=2|264=1|146=1|55=ENDESA|267=3|269=0|269=1|269=5|10=064|
20150520-13:03:25.398: 8=FIX.4.4|9=141|35=V|34=132|49=LVDEVELOP8|52=20150520-13:03:25.397|56=MKDATAFHBCS2|262=40e64565ed5f4639|263=2|264=1|146=1|55=ENERSIS|267=3|269=0|269=1|269=5|10=201|
20150520-13:03:25.400: 8=FIX.4.4|9=142|35=V|34=133|49=LVDEVELOP8|52=20150520-13:03:25.399|56=MKDATAFHBCS2|262=2049392dd3f24dba|263=2|264=1|146=1|55=CENCOSUD|267=3|269=0|269=1|269=5|10=086|
20150520-13:03:25.402: 8=FIX.4.4|9=137|35=V|34=134|49=LVDEVELOP8|52=20150520-13:03:25.401|56=MKDATAFHBCS2|262=5a195bee74234af7|263=2|264=1|146=1|55=LAN|267=3|269=0|269=1|269=5|10=218|
20150520-13:03:25.407: 8=FIX.4.4|9=145|35=V|34=135|49=LVDEVELOP8|52=20150520-13:03:25.407|56=MKDATAFHBCS2|262=-4d542c258f4ab153|263=2|264=1|146=1|55=CONCHATORO|267=3|269=0|269=1|269=5|10=234|
20150520-13:03:25.408: 8=FIX.4.4|9=142|35=V|34=136|49=LVDEVELOP8|52=20150520-13:03:25.408|56=MKDATAFHBCS2|262=35e664b370374b76|263=2|264=1|146=1|55=ANDINA-B|267=3|269=0|269=1|269=5|10=145|
20150520-13:03:25.411: 8=FIX.4.4|9=140|35=V|34=137|49=LVDEVELOP8|52=20150520-13:03:25.411|56=MKDATAFHBCS2|262=-690e80b1511ebba8|263=2|264=1|146=1|55=SQM-B|267=3|269=0|269=1|269=5|10=127|
20150520-13:03:25.413: 8=FIX.4.4|9=143|35=V|34=138|49=LVDEVELOP8|52=20150520-13:03:25.413|56=MKDATAFHBCS2|262=-5208b1faa69fb2b3|263=2|264=1|146=1|55=ANDINA-A|267=3|269=0|269=1|269=5|10=110|
20150520-13:04:28.110: 8=FIX.4.4|9=83|35=A|34=1|49=LVDEVELOP8|52=20150520-13:04:28.109|56=MKDATAFHBCS2|98=0|108=60|141=Y|10=095|
20150520-13:04:28.155: 8=FIX.4.4|9=83|35=A|34=1|49=MKDATAFHBCS2|52=20150520-13:04:28.272|56=LVDEVELOP8|98=0|108=60|141=Y|10=096|
20150520-13:05:28.765: 8=FIX.4.4|9=65|35=0|34=2|49=MKDATAFHBCS2|52=20150520-13:05:28.943|56=LVDEVELOP8|10=013|
20150520-13:05:28.766: 8=FIX.4.4|9=65|35=0|34=2|49=LVDEVELOP8|52=20150520-13:05:28.766|56=MKDATAFHBCS2|10=016|
20150520-13:06:28.762: 8=FIX.4.4|9=65|35=0|34=3|49=MKDATAFHBCS2|52=20150520-13:06:28.948|56=LVDEVELOP8|10=020|
20150520-13:06:29.044: 8=FIX.4.4|9=65|35=0|34=3|49=LVDEVELOP8|52=20150520-13:06:29.044|56=MKDATAFHBCS2|10=008|
20150520-13:07:29.044: 8=FIX.4.4|9=65|35=0|34=4|49=LVDEVELOP8|52=20150520-13:07:29.044|56=MKDATAFHBCS2|10=010|
20150520-13:07:29.046: 8=FIX.4.4|9=65|35=0|34=4|49=MKDATAFHBCS2|52=20150520-13:07:29.100|56=LVDEVELOP8|10=003|
20150520-13:08:29.757: 8=FIX.4.4|9=65|35=0|34=5|49=MKDATAFHBCS2|52=20150520-13:08:29.883|56=LVDEVELOP8|10=023|
20150520-13:08:29.758: 8=FIX.4.4|9=65|35=0|34=5|49=LVDEVELOP8|52=20150520-13:08:29.758|56=MKDATAFHBCS2|10=024|
20150520-13:09:30.044: 8=FIX.4.4|9=65|35=0|34=6|49=LVDEVELOP8|52=20150520-13:09:30.044|56=MKDATAFHBCS2|10=006|
20150520-13:09:30.046: 8=FIX.4.4|9=65|35=0|34=6|49=MKDATAFHBCS2|52=20150520-13:09:30.091|56=LVDEVELOP8|10=008|
20150520-13:10:30.764: 8=FIX.4.4|9=65|35=0|34=7|49=MKDATAFHBCS2|52=20150520-13:10:30.890|56=LVDEVELOP8|10=008|
20150520-13:10:30.765: 8=FIX.4.4|9=65|35=0|34=7|49=LVDEVELOP8|52=20150520-13:10:30.765|56=MKDATAFHBCS2|10=009|
20150520-13:11:30.761: 8=FIX.4.4|9=65|35=0|34=8|49=MKDATAFHBCS2|52=20150520-13:11:30.922|56=LVDEVELOP8|10=006|
20150520-13:11:31.044: 8=FIX.4.4|9=65|35=0|34=8|49=LVDEVELOP8|52=20150520-13:11:31.044|56=MKDATAFHBCS2|10=002|
20150520-13:12:30.759: 8=FIX.4.4|9=65|35=0|34=9|49=MKDATAFHBCS2|52=20150520-13:12:30.937|56=LVDEVELOP8|10=014|
20150520-13:12:32.043: 8=FIX.4.4|9=65|35=0|34=9|49=LVDEVELOP8|52=20150520-13:12:32.043|56=MKDATAFHBCS2|10=004|
20150520-13:13:30.758: 8=FIX.4.4|9=66|35=0|34=10|49=MKDATAFHBCS2|52=20150520-13:13:30.941|56=LVDEVELOP8|10=051|
20150520-13:13:32.043: 8=FIX.4.4|9=66|35=0|34=10|49=LVDEVELOP8|52=20150520-13:13:32.043|56=MKDATAFHBCS2|10=046|
20150520-13:14:31.752: 8=FIX.4.4|9=66|35=0|34=11|49=MKDATAFHBCS2|52=20150520-13:14:31.861|56=LVDEVELOP8|10=055|
20150520-13:14:32.043: 8=FIX.4.4|9=66|35=0|34=11|49=LVDEVELOP8|52=20150520-13:14:32.043|56=MKDATAFHBCS2|10=048|
20150520-13:15:31.749: 8=FIX.4.4|9=66|35=0|34=12|49=MKDATAFHBCS2|52=20150520-13:15:31.901|56=LVDEVELOP8|10=052|
20150520-13:15:32.043: 8=FIX.4.4|9=66|35=0|34=12|49=LVDEVELOP8|52=20150520-13:15:32.043|56=MKDATAFHBCS2|10=050|
20150520-13:16:31.763: 8=FIX.4.4|9=66|35=0|34=13|49=MKDATAFHBCS2|52=20150520-13:16:31.936|56=LVDEVELOP8|10=062|
20150520-13:16:32.044: 8=FIX.4.4|9=66|35=0|34=13|49=LVDEVELOP8|52=20150520-13:16:32.044|56=MKDATAFHBCS2|10=053|
20150520-13:17:31.768: 8=FIX.4.4|9=66|35=0|34=14|49=MKDATAFHBCS2|52=20150520-13:17:31.944|56=LVDEVELOP8|10=063|
20150520-13:17:33.043: 8=FIX.4.4|9=66|35=0|34=14|49=LVDEVELOP8|52=20150520-13:17:33.043|56=MKDATAFHBCS2|10=055|
20150520-13:18:31.757: 8=FIX.4.4|9=66|35=0|34=15|49=MKDATAFHBCS2|52=20150520-13:18:31.946|56=LVDEVELOP8|10=067|
20150520-13:18:33.043: 8=FIX.4.4|9=66|35=0|34=15|49=LVDEVELOP8|52=20150520-13:18:33.043|56=MKDATAFHBCS2|10=057|
20150520-13:19:32.753: 8=FIX.4.4|9=66|35=0|34=16|49=MKDATAFHBCS2|52=20150520-13:19:32.866|56=LVDEVELOP8|10=071|
20150520-13:19:33.043: 8=FIX.4.4|9=66|35=0|34=16|49=LVDEVELOP8|52=20150520-13:19:33.043|56=MKDATAFHBCS2|10=059|
20150520-13:20:32.750: 8=FIX.4.4|9=66|35=0|34=17|49=MKDATAFHBCS2|52=20150520-13:20:32.904|56=LVDEVELOP8|10=057|
20150520-13:20:33.044: 8=FIX.4.4|9=66|35=0|34=17|49=LVDEVELOP8|52=20150520-13:20:33.044|56=MKDATAFHBCS2|10=053|
20150520-13:21:32.747: 8=FIX.4.4|9=66|35=0|34=18|49=MKDATAFHBCS2|52=20150520-13:21:32.923|56=LVDEVELOP8|10=060|
20150520-13:21:34.043: 8=FIX.4.4|9=66|35=0|34=18|49=LVDEVELOP8|52=20150520-13:21:34.043|56=MKDATAFHBCS2|10=055|
20150520-13:22:32.761: 8=FIX.4.4|9=66|35=0|34=19|49=MKDATAFHBCS2|52=20150520-13:22:32.947|56=LVDEVELOP8|10=068|
20150520-13:22:34.043: 8=FIX.4.4|9=66|35=0|34=19|49=LVDEVELOP8|52=20150520-13:22:34.043|56=MKDATAFHBCS2|10=057|
20150520-13:23:32.759: 8=FIX.4.4|9=66|35=0|34=20|49=MKDATAFHBCS2|52=20150520-13:23:32.950|56=LVDEVELOP8|10=055|
20150520-13:23:34.061: 8=FIX.4.4|9=66|35=0|34=20|49=LVDEVELOP8|52=20150520-13:23:34.061|56=MKDATAFHBCS2|10=050|
20150520-13:24:33.754: 8=FIX.4.4|9=66|35=0|34=21|49=MKDATAFHBCS2|52=20150520-13:24:33.871|56=LVDEVELOP8|10=060|
20150520-13:24:35.043: 8=FIX.4.4|9=66|35=0|34=21|49=LVDEVELOP8|52=20150520-13:24:35.043|56=MKDATAFHBCS2|10=053|
20150520-13:25:33.758: 8=FIX.4.4|9=66|35=0|34=22|49=MKDATAFHBCS2|52=20150520-13:25:33.907|56=LVDEVELOP8|10=062|
20150520-13:25:35.043: 8=FIX.4.4|9=66|35=0|34=22|49=LVDEVELOP8|52=20150520-13:25:35.043|56=MKDATAFHBCS2|10=055|
20150520-13:26:34.747: 8=FIX.4.4|9=66|35=0|34=23|49=MKDATAFHBCS2|52=20150520-13:26:34.840|56=LVDEVELOP8|10=061|
20150520-13:26:35.043: 8=FIX.4.4|9=66|35=0|34=23|49=LVDEVELOP8|52=20150520-13:26:35.043|56=MKDATAFHBCS2|10=057|
20150520-13:27:34.748: 8=FIX.4.4|9=66|35=0|34=24|49=MKDATAFHBCS2|52=20150520-13:27:34.888|56=LVDEVELOP8|10=075|
20150520-13:27:35.043: 8=FIX.4.4|9=66|35=0|34=24|49=LVDEVELOP8|52=20150520-13:27:35.043|56=MKDATAFHBCS2|10=059|
20150520-13:28:34.758: 8=FIX.4.4|9=66|35=0|34=25|49=MKDATAFHBCS2|52=20150520-13:28:34.928|56=LVDEVELOP8|10=072|
20150520-13:28:35.044: 8=FIX.4.4|9=66|35=0|34=25|49=LVDEVELOP8|52=20150520-13:28:35.044|56=MKDATAFHBCS2|10=062|
20150520-13:29:34.757: 8=FIX.4.4|9=66|35=0|34=26|49=MKDATAFHBCS2|52=20150520-13:29:34.938|56=LVDEVELOP8|10=075|
20150520-13:29:36.044: 8=FIX.4.4|9=66|35=0|34=26|49=LVDEVELOP8|52=20150520-13:29:36.044|56=MKDATAFHBCS2|10=065|
20150520-13:30:34.754: 8=FIX.4.4|9=66|35=0|34=27|49=MKDATAFHBCS2|52=20150520-13:30:34.941|56=LVDEVELOP8|10=062|
20150520-13:30:36.073: 8=FIX.4.4|9=66|35=0|34=27|49=LVDEVELOP8|52=20150520-13:30:36.073|56=MKDATAFHBCS2|10=060|
20150520-13:31:35.753: 8=FIX.4.4|9=66|35=0|34=28|49=MKDATAFHBCS2|52=20150520-13:31:35.870|56=LVDEVELOP8|10=066|
20150520-13:31:37.044: 8=FIX.4.4|9=66|35=0|34=28|49=LVDEVELOP8|52=20150520-13:31:37.044|56=MKDATAFHBCS2|10=061|
20150520-13:32:35.745: 8=FIX.4.4|9=66|35=0|34=29|49=MKDATAFHBCS2|52=20150520-13:32:35.904|56=LVDEVELOP8|10=066|
20150520-13:32:37.044: 8=FIX.4.4|9=66|35=0|34=29|49=LVDEVELOP8|52=20150520-13:32:37.044|56=MKDATAFHBCS2|10=063|
20150520-13:33:35.743: 8=FIX.4.4|9=66|35=0|34=30|49=MKDATAFHBCS2|52=20150520-13:33:35.916|56=LVDEVELOP8|10=062|
20150520-13:33:38.044: 8=FIX.4.4|9=66|35=0|34=30|49=LVDEVELOP8|52=20150520-13:33:38.044|56=MKDATAFHBCS2|10=057|
20150520-13:34:35.760: 8=FIX.4.4|9=66|35=0|34=31|49=MKDATAFHBCS2|52=20150520-13:34:35.937|56=LVDEVELOP8|10=067|
20150520-13:34:39.044: 8=FIX.4.4|9=66|35=0|34=31|49=LVDEVELOP8|52=20150520-13:34:39.044|56=MKDATAFHBCS2|10=060|
20150520-13:35:35.758: 8=FIX.4.4|9=66|35=0|34=32|49=MKDATAFHBCS2|52=20150520-13:35:35.938|56=LVDEVELOP8|10=070|
20150520-13:35:40.044: 8=FIX.4.4|9=66|35=0|34=32|49=LVDEVELOP8|52=20150520-13:35:40.044|56=MKDATAFHBCS2|10=054|
20150520-13:36:36.749: 8=FIX.4.4|9=66|35=0|34=33|49=MKDATAFHBCS2|52=20150520-13:36:36.870|56=LVDEVELOP8|10=068|
20150520-13:36:40.045: 8=FIX.4.4|9=66|35=0|34=33|49=LVDEVELOP8|52=20150520-13:36:40.045|56=MKDATAFHBCS2|10=057|
20150520-13:37:36.746: 8=FIX.4.4|9=66|35=0|34=34|49=MKDATAFHBCS2|52=20150520-13:37:36.904|56=LVDEVELOP8|10=068|
20150520-13:37:41.043: 8=FIX.4.4|9=66|35=0|34=34|49=LVDEVELOP8|52=20150520-13:37:41.043|56=MKDATAFHBCS2|10=058|
20150520-13:38:36.746: 8=FIX.4.4|9=66|35=0|34=35|49=MKDATAFHBCS2|52=20150520-13:38:36.919|56=LVDEVELOP8|10=076|
20150520-13:38:41.043: 8=FIX.4.4|9=66|35=0|34=35|49=LVDEVELOP8|52=20150520-13:38:41.043|56=MKDATAFHBCS2|10=060|
20150520-13:39:36.742: 8=FIX.4.4|9=66|35=0|34=36|49=MKDATAFHBCS2|52=20150520-13:39:36.927|56=LVDEVELOP8|10=077|
20150520-13:39:41.045: 8=FIX.4.4|9=66|35=0|34=36|49=LVDEVELOP8|52=20150520-13:39:41.045|56=MKDATAFHBCS2|10=064|
20150520-13:40:36.754: 8=FIX.4.4|9=66|35=0|34=37|49=MKDATAFHBCS2|52=20150520-13:40:36.946|56=LVDEVELOP8|10=071|
20150520-13:40:42.044: 8=FIX.4.4|9=66|35=0|34=37|49=LVDEVELOP8|52=20150520-13:40:42.044|56=MKDATAFHBCS2|10=057|
20150520-13:41:37.752: 8=FIX.4.4|9=66|35=0|34=38|49=MKDATAFHBCS2|52=20150520-13:41:37.878|56=LVDEVELOP8|10=078|
20150520-13:41:42.044: 8=FIX.4.4|9=66|35=0|34=38|49=LVDEVELOP8|52=20150520-13:41:42.044|56=MKDATAFHBCS2|10=059|
20150520-13:42:37.749: 8=FIX.4.4|9=66|35=0|34=39|49=MKDATAFHBCS2|52=20150520-13:42:37.908|56=LVDEVELOP8|10=074|
20150520-13:42:43.043: 8=FIX.4.4|9=66|35=0|34=39|49=LVDEVELOP8|52=20150520-13:42:43.043|56=MKDATAFHBCS2|10=061|
20150520-13:43:38.745: 8=FIX.4.4|9=66|35=0|34=40|49=MKDATAFHBCS2|52=20150520-13:43:38.852|56=LVDEVELOP8|10=066|
20150520-13:43:43.044: 8=FIX.4.4|9=66|35=0|34=40|49=LVDEVELOP8|52=20150520-13:43:43.044|56=MKDATAFHBCS2|10=055|
20150520-13:44:38.744: 8=FIX.4.4|9=66|35=0|34=41|49=MKDATAFHBCS2|52=20150520-13:44:38.893|56=LVDEVELOP8|10=073|
20150520-13:44:44.043: 8=FIX.4.4|9=66|35=0|34=41|49=LVDEVELOP8|52=20150520-13:44:44.043|56=MKDATAFHBCS2|10=057|
20150520-13:45:38.754: 8=FIX.4.4|9=66|35=0|34=42|49=MKDATAFHBCS2|52=20150520-13:45:38.928|56=LVDEVELOP8|10=074|
20150520-13:45:44.044: 8=FIX.4.4|9=66|35=0|34=42|49=LVDEVELOP8|52=20150520-13:45:44.044|56=MKDATAFHBCS2|10=060|
20150520-13:46:38.754: 8=FIX.4.4|9=66|35=0|34=43|49=MKDATAFHBCS2|52=20150520-13:46:38.935|56=LVDEVELOP8|10=074|
20150520-13:46:45.043: 8=FIX.4.4|9=66|35=0|34=43|49=LVDEVELOP8|52=20150520-13:46:45.043|56=MKDATAFHBCS2|10=062|
20150520-13:47:38.748: 8=FIX.4.4|9=66|35=0|34=44|49=MKDATAFHBCS2|52=20150520-13:47:38.935|56=LVDEVELOP8|10=076|
20150520-13:47:45.044: 8=FIX.4.4|9=66|35=0|34=44|49=LVDEVELOP8|52=20150520-13:47:45.043|56=MKDATAFHBCS2|10=064|
20150520-13:48:39.744: 8=FIX.4.4|9=66|35=0|34=45|49=MKDATAFHBCS2|52=20150520-13:48:39.874|56=LVDEVELOP8|10=081|
20150520-13:48:45.044: 8=FIX.4.4|9=66|35=0|34=45|49=LVDEVELOP8|52=20150520-13:48:45.044|56=MKDATAFHBCS2|10=067|
20150520-13:49:39.742: 8=FIX.4.4|9=66|35=0|34=46|49=MKDATAFHBCS2|52=20150520-13:49:39.901|56=LVDEVELOP8|10=074|
20150520-13:49:46.044: 8=FIX.4.4|9=66|35=0|34=46|49=LVDEVELOP8|52=20150520-13:49:46.044|56=MKDATAFHBCS2|10=070|
20150520-13:50:39.739: 8=FIX.4.4|9=66|35=0|34=47|49=MKDATAFHBCS2|52=20150520-13:50:39.913|56=LVDEVELOP8|10=070|
20150520-13:50:47.043: 8=FIX.4.4|9=66|35=0|34=47|49=LVDEVELOP8|52=20150520-13:50:47.043|56=MKDATAFHBCS2|10=063|
20150520-13:51:39.760: 8=FIX.4.4|9=66|35=0|34=48|49=MKDATAFHBCS2|52=20150520-13:51:39.933|56=LVDEVELOP8|10=074|
20150520-13:51:47.043: 8=FIX.4.4|9=66|35=0|34=48|49=LVDEVELOP8|52=20150520-13:51:47.043|56=MKDATAFHBCS2|10=065|
20150520-13:52:39.751: 8=FIX.4.4|9=66|35=0|34=49|49=MKDATAFHBCS2|52=20150520-13:52:39.934|56=LVDEVELOP8|10=077|
20150520-13:52:47.055: 8=FIX.4.4|9=66|35=0|34=49|49=LVDEVELOP8|52=20150520-13:52:47.043|56=MKDATAFHBCS2|10=067|
20150520-13:53:40.760: 8=FIX.4.4|9=66|35=0|34=50|49=MKDATAFHBCS2|52=20150520-13:53:40.876|56=LVDEVELOP8|10=067|
20150520-13:53:47.043: 8=FIX.4.4|9=66|35=0|34=50|49=LVDEVELOP8|52=20150520-13:53:47.043|56=MKDATAFHBCS2|10=060|
20150520-13:54:40.774: 8=FIX.4.4|9=66|35=0|34=51|49=MKDATAFHBCS2|52=20150520-13:54:40.902|56=LVDEVELOP8|10=059|
20150520-13:54:47.043: 8=FIX.4.4|9=66|35=0|34=51|49=LVDEVELOP8|52=20150520-13:54:47.043|56=MKDATAFHBCS2|10=062|
20150520-13:55:40.740: 8=FIX.4.4|9=66|35=0|34=52|49=MKDATAFHBCS2|52=20150520-13:55:40.914|56=LVDEVELOP8|10=064|
20150520-13:55:47.043: 8=FIX.4.4|9=66|35=0|34=52|49=LVDEVELOP8|52=20150520-13:55:47.043|56=MKDATAFHBCS2|10=064|
20150520-13:56:40.742: 8=FIX.4.4|9=66|35=0|34=53|49=MKDATAFHBCS2|52=20150520-13:56:40.918|56=LVDEVELOP8|10=070|
20150520-13:56:47.043: 8=FIX.4.4|9=66|35=0|34=53|49=LVDEVELOP8|52=20150520-13:56:47.043|56=MKDATAFHBCS2|10=066|
20150520-13:57:40.775: 8=FIX.4.4|9=66|35=0|34=54|49=MKDATAFHBCS2|52=20150520-13:57:40.935|56=LVDEVELOP8|10=071|
20150520-13:57:47.043: 8=FIX.4.4|9=66|35=0|34=54|49=LVDEVELOP8|52=20150520-13:57:47.043|56=MKDATAFHBCS2|10=068|
20150520-13:58:41.740: 8=FIX.4.4|9=66|35=0|34=55|49=MKDATAFHBCS2|52=20150520-13:58:41.863|56=LVDEVELOP8|10=074|
20150520-13:58:47.043: 8=FIX.4.4|9=66|35=0|34=55|49=LVDEVELOP8|52=20150520-13:58:47.043|56=MKDATAFHBCS2|10=070|
20150520-13:59:41.751: 8=FIX.4.4|9=66|35=0|34=56|49=MKDATAFHBCS2|52=20150520-13:59:41.904|56=LVDEVELOP8|10=072|
20150520-13:59:47.043: 8=FIX.4.4|9=66|35=0|34=56|49=LVDEVELOP8|52=20150520-13:59:47.043|56=MKDATAFHBCS2|10=072|
20150520-14:00:42.741: 8=FIX.4.4|9=66|35=0|34=57|49=MKDATAFHBCS2|52=20150520-14:00:42.859|56=LVDEVELOP8|10=070|
20150520-14:00:47.043: 8=FIX.4.4|9=66|35=0|34=57|49=LVDEVELOP8|52=20150520-14:00:47.043|56=MKDATAFHBCS2|10=060|
20150520-14:01:42.737: 8=FIX.4.4|9=66|35=0|34=58|49=MKDATAFHBCS2|52=20150520-14:01:42.891|56=LVDEVELOP8|10=068|
20150520-14:01:47.043: 8=FIX.4.4|9=66|35=0|34=58|49=LVDEVELOP8|52=20150520-14:01:47.043|56=MKDATAFHBCS2|10=062|
20150520-14:02:42.734: 8=FIX.4.4|9=66|35=0|34=59|49=MKDATAFHBCS2|52=20150520-14:02:42.906|56=LVDEVELOP8|10=067|
20150520-14:02:47.044: 8=FIX.4.4|9=66|35=0|34=59|49=LVDEVELOP8|52=20150520-14:02:47.044|56=MKDATAFHBCS2|10=065|
20150520-14:03:42.749: 8=FIX.4.4|9=66|35=0|34=60|49=MKDATAFHBCS2|52=20150520-14:03:42.927|56=LVDEVELOP8|10=063|
20150520-14:03:47.044: 8=FIX.4.4|9=66|35=0|34=60|49=LVDEVELOP8|52=20150520-14:03:47.044|56=MKDATAFHBCS2|10=058|
20150520-14:04:42.744: 8=FIX.4.4|9=66|35=0|34=61|49=MKDATAFHBCS2|52=20150520-14:04:42.929|56=LVDEVELOP8|10=067|
20150520-14:04:47.044: 8=FIX.4.4|9=66|35=0|34=61|49=LVDEVELOP8|52=20150520-14:04:47.044|56=MKDATAFHBCS2|10=060|
20150520-14:05:43.760: 8=FIX.4.4|9=66|35=0|34=62|49=MKDATAFHBCS2|52=20150520-14:05:43.880|56=LVDEVELOP8|10=066|
20150520-14:05:48.044: 8=FIX.4.4|9=66|35=0|34=62|49=LVDEVELOP8|52=20150520-14:05:48.044|56=MKDATAFHBCS2|10=063|
20150520-14:06:43.748: 8=FIX.4.4|9=66|35=0|34=63|49=MKDATAFHBCS2|52=20150520-14:06:43.904|56=LVDEVELOP8|10=065|
20150520-14:06:49.043: 8=FIX.4.4|9=66|35=0|34=63|49=LVDEVELOP8|52=20150520-14:06:49.043|56=MKDATAFHBCS2|10=065|
20150520-14:07:43.746: 8=FIX.4.4|9=66|35=0|34=64|49=MKDATAFHBCS2|52=20150520-14:07:43.917|56=LVDEVELOP8|10=071|
20150520-14:07:49.043: 8=FIX.4.4|9=66|35=0|34=64|49=LVDEVELOP8|52=20150520-14:07:49.043|56=MKDATAFHBCS2|10=067|
20150520-14:08:43.744: 8=FIX.4.4|9=66|35=0|34=65|49=MKDATAFHBCS2|52=20150520-14:08:43.922|56=LVDEVELOP8|10=069|
20150520-14:08:49.043: 8=FIX.4.4|9=66|35=0|34=65|49=LVDEVELOP8|52=20150520-14:08:49.043|56=MKDATAFHBCS2|10=069|
20150520-14:09:43.749: 8=FIX.4.4|9=66|35=0|34=66|49=MKDATAFHBCS2|52=20150520-14:09:43.938|56=LVDEVELOP8|10=078|
20150520-14:09:49.043: 8=FIX.4.4|9=66|35=0|34=66|49=LVDEVELOP8|52=20150520-14:09:49.043|56=MKDATAFHBCS2|10=071|
20150520-14:10:44.741: 8=FIX.4.4|9=66|35=0|34=67|49=MKDATAFHBCS2|52=20150520-14:10:44.891|56=LVDEVELOP8|10=070|
20150520-14:10:49.044: 8=FIX.4.4|9=66|35=0|34=67|49=LVDEVELOP8|52=20150520-14:10:49.044|56=MKDATAFHBCS2|10=065|
20150520-14:11:44.739: 8=FIX.4.4|9=66|35=0|34=68|49=MKDATAFHBCS2|52=20150520-14:11:44.912|56=LVDEVELOP8|10=066|
20150520-14:11:50.043: 8=FIX.4.4|9=66|35=0|34=68|49=LVDEVELOP8|52=20150520-14:11:50.043|56=MKDATAFHBCS2|10=058|
20150520-14:12:44.738: 8=FIX.4.4|9=66|35=0|34=69|49=MKDATAFHBCS2|52=20150520-14:12:44.921|56=LVDEVELOP8|10=068|
20150520-14:12:50.044: 8=FIX.4.4|9=66|35=0|34=69|49=LVDEVELOP8|52=20150520-14:12:50.044|56=MKDATAFHBCS2|10=061|
20150520-14:13:44.733: 8=FIX.4.4|9=66|35=0|34=70|49=MKDATAFHBCS2|52=20150520-14:13:44.925|56=LVDEVELOP8|10=065|
20150520-14:13:51.044: 8=FIX.4.4|9=66|35=0|34=70|49=LVDEVELOP8|52=20150520-14:13:51.044|56=MKDATAFHBCS2|10=055|
20150520-14:14:45.746: 8=FIX.4.4|9=66|35=0|34=71|49=MKDATAFHBCS2|52=20150520-14:14:45.938|56=LVDEVELOP8|10=072|
20150520-14:14:52.043: 8=FIX.4.4|9=66|35=0|34=71|49=LVDEVELOP8|52=20150520-14:14:52.043|56=MKDATAFHBCS2|10=057|
20150520-14:15:46.741: 8=FIX.4.4|9=66|35=0|34=72|49=MKDATAFHBCS2|52=20150520-14:15:46.892|56=LVDEVELOP8|10=074|
20150520-14:15:52.044: 8=FIX.4.4|9=66|35=0|34=72|49=LVDEVELOP8|52=20150520-14:15:52.044|56=MKDATAFHBCS2|10=060|
20150520-14:16:46.743: 8=FIX.4.4|9=66|35=0|34=73|49=MKDATAFHBCS2|52=20150520-14:16:46.912|56=LVDEVELOP8|10=069|
20150520-14:16:52.044: 8=FIX.4.4|9=66|35=0|34=73|49=LVDEVELOP8|52=20150520-14:16:52.044|56=MKDATAFHBCS2|10=062|
20150520-14:17:47.736: 8=FIX.4.4|9=66|35=0|34=74|49=MKDATAFHBCS2|52=20150520-14:17:47.876|56=LVDEVELOP8|10=081|
20150520-14:17:52.044: 8=FIX.4.4|9=66|35=0|34=74|49=LVDEVELOP8|52=20150520-14:17:52.044|56=MKDATAFHBCS2|10=064|
20150520-14:18:47.731: 8=FIX.4.4|9=66|35=0|34=75|49=MKDATAFHBCS2|52=20150520-14:18:47.901|56=LVDEVELOP8|10=072|
20150520-14:18:53.044: 8=FIX.4.4|9=66|35=0|34=75|49=LVDEVELOP8|52=20150520-14:18:53.044|56=MKDATAFHBCS2|10=067|
20150520-14:19:47.729: 8=FIX.4.4|9=66|35=0|34=76|49=MKDATAFHBCS2|52=20150520-14:19:47.913|56=LVDEVELOP8|10=077|
20150520-14:19:54.044: 8=FIX.4.4|9=66|35=0|34=76|49=LVDEVELOP8|52=20150520-14:19:54.044|56=MKDATAFHBCS2|10=070|
20150520-14:20:47.742: 8=FIX.4.4|9=66|35=0|34=77|49=MKDATAFHBCS2|52=20150520-14:20:47.933|56=LVDEVELOP8|10=072|
20150520-14:20:55.043: 8=FIX.4.4|9=66|35=0|34=77|49=LVDEVELOP8|52=20150520-14:20:55.043|56=MKDATAFHBCS2|10=063|
20150520-14:21:47.740: 8=FIX.4.4|9=66|35=0|34=78|49=MKDATAFHBCS2|52=20150520-14:21:47.935|56=LVDEVELOP8|10=076|
20150520-14:21:55.044: 8=FIX.4.4|9=66|35=0|34=78|49=LVDEVELOP8|52=20150520-14:21:55.044|56=MKDATAFHBCS2|10=066|
20150520-14:22:48.743: 8=FIX.4.4|9=66|35=0|34=79|49=MKDATAFHBCS2|52=20150520-14:22:48.897|56=LVDEVELOP8|10=086|
20150520-14:22:56.044: 8=FIX.4.4|9=66|35=0|34=79|49=LVDEVELOP8|52=20150520-14:22:56.044|56=MKDATAFHBCS2|10=069|
20150520-14:23:48.735: 8=FIX.4.4|9=66|35=0|34=80|49=MKDATAFHBCS2|52=20150520-14:23:48.915|56=LVDEVELOP8|10=070|
20150520-14:23:57.044: 8=FIX.4.4|9=66|35=0|34=80|49=LVDEVELOP8|52=20150520-14:23:57.044|56=MKDATAFHBCS2|10=063|
20150520-14:24:48.732: 8=FIX.4.4|9=66|35=0|34=81|49=MKDATAFHBCS2|52=20150520-14:24:48.922|56=LVDEVELOP8|10=070|
20150520-14:24:57.044: 8=FIX.4.4|9=66|35=0|34=81|49=LVDEVELOP8|52=20150520-14:24:57.044|56=MKDATAFHBCS2|10=065|
20150520-14:25:48.729: 8=FIX.4.4|9=66|35=0|34=82|49=MKDATAFHBCS2|52=20150520-14:25:48.924|56=LVDEVELOP8|10=074|
20150520-14:25:57.044: 8=FIX.4.4|9=66|35=0|34=82|49=LVDEVELOP8|52=20150520-14:25:57.044|56=MKDATAFHBCS2|10=067|
20150520-14:26:48.740: 8=FIX.4.4|9=66|35=0|34=83|49=MKDATAFHBCS2|52=20150520-14:26:48.940|56=LVDEVELOP8|10=074|
20150520-14:26:58.044: 8=FIX.4.4|9=66|35=0|34=83|49=LVDEVELOP8|52=20150520-14:26:58.044|56=MKDATAFHBCS2|10=070|
20150520-14:27:49.735: 8=FIX.4.4|9=66|35=0|34=84|49=MKDATAFHBCS2|52=20150520-14:27:49.903|56=LVDEVELOP8|10=076|
20150520-14:27:59.044: 8=FIX.4.4|9=66|35=0|34=84|49=LVDEVELOP8|52=20150520-14:27:59.044|56=MKDATAFHBCS2|10=073|
20150520-14:28:49.733: 8=FIX.4.4|9=66|35=0|34=85|49=MKDATAFHBCS2|52=20150520-14:28:49.917|56=LVDEVELOP8|10=083|
20150520-14:29:00.044: 8=FIX.4.4|9=66|35=0|34=85|49=LVDEVELOP8|52=20150520-14:29:00.044|56=MKDATAFHBCS2|10=062|
20150520-14:29:49.730: 8=FIX.4.4|9=66|35=0|34=86|49=MKDATAFHBCS2|52=20150520-14:29:49.922|56=LVDEVELOP8|10=081|
20150520-14:30:01.044: 8=FIX.4.4|9=66|35=0|34=86|49=LVDEVELOP8|52=20150520-14:30:01.044|56=MKDATAFHBCS2|10=056|
20150520-14:30:49.728: 8=FIX.4.4|9=66|35=0|34=87|49=MKDATAFHBCS2|52=20150520-14:30:49.923|56=LVDEVELOP8|10=075|
20150520-14:31:02.043: 8=FIX.4.4|9=66|35=0|34=87|49=LVDEVELOP8|52=20150520-14:31:02.043|56=MKDATAFHBCS2|10=058|
20150520-14:31:50.740: 8=FIX.4.4|9=66|35=0|34=88|49=MKDATAFHBCS2|52=20150520-14:31:50.935|56=LVDEVELOP8|10=072|
20150520-14:32:02.043: 8=FIX.4.4|9=66|35=0|34=88|49=LVDEVELOP8|52=20150520-14:32:02.043|56=MKDATAFHBCS2|10=060|
20150520-14:32:51.736: 8=FIX.4.4|9=66|35=0|34=89|49=MKDATAFHBCS2|52=20150520-14:32:51.898|56=LVDEVELOP8|10=083|
20150520-14:33:02.044: 8=FIX.4.4|9=66|35=0|34=89|49=LVDEVELOP8|52=20150520-14:33:02.044|56=MKDATAFHBCS2|10=063|
20150520-14:33:51.732: 8=FIX.4.4|9=66|35=0|34=90|49=MKDATAFHBCS2|52=20150520-14:33:51.914|56=LVDEVELOP8|10=065|
20150520-14:34:02.044: 8=FIX.4.4|9=66|35=0|34=90|49=LVDEVELOP8|52=20150520-14:34:02.044|56=MKDATAFHBCS2|10=056|
20150520-14:34:52.741: 8=FIX.4.4|9=66|35=0|34=91|49=MKDATAFHBCS2|52=20150520-14:34:52.887|56=LVDEVELOP8|10=077|
20150520-14:35:02.044: 8=FIX.4.4|9=66|35=0|34=91|49=LVDEVELOP8|52=20150520-14:35:02.044|56=MKDATAFHBCS2|10=058|
20150520-14:35:52.728: 8=FIX.4.4|9=66|35=0|34=92|49=MKDATAFHBCS2|52=20150520-14:35:52.904|56=LVDEVELOP8|10=069|
20150520-14:36:03.043: 8=FIX.4.4|9=66|35=0|34=92|49=LVDEVELOP8|52=20150520-14:36:03.043|56=MKDATAFHBCS2|10=060|
20150520-14:36:52.725: 8=FIX.4.4|9=66|35=0|34=93|49=MKDATAFHBCS2|52=20150520-14:36:52.911|56=LVDEVELOP8|10=069|
20150520-14:37:03.043: 8=FIX.4.4|9=66|35=0|34=93|49=LVDEVELOP8|52=20150520-14:37:03.043|56=MKDATAFHBCS2|10=062|
20150520-14:37:52.736: 8=FIX.4.4|9=66|35=0|34=94|49=MKDATAFHBCS2|52=20150520-14:37:52.928|56=LVDEVELOP8|10=079|
20150520-14:38:03.044: 8=FIX.4.4|9=66|35=0|34=94|49=LVDEVELOP8|52=20150520-14:38:03.044|56=MKDATAFHBCS2|10=065|
20150520-14:38:52.733: 8=FIX.4.4|9=66|35=0|34=95|49=MKDATAFHBCS2|52=20150520-14:38:52.928|56=LVDEVELOP8|10=081|
20150520-14:39:03.044: 8=FIX.4.4|9=66|35=0|34=95|49=LVDEVELOP8|52=20150520-14:39:03.044|56=MKDATAFHBCS2|10=067|
20150520-14:39:53.729: 8=FIX.4.4|9=66|35=0|34=96|49=MKDATAFHBCS2|52=20150520-14:39:53.897|56=LVDEVELOP8|10=089|
20150520-14:40:04.043: 8=FIX.4.4|9=66|35=0|34=96|49=LVDEVELOP8|52=20150520-14:40:04.043|56=MKDATAFHBCS2|10=060|
20150520-14:40:53.726: 8=FIX.4.4|9=66|35=0|34=97|49=MKDATAFHBCS2|52=20150520-14:40:53.906|56=LVDEVELOP8|10=073|
20150520-14:41:04.044: 8=FIX.4.4|9=66|35=0|34=97|49=LVDEVELOP8|52=20150520-14:41:04.044|56=MKDATAFHBCS2|10=063|
20150520-14:41:53.726: 8=FIX.4.4|9=66|35=0|34=98|49=MKDATAFHBCS2|52=20150520-14:41:53.909|56=LVDEVELOP8|10=078|
20150520-14:42:05.043: 8=FIX.4.4|9=66|35=0|34=98|49=LVDEVELOP8|52=20150520-14:42:05.043|56=MKDATAFHBCS2|10=065|
20150520-14:42:53.737: 8=FIX.4.4|9=66|35=0|34=99|49=MKDATAFHBCS2|52=20150520-14:42:53.927|56=LVDEVELOP8|10=080|
20150520-14:43:05.043: 8=FIX.4.4|9=66|35=0|34=99|49=LVDEVELOP8|52=20150520-14:43:05.043|56=MKDATAFHBCS2|10=067|
20150520-14:43:53.738: 8=FIX.4.4|9=67|35=0|34=100|49=MKDATAFHBCS2|52=20150520-14:43:53.928|56=LVDEVELOP8|10=114|
20150520-14:44:05.043: 8=FIX.4.4|9=67|35=0|34=100|49=LVDEVELOP8|52=20150520-14:44:05.043|56=MKDATAFHBCS2|10=100|
20150520-14:44:54.731: 8=FIX.4.4|9=67|35=0|34=101|49=MKDATAFHBCS2|52=20150520-14:44:54.900|56=LVDEVELOP8|10=107|
20150520-14:45:05.043: 8=FIX.4.4|9=67|35=0|34=101|49=LVDEVELOP8|52=20150520-14:45:05.043|56=MKDATAFHBCS2|10=102|
20150520-14:45:54.729: 8=FIX.4.4|9=67|35=0|34=102|49=MKDATAFHBCS2|52=20150520-14:45:54.915|56=LVDEVELOP8|10=115|
20150520-14:46:05.044: 8=FIX.4.4|9=67|35=0|34=102|49=LVDEVELOP8|52=20150520-14:46:05.044|56=MKDATAFHBCS2|10=105|
20150520-14:46:54.727: 8=FIX.4.4|9=67|35=0|34=103|49=MKDATAFHBCS2|52=20150520-14:46:54.917|56=LVDEVELOP8|10=119|
20150520-14:47:05.044: 8=FIX.4.4|9=67|35=0|34=103|49=LVDEVELOP8|52=20150520-14:47:05.044|56=MKDATAFHBCS2|10=107|
20150520-14:47:55.724: 8=FIX.4.4|9=67|35=0|34=104|49=MKDATAFHBCS2|52=20150520-14:47:55.914|56=LVDEVELOP8|10=119|
20150520-14:48:05.044: 8=FIX.4.4|9=67|35=0|34=104|49=LVDEVELOP8|52=20150520-14:48:05.044|56=MKDATAFHBCS2|10=109|
20150520-14:48:55.738: 8=FIX.4.4|9=67|35=0|34=105|49=MKDATAFHBCS2|52=20150520-14:48:55.929|56=LVDEVELOP8|10=127|
20150520-14:49:06.043: 8=FIX.4.4|9=67|35=0|34=105|49=LVDEVELOP8|52=20150520-14:49:06.043|56=MKDATAFHBCS2|10=111|
20150520-14:49:56.736: 8=FIX.4.4|9=67|35=0|34=106|49=MKDATAFHBCS2|52=20150520-14:49:56.901|56=LVDEVELOP8|10=120|
20150520-14:50:06.044: 8=FIX.4.4|9=67|35=0|34=106|49=LVDEVELOP8|52=20150520-14:50:06.044|56=MKDATAFHBCS2|10=105|
20150520-14:50:56.738: 8=FIX.4.4|9=67|35=0|34=107|49=MKDATAFHBCS2|52=20150520-14:50:56.911|56=LVDEVELOP8|10=114|
20150520-14:51:07.043: 8=FIX.4.4|9=67|35=0|34=107|49=LVDEVELOP8|52=20150520-14:51:07.043|56=MKDATAFHBCS2|10=107|
20150520-14:51:57.722: 8=FIX.4.4|9=67|35=0|34=108|49=MKDATAFHBCS2|52=20150520-14:51:57.893|56=LVDEVELOP8|10=126|
20150520-14:52:07.043: 8=FIX.4.4|9=67|35=0|34=108|49=LVDEVELOP8|52=20150520-14:52:07.043|56=MKDATAFHBCS2|10=109|
20150520-14:52:57.720: 8=FIX.4.4|9=67|35=0|34=109|49=MKDATAFHBCS2|52=20150520-14:52:57.904|56=LVDEVELOP8|10=121|
20150520-14:53:07.044: 8=FIX.4.4|9=67|35=0|34=109|49=LVDEVELOP8|52=20150520-14:53:07.044|56=MKDATAFHBCS2|10=112|
20150520-14:53:57.734: 8=FIX.4.4|9=67|35=0|34=110|49=MKDATAFHBCS2|52=20150520-14:53:57.924|56=LVDEVELOP8|10=116|
20150520-14:54:07.044: 8=FIX.4.4|9=67|35=0|34=110|49=LVDEVELOP8|52=20150520-14:54:07.044|56=MKDATAFHBCS2|10=105|
20150520-14:54:57.731: 8=FIX.4.4|9=67|35=0|34=111|49=MKDATAFHBCS2|52=20150520-14:54:57.924|56=LVDEVELOP8|10=118|
20150520-14:55:08.044: 8=FIX.4.4|9=67|35=0|34=111|49=LVDEVELOP8|52=20150520-14:55:08.044|56=MKDATAFHBCS2|10=108|
20150520-14:55:58.726: 8=FIX.4.4|9=67|35=0|34=112|49=MKDATAFHBCS2|52=20150520-14:55:58.922|56=LVDEVELOP8|10=119|
20150520-14:56:09.044: 8=FIX.4.4|9=67|35=0|34=112|49=LVDEVELOP8|52=20150520-14:56:09.044|56=MKDATAFHBCS2|10=111|
20150520-14:56:59.723: 8=FIX.4.4|9=67|35=0|34=113|49=MKDATAFHBCS2|52=20150520-14:56:59.901|56=LVDEVELOP8|10=119|
20150520-14:57:10.043: 8=FIX.4.4|9=67|35=0|34=113|49=LVDEVELOP8|52=20150520-14:57:10.043|56=MKDATAFHBCS2|10=104|
20150520-14:57:59.721: 8=FIX.4.4|9=67|35=0|34=114|49=MKDATAFHBCS2|52=20150520-14:57:59.908|56=LVDEVELOP8|10=128|
20150520-14:58:10.043: 8=FIX.4.4|9=67|35=0|34=114|49=LVDEVELOP8|52=20150520-14:58:10.043|56=MKDATAFHBCS2|10=106|
20150520-14:58:59.717: 8=FIX.4.4|9=67|35=0|34=115|49=MKDATAFHBCS2|52=20150520-14:58:59.909|56=LVDEVELOP8|10=131|
20150520-14:59:10.044: 8=FIX.4.4|9=67|35=0|34=115|49=LVDEVELOP8|52=20150520-14:59:10.044|56=MKDATAFHBCS2|10=109|
20150520-14:59:59.725: 8=FIX.4.4|9=67|35=0|34=116|49=MKDATAFHBCS2|52=20150520-14:59:59.909|56=LVDEVELOP8|10=133|
20150520-15:00:11.044: 8=FIX.4.4|9=67|35=0|34=116|49=LVDEVELOP8|52=20150520-15:00:11.044|56=MKDATAFHBCS2|10=098|
20150520-15:00:59.732: 8=FIX.4.4|9=67|35=0|34=117|49=MKDATAFHBCS2|52=20150520-15:00:59.924|56=LVDEVELOP8|10=118|
20150520-15:01:12.043: 8=FIX.4.4|9=67|35=0|34=117|49=LVDEVELOP8|52=20150520-15:01:12.043|56=MKDATAFHBCS2|10=100|
20150520-15:02:00.742: 8=FIX.4.4|9=67|35=0|34=118|49=MKDATAFHBCS2|52=20150520-15:02:00.903|56=LVDEVELOP8|10=104|
20150520-15:02:12.044: 8=FIX.4.4|9=67|35=0|34=118|49=LVDEVELOP8|52=20150520-15:02:12.044|56=MKDATAFHBCS2|10=103|
20150520-15:03:00.721: 8=FIX.4.4|9=67|35=0|34=119|49=MKDATAFHBCS2|52=20150520-15:03:00.909|56=LVDEVELOP8|10=112|
20150520-15:03:12.044: 8=FIX.4.4|9=67|35=0|34=119|49=LVDEVELOP8|52=20150520-15:03:12.044|56=MKDATAFHBCS2|10=105|
20150520-15:04:00.718: 8=FIX.4.4|9=67|35=0|34=120|49=MKDATAFHBCS2|52=20150520-15:04:00.913|56=LVDEVELOP8|10=100|
20150520-15:04:13.043: 8=FIX.4.4|9=67|35=0|34=120|49=LVDEVELOP8|52=20150520-15:04:13.043|56=MKDATAFHBCS2|10=098|
20150520-15:05:00.717: 8=FIX.4.4|9=67|35=0|34=121|49=MKDATAFHBCS2|52=20150520-15:05:00.914|56=LVDEVELOP8|10=103|
20150520-15:05:13.043: 8=FIX.4.4|9=67|35=0|34=121|49=LVDEVELOP8|52=20150520-15:05:13.043|56=MKDATAFHBCS2|10=100|
20150520-15:06:00.735: 8=FIX.4.4|9=67|35=0|34=122|49=MKDATAFHBCS2|52=20150520-15:06:00.927|56=LVDEVELOP8|10=109|
20150520-15:06:13.044: 8=FIX.4.4|9=67|35=0|34=122|49=LVDEVELOP8|52=20150520-15:06:13.044|56=MKDATAFHBCS2|10=103|
20150520-15:07:01.724: 8=FIX.4.4|9=67|35=0|34=123|49=MKDATAFHBCS2|52=20150520-15:07:01.907|56=LVDEVELOP8|10=110|
20150520-15:07:13.044: 8=FIX.4.4|9=67|35=0|34=123|49=LVDEVELOP8|52=20150520-15:07:13.044|56=MKDATAFHBCS2|10=105|
20150520-15:08:01.723: 8=FIX.4.4|9=67|35=0|34=124|49=MKDATAFHBCS2|52=20150520-15:08:01.912|56=LVDEVELOP8|10=108|
20150520-15:08:13.044: 8=FIX.4.4|9=67|35=0|34=124|49=LVDEVELOP8|52=20150520-15:08:13.044|56=MKDATAFHBCS2|10=107|
20150520-15:09:02.719: 8=FIX.4.4|9=67|35=0|34=125|49=MKDATAFHBCS2|52=20150520-15:09:02.900|56=LVDEVELOP8|10=108|
20150520-15:09:14.044: 8=FIX.4.4|9=67|35=0|34=125|49=LVDEVELOP8|52=20150520-15:09:14.044|56=MKDATAFHBCS2|10=110|
20150520-15:10:02.715: 8=FIX.4.4|9=67|35=0|34=126|49=MKDATAFHBCS2|52=20150520-15:10:02.905|56=LVDEVELOP8|10=106|
20150520-15:10:15.044: 8=FIX.4.4|9=67|35=0|34=126|49=LVDEVELOP8|52=20150520-15:10:15.044|56=MKDATAFHBCS2|10=104|
20150520-15:11:02.735: 8=FIX.4.4|9=67|35=0|34=127|49=MKDATAFHBCS2|52=20150520-15:11:02.920|56=LVDEVELOP8|10=105|
20150520-15:11:15.044: 8=FIX.4.4|9=67|35=0|34=127|49=LVDEVELOP8|52=20150520-15:11:15.044|56=MKDATAFHBCS2|10=106|
20150520-15:12:03.725: 8=FIX.4.4|9=67|35=0|34=128|49=MKDATAFHBCS2|52=20150520-15:12:03.916|56=LVDEVELOP8|10=113|
20150520-15:12:16.043: 8=FIX.4.4|9=67|35=0|34=128|49=LVDEVELOP8|52=20150520-15:12:16.043|56=MKDATAFHBCS2|10=108|
20150520-15:13:04.721: 8=FIX.4.4|9=67|35=0|34=129|49=MKDATAFHBCS2|52=20150520-15:13:04.914|56=LVDEVELOP8|10=114|
20150520-15:13:16.043: 8=FIX.4.4|9=67|35=0|34=129|49=LVDEVELOP8|52=20150520-15:13:16.043|56=MKDATAFHBCS2|10=110|
20150520-15:14:05.715: 8=FIX.4.4|9=67|35=0|34=130|49=MKDATAFHBCS2|52=20150520-15:14:05.902|56=LVDEVELOP8|10=105|
20150520-15:14:16.043: 8=FIX.4.4|9=67|35=0|34=130|49=LVDEVELOP8|52=20150520-15:14:16.043|56=MKDATAFHBCS2|10=103|
20150520-15:15:05.719: 8=FIX.4.4|9=67|35=0|34=131|49=MKDATAFHBCS2|52=20150520-15:15:05.905|56=LVDEVELOP8|10=110|
20150520-15:15:16.044: 8=FIX.4.4|9=67|35=0|34=131|49=LVDEVELOP8|52=20150520-15:15:16.043|56=MKDATAFHBCS2|10=105|
20150520-15:16:05.727: 8=FIX.4.4|9=67|35=0|34=132|49=MKDATAFHBCS2|52=20150520-15:16:05.920|56=LVDEVELOP8|10=109|
20150520-15:16:16.043: 8=FIX.4.4|9=67|35=0|34=132|49=LVDEVELOP8|52=20150520-15:16:16.043|56=MKDATAFHBCS2|10=107|
20150520-15:17:06.722: 8=FIX.4.4|9=67|35=0|34=133|49=MKDATAFHBCS2|52=20150520-15:17:06.917|56=LVDEVELOP8|10=118|
20150520-15:17:16.043: 8=FIX.4.4|9=67|35=0|34=133|49=LVDEVELOP8|52=20150520-15:17:16.043|56=MKDATAFHBCS2|10=109|
20150520-15:18:07.718: 8=FIX.4.4|9=67|35=0|34=134|49=MKDATAFHBCS2|52=20150520-15:18:07.914|56=LVDEVELOP8|10=118|
20150520-15:18:16.043: 8=FIX.4.4|9=67|35=0|34=134|49=LVDEVELOP8|52=20150520-15:18:16.043|56=MKDATAFHBCS2|10=111|
20150520-15:19:08.714: 8=FIX.4.4|9=67|35=0|34=135|49=MKDATAFHBCS2|52=20150520-15:19:08.901|56=LVDEVELOP8|10=117|
20150520-15:19:16.044: 8=FIX.4.4|9=67|35=0|34=135|49=LVDEVELOP8|52=20150520-15:19:16.044|56=MKDATAFHBCS2|10=114|
20150520-15:20:08.711: 8=FIX.4.4|9=67|35=0|34=136|49=MKDATAFHBCS2|52=20150520-15:20:08.904|56=LVDEVELOP8|10=113|
20150520-15:20:17.043: 8=FIX.4.4|9=67|35=0|34=136|49=LVDEVELOP8|52=20150520-15:20:17.043|56=MKDATAFHBCS2|10=107|
20150520-15:21:08.725: 8=FIX.4.4|9=67|35=0|34=137|49=MKDATAFHBCS2|52=20150520-15:21:08.919|56=LVDEVELOP8|10=121|
20150520-15:21:17.044: 8=FIX.4.4|9=67|35=0|34=137|49=LVDEVELOP8|52=20150520-15:21:17.044|56=MKDATAFHBCS2|10=110|
20150520-15:22:09.719: 8=FIX.4.4|9=67|35=0|34=138|49=MKDATAFHBCS2|52=20150520-15:22:09.916|56=LVDEVELOP8|10=121|
20150520-15:22:18.044: 8=FIX.4.4|9=67|35=0|34=138|49=LVDEVELOP8|52=20150520-15:22:18.044|56=MKDATAFHBCS2|10=113|
20150520-15:23:10.716: 8=FIX.4.4|9=67|35=0|34=139|49=MKDATAFHBCS2|52=20150520-15:23:10.913|56=LVDEVELOP8|10=112|
20150520-15:23:18.044: 8=FIX.4.4|9=67|35=0|34=139|49=LVDEVELOP8|52=20150520-15:23:18.044|56=MKDATAFHBCS2|10=115|
20150520-15:24:11.728: 8=FIX.4.4|9=67|35=0|34=140|49=MKDATAFHBCS2|52=20150520-15:24:11.916|56=LVDEVELOP8|10=109|
20150520-15:24:19.043: 8=FIX.4.4|9=67|35=0|34=140|49=LVDEVELOP8|52=20150520-15:24:19.043|56=MKDATAFHBCS2|10=108|
20150520-15:25:12.723: 8=FIX.4.4|9=67|35=0|34=141|49=MKDATAFHBCS2|52=20150520-15:25:12.917|56=LVDEVELOP8|10=113|
20150520-15:25:19.043: 8=FIX.4.4|9=67|35=0|34=141|49=LVDEVELOP8|52=20150520-15:25:19.043|56=MKDATAFHBCS2|10=110|
20150520-15:26:13.720: 8=FIX.4.4|9=67|35=0|34=142|49=MKDATAFHBCS2|52=20150520-15:26:13.911|56=LVDEVELOP8|10=110|
20150520-15:26:19.044: 8=FIX.4.4|9=67|35=0|34=142|49=LVDEVELOP8|52=20150520-15:26:19.044|56=MKDATAFHBCS2|10=113|
20150520-15:27:13.716: 8=FIX.4.4|9=67|35=0|34=143|49=MKDATAFHBCS2|52=20150520-15:27:13.911|56=LVDEVELOP8|10=112|
20150520-15:27:19.044: 8=FIX.4.4|9=67|35=0|34=143|49=LVDEVELOP8|52=20150520-15:27:19.044|56=MKDATAFHBCS2|10=115|
20150520-15:28:14.713: 8=FIX.4.4|9=67|35=0|34=144|49=MKDATAFHBCS2|52=20150520-15:28:14.908|56=LVDEVELOP8|10=121|
20150520-15:28:20.044: 8=FIX.4.4|9=67|35=0|34=144|49=LVDEVELOP8|52=20150520-15:28:20.043|56=MKDATAFHBCS2|10=108|
20150520-15:29:15.725: 8=FIX.4.4|9=67|35=0|34=145|49=MKDATAFHBCS2|52=20150520-15:29:15.920|56=LVDEVELOP8|10=118|
20150520-15:29:20.043: 8=FIX.4.4|9=67|35=0|34=145|49=LVDEVELOP8|52=20150520-15:29:20.043|56=MKDATAFHBCS2|10=110|
20150520-15:30:16.720: 8=FIX.4.4|9=67|35=0|34=146|49=MKDATAFHBCS2|52=20150520-15:30:16.917|56=LVDEVELOP8|10=118|
20150520-15:30:20.043: 8=FIX.4.4|9=67|35=0|34=146|49=LVDEVELOP8|52=20150520-15:30:20.043|56=MKDATAFHBCS2|10=103|
20150520-15:31:17.715: 8=FIX.4.4|9=67|35=0|34=147|49=MKDATAFHBCS2|52=20150520-15:31:17.910|56=LVDEVELOP8|10=114|
20150520-15:31:20.043: 8=FIX.4.4|9=67|35=0|34=147|49=LVDEVELOP8|52=20150520-15:31:20.043|56=MKDATAFHBCS2|10=105|
20150520-15:32:17.712: 8=FIX.4.4|9=67|35=0|34=148|49=MKDATAFHBCS2|52=20150520-15:32:17.912|56=LVDEVELOP8|10=118|
20150520-15:32:20.043: 8=FIX.4.4|9=67|35=0|34=148|49=LVDEVELOP8|52=20150520-15:32:20.043|56=MKDATAFHBCS2|10=107|
20150520-15:33:18.709: 8=FIX.4.4|9=67|35=0|34=149|49=MKDATAFHBCS2|52=20150520-15:33:18.908|56=LVDEVELOP8|10=126|
20150520-15:33:20.043: 8=FIX.4.4|9=67|35=0|34=149|49=LVDEVELOP8|52=20150520-15:33:20.043|56=MKDATAFHBCS2|10=109|
20150520-15:34:18.721: 8=FIX.4.4|9=67|35=0|34=150|49=MKDATAFHBCS2|52=20150520-15:34:18.921|56=LVDEVELOP8|10=114|
20150520-15:34:20.043: 8=FIX.4.4|9=67|35=0|34=150|49=LVDEVELOP8|52=20150520-15:34:20.043|56=MKDATAFHBCS2|10=102|
20150520-15:35:19.719: 8=FIX.4.4|9=67|35=0|34=151|49=MKDATAFHBCS2|52=20150520-15:35:19.916|56=LVDEVELOP8|10=121|
20150520-15:35:20.044: 8=FIX.4.4|9=67|35=0|34=151|49=LVDEVELOP8|52=20150520-15:35:20.044|56=MKDATAFHBCS2|10=105|
20150520-15:36:20.721: 8=FIX.4.4|9=67|35=0|34=152|49=MKDATAFHBCS2|52=20150520-15:36:20.909|56=LVDEVELOP8|10=117|
20150520-15:36:20.721: 8=FIX.4.4|9=67|35=0|34=152|49=LVDEVELOP8|52=20150520-15:36:20.721|56=MKDATAFHBCS2|10=109|
20150520-15:37:20.711: 8=FIX.4.4|9=67|35=0|34=153|49=MKDATAFHBCS2|52=20150520-15:37:20.909|56=LVDEVELOP8|10=119|
20150520-15:37:21.043: 8=FIX.4.4|9=67|35=0|34=153|49=LVDEVELOP8|52=20150520-15:37:21.043|56=MKDATAFHBCS2|10=109|
20150520-15:38:21.043: 8=FIX.4.4|9=67|35=0|34=154|49=LVDEVELOP8|52=20150520-15:38:21.043|56=MKDATAFHBCS2|10=111|
20150520-15:38:21.045: 8=FIX.4.4|9=67|35=0|34=154|49=MKDATAFHBCS2|52=20150520-15:38:21.234|56=LVDEVELOP8|10=113|
20150520-15:39:21.043: 8=FIX.4.4|9=67|35=0|34=155|49=LVDEVELOP8|52=20150520-15:39:21.043|56=MKDATAFHBCS2|10=113|
20150520-15:39:21.723: 8=FIX.4.4|9=67|35=0|34=155|49=MKDATAFHBCS2|52=20150520-15:39:21.917|56=LVDEVELOP8|10=123|
20150520-15:40:21.043: 8=FIX.4.4|9=67|35=0|34=156|49=LVDEVELOP8|52=20150520-15:40:21.043|56=MKDATAFHBCS2|10=106|
20150520-15:40:22.714: 8=FIX.4.4|9=67|35=0|34=156|49=MKDATAFHBCS2|52=20150520-15:40:22.915|56=LVDEVELOP8|10=115|
20150520-15:41:21.043: 8=FIX.4.4|9=67|35=0|34=157|49=LVDEVELOP8|52=20150520-15:41:21.043|56=MKDATAFHBCS2|10=108|
20150520-15:41:23.717: 8=FIX.4.4|9=67|35=0|34=157|49=MKDATAFHBCS2|52=20150520-15:41:23.907|56=LVDEVELOP8|10=119|
20150520-15:42:21.044: 8=FIX.4.4|9=67|35=0|34=158|49=LVDEVELOP8|52=20150520-15:42:21.044|56=MKDATAFHBCS2|10=111|
20150520-15:42:23.716: 8=FIX.4.4|9=67|35=0|34=158|49=MKDATAFHBCS2|52=20150520-15:42:23.907|56=LVDEVELOP8|10=121|
20150520-15:43:21.044: 8=FIX.4.4|9=67|35=0|34=159|49=LVDEVELOP8|52=20150520-15:43:21.044|56=MKDATAFHBCS2|10=113|
20150520-15:43:24.723: 8=FIX.4.4|9=67|35=0|34=159|49=MKDATAFHBCS2|52=20150520-15:43:24.756|56=LVDEVELOP8|10=126|
20150520-15:44:22.044: 8=FIX.4.4|9=67|35=0|34=160|49=LVDEVELOP8|52=20150520-15:44:22.044|56=MKDATAFHBCS2|10=107|
20150520-15:44:24.716: 8=FIX.4.4|9=67|35=0|34=160|49=MKDATAFHBCS2|52=20150520-15:44:24.829|56=LVDEVELOP8|10=120|
20150520-15:45:22.046: 8=FIX.4.4|9=67|35=0|34=161|49=LVDEVELOP8|52=20150520-15:45:22.046|56=MKDATAFHBCS2|10=111|
20150520-15:45:24.714: 8=FIX.4.4|9=67|35=0|34=161|49=MKDATAFHBCS2|52=20150520-15:45:24.870|56=LVDEVELOP8|10=118|
20150520-15:46:23.043: 8=FIX.4.4|9=67|35=0|34=162|49=LVDEVELOP8|52=20150520-15:46:23.043|56=MKDATAFHBCS2|10=111|
20150520-15:46:24.711: 8=FIX.4.4|9=67|35=0|34=162|49=MKDATAFHBCS2|52=20150520-15:46:24.889|56=LVDEVELOP8|10=130|
20150520-15:47:23.043: 8=FIX.4.4|9=67|35=0|34=163|49=LVDEVELOP8|52=20150520-15:47:23.043|56=MKDATAFHBCS2|10=113|
20150520-15:47:24.710: 8=FIX.4.4|9=67|35=0|34=163|49=MKDATAFHBCS2|52=20150520-15:47:24.898|56=LVDEVELOP8|10=132|
20150520-15:48:23.043: 8=FIX.4.4|9=67|35=0|34=164|49=LVDEVELOP8|52=20150520-15:48:23.043|56=MKDATAFHBCS2|10=115|
20150520-15:48:25.709: 8=FIX.4.4|9=67|35=0|34=164|49=MKDATAFHBCS2|52=20150520-15:48:25.744|56=LVDEVELOP8|10=125|
20150520-15:49:23.044: 8=FIX.4.4|9=67|35=0|34=165|49=LVDEVELOP8|52=20150520-15:49:23.044|56=MKDATAFHBCS2|10=118|
20150520-15:49:25.719: 8=FIX.4.4|9=67|35=0|34=165|49=MKDATAFHBCS2|52=20150520-15:49:25.819|56=LVDEVELOP8|10=130|
20150520-15:50:24.043: 8=FIX.4.4|9=67|35=0|34=166|49=LVDEVELOP8|52=20150520-15:50:24.043|56=MKDATAFHBCS2|10=111|
20150520-15:50:25.721: 8=FIX.4.4|9=67|35=0|34=166|49=MKDATAFHBCS2|52=20150520-15:50:25.878|56=LVDEVELOP8|10=128|
20150520-15:51:24.043: 8=FIX.4.4|9=67|35=0|34=167|49=LVDEVELOP8|52=20150520-15:51:24.043|56=MKDATAFHBCS2|10=113|
20150520-15:51:25.712: 8=FIX.4.4|9=67|35=0|34=167|49=MKDATAFHBCS2|52=20150520-15:51:25.894|56=LVDEVELOP8|10=128|
20150520-15:52:24.044: 8=FIX.4.4|9=67|35=0|34=168|49=LVDEVELOP8|52=20150520-15:52:24.044|56=MKDATAFHBCS2|10=116|
20150520-15:52:25.710: 8=FIX.4.4|9=67|35=0|34=168|49=MKDATAFHBCS2|52=20150520-15:52:25.901|56=LVDEVELOP8|10=119|
20150520-15:53:24.044: 8=FIX.4.4|9=67|35=0|34=169|49=LVDEVELOP8|52=20150520-15:53:24.044|56=MKDATAFHBCS2|10=118|
20150520-15:53:26.705: 8=FIX.4.4|9=67|35=0|34=169|49=MKDATAFHBCS2|52=20150520-15:53:26.749|56=LVDEVELOP8|10=132|
20150520-15:54:25.043: 8=FIX.4.4|9=67|35=0|34=170|49=LVDEVELOP8|52=20150520-15:54:25.043|56=MKDATAFHBCS2|10=111|
20150520-15:54:26.730: 8=FIX.4.4|9=67|35=0|34=170|49=MKDATAFHBCS2|52=20150520-15:54:26.823|56=LVDEVELOP8|10=118|
20150520-15:55:25.043: 8=FIX.4.4|9=67|35=0|34=171|49=LVDEVELOP8|52=20150520-15:55:25.043|56=MKDATAFHBCS2|10=113|
20150520-15:55:26.704: 8=FIX.4.4|9=67|35=0|34=171|49=MKDATAFHBCS2|52=20150520-15:55:26.861|56=LVDEVELOP8|10=122|
20150520-15:56:25.044: 8=FIX.4.4|9=67|35=0|34=172|49=LVDEVELOP8|52=20150520-15:56:25.044|56=MKDATAFHBCS2|10=116|
20150520-15:56:26.717: 8=FIX.4.4|9=67|35=0|34=172|49=MKDATAFHBCS2|52=20150520-15:56:26.893|56=LVDEVELOP8|10=129|
20150520-15:57:26.043: 8=FIX.4.4|9=67|35=0|34=173|49=LVDEVELOP8|52=20150520-15:57:26.043|56=MKDATAFHBCS2|10=118|
20150520-15:57:26.716: 8=FIX.4.4|9=67|35=0|34=173|49=MKDATAFHBCS2|52=20150520-15:57:26.900|56=LVDEVELOP8|10=120|
20150520-15:58:26.043: 8=FIX.4.4|9=67|35=0|34=174|49=LVDEVELOP8|52=20150520-15:58:26.043|56=MKDATAFHBCS2|10=120|
20150520-15:58:27.712: 8=FIX.4.4|9=67|35=0|34=174|49=MKDATAFHBCS2|52=20150520-15:58:27.751|56=LVDEVELOP8|10=127|
20150520-15:59:26.043: 8=FIX.4.4|9=67|35=0|34=175|49=LVDEVELOP8|52=20150520-15:59:26.043|56=MKDATAFHBCS2|10=122|
20150520-15:59:27.704: 8=FIX.4.4|9=67|35=0|34=175|49=MKDATAFHBCS2|52=20150520-15:59:27.827|56=LVDEVELOP8|10=133|
20150520-16:00:26.043: 8=FIX.4.4|9=67|35=0|34=176|49=LVDEVELOP8|52=20150520-16:00:26.043|56=MKDATAFHBCS2|10=110|
20150520-16:00:28.701: 8=FIX.4.4|9=67|35=0|34=176|49=MKDATAFHBCS2|52=20150520-16:00:28.682|56=LVDEVELOP8|10=121|
20150520-16:01:26.043: 8=FIX.4.4|9=67|35=0|34=177|49=LVDEVELOP8|52=20150520-16:01:26.043|56=MKDATAFHBCS2|10=112|
20150520-16:01:28.714: 8=FIX.4.4|9=67|35=0|34=177|49=MKDATAFHBCS2|52=20150520-16:01:28.804|56=LVDEVELOP8|10=119|
20150520-16:02:26.043: 8=FIX.4.4|9=67|35=0|34=178|49=LVDEVELOP8|52=20150520-16:02:26.043|56=MKDATAFHBCS2|10=114|
20150520-16:02:28.713: 8=FIX.4.4|9=67|35=0|34=178|49=MKDATAFHBCS2|52=20150520-16:02:28.855|56=LVDEVELOP8|10=127|
20150520-16:03:26.043: 8=FIX.4.4|9=67|35=0|34=179|49=LVDEVELOP8|52=20150520-16:03:26.043|56=MKDATAFHBCS2|10=116|
20150520-16:03:28.711: 8=FIX.4.4|9=67|35=0|34=179|49=MKDATAFHBCS2|52=20150520-16:03:28.880|56=LVDEVELOP8|10=127|
20150520-16:04:26.043: 8=FIX.4.4|9=67|35=0|34=180|49=LVDEVELOP8|52=20150520-16:04:26.043|56=MKDATAFHBCS2|10=109|
20150520-16:04:28.709: 8=FIX.4.4|9=67|35=0|34=180|49=MKDATAFHBCS2|52=20150520-16:04:28.892|56=LVDEVELOP8|10=123|
20150520-16:05:26.043: 8=FIX.4.4|9=67|35=0|34=181|49=LVDEVELOP8|52=20150520-16:05:26.043|56=MKDATAFHBCS2|10=111|
20150520-16:05:29.701: 8=FIX.4.4|9=67|35=0|34=181|49=MKDATAFHBCS2|52=20150520-16:05:29.752|56=LVDEVELOP8|10=121|
20150520-16:06:26.043: 8=FIX.4.4|9=67|35=0|34=182|49=LVDEVELOP8|52=20150520-16:06:26.043|56=MKDATAFHBCS2|10=113|
20150520-16:06:29.698: 8=FIX.4.4|9=67|35=0|34=182|49=MKDATAFHBCS2|52=20150520-16:06:29.820|56=LVDEVELOP8|10=119|
20150520-16:07:26.043: 8=FIX.4.4|9=67|35=0|34=183|49=LVDEVELOP8|52=20150520-16:07:26.043|56=MKDATAFHBCS2|10=115|
20150520-16:07:29.717: 8=FIX.4.4|9=67|35=0|34=183|49=MKDATAFHBCS2|52=20150520-16:07:29.869|56=LVDEVELOP8|10=134|
20150520-16:08:26.043: 8=FIX.4.4|9=67|35=0|34=184|49=LVDEVELOP8|52=20150520-16:08:26.043|56=MKDATAFHBCS2|10=117|
20150520-16:08:29.715: 8=FIX.4.4|9=67|35=0|34=184|49=MKDATAFHBCS2|52=20150520-16:08:29.885|56=LVDEVELOP8|10=134|
20150520-16:09:26.044: 8=FIX.4.4|9=67|35=0|34=185|49=LVDEVELOP8|52=20150520-16:09:26.044|56=MKDATAFHBCS2|10=120|
20150520-16:09:29.711: 8=FIX.4.4|9=67|35=0|34=185|49=MKDATAFHBCS2|52=20150520-16:09:29.895|56=LVDEVELOP8|10=137|
20150520-16:10:27.044: 8=FIX.4.4|9=67|35=0|34=186|49=LVDEVELOP8|52=20150520-16:10:27.044|56=MKDATAFHBCS2|10=114|
20150520-16:10:30.710: 8=FIX.4.4|9=67|35=0|34=186|49=MKDATAFHBCS2|52=20150520-16:10:30.758|56=LVDEVELOP8|10=120|
20150520-16:11:27.044: 8=FIX.4.4|9=67|35=0|34=187|49=LVDEVELOP8|52=20150520-16:11:27.044|56=MKDATAFHBCS2|10=116|
20150520-16:11:30.702: 8=FIX.4.4|9=67|35=0|34=187|49=MKDATAFHBCS2|52=20150520-16:11:30.825|56=LVDEVELOP8|10=117|
20150520-16:12:28.044: 8=FIX.4.4|9=67|35=0|34=188|49=LVDEVELOP8|52=20150520-16:12:28.043|56=MKDATAFHBCS2|10=118|
20150520-16:12:30.696: 8=FIX.4.4|9=67|35=0|34=188|49=MKDATAFHBCS2|52=20150520-16:12:30.856|56=LVDEVELOP8|10=123|
20150520-16:13:28.043: 8=FIX.4.4|9=67|35=0|34=189|49=LVDEVELOP8|52=20150520-16:13:28.043|56=MKDATAFHBCS2|10=120|
20150520-16:13:30.710: 8=FIX.4.4|9=67|35=0|34=189|49=MKDATAFHBCS2|52=20150520-16:13:30.887|56=LVDEVELOP8|10=129|
20150520-16:14:28.044: 8=FIX.4.4|9=67|35=0|34=190|49=LVDEVELOP8|52=20150520-16:14:28.044|56=MKDATAFHBCS2|10=114|
20150520-16:14:30.707: 8=FIX.4.4|9=67|35=0|34=190|49=MKDATAFHBCS2|52=20150520-16:14:30.896|56=LVDEVELOP8|10=122|
20150520-16:15:28.044: 8=FIX.4.4|9=67|35=0|34=191|49=LVDEVELOP8|52=20150520-16:15:28.044|56=MKDATAFHBCS2|10=116|
20150520-16:15:31.707: 8=FIX.4.4|9=67|35=0|34=191|49=MKDATAFHBCS2|52=20150520-16:15:31.761|56=LVDEVELOP8|10=116|
20150520-16:16:29.043: 8=FIX.4.4|9=67|35=0|34=192|49=LVDEVELOP8|52=20150520-16:16:29.043|56=MKDATAFHBCS2|10=118|
20150520-16:16:31.704: 8=FIX.4.4|9=67|35=0|34=192|49=MKDATAFHBCS2|52=20150520-16:16:31.805|56=LVDEVELOP8|10=117|
20150520-16:17:29.043: 8=FIX.4.4|9=67|35=0|34=193|49=LVDEVELOP8|52=20150520-16:17:29.043|56=MKDATAFHBCS2|10=120|
20150520-16:17:32.698: 8=FIX.4.4|9=67|35=0|34=193|49=MKDATAFHBCS2|52=20150520-16:17:32.677|56=LVDEVELOP8|10=127|
20150520-16:18:29.043: 8=FIX.4.4|9=67|35=0|34=194|49=LVDEVELOP8|52=20150520-16:18:29.043|56=MKDATAFHBCS2|10=122|
20150520-16:18:32.694: 8=FIX.4.4|9=67|35=0|34=194|49=MKDATAFHBCS2|52=20150520-16:18:32.785|56=LVDEVELOP8|10=129|
20150520-16:19:29.043: 8=FIX.4.4|9=67|35=0|34=195|49=LVDEVELOP8|52=20150520-16:19:29.043|56=MKDATAFHBCS2|10=124|
20150520-16:19:32.708: 8=FIX.4.4|9=67|35=0|34=195|49=MKDATAFHBCS2|52=20150520-16:19:32.853|56=LVDEVELOP8|10=127|
20150520-16:20:29.044: 8=FIX.4.4|9=67|35=0|34=196|49=LVDEVELOP8|52=20150520-16:20:29.044|56=MKDATAFHBCS2|10=118|
20150520-16:20:32.703: 8=FIX.4.4|9=67|35=0|34=196|49=MKDATAFHBCS2|52=20150520-16:20:32.878|56=LVDEVELOP8|10=127|
20150520-16:21:30.044: 8=FIX.4.4|9=67|35=0|34=197|49=LVDEVELOP8|52=20150520-16:21:30.043|56=MKDATAFHBCS2|10=111|
20150520-16:21:32.701: 8=FIX.4.4|9=67|35=0|34=197|49=MKDATAFHBCS2|52=20150520-16:21:32.888|56=LVDEVELOP8|10=130|
20150520-16:22:30.044: 8=FIX.4.4|9=67|35=0|34=198|49=LVDEVELOP8|52=20150520-16:22:30.043|56=MKDATAFHBCS2|10=113|
20150520-16:22:33.696: 8=FIX.4.4|9=67|35=0|34=198|49=MKDATAFHBCS2|52=20150520-16:22:33.762|56=LVDEVELOP8|10=124|
20150520-16:23:30.043: 8=FIX.4.4|9=67|35=0|34=199|49=LVDEVELOP8|52=20150520-16:23:30.043|56=MKDATAFHBCS2|10=115|
20150520-16:23:33.694: 8=FIX.4.4|9=67|35=0|34=199|49=MKDATAFHBCS2|52=20150520-16:23:33.827|56=LVDEVELOP8|10=128|
20150520-16:24:30.044: 8=FIX.4.4|9=67|35=0|34=200|49=LVDEVELOP8|52=20150520-16:24:30.044|56=MKDATAFHBCS2|10=100|
20150520-16:24:33.692: 8=FIX.4.4|9=67|35=0|34=200|49=MKDATAFHBCS2|52=20150520-16:24:33.858|56=LVDEVELOP8|10=116|
20150520-16:25:31.044: 8=FIX.4.4|9=67|35=0|34=201|49=LVDEVELOP8|52=20150520-16:25:31.044|56=MKDATAFHBCS2|10=103|
20150520-16:25:33.709: 8=FIX.4.4|9=67|35=0|34=201|49=MKDATAFHBCS2|52=20150520-16:25:33.890|56=LVDEVELOP8|10=114|
20150520-16:26:31.044: 8=FIX.4.4|9=67|35=0|34=202|49=LVDEVELOP8|52=20150520-16:26:31.044|56=MKDATAFHBCS2|10=105|
20150520-16:26:33.703: 8=FIX.4.4|9=67|35=0|34=202|49=MKDATAFHBCS2|52=20150520-16:26:33.896|56=LVDEVELOP8|10=122|
20150520-16:27:32.043: 8=FIX.4.4|9=67|35=0|34=203|49=LVDEVELOP8|52=20150520-16:27:32.043|56=MKDATAFHBCS2|10=107|
20150520-16:27:34.698: 8=FIX.4.4|9=67|35=0|34=203|49=MKDATAFHBCS2|52=20150520-16:27:34.772|56=LVDEVELOP8|10=118|
20150520-16:28:32.043: 8=FIX.4.4|9=67|35=0|34=204|49=LVDEVELOP8|52=20150520-16:28:32.043|56=MKDATAFHBCS2|10=109|
20150520-16:28:34.696: 8=FIX.4.4|9=67|35=0|34=204|49=MKDATAFHBCS2|52=20150520-16:28:34.833|56=LVDEVELOP8|10=118|
20150520-16:29:32.043: 8=FIX.4.4|9=67|35=0|34=205|49=LVDEVELOP8|52=20150520-16:29:32.043|56=MKDATAFHBCS2|10=111|
20150520-16:29:34.693: 8=FIX.4.4|9=67|35=0|34=205|49=MKDATAFHBCS2|52=20150520-16:29:34.862|56=LVDEVELOP8|10=122|
20150520-16:30:32.044: 8=FIX.4.4|9=67|35=0|34=206|49=LVDEVELOP8|52=20150520-16:30:32.043|56=MKDATAFHBCS2|10=104|
20150520-16:30:34.690: 8=FIX.4.4|9=67|35=0|34=206|49=MKDATAFHBCS2|52=20150520-16:30:34.876|56=LVDEVELOP8|10=120|
20150520-16:31:32.043: 8=FIX.4.4|9=67|35=0|34=207|49=LVDEVELOP8|52=20150520-16:31:32.043|56=MKDATAFHBCS2|10=106|
20150520-16:31:34.714: 8=FIX.4.4|9=67|35=0|34=207|49=MKDATAFHBCS2|52=20150520-16:31:34.898|56=LVDEVELOP8|10=126|
20150520-16:32:32.043: 8=FIX.4.4|9=67|35=0|34=208|49=LVDEVELOP8|52=20150520-16:32:32.043|56=MKDATAFHBCS2|10=108|
20150520-16:32:35.699: 8=FIX.4.4|9=67|35=0|34=208|49=MKDATAFHBCS2|52=20150520-16:32:35.777|56=LVDEVELOP8|10=125|
20150520-16:33:32.043: 8=FIX.4.4|9=67|35=0|34=209|49=LVDEVELOP8|52=20150520-16:33:32.043|56=MKDATAFHBCS2|10=110|
20150520-16:33:35.720: 8=FIX.4.4|9=67|35=0|34=209|49=MKDATAFHBCS2|52=20150520-16:33:35.852|56=LVDEVELOP8|10=121|
20150520-16:34:32.043: 8=FIX.4.4|9=67|35=0|34=210|49=LVDEVELOP8|52=20150520-16:34:32.043|56=MKDATAFHBCS2|10=103|
20150520-16:34:36.693: 8=FIX.4.4|9=67|35=0|34=210|49=MKDATAFHBCS2|52=20150520-16:34:36.721|56=LVDEVELOP8|10=110|
20150520-16:35:32.043: 8=FIX.4.4|9=67|35=0|34=211|49=LVDEVELOP8|52=20150520-16:35:32.043|56=MKDATAFHBCS2|10=105|
20150520-16:35:36.690: 8=FIX.4.4|9=67|35=0|34=211|49=MKDATAFHBCS2|52=20150520-16:35:36.805|56=LVDEVELOP8|10=115|
20150520-16:36:32.043: 8=FIX.4.4|9=67|35=0|34=212|49=LVDEVELOP8|52=20150520-16:36:32.043|56=MKDATAFHBCS2|10=107|
20150520-16:36:36.688: 8=FIX.4.4|9=67|35=0|34=212|49=MKDATAFHBCS2|52=20150520-16:36:36.845|56=LVDEVELOP8|10=121|
20150520-16:37:32.043: 8=FIX.4.4|9=67|35=0|34=213|49=LVDEVELOP8|52=20150520-16:37:32.043|56=MKDATAFHBCS2|10=109|
20150520-16:37:36.701: 8=FIX.4.4|9=67|35=0|34=213|49=MKDATAFHBCS2|52=20150520-16:37:36.879|56=LVDEVELOP8|10=130|
20150520-16:38:32.043: 8=FIX.4.4|9=67|35=0|34=214|49=LVDEVELOP8|52=20150520-16:38:32.043|56=MKDATAFHBCS2|10=111|
20150520-16:38:36.698: 8=FIX.4.4|9=67|35=0|34=214|49=MKDATAFHBCS2|52=20150520-16:38:36.887|56=LVDEVELOP8|10=131|
20150520-16:39:32.044: 8=FIX.4.4|9=67|35=0|34=215|49=LVDEVELOP8|52=20150520-16:39:32.044|56=MKDATAFHBCS2|10=114|
20150520-16:39:37.696: 8=FIX.4.4|9=67|35=0|34=215|49=MKDATAFHBCS2|52=20150520-16:39:37.774|56=LVDEVELOP8|10=129|
20150520-16:40:32.044: 8=FIX.4.4|9=67|35=0|34=216|49=LVDEVELOP8|52=20150520-16:40:32.044|56=MKDATAFHBCS2|10=107|
20150520-16:40:37.691: 8=FIX.4.4|9=67|35=0|34=216|49=MKDATAFHBCS2|52=20150520-16:40:37.832|56=LVDEVELOP8|10=117|
20150520-16:41:32.044: 8=FIX.4.4|9=67|35=0|34=217|49=LVDEVELOP8|52=20150520-16:41:32.044|56=MKDATAFHBCS2|10=109|
20150520-16:41:37.690: 8=FIX.4.4|9=67|35=0|34=217|49=MKDATAFHBCS2|52=20150520-16:41:37.859|56=LVDEVELOP8|10=128|
20150520-16:42:33.044: 8=FIX.4.4|9=67|35=0|34=218|49=LVDEVELOP8|52=20150520-16:42:33.043|56=MKDATAFHBCS2|10=111|
20150520-16:42:37.703: 8=FIX.4.4|9=67|35=0|34=218|49=MKDATAFHBCS2|52=20150520-16:42:37.887|56=LVDEVELOP8|10=131|
20150520-16:43:33.043: 8=FIX.4.4|9=67|35=0|34=219|49=LVDEVELOP8|52=20150520-16:43:33.043|56=MKDATAFHBCS2|10=113|
20150520-16:43:37.702: 8=FIX.4.4|9=67|35=0|34=219|49=MKDATAFHBCS2|52=20150520-16:43:37.892|56=LVDEVELOP8|10=129|
20150520-16:44:33.043: 8=FIX.4.4|9=67|35=0|34=220|49=LVDEVELOP8|52=20150520-16:44:33.043|56=MKDATAFHBCS2|10=106|
20150520-16:44:38.696: 8=FIX.4.4|9=67|35=0|34=220|49=MKDATAFHBCS2|52=20150520-16:44:38.782|56=LVDEVELOP8|10=121|
20150520-16:45:33.043: 8=FIX.4.4|9=67|35=0|34=221|49=LVDEVELOP8|52=20150520-16:45:33.043|56=MKDATAFHBCS2|10=108|
20150520-16:45:38.692: 8=FIX.4.4|9=67|35=0|34=221|49=MKDATAFHBCS2|52=20150520-16:45:38.839|56=LVDEVELOP8|10=126|
20150520-16:46:33.044: 8=FIX.4.4|9=67|35=0|34=222|49=LVDEVELOP8|52=20150520-16:46:33.044|56=MKDATAFHBCS2|10=111|
20150520-16:46:38.691: 8=FIX.4.4|9=67|35=0|34=222|49=MKDATAFHBCS2|52=20150520-16:46:38.863|56=LVDEVELOP8|10=125|
20150520-16:47:34.043: 8=FIX.4.4|9=67|35=0|34=223|49=LVDEVELOP8|52=20150520-16:47:34.043|56=MKDATAFHBCS2|10=113|
20150520-16:47:38.697: 8=FIX.4.4|9=67|35=0|34=223|49=MKDATAFHBCS2|52=20150520-16:47:38.874|56=LVDEVELOP8|10=129|
20150520-16:48:34.043: 8=FIX.4.4|9=67|35=0|34=224|49=LVDEVELOP8|52=20150520-16:48:34.043|56=MKDATAFHBCS2|10=115|
20150520-16:48:38.702: 8=FIX.4.4|9=67|35=0|34=224|49=MKDATAFHBCS2|52=20150520-16:48:38.895|56=LVDEVELOP8|10=134|
20150520-16:49:34.044: 8=FIX.4.4|9=67|35=0|34=225|49=LVDEVELOP8|52=20150520-16:49:34.044|56=MKDATAFHBCS2|10=118|
20150520-16:49:39.697: 8=FIX.4.4|9=67|35=0|34=225|49=MKDATAFHBCS2|52=20150520-16:49:39.786|56=LVDEVELOP8|10=136|
20150520-16:50:34.044: 8=FIX.4.4|9=67|35=0|34=226|49=LVDEVELOP8|52=20150520-16:50:34.044|56=MKDATAFHBCS2|10=111|
20150520-16:50:39.694: 8=FIX.4.4|9=67|35=0|34=226|49=MKDATAFHBCS2|52=20150520-16:50:39.839|56=LVDEVELOP8|10=128|
20150520-16:51:35.043: 8=FIX.4.4|9=67|35=0|34=227|49=LVDEVELOP8|52=20150520-16:51:35.043|56=MKDATAFHBCS2|10=113|
20150520-16:51:40.691: 8=FIX.4.4|9=67|35=0|34=227|49=MKDATAFHBCS2|52=20150520-16:51:40.737|56=LVDEVELOP8|10=119|
20150520-16:52:35.044: 8=FIX.4.4|9=67|35=0|34=228|49=LVDEVELOP8|52=20150520-16:52:35.044|56=MKDATAFHBCS2|10=116|
20150520-16:52:40.691: 8=FIX.4.4|9=67|35=0|34=228|49=MKDATAFHBCS2|52=20150520-16:52:40.811|56=LVDEVELOP8|10=114|
20150520-16:53:36.044: 8=FIX.4.4|9=67|35=0|34=229|49=LVDEVELOP8|52=20150520-16:53:36.043|56=MKDATAFHBCS2|10=118|
20150520-16:53:40.689: 8=FIX.4.4|9=67|35=0|34=229|49=MKDATAFHBCS2|52=20150520-16:53:40.849|56=LVDEVELOP8|10=127|
20150520-16:54:36.043: 8=FIX.4.4|9=67|35=0|34=230|49=LVDEVELOP8|52=20150520-16:54:36.043|56=MKDATAFHBCS2|10=111|
20150520-16:54:40.698: 8=FIX.4.4|9=67|35=0|34=230|49=MKDATAFHBCS2|52=20150520-16:54:40.883|56=LVDEVELOP8|10=118|
20150520-16:55:36.043: 8=FIX.4.4|9=67|35=0|34=231|49=LVDEVELOP8|52=20150520-16:55:36.043|56=MKDATAFHBCS2|10=113|
20150520-16:55:40.704: 8=FIX.4.4|9=67|35=0|34=231|49=MKDATAFHBCS2|52=20150520-16:55:40.887|56=LVDEVELOP8|10=124|
20150520-16:56:36.043: 8=FIX.4.4|9=67|35=0|34=232|49=LVDEVELOP8|52=20150520-16:56:36.043|56=MKDATAFHBCS2|10=115|
20150520-16:56:41.692: 8=FIX.4.4|9=67|35=0|34=232|49=MKDATAFHBCS2|52=20150520-16:56:41.785|56=LVDEVELOP8|10=124|
20150520-16:57:36.043: 8=FIX.4.4|9=67|35=0|34=233|49=LVDEVELOP8|52=20150520-16:57:36.043|56=MKDATAFHBCS2|10=117|
20150520-16:57:41.689: 8=FIX.4.4|9=67|35=0|34=233|49=MKDATAFHBCS2|52=20150520-16:57:41.835|56=LVDEVELOP8|10=122|
20150520-16:58:36.043: 8=FIX.4.4|9=67|35=0|34=234|49=LVDEVELOP8|52=20150520-16:58:36.043|56=MKDATAFHBCS2|10=119|
20150520-16:58:41.687: 8=FIX.4.4|9=67|35=0|34=234|49=MKDATAFHBCS2|52=20150520-16:58:41.860|56=LVDEVELOP8|10=122|
20150520-16:59:36.043: 8=FIX.4.4|9=67|35=0|34=235|49=LVDEVELOP8|52=20150520-16:59:36.043|56=MKDATAFHBCS2|10=121|
20150520-16:59:41.684: 8=FIX.4.4|9=67|35=0|34=235|49=MKDATAFHBCS2|52=20150520-16:59:41.870|56=LVDEVELOP8|10=125|
20150520-17:00:36.043: 8=FIX.4.4|9=67|35=0|34=236|49=LVDEVELOP8|52=20150520-17:00:36.043|56=MKDATAFHBCS2|10=109|
20150520-17:00:41.704: 8=FIX.4.4|9=67|35=0|34=236|49=MKDATAFHBCS2|52=20150520-17:00:41.889|56=LVDEVELOP8|10=123|
20150520-17:01:36.043: 8=FIX.4.4|9=67|35=0|34=237|49=LVDEVELOP8|52=20150520-17:01:36.043|56=MKDATAFHBCS2|10=111|
20150520-17:01:42.693: 8=FIX.4.4|9=67|35=0|34=237|49=MKDATAFHBCS2|52=20150520-17:01:42.791|56=LVDEVELOP8|10=118|
20150520-17:02:36.044: 8=FIX.4.4|9=67|35=0|34=238|49=LVDEVELOP8|52=20150520-17:02:36.044|56=MKDATAFHBCS2|10=114|
20150520-17:02:42.701: 8=FIX.4.4|9=67|35=0|34=238|49=MKDATAFHBCS2|52=20150520-17:02:42.839|56=LVDEVELOP8|10=123|
20150520-17:03:36.044: 8=FIX.4.4|9=67|35=0|34=239|49=LVDEVELOP8|52=20150520-17:03:36.044|56=MKDATAFHBCS2|10=116|
20150520-17:03:42.688: 8=FIX.4.4|9=67|35=0|34=239|49=MKDATAFHBCS2|52=20150520-17:03:42.861|56=LVDEVELOP8|10=120|
20150520-17:04:36.044: 8=FIX.4.4|9=67|35=0|34=240|49=LVDEVELOP8|52=20150520-17:04:36.044|56=MKDATAFHBCS2|10=109|
20150520-17:04:42.685: 8=FIX.4.4|9=67|35=0|34=240|49=MKDATAFHBCS2|52=20150520-17:04:42.872|56=LVDEVELOP8|10=115|
20150520-17:05:37.043: 8=FIX.4.4|9=67|35=0|34=241|49=LVDEVELOP8|52=20150520-17:05:37.043|56=MKDATAFHBCS2|10=111|
20150520-17:05:42.683: 8=FIX.4.4|9=67|35=0|34=241|49=MKDATAFHBCS2|52=20150520-17:05:42.876|56=LVDEVELOP8|10=121|
20150520-17:06:37.043: 8=FIX.4.4|9=67|35=0|34=242|49=LVDEVELOP8|52=20150520-17:06:37.043|56=MKDATAFHBCS2|10=113|
20150520-17:06:43.698: 8=FIX.4.4|9=67|35=0|34=242|49=MKDATAFHBCS2|52=20150520-17:06:43.794|56=LVDEVELOP8|10=123|
20150520-17:07:37.044: 8=FIX.4.4|9=67|35=0|34=243|49=LVDEVELOP8|52=20150520-17:07:37.043|56=MKDATAFHBCS2|10=115|
20150520-17:07:43.692: 8=FIX.4.4|9=67|35=0|34=243|49=MKDATAFHBCS2|52=20150520-17:07:43.805|56=LVDEVELOP8|10=118|
20150520-17:08:37.043: 8=FIX.4.4|9=67|35=0|34=244|49=LVDEVELOP8|52=20150520-17:08:37.043|56=MKDATAFHBCS2|10=117|
20150520-17:08:44.687: 8=FIX.4.4|9=67|35=0|34=244|49=MKDATAFHBCS2|52=20150520-17:08:44.707|56=LVDEVELOP8|10=122|
20150520-17:09:37.043: 8=FIX.4.4|9=67|35=0|34=245|49=LVDEVELOP8|52=20150520-17:09:37.043|56=MKDATAFHBCS2|10=119|
20150520-17:09:44.685: 8=FIX.4.4|9=67|35=0|34=245|49=MKDATAFHBCS2|52=20150520-17:09:44.794|56=LVDEVELOP8|10=130|
20150520-17:10:37.044: 8=FIX.4.4|9=67|35=0|34=246|49=LVDEVELOP8|52=20150520-17:10:37.044|56=MKDATAFHBCS2|10=113|
20150520-17:10:44.683: 8=FIX.4.4|9=67|35=0|34=246|49=MKDATAFHBCS2|52=20150520-17:10:44.837|56=LVDEVELOP8|10=121|
20150520-17:11:37.044: 8=FIX.4.4|9=67|35=0|34=247|49=LVDEVELOP8|52=20150520-17:11:37.044|56=MKDATAFHBCS2|10=115|
20150520-17:11:44.680: 8=FIX.4.4|9=67|35=0|34=247|49=MKDATAFHBCS2|52=20150520-17:11:44.858|56=LVDEVELOP8|10=126|
20150520-17:12:37.044: 8=FIX.4.4|9=67|35=0|34=248|49=LVDEVELOP8|52=20150520-17:12:37.044|56=MKDATAFHBCS2|10=117|
20150520-17:12:44.693: 8=FIX.4.4|9=67|35=0|34=248|49=MKDATAFHBCS2|52=20150520-17:12:44.881|56=LVDEVELOP8|10=124|
20150520-17:13:38.044: 8=FIX.4.4|9=67|35=0|34=249|49=LVDEVELOP8|52=20150520-17:13:38.044|56=MKDATAFHBCS2|10=120|
20150520-17:13:45.690: 8=FIX.4.4|9=67|35=0|34=249|49=MKDATAFHBCS2|52=20150520-17:13:45.792|56=LVDEVELOP8|10=128|
20150520-17:14:39.043: 8=FIX.4.4|9=67|35=0|34=250|49=LVDEVELOP8|52=20150520-17:14:39.043|56=MKDATAFHBCS2|10=113|
20150520-17:14:45.688: 8=FIX.4.4|9=67|35=0|34=250|49=MKDATAFHBCS2|52=20150520-17:14:45.838|56=LVDEVELOP8|10=122|
20150520-17:15:39.043: 8=FIX.4.4|9=67|35=0|34=251|49=LVDEVELOP8|52=20150520-17:15:39.043|56=MKDATAFHBCS2|10=115|
20150520-17:15:45.684: 8=FIX.4.4|9=67|35=0|34=251|49=MKDATAFHBCS2|52=20150520-17:15:45.859|56=LVDEVELOP8|10=127|
20150520-17:16:39.043: 8=FIX.4.4|9=67|35=0|34=252|49=LVDEVELOP8|52=20150520-17:16:39.043|56=MKDATAFHBCS2|10=117|
20150520-17:16:45.681: 8=FIX.4.4|9=67|35=0|34=252|49=MKDATAFHBCS2|52=20150520-17:16:45.868|56=LVDEVELOP8|10=129|
20150520-17:17:39.044: 8=FIX.4.4|9=67|35=0|34=253|49=LVDEVELOP8|52=20150520-17:17:39.044|56=MKDATAFHBCS2|10=120|
20150520-17:17:45.679: 8=FIX.4.4|9=67|35=0|34=253|49=MKDATAFHBCS2|52=20150520-17:17:45.868|56=LVDEVELOP8|10=131|
20150520-17:18:39.044: 8=FIX.4.4|9=67|35=0|34=254|49=LVDEVELOP8|52=20150520-17:18:39.044|56=MKDATAFHBCS2|10=122|
20150520-17:18:46.691: 8=FIX.4.4|9=67|35=0|34=254|49=MKDATAFHBCS2|52=20150520-17:18:46.796|56=LVDEVELOP8|10=134|
20150520-17:19:40.044: 8=FIX.4.4|9=67|35=0|34=255|49=LVDEVELOP8|52=20150520-17:19:40.044|56=MKDATAFHBCS2|10=116|
20150520-17:19:46.689: 8=FIX.4.4|9=67|35=0|34=255|49=MKDATAFHBCS2|52=20150520-17:19:46.838|56=LVDEVELOP8|10=133|
20150520-17:20:41.044: 8=FIX.4.4|9=67|35=0|34=256|49=LVDEVELOP8|52=20150520-17:20:41.044|56=MKDATAFHBCS2|10=110|
20150520-17:20:46.685: 8=FIX.4.4|9=67|35=0|34=256|49=MKDATAFHBCS2|52=20150520-17:20:46.860|56=LVDEVELOP8|10=121|
20150520-17:21:42.043: 8=FIX.4.4|9=67|35=0|34=257|49=LVDEVELOP8|52=20150520-17:21:42.043|56=MKDATAFHBCS2|10=112|
20150520-17:21:46.682: 8=FIX.4.4|9=67|35=0|34=257|49=MKDATAFHBCS2|52=20150520-17:21:46.868|56=LVDEVELOP8|10=131|
20150520-17:22:42.044: 8=FIX.4.4|9=67|35=0|34=258|49=LVDEVELOP8|52=20150520-17:22:42.044|56=MKDATAFHBCS2|10=115|
20150520-17:22:46.688: 8=FIX.4.4|9=67|35=0|34=258|49=MKDATAFHBCS2|52=20150520-17:22:46.872|56=LVDEVELOP8|10=128|
20150520-17:23:43.043: 8=FIX.4.4|9=67|35=0|34=259|49=LVDEVELOP8|52=20150520-17:23:43.043|56=MKDATAFHBCS2|10=117|
20150520-17:23:47.693: 8=FIX.4.4|9=67|35=0|34=259|49=MKDATAFHBCS2|52=20150520-17:23:47.802|56=LVDEVELOP8|10=124|
20150520-17:24:43.044: 8=FIX.4.4|9=67|35=0|34=260|49=LVDEVELOP8|52=20150520-17:24:43.044|56=MKDATAFHBCS2|10=111|
20150520-17:24:47.688: 8=FIX.4.4|9=67|35=0|34=260|49=MKDATAFHBCS2|52=20150520-17:24:47.843|56=LVDEVELOP8|10=122|
20150520-17:25:44.043: 8=FIX.4.4|9=67|35=0|34=261|49=LVDEVELOP8|52=20150520-17:25:44.043|56=MKDATAFHBCS2|10=113|
20150520-17:25:48.687: 8=FIX.4.4|9=67|35=0|34=261|49=MKDATAFHBCS2|52=20150520-17:25:48.766|56=LVDEVELOP8|10=129|
20150520-17:26:44.043: 8=FIX.4.4|9=67|35=0|34=262|49=LVDEVELOP8|52=20150520-17:26:44.043|56=MKDATAFHBCS2|10=115|
20150520-17:26:48.686: 8=FIX.4.4|9=67|35=0|34=262|49=MKDATAFHBCS2|52=20150520-17:26:48.822|56=LVDEVELOP8|10=124|
20150520-17:27:44.044: 8=FIX.4.4|9=67|35=0|34=263|49=LVDEVELOP8|52=20150520-17:27:44.044|56=MKDATAFHBCS2|10=118|
20150520-17:27:48.679: 8=FIX.4.4|9=67|35=0|34=263|49=MKDATAFHBCS2|52=20150520-17:27:48.849|56=LVDEVELOP8|10=135|
20150520-17:28:45.043: 8=FIX.4.4|9=67|35=0|34=264|49=LVDEVELOP8|52=20150520-17:28:45.043|56=MKDATAFHBCS2|10=120|
20150520-17:28:48.679: 8=FIX.4.4|9=67|35=0|34=264|49=MKDATAFHBCS2|52=20150520-17:28:48.862|56=LVDEVELOP8|10=132|
20150520-17:29:45.043: 8=FIX.4.4|9=67|35=0|34=265|49=LVDEVELOP8|52=20150520-17:29:45.043|56=MKDATAFHBCS2|10=122|
20150520-17:29:48.690: 8=FIX.4.4|9=67|35=0|34=265|49=MKDATAFHBCS2|52=20150520-17:29:48.882|56=LVDEVELOP8|10=136|
20150520-17:30:45.043: 8=FIX.4.4|9=67|35=0|34=266|49=LVDEVELOP8|52=20150520-17:30:45.043|56=MKDATAFHBCS2|10=115|
20150520-17:30:49.690: 8=FIX.4.4|9=67|35=0|34=266|49=MKDATAFHBCS2|52=20150520-17:30:49.803|56=LVDEVELOP8|10=123|
20150520-17:31:45.043: 8=FIX.4.4|9=67|35=0|34=267|49=LVDEVELOP8|52=20150520-17:31:45.043|56=MKDATAFHBCS2|10=117|
20150520-17:31:49.683: 8=FIX.4.4|9=67|35=0|34=267|49=MKDATAFHBCS2|52=20150520-17:31:49.841|56=LVDEVELOP8|10=127|
20150520-17:32:45.044: 8=FIX.4.4|9=67|35=0|34=268|49=LVDEVELOP8|52=20150520-17:32:45.044|56=MKDATAFHBCS2|10=120|
20150520-17:32:49.680: 8=FIX.4.4|9=67|35=0|34=268|49=MKDATAFHBCS2|52=20150520-17:32:49.860|56=LVDEVELOP8|10=130|
20150520-17:33:46.043: 8=FIX.4.4|9=67|35=0|34=269|49=LVDEVELOP8|52=20150520-17:33:46.043|56=MKDATAFHBCS2|10=122|
20150520-17:33:49.695: 8=FIX.4.4|9=67|35=0|34=269|49=MKDATAFHBCS2|52=20150520-17:33:49.868|56=LVDEVELOP8|10=140|
20150520-17:34:46.043: 8=FIX.4.4|9=67|35=0|34=270|49=LVDEVELOP8|52=20150520-17:34:46.043|56=MKDATAFHBCS2|10=115|
20150520-17:34:49.675: 8=FIX.4.4|9=67|35=0|34=270|49=MKDATAFHBCS2|52=20150520-17:34:49.870|56=LVDEVELOP8|10=126|
20150520-17:35:46.043: 8=FIX.4.4|9=67|35=0|34=271|49=LVDEVELOP8|52=20150520-17:35:46.043|56=MKDATAFHBCS2|10=117|
20150520-17:35:50.688: 8=FIX.4.4|9=67|35=0|34=271|49=MKDATAFHBCS2|52=20150520-17:35:50.809|56=LVDEVELOP8|10=122|
20150520-17:36:46.043: 8=FIX.4.4|9=67|35=0|34=272|49=LVDEVELOP8|52=20150520-17:36:46.043|56=MKDATAFHBCS2|10=119|
20150520-17:36:50.684: 8=FIX.4.4|9=67|35=0|34=272|49=MKDATAFHBCS2|52=20150520-17:36:50.845|56=LVDEVELOP8|10=124|
20150520-17:37:46.043: 8=FIX.4.4|9=67|35=0|34=273|49=LVDEVELOP8|52=20150520-17:37:46.043|56=MKDATAFHBCS2|10=121|
20150520-17:37:50.682: 8=FIX.4.4|9=67|35=0|34=273|49=MKDATAFHBCS2|52=20150520-17:37:50.862|56=LVDEVELOP8|10=125|
20150520-17:38:46.044: 8=FIX.4.4|9=67|35=0|34=274|49=LVDEVELOP8|52=20150520-17:38:46.044|56=MKDATAFHBCS2|10=124|
20150520-17:38:50.678: 8=FIX.4.4|9=67|35=0|34=274|49=MKDATAFHBCS2|52=20150520-17:38:50.868|56=LVDEVELOP8|10=133|
20150520-17:39:47.043: 8=FIX.4.4|9=67|35=0|34=275|49=LVDEVELOP8|52=20150520-17:39:47.043|56=MKDATAFHBCS2|10=126|
20150520-17:39:50.679: 8=FIX.4.4|9=67|35=0|34=275|49=MKDATAFHBCS2|52=20150520-17:39:50.870|56=LVDEVELOP8|10=128|
20150520-17:40:47.043: 8=FIX.4.4|9=67|35=0|34=276|49=LVDEVELOP8|52=20150520-17:40:47.043|56=MKDATAFHBCS2|10=119|
20150520-17:40:51.672: 8=FIX.4.4|9=67|35=0|34=276|49=MKDATAFHBCS2|52=20150520-17:40:51.795|56=LVDEVELOP8|10=128|
20150520-17:41:47.043: 8=FIX.4.4|9=67|35=0|34=277|49=LVDEVELOP8|52=20150520-17:41:47.043|56=MKDATAFHBCS2|10=121|
20150520-17:41:51.685: 8=FIX.4.4|9=67|35=0|34=277|49=MKDATAFHBCS2|52=20150520-17:41:51.847|56=LVDEVELOP8|10=128|
20150520-17:42:47.044: 8=FIX.4.4|9=67|35=0|34=278|49=LVDEVELOP8|52=20150520-17:42:47.044|56=MKDATAFHBCS2|10=124|
20150520-17:42:52.681: 8=FIX.4.4|9=67|35=0|34=278|49=MKDATAFHBCS2|52=20150520-17:42:52.781|56=LVDEVELOP8|10=128|
20150520-17:43:48.043: 8=FIX.4.4|9=67|35=0|34=279|49=LVDEVELOP8|52=20150520-17:43:48.043|56=MKDATAFHBCS2|10=126|
20150520-17:43:52.679: 8=FIX.4.4|9=67|35=0|34=279|49=MKDATAFHBCS2|52=20150520-17:43:52.828|56=LVDEVELOP8|10=132|
20150520-17:44:48.044: 8=FIX.4.4|9=67|35=0|34=280|49=LVDEVELOP8|52=20150520-17:44:48.044|56=MKDATAFHBCS2|10=120|
20150520-17:44:52.675: 8=FIX.4.4|9=67|35=0|34=280|49=MKDATAFHBCS2|52=20150520-17:44:52.850|56=LVDEVELOP8|10=120|
20150520-17:45:49.043: 8=FIX.4.4|9=67|35=0|34=281|49=LVDEVELOP8|52=20150520-17:45:49.043|56=MKDATAFHBCS2|10=122|
20150520-17:45:52.673: 8=FIX.4.4|9=67|35=0|34=281|49=MKDATAFHBCS2|52=20150520-17:45:52.859|56=LVDEVELOP8|10=131|
20150520-17:46:49.043: 8=FIX.4.4|9=67|35=0|34=282|49=LVDEVELOP8|52=20150520-17:46:49.043|56=MKDATAFHBCS2|10=124|
20150520-17:46:52.670: 8=FIX.4.4|9=67|35=0|34=282|49=MKDATAFHBCS2|52=20150520-17:46:52.861|56=LVDEVELOP8|10=126|
20150520-17:47:49.043: 8=FIX.4.4|9=67|35=0|34=283|49=LVDEVELOP8|52=20150520-17:47:49.043|56=MKDATAFHBCS2|10=126|
20150520-17:47:53.682: 8=FIX.4.4|9=67|35=0|34=283|49=MKDATAFHBCS2|52=20150520-17:47:53.809|56=LVDEVELOP8|10=131|
20150520-17:48:49.044: 8=FIX.4.4|9=67|35=0|34=284|49=LVDEVELOP8|52=20150520-17:48:49.044|56=MKDATAFHBCS2|10=129|
20150520-17:48:53.679: 8=FIX.4.4|9=67|35=0|34=284|49=MKDATAFHBCS2|52=20150520-17:48:53.843|56=LVDEVELOP8|10=131|
20150520-17:49:50.044: 8=FIX.4.4|9=67|35=0|34=285|49=LVDEVELOP8|52=20150520-17:49:50.044|56=MKDATAFHBCS2|10=123|
20150520-17:49:53.677: 8=FIX.4.4|9=67|35=0|34=285|49=MKDATAFHBCS2|52=20150520-17:49:53.857|56=LVDEVELOP8|10=138|
20150520-17:50:50.044: 8=FIX.4.4|9=67|35=0|34=286|49=LVDEVELOP8|52=20150520-17:50:50.044|56=MKDATAFHBCS2|10=116|
20150520-17:50:53.674: 8=FIX.4.4|9=67|35=0|34=286|49=MKDATAFHBCS2|52=20150520-17:50:53.864|56=LVDEVELOP8|10=129|
20150520-17:51:51.044: 8=FIX.4.4|9=67|35=0|34=287|49=LVDEVELOP8|52=20150520-17:51:51.044|56=MKDATAFHBCS2|10=119|
20150520-17:51:53.671: 8=FIX.4.4|9=67|35=0|34=287|49=MKDATAFHBCS2|52=20150520-17:51:53.866|56=LVDEVELOP8|10=133|
20150520-17:52:52.044: 8=FIX.4.4|9=67|35=0|34=288|49=LVDEVELOP8|52=20150520-17:52:52.044|56=MKDATAFHBCS2|10=122|
20150520-17:52:54.683: 8=FIX.4.4|9=67|35=0|34=288|49=MKDATAFHBCS2|52=20150520-17:52:54.815|56=LVDEVELOP8|10=130|
20150520-17:53:53.044: 8=FIX.4.4|9=67|35=0|34=289|49=LVDEVELOP8|52=20150520-17:53:53.044|56=MKDATAFHBCS2|10=125|
20150520-17:53:54.682: 8=FIX.4.4|9=67|35=0|34=289|49=MKDATAFHBCS2|52=20150520-17:53:54.845|56=LVDEVELOP8|10=135|
