20150519-11:09:08.181: 8=FIX.4.4|9=65|35=5|34=1|49=LVDEVELOP8|52=20150519-11:09:08.181|56=MKDATAFHBCS2|10=019|
20150519-11:09:09.108: 8=FIX.4.4|9=65|35=5|34=1|49=LVDEVELOP8|52=20150519-11:09:09.108|56=MKDATAFHBCS2|10=019|
20150519-11:09:10.114: 8=FIX.4.4|9=83|35=A|34=1|49=LVDEVELOP8|52=20150519-11:09:10.113|56=MKDATAFHBCS2|98=0|108=60|141=Y|10=092|
20150519-11:09:10.145: 8=FIX.4.4|9=65|35=5|34=1|49=MKDATAFHBCS2|52=20150519-11:09:10.275|56=LVDEVELOP8|10=016|
20150519-11:09:11.108: 8=FIX.4.4|9=83|35=A|34=1|49=LVDEVELOP8|52=20150519-11:09:11.108|56=MKDATAFHBCS2|98=0|108=60|141=Y|10=097|
20150519-11:09:11.140: 8=FIX.4.4|9=83|35=A|34=1|49=MKDATAFHBCS2|52=20150519-11:09:11.289|56=LVDEVELOP8|98=0|108=60|141=Y|10=107|
20150519-11:10:11.113: 8=FIX.4.4|9=65|35=0|34=2|49=LVDEVELOP8|52=20150519-11:10:11.112|56=MKDATAFHBCS2|10=251|
20150519-11:10:11.128: 8=FIX.4.4|9=65|35=0|34=2|49=MKDATAFHBCS2|52=20150519-11:10:11.289|56=LVDEVELOP8|10=010|
20150519-11:11:12.003: 8=FIX.4.4|9=65|35=0|34=3|49=MKDATAFHBCS2|52=20150519-11:11:12.179|56=LVDEVELOP8|10=011|
20150519-11:11:12.003: 8=FIX.4.4|9=65|35=0|34=3|49=LVDEVELOP8|52=20150519-11:11:12.003|56=MKDATAFHBCS2|10=253|
20150519-11:12:12.108: 8=FIX.4.4|9=65|35=0|34=4|49=LVDEVELOP8|52=20150519-11:12:12.108|56=MKDATAFHBCS2|10=005|
20150519-11:12:12.995: 8=FIX.4.4|9=65|35=0|34=4|49=MKDATAFHBCS2|52=20150519-11:12:13.048|56=LVDEVELOP8|10=009|
20150519-11:13:12.108: 8=FIX.4.4|9=65|35=0|34=5|49=LVDEVELOP8|52=20150519-11:13:12.108|56=MKDATAFHBCS2|10=007|
20150519-11:13:13.008: 8=FIX.4.4|9=65|35=0|34=5|49=MKDATAFHBCS2|52=20150519-11:13:13.132|56=LVDEVELOP8|10=005|
20150519-11:14:12.108: 8=FIX.4.4|9=65|35=0|34=6|49=LVDEVELOP8|52=20150519-11:14:12.108|56=MKDATAFHBCS2|10=009|
20150519-11:14:13.011: 8=FIX.4.4|9=65|35=0|34=6|49=MKDATAFHBCS2|52=20150519-11:14:13.166|56=LVDEVELOP8|10=014|
20150519-11:15:12.108: 8=FIX.4.4|9=65|35=0|34=7|49=LVDEVELOP8|52=20150519-11:15:12.108|56=MKDATAFHBCS2|10=011|
20150519-11:15:13.003: 8=FIX.4.4|9=65|35=0|34=7|49=MKDATAFHBCS2|52=20150519-11:15:13.180|56=LVDEVELOP8|10=012|
20150519-11:16:12.108: 8=FIX.4.4|9=65|35=0|34=8|49=LVDEVELOP8|52=20150519-11:16:12.108|56=MKDATAFHBCS2|10=013|
20150519-11:16:13.999: 8=FIX.4.4|9=65|35=0|34=8|49=MKDATAFHBCS2|52=20150519-11:16:14.175|56=LVDEVELOP8|10=019|
20150519-11:17:13.107: 8=FIX.4.4|9=65|35=0|34=9|49=LVDEVELOP8|52=20150519-11:17:13.107|56=MKDATAFHBCS2|10=015|
20150519-11:17:14.995: 8=FIX.4.4|9=65|35=0|34=9|49=MKDATAFHBCS2|52=20150519-11:17:15.052|56=LVDEVELOP8|10=016|
20150519-11:18:13.108: 8=FIX.4.4|9=66|35=0|34=10|49=LVDEVELOP8|52=20150519-11:18:13.108|56=MKDATAFHBCS2|10=058|
20150519-11:18:15.008: 8=FIX.4.4|9=66|35=0|34=10|49=MKDATAFHBCS2|52=20150519-11:18:15.131|56=LVDEVELOP8|10=056|
20150519-11:19:13.108: 8=FIX.4.4|9=66|35=0|34=11|49=LVDEVELOP8|52=20150519-11:19:13.108|56=MKDATAFHBCS2|10=060|
20150519-11:19:16.003: 8=FIX.4.4|9=66|35=0|34=11|49=MKDATAFHBCS2|52=20150519-11:19:16.050|56=LVDEVELOP8|10=059|
20150519-11:20:14.108: 8=FIX.4.4|9=66|35=0|34=12|49=LVDEVELOP8|52=20150519-11:20:14.108|56=MKDATAFHBCS2|10=054|
20150519-11:20:16.001: 8=FIX.4.4|9=66|35=0|34=12|49=MKDATAFHBCS2|52=20150519-11:20:16.119|56=LVDEVELOP8|10=058|
20150519-11:21:15.108: 8=FIX.4.4|9=66|35=0|34=13|49=LVDEVELOP8|52=20150519-11:21:15.108|56=MKDATAFHBCS2|10=057|
20150519-11:21:15.998: 8=FIX.4.4|9=66|35=0|34=13|49=MKDATAFHBCS2|52=20150519-11:21:16.152|56=LVDEVELOP8|10=057|
20150519-11:22:15.995: 8=FIX.4.4|9=66|35=0|34=14|49=MKDATAFHBCS2|52=20150519-11:22:16.168|56=LVDEVELOP8|10=066|
20150519-11:22:15.996: 8=FIX.4.4|9=66|35=0|34=14|49=LVDEVELOP8|52=20150519-11:22:15.996|56=MKDATAFHBCS2|10=074|
20150519-11:23:15.993: 8=FIX.4.4|9=66|35=0|34=15|49=MKDATAFHBCS2|52=20150519-11:23:16.181|56=LVDEVELOP8|10=063|
20150519-11:23:16.107: 8=FIX.4.4|9=66|35=0|34=15|49=LVDEVELOP8|52=20150519-11:23:16.107|56=MKDATAFHBCS2|10=061|
20150519-11:24:16.108: 8=FIX.4.4|9=66|35=0|34=16|49=LVDEVELOP8|52=20150519-11:24:16.108|56=MKDATAFHBCS2|10=064|
20150519-11:24:16.114: 8=FIX.4.4|9=66|35=0|34=16|49=MKDATAFHBCS2|52=20150519-11:24:16.205|56=LVDEVELOP8|10=062|
20150519-11:25:16.108: 8=FIX.4.4|9=66|35=0|34=17|49=LVDEVELOP8|52=20150519-11:25:16.108|56=MKDATAFHBCS2|10=066|
20150519-11:25:16.113: 8=FIX.4.4|9=66|35=0|34=17|49=MKDATAFHBCS2|52=20150519-11:25:16.250|56=LVDEVELOP8|10=064|
20150519-11:26:16.999: 8=FIX.4.4|9=66|35=0|34=18|49=MKDATAFHBCS2|52=20150519-11:26:17.173|56=LVDEVELOP8|10=071|
20150519-11:26:17.000: 8=FIX.4.4|9=66|35=0|34=18|49=LVDEVELOP8|52=20150519-11:26:17.000|56=MKDATAFHBCS2|10=060|
20150519-11:27:16.996: 8=FIX.4.4|9=66|35=0|34=19|49=MKDATAFHBCS2|52=20150519-11:27:17.184|56=LVDEVELOP8|10=075|
20150519-11:27:17.108: 8=FIX.4.4|9=66|35=0|34=19|49=LVDEVELOP8|52=20150519-11:27:17.108|56=MKDATAFHBCS2|10=071|
20150519-11:28:16.994: 8=FIX.4.4|9=66|35=0|34=20|49=MKDATAFHBCS2|52=20150519-11:28:17.185|56=LVDEVELOP8|10=069|
20150519-11:28:17.108: 8=FIX.4.4|9=66|35=0|34=20|49=LVDEVELOP8|52=20150519-11:28:17.108|56=MKDATAFHBCS2|10=064|
20150519-11:29:17.990: 8=FIX.4.4|9=66|35=0|34=21|49=MKDATAFHBCS2|52=20150519-11:29:18.100|56=LVDEVELOP8|10=059|
20150519-11:29:17.991: 8=FIX.4.4|9=66|35=0|34=21|49=LVDEVELOP8|52=20150519-11:29:17.990|56=MKDATAFHBCS2|10=075|
20150519-11:30:18.005: 8=FIX.4.4|9=66|35=0|34=22|49=MKDATAFHBCS2|52=20150519-11:30:18.155|56=LVDEVELOP8|10=062|
20150519-11:30:18.005: 8=FIX.4.4|9=66|35=0|34=22|49=LVDEVELOP8|52=20150519-11:30:18.005|56=MKDATAFHBCS2|10=056|
20150519-11:31:18.000: 8=FIX.4.4|9=66|35=0|34=23|49=MKDATAFHBCS2|52=20150519-11:31:18.173|56=LVDEVELOP8|10=064|
20150519-11:31:18.107: 8=FIX.4.4|9=66|35=0|34=23|49=LVDEVELOP8|52=20150519-11:31:18.107|56=MKDATAFHBCS2|10=061|
20150519-11:32:17.998: 8=FIX.4.4|9=66|35=0|34=24|49=MKDATAFHBCS2|52=20150519-11:32:18.181|56=LVDEVELOP8|10=065|
20150519-11:32:18.107: 8=FIX.4.4|9=66|35=0|34=24|49=LVDEVELOP8|52=20150519-11:32:18.107|56=MKDATAFHBCS2|10=063|
20150519-11:33:17.995: 8=FIX.4.4|9=66|35=0|34=25|49=MKDATAFHBCS2|52=20150519-11:33:18.184|56=LVDEVELOP8|10=070|
20150519-11:33:18.108: 8=FIX.4.4|9=66|35=0|34=25|49=LVDEVELOP8|52=20150519-11:33:18.108|56=MKDATAFHBCS2|10=066|
20150519-11:34:18.108: 8=FIX.4.4|9=66|35=0|34=26|49=LVDEVELOP8|52=20150519-11:34:18.108|56=MKDATAFHBCS2|10=068|
20150519-11:34:18.110: 8=FIX.4.4|9=66|35=0|34=26|49=MKDATAFHBCS2|52=20150519-11:34:18.211|56=LVDEVELOP8|10=063|
20150519-11:35:18.988: 8=FIX.4.4|9=66|35=0|34=27|49=MKDATAFHBCS2|52=20150519-11:35:19.137|56=LVDEVELOP8|10=073|
20150519-11:35:18.989: 8=FIX.4.4|9=66|35=0|34=27|49=LVDEVELOP8|52=20150519-11:35:18.988|56=MKDATAFHBCS2|10=086|
20150519-11:36:19.107: 8=FIX.4.4|9=66|35=0|34=28|49=LVDEVELOP8|52=20150519-11:36:19.107|56=MKDATAFHBCS2|10=072|
20150519-11:36:20.011: 8=FIX.4.4|9=66|35=0|34=28|49=MKDATAFHBCS2|52=20150519-11:36:20.037|56=LVDEVELOP8|10=066|
20150519-11:37:19.107: 8=FIX.4.4|9=66|35=0|34=29|49=LVDEVELOP8|52=20150519-11:37:19.107|56=MKDATAFHBCS2|10=074|
20150519-11:37:19.997: 8=FIX.4.4|9=66|35=0|34=29|49=MKDATAFHBCS2|52=20150519-11:37:20.113|56=LVDEVELOP8|10=063|
20150519-11:38:19.108: 8=FIX.4.4|9=66|35=0|34=30|49=LVDEVELOP8|52=20150519-11:38:19.108|56=MKDATAFHBCS2|10=068|
20150519-11:38:19.994: 8=FIX.4.4|9=66|35=0|34=30|49=MKDATAFHBCS2|52=20150519-11:38:20.150|56=LVDEVELOP8|10=057|
20150519-11:39:19.992: 8=FIX.4.4|9=66|35=0|34=31|49=MKDATAFHBCS2|52=20150519-11:39:20.168|56=LVDEVELOP8|10=068|
20150519-11:39:19.992: 8=FIX.4.4|9=66|35=0|34=31|49=LVDEVELOP8|52=20150519-11:39:19.992|56=MKDATAFHBCS2|10=081|
20150519-11:40:19.989: 8=FIX.4.4|9=66|35=0|34=32|49=MKDATAFHBCS2|52=20150519-11:40:20.170|56=LVDEVELOP8|10=054|
20150519-11:40:20.108: 8=FIX.4.4|9=66|35=0|34=32|49=LVDEVELOP8|52=20150519-11:40:20.108|56=MKDATAFHBCS2|10=055|
20150519-11:41:20.108: 8=FIX.4.4|9=66|35=0|34=33|49=LVDEVELOP8|52=20150519-11:41:20.108|56=MKDATAFHBCS2|10=057|
20150519-11:41:20.110: 8=FIX.4.4|9=66|35=0|34=33|49=MKDATAFHBCS2|52=20150519-11:41:20.172|56=LVDEVELOP8|10=058|
20150519-11:42:20.998: 8=FIX.4.4|9=66|35=0|34=34|49=MKDATAFHBCS2|52=20150519-11:42:21.134|56=LVDEVELOP8|10=059|
20150519-11:42:20.999: 8=FIX.4.4|9=66|35=0|34=34|49=LVDEVELOP8|52=20150519-11:42:20.999|56=MKDATAFHBCS2|10=077|
20150519-11:43:20.995: 8=FIX.4.4|9=66|35=0|34=35|49=MKDATAFHBCS2|52=20150519-11:43:21.161|56=LVDEVELOP8|10=061|
20150519-11:43:21.108: 8=FIX.4.4|9=66|35=0|34=35|49=LVDEVELOP8|52=20150519-11:43:21.108|56=MKDATAFHBCS2|10=062|
20150519-11:44:20.992: 8=FIX.4.4|9=66|35=0|34=36|49=MKDATAFHBCS2|52=20150519-11:44:21.173|56=LVDEVELOP8|10=066|
20150519-11:44:21.108: 8=FIX.4.4|9=66|35=0|34=36|49=LVDEVELOP8|52=20150519-11:44:21.108|56=MKDATAFHBCS2|10=064|
20150519-11:45:21.989: 8=FIX.4.4|9=66|35=0|34=37|49=MKDATAFHBCS2|52=20150519-11:45:22.165|56=LVDEVELOP8|10=070|
20150519-11:45:21.989: 8=FIX.4.4|9=66|35=0|34=37|49=LVDEVELOP8|52=20150519-11:45:21.989|56=MKDATAFHBCS2|10=083|
20150519-11:46:22.107: 8=FIX.4.4|9=66|35=0|34=38|49=LVDEVELOP8|52=20150519-11:46:22.107|56=MKDATAFHBCS2|10=068|
20150519-11:46:22.110: 8=FIX.4.4|9=66|35=0|34=38|49=MKDATAFHBCS2|52=20150519-11:46:22.177|56=LVDEVELOP8|10=075|
20150519-11:47:22.108: 8=FIX.4.4|9=66|35=0|34=39|49=LVDEVELOP8|52=20150519-11:47:22.108|56=MKDATAFHBCS2|10=071|
20150519-11:47:22.110: 8=FIX.4.4|9=66|35=0|34=39|49=MKDATAFHBCS2|52=20150519-11:47:22.245|56=LVDEVELOP8|10=073|
20150519-11:48:22.108: 8=FIX.4.4|9=66|35=0|34=40|49=LVDEVELOP8|52=20150519-11:48:22.108|56=MKDATAFHBCS2|10=064|
20150519-11:48:22.110: 8=FIX.4.4|9=66|35=0|34=40|49=MKDATAFHBCS2|52=20150519-11:48:22.272|56=LVDEVELOP8|10=066|
20150519-11:49:22.985: 8=FIX.4.4|9=66|35=0|34=41|49=MKDATAFHBCS2|52=20150519-11:49:23.158|56=LVDEVELOP8|10=072|
20150519-11:49:22.985: 8=FIX.4.4|9=66|35=0|34=41|49=LVDEVELOP8|52=20150519-11:49:22.985|56=MKDATAFHBCS2|10=079|
20150519-11:50:22.989: 8=FIX.4.4|9=66|35=0|34=42|49=MKDATAFHBCS2|52=20150519-11:50:23.165|56=LVDEVELOP8|10=063|
20150519-11:50:22.990: 8=FIX.4.4|9=66|35=0|34=42|49=LVDEVELOP8|52=20150519-11:50:22.990|56=MKDATAFHBCS2|10=068|
20150519-11:51:23.108: 8=FIX.4.4|9=66|35=0|34=43|49=LVDEVELOP8|52=20150519-11:51:23.107|56=MKDATAFHBCS2|10=061|
20150519-11:51:23.110: 8=FIX.4.4|9=66|35=0|34=43|49=MKDATAFHBCS2|52=20150519-11:51:23.181|56=LVDEVELOP8|10=063|
20150519-11:52:23.107: 8=FIX.4.4|9=66|35=0|34=44|49=LVDEVELOP8|52=20150519-11:52:23.107|56=MKDATAFHBCS2|10=063|
20150519-11:52:23.109: 8=FIX.4.4|9=66|35=0|34=44|49=MKDATAFHBCS2|52=20150519-11:52:23.249|56=LVDEVELOP8|10=070|
20150519-11:53:23.108: 8=FIX.4.4|9=66|35=0|34=45|49=LVDEVELOP8|52=20150519-11:53:23.108|56=MKDATAFHBCS2|10=066|
20150519-11:53:23.996: 8=FIX.4.4|9=66|35=0|34=45|49=MKDATAFHBCS2|52=20150519-11:53:24.091|56=LVDEVELOP8|10=068|
20150519-11:54:23.108: 8=FIX.4.4|9=66|35=0|34=46|49=LVDEVELOP8|52=20150519-11:54:23.108|56=MKDATAFHBCS2|10=068|
20150519-11:54:23.993: 8=FIX.4.4|9=66|35=0|34=46|49=MKDATAFHBCS2|52=20150519-11:54:24.141|56=LVDEVELOP8|10=066|
20150519-11:55:23.992: 8=FIX.4.4|9=66|35=0|34=47|49=MKDATAFHBCS2|52=20150519-11:55:24.163|56=LVDEVELOP8|10=072|
20150519-11:55:23.992: 8=FIX.4.4|9=66|35=0|34=47|49=LVDEVELOP8|52=20150519-11:55:23.992|56=MKDATAFHBCS2|10=081|
20150519-11:56:23.988: 8=FIX.4.4|9=66|35=0|34=48|49=MKDATAFHBCS2|52=20150519-11:56:24.172|56=LVDEVELOP8|10=074|
20150519-11:56:24.108: 8=FIX.4.4|9=66|35=0|34=48|49=LVDEVELOP8|52=20150519-11:56:24.108|56=MKDATAFHBCS2|10=073|
20150519-11:57:23.987: 8=FIX.4.4|9=66|35=0|34=49|49=MKDATAFHBCS2|52=20150519-11:57:24.176|56=LVDEVELOP8|10=080|
20150519-11:57:24.108: 8=FIX.4.4|9=66|35=0|34=49|49=LVDEVELOP8|52=20150519-11:57:24.108|56=MKDATAFHBCS2|10=075|
20150519-11:58:24.981: 8=FIX.4.4|9=66|35=0|34=50|49=MKDATAFHBCS2|52=20150519-11:58:25.114|56=LVDEVELOP8|10=066|
20150519-11:58:24.982: 8=FIX.4.4|9=66|35=0|34=50|49=LVDEVELOP8|52=20150519-11:58:24.982|56=MKDATAFHBCS2|10=078|
20150519-11:59:24.995: 8=FIX.4.4|9=66|35=0|34=51|49=MKDATAFHBCS2|52=20150519-11:59:25.162|56=LVDEVELOP8|10=071|
20150519-11:59:24.995: 8=FIX.4.4|9=66|35=0|34=51|49=LVDEVELOP8|52=20150519-11:59:24.995|56=MKDATAFHBCS2|10=084|
20150519-12:00:24.993: 8=FIX.4.4|9=66|35=0|34=52|49=MKDATAFHBCS2|52=20150519-12:00:25.174|56=LVDEVELOP8|10=062|
20150519-12:00:25.107: 8=FIX.4.4|9=66|35=0|34=52|49=LVDEVELOP8|52=20150519-12:00:25.107|56=MKDATAFHBCS2|10=058|
20150519-12:01:24.990: 8=FIX.4.4|9=66|35=0|34=53|49=MKDATAFHBCS2|52=20150519-12:01:25.179|56=LVDEVELOP8|10=069|
20150519-12:01:25.107: 8=FIX.4.4|9=66|35=0|34=53|49=LVDEVELOP8|52=20150519-12:01:25.107|56=MKDATAFHBCS2|10=060|
20150519-12:02:24.986: 8=FIX.4.4|9=66|35=0|34=54|49=MKDATAFHBCS2|52=20150519-12:02:25.179|56=LVDEVELOP8|10=071|
20150519-12:02:25.107: 8=FIX.4.4|9=66|35=0|34=54|49=LVDEVELOP8|52=20150519-12:02:25.107|56=MKDATAFHBCS2|10=062|
20150519-12:03:25.108: 8=FIX.4.4|9=66|35=0|34=55|49=LVDEVELOP8|52=20150519-12:03:25.108|56=MKDATAFHBCS2|10=065|
20150519-12:03:25.115: 8=FIX.4.4|9=66|35=0|34=55|49=MKDATAFHBCS2|52=20150519-12:03:25.242|56=LVDEVELOP8|10=064|
20150519-12:04:25.108: 8=FIX.4.4|9=66|35=0|34=56|49=LVDEVELOP8|52=20150519-12:04:25.108|56=MKDATAFHBCS2|10=067|
20150519-12:04:25.110: 8=FIX.4.4|9=66|35=0|34=56|49=MKDATAFHBCS2|52=20150519-12:04:25.271|56=LVDEVELOP8|10=068|
20150519-12:05:25.993: 8=FIX.4.4|9=66|35=0|34=57|49=MKDATAFHBCS2|52=20150519-12:05:26.176|56=LVDEVELOP8|10=075|
20150519-12:05:25.993: 8=FIX.4.4|9=66|35=0|34=57|49=LVDEVELOP8|52=20150519-12:05:25.993|56=MKDATAFHBCS2|10=081|
20150519-12:06:25.993: 8=FIX.4.4|9=66|35=0|34=58|49=MKDATAFHBCS2|52=20150519-12:06:26.180|56=LVDEVELOP8|10=072|
20150519-12:06:25.993: 8=FIX.4.4|9=66|35=0|34=58|49=LVDEVELOP8|52=20150519-12:06:25.993|56=MKDATAFHBCS2|10=083|
20150519-12:07:25.987: 8=FIX.4.4|9=66|35=0|34=59|49=MKDATAFHBCS2|52=20150519-12:07:26.182|56=LVDEVELOP8|10=076|
20150519-12:07:26.108: 8=FIX.4.4|9=66|35=0|34=59|49=LVDEVELOP8|52=20150519-12:07:26.108|56=MKDATAFHBCS2|10=074|
20150519-12:08:26.108: 8=FIX.4.4|9=66|35=0|34=60|49=LVDEVELOP8|52=20150519-12:08:26.108|56=MKDATAFHBCS2|10=067|
20150519-12:08:26.111: 8=FIX.4.4|9=66|35=0|34=60|49=MKDATAFHBCS2|52=20150519-12:08:26.245|56=LVDEVELOP8|10=069|
20150519-12:09:26.108: 8=FIX.4.4|9=66|35=0|34=61|49=LVDEVELOP8|52=20150519-12:09:26.108|56=MKDATAFHBCS2|10=069|
20150519-12:09:26.111: 8=FIX.4.4|9=66|35=0|34=61|49=MKDATAFHBCS2|52=20150519-12:09:26.273|56=LVDEVELOP8|10=072|
20150519-12:10:26.108: 8=FIX.4.4|9=66|35=0|34=62|49=LVDEVELOP8|52=20150519-12:10:26.108|56=MKDATAFHBCS2|10=062|
20150519-12:10:26.984: 8=FIX.4.4|9=66|35=0|34=62|49=MKDATAFHBCS2|52=20150519-12:10:27.055|56=LVDEVELOP8|10=064|
20150519-12:11:26.996: 8=FIX.4.4|9=66|35=0|34=63|49=MKDATAFHBCS2|52=20150519-12:11:27.128|56=LVDEVELOP8|10=067|
20150519-12:11:26.997: 8=FIX.4.4|9=66|35=0|34=63|49=LVDEVELOP8|52=20150519-12:11:26.997|56=MKDATAFHBCS2|10=080|
20150519-12:12:26.989: 8=FIX.4.4|9=66|35=0|34=64|49=MKDATAFHBCS2|52=20150519-12:12:27.155|56=LVDEVELOP8|10=069|
20150519-12:12:27.107: 8=FIX.4.4|9=66|35=0|34=64|49=LVDEVELOP8|52=20150519-12:12:27.107|56=MKDATAFHBCS2|10=066|
20150519-12:13:26.986: 8=FIX.4.4|9=66|35=0|34=65|49=MKDATAFHBCS2|52=20150519-12:13:27.168|56=LVDEVELOP8|10=075|
20150519-12:13:27.108: 8=FIX.4.4|9=66|35=0|34=65|49=LVDEVELOP8|52=20150519-12:13:27.108|56=MKDATAFHBCS2|10=069|
20150519-12:14:26.984: 8=FIX.4.4|9=66|35=0|34=66|49=MKDATAFHBCS2|52=20150519-12:14:27.170|56=LVDEVELOP8|10=070|
20150519-12:14:28.107: 8=FIX.4.4|9=66|35=0|34=66|49=LVDEVELOP8|52=20150519-12:14:28.107|56=MKDATAFHBCS2|10=071|
20150519-12:15:27.980: 8=FIX.4.4|9=66|35=0|34=67|49=MKDATAFHBCS2|52=20150519-12:15:28.084|56=LVDEVELOP8|10=077|
20150519-12:15:28.107: 8=FIX.4.4|9=66|35=0|34=67|49=LVDEVELOP8|52=20150519-12:15:28.107|56=MKDATAFHBCS2|10=073|
20150519-12:16:27.976: 8=FIX.4.4|9=66|35=0|34=68|49=MKDATAFHBCS2|52=20150519-12:16:28.130|56=LVDEVELOP8|10=071|
20150519-12:16:28.108: 8=FIX.4.4|9=66|35=0|34=68|49=LVDEVELOP8|52=20150519-12:16:28.108|56=MKDATAFHBCS2|10=076|
20150519-12:17:27.990: 8=FIX.4.4|9=66|35=0|34=69|49=MKDATAFHBCS2|52=20150519-12:17:28.165|56=LVDEVELOP8|10=081|
20150519-12:17:28.108: 8=FIX.4.4|9=66|35=0|34=69|49=LVDEVELOP8|52=20150519-12:17:28.108|56=MKDATAFHBCS2|10=078|
20150519-12:18:27.992: 8=FIX.4.4|9=66|35=0|34=70|49=MKDATAFHBCS2|52=20150519-12:18:28.173|56=LVDEVELOP8|10=073|
20150519-12:18:29.107: 8=FIX.4.4|9=66|35=0|34=70|49=LVDEVELOP8|52=20150519-12:18:29.107|56=MKDATAFHBCS2|10=071|
20150519-12:19:28.983: 8=FIX.4.4|9=66|35=0|34=71|49=MKDATAFHBCS2|52=20150519-12:19:29.167|56=LVDEVELOP8|10=079|
20150519-12:19:29.107: 8=FIX.4.4|9=66|35=0|34=71|49=LVDEVELOP8|52=20150519-12:19:29.107|56=MKDATAFHBCS2|10=073|
20150519-12:20:29.107: 8=FIX.4.4|9=66|35=0|34=72|49=LVDEVELOP8|52=20150519-12:20:29.107|56=MKDATAFHBCS2|10=066|
20150519-12:20:29.110: 8=FIX.4.4|9=66|35=0|34=72|49=MKDATAFHBCS2|52=20150519-12:20:29.214|56=LVDEVELOP8|10=065|
20150519-12:21:29.107: 8=FIX.4.4|9=66|35=0|34=73|49=LVDEVELOP8|52=20150519-12:21:29.107|56=MKDATAFHBCS2|10=068|
20150519-12:21:29.131: 8=FIX.4.4|9=66|35=0|34=73|49=MKDATAFHBCS2|52=20150519-12:21:29.256|56=LVDEVELOP8|10=073|
20150519-12:22:29.108: 8=FIX.4.4|9=66|35=0|34=74|49=LVDEVELOP8|52=20150519-12:22:29.108|56=MKDATAFHBCS2|10=071|
20150519-12:22:29.120: 8=FIX.4.4|9=66|35=0|34=74|49=MKDATAFHBCS2|52=20150519-12:22:29.275|56=LVDEVELOP8|10=076|
20150519-12:23:29.990: 8=FIX.4.4|9=66|35=0|34=75|49=MKDATAFHBCS2|52=20150519-12:23:30.173|56=LVDEVELOP8|10=067|
20150519-12:23:29.990: 8=FIX.4.4|9=66|35=0|34=75|49=LVDEVELOP8|52=20150519-12:23:29.990|56=MKDATAFHBCS2|10=082|
20150519-12:24:30.108: 8=FIX.4.4|9=66|35=0|34=76|49=LVDEVELOP8|52=20150519-12:24:30.108|56=MKDATAFHBCS2|10=067|
20150519-12:24:30.110: 8=FIX.4.4|9=66|35=0|34=76|49=MKDATAFHBCS2|52=20150519-12:24:30.257|56=LVDEVELOP8|10=072|
20150519-12:25:30.984: 8=FIX.4.4|9=66|35=0|34=77|49=MKDATAFHBCS2|52=20150519-12:25:31.153|56=LVDEVELOP8|10=070|
20150519-12:25:30.985: 8=FIX.4.4|9=66|35=0|34=77|49=LVDEVELOP8|52=20150519-12:25:30.985|56=MKDATAFHBCS2|10=082|
20150519-12:26:30.979: 8=FIX.4.4|9=66|35=0|34=78|49=MKDATAFHBCS2|52=20150519-12:26:31.161|56=LVDEVELOP8|10=071|
20150519-12:26:31.107: 8=FIX.4.4|9=66|35=0|34=78|49=LVDEVELOP8|52=20150519-12:26:31.107|56=MKDATAFHBCS2|10=071|
20150519-12:27:31.107: 8=FIX.4.4|9=66|35=0|34=79|49=LVDEVELOP8|52=20150519-12:27:31.107|56=MKDATAFHBCS2|10=073|
20150519-12:27:31.110: 8=FIX.4.4|9=66|35=0|34=79|49=MKDATAFHBCS2|52=20150519-12:27:31.210|56=LVDEVELOP8|10=068|
20150519-12:28:31.107: 8=FIX.4.4|9=66|35=0|34=80|49=LVDEVELOP8|52=20150519-12:28:31.107|56=MKDATAFHBCS2|10=066|
20150519-12:28:31.110: 8=FIX.4.4|9=66|35=0|34=80|49=MKDATAFHBCS2|52=20150519-12:28:31.254|56=LVDEVELOP8|10=069|
20150519-12:29:31.107: 8=FIX.4.4|9=66|35=0|34=81|49=LVDEVELOP8|52=20150519-12:29:31.107|56=MKDATAFHBCS2|10=068|
20150519-12:29:31.110: 8=FIX.4.4|9=66|35=0|34=81|49=MKDATAFHBCS2|52=20150519-12:29:31.287|56=LVDEVELOP8|10=077|
20150519-12:30:31.108: 8=FIX.4.4|9=66|35=0|34=82|49=LVDEVELOP8|52=20150519-12:30:31.108|56=MKDATAFHBCS2|10=062|
20150519-12:30:31.111: 8=FIX.4.4|9=66|35=0|34=82|49=MKDATAFHBCS2|52=20150519-12:30:31.296|56=LVDEVELOP8|10=070|
20150519-12:31:31.991: 8=FIX.4.4|9=66|35=0|34=83|49=MKDATAFHBCS2|52=20150519-12:31:32.167|56=LVDEVELOP8|10=070|
20150519-12:31:31.992: 8=FIX.4.4|9=66|35=0|34=83|49=LVDEVELOP8|52=20150519-12:31:31.992|56=MKDATAFHBCS2|10=075|
20150519-12:32:32.108: 8=FIX.4.4|9=66|35=0|34=84|49=LVDEVELOP8|52=20150519-12:32:32.108|56=MKDATAFHBCS2|10=067|
20150519-12:32:32.110: 8=FIX.4.4|9=66|35=0|34=84|49=MKDATAFHBCS2|52=20150519-12:32:32.220|56=LVDEVELOP8|10=062|
20150519-12:33:32.108: 8=FIX.4.4|9=66|35=0|34=85|49=LVDEVELOP8|52=20150519-12:33:32.108|56=MKDATAFHBCS2|10=069|
20150519-12:33:32.112: 8=FIX.4.4|9=66|35=0|34=85|49=MKDATAFHBCS2|52=20150519-12:33:32.257|56=LVDEVELOP8|10=074|
20150519-12:34:32.108: 8=FIX.4.4|9=66|35=0|34=86|49=LVDEVELOP8|52=20150519-12:34:32.108|56=MKDATAFHBCS2|10=071|
20150519-12:34:32.111: 8=FIX.4.4|9=66|35=0|34=86|49=MKDATAFHBCS2|52=20150519-12:34:32.289|56=LVDEVELOP8|10=081|
20150519-12:35:32.983: 8=FIX.4.4|9=66|35=0|34=87|49=MKDATAFHBCS2|52=20150519-12:35:33.170|56=LVDEVELOP8|10=073|
20150519-12:35:32.983: 8=FIX.4.4|9=66|35=0|34=87|49=LVDEVELOP8|52=20150519-12:35:32.983|56=MKDATAFHBCS2|10=084|
20150519-12:36:33.108: 8=FIX.4.4|9=66|35=0|34=88|49=LVDEVELOP8|52=20150519-12:36:33.108|56=MKDATAFHBCS2|10=076|
20150519-12:36:33.110: 8=FIX.4.4|9=66|35=0|34=88|49=MKDATAFHBCS2|52=20150519-12:36:33.289|56=LVDEVELOP8|10=086|
20150519-12:37:33.980: 8=FIX.4.4|9=66|35=0|34=89|49=MKDATAFHBCS2|52=20150519-12:37:34.098|56=LVDEVELOP8|10=087|
20150519-12:37:33.980: 8=FIX.4.4|9=66|35=0|34=89|49=LVDEVELOP8|52=20150519-12:37:33.980|56=MKDATAFHBCS2|10=086|
20150519-12:38:33.997: 8=FIX.4.4|9=66|35=0|34=90|49=MKDATAFHBCS2|52=20150519-12:38:34.134|56=LVDEVELOP8|10=071|
20150519-12:38:33.998: 8=FIX.4.4|9=66|35=0|34=90|49=LVDEVELOP8|52=20150519-12:38:33.998|56=MKDATAFHBCS2|10=088|
20150519-12:39:33.972: 8=FIX.4.4|9=66|35=0|34=91|49=MKDATAFHBCS2|52=20150519-12:39:34.150|56=LVDEVELOP8|10=071|
20150519-12:39:34.107: 8=FIX.4.4|9=66|35=0|34=91|49=LVDEVELOP8|52=20150519-12:39:34.107|56=MKDATAFHBCS2|10=073|
20150519-12:40:33.984: 8=FIX.4.4|9=66|35=0|34=92|49=MKDATAFHBCS2|52=20150519-12:40:34.172|56=LVDEVELOP8|10=068|
20150519-12:40:34.108: 8=FIX.4.4|9=66|35=0|34=92|49=LVDEVELOP8|52=20150519-12:40:34.108|56=MKDATAFHBCS2|10=067|
20150519-12:41:34.108: 8=FIX.4.4|9=66|35=0|34=93|49=LVDEVELOP8|52=20150519-12:41:34.108|56=MKDATAFHBCS2|10=069|
20150519-12:41:34.110: 8=FIX.4.4|9=66|35=0|34=93|49=MKDATAFHBCS2|52=20150519-12:41:34.264|56=LVDEVELOP8|10=072|
20150519-12:42:34.108: 8=FIX.4.4|9=66|35=0|34=94|49=LVDEVELOP8|52=20150519-12:42:34.108|56=MKDATAFHBCS2|10=071|
20150519-12:42:34.111: 8=FIX.4.4|9=66|35=0|34=94|49=MKDATAFHBCS2|52=20150519-12:42:34.282|56=LVDEVELOP8|10=074|
20150519-12:43:34.108: 8=FIX.4.4|9=66|35=0|34=95|49=LVDEVELOP8|52=20150519-12:43:34.108|56=MKDATAFHBCS2|10=073|
20150519-12:43:34.111: 8=FIX.4.4|9=66|35=0|34=95|49=MKDATAFHBCS2|52=20150519-12:43:34.291|56=LVDEVELOP8|10=076|
20150519-12:44:34.973: 8=FIX.4.4|9=66|35=0|34=96|49=MKDATAFHBCS2|52=20150519-12:44:35.165|56=LVDEVELOP8|10=079|
20150519-12:44:34.974: 8=FIX.4.4|9=66|35=0|34=96|49=LVDEVELOP8|52=20150519-12:44:34.974|56=MKDATAFHBCS2|10=086|
20150519-12:45:35.107: 8=FIX.4.4|9=66|35=0|34=97|49=LVDEVELOP8|52=20150519-12:45:35.107|56=MKDATAFHBCS2|10=077|
20150519-12:45:35.110: 8=FIX.4.4|9=66|35=0|34=97|49=MKDATAFHBCS2|52=20150519-12:45:35.304|56=LVDEVELOP8|10=076|
20150519-12:45:53.618: 8=FIX.4.4|9=138|35=V|34=98|49=LVDEVELOP8|52=20150519-12:45:53.618|56=MKDATAFHBCS2|262=649bd77c5e3e4a66|263=1|264=1|146=1|55=CHILE|267=3|269=0|269=1|269=5|10=095|
20150519-12:45:53.619: 8=FIX.4.4|9=142|35=V|34=99|49=LVDEVELOP8|52=20150519-12:45:53.619|56=MKDATAFHBCS2|262=52b41ce196fd4b37|263=1|264=1|146=1|55=CORPBANCA|267=3|269=0|269=1|269=5|10=115|
20150519-12:45:53.619: 8=FIX.4.4|9=144|35=V|34=100|49=LVDEVELOP8|52=20150519-12:45:53.619|56=MKDATAFHBCS2|262=703818f64ed94c8c|263=1|264=1|146=1|55=BSANTANDER|267=3|269=0|269=1|269=5|10=204|
20150519-12:45:53.620: 8=FIX.4.4|9=138|35=V|34=101|49=LVDEVELOP8|52=20150519-12:45:53.620|56=MKDATAFHBCS2|262=-56077c728667bd96|263=1|264=1|146=1|55=CCU|267=3|269=0|269=1|269=5|10=148|
20150519-12:45:53.620: 8=FIX.4.4|9=140|35=V|34=102|49=LVDEVELOP8|52=20150519-12:45:53.620|56=MKDATAFHBCS2|262=40f83f497a434013|263=1|264=1|146=1|55=ENDESA|267=3|269=0|269=1|269=5|10=032|
20150519-12:45:53.625: 8=FIX.4.4|9=141|35=V|34=103|49=LVDEVELOP8|52=20150519-12:45:53.625|56=MKDATAFHBCS2|262=480e22d3abfc4bb8|263=1|264=1|146=1|55=ENERSIS|267=3|269=0|269=1|269=5|10=121|
20150519-12:45:53.627: 8=FIX.4.4|9=142|35=V|34=104|49=LVDEVELOP8|52=20150519-12:45:53.627|56=MKDATAFHBCS2|262=2f225772dd784f0d|263=1|264=1|146=1|55=CENCOSUD|267=3|269=0|269=1|269=5|10=054|
20150519-12:45:53.627: 8=FIX.4.4|9=137|35=V|34=105|49=LVDEVELOP8|52=20150519-12:45:53.627|56=MKDATAFHBCS2|262=2d3e249d225047ee|263=1|264=1|146=1|55=LAN|267=3|269=0|269=1|269=5|10=187|
20150519-12:45:53.634: 8=FIX.4.4|9=144|35=V|34=106|49=LVDEVELOP8|52=20150519-12:45:53.634|56=MKDATAFHBCS2|262=7ba71b13b6b14cb9|263=1|264=1|146=1|55=CONCHATORO|267=3|269=0|269=1|269=5|10=035|
20150519-12:45:53.641: 8=FIX.4.4|9=143|35=V|34=107|49=LVDEVELOP8|52=20150519-12:45:53.641|56=MKDATAFHBCS2|262=-6b7e0ff878f1b3be|263=1|264=1|146=1|55=ANDINA-B|267=3|269=0|269=1|269=5|10=189|
20150519-12:45:53.644: 8=FIX.4.4|9=198|35=W|34=98|49=MKDATAFHBCS2|52=20150519-12:45:53.833|56=LVDEVELOP8|55=CHILE|262=649bd77c5e3e4a66|268=3|269=0|270=70.9|271=100000|282=058|290=1|269=1|270=71.49|271=60000|282=086|290=1|269=5|270=71.51|10=099|
20150519-12:45:53.650: 8=FIX.4.4|9=139|35=V|34=108|49=LVDEVELOP8|52=20150519-12:45:53.650|56=MKDATAFHBCS2|262=-209f94abd85bc22|263=1|264=1|146=1|55=SQM-B|267=3|269=0|269=1|269=5|10=106|
20150519-12:45:53.652: 8=FIX.4.4|9=142|35=V|34=109|49=LVDEVELOP8|52=20150519-12:45:53.652|56=MKDATAFHBCS2|262=5dd98597263e4d5a|263=1|264=1|146=1|55=ANDINA-A|267=3|269=0|269=1|269=5|10=009|
20150519-12:45:53.654: 8=FIX.4.4|9=201|35=W|34=99|49=MKDATAFHBCS2|52=20150519-12:45:53.833|56=LVDEVELOP8|55=CORPBANCA|262=52b41ce196fd4b37|268=3|269=0|270=7.41|271=727841|282=070|290=1|269=1|270=7.45|271=224587|282=090|290=1|269=5|270=7.41|10=088|
20150519-12:45:53.657: 8=FIX.4.4|9=198|35=W|34=100|49=MKDATAFHBCS2|52=20150519-12:45:53.848|56=LVDEVELOP8|55=BSANTANDER|262=703818f64ed94c8c|268=3|269=0|270=32.5|271=93000|282=086|290=1|269=1|270=33|271=141829|282=076|290=1|269=5|270=33|10=189|
20150519-12:45:53.675: 8=FIX.4.4|9=193|35=W|34=101|49=MKDATAFHBCS2|52=20150519-12:45:53.864|56=LVDEVELOP8|55=CCU|262=-56077c728667bd96|268=3|269=0|270=6689|271=2000|282=020|290=1|269=1|270=6990|271=2856|282=020|290=1|269=5|270=6939|10=202|
20150519-12:45:53.676: 8=FIX.4.4|9=194|35=W|34=102|49=MKDATAFHBCS2|52=20150519-12:45:53.864|56=LVDEVELOP8|55=ENDESA|262=40f83f497a434013|268=3|269=0|270=935|271=3000|282=020|290=1|269=1|270=944.99|271=963|282=035|290=1|269=5|270=948|10=041|
20150519-12:45:53.678: 8=FIX.4.4|9=199|35=W|34=103|49=MKDATAFHBCS2|52=20150519-12:45:53.864|56=LVDEVELOP8|55=ENERSIS|262=480e22d3abfc4bb8|268=3|269=0|270=216.01|271=9585|282=086|290=1|269=1|270=217.5|271=41144|282=070|290=1|269=5|270=216|10=055|
20150519-12:45:53.681: 8=FIX.4.4|9=198|35=W|34=104|49=MKDATAFHBCS2|52=20150519-12:45:53.864|56=LVDEVELOP8|55=CENCOSUD|262=2f225772dd784f0d|268=3|269=0|270=1570.1|271=4911|282=035|290=1|269=1|270=1590|271=892|282=070|290=1|269=5|270=1590|10=143|
20150519-12:45:53.683: 8=FIX.4.4|9=191|35=W|34=105|49=MKDATAFHBCS2|52=20150519-12:45:53.864|56=LVDEVELOP8|55=LAN|262=2d3e249d225047ee|268=3|269=0|270=5770.1|271=8|282=090|290=1|269=1|270=5800|271=2096|282=070|290=1|269=5|270=5800|10=163|
20150519-12:45:53.685: 8=FIX.4.4|9=201|35=W|34=106|49=MKDATAFHBCS2|52=20150519-12:45:53.864|56=LVDEVELOP8|55=CONCHATORO|262=7ba71b13b6b14cb9|268=3|269=0|270=1201|271=4788|282=058|290=1|269=1|270=1206.9|271=3000|282=046|290=1|269=5|270=1208|10=150|
20150519-12:45:53.687: 8=FIX.4.4|9=198|35=W|34=107|49=MKDATAFHBCS2|52=20150519-12:45:53.864|56=LVDEVELOP8|55=ANDINA-B|262=-6b7e0ff878f1b3be|268=3|269=0|270=2098|271=3187|282=020|290=1|269=1|270=2115|271=3611|282=090|290=1|269=5|270=2098|10=230|
20150519-12:45:53.689: 8=FIX.4.4|9=194|35=W|34=108|49=MKDATAFHBCS2|52=20150519-12:45:53.879|56=LVDEVELOP8|55=SQM-B|262=-209f94abd85bc22|268=3|269=0|270=12600|271=100|282=072|290=1|269=1|270=12700|271=80|282=088|290=1|269=5|270=12707|10=126|
20150519-12:45:53.690: 8=FIX.4.4|9=159|35=W|34=109|49=MKDATAFHBCS2|52=20150519-12:45:53.879|56=LVDEVELOP8|55=ANDINA-A|262=5dd98597263e4d5a|268=2|269=0|270=1600|271=5000|282=072|290=1|269=5|270=1600|10=068|
20150519-12:45:58.378: 8=FIX.4.4|9=139|35=V|34=110|49=LVDEVELOP8|52=20150519-12:45:58.378|56=MKDATAFHBCS2|262=649bd77c5e3e4a66|263=2|264=1|146=1|55=CHILE|267=3|269=0|269=1|269=5|10=138|
20150519-12:45:58.379: 8=FIX.4.4|9=143|35=V|34=111|49=LVDEVELOP8|52=20150519-12:45:58.379|56=MKDATAFHBCS2|262=52b41ce196fd4b37|263=2|264=1|146=1|55=CORPBANCA|267=3|269=0|269=1|269=5|10=158|
20150519-12:45:58.379: 8=FIX.4.4|9=144|35=V|34=112|49=LVDEVELOP8|52=20150519-12:45:58.379|56=MKDATAFHBCS2|262=703818f64ed94c8c|263=2|264=1|146=1|55=BSANTANDER|267=3|269=0|269=1|269=5|10=216|
20150519-12:45:58.381: 8=FIX.4.4|9=138|35=V|34=113|49=LVDEVELOP8|52=20150519-12:45:58.381|56=MKDATAFHBCS2|262=-56077c728667bd96|263=2|264=1|146=1|55=CCU|267=3|269=0|269=1|269=5|10=161|
20150519-12:45:58.383: 8=FIX.4.4|9=140|35=V|34=114|49=LVDEVELOP8|52=20150519-12:45:58.383|56=MKDATAFHBCS2|262=40f83f497a434013|263=2|264=1|146=1|55=ENDESA|267=3|269=0|269=1|269=5|10=047|
20150519-12:45:58.385: 8=FIX.4.4|9=141|35=V|34=115|49=LVDEVELOP8|52=20150519-12:45:58.385|56=MKDATAFHBCS2|262=480e22d3abfc4bb8|263=2|264=1|146=1|55=ENERSIS|267=3|269=0|269=1|269=5|10=133|
20150519-12:45:58.387: 8=FIX.4.4|9=142|35=V|34=116|49=LVDEVELOP8|52=20150519-12:45:58.387|56=MKDATAFHBCS2|262=2f225772dd784f0d|263=2|264=1|146=1|55=CENCOSUD|267=3|269=0|269=1|269=5|10=066|
20150519-12:45:58.389: 8=FIX.4.4|9=137|35=V|34=117|49=LVDEVELOP8|52=20150519-12:45:58.389|56=MKDATAFHBCS2|262=2d3e249d225047ee|263=2|264=1|146=1|55=LAN|267=3|269=0|269=1|269=5|10=201|
20150519-12:45:58.391: 8=FIX.4.4|9=144|35=V|34=118|49=LVDEVELOP8|52=20150519-12:45:58.390|56=MKDATAFHBCS2|262=7ba71b13b6b14cb9|263=2|264=1|146=1|55=CONCHATORO|267=3|269=0|269=1|269=5|10=043|
20150519-12:45:58.392: 8=FIX.4.4|9=143|35=V|34=119|49=LVDEVELOP8|52=20150519-12:45:58.392|56=MKDATAFHBCS2|262=-6b7e0ff878f1b3be|263=2|264=1|146=1|55=ANDINA-B|267=3|269=0|269=1|269=5|10=201|
20150519-12:45:58.394: 8=FIX.4.4|9=139|35=V|34=120|49=LVDEVELOP8|52=20150519-12:45:58.394|56=MKDATAFHBCS2|262=-209f94abd85bc22|263=2|264=1|146=1|55=SQM-B|267=3|269=0|269=1|269=5|10=111|
20150519-12:45:58.396: 8=FIX.4.4|9=142|35=V|34=121|49=LVDEVELOP8|52=20150519-12:45:58.396|56=MKDATAFHBCS2|262=5dd98597263e4d5a|263=2|264=1|146=1|55=ANDINA-A|267=3|269=0|269=1|269=5|10=014|
20150519-12:46:53.982: 8=FIX.4.4|9=67|35=0|34=110|49=MKDATAFHBCS2|52=20150519-12:46:54.152|56=LVDEVELOP8|10=114|
20150519-12:46:59.107: 8=FIX.4.4|9=67|35=0|34=122|49=LVDEVELOP8|52=20150519-12:46:59.107|56=MKDATAFHBCS2|10=122|
20150519-12:47:53.980: 8=FIX.4.4|9=67|35=0|34=111|49=MKDATAFHBCS2|52=20150519-12:47:54.164|56=LVDEVELOP8|10=119|
20150519-12:47:59.108: 8=FIX.4.4|9=67|35=0|34=123|49=LVDEVELOP8|52=20150519-12:47:59.108|56=MKDATAFHBCS2|10=125|
20150519-12:48:53.977: 8=FIX.4.4|9=67|35=0|34=112|49=MKDATAFHBCS2|52=20150519-12:48:54.168|56=LVDEVELOP8|10=125|
20150519-12:48:59.108: 8=FIX.4.4|9=67|35=0|34=124|49=LVDEVELOP8|52=20150519-12:48:59.108|56=MKDATAFHBCS2|10=127|
20150519-12:49:53.975: 8=FIX.4.4|9=67|35=0|34=113|49=MKDATAFHBCS2|52=20150519-12:49:54.170|56=LVDEVELOP8|10=120|
20150519-12:50:00.107: 8=FIX.4.4|9=67|35=0|34=125|49=LVDEVELOP8|52=20150519-12:50:00.107|56=MKDATAFHBCS2|10=106|
20150519-12:50:54.970: 8=FIX.4.4|9=67|35=0|34=114|49=MKDATAFHBCS2|52=20150519-12:50:55.159|56=LVDEVELOP8|10=121|
20150519-12:51:00.107: 8=FIX.4.4|9=67|35=0|34=126|49=LVDEVELOP8|52=20150519-12:51:00.107|56=MKDATAFHBCS2|10=108|
20150519-12:51:55.970: 8=FIX.4.4|9=67|35=0|34=115|49=MKDATAFHBCS2|52=20150519-12:51:56.141|56=LVDEVELOP8|10=115|
20150519-12:52:00.108: 8=FIX.4.4|9=67|35=0|34=127|49=LVDEVELOP8|52=20150519-12:52:00.108|56=MKDATAFHBCS2|10=111|
20150519-12:52:55.979: 8=FIX.4.4|9=67|35=0|34=116|49=MKDATAFHBCS2|52=20150519-12:52:56.165|56=LVDEVELOP8|10=123|
20150519-12:53:01.108: 8=FIX.4.4|9=67|35=0|34=128|49=LVDEVELOP8|52=20150519-12:53:01.108|56=MKDATAFHBCS2|10=114|
20150519-12:53:55.977: 8=FIX.4.4|9=67|35=0|34=117|49=MKDATAFHBCS2|52=20150519-12:53:56.169|56=LVDEVELOP8|10=129|
20150519-12:54:01.108: 8=FIX.4.4|9=67|35=0|34=129|49=LVDEVELOP8|52=20150519-12:54:01.108|56=MKDATAFHBCS2|10=116|
20150519-12:54:55.974: 8=FIX.4.4|9=67|35=0|34=118|49=MKDATAFHBCS2|52=20150519-12:54:56.169|56=LVDEVELOP8|10=131|
20150519-12:55:02.107: 8=FIX.4.4|9=67|35=0|34=130|49=LVDEVELOP8|52=20150519-12:55:02.107|56=MKDATAFHBCS2|10=109|
20150519-12:55:56.969: 8=FIX.4.4|9=67|35=0|34=119|49=MKDATAFHBCS2|52=20150519-12:55:57.154|56=LVDEVELOP8|10=128|
20150519-12:56:02.107: 8=FIX.4.4|9=67|35=0|34=131|49=LVDEVELOP8|52=20150519-12:56:02.107|56=MKDATAFHBCS2|10=111|
20150519-12:56:57.973: 8=FIX.4.4|9=67|35=0|34=120|49=MKDATAFHBCS2|52=20150519-12:56:58.142|56=LVDEVELOP8|10=119|
20150519-12:57:02.108: 8=FIX.4.4|9=67|35=0|34=132|49=LVDEVELOP8|52=20150519-12:57:02.108|56=MKDATAFHBCS2|10=114|
20150519-12:57:57.979: 8=FIX.4.4|9=67|35=0|34=121|49=MKDATAFHBCS2|52=20150519-12:57:58.159|56=LVDEVELOP8|10=129|
20150519-12:58:02.110: 8=FIX.4.4|9=67|35=0|34=133|49=LVDEVELOP8|52=20150519-12:58:02.110|56=MKDATAFHBCS2|10=109|
20150519-12:58:58.990: 8=FIX.4.4|9=67|35=0|34=122|49=MKDATAFHBCS2|52=20150519-12:58:58.998|56=LVDEVELOP8|10=142|
20150519-12:59:03.108: 8=FIX.4.4|9=67|35=0|34=134|49=LVDEVELOP8|52=20150519-12:59:03.107|56=MKDATAFHBCS2|10=118|
20150519-12:59:59.007: 8=FIX.4.4|9=67|35=0|34=123|49=MKDATAFHBCS2|52=20150519-12:59:59.057|56=LVDEVELOP8|10=131|
20150519-13:00:03.108: 8=FIX.4.4|9=67|35=0|34=135|49=LVDEVELOP8|52=20150519-13:00:03.108|56=MKDATAFHBCS2|10=107|
20150519-13:01:24.409: 8=FIX.4.4|9=83|35=A|34=1|49=LVDEVELOP8|52=20150519-13:01:24.409|56=MKDATAFHBCS2|98=0|108=60|141=Y|10=099|
20150519-13:01:24.477: 8=FIX.4.4|9=83|35=A|34=1|49=MKDATAFHBCS2|52=20150519-13:01:24.569|56=LVDEVELOP8|98=0|108=60|141=Y|10=106|
20150519-13:02:24.977: 8=FIX.4.4|9=65|35=0|34=2|49=MKDATAFHBCS2|52=20150519-13:02:25.150|56=LVDEVELOP8|10=005|
20150519-13:02:24.978: 8=FIX.4.4|9=65|35=0|34=2|49=LVDEVELOP8|52=20150519-13:02:24.978|56=MKDATAFHBCS2|10=022|
20150519-13:03:25.312: 8=FIX.4.4|9=65|35=0|34=3|49=LVDEVELOP8|52=20150519-13:03:25.312|56=MKDATAFHBCS2|10=007|
20150519-13:03:25.315: 8=FIX.4.4|9=65|35=0|34=3|49=MKDATAFHBCS2|52=20150519-13:03:25.464|56=LVDEVELOP8|10=015|
20150519-13:04:25.312: 8=FIX.4.4|9=65|35=0|34=4|49=LVDEVELOP8|52=20150519-13:04:25.312|56=MKDATAFHBCS2|10=009|
20150519-13:04:25.966: 8=FIX.4.4|9=65|35=0|34=4|49=MKDATAFHBCS2|52=20150519-13:04:26.030|56=LVDEVELOP8|10=007|
20150519-13:05:25.964: 8=FIX.4.4|9=65|35=0|34=5|49=MKDATAFHBCS2|52=20150519-13:05:26.094|56=LVDEVELOP8|10=019|
20150519-13:05:25.965: 8=FIX.4.4|9=65|35=0|34=5|49=LVDEVELOP8|52=20150519-13:05:25.965|56=MKDATAFHBCS2|10=025|
20150519-13:06:25.977: 8=FIX.4.4|9=65|35=0|34=6|49=MKDATAFHBCS2|52=20150519-13:06:26.141|56=LVDEVELOP8|10=014|
20150519-13:06:25.977: 8=FIX.4.4|9=65|35=0|34=6|49=LVDEVELOP8|52=20150519-13:06:25.977|56=MKDATAFHBCS2|10=030|
20150519-13:07:25.975: 8=FIX.4.4|9=65|35=0|34=7|49=MKDATAFHBCS2|52=20150519-13:07:26.156|56=LVDEVELOP8|10=022|
20150519-13:07:26.311: 8=FIX.4.4|9=65|35=0|34=7|49=LVDEVELOP8|52=20150519-13:07:26.311|56=MKDATAFHBCS2|10=015|
20150519-13:08:26.311: 8=FIX.4.4|9=65|35=0|34=8|49=LVDEVELOP8|52=20150519-13:08:26.311|56=MKDATAFHBCS2|10=017|
20150519-13:08:26.316: 8=FIX.4.4|9=65|35=0|34=8|49=MKDATAFHBCS2|52=20150519-13:08:26.467|56=LVDEVELOP8|10=029|
20150519-13:09:26.312: 8=FIX.4.4|9=65|35=0|34=9|49=LVDEVELOP8|52=20150519-13:09:26.312|56=MKDATAFHBCS2|10=020|
20150519-13:09:26.977: 8=FIX.4.4|9=65|35=0|34=9|49=MKDATAFHBCS2|52=20150519-13:09:27.039|56=LVDEVELOP8|10=027|
20150519-13:10:26.967: 8=FIX.4.4|9=66|35=0|34=10|49=MKDATAFHBCS2|52=20150519-13:10:27.098|56=LVDEVELOP8|10=065|
20150519-13:10:26.968: 8=FIX.4.4|9=66|35=0|34=10|49=LVDEVELOP8|52=20150519-13:10:26.968|56=MKDATAFHBCS2|10=070|
20150519-13:11:26.976: 8=FIX.4.4|9=66|35=0|34=11|49=MKDATAFHBCS2|52=20150519-13:11:27.129|56=LVDEVELOP8|10=062|
20150519-13:11:26.977: 8=FIX.4.4|9=66|35=0|34=11|49=LVDEVELOP8|52=20150519-13:11:26.977|56=MKDATAFHBCS2|10=072|
20150519-13:12:27.285: 8=FIX.4.4|9=66|35=0|34=12|49=MKDATAFHBCS2|52=20150519-13:12:27.158|56=LVDEVELOP8|10=066|
20150519-13:12:27.285: 8=FIX.4.4|9=66|35=0|34=12|49=LVDEVELOP8|52=20150519-13:12:27.285|56=MKDATAFHBCS2|10=067|
20150519-13:13:27.311: 8=FIX.4.4|9=66|35=0|34=13|49=LVDEVELOP8|52=20150519-13:13:27.311|56=MKDATAFHBCS2|10=059|
20150519-13:13:27.314: 8=FIX.4.4|9=66|35=0|34=13|49=MKDATAFHBCS2|52=20150519-13:13:27.466|56=LVDEVELOP8|10=070|
20150519-13:14:27.311: 8=FIX.4.4|9=66|35=0|34=14|49=LVDEVELOP8|52=20150519-13:14:27.311|56=MKDATAFHBCS2|10=061|
20150519-13:14:27.969: 8=FIX.4.4|9=66|35=0|34=14|49=MKDATAFHBCS2|52=20150519-13:14:28.043|56=LVDEVELOP8|10=064|
20150519-13:15:27.311: 8=FIX.4.4|9=66|35=0|34=15|49=LVDEVELOP8|52=20150519-13:15:27.311|56=MKDATAFHBCS2|10=063|
20150519-13:15:27.964: 8=FIX.4.4|9=66|35=0|34=15|49=MKDATAFHBCS2|52=20150519-13:15:28.060|56=LVDEVELOP8|10=065|
20150519-13:16:27.311: 8=FIX.4.4|9=66|35=0|34=16|49=LVDEVELOP8|52=20150519-13:16:27.311|56=MKDATAFHBCS2|10=065|
20150519-13:16:28.962: 8=FIX.4.4|9=66|35=0|34=16|49=MKDATAFHBCS2|52=20150519-13:16:28.987|56=LVDEVELOP8|10=085|
20150519-13:17:27.311: 8=FIX.4.4|9=66|35=0|34=17|49=LVDEVELOP8|52=20150519-13:17:27.311|56=MKDATAFHBCS2|10=067|
20150519-13:17:28.963: 8=FIX.4.4|9=66|35=0|34=17|49=MKDATAFHBCS2|52=20150519-13:17:29.071|56=LVDEVELOP8|10=072|
20150519-13:18:27.312: 8=FIX.4.4|9=66|35=0|34=18|49=LVDEVELOP8|52=20150519-13:18:27.312|56=MKDATAFHBCS2|10=070|
20150519-13:18:28.984: 8=FIX.4.4|9=66|35=0|34=18|49=MKDATAFHBCS2|52=20150519-13:18:29.128|56=LVDEVELOP8|10=077|
20150519-13:19:28.311: 8=FIX.4.4|9=66|35=0|34=19|49=LVDEVELOP8|52=20150519-13:19:28.311|56=MKDATAFHBCS2|10=072|
20150519-13:19:28.982: 8=FIX.4.4|9=66|35=0|34=19|49=MKDATAFHBCS2|52=20150519-13:19:29.147|56=LVDEVELOP8|10=080|
20150519-13:20:28.312: 8=FIX.4.4|9=66|35=0|34=20|49=LVDEVELOP8|52=20150519-13:20:28.312|56=MKDATAFHBCS2|10=057|
20150519-13:20:29.964: 8=FIX.4.4|9=66|35=0|34=20|49=MKDATAFHBCS2|52=20150519-13:20:30.116|56=LVDEVELOP8|10=052|
20150519-13:21:28.312: 8=FIX.4.4|9=66|35=0|34=21|49=LVDEVELOP8|52=20150519-13:21:28.312|56=MKDATAFHBCS2|10=059|
20150519-13:21:30.986: 8=FIX.4.4|9=66|35=0|34=21|49=MKDATAFHBCS2|52=20150519-13:21:31.045|56=LVDEVELOP8|10=056|
20150519-13:22:29.311: 8=FIX.4.4|9=66|35=0|34=22|49=LVDEVELOP8|52=20150519-13:22:29.311|56=MKDATAFHBCS2|10=061|
20150519-13:22:30.961: 8=FIX.4.4|9=66|35=0|34=22|49=MKDATAFHBCS2|52=20150519-13:22:31.100|56=LVDEVELOP8|10=050|
20150519-13:23:29.312: 8=FIX.4.4|9=66|35=0|34=23|49=LVDEVELOP8|52=20150519-13:23:29.312|56=MKDATAFHBCS2|10=064|
20150519-13:23:30.971: 8=FIX.4.4|9=66|35=0|34=23|49=MKDATAFHBCS2|52=20150519-13:23:31.141|56=LVDEVELOP8|10=057|
20150519-13:24:30.311: 8=FIX.4.4|9=66|35=0|34=24|49=LVDEVELOP8|52=20150519-13:24:30.311|56=MKDATAFHBCS2|10=057|
20150519-13:24:30.967: 8=FIX.4.4|9=66|35=0|34=24|49=MKDATAFHBCS2|52=20150519-13:24:31.153|56=LVDEVELOP8|10=062|
20150519-13:25:30.311: 8=FIX.4.4|9=66|35=0|34=25|49=LVDEVELOP8|52=20150519-13:25:30.311|56=MKDATAFHBCS2|10=059|
20150519-13:25:31.963: 8=FIX.4.4|9=66|35=0|34=25|49=MKDATAFHBCS2|52=20150519-13:25:32.113|56=LVDEVELOP8|10=061|
20150519-13:26:30.312: 8=FIX.4.4|9=66|35=0|34=26|49=LVDEVELOP8|52=20150519-13:26:30.312|56=MKDATAFHBCS2|10=062|
20150519-13:26:32.959: 8=FIX.4.4|9=66|35=0|34=26|49=MKDATAFHBCS2|52=20150519-13:26:33.048|56=LVDEVELOP8|10=071|
20150519-13:27:30.312: 8=FIX.4.4|9=66|35=0|34=27|49=LVDEVELOP8|52=20150519-13:27:30.312|56=MKDATAFHBCS2|10=064|
20150519-13:27:32.957: 8=FIX.4.4|9=66|35=0|34=27|49=MKDATAFHBCS2|52=20150519-13:27:33.098|56=LVDEVELOP8|10=078|
20150519-13:28:30.313: 8=FIX.4.4|9=66|35=0|34=28|49=LVDEVELOP8|52=20150519-13:28:30.313|56=MKDATAFHBCS2|10=067|
20150519-13:28:32.954: 8=FIX.4.4|9=66|35=0|34=28|49=MKDATAFHBCS2|52=20150519-13:28:33.123|56=LVDEVELOP8|10=069|
20150519-13:29:31.312: 8=FIX.4.4|9=66|35=0|34=29|49=LVDEVELOP8|52=20150519-13:29:31.312|56=MKDATAFHBCS2|10=069|
20150519-13:29:32.967: 8=FIX.4.4|9=66|35=0|34=29|49=MKDATAFHBCS2|52=20150519-13:29:33.152|56=LVDEVELOP8|10=073|
20150519-13:30:32.311: 8=FIX.4.4|9=66|35=0|34=30|49=LVDEVELOP8|52=20150519-13:30:32.311|56=MKDATAFHBCS2|10=053|
20150519-13:30:33.969: 8=FIX.4.4|9=66|35=0|34=30|49=MKDATAFHBCS2|52=20150519-13:30:34.109|56=LVDEVELOP8|10=060|
20150519-13:31:07.637: 8=FIX.4.4|9=143|35=V|34=31|49=LVDEVELOP8|52=20150519-13:31:07.637|56=MKDATAFHBCS2|262=-413ed8735c81be91|263=1|264=1|146=1|55=CORPBANCA|267=3|269=0|269=1|269=5|10=099|
20150519-13:31:07.640: 8=FIX.4.4|9=205|35=W|34=31|49=MKDATAFHBCS2|52=20150519-13:31:07.690|56=LVDEVELOP8|55=CORPBANCA|262=-413ed8735c81be91|268=3|269=0|270=7.402|271=1043688|282=035|290=1|269=1|270=7.45|271=224587|282=090|290=1|269=5|270=7.401|10=223|
20150519-13:32:07.970: 8=FIX.4.4|9=66|35=0|34=32|49=MKDATAFHBCS2|52=20150519-13:32:08.097|56=LVDEVELOP8|10=071|
20150519-13:32:07.970: 8=FIX.4.4|9=66|35=0|34=32|49=LVDEVELOP8|52=20150519-13:32:07.970|56=MKDATAFHBCS2|10=070|
20150519-13:33:08.312: 8=FIX.4.4|9=66|35=0|34=33|49=LVDEVELOP8|52=20150519-13:33:08.311|56=MKDATAFHBCS2|10=062|
20150519-13:33:08.314: 8=FIX.4.4|9=66|35=0|34=33|49=MKDATAFHBCS2|52=20150519-13:33:08.315|56=LVDEVELOP8|10=066|
20150519-13:34:08.311: 8=FIX.4.4|9=66|35=0|34=34|49=LVDEVELOP8|52=20150519-13:34:08.311|56=MKDATAFHBCS2|10=064|
20150519-13:34:08.313: 8=FIX.4.4|9=66|35=0|34=34|49=MKDATAFHBCS2|52=20150519-13:34:08.411|56=LVDEVELOP8|10=065|
20150519-13:34:41.514: 8=FIX.4.4|9=155|35=X|34=35|49=MKDATAFHBCS2|52=20150519-13:34:41.636|56=LVDEVELOP8|262=-413ed8735c81be91|268=1|279=2|269=0|55=CORPBANCA|270=7.402|271=1043688|282=035|290=1|10=206|
20150519-13:35:06.575: 8=FIX.4.4|9=154|35=X|34=36|49=MKDATAFHBCS2|52=20150519-13:35:06.710|56=LVDEVELOP8|262=-413ed8735c81be91|268=1|279=0|269=0|55=CORPBANCA|270=7.404|271=150000|282=047|290=1|10=132|
20150519-13:35:07.580: 8=FIX.4.4|9=154|35=X|34=37|49=MKDATAFHBCS2|52=20150519-13:35:07.725|56=LVDEVELOP8|262=-413ed8735c81be91|268=1|279=0|269=0|55=CORPBANCA|270=7.408|271=150000|282=047|290=1|10=144|
20150519-13:35:08.311: 8=FIX.4.4|9=66|35=0|34=35|49=LVDEVELOP8|52=20150519-13:35:08.311|56=MKDATAFHBCS2|10=066|
20150519-13:35:16.551: 8=FIX.4.4|9=154|35=X|34=38|49=MKDATAFHBCS2|52=20150519-13:35:16.698|56=LVDEVELOP8|262=-413ed8735c81be91|268=1|279=2|269=0|55=CORPBANCA|270=7.408|271=150000|282=047|290=1|10=156|
20150519-13:35:16.551: 8=FIX.4.4|9=154|35=X|34=39|49=MKDATAFHBCS2|52=20150519-13:35:16.698|56=LVDEVELOP8|262=-413ed8735c81be91|268=1|279=2|269=0|55=CORPBANCA|270=7.404|271=150000|282=047|290=1|10=153|
20150519-13:35:17.663: 8=FIX.4.4|9=153|35=X|34=40|49=MKDATAFHBCS2|52=20150519-13:35:17.806|56=LVDEVELOP8|262=-413ed8735c81be91|268=1|279=0|269=0|55=CORPBANCA|270=7.408|271=87752|282=035|290=1|10=110|
20150519-13:36:08.311: 8=FIX.4.4|9=66|35=0|34=36|49=LVDEVELOP8|52=20150519-13:36:08.311|56=MKDATAFHBCS2|10=068|
20150519-13:36:17.964: 8=FIX.4.4|9=66|35=0|34=41|49=MKDATAFHBCS2|52=20150519-13:36:18.134|56=LVDEVELOP8|10=068|
20150519-13:37:08.311: 8=FIX.4.4|9=66|35=0|34=37|49=LVDEVELOP8|52=20150519-13:37:08.311|56=MKDATAFHBCS2|10=070|
20150519-13:37:17.957: 8=FIX.4.4|9=66|35=0|34=42|49=MKDATAFHBCS2|52=20150519-13:37:18.145|56=LVDEVELOP8|10=072|
20150519-13:38:08.311: 8=FIX.4.4|9=66|35=0|34=38|49=LVDEVELOP8|52=20150519-13:38:08.311|56=MKDATAFHBCS2|10=072|
20150519-13:38:18.969: 8=FIX.4.4|9=66|35=0|34=43|49=MKDATAFHBCS2|52=20150519-13:38:19.046|56=LVDEVELOP8|10=075|
20150519-13:38:19.991: 8=FIX.4.4|9=153|35=X|34=44|49=MKDATAFHBCS2|52=20150519-13:38:20.061|56=LVDEVELOP8|262=-413ed8735c81be91|268=1|279=0|269=0|55=CORPBANCA|270=7.41|271=150000|282=047|290=1|10=077|
20150519-13:38:28.975: 8=FIX.4.4|9=154|35=X|34=45|49=MKDATAFHBCS2|52=20150519-13:38:29.056|56=LVDEVELOP8|262=-413ed8735c81be91|268=1|279=0|269=0|55=CORPBANCA|270=7.411|271=150000|282=047|290=1|10=141|
20150519-13:39:01.034: 8=FIX.4.4|9=134|35=X|34=46|49=MKDATAFHBCS2|52=20150519-13:39:01.150|56=LVDEVELOP8|262=-413ed8735c81be91|268=1|279=1|269=5|55=CORPBANCA|270=7.45|290=1|10=228|
20150519-13:39:01.053: 8=FIX.4.4|9=152|35=X|34=47|49=MKDATAFHBCS2|52=20150519-13:39:01.166|56=LVDEVELOP8|262=-413ed8735c81be91|268=1|279=1|269=1|55=CORPBANCA|270=7.45|271=24587|282=090|290=1|10=061|
20150519-13:39:08.321: 8=FIX.4.4|9=66|35=0|34=39|49=LVDEVELOP8|52=20150519-13:39:08.321|56=MKDATAFHBCS2|10=075|
20150519-13:39:49.105: 8=FIX.4.4|9=154|35=X|34=48|49=MKDATAFHBCS2|52=20150519-13:39:49.261|56=LVDEVELOP8|262=-413ed8735c81be91|268=1|279=2|269=0|55=CORPBANCA|270=7.411|271=150000|282=047|290=1|10=147|
20150519-13:39:54.120: 8=FIX.4.4|9=154|35=X|34=49|49=MKDATAFHBCS2|52=20150519-13:39:54.271|56=LVDEVELOP8|262=-413ed8735c81be91|268=1|279=0|269=0|55=CORPBANCA|270=7.411|271=150000|282=047|290=1|10=143|
20150519-13:40:09.311: 8=FIX.4.4|9=66|35=0|34=40|49=LVDEVELOP8|52=20150519-13:40:09.311|56=MKDATAFHBCS2|10=059|
20150519-13:40:30.271: 8=FIX.4.4|9=154|35=X|34=50|49=MKDATAFHBCS2|52=20150519-13:40:30.446|56=LVDEVELOP8|262=-413ed8735c81be91|268=1|279=0|269=0|55=CORPBANCA|270=7.419|271=150000|282=047|290=1|10=133|
20150519-13:40:41.270: 8=FIX.4.4|9=154|35=X|34=51|49=MKDATAFHBCS2|52=20150519-13:40:41.447|56=LVDEVELOP8|262=-413ed8735c81be91|268=1|279=2|269=0|55=CORPBANCA|270=7.419|271=150000|282=047|290=1|10=139|
20150519-13:40:41.270: 8=FIX.4.4|9=154|35=X|34=52|49=MKDATAFHBCS2|52=20150519-13:40:41.447|56=LVDEVELOP8|262=-413ed8735c81be91|268=1|279=0|269=0|55=CORPBANCA|270=7.418|271=150000|282=047|290=1|10=137|
20150519-13:40:45.224: 8=FIX.4.4|9=154|35=X|34=53|49=MKDATAFHBCS2|52=20150519-13:40:45.395|56=LVDEVELOP8|262=-413ed8735c81be91|268=1|279=0|269=0|55=CORPBANCA|270=7.419|271=150000|282=047|290=1|10=145|
20150519-13:41:04.306: 8=FIX.4.4|9=154|35=X|34=54|49=MKDATAFHBCS2|52=20150519-13:41:04.479|56=LVDEVELOP8|262=-413ed8735c81be91|268=1|279=2|269=0|55=CORPBANCA|270=7.419|271=150000|282=047|290=1|10=147|
20150519-13:41:07.258: 8=FIX.4.4|9=154|35=X|34=55|49=MKDATAFHBCS2|52=20150519-13:41:07.428|56=LVDEVELOP8|262=-413ed8735c81be91|268=1|279=0|269=0|55=CORPBANCA|270=7.419|271=150000|282=047|290=1|10=143|
20150519-13:41:09.311: 8=FIX.4.4|9=66|35=0|34=41|49=LVDEVELOP8|52=20150519-13:41:09.311|56=MKDATAFHBCS2|10=061|
20150519-13:41:29.309: 8=FIX.4.4|9=154|35=X|34=56|49=MKDATAFHBCS2|52=20150519-13:41:29.474|56=LVDEVELOP8|262=-413ed8735c81be91|268=1|279=2|269=0|55=CORPBANCA|270=7.419|271=150000|282=047|290=1|10=151|
20150519-13:42:09.311: 8=FIX.4.4|9=66|35=0|34=42|49=LVDEVELOP8|52=20150519-13:42:09.311|56=MKDATAFHBCS2|10=063|
20150519-13:42:29.953: 8=FIX.4.4|9=66|35=0|34=57|49=MKDATAFHBCS2|52=20150519-13:42:30.122|56=LVDEVELOP8|10=063|
20150519-13:43:09.311: 8=FIX.4.4|9=66|35=0|34=43|49=LVDEVELOP8|52=20150519-13:43:09.311|56=MKDATAFHBCS2|10=065|
20150519-13:43:30.950: 8=FIX.4.4|9=66|35=0|34=58|49=MKDATAFHBCS2|52=20150519-13:43:31.048|56=LVDEVELOP8|10=073|
20150519-13:44:09.311: 8=FIX.4.4|9=66|35=0|34=44|49=LVDEVELOP8|52=20150519-13:44:09.311|56=MKDATAFHBCS2|10=067|
20150519-13:44:30.962: 8=FIX.4.4|9=66|35=0|34=59|49=MKDATAFHBCS2|52=20150519-13:44:31.114|56=LVDEVELOP8|10=069|
20150519-13:45:09.311: 8=FIX.4.4|9=66|35=0|34=45|49=LVDEVELOP8|52=20150519-13:45:09.311|56=MKDATAFHBCS2|10=069|
20150519-13:45:18.786: 8=FIX.4.4|9=154|35=X|34=60|49=MKDATAFHBCS2|52=20150519-13:45:18.935|56=LVDEVELOP8|262=-413ed8735c81be91|268=1|279=0|269=0|55=CORPBANCA|270=7.423|271=150000|282=047|290=1|10=143|
20150519-13:45:28.786: 8=FIX.4.4|9=154|35=X|34=61|49=MKDATAFHBCS2|52=20150519-13:45:28.952|56=LVDEVELOP8|262=-413ed8735c81be91|268=1|279=0|269=0|55=CORPBANCA|270=7.435|271=150000|282=047|290=1|10=147|
20150519-13:45:29.819: 8=FIX.4.4|9=154|35=X|34=62|49=MKDATAFHBCS2|52=20150519-13:45:29.982|56=LVDEVELOP8|262=-413ed8735c81be91|268=1|279=0|269=0|55=CORPBANCA|270=7.439|271=150000|282=047|290=1|10=156|
20150519-13:45:34.822: 8=FIX.4.4|9=154|35=X|34=63|49=MKDATAFHBCS2|52=20150519-13:45:34.991|56=LVDEVELOP8|262=-413ed8735c81be91|268=1|279=2|269=0|55=CORPBANCA|270=7.439|271=150000|282=047|290=1|10=155|
20150519-13:45:54.917: 8=FIX.4.4|9=154|35=X|34=64|49=MKDATAFHBCS2|52=20150519-13:45:55.089|56=LVDEVELOP8|262=-413ed8735c81be91|268=1|279=0|269=0|55=CORPBANCA|270=7.439|271=150000|282=047|290=1|10=155|
20150519-13:46:09.312: 8=FIX.4.4|9=66|35=0|34=46|49=LVDEVELOP8|52=20150519-13:46:09.312|56=MKDATAFHBCS2|10=072|
20150519-13:46:25.944: 8=FIX.4.4|9=154|35=X|34=65|49=MKDATAFHBCS2|52=20150519-13:46:26.121|56=LVDEVELOP8|262=-413ed8735c81be91|268=1|279=2|269=0|55=CORPBANCA|270=7.439|271=150000|282=047|290=1|10=144|
20150519-13:46:25.945: 8=FIX.4.4|9=154|35=X|34=66|49=MKDATAFHBCS2|52=20150519-13:46:26.121|56=LVDEVELOP8|262=-413ed8735c81be91|268=1|279=0|269=0|55=CORPBANCA|270=7.438|271=150000|282=047|290=1|10=142|
20150519-13:46:28.958: 8=FIX.4.4|9=154|35=X|34=67|49=MKDATAFHBCS2|52=20150519-13:46:29.132|56=LVDEVELOP8|262=-413ed8735c81be91|268=1|279=2|269=0|55=CORPBANCA|270=7.438|271=150000|282=047|290=1|10=150|
20150519-13:46:30.031: 8=FIX.4.4|9=154|35=X|34=68|49=MKDATAFHBCS2|52=20150519-13:46:30.193|56=LVDEVELOP8|262=-413ed8735c81be91|268=1|279=0|269=0|55=CORPBANCA|270=7.437|271=150000|282=047|290=1|10=147|
20150519-13:46:40.931: 8=FIX.4.4|9=154|35=X|34=69|49=MKDATAFHBCS2|52=20150519-13:46:41.114|56=LVDEVELOP8|262=-413ed8735c81be91|268=1|279=2|269=0|55=CORPBANCA|270=7.437|271=150000|282=047|290=1|10=145|
20150519-13:46:41.947: 8=FIX.4.4|9=154|35=X|34=70|49=MKDATAFHBCS2|52=20150519-13:46:42.128|56=LVDEVELOP8|262=-413ed8735c81be91|268=1|279=0|269=0|55=CORPBANCA|270=7.437|271=150000|282=047|290=1|10=141|
20150519-13:46:43.925: 8=FIX.4.4|9=154|35=X|34=71|49=MKDATAFHBCS2|52=20150519-13:46:44.109|56=LVDEVELOP8|262=-413ed8735c81be91|268=1|279=2|269=0|55=CORPBANCA|270=7.437|271=150000|282=047|290=1|10=145|
20150519-13:46:44.952: 8=FIX.4.4|9=154|35=X|34=72|49=MKDATAFHBCS2|52=20150519-13:46:45.139|56=LVDEVELOP8|262=-413ed8735c81be91|268=1|279=0|269=0|55=CORPBANCA|270=7.436|271=150000|282=047|290=1|10=147|
20150519-13:47:10.312: 8=FIX.4.4|9=66|35=0|34=47|49=LVDEVELOP8|52=20150519-13:47:10.312|56=MKDATAFHBCS2|10=066|
20150519-13:47:45.961: 8=FIX.4.4|9=66|35=0|34=73|49=MKDATAFHBCS2|52=20150519-13:47:46.087|56=LVDEVELOP8|10=083|
20150519-13:48:11.311: 8=FIX.4.4|9=66|35=0|34=48|49=LVDEVELOP8|52=20150519-13:48:11.311|56=MKDATAFHBCS2|10=068|
20150519-13:48:46.965: 8=FIX.4.4|9=66|35=0|34=74|49=MKDATAFHBCS2|52=20150519-13:48:47.069|56=LVDEVELOP8|10=086|
20150519-13:48:53.224: 8=FIX.4.4|9=154|35=X|34=75|49=MKDATAFHBCS2|52=20150519-13:48:53.331|56=LVDEVELOP8|262=-413ed8735c81be91|268=1|279=2|269=0|55=CORPBANCA|270=7.436|271=150000|282=047|290=1|10=147|
20150519-13:48:53.225: 8=FIX.4.4|9=154|35=X|34=76|49=MKDATAFHBCS2|52=20150519-13:48:53.331|56=LVDEVELOP8|262=-413ed8735c81be91|268=1|279=0|269=0|55=CORPBANCA|270=7.434|271=150000|282=047|290=1|10=144|
20150519-13:48:54.203: 8=FIX.4.4|9=154|35=X|34=77|49=MKDATAFHBCS2|52=20150519-13:48:54.315|56=LVDEVELOP8|262=-413ed8735c81be91|268=1|279=2|269=0|55=CORPBANCA|270=7.434|271=150000|282=047|290=1|10=150|
20150519-13:48:54.203: 8=FIX.4.4|9=154|35=X|34=78|49=MKDATAFHBCS2|52=20150519-13:48:54.315|56=LVDEVELOP8|262=-413ed8735c81be91|268=1|279=0|269=0|55=CORPBANCA|270=7.431|271=150000|282=047|290=1|10=146|
20150519-13:49:11.312: 8=FIX.4.4|9=66|35=0|34=49|49=LVDEVELOP8|52=20150519-13:49:11.312|56=MKDATAFHBCS2|10=071|
20150519-13:49:19.281: 8=FIX.4.4|9=154|35=X|34=79|49=MKDATAFHBCS2|52=20150519-13:49:19.404|56=LVDEVELOP8|262=-413ed8735c81be91|268=1|279=2|269=0|55=CORPBANCA|270=7.431|271=150000|282=047|290=1|10=150|
20150519-13:49:20.241: 8=FIX.4.4|9=153|35=X|34=80|49=MKDATAFHBCS2|52=20150519-13:49:20.372|56=LVDEVELOP8|262=-413ed8735c81be91|268=1|279=0|269=0|55=CORPBANCA|270=7.43|271=150000|282=047|290=1|10=086|
20150519-13:49:23.281: 8=FIX.4.4|9=154|35=X|34=81|49=MKDATAFHBCS2|52=20150519-13:49:23.416|56=LVDEVELOP8|262=-413ed8735c81be91|268=1|279=0|269=0|55=CORPBANCA|270=7.431|271=150000|282=047|290=1|10=139|
20150519-13:49:24.354: 8=FIX.4.4|9=154|35=X|34=82|49=MKDATAFHBCS2|52=20150519-13:49:24.491|56=LVDEVELOP8|262=-413ed8735c81be91|268=1|279=2|269=0|55=CORPBANCA|270=7.431|271=150000|282=047|290=1|10=146|
20150519-13:49:24.354: 8=FIX.4.4|9=153|35=X|34=83|49=MKDATAFHBCS2|52=20150519-13:49:24.491|56=LVDEVELOP8|262=-413ed8735c81be91|268=1|279=2|269=0|55=CORPBANCA|270=7.43|271=150000|282=047|290=1|10=097|
20150519-13:49:24.355: 8=FIX.4.4|9=154|35=X|34=84|49=MKDATAFHBCS2|52=20150519-13:49:24.491|56=LVDEVELOP8|262=-413ed8735c81be91|268=1|279=0|269=0|55=CORPBANCA|270=7.428|271=150000|282=047|290=1|10=152|
20150519-13:49:25.251: 8=FIX.4.4|9=154|35=X|34=85|49=MKDATAFHBCS2|52=20150519-13:49:25.378|56=LVDEVELOP8|262=-413ed8735c81be91|268=1|279=0|269=0|55=CORPBANCA|270=7.429|271=150000|282=047|290=1|10=159|
20150519-13:49:29.272: 8=FIX.4.4|9=154|35=X|34=86|49=MKDATAFHBCS2|52=20150519-13:49:29.392|56=LVDEVELOP8|262=-413ed8735c81be91|268=1|279=2|269=0|55=CORPBANCA|270=7.429|271=150000|282=047|290=1|10=162|
20150519-13:49:35.365: 8=FIX.4.4|9=154|35=X|34=87|49=MKDATAFHBCS2|52=20150519-13:49:35.459|56=LVDEVELOP8|262=-413ed8735c81be91|268=1|279=0|269=0|55=CORPBANCA|270=7.429|271=150000|282=047|290=1|10=162|
20150519-13:49:37.276: 8=FIX.4.4|9=154|35=X|34=88|49=MKDATAFHBCS2|52=20150519-13:49:37.372|56=LVDEVELOP8|262=-413ed8735c81be91|268=1|279=2|269=0|55=CORPBANCA|270=7.429|271=150000|282=047|290=1|10=161|
20150519-13:49:40.287: 8=FIX.4.4|9=154|35=X|34=89|49=MKDATAFHBCS2|52=20150519-13:49:40.375|56=LVDEVELOP8|262=-413ed8735c81be91|268=1|279=0|269=0|55=CORPBANCA|270=7.429|271=150000|282=047|290=1|10=157|
20150519-13:49:49.297: 8=FIX.4.4|9=154|35=X|34=90|49=MKDATAFHBCS2|52=20150519-13:49:49.367|56=LVDEVELOP8|262=-413ed8735c81be91|268=1|279=2|269=0|55=CORPBANCA|270=7.429|271=150000|282=047|290=1|10=161|
20150519-13:49:51.324: 8=FIX.4.4|9=154|35=X|34=91|49=MKDATAFHBCS2|52=20150519-13:49:51.374|56=LVDEVELOP8|262=-413ed8735c81be91|268=1|279=0|269=0|55=CORPBANCA|270=7.429|271=150000|282=047|290=1|10=151|
20150519-13:50:12.311: 8=FIX.4.4|9=66|35=0|34=50|49=LVDEVELOP8|52=20150519-13:50:12.311|56=MKDATAFHBCS2|10=055|
20150519-13:50:51.962: 8=FIX.4.4|9=66|35=0|34=92|49=MKDATAFHBCS2|52=20150519-13:50:52.048|56=LVDEVELOP8|10=072|
20150519-13:51:09.477: 8=FIX.4.4|9=153|35=X|34=93|49=MKDATAFHBCS2|52=20150519-13:51:09.576|56=LVDEVELOP8|262=-413ed8735c81be91|268=1|279=0|269=0|55=CORPBANCA|270=7.43|271=150000|282=047|290=1|10=096|
20150519-13:51:12.311: 8=FIX.4.4|9=66|35=0|34=51|49=LVDEVELOP8|52=20150519-13:51:12.311|56=MKDATAFHBCS2|10=057|
20150519-13:51:13.502: 8=FIX.4.4|9=154|35=X|34=94|49=MKDATAFHBCS2|52=20150519-13:51:13.604|56=LVDEVELOP8|262=-413ed8735c81be91|268=1|279=0|269=0|55=CORPBANCA|270=7.431|271=150000|282=047|290=1|10=134|
20150519-13:51:25.564: 8=FIX.4.4|9=154|35=X|34=95|49=MKDATAFHBCS2|52=20150519-13:51:25.687|56=LVDEVELOP8|262=-413ed8735c81be91|268=1|279=2|269=0|55=CORPBANCA|270=7.431|271=150000|282=047|290=1|10=151|
20150519-13:52:12.312: 8=FIX.4.4|9=66|35=0|34=52|49=LVDEVELOP8|52=20150519-13:52:12.312|56=MKDATAFHBCS2|10=060|
20150519-13:52:21.676: 8=FIX.4.4|9=154|35=X|34=96|49=MKDATAFHBCS2|52=20150519-13:52:21.838|56=LVDEVELOP8|262=-413ed8735c81be91|268=1|279=0|269=0|55=CORPBANCA|270=7.432|271=150000|282=047|290=1|10=146|
20150519-13:52:46.250: 8=FIX.4.4|9=154|35=X|34=97|49=MKDATAFHBCS2|52=20150519-13:52:46.417|56=LVDEVELOP8|262=-413ed8735c81be91|268=1|279=2|269=0|55=CORPBANCA|270=7.432|271=150000|282=047|290=1|10=149|
20150519-13:52:49.740: 8=FIX.4.4|9=154|35=X|34=98|49=MKDATAFHBCS2|52=20150519-13:52:49.913|56=LVDEVELOP8|262=-413ed8735c81be91|268=1|279=0|269=0|55=CORPBANCA|270=7.435|271=150000|282=047|290=1|10=155|
20150519-13:53:01.687: 8=FIX.4.4|9=154|35=X|34=99|49=MKDATAFHBCS2|52=20150519-13:53:01.851|56=LVDEVELOP8|262=-413ed8735c81be91|268=1|279=0|269=0|55=CORPBANCA|270=7.436|271=150000|282=047|290=1|10=147|
20150519-13:53:13.312: 8=FIX.4.4|9=66|35=0|34=53|49=LVDEVELOP8|52=20150519-13:53:13.312|56=MKDATAFHBCS2|10=063|
20150519-13:53:17.708: 8=FIX.4.4|9=155|35=X|34=100|49=MKDATAFHBCS2|52=20150519-13:53:17.877|56=LVDEVELOP8|262=-413ed8735c81be91|268=1|279=2|269=0|55=CORPBANCA|270=7.436|271=150000|282=047|290=1|10=196|
20150519-13:53:33.796: 8=FIX.4.4|9=155|35=X|34=101|49=MKDATAFHBCS2|52=20150519-13:53:33.979|56=LVDEVELOP8|262=-413ed8735c81be91|268=1|279=2|269=0|55=CORPBANCA|270=7.435|271=150000|282=047|290=1|10=197|
20150519-13:53:33.797: 8=FIX.4.4|9=155|35=X|34=102|49=MKDATAFHBCS2|52=20150519-13:53:33.979|56=LVDEVELOP8|262=-413ed8735c81be91|268=1|279=0|269=0|55=CORPBANCA|270=7.434|271=150000|282=047|290=1|10=195|
20150519-13:53:57.857: 8=FIX.4.4|9=155|35=X|34=103|49=MKDATAFHBCS2|52=20150519-13:53:58.023|56=LVDEVELOP8|262=-413ed8735c81be91|268=1|279=0|269=0|55=CORPBANCA|270=7.435|271=150000|282=047|290=1|10=184|
20150519-13:54:14.311: 8=FIX.4.4|9=66|35=0|34=54|49=LVDEVELOP8|52=20150519-13:54:14.311|56=MKDATAFHBCS2|10=065|
20150519-13:54:48.961: 8=FIX.4.4|9=156|35=X|34=104|49=MKDATAFHBCS2|52=20150519-13:54:49.083|56=LVDEVELOP8|262=-413ed8735c81be91|268=1|279=0|269=1|55=CORPBANCA|270=7.449|271=1500000|282=035|290=1|10=244|
20150519-13:54:49.929: 8=FIX.4.4|9=155|35=X|34=105|49=MKDATAFHBCS2|52=20150519-13:54:50.048|56=LVDEVELOP8|262=-413ed8735c81be91|268=1|279=0|269=0|55=CORPBANCA|270=7.436|271=150000|282=047|290=1|10=187|
20150519-13:54:52.962: 8=FIX.4.4|9=156|35=X|34=106|49=MKDATAFHBCS2|52=20150519-13:54:53.066|56=LVDEVELOP8|262=-413ed8735c81be91|268=1|279=2|269=1|55=CORPBANCA|270=7.449|271=1500000|282=035|290=1|10=244|
20150519-13:54:52.963: 8=FIX.4.4|9=156|35=X|34=107|49=MKDATAFHBCS2|52=20150519-13:54:53.066|56=LVDEVELOP8|262=-413ed8735c81be91|268=1|279=2|269=1|55=CORPBANCA|270=7.449|271=3000000|282=035|290=1|10=242|
20150519-13:54:52.963: 8=FIX.4.4|9=155|35=X|34=108|49=MKDATAFHBCS2|52=20150519-13:54:53.066|56=LVDEVELOP8|262=-413ed8735c81be91|268=1|279=2|269=0|55=CORPBANCA|270=7.436|271=150000|282=047|290=1|10=195|
20150519-13:54:52.963: 8=FIX.4.4|9=155|35=X|34=109|49=MKDATAFHBCS2|52=20150519-13:54:53.066|56=LVDEVELOP8|262=-413ed8735c81be91|268=1|279=2|269=0|55=CORPBANCA|270=7.435|271=150000|282=047|290=1|10=195|
20150519-13:54:54.018: 8=FIX.4.4|9=155|35=X|34=110|49=MKDATAFHBCS2|52=20150519-13:54:54.124|56=LVDEVELOP8|262=-413ed8735c81be91|268=1|279=0|269=0|55=CORPBANCA|270=7.435|271=150000|282=047|290=1|10=181|
20150519-13:55:00.975: 8=FIX.4.4|9=155|35=X|34=111|49=MKDATAFHBCS2|52=20150519-13:55:01.064|56=LVDEVELOP8|262=-413ed8735c81be91|268=1|279=2|269=0|55=CORPBANCA|270=7.435|271=150000|282=047|290=1|10=180|
20150519-13:55:14.311: 8=FIX.4.4|9=66|35=0|34=55|49=LVDEVELOP8|52=20150519-13:55:14.311|56=MKDATAFHBCS2|10=067|
20150519-13:56:00.948: 8=FIX.4.4|9=67|35=0|34=112|49=MKDATAFHBCS2|52=20150519-13:56:01.082|56=LVDEVELOP8|10=112|
20150519-13:56:14.312: 8=FIX.4.4|9=66|35=0|34=56|49=LVDEVELOP8|52=20150519-13:56:14.312|56=MKDATAFHBCS2|10=070|
20150519-13:57:00.947: 8=FIX.4.4|9=67|35=0|34=113|49=MKDATAFHBCS2|52=20150519-13:57:01.114|56=LVDEVELOP8|10=110|
20150519-13:57:15.311: 8=FIX.4.4|9=66|35=0|34=57|49=LVDEVELOP8|52=20150519-13:57:15.311|56=MKDATAFHBCS2|10=072|
20150519-13:58:00.961: 8=FIX.4.4|9=67|35=0|34=114|49=MKDATAFHBCS2|52=20150519-13:58:01.145|56=LVDEVELOP8|10=116|
20150519-13:58:15.311: 8=FIX.4.4|9=66|35=0|34=58|49=LVDEVELOP8|52=20150519-13:58:15.311|56=MKDATAFHBCS2|10=074|
20150519-13:59:00.973: 8=FIX.4.4|9=67|35=0|34=115|49=MKDATAFHBCS2|52=20150519-13:59:01.165|56=LVDEVELOP8|10=120|
20150519-13:59:15.312: 8=FIX.4.4|9=66|35=0|34=59|49=LVDEVELOP8|52=20150519-13:59:15.312|56=MKDATAFHBCS2|10=077|
20150519-14:00:01.967: 8=FIX.4.4|9=67|35=0|34=116|49=MKDATAFHBCS2|52=20150519-14:00:02.051|56=LVDEVELOP8|10=103|
20150519-14:00:02.539: 8=FIX.4.4|9=156|35=X|34=117|49=MKDATAFHBCS2|52=20150519-14:00:02.627|56=LVDEVELOP8|262=-413ed8735c81be91|268=1|279=0|269=1|55=CORPBANCA|270=7.449|271=1107535|282=035|290=1|10=249|
20150519-14:00:04.538: 8=FIX.4.4|9=156|35=X|34=118|49=MKDATAFHBCS2|52=20150519-14:00:04.618|56=LVDEVELOP8|262=-413ed8735c81be91|268=1|279=2|269=1|55=CORPBANCA|270=7.449|271=1107535|282=035|290=1|10=254|
20150519-14:00:16.311: 8=FIX.4.4|9=66|35=0|34=60|49=LVDEVELOP8|52=20150519-14:00:16.311|56=MKDATAFHBCS2|10=056|
20150519-14:00:27.631: 8=FIX.4.4|9=135|35=X|34=119|49=MKDATAFHBCS2|52=20150519-14:00:27.686|56=LVDEVELOP8|262=-413ed8735c81be91|268=1|279=1|269=5|55=CORPBANCA|270=7.43|290=1|10=031|
20150519-14:00:27.635: 8=FIX.4.4|9=155|35=X|34=120|49=MKDATAFHBCS2|52=20150519-14:00:27.717|56=LVDEVELOP8|262=-413ed8735c81be91|268=1|279=2|269=0|55=CORPBANCA|270=7.432|271=392643|282=035|290=1|10=199|
20150519-14:00:27.635: 8=FIX.4.4|9=155|35=X|34=121|49=MKDATAFHBCS2|52=20150519-14:00:27.717|56=LVDEVELOP8|262=-413ed8735c81be91|268=1|279=2|269=0|55=CORPBANCA|270=7.432|271=208615|282=035|290=1|10=195|
20150519-14:00:27.635: 8=FIX.4.4|9=153|35=X|34=122|49=MKDATAFHBCS2|52=20150519-14:00:27.717|56=LVDEVELOP8|262=-413ed8735c81be91|268=1|279=2|269=0|55=CORPBANCA|270=7.432|271=2749|282=035|290=1|10=098|
20150519-14:00:27.636: 8=FIX.4.4|9=155|35=X|34=123|49=MKDATAFHBCS2|52=20150519-14:00:27.717|56=LVDEVELOP8|262=-413ed8735c81be91|268=1|279=2|269=0|55=CORPBANCA|270=7.432|271=613000|282=047|290=1|10=188|
20150519-14:00:27.636: 8=FIX.4.4|9=153|35=X|34=124|49=MKDATAFHBCS2|52=20150519-14:00:27.717|56=LVDEVELOP8|262=-413ed8735c81be91|268=1|279=1|269=0|55=CORPBANCA|270=7.43|271=21127|282=070|290=1|10=087|
20150519-14:00:27.638: 8=FIX.4.4|9=155|35=X|34=125|49=MKDATAFHBCS2|52=20150519-14:00:27.717|56=LVDEVELOP8|262=-413ed8735c81be91|268=1|279=0|269=1|55=CORPBANCA|270=7.434|271=150000|282=047|290=1|10=187|
20150519-14:00:28.599: 8=FIX.4.4|9=135|35=X|34=126|49=MKDATAFHBCS2|52=20150519-14:00:28.685|56=LVDEVELOP8|262=-413ed8735c81be91|268=1|279=1|269=5|55=CORPBANCA|270=7.43|290=1|10=029|
20150519-14:00:28.618: 8=FIX.4.4|9=153|35=X|34=127|49=MKDATAFHBCS2|52=20150519-14:00:28.716|56=LVDEVELOP8|262=-413ed8735c81be91|268=1|279=2|269=0|55=CORPBANCA|270=7.43|271=21127|282=070|290=1|10=091|
20150519-14:00:28.619: 8=FIX.4.4|9=156|35=X|34=128|49=MKDATAFHBCS2|52=20150519-14:00:28.716|56=LVDEVELOP8|262=-413ed8735c81be91|268=1|279=0|269=1|55=CORPBANCA|270=7.428|271=3000000|282=035|290=1|10=236|
20150519-14:00:29.705: 8=FIX.4.4|9=156|35=X|34=129|49=MKDATAFHBCS2|52=20150519-14:00:29.794|56=LVDEVELOP8|262=-413ed8735c81be91|268=1|279=2|269=1|55=CORPBANCA|270=7.428|271=3000000|282=035|290=1|10=246|
20150519-14:00:29.706: 8=FIX.4.4|9=155|35=X|34=130|49=MKDATAFHBCS2|52=20150519-14:00:29.794|56=LVDEVELOP8|262=-413ed8735c81be91|268=1|279=0|269=0|55=CORPBANCA|270=7.417|271=150000|282=047|290=1|10=190|
20150519-14:00:31.615: 8=FIX.4.4|9=155|35=X|34=131|49=MKDATAFHBCS2|52=20150519-14:00:31.715|56=LVDEVELOP8|262=-413ed8735c81be91|268=1|279=0|269=0|55=CORPBANCA|270=7.418|271=150000|282=047|290=1|10=178|
20150519-14:00:31.622: 8=FIX.4.4|9=156|35=X|34=132|49=MKDATAFHBCS2|52=20150519-14:00:31.715|56=LVDEVELOP8|262=-413ed8735c81be91|268=1|279=2|269=1|55=CORPBANCA|270=7.449|271=1107535|282=035|290=1|10=248|
20150519-14:00:31.632: 8=FIX.4.4|9=156|35=X|34=133|49=MKDATAFHBCS2|52=20150519-14:00:31.730|56=LVDEVELOP8|262=-413ed8735c81be91|268=1|279=0|269=1|55=CORPBANCA|270=7.449|271=1005988|282=035|290=1|10=253|
20150519-14:00:38.648: 8=FIX.4.4|9=155|35=X|34=134|49=MKDATAFHBCS2|52=20150519-14:00:38.741|56=LVDEVELOP8|262=-413ed8735c81be91|268=1|279=2|269=0|55=CORPBANCA|270=7.418|271=150000|282=047|290=1|10=189|
20150519-14:00:49.654: 8=FIX.4.4|9=155|35=X|34=135|49=MKDATAFHBCS2|52=20150519-14:00:49.766|56=LVDEVELOP8|262=-413ed8735c81be91|268=1|279=0|269=0|55=CORPBANCA|270=7.418|271=150000|282=047|290=1|10=197|
20150519-14:01:07.710: 8=FIX.4.4|9=155|35=X|34=136|49=MKDATAFHBCS2|52=20150519-14:01:07.848|56=LVDEVELOP8|262=-413ed8735c81be91|268=1|279=0|269=1|55=CORPBANCA|270=7.43|271=3620000|282=088|290=1|10=199|
20150519-14:01:16.311: 8=FIX.4.4|9=66|35=0|34=61|49=LVDEVELOP8|52=20150519-14:01:16.311|56=MKDATAFHBCS2|10=058|
20150519-14:01:33.821: 8=FIX.4.4|9=155|35=X|34=137|49=MKDATAFHBCS2|52=20150519-14:01:33.976|56=LVDEVELOP8|262=-413ed8735c81be91|268=1|279=0|269=0|55=CORPBANCA|270=7.419|271=150000|282=047|290=1|10=197|
20150519-14:02:16.312: 8=FIX.4.4|9=66|35=0|34=62|49=LVDEVELOP8|52=20150519-14:02:16.312|56=MKDATAFHBCS2|10=061|
20150519-14:02:33.965: 8=FIX.4.4|9=67|35=0|34=138|49=MKDATAFHBCS2|52=20150519-14:02:34.138|56=LVDEVELOP8|10=120|
20150519-14:02:44.908: 8=FIX.4.4|9=154|35=X|34=139|49=MKDATAFHBCS2|52=20150519-14:02:45.076|56=LVDEVELOP8|262=-413ed8735c81be91|268=1|279=0|269=0|55=CORPBANCA|270=7.42|271=150000|282=047|290=1|10=137|
20150519-14:03:08.942: 8=FIX.4.4|9=155|35=X|34=140|49=MKDATAFHBCS2|52=20150519-14:03:09.122|56=LVDEVELOP8|262=-413ed8735c81be91|268=1|279=0|269=0|55=CORPBANCA|270=7.421|271=150000|282=047|290=1|10=172|
20150519-14:03:16.321: 8=FIX.4.4|9=66|35=0|34=63|49=LVDEVELOP8|52=20150519-14:03:16.321|56=MKDATAFHBCS2|10=063|
20150519-14:03:20.996: 8=FIX.4.4|9=155|35=X|34=141|49=MKDATAFHBCS2|52=20150519-14:03:21.182|56=LVDEVELOP8|262=-413ed8735c81be91|268=1|279=2|269=0|55=CORPBANCA|270=7.421|271=150000|282=047|290=1|10=175|
20150519-14:04:17.311: 8=FIX.4.4|9=66|35=0|34=64|49=LVDEVELOP8|52=20150519-14:04:17.311|56=MKDATAFHBCS2|10=065|
20150519-14:04:21.968: 8=FIX.4.4|9=67|35=0|34=142|49=MKDATAFHBCS2|52=20150519-14:04:22.152|56=LVDEVELOP8|10=110|
20150519-14:05:10.195: 8=FIX.4.4|9=156|35=X|34=143|49=MKDATAFHBCS2|52=20150519-14:05:10.264|56=LVDEVELOP8|262=-413ed8735c81be91|268=1|279=0|269=1|55=CORPBANCA|270=7.429|271=1096083|282=035|290=1|10=252|
20150519-14:05:11.274: 8=FIX.4.4|9=156|35=X|34=144|49=MKDATAFHBCS2|52=20150519-14:05:11.357|56=LVDEVELOP8|262=-413ed8735c81be91|268=1|279=2|269=1|55=CORPBANCA|270=7.429|271=1096083|282=035|290=1|10=003|
20150519-14:05:17.312: 8=FIX.4.4|9=66|35=0|34=65|49=LVDEVELOP8|52=20150519-14:05:17.312|56=MKDATAFHBCS2|10=068|
20150519-14:05:22.239: 8=FIX.4.4|9=156|35=X|34=145|49=MKDATAFHBCS2|52=20150519-14:05:22.334|56=LVDEVELOP8|262=-413ed8735c81be91|268=1|279=0|269=1|55=CORPBANCA|270=7.429|271=1096083|282=035|290=1|10=255|
20150519-14:06:17.312: 8=FIX.4.4|9=66|35=0|34=66|49=LVDEVELOP8|52=20150519-14:06:17.312|56=MKDATAFHBCS2|10=070|
20150519-14:06:22.955: 8=FIX.4.4|9=67|35=0|34=146|49=MKDATAFHBCS2|52=20150519-14:06:23.064|56=LVDEVELOP8|10=119|
20150519-14:06:57.404: 8=FIX.4.4|9=156|35=X|34=147|49=MKDATAFHBCS2|52=20150519-14:06:57.414|56=LVDEVELOP8|262=-413ed8735c81be91|268=1|279=0|269=1|55=CORPBANCA|270=7.428|271=3620000|282=088|290=1|10=000|
20150519-14:07:18.311: 8=FIX.4.4|9=66|35=0|34=67|49=LVDEVELOP8|52=20150519-14:07:18.311|56=MKDATAFHBCS2|10=072|
20150519-14:07:57.944: 8=FIX.4.4|9=67|35=0|34=148|49=MKDATAFHBCS2|52=20150519-14:07:58.016|56=LVDEVELOP8|10=127|
20150519-14:08:18.312: 8=FIX.4.4|9=66|35=0|34=68|49=LVDEVELOP8|52=20150519-14:08:18.312|56=MKDATAFHBCS2|10=075|
20150519-14:08:25.577: 8=FIX.4.4|9=136|35=X|34=149|49=MKDATAFHBCS2|52=20150519-14:08:25.678|56=LVDEVELOP8|262=-413ed8735c81be91|268=1|279=1|269=5|55=CORPBANCA|270=7.421|290=1|10=090|
20150519-14:08:25.586: 8=FIX.4.4|9=155|35=X|34=150|49=MKDATAFHBCS2|52=20150519-14:08:25.694|56=LVDEVELOP8|262=-413ed8735c81be91|268=1|279=2|269=0|55=CORPBANCA|270=7.421|271=116991|282=035|290=1|10=210|
20150519-14:08:25.587: 8=FIX.4.4|9=155|35=X|34=151|49=MKDATAFHBCS2|52=20150519-14:08:25.694|56=LVDEVELOP8|262=-413ed8735c81be91|268=1|279=2|269=0|55=CORPBANCA|270=7.407|271=150000|282=047|290=1|10=197|
20150519-14:08:25.587: 8=FIX.4.4|9=155|35=X|34=152|49=MKDATAFHBCS2|52=20150519-14:08:25.694|56=LVDEVELOP8|262=-413ed8735c81be91|268=1|279=2|269=0|55=CORPBANCA|270=7.406|271=150000|282=047|290=1|10=197|
20150519-14:08:25.589: 8=FIX.4.4|9=156|35=X|34=153|49=MKDATAFHBCS2|52=20150519-14:08:25.694|56=LVDEVELOP8|262=-413ed8735c81be91|268=1|279=0|269=1|55=CORPBANCA|270=7.418|271=1500000|282=035|290=1|10=246|
20150519-14:08:30.554: 8=FIX.4.4|9=155|35=X|34=154|49=MKDATAFHBCS2|52=20150519-14:08:30.659|56=LVDEVELOP8|262=-413ed8735c81be91|268=1|279=0|269=0|55=CORPBANCA|270=7.403|271=150000|282=047|290=1|10=191|
20150519-14:08:33.707: 8=FIX.4.4|9=155|35=X|34=155|49=MKDATAFHBCS2|52=20150519-14:08:33.813|56=LVDEVELOP8|262=-413ed8735c81be91|268=1|279=0|269=0|55=CORPBANCA|270=7.404|271=150000|282=047|290=1|10=188|
20150519-14:08:50.589: 8=FIX.4.4|9=156|35=X|34=156|49=MKDATAFHBCS2|52=20150519-14:08:50.723|56=LVDEVELOP8|262=-413ed8735c81be91|268=1|279=2|269=1|55=CORPBANCA|270=7.418|271=1500000|282=035|290=1|10=242|
20150519-14:08:50.589: 8=FIX.4.4|9=156|35=X|34=157|49=MKDATAFHBCS2|52=20150519-14:08:50.723|56=LVDEVELOP8|262=-413ed8735c81be91|268=1|279=2|269=1|55=CORPBANCA|270=7.418|271=3000000|282=035|290=1|10=240|
20150519-14:08:50.589: 8=FIX.4.4|9=156|35=X|34=158|49=MKDATAFHBCS2|52=20150519-14:08:50.723|56=LVDEVELOP8|262=-413ed8735c81be91|268=1|279=0|269=1|55=CORPBANCA|270=7.419|271=1500000|282=035|290=1|10=243|
20150519-14:09:11.689: 8=FIX.4.4|9=136|35=X|34=159|49=MKDATAFHBCS2|52=20150519-14:09:11.832|56=LVDEVELOP8|262=-413ed8735c81be91|268=1|279=1|269=5|55=CORPBANCA|270=7.419|290=1|10=086|
20150519-14:09:11.697: 8=FIX.4.4|9=156|35=X|34=160|49=MKDATAFHBCS2|52=20150519-14:09:11.848|56=LVDEVELOP8|262=-413ed8735c81be91|268=1|279=1|269=1|55=CORPBANCA|270=7.419|271=1288000|282=035|290=1|10=000|
20150519-14:09:12.684: 8=FIX.4.4|9=156|35=X|34=161|49=MKDATAFHBCS2|52=20150519-14:09:12.831|56=LVDEVELOP8|262=-413ed8735c81be91|268=1|279=2|269=1|55=CORPBANCA|270=7.419|271=1288000|282=035|290=1|10=251|
20150519-14:09:18.312: 8=FIX.4.4|9=66|35=0|34=69|49=LVDEVELOP8|52=20150519-14:09:18.312|56=MKDATAFHBCS2|10=077|
20150519-14:09:19.767: 8=FIX.4.4|9=155|35=X|34=162|49=MKDATAFHBCS2|52=20150519-14:09:19.916|56=LVDEVELOP8|262=-413ed8735c81be91|268=1|279=2|269=0|55=CORPBANCA|270=7.404|271=150000|282=047|290=1|10=197|
20150519-14:09:19.767: 8=FIX.4.4|9=155|35=X|34=163|49=MKDATAFHBCS2|52=20150519-14:09:19.916|56=LVDEVELOP8|262=-413ed8735c81be91|268=1|279=0|269=0|55=CORPBANCA|270=7.404|271=150000|282=047|290=1|10=196|
20150519-14:09:20.675: 8=FIX.4.4|9=155|35=X|34=164|49=MKDATAFHBCS2|52=20150519-14:09:20.822|56=LVDEVELOP8|262=-413ed8735c81be91|268=1|279=2|269=0|55=CORPBANCA|270=7.404|271=150000|282=047|290=1|10=187|
20150519-14:09:21.671: 8=FIX.4.4|9=155|35=X|34=165|49=MKDATAFHBCS2|52=20150519-14:09:21.805|56=LVDEVELOP8|262=-413ed8735c81be91|268=1|279=0|269=0|55=CORPBANCA|270=7.404|271=150000|282=047|290=1|10=188|
20150519-14:09:22.702: 8=FIX.4.4|9=155|35=X|34=166|49=MKDATAFHBCS2|52=20150519-14:09:22.851|56=LVDEVELOP8|262=-413ed8735c81be91|268=1|279=2|269=0|55=CORPBANCA|270=7.404|271=150000|282=047|290=1|10=193|
20150519-14:09:28.696: 8=FIX.4.4|9=155|35=X|34=167|49=MKDATAFHBCS2|52=20150519-14:09:28.843|56=LVDEVELOP8|262=-413ed8735c81be91|268=1|279=0|269=0|55=CORPBANCA|270=7.404|271=150000|282=047|290=1|10=199|
20150519-14:09:34.681: 8=FIX.4.4|9=155|35=X|34=168|49=MKDATAFHBCS2|52=20150519-14:09:34.836|56=LVDEVELOP8|262=-413ed8735c81be91|268=1|279=2|269=0|55=CORPBANCA|270=7.404|271=150000|282=047|290=1|10=201|
20150519-14:09:43.783: 8=FIX.4.4|9=155|35=X|34=169|49=MKDATAFHBCS2|52=20150519-14:09:43.935|56=LVDEVELOP8|262=-413ed8735c81be91|268=1|279=0|269=0|55=CORPBANCA|270=7.404|271=150000|282=047|290=1|10=200|
20150519-14:09:44.740: 8=FIX.4.4|9=155|35=X|34=170|49=MKDATAFHBCS2|52=20150519-14:09:44.903|56=LVDEVELOP8|262=-413ed8735c81be91|268=1|279=2|269=0|55=CORPBANCA|270=7.404|271=150000|282=047|290=1|10=190|
20150519-14:09:45.733: 8=FIX.4.4|9=155|35=X|34=171|49=MKDATAFHBCS2|52=20150519-14:09:45.886|56=LVDEVELOP8|262=-413ed8735c81be91|268=1|279=0|269=0|55=CORPBANCA|270=7.403|271=150000|282=047|290=1|10=199|
20150519-14:09:55.784: 8=FIX.4.4|9=155|35=X|34=172|49=MKDATAFHBCS2|52=20150519-14:09:55.937|56=LVDEVELOP8|262=-413ed8735c81be91|268=1|279=2|269=0|55=CORPBANCA|270=7.403|271=150000|282=047|290=1|10=200|
20150519-14:10:19.311: 8=FIX.4.4|9=66|35=0|34=70|49=LVDEVELOP8|52=20150519-14:10:19.311|56=MKDATAFHBCS2|10=061|
20150519-14:10:55.984: 8=FIX.4.4|9=67|35=0|34=173|49=MKDATAFHBCS2|52=20150519-14:10:56.136|56=LVDEVELOP8|10=120|
20150519-14:11:19.312: 8=FIX.4.4|9=66|35=0|34=71|49=LVDEVELOP8|52=20150519-14:11:19.312|56=MKDATAFHBCS2|10=064|
20150519-14:11:56.944: 8=FIX.4.4|9=67|35=0|34=174|49=MKDATAFHBCS2|52=20150519-14:11:57.061|56=LVDEVELOP8|10=120|
20150519-14:12:20.025: 8=FIX.4.4|9=156|35=X|34=175|49=MKDATAFHBCS2|52=20150519-14:12:20.116|56=LVDEVELOP8|262=-413ed8735c81be91|268=1|279=2|269=1|55=CORPBANCA|270=7.419|271=3000000|282=035|290=1|10=229|
20150519-14:12:20.025: 8=FIX.4.4|9=156|35=X|34=176|49=MKDATAFHBCS2|52=20150519-14:12:20.116|56=LVDEVELOP8|262=-413ed8735c81be91|268=1|279=2|269=1|55=CORPBANCA|270=7.419|271=1500000|282=035|290=1|10=233|
20150519-14:12:20.026: 8=FIX.4.4|9=66|35=0|34=72|49=LVDEVELOP8|52=20150519-14:12:20.026|56=MKDATAFHBCS2|10=060|
20150519-14:12:21.075: 8=FIX.4.4|9=156|35=X|34=177|49=MKDATAFHBCS2|52=20150519-14:12:21.162|56=LVDEVELOP8|262=-413ed8735c81be91|268=1|279=0|269=1|55=CORPBANCA|270=7.419|271=3000000|282=035|290=1|10=231|
20150519-14:12:24.095: 8=FIX.4.4|9=156|35=X|34=178|49=MKDATAFHBCS2|52=20150519-14:12:24.191|56=LVDEVELOP8|262=-413ed8735c81be91|268=1|279=2|269=1|55=CORPBANCA|270=7.419|271=3000000|282=035|290=1|10=239|
20150519-14:12:24.096: 8=FIX.4.4|9=156|35=X|34=179|49=MKDATAFHBCS2|52=20150519-14:12:24.191|56=LVDEVELOP8|262=-413ed8735c81be91|268=1|279=2|269=1|55=CORPBANCA|270=7.419|271=1500000|282=035|290=1|10=243|
20150519-14:12:30.121: 8=FIX.4.4|9=156|35=X|34=180|49=MKDATAFHBCS2|52=20150519-14:12:30.219|56=LVDEVELOP8|262=-413ed8735c81be91|268=1|279=0|269=1|55=CORPBANCA|270=7.419|271=3000000|282=035|290=1|10=228|
20150519-14:12:40.074: 8=FIX.4.4|9=134|35=X|34=181|49=MKDATAFHBCS2|52=20150519-14:12:40.181|56=LVDEVELOP8|262=-413ed8735c81be91|268=1|279=1|269=5|55=CORPBANCA|270=7.4|290=1|10=222|
20150519-14:12:40.103: 8=FIX.4.4|9=155|35=X|34=182|49=MKDATAFHBCS2|52=20150519-14:12:40.197|56=LVDEVELOP8|262=-413ed8735c81be91|268=1|279=2|269=0|55=CORPBANCA|270=7.402|271=615000|282=047|290=1|10=192|
20150519-14:12:40.103: 8=FIX.4.4|9=155|35=X|34=183|49=MKDATAFHBCS2|52=20150519-14:12:40.197|56=LVDEVELOP8|262=-413ed8735c81be91|268=1|279=2|269=0|55=CORPBANCA|270=7.402|271=223252|282=070|290=1|10=193|
20150519-14:12:40.103: 8=FIX.4.4|9=153|35=X|34=184|49=MKDATAFHBCS2|52=20150519-14:12:40.197|56=LVDEVELOP8|262=-413ed8735c81be91|268=1|279=2|269=0|55=CORPBANCA|270=7.4|271=500000|282=043|290=1|10=083|
20150519-14:12:40.103: 8=FIX.4.4|9=153|35=X|34=185|49=MKDATAFHBCS2|52=20150519-14:12:40.197|56=LVDEVELOP8|262=-413ed8735c81be91|268=1|279=2|269=0|55=CORPBANCA|270=7.4|271=600000|282=072|290=1|10=087|
20150519-14:12:40.103: 8=FIX.4.4|9=154|35=X|34=186|49=MKDATAFHBCS2|52=20150519-14:12:40.197|56=LVDEVELOP8|262=-413ed8735c81be91|268=1|279=2|269=0|55=CORPBANCA|270=7.4|271=2500000|282=072|290=1|10=138|
20150519-14:12:40.103: 8=FIX.4.4|9=153|35=X|34=187|49=MKDATAFHBCS2|52=20150519-14:12:40.197|56=LVDEVELOP8|262=-413ed8735c81be91|268=1|279=2|269=0|55=CORPBANCA|270=7.4|271=520000|282=043|290=1|10=088|
20150519-14:12:40.104: 8=FIX.4.4|9=153|35=X|34=188|49=MKDATAFHBCS2|52=20150519-14:12:40.197|56=LVDEVELOP8|262=-413ed8735c81be91|268=1|279=2|269=0|55=CORPBANCA|270=7.4|271=150000|282=047|290=1|10=092|
20150519-14:12:40.104: 8=FIX.4.4|9=155|35=X|34=189|49=MKDATAFHBCS2|52=20150519-14:12:40.197|56=LVDEVELOP8|262=-413ed8735c81be91|268=1|279=2|269=0|55=CORPBANCA|270=7.399|271=150000|282=047|290=1|10=208|
20150519-14:12:40.104: 8=FIX.4.4|9=154|35=X|34=190|49=MKDATAFHBCS2|52=20150519-14:12:40.212|56=LVDEVELOP8|262=-413ed8735c81be91|268=1|279=0|269=1|55=CORPBANCA|270=7.4|271=1976289|282=088|290=1|10=162|
20150519-14:12:41.122: 8=FIX.4.4|9=134|35=X|34=191|49=MKDATAFHBCS2|52=20150519-14:12:41.227|56=LVDEVELOP8|262=-413ed8735c81be91|268=1|279=1|269=5|55=CORPBANCA|270=7.4|290=1|10=225|
20150519-14:12:41.128: 8=FIX.4.4|9=156|35=X|34=192|49=MKDATAFHBCS2|52=20150519-14:12:41.227|56=LVDEVELOP8|262=-413ed8735c81be91|268=1|279=2|269=0|55=CORPBANCA|270=7.378|271=1500000|282=070|290=1|10=239|
20150519-14:12:41.128: 8=FIX.4.4|9=156|35=X|34=193|49=MKDATAFHBCS2|52=20150519-14:12:41.227|56=LVDEVELOP8|262=-413ed8735c81be91|268=1|279=0|269=0|55=CORPBANCA|270=7.378|271=1500000|282=070|290=1|10=238|
20150519-14:12:42.053: 8=FIX.4.4|9=156|35=X|34=194|49=MKDATAFHBCS2|52=20150519-14:12:42.164|56=LVDEVELOP8|262=-413ed8735c81be91|268=1|279=0|269=1|55=CORPBANCA|270=7.399|271=1175941|282=035|290=1|10=011|
20150519-14:12:43.122: 8=FIX.4.4|9=156|35=X|34=195|49=MKDATAFHBCS2|52=20150519-14:12:43.226|56=LVDEVELOP8|262=-413ed8735c81be91|268=1|279=2|269=1|55=CORPBANCA|270=7.399|271=1175941|282=035|290=1|10=014|
20150519-14:12:43.124: 8=FIX.4.4|9=156|35=X|34=196|49=MKDATAFHBCS2|52=20150519-14:12:43.226|56=LVDEVELOP8|262=-413ed8735c81be91|268=1|279=2|269=0|55=CORPBANCA|270=7.378|271=1500000|282=070|290=1|10=244|
20150519-14:12:43.124: 8=FIX.4.4|9=156|35=X|34=197|49=MKDATAFHBCS2|52=20150519-14:12:43.226|56=LVDEVELOP8|262=-413ed8735c81be91|268=1|279=0|269=0|55=CORPBANCA|270=7.378|271=1500000|282=070|290=1|10=243|
20150519-14:12:44.118: 8=FIX.4.4|9=156|35=X|34=198|49=MKDATAFHBCS2|52=20150519-14:12:44.225|56=LVDEVELOP8|262=-413ed8735c81be91|268=1|279=2|269=0|55=CORPBANCA|270=7.378|271=1500000|282=070|290=1|10=246|
20150519-14:12:44.118: 8=FIX.4.4|9=156|35=X|34=199|49=MKDATAFHBCS2|52=20150519-14:12:44.225|56=LVDEVELOP8|262=-413ed8735c81be91|268=1|279=0|269=0|55=CORPBANCA|270=7.375|271=1500000|282=070|290=1|10=242|
20150519-14:12:44.118: 8=FIX.4.4|9=156|35=X|34=200|49=MKDATAFHBCS2|52=20150519-14:12:44.225|56=LVDEVELOP8|262=-413ed8735c81be91|268=1|279=0|269=1|55=CORPBANCA|270=7.399|271=1175941|282=035|290=1|10=255|
20150519-14:12:45.114: 8=FIX.4.4|9=156|35=X|34=201|49=MKDATAFHBCS2|52=20150519-14:12:45.225|56=LVDEVELOP8|262=-413ed8735c81be91|268=1|279=2|269=1|55=CORPBANCA|270=7.399|271=1175941|282=035|290=1|10=003|
20150519-14:12:45.114: 8=FIX.4.4|9=156|35=X|34=202|49=MKDATAFHBCS2|52=20150519-14:12:45.225|56=LVDEVELOP8|262=-413ed8735c81be91|268=1|279=2|269=0|55=CORPBANCA|270=7.375|271=1500000|282=070|290=1|10=230|
20150519-14:12:45.114: 8=FIX.4.4|9=156|35=X|34=203|49=MKDATAFHBCS2|52=20150519-14:12:45.225|56=LVDEVELOP8|262=-413ed8735c81be91|268=1|279=0|269=0|55=CORPBANCA|270=7.375|271=1500000|282=070|290=1|10=229|
20150519-14:12:46.750: 8=FIX.4.4|9=156|35=X|34=204|49=MKDATAFHBCS2|52=20150519-14:12:46.864|56=LVDEVELOP8|262=-413ed8735c81be91|268=1|279=0|269=1|55=CORPBANCA|270=7.399|271=1175941|282=035|290=1|10=014|
20150519-14:12:46.776: 8=FIX.4.4|9=156|35=X|34=205|49=MKDATAFHBCS2|52=20150519-14:12:46.895|56=LVDEVELOP8|262=-413ed8735c81be91|268=1|279=0|269=0|55=CORPBANCA|270=7.378|271=1500000|282=070|290=1|10=248|
20150519-14:12:47.095: 8=FIX.4.4|9=156|35=X|34=206|49=MKDATAFHBCS2|52=20150519-14:12:47.208|56=LVDEVELOP8|262=-413ed8735c81be91|268=1|279=2|269=1|55=CORPBANCA|270=7.399|271=1175941|282=035|290=1|10=011|
20150519-14:12:47.114: 8=FIX.4.4|9=156|35=X|34=207|49=MKDATAFHBCS2|52=20150519-14:12:47.239|56=LVDEVELOP8|262=-413ed8735c81be91|268=1|279=2|269=0|55=CORPBANCA|270=7.378|271=1500000|282=070|290=1|10=245|
20150519-14:12:47.114: 8=FIX.4.4|9=156|35=X|34=208|49=MKDATAFHBCS2|52=20150519-14:12:47.239|56=LVDEVELOP8|262=-413ed8735c81be91|268=1|279=0|269=0|55=CORPBANCA|270=7.375|271=1500000|282=070|290=1|10=241|
20150519-14:12:48.164: 8=FIX.4.4|9=156|35=X|34=209|49=MKDATAFHBCS2|52=20150519-14:12:48.269|56=LVDEVELOP8|262=-413ed8735c81be91|268=1|279=2|269=0|55=CORPBANCA|270=7.375|271=1500000|282=070|290=1|10=248|
20150519-14:12:48.164: 8=FIX.4.4|9=156|35=X|34=210|49=MKDATAFHBCS2|52=20150519-14:12:48.285|56=LVDEVELOP8|262=-413ed8735c81be91|268=1|279=0|269=0|55=CORPBANCA|270=7.375|271=1500000|282=070|290=1|10=236|
20150519-14:12:49.108: 8=FIX.4.4|9=156|35=X|34=211|49=MKDATAFHBCS2|52=20150519-14:12:49.222|56=LVDEVELOP8|262=-413ed8735c81be91|268=1|279=2|269=0|55=CORPBANCA|270=7.375|271=1500000|282=070|290=1|10=231|
20150519-14:12:49.108: 8=FIX.4.4|9=156|35=X|34=212|49=MKDATAFHBCS2|52=20150519-14:12:49.222|56=LVDEVELOP8|262=-413ed8735c81be91|268=1|279=0|269=0|55=CORPBANCA|270=7.373|271=1500000|282=070|290=1|10=228|
20150519-14:12:50.199: 8=FIX.4.4|9=156|35=X|34=213|49=MKDATAFHBCS2|52=20150519-14:12:50.315|56=LVDEVELOP8|262=-413ed8735c81be91|268=1|279=0|269=0|55=CORPBANCA|270=7.375|271=1500000|282=070|290=1|10=226|
20150519-14:12:51.067: 8=FIX.4.4|9=156|35=X|34=214|49=MKDATAFHBCS2|52=20150519-14:12:51.189|56=LVDEVELOP8|262=-413ed8735c81be91|268=1|279=2|269=0|55=CORPBANCA|270=7.375|271=1500000|282=070|290=1|10=239|
20150519-14:12:53.087: 8=FIX.4.4|9=156|35=X|34=215|49=MKDATAFHBCS2|52=20150519-14:12:53.204|56=LVDEVELOP8|262=-413ed8735c81be91|268=1|279=0|269=0|55=CORPBANCA|270=7.375|271=1500000|282=070|290=1|10=228|
20150519-14:13:07.193: 8=FIX.4.4|9=156|35=X|34=216|49=MKDATAFHBCS2|52=20150519-14:13:07.335|56=LVDEVELOP8|262=-413ed8735c81be91|268=1|279=0|269=0|55=CORPBANCA|270=7.376|271=1500000|282=070|290=1|10=235|
20150519-14:13:11.115: 8=FIX.4.4|9=156|35=X|34=217|49=MKDATAFHBCS2|52=20150519-14:13:11.253|56=LVDEVELOP8|262=-413ed8735c81be91|268=1|279=0|269=0|55=CORPBANCA|270=7.377|271=1500000|282=070|290=1|10=231|
20150519-14:13:11.135: 8=FIX.4.4|9=156|35=X|34=218|49=MKDATAFHBCS2|52=20150519-14:13:11.269|56=LVDEVELOP8|262=-413ed8735c81be91|268=1|279=0|269=1|55=CORPBANCA|270=7.399|271=1122552|282=035|290=1|10=001|
20150519-14:13:14.156: 8=FIX.4.4|9=156|35=X|34=219|49=MKDATAFHBCS2|52=20150519-14:13:14.296|56=LVDEVELOP8|262=-413ed8735c81be91|268=1|279=2|269=1|55=CORPBANCA|270=7.399|271=1122552|282=035|290=1|10=007|
20150519-14:13:14.156: 8=FIX.4.4|9=156|35=X|34=220|49=MKDATAFHBCS2|52=20150519-14:13:14.296|56=LVDEVELOP8|262=-413ed8735c81be91|268=1|279=0|269=1|55=CORPBANCA|270=7.399|271=1122552|282=035|290=1|10=253|
20150519-14:13:16.162: 8=FIX.4.4|9=156|35=X|34=221|49=MKDATAFHBCS2|52=20150519-14:13:16.294|56=LVDEVELOP8|262=-413ed8735c81be91|268=1|279=0|269=0|55=CORPBANCA|270=7.378|271=1500000|282=070|290=1|10=237|
20150519-14:13:16.179: 8=FIX.4.4|9=156|35=X|34=222|49=MKDATAFHBCS2|52=20150519-14:13:16.310|56=LVDEVELOP8|262=-413ed8735c81be91|268=1|279=2|269=1|55=CORPBANCA|270=7.399|271=1122552|282=035|290=1|10=246|
20150519-14:13:16.179: 8=FIX.4.4|9=156|35=X|34=223|49=MKDATAFHBCS2|52=20150519-14:13:16.310|56=LVDEVELOP8|262=-413ed8735c81be91|268=1|279=0|269=1|55=CORPBANCA|270=7.399|271=1122552|282=035|290=1|10=245|
20150519-14:13:17.125: 8=FIX.4.4|9=156|35=X|34=224|49=MKDATAFHBCS2|52=20150519-14:13:17.262|56=LVDEVELOP8|262=-413ed8735c81be91|268=1|279=2|269=1|55=CORPBANCA|270=7.399|271=1122552|282=035|290=1|10=255|
20150519-14:13:17.125: 8=FIX.4.4|9=156|35=X|34=225|49=MKDATAFHBCS2|52=20150519-14:13:17.262|56=LVDEVELOP8|262=-413ed8735c81be91|268=1|279=0|269=1|55=CORPBANCA|270=7.399|271=1122552|282=035|290=1|10=254|
20150519-14:13:20.311: 8=FIX.4.4|9=66|35=0|34=73|49=LVDEVELOP8|52=20150519-14:13:20.311|56=MKDATAFHBCS2|10=059|
20150519-14:13:21.146: 8=FIX.4.4|9=156|35=X|34=226|49=MKDATAFHBCS2|52=20150519-14:13:21.288|56=LVDEVELOP8|262=-413ed8735c81be91|268=1|279=0|269=0|55=CORPBANCA|270=7.379|271=1500000|282=070|290=1|10=242|
20150519-14:13:26.168: 8=FIX.4.4|9=155|35=X|34=227|49=MKDATAFHBCS2|52=20150519-14:13:26.314|56=LVDEVELOP8|262=-413ed8735c81be91|268=1|279=0|269=0|55=CORPBANCA|270=7.38|271=1500000|282=070|290=1|10=181|
20150519-14:13:42.208: 8=FIX.4.4|9=156|35=X|34=228|49=MKDATAFHBCS2|52=20150519-14:13:42.327|56=LVDEVELOP8|262=-413ed8735c81be91|268=1|279=2|269=1|55=CORPBANCA|270=7.399|271=1122552|282=035|290=1|10=003|
20150519-14:13:43.191: 8=FIX.4.4|9=136|35=X|34=229|49=MKDATAFHBCS2|52=20150519-14:13:43.341|56=LVDEVELOP8|262=-413ed8735c81be91|268=1|279=1|269=5|55=CORPBANCA|270=7.399|290=1|10=086|
20150519-14:13:43.192: 8=FIX.4.4|9=155|35=X|34=230|49=MKDATAFHBCS2|52=20150519-14:13:43.341|56=LVDEVELOP8|262=-413ed8735c81be91|268=1|279=0|269=1|55=CORPBANCA|270=7.399|271=146743|282=035|290=1|10=205|
20150519-14:13:44.185: 8=FIX.4.4|9=154|35=X|34=231|49=MKDATAFHBCS2|52=20150519-14:13:44.340|56=LVDEVELOP8|262=-413ed8735c81be91|268=1|279=0|269=0|55=CORPBANCA|270=7.399|271=95532|282=035|290=1|10=155|
20150519-14:13:44.185: 8=FIX.4.4|9=155|35=X|34=232|49=MKDATAFHBCS2|52=20150519-14:13:44.340|56=LVDEVELOP8|262=-413ed8735c81be91|268=1|279=2|269=1|55=CORPBANCA|270=7.399|271=146743|282=035|290=1|10=209|
20150519-14:13:51.227: 8=FIX.4.4|9=136|35=X|34=233|49=MKDATAFHBCS2|52=20150519-14:13:51.379|56=LVDEVELOP8|262=-413ed8735c81be91|268=1|279=1|269=5|55=CORPBANCA|270=7.399|290=1|10=091|
20150519-14:13:51.227: 8=FIX.4.4|9=154|35=X|34=234|49=MKDATAFHBCS2|52=20150519-14:13:51.379|56=LVDEVELOP8|262=-413ed8735c81be91|268=1|279=2|269=0|55=CORPBANCA|270=7.399|271=95532|282=035|290=1|10=170|
20150519-14:13:51.227: 8=FIX.4.4|9=156|35=X|34=235|49=MKDATAFHBCS2|52=20150519-14:13:51.379|56=LVDEVELOP8|262=-413ed8735c81be91|268=1|279=2|269=0|55=CORPBANCA|270=7.375|271=1500000|282=070|290=1|10=244|
20150519-14:13:51.227: 8=FIX.4.4|9=155|35=X|34=236|49=MKDATAFHBCS2|52=20150519-14:13:51.379|56=LVDEVELOP8|262=-413ed8735c81be91|268=1|279=0|269=1|55=CORPBANCA|270=7.399|271=519677|282=042|290=1|10=229|
20150519-14:13:55.201: 8=FIX.4.4|9=156|35=X|34=237|49=MKDATAFHBCS2|52=20150519-14:13:55.359|56=LVDEVELOP8|262=-413ed8735c81be91|268=1|279=0|269=0|55=CORPBANCA|270=7.375|271=1500000|282=070|290=1|10=246|
20150519-14:14:14.290: 8=FIX.4.4|9=136|35=X|34=238|49=MKDATAFHBCS2|52=20150519-14:14:14.460|56=LVDEVELOP8|262=-413ed8735c81be91|268=1|279=1|269=5|55=CORPBANCA|270=7.399|290=1|10=087|
20150519-14:14:14.296: 8=FIX.4.4|9=155|35=X|34=239|49=MKDATAFHBCS2|52=20150519-14:14:14.460|56=LVDEVELOP8|262=-413ed8735c81be91|268=1|279=1|269=1|55=CORPBANCA|270=7.399|271=394677|282=042|290=1|10=225|
20150519-14:14:17.253: 8=FIX.4.4|9=156|35=X|34=240|49=MKDATAFHBCS2|52=20150519-14:14:17.425|56=LVDEVELOP8|262=-413ed8735c81be91|268=1|279=0|269=0|55=CORPBANCA|270=7.376|271=1500000|282=070|290=1|10=234|
20150519-14:14:20.312: 8=FIX.4.4|9=66|35=0|34=74|49=LVDEVELOP8|52=20150519-14:14:20.312|56=MKDATAFHBCS2|10=062|
20150519-14:14:31.353: 8=FIX.4.4|9=156|35=X|34=241|49=MKDATAFHBCS2|52=20150519-14:14:31.515|56=LVDEVELOP8|262=-413ed8735c81be91|268=1|279=2|269=0|55=CORPBANCA|270=7.376|271=1500000|282=070|290=1|10=233|
20150519-14:14:33.314: 8=FIX.4.4|9=155|35=X|34=242|49=MKDATAFHBCS2|52=20150519-14:14:33.481|56=LVDEVELOP8|262=-413ed8735c81be91|268=1|279=2|269=0|55=CORPBANCA|270=7.374|271=150000|282=047|290=1|10=191|
20150519-14:14:33.314: 8=FIX.4.4|9=156|35=X|34=243|49=MKDATAFHBCS2|52=20150519-14:14:33.481|56=LVDEVELOP8|262=-413ed8735c81be91|268=1|279=2|269=0|55=CORPBANCA|270=7.374|271=1500000|282=070|290=1|10=237|
20150519-14:14:33.315: 8=FIX.4.4|9=156|35=X|34=244|49=MKDATAFHBCS2|52=20150519-14:14:33.481|56=LVDEVELOP8|262=-413ed8735c81be91|268=1|279=0|269=0|55=CORPBANCA|270=7.374|271=1500000|282=070|290=1|10=236|
20150519-14:14:34.291: 8=FIX.4.4|9=156|35=X|34=245|49=MKDATAFHBCS2|52=20150519-14:14:34.464|56=LVDEVELOP8|262=-413ed8735c81be91|268=1|279=2|269=0|55=CORPBANCA|270=7.374|271=1500000|282=070|290=1|10=241|
20150519-14:14:36.355: 8=FIX.4.4|9=156|35=X|34=246|49=MKDATAFHBCS2|52=20150519-14:14:36.524|56=LVDEVELOP8|262=-413ed8735c81be91|268=1|279=0|269=0|55=CORPBANCA|270=7.374|271=1500000|282=070|290=1|10=239|
20150519-14:14:37.339: 8=FIX.4.4|9=156|35=X|34=247|49=MKDATAFHBCS2|52=20150519-14:14:37.507|56=LVDEVELOP8|262=-413ed8735c81be91|268=1|279=2|269=0|55=CORPBANCA|270=7.374|271=1500000|282=070|290=1|10=244|
20150519-14:14:39.345: 8=FIX.4.4|9=156|35=X|34=248|49=MKDATAFHBCS2|52=20150519-14:14:39.520|56=LVDEVELOP8|262=-413ed8735c81be91|268=1|279=0|269=0|55=CORPBANCA|270=7.374|271=1500000|282=070|290=1|10=240|
20150519-14:14:46.336: 8=FIX.4.4|9=154|35=X|34=249|49=MKDATAFHBCS2|52=20150519-14:14:46.511|56=LVDEVELOP8|262=-413ed8735c81be91|268=1|279=0|269=1|55=CORPBANCA|270=7.398|271=54000|282=070|290=1|10=151|
20150519-14:14:46.338: 8=FIX.4.4|9=156|35=X|34=250|49=MKDATAFHBCS2|52=20150519-14:14:46.511|56=LVDEVELOP8|262=-413ed8735c81be91|268=1|279=2|269=0|55=CORPBANCA|270=7.374|271=1500000|282=070|290=1|10=233|
20150519-14:14:49.330: 8=FIX.4.4|9=155|35=X|34=251|49=MKDATAFHBCS2|52=20150519-14:14:49.507|56=LVDEVELOP8|262=-413ed8735c81be91|268=1|279=0|269=0|55=CORPBANCA|270=7.373|271=150000|282=047|290=1|10=194|
20150519-14:15:13.440: 8=FIX.4.4|9=155|35=X|34=252|49=MKDATAFHBCS2|52=20150519-14:15:13.614|56=LVDEVELOP8|262=-413ed8735c81be91|268=1|279=2|269=0|55=CORPBANCA|270=7.373|271=150000|282=047|290=1|10=188|
20150519-14:15:21.312: 8=FIX.4.4|9=66|35=0|34=75|49=LVDEVELOP8|52=20150519-14:15:21.312|56=MKDATAFHBCS2|10=065|
20150519-14:15:29.412: 8=FIX.4.4|9=155|35=X|34=253|49=MKDATAFHBCS2|52=20150519-14:15:29.590|56=LVDEVELOP8|262=-413ed8735c81be91|268=1|279=2|269=0|55=CORPBANCA|270=7.372|271=150000|282=047|290=1|10=198|
20150519-14:15:29.413: 8=FIX.4.4|9=155|35=X|34=254|49=MKDATAFHBCS2|52=20150519-14:15:29.590|56=LVDEVELOP8|262=-413ed8735c81be91|268=1|279=0|269=0|55=CORPBANCA|270=7.371|271=150000|282=047|290=1|10=196|
20150519-14:15:49.508: 8=FIX.4.4|9=155|35=X|34=255|49=MKDATAFHBCS2|52=20150519-14:15:49.701|56=LVDEVELOP8|262=-413ed8735c81be91|268=1|279=2|269=0|55=CORPBANCA|270=7.371|271=150000|282=047|290=1|10=195|
20150519-14:15:49.509: 8=FIX.4.4|9=154|35=X|34=256|49=MKDATAFHBCS2|52=20150519-14:15:49.701|56=LVDEVELOP8|262=-413ed8735c81be91|268=1|279=0|269=0|55=CORPBANCA|270=7.37|271=150000|282=047|290=1|10=144|
20150519-14:15:52.502: 8=FIX.4.4|9=136|35=X|34=257|49=MKDATAFHBCS2|52=20150519-14:15:52.681|56=LVDEVELOP8|262=-413ed8735c81be91|268=1|279=1|269=5|55=CORPBANCA|270=7.399|290=1|10=096|
20150519-14:15:52.509: 8=FIX.4.4|9=154|35=X|34=258|49=MKDATAFHBCS2|52=20150519-14:15:52.696|56=LVDEVELOP8|262=-413ed8735c81be91|268=1|279=0|269=1|55=CORPBANCA|270=7.397|271=12000|282=070|290=1|10=156|
20150519-14:15:56.494: 8=FIX.4.4|9=154|35=X|34=259|49=MKDATAFHBCS2|52=20150519-14:15:56.675|56=LVDEVELOP8|262=-413ed8735c81be91|268=1|279=2|269=1|55=CORPBANCA|270=7.397|271=12000|282=070|290=1|10=160|
20150519-14:15:56.494: 8=FIX.4.4|9=154|35=X|34=260|49=MKDATAFHBCS2|52=20150519-14:15:56.675|56=LVDEVELOP8|262=-413ed8735c81be91|268=1|279=0|269=1|55=CORPBANCA|270=7.397|271=12000|282=070|290=1|10=150|
20150519-14:15:57.448: 8=FIX.4.4|9=154|35=X|34=261|49=MKDATAFHBCS2|52=20150519-14:15:57.626|56=LVDEVELOP8|262=-413ed8735c81be91|268=1|279=2|269=1|55=CORPBANCA|270=7.397|271=12000|282=070|290=1|10=150|
20150519-14:15:57.449: 8=FIX.4.4|9=154|35=X|34=262|49=MKDATAFHBCS2|52=20150519-14:15:57.642|56=LVDEVELOP8|262=-413ed8735c81be91|268=1|279=0|269=1|55=CORPBANCA|270=7.397|271=12000|282=070|290=1|10=147|
20150519-14:15:58.481: 8=FIX.4.4|9=154|35=X|34=263|49=MKDATAFHBCS2|52=20150519-14:15:58.672|56=LVDEVELOP8|262=-413ed8735c81be91|268=1|279=2|269=1|55=CORPBANCA|270=7.397|271=12000|282=070|290=1|10=154|
20150519-14:15:58.481: 8=FIX.4.4|9=154|35=X|34=264|49=MKDATAFHBCS2|52=20150519-14:15:58.672|56=LVDEVELOP8|262=-413ed8735c81be91|268=1|279=0|269=1|55=CORPBANCA|270=7.398|271=12000|282=070|290=1|10=154|
20150519-14:15:59.659: 8=FIX.4.4|9=154|35=X|34=265|49=MKDATAFHBCS2|52=20150519-14:15:59.842|56=LVDEVELOP8|262=-413ed8735c81be91|268=1|279=0|269=1|55=CORPBANCA|270=7.397|271=12000|282=070|290=1|10=154|
20150519-14:16:00.510: 8=FIX.4.4|9=154|35=X|34=266|49=MKDATAFHBCS2|52=20150519-14:16:00.700|56=LVDEVELOP8|262=-413ed8735c81be91|268=1|279=2|269=1|55=CORPBANCA|270=7.397|271=12000|282=070|290=1|10=137|
20150519-14:16:00.510: 8=FIX.4.4|9=154|35=X|34=267|49=MKDATAFHBCS2|52=20150519-14:16:00.700|56=LVDEVELOP8|262=-413ed8735c81be91|268=1|279=0|269=1|55=CORPBANCA|270=7.398|271=12000|282=070|290=1|10=137|
20150519-14:16:01.503: 8=FIX.4.4|9=155|35=X|34=268|49=MKDATAFHBCS2|52=20150519-14:16:01.683|56=LVDEVELOP8|262=-413ed8735c81be91|268=1|279=0|269=0|55=CORPBANCA|270=7.371|271=150000|282=047|290=1|10=195|
20150519-14:16:01.508: 8=FIX.4.4|9=154|35=X|34=269|49=MKDATAFHBCS2|52=20150519-14:16:01.698|56=LVDEVELOP8|262=-413ed8735c81be91|268=1|279=2|269=1|55=CORPBANCA|270=7.398|271=12000|282=070|290=1|10=158|
20150519-14:16:01.508: 8=FIX.4.4|9=154|35=X|34=270|49=MKDATAFHBCS2|52=20150519-14:16:01.698|56=LVDEVELOP8|262=-413ed8735c81be91|268=1|279=0|269=1|55=CORPBANCA|270=7.398|271=12000|282=070|290=1|10=148|
20150519-14:16:02.465: 8=FIX.4.4|9=154|35=X|34=271|49=MKDATAFHBCS2|52=20150519-14:16:02.650|56=LVDEVELOP8|262=-413ed8735c81be91|268=1|279=2|269=1|55=CORPBANCA|270=7.398|271=12000|282=070|290=1|10=140|
20150519-14:16:02.466: 8=FIX.4.4|9=154|35=X|34=272|49=MKDATAFHBCS2|52=20150519-14:16:02.650|56=LVDEVELOP8|262=-413ed8735c81be91|268=1|279=0|269=1|55=CORPBANCA|270=7.398|271=12000|282=070|290=1|10=139|
20150519-14:16:03.493: 8=FIX.4.4|9=154|35=X|34=273|49=MKDATAFHBCS2|52=20150519-14:16:03.680|56=LVDEVELOP8|262=-413ed8735c81be91|268=1|279=0|269=1|55=CORPBANCA|270=7.397|271=12000|282=070|290=1|10=143|
20150519-14:16:04.560: 8=FIX.4.4|9=154|35=X|34=274|49=MKDATAFHBCS2|52=20150519-14:16:04.741|56=LVDEVELOP8|262=-413ed8735c81be91|268=1|279=2|269=1|55=CORPBANCA|270=7.397|271=12000|282=070|290=1|10=145|
20150519-14:16:04.560: 8=FIX.4.4|9=154|35=X|34=275|49=MKDATAFHBCS2|52=20150519-14:16:04.741|56=LVDEVELOP8|262=-413ed8735c81be91|268=1|279=0|269=1|55=CORPBANCA|270=7.397|271=12000|282=070|290=1|10=144|
20150519-14:16:05.521: 8=FIX.4.4|9=154|35=X|34=276|49=MKDATAFHBCS2|52=20150519-14:16:05.708|56=LVDEVELOP8|262=-413ed8735c81be91|268=1|279=2|269=1|55=CORPBANCA|270=7.397|271=12000|282=070|290=1|10=151|
20150519-14:16:05.521: 8=FIX.4.4|9=154|35=X|34=277|49=MKDATAFHBCS2|52=20150519-14:16:05.708|56=LVDEVELOP8|262=-413ed8735c81be91|268=1|279=0|269=1|55=CORPBANCA|270=7.398|271=12000|282=070|290=1|10=151|
20150519-14:16:06.498: 8=FIX.4.4|9=154|35=X|34=278|49=MKDATAFHBCS2|52=20150519-14:16:06.691|56=LVDEVELOP8|262=-413ed8735c81be91|268=1|279=2|269=1|55=CORPBANCA|270=7.398|271=12000|282=070|290=1|10=156|
20150519-14:16:06.499: 8=FIX.4.4|9=154|35=X|34=279|49=MKDATAFHBCS2|52=20150519-14:16:06.691|56=LVDEVELOP8|262=-413ed8735c81be91|268=1|279=0|269=1|55=CORPBANCA|270=7.398|271=12000|282=070|290=1|10=155|
20150519-14:16:07.534: 8=FIX.4.4|9=154|35=X|34=280|49=MKDATAFHBCS2|52=20150519-14:16:07.721|56=LVDEVELOP8|262=-413ed8735c81be91|268=1|279=2|269=1|55=CORPBANCA|270=7.398|271=12000|282=070|290=1|10=144|
20150519-14:16:07.534: 8=FIX.4.4|9=154|35=X|34=281|49=MKDATAFHBCS2|52=20150519-14:16:07.721|56=LVDEVELOP8|262=-413ed8735c81be91|268=1|279=0|269=1|55=CORPBANCA|270=7.398|271=12000|282=070|290=1|10=143|
20150519-14:16:09.497: 8=FIX.4.4|9=155|35=X|34=282|49=MKDATAFHBCS2|52=20150519-14:16:09.686|56=LVDEVELOP8|262=-413ed8735c81be91|268=1|279=2|269=0|55=CORPBANCA|270=7.371|271=150000|282=047|290=1|10=204|
20150519-14:16:10.572: 8=FIX.4.4|9=154|35=X|34=283|49=MKDATAFHBCS2|52=20150519-14:16:10.763|56=LVDEVELOP8|262=-413ed8735c81be91|268=1|279=0|269=1|55=CORPBANCA|270=7.397|271=12000|282=070|290=1|10=144|
20150519-14:16:11.516: 8=FIX.4.4|9=154|35=X|34=284|49=MKDATAFHBCS2|52=20150519-14:16:11.699|56=LVDEVELOP8|262=-413ed8735c81be91|268=1|279=2|269=1|55=CORPBANCA|270=7.397|271=12000|282=070|290=1|10=156|
20150519-14:16:11.516: 8=FIX.4.4|9=154|35=X|34=285|49=MKDATAFHBCS2|52=20150519-14:16:11.699|56=LVDEVELOP8|262=-413ed8735c81be91|268=1|279=0|269=1|55=CORPBANCA|270=7.398|271=12000|282=070|290=1|10=156|
20150519-14:16:22.311: 8=FIX.4.4|9=66|35=0|34=76|49=LVDEVELOP8|52=20150519-14:16:22.311|56=MKDATAFHBCS2|10=067|
20150519-14:16:29.521: 8=FIX.4.4|9=136|35=X|34=286|49=MKDATAFHBCS2|52=20150519-14:16:29.697|56=LVDEVELOP8|262=-413ed8735c81be91|268=1|279=1|269=5|55=CORPBANCA|270=7.399|290=1|10=110|
20150519-14:16:29.539: 8=FIX.4.4|9=154|35=X|34=287|49=MKDATAFHBCS2|52=20150519-14:16:29.713|56=LVDEVELOP8|262=-413ed8735c81be91|268=1|279=2|269=0|55=CORPBANCA|270=7.37|271=150000|282=047|290=1|10=152|
20150519-14:16:29.539: 8=FIX.4.4|9=155|35=X|34=288|49=MKDATAFHBCS2|52=20150519-14:16:29.713|56=LVDEVELOP8|262=-413ed8735c81be91|268=1|279=0|269=0|55=CORPBANCA|270=7.369|271=150000|282=047|290=1|10=208|
20150519-14:16:29.539: 8=FIX.4.4|9=154|35=X|34=289|49=MKDATAFHBCS2|52=20150519-14:16:29.713|56=LVDEVELOP8|262=-413ed8735c81be91|268=1|279=2|269=1|55=CORPBANCA|270=7.398|271=12000|282=070|290=1|10=158|
20150519-14:16:32.559: 8=FIX.4.4|9=154|35=X|34=290|49=MKDATAFHBCS2|52=20150519-14:16:32.731|56=LVDEVELOP8|262=-413ed8735c81be91|268=1|279=0|269=0|55=CORPBANCA|270=7.37|271=150000|282=047|290=1|10=138|
20150519-14:16:54.587: 8=FIX.4.4|9=154|35=X|34=291|49=MKDATAFHBCS2|52=20150519-14:16:54.703|56=LVDEVELOP8|262=-413ed8735c81be91|268=1|279=2|269=0|55=CORPBANCA|270=7.37|271=150000|282=047|290=1|10=144|
20150519-14:16:57.636: 8=FIX.4.4|9=154|35=X|34=292|49=MKDATAFHBCS2|52=20150519-14:16:57.753|56=LVDEVELOP8|262=-413ed8735c81be91|268=1|279=0|269=0|55=CORPBANCA|270=7.37|271=150000|282=047|290=1|10=151|
20150519-14:17:22.312: 8=FIX.4.4|9=66|35=0|34=77|49=LVDEVELOP8|52=20150519-14:17:22.312|56=MKDATAFHBCS2|10=070|
20150519-14:17:57.953: 8=FIX.4.4|9=67|35=0|34=293|49=MKDATAFHBCS2|52=20150519-14:17:58.078|56=LVDEVELOP8|10=137|
20150519-14:18:16.814: 8=FIX.4.4|9=155|35=X|34=294|49=MKDATAFHBCS2|52=20150519-14:18:16.951|56=LVDEVELOP8|262=-413ed8735c81be91|268=1|279=0|269=0|55=CORPBANCA|270=7.371|271=150000|282=047|290=1|10=200|
20150519-14:18:23.311: 8=FIX.4.4|9=66|35=0|34=78|49=LVDEVELOP8|52=20150519-14:18:23.311|56=MKDATAFHBCS2|10=072|
20150519-14:18:30.846: 8=FIX.4.4|9=155|35=X|34=295|49=MKDATAFHBCS2|52=20150519-14:18:30.998|56=LVDEVELOP8|262=-413ed8735c81be91|268=1|279=0|269=0|55=CORPBANCA|270=7.372|271=150000|282=047|290=1|10=209|
20150519-14:18:34.779: 8=FIX.4.4|9=155|35=X|34=296|49=MKDATAFHBCS2|52=20150519-14:18:34.931|56=LVDEVELOP8|262=-413ed8735c81be91|268=1|279=2|269=0|55=CORPBANCA|270=7.372|271=150000|282=047|290=1|10=203|
20150519-14:18:49.800: 8=FIX.4.4|9=155|35=X|34=297|49=MKDATAFHBCS2|52=20150519-14:18:49.961|56=LVDEVELOP8|262=-413ed8735c81be91|268=1|279=2|269=0|55=CORPBANCA|270=7.371|271=150000|282=047|290=1|10=212|
20150519-14:18:50.847: 8=FIX.4.4|9=155|35=X|34=298|49=MKDATAFHBCS2|52=20150519-14:18:51.007|56=LVDEVELOP8|262=-413ed8735c81be91|268=1|279=0|269=0|55=CORPBANCA|270=7.371|271=150000|282=047|290=1|10=195|
20150519-14:18:53.900: 8=FIX.4.4|9=155|35=X|34=299|49=MKDATAFHBCS2|52=20150519-14:18:54.050|56=LVDEVELOP8|262=-413ed8735c81be91|268=1|279=2|269=0|55=CORPBANCA|270=7.371|271=150000|282=047|290=1|10=199|
20150519-14:19:23.312: 8=FIX.4.4|9=66|35=0|34=79|49=LVDEVELOP8|52=20150519-14:19:23.312|56=MKDATAFHBCS2|10=075|
20150519-14:19:27.920: 8=FIX.4.4|9=155|35=X|34=300|49=MKDATAFHBCS2|52=20150519-14:19:28.085|56=LVDEVELOP8|262=-413ed8735c81be91|268=1|279=0|269=0|55=CORPBANCA|270=7.371|271=150000|282=047|290=1|10=190|
20150519-14:19:30.939: 8=FIX.4.4|9=155|35=X|34=301|49=MKDATAFHBCS2|52=20150519-14:19:31.113|56=LVDEVELOP8|262=-413ed8735c81be91|268=1|279=0|269=0|55=CORPBANCA|270=7.372|271=150000|282=047|290=1|10=178|
20150519-14:19:38.932: 8=FIX.4.4|9=155|35=X|34=302|49=MKDATAFHBCS2|52=20150519-14:19:39.102|56=LVDEVELOP8|262=-413ed8735c81be91|268=1|279=0|269=0|55=CORPBANCA|270=7.373|271=150000|282=047|290=1|10=186|
20150519-14:19:45.958: 8=FIX.4.4|9=155|35=X|34=303|49=MKDATAFHBCS2|52=20150519-14:19:46.123|56=LVDEVELOP8|262=-413ed8735c81be91|268=1|279=2|269=0|55=CORPBANCA|270=7.373|271=150000|282=047|290=1|10=190|
20150519-14:19:51.939: 8=FIX.4.4|9=155|35=X|34=304|49=MKDATAFHBCS2|52=20150519-14:19:52.115|56=LVDEVELOP8|262=-413ed8735c81be91|268=1|279=0|269=0|55=CORPBANCA|270=7.373|271=150000|282=047|290=1|10=187|
20150519-14:19:53.982: 8=FIX.4.4|9=155|35=X|34=305|49=MKDATAFHBCS2|52=20150519-14:19:54.159|56=LVDEVELOP8|262=-413ed8735c81be91|268=1|279=0|269=0|55=CORPBANCA|270=7.376|271=150000|282=047|290=1|10=201|
20150519-14:20:00.278: 8=FIX.4.4|9=155|35=X|34=306|49=MKDATAFHBCS2|52=20150519-14:20:00.448|56=LVDEVELOP8|262=-413ed8735c81be91|268=1|279=2|269=0|55=CORPBANCA|270=7.376|271=150000|282=047|290=1|10=188|
20150519-14:20:00.279: 8=FIX.4.4|9=155|35=X|34=307|49=MKDATAFHBCS2|52=20150519-14:20:00.448|56=LVDEVELOP8|262=-413ed8735c81be91|268=1|279=0|269=0|55=CORPBANCA|270=7.375|271=150000|282=047|290=1|10=186|
20150519-14:20:15.002: 8=FIX.4.4|9=155|35=X|34=308|49=MKDATAFHBCS2|52=20150519-14:20:15.177|56=LVDEVELOP8|262=-413ed8735c81be91|268=1|279=2|269=0|55=CORPBANCA|270=7.375|271=150000|282=047|290=1|10=194|
20150519-14:20:15.002: 8=FIX.4.4|9=155|35=X|34=309|49=MKDATAFHBCS2|52=20150519-14:20:15.177|56=LVDEVELOP8|262=-413ed8735c81be91|268=1|279=2|269=0|55=CORPBANCA|270=7.373|271=150000|282=047|290=1|10=193|
20150519-14:20:15.002: 8=FIX.4.4|9=155|35=X|34=310|49=MKDATAFHBCS2|52=20150519-14:20:15.177|56=LVDEVELOP8|262=-413ed8735c81be91|268=1|279=0|269=0|55=CORPBANCA|270=7.372|271=150000|282=047|290=1|10=182|
20150519-14:20:16.005: 8=FIX.4.4|9=155|35=X|34=311|49=MKDATAFHBCS2|52=20150519-14:20:16.191|56=LVDEVELOP8|262=-413ed8735c81be91|268=1|279=0|269=0|55=CORPBANCA|270=7.375|271=150000|282=047|290=1|10=183|
20150519-14:20:18.000: 8=FIX.4.4|9=155|35=X|34=312|49=MKDATAFHBCS2|52=20150519-14:20:18.173|56=LVDEVELOP8|262=-413ed8735c81be91|268=1|279=2|269=0|55=CORPBANCA|270=7.375|271=150000|282=047|290=1|10=188|
20150519-14:20:23.312: 8=FIX.4.4|9=66|35=0|34=80|49=LVDEVELOP8|52=20150519-14:20:23.312|56=MKDATAFHBCS2|10=059|
20150519-14:20:24.068: 8=FIX.4.4|9=155|35=X|34=313|49=MKDATAFHBCS2|52=20150519-14:20:24.242|56=LVDEVELOP8|262=-413ed8735c81be91|268=1|279=0|269=0|55=CORPBANCA|270=7.375|271=150000|282=047|290=1|10=181|
