20150520-11:09:08.270: 8=FIX.4.4|9=72|35=5|34=1|49=ARBv8_EQUITY_NYS_BCS|52=20150520-11:09:08.270|56=MAMA_NYSE|10=226|
20150520-11:09:09.206: 8=FIX.4.4|9=72|35=5|34=1|49=ARBv8_EQUITY_NYS_BCS|52=20150520-11:09:09.206|56=MAMA_NYSE|10=226|
20150520-11:09:10.197: 8=FIX.4.4|9=90|35=A|34=1|49=ARBv8_EQUITY_NYS_BCS|52=20150520-11:09:10.197|56=MAMA_NYSE|98=0|108=60|141=Y|10=056|
20150520-11:09:10.214: 8=FIX.4.4|9=72|35=5|34=1|49=MAMA_NYSE|52=20150520-11:09:10.202|56=ARBv8_EQUITY_NYS_BCS|10=214|
20150520-11:09:10.214: 8=FIX.4.4|9=72|35=5|34=2|49=ARBv8_EQUITY_NYS_BCS|52=20150520-11:09:10.214|56=MAMA_NYSE|10=218|
20150520-11:09:11.198: 8=FIX.4.4|9=90|35=A|34=1|49=ARBv8_EQUITY_NYS_BCS|52=20150520-11:09:11.198|56=MAMA_NYSE|98=0|108=60|141=Y|10=058|
20150520-11:09:11.235: 8=FIX.4.4|9=90|35=A|34=1|49=MAMA_NYSE|52=20150520-11:09:11.232|56=ARBv8_EQUITY_NYS_BCS|98=0|108=60|141=Y|10=047|
20150520-11:10:11.935: 8=FIX.4.4|9=72|35=0|34=2|49=MAMA_NYSE|52=20150520-11:10:11.932|56=ARBv8_EQUITY_NYS_BCS|10=213|
20150520-11:10:11.936: 8=FIX.4.4|9=72|35=0|34=2|49=ARBv8_EQUITY_NYS_BCS|52=20150520-11:10:11.936|56=MAMA_NYSE|10=217|
20150520-11:11:12.196: 8=FIX.4.4|9=72|35=0|34=3|49=ARBv8_EQUITY_NYS_BCS|52=20150520-11:11:12.196|56=MAMA_NYSE|10=218|
20150520-11:11:12.200: 8=FIX.4.4|9=72|35=0|34=3|49=MAMA_NYSE|52=20150520-11:11:12.199|56=ARBv8_EQUITY_NYS_BCS|10=221|
20150520-11:12:12.197: 8=FIX.4.4|9=72|35=0|34=4|49=ARBv8_EQUITY_NYS_BCS|52=20150520-11:12:12.197|56=MAMA_NYSE|10=221|
20150520-11:12:12.209: 8=FIX.4.4|9=72|35=0|34=4|49=MAMA_NYSE|52=20150520-11:12:12.200|56=ARBv8_EQUITY_NYS_BCS|10=206|
20150520-11:13:12.934: 8=FIX.4.4|9=72|35=0|34=5|49=MAMA_NYSE|52=20150520-11:13:12.932|56=ARBv8_EQUITY_NYS_BCS|10=220|
20150520-11:13:12.935: 8=FIX.4.4|9=72|35=0|34=5|49=ARBv8_EQUITY_NYS_BCS|52=20150520-11:13:12.935|56=MAMA_NYSE|10=223|
20150520-11:14:12.934: 8=FIX.4.4|9=72|35=0|34=6|49=MAMA_NYSE|52=20150520-11:14:12.932|56=ARBv8_EQUITY_NYS_BCS|10=222|
20150520-11:14:13.196: 8=FIX.4.4|9=72|35=0|34=6|49=ARBv8_EQUITY_NYS_BCS|52=20150520-11:14:13.196|56=MAMA_NYSE|10=225|
20150520-11:15:12.934: 8=FIX.4.4|9=72|35=0|34=7|49=MAMA_NYSE|52=20150520-11:15:12.932|56=ARBv8_EQUITY_NYS_BCS|10=224|
20150520-11:15:13.197: 8=FIX.4.4|9=72|35=0|34=7|49=ARBv8_EQUITY_NYS_BCS|52=20150520-11:15:13.197|56=MAMA_NYSE|10=228|
20150520-11:16:13.197: 8=FIX.4.4|9=72|35=0|34=8|49=ARBv8_EQUITY_NYS_BCS|52=20150520-11:16:13.197|56=MAMA_NYSE|10=230|
20150520-11:16:13.208: 8=FIX.4.4|9=72|35=0|34=8|49=MAMA_NYSE|52=20150520-11:16:13.199|56=ARBv8_EQUITY_NYS_BCS|10=232|
20150520-11:17:13.197: 8=FIX.4.4|9=72|35=0|34=9|49=ARBv8_EQUITY_NYS_BCS|52=20150520-11:17:13.197|56=MAMA_NYSE|10=232|
20150520-11:17:13.201: 8=FIX.4.4|9=72|35=0|34=9|49=MAMA_NYSE|52=20150520-11:17:13.199|56=ARBv8_EQUITY_NYS_BCS|10=234|
20150520-11:18:13.934: 8=FIX.4.4|9=73|35=0|34=10|49=MAMA_NYSE|52=20150520-11:18:13.931|56=ARBv8_EQUITY_NYS_BCS|10=014|
20150520-11:18:13.934: 8=FIX.4.4|9=73|35=0|34=10|49=ARBv8_EQUITY_NYS_BCS|52=20150520-11:18:13.934|56=MAMA_NYSE|10=017|
20150520-11:19:13.934: 8=FIX.4.4|9=73|35=0|34=11|49=MAMA_NYSE|52=20150520-11:19:13.931|56=ARBv8_EQUITY_NYS_BCS|10=016|
20150520-11:19:13.935: 8=FIX.4.4|9=73|35=0|34=11|49=ARBv8_EQUITY_NYS_BCS|52=20150520-11:19:13.935|56=MAMA_NYSE|10=020|
20150520-11:20:13.934: 8=FIX.4.4|9=73|35=0|34=12|49=MAMA_NYSE|52=20150520-11:20:13.932|56=ARBv8_EQUITY_NYS_BCS|10=010|
20150520-11:20:14.197: 8=FIX.4.4|9=73|35=0|34=12|49=ARBv8_EQUITY_NYS_BCS|52=20150520-11:20:14.197|56=MAMA_NYSE|10=014|
20150520-11:21:14.197: 8=FIX.4.4|9=73|35=0|34=13|49=ARBv8_EQUITY_NYS_BCS|52=20150520-11:21:14.197|56=MAMA_NYSE|10=016|
20150520-11:21:14.201: 8=FIX.4.4|9=73|35=0|34=13|49=MAMA_NYSE|52=20150520-11:21:14.199|56=ARBv8_EQUITY_NYS_BCS|10=018|
20150520-11:22:14.933: 8=FIX.4.4|9=73|35=0|34=14|49=MAMA_NYSE|52=20150520-11:22:14.931|56=ARBv8_EQUITY_NYS_BCS|10=014|
20150520-11:22:14.934: 8=FIX.4.4|9=73|35=0|34=14|49=ARBv8_EQUITY_NYS_BCS|52=20150520-11:22:14.934|56=MAMA_NYSE|10=017|
20150520-11:23:14.933: 8=FIX.4.4|9=73|35=0|34=15|49=MAMA_NYSE|52=20150520-11:23:14.931|56=ARBv8_EQUITY_NYS_BCS|10=016|
20150520-11:23:15.196: 8=FIX.4.4|9=73|35=0|34=15|49=ARBv8_EQUITY_NYS_BCS|52=20150520-11:23:15.196|56=MAMA_NYSE|10=020|
20150520-11:24:14.938: 8=FIX.4.4|9=73|35=0|34=16|49=MAMA_NYSE|52=20150520-11:24:14.932|56=ARBv8_EQUITY_NYS_BCS|10=019|
20150520-11:24:15.197: 8=FIX.4.4|9=73|35=0|34=16|49=ARBv8_EQUITY_NYS_BCS|52=20150520-11:24:15.197|56=MAMA_NYSE|10=023|
20150520-11:25:14.935: 8=FIX.4.4|9=73|35=0|34=17|49=MAMA_NYSE|52=20150520-11:25:14.932|56=ARBv8_EQUITY_NYS_BCS|10=021|
20150520-11:25:16.196: 8=FIX.4.4|9=73|35=0|34=17|49=ARBv8_EQUITY_NYS_BCS|52=20150520-11:25:16.196|56=MAMA_NYSE|10=025|
20150520-11:26:15.934: 8=FIX.4.4|9=73|35=0|34=18|49=MAMA_NYSE|52=20150520-11:26:15.932|56=ARBv8_EQUITY_NYS_BCS|10=024|
20150520-11:26:16.196: 8=FIX.4.4|9=73|35=0|34=18|49=ARBv8_EQUITY_NYS_BCS|52=20150520-11:26:16.196|56=MAMA_NYSE|10=027|
20150520-11:27:16.197: 8=FIX.4.4|9=73|35=0|34=19|49=ARBv8_EQUITY_NYS_BCS|52=20150520-11:27:16.197|56=MAMA_NYSE|10=030|
20150520-11:27:16.201: 8=FIX.4.4|9=73|35=0|34=19|49=MAMA_NYSE|52=20150520-11:27:16.198|56=ARBv8_EQUITY_NYS_BCS|10=031|
20150520-11:28:16.197: 8=FIX.4.4|9=73|35=0|34=20|49=ARBv8_EQUITY_NYS_BCS|52=20150520-11:28:16.197|56=MAMA_NYSE|10=023|
20150520-11:28:16.200: 8=FIX.4.4|9=73|35=0|34=20|49=MAMA_NYSE|52=20150520-11:28:16.199|56=ARBv8_EQUITY_NYS_BCS|10=025|
20150520-11:29:16.197: 8=FIX.4.4|9=73|35=0|34=21|49=ARBv8_EQUITY_NYS_BCS|52=20150520-11:29:16.197|56=MAMA_NYSE|10=025|
20150520-11:29:16.934: 8=FIX.4.4|9=73|35=0|34=21|49=MAMA_NYSE|52=20150520-11:29:16.932|56=ARBv8_EQUITY_NYS_BCS|10=022|
20150520-11:30:16.197: 8=FIX.4.4|9=73|35=0|34=22|49=ARBv8_EQUITY_NYS_BCS|52=20150520-11:30:16.197|56=MAMA_NYSE|10=018|
20150520-11:30:17.934: 8=FIX.4.4|9=73|35=0|34=22|49=MAMA_NYSE|52=20150520-11:30:17.931|56=ARBv8_EQUITY_NYS_BCS|10=015|
20150520-11:31:17.200: 8=FIX.4.4|9=73|35=0|34=23|49=ARBv8_EQUITY_NYS_BCS|52=20150520-11:31:17.196|56=MAMA_NYSE|10=020|
20150520-11:31:17.933: 8=FIX.4.4|9=73|35=0|34=23|49=MAMA_NYSE|52=20150520-11:31:17.931|56=ARBv8_EQUITY_NYS_BCS|10=017|
20150520-11:32:17.197: 8=FIX.4.4|9=73|35=0|34=24|49=ARBv8_EQUITY_NYS_BCS|52=20150520-11:32:17.197|56=MAMA_NYSE|10=023|
20150520-11:32:17.936: 8=FIX.4.4|9=73|35=0|34=24|49=MAMA_NYSE|52=20150520-11:32:17.931|56=ARBv8_EQUITY_NYS_BCS|10=019|
20150520-11:33:17.197: 8=FIX.4.4|9=73|35=0|34=25|49=ARBv8_EQUITY_NYS_BCS|52=20150520-11:33:17.197|56=MAMA_NYSE|10=025|
20150520-11:33:17.933: 8=FIX.4.4|9=73|35=0|34=25|49=MAMA_NYSE|52=20150520-11:33:17.932|56=ARBv8_EQUITY_NYS_BCS|10=022|
20150520-11:34:18.197: 8=FIX.4.4|9=73|35=0|34=26|49=ARBv8_EQUITY_NYS_BCS|52=20150520-11:34:18.197|56=MAMA_NYSE|10=028|
20150520-11:34:18.200: 8=FIX.4.4|9=73|35=0|34=26|49=MAMA_NYSE|52=20150520-11:34:18.198|56=ARBv8_EQUITY_NYS_BCS|10=029|
20150520-11:35:18.197: 8=FIX.4.4|9=73|35=0|34=27|49=ARBv8_EQUITY_NYS_BCS|52=20150520-11:35:18.197|56=MAMA_NYSE|10=030|
20150520-11:35:18.200: 8=FIX.4.4|9=73|35=0|34=27|49=MAMA_NYSE|52=20150520-11:35:18.199|56=ARBv8_EQUITY_NYS_BCS|10=032|
20150520-11:36:18.933: 8=FIX.4.4|9=73|35=0|34=28|49=MAMA_NYSE|52=20150520-11:36:18.931|56=ARBv8_EQUITY_NYS_BCS|10=028|
20150520-11:36:18.933: 8=FIX.4.4|9=73|35=0|34=28|49=ARBv8_EQUITY_NYS_BCS|52=20150520-11:36:18.933|56=MAMA_NYSE|10=030|
20150520-11:37:18.932: 8=FIX.4.4|9=73|35=0|34=29|49=MAMA_NYSE|52=20150520-11:37:18.931|56=ARBv8_EQUITY_NYS_BCS|10=030|
20150520-11:37:18.933: 8=FIX.4.4|9=73|35=0|34=29|49=ARBv8_EQUITY_NYS_BCS|52=20150520-11:37:18.933|56=MAMA_NYSE|10=032|
20150520-11:38:18.933: 8=FIX.4.4|9=73|35=0|34=30|49=MAMA_NYSE|52=20150520-11:38:18.932|56=ARBv8_EQUITY_NYS_BCS|10=024|
20150520-11:38:18.933: 8=FIX.4.4|9=73|35=0|34=30|49=ARBv8_EQUITY_NYS_BCS|52=20150520-11:38:18.933|56=MAMA_NYSE|10=025|
20150520-11:39:19.197: 8=FIX.4.4|9=73|35=0|34=31|49=ARBv8_EQUITY_NYS_BCS|52=20150520-11:39:19.197|56=MAMA_NYSE|10=030|
20150520-11:39:19.200: 8=FIX.4.4|9=73|35=0|34=31|49=MAMA_NYSE|52=20150520-11:39:19.199|56=ARBv8_EQUITY_NYS_BCS|10=032|
20150520-11:40:19.933: 8=FIX.4.4|9=73|35=0|34=32|49=MAMA_NYSE|52=20150520-11:40:19.931|56=ARBv8_EQUITY_NYS_BCS|10=019|
20150520-11:40:19.933: 8=FIX.4.4|9=73|35=0|34=32|49=ARBv8_EQUITY_NYS_BCS|52=20150520-11:40:19.933|56=MAMA_NYSE|10=021|
20150520-11:41:19.933: 8=FIX.4.4|9=73|35=0|34=33|49=MAMA_NYSE|52=20150520-11:41:19.932|56=ARBv8_EQUITY_NYS_BCS|10=022|
20150520-11:41:19.934: 8=FIX.4.4|9=73|35=0|34=33|49=ARBv8_EQUITY_NYS_BCS|52=20150520-11:41:19.934|56=MAMA_NYSE|10=024|
20150520-11:42:20.196: 8=FIX.4.4|9=73|35=0|34=34|49=ARBv8_EQUITY_NYS_BCS|52=20150520-11:42:20.196|56=MAMA_NYSE|10=018|
20150520-11:42:20.199: 8=FIX.4.4|9=73|35=0|34=34|49=MAMA_NYSE|52=20150520-11:42:20.198|56=ARBv8_EQUITY_NYS_BCS|10=020|
20150520-11:43:20.196: 8=FIX.4.4|9=73|35=0|34=35|49=ARBv8_EQUITY_NYS_BCS|52=20150520-11:43:20.196|56=MAMA_NYSE|10=020|
20150520-11:43:20.199: 8=FIX.4.4|9=73|35=0|34=35|49=MAMA_NYSE|52=20150520-11:43:20.198|56=ARBv8_EQUITY_NYS_BCS|10=022|
20150520-11:44:20.197: 8=FIX.4.4|9=73|35=0|34=36|49=ARBv8_EQUITY_NYS_BCS|52=20150520-11:44:20.196|56=MAMA_NYSE|10=022|
20150520-11:44:20.199: 8=FIX.4.4|9=73|35=0|34=36|49=MAMA_NYSE|52=20150520-11:44:20.198|56=ARBv8_EQUITY_NYS_BCS|10=024|
20150520-11:45:20.196: 8=FIX.4.4|9=73|35=0|34=37|49=ARBv8_EQUITY_NYS_BCS|52=20150520-11:45:20.196|56=MAMA_NYSE|10=024|
20150520-11:45:20.933: 8=FIX.4.4|9=73|35=0|34=37|49=MAMA_NYSE|52=20150520-11:45:20.932|56=ARBv8_EQUITY_NYS_BCS|10=022|
20150520-11:46:20.196: 8=FIX.4.4|9=73|35=0|34=38|49=ARBv8_EQUITY_NYS_BCS|52=20150520-11:46:20.196|56=MAMA_NYSE|10=026|
20150520-11:46:21.932: 8=FIX.4.4|9=73|35=0|34=38|49=MAMA_NYSE|52=20150520-11:46:21.931|56=ARBv8_EQUITY_NYS_BCS|10=024|
20150520-11:47:20.197: 8=FIX.4.4|9=73|35=0|34=39|49=ARBv8_EQUITY_NYS_BCS|52=20150520-11:47:20.197|56=MAMA_NYSE|10=029|
20150520-11:47:21.933: 8=FIX.4.4|9=73|35=0|34=39|49=MAMA_NYSE|52=20150520-11:47:21.932|56=ARBv8_EQUITY_NYS_BCS|10=027|
20150520-11:48:20.197: 8=FIX.4.4|9=73|35=0|34=40|49=ARBv8_EQUITY_NYS_BCS|52=20150520-11:48:20.197|56=MAMA_NYSE|10=022|
20150520-11:48:21.933: 8=FIX.4.4|9=73|35=0|34=40|49=MAMA_NYSE|52=20150520-11:48:21.932|56=ARBv8_EQUITY_NYS_BCS|10=020|
20150520-11:49:20.197: 8=FIX.4.4|9=73|35=0|34=41|49=ARBv8_EQUITY_NYS_BCS|52=20150520-11:49:20.197|56=MAMA_NYSE|10=024|
20150520-11:49:21.936: 8=FIX.4.4|9=73|35=0|34=41|49=MAMA_NYSE|52=20150520-11:49:21.932|56=ARBv8_EQUITY_NYS_BCS|10=022|
20150520-11:50:21.197: 8=FIX.4.4|9=73|35=0|34=42|49=ARBv8_EQUITY_NYS_BCS|52=20150520-11:50:21.196|56=MAMA_NYSE|10=017|
20150520-11:50:22.935: 8=FIX.4.4|9=73|35=0|34=42|49=MAMA_NYSE|52=20150520-11:50:22.932|56=ARBv8_EQUITY_NYS_BCS|10=016|
20150520-11:51:21.197: 8=FIX.4.4|9=73|35=0|34=43|49=ARBv8_EQUITY_NYS_BCS|52=20150520-11:51:21.197|56=MAMA_NYSE|10=020|
20150520-11:51:22.933: 8=FIX.4.4|9=73|35=0|34=43|49=MAMA_NYSE|52=20150520-11:51:22.932|56=ARBv8_EQUITY_NYS_BCS|10=018|
20150520-11:52:21.197: 8=FIX.4.4|9=73|35=0|34=44|49=ARBv8_EQUITY_NYS_BCS|52=20150520-11:52:21.197|56=MAMA_NYSE|10=022|
20150520-11:52:23.933: 8=FIX.4.4|9=73|35=0|34=44|49=MAMA_NYSE|52=20150520-11:52:23.931|56=ARBv8_EQUITY_NYS_BCS|10=020|
20150520-11:53:21.197: 8=FIX.4.4|9=73|35=0|34=45|49=ARBv8_EQUITY_NYS_BCS|52=20150520-11:53:21.197|56=MAMA_NYSE|10=024|
20150520-11:53:23.932: 8=FIX.4.4|9=73|35=0|34=45|49=MAMA_NYSE|52=20150520-11:53:23.931|56=ARBv8_EQUITY_NYS_BCS|10=022|
20150520-11:54:21.197: 8=FIX.4.4|9=73|35=0|34=46|49=ARBv8_EQUITY_NYS_BCS|52=20150520-11:54:21.197|56=MAMA_NYSE|10=026|
20150520-11:54:23.933: 8=FIX.4.4|9=73|35=0|34=46|49=MAMA_NYSE|52=20150520-11:54:23.931|56=ARBv8_EQUITY_NYS_BCS|10=024|
20150520-11:55:22.197: 8=FIX.4.4|9=73|35=0|34=47|49=ARBv8_EQUITY_NYS_BCS|52=20150520-11:55:22.197|56=MAMA_NYSE|10=029|
20150520-11:55:23.939: 8=FIX.4.4|9=73|35=0|34=47|49=MAMA_NYSE|52=20150520-11:55:23.931|56=ARBv8_EQUITY_NYS_BCS|10=026|
20150520-11:56:23.196: 8=FIX.4.4|9=73|35=0|34=48|49=ARBv8_EQUITY_NYS_BCS|52=20150520-11:56:23.196|56=MAMA_NYSE|10=031|
20150520-11:56:23.932: 8=FIX.4.4|9=73|35=0|34=48|49=MAMA_NYSE|52=20150520-11:56:23.931|56=ARBv8_EQUITY_NYS_BCS|10=028|
20150520-11:57:23.197: 8=FIX.4.4|9=73|35=0|34=49|49=ARBv8_EQUITY_NYS_BCS|52=20150520-11:57:23.197|56=MAMA_NYSE|10=034|
20150520-11:57:23.937: 8=FIX.4.4|9=73|35=0|34=49|49=MAMA_NYSE|52=20150520-11:57:23.932|56=ARBv8_EQUITY_NYS_BCS|10=031|
20150520-11:58:23.197: 8=FIX.4.4|9=73|35=0|34=50|49=ARBv8_EQUITY_NYS_BCS|52=20150520-11:58:23.197|56=MAMA_NYSE|10=027|
20150520-11:58:24.933: 8=FIX.4.4|9=73|35=0|34=50|49=MAMA_NYSE|52=20150520-11:58:24.931|56=ARBv8_EQUITY_NYS_BCS|10=024|
20150520-11:59:23.197: 8=FIX.4.4|9=73|35=0|34=51|49=ARBv8_EQUITY_NYS_BCS|52=20150520-11:59:23.197|56=MAMA_NYSE|10=029|
20150520-11:59:24.932: 8=FIX.4.4|9=73|35=0|34=51|49=MAMA_NYSE|52=20150520-11:59:24.931|56=ARBv8_EQUITY_NYS_BCS|10=026|
20150520-12:00:23.197: 8=FIX.4.4|9=73|35=0|34=52|49=ARBv8_EQUITY_NYS_BCS|52=20150520-12:00:23.197|56=MAMA_NYSE|10=017|
20150520-12:00:24.933: 8=FIX.4.4|9=73|35=0|34=52|49=MAMA_NYSE|52=20150520-12:00:24.932|56=ARBv8_EQUITY_NYS_BCS|10=015|
20150520-12:01:24.197: 8=FIX.4.4|9=73|35=0|34=53|49=ARBv8_EQUITY_NYS_BCS|52=20150520-12:01:24.197|56=MAMA_NYSE|10=020|
20150520-12:01:24.933: 8=FIX.4.4|9=73|35=0|34=53|49=MAMA_NYSE|52=20150520-12:01:24.932|56=ARBv8_EQUITY_NYS_BCS|10=017|
20150520-12:02:24.197: 8=FIX.4.4|9=73|35=0|34=54|49=ARBv8_EQUITY_NYS_BCS|52=20150520-12:02:24.197|56=MAMA_NYSE|10=022|
20150520-12:02:25.933: 8=FIX.4.4|9=73|35=0|34=54|49=MAMA_NYSE|52=20150520-12:02:25.932|56=ARBv8_EQUITY_NYS_BCS|10=020|
20150520-12:03:25.196: 8=FIX.4.4|9=73|35=0|34=55|49=ARBv8_EQUITY_NYS_BCS|52=20150520-12:03:25.196|56=MAMA_NYSE|10=024|
20150520-12:03:25.933: 8=FIX.4.4|9=73|35=0|34=55|49=MAMA_NYSE|52=20150520-12:03:25.932|56=ARBv8_EQUITY_NYS_BCS|10=022|
20150520-12:04:25.196: 8=FIX.4.4|9=73|35=0|34=56|49=ARBv8_EQUITY_NYS_BCS|52=20150520-12:04:25.196|56=MAMA_NYSE|10=026|
20150520-12:04:26.932: 8=FIX.4.4|9=73|35=0|34=56|49=MAMA_NYSE|52=20150520-12:04:26.932|56=ARBv8_EQUITY_NYS_BCS|10=025|
20150520-12:05:25.197: 8=FIX.4.4|9=73|35=0|34=57|49=ARBv8_EQUITY_NYS_BCS|52=20150520-12:05:25.197|56=MAMA_NYSE|10=029|
20150520-12:05:26.932: 8=FIX.4.4|9=73|35=0|34=57|49=MAMA_NYSE|52=20150520-12:05:26.931|56=ARBv8_EQUITY_NYS_BCS|10=026|
20150520-12:06:26.197: 8=FIX.4.4|9=73|35=0|34=58|49=ARBv8_EQUITY_NYS_BCS|52=20150520-12:06:26.197|56=MAMA_NYSE|10=032|
20150520-12:06:26.932: 8=FIX.4.4|9=73|35=0|34=58|49=MAMA_NYSE|52=20150520-12:06:26.931|56=ARBv8_EQUITY_NYS_BCS|10=028|
20150520-12:07:26.932: 8=FIX.4.4|9=73|35=0|34=59|49=MAMA_NYSE|52=20150520-12:07:26.932|56=ARBv8_EQUITY_NYS_BCS|10=031|
20150520-12:07:26.933: 8=FIX.4.4|9=73|35=0|34=59|49=ARBv8_EQUITY_NYS_BCS|52=20150520-12:07:26.933|56=MAMA_NYSE|10=032|
20150520-12:08:27.197: 8=FIX.4.4|9=73|35=0|34=60|49=ARBv8_EQUITY_NYS_BCS|52=20150520-12:08:27.197|56=MAMA_NYSE|10=028|
20150520-12:08:27.199: 8=FIX.4.4|9=73|35=0|34=60|49=MAMA_NYSE|52=20150520-12:08:27.198|56=ARBv8_EQUITY_NYS_BCS|10=029|
20150520-12:09:27.197: 8=FIX.4.4|9=73|35=0|34=61|49=ARBv8_EQUITY_NYS_BCS|52=20150520-12:09:27.197|56=MAMA_NYSE|10=030|
20150520-12:09:27.199: 8=FIX.4.4|9=73|35=0|34=61|49=MAMA_NYSE|52=20150520-12:09:27.199|56=ARBv8_EQUITY_NYS_BCS|10=032|
20150520-12:10:27.197: 8=FIX.4.4|9=73|35=0|34=62|49=ARBv8_EQUITY_NYS_BCS|52=20150520-12:10:27.197|56=MAMA_NYSE|10=023|
20150520-12:10:27.932: 8=FIX.4.4|9=73|35=0|34=62|49=MAMA_NYSE|52=20150520-12:10:27.932|56=ARBv8_EQUITY_NYS_BCS|10=020|
20150520-12:11:27.932: 8=FIX.4.4|9=73|35=0|34=63|49=MAMA_NYSE|52=20150520-12:11:27.932|56=ARBv8_EQUITY_NYS_BCS|10=022|
20150520-12:11:27.933: 8=FIX.4.4|9=73|35=0|34=63|49=ARBv8_EQUITY_NYS_BCS|52=20150520-12:11:27.933|56=MAMA_NYSE|10=023|
20150520-12:12:27.932: 8=FIX.4.4|9=73|35=0|34=64|49=MAMA_NYSE|52=20150520-12:12:27.932|56=ARBv8_EQUITY_NYS_BCS|10=024|
20150520-12:12:27.933: 8=FIX.4.4|9=73|35=0|34=64|49=ARBv8_EQUITY_NYS_BCS|52=20150520-12:12:27.933|56=MAMA_NYSE|10=025|
20150520-12:13:27.932: 8=FIX.4.4|9=73|35=0|34=65|49=MAMA_NYSE|52=20150520-12:13:27.932|56=ARBv8_EQUITY_NYS_BCS|10=026|
20150520-12:13:27.933: 8=FIX.4.4|9=73|35=0|34=65|49=ARBv8_EQUITY_NYS_BCS|52=20150520-12:13:27.933|56=MAMA_NYSE|10=027|
20150520-12:14:28.196: 8=FIX.4.4|9=73|35=0|34=66|49=ARBv8_EQUITY_NYS_BCS|52=20150520-12:14:28.196|56=MAMA_NYSE|10=031|
20150520-12:14:28.199: 8=FIX.4.4|9=73|35=0|34=66|49=MAMA_NYSE|52=20150520-12:14:28.199|56=ARBv8_EQUITY_NYS_BCS|10=034|
20150520-12:15:28.197: 8=FIX.4.4|9=73|35=0|34=67|49=ARBv8_EQUITY_NYS_BCS|52=20150520-12:15:28.196|56=MAMA_NYSE|10=033|
20150520-12:15:28.199: 8=FIX.4.4|9=73|35=0|34=67|49=MAMA_NYSE|52=20150520-12:15:28.199|56=ARBv8_EQUITY_NYS_BCS|10=036|
20150520-12:16:28.196: 8=FIX.4.4|9=73|35=0|34=68|49=ARBv8_EQUITY_NYS_BCS|52=20150520-12:16:28.196|56=MAMA_NYSE|10=035|
20150520-12:16:28.199: 8=FIX.4.4|9=73|35=0|34=68|49=MAMA_NYSE|52=20150520-12:16:28.199|56=ARBv8_EQUITY_NYS_BCS|10=038|
20150520-12:17:28.197: 8=FIX.4.4|9=73|35=0|34=69|49=ARBv8_EQUITY_NYS_BCS|52=20150520-12:17:28.196|56=MAMA_NYSE|10=037|
20150520-12:17:28.199: 8=FIX.4.4|9=73|35=0|34=69|49=MAMA_NYSE|52=20150520-12:17:28.199|56=ARBv8_EQUITY_NYS_BCS|10=040|
20150520-12:18:28.197: 8=FIX.4.4|9=73|35=0|34=70|49=ARBv8_EQUITY_NYS_BCS|52=20150520-12:18:28.197|56=MAMA_NYSE|10=031|
20150520-12:18:28.199: 8=FIX.4.4|9=73|35=0|34=70|49=MAMA_NYSE|52=20150520-12:18:28.199|56=ARBv8_EQUITY_NYS_BCS|10=033|
20150520-12:19:28.197: 8=FIX.4.4|9=73|35=0|34=71|49=ARBv8_EQUITY_NYS_BCS|52=20150520-12:19:28.197|56=MAMA_NYSE|10=033|
20150520-12:19:28.200: 8=FIX.4.4|9=73|35=0|34=71|49=MAMA_NYSE|52=20150520-12:19:28.199|56=ARBv8_EQUITY_NYS_BCS|10=035|
20150520-12:20:28.932: 8=FIX.4.4|9=73|35=0|34=72|49=MAMA_NYSE|52=20150520-12:20:28.931|56=ARBv8_EQUITY_NYS_BCS|10=022|
20150520-12:20:28.933: 8=FIX.4.4|9=73|35=0|34=72|49=ARBv8_EQUITY_NYS_BCS|52=20150520-12:20:28.933|56=MAMA_NYSE|10=024|
20150520-12:21:28.935: 8=FIX.4.4|9=73|35=0|34=73|49=MAMA_NYSE|52=20150520-12:21:28.931|56=ARBv8_EQUITY_NYS_BCS|10=024|
20150520-12:21:28.935: 8=FIX.4.4|9=73|35=0|34=73|49=ARBv8_EQUITY_NYS_BCS|52=20150520-12:21:28.935|56=MAMA_NYSE|10=028|
20150520-12:22:28.933: 8=FIX.4.4|9=73|35=0|34=74|49=MAMA_NYSE|52=20150520-12:22:28.931|56=ARBv8_EQUITY_NYS_BCS|10=026|
20150520-12:22:29.196: 8=FIX.4.4|9=73|35=0|34=74|49=ARBv8_EQUITY_NYS_BCS|52=20150520-12:22:29.196|56=MAMA_NYSE|10=030|
20150520-12:23:28.933: 8=FIX.4.4|9=73|35=0|34=75|49=MAMA_NYSE|52=20150520-12:23:28.932|56=ARBv8_EQUITY_NYS_BCS|10=029|
20150520-12:23:29.196: 8=FIX.4.4|9=73|35=0|34=75|49=ARBv8_EQUITY_NYS_BCS|52=20150520-12:23:29.196|56=MAMA_NYSE|10=032|
20150520-12:24:29.197: 8=FIX.4.4|9=73|35=0|34=76|49=ARBv8_EQUITY_NYS_BCS|52=20150520-12:24:29.197|56=MAMA_NYSE|10=035|
20150520-12:24:29.205: 8=FIX.4.4|9=73|35=0|34=76|49=MAMA_NYSE|52=20150520-12:24:29.199|56=ARBv8_EQUITY_NYS_BCS|10=037|
20150520-12:25:29.197: 8=FIX.4.4|9=73|35=0|34=77|49=ARBv8_EQUITY_NYS_BCS|52=20150520-12:25:29.197|56=MAMA_NYSE|10=037|
20150520-12:25:29.201: 8=FIX.4.4|9=73|35=0|34=77|49=MAMA_NYSE|52=20150520-12:25:29.200|56=ARBv8_EQUITY_NYS_BCS|10=022|
20150520-12:26:29.932: 8=FIX.4.4|9=73|35=0|34=78|49=MAMA_NYSE|52=20150520-12:26:29.932|56=ARBv8_EQUITY_NYS_BCS|10=036|
20150520-12:26:29.933: 8=FIX.4.4|9=73|35=0|34=78|49=ARBv8_EQUITY_NYS_BCS|52=20150520-12:26:29.933|56=MAMA_NYSE|10=037|
20150520-12:27:30.196: 8=FIX.4.4|9=73|35=0|34=79|49=ARBv8_EQUITY_NYS_BCS|52=20150520-12:27:30.196|56=MAMA_NYSE|10=032|
20150520-12:27:30.200: 8=FIX.4.4|9=73|35=0|34=79|49=MAMA_NYSE|52=20150520-12:27:30.199|56=ARBv8_EQUITY_NYS_BCS|10=035|
20150520-12:28:30.196: 8=FIX.4.4|9=73|35=0|34=80|49=ARBv8_EQUITY_NYS_BCS|52=20150520-12:28:30.196|56=MAMA_NYSE|10=025|
20150520-12:28:30.932: 8=FIX.4.4|9=73|35=0|34=80|49=MAMA_NYSE|52=20150520-12:28:30.931|56=ARBv8_EQUITY_NYS_BCS|10=022|
20150520-12:29:30.196: 8=FIX.4.4|9=73|35=0|34=81|49=ARBv8_EQUITY_NYS_BCS|52=20150520-12:29:30.196|56=MAMA_NYSE|10=027|
20150520-12:29:30.933: 8=FIX.4.4|9=73|35=0|34=81|49=MAMA_NYSE|52=20150520-12:29:30.932|56=ARBv8_EQUITY_NYS_BCS|10=025|
20150520-12:30:30.197: 8=FIX.4.4|9=73|35=0|34=82|49=ARBv8_EQUITY_NYS_BCS|52=20150520-12:30:30.197|56=MAMA_NYSE|10=021|
20150520-12:30:31.932: 8=FIX.4.4|9=73|35=0|34=82|49=MAMA_NYSE|52=20150520-12:30:31.931|56=ARBv8_EQUITY_NYS_BCS|10=018|
20150520-12:31:31.197: 8=FIX.4.4|9=73|35=0|34=83|49=ARBv8_EQUITY_NYS_BCS|52=20150520-12:31:31.197|56=MAMA_NYSE|10=024|
20150520-12:31:31.937: 8=FIX.4.4|9=73|35=0|34=83|49=MAMA_NYSE|52=20150520-12:31:31.931|56=ARBv8_EQUITY_NYS_BCS|10=020|
20150520-12:32:31.197: 8=FIX.4.4|9=73|35=0|34=84|49=ARBv8_EQUITY_NYS_BCS|52=20150520-12:32:31.197|56=MAMA_NYSE|10=026|
20150520-12:32:31.932: 8=FIX.4.4|9=73|35=0|34=84|49=MAMA_NYSE|52=20150520-12:32:31.931|56=ARBv8_EQUITY_NYS_BCS|10=022|
20150520-12:33:31.933: 8=FIX.4.4|9=73|35=0|34=85|49=MAMA_NYSE|52=20150520-12:33:31.931|56=ARBv8_EQUITY_NYS_BCS|10=024|
20150520-12:33:31.933: 8=FIX.4.4|9=73|35=0|34=85|49=ARBv8_EQUITY_NYS_BCS|52=20150520-12:33:31.933|56=MAMA_NYSE|10=026|
20150520-12:34:31.940: 8=FIX.4.4|9=73|35=0|34=86|49=MAMA_NYSE|52=20150520-12:34:31.931|56=ARBv8_EQUITY_NYS_BCS|10=026|
20150520-12:34:31.940: 8=FIX.4.4|9=73|35=0|34=86|49=ARBv8_EQUITY_NYS_BCS|52=20150520-12:34:31.940|56=MAMA_NYSE|10=026|
20150520-12:35:31.932: 8=FIX.4.4|9=73|35=0|34=87|49=MAMA_NYSE|52=20150520-12:35:31.932|56=ARBv8_EQUITY_NYS_BCS|10=029|
20150520-12:35:32.196: 8=FIX.4.4|9=73|35=0|34=87|49=ARBv8_EQUITY_NYS_BCS|52=20150520-12:35:32.196|56=MAMA_NYSE|10=032|
20150520-12:36:31.932: 8=FIX.4.4|9=73|35=0|34=88|49=MAMA_NYSE|52=20150520-12:36:31.932|56=ARBv8_EQUITY_NYS_BCS|10=031|
20150520-12:36:32.196: 8=FIX.4.4|9=73|35=0|34=88|49=ARBv8_EQUITY_NYS_BCS|52=20150520-12:36:32.196|56=MAMA_NYSE|10=034|
20150520-12:37:31.933: 8=FIX.4.4|9=73|35=0|34=89|49=MAMA_NYSE|52=20150520-12:37:31.932|56=ARBv8_EQUITY_NYS_BCS|10=033|
20150520-12:37:32.196: 8=FIX.4.4|9=73|35=0|34=89|49=ARBv8_EQUITY_NYS_BCS|52=20150520-12:37:32.196|56=MAMA_NYSE|10=036|
20150520-12:38:31.932: 8=FIX.4.4|9=73|35=0|34=90|49=MAMA_NYSE|52=20150520-12:38:31.932|56=ARBv8_EQUITY_NYS_BCS|10=026|
20150520-12:38:32.197: 8=FIX.4.4|9=73|35=0|34=90|49=ARBv8_EQUITY_NYS_BCS|52=20150520-12:38:32.197|56=MAMA_NYSE|10=030|
20150520-12:39:31.934: 8=FIX.4.4|9=73|35=0|34=91|49=MAMA_NYSE|52=20150520-12:39:31.932|56=ARBv8_EQUITY_NYS_BCS|10=028|
20150520-12:39:32.197: 8=FIX.4.4|9=73|35=0|34=91|49=ARBv8_EQUITY_NYS_BCS|52=20150520-12:39:32.197|56=MAMA_NYSE|10=032|
20150520-12:40:32.199: 8=FIX.4.4|9=73|35=0|34=92|49=ARBv8_EQUITY_NYS_BCS|52=20150520-12:40:32.198|56=MAMA_NYSE|10=026|
20150520-12:40:32.204: 8=FIX.4.4|9=73|35=0|34=92|49=MAMA_NYSE|52=20150520-12:40:32.201|56=ARBv8_EQUITY_NYS_BCS|10=011|
20150520-12:41:32.938: 8=FIX.4.4|9=73|35=0|34=93|49=MAMA_NYSE|52=20150520-12:41:32.931|56=ARBv8_EQUITY_NYS_BCS|10=023|
20150520-12:41:32.938: 8=FIX.4.4|9=73|35=0|34=93|49=ARBv8_EQUITY_NYS_BCS|52=20150520-12:41:32.938|56=MAMA_NYSE|10=030|
20150520-12:42:32.931: 8=FIX.4.4|9=73|35=0|34=94|49=MAMA_NYSE|52=20150520-12:42:32.931|56=ARBv8_EQUITY_NYS_BCS|10=025|
20150520-12:42:33.197: 8=FIX.4.4|9=73|35=0|34=94|49=ARBv8_EQUITY_NYS_BCS|52=20150520-12:42:33.197|56=MAMA_NYSE|10=030|
20150520-12:43:32.932: 8=FIX.4.4|9=73|35=0|34=95|49=MAMA_NYSE|52=20150520-12:43:32.931|56=ARBv8_EQUITY_NYS_BCS|10=027|
20150520-12:43:33.197: 8=FIX.4.4|9=73|35=0|34=95|49=ARBv8_EQUITY_NYS_BCS|52=20150520-12:43:33.197|56=MAMA_NYSE|10=032|
20150520-12:44:32.933: 8=FIX.4.4|9=73|35=0|34=96|49=MAMA_NYSE|52=20150520-12:44:32.932|56=ARBv8_EQUITY_NYS_BCS|10=030|
20150520-12:44:33.197: 8=FIX.4.4|9=73|35=0|34=96|49=ARBv8_EQUITY_NYS_BCS|52=20150520-12:44:33.197|56=MAMA_NYSE|10=034|
20150520-12:45:33.933: 8=FIX.4.4|9=73|35=0|34=97|49=MAMA_NYSE|52=20150520-12:45:33.932|56=ARBv8_EQUITY_NYS_BCS|10=033|
20150520-12:45:33.933: 8=FIX.4.4|9=73|35=0|34=97|49=ARBv8_EQUITY_NYS_BCS|52=20150520-12:45:33.933|56=MAMA_NYSE|10=034|
20150520-12:46:34.197: 8=FIX.4.4|9=73|35=0|34=98|49=ARBv8_EQUITY_NYS_BCS|52=20150520-12:46:34.197|56=MAMA_NYSE|10=039|
20150520-12:46:34.200: 8=FIX.4.4|9=73|35=0|34=98|49=MAMA_NYSE|52=20150520-12:46:34.199|56=ARBv8_EQUITY_NYS_BCS|10=041|
20150520-12:47:34.932: 8=FIX.4.4|9=73|35=0|34=99|49=MAMA_NYSE|52=20150520-12:47:34.931|56=ARBv8_EQUITY_NYS_BCS|10=037|
20150520-12:47:34.932: 8=FIX.4.4|9=73|35=0|34=99|49=ARBv8_EQUITY_NYS_BCS|52=20150520-12:47:34.932|56=MAMA_NYSE|10=038|
20150520-12:48:34.933: 8=FIX.4.4|9=74|35=0|34=100|49=MAMA_NYSE|52=20150520-12:48:34.932|56=ARBv8_EQUITY_NYS_BCS|10=071|
20150520-12:48:34.934: 8=FIX.4.4|9=74|35=0|34=100|49=ARBv8_EQUITY_NYS_BCS|52=20150520-12:48:34.934|56=MAMA_NYSE|10=073|
20150520-12:49:35.196: 8=FIX.4.4|9=74|35=0|34=101|49=ARBv8_EQUITY_NYS_BCS|52=20150520-12:49:35.196|56=MAMA_NYSE|10=076|
20150520-12:49:35.200: 8=FIX.4.4|9=74|35=0|34=101|49=MAMA_NYSE|52=20150520-12:49:35.199|56=ARBv8_EQUITY_NYS_BCS|10=079|
20150520-12:50:35.196: 8=FIX.4.4|9=74|35=0|34=102|49=ARBv8_EQUITY_NYS_BCS|52=20150520-12:50:35.196|56=MAMA_NYSE|10=069|
20150520-12:50:35.932: 8=FIX.4.4|9=74|35=0|34=102|49=MAMA_NYSE|52=20150520-12:50:35.931|56=ARBv8_EQUITY_NYS_BCS|10=066|
20150520-12:51:35.196: 8=FIX.4.4|9=74|35=0|34=103|49=ARBv8_EQUITY_NYS_BCS|52=20150520-12:51:35.196|56=MAMA_NYSE|10=071|
20150520-12:51:35.933: 8=FIX.4.4|9=74|35=0|34=103|49=MAMA_NYSE|52=20150520-12:51:35.932|56=ARBv8_EQUITY_NYS_BCS|10=069|
20150520-12:52:35.196: 8=FIX.4.4|9=74|35=0|34=104|49=ARBv8_EQUITY_NYS_BCS|52=20150520-12:52:35.196|56=MAMA_NYSE|10=073|
20150520-12:52:35.932: 8=FIX.4.4|9=74|35=0|34=104|49=MAMA_NYSE|52=20150520-12:52:35.932|56=ARBv8_EQUITY_NYS_BCS|10=071|
20150520-12:53:35.197: 8=FIX.4.4|9=74|35=0|34=105|49=ARBv8_EQUITY_NYS_BCS|52=20150520-12:53:35.197|56=MAMA_NYSE|10=076|
20150520-12:53:35.932: 8=FIX.4.4|9=74|35=0|34=105|49=MAMA_NYSE|52=20150520-12:53:35.932|56=ARBv8_EQUITY_NYS_BCS|10=073|
20150520-12:54:35.197: 8=FIX.4.4|9=74|35=0|34=106|49=ARBv8_EQUITY_NYS_BCS|52=20150520-12:54:35.197|56=MAMA_NYSE|10=078|
20150520-12:54:35.932: 8=FIX.4.4|9=74|35=0|34=106|49=MAMA_NYSE|52=20150520-12:54:35.932|56=ARBv8_EQUITY_NYS_BCS|10=075|
20150520-12:55:35.933: 8=FIX.4.4|9=74|35=0|34=107|49=MAMA_NYSE|52=20150520-12:55:35.932|56=ARBv8_EQUITY_NYS_BCS|10=077|
20150520-12:55:35.934: 8=FIX.4.4|9=74|35=0|34=107|49=ARBv8_EQUITY_NYS_BCS|52=20150520-12:55:35.934|56=MAMA_NYSE|10=079|
20150520-12:56:35.933: 8=FIX.4.4|9=74|35=0|34=108|49=MAMA_NYSE|52=20150520-12:56:35.932|56=ARBv8_EQUITY_NYS_BCS|10=079|
20150520-12:56:36.197: 8=FIX.4.4|9=74|35=0|34=108|49=ARBv8_EQUITY_NYS_BCS|52=20150520-12:56:36.197|56=MAMA_NYSE|10=083|
20150520-12:57:36.197: 8=FIX.4.4|9=74|35=0|34=109|49=ARBv8_EQUITY_NYS_BCS|52=20150520-12:57:36.197|56=MAMA_NYSE|10=085|
20150520-12:57:36.199: 8=FIX.4.4|9=74|35=0|34=109|49=MAMA_NYSE|52=20150520-12:57:36.199|56=ARBv8_EQUITY_NYS_BCS|10=087|
20150520-12:58:36.197: 8=FIX.4.4|9=74|35=0|34=110|49=ARBv8_EQUITY_NYS_BCS|52=20150520-12:58:36.197|56=MAMA_NYSE|10=078|
20150520-12:58:36.199: 8=FIX.4.4|9=74|35=0|34=110|49=MAMA_NYSE|52=20150520-12:58:36.199|56=ARBv8_EQUITY_NYS_BCS|10=080|
20150520-12:59:36.197: 8=FIX.4.4|9=74|35=0|34=111|49=ARBv8_EQUITY_NYS_BCS|52=20150520-12:59:36.197|56=MAMA_NYSE|10=080|
20150520-12:59:36.199: 8=FIX.4.4|9=74|35=0|34=111|49=MAMA_NYSE|52=20150520-12:59:36.199|56=ARBv8_EQUITY_NYS_BCS|10=082|
20150520-13:00:36.932: 8=FIX.4.4|9=74|35=0|34=112|49=MAMA_NYSE|52=20150520-13:00:36.931|56=ARBv8_EQUITY_NYS_BCS|10=064|
20150520-13:00:36.933: 8=FIX.4.4|9=74|35=0|34=112|49=ARBv8_EQUITY_NYS_BCS|52=20150520-13:00:36.933|56=MAMA_NYSE|10=066|
20150520-13:01:10.268: 8=FIX.4.4|9=90|35=A|34=1|49=ARBv8_EQUITY_NYS_BCS|52=20150520-13:01:10.268|56=MAMA_NYSE|98=0|108=60|141=Y|10=049|
20150520-13:01:10.797: 8=FIX.4.4|9=90|35=A|34=1|49=MAMA_NYSE|52=20150520-13:01:10.794|56=ARBv8_EQUITY_NYS_BCS|98=0|108=60|141=Y|10=053|
20150520-13:02:11.196: 8=FIX.4.4|9=72|35=0|34=2|49=ARBv8_EQUITY_NYS_BCS|52=20150520-13:02:11.196|56=MAMA_NYSE|10=218|
20150520-13:02:11.199: 8=FIX.4.4|9=72|35=0|34=2|49=MAMA_NYSE|52=20150520-13:02:11.197|56=ARBv8_EQUITY_NYS_BCS|10=219|
20150520-13:02:15.549: 8=FIX.4.4|9=142|35=V|34=3|49=ARBv8_EQUITY_NYS_BCS|52=20150520-13:02:15.549|56=MAMA_NYSE|262=5035b80a96644e02|263=1|264=1|146=1|55=BCH|267=3|269=0|269=1|269=5|10=176|
20150520-13:02:15.550: 8=FIX.4.4|9=142|35=V|34=4|49=ARBv8_EQUITY_NYS_BCS|52=20150520-13:02:15.550|56=MAMA_NYSE|262=13b5ab61cb3a49ce|263=1|264=1|146=1|55=BCA|267=3|269=0|269=1|269=5|10=137|
20150520-13:02:15.550: 8=FIX.4.4|9=144|35=V|34=5|49=ARBv8_EQUITY_NYS_BCS|52=20150520-13:02:15.550|56=MAMA_NYSE|262=-44800fa3fd7fbff0|263=1|264=1|146=1|55=BSAC|267=3|269=0|269=1|269=5|10=024|
20150520-13:02:15.553: 8=FIX.4.4|9=141|35=V|34=6|49=ARBv8_EQUITY_NYS_BCS|52=20150520-13:02:15.553|56=MAMA_NYSE|262=-c0a36f17e8b8db|263=1|264=1|146=1|55=CCU|267=3|269=0|269=1|269=5|10=068|
20150520-13:02:15.556: 8=FIX.4.4|9=143|35=V|34=7|49=ARBv8_EQUITY_NYS_BCS|52=20150520-13:02:15.556|56=MAMA_NYSE|262=-7d33deb945bdb7c3|263=1|264=1|146=1|55=EOC|267=3|269=0|269=1|269=5|10=225|
20150520-13:02:15.558: 8=FIX.4.4|9=142|35=V|34=8|49=ARBv8_EQUITY_NYS_BCS|52=20150520-13:02:15.558|56=MAMA_NYSE|262=40e64565ed5f4639|263=1|264=1|146=1|55=ENI|267=3|269=0|269=1|269=5|10=005|
20150520-13:02:15.559: 8=FIX.4.4|9=178|35=W|34=3|49=MAMA_NYSE|52=20150520-13:02:15.557|56=ARBv8_EQUITY_NYS_BCS|55=BCH|262=5035b80a96644e02|268=3|269=0|270=53.21|271=100|290=1|269=1|270=702.7|271=100|290=1|269=5|270=0|10=045|
20150520-13:02:15.560: 8=FIX.4.4|9=143|35=V|34=9|49=ARBv8_EQUITY_NYS_BCS|52=20150520-13:02:15.560|56=MAMA_NYSE|262=2049392dd3f24dba|263=1|264=1|146=1|55=CNCO|267=3|269=0|269=1|269=5|10=149|
20150520-13:02:15.563: 8=FIX.4.4|9=143|35=V|34=10|49=ARBv8_EQUITY_NYS_BCS|52=20150520-13:02:15.562|56=MAMA_NYSE|262=5a195bee74234af7|263=1|264=1|146=1|55=LFL|267=3|269=0|269=1|269=5|10=130|
20150520-13:02:15.565: 8=FIX.4.4|9=144|35=V|34=11|49=ARBv8_EQUITY_NYS_BCS|52=20150520-13:02:15.565|56=MAMA_NYSE|262=-4d542c258f4ab153|263=1|264=1|146=1|55=VCO|267=3|269=0|269=1|269=5|10=134|
20150520-13:02:15.568: 8=FIX.4.4|9=177|35=W|34=4|49=MAMA_NYSE|52=20150520-13:02:15.565|56=ARBv8_EQUITY_NYS_BCS|55=BCA|262=13b5ab61cb3a49ce|268=3|269=0|270=14.99|271=300|290=1|269=1|270=21.5|271=700|290=1|269=5|270=0|10=232|
20150520-13:02:15.573: 8=FIX.4.4|9=180|35=W|34=5|49=MAMA_NYSE|52=20150520-13:02:15.572|56=ARBv8_EQUITY_NYS_BCS|55=BSAC|262=-44800fa3fd7fbff0|268=3|269=0|270=20.89|271=100|290=1|269=1|270=219.3|271=100|290=1|269=5|270=0|10=152|
20150520-13:02:15.578: 8=FIX.4.4|9=145|35=V|34=12|49=ARBv8_EQUITY_NYS_BCS|52=20150520-13:02:15.578|56=MAMA_NYSE|262=35e664b370374b76|263=1|264=1|146=1|55=AKO/B|267=3|269=0|269=1|269=5|10=110|
20150520-13:02:15.580: 8=FIX.4.4|9=144|35=V|34=13|49=ARBv8_EQUITY_NYS_BCS|52=20150520-13:02:15.579|56=MAMA_NYSE|262=-690e80b1511ebba8|263=1|264=1|146=1|55=SQM|267=3|269=0|269=1|269=5|10=195|
20150520-13:02:15.583: 8=FIX.4.4|9=177|35=W|34=6|49=MAMA_NYSE|52=20150520-13:02:15.579|56=ARBv8_EQUITY_NYS_BCS|55=CCU|262=-c0a36f17e8b8db|268=3|269=0|270=17.94|271=400|290=1|269=1|270=227.5|271=100|290=1|269=5|270=0|10=215|
20150520-13:02:15.585: 8=FIX.4.4|9=146|35=V|34=14|49=ARBv8_EQUITY_NYS_BCS|52=20150520-13:02:15.584|56=MAMA_NYSE|262=-5208b1faa69fb2b3|263=1|264=1|146=1|55=AKO/A|267=3|269=0|269=1|269=5|10=076|
20150520-13:02:15.595: 8=FIX.4.4|9=173|35=W|34=7|49=MAMA_NYSE|52=20150520-13:02:15.586|56=ARBv8_EQUITY_NYS_BCS|55=EOC|262=-7d33deb945bdb7c3|268=3|269=0|270=35|271=100|290=1|269=1|270=70|271=200|290=1|269=5|270=0|10=053|
20150520-13:02:15.597: 8=FIX.4.4|9=178|35=W|34=8|49=MAMA_NYSE|52=20150520-13:02:15.590|56=ARBv8_EQUITY_NYS_BCS|55=ENI|262=40e64565ed5f4639|268=3|269=0|270=17.78|271=100|290=1|269=1|270=177.8|271=100|290=1|269=5|270=0|10=146|
20150520-13:02:15.599: 8=FIX.4.4|9=172|35=W|34=9|49=MAMA_NYSE|52=20150520-13:02:15.593|56=ARBv8_EQUITY_NYS_BCS|55=CNCO|262=2049392dd3f24dba|268=3|269=0|270=0|271=0|290=1|269=1|270=8.5|271=2200|290=1|269=5|270=0|10=184|
20150520-13:02:15.600: 8=FIX.4.4|9=178|35=W|34=10|49=MAMA_NYSE|52=20150520-13:02:15.596|56=ARBv8_EQUITY_NYS_BCS|55=LFL|262=5a195bee74234af7|268=3|269=0|270=8.01|271=1000|290=1|269=1|270=9.18|271=300|290=1|269=5|270=0|10=216|
20150520-13:02:15.603: 8=FIX.4.4|9=177|35=W|34=11|49=MAMA_NYSE|52=20150520-13:02:15.601|56=ARBv8_EQUITY_NYS_BCS|55=VCO|262=-4d542c258f4ab153|268=3|269=0|270=36.32|271=800|290=1|269=1|270=43|271=500|290=1|269=5|270=0|10=111|
20150520-13:02:15.606: 8=FIX.4.4|9=169|35=W|34=12|49=MAMA_NYSE|52=20150520-13:02:15.604|56=ARBv8_EQUITY_NYS_BCS|55=AKO/B|262=35e664b370374b76|268=3|269=0|270=0|271=0|290=1|269=1|270=0|271=0|290=1|269=5|270=0|10=134|
20150520-13:02:15.610: 8=FIX.4.4|9=180|35=W|34=13|49=MAMA_NYSE|52=20150520-13:02:15.607|56=ARBv8_EQUITY_NYS_BCS|55=SQM|262=-690e80b1511ebba8|268=3|269=0|270=20.56|271=500|290=1|269=1|270=21.2|271=1000|290=1|269=5|270=0|10=043|
20150520-13:02:15.613: 8=FIX.4.4|9=170|35=W|34=14|49=MAMA_NYSE|52=20150520-13:02:15.611|56=ARBv8_EQUITY_NYS_BCS|55=AKO/A|262=-5208b1faa69fb2b3|268=3|269=0|270=0|271=0|290=1|269=1|270=0|271=0|290=1|269=5|270=0|10=092|
20150520-13:03:16.197: 8=FIX.4.4|9=73|35=0|34=15|49=MAMA_NYSE|52=20150520-13:03:16.195|56=ARBv8_EQUITY_NYS_BCS|10=020|
20150520-13:03:16.197: 8=FIX.4.4|9=73|35=0|34=15|49=ARBv8_EQUITY_NYS_BCS|52=20150520-13:03:16.197|56=MAMA_NYSE|10=022|
20150520-13:03:25.383: 8=FIX.4.4|9=143|35=V|34=16|49=ARBv8_EQUITY_NYS_BCS|52=20150520-13:03:25.382|56=MAMA_NYSE|262=5035b80a96644e02|263=2|264=1|146=1|55=BCH|267=3|269=0|269=1|269=5|10=227|
20150520-13:03:25.383: 8=FIX.4.4|9=143|35=V|34=17|49=ARBv8_EQUITY_NYS_BCS|52=20150520-13:03:25.383|56=MAMA_NYSE|262=13b5ab61cb3a49ce|263=2|264=1|146=1|55=BCA|267=3|269=0|269=1|269=5|10=197|
20150520-13:03:25.386: 8=FIX.4.4|9=145|35=V|34=18|49=ARBv8_EQUITY_NYS_BCS|52=20150520-13:03:25.386|56=MAMA_NYSE|262=-44800fa3fd7fbff0|263=2|264=1|146=1|55=BSAC|267=3|269=0|269=1|269=5|10=087|
20150520-13:03:25.391: 8=FIX.4.4|9=142|35=V|34=19|49=ARBv8_EQUITY_NYS_BCS|52=20150520-13:03:25.391|56=MAMA_NYSE|262=-c0a36f17e8b8db|263=2|264=1|146=1|55=CCU|267=3|269=0|269=1|269=5|10=124|
20150520-13:03:25.396: 8=FIX.4.4|9=144|35=V|34=20|49=ARBv8_EQUITY_NYS_BCS|52=20150520-13:03:25.396|56=MAMA_NYSE|262=-7d33deb945bdb7c3|263=2|264=1|146=1|55=EOC|267=3|269=0|269=1|269=5|10=018|
20150520-13:03:25.397: 8=FIX.4.4|9=143|35=V|34=21|49=ARBv8_EQUITY_NYS_BCS|52=20150520-13:03:25.397|56=MAMA_NYSE|262=40e64565ed5f4639|263=2|264=1|146=1|55=ENI|267=3|269=0|269=1|269=5|10=053|
20150520-13:03:25.400: 8=FIX.4.4|9=144|35=V|34=22|49=ARBv8_EQUITY_NYS_BCS|52=20150520-13:03:25.399|56=MAMA_NYSE|262=2049392dd3f24dba|263=2|264=1|146=1|55=CNCO|267=3|269=0|269=1|269=5|10=206|
20150520-13:03:25.407: 8=FIX.4.4|9=143|35=V|34=23|49=ARBv8_EQUITY_NYS_BCS|52=20150520-13:03:25.401|56=MAMA_NYSE|262=5a195bee74234af7|263=2|264=1|146=1|55=LFL|267=3|269=0|269=1|269=5|10=129|
20150520-13:03:25.407: 8=FIX.4.4|9=144|35=V|34=24|49=ARBv8_EQUITY_NYS_BCS|52=20150520-13:03:25.407|56=MAMA_NYSE|262=-4d542c258f4ab153|263=2|264=1|146=1|55=VCO|267=3|269=0|269=1|269=5|10=136|
20150520-13:03:25.408: 8=FIX.4.4|9=145|35=V|34=25|49=ARBv8_EQUITY_NYS_BCS|52=20150520-13:03:25.408|56=MAMA_NYSE|262=35e664b370374b76|263=2|264=1|146=1|55=AKO/B|267=3|269=0|269=1|269=5|10=109|
20150520-13:03:25.411: 8=FIX.4.4|9=144|35=V|34=26|49=ARBv8_EQUITY_NYS_BCS|52=20150520-13:03:25.411|56=MAMA_NYSE|262=-690e80b1511ebba8|263=2|264=1|146=1|55=SQM|267=3|269=0|269=1|269=5|10=187|
20150520-13:03:25.413: 8=FIX.4.4|9=146|35=V|34=27|49=ARBv8_EQUITY_NYS_BCS|52=20150520-13:03:25.413|56=MAMA_NYSE|262=-5208b1faa69fb2b3|263=2|264=1|146=1|55=AKO/A|267=3|269=0|269=1|269=5|10=074|
20150520-13:04:28.110: 8=FIX.4.4|9=90|35=A|34=1|49=ARBv8_EQUITY_NYS_BCS|52=20150520-13:04:28.110|56=MAMA_NYSE|98=0|108=60|141=Y|10=047|
20150520-13:04:28.155: 8=FIX.4.4|9=90|35=A|34=1|49=MAMA_NYSE|52=20150520-13:04:28.118|56=ARBv8_EQUITY_NYS_BCS|98=0|108=60|141=Y|10=055|
20150520-13:05:28.197: 8=FIX.4.4|9=72|35=0|34=2|49=MAMA_NYSE|52=20150520-13:05:28.195|56=ARBv8_EQUITY_NYS_BCS|10=228|
20150520-13:05:28.198: 8=FIX.4.4|9=72|35=0|34=2|49=ARBv8_EQUITY_NYS_BCS|52=20150520-13:05:28.198|56=MAMA_NYSE|10=231|
20150520-13:06:29.044: 8=FIX.4.4|9=72|35=0|34=3|49=ARBv8_EQUITY_NYS_BCS|52=20150520-13:06:29.044|56=MAMA_NYSE|10=224|
20150520-13:06:29.048: 8=FIX.4.4|9=72|35=0|34=3|49=MAMA_NYSE|52=20150520-13:06:29.047|56=ARBv8_EQUITY_NYS_BCS|10=227|
20150520-13:07:29.044: 8=FIX.4.4|9=72|35=0|34=4|49=ARBv8_EQUITY_NYS_BCS|52=20150520-13:07:29.044|56=MAMA_NYSE|10=226|
20150520-13:07:29.048: 8=FIX.4.4|9=72|35=0|34=4|49=MAMA_NYSE|52=20150520-13:07:29.047|56=ARBv8_EQUITY_NYS_BCS|10=229|
20150520-13:08:29.200: 8=FIX.4.4|9=72|35=0|34=5|49=MAMA_NYSE|52=20150520-13:08:29.194|56=ARBv8_EQUITY_NYS_BCS|10=234|
20150520-13:08:29.201: 8=FIX.4.4|9=72|35=0|34=5|49=ARBv8_EQUITY_NYS_BCS|52=20150520-13:08:29.201|56=MAMA_NYSE|10=223|
20150520-13:09:29.196: 8=FIX.4.4|9=72|35=0|34=6|49=MAMA_NYSE|52=20150520-13:09:29.194|56=ARBv8_EQUITY_NYS_BCS|10=236|
20150520-13:09:30.044: 8=FIX.4.4|9=72|35=0|34=6|49=ARBv8_EQUITY_NYS_BCS|52=20150520-13:09:30.044|56=MAMA_NYSE|10=222|
20150520-13:10:29.196: 8=FIX.4.4|9=72|35=0|34=7|49=MAMA_NYSE|52=20150520-13:10:29.194|56=ARBv8_EQUITY_NYS_BCS|10=229|
20150520-13:10:31.044: 8=FIX.4.4|9=72|35=0|34=7|49=ARBv8_EQUITY_NYS_BCS|52=20150520-13:10:31.044|56=MAMA_NYSE|10=216|
20150520-13:11:29.196: 8=FIX.4.4|9=72|35=0|34=8|49=MAMA_NYSE|52=20150520-13:11:29.194|56=ARBv8_EQUITY_NYS_BCS|10=231|
20150520-13:11:31.044: 8=FIX.4.4|9=72|35=0|34=8|49=ARBv8_EQUITY_NYS_BCS|52=20150520-13:11:31.044|56=MAMA_NYSE|10=218|
20150520-13:12:29.196: 8=FIX.4.4|9=72|35=0|34=9|49=MAMA_NYSE|52=20150520-13:12:29.194|56=ARBv8_EQUITY_NYS_BCS|10=233|
20150520-13:12:32.043: 8=FIX.4.4|9=72|35=0|34=9|49=ARBv8_EQUITY_NYS_BCS|52=20150520-13:12:32.043|56=MAMA_NYSE|10=220|
20150520-13:13:29.196: 8=FIX.4.4|9=73|35=0|34=10|49=MAMA_NYSE|52=20150520-13:13:29.194|56=ARBv8_EQUITY_NYS_BCS|10=019|
20150520-13:13:32.044: 8=FIX.4.4|9=73|35=0|34=10|49=ARBv8_EQUITY_NYS_BCS|52=20150520-13:13:32.044|56=MAMA_NYSE|10=007|
20150520-13:14:29.199: 8=FIX.4.4|9=73|35=0|34=11|49=MAMA_NYSE|52=20150520-13:14:29.195|56=ARBv8_EQUITY_NYS_BCS|10=022|
20150520-13:14:33.043: 8=FIX.4.4|9=73|35=0|34=11|49=ARBv8_EQUITY_NYS_BCS|52=20150520-13:14:33.043|56=MAMA_NYSE|10=009|
20150520-13:15:30.208: 8=FIX.4.4|9=73|35=0|34=12|49=MAMA_NYSE|52=20150520-13:15:30.194|56=ARBv8_EQUITY_NYS_BCS|10=015|
20150520-13:15:33.043: 8=FIX.4.4|9=73|35=0|34=12|49=ARBv8_EQUITY_NYS_BCS|52=20150520-13:15:33.043|56=MAMA_NYSE|10=011|
20150520-13:16:31.195: 8=FIX.4.4|9=73|35=0|34=13|49=MAMA_NYSE|52=20150520-13:16:31.194|56=ARBv8_EQUITY_NYS_BCS|10=018|
20150520-13:16:33.043: 8=FIX.4.4|9=73|35=0|34=13|49=ARBv8_EQUITY_NYS_BCS|52=20150520-13:16:33.043|56=MAMA_NYSE|10=013|
20150520-13:17:31.197: 8=FIX.4.4|9=73|35=0|34=14|49=MAMA_NYSE|52=20150520-13:17:31.195|56=ARBv8_EQUITY_NYS_BCS|10=021|
20150520-13:17:33.043: 8=FIX.4.4|9=73|35=0|34=14|49=ARBv8_EQUITY_NYS_BCS|52=20150520-13:17:33.043|56=MAMA_NYSE|10=015|
20150520-13:18:32.201: 8=FIX.4.4|9=73|35=0|34=15|49=MAMA_NYSE|52=20150520-13:18:32.195|56=ARBv8_EQUITY_NYS_BCS|10=024|
20150520-13:18:33.043: 8=FIX.4.4|9=73|35=0|34=15|49=ARBv8_EQUITY_NYS_BCS|52=20150520-13:18:33.043|56=MAMA_NYSE|10=017|
20150520-13:19:33.044: 8=FIX.4.4|9=73|35=0|34=16|49=ARBv8_EQUITY_NYS_BCS|52=20150520-13:19:33.043|56=MAMA_NYSE|10=019|
20150520-13:19:33.048: 8=FIX.4.4|9=73|35=0|34=16|49=MAMA_NYSE|52=20150520-13:19:33.046|56=ARBv8_EQUITY_NYS_BCS|10=022|
20150520-13:20:33.044: 8=FIX.4.4|9=73|35=0|34=17|49=ARBv8_EQUITY_NYS_BCS|52=20150520-13:20:33.044|56=MAMA_NYSE|10=013|
20150520-13:20:33.054: 8=FIX.4.4|9=73|35=0|34=17|49=MAMA_NYSE|52=20150520-13:20:33.047|56=ARBv8_EQUITY_NYS_BCS|10=016|
20150520-13:21:33.196: 8=FIX.4.4|9=73|35=0|34=18|49=MAMA_NYSE|52=20150520-13:21:33.195|56=ARBv8_EQUITY_NYS_BCS|10=022|
20150520-13:21:33.197: 8=FIX.4.4|9=73|35=0|34=18|49=ARBv8_EQUITY_NYS_BCS|52=20150520-13:21:33.197|56=MAMA_NYSE|10=024|
20150520-13:22:34.043: 8=FIX.4.4|9=73|35=0|34=19|49=ARBv8_EQUITY_NYS_BCS|52=20150520-13:22:34.043|56=MAMA_NYSE|10=017|
20150520-13:22:34.047: 8=FIX.4.4|9=73|35=0|34=19|49=MAMA_NYSE|52=20150520-13:22:34.045|56=ARBv8_EQUITY_NYS_BCS|10=019|
20150520-13:23:34.061: 8=FIX.4.4|9=73|35=0|34=20|49=ARBv8_EQUITY_NYS_BCS|52=20150520-13:23:34.061|56=MAMA_NYSE|10=010|
20150520-13:23:34.065: 8=FIX.4.4|9=73|35=0|34=20|49=MAMA_NYSE|52=20150520-13:23:34.064|56=ARBv8_EQUITY_NYS_BCS|10=013|
20150520-13:24:34.195: 8=FIX.4.4|9=73|35=0|34=21|49=MAMA_NYSE|52=20150520-13:24:34.194|56=ARBv8_EQUITY_NYS_BCS|10=019|
20150520-13:24:34.196: 8=FIX.4.4|9=73|35=0|34=21|49=ARBv8_EQUITY_NYS_BCS|52=20150520-13:24:34.196|56=MAMA_NYSE|10=021|
20150520-13:25:34.196: 8=FIX.4.4|9=73|35=0|34=22|49=MAMA_NYSE|52=20150520-13:25:34.194|56=ARBv8_EQUITY_NYS_BCS|10=021|
20150520-13:25:34.197: 8=FIX.4.4|9=73|35=0|34=22|49=ARBv8_EQUITY_NYS_BCS|52=20150520-13:25:34.197|56=MAMA_NYSE|10=024|
20150520-13:26:34.196: 8=FIX.4.4|9=73|35=0|34=23|49=MAMA_NYSE|52=20150520-13:26:34.195|56=ARBv8_EQUITY_NYS_BCS|10=024|
20150520-13:26:34.197: 8=FIX.4.4|9=73|35=0|34=23|49=ARBv8_EQUITY_NYS_BCS|52=20150520-13:26:34.197|56=MAMA_NYSE|10=026|
20150520-13:27:35.043: 8=FIX.4.4|9=73|35=0|34=24|49=ARBv8_EQUITY_NYS_BCS|52=20150520-13:27:35.043|56=MAMA_NYSE|10=019|
20150520-13:27:35.047: 8=FIX.4.4|9=73|35=0|34=24|49=MAMA_NYSE|52=20150520-13:27:35.045|56=ARBv8_EQUITY_NYS_BCS|10=021|
20150520-13:28:35.044: 8=FIX.4.4|9=73|35=0|34=25|49=ARBv8_EQUITY_NYS_BCS|52=20150520-13:28:35.044|56=MAMA_NYSE|10=022|
20150520-13:28:35.049: 8=FIX.4.4|9=73|35=0|34=25|49=MAMA_NYSE|52=20150520-13:28:35.046|56=ARBv8_EQUITY_NYS_BCS|10=024|
20150520-13:29:35.198: 8=FIX.4.4|9=73|35=0|34=26|49=MAMA_NYSE|52=20150520-13:29:35.194|56=ARBv8_EQUITY_NYS_BCS|10=030|
20150520-13:29:35.199: 8=FIX.4.4|9=73|35=0|34=26|49=ARBv8_EQUITY_NYS_BCS|52=20150520-13:29:35.199|56=MAMA_NYSE|10=035|
20150520-13:30:35.202: 8=FIX.4.4|9=73|35=0|34=27|49=MAMA_NYSE|52=20150520-13:30:35.195|56=ARBv8_EQUITY_NYS_BCS|10=024|
20150520-13:30:35.202: 8=FIX.4.4|9=73|35=0|34=27|49=ARBv8_EQUITY_NYS_BCS|52=20150520-13:30:35.202|56=MAMA_NYSE|10=013|
20150520-13:31:36.043: 8=FIX.4.4|9=73|35=0|34=28|49=ARBv8_EQUITY_NYS_BCS|52=20150520-13:31:36.043|56=MAMA_NYSE|10=019|
20150520-13:31:36.046: 8=FIX.4.4|9=73|35=0|34=28|49=MAMA_NYSE|52=20150520-13:31:36.045|56=ARBv8_EQUITY_NYS_BCS|10=021|
20150520-13:32:36.044: 8=FIX.4.4|9=73|35=0|34=29|49=ARBv8_EQUITY_NYS_BCS|52=20150520-13:32:36.043|56=MAMA_NYSE|10=021|
20150520-13:32:36.046: 8=FIX.4.4|9=73|35=0|34=29|49=MAMA_NYSE|52=20150520-13:32:36.045|56=ARBv8_EQUITY_NYS_BCS|10=023|
20150520-13:33:36.043: 8=FIX.4.4|9=73|35=0|34=30|49=ARBv8_EQUITY_NYS_BCS|52=20150520-13:33:36.043|56=MAMA_NYSE|10=014|
20150520-13:33:36.046: 8=FIX.4.4|9=73|35=0|34=30|49=MAMA_NYSE|52=20150520-13:33:36.045|56=ARBv8_EQUITY_NYS_BCS|10=016|
20150520-13:34:36.043: 8=FIX.4.4|9=73|35=0|34=31|49=ARBv8_EQUITY_NYS_BCS|52=20150520-13:34:36.043|56=MAMA_NYSE|10=016|
20150520-13:34:36.046: 8=FIX.4.4|9=73|35=0|34=31|49=MAMA_NYSE|52=20150520-13:34:36.045|56=ARBv8_EQUITY_NYS_BCS|10=018|
20150520-13:35:36.044: 8=FIX.4.4|9=73|35=0|34=32|49=ARBv8_EQUITY_NYS_BCS|52=20150520-13:35:36.044|56=MAMA_NYSE|10=019|
20150520-13:35:36.046: 8=FIX.4.4|9=73|35=0|34=32|49=MAMA_NYSE|52=20150520-13:35:36.045|56=ARBv8_EQUITY_NYS_BCS|10=020|
20150520-13:36:36.196: 8=FIX.4.4|9=73|35=0|34=33|49=MAMA_NYSE|52=20150520-13:36:36.194|56=ARBv8_EQUITY_NYS_BCS|10=027|
20150520-13:36:36.197: 8=FIX.4.4|9=73|35=0|34=33|49=ARBv8_EQUITY_NYS_BCS|52=20150520-13:36:36.197|56=MAMA_NYSE|10=030|
20150520-13:37:36.195: 8=FIX.4.4|9=73|35=0|34=34|49=MAMA_NYSE|52=20150520-13:37:36.194|56=ARBv8_EQUITY_NYS_BCS|10=029|
20150520-13:37:37.044: 8=FIX.4.4|9=73|35=0|34=34|49=ARBv8_EQUITY_NYS_BCS|52=20150520-13:37:37.044|56=MAMA_NYSE|10=024|
20150520-13:38:36.195: 8=FIX.4.4|9=73|35=0|34=35|49=MAMA_NYSE|52=20150520-13:38:36.194|56=ARBv8_EQUITY_NYS_BCS|10=031|
20150520-13:38:38.043: 8=FIX.4.4|9=73|35=0|34=35|49=ARBv8_EQUITY_NYS_BCS|52=20150520-13:38:38.043|56=MAMA_NYSE|10=026|
20150520-13:39:36.195: 8=FIX.4.4|9=73|35=0|34=36|49=MAMA_NYSE|52=20150520-13:39:36.194|56=ARBv8_EQUITY_NYS_BCS|10=033|
20150520-13:39:38.043: 8=FIX.4.4|9=73|35=0|34=36|49=ARBv8_EQUITY_NYS_BCS|52=20150520-13:39:38.043|56=MAMA_NYSE|10=028|
20150520-13:40:36.194: 8=FIX.4.4|9=73|35=0|34=37|49=MAMA_NYSE|52=20150520-13:40:36.194|56=ARBv8_EQUITY_NYS_BCS|10=026|
20150520-13:40:38.043: 8=FIX.4.4|9=73|35=0|34=37|49=ARBv8_EQUITY_NYS_BCS|52=20150520-13:40:38.043|56=MAMA_NYSE|10=021|
20150520-13:41:36.195: 8=FIX.4.4|9=73|35=0|34=38|49=MAMA_NYSE|52=20150520-13:41:36.194|56=ARBv8_EQUITY_NYS_BCS|10=028|
20150520-13:41:38.043: 8=FIX.4.4|9=73|35=0|34=38|49=ARBv8_EQUITY_NYS_BCS|52=20150520-13:41:38.043|56=MAMA_NYSE|10=023|
20150520-13:42:36.195: 8=FIX.4.4|9=73|35=0|34=39|49=MAMA_NYSE|52=20150520-13:42:36.194|56=ARBv8_EQUITY_NYS_BCS|10=030|
20150520-13:42:38.044: 8=FIX.4.4|9=73|35=0|34=39|49=ARBv8_EQUITY_NYS_BCS|52=20150520-13:42:38.043|56=MAMA_NYSE|10=025|
20150520-13:43:36.194: 8=FIX.4.4|9=73|35=0|34=40|49=MAMA_NYSE|52=20150520-13:43:36.194|56=ARBv8_EQUITY_NYS_BCS|10=023|
20150520-13:43:38.043: 8=FIX.4.4|9=73|35=0|34=40|49=ARBv8_EQUITY_NYS_BCS|52=20150520-13:43:38.043|56=MAMA_NYSE|10=018|
20150520-13:44:36.199: 8=FIX.4.4|9=73|35=0|34=41|49=MAMA_NYSE|52=20150520-13:44:36.194|56=ARBv8_EQUITY_NYS_BCS|10=025|
20150520-13:44:38.044: 8=FIX.4.4|9=73|35=0|34=41|49=ARBv8_EQUITY_NYS_BCS|52=20150520-13:44:38.044|56=MAMA_NYSE|10=021|
20150520-13:45:36.195: 8=FIX.4.4|9=73|35=0|34=42|49=MAMA_NYSE|52=20150520-13:45:36.194|56=ARBv8_EQUITY_NYS_BCS|10=027|
20150520-13:45:39.043: 8=FIX.4.4|9=73|35=0|34=42|49=ARBv8_EQUITY_NYS_BCS|52=20150520-13:45:39.043|56=MAMA_NYSE|10=023|
20150520-13:46:36.195: 8=FIX.4.4|9=73|35=0|34=43|49=MAMA_NYSE|52=20150520-13:46:36.194|56=ARBv8_EQUITY_NYS_BCS|10=029|
20150520-13:46:39.043: 8=FIX.4.4|9=73|35=0|34=43|49=ARBv8_EQUITY_NYS_BCS|52=20150520-13:46:39.043|56=MAMA_NYSE|10=025|
20150520-13:47:36.194: 8=FIX.4.4|9=73|35=0|34=44|49=MAMA_NYSE|52=20150520-13:47:36.194|56=ARBv8_EQUITY_NYS_BCS|10=031|
20150520-13:47:39.043: 8=FIX.4.4|9=73|35=0|34=44|49=ARBv8_EQUITY_NYS_BCS|52=20150520-13:47:39.043|56=MAMA_NYSE|10=027|
20150520-13:48:36.195: 8=FIX.4.4|9=73|35=0|34=45|49=MAMA_NYSE|52=20150520-13:48:36.194|56=ARBv8_EQUITY_NYS_BCS|10=033|
20150520-13:48:39.044: 8=FIX.4.4|9=73|35=0|34=45|49=ARBv8_EQUITY_NYS_BCS|52=20150520-13:48:39.044|56=MAMA_NYSE|10=030|
20150520-13:49:36.194: 8=FIX.4.4|9=73|35=0|34=46|49=MAMA_NYSE|52=20150520-13:49:36.194|56=ARBv8_EQUITY_NYS_BCS|10=035|
20150520-13:49:39.044: 8=FIX.4.4|9=73|35=0|34=46|49=ARBv8_EQUITY_NYS_BCS|52=20150520-13:49:39.044|56=MAMA_NYSE|10=032|
20150520-13:50:36.193: 8=FIX.4.4|9=73|35=0|34=47|49=MAMA_NYSE|52=20150520-13:50:36.194|56=ARBv8_EQUITY_NYS_BCS|10=028|
20150520-13:50:40.043: 8=FIX.4.4|9=73|35=0|34=47|49=ARBv8_EQUITY_NYS_BCS|52=20150520-13:50:40.043|56=MAMA_NYSE|10=016|
20150520-13:51:36.193: 8=FIX.4.4|9=73|35=0|34=48|49=MAMA_NYSE|52=20150520-13:51:36.194|56=ARBv8_EQUITY_NYS_BCS|10=030|
20150520-13:51:40.043: 8=FIX.4.4|9=73|35=0|34=48|49=ARBv8_EQUITY_NYS_BCS|52=20150520-13:51:40.043|56=MAMA_NYSE|10=018|
20150520-13:52:36.193: 8=FIX.4.4|9=73|35=0|34=49|49=MAMA_NYSE|52=20150520-13:52:36.194|56=ARBv8_EQUITY_NYS_BCS|10=032|
20150520-13:52:40.050: 8=FIX.4.4|9=73|35=0|34=49|49=ARBv8_EQUITY_NYS_BCS|52=20150520-13:52:40.050|56=MAMA_NYSE|10=018|
20150520-13:53:36.193: 8=FIX.4.4|9=73|35=0|34=50|49=MAMA_NYSE|52=20150520-13:53:36.194|56=ARBv8_EQUITY_NYS_BCS|10=025|
20150520-13:53:41.044: 8=FIX.4.4|9=73|35=0|34=50|49=ARBv8_EQUITY_NYS_BCS|52=20150520-13:53:41.044|56=MAMA_NYSE|10=015|
20150520-13:54:36.228: 8=FIX.4.4|9=73|35=0|34=51|49=MAMA_NYSE|52=20150520-13:54:36.194|56=ARBv8_EQUITY_NYS_BCS|10=027|
20150520-13:54:41.044: 8=FIX.4.4|9=73|35=0|34=51|49=ARBv8_EQUITY_NYS_BCS|52=20150520-13:54:41.044|56=MAMA_NYSE|10=017|
20150520-13:55:36.193: 8=FIX.4.4|9=73|35=0|34=52|49=MAMA_NYSE|52=20150520-13:55:36.194|56=ARBv8_EQUITY_NYS_BCS|10=029|
20150520-13:55:42.043: 8=FIX.4.4|9=73|35=0|34=52|49=ARBv8_EQUITY_NYS_BCS|52=20150520-13:55:42.043|56=MAMA_NYSE|10=019|
20150520-13:56:36.193: 8=FIX.4.4|9=73|35=0|34=53|49=MAMA_NYSE|52=20150520-13:56:36.194|56=ARBv8_EQUITY_NYS_BCS|10=031|
20150520-13:56:42.044: 8=FIX.4.4|9=73|35=0|34=53|49=ARBv8_EQUITY_NYS_BCS|52=20150520-13:56:42.044|56=MAMA_NYSE|10=022|
20150520-13:57:36.193: 8=FIX.4.4|9=73|35=0|34=54|49=MAMA_NYSE|52=20150520-13:57:36.194|56=ARBv8_EQUITY_NYS_BCS|10=033|
20150520-13:57:42.044: 8=FIX.4.4|9=73|35=0|34=54|49=ARBv8_EQUITY_NYS_BCS|52=20150520-13:57:42.044|56=MAMA_NYSE|10=024|
20150520-13:58:36.193: 8=FIX.4.4|9=73|35=0|34=55|49=MAMA_NYSE|52=20150520-13:58:36.194|56=ARBv8_EQUITY_NYS_BCS|10=035|
20150520-13:58:43.043: 8=FIX.4.4|9=73|35=0|34=55|49=ARBv8_EQUITY_NYS_BCS|52=20150520-13:58:43.043|56=MAMA_NYSE|10=026|
20150520-13:59:37.201: 8=FIX.4.4|9=73|35=0|34=56|49=MAMA_NYSE|52=20150520-13:59:37.194|56=ARBv8_EQUITY_NYS_BCS|10=038|
20150520-13:59:43.043: 8=FIX.4.4|9=73|35=0|34=56|49=ARBv8_EQUITY_NYS_BCS|52=20150520-13:59:43.043|56=MAMA_NYSE|10=028|
20150520-14:00:37.194: 8=FIX.4.4|9=73|35=0|34=57|49=MAMA_NYSE|52=20150520-14:00:37.194|56=ARBv8_EQUITY_NYS_BCS|10=026|
20150520-14:00:43.043: 8=FIX.4.4|9=73|35=0|34=57|49=ARBv8_EQUITY_NYS_BCS|52=20150520-14:00:43.043|56=MAMA_NYSE|10=016|
20150520-14:01:37.194: 8=FIX.4.4|9=73|35=0|34=58|49=MAMA_NYSE|52=20150520-14:01:37.194|56=ARBv8_EQUITY_NYS_BCS|10=028|
20150520-14:01:43.044: 8=FIX.4.4|9=73|35=0|34=58|49=ARBv8_EQUITY_NYS_BCS|52=20150520-14:01:43.044|56=MAMA_NYSE|10=019|
20150520-14:02:37.193: 8=FIX.4.4|9=73|35=0|34=59|49=MAMA_NYSE|52=20150520-14:02:37.194|56=ARBv8_EQUITY_NYS_BCS|10=030|
20150520-14:02:43.045: 8=FIX.4.4|9=73|35=0|34=59|49=ARBv8_EQUITY_NYS_BCS|52=20150520-14:02:43.045|56=MAMA_NYSE|10=022|
20150520-14:03:37.194: 8=FIX.4.4|9=73|35=0|34=60|49=MAMA_NYSE|52=20150520-14:03:37.194|56=ARBv8_EQUITY_NYS_BCS|10=023|
20150520-14:03:44.044: 8=FIX.4.4|9=73|35=0|34=60|49=ARBv8_EQUITY_NYS_BCS|52=20150520-14:03:44.044|56=MAMA_NYSE|10=015|
20150520-14:04:37.194: 8=FIX.4.4|9=73|35=0|34=61|49=MAMA_NYSE|52=20150520-14:04:37.194|56=ARBv8_EQUITY_NYS_BCS|10=025|
20150520-14:04:45.043: 8=FIX.4.4|9=73|35=0|34=61|49=ARBv8_EQUITY_NYS_BCS|52=20150520-14:04:45.043|56=MAMA_NYSE|10=017|
20150520-14:05:37.194: 8=FIX.4.4|9=73|35=0|34=62|49=MAMA_NYSE|52=20150520-14:05:37.194|56=ARBv8_EQUITY_NYS_BCS|10=027|
20150520-14:05:45.043: 8=FIX.4.4|9=73|35=0|34=62|49=ARBv8_EQUITY_NYS_BCS|52=20150520-14:05:45.043|56=MAMA_NYSE|10=019|
20150520-14:06:37.194: 8=FIX.4.4|9=73|35=0|34=63|49=MAMA_NYSE|52=20150520-14:06:37.194|56=ARBv8_EQUITY_NYS_BCS|10=029|
20150520-14:06:45.043: 8=FIX.4.4|9=73|35=0|34=63|49=ARBv8_EQUITY_NYS_BCS|52=20150520-14:06:45.043|56=MAMA_NYSE|10=021|
20150520-14:07:37.193: 8=FIX.4.4|9=73|35=0|34=64|49=MAMA_NYSE|52=20150520-14:07:37.194|56=ARBv8_EQUITY_NYS_BCS|10=031|
20150520-14:07:45.043: 8=FIX.4.4|9=73|35=0|34=64|49=ARBv8_EQUITY_NYS_BCS|52=20150520-14:07:45.043|56=MAMA_NYSE|10=023|
20150520-14:08:37.193: 8=FIX.4.4|9=73|35=0|34=65|49=MAMA_NYSE|52=20150520-14:08:37.194|56=ARBv8_EQUITY_NYS_BCS|10=033|
20150520-14:08:45.043: 8=FIX.4.4|9=73|35=0|34=65|49=ARBv8_EQUITY_NYS_BCS|52=20150520-14:08:45.043|56=MAMA_NYSE|10=025|
20150520-14:09:37.193: 8=FIX.4.4|9=73|35=0|34=66|49=MAMA_NYSE|52=20150520-14:09:37.194|56=ARBv8_EQUITY_NYS_BCS|10=035|
20150520-14:09:45.044: 8=FIX.4.4|9=73|35=0|34=66|49=ARBv8_EQUITY_NYS_BCS|52=20150520-14:09:45.044|56=MAMA_NYSE|10=028|
20150520-14:10:37.194: 8=FIX.4.4|9=73|35=0|34=67|49=MAMA_NYSE|52=20150520-14:10:37.195|56=ARBv8_EQUITY_NYS_BCS|10=029|
20150520-14:10:45.044: 8=FIX.4.4|9=73|35=0|34=67|49=ARBv8_EQUITY_NYS_BCS|52=20150520-14:10:45.044|56=MAMA_NYSE|10=021|
20150520-14:11:38.193: 8=FIX.4.4|9=73|35=0|34=68|49=MAMA_NYSE|52=20150520-14:11:38.194|56=ARBv8_EQUITY_NYS_BCS|10=031|
20150520-14:11:46.044: 8=FIX.4.4|9=73|35=0|34=68|49=ARBv8_EQUITY_NYS_BCS|52=20150520-14:11:46.044|56=MAMA_NYSE|10=024|
20150520-14:12:38.193: 8=FIX.4.4|9=73|35=0|34=69|49=MAMA_NYSE|52=20150520-14:12:38.194|56=ARBv8_EQUITY_NYS_BCS|10=033|
20150520-14:12:46.044: 8=FIX.4.4|9=73|35=0|34=69|49=ARBv8_EQUITY_NYS_BCS|52=20150520-14:12:46.044|56=MAMA_NYSE|10=026|
20150520-14:13:38.193: 8=FIX.4.4|9=73|35=0|34=70|49=MAMA_NYSE|52=20150520-14:13:38.194|56=ARBv8_EQUITY_NYS_BCS|10=026|
20150520-14:13:47.043: 8=FIX.4.4|9=73|35=0|34=70|49=ARBv8_EQUITY_NYS_BCS|52=20150520-14:13:47.043|56=MAMA_NYSE|10=019|
20150520-14:14:38.193: 8=FIX.4.4|9=73|35=0|34=71|49=MAMA_NYSE|52=20150520-14:14:38.194|56=ARBv8_EQUITY_NYS_BCS|10=028|
20150520-14:14:47.043: 8=FIX.4.4|9=73|35=0|34=71|49=ARBv8_EQUITY_NYS_BCS|52=20150520-14:14:47.043|56=MAMA_NYSE|10=021|
20150520-14:15:38.193: 8=FIX.4.4|9=73|35=0|34=72|49=MAMA_NYSE|52=20150520-14:15:38.194|56=ARBv8_EQUITY_NYS_BCS|10=030|
20150520-14:15:47.043: 8=FIX.4.4|9=73|35=0|34=72|49=ARBv8_EQUITY_NYS_BCS|52=20150520-14:15:47.043|56=MAMA_NYSE|10=023|
20150520-14:16:38.192: 8=FIX.4.4|9=73|35=0|34=73|49=MAMA_NYSE|52=20150520-14:16:38.194|56=ARBv8_EQUITY_NYS_BCS|10=032|
20150520-14:16:47.043: 8=FIX.4.4|9=73|35=0|34=73|49=ARBv8_EQUITY_NYS_BCS|52=20150520-14:16:47.043|56=MAMA_NYSE|10=025|
20150520-14:17:38.193: 8=FIX.4.4|9=73|35=0|34=74|49=MAMA_NYSE|52=20150520-14:17:38.194|56=ARBv8_EQUITY_NYS_BCS|10=034|
20150520-14:17:47.043: 8=FIX.4.4|9=73|35=0|34=74|49=ARBv8_EQUITY_NYS_BCS|52=20150520-14:17:47.043|56=MAMA_NYSE|10=027|
20150520-14:18:38.193: 8=FIX.4.4|9=73|35=0|34=75|49=MAMA_NYSE|52=20150520-14:18:38.194|56=ARBv8_EQUITY_NYS_BCS|10=036|
20150520-14:18:47.044: 8=FIX.4.4|9=73|35=0|34=75|49=ARBv8_EQUITY_NYS_BCS|52=20150520-14:18:47.044|56=MAMA_NYSE|10=030|
20150520-14:19:38.195: 8=FIX.4.4|9=73|35=0|34=76|49=MAMA_NYSE|52=20150520-14:19:38.194|56=ARBv8_EQUITY_NYS_BCS|10=038|
20150520-14:19:48.044: 8=FIX.4.4|9=73|35=0|34=76|49=ARBv8_EQUITY_NYS_BCS|52=20150520-14:19:48.044|56=MAMA_NYSE|10=033|
20150520-14:20:38.194: 8=FIX.4.4|9=73|35=0|34=77|49=MAMA_NYSE|52=20150520-14:20:38.194|56=ARBv8_EQUITY_NYS_BCS|10=031|
20150520-14:20:49.044: 8=FIX.4.4|9=73|35=0|34=77|49=ARBv8_EQUITY_NYS_BCS|52=20150520-14:20:49.044|56=MAMA_NYSE|10=027|
20150520-14:21:38.198: 8=FIX.4.4|9=73|35=0|34=78|49=MAMA_NYSE|52=20150520-14:21:38.194|56=ARBv8_EQUITY_NYS_BCS|10=033|
20150520-14:21:50.044: 8=FIX.4.4|9=73|35=0|34=78|49=ARBv8_EQUITY_NYS_BCS|52=20150520-14:21:50.043|56=MAMA_NYSE|10=020|
20150520-14:22:38.194: 8=FIX.4.4|9=73|35=0|34=79|49=MAMA_NYSE|52=20150520-14:22:38.194|56=ARBv8_EQUITY_NYS_BCS|10=035|
20150520-14:22:50.043: 8=FIX.4.4|9=73|35=0|34=79|49=ARBv8_EQUITY_NYS_BCS|52=20150520-14:22:50.043|56=MAMA_NYSE|10=022|
20150520-14:23:38.193: 8=FIX.4.4|9=73|35=0|34=80|49=MAMA_NYSE|52=20150520-14:23:38.194|56=ARBv8_EQUITY_NYS_BCS|10=028|
20150520-14:23:50.044: 8=FIX.4.4|9=73|35=0|34=80|49=ARBv8_EQUITY_NYS_BCS|52=20150520-14:23:50.044|56=MAMA_NYSE|10=016|
20150520-14:24:38.193: 8=FIX.4.4|9=73|35=0|34=81|49=MAMA_NYSE|52=20150520-14:24:38.194|56=ARBv8_EQUITY_NYS_BCS|10=030|
20150520-14:24:50.044: 8=FIX.4.4|9=73|35=0|34=81|49=ARBv8_EQUITY_NYS_BCS|52=20150520-14:24:50.044|56=MAMA_NYSE|10=018|
20150520-14:25:38.193: 8=FIX.4.4|9=73|35=0|34=82|49=MAMA_NYSE|52=20150520-14:25:38.194|56=ARBv8_EQUITY_NYS_BCS|10=032|
20150520-14:25:50.044: 8=FIX.4.4|9=73|35=0|34=82|49=ARBv8_EQUITY_NYS_BCS|52=20150520-14:25:50.044|56=MAMA_NYSE|10=020|
20150520-14:26:39.193: 8=FIX.4.4|9=73|35=0|34=83|49=MAMA_NYSE|52=20150520-14:26:39.194|56=ARBv8_EQUITY_NYS_BCS|10=035|
20150520-14:26:51.043: 8=FIX.4.4|9=73|35=0|34=83|49=ARBv8_EQUITY_NYS_BCS|52=20150520-14:26:51.043|56=MAMA_NYSE|10=022|
20150520-14:27:39.193: 8=FIX.4.4|9=73|35=0|34=84|49=MAMA_NYSE|52=20150520-14:27:39.194|56=ARBv8_EQUITY_NYS_BCS|10=037|
20150520-14:27:51.043: 8=FIX.4.4|9=73|35=0|34=84|49=ARBv8_EQUITY_NYS_BCS|52=20150520-14:27:51.043|56=MAMA_NYSE|10=024|
20150520-14:28:39.198: 8=FIX.4.4|9=73|35=0|34=85|49=MAMA_NYSE|52=20150520-14:28:39.194|56=ARBv8_EQUITY_NYS_BCS|10=039|
20150520-14:28:51.044: 8=FIX.4.4|9=73|35=0|34=85|49=ARBv8_EQUITY_NYS_BCS|52=20150520-14:28:51.044|56=MAMA_NYSE|10=027|
20150520-14:29:39.194: 8=FIX.4.4|9=73|35=0|34=86|49=MAMA_NYSE|52=20150520-14:29:39.195|56=ARBv8_EQUITY_NYS_BCS|10=042|
20150520-14:29:51.044: 8=FIX.4.4|9=73|35=0|34=86|49=ARBv8_EQUITY_NYS_BCS|52=20150520-14:29:51.044|56=MAMA_NYSE|10=029|
20150520-14:30:40.193: 8=FIX.4.4|9=73|35=0|34=87|49=MAMA_NYSE|52=20150520-14:30:40.193|56=ARBv8_EQUITY_NYS_BCS|10=025|
20150520-14:30:51.044: 8=FIX.4.4|9=73|35=0|34=87|49=ARBv8_EQUITY_NYS_BCS|52=20150520-14:30:51.044|56=MAMA_NYSE|10=022|
20150520-14:31:40.193: 8=FIX.4.4|9=73|35=0|34=88|49=MAMA_NYSE|52=20150520-14:31:40.194|56=ARBv8_EQUITY_NYS_BCS|10=028|
20150520-14:31:52.044: 8=FIX.4.4|9=73|35=0|34=88|49=ARBv8_EQUITY_NYS_BCS|52=20150520-14:31:52.044|56=MAMA_NYSE|10=025|
20150520-14:32:40.194: 8=FIX.4.4|9=73|35=0|34=89|49=MAMA_NYSE|52=20150520-14:32:40.194|56=ARBv8_EQUITY_NYS_BCS|10=030|
20150520-14:32:53.043: 8=FIX.4.4|9=73|35=0|34=89|49=ARBv8_EQUITY_NYS_BCS|52=20150520-14:32:53.043|56=MAMA_NYSE|10=027|
20150520-14:33:40.194: 8=FIX.4.4|9=73|35=0|34=90|49=MAMA_NYSE|52=20150520-14:33:40.195|56=ARBv8_EQUITY_NYS_BCS|10=024|
20150520-14:33:53.043: 8=FIX.4.4|9=73|35=0|34=90|49=ARBv8_EQUITY_NYS_BCS|52=20150520-14:33:53.043|56=MAMA_NYSE|10=020|
20150520-14:34:41.193: 8=FIX.4.4|9=73|35=0|34=91|49=MAMA_NYSE|52=20150520-14:34:41.194|56=ARBv8_EQUITY_NYS_BCS|10=026|
20150520-14:34:53.043: 8=FIX.4.4|9=73|35=0|34=91|49=ARBv8_EQUITY_NYS_BCS|52=20150520-14:34:53.043|56=MAMA_NYSE|10=022|
20150520-14:35:41.195: 8=FIX.4.4|9=73|35=0|34=92|49=MAMA_NYSE|52=20150520-14:35:41.194|56=ARBv8_EQUITY_NYS_BCS|10=028|
20150520-14:35:53.043: 8=FIX.4.4|9=73|35=0|34=92|49=ARBv8_EQUITY_NYS_BCS|52=20150520-14:35:53.043|56=MAMA_NYSE|10=024|
20150520-14:36:41.193: 8=FIX.4.4|9=73|35=0|34=93|49=MAMA_NYSE|52=20150520-14:36:41.194|56=ARBv8_EQUITY_NYS_BCS|10=030|
20150520-14:36:53.044: 8=FIX.4.4|9=73|35=0|34=93|49=ARBv8_EQUITY_NYS_BCS|52=20150520-14:36:53.044|56=MAMA_NYSE|10=027|
20150520-14:37:41.193: 8=FIX.4.4|9=73|35=0|34=94|49=MAMA_NYSE|52=20150520-14:37:41.194|56=ARBv8_EQUITY_NYS_BCS|10=032|
20150520-14:37:54.044: 8=FIX.4.4|9=73|35=0|34=94|49=ARBv8_EQUITY_NYS_BCS|52=20150520-14:37:54.044|56=MAMA_NYSE|10=030|
20150520-14:38:41.194: 8=FIX.4.4|9=73|35=0|34=95|49=MAMA_NYSE|52=20150520-14:38:41.194|56=ARBv8_EQUITY_NYS_BCS|10=034|
20150520-14:38:55.044: 8=FIX.4.4|9=73|35=0|34=95|49=ARBv8_EQUITY_NYS_BCS|52=20150520-14:38:55.044|56=MAMA_NYSE|10=033|
20150520-14:39:41.193: 8=FIX.4.4|9=73|35=0|34=96|49=MAMA_NYSE|52=20150520-14:39:41.194|56=ARBv8_EQUITY_NYS_BCS|10=036|
20150520-14:39:56.044: 8=FIX.4.4|9=73|35=0|34=96|49=ARBv8_EQUITY_NYS_BCS|52=20150520-14:39:56.044|56=MAMA_NYSE|10=036|
20150520-14:40:42.193: 8=FIX.4.4|9=73|35=0|34=97|49=MAMA_NYSE|52=20150520-14:40:42.194|56=ARBv8_EQUITY_NYS_BCS|10=030|
20150520-14:40:57.044: 8=FIX.4.4|9=73|35=0|34=97|49=ARBv8_EQUITY_NYS_BCS|52=20150520-14:40:57.044|56=MAMA_NYSE|10=030|
20150520-14:41:42.195: 8=FIX.4.4|9=73|35=0|34=98|49=MAMA_NYSE|52=20150520-14:41:42.194|56=ARBv8_EQUITY_NYS_BCS|10=032|
20150520-14:41:57.044: 8=FIX.4.4|9=73|35=0|34=98|49=ARBv8_EQUITY_NYS_BCS|52=20150520-14:41:57.044|56=MAMA_NYSE|10=032|
20150520-14:42:42.197: 8=FIX.4.4|9=73|35=0|34=99|49=MAMA_NYSE|52=20150520-14:42:42.194|56=ARBv8_EQUITY_NYS_BCS|10=034|
20150520-14:42:58.043: 8=FIX.4.4|9=73|35=0|34=99|49=ARBv8_EQUITY_NYS_BCS|52=20150520-14:42:58.043|56=MAMA_NYSE|10=034|
20150520-14:43:42.193: 8=FIX.4.4|9=74|35=0|34=100|49=MAMA_NYSE|52=20150520-14:43:42.194|56=ARBv8_EQUITY_NYS_BCS|10=067|
20150520-14:43:58.044: 8=FIX.4.4|9=74|35=0|34=100|49=ARBv8_EQUITY_NYS_BCS|52=20150520-14:43:58.044|56=MAMA_NYSE|10=068|
20150520-14:44:42.193: 8=FIX.4.4|9=74|35=0|34=101|49=MAMA_NYSE|52=20150520-14:44:42.194|56=ARBv8_EQUITY_NYS_BCS|10=069|
20150520-14:44:59.044: 8=FIX.4.4|9=74|35=0|34=101|49=ARBv8_EQUITY_NYS_BCS|52=20150520-14:44:59.044|56=MAMA_NYSE|10=071|
20150520-14:45:42.195: 8=FIX.4.4|9=74|35=0|34=102|49=MAMA_NYSE|52=20150520-14:45:42.194|56=ARBv8_EQUITY_NYS_BCS|10=071|
20150520-14:45:59.044: 8=FIX.4.4|9=74|35=0|34=102|49=ARBv8_EQUITY_NYS_BCS|52=20150520-14:45:59.044|56=MAMA_NYSE|10=073|
20150520-14:46:42.199: 8=FIX.4.4|9=74|35=0|34=103|49=MAMA_NYSE|52=20150520-14:46:42.194|56=ARBv8_EQUITY_NYS_BCS|10=073|
20150520-14:46:59.044: 8=FIX.4.4|9=74|35=0|34=103|49=ARBv8_EQUITY_NYS_BCS|52=20150520-14:46:59.044|56=MAMA_NYSE|10=075|
20150520-14:47:42.195: 8=FIX.4.4|9=74|35=0|34=104|49=MAMA_NYSE|52=20150520-14:47:42.194|56=ARBv8_EQUITY_NYS_BCS|10=075|
20150520-14:47:59.044: 8=FIX.4.4|9=74|35=0|34=104|49=ARBv8_EQUITY_NYS_BCS|52=20150520-14:47:59.044|56=MAMA_NYSE|10=077|
20150520-14:48:42.194: 8=FIX.4.4|9=74|35=0|34=105|49=MAMA_NYSE|52=20150520-14:48:42.194|56=ARBv8_EQUITY_NYS_BCS|10=077|
20150520-14:49:00.043: 8=FIX.4.4|9=74|35=0|34=105|49=ARBv8_EQUITY_NYS_BCS|52=20150520-14:49:00.043|56=MAMA_NYSE|10=065|
20150520-14:49:42.192: 8=FIX.4.4|9=74|35=0|34=106|49=MAMA_NYSE|52=20150520-14:49:42.194|56=ARBv8_EQUITY_NYS_BCS|10=079|
20150520-14:50:00.043: 8=FIX.4.4|9=74|35=0|34=106|49=ARBv8_EQUITY_NYS_BCS|52=20150520-14:50:00.043|56=MAMA_NYSE|10=058|
20150520-14:50:42.192: 8=FIX.4.4|9=74|35=0|34=107|49=MAMA_NYSE|52=20150520-14:50:42.194|56=ARBv8_EQUITY_NYS_BCS|10=072|
20150520-14:51:00.044: 8=FIX.4.4|9=74|35=0|34=107|49=ARBv8_EQUITY_NYS_BCS|52=20150520-14:51:00.044|56=MAMA_NYSE|10=061|
20150520-14:51:42.193: 8=FIX.4.4|9=74|35=0|34=108|49=MAMA_NYSE|52=20150520-14:51:42.194|56=ARBv8_EQUITY_NYS_BCS|10=074|
20150520-14:52:01.044: 8=FIX.4.4|9=74|35=0|34=108|49=ARBv8_EQUITY_NYS_BCS|52=20150520-14:52:01.044|56=MAMA_NYSE|10=064|
20150520-14:52:42.193: 8=FIX.4.4|9=74|35=0|34=109|49=MAMA_NYSE|52=20150520-14:52:42.194|56=ARBv8_EQUITY_NYS_BCS|10=076|
20150520-14:53:01.044: 8=FIX.4.4|9=74|35=0|34=109|49=ARBv8_EQUITY_NYS_BCS|52=20150520-14:53:01.044|56=MAMA_NYSE|10=066|
20150520-14:53:42.192: 8=FIX.4.4|9=74|35=0|34=110|49=MAMA_NYSE|52=20150520-14:53:42.194|56=ARBv8_EQUITY_NYS_BCS|10=069|
20150520-14:54:02.044: 8=FIX.4.4|9=74|35=0|34=110|49=ARBv8_EQUITY_NYS_BCS|52=20150520-14:54:02.044|56=MAMA_NYSE|10=060|
20150520-14:54:43.192: 8=FIX.4.4|9=74|35=0|34=111|49=MAMA_NYSE|52=20150520-14:54:43.194|56=ARBv8_EQUITY_NYS_BCS|10=072|
20150520-14:55:02.044: 8=FIX.4.4|9=74|35=0|34=111|49=ARBv8_EQUITY_NYS_BCS|52=20150520-14:55:02.044|56=MAMA_NYSE|10=062|
20150520-14:55:43.192: 8=FIX.4.4|9=74|35=0|34=112|49=MAMA_NYSE|52=20150520-14:55:43.194|56=ARBv8_EQUITY_NYS_BCS|10=074|
20150520-14:56:02.044: 8=FIX.4.4|9=74|35=0|34=112|49=ARBv8_EQUITY_NYS_BCS|52=20150520-14:56:02.044|56=MAMA_NYSE|10=064|
20150520-14:56:43.193: 8=FIX.4.4|9=74|35=0|34=113|49=MAMA_NYSE|52=20150520-14:56:43.195|56=ARBv8_EQUITY_NYS_BCS|10=077|
20150520-14:57:03.043: 8=FIX.4.4|9=74|35=0|34=113|49=ARBv8_EQUITY_NYS_BCS|52=20150520-14:57:03.043|56=MAMA_NYSE|10=066|
20150520-14:57:44.192: 8=FIX.4.4|9=74|35=0|34=114|49=MAMA_NYSE|52=20150520-14:57:44.194|56=ARBv8_EQUITY_NYS_BCS|10=079|
20150520-14:58:03.044: 8=FIX.4.4|9=74|35=0|34=114|49=ARBv8_EQUITY_NYS_BCS|52=20150520-14:58:03.044|56=MAMA_NYSE|10=069|
20150520-14:58:44.192: 8=FIX.4.4|9=74|35=0|34=115|49=MAMA_NYSE|52=20150520-14:58:44.194|56=ARBv8_EQUITY_NYS_BCS|10=081|
20150520-14:59:03.051: 8=FIX.4.4|9=74|35=0|34=115|49=ARBv8_EQUITY_NYS_BCS|52=20150520-14:59:03.050|56=MAMA_NYSE|10=068|
20150520-14:59:44.195: 8=FIX.4.4|9=74|35=0|34=116|49=MAMA_NYSE|52=20150520-14:59:44.194|56=ARBv8_EQUITY_NYS_BCS|10=083|
20150520-15:00:04.044: 8=FIX.4.4|9=74|35=0|34=116|49=ARBv8_EQUITY_NYS_BCS|52=20150520-15:00:04.044|56=MAMA_NYSE|10=060|
20150520-15:00:44.193: 8=FIX.4.4|9=74|35=0|34=117|49=MAMA_NYSE|52=20150520-15:00:44.194|56=ARBv8_EQUITY_NYS_BCS|10=071|
20150520-15:01:04.044: 8=FIX.4.4|9=74|35=0|34=117|49=ARBv8_EQUITY_NYS_BCS|52=20150520-15:01:04.044|56=MAMA_NYSE|10=062|
20150520-15:01:44.193: 8=FIX.4.4|9=74|35=0|34=118|49=MAMA_NYSE|52=20150520-15:01:44.194|56=ARBv8_EQUITY_NYS_BCS|10=073|
20150520-15:02:05.043: 8=FIX.4.4|9=74|35=0|34=118|49=ARBv8_EQUITY_NYS_BCS|52=20150520-15:02:05.043|56=MAMA_NYSE|10=064|
20150520-15:02:44.193: 8=FIX.4.4|9=74|35=0|34=119|49=MAMA_NYSE|52=20150520-15:02:44.194|56=ARBv8_EQUITY_NYS_BCS|10=075|
20150520-15:03:05.043: 8=FIX.4.4|9=74|35=0|34=119|49=ARBv8_EQUITY_NYS_BCS|52=20150520-15:03:05.043|56=MAMA_NYSE|10=066|
20150520-15:03:44.198: 8=FIX.4.4|9=74|35=0|34=120|49=MAMA_NYSE|52=20150520-15:03:44.194|56=ARBv8_EQUITY_NYS_BCS|10=068|
20150520-15:04:05.043: 8=FIX.4.4|9=74|35=0|34=120|49=ARBv8_EQUITY_NYS_BCS|52=20150520-15:04:05.043|56=MAMA_NYSE|10=059|
20150520-15:04:44.193: 8=FIX.4.4|9=74|35=0|34=121|49=MAMA_NYSE|52=20150520-15:04:44.194|56=ARBv8_EQUITY_NYS_BCS|10=070|
20150520-15:05:05.043: 8=FIX.4.4|9=74|35=0|34=121|49=ARBv8_EQUITY_NYS_BCS|52=20150520-15:05:05.043|56=MAMA_NYSE|10=061|
20150520-15:05:44.200: 8=FIX.4.4|9=74|35=0|34=122|49=MAMA_NYSE|52=20150520-15:05:44.194|56=ARBv8_EQUITY_NYS_BCS|10=072|
20150520-15:06:05.044: 8=FIX.4.4|9=74|35=0|34=122|49=ARBv8_EQUITY_NYS_BCS|52=20150520-15:06:05.044|56=MAMA_NYSE|10=064|
20150520-15:06:44.193: 8=FIX.4.4|9=74|35=0|34=123|49=MAMA_NYSE|52=20150520-15:06:44.194|56=ARBv8_EQUITY_NYS_BCS|10=074|
20150520-15:07:06.044: 8=FIX.4.4|9=74|35=0|34=123|49=ARBv8_EQUITY_NYS_BCS|52=20150520-15:07:06.044|56=MAMA_NYSE|10=067|
20150520-15:07:44.194: 8=FIX.4.4|9=74|35=0|34=124|49=MAMA_NYSE|52=20150520-15:07:44.194|56=ARBv8_EQUITY_NYS_BCS|10=076|
20150520-15:08:07.044: 8=FIX.4.4|9=74|35=0|34=124|49=ARBv8_EQUITY_NYS_BCS|52=20150520-15:08:07.044|56=MAMA_NYSE|10=070|
20150520-15:08:44.199: 8=FIX.4.4|9=74|35=0|34=125|49=MAMA_NYSE|52=20150520-15:08:44.194|56=ARBv8_EQUITY_NYS_BCS|10=078|
20150520-15:09:08.043: 8=FIX.4.4|9=74|35=0|34=125|49=ARBv8_EQUITY_NYS_BCS|52=20150520-15:09:08.043|56=MAMA_NYSE|10=072|
20150520-15:09:44.194: 8=FIX.4.4|9=74|35=0|34=126|49=MAMA_NYSE|52=20150520-15:09:44.194|56=ARBv8_EQUITY_NYS_BCS|10=080|
20150520-15:10:08.044: 8=FIX.4.4|9=74|35=0|34=126|49=ARBv8_EQUITY_NYS_BCS|52=20150520-15:10:08.044|56=MAMA_NYSE|10=066|
20150520-15:10:44.193: 8=FIX.4.4|9=74|35=0|34=127|49=MAMA_NYSE|52=20150520-15:10:44.194|56=ARBv8_EQUITY_NYS_BCS|10=073|
20150520-15:11:08.044: 8=FIX.4.4|9=74|35=0|34=127|49=ARBv8_EQUITY_NYS_BCS|52=20150520-15:11:08.044|56=MAMA_NYSE|10=068|
20150520-15:11:44.193: 8=FIX.4.4|9=74|35=0|34=128|49=MAMA_NYSE|52=20150520-15:11:44.194|56=ARBv8_EQUITY_NYS_BCS|10=075|
20150520-15:12:08.044: 8=FIX.4.4|9=74|35=0|34=128|49=ARBv8_EQUITY_NYS_BCS|52=20150520-15:12:08.044|56=MAMA_NYSE|10=070|
20150520-15:12:44.193: 8=FIX.4.4|9=74|35=0|34=129|49=MAMA_NYSE|52=20150520-15:12:44.194|56=ARBv8_EQUITY_NYS_BCS|10=077|
20150520-15:13:08.046: 8=FIX.4.4|9=74|35=0|34=129|49=ARBv8_EQUITY_NYS_BCS|52=20150520-15:13:08.046|56=MAMA_NYSE|10=074|
20150520-15:13:44.196: 8=FIX.4.4|9=74|35=0|34=130|49=MAMA_NYSE|52=20150520-15:13:44.194|56=ARBv8_EQUITY_NYS_BCS|10=070|
20150520-15:14:09.044: 8=FIX.4.4|9=74|35=0|34=130|49=ARBv8_EQUITY_NYS_BCS|52=20150520-15:14:09.044|56=MAMA_NYSE|10=066|
20150520-15:14:44.193: 8=FIX.4.4|9=74|35=0|34=131|49=MAMA_NYSE|52=20150520-15:14:44.194|56=ARBv8_EQUITY_NYS_BCS|10=072|
20150520-15:15:10.044: 8=FIX.4.4|9=74|35=0|34=131|49=ARBv8_EQUITY_NYS_BCS|52=20150520-15:15:10.044|56=MAMA_NYSE|10=060|
20150520-15:15:44.194: 8=FIX.4.4|9=74|35=0|34=132|49=MAMA_NYSE|52=20150520-15:15:44.194|56=ARBv8_EQUITY_NYS_BCS|10=074|
20150520-15:16:10.044: 8=FIX.4.4|9=74|35=0|34=132|49=ARBv8_EQUITY_NYS_BCS|52=20150520-15:16:10.044|56=MAMA_NYSE|10=062|
20150520-15:16:44.194: 8=FIX.4.4|9=74|35=0|34=133|49=MAMA_NYSE|52=20150520-15:16:44.194|56=ARBv8_EQUITY_NYS_BCS|10=076|
20150520-15:17:11.043: 8=FIX.4.4|9=74|35=0|34=133|49=ARBv8_EQUITY_NYS_BCS|52=20150520-15:17:11.043|56=MAMA_NYSE|10=064|
20150520-15:17:44.193: 8=FIX.4.4|9=74|35=0|34=134|49=MAMA_NYSE|52=20150520-15:17:44.194|56=ARBv8_EQUITY_NYS_BCS|10=078|
20150520-15:18:11.043: 8=FIX.4.4|9=74|35=0|34=134|49=ARBv8_EQUITY_NYS_BCS|52=20150520-15:18:11.043|56=MAMA_NYSE|10=066|
20150520-15:18:44.194: 8=FIX.4.4|9=74|35=0|34=135|49=MAMA_NYSE|52=20150520-15:18:44.194|56=ARBv8_EQUITY_NYS_BCS|10=080|
20150520-15:19:11.043: 8=FIX.4.4|9=74|35=0|34=135|49=ARBv8_EQUITY_NYS_BCS|52=20150520-15:19:11.043|56=MAMA_NYSE|10=068|
20150520-15:19:44.194: 8=FIX.4.4|9=74|35=0|34=136|49=MAMA_NYSE|52=20150520-15:19:44.194|56=ARBv8_EQUITY_NYS_BCS|10=082|
20150520-15:20:11.043: 8=FIX.4.4|9=74|35=0|34=136|49=ARBv8_EQUITY_NYS_BCS|52=20150520-15:20:11.043|56=MAMA_NYSE|10=061|
20150520-15:20:44.194: 8=FIX.4.4|9=74|35=0|34=137|49=MAMA_NYSE|52=20150520-15:20:44.194|56=ARBv8_EQUITY_NYS_BCS|10=075|
20150520-15:21:11.044: 8=FIX.4.4|9=74|35=0|34=137|49=ARBv8_EQUITY_NYS_BCS|52=20150520-15:21:11.044|56=MAMA_NYSE|10=064|
20150520-15:21:44.193: 8=FIX.4.4|9=74|35=0|34=138|49=MAMA_NYSE|52=20150520-15:21:44.194|56=ARBv8_EQUITY_NYS_BCS|10=077|
20150520-15:22:12.044: 8=FIX.4.4|9=74|35=0|34=138|49=ARBv8_EQUITY_NYS_BCS|52=20150520-15:22:12.044|56=MAMA_NYSE|10=067|
20150520-15:22:44.194: 8=FIX.4.4|9=74|35=0|34=139|49=MAMA_NYSE|52=20150520-15:22:44.194|56=ARBv8_EQUITY_NYS_BCS|10=079|
20150520-15:23:13.044: 8=FIX.4.4|9=74|35=0|34=139|49=ARBv8_EQUITY_NYS_BCS|52=20150520-15:23:13.044|56=MAMA_NYSE|10=070|
20150520-15:23:44.194: 8=FIX.4.4|9=74|35=0|34=140|49=MAMA_NYSE|52=20150520-15:23:44.194|56=ARBv8_EQUITY_NYS_BCS|10=072|
20150520-15:24:13.044: 8=FIX.4.4|9=74|35=0|34=140|49=ARBv8_EQUITY_NYS_BCS|52=20150520-15:24:13.044|56=MAMA_NYSE|10=063|
20150520-15:24:44.195: 8=FIX.4.4|9=74|35=0|34=141|49=MAMA_NYSE|52=20150520-15:24:44.194|56=ARBv8_EQUITY_NYS_BCS|10=074|
20150520-15:25:14.044: 8=FIX.4.4|9=74|35=0|34=141|49=ARBv8_EQUITY_NYS_BCS|52=20150520-15:25:14.044|56=MAMA_NYSE|10=066|
20150520-15:25:44.193: 8=FIX.4.4|9=74|35=0|34=142|49=MAMA_NYSE|52=20150520-15:25:44.194|56=ARBv8_EQUITY_NYS_BCS|10=076|
20150520-15:26:15.043: 8=FIX.4.4|9=74|35=0|34=142|49=ARBv8_EQUITY_NYS_BCS|52=20150520-15:26:15.043|56=MAMA_NYSE|10=068|
20150520-15:26:44.194: 8=FIX.4.4|9=74|35=0|34=143|49=MAMA_NYSE|52=20150520-15:26:44.194|56=ARBv8_EQUITY_NYS_BCS|10=078|
20150520-15:27:15.043: 8=FIX.4.4|9=74|35=0|34=143|49=ARBv8_EQUITY_NYS_BCS|52=20150520-15:27:15.043|56=MAMA_NYSE|10=070|
20150520-15:27:44.193: 8=FIX.4.4|9=74|35=0|34=144|49=MAMA_NYSE|52=20150520-15:27:44.194|56=ARBv8_EQUITY_NYS_BCS|10=080|
20150520-15:28:15.043: 8=FIX.4.4|9=74|35=0|34=144|49=ARBv8_EQUITY_NYS_BCS|52=20150520-15:28:15.043|56=MAMA_NYSE|10=072|
20150520-15:28:44.194: 8=FIX.4.4|9=74|35=0|34=145|49=MAMA_NYSE|52=20150520-15:28:44.194|56=ARBv8_EQUITY_NYS_BCS|10=082|
20150520-15:29:15.043: 8=FIX.4.4|9=74|35=0|34=145|49=ARBv8_EQUITY_NYS_BCS|52=20150520-15:29:15.043|56=MAMA_NYSE|10=074|
20150520-15:29:44.198: 8=FIX.4.4|9=74|35=0|34=146|49=MAMA_NYSE|52=20150520-15:29:44.194|56=ARBv8_EQUITY_NYS_BCS|10=084|
20150520-15:30:15.044: 8=FIX.4.4|9=74|35=0|34=146|49=ARBv8_EQUITY_NYS_BCS|52=20150520-15:30:15.044|56=MAMA_NYSE|10=068|
20150520-15:30:44.196: 8=FIX.4.4|9=74|35=0|34=147|49=MAMA_NYSE|52=20150520-15:30:44.195|56=ARBv8_EQUITY_NYS_BCS|10=078|
20150520-15:31:15.044: 8=FIX.4.4|9=74|35=0|34=147|49=ARBv8_EQUITY_NYS_BCS|52=20150520-15:31:15.044|56=MAMA_NYSE|10=070|
20150520-15:31:45.193: 8=FIX.4.4|9=74|35=0|34=148|49=MAMA_NYSE|52=20150520-15:31:45.193|56=ARBv8_EQUITY_NYS_BCS|10=079|
20150520-15:32:15.044: 8=FIX.4.4|9=74|35=0|34=148|49=ARBv8_EQUITY_NYS_BCS|52=20150520-15:32:15.044|56=MAMA_NYSE|10=072|
20150520-15:32:45.194: 8=FIX.4.4|9=74|35=0|34=149|49=MAMA_NYSE|52=20150520-15:32:45.194|56=ARBv8_EQUITY_NYS_BCS|10=082|
20150520-15:33:16.043: 8=FIX.4.4|9=74|35=0|34=149|49=ARBv8_EQUITY_NYS_BCS|52=20150520-15:33:16.043|56=MAMA_NYSE|10=074|
20150520-15:33:45.194: 8=FIX.4.4|9=74|35=0|34=150|49=MAMA_NYSE|52=20150520-15:33:45.194|56=ARBv8_EQUITY_NYS_BCS|10=075|
20150520-15:34:16.044: 8=FIX.4.4|9=74|35=0|34=150|49=ARBv8_EQUITY_NYS_BCS|52=20150520-15:34:16.044|56=MAMA_NYSE|10=068|
20150520-15:34:46.194: 8=FIX.4.4|9=74|35=0|34=151|49=MAMA_NYSE|52=20150520-15:34:46.194|56=ARBv8_EQUITY_NYS_BCS|10=078|
20150520-15:35:16.044: 8=FIX.4.4|9=74|35=0|34=151|49=ARBv8_EQUITY_NYS_BCS|52=20150520-15:35:16.044|56=MAMA_NYSE|10=070|
20150520-15:35:47.195: 8=FIX.4.4|9=74|35=0|34=152|49=MAMA_NYSE|52=20150520-15:35:47.194|56=ARBv8_EQUITY_NYS_BCS|10=081|
20150520-15:36:17.044: 8=FIX.4.4|9=74|35=0|34=152|49=ARBv8_EQUITY_NYS_BCS|52=20150520-15:36:17.044|56=MAMA_NYSE|10=073|
20150520-15:36:47.199: 8=FIX.4.4|9=74|35=0|34=153|49=MAMA_NYSE|52=20150520-15:36:47.194|56=ARBv8_EQUITY_NYS_BCS|10=083|
20150520-15:37:18.043: 8=FIX.4.4|9=74|35=0|34=153|49=ARBv8_EQUITY_NYS_BCS|52=20150520-15:37:18.043|56=MAMA_NYSE|10=075|
20150520-15:37:48.197: 8=FIX.4.4|9=74|35=0|34=154|49=MAMA_NYSE|52=20150520-15:37:48.194|56=ARBv8_EQUITY_NYS_BCS|10=086|
20150520-15:38:18.043: 8=FIX.4.4|9=74|35=0|34=154|49=ARBv8_EQUITY_NYS_BCS|52=20150520-15:38:18.043|56=MAMA_NYSE|10=077|
20150520-15:38:48.195: 8=FIX.4.4|9=74|35=0|34=155|49=MAMA_NYSE|52=20150520-15:38:48.194|56=ARBv8_EQUITY_NYS_BCS|10=088|
20150520-15:39:18.043: 8=FIX.4.4|9=74|35=0|34=155|49=ARBv8_EQUITY_NYS_BCS|52=20150520-15:39:18.043|56=MAMA_NYSE|10=079|
20150520-15:39:48.195: 8=FIX.4.4|9=74|35=0|34=156|49=MAMA_NYSE|52=20150520-15:39:48.194|56=ARBv8_EQUITY_NYS_BCS|10=090|
20150520-15:40:18.043: 8=FIX.4.4|9=74|35=0|34=156|49=ARBv8_EQUITY_NYS_BCS|52=20150520-15:40:18.043|56=MAMA_NYSE|10=072|
20150520-15:40:48.195: 8=FIX.4.4|9=74|35=0|34=157|49=MAMA_NYSE|52=20150520-15:40:48.195|56=ARBv8_EQUITY_NYS_BCS|10=084|
20150520-15:41:18.043: 8=FIX.4.4|9=74|35=0|34=157|49=ARBv8_EQUITY_NYS_BCS|52=20150520-15:41:18.043|56=MAMA_NYSE|10=074|
20150520-15:41:49.194: 8=FIX.4.4|9=74|35=0|34=158|49=MAMA_NYSE|52=20150520-15:41:49.194|56=ARBv8_EQUITY_NYS_BCS|10=086|
20150520-15:42:18.044: 8=FIX.4.4|9=74|35=0|34=158|49=ARBv8_EQUITY_NYS_BCS|52=20150520-15:42:18.044|56=MAMA_NYSE|10=077|
20150520-15:42:49.195: 8=FIX.4.4|9=74|35=0|34=159|49=MAMA_NYSE|52=20150520-15:42:49.194|56=ARBv8_EQUITY_NYS_BCS|10=088|
20150520-15:43:18.044: 8=FIX.4.4|9=74|35=0|34=159|49=ARBv8_EQUITY_NYS_BCS|52=20150520-15:43:18.044|56=MAMA_NYSE|10=079|
20150520-15:43:49.195: 8=FIX.4.4|9=74|35=0|34=160|49=MAMA_NYSE|52=20150520-15:43:49.194|56=ARBv8_EQUITY_NYS_BCS|10=081|
20150520-15:44:18.044: 8=FIX.4.4|9=74|35=0|34=160|49=ARBv8_EQUITY_NYS_BCS|52=20150520-15:44:18.044|56=MAMA_NYSE|10=072|
20150520-15:44:49.195: 8=FIX.4.4|9=74|35=0|34=161|49=MAMA_NYSE|52=20150520-15:44:49.194|56=ARBv8_EQUITY_NYS_BCS|10=083|
20150520-15:45:18.045: 8=FIX.4.4|9=74|35=0|34=161|49=ARBv8_EQUITY_NYS_BCS|52=20150520-15:45:18.045|56=MAMA_NYSE|10=075|
20150520-15:45:50.195: 8=FIX.4.4|9=74|35=0|34=162|49=MAMA_NYSE|52=20150520-15:45:50.194|56=ARBv8_EQUITY_NYS_BCS|10=077|
20150520-15:46:19.044: 8=FIX.4.4|9=74|35=0|34=162|49=ARBv8_EQUITY_NYS_BCS|52=20150520-15:46:19.043|56=MAMA_NYSE|10=076|
20150520-15:46:51.195: 8=FIX.4.4|9=74|35=0|34=163|49=MAMA_NYSE|52=20150520-15:46:51.194|56=ARBv8_EQUITY_NYS_BCS|10=080|
20150520-15:47:19.044: 8=FIX.4.4|9=74|35=0|34=163|49=ARBv8_EQUITY_NYS_BCS|52=20150520-15:47:19.044|56=MAMA_NYSE|10=079|
20150520-15:47:51.195: 8=FIX.4.4|9=74|35=0|34=164|49=MAMA_NYSE|52=20150520-15:47:51.194|56=ARBv8_EQUITY_NYS_BCS|10=082|
20150520-15:48:19.044: 8=FIX.4.4|9=74|35=0|34=164|49=ARBv8_EQUITY_NYS_BCS|52=20150520-15:48:19.044|56=MAMA_NYSE|10=081|
20150520-15:48:51.195: 8=FIX.4.4|9=74|35=0|34=165|49=MAMA_NYSE|52=20150520-15:48:51.194|56=ARBv8_EQUITY_NYS_BCS|10=084|
20150520-15:49:19.044: 8=FIX.4.4|9=74|35=0|34=165|49=ARBv8_EQUITY_NYS_BCS|52=20150520-15:49:19.044|56=MAMA_NYSE|10=083|
20150520-15:49:51.199: 8=FIX.4.4|9=74|35=0|34=166|49=MAMA_NYSE|52=20150520-15:49:51.194|56=ARBv8_EQUITY_NYS_BCS|10=086|
20150520-15:50:19.044: 8=FIX.4.4|9=74|35=0|34=166|49=ARBv8_EQUITY_NYS_BCS|52=20150520-15:50:19.044|56=MAMA_NYSE|10=076|
20150520-15:50:52.196: 8=FIX.4.4|9=74|35=0|34=167|49=MAMA_NYSE|52=20150520-15:50:52.194|56=ARBv8_EQUITY_NYS_BCS|10=080|
20150520-15:51:20.044: 8=FIX.4.4|9=74|35=0|34=167|49=ARBv8_EQUITY_NYS_BCS|52=20150520-15:51:20.044|56=MAMA_NYSE|10=070|
20150520-15:51:52.194: 8=FIX.4.4|9=74|35=0|34=168|49=MAMA_NYSE|52=20150520-15:51:52.194|56=ARBv8_EQUITY_NYS_BCS|10=082|
20150520-15:52:21.043: 8=FIX.4.4|9=74|35=0|34=168|49=ARBv8_EQUITY_NYS_BCS|52=20150520-15:52:21.043|56=MAMA_NYSE|10=072|
20150520-15:52:52.197: 8=FIX.4.4|9=74|35=0|34=169|49=MAMA_NYSE|52=20150520-15:52:52.194|56=ARBv8_EQUITY_NYS_BCS|10=084|
20150520-15:53:21.043: 8=FIX.4.4|9=74|35=0|34=169|49=ARBv8_EQUITY_NYS_BCS|52=20150520-15:53:21.043|56=MAMA_NYSE|10=074|
20150520-15:53:53.197: 8=FIX.4.4|9=74|35=0|34=170|49=MAMA_NYSE|52=20150520-15:53:53.194|56=ARBv8_EQUITY_NYS_BCS|10=078|
20150520-15:54:21.044: 8=FIX.4.4|9=74|35=0|34=170|49=ARBv8_EQUITY_NYS_BCS|52=20150520-15:54:21.044|56=MAMA_NYSE|10=068|
20150520-15:54:53.195: 8=FIX.4.4|9=74|35=0|34=171|49=MAMA_NYSE|52=20150520-15:54:53.194|56=ARBv8_EQUITY_NYS_BCS|10=080|
20150520-15:55:22.043: 8=FIX.4.4|9=74|35=0|34=171|49=ARBv8_EQUITY_NYS_BCS|52=20150520-15:55:22.043|56=MAMA_NYSE|10=070|
20150520-15:55:53.195: 8=FIX.4.4|9=74|35=0|34=172|49=MAMA_NYSE|52=20150520-15:55:53.194|56=ARBv8_EQUITY_NYS_BCS|10=082|
20150520-15:56:22.043: 8=FIX.4.4|9=74|35=0|34=172|49=ARBv8_EQUITY_NYS_BCS|52=20150520-15:56:22.043|56=MAMA_NYSE|10=072|
20150520-15:56:53.196: 8=FIX.4.4|9=74|35=0|34=173|49=MAMA_NYSE|52=20150520-15:56:53.194|56=ARBv8_EQUITY_NYS_BCS|10=084|
20150520-15:57:22.043: 8=FIX.4.4|9=74|35=0|34=173|49=ARBv8_EQUITY_NYS_BCS|52=20150520-15:57:22.043|56=MAMA_NYSE|10=074|
20150520-15:57:53.199: 8=FIX.4.4|9=74|35=0|34=174|49=MAMA_NYSE|52=20150520-15:57:53.194|56=ARBv8_EQUITY_NYS_BCS|10=086|
20150520-15:58:22.043: 8=FIX.4.4|9=74|35=0|34=174|49=ARBv8_EQUITY_NYS_BCS|52=20150520-15:58:22.043|56=MAMA_NYSE|10=076|
20150520-15:58:53.196: 8=FIX.4.4|9=74|35=0|34=175|49=MAMA_NYSE|52=20150520-15:58:53.194|56=ARBv8_EQUITY_NYS_BCS|10=088|
20150520-15:59:22.043: 8=FIX.4.4|9=74|35=0|34=175|49=ARBv8_EQUITY_NYS_BCS|52=20150520-15:59:22.043|56=MAMA_NYSE|10=078|
20150520-15:59:53.196: 8=FIX.4.4|9=74|35=0|34=176|49=MAMA_NYSE|52=20150520-15:59:53.194|56=ARBv8_EQUITY_NYS_BCS|10=090|
20150520-16:00:22.043: 8=FIX.4.4|9=74|35=0|34=176|49=ARBv8_EQUITY_NYS_BCS|52=20150520-16:00:22.043|56=MAMA_NYSE|10=066|
20150520-16:00:54.195: 8=FIX.4.4|9=74|35=0|34=177|49=MAMA_NYSE|52=20150520-16:00:54.194|56=ARBv8_EQUITY_NYS_BCS|10=079|
20150520-16:01:22.044: 8=FIX.4.4|9=74|35=0|34=177|49=ARBv8_EQUITY_NYS_BCS|52=20150520-16:01:22.043|56=MAMA_NYSE|10=068|
20150520-16:01:54.195: 8=FIX.4.4|9=74|35=0|34=178|49=MAMA_NYSE|52=20150520-16:01:54.194|56=ARBv8_EQUITY_NYS_BCS|10=081|
20150520-16:02:22.043: 8=FIX.4.4|9=74|35=0|34=178|49=ARBv8_EQUITY_NYS_BCS|52=20150520-16:02:22.043|56=MAMA_NYSE|10=070|
20150520-16:02:54.197: 8=FIX.4.4|9=74|35=0|34=179|49=MAMA_NYSE|52=20150520-16:02:54.194|56=ARBv8_EQUITY_NYS_BCS|10=083|
20150520-16:03:22.043: 8=FIX.4.4|9=74|35=0|34=179|49=ARBv8_EQUITY_NYS_BCS|52=20150520-16:03:22.043|56=MAMA_NYSE|10=072|
20150520-16:03:54.197: 8=FIX.4.4|9=74|35=0|34=180|49=MAMA_NYSE|52=20150520-16:03:54.194|56=ARBv8_EQUITY_NYS_BCS|10=076|
20150520-16:04:22.044: 8=FIX.4.4|9=74|35=0|34=180|49=ARBv8_EQUITY_NYS_BCS|52=20150520-16:04:22.043|56=MAMA_NYSE|10=065|
20150520-16:04:54.195: 8=FIX.4.4|9=74|35=0|34=181|49=MAMA_NYSE|52=20150520-16:04:54.194|56=ARBv8_EQUITY_NYS_BCS|10=078|
20150520-16:05:22.044: 8=FIX.4.4|9=74|35=0|34=181|49=ARBv8_EQUITY_NYS_BCS|52=20150520-16:05:22.043|56=MAMA_NYSE|10=067|
20150520-16:05:54.196: 8=FIX.4.4|9=74|35=0|34=182|49=MAMA_NYSE|52=20150520-16:05:54.194|56=ARBv8_EQUITY_NYS_BCS|10=080|
20150520-16:06:22.043: 8=FIX.4.4|9=74|35=0|34=182|49=ARBv8_EQUITY_NYS_BCS|52=20150520-16:06:22.043|56=MAMA_NYSE|10=069|
20150520-16:06:54.200: 8=FIX.4.4|9=74|35=0|34=183|49=MAMA_NYSE|52=20150520-16:06:54.198|56=ARBv8_EQUITY_NYS_BCS|10=086|
20150520-16:07:22.043: 8=FIX.4.4|9=74|35=0|34=183|49=ARBv8_EQUITY_NYS_BCS|52=20150520-16:07:22.043|56=MAMA_NYSE|10=071|
20150520-16:07:55.196: 8=FIX.4.4|9=74|35=0|34=184|49=MAMA_NYSE|52=20150520-16:07:55.194|56=ARBv8_EQUITY_NYS_BCS|10=085|
20150520-16:08:22.044: 8=FIX.4.4|9=74|35=0|34=184|49=ARBv8_EQUITY_NYS_BCS|52=20150520-16:08:22.044|56=MAMA_NYSE|10=074|
20150520-16:08:55.197: 8=FIX.4.4|9=74|35=0|34=185|49=MAMA_NYSE|52=20150520-16:08:55.194|56=ARBv8_EQUITY_NYS_BCS|10=087|
20150520-16:09:22.044: 8=FIX.4.4|9=74|35=0|34=185|49=ARBv8_EQUITY_NYS_BCS|52=20150520-16:09:22.044|56=MAMA_NYSE|10=076|
20150520-16:09:56.196: 8=FIX.4.4|9=74|35=0|34=186|49=MAMA_NYSE|52=20150520-16:09:56.194|56=ARBv8_EQUITY_NYS_BCS|10=090|
20150520-16:10:23.043: 8=FIX.4.4|9=74|35=0|34=186|49=ARBv8_EQUITY_NYS_BCS|52=20150520-16:10:23.043|56=MAMA_NYSE|10=069|
20150520-16:10:56.203: 8=FIX.4.4|9=74|35=0|34=187|49=MAMA_NYSE|52=20150520-16:10:56.194|56=ARBv8_EQUITY_NYS_BCS|10=083|
20150520-16:11:23.043: 8=FIX.4.4|9=74|35=0|34=187|49=ARBv8_EQUITY_NYS_BCS|52=20150520-16:11:23.043|56=MAMA_NYSE|10=071|
20150520-16:11:56.197: 8=FIX.4.4|9=74|35=0|34=188|49=MAMA_NYSE|52=20150520-16:11:56.194|56=ARBv8_EQUITY_NYS_BCS|10=085|
20150520-16:12:23.043: 8=FIX.4.4|9=74|35=0|34=188|49=ARBv8_EQUITY_NYS_BCS|52=20150520-16:12:23.043|56=MAMA_NYSE|10=073|
20150520-16:12:56.196: 8=FIX.4.4|9=74|35=0|34=189|49=MAMA_NYSE|52=20150520-16:12:56.194|56=ARBv8_EQUITY_NYS_BCS|10=087|
20150520-16:13:23.044: 8=FIX.4.4|9=74|35=0|34=189|49=ARBv8_EQUITY_NYS_BCS|52=20150520-16:13:23.044|56=MAMA_NYSE|10=076|
20150520-16:13:56.196: 8=FIX.4.4|9=74|35=0|34=190|49=MAMA_NYSE|52=20150520-16:13:56.194|56=ARBv8_EQUITY_NYS_BCS|10=080|
20150520-16:14:24.044: 8=FIX.4.4|9=74|35=0|34=190|49=ARBv8_EQUITY_NYS_BCS|52=20150520-16:14:24.044|56=MAMA_NYSE|10=070|
20150520-16:14:56.196: 8=FIX.4.4|9=74|35=0|34=191|49=MAMA_NYSE|52=20150520-16:14:56.194|56=ARBv8_EQUITY_NYS_BCS|10=082|
20150520-16:15:24.044: 8=FIX.4.4|9=74|35=0|34=191|49=ARBv8_EQUITY_NYS_BCS|52=20150520-16:15:24.044|56=MAMA_NYSE|10=072|
20150520-16:15:56.197: 8=FIX.4.4|9=74|35=0|34=192|49=MAMA_NYSE|52=20150520-16:15:56.194|56=ARBv8_EQUITY_NYS_BCS|10=084|
20150520-16:16:25.044: 8=FIX.4.4|9=74|35=0|34=192|49=ARBv8_EQUITY_NYS_BCS|52=20150520-16:16:25.044|56=MAMA_NYSE|10=075|
20150520-16:16:56.196: 8=FIX.4.4|9=74|35=0|34=193|49=MAMA_NYSE|52=20150520-16:16:56.194|56=ARBv8_EQUITY_NYS_BCS|10=086|
20150520-16:17:26.044: 8=FIX.4.4|9=74|35=0|34=193|49=ARBv8_EQUITY_NYS_BCS|52=20150520-16:17:26.044|56=MAMA_NYSE|10=078|
20150520-16:17:56.214: 8=FIX.4.4|9=74|35=0|34=194|49=MAMA_NYSE|52=20150520-16:17:56.194|56=ARBv8_EQUITY_NYS_BCS|10=088|
20150520-16:18:26.044: 8=FIX.4.4|9=74|35=0|34=194|49=ARBv8_EQUITY_NYS_BCS|52=20150520-16:18:26.044|56=MAMA_NYSE|10=080|
20150520-16:18:56.198: 8=FIX.4.4|9=74|35=0|34=195|49=MAMA_NYSE|52=20150520-16:18:56.194|56=ARBv8_EQUITY_NYS_BCS|10=090|
20150520-16:19:26.044: 8=FIX.4.4|9=74|35=0|34=195|49=ARBv8_EQUITY_NYS_BCS|52=20150520-16:19:26.044|56=MAMA_NYSE|10=082|
20150520-16:19:56.201: 8=FIX.4.4|9=74|35=0|34=196|49=MAMA_NYSE|52=20150520-16:19:56.197|56=ARBv8_EQUITY_NYS_BCS|10=095|
20150520-16:20:26.044: 8=FIX.4.4|9=74|35=0|34=196|49=ARBv8_EQUITY_NYS_BCS|52=20150520-16:20:26.044|56=MAMA_NYSE|10=075|
20150520-16:20:57.196: 8=FIX.4.4|9=74|35=0|34=197|49=MAMA_NYSE|52=20150520-16:20:57.194|56=ARBv8_EQUITY_NYS_BCS|10=086|
20150520-16:21:26.044: 8=FIX.4.4|9=74|35=0|34=197|49=ARBv8_EQUITY_NYS_BCS|52=20150520-16:21:26.044|56=MAMA_NYSE|10=077|
20150520-16:21:58.208: 8=FIX.4.4|9=74|35=0|34=198|49=MAMA_NYSE|52=20150520-16:21:58.194|56=ARBv8_EQUITY_NYS_BCS|10=089|
20150520-16:22:27.044: 8=FIX.4.4|9=74|35=0|34=198|49=ARBv8_EQUITY_NYS_BCS|52=20150520-16:22:27.044|56=MAMA_NYSE|10=080|
20150520-16:22:58.221: 8=FIX.4.4|9=74|35=0|34=199|49=MAMA_NYSE|52=20150520-16:22:58.194|56=ARBv8_EQUITY_NYS_BCS|10=091|
20150520-16:23:27.043: 8=FIX.4.4|9=74|35=0|34=199|49=ARBv8_EQUITY_NYS_BCS|52=20150520-16:23:27.043|56=MAMA_NYSE|10=081|
20150520-16:23:58.208: 8=FIX.4.4|9=74|35=0|34=200|49=MAMA_NYSE|52=20150520-16:23:58.194|56=ARBv8_EQUITY_NYS_BCS|10=075|
20150520-16:24:27.043: 8=FIX.4.4|9=74|35=0|34=200|49=ARBv8_EQUITY_NYS_BCS|52=20150520-16:24:27.043|56=MAMA_NYSE|10=065|
20150520-16:24:58.200: 8=FIX.4.4|9=74|35=0|34=201|49=MAMA_NYSE|52=20150520-16:24:58.194|56=ARBv8_EQUITY_NYS_BCS|10=077|
20150520-16:25:27.044: 8=FIX.4.4|9=74|35=0|34=201|49=ARBv8_EQUITY_NYS_BCS|52=20150520-16:25:27.044|56=MAMA_NYSE|10=068|
20150520-16:25:59.196: 8=FIX.4.4|9=74|35=0|34=202|49=MAMA_NYSE|52=20150520-16:25:59.194|56=ARBv8_EQUITY_NYS_BCS|10=080|
20150520-16:26:27.044: 8=FIX.4.4|9=74|35=0|34=202|49=ARBv8_EQUITY_NYS_BCS|52=20150520-16:26:27.044|56=MAMA_NYSE|10=070|
20150520-16:27:00.200: 8=FIX.4.4|9=74|35=0|34=203|49=MAMA_NYSE|52=20150520-16:27:00.194|56=ARBv8_EQUITY_NYS_BCS|10=069|
20150520-16:27:28.043: 8=FIX.4.4|9=74|35=0|34=203|49=ARBv8_EQUITY_NYS_BCS|52=20150520-16:27:28.043|56=MAMA_NYSE|10=072|
20150520-16:28:00.199: 8=FIX.4.4|9=74|35=0|34=204|49=MAMA_NYSE|52=20150520-16:28:00.194|56=ARBv8_EQUITY_NYS_BCS|10=071|
20150520-16:28:28.043: 8=FIX.4.4|9=74|35=0|34=204|49=ARBv8_EQUITY_NYS_BCS|52=20150520-16:28:28.043|56=MAMA_NYSE|10=074|
20150520-16:29:00.196: 8=FIX.4.4|9=74|35=0|34=205|49=MAMA_NYSE|52=20150520-16:29:00.194|56=ARBv8_EQUITY_NYS_BCS|10=073|
20150520-16:29:28.043: 8=FIX.4.4|9=74|35=0|34=205|49=ARBv8_EQUITY_NYS_BCS|52=20150520-16:29:28.043|56=MAMA_NYSE|10=076|
20150520-16:30:01.196: 8=FIX.4.4|9=74|35=0|34=206|49=MAMA_NYSE|52=20150520-16:30:01.194|56=ARBv8_EQUITY_NYS_BCS|10=067|
20150520-16:30:28.043: 8=FIX.4.4|9=74|35=0|34=206|49=ARBv8_EQUITY_NYS_BCS|52=20150520-16:30:28.043|56=MAMA_NYSE|10=069|
20150520-16:31:01.197: 8=FIX.4.4|9=74|35=0|34=207|49=MAMA_NYSE|52=20150520-16:31:01.194|56=ARBv8_EQUITY_NYS_BCS|10=069|
20150520-16:31:28.043: 8=FIX.4.4|9=74|35=0|34=207|49=ARBv8_EQUITY_NYS_BCS|52=20150520-16:31:28.043|56=MAMA_NYSE|10=071|
20150520-16:32:02.196: 8=FIX.4.4|9=74|35=0|34=208|49=MAMA_NYSE|52=20150520-16:32:02.194|56=ARBv8_EQUITY_NYS_BCS|10=072|
20150520-16:32:28.044: 8=FIX.4.4|9=74|35=0|34=208|49=ARBv8_EQUITY_NYS_BCS|52=20150520-16:32:28.044|56=MAMA_NYSE|10=074|
20150520-16:33:03.202: 8=FIX.4.4|9=74|35=0|34=209|49=MAMA_NYSE|52=20150520-16:33:03.194|56=ARBv8_EQUITY_NYS_BCS|10=075|
20150520-16:33:29.044: 8=FIX.4.4|9=74|35=0|34=209|49=ARBv8_EQUITY_NYS_BCS|52=20150520-16:33:29.044|56=MAMA_NYSE|10=077|
20150520-16:34:03.197: 8=FIX.4.4|9=74|35=0|34=210|49=MAMA_NYSE|52=20150520-16:34:03.194|56=ARBv8_EQUITY_NYS_BCS|10=068|
20150520-16:34:29.044: 8=FIX.4.4|9=74|35=0|34=210|49=ARBv8_EQUITY_NYS_BCS|52=20150520-16:34:29.044|56=MAMA_NYSE|10=070|
20150520-16:35:04.196: 8=FIX.4.4|9=74|35=0|34=211|49=MAMA_NYSE|52=20150520-16:35:04.194|56=ARBv8_EQUITY_NYS_BCS|10=071|
20150520-16:35:30.044: 8=FIX.4.4|9=74|35=0|34=211|49=ARBv8_EQUITY_NYS_BCS|52=20150520-16:35:30.044|56=MAMA_NYSE|10=064|
20150520-16:36:04.197: 8=FIX.4.4|9=74|35=0|34=212|49=MAMA_NYSE|52=20150520-16:36:04.194|56=ARBv8_EQUITY_NYS_BCS|10=073|
20150520-16:36:30.044: 8=FIX.4.4|9=74|35=0|34=212|49=ARBv8_EQUITY_NYS_BCS|52=20150520-16:36:30.044|56=MAMA_NYSE|10=066|
20150520-16:37:04.197: 8=FIX.4.4|9=74|35=0|34=213|49=MAMA_NYSE|52=20150520-16:37:04.194|56=ARBv8_EQUITY_NYS_BCS|10=075|
20150520-16:37:30.044: 8=FIX.4.4|9=74|35=0|34=213|49=ARBv8_EQUITY_NYS_BCS|52=20150520-16:37:30.044|56=MAMA_NYSE|10=068|
20150520-16:38:04.200: 8=FIX.4.4|9=74|35=0|34=214|49=MAMA_NYSE|52=20150520-16:38:04.194|56=ARBv8_EQUITY_NYS_BCS|10=077|
20150520-16:38:31.044: 8=FIX.4.4|9=74|35=0|34=214|49=ARBv8_EQUITY_NYS_BCS|52=20150520-16:38:31.044|56=MAMA_NYSE|10=071|
20150520-16:39:04.197: 8=FIX.4.4|9=74|35=0|34=215|49=MAMA_NYSE|52=20150520-16:39:04.194|56=ARBv8_EQUITY_NYS_BCS|10=079|
20150520-16:39:31.044: 8=FIX.4.4|9=74|35=0|34=215|49=ARBv8_EQUITY_NYS_BCS|52=20150520-16:39:31.044|56=MAMA_NYSE|10=073|
20150520-16:40:04.198: 8=FIX.4.4|9=74|35=0|34=216|49=MAMA_NYSE|52=20150520-16:40:04.194|56=ARBv8_EQUITY_NYS_BCS|10=072|
20150520-16:40:31.044: 8=FIX.4.4|9=74|35=0|34=216|49=ARBv8_EQUITY_NYS_BCS|52=20150520-16:40:31.044|56=MAMA_NYSE|10=066|
20150520-16:41:05.203: 8=FIX.4.4|9=74|35=0|34=217|49=MAMA_NYSE|52=20150520-16:41:05.194|56=ARBv8_EQUITY_NYS_BCS|10=075|
20150520-16:41:32.044: 8=FIX.4.4|9=74|35=0|34=217|49=ARBv8_EQUITY_NYS_BCS|52=20150520-16:41:32.044|56=MAMA_NYSE|10=069|
20150520-16:42:05.197: 8=FIX.4.4|9=74|35=0|34=218|49=MAMA_NYSE|52=20150520-16:42:05.194|56=ARBv8_EQUITY_NYS_BCS|10=077|
20150520-16:42:33.044: 8=FIX.4.4|9=74|35=0|34=218|49=ARBv8_EQUITY_NYS_BCS|52=20150520-16:42:33.044|56=MAMA_NYSE|10=072|
20150520-16:43:05.198: 8=FIX.4.4|9=74|35=0|34=219|49=MAMA_NYSE|52=20150520-16:43:05.194|56=ARBv8_EQUITY_NYS_BCS|10=079|
20150520-16:43:34.044: 8=FIX.4.4|9=74|35=0|34=219|49=ARBv8_EQUITY_NYS_BCS|52=20150520-16:43:34.044|56=MAMA_NYSE|10=075|
20150520-16:44:05.198: 8=FIX.4.4|9=74|35=0|34=220|49=MAMA_NYSE|52=20150520-16:44:05.194|56=ARBv8_EQUITY_NYS_BCS|10=072|
20150520-16:44:35.044: 8=FIX.4.4|9=74|35=0|34=220|49=ARBv8_EQUITY_NYS_BCS|52=20150520-16:44:35.044|56=MAMA_NYSE|10=069|
20150520-16:45:05.198: 8=FIX.4.4|9=74|35=0|34=221|49=MAMA_NYSE|52=20150520-16:45:05.194|56=ARBv8_EQUITY_NYS_BCS|10=074|
20150520-16:45:35.044: 8=FIX.4.4|9=74|35=0|34=221|49=ARBv8_EQUITY_NYS_BCS|52=20150520-16:45:35.044|56=MAMA_NYSE|10=071|
20150520-16:46:05.198: 8=FIX.4.4|9=74|35=0|34=222|49=MAMA_NYSE|52=20150520-16:46:05.194|56=ARBv8_EQUITY_NYS_BCS|10=076|
20150520-16:46:36.044: 8=FIX.4.4|9=74|35=0|34=222|49=ARBv8_EQUITY_NYS_BCS|52=20150520-16:46:36.044|56=MAMA_NYSE|10=074|
20150520-16:47:05.198: 8=FIX.4.4|9=74|35=0|34=223|49=MAMA_NYSE|52=20150520-16:47:05.194|56=ARBv8_EQUITY_NYS_BCS|10=078|
20150520-16:47:37.044: 8=FIX.4.4|9=74|35=0|34=223|49=ARBv8_EQUITY_NYS_BCS|52=20150520-16:47:37.044|56=MAMA_NYSE|10=077|
20150520-16:48:06.198: 8=FIX.4.4|9=74|35=0|34=224|49=MAMA_NYSE|52=20150520-16:48:06.194|56=ARBv8_EQUITY_NYS_BCS|10=081|
20150520-16:48:37.044: 8=FIX.4.4|9=74|35=0|34=224|49=ARBv8_EQUITY_NYS_BCS|52=20150520-16:48:37.044|56=MAMA_NYSE|10=079|
20150520-16:49:06.198: 8=FIX.4.4|9=74|35=0|34=225|49=MAMA_NYSE|52=20150520-16:49:06.194|56=ARBv8_EQUITY_NYS_BCS|10=083|
20150520-16:49:37.044: 8=FIX.4.4|9=74|35=0|34=225|49=ARBv8_EQUITY_NYS_BCS|52=20150520-16:49:37.044|56=MAMA_NYSE|10=081|
20150520-16:50:06.199: 8=FIX.4.4|9=74|35=0|34=226|49=MAMA_NYSE|52=20150520-16:50:06.194|56=ARBv8_EQUITY_NYS_BCS|10=076|
20150520-16:50:37.044: 8=FIX.4.4|9=74|35=0|34=226|49=ARBv8_EQUITY_NYS_BCS|52=20150520-16:50:37.044|56=MAMA_NYSE|10=074|
20150520-16:51:07.197: 8=FIX.4.4|9=74|35=0|34=227|49=MAMA_NYSE|52=20150520-16:51:07.194|56=ARBv8_EQUITY_NYS_BCS|10=079|
20150520-16:51:38.043: 8=FIX.4.4|9=74|35=0|34=227|49=ARBv8_EQUITY_NYS_BCS|52=20150520-16:51:38.043|56=MAMA_NYSE|10=076|
20150520-16:52:08.198: 8=FIX.4.4|9=74|35=0|34=228|49=MAMA_NYSE|52=20150520-16:52:08.194|56=ARBv8_EQUITY_NYS_BCS|10=082|
20150520-16:52:38.043: 8=FIX.4.4|9=74|35=0|34=228|49=ARBv8_EQUITY_NYS_BCS|52=20150520-16:52:38.043|56=MAMA_NYSE|10=078|
20150520-16:53:08.198: 8=FIX.4.4|9=74|35=0|34=229|49=MAMA_NYSE|52=20150520-16:53:08.194|56=ARBv8_EQUITY_NYS_BCS|10=084|
20150520-16:53:38.043: 8=FIX.4.4|9=74|35=0|34=229|49=ARBv8_EQUITY_NYS_BCS|52=20150520-16:53:38.043|56=MAMA_NYSE|10=080|
20150520-16:54:08.198: 8=FIX.4.4|9=74|35=0|34=230|49=MAMA_NYSE|52=20150520-16:54:08.194|56=ARBv8_EQUITY_NYS_BCS|10=077|
20150520-16:54:38.043: 8=FIX.4.4|9=74|35=0|34=230|49=ARBv8_EQUITY_NYS_BCS|52=20150520-16:54:38.043|56=MAMA_NYSE|10=073|
20150520-16:55:08.200: 8=FIX.4.4|9=74|35=0|34=231|49=MAMA_NYSE|52=20150520-16:55:08.196|56=ARBv8_EQUITY_NYS_BCS|10=081|
20150520-16:55:38.044: 8=FIX.4.4|9=74|35=0|34=231|49=ARBv8_EQUITY_NYS_BCS|52=20150520-16:55:38.044|56=MAMA_NYSE|10=076|
20150520-16:56:09.198: 8=FIX.4.4|9=74|35=0|34=232|49=MAMA_NYSE|52=20150520-16:56:09.194|56=ARBv8_EQUITY_NYS_BCS|10=082|
20150520-16:56:38.044: 8=FIX.4.4|9=74|35=0|34=232|49=ARBv8_EQUITY_NYS_BCS|52=20150520-16:56:38.044|56=MAMA_NYSE|10=078|
20150520-16:57:09.199: 8=FIX.4.4|9=74|35=0|34=233|49=MAMA_NYSE|52=20150520-16:57:09.194|56=ARBv8_EQUITY_NYS_BCS|10=084|
20150520-16:57:38.044: 8=FIX.4.4|9=74|35=0|34=233|49=ARBv8_EQUITY_NYS_BCS|52=20150520-16:57:38.044|56=MAMA_NYSE|10=080|
20150520-16:58:09.198: 8=FIX.4.4|9=74|35=0|34=234|49=MAMA_NYSE|52=20150520-16:58:09.194|56=ARBv8_EQUITY_NYS_BCS|10=086|
20150520-16:58:38.044: 8=FIX.4.4|9=74|35=0|34=234|49=ARBv8_EQUITY_NYS_BCS|52=20150520-16:58:38.044|56=MAMA_NYSE|10=082|
20150520-16:59:09.198: 8=FIX.4.4|9=74|35=0|34=235|49=MAMA_NYSE|52=20150520-16:59:09.194|56=ARBv8_EQUITY_NYS_BCS|10=088|
20150520-16:59:39.044: 8=FIX.4.4|9=74|35=0|34=235|49=ARBv8_EQUITY_NYS_BCS|52=20150520-16:59:39.044|56=MAMA_NYSE|10=085|
20150520-17:00:09.198: 8=FIX.4.4|9=74|35=0|34=236|49=MAMA_NYSE|52=20150520-17:00:09.194|56=ARBv8_EQUITY_NYS_BCS|10=076|
20150520-17:00:40.044: 8=FIX.4.4|9=74|35=0|34=236|49=ARBv8_EQUITY_NYS_BCS|52=20150520-17:00:40.044|56=MAMA_NYSE|10=065|
20150520-17:01:09.207: 8=FIX.4.4|9=74|35=0|34=237|49=MAMA_NYSE|52=20150520-17:01:09.194|56=ARBv8_EQUITY_NYS_BCS|10=078|
20150520-17:01:40.044: 8=FIX.4.4|9=74|35=0|34=237|49=ARBv8_EQUITY_NYS_BCS|52=20150520-17:01:40.044|56=MAMA_NYSE|10=067|
20150520-17:02:09.202: 8=FIX.4.4|9=74|35=0|34=238|49=MAMA_NYSE|52=20150520-17:02:09.194|56=ARBv8_EQUITY_NYS_BCS|10=080|
20150520-17:02:41.044: 8=FIX.4.4|9=74|35=0|34=238|49=ARBv8_EQUITY_NYS_BCS|52=20150520-17:02:41.044|56=MAMA_NYSE|10=070|
20150520-17:03:09.198: 8=FIX.4.4|9=74|35=0|34=239|49=MAMA_NYSE|52=20150520-17:03:09.194|56=ARBv8_EQUITY_NYS_BCS|10=082|
20150520-17:03:41.044: 8=FIX.4.4|9=74|35=0|34=239|49=ARBv8_EQUITY_NYS_BCS|52=20150520-17:03:41.044|56=MAMA_NYSE|10=072|
20150520-17:04:09.198: 8=FIX.4.4|9=74|35=0|34=240|49=MAMA_NYSE|52=20150520-17:04:09.194|56=ARBv8_EQUITY_NYS_BCS|10=075|
20150520-17:04:42.044: 8=FIX.4.4|9=74|35=0|34=240|49=ARBv8_EQUITY_NYS_BCS|52=20150520-17:04:42.044|56=MAMA_NYSE|10=066|
20150520-17:05:10.199: 8=FIX.4.4|9=74|35=0|34=241|49=MAMA_NYSE|52=20150520-17:05:10.194|56=ARBv8_EQUITY_NYS_BCS|10=069|
20150520-17:05:43.043: 8=FIX.4.4|9=74|35=0|34=241|49=ARBv8_EQUITY_NYS_BCS|52=20150520-17:05:43.043|56=MAMA_NYSE|10=068|
20150520-17:06:10.199: 8=FIX.4.4|9=74|35=0|34=242|49=MAMA_NYSE|52=20150520-17:06:10.194|56=ARBv8_EQUITY_NYS_BCS|10=071|
20150520-17:06:43.043: 8=FIX.4.4|9=74|35=0|34=242|49=ARBv8_EQUITY_NYS_BCS|52=20150520-17:06:43.043|56=MAMA_NYSE|10=070|
20150520-17:07:10.198: 8=FIX.4.4|9=74|35=0|34=243|49=MAMA_NYSE|52=20150520-17:07:10.194|56=ARBv8_EQUITY_NYS_BCS|10=073|
20150520-17:07:43.043: 8=FIX.4.4|9=74|35=0|34=243|49=ARBv8_EQUITY_NYS_BCS|52=20150520-17:07:43.043|56=MAMA_NYSE|10=072|
20150520-17:08:10.200: 8=FIX.4.4|9=74|35=0|34=244|49=MAMA_NYSE|52=20150520-17:08:10.194|56=ARBv8_EQUITY_NYS_BCS|10=075|
20150520-17:08:43.044: 8=FIX.4.4|9=74|35=0|34=244|49=ARBv8_EQUITY_NYS_BCS|52=20150520-17:08:43.044|56=MAMA_NYSE|10=075|
20150520-17:09:11.198: 8=FIX.4.4|9=74|35=0|34=245|49=MAMA_NYSE|52=20150520-17:09:11.194|56=ARBv8_EQUITY_NYS_BCS|10=078|
20150520-17:09:44.043: 8=FIX.4.4|9=74|35=0|34=245|49=ARBv8_EQUITY_NYS_BCS|52=20150520-17:09:44.043|56=MAMA_NYSE|10=077|
20150520-17:10:11.199: 8=FIX.4.4|9=74|35=0|34=246|49=MAMA_NYSE|52=20150520-17:10:11.194|56=ARBv8_EQUITY_NYS_BCS|10=071|
20150520-17:10:44.044: 8=FIX.4.4|9=74|35=0|34=246|49=ARBv8_EQUITY_NYS_BCS|52=20150520-17:10:44.044|56=MAMA_NYSE|10=071|
20150520-17:11:11.199: 8=FIX.4.4|9=74|35=0|34=247|49=MAMA_NYSE|52=20150520-17:11:11.194|56=ARBv8_EQUITY_NYS_BCS|10=073|
20150520-17:11:45.043: 8=FIX.4.4|9=74|35=0|34=247|49=ARBv8_EQUITY_NYS_BCS|52=20150520-17:11:45.043|56=MAMA_NYSE|10=073|
20150520-17:12:11.200: 8=FIX.4.4|9=74|35=0|34=248|49=MAMA_NYSE|52=20150520-17:12:11.194|56=ARBv8_EQUITY_NYS_BCS|10=075|
20150520-17:12:45.044: 8=FIX.4.4|9=74|35=0|34=248|49=ARBv8_EQUITY_NYS_BCS|52=20150520-17:12:45.043|56=MAMA_NYSE|10=075|
20150520-17:13:11.198: 8=FIX.4.4|9=74|35=0|34=249|49=MAMA_NYSE|52=20150520-17:13:11.194|56=ARBv8_EQUITY_NYS_BCS|10=077|
20150520-17:13:45.044: 8=FIX.4.4|9=74|35=0|34=249|49=ARBv8_EQUITY_NYS_BCS|52=20150520-17:13:45.044|56=MAMA_NYSE|10=078|
20150520-17:14:11.200: 8=FIX.4.4|9=74|35=0|34=250|49=MAMA_NYSE|52=20150520-17:14:11.194|56=ARBv8_EQUITY_NYS_BCS|10=070|
20150520-17:14:46.044: 8=FIX.4.4|9=74|35=0|34=250|49=ARBv8_EQUITY_NYS_BCS|52=20150520-17:14:46.044|56=MAMA_NYSE|10=072|
20150520-17:15:11.199: 8=FIX.4.4|9=74|35=0|34=251|49=MAMA_NYSE|52=20150520-17:15:11.194|56=ARBv8_EQUITY_NYS_BCS|10=072|
20150520-17:15:46.044: 8=FIX.4.4|9=74|35=0|34=251|49=ARBv8_EQUITY_NYS_BCS|52=20150520-17:15:46.044|56=MAMA_NYSE|10=074|
20150520-17:16:11.199: 8=FIX.4.4|9=74|35=0|34=252|49=MAMA_NYSE|52=20150520-17:16:11.194|56=ARBv8_EQUITY_NYS_BCS|10=074|
20150520-17:16:47.044: 8=FIX.4.4|9=74|35=0|34=252|49=ARBv8_EQUITY_NYS_BCS|52=20150520-17:16:47.044|56=MAMA_NYSE|10=077|
20150520-17:17:12.200: 8=FIX.4.4|9=74|35=0|34=253|49=MAMA_NYSE|52=20150520-17:17:12.194|56=ARBv8_EQUITY_NYS_BCS|10=077|
20150520-17:17:48.044: 8=FIX.4.4|9=74|35=0|34=253|49=ARBv8_EQUITY_NYS_BCS|52=20150520-17:17:48.044|56=MAMA_NYSE|10=080|
20150520-17:18:12.200: 8=FIX.4.4|9=74|35=0|34=254|49=MAMA_NYSE|52=20150520-17:18:12.194|56=ARBv8_EQUITY_NYS_BCS|10=079|
20150520-17:18:48.044: 8=FIX.4.4|9=74|35=0|34=254|49=ARBv8_EQUITY_NYS_BCS|52=20150520-17:18:48.044|56=MAMA_NYSE|10=082|
20150520-17:19:12.199: 8=FIX.4.4|9=74|35=0|34=255|49=MAMA_NYSE|52=20150520-17:19:12.194|56=ARBv8_EQUITY_NYS_BCS|10=081|
20150520-17:19:49.044: 8=FIX.4.4|9=74|35=0|34=255|49=ARBv8_EQUITY_NYS_BCS|52=20150520-17:19:49.044|56=MAMA_NYSE|10=085|
20150520-17:20:13.199: 8=FIX.4.4|9=74|35=0|34=256|49=MAMA_NYSE|52=20150520-17:20:13.194|56=ARBv8_EQUITY_NYS_BCS|10=075|
20150520-17:20:50.044: 8=FIX.4.4|9=74|35=0|34=256|49=ARBv8_EQUITY_NYS_BCS|52=20150520-17:20:50.044|56=MAMA_NYSE|10=070|
20150520-17:21:13.199: 8=FIX.4.4|9=74|35=0|34=257|49=MAMA_NYSE|52=20150520-17:21:13.194|56=ARBv8_EQUITY_NYS_BCS|10=077|
20150520-17:21:50.044: 8=FIX.4.4|9=74|35=0|34=257|49=ARBv8_EQUITY_NYS_BCS|52=20150520-17:21:50.044|56=MAMA_NYSE|10=072|
20150520-17:22:14.198: 8=FIX.4.4|9=74|35=0|34=258|49=MAMA_NYSE|52=20150520-17:22:14.194|56=ARBv8_EQUITY_NYS_BCS|10=080|
20150520-17:22:51.044: 8=FIX.4.4|9=74|35=0|34=258|49=ARBv8_EQUITY_NYS_BCS|52=20150520-17:22:51.044|56=MAMA_NYSE|10=075|
20150520-17:23:14.199: 8=FIX.4.4|9=74|35=0|34=259|49=MAMA_NYSE|52=20150520-17:23:14.194|56=ARBv8_EQUITY_NYS_BCS|10=082|
20150520-17:23:52.044: 8=FIX.4.4|9=74|35=0|34=259|49=ARBv8_EQUITY_NYS_BCS|52=20150520-17:23:52.044|56=MAMA_NYSE|10=078|
20150520-17:24:14.199: 8=FIX.4.4|9=74|35=0|34=260|49=MAMA_NYSE|52=20150520-17:24:14.194|56=ARBv8_EQUITY_NYS_BCS|10=075|
20150520-17:24:52.044: 8=FIX.4.4|9=74|35=0|34=260|49=ARBv8_EQUITY_NYS_BCS|52=20150520-17:24:52.044|56=MAMA_NYSE|10=071|
20150520-17:25:14.199: 8=FIX.4.4|9=74|35=0|34=261|49=MAMA_NYSE|52=20150520-17:25:14.194|56=ARBv8_EQUITY_NYS_BCS|10=077|
20150520-17:25:52.044: 8=FIX.4.4|9=74|35=0|34=261|49=ARBv8_EQUITY_NYS_BCS|52=20150520-17:25:52.044|56=MAMA_NYSE|10=073|
20150520-17:26:14.199: 8=FIX.4.4|9=74|35=0|34=262|49=MAMA_NYSE|52=20150520-17:26:14.194|56=ARBv8_EQUITY_NYS_BCS|10=079|
20150520-17:26:52.044: 8=FIX.4.4|9=74|35=0|34=262|49=ARBv8_EQUITY_NYS_BCS|52=20150520-17:26:52.044|56=MAMA_NYSE|10=075|
20150520-17:27:14.200: 8=FIX.4.4|9=74|35=0|34=263|49=MAMA_NYSE|52=20150520-17:27:14.195|56=ARBv8_EQUITY_NYS_BCS|10=082|
20150520-17:27:53.044: 8=FIX.4.4|9=74|35=0|34=263|49=ARBv8_EQUITY_NYS_BCS|52=20150520-17:27:53.044|56=MAMA_NYSE|10=078|
20150520-17:28:15.199: 8=FIX.4.4|9=74|35=0|34=264|49=MAMA_NYSE|52=20150520-17:28:15.193|56=ARBv8_EQUITY_NYS_BCS|10=083|
20150520-17:28:54.044: 8=FIX.4.4|9=74|35=0|34=264|49=ARBv8_EQUITY_NYS_BCS|52=20150520-17:28:54.044|56=MAMA_NYSE|10=081|
20150520-17:29:15.202: 8=FIX.4.4|9=74|35=0|34=265|49=MAMA_NYSE|52=20150520-17:29:15.194|56=ARBv8_EQUITY_NYS_BCS|10=086|
20150520-17:29:55.044: 8=FIX.4.4|9=74|35=0|34=265|49=ARBv8_EQUITY_NYS_BCS|52=20150520-17:29:55.044|56=MAMA_NYSE|10=084|
20150520-17:30:15.200: 8=FIX.4.4|9=74|35=0|34=266|49=MAMA_NYSE|52=20150520-17:30:15.194|56=ARBv8_EQUITY_NYS_BCS|10=079|
20150520-17:30:56.044: 8=FIX.4.4|9=74|35=0|34=266|49=ARBv8_EQUITY_NYS_BCS|52=20150520-17:30:56.044|56=MAMA_NYSE|10=078|
20150520-17:31:15.199: 8=FIX.4.4|9=74|35=0|34=267|49=MAMA_NYSE|52=20150520-17:31:15.194|56=ARBv8_EQUITY_NYS_BCS|10=081|
20150520-17:31:57.044: 8=FIX.4.4|9=74|35=0|34=267|49=ARBv8_EQUITY_NYS_BCS|52=20150520-17:31:57.044|56=MAMA_NYSE|10=081|
20150520-17:32:15.199: 8=FIX.4.4|9=74|35=0|34=268|49=MAMA_NYSE|52=20150520-17:32:15.194|56=ARBv8_EQUITY_NYS_BCS|10=083|
20150520-17:32:58.043: 8=FIX.4.4|9=74|35=0|34=268|49=ARBv8_EQUITY_NYS_BCS|52=20150520-17:32:58.043|56=MAMA_NYSE|10=083|
20150520-17:33:15.199: 8=FIX.4.4|9=74|35=0|34=269|49=MAMA_NYSE|52=20150520-17:33:15.194|56=ARBv8_EQUITY_NYS_BCS|10=085|
20150520-17:33:58.043: 8=FIX.4.4|9=74|35=0|34=269|49=ARBv8_EQUITY_NYS_BCS|52=20150520-17:33:58.043|56=MAMA_NYSE|10=085|
20150520-17:34:16.199: 8=FIX.4.4|9=74|35=0|34=270|49=MAMA_NYSE|52=20150520-17:34:16.194|56=ARBv8_EQUITY_NYS_BCS|10=079|
20150520-17:34:58.043: 8=FIX.4.4|9=74|35=0|34=270|49=ARBv8_EQUITY_NYS_BCS|52=20150520-17:34:58.043|56=MAMA_NYSE|10=078|
